{"abi":[{"inputs":[{"internalType":"contract FAANGToken","name":"_FAANG","type":"address"},{"internalType":"address","name":"_devAddr","type":"address"},{"internalType":"address","name":"_feeAddress","type":"address"},{"internalType":"uint256","name":"_startBlock","type":"uint256"}],"stateMutability":"nonpayable","type":"constructor"},{"anonymous":false,"inputs":[{"indexed":true,"internalType":"address","name":"user","type":"address"},{"indexed":true,"internalType":"uint256","name":"pid","type":"uint256"},{"indexed":false,"internalType":"uint256","name":"amount","type":"uint256"}],"name":"Deposit","type":"event"},{"anonymous":false,"inputs":[{"indexed":true,"internalType":"address","name":"user","type":"address"},{"indexed":true,"internalType":"uint256","name":"pid","type":"uint256"},{"indexed":false,"internalType":"uint256","name":"amount","type":"uint256"}],"name":"EmergencyWithdraw","type":"event"},{"anonymous":false,"inputs":[{"indexed":true,"internalType":"address","name":"previousOwner","type":"address"},{"indexed":true,"internalType":"address","name":"newOwner","type":"address"}],"name":"OwnershipTransferred","type":"event"},{"anonymous":false,"inputs":[{"indexed":true,"internalType":"address","name":"_referrer","type":"address"},{"indexed":true,"internalType":"address","name":"_user","type":"address"}],"name":"Referral","type":"event"},{"anonymous":false,"inputs":[{"indexed":false,"internalType":"uint256","name":"_oldBp","type":"uint256"},{"indexed":false,"internalType":"uint256","name":"_newBp","type":"uint256"}],"name":"ReferralBonusBpChanged","type":"event"},{"anonymous":false,"inputs":[{"indexed":true,"internalType":"address","name":"_user","type":"address"},{"indexed":true,"internalType":"address","name":"_userTo","type":"address"},{"indexed":false,"internalType":"uint256","name":"_reward","type":"uint256"}],"name":"ReferralPaid","type":"event"},{"anonymous":false,"inputs":[{"indexed":true,"internalType":"address","name":"user","type":"address"},{"indexed":true,"internalType":"uint256","name":"pid","type":"uint256"},{"indexed":false,"internalType":"uint256","name":"amount","type":"uint256"}],"name":"Withdraw","type":"event"},{"inputs":[],"name":"BONUS_MULTIPLIER","outputs":[{"internalType":"uint256","name":"","type":"uint256"}],"stateMutability":"view","type":"function"},{"inputs":[],"name":"FAANG","outputs":[{"internalType":"contract FAANGToken","name":"","type":"address"}],"stateMutability":"view","type":"function"},{"inputs":[],"name":"FAANGPerBlock","outputs":[{"internalType":"uint256","name":"","type":"uint256"}],"stateMutability":"view","type":"function"},{"inputs":[],"name":"INITIAL_EMISSION_RATE","outputs":[{"internalType":"uint256","name":"","type":"uint256"}],"stateMutability":"view","type":"function"},{"inputs":[],"name":"MAXIMUM_REFERRAL_BP","outputs":[{"internalType":"uint16","name":"","type":"uint16"}],"stateMutability":"view","type":"function"},{"inputs":[{"internalType":"uint256","name":"_allocPoint","type":"uint256"},{"internalType":"contract IBEP20","name":"_lpToken","type":"address"},{"internalType":"uint16","name":"_depositFeeBP","type":"uint16"},{"internalType":"bool","name":"_withUpdate","type":"bool"}],"name":"add","outputs":[],"stateMutability":"nonpayable","type":"function"},{"inputs":[{"internalType":"uint256","name":"_pid","type":"uint256"},{"internalType":"uint256","name":"_amount","type":"uint256"},{"internalType":"address","name":"_referrer","type":"address"}],"name":"deposit","outputs":[],"stateMutability":"nonpayable","type":"function"},{"inputs":[],"name":"devAddress","outputs":[{"internalType":"address","name":"","type":"address"}],"stateMutability":"view","type":"function"},{"inputs":[{"internalType":"uint256","name":"_pid","type":"uint256"}],"name":"emergencyWithdraw","outputs":[],"stateMutability":"nonpayable","type":"function"},{"inputs":[],"name":"feeAddress","outputs":[{"internalType":"address","name":"","type":"address"}],"stateMutability":"view","type":"function"},{"inputs":[{"internalType":"uint256","name":"_from","type":"uint256"},{"internalType":"uint256","name":"_to","type":"uint256"}],"name":"getMultiplier","outputs":[{"internalType":"uint256","name":"","type":"uint256"}],"stateMutability":"pure","type":"function"},{"inputs":[{"internalType":"address","name":"_user","type":"address"}],"name":"getReferral","outputs":[{"internalType":"address","name":"","type":"address"}],"stateMutability":"view","type":"function"},{"inputs":[],"name":"massUpdatePools","outputs":[],"stateMutability":"nonpayable","type":"function"},{"inputs":[],"name":"owner","outputs":[{"internalType":"address","name":"","type":"address"}],"stateMutability":"view","type":"function"},{"inputs":[{"internalType":"uint256","name":"_pid","type":"uint256"},{"internalType":"address","name":"_user","type":"address"}],"name":"pendingFAANG","outputs":[{"internalType":"uint256","name":"","type":"uint256"}],"stateMutability":"view","type":"function"},{"inputs":[{"internalType":"uint256","name":"","type":"uint256"}],"name":"poolInfo","outputs":[{"internalType":"contract IBEP20","name":"lpToken","type":"address"},{"internalType":"uint256","name":"allocPoint","type":"uint256"},{"internalType":"uint256","name":"lastRewardBlock","type":"uint256"},{"internalType":"uint256","name":"accFAANGPerShare","type":"uint256"},{"internalType":"uint16","name":"depositFeeBP","type":"uint16"}],"stateMutability":"view","type":"function"},{"inputs":[],"name":"poolLength","outputs":[{"internalType":"uint256","name":"","type":"uint256"}],"stateMutability":"view","type":"function"},{"inputs":[],"name":"refBonusBP","outputs":[{"internalType":"uint256","name":"","type":"uint256"}],"stateMutability":"view","type":"function"},{"inputs":[{"internalType":"address","name":"","type":"address"}],"name":"referredCount","outputs":[{"internalType":"uint256","name":"","type":"uint256"}],"stateMutability":"view","type":"function"},{"inputs":[{"internalType":"address","name":"","type":"address"}],"name":"referrers","outputs":[{"internalType":"address","name":"","type":"address"}],"stateMutability":"view","type":"function"},{"inputs":[],"name":"renounceOwnership","outputs":[],"stateMutability":"nonpayable","type":"function"},{"inputs":[{"internalType":"uint256","name":"_pid","type":"uint256"},{"internalType":"uint256","name":"_allocPoint","type":"uint256"},{"internalType":"uint16","name":"_depositFeeBP","type":"uint16"},{"internalType":"bool","name":"_withUpdate","type":"bool"}],"name":"set","outputs":[],"stateMutability":"nonpayable","type":"function"},{"inputs":[{"internalType":"address","name":"_devAddress","type":"address"}],"name":"setDevAddress","outputs":[],"stateMutability":"nonpayable","type":"function"},{"inputs":[{"internalType":"address","name":"_feeAddress","type":"address"}],"name":"setFeeAddress","outputs":[],"stateMutability":"nonpayable","type":"function"},{"inputs":[],"name":"startBlock","outputs":[{"internalType":"uint256","name":"","type":"uint256"}],"stateMutability":"view","type":"function"},{"inputs":[],"name":"totalAllocPoint","outputs":[{"internalType":"uint256","name":"","type":"uint256"}],"stateMutability":"view","type":"function"},{"inputs":[{"internalType":"address","name":"newOwner","type":"address"}],"name":"transferOwnership","outputs":[],"stateMutability":"nonpayable","type":"function"},{"inputs":[{"internalType":"uint256","name":"_pid","type":"uint256"}],"name":"updatePool","outputs":[],"stateMutability":"nonpayable","type":"function"},{"inputs":[{"internalType":"uint256","name":"_newRefBonusBp","type":"uint256"}],"name":"updateReferralBonusBp","outputs":[],"stateMutability":"nonpayable","type":"function"},{"inputs":[{"internalType":"uint256","name":"","type":"uint256"},{"internalType":"address","name":"","type":"address"}],"name":"userInfo","outputs":[{"internalType":"uint256","name":"amount","type":"uint256"},{"internalType":"uint256","name":"rewardDebt","type":"uint256"},{"internalType":"uint256","name":"rewardLockedUp","type":"uint256"}],"stateMutability":"view","type":"function"},{"inputs":[{"internalType":"uint256","name":"_pid","type":"uint256"},{"internalType":"uint256","name":"_amount","type":"uint256"}],"name":"withdraw","outputs":[],"stateMutability":"nonpayable","type":"function"}],"devdoc":{"kind":"dev","methods":{"owner()":{"details":"Returns the address of the current owner."},"renounceOwnership()":{"details":"Leaves the contract without owner. It will not be possible to call `onlyOwner` functions anymore. Can only be called by the current owner. NOTE: Renouncing ownership will leave the contract without an owner, thereby removing any functionality that is only available to the owner."},"transferOwnership(address)":{"details":"Transfers ownership of the contract to a new account (`newOwner`). Can only be called by the current owner."}},"version":1},"evm":{"assembly":"    /* \"FAANGOrchestrator.sol\":577:13378  contract FAANGOrchestrator is Ownable, ReentrancyGuard {... */\n  mstore(0x40, 0x80)\n    /* \"FAANGOrchestrator.sol\":2531:2534  200 */\n  0xc8\n    /* \"FAANGOrchestrator.sol\":2503:2534  uint256 public refBonusBP = 200 */\n  0x06\n  sstore\n    /* \"FAANGOrchestrator.sol\":3252:3253  0 */\n  0x00\n    /* \"FAANGOrchestrator.sol\":3219:3253  uint256 public totalAllocPoint = 0 */\n  0x0b\n  sstore\n    /* \"FAANGOrchestrator.sol\":3813:4126  constructor(... */\n  callvalue\n  dup1\n  iszero\n  tag_1\n  jumpi\n  0x00\n  dup1\n  revert\ntag_1:\n  pop\n  mload(0x40)\n  sub(codesize, bytecodeSize)\n  dup1\n  bytecodeSize\n  dup4\n  codecopy\n  dup2\n  dup2\n  add\n  0x40\n  mstore\n  0x80\n  dup2\n  lt\n  iszero\n  tag_2\n  jumpi\n  0x00\n  dup1\n  revert\ntag_2:\n  dup2\n  add\n  swap1\n  dup1\n  dup1\n  mload\n  swap1\n  0x20\n  add\n  swap1\n  swap3\n  swap2\n  swap1\n  dup1\n  mload\n  swap1\n  0x20\n  add\n  swap1\n  swap3\n  swap2\n  swap1\n  dup1\n  mload\n  swap1\n  0x20\n  add\n  swap1\n  swap3\n  swap2\n  swap1\n  dup1\n  mload\n  swap1\n  0x20\n  add\n  swap1\n  swap3\n  swap2\n  swap1\n  pop\n  pop\n  pop\n    /* \"Ownable.sol\":874:891  address msgSender */\n  0x00\n    /* \"Ownable.sol\":894:906  _msgSender() */\n  tag_9\n    /* \"Ownable.sol\":894:904  _msgSender */\n  shl(0x20, tag_10)\n    /* \"Ownable.sol\":894:906  _msgSender() */\n  0x20\n  shr\n  jump\t// in\ntag_9:\n    /* \"Ownable.sol\":874:906  address msgSender = _msgSender() */\n  swap1\n  pop\n    /* \"Ownable.sol\":925:934  msgSender */\n  dup1\n    /* \"Ownable.sol\":916:922  _owner */\n  0x00\n  dup1\n    /* \"Ownable.sol\":916:934  _owner = msgSender */\n  0x0100\n  exp\n  dup2\n  sload\n  dup2\n  0xffffffffffffffffffffffffffffffffffffffff\n  mul\n  not\n  and\n  swap1\n  dup4\n  0xffffffffffffffffffffffffffffffffffffffff\n  and\n  mul\n  or\n  swap1\n  sstore\n  pop\n    /* \"Ownable.sol\":982:991  msgSender */\n  dup1\n    /* \"Ownable.sol\":949:992  OwnershipTransferred(address(0), msgSender) */\n  0xffffffffffffffffffffffffffffffffffffffff\n  and\n    /* \"Ownable.sol\":978:979  0 */\n  0x00\n    /* \"Ownable.sol\":949:992  OwnershipTransferred(address(0), msgSender) */\n  0xffffffffffffffffffffffffffffffffffffffff\n  and\n  0x8be0079c531659141344cd1fd0a4f28419497f9722a3daafe3b4186f6b6457e0\n  mload(0x40)\n  mload(0x40)\n  dup1\n  swap2\n  sub\n  swap1\n  log3\n    /* \"Ownable.sol\":841:999  constructor() internal {... */\n  pop\n    /* \"ReentrancyGuard.sol\":1637:1638  1 */\n  0x01\n    /* \"ReentrancyGuard.sol\":1752:1759  _status */\n  dup1\n    /* \"ReentrancyGuard.sol\":1752:1774  _status = _NOT_ENTERED */\n  dup2\n  swap1\n  sstore\n  pop\n    /* \"FAANGOrchestrator.sol\":3967:3973  _FAANG */\n  dup4\n    /* \"FAANGOrchestrator.sol\":3959:3964  FAANG */\n  0x02\n  0x00\n    /* \"FAANGOrchestrator.sol\":3959:3973  FAANG = _FAANG */\n  0x0100\n  exp\n  dup2\n  sload\n  dup2\n  0xffffffffffffffffffffffffffffffffffffffff\n  mul\n  not\n  and\n  swap1\n  dup4\n  0xffffffffffffffffffffffffffffffffffffffff\n  and\n  mul\n  or\n  swap1\n  sstore\n  pop\n    /* \"FAANGOrchestrator.sol\":3996:4004  _devAddr */\n  dup3\n    /* \"FAANGOrchestrator.sol\":3983:3993  devAddress */\n  0x03\n  0x00\n    /* \"FAANGOrchestrator.sol\":3983:4004  devAddress = _devAddr */\n  0x0100\n  exp\n  dup2\n  sload\n  dup2\n  0xffffffffffffffffffffffffffffffffffffffff\n  mul\n  not\n  and\n  swap1\n  dup4\n  0xffffffffffffffffffffffffffffffffffffffff\n  and\n  mul\n  or\n  swap1\n  sstore\n  pop\n    /* \"FAANGOrchestrator.sol\":4027:4038  _feeAddress */\n  dup2\n    /* \"FAANGOrchestrator.sol\":4014:4024  feeAddress */\n  0x04\n  0x00\n    /* \"FAANGOrchestrator.sol\":4014:4038  feeAddress = _feeAddress */\n  0x0100\n  exp\n  dup2\n  sload\n  dup2\n  0xffffffffffffffffffffffffffffffffffffffff\n  mul\n  not\n  and\n  swap1\n  dup4\n  0xffffffffffffffffffffffffffffffffffffffff\n  and\n  mul\n  or\n  swap1\n  sstore\n  pop\n    /* \"FAANGOrchestrator.sol\":4061:4072  _startBlock */\n  dup1\n    /* \"FAANGOrchestrator.sol\":4048:4058  startBlock */\n  0x0c\n    /* \"FAANGOrchestrator.sol\":4048:4072  startBlock = _startBlock */\n  dup2\n  swap1\n  sstore\n  pop\n    /* \"FAANGOrchestrator.sol\":2942:2949  1 ether */\n  0x0de0b6b3a7640000\n    /* \"FAANGOrchestrator.sol\":4082:4095  FAANGPerBlock */\n  0x05\n    /* \"FAANGOrchestrator.sol\":4082:4119  FAANGPerBlock = INITIAL_EMISSION_RATE */\n  dup2\n  swap1\n  sstore\n  pop\n    /* \"FAANGOrchestrator.sol\":3813:4126  constructor(... */\n  pop\n  pop\n  pop\n  pop\n    /* \"FAANGOrchestrator.sol\":577:13378  contract FAANGOrchestrator is Ownable, ReentrancyGuard {... */\n  jump(tag_13)\n    /* \"Context.sol\":780:876  function _msgSender() internal view returns (address payable) {... */\ntag_10:\n    /* \"Context.sol\":825:840  address payable */\n  0x00\n    /* \"Context.sol\":859:869  msg.sender */\n  caller\n    /* \"Context.sol\":852:869  return msg.sender */\n  swap1\n  pop\n    /* \"Context.sol\":780:876  function _msgSender() internal view returns (address payable) {... */\n  swap1\n  jump\t// out\n    /* \"FAANGOrchestrator.sol\":577:13378  contract FAANGOrchestrator is Ownable, ReentrancyGuard {... */\ntag_13:\n  dataSize(sub_0)\n  dup1\n  dataOffset(sub_0)\n  0x00\n  codecopy\n  0x00\n  return\nstop\n\nsub_0: assembly {\n        /* \"FAANGOrchestrator.sol\":577:13378  contract FAANGOrchestrator is Ownable, ReentrancyGuard {... */\n      mstore(0x40, 0x80)\n      callvalue\n      dup1\n      iszero\n      tag_1\n      jumpi\n      0x00\n      dup1\n      revert\n    tag_1:\n      pop\n      jumpi(tag_2, lt(calldatasize, 0x04))\n      shr(0xe0, calldataload(0x00))\n      dup1\n      0x64ed743b\n      gt\n      tag_34\n      jumpi\n      dup1\n      0x8dbb1e3a\n      gt\n      tag_35\n      jumpi\n      dup1\n      0xc100710d\n      gt\n      tag_36\n      jumpi\n      dup1\n      0xc100710d\n      eq\n      tag_30\n      jumpi\n      dup1\n      0xd0d41fe1\n      eq\n      tag_31\n      jumpi\n      dup1\n      0xd9638422\n      eq\n      tag_32\n      jumpi\n      dup1\n      0xf2fde38b\n      eq\n      tag_33\n      jumpi\n      jump(tag_2)\n    tag_36:\n      dup1\n      0x8dbb1e3a\n      eq\n      tag_26\n      jumpi\n      dup1\n      0x8dbdbe6d\n      eq\n      tag_27\n      jumpi\n      dup1\n      0x91bb809c\n      eq\n      tag_28\n      jumpi\n      dup1\n      0x93f1a40b\n      eq\n      tag_29\n      jumpi\n      jump(tag_2)\n    tag_35:\n      dup1\n      0x84e82a33\n      gt\n      tag_37\n      jumpi\n      dup1\n      0x84e82a33\n      eq\n      tag_22\n      jumpi\n      dup1\n      0x8705fcd4\n      eq\n      tag_23\n      jumpi\n      dup1\n      0x8aa28550\n      eq\n      tag_24\n      jumpi\n      dup1\n      0x8da5cb5b\n      eq\n      tag_25\n      jumpi\n      jump(tag_2)\n    tag_37:\n      dup1\n      0x64ed743b\n      eq\n      tag_18\n      jumpi\n      dup1\n      0x6621d3ba\n      eq\n      tag_19\n      jumpi\n      dup1\n      0x66f685ea\n      eq\n      tag_20\n      jumpi\n      dup1\n      0x715018a6\n      eq\n      tag_21\n      jumpi\n      jump(tag_2)\n    tag_34:\n      dup1\n      0x3f7b06d8\n      gt\n      tag_38\n      jumpi\n      dup1\n      0x4a3b68cc\n      gt\n      tag_39\n      jumpi\n      dup1\n      0x4a3b68cc\n      eq\n      tag_14\n      jumpi\n      dup1\n      0x51eb05a6\n      eq\n      tag_15\n      jumpi\n      dup1\n      0x5312ea8e\n      eq\n      tag_16\n      jumpi\n      dup1\n      0x630b5ba1\n      eq\n      tag_17\n      jumpi\n      jump(tag_2)\n    tag_39:\n      dup1\n      0x3f7b06d8\n      eq\n      tag_10\n      jumpi\n      dup1\n      0x41275358\n      eq\n      tag_11\n      jumpi\n      dup1\n      0x441a3e70\n      eq\n      tag_12\n      jumpi\n      dup1\n      0x48cd4cb1\n      eq\n      tag_13\n      jumpi\n      jump(tag_2)\n    tag_38:\n      dup1\n      0x267c3338\n      gt\n      tag_40\n      jumpi\n      dup1\n      0x267c3338\n      eq\n      tag_6\n      jumpi\n      dup1\n      0x3a22df78\n      eq\n      tag_7\n      jumpi\n      dup1\n      0x3ad10ef6\n      eq\n      tag_8\n      jumpi\n      dup1\n      0x3b0f0f2f\n      eq\n      tag_9\n      jumpi\n      jump(tag_2)\n    tag_40:\n      dup1\n      0x081e3eda\n      eq\n      tag_3\n      jumpi\n      dup1\n      0x1526fe27\n      eq\n      tag_4\n      jumpi\n      dup1\n      0x17caf6f1\n      eq\n      tag_5\n      jumpi\n    tag_2:\n      0x00\n      dup1\n      revert\n        /* \"FAANGOrchestrator.sol\":4132:4225  function poolLength() external view returns (uint256) {... */\n    tag_3:\n      tag_41\n      tag_42\n      jump\t// in\n    tag_41:\n      mload(0x40)\n      dup1\n      dup3\n      dup2\n      mstore\n      0x20\n      add\n      swap2\n      pop\n      pop\n      mload(0x40)\n      dup1\n      swap2\n      sub\n      swap1\n      return\n        /* \"FAANGOrchestrator.sol\":2982:3008  PoolInfo[] public poolInfo */\n    tag_4:\n      tag_43\n      0x04\n      dup1\n      calldatasize\n      sub\n      0x20\n      dup2\n      lt\n      iszero\n      tag_44\n      jumpi\n      0x00\n      dup1\n      revert\n    tag_44:\n      dup2\n      add\n      swap1\n      dup1\n      dup1\n      calldataload\n      swap1\n      0x20\n      add\n      swap1\n      swap3\n      swap2\n      swap1\n      pop\n      pop\n      pop\n      tag_45\n      jump\t// in\n    tag_43:\n      mload(0x40)\n      dup1\n      dup7\n      0xffffffffffffffffffffffffffffffffffffffff\n      and\n      dup2\n      mstore\n      0x20\n      add\n      dup6\n      dup2\n      mstore\n      0x20\n      add\n      dup5\n      dup2\n      mstore\n      0x20\n      add\n      dup4\n      dup2\n      mstore\n      0x20\n      add\n      dup3\n      0xffff\n      and\n      dup2\n      mstore\n      0x20\n      add\n      swap6\n      pop\n      pop\n      pop\n      pop\n      pop\n      pop\n      mload(0x40)\n      dup1\n      swap2\n      sub\n      swap1\n      return\n        /* \"FAANGOrchestrator.sol\":3219:3253  uint256 public totalAllocPoint = 0 */\n    tag_5:\n      tag_46\n      tag_47\n      jump\t// in\n    tag_46:\n      mload(0x40)\n      dup1\n      dup3\n      dup2\n      mstore\n      0x20\n      add\n      swap2\n      pop\n      pop\n      mload(0x40)\n      dup1\n      swap2\n      sub\n      swap1\n      return\n        /* \"FAANGOrchestrator.sol\":2312:2340  uint256 public FAANGPerBlock */\n    tag_6:\n      tag_48\n      tag_49\n      jump\t// in\n    tag_48:\n      mload(0x40)\n      dup1\n      dup3\n      dup2\n      mstore\n      0x20\n      add\n      swap2\n      pop\n      pop\n      mload(0x40)\n      dup1\n      swap2\n      sub\n      swap1\n      return\n        /* \"FAANGOrchestrator.sol\":2582:2631  uint16 public constant MAXIMUM_REFERRAL_BP = 2000 */\n    tag_7:\n      tag_50\n      tag_51\n      jump\t// in\n    tag_50:\n      mload(0x40)\n      dup1\n      dup3\n      0xffff\n      and\n      dup2\n      mstore\n      0x20\n      add\n      swap2\n      pop\n      pop\n      mload(0x40)\n      dup1\n      swap2\n      sub\n      swap1\n      return\n        /* \"FAANGOrchestrator.sol\":2183:2208  address public devAddress */\n    tag_8:\n      tag_52\n      tag_53\n      jump\t// in\n    tag_52:\n      mload(0x40)\n      dup1\n      dup3\n      0xffffffffffffffffffffffffffffffffffffffff\n      and\n      dup2\n      mstore\n      0x20\n      add\n      swap2\n      pop\n      pop\n      mload(0x40)\n      dup1\n      swap2\n      sub\n      swap1\n      return\n        /* \"FAANGOrchestrator.sol\":12157:12263  function getReferral(address _user) public view returns (address) {... */\n    tag_9:\n      tag_54\n      0x04\n      dup1\n      calldatasize\n      sub\n      0x20\n      dup2\n      lt\n      iszero\n      tag_55\n      jumpi\n      0x00\n      dup1\n      revert\n    tag_55:\n      dup2\n      add\n      swap1\n      dup1\n      dup1\n      calldataload\n      0xffffffffffffffffffffffffffffffffffffffff\n      and\n      swap1\n      0x20\n      add\n      swap1\n      swap3\n      swap2\n      swap1\n      pop\n      pop\n      pop\n      tag_56\n      jump\t// in\n    tag_54:\n      mload(0x40)\n      dup1\n      dup3\n      0xffffffffffffffffffffffffffffffffffffffff\n      and\n      dup2\n      mstore\n      0x20\n      add\n      swap2\n      pop\n      pop\n      mload(0x40)\n      dup1\n      swap2\n      sub\n      swap1\n      return\n        /* \"FAANGOrchestrator.sol\":2750:2798  mapping(address => uint256) public referredCount */\n    tag_10:\n      tag_57\n      0x04\n      dup1\n      calldatasize\n      sub\n      0x20\n      dup2\n      lt\n      iszero\n      tag_58\n      jumpi\n      0x00\n      dup1\n      revert\n    tag_58:\n      dup2\n      add\n      swap1\n      dup1\n      dup1\n      calldataload\n      0xffffffffffffffffffffffffffffffffffffffff\n      and\n      swap1\n      0x20\n      add\n      swap1\n      swap3\n      swap2\n      swap1\n      pop\n      pop\n      pop\n      tag_59\n      jump\t// in\n    tag_57:\n      mload(0x40)\n      dup1\n      dup3\n      dup2\n      mstore\n      0x20\n      add\n      swap2\n      pop\n      pop\n      mload(0x40)\n      dup1\n      swap2\n      sub\n      swap1\n      return\n        /* \"FAANGOrchestrator.sol\":2241:2266  address public feeAddress */\n    tag_11:\n      tag_60\n      tag_61\n      jump\t// in\n    tag_60:\n      mload(0x40)\n      dup1\n      dup3\n      0xffffffffffffffffffffffffffffffffffffffff\n      and\n      dup2\n      mstore\n      0x20\n      add\n      swap2\n      pop\n      pop\n      mload(0x40)\n      dup1\n      swap2\n      sub\n      swap1\n      return\n        /* \"FAANGOrchestrator.sol\":9064:9684  function withdraw(uint256 _pid, uint256 _amount) public nonReentrant {... */\n    tag_12:\n      tag_62\n      0x04\n      dup1\n      calldatasize\n      sub\n      0x40\n      dup2\n      lt\n      iszero\n      tag_63\n      jumpi\n      0x00\n      dup1\n      revert\n    tag_63:\n      dup2\n      add\n      swap1\n      dup1\n      dup1\n      calldataload\n      swap1\n      0x20\n      add\n      swap1\n      swap3\n      swap2\n      swap1\n      dup1\n      calldataload\n      swap1\n      0x20\n      add\n      swap1\n      swap3\n      swap2\n      swap1\n      pop\n      pop\n      pop\n      tag_64\n      jump\t// in\n    tag_62:\n      stop\n        /* \"FAANGOrchestrator.sol\":3310:3335  uint256 public startBlock */\n    tag_13:\n      tag_65\n      tag_66\n      jump\t// in\n    tag_65:\n      mload(0x40)\n      dup1\n      dup3\n      dup2\n      mstore\n      0x20\n      add\n      swap2\n      pop\n      pop\n      mload(0x40)\n      dup1\n      swap2\n      sub\n      swap1\n      return\n        /* \"FAANGOrchestrator.sol\":2661:2705  mapping(address => address) public referrers */\n    tag_14:\n      tag_67\n      0x04\n      dup1\n      calldatasize\n      sub\n      0x20\n      dup2\n      lt\n      iszero\n      tag_68\n      jumpi\n      0x00\n      dup1\n      revert\n    tag_68:\n      dup2\n      add\n      swap1\n      dup1\n      dup1\n      calldataload\n      0xffffffffffffffffffffffffffffffffffffffff\n      and\n      swap1\n      0x20\n      add\n      swap1\n      swap3\n      swap2\n      swap1\n      pop\n      pop\n      pop\n      tag_69\n      jump\t// in\n    tag_67:\n      mload(0x40)\n      dup1\n      dup3\n      0xffffffffffffffffffffffffffffffffffffffff\n      and\n      dup2\n      mstore\n      0x20\n      add\n      swap2\n      pop\n      pop\n      mload(0x40)\n      dup1\n      swap2\n      sub\n      swap1\n      return\n        /* \"FAANGOrchestrator.sol\":6945:7746  function updatePool(uint256 _pid) public {... */\n    tag_15:\n      tag_70\n      0x04\n      dup1\n      calldatasize\n      sub\n      0x20\n      dup2\n      lt\n      iszero\n      tag_71\n      jumpi\n      0x00\n      dup1\n      revert\n    tag_71:\n      dup2\n      add\n      swap1\n      dup1\n      dup1\n      calldataload\n      swap1\n      0x20\n      add\n      swap1\n      swap3\n      swap2\n      swap1\n      pop\n      pop\n      pop\n      tag_72\n      jump\t// in\n    tag_70:\n      stop\n        /* \"FAANGOrchestrator.sol\":10409:10799  function emergencyWithdraw(uint256 _pid) public nonReentrant {... */\n    tag_16:\n      tag_73\n      0x04\n      dup1\n      calldatasize\n      sub\n      0x20\n      dup2\n      lt\n      iszero\n      tag_74\n      jumpi\n      0x00\n      dup1\n      revert\n    tag_74:\n      dup2\n      add\n      swap1\n      dup1\n      dup1\n      calldataload\n      swap1\n      0x20\n      add\n      swap1\n      swap3\n      swap2\n      swap1\n      pop\n      pop\n      pop\n      tag_75\n      jump\t// in\n    tag_73:\n      stop\n        /* \"FAANGOrchestrator.sol\":6697:6872  function massUpdatePools() public {... */\n    tag_17:\n      tag_76\n      tag_77\n      jump\t// in\n    tag_76:\n      stop\n        /* \"FAANGOrchestrator.sol\":12929:13376  function updateReferralBonusBp(uint256 _newRefBonusBp) public onlyOwner {... */\n    tag_18:\n      tag_78\n      0x04\n      dup1\n      calldatasize\n      sub\n      0x20\n      dup2\n      lt\n      iszero\n      tag_79\n      jumpi\n      0x00\n      dup1\n      revert\n    tag_79:\n      dup2\n      add\n      swap1\n      dup1\n      dup1\n      calldataload\n      swap1\n      0x20\n      add\n      swap1\n      swap3\n      swap2\n      swap1\n      pop\n      pop\n      pop\n      tag_80\n      jump\t// in\n    tag_78:\n      stop\n        /* \"FAANGOrchestrator.sol\":2134:2157  FAANGToken public FAANG */\n    tag_19:\n      tag_81\n      tag_82\n      jump\t// in\n    tag_81:\n      mload(0x40)\n      dup1\n      dup3\n      0xffffffffffffffffffffffffffffffffffffffff\n      and\n      dup2\n      mstore\n      0x20\n      add\n      swap2\n      pop\n      pop\n      mload(0x40)\n      dup1\n      swap2\n      sub\n      swap1\n      return\n        /* \"FAANGOrchestrator.sol\":2503:2534  uint256 public refBonusBP = 200 */\n    tag_20:\n      tag_83\n      tag_84\n      jump\t// in\n    tag_83:\n      mload(0x40)\n      dup1\n      dup3\n      dup2\n      mstore\n      0x20\n      add\n      swap2\n      pop\n      pop\n      mload(0x40)\n      dup1\n      swap2\n      sub\n      swap1\n      return\n        /* \"Ownable.sol\":1698:1835  function renounceOwnership() public onlyOwner {... */\n    tag_21:\n      tag_85\n      tag_86\n      jump\t// in\n    tag_85:\n      stop\n        /* \"FAANGOrchestrator.sol\":4390:5017  function add(uint256 _allocPoint, IBEP20 _lpToken, uint16 _depositFeeBP, bool _withUpdate) public onlyOwner {... */\n    tag_22:\n      tag_87\n      0x04\n      dup1\n      calldatasize\n      sub\n      0x80\n      dup2\n      lt\n      iszero\n      tag_88\n      jumpi\n      0x00\n      dup1\n      revert\n    tag_88:\n      dup2\n      add\n      swap1\n      dup1\n      dup1\n      calldataload\n      swap1\n      0x20\n      add\n      swap1\n      swap3\n      swap2\n      swap1\n      dup1\n      calldataload\n      0xffffffffffffffffffffffffffffffffffffffff\n      and\n      swap1\n      0x20\n      add\n      swap1\n      swap3\n      swap2\n      swap1\n      dup1\n      calldataload\n      0xffff\n      and\n      swap1\n      0x20\n      add\n      swap1\n      swap3\n      swap2\n      swap1\n      dup1\n      calldataload\n      iszero\n      iszero\n      swap1\n      0x20\n      add\n      swap1\n      swap3\n      swap2\n      swap1\n      pop\n      pop\n      pop\n      tag_89\n      jump\t// in\n    tag_87:\n      stop\n        /* \"FAANGOrchestrator.sol\":11559:11722  function setFeeAddress(address _feeAddress) public {... */\n    tag_23:\n      tag_90\n      0x04\n      dup1\n      calldatasize\n      sub\n      0x20\n      dup2\n      lt\n      iszero\n      tag_91\n      jumpi\n      0x00\n      dup1\n      revert\n    tag_91:\n      dup2\n      add\n      swap1\n      dup1\n      dup1\n      calldataload\n      0xffffffffffffffffffffffffffffffffffffffff\n      and\n      swap1\n      0x20\n      add\n      swap1\n      swap3\n      swap2\n      swap1\n      pop\n      pop\n      pop\n      tag_92\n      jump\t// in\n    tag_90:\n      stop\n        /* \"FAANGOrchestrator.sol\":2393:2437  uint256 public constant BONUS_MULTIPLIER = 1 */\n    tag_24:\n      tag_93\n      tag_94\n      jump\t// in\n    tag_93:\n      mload(0x40)\n      dup1\n      dup3\n      dup2\n      mstore\n      0x20\n      add\n      swap2\n      pop\n      pop\n      mload(0x40)\n      dup1\n      swap2\n      sub\n      swap1\n      return\n        /* \"Ownable.sol\":1075:1152  function owner() public view returns (address) {... */\n    tag_25:\n      tag_95\n      tag_96\n      jump\t// in\n    tag_95:\n      mload(0x40)\n      dup1\n      dup3\n      0xffffffffffffffffffffffffffffffffffffffff\n      and\n      dup2\n      mstore\n      0x20\n      add\n      swap2\n      pop\n      pop\n      mload(0x40)\n      dup1\n      swap2\n      sub\n      swap1\n      return\n        /* \"FAANGOrchestrator.sol\":5656:5797  function getMultiplier(uint256 _from, uint256 _to) public pure returns (uint256) {... */\n    tag_26:\n      tag_97\n      0x04\n      dup1\n      calldatasize\n      sub\n      0x40\n      dup2\n      lt\n      iszero\n      tag_98\n      jumpi\n      0x00\n      dup1\n      revert\n    tag_98:\n      dup2\n      add\n      swap1\n      dup1\n      dup1\n      calldataload\n      swap1\n      0x20\n      add\n      swap1\n      swap3\n      swap2\n      swap1\n      dup1\n      calldataload\n      swap1\n      0x20\n      add\n      swap1\n      swap3\n      swap2\n      swap1\n      pop\n      pop\n      pop\n      tag_99\n      jump\t// in\n    tag_97:\n      mload(0x40)\n      dup1\n      dup3\n      dup2\n      mstore\n      0x20\n      add\n      swap2\n      pop\n      pop\n      mload(0x40)\n      dup1\n      swap2\n      sub\n      swap1\n      return\n        /* \"FAANGOrchestrator.sol\":7826:9015  function deposit(uint256 _pid, uint256 _amount, address _referrer) public nonReentrant {... */\n    tag_27:\n      tag_100\n      0x04\n      dup1\n      calldatasize\n      sub\n      0x60\n      dup2\n      lt\n      iszero\n      tag_101\n      jumpi\n      0x00\n      dup1\n      revert\n    tag_101:\n      dup2\n      add\n      swap1\n      dup1\n      dup1\n      calldataload\n      swap1\n      0x20\n      add\n      swap1\n      swap3\n      swap2\n      swap1\n      dup1\n      calldataload\n      swap1\n      0x20\n      add\n      swap1\n      swap3\n      swap2\n      swap1\n      dup1\n      calldataload\n      0xffffffffffffffffffffffffffffffffffffffff\n      and\n      swap1\n      0x20\n      add\n      swap1\n      swap3\n      swap2\n      swap1\n      pop\n      pop\n      pop\n      tag_102\n      jump\t// in\n    tag_100:\n      stop\n        /* \"FAANGOrchestrator.sol\":2894:2949  uint256 public constant INITIAL_EMISSION_RATE = 1 ether */\n    tag_28:\n      tag_103\n      tag_104\n      jump\t// in\n    tag_103:\n      mload(0x40)\n      dup1\n      dup3\n      dup2\n      mstore\n      0x20\n      add\n      swap2\n      pop\n      pop\n      mload(0x40)\n      dup1\n      swap2\n      sub\n      swap1\n      return\n        /* \"FAANGOrchestrator.sol\":3062:3126  mapping(uint256 => mapping(address => UserInfo)) public userInfo */\n    tag_29:\n      tag_105\n      0x04\n      dup1\n      calldatasize\n      sub\n      0x40\n      dup2\n      lt\n      iszero\n      tag_106\n      jumpi\n      0x00\n      dup1\n      revert\n    tag_106:\n      dup2\n      add\n      swap1\n      dup1\n      dup1\n      calldataload\n      swap1\n      0x20\n      add\n      swap1\n      swap3\n      swap2\n      swap1\n      dup1\n      calldataload\n      0xffffffffffffffffffffffffffffffffffffffff\n      and\n      swap1\n      0x20\n      add\n      swap1\n      swap3\n      swap2\n      swap1\n      pop\n      pop\n      pop\n      tag_107\n      jump\t// in\n    tag_105:\n      mload(0x40)\n      dup1\n      dup5\n      dup2\n      mstore\n      0x20\n      add\n      dup4\n      dup2\n      mstore\n      0x20\n      add\n      dup3\n      dup2\n      mstore\n      0x20\n      add\n      swap4\n      pop\n      pop\n      pop\n      pop\n      mload(0x40)\n      dup1\n      swap2\n      sub\n      swap1\n      return\n        /* \"FAANGOrchestrator.sol\":5860:6617  function pendingFAANG(uint256 _pid, address _user) external view returns (uint256) {... */\n    tag_30:\n      tag_108\n      0x04\n      dup1\n      calldatasize\n      sub\n      0x40\n      dup2\n      lt\n      iszero\n      tag_109\n      jumpi\n      0x00\n      dup1\n      revert\n    tag_109:\n      dup2\n      add\n      swap1\n      dup1\n      dup1\n      calldataload\n      swap1\n      0x20\n      add\n      swap1\n      swap3\n      swap2\n      swap1\n      dup1\n      calldataload\n      0xffffffffffffffffffffffffffffffffffffffff\n      and\n      swap1\n      0x20\n      add\n      swap1\n      swap3\n      swap2\n      swap1\n      pop\n      pop\n      pop\n      tag_110\n      jump\t// in\n    tag_108:\n      mload(0x40)\n      dup1\n      dup3\n      dup2\n      mstore\n      0x20\n      add\n      swap2\n      pop\n      pop\n      mload(0x40)\n      dup1\n      swap2\n      sub\n      swap1\n      return\n        /* \"FAANGOrchestrator.sol\":11390:11553  function setDevAddress(address _devAddress) public {... */\n    tag_31:\n      tag_111\n      0x04\n      dup1\n      calldatasize\n      sub\n      0x20\n      dup2\n      lt\n      iszero\n      tag_112\n      jumpi\n      0x00\n      dup1\n      revert\n    tag_112:\n      dup2\n      add\n      swap1\n      dup1\n      dup1\n      calldataload\n      0xffffffffffffffffffffffffffffffffffffffff\n      and\n      swap1\n      0x20\n      add\n      swap1\n      swap3\n      swap2\n      swap1\n      pop\n      pop\n      pop\n      tag_113\n      jump\t// in\n    tag_111:\n      stop\n        /* \"FAANGOrchestrator.sol\":5128:5583  function set(uint256 _pid, uint256 _allocPoint, uint16 _depositFeeBP, bool _withUpdate) public onlyOwner {... */\n    tag_32:\n      tag_114\n      0x04\n      dup1\n      calldatasize\n      sub\n      0x80\n      dup2\n      lt\n      iszero\n      tag_115\n      jumpi\n      0x00\n      dup1\n      revert\n    tag_115:\n      dup2\n      add\n      swap1\n      dup1\n      dup1\n      calldataload\n      swap1\n      0x20\n      add\n      swap1\n      swap3\n      swap2\n      swap1\n      dup1\n      calldataload\n      swap1\n      0x20\n      add\n      swap1\n      swap3\n      swap2\n      swap1\n      dup1\n      calldataload\n      0xffff\n      and\n      swap1\n      0x20\n      add\n      swap1\n      swap3\n      swap2\n      swap1\n      dup1\n      calldataload\n      iszero\n      iszero\n      swap1\n      0x20\n      add\n      swap1\n      swap3\n      swap2\n      swap1\n      pop\n      pop\n      pop\n      tag_116\n      jump\t// in\n    tag_114:\n      stop\n        /* \"Ownable.sol\":1984:2091  function transferOwnership(address newOwner) public onlyOwner {... */\n    tag_33:\n      tag_117\n      0x04\n      dup1\n      calldatasize\n      sub\n      0x20\n      dup2\n      lt\n      iszero\n      tag_118\n      jumpi\n      0x00\n      dup1\n      revert\n    tag_118:\n      dup2\n      add\n      swap1\n      dup1\n      dup1\n      calldataload\n      0xffffffffffffffffffffffffffffffffffffffff\n      and\n      swap1\n      0x20\n      add\n      swap1\n      swap3\n      swap2\n      swap1\n      pop\n      pop\n      pop\n      tag_119\n      jump\t// in\n    tag_117:\n      stop\n        /* \"FAANGOrchestrator.sol\":4132:4225  function poolLength() external view returns (uint256) {... */\n    tag_42:\n        /* \"FAANGOrchestrator.sol\":4177:4184  uint256 */\n      0x00\n        /* \"FAANGOrchestrator.sol\":4203:4211  poolInfo */\n      0x09\n        /* \"FAANGOrchestrator.sol\":4203:4218  poolInfo.length */\n      dup1\n      sload\n      swap1\n      pop\n        /* \"FAANGOrchestrator.sol\":4196:4218  return poolInfo.length */\n      swap1\n      pop\n        /* \"FAANGOrchestrator.sol\":4132:4225  function poolLength() external view returns (uint256) {... */\n      swap1\n      jump\t// out\n        /* \"FAANGOrchestrator.sol\":2982:3008  PoolInfo[] public poolInfo */\n    tag_45:\n      0x09\n      dup2\n      dup2\n      sload\n      dup2\n      lt\n      tag_121\n      jumpi\n      invalid\n    tag_121:\n      swap1\n      0x00\n      mstore\n      keccak256(0x00, 0x20)\n      swap1\n      0x05\n      mul\n      add\n      0x00\n      swap2\n      pop\n      swap1\n      pop\n      dup1\n      0x00\n      add\n      0x00\n      swap1\n      sload\n      swap1\n      0x0100\n      exp\n      swap1\n      div\n      0xffffffffffffffffffffffffffffffffffffffff\n      and\n      swap1\n      dup1\n      0x01\n      add\n      sload\n      swap1\n      dup1\n      0x02\n      add\n      sload\n      swap1\n      dup1\n      0x03\n      add\n      sload\n      swap1\n      dup1\n      0x04\n      add\n      0x00\n      swap1\n      sload\n      swap1\n      0x0100\n      exp\n      swap1\n      div\n      0xffff\n      and\n      swap1\n      pop\n      dup6\n      jump\t// out\n        /* \"FAANGOrchestrator.sol\":3219:3253  uint256 public totalAllocPoint = 0 */\n    tag_47:\n      sload(0x0b)\n      dup2\n      jump\t// out\n        /* \"FAANGOrchestrator.sol\":2312:2340  uint256 public FAANGPerBlock */\n    tag_49:\n      sload(0x05)\n      dup2\n      jump\t// out\n        /* \"FAANGOrchestrator.sol\":2582:2631  uint16 public constant MAXIMUM_REFERRAL_BP = 2000 */\n    tag_51:\n        /* \"FAANGOrchestrator.sol\":2627:2631  2000 */\n      0x07d0\n        /* \"FAANGOrchestrator.sol\":2582:2631  uint16 public constant MAXIMUM_REFERRAL_BP = 2000 */\n      dup2\n      jump\t// out\n        /* \"FAANGOrchestrator.sol\":2183:2208  address public devAddress */\n    tag_53:\n      0x03\n      0x00\n      swap1\n      sload\n      swap1\n      0x0100\n      exp\n      swap1\n      div\n      0xffffffffffffffffffffffffffffffffffffffff\n      and\n      dup2\n      jump\t// out\n        /* \"FAANGOrchestrator.sol\":12157:12263  function getReferral(address _user) public view returns (address) {... */\n    tag_56:\n        /* \"FAANGOrchestrator.sol\":12214:12221  address */\n      0x00\n        /* \"FAANGOrchestrator.sol\":12240:12249  referrers */\n      0x07\n        /* \"FAANGOrchestrator.sol\":12240:12256  referrers[_user] */\n      0x00\n        /* \"FAANGOrchestrator.sol\":12250:12255  _user */\n      dup4\n        /* \"FAANGOrchestrator.sol\":12240:12256  referrers[_user] */\n      0xffffffffffffffffffffffffffffffffffffffff\n      and\n      0xffffffffffffffffffffffffffffffffffffffff\n      and\n      dup2\n      mstore\n      0x20\n      add\n      swap1\n      dup2\n      mstore\n      0x20\n      add\n      0x00\n      keccak256\n      0x00\n      swap1\n      sload\n      swap1\n      0x0100\n      exp\n      swap1\n      div\n      0xffffffffffffffffffffffffffffffffffffffff\n      and\n        /* \"FAANGOrchestrator.sol\":12233:12256  return referrers[_user] */\n      swap1\n      pop\n        /* \"FAANGOrchestrator.sol\":12157:12263  function getReferral(address _user) public view returns (address) {... */\n      swap2\n      swap1\n      pop\n      jump\t// out\n        /* \"FAANGOrchestrator.sol\":2750:2798  mapping(address => uint256) public referredCount */\n    tag_59:\n      mstore(0x20, 0x08)\n      dup1\n      0x00\n      mstore\n      keccak256(0x00, 0x40)\n      0x00\n      swap2\n      pop\n      swap1\n      pop\n      sload\n      dup2\n      jump\t// out\n        /* \"FAANGOrchestrator.sol\":2241:2266  address public feeAddress */\n    tag_61:\n      0x04\n      0x00\n      swap1\n      sload\n      swap1\n      0x0100\n      exp\n      swap1\n      div\n      0xffffffffffffffffffffffffffffffffffffffff\n      and\n      dup2\n      jump\t// out\n        /* \"FAANGOrchestrator.sol\":9064:9684  function withdraw(uint256 _pid, uint256 _amount) public nonReentrant {... */\n    tag_64:\n        /* \"ReentrancyGuard.sol\":1680:1681  2 */\n      0x02\n        /* \"ReentrancyGuard.sol\":2269:2276  _status */\n      sload(0x01)\n        /* \"ReentrancyGuard.sol\":2269:2288  _status != _ENTERED */\n      eq\n      iszero\n        /* \"ReentrancyGuard.sol\":2261:2324  require(_status != _ENTERED, \"ReentrancyGuard: reentrant call\") */\n      tag_125\n      jumpi\n      mload(0x40)\n      0x08c379a000000000000000000000000000000000000000000000000000000000\n      dup2\n      mstore\n      0x04\n      add\n      dup1\n      dup1\n      0x20\n      add\n      dup3\n      dup2\n      sub\n      dup3\n      mstore\n      0x1f\n      dup2\n      mstore\n      0x20\n      add\n      dup1\n      0x5265656e7472616e637947756172643a207265656e7472616e742063616c6c00\n      dup2\n      mstore\n      pop\n      0x20\n      add\n      swap2\n      pop\n      pop\n      mload(0x40)\n      dup1\n      swap2\n      sub\n      swap1\n      revert\n    tag_125:\n        /* \"ReentrancyGuard.sol\":1680:1681  2 */\n      0x02\n        /* \"ReentrancyGuard.sol\":2399:2406  _status */\n      0x01\n        /* \"ReentrancyGuard.sol\":2399:2417  _status = _ENTERED */\n      dup2\n      swap1\n      sstore\n      pop\n        /* \"FAANGOrchestrator.sol\":9143:9164  PoolInfo storage pool */\n      0x00\n        /* \"FAANGOrchestrator.sol\":9167:9175  poolInfo */\n      0x09\n        /* \"FAANGOrchestrator.sol\":9176:9180  _pid */\n      dup4\n        /* \"FAANGOrchestrator.sol\":9167:9181  poolInfo[_pid] */\n      dup2\n      sload\n      dup2\n      lt\n      tag_127\n      jumpi\n      invalid\n    tag_127:\n      swap1\n      0x00\n      mstore\n      keccak256(0x00, 0x20)\n      swap1\n      0x05\n      mul\n      add\n        /* \"FAANGOrchestrator.sol\":9143:9181  PoolInfo storage pool = poolInfo[_pid] */\n      swap1\n      pop\n        /* \"FAANGOrchestrator.sol\":9191:9212  UserInfo storage user */\n      0x00\n        /* \"FAANGOrchestrator.sol\":9215:9223  userInfo */\n      0x0a\n        /* \"FAANGOrchestrator.sol\":9215:9229  userInfo[_pid] */\n      0x00\n        /* \"FAANGOrchestrator.sol\":9224:9228  _pid */\n      dup6\n        /* \"FAANGOrchestrator.sol\":9215:9229  userInfo[_pid] */\n      dup2\n      mstore\n      0x20\n      add\n      swap1\n      dup2\n      mstore\n      0x20\n      add\n      0x00\n      keccak256\n        /* \"FAANGOrchestrator.sol\":9215:9241  userInfo[_pid][msg.sender] */\n      0x00\n        /* \"FAANGOrchestrator.sol\":9230:9240  msg.sender */\n      caller\n        /* \"FAANGOrchestrator.sol\":9215:9241  userInfo[_pid][msg.sender] */\n      0xffffffffffffffffffffffffffffffffffffffff\n      and\n      0xffffffffffffffffffffffffffffffffffffffff\n      and\n      dup2\n      mstore\n      0x20\n      add\n      swap1\n      dup2\n      mstore\n      0x20\n      add\n      0x00\n      keccak256\n        /* \"FAANGOrchestrator.sol\":9191:9241  UserInfo storage user = userInfo[_pid][msg.sender] */\n      swap1\n      pop\n        /* \"FAANGOrchestrator.sol\":9275:9282  _amount */\n      dup3\n        /* \"FAANGOrchestrator.sol\":9260:9264  user */\n      dup2\n        /* \"FAANGOrchestrator.sol\":9260:9271  user.amount */\n      0x00\n      add\n      sload\n        /* \"FAANGOrchestrator.sol\":9260:9282  user.amount >= _amount */\n      lt\n      iszero\n        /* \"FAANGOrchestrator.sol\":9252:9305  require(user.amount >= _amount, \"withdraw: not good\") */\n      tag_129\n      jumpi\n      mload(0x40)\n      0x08c379a000000000000000000000000000000000000000000000000000000000\n      dup2\n      mstore\n      0x04\n      add\n      dup1\n      dup1\n      0x20\n      add\n      dup3\n      dup2\n      sub\n      dup3\n      mstore\n      0x12\n      dup2\n      mstore\n      0x20\n      add\n      dup1\n      0x77697468647261773a206e6f7420676f6f640000000000000000000000000000\n      dup2\n      mstore\n      pop\n      0x20\n      add\n      swap2\n      pop\n      pop\n      mload(0x40)\n      dup1\n      swap2\n      sub\n      swap1\n      revert\n    tag_129:\n        /* \"FAANGOrchestrator.sol\":9316:9332  updatePool(_pid) */\n      tag_130\n        /* \"FAANGOrchestrator.sol\":9327:9331  _pid */\n      dup5\n        /* \"FAANGOrchestrator.sol\":9316:9326  updatePool */\n      tag_72\n        /* \"FAANGOrchestrator.sol\":9316:9332  updatePool(_pid) */\n      jump\t// in\n    tag_130:\n        /* \"FAANGOrchestrator.sol\":9343:9372  payOrLockupPendingFAANG(_pid) */\n      tag_131\n        /* \"FAANGOrchestrator.sol\":9367:9371  _pid */\n      dup5\n        /* \"FAANGOrchestrator.sol\":9343:9366  payOrLockupPendingFAANG */\n      tag_132\n        /* \"FAANGOrchestrator.sol\":9343:9372  payOrLockupPendingFAANG(_pid) */\n      jump\t// in\n    tag_131:\n        /* \"FAANGOrchestrator.sol\":9397:9398  0 */\n      0x00\n        /* \"FAANGOrchestrator.sol\":9387:9394  _amount */\n      dup4\n        /* \"FAANGOrchestrator.sol\":9387:9398  _amount > 0 */\n      gt\n        /* \"FAANGOrchestrator.sol\":9383:9532  if (_amount > 0) {... */\n      iszero\n      tag_133\n      jumpi\n        /* \"FAANGOrchestrator.sol\":9428:9452  user.amount.sub(_amount) */\n      tag_134\n        /* \"FAANGOrchestrator.sol\":9444:9451  _amount */\n      dup4\n        /* \"FAANGOrchestrator.sol\":9428:9432  user */\n      dup3\n        /* \"FAANGOrchestrator.sol\":9428:9439  user.amount */\n      0x00\n      add\n      sload\n        /* \"FAANGOrchestrator.sol\":9428:9443  user.amount.sub */\n      tag_135\n      swap1\n        /* \"FAANGOrchestrator.sol\":9428:9452  user.amount.sub(_amount) */\n      swap2\n      swap1\n      0xffffffff\n      and\n      jump\t// in\n    tag_134:\n        /* \"FAANGOrchestrator.sol\":9414:9418  user */\n      dup2\n        /* \"FAANGOrchestrator.sol\":9414:9425  user.amount */\n      0x00\n      add\n        /* \"FAANGOrchestrator.sol\":9414:9452  user.amount = user.amount.sub(_amount) */\n      dup2\n      swap1\n      sstore\n      pop\n        /* \"FAANGOrchestrator.sol\":9466:9521  pool.lpToken.safeTransfer(address(msg.sender), _amount) */\n      tag_136\n        /* \"FAANGOrchestrator.sol\":9500:9510  msg.sender */\n      caller\n        /* \"FAANGOrchestrator.sol\":9513:9520  _amount */\n      dup5\n        /* \"FAANGOrchestrator.sol\":9466:9470  pool */\n      dup5\n        /* \"FAANGOrchestrator.sol\":9466:9478  pool.lpToken */\n      0x00\n      add\n      0x00\n      swap1\n      sload\n      swap1\n      0x0100\n      exp\n      swap1\n      div\n      0xffffffffffffffffffffffffffffffffffffffff\n      and\n        /* \"FAANGOrchestrator.sol\":9466:9491  pool.lpToken.safeTransfer */\n      0xffffffffffffffffffffffffffffffffffffffff\n      and\n      tag_137\n      swap1\n        /* \"FAANGOrchestrator.sol\":9466:9521  pool.lpToken.safeTransfer(address(msg.sender), _amount) */\n      swap3\n      swap2\n      swap1\n      0xffffffff\n      and\n      jump\t// in\n    tag_136:\n        /* \"FAANGOrchestrator.sol\":9383:9532  if (_amount > 0) {... */\n    tag_133:\n        /* \"FAANGOrchestrator.sol\":9560:9626  user.amount... */\n      tag_138\n        /* \"FAANGOrchestrator.sol\":9621:9625  1e12 */\n      0xe8d4a51000\n        /* \"FAANGOrchestrator.sol\":9560:9607  user.amount... */\n      tag_139\n        /* \"FAANGOrchestrator.sol\":9585:9589  pool */\n      dup5\n        /* \"FAANGOrchestrator.sol\":9585:9606  pool.accFAANGPerShare */\n      0x03\n      add\n      sload\n        /* \"FAANGOrchestrator.sol\":9560:9564  user */\n      dup5\n        /* \"FAANGOrchestrator.sol\":9560:9571  user.amount */\n      0x00\n      add\n      sload\n        /* \"FAANGOrchestrator.sol\":9560:9584  user.amount... */\n      tag_140\n      swap1\n        /* \"FAANGOrchestrator.sol\":9560:9607  user.amount... */\n      swap2\n      swap1\n      0xffffffff\n      and\n      jump\t// in\n    tag_139:\n        /* \"FAANGOrchestrator.sol\":9560:9620  user.amount... */\n      tag_141\n      swap1\n        /* \"FAANGOrchestrator.sol\":9560:9626  user.amount... */\n      swap2\n      swap1\n      0xffffffff\n      and\n      jump\t// in\n    tag_138:\n        /* \"FAANGOrchestrator.sol\":9542:9546  user */\n      dup2\n        /* \"FAANGOrchestrator.sol\":9542:9557  user.rewardDebt */\n      0x01\n      add\n        /* \"FAANGOrchestrator.sol\":9542:9626  user.rewardDebt = user.amount... */\n      dup2\n      swap1\n      sstore\n      pop\n        /* \"FAANGOrchestrator.sol\":9663:9667  _pid */\n      dup4\n        /* \"FAANGOrchestrator.sol\":9651:9661  msg.sender */\n      caller\n        /* \"FAANGOrchestrator.sol\":9642:9677  Withdraw(msg.sender, _pid, _amount) */\n      0xffffffffffffffffffffffffffffffffffffffff\n      and\n      0xf279e6a1f5e320cca91135676d9cb6e44ca8a08c0b88342bcdb1144f6511b568\n        /* \"FAANGOrchestrator.sol\":9669:9676  _amount */\n      dup6\n        /* \"FAANGOrchestrator.sol\":9642:9677  Withdraw(msg.sender, _pid, _amount) */\n      mload(0x40)\n      dup1\n      dup3\n      dup2\n      mstore\n      0x20\n      add\n      swap2\n      pop\n      pop\n      mload(0x40)\n      dup1\n      swap2\n      sub\n      swap1\n      log3\n        /* \"ReentrancyGuard.sol\":2428:2429  _ */\n      pop\n      pop\n        /* \"ReentrancyGuard.sol\":1637:1638  1 */\n      0x01\n        /* \"ReentrancyGuard.sol\":2572:2579  _status */\n      dup1\n        /* \"ReentrancyGuard.sol\":2572:2594  _status = _NOT_ENTERED */\n      dup2\n      swap1\n      sstore\n      pop\n        /* \"FAANGOrchestrator.sol\":9064:9684  function withdraw(uint256 _pid, uint256 _amount) public nonReentrant {... */\n      pop\n      pop\n      jump\t// out\n        /* \"FAANGOrchestrator.sol\":3310:3335  uint256 public startBlock */\n    tag_66:\n      sload(0x0c)\n      dup2\n      jump\t// out\n        /* \"FAANGOrchestrator.sol\":2661:2705  mapping(address => address) public referrers */\n    tag_69:\n      mstore(0x20, 0x07)\n      dup1\n      0x00\n      mstore\n      keccak256(0x00, 0x40)\n      0x00\n      swap2\n      pop\n      sload\n      swap1\n      0x0100\n      exp\n      swap1\n      div\n      0xffffffffffffffffffffffffffffffffffffffff\n      and\n      dup2\n      jump\t// out\n        /* \"FAANGOrchestrator.sol\":6945:7746  function updatePool(uint256 _pid) public {... */\n    tag_72:\n        /* \"FAANGOrchestrator.sol\":6996:7017  PoolInfo storage pool */\n      0x00\n        /* \"FAANGOrchestrator.sol\":7020:7028  poolInfo */\n      0x09\n        /* \"FAANGOrchestrator.sol\":7029:7033  _pid */\n      dup3\n        /* \"FAANGOrchestrator.sol\":7020:7034  poolInfo[_pid] */\n      dup2\n      sload\n      dup2\n      lt\n      tag_143\n      jumpi\n      invalid\n    tag_143:\n      swap1\n      0x00\n      mstore\n      keccak256(0x00, 0x20)\n      swap1\n      0x05\n      mul\n      add\n        /* \"FAANGOrchestrator.sol\":6996:7034  PoolInfo storage pool = poolInfo[_pid] */\n      swap1\n      pop\n        /* \"FAANGOrchestrator.sol\":7064:7068  pool */\n      dup1\n        /* \"FAANGOrchestrator.sol\":7064:7084  pool.lastRewardBlock */\n      0x02\n      add\n      sload\n        /* \"FAANGOrchestrator.sol\":7048:7060  block.number */\n      number\n        /* \"FAANGOrchestrator.sol\":7048:7084  block.number <= pool.lastRewardBlock */\n      gt\n        /* \"FAANGOrchestrator.sol\":7044:7117  if (block.number <= pool.lastRewardBlock) {... */\n      tag_145\n      jumpi\n        /* \"FAANGOrchestrator.sol\":7100:7107  return; */\n      pop\n      jump(tag_142)\n        /* \"FAANGOrchestrator.sol\":7044:7117  if (block.number <= pool.lastRewardBlock) {... */\n    tag_145:\n        /* \"FAANGOrchestrator.sol\":7126:7142  uint256 lpSupply */\n      0x00\n        /* \"FAANGOrchestrator.sol\":7145:7149  pool */\n      dup2\n        /* \"FAANGOrchestrator.sol\":7145:7157  pool.lpToken */\n      0x00\n      add\n      0x00\n      swap1\n      sload\n      swap1\n      0x0100\n      exp\n      swap1\n      div\n      0xffffffffffffffffffffffffffffffffffffffff\n      and\n        /* \"FAANGOrchestrator.sol\":7145:7167  pool.lpToken.balanceOf */\n      0xffffffffffffffffffffffffffffffffffffffff\n      and\n      0x70a08231\n        /* \"FAANGOrchestrator.sol\":7176:7180  this */\n      address\n        /* \"FAANGOrchestrator.sol\":7145:7182  pool.lpToken.balanceOf(address(this)) */\n      mload(0x40)\n      dup3\n      0xffffffff\n      and\n      0xe0\n      shl\n      dup2\n      mstore\n      0x04\n      add\n      dup1\n      dup3\n      0xffffffffffffffffffffffffffffffffffffffff\n      and\n      dup2\n      mstore\n      0x20\n      add\n      swap2\n      pop\n      pop\n      0x20\n      mload(0x40)\n      dup1\n      dup4\n      sub\n      dup2\n      dup7\n      dup1\n      extcodesize\n      iszero\n      dup1\n      iszero\n      tag_146\n      jumpi\n      0x00\n      dup1\n      revert\n    tag_146:\n      pop\n      gas\n      staticcall\n      iszero\n      dup1\n      iszero\n      tag_148\n      jumpi\n      returndatasize\n      0x00\n      dup1\n      returndatacopy\n      revert(0x00, returndatasize)\n    tag_148:\n      pop\n      pop\n      pop\n      pop\n      mload(0x40)\n      returndatasize\n      0x20\n      dup2\n      lt\n      iszero\n      tag_149\n      jumpi\n      0x00\n      dup1\n      revert\n    tag_149:\n      dup2\n      add\n      swap1\n      dup1\n      dup1\n      mload\n      swap1\n      0x20\n      add\n      swap1\n      swap3\n      swap2\n      swap1\n      pop\n      pop\n      pop\n        /* \"FAANGOrchestrator.sol\":7126:7182  uint256 lpSupply = pool.lpToken.balanceOf(address(this)) */\n      swap1\n      pop\n        /* \"FAANGOrchestrator.sol\":7208:7209  0 */\n      0x00\n        /* \"FAANGOrchestrator.sol\":7196:7204  lpSupply */\n      dup2\n        /* \"FAANGOrchestrator.sol\":7196:7209  lpSupply == 0 */\n      eq\n        /* \"FAANGOrchestrator.sol\":7196:7233  lpSupply == 0 || pool.allocPoint == 0 */\n      dup1\n      tag_150\n      jumpi\n      pop\n        /* \"FAANGOrchestrator.sol\":7232:7233  0 */\n      0x00\n        /* \"FAANGOrchestrator.sol\":7213:7217  pool */\n      dup3\n        /* \"FAANGOrchestrator.sol\":7213:7228  pool.allocPoint */\n      0x01\n      add\n      sload\n        /* \"FAANGOrchestrator.sol\":7213:7233  pool.allocPoint == 0 */\n      eq\n        /* \"FAANGOrchestrator.sol\":7196:7233  lpSupply == 0 || pool.allocPoint == 0 */\n    tag_150:\n        /* \"FAANGOrchestrator.sol\":7192:7315  if (lpSupply == 0 || pool.allocPoint == 0) {... */\n      iszero\n      tag_151\n      jumpi\n        /* \"FAANGOrchestrator.sol\":7272:7284  block.number */\n      number\n        /* \"FAANGOrchestrator.sol\":7249:7253  pool */\n      dup3\n        /* \"FAANGOrchestrator.sol\":7249:7269  pool.lastRewardBlock */\n      0x02\n      add\n        /* \"FAANGOrchestrator.sol\":7249:7284  pool.lastRewardBlock = block.number */\n      dup2\n      swap1\n      sstore\n      pop\n        /* \"FAANGOrchestrator.sol\":7298:7305  return; */\n      pop\n      pop\n      jump(tag_142)\n        /* \"FAANGOrchestrator.sol\":7192:7315  if (lpSupply == 0 || pool.allocPoint == 0) {... */\n    tag_151:\n        /* \"FAANGOrchestrator.sol\":7324:7342  uint256 multiplier */\n      0x00\n        /* \"FAANGOrchestrator.sol\":7345:7394  getMultiplier(pool.lastRewardBlock, block.number) */\n      tag_152\n        /* \"FAANGOrchestrator.sol\":7359:7363  pool */\n      dup4\n        /* \"FAANGOrchestrator.sol\":7359:7379  pool.lastRewardBlock */\n      0x02\n      add\n      sload\n        /* \"FAANGOrchestrator.sol\":7381:7393  block.number */\n      number\n        /* \"FAANGOrchestrator.sol\":7345:7358  getMultiplier */\n      tag_99\n        /* \"FAANGOrchestrator.sol\":7345:7394  getMultiplier(pool.lastRewardBlock, block.number) */\n      jump\t// in\n    tag_152:\n        /* \"FAANGOrchestrator.sol\":7324:7394  uint256 multiplier = getMultiplier(pool.lastRewardBlock, block.number) */\n      swap1\n      pop\n        /* \"FAANGOrchestrator.sol\":7404:7423  uint256 FAANGReward */\n      0x00\n        /* \"FAANGOrchestrator.sol\":7426:7497  multiplier.mul(FAANGPerBlock).mul(pool.allocPoint).div(totalAllocPoint) */\n      tag_153\n        /* \"FAANGOrchestrator.sol\":7481:7496  totalAllocPoint */\n      sload(0x0b)\n        /* \"FAANGOrchestrator.sol\":7426:7476  multiplier.mul(FAANGPerBlock).mul(pool.allocPoint) */\n      tag_154\n        /* \"FAANGOrchestrator.sol\":7460:7464  pool */\n      dup7\n        /* \"FAANGOrchestrator.sol\":7460:7475  pool.allocPoint */\n      0x01\n      add\n      sload\n        /* \"FAANGOrchestrator.sol\":7426:7455  multiplier.mul(FAANGPerBlock) */\n      tag_155\n        /* \"FAANGOrchestrator.sol\":7441:7454  FAANGPerBlock */\n      sload(0x05)\n        /* \"FAANGOrchestrator.sol\":7426:7436  multiplier */\n      dup8\n        /* \"FAANGOrchestrator.sol\":7426:7440  multiplier.mul */\n      tag_140\n      swap1\n        /* \"FAANGOrchestrator.sol\":7426:7455  multiplier.mul(FAANGPerBlock) */\n      swap2\n      swap1\n      0xffffffff\n      and\n      jump\t// in\n    tag_155:\n        /* \"FAANGOrchestrator.sol\":7426:7459  multiplier.mul(FAANGPerBlock).mul */\n      tag_140\n      swap1\n        /* \"FAANGOrchestrator.sol\":7426:7476  multiplier.mul(FAANGPerBlock).mul(pool.allocPoint) */\n      swap2\n      swap1\n      0xffffffff\n      and\n      jump\t// in\n    tag_154:\n        /* \"FAANGOrchestrator.sol\":7426:7480  multiplier.mul(FAANGPerBlock).mul(pool.allocPoint).div */\n      tag_141\n      swap1\n        /* \"FAANGOrchestrator.sol\":7426:7497  multiplier.mul(FAANGPerBlock).mul(pool.allocPoint).div(totalAllocPoint) */\n      swap2\n      swap1\n      0xffffffff\n      and\n      jump\t// in\n    tag_153:\n        /* \"FAANGOrchestrator.sol\":7404:7497  uint256 FAANGReward = multiplier.mul(FAANGPerBlock).mul(pool.allocPoint).div(totalAllocPoint) */\n      swap1\n      pop\n        /* \"FAANGOrchestrator.sol\":7507:7512  FAANG */\n      0x02\n      0x00\n      swap1\n      sload\n      swap1\n      0x0100\n      exp\n      swap1\n      div\n      0xffffffffffffffffffffffffffffffffffffffff\n      and\n        /* \"FAANGOrchestrator.sol\":7507:7517  FAANG.mint */\n      0xffffffffffffffffffffffffffffffffffffffff\n      and\n      0x40c10f19\n        /* \"FAANGOrchestrator.sol\":7518:7528  devAddress */\n      0x03\n      0x00\n      swap1\n      sload\n      swap1\n      0x0100\n      exp\n      swap1\n      div\n      0xffffffffffffffffffffffffffffffffffffffff\n      and\n        /* \"FAANGOrchestrator.sol\":7530:7549  FAANGReward.div(10) */\n      tag_156\n        /* \"FAANGOrchestrator.sol\":7546:7548  10 */\n      0x0a\n        /* \"FAANGOrchestrator.sol\":7530:7541  FAANGReward */\n      dup6\n        /* \"FAANGOrchestrator.sol\":7530:7545  FAANGReward.div */\n      tag_141\n      swap1\n        /* \"FAANGOrchestrator.sol\":7530:7549  FAANGReward.div(10) */\n      swap2\n      swap1\n      0xffffffff\n      and\n      jump\t// in\n    tag_156:\n        /* \"FAANGOrchestrator.sol\":7507:7550  FAANG.mint(devAddress, FAANGReward.div(10)) */\n      mload(0x40)\n      dup4\n      0xffffffff\n      and\n      0xe0\n      shl\n      dup2\n      mstore\n      0x04\n      add\n      dup1\n      dup4\n      0xffffffffffffffffffffffffffffffffffffffff\n      and\n      dup2\n      mstore\n      0x20\n      add\n      dup3\n      dup2\n      mstore\n      0x20\n      add\n      swap3\n      pop\n      pop\n      pop\n      0x00\n      mload(0x40)\n      dup1\n      dup4\n      sub\n      dup2\n      0x00\n      dup8\n      dup1\n      extcodesize\n      iszero\n      dup1\n      iszero\n      tag_157\n      jumpi\n      0x00\n      dup1\n      revert\n    tag_157:\n      pop\n      gas\n      call\n      iszero\n      dup1\n      iszero\n      tag_159\n      jumpi\n      returndatasize\n      0x00\n      dup1\n      returndatacopy\n      revert(0x00, returndatasize)\n    tag_159:\n      pop\n      pop\n      pop\n      pop\n        /* \"FAANGOrchestrator.sol\":7560:7565  FAANG */\n      0x02\n      0x00\n      swap1\n      sload\n      swap1\n      0x0100\n      exp\n      swap1\n      div\n      0xffffffffffffffffffffffffffffffffffffffff\n      and\n        /* \"FAANGOrchestrator.sol\":7560:7570  FAANG.mint */\n      0xffffffffffffffffffffffffffffffffffffffff\n      and\n      0x40c10f19\n        /* \"FAANGOrchestrator.sol\":7579:7583  this */\n      address\n        /* \"FAANGOrchestrator.sol\":7586:7597  FAANGReward */\n      dup4\n        /* \"FAANGOrchestrator.sol\":7560:7598  FAANG.mint(address(this), FAANGReward) */\n      mload(0x40)\n      dup4\n      0xffffffff\n      and\n      0xe0\n      shl\n      dup2\n      mstore\n      0x04\n      add\n      dup1\n      dup4\n      0xffffffffffffffffffffffffffffffffffffffff\n      and\n      dup2\n      mstore\n      0x20\n      add\n      dup3\n      dup2\n      mstore\n      0x20\n      add\n      swap3\n      pop\n      pop\n      pop\n      0x00\n      mload(0x40)\n      dup1\n      dup4\n      sub\n      dup2\n      0x00\n      dup8\n      dup1\n      extcodesize\n      iszero\n      dup1\n      iszero\n      tag_160\n      jumpi\n      0x00\n      dup1\n      revert\n    tag_160:\n      pop\n      gas\n      call\n      iszero\n      dup1\n      iszero\n      tag_162\n      jumpi\n      returndatasize\n      0x00\n      dup1\n      returndatacopy\n      revert(0x00, returndatasize)\n    tag_162:\n      pop\n      pop\n      pop\n      pop\n        /* \"FAANGOrchestrator.sol\":7632:7694  pool.accFAANGPerShare.add(FAANGReward.mul(1e12).div(lpSupply)) */\n      tag_163\n        /* \"FAANGOrchestrator.sol\":7658:7693  FAANGReward.mul(1e12).div(lpSupply) */\n      tag_164\n        /* \"FAANGOrchestrator.sol\":7684:7692  lpSupply */\n      dup5\n        /* \"FAANGOrchestrator.sol\":7658:7679  FAANGReward.mul(1e12) */\n      tag_165\n        /* \"FAANGOrchestrator.sol\":7674:7678  1e12 */\n      0xe8d4a51000\n        /* \"FAANGOrchestrator.sol\":7658:7669  FAANGReward */\n      dup6\n        /* \"FAANGOrchestrator.sol\":7658:7673  FAANGReward.mul */\n      tag_140\n      swap1\n        /* \"FAANGOrchestrator.sol\":7658:7679  FAANGReward.mul(1e12) */\n      swap2\n      swap1\n      0xffffffff\n      and\n      jump\t// in\n    tag_165:\n        /* \"FAANGOrchestrator.sol\":7658:7683  FAANGReward.mul(1e12).div */\n      tag_141\n      swap1\n        /* \"FAANGOrchestrator.sol\":7658:7693  FAANGReward.mul(1e12).div(lpSupply) */\n      swap2\n      swap1\n      0xffffffff\n      and\n      jump\t// in\n    tag_164:\n        /* \"FAANGOrchestrator.sol\":7632:7636  pool */\n      dup6\n        /* \"FAANGOrchestrator.sol\":7632:7653  pool.accFAANGPerShare */\n      0x03\n      add\n      sload\n        /* \"FAANGOrchestrator.sol\":7632:7657  pool.accFAANGPerShare.add */\n      tag_166\n      swap1\n        /* \"FAANGOrchestrator.sol\":7632:7694  pool.accFAANGPerShare.add(FAANGReward.mul(1e12).div(lpSupply)) */\n      swap2\n      swap1\n      0xffffffff\n      and\n      jump\t// in\n    tag_163:\n        /* \"FAANGOrchestrator.sol\":7608:7612  pool */\n      dup5\n        /* \"FAANGOrchestrator.sol\":7608:7629  pool.accFAANGPerShare */\n      0x03\n      add\n        /* \"FAANGOrchestrator.sol\":7608:7694  pool.accFAANGPerShare = pool.accFAANGPerShare.add(FAANGReward.mul(1e12).div(lpSupply)) */\n      dup2\n      swap1\n      sstore\n      pop\n        /* \"FAANGOrchestrator.sol\":7727:7739  block.number */\n      number\n        /* \"FAANGOrchestrator.sol\":7704:7708  pool */\n      dup5\n        /* \"FAANGOrchestrator.sol\":7704:7724  pool.lastRewardBlock */\n      0x02\n      add\n        /* \"FAANGOrchestrator.sol\":7704:7739  pool.lastRewardBlock = block.number */\n      dup2\n      swap1\n      sstore\n      pop\n        /* \"FAANGOrchestrator.sol\":6945:7746  function updatePool(uint256 _pid) public {... */\n      pop\n      pop\n      pop\n      pop\n    tag_142:\n      pop\n      jump\t// out\n        /* \"FAANGOrchestrator.sol\":10409:10799  function emergencyWithdraw(uint256 _pid) public nonReentrant {... */\n    tag_75:\n        /* \"ReentrancyGuard.sol\":1680:1681  2 */\n      0x02\n        /* \"ReentrancyGuard.sol\":2269:2276  _status */\n      sload(0x01)\n        /* \"ReentrancyGuard.sol\":2269:2288  _status != _ENTERED */\n      eq\n      iszero\n        /* \"ReentrancyGuard.sol\":2261:2324  require(_status != _ENTERED, \"ReentrancyGuard: reentrant call\") */\n      tag_168\n      jumpi\n      mload(0x40)\n      0x08c379a000000000000000000000000000000000000000000000000000000000\n      dup2\n      mstore\n      0x04\n      add\n      dup1\n      dup1\n      0x20\n      add\n      dup3\n      dup2\n      sub\n      dup3\n      mstore\n      0x1f\n      dup2\n      mstore\n      0x20\n      add\n      dup1\n      0x5265656e7472616e637947756172643a207265656e7472616e742063616c6c00\n      dup2\n      mstore\n      pop\n      0x20\n      add\n      swap2\n      pop\n      pop\n      mload(0x40)\n      dup1\n      swap2\n      sub\n      swap1\n      revert\n    tag_168:\n        /* \"ReentrancyGuard.sol\":1680:1681  2 */\n      0x02\n        /* \"ReentrancyGuard.sol\":2399:2406  _status */\n      0x01\n        /* \"ReentrancyGuard.sol\":2399:2417  _status = _ENTERED */\n      dup2\n      swap1\n      sstore\n      pop\n        /* \"FAANGOrchestrator.sol\":10480:10501  PoolInfo storage pool */\n      0x00\n        /* \"FAANGOrchestrator.sol\":10504:10512  poolInfo */\n      0x09\n        /* \"FAANGOrchestrator.sol\":10513:10517  _pid */\n      dup3\n        /* \"FAANGOrchestrator.sol\":10504:10518  poolInfo[_pid] */\n      dup2\n      sload\n      dup2\n      lt\n      tag_170\n      jumpi\n      invalid\n    tag_170:\n      swap1\n      0x00\n      mstore\n      keccak256(0x00, 0x20)\n      swap1\n      0x05\n      mul\n      add\n        /* \"FAANGOrchestrator.sol\":10480:10518  PoolInfo storage pool = poolInfo[_pid] */\n      swap1\n      pop\n        /* \"FAANGOrchestrator.sol\":10528:10549  UserInfo storage user */\n      0x00\n        /* \"FAANGOrchestrator.sol\":10552:10560  userInfo */\n      0x0a\n        /* \"FAANGOrchestrator.sol\":10552:10566  userInfo[_pid] */\n      0x00\n        /* \"FAANGOrchestrator.sol\":10561:10565  _pid */\n      dup5\n        /* \"FAANGOrchestrator.sol\":10552:10566  userInfo[_pid] */\n      dup2\n      mstore\n      0x20\n      add\n      swap1\n      dup2\n      mstore\n      0x20\n      add\n      0x00\n      keccak256\n        /* \"FAANGOrchestrator.sol\":10552:10578  userInfo[_pid][msg.sender] */\n      0x00\n        /* \"FAANGOrchestrator.sol\":10567:10577  msg.sender */\n      caller\n        /* \"FAANGOrchestrator.sol\":10552:10578  userInfo[_pid][msg.sender] */\n      0xffffffffffffffffffffffffffffffffffffffff\n      and\n      0xffffffffffffffffffffffffffffffffffffffff\n      and\n      dup2\n      mstore\n      0x20\n      add\n      swap1\n      dup2\n      mstore\n      0x20\n      add\n      0x00\n      keccak256\n        /* \"FAANGOrchestrator.sol\":10528:10578  UserInfo storage user = userInfo[_pid][msg.sender] */\n      swap1\n      pop\n        /* \"FAANGOrchestrator.sol\":10588:10602  uint256 amount */\n      0x00\n        /* \"FAANGOrchestrator.sol\":10605:10609  user */\n      dup2\n        /* \"FAANGOrchestrator.sol\":10605:10616  user.amount */\n      0x00\n      add\n      sload\n        /* \"FAANGOrchestrator.sol\":10588:10616  uint256 amount = user.amount */\n      swap1\n      pop\n        /* \"FAANGOrchestrator.sol\":10640:10641  0 */\n      0x00\n        /* \"FAANGOrchestrator.sol\":10626:10630  user */\n      dup3\n        /* \"FAANGOrchestrator.sol\":10626:10637  user.amount */\n      0x00\n      add\n        /* \"FAANGOrchestrator.sol\":10626:10641  user.amount = 0 */\n      dup2\n      swap1\n      sstore\n      pop\n        /* \"FAANGOrchestrator.sol\":10669:10670  0 */\n      0x00\n        /* \"FAANGOrchestrator.sol\":10651:10655  user */\n      dup3\n        /* \"FAANGOrchestrator.sol\":10651:10666  user.rewardDebt */\n      0x01\n      add\n        /* \"FAANGOrchestrator.sol\":10651:10670  user.rewardDebt = 0 */\n      dup2\n      swap1\n      sstore\n      pop\n        /* \"FAANGOrchestrator.sol\":10680:10734  pool.lpToken.safeTransfer(address(msg.sender), amount) */\n      tag_172\n        /* \"FAANGOrchestrator.sol\":10714:10724  msg.sender */\n      caller\n        /* \"FAANGOrchestrator.sol\":10727:10733  amount */\n      dup3\n        /* \"FAANGOrchestrator.sol\":10680:10684  pool */\n      dup6\n        /* \"FAANGOrchestrator.sol\":10680:10692  pool.lpToken */\n      0x00\n      add\n      0x00\n      swap1\n      sload\n      swap1\n      0x0100\n      exp\n      swap1\n      div\n      0xffffffffffffffffffffffffffffffffffffffff\n      and\n        /* \"FAANGOrchestrator.sol\":10680:10705  pool.lpToken.safeTransfer */\n      0xffffffffffffffffffffffffffffffffffffffff\n      and\n      tag_137\n      swap1\n        /* \"FAANGOrchestrator.sol\":10680:10734  pool.lpToken.safeTransfer(address(msg.sender), amount) */\n      swap3\n      swap2\n      swap1\n      0xffffffff\n      and\n      jump\t// in\n    tag_172:\n        /* \"FAANGOrchestrator.sol\":10779:10783  _pid */\n      dup4\n        /* \"FAANGOrchestrator.sol\":10767:10777  msg.sender */\n      caller\n        /* \"FAANGOrchestrator.sol\":10749:10792  EmergencyWithdraw(msg.sender, _pid, amount) */\n      0xffffffffffffffffffffffffffffffffffffffff\n      and\n      0xbb757047c2b5f3974fe26b7c10f732e7bce710b0952a71082702781e62ae0595\n        /* \"FAANGOrchestrator.sol\":10785:10791  amount */\n      dup4\n        /* \"FAANGOrchestrator.sol\":10749:10792  EmergencyWithdraw(msg.sender, _pid, amount) */\n      mload(0x40)\n      dup1\n      dup3\n      dup2\n      mstore\n      0x20\n      add\n      swap2\n      pop\n      pop\n      mload(0x40)\n      dup1\n      swap2\n      sub\n      swap1\n      log3\n        /* \"ReentrancyGuard.sol\":2428:2429  _ */\n      pop\n      pop\n      pop\n        /* \"ReentrancyGuard.sol\":1637:1638  1 */\n      0x01\n        /* \"ReentrancyGuard.sol\":2572:2579  _status */\n      dup1\n        /* \"ReentrancyGuard.sol\":2572:2594  _status = _NOT_ENTERED */\n      dup2\n      swap1\n      sstore\n      pop\n        /* \"FAANGOrchestrator.sol\":10409:10799  function emergencyWithdraw(uint256 _pid) public nonReentrant {... */\n      pop\n      jump\t// out\n        /* \"FAANGOrchestrator.sol\":6697:6872  function massUpdatePools() public {... */\n    tag_77:\n        /* \"FAANGOrchestrator.sol\":6741:6755  uint256 length */\n      0x00\n        /* \"FAANGOrchestrator.sol\":6758:6766  poolInfo */\n      0x09\n        /* \"FAANGOrchestrator.sol\":6758:6773  poolInfo.length */\n      dup1\n      sload\n      swap1\n      pop\n        /* \"FAANGOrchestrator.sol\":6741:6773  uint256 length = poolInfo.length */\n      swap1\n      pop\n        /* \"FAANGOrchestrator.sol\":6788:6799  uint256 pid */\n      0x00\n        /* \"FAANGOrchestrator.sol\":6783:6866  for (uint256 pid = 0; pid < length; ++pid) {... */\n    tag_174:\n        /* \"FAANGOrchestrator.sol\":6811:6817  length */\n      dup2\n        /* \"FAANGOrchestrator.sol\":6805:6808  pid */\n      dup2\n        /* \"FAANGOrchestrator.sol\":6805:6817  pid < length */\n      lt\n        /* \"FAANGOrchestrator.sol\":6783:6866  for (uint256 pid = 0; pid < length; ++pid) {... */\n      iszero\n      tag_175\n      jumpi\n        /* \"FAANGOrchestrator.sol\":6840:6855  updatePool(pid) */\n      tag_177\n        /* \"FAANGOrchestrator.sol\":6851:6854  pid */\n      dup2\n        /* \"FAANGOrchestrator.sol\":6840:6850  updatePool */\n      tag_72\n        /* \"FAANGOrchestrator.sol\":6840:6855  updatePool(pid) */\n      jump\t// in\n    tag_177:\n        /* \"FAANGOrchestrator.sol\":6819:6824  ++pid */\n      dup1\n      0x01\n      add\n      swap1\n      pop\n        /* \"FAANGOrchestrator.sol\":6783:6866  for (uint256 pid = 0; pid < length; ++pid) {... */\n      jump(tag_174)\n    tag_175:\n      pop\n        /* \"FAANGOrchestrator.sol\":6697:6872  function massUpdatePools() public {... */\n      pop\n      jump\t// out\n        /* \"FAANGOrchestrator.sol\":12929:13376  function updateReferralBonusBp(uint256 _newRefBonusBp) public onlyOwner {... */\n    tag_80:\n        /* \"Ownable.sol\":1289:1301  _msgSender() */\n      tag_179\n        /* \"Ownable.sol\":1289:1299  _msgSender */\n      tag_180\n        /* \"Ownable.sol\":1289:1301  _msgSender() */\n      jump\t// in\n    tag_179:\n        /* \"Ownable.sol\":1279:1301  _owner == _msgSender() */\n      0xffffffffffffffffffffffffffffffffffffffff\n      and\n        /* \"Ownable.sol\":1279:1285  _owner */\n      0x00\n      dup1\n      sload\n      swap1\n      0x0100\n      exp\n      swap1\n      div\n      0xffffffffffffffffffffffffffffffffffffffff\n      and\n        /* \"Ownable.sol\":1279:1301  _owner == _msgSender() */\n      0xffffffffffffffffffffffffffffffffffffffff\n      and\n      eq\n        /* \"Ownable.sol\":1271:1338  require(_owner == _msgSender(), 'Ownable: caller is not the owner') */\n      tag_181\n      jumpi\n      mload(0x40)\n      0x08c379a000000000000000000000000000000000000000000000000000000000\n      dup2\n      mstore\n      0x04\n      add\n      dup1\n      dup1\n      0x20\n      add\n      dup3\n      dup2\n      sub\n      dup3\n      mstore\n      0x20\n      dup2\n      mstore\n      0x20\n      add\n      dup1\n      0x4f776e61626c653a2063616c6c6572206973206e6f7420746865206f776e6572\n      dup2\n      mstore\n      pop\n      0x20\n      add\n      swap2\n      pop\n      pop\n      mload(0x40)\n      dup1\n      swap2\n      sub\n      swap1\n      revert\n    tag_181:\n        /* \"FAANGOrchestrator.sol\":2627:2631  2000 */\n      0x07d0\n        /* \"FAANGOrchestrator.sol\":13019:13056  _newRefBonusBp <= MAXIMUM_REFERRAL_BP */\n      0xffff\n      and\n        /* \"FAANGOrchestrator.sol\":13019:13033  _newRefBonusBp */\n      dup2\n        /* \"FAANGOrchestrator.sol\":13019:13056  _newRefBonusBp <= MAXIMUM_REFERRAL_BP */\n      gt\n      iszero\n        /* \"FAANGOrchestrator.sol\":13011:13119  require(_newRefBonusBp <= MAXIMUM_REFERRAL_BP, \"updateRefBonusPercent: invalid referral bonus basis points\") */\n      tag_183\n      jumpi\n      mload(0x40)\n      0x08c379a000000000000000000000000000000000000000000000000000000000\n      dup2\n      mstore\n      0x04\n      add\n      dup1\n      dup1\n      0x20\n      add\n      dup3\n      dup2\n      sub\n      dup3\n      mstore\n      0x3a\n      dup2\n      mstore\n      0x20\n      add\n      dup1\n      data_20a6bce988e8b6ff5852ac398e27735d1d8155a9d79e532ec3c3da13f504a6a4\n      0x3a\n      swap2\n      codecopy\n      0x40\n      add\n      swap2\n      pop\n      pop\n      mload(0x40)\n      dup1\n      swap2\n      sub\n      swap1\n      revert\n    tag_183:\n        /* \"FAANGOrchestrator.sol\":13155:13165  refBonusBP */\n      sload(0x06)\n        /* \"FAANGOrchestrator.sol\":13137:13151  _newRefBonusBp */\n      dup2\n        /* \"FAANGOrchestrator.sol\":13137:13165  _newRefBonusBp != refBonusBP */\n      eq\n      iszero\n        /* \"FAANGOrchestrator.sol\":13129:13210  require(_newRefBonusBp != refBonusBP, \"updateRefBonusPercent: same bonus bp set\") */\n      tag_184\n      jumpi\n      mload(0x40)\n      0x08c379a000000000000000000000000000000000000000000000000000000000\n      dup2\n      mstore\n      0x04\n      add\n      dup1\n      dup1\n      0x20\n      add\n      dup3\n      dup2\n      sub\n      dup3\n      mstore\n      0x28\n      dup2\n      mstore\n      0x20\n      add\n      dup1\n      data_9d1a761c817eae8410d2081a433553cad78dcf01ebb754f58addc464260ba484\n      0x28\n      swap2\n      codecopy\n      0x40\n      add\n      swap2\n      pop\n      pop\n      mload(0x40)\n      dup1\n      swap2\n      sub\n      swap1\n      revert\n    tag_184:\n        /* \"FAANGOrchestrator.sol\":13220:13246  uint256 previousRefBonusBP */\n      0x00\n        /* \"FAANGOrchestrator.sol\":13249:13259  refBonusBP */\n      sload(0x06)\n        /* \"FAANGOrchestrator.sol\":13220:13259  uint256 previousRefBonusBP = refBonusBP */\n      swap1\n      pop\n        /* \"FAANGOrchestrator.sol\":13282:13296  _newRefBonusBp */\n      dup2\n        /* \"FAANGOrchestrator.sol\":13269:13279  refBonusBP */\n      0x06\n        /* \"FAANGOrchestrator.sol\":13269:13296  refBonusBP = _newRefBonusBp */\n      dup2\n      swap1\n      sstore\n      pop\n        /* \"FAANGOrchestrator.sol\":13311:13369  ReferralBonusBpChanged(previousRefBonusBP, _newRefBonusBp) */\n      0x3282b692bfebf5f35b198a229212cf532c72099026ab54c4b8665382d1086b3f\n        /* \"FAANGOrchestrator.sol\":13334:13352  previousRefBonusBP */\n      dup2\n        /* \"FAANGOrchestrator.sol\":13354:13368  _newRefBonusBp */\n      dup4\n        /* \"FAANGOrchestrator.sol\":13311:13369  ReferralBonusBpChanged(previousRefBonusBP, _newRefBonusBp) */\n      mload(0x40)\n      dup1\n      dup4\n      dup2\n      mstore\n      0x20\n      add\n      dup3\n      dup2\n      mstore\n      0x20\n      add\n      swap3\n      pop\n      pop\n      pop\n      mload(0x40)\n      dup1\n      swap2\n      sub\n      swap1\n      log1\n        /* \"Ownable.sol\":1348:1349  _ */\n      pop\n        /* \"FAANGOrchestrator.sol\":12929:13376  function updateReferralBonusBp(uint256 _newRefBonusBp) public onlyOwner {... */\n      pop\n      jump\t// out\n        /* \"FAANGOrchestrator.sol\":2134:2157  FAANGToken public FAANG */\n    tag_82:\n      0x02\n      0x00\n      swap1\n      sload\n      swap1\n      0x0100\n      exp\n      swap1\n      div\n      0xffffffffffffffffffffffffffffffffffffffff\n      and\n      dup2\n      jump\t// out\n        /* \"FAANGOrchestrator.sol\":2503:2534  uint256 public refBonusBP = 200 */\n    tag_84:\n      sload(0x06)\n      dup2\n      jump\t// out\n        /* \"Ownable.sol\":1698:1835  function renounceOwnership() public onlyOwner {... */\n    tag_86:\n        /* \"Ownable.sol\":1289:1301  _msgSender() */\n      tag_186\n        /* \"Ownable.sol\":1289:1299  _msgSender */\n      tag_180\n        /* \"Ownable.sol\":1289:1301  _msgSender() */\n      jump\t// in\n    tag_186:\n        /* \"Ownable.sol\":1279:1301  _owner == _msgSender() */\n      0xffffffffffffffffffffffffffffffffffffffff\n      and\n        /* \"Ownable.sol\":1279:1285  _owner */\n      0x00\n      dup1\n      sload\n      swap1\n      0x0100\n      exp\n      swap1\n      div\n      0xffffffffffffffffffffffffffffffffffffffff\n      and\n        /* \"Ownable.sol\":1279:1301  _owner == _msgSender() */\n      0xffffffffffffffffffffffffffffffffffffffff\n      and\n      eq\n        /* \"Ownable.sol\":1271:1338  require(_owner == _msgSender(), 'Ownable: caller is not the owner') */\n      tag_187\n      jumpi\n      mload(0x40)\n      0x08c379a000000000000000000000000000000000000000000000000000000000\n      dup2\n      mstore\n      0x04\n      add\n      dup1\n      dup1\n      0x20\n      add\n      dup3\n      dup2\n      sub\n      dup3\n      mstore\n      0x20\n      dup2\n      mstore\n      0x20\n      add\n      dup1\n      0x4f776e61626c653a2063616c6c6572206973206e6f7420746865206f776e6572\n      dup2\n      mstore\n      pop\n      0x20\n      add\n      swap2\n      pop\n      pop\n      mload(0x40)\n      dup1\n      swap2\n      sub\n      swap1\n      revert\n    tag_187:\n        /* \"Ownable.sol\":1796:1797  0 */\n      0x00\n        /* \"Ownable.sol\":1759:1799  OwnershipTransferred(_owner, address(0)) */\n      0xffffffffffffffffffffffffffffffffffffffff\n      and\n        /* \"Ownable.sol\":1780:1786  _owner */\n      0x00\n      dup1\n      sload\n      swap1\n      0x0100\n      exp\n      swap1\n      div\n      0xffffffffffffffffffffffffffffffffffffffff\n      and\n        /* \"Ownable.sol\":1759:1799  OwnershipTransferred(_owner, address(0)) */\n      0xffffffffffffffffffffffffffffffffffffffff\n      and\n      0x8be0079c531659141344cd1fd0a4f28419497f9722a3daafe3b4186f6b6457e0\n      mload(0x40)\n      mload(0x40)\n      dup1\n      swap2\n      sub\n      swap1\n      log3\n        /* \"Ownable.sol\":1826:1827  0 */\n      0x00\n        /* \"Ownable.sol\":1809:1815  _owner */\n      dup1\n      0x00\n        /* \"Ownable.sol\":1809:1828  _owner = address(0) */\n      0x0100\n      exp\n      dup2\n      sload\n      dup2\n      0xffffffffffffffffffffffffffffffffffffffff\n      mul\n      not\n      and\n      swap1\n      dup4\n      0xffffffffffffffffffffffffffffffffffffffff\n      and\n      mul\n      or\n      swap1\n      sstore\n      pop\n        /* \"Ownable.sol\":1698:1835  function renounceOwnership() public onlyOwner {... */\n      jump\t// out\n        /* \"FAANGOrchestrator.sol\":4390:5017  function add(uint256 _allocPoint, IBEP20 _lpToken, uint16 _depositFeeBP, bool _withUpdate) public onlyOwner {... */\n    tag_89:\n        /* \"Ownable.sol\":1289:1301  _msgSender() */\n      tag_190\n        /* \"Ownable.sol\":1289:1299  _msgSender */\n      tag_180\n        /* \"Ownable.sol\":1289:1301  _msgSender() */\n      jump\t// in\n    tag_190:\n        /* \"Ownable.sol\":1279:1301  _owner == _msgSender() */\n      0xffffffffffffffffffffffffffffffffffffffff\n      and\n        /* \"Ownable.sol\":1279:1285  _owner */\n      0x00\n      dup1\n      sload\n      swap1\n      0x0100\n      exp\n      swap1\n      div\n      0xffffffffffffffffffffffffffffffffffffffff\n      and\n        /* \"Ownable.sol\":1279:1301  _owner == _msgSender() */\n      0xffffffffffffffffffffffffffffffffffffffff\n      and\n      eq\n        /* \"Ownable.sol\":1271:1338  require(_owner == _msgSender(), 'Ownable: caller is not the owner') */\n      tag_191\n      jumpi\n      mload(0x40)\n      0x08c379a000000000000000000000000000000000000000000000000000000000\n      dup2\n      mstore\n      0x04\n      add\n      dup1\n      dup1\n      0x20\n      add\n      dup3\n      dup2\n      sub\n      dup3\n      mstore\n      0x20\n      dup2\n      mstore\n      0x20\n      add\n      dup1\n      0x4f776e61626c653a2063616c6c6572206973206e6f7420746865206f776e6572\n      dup2\n      mstore\n      pop\n      0x20\n      add\n      swap2\n      pop\n      pop\n      mload(0x40)\n      dup1\n      swap2\n      sub\n      swap1\n      revert\n    tag_191:\n        /* \"FAANGOrchestrator.sol\":4533:4538  10000 */\n      0x2710\n        /* \"FAANGOrchestrator.sol\":4516:4529  _depositFeeBP */\n      dup3\n        /* \"FAANGOrchestrator.sol\":4516:4538  _depositFeeBP <= 10000 */\n      0xffff\n      and\n      gt\n      iszero\n        /* \"FAANGOrchestrator.sol\":4508:4580  require(_depositFeeBP <= 10000, \"add: invalid deposit fee basis points\") */\n      tag_193\n      jumpi\n      mload(0x40)\n      0x08c379a000000000000000000000000000000000000000000000000000000000\n      dup2\n      mstore\n      0x04\n      add\n      dup1\n      dup1\n      0x20\n      add\n      dup3\n      dup2\n      sub\n      dup3\n      mstore\n      0x25\n      dup2\n      mstore\n      0x20\n      add\n      dup1\n      data_0ecf01aeb804f0ae223eada9d16893a9009cdcbe208d348705dc613f9a9f5331\n      0x25\n      swap2\n      codecopy\n      0x40\n      add\n      swap2\n      pop\n      pop\n      mload(0x40)\n      dup1\n      swap2\n      sub\n      swap1\n      revert\n    tag_193:\n        /* \"FAANGOrchestrator.sol\":4594:4605  _withUpdate */\n      dup1\n        /* \"FAANGOrchestrator.sol\":4590:4649  if (_withUpdate) {... */\n      iszero\n      tag_194\n      jumpi\n        /* \"FAANGOrchestrator.sol\":4621:4638  massUpdatePools() */\n      tag_195\n        /* \"FAANGOrchestrator.sol\":4621:4636  massUpdatePools */\n      tag_77\n        /* \"FAANGOrchestrator.sol\":4621:4638  massUpdatePools() */\n      jump\t// in\n    tag_195:\n        /* \"FAANGOrchestrator.sol\":4590:4649  if (_withUpdate) {... */\n    tag_194:\n        /* \"FAANGOrchestrator.sol\":4658:4681  uint256 lastRewardBlock */\n      0x00\n        /* \"FAANGOrchestrator.sol\":4699:4709  startBlock */\n      sload(0x0c)\n        /* \"FAANGOrchestrator.sol\":4684:4696  block.number */\n      number\n        /* \"FAANGOrchestrator.sol\":4684:4709  block.number > startBlock */\n      gt\n        /* \"FAANGOrchestrator.sol\":4684:4737  block.number > startBlock ? block.number : startBlock */\n      tag_196\n      jumpi\n        /* \"FAANGOrchestrator.sol\":4727:4737  startBlock */\n      sload(0x0c)\n        /* \"FAANGOrchestrator.sol\":4684:4737  block.number > startBlock ? block.number : startBlock */\n      jump(tag_197)\n    tag_196:\n        /* \"FAANGOrchestrator.sol\":4712:4724  block.number */\n      number\n        /* \"FAANGOrchestrator.sol\":4684:4737  block.number > startBlock ? block.number : startBlock */\n    tag_197:\n        /* \"FAANGOrchestrator.sol\":4658:4737  uint256 lastRewardBlock = block.number > startBlock ? block.number : startBlock */\n      swap1\n      pop\n        /* \"FAANGOrchestrator.sol\":4765:4797  totalAllocPoint.add(_allocPoint) */\n      tag_198\n        /* \"FAANGOrchestrator.sol\":4785:4796  _allocPoint */\n      dup6\n        /* \"FAANGOrchestrator.sol\":4765:4780  totalAllocPoint */\n      sload(0x0b)\n        /* \"FAANGOrchestrator.sol\":4765:4784  totalAllocPoint.add */\n      tag_166\n      swap1\n        /* \"FAANGOrchestrator.sol\":4765:4797  totalAllocPoint.add(_allocPoint) */\n      swap2\n      swap1\n      0xffffffff\n      and\n      jump\t// in\n    tag_198:\n        /* \"FAANGOrchestrator.sol\":4747:4762  totalAllocPoint */\n      0x0b\n        /* \"FAANGOrchestrator.sol\":4747:4797  totalAllocPoint = totalAllocPoint.add(_allocPoint) */\n      dup2\n      swap1\n      sstore\n      pop\n        /* \"FAANGOrchestrator.sol\":4807:4815  poolInfo */\n      0x09\n        /* \"FAANGOrchestrator.sol\":4821:5009  PoolInfo({... */\n      mload(0x40)\n      dup1\n      0xa0\n      add\n      0x40\n      mstore\n      dup1\n        /* \"FAANGOrchestrator.sol\":4849:4857  _lpToken */\n      dup7\n        /* \"FAANGOrchestrator.sol\":4821:5009  PoolInfo({... */\n      0xffffffffffffffffffffffffffffffffffffffff\n      and\n      dup2\n      mstore\n      0x20\n      add\n        /* \"FAANGOrchestrator.sol\":4879:4890  _allocPoint */\n      dup8\n        /* \"FAANGOrchestrator.sol\":4821:5009  PoolInfo({... */\n      dup2\n      mstore\n      0x20\n      add\n        /* \"FAANGOrchestrator.sol\":4917:4932  lastRewardBlock */\n      dup4\n        /* \"FAANGOrchestrator.sol\":4821:5009  PoolInfo({... */\n      dup2\n      mstore\n      0x20\n      add\n        /* \"FAANGOrchestrator.sol\":4960:4961  0 */\n      0x00\n        /* \"FAANGOrchestrator.sol\":4821:5009  PoolInfo({... */\n      dup2\n      mstore\n      0x20\n      add\n        /* \"FAANGOrchestrator.sol\":4985:4998  _depositFeeBP */\n      dup6\n        /* \"FAANGOrchestrator.sol\":4821:5009  PoolInfo({... */\n      0xffff\n      and\n      dup2\n      mstore\n      pop\n        /* \"FAANGOrchestrator.sol\":4807:5010  poolInfo.push(PoolInfo({... */\n      swap1\n      dup1\n      0x01\n      dup2\n      sload\n      add\n      dup1\n      dup3\n      sstore\n      dup1\n      swap2\n      pop\n      pop\n      0x01\n      swap1\n      sub\n      swap1\n      0x00\n      mstore\n      keccak256(0x00, 0x20)\n      swap1\n      0x05\n      mul\n      add\n      0x00\n      swap1\n      swap2\n      swap1\n      swap2\n      swap1\n      swap2\n      pop\n      0x00\n      dup3\n      add\n      mload\n      dup2\n      0x00\n      add\n      exp(0x0100, 0x00)\n      dup2\n      sload\n      dup2\n      0xffffffffffffffffffffffffffffffffffffffff\n      mul\n      not\n      and\n      swap1\n      dup4\n      0xffffffffffffffffffffffffffffffffffffffff\n      and\n      mul\n      or\n      swap1\n      sstore\n      pop\n      0x20\n      dup3\n      add\n      mload\n      dup2\n      0x01\n      add\n      sstore\n      0x40\n      dup3\n      add\n      mload\n      dup2\n      0x02\n      add\n      sstore\n      0x60\n      dup3\n      add\n      mload\n      dup2\n      0x03\n      add\n      sstore\n      0x80\n      dup3\n      add\n      mload\n      dup2\n      0x04\n      add\n      exp(0x0100, 0x00)\n      dup2\n      sload\n      dup2\n      0xffff\n      mul\n      not\n      and\n      swap1\n      dup4\n      0xffff\n      and\n      mul\n      or\n      swap1\n      sstore\n      pop\n      pop\n      pop\n        /* \"Ownable.sol\":1348:1349  _ */\n      pop\n        /* \"FAANGOrchestrator.sol\":4390:5017  function add(uint256 _allocPoint, IBEP20 _lpToken, uint16 _depositFeeBP, bool _withUpdate) public onlyOwner {... */\n      pop\n      pop\n      pop\n      pop\n      jump\t// out\n        /* \"FAANGOrchestrator.sol\":11559:11722  function setFeeAddress(address _feeAddress) public {... */\n    tag_92:\n        /* \"FAANGOrchestrator.sol\":11642:11652  feeAddress */\n      0x04\n      0x00\n      swap1\n      sload\n      swap1\n      0x0100\n      exp\n      swap1\n      div\n      0xffffffffffffffffffffffffffffffffffffffff\n      and\n        /* \"FAANGOrchestrator.sol\":11628:11652  msg.sender == feeAddress */\n      0xffffffffffffffffffffffffffffffffffffffff\n      and\n        /* \"FAANGOrchestrator.sol\":11628:11638  msg.sender */\n      caller\n        /* \"FAANGOrchestrator.sol\":11628:11652  msg.sender == feeAddress */\n      0xffffffffffffffffffffffffffffffffffffffff\n      and\n      eq\n        /* \"FAANGOrchestrator.sol\":11620:11681  require(msg.sender == feeAddress, \"setFeeAddress: FORBIDDEN\") */\n      tag_201\n      jumpi\n      mload(0x40)\n      0x08c379a000000000000000000000000000000000000000000000000000000000\n      dup2\n      mstore\n      0x04\n      add\n      dup1\n      dup1\n      0x20\n      add\n      dup3\n      dup2\n      sub\n      dup3\n      mstore\n      0x18\n      dup2\n      mstore\n      0x20\n      add\n      dup1\n      0x736574466565416464726573733a20464f5242494444454e0000000000000000\n      dup2\n      mstore\n      pop\n      0x20\n      add\n      swap2\n      pop\n      pop\n      mload(0x40)\n      dup1\n      swap2\n      sub\n      swap1\n      revert\n    tag_201:\n        /* \"FAANGOrchestrator.sol\":11704:11715  _feeAddress */\n      dup1\n        /* \"FAANGOrchestrator.sol\":11691:11701  feeAddress */\n      0x04\n      0x00\n        /* \"FAANGOrchestrator.sol\":11691:11715  feeAddress = _feeAddress */\n      0x0100\n      exp\n      dup2\n      sload\n      dup2\n      0xffffffffffffffffffffffffffffffffffffffff\n      mul\n      not\n      and\n      swap1\n      dup4\n      0xffffffffffffffffffffffffffffffffffffffff\n      and\n      mul\n      or\n      swap1\n      sstore\n      pop\n        /* \"FAANGOrchestrator.sol\":11559:11722  function setFeeAddress(address _feeAddress) public {... */\n      pop\n      jump\t// out\n        /* \"FAANGOrchestrator.sol\":2393:2437  uint256 public constant BONUS_MULTIPLIER = 1 */\n    tag_94:\n        /* \"FAANGOrchestrator.sol\":2436:2437  1 */\n      0x01\n        /* \"FAANGOrchestrator.sol\":2393:2437  uint256 public constant BONUS_MULTIPLIER = 1 */\n      dup2\n      jump\t// out\n        /* \"Ownable.sol\":1075:1152  function owner() public view returns (address) {... */\n    tag_96:\n        /* \"Ownable.sol\":1113:1120  address */\n      0x00\n        /* \"Ownable.sol\":1139:1145  _owner */\n      dup1\n      0x00\n      swap1\n      sload\n      swap1\n      0x0100\n      exp\n      swap1\n      div\n      0xffffffffffffffffffffffffffffffffffffffff\n      and\n        /* \"Ownable.sol\":1132:1145  return _owner */\n      swap1\n      pop\n        /* \"Ownable.sol\":1075:1152  function owner() public view returns (address) {... */\n      swap1\n      jump\t// out\n        /* \"FAANGOrchestrator.sol\":5656:5797  function getMultiplier(uint256 _from, uint256 _to) public pure returns (uint256) {... */\n    tag_99:\n        /* \"FAANGOrchestrator.sol\":5728:5735  uint256 */\n      0x00\n        /* \"FAANGOrchestrator.sol\":5754:5790  _to.sub(_from).mul(BONUS_MULTIPLIER) */\n      tag_204\n        /* \"FAANGOrchestrator.sol\":2436:2437  1 */\n      0x01\n        /* \"FAANGOrchestrator.sol\":5754:5768  _to.sub(_from) */\n      tag_205\n        /* \"FAANGOrchestrator.sol\":5762:5767  _from */\n      dup6\n        /* \"FAANGOrchestrator.sol\":5754:5757  _to */\n      dup6\n        /* \"FAANGOrchestrator.sol\":5754:5761  _to.sub */\n      tag_135\n      swap1\n        /* \"FAANGOrchestrator.sol\":5754:5768  _to.sub(_from) */\n      swap2\n      swap1\n      0xffffffff\n      and\n      jump\t// in\n    tag_205:\n        /* \"FAANGOrchestrator.sol\":5754:5772  _to.sub(_from).mul */\n      tag_140\n      swap1\n        /* \"FAANGOrchestrator.sol\":5754:5790  _to.sub(_from).mul(BONUS_MULTIPLIER) */\n      swap2\n      swap1\n      0xffffffff\n      and\n      jump\t// in\n    tag_204:\n        /* \"FAANGOrchestrator.sol\":5747:5790  return _to.sub(_from).mul(BONUS_MULTIPLIER) */\n      swap1\n      pop\n        /* \"FAANGOrchestrator.sol\":5656:5797  function getMultiplier(uint256 _from, uint256 _to) public pure returns (uint256) {... */\n      swap3\n      swap2\n      pop\n      pop\n      jump\t// out\n        /* \"FAANGOrchestrator.sol\":7826:9015  function deposit(uint256 _pid, uint256 _amount, address _referrer) public nonReentrant {... */\n    tag_102:\n        /* \"ReentrancyGuard.sol\":1680:1681  2 */\n      0x02\n        /* \"ReentrancyGuard.sol\":2269:2276  _status */\n      sload(0x01)\n        /* \"ReentrancyGuard.sol\":2269:2288  _status != _ENTERED */\n      eq\n      iszero\n        /* \"ReentrancyGuard.sol\":2261:2324  require(_status != _ENTERED, \"ReentrancyGuard: reentrant call\") */\n      tag_207\n      jumpi\n      mload(0x40)\n      0x08c379a000000000000000000000000000000000000000000000000000000000\n      dup2\n      mstore\n      0x04\n      add\n      dup1\n      dup1\n      0x20\n      add\n      dup3\n      dup2\n      sub\n      dup3\n      mstore\n      0x1f\n      dup2\n      mstore\n      0x20\n      add\n      dup1\n      0x5265656e7472616e637947756172643a207265656e7472616e742063616c6c00\n      dup2\n      mstore\n      pop\n      0x20\n      add\n      swap2\n      pop\n      pop\n      mload(0x40)\n      dup1\n      swap2\n      sub\n      swap1\n      revert\n    tag_207:\n        /* \"ReentrancyGuard.sol\":1680:1681  2 */\n      0x02\n        /* \"ReentrancyGuard.sol\":2399:2406  _status */\n      0x01\n        /* \"ReentrancyGuard.sol\":2399:2417  _status = _ENTERED */\n      dup2\n      swap1\n      sstore\n      pop\n        /* \"FAANGOrchestrator.sol\":7952:7961  _referrer */\n      dup1\n        /* \"FAANGOrchestrator.sol\":7931:7962  _referrer == address(_referrer) */\n      0xffffffffffffffffffffffffffffffffffffffff\n      and\n        /* \"FAANGOrchestrator.sol\":7931:7940  _referrer */\n      dup2\n        /* \"FAANGOrchestrator.sol\":7931:7962  _referrer == address(_referrer) */\n      0xffffffffffffffffffffffffffffffffffffffff\n      and\n      eq\n        /* \"FAANGOrchestrator.sol\":7923:7999  require(_referrer == address(_referrer),\"deposit: Invalid referrer address\") */\n      tag_209\n      jumpi\n      mload(0x40)\n      0x08c379a000000000000000000000000000000000000000000000000000000000\n      dup2\n      mstore\n      0x04\n      add\n      dup1\n      dup1\n      0x20\n      add\n      dup3\n      dup2\n      sub\n      dup3\n      mstore\n      0x21\n      dup2\n      mstore\n      0x20\n      add\n      dup1\n      data_542d191555ea619dedb1489efd71948659c57b11c6c1a84d1c1ce6e7c8074aad\n      0x21\n      swap2\n      codecopy\n      0x40\n      add\n      swap2\n      pop\n      pop\n      mload(0x40)\n      dup1\n      swap2\n      sub\n      swap1\n      revert\n    tag_209:\n        /* \"FAANGOrchestrator.sol\":8010:8031  PoolInfo storage pool */\n      0x00\n        /* \"FAANGOrchestrator.sol\":8034:8042  poolInfo */\n      0x09\n        /* \"FAANGOrchestrator.sol\":8043:8047  _pid */\n      dup5\n        /* \"FAANGOrchestrator.sol\":8034:8048  poolInfo[_pid] */\n      dup2\n      sload\n      dup2\n      lt\n      tag_210\n      jumpi\n      invalid\n    tag_210:\n      swap1\n      0x00\n      mstore\n      keccak256(0x00, 0x20)\n      swap1\n      0x05\n      mul\n      add\n        /* \"FAANGOrchestrator.sol\":8010:8048  PoolInfo storage pool = poolInfo[_pid] */\n      swap1\n      pop\n        /* \"FAANGOrchestrator.sol\":8058:8079  UserInfo storage user */\n      0x00\n        /* \"FAANGOrchestrator.sol\":8082:8090  userInfo */\n      0x0a\n        /* \"FAANGOrchestrator.sol\":8082:8096  userInfo[_pid] */\n      0x00\n        /* \"FAANGOrchestrator.sol\":8091:8095  _pid */\n      dup7\n        /* \"FAANGOrchestrator.sol\":8082:8096  userInfo[_pid] */\n      dup2\n      mstore\n      0x20\n      add\n      swap1\n      dup2\n      mstore\n      0x20\n      add\n      0x00\n      keccak256\n        /* \"FAANGOrchestrator.sol\":8082:8108  userInfo[_pid][msg.sender] */\n      0x00\n        /* \"FAANGOrchestrator.sol\":8097:8107  msg.sender */\n      caller\n        /* \"FAANGOrchestrator.sol\":8082:8108  userInfo[_pid][msg.sender] */\n      0xffffffffffffffffffffffffffffffffffffffff\n      and\n      0xffffffffffffffffffffffffffffffffffffffff\n      and\n      dup2\n      mstore\n      0x20\n      add\n      swap1\n      dup2\n      mstore\n      0x20\n      add\n      0x00\n      keccak256\n        /* \"FAANGOrchestrator.sol\":8058:8108  UserInfo storage user = userInfo[_pid][msg.sender] */\n      swap1\n      pop\n        /* \"FAANGOrchestrator.sol\":8119:8135  updatePool(_pid) */\n      tag_212\n        /* \"FAANGOrchestrator.sol\":8130:8134  _pid */\n      dup6\n        /* \"FAANGOrchestrator.sol\":8119:8129  updatePool */\n      tag_72\n        /* \"FAANGOrchestrator.sol\":8119:8135  updatePool(_pid) */\n      jump\t// in\n    tag_212:\n        /* \"FAANGOrchestrator.sol\":8146:8175  payOrLockupPendingFAANG(_pid) */\n      tag_213\n        /* \"FAANGOrchestrator.sol\":8170:8174  _pid */\n      dup6\n        /* \"FAANGOrchestrator.sol\":8146:8169  payOrLockupPendingFAANG */\n      tag_132\n        /* \"FAANGOrchestrator.sol\":8146:8175  payOrLockupPendingFAANG(_pid) */\n      jump\t// in\n    tag_213:\n        /* \"FAANGOrchestrator.sol\":8200:8201  0 */\n      0x00\n        /* \"FAANGOrchestrator.sol\":8190:8197  _amount */\n      dup5\n        /* \"FAANGOrchestrator.sol\":8190:8201  _amount > 0 */\n      gt\n        /* \"FAANGOrchestrator.sol\":8190:8228  _amount > 0 && _referrer != address(0) */\n      dup1\n      iszero\n      tag_214\n      jumpi\n      pop\n        /* \"FAANGOrchestrator.sol\":8226:8227  0 */\n      0x00\n        /* \"FAANGOrchestrator.sol\":8205:8228  _referrer != address(0) */\n      0xffffffffffffffffffffffffffffffffffffffff\n      and\n        /* \"FAANGOrchestrator.sol\":8205:8214  _referrer */\n      dup4\n        /* \"FAANGOrchestrator.sol\":8205:8228  _referrer != address(0) */\n      0xffffffffffffffffffffffffffffffffffffffff\n      and\n      eq\n      iszero\n        /* \"FAANGOrchestrator.sol\":8190:8228  _amount > 0 && _referrer != address(0) */\n    tag_214:\n        /* \"FAANGOrchestrator.sol\":8190:8255  _amount > 0 && _referrer != address(0) && _referrer != msg.sender */\n      dup1\n      iszero\n      tag_215\n      jumpi\n      pop\n        /* \"FAANGOrchestrator.sol\":8245:8255  msg.sender */\n      caller\n        /* \"FAANGOrchestrator.sol\":8232:8255  _referrer != msg.sender */\n      0xffffffffffffffffffffffffffffffffffffffff\n      and\n        /* \"FAANGOrchestrator.sol\":8232:8241  _referrer */\n      dup4\n        /* \"FAANGOrchestrator.sol\":8232:8255  _referrer != msg.sender */\n      0xffffffffffffffffffffffffffffffffffffffff\n      and\n      eq\n      iszero\n        /* \"FAANGOrchestrator.sol\":8190:8255  _amount > 0 && _referrer != address(0) && _referrer != msg.sender */\n    tag_215:\n        /* \"FAANGOrchestrator.sol\":8186:8316  if (_amount > 0 && _referrer != address(0) && _referrer != msg.sender) {... */\n      iszero\n      tag_216\n      jumpi\n        /* \"FAANGOrchestrator.sol\":8271:8305  setReferral(msg.sender, _referrer) */\n      tag_217\n        /* \"FAANGOrchestrator.sol\":8283:8293  msg.sender */\n      caller\n        /* \"FAANGOrchestrator.sol\":8295:8304  _referrer */\n      dup5\n        /* \"FAANGOrchestrator.sol\":8271:8282  setReferral */\n      tag_218\n        /* \"FAANGOrchestrator.sol\":8271:8305  setReferral(msg.sender, _referrer) */\n      jump\t// in\n    tag_217:\n        /* \"FAANGOrchestrator.sol\":8186:8316  if (_amount > 0 && _referrer != address(0) && _referrer != msg.sender) {... */\n    tag_216:\n        /* \"FAANGOrchestrator.sol\":8340:8341  0 */\n      0x00\n        /* \"FAANGOrchestrator.sol\":8330:8337  _amount */\n      dup5\n        /* \"FAANGOrchestrator.sol\":8330:8341  _amount > 0 */\n      gt\n        /* \"FAANGOrchestrator.sol\":8326:8864  if (_amount > 0) {... */\n      iszero\n      tag_219\n      jumpi\n        /* \"FAANGOrchestrator.sol\":8357:8431  pool.lpToken.safeTransferFrom(address(msg.sender), address(this), _amount) */\n      tag_220\n        /* \"FAANGOrchestrator.sol\":8395:8405  msg.sender */\n      caller\n        /* \"FAANGOrchestrator.sol\":8416:8420  this */\n      address\n        /* \"FAANGOrchestrator.sol\":8423:8430  _amount */\n      dup7\n        /* \"FAANGOrchestrator.sol\":8357:8361  pool */\n      dup6\n        /* \"FAANGOrchestrator.sol\":8357:8369  pool.lpToken */\n      0x00\n      add\n      0x00\n      swap1\n      sload\n      swap1\n      0x0100\n      exp\n      swap1\n      div\n      0xffffffffffffffffffffffffffffffffffffffff\n      and\n        /* \"FAANGOrchestrator.sol\":8357:8386  pool.lpToken.safeTransferFrom */\n      0xffffffffffffffffffffffffffffffffffffffff\n      and\n      tag_221\n      swap1\n        /* \"FAANGOrchestrator.sol\":8357:8431  pool.lpToken.safeTransferFrom(address(msg.sender), address(this), _amount) */\n      swap4\n      swap3\n      swap2\n      swap1\n      0xffffffff\n      and\n      jump\t// in\n    tag_220:\n        /* \"FAANGOrchestrator.sol\":8470:8471  0 */\n      0x00\n        /* \"FAANGOrchestrator.sol\":8450:8454  pool */\n      dup3\n        /* \"FAANGOrchestrator.sol\":8450:8467  pool.depositFeeBP */\n      0x04\n      add\n      0x00\n      swap1\n      sload\n      swap1\n      0x0100\n      exp\n      swap1\n      div\n      0xffff\n      and\n        /* \"FAANGOrchestrator.sol\":8450:8471  pool.depositFeeBP > 0 */\n      0xffff\n      and\n      gt\n        /* \"FAANGOrchestrator.sol\":8446:8854  if (pool.depositFeeBP > 0) {... */\n      iszero\n      tag_222\n      jumpi\n        /* \"FAANGOrchestrator.sol\":8491:8509  uint256 depositFee */\n      0x00\n        /* \"FAANGOrchestrator.sol\":8512:8587  _amount... */\n      tag_223\n        /* \"FAANGOrchestrator.sol\":8581:8586  10000 */\n      0x2710\n        /* \"FAANGOrchestrator.sol\":8512:8559  _amount... */\n      tag_224\n        /* \"FAANGOrchestrator.sol\":8541:8545  pool */\n      dup6\n        /* \"FAANGOrchestrator.sol\":8541:8558  pool.depositFeeBP */\n      0x04\n      add\n      0x00\n      swap1\n      sload\n      swap1\n      0x0100\n      exp\n      swap1\n      div\n      0xffff\n      and\n        /* \"FAANGOrchestrator.sol\":8512:8559  _amount... */\n      0xffff\n      and\n        /* \"FAANGOrchestrator.sol\":8512:8519  _amount */\n      dup9\n        /* \"FAANGOrchestrator.sol\":8512:8540  _amount... */\n      tag_140\n      swap1\n        /* \"FAANGOrchestrator.sol\":8512:8559  _amount... */\n      swap2\n      swap1\n      0xffffffff\n      and\n      jump\t// in\n    tag_224:\n        /* \"FAANGOrchestrator.sol\":8512:8580  _amount... */\n      tag_141\n      swap1\n        /* \"FAANGOrchestrator.sol\":8512:8587  _amount... */\n      swap2\n      swap1\n      0xffffffff\n      and\n      jump\t// in\n    tag_223:\n        /* \"FAANGOrchestrator.sol\":8491:8587  uint256 depositFee = _amount... */\n      swap1\n      pop\n        /* \"FAANGOrchestrator.sol\":8620:8694  user.amount... */\n      tag_225\n        /* \"FAANGOrchestrator.sol\":8683:8693  depositFee */\n      dup2\n        /* \"FAANGOrchestrator.sol\":8620:8661  user.amount... */\n      tag_226\n        /* \"FAANGOrchestrator.sol\":8653:8660  _amount */\n      dup8\n        /* \"FAANGOrchestrator.sol\":8620:8624  user */\n      dup6\n        /* \"FAANGOrchestrator.sol\":8620:8631  user.amount */\n      0x00\n      add\n      sload\n        /* \"FAANGOrchestrator.sol\":8620:8652  user.amount... */\n      tag_166\n      swap1\n        /* \"FAANGOrchestrator.sol\":8620:8661  user.amount... */\n      swap2\n      swap1\n      0xffffffff\n      and\n      jump\t// in\n    tag_226:\n        /* \"FAANGOrchestrator.sol\":8620:8682  user.amount... */\n      tag_135\n      swap1\n        /* \"FAANGOrchestrator.sol\":8620:8694  user.amount... */\n      swap2\n      swap1\n      0xffffffff\n      and\n      jump\t// in\n    tag_225:\n        /* \"FAANGOrchestrator.sol\":8606:8610  user */\n      dup3\n        /* \"FAANGOrchestrator.sol\":8606:8617  user.amount */\n      0x00\n      add\n        /* \"FAANGOrchestrator.sol\":8606:8694  user.amount = user.amount... */\n      dup2\n      swap1\n      sstore\n      pop\n        /* \"FAANGOrchestrator.sol\":8713:8762  pool.lpToken.safeTransfer(feeAddress, depositFee) */\n      tag_227\n        /* \"FAANGOrchestrator.sol\":8739:8749  feeAddress */\n      0x04\n      0x00\n      swap1\n      sload\n      swap1\n      0x0100\n      exp\n      swap1\n      div\n      0xffffffffffffffffffffffffffffffffffffffff\n      and\n        /* \"FAANGOrchestrator.sol\":8751:8761  depositFee */\n      dup3\n        /* \"FAANGOrchestrator.sol\":8713:8717  pool */\n      dup6\n        /* \"FAANGOrchestrator.sol\":8713:8725  pool.lpToken */\n      0x00\n      add\n      0x00\n      swap1\n      sload\n      swap1\n      0x0100\n      exp\n      swap1\n      div\n      0xffffffffffffffffffffffffffffffffffffffff\n      and\n        /* \"FAANGOrchestrator.sol\":8713:8738  pool.lpToken.safeTransfer */\n      0xffffffffffffffffffffffffffffffffffffffff\n      and\n      tag_137\n      swap1\n        /* \"FAANGOrchestrator.sol\":8713:8762  pool.lpToken.safeTransfer(feeAddress, depositFee) */\n      swap3\n      swap2\n      swap1\n      0xffffffff\n      and\n      jump\t// in\n    tag_227:\n        /* \"FAANGOrchestrator.sol\":8446:8854  if (pool.depositFeeBP > 0) {... */\n      pop\n      jump(tag_228)\n    tag_222:\n        /* \"FAANGOrchestrator.sol\":8815:8839  user.amount.add(_amount) */\n      tag_229\n        /* \"FAANGOrchestrator.sol\":8831:8838  _amount */\n      dup5\n        /* \"FAANGOrchestrator.sol\":8815:8819  user */\n      dup3\n        /* \"FAANGOrchestrator.sol\":8815:8826  user.amount */\n      0x00\n      add\n      sload\n        /* \"FAANGOrchestrator.sol\":8815:8830  user.amount.add */\n      tag_166\n      swap1\n        /* \"FAANGOrchestrator.sol\":8815:8839  user.amount.add(_amount) */\n      swap2\n      swap1\n      0xffffffff\n      and\n      jump\t// in\n    tag_229:\n        /* \"FAANGOrchestrator.sol\":8801:8805  user */\n      dup2\n        /* \"FAANGOrchestrator.sol\":8801:8812  user.amount */\n      0x00\n      add\n        /* \"FAANGOrchestrator.sol\":8801:8839  user.amount = user.amount.add(_amount) */\n      dup2\n      swap1\n      sstore\n      pop\n        /* \"FAANGOrchestrator.sol\":8446:8854  if (pool.depositFeeBP > 0) {... */\n    tag_228:\n        /* \"FAANGOrchestrator.sol\":8326:8864  if (_amount > 0) {... */\n    tag_219:\n        /* \"FAANGOrchestrator.sol\":8892:8958  user.amount... */\n      tag_230\n        /* \"FAANGOrchestrator.sol\":8953:8957  1e12 */\n      0xe8d4a51000\n        /* \"FAANGOrchestrator.sol\":8892:8939  user.amount... */\n      tag_231\n        /* \"FAANGOrchestrator.sol\":8917:8921  pool */\n      dup5\n        /* \"FAANGOrchestrator.sol\":8917:8938  pool.accFAANGPerShare */\n      0x03\n      add\n      sload\n        /* \"FAANGOrchestrator.sol\":8892:8896  user */\n      dup5\n        /* \"FAANGOrchestrator.sol\":8892:8903  user.amount */\n      0x00\n      add\n      sload\n        /* \"FAANGOrchestrator.sol\":8892:8916  user.amount... */\n      tag_140\n      swap1\n        /* \"FAANGOrchestrator.sol\":8892:8939  user.amount... */\n      swap2\n      swap1\n      0xffffffff\n      and\n      jump\t// in\n    tag_231:\n        /* \"FAANGOrchestrator.sol\":8892:8952  user.amount... */\n      tag_141\n      swap1\n        /* \"FAANGOrchestrator.sol\":8892:8958  user.amount... */\n      swap2\n      swap1\n      0xffffffff\n      and\n      jump\t// in\n    tag_230:\n        /* \"FAANGOrchestrator.sol\":8874:8878  user */\n      dup2\n        /* \"FAANGOrchestrator.sol\":8874:8889  user.rewardDebt */\n      0x01\n      add\n        /* \"FAANGOrchestrator.sol\":8874:8958  user.rewardDebt = user.amount... */\n      dup2\n      swap1\n      sstore\n      pop\n        /* \"FAANGOrchestrator.sol\":8994:8998  _pid */\n      dup5\n        /* \"FAANGOrchestrator.sol\":8982:8992  msg.sender */\n      caller\n        /* \"FAANGOrchestrator.sol\":8974:9008  Deposit(msg.sender, _pid, _amount) */\n      0xffffffffffffffffffffffffffffffffffffffff\n      and\n      0x90890809c654f11d6e72a28fa60149770a0d11ec6c92319d6ceb2bb0a4ea1a15\n        /* \"FAANGOrchestrator.sol\":9000:9007  _amount */\n      dup7\n        /* \"FAANGOrchestrator.sol\":8974:9008  Deposit(msg.sender, _pid, _amount) */\n      mload(0x40)\n      dup1\n      dup3\n      dup2\n      mstore\n      0x20\n      add\n      swap2\n      pop\n      pop\n      mload(0x40)\n      dup1\n      swap2\n      sub\n      swap1\n      log3\n        /* \"ReentrancyGuard.sol\":2428:2429  _ */\n      pop\n      pop\n        /* \"ReentrancyGuard.sol\":1637:1638  1 */\n      0x01\n        /* \"ReentrancyGuard.sol\":2572:2579  _status */\n      dup1\n        /* \"ReentrancyGuard.sol\":2572:2594  _status = _NOT_ENTERED */\n      dup2\n      swap1\n      sstore\n      pop\n        /* \"FAANGOrchestrator.sol\":7826:9015  function deposit(uint256 _pid, uint256 _amount, address _referrer) public nonReentrant {... */\n      pop\n      pop\n      pop\n      jump\t// out\n        /* \"FAANGOrchestrator.sol\":2894:2949  uint256 public constant INITIAL_EMISSION_RATE = 1 ether */\n    tag_104:\n        /* \"FAANGOrchestrator.sol\":2942:2949  1 ether */\n      0x0de0b6b3a7640000\n        /* \"FAANGOrchestrator.sol\":2894:2949  uint256 public constant INITIAL_EMISSION_RATE = 1 ether */\n      dup2\n      jump\t// out\n        /* \"FAANGOrchestrator.sol\":3062:3126  mapping(uint256 => mapping(address => UserInfo)) public userInfo */\n    tag_107:\n      mstore(0x20, 0x0a)\n      dup2\n      0x00\n      mstore\n      mstore(0x20, keccak256(0x00, 0x40))\n      dup1\n      0x00\n      mstore\n      keccak256(0x00, 0x40)\n      0x00\n      swap2\n      pop\n      swap2\n      pop\n      pop\n      dup1\n      0x00\n      add\n      sload\n      swap1\n      dup1\n      0x01\n      add\n      sload\n      swap1\n      dup1\n      0x02\n      add\n      sload\n      swap1\n      pop\n      dup4\n      jump\t// out\n        /* \"FAANGOrchestrator.sol\":5860:6617  function pendingFAANG(uint256 _pid, address _user) external view returns (uint256) {... */\n    tag_110:\n        /* \"FAANGOrchestrator.sol\":5934:5941  uint256 */\n      0x00\n        /* \"FAANGOrchestrator.sol\":5953:5974  PoolInfo storage pool */\n      dup1\n        /* \"FAANGOrchestrator.sol\":5977:5985  poolInfo */\n      0x09\n        /* \"FAANGOrchestrator.sol\":5986:5990  _pid */\n      dup5\n        /* \"FAANGOrchestrator.sol\":5977:5991  poolInfo[_pid] */\n      dup2\n      sload\n      dup2\n      lt\n      tag_233\n      jumpi\n      invalid\n    tag_233:\n      swap1\n      0x00\n      mstore\n      keccak256(0x00, 0x20)\n      swap1\n      0x05\n      mul\n      add\n        /* \"FAANGOrchestrator.sol\":5953:5991  PoolInfo storage pool = poolInfo[_pid] */\n      swap1\n      pop\n        /* \"FAANGOrchestrator.sol\":6001:6022  UserInfo storage user */\n      0x00\n        /* \"FAANGOrchestrator.sol\":6025:6033  userInfo */\n      0x0a\n        /* \"FAANGOrchestrator.sol\":6025:6039  userInfo[_pid] */\n      0x00\n        /* \"FAANGOrchestrator.sol\":6034:6038  _pid */\n      dup7\n        /* \"FAANGOrchestrator.sol\":6025:6039  userInfo[_pid] */\n      dup2\n      mstore\n      0x20\n      add\n      swap1\n      dup2\n      mstore\n      0x20\n      add\n      0x00\n      keccak256\n        /* \"FAANGOrchestrator.sol\":6025:6046  userInfo[_pid][_user] */\n      0x00\n        /* \"FAANGOrchestrator.sol\":6040:6045  _user */\n      dup6\n        /* \"FAANGOrchestrator.sol\":6025:6046  userInfo[_pid][_user] */\n      0xffffffffffffffffffffffffffffffffffffffff\n      and\n      0xffffffffffffffffffffffffffffffffffffffff\n      and\n      dup2\n      mstore\n      0x20\n      add\n      swap1\n      dup2\n      mstore\n      0x20\n      add\n      0x00\n      keccak256\n        /* \"FAANGOrchestrator.sol\":6001:6046  UserInfo storage user = userInfo[_pid][_user] */\n      swap1\n      pop\n        /* \"FAANGOrchestrator.sol\":6056:6080  uint256 accFAANGPerShare */\n      0x00\n        /* \"FAANGOrchestrator.sol\":6083:6087  pool */\n      dup3\n        /* \"FAANGOrchestrator.sol\":6083:6104  pool.accFAANGPerShare */\n      0x03\n      add\n      sload\n        /* \"FAANGOrchestrator.sol\":6056:6104  uint256 accFAANGPerShare = pool.accFAANGPerShare */\n      swap1\n      pop\n        /* \"FAANGOrchestrator.sol\":6114:6130  uint256 lpSupply */\n      0x00\n        /* \"FAANGOrchestrator.sol\":6133:6137  pool */\n      dup4\n        /* \"FAANGOrchestrator.sol\":6133:6145  pool.lpToken */\n      0x00\n      add\n      0x00\n      swap1\n      sload\n      swap1\n      0x0100\n      exp\n      swap1\n      div\n      0xffffffffffffffffffffffffffffffffffffffff\n      and\n        /* \"FAANGOrchestrator.sol\":6133:6155  pool.lpToken.balanceOf */\n      0xffffffffffffffffffffffffffffffffffffffff\n      and\n      0x70a08231\n        /* \"FAANGOrchestrator.sol\":6164:6168  this */\n      address\n        /* \"FAANGOrchestrator.sol\":6133:6170  pool.lpToken.balanceOf(address(this)) */\n      mload(0x40)\n      dup3\n      0xffffffff\n      and\n      0xe0\n      shl\n      dup2\n      mstore\n      0x04\n      add\n      dup1\n      dup3\n      0xffffffffffffffffffffffffffffffffffffffff\n      and\n      dup2\n      mstore\n      0x20\n      add\n      swap2\n      pop\n      pop\n      0x20\n      mload(0x40)\n      dup1\n      dup4\n      sub\n      dup2\n      dup7\n      dup1\n      extcodesize\n      iszero\n      dup1\n      iszero\n      tag_235\n      jumpi\n      0x00\n      dup1\n      revert\n    tag_235:\n      pop\n      gas\n      staticcall\n      iszero\n      dup1\n      iszero\n      tag_237\n      jumpi\n      returndatasize\n      0x00\n      dup1\n      returndatacopy\n      revert(0x00, returndatasize)\n    tag_237:\n      pop\n      pop\n      pop\n      pop\n      mload(0x40)\n      returndatasize\n      0x20\n      dup2\n      lt\n      iszero\n      tag_238\n      jumpi\n      0x00\n      dup1\n      revert\n    tag_238:\n      dup2\n      add\n      swap1\n      dup1\n      dup1\n      mload\n      swap1\n      0x20\n      add\n      swap1\n      swap3\n      swap2\n      swap1\n      pop\n      pop\n      pop\n        /* \"FAANGOrchestrator.sol\":6114:6170  uint256 lpSupply = pool.lpToken.balanceOf(address(this)) */\n      swap1\n      pop\n        /* \"FAANGOrchestrator.sol\":6199:6203  pool */\n      dup4\n        /* \"FAANGOrchestrator.sol\":6199:6219  pool.lastRewardBlock */\n      0x02\n      add\n      sload\n        /* \"FAANGOrchestrator.sol\":6184:6196  block.number */\n      number\n        /* \"FAANGOrchestrator.sol\":6184:6219  block.number > pool.lastRewardBlock */\n      gt\n        /* \"FAANGOrchestrator.sol\":6184:6236  block.number > pool.lastRewardBlock && lpSupply != 0 */\n      dup1\n      iszero\n      tag_239\n      jumpi\n      pop\n        /* \"FAANGOrchestrator.sol\":6235:6236  0 */\n      0x00\n        /* \"FAANGOrchestrator.sol\":6223:6231  lpSupply */\n      dup2\n        /* \"FAANGOrchestrator.sol\":6223:6236  lpSupply != 0 */\n      eq\n      iszero\n        /* \"FAANGOrchestrator.sol\":6184:6236  block.number > pool.lastRewardBlock && lpSupply != 0 */\n    tag_239:\n        /* \"FAANGOrchestrator.sol\":6180:6530  if (block.number > pool.lastRewardBlock && lpSupply != 0) {... */\n      iszero\n      tag_240\n      jumpi\n        /* \"FAANGOrchestrator.sol\":6252:6270  uint256 multiplier */\n      0x00\n        /* \"FAANGOrchestrator.sol\":6273:6322  getMultiplier(pool.lastRewardBlock, block.number) */\n      tag_241\n        /* \"FAANGOrchestrator.sol\":6287:6291  pool */\n      dup6\n        /* \"FAANGOrchestrator.sol\":6287:6307  pool.lastRewardBlock */\n      0x02\n      add\n      sload\n        /* \"FAANGOrchestrator.sol\":6309:6321  block.number */\n      number\n        /* \"FAANGOrchestrator.sol\":6273:6286  getMultiplier */\n      tag_99\n        /* \"FAANGOrchestrator.sol\":6273:6322  getMultiplier(pool.lastRewardBlock, block.number) */\n      jump\t// in\n    tag_241:\n        /* \"FAANGOrchestrator.sol\":6252:6322  uint256 multiplier = getMultiplier(pool.lastRewardBlock, block.number) */\n      swap1\n      pop\n        /* \"FAANGOrchestrator.sol\":6336:6355  uint256 FAANGReward */\n      0x00\n        /* \"FAANGOrchestrator.sol\":6358:6429  multiplier.mul(FAANGPerBlock).mul(pool.allocPoint).div(totalAllocPoint) */\n      tag_242\n        /* \"FAANGOrchestrator.sol\":6413:6428  totalAllocPoint */\n      sload(0x0b)\n        /* \"FAANGOrchestrator.sol\":6358:6408  multiplier.mul(FAANGPerBlock).mul(pool.allocPoint) */\n      tag_243\n        /* \"FAANGOrchestrator.sol\":6392:6396  pool */\n      dup9\n        /* \"FAANGOrchestrator.sol\":6392:6407  pool.allocPoint */\n      0x01\n      add\n      sload\n        /* \"FAANGOrchestrator.sol\":6358:6387  multiplier.mul(FAANGPerBlock) */\n      tag_244\n        /* \"FAANGOrchestrator.sol\":6373:6386  FAANGPerBlock */\n      sload(0x05)\n        /* \"FAANGOrchestrator.sol\":6358:6368  multiplier */\n      dup8\n        /* \"FAANGOrchestrator.sol\":6358:6372  multiplier.mul */\n      tag_140\n      swap1\n        /* \"FAANGOrchestrator.sol\":6358:6387  multiplier.mul(FAANGPerBlock) */\n      swap2\n      swap1\n      0xffffffff\n      and\n      jump\t// in\n    tag_244:\n        /* \"FAANGOrchestrator.sol\":6358:6391  multiplier.mul(FAANGPerBlock).mul */\n      tag_140\n      swap1\n        /* \"FAANGOrchestrator.sol\":6358:6408  multiplier.mul(FAANGPerBlock).mul(pool.allocPoint) */\n      swap2\n      swap1\n      0xffffffff\n      and\n      jump\t// in\n    tag_243:\n        /* \"FAANGOrchestrator.sol\":6358:6412  multiplier.mul(FAANGPerBlock).mul(pool.allocPoint).div */\n      tag_141\n      swap1\n        /* \"FAANGOrchestrator.sol\":6358:6429  multiplier.mul(FAANGPerBlock).mul(pool.allocPoint).div(totalAllocPoint) */\n      swap2\n      swap1\n      0xffffffff\n      and\n      jump\t// in\n    tag_242:\n        /* \"FAANGOrchestrator.sol\":6336:6429  uint256 FAANGReward = multiplier.mul(FAANGPerBlock).mul(pool.allocPoint).div(totalAllocPoint) */\n      swap1\n      pop\n        /* \"FAANGOrchestrator.sol\":6462:6519  accFAANGPerShare.add(FAANGReward.mul(1e12).div(lpSupply)) */\n      tag_245\n        /* \"FAANGOrchestrator.sol\":6483:6518  FAANGReward.mul(1e12).div(lpSupply) */\n      tag_246\n        /* \"FAANGOrchestrator.sol\":6509:6517  lpSupply */\n      dup5\n        /* \"FAANGOrchestrator.sol\":6483:6504  FAANGReward.mul(1e12) */\n      tag_247\n        /* \"FAANGOrchestrator.sol\":6499:6503  1e12 */\n      0xe8d4a51000\n        /* \"FAANGOrchestrator.sol\":6483:6494  FAANGReward */\n      dup6\n        /* \"FAANGOrchestrator.sol\":6483:6498  FAANGReward.mul */\n      tag_140\n      swap1\n        /* \"FAANGOrchestrator.sol\":6483:6504  FAANGReward.mul(1e12) */\n      swap2\n      swap1\n      0xffffffff\n      and\n      jump\t// in\n    tag_247:\n        /* \"FAANGOrchestrator.sol\":6483:6508  FAANGReward.mul(1e12).div */\n      tag_141\n      swap1\n        /* \"FAANGOrchestrator.sol\":6483:6518  FAANGReward.mul(1e12).div(lpSupply) */\n      swap2\n      swap1\n      0xffffffff\n      and\n      jump\t// in\n    tag_246:\n        /* \"FAANGOrchestrator.sol\":6462:6478  accFAANGPerShare */\n      dup6\n        /* \"FAANGOrchestrator.sol\":6462:6482  accFAANGPerShare.add */\n      tag_166\n      swap1\n        /* \"FAANGOrchestrator.sol\":6462:6519  accFAANGPerShare.add(FAANGReward.mul(1e12).div(lpSupply)) */\n      swap2\n      swap1\n      0xffffffff\n      and\n      jump\t// in\n    tag_245:\n        /* \"FAANGOrchestrator.sol\":6443:6519  accFAANGPerShare = accFAANGPerShare.add(FAANGReward.mul(1e12).div(lpSupply)) */\n      swap4\n      pop\n        /* \"FAANGOrchestrator.sol\":6180:6530  if (block.number > pool.lastRewardBlock && lpSupply != 0) {... */\n      pop\n      pop\n    tag_240:\n        /* \"FAANGOrchestrator.sol\":6546:6610  user.amount.mul(accFAANGPerShare).div(1e12).sub(user.rewardDebt) */\n      tag_248\n        /* \"FAANGOrchestrator.sol\":6594:6598  user */\n      dup4\n        /* \"FAANGOrchestrator.sol\":6594:6609  user.rewardDebt */\n      0x01\n      add\n      sload\n        /* \"FAANGOrchestrator.sol\":6546:6589  user.amount.mul(accFAANGPerShare).div(1e12) */\n      tag_249\n        /* \"FAANGOrchestrator.sol\":6584:6588  1e12 */\n      0xe8d4a51000\n        /* \"FAANGOrchestrator.sol\":6546:6579  user.amount.mul(accFAANGPerShare) */\n      tag_250\n        /* \"FAANGOrchestrator.sol\":6562:6578  accFAANGPerShare */\n      dup7\n        /* \"FAANGOrchestrator.sol\":6546:6550  user */\n      dup9\n        /* \"FAANGOrchestrator.sol\":6546:6557  user.amount */\n      0x00\n      add\n      sload\n        /* \"FAANGOrchestrator.sol\":6546:6561  user.amount.mul */\n      tag_140\n      swap1\n        /* \"FAANGOrchestrator.sol\":6546:6579  user.amount.mul(accFAANGPerShare) */\n      swap2\n      swap1\n      0xffffffff\n      and\n      jump\t// in\n    tag_250:\n        /* \"FAANGOrchestrator.sol\":6546:6583  user.amount.mul(accFAANGPerShare).div */\n      tag_141\n      swap1\n        /* \"FAANGOrchestrator.sol\":6546:6589  user.amount.mul(accFAANGPerShare).div(1e12) */\n      swap2\n      swap1\n      0xffffffff\n      and\n      jump\t// in\n    tag_249:\n        /* \"FAANGOrchestrator.sol\":6546:6593  user.amount.mul(accFAANGPerShare).div(1e12).sub */\n      tag_135\n      swap1\n        /* \"FAANGOrchestrator.sol\":6546:6610  user.amount.mul(accFAANGPerShare).div(1e12).sub(user.rewardDebt) */\n      swap2\n      swap1\n      0xffffffff\n      and\n      jump\t// in\n    tag_248:\n        /* \"FAANGOrchestrator.sol\":6539:6610  return user.amount.mul(accFAANGPerShare).div(1e12).sub(user.rewardDebt) */\n      swap5\n      pop\n      pop\n      pop\n      pop\n      pop\n        /* \"FAANGOrchestrator.sol\":5860:6617  function pendingFAANG(uint256 _pid, address _user) external view returns (uint256) {... */\n      swap3\n      swap2\n      pop\n      pop\n      jump\t// out\n        /* \"FAANGOrchestrator.sol\":11390:11553  function setDevAddress(address _devAddress) public {... */\n    tag_113:\n        /* \"FAANGOrchestrator.sol\":11473:11483  devAddress */\n      0x03\n      0x00\n      swap1\n      sload\n      swap1\n      0x0100\n      exp\n      swap1\n      div\n      0xffffffffffffffffffffffffffffffffffffffff\n      and\n        /* \"FAANGOrchestrator.sol\":11459:11483  msg.sender == devAddress */\n      0xffffffffffffffffffffffffffffffffffffffff\n      and\n        /* \"FAANGOrchestrator.sol\":11459:11469  msg.sender */\n      caller\n        /* \"FAANGOrchestrator.sol\":11459:11483  msg.sender == devAddress */\n      0xffffffffffffffffffffffffffffffffffffffff\n      and\n      eq\n        /* \"FAANGOrchestrator.sol\":11451:11512  require(msg.sender == devAddress, \"setDevAddress: FORBIDDEN\") */\n      tag_252\n      jumpi\n      mload(0x40)\n      0x08c379a000000000000000000000000000000000000000000000000000000000\n      dup2\n      mstore\n      0x04\n      add\n      dup1\n      dup1\n      0x20\n      add\n      dup3\n      dup2\n      sub\n      dup3\n      mstore\n      0x18\n      dup2\n      mstore\n      0x20\n      add\n      dup1\n      0x736574446576416464726573733a20464f5242494444454e0000000000000000\n      dup2\n      mstore\n      pop\n      0x20\n      add\n      swap2\n      pop\n      pop\n      mload(0x40)\n      dup1\n      swap2\n      sub\n      swap1\n      revert\n    tag_252:\n        /* \"FAANGOrchestrator.sol\":11535:11546  _devAddress */\n      dup1\n        /* \"FAANGOrchestrator.sol\":11522:11532  devAddress */\n      0x03\n      0x00\n        /* \"FAANGOrchestrator.sol\":11522:11546  devAddress = _devAddress */\n      0x0100\n      exp\n      dup2\n      sload\n      dup2\n      0xffffffffffffffffffffffffffffffffffffffff\n      mul\n      not\n      and\n      swap1\n      dup4\n      0xffffffffffffffffffffffffffffffffffffffff\n      and\n      mul\n      or\n      swap1\n      sstore\n      pop\n        /* \"FAANGOrchestrator.sol\":11390:11553  function setDevAddress(address _devAddress) public {... */\n      pop\n      jump\t// out\n        /* \"FAANGOrchestrator.sol\":5128:5583  function set(uint256 _pid, uint256 _allocPoint, uint16 _depositFeeBP, bool _withUpdate) public onlyOwner {... */\n    tag_116:\n        /* \"Ownable.sol\":1289:1301  _msgSender() */\n      tag_254\n        /* \"Ownable.sol\":1289:1299  _msgSender */\n      tag_180\n        /* \"Ownable.sol\":1289:1301  _msgSender() */\n      jump\t// in\n    tag_254:\n        /* \"Ownable.sol\":1279:1301  _owner == _msgSender() */\n      0xffffffffffffffffffffffffffffffffffffffff\n      and\n        /* \"Ownable.sol\":1279:1285  _owner */\n      0x00\n      dup1\n      sload\n      swap1\n      0x0100\n      exp\n      swap1\n      div\n      0xffffffffffffffffffffffffffffffffffffffff\n      and\n        /* \"Ownable.sol\":1279:1301  _owner == _msgSender() */\n      0xffffffffffffffffffffffffffffffffffffffff\n      and\n      eq\n        /* \"Ownable.sol\":1271:1338  require(_owner == _msgSender(), 'Ownable: caller is not the owner') */\n      tag_255\n      jumpi\n      mload(0x40)\n      0x08c379a000000000000000000000000000000000000000000000000000000000\n      dup2\n      mstore\n      0x04\n      add\n      dup1\n      dup1\n      0x20\n      add\n      dup3\n      dup2\n      sub\n      dup3\n      mstore\n      0x20\n      dup2\n      mstore\n      0x20\n      add\n      dup1\n      0x4f776e61626c653a2063616c6c6572206973206e6f7420746865206f776e6572\n      dup2\n      mstore\n      pop\n      0x20\n      add\n      swap2\n      pop\n      pop\n      mload(0x40)\n      dup1\n      swap2\n      sub\n      swap1\n      revert\n    tag_255:\n        /* \"FAANGOrchestrator.sol\":5268:5273  10000 */\n      0x2710\n        /* \"FAANGOrchestrator.sol\":5251:5264  _depositFeeBP */\n      dup3\n        /* \"FAANGOrchestrator.sol\":5251:5273  _depositFeeBP <= 10000 */\n      0xffff\n      and\n      gt\n      iszero\n        /* \"FAANGOrchestrator.sol\":5243:5315  require(_depositFeeBP <= 10000, \"set: invalid deposit fee basis points\") */\n      tag_257\n      jumpi\n      mload(0x40)\n      0x08c379a000000000000000000000000000000000000000000000000000000000\n      dup2\n      mstore\n      0x04\n      add\n      dup1\n      dup1\n      0x20\n      add\n      dup3\n      dup2\n      sub\n      dup3\n      mstore\n      0x25\n      dup2\n      mstore\n      0x20\n      add\n      dup1\n      data_9353dfb5d58f0da66015bbcadafa0686e2e7b7226db2e603088e70c7012680cf\n      0x25\n      swap2\n      codecopy\n      0x40\n      add\n      swap2\n      pop\n      pop\n      mload(0x40)\n      dup1\n      swap2\n      sub\n      swap1\n      revert\n    tag_257:\n        /* \"FAANGOrchestrator.sol\":5329:5340  _withUpdate */\n      dup1\n        /* \"FAANGOrchestrator.sol\":5325:5384  if (_withUpdate) {... */\n      iszero\n      tag_258\n      jumpi\n        /* \"FAANGOrchestrator.sol\":5356:5373  massUpdatePools() */\n      tag_259\n        /* \"FAANGOrchestrator.sol\":5356:5371  massUpdatePools */\n      tag_77\n        /* \"FAANGOrchestrator.sol\":5356:5373  massUpdatePools() */\n      jump\t// in\n    tag_259:\n        /* \"FAANGOrchestrator.sol\":5325:5384  if (_withUpdate) {... */\n    tag_258:\n        /* \"FAANGOrchestrator.sol\":5411:5474  totalAllocPoint.sub(poolInfo[_pid].allocPoint).add(_allocPoint) */\n      tag_260\n        /* \"FAANGOrchestrator.sol\":5462:5473  _allocPoint */\n      dup4\n        /* \"FAANGOrchestrator.sol\":5411:5457  totalAllocPoint.sub(poolInfo[_pid].allocPoint) */\n      tag_261\n        /* \"FAANGOrchestrator.sol\":5431:5439  poolInfo */\n      0x09\n        /* \"FAANGOrchestrator.sol\":5440:5444  _pid */\n      dup8\n        /* \"FAANGOrchestrator.sol\":5431:5445  poolInfo[_pid] */\n      dup2\n      sload\n      dup2\n      lt\n      tag_262\n      jumpi\n      invalid\n    tag_262:\n      swap1\n      0x00\n      mstore\n      keccak256(0x00, 0x20)\n      swap1\n      0x05\n      mul\n      add\n        /* \"FAANGOrchestrator.sol\":5431:5456  poolInfo[_pid].allocPoint */\n      0x01\n      add\n      sload\n        /* \"FAANGOrchestrator.sol\":5411:5426  totalAllocPoint */\n      sload(0x0b)\n        /* \"FAANGOrchestrator.sol\":5411:5430  totalAllocPoint.sub */\n      tag_135\n      swap1\n        /* \"FAANGOrchestrator.sol\":5411:5457  totalAllocPoint.sub(poolInfo[_pid].allocPoint) */\n      swap2\n      swap1\n      0xffffffff\n      and\n      jump\t// in\n    tag_261:\n        /* \"FAANGOrchestrator.sol\":5411:5461  totalAllocPoint.sub(poolInfo[_pid].allocPoint).add */\n      tag_166\n      swap1\n        /* \"FAANGOrchestrator.sol\":5411:5474  totalAllocPoint.sub(poolInfo[_pid].allocPoint).add(_allocPoint) */\n      swap2\n      swap1\n      0xffffffff\n      and\n      jump\t// in\n    tag_260:\n        /* \"FAANGOrchestrator.sol\":5393:5408  totalAllocPoint */\n      0x0b\n        /* \"FAANGOrchestrator.sol\":5393:5474  totalAllocPoint = totalAllocPoint.sub(poolInfo[_pid].allocPoint).add(_allocPoint) */\n      dup2\n      swap1\n      sstore\n      pop\n        /* \"FAANGOrchestrator.sol\":5512:5523  _allocPoint */\n      dup3\n        /* \"FAANGOrchestrator.sol\":5484:5492  poolInfo */\n      0x09\n        /* \"FAANGOrchestrator.sol\":5493:5497  _pid */\n      dup6\n        /* \"FAANGOrchestrator.sol\":5484:5498  poolInfo[_pid] */\n      dup2\n      sload\n      dup2\n      lt\n      tag_264\n      jumpi\n      invalid\n    tag_264:\n      swap1\n      0x00\n      mstore\n      keccak256(0x00, 0x20)\n      swap1\n      0x05\n      mul\n      add\n        /* \"FAANGOrchestrator.sol\":5484:5509  poolInfo[_pid].allocPoint */\n      0x01\n      add\n        /* \"FAANGOrchestrator.sol\":5484:5523  poolInfo[_pid].allocPoint = _allocPoint */\n      dup2\n      swap1\n      sstore\n      pop\n        /* \"FAANGOrchestrator.sol\":5563:5576  _depositFeeBP */\n      dup2\n        /* \"FAANGOrchestrator.sol\":5533:5541  poolInfo */\n      0x09\n        /* \"FAANGOrchestrator.sol\":5542:5546  _pid */\n      dup6\n        /* \"FAANGOrchestrator.sol\":5533:5547  poolInfo[_pid] */\n      dup2\n      sload\n      dup2\n      lt\n      tag_266\n      jumpi\n      invalid\n    tag_266:\n      swap1\n      0x00\n      mstore\n      keccak256(0x00, 0x20)\n      swap1\n      0x05\n      mul\n      add\n        /* \"FAANGOrchestrator.sol\":5533:5560  poolInfo[_pid].depositFeeBP */\n      0x04\n      add\n      0x00\n        /* \"FAANGOrchestrator.sol\":5533:5576  poolInfo[_pid].depositFeeBP = _depositFeeBP */\n      0x0100\n      exp\n      dup2\n      sload\n      dup2\n      0xffff\n      mul\n      not\n      and\n      swap1\n      dup4\n      0xffff\n      and\n      mul\n      or\n      swap1\n      sstore\n      pop\n        /* \"FAANGOrchestrator.sol\":5128:5583  function set(uint256 _pid, uint256 _allocPoint, uint16 _depositFeeBP, bool _withUpdate) public onlyOwner {... */\n      pop\n      pop\n      pop\n      pop\n      jump\t// out\n        /* \"Ownable.sol\":1984:2091  function transferOwnership(address newOwner) public onlyOwner {... */\n    tag_119:\n        /* \"Ownable.sol\":1289:1301  _msgSender() */\n      tag_269\n        /* \"Ownable.sol\":1289:1299  _msgSender */\n      tag_180\n        /* \"Ownable.sol\":1289:1301  _msgSender() */\n      jump\t// in\n    tag_269:\n        /* \"Ownable.sol\":1279:1301  _owner == _msgSender() */\n      0xffffffffffffffffffffffffffffffffffffffff\n      and\n        /* \"Ownable.sol\":1279:1285  _owner */\n      0x00\n      dup1\n      sload\n      swap1\n      0x0100\n      exp\n      swap1\n      div\n      0xffffffffffffffffffffffffffffffffffffffff\n      and\n        /* \"Ownable.sol\":1279:1301  _owner == _msgSender() */\n      0xffffffffffffffffffffffffffffffffffffffff\n      and\n      eq\n        /* \"Ownable.sol\":1271:1338  require(_owner == _msgSender(), 'Ownable: caller is not the owner') */\n      tag_270\n      jumpi\n      mload(0x40)\n      0x08c379a000000000000000000000000000000000000000000000000000000000\n      dup2\n      mstore\n      0x04\n      add\n      dup1\n      dup1\n      0x20\n      add\n      dup3\n      dup2\n      sub\n      dup3\n      mstore\n      0x20\n      dup2\n      mstore\n      0x20\n      add\n      dup1\n      0x4f776e61626c653a2063616c6c6572206973206e6f7420746865206f776e6572\n      dup2\n      mstore\n      pop\n      0x20\n      add\n      swap2\n      pop\n      pop\n      mload(0x40)\n      dup1\n      swap2\n      sub\n      swap1\n      revert\n    tag_270:\n        /* \"Ownable.sol\":2056:2084  _transferOwnership(newOwner) */\n      tag_272\n        /* \"Ownable.sol\":2075:2083  newOwner */\n      dup2\n        /* \"Ownable.sol\":2056:2074  _transferOwnership */\n      tag_273\n        /* \"Ownable.sol\":2056:2084  _transferOwnership(newOwner) */\n      jump\t// in\n    tag_272:\n        /* \"Ownable.sol\":1984:2091  function transferOwnership(address newOwner) public onlyOwner {... */\n      pop\n      jump\t// out\n        /* \"FAANGOrchestrator.sol\":9726:10341  function payOrLockupPendingFAANG(uint256 _pid) internal {... */\n    tag_132:\n        /* \"FAANGOrchestrator.sol\":9792:9813  PoolInfo storage pool */\n      0x00\n        /* \"FAANGOrchestrator.sol\":9816:9824  poolInfo */\n      0x09\n        /* \"FAANGOrchestrator.sol\":9825:9829  _pid */\n      dup3\n        /* \"FAANGOrchestrator.sol\":9816:9830  poolInfo[_pid] */\n      dup2\n      sload\n      dup2\n      lt\n      tag_275\n      jumpi\n      invalid\n    tag_275:\n      swap1\n      0x00\n      mstore\n      keccak256(0x00, 0x20)\n      swap1\n      0x05\n      mul\n      add\n        /* \"FAANGOrchestrator.sol\":9792:9830  PoolInfo storage pool = poolInfo[_pid] */\n      swap1\n      pop\n        /* \"FAANGOrchestrator.sol\":9840:9861  UserInfo storage user */\n      0x00\n        /* \"FAANGOrchestrator.sol\":9864:9872  userInfo */\n      0x0a\n        /* \"FAANGOrchestrator.sol\":9864:9878  userInfo[_pid] */\n      0x00\n        /* \"FAANGOrchestrator.sol\":9873:9877  _pid */\n      dup5\n        /* \"FAANGOrchestrator.sol\":9864:9878  userInfo[_pid] */\n      dup2\n      mstore\n      0x20\n      add\n      swap1\n      dup2\n      mstore\n      0x20\n      add\n      0x00\n      keccak256\n        /* \"FAANGOrchestrator.sol\":9864:9890  userInfo[_pid][msg.sender] */\n      0x00\n        /* \"FAANGOrchestrator.sol\":9879:9889  msg.sender */\n      caller\n        /* \"FAANGOrchestrator.sol\":9864:9890  userInfo[_pid][msg.sender] */\n      0xffffffffffffffffffffffffffffffffffffffff\n      and\n      0xffffffffffffffffffffffffffffffffffffffff\n      and\n      dup2\n      mstore\n      0x20\n      add\n      swap1\n      dup2\n      mstore\n      0x20\n      add\n      0x00\n      keccak256\n        /* \"FAANGOrchestrator.sol\":9840:9890  UserInfo storage user = userInfo[_pid][msg.sender] */\n      swap1\n      pop\n        /* \"FAANGOrchestrator.sol\":9901:9916  uint256 pending */\n      0x00\n        /* \"FAANGOrchestrator.sol\":9919:10015  user.amount... */\n      tag_277\n        /* \"FAANGOrchestrator.sol\":9999:10003  user */\n      dup3\n        /* \"FAANGOrchestrator.sol\":9999:10014  user.rewardDebt */\n      0x01\n      add\n      sload\n        /* \"FAANGOrchestrator.sol\":9919:9985  user.amount... */\n      tag_278\n        /* \"FAANGOrchestrator.sol\":9980:9984  1e12 */\n      0xe8d4a51000\n        /* \"FAANGOrchestrator.sol\":9919:9966  user.amount... */\n      tag_279\n        /* \"FAANGOrchestrator.sol\":9944:9948  pool */\n      dup8\n        /* \"FAANGOrchestrator.sol\":9944:9965  pool.accFAANGPerShare */\n      0x03\n      add\n      sload\n        /* \"FAANGOrchestrator.sol\":9919:9923  user */\n      dup8\n        /* \"FAANGOrchestrator.sol\":9919:9930  user.amount */\n      0x00\n      add\n      sload\n        /* \"FAANGOrchestrator.sol\":9919:9943  user.amount... */\n      tag_140\n      swap1\n        /* \"FAANGOrchestrator.sol\":9919:9966  user.amount... */\n      swap2\n      swap1\n      0xffffffff\n      and\n      jump\t// in\n    tag_279:\n        /* \"FAANGOrchestrator.sol\":9919:9979  user.amount... */\n      tag_141\n      swap1\n        /* \"FAANGOrchestrator.sol\":9919:9985  user.amount... */\n      swap2\n      swap1\n      0xffffffff\n      and\n      jump\t// in\n    tag_278:\n        /* \"FAANGOrchestrator.sol\":9919:9998  user.amount... */\n      tag_135\n      swap1\n        /* \"FAANGOrchestrator.sol\":9919:10015  user.amount... */\n      swap2\n      swap1\n      0xffffffff\n      and\n      jump\t// in\n    tag_277:\n        /* \"FAANGOrchestrator.sol\":9901:10015  uint256 pending = user.amount... */\n      swap1\n      pop\n        /* \"FAANGOrchestrator.sol\":10040:10041  0 */\n      0x00\n        /* \"FAANGOrchestrator.sol\":10030:10037  pending */\n      dup2\n        /* \"FAANGOrchestrator.sol\":10030:10041  pending > 0 */\n      gt\n        /* \"FAANGOrchestrator.sol\":10030:10068  pending > 0 || user.rewardLockedUp > 0 */\n      dup1\n      tag_280\n      jumpi\n      pop\n        /* \"FAANGOrchestrator.sol\":10067:10068  0 */\n      0x00\n        /* \"FAANGOrchestrator.sol\":10045:10049  user */\n      dup3\n        /* \"FAANGOrchestrator.sol\":10045:10064  user.rewardLockedUp */\n      0x02\n      add\n      sload\n        /* \"FAANGOrchestrator.sol\":10045:10068  user.rewardLockedUp > 0 */\n      gt\n        /* \"FAANGOrchestrator.sol\":10030:10068  pending > 0 || user.rewardLockedUp > 0 */\n    tag_280:\n        /* \"FAANGOrchestrator.sol\":10026:10335  if (pending > 0 || user.rewardLockedUp > 0) {... */\n      iszero\n      tag_281\n      jumpi\n        /* \"FAANGOrchestrator.sol\":10084:10104  uint256 totalRewards */\n      0x00\n        /* \"FAANGOrchestrator.sol\":10107:10139  pending.add(user.rewardLockedUp) */\n      tag_282\n        /* \"FAANGOrchestrator.sol\":10119:10123  user */\n      dup4\n        /* \"FAANGOrchestrator.sol\":10119:10138  user.rewardLockedUp */\n      0x02\n      add\n      sload\n        /* \"FAANGOrchestrator.sol\":10107:10114  pending */\n      dup4\n        /* \"FAANGOrchestrator.sol\":10107:10118  pending.add */\n      tag_166\n      swap1\n        /* \"FAANGOrchestrator.sol\":10107:10139  pending.add(user.rewardLockedUp) */\n      swap2\n      swap1\n      0xffffffff\n      and\n      jump\t// in\n    tag_282:\n        /* \"FAANGOrchestrator.sol\":10084:10139  uint256 totalRewards = pending.add(user.rewardLockedUp) */\n      swap1\n      pop\n        /* \"FAANGOrchestrator.sol\":10176:10177  0 */\n      0x00\n        /* \"FAANGOrchestrator.sol\":10154:10158  user */\n      dup4\n        /* \"FAANGOrchestrator.sol\":10154:10173  user.rewardLockedUp */\n      0x02\n      add\n        /* \"FAANGOrchestrator.sol\":10154:10177  user.rewardLockedUp = 0 */\n      dup2\n      swap1\n      sstore\n      pop\n        /* \"FAANGOrchestrator.sol\":10220:10263  safeFAANGTransfer(msg.sender, totalRewards) */\n      tag_283\n        /* \"FAANGOrchestrator.sol\":10238:10248  msg.sender */\n      caller\n        /* \"FAANGOrchestrator.sol\":10250:10262  totalRewards */\n      dup3\n        /* \"FAANGOrchestrator.sol\":10220:10237  safeFAANGTransfer */\n      tag_284\n        /* \"FAANGOrchestrator.sol\":10220:10263  safeFAANGTransfer(msg.sender, totalRewards) */\n      jump\t// in\n    tag_283:\n        /* \"FAANGOrchestrator.sol\":10277:10324  payReferralCommission(msg.sender, totalRewards) */\n      tag_285\n        /* \"FAANGOrchestrator.sol\":10299:10309  msg.sender */\n      caller\n        /* \"FAANGOrchestrator.sol\":10311:10323  totalRewards */\n      dup3\n        /* \"FAANGOrchestrator.sol\":10277:10298  payReferralCommission */\n      tag_286\n        /* \"FAANGOrchestrator.sol\":10277:10324  payReferralCommission(msg.sender, totalRewards) */\n      jump\t// in\n    tag_285:\n        /* \"FAANGOrchestrator.sol\":10026:10335  if (pending > 0 || user.rewardLockedUp > 0) {... */\n      pop\n    tag_281:\n        /* \"FAANGOrchestrator.sol\":9726:10341  function payOrLockupPendingFAANG(uint256 _pid) internal {... */\n      pop\n      pop\n      pop\n      pop\n      jump\t// out\n        /* \"SafeMath.sol\":1322:1456  function sub(uint256 a, uint256 b) internal pure returns (uint256) {... */\n    tag_135:\n        /* \"SafeMath.sol\":1380:1387  uint256 */\n      0x00\n        /* \"SafeMath.sol\":1406:1449  sub(a, b, 'SafeMath: subtraction overflow') */\n      tag_288\n        /* \"SafeMath.sol\":1410:1411  a */\n      dup4\n        /* \"SafeMath.sol\":1413:1414  b */\n      dup4\n        /* \"SafeMath.sol\":1406:1449  sub(a, b, 'SafeMath: subtraction overflow') */\n      mload(0x40)\n      dup1\n      0x40\n      add\n      0x40\n      mstore\n      dup1\n      0x1e\n      dup2\n      mstore\n      0x20\n      add\n      0x536166654d6174683a207375627472616374696f6e206f766572666c6f770000\n      dup2\n      mstore\n      pop\n        /* \"SafeMath.sol\":1406:1409  sub */\n      tag_289\n        /* \"SafeMath.sol\":1406:1449  sub(a, b, 'SafeMath: subtraction overflow') */\n      jump\t// in\n    tag_288:\n        /* \"SafeMath.sol\":1399:1449  return sub(a, b, 'SafeMath: subtraction overflow') */\n      swap1\n      pop\n        /* \"SafeMath.sol\":1322:1456  function sub(uint256 a, uint256 b) internal pure returns (uint256) {... */\n      swap3\n      swap2\n      pop\n      pop\n      jump\t// out\n        /* \"SafeBEP20.sol\":677:882  function safeTransfer(... */\n    tag_137:\n        /* \"SafeBEP20.sol\":789:875  _callOptionalReturn(token, abi.encodeWithSelector(token.transfer.selector, to, value)) */\n      tag_291\n        /* \"SafeBEP20.sol\":809:814  token */\n      dup4\n        /* \"SafeBEP20.sol\":839:862  token.transfer.selector */\n      shl(0xe0, 0xa9059cbb)\n        /* \"SafeBEP20.sol\":864:866  to */\n      dup5\n        /* \"SafeBEP20.sol\":868:873  value */\n      dup5\n        /* \"SafeBEP20.sol\":816:874  abi.encodeWithSelector(token.transfer.selector, to, value) */\n      add(0x24, mload(0x40))\n      dup1\n      dup4\n      0xffffffffffffffffffffffffffffffffffffffff\n      and\n      dup2\n      mstore\n      0x20\n      add\n      dup3\n      dup2\n      mstore\n      0x20\n      add\n      swap3\n      pop\n      pop\n      pop\n      mload(0x40)\n      0x20\n      dup2\n      dup4\n      sub\n      sub\n      dup2\n      mstore\n      swap1\n      0x40\n      mstore\n      swap1\n      not(0xffffffffffffffffffffffffffffffffffffffffffffffffffffffff)\n      and\n      0x20\n      dup3\n      add\n      dup1\n      mload\n      0xffffffffffffffffffffffffffffffffffffffffffffffffffffffff\n      dup4\n      dup2\n      dup4\n      and\n      or\n      dup4\n      mstore\n      pop\n      pop\n      pop\n      pop\n        /* \"SafeBEP20.sol\":789:808  _callOptionalReturn */\n      tag_292\n        /* \"SafeBEP20.sol\":789:875  _callOptionalReturn(token, abi.encodeWithSelector(token.transfer.selector, to, value)) */\n      jump\t// in\n    tag_291:\n        /* \"SafeBEP20.sol\":677:882  function safeTransfer(... */\n      pop\n      pop\n      pop\n      jump\t// out\n        /* \"SafeMath.sol\":2211:2670  function mul(uint256 a, uint256 b) internal pure returns (uint256) {... */\n    tag_140:\n        /* \"SafeMath.sol\":2269:2276  uint256 */\n      0x00\n        /* \"SafeMath.sol\":2515:2516  0 */\n      dup1\n        /* \"SafeMath.sol\":2510:2511  a */\n      dup4\n        /* \"SafeMath.sol\":2510:2516  a == 0 */\n      eq\n        /* \"SafeMath.sol\":2506:2551  if (a == 0) {... */\n      iszero\n      tag_294\n      jumpi\n        /* \"SafeMath.sol\":2539:2540  0 */\n      0x00\n        /* \"SafeMath.sol\":2532:2540  return 0 */\n      swap1\n      pop\n      jump(tag_293)\n        /* \"SafeMath.sol\":2506:2551  if (a == 0) {... */\n    tag_294:\n        /* \"SafeMath.sol\":2561:2570  uint256 c */\n      0x00\n        /* \"SafeMath.sol\":2577:2578  b */\n      dup3\n        /* \"SafeMath.sol\":2573:2574  a */\n      dup5\n        /* \"SafeMath.sol\":2573:2578  a * b */\n      mul\n        /* \"SafeMath.sol\":2561:2578  uint256 c = a * b */\n      swap1\n      pop\n        /* \"SafeMath.sol\":2605:2606  b */\n      dup3\n        /* \"SafeMath.sol\":2600:2601  a */\n      dup5\n        /* \"SafeMath.sol\":2596:2597  c */\n      dup3\n        /* \"SafeMath.sol\":2596:2601  c / a */\n      dup2\n      tag_295\n      jumpi\n      invalid\n    tag_295:\n      div\n        /* \"SafeMath.sol\":2596:2606  c / a == b */\n      eq\n        /* \"SafeMath.sol\":2588:2644  require(c / a == b, 'SafeMath: multiplication overflow') */\n      tag_296\n      jumpi\n      mload(0x40)\n      0x08c379a000000000000000000000000000000000000000000000000000000000\n      dup2\n      mstore\n      0x04\n      add\n      dup1\n      dup1\n      0x20\n      add\n      dup3\n      dup2\n      sub\n      dup3\n      mstore\n      0x21\n      dup2\n      mstore\n      0x20\n      add\n      dup1\n      data_9113bb53c2876a3805b2c9242029423fc540a728243ce887ab24c82cf119fba3\n      0x21\n      swap2\n      codecopy\n      0x40\n      add\n      swap2\n      pop\n      pop\n      mload(0x40)\n      dup1\n      swap2\n      sub\n      swap1\n      revert\n    tag_296:\n        /* \"SafeMath.sol\":2662:2663  c */\n      dup1\n        /* \"SafeMath.sol\":2655:2663  return c */\n      swap2\n      pop\n      pop\n        /* \"SafeMath.sol\":2211:2670  function mul(uint256 a, uint256 b) internal pure returns (uint256) {... */\n    tag_293:\n      swap3\n      swap2\n      pop\n      pop\n      jump\t// out\n        /* \"SafeMath.sol\":3132:3262  function div(uint256 a, uint256 b) internal pure returns (uint256) {... */\n    tag_141:\n        /* \"SafeMath.sol\":3190:3197  uint256 */\n      0x00\n        /* \"SafeMath.sol\":3216:3255  div(a, b, 'SafeMath: division by zero') */\n      tag_298\n        /* \"SafeMath.sol\":3220:3221  a */\n      dup4\n        /* \"SafeMath.sol\":3223:3224  b */\n      dup4\n        /* \"SafeMath.sol\":3216:3255  div(a, b, 'SafeMath: division by zero') */\n      mload(0x40)\n      dup1\n      0x40\n      add\n      0x40\n      mstore\n      dup1\n      0x1a\n      dup2\n      mstore\n      0x20\n      add\n      0x536166654d6174683a206469766973696f6e206279207a65726f000000000000\n      dup2\n      mstore\n      pop\n        /* \"SafeMath.sol\":3216:3219  div */\n      tag_299\n        /* \"SafeMath.sol\":3216:3255  div(a, b, 'SafeMath: division by zero') */\n      jump\t// in\n    tag_298:\n        /* \"SafeMath.sol\":3209:3255  return div(a, b, 'SafeMath: division by zero') */\n      swap1\n      pop\n        /* \"SafeMath.sol\":3132:3262  function div(uint256 a, uint256 b) internal pure returns (uint256) {... */\n      swap3\n      swap2\n      pop\n      pop\n      jump\t// out\n        /* \"SafeMath.sol\":875:1051  function add(uint256 a, uint256 b) internal pure returns (uint256) {... */\n    tag_166:\n        /* \"SafeMath.sol\":933:940  uint256 */\n      0x00\n        /* \"SafeMath.sol\":952:961  uint256 c */\n      dup1\n        /* \"SafeMath.sol\":968:969  b */\n      dup3\n        /* \"SafeMath.sol\":964:965  a */\n      dup5\n        /* \"SafeMath.sol\":964:969  a + b */\n      add\n        /* \"SafeMath.sol\":952:969  uint256 c = a + b */\n      swap1\n      pop\n        /* \"SafeMath.sol\":992:993  a */\n      dup4\n        /* \"SafeMath.sol\":987:988  c */\n      dup2\n        /* \"SafeMath.sol\":987:993  c >= a */\n      lt\n      iszero\n        /* \"SafeMath.sol\":979:1025  require(c >= a, 'SafeMath: addition overflow') */\n      tag_301\n      jumpi\n      mload(0x40)\n      0x08c379a000000000000000000000000000000000000000000000000000000000\n      dup2\n      mstore\n      0x04\n      add\n      dup1\n      dup1\n      0x20\n      add\n      dup3\n      dup2\n      sub\n      dup3\n      mstore\n      0x1b\n      dup2\n      mstore\n      0x20\n      add\n      dup1\n      0x536166654d6174683a206164646974696f6e206f766572666c6f770000000000\n      dup2\n      mstore\n      pop\n      0x20\n      add\n      swap2\n      pop\n      pop\n      mload(0x40)\n      dup1\n      swap2\n      sub\n      swap1\n      revert\n    tag_301:\n        /* \"SafeMath.sol\":1043:1044  c */\n      dup1\n        /* \"SafeMath.sol\":1036:1044  return c */\n      swap2\n      pop\n      pop\n        /* \"SafeMath.sol\":875:1051  function add(uint256 a, uint256 b) internal pure returns (uint256) {... */\n      swap3\n      swap2\n      pop\n      pop\n      jump\t// out\n        /* \"Context.sol\":780:876  function _msgSender() internal view returns (address payable) {... */\n    tag_180:\n        /* \"Context.sol\":825:840  address payable */\n      0x00\n        /* \"Context.sol\":859:869  msg.sender */\n      caller\n        /* \"Context.sol\":852:869  return msg.sender */\n      swap1\n      pop\n        /* \"Context.sol\":780:876  function _msgSender() internal view returns (address payable) {... */\n      swap1\n      jump\t// out\n        /* \"FAANGOrchestrator.sol\":11768:12109  function setReferral(address _user, address _referrer) internal {... */\n    tag_218:\n        /* \"FAANGOrchestrator.sol\":11867:11876  _referrer */\n      dup1\n        /* \"FAANGOrchestrator.sol\":11846:11877  _referrer == address(_referrer) */\n      0xffffffffffffffffffffffffffffffffffffffff\n      and\n        /* \"FAANGOrchestrator.sol\":11846:11855  _referrer */\n      dup2\n        /* \"FAANGOrchestrator.sol\":11846:11877  _referrer == address(_referrer) */\n      0xffffffffffffffffffffffffffffffffffffffff\n      and\n      eq\n        /* \"FAANGOrchestrator.sol\":11846:11911  _referrer == address(_referrer) && referrers[_user] == address(0) */\n      dup1\n      iszero\n      tag_304\n      jumpi\n      pop\n        /* \"FAANGOrchestrator.sol\":11909:11910  0 */\n      0x00\n        /* \"FAANGOrchestrator.sol\":11881:11911  referrers[_user] == address(0) */\n      0xffffffffffffffffffffffffffffffffffffffff\n      and\n        /* \"FAANGOrchestrator.sol\":11881:11890  referrers */\n      0x07\n        /* \"FAANGOrchestrator.sol\":11881:11897  referrers[_user] */\n      0x00\n        /* \"FAANGOrchestrator.sol\":11891:11896  _user */\n      dup5\n        /* \"FAANGOrchestrator.sol\":11881:11897  referrers[_user] */\n      0xffffffffffffffffffffffffffffffffffffffff\n      and\n      0xffffffffffffffffffffffffffffffffffffffff\n      and\n      dup2\n      mstore\n      0x20\n      add\n      swap1\n      dup2\n      mstore\n      0x20\n      add\n      0x00\n      keccak256\n      0x00\n      swap1\n      sload\n      swap1\n      0x0100\n      exp\n      swap1\n      div\n      0xffffffffffffffffffffffffffffffffffffffff\n      and\n        /* \"FAANGOrchestrator.sol\":11881:11911  referrers[_user] == address(0) */\n      0xffffffffffffffffffffffffffffffffffffffff\n      and\n      eq\n        /* \"FAANGOrchestrator.sol\":11846:11911  _referrer == address(_referrer) && referrers[_user] == address(0) */\n    tag_304:\n        /* \"FAANGOrchestrator.sol\":11846:11938  _referrer == address(_referrer) && referrers[_user] == address(0) && _referrer != address(0) */\n      dup1\n      iszero\n      tag_305\n      jumpi\n      pop\n        /* \"FAANGOrchestrator.sol\":11936:11937  0 */\n      0x00\n        /* \"FAANGOrchestrator.sol\":11915:11938  _referrer != address(0) */\n      0xffffffffffffffffffffffffffffffffffffffff\n      and\n        /* \"FAANGOrchestrator.sol\":11915:11924  _referrer */\n      dup2\n        /* \"FAANGOrchestrator.sol\":11915:11938  _referrer != address(0) */\n      0xffffffffffffffffffffffffffffffffffffffff\n      and\n      eq\n      iszero\n        /* \"FAANGOrchestrator.sol\":11846:11938  _referrer == address(_referrer) && referrers[_user] == address(0) && _referrer != address(0) */\n    tag_305:\n        /* \"FAANGOrchestrator.sol\":11846:11960  _referrer == address(_referrer) && referrers[_user] == address(0) && _referrer != address(0) && _referrer != _user */\n      dup1\n      iszero\n      tag_306\n      jumpi\n      pop\n        /* \"FAANGOrchestrator.sol\":11955:11960  _user */\n      dup2\n        /* \"FAANGOrchestrator.sol\":11942:11960  _referrer != _user */\n      0xffffffffffffffffffffffffffffffffffffffff\n      and\n        /* \"FAANGOrchestrator.sol\":11942:11951  _referrer */\n      dup2\n        /* \"FAANGOrchestrator.sol\":11942:11960  _referrer != _user */\n      0xffffffffffffffffffffffffffffffffffffffff\n      and\n      eq\n      iszero\n        /* \"FAANGOrchestrator.sol\":11846:11960  _referrer == address(_referrer) && referrers[_user] == address(0) && _referrer != address(0) && _referrer != _user */\n    tag_306:\n        /* \"FAANGOrchestrator.sol\":11842:12103  if (_referrer == address(_referrer) && referrers[_user] == address(0) && _referrer != address(0) && _referrer != _user) {... */\n      iszero\n      tag_307\n      jumpi\n        /* \"FAANGOrchestrator.sol\":11995:12004  _referrer */\n      dup1\n        /* \"FAANGOrchestrator.sol\":11976:11985  referrers */\n      0x07\n        /* \"FAANGOrchestrator.sol\":11976:11992  referrers[_user] */\n      0x00\n        /* \"FAANGOrchestrator.sol\":11986:11991  _user */\n      dup5\n        /* \"FAANGOrchestrator.sol\":11976:11992  referrers[_user] */\n      0xffffffffffffffffffffffffffffffffffffffff\n      and\n      0xffffffffffffffffffffffffffffffffffffffff\n      and\n      dup2\n      mstore\n      0x20\n      add\n      swap1\n      dup2\n      mstore\n      0x20\n      add\n      0x00\n      keccak256\n      0x00\n        /* \"FAANGOrchestrator.sol\":11976:12004  referrers[_user] = _referrer */\n      0x0100\n      exp\n      dup2\n      sload\n      dup2\n      0xffffffffffffffffffffffffffffffffffffffff\n      mul\n      not\n      and\n      swap1\n      dup4\n      0xffffffffffffffffffffffffffffffffffffffff\n      and\n      mul\n      or\n      swap1\n      sstore\n      pop\n        /* \"FAANGOrchestrator.sol\":12046:12047  1 */\n      0x01\n        /* \"FAANGOrchestrator.sol\":12018:12031  referredCount */\n      0x08\n        /* \"FAANGOrchestrator.sol\":12018:12042  referredCount[_referrer] */\n      0x00\n        /* \"FAANGOrchestrator.sol\":12032:12041  _referrer */\n      dup4\n        /* \"FAANGOrchestrator.sol\":12018:12042  referredCount[_referrer] */\n      0xffffffffffffffffffffffffffffffffffffffff\n      and\n      0xffffffffffffffffffffffffffffffffffffffff\n      and\n      dup2\n      mstore\n      0x20\n      add\n      swap1\n      dup2\n      mstore\n      0x20\n      add\n      0x00\n      keccak256\n      0x00\n        /* \"FAANGOrchestrator.sol\":12018:12047  referredCount[_referrer] += 1 */\n      dup3\n      dup3\n      sload\n      add\n      swap3\n      pop\n      pop\n      dup2\n      swap1\n      sstore\n      pop\n        /* \"FAANGOrchestrator.sol\":12082:12091  _referrer */\n      dup1\n        /* \"FAANGOrchestrator.sol\":12066:12092  Referral(_user, _referrer) */\n      0xffffffffffffffffffffffffffffffffffffffff\n      and\n        /* \"FAANGOrchestrator.sol\":12075:12080  _user */\n      dup3\n        /* \"FAANGOrchestrator.sol\":12066:12092  Referral(_user, _referrer) */\n      0xffffffffffffffffffffffffffffffffffffffff\n      and\n      0x9d05414fb79fac216c15606de5cc06664e91a254e4d5f57664d5f1beaf7fb7ef\n      mload(0x40)\n      mload(0x40)\n      dup1\n      swap2\n      sub\n      swap1\n      log3\n        /* \"FAANGOrchestrator.sol\":11842:12103  if (_referrer == address(_referrer) && referrers[_user] == address(0) && _referrer != address(0) && _referrer != _user) {... */\n    tag_307:\n        /* \"FAANGOrchestrator.sol\":11768:12109  function setReferral(address _user, address _referrer) internal {... */\n      pop\n      pop\n      jump\t// out\n        /* \"SafeBEP20.sol\":888:1129  function safeTransferFrom(... */\n    tag_221:\n        /* \"SafeBEP20.sol\":1026:1122  _callOptionalReturn(token, abi.encodeWithSelector(token.transferFrom.selector, from, to, value)) */\n      tag_309\n        /* \"SafeBEP20.sol\":1046:1051  token */\n      dup5\n        /* \"SafeBEP20.sol\":1076:1103  token.transferFrom.selector */\n      shl(0xe0, 0x23b872dd)\n        /* \"SafeBEP20.sol\":1105:1109  from */\n      dup6\n        /* \"SafeBEP20.sol\":1111:1113  to */\n      dup6\n        /* \"SafeBEP20.sol\":1115:1120  value */\n      dup6\n        /* \"SafeBEP20.sol\":1053:1121  abi.encodeWithSelector(token.transferFrom.selector, from, to, value) */\n      add(0x24, mload(0x40))\n      dup1\n      dup5\n      0xffffffffffffffffffffffffffffffffffffffff\n      and\n      dup2\n      mstore\n      0x20\n      add\n      dup4\n      0xffffffffffffffffffffffffffffffffffffffff\n      and\n      dup2\n      mstore\n      0x20\n      add\n      dup3\n      dup2\n      mstore\n      0x20\n      add\n      swap4\n      pop\n      pop\n      pop\n      pop\n      mload(0x40)\n      0x20\n      dup2\n      dup4\n      sub\n      sub\n      dup2\n      mstore\n      swap1\n      0x40\n      mstore\n      swap1\n      not(0xffffffffffffffffffffffffffffffffffffffffffffffffffffffff)\n      and\n      0x20\n      dup3\n      add\n      dup1\n      mload\n      0xffffffffffffffffffffffffffffffffffffffffffffffffffffffff\n      dup4\n      dup2\n      dup4\n      and\n      or\n      dup4\n      mstore\n      pop\n      pop\n      pop\n      pop\n        /* \"SafeBEP20.sol\":1026:1045  _callOptionalReturn */\n      tag_292\n        /* \"SafeBEP20.sol\":1026:1122  _callOptionalReturn(token, abi.encodeWithSelector(token.transferFrom.selector, from, to, value)) */\n      jump\t// in\n    tag_309:\n        /* \"SafeBEP20.sol\":888:1129  function safeTransferFrom(... */\n      pop\n      pop\n      pop\n      pop\n      jump\t// out\n        /* \"Ownable.sol\":2192:2417  function _transferOwnership(address newOwner) internal {... */\n    tag_273:\n        /* \"Ownable.sol\":2285:2286  0 */\n      0x00\n        /* \"Ownable.sol\":2265:2287  newOwner != address(0) */\n      0xffffffffffffffffffffffffffffffffffffffff\n      and\n        /* \"Ownable.sol\":2265:2273  newOwner */\n      dup2\n        /* \"Ownable.sol\":2265:2287  newOwner != address(0) */\n      0xffffffffffffffffffffffffffffffffffffffff\n      and\n      eq\n      iszero\n        /* \"Ownable.sol\":2257:2330  require(newOwner != address(0), 'Ownable: new owner is the zero address') */\n      tag_311\n      jumpi\n      mload(0x40)\n      0x08c379a000000000000000000000000000000000000000000000000000000000\n      dup2\n      mstore\n      0x04\n      add\n      dup1\n      dup1\n      0x20\n      add\n      dup3\n      dup2\n      sub\n      dup3\n      mstore\n      0x26\n      dup2\n      mstore\n      0x20\n      add\n      dup1\n      data_245f15ff17f551913a7a18385165551503906a406f905ac1c2437281a7cd0cfe\n      0x26\n      swap2\n      codecopy\n      0x40\n      add\n      swap2\n      pop\n      pop\n      mload(0x40)\n      dup1\n      swap2\n      sub\n      swap1\n      revert\n    tag_311:\n        /* \"Ownable.sol\":2374:2382  newOwner */\n      dup1\n        /* \"Ownable.sol\":2345:2383  OwnershipTransferred(_owner, newOwner) */\n      0xffffffffffffffffffffffffffffffffffffffff\n      and\n        /* \"Ownable.sol\":2366:2372  _owner */\n      0x00\n      dup1\n      sload\n      swap1\n      0x0100\n      exp\n      swap1\n      div\n      0xffffffffffffffffffffffffffffffffffffffff\n      and\n        /* \"Ownable.sol\":2345:2383  OwnershipTransferred(_owner, newOwner) */\n      0xffffffffffffffffffffffffffffffffffffffff\n      and\n      0x8be0079c531659141344cd1fd0a4f28419497f9722a3daafe3b4186f6b6457e0\n      mload(0x40)\n      mload(0x40)\n      dup1\n      swap2\n      sub\n      swap1\n      log3\n        /* \"Ownable.sol\":2402:2410  newOwner */\n      dup1\n        /* \"Ownable.sol\":2393:2399  _owner */\n      0x00\n      dup1\n        /* \"Ownable.sol\":2393:2410  _owner = newOwner */\n      0x0100\n      exp\n      dup2\n      sload\n      dup2\n      0xffffffffffffffffffffffffffffffffffffffff\n      mul\n      not\n      and\n      swap1\n      dup4\n      0xffffffffffffffffffffffffffffffffffffffff\n      and\n      mul\n      or\n      swap1\n      sstore\n      pop\n        /* \"Ownable.sol\":2192:2417  function _transferOwnership(address newOwner) internal {... */\n      pop\n      jump\t// out\n        /* \"FAANGOrchestrator.sol\":10913:11337  function safeFAANGTransfer(address _to, uint256 _amount) internal {... */\n    tag_284:\n        /* \"FAANGOrchestrator.sol\":10989:11005  uint256 FAANGBal */\n      0x00\n        /* \"FAANGOrchestrator.sol\":11008:11013  FAANG */\n      0x02\n      0x00\n      swap1\n      sload\n      swap1\n      0x0100\n      exp\n      swap1\n      div\n      0xffffffffffffffffffffffffffffffffffffffff\n      and\n        /* \"FAANGOrchestrator.sol\":11008:11023  FAANG.balanceOf */\n      0xffffffffffffffffffffffffffffffffffffffff\n      and\n      0x70a08231\n        /* \"FAANGOrchestrator.sol\":11032:11036  this */\n      address\n        /* \"FAANGOrchestrator.sol\":11008:11038  FAANG.balanceOf(address(this)) */\n      mload(0x40)\n      dup3\n      0xffffffff\n      and\n      0xe0\n      shl\n      dup2\n      mstore\n      0x04\n      add\n      dup1\n      dup3\n      0xffffffffffffffffffffffffffffffffffffffff\n      and\n      dup2\n      mstore\n      0x20\n      add\n      swap2\n      pop\n      pop\n      0x20\n      mload(0x40)\n      dup1\n      dup4\n      sub\n      dup2\n      dup7\n      dup1\n      extcodesize\n      iszero\n      dup1\n      iszero\n      tag_313\n      jumpi\n      0x00\n      dup1\n      revert\n    tag_313:\n      pop\n      gas\n      staticcall\n      iszero\n      dup1\n      iszero\n      tag_315\n      jumpi\n      returndatasize\n      0x00\n      dup1\n      returndatacopy\n      revert(0x00, returndatasize)\n    tag_315:\n      pop\n      pop\n      pop\n      pop\n      mload(0x40)\n      returndatasize\n      0x20\n      dup2\n      lt\n      iszero\n      tag_316\n      jumpi\n      0x00\n      dup1\n      revert\n    tag_316:\n      dup2\n      add\n      swap1\n      dup1\n      dup1\n      mload\n      swap1\n      0x20\n      add\n      swap1\n      swap3\n      swap2\n      swap1\n      pop\n      pop\n      pop\n        /* \"FAANGOrchestrator.sol\":10989:11038  uint256 FAANGBal = FAANG.balanceOf(address(this)) */\n      swap1\n      pop\n        /* \"FAANGOrchestrator.sol\":11048:11068  bool transferSuccess */\n      0x00\n        /* \"FAANGOrchestrator.sol\":11100:11108  FAANGBal */\n      dup2\n        /* \"FAANGOrchestrator.sol\":11090:11097  _amount */\n      dup4\n        /* \"FAANGOrchestrator.sol\":11090:11108  _amount > FAANGBal */\n      gt\n        /* \"FAANGOrchestrator.sol\":11086:11259  if (_amount > FAANGBal) {... */\n      iszero\n      tag_317\n      jumpi\n        /* \"FAANGOrchestrator.sol\":11142:11147  FAANG */\n      0x02\n      0x00\n      swap1\n      sload\n      swap1\n      0x0100\n      exp\n      swap1\n      div\n      0xffffffffffffffffffffffffffffffffffffffff\n      and\n        /* \"FAANGOrchestrator.sol\":11142:11156  FAANG.transfer */\n      0xffffffffffffffffffffffffffffffffffffffff\n      and\n      0xa9059cbb\n        /* \"FAANGOrchestrator.sol\":11157:11160  _to */\n      dup6\n        /* \"FAANGOrchestrator.sol\":11162:11170  FAANGBal */\n      dup5\n        /* \"FAANGOrchestrator.sol\":11142:11171  FAANG.transfer(_to, FAANGBal) */\n      mload(0x40)\n      dup4\n      0xffffffff\n      and\n      0xe0\n      shl\n      dup2\n      mstore\n      0x04\n      add\n      dup1\n      dup4\n      0xffffffffffffffffffffffffffffffffffffffff\n      and\n      dup2\n      mstore\n      0x20\n      add\n      dup3\n      dup2\n      mstore\n      0x20\n      add\n      swap3\n      pop\n      pop\n      pop\n      0x20\n      mload(0x40)\n      dup1\n      dup4\n      sub\n      dup2\n      0x00\n      dup8\n      dup1\n      extcodesize\n      iszero\n      dup1\n      iszero\n      tag_318\n      jumpi\n      0x00\n      dup1\n      revert\n    tag_318:\n      pop\n      gas\n      call\n      iszero\n      dup1\n      iszero\n      tag_320\n      jumpi\n      returndatasize\n      0x00\n      dup1\n      returndatacopy\n      revert(0x00, returndatasize)\n    tag_320:\n      pop\n      pop\n      pop\n      pop\n      mload(0x40)\n      returndatasize\n      0x20\n      dup2\n      lt\n      iszero\n      tag_321\n      jumpi\n      0x00\n      dup1\n      revert\n    tag_321:\n      dup2\n      add\n      swap1\n      dup1\n      dup1\n      mload\n      swap1\n      0x20\n      add\n      swap1\n      swap3\n      swap2\n      swap1\n      pop\n      pop\n      pop\n        /* \"FAANGOrchestrator.sol\":11124:11171  transferSuccess = FAANG.transfer(_to, FAANGBal) */\n      swap1\n      pop\n        /* \"FAANGOrchestrator.sol\":11086:11259  if (_amount > FAANGBal) {... */\n      jump(tag_322)\n    tag_317:\n        /* \"FAANGOrchestrator.sol\":11220:11225  FAANG */\n      0x02\n      0x00\n      swap1\n      sload\n      swap1\n      0x0100\n      exp\n      swap1\n      div\n      0xffffffffffffffffffffffffffffffffffffffff\n      and\n        /* \"FAANGOrchestrator.sol\":11220:11234  FAANG.transfer */\n      0xffffffffffffffffffffffffffffffffffffffff\n      and\n      0xa9059cbb\n        /* \"FAANGOrchestrator.sol\":11235:11238  _to */\n      dup6\n        /* \"FAANGOrchestrator.sol\":11240:11247  _amount */\n      dup6\n        /* \"FAANGOrchestrator.sol\":11220:11248  FAANG.transfer(_to, _amount) */\n      mload(0x40)\n      dup4\n      0xffffffff\n      and\n      0xe0\n      shl\n      dup2\n      mstore\n      0x04\n      add\n      dup1\n      dup4\n      0xffffffffffffffffffffffffffffffffffffffff\n      and\n      dup2\n      mstore\n      0x20\n      add\n      dup3\n      dup2\n      mstore\n      0x20\n      add\n      swap3\n      pop\n      pop\n      pop\n      0x20\n      mload(0x40)\n      dup1\n      dup4\n      sub\n      dup2\n      0x00\n      dup8\n      dup1\n      extcodesize\n      iszero\n      dup1\n      iszero\n      tag_323\n      jumpi\n      0x00\n      dup1\n      revert\n    tag_323:\n      pop\n      gas\n      call\n      iszero\n      dup1\n      iszero\n      tag_325\n      jumpi\n      returndatasize\n      0x00\n      dup1\n      returndatacopy\n      revert(0x00, returndatasize)\n    tag_325:\n      pop\n      pop\n      pop\n      pop\n      mload(0x40)\n      returndatasize\n      0x20\n      dup2\n      lt\n      iszero\n      tag_326\n      jumpi\n      0x00\n      dup1\n      revert\n    tag_326:\n      dup2\n      add\n      swap1\n      dup1\n      dup1\n      mload\n      swap1\n      0x20\n      add\n      swap1\n      swap3\n      swap2\n      swap1\n      pop\n      pop\n      pop\n        /* \"FAANGOrchestrator.sol\":11202:11248  transferSuccess = FAANG.transfer(_to, _amount) */\n      swap1\n      pop\n        /* \"FAANGOrchestrator.sol\":11086:11259  if (_amount > FAANGBal) {... */\n    tag_322:\n        /* \"FAANGOrchestrator.sol\":11276:11291  transferSuccess */\n      dup1\n        /* \"FAANGOrchestrator.sol\":11268:11330  require(transferSuccess, \"safeFAANGTransfer: Transfer failed\") */\n      tag_327\n      jumpi\n      mload(0x40)\n      0x08c379a000000000000000000000000000000000000000000000000000000000\n      dup2\n      mstore\n      0x04\n      add\n      dup1\n      dup1\n      0x20\n      add\n      dup3\n      dup2\n      sub\n      dup3\n      mstore\n      0x22\n      dup2\n      mstore\n      0x20\n      add\n      dup1\n      data_0af1ecc8a0a9059321e6e9096707f7910b3abfe5564edbaef43f6589e816f5be\n      0x22\n      swap2\n      codecopy\n      0x40\n      add\n      swap2\n      pop\n      pop\n      mload(0x40)\n      dup1\n      swap2\n      sub\n      swap1\n      revert\n    tag_327:\n        /* \"FAANGOrchestrator.sol\":10913:11337  function safeFAANGTransfer(address _to, uint256 _amount) internal {... */\n      pop\n      pop\n      pop\n      pop\n      jump\t// out\n        /* \"FAANGOrchestrator.sol\":12340:12742  function payReferralCommission(address _user, uint256 _pending) internal {... */\n    tag_286:\n        /* \"FAANGOrchestrator.sol\":12423:12439  address referrer */\n      0x00\n        /* \"FAANGOrchestrator.sol\":12442:12460  getReferral(_user) */\n      tag_329\n        /* \"FAANGOrchestrator.sol\":12454:12459  _user */\n      dup4\n        /* \"FAANGOrchestrator.sol\":12442:12453  getReferral */\n      tag_56\n        /* \"FAANGOrchestrator.sol\":12442:12460  getReferral(_user) */\n      jump\t// in\n    tag_329:\n        /* \"FAANGOrchestrator.sol\":12423:12460  address referrer = getReferral(_user) */\n      swap1\n      pop\n        /* \"FAANGOrchestrator.sol\":12494:12495  0 */\n      0x00\n        /* \"FAANGOrchestrator.sol\":12474:12496  referrer != address(0) */\n      0xffffffffffffffffffffffffffffffffffffffff\n      and\n        /* \"FAANGOrchestrator.sol\":12474:12482  referrer */\n      dup2\n        /* \"FAANGOrchestrator.sol\":12474:12496  referrer != address(0) */\n      0xffffffffffffffffffffffffffffffffffffffff\n      and\n      eq\n      iszero\n        /* \"FAANGOrchestrator.sol\":12474:12517  referrer != address(0) && referrer != _user */\n      dup1\n      iszero\n      tag_330\n      jumpi\n      pop\n        /* \"FAANGOrchestrator.sol\":12512:12517  _user */\n      dup3\n        /* \"FAANGOrchestrator.sol\":12500:12517  referrer != _user */\n      0xffffffffffffffffffffffffffffffffffffffff\n      and\n        /* \"FAANGOrchestrator.sol\":12500:12508  referrer */\n      dup2\n        /* \"FAANGOrchestrator.sol\":12500:12517  referrer != _user */\n      0xffffffffffffffffffffffffffffffffffffffff\n      and\n      eq\n      iszero\n        /* \"FAANGOrchestrator.sol\":12474:12517  referrer != address(0) && referrer != _user */\n    tag_330:\n        /* \"FAANGOrchestrator.sol\":12474:12535  referrer != address(0) && referrer != _user && refBonusBP > 0 */\n      dup1\n      iszero\n      tag_331\n      jumpi\n      pop\n        /* \"FAANGOrchestrator.sol\":12534:12535  0 */\n      0x00\n        /* \"FAANGOrchestrator.sol\":12521:12531  refBonusBP */\n      sload(0x06)\n        /* \"FAANGOrchestrator.sol\":12521:12535  refBonusBP > 0 */\n      gt\n        /* \"FAANGOrchestrator.sol\":12474:12535  referrer != address(0) && referrer != _user && refBonusBP > 0 */\n    tag_331:\n        /* \"FAANGOrchestrator.sol\":12470:12736  if (referrer != address(0) && referrer != _user && refBonusBP > 0) {... */\n      iszero\n      tag_332\n      jumpi\n        /* \"FAANGOrchestrator.sol\":12551:12573  uint256 refBonusEarned */\n      0x00\n        /* \"FAANGOrchestrator.sol\":12576:12611  _pending.mul(refBonusBP).div(10000) */\n      tag_333\n        /* \"FAANGOrchestrator.sol\":12605:12610  10000 */\n      0x2710\n        /* \"FAANGOrchestrator.sol\":12576:12600  _pending.mul(refBonusBP) */\n      tag_334\n        /* \"FAANGOrchestrator.sol\":12589:12599  refBonusBP */\n      sload(0x06)\n        /* \"FAANGOrchestrator.sol\":12576:12584  _pending */\n      dup7\n        /* \"FAANGOrchestrator.sol\":12576:12588  _pending.mul */\n      tag_140\n      swap1\n        /* \"FAANGOrchestrator.sol\":12576:12600  _pending.mul(refBonusBP) */\n      swap2\n      swap1\n      0xffffffff\n      and\n      jump\t// in\n    tag_334:\n        /* \"FAANGOrchestrator.sol\":12576:12604  _pending.mul(refBonusBP).div */\n      tag_141\n      swap1\n        /* \"FAANGOrchestrator.sol\":12576:12611  _pending.mul(refBonusBP).div(10000) */\n      swap2\n      swap1\n      0xffffffff\n      and\n      jump\t// in\n    tag_333:\n        /* \"FAANGOrchestrator.sol\":12551:12611  uint256 refBonusEarned = _pending.mul(refBonusBP).div(10000) */\n      swap1\n      pop\n        /* \"FAANGOrchestrator.sol\":12625:12630  FAANG */\n      0x02\n      0x00\n      swap1\n      sload\n      swap1\n      0x0100\n      exp\n      swap1\n      div\n      0xffffffffffffffffffffffffffffffffffffffff\n      and\n        /* \"FAANGOrchestrator.sol\":12625:12635  FAANG.mint */\n      0xffffffffffffffffffffffffffffffffffffffff\n      and\n      0x40c10f19\n        /* \"FAANGOrchestrator.sol\":12636:12644  referrer */\n      dup4\n        /* \"FAANGOrchestrator.sol\":12646:12660  refBonusEarned */\n      dup4\n        /* \"FAANGOrchestrator.sol\":12625:12661  FAANG.mint(referrer, refBonusEarned) */\n      mload(0x40)\n      dup4\n      0xffffffff\n      and\n      0xe0\n      shl\n      dup2\n      mstore\n      0x04\n      add\n      dup1\n      dup4\n      0xffffffffffffffffffffffffffffffffffffffff\n      and\n      dup2\n      mstore\n      0x20\n      add\n      dup3\n      dup2\n      mstore\n      0x20\n      add\n      swap3\n      pop\n      pop\n      pop\n      0x00\n      mload(0x40)\n      dup1\n      dup4\n      sub\n      dup2\n      0x00\n      dup8\n      dup1\n      extcodesize\n      iszero\n      dup1\n      iszero\n      tag_335\n      jumpi\n      0x00\n      dup1\n      revert\n    tag_335:\n      pop\n      gas\n      call\n      iszero\n      dup1\n      iszero\n      tag_337\n      jumpi\n      returndatasize\n      0x00\n      dup1\n      returndatacopy\n      revert(0x00, returndatasize)\n    tag_337:\n      pop\n      pop\n      pop\n      pop\n        /* \"FAANGOrchestrator.sol\":12700:12708  referrer */\n      dup2\n        /* \"FAANGOrchestrator.sol\":12680:12725  ReferralPaid(_user, referrer, refBonusEarned) */\n      0xffffffffffffffffffffffffffffffffffffffff\n      and\n        /* \"FAANGOrchestrator.sol\":12693:12698  _user */\n      dup5\n        /* \"FAANGOrchestrator.sol\":12680:12725  ReferralPaid(_user, referrer, refBonusEarned) */\n      0xffffffffffffffffffffffffffffffffffffffff\n      and\n      0x0a721ab4682ceb61c7e4d264ef879fc419a6d764b136e7d96ef54b2053c75673\n        /* \"FAANGOrchestrator.sol\":12710:12724  refBonusEarned */\n      dup4\n        /* \"FAANGOrchestrator.sol\":12680:12725  ReferralPaid(_user, referrer, refBonusEarned) */\n      mload(0x40)\n      dup1\n      dup3\n      dup2\n      mstore\n      0x20\n      add\n      swap2\n      pop\n      pop\n      mload(0x40)\n      dup1\n      swap2\n      sub\n      swap1\n      log3\n        /* \"FAANGOrchestrator.sol\":12470:12736  if (referrer != address(0) && referrer != _user && refBonusBP > 0) {... */\n      pop\n    tag_332:\n        /* \"FAANGOrchestrator.sol\":12340:12742  function payReferralCommission(address _user, uint256 _pending) internal {... */\n      pop\n      pop\n      pop\n      jump\t// out\n        /* \"SafeMath.sol\":1747:1964  function sub(... */\n    tag_289:\n        /* \"SafeMath.sol\":1863:1870  uint256 */\n      0x00\n        /* \"SafeMath.sol\":1895:1896  a */\n      dup4\n        /* \"SafeMath.sol\":1890:1891  b */\n      dup4\n        /* \"SafeMath.sol\":1890:1896  b <= a */\n      gt\n      iszero\n        /* \"SafeMath.sol\":1898:1910  errorMessage */\n      dup3\n        /* \"SafeMath.sol\":1882:1911  require(b <= a, errorMessage) */\n      swap1\n      tag_339\n      jumpi\n      mload(0x40)\n      0x08c379a000000000000000000000000000000000000000000000000000000000\n      dup2\n      mstore\n      0x04\n      add\n      dup1\n      dup1\n      0x20\n      add\n      dup3\n      dup2\n      sub\n      dup3\n      mstore\n      dup4\n      dup2\n      dup2\n      mload\n      dup2\n      mstore\n      0x20\n      add\n      swap2\n      pop\n      dup1\n      mload\n      swap1\n      0x20\n      add\n      swap1\n      dup1\n      dup4\n      dup4\n      0x00\n    tag_340:\n      dup4\n      dup2\n      lt\n      iszero\n      tag_342\n      jumpi\n      dup1\n      dup3\n      add\n      mload\n      dup2\n      dup5\n      add\n      mstore\n      0x20\n      dup2\n      add\n      swap1\n      pop\n      jump(tag_340)\n    tag_342:\n      pop\n      pop\n      pop\n      pop\n      swap1\n      pop\n      swap1\n      dup2\n      add\n      swap1\n      0x1f\n      and\n      dup1\n      iszero\n      tag_343\n      jumpi\n      dup1\n      dup3\n      sub\n      dup1\n      mload\n      0x01\n      dup4\n      0x20\n      sub\n      0x0100\n      exp\n      sub\n      not\n      and\n      dup2\n      mstore\n      0x20\n      add\n      swap2\n      pop\n    tag_343:\n      pop\n      swap3\n      pop\n      pop\n      pop\n      mload(0x40)\n      dup1\n      swap2\n      sub\n      swap1\n      revert\n    tag_339:\n      pop\n        /* \"SafeMath.sol\":1921:1930  uint256 c */\n      0x00\n        /* \"SafeMath.sol\":1937:1938  b */\n      dup4\n        /* \"SafeMath.sol\":1933:1934  a */\n      dup6\n        /* \"SafeMath.sol\":1933:1938  a - b */\n      sub\n        /* \"SafeMath.sol\":1921:1938  uint256 c = a - b */\n      swap1\n      pop\n        /* \"SafeMath.sol\":1956:1957  c */\n      dup1\n        /* \"SafeMath.sol\":1949:1957  return c */\n      swap2\n      pop\n      pop\n        /* \"SafeMath.sol\":1747:1964  function sub(... */\n      swap4\n      swap3\n      pop\n      pop\n      pop\n      jump\t// out\n        /* \"SafeBEP20.sol\":3145:3908  function _callOptionalReturn(IBEP20 token, bytes memory data) private {... */\n    tag_292:\n        /* \"SafeBEP20.sol\":3564:3587  bytes memory returndata */\n      0x60\n        /* \"SafeBEP20.sol\":3590:3659  address(token).functionCall(data, 'SafeBEP20: low-level call failed') */\n      tag_345\n        /* \"SafeBEP20.sol\":3618:3622  data */\n      dup3\n        /* \"SafeBEP20.sol\":3590:3659  address(token).functionCall(data, 'SafeBEP20: low-level call failed') */\n      mload(0x40)\n      dup1\n      0x40\n      add\n      0x40\n      mstore\n      dup1\n      0x20\n      dup2\n      mstore\n      0x20\n      add\n      0x5361666542455032303a206c6f772d6c6576656c2063616c6c206661696c6564\n      dup2\n      mstore\n      pop\n        /* \"SafeBEP20.sol\":3598:3603  token */\n      dup6\n        /* \"SafeBEP20.sol\":3590:3617  address(token).functionCall */\n      0xffffffffffffffffffffffffffffffffffffffff\n      and\n      tag_346\n      swap1\n        /* \"SafeBEP20.sol\":3590:3659  address(token).functionCall(data, 'SafeBEP20: low-level call failed') */\n      swap3\n      swap2\n      swap1\n      0xffffffff\n      and\n      jump\t// in\n    tag_345:\n        /* \"SafeBEP20.sol\":3564:3659  bytes memory returndata = address(token).functionCall(data, 'SafeBEP20: low-level call failed') */\n      swap1\n      pop\n        /* \"SafeBEP20.sol\":3693:3694  0 */\n      0x00\n        /* \"SafeBEP20.sol\":3673:3683  returndata */\n      dup2\n        /* \"SafeBEP20.sol\":3673:3690  returndata.length */\n      mload\n        /* \"SafeBEP20.sol\":3673:3694  returndata.length > 0 */\n      gt\n        /* \"SafeBEP20.sol\":3669:3902  if (returndata.length > 0) {... */\n      iszero\n      tag_347\n      jumpi\n        /* \"SafeBEP20.sol\":3825:3835  returndata */\n      dup1\n        /* \"SafeBEP20.sol\":3814:3844  abi.decode(returndata, (bool)) */\n      dup1\n      0x20\n      add\n      swap1\n      mload\n      0x20\n      dup2\n      lt\n      iszero\n      tag_348\n      jumpi\n      0x00\n      dup1\n      revert\n    tag_348:\n      dup2\n      add\n      swap1\n      dup1\n      dup1\n      mload\n      swap1\n      0x20\n      add\n      swap1\n      swap3\n      swap2\n      swap1\n      pop\n      pop\n      pop\n        /* \"SafeBEP20.sol\":3806:3891  require(abi.decode(returndata, (bool)), 'SafeBEP20: BEP20 operation did not succeed') */\n      tag_349\n      jumpi\n      mload(0x40)\n      0x08c379a000000000000000000000000000000000000000000000000000000000\n      dup2\n      mstore\n      0x04\n      add\n      dup1\n      dup1\n      0x20\n      add\n      dup3\n      dup2\n      sub\n      dup3\n      mstore\n      0x2a\n      dup2\n      mstore\n      0x20\n      add\n      dup1\n      data_21c3364d55537bf20eb8f05374e9f53f47299e1883c412f1f1135f398f2c2082\n      0x2a\n      swap2\n      codecopy\n      0x40\n      add\n      swap2\n      pop\n      pop\n      mload(0x40)\n      dup1\n      swap2\n      sub\n      swap1\n      revert\n    tag_349:\n        /* \"SafeBEP20.sol\":3669:3902  if (returndata.length > 0) {... */\n    tag_347:\n        /* \"SafeBEP20.sol\":3145:3908  function _callOptionalReturn(IBEP20 token, bytes memory data) private {... */\n      pop\n      pop\n      pop\n      jump\t// out\n        /* \"SafeMath.sol\":3744:4046  function div(... */\n    tag_299:\n        /* \"SafeMath.sol\":3860:3867  uint256 */\n      0x00\n        /* \"SafeMath.sol\":3891:3892  0 */\n      dup1\n        /* \"SafeMath.sol\":3887:3888  b */\n      dup4\n        /* \"SafeMath.sol\":3887:3892  b > 0 */\n      gt\n        /* \"SafeMath.sol\":3894:3906  errorMessage */\n      dup3\n        /* \"SafeMath.sol\":3879:3907  require(b > 0, errorMessage) */\n      swap1\n      tag_351\n      jumpi\n      mload(0x40)\n      0x08c379a000000000000000000000000000000000000000000000000000000000\n      dup2\n      mstore\n      0x04\n      add\n      dup1\n      dup1\n      0x20\n      add\n      dup3\n      dup2\n      sub\n      dup3\n      mstore\n      dup4\n      dup2\n      dup2\n      mload\n      dup2\n      mstore\n      0x20\n      add\n      swap2\n      pop\n      dup1\n      mload\n      swap1\n      0x20\n      add\n      swap1\n      dup1\n      dup4\n      dup4\n      0x00\n    tag_352:\n      dup4\n      dup2\n      lt\n      iszero\n      tag_354\n      jumpi\n      dup1\n      dup3\n      add\n      mload\n      dup2\n      dup5\n      add\n      mstore\n      0x20\n      dup2\n      add\n      swap1\n      pop\n      jump(tag_352)\n    tag_354:\n      pop\n      pop\n      pop\n      pop\n      swap1\n      pop\n      swap1\n      dup2\n      add\n      swap1\n      0x1f\n      and\n      dup1\n      iszero\n      tag_355\n      jumpi\n      dup1\n      dup3\n      sub\n      dup1\n      mload\n      0x01\n      dup4\n      0x20\n      sub\n      0x0100\n      exp\n      sub\n      not\n      and\n      dup2\n      mstore\n      0x20\n      add\n      swap2\n      pop\n    tag_355:\n      pop\n      swap3\n      pop\n      pop\n      pop\n      mload(0x40)\n      dup1\n      swap2\n      sub\n      swap1\n      revert\n    tag_351:\n      pop\n        /* \"SafeMath.sol\":3917:3926  uint256 c */\n      0x00\n        /* \"SafeMath.sol\":3933:3934  b */\n      dup4\n        /* \"SafeMath.sol\":3929:3930  a */\n      dup6\n        /* \"SafeMath.sol\":3929:3934  a / b */\n      dup2\n      tag_356\n      jumpi\n      invalid\n    tag_356:\n      div\n        /* \"SafeMath.sol\":3917:3934  uint256 c = a / b */\n      swap1\n      pop\n        /* \"SafeMath.sol\":4038:4039  c */\n      dup1\n        /* \"SafeMath.sol\":4031:4039  return c */\n      swap2\n      pop\n      pop\n        /* \"SafeMath.sol\":3744:4046  function div(... */\n      swap4\n      swap3\n      pop\n      pop\n      pop\n      jump\t// out\n        /* \"Address.sol\":3790:4014  function functionCall(... */\n    tag_346:\n        /* \"Address.sol\":3923:3935  bytes memory */\n      0x60\n        /* \"Address.sol\":3954:4007  _functionCallWithValue(target, data, 0, errorMessage) */\n      tag_358\n        /* \"Address.sol\":3977:3983  target */\n      dup5\n        /* \"Address.sol\":3985:3989  data */\n      dup5\n        /* \"Address.sol\":3991:3992  0 */\n      0x00\n        /* \"Address.sol\":3994:4006  errorMessage */\n      dup6\n        /* \"Address.sol\":3954:3976  _functionCallWithValue */\n      tag_359\n        /* \"Address.sol\":3954:4007  _functionCallWithValue(target, data, 0, errorMessage) */\n      jump\t// in\n    tag_358:\n        /* \"Address.sol\":3947:4007  return _functionCallWithValue(target, data, 0, errorMessage) */\n      swap1\n      pop\n        /* \"Address.sol\":3790:4014  function functionCall(... */\n      swap4\n      swap3\n      pop\n      pop\n      pop\n      jump\t// out\n        /* \"Address.sol\":5235:6229  function _functionCallWithValue(... */\n    tag_359:\n        /* \"Address.sol\":5403:5415  bytes memory */\n      0x60\n        /* \"Address.sol\":5435:5453  isContract(target) */\n      tag_361\n        /* \"Address.sol\":5446:5452  target */\n      dup6\n        /* \"Address.sol\":5435:5445  isContract */\n      tag_362\n        /* \"Address.sol\":5435:5453  isContract(target) */\n      jump\t// in\n    tag_361:\n        /* \"Address.sol\":5427:5487  require(isContract(target), 'Address: call to non-contract') */\n      tag_363\n      jumpi\n      mload(0x40)\n      0x08c379a000000000000000000000000000000000000000000000000000000000\n      dup2\n      mstore\n      0x04\n      add\n      dup1\n      dup1\n      0x20\n      add\n      dup3\n      dup2\n      sub\n      dup3\n      mstore\n      0x1d\n      dup2\n      mstore\n      0x20\n      add\n      dup1\n      0x416464726573733a2063616c6c20746f206e6f6e2d636f6e7472616374000000\n      dup2\n      mstore\n      pop\n      0x20\n      add\n      swap2\n      pop\n      pop\n      mload(0x40)\n      dup1\n      swap2\n      sub\n      swap1\n      revert\n    tag_363:\n        /* \"Address.sol\":5558:5570  bool success */\n      0x00\n        /* \"Address.sol\":5572:5595  bytes memory returndata */\n      0x60\n        /* \"Address.sol\":5599:5605  target */\n      dup7\n        /* \"Address.sol\":5599:5610  target.call */\n      0xffffffffffffffffffffffffffffffffffffffff\n      and\n        /* \"Address.sol\":5618:5626  weiValue */\n      dup6\n        /* \"Address.sol\":5628:5632  data */\n      dup8\n        /* \"Address.sol\":5599:5633  target.call{value: weiValue}(data) */\n      mload(0x40)\n      dup1\n      dup3\n      dup1\n      mload\n      swap1\n      0x20\n      add\n      swap1\n      dup1\n      dup4\n      dup4\n    tag_364:\n      0x20\n      dup4\n      lt\n      tag_366\n      jumpi\n      dup1\n      mload\n      dup3\n      mstore\n      0x20\n      dup3\n      add\n      swap2\n      pop\n      0x20\n      dup2\n      add\n      swap1\n      pop\n      0x20\n      dup4\n      sub\n      swap3\n      pop\n      jump(tag_364)\n    tag_366:\n      0x01\n      dup4\n      0x20\n      sub\n      0x0100\n      exp\n      sub\n      dup1\n      not\n      dup3\n      mload\n      and\n      dup2\n      dup5\n      mload\n      and\n      dup1\n      dup3\n      or\n      dup6\n      mstore\n      pop\n      pop\n      pop\n      pop\n      pop\n      pop\n      swap1\n      pop\n      add\n      swap2\n      pop\n      pop\n      0x00\n      mload(0x40)\n      dup1\n      dup4\n      sub\n      dup2\n      dup6\n      dup8\n      gas\n      call\n      swap3\n      pop\n      pop\n      pop\n      returndatasize\n      dup1\n      0x00\n      dup2\n      eq\n      tag_369\n      jumpi\n      mload(0x40)\n      swap2\n      pop\n      and(add(returndatasize, 0x3f), not(0x1f))\n      dup3\n      add\n      0x40\n      mstore\n      returndatasize\n      dup3\n      mstore\n      returndatasize\n      0x00\n      0x20\n      dup5\n      add\n      returndatacopy\n      jump(tag_368)\n    tag_369:\n      0x60\n      swap2\n      pop\n    tag_368:\n      pop\n        /* \"Address.sol\":5557:5633  (bool success, bytes memory returndata) = target.call{value: weiValue}(data) */\n      swap2\n      pop\n      swap2\n      pop\n        /* \"Address.sol\":5647:5654  success */\n      dup2\n        /* \"Address.sol\":5643:6223  if (success) {... */\n      iszero\n      tag_370\n      jumpi\n        /* \"Address.sol\":5677:5687  returndata */\n      dup1\n        /* \"Address.sol\":5670:5687  return returndata */\n      swap3\n      pop\n      pop\n      pop\n      jump(tag_360)\n        /* \"Address.sol\":5643:6223  if (success) {... */\n    tag_370:\n        /* \"Address.sol\":5808:5809  0 */\n      0x00\n        /* \"Address.sol\":5788:5798  returndata */\n      dup2\n        /* \"Address.sol\":5788:5805  returndata.length */\n      mload\n        /* \"Address.sol\":5788:5809  returndata.length > 0 */\n      gt\n        /* \"Address.sol\":5784:6213  if (returndata.length > 0) {... */\n      iszero\n      tag_372\n      jumpi\n        /* \"Address.sol\":6046:6056  returndata */\n      dup1\n        /* \"Address.sol\":6040:6057  mload(returndata) */\n      mload\n        /* \"Address.sol\":6106:6121  returndata_size */\n      dup1\n        /* \"Address.sol\":6093:6103  returndata */\n      dup3\n        /* \"Address.sol\":6089:6091  32 */\n      0x20\n        /* \"Address.sol\":6085:6104  add(32, returndata) */\n      add\n        /* \"Address.sol\":6078:6122  revert(add(32, returndata), returndata_size) */\n      revert\n        /* \"Address.sol\":5995:6140  {... */\n    tag_372:\n        /* \"Address.sol\":6185:6197  errorMessage */\n      dup4\n        /* \"Address.sol\":6178:6198  revert(errorMessage) */\n      mload(0x40)\n      0x08c379a000000000000000000000000000000000000000000000000000000000\n      dup2\n      mstore\n      0x04\n      add\n      dup1\n      dup1\n      0x20\n      add\n      dup3\n      dup2\n      sub\n      dup3\n      mstore\n      dup4\n      dup2\n      dup2\n      mload\n      dup2\n      mstore\n      0x20\n      add\n      swap2\n      pop\n      dup1\n      mload\n      swap1\n      0x20\n      add\n      swap1\n      dup1\n      dup4\n      dup4\n      0x00\n    tag_374:\n      dup4\n      dup2\n      lt\n      iszero\n      tag_376\n      jumpi\n      dup1\n      dup3\n      add\n      mload\n      dup2\n      dup5\n      add\n      mstore\n      0x20\n      dup2\n      add\n      swap1\n      pop\n      jump(tag_374)\n    tag_376:\n      pop\n      pop\n      pop\n      pop\n      swap1\n      pop\n      swap1\n      dup2\n      add\n      swap1\n      0x1f\n      and\n      dup1\n      iszero\n      tag_377\n      jumpi\n      dup1\n      dup3\n      sub\n      dup1\n      mload\n      0x01\n      dup4\n      0x20\n      sub\n      0x0100\n      exp\n      sub\n      not\n      and\n      dup2\n      mstore\n      0x20\n      add\n      swap2\n      pop\n    tag_377:\n      pop\n      swap3\n      pop\n      pop\n      pop\n      mload(0x40)\n      dup1\n      swap2\n      sub\n      swap1\n      revert\n        /* \"Address.sol\":5235:6229  function _functionCallWithValue(... */\n    tag_360:\n      swap5\n      swap4\n      pop\n      pop\n      pop\n      pop\n      jump\t// out\n        /* \"Address.sol\":718:1348  function isContract(address account) internal view returns (bool) {... */\n    tag_362:\n        /* \"Address.sol\":778:782  bool */\n      0x00\n        /* \"Address.sol\":1036:1052  bytes32 codehash */\n      dup1\n        /* \"Address.sol\":1062:1081  bytes32 accountHash */\n      0x00\n        /* \"Address.sol\":1084:1150  0xc5d2460186f7233c927e7db2dcc703c0e500b653ca82273b7bfad8045d85a470 */\n      0xc5d2460186f7233c927e7db2dcc703c0e500b653ca82273b7bfad8045d85a470\n        /* \"Address.sol\":1062:1150  bytes32 accountHash = 0xc5d2460186f7233c927e7db2dcc703c0e500b653ca82273b7bfad8045d85a470 */\n      0x00\n      shl\n      swap1\n      pop\n        /* \"Address.sol\":1263:1270  account */\n      dup4\n        /* \"Address.sol\":1251:1271  extcodehash(account) */\n      extcodehash\n        /* \"Address.sol\":1239:1271  codehash := extcodehash(account) */\n      swap2\n      pop\n        /* \"Address.sol\":1310:1321  accountHash */\n      dup1\n        /* \"Address.sol\":1298:1306  codehash */\n      dup3\n        /* \"Address.sol\":1298:1321  codehash != accountHash */\n      eq\n      iszero\n        /* \"Address.sol\":1298:1340  codehash != accountHash && codehash != 0x0 */\n      dup1\n      iszero\n      tag_379\n      jumpi\n      pop\n        /* \"Address.sol\":1337:1340  0x0 */\n      0x00\n        /* \"Address.sol\":1325:1340  codehash != 0x0 */\n      dup1\n      shl\n        /* \"Address.sol\":1325:1333  codehash */\n      dup3\n        /* \"Address.sol\":1325:1340  codehash != 0x0 */\n      eq\n      iszero\n        /* \"Address.sol\":1298:1340  codehash != accountHash && codehash != 0x0 */\n    tag_379:\n        /* \"Address.sol\":1290:1341  return (codehash != accountHash && codehash != 0x0) */\n      swap3\n      pop\n      pop\n      pop\n        /* \"Address.sol\":718:1348  function isContract(address account) internal view returns (bool) {... */\n      swap2\n      swap1\n      pop\n      jump\t// out\n    stop\n    data_0af1ecc8a0a9059321e6e9096707f7910b3abfe5564edbaef43f6589e816f5be 736166654641414e475472616e736665723a205472616e73666572206661696c6564\n    data_0ecf01aeb804f0ae223eada9d16893a9009cdcbe208d348705dc613f9a9f5331 6164643a20696e76616c6964206465706f7369742066656520626173697320706f696e7473\n    data_20a6bce988e8b6ff5852ac398e27735d1d8155a9d79e532ec3c3da13f504a6a4 757064617465526566426f6e757350657263656e743a20696e76616c696420726566657272616c20626f6e757320626173697320706f696e7473\n    data_21c3364d55537bf20eb8f05374e9f53f47299e1883c412f1f1135f398f2c2082 5361666542455032303a204245503230206f7065726174696f6e20646964206e6f742073756363656564\n    data_245f15ff17f551913a7a18385165551503906a406f905ac1c2437281a7cd0cfe 4f776e61626c653a206e6577206f776e657220697320746865207a65726f2061646472657373\n    data_542d191555ea619dedb1489efd71948659c57b11c6c1a84d1c1ce6e7c8074aad 6465706f7369743a20496e76616c69642072656665727265722061646472657373\n    data_9113bb53c2876a3805b2c9242029423fc540a728243ce887ab24c82cf119fba3 536166654d6174683a206d756c7469706c69636174696f6e206f766572666c6f77\n    data_9353dfb5d58f0da66015bbcadafa0686e2e7b7226db2e603088e70c7012680cf 7365743a20696e76616c6964206465706f7369742066656520626173697320706f696e7473\n    data_9d1a761c817eae8410d2081a433553cad78dcf01ebb754f58addc464260ba484 757064617465526566426f6e757350657263656e743a2073616d6520626f6e757320627020736574\n\n    auxdata: 0xa26469706673582212204a15b8553fe01118225e26fb364e1e53a7ac06c0e2018fa3b35e82275984794a64736f6c634300060c0033\n}\n","bytecode":{"linkReferences":{},"object":"608060405260c86006556000600b553480156200001b57600080fd5b506040516200395a3803806200395a833981810160405260808110156200004157600080fd5b81019080805190602001909291908051906020019092919080519060200190929190805190602001909291905050506000620000826200020a60201b60201c565b9050806000806101000a81548173ffffffffffffffffffffffffffffffffffffffff021916908373ffffffffffffffffffffffffffffffffffffffff1602179055508073ffffffffffffffffffffffffffffffffffffffff16600073ffffffffffffffffffffffffffffffffffffffff167f8be0079c531659141344cd1fd0a4f28419497f9722a3daafe3b4186f6b6457e060405160405180910390a3506001808190555083600260006101000a81548173ffffffffffffffffffffffffffffffffffffffff021916908373ffffffffffffffffffffffffffffffffffffffff16021790555082600360006101000a81548173ffffffffffffffffffffffffffffffffffffffff021916908373ffffffffffffffffffffffffffffffffffffffff16021790555081600460006101000a81548173ffffffffffffffffffffffffffffffffffffffff021916908373ffffffffffffffffffffffffffffffffffffffff16021790555080600c81905550670de0b6b3a76400006005819055505050505062000212565b600033905090565b61373880620002226000396000f3fe608060405234801561001057600080fd5b50600436106101e55760003560e01c806364ed743b1161010f5780638dbb1e3a116100a2578063c100710d11610071578063c100710d146107f0578063d0d41fe114610852578063d963842214610896578063f2fde38b146108e8576101e5565b80638dbb1e3a146106be5780638dbdbe6d1461070a57806391bb809c1461076257806393f1a40b14610780576101e5565b806384e82a33116100de57806384e82a33146105c05780638705fcd4146106285780638aa285501461066c5780638da5cb5b1461068a576101e5565b806364ed743b146105365780636621d3ba1461056457806366f685ea14610598578063715018a6146105b6576101e5565b80633f7b06d8116101875780634a3b68cc116101565780634a3b68cc1461046257806351eb05a6146104d05780635312ea8e146104fe578063630b5ba11461052c576101e5565b80633f7b06d81461038057806341275358146103d8578063441a3e701461040c57806348cd4cb114610444576101e5565b8063267c3338116101c3578063267c33381461029e5780633a22df78146102bc5780633ad10ef6146102de5780633b0f0f2f14610312576101e5565b8063081e3eda146101ea5780631526fe271461020857806317caf6f114610280575b600080fd5b6101f261092c565b6040518082815260200191505060405180910390f35b6102346004803603602081101561021e57600080fd5b8101908080359060200190929190505050610939565b604051808673ffffffffffffffffffffffffffffffffffffffff1681526020018581526020018481526020018381526020018261ffff1681526020019550505050505060405180910390f35b6102886109aa565b6040518082815260200191505060405180910390f35b6102a66109b0565b6040518082815260200191505060405180910390f35b6102c46109b6565b604051808261ffff16815260200191505060405180910390f35b6102e66109bc565b604051808273ffffffffffffffffffffffffffffffffffffffff16815260200191505060405180910390f35b6103546004803603602081101561032857600080fd5b81019080803573ffffffffffffffffffffffffffffffffffffffff1690602001909291905050506109e2565b604051808273ffffffffffffffffffffffffffffffffffffffff16815260200191505060405180910390f35b6103c26004803603602081101561039657600080fd5b81019080803573ffffffffffffffffffffffffffffffffffffffff169060200190929190505050610a4b565b6040518082815260200191505060405180910390f35b6103e0610a63565b604051808273ffffffffffffffffffffffffffffffffffffffff16815260200191505060405180910390f35b6104426004803603604081101561042257600080fd5b810190808035906020019092919080359060200190929190505050610a89565b005b61044c610d17565b6040518082815260200191505060405180910390f35b6104a46004803603602081101561047857600080fd5b81019080803573ffffffffffffffffffffffffffffffffffffffff169060200190929190505050610d1d565b604051808273ffffffffffffffffffffffffffffffffffffffff16815260200191505060405180910390f35b6104fc600480360360208110156104e657600080fd5b8101908080359060200190929190505050610d50565b005b61052a6004803603602081101561051457600080fd5b81019080803590602001909291905050506110ab565b005b610534611267565b005b6105626004803603602081101561054c57600080fd5b8101908080359060200190929190505050611294565b005b61056c611467565b604051808273ffffffffffffffffffffffffffffffffffffffff16815260200191505060405180910390f35b6105a061148d565b6040518082815260200191505060405180910390f35b6105be611493565b005b610626600480360360808110156105d657600080fd5b8101908080359060200190929190803573ffffffffffffffffffffffffffffffffffffffff169060200190929190803561ffff169060200190929190803515159060200190929190505050611619565b005b61066a6004803603602081101561063e57600080fd5b81019080803573ffffffffffffffffffffffffffffffffffffffff16906020019092919050505061187f565b005b610674611986565b6040518082815260200191505060405180910390f35b61069261198b565b604051808273ffffffffffffffffffffffffffffffffffffffff16815260200191505060405180910390f35b6106f4600480360360408110156106d457600080fd5b8101908080359060200190929190803590602001909291905050506119b4565b6040518082815260200191505060405180910390f35b6107606004803603606081101561072057600080fd5b810190808035906020019092919080359060200190929190803573ffffffffffffffffffffffffffffffffffffffff1690602001909291905050506119e4565b005b61076a611e0d565b6040518082815260200191505060405180910390f35b6107cc6004803603604081101561079657600080fd5b8101908080359060200190929190803573ffffffffffffffffffffffffffffffffffffffff169060200190929190505050611e19565b60405180848152602001838152602001828152602001935050505060405180910390f35b61083c6004803603604081101561080657600080fd5b8101908080359060200190929190803573ffffffffffffffffffffffffffffffffffffffff169060200190929190505050611e50565b6040518082815260200191505060405180910390f35b6108946004803603602081101561086857600080fd5b81019080803573ffffffffffffffffffffffffffffffffffffffff169060200190929190505050612096565b005b6108e6600480360360808110156108ac57600080fd5b810190808035906020019092919080359060200190929190803561ffff16906020019092919080351515906020019092919050505061219d565b005b61092a600480360360208110156108fe57600080fd5b81019080803573ffffffffffffffffffffffffffffffffffffffff169060200190929190505050612380565b005b6000600980549050905090565b6009818154811061094657fe5b90600052602060002090600502016000915090508060000160009054906101000a900473ffffffffffffffffffffffffffffffffffffffff16908060010154908060020154908060030154908060040160009054906101000a900461ffff16905085565b600b5481565b60055481565b6107d081565b600360009054906101000a900473ffffffffffffffffffffffffffffffffffffffff1681565b6000600760008373ffffffffffffffffffffffffffffffffffffffff1673ffffffffffffffffffffffffffffffffffffffff16815260200190815260200160002060009054906101000a900473ffffffffffffffffffffffffffffffffffffffff169050919050565b60086020528060005260406000206000915090505481565b600460009054906101000a900473ffffffffffffffffffffffffffffffffffffffff1681565b60026001541415610b02576040517f08c379a000000000000000000000000000000000000000000000000000000000815260040180806020018281038252601f8152602001807f5265656e7472616e637947756172643a207265656e7472616e742063616c6c0081525060200191505060405180910390fd5b6002600181905550600060098381548110610b1957fe5b906000526020600020906005020190506000600a600085815260200190815260200160002060003373ffffffffffffffffffffffffffffffffffffffff1673ffffffffffffffffffffffffffffffffffffffff16815260200190815260200160002090508281600001541015610bf7576040517f08c379a00000000000000000000000000000000000000000000000000000000081526004018080602001828103825260128152602001807f77697468647261773a206e6f7420676f6f64000000000000000000000000000081525060200191505060405180910390fd5b610c0084610d50565b610c0984612454565b6000831115610c8157610c2983826000015461256c90919063ffffffff16565b8160000181905550610c8033848460000160009054906101000a900473ffffffffffffffffffffffffffffffffffffffff1673ffffffffffffffffffffffffffffffffffffffff166125b69092919063ffffffff16565b5b610cb364e8d4a51000610ca58460030154846000015461265890919063ffffffff16565b6126de90919063ffffffff16565b8160010181905550833373ffffffffffffffffffffffffffffffffffffffff167ff279e6a1f5e320cca91135676d9cb6e44ca8a08c0b88342bcdb1144f6511b568856040518082815260200191505060405180910390a35050600180819055505050565b600c5481565b60076020528060005260406000206000915054906101000a900473ffffffffffffffffffffffffffffffffffffffff1681565b600060098281548110610d5f57fe5b9060005260206000209060050201905080600201544311610d8057506110a8565b60008160000160009054906101000a900473ffffffffffffffffffffffffffffffffffffffff1673ffffffffffffffffffffffffffffffffffffffff166370a08231306040518263ffffffff1660e01b8152600401808273ffffffffffffffffffffffffffffffffffffffff16815260200191505060206040518083038186803b158015610e0d57600080fd5b505afa158015610e21573d6000803e3d6000fd5b505050506040513d6020811015610e3757600080fd5b810190808051906020019092919050505090506000811480610e5d575060008260010154145b15610e725743826002018190555050506110a8565b6000610e828360020154436119b4565b90506000610ec5600b54610eb78660010154610ea96005548761265890919063ffffffff16565b61265890919063ffffffff16565b6126de90919063ffffffff16565b9050600260009054906101000a900473ffffffffffffffffffffffffffffffffffffffff1673ffffffffffffffffffffffffffffffffffffffff166340c10f19600360009054906101000a900473ffffffffffffffffffffffffffffffffffffffff16610f3c600a856126de90919063ffffffff16565b6040518363ffffffff1660e01b8152600401808373ffffffffffffffffffffffffffffffffffffffff16815260200182815260200192505050600060405180830381600087803b158015610f8f57600080fd5b505af1158015610fa3573d6000803e3d6000fd5b50505050600260009054906101000a900473ffffffffffffffffffffffffffffffffffffffff1673ffffffffffffffffffffffffffffffffffffffff166340c10f1930836040518363ffffffff1660e01b8152600401808373ffffffffffffffffffffffffffffffffffffffff16815260200182815260200192505050600060405180830381600087803b15801561103a57600080fd5b505af115801561104e573d6000803e3d6000fd5b5050505061109261107f8461107164e8d4a510008561265890919063ffffffff16565b6126de90919063ffffffff16565b856003015461272890919063ffffffff16565b8460030181905550438460020181905550505050505b50565b60026001541415611124576040517f08c379a000000000000000000000000000000000000000000000000000000000815260040180806020018281038252601f8152602001807f5265656e7472616e637947756172643a207265656e7472616e742063616c6c0081525060200191505060405180910390fd5b600260018190555060006009828154811061113b57fe5b906000526020600020906005020190506000600a600084815260200190815260200160002060003373ffffffffffffffffffffffffffffffffffffffff1673ffffffffffffffffffffffffffffffffffffffff1681526020019081526020016000209050600081600001549050600082600001819055506000826001018190555061120b33828560000160009054906101000a900473ffffffffffffffffffffffffffffffffffffffff1673ffffffffffffffffffffffffffffffffffffffff166125b69092919063ffffffff16565b833373ffffffffffffffffffffffffffffffffffffffff167fbb757047c2b5f3974fe26b7c10f732e7bce710b0952a71082702781e62ae0595836040518082815260200191505060405180910390a35050506001808190555050565b6000600980549050905060005b818110156112905761128581610d50565b806001019050611274565b5050565b61129c6127b0565b73ffffffffffffffffffffffffffffffffffffffff1660008054906101000a900473ffffffffffffffffffffffffffffffffffffffff1673ffffffffffffffffffffffffffffffffffffffff161461135c576040517f08c379a00000000000000000000000000000000000000000000000000000000081526004018080602001828103825260208152602001807f4f776e61626c653a2063616c6c6572206973206e6f7420746865206f776e657281525060200191505060405180910390fd5b6107d061ffff168111156113bb576040517f08c379a000000000000000000000000000000000000000000000000000000000815260040180806020018281038252603a8152602001806135ea603a913960400191505060405180910390fd5b600654811415611416576040517f08c379a00000000000000000000000000000000000000000000000000000000081526004018080602001828103825260288152602001806136db6028913960400191505060405180910390fd5b60006006549050816006819055507f3282b692bfebf5f35b198a229212cf532c72099026ab54c4b8665382d1086b3f8183604051808381526020018281526020019250505060405180910390a15050565b600260009054906101000a900473ffffffffffffffffffffffffffffffffffffffff1681565b60065481565b61149b6127b0565b73ffffffffffffffffffffffffffffffffffffffff1660008054906101000a900473ffffffffffffffffffffffffffffffffffffffff1673ffffffffffffffffffffffffffffffffffffffff161461155b576040517f08c379a00000000000000000000000000000000000000000000000000000000081526004018080602001828103825260208152602001807f4f776e61626c653a2063616c6c6572206973206e6f7420746865206f776e657281525060200191505060405180910390fd5b600073ffffffffffffffffffffffffffffffffffffffff1660008054906101000a900473ffffffffffffffffffffffffffffffffffffffff1673ffffffffffffffffffffffffffffffffffffffff167f8be0079c531659141344cd1fd0a4f28419497f9722a3daafe3b4186f6b6457e060405160405180910390a360008060006101000a81548173ffffffffffffffffffffffffffffffffffffffff021916908373ffffffffffffffffffffffffffffffffffffffff160217905550565b6116216127b0565b73ffffffffffffffffffffffffffffffffffffffff1660008054906101000a900473ffffffffffffffffffffffffffffffffffffffff1673ffffffffffffffffffffffffffffffffffffffff16146116e1576040517f08c379a00000000000000000000000000000000000000000000000000000000081526004018080602001828103825260208152602001807f4f776e61626c653a2063616c6c6572206973206e6f7420746865206f776e657281525060200191505060405180910390fd5b6127108261ffff161115611740576040517f08c379a00000000000000000000000000000000000000000000000000000000081526004018080602001828103825260258152602001806135c56025913960400191505060405180910390fd5b801561174f5761174e611267565b5b6000600c54431161176257600c54611764565b435b905061177b85600b5461272890919063ffffffff16565b600b8190555060096040518060a001604052808673ffffffffffffffffffffffffffffffffffffffff168152602001878152602001838152602001600081526020018561ffff16815250908060018154018082558091505060019003906000526020600020906005020160009091909190915060008201518160000160006101000a81548173ffffffffffffffffffffffffffffffffffffffff021916908373ffffffffffffffffffffffffffffffffffffffff16021790555060208201518160010155604082015181600201556060820151816003015560808201518160040160006101000a81548161ffff021916908361ffff16021790555050505050505050565b600460009054906101000a900473ffffffffffffffffffffffffffffffffffffffff1673ffffffffffffffffffffffffffffffffffffffff163373ffffffffffffffffffffffffffffffffffffffff1614611942576040517f08c379a00000000000000000000000000000000000000000000000000000000081526004018080602001828103825260188152602001807f736574466565416464726573733a20464f5242494444454e000000000000000081525060200191505060405180910390fd5b80600460006101000a81548173ffffffffffffffffffffffffffffffffffffffff021916908373ffffffffffffffffffffffffffffffffffffffff16021790555050565b600181565b60008060009054906101000a900473ffffffffffffffffffffffffffffffffffffffff16905090565b60006119dc60016119ce858561256c90919063ffffffff16565b61265890919063ffffffff16565b905092915050565b60026001541415611a5d576040517f08c379a000000000000000000000000000000000000000000000000000000000815260040180806020018281038252601f8152602001807f5265656e7472616e637947756172643a207265656e7472616e742063616c6c0081525060200191505060405180910390fd5b60026001819055508073ffffffffffffffffffffffffffffffffffffffff168173ffffffffffffffffffffffffffffffffffffffff1614611ae9576040517f08c379a00000000000000000000000000000000000000000000000000000000081526004018080602001828103825260218152602001806136746021913960400191505060405180910390fd5b600060098481548110611af857fe5b906000526020600020906005020190506000600a600086815260200190815260200160002060003373ffffffffffffffffffffffffffffffffffffffff1673ffffffffffffffffffffffffffffffffffffffff1681526020019081526020016000209050611b6585610d50565b611b6e85612454565b600084118015611bab5750600073ffffffffffffffffffffffffffffffffffffffff168373ffffffffffffffffffffffffffffffffffffffff1614155b8015611be357503373ffffffffffffffffffffffffffffffffffffffff168373ffffffffffffffffffffffffffffffffffffffff1614155b15611bf357611bf233846127b8565b5b6000841115611d7657611c4d3330868560000160009054906101000a900473ffffffffffffffffffffffffffffffffffffffff1673ffffffffffffffffffffffffffffffffffffffff16612a1f909392919063ffffffff16565b60008260040160009054906101000a900461ffff1661ffff161115611d55576000611cab612710611c9d8560040160009054906101000a900461ffff1661ffff168861265890919063ffffffff16565b6126de90919063ffffffff16565b9050611cd681611cc887856000015461272890919063ffffffff16565b61256c90919063ffffffff16565b8260000181905550611d4f600460009054906101000a900473ffffffffffffffffffffffffffffffffffffffff16828560000160009054906101000a900473ffffffffffffffffffffffffffffffffffffffff1673ffffffffffffffffffffffffffffffffffffffff166125b69092919063ffffffff16565b50611d75565b611d6c84826000015461272890919063ffffffff16565b81600001819055505b5b611da864e8d4a51000611d9a8460030154846000015461265890919063ffffffff16565b6126de90919063ffffffff16565b8160010181905550843373ffffffffffffffffffffffffffffffffffffffff167f90890809c654f11d6e72a28fa60149770a0d11ec6c92319d6ceb2bb0a4ea1a15866040518082815260200191505060405180910390a3505060018081905550505050565b670de0b6b3a764000081565b600a602052816000526040600020602052806000526040600020600091509150508060000154908060010154908060020154905083565b60008060098481548110611e6057fe5b906000526020600020906005020190506000600a600086815260200190815260200160002060008573ffffffffffffffffffffffffffffffffffffffff1673ffffffffffffffffffffffffffffffffffffffff168152602001908152602001600020905060008260030154905060008360000160009054906101000a900473ffffffffffffffffffffffffffffffffffffffff1673ffffffffffffffffffffffffffffffffffffffff166370a08231306040518263ffffffff1660e01b8152600401808273ffffffffffffffffffffffffffffffffffffffff16815260200191505060206040518083038186803b158015611f5a57600080fd5b505afa158015611f6e573d6000803e3d6000fd5b505050506040513d6020811015611f8457600080fd5b81019080805190602001909291905050509050836002015443118015611fab575060008114155b15612046576000611fc08560020154436119b4565b90506000612003600b54611ff58860010154611fe76005548761265890919063ffffffff16565b61265890919063ffffffff16565b6126de90919063ffffffff16565b90506120416120328461202464e8d4a510008561265890919063ffffffff16565b6126de90919063ffffffff16565b8561272890919063ffffffff16565b935050505b61208a836001015461207c64e8d4a5100061206e86886000015461265890919063ffffffff16565b6126de90919063ffffffff16565b61256c90919063ffffffff16565b94505050505092915050565b600360009054906101000a900473ffffffffffffffffffffffffffffffffffffffff1673ffffffffffffffffffffffffffffffffffffffff163373ffffffffffffffffffffffffffffffffffffffff1614612159576040517f08c379a00000000000000000000000000000000000000000000000000000000081526004018080602001828103825260188152602001807f736574446576416464726573733a20464f5242494444454e000000000000000081525060200191505060405180910390fd5b80600360006101000a81548173ffffffffffffffffffffffffffffffffffffffff021916908373ffffffffffffffffffffffffffffffffffffffff16021790555050565b6121a56127b0565b73ffffffffffffffffffffffffffffffffffffffff1660008054906101000a900473ffffffffffffffffffffffffffffffffffffffff1673ffffffffffffffffffffffffffffffffffffffff1614612265576040517f08c379a00000000000000000000000000000000000000000000000000000000081526004018080602001828103825260208152602001807f4f776e61626c653a2063616c6c6572206973206e6f7420746865206f776e657281525060200191505060405180910390fd5b6127108261ffff1611156122c4576040517f08c379a00000000000000000000000000000000000000000000000000000000081526004018080602001828103825260258152602001806136b66025913960400191505060405180910390fd5b80156122d3576122d2611267565b5b6123188361230a600987815481106122e757fe5b906000526020600020906005020160010154600b5461256c90919063ffffffff16565b61272890919063ffffffff16565b600b81905550826009858154811061232c57fe5b906000526020600020906005020160010181905550816009858154811061234f57fe5b906000526020600020906005020160040160006101000a81548161ffff021916908361ffff16021790555050505050565b6123886127b0565b73ffffffffffffffffffffffffffffffffffffffff1660008054906101000a900473ffffffffffffffffffffffffffffffffffffffff1673ffffffffffffffffffffffffffffffffffffffff1614612448576040517f08c379a00000000000000000000000000000000000000000000000000000000081526004018080602001828103825260208152602001807f4f776e61626c653a2063616c6c6572206973206e6f7420746865206f776e657281525060200191505060405180910390fd5b61245181612ae0565b50565b60006009828154811061246357fe5b906000526020600020906005020190506000600a600084815260200190815260200160002060003373ffffffffffffffffffffffffffffffffffffffff1673ffffffffffffffffffffffffffffffffffffffff16815260200190815260200160002090506000612511826001015461250364e8d4a510006124f58760030154876000015461265890919063ffffffff16565b6126de90919063ffffffff16565b61256c90919063ffffffff16565b90506000811180612526575060008260020154115b1561256657600061254483600201548361272890919063ffffffff16565b90506000836002018190555061255a3382612c23565b6125643382612ef7565b505b50505050565b60006125ae83836040518060400160405280601e81526020017f536166654d6174683a207375627472616374696f6e206f766572666c6f7700008152506130c4565b905092915050565b6126538363a9059cbb60e01b8484604051602401808373ffffffffffffffffffffffffffffffffffffffff16815260200182815260200192505050604051602081830303815290604052907bffffffffffffffffffffffffffffffffffffffffffffffffffffffff19166020820180517bffffffffffffffffffffffffffffffffffffffffffffffffffffffff8381831617835250505050613184565b505050565b60008083141561266b57600090506126d8565b600082840290508284828161267c57fe5b04146126d3576040517f08c379a00000000000000000000000000000000000000000000000000000000081526004018080602001828103825260218152602001806136956021913960400191505060405180910390fd5b809150505b92915050565b600061272083836040518060400160405280601a81526020017f536166654d6174683a206469766973696f6e206279207a65726f000000000000815250613273565b905092915050565b6000808284019050838110156127a6576040517f08c379a000000000000000000000000000000000000000000000000000000000815260040180806020018281038252601b8152602001807f536166654d6174683a206164646974696f6e206f766572666c6f77000000000081525060200191505060405180910390fd5b8091505092915050565b600033905090565b8073ffffffffffffffffffffffffffffffffffffffff168173ffffffffffffffffffffffffffffffffffffffff1614801561287e5750600073ffffffffffffffffffffffffffffffffffffffff16600760008473ffffffffffffffffffffffffffffffffffffffff1673ffffffffffffffffffffffffffffffffffffffff16815260200190815260200160002060009054906101000a900473ffffffffffffffffffffffffffffffffffffffff1673ffffffffffffffffffffffffffffffffffffffff16145b80156128b75750600073ffffffffffffffffffffffffffffffffffffffff168173ffffffffffffffffffffffffffffffffffffffff1614155b80156128ef57508173ffffffffffffffffffffffffffffffffffffffff168173ffffffffffffffffffffffffffffffffffffffff1614155b15612a1b5780600760008473ffffffffffffffffffffffffffffffffffffffff1673ffffffffffffffffffffffffffffffffffffffff16815260200190815260200160002060006101000a81548173ffffffffffffffffffffffffffffffffffffffff021916908373ffffffffffffffffffffffffffffffffffffffff1602179055506001600860008373ffffffffffffffffffffffffffffffffffffffff1673ffffffffffffffffffffffffffffffffffffffff168152602001908152602001600020600082825401925050819055508073ffffffffffffffffffffffffffffffffffffffff168273ffffffffffffffffffffffffffffffffffffffff167f9d05414fb79fac216c15606de5cc06664e91a254e4d5f57664d5f1beaf7fb7ef60405160405180910390a35b5050565b612ada846323b872dd60e01b858585604051602401808473ffffffffffffffffffffffffffffffffffffffff1681526020018373ffffffffffffffffffffffffffffffffffffffff1681526020018281526020019350505050604051602081830303815290604052907bffffffffffffffffffffffffffffffffffffffffffffffffffffffff19166020820180517bffffffffffffffffffffffffffffffffffffffffffffffffffffffff8381831617835250505050613184565b50505050565b600073ffffffffffffffffffffffffffffffffffffffff168173ffffffffffffffffffffffffffffffffffffffff161415612b66576040517f08c379a000000000000000000000000000000000000000000000000000000000815260040180806020018281038252602681526020018061364e6026913960400191505060405180910390fd5b8073ffffffffffffffffffffffffffffffffffffffff1660008054906101000a900473ffffffffffffffffffffffffffffffffffffffff1673ffffffffffffffffffffffffffffffffffffffff167f8be0079c531659141344cd1fd0a4f28419497f9722a3daafe3b4186f6b6457e060405160405180910390a3806000806101000a81548173ffffffffffffffffffffffffffffffffffffffff021916908373ffffffffffffffffffffffffffffffffffffffff16021790555050565b6000600260009054906101000a900473ffffffffffffffffffffffffffffffffffffffff1673ffffffffffffffffffffffffffffffffffffffff166370a08231306040518263ffffffff1660e01b8152600401808273ffffffffffffffffffffffffffffffffffffffff16815260200191505060206040518083038186803b158015612cae57600080fd5b505afa158015612cc2573d6000803e3d6000fd5b505050506040513d6020811015612cd857600080fd5b81019080805190602001909291905050509050600081831115612dca57600260009054906101000a900473ffffffffffffffffffffffffffffffffffffffff1673ffffffffffffffffffffffffffffffffffffffff1663a9059cbb85846040518363ffffffff1660e01b8152600401808373ffffffffffffffffffffffffffffffffffffffff16815260200182815260200192505050602060405180830381600087803b158015612d8857600080fd5b505af1158015612d9c573d6000803e3d6000fd5b505050506040513d6020811015612db257600080fd5b81019080805190602001909291905050509050612e9b565b600260009054906101000a900473ffffffffffffffffffffffffffffffffffffffff1673ffffffffffffffffffffffffffffffffffffffff1663a9059cbb85856040518363ffffffff1660e01b8152600401808373ffffffffffffffffffffffffffffffffffffffff16815260200182815260200192505050602060405180830381600087803b158015612e5d57600080fd5b505af1158015612e71573d6000803e3d6000fd5b505050506040513d6020811015612e8757600080fd5b810190808051906020019092919050505090505b80612ef1576040517f08c379a00000000000000000000000000000000000000000000000000000000081526004018080602001828103825260228152602001806135a36022913960400191505060405180910390fd5b50505050565b6000612f02836109e2565b9050600073ffffffffffffffffffffffffffffffffffffffff168173ffffffffffffffffffffffffffffffffffffffff1614158015612f6d57508273ffffffffffffffffffffffffffffffffffffffff168173ffffffffffffffffffffffffffffffffffffffff1614155b8015612f7b57506000600654115b156130bf576000612fab612710612f9d6006548661265890919063ffffffff16565b6126de90919063ffffffff16565b9050600260009054906101000a900473ffffffffffffffffffffffffffffffffffffffff1673ffffffffffffffffffffffffffffffffffffffff166340c10f1983836040518363ffffffff1660e01b8152600401808373ffffffffffffffffffffffffffffffffffffffff16815260200182815260200192505050600060405180830381600087803b15801561304057600080fd5b505af1158015613054573d6000803e3d6000fd5b505050508173ffffffffffffffffffffffffffffffffffffffff168473ffffffffffffffffffffffffffffffffffffffff167f0a721ab4682ceb61c7e4d264ef879fc419a6d764b136e7d96ef54b2053c75673836040518082815260200191505060405180910390a3505b505050565b6000838311158290613171576040517f08c379a00000000000000000000000000000000000000000000000000000000081526004018080602001828103825283818151815260200191508051906020019080838360005b8381101561313657808201518184015260208101905061311b565b50505050905090810190601f1680156131635780820380516001836020036101000a031916815260200191505b509250505060405180910390fd5b5060008385039050809150509392505050565b60606131e6826040518060400160405280602081526020017f5361666542455032303a206c6f772d6c6576656c2063616c6c206661696c65648152508573ffffffffffffffffffffffffffffffffffffffff166133399092919063ffffffff16565b905060008151111561326e5780806020019051602081101561320757600080fd5b810190808051906020019092919050505061326d576040517f08c379a000000000000000000000000000000000000000000000000000000000815260040180806020018281038252602a815260200180613624602a913960400191505060405180910390fd5b5b505050565b6000808311829061331f576040517f08c379a00000000000000000000000000000000000000000000000000000000081526004018080602001828103825283818151815260200191508051906020019080838360005b838110156132e45780820151818401526020810190506132c9565b50505050905090810190601f1680156133115780820380516001836020036101000a031916815260200191505b509250505060405180910390fd5b50600083858161332b57fe5b049050809150509392505050565b60606133488484600085613351565b90509392505050565b606061335c85613557565b6133ce576040517f08c379a000000000000000000000000000000000000000000000000000000000815260040180806020018281038252601d8152602001807f416464726573733a2063616c6c20746f206e6f6e2d636f6e747261637400000081525060200191505060405180910390fd5b600060608673ffffffffffffffffffffffffffffffffffffffff1685876040518082805190602001908083835b6020831061341e57805182526020820191506020810190506020830392506133fb565b6001836020036101000a03801982511681845116808217855250505050505090500191505060006040518083038185875af1925050503d8060008114613480576040519150601f19603f3d011682016040523d82523d6000602084013e613485565b606091505b5091509150811561349a57809250505061354f565b6000815111156134ad5780518082602001fd5b836040517f08c379a00000000000000000000000000000000000000000000000000000000081526004018080602001828103825283818151815260200191508051906020019080838360005b838110156135145780820151818401526020810190506134f9565b50505050905090810190601f1680156135415780820380516001836020036101000a031916815260200191505b509250505060405180910390fd5b949350505050565b60008060007fc5d2460186f7233c927e7db2dcc703c0e500b653ca82273b7bfad8045d85a47060001b9050833f915080821415801561359957506000801b8214155b9250505091905056fe736166654641414e475472616e736665723a205472616e73666572206661696c65646164643a20696e76616c6964206465706f7369742066656520626173697320706f696e7473757064617465526566426f6e757350657263656e743a20696e76616c696420726566657272616c20626f6e757320626173697320706f696e74735361666542455032303a204245503230206f7065726174696f6e20646964206e6f7420737563636565644f776e61626c653a206e6577206f776e657220697320746865207a65726f20616464726573736465706f7369743a20496e76616c69642072656665727265722061646472657373536166654d6174683a206d756c7469706c69636174696f6e206f766572666c6f777365743a20696e76616c6964206465706f7369742066656520626173697320706f696e7473757064617465526566426f6e757350657263656e743a2073616d6520626f6e757320627020736574a26469706673582212204a15b8553fe01118225e26fb364e1e53a7ac06c0e2018fa3b35e82275984794a64736f6c634300060c0033","opcodes":"PUSH1 0x80 PUSH1 0x40 MSTORE PUSH1 0xC8 PUSH1 0x6 SSTORE PUSH1 0x0 PUSH1 0xB SSTORE CALLVALUE DUP1 ISZERO PUSH3 0x1B JUMPI PUSH1 0x0 DUP1 REVERT JUMPDEST POP PUSH1 0x40 MLOAD PUSH3 0x395A CODESIZE SUB DUP1 PUSH3 0x395A DUP4 CODECOPY DUP2 DUP2 ADD PUSH1 0x40 MSTORE PUSH1 0x80 DUP2 LT ISZERO PUSH3 0x41 JUMPI PUSH1 0x0 DUP1 REVERT JUMPDEST DUP2 ADD SWAP1 DUP1 DUP1 MLOAD SWAP1 PUSH1 0x20 ADD SWAP1 SWAP3 SWAP2 SWAP1 DUP1 MLOAD SWAP1 PUSH1 0x20 ADD SWAP1 SWAP3 SWAP2 SWAP1 DUP1 MLOAD SWAP1 PUSH1 0x20 ADD SWAP1 SWAP3 SWAP2 SWAP1 DUP1 MLOAD SWAP1 PUSH1 0x20 ADD SWAP1 SWAP3 SWAP2 SWAP1 POP POP POP PUSH1 0x0 PUSH3 0x82 PUSH3 0x20A PUSH1 0x20 SHL PUSH1 0x20 SHR JUMP JUMPDEST SWAP1 POP DUP1 PUSH1 0x0 DUP1 PUSH2 0x100 EXP DUP2 SLOAD DUP2 PUSH20 0xFFFFFFFFFFFFFFFFFFFFFFFFFFFFFFFFFFFFFFFF MUL NOT AND SWAP1 DUP4 PUSH20 0xFFFFFFFFFFFFFFFFFFFFFFFFFFFFFFFFFFFFFFFF AND MUL OR SWAP1 SSTORE POP DUP1 PUSH20 0xFFFFFFFFFFFFFFFFFFFFFFFFFFFFFFFFFFFFFFFF AND PUSH1 0x0 PUSH20 0xFFFFFFFFFFFFFFFFFFFFFFFFFFFFFFFFFFFFFFFF AND PUSH32 0x8BE0079C531659141344CD1FD0A4F28419497F9722A3DAAFE3B4186F6B6457E0 PUSH1 0x40 MLOAD PUSH1 0x40 MLOAD DUP1 SWAP2 SUB SWAP1 LOG3 POP PUSH1 0x1 DUP1 DUP2 SWAP1 SSTORE POP DUP4 PUSH1 0x2 PUSH1 0x0 PUSH2 0x100 EXP DUP2 SLOAD DUP2 PUSH20 0xFFFFFFFFFFFFFFFFFFFFFFFFFFFFFFFFFFFFFFFF MUL NOT AND SWAP1 DUP4 PUSH20 0xFFFFFFFFFFFFFFFFFFFFFFFFFFFFFFFFFFFFFFFF AND MUL OR SWAP1 SSTORE POP DUP3 PUSH1 0x3 PUSH1 0x0 PUSH2 0x100 EXP DUP2 SLOAD DUP2 PUSH20 0xFFFFFFFFFFFFFFFFFFFFFFFFFFFFFFFFFFFFFFFF MUL NOT AND SWAP1 DUP4 PUSH20 0xFFFFFFFFFFFFFFFFFFFFFFFFFFFFFFFFFFFFFFFF AND MUL OR SWAP1 SSTORE POP DUP2 PUSH1 0x4 PUSH1 0x0 PUSH2 0x100 EXP DUP2 SLOAD DUP2 PUSH20 0xFFFFFFFFFFFFFFFFFFFFFFFFFFFFFFFFFFFFFFFF MUL NOT AND SWAP1 DUP4 PUSH20 0xFFFFFFFFFFFFFFFFFFFFFFFFFFFFFFFFFFFFFFFF AND MUL OR SWAP1 SSTORE POP DUP1 PUSH1 0xC DUP2 SWAP1 SSTORE POP PUSH8 0xDE0B6B3A7640000 PUSH1 0x5 DUP2 SWAP1 SSTORE POP POP POP POP POP PUSH3 0x212 JUMP JUMPDEST PUSH1 0x0 CALLER SWAP1 POP SWAP1 JUMP JUMPDEST PUSH2 0x3738 DUP1 PUSH3 0x222 PUSH1 0x0 CODECOPY PUSH1 0x0 RETURN INVALID PUSH1 0x80 PUSH1 0x40 MSTORE CALLVALUE DUP1 ISZERO PUSH2 0x10 JUMPI PUSH1 0x0 DUP1 REVERT JUMPDEST POP PUSH1 0x4 CALLDATASIZE LT PUSH2 0x1E5 JUMPI PUSH1 0x0 CALLDATALOAD PUSH1 0xE0 SHR DUP1 PUSH4 0x64ED743B GT PUSH2 0x10F JUMPI DUP1 PUSH4 0x8DBB1E3A GT PUSH2 0xA2 JUMPI DUP1 PUSH4 0xC100710D GT PUSH2 0x71 JUMPI DUP1 PUSH4 0xC100710D EQ PUSH2 0x7F0 JUMPI DUP1 PUSH4 0xD0D41FE1 EQ PUSH2 0x852 JUMPI DUP1 PUSH4 0xD9638422 EQ PUSH2 0x896 JUMPI DUP1 PUSH4 0xF2FDE38B EQ PUSH2 0x8E8 JUMPI PUSH2 0x1E5 JUMP JUMPDEST DUP1 PUSH4 0x8DBB1E3A EQ PUSH2 0x6BE JUMPI DUP1 PUSH4 0x8DBDBE6D EQ PUSH2 0x70A JUMPI DUP1 PUSH4 0x91BB809C EQ PUSH2 0x762 JUMPI DUP1 PUSH4 0x93F1A40B EQ PUSH2 0x780 JUMPI PUSH2 0x1E5 JUMP JUMPDEST DUP1 PUSH4 0x84E82A33 GT PUSH2 0xDE JUMPI DUP1 PUSH4 0x84E82A33 EQ PUSH2 0x5C0 JUMPI DUP1 PUSH4 0x8705FCD4 EQ PUSH2 0x628 JUMPI DUP1 PUSH4 0x8AA28550 EQ PUSH2 0x66C JUMPI DUP1 PUSH4 0x8DA5CB5B EQ PUSH2 0x68A JUMPI PUSH2 0x1E5 JUMP JUMPDEST DUP1 PUSH4 0x64ED743B EQ PUSH2 0x536 JUMPI DUP1 PUSH4 0x6621D3BA EQ PUSH2 0x564 JUMPI DUP1 PUSH4 0x66F685EA EQ PUSH2 0x598 JUMPI DUP1 PUSH4 0x715018A6 EQ PUSH2 0x5B6 JUMPI PUSH2 0x1E5 JUMP JUMPDEST DUP1 PUSH4 0x3F7B06D8 GT PUSH2 0x187 JUMPI DUP1 PUSH4 0x4A3B68CC GT PUSH2 0x156 JUMPI DUP1 PUSH4 0x4A3B68CC EQ PUSH2 0x462 JUMPI DUP1 PUSH4 0x51EB05A6 EQ PUSH2 0x4D0 JUMPI DUP1 PUSH4 0x5312EA8E EQ PUSH2 0x4FE JUMPI DUP1 PUSH4 0x630B5BA1 EQ PUSH2 0x52C JUMPI PUSH2 0x1E5 JUMP JUMPDEST DUP1 PUSH4 0x3F7B06D8 EQ PUSH2 0x380 JUMPI DUP1 PUSH4 0x41275358 EQ PUSH2 0x3D8 JUMPI DUP1 PUSH4 0x441A3E70 EQ PUSH2 0x40C JUMPI DUP1 PUSH4 0x48CD4CB1 EQ PUSH2 0x444 JUMPI PUSH2 0x1E5 JUMP JUMPDEST DUP1 PUSH4 0x267C3338 GT PUSH2 0x1C3 JUMPI DUP1 PUSH4 0x267C3338 EQ PUSH2 0x29E JUMPI DUP1 PUSH4 0x3A22DF78 EQ PUSH2 0x2BC JUMPI DUP1 PUSH4 0x3AD10EF6 EQ PUSH2 0x2DE JUMPI DUP1 PUSH4 0x3B0F0F2F EQ PUSH2 0x312 JUMPI PUSH2 0x1E5 JUMP JUMPDEST DUP1 PUSH4 0x81E3EDA EQ PUSH2 0x1EA JUMPI DUP1 PUSH4 0x1526FE27 EQ PUSH2 0x208 JUMPI DUP1 PUSH4 0x17CAF6F1 EQ PUSH2 0x280 JUMPI JUMPDEST PUSH1 0x0 DUP1 REVERT JUMPDEST PUSH2 0x1F2 PUSH2 0x92C JUMP JUMPDEST PUSH1 0x40 MLOAD DUP1 DUP3 DUP2 MSTORE PUSH1 0x20 ADD SWAP2 POP POP PUSH1 0x40 MLOAD DUP1 SWAP2 SUB SWAP1 RETURN JUMPDEST PUSH2 0x234 PUSH1 0x4 DUP1 CALLDATASIZE SUB PUSH1 0x20 DUP2 LT ISZERO PUSH2 0x21E JUMPI PUSH1 0x0 DUP1 REVERT JUMPDEST DUP2 ADD SWAP1 DUP1 DUP1 CALLDATALOAD SWAP1 PUSH1 0x20 ADD SWAP1 SWAP3 SWAP2 SWAP1 POP POP POP PUSH2 0x939 JUMP JUMPDEST PUSH1 0x40 MLOAD DUP1 DUP7 PUSH20 0xFFFFFFFFFFFFFFFFFFFFFFFFFFFFFFFFFFFFFFFF AND DUP2 MSTORE PUSH1 0x20 ADD DUP6 DUP2 MSTORE PUSH1 0x20 ADD DUP5 DUP2 MSTORE PUSH1 0x20 ADD DUP4 DUP2 MSTORE PUSH1 0x20 ADD DUP3 PUSH2 0xFFFF AND DUP2 MSTORE PUSH1 0x20 ADD SWAP6 POP POP POP POP POP POP PUSH1 0x40 MLOAD DUP1 SWAP2 SUB SWAP1 RETURN JUMPDEST PUSH2 0x288 PUSH2 0x9AA JUMP JUMPDEST PUSH1 0x40 MLOAD DUP1 DUP3 DUP2 MSTORE PUSH1 0x20 ADD SWAP2 POP POP PUSH1 0x40 MLOAD DUP1 SWAP2 SUB SWAP1 RETURN JUMPDEST PUSH2 0x2A6 PUSH2 0x9B0 JUMP JUMPDEST PUSH1 0x40 MLOAD DUP1 DUP3 DUP2 MSTORE PUSH1 0x20 ADD SWAP2 POP POP PUSH1 0x40 MLOAD DUP1 SWAP2 SUB SWAP1 RETURN JUMPDEST PUSH2 0x2C4 PUSH2 0x9B6 JUMP JUMPDEST PUSH1 0x40 MLOAD DUP1 DUP3 PUSH2 0xFFFF AND DUP2 MSTORE PUSH1 0x20 ADD SWAP2 POP POP PUSH1 0x40 MLOAD DUP1 SWAP2 SUB SWAP1 RETURN JUMPDEST PUSH2 0x2E6 PUSH2 0x9BC JUMP JUMPDEST PUSH1 0x40 MLOAD DUP1 DUP3 PUSH20 0xFFFFFFFFFFFFFFFFFFFFFFFFFFFFFFFFFFFFFFFF AND DUP2 MSTORE PUSH1 0x20 ADD SWAP2 POP POP PUSH1 0x40 MLOAD DUP1 SWAP2 SUB SWAP1 RETURN JUMPDEST PUSH2 0x354 PUSH1 0x4 DUP1 CALLDATASIZE SUB PUSH1 0x20 DUP2 LT ISZERO PUSH2 0x328 JUMPI PUSH1 0x0 DUP1 REVERT JUMPDEST DUP2 ADD SWAP1 DUP1 DUP1 CALLDATALOAD PUSH20 0xFFFFFFFFFFFFFFFFFFFFFFFFFFFFFFFFFFFFFFFF AND SWAP1 PUSH1 0x20 ADD SWAP1 SWAP3 SWAP2 SWAP1 POP POP POP PUSH2 0x9E2 JUMP JUMPDEST PUSH1 0x40 MLOAD DUP1 DUP3 PUSH20 0xFFFFFFFFFFFFFFFFFFFFFFFFFFFFFFFFFFFFFFFF AND DUP2 MSTORE PUSH1 0x20 ADD SWAP2 POP POP PUSH1 0x40 MLOAD DUP1 SWAP2 SUB SWAP1 RETURN JUMPDEST PUSH2 0x3C2 PUSH1 0x4 DUP1 CALLDATASIZE SUB PUSH1 0x20 DUP2 LT ISZERO PUSH2 0x396 JUMPI PUSH1 0x0 DUP1 REVERT JUMPDEST DUP2 ADD SWAP1 DUP1 DUP1 CALLDATALOAD PUSH20 0xFFFFFFFFFFFFFFFFFFFFFFFFFFFFFFFFFFFFFFFF AND SWAP1 PUSH1 0x20 ADD SWAP1 SWAP3 SWAP2 SWAP1 POP POP POP PUSH2 0xA4B JUMP JUMPDEST PUSH1 0x40 MLOAD DUP1 DUP3 DUP2 MSTORE PUSH1 0x20 ADD SWAP2 POP POP PUSH1 0x40 MLOAD DUP1 SWAP2 SUB SWAP1 RETURN JUMPDEST PUSH2 0x3E0 PUSH2 0xA63 JUMP JUMPDEST PUSH1 0x40 MLOAD DUP1 DUP3 PUSH20 0xFFFFFFFFFFFFFFFFFFFFFFFFFFFFFFFFFFFFFFFF AND DUP2 MSTORE PUSH1 0x20 ADD SWAP2 POP POP PUSH1 0x40 MLOAD DUP1 SWAP2 SUB SWAP1 RETURN JUMPDEST PUSH2 0x442 PUSH1 0x4 DUP1 CALLDATASIZE SUB PUSH1 0x40 DUP2 LT ISZERO PUSH2 0x422 JUMPI PUSH1 0x0 DUP1 REVERT JUMPDEST DUP2 ADD SWAP1 DUP1 DUP1 CALLDATALOAD SWAP1 PUSH1 0x20 ADD SWAP1 SWAP3 SWAP2 SWAP1 DUP1 CALLDATALOAD SWAP1 PUSH1 0x20 ADD SWAP1 SWAP3 SWAP2 SWAP1 POP POP POP PUSH2 0xA89 JUMP JUMPDEST STOP JUMPDEST PUSH2 0x44C PUSH2 0xD17 JUMP JUMPDEST PUSH1 0x40 MLOAD DUP1 DUP3 DUP2 MSTORE PUSH1 0x20 ADD SWAP2 POP POP PUSH1 0x40 MLOAD DUP1 SWAP2 SUB SWAP1 RETURN JUMPDEST PUSH2 0x4A4 PUSH1 0x4 DUP1 CALLDATASIZE SUB PUSH1 0x20 DUP2 LT ISZERO PUSH2 0x478 JUMPI PUSH1 0x0 DUP1 REVERT JUMPDEST DUP2 ADD SWAP1 DUP1 DUP1 CALLDATALOAD PUSH20 0xFFFFFFFFFFFFFFFFFFFFFFFFFFFFFFFFFFFFFFFF AND SWAP1 PUSH1 0x20 ADD SWAP1 SWAP3 SWAP2 SWAP1 POP POP POP PUSH2 0xD1D JUMP JUMPDEST PUSH1 0x40 MLOAD DUP1 DUP3 PUSH20 0xFFFFFFFFFFFFFFFFFFFFFFFFFFFFFFFFFFFFFFFF AND DUP2 MSTORE PUSH1 0x20 ADD SWAP2 POP POP PUSH1 0x40 MLOAD DUP1 SWAP2 SUB SWAP1 RETURN JUMPDEST PUSH2 0x4FC PUSH1 0x4 DUP1 CALLDATASIZE SUB PUSH1 0x20 DUP2 LT ISZERO PUSH2 0x4E6 JUMPI PUSH1 0x0 DUP1 REVERT JUMPDEST DUP2 ADD SWAP1 DUP1 DUP1 CALLDATALOAD SWAP1 PUSH1 0x20 ADD SWAP1 SWAP3 SWAP2 SWAP1 POP POP POP PUSH2 0xD50 JUMP JUMPDEST STOP JUMPDEST PUSH2 0x52A PUSH1 0x4 DUP1 CALLDATASIZE SUB PUSH1 0x20 DUP2 LT ISZERO PUSH2 0x514 JUMPI PUSH1 0x0 DUP1 REVERT JUMPDEST DUP2 ADD SWAP1 DUP1 DUP1 CALLDATALOAD SWAP1 PUSH1 0x20 ADD SWAP1 SWAP3 SWAP2 SWAP1 POP POP POP PUSH2 0x10AB JUMP JUMPDEST STOP JUMPDEST PUSH2 0x534 PUSH2 0x1267 JUMP JUMPDEST STOP JUMPDEST PUSH2 0x562 PUSH1 0x4 DUP1 CALLDATASIZE SUB PUSH1 0x20 DUP2 LT ISZERO PUSH2 0x54C JUMPI PUSH1 0x0 DUP1 REVERT JUMPDEST DUP2 ADD SWAP1 DUP1 DUP1 CALLDATALOAD SWAP1 PUSH1 0x20 ADD SWAP1 SWAP3 SWAP2 SWAP1 POP POP POP PUSH2 0x1294 JUMP JUMPDEST STOP JUMPDEST PUSH2 0x56C PUSH2 0x1467 JUMP JUMPDEST PUSH1 0x40 MLOAD DUP1 DUP3 PUSH20 0xFFFFFFFFFFFFFFFFFFFFFFFFFFFFFFFFFFFFFFFF AND DUP2 MSTORE PUSH1 0x20 ADD SWAP2 POP POP PUSH1 0x40 MLOAD DUP1 SWAP2 SUB SWAP1 RETURN JUMPDEST PUSH2 0x5A0 PUSH2 0x148D JUMP JUMPDEST PUSH1 0x40 MLOAD DUP1 DUP3 DUP2 MSTORE PUSH1 0x20 ADD SWAP2 POP POP PUSH1 0x40 MLOAD DUP1 SWAP2 SUB SWAP1 RETURN JUMPDEST PUSH2 0x5BE PUSH2 0x1493 JUMP JUMPDEST STOP JUMPDEST PUSH2 0x626 PUSH1 0x4 DUP1 CALLDATASIZE SUB PUSH1 0x80 DUP2 LT ISZERO PUSH2 0x5D6 JUMPI PUSH1 0x0 DUP1 REVERT JUMPDEST DUP2 ADD SWAP1 DUP1 DUP1 CALLDATALOAD SWAP1 PUSH1 0x20 ADD SWAP1 SWAP3 SWAP2 SWAP1 DUP1 CALLDATALOAD PUSH20 0xFFFFFFFFFFFFFFFFFFFFFFFFFFFFFFFFFFFFFFFF AND SWAP1 PUSH1 0x20 ADD SWAP1 SWAP3 SWAP2 SWAP1 DUP1 CALLDATALOAD PUSH2 0xFFFF AND SWAP1 PUSH1 0x20 ADD SWAP1 SWAP3 SWAP2 SWAP1 DUP1 CALLDATALOAD ISZERO ISZERO SWAP1 PUSH1 0x20 ADD SWAP1 SWAP3 SWAP2 SWAP1 POP POP POP PUSH2 0x1619 JUMP JUMPDEST STOP JUMPDEST PUSH2 0x66A PUSH1 0x4 DUP1 CALLDATASIZE SUB PUSH1 0x20 DUP2 LT ISZERO PUSH2 0x63E JUMPI PUSH1 0x0 DUP1 REVERT JUMPDEST DUP2 ADD SWAP1 DUP1 DUP1 CALLDATALOAD PUSH20 0xFFFFFFFFFFFFFFFFFFFFFFFFFFFFFFFFFFFFFFFF AND SWAP1 PUSH1 0x20 ADD SWAP1 SWAP3 SWAP2 SWAP1 POP POP POP PUSH2 0x187F JUMP JUMPDEST STOP JUMPDEST PUSH2 0x674 PUSH2 0x1986 JUMP JUMPDEST PUSH1 0x40 MLOAD DUP1 DUP3 DUP2 MSTORE PUSH1 0x20 ADD SWAP2 POP POP PUSH1 0x40 MLOAD DUP1 SWAP2 SUB SWAP1 RETURN JUMPDEST PUSH2 0x692 PUSH2 0x198B JUMP JUMPDEST PUSH1 0x40 MLOAD DUP1 DUP3 PUSH20 0xFFFFFFFFFFFFFFFFFFFFFFFFFFFFFFFFFFFFFFFF AND DUP2 MSTORE PUSH1 0x20 ADD SWAP2 POP POP PUSH1 0x40 MLOAD DUP1 SWAP2 SUB SWAP1 RETURN JUMPDEST PUSH2 0x6F4 PUSH1 0x4 DUP1 CALLDATASIZE SUB PUSH1 0x40 DUP2 LT ISZERO PUSH2 0x6D4 JUMPI PUSH1 0x0 DUP1 REVERT JUMPDEST DUP2 ADD SWAP1 DUP1 DUP1 CALLDATALOAD SWAP1 PUSH1 0x20 ADD SWAP1 SWAP3 SWAP2 SWAP1 DUP1 CALLDATALOAD SWAP1 PUSH1 0x20 ADD SWAP1 SWAP3 SWAP2 SWAP1 POP POP POP PUSH2 0x19B4 JUMP JUMPDEST PUSH1 0x40 MLOAD DUP1 DUP3 DUP2 MSTORE PUSH1 0x20 ADD SWAP2 POP POP PUSH1 0x40 MLOAD DUP1 SWAP2 SUB SWAP1 RETURN JUMPDEST PUSH2 0x760 PUSH1 0x4 DUP1 CALLDATASIZE SUB PUSH1 0x60 DUP2 LT ISZERO PUSH2 0x720 JUMPI PUSH1 0x0 DUP1 REVERT JUMPDEST DUP2 ADD SWAP1 DUP1 DUP1 CALLDATALOAD SWAP1 PUSH1 0x20 ADD SWAP1 SWAP3 SWAP2 SWAP1 DUP1 CALLDATALOAD SWAP1 PUSH1 0x20 ADD SWAP1 SWAP3 SWAP2 SWAP1 DUP1 CALLDATALOAD PUSH20 0xFFFFFFFFFFFFFFFFFFFFFFFFFFFFFFFFFFFFFFFF AND SWAP1 PUSH1 0x20 ADD SWAP1 SWAP3 SWAP2 SWAP1 POP POP POP PUSH2 0x19E4 JUMP JUMPDEST STOP JUMPDEST PUSH2 0x76A PUSH2 0x1E0D JUMP JUMPDEST PUSH1 0x40 MLOAD DUP1 DUP3 DUP2 MSTORE PUSH1 0x20 ADD SWAP2 POP POP PUSH1 0x40 MLOAD DUP1 SWAP2 SUB SWAP1 RETURN JUMPDEST PUSH2 0x7CC PUSH1 0x4 DUP1 CALLDATASIZE SUB PUSH1 0x40 DUP2 LT ISZERO PUSH2 0x796 JUMPI PUSH1 0x0 DUP1 REVERT JUMPDEST DUP2 ADD SWAP1 DUP1 DUP1 CALLDATALOAD SWAP1 PUSH1 0x20 ADD SWAP1 SWAP3 SWAP2 SWAP1 DUP1 CALLDATALOAD PUSH20 0xFFFFFFFFFFFFFFFFFFFFFFFFFFFFFFFFFFFFFFFF AND SWAP1 PUSH1 0x20 ADD SWAP1 SWAP3 SWAP2 SWAP1 POP POP POP PUSH2 0x1E19 JUMP JUMPDEST PUSH1 0x40 MLOAD DUP1 DUP5 DUP2 MSTORE PUSH1 0x20 ADD DUP4 DUP2 MSTORE PUSH1 0x20 ADD DUP3 DUP2 MSTORE PUSH1 0x20 ADD SWAP4 POP POP POP POP PUSH1 0x40 MLOAD DUP1 SWAP2 SUB SWAP1 RETURN JUMPDEST PUSH2 0x83C PUSH1 0x4 DUP1 CALLDATASIZE SUB PUSH1 0x40 DUP2 LT ISZERO PUSH2 0x806 JUMPI PUSH1 0x0 DUP1 REVERT JUMPDEST DUP2 ADD SWAP1 DUP1 DUP1 CALLDATALOAD SWAP1 PUSH1 0x20 ADD SWAP1 SWAP3 SWAP2 SWAP1 DUP1 CALLDATALOAD PUSH20 0xFFFFFFFFFFFFFFFFFFFFFFFFFFFFFFFFFFFFFFFF AND SWAP1 PUSH1 0x20 ADD SWAP1 SWAP3 SWAP2 SWAP1 POP POP POP PUSH2 0x1E50 JUMP JUMPDEST PUSH1 0x40 MLOAD DUP1 DUP3 DUP2 MSTORE PUSH1 0x20 ADD SWAP2 POP POP PUSH1 0x40 MLOAD DUP1 SWAP2 SUB SWAP1 RETURN JUMPDEST PUSH2 0x894 PUSH1 0x4 DUP1 CALLDATASIZE SUB PUSH1 0x20 DUP2 LT ISZERO PUSH2 0x868 JUMPI PUSH1 0x0 DUP1 REVERT JUMPDEST DUP2 ADD SWAP1 DUP1 DUP1 CALLDATALOAD PUSH20 0xFFFFFFFFFFFFFFFFFFFFFFFFFFFFFFFFFFFFFFFF AND SWAP1 PUSH1 0x20 ADD SWAP1 SWAP3 SWAP2 SWAP1 POP POP POP PUSH2 0x2096 JUMP JUMPDEST STOP JUMPDEST PUSH2 0x8E6 PUSH1 0x4 DUP1 CALLDATASIZE SUB PUSH1 0x80 DUP2 LT ISZERO PUSH2 0x8AC JUMPI PUSH1 0x0 DUP1 REVERT JUMPDEST DUP2 ADD SWAP1 DUP1 DUP1 CALLDATALOAD SWAP1 PUSH1 0x20 ADD SWAP1 SWAP3 SWAP2 SWAP1 DUP1 CALLDATALOAD SWAP1 PUSH1 0x20 ADD SWAP1 SWAP3 SWAP2 SWAP1 DUP1 CALLDATALOAD PUSH2 0xFFFF AND SWAP1 PUSH1 0x20 ADD SWAP1 SWAP3 SWAP2 SWAP1 DUP1 CALLDATALOAD ISZERO ISZERO SWAP1 PUSH1 0x20 ADD SWAP1 SWAP3 SWAP2 SWAP1 POP POP POP PUSH2 0x219D JUMP JUMPDEST STOP JUMPDEST PUSH2 0x92A PUSH1 0x4 DUP1 CALLDATASIZE SUB PUSH1 0x20 DUP2 LT ISZERO PUSH2 0x8FE JUMPI PUSH1 0x0 DUP1 REVERT JUMPDEST DUP2 ADD SWAP1 DUP1 DUP1 CALLDATALOAD PUSH20 0xFFFFFFFFFFFFFFFFFFFFFFFFFFFFFFFFFFFFFFFF AND SWAP1 PUSH1 0x20 ADD SWAP1 SWAP3 SWAP2 SWAP1 POP POP POP PUSH2 0x2380 JUMP JUMPDEST STOP JUMPDEST PUSH1 0x0 PUSH1 0x9 DUP1 SLOAD SWAP1 POP SWAP1 POP SWAP1 JUMP JUMPDEST PUSH1 0x9 DUP2 DUP2 SLOAD DUP2 LT PUSH2 0x946 JUMPI INVALID JUMPDEST SWAP1 PUSH1 0x0 MSTORE PUSH1 0x20 PUSH1 0x0 KECCAK256 SWAP1 PUSH1 0x5 MUL ADD PUSH1 0x0 SWAP2 POP SWAP1 POP DUP1 PUSH1 0x0 ADD PUSH1 0x0 SWAP1 SLOAD SWAP1 PUSH2 0x100 EXP SWAP1 DIV PUSH20 0xFFFFFFFFFFFFFFFFFFFFFFFFFFFFFFFFFFFFFFFF AND SWAP1 DUP1 PUSH1 0x1 ADD SLOAD SWAP1 DUP1 PUSH1 0x2 ADD SLOAD SWAP1 DUP1 PUSH1 0x3 ADD SLOAD SWAP1 DUP1 PUSH1 0x4 ADD PUSH1 0x0 SWAP1 SLOAD SWAP1 PUSH2 0x100 EXP SWAP1 DIV PUSH2 0xFFFF AND SWAP1 POP DUP6 JUMP JUMPDEST PUSH1 0xB SLOAD DUP2 JUMP JUMPDEST PUSH1 0x5 SLOAD DUP2 JUMP JUMPDEST PUSH2 0x7D0 DUP2 JUMP JUMPDEST PUSH1 0x3 PUSH1 0x0 SWAP1 SLOAD SWAP1 PUSH2 0x100 EXP SWAP1 DIV PUSH20 0xFFFFFFFFFFFFFFFFFFFFFFFFFFFFFFFFFFFFFFFF AND DUP2 JUMP JUMPDEST PUSH1 0x0 PUSH1 0x7 PUSH1 0x0 DUP4 PUSH20 0xFFFFFFFFFFFFFFFFFFFFFFFFFFFFFFFFFFFFFFFF AND PUSH20 0xFFFFFFFFFFFFFFFFFFFFFFFFFFFFFFFFFFFFFFFF AND DUP2 MSTORE PUSH1 0x20 ADD SWAP1 DUP2 MSTORE PUSH1 0x20 ADD PUSH1 0x0 KECCAK256 PUSH1 0x0 SWAP1 SLOAD SWAP1 PUSH2 0x100 EXP SWAP1 DIV PUSH20 0xFFFFFFFFFFFFFFFFFFFFFFFFFFFFFFFFFFFFFFFF AND SWAP1 POP SWAP2 SWAP1 POP JUMP JUMPDEST PUSH1 0x8 PUSH1 0x20 MSTORE DUP1 PUSH1 0x0 MSTORE PUSH1 0x40 PUSH1 0x0 KECCAK256 PUSH1 0x0 SWAP2 POP SWAP1 POP SLOAD DUP2 JUMP JUMPDEST PUSH1 0x4 PUSH1 0x0 SWAP1 SLOAD SWAP1 PUSH2 0x100 EXP SWAP1 DIV PUSH20 0xFFFFFFFFFFFFFFFFFFFFFFFFFFFFFFFFFFFFFFFF AND DUP2 JUMP JUMPDEST PUSH1 0x2 PUSH1 0x1 SLOAD EQ ISZERO PUSH2 0xB02 JUMPI PUSH1 0x40 MLOAD PUSH32 0x8C379A000000000000000000000000000000000000000000000000000000000 DUP2 MSTORE PUSH1 0x4 ADD DUP1 DUP1 PUSH1 0x20 ADD DUP3 DUP2 SUB DUP3 MSTORE PUSH1 0x1F DUP2 MSTORE PUSH1 0x20 ADD DUP1 PUSH32 0x5265656E7472616E637947756172643A207265656E7472616E742063616C6C00 DUP2 MSTORE POP PUSH1 0x20 ADD SWAP2 POP POP PUSH1 0x40 MLOAD DUP1 SWAP2 SUB SWAP1 REVERT JUMPDEST PUSH1 0x2 PUSH1 0x1 DUP2 SWAP1 SSTORE POP PUSH1 0x0 PUSH1 0x9 DUP4 DUP2 SLOAD DUP2 LT PUSH2 0xB19 JUMPI INVALID JUMPDEST SWAP1 PUSH1 0x0 MSTORE PUSH1 0x20 PUSH1 0x0 KECCAK256 SWAP1 PUSH1 0x5 MUL ADD SWAP1 POP PUSH1 0x0 PUSH1 0xA PUSH1 0x0 DUP6 DUP2 MSTORE PUSH1 0x20 ADD SWAP1 DUP2 MSTORE PUSH1 0x20 ADD PUSH1 0x0 KECCAK256 PUSH1 0x0 CALLER PUSH20 0xFFFFFFFFFFFFFFFFFFFFFFFFFFFFFFFFFFFFFFFF AND PUSH20 0xFFFFFFFFFFFFFFFFFFFFFFFFFFFFFFFFFFFFFFFF AND DUP2 MSTORE PUSH1 0x20 ADD SWAP1 DUP2 MSTORE PUSH1 0x20 ADD PUSH1 0x0 KECCAK256 SWAP1 POP DUP3 DUP2 PUSH1 0x0 ADD SLOAD LT ISZERO PUSH2 0xBF7 JUMPI PUSH1 0x40 MLOAD PUSH32 0x8C379A000000000000000000000000000000000000000000000000000000000 DUP2 MSTORE PUSH1 0x4 ADD DUP1 DUP1 PUSH1 0x20 ADD DUP3 DUP2 SUB DUP3 MSTORE PUSH1 0x12 DUP2 MSTORE PUSH1 0x20 ADD DUP1 PUSH32 0x77697468647261773A206E6F7420676F6F640000000000000000000000000000 DUP2 MSTORE POP PUSH1 0x20 ADD SWAP2 POP POP PUSH1 0x40 MLOAD DUP1 SWAP2 SUB SWAP1 REVERT JUMPDEST PUSH2 0xC00 DUP5 PUSH2 0xD50 JUMP JUMPDEST PUSH2 0xC09 DUP5 PUSH2 0x2454 JUMP JUMPDEST PUSH1 0x0 DUP4 GT ISZERO PUSH2 0xC81 JUMPI PUSH2 0xC29 DUP4 DUP3 PUSH1 0x0 ADD SLOAD PUSH2 0x256C SWAP1 SWAP2 SWAP1 PUSH4 0xFFFFFFFF AND JUMP JUMPDEST DUP2 PUSH1 0x0 ADD DUP2 SWAP1 SSTORE POP PUSH2 0xC80 CALLER DUP5 DUP5 PUSH1 0x0 ADD PUSH1 0x0 SWAP1 SLOAD SWAP1 PUSH2 0x100 EXP SWAP1 DIV PUSH20 0xFFFFFFFFFFFFFFFFFFFFFFFFFFFFFFFFFFFFFFFF AND PUSH20 0xFFFFFFFFFFFFFFFFFFFFFFFFFFFFFFFFFFFFFFFF AND PUSH2 0x25B6 SWAP1 SWAP3 SWAP2 SWAP1 PUSH4 0xFFFFFFFF AND JUMP JUMPDEST JUMPDEST PUSH2 0xCB3 PUSH5 0xE8D4A51000 PUSH2 0xCA5 DUP5 PUSH1 0x3 ADD SLOAD DUP5 PUSH1 0x0 ADD SLOAD PUSH2 0x2658 SWAP1 SWAP2 SWAP1 PUSH4 0xFFFFFFFF AND JUMP JUMPDEST PUSH2 0x26DE SWAP1 SWAP2 SWAP1 PUSH4 0xFFFFFFFF AND JUMP JUMPDEST DUP2 PUSH1 0x1 ADD DUP2 SWAP1 SSTORE POP DUP4 CALLER PUSH20 0xFFFFFFFFFFFFFFFFFFFFFFFFFFFFFFFFFFFFFFFF AND PUSH32 0xF279E6A1F5E320CCA91135676D9CB6E44CA8A08C0B88342BCDB1144F6511B568 DUP6 PUSH1 0x40 MLOAD DUP1 DUP3 DUP2 MSTORE PUSH1 0x20 ADD SWAP2 POP POP PUSH1 0x40 MLOAD DUP1 SWAP2 SUB SWAP1 LOG3 POP POP PUSH1 0x1 DUP1 DUP2 SWAP1 SSTORE POP POP POP JUMP JUMPDEST PUSH1 0xC SLOAD DUP2 JUMP JUMPDEST PUSH1 0x7 PUSH1 0x20 MSTORE DUP1 PUSH1 0x0 MSTORE PUSH1 0x40 PUSH1 0x0 KECCAK256 PUSH1 0x0 SWAP2 POP SLOAD SWAP1 PUSH2 0x100 EXP SWAP1 DIV PUSH20 0xFFFFFFFFFFFFFFFFFFFFFFFFFFFFFFFFFFFFFFFF AND DUP2 JUMP JUMPDEST PUSH1 0x0 PUSH1 0x9 DUP3 DUP2 SLOAD DUP2 LT PUSH2 0xD5F JUMPI INVALID JUMPDEST SWAP1 PUSH1 0x0 MSTORE PUSH1 0x20 PUSH1 0x0 KECCAK256 SWAP1 PUSH1 0x5 MUL ADD SWAP1 POP DUP1 PUSH1 0x2 ADD SLOAD NUMBER GT PUSH2 0xD80 JUMPI POP PUSH2 0x10A8 JUMP JUMPDEST PUSH1 0x0 DUP2 PUSH1 0x0 ADD PUSH1 0x0 SWAP1 SLOAD SWAP1 PUSH2 0x100 EXP SWAP1 DIV PUSH20 0xFFFFFFFFFFFFFFFFFFFFFFFFFFFFFFFFFFFFFFFF AND PUSH20 0xFFFFFFFFFFFFFFFFFFFFFFFFFFFFFFFFFFFFFFFF AND PUSH4 0x70A08231 ADDRESS PUSH1 0x40 MLOAD DUP3 PUSH4 0xFFFFFFFF AND PUSH1 0xE0 SHL DUP2 MSTORE PUSH1 0x4 ADD DUP1 DUP3 PUSH20 0xFFFFFFFFFFFFFFFFFFFFFFFFFFFFFFFFFFFFFFFF AND DUP2 MSTORE PUSH1 0x20 ADD SWAP2 POP POP PUSH1 0x20 PUSH1 0x40 MLOAD DUP1 DUP4 SUB DUP2 DUP7 DUP1 EXTCODESIZE ISZERO DUP1 ISZERO PUSH2 0xE0D JUMPI PUSH1 0x0 DUP1 REVERT JUMPDEST POP GAS STATICCALL ISZERO DUP1 ISZERO PUSH2 0xE21 JUMPI RETURNDATASIZE PUSH1 0x0 DUP1 RETURNDATACOPY RETURNDATASIZE PUSH1 0x0 REVERT JUMPDEST POP POP POP POP PUSH1 0x40 MLOAD RETURNDATASIZE PUSH1 0x20 DUP2 LT ISZERO PUSH2 0xE37 JUMPI PUSH1 0x0 DUP1 REVERT JUMPDEST DUP2 ADD SWAP1 DUP1 DUP1 MLOAD SWAP1 PUSH1 0x20 ADD SWAP1 SWAP3 SWAP2 SWAP1 POP POP POP SWAP1 POP PUSH1 0x0 DUP2 EQ DUP1 PUSH2 0xE5D JUMPI POP PUSH1 0x0 DUP3 PUSH1 0x1 ADD SLOAD EQ JUMPDEST ISZERO PUSH2 0xE72 JUMPI NUMBER DUP3 PUSH1 0x2 ADD DUP2 SWAP1 SSTORE POP POP POP PUSH2 0x10A8 JUMP JUMPDEST PUSH1 0x0 PUSH2 0xE82 DUP4 PUSH1 0x2 ADD SLOAD NUMBER PUSH2 0x19B4 JUMP JUMPDEST SWAP1 POP PUSH1 0x0 PUSH2 0xEC5 PUSH1 0xB SLOAD PUSH2 0xEB7 DUP7 PUSH1 0x1 ADD SLOAD PUSH2 0xEA9 PUSH1 0x5 SLOAD DUP8 PUSH2 0x2658 SWAP1 SWAP2 SWAP1 PUSH4 0xFFFFFFFF AND JUMP JUMPDEST PUSH2 0x2658 SWAP1 SWAP2 SWAP1 PUSH4 0xFFFFFFFF AND JUMP JUMPDEST PUSH2 0x26DE SWAP1 SWAP2 SWAP1 PUSH4 0xFFFFFFFF AND JUMP JUMPDEST SWAP1 POP PUSH1 0x2 PUSH1 0x0 SWAP1 SLOAD SWAP1 PUSH2 0x100 EXP SWAP1 DIV PUSH20 0xFFFFFFFFFFFFFFFFFFFFFFFFFFFFFFFFFFFFFFFF AND PUSH20 0xFFFFFFFFFFFFFFFFFFFFFFFFFFFFFFFFFFFFFFFF AND PUSH4 0x40C10F19 PUSH1 0x3 PUSH1 0x0 SWAP1 SLOAD SWAP1 PUSH2 0x100 EXP SWAP1 DIV PUSH20 0xFFFFFFFFFFFFFFFFFFFFFFFFFFFFFFFFFFFFFFFF AND PUSH2 0xF3C PUSH1 0xA DUP6 PUSH2 0x26DE SWAP1 SWAP2 SWAP1 PUSH4 0xFFFFFFFF AND JUMP JUMPDEST PUSH1 0x40 MLOAD DUP4 PUSH4 0xFFFFFFFF AND PUSH1 0xE0 SHL DUP2 MSTORE PUSH1 0x4 ADD DUP1 DUP4 PUSH20 0xFFFFFFFFFFFFFFFFFFFFFFFFFFFFFFFFFFFFFFFF AND DUP2 MSTORE PUSH1 0x20 ADD DUP3 DUP2 MSTORE PUSH1 0x20 ADD SWAP3 POP POP POP PUSH1 0x0 PUSH1 0x40 MLOAD DUP1 DUP4 SUB DUP2 PUSH1 0x0 DUP8 DUP1 EXTCODESIZE ISZERO DUP1 ISZERO PUSH2 0xF8F JUMPI PUSH1 0x0 DUP1 REVERT JUMPDEST POP GAS CALL ISZERO DUP1 ISZERO PUSH2 0xFA3 JUMPI RETURNDATASIZE PUSH1 0x0 DUP1 RETURNDATACOPY RETURNDATASIZE PUSH1 0x0 REVERT JUMPDEST POP POP POP POP PUSH1 0x2 PUSH1 0x0 SWAP1 SLOAD SWAP1 PUSH2 0x100 EXP SWAP1 DIV PUSH20 0xFFFFFFFFFFFFFFFFFFFFFFFFFFFFFFFFFFFFFFFF AND PUSH20 0xFFFFFFFFFFFFFFFFFFFFFFFFFFFFFFFFFFFFFFFF AND PUSH4 0x40C10F19 ADDRESS DUP4 PUSH1 0x40 MLOAD DUP4 PUSH4 0xFFFFFFFF AND PUSH1 0xE0 SHL DUP2 MSTORE PUSH1 0x4 ADD DUP1 DUP4 PUSH20 0xFFFFFFFFFFFFFFFFFFFFFFFFFFFFFFFFFFFFFFFF AND DUP2 MSTORE PUSH1 0x20 ADD DUP3 DUP2 MSTORE PUSH1 0x20 ADD SWAP3 POP POP POP PUSH1 0x0 PUSH1 0x40 MLOAD DUP1 DUP4 SUB DUP2 PUSH1 0x0 DUP8 DUP1 EXTCODESIZE ISZERO DUP1 ISZERO PUSH2 0x103A JUMPI PUSH1 0x0 DUP1 REVERT JUMPDEST POP GAS CALL ISZERO DUP1 ISZERO PUSH2 0x104E JUMPI RETURNDATASIZE PUSH1 0x0 DUP1 RETURNDATACOPY RETURNDATASIZE PUSH1 0x0 REVERT JUMPDEST POP POP POP POP PUSH2 0x1092 PUSH2 0x107F DUP5 PUSH2 0x1071 PUSH5 0xE8D4A51000 DUP6 PUSH2 0x2658 SWAP1 SWAP2 SWAP1 PUSH4 0xFFFFFFFF AND JUMP JUMPDEST PUSH2 0x26DE SWAP1 SWAP2 SWAP1 PUSH4 0xFFFFFFFF AND JUMP JUMPDEST DUP6 PUSH1 0x3 ADD SLOAD PUSH2 0x2728 SWAP1 SWAP2 SWAP1 PUSH4 0xFFFFFFFF AND JUMP JUMPDEST DUP5 PUSH1 0x3 ADD DUP2 SWAP1 SSTORE POP NUMBER DUP5 PUSH1 0x2 ADD DUP2 SWAP1 SSTORE POP POP POP POP POP JUMPDEST POP JUMP JUMPDEST PUSH1 0x2 PUSH1 0x1 SLOAD EQ ISZERO PUSH2 0x1124 JUMPI PUSH1 0x40 MLOAD PUSH32 0x8C379A000000000000000000000000000000000000000000000000000000000 DUP2 MSTORE PUSH1 0x4 ADD DUP1 DUP1 PUSH1 0x20 ADD DUP3 DUP2 SUB DUP3 MSTORE PUSH1 0x1F DUP2 MSTORE PUSH1 0x20 ADD DUP1 PUSH32 0x5265656E7472616E637947756172643A207265656E7472616E742063616C6C00 DUP2 MSTORE POP PUSH1 0x20 ADD SWAP2 POP POP PUSH1 0x40 MLOAD DUP1 SWAP2 SUB SWAP1 REVERT JUMPDEST PUSH1 0x2 PUSH1 0x1 DUP2 SWAP1 SSTORE POP PUSH1 0x0 PUSH1 0x9 DUP3 DUP2 SLOAD DUP2 LT PUSH2 0x113B JUMPI INVALID JUMPDEST SWAP1 PUSH1 0x0 MSTORE PUSH1 0x20 PUSH1 0x0 KECCAK256 SWAP1 PUSH1 0x5 MUL ADD SWAP1 POP PUSH1 0x0 PUSH1 0xA PUSH1 0x0 DUP5 DUP2 MSTORE PUSH1 0x20 ADD SWAP1 DUP2 MSTORE PUSH1 0x20 ADD PUSH1 0x0 KECCAK256 PUSH1 0x0 CALLER PUSH20 0xFFFFFFFFFFFFFFFFFFFFFFFFFFFFFFFFFFFFFFFF AND PUSH20 0xFFFFFFFFFFFFFFFFFFFFFFFFFFFFFFFFFFFFFFFF AND DUP2 MSTORE PUSH1 0x20 ADD SWAP1 DUP2 MSTORE PUSH1 0x20 ADD PUSH1 0x0 KECCAK256 SWAP1 POP PUSH1 0x0 DUP2 PUSH1 0x0 ADD SLOAD SWAP1 POP PUSH1 0x0 DUP3 PUSH1 0x0 ADD DUP2 SWAP1 SSTORE POP PUSH1 0x0 DUP3 PUSH1 0x1 ADD DUP2 SWAP1 SSTORE POP PUSH2 0x120B CALLER DUP3 DUP6 PUSH1 0x0 ADD PUSH1 0x0 SWAP1 SLOAD SWAP1 PUSH2 0x100 EXP SWAP1 DIV PUSH20 0xFFFFFFFFFFFFFFFFFFFFFFFFFFFFFFFFFFFFFFFF AND PUSH20 0xFFFFFFFFFFFFFFFFFFFFFFFFFFFFFFFFFFFFFFFF AND PUSH2 0x25B6 SWAP1 SWAP3 SWAP2 SWAP1 PUSH4 0xFFFFFFFF AND JUMP JUMPDEST DUP4 CALLER PUSH20 0xFFFFFFFFFFFFFFFFFFFFFFFFFFFFFFFFFFFFFFFF AND PUSH32 0xBB757047C2B5F3974FE26B7C10F732E7BCE710B0952A71082702781E62AE0595 DUP4 PUSH1 0x40 MLOAD DUP1 DUP3 DUP2 MSTORE PUSH1 0x20 ADD SWAP2 POP POP PUSH1 0x40 MLOAD DUP1 SWAP2 SUB SWAP1 LOG3 POP POP POP PUSH1 0x1 DUP1 DUP2 SWAP1 SSTORE POP POP JUMP JUMPDEST PUSH1 0x0 PUSH1 0x9 DUP1 SLOAD SWAP1 POP SWAP1 POP PUSH1 0x0 JUMPDEST DUP2 DUP2 LT ISZERO PUSH2 0x1290 JUMPI PUSH2 0x1285 DUP2 PUSH2 0xD50 JUMP JUMPDEST DUP1 PUSH1 0x1 ADD SWAP1 POP PUSH2 0x1274 JUMP JUMPDEST POP POP JUMP JUMPDEST PUSH2 0x129C PUSH2 0x27B0 JUMP JUMPDEST PUSH20 0xFFFFFFFFFFFFFFFFFFFFFFFFFFFFFFFFFFFFFFFF AND PUSH1 0x0 DUP1 SLOAD SWAP1 PUSH2 0x100 EXP SWAP1 DIV PUSH20 0xFFFFFFFFFFFFFFFFFFFFFFFFFFFFFFFFFFFFFFFF AND PUSH20 0xFFFFFFFFFFFFFFFFFFFFFFFFFFFFFFFFFFFFFFFF AND EQ PUSH2 0x135C JUMPI PUSH1 0x40 MLOAD PUSH32 0x8C379A000000000000000000000000000000000000000000000000000000000 DUP2 MSTORE PUSH1 0x4 ADD DUP1 DUP1 PUSH1 0x20 ADD DUP3 DUP2 SUB DUP3 MSTORE PUSH1 0x20 DUP2 MSTORE PUSH1 0x20 ADD DUP1 PUSH32 0x4F776E61626C653A2063616C6C6572206973206E6F7420746865206F776E6572 DUP2 MSTORE POP PUSH1 0x20 ADD SWAP2 POP POP PUSH1 0x40 MLOAD DUP1 SWAP2 SUB SWAP1 REVERT JUMPDEST PUSH2 0x7D0 PUSH2 0xFFFF AND DUP2 GT ISZERO PUSH2 0x13BB JUMPI PUSH1 0x40 MLOAD PUSH32 0x8C379A000000000000000000000000000000000000000000000000000000000 DUP2 MSTORE PUSH1 0x4 ADD DUP1 DUP1 PUSH1 0x20 ADD DUP3 DUP2 SUB DUP3 MSTORE PUSH1 0x3A DUP2 MSTORE PUSH1 0x20 ADD DUP1 PUSH2 0x35EA PUSH1 0x3A SWAP2 CODECOPY PUSH1 0x40 ADD SWAP2 POP POP PUSH1 0x40 MLOAD DUP1 SWAP2 SUB SWAP1 REVERT JUMPDEST PUSH1 0x6 SLOAD DUP2 EQ ISZERO PUSH2 0x1416 JUMPI PUSH1 0x40 MLOAD PUSH32 0x8C379A000000000000000000000000000000000000000000000000000000000 DUP2 MSTORE PUSH1 0x4 ADD DUP1 DUP1 PUSH1 0x20 ADD DUP3 DUP2 SUB DUP3 MSTORE PUSH1 0x28 DUP2 MSTORE PUSH1 0x20 ADD DUP1 PUSH2 0x36DB PUSH1 0x28 SWAP2 CODECOPY PUSH1 0x40 ADD SWAP2 POP POP PUSH1 0x40 MLOAD DUP1 SWAP2 SUB SWAP1 REVERT JUMPDEST PUSH1 0x0 PUSH1 0x6 SLOAD SWAP1 POP DUP2 PUSH1 0x6 DUP2 SWAP1 SSTORE POP PUSH32 0x3282B692BFEBF5F35B198A229212CF532C72099026AB54C4B8665382D1086B3F DUP2 DUP4 PUSH1 0x40 MLOAD DUP1 DUP4 DUP2 MSTORE PUSH1 0x20 ADD DUP3 DUP2 MSTORE PUSH1 0x20 ADD SWAP3 POP POP POP PUSH1 0x40 MLOAD DUP1 SWAP2 SUB SWAP1 LOG1 POP POP JUMP JUMPDEST PUSH1 0x2 PUSH1 0x0 SWAP1 SLOAD SWAP1 PUSH2 0x100 EXP SWAP1 DIV PUSH20 0xFFFFFFFFFFFFFFFFFFFFFFFFFFFFFFFFFFFFFFFF AND DUP2 JUMP JUMPDEST PUSH1 0x6 SLOAD DUP2 JUMP JUMPDEST PUSH2 0x149B PUSH2 0x27B0 JUMP JUMPDEST PUSH20 0xFFFFFFFFFFFFFFFFFFFFFFFFFFFFFFFFFFFFFFFF AND PUSH1 0x0 DUP1 SLOAD SWAP1 PUSH2 0x100 EXP SWAP1 DIV PUSH20 0xFFFFFFFFFFFFFFFFFFFFFFFFFFFFFFFFFFFFFFFF AND PUSH20 0xFFFFFFFFFFFFFFFFFFFFFFFFFFFFFFFFFFFFFFFF AND EQ PUSH2 0x155B JUMPI PUSH1 0x40 MLOAD PUSH32 0x8C379A000000000000000000000000000000000000000000000000000000000 DUP2 MSTORE PUSH1 0x4 ADD DUP1 DUP1 PUSH1 0x20 ADD DUP3 DUP2 SUB DUP3 MSTORE PUSH1 0x20 DUP2 MSTORE PUSH1 0x20 ADD DUP1 PUSH32 0x4F776E61626C653A2063616C6C6572206973206E6F7420746865206F776E6572 DUP2 MSTORE POP PUSH1 0x20 ADD SWAP2 POP POP PUSH1 0x40 MLOAD DUP1 SWAP2 SUB SWAP1 REVERT JUMPDEST PUSH1 0x0 PUSH20 0xFFFFFFFFFFFFFFFFFFFFFFFFFFFFFFFFFFFFFFFF AND PUSH1 0x0 DUP1 SLOAD SWAP1 PUSH2 0x100 EXP SWAP1 DIV PUSH20 0xFFFFFFFFFFFFFFFFFFFFFFFFFFFFFFFFFFFFFFFF AND PUSH20 0xFFFFFFFFFFFFFFFFFFFFFFFFFFFFFFFFFFFFFFFF AND PUSH32 0x8BE0079C531659141344CD1FD0A4F28419497F9722A3DAAFE3B4186F6B6457E0 PUSH1 0x40 MLOAD PUSH1 0x40 MLOAD DUP1 SWAP2 SUB SWAP1 LOG3 PUSH1 0x0 DUP1 PUSH1 0x0 PUSH2 0x100 EXP DUP2 SLOAD DUP2 PUSH20 0xFFFFFFFFFFFFFFFFFFFFFFFFFFFFFFFFFFFFFFFF MUL NOT AND SWAP1 DUP4 PUSH20 0xFFFFFFFFFFFFFFFFFFFFFFFFFFFFFFFFFFFFFFFF AND MUL OR SWAP1 SSTORE POP JUMP JUMPDEST PUSH2 0x1621 PUSH2 0x27B0 JUMP JUMPDEST PUSH20 0xFFFFFFFFFFFFFFFFFFFFFFFFFFFFFFFFFFFFFFFF AND PUSH1 0x0 DUP1 SLOAD SWAP1 PUSH2 0x100 EXP SWAP1 DIV PUSH20 0xFFFFFFFFFFFFFFFFFFFFFFFFFFFFFFFFFFFFFFFF AND PUSH20 0xFFFFFFFFFFFFFFFFFFFFFFFFFFFFFFFFFFFFFFFF AND EQ PUSH2 0x16E1 JUMPI PUSH1 0x40 MLOAD PUSH32 0x8C379A000000000000000000000000000000000000000000000000000000000 DUP2 MSTORE PUSH1 0x4 ADD DUP1 DUP1 PUSH1 0x20 ADD DUP3 DUP2 SUB DUP3 MSTORE PUSH1 0x20 DUP2 MSTORE PUSH1 0x20 ADD DUP1 PUSH32 0x4F776E61626C653A2063616C6C6572206973206E6F7420746865206F776E6572 DUP2 MSTORE POP PUSH1 0x20 ADD SWAP2 POP POP PUSH1 0x40 MLOAD DUP1 SWAP2 SUB SWAP1 REVERT JUMPDEST PUSH2 0x2710 DUP3 PUSH2 0xFFFF AND GT ISZERO PUSH2 0x1740 JUMPI PUSH1 0x40 MLOAD PUSH32 0x8C379A000000000000000000000000000000000000000000000000000000000 DUP2 MSTORE PUSH1 0x4 ADD DUP1 DUP1 PUSH1 0x20 ADD DUP3 DUP2 SUB DUP3 MSTORE PUSH1 0x25 DUP2 MSTORE PUSH1 0x20 ADD DUP1 PUSH2 0x35C5 PUSH1 0x25 SWAP2 CODECOPY PUSH1 0x40 ADD SWAP2 POP POP PUSH1 0x40 MLOAD DUP1 SWAP2 SUB SWAP1 REVERT JUMPDEST DUP1 ISZERO PUSH2 0x174F JUMPI PUSH2 0x174E PUSH2 0x1267 JUMP JUMPDEST JUMPDEST PUSH1 0x0 PUSH1 0xC SLOAD NUMBER GT PUSH2 0x1762 JUMPI PUSH1 0xC SLOAD PUSH2 0x1764 JUMP JUMPDEST NUMBER JUMPDEST SWAP1 POP PUSH2 0x177B DUP6 PUSH1 0xB SLOAD PUSH2 0x2728 SWAP1 SWAP2 SWAP1 PUSH4 0xFFFFFFFF AND JUMP JUMPDEST PUSH1 0xB DUP2 SWAP1 SSTORE POP PUSH1 0x9 PUSH1 0x40 MLOAD DUP1 PUSH1 0xA0 ADD PUSH1 0x40 MSTORE DUP1 DUP7 PUSH20 0xFFFFFFFFFFFFFFFFFFFFFFFFFFFFFFFFFFFFFFFF AND DUP2 MSTORE PUSH1 0x20 ADD DUP8 DUP2 MSTORE PUSH1 0x20 ADD DUP4 DUP2 MSTORE PUSH1 0x20 ADD PUSH1 0x0 DUP2 MSTORE PUSH1 0x20 ADD DUP6 PUSH2 0xFFFF AND DUP2 MSTORE POP SWAP1 DUP1 PUSH1 0x1 DUP2 SLOAD ADD DUP1 DUP3 SSTORE DUP1 SWAP2 POP POP PUSH1 0x1 SWAP1 SUB SWAP1 PUSH1 0x0 MSTORE PUSH1 0x20 PUSH1 0x0 KECCAK256 SWAP1 PUSH1 0x5 MUL ADD PUSH1 0x0 SWAP1 SWAP2 SWAP1 SWAP2 SWAP1 SWAP2 POP PUSH1 0x0 DUP3 ADD MLOAD DUP2 PUSH1 0x0 ADD PUSH1 0x0 PUSH2 0x100 EXP DUP2 SLOAD DUP2 PUSH20 0xFFFFFFFFFFFFFFFFFFFFFFFFFFFFFFFFFFFFFFFF MUL NOT AND SWAP1 DUP4 PUSH20 0xFFFFFFFFFFFFFFFFFFFFFFFFFFFFFFFFFFFFFFFF AND MUL OR SWAP1 SSTORE POP PUSH1 0x20 DUP3 ADD MLOAD DUP2 PUSH1 0x1 ADD SSTORE PUSH1 0x40 DUP3 ADD MLOAD DUP2 PUSH1 0x2 ADD SSTORE PUSH1 0x60 DUP3 ADD MLOAD DUP2 PUSH1 0x3 ADD SSTORE PUSH1 0x80 DUP3 ADD MLOAD DUP2 PUSH1 0x4 ADD PUSH1 0x0 PUSH2 0x100 EXP DUP2 SLOAD DUP2 PUSH2 0xFFFF MUL NOT AND SWAP1 DUP4 PUSH2 0xFFFF AND MUL OR SWAP1 SSTORE POP POP POP POP POP POP POP POP JUMP JUMPDEST PUSH1 0x4 PUSH1 0x0 SWAP1 SLOAD SWAP1 PUSH2 0x100 EXP SWAP1 DIV PUSH20 0xFFFFFFFFFFFFFFFFFFFFFFFFFFFFFFFFFFFFFFFF AND PUSH20 0xFFFFFFFFFFFFFFFFFFFFFFFFFFFFFFFFFFFFFFFF AND CALLER PUSH20 0xFFFFFFFFFFFFFFFFFFFFFFFFFFFFFFFFFFFFFFFF AND EQ PUSH2 0x1942 JUMPI PUSH1 0x40 MLOAD PUSH32 0x8C379A000000000000000000000000000000000000000000000000000000000 DUP2 MSTORE PUSH1 0x4 ADD DUP1 DUP1 PUSH1 0x20 ADD DUP3 DUP2 SUB DUP3 MSTORE PUSH1 0x18 DUP2 MSTORE PUSH1 0x20 ADD DUP1 PUSH32 0x736574466565416464726573733A20464F5242494444454E0000000000000000 DUP2 MSTORE POP PUSH1 0x20 ADD SWAP2 POP POP PUSH1 0x40 MLOAD DUP1 SWAP2 SUB SWAP1 REVERT JUMPDEST DUP1 PUSH1 0x4 PUSH1 0x0 PUSH2 0x100 EXP DUP2 SLOAD DUP2 PUSH20 0xFFFFFFFFFFFFFFFFFFFFFFFFFFFFFFFFFFFFFFFF MUL NOT AND SWAP1 DUP4 PUSH20 0xFFFFFFFFFFFFFFFFFFFFFFFFFFFFFFFFFFFFFFFF AND MUL OR SWAP1 SSTORE POP POP JUMP JUMPDEST PUSH1 0x1 DUP2 JUMP JUMPDEST PUSH1 0x0 DUP1 PUSH1 0x0 SWAP1 SLOAD SWAP1 PUSH2 0x100 EXP SWAP1 DIV PUSH20 0xFFFFFFFFFFFFFFFFFFFFFFFFFFFFFFFFFFFFFFFF AND SWAP1 POP SWAP1 JUMP JUMPDEST PUSH1 0x0 PUSH2 0x19DC PUSH1 0x1 PUSH2 0x19CE DUP6 DUP6 PUSH2 0x256C SWAP1 SWAP2 SWAP1 PUSH4 0xFFFFFFFF AND JUMP JUMPDEST PUSH2 0x2658 SWAP1 SWAP2 SWAP1 PUSH4 0xFFFFFFFF AND JUMP JUMPDEST SWAP1 POP SWAP3 SWAP2 POP POP JUMP JUMPDEST PUSH1 0x2 PUSH1 0x1 SLOAD EQ ISZERO PUSH2 0x1A5D JUMPI PUSH1 0x40 MLOAD PUSH32 0x8C379A000000000000000000000000000000000000000000000000000000000 DUP2 MSTORE PUSH1 0x4 ADD DUP1 DUP1 PUSH1 0x20 ADD DUP3 DUP2 SUB DUP3 MSTORE PUSH1 0x1F DUP2 MSTORE PUSH1 0x20 ADD DUP1 PUSH32 0x5265656E7472616E637947756172643A207265656E7472616E742063616C6C00 DUP2 MSTORE POP PUSH1 0x20 ADD SWAP2 POP POP PUSH1 0x40 MLOAD DUP1 SWAP2 SUB SWAP1 REVERT JUMPDEST PUSH1 0x2 PUSH1 0x1 DUP2 SWAP1 SSTORE POP DUP1 PUSH20 0xFFFFFFFFFFFFFFFFFFFFFFFFFFFFFFFFFFFFFFFF AND DUP2 PUSH20 0xFFFFFFFFFFFFFFFFFFFFFFFFFFFFFFFFFFFFFFFF AND EQ PUSH2 0x1AE9 JUMPI PUSH1 0x40 MLOAD PUSH32 0x8C379A000000000000000000000000000000000000000000000000000000000 DUP2 MSTORE PUSH1 0x4 ADD DUP1 DUP1 PUSH1 0x20 ADD DUP3 DUP2 SUB DUP3 MSTORE PUSH1 0x21 DUP2 MSTORE PUSH1 0x20 ADD DUP1 PUSH2 0x3674 PUSH1 0x21 SWAP2 CODECOPY PUSH1 0x40 ADD SWAP2 POP POP PUSH1 0x40 MLOAD DUP1 SWAP2 SUB SWAP1 REVERT JUMPDEST PUSH1 0x0 PUSH1 0x9 DUP5 DUP2 SLOAD DUP2 LT PUSH2 0x1AF8 JUMPI INVALID JUMPDEST SWAP1 PUSH1 0x0 MSTORE PUSH1 0x20 PUSH1 0x0 KECCAK256 SWAP1 PUSH1 0x5 MUL ADD SWAP1 POP PUSH1 0x0 PUSH1 0xA PUSH1 0x0 DUP7 DUP2 MSTORE PUSH1 0x20 ADD SWAP1 DUP2 MSTORE PUSH1 0x20 ADD PUSH1 0x0 KECCAK256 PUSH1 0x0 CALLER PUSH20 0xFFFFFFFFFFFFFFFFFFFFFFFFFFFFFFFFFFFFFFFF AND PUSH20 0xFFFFFFFFFFFFFFFFFFFFFFFFFFFFFFFFFFFFFFFF AND DUP2 MSTORE PUSH1 0x20 ADD SWAP1 DUP2 MSTORE PUSH1 0x20 ADD PUSH1 0x0 KECCAK256 SWAP1 POP PUSH2 0x1B65 DUP6 PUSH2 0xD50 JUMP JUMPDEST PUSH2 0x1B6E DUP6 PUSH2 0x2454 JUMP JUMPDEST PUSH1 0x0 DUP5 GT DUP1 ISZERO PUSH2 0x1BAB JUMPI POP PUSH1 0x0 PUSH20 0xFFFFFFFFFFFFFFFFFFFFFFFFFFFFFFFFFFFFFFFF AND DUP4 PUSH20 0xFFFFFFFFFFFFFFFFFFFFFFFFFFFFFFFFFFFFFFFF AND EQ ISZERO JUMPDEST DUP1 ISZERO PUSH2 0x1BE3 JUMPI POP CALLER PUSH20 0xFFFFFFFFFFFFFFFFFFFFFFFFFFFFFFFFFFFFFFFF AND DUP4 PUSH20 0xFFFFFFFFFFFFFFFFFFFFFFFFFFFFFFFFFFFFFFFF AND EQ ISZERO JUMPDEST ISZERO PUSH2 0x1BF3 JUMPI PUSH2 0x1BF2 CALLER DUP5 PUSH2 0x27B8 JUMP JUMPDEST JUMPDEST PUSH1 0x0 DUP5 GT ISZERO PUSH2 0x1D76 JUMPI PUSH2 0x1C4D CALLER ADDRESS DUP7 DUP6 PUSH1 0x0 ADD PUSH1 0x0 SWAP1 SLOAD SWAP1 PUSH2 0x100 EXP SWAP1 DIV PUSH20 0xFFFFFFFFFFFFFFFFFFFFFFFFFFFFFFFFFFFFFFFF AND PUSH20 0xFFFFFFFFFFFFFFFFFFFFFFFFFFFFFFFFFFFFFFFF AND PUSH2 0x2A1F SWAP1 SWAP4 SWAP3 SWAP2 SWAP1 PUSH4 0xFFFFFFFF AND JUMP JUMPDEST PUSH1 0x0 DUP3 PUSH1 0x4 ADD PUSH1 0x0 SWAP1 SLOAD SWAP1 PUSH2 0x100 EXP SWAP1 DIV PUSH2 0xFFFF AND PUSH2 0xFFFF AND GT ISZERO PUSH2 0x1D55 JUMPI PUSH1 0x0 PUSH2 0x1CAB PUSH2 0x2710 PUSH2 0x1C9D DUP6 PUSH1 0x4 ADD PUSH1 0x0 SWAP1 SLOAD SWAP1 PUSH2 0x100 EXP SWAP1 DIV PUSH2 0xFFFF AND PUSH2 0xFFFF AND DUP9 PUSH2 0x2658 SWAP1 SWAP2 SWAP1 PUSH4 0xFFFFFFFF AND JUMP JUMPDEST PUSH2 0x26DE SWAP1 SWAP2 SWAP1 PUSH4 0xFFFFFFFF AND JUMP JUMPDEST SWAP1 POP PUSH2 0x1CD6 DUP2 PUSH2 0x1CC8 DUP8 DUP6 PUSH1 0x0 ADD SLOAD PUSH2 0x2728 SWAP1 SWAP2 SWAP1 PUSH4 0xFFFFFFFF AND JUMP JUMPDEST PUSH2 0x256C SWAP1 SWAP2 SWAP1 PUSH4 0xFFFFFFFF AND JUMP JUMPDEST DUP3 PUSH1 0x0 ADD DUP2 SWAP1 SSTORE POP PUSH2 0x1D4F PUSH1 0x4 PUSH1 0x0 SWAP1 SLOAD SWAP1 PUSH2 0x100 EXP SWAP1 DIV PUSH20 0xFFFFFFFFFFFFFFFFFFFFFFFFFFFFFFFFFFFFFFFF AND DUP3 DUP6 PUSH1 0x0 ADD PUSH1 0x0 SWAP1 SLOAD SWAP1 PUSH2 0x100 EXP SWAP1 DIV PUSH20 0xFFFFFFFFFFFFFFFFFFFFFFFFFFFFFFFFFFFFFFFF AND PUSH20 0xFFFFFFFFFFFFFFFFFFFFFFFFFFFFFFFFFFFFFFFF AND PUSH2 0x25B6 SWAP1 SWAP3 SWAP2 SWAP1 PUSH4 0xFFFFFFFF AND JUMP JUMPDEST POP PUSH2 0x1D75 JUMP JUMPDEST PUSH2 0x1D6C DUP5 DUP3 PUSH1 0x0 ADD SLOAD PUSH2 0x2728 SWAP1 SWAP2 SWAP1 PUSH4 0xFFFFFFFF AND JUMP JUMPDEST DUP2 PUSH1 0x0 ADD DUP2 SWAP1 SSTORE POP JUMPDEST JUMPDEST PUSH2 0x1DA8 PUSH5 0xE8D4A51000 PUSH2 0x1D9A DUP5 PUSH1 0x3 ADD SLOAD DUP5 PUSH1 0x0 ADD SLOAD PUSH2 0x2658 SWAP1 SWAP2 SWAP1 PUSH4 0xFFFFFFFF AND JUMP JUMPDEST PUSH2 0x26DE SWAP1 SWAP2 SWAP1 PUSH4 0xFFFFFFFF AND JUMP JUMPDEST DUP2 PUSH1 0x1 ADD DUP2 SWAP1 SSTORE POP DUP5 CALLER PUSH20 0xFFFFFFFFFFFFFFFFFFFFFFFFFFFFFFFFFFFFFFFF AND PUSH32 0x90890809C654F11D6E72A28FA60149770A0D11EC6C92319D6CEB2BB0A4EA1A15 DUP7 PUSH1 0x40 MLOAD DUP1 DUP3 DUP2 MSTORE PUSH1 0x20 ADD SWAP2 POP POP PUSH1 0x40 MLOAD DUP1 SWAP2 SUB SWAP1 LOG3 POP POP PUSH1 0x1 DUP1 DUP2 SWAP1 SSTORE POP POP POP POP JUMP JUMPDEST PUSH8 0xDE0B6B3A7640000 DUP2 JUMP JUMPDEST PUSH1 0xA PUSH1 0x20 MSTORE DUP2 PUSH1 0x0 MSTORE PUSH1 0x40 PUSH1 0x0 KECCAK256 PUSH1 0x20 MSTORE DUP1 PUSH1 0x0 MSTORE PUSH1 0x40 PUSH1 0x0 KECCAK256 PUSH1 0x0 SWAP2 POP SWAP2 POP POP DUP1 PUSH1 0x0 ADD SLOAD SWAP1 DUP1 PUSH1 0x1 ADD SLOAD SWAP1 DUP1 PUSH1 0x2 ADD SLOAD SWAP1 POP DUP4 JUMP JUMPDEST PUSH1 0x0 DUP1 PUSH1 0x9 DUP5 DUP2 SLOAD DUP2 LT PUSH2 0x1E60 JUMPI INVALID JUMPDEST SWAP1 PUSH1 0x0 MSTORE PUSH1 0x20 PUSH1 0x0 KECCAK256 SWAP1 PUSH1 0x5 MUL ADD SWAP1 POP PUSH1 0x0 PUSH1 0xA PUSH1 0x0 DUP7 DUP2 MSTORE PUSH1 0x20 ADD SWAP1 DUP2 MSTORE PUSH1 0x20 ADD PUSH1 0x0 KECCAK256 PUSH1 0x0 DUP6 PUSH20 0xFFFFFFFFFFFFFFFFFFFFFFFFFFFFFFFFFFFFFFFF AND PUSH20 0xFFFFFFFFFFFFFFFFFFFFFFFFFFFFFFFFFFFFFFFF AND DUP2 MSTORE PUSH1 0x20 ADD SWAP1 DUP2 MSTORE PUSH1 0x20 ADD PUSH1 0x0 KECCAK256 SWAP1 POP PUSH1 0x0 DUP3 PUSH1 0x3 ADD SLOAD SWAP1 POP PUSH1 0x0 DUP4 PUSH1 0x0 ADD PUSH1 0x0 SWAP1 SLOAD SWAP1 PUSH2 0x100 EXP SWAP1 DIV PUSH20 0xFFFFFFFFFFFFFFFFFFFFFFFFFFFFFFFFFFFFFFFF AND PUSH20 0xFFFFFFFFFFFFFFFFFFFFFFFFFFFFFFFFFFFFFFFF AND PUSH4 0x70A08231 ADDRESS PUSH1 0x40 MLOAD DUP3 PUSH4 0xFFFFFFFF AND PUSH1 0xE0 SHL DUP2 MSTORE PUSH1 0x4 ADD DUP1 DUP3 PUSH20 0xFFFFFFFFFFFFFFFFFFFFFFFFFFFFFFFFFFFFFFFF AND DUP2 MSTORE PUSH1 0x20 ADD SWAP2 POP POP PUSH1 0x20 PUSH1 0x40 MLOAD DUP1 DUP4 SUB DUP2 DUP7 DUP1 EXTCODESIZE ISZERO DUP1 ISZERO PUSH2 0x1F5A JUMPI PUSH1 0x0 DUP1 REVERT JUMPDEST POP GAS STATICCALL ISZERO DUP1 ISZERO PUSH2 0x1F6E JUMPI RETURNDATASIZE PUSH1 0x0 DUP1 RETURNDATACOPY RETURNDATASIZE PUSH1 0x0 REVERT JUMPDEST POP POP POP POP PUSH1 0x40 MLOAD RETURNDATASIZE PUSH1 0x20 DUP2 LT ISZERO PUSH2 0x1F84 JUMPI PUSH1 0x0 DUP1 REVERT JUMPDEST DUP2 ADD SWAP1 DUP1 DUP1 MLOAD SWAP1 PUSH1 0x20 ADD SWAP1 SWAP3 SWAP2 SWAP1 POP POP POP SWAP1 POP DUP4 PUSH1 0x2 ADD SLOAD NUMBER GT DUP1 ISZERO PUSH2 0x1FAB JUMPI POP PUSH1 0x0 DUP2 EQ ISZERO JUMPDEST ISZERO PUSH2 0x2046 JUMPI PUSH1 0x0 PUSH2 0x1FC0 DUP6 PUSH1 0x2 ADD SLOAD NUMBER PUSH2 0x19B4 JUMP JUMPDEST SWAP1 POP PUSH1 0x0 PUSH2 0x2003 PUSH1 0xB SLOAD PUSH2 0x1FF5 DUP9 PUSH1 0x1 ADD SLOAD PUSH2 0x1FE7 PUSH1 0x5 SLOAD DUP8 PUSH2 0x2658 SWAP1 SWAP2 SWAP1 PUSH4 0xFFFFFFFF AND JUMP JUMPDEST PUSH2 0x2658 SWAP1 SWAP2 SWAP1 PUSH4 0xFFFFFFFF AND JUMP JUMPDEST PUSH2 0x26DE SWAP1 SWAP2 SWAP1 PUSH4 0xFFFFFFFF AND JUMP JUMPDEST SWAP1 POP PUSH2 0x2041 PUSH2 0x2032 DUP5 PUSH2 0x2024 PUSH5 0xE8D4A51000 DUP6 PUSH2 0x2658 SWAP1 SWAP2 SWAP1 PUSH4 0xFFFFFFFF AND JUMP JUMPDEST PUSH2 0x26DE SWAP1 SWAP2 SWAP1 PUSH4 0xFFFFFFFF AND JUMP JUMPDEST DUP6 PUSH2 0x2728 SWAP1 SWAP2 SWAP1 PUSH4 0xFFFFFFFF AND JUMP JUMPDEST SWAP4 POP POP POP JUMPDEST PUSH2 0x208A DUP4 PUSH1 0x1 ADD SLOAD PUSH2 0x207C PUSH5 0xE8D4A51000 PUSH2 0x206E DUP7 DUP9 PUSH1 0x0 ADD SLOAD PUSH2 0x2658 SWAP1 SWAP2 SWAP1 PUSH4 0xFFFFFFFF AND JUMP JUMPDEST PUSH2 0x26DE SWAP1 SWAP2 SWAP1 PUSH4 0xFFFFFFFF AND JUMP JUMPDEST PUSH2 0x256C SWAP1 SWAP2 SWAP1 PUSH4 0xFFFFFFFF AND JUMP JUMPDEST SWAP5 POP POP POP POP POP SWAP3 SWAP2 POP POP JUMP JUMPDEST PUSH1 0x3 PUSH1 0x0 SWAP1 SLOAD SWAP1 PUSH2 0x100 EXP SWAP1 DIV PUSH20 0xFFFFFFFFFFFFFFFFFFFFFFFFFFFFFFFFFFFFFFFF AND PUSH20 0xFFFFFFFFFFFFFFFFFFFFFFFFFFFFFFFFFFFFFFFF AND CALLER PUSH20 0xFFFFFFFFFFFFFFFFFFFFFFFFFFFFFFFFFFFFFFFF AND EQ PUSH2 0x2159 JUMPI PUSH1 0x40 MLOAD PUSH32 0x8C379A000000000000000000000000000000000000000000000000000000000 DUP2 MSTORE PUSH1 0x4 ADD DUP1 DUP1 PUSH1 0x20 ADD DUP3 DUP2 SUB DUP3 MSTORE PUSH1 0x18 DUP2 MSTORE PUSH1 0x20 ADD DUP1 PUSH32 0x736574446576416464726573733A20464F5242494444454E0000000000000000 DUP2 MSTORE POP PUSH1 0x20 ADD SWAP2 POP POP PUSH1 0x40 MLOAD DUP1 SWAP2 SUB SWAP1 REVERT JUMPDEST DUP1 PUSH1 0x3 PUSH1 0x0 PUSH2 0x100 EXP DUP2 SLOAD DUP2 PUSH20 0xFFFFFFFFFFFFFFFFFFFFFFFFFFFFFFFFFFFFFFFF MUL NOT AND SWAP1 DUP4 PUSH20 0xFFFFFFFFFFFFFFFFFFFFFFFFFFFFFFFFFFFFFFFF AND MUL OR SWAP1 SSTORE POP POP JUMP JUMPDEST PUSH2 0x21A5 PUSH2 0x27B0 JUMP JUMPDEST PUSH20 0xFFFFFFFFFFFFFFFFFFFFFFFFFFFFFFFFFFFFFFFF AND PUSH1 0x0 DUP1 SLOAD SWAP1 PUSH2 0x100 EXP SWAP1 DIV PUSH20 0xFFFFFFFFFFFFFFFFFFFFFFFFFFFFFFFFFFFFFFFF AND PUSH20 0xFFFFFFFFFFFFFFFFFFFFFFFFFFFFFFFFFFFFFFFF AND EQ PUSH2 0x2265 JUMPI PUSH1 0x40 MLOAD PUSH32 0x8C379A000000000000000000000000000000000000000000000000000000000 DUP2 MSTORE PUSH1 0x4 ADD DUP1 DUP1 PUSH1 0x20 ADD DUP3 DUP2 SUB DUP3 MSTORE PUSH1 0x20 DUP2 MSTORE PUSH1 0x20 ADD DUP1 PUSH32 0x4F776E61626C653A2063616C6C6572206973206E6F7420746865206F776E6572 DUP2 MSTORE POP PUSH1 0x20 ADD SWAP2 POP POP PUSH1 0x40 MLOAD DUP1 SWAP2 SUB SWAP1 REVERT JUMPDEST PUSH2 0x2710 DUP3 PUSH2 0xFFFF AND GT ISZERO PUSH2 0x22C4 JUMPI PUSH1 0x40 MLOAD PUSH32 0x8C379A000000000000000000000000000000000000000000000000000000000 DUP2 MSTORE PUSH1 0x4 ADD DUP1 DUP1 PUSH1 0x20 ADD DUP3 DUP2 SUB DUP3 MSTORE PUSH1 0x25 DUP2 MSTORE PUSH1 0x20 ADD DUP1 PUSH2 0x36B6 PUSH1 0x25 SWAP2 CODECOPY PUSH1 0x40 ADD SWAP2 POP POP PUSH1 0x40 MLOAD DUP1 SWAP2 SUB SWAP1 REVERT JUMPDEST DUP1 ISZERO PUSH2 0x22D3 JUMPI PUSH2 0x22D2 PUSH2 0x1267 JUMP JUMPDEST JUMPDEST PUSH2 0x2318 DUP4 PUSH2 0x230A PUSH1 0x9 DUP8 DUP2 SLOAD DUP2 LT PUSH2 0x22E7 JUMPI INVALID JUMPDEST SWAP1 PUSH1 0x0 MSTORE PUSH1 0x20 PUSH1 0x0 KECCAK256 SWAP1 PUSH1 0x5 MUL ADD PUSH1 0x1 ADD SLOAD PUSH1 0xB SLOAD PUSH2 0x256C SWAP1 SWAP2 SWAP1 PUSH4 0xFFFFFFFF AND JUMP JUMPDEST PUSH2 0x2728 SWAP1 SWAP2 SWAP1 PUSH4 0xFFFFFFFF AND JUMP JUMPDEST PUSH1 0xB DUP2 SWAP1 SSTORE POP DUP3 PUSH1 0x9 DUP6 DUP2 SLOAD DUP2 LT PUSH2 0x232C JUMPI INVALID JUMPDEST SWAP1 PUSH1 0x0 MSTORE PUSH1 0x20 PUSH1 0x0 KECCAK256 SWAP1 PUSH1 0x5 MUL ADD PUSH1 0x1 ADD DUP2 SWAP1 SSTORE POP DUP2 PUSH1 0x9 DUP6 DUP2 SLOAD DUP2 LT PUSH2 0x234F JUMPI INVALID JUMPDEST SWAP1 PUSH1 0x0 MSTORE PUSH1 0x20 PUSH1 0x0 KECCAK256 SWAP1 PUSH1 0x5 MUL ADD PUSH1 0x4 ADD PUSH1 0x0 PUSH2 0x100 EXP DUP2 SLOAD DUP2 PUSH2 0xFFFF MUL NOT AND SWAP1 DUP4 PUSH2 0xFFFF AND MUL OR SWAP1 SSTORE POP POP POP POP POP JUMP JUMPDEST PUSH2 0x2388 PUSH2 0x27B0 JUMP JUMPDEST PUSH20 0xFFFFFFFFFFFFFFFFFFFFFFFFFFFFFFFFFFFFFFFF AND PUSH1 0x0 DUP1 SLOAD SWAP1 PUSH2 0x100 EXP SWAP1 DIV PUSH20 0xFFFFFFFFFFFFFFFFFFFFFFFFFFFFFFFFFFFFFFFF AND PUSH20 0xFFFFFFFFFFFFFFFFFFFFFFFFFFFFFFFFFFFFFFFF AND EQ PUSH2 0x2448 JUMPI PUSH1 0x40 MLOAD PUSH32 0x8C379A000000000000000000000000000000000000000000000000000000000 DUP2 MSTORE PUSH1 0x4 ADD DUP1 DUP1 PUSH1 0x20 ADD DUP3 DUP2 SUB DUP3 MSTORE PUSH1 0x20 DUP2 MSTORE PUSH1 0x20 ADD DUP1 PUSH32 0x4F776E61626C653A2063616C6C6572206973206E6F7420746865206F776E6572 DUP2 MSTORE POP PUSH1 0x20 ADD SWAP2 POP POP PUSH1 0x40 MLOAD DUP1 SWAP2 SUB SWAP1 REVERT JUMPDEST PUSH2 0x2451 DUP2 PUSH2 0x2AE0 JUMP JUMPDEST POP JUMP JUMPDEST PUSH1 0x0 PUSH1 0x9 DUP3 DUP2 SLOAD DUP2 LT PUSH2 0x2463 JUMPI INVALID JUMPDEST SWAP1 PUSH1 0x0 MSTORE PUSH1 0x20 PUSH1 0x0 KECCAK256 SWAP1 PUSH1 0x5 MUL ADD SWAP1 POP PUSH1 0x0 PUSH1 0xA PUSH1 0x0 DUP5 DUP2 MSTORE PUSH1 0x20 ADD SWAP1 DUP2 MSTORE PUSH1 0x20 ADD PUSH1 0x0 KECCAK256 PUSH1 0x0 CALLER PUSH20 0xFFFFFFFFFFFFFFFFFFFFFFFFFFFFFFFFFFFFFFFF AND PUSH20 0xFFFFFFFFFFFFFFFFFFFFFFFFFFFFFFFFFFFFFFFF AND DUP2 MSTORE PUSH1 0x20 ADD SWAP1 DUP2 MSTORE PUSH1 0x20 ADD PUSH1 0x0 KECCAK256 SWAP1 POP PUSH1 0x0 PUSH2 0x2511 DUP3 PUSH1 0x1 ADD SLOAD PUSH2 0x2503 PUSH5 0xE8D4A51000 PUSH2 0x24F5 DUP8 PUSH1 0x3 ADD SLOAD DUP8 PUSH1 0x0 ADD SLOAD PUSH2 0x2658 SWAP1 SWAP2 SWAP1 PUSH4 0xFFFFFFFF AND JUMP JUMPDEST PUSH2 0x26DE SWAP1 SWAP2 SWAP1 PUSH4 0xFFFFFFFF AND JUMP JUMPDEST PUSH2 0x256C SWAP1 SWAP2 SWAP1 PUSH4 0xFFFFFFFF AND JUMP JUMPDEST SWAP1 POP PUSH1 0x0 DUP2 GT DUP1 PUSH2 0x2526 JUMPI POP PUSH1 0x0 DUP3 PUSH1 0x2 ADD SLOAD GT JUMPDEST ISZERO PUSH2 0x2566 JUMPI PUSH1 0x0 PUSH2 0x2544 DUP4 PUSH1 0x2 ADD SLOAD DUP4 PUSH2 0x2728 SWAP1 SWAP2 SWAP1 PUSH4 0xFFFFFFFF AND JUMP JUMPDEST SWAP1 POP PUSH1 0x0 DUP4 PUSH1 0x2 ADD DUP2 SWAP1 SSTORE POP PUSH2 0x255A CALLER DUP3 PUSH2 0x2C23 JUMP JUMPDEST PUSH2 0x2564 CALLER DUP3 PUSH2 0x2EF7 JUMP JUMPDEST POP JUMPDEST POP POP POP POP JUMP JUMPDEST PUSH1 0x0 PUSH2 0x25AE DUP4 DUP4 PUSH1 0x40 MLOAD DUP1 PUSH1 0x40 ADD PUSH1 0x40 MSTORE DUP1 PUSH1 0x1E DUP2 MSTORE PUSH1 0x20 ADD PUSH32 0x536166654D6174683A207375627472616374696F6E206F766572666C6F770000 DUP2 MSTORE POP PUSH2 0x30C4 JUMP JUMPDEST SWAP1 POP SWAP3 SWAP2 POP POP JUMP JUMPDEST PUSH2 0x2653 DUP4 PUSH4 0xA9059CBB PUSH1 0xE0 SHL DUP5 DUP5 PUSH1 0x40 MLOAD PUSH1 0x24 ADD DUP1 DUP4 PUSH20 0xFFFFFFFFFFFFFFFFFFFFFFFFFFFFFFFFFFFFFFFF AND DUP2 MSTORE PUSH1 0x20 ADD DUP3 DUP2 MSTORE PUSH1 0x20 ADD SWAP3 POP POP POP PUSH1 0x40 MLOAD PUSH1 0x20 DUP2 DUP4 SUB SUB DUP2 MSTORE SWAP1 PUSH1 0x40 MSTORE SWAP1 PUSH28 0xFFFFFFFFFFFFFFFFFFFFFFFFFFFFFFFFFFFFFFFFFFFFFFFFFFFFFFFF NOT AND PUSH1 0x20 DUP3 ADD DUP1 MLOAD PUSH28 0xFFFFFFFFFFFFFFFFFFFFFFFFFFFFFFFFFFFFFFFFFFFFFFFFFFFFFFFF DUP4 DUP2 DUP4 AND OR DUP4 MSTORE POP POP POP POP PUSH2 0x3184 JUMP JUMPDEST POP POP POP JUMP JUMPDEST PUSH1 0x0 DUP1 DUP4 EQ ISZERO PUSH2 0x266B JUMPI PUSH1 0x0 SWAP1 POP PUSH2 0x26D8 JUMP JUMPDEST PUSH1 0x0 DUP3 DUP5 MUL SWAP1 POP DUP3 DUP5 DUP3 DUP2 PUSH2 0x267C JUMPI INVALID JUMPDEST DIV EQ PUSH2 0x26D3 JUMPI PUSH1 0x40 MLOAD PUSH32 0x8C379A000000000000000000000000000000000000000000000000000000000 DUP2 MSTORE PUSH1 0x4 ADD DUP1 DUP1 PUSH1 0x20 ADD DUP3 DUP2 SUB DUP3 MSTORE PUSH1 0x21 DUP2 MSTORE PUSH1 0x20 ADD DUP1 PUSH2 0x3695 PUSH1 0x21 SWAP2 CODECOPY PUSH1 0x40 ADD SWAP2 POP POP PUSH1 0x40 MLOAD DUP1 SWAP2 SUB SWAP1 REVERT JUMPDEST DUP1 SWAP2 POP POP JUMPDEST SWAP3 SWAP2 POP POP JUMP JUMPDEST PUSH1 0x0 PUSH2 0x2720 DUP4 DUP4 PUSH1 0x40 MLOAD DUP1 PUSH1 0x40 ADD PUSH1 0x40 MSTORE DUP1 PUSH1 0x1A DUP2 MSTORE PUSH1 0x20 ADD PUSH32 0x536166654D6174683A206469766973696F6E206279207A65726F000000000000 DUP2 MSTORE POP PUSH2 0x3273 JUMP JUMPDEST SWAP1 POP SWAP3 SWAP2 POP POP JUMP JUMPDEST PUSH1 0x0 DUP1 DUP3 DUP5 ADD SWAP1 POP DUP4 DUP2 LT ISZERO PUSH2 0x27A6 JUMPI PUSH1 0x40 MLOAD PUSH32 0x8C379A000000000000000000000000000000000000000000000000000000000 DUP2 MSTORE PUSH1 0x4 ADD DUP1 DUP1 PUSH1 0x20 ADD DUP3 DUP2 SUB DUP3 MSTORE PUSH1 0x1B DUP2 MSTORE PUSH1 0x20 ADD DUP1 PUSH32 0x536166654D6174683A206164646974696F6E206F766572666C6F770000000000 DUP2 MSTORE POP PUSH1 0x20 ADD SWAP2 POP POP PUSH1 0x40 MLOAD DUP1 SWAP2 SUB SWAP1 REVERT JUMPDEST DUP1 SWAP2 POP POP SWAP3 SWAP2 POP POP JUMP JUMPDEST PUSH1 0x0 CALLER SWAP1 POP SWAP1 JUMP JUMPDEST DUP1 PUSH20 0xFFFFFFFFFFFFFFFFFFFFFFFFFFFFFFFFFFFFFFFF AND DUP2 PUSH20 0xFFFFFFFFFFFFFFFFFFFFFFFFFFFFFFFFFFFFFFFF AND EQ DUP1 ISZERO PUSH2 0x287E JUMPI POP PUSH1 0x0 PUSH20 0xFFFFFFFFFFFFFFFFFFFFFFFFFFFFFFFFFFFFFFFF AND PUSH1 0x7 PUSH1 0x0 DUP5 PUSH20 0xFFFFFFFFFFFFFFFFFFFFFFFFFFFFFFFFFFFFFFFF AND PUSH20 0xFFFFFFFFFFFFFFFFFFFFFFFFFFFFFFFFFFFFFFFF AND DUP2 MSTORE PUSH1 0x20 ADD SWAP1 DUP2 MSTORE PUSH1 0x20 ADD PUSH1 0x0 KECCAK256 PUSH1 0x0 SWAP1 SLOAD SWAP1 PUSH2 0x100 EXP SWAP1 DIV PUSH20 0xFFFFFFFFFFFFFFFFFFFFFFFFFFFFFFFFFFFFFFFF AND PUSH20 0xFFFFFFFFFFFFFFFFFFFFFFFFFFFFFFFFFFFFFFFF AND EQ JUMPDEST DUP1 ISZERO PUSH2 0x28B7 JUMPI POP PUSH1 0x0 PUSH20 0xFFFFFFFFFFFFFFFFFFFFFFFFFFFFFFFFFFFFFFFF AND DUP2 PUSH20 0xFFFFFFFFFFFFFFFFFFFFFFFFFFFFFFFFFFFFFFFF AND EQ ISZERO JUMPDEST DUP1 ISZERO PUSH2 0x28EF JUMPI POP DUP2 PUSH20 0xFFFFFFFFFFFFFFFFFFFFFFFFFFFFFFFFFFFFFFFF AND DUP2 PUSH20 0xFFFFFFFFFFFFFFFFFFFFFFFFFFFFFFFFFFFFFFFF AND EQ ISZERO JUMPDEST ISZERO PUSH2 0x2A1B JUMPI DUP1 PUSH1 0x7 PUSH1 0x0 DUP5 PUSH20 0xFFFFFFFFFFFFFFFFFFFFFFFFFFFFFFFFFFFFFFFF AND PUSH20 0xFFFFFFFFFFFFFFFFFFFFFFFFFFFFFFFFFFFFFFFF AND DUP2 MSTORE PUSH1 0x20 ADD SWAP1 DUP2 MSTORE PUSH1 0x20 ADD PUSH1 0x0 KECCAK256 PUSH1 0x0 PUSH2 0x100 EXP DUP2 SLOAD DUP2 PUSH20 0xFFFFFFFFFFFFFFFFFFFFFFFFFFFFFFFFFFFFFFFF MUL NOT AND SWAP1 DUP4 PUSH20 0xFFFFFFFFFFFFFFFFFFFFFFFFFFFFFFFFFFFFFFFF AND MUL OR SWAP1 SSTORE POP PUSH1 0x1 PUSH1 0x8 PUSH1 0x0 DUP4 PUSH20 0xFFFFFFFFFFFFFFFFFFFFFFFFFFFFFFFFFFFFFFFF AND PUSH20 0xFFFFFFFFFFFFFFFFFFFFFFFFFFFFFFFFFFFFFFFF AND DUP2 MSTORE PUSH1 0x20 ADD SWAP1 DUP2 MSTORE PUSH1 0x20 ADD PUSH1 0x0 KECCAK256 PUSH1 0x0 DUP3 DUP3 SLOAD ADD SWAP3 POP POP DUP2 SWAP1 SSTORE POP DUP1 PUSH20 0xFFFFFFFFFFFFFFFFFFFFFFFFFFFFFFFFFFFFFFFF AND DUP3 PUSH20 0xFFFFFFFFFFFFFFFFFFFFFFFFFFFFFFFFFFFFFFFF AND PUSH32 0x9D05414FB79FAC216C15606DE5CC06664E91A254E4D5F57664D5F1BEAF7FB7EF PUSH1 0x40 MLOAD PUSH1 0x40 MLOAD DUP1 SWAP2 SUB SWAP1 LOG3 JUMPDEST POP POP JUMP JUMPDEST PUSH2 0x2ADA DUP5 PUSH4 0x23B872DD PUSH1 0xE0 SHL DUP6 DUP6 DUP6 PUSH1 0x40 MLOAD PUSH1 0x24 ADD DUP1 DUP5 PUSH20 0xFFFFFFFFFFFFFFFFFFFFFFFFFFFFFFFFFFFFFFFF AND DUP2 MSTORE PUSH1 0x20 ADD DUP4 PUSH20 0xFFFFFFFFFFFFFFFFFFFFFFFFFFFFFFFFFFFFFFFF AND DUP2 MSTORE PUSH1 0x20 ADD DUP3 DUP2 MSTORE PUSH1 0x20 ADD SWAP4 POP POP POP POP PUSH1 0x40 MLOAD PUSH1 0x20 DUP2 DUP4 SUB SUB DUP2 MSTORE SWAP1 PUSH1 0x40 MSTORE SWAP1 PUSH28 0xFFFFFFFFFFFFFFFFFFFFFFFFFFFFFFFFFFFFFFFFFFFFFFFFFFFFFFFF NOT AND PUSH1 0x20 DUP3 ADD DUP1 MLOAD PUSH28 0xFFFFFFFFFFFFFFFFFFFFFFFFFFFFFFFFFFFFFFFFFFFFFFFFFFFFFFFF DUP4 DUP2 DUP4 AND OR DUP4 MSTORE POP POP POP POP PUSH2 0x3184 JUMP JUMPDEST POP POP POP POP JUMP JUMPDEST PUSH1 0x0 PUSH20 0xFFFFFFFFFFFFFFFFFFFFFFFFFFFFFFFFFFFFFFFF AND DUP2 PUSH20 0xFFFFFFFFFFFFFFFFFFFFFFFFFFFFFFFFFFFFFFFF AND EQ ISZERO PUSH2 0x2B66 JUMPI PUSH1 0x40 MLOAD PUSH32 0x8C379A000000000000000000000000000000000000000000000000000000000 DUP2 MSTORE PUSH1 0x4 ADD DUP1 DUP1 PUSH1 0x20 ADD DUP3 DUP2 SUB DUP3 MSTORE PUSH1 0x26 DUP2 MSTORE PUSH1 0x20 ADD DUP1 PUSH2 0x364E PUSH1 0x26 SWAP2 CODECOPY PUSH1 0x40 ADD SWAP2 POP POP PUSH1 0x40 MLOAD DUP1 SWAP2 SUB SWAP1 REVERT JUMPDEST DUP1 PUSH20 0xFFFFFFFFFFFFFFFFFFFFFFFFFFFFFFFFFFFFFFFF AND PUSH1 0x0 DUP1 SLOAD SWAP1 PUSH2 0x100 EXP SWAP1 DIV PUSH20 0xFFFFFFFFFFFFFFFFFFFFFFFFFFFFFFFFFFFFFFFF AND PUSH20 0xFFFFFFFFFFFFFFFFFFFFFFFFFFFFFFFFFFFFFFFF AND PUSH32 0x8BE0079C531659141344CD1FD0A4F28419497F9722A3DAAFE3B4186F6B6457E0 PUSH1 0x40 MLOAD PUSH1 0x40 MLOAD DUP1 SWAP2 SUB SWAP1 LOG3 DUP1 PUSH1 0x0 DUP1 PUSH2 0x100 EXP DUP2 SLOAD DUP2 PUSH20 0xFFFFFFFFFFFFFFFFFFFFFFFFFFFFFFFFFFFFFFFF MUL NOT AND SWAP1 DUP4 PUSH20 0xFFFFFFFFFFFFFFFFFFFFFFFFFFFFFFFFFFFFFFFF AND MUL OR SWAP1 SSTORE POP POP JUMP JUMPDEST PUSH1 0x0 PUSH1 0x2 PUSH1 0x0 SWAP1 SLOAD SWAP1 PUSH2 0x100 EXP SWAP1 DIV PUSH20 0xFFFFFFFFFFFFFFFFFFFFFFFFFFFFFFFFFFFFFFFF AND PUSH20 0xFFFFFFFFFFFFFFFFFFFFFFFFFFFFFFFFFFFFFFFF AND PUSH4 0x70A08231 ADDRESS PUSH1 0x40 MLOAD DUP3 PUSH4 0xFFFFFFFF AND PUSH1 0xE0 SHL DUP2 MSTORE PUSH1 0x4 ADD DUP1 DUP3 PUSH20 0xFFFFFFFFFFFFFFFFFFFFFFFFFFFFFFFFFFFFFFFF AND DUP2 MSTORE PUSH1 0x20 ADD SWAP2 POP POP PUSH1 0x20 PUSH1 0x40 MLOAD DUP1 DUP4 SUB DUP2 DUP7 DUP1 EXTCODESIZE ISZERO DUP1 ISZERO PUSH2 0x2CAE JUMPI PUSH1 0x0 DUP1 REVERT JUMPDEST POP GAS STATICCALL ISZERO DUP1 ISZERO PUSH2 0x2CC2 JUMPI RETURNDATASIZE PUSH1 0x0 DUP1 RETURNDATACOPY RETURNDATASIZE PUSH1 0x0 REVERT JUMPDEST POP POP POP POP PUSH1 0x40 MLOAD RETURNDATASIZE PUSH1 0x20 DUP2 LT ISZERO PUSH2 0x2CD8 JUMPI PUSH1 0x0 DUP1 REVERT JUMPDEST DUP2 ADD SWAP1 DUP1 DUP1 MLOAD SWAP1 PUSH1 0x20 ADD SWAP1 SWAP3 SWAP2 SWAP1 POP POP POP SWAP1 POP PUSH1 0x0 DUP2 DUP4 GT ISZERO PUSH2 0x2DCA JUMPI PUSH1 0x2 PUSH1 0x0 SWAP1 SLOAD SWAP1 PUSH2 0x100 EXP SWAP1 DIV PUSH20 0xFFFFFFFFFFFFFFFFFFFFFFFFFFFFFFFFFFFFFFFF AND PUSH20 0xFFFFFFFFFFFFFFFFFFFFFFFFFFFFFFFFFFFFFFFF AND PUSH4 0xA9059CBB DUP6 DUP5 PUSH1 0x40 MLOAD DUP4 PUSH4 0xFFFFFFFF AND PUSH1 0xE0 SHL DUP2 MSTORE PUSH1 0x4 ADD DUP1 DUP4 PUSH20 0xFFFFFFFFFFFFFFFFFFFFFFFFFFFFFFFFFFFFFFFF AND DUP2 MSTORE PUSH1 0x20 ADD DUP3 DUP2 MSTORE PUSH1 0x20 ADD SWAP3 POP POP POP PUSH1 0x20 PUSH1 0x40 MLOAD DUP1 DUP4 SUB DUP2 PUSH1 0x0 DUP8 DUP1 EXTCODESIZE ISZERO DUP1 ISZERO PUSH2 0x2D88 JUMPI PUSH1 0x0 DUP1 REVERT JUMPDEST POP GAS CALL ISZERO DUP1 ISZERO PUSH2 0x2D9C JUMPI RETURNDATASIZE PUSH1 0x0 DUP1 RETURNDATACOPY RETURNDATASIZE PUSH1 0x0 REVERT JUMPDEST POP POP POP POP PUSH1 0x40 MLOAD RETURNDATASIZE PUSH1 0x20 DUP2 LT ISZERO PUSH2 0x2DB2 JUMPI PUSH1 0x0 DUP1 REVERT JUMPDEST DUP2 ADD SWAP1 DUP1 DUP1 MLOAD SWAP1 PUSH1 0x20 ADD SWAP1 SWAP3 SWAP2 SWAP1 POP POP POP SWAP1 POP PUSH2 0x2E9B JUMP JUMPDEST PUSH1 0x2 PUSH1 0x0 SWAP1 SLOAD SWAP1 PUSH2 0x100 EXP SWAP1 DIV PUSH20 0xFFFFFFFFFFFFFFFFFFFFFFFFFFFFFFFFFFFFFFFF AND PUSH20 0xFFFFFFFFFFFFFFFFFFFFFFFFFFFFFFFFFFFFFFFF AND PUSH4 0xA9059CBB DUP6 DUP6 PUSH1 0x40 MLOAD DUP4 PUSH4 0xFFFFFFFF AND PUSH1 0xE0 SHL DUP2 MSTORE PUSH1 0x4 ADD DUP1 DUP4 PUSH20 0xFFFFFFFFFFFFFFFFFFFFFFFFFFFFFFFFFFFFFFFF AND DUP2 MSTORE PUSH1 0x20 ADD DUP3 DUP2 MSTORE PUSH1 0x20 ADD SWAP3 POP POP POP PUSH1 0x20 PUSH1 0x40 MLOAD DUP1 DUP4 SUB DUP2 PUSH1 0x0 DUP8 DUP1 EXTCODESIZE ISZERO DUP1 ISZERO PUSH2 0x2E5D JUMPI PUSH1 0x0 DUP1 REVERT JUMPDEST POP GAS CALL ISZERO DUP1 ISZERO PUSH2 0x2E71 JUMPI RETURNDATASIZE PUSH1 0x0 DUP1 RETURNDATACOPY RETURNDATASIZE PUSH1 0x0 REVERT JUMPDEST POP POP POP POP PUSH1 0x40 MLOAD RETURNDATASIZE PUSH1 0x20 DUP2 LT ISZERO PUSH2 0x2E87 JUMPI PUSH1 0x0 DUP1 REVERT JUMPDEST DUP2 ADD SWAP1 DUP1 DUP1 MLOAD SWAP1 PUSH1 0x20 ADD SWAP1 SWAP3 SWAP2 SWAP1 POP POP POP SWAP1 POP JUMPDEST DUP1 PUSH2 0x2EF1 JUMPI PUSH1 0x40 MLOAD PUSH32 0x8C379A000000000000000000000000000000000000000000000000000000000 DUP2 MSTORE PUSH1 0x4 ADD DUP1 DUP1 PUSH1 0x20 ADD DUP3 DUP2 SUB DUP3 MSTORE PUSH1 0x22 DUP2 MSTORE PUSH1 0x20 ADD DUP1 PUSH2 0x35A3 PUSH1 0x22 SWAP2 CODECOPY PUSH1 0x40 ADD SWAP2 POP POP PUSH1 0x40 MLOAD DUP1 SWAP2 SUB SWAP1 REVERT JUMPDEST POP POP POP POP JUMP JUMPDEST PUSH1 0x0 PUSH2 0x2F02 DUP4 PUSH2 0x9E2 JUMP JUMPDEST SWAP1 POP PUSH1 0x0 PUSH20 0xFFFFFFFFFFFFFFFFFFFFFFFFFFFFFFFFFFFFFFFF AND DUP2 PUSH20 0xFFFFFFFFFFFFFFFFFFFFFFFFFFFFFFFFFFFFFFFF AND EQ ISZERO DUP1 ISZERO PUSH2 0x2F6D JUMPI POP DUP3 PUSH20 0xFFFFFFFFFFFFFFFFFFFFFFFFFFFFFFFFFFFFFFFF AND DUP2 PUSH20 0xFFFFFFFFFFFFFFFFFFFFFFFFFFFFFFFFFFFFFFFF AND EQ ISZERO JUMPDEST DUP1 ISZERO PUSH2 0x2F7B JUMPI POP PUSH1 0x0 PUSH1 0x6 SLOAD GT JUMPDEST ISZERO PUSH2 0x30BF JUMPI PUSH1 0x0 PUSH2 0x2FAB PUSH2 0x2710 PUSH2 0x2F9D PUSH1 0x6 SLOAD DUP7 PUSH2 0x2658 SWAP1 SWAP2 SWAP1 PUSH4 0xFFFFFFFF AND JUMP JUMPDEST PUSH2 0x26DE SWAP1 SWAP2 SWAP1 PUSH4 0xFFFFFFFF AND JUMP JUMPDEST SWAP1 POP PUSH1 0x2 PUSH1 0x0 SWAP1 SLOAD SWAP1 PUSH2 0x100 EXP SWAP1 DIV PUSH20 0xFFFFFFFFFFFFFFFFFFFFFFFFFFFFFFFFFFFFFFFF AND PUSH20 0xFFFFFFFFFFFFFFFFFFFFFFFFFFFFFFFFFFFFFFFF AND PUSH4 0x40C10F19 DUP4 DUP4 PUSH1 0x40 MLOAD DUP4 PUSH4 0xFFFFFFFF AND PUSH1 0xE0 SHL DUP2 MSTORE PUSH1 0x4 ADD DUP1 DUP4 PUSH20 0xFFFFFFFFFFFFFFFFFFFFFFFFFFFFFFFFFFFFFFFF AND DUP2 MSTORE PUSH1 0x20 ADD DUP3 DUP2 MSTORE PUSH1 0x20 ADD SWAP3 POP POP POP PUSH1 0x0 PUSH1 0x40 MLOAD DUP1 DUP4 SUB DUP2 PUSH1 0x0 DUP8 DUP1 EXTCODESIZE ISZERO DUP1 ISZERO PUSH2 0x3040 JUMPI PUSH1 0x0 DUP1 REVERT JUMPDEST POP GAS CALL ISZERO DUP1 ISZERO PUSH2 0x3054 JUMPI RETURNDATASIZE PUSH1 0x0 DUP1 RETURNDATACOPY RETURNDATASIZE PUSH1 0x0 REVERT JUMPDEST POP POP POP POP DUP2 PUSH20 0xFFFFFFFFFFFFFFFFFFFFFFFFFFFFFFFFFFFFFFFF AND DUP5 PUSH20 0xFFFFFFFFFFFFFFFFFFFFFFFFFFFFFFFFFFFFFFFF AND PUSH32 0xA721AB4682CEB61C7E4D264EF879FC419A6D764B136E7D96EF54B2053C75673 DUP4 PUSH1 0x40 MLOAD DUP1 DUP3 DUP2 MSTORE PUSH1 0x20 ADD SWAP2 POP POP PUSH1 0x40 MLOAD DUP1 SWAP2 SUB SWAP1 LOG3 POP JUMPDEST POP POP POP JUMP JUMPDEST PUSH1 0x0 DUP4 DUP4 GT ISZERO DUP3 SWAP1 PUSH2 0x3171 JUMPI PUSH1 0x40 MLOAD PUSH32 0x8C379A000000000000000000000000000000000000000000000000000000000 DUP2 MSTORE PUSH1 0x4 ADD DUP1 DUP1 PUSH1 0x20 ADD DUP3 DUP2 SUB DUP3 MSTORE DUP4 DUP2 DUP2 MLOAD DUP2 MSTORE PUSH1 0x20 ADD SWAP2 POP DUP1 MLOAD SWAP1 PUSH1 0x20 ADD SWAP1 DUP1 DUP4 DUP4 PUSH1 0x0 JUMPDEST DUP4 DUP2 LT ISZERO PUSH2 0x3136 JUMPI DUP1 DUP3 ADD MLOAD DUP2 DUP5 ADD MSTORE PUSH1 0x20 DUP2 ADD SWAP1 POP PUSH2 0x311B JUMP JUMPDEST POP POP POP POP SWAP1 POP SWAP1 DUP2 ADD SWAP1 PUSH1 0x1F AND DUP1 ISZERO PUSH2 0x3163 JUMPI DUP1 DUP3 SUB DUP1 MLOAD PUSH1 0x1 DUP4 PUSH1 0x20 SUB PUSH2 0x100 EXP SUB NOT AND DUP2 MSTORE PUSH1 0x20 ADD SWAP2 POP JUMPDEST POP SWAP3 POP POP POP PUSH1 0x40 MLOAD DUP1 SWAP2 SUB SWAP1 REVERT JUMPDEST POP PUSH1 0x0 DUP4 DUP6 SUB SWAP1 POP DUP1 SWAP2 POP POP SWAP4 SWAP3 POP POP POP JUMP JUMPDEST PUSH1 0x60 PUSH2 0x31E6 DUP3 PUSH1 0x40 MLOAD DUP1 PUSH1 0x40 ADD PUSH1 0x40 MSTORE DUP1 PUSH1 0x20 DUP2 MSTORE PUSH1 0x20 ADD PUSH32 0x5361666542455032303A206C6F772D6C6576656C2063616C6C206661696C6564 DUP2 MSTORE POP DUP6 PUSH20 0xFFFFFFFFFFFFFFFFFFFFFFFFFFFFFFFFFFFFFFFF AND PUSH2 0x3339 SWAP1 SWAP3 SWAP2 SWAP1 PUSH4 0xFFFFFFFF AND JUMP JUMPDEST SWAP1 POP PUSH1 0x0 DUP2 MLOAD GT ISZERO PUSH2 0x326E JUMPI DUP1 DUP1 PUSH1 0x20 ADD SWAP1 MLOAD PUSH1 0x20 DUP2 LT ISZERO PUSH2 0x3207 JUMPI PUSH1 0x0 DUP1 REVERT JUMPDEST DUP2 ADD SWAP1 DUP1 DUP1 MLOAD SWAP1 PUSH1 0x20 ADD SWAP1 SWAP3 SWAP2 SWAP1 POP POP POP PUSH2 0x326D JUMPI PUSH1 0x40 MLOAD PUSH32 0x8C379A000000000000000000000000000000000000000000000000000000000 DUP2 MSTORE PUSH1 0x4 ADD DUP1 DUP1 PUSH1 0x20 ADD DUP3 DUP2 SUB DUP3 MSTORE PUSH1 0x2A DUP2 MSTORE PUSH1 0x20 ADD DUP1 PUSH2 0x3624 PUSH1 0x2A SWAP2 CODECOPY PUSH1 0x40 ADD SWAP2 POP POP PUSH1 0x40 MLOAD DUP1 SWAP2 SUB SWAP1 REVERT JUMPDEST JUMPDEST POP POP POP JUMP JUMPDEST PUSH1 0x0 DUP1 DUP4 GT DUP3 SWAP1 PUSH2 0x331F JUMPI PUSH1 0x40 MLOAD PUSH32 0x8C379A000000000000000000000000000000000000000000000000000000000 DUP2 MSTORE PUSH1 0x4 ADD DUP1 DUP1 PUSH1 0x20 ADD DUP3 DUP2 SUB DUP3 MSTORE DUP4 DUP2 DUP2 MLOAD DUP2 MSTORE PUSH1 0x20 ADD SWAP2 POP DUP1 MLOAD SWAP1 PUSH1 0x20 ADD SWAP1 DUP1 DUP4 DUP4 PUSH1 0x0 JUMPDEST DUP4 DUP2 LT ISZERO PUSH2 0x32E4 JUMPI DUP1 DUP3 ADD MLOAD DUP2 DUP5 ADD MSTORE PUSH1 0x20 DUP2 ADD SWAP1 POP PUSH2 0x32C9 JUMP JUMPDEST POP POP POP POP SWAP1 POP SWAP1 DUP2 ADD SWAP1 PUSH1 0x1F AND DUP1 ISZERO PUSH2 0x3311 JUMPI DUP1 DUP3 SUB DUP1 MLOAD PUSH1 0x1 DUP4 PUSH1 0x20 SUB PUSH2 0x100 EXP SUB NOT AND DUP2 MSTORE PUSH1 0x20 ADD SWAP2 POP JUMPDEST POP SWAP3 POP POP POP PUSH1 0x40 MLOAD DUP1 SWAP2 SUB SWAP1 REVERT JUMPDEST POP PUSH1 0x0 DUP4 DUP6 DUP2 PUSH2 0x332B JUMPI INVALID JUMPDEST DIV SWAP1 POP DUP1 SWAP2 POP POP SWAP4 SWAP3 POP POP POP JUMP JUMPDEST PUSH1 0x60 PUSH2 0x3348 DUP5 DUP5 PUSH1 0x0 DUP6 PUSH2 0x3351 JUMP JUMPDEST SWAP1 POP SWAP4 SWAP3 POP POP POP JUMP JUMPDEST PUSH1 0x60 PUSH2 0x335C DUP6 PUSH2 0x3557 JUMP JUMPDEST PUSH2 0x33CE JUMPI PUSH1 0x40 MLOAD PUSH32 0x8C379A000000000000000000000000000000000000000000000000000000000 DUP2 MSTORE PUSH1 0x4 ADD DUP1 DUP1 PUSH1 0x20 ADD DUP3 DUP2 SUB DUP3 MSTORE PUSH1 0x1D DUP2 MSTORE PUSH1 0x20 ADD DUP1 PUSH32 0x416464726573733A2063616C6C20746F206E6F6E2D636F6E7472616374000000 DUP2 MSTORE POP PUSH1 0x20 ADD SWAP2 POP POP PUSH1 0x40 MLOAD DUP1 SWAP2 SUB SWAP1 REVERT JUMPDEST PUSH1 0x0 PUSH1 0x60 DUP7 PUSH20 0xFFFFFFFFFFFFFFFFFFFFFFFFFFFFFFFFFFFFFFFF AND DUP6 DUP8 PUSH1 0x40 MLOAD DUP1 DUP3 DUP1 MLOAD SWAP1 PUSH1 0x20 ADD SWAP1 DUP1 DUP4 DUP4 JUMPDEST PUSH1 0x20 DUP4 LT PUSH2 0x341E JUMPI DUP1 MLOAD DUP3 MSTORE PUSH1 0x20 DUP3 ADD SWAP2 POP PUSH1 0x20 DUP2 ADD SWAP1 POP PUSH1 0x20 DUP4 SUB SWAP3 POP PUSH2 0x33FB JUMP JUMPDEST PUSH1 0x1 DUP4 PUSH1 0x20 SUB PUSH2 0x100 EXP SUB DUP1 NOT DUP3 MLOAD AND DUP2 DUP5 MLOAD AND DUP1 DUP3 OR DUP6 MSTORE POP POP POP POP POP POP SWAP1 POP ADD SWAP2 POP POP PUSH1 0x0 PUSH1 0x40 MLOAD DUP1 DUP4 SUB DUP2 DUP6 DUP8 GAS CALL SWAP3 POP POP POP RETURNDATASIZE DUP1 PUSH1 0x0 DUP2 EQ PUSH2 0x3480 JUMPI PUSH1 0x40 MLOAD SWAP2 POP PUSH1 0x1F NOT PUSH1 0x3F RETURNDATASIZE ADD AND DUP3 ADD PUSH1 0x40 MSTORE RETURNDATASIZE DUP3 MSTORE RETURNDATASIZE PUSH1 0x0 PUSH1 0x20 DUP5 ADD RETURNDATACOPY PUSH2 0x3485 JUMP JUMPDEST PUSH1 0x60 SWAP2 POP JUMPDEST POP SWAP2 POP SWAP2 POP DUP2 ISZERO PUSH2 0x349A JUMPI DUP1 SWAP3 POP POP POP PUSH2 0x354F JUMP JUMPDEST PUSH1 0x0 DUP2 MLOAD GT ISZERO PUSH2 0x34AD JUMPI DUP1 MLOAD DUP1 DUP3 PUSH1 0x20 ADD REVERT JUMPDEST DUP4 PUSH1 0x40 MLOAD PUSH32 0x8C379A000000000000000000000000000000000000000000000000000000000 DUP2 MSTORE PUSH1 0x4 ADD DUP1 DUP1 PUSH1 0x20 ADD DUP3 DUP2 SUB DUP3 MSTORE DUP4 DUP2 DUP2 MLOAD DUP2 MSTORE PUSH1 0x20 ADD SWAP2 POP DUP1 MLOAD SWAP1 PUSH1 0x20 ADD SWAP1 DUP1 DUP4 DUP4 PUSH1 0x0 JUMPDEST DUP4 DUP2 LT ISZERO PUSH2 0x3514 JUMPI DUP1 DUP3 ADD MLOAD DUP2 DUP5 ADD MSTORE PUSH1 0x20 DUP2 ADD SWAP1 POP PUSH2 0x34F9 JUMP JUMPDEST POP POP POP POP SWAP1 POP SWAP1 DUP2 ADD SWAP1 PUSH1 0x1F AND DUP1 ISZERO PUSH2 0x3541 JUMPI DUP1 DUP3 SUB DUP1 MLOAD PUSH1 0x1 DUP4 PUSH1 0x20 SUB PUSH2 0x100 EXP SUB NOT AND DUP2 MSTORE PUSH1 0x20 ADD SWAP2 POP JUMPDEST POP SWAP3 POP POP POP PUSH1 0x40 MLOAD DUP1 SWAP2 SUB SWAP1 REVERT JUMPDEST SWAP5 SWAP4 POP POP POP POP JUMP JUMPDEST PUSH1 0x0 DUP1 PUSH1 0x0 PUSH32 0xC5D2460186F7233C927E7DB2DCC703C0E500B653CA82273B7BFAD8045D85A470 PUSH1 0x0 SHL SWAP1 POP DUP4 EXTCODEHASH SWAP2 POP DUP1 DUP3 EQ ISZERO DUP1 ISZERO PUSH2 0x3599 JUMPI POP PUSH1 0x0 DUP1 SHL DUP3 EQ ISZERO JUMPDEST SWAP3 POP POP POP SWAP2 SWAP1 POP JUMP INVALID PUSH20 0x6166654641414E475472616E736665723A205472 PUSH2 0x6E73 PUSH7 0x6572206661696C PUSH6 0x646164643A20 PUSH10 0x6E76616C696420646570 PUSH16 0x7369742066656520626173697320706F PUSH10 0x6E747375706461746552 PUSH6 0x66426F6E7573 POP PUSH6 0x7263656E743A KECCAK256 PUSH10 0x6E76616C696420726566 PUSH6 0x7272616C2062 PUSH16 0x6E757320626173697320706F696E7473 MSTORE8 PUSH2 0x6665 TIMESTAMP GASLIMIT POP ORIGIN ADDRESS GASPRICE KECCAK256 TIMESTAMP GASLIMIT POP ORIGIN ADDRESS KECCAK256 PUSH16 0x7065726174696F6E20646964206E6F74 KECCAK256 PUSH20 0x7563636565644F776E61626C653A206E6577206F PUSH24 0x6E657220697320746865207A65726F206164647265737364 PUSH6 0x706F7369743A KECCAK256 0x49 PUSH15 0x76616C696420726566657272657220 PUSH2 0x6464 PUSH19 0x657373536166654D6174683A206D756C746970 PUSH13 0x69636174696F6E206F76657266 PUSH13 0x6F777365743A20696E76616C69 PUSH5 0x206465706F PUSH20 0x69742066656520626173697320706F696E747375 PUSH17 0x64617465526566426F6E75735065726365 PUSH15 0x743A2073616D6520626F6E75732062 PUSH17 0x20736574A26469706673582212204A15B8 SSTORE EXTCODEHASH 0xE0 GT XOR 0x22 0x5E 0x26 0xFB CALLDATASIZE 0x4E 0x1E MSTORE8 0xA7 0xAC MOD 0xC0 0xE2 ADD DUP16 LOG3 0xB3 0x5E DUP3 0x27 MSIZE DUP5 PUSH26 0x4A64736F6C634300060C00330000000000000000000000000000 "},"gasEstimates":{"creation":{"codeDepositCost":"2827200","executionCost":"infinite","totalCost":"infinite"},"external":{"BONUS_MULTIPLIER()":"294","FAANG()":"1115","FAANGPerBlock()":"1051","INITIAL_EMISSION_RATE()":"294","MAXIMUM_REFERRAL_BP()":"279","add(uint256,address,uint16,bool)":"infinite","deposit(uint256,uint256,address)":"infinite","devAddress()":"1137","emergencyWithdraw(uint256)":"infinite","feeAddress()":"1115","getMultiplier(uint256,uint256)":"infinite","getReferral(address)":"1350","massUpdatePools()":"infinite","owner()":"1166","pendingFAANG(uint256,address)":"infinite","poolInfo(uint256)":"5486","poolLength()":"1068","refBonusBP()":"1095","referredCount(address)":"1215","referrers(address)":"1245","renounceOwnership()":"24403","set(uint256,uint256,uint16,bool)":"infinite","setDevAddress(address)":"22037","setFeeAddress(address)":"22038","startBlock()":"1117","totalAllocPoint()":"1096","transferOwnership(address)":"infinite","updatePool(uint256)":"infinite","updateReferralBonusBp(uint256)":"infinite","userInfo(uint256,address)":"3050","withdraw(uint256,uint256)":"infinite"},"internal":{"payOrLockupPendingFAANG(uint256)":"infinite","payReferralCommission(address,uint256)":"infinite","safeFAANGTransfer(address,uint256)":"infinite","setReferral(address,address)":"44546"}},"methodIdentifiers":{"BONUS_MULTIPLIER()":"8aa28550","FAANG()":"6621d3ba","FAANGPerBlock()":"267c3338","INITIAL_EMISSION_RATE()":"91bb809c","MAXIMUM_REFERRAL_BP()":"3a22df78","add(uint256,address,uint16,bool)":"84e82a33","deposit(uint256,uint256,address)":"8dbdbe6d","devAddress()":"3ad10ef6","emergencyWithdraw(uint256)":"5312ea8e","feeAddress()":"41275358","getMultiplier(uint256,uint256)":"8dbb1e3a","getReferral(address)":"3b0f0f2f","massUpdatePools()":"630b5ba1","owner()":"8da5cb5b","pendingFAANG(uint256,address)":"c100710d","poolInfo(uint256)":"1526fe27","poolLength()":"081e3eda","refBonusBP()":"66f685ea","referredCount(address)":"3f7b06d8","referrers(address)":"4a3b68cc","renounceOwnership()":"715018a6","set(uint256,uint256,uint16,bool)":"d9638422","setDevAddress(address)":"d0d41fe1","setFeeAddress(address)":"8705fcd4","startBlock()":"48cd4cb1","totalAllocPoint()":"17caf6f1","transferOwnership(address)":"f2fde38b","updatePool(uint256)":"51eb05a6","updateReferralBonusBp(uint256)":"64ed743b","userInfo(uint256,address)":"93f1a40b","withdraw(uint256,uint256)":"441a3e70"}},"storageLayout":{"storage":[{"astId":2667,"contract":"FAANGOrchestrator.sol:FAANGOrchestrator","label":"_owner","offset":0,"slot":"0","type":"t_address"},{"astId":2790,"contract":"FAANGOrchestrator.sol:FAANGOrchestrator","label":"_status","offset":0,"slot":"1","type":"t_uint256"},{"astId":1441,"contract":"FAANGOrchestrator.sol:FAANGOrchestrator","label":"FAANG","offset":0,"slot":"2","type":"t_contract(FAANGToken)1403"},{"astId":1443,"contract":"FAANGOrchestrator.sol:FAANGOrchestrator","label":"devAddress","offset":0,"slot":"3","type":"t_address"},{"astId":1445,"contract":"FAANGOrchestrator.sol:FAANGOrchestrator","label":"feeAddress","offset":0,"slot":"4","type":"t_address"},{"astId":1447,"contract":"FAANGOrchestrator.sol:FAANGOrchestrator","label":"FAANGPerBlock","offset":0,"slot":"5","type":"t_uint256"},{"astId":1453,"contract":"FAANGOrchestrator.sol:FAANGOrchestrator","label":"refBonusBP","offset":0,"slot":"6","type":"t_uint256"},{"astId":1460,"contract":"FAANGOrchestrator.sol:FAANGOrchestrator","label":"referrers","offset":0,"slot":"7","type":"t_mapping(t_address,t_address)"},{"astId":1464,"contract":"FAANGOrchestrator.sol:FAANGOrchestrator","label":"referredCount","offset":0,"slot":"8","type":"t_mapping(t_address,t_uint256)"},{"astId":1470,"contract":"FAANGOrchestrator.sol:FAANGOrchestrator","label":"poolInfo","offset":0,"slot":"9","type":"t_array(t_struct(PoolInfo)1439_storage)dyn_storage"},{"astId":1476,"contract":"FAANGOrchestrator.sol:FAANGOrchestrator","label":"userInfo","offset":0,"slot":"10","type":"t_mapping(t_uint256,t_mapping(t_address,t_struct(UserInfo)1428_storage))"},{"astId":1479,"contract":"FAANGOrchestrator.sol:FAANGOrchestrator","label":"totalAllocPoint","offset":0,"slot":"11","type":"t_uint256"},{"astId":1481,"contract":"FAANGOrchestrator.sol:FAANGOrchestrator","label":"startBlock","offset":0,"slot":"12","type":"t_uint256"}],"types":{"t_address":{"encoding":"inplace","label":"address","numberOfBytes":"20"},"t_array(t_struct(PoolInfo)1439_storage)dyn_storage":{"base":"t_struct(PoolInfo)1439_storage","encoding":"dynamic_array","label":"struct FAANGOrchestrator.PoolInfo[]","numberOfBytes":"32"},"t_contract(FAANGToken)1403":{"encoding":"inplace","label":"contract FAANGToken","numberOfBytes":"20"},"t_contract(IBEP20)2659":{"encoding":"inplace","label":"contract IBEP20","numberOfBytes":"20"},"t_mapping(t_address,t_address)":{"encoding":"mapping","key":"t_address","label":"mapping(address => address)","numberOfBytes":"32","value":"t_address"},"t_mapping(t_address,t_struct(UserInfo)1428_storage)":{"encoding":"mapping","key":"t_address","label":"mapping(address => struct FAANGOrchestrator.UserInfo)","numberOfBytes":"32","value":"t_struct(UserInfo)1428_storage"},"t_mapping(t_address,t_uint256)":{"encoding":"mapping","key":"t_address","label":"mapping(address => uint256)","numberOfBytes":"32","value":"t_uint256"},"t_mapping(t_uint256,t_mapping(t_address,t_struct(UserInfo)1428_storage))":{"encoding":"mapping","key":"t_uint256","label":"mapping(uint256 => mapping(address => struct FAANGOrchestrator.UserInfo))","numberOfBytes":"32","value":"t_mapping(t_address,t_struct(UserInfo)1428_storage)"},"t_struct(PoolInfo)1439_storage":{"encoding":"inplace","label":"struct FAANGOrchestrator.PoolInfo","members":[{"astId":1430,"contract":"FAANGOrchestrator.sol:FAANGOrchestrator","label":"lpToken","offset":0,"slot":"0","type":"t_contract(IBEP20)2659"},{"astId":1432,"contract":"FAANGOrchestrator.sol:FAANGOrchestrator","label":"allocPoint","offset":0,"slot":"1","type":"t_uint256"},{"astId":1434,"contract":"FAANGOrchestrator.sol:FAANGOrchestrator","label":"lastRewardBlock","offset":0,"slot":"2","type":"t_uint256"},{"astId":1436,"contract":"FAANGOrchestrator.sol:FAANGOrchestrator","label":"accFAANGPerShare","offset":0,"slot":"3","type":"t_uint256"},{"astId":1438,"contract":"FAANGOrchestrator.sol:FAANGOrchestrator","label":"depositFeeBP","offset":0,"slot":"4","type":"t_uint16"}],"numberOfBytes":"160"},"t_struct(UserInfo)1428_storage":{"encoding":"inplace","label":"struct FAANGOrchestrator.UserInfo","members":[{"astId":1423,"contract":"FAANGOrchestrator.sol:FAANGOrchestrator","label":"amount","offset":0,"slot":"0","type":"t_uint256"},{"astId":1425,"contract":"FAANGOrchestrator.sol:FAANGOrchestrator","label":"rewardDebt","offset":0,"slot":"1","type":"t_uint256"},{"astId":1427,"contract":"FAANGOrchestrator.sol:FAANGOrchestrator","label":"rewardLockedUp","offset":0,"slot":"2","type":"t_uint256"}],"numberOfBytes":"96"},"t_uint16":{"encoding":"inplace","label":"uint16","numberOfBytes":"2"},"t_uint256":{"encoding":"inplace","label":"uint256","numberOfBytes":"32"}}},"userdoc":{"kind":"user","methods":{},"version":1}}