{"abi":[{"inputs":[{"internalType":"contract FAANGToken","name":"_FAANG","type":"address"},{"internalType":"uint256","name":"_startBlock","type":"uint256"}],"stateMutability":"nonpayable","type":"constructor"},{"anonymous":false,"inputs":[{"indexed":true,"internalType":"address","name":"user","type":"address"},{"indexed":false,"internalType":"uint256","name":"pid","type":"uint256"},{"indexed":false,"internalType":"uint256","name":"amount","type":"uint256"}],"name":"ClaimReward","type":"event"},{"anonymous":false,"inputs":[{"indexed":true,"internalType":"address","name":"user","type":"address"},{"indexed":true,"internalType":"uint256","name":"pid","type":"uint256"},{"indexed":false,"internalType":"uint256","name":"amount","type":"uint256"}],"name":"Deposit","type":"event"},{"anonymous":false,"inputs":[{"indexed":true,"internalType":"address","name":"user","type":"address"},{"indexed":true,"internalType":"uint256","name":"pid","type":"uint256"},{"indexed":false,"internalType":"uint256","name":"amount","type":"uint256"}],"name":"EmergencyWithdraw","type":"event"},{"anonymous":false,"inputs":[{"indexed":true,"internalType":"address","name":"previousOwner","type":"address"},{"indexed":true,"internalType":"address","name":"newOwner","type":"address"}],"name":"OwnershipTransferred","type":"event"},{"anonymous":false,"inputs":[{"indexed":true,"internalType":"address","name":"user","type":"address"},{"indexed":true,"internalType":"uint256","name":"pid","type":"uint256"},{"indexed":false,"internalType":"uint256","name":"amount","type":"uint256"}],"name":"Withdraw","type":"event"},{"inputs":[],"name":"FAANG","outputs":[{"internalType":"contract FAANGToken","name":"","type":"address"}],"stateMutability":"view","type":"function"},{"inputs":[],"name":"FAANGPerBlock","outputs":[{"internalType":"uint256","name":"","type":"uint256"}],"stateMutability":"view","type":"function"},{"inputs":[{"internalType":"contract IBEP20","name":"_lpToken","type":"address"},{"internalType":"bool","name":"_withUpdate","type":"bool"}],"name":"add","outputs":[],"stateMutability":"nonpayable","type":"function"},{"inputs":[],"name":"canClaimFAANGRewards","outputs":[{"internalType":"bool","name":"","type":"bool"}],"stateMutability":"view","type":"function"},{"inputs":[{"internalType":"uint256","name":"_pid","type":"uint256"},{"internalType":"uint256","name":"_amount","type":"uint256"}],"name":"deposit","outputs":[],"stateMutability":"nonpayable","type":"function"},{"inputs":[{"internalType":"uint256","name":"_pid","type":"uint256"}],"name":"emergencyWithdraw","outputs":[],"stateMutability":"nonpayable","type":"function"},{"inputs":[{"internalType":"uint256","name":"_from","type":"uint256"},{"internalType":"uint256","name":"_to","type":"uint256"}],"name":"getMultiplier","outputs":[{"internalType":"uint256","name":"","type":"uint256"}],"stateMutability":"pure","type":"function"},{"inputs":[{"internalType":"contract IBEP20","name":"_lpToken","type":"address"}],"name":"getPoolIdForLpToken","outputs":[{"internalType":"uint256","name":"","type":"uint256"}],"stateMutability":"view","type":"function"},{"inputs":[],"name":"massUpdatePools","outputs":[],"stateMutability":"nonpayable","type":"function"},{"inputs":[],"name":"owner","outputs":[{"internalType":"address","name":"","type":"address"}],"stateMutability":"view","type":"function"},{"inputs":[{"internalType":"uint256","name":"_pid","type":"uint256"},{"internalType":"address","name":"_user","type":"address"}],"name":"pendingFAANG","outputs":[{"internalType":"uint256","name":"","type":"uint256"}],"stateMutability":"view","type":"function"},{"inputs":[{"internalType":"contract IBEP20","name":"","type":"address"}],"name":"poolExistence","outputs":[{"internalType":"bool","name":"","type":"bool"}],"stateMutability":"view","type":"function"},{"inputs":[{"internalType":"contract IBEP20","name":"","type":"address"}],"name":"poolIdForLpAddress","outputs":[{"internalType":"uint256","name":"","type":"uint256"}],"stateMutability":"view","type":"function"},{"inputs":[{"internalType":"uint256","name":"","type":"uint256"}],"name":"poolInfo","outputs":[{"internalType":"contract IBEP20","name":"lpToken","type":"address"},{"internalType":"uint256","name":"lastRewardBlock","type":"uint256"},{"internalType":"uint256","name":"accFAANGPerShare","type":"uint256"}],"stateMutability":"view","type":"function"},{"inputs":[],"name":"poolLength","outputs":[{"internalType":"uint256","name":"","type":"uint256"}],"stateMutability":"view","type":"function"},{"inputs":[],"name":"renounceOwnership","outputs":[],"stateMutability":"nonpayable","type":"function"},{"inputs":[{"internalType":"address","name":"newOwner","type":"address"}],"name":"transferOwnership","outputs":[],"stateMutability":"nonpayable","type":"function"},{"inputs":[{"internalType":"uint256","name":"_pid","type":"uint256"}],"name":"updatePool","outputs":[],"stateMutability":"nonpayable","type":"function"},{"inputs":[{"internalType":"uint256","name":"","type":"uint256"},{"internalType":"address","name":"","type":"address"}],"name":"userInfo","outputs":[{"internalType":"uint256","name":"amount","type":"uint256"},{"internalType":"uint256","name":"rewardDebt","type":"uint256"},{"internalType":"uint256","name":"rewardLockedUp","type":"uint256"}],"stateMutability":"view","type":"function"},{"inputs":[{"internalType":"uint256","name":"_pid","type":"uint256"},{"internalType":"uint256","name":"_amount","type":"uint256"}],"name":"withdraw","outputs":[],"stateMutability":"nonpayable","type":"function"}],"devdoc":{"kind":"dev","methods":{"owner()":{"details":"Returns the address of the current owner."},"renounceOwnership()":{"details":"Leaves the contract without owner. It will not be possible to call `onlyOwner` functions anymore. Can only be called by the current owner. NOTE: Renouncing ownership will leave the contract without an owner, thereby removing any functionality that is only available to the owner."},"transferOwnership(address)":{"details":"Transfers ownership of the contract to a new account (`newOwner`). Can only be called by the current owner."}},"version":1},"evm":{"assembly":"    /* \"FAANGOrchestrator.sol\":193:10004  contract FAANGOrchestrator is Ownable, ReentrancyGuard {... */\n  mstore(0x40, 0x80)\n    /* \"FAANGOrchestrator.sol\":1634:1641  1 ether */\n  0x0de0b6b3a7640000\n    /* \"FAANGOrchestrator.sol\":1603:1641  uint256 public FAANGPerBlock = 1 ether */\n  0x03\n  sstore\n    /* \"FAANGOrchestrator.sol\":2512:2750  constructor(... */\n  callvalue\n  dup1\n  iszero\n  tag_1\n  jumpi\n  0x00\n  dup1\n  revert\ntag_1:\n  pop\n  mload(0x40)\n  sub(codesize, bytecodeSize)\n  dup1\n  bytecodeSize\n  dup4\n  codecopy\n  dup2\n  dup2\n  add\n  0x40\n  mstore\n  0x40\n  dup2\n  lt\n  iszero\n  tag_2\n  jumpi\n  0x00\n  dup1\n  revert\ntag_2:\n  dup2\n  add\n  swap1\n  dup1\n  dup1\n  mload\n  swap1\n  0x20\n  add\n  swap1\n  swap3\n  swap2\n  swap1\n  dup1\n  mload\n  swap1\n  0x20\n  add\n  swap1\n  swap3\n  swap2\n  swap1\n  pop\n  pop\n  pop\n    /* \"Ownable.sol\":874:891  address msgSender */\n  0x00\n    /* \"Ownable.sol\":894:906  _msgSender() */\n  tag_9\n    /* \"Ownable.sol\":894:904  _msgSender */\n  shl(0x20, tag_10)\n    /* \"Ownable.sol\":894:906  _msgSender() */\n  0x20\n  shr\n  jump\t// in\ntag_9:\n    /* \"Ownable.sol\":874:906  address msgSender = _msgSender() */\n  swap1\n  pop\n    /* \"Ownable.sol\":925:934  msgSender */\n  dup1\n    /* \"Ownable.sol\":916:922  _owner */\n  0x00\n  dup1\n    /* \"Ownable.sol\":916:934  _owner = msgSender */\n  0x0100\n  exp\n  dup2\n  sload\n  dup2\n  0xffffffffffffffffffffffffffffffffffffffff\n  mul\n  not\n  and\n  swap1\n  dup4\n  0xffffffffffffffffffffffffffffffffffffffff\n  and\n  mul\n  or\n  swap1\n  sstore\n  pop\n    /* \"Ownable.sol\":982:991  msgSender */\n  dup1\n    /* \"Ownable.sol\":949:992  OwnershipTransferred(address(0), msgSender) */\n  0xffffffffffffffffffffffffffffffffffffffff\n  and\n    /* \"Ownable.sol\":978:979  0 */\n  0x00\n    /* \"Ownable.sol\":949:992  OwnershipTransferred(address(0), msgSender) */\n  0xffffffffffffffffffffffffffffffffffffffff\n  and\n  0x8be0079c531659141344cd1fd0a4f28419497f9722a3daafe3b4186f6b6457e0\n  mload(0x40)\n  mload(0x40)\n  dup1\n  swap2\n  sub\n  swap1\n  log3\n    /* \"Ownable.sol\":841:999  constructor() internal {... */\n  pop\n    /* \"ReentrancyGuard.sol\":1637:1638  1 */\n  0x01\n    /* \"ReentrancyGuard.sol\":1752:1759  _status */\n  dup1\n    /* \"ReentrancyGuard.sol\":1752:1774  _status = _NOT_ENTERED */\n  dup2\n  swap1\n  sstore\n  pop\n    /* \"FAANGOrchestrator.sol\":2611:2617  _FAANG */\n  dup2\n    /* \"FAANGOrchestrator.sol\":2603:2608  FAANG */\n  0x02\n  0x00\n    /* \"FAANGOrchestrator.sol\":2603:2617  FAANG = _FAANG */\n  0x0100\n  exp\n  dup2\n  sload\n  dup2\n  0xffffffffffffffffffffffffffffffffffffffff\n  mul\n  not\n  and\n  swap1\n  dup4\n  0xffffffffffffffffffffffffffffffffffffffff\n  and\n  mul\n  or\n  swap1\n  sstore\n  pop\n    /* \"FAANGOrchestrator.sol\":2640:2651  _startBlock */\n  dup1\n    /* \"FAANGOrchestrator.sol\":2627:2637  startBlock */\n  0x05\n    /* \"FAANGOrchestrator.sol\":2627:2651  startBlock = _startBlock */\n  dup2\n  swap1\n  sstore\n  pop\n    /* \"FAANGOrchestrator.sol\":2677:2697  _startBlock.add(720) */\n  tag_13\n    /* \"FAANGOrchestrator.sol\":2693:2696  720 */\n  0x02d0\n    /* \"FAANGOrchestrator.sol\":2677:2688  _startBlock */\n  dup3\n    /* \"FAANGOrchestrator.sol\":2677:2692  _startBlock.add */\n  or(tag_0_79, shl(0x20, tag_14))\n  swap1\n    /* \"FAANGOrchestrator.sol\":2677:2697  _startBlock.add(720) */\n  swap2\n  swap1\n  0x20\n  shr\n  jump\t// in\ntag_13:\n    /* \"FAANGOrchestrator.sol\":2661:2674  inActiveBlock */\n  0x04\n    /* \"FAANGOrchestrator.sol\":2661:2697  inActiveBlock = _startBlock.add(720) */\n  dup2\n  swap1\n  sstore\n  pop\n    /* \"FAANGOrchestrator.sol\":2512:2750  constructor(... */\n  pop\n  pop\n    /* \"FAANGOrchestrator.sol\":193:10004  contract FAANGOrchestrator is Ownable, ReentrancyGuard {... */\n  jump(tag_15)\n    /* \"Context.sol\":780:876  function _msgSender() internal view returns (address payable) {... */\ntag_10:\n    /* \"Context.sol\":825:840  address payable */\n  0x00\n    /* \"Context.sol\":859:869  msg.sender */\n  caller\n    /* \"Context.sol\":852:869  return msg.sender */\n  swap1\n  pop\n    /* \"Context.sol\":780:876  function _msgSender() internal view returns (address payable) {... */\n  swap1\n  jump\t// out\n    /* \"SafeMath.sol\":875:1051  function add(uint256 a, uint256 b) internal pure returns (uint256) {... */\ntag_14:\n    /* \"SafeMath.sol\":933:940  uint256 */\n  0x00\n    /* \"SafeMath.sol\":952:961  uint256 c */\n  dup1\n    /* \"SafeMath.sol\":968:969  b */\n  dup3\n    /* \"SafeMath.sol\":964:965  a */\n  dup5\n    /* \"SafeMath.sol\":964:969  a + b */\n  add\n    /* \"SafeMath.sol\":952:969  uint256 c = a + b */\n  swap1\n  pop\n    /* \"SafeMath.sol\":992:993  a */\n  dup4\n    /* \"SafeMath.sol\":987:988  c */\n  dup2\n    /* \"SafeMath.sol\":987:993  c >= a */\n  lt\n  iszero\n    /* \"SafeMath.sol\":979:1025  require(c >= a, 'SafeMath: addition overflow') */\n  tag_18\n  jumpi\n  mload(0x40)\n  0x08c379a000000000000000000000000000000000000000000000000000000000\n  dup2\n  mstore\n  0x04\n  add\n  dup1\n  dup1\n  0x20\n  add\n  dup3\n  dup2\n  sub\n  dup3\n  mstore\n  0x1b\n  dup2\n  mstore\n  0x20\n  add\n  dup1\n  0x536166654d6174683a206164646974696f6e206f766572666c6f770000000000\n  dup2\n  mstore\n  pop\n  0x20\n  add\n  swap2\n  pop\n  pop\n  mload(0x40)\n  dup1\n  swap2\n  sub\n  swap1\n  revert\ntag_18:\n    /* \"SafeMath.sol\":1043:1044  c */\n  dup1\n    /* \"SafeMath.sol\":1036:1044  return c */\n  swap2\n  pop\n  pop\n    /* \"SafeMath.sol\":875:1051  function add(uint256 a, uint256 b) internal pure returns (uint256) {... */\n  swap3\n  swap2\n  pop\n  pop\n  jump\t// out\n    /* \"FAANGOrchestrator.sol\":193:10004  contract FAANGOrchestrator is Ownable, ReentrancyGuard {... */\ntag_15:\n  dataSize(sub_0)\n  dup1\n  dataOffset(sub_0)\n  0x00\n  codecopy\n  0x00\n  return\nstop\n\nsub_0: assembly {\n        /* \"FAANGOrchestrator.sol\":193:10004  contract FAANGOrchestrator is Ownable, ReentrancyGuard {... */\n      mstore(0x40, 0x80)\n      callvalue\n      dup1\n      iszero\n      tag_1\n      jumpi\n      0x00\n      dup1\n      revert\n    tag_1:\n      pop\n      jumpi(tag_2, lt(calldatasize, 0x04))\n      shr(0xe0, calldataload(0x00))\n      dup1\n      0x715018a6\n      gt\n      tag_23\n      jumpi\n      dup1\n      0x9bf62f7e\n      gt\n      tag_24\n      jumpi\n      dup1\n      0x9bf62f7e\n      eq\n      tag_18\n      jumpi\n      dup1\n      0xc100710d\n      eq\n      tag_19\n      jumpi\n      dup1\n      0xcbd258b5\n      eq\n      tag_20\n      jumpi\n      dup1\n      0xe2bbb158\n      eq\n      tag_21\n      jumpi\n      dup1\n      0xf2fde38b\n      eq\n      tag_22\n      jumpi\n      jump(tag_2)\n    tag_24:\n      dup1\n      0x715018a6\n      eq\n      tag_13\n      jumpi\n      dup1\n      0x71811c3f\n      eq\n      tag_14\n      jumpi\n      dup1\n      0x8da5cb5b\n      eq\n      tag_15\n      jumpi\n      dup1\n      0x8dbb1e3a\n      eq\n      tag_16\n      jumpi\n      dup1\n      0x93f1a40b\n      eq\n      tag_17\n      jumpi\n      jump(tag_2)\n    tag_23:\n      dup1\n      0x51eb05a6\n      gt\n      tag_25\n      jumpi\n      dup1\n      0x51eb05a6\n      eq\n      tag_8\n      jumpi\n      dup1\n      0x5312ea8e\n      eq\n      tag_9\n      jumpi\n      dup1\n      0x630b5ba1\n      eq\n      tag_10\n      jumpi\n      dup1\n      0x6621d3ba\n      eq\n      tag_11\n      jumpi\n      dup1\n      0x6e983466\n      eq\n      tag_12\n      jumpi\n      jump(tag_2)\n    tag_25:\n      dup1\n      0x081e3eda\n      eq\n      tag_3\n      jumpi\n      dup1\n      0x1526fe27\n      eq\n      tag_4\n      jumpi\n      dup1\n      0x190f39f0\n      eq\n      tag_5\n      jumpi\n      dup1\n      0x267c3338\n      eq\n      tag_6\n      jumpi\n      dup1\n      0x441a3e70\n      eq\n      tag_7\n      jumpi\n    tag_2:\n      0x00\n      dup1\n      revert\n        /* \"FAANGOrchestrator.sol\":2790:2883  function poolLength() external view returns (uint256) {... */\n    tag_3:\n      tag_26\n      tag_27\n      jump\t// in\n    tag_26:\n      mload(0x40)\n      dup1\n      dup3\n      dup2\n      mstore\n      0x20\n      add\n      swap2\n      pop\n      pop\n      mload(0x40)\n      dup1\n      swap2\n      sub\n      swap1\n      return\n        /* \"FAANGOrchestrator.sol\":1759:1785  PoolInfo[] public poolInfo */\n    tag_4:\n      tag_28\n      0x04\n      dup1\n      calldatasize\n      sub\n      0x20\n      dup2\n      lt\n      iszero\n      tag_29\n      jumpi\n      0x00\n      dup1\n      revert\n    tag_29:\n      dup2\n      add\n      swap1\n      dup1\n      dup1\n      calldataload\n      swap1\n      0x20\n      add\n      swap1\n      swap3\n      swap2\n      swap1\n      pop\n      pop\n      pop\n      tag_30\n      jump\t// in\n    tag_28:\n      mload(0x40)\n      dup1\n      dup5\n      0xffffffffffffffffffffffffffffffffffffffff\n      and\n      dup2\n      mstore\n      0x20\n      add\n      dup4\n      dup2\n      mstore\n      0x20\n      add\n      dup3\n      dup2\n      mstore\n      0x20\n      add\n      swap4\n      pop\n      pop\n      pop\n      pop\n      mload(0x40)\n      dup1\n      swap2\n      sub\n      swap1\n      return\n        /* \"FAANGOrchestrator.sol\":2889:3107  function getPoolIdForLpToken(IBEP20 _lpToken) external view returns (uint256) {... */\n    tag_5:\n      tag_31\n      0x04\n      dup1\n      calldatasize\n      sub\n      0x20\n      dup2\n      lt\n      iszero\n      tag_32\n      jumpi\n      0x00\n      dup1\n      revert\n    tag_32:\n      dup2\n      add\n      swap1\n      dup1\n      dup1\n      calldataload\n      0xffffffffffffffffffffffffffffffffffffffff\n      and\n      swap1\n      0x20\n      add\n      swap1\n      swap3\n      swap2\n      swap1\n      pop\n      pop\n      pop\n      tag_33\n      jump\t// in\n    tag_31:\n      mload(0x40)\n      dup1\n      dup3\n      dup2\n      mstore\n      0x20\n      add\n      swap2\n      pop\n      pop\n      mload(0x40)\n      dup1\n      swap2\n      sub\n      swap1\n      return\n        /* \"FAANGOrchestrator.sol\":1603:1641  uint256 public FAANGPerBlock = 1 ether */\n    tag_6:\n      tag_34\n      tag_35\n      jump\t// in\n    tag_34:\n      mload(0x40)\n      dup1\n      dup3\n      dup2\n      mstore\n      0x20\n      add\n      swap2\n      pop\n      pop\n      mload(0x40)\n      dup1\n      swap2\n      sub\n      swap1\n      return\n        /* \"FAANGOrchestrator.sol\":7653:8281  function withdraw(uint256 _pid, uint256 _amount) public nonReentrant {... */\n    tag_7:\n      tag_36\n      0x04\n      dup1\n      calldatasize\n      sub\n      0x40\n      dup2\n      lt\n      iszero\n      tag_37\n      jumpi\n      0x00\n      dup1\n      revert\n    tag_37:\n      dup2\n      add\n      swap1\n      dup1\n      dup1\n      calldataload\n      swap1\n      0x20\n      add\n      swap1\n      swap3\n      swap2\n      swap1\n      dup1\n      calldataload\n      swap1\n      0x20\n      add\n      swap1\n      swap3\n      swap2\n      swap1\n      pop\n      pop\n      pop\n      tag_38\n      jump\t// in\n    tag_36:\n      stop\n        /* \"FAANGOrchestrator.sol\":5677:6769  function updatePool(uint256 _pid) public {... */\n    tag_8:\n      tag_39\n      0x04\n      dup1\n      calldatasize\n      sub\n      0x20\n      dup2\n      lt\n      iszero\n      tag_40\n      jumpi\n      0x00\n      dup1\n      revert\n    tag_40:\n      dup2\n      add\n      swap1\n      dup1\n      dup1\n      calldataload\n      swap1\n      0x20\n      add\n      swap1\n      swap3\n      swap2\n      swap1\n      pop\n      pop\n      pop\n      tag_41\n      jump\t// in\n    tag_39:\n      stop\n        /* \"FAANGOrchestrator.sol\":9099:9463  function emergencyWithdraw(uint256 _pid) public nonReentrant {... */\n    tag_9:\n      tag_42\n      0x04\n      dup1\n      calldatasize\n      sub\n      0x20\n      dup2\n      lt\n      iszero\n      tag_43\n      jumpi\n      0x00\n      dup1\n      revert\n    tag_43:\n      dup2\n      add\n      swap1\n      dup1\n      dup1\n      calldataload\n      swap1\n      0x20\n      add\n      swap1\n      swap3\n      swap2\n      swap1\n      pop\n      pop\n      pop\n      tag_44\n      jump\t// in\n    tag_42:\n      stop\n        /* \"FAANGOrchestrator.sol\":5429:5604  function massUpdatePools() public {... */\n    tag_10:\n      tag_45\n      tag_46\n      jump\t// in\n    tag_45:\n      stop\n        /* \"FAANGOrchestrator.sol\":1534:1557  FAANGToken public FAANG */\n    tag_11:\n      tag_47\n      tag_48\n      jump\t// in\n    tag_47:\n      mload(0x40)\n      dup1\n      dup3\n      0xffffffffffffffffffffffffffffffffffffffff\n      and\n      dup2\n      mstore\n      0x20\n      add\n      swap2\n      pop\n      pop\n      mload(0x40)\n      dup1\n      swap2\n      sub\n      swap1\n      return\n        /* \"FAANGOrchestrator.sol\":3364:3884  function add(... */\n    tag_12:\n      tag_49\n      0x04\n      dup1\n      calldatasize\n      sub\n      0x40\n      dup2\n      lt\n      iszero\n      tag_50\n      jumpi\n      0x00\n      dup1\n      revert\n    tag_50:\n      dup2\n      add\n      swap1\n      dup1\n      dup1\n      calldataload\n      0xffffffffffffffffffffffffffffffffffffffff\n      and\n      swap1\n      0x20\n      add\n      swap1\n      swap3\n      swap2\n      swap1\n      dup1\n      calldataload\n      iszero\n      iszero\n      swap1\n      0x20\n      add\n      swap1\n      swap3\n      swap2\n      swap1\n      pop\n      pop\n      pop\n      tag_51\n      jump\t// in\n    tag_49:\n      stop\n        /* \"Ownable.sol\":1698:1835  function renounceOwnership() public onlyOwner {... */\n    tag_13:\n      tag_52\n      tag_53\n      jump\t// in\n    tag_52:\n      stop\n        /* \"FAANGOrchestrator.sol\":6775:6884  function canClaimFAANGRewards() public view returns (bool) {... */\n    tag_14:\n      tag_54\n      tag_55\n      jump\t// in\n    tag_54:\n      mload(0x40)\n      dup1\n      dup3\n      iszero\n      iszero\n      dup2\n      mstore\n      0x20\n      add\n      swap2\n      pop\n      pop\n      mload(0x40)\n      dup1\n      swap2\n      sub\n      swap1\n      return\n        /* \"Ownable.sol\":1075:1152  function owner() public view returns (address) {... */\n    tag_15:\n      tag_56\n      tag_57\n      jump\t// in\n    tag_56:\n      mload(0x40)\n      dup1\n      dup3\n      0xffffffffffffffffffffffffffffffffffffffff\n      and\n      dup2\n      mstore\n      0x20\n      add\n      swap2\n      pop\n      pop\n      mload(0x40)\n      dup1\n      swap2\n      sub\n      swap1\n      return\n        /* \"FAANGOrchestrator.sol\":3957:4076  function getMultiplier(uint256 _from, uint256 _to) public pure returns (uint256) {... */\n    tag_16:\n      tag_58\n      0x04\n      dup1\n      calldatasize\n      sub\n      0x40\n      dup2\n      lt\n      iszero\n      tag_59\n      jumpi\n      0x00\n      dup1\n      revert\n    tag_59:\n      dup2\n      add\n      swap1\n      dup1\n      dup1\n      calldataload\n      swap1\n      0x20\n      add\n      swap1\n      swap3\n      swap2\n      swap1\n      dup1\n      calldataload\n      swap1\n      0x20\n      add\n      swap1\n      swap3\n      swap2\n      swap1\n      pop\n      pop\n      pop\n      tag_60\n      jump\t// in\n    tag_58:\n      mload(0x40)\n      dup1\n      dup3\n      dup2\n      mstore\n      0x20\n      add\n      swap2\n      pop\n      pop\n      mload(0x40)\n      dup1\n      swap2\n      sub\n      swap1\n      return\n        /* \"FAANGOrchestrator.sol\":1839:1903  mapping(uint256 => mapping(address => UserInfo)) public userInfo */\n    tag_17:\n      tag_61\n      0x04\n      dup1\n      calldatasize\n      sub\n      0x40\n      dup2\n      lt\n      iszero\n      tag_62\n      jumpi\n      0x00\n      dup1\n      revert\n    tag_62:\n      dup2\n      add\n      swap1\n      dup1\n      dup1\n      calldataload\n      swap1\n      0x20\n      add\n      swap1\n      swap3\n      swap2\n      swap1\n      dup1\n      calldataload\n      0xffffffffffffffffffffffffffffffffffffffff\n      and\n      swap1\n      0x20\n      add\n      swap1\n      swap3\n      swap2\n      swap1\n      pop\n      pop\n      pop\n      tag_63\n      jump\t// in\n    tag_61:\n      mload(0x40)\n      dup1\n      dup5\n      dup2\n      mstore\n      0x20\n      add\n      dup4\n      dup2\n      mstore\n      0x20\n      add\n      dup3\n      dup2\n      mstore\n      0x20\n      add\n      swap4\n      pop\n      pop\n      pop\n      pop\n      mload(0x40)\n      dup1\n      swap2\n      sub\n      swap1\n      return\n        /* \"FAANGOrchestrator.sol\":2103:2155  mapping(IBEP20 => uint256) public poolIdForLpAddress */\n    tag_18:\n      tag_64\n      0x04\n      dup1\n      calldatasize\n      sub\n      0x20\n      dup2\n      lt\n      iszero\n      tag_65\n      jumpi\n      0x00\n      dup1\n      revert\n    tag_65:\n      dup2\n      add\n      swap1\n      dup1\n      dup1\n      calldataload\n      0xffffffffffffffffffffffffffffffffffffffff\n      and\n      swap1\n      0x20\n      add\n      swap1\n      swap3\n      swap2\n      swap1\n      pop\n      pop\n      pop\n      tag_66\n      jump\t// in\n    tag_64:\n      mload(0x40)\n      dup1\n      dup3\n      dup2\n      mstore\n      0x20\n      add\n      swap2\n      pop\n      pop\n      mload(0x40)\n      dup1\n      swap2\n      sub\n      swap1\n      return\n        /* \"FAANGOrchestrator.sol\":4309:5349  function pendingFAANG(uint256 _pid, address _user) external view returns (uint256) {... */\n    tag_19:\n      tag_67\n      0x04\n      dup1\n      calldatasize\n      sub\n      0x40\n      dup2\n      lt\n      iszero\n      tag_68\n      jumpi\n      0x00\n      dup1\n      revert\n    tag_68:\n      dup2\n      add\n      swap1\n      dup1\n      dup1\n      calldataload\n      swap1\n      0x20\n      add\n      swap1\n      swap3\n      swap2\n      swap1\n      dup1\n      calldataload\n      0xffffffffffffffffffffffffffffffffffffffff\n      and\n      swap1\n      0x20\n      add\n      swap1\n      swap3\n      swap2\n      swap1\n      pop\n      pop\n      pop\n      tag_69\n      jump\t// in\n    tag_67:\n      mload(0x40)\n      dup1\n      dup3\n      dup2\n      mstore\n      0x20\n      add\n      swap2\n      pop\n      pop\n      mload(0x40)\n      dup1\n      swap2\n      sub\n      swap1\n      return\n        /* \"FAANGOrchestrator.sol\":2023:2067  mapping(IBEP20 => bool) public poolExistence */\n    tag_20:\n      tag_70\n      0x04\n      dup1\n      calldatasize\n      sub\n      0x20\n      dup2\n      lt\n      iszero\n      tag_71\n      jumpi\n      0x00\n      dup1\n      revert\n    tag_71:\n      dup2\n      add\n      swap1\n      dup1\n      dup1\n      calldataload\n      0xffffffffffffffffffffffffffffffffffffffff\n      and\n      swap1\n      0x20\n      add\n      swap1\n      swap3\n      swap2\n      swap1\n      pop\n      pop\n      pop\n      tag_72\n      jump\t// in\n    tag_70:\n      mload(0x40)\n      dup1\n      dup3\n      iszero\n      iszero\n      dup2\n      mstore\n      0x20\n      add\n      swap2\n      pop\n      pop\n      mload(0x40)\n      dup1\n      swap2\n      sub\n      swap1\n      return\n        /* \"FAANGOrchestrator.sol\":6890:7604  function deposit(uint256 _pid, uint256 _amount) public nonReentrant {... */\n    tag_21:\n      tag_73\n      0x04\n      dup1\n      calldatasize\n      sub\n      0x40\n      dup2\n      lt\n      iszero\n      tag_74\n      jumpi\n      0x00\n      dup1\n      revert\n    tag_74:\n      dup2\n      add\n      swap1\n      dup1\n      dup1\n      calldataload\n      swap1\n      0x20\n      add\n      swap1\n      swap3\n      swap2\n      swap1\n      dup1\n      calldataload\n      swap1\n      0x20\n      add\n      swap1\n      swap3\n      swap2\n      swap1\n      pop\n      pop\n      pop\n      tag_75\n      jump\t// in\n    tag_73:\n      stop\n        /* \"Ownable.sol\":1984:2091  function transferOwnership(address newOwner) public onlyOwner {... */\n    tag_22:\n      tag_76\n      0x04\n      dup1\n      calldatasize\n      sub\n      0x20\n      dup2\n      lt\n      iszero\n      tag_77\n      jumpi\n      0x00\n      dup1\n      revert\n    tag_77:\n      dup2\n      add\n      swap1\n      dup1\n      dup1\n      calldataload\n      0xffffffffffffffffffffffffffffffffffffffff\n      and\n      swap1\n      0x20\n      add\n      swap1\n      swap3\n      swap2\n      swap1\n      pop\n      pop\n      pop\n      tag_78\n      jump\t// in\n    tag_76:\n      stop\n        /* \"FAANGOrchestrator.sol\":2790:2883  function poolLength() external view returns (uint256) {... */\n    tag_27:\n        /* \"FAANGOrchestrator.sol\":2835:2842  uint256 */\n      0x00\n        /* \"FAANGOrchestrator.sol\":2861:2869  poolInfo */\n      0x06\n        /* \"FAANGOrchestrator.sol\":2861:2876  poolInfo.length */\n      dup1\n      sload\n      swap1\n      pop\n        /* \"FAANGOrchestrator.sol\":2854:2876  return poolInfo.length */\n      swap1\n      pop\n        /* \"FAANGOrchestrator.sol\":2790:2883  function poolLength() external view returns (uint256) {... */\n      swap1\n      jump\t// out\n        /* \"FAANGOrchestrator.sol\":1759:1785  PoolInfo[] public poolInfo */\n    tag_30:\n      0x06\n      dup2\n      dup2\n      sload\n      dup2\n      lt\n      tag_81\n      jumpi\n      invalid\n    tag_81:\n      swap1\n      0x00\n      mstore\n      keccak256(0x00, 0x20)\n      swap1\n      0x03\n      mul\n      add\n      0x00\n      swap2\n      pop\n      swap1\n      pop\n      dup1\n      0x00\n      add\n      0x00\n      swap1\n      sload\n      swap1\n      0x0100\n      exp\n      swap1\n      div\n      0xffffffffffffffffffffffffffffffffffffffff\n      and\n      swap1\n      dup1\n      0x01\n      add\n      sload\n      swap1\n      dup1\n      0x02\n      add\n      sload\n      swap1\n      pop\n      dup4\n      jump\t// out\n        /* \"FAANGOrchestrator.sol\":2889:3107  function getPoolIdForLpToken(IBEP20 _lpToken) external view returns (uint256) {... */\n    tag_33:\n        /* \"FAANGOrchestrator.sol\":2958:2965  uint256 */\n      0x00\n        /* \"FAANGOrchestrator.sol\":3012:3017  false */\n      dup1\n        /* \"FAANGOrchestrator.sol\":2985:3017  poolExistence[_lpToken] != false */\n      iszero\n      iszero\n        /* \"FAANGOrchestrator.sol\":2985:2998  poolExistence */\n      0x08\n        /* \"FAANGOrchestrator.sol\":2985:3008  poolExistence[_lpToken] */\n      0x00\n        /* \"FAANGOrchestrator.sol\":2999:3007  _lpToken */\n      dup5\n        /* \"FAANGOrchestrator.sol\":2985:3008  poolExistence[_lpToken] */\n      0xffffffffffffffffffffffffffffffffffffffff\n      and\n      0xffffffffffffffffffffffffffffffffffffffff\n      and\n      dup2\n      mstore\n      0x20\n      add\n      swap1\n      dup2\n      mstore\n      0x20\n      add\n      0x00\n      keccak256\n      0x00\n      swap1\n      sload\n      swap1\n      0x0100\n      exp\n      swap1\n      div\n      0xff\n      and\n        /* \"FAANGOrchestrator.sol\":2985:3017  poolExistence[_lpToken] != false */\n      iszero\n      iszero\n      eq\n      iszero\n        /* \"FAANGOrchestrator.sol\":2977:3055  require(poolExistence[_lpToken] != false, \"getPoolIdForLpToken: do not exist\") */\n      tag_84\n      jumpi\n      mload(0x40)\n      0x08c379a000000000000000000000000000000000000000000000000000000000\n      dup2\n      mstore\n      0x04\n      add\n      dup1\n      dup1\n      0x20\n      add\n      dup3\n      dup2\n      sub\n      dup3\n      mstore\n      0x21\n      dup2\n      mstore\n      0x20\n      add\n      dup1\n      data_bf35de78f3e15a98c58afdc189c393a6a76029783bd8ecfd3a8b87b4a628fd85\n      0x21\n      swap2\n      codecopy\n      0x40\n      add\n      swap2\n      pop\n      pop\n      mload(0x40)\n      dup1\n      swap2\n      sub\n      swap1\n      revert\n    tag_84:\n        /* \"FAANGOrchestrator.sol\":3072:3090  poolIdForLpAddress */\n      0x09\n        /* \"FAANGOrchestrator.sol\":3072:3100  poolIdForLpAddress[_lpToken] */\n      0x00\n        /* \"FAANGOrchestrator.sol\":3091:3099  _lpToken */\n      dup4\n        /* \"FAANGOrchestrator.sol\":3072:3100  poolIdForLpAddress[_lpToken] */\n      0xffffffffffffffffffffffffffffffffffffffff\n      and\n      0xffffffffffffffffffffffffffffffffffffffff\n      and\n      dup2\n      mstore\n      0x20\n      add\n      swap1\n      dup2\n      mstore\n      0x20\n      add\n      0x00\n      keccak256\n      sload\n        /* \"FAANGOrchestrator.sol\":3065:3100  return poolIdForLpAddress[_lpToken] */\n      swap1\n      pop\n        /* \"FAANGOrchestrator.sol\":2889:3107  function getPoolIdForLpToken(IBEP20 _lpToken) external view returns (uint256) {... */\n      swap2\n      swap1\n      pop\n      jump\t// out\n        /* \"FAANGOrchestrator.sol\":1603:1641  uint256 public FAANGPerBlock = 1 ether */\n    tag_35:\n      sload(0x03)\n      dup2\n      jump\t// out\n        /* \"FAANGOrchestrator.sol\":7653:8281  function withdraw(uint256 _pid, uint256 _amount) public nonReentrant {... */\n    tag_38:\n        /* \"ReentrancyGuard.sol\":1680:1681  2 */\n      0x02\n        /* \"ReentrancyGuard.sol\":2269:2276  _status */\n      sload(0x01)\n        /* \"ReentrancyGuard.sol\":2269:2288  _status != _ENTERED */\n      eq\n      iszero\n        /* \"ReentrancyGuard.sol\":2261:2324  require(_status != _ENTERED, \"ReentrancyGuard: reentrant call\") */\n      tag_86\n      jumpi\n      mload(0x40)\n      0x08c379a000000000000000000000000000000000000000000000000000000000\n      dup2\n      mstore\n      0x04\n      add\n      dup1\n      dup1\n      0x20\n      add\n      dup3\n      dup2\n      sub\n      dup3\n      mstore\n      0x1f\n      dup2\n      mstore\n      0x20\n      add\n      dup1\n      0x5265656e7472616e637947756172643a207265656e7472616e742063616c6c00\n      dup2\n      mstore\n      pop\n      0x20\n      add\n      swap2\n      pop\n      pop\n      mload(0x40)\n      dup1\n      swap2\n      sub\n      swap1\n      revert\n    tag_86:\n        /* \"ReentrancyGuard.sol\":1680:1681  2 */\n      0x02\n        /* \"ReentrancyGuard.sol\":2399:2406  _status */\n      0x01\n        /* \"ReentrancyGuard.sol\":2399:2417  _status = _ENTERED */\n      dup2\n      swap1\n      sstore\n      pop\n        /* \"FAANGOrchestrator.sol\":7732:7753  PoolInfo storage pool */\n      0x00\n        /* \"FAANGOrchestrator.sol\":7756:7764  poolInfo */\n      0x06\n        /* \"FAANGOrchestrator.sol\":7765:7769  _pid */\n      dup4\n        /* \"FAANGOrchestrator.sol\":7756:7770  poolInfo[_pid] */\n      dup2\n      sload\n      dup2\n      lt\n      tag_88\n      jumpi\n      invalid\n    tag_88:\n      swap1\n      0x00\n      mstore\n      keccak256(0x00, 0x20)\n      swap1\n      0x03\n      mul\n      add\n        /* \"FAANGOrchestrator.sol\":7732:7770  PoolInfo storage pool = poolInfo[_pid] */\n      swap1\n      pop\n        /* \"FAANGOrchestrator.sol\":7780:7801  UserInfo storage user */\n      0x00\n        /* \"FAANGOrchestrator.sol\":7804:7812  userInfo */\n      0x07\n        /* \"FAANGOrchestrator.sol\":7804:7818  userInfo[_pid] */\n      0x00\n        /* \"FAANGOrchestrator.sol\":7813:7817  _pid */\n      dup6\n        /* \"FAANGOrchestrator.sol\":7804:7818  userInfo[_pid] */\n      dup2\n      mstore\n      0x20\n      add\n      swap1\n      dup2\n      mstore\n      0x20\n      add\n      0x00\n      keccak256\n        /* \"FAANGOrchestrator.sol\":7804:7830  userInfo[_pid][msg.sender] */\n      0x00\n        /* \"FAANGOrchestrator.sol\":7819:7829  msg.sender */\n      caller\n        /* \"FAANGOrchestrator.sol\":7804:7830  userInfo[_pid][msg.sender] */\n      0xffffffffffffffffffffffffffffffffffffffff\n      and\n      0xffffffffffffffffffffffffffffffffffffffff\n      and\n      dup2\n      mstore\n      0x20\n      add\n      swap1\n      dup2\n      mstore\n      0x20\n      add\n      0x00\n      keccak256\n        /* \"FAANGOrchestrator.sol\":7780:7830  UserInfo storage user = userInfo[_pid][msg.sender] */\n      swap1\n      pop\n        /* \"FAANGOrchestrator.sol\":7864:7871  _amount */\n      dup3\n        /* \"FAANGOrchestrator.sol\":7849:7853  user */\n      dup2\n        /* \"FAANGOrchestrator.sol\":7849:7860  user.amount */\n      0x00\n      add\n      sload\n        /* \"FAANGOrchestrator.sol\":7849:7871  user.amount >= _amount */\n      lt\n      iszero\n        /* \"FAANGOrchestrator.sol\":7841:7894  require(user.amount >= _amount, \"withdraw: not good\") */\n      tag_90\n      jumpi\n      mload(0x40)\n      0x08c379a000000000000000000000000000000000000000000000000000000000\n      dup2\n      mstore\n      0x04\n      add\n      dup1\n      dup1\n      0x20\n      add\n      dup3\n      dup2\n      sub\n      dup3\n      mstore\n      0x12\n      dup2\n      mstore\n      0x20\n      add\n      dup1\n      0x77697468647261773a206e6f7420676f6f640000000000000000000000000000\n      dup2\n      mstore\n      pop\n      0x20\n      add\n      swap2\n      pop\n      pop\n      mload(0x40)\n      dup1\n      swap2\n      sub\n      swap1\n      revert\n    tag_90:\n        /* \"FAANGOrchestrator.sol\":7905:7921  updatePool(_pid) */\n      tag_91\n        /* \"FAANGOrchestrator.sol\":7916:7920  _pid */\n      dup5\n        /* \"FAANGOrchestrator.sol\":7905:7915  updatePool */\n      tag_41\n        /* \"FAANGOrchestrator.sol\":7905:7921  updatePool(_pid) */\n      jump\t// in\n    tag_91:\n        /* \"FAANGOrchestrator.sol\":7932:7961  payOrLockupPendingFAANG(_pid) */\n      tag_92\n        /* \"FAANGOrchestrator.sol\":7956:7960  _pid */\n      dup5\n        /* \"FAANGOrchestrator.sol\":7932:7955  payOrLockupPendingFAANG */\n      tag_93\n        /* \"FAANGOrchestrator.sol\":7932:7961  payOrLockupPendingFAANG(_pid) */\n      jump\t// in\n    tag_92:\n        /* \"FAANGOrchestrator.sol\":7986:7987  0 */\n      0x00\n        /* \"FAANGOrchestrator.sol\":7976:7983  _amount */\n      dup4\n        /* \"FAANGOrchestrator.sol\":7976:7987  _amount > 0 */\n      gt\n        /* \"FAANGOrchestrator.sol\":7972:8121  if (_amount > 0) {... */\n      iszero\n      tag_94\n      jumpi\n        /* \"FAANGOrchestrator.sol\":8017:8041  user.amount.sub(_amount) */\n      tag_95\n        /* \"FAANGOrchestrator.sol\":8033:8040  _amount */\n      dup4\n        /* \"FAANGOrchestrator.sol\":8017:8021  user */\n      dup3\n        /* \"FAANGOrchestrator.sol\":8017:8028  user.amount */\n      0x00\n      add\n      sload\n        /* \"FAANGOrchestrator.sol\":8017:8032  user.amount.sub */\n      tag_96\n      swap1\n        /* \"FAANGOrchestrator.sol\":8017:8041  user.amount.sub(_amount) */\n      swap2\n      swap1\n      0xffffffff\n      and\n      jump\t// in\n    tag_95:\n        /* \"FAANGOrchestrator.sol\":8003:8007  user */\n      dup2\n        /* \"FAANGOrchestrator.sol\":8003:8014  user.amount */\n      0x00\n      add\n        /* \"FAANGOrchestrator.sol\":8003:8041  user.amount = user.amount.sub(_amount) */\n      dup2\n      swap1\n      sstore\n      pop\n        /* \"FAANGOrchestrator.sol\":8055:8110  pool.lpToken.safeTransfer(address(msg.sender), _amount) */\n      tag_97\n        /* \"FAANGOrchestrator.sol\":8089:8099  msg.sender */\n      caller\n        /* \"FAANGOrchestrator.sol\":8102:8109  _amount */\n      dup5\n        /* \"FAANGOrchestrator.sol\":8055:8059  pool */\n      dup5\n        /* \"FAANGOrchestrator.sol\":8055:8067  pool.lpToken */\n      0x00\n      add\n      0x00\n      swap1\n      sload\n      swap1\n      0x0100\n      exp\n      swap1\n      div\n      0xffffffffffffffffffffffffffffffffffffffff\n      and\n        /* \"FAANGOrchestrator.sol\":8055:8080  pool.lpToken.safeTransfer */\n      0xffffffffffffffffffffffffffffffffffffffff\n      and\n      tag_98\n      swap1\n        /* \"FAANGOrchestrator.sol\":8055:8110  pool.lpToken.safeTransfer(address(msg.sender), _amount) */\n      swap3\n      swap2\n      swap1\n      0xffffffff\n      and\n      jump\t// in\n    tag_97:\n        /* \"FAANGOrchestrator.sol\":7972:8121  if (_amount > 0) {... */\n    tag_94:\n        /* \"FAANGOrchestrator.sol\":8149:8223  user.amount... */\n      tag_99\n        /* \"FAANGOrchestrator.sol\":8218:8222  1e12 */\n      0xe8d4a51000\n        /* \"FAANGOrchestrator.sol\":8149:8200  user.amount... */\n      tag_100\n        /* \"FAANGOrchestrator.sol\":8178:8182  pool */\n      dup5\n        /* \"FAANGOrchestrator.sol\":8178:8199  pool.accFAANGPerShare */\n      0x02\n      add\n      sload\n        /* \"FAANGOrchestrator.sol\":8149:8153  user */\n      dup5\n        /* \"FAANGOrchestrator.sol\":8149:8160  user.amount */\n      0x00\n      add\n      sload\n        /* \"FAANGOrchestrator.sol\":8149:8177  user.amount... */\n      tag_101\n      swap1\n        /* \"FAANGOrchestrator.sol\":8149:8200  user.amount... */\n      swap2\n      swap1\n      0xffffffff\n      and\n      jump\t// in\n    tag_100:\n        /* \"FAANGOrchestrator.sol\":8149:8217  user.amount... */\n      tag_102\n      swap1\n        /* \"FAANGOrchestrator.sol\":8149:8223  user.amount... */\n      swap2\n      swap1\n      0xffffffff\n      and\n      jump\t// in\n    tag_99:\n        /* \"FAANGOrchestrator.sol\":8131:8135  user */\n      dup2\n        /* \"FAANGOrchestrator.sol\":8131:8146  user.rewardDebt */\n      0x01\n      add\n        /* \"FAANGOrchestrator.sol\":8131:8223  user.rewardDebt = user.amount... */\n      dup2\n      swap1\n      sstore\n      pop\n        /* \"FAANGOrchestrator.sol\":8260:8264  _pid */\n      dup4\n        /* \"FAANGOrchestrator.sol\":8248:8258  msg.sender */\n      caller\n        /* \"FAANGOrchestrator.sol\":8239:8274  Withdraw(msg.sender, _pid, _amount) */\n      0xffffffffffffffffffffffffffffffffffffffff\n      and\n      0xf279e6a1f5e320cca91135676d9cb6e44ca8a08c0b88342bcdb1144f6511b568\n        /* \"FAANGOrchestrator.sol\":8266:8273  _amount */\n      dup6\n        /* \"FAANGOrchestrator.sol\":8239:8274  Withdraw(msg.sender, _pid, _amount) */\n      mload(0x40)\n      dup1\n      dup3\n      dup2\n      mstore\n      0x20\n      add\n      swap2\n      pop\n      pop\n      mload(0x40)\n      dup1\n      swap2\n      sub\n      swap1\n      log3\n        /* \"ReentrancyGuard.sol\":2428:2429  _ */\n      pop\n      pop\n        /* \"ReentrancyGuard.sol\":1637:1638  1 */\n      0x01\n        /* \"ReentrancyGuard.sol\":2572:2579  _status */\n      dup1\n        /* \"ReentrancyGuard.sol\":2572:2594  _status = _NOT_ENTERED */\n      dup2\n      swap1\n      sstore\n      pop\n        /* \"FAANGOrchestrator.sol\":7653:8281  function withdraw(uint256 _pid, uint256 _amount) public nonReentrant {... */\n      pop\n      pop\n      jump\t// out\n        /* \"FAANGOrchestrator.sol\":5677:6769  function updatePool(uint256 _pid) public {... */\n    tag_41:\n        /* \"FAANGOrchestrator.sol\":5728:5749  PoolInfo storage pool */\n      0x00\n        /* \"FAANGOrchestrator.sol\":5752:5760  poolInfo */\n      0x06\n        /* \"FAANGOrchestrator.sol\":5761:5765  _pid */\n      dup3\n        /* \"FAANGOrchestrator.sol\":5752:5766  poolInfo[_pid] */\n      dup2\n      sload\n      dup2\n      lt\n      tag_104\n      jumpi\n      invalid\n    tag_104:\n      swap1\n      0x00\n      mstore\n      keccak256(0x00, 0x20)\n      swap1\n      0x03\n      mul\n      add\n        /* \"FAANGOrchestrator.sol\":5728:5766  PoolInfo storage pool = poolInfo[_pid] */\n      swap1\n      pop\n        /* \"FAANGOrchestrator.sol\":5777:5808  uint256 blockToCalculateRewards */\n      0x00\n        /* \"FAANGOrchestrator.sol\":5811:5851  minCurrentBlockAndInactiveBlockIfExist() */\n      tag_106\n        /* \"FAANGOrchestrator.sol\":5811:5849  minCurrentBlockAndInactiveBlockIfExist */\n      tag_107\n        /* \"FAANGOrchestrator.sol\":5811:5851  minCurrentBlockAndInactiveBlockIfExist() */\n      jump\t// in\n    tag_106:\n        /* \"FAANGOrchestrator.sol\":5777:5851  uint256 blockToCalculateRewards = minCurrentBlockAndInactiveBlockIfExist() */\n      swap1\n      pop\n        /* \"FAANGOrchestrator.sol\":5893:5897  pool */\n      dup2\n        /* \"FAANGOrchestrator.sol\":5893:5913  pool.lastRewardBlock */\n      0x01\n      add\n      sload\n        /* \"FAANGOrchestrator.sol\":5866:5889  blockToCalculateRewards */\n      dup2\n        /* \"FAANGOrchestrator.sol\":5866:5913  blockToCalculateRewards <= pool.lastRewardBlock */\n      gt\n        /* \"FAANGOrchestrator.sol\":5862:5946  if (blockToCalculateRewards <= pool.lastRewardBlock) {... */\n      tag_108\n      jumpi\n        /* \"FAANGOrchestrator.sol\":5929:5936  return; */\n      pop\n      pop\n      jump(tag_103)\n        /* \"FAANGOrchestrator.sol\":5862:5946  if (blockToCalculateRewards <= pool.lastRewardBlock) {... */\n    tag_108:\n        /* \"FAANGOrchestrator.sol\":5956:5972  uint256 lpSupply */\n      0x00\n        /* \"FAANGOrchestrator.sol\":5975:5979  pool */\n      dup3\n        /* \"FAANGOrchestrator.sol\":5975:5987  pool.lpToken */\n      0x00\n      add\n      0x00\n      swap1\n      sload\n      swap1\n      0x0100\n      exp\n      swap1\n      div\n      0xffffffffffffffffffffffffffffffffffffffff\n      and\n        /* \"FAANGOrchestrator.sol\":5975:5997  pool.lpToken.balanceOf */\n      0xffffffffffffffffffffffffffffffffffffffff\n      and\n      0x70a08231\n        /* \"FAANGOrchestrator.sol\":6006:6010  this */\n      address\n        /* \"FAANGOrchestrator.sol\":5975:6012  pool.lpToken.balanceOf(address(this)) */\n      mload(0x40)\n      dup3\n      0xffffffff\n      and\n      0xe0\n      shl\n      dup2\n      mstore\n      0x04\n      add\n      dup1\n      dup3\n      0xffffffffffffffffffffffffffffffffffffffff\n      and\n      dup2\n      mstore\n      0x20\n      add\n      swap2\n      pop\n      pop\n      0x20\n      mload(0x40)\n      dup1\n      dup4\n      sub\n      dup2\n      dup7\n      dup1\n      extcodesize\n      iszero\n      dup1\n      iszero\n      tag_109\n      jumpi\n      0x00\n      dup1\n      revert\n    tag_109:\n      pop\n      gas\n      staticcall\n      iszero\n      dup1\n      iszero\n      tag_111\n      jumpi\n      returndatasize\n      0x00\n      dup1\n      returndatacopy\n      revert(0x00, returndatasize)\n    tag_111:\n      pop\n      pop\n      pop\n      pop\n      mload(0x40)\n      returndatasize\n      0x20\n      dup2\n      lt\n      iszero\n      tag_112\n      jumpi\n      0x00\n      dup1\n      revert\n    tag_112:\n      dup2\n      add\n      swap1\n      dup1\n      dup1\n      mload\n      swap1\n      0x20\n      add\n      swap1\n      swap3\n      swap2\n      swap1\n      pop\n      pop\n      pop\n        /* \"FAANGOrchestrator.sol\":5956:6012  uint256 lpSupply = pool.lpToken.balanceOf(address(this)) */\n      swap1\n      pop\n        /* \"FAANGOrchestrator.sol\":6127:6128  0 */\n      0x00\n        /* \"FAANGOrchestrator.sol\":6115:6123  lpSupply */\n      dup2\n        /* \"FAANGOrchestrator.sol\":6115:6128  lpSupply == 0 */\n      eq\n        /* \"FAANGOrchestrator.sol\":6111:6222  if (lpSupply == 0) {... */\n      iszero\n      tag_113\n      jumpi\n        /* \"FAANGOrchestrator.sol\":6167:6190  blockToCalculateRewards */\n      dup2\n        /* \"FAANGOrchestrator.sol\":6144:6148  pool */\n      dup4\n        /* \"FAANGOrchestrator.sol\":6144:6164  pool.lastRewardBlock */\n      0x01\n      add\n        /* \"FAANGOrchestrator.sol\":6144:6190  pool.lastRewardBlock = blockToCalculateRewards */\n      dup2\n      swap1\n      sstore\n      pop\n        /* \"FAANGOrchestrator.sol\":6205:6212  return; */\n      pop\n      pop\n      pop\n      jump(tag_103)\n        /* \"FAANGOrchestrator.sol\":6111:6222  if (lpSupply == 0) {... */\n    tag_113:\n        /* \"FAANGOrchestrator.sol\":6232:6250  uint256 multiplier */\n      0x00\n        /* \"FAANGOrchestrator.sol\":6253:6313  getMultiplier(pool.lastRewardBlock, blockToCalculateRewards) */\n      tag_114\n        /* \"FAANGOrchestrator.sol\":6267:6271  pool */\n      dup5\n        /* \"FAANGOrchestrator.sol\":6267:6287  pool.lastRewardBlock */\n      0x01\n      add\n      sload\n        /* \"FAANGOrchestrator.sol\":6289:6312  blockToCalculateRewards */\n      dup5\n        /* \"FAANGOrchestrator.sol\":6253:6266  getMultiplier */\n      tag_60\n        /* \"FAANGOrchestrator.sol\":6253:6313  getMultiplier(pool.lastRewardBlock, blockToCalculateRewards) */\n      jump\t// in\n    tag_114:\n        /* \"FAANGOrchestrator.sol\":6232:6313  uint256 multiplier = getMultiplier(pool.lastRewardBlock, blockToCalculateRewards) */\n      swap1\n      pop\n        /* \"FAANGOrchestrator.sol\":6384:6403  uint256 FAANGReward */\n      0x00\n        /* \"FAANGOrchestrator.sol\":6406:6435  multiplier.mul(FAANGPerBlock) */\n      tag_115\n        /* \"FAANGOrchestrator.sol\":6421:6434  FAANGPerBlock */\n      sload(0x03)\n        /* \"FAANGOrchestrator.sol\":6406:6416  multiplier */\n      dup4\n        /* \"FAANGOrchestrator.sol\":6406:6420  multiplier.mul */\n      tag_101\n      swap1\n        /* \"FAANGOrchestrator.sol\":6406:6435  multiplier.mul(FAANGPerBlock) */\n      swap2\n      swap1\n      0xffffffff\n      and\n      jump\t// in\n    tag_115:\n        /* \"FAANGOrchestrator.sol\":6384:6435  uint256 FAANGReward = multiplier.mul(FAANGPerBlock) */\n      swap1\n      pop\n        /* \"FAANGOrchestrator.sol\":6446:6451  FAANG */\n      0x02\n      0x00\n      swap1\n      sload\n      swap1\n      0x0100\n      exp\n      swap1\n      div\n      0xffffffffffffffffffffffffffffffffffffffff\n      and\n        /* \"FAANGOrchestrator.sol\":6446:6456  FAANG.mint */\n      0xffffffffffffffffffffffffffffffffffffffff\n      and\n      0x40c10f19\n        /* \"FAANGOrchestrator.sol\":6465:6469  this */\n      address\n        /* \"FAANGOrchestrator.sol\":6472:6483  FAANGReward */\n      dup4\n        /* \"FAANGOrchestrator.sol\":6446:6484  FAANG.mint(address(this), FAANGReward) */\n      mload(0x40)\n      dup4\n      0xffffffff\n      and\n      0xe0\n      shl\n      dup2\n      mstore\n      0x04\n      add\n      dup1\n      dup4\n      0xffffffffffffffffffffffffffffffffffffffff\n      and\n      dup2\n      mstore\n      0x20\n      add\n      dup3\n      dup2\n      mstore\n      0x20\n      add\n      swap3\n      pop\n      pop\n      pop\n      0x00\n      mload(0x40)\n      dup1\n      dup4\n      sub\n      dup2\n      0x00\n      dup8\n      dup1\n      extcodesize\n      iszero\n      dup1\n      iszero\n      tag_116\n      jumpi\n      0x00\n      dup1\n      revert\n    tag_116:\n      pop\n      gas\n      call\n      iszero\n      dup1\n      iszero\n      tag_118\n      jumpi\n      returndatasize\n      0x00\n      dup1\n      returndatacopy\n      revert(0x00, returndatasize)\n    tag_118:\n      pop\n      pop\n      pop\n      pop\n        /* \"FAANGOrchestrator.sol\":6566:6705  pool.accFAANGPerShare... */\n      tag_119\n        /* \"FAANGOrchestrator.sol\":6622:6691  FAANGReward... */\n      tag_120\n        /* \"FAANGOrchestrator.sol\":6682:6690  lpSupply */\n      dup5\n        /* \"FAANGOrchestrator.sol\":6622:6660  FAANGReward... */\n      tag_121\n        /* \"FAANGOrchestrator.sol\":6655:6659  1e12 */\n      0xe8d4a51000\n        /* \"FAANGOrchestrator.sol\":6622:6633  FAANGReward */\n      dup6\n        /* \"FAANGOrchestrator.sol\":6622:6654  FAANGReward... */\n      tag_101\n      swap1\n        /* \"FAANGOrchestrator.sol\":6622:6660  FAANGReward... */\n      swap2\n      swap1\n      0xffffffff\n      and\n      jump\t// in\n    tag_121:\n        /* \"FAANGOrchestrator.sol\":6622:6681  FAANGReward... */\n      tag_102\n      swap1\n        /* \"FAANGOrchestrator.sol\":6622:6691  FAANGReward... */\n      swap2\n      swap1\n      0xffffffff\n      and\n      jump\t// in\n    tag_120:\n        /* \"FAANGOrchestrator.sol\":6566:6570  pool */\n      dup7\n        /* \"FAANGOrchestrator.sol\":6566:6587  pool.accFAANGPerShare */\n      0x02\n      add\n      sload\n        /* \"FAANGOrchestrator.sol\":6566:6604  pool.accFAANGPerShare... */\n      tag_79\n      swap1\n        /* \"FAANGOrchestrator.sol\":6566:6705  pool.accFAANGPerShare... */\n      swap2\n      swap1\n      0xffffffff\n      and\n      jump\t// in\n    tag_119:\n        /* \"FAANGOrchestrator.sol\":6542:6546  pool */\n      dup6\n        /* \"FAANGOrchestrator.sol\":6542:6563  pool.accFAANGPerShare */\n      0x02\n      add\n        /* \"FAANGOrchestrator.sol\":6542:6705  pool.accFAANGPerShare = pool.accFAANGPerShare... */\n      dup2\n      swap1\n      sstore\n      pop\n        /* \"FAANGOrchestrator.sol\":6739:6762  blockToCalculateRewards */\n      dup4\n        /* \"FAANGOrchestrator.sol\":6716:6720  pool */\n      dup6\n        /* \"FAANGOrchestrator.sol\":6716:6736  pool.lastRewardBlock */\n      0x01\n      add\n        /* \"FAANGOrchestrator.sol\":6716:6762  pool.lastRewardBlock = blockToCalculateRewards */\n      dup2\n      swap1\n      sstore\n      pop\n        /* \"FAANGOrchestrator.sol\":5677:6769  function updatePool(uint256 _pid) public {... */\n      pop\n      pop\n      pop\n      pop\n      pop\n    tag_103:\n      pop\n      jump\t// out\n        /* \"FAANGOrchestrator.sol\":9099:9463  function emergencyWithdraw(uint256 _pid) public nonReentrant {... */\n    tag_44:\n        /* \"ReentrancyGuard.sol\":1680:1681  2 */\n      0x02\n        /* \"ReentrancyGuard.sol\":2269:2276  _status */\n      sload(0x01)\n        /* \"ReentrancyGuard.sol\":2269:2288  _status != _ENTERED */\n      eq\n      iszero\n        /* \"ReentrancyGuard.sol\":2261:2324  require(_status != _ENTERED, \"ReentrancyGuard: reentrant call\") */\n      tag_123\n      jumpi\n      mload(0x40)\n      0x08c379a000000000000000000000000000000000000000000000000000000000\n      dup2\n      mstore\n      0x04\n      add\n      dup1\n      dup1\n      0x20\n      add\n      dup3\n      dup2\n      sub\n      dup3\n      mstore\n      0x1f\n      dup2\n      mstore\n      0x20\n      add\n      dup1\n      0x5265656e7472616e637947756172643a207265656e7472616e742063616c6c00\n      dup2\n      mstore\n      pop\n      0x20\n      add\n      swap2\n      pop\n      pop\n      mload(0x40)\n      dup1\n      swap2\n      sub\n      swap1\n      revert\n    tag_123:\n        /* \"ReentrancyGuard.sol\":1680:1681  2 */\n      0x02\n        /* \"ReentrancyGuard.sol\":2399:2406  _status */\n      0x01\n        /* \"ReentrancyGuard.sol\":2399:2417  _status = _ENTERED */\n      dup2\n      swap1\n      sstore\n      pop\n        /* \"FAANGOrchestrator.sol\":9170:9191  PoolInfo storage pool */\n      0x00\n        /* \"FAANGOrchestrator.sol\":9194:9202  poolInfo */\n      0x06\n        /* \"FAANGOrchestrator.sol\":9203:9207  _pid */\n      dup3\n        /* \"FAANGOrchestrator.sol\":9194:9208  poolInfo[_pid] */\n      dup2\n      sload\n      dup2\n      lt\n      tag_125\n      jumpi\n      invalid\n    tag_125:\n      swap1\n      0x00\n      mstore\n      keccak256(0x00, 0x20)\n      swap1\n      0x03\n      mul\n      add\n        /* \"FAANGOrchestrator.sol\":9170:9208  PoolInfo storage pool = poolInfo[_pid] */\n      swap1\n      pop\n        /* \"FAANGOrchestrator.sol\":9218:9239  UserInfo storage user */\n      0x00\n        /* \"FAANGOrchestrator.sol\":9242:9250  userInfo */\n      0x07\n        /* \"FAANGOrchestrator.sol\":9242:9256  userInfo[_pid] */\n      0x00\n        /* \"FAANGOrchestrator.sol\":9251:9255  _pid */\n      dup5\n        /* \"FAANGOrchestrator.sol\":9242:9256  userInfo[_pid] */\n      dup2\n      mstore\n      0x20\n      add\n      swap1\n      dup2\n      mstore\n      0x20\n      add\n      0x00\n      keccak256\n        /* \"FAANGOrchestrator.sol\":9242:9268  userInfo[_pid][msg.sender] */\n      0x00\n        /* \"FAANGOrchestrator.sol\":9257:9267  msg.sender */\n      caller\n        /* \"FAANGOrchestrator.sol\":9242:9268  userInfo[_pid][msg.sender] */\n      0xffffffffffffffffffffffffffffffffffffffff\n      and\n      0xffffffffffffffffffffffffffffffffffffffff\n      and\n      dup2\n      mstore\n      0x20\n      add\n      swap1\n      dup2\n      mstore\n      0x20\n      add\n      0x00\n      keccak256\n        /* \"FAANGOrchestrator.sol\":9218:9268  UserInfo storage user = userInfo[_pid][msg.sender] */\n      swap1\n      pop\n        /* \"FAANGOrchestrator.sol\":9278:9337  pool.lpToken.safeTransfer(address(msg.sender), user.amount) */\n      tag_127\n        /* \"FAANGOrchestrator.sol\":9312:9322  msg.sender */\n      caller\n        /* \"FAANGOrchestrator.sol\":9325:9329  user */\n      dup3\n        /* \"FAANGOrchestrator.sol\":9325:9336  user.amount */\n      0x00\n      add\n      sload\n        /* \"FAANGOrchestrator.sol\":9278:9282  pool */\n      dup5\n        /* \"FAANGOrchestrator.sol\":9278:9290  pool.lpToken */\n      0x00\n      add\n      0x00\n      swap1\n      sload\n      swap1\n      0x0100\n      exp\n      swap1\n      div\n      0xffffffffffffffffffffffffffffffffffffffff\n      and\n        /* \"FAANGOrchestrator.sol\":9278:9303  pool.lpToken.safeTransfer */\n      0xffffffffffffffffffffffffffffffffffffffff\n      and\n      tag_98\n      swap1\n        /* \"FAANGOrchestrator.sol\":9278:9337  pool.lpToken.safeTransfer(address(msg.sender), user.amount) */\n      swap3\n      swap2\n      swap1\n      0xffffffff\n      and\n      jump\t// in\n    tag_127:\n        /* \"FAANGOrchestrator.sol\":9383:9387  _pid */\n      dup3\n        /* \"FAANGOrchestrator.sol\":9371:9381  msg.sender */\n      caller\n        /* \"FAANGOrchestrator.sol\":9353:9401  EmergencyWithdraw(msg.sender, _pid, user.amount) */\n      0xffffffffffffffffffffffffffffffffffffffff\n      and\n      0xbb757047c2b5f3974fe26b7c10f732e7bce710b0952a71082702781e62ae0595\n        /* \"FAANGOrchestrator.sol\":9389:9393  user */\n      dup4\n        /* \"FAANGOrchestrator.sol\":9389:9400  user.amount */\n      0x00\n      add\n      sload\n        /* \"FAANGOrchestrator.sol\":9353:9401  EmergencyWithdraw(msg.sender, _pid, user.amount) */\n      mload(0x40)\n      dup1\n      dup3\n      dup2\n      mstore\n      0x20\n      add\n      swap2\n      pop\n      pop\n      mload(0x40)\n      dup1\n      swap2\n      sub\n      swap1\n      log3\n        /* \"FAANGOrchestrator.sol\":9426:9427  0 */\n      0x00\n        /* \"FAANGOrchestrator.sol\":9412:9416  user */\n      dup2\n        /* \"FAANGOrchestrator.sol\":9412:9423  user.amount */\n      0x00\n      add\n        /* \"FAANGOrchestrator.sol\":9412:9427  user.amount = 0 */\n      dup2\n      swap1\n      sstore\n      pop\n        /* \"FAANGOrchestrator.sol\":9455:9456  0 */\n      0x00\n        /* \"FAANGOrchestrator.sol\":9437:9441  user */\n      dup2\n        /* \"FAANGOrchestrator.sol\":9437:9452  user.rewardDebt */\n      0x01\n      add\n        /* \"FAANGOrchestrator.sol\":9437:9456  user.rewardDebt = 0 */\n      dup2\n      swap1\n      sstore\n      pop\n        /* \"ReentrancyGuard.sol\":2428:2429  _ */\n      pop\n      pop\n        /* \"ReentrancyGuard.sol\":1637:1638  1 */\n      0x01\n        /* \"ReentrancyGuard.sol\":2572:2579  _status */\n      dup1\n        /* \"ReentrancyGuard.sol\":2572:2594  _status = _NOT_ENTERED */\n      dup2\n      swap1\n      sstore\n      pop\n        /* \"FAANGOrchestrator.sol\":9099:9463  function emergencyWithdraw(uint256 _pid) public nonReentrant {... */\n      pop\n      jump\t// out\n        /* \"FAANGOrchestrator.sol\":5429:5604  function massUpdatePools() public {... */\n    tag_46:\n        /* \"FAANGOrchestrator.sol\":5473:5487  uint256 length */\n      0x00\n        /* \"FAANGOrchestrator.sol\":5490:5498  poolInfo */\n      0x06\n        /* \"FAANGOrchestrator.sol\":5490:5505  poolInfo.length */\n      dup1\n      sload\n      swap1\n      pop\n        /* \"FAANGOrchestrator.sol\":5473:5505  uint256 length = poolInfo.length */\n      swap1\n      pop\n        /* \"FAANGOrchestrator.sol\":5520:5531  uint256 pid */\n      0x00\n        /* \"FAANGOrchestrator.sol\":5515:5598  for (uint256 pid = 0; pid < length; ++pid) {... */\n    tag_129:\n        /* \"FAANGOrchestrator.sol\":5543:5549  length */\n      dup2\n        /* \"FAANGOrchestrator.sol\":5537:5540  pid */\n      dup2\n        /* \"FAANGOrchestrator.sol\":5537:5549  pid < length */\n      lt\n        /* \"FAANGOrchestrator.sol\":5515:5598  for (uint256 pid = 0; pid < length; ++pid) {... */\n      iszero\n      tag_130\n      jumpi\n        /* \"FAANGOrchestrator.sol\":5572:5587  updatePool(pid) */\n      tag_132\n        /* \"FAANGOrchestrator.sol\":5583:5586  pid */\n      dup2\n        /* \"FAANGOrchestrator.sol\":5572:5582  updatePool */\n      tag_41\n        /* \"FAANGOrchestrator.sol\":5572:5587  updatePool(pid) */\n      jump\t// in\n    tag_132:\n        /* \"FAANGOrchestrator.sol\":5551:5556  ++pid */\n      dup1\n      0x01\n      add\n      swap1\n      pop\n        /* \"FAANGOrchestrator.sol\":5515:5598  for (uint256 pid = 0; pid < length; ++pid) {... */\n      jump(tag_129)\n    tag_130:\n      pop\n        /* \"FAANGOrchestrator.sol\":5429:5604  function massUpdatePools() public {... */\n      pop\n      jump\t// out\n        /* \"FAANGOrchestrator.sol\":1534:1557  FAANGToken public FAANG */\n    tag_48:\n      0x02\n      0x00\n      swap1\n      sload\n      swap1\n      0x0100\n      exp\n      swap1\n      div\n      0xffffffffffffffffffffffffffffffffffffffff\n      and\n      dup2\n      jump\t// out\n        /* \"FAANGOrchestrator.sol\":3364:3884  function add(... */\n    tag_51:\n        /* \"Ownable.sol\":1289:1301  _msgSender() */\n      tag_134\n        /* \"Ownable.sol\":1289:1299  _msgSender */\n      tag_135\n        /* \"Ownable.sol\":1289:1301  _msgSender() */\n      jump\t// in\n    tag_134:\n        /* \"Ownable.sol\":1279:1301  _owner == _msgSender() */\n      0xffffffffffffffffffffffffffffffffffffffff\n      and\n        /* \"Ownable.sol\":1279:1285  _owner */\n      0x00\n      dup1\n      sload\n      swap1\n      0x0100\n      exp\n      swap1\n      div\n      0xffffffffffffffffffffffffffffffffffffffff\n      and\n        /* \"Ownable.sol\":1279:1301  _owner == _msgSender() */\n      0xffffffffffffffffffffffffffffffffffffffff\n      and\n      eq\n        /* \"Ownable.sol\":1271:1338  require(_owner == _msgSender(), 'Ownable: caller is not the owner') */\n      tag_136\n      jumpi\n      mload(0x40)\n      0x08c379a000000000000000000000000000000000000000000000000000000000\n      dup2\n      mstore\n      0x04\n      add\n      dup1\n      dup1\n      0x20\n      add\n      dup3\n      dup2\n      sub\n      dup3\n      mstore\n      0x20\n      dup2\n      mstore\n      0x20\n      add\n      dup1\n      0x4f776e61626c653a2063616c6c6572206973206e6f7420746865206f776e6572\n      dup2\n      mstore\n      pop\n      0x20\n      add\n      swap2\n      pop\n      pop\n      mload(0x40)\n      dup1\n      swap2\n      sub\n      swap1\n      revert\n    tag_136:\n        /* \"FAANGOrchestrator.sol\":3465:3473  _lpToken */\n      dup2\n        /* \"FAANGOrchestrator.sol\":3239:3244  false */\n      0x00\n        /* \"FAANGOrchestrator.sol\":3212:3244  poolExistence[_lpToken] == false */\n      iszero\n      iszero\n        /* \"FAANGOrchestrator.sol\":3212:3225  poolExistence */\n      0x08\n        /* \"FAANGOrchestrator.sol\":3212:3235  poolExistence[_lpToken] */\n      0x00\n        /* \"FAANGOrchestrator.sol\":3226:3234  _lpToken */\n      dup4\n        /* \"FAANGOrchestrator.sol\":3212:3235  poolExistence[_lpToken] */\n      0xffffffffffffffffffffffffffffffffffffffff\n      and\n      0xffffffffffffffffffffffffffffffffffffffff\n      and\n      dup2\n      mstore\n      0x20\n      add\n      swap1\n      dup2\n      mstore\n      0x20\n      add\n      0x00\n      keccak256\n      0x00\n      swap1\n      sload\n      swap1\n      0x0100\n      exp\n      swap1\n      div\n      0xff\n      and\n        /* \"FAANGOrchestrator.sol\":3212:3244  poolExistence[_lpToken] == false */\n      iszero\n      iszero\n      eq\n        /* \"FAANGOrchestrator.sol\":3204:3274  require(poolExistence[_lpToken] == false, \"nonDuplicated: duplicated\") */\n      tag_138\n      jumpi\n      mload(0x40)\n      0x08c379a000000000000000000000000000000000000000000000000000000000\n      dup2\n      mstore\n      0x04\n      add\n      dup1\n      dup1\n      0x20\n      add\n      dup3\n      dup2\n      sub\n      dup3\n      mstore\n      0x19\n      dup2\n      mstore\n      0x20\n      add\n      dup1\n      0x6e6f6e4475706c6963617465643a206475706c69636174656400000000000000\n      dup2\n      mstore\n      pop\n      0x20\n      add\n      swap2\n      pop\n      pop\n      mload(0x40)\n      dup1\n      swap2\n      sub\n      swap1\n      revert\n    tag_138:\n        /* \"FAANGOrchestrator.sol\":3489:3500  _withUpdate */\n      dup2\n        /* \"FAANGOrchestrator.sol\":3485:3544  if (_withUpdate) {... */\n      iszero\n      tag_140\n      jumpi\n        /* \"FAANGOrchestrator.sol\":3516:3533  massUpdatePools() */\n      tag_141\n        /* \"FAANGOrchestrator.sol\":3516:3531  massUpdatePools */\n      tag_46\n        /* \"FAANGOrchestrator.sol\":3516:3533  massUpdatePools() */\n      jump\t// in\n    tag_141:\n        /* \"FAANGOrchestrator.sol\":3485:3544  if (_withUpdate) {... */\n    tag_140:\n        /* \"FAANGOrchestrator.sol\":3580:3584  true */\n      0x01\n        /* \"FAANGOrchestrator.sol\":3554:3567  poolExistence */\n      0x08\n        /* \"FAANGOrchestrator.sol\":3554:3577  poolExistence[_lpToken] */\n      0x00\n        /* \"FAANGOrchestrator.sol\":3568:3576  _lpToken */\n      dup6\n        /* \"FAANGOrchestrator.sol\":3554:3577  poolExistence[_lpToken] */\n      0xffffffffffffffffffffffffffffffffffffffff\n      and\n      0xffffffffffffffffffffffffffffffffffffffff\n      and\n      dup2\n      mstore\n      0x20\n      add\n      swap1\n      dup2\n      mstore\n      0x20\n      add\n      0x00\n      keccak256\n      0x00\n        /* \"FAANGOrchestrator.sol\":3554:3584  poolExistence[_lpToken] = true */\n      0x0100\n      exp\n      dup2\n      sload\n      dup2\n      0xff\n      mul\n      not\n      and\n      swap1\n      dup4\n      iszero\n      iszero\n      mul\n      or\n      swap1\n      sstore\n      pop\n        /* \"FAANGOrchestrator.sol\":3595:3603  poolInfo */\n      0x06\n        /* \"FAANGOrchestrator.sol\":3622:3806  PoolInfo({... */\n      mload(0x40)\n      dup1\n      0x60\n      add\n      0x40\n      mstore\n      dup1\n        /* \"FAANGOrchestrator.sol\":3658:3666  _lpToken */\n      dup6\n        /* \"FAANGOrchestrator.sol\":3622:3806  PoolInfo({... */\n      0xffffffffffffffffffffffffffffffffffffffff\n      and\n      dup2\n      mstore\n      0x20\n      add\n        /* \"FAANGOrchestrator.sol\":3716:3726  startBlock */\n      sload(0x05)\n        /* \"FAANGOrchestrator.sol\":3701:3713  block.number */\n      number\n        /* \"FAANGOrchestrator.sol\":3701:3726  block.number > startBlock */\n      gt\n        /* \"FAANGOrchestrator.sol\":3701:3754  block.number > startBlock ? block.number : startBlock */\n      tag_142\n      jumpi\n        /* \"FAANGOrchestrator.sol\":3744:3754  startBlock */\n      sload(0x05)\n        /* \"FAANGOrchestrator.sol\":3701:3754  block.number > startBlock ? block.number : startBlock */\n      jump(tag_143)\n    tag_142:\n        /* \"FAANGOrchestrator.sol\":3729:3741  block.number */\n      number\n        /* \"FAANGOrchestrator.sol\":3701:3754  block.number > startBlock ? block.number : startBlock */\n    tag_143:\n        /* \"FAANGOrchestrator.sol\":3622:3806  PoolInfo({... */\n      dup2\n      mstore\n      0x20\n      add\n        /* \"FAANGOrchestrator.sol\":3790:3791  0 */\n      0x00\n        /* \"FAANGOrchestrator.sol\":3622:3806  PoolInfo({... */\n      dup2\n      mstore\n      pop\n        /* \"FAANGOrchestrator.sol\":3595:3816  poolInfo.push(... */\n      swap1\n      dup1\n      0x01\n      dup2\n      sload\n      add\n      dup1\n      dup3\n      sstore\n      dup1\n      swap2\n      pop\n      pop\n      0x01\n      swap1\n      sub\n      swap1\n      0x00\n      mstore\n      keccak256(0x00, 0x20)\n      swap1\n      0x03\n      mul\n      add\n      0x00\n      swap1\n      swap2\n      swap1\n      swap2\n      swap1\n      swap2\n      pop\n      0x00\n      dup3\n      add\n      mload\n      dup2\n      0x00\n      add\n      exp(0x0100, 0x00)\n      dup2\n      sload\n      dup2\n      0xffffffffffffffffffffffffffffffffffffffff\n      mul\n      not\n      and\n      swap1\n      dup4\n      0xffffffffffffffffffffffffffffffffffffffff\n      and\n      mul\n      or\n      swap1\n      sstore\n      pop\n      0x20\n      dup3\n      add\n      mload\n      dup2\n      0x01\n      add\n      sstore\n      0x40\n      dup3\n      add\n      mload\n      dup2\n      0x02\n      add\n      sstore\n      pop\n      pop\n        /* \"FAANGOrchestrator.sol\":3876:3877  1 */\n      0x01\n        /* \"FAANGOrchestrator.sol\":3858:3866  poolInfo */\n      0x06\n        /* \"FAANGOrchestrator.sol\":3858:3873  poolInfo.length */\n      dup1\n      sload\n      swap1\n      pop\n        /* \"FAANGOrchestrator.sol\":3858:3877  poolInfo.length - 1 */\n      sub\n        /* \"FAANGOrchestrator.sol\":3827:3845  poolIdForLpAddress */\n      0x09\n        /* \"FAANGOrchestrator.sol\":3827:3855  poolIdForLpAddress[_lpToken] */\n      0x00\n        /* \"FAANGOrchestrator.sol\":3846:3854  _lpToken */\n      dup6\n        /* \"FAANGOrchestrator.sol\":3827:3855  poolIdForLpAddress[_lpToken] */\n      0xffffffffffffffffffffffffffffffffffffffff\n      and\n      0xffffffffffffffffffffffffffffffffffffffff\n      and\n      dup2\n      mstore\n      0x20\n      add\n      swap1\n      dup2\n      mstore\n      0x20\n      add\n      0x00\n      keccak256\n        /* \"FAANGOrchestrator.sol\":3827:3877  poolIdForLpAddress[_lpToken] = poolInfo.length - 1 */\n      dup2\n      swap1\n      sstore\n      pop\n        /* \"Ownable.sol\":1348:1349  _ */\n      pop\n        /* \"FAANGOrchestrator.sol\":3364:3884  function add(... */\n      pop\n      pop\n      jump\t// out\n        /* \"Ownable.sol\":1698:1835  function renounceOwnership() public onlyOwner {... */\n    tag_53:\n        /* \"Ownable.sol\":1289:1301  _msgSender() */\n      tag_146\n        /* \"Ownable.sol\":1289:1299  _msgSender */\n      tag_135\n        /* \"Ownable.sol\":1289:1301  _msgSender() */\n      jump\t// in\n    tag_146:\n        /* \"Ownable.sol\":1279:1301  _owner == _msgSender() */\n      0xffffffffffffffffffffffffffffffffffffffff\n      and\n        /* \"Ownable.sol\":1279:1285  _owner */\n      0x00\n      dup1\n      sload\n      swap1\n      0x0100\n      exp\n      swap1\n      div\n      0xffffffffffffffffffffffffffffffffffffffff\n      and\n        /* \"Ownable.sol\":1279:1301  _owner == _msgSender() */\n      0xffffffffffffffffffffffffffffffffffffffff\n      and\n      eq\n        /* \"Ownable.sol\":1271:1338  require(_owner == _msgSender(), 'Ownable: caller is not the owner') */\n      tag_147\n      jumpi\n      mload(0x40)\n      0x08c379a000000000000000000000000000000000000000000000000000000000\n      dup2\n      mstore\n      0x04\n      add\n      dup1\n      dup1\n      0x20\n      add\n      dup3\n      dup2\n      sub\n      dup3\n      mstore\n      0x20\n      dup2\n      mstore\n      0x20\n      add\n      dup1\n      0x4f776e61626c653a2063616c6c6572206973206e6f7420746865206f776e6572\n      dup2\n      mstore\n      pop\n      0x20\n      add\n      swap2\n      pop\n      pop\n      mload(0x40)\n      dup1\n      swap2\n      sub\n      swap1\n      revert\n    tag_147:\n        /* \"Ownable.sol\":1796:1797  0 */\n      0x00\n        /* \"Ownable.sol\":1759:1799  OwnershipTransferred(_owner, address(0)) */\n      0xffffffffffffffffffffffffffffffffffffffff\n      and\n        /* \"Ownable.sol\":1780:1786  _owner */\n      0x00\n      dup1\n      sload\n      swap1\n      0x0100\n      exp\n      swap1\n      div\n      0xffffffffffffffffffffffffffffffffffffffff\n      and\n        /* \"Ownable.sol\":1759:1799  OwnershipTransferred(_owner, address(0)) */\n      0xffffffffffffffffffffffffffffffffffffffff\n      and\n      0x8be0079c531659141344cd1fd0a4f28419497f9722a3daafe3b4186f6b6457e0\n      mload(0x40)\n      mload(0x40)\n      dup1\n      swap2\n      sub\n      swap1\n      log3\n        /* \"Ownable.sol\":1826:1827  0 */\n      0x00\n        /* \"Ownable.sol\":1809:1815  _owner */\n      dup1\n      0x00\n        /* \"Ownable.sol\":1809:1828  _owner = address(0) */\n      0x0100\n      exp\n      dup2\n      sload\n      dup2\n      0xffffffffffffffffffffffffffffffffffffffff\n      mul\n      not\n      and\n      swap1\n      dup4\n      0xffffffffffffffffffffffffffffffffffffffff\n      and\n      mul\n      or\n      swap1\n      sstore\n      pop\n        /* \"Ownable.sol\":1698:1835  function renounceOwnership() public onlyOwner {... */\n      jump\t// out\n        /* \"FAANGOrchestrator.sol\":6775:6884  function canClaimFAANGRewards() public view returns (bool) {... */\n    tag_55:\n        /* \"FAANGOrchestrator.sol\":6828:6832  bool */\n      0x00\n        /* \"FAANGOrchestrator.sol\":6867:6877  startBlock */\n      sload(0x05)\n        /* \"FAANGOrchestrator.sol\":6851:6863  block.number */\n      number\n        /* \"FAANGOrchestrator.sol\":6851:6877  block.number >= startBlock */\n      lt\n      iszero\n        /* \"FAANGOrchestrator.sol\":6844:6877  return block.number >= startBlock */\n      swap1\n      pop\n        /* \"FAANGOrchestrator.sol\":6775:6884  function canClaimFAANGRewards() public view returns (bool) {... */\n      swap1\n      jump\t// out\n        /* \"Ownable.sol\":1075:1152  function owner() public view returns (address) {... */\n    tag_57:\n        /* \"Ownable.sol\":1113:1120  address */\n      0x00\n        /* \"Ownable.sol\":1139:1145  _owner */\n      dup1\n      0x00\n      swap1\n      sload\n      swap1\n      0x0100\n      exp\n      swap1\n      div\n      0xffffffffffffffffffffffffffffffffffffffff\n      and\n        /* \"Ownable.sol\":1132:1145  return _owner */\n      swap1\n      pop\n        /* \"Ownable.sol\":1075:1152  function owner() public view returns (address) {... */\n      swap1\n      jump\t// out\n        /* \"FAANGOrchestrator.sol\":3957:4076  function getMultiplier(uint256 _from, uint256 _to) public pure returns (uint256) {... */\n    tag_60:\n        /* \"FAANGOrchestrator.sol\":4029:4036  uint256 */\n      0x00\n        /* \"FAANGOrchestrator.sol\":4055:4069  _to.sub(_from) */\n      tag_152\n        /* \"FAANGOrchestrator.sol\":4063:4068  _from */\n      dup4\n        /* \"FAANGOrchestrator.sol\":4055:4058  _to */\n      dup4\n        /* \"FAANGOrchestrator.sol\":4055:4062  _to.sub */\n      tag_96\n      swap1\n        /* \"FAANGOrchestrator.sol\":4055:4069  _to.sub(_from) */\n      swap2\n      swap1\n      0xffffffff\n      and\n      jump\t// in\n    tag_152:\n        /* \"FAANGOrchestrator.sol\":4048:4069  return _to.sub(_from) */\n      swap1\n      pop\n        /* \"FAANGOrchestrator.sol\":3957:4076  function getMultiplier(uint256 _from, uint256 _to) public pure returns (uint256) {... */\n      swap3\n      swap2\n      pop\n      pop\n      jump\t// out\n        /* \"FAANGOrchestrator.sol\":1839:1903  mapping(uint256 => mapping(address => UserInfo)) public userInfo */\n    tag_63:\n      mstore(0x20, 0x07)\n      dup2\n      0x00\n      mstore\n      mstore(0x20, keccak256(0x00, 0x40))\n      dup1\n      0x00\n      mstore\n      keccak256(0x00, 0x40)\n      0x00\n      swap2\n      pop\n      swap2\n      pop\n      pop\n      dup1\n      0x00\n      add\n      sload\n      swap1\n      dup1\n      0x01\n      add\n      sload\n      swap1\n      dup1\n      0x02\n      add\n      sload\n      swap1\n      pop\n      dup4\n      jump\t// out\n        /* \"FAANGOrchestrator.sol\":2103:2155  mapping(IBEP20 => uint256) public poolIdForLpAddress */\n    tag_66:\n      mstore(0x20, 0x09)\n      dup1\n      0x00\n      mstore\n      keccak256(0x00, 0x40)\n      0x00\n      swap2\n      pop\n      swap1\n      pop\n      sload\n      dup2\n      jump\t// out\n        /* \"FAANGOrchestrator.sol\":4309:5349  function pendingFAANG(uint256 _pid, address _user) external view returns (uint256) {... */\n    tag_69:\n        /* \"FAANGOrchestrator.sol\":4383:4390  uint256 */\n      0x00\n        /* \"FAANGOrchestrator.sol\":4402:4423  PoolInfo storage pool */\n      dup1\n        /* \"FAANGOrchestrator.sol\":4426:4434  poolInfo */\n      0x06\n        /* \"FAANGOrchestrator.sol\":4435:4439  _pid */\n      dup5\n        /* \"FAANGOrchestrator.sol\":4426:4440  poolInfo[_pid] */\n      dup2\n      sload\n      dup2\n      lt\n      tag_154\n      jumpi\n      invalid\n    tag_154:\n      swap1\n      0x00\n      mstore\n      keccak256(0x00, 0x20)\n      swap1\n      0x03\n      mul\n      add\n        /* \"FAANGOrchestrator.sol\":4402:4440  PoolInfo storage pool = poolInfo[_pid] */\n      swap1\n      pop\n        /* \"FAANGOrchestrator.sol\":4450:4471  UserInfo storage user */\n      0x00\n        /* \"FAANGOrchestrator.sol\":4474:4482  userInfo */\n      0x07\n        /* \"FAANGOrchestrator.sol\":4474:4488  userInfo[_pid] */\n      0x00\n        /* \"FAANGOrchestrator.sol\":4483:4487  _pid */\n      dup7\n        /* \"FAANGOrchestrator.sol\":4474:4488  userInfo[_pid] */\n      dup2\n      mstore\n      0x20\n      add\n      swap1\n      dup2\n      mstore\n      0x20\n      add\n      0x00\n      keccak256\n        /* \"FAANGOrchestrator.sol\":4474:4495  userInfo[_pid][_user] */\n      0x00\n        /* \"FAANGOrchestrator.sol\":4489:4494  _user */\n      dup6\n        /* \"FAANGOrchestrator.sol\":4474:4495  userInfo[_pid][_user] */\n      0xffffffffffffffffffffffffffffffffffffffff\n      and\n      0xffffffffffffffffffffffffffffffffffffffff\n      and\n      dup2\n      mstore\n      0x20\n      add\n      swap1\n      dup2\n      mstore\n      0x20\n      add\n      0x00\n      keccak256\n        /* \"FAANGOrchestrator.sol\":4450:4495  UserInfo storage user = userInfo[_pid][_user] */\n      swap1\n      pop\n        /* \"FAANGOrchestrator.sol\":4506:4530  uint256 accFAANGPerShare */\n      0x00\n        /* \"FAANGOrchestrator.sol\":4533:4537  pool */\n      dup3\n        /* \"FAANGOrchestrator.sol\":4533:4554  pool.accFAANGPerShare */\n      0x02\n      add\n      sload\n        /* \"FAANGOrchestrator.sol\":4506:4554  uint256 accFAANGPerShare = pool.accFAANGPerShare */\n      swap1\n      pop\n        /* \"FAANGOrchestrator.sol\":4564:4580  uint256 lpSupply */\n      0x00\n        /* \"FAANGOrchestrator.sol\":4583:4587  pool */\n      dup4\n        /* \"FAANGOrchestrator.sol\":4583:4595  pool.lpToken */\n      0x00\n      add\n      0x00\n      swap1\n      sload\n      swap1\n      0x0100\n      exp\n      swap1\n      div\n      0xffffffffffffffffffffffffffffffffffffffff\n      and\n        /* \"FAANGOrchestrator.sol\":4583:4605  pool.lpToken.balanceOf */\n      0xffffffffffffffffffffffffffffffffffffffff\n      and\n      0x70a08231\n        /* \"FAANGOrchestrator.sol\":4614:4618  this */\n      address\n        /* \"FAANGOrchestrator.sol\":4583:4620  pool.lpToken.balanceOf(address(this)) */\n      mload(0x40)\n      dup3\n      0xffffffff\n      and\n      0xe0\n      shl\n      dup2\n      mstore\n      0x04\n      add\n      dup1\n      dup3\n      0xffffffffffffffffffffffffffffffffffffffff\n      and\n      dup2\n      mstore\n      0x20\n      add\n      swap2\n      pop\n      pop\n      0x20\n      mload(0x40)\n      dup1\n      dup4\n      sub\n      dup2\n      dup7\n      dup1\n      extcodesize\n      iszero\n      dup1\n      iszero\n      tag_156\n      jumpi\n      0x00\n      dup1\n      revert\n    tag_156:\n      pop\n      gas\n      staticcall\n      iszero\n      dup1\n      iszero\n      tag_158\n      jumpi\n      returndatasize\n      0x00\n      dup1\n      returndatacopy\n      revert(0x00, returndatasize)\n    tag_158:\n      pop\n      pop\n      pop\n      pop\n      mload(0x40)\n      returndatasize\n      0x20\n      dup2\n      lt\n      iszero\n      tag_159\n      jumpi\n      0x00\n      dup1\n      revert\n    tag_159:\n      dup2\n      add\n      swap1\n      dup1\n      dup1\n      mload\n      swap1\n      0x20\n      add\n      swap1\n      swap3\n      swap2\n      swap1\n      pop\n      pop\n      pop\n        /* \"FAANGOrchestrator.sol\":4564:4620  uint256 lpSupply = pool.lpToken.balanceOf(address(this)) */\n      swap1\n      pop\n        /* \"FAANGOrchestrator.sol\":4631:4665  uint256 blockToCalculateMultiplier */\n      0x00\n        /* \"FAANGOrchestrator.sol\":4668:4708  minCurrentBlockAndInactiveBlockIfExist() */\n      tag_160\n        /* \"FAANGOrchestrator.sol\":4668:4706  minCurrentBlockAndInactiveBlockIfExist */\n      tag_107\n        /* \"FAANGOrchestrator.sol\":4668:4708  minCurrentBlockAndInactiveBlockIfExist() */\n      jump\t// in\n    tag_160:\n        /* \"FAANGOrchestrator.sol\":4631:4708  uint256 blockToCalculateMultiplier = minCurrentBlockAndInactiveBlockIfExist() */\n      swap1\n      pop\n        /* \"FAANGOrchestrator.sol\":4752:4756  pool */\n      dup5\n        /* \"FAANGOrchestrator.sol\":4752:4772  pool.lastRewardBlock */\n      0x01\n      add\n      sload\n        /* \"FAANGOrchestrator.sol\":4723:4749  blockToCalculateMultiplier */\n      dup2\n        /* \"FAANGOrchestrator.sol\":4723:4772  blockToCalculateMultiplier > pool.lastRewardBlock */\n      gt\n        /* \"FAANGOrchestrator.sol\":4723:4789  blockToCalculateMultiplier > pool.lastRewardBlock && lpSupply != 0 */\n      dup1\n      iszero\n      tag_161\n      jumpi\n      pop\n        /* \"FAANGOrchestrator.sol\":4788:4789  0 */\n      0x00\n        /* \"FAANGOrchestrator.sol\":4776:4784  lpSupply */\n      dup3\n        /* \"FAANGOrchestrator.sol\":4776:4789  lpSupply != 0 */\n      eq\n      iszero\n        /* \"FAANGOrchestrator.sol\":4723:4789  blockToCalculateMultiplier > pool.lastRewardBlock && lpSupply != 0 */\n    tag_161:\n        /* \"FAANGOrchestrator.sol\":4719:5161  if (blockToCalculateMultiplier > pool.lastRewardBlock && lpSupply != 0) {... */\n      iszero\n      tag_162\n      jumpi\n        /* \"FAANGOrchestrator.sol\":4805:4823  uint256 multiplier */\n      0x00\n        /* \"FAANGOrchestrator.sol\":4826:4889  getMultiplier(pool.lastRewardBlock, blockToCalculateMultiplier) */\n      tag_163\n        /* \"FAANGOrchestrator.sol\":4840:4844  pool */\n      dup7\n        /* \"FAANGOrchestrator.sol\":4840:4860  pool.lastRewardBlock */\n      0x01\n      add\n      sload\n        /* \"FAANGOrchestrator.sol\":4862:4888  blockToCalculateMultiplier */\n      dup4\n        /* \"FAANGOrchestrator.sol\":4826:4839  getMultiplier */\n      tag_60\n        /* \"FAANGOrchestrator.sol\":4826:4889  getMultiplier(pool.lastRewardBlock, blockToCalculateMultiplier) */\n      jump\t// in\n    tag_163:\n        /* \"FAANGOrchestrator.sol\":4805:4889  uint256 multiplier = getMultiplier(pool.lastRewardBlock, blockToCalculateMultiplier) */\n      swap1\n      pop\n        /* \"FAANGOrchestrator.sol\":4903:4922  uint256 FAANGReward */\n      0x00\n        /* \"FAANGOrchestrator.sol\":4925:4954  multiplier.mul(FAANGPerBlock) */\n      tag_164\n        /* \"FAANGOrchestrator.sol\":4940:4953  FAANGPerBlock */\n      sload(0x03)\n        /* \"FAANGOrchestrator.sol\":4925:4935  multiplier */\n      dup4\n        /* \"FAANGOrchestrator.sol\":4925:4939  multiplier.mul */\n      tag_101\n      swap1\n        /* \"FAANGOrchestrator.sol\":4925:4954  multiplier.mul(FAANGPerBlock) */\n      swap2\n      swap1\n      0xffffffff\n      and\n      jump\t// in\n    tag_164:\n        /* \"FAANGOrchestrator.sol\":4903:4954  uint256 FAANGReward = multiplier.mul(FAANGPerBlock) */\n      swap1\n      pop\n        /* \"FAANGOrchestrator.sol\":4988:5150  accFAANGPerShare... */\n      tag_165\n        /* \"FAANGOrchestrator.sol\":5047:5132  FAANGReward... */\n      tag_166\n        /* \"FAANGOrchestrator.sol\":5123:5131  lpSupply */\n      dup6\n        /* \"FAANGOrchestrator.sol\":5047:5093  FAANGReward... */\n      tag_167\n        /* \"FAANGOrchestrator.sol\":5088:5092  1e12 */\n      0xe8d4a51000\n        /* \"FAANGOrchestrator.sol\":5047:5058  FAANGReward */\n      dup6\n        /* \"FAANGOrchestrator.sol\":5047:5087  FAANGReward... */\n      tag_101\n      swap1\n        /* \"FAANGOrchestrator.sol\":5047:5093  FAANGReward... */\n      swap2\n      swap1\n      0xffffffff\n      and\n      jump\t// in\n    tag_167:\n        /* \"FAANGOrchestrator.sol\":5047:5122  FAANGReward... */\n      tag_102\n      swap1\n        /* \"FAANGOrchestrator.sol\":5047:5132  FAANGReward... */\n      swap2\n      swap1\n      0xffffffff\n      and\n      jump\t// in\n    tag_166:\n        /* \"FAANGOrchestrator.sol\":4988:5004  accFAANGPerShare */\n      dup7\n        /* \"FAANGOrchestrator.sol\":4988:5025  accFAANGPerShare... */\n      tag_79\n      swap1\n        /* \"FAANGOrchestrator.sol\":4988:5150  accFAANGPerShare... */\n      swap2\n      swap1\n      0xffffffff\n      and\n      jump\t// in\n    tag_165:\n        /* \"FAANGOrchestrator.sol\":4969:5150  accFAANGPerShare = accFAANGPerShare... */\n      swap5\n      pop\n        /* \"FAANGOrchestrator.sol\":4719:5161  if (blockToCalculateMultiplier > pool.lastRewardBlock && lpSupply != 0) {... */\n      pop\n      pop\n    tag_162:\n        /* \"FAANGOrchestrator.sol\":5171:5186  uint256 pending */\n      0x00\n        /* \"FAANGOrchestrator.sol\":5189:5292  user.amount... */\n      tag_168\n        /* \"FAANGOrchestrator.sol\":5276:5280  user */\n      dup6\n        /* \"FAANGOrchestrator.sol\":5276:5291  user.rewardDebt */\n      0x01\n      add\n      sload\n        /* \"FAANGOrchestrator.sol\":5189:5258  user.amount... */\n      tag_169\n        /* \"FAANGOrchestrator.sol\":5253:5257  1e12 */\n      0xe8d4a51000\n        /* \"FAANGOrchestrator.sol\":5189:5235  user.amount... */\n      tag_170\n        /* \"FAANGOrchestrator.sol\":5218:5234  accFAANGPerShare */\n      dup9\n        /* \"FAANGOrchestrator.sol\":5189:5193  user */\n      dup11\n        /* \"FAANGOrchestrator.sol\":5189:5200  user.amount */\n      0x00\n      add\n      sload\n        /* \"FAANGOrchestrator.sol\":5189:5217  user.amount... */\n      tag_101\n      swap1\n        /* \"FAANGOrchestrator.sol\":5189:5235  user.amount... */\n      swap2\n      swap1\n      0xffffffff\n      and\n      jump\t// in\n    tag_170:\n        /* \"FAANGOrchestrator.sol\":5189:5252  user.amount... */\n      tag_102\n      swap1\n        /* \"FAANGOrchestrator.sol\":5189:5258  user.amount... */\n      swap2\n      swap1\n      0xffffffff\n      and\n      jump\t// in\n    tag_169:\n        /* \"FAANGOrchestrator.sol\":5189:5275  user.amount... */\n      tag_96\n      swap1\n        /* \"FAANGOrchestrator.sol\":5189:5292  user.amount... */\n      swap2\n      swap1\n      0xffffffff\n      and\n      jump\t// in\n    tag_168:\n        /* \"FAANGOrchestrator.sol\":5171:5292  uint256 pending = user.amount... */\n      swap1\n      pop\n        /* \"FAANGOrchestrator.sol\":5310:5342  pending.add(user.rewardLockedUp) */\n      tag_171\n        /* \"FAANGOrchestrator.sol\":5322:5326  user */\n      dup6\n        /* \"FAANGOrchestrator.sol\":5322:5341  user.rewardLockedUp */\n      0x02\n      add\n      sload\n        /* \"FAANGOrchestrator.sol\":5310:5317  pending */\n      dup3\n        /* \"FAANGOrchestrator.sol\":5310:5321  pending.add */\n      tag_79\n      swap1\n        /* \"FAANGOrchestrator.sol\":5310:5342  pending.add(user.rewardLockedUp) */\n      swap2\n      swap1\n      0xffffffff\n      and\n      jump\t// in\n    tag_171:\n        /* \"FAANGOrchestrator.sol\":5303:5342  return pending.add(user.rewardLockedUp) */\n      swap7\n      pop\n      pop\n      pop\n      pop\n      pop\n      pop\n      pop\n        /* \"FAANGOrchestrator.sol\":4309:5349  function pendingFAANG(uint256 _pid, address _user) external view returns (uint256) {... */\n      swap3\n      swap2\n      pop\n      pop\n      jump\t// out\n        /* \"FAANGOrchestrator.sol\":2023:2067  mapping(IBEP20 => bool) public poolExistence */\n    tag_72:\n      mstore(0x20, 0x08)\n      dup1\n      0x00\n      mstore\n      keccak256(0x00, 0x40)\n      0x00\n      swap2\n      pop\n      sload\n      swap1\n      0x0100\n      exp\n      swap1\n      div\n      0xff\n      and\n      dup2\n      jump\t// out\n        /* \"FAANGOrchestrator.sol\":6890:7604  function deposit(uint256 _pid, uint256 _amount) public nonReentrant {... */\n    tag_75:\n        /* \"ReentrancyGuard.sol\":1680:1681  2 */\n      0x02\n        /* \"ReentrancyGuard.sol\":2269:2276  _status */\n      sload(0x01)\n        /* \"ReentrancyGuard.sol\":2269:2288  _status != _ENTERED */\n      eq\n      iszero\n        /* \"ReentrancyGuard.sol\":2261:2324  require(_status != _ENTERED, \"ReentrancyGuard: reentrant call\") */\n      tag_173\n      jumpi\n      mload(0x40)\n      0x08c379a000000000000000000000000000000000000000000000000000000000\n      dup2\n      mstore\n      0x04\n      add\n      dup1\n      dup1\n      0x20\n      add\n      dup3\n      dup2\n      sub\n      dup3\n      mstore\n      0x1f\n      dup2\n      mstore\n      0x20\n      add\n      dup1\n      0x5265656e7472616e637947756172643a207265656e7472616e742063616c6c00\n      dup2\n      mstore\n      pop\n      0x20\n      add\n      swap2\n      pop\n      pop\n      mload(0x40)\n      dup1\n      swap2\n      sub\n      swap1\n      revert\n    tag_173:\n        /* \"ReentrancyGuard.sol\":1680:1681  2 */\n      0x02\n        /* \"ReentrancyGuard.sol\":2399:2406  _status */\n      0x01\n        /* \"ReentrancyGuard.sol\":2399:2417  _status = _ENTERED */\n      dup2\n      swap1\n      sstore\n      pop\n        /* \"FAANGOrchestrator.sol\":6988:6989  0 */\n      0x00\n        /* \"FAANGOrchestrator.sol\":6972:6985  inActiveBlock */\n      sload(0x04)\n        /* \"FAANGOrchestrator.sol\":6972:6989  inActiveBlock > 0 */\n      gt\n        /* \"FAANGOrchestrator.sol\":6968:7091  if (inActiveBlock > 0) {... */\n      iszero\n      tag_175\n      jumpi\n        /* \"FAANGOrchestrator.sol\":7029:7042  inActiveBlock */\n      sload(0x04)\n        /* \"FAANGOrchestrator.sol\":7013:7025  block.number */\n      number\n        /* \"FAANGOrchestrator.sol\":7013:7042  block.number <= inActiveBlock */\n      gt\n      iszero\n        /* \"FAANGOrchestrator.sol\":7005:7080  require(block.number <= inActiveBlock, \"deposit: staking period has ended\") */\n      tag_176\n      jumpi\n      mload(0x40)\n      0x08c379a000000000000000000000000000000000000000000000000000000000\n      dup2\n      mstore\n      0x04\n      add\n      dup1\n      dup1\n      0x20\n      add\n      dup3\n      dup2\n      sub\n      dup3\n      mstore\n      0x21\n      dup2\n      mstore\n      0x20\n      add\n      dup1\n      data_defd5c903b3416581b5d98f5a021e4c2963664705201c58ffb06423da9b1f891\n      0x21\n      swap2\n      codecopy\n      0x40\n      add\n      swap2\n      pop\n      pop\n      mload(0x40)\n      dup1\n      swap2\n      sub\n      swap1\n      revert\n    tag_176:\n        /* \"FAANGOrchestrator.sol\":6968:7091  if (inActiveBlock > 0) {... */\n    tag_175:\n        /* \"FAANGOrchestrator.sol\":7101:7122  PoolInfo storage pool */\n      0x00\n        /* \"FAANGOrchestrator.sol\":7125:7133  poolInfo */\n      0x06\n        /* \"FAANGOrchestrator.sol\":7134:7138  _pid */\n      dup4\n        /* \"FAANGOrchestrator.sol\":7125:7139  poolInfo[_pid] */\n      dup2\n      sload\n      dup2\n      lt\n      tag_177\n      jumpi\n      invalid\n    tag_177:\n      swap1\n      0x00\n      mstore\n      keccak256(0x00, 0x20)\n      swap1\n      0x03\n      mul\n      add\n        /* \"FAANGOrchestrator.sol\":7101:7139  PoolInfo storage pool = poolInfo[_pid] */\n      swap1\n      pop\n        /* \"FAANGOrchestrator.sol\":7149:7170  UserInfo storage user */\n      0x00\n        /* \"FAANGOrchestrator.sol\":7173:7181  userInfo */\n      0x07\n        /* \"FAANGOrchestrator.sol\":7173:7187  userInfo[_pid] */\n      0x00\n        /* \"FAANGOrchestrator.sol\":7182:7186  _pid */\n      dup6\n        /* \"FAANGOrchestrator.sol\":7173:7187  userInfo[_pid] */\n      dup2\n      mstore\n      0x20\n      add\n      swap1\n      dup2\n      mstore\n      0x20\n      add\n      0x00\n      keccak256\n        /* \"FAANGOrchestrator.sol\":7173:7199  userInfo[_pid][msg.sender] */\n      0x00\n        /* \"FAANGOrchestrator.sol\":7188:7198  msg.sender */\n      caller\n        /* \"FAANGOrchestrator.sol\":7173:7199  userInfo[_pid][msg.sender] */\n      0xffffffffffffffffffffffffffffffffffffffff\n      and\n      0xffffffffffffffffffffffffffffffffffffffff\n      and\n      dup2\n      mstore\n      0x20\n      add\n      swap1\n      dup2\n      mstore\n      0x20\n      add\n      0x00\n      keccak256\n        /* \"FAANGOrchestrator.sol\":7149:7199  UserInfo storage user = userInfo[_pid][msg.sender] */\n      swap1\n      pop\n        /* \"FAANGOrchestrator.sol\":7210:7226  updatePool(_pid) */\n      tag_179\n        /* \"FAANGOrchestrator.sol\":7221:7225  _pid */\n      dup5\n        /* \"FAANGOrchestrator.sol\":7210:7220  updatePool */\n      tag_41\n        /* \"FAANGOrchestrator.sol\":7210:7226  updatePool(_pid) */\n      jump\t// in\n    tag_179:\n        /* \"FAANGOrchestrator.sol\":7237:7266  payOrLockupPendingFAANG(_pid) */\n      tag_180\n        /* \"FAANGOrchestrator.sol\":7261:7265  _pid */\n      dup5\n        /* \"FAANGOrchestrator.sol\":7237:7260  payOrLockupPendingFAANG */\n      tag_93\n        /* \"FAANGOrchestrator.sol\":7237:7266  payOrLockupPendingFAANG(_pid) */\n      jump\t// in\n    tag_180:\n        /* \"FAANGOrchestrator.sol\":7291:7292  0 */\n      0x00\n        /* \"FAANGOrchestrator.sol\":7281:7288  _amount */\n      dup4\n        /* \"FAANGOrchestrator.sol\":7281:7292  _amount > 0 */\n      gt\n        /* \"FAANGOrchestrator.sol\":7277:7445  if (_amount > 0) {... */\n      iszero\n      tag_181\n      jumpi\n        /* \"FAANGOrchestrator.sol\":7308:7382  pool.lpToken.safeTransferFrom(address(msg.sender), address(this), _amount) */\n      tag_182\n        /* \"FAANGOrchestrator.sol\":7346:7356  msg.sender */\n      caller\n        /* \"FAANGOrchestrator.sol\":7367:7371  this */\n      address\n        /* \"FAANGOrchestrator.sol\":7374:7381  _amount */\n      dup6\n        /* \"FAANGOrchestrator.sol\":7308:7312  pool */\n      dup6\n        /* \"FAANGOrchestrator.sol\":7308:7320  pool.lpToken */\n      0x00\n      add\n      0x00\n      swap1\n      sload\n      swap1\n      0x0100\n      exp\n      swap1\n      div\n      0xffffffffffffffffffffffffffffffffffffffff\n      and\n        /* \"FAANGOrchestrator.sol\":7308:7337  pool.lpToken.safeTransferFrom */\n      0xffffffffffffffffffffffffffffffffffffffff\n      and\n      tag_183\n      swap1\n        /* \"FAANGOrchestrator.sol\":7308:7382  pool.lpToken.safeTransferFrom(address(msg.sender), address(this), _amount) */\n      swap4\n      swap3\n      swap2\n      swap1\n      0xffffffff\n      and\n      jump\t// in\n    tag_182:\n        /* \"FAANGOrchestrator.sol\":7410:7434  user.amount.add(_amount) */\n      tag_184\n        /* \"FAANGOrchestrator.sol\":7426:7433  _amount */\n      dup4\n        /* \"FAANGOrchestrator.sol\":7410:7414  user */\n      dup3\n        /* \"FAANGOrchestrator.sol\":7410:7421  user.amount */\n      0x00\n      add\n      sload\n        /* \"FAANGOrchestrator.sol\":7410:7425  user.amount.add */\n      tag_79\n      swap1\n        /* \"FAANGOrchestrator.sol\":7410:7434  user.amount.add(_amount) */\n      swap2\n      swap1\n      0xffffffff\n      and\n      jump\t// in\n    tag_184:\n        /* \"FAANGOrchestrator.sol\":7396:7400  user */\n      dup2\n        /* \"FAANGOrchestrator.sol\":7396:7407  user.amount */\n      0x00\n      add\n        /* \"FAANGOrchestrator.sol\":7396:7434  user.amount = user.amount.add(_amount) */\n      dup2\n      swap1\n      sstore\n      pop\n        /* \"FAANGOrchestrator.sol\":7277:7445  if (_amount > 0) {... */\n    tag_181:\n        /* \"FAANGOrchestrator.sol\":7473:7547  user.amount... */\n      tag_185\n        /* \"FAANGOrchestrator.sol\":7542:7546  1e12 */\n      0xe8d4a51000\n        /* \"FAANGOrchestrator.sol\":7473:7524  user.amount... */\n      tag_186\n        /* \"FAANGOrchestrator.sol\":7502:7506  pool */\n      dup5\n        /* \"FAANGOrchestrator.sol\":7502:7523  pool.accFAANGPerShare */\n      0x02\n      add\n      sload\n        /* \"FAANGOrchestrator.sol\":7473:7477  user */\n      dup5\n        /* \"FAANGOrchestrator.sol\":7473:7484  user.amount */\n      0x00\n      add\n      sload\n        /* \"FAANGOrchestrator.sol\":7473:7501  user.amount... */\n      tag_101\n      swap1\n        /* \"FAANGOrchestrator.sol\":7473:7524  user.amount... */\n      swap2\n      swap1\n      0xffffffff\n      and\n      jump\t// in\n    tag_186:\n        /* \"FAANGOrchestrator.sol\":7473:7541  user.amount... */\n      tag_102\n      swap1\n        /* \"FAANGOrchestrator.sol\":7473:7547  user.amount... */\n      swap2\n      swap1\n      0xffffffff\n      and\n      jump\t// in\n    tag_185:\n        /* \"FAANGOrchestrator.sol\":7455:7459  user */\n      dup2\n        /* \"FAANGOrchestrator.sol\":7455:7470  user.rewardDebt */\n      0x01\n      add\n        /* \"FAANGOrchestrator.sol\":7455:7547  user.rewardDebt = user.amount... */\n      dup2\n      swap1\n      sstore\n      pop\n        /* \"FAANGOrchestrator.sol\":7583:7587  _pid */\n      dup4\n        /* \"FAANGOrchestrator.sol\":7571:7581  msg.sender */\n      caller\n        /* \"FAANGOrchestrator.sol\":7563:7597  Deposit(msg.sender, _pid, _amount) */\n      0xffffffffffffffffffffffffffffffffffffffff\n      and\n      0x90890809c654f11d6e72a28fa60149770a0d11ec6c92319d6ceb2bb0a4ea1a15\n        /* \"FAANGOrchestrator.sol\":7589:7596  _amount */\n      dup6\n        /* \"FAANGOrchestrator.sol\":7563:7597  Deposit(msg.sender, _pid, _amount) */\n      mload(0x40)\n      dup1\n      dup3\n      dup2\n      mstore\n      0x20\n      add\n      swap2\n      pop\n      pop\n      mload(0x40)\n      dup1\n      swap2\n      sub\n      swap1\n      log3\n        /* \"ReentrancyGuard.sol\":2428:2429  _ */\n      pop\n      pop\n        /* \"ReentrancyGuard.sol\":1637:1638  1 */\n      0x01\n        /* \"ReentrancyGuard.sol\":2572:2579  _status */\n      dup1\n        /* \"ReentrancyGuard.sol\":2572:2594  _status = _NOT_ENTERED */\n      dup2\n      swap1\n      sstore\n      pop\n        /* \"FAANGOrchestrator.sol\":6890:7604  function deposit(uint256 _pid, uint256 _amount) public nonReentrant {... */\n      pop\n      pop\n      jump\t// out\n        /* \"Ownable.sol\":1984:2091  function transferOwnership(address newOwner) public onlyOwner {... */\n    tag_78:\n        /* \"Ownable.sol\":1289:1301  _msgSender() */\n      tag_188\n        /* \"Ownable.sol\":1289:1299  _msgSender */\n      tag_135\n        /* \"Ownable.sol\":1289:1301  _msgSender() */\n      jump\t// in\n    tag_188:\n        /* \"Ownable.sol\":1279:1301  _owner == _msgSender() */\n      0xffffffffffffffffffffffffffffffffffffffff\n      and\n        /* \"Ownable.sol\":1279:1285  _owner */\n      0x00\n      dup1\n      sload\n      swap1\n      0x0100\n      exp\n      swap1\n      div\n      0xffffffffffffffffffffffffffffffffffffffff\n      and\n        /* \"Ownable.sol\":1279:1301  _owner == _msgSender() */\n      0xffffffffffffffffffffffffffffffffffffffff\n      and\n      eq\n        /* \"Ownable.sol\":1271:1338  require(_owner == _msgSender(), 'Ownable: caller is not the owner') */\n      tag_189\n      jumpi\n      mload(0x40)\n      0x08c379a000000000000000000000000000000000000000000000000000000000\n      dup2\n      mstore\n      0x04\n      add\n      dup1\n      dup1\n      0x20\n      add\n      dup3\n      dup2\n      sub\n      dup3\n      mstore\n      0x20\n      dup2\n      mstore\n      0x20\n      add\n      dup1\n      0x4f776e61626c653a2063616c6c6572206973206e6f7420746865206f776e6572\n      dup2\n      mstore\n      pop\n      0x20\n      add\n      swap2\n      pop\n      pop\n      mload(0x40)\n      dup1\n      swap2\n      sub\n      swap1\n      revert\n    tag_189:\n        /* \"Ownable.sol\":2056:2084  _transferOwnership(newOwner) */\n      tag_191\n        /* \"Ownable.sol\":2075:2083  newOwner */\n      dup2\n        /* \"Ownable.sol\":2056:2074  _transferOwnership */\n      tag_192\n        /* \"Ownable.sol\":2056:2084  _transferOwnership(newOwner) */\n      jump\t// in\n    tag_191:\n        /* \"Ownable.sol\":1984:2091  function transferOwnership(address newOwner) public onlyOwner {... */\n      pop\n      jump\t// out\n        /* \"SafeMath.sol\":875:1051  function add(uint256 a, uint256 b) internal pure returns (uint256) {... */\n    tag_79:\n        /* \"SafeMath.sol\":933:940  uint256 */\n      0x00\n        /* \"SafeMath.sol\":952:961  uint256 c */\n      dup1\n        /* \"SafeMath.sol\":968:969  b */\n      dup3\n        /* \"SafeMath.sol\":964:965  a */\n      dup5\n        /* \"SafeMath.sol\":964:969  a + b */\n      add\n        /* \"SafeMath.sol\":952:969  uint256 c = a + b */\n      swap1\n      pop\n        /* \"SafeMath.sol\":992:993  a */\n      dup4\n        /* \"SafeMath.sol\":987:988  c */\n      dup2\n        /* \"SafeMath.sol\":987:993  c >= a */\n      lt\n      iszero\n        /* \"SafeMath.sol\":979:1025  require(c >= a, 'SafeMath: addition overflow') */\n      tag_194\n      jumpi\n      mload(0x40)\n      0x08c379a000000000000000000000000000000000000000000000000000000000\n      dup2\n      mstore\n      0x04\n      add\n      dup1\n      dup1\n      0x20\n      add\n      dup3\n      dup2\n      sub\n      dup3\n      mstore\n      0x1b\n      dup2\n      mstore\n      0x20\n      add\n      dup1\n      0x536166654d6174683a206164646974696f6e206f766572666c6f770000000000\n      dup2\n      mstore\n      pop\n      0x20\n      add\n      swap2\n      pop\n      pop\n      mload(0x40)\n      dup1\n      swap2\n      sub\n      swap1\n      revert\n    tag_194:\n        /* \"SafeMath.sol\":1043:1044  c */\n      dup1\n        /* \"SafeMath.sol\":1036:1044  return c */\n      swap2\n      pop\n      pop\n        /* \"SafeMath.sol\":875:1051  function add(uint256 a, uint256 b) internal pure returns (uint256) {... */\n      swap3\n      swap2\n      pop\n      pop\n      jump\t// out\n        /* \"FAANGOrchestrator.sol\":8323:9031  function payOrLockupPendingFAANG(uint256 _pid) internal {... */\n    tag_93:\n        /* \"FAANGOrchestrator.sol\":8389:8410  PoolInfo storage pool */\n      0x00\n        /* \"FAANGOrchestrator.sol\":8413:8421  poolInfo */\n      0x06\n        /* \"FAANGOrchestrator.sol\":8422:8426  _pid */\n      dup3\n        /* \"FAANGOrchestrator.sol\":8413:8427  poolInfo[_pid] */\n      dup2\n      sload\n      dup2\n      lt\n      tag_196\n      jumpi\n      invalid\n    tag_196:\n      swap1\n      0x00\n      mstore\n      keccak256(0x00, 0x20)\n      swap1\n      0x03\n      mul\n      add\n        /* \"FAANGOrchestrator.sol\":8389:8427  PoolInfo storage pool = poolInfo[_pid] */\n      swap1\n      pop\n        /* \"FAANGOrchestrator.sol\":8437:8458  UserInfo storage user */\n      0x00\n        /* \"FAANGOrchestrator.sol\":8461:8469  userInfo */\n      0x07\n        /* \"FAANGOrchestrator.sol\":8461:8475  userInfo[_pid] */\n      0x00\n        /* \"FAANGOrchestrator.sol\":8470:8474  _pid */\n      dup5\n        /* \"FAANGOrchestrator.sol\":8461:8475  userInfo[_pid] */\n      dup2\n      mstore\n      0x20\n      add\n      swap1\n      dup2\n      mstore\n      0x20\n      add\n      0x00\n      keccak256\n        /* \"FAANGOrchestrator.sol\":8461:8487  userInfo[_pid][msg.sender] */\n      0x00\n        /* \"FAANGOrchestrator.sol\":8476:8486  msg.sender */\n      caller\n        /* \"FAANGOrchestrator.sol\":8461:8487  userInfo[_pid][msg.sender] */\n      0xffffffffffffffffffffffffffffffffffffffff\n      and\n      0xffffffffffffffffffffffffffffffffffffffff\n      and\n      dup2\n      mstore\n      0x20\n      add\n      swap1\n      dup2\n      mstore\n      0x20\n      add\n      0x00\n      keccak256\n        /* \"FAANGOrchestrator.sol\":8437:8487  UserInfo storage user = userInfo[_pid][msg.sender] */\n      swap1\n      pop\n        /* \"FAANGOrchestrator.sol\":8498:8513  uint256 pending */\n      0x00\n        /* \"FAANGOrchestrator.sol\":8516:8624  user.amount... */\n      tag_198\n        /* \"FAANGOrchestrator.sol\":8608:8612  user */\n      dup3\n        /* \"FAANGOrchestrator.sol\":8608:8623  user.rewardDebt */\n      0x01\n      add\n      sload\n        /* \"FAANGOrchestrator.sol\":8516:8590  user.amount... */\n      tag_199\n        /* \"FAANGOrchestrator.sol\":8585:8589  1e12 */\n      0xe8d4a51000\n        /* \"FAANGOrchestrator.sol\":8516:8567  user.amount... */\n      tag_200\n        /* \"FAANGOrchestrator.sol\":8545:8549  pool */\n      dup8\n        /* \"FAANGOrchestrator.sol\":8545:8566  pool.accFAANGPerShare */\n      0x02\n      add\n      sload\n        /* \"FAANGOrchestrator.sol\":8516:8520  user */\n      dup8\n        /* \"FAANGOrchestrator.sol\":8516:8527  user.amount */\n      0x00\n      add\n      sload\n        /* \"FAANGOrchestrator.sol\":8516:8544  user.amount... */\n      tag_101\n      swap1\n        /* \"FAANGOrchestrator.sol\":8516:8567  user.amount... */\n      swap2\n      swap1\n      0xffffffff\n      and\n      jump\t// in\n    tag_200:\n        /* \"FAANGOrchestrator.sol\":8516:8584  user.amount... */\n      tag_102\n      swap1\n        /* \"FAANGOrchestrator.sol\":8516:8590  user.amount... */\n      swap2\n      swap1\n      0xffffffff\n      and\n      jump\t// in\n    tag_199:\n        /* \"FAANGOrchestrator.sol\":8516:8607  user.amount... */\n      tag_96\n      swap1\n        /* \"FAANGOrchestrator.sol\":8516:8624  user.amount... */\n      swap2\n      swap1\n      0xffffffff\n      and\n      jump\t// in\n    tag_198:\n        /* \"FAANGOrchestrator.sol\":8498:8624  uint256 pending = user.amount... */\n      swap1\n      pop\n        /* \"FAANGOrchestrator.sol\":8639:8661  canClaimFAANGRewards() */\n      tag_201\n        /* \"FAANGOrchestrator.sol\":8639:8659  canClaimFAANGRewards */\n      tag_55\n        /* \"FAANGOrchestrator.sol\":8639:8661  canClaimFAANGRewards() */\n      jump\t// in\n    tag_201:\n        /* \"FAANGOrchestrator.sol\":8635:9025  if (canClaimFAANGRewards()) {... */\n      iszero\n      tag_202\n      jumpi\n        /* \"FAANGOrchestrator.sol\":8691:8692  0 */\n      0x00\n        /* \"FAANGOrchestrator.sol\":8681:8688  pending */\n      dup2\n        /* \"FAANGOrchestrator.sol\":8681:8692  pending > 0 */\n      gt\n        /* \"FAANGOrchestrator.sol\":8681:8719  pending > 0 || user.rewardLockedUp > 0 */\n      dup1\n      tag_203\n      jumpi\n      pop\n        /* \"FAANGOrchestrator.sol\":8718:8719  0 */\n      0x00\n        /* \"FAANGOrchestrator.sol\":8696:8700  user */\n      dup3\n        /* \"FAANGOrchestrator.sol\":8696:8715  user.rewardLockedUp */\n      0x02\n      add\n      sload\n        /* \"FAANGOrchestrator.sol\":8696:8719  user.rewardLockedUp > 0 */\n      gt\n        /* \"FAANGOrchestrator.sol\":8681:8719  pending > 0 || user.rewardLockedUp > 0 */\n    tag_203:\n        /* \"FAANGOrchestrator.sol\":8677:8913  if (pending > 0 || user.rewardLockedUp > 0) {... */\n      iszero\n      tag_204\n      jumpi\n        /* \"FAANGOrchestrator.sol\":8739:8759  uint256 totalRewards */\n      0x00\n        /* \"FAANGOrchestrator.sol\":8762:8794  pending.add(user.rewardLockedUp) */\n      tag_205\n        /* \"FAANGOrchestrator.sol\":8774:8778  user */\n      dup4\n        /* \"FAANGOrchestrator.sol\":8774:8793  user.rewardLockedUp */\n      0x02\n      add\n      sload\n        /* \"FAANGOrchestrator.sol\":8762:8769  pending */\n      dup4\n        /* \"FAANGOrchestrator.sol\":8762:8773  pending.add */\n      tag_79\n      swap1\n        /* \"FAANGOrchestrator.sol\":8762:8794  pending.add(user.rewardLockedUp) */\n      swap2\n      swap1\n      0xffffffff\n      and\n      jump\t// in\n    tag_205:\n        /* \"FAANGOrchestrator.sol\":8739:8794  uint256 totalRewards = pending.add(user.rewardLockedUp) */\n      swap1\n      pop\n        /* \"FAANGOrchestrator.sol\":8835:8836  0 */\n      0x00\n        /* \"FAANGOrchestrator.sol\":8813:8817  user */\n      dup4\n        /* \"FAANGOrchestrator.sol\":8813:8832  user.rewardLockedUp */\n      0x02\n      add\n        /* \"FAANGOrchestrator.sol\":8813:8836  user.rewardLockedUp = 0 */\n      dup2\n      swap1\n      sstore\n      pop\n        /* \"FAANGOrchestrator.sol\":8855:8898  safeFAANGTransfer(msg.sender, totalRewards) */\n      tag_206\n        /* \"FAANGOrchestrator.sol\":8873:8883  msg.sender */\n      caller\n        /* \"FAANGOrchestrator.sol\":8885:8897  totalRewards */\n      dup3\n        /* \"FAANGOrchestrator.sol\":8855:8872  safeFAANGTransfer */\n      tag_207\n        /* \"FAANGOrchestrator.sol\":8855:8898  safeFAANGTransfer(msg.sender, totalRewards) */\n      jump\t// in\n    tag_206:\n        /* \"FAANGOrchestrator.sol\":8677:8913  if (pending > 0 || user.rewardLockedUp > 0) {... */\n      pop\n    tag_204:\n        /* \"FAANGOrchestrator.sol\":8635:9025  if (canClaimFAANGRewards()) {... */\n      jump(tag_208)\n    tag_202:\n        /* \"FAANGOrchestrator.sol\":8943:8944  0 */\n      0x00\n        /* \"FAANGOrchestrator.sol\":8933:8940  pending */\n      dup2\n        /* \"FAANGOrchestrator.sol\":8933:8944  pending > 0 */\n      gt\n        /* \"FAANGOrchestrator.sol\":8929:9025  if (pending > 0) {... */\n      iszero\n      tag_209\n      jumpi\n        /* \"FAANGOrchestrator.sol\":8982:9014  user.rewardLockedUp.add(pending) */\n      tag_210\n        /* \"FAANGOrchestrator.sol\":9006:9013  pending */\n      dup2\n        /* \"FAANGOrchestrator.sol\":8982:8986  user */\n      dup4\n        /* \"FAANGOrchestrator.sol\":8982:9001  user.rewardLockedUp */\n      0x02\n      add\n      sload\n        /* \"FAANGOrchestrator.sol\":8982:9005  user.rewardLockedUp.add */\n      tag_79\n      swap1\n        /* \"FAANGOrchestrator.sol\":8982:9014  user.rewardLockedUp.add(pending) */\n      swap2\n      swap1\n      0xffffffff\n      and\n      jump\t// in\n    tag_210:\n        /* \"FAANGOrchestrator.sol\":8960:8964  user */\n      dup3\n        /* \"FAANGOrchestrator.sol\":8960:8979  user.rewardLockedUp */\n      0x02\n      add\n        /* \"FAANGOrchestrator.sol\":8960:9014  user.rewardLockedUp = user.rewardLockedUp.add(pending) */\n      dup2\n      swap1\n      sstore\n      pop\n        /* \"FAANGOrchestrator.sol\":8929:9025  if (pending > 0) {... */\n    tag_209:\n        /* \"FAANGOrchestrator.sol\":8635:9025  if (canClaimFAANGRewards()) {... */\n    tag_208:\n        /* \"FAANGOrchestrator.sol\":8323:9031  function payOrLockupPendingFAANG(uint256 _pid) internal {... */\n      pop\n      pop\n      pop\n      pop\n      jump\t// out\n        /* \"SafeMath.sol\":1322:1456  function sub(uint256 a, uint256 b) internal pure returns (uint256) {... */\n    tag_96:\n        /* \"SafeMath.sol\":1380:1387  uint256 */\n      0x00\n        /* \"SafeMath.sol\":1406:1449  sub(a, b, 'SafeMath: subtraction overflow') */\n      tag_212\n        /* \"SafeMath.sol\":1410:1411  a */\n      dup4\n        /* \"SafeMath.sol\":1413:1414  b */\n      dup4\n        /* \"SafeMath.sol\":1406:1449  sub(a, b, 'SafeMath: subtraction overflow') */\n      mload(0x40)\n      dup1\n      0x40\n      add\n      0x40\n      mstore\n      dup1\n      0x1e\n      dup2\n      mstore\n      0x20\n      add\n      0x536166654d6174683a207375627472616374696f6e206f766572666c6f770000\n      dup2\n      mstore\n      pop\n        /* \"SafeMath.sol\":1406:1409  sub */\n      tag_213\n        /* \"SafeMath.sol\":1406:1449  sub(a, b, 'SafeMath: subtraction overflow') */\n      jump\t// in\n    tag_212:\n        /* \"SafeMath.sol\":1399:1449  return sub(a, b, 'SafeMath: subtraction overflow') */\n      swap1\n      pop\n        /* \"SafeMath.sol\":1322:1456  function sub(uint256 a, uint256 b) internal pure returns (uint256) {... */\n      swap3\n      swap2\n      pop\n      pop\n      jump\t// out\n        /* \"SafeBEP20.sol\":677:882  function safeTransfer(... */\n    tag_98:\n        /* \"SafeBEP20.sol\":789:875  _callOptionalReturn(token, abi.encodeWithSelector(token.transfer.selector, to, value)) */\n      tag_215\n        /* \"SafeBEP20.sol\":809:814  token */\n      dup4\n        /* \"SafeBEP20.sol\":839:862  token.transfer.selector */\n      shl(0xe0, 0xa9059cbb)\n        /* \"SafeBEP20.sol\":864:866  to */\n      dup5\n        /* \"SafeBEP20.sol\":868:873  value */\n      dup5\n        /* \"SafeBEP20.sol\":816:874  abi.encodeWithSelector(token.transfer.selector, to, value) */\n      add(0x24, mload(0x40))\n      dup1\n      dup4\n      0xffffffffffffffffffffffffffffffffffffffff\n      and\n      dup2\n      mstore\n      0x20\n      add\n      dup3\n      dup2\n      mstore\n      0x20\n      add\n      swap3\n      pop\n      pop\n      pop\n      mload(0x40)\n      0x20\n      dup2\n      dup4\n      sub\n      sub\n      dup2\n      mstore\n      swap1\n      0x40\n      mstore\n      swap1\n      not(0xffffffffffffffffffffffffffffffffffffffffffffffffffffffff)\n      and\n      0x20\n      dup3\n      add\n      dup1\n      mload\n      0xffffffffffffffffffffffffffffffffffffffffffffffffffffffff\n      dup4\n      dup2\n      dup4\n      and\n      or\n      dup4\n      mstore\n      pop\n      pop\n      pop\n      pop\n        /* \"SafeBEP20.sol\":789:808  _callOptionalReturn */\n      tag_216\n        /* \"SafeBEP20.sol\":789:875  _callOptionalReturn(token, abi.encodeWithSelector(token.transfer.selector, to, value)) */\n      jump\t// in\n    tag_215:\n        /* \"SafeBEP20.sol\":677:882  function safeTransfer(... */\n      pop\n      pop\n      pop\n      jump\t// out\n        /* \"SafeMath.sol\":2211:2670  function mul(uint256 a, uint256 b) internal pure returns (uint256) {... */\n    tag_101:\n        /* \"SafeMath.sol\":2269:2276  uint256 */\n      0x00\n        /* \"SafeMath.sol\":2515:2516  0 */\n      dup1\n        /* \"SafeMath.sol\":2510:2511  a */\n      dup4\n        /* \"SafeMath.sol\":2510:2516  a == 0 */\n      eq\n        /* \"SafeMath.sol\":2506:2551  if (a == 0) {... */\n      iszero\n      tag_218\n      jumpi\n        /* \"SafeMath.sol\":2539:2540  0 */\n      0x00\n        /* \"SafeMath.sol\":2532:2540  return 0 */\n      swap1\n      pop\n      jump(tag_217)\n        /* \"SafeMath.sol\":2506:2551  if (a == 0) {... */\n    tag_218:\n        /* \"SafeMath.sol\":2561:2570  uint256 c */\n      0x00\n        /* \"SafeMath.sol\":2577:2578  b */\n      dup3\n        /* \"SafeMath.sol\":2573:2574  a */\n      dup5\n        /* \"SafeMath.sol\":2573:2578  a * b */\n      mul\n        /* \"SafeMath.sol\":2561:2578  uint256 c = a * b */\n      swap1\n      pop\n        /* \"SafeMath.sol\":2605:2606  b */\n      dup3\n        /* \"SafeMath.sol\":2600:2601  a */\n      dup5\n        /* \"SafeMath.sol\":2596:2597  c */\n      dup3\n        /* \"SafeMath.sol\":2596:2601  c / a */\n      dup2\n      tag_219\n      jumpi\n      invalid\n    tag_219:\n      div\n        /* \"SafeMath.sol\":2596:2606  c / a == b */\n      eq\n        /* \"SafeMath.sol\":2588:2644  require(c / a == b, 'SafeMath: multiplication overflow') */\n      tag_220\n      jumpi\n      mload(0x40)\n      0x08c379a000000000000000000000000000000000000000000000000000000000\n      dup2\n      mstore\n      0x04\n      add\n      dup1\n      dup1\n      0x20\n      add\n      dup3\n      dup2\n      sub\n      dup3\n      mstore\n      0x21\n      dup2\n      mstore\n      0x20\n      add\n      dup1\n      data_9113bb53c2876a3805b2c9242029423fc540a728243ce887ab24c82cf119fba3\n      0x21\n      swap2\n      codecopy\n      0x40\n      add\n      swap2\n      pop\n      pop\n      mload(0x40)\n      dup1\n      swap2\n      sub\n      swap1\n      revert\n    tag_220:\n        /* \"SafeMath.sol\":2662:2663  c */\n      dup1\n        /* \"SafeMath.sol\":2655:2663  return c */\n      swap2\n      pop\n      pop\n        /* \"SafeMath.sol\":2211:2670  function mul(uint256 a, uint256 b) internal pure returns (uint256) {... */\n    tag_217:\n      swap3\n      swap2\n      pop\n      pop\n      jump\t// out\n        /* \"SafeMath.sol\":3132:3262  function div(uint256 a, uint256 b) internal pure returns (uint256) {... */\n    tag_102:\n        /* \"SafeMath.sol\":3190:3197  uint256 */\n      0x00\n        /* \"SafeMath.sol\":3216:3255  div(a, b, 'SafeMath: division by zero') */\n      tag_222\n        /* \"SafeMath.sol\":3220:3221  a */\n      dup4\n        /* \"SafeMath.sol\":3223:3224  b */\n      dup4\n        /* \"SafeMath.sol\":3216:3255  div(a, b, 'SafeMath: division by zero') */\n      mload(0x40)\n      dup1\n      0x40\n      add\n      0x40\n      mstore\n      dup1\n      0x1a\n      dup2\n      mstore\n      0x20\n      add\n      0x536166654d6174683a206469766973696f6e206279207a65726f000000000000\n      dup2\n      mstore\n      pop\n        /* \"SafeMath.sol\":3216:3219  div */\n      tag_223\n        /* \"SafeMath.sol\":3216:3255  div(a, b, 'SafeMath: division by zero') */\n      jump\t// in\n    tag_222:\n        /* \"SafeMath.sol\":3209:3255  return div(a, b, 'SafeMath: division by zero') */\n      swap1\n      pop\n        /* \"SafeMath.sol\":3132:3262  function div(uint256 a, uint256 b) internal pure returns (uint256) {... */\n      swap3\n      swap2\n      pop\n      pop\n      jump\t// out\n        /* \"FAANGOrchestrator.sol\":4082:4247  function minCurrentBlockAndInactiveBlockIfExist() internal view returns (uint256) {... */\n    tag_107:\n        /* \"FAANGOrchestrator.sol\":4155:4162  uint256 */\n      0x00\n        /* \"FAANGOrchestrator.sol\":4196:4209  inActiveBlock */\n      sload(0x04)\n        /* \"FAANGOrchestrator.sol\":4181:4193  block.number */\n      number\n        /* \"FAANGOrchestrator.sol\":4181:4209  block.number > inActiveBlock */\n      gt\n        /* \"FAANGOrchestrator.sol\":4181:4240  block.number > inActiveBlock ? inActiveBlock : block.number */\n      tag_225\n      jumpi\n        /* \"FAANGOrchestrator.sol\":4228:4240  block.number */\n      number\n        /* \"FAANGOrchestrator.sol\":4181:4240  block.number > inActiveBlock ? inActiveBlock : block.number */\n      jump(tag_226)\n    tag_225:\n        /* \"FAANGOrchestrator.sol\":4212:4225  inActiveBlock */\n      sload(0x04)\n        /* \"FAANGOrchestrator.sol\":4181:4240  block.number > inActiveBlock ? inActiveBlock : block.number */\n    tag_226:\n        /* \"FAANGOrchestrator.sol\":4174:4240  return block.number > inActiveBlock ? inActiveBlock : block.number */\n      swap1\n      pop\n        /* \"FAANGOrchestrator.sol\":4082:4247  function minCurrentBlockAndInactiveBlockIfExist() internal view returns (uint256) {... */\n      swap1\n      jump\t// out\n        /* \"Context.sol\":780:876  function _msgSender() internal view returns (address payable) {... */\n    tag_135:\n        /* \"Context.sol\":825:840  address payable */\n      0x00\n        /* \"Context.sol\":859:869  msg.sender */\n      caller\n        /* \"Context.sol\":852:869  return msg.sender */\n      swap1\n      pop\n        /* \"Context.sol\":780:876  function _msgSender() internal view returns (address payable) {... */\n      swap1\n      jump\t// out\n        /* \"SafeBEP20.sol\":888:1129  function safeTransferFrom(... */\n    tag_183:\n        /* \"SafeBEP20.sol\":1026:1122  _callOptionalReturn(token, abi.encodeWithSelector(token.transferFrom.selector, from, to, value)) */\n      tag_229\n        /* \"SafeBEP20.sol\":1046:1051  token */\n      dup5\n        /* \"SafeBEP20.sol\":1076:1103  token.transferFrom.selector */\n      shl(0xe0, 0x23b872dd)\n        /* \"SafeBEP20.sol\":1105:1109  from */\n      dup6\n        /* \"SafeBEP20.sol\":1111:1113  to */\n      dup6\n        /* \"SafeBEP20.sol\":1115:1120  value */\n      dup6\n        /* \"SafeBEP20.sol\":1053:1121  abi.encodeWithSelector(token.transferFrom.selector, from, to, value) */\n      add(0x24, mload(0x40))\n      dup1\n      dup5\n      0xffffffffffffffffffffffffffffffffffffffff\n      and\n      dup2\n      mstore\n      0x20\n      add\n      dup4\n      0xffffffffffffffffffffffffffffffffffffffff\n      and\n      dup2\n      mstore\n      0x20\n      add\n      dup3\n      dup2\n      mstore\n      0x20\n      add\n      swap4\n      pop\n      pop\n      pop\n      pop\n      mload(0x40)\n      0x20\n      dup2\n      dup4\n      sub\n      sub\n      dup2\n      mstore\n      swap1\n      0x40\n      mstore\n      swap1\n      not(0xffffffffffffffffffffffffffffffffffffffffffffffffffffffff)\n      and\n      0x20\n      dup3\n      add\n      dup1\n      mload\n      0xffffffffffffffffffffffffffffffffffffffffffffffffffffffff\n      dup4\n      dup2\n      dup4\n      and\n      or\n      dup4\n      mstore\n      pop\n      pop\n      pop\n      pop\n        /* \"SafeBEP20.sol\":1026:1045  _callOptionalReturn */\n      tag_216\n        /* \"SafeBEP20.sol\":1026:1122  _callOptionalReturn(token, abi.encodeWithSelector(token.transferFrom.selector, from, to, value)) */\n      jump\t// in\n    tag_229:\n        /* \"SafeBEP20.sol\":888:1129  function safeTransferFrom(... */\n      pop\n      pop\n      pop\n      pop\n      jump\t// out\n        /* \"Ownable.sol\":2192:2417  function _transferOwnership(address newOwner) internal {... */\n    tag_192:\n        /* \"Ownable.sol\":2285:2286  0 */\n      0x00\n        /* \"Ownable.sol\":2265:2287  newOwner != address(0) */\n      0xffffffffffffffffffffffffffffffffffffffff\n      and\n        /* \"Ownable.sol\":2265:2273  newOwner */\n      dup2\n        /* \"Ownable.sol\":2265:2287  newOwner != address(0) */\n      0xffffffffffffffffffffffffffffffffffffffff\n      and\n      eq\n      iszero\n        /* \"Ownable.sol\":2257:2330  require(newOwner != address(0), 'Ownable: new owner is the zero address') */\n      tag_231\n      jumpi\n      mload(0x40)\n      0x08c379a000000000000000000000000000000000000000000000000000000000\n      dup2\n      mstore\n      0x04\n      add\n      dup1\n      dup1\n      0x20\n      add\n      dup3\n      dup2\n      sub\n      dup3\n      mstore\n      0x26\n      dup2\n      mstore\n      0x20\n      add\n      dup1\n      data_245f15ff17f551913a7a18385165551503906a406f905ac1c2437281a7cd0cfe\n      0x26\n      swap2\n      codecopy\n      0x40\n      add\n      swap2\n      pop\n      pop\n      mload(0x40)\n      dup1\n      swap2\n      sub\n      swap1\n      revert\n    tag_231:\n        /* \"Ownable.sol\":2374:2382  newOwner */\n      dup1\n        /* \"Ownable.sol\":2345:2383  OwnershipTransferred(_owner, newOwner) */\n      0xffffffffffffffffffffffffffffffffffffffff\n      and\n        /* \"Ownable.sol\":2366:2372  _owner */\n      0x00\n      dup1\n      sload\n      swap1\n      0x0100\n      exp\n      swap1\n      div\n      0xffffffffffffffffffffffffffffffffffffffff\n      and\n        /* \"Ownable.sol\":2345:2383  OwnershipTransferred(_owner, newOwner) */\n      0xffffffffffffffffffffffffffffffffffffffff\n      and\n      0x8be0079c531659141344cd1fd0a4f28419497f9722a3daafe3b4186f6b6457e0\n      mload(0x40)\n      mload(0x40)\n      dup1\n      swap2\n      sub\n      swap1\n      log3\n        /* \"Ownable.sol\":2402:2410  newOwner */\n      dup1\n        /* \"Ownable.sol\":2393:2399  _owner */\n      0x00\n      dup1\n        /* \"Ownable.sol\":2393:2410  _owner = newOwner */\n      0x0100\n      exp\n      dup2\n      sload\n      dup2\n      0xffffffffffffffffffffffffffffffffffffffff\n      mul\n      not\n      and\n      swap1\n      dup4\n      0xffffffffffffffffffffffffffffffffffffffff\n      and\n      mul\n      or\n      swap1\n      sstore\n      pop\n        /* \"Ownable.sol\":2192:2417  function _transferOwnership(address newOwner) internal {... */\n      pop\n      jump\t// out\n        /* \"FAANGOrchestrator.sol\":9576:10002  function safeFAANGTransfer(address _to, uint256 _amount) internal {... */\n    tag_207:\n        /* \"FAANGOrchestrator.sol\":9652:9668  uint256 FAANGBal */\n      0x00\n        /* \"FAANGOrchestrator.sol\":9671:9676  FAANG */\n      0x02\n      0x00\n      swap1\n      sload\n      swap1\n      0x0100\n      exp\n      swap1\n      div\n      0xffffffffffffffffffffffffffffffffffffffff\n      and\n        /* \"FAANGOrchestrator.sol\":9671:9686  FAANG.balanceOf */\n      0xffffffffffffffffffffffffffffffffffffffff\n      and\n      0x70a08231\n        /* \"FAANGOrchestrator.sol\":9695:9699  this */\n      address\n        /* \"FAANGOrchestrator.sol\":9671:9701  FAANG.balanceOf(address(this)) */\n      mload(0x40)\n      dup3\n      0xffffffff\n      and\n      0xe0\n      shl\n      dup2\n      mstore\n      0x04\n      add\n      dup1\n      dup3\n      0xffffffffffffffffffffffffffffffffffffffff\n      and\n      dup2\n      mstore\n      0x20\n      add\n      swap2\n      pop\n      pop\n      0x20\n      mload(0x40)\n      dup1\n      dup4\n      sub\n      dup2\n      dup7\n      dup1\n      extcodesize\n      iszero\n      dup1\n      iszero\n      tag_233\n      jumpi\n      0x00\n      dup1\n      revert\n    tag_233:\n      pop\n      gas\n      staticcall\n      iszero\n      dup1\n      iszero\n      tag_235\n      jumpi\n      returndatasize\n      0x00\n      dup1\n      returndatacopy\n      revert(0x00, returndatasize)\n    tag_235:\n      pop\n      pop\n      pop\n      pop\n      mload(0x40)\n      returndatasize\n      0x20\n      dup2\n      lt\n      iszero\n      tag_236\n      jumpi\n      0x00\n      dup1\n      revert\n    tag_236:\n      dup2\n      add\n      swap1\n      dup1\n      dup1\n      mload\n      swap1\n      0x20\n      add\n      swap1\n      swap3\n      swap2\n      swap1\n      pop\n      pop\n      pop\n        /* \"FAANGOrchestrator.sol\":9652:9701  uint256 FAANGBal = FAANG.balanceOf(address(this)) */\n      swap1\n      pop\n        /* \"FAANGOrchestrator.sol\":9711:9731  bool transferSuccess */\n      0x00\n        /* \"FAANGOrchestrator.sol\":9764:9772  FAANGBal */\n      dup2\n        /* \"FAANGOrchestrator.sol\":9754:9761  _amount */\n      dup4\n        /* \"FAANGOrchestrator.sol\":9754:9772  _amount > FAANGBal */\n      gt\n        /* \"FAANGOrchestrator.sol\":9750:9923  if (_amount > FAANGBal) {... */\n      iszero\n      tag_237\n      jumpi\n        /* \"FAANGOrchestrator.sol\":9806:9811  FAANG */\n      0x02\n      0x00\n      swap1\n      sload\n      swap1\n      0x0100\n      exp\n      swap1\n      div\n      0xffffffffffffffffffffffffffffffffffffffff\n      and\n        /* \"FAANGOrchestrator.sol\":9806:9820  FAANG.transfer */\n      0xffffffffffffffffffffffffffffffffffffffff\n      and\n      0xa9059cbb\n        /* \"FAANGOrchestrator.sol\":9821:9824  _to */\n      dup6\n        /* \"FAANGOrchestrator.sol\":9826:9834  FAANGBal */\n      dup5\n        /* \"FAANGOrchestrator.sol\":9806:9835  FAANG.transfer(_to, FAANGBal) */\n      mload(0x40)\n      dup4\n      0xffffffff\n      and\n      0xe0\n      shl\n      dup2\n      mstore\n      0x04\n      add\n      dup1\n      dup4\n      0xffffffffffffffffffffffffffffffffffffffff\n      and\n      dup2\n      mstore\n      0x20\n      add\n      dup3\n      dup2\n      mstore\n      0x20\n      add\n      swap3\n      pop\n      pop\n      pop\n      0x20\n      mload(0x40)\n      dup1\n      dup4\n      sub\n      dup2\n      0x00\n      dup8\n      dup1\n      extcodesize\n      iszero\n      dup1\n      iszero\n      tag_238\n      jumpi\n      0x00\n      dup1\n      revert\n    tag_238:\n      pop\n      gas\n      call\n      iszero\n      dup1\n      iszero\n      tag_240\n      jumpi\n      returndatasize\n      0x00\n      dup1\n      returndatacopy\n      revert(0x00, returndatasize)\n    tag_240:\n      pop\n      pop\n      pop\n      pop\n      mload(0x40)\n      returndatasize\n      0x20\n      dup2\n      lt\n      iszero\n      tag_241\n      jumpi\n      0x00\n      dup1\n      revert\n    tag_241:\n      dup2\n      add\n      swap1\n      dup1\n      dup1\n      mload\n      swap1\n      0x20\n      add\n      swap1\n      swap3\n      swap2\n      swap1\n      pop\n      pop\n      pop\n        /* \"FAANGOrchestrator.sol\":9788:9835  transferSuccess = FAANG.transfer(_to, FAANGBal) */\n      swap1\n      pop\n        /* \"FAANGOrchestrator.sol\":9750:9923  if (_amount > FAANGBal) {... */\n      jump(tag_242)\n    tag_237:\n        /* \"FAANGOrchestrator.sol\":9884:9889  FAANG */\n      0x02\n      0x00\n      swap1\n      sload\n      swap1\n      0x0100\n      exp\n      swap1\n      div\n      0xffffffffffffffffffffffffffffffffffffffff\n      and\n        /* \"FAANGOrchestrator.sol\":9884:9898  FAANG.transfer */\n      0xffffffffffffffffffffffffffffffffffffffff\n      and\n      0xa9059cbb\n        /* \"FAANGOrchestrator.sol\":9899:9902  _to */\n      dup6\n        /* \"FAANGOrchestrator.sol\":9904:9911  _amount */\n      dup6\n        /* \"FAANGOrchestrator.sol\":9884:9912  FAANG.transfer(_to, _amount) */\n      mload(0x40)\n      dup4\n      0xffffffff\n      and\n      0xe0\n      shl\n      dup2\n      mstore\n      0x04\n      add\n      dup1\n      dup4\n      0xffffffffffffffffffffffffffffffffffffffff\n      and\n      dup2\n      mstore\n      0x20\n      add\n      dup3\n      dup2\n      mstore\n      0x20\n      add\n      swap3\n      pop\n      pop\n      pop\n      0x20\n      mload(0x40)\n      dup1\n      dup4\n      sub\n      dup2\n      0x00\n      dup8\n      dup1\n      extcodesize\n      iszero\n      dup1\n      iszero\n      tag_243\n      jumpi\n      0x00\n      dup1\n      revert\n    tag_243:\n      pop\n      gas\n      call\n      iszero\n      dup1\n      iszero\n      tag_245\n      jumpi\n      returndatasize\n      0x00\n      dup1\n      returndatacopy\n      revert(0x00, returndatasize)\n    tag_245:\n      pop\n      pop\n      pop\n      pop\n      mload(0x40)\n      returndatasize\n      0x20\n      dup2\n      lt\n      iszero\n      tag_246\n      jumpi\n      0x00\n      dup1\n      revert\n    tag_246:\n      dup2\n      add\n      swap1\n      dup1\n      dup1\n      mload\n      swap1\n      0x20\n      add\n      swap1\n      swap3\n      swap2\n      swap1\n      pop\n      pop\n      pop\n        /* \"FAANGOrchestrator.sol\":9866:9912  transferSuccess = FAANG.transfer(_to, _amount) */\n      swap1\n      pop\n        /* \"FAANGOrchestrator.sol\":9750:9923  if (_amount > FAANGBal) {... */\n    tag_242:\n        /* \"FAANGOrchestrator.sol\":9941:9956  transferSuccess */\n      dup1\n        /* \"FAANGOrchestrator.sol\":9933:9995  require(transferSuccess, \"safePlumTransfer: transfer failed.\") */\n      tag_247\n      jumpi\n      mload(0x40)\n      0x08c379a000000000000000000000000000000000000000000000000000000000\n      dup2\n      mstore\n      0x04\n      add\n      dup1\n      dup1\n      0x20\n      add\n      dup3\n      dup2\n      sub\n      dup3\n      mstore\n      0x22\n      dup2\n      mstore\n      0x20\n      add\n      dup1\n      data_2a7e0e7f8bc79ffac7125960112eaea13c804910c2e58b65c50e00aacc68de0e\n      0x22\n      swap2\n      codecopy\n      0x40\n      add\n      swap2\n      pop\n      pop\n      mload(0x40)\n      dup1\n      swap2\n      sub\n      swap1\n      revert\n    tag_247:\n        /* \"FAANGOrchestrator.sol\":9576:10002  function safeFAANGTransfer(address _to, uint256 _amount) internal {... */\n      pop\n      pop\n      pop\n      pop\n      jump\t// out\n        /* \"SafeMath.sol\":1747:1964  function sub(... */\n    tag_213:\n        /* \"SafeMath.sol\":1863:1870  uint256 */\n      0x00\n        /* \"SafeMath.sol\":1895:1896  a */\n      dup4\n        /* \"SafeMath.sol\":1890:1891  b */\n      dup4\n        /* \"SafeMath.sol\":1890:1896  b <= a */\n      gt\n      iszero\n        /* \"SafeMath.sol\":1898:1910  errorMessage */\n      dup3\n        /* \"SafeMath.sol\":1882:1911  require(b <= a, errorMessage) */\n      swap1\n      tag_249\n      jumpi\n      mload(0x40)\n      0x08c379a000000000000000000000000000000000000000000000000000000000\n      dup2\n      mstore\n      0x04\n      add\n      dup1\n      dup1\n      0x20\n      add\n      dup3\n      dup2\n      sub\n      dup3\n      mstore\n      dup4\n      dup2\n      dup2\n      mload\n      dup2\n      mstore\n      0x20\n      add\n      swap2\n      pop\n      dup1\n      mload\n      swap1\n      0x20\n      add\n      swap1\n      dup1\n      dup4\n      dup4\n      0x00\n    tag_250:\n      dup4\n      dup2\n      lt\n      iszero\n      tag_252\n      jumpi\n      dup1\n      dup3\n      add\n      mload\n      dup2\n      dup5\n      add\n      mstore\n      0x20\n      dup2\n      add\n      swap1\n      pop\n      jump(tag_250)\n    tag_252:\n      pop\n      pop\n      pop\n      pop\n      swap1\n      pop\n      swap1\n      dup2\n      add\n      swap1\n      0x1f\n      and\n      dup1\n      iszero\n      tag_253\n      jumpi\n      dup1\n      dup3\n      sub\n      dup1\n      mload\n      0x01\n      dup4\n      0x20\n      sub\n      0x0100\n      exp\n      sub\n      not\n      and\n      dup2\n      mstore\n      0x20\n      add\n      swap2\n      pop\n    tag_253:\n      pop\n      swap3\n      pop\n      pop\n      pop\n      mload(0x40)\n      dup1\n      swap2\n      sub\n      swap1\n      revert\n    tag_249:\n      pop\n        /* \"SafeMath.sol\":1921:1930  uint256 c */\n      0x00\n        /* \"SafeMath.sol\":1937:1938  b */\n      dup4\n        /* \"SafeMath.sol\":1933:1934  a */\n      dup6\n        /* \"SafeMath.sol\":1933:1938  a - b */\n      sub\n        /* \"SafeMath.sol\":1921:1938  uint256 c = a - b */\n      swap1\n      pop\n        /* \"SafeMath.sol\":1956:1957  c */\n      dup1\n        /* \"SafeMath.sol\":1949:1957  return c */\n      swap2\n      pop\n      pop\n        /* \"SafeMath.sol\":1747:1964  function sub(... */\n      swap4\n      swap3\n      pop\n      pop\n      pop\n      jump\t// out\n        /* \"SafeBEP20.sol\":3145:3908  function _callOptionalReturn(IBEP20 token, bytes memory data) private {... */\n    tag_216:\n        /* \"SafeBEP20.sol\":3564:3587  bytes memory returndata */\n      0x60\n        /* \"SafeBEP20.sol\":3590:3659  address(token).functionCall(data, 'SafeBEP20: low-level call failed') */\n      tag_255\n        /* \"SafeBEP20.sol\":3618:3622  data */\n      dup3\n        /* \"SafeBEP20.sol\":3590:3659  address(token).functionCall(data, 'SafeBEP20: low-level call failed') */\n      mload(0x40)\n      dup1\n      0x40\n      add\n      0x40\n      mstore\n      dup1\n      0x20\n      dup2\n      mstore\n      0x20\n      add\n      0x5361666542455032303a206c6f772d6c6576656c2063616c6c206661696c6564\n      dup2\n      mstore\n      pop\n        /* \"SafeBEP20.sol\":3598:3603  token */\n      dup6\n        /* \"SafeBEP20.sol\":3590:3617  address(token).functionCall */\n      0xffffffffffffffffffffffffffffffffffffffff\n      and\n      tag_256\n      swap1\n        /* \"SafeBEP20.sol\":3590:3659  address(token).functionCall(data, 'SafeBEP20: low-level call failed') */\n      swap3\n      swap2\n      swap1\n      0xffffffff\n      and\n      jump\t// in\n    tag_255:\n        /* \"SafeBEP20.sol\":3564:3659  bytes memory returndata = address(token).functionCall(data, 'SafeBEP20: low-level call failed') */\n      swap1\n      pop\n        /* \"SafeBEP20.sol\":3693:3694  0 */\n      0x00\n        /* \"SafeBEP20.sol\":3673:3683  returndata */\n      dup2\n        /* \"SafeBEP20.sol\":3673:3690  returndata.length */\n      mload\n        /* \"SafeBEP20.sol\":3673:3694  returndata.length > 0 */\n      gt\n        /* \"SafeBEP20.sol\":3669:3902  if (returndata.length > 0) {... */\n      iszero\n      tag_257\n      jumpi\n        /* \"SafeBEP20.sol\":3825:3835  returndata */\n      dup1\n        /* \"SafeBEP20.sol\":3814:3844  abi.decode(returndata, (bool)) */\n      dup1\n      0x20\n      add\n      swap1\n      mload\n      0x20\n      dup2\n      lt\n      iszero\n      tag_258\n      jumpi\n      0x00\n      dup1\n      revert\n    tag_258:\n      dup2\n      add\n      swap1\n      dup1\n      dup1\n      mload\n      swap1\n      0x20\n      add\n      swap1\n      swap3\n      swap2\n      swap1\n      pop\n      pop\n      pop\n        /* \"SafeBEP20.sol\":3806:3891  require(abi.decode(returndata, (bool)), 'SafeBEP20: BEP20 operation did not succeed') */\n      tag_259\n      jumpi\n      mload(0x40)\n      0x08c379a000000000000000000000000000000000000000000000000000000000\n      dup2\n      mstore\n      0x04\n      add\n      dup1\n      dup1\n      0x20\n      add\n      dup3\n      dup2\n      sub\n      dup3\n      mstore\n      0x2a\n      dup2\n      mstore\n      0x20\n      add\n      dup1\n      data_21c3364d55537bf20eb8f05374e9f53f47299e1883c412f1f1135f398f2c2082\n      0x2a\n      swap2\n      codecopy\n      0x40\n      add\n      swap2\n      pop\n      pop\n      mload(0x40)\n      dup1\n      swap2\n      sub\n      swap1\n      revert\n    tag_259:\n        /* \"SafeBEP20.sol\":3669:3902  if (returndata.length > 0) {... */\n    tag_257:\n        /* \"SafeBEP20.sol\":3145:3908  function _callOptionalReturn(IBEP20 token, bytes memory data) private {... */\n      pop\n      pop\n      pop\n      jump\t// out\n        /* \"SafeMath.sol\":3744:4046  function div(... */\n    tag_223:\n        /* \"SafeMath.sol\":3860:3867  uint256 */\n      0x00\n        /* \"SafeMath.sol\":3891:3892  0 */\n      dup1\n        /* \"SafeMath.sol\":3887:3888  b */\n      dup4\n        /* \"SafeMath.sol\":3887:3892  b > 0 */\n      gt\n        /* \"SafeMath.sol\":3894:3906  errorMessage */\n      dup3\n        /* \"SafeMath.sol\":3879:3907  require(b > 0, errorMessage) */\n      swap1\n      tag_261\n      jumpi\n      mload(0x40)\n      0x08c379a000000000000000000000000000000000000000000000000000000000\n      dup2\n      mstore\n      0x04\n      add\n      dup1\n      dup1\n      0x20\n      add\n      dup3\n      dup2\n      sub\n      dup3\n      mstore\n      dup4\n      dup2\n      dup2\n      mload\n      dup2\n      mstore\n      0x20\n      add\n      swap2\n      pop\n      dup1\n      mload\n      swap1\n      0x20\n      add\n      swap1\n      dup1\n      dup4\n      dup4\n      0x00\n    tag_262:\n      dup4\n      dup2\n      lt\n      iszero\n      tag_264\n      jumpi\n      dup1\n      dup3\n      add\n      mload\n      dup2\n      dup5\n      add\n      mstore\n      0x20\n      dup2\n      add\n      swap1\n      pop\n      jump(tag_262)\n    tag_264:\n      pop\n      pop\n      pop\n      pop\n      swap1\n      pop\n      swap1\n      dup2\n      add\n      swap1\n      0x1f\n      and\n      dup1\n      iszero\n      tag_265\n      jumpi\n      dup1\n      dup3\n      sub\n      dup1\n      mload\n      0x01\n      dup4\n      0x20\n      sub\n      0x0100\n      exp\n      sub\n      not\n      and\n      dup2\n      mstore\n      0x20\n      add\n      swap2\n      pop\n    tag_265:\n      pop\n      swap3\n      pop\n      pop\n      pop\n      mload(0x40)\n      dup1\n      swap2\n      sub\n      swap1\n      revert\n    tag_261:\n      pop\n        /* \"SafeMath.sol\":3917:3926  uint256 c */\n      0x00\n        /* \"SafeMath.sol\":3933:3934  b */\n      dup4\n        /* \"SafeMath.sol\":3929:3930  a */\n      dup6\n        /* \"SafeMath.sol\":3929:3934  a / b */\n      dup2\n      tag_266\n      jumpi\n      invalid\n    tag_266:\n      div\n        /* \"SafeMath.sol\":3917:3934  uint256 c = a / b */\n      swap1\n      pop\n        /* \"SafeMath.sol\":4038:4039  c */\n      dup1\n        /* \"SafeMath.sol\":4031:4039  return c */\n      swap2\n      pop\n      pop\n        /* \"SafeMath.sol\":3744:4046  function div(... */\n      swap4\n      swap3\n      pop\n      pop\n      pop\n      jump\t// out\n        /* \"Address.sol\":3790:4014  function functionCall(... */\n    tag_256:\n        /* \"Address.sol\":3923:3935  bytes memory */\n      0x60\n        /* \"Address.sol\":3954:4007  _functionCallWithValue(target, data, 0, errorMessage) */\n      tag_268\n        /* \"Address.sol\":3977:3983  target */\n      dup5\n        /* \"Address.sol\":3985:3989  data */\n      dup5\n        /* \"Address.sol\":3991:3992  0 */\n      0x00\n        /* \"Address.sol\":3994:4006  errorMessage */\n      dup6\n        /* \"Address.sol\":3954:3976  _functionCallWithValue */\n      tag_269\n        /* \"Address.sol\":3954:4007  _functionCallWithValue(target, data, 0, errorMessage) */\n      jump\t// in\n    tag_268:\n        /* \"Address.sol\":3947:4007  return _functionCallWithValue(target, data, 0, errorMessage) */\n      swap1\n      pop\n        /* \"Address.sol\":3790:4014  function functionCall(... */\n      swap4\n      swap3\n      pop\n      pop\n      pop\n      jump\t// out\n        /* \"Address.sol\":5235:6229  function _functionCallWithValue(... */\n    tag_269:\n        /* \"Address.sol\":5403:5415  bytes memory */\n      0x60\n        /* \"Address.sol\":5435:5453  isContract(target) */\n      tag_271\n        /* \"Address.sol\":5446:5452  target */\n      dup6\n        /* \"Address.sol\":5435:5445  isContract */\n      tag_272\n        /* \"Address.sol\":5435:5453  isContract(target) */\n      jump\t// in\n    tag_271:\n        /* \"Address.sol\":5427:5487  require(isContract(target), 'Address: call to non-contract') */\n      tag_273\n      jumpi\n      mload(0x40)\n      0x08c379a000000000000000000000000000000000000000000000000000000000\n      dup2\n      mstore\n      0x04\n      add\n      dup1\n      dup1\n      0x20\n      add\n      dup3\n      dup2\n      sub\n      dup3\n      mstore\n      0x1d\n      dup2\n      mstore\n      0x20\n      add\n      dup1\n      0x416464726573733a2063616c6c20746f206e6f6e2d636f6e7472616374000000\n      dup2\n      mstore\n      pop\n      0x20\n      add\n      swap2\n      pop\n      pop\n      mload(0x40)\n      dup1\n      swap2\n      sub\n      swap1\n      revert\n    tag_273:\n        /* \"Address.sol\":5558:5570  bool success */\n      0x00\n        /* \"Address.sol\":5572:5595  bytes memory returndata */\n      0x60\n        /* \"Address.sol\":5599:5605  target */\n      dup7\n        /* \"Address.sol\":5599:5610  target.call */\n      0xffffffffffffffffffffffffffffffffffffffff\n      and\n        /* \"Address.sol\":5618:5626  weiValue */\n      dup6\n        /* \"Address.sol\":5628:5632  data */\n      dup8\n        /* \"Address.sol\":5599:5633  target.call{value: weiValue}(data) */\n      mload(0x40)\n      dup1\n      dup3\n      dup1\n      mload\n      swap1\n      0x20\n      add\n      swap1\n      dup1\n      dup4\n      dup4\n    tag_274:\n      0x20\n      dup4\n      lt\n      tag_276\n      jumpi\n      dup1\n      mload\n      dup3\n      mstore\n      0x20\n      dup3\n      add\n      swap2\n      pop\n      0x20\n      dup2\n      add\n      swap1\n      pop\n      0x20\n      dup4\n      sub\n      swap3\n      pop\n      jump(tag_274)\n    tag_276:\n      0x01\n      dup4\n      0x20\n      sub\n      0x0100\n      exp\n      sub\n      dup1\n      not\n      dup3\n      mload\n      and\n      dup2\n      dup5\n      mload\n      and\n      dup1\n      dup3\n      or\n      dup6\n      mstore\n      pop\n      pop\n      pop\n      pop\n      pop\n      pop\n      swap1\n      pop\n      add\n      swap2\n      pop\n      pop\n      0x00\n      mload(0x40)\n      dup1\n      dup4\n      sub\n      dup2\n      dup6\n      dup8\n      gas\n      call\n      swap3\n      pop\n      pop\n      pop\n      returndatasize\n      dup1\n      0x00\n      dup2\n      eq\n      tag_279\n      jumpi\n      mload(0x40)\n      swap2\n      pop\n      and(add(returndatasize, 0x3f), not(0x1f))\n      dup3\n      add\n      0x40\n      mstore\n      returndatasize\n      dup3\n      mstore\n      returndatasize\n      0x00\n      0x20\n      dup5\n      add\n      returndatacopy\n      jump(tag_278)\n    tag_279:\n      0x60\n      swap2\n      pop\n    tag_278:\n      pop\n        /* \"Address.sol\":5557:5633  (bool success, bytes memory returndata) = target.call{value: weiValue}(data) */\n      swap2\n      pop\n      swap2\n      pop\n        /* \"Address.sol\":5647:5654  success */\n      dup2\n        /* \"Address.sol\":5643:6223  if (success) {... */\n      iszero\n      tag_280\n      jumpi\n        /* \"Address.sol\":5677:5687  returndata */\n      dup1\n        /* \"Address.sol\":5670:5687  return returndata */\n      swap3\n      pop\n      pop\n      pop\n      jump(tag_270)\n        /* \"Address.sol\":5643:6223  if (success) {... */\n    tag_280:\n        /* \"Address.sol\":5808:5809  0 */\n      0x00\n        /* \"Address.sol\":5788:5798  returndata */\n      dup2\n        /* \"Address.sol\":5788:5805  returndata.length */\n      mload\n        /* \"Address.sol\":5788:5809  returndata.length > 0 */\n      gt\n        /* \"Address.sol\":5784:6213  if (returndata.length > 0) {... */\n      iszero\n      tag_282\n      jumpi\n        /* \"Address.sol\":6046:6056  returndata */\n      dup1\n        /* \"Address.sol\":6040:6057  mload(returndata) */\n      mload\n        /* \"Address.sol\":6106:6121  returndata_size */\n      dup1\n        /* \"Address.sol\":6093:6103  returndata */\n      dup3\n        /* \"Address.sol\":6089:6091  32 */\n      0x20\n        /* \"Address.sol\":6085:6104  add(32, returndata) */\n      add\n        /* \"Address.sol\":6078:6122  revert(add(32, returndata), returndata_size) */\n      revert\n        /* \"Address.sol\":5995:6140  {... */\n    tag_282:\n        /* \"Address.sol\":6185:6197  errorMessage */\n      dup4\n        /* \"Address.sol\":6178:6198  revert(errorMessage) */\n      mload(0x40)\n      0x08c379a000000000000000000000000000000000000000000000000000000000\n      dup2\n      mstore\n      0x04\n      add\n      dup1\n      dup1\n      0x20\n      add\n      dup3\n      dup2\n      sub\n      dup3\n      mstore\n      dup4\n      dup2\n      dup2\n      mload\n      dup2\n      mstore\n      0x20\n      add\n      swap2\n      pop\n      dup1\n      mload\n      swap1\n      0x20\n      add\n      swap1\n      dup1\n      dup4\n      dup4\n      0x00\n    tag_284:\n      dup4\n      dup2\n      lt\n      iszero\n      tag_286\n      jumpi\n      dup1\n      dup3\n      add\n      mload\n      dup2\n      dup5\n      add\n      mstore\n      0x20\n      dup2\n      add\n      swap1\n      pop\n      jump(tag_284)\n    tag_286:\n      pop\n      pop\n      pop\n      pop\n      swap1\n      pop\n      swap1\n      dup2\n      add\n      swap1\n      0x1f\n      and\n      dup1\n      iszero\n      tag_287\n      jumpi\n      dup1\n      dup3\n      sub\n      dup1\n      mload\n      0x01\n      dup4\n      0x20\n      sub\n      0x0100\n      exp\n      sub\n      not\n      and\n      dup2\n      mstore\n      0x20\n      add\n      swap2\n      pop\n    tag_287:\n      pop\n      swap3\n      pop\n      pop\n      pop\n      mload(0x40)\n      dup1\n      swap2\n      sub\n      swap1\n      revert\n        /* \"Address.sol\":5235:6229  function _functionCallWithValue(... */\n    tag_270:\n      swap5\n      swap4\n      pop\n      pop\n      pop\n      pop\n      jump\t// out\n        /* \"Address.sol\":718:1348  function isContract(address account) internal view returns (bool) {... */\n    tag_272:\n        /* \"Address.sol\":778:782  bool */\n      0x00\n        /* \"Address.sol\":1036:1052  bytes32 codehash */\n      dup1\n        /* \"Address.sol\":1062:1081  bytes32 accountHash */\n      0x00\n        /* \"Address.sol\":1084:1150  0xc5d2460186f7233c927e7db2dcc703c0e500b653ca82273b7bfad8045d85a470 */\n      0xc5d2460186f7233c927e7db2dcc703c0e500b653ca82273b7bfad8045d85a470\n        /* \"Address.sol\":1062:1150  bytes32 accountHash = 0xc5d2460186f7233c927e7db2dcc703c0e500b653ca82273b7bfad8045d85a470 */\n      0x00\n      shl\n      swap1\n      pop\n        /* \"Address.sol\":1263:1270  account */\n      dup4\n        /* \"Address.sol\":1251:1271  extcodehash(account) */\n      extcodehash\n        /* \"Address.sol\":1239:1271  codehash := extcodehash(account) */\n      swap2\n      pop\n        /* \"Address.sol\":1310:1321  accountHash */\n      dup1\n        /* \"Address.sol\":1298:1306  codehash */\n      dup3\n        /* \"Address.sol\":1298:1321  codehash != accountHash */\n      eq\n      iszero\n        /* \"Address.sol\":1298:1340  codehash != accountHash && codehash != 0x0 */\n      dup1\n      iszero\n      tag_289\n      jumpi\n      pop\n        /* \"Address.sol\":1337:1340  0x0 */\n      0x00\n        /* \"Address.sol\":1325:1340  codehash != 0x0 */\n      dup1\n      shl\n        /* \"Address.sol\":1325:1333  codehash */\n      dup3\n        /* \"Address.sol\":1325:1340  codehash != 0x0 */\n      eq\n      iszero\n        /* \"Address.sol\":1298:1340  codehash != accountHash && codehash != 0x0 */\n    tag_289:\n        /* \"Address.sol\":1290:1341  return (codehash != accountHash && codehash != 0x0) */\n      swap3\n      pop\n      pop\n      pop\n        /* \"Address.sol\":718:1348  function isContract(address account) internal view returns (bool) {... */\n      swap2\n      swap1\n      pop\n      jump\t// out\n    stop\n    data_21c3364d55537bf20eb8f05374e9f53f47299e1883c412f1f1135f398f2c2082 5361666542455032303a204245503230206f7065726174696f6e20646964206e6f742073756363656564\n    data_245f15ff17f551913a7a18385165551503906a406f905ac1c2437281a7cd0cfe 4f776e61626c653a206e6577206f776e657220697320746865207a65726f2061646472657373\n    data_2a7e0e7f8bc79ffac7125960112eaea13c804910c2e58b65c50e00aacc68de0e 73616665506c756d5472616e736665723a207472616e73666572206661696c65642e\n    data_9113bb53c2876a3805b2c9242029423fc540a728243ce887ab24c82cf119fba3 536166654d6174683a206d756c7469706c69636174696f6e206f766572666c6f77\n    data_bf35de78f3e15a98c58afdc189c393a6a76029783bd8ecfd3a8b87b4a628fd85 676574506f6f6c4964466f724c70546f6b656e3a20646f206e6f74206578697374\n    data_defd5c903b3416581b5d98f5a021e4c2963664705201c58ffb06423da9b1f891 6465706f7369743a207374616b696e6720706572696f642068617320656e646564\n\n    auxdata: 0xa264697066735822122022b92164b22e771c80a455741f2ca90259a7c7e529c105e230881aebcc5a9bc964736f6c634300060c0033\n}\n","bytecode":{"linkReferences":{},"object":"6080604052670de0b6b3a76400006003553480156200001d57600080fd5b50604051620029c9380380620029c9833981810160405260408110156200004357600080fd5b8101908080519060200190929190805190602001909291905050506000620000706200018760201b60201c565b9050806000806101000a81548173ffffffffffffffffffffffffffffffffffffffff021916908373ffffffffffffffffffffffffffffffffffffffff1602179055508073ffffffffffffffffffffffffffffffffffffffff16600073ffffffffffffffffffffffffffffffffffffffff167f8be0079c531659141344cd1fd0a4f28419497f9722a3daafe3b4186f6b6457e060405160405180910390a3506001808190555081600260006101000a81548173ffffffffffffffffffffffffffffffffffffffff021916908373ffffffffffffffffffffffffffffffffffffffff16021790555080600581905550620001796102d0826200018f60201b620019301790919060201c565b600481905550505062000218565b600033905090565b6000808284019050838110156200020e576040517f08c379a000000000000000000000000000000000000000000000000000000000815260040180806020018281038252601b8152602001807f536166654d6174683a206164646974696f6e206f766572666c6f77000000000081525060200191505060405180910390fd5b8091505092915050565b6127a180620002286000396000f3fe608060405234801561001057600080fd5b506004361061012c5760003560e01c8063715018a6116100ad5780639bf62f7e116100715780639bf62f7e14610467578063c100710d146104bf578063cbd258b514610521578063e2bbb1581461057b578063f2fde38b146105b35761012c565b8063715018a61461034d57806371811c3f146103575780638da5cb5b146103775780638dbb1e3a146103ab57806393f1a40b146103f75761012c565b806351eb05a6116100f457806351eb05a6146102635780635312ea8e14610291578063630b5ba1146102bf5780636621d3ba146102c95780636e983466146102fd5761012c565b8063081e3eda146101315780631526fe271461014f578063190f39f0146101b5578063267c33381461020d578063441a3e701461022b575b600080fd5b6101396105f7565b6040518082815260200191505060405180910390f35b61017b6004803603602081101561016557600080fd5b8101908080359060200190929190505050610604565b604051808473ffffffffffffffffffffffffffffffffffffffff168152602001838152602001828152602001935050505060405180910390f35b6101f7600480360360208110156101cb57600080fd5b81019080803573ffffffffffffffffffffffffffffffffffffffff16906020019092919050505061065b565b6040518082815260200191505060405180910390f35b61021561074d565b6040518082815260200191505060405180910390f35b6102616004803603604081101561024157600080fd5b810190808035906020019092919080359060200190929190505050610753565b005b61028f6004803603602081101561027957600080fd5b81019080803590602001909291905050506109e1565b005b6102bd600480360360208110156102a757600080fd5b8101908080359060200190929190505050610c32565b005b6102c7610dec565b005b6102d1610e19565b604051808273ffffffffffffffffffffffffffffffffffffffff16815260200191505060405180910390f35b61034b6004803603604081101561031357600080fd5b81019080803573ffffffffffffffffffffffffffffffffffffffff169060200190929190803515159060200190929190505050610e3f565b005b610355611152565b005b61035f6112d8565b60405180821515815260200191505060405180910390f35b61037f6112e5565b604051808273ffffffffffffffffffffffffffffffffffffffff16815260200191505060405180910390f35b6103e1600480360360408110156103c157600080fd5b81019080803590602001909291908035906020019092919050505061130e565b6040518082815260200191505060405180910390f35b6104436004803603604081101561040d57600080fd5b8101908080359060200190929190803573ffffffffffffffffffffffffffffffffffffffff16906020019092919050505061132b565b60405180848152602001838152602001828152602001935050505060405180910390f35b6104a96004803603602081101561047d57600080fd5b81019080803573ffffffffffffffffffffffffffffffffffffffff169060200190929190505050611362565b6040518082815260200191505060405180910390f35b61050b600480360360408110156104d557600080fd5b8101908080359060200190929190803573ffffffffffffffffffffffffffffffffffffffff16906020019092919050505061137a565b6040518082815260200191505060405180910390f35b6105636004803603602081101561053757600080fd5b81019080803573ffffffffffffffffffffffffffffffffffffffff1690602001909291905050506115bf565b60405180821515815260200191505060405180910390f35b6105b16004803603604081101561059157600080fd5b8101908080359060200190929190803590602001909291905050506115df565b005b6105f5600480360360208110156105c957600080fd5b81019080803573ffffffffffffffffffffffffffffffffffffffff16906020019092919050505061185c565b005b6000600680549050905090565b6006818154811061061157fe5b90600052602060002090600302016000915090508060000160009054906101000a900473ffffffffffffffffffffffffffffffffffffffff16908060010154908060020154905083565b6000801515600860008473ffffffffffffffffffffffffffffffffffffffff1673ffffffffffffffffffffffffffffffffffffffff16815260200190815260200160002060009054906101000a900460ff1615151415610706576040517f08c379a000000000000000000000000000000000000000000000000000000000815260040180806020018281038252602181526020018061272a6021913960400191505060405180910390fd5b600960008373ffffffffffffffffffffffffffffffffffffffff1673ffffffffffffffffffffffffffffffffffffffff168152602001908152602001600020549050919050565b60035481565b600260015414156107cc576040517f08c379a000000000000000000000000000000000000000000000000000000000815260040180806020018281038252601f8152602001807f5265656e7472616e637947756172643a207265656e7472616e742063616c6c0081525060200191505060405180910390fd5b60026001819055506000600683815481106107e357fe5b9060005260206000209060030201905060006007600085815260200190815260200160002060003373ffffffffffffffffffffffffffffffffffffffff1673ffffffffffffffffffffffffffffffffffffffff168152602001908152602001600020905082816000015410156108c1576040517f08c379a00000000000000000000000000000000000000000000000000000000081526004018080602001828103825260128152602001807f77697468647261773a206e6f7420676f6f64000000000000000000000000000081525060200191505060405180910390fd5b6108ca846109e1565b6108d3846119b8565b600083111561094b576108f3838260000154611b0290919063ffffffff16565b816000018190555061094a33848460000160009054906101000a900473ffffffffffffffffffffffffffffffffffffffff1673ffffffffffffffffffffffffffffffffffffffff16611b4c9092919063ffffffff16565b5b61097d64e8d4a5100061096f84600201548460000154611bee90919063ffffffff16565b611c7490919063ffffffff16565b8160010181905550833373ffffffffffffffffffffffffffffffffffffffff167ff279e6a1f5e320cca91135676d9cb6e44ca8a08c0b88342bcdb1144f6511b568856040518082815260200191505060405180910390a35050600180819055505050565b6000600682815481106109f057fe5b906000526020600020906003020190506000610a0a611cbe565b905081600101548111610a1e575050610c2f565b60008260000160009054906101000a900473ffffffffffffffffffffffffffffffffffffffff1673ffffffffffffffffffffffffffffffffffffffff166370a08231306040518263ffffffff1660e01b8152600401808273ffffffffffffffffffffffffffffffffffffffff16815260200191505060206040518083038186803b158015610aab57600080fd5b505afa158015610abf573d6000803e3d6000fd5b505050506040513d6020811015610ad557600080fd5b810190808051906020019092919050505090506000811415610b0257818360010181905550505050610c2f565b6000610b1284600101548461130e565b90506000610b2b60035483611bee90919063ffffffff16565b9050600260009054906101000a900473ffffffffffffffffffffffffffffffffffffffff1673ffffffffffffffffffffffffffffffffffffffff166340c10f1930836040518363ffffffff1660e01b8152600401808373ffffffffffffffffffffffffffffffffffffffff16815260200182815260200192505050600060405180830381600087803b158015610bc057600080fd5b505af1158015610bd4573d6000803e3d6000fd5b50505050610c18610c0584610bf764e8d4a5100085611bee90919063ffffffff16565b611c7490919063ffffffff16565b866002015461193090919063ffffffff16565b856002018190555083856001018190555050505050505b50565b60026001541415610cab576040517f08c379a000000000000000000000000000000000000000000000000000000000815260040180806020018281038252601f8152602001807f5265656e7472616e637947756172643a207265656e7472616e742063616c6c0081525060200191505060405180910390fd5b6002600181905550600060068281548110610cc257fe5b9060005260206000209060030201905060006007600084815260200190815260200160002060003373ffffffffffffffffffffffffffffffffffffffff1673ffffffffffffffffffffffffffffffffffffffff1681526020019081526020016000209050610d793382600001548460000160009054906101000a900473ffffffffffffffffffffffffffffffffffffffff1673ffffffffffffffffffffffffffffffffffffffff16611b4c9092919063ffffffff16565b823373ffffffffffffffffffffffffffffffffffffffff167fbb757047c2b5f3974fe26b7c10f732e7bce710b0952a71082702781e62ae059583600001546040518082815260200191505060405180910390a3600081600001819055506000816001018190555050506001808190555050565b6000600680549050905060005b81811015610e1557610e0a816109e1565b806001019050610df9565b5050565b600260009054906101000a900473ffffffffffffffffffffffffffffffffffffffff1681565b610e47611cd8565b73ffffffffffffffffffffffffffffffffffffffff1660008054906101000a900473ffffffffffffffffffffffffffffffffffffffff1673ffffffffffffffffffffffffffffffffffffffff1614610f07576040517f08c379a00000000000000000000000000000000000000000000000000000000081526004018080602001828103825260208152602001807f4f776e61626c653a2063616c6c6572206973206e6f7420746865206f776e657281525060200191505060405180910390fd5b8160001515600860008373ffffffffffffffffffffffffffffffffffffffff1673ffffffffffffffffffffffffffffffffffffffff16815260200190815260200160002060009054906101000a900460ff16151514610fce576040517f08c379a00000000000000000000000000000000000000000000000000000000081526004018080602001828103825260198152602001807f6e6f6e4475706c6963617465643a206475706c6963617465640000000000000081525060200191505060405180910390fd5b8115610fdd57610fdc610dec565b5b6001600860008573ffffffffffffffffffffffffffffffffffffffff1673ffffffffffffffffffffffffffffffffffffffff16815260200190815260200160002060006101000a81548160ff021916908315150217905550600660405180606001604052808573ffffffffffffffffffffffffffffffffffffffff168152602001600554431161106f57600554611071565b435b81526020016000815250908060018154018082558091505060019003906000526020600020906003020160009091909190915060008201518160000160006101000a81548173ffffffffffffffffffffffffffffffffffffffff021916908373ffffffffffffffffffffffffffffffffffffffff16021790555060208201518160010155604082015181600201555050600160068054905003600960008573ffffffffffffffffffffffffffffffffffffffff1673ffffffffffffffffffffffffffffffffffffffff16815260200190815260200160002081905550505050565b61115a611cd8565b73ffffffffffffffffffffffffffffffffffffffff1660008054906101000a900473ffffffffffffffffffffffffffffffffffffffff1673ffffffffffffffffffffffffffffffffffffffff161461121a576040517f08c379a00000000000000000000000000000000000000000000000000000000081526004018080602001828103825260208152602001807f4f776e61626c653a2063616c6c6572206973206e6f7420746865206f776e657281525060200191505060405180910390fd5b600073ffffffffffffffffffffffffffffffffffffffff1660008054906101000a900473ffffffffffffffffffffffffffffffffffffffff1673ffffffffffffffffffffffffffffffffffffffff167f8be0079c531659141344cd1fd0a4f28419497f9722a3daafe3b4186f6b6457e060405160405180910390a360008060006101000a81548173ffffffffffffffffffffffffffffffffffffffff021916908373ffffffffffffffffffffffffffffffffffffffff160217905550565b6000600554431015905090565b60008060009054906101000a900473ffffffffffffffffffffffffffffffffffffffff16905090565b60006113238383611b0290919063ffffffff16565b905092915050565b6007602052816000526040600020602052806000526040600020600091509150508060000154908060010154908060020154905083565b60096020528060005260406000206000915090505481565b6000806006848154811061138a57fe5b9060005260206000209060030201905060006007600086815260200190815260200160002060008573ffffffffffffffffffffffffffffffffffffffff1673ffffffffffffffffffffffffffffffffffffffff168152602001908152602001600020905060008260020154905060008360000160009054906101000a900473ffffffffffffffffffffffffffffffffffffffff1673ffffffffffffffffffffffffffffffffffffffff166370a08231306040518263ffffffff1660e01b8152600401808273ffffffffffffffffffffffffffffffffffffffff16815260200191505060206040518083038186803b15801561148457600080fd5b505afa158015611498573d6000803e3d6000fd5b505050506040513d60208110156114ae57600080fd5b8101908080519060200190929190505050905060006114cb611cbe565b90508460010154811180156114e1575060008214155b156115525760006114f686600101548361130e565b9050600061150f60035483611bee90919063ffffffff16565b905061154d61153e8561153064e8d4a5100085611bee90919063ffffffff16565b611c7490919063ffffffff16565b8661193090919063ffffffff16565b945050505b6000611598856001015461158a64e8d4a5100061157c888a60000154611bee90919063ffffffff16565b611c7490919063ffffffff16565b611b0290919063ffffffff16565b90506115b185600201548261193090919063ffffffff16565b965050505050505092915050565b60086020528060005260406000206000915054906101000a900460ff1681565b60026001541415611658576040517f08c379a000000000000000000000000000000000000000000000000000000000815260040180806020018281038252601f8152602001807f5265656e7472616e637947756172643a207265656e7472616e742063616c6c0081525060200191505060405180910390fd5b6002600181905550600060045411156116c7576004544311156116c6576040517f08c379a000000000000000000000000000000000000000000000000000000000815260040180806020018281038252602181526020018061274b6021913960400191505060405180910390fd5b5b6000600683815481106116d657fe5b9060005260206000209060030201905060006007600085815260200190815260200160002060003373ffffffffffffffffffffffffffffffffffffffff1673ffffffffffffffffffffffffffffffffffffffff1681526020019081526020016000209050611743846109e1565b61174c846119b8565b60008311156117c6576117a63330858560000160009054906101000a900473ffffffffffffffffffffffffffffffffffffffff1673ffffffffffffffffffffffffffffffffffffffff16611ce0909392919063ffffffff16565b6117bd83826000015461193090919063ffffffff16565b81600001819055505b6117f864e8d4a510006117ea84600201548460000154611bee90919063ffffffff16565b611c7490919063ffffffff16565b8160010181905550833373ffffffffffffffffffffffffffffffffffffffff167f90890809c654f11d6e72a28fa60149770a0d11ec6c92319d6ceb2bb0a4ea1a15856040518082815260200191505060405180910390a35050600180819055505050565b611864611cd8565b73ffffffffffffffffffffffffffffffffffffffff1660008054906101000a900473ffffffffffffffffffffffffffffffffffffffff1673ffffffffffffffffffffffffffffffffffffffff1614611924576040517f08c379a00000000000000000000000000000000000000000000000000000000081526004018080602001828103825260208152602001807f4f776e61626c653a2063616c6c6572206973206e6f7420746865206f776e657281525060200191505060405180910390fd5b61192d81611da1565b50565b6000808284019050838110156119ae576040517f08c379a000000000000000000000000000000000000000000000000000000000815260040180806020018281038252601b8152602001807f536166654d6174683a206164646974696f6e206f766572666c6f77000000000081525060200191505060405180910390fd5b8091505092915050565b6000600682815481106119c757fe5b9060005260206000209060030201905060006007600084815260200190815260200160002060003373ffffffffffffffffffffffffffffffffffffffff1673ffffffffffffffffffffffffffffffffffffffff16815260200190815260200160002090506000611a758260010154611a6764e8d4a51000611a5987600201548760000154611bee90919063ffffffff16565b611c7490919063ffffffff16565b611b0290919063ffffffff16565b9050611a7f6112d8565b15611ad2576000811180611a97575060008260020154115b15611acd576000611ab583600201548361193090919063ffffffff16565b905060008360020181905550611acb3382611ee4565b505b611afc565b6000811115611afb57611af281836002015461193090919063ffffffff16565b82600201819055505b5b50505050565b6000611b4483836040518060400160405280601e81526020017f536166654d6174683a207375627472616374696f6e206f766572666c6f7700008152506121b8565b905092915050565b611be98363a9059cbb60e01b8484604051602401808373ffffffffffffffffffffffffffffffffffffffff16815260200182815260200192505050604051602081830303815290604052907bffffffffffffffffffffffffffffffffffffffffffffffffffffffff19166020820180517bffffffffffffffffffffffffffffffffffffffffffffffffffffffff8381831617835250505050612278565b505050565b600080831415611c015760009050611c6e565b6000828402905082848281611c1257fe5b0414611c69576040517f08c379a00000000000000000000000000000000000000000000000000000000081526004018080602001828103825260218152602001806127096021913960400191505060405180910390fd5b809150505b92915050565b6000611cb683836040518060400160405280601a81526020017f536166654d6174683a206469766973696f6e206279207a65726f000000000000815250612367565b905092915050565b60006004544311611ccf5743611cd3565b6004545b905090565b600033905090565b611d9b846323b872dd60e01b858585604051602401808473ffffffffffffffffffffffffffffffffffffffff1681526020018373ffffffffffffffffffffffffffffffffffffffff1681526020018281526020019350505050604051602081830303815290604052907bffffffffffffffffffffffffffffffffffffffffffffffffffffffff19166020820180517bffffffffffffffffffffffffffffffffffffffffffffffffffffffff8381831617835250505050612278565b50505050565b600073ffffffffffffffffffffffffffffffffffffffff168173ffffffffffffffffffffffffffffffffffffffff161415611e27576040517f08c379a00000000000000000000000000000000000000000000000000000000081526004018080602001828103825260268152602001806126c16026913960400191505060405180910390fd5b8073ffffffffffffffffffffffffffffffffffffffff1660008054906101000a900473ffffffffffffffffffffffffffffffffffffffff1673ffffffffffffffffffffffffffffffffffffffff167f8be0079c531659141344cd1fd0a4f28419497f9722a3daafe3b4186f6b6457e060405160405180910390a3806000806101000a81548173ffffffffffffffffffffffffffffffffffffffff021916908373ffffffffffffffffffffffffffffffffffffffff16021790555050565b6000600260009054906101000a900473ffffffffffffffffffffffffffffffffffffffff1673ffffffffffffffffffffffffffffffffffffffff166370a08231306040518263ffffffff1660e01b8152600401808273ffffffffffffffffffffffffffffffffffffffff16815260200191505060206040518083038186803b158015611f6f57600080fd5b505afa158015611f83573d6000803e3d6000fd5b505050506040513d6020811015611f9957600080fd5b8101908080519060200190929190505050905060008183111561208b57600260009054906101000a900473ffffffffffffffffffffffffffffffffffffffff1673ffffffffffffffffffffffffffffffffffffffff1663a9059cbb85846040518363ffffffff1660e01b8152600401808373ffffffffffffffffffffffffffffffffffffffff16815260200182815260200192505050602060405180830381600087803b15801561204957600080fd5b505af115801561205d573d6000803e3d6000fd5b505050506040513d602081101561207357600080fd5b8101908080519060200190929190505050905061215c565b600260009054906101000a900473ffffffffffffffffffffffffffffffffffffffff1673ffffffffffffffffffffffffffffffffffffffff1663a9059cbb85856040518363ffffffff1660e01b8152600401808373ffffffffffffffffffffffffffffffffffffffff16815260200182815260200192505050602060405180830381600087803b15801561211e57600080fd5b505af1158015612132573d6000803e3d6000fd5b505050506040513d602081101561214857600080fd5b810190808051906020019092919050505090505b806121b2576040517f08c379a00000000000000000000000000000000000000000000000000000000081526004018080602001828103825260228152602001806126e76022913960400191505060405180910390fd5b50505050565b6000838311158290612265576040517f08c379a00000000000000000000000000000000000000000000000000000000081526004018080602001828103825283818151815260200191508051906020019080838360005b8381101561222a57808201518184015260208101905061220f565b50505050905090810190601f1680156122575780820380516001836020036101000a031916815260200191505b509250505060405180910390fd5b5060008385039050809150509392505050565b60606122da826040518060400160405280602081526020017f5361666542455032303a206c6f772d6c6576656c2063616c6c206661696c65648152508573ffffffffffffffffffffffffffffffffffffffff1661242d9092919063ffffffff16565b9050600081511115612362578080602001905160208110156122fb57600080fd5b8101908080519060200190929190505050612361576040517f08c379a000000000000000000000000000000000000000000000000000000000815260040180806020018281038252602a815260200180612697602a913960400191505060405180910390fd5b5b505050565b60008083118290612413576040517f08c379a00000000000000000000000000000000000000000000000000000000081526004018080602001828103825283818151815260200191508051906020019080838360005b838110156123d85780820151818401526020810190506123bd565b50505050905090810190601f1680156124055780820380516001836020036101000a031916815260200191505b509250505060405180910390fd5b50600083858161241f57fe5b049050809150509392505050565b606061243c8484600085612445565b90509392505050565b60606124508561264b565b6124c2576040517f08c379a000000000000000000000000000000000000000000000000000000000815260040180806020018281038252601d8152602001807f416464726573733a2063616c6c20746f206e6f6e2d636f6e747261637400000081525060200191505060405180910390fd5b600060608673ffffffffffffffffffffffffffffffffffffffff1685876040518082805190602001908083835b6020831061251257805182526020820191506020810190506020830392506124ef565b6001836020036101000a03801982511681845116808217855250505050505090500191505060006040518083038185875af1925050503d8060008114612574576040519150601f19603f3d011682016040523d82523d6000602084013e612579565b606091505b5091509150811561258e578092505050612643565b6000815111156125a15780518082602001fd5b836040517f08c379a00000000000000000000000000000000000000000000000000000000081526004018080602001828103825283818151815260200191508051906020019080838360005b838110156126085780820151818401526020810190506125ed565b50505050905090810190601f1680156126355780820380516001836020036101000a031916815260200191505b509250505060405180910390fd5b949350505050565b60008060007fc5d2460186f7233c927e7db2dcc703c0e500b653ca82273b7bfad8045d85a47060001b9050833f915080821415801561268d57506000801b8214155b9250505091905056fe5361666542455032303a204245503230206f7065726174696f6e20646964206e6f7420737563636565644f776e61626c653a206e6577206f776e657220697320746865207a65726f206164647265737373616665506c756d5472616e736665723a207472616e73666572206661696c65642e536166654d6174683a206d756c7469706c69636174696f6e206f766572666c6f77676574506f6f6c4964466f724c70546f6b656e3a20646f206e6f742065786973746465706f7369743a207374616b696e6720706572696f642068617320656e646564a264697066735822122022b92164b22e771c80a455741f2ca90259a7c7e529c105e230881aebcc5a9bc964736f6c634300060c0033","opcodes":"PUSH1 0x80 PUSH1 0x40 MSTORE PUSH8 0xDE0B6B3A7640000 PUSH1 0x3 SSTORE CALLVALUE DUP1 ISZERO PUSH3 0x1D JUMPI PUSH1 0x0 DUP1 REVERT JUMPDEST POP PUSH1 0x40 MLOAD PUSH3 0x29C9 CODESIZE SUB DUP1 PUSH3 0x29C9 DUP4 CODECOPY DUP2 DUP2 ADD PUSH1 0x40 MSTORE PUSH1 0x40 DUP2 LT ISZERO PUSH3 0x43 JUMPI PUSH1 0x0 DUP1 REVERT JUMPDEST DUP2 ADD SWAP1 DUP1 DUP1 MLOAD SWAP1 PUSH1 0x20 ADD SWAP1 SWAP3 SWAP2 SWAP1 DUP1 MLOAD SWAP1 PUSH1 0x20 ADD SWAP1 SWAP3 SWAP2 SWAP1 POP POP POP PUSH1 0x0 PUSH3 0x70 PUSH3 0x187 PUSH1 0x20 SHL PUSH1 0x20 SHR JUMP JUMPDEST SWAP1 POP DUP1 PUSH1 0x0 DUP1 PUSH2 0x100 EXP DUP2 SLOAD DUP2 PUSH20 0xFFFFFFFFFFFFFFFFFFFFFFFFFFFFFFFFFFFFFFFF MUL NOT AND SWAP1 DUP4 PUSH20 0xFFFFFFFFFFFFFFFFFFFFFFFFFFFFFFFFFFFFFFFF AND MUL OR SWAP1 SSTORE POP DUP1 PUSH20 0xFFFFFFFFFFFFFFFFFFFFFFFFFFFFFFFFFFFFFFFF AND PUSH1 0x0 PUSH20 0xFFFFFFFFFFFFFFFFFFFFFFFFFFFFFFFFFFFFFFFF AND PUSH32 0x8BE0079C531659141344CD1FD0A4F28419497F9722A3DAAFE3B4186F6B6457E0 PUSH1 0x40 MLOAD PUSH1 0x40 MLOAD DUP1 SWAP2 SUB SWAP1 LOG3 POP PUSH1 0x1 DUP1 DUP2 SWAP1 SSTORE POP DUP2 PUSH1 0x2 PUSH1 0x0 PUSH2 0x100 EXP DUP2 SLOAD DUP2 PUSH20 0xFFFFFFFFFFFFFFFFFFFFFFFFFFFFFFFFFFFFFFFF MUL NOT AND SWAP1 DUP4 PUSH20 0xFFFFFFFFFFFFFFFFFFFFFFFFFFFFFFFFFFFFFFFF AND MUL OR SWAP1 SSTORE POP DUP1 PUSH1 0x5 DUP2 SWAP1 SSTORE POP PUSH3 0x179 PUSH2 0x2D0 DUP3 PUSH3 0x18F PUSH1 0x20 SHL PUSH3 0x1930 OR SWAP1 SWAP2 SWAP1 PUSH1 0x20 SHR JUMP JUMPDEST PUSH1 0x4 DUP2 SWAP1 SSTORE POP POP POP PUSH3 0x218 JUMP JUMPDEST PUSH1 0x0 CALLER SWAP1 POP SWAP1 JUMP JUMPDEST PUSH1 0x0 DUP1 DUP3 DUP5 ADD SWAP1 POP DUP4 DUP2 LT ISZERO PUSH3 0x20E JUMPI PUSH1 0x40 MLOAD PUSH32 0x8C379A000000000000000000000000000000000000000000000000000000000 DUP2 MSTORE PUSH1 0x4 ADD DUP1 DUP1 PUSH1 0x20 ADD DUP3 DUP2 SUB DUP3 MSTORE PUSH1 0x1B DUP2 MSTORE PUSH1 0x20 ADD DUP1 PUSH32 0x536166654D6174683A206164646974696F6E206F766572666C6F770000000000 DUP2 MSTORE POP PUSH1 0x20 ADD SWAP2 POP POP PUSH1 0x40 MLOAD DUP1 SWAP2 SUB SWAP1 REVERT JUMPDEST DUP1 SWAP2 POP POP SWAP3 SWAP2 POP POP JUMP JUMPDEST PUSH2 0x27A1 DUP1 PUSH3 0x228 PUSH1 0x0 CODECOPY PUSH1 0x0 RETURN INVALID PUSH1 0x80 PUSH1 0x40 MSTORE CALLVALUE DUP1 ISZERO PUSH2 0x10 JUMPI PUSH1 0x0 DUP1 REVERT JUMPDEST POP PUSH1 0x4 CALLDATASIZE LT PUSH2 0x12C JUMPI PUSH1 0x0 CALLDATALOAD PUSH1 0xE0 SHR DUP1 PUSH4 0x715018A6 GT PUSH2 0xAD JUMPI DUP1 PUSH4 0x9BF62F7E GT PUSH2 0x71 JUMPI DUP1 PUSH4 0x9BF62F7E EQ PUSH2 0x467 JUMPI DUP1 PUSH4 0xC100710D EQ PUSH2 0x4BF JUMPI DUP1 PUSH4 0xCBD258B5 EQ PUSH2 0x521 JUMPI DUP1 PUSH4 0xE2BBB158 EQ PUSH2 0x57B JUMPI DUP1 PUSH4 0xF2FDE38B EQ PUSH2 0x5B3 JUMPI PUSH2 0x12C JUMP JUMPDEST DUP1 PUSH4 0x715018A6 EQ PUSH2 0x34D JUMPI DUP1 PUSH4 0x71811C3F EQ PUSH2 0x357 JUMPI DUP1 PUSH4 0x8DA5CB5B EQ PUSH2 0x377 JUMPI DUP1 PUSH4 0x8DBB1E3A EQ PUSH2 0x3AB JUMPI DUP1 PUSH4 0x93F1A40B EQ PUSH2 0x3F7 JUMPI PUSH2 0x12C JUMP JUMPDEST DUP1 PUSH4 0x51EB05A6 GT PUSH2 0xF4 JUMPI DUP1 PUSH4 0x51EB05A6 EQ PUSH2 0x263 JUMPI DUP1 PUSH4 0x5312EA8E EQ PUSH2 0x291 JUMPI DUP1 PUSH4 0x630B5BA1 EQ PUSH2 0x2BF JUMPI DUP1 PUSH4 0x6621D3BA EQ PUSH2 0x2C9 JUMPI DUP1 PUSH4 0x6E983466 EQ PUSH2 0x2FD JUMPI PUSH2 0x12C JUMP JUMPDEST DUP1 PUSH4 0x81E3EDA EQ PUSH2 0x131 JUMPI DUP1 PUSH4 0x1526FE27 EQ PUSH2 0x14F JUMPI DUP1 PUSH4 0x190F39F0 EQ PUSH2 0x1B5 JUMPI DUP1 PUSH4 0x267C3338 EQ PUSH2 0x20D JUMPI DUP1 PUSH4 0x441A3E70 EQ PUSH2 0x22B JUMPI JUMPDEST PUSH1 0x0 DUP1 REVERT JUMPDEST PUSH2 0x139 PUSH2 0x5F7 JUMP JUMPDEST PUSH1 0x40 MLOAD DUP1 DUP3 DUP2 MSTORE PUSH1 0x20 ADD SWAP2 POP POP PUSH1 0x40 MLOAD DUP1 SWAP2 SUB SWAP1 RETURN JUMPDEST PUSH2 0x17B PUSH1 0x4 DUP1 CALLDATASIZE SUB PUSH1 0x20 DUP2 LT ISZERO PUSH2 0x165 JUMPI PUSH1 0x0 DUP1 REVERT JUMPDEST DUP2 ADD SWAP1 DUP1 DUP1 CALLDATALOAD SWAP1 PUSH1 0x20 ADD SWAP1 SWAP3 SWAP2 SWAP1 POP POP POP PUSH2 0x604 JUMP JUMPDEST PUSH1 0x40 MLOAD DUP1 DUP5 PUSH20 0xFFFFFFFFFFFFFFFFFFFFFFFFFFFFFFFFFFFFFFFF AND DUP2 MSTORE PUSH1 0x20 ADD DUP4 DUP2 MSTORE PUSH1 0x20 ADD DUP3 DUP2 MSTORE PUSH1 0x20 ADD SWAP4 POP POP POP POP PUSH1 0x40 MLOAD DUP1 SWAP2 SUB SWAP1 RETURN JUMPDEST PUSH2 0x1F7 PUSH1 0x4 DUP1 CALLDATASIZE SUB PUSH1 0x20 DUP2 LT ISZERO PUSH2 0x1CB JUMPI PUSH1 0x0 DUP1 REVERT JUMPDEST DUP2 ADD SWAP1 DUP1 DUP1 CALLDATALOAD PUSH20 0xFFFFFFFFFFFFFFFFFFFFFFFFFFFFFFFFFFFFFFFF AND SWAP1 PUSH1 0x20 ADD SWAP1 SWAP3 SWAP2 SWAP1 POP POP POP PUSH2 0x65B JUMP JUMPDEST PUSH1 0x40 MLOAD DUP1 DUP3 DUP2 MSTORE PUSH1 0x20 ADD SWAP2 POP POP PUSH1 0x40 MLOAD DUP1 SWAP2 SUB SWAP1 RETURN JUMPDEST PUSH2 0x215 PUSH2 0x74D JUMP JUMPDEST PUSH1 0x40 MLOAD DUP1 DUP3 DUP2 MSTORE PUSH1 0x20 ADD SWAP2 POP POP PUSH1 0x40 MLOAD DUP1 SWAP2 SUB SWAP1 RETURN JUMPDEST PUSH2 0x261 PUSH1 0x4 DUP1 CALLDATASIZE SUB PUSH1 0x40 DUP2 LT ISZERO PUSH2 0x241 JUMPI PUSH1 0x0 DUP1 REVERT JUMPDEST DUP2 ADD SWAP1 DUP1 DUP1 CALLDATALOAD SWAP1 PUSH1 0x20 ADD SWAP1 SWAP3 SWAP2 SWAP1 DUP1 CALLDATALOAD SWAP1 PUSH1 0x20 ADD SWAP1 SWAP3 SWAP2 SWAP1 POP POP POP PUSH2 0x753 JUMP JUMPDEST STOP JUMPDEST PUSH2 0x28F PUSH1 0x4 DUP1 CALLDATASIZE SUB PUSH1 0x20 DUP2 LT ISZERO PUSH2 0x279 JUMPI PUSH1 0x0 DUP1 REVERT JUMPDEST DUP2 ADD SWAP1 DUP1 DUP1 CALLDATALOAD SWAP1 PUSH1 0x20 ADD SWAP1 SWAP3 SWAP2 SWAP1 POP POP POP PUSH2 0x9E1 JUMP JUMPDEST STOP JUMPDEST PUSH2 0x2BD PUSH1 0x4 DUP1 CALLDATASIZE SUB PUSH1 0x20 DUP2 LT ISZERO PUSH2 0x2A7 JUMPI PUSH1 0x0 DUP1 REVERT JUMPDEST DUP2 ADD SWAP1 DUP1 DUP1 CALLDATALOAD SWAP1 PUSH1 0x20 ADD SWAP1 SWAP3 SWAP2 SWAP1 POP POP POP PUSH2 0xC32 JUMP JUMPDEST STOP JUMPDEST PUSH2 0x2C7 PUSH2 0xDEC JUMP JUMPDEST STOP JUMPDEST PUSH2 0x2D1 PUSH2 0xE19 JUMP JUMPDEST PUSH1 0x40 MLOAD DUP1 DUP3 PUSH20 0xFFFFFFFFFFFFFFFFFFFFFFFFFFFFFFFFFFFFFFFF AND DUP2 MSTORE PUSH1 0x20 ADD SWAP2 POP POP PUSH1 0x40 MLOAD DUP1 SWAP2 SUB SWAP1 RETURN JUMPDEST PUSH2 0x34B PUSH1 0x4 DUP1 CALLDATASIZE SUB PUSH1 0x40 DUP2 LT ISZERO PUSH2 0x313 JUMPI PUSH1 0x0 DUP1 REVERT JUMPDEST DUP2 ADD SWAP1 DUP1 DUP1 CALLDATALOAD PUSH20 0xFFFFFFFFFFFFFFFFFFFFFFFFFFFFFFFFFFFFFFFF AND SWAP1 PUSH1 0x20 ADD SWAP1 SWAP3 SWAP2 SWAP1 DUP1 CALLDATALOAD ISZERO ISZERO SWAP1 PUSH1 0x20 ADD SWAP1 SWAP3 SWAP2 SWAP1 POP POP POP PUSH2 0xE3F JUMP JUMPDEST STOP JUMPDEST PUSH2 0x355 PUSH2 0x1152 JUMP JUMPDEST STOP JUMPDEST PUSH2 0x35F PUSH2 0x12D8 JUMP JUMPDEST PUSH1 0x40 MLOAD DUP1 DUP3 ISZERO ISZERO DUP2 MSTORE PUSH1 0x20 ADD SWAP2 POP POP PUSH1 0x40 MLOAD DUP1 SWAP2 SUB SWAP1 RETURN JUMPDEST PUSH2 0x37F PUSH2 0x12E5 JUMP JUMPDEST PUSH1 0x40 MLOAD DUP1 DUP3 PUSH20 0xFFFFFFFFFFFFFFFFFFFFFFFFFFFFFFFFFFFFFFFF AND DUP2 MSTORE PUSH1 0x20 ADD SWAP2 POP POP PUSH1 0x40 MLOAD DUP1 SWAP2 SUB SWAP1 RETURN JUMPDEST PUSH2 0x3E1 PUSH1 0x4 DUP1 CALLDATASIZE SUB PUSH1 0x40 DUP2 LT ISZERO PUSH2 0x3C1 JUMPI PUSH1 0x0 DUP1 REVERT JUMPDEST DUP2 ADD SWAP1 DUP1 DUP1 CALLDATALOAD SWAP1 PUSH1 0x20 ADD SWAP1 SWAP3 SWAP2 SWAP1 DUP1 CALLDATALOAD SWAP1 PUSH1 0x20 ADD SWAP1 SWAP3 SWAP2 SWAP1 POP POP POP PUSH2 0x130E JUMP JUMPDEST PUSH1 0x40 MLOAD DUP1 DUP3 DUP2 MSTORE PUSH1 0x20 ADD SWAP2 POP POP PUSH1 0x40 MLOAD DUP1 SWAP2 SUB SWAP1 RETURN JUMPDEST PUSH2 0x443 PUSH1 0x4 DUP1 CALLDATASIZE SUB PUSH1 0x40 DUP2 LT ISZERO PUSH2 0x40D JUMPI PUSH1 0x0 DUP1 REVERT JUMPDEST DUP2 ADD SWAP1 DUP1 DUP1 CALLDATALOAD SWAP1 PUSH1 0x20 ADD SWAP1 SWAP3 SWAP2 SWAP1 DUP1 CALLDATALOAD PUSH20 0xFFFFFFFFFFFFFFFFFFFFFFFFFFFFFFFFFFFFFFFF AND SWAP1 PUSH1 0x20 ADD SWAP1 SWAP3 SWAP2 SWAP1 POP POP POP PUSH2 0x132B JUMP JUMPDEST PUSH1 0x40 MLOAD DUP1 DUP5 DUP2 MSTORE PUSH1 0x20 ADD DUP4 DUP2 MSTORE PUSH1 0x20 ADD DUP3 DUP2 MSTORE PUSH1 0x20 ADD SWAP4 POP POP POP POP PUSH1 0x40 MLOAD DUP1 SWAP2 SUB SWAP1 RETURN JUMPDEST PUSH2 0x4A9 PUSH1 0x4 DUP1 CALLDATASIZE SUB PUSH1 0x20 DUP2 LT ISZERO PUSH2 0x47D JUMPI PUSH1 0x0 DUP1 REVERT JUMPDEST DUP2 ADD SWAP1 DUP1 DUP1 CALLDATALOAD PUSH20 0xFFFFFFFFFFFFFFFFFFFFFFFFFFFFFFFFFFFFFFFF AND SWAP1 PUSH1 0x20 ADD SWAP1 SWAP3 SWAP2 SWAP1 POP POP POP PUSH2 0x1362 JUMP JUMPDEST PUSH1 0x40 MLOAD DUP1 DUP3 DUP2 MSTORE PUSH1 0x20 ADD SWAP2 POP POP PUSH1 0x40 MLOAD DUP1 SWAP2 SUB SWAP1 RETURN JUMPDEST PUSH2 0x50B PUSH1 0x4 DUP1 CALLDATASIZE SUB PUSH1 0x40 DUP2 LT ISZERO PUSH2 0x4D5 JUMPI PUSH1 0x0 DUP1 REVERT JUMPDEST DUP2 ADD SWAP1 DUP1 DUP1 CALLDATALOAD SWAP1 PUSH1 0x20 ADD SWAP1 SWAP3 SWAP2 SWAP1 DUP1 CALLDATALOAD PUSH20 0xFFFFFFFFFFFFFFFFFFFFFFFFFFFFFFFFFFFFFFFF AND SWAP1 PUSH1 0x20 ADD SWAP1 SWAP3 SWAP2 SWAP1 POP POP POP PUSH2 0x137A JUMP JUMPDEST PUSH1 0x40 MLOAD DUP1 DUP3 DUP2 MSTORE PUSH1 0x20 ADD SWAP2 POP POP PUSH1 0x40 MLOAD DUP1 SWAP2 SUB SWAP1 RETURN JUMPDEST PUSH2 0x563 PUSH1 0x4 DUP1 CALLDATASIZE SUB PUSH1 0x20 DUP2 LT ISZERO PUSH2 0x537 JUMPI PUSH1 0x0 DUP1 REVERT JUMPDEST DUP2 ADD SWAP1 DUP1 DUP1 CALLDATALOAD PUSH20 0xFFFFFFFFFFFFFFFFFFFFFFFFFFFFFFFFFFFFFFFF AND SWAP1 PUSH1 0x20 ADD SWAP1 SWAP3 SWAP2 SWAP1 POP POP POP PUSH2 0x15BF JUMP JUMPDEST PUSH1 0x40 MLOAD DUP1 DUP3 ISZERO ISZERO DUP2 MSTORE PUSH1 0x20 ADD SWAP2 POP POP PUSH1 0x40 MLOAD DUP1 SWAP2 SUB SWAP1 RETURN JUMPDEST PUSH2 0x5B1 PUSH1 0x4 DUP1 CALLDATASIZE SUB PUSH1 0x40 DUP2 LT ISZERO PUSH2 0x591 JUMPI PUSH1 0x0 DUP1 REVERT JUMPDEST DUP2 ADD SWAP1 DUP1 DUP1 CALLDATALOAD SWAP1 PUSH1 0x20 ADD SWAP1 SWAP3 SWAP2 SWAP1 DUP1 CALLDATALOAD SWAP1 PUSH1 0x20 ADD SWAP1 SWAP3 SWAP2 SWAP1 POP POP POP PUSH2 0x15DF JUMP JUMPDEST STOP JUMPDEST PUSH2 0x5F5 PUSH1 0x4 DUP1 CALLDATASIZE SUB PUSH1 0x20 DUP2 LT ISZERO PUSH2 0x5C9 JUMPI PUSH1 0x0 DUP1 REVERT JUMPDEST DUP2 ADD SWAP1 DUP1 DUP1 CALLDATALOAD PUSH20 0xFFFFFFFFFFFFFFFFFFFFFFFFFFFFFFFFFFFFFFFF AND SWAP1 PUSH1 0x20 ADD SWAP1 SWAP3 SWAP2 SWAP1 POP POP POP PUSH2 0x185C JUMP JUMPDEST STOP JUMPDEST PUSH1 0x0 PUSH1 0x6 DUP1 SLOAD SWAP1 POP SWAP1 POP SWAP1 JUMP JUMPDEST PUSH1 0x6 DUP2 DUP2 SLOAD DUP2 LT PUSH2 0x611 JUMPI INVALID JUMPDEST SWAP1 PUSH1 0x0 MSTORE PUSH1 0x20 PUSH1 0x0 KECCAK256 SWAP1 PUSH1 0x3 MUL ADD PUSH1 0x0 SWAP2 POP SWAP1 POP DUP1 PUSH1 0x0 ADD PUSH1 0x0 SWAP1 SLOAD SWAP1 PUSH2 0x100 EXP SWAP1 DIV PUSH20 0xFFFFFFFFFFFFFFFFFFFFFFFFFFFFFFFFFFFFFFFF AND SWAP1 DUP1 PUSH1 0x1 ADD SLOAD SWAP1 DUP1 PUSH1 0x2 ADD SLOAD SWAP1 POP DUP4 JUMP JUMPDEST PUSH1 0x0 DUP1 ISZERO ISZERO PUSH1 0x8 PUSH1 0x0 DUP5 PUSH20 0xFFFFFFFFFFFFFFFFFFFFFFFFFFFFFFFFFFFFFFFF AND PUSH20 0xFFFFFFFFFFFFFFFFFFFFFFFFFFFFFFFFFFFFFFFF AND DUP2 MSTORE PUSH1 0x20 ADD SWAP1 DUP2 MSTORE PUSH1 0x20 ADD PUSH1 0x0 KECCAK256 PUSH1 0x0 SWAP1 SLOAD SWAP1 PUSH2 0x100 EXP SWAP1 DIV PUSH1 0xFF AND ISZERO ISZERO EQ ISZERO PUSH2 0x706 JUMPI PUSH1 0x40 MLOAD PUSH32 0x8C379A000000000000000000000000000000000000000000000000000000000 DUP2 MSTORE PUSH1 0x4 ADD DUP1 DUP1 PUSH1 0x20 ADD DUP3 DUP2 SUB DUP3 MSTORE PUSH1 0x21 DUP2 MSTORE PUSH1 0x20 ADD DUP1 PUSH2 0x272A PUSH1 0x21 SWAP2 CODECOPY PUSH1 0x40 ADD SWAP2 POP POP PUSH1 0x40 MLOAD DUP1 SWAP2 SUB SWAP1 REVERT JUMPDEST PUSH1 0x9 PUSH1 0x0 DUP4 PUSH20 0xFFFFFFFFFFFFFFFFFFFFFFFFFFFFFFFFFFFFFFFF AND PUSH20 0xFFFFFFFFFFFFFFFFFFFFFFFFFFFFFFFFFFFFFFFF AND DUP2 MSTORE PUSH1 0x20 ADD SWAP1 DUP2 MSTORE PUSH1 0x20 ADD PUSH1 0x0 KECCAK256 SLOAD SWAP1 POP SWAP2 SWAP1 POP JUMP JUMPDEST PUSH1 0x3 SLOAD DUP2 JUMP JUMPDEST PUSH1 0x2 PUSH1 0x1 SLOAD EQ ISZERO PUSH2 0x7CC JUMPI PUSH1 0x40 MLOAD PUSH32 0x8C379A000000000000000000000000000000000000000000000000000000000 DUP2 MSTORE PUSH1 0x4 ADD DUP1 DUP1 PUSH1 0x20 ADD DUP3 DUP2 SUB DUP3 MSTORE PUSH1 0x1F DUP2 MSTORE PUSH1 0x20 ADD DUP1 PUSH32 0x5265656E7472616E637947756172643A207265656E7472616E742063616C6C00 DUP2 MSTORE POP PUSH1 0x20 ADD SWAP2 POP POP PUSH1 0x40 MLOAD DUP1 SWAP2 SUB SWAP1 REVERT JUMPDEST PUSH1 0x2 PUSH1 0x1 DUP2 SWAP1 SSTORE POP PUSH1 0x0 PUSH1 0x6 DUP4 DUP2 SLOAD DUP2 LT PUSH2 0x7E3 JUMPI INVALID JUMPDEST SWAP1 PUSH1 0x0 MSTORE PUSH1 0x20 PUSH1 0x0 KECCAK256 SWAP1 PUSH1 0x3 MUL ADD SWAP1 POP PUSH1 0x0 PUSH1 0x7 PUSH1 0x0 DUP6 DUP2 MSTORE PUSH1 0x20 ADD SWAP1 DUP2 MSTORE PUSH1 0x20 ADD PUSH1 0x0 KECCAK256 PUSH1 0x0 CALLER PUSH20 0xFFFFFFFFFFFFFFFFFFFFFFFFFFFFFFFFFFFFFFFF AND PUSH20 0xFFFFFFFFFFFFFFFFFFFFFFFFFFFFFFFFFFFFFFFF AND DUP2 MSTORE PUSH1 0x20 ADD SWAP1 DUP2 MSTORE PUSH1 0x20 ADD PUSH1 0x0 KECCAK256 SWAP1 POP DUP3 DUP2 PUSH1 0x0 ADD SLOAD LT ISZERO PUSH2 0x8C1 JUMPI PUSH1 0x40 MLOAD PUSH32 0x8C379A000000000000000000000000000000000000000000000000000000000 DUP2 MSTORE PUSH1 0x4 ADD DUP1 DUP1 PUSH1 0x20 ADD DUP3 DUP2 SUB DUP3 MSTORE PUSH1 0x12 DUP2 MSTORE PUSH1 0x20 ADD DUP1 PUSH32 0x77697468647261773A206E6F7420676F6F640000000000000000000000000000 DUP2 MSTORE POP PUSH1 0x20 ADD SWAP2 POP POP PUSH1 0x40 MLOAD DUP1 SWAP2 SUB SWAP1 REVERT JUMPDEST PUSH2 0x8CA DUP5 PUSH2 0x9E1 JUMP JUMPDEST PUSH2 0x8D3 DUP5 PUSH2 0x19B8 JUMP JUMPDEST PUSH1 0x0 DUP4 GT ISZERO PUSH2 0x94B JUMPI PUSH2 0x8F3 DUP4 DUP3 PUSH1 0x0 ADD SLOAD PUSH2 0x1B02 SWAP1 SWAP2 SWAP1 PUSH4 0xFFFFFFFF AND JUMP JUMPDEST DUP2 PUSH1 0x0 ADD DUP2 SWAP1 SSTORE POP PUSH2 0x94A CALLER DUP5 DUP5 PUSH1 0x0 ADD PUSH1 0x0 SWAP1 SLOAD SWAP1 PUSH2 0x100 EXP SWAP1 DIV PUSH20 0xFFFFFFFFFFFFFFFFFFFFFFFFFFFFFFFFFFFFFFFF AND PUSH20 0xFFFFFFFFFFFFFFFFFFFFFFFFFFFFFFFFFFFFFFFF AND PUSH2 0x1B4C SWAP1 SWAP3 SWAP2 SWAP1 PUSH4 0xFFFFFFFF AND JUMP JUMPDEST JUMPDEST PUSH2 0x97D PUSH5 0xE8D4A51000 PUSH2 0x96F DUP5 PUSH1 0x2 ADD SLOAD DUP5 PUSH1 0x0 ADD SLOAD PUSH2 0x1BEE SWAP1 SWAP2 SWAP1 PUSH4 0xFFFFFFFF AND JUMP JUMPDEST PUSH2 0x1C74 SWAP1 SWAP2 SWAP1 PUSH4 0xFFFFFFFF AND JUMP JUMPDEST DUP2 PUSH1 0x1 ADD DUP2 SWAP1 SSTORE POP DUP4 CALLER PUSH20 0xFFFFFFFFFFFFFFFFFFFFFFFFFFFFFFFFFFFFFFFF AND PUSH32 0xF279E6A1F5E320CCA91135676D9CB6E44CA8A08C0B88342BCDB1144F6511B568 DUP6 PUSH1 0x40 MLOAD DUP1 DUP3 DUP2 MSTORE PUSH1 0x20 ADD SWAP2 POP POP PUSH1 0x40 MLOAD DUP1 SWAP2 SUB SWAP1 LOG3 POP POP PUSH1 0x1 DUP1 DUP2 SWAP1 SSTORE POP POP POP JUMP JUMPDEST PUSH1 0x0 PUSH1 0x6 DUP3 DUP2 SLOAD DUP2 LT PUSH2 0x9F0 JUMPI INVALID JUMPDEST SWAP1 PUSH1 0x0 MSTORE PUSH1 0x20 PUSH1 0x0 KECCAK256 SWAP1 PUSH1 0x3 MUL ADD SWAP1 POP PUSH1 0x0 PUSH2 0xA0A PUSH2 0x1CBE JUMP JUMPDEST SWAP1 POP DUP2 PUSH1 0x1 ADD SLOAD DUP2 GT PUSH2 0xA1E JUMPI POP POP PUSH2 0xC2F JUMP JUMPDEST PUSH1 0x0 DUP3 PUSH1 0x0 ADD PUSH1 0x0 SWAP1 SLOAD SWAP1 PUSH2 0x100 EXP SWAP1 DIV PUSH20 0xFFFFFFFFFFFFFFFFFFFFFFFFFFFFFFFFFFFFFFFF AND PUSH20 0xFFFFFFFFFFFFFFFFFFFFFFFFFFFFFFFFFFFFFFFF AND PUSH4 0x70A08231 ADDRESS PUSH1 0x40 MLOAD DUP3 PUSH4 0xFFFFFFFF AND PUSH1 0xE0 SHL DUP2 MSTORE PUSH1 0x4 ADD DUP1 DUP3 PUSH20 0xFFFFFFFFFFFFFFFFFFFFFFFFFFFFFFFFFFFFFFFF AND DUP2 MSTORE PUSH1 0x20 ADD SWAP2 POP POP PUSH1 0x20 PUSH1 0x40 MLOAD DUP1 DUP4 SUB DUP2 DUP7 DUP1 EXTCODESIZE ISZERO DUP1 ISZERO PUSH2 0xAAB JUMPI PUSH1 0x0 DUP1 REVERT JUMPDEST POP GAS STATICCALL ISZERO DUP1 ISZERO PUSH2 0xABF JUMPI RETURNDATASIZE PUSH1 0x0 DUP1 RETURNDATACOPY RETURNDATASIZE PUSH1 0x0 REVERT JUMPDEST POP POP POP POP PUSH1 0x40 MLOAD RETURNDATASIZE PUSH1 0x20 DUP2 LT ISZERO PUSH2 0xAD5 JUMPI PUSH1 0x0 DUP1 REVERT JUMPDEST DUP2 ADD SWAP1 DUP1 DUP1 MLOAD SWAP1 PUSH1 0x20 ADD SWAP1 SWAP3 SWAP2 SWAP1 POP POP POP SWAP1 POP PUSH1 0x0 DUP2 EQ ISZERO PUSH2 0xB02 JUMPI DUP2 DUP4 PUSH1 0x1 ADD DUP2 SWAP1 SSTORE POP POP POP POP PUSH2 0xC2F JUMP JUMPDEST PUSH1 0x0 PUSH2 0xB12 DUP5 PUSH1 0x1 ADD SLOAD DUP5 PUSH2 0x130E JUMP JUMPDEST SWAP1 POP PUSH1 0x0 PUSH2 0xB2B PUSH1 0x3 SLOAD DUP4 PUSH2 0x1BEE SWAP1 SWAP2 SWAP1 PUSH4 0xFFFFFFFF AND JUMP JUMPDEST SWAP1 POP PUSH1 0x2 PUSH1 0x0 SWAP1 SLOAD SWAP1 PUSH2 0x100 EXP SWAP1 DIV PUSH20 0xFFFFFFFFFFFFFFFFFFFFFFFFFFFFFFFFFFFFFFFF AND PUSH20 0xFFFFFFFFFFFFFFFFFFFFFFFFFFFFFFFFFFFFFFFF AND PUSH4 0x40C10F19 ADDRESS DUP4 PUSH1 0x40 MLOAD DUP4 PUSH4 0xFFFFFFFF AND PUSH1 0xE0 SHL DUP2 MSTORE PUSH1 0x4 ADD DUP1 DUP4 PUSH20 0xFFFFFFFFFFFFFFFFFFFFFFFFFFFFFFFFFFFFFFFF AND DUP2 MSTORE PUSH1 0x20 ADD DUP3 DUP2 MSTORE PUSH1 0x20 ADD SWAP3 POP POP POP PUSH1 0x0 PUSH1 0x40 MLOAD DUP1 DUP4 SUB DUP2 PUSH1 0x0 DUP8 DUP1 EXTCODESIZE ISZERO DUP1 ISZERO PUSH2 0xBC0 JUMPI PUSH1 0x0 DUP1 REVERT JUMPDEST POP GAS CALL ISZERO DUP1 ISZERO PUSH2 0xBD4 JUMPI RETURNDATASIZE PUSH1 0x0 DUP1 RETURNDATACOPY RETURNDATASIZE PUSH1 0x0 REVERT JUMPDEST POP POP POP POP PUSH2 0xC18 PUSH2 0xC05 DUP5 PUSH2 0xBF7 PUSH5 0xE8D4A51000 DUP6 PUSH2 0x1BEE SWAP1 SWAP2 SWAP1 PUSH4 0xFFFFFFFF AND JUMP JUMPDEST PUSH2 0x1C74 SWAP1 SWAP2 SWAP1 PUSH4 0xFFFFFFFF AND JUMP JUMPDEST DUP7 PUSH1 0x2 ADD SLOAD PUSH2 0x1930 SWAP1 SWAP2 SWAP1 PUSH4 0xFFFFFFFF AND JUMP JUMPDEST DUP6 PUSH1 0x2 ADD DUP2 SWAP1 SSTORE POP DUP4 DUP6 PUSH1 0x1 ADD DUP2 SWAP1 SSTORE POP POP POP POP POP POP JUMPDEST POP JUMP JUMPDEST PUSH1 0x2 PUSH1 0x1 SLOAD EQ ISZERO PUSH2 0xCAB JUMPI PUSH1 0x40 MLOAD PUSH32 0x8C379A000000000000000000000000000000000000000000000000000000000 DUP2 MSTORE PUSH1 0x4 ADD DUP1 DUP1 PUSH1 0x20 ADD DUP3 DUP2 SUB DUP3 MSTORE PUSH1 0x1F DUP2 MSTORE PUSH1 0x20 ADD DUP1 PUSH32 0x5265656E7472616E637947756172643A207265656E7472616E742063616C6C00 DUP2 MSTORE POP PUSH1 0x20 ADD SWAP2 POP POP PUSH1 0x40 MLOAD DUP1 SWAP2 SUB SWAP1 REVERT JUMPDEST PUSH1 0x2 PUSH1 0x1 DUP2 SWAP1 SSTORE POP PUSH1 0x0 PUSH1 0x6 DUP3 DUP2 SLOAD DUP2 LT PUSH2 0xCC2 JUMPI INVALID JUMPDEST SWAP1 PUSH1 0x0 MSTORE PUSH1 0x20 PUSH1 0x0 KECCAK256 SWAP1 PUSH1 0x3 MUL ADD SWAP1 POP PUSH1 0x0 PUSH1 0x7 PUSH1 0x0 DUP5 DUP2 MSTORE PUSH1 0x20 ADD SWAP1 DUP2 MSTORE PUSH1 0x20 ADD PUSH1 0x0 KECCAK256 PUSH1 0x0 CALLER PUSH20 0xFFFFFFFFFFFFFFFFFFFFFFFFFFFFFFFFFFFFFFFF AND PUSH20 0xFFFFFFFFFFFFFFFFFFFFFFFFFFFFFFFFFFFFFFFF AND DUP2 MSTORE PUSH1 0x20 ADD SWAP1 DUP2 MSTORE PUSH1 0x20 ADD PUSH1 0x0 KECCAK256 SWAP1 POP PUSH2 0xD79 CALLER DUP3 PUSH1 0x0 ADD SLOAD DUP5 PUSH1 0x0 ADD PUSH1 0x0 SWAP1 SLOAD SWAP1 PUSH2 0x100 EXP SWAP1 DIV PUSH20 0xFFFFFFFFFFFFFFFFFFFFFFFFFFFFFFFFFFFFFFFF AND PUSH20 0xFFFFFFFFFFFFFFFFFFFFFFFFFFFFFFFFFFFFFFFF AND PUSH2 0x1B4C SWAP1 SWAP3 SWAP2 SWAP1 PUSH4 0xFFFFFFFF AND JUMP JUMPDEST DUP3 CALLER PUSH20 0xFFFFFFFFFFFFFFFFFFFFFFFFFFFFFFFFFFFFFFFF AND PUSH32 0xBB757047C2B5F3974FE26B7C10F732E7BCE710B0952A71082702781E62AE0595 DUP4 PUSH1 0x0 ADD SLOAD PUSH1 0x40 MLOAD DUP1 DUP3 DUP2 MSTORE PUSH1 0x20 ADD SWAP2 POP POP PUSH1 0x40 MLOAD DUP1 SWAP2 SUB SWAP1 LOG3 PUSH1 0x0 DUP2 PUSH1 0x0 ADD DUP2 SWAP1 SSTORE POP PUSH1 0x0 DUP2 PUSH1 0x1 ADD DUP2 SWAP1 SSTORE POP POP POP PUSH1 0x1 DUP1 DUP2 SWAP1 SSTORE POP POP JUMP JUMPDEST PUSH1 0x0 PUSH1 0x6 DUP1 SLOAD SWAP1 POP SWAP1 POP PUSH1 0x0 JUMPDEST DUP2 DUP2 LT ISZERO PUSH2 0xE15 JUMPI PUSH2 0xE0A DUP2 PUSH2 0x9E1 JUMP JUMPDEST DUP1 PUSH1 0x1 ADD SWAP1 POP PUSH2 0xDF9 JUMP JUMPDEST POP POP JUMP JUMPDEST PUSH1 0x2 PUSH1 0x0 SWAP1 SLOAD SWAP1 PUSH2 0x100 EXP SWAP1 DIV PUSH20 0xFFFFFFFFFFFFFFFFFFFFFFFFFFFFFFFFFFFFFFFF AND DUP2 JUMP JUMPDEST PUSH2 0xE47 PUSH2 0x1CD8 JUMP JUMPDEST PUSH20 0xFFFFFFFFFFFFFFFFFFFFFFFFFFFFFFFFFFFFFFFF AND PUSH1 0x0 DUP1 SLOAD SWAP1 PUSH2 0x100 EXP SWAP1 DIV PUSH20 0xFFFFFFFFFFFFFFFFFFFFFFFFFFFFFFFFFFFFFFFF AND PUSH20 0xFFFFFFFFFFFFFFFFFFFFFFFFFFFFFFFFFFFFFFFF AND EQ PUSH2 0xF07 JUMPI PUSH1 0x40 MLOAD PUSH32 0x8C379A000000000000000000000000000000000000000000000000000000000 DUP2 MSTORE PUSH1 0x4 ADD DUP1 DUP1 PUSH1 0x20 ADD DUP3 DUP2 SUB DUP3 MSTORE PUSH1 0x20 DUP2 MSTORE PUSH1 0x20 ADD DUP1 PUSH32 0x4F776E61626C653A2063616C6C6572206973206E6F7420746865206F776E6572 DUP2 MSTORE POP PUSH1 0x20 ADD SWAP2 POP POP PUSH1 0x40 MLOAD DUP1 SWAP2 SUB SWAP1 REVERT JUMPDEST DUP2 PUSH1 0x0 ISZERO ISZERO PUSH1 0x8 PUSH1 0x0 DUP4 PUSH20 0xFFFFFFFFFFFFFFFFFFFFFFFFFFFFFFFFFFFFFFFF AND PUSH20 0xFFFFFFFFFFFFFFFFFFFFFFFFFFFFFFFFFFFFFFFF AND DUP2 MSTORE PUSH1 0x20 ADD SWAP1 DUP2 MSTORE PUSH1 0x20 ADD PUSH1 0x0 KECCAK256 PUSH1 0x0 SWAP1 SLOAD SWAP1 PUSH2 0x100 EXP SWAP1 DIV PUSH1 0xFF AND ISZERO ISZERO EQ PUSH2 0xFCE JUMPI PUSH1 0x40 MLOAD PUSH32 0x8C379A000000000000000000000000000000000000000000000000000000000 DUP2 MSTORE PUSH1 0x4 ADD DUP1 DUP1 PUSH1 0x20 ADD DUP3 DUP2 SUB DUP3 MSTORE PUSH1 0x19 DUP2 MSTORE PUSH1 0x20 ADD DUP1 PUSH32 0x6E6F6E4475706C6963617465643A206475706C69636174656400000000000000 DUP2 MSTORE POP PUSH1 0x20 ADD SWAP2 POP POP PUSH1 0x40 MLOAD DUP1 SWAP2 SUB SWAP1 REVERT JUMPDEST DUP2 ISZERO PUSH2 0xFDD JUMPI PUSH2 0xFDC PUSH2 0xDEC JUMP JUMPDEST JUMPDEST PUSH1 0x1 PUSH1 0x8 PUSH1 0x0 DUP6 PUSH20 0xFFFFFFFFFFFFFFFFFFFFFFFFFFFFFFFFFFFFFFFF AND PUSH20 0xFFFFFFFFFFFFFFFFFFFFFFFFFFFFFFFFFFFFFFFF AND DUP2 MSTORE PUSH1 0x20 ADD SWAP1 DUP2 MSTORE PUSH1 0x20 ADD PUSH1 0x0 KECCAK256 PUSH1 0x0 PUSH2 0x100 EXP DUP2 SLOAD DUP2 PUSH1 0xFF MUL NOT AND SWAP1 DUP4 ISZERO ISZERO MUL OR SWAP1 SSTORE POP PUSH1 0x6 PUSH1 0x40 MLOAD DUP1 PUSH1 0x60 ADD PUSH1 0x40 MSTORE DUP1 DUP6 PUSH20 0xFFFFFFFFFFFFFFFFFFFFFFFFFFFFFFFFFFFFFFFF AND DUP2 MSTORE PUSH1 0x20 ADD PUSH1 0x5 SLOAD NUMBER GT PUSH2 0x106F JUMPI PUSH1 0x5 SLOAD PUSH2 0x1071 JUMP JUMPDEST NUMBER JUMPDEST DUP2 MSTORE PUSH1 0x20 ADD PUSH1 0x0 DUP2 MSTORE POP SWAP1 DUP1 PUSH1 0x1 DUP2 SLOAD ADD DUP1 DUP3 SSTORE DUP1 SWAP2 POP POP PUSH1 0x1 SWAP1 SUB SWAP1 PUSH1 0x0 MSTORE PUSH1 0x20 PUSH1 0x0 KECCAK256 SWAP1 PUSH1 0x3 MUL ADD PUSH1 0x0 SWAP1 SWAP2 SWAP1 SWAP2 SWAP1 SWAP2 POP PUSH1 0x0 DUP3 ADD MLOAD DUP2 PUSH1 0x0 ADD PUSH1 0x0 PUSH2 0x100 EXP DUP2 SLOAD DUP2 PUSH20 0xFFFFFFFFFFFFFFFFFFFFFFFFFFFFFFFFFFFFFFFF MUL NOT AND SWAP1 DUP4 PUSH20 0xFFFFFFFFFFFFFFFFFFFFFFFFFFFFFFFFFFFFFFFF AND MUL OR SWAP1 SSTORE POP PUSH1 0x20 DUP3 ADD MLOAD DUP2 PUSH1 0x1 ADD SSTORE PUSH1 0x40 DUP3 ADD MLOAD DUP2 PUSH1 0x2 ADD SSTORE POP POP PUSH1 0x1 PUSH1 0x6 DUP1 SLOAD SWAP1 POP SUB PUSH1 0x9 PUSH1 0x0 DUP6 PUSH20 0xFFFFFFFFFFFFFFFFFFFFFFFFFFFFFFFFFFFFFFFF AND PUSH20 0xFFFFFFFFFFFFFFFFFFFFFFFFFFFFFFFFFFFFFFFF AND DUP2 MSTORE PUSH1 0x20 ADD SWAP1 DUP2 MSTORE PUSH1 0x20 ADD PUSH1 0x0 KECCAK256 DUP2 SWAP1 SSTORE POP POP POP POP JUMP JUMPDEST PUSH2 0x115A PUSH2 0x1CD8 JUMP JUMPDEST PUSH20 0xFFFFFFFFFFFFFFFFFFFFFFFFFFFFFFFFFFFFFFFF AND PUSH1 0x0 DUP1 SLOAD SWAP1 PUSH2 0x100 EXP SWAP1 DIV PUSH20 0xFFFFFFFFFFFFFFFFFFFFFFFFFFFFFFFFFFFFFFFF AND PUSH20 0xFFFFFFFFFFFFFFFFFFFFFFFFFFFFFFFFFFFFFFFF AND EQ PUSH2 0x121A JUMPI PUSH1 0x40 MLOAD PUSH32 0x8C379A000000000000000000000000000000000000000000000000000000000 DUP2 MSTORE PUSH1 0x4 ADD DUP1 DUP1 PUSH1 0x20 ADD DUP3 DUP2 SUB DUP3 MSTORE PUSH1 0x20 DUP2 MSTORE PUSH1 0x20 ADD DUP1 PUSH32 0x4F776E61626C653A2063616C6C6572206973206E6F7420746865206F776E6572 DUP2 MSTORE POP PUSH1 0x20 ADD SWAP2 POP POP PUSH1 0x40 MLOAD DUP1 SWAP2 SUB SWAP1 REVERT JUMPDEST PUSH1 0x0 PUSH20 0xFFFFFFFFFFFFFFFFFFFFFFFFFFFFFFFFFFFFFFFF AND PUSH1 0x0 DUP1 SLOAD SWAP1 PUSH2 0x100 EXP SWAP1 DIV PUSH20 0xFFFFFFFFFFFFFFFFFFFFFFFFFFFFFFFFFFFFFFFF AND PUSH20 0xFFFFFFFFFFFFFFFFFFFFFFFFFFFFFFFFFFFFFFFF AND PUSH32 0x8BE0079C531659141344CD1FD0A4F28419497F9722A3DAAFE3B4186F6B6457E0 PUSH1 0x40 MLOAD PUSH1 0x40 MLOAD DUP1 SWAP2 SUB SWAP1 LOG3 PUSH1 0x0 DUP1 PUSH1 0x0 PUSH2 0x100 EXP DUP2 SLOAD DUP2 PUSH20 0xFFFFFFFFFFFFFFFFFFFFFFFFFFFFFFFFFFFFFFFF MUL NOT AND SWAP1 DUP4 PUSH20 0xFFFFFFFFFFFFFFFFFFFFFFFFFFFFFFFFFFFFFFFF AND MUL OR SWAP1 SSTORE POP JUMP JUMPDEST PUSH1 0x0 PUSH1 0x5 SLOAD NUMBER LT ISZERO SWAP1 POP SWAP1 JUMP JUMPDEST PUSH1 0x0 DUP1 PUSH1 0x0 SWAP1 SLOAD SWAP1 PUSH2 0x100 EXP SWAP1 DIV PUSH20 0xFFFFFFFFFFFFFFFFFFFFFFFFFFFFFFFFFFFFFFFF AND SWAP1 POP SWAP1 JUMP JUMPDEST PUSH1 0x0 PUSH2 0x1323 DUP4 DUP4 PUSH2 0x1B02 SWAP1 SWAP2 SWAP1 PUSH4 0xFFFFFFFF AND JUMP JUMPDEST SWAP1 POP SWAP3 SWAP2 POP POP JUMP JUMPDEST PUSH1 0x7 PUSH1 0x20 MSTORE DUP2 PUSH1 0x0 MSTORE PUSH1 0x40 PUSH1 0x0 KECCAK256 PUSH1 0x20 MSTORE DUP1 PUSH1 0x0 MSTORE PUSH1 0x40 PUSH1 0x0 KECCAK256 PUSH1 0x0 SWAP2 POP SWAP2 POP POP DUP1 PUSH1 0x0 ADD SLOAD SWAP1 DUP1 PUSH1 0x1 ADD SLOAD SWAP1 DUP1 PUSH1 0x2 ADD SLOAD SWAP1 POP DUP4 JUMP JUMPDEST PUSH1 0x9 PUSH1 0x20 MSTORE DUP1 PUSH1 0x0 MSTORE PUSH1 0x40 PUSH1 0x0 KECCAK256 PUSH1 0x0 SWAP2 POP SWAP1 POP SLOAD DUP2 JUMP JUMPDEST PUSH1 0x0 DUP1 PUSH1 0x6 DUP5 DUP2 SLOAD DUP2 LT PUSH2 0x138A JUMPI INVALID JUMPDEST SWAP1 PUSH1 0x0 MSTORE PUSH1 0x20 PUSH1 0x0 KECCAK256 SWAP1 PUSH1 0x3 MUL ADD SWAP1 POP PUSH1 0x0 PUSH1 0x7 PUSH1 0x0 DUP7 DUP2 MSTORE PUSH1 0x20 ADD SWAP1 DUP2 MSTORE PUSH1 0x20 ADD PUSH1 0x0 KECCAK256 PUSH1 0x0 DUP6 PUSH20 0xFFFFFFFFFFFFFFFFFFFFFFFFFFFFFFFFFFFFFFFF AND PUSH20 0xFFFFFFFFFFFFFFFFFFFFFFFFFFFFFFFFFFFFFFFF AND DUP2 MSTORE PUSH1 0x20 ADD SWAP1 DUP2 MSTORE PUSH1 0x20 ADD PUSH1 0x0 KECCAK256 SWAP1 POP PUSH1 0x0 DUP3 PUSH1 0x2 ADD SLOAD SWAP1 POP PUSH1 0x0 DUP4 PUSH1 0x0 ADD PUSH1 0x0 SWAP1 SLOAD SWAP1 PUSH2 0x100 EXP SWAP1 DIV PUSH20 0xFFFFFFFFFFFFFFFFFFFFFFFFFFFFFFFFFFFFFFFF AND PUSH20 0xFFFFFFFFFFFFFFFFFFFFFFFFFFFFFFFFFFFFFFFF AND PUSH4 0x70A08231 ADDRESS PUSH1 0x40 MLOAD DUP3 PUSH4 0xFFFFFFFF AND PUSH1 0xE0 SHL DUP2 MSTORE PUSH1 0x4 ADD DUP1 DUP3 PUSH20 0xFFFFFFFFFFFFFFFFFFFFFFFFFFFFFFFFFFFFFFFF AND DUP2 MSTORE PUSH1 0x20 ADD SWAP2 POP POP PUSH1 0x20 PUSH1 0x40 MLOAD DUP1 DUP4 SUB DUP2 DUP7 DUP1 EXTCODESIZE ISZERO DUP1 ISZERO PUSH2 0x1484 JUMPI PUSH1 0x0 DUP1 REVERT JUMPDEST POP GAS STATICCALL ISZERO DUP1 ISZERO PUSH2 0x1498 JUMPI RETURNDATASIZE PUSH1 0x0 DUP1 RETURNDATACOPY RETURNDATASIZE PUSH1 0x0 REVERT JUMPDEST POP POP POP POP PUSH1 0x40 MLOAD RETURNDATASIZE PUSH1 0x20 DUP2 LT ISZERO PUSH2 0x14AE JUMPI PUSH1 0x0 DUP1 REVERT JUMPDEST DUP2 ADD SWAP1 DUP1 DUP1 MLOAD SWAP1 PUSH1 0x20 ADD SWAP1 SWAP3 SWAP2 SWAP1 POP POP POP SWAP1 POP PUSH1 0x0 PUSH2 0x14CB PUSH2 0x1CBE JUMP JUMPDEST SWAP1 POP DUP5 PUSH1 0x1 ADD SLOAD DUP2 GT DUP1 ISZERO PUSH2 0x14E1 JUMPI POP PUSH1 0x0 DUP3 EQ ISZERO JUMPDEST ISZERO PUSH2 0x1552 JUMPI PUSH1 0x0 PUSH2 0x14F6 DUP7 PUSH1 0x1 ADD SLOAD DUP4 PUSH2 0x130E JUMP JUMPDEST SWAP1 POP PUSH1 0x0 PUSH2 0x150F PUSH1 0x3 SLOAD DUP4 PUSH2 0x1BEE SWAP1 SWAP2 SWAP1 PUSH4 0xFFFFFFFF AND JUMP JUMPDEST SWAP1 POP PUSH2 0x154D PUSH2 0x153E DUP6 PUSH2 0x1530 PUSH5 0xE8D4A51000 DUP6 PUSH2 0x1BEE SWAP1 SWAP2 SWAP1 PUSH4 0xFFFFFFFF AND JUMP JUMPDEST PUSH2 0x1C74 SWAP1 SWAP2 SWAP1 PUSH4 0xFFFFFFFF AND JUMP JUMPDEST DUP7 PUSH2 0x1930 SWAP1 SWAP2 SWAP1 PUSH4 0xFFFFFFFF AND JUMP JUMPDEST SWAP5 POP POP POP JUMPDEST PUSH1 0x0 PUSH2 0x1598 DUP6 PUSH1 0x1 ADD SLOAD PUSH2 0x158A PUSH5 0xE8D4A51000 PUSH2 0x157C DUP9 DUP11 PUSH1 0x0 ADD SLOAD PUSH2 0x1BEE SWAP1 SWAP2 SWAP1 PUSH4 0xFFFFFFFF AND JUMP JUMPDEST PUSH2 0x1C74 SWAP1 SWAP2 SWAP1 PUSH4 0xFFFFFFFF AND JUMP JUMPDEST PUSH2 0x1B02 SWAP1 SWAP2 SWAP1 PUSH4 0xFFFFFFFF AND JUMP JUMPDEST SWAP1 POP PUSH2 0x15B1 DUP6 PUSH1 0x2 ADD SLOAD DUP3 PUSH2 0x1930 SWAP1 SWAP2 SWAP1 PUSH4 0xFFFFFFFF AND JUMP JUMPDEST SWAP7 POP POP POP POP POP POP POP SWAP3 SWAP2 POP POP JUMP JUMPDEST PUSH1 0x8 PUSH1 0x20 MSTORE DUP1 PUSH1 0x0 MSTORE PUSH1 0x40 PUSH1 0x0 KECCAK256 PUSH1 0x0 SWAP2 POP SLOAD SWAP1 PUSH2 0x100 EXP SWAP1 DIV PUSH1 0xFF AND DUP2 JUMP JUMPDEST PUSH1 0x2 PUSH1 0x1 SLOAD EQ ISZERO PUSH2 0x1658 JUMPI PUSH1 0x40 MLOAD PUSH32 0x8C379A000000000000000000000000000000000000000000000000000000000 DUP2 MSTORE PUSH1 0x4 ADD DUP1 DUP1 PUSH1 0x20 ADD DUP3 DUP2 SUB DUP3 MSTORE PUSH1 0x1F DUP2 MSTORE PUSH1 0x20 ADD DUP1 PUSH32 0x5265656E7472616E637947756172643A207265656E7472616E742063616C6C00 DUP2 MSTORE POP PUSH1 0x20 ADD SWAP2 POP POP PUSH1 0x40 MLOAD DUP1 SWAP2 SUB SWAP1 REVERT JUMPDEST PUSH1 0x2 PUSH1 0x1 DUP2 SWAP1 SSTORE POP PUSH1 0x0 PUSH1 0x4 SLOAD GT ISZERO PUSH2 0x16C7 JUMPI PUSH1 0x4 SLOAD NUMBER GT ISZERO PUSH2 0x16C6 JUMPI PUSH1 0x40 MLOAD PUSH32 0x8C379A000000000000000000000000000000000000000000000000000000000 DUP2 MSTORE PUSH1 0x4 ADD DUP1 DUP1 PUSH1 0x20 ADD DUP3 DUP2 SUB DUP3 MSTORE PUSH1 0x21 DUP2 MSTORE PUSH1 0x20 ADD DUP1 PUSH2 0x274B PUSH1 0x21 SWAP2 CODECOPY PUSH1 0x40 ADD SWAP2 POP POP PUSH1 0x40 MLOAD DUP1 SWAP2 SUB SWAP1 REVERT JUMPDEST JUMPDEST PUSH1 0x0 PUSH1 0x6 DUP4 DUP2 SLOAD DUP2 LT PUSH2 0x16D6 JUMPI INVALID JUMPDEST SWAP1 PUSH1 0x0 MSTORE PUSH1 0x20 PUSH1 0x0 KECCAK256 SWAP1 PUSH1 0x3 MUL ADD SWAP1 POP PUSH1 0x0 PUSH1 0x7 PUSH1 0x0 DUP6 DUP2 MSTORE PUSH1 0x20 ADD SWAP1 DUP2 MSTORE PUSH1 0x20 ADD PUSH1 0x0 KECCAK256 PUSH1 0x0 CALLER PUSH20 0xFFFFFFFFFFFFFFFFFFFFFFFFFFFFFFFFFFFFFFFF AND PUSH20 0xFFFFFFFFFFFFFFFFFFFFFFFFFFFFFFFFFFFFFFFF AND DUP2 MSTORE PUSH1 0x20 ADD SWAP1 DUP2 MSTORE PUSH1 0x20 ADD PUSH1 0x0 KECCAK256 SWAP1 POP PUSH2 0x1743 DUP5 PUSH2 0x9E1 JUMP JUMPDEST PUSH2 0x174C DUP5 PUSH2 0x19B8 JUMP JUMPDEST PUSH1 0x0 DUP4 GT ISZERO PUSH2 0x17C6 JUMPI PUSH2 0x17A6 CALLER ADDRESS DUP6 DUP6 PUSH1 0x0 ADD PUSH1 0x0 SWAP1 SLOAD SWAP1 PUSH2 0x100 EXP SWAP1 DIV PUSH20 0xFFFFFFFFFFFFFFFFFFFFFFFFFFFFFFFFFFFFFFFF AND PUSH20 0xFFFFFFFFFFFFFFFFFFFFFFFFFFFFFFFFFFFFFFFF AND PUSH2 0x1CE0 SWAP1 SWAP4 SWAP3 SWAP2 SWAP1 PUSH4 0xFFFFFFFF AND JUMP JUMPDEST PUSH2 0x17BD DUP4 DUP3 PUSH1 0x0 ADD SLOAD PUSH2 0x1930 SWAP1 SWAP2 SWAP1 PUSH4 0xFFFFFFFF AND JUMP JUMPDEST DUP2 PUSH1 0x0 ADD DUP2 SWAP1 SSTORE POP JUMPDEST PUSH2 0x17F8 PUSH5 0xE8D4A51000 PUSH2 0x17EA DUP5 PUSH1 0x2 ADD SLOAD DUP5 PUSH1 0x0 ADD SLOAD PUSH2 0x1BEE SWAP1 SWAP2 SWAP1 PUSH4 0xFFFFFFFF AND JUMP JUMPDEST PUSH2 0x1C74 SWAP1 SWAP2 SWAP1 PUSH4 0xFFFFFFFF AND JUMP JUMPDEST DUP2 PUSH1 0x1 ADD DUP2 SWAP1 SSTORE POP DUP4 CALLER PUSH20 0xFFFFFFFFFFFFFFFFFFFFFFFFFFFFFFFFFFFFFFFF AND PUSH32 0x90890809C654F11D6E72A28FA60149770A0D11EC6C92319D6CEB2BB0A4EA1A15 DUP6 PUSH1 0x40 MLOAD DUP1 DUP3 DUP2 MSTORE PUSH1 0x20 ADD SWAP2 POP POP PUSH1 0x40 MLOAD DUP1 SWAP2 SUB SWAP1 LOG3 POP POP PUSH1 0x1 DUP1 DUP2 SWAP1 SSTORE POP POP POP JUMP JUMPDEST PUSH2 0x1864 PUSH2 0x1CD8 JUMP JUMPDEST PUSH20 0xFFFFFFFFFFFFFFFFFFFFFFFFFFFFFFFFFFFFFFFF AND PUSH1 0x0 DUP1 SLOAD SWAP1 PUSH2 0x100 EXP SWAP1 DIV PUSH20 0xFFFFFFFFFFFFFFFFFFFFFFFFFFFFFFFFFFFFFFFF AND PUSH20 0xFFFFFFFFFFFFFFFFFFFFFFFFFFFFFFFFFFFFFFFF AND EQ PUSH2 0x1924 JUMPI PUSH1 0x40 MLOAD PUSH32 0x8C379A000000000000000000000000000000000000000000000000000000000 DUP2 MSTORE PUSH1 0x4 ADD DUP1 DUP1 PUSH1 0x20 ADD DUP3 DUP2 SUB DUP3 MSTORE PUSH1 0x20 DUP2 MSTORE PUSH1 0x20 ADD DUP1 PUSH32 0x4F776E61626C653A2063616C6C6572206973206E6F7420746865206F776E6572 DUP2 MSTORE POP PUSH1 0x20 ADD SWAP2 POP POP PUSH1 0x40 MLOAD DUP1 SWAP2 SUB SWAP1 REVERT JUMPDEST PUSH2 0x192D DUP2 PUSH2 0x1DA1 JUMP JUMPDEST POP JUMP JUMPDEST PUSH1 0x0 DUP1 DUP3 DUP5 ADD SWAP1 POP DUP4 DUP2 LT ISZERO PUSH2 0x19AE JUMPI PUSH1 0x40 MLOAD PUSH32 0x8C379A000000000000000000000000000000000000000000000000000000000 DUP2 MSTORE PUSH1 0x4 ADD DUP1 DUP1 PUSH1 0x20 ADD DUP3 DUP2 SUB DUP3 MSTORE PUSH1 0x1B DUP2 MSTORE PUSH1 0x20 ADD DUP1 PUSH32 0x536166654D6174683A206164646974696F6E206F766572666C6F770000000000 DUP2 MSTORE POP PUSH1 0x20 ADD SWAP2 POP POP PUSH1 0x40 MLOAD DUP1 SWAP2 SUB SWAP1 REVERT JUMPDEST DUP1 SWAP2 POP POP SWAP3 SWAP2 POP POP JUMP JUMPDEST PUSH1 0x0 PUSH1 0x6 DUP3 DUP2 SLOAD DUP2 LT PUSH2 0x19C7 JUMPI INVALID JUMPDEST SWAP1 PUSH1 0x0 MSTORE PUSH1 0x20 PUSH1 0x0 KECCAK256 SWAP1 PUSH1 0x3 MUL ADD SWAP1 POP PUSH1 0x0 PUSH1 0x7 PUSH1 0x0 DUP5 DUP2 MSTORE PUSH1 0x20 ADD SWAP1 DUP2 MSTORE PUSH1 0x20 ADD PUSH1 0x0 KECCAK256 PUSH1 0x0 CALLER PUSH20 0xFFFFFFFFFFFFFFFFFFFFFFFFFFFFFFFFFFFFFFFF AND PUSH20 0xFFFFFFFFFFFFFFFFFFFFFFFFFFFFFFFFFFFFFFFF AND DUP2 MSTORE PUSH1 0x20 ADD SWAP1 DUP2 MSTORE PUSH1 0x20 ADD PUSH1 0x0 KECCAK256 SWAP1 POP PUSH1 0x0 PUSH2 0x1A75 DUP3 PUSH1 0x1 ADD SLOAD PUSH2 0x1A67 PUSH5 0xE8D4A51000 PUSH2 0x1A59 DUP8 PUSH1 0x2 ADD SLOAD DUP8 PUSH1 0x0 ADD SLOAD PUSH2 0x1BEE SWAP1 SWAP2 SWAP1 PUSH4 0xFFFFFFFF AND JUMP JUMPDEST PUSH2 0x1C74 SWAP1 SWAP2 SWAP1 PUSH4 0xFFFFFFFF AND JUMP JUMPDEST PUSH2 0x1B02 SWAP1 SWAP2 SWAP1 PUSH4 0xFFFFFFFF AND JUMP JUMPDEST SWAP1 POP PUSH2 0x1A7F PUSH2 0x12D8 JUMP JUMPDEST ISZERO PUSH2 0x1AD2 JUMPI PUSH1 0x0 DUP2 GT DUP1 PUSH2 0x1A97 JUMPI POP PUSH1 0x0 DUP3 PUSH1 0x2 ADD SLOAD GT JUMPDEST ISZERO PUSH2 0x1ACD JUMPI PUSH1 0x0 PUSH2 0x1AB5 DUP4 PUSH1 0x2 ADD SLOAD DUP4 PUSH2 0x1930 SWAP1 SWAP2 SWAP1 PUSH4 0xFFFFFFFF AND JUMP JUMPDEST SWAP1 POP PUSH1 0x0 DUP4 PUSH1 0x2 ADD DUP2 SWAP1 SSTORE POP PUSH2 0x1ACB CALLER DUP3 PUSH2 0x1EE4 JUMP JUMPDEST POP JUMPDEST PUSH2 0x1AFC JUMP JUMPDEST PUSH1 0x0 DUP2 GT ISZERO PUSH2 0x1AFB JUMPI PUSH2 0x1AF2 DUP2 DUP4 PUSH1 0x2 ADD SLOAD PUSH2 0x1930 SWAP1 SWAP2 SWAP1 PUSH4 0xFFFFFFFF AND JUMP JUMPDEST DUP3 PUSH1 0x2 ADD DUP2 SWAP1 SSTORE POP JUMPDEST JUMPDEST POP POP POP POP JUMP JUMPDEST PUSH1 0x0 PUSH2 0x1B44 DUP4 DUP4 PUSH1 0x40 MLOAD DUP1 PUSH1 0x40 ADD PUSH1 0x40 MSTORE DUP1 PUSH1 0x1E DUP2 MSTORE PUSH1 0x20 ADD PUSH32 0x536166654D6174683A207375627472616374696F6E206F766572666C6F770000 DUP2 MSTORE POP PUSH2 0x21B8 JUMP JUMPDEST SWAP1 POP SWAP3 SWAP2 POP POP JUMP JUMPDEST PUSH2 0x1BE9 DUP4 PUSH4 0xA9059CBB PUSH1 0xE0 SHL DUP5 DUP5 PUSH1 0x40 MLOAD PUSH1 0x24 ADD DUP1 DUP4 PUSH20 0xFFFFFFFFFFFFFFFFFFFFFFFFFFFFFFFFFFFFFFFF AND DUP2 MSTORE PUSH1 0x20 ADD DUP3 DUP2 MSTORE PUSH1 0x20 ADD SWAP3 POP POP POP PUSH1 0x40 MLOAD PUSH1 0x20 DUP2 DUP4 SUB SUB DUP2 MSTORE SWAP1 PUSH1 0x40 MSTORE SWAP1 PUSH28 0xFFFFFFFFFFFFFFFFFFFFFFFFFFFFFFFFFFFFFFFFFFFFFFFFFFFFFFFF NOT AND PUSH1 0x20 DUP3 ADD DUP1 MLOAD PUSH28 0xFFFFFFFFFFFFFFFFFFFFFFFFFFFFFFFFFFFFFFFFFFFFFFFFFFFFFFFF DUP4 DUP2 DUP4 AND OR DUP4 MSTORE POP POP POP POP PUSH2 0x2278 JUMP JUMPDEST POP POP POP JUMP JUMPDEST PUSH1 0x0 DUP1 DUP4 EQ ISZERO PUSH2 0x1C01 JUMPI PUSH1 0x0 SWAP1 POP PUSH2 0x1C6E JUMP JUMPDEST PUSH1 0x0 DUP3 DUP5 MUL SWAP1 POP DUP3 DUP5 DUP3 DUP2 PUSH2 0x1C12 JUMPI INVALID JUMPDEST DIV EQ PUSH2 0x1C69 JUMPI PUSH1 0x40 MLOAD PUSH32 0x8C379A000000000000000000000000000000000000000000000000000000000 DUP2 MSTORE PUSH1 0x4 ADD DUP1 DUP1 PUSH1 0x20 ADD DUP3 DUP2 SUB DUP3 MSTORE PUSH1 0x21 DUP2 MSTORE PUSH1 0x20 ADD DUP1 PUSH2 0x2709 PUSH1 0x21 SWAP2 CODECOPY PUSH1 0x40 ADD SWAP2 POP POP PUSH1 0x40 MLOAD DUP1 SWAP2 SUB SWAP1 REVERT JUMPDEST DUP1 SWAP2 POP POP JUMPDEST SWAP3 SWAP2 POP POP JUMP JUMPDEST PUSH1 0x0 PUSH2 0x1CB6 DUP4 DUP4 PUSH1 0x40 MLOAD DUP1 PUSH1 0x40 ADD PUSH1 0x40 MSTORE DUP1 PUSH1 0x1A DUP2 MSTORE PUSH1 0x20 ADD PUSH32 0x536166654D6174683A206469766973696F6E206279207A65726F000000000000 DUP2 MSTORE POP PUSH2 0x2367 JUMP JUMPDEST SWAP1 POP SWAP3 SWAP2 POP POP JUMP JUMPDEST PUSH1 0x0 PUSH1 0x4 SLOAD NUMBER GT PUSH2 0x1CCF JUMPI NUMBER PUSH2 0x1CD3 JUMP JUMPDEST PUSH1 0x4 SLOAD JUMPDEST SWAP1 POP SWAP1 JUMP JUMPDEST PUSH1 0x0 CALLER SWAP1 POP SWAP1 JUMP JUMPDEST PUSH2 0x1D9B DUP5 PUSH4 0x23B872DD PUSH1 0xE0 SHL DUP6 DUP6 DUP6 PUSH1 0x40 MLOAD PUSH1 0x24 ADD DUP1 DUP5 PUSH20 0xFFFFFFFFFFFFFFFFFFFFFFFFFFFFFFFFFFFFFFFF AND DUP2 MSTORE PUSH1 0x20 ADD DUP4 PUSH20 0xFFFFFFFFFFFFFFFFFFFFFFFFFFFFFFFFFFFFFFFF AND DUP2 MSTORE PUSH1 0x20 ADD DUP3 DUP2 MSTORE PUSH1 0x20 ADD SWAP4 POP POP POP POP PUSH1 0x40 MLOAD PUSH1 0x20 DUP2 DUP4 SUB SUB DUP2 MSTORE SWAP1 PUSH1 0x40 MSTORE SWAP1 PUSH28 0xFFFFFFFFFFFFFFFFFFFFFFFFFFFFFFFFFFFFFFFFFFFFFFFFFFFFFFFF NOT AND PUSH1 0x20 DUP3 ADD DUP1 MLOAD PUSH28 0xFFFFFFFFFFFFFFFFFFFFFFFFFFFFFFFFFFFFFFFFFFFFFFFFFFFFFFFF DUP4 DUP2 DUP4 AND OR DUP4 MSTORE POP POP POP POP PUSH2 0x2278 JUMP JUMPDEST POP POP POP POP JUMP JUMPDEST PUSH1 0x0 PUSH20 0xFFFFFFFFFFFFFFFFFFFFFFFFFFFFFFFFFFFFFFFF AND DUP2 PUSH20 0xFFFFFFFFFFFFFFFFFFFFFFFFFFFFFFFFFFFFFFFF AND EQ ISZERO PUSH2 0x1E27 JUMPI PUSH1 0x40 MLOAD PUSH32 0x8C379A000000000000000000000000000000000000000000000000000000000 DUP2 MSTORE PUSH1 0x4 ADD DUP1 DUP1 PUSH1 0x20 ADD DUP3 DUP2 SUB DUP3 MSTORE PUSH1 0x26 DUP2 MSTORE PUSH1 0x20 ADD DUP1 PUSH2 0x26C1 PUSH1 0x26 SWAP2 CODECOPY PUSH1 0x40 ADD SWAP2 POP POP PUSH1 0x40 MLOAD DUP1 SWAP2 SUB SWAP1 REVERT JUMPDEST DUP1 PUSH20 0xFFFFFFFFFFFFFFFFFFFFFFFFFFFFFFFFFFFFFFFF AND PUSH1 0x0 DUP1 SLOAD SWAP1 PUSH2 0x100 EXP SWAP1 DIV PUSH20 0xFFFFFFFFFFFFFFFFFFFFFFFFFFFFFFFFFFFFFFFF AND PUSH20 0xFFFFFFFFFFFFFFFFFFFFFFFFFFFFFFFFFFFFFFFF AND PUSH32 0x8BE0079C531659141344CD1FD0A4F28419497F9722A3DAAFE3B4186F6B6457E0 PUSH1 0x40 MLOAD PUSH1 0x40 MLOAD DUP1 SWAP2 SUB SWAP1 LOG3 DUP1 PUSH1 0x0 DUP1 PUSH2 0x100 EXP DUP2 SLOAD DUP2 PUSH20 0xFFFFFFFFFFFFFFFFFFFFFFFFFFFFFFFFFFFFFFFF MUL NOT AND SWAP1 DUP4 PUSH20 0xFFFFFFFFFFFFFFFFFFFFFFFFFFFFFFFFFFFFFFFF AND MUL OR SWAP1 SSTORE POP POP JUMP JUMPDEST PUSH1 0x0 PUSH1 0x2 PUSH1 0x0 SWAP1 SLOAD SWAP1 PUSH2 0x100 EXP SWAP1 DIV PUSH20 0xFFFFFFFFFFFFFFFFFFFFFFFFFFFFFFFFFFFFFFFF AND PUSH20 0xFFFFFFFFFFFFFFFFFFFFFFFFFFFFFFFFFFFFFFFF AND PUSH4 0x70A08231 ADDRESS PUSH1 0x40 MLOAD DUP3 PUSH4 0xFFFFFFFF AND PUSH1 0xE0 SHL DUP2 MSTORE PUSH1 0x4 ADD DUP1 DUP3 PUSH20 0xFFFFFFFFFFFFFFFFFFFFFFFFFFFFFFFFFFFFFFFF AND DUP2 MSTORE PUSH1 0x20 ADD SWAP2 POP POP PUSH1 0x20 PUSH1 0x40 MLOAD DUP1 DUP4 SUB DUP2 DUP7 DUP1 EXTCODESIZE ISZERO DUP1 ISZERO PUSH2 0x1F6F JUMPI PUSH1 0x0 DUP1 REVERT JUMPDEST POP GAS STATICCALL ISZERO DUP1 ISZERO PUSH2 0x1F83 JUMPI RETURNDATASIZE PUSH1 0x0 DUP1 RETURNDATACOPY RETURNDATASIZE PUSH1 0x0 REVERT JUMPDEST POP POP POP POP PUSH1 0x40 MLOAD RETURNDATASIZE PUSH1 0x20 DUP2 LT ISZERO PUSH2 0x1F99 JUMPI PUSH1 0x0 DUP1 REVERT JUMPDEST DUP2 ADD SWAP1 DUP1 DUP1 MLOAD SWAP1 PUSH1 0x20 ADD SWAP1 SWAP3 SWAP2 SWAP1 POP POP POP SWAP1 POP PUSH1 0x0 DUP2 DUP4 GT ISZERO PUSH2 0x208B JUMPI PUSH1 0x2 PUSH1 0x0 SWAP1 SLOAD SWAP1 PUSH2 0x100 EXP SWAP1 DIV PUSH20 0xFFFFFFFFFFFFFFFFFFFFFFFFFFFFFFFFFFFFFFFF AND PUSH20 0xFFFFFFFFFFFFFFFFFFFFFFFFFFFFFFFFFFFFFFFF AND PUSH4 0xA9059CBB DUP6 DUP5 PUSH1 0x40 MLOAD DUP4 PUSH4 0xFFFFFFFF AND PUSH1 0xE0 SHL DUP2 MSTORE PUSH1 0x4 ADD DUP1 DUP4 PUSH20 0xFFFFFFFFFFFFFFFFFFFFFFFFFFFFFFFFFFFFFFFF AND DUP2 MSTORE PUSH1 0x20 ADD DUP3 DUP2 MSTORE PUSH1 0x20 ADD SWAP3 POP POP POP PUSH1 0x20 PUSH1 0x40 MLOAD DUP1 DUP4 SUB DUP2 PUSH1 0x0 DUP8 DUP1 EXTCODESIZE ISZERO DUP1 ISZERO PUSH2 0x2049 JUMPI PUSH1 0x0 DUP1 REVERT JUMPDEST POP GAS CALL ISZERO DUP1 ISZERO PUSH2 0x205D JUMPI RETURNDATASIZE PUSH1 0x0 DUP1 RETURNDATACOPY RETURNDATASIZE PUSH1 0x0 REVERT JUMPDEST POP POP POP POP PUSH1 0x40 MLOAD RETURNDATASIZE PUSH1 0x20 DUP2 LT ISZERO PUSH2 0x2073 JUMPI PUSH1 0x0 DUP1 REVERT JUMPDEST DUP2 ADD SWAP1 DUP1 DUP1 MLOAD SWAP1 PUSH1 0x20 ADD SWAP1 SWAP3 SWAP2 SWAP1 POP POP POP SWAP1 POP PUSH2 0x215C JUMP JUMPDEST PUSH1 0x2 PUSH1 0x0 SWAP1 SLOAD SWAP1 PUSH2 0x100 EXP SWAP1 DIV PUSH20 0xFFFFFFFFFFFFFFFFFFFFFFFFFFFFFFFFFFFFFFFF AND PUSH20 0xFFFFFFFFFFFFFFFFFFFFFFFFFFFFFFFFFFFFFFFF AND PUSH4 0xA9059CBB DUP6 DUP6 PUSH1 0x40 MLOAD DUP4 PUSH4 0xFFFFFFFF AND PUSH1 0xE0 SHL DUP2 MSTORE PUSH1 0x4 ADD DUP1 DUP4 PUSH20 0xFFFFFFFFFFFFFFFFFFFFFFFFFFFFFFFFFFFFFFFF AND DUP2 MSTORE PUSH1 0x20 ADD DUP3 DUP2 MSTORE PUSH1 0x20 ADD SWAP3 POP POP POP PUSH1 0x20 PUSH1 0x40 MLOAD DUP1 DUP4 SUB DUP2 PUSH1 0x0 DUP8 DUP1 EXTCODESIZE ISZERO DUP1 ISZERO PUSH2 0x211E JUMPI PUSH1 0x0 DUP1 REVERT JUMPDEST POP GAS CALL ISZERO DUP1 ISZERO PUSH2 0x2132 JUMPI RETURNDATASIZE PUSH1 0x0 DUP1 RETURNDATACOPY RETURNDATASIZE PUSH1 0x0 REVERT JUMPDEST POP POP POP POP PUSH1 0x40 MLOAD RETURNDATASIZE PUSH1 0x20 DUP2 LT ISZERO PUSH2 0x2148 JUMPI PUSH1 0x0 DUP1 REVERT JUMPDEST DUP2 ADD SWAP1 DUP1 DUP1 MLOAD SWAP1 PUSH1 0x20 ADD SWAP1 SWAP3 SWAP2 SWAP1 POP POP POP SWAP1 POP JUMPDEST DUP1 PUSH2 0x21B2 JUMPI PUSH1 0x40 MLOAD PUSH32 0x8C379A000000000000000000000000000000000000000000000000000000000 DUP2 MSTORE PUSH1 0x4 ADD DUP1 DUP1 PUSH1 0x20 ADD DUP3 DUP2 SUB DUP3 MSTORE PUSH1 0x22 DUP2 MSTORE PUSH1 0x20 ADD DUP1 PUSH2 0x26E7 PUSH1 0x22 SWAP2 CODECOPY PUSH1 0x40 ADD SWAP2 POP POP PUSH1 0x40 MLOAD DUP1 SWAP2 SUB SWAP1 REVERT JUMPDEST POP POP POP POP JUMP JUMPDEST PUSH1 0x0 DUP4 DUP4 GT ISZERO DUP3 SWAP1 PUSH2 0x2265 JUMPI PUSH1 0x40 MLOAD PUSH32 0x8C379A000000000000000000000000000000000000000000000000000000000 DUP2 MSTORE PUSH1 0x4 ADD DUP1 DUP1 PUSH1 0x20 ADD DUP3 DUP2 SUB DUP3 MSTORE DUP4 DUP2 DUP2 MLOAD DUP2 MSTORE PUSH1 0x20 ADD SWAP2 POP DUP1 MLOAD SWAP1 PUSH1 0x20 ADD SWAP1 DUP1 DUP4 DUP4 PUSH1 0x0 JUMPDEST DUP4 DUP2 LT ISZERO PUSH2 0x222A JUMPI DUP1 DUP3 ADD MLOAD DUP2 DUP5 ADD MSTORE PUSH1 0x20 DUP2 ADD SWAP1 POP PUSH2 0x220F JUMP JUMPDEST POP POP POP POP SWAP1 POP SWAP1 DUP2 ADD SWAP1 PUSH1 0x1F AND DUP1 ISZERO PUSH2 0x2257 JUMPI DUP1 DUP3 SUB DUP1 MLOAD PUSH1 0x1 DUP4 PUSH1 0x20 SUB PUSH2 0x100 EXP SUB NOT AND DUP2 MSTORE PUSH1 0x20 ADD SWAP2 POP JUMPDEST POP SWAP3 POP POP POP PUSH1 0x40 MLOAD DUP1 SWAP2 SUB SWAP1 REVERT JUMPDEST POP PUSH1 0x0 DUP4 DUP6 SUB SWAP1 POP DUP1 SWAP2 POP POP SWAP4 SWAP3 POP POP POP JUMP JUMPDEST PUSH1 0x60 PUSH2 0x22DA DUP3 PUSH1 0x40 MLOAD DUP1 PUSH1 0x40 ADD PUSH1 0x40 MSTORE DUP1 PUSH1 0x20 DUP2 MSTORE PUSH1 0x20 ADD PUSH32 0x5361666542455032303A206C6F772D6C6576656C2063616C6C206661696C6564 DUP2 MSTORE POP DUP6 PUSH20 0xFFFFFFFFFFFFFFFFFFFFFFFFFFFFFFFFFFFFFFFF AND PUSH2 0x242D SWAP1 SWAP3 SWAP2 SWAP1 PUSH4 0xFFFFFFFF AND JUMP JUMPDEST SWAP1 POP PUSH1 0x0 DUP2 MLOAD GT ISZERO PUSH2 0x2362 JUMPI DUP1 DUP1 PUSH1 0x20 ADD SWAP1 MLOAD PUSH1 0x20 DUP2 LT ISZERO PUSH2 0x22FB JUMPI PUSH1 0x0 DUP1 REVERT JUMPDEST DUP2 ADD SWAP1 DUP1 DUP1 MLOAD SWAP1 PUSH1 0x20 ADD SWAP1 SWAP3 SWAP2 SWAP1 POP POP POP PUSH2 0x2361 JUMPI PUSH1 0x40 MLOAD PUSH32 0x8C379A000000000000000000000000000000000000000000000000000000000 DUP2 MSTORE PUSH1 0x4 ADD DUP1 DUP1 PUSH1 0x20 ADD DUP3 DUP2 SUB DUP3 MSTORE PUSH1 0x2A DUP2 MSTORE PUSH1 0x20 ADD DUP1 PUSH2 0x2697 PUSH1 0x2A SWAP2 CODECOPY PUSH1 0x40 ADD SWAP2 POP POP PUSH1 0x40 MLOAD DUP1 SWAP2 SUB SWAP1 REVERT JUMPDEST JUMPDEST POP POP POP JUMP JUMPDEST PUSH1 0x0 DUP1 DUP4 GT DUP3 SWAP1 PUSH2 0x2413 JUMPI PUSH1 0x40 MLOAD PUSH32 0x8C379A000000000000000000000000000000000000000000000000000000000 DUP2 MSTORE PUSH1 0x4 ADD DUP1 DUP1 PUSH1 0x20 ADD DUP3 DUP2 SUB DUP3 MSTORE DUP4 DUP2 DUP2 MLOAD DUP2 MSTORE PUSH1 0x20 ADD SWAP2 POP DUP1 MLOAD SWAP1 PUSH1 0x20 ADD SWAP1 DUP1 DUP4 DUP4 PUSH1 0x0 JUMPDEST DUP4 DUP2 LT ISZERO PUSH2 0x23D8 JUMPI DUP1 DUP3 ADD MLOAD DUP2 DUP5 ADD MSTORE PUSH1 0x20 DUP2 ADD SWAP1 POP PUSH2 0x23BD JUMP JUMPDEST POP POP POP POP SWAP1 POP SWAP1 DUP2 ADD SWAP1 PUSH1 0x1F AND DUP1 ISZERO PUSH2 0x2405 JUMPI DUP1 DUP3 SUB DUP1 MLOAD PUSH1 0x1 DUP4 PUSH1 0x20 SUB PUSH2 0x100 EXP SUB NOT AND DUP2 MSTORE PUSH1 0x20 ADD SWAP2 POP JUMPDEST POP SWAP3 POP POP POP PUSH1 0x40 MLOAD DUP1 SWAP2 SUB SWAP1 REVERT JUMPDEST POP PUSH1 0x0 DUP4 DUP6 DUP2 PUSH2 0x241F JUMPI INVALID JUMPDEST DIV SWAP1 POP DUP1 SWAP2 POP POP SWAP4 SWAP3 POP POP POP JUMP JUMPDEST PUSH1 0x60 PUSH2 0x243C DUP5 DUP5 PUSH1 0x0 DUP6 PUSH2 0x2445 JUMP JUMPDEST SWAP1 POP SWAP4 SWAP3 POP POP POP JUMP JUMPDEST PUSH1 0x60 PUSH2 0x2450 DUP6 PUSH2 0x264B JUMP JUMPDEST PUSH2 0x24C2 JUMPI PUSH1 0x40 MLOAD PUSH32 0x8C379A000000000000000000000000000000000000000000000000000000000 DUP2 MSTORE PUSH1 0x4 ADD DUP1 DUP1 PUSH1 0x20 ADD DUP3 DUP2 SUB DUP3 MSTORE PUSH1 0x1D DUP2 MSTORE PUSH1 0x20 ADD DUP1 PUSH32 0x416464726573733A2063616C6C20746F206E6F6E2D636F6E7472616374000000 DUP2 MSTORE POP PUSH1 0x20 ADD SWAP2 POP POP PUSH1 0x40 MLOAD DUP1 SWAP2 SUB SWAP1 REVERT JUMPDEST PUSH1 0x0 PUSH1 0x60 DUP7 PUSH20 0xFFFFFFFFFFFFFFFFFFFFFFFFFFFFFFFFFFFFFFFF AND DUP6 DUP8 PUSH1 0x40 MLOAD DUP1 DUP3 DUP1 MLOAD SWAP1 PUSH1 0x20 ADD SWAP1 DUP1 DUP4 DUP4 JUMPDEST PUSH1 0x20 DUP4 LT PUSH2 0x2512 JUMPI DUP1 MLOAD DUP3 MSTORE PUSH1 0x20 DUP3 ADD SWAP2 POP PUSH1 0x20 DUP2 ADD SWAP1 POP PUSH1 0x20 DUP4 SUB SWAP3 POP PUSH2 0x24EF JUMP JUMPDEST PUSH1 0x1 DUP4 PUSH1 0x20 SUB PUSH2 0x100 EXP SUB DUP1 NOT DUP3 MLOAD AND DUP2 DUP5 MLOAD AND DUP1 DUP3 OR DUP6 MSTORE POP POP POP POP POP POP SWAP1 POP ADD SWAP2 POP POP PUSH1 0x0 PUSH1 0x40 MLOAD DUP1 DUP4 SUB DUP2 DUP6 DUP8 GAS CALL SWAP3 POP POP POP RETURNDATASIZE DUP1 PUSH1 0x0 DUP2 EQ PUSH2 0x2574 JUMPI PUSH1 0x40 MLOAD SWAP2 POP PUSH1 0x1F NOT PUSH1 0x3F RETURNDATASIZE ADD AND DUP3 ADD PUSH1 0x40 MSTORE RETURNDATASIZE DUP3 MSTORE RETURNDATASIZE PUSH1 0x0 PUSH1 0x20 DUP5 ADD RETURNDATACOPY PUSH2 0x2579 JUMP JUMPDEST PUSH1 0x60 SWAP2 POP JUMPDEST POP SWAP2 POP SWAP2 POP DUP2 ISZERO PUSH2 0x258E JUMPI DUP1 SWAP3 POP POP POP PUSH2 0x2643 JUMP JUMPDEST PUSH1 0x0 DUP2 MLOAD GT ISZERO PUSH2 0x25A1 JUMPI DUP1 MLOAD DUP1 DUP3 PUSH1 0x20 ADD REVERT JUMPDEST DUP4 PUSH1 0x40 MLOAD PUSH32 0x8C379A000000000000000000000000000000000000000000000000000000000 DUP2 MSTORE PUSH1 0x4 ADD DUP1 DUP1 PUSH1 0x20 ADD DUP3 DUP2 SUB DUP3 MSTORE DUP4 DUP2 DUP2 MLOAD DUP2 MSTORE PUSH1 0x20 ADD SWAP2 POP DUP1 MLOAD SWAP1 PUSH1 0x20 ADD SWAP1 DUP1 DUP4 DUP4 PUSH1 0x0 JUMPDEST DUP4 DUP2 LT ISZERO PUSH2 0x2608 JUMPI DUP1 DUP3 ADD MLOAD DUP2 DUP5 ADD MSTORE PUSH1 0x20 DUP2 ADD SWAP1 POP PUSH2 0x25ED JUMP JUMPDEST POP POP POP POP SWAP1 POP SWAP1 DUP2 ADD SWAP1 PUSH1 0x1F AND DUP1 ISZERO PUSH2 0x2635 JUMPI DUP1 DUP3 SUB DUP1 MLOAD PUSH1 0x1 DUP4 PUSH1 0x20 SUB PUSH2 0x100 EXP SUB NOT AND DUP2 MSTORE PUSH1 0x20 ADD SWAP2 POP JUMPDEST POP SWAP3 POP POP POP PUSH1 0x40 MLOAD DUP1 SWAP2 SUB SWAP1 REVERT JUMPDEST SWAP5 SWAP4 POP POP POP POP JUMP JUMPDEST PUSH1 0x0 DUP1 PUSH1 0x0 PUSH32 0xC5D2460186F7233C927E7DB2DCC703C0E500B653CA82273B7BFAD8045D85A470 PUSH1 0x0 SHL SWAP1 POP DUP4 EXTCODEHASH SWAP2 POP DUP1 DUP3 EQ ISZERO DUP1 ISZERO PUSH2 0x268D JUMPI POP PUSH1 0x0 DUP1 SHL DUP3 EQ ISZERO JUMPDEST SWAP3 POP POP POP SWAP2 SWAP1 POP JUMP INVALID MSTORE8 PUSH2 0x6665 TIMESTAMP GASLIMIT POP ORIGIN ADDRESS GASPRICE KECCAK256 TIMESTAMP GASLIMIT POP ORIGIN ADDRESS KECCAK256 PUSH16 0x7065726174696F6E20646964206E6F74 KECCAK256 PUSH20 0x7563636565644F776E61626C653A206E6577206F PUSH24 0x6E657220697320746865207A65726F206164647265737373 PUSH2 0x6665 POP PUSH13 0x756D5472616E736665723A2074 PUSH19 0x616E73666572206661696C65642E536166654D PUSH2 0x7468 GASPRICE KECCAK256 PUSH14 0x756C7469706C69636174696F6E20 PUSH16 0x766572666C6F77676574506F6F6C4964 CHAINID PUSH16 0x724C70546F6B656E3A20646F206E6F74 KECCAK256 PUSH6 0x786973746465 PUSH17 0x6F7369743A207374616B696E6720706572 PUSH10 0x6F642068617320656E64 PUSH6 0x64A264697066 PUSH20 0x5822122022B92164B22E771C80A455741F2CA902 MSIZE 0xA7 0xC7 0xE5 0x29 0xC1 SDIV 0xE2 ADDRESS DUP9 BYTE 0xEB 0xCC GAS SWAP12 0xC9 PUSH5 0x736F6C6343 STOP MOD 0xC STOP CALLER "},"gasEstimates":{"creation":{"codeDepositCost":"2029000","executionCost":"infinite","totalCost":"infinite"},"external":{"FAANG()":"1136","FAANGPerBlock()":"1095","add(address,bool)":"infinite","canClaimFAANGRewards()":"1072","deposit(uint256,uint256)":"infinite","emergencyWithdraw(uint256)":"infinite","getMultiplier(uint256,uint256)":"infinite","getPoolIdForLpToken(address)":"infinite","massUpdatePools()":"infinite","owner()":"1122","pendingFAANG(uint256,address)":"infinite","poolExistence(address)":"1266","poolIdForLpAddress(address)":"1191","poolInfo(uint256)":"3757","poolLength()":"1045","renounceOwnership()":"24314","transferOwnership(address)":"infinite","updatePool(uint256)":"infinite","userInfo(uint256,address)":"3050","withdraw(uint256,uint256)":"infinite"},"internal":{"minCurrentBlockAndInactiveBlockIfExist()":"1646","payOrLockupPendingFAANG(uint256)":"infinite","safeFAANGTransfer(address,uint256)":"infinite"}},"methodIdentifiers":{"FAANG()":"6621d3ba","FAANGPerBlock()":"267c3338","add(address,bool)":"6e983466","canClaimFAANGRewards()":"71811c3f","deposit(uint256,uint256)":"e2bbb158","emergencyWithdraw(uint256)":"5312ea8e","getMultiplier(uint256,uint256)":"8dbb1e3a","getPoolIdForLpToken(address)":"190f39f0","massUpdatePools()":"630b5ba1","owner()":"8da5cb5b","pendingFAANG(uint256,address)":"c100710d","poolExistence(address)":"cbd258b5","poolIdForLpAddress(address)":"9bf62f7e","poolInfo(uint256)":"1526fe27","poolLength()":"081e3eda","renounceOwnership()":"715018a6","transferOwnership(address)":"f2fde38b","updatePool(uint256)":"51eb05a6","userInfo(uint256,address)":"93f1a40b","withdraw(uint256,uint256)":"441a3e70"}},"storageLayout":{"storage":[{"astId":2366,"contract":"FAANGOrchestrator.sol:FAANGOrchestrator","label":"_owner","offset":0,"slot":"0","type":"t_address"},{"astId":2489,"contract":"FAANGOrchestrator.sol:FAANGOrchestrator","label":"_status","offset":0,"slot":"1","type":"t_uint256"},{"astId":794,"contract":"FAANGOrchestrator.sol:FAANGOrchestrator","label":"FAANG","offset":0,"slot":"2","type":"t_contract(FAANGToken)2257"},{"astId":797,"contract":"FAANGOrchestrator.sol:FAANGOrchestrator","label":"FAANGPerBlock","offset":0,"slot":"3","type":"t_uint256"},{"astId":799,"contract":"FAANGOrchestrator.sol:FAANGOrchestrator","label":"inActiveBlock","offset":0,"slot":"4","type":"t_uint256"},{"astId":801,"contract":"FAANGOrchestrator.sol:FAANGOrchestrator","label":"startBlock","offset":0,"slot":"5","type":"t_uint256"},{"astId":804,"contract":"FAANGOrchestrator.sol:FAANGOrchestrator","label":"poolInfo","offset":0,"slot":"6","type":"t_array(t_struct(PoolInfo)792_storage)dyn_storage"},{"astId":810,"contract":"FAANGOrchestrator.sol:FAANGOrchestrator","label":"userInfo","offset":0,"slot":"7","type":"t_mapping(t_uint256,t_mapping(t_address,t_struct(UserInfo)785_storage))"},{"astId":814,"contract":"FAANGOrchestrator.sol:FAANGOrchestrator","label":"poolExistence","offset":0,"slot":"8","type":"t_mapping(t_contract(IBEP20)2358,t_bool)"},{"astId":818,"contract":"FAANGOrchestrator.sol:FAANGOrchestrator","label":"poolIdForLpAddress","offset":0,"slot":"9","type":"t_mapping(t_contract(IBEP20)2358,t_uint256)"}],"types":{"t_address":{"encoding":"inplace","label":"address","numberOfBytes":"20"},"t_array(t_struct(PoolInfo)792_storage)dyn_storage":{"base":"t_struct(PoolInfo)792_storage","encoding":"dynamic_array","label":"struct FAANGOrchestrator.PoolInfo[]","numberOfBytes":"32"},"t_bool":{"encoding":"inplace","label":"bool","numberOfBytes":"1"},"t_contract(FAANGToken)2257":{"encoding":"inplace","label":"contract FAANGToken","numberOfBytes":"20"},"t_contract(IBEP20)2358":{"encoding":"inplace","label":"contract IBEP20","numberOfBytes":"20"},"t_mapping(t_address,t_struct(UserInfo)785_storage)":{"encoding":"mapping","key":"t_address","label":"mapping(address => struct FAANGOrchestrator.UserInfo)","numberOfBytes":"32","value":"t_struct(UserInfo)785_storage"},"t_mapping(t_contract(IBEP20)2358,t_bool)":{"encoding":"mapping","key":"t_contract(IBEP20)2358","label":"mapping(contract IBEP20 => bool)","numberOfBytes":"32","value":"t_bool"},"t_mapping(t_contract(IBEP20)2358,t_uint256)":{"encoding":"mapping","key":"t_contract(IBEP20)2358","label":"mapping(contract IBEP20 => uint256)","numberOfBytes":"32","value":"t_uint256"},"t_mapping(t_uint256,t_mapping(t_address,t_struct(UserInfo)785_storage))":{"encoding":"mapping","key":"t_uint256","label":"mapping(uint256 => mapping(address => struct FAANGOrchestrator.UserInfo))","numberOfBytes":"32","value":"t_mapping(t_address,t_struct(UserInfo)785_storage)"},"t_struct(PoolInfo)792_storage":{"encoding":"inplace","label":"struct FAANGOrchestrator.PoolInfo","members":[{"astId":787,"contract":"FAANGOrchestrator.sol:FAANGOrchestrator","label":"lpToken","offset":0,"slot":"0","type":"t_contract(IBEP20)2358"},{"astId":789,"contract":"FAANGOrchestrator.sol:FAANGOrchestrator","label":"lastRewardBlock","offset":0,"slot":"1","type":"t_uint256"},{"astId":791,"contract":"FAANGOrchestrator.sol:FAANGOrchestrator","label":"accFAANGPerShare","offset":0,"slot":"2","type":"t_uint256"}],"numberOfBytes":"96"},"t_struct(UserInfo)785_storage":{"encoding":"inplace","label":"struct FAANGOrchestrator.UserInfo","members":[{"astId":780,"contract":"FAANGOrchestrator.sol:FAANGOrchestrator","label":"amount","offset":0,"slot":"0","type":"t_uint256"},{"astId":782,"contract":"FAANGOrchestrator.sol:FAANGOrchestrator","label":"rewardDebt","offset":0,"slot":"1","type":"t_uint256"},{"astId":784,"contract":"FAANGOrchestrator.sol:FAANGOrchestrator","label":"rewardLockedUp","offset":0,"slot":"2","type":"t_uint256"}],"numberOfBytes":"96"},"t_uint256":{"encoding":"inplace","label":"uint256","numberOfBytes":"32"}}},"userdoc":{"kind":"user","methods":{},"version":1}}