{"abi":[{"anonymous":false,"inputs":[{"indexed":true,"internalType":"address","name":"owner","type":"address"},{"indexed":true,"internalType":"address","name":"spender","type":"address"},{"indexed":false,"internalType":"uint256","name":"value","type":"uint256"}],"name":"Approval","type":"event"},{"anonymous":false,"inputs":[{"indexed":true,"internalType":"address","name":"delegator","type":"address"},{"indexed":true,"internalType":"address","name":"fromDelegate","type":"address"},{"indexed":true,"internalType":"address","name":"toDelegate","type":"address"}],"name":"DelegateChanged","type":"event"},{"anonymous":false,"inputs":[{"indexed":true,"internalType":"address","name":"delegate","type":"address"},{"indexed":false,"internalType":"uint256","name":"previousBalance","type":"uint256"},{"indexed":false,"internalType":"uint256","name":"newBalance","type":"uint256"}],"name":"DelegateVotesChanged","type":"event"},{"anonymous":false,"inputs":[{"indexed":true,"internalType":"address","name":"previousOwner","type":"address"},{"indexed":true,"internalType":"address","name":"newOwner","type":"address"}],"name":"OwnershipTransferred","type":"event"},{"anonymous":false,"inputs":[{"indexed":true,"internalType":"address","name":"from","type":"address"},{"indexed":true,"internalType":"address","name":"to","type":"address"},{"indexed":false,"internalType":"uint256","name":"value","type":"uint256"}],"name":"Transfer","type":"event"},{"inputs":[],"name":"DELEGATION_TYPEHASH","outputs":[{"internalType":"bytes32","name":"","type":"bytes32"}],"stateMutability":"view","type":"function"},{"inputs":[],"name":"DOMAIN_TYPEHASH","outputs":[{"internalType":"bytes32","name":"","type":"bytes32"}],"stateMutability":"view","type":"function"},{"inputs":[{"internalType":"address","name":"owner","type":"address"},{"internalType":"address","name":"spender","type":"address"}],"name":"allowance","outputs":[{"internalType":"uint256","name":"","type":"uint256"}],"stateMutability":"view","type":"function"},{"inputs":[{"internalType":"address","name":"spender","type":"address"},{"internalType":"uint256","name":"amount","type":"uint256"}],"name":"approve","outputs":[{"internalType":"bool","name":"","type":"bool"}],"stateMutability":"nonpayable","type":"function"},{"inputs":[{"internalType":"address","name":"account","type":"address"}],"name":"balanceOf","outputs":[{"internalType":"uint256","name":"","type":"uint256"}],"stateMutability":"view","type":"function"},{"inputs":[{"internalType":"address","name":"","type":"address"},{"internalType":"uint32","name":"","type":"uint32"}],"name":"checkpoints","outputs":[{"internalType":"uint32","name":"fromBlock","type":"uint32"},{"internalType":"uint256","name":"votes","type":"uint256"}],"stateMutability":"view","type":"function"},{"inputs":[],"name":"decimals","outputs":[{"internalType":"uint8","name":"","type":"uint8"}],"stateMutability":"view","type":"function"},{"inputs":[{"internalType":"address","name":"spender","type":"address"},{"internalType":"uint256","name":"subtractedValue","type":"uint256"}],"name":"decreaseAllowance","outputs":[{"internalType":"bool","name":"","type":"bool"}],"stateMutability":"nonpayable","type":"function"},{"inputs":[{"internalType":"address","name":"delegatee","type":"address"}],"name":"delegate","outputs":[],"stateMutability":"nonpayable","type":"function"},{"inputs":[{"internalType":"address","name":"delegatee","type":"address"},{"internalType":"uint256","name":"nonce","type":"uint256"},{"internalType":"uint256","name":"expiry","type":"uint256"},{"internalType":"uint8","name":"v","type":"uint8"},{"internalType":"bytes32","name":"r","type":"bytes32"},{"internalType":"bytes32","name":"s","type":"bytes32"}],"name":"delegateBySig","outputs":[],"stateMutability":"nonpayable","type":"function"},{"inputs":[{"internalType":"address","name":"delegator","type":"address"}],"name":"delegates","outputs":[{"internalType":"address","name":"","type":"address"}],"stateMutability":"view","type":"function"},{"inputs":[{"internalType":"address","name":"account","type":"address"}],"name":"getCurrentVotes","outputs":[{"internalType":"uint256","name":"","type":"uint256"}],"stateMutability":"view","type":"function"},{"inputs":[],"name":"getOwner","outputs":[{"internalType":"address","name":"","type":"address"}],"stateMutability":"view","type":"function"},{"inputs":[{"internalType":"address","name":"account","type":"address"},{"internalType":"uint256","name":"blockNumber","type":"uint256"}],"name":"getPriorVotes","outputs":[{"internalType":"uint256","name":"","type":"uint256"}],"stateMutability":"view","type":"function"},{"inputs":[{"internalType":"address","name":"spender","type":"address"},{"internalType":"uint256","name":"addedValue","type":"uint256"}],"name":"increaseAllowance","outputs":[{"internalType":"bool","name":"","type":"bool"}],"stateMutability":"nonpayable","type":"function"},{"inputs":[{"internalType":"address","name":"_to","type":"address"},{"internalType":"uint256","name":"_amount","type":"uint256"}],"name":"mint","outputs":[],"stateMutability":"nonpayable","type":"function"},{"inputs":[{"internalType":"uint256","name":"amount","type":"uint256"}],"name":"mint","outputs":[{"internalType":"bool","name":"","type":"bool"}],"stateMutability":"nonpayable","type":"function"},{"inputs":[],"name":"name","outputs":[{"internalType":"string","name":"","type":"string"}],"stateMutability":"view","type":"function"},{"inputs":[{"internalType":"address","name":"","type":"address"}],"name":"nonces","outputs":[{"internalType":"uint256","name":"","type":"uint256"}],"stateMutability":"view","type":"function"},{"inputs":[{"internalType":"address","name":"","type":"address"}],"name":"numCheckpoints","outputs":[{"internalType":"uint32","name":"","type":"uint32"}],"stateMutability":"view","type":"function"},{"inputs":[],"name":"owner","outputs":[{"internalType":"address","name":"","type":"address"}],"stateMutability":"view","type":"function"},{"inputs":[],"name":"renounceOwnership","outputs":[],"stateMutability":"nonpayable","type":"function"},{"inputs":[],"name":"symbol","outputs":[{"internalType":"string","name":"","type":"string"}],"stateMutability":"view","type":"function"},{"inputs":[],"name":"totalSupply","outputs":[{"internalType":"uint256","name":"","type":"uint256"}],"stateMutability":"view","type":"function"},{"inputs":[{"internalType":"address","name":"recipient","type":"address"},{"internalType":"uint256","name":"amount","type":"uint256"}],"name":"transfer","outputs":[{"internalType":"bool","name":"","type":"bool"}],"stateMutability":"nonpayable","type":"function"},{"inputs":[{"internalType":"address","name":"sender","type":"address"},{"internalType":"address","name":"recipient","type":"address"},{"internalType":"uint256","name":"amount","type":"uint256"}],"name":"transferFrom","outputs":[{"internalType":"bool","name":"","type":"bool"}],"stateMutability":"nonpayable","type":"function"},{"inputs":[{"internalType":"address","name":"newOwner","type":"address"}],"name":"transferOwnership","outputs":[],"stateMutability":"nonpayable","type":"function"}],"devdoc":{"kind":"dev","methods":{"allowance(address,address)":{"details":"See {BEP20-allowance}."},"approve(address,uint256)":{"details":"See {BEP20-approve}. Requirements: - `spender` cannot be the zero address."},"balanceOf(address)":{"details":"See {BEP20-balanceOf}."},"decimals()":{"details":"Returns the token decimals."},"decreaseAllowance(address,uint256)":{"details":"Atomically decreases the allowance granted to `spender` by the caller. This is an alternative to {approve} that can be used as a mitigation for problems described in {BEP20-approve}. Emits an {Approval} event indicating the updated allowance. Requirements: - `spender` cannot be the zero address. - `spender` must have allowance for the caller of at least `subtractedValue`."},"delegate(address)":{"params":{"delegatee":"The address to delegate votes to"}},"delegateBySig(address,uint256,uint256,uint8,bytes32,bytes32)":{"params":{"delegatee":"The address to delegate votes to","expiry":"The time at which to expire the signature","nonce":"The contract state required to match the signature","r":"Half of the ECDSA signature pair","s":"Half of the ECDSA signature pair","v":"The recovery byte of the signature"}},"delegates(address)":{"params":{"delegator":"The address to get delegatee for"}},"getCurrentVotes(address)":{"params":{"account":"The address to get votes balance"},"returns":{"_0":"The number of current votes for `account`"}},"getOwner()":{"details":"Returns the bep token owner."},"getPriorVotes(address,uint256)":{"details":"Block number must be a finalized block or else this function will revert to prevent misinformation.","params":{"account":"The address of the account to check","blockNumber":"The block number to get the vote balance at"},"returns":{"_0":"The number of votes the account had as of the given block"}},"increaseAllowance(address,uint256)":{"details":"Atomically increases the allowance granted to `spender` by the caller. This is an alternative to {approve} that can be used as a mitigation for problems described in {BEP20-approve}. Emits an {Approval} event indicating the updated allowance. Requirements: - `spender` cannot be the zero address."},"mint(uint256)":{"details":"Creates `amount` tokens and assigns them to `msg.sender`, increasing the total supply. Requirements - `msg.sender` must be the token owner"},"name()":{"details":"Returns the token name."},"owner()":{"details":"Returns the address of the current owner."},"renounceOwnership()":{"details":"Leaves the contract without owner. It will not be possible to call `onlyOwner` functions anymore. Can only be called by the current owner. NOTE: Renouncing ownership will leave the contract without an owner, thereby removing any functionality that is only available to the owner."},"symbol()":{"details":"Returns the token symbol."},"totalSupply()":{"details":"See {BEP20-totalSupply}."},"transfer(address,uint256)":{"details":"See {BEP20-transfer}. Requirements: - `recipient` cannot be the zero address. - the caller must have a balance of at least `amount`."},"transferFrom(address,address,uint256)":{"details":"See {BEP20-transferFrom}. Emits an {Approval} event indicating the updated allowance. This is not required by the EIP. See the note at the beginning of {BEP20}; Requirements: - `sender` and `recipient` cannot be the zero address. - `sender` must have a balance of at least `amount`. - the caller must have allowance for `sender`'s tokens of at least `amount`."},"transferOwnership(address)":{"details":"Transfers ownership of the contract to a new account (`newOwner`). Can only be called by the current owner."}},"stateVariables":{"_delegates":{"details":"A record of each accounts delegate"}},"version":1},"evm":{"assembly":"    /* \"FAANGToken.sol\":293:8976  contract FAANGToken is BEP20('FAANG Token', 'FAANG') {... */\n  mstore(0x40, 0x80)\n  callvalue\n  dup1\n  iszero\n  tag_1\n  jumpi\n  0x00\n  dup1\n  revert\ntag_1:\n  pop\n    /* \"BEP20.sol\":2075:2215  constructor(string memory name, string memory symbol) public {... */\n  mload(0x40)\n  dup1\n  0x40\n  add\n  0x40\n  mstore\n  dup1\n  0x0b\n  dup2\n  mstore\n  0x20\n  add\n  0x4641414e4720546f6b656e000000000000000000000000000000000000000000\n  dup2\n  mstore\n  pop\n  mload(0x40)\n  dup1\n  0x40\n  add\n  0x40\n  mstore\n  dup1\n  0x05\n  dup2\n  mstore\n  0x20\n  add\n  0x4641414e47000000000000000000000000000000000000000000000000000000\n  dup2\n  mstore\n  pop\n    /* \"Ownable.sol\":874:891  address msgSender */\n  0x00\n    /* \"Ownable.sol\":894:906  _msgSender() */\n  tag_7\n    /* \"Ownable.sol\":894:904  _msgSender */\n  shl(0x20, tag_8)\n    /* \"Ownable.sol\":894:906  _msgSender() */\n  0x20\n  shr\n  jump\t// in\ntag_7:\n    /* \"Ownable.sol\":874:906  address msgSender = _msgSender() */\n  swap1\n  pop\n    /* \"Ownable.sol\":925:934  msgSender */\n  dup1\n    /* \"Ownable.sol\":916:922  _owner */\n  0x00\n  dup1\n    /* \"Ownable.sol\":916:934  _owner = msgSender */\n  0x0100\n  exp\n  dup2\n  sload\n  dup2\n  0xffffffffffffffffffffffffffffffffffffffff\n  mul\n  not\n  and\n  swap1\n  dup4\n  0xffffffffffffffffffffffffffffffffffffffff\n  and\n  mul\n  or\n  swap1\n  sstore\n  pop\n    /* \"Ownable.sol\":982:991  msgSender */\n  dup1\n    /* \"Ownable.sol\":949:992  OwnershipTransferred(address(0), msgSender) */\n  0xffffffffffffffffffffffffffffffffffffffff\n  and\n    /* \"Ownable.sol\":978:979  0 */\n  0x00\n    /* \"Ownable.sol\":949:992  OwnershipTransferred(address(0), msgSender) */\n  0xffffffffffffffffffffffffffffffffffffffff\n  and\n  0x8be0079c531659141344cd1fd0a4f28419497f9722a3daafe3b4186f6b6457e0\n  mload(0x40)\n  mload(0x40)\n  dup1\n  swap2\n  sub\n  swap1\n  log3\n    /* \"Ownable.sol\":841:999  constructor() internal {... */\n  pop\n    /* \"BEP20.sol\":2154:2158  name */\n  dup2\n    /* \"BEP20.sol\":2146:2151  _name */\n  0x04\n    /* \"BEP20.sol\":2146:2158  _name = name */\n  swap1\n  dup1\n  mload\n  swap1\n  0x20\n  add\n  swap1\n  tag_10\n  swap3\n  swap2\n  swap1\n  tag_11\n  jump\t// in\ntag_10:\n  pop\n    /* \"BEP20.sol\":2178:2184  symbol */\n  dup1\n    /* \"BEP20.sol\":2168:2175  _symbol */\n  0x05\n    /* \"BEP20.sol\":2168:2184  _symbol = symbol */\n  swap1\n  dup1\n  mload\n  swap1\n  0x20\n  add\n  swap1\n  tag_12\n  swap3\n  swap2\n  swap1\n  tag_11\n  jump\t// in\ntag_12:\n  pop\n    /* \"BEP20.sol\":2206:2208  18 */\n  0x12\n    /* \"BEP20.sol\":2194:2203  _decimals */\n  0x06\n  0x00\n    /* \"BEP20.sol\":2194:2208  _decimals = 18 */\n  0x0100\n  exp\n  dup2\n  sload\n  dup2\n  0xff\n  mul\n  not\n  and\n  swap1\n  dup4\n  0xff\n  and\n  mul\n  or\n  swap1\n  sstore\n  pop\n    /* \"BEP20.sol\":2075:2215  constructor(string memory name, string memory symbol) public {... */\n  pop\n  pop\n    /* \"FAANGToken.sol\":293:8976  contract FAANGToken is BEP20('FAANG Token', 'FAANG') {... */\n  jump(tag_13)\n    /* \"Context.sol\":780:876  function _msgSender() internal view returns (address payable) {... */\ntag_8:\n    /* \"Context.sol\":825:840  address payable */\n  0x00\n    /* \"Context.sol\":859:869  msg.sender */\n  caller\n    /* \"Context.sol\":852:869  return msg.sender */\n  swap1\n  pop\n    /* \"Context.sol\":780:876  function _msgSender() internal view returns (address payable) {... */\n  swap1\n  jump\t// out\n    /* \"FAANGToken.sol\":293:8976  contract FAANGToken is BEP20('FAANG Token', 'FAANG') {... */\ntag_11:\n  dup3\n  dup1\n  sload\n  0x01\n  dup2\n  0x01\n  and\n  iszero\n  0x0100\n  mul\n  sub\n  and\n  0x02\n  swap1\n  div\n  swap1\n  0x00\n  mstore\n  keccak256(0x00, 0x20)\n  swap1\n  0x1f\n  add\n  0x20\n  swap1\n  div\n  dup2\n  add\n  swap3\n  dup3\n  0x1f\n  lt\n  tag_16\n  jumpi\n  dup1\n  mload\n  not(0xff)\n  and\n  dup4\n  dup1\n  add\n  or\n  dup6\n  sstore\n  jump(tag_15)\ntag_16:\n  dup3\n  dup1\n  add\n  0x01\n  add\n  dup6\n  sstore\n  dup3\n  iszero\n  tag_15\n  jumpi\n  swap2\n  dup3\n  add\ntag_17:\n  dup3\n  dup2\n  gt\n  iszero\n  tag_18\n  jumpi\n  dup3\n  mload\n  dup3\n  sstore\n  swap2\n  0x20\n  add\n  swap2\n  swap1\n  0x01\n  add\n  swap1\n  jump(tag_17)\ntag_18:\ntag_15:\n  pop\n  swap1\n  pop\n  tag_19\n  swap2\n  swap1\n  tag_20\n  jump\t// in\ntag_19:\n  pop\n  swap1\n  jump\t// out\ntag_20:\ntag_21:\n  dup1\n  dup3\n  gt\n  iszero\n  tag_22\n  jumpi\n  0x00\n  dup2\n  0x00\n  swap1\n  sstore\n  pop\n  0x01\n  add\n  jump(tag_21)\ntag_22:\n  pop\n  swap1\n  jump\t// out\ntag_13:\n  dataSize(sub_0)\n  dup1\n  dataOffset(sub_0)\n  0x00\n  codecopy\n  0x00\n  return\nstop\n\nsub_0: assembly {\n        /* \"FAANGToken.sol\":293:8976  contract FAANGToken is BEP20('FAANG Token', 'FAANG') {... */\n      mstore(0x40, 0x80)\n      callvalue\n      dup1\n      iszero\n      tag_1\n      jumpi\n      0x00\n      dup1\n      revert\n    tag_1:\n      pop\n      jumpi(tag_2, lt(calldatasize, 0x04))\n      shr(0xe0, calldataload(0x00))\n      dup1\n      0x782d6fe1\n      gt\n      tag_30\n      jumpi\n      dup1\n      0xa9059cbb\n      gt\n      tag_31\n      jumpi\n      dup1\n      0xdd62ed3e\n      gt\n      tag_32\n      jumpi\n      dup1\n      0xdd62ed3e\n      eq\n      tag_26\n      jumpi\n      dup1\n      0xe7a324dc\n      eq\n      tag_27\n      jumpi\n      dup1\n      0xf1127ed8\n      eq\n      tag_28\n      jumpi\n      dup1\n      0xf2fde38b\n      eq\n      tag_29\n      jumpi\n      jump(tag_2)\n    tag_32:\n      dup1\n      0xa9059cbb\n      eq\n      tag_23\n      jumpi\n      dup1\n      0xb4b5ea57\n      eq\n      tag_24\n      jumpi\n      dup1\n      0xc3cda520\n      eq\n      tag_25\n      jumpi\n      jump(tag_2)\n    tag_31:\n      dup1\n      0x8da5cb5b\n      gt\n      tag_33\n      jumpi\n      dup1\n      0x8da5cb5b\n      eq\n      tag_19\n      jumpi\n      dup1\n      0x95d89b41\n      eq\n      tag_20\n      jumpi\n      dup1\n      0xa0712d68\n      eq\n      tag_21\n      jumpi\n      dup1\n      0xa457c2d7\n      eq\n      tag_22\n      jumpi\n      jump(tag_2)\n    tag_33:\n      dup1\n      0x782d6fe1\n      eq\n      tag_16\n      jumpi\n      dup1\n      0x7ecebe00\n      eq\n      tag_17\n      jumpi\n      dup1\n      0x893d20e8\n      eq\n      tag_18\n      jumpi\n      jump(tag_2)\n    tag_30:\n      dup1\n      0x39509351\n      gt\n      tag_34\n      jumpi\n      dup1\n      0x5c19a95c\n      gt\n      tag_35\n      jumpi\n      dup1\n      0x5c19a95c\n      eq\n      tag_12\n      jumpi\n      dup1\n      0x6fcfff45\n      eq\n      tag_13\n      jumpi\n      dup1\n      0x70a08231\n      eq\n      tag_14\n      jumpi\n      dup1\n      0x715018a6\n      eq\n      tag_15\n      jumpi\n      jump(tag_2)\n    tag_35:\n      dup1\n      0x39509351\n      eq\n      tag_9\n      jumpi\n      dup1\n      0x40c10f19\n      eq\n      tag_10\n      jumpi\n      dup1\n      0x587cde1e\n      eq\n      tag_11\n      jumpi\n      jump(tag_2)\n    tag_34:\n      dup1\n      0x06fdde03\n      eq\n      tag_3\n      jumpi\n      dup1\n      0x095ea7b3\n      eq\n      tag_4\n      jumpi\n      dup1\n      0x18160ddd\n      eq\n      tag_5\n      jumpi\n      dup1\n      0x20606b70\n      eq\n      tag_6\n      jumpi\n      dup1\n      0x23b872dd\n      eq\n      tag_7\n      jumpi\n      dup1\n      0x313ce567\n      eq\n      tag_8\n      jumpi\n    tag_2:\n      0x00\n      dup1\n      revert\n        /* \"BEP20.sol\":2428:2518  function name() public override view returns (string memory) {... */\n    tag_3:\n      tag_36\n      tag_37\n      jump\t// in\n    tag_36:\n      mload(0x40)\n      dup1\n      dup1\n      0x20\n      add\n      dup3\n      dup2\n      sub\n      dup3\n      mstore\n      dup4\n      dup2\n      dup2\n      mload\n      dup2\n      mstore\n      0x20\n      add\n      swap2\n      pop\n      dup1\n      mload\n      swap1\n      0x20\n      add\n      swap1\n      dup1\n      dup4\n      dup4\n      0x00\n    tag_38:\n      dup4\n      dup2\n      lt\n      iszero\n      tag_40\n      jumpi\n      dup1\n      dup3\n      add\n      mload\n      dup2\n      dup5\n      add\n      mstore\n      0x20\n      dup2\n      add\n      swap1\n      pop\n      jump(tag_38)\n    tag_40:\n      pop\n      pop\n      pop\n      pop\n      swap1\n      pop\n      swap1\n      dup2\n      add\n      swap1\n      0x1f\n      and\n      dup1\n      iszero\n      tag_41\n      jumpi\n      dup1\n      dup3\n      sub\n      dup1\n      mload\n      0x01\n      dup4\n      0x20\n      sub\n      0x0100\n      exp\n      sub\n      not\n      and\n      dup2\n      mstore\n      0x20\n      add\n      swap2\n      pop\n    tag_41:\n      pop\n      swap3\n      pop\n      pop\n      pop\n      mload(0x40)\n      dup1\n      swap2\n      sub\n      swap1\n      return\n        /* \"BEP20.sol\":3856:4014  function approve(address spender, uint256 amount) public override returns (bool) {... */\n    tag_4:\n      tag_42\n      0x04\n      dup1\n      calldatasize\n      sub\n      0x40\n      dup2\n      lt\n      iszero\n      tag_43\n      jumpi\n      0x00\n      dup1\n      revert\n    tag_43:\n      dup2\n      add\n      swap1\n      dup1\n      dup1\n      calldataload\n      0xffffffffffffffffffffffffffffffffffffffff\n      and\n      swap1\n      0x20\n      add\n      swap1\n      swap3\n      swap2\n      swap1\n      dup1\n      calldataload\n      swap1\n      0x20\n      add\n      swap1\n      swap3\n      swap2\n      swap1\n      pop\n      pop\n      pop\n      tag_44\n      jump\t// in\n    tag_42:\n      mload(0x40)\n      dup1\n      dup3\n      iszero\n      iszero\n      dup2\n      mstore\n      0x20\n      add\n      swap2\n      pop\n      pop\n      mload(0x40)\n      dup1\n      swap2\n      sub\n      swap1\n      return\n        /* \"BEP20.sol\":2883:2981  function totalSupply() public override view returns (uint256) {... */\n    tag_5:\n      tag_45\n      tag_46\n      jump\t// in\n    tag_45:\n      mload(0x40)\n      dup1\n      dup3\n      dup2\n      mstore\n      0x20\n      add\n      swap2\n      pop\n      pop\n      mload(0x40)\n      dup1\n      swap2\n      sub\n      swap1\n      return\n        /* \"FAANGToken.sol\":1599:1721  bytes32 public constant DOMAIN_TYPEHASH = keccak256(\"EIP712Domain(string name,uint256 chainId,address verifyingContract)\") */\n    tag_6:\n      tag_47\n      tag_48\n      jump\t// in\n    tag_47:\n      mload(0x40)\n      dup1\n      dup3\n      dup2\n      mstore\n      0x20\n      add\n      swap2\n      pop\n      pop\n      mload(0x40)\n      dup1\n      swap2\n      sub\n      swap1\n      return\n        /* \"BEP20.sol\":4471:4856  function transferFrom(... */\n    tag_7:\n      tag_49\n      0x04\n      dup1\n      calldatasize\n      sub\n      0x60\n      dup2\n      lt\n      iszero\n      tag_50\n      jumpi\n      0x00\n      dup1\n      revert\n    tag_50:\n      dup2\n      add\n      swap1\n      dup1\n      dup1\n      calldataload\n      0xffffffffffffffffffffffffffffffffffffffff\n      and\n      swap1\n      0x20\n      add\n      swap1\n      swap3\n      swap2\n      swap1\n      dup1\n      calldataload\n      0xffffffffffffffffffffffffffffffffffffffff\n      and\n      swap1\n      0x20\n      add\n      swap1\n      swap3\n      swap2\n      swap1\n      dup1\n      calldataload\n      swap1\n      0x20\n      add\n      swap1\n      swap3\n      swap2\n      swap1\n      pop\n      pop\n      pop\n      tag_51\n      jump\t// in\n    tag_49:\n      mload(0x40)\n      dup1\n      dup3\n      iszero\n      iszero\n      dup2\n      mstore\n      0x20\n      add\n      swap2\n      pop\n      pop\n      mload(0x40)\n      dup1\n      swap2\n      sub\n      swap1\n      return\n        /* \"BEP20.sol\":2580:2670  function decimals() public override view returns (uint8) {... */\n    tag_8:\n      tag_52\n      tag_53\n      jump\t// in\n    tag_52:\n      mload(0x40)\n      dup1\n      dup3\n      0xff\n      and\n      dup2\n      mstore\n      0x20\n      add\n      swap2\n      pop\n      pop\n      mload(0x40)\n      dup1\n      swap2\n      sub\n      swap1\n      return\n        /* \"BEP20.sol\":5250:5457  function increaseAllowance(address spender, uint256 addedValue) public returns (bool) {... */\n    tag_9:\n      tag_54\n      0x04\n      dup1\n      calldatasize\n      sub\n      0x40\n      dup2\n      lt\n      iszero\n      tag_55\n      jumpi\n      0x00\n      dup1\n      revert\n    tag_55:\n      dup2\n      add\n      swap1\n      dup1\n      dup1\n      calldataload\n      0xffffffffffffffffffffffffffffffffffffffff\n      and\n      swap1\n      0x20\n      add\n      swap1\n      swap3\n      swap2\n      swap1\n      dup1\n      calldataload\n      swap1\n      0x20\n      add\n      swap1\n      swap3\n      swap2\n      swap1\n      pop\n      pop\n      pop\n      tag_56\n      jump\t// in\n    tag_54:\n      mload(0x40)\n      dup1\n      dup3\n      iszero\n      iszero\n      dup2\n      mstore\n      0x20\n      add\n      swap2\n      pop\n      pop\n      mload(0x40)\n      dup1\n      swap2\n      sub\n      swap1\n      return\n        /* \"FAANGToken.sol\":449:608  function mint(address _to, uint256 _amount) public onlyOwner {... */\n    tag_10:\n      tag_57\n      0x04\n      dup1\n      calldatasize\n      sub\n      0x40\n      dup2\n      lt\n      iszero\n      tag_58\n      jumpi\n      0x00\n      dup1\n      revert\n    tag_58:\n      dup2\n      add\n      swap1\n      dup1\n      dup1\n      calldataload\n      0xffffffffffffffffffffffffffffffffffffffff\n      and\n      swap1\n      0x20\n      add\n      swap1\n      swap3\n      swap2\n      swap1\n      dup1\n      calldataload\n      swap1\n      0x20\n      add\n      swap1\n      swap3\n      swap2\n      swap1\n      pop\n      pop\n      pop\n      tag_59\n      jump\t// in\n    tag_57:\n      stop\n        /* \"FAANGToken.sol\":2564:2707  function delegates(address delegator)... */\n    tag_11:\n      tag_60\n      0x04\n      dup1\n      calldatasize\n      sub\n      0x20\n      dup2\n      lt\n      iszero\n      tag_61\n      jumpi\n      0x00\n      dup1\n      revert\n    tag_61:\n      dup2\n      add\n      swap1\n      dup1\n      dup1\n      calldataload\n      0xffffffffffffffffffffffffffffffffffffffff\n      and\n      swap1\n      0x20\n      add\n      swap1\n      swap3\n      swap2\n      swap1\n      pop\n      pop\n      pop\n      tag_62\n      jump\t// in\n    tag_60:\n      mload(0x40)\n      dup1\n      dup3\n      0xffffffffffffffffffffffffffffffffffffffff\n      and\n      dup2\n      mstore\n      0x20\n      add\n      swap2\n      pop\n      pop\n      mload(0x40)\n      dup1\n      swap2\n      sub\n      swap1\n      return\n        /* \"FAANGToken.sol\":2845:2947  function delegate(address delegatee) external {... */\n    tag_12:\n      tag_63\n      0x04\n      dup1\n      calldatasize\n      sub\n      0x20\n      dup2\n      lt\n      iszero\n      tag_64\n      jumpi\n      0x00\n      dup1\n      revert\n    tag_64:\n      dup2\n      add\n      swap1\n      dup1\n      dup1\n      calldataload\n      0xffffffffffffffffffffffffffffffffffffffff\n      and\n      swap1\n      0x20\n      add\n      swap1\n      swap3\n      swap2\n      swap1\n      pop\n      pop\n      pop\n      tag_65\n      jump\t// in\n    tag_63:\n      stop\n        /* \"FAANGToken.sol\":1480:1529  mapping (address => uint32) public numCheckpoints */\n    tag_13:\n      tag_66\n      0x04\n      dup1\n      calldatasize\n      sub\n      0x20\n      dup2\n      lt\n      iszero\n      tag_67\n      jumpi\n      0x00\n      dup1\n      revert\n    tag_67:\n      dup2\n      add\n      swap1\n      dup1\n      dup1\n      calldataload\n      0xffffffffffffffffffffffffffffffffffffffff\n      and\n      swap1\n      0x20\n      add\n      swap1\n      swap3\n      swap2\n      swap1\n      pop\n      pop\n      pop\n      tag_68\n      jump\t// in\n    tag_66:\n      mload(0x40)\n      dup1\n      dup3\n      0xffffffff\n      and\n      dup2\n      mstore\n      0x20\n      add\n      swap2\n      pop\n      pop\n      mload(0x40)\n      dup1\n      swap2\n      sub\n      swap1\n      return\n        /* \"BEP20.sol\":3038:3155  function balanceOf(address account) public override view returns (uint256) {... */\n    tag_14:\n      tag_69\n      0x04\n      dup1\n      calldatasize\n      sub\n      0x20\n      dup2\n      lt\n      iszero\n      tag_70\n      jumpi\n      0x00\n      dup1\n      revert\n    tag_70:\n      dup2\n      add\n      swap1\n      dup1\n      dup1\n      calldataload\n      0xffffffffffffffffffffffffffffffffffffffff\n      and\n      swap1\n      0x20\n      add\n      swap1\n      swap3\n      swap2\n      swap1\n      pop\n      pop\n      pop\n      tag_71\n      jump\t// in\n    tag_69:\n      mload(0x40)\n      dup1\n      dup3\n      dup2\n      mstore\n      0x20\n      add\n      swap2\n      pop\n      pop\n      mload(0x40)\n      dup1\n      swap2\n      sub\n      swap1\n      return\n        /* \"Ownable.sol\":1698:1835  function renounceOwnership() public onlyOwner {... */\n    tag_15:\n      tag_72\n      tag_73\n      jump\t// in\n    tag_72:\n      stop\n        /* \"FAANGToken.sol\":5374:6592  function getPriorVotes(address account, uint blockNumber)... */\n    tag_16:\n      tag_74\n      0x04\n      dup1\n      calldatasize\n      sub\n      0x40\n      dup2\n      lt\n      iszero\n      tag_75\n      jumpi\n      0x00\n      dup1\n      revert\n    tag_75:\n      dup2\n      add\n      swap1\n      dup1\n      dup1\n      calldataload\n      0xffffffffffffffffffffffffffffffffffffffff\n      and\n      swap1\n      0x20\n      add\n      swap1\n      swap3\n      swap2\n      swap1\n      dup1\n      calldataload\n      swap1\n      0x20\n      add\n      swap1\n      swap3\n      swap2\n      swap1\n      pop\n      pop\n      pop\n      tag_76\n      jump\t// in\n    tag_74:\n      mload(0x40)\n      dup1\n      dup3\n      dup2\n      mstore\n      0x20\n      add\n      swap2\n      pop\n      pop\n      mload(0x40)\n      dup1\n      swap2\n      sub\n      swap1\n      return\n        /* \"FAANGToken.sol\":2007:2046  mapping (address => uint) public nonces */\n    tag_17:\n      tag_77\n      0x04\n      dup1\n      calldatasize\n      sub\n      0x20\n      dup2\n      lt\n      iszero\n      tag_78\n      jumpi\n      0x00\n      dup1\n      revert\n    tag_78:\n      dup2\n      add\n      swap1\n      dup1\n      dup1\n      calldataload\n      0xffffffffffffffffffffffffffffffffffffffff\n      and\n      swap1\n      0x20\n      add\n      swap1\n      swap3\n      swap2\n      swap1\n      pop\n      pop\n      pop\n      tag_79\n      jump\t// in\n    tag_77:\n      mload(0x40)\n      dup1\n      dup3\n      dup2\n      mstore\n      0x20\n      add\n      swap2\n      pop\n      pop\n      mload(0x40)\n      dup1\n      swap2\n      sub\n      swap1\n      return\n        /* \"BEP20.sol\":2278:2370  function getOwner() external override view returns (address) {... */\n    tag_18:\n      tag_80\n      tag_81\n      jump\t// in\n    tag_80:\n      mload(0x40)\n      dup1\n      dup3\n      0xffffffffffffffffffffffffffffffffffffffff\n      and\n      dup2\n      mstore\n      0x20\n      add\n      swap2\n      pop\n      pop\n      mload(0x40)\n      dup1\n      swap2\n      sub\n      swap1\n      return\n        /* \"Ownable.sol\":1075:1152  function owner() public view returns (address) {... */\n    tag_19:\n      tag_82\n      tag_83\n      jump\t// in\n    tag_82:\n      mload(0x40)\n      dup1\n      dup3\n      0xffffffffffffffffffffffffffffffffffffffff\n      and\n      dup2\n      mstore\n      0x20\n      add\n      swap2\n      pop\n      pop\n      mload(0x40)\n      dup1\n      swap2\n      sub\n      swap1\n      return\n        /* \"BEP20.sol\":2730:2824  function symbol() public override view returns (string memory) {... */\n    tag_20:\n      tag_84\n      tag_85\n      jump\t// in\n    tag_84:\n      mload(0x40)\n      dup1\n      dup1\n      0x20\n      add\n      dup3\n      dup2\n      sub\n      dup3\n      mstore\n      dup4\n      dup2\n      dup2\n      mload\n      dup2\n      mstore\n      0x20\n      add\n      swap2\n      pop\n      dup1\n      mload\n      swap1\n      0x20\n      add\n      swap1\n      dup1\n      dup4\n      dup4\n      0x00\n    tag_86:\n      dup4\n      dup2\n      lt\n      iszero\n      tag_88\n      jumpi\n      dup1\n      dup3\n      add\n      mload\n      dup2\n      dup5\n      add\n      mstore\n      0x20\n      dup2\n      add\n      swap1\n      pop\n      jump(tag_86)\n    tag_88:\n      pop\n      pop\n      pop\n      pop\n      swap1\n      pop\n      swap1\n      dup2\n      add\n      swap1\n      0x1f\n      and\n      dup1\n      iszero\n      tag_89\n      jumpi\n      dup1\n      dup3\n      sub\n      dup1\n      mload\n      0x01\n      dup4\n      0x20\n      sub\n      0x0100\n      exp\n      sub\n      not\n      and\n      dup2\n      mstore\n      0x20\n      add\n      swap2\n      pop\n    tag_89:\n      pop\n      swap3\n      pop\n      pop\n      pop\n      mload(0x40)\n      dup1\n      swap2\n      sub\n      swap1\n      return\n        /* \"BEP20.sol\":6455:6582  function mint(uint256 amount) public onlyOwner returns (bool) {... */\n    tag_21:\n      tag_90\n      0x04\n      dup1\n      calldatasize\n      sub\n      0x20\n      dup2\n      lt\n      iszero\n      tag_91\n      jumpi\n      0x00\n      dup1\n      revert\n    tag_91:\n      dup2\n      add\n      swap1\n      dup1\n      dup1\n      calldataload\n      swap1\n      0x20\n      add\n      swap1\n      swap3\n      swap2\n      swap1\n      pop\n      pop\n      pop\n      tag_92\n      jump\t// in\n    tag_90:\n      mload(0x40)\n      dup1\n      dup3\n      iszero\n      iszero\n      dup2\n      mstore\n      0x20\n      add\n      swap2\n      pop\n      pop\n      mload(0x40)\n      dup1\n      swap2\n      sub\n      swap1\n      return\n        /* \"BEP20.sol\":5943:6247  function decreaseAllowance(address spender, uint256 subtractedValue) public returns (bool) {... */\n    tag_22:\n      tag_93\n      0x04\n      dup1\n      calldatasize\n      sub\n      0x40\n      dup2\n      lt\n      iszero\n      tag_94\n      jumpi\n      0x00\n      dup1\n      revert\n    tag_94:\n      dup2\n      add\n      swap1\n      dup1\n      dup1\n      calldataload\n      0xffffffffffffffffffffffffffffffffffffffff\n      and\n      swap1\n      0x20\n      add\n      swap1\n      swap3\n      swap2\n      swap1\n      dup1\n      calldataload\n      swap1\n      0x20\n      add\n      swap1\n      swap3\n      swap2\n      swap1\n      pop\n      pop\n      pop\n      tag_95\n      jump\t// in\n    tag_93:\n      mload(0x40)\n      dup1\n      dup3\n      iszero\n      iszero\n      dup2\n      mstore\n      0x20\n      add\n      swap2\n      pop\n      pop\n      mload(0x40)\n      dup1\n      swap2\n      sub\n      swap1\n      return\n        /* \"BEP20.sol\":3357:3521  function transfer(address recipient, uint256 amount) public override returns (bool) {... */\n    tag_23:\n      tag_96\n      0x04\n      dup1\n      calldatasize\n      sub\n      0x40\n      dup2\n      lt\n      iszero\n      tag_97\n      jumpi\n      0x00\n      dup1\n      revert\n    tag_97:\n      dup2\n      add\n      swap1\n      dup1\n      dup1\n      calldataload\n      0xffffffffffffffffffffffffffffffffffffffff\n      and\n      swap1\n      0x20\n      add\n      swap1\n      swap3\n      swap2\n      swap1\n      dup1\n      calldataload\n      swap1\n      0x20\n      add\n      swap1\n      swap3\n      swap2\n      swap1\n      pop\n      pop\n      pop\n      tag_98\n      jump\t// in\n    tag_96:\n      mload(0x40)\n      dup1\n      dup3\n      iszero\n      iszero\n      dup2\n      mstore\n      0x20\n      add\n      swap2\n      pop\n      pop\n      mload(0x40)\n      dup1\n      swap2\n      sub\n      swap1\n      return\n        /* \"FAANGToken.sol\":4704:4952  function getCurrentVotes(address account)... */\n    tag_24:\n      tag_99\n      0x04\n      dup1\n      calldatasize\n      sub\n      0x20\n      dup2\n      lt\n      iszero\n      tag_100\n      jumpi\n      0x00\n      dup1\n      revert\n    tag_100:\n      dup2\n      add\n      swap1\n      dup1\n      dup1\n      calldataload\n      0xffffffffffffffffffffffffffffffffffffffff\n      and\n      swap1\n      0x20\n      add\n      swap1\n      swap3\n      swap2\n      swap1\n      pop\n      pop\n      pop\n      tag_101\n      jump\t// in\n    tag_99:\n      mload(0x40)\n      dup1\n      dup3\n      dup2\n      mstore\n      0x20\n      add\n      swap2\n      pop\n      pop\n      mload(0x40)\n      dup1\n      swap2\n      sub\n      swap1\n      return\n        /* \"FAANGToken.sol\":3370:4510  function delegateBySig(... */\n    tag_25:\n      tag_102\n      0x04\n      dup1\n      calldatasize\n      sub\n      0xc0\n      dup2\n      lt\n      iszero\n      tag_103\n      jumpi\n      0x00\n      dup1\n      revert\n    tag_103:\n      dup2\n      add\n      swap1\n      dup1\n      dup1\n      calldataload\n      0xffffffffffffffffffffffffffffffffffffffff\n      and\n      swap1\n      0x20\n      add\n      swap1\n      swap3\n      swap2\n      swap1\n      dup1\n      calldataload\n      swap1\n      0x20\n      add\n      swap1\n      swap3\n      swap2\n      swap1\n      dup1\n      calldataload\n      swap1\n      0x20\n      add\n      swap1\n      swap3\n      swap2\n      swap1\n      dup1\n      calldataload\n      0xff\n      and\n      swap1\n      0x20\n      add\n      swap1\n      swap3\n      swap2\n      swap1\n      dup1\n      calldataload\n      swap1\n      0x20\n      add\n      swap1\n      swap3\n      swap2\n      swap1\n      dup1\n      calldataload\n      swap1\n      0x20\n      add\n      swap1\n      swap3\n      swap2\n      swap1\n      pop\n      pop\n      pop\n      tag_104\n      jump\t// in\n    tag_102:\n      stop\n        /* \"BEP20.sol\":3578:3719  function allowance(address owner, address spender) public override view returns (uint256) {... */\n    tag_26:\n      tag_105\n      0x04\n      dup1\n      calldatasize\n      sub\n      0x40\n      dup2\n      lt\n      iszero\n      tag_106\n      jumpi\n      0x00\n      dup1\n      revert\n    tag_106:\n      dup2\n      add\n      swap1\n      dup1\n      dup1\n      calldataload\n      0xffffffffffffffffffffffffffffffffffffffff\n      and\n      swap1\n      0x20\n      add\n      swap1\n      swap3\n      swap2\n      swap1\n      dup1\n      calldataload\n      0xffffffffffffffffffffffffffffffffffffffff\n      and\n      swap1\n      0x20\n      add\n      swap1\n      swap3\n      swap2\n      swap1\n      pop\n      pop\n      pop\n      tag_107\n      jump\t// in\n    tag_105:\n      mload(0x40)\n      dup1\n      dup3\n      dup2\n      mstore\n      0x20\n      add\n      swap2\n      pop\n      pop\n      mload(0x40)\n      dup1\n      swap2\n      sub\n      swap1\n      return\n        /* \"FAANGToken.sol\":1812:1929  bytes32 public constant DELEGATION_TYPEHASH = keccak256(\"Delegation(address delegatee,uint256 nonce,uint256 expiry)\") */\n    tag_27:\n      tag_108\n      tag_109\n      jump\t// in\n    tag_108:\n      mload(0x40)\n      dup1\n      dup3\n      dup2\n      mstore\n      0x20\n      add\n      swap2\n      pop\n      pop\n      mload(0x40)\n      dup1\n      swap2\n      sub\n      swap1\n      return\n        /* \"FAANGToken.sol\":1344:1414  mapping (address => mapping (uint32 => Checkpoint)) public checkpoints */\n    tag_28:\n      tag_110\n      0x04\n      dup1\n      calldatasize\n      sub\n      0x40\n      dup2\n      lt\n      iszero\n      tag_111\n      jumpi\n      0x00\n      dup1\n      revert\n    tag_111:\n      dup2\n      add\n      swap1\n      dup1\n      dup1\n      calldataload\n      0xffffffffffffffffffffffffffffffffffffffff\n      and\n      swap1\n      0x20\n      add\n      swap1\n      swap3\n      swap2\n      swap1\n      dup1\n      calldataload\n      0xffffffff\n      and\n      swap1\n      0x20\n      add\n      swap1\n      swap3\n      swap2\n      swap1\n      pop\n      pop\n      pop\n      tag_112\n      jump\t// in\n    tag_110:\n      mload(0x40)\n      dup1\n      dup4\n      0xffffffff\n      and\n      dup2\n      mstore\n      0x20\n      add\n      dup3\n      dup2\n      mstore\n      0x20\n      add\n      swap3\n      pop\n      pop\n      pop\n      mload(0x40)\n      dup1\n      swap2\n      sub\n      swap1\n      return\n        /* \"Ownable.sol\":1984:2091  function transferOwnership(address newOwner) public onlyOwner {... */\n    tag_29:\n      tag_113\n      0x04\n      dup1\n      calldatasize\n      sub\n      0x20\n      dup2\n      lt\n      iszero\n      tag_114\n      jumpi\n      0x00\n      dup1\n      revert\n    tag_114:\n      dup2\n      add\n      swap1\n      dup1\n      dup1\n      calldataload\n      0xffffffffffffffffffffffffffffffffffffffff\n      and\n      swap1\n      0x20\n      add\n      swap1\n      swap3\n      swap2\n      swap1\n      pop\n      pop\n      pop\n      tag_115\n      jump\t// in\n    tag_113:\n      stop\n        /* \"BEP20.sol\":2428:2518  function name() public override view returns (string memory) {... */\n    tag_37:\n        /* \"BEP20.sol\":2474:2487  string memory */\n      0x60\n        /* \"BEP20.sol\":2506:2511  _name */\n      0x04\n        /* \"BEP20.sol\":2499:2511  return _name */\n      dup1\n      sload\n      0x01\n      dup2\n      0x01\n      and\n      iszero\n      0x0100\n      mul\n      sub\n      and\n      0x02\n      swap1\n      div\n      dup1\n      0x1f\n      add\n      0x20\n      dup1\n      swap2\n      div\n      mul\n      0x20\n      add\n      mload(0x40)\n      swap1\n      dup2\n      add\n      0x40\n      mstore\n      dup1\n      swap3\n      swap2\n      swap1\n      dup2\n      dup2\n      mstore\n      0x20\n      add\n      dup3\n      dup1\n      sload\n      0x01\n      dup2\n      0x01\n      and\n      iszero\n      0x0100\n      mul\n      sub\n      and\n      0x02\n      swap1\n      div\n      dup1\n      iszero\n      tag_117\n      jumpi\n      dup1\n      0x1f\n      lt\n      tag_118\n      jumpi\n      0x0100\n      dup1\n      dup4\n      sload\n      div\n      mul\n      dup4\n      mstore\n      swap2\n      0x20\n      add\n      swap2\n      jump(tag_117)\n    tag_118:\n      dup3\n      add\n      swap2\n      swap1\n      0x00\n      mstore\n      keccak256(0x00, 0x20)\n      swap1\n    tag_119:\n      dup2\n      sload\n      dup2\n      mstore\n      swap1\n      0x01\n      add\n      swap1\n      0x20\n      add\n      dup1\n      dup4\n      gt\n      tag_119\n      jumpi\n      dup3\n      swap1\n      sub\n      0x1f\n      and\n      dup3\n      add\n      swap2\n    tag_117:\n      pop\n      pop\n      pop\n      pop\n      pop\n      swap1\n      pop\n        /* \"BEP20.sol\":2428:2518  function name() public override view returns (string memory) {... */\n      swap1\n      jump\t// out\n        /* \"BEP20.sol\":3856:4014  function approve(address spender, uint256 amount) public override returns (bool) {... */\n    tag_44:\n        /* \"BEP20.sol\":3931:3935  bool */\n      0x00\n        /* \"BEP20.sol\":3947:3986  _approve(_msgSender(), spender, amount) */\n      tag_121\n        /* \"BEP20.sol\":3956:3968  _msgSender() */\n      tag_122\n        /* \"BEP20.sol\":3956:3966  _msgSender */\n      tag_123\n        /* \"BEP20.sol\":3956:3968  _msgSender() */\n      jump\t// in\n    tag_122:\n        /* \"BEP20.sol\":3970:3977  spender */\n      dup5\n        /* \"BEP20.sol\":3979:3985  amount */\n      dup5\n        /* \"BEP20.sol\":3947:3955  _approve */\n      tag_124\n        /* \"BEP20.sol\":3947:3986  _approve(_msgSender(), spender, amount) */\n      jump\t// in\n    tag_121:\n        /* \"BEP20.sol\":4003:4007  true */\n      0x01\n        /* \"BEP20.sol\":3996:4007  return true */\n      swap1\n      pop\n        /* \"BEP20.sol\":3856:4014  function approve(address spender, uint256 amount) public override returns (bool) {... */\n      swap3\n      swap2\n      pop\n      pop\n      jump\t// out\n        /* \"BEP20.sol\":2883:2981  function totalSupply() public override view returns (uint256) {... */\n    tag_46:\n        /* \"BEP20.sol\":2936:2943  uint256 */\n      0x00\n        /* \"BEP20.sol\":2962:2974  _totalSupply */\n      sload(0x03)\n        /* \"BEP20.sol\":2955:2974  return _totalSupply */\n      swap1\n      pop\n        /* \"BEP20.sol\":2883:2981  function totalSupply() public override view returns (uint256) {... */\n      swap1\n      jump\t// out\n        /* \"FAANGToken.sol\":1599:1721  bytes32 public constant DOMAIN_TYPEHASH = keccak256(\"EIP712Domain(string name,uint256 chainId,address verifyingContract)\") */\n    tag_48:\n        /* \"FAANGToken.sol\":1641:1721  keccak256(\"EIP712Domain(string name,uint256 chainId,address verifyingContract)\") */\n      0x8cad95687ba82c2ce50e74f7b754645e5117c3a5bec8151c0726d5857980a866\n        /* \"FAANGToken.sol\":1599:1721  bytes32 public constant DOMAIN_TYPEHASH = keccak256(\"EIP712Domain(string name,uint256 chainId,address verifyingContract)\") */\n      dup2\n      jump\t// out\n        /* \"BEP20.sol\":4471:4856  function transferFrom(... */\n    tag_51:\n        /* \"BEP20.sol\":4599:4603  bool */\n      0x00\n        /* \"BEP20.sol\":4615:4651  _transfer(sender, recipient, amount) */\n      tag_127\n        /* \"BEP20.sol\":4625:4631  sender */\n      dup5\n        /* \"BEP20.sol\":4633:4642  recipient */\n      dup5\n        /* \"BEP20.sol\":4644:4650  amount */\n      dup5\n        /* \"BEP20.sol\":4615:4624  _transfer */\n      tag_128\n        /* \"BEP20.sol\":4615:4651  _transfer(sender, recipient, amount) */\n      jump\t// in\n    tag_127:\n        /* \"BEP20.sol\":4661:4828  _approve(... */\n      tag_129\n        /* \"BEP20.sol\":4683:4689  sender */\n      dup5\n        /* \"BEP20.sol\":4703:4715  _msgSender() */\n      tag_130\n        /* \"BEP20.sol\":4703:4713  _msgSender */\n      tag_123\n        /* \"BEP20.sol\":4703:4715  _msgSender() */\n      jump\t// in\n    tag_130:\n        /* \"BEP20.sol\":4729:4818  _allowances[sender][_msgSender()].sub(amount, 'BEP20: transfer amount exceeds allowance') */\n      tag_131\n        /* \"BEP20.sol\":4767:4773  amount */\n      dup6\n        /* \"BEP20.sol\":4729:4818  _allowances[sender][_msgSender()].sub(amount, 'BEP20: transfer amount exceeds allowance') */\n      mload(0x40)\n      dup1\n      0x60\n      add\n      0x40\n      mstore\n      dup1\n      0x28\n      dup2\n      mstore\n      0x20\n      add\n      data_4f3506f4ba71c79c3cbd442a3afeb30e9b27af2d84e116a4385b34e267d2287e\n      0x28\n      swap2\n      codecopy\n        /* \"BEP20.sol\":4729:4740  _allowances */\n      0x02\n        /* \"BEP20.sol\":4729:4748  _allowances[sender] */\n      0x00\n        /* \"BEP20.sol\":4741:4747  sender */\n      dup12\n        /* \"BEP20.sol\":4729:4748  _allowances[sender] */\n      0xffffffffffffffffffffffffffffffffffffffff\n      and\n      0xffffffffffffffffffffffffffffffffffffffff\n      and\n      dup2\n      mstore\n      0x20\n      add\n      swap1\n      dup2\n      mstore\n      0x20\n      add\n      0x00\n      keccak256\n        /* \"BEP20.sol\":4729:4762  _allowances[sender][_msgSender()] */\n      0x00\n        /* \"BEP20.sol\":4749:4761  _msgSender() */\n      tag_132\n        /* \"BEP20.sol\":4749:4759  _msgSender */\n      tag_123\n        /* \"BEP20.sol\":4749:4761  _msgSender() */\n      jump\t// in\n    tag_132:\n        /* \"BEP20.sol\":4729:4762  _allowances[sender][_msgSender()] */\n      0xffffffffffffffffffffffffffffffffffffffff\n      and\n      0xffffffffffffffffffffffffffffffffffffffff\n      and\n      dup2\n      mstore\n      0x20\n      add\n      swap1\n      dup2\n      mstore\n      0x20\n      add\n      0x00\n      keccak256\n      sload\n        /* \"BEP20.sol\":4729:4766  _allowances[sender][_msgSender()].sub */\n      tag_133\n      swap1\n        /* \"BEP20.sol\":4729:4818  _allowances[sender][_msgSender()].sub(amount, 'BEP20: transfer amount exceeds allowance') */\n      swap3\n      swap2\n      swap1\n      0xffffffff\n      and\n      jump\t// in\n    tag_131:\n        /* \"BEP20.sol\":4661:4669  _approve */\n      tag_124\n        /* \"BEP20.sol\":4661:4828  _approve(... */\n      jump\t// in\n    tag_129:\n        /* \"BEP20.sol\":4845:4849  true */\n      0x01\n        /* \"BEP20.sol\":4838:4849  return true */\n      swap1\n      pop\n        /* \"BEP20.sol\":4471:4856  function transferFrom(... */\n      swap4\n      swap3\n      pop\n      pop\n      pop\n      jump\t// out\n        /* \"BEP20.sol\":2580:2670  function decimals() public override view returns (uint8) {... */\n    tag_53:\n        /* \"BEP20.sol\":2630:2635  uint8 */\n      0x00\n        /* \"BEP20.sol\":2654:2663  _decimals */\n      0x06\n      0x00\n      swap1\n      sload\n      swap1\n      0x0100\n      exp\n      swap1\n      div\n      0xff\n      and\n        /* \"BEP20.sol\":2647:2663  return _decimals */\n      swap1\n      pop\n        /* \"BEP20.sol\":2580:2670  function decimals() public override view returns (uint8) {... */\n      swap1\n      jump\t// out\n        /* \"BEP20.sol\":5250:5457  function increaseAllowance(address spender, uint256 addedValue) public returns (bool) {... */\n    tag_56:\n        /* \"BEP20.sol\":5330:5334  bool */\n      0x00\n        /* \"BEP20.sol\":5346:5429  _approve(_msgSender(), spender, _allowances[_msgSender()][spender].add(addedValue)) */\n      tag_136\n        /* \"BEP20.sol\":5355:5367  _msgSender() */\n      tag_137\n        /* \"BEP20.sol\":5355:5365  _msgSender */\n      tag_123\n        /* \"BEP20.sol\":5355:5367  _msgSender() */\n      jump\t// in\n    tag_137:\n        /* \"BEP20.sol\":5369:5376  spender */\n      dup5\n        /* \"BEP20.sol\":5378:5428  _allowances[_msgSender()][spender].add(addedValue) */\n      tag_138\n        /* \"BEP20.sol\":5417:5427  addedValue */\n      dup6\n        /* \"BEP20.sol\":5378:5389  _allowances */\n      0x02\n        /* \"BEP20.sol\":5378:5403  _allowances[_msgSender()] */\n      0x00\n        /* \"BEP20.sol\":5390:5402  _msgSender() */\n      tag_139\n        /* \"BEP20.sol\":5390:5400  _msgSender */\n      tag_123\n        /* \"BEP20.sol\":5390:5402  _msgSender() */\n      jump\t// in\n    tag_139:\n        /* \"BEP20.sol\":5378:5403  _allowances[_msgSender()] */\n      0xffffffffffffffffffffffffffffffffffffffff\n      and\n      0xffffffffffffffffffffffffffffffffffffffff\n      and\n      dup2\n      mstore\n      0x20\n      add\n      swap1\n      dup2\n      mstore\n      0x20\n      add\n      0x00\n      keccak256\n        /* \"BEP20.sol\":5378:5412  _allowances[_msgSender()][spender] */\n      0x00\n        /* \"BEP20.sol\":5404:5411  spender */\n      dup10\n        /* \"BEP20.sol\":5378:5412  _allowances[_msgSender()][spender] */\n      0xffffffffffffffffffffffffffffffffffffffff\n      and\n      0xffffffffffffffffffffffffffffffffffffffff\n      and\n      dup2\n      mstore\n      0x20\n      add\n      swap1\n      dup2\n      mstore\n      0x20\n      add\n      0x00\n      keccak256\n      sload\n        /* \"BEP20.sol\":5378:5416  _allowances[_msgSender()][spender].add */\n      tag_140\n      swap1\n        /* \"BEP20.sol\":5378:5428  _allowances[_msgSender()][spender].add(addedValue) */\n      swap2\n      swap1\n      0xffffffff\n      and\n      jump\t// in\n    tag_138:\n        /* \"BEP20.sol\":5346:5354  _approve */\n      tag_124\n        /* \"BEP20.sol\":5346:5429  _approve(_msgSender(), spender, _allowances[_msgSender()][spender].add(addedValue)) */\n      jump\t// in\n    tag_136:\n        /* \"BEP20.sol\":5446:5450  true */\n      0x01\n        /* \"BEP20.sol\":5439:5450  return true */\n      swap1\n      pop\n        /* \"BEP20.sol\":5250:5457  function increaseAllowance(address spender, uint256 addedValue) public returns (bool) {... */\n      swap3\n      swap2\n      pop\n      pop\n      jump\t// out\n        /* \"FAANGToken.sol\":449:608  function mint(address _to, uint256 _amount) public onlyOwner {... */\n    tag_59:\n        /* \"Ownable.sol\":1289:1301  _msgSender() */\n      tag_142\n        /* \"Ownable.sol\":1289:1299  _msgSender */\n      tag_123\n        /* \"Ownable.sol\":1289:1301  _msgSender() */\n      jump\t// in\n    tag_142:\n        /* \"Ownable.sol\":1279:1301  _owner == _msgSender() */\n      0xffffffffffffffffffffffffffffffffffffffff\n      and\n        /* \"Ownable.sol\":1279:1285  _owner */\n      0x00\n      dup1\n      sload\n      swap1\n      0x0100\n      exp\n      swap1\n      div\n      0xffffffffffffffffffffffffffffffffffffffff\n      and\n        /* \"Ownable.sol\":1279:1301  _owner == _msgSender() */\n      0xffffffffffffffffffffffffffffffffffffffff\n      and\n      eq\n        /* \"Ownable.sol\":1271:1338  require(_owner == _msgSender(), 'Ownable: caller is not the owner') */\n      tag_143\n      jumpi\n      mload(0x40)\n      0x08c379a000000000000000000000000000000000000000000000000000000000\n      dup2\n      mstore\n      0x04\n      add\n      dup1\n      dup1\n      0x20\n      add\n      dup3\n      dup2\n      sub\n      dup3\n      mstore\n      0x20\n      dup2\n      mstore\n      0x20\n      add\n      dup1\n      0x4f776e61626c653a2063616c6c6572206973206e6f7420746865206f776e6572\n      dup2\n      mstore\n      pop\n      0x20\n      add\n      swap2\n      pop\n      pop\n      mload(0x40)\n      dup1\n      swap2\n      sub\n      swap1\n      revert\n    tag_143:\n        /* \"FAANGToken.sol\":520:539  _mint(_to, _amount) */\n      tag_145\n        /* \"FAANGToken.sol\":526:529  _to */\n      dup3\n        /* \"FAANGToken.sol\":531:538  _amount */\n      dup3\n        /* \"FAANGToken.sol\":520:525  _mint */\n      tag_146\n        /* \"FAANGToken.sol\":520:539  _mint(_to, _amount) */\n      jump\t// in\n    tag_145:\n        /* \"FAANGToken.sol\":549:601  _moveDelegates(address(0), _delegates[_to], _amount) */\n      tag_147\n        /* \"FAANGToken.sol\":572:573  0 */\n      0x00\n        /* \"FAANGToken.sol\":576:586  _delegates */\n      0x07\n        /* \"FAANGToken.sol\":576:591  _delegates[_to] */\n      0x00\n        /* \"FAANGToken.sol\":587:590  _to */\n      dup6\n        /* \"FAANGToken.sol\":576:591  _delegates[_to] */\n      0xffffffffffffffffffffffffffffffffffffffff\n      and\n      0xffffffffffffffffffffffffffffffffffffffff\n      and\n      dup2\n      mstore\n      0x20\n      add\n      swap1\n      dup2\n      mstore\n      0x20\n      add\n      0x00\n      keccak256\n      0x00\n      swap1\n      sload\n      swap1\n      0x0100\n      exp\n      swap1\n      div\n      0xffffffffffffffffffffffffffffffffffffffff\n      and\n        /* \"FAANGToken.sol\":593:600  _amount */\n      dup4\n        /* \"FAANGToken.sol\":549:563  _moveDelegates */\n      tag_148\n        /* \"FAANGToken.sol\":549:601  _moveDelegates(address(0), _delegates[_to], _amount) */\n      jump\t// in\n    tag_147:\n        /* \"FAANGToken.sol\":449:608  function mint(address _to, uint256 _amount) public onlyOwner {... */\n      pop\n      pop\n      jump\t// out\n        /* \"FAANGToken.sol\":2564:2707  function delegates(address delegator)... */\n    tag_62:\n        /* \"FAANGToken.sol\":2649:2656  address */\n      0x00\n        /* \"FAANGToken.sol\":2679:2689  _delegates */\n      0x07\n        /* \"FAANGToken.sol\":2679:2700  _delegates[delegator] */\n      0x00\n        /* \"FAANGToken.sol\":2690:2699  delegator */\n      dup4\n        /* \"FAANGToken.sol\":2679:2700  _delegates[delegator] */\n      0xffffffffffffffffffffffffffffffffffffffff\n      and\n      0xffffffffffffffffffffffffffffffffffffffff\n      and\n      dup2\n      mstore\n      0x20\n      add\n      swap1\n      dup2\n      mstore\n      0x20\n      add\n      0x00\n      keccak256\n      0x00\n      swap1\n      sload\n      swap1\n      0x0100\n      exp\n      swap1\n      div\n      0xffffffffffffffffffffffffffffffffffffffff\n      and\n        /* \"FAANGToken.sol\":2672:2700  return _delegates[delegator] */\n      swap1\n      pop\n        /* \"FAANGToken.sol\":2564:2707  function delegates(address delegator)... */\n      swap2\n      swap1\n      pop\n      jump\t// out\n        /* \"FAANGToken.sol\":2845:2947  function delegate(address delegatee) external {... */\n    tag_65:\n        /* \"FAANGToken.sol\":2908:2940  _delegate(msg.sender, delegatee) */\n      tag_151\n        /* \"FAANGToken.sol\":2918:2928  msg.sender */\n      caller\n        /* \"FAANGToken.sol\":2930:2939  delegatee */\n      dup3\n        /* \"FAANGToken.sol\":2908:2917  _delegate */\n      tag_152\n        /* \"FAANGToken.sol\":2908:2940  _delegate(msg.sender, delegatee) */\n      jump\t// in\n    tag_151:\n        /* \"FAANGToken.sol\":2845:2947  function delegate(address delegatee) external {... */\n      pop\n      jump\t// out\n        /* \"FAANGToken.sol\":1480:1529  mapping (address => uint32) public numCheckpoints */\n    tag_68:\n      mstore(0x20, 0x09)\n      dup1\n      0x00\n      mstore\n      keccak256(0x00, 0x40)\n      0x00\n      swap2\n      pop\n      sload\n      swap1\n      0x0100\n      exp\n      swap1\n      div\n      0xffffffff\n      and\n      dup2\n      jump\t// out\n        /* \"BEP20.sol\":3038:3155  function balanceOf(address account) public override view returns (uint256) {... */\n    tag_71:\n        /* \"BEP20.sol\":3104:3111  uint256 */\n      0x00\n        /* \"BEP20.sol\":3130:3139  _balances */\n      0x01\n        /* \"BEP20.sol\":3130:3148  _balances[account] */\n      0x00\n        /* \"BEP20.sol\":3140:3147  account */\n      dup4\n        /* \"BEP20.sol\":3130:3148  _balances[account] */\n      0xffffffffffffffffffffffffffffffffffffffff\n      and\n      0xffffffffffffffffffffffffffffffffffffffff\n      and\n      dup2\n      mstore\n      0x20\n      add\n      swap1\n      dup2\n      mstore\n      0x20\n      add\n      0x00\n      keccak256\n      sload\n        /* \"BEP20.sol\":3123:3148  return _balances[account] */\n      swap1\n      pop\n        /* \"BEP20.sol\":3038:3155  function balanceOf(address account) public override view returns (uint256) {... */\n      swap2\n      swap1\n      pop\n      jump\t// out\n        /* \"Ownable.sol\":1698:1835  function renounceOwnership() public onlyOwner {... */\n    tag_73:\n        /* \"Ownable.sol\":1289:1301  _msgSender() */\n      tag_155\n        /* \"Ownable.sol\":1289:1299  _msgSender */\n      tag_123\n        /* \"Ownable.sol\":1289:1301  _msgSender() */\n      jump\t// in\n    tag_155:\n        /* \"Ownable.sol\":1279:1301  _owner == _msgSender() */\n      0xffffffffffffffffffffffffffffffffffffffff\n      and\n        /* \"Ownable.sol\":1279:1285  _owner */\n      0x00\n      dup1\n      sload\n      swap1\n      0x0100\n      exp\n      swap1\n      div\n      0xffffffffffffffffffffffffffffffffffffffff\n      and\n        /* \"Ownable.sol\":1279:1301  _owner == _msgSender() */\n      0xffffffffffffffffffffffffffffffffffffffff\n      and\n      eq\n        /* \"Ownable.sol\":1271:1338  require(_owner == _msgSender(), 'Ownable: caller is not the owner') */\n      tag_156\n      jumpi\n      mload(0x40)\n      0x08c379a000000000000000000000000000000000000000000000000000000000\n      dup2\n      mstore\n      0x04\n      add\n      dup1\n      dup1\n      0x20\n      add\n      dup3\n      dup2\n      sub\n      dup3\n      mstore\n      0x20\n      dup2\n      mstore\n      0x20\n      add\n      dup1\n      0x4f776e61626c653a2063616c6c6572206973206e6f7420746865206f776e6572\n      dup2\n      mstore\n      pop\n      0x20\n      add\n      swap2\n      pop\n      pop\n      mload(0x40)\n      dup1\n      swap2\n      sub\n      swap1\n      revert\n    tag_156:\n        /* \"Ownable.sol\":1796:1797  0 */\n      0x00\n        /* \"Ownable.sol\":1759:1799  OwnershipTransferred(_owner, address(0)) */\n      0xffffffffffffffffffffffffffffffffffffffff\n      and\n        /* \"Ownable.sol\":1780:1786  _owner */\n      0x00\n      dup1\n      sload\n      swap1\n      0x0100\n      exp\n      swap1\n      div\n      0xffffffffffffffffffffffffffffffffffffffff\n      and\n        /* \"Ownable.sol\":1759:1799  OwnershipTransferred(_owner, address(0)) */\n      0xffffffffffffffffffffffffffffffffffffffff\n      and\n      0x8be0079c531659141344cd1fd0a4f28419497f9722a3daafe3b4186f6b6457e0\n      mload(0x40)\n      mload(0x40)\n      dup1\n      swap2\n      sub\n      swap1\n      log3\n        /* \"Ownable.sol\":1826:1827  0 */\n      0x00\n        /* \"Ownable.sol\":1809:1815  _owner */\n      dup1\n      0x00\n        /* \"Ownable.sol\":1809:1828  _owner = address(0) */\n      0x0100\n      exp\n      dup2\n      sload\n      dup2\n      0xffffffffffffffffffffffffffffffffffffffff\n      mul\n      not\n      and\n      swap1\n      dup4\n      0xffffffffffffffffffffffffffffffffffffffff\n      and\n      mul\n      or\n      swap1\n      sstore\n      pop\n        /* \"Ownable.sol\":1698:1835  function renounceOwnership() public onlyOwner {... */\n      jump\t// out\n        /* \"FAANGToken.sol\":5374:6592  function getPriorVotes(address account, uint blockNumber)... */\n    tag_76:\n        /* \"FAANGToken.sol\":5479:5486  uint256 */\n      0x00\n        /* \"FAANGToken.sol\":5524:5536  block.number */\n      number\n        /* \"FAANGToken.sol\":5510:5521  blockNumber */\n      dup3\n        /* \"FAANGToken.sol\":5510:5536  blockNumber < block.number */\n      lt\n        /* \"FAANGToken.sol\":5502:5581  require(blockNumber < block.number, \"FAANG::getPriorVotes: not yet determined\") */\n      tag_159\n      jumpi\n      mload(0x40)\n      0x08c379a000000000000000000000000000000000000000000000000000000000\n      dup2\n      mstore\n      0x04\n      add\n      dup1\n      dup1\n      0x20\n      add\n      dup3\n      dup2\n      sub\n      dup3\n      mstore\n      0x28\n      dup2\n      mstore\n      0x20\n      add\n      dup1\n      data_a28e71f425b32a6f04f74ff331d8c2092633e109e1699e090629ebd644e0e919\n      0x28\n      swap2\n      codecopy\n      0x40\n      add\n      swap2\n      pop\n      pop\n      mload(0x40)\n      dup1\n      swap2\n      sub\n      swap1\n      revert\n    tag_159:\n        /* \"FAANGToken.sol\":5592:5611  uint32 nCheckpoints */\n      0x00\n        /* \"FAANGToken.sol\":5614:5628  numCheckpoints */\n      0x09\n        /* \"FAANGToken.sol\":5614:5637  numCheckpoints[account] */\n      0x00\n        /* \"FAANGToken.sol\":5629:5636  account */\n      dup6\n        /* \"FAANGToken.sol\":5614:5637  numCheckpoints[account] */\n      0xffffffffffffffffffffffffffffffffffffffff\n      and\n      0xffffffffffffffffffffffffffffffffffffffff\n      and\n      dup2\n      mstore\n      0x20\n      add\n      swap1\n      dup2\n      mstore\n      0x20\n      add\n      0x00\n      keccak256\n      0x00\n      swap1\n      sload\n      swap1\n      0x0100\n      exp\n      swap1\n      div\n      0xffffffff\n      and\n        /* \"FAANGToken.sol\":5592:5637  uint32 nCheckpoints = numCheckpoints[account] */\n      swap1\n      pop\n        /* \"FAANGToken.sol\":5667:5668  0 */\n      0x00\n        /* \"FAANGToken.sol\":5651:5663  nCheckpoints */\n      dup2\n        /* \"FAANGToken.sol\":5651:5668  nCheckpoints == 0 */\n      0xffffffff\n      and\n      eq\n        /* \"FAANGToken.sol\":5647:5703  if (nCheckpoints == 0) {... */\n      iszero\n      tag_160\n      jumpi\n        /* \"FAANGToken.sol\":5691:5692  0 */\n      0x00\n        /* \"FAANGToken.sol\":5684:5692  return 0 */\n      swap2\n      pop\n      pop\n      jump(tag_158)\n        /* \"FAANGToken.sol\":5647:5703  if (nCheckpoints == 0) {... */\n    tag_160:\n        /* \"FAANGToken.sol\":5812:5823  blockNumber */\n      dup3\n        /* \"FAANGToken.sol\":5760:5771  checkpoints */\n      0x08\n        /* \"FAANGToken.sol\":5760:5780  checkpoints[account] */\n      0x00\n        /* \"FAANGToken.sol\":5772:5779  account */\n      dup7\n        /* \"FAANGToken.sol\":5760:5780  checkpoints[account] */\n      0xffffffffffffffffffffffffffffffffffffffff\n      and\n      0xffffffffffffffffffffffffffffffffffffffff\n      and\n      dup2\n      mstore\n      0x20\n      add\n      swap1\n      dup2\n      mstore\n      0x20\n      add\n      0x00\n      keccak256\n        /* \"FAANGToken.sol\":5760:5798  checkpoints[account][nCheckpoints - 1] */\n      0x00\n        /* \"FAANGToken.sol\":5796:5797  1 */\n      0x01\n        /* \"FAANGToken.sol\":5781:5793  nCheckpoints */\n      dup5\n        /* \"FAANGToken.sol\":5781:5797  nCheckpoints - 1 */\n      sub\n        /* \"FAANGToken.sol\":5760:5798  checkpoints[account][nCheckpoints - 1] */\n      0xffffffff\n      and\n      0xffffffff\n      and\n      dup2\n      mstore\n      0x20\n      add\n      swap1\n      dup2\n      mstore\n      0x20\n      add\n      0x00\n      keccak256\n        /* \"FAANGToken.sol\":5760:5808  checkpoints[account][nCheckpoints - 1].fromBlock */\n      0x00\n      add\n      0x00\n      swap1\n      sload\n      swap1\n      0x0100\n      exp\n      swap1\n      div\n      0xffffffff\n      and\n        /* \"FAANGToken.sol\":5760:5823  checkpoints[account][nCheckpoints - 1].fromBlock <= blockNumber */\n      0xffffffff\n      and\n      gt\n        /* \"FAANGToken.sol\":5756:5901  if (checkpoints[account][nCheckpoints - 1].fromBlock <= blockNumber) {... */\n      tag_161\n      jumpi\n        /* \"FAANGToken.sol\":5846:5857  checkpoints */\n      0x08\n        /* \"FAANGToken.sol\":5846:5866  checkpoints[account] */\n      0x00\n        /* \"FAANGToken.sol\":5858:5865  account */\n      dup6\n        /* \"FAANGToken.sol\":5846:5866  checkpoints[account] */\n      0xffffffffffffffffffffffffffffffffffffffff\n      and\n      0xffffffffffffffffffffffffffffffffffffffff\n      and\n      dup2\n      mstore\n      0x20\n      add\n      swap1\n      dup2\n      mstore\n      0x20\n      add\n      0x00\n      keccak256\n        /* \"FAANGToken.sol\":5846:5884  checkpoints[account][nCheckpoints - 1] */\n      0x00\n        /* \"FAANGToken.sol\":5882:5883  1 */\n      0x01\n        /* \"FAANGToken.sol\":5867:5879  nCheckpoints */\n      dup4\n        /* \"FAANGToken.sol\":5867:5883  nCheckpoints - 1 */\n      sub\n        /* \"FAANGToken.sol\":5846:5884  checkpoints[account][nCheckpoints - 1] */\n      0xffffffff\n      and\n      0xffffffff\n      and\n      dup2\n      mstore\n      0x20\n      add\n      swap1\n      dup2\n      mstore\n      0x20\n      add\n      0x00\n      keccak256\n        /* \"FAANGToken.sol\":5846:5890  checkpoints[account][nCheckpoints - 1].votes */\n      0x01\n      add\n      sload\n        /* \"FAANGToken.sol\":5839:5890  return checkpoints[account][nCheckpoints - 1].votes */\n      swap2\n      pop\n      pop\n      jump(tag_158)\n        /* \"FAANGToken.sol\":5756:5901  if (checkpoints[account][nCheckpoints - 1].fromBlock <= blockNumber) {... */\n    tag_161:\n        /* \"FAANGToken.sol\":5995:6006  blockNumber */\n      dup3\n        /* \"FAANGToken.sol\":5959:5970  checkpoints */\n      0x08\n        /* \"FAANGToken.sol\":5959:5979  checkpoints[account] */\n      0x00\n        /* \"FAANGToken.sol\":5971:5978  account */\n      dup7\n        /* \"FAANGToken.sol\":5959:5979  checkpoints[account] */\n      0xffffffffffffffffffffffffffffffffffffffff\n      and\n      0xffffffffffffffffffffffffffffffffffffffff\n      and\n      dup2\n      mstore\n      0x20\n      add\n      swap1\n      dup2\n      mstore\n      0x20\n      add\n      0x00\n      keccak256\n        /* \"FAANGToken.sol\":5959:5982  checkpoints[account][0] */\n      0x00\n        /* \"FAANGToken.sol\":5980:5981  0 */\n      dup1\n        /* \"FAANGToken.sol\":5959:5982  checkpoints[account][0] */\n      0xffffffff\n      and\n      dup2\n      mstore\n      0x20\n      add\n      swap1\n      dup2\n      mstore\n      0x20\n      add\n      0x00\n      keccak256\n        /* \"FAANGToken.sol\":5959:5992  checkpoints[account][0].fromBlock */\n      0x00\n      add\n      0x00\n      swap1\n      sload\n      swap1\n      0x0100\n      exp\n      swap1\n      div\n      0xffffffff\n      and\n        /* \"FAANGToken.sol\":5959:6006  checkpoints[account][0].fromBlock > blockNumber */\n      0xffffffff\n      and\n      gt\n        /* \"FAANGToken.sol\":5955:6041  if (checkpoints[account][0].fromBlock > blockNumber) {... */\n      iszero\n      tag_162\n      jumpi\n        /* \"FAANGToken.sol\":6029:6030  0 */\n      0x00\n        /* \"FAANGToken.sol\":6022:6030  return 0 */\n      swap2\n      pop\n      pop\n      jump(tag_158)\n        /* \"FAANGToken.sol\":5955:6041  if (checkpoints[account][0].fromBlock > blockNumber) {... */\n    tag_162:\n        /* \"FAANGToken.sol\":6051:6063  uint32 lower */\n      0x00\n        /* \"FAANGToken.sol\":6077:6089  uint32 upper */\n      dup1\n        /* \"FAANGToken.sol\":6107:6108  1 */\n      0x01\n        /* \"FAANGToken.sol\":6092:6104  nCheckpoints */\n      dup4\n        /* \"FAANGToken.sol\":6092:6108  nCheckpoints - 1 */\n      sub\n        /* \"FAANGToken.sol\":6077:6108  uint32 upper = nCheckpoints - 1 */\n      swap1\n      pop\n        /* \"FAANGToken.sol\":6118:6536  while (upper > lower) {... */\n    tag_163:\n        /* \"FAANGToken.sol\":6133:6138  lower */\n      dup2\n        /* \"FAANGToken.sol\":6125:6138  upper > lower */\n      0xffffffff\n      and\n        /* \"FAANGToken.sol\":6125:6130  upper */\n      dup2\n        /* \"FAANGToken.sol\":6125:6138  upper > lower */\n      0xffffffff\n      and\n      gt\n        /* \"FAANGToken.sol\":6118:6536  while (upper > lower) {... */\n      iszero\n      tag_164\n      jumpi\n        /* \"FAANGToken.sol\":6154:6167  uint32 center */\n      0x00\n        /* \"FAANGToken.sol\":6196:6197  2 */\n      0x02\n        /* \"FAANGToken.sol\":6187:6192  lower */\n      dup4\n        /* \"FAANGToken.sol\":6179:6184  upper */\n      dup4\n        /* \"FAANGToken.sol\":6179:6192  upper - lower */\n      sub\n        /* \"FAANGToken.sol\":6178:6197  (upper - lower) / 2 */\n      0xffffffff\n      and\n      dup2\n      tag_165\n      jumpi\n      invalid\n    tag_165:\n      div\n        /* \"FAANGToken.sol\":6170:6175  upper */\n      dup3\n        /* \"FAANGToken.sol\":6170:6197  upper - (upper - lower) / 2 */\n      sub\n        /* \"FAANGToken.sol\":6154:6197  uint32 center = upper - (upper - lower) / 2 */\n      swap1\n      pop\n        /* \"FAANGToken.sol\":6238:6258  Checkpoint memory cp */\n      tag_166\n      tag_167\n      jump\t// in\n    tag_166:\n        /* \"FAANGToken.sol\":6261:6272  checkpoints */\n      0x08\n        /* \"FAANGToken.sol\":6261:6281  checkpoints[account] */\n      0x00\n        /* \"FAANGToken.sol\":6273:6280  account */\n      dup10\n        /* \"FAANGToken.sol\":6261:6281  checkpoints[account] */\n      0xffffffffffffffffffffffffffffffffffffffff\n      and\n      0xffffffffffffffffffffffffffffffffffffffff\n      and\n      dup2\n      mstore\n      0x20\n      add\n      swap1\n      dup2\n      mstore\n      0x20\n      add\n      0x00\n      keccak256\n        /* \"FAANGToken.sol\":6261:6289  checkpoints[account][center] */\n      0x00\n        /* \"FAANGToken.sol\":6282:6288  center */\n      dup4\n        /* \"FAANGToken.sol\":6261:6289  checkpoints[account][center] */\n      0xffffffff\n      and\n      0xffffffff\n      and\n      dup2\n      mstore\n      0x20\n      add\n      swap1\n      dup2\n      mstore\n      0x20\n      add\n      0x00\n      keccak256\n        /* \"FAANGToken.sol\":6238:6289  Checkpoint memory cp = checkpoints[account][center] */\n      mload(0x40)\n      dup1\n      0x40\n      add\n      0x40\n      mstore\n      swap1\n      dup2\n      0x00\n      dup3\n      add\n      0x00\n      swap1\n      sload\n      swap1\n      0x0100\n      exp\n      swap1\n      div\n      0xffffffff\n      and\n      0xffffffff\n      and\n      0xffffffff\n      and\n      dup2\n      mstore\n      0x20\n      add\n      0x01\n      dup3\n      add\n      sload\n      dup2\n      mstore\n      pop\n      pop\n      swap1\n      pop\n        /* \"FAANGToken.sol\":6323:6334  blockNumber */\n      dup7\n        /* \"FAANGToken.sol\":6307:6309  cp */\n      dup2\n        /* \"FAANGToken.sol\":6307:6319  cp.fromBlock */\n      0x00\n      add\n      mload\n        /* \"FAANGToken.sol\":6307:6334  cp.fromBlock == blockNumber */\n      0xffffffff\n      and\n      eq\n        /* \"FAANGToken.sol\":6303:6526  if (cp.fromBlock == blockNumber) {... */\n      iszero\n      tag_168\n      jumpi\n        /* \"FAANGToken.sol\":6361:6363  cp */\n      dup1\n        /* \"FAANGToken.sol\":6361:6369  cp.votes */\n      0x20\n      add\n      mload\n        /* \"FAANGToken.sol\":6354:6369  return cp.votes */\n      swap6\n      pop\n      pop\n      pop\n      pop\n      pop\n      pop\n      jump(tag_158)\n        /* \"FAANGToken.sol\":6303:6526  if (cp.fromBlock == blockNumber) {... */\n    tag_168:\n        /* \"FAANGToken.sol\":6409:6420  blockNumber */\n      dup7\n        /* \"FAANGToken.sol\":6394:6396  cp */\n      dup2\n        /* \"FAANGToken.sol\":6394:6406  cp.fromBlock */\n      0x00\n      add\n      mload\n        /* \"FAANGToken.sol\":6394:6420  cp.fromBlock < blockNumber */\n      0xffffffff\n      and\n      lt\n        /* \"FAANGToken.sol\":6390:6526  if (cp.fromBlock < blockNumber) {... */\n      iszero\n      tag_170\n      jumpi\n        /* \"FAANGToken.sol\":6448:6454  center */\n      dup2\n        /* \"FAANGToken.sol\":6440:6454  lower = center */\n      swap4\n      pop\n        /* \"FAANGToken.sol\":6390:6526  if (cp.fromBlock < blockNumber) {... */\n      jump(tag_171)\n    tag_170:\n        /* \"FAANGToken.sol\":6510:6511  1 */\n      0x01\n        /* \"FAANGToken.sol\":6501:6507  center */\n      dup3\n        /* \"FAANGToken.sol\":6501:6511  center - 1 */\n      sub\n        /* \"FAANGToken.sol\":6493:6511  upper = center - 1 */\n      swap3\n      pop\n        /* \"FAANGToken.sol\":6390:6526  if (cp.fromBlock < blockNumber) {... */\n    tag_171:\n        /* \"FAANGToken.sol\":6118:6536  while (upper > lower) {... */\n      pop\n      pop\n      jump(tag_163)\n    tag_164:\n        /* \"FAANGToken.sol\":6552:6563  checkpoints */\n      0x08\n        /* \"FAANGToken.sol\":6552:6572  checkpoints[account] */\n      0x00\n        /* \"FAANGToken.sol\":6564:6571  account */\n      dup8\n        /* \"FAANGToken.sol\":6552:6572  checkpoints[account] */\n      0xffffffffffffffffffffffffffffffffffffffff\n      and\n      0xffffffffffffffffffffffffffffffffffffffff\n      and\n      dup2\n      mstore\n      0x20\n      add\n      swap1\n      dup2\n      mstore\n      0x20\n      add\n      0x00\n      keccak256\n        /* \"FAANGToken.sol\":6552:6579  checkpoints[account][lower] */\n      0x00\n        /* \"FAANGToken.sol\":6573:6578  lower */\n      dup4\n        /* \"FAANGToken.sol\":6552:6579  checkpoints[account][lower] */\n      0xffffffff\n      and\n      0xffffffff\n      and\n      dup2\n      mstore\n      0x20\n      add\n      swap1\n      dup2\n      mstore\n      0x20\n      add\n      0x00\n      keccak256\n        /* \"FAANGToken.sol\":6552:6585  checkpoints[account][lower].votes */\n      0x01\n      add\n      sload\n        /* \"FAANGToken.sol\":6545:6585  return checkpoints[account][lower].votes */\n      swap4\n      pop\n      pop\n      pop\n      pop\n        /* \"FAANGToken.sol\":5374:6592  function getPriorVotes(address account, uint blockNumber)... */\n    tag_158:\n      swap3\n      swap2\n      pop\n      pop\n      jump\t// out\n        /* \"FAANGToken.sol\":2007:2046  mapping (address => uint) public nonces */\n    tag_79:\n      mstore(0x20, 0x0a)\n      dup1\n      0x00\n      mstore\n      keccak256(0x00, 0x40)\n      0x00\n      swap2\n      pop\n      swap1\n      pop\n      sload\n      dup2\n      jump\t// out\n        /* \"BEP20.sol\":2278:2370  function getOwner() external override view returns (address) {... */\n    tag_81:\n        /* \"BEP20.sol\":2330:2337  address */\n      0x00\n        /* \"BEP20.sol\":2356:2363  owner() */\n      tag_173\n        /* \"BEP20.sol\":2356:2361  owner */\n      tag_83\n        /* \"BEP20.sol\":2356:2363  owner() */\n      jump\t// in\n    tag_173:\n        /* \"BEP20.sol\":2349:2363  return owner() */\n      swap1\n      pop\n        /* \"BEP20.sol\":2278:2370  function getOwner() external override view returns (address) {... */\n      swap1\n      jump\t// out\n        /* \"Ownable.sol\":1075:1152  function owner() public view returns (address) {... */\n    tag_83:\n        /* \"Ownable.sol\":1113:1120  address */\n      0x00\n        /* \"Ownable.sol\":1139:1145  _owner */\n      dup1\n      0x00\n      swap1\n      sload\n      swap1\n      0x0100\n      exp\n      swap1\n      div\n      0xffffffffffffffffffffffffffffffffffffffff\n      and\n        /* \"Ownable.sol\":1132:1145  return _owner */\n      swap1\n      pop\n        /* \"Ownable.sol\":1075:1152  function owner() public view returns (address) {... */\n      swap1\n      jump\t// out\n        /* \"BEP20.sol\":2730:2824  function symbol() public override view returns (string memory) {... */\n    tag_85:\n        /* \"BEP20.sol\":2778:2791  string memory */\n      0x60\n        /* \"BEP20.sol\":2810:2817  _symbol */\n      0x05\n        /* \"BEP20.sol\":2803:2817  return _symbol */\n      dup1\n      sload\n      0x01\n      dup2\n      0x01\n      and\n      iszero\n      0x0100\n      mul\n      sub\n      and\n      0x02\n      swap1\n      div\n      dup1\n      0x1f\n      add\n      0x20\n      dup1\n      swap2\n      div\n      mul\n      0x20\n      add\n      mload(0x40)\n      swap1\n      dup2\n      add\n      0x40\n      mstore\n      dup1\n      swap3\n      swap2\n      swap1\n      dup2\n      dup2\n      mstore\n      0x20\n      add\n      dup3\n      dup1\n      sload\n      0x01\n      dup2\n      0x01\n      and\n      iszero\n      0x0100\n      mul\n      sub\n      and\n      0x02\n      swap1\n      div\n      dup1\n      iszero\n      tag_176\n      jumpi\n      dup1\n      0x1f\n      lt\n      tag_177\n      jumpi\n      0x0100\n      dup1\n      dup4\n      sload\n      div\n      mul\n      dup4\n      mstore\n      swap2\n      0x20\n      add\n      swap2\n      jump(tag_176)\n    tag_177:\n      dup3\n      add\n      swap2\n      swap1\n      0x00\n      mstore\n      keccak256(0x00, 0x20)\n      swap1\n    tag_178:\n      dup2\n      sload\n      dup2\n      mstore\n      swap1\n      0x01\n      add\n      swap1\n      0x20\n      add\n      dup1\n      dup4\n      gt\n      tag_178\n      jumpi\n      dup3\n      swap1\n      sub\n      0x1f\n      and\n      dup3\n      add\n      swap2\n    tag_176:\n      pop\n      pop\n      pop\n      pop\n      pop\n      swap1\n      pop\n        /* \"BEP20.sol\":2730:2824  function symbol() public override view returns (string memory) {... */\n      swap1\n      jump\t// out\n        /* \"BEP20.sol\":6455:6582  function mint(uint256 amount) public onlyOwner returns (bool) {... */\n    tag_92:\n        /* \"BEP20.sol\":6511:6515  bool */\n      0x00\n        /* \"Ownable.sol\":1289:1301  _msgSender() */\n      tag_180\n        /* \"Ownable.sol\":1289:1299  _msgSender */\n      tag_123\n        /* \"Ownable.sol\":1289:1301  _msgSender() */\n      jump\t// in\n    tag_180:\n        /* \"Ownable.sol\":1279:1301  _owner == _msgSender() */\n      0xffffffffffffffffffffffffffffffffffffffff\n      and\n        /* \"Ownable.sol\":1279:1285  _owner */\n      0x00\n      dup1\n      sload\n      swap1\n      0x0100\n      exp\n      swap1\n      div\n      0xffffffffffffffffffffffffffffffffffffffff\n      and\n        /* \"Ownable.sol\":1279:1301  _owner == _msgSender() */\n      0xffffffffffffffffffffffffffffffffffffffff\n      and\n      eq\n        /* \"Ownable.sol\":1271:1338  require(_owner == _msgSender(), 'Ownable: caller is not the owner') */\n      tag_181\n      jumpi\n      mload(0x40)\n      0x08c379a000000000000000000000000000000000000000000000000000000000\n      dup2\n      mstore\n      0x04\n      add\n      dup1\n      dup1\n      0x20\n      add\n      dup3\n      dup2\n      sub\n      dup3\n      mstore\n      0x20\n      dup2\n      mstore\n      0x20\n      add\n      dup1\n      0x4f776e61626c653a2063616c6c6572206973206e6f7420746865206f776e6572\n      dup2\n      mstore\n      pop\n      0x20\n      add\n      swap2\n      pop\n      pop\n      mload(0x40)\n      dup1\n      swap2\n      sub\n      swap1\n      revert\n    tag_181:\n        /* \"BEP20.sol\":6527:6554  _mint(_msgSender(), amount) */\n      tag_183\n        /* \"BEP20.sol\":6533:6545  _msgSender() */\n      tag_184\n        /* \"BEP20.sol\":6533:6543  _msgSender */\n      tag_123\n        /* \"BEP20.sol\":6533:6545  _msgSender() */\n      jump\t// in\n    tag_184:\n        /* \"BEP20.sol\":6547:6553  amount */\n      dup4\n        /* \"BEP20.sol\":6527:6532  _mint */\n      tag_146\n        /* \"BEP20.sol\":6527:6554  _mint(_msgSender(), amount) */\n      jump\t// in\n    tag_183:\n        /* \"BEP20.sol\":6571:6575  true */\n      0x01\n        /* \"BEP20.sol\":6564:6575  return true */\n      swap1\n      pop\n        /* \"BEP20.sol\":6455:6582  function mint(uint256 amount) public onlyOwner returns (bool) {... */\n      swap2\n      swap1\n      pop\n      jump\t// out\n        /* \"BEP20.sol\":5943:6247  function decreaseAllowance(address spender, uint256 subtractedValue) public returns (bool) {... */\n    tag_95:\n        /* \"BEP20.sol\":6028:6032  bool */\n      0x00\n        /* \"BEP20.sol\":6044:6219  _approve(... */\n      tag_186\n        /* \"BEP20.sol\":6066:6078  _msgSender() */\n      tag_187\n        /* \"BEP20.sol\":6066:6076  _msgSender */\n      tag_123\n        /* \"BEP20.sol\":6066:6078  _msgSender() */\n      jump\t// in\n    tag_187:\n        /* \"BEP20.sol\":6092:6099  spender */\n      dup5\n        /* \"BEP20.sol\":6113:6209  _allowances[_msgSender()][spender].sub(subtractedValue, 'BEP20: decreased allowance below zero') */\n      tag_188\n        /* \"BEP20.sol\":6152:6167  subtractedValue */\n      dup6\n        /* \"BEP20.sol\":6113:6209  _allowances[_msgSender()][spender].sub(subtractedValue, 'BEP20: decreased allowance below zero') */\n      mload(0x40)\n      dup1\n      0x60\n      add\n      0x40\n      mstore\n      dup1\n      0x25\n      dup2\n      mstore\n      0x20\n      add\n      data_b7060b3538dcd3ddc8a941c91636a8115a1aa46914747fd9809d543bbb46cd22\n      0x25\n      swap2\n      codecopy\n        /* \"BEP20.sol\":6113:6124  _allowances */\n      0x02\n        /* \"BEP20.sol\":6113:6138  _allowances[_msgSender()] */\n      0x00\n        /* \"BEP20.sol\":6125:6137  _msgSender() */\n      tag_189\n        /* \"BEP20.sol\":6125:6135  _msgSender */\n      tag_123\n        /* \"BEP20.sol\":6125:6137  _msgSender() */\n      jump\t// in\n    tag_189:\n        /* \"BEP20.sol\":6113:6138  _allowances[_msgSender()] */\n      0xffffffffffffffffffffffffffffffffffffffff\n      and\n      0xffffffffffffffffffffffffffffffffffffffff\n      and\n      dup2\n      mstore\n      0x20\n      add\n      swap1\n      dup2\n      mstore\n      0x20\n      add\n      0x00\n      keccak256\n        /* \"BEP20.sol\":6113:6147  _allowances[_msgSender()][spender] */\n      0x00\n        /* \"BEP20.sol\":6139:6146  spender */\n      dup11\n        /* \"BEP20.sol\":6113:6147  _allowances[_msgSender()][spender] */\n      0xffffffffffffffffffffffffffffffffffffffff\n      and\n      0xffffffffffffffffffffffffffffffffffffffff\n      and\n      dup2\n      mstore\n      0x20\n      add\n      swap1\n      dup2\n      mstore\n      0x20\n      add\n      0x00\n      keccak256\n      sload\n        /* \"BEP20.sol\":6113:6151  _allowances[_msgSender()][spender].sub */\n      tag_133\n      swap1\n        /* \"BEP20.sol\":6113:6209  _allowances[_msgSender()][spender].sub(subtractedValue, 'BEP20: decreased allowance below zero') */\n      swap3\n      swap2\n      swap1\n      0xffffffff\n      and\n      jump\t// in\n    tag_188:\n        /* \"BEP20.sol\":6044:6052  _approve */\n      tag_124\n        /* \"BEP20.sol\":6044:6219  _approve(... */\n      jump\t// in\n    tag_186:\n        /* \"BEP20.sol\":6236:6240  true */\n      0x01\n        /* \"BEP20.sol\":6229:6240  return true */\n      swap1\n      pop\n        /* \"BEP20.sol\":5943:6247  function decreaseAllowance(address spender, uint256 subtractedValue) public returns (bool) {... */\n      swap3\n      swap2\n      pop\n      pop\n      jump\t// out\n        /* \"BEP20.sol\":3357:3521  function transfer(address recipient, uint256 amount) public override returns (bool) {... */\n    tag_98:\n        /* \"BEP20.sol\":3435:3439  bool */\n      0x00\n        /* \"BEP20.sol\":3451:3493  _transfer(_msgSender(), recipient, amount) */\n      tag_191\n        /* \"BEP20.sol\":3461:3473  _msgSender() */\n      tag_192\n        /* \"BEP20.sol\":3461:3471  _msgSender */\n      tag_123\n        /* \"BEP20.sol\":3461:3473  _msgSender() */\n      jump\t// in\n    tag_192:\n        /* \"BEP20.sol\":3475:3484  recipient */\n      dup5\n        /* \"BEP20.sol\":3486:3492  amount */\n      dup5\n        /* \"BEP20.sol\":3451:3460  _transfer */\n      tag_128\n        /* \"BEP20.sol\":3451:3493  _transfer(_msgSender(), recipient, amount) */\n      jump\t// in\n    tag_191:\n        /* \"BEP20.sol\":3510:3514  true */\n      0x01\n        /* \"BEP20.sol\":3503:3514  return true */\n      swap1\n      pop\n        /* \"BEP20.sol\":3357:3521  function transfer(address recipient, uint256 amount) public override returns (bool) {... */\n      swap3\n      swap2\n      pop\n      pop\n      jump\t// out\n        /* \"FAANGToken.sol\":4704:4952  function getCurrentVotes(address account)... */\n    tag_101:\n        /* \"FAANGToken.sol\":4793:4800  uint256 */\n      0x00\n        /* \"FAANGToken.sol\":4816:4835  uint32 nCheckpoints */\n      dup1\n        /* \"FAANGToken.sol\":4838:4852  numCheckpoints */\n      0x09\n        /* \"FAANGToken.sol\":4838:4861  numCheckpoints[account] */\n      0x00\n        /* \"FAANGToken.sol\":4853:4860  account */\n      dup5\n        /* \"FAANGToken.sol\":4838:4861  numCheckpoints[account] */\n      0xffffffffffffffffffffffffffffffffffffffff\n      and\n      0xffffffffffffffffffffffffffffffffffffffff\n      and\n      dup2\n      mstore\n      0x20\n      add\n      swap1\n      dup2\n      mstore\n      0x20\n      add\n      0x00\n      keccak256\n      0x00\n      swap1\n      sload\n      swap1\n      0x0100\n      exp\n      swap1\n      div\n      0xffffffff\n      and\n        /* \"FAANGToken.sol\":4816:4861  uint32 nCheckpoints = numCheckpoints[account] */\n      swap1\n      pop\n        /* \"FAANGToken.sol\":4893:4894  0 */\n      0x00\n        /* \"FAANGToken.sol\":4878:4890  nCheckpoints */\n      dup2\n        /* \"FAANGToken.sol\":4878:4894  nCheckpoints > 0 */\n      0xffffffff\n      and\n      gt\n        /* \"FAANGToken.sol\":4878:4945  nCheckpoints > 0 ? checkpoints[account][nCheckpoints - 1].votes : 0 */\n      tag_194\n      jumpi\n        /* \"FAANGToken.sol\":4944:4945  0 */\n      0x00\n        /* \"FAANGToken.sol\":4878:4945  nCheckpoints > 0 ? checkpoints[account][nCheckpoints - 1].votes : 0 */\n      jump(tag_195)\n    tag_194:\n        /* \"FAANGToken.sol\":4897:4908  checkpoints */\n      0x08\n        /* \"FAANGToken.sol\":4897:4917  checkpoints[account] */\n      0x00\n        /* \"FAANGToken.sol\":4909:4916  account */\n      dup5\n        /* \"FAANGToken.sol\":4897:4917  checkpoints[account] */\n      0xffffffffffffffffffffffffffffffffffffffff\n      and\n      0xffffffffffffffffffffffffffffffffffffffff\n      and\n      dup2\n      mstore\n      0x20\n      add\n      swap1\n      dup2\n      mstore\n      0x20\n      add\n      0x00\n      keccak256\n        /* \"FAANGToken.sol\":4897:4935  checkpoints[account][nCheckpoints - 1] */\n      0x00\n        /* \"FAANGToken.sol\":4933:4934  1 */\n      0x01\n        /* \"FAANGToken.sol\":4918:4930  nCheckpoints */\n      dup4\n        /* \"FAANGToken.sol\":4918:4934  nCheckpoints - 1 */\n      sub\n        /* \"FAANGToken.sol\":4897:4935  checkpoints[account][nCheckpoints - 1] */\n      0xffffffff\n      and\n      0xffffffff\n      and\n      dup2\n      mstore\n      0x20\n      add\n      swap1\n      dup2\n      mstore\n      0x20\n      add\n      0x00\n      keccak256\n        /* \"FAANGToken.sol\":4897:4941  checkpoints[account][nCheckpoints - 1].votes */\n      0x01\n      add\n      sload\n        /* \"FAANGToken.sol\":4878:4945  nCheckpoints > 0 ? checkpoints[account][nCheckpoints - 1].votes : 0 */\n    tag_195:\n        /* \"FAANGToken.sol\":4871:4945  return nCheckpoints > 0 ? checkpoints[account][nCheckpoints - 1].votes : 0 */\n      swap2\n      pop\n      pop\n        /* \"FAANGToken.sol\":4704:4952  function getCurrentVotes(address account)... */\n      swap2\n      swap1\n      pop\n      jump\t// out\n        /* \"FAANGToken.sol\":3370:4510  function delegateBySig(... */\n    tag_104:\n        /* \"FAANGToken.sol\":3553:3576  bytes32 domainSeparator */\n      0x00\n        /* \"FAANGToken.sol\":1641:1721  keccak256(\"EIP712Domain(string name,uint256 chainId,address verifyingContract)\") */\n      0x8cad95687ba82c2ce50e74f7b754645e5117c3a5bec8151c0726d5857980a866\n        /* \"FAANGToken.sol\":3679:3685  name() */\n      tag_197\n        /* \"FAANGToken.sol\":3679:3683  name */\n      tag_37\n        /* \"FAANGToken.sol\":3679:3685  name() */\n      jump\t// in\n    tag_197:\n        /* \"FAANGToken.sol\":3663:3687  keccak256(bytes(name())) */\n      dup1\n      mload\n      swap1\n      0x20\n      add\n      keccak256\n        /* \"FAANGToken.sol\":3705:3717  getChainId() */\n      tag_198\n        /* \"FAANGToken.sol\":3705:3715  getChainId */\n      tag_199\n        /* \"FAANGToken.sol\":3705:3717  getChainId() */\n      jump\t// in\n    tag_198:\n        /* \"FAANGToken.sol\":3743:3747  this */\n      address\n        /* \"FAANGToken.sol\":3602:3762  abi.encode(... */\n      add(0x20, mload(0x40))\n      dup1\n      dup6\n      dup2\n      mstore\n      0x20\n      add\n      dup5\n      dup2\n      mstore\n      0x20\n      add\n      dup4\n      dup2\n      mstore\n      0x20\n      add\n      dup3\n      0xffffffffffffffffffffffffffffffffffffffff\n      and\n      dup2\n      mstore\n      0x20\n      add\n      swap5\n      pop\n      pop\n      pop\n      pop\n      pop\n      mload(0x40)\n      0x20\n      dup2\n      dup4\n      sub\n      sub\n      dup2\n      mstore\n      swap1\n      0x40\n      mstore\n        /* \"FAANGToken.sol\":3579:3772  keccak256(... */\n      dup1\n      mload\n      swap1\n      0x20\n      add\n      keccak256\n        /* \"FAANGToken.sol\":3553:3772  bytes32 domainSeparator = keccak256(... */\n      swap1\n      pop\n        /* \"FAANGToken.sol\":3783:3801  bytes32 structHash */\n      0x00\n        /* \"FAANGToken.sol\":1858:1929  keccak256(\"Delegation(address delegatee,uint256 nonce,uint256 expiry)\") */\n      0xe48329057bfd03d55e49b547132e39cffd9c1820ad7b9d4c5307691425d15adf\n        /* \"FAANGToken.sol\":3892:3901  delegatee */\n      dup9\n        /* \"FAANGToken.sol\":3919:3924  nonce */\n      dup9\n        /* \"FAANGToken.sol\":3942:3948  expiry */\n      dup9\n        /* \"FAANGToken.sol\":3827:3962  abi.encode(... */\n      add(0x20, mload(0x40))\n      dup1\n      dup6\n      dup2\n      mstore\n      0x20\n      add\n      dup5\n      0xffffffffffffffffffffffffffffffffffffffff\n      and\n      dup2\n      mstore\n      0x20\n      add\n      dup4\n      dup2\n      mstore\n      0x20\n      add\n      dup3\n      dup2\n      mstore\n      0x20\n      add\n      swap5\n      pop\n      pop\n      pop\n      pop\n      pop\n      mload(0x40)\n      0x20\n      dup2\n      dup4\n      sub\n      sub\n      dup2\n      mstore\n      swap1\n      0x40\n      mstore\n        /* \"FAANGToken.sol\":3804:3972  keccak256(... */\n      dup1\n      mload\n      swap1\n      0x20\n      add\n      keccak256\n        /* \"FAANGToken.sol\":3783:3972  bytes32 structHash = keccak256(... */\n      swap1\n      pop\n        /* \"FAANGToken.sol\":3983:3997  bytes32 digest */\n      0x00\n        /* \"FAANGToken.sol\":4085:4100  domainSeparator */\n      dup3\n        /* \"FAANGToken.sol\":4118:4128  structHash */\n      dup3\n        /* \"FAANGToken.sol\":4023:4142  abi.encodePacked(... */\n      add(0x20, mload(0x40))\n      dup1\n      dup1\n      0x1901000000000000000000000000000000000000000000000000000000000000\n      dup2\n      mstore\n      pop\n      0x02\n      add\n      dup4\n      dup2\n      mstore\n      0x20\n      add\n      dup3\n      dup2\n      mstore\n      0x20\n      add\n      swap3\n      pop\n      pop\n      pop\n      mload(0x40)\n      0x20\n      dup2\n      dup4\n      sub\n      sub\n      dup2\n      mstore\n      swap1\n      0x40\n      mstore\n        /* \"FAANGToken.sol\":4000:4152  keccak256(... */\n      dup1\n      mload\n      swap1\n      0x20\n      add\n      keccak256\n        /* \"FAANGToken.sol\":3983:4152  bytes32 digest = keccak256(... */\n      swap1\n      pop\n        /* \"FAANGToken.sol\":4163:4180  address signatory */\n      0x00\n        /* \"FAANGToken.sol\":4183:4209  ecrecover(digest, v, r, s) */\n      0x01\n        /* \"FAANGToken.sol\":4193:4199  digest */\n      dup3\n        /* \"FAANGToken.sol\":4201:4202  v */\n      dup9\n        /* \"FAANGToken.sol\":4204:4205  r */\n      dup9\n        /* \"FAANGToken.sol\":4207:4208  s */\n      dup9\n        /* \"FAANGToken.sol\":4183:4209  ecrecover(digest, v, r, s) */\n      mload(0x40)\n      0x00\n      dup2\n      mstore\n      0x20\n      add\n      0x40\n      mstore\n      mload(0x40)\n      dup1\n      dup6\n      dup2\n      mstore\n      0x20\n      add\n      dup5\n      0xff\n      and\n      dup2\n      mstore\n      0x20\n      add\n      dup4\n      dup2\n      mstore\n      0x20\n      add\n      dup3\n      dup2\n      mstore\n      0x20\n      add\n      swap5\n      pop\n      pop\n      pop\n      pop\n      pop\n      0x20\n      mload(0x40)\n      0x20\n      dup2\n      sub\n      swap1\n      dup1\n      dup5\n      sub\n      swap1\n      dup6\n      gas\n      staticcall\n      iszero\n      dup1\n      iszero\n      tag_201\n      jumpi\n      returndatasize\n      0x00\n      dup1\n      returndatacopy\n      revert(0x00, returndatasize)\n    tag_201:\n      pop\n      pop\n      pop\n      mload(sub(mload(0x40), 0x20))\n        /* \"FAANGToken.sol\":4163:4209  address signatory = ecrecover(digest, v, r, s) */\n      swap1\n      pop\n        /* \"FAANGToken.sol\":4248:4249  0 */\n      0x00\n        /* \"FAANGToken.sol\":4227:4250  signatory != address(0) */\n      0xffffffffffffffffffffffffffffffffffffffff\n      and\n        /* \"FAANGToken.sol\":4227:4236  signatory */\n      dup2\n        /* \"FAANGToken.sol\":4227:4250  signatory != address(0) */\n      0xffffffffffffffffffffffffffffffffffffffff\n      and\n      eq\n      iszero\n        /* \"FAANGToken.sol\":4219:4294  require(signatory != address(0), \"FAANG::delegateBySig: invalid signature\") */\n      tag_202\n      jumpi\n      mload(0x40)\n      0x08c379a000000000000000000000000000000000000000000000000000000000\n      dup2\n      mstore\n      0x04\n      add\n      dup1\n      dup1\n      0x20\n      add\n      dup3\n      dup2\n      sub\n      dup3\n      mstore\n      0x27\n      dup2\n      mstore\n      0x20\n      add\n      dup1\n      data_ac540f2a2a250acc678ed3f8d5fbddb917dcf58b26f411915aa20a10f0a75b33\n      0x27\n      swap2\n      codecopy\n      0x40\n      add\n      swap2\n      pop\n      pop\n      mload(0x40)\n      dup1\n      swap2\n      sub\n      swap1\n      revert\n    tag_202:\n        /* \"FAANGToken.sol\":4321:4327  nonces */\n      0x0a\n        /* \"FAANGToken.sol\":4321:4338  nonces[signatory] */\n      0x00\n        /* \"FAANGToken.sol\":4328:4337  signatory */\n      dup3\n        /* \"FAANGToken.sol\":4321:4338  nonces[signatory] */\n      0xffffffffffffffffffffffffffffffffffffffff\n      and\n      0xffffffffffffffffffffffffffffffffffffffff\n      and\n      dup2\n      mstore\n      0x20\n      add\n      swap1\n      dup2\n      mstore\n      0x20\n      add\n      0x00\n      keccak256\n      0x00\n        /* \"FAANGToken.sol\":4321:4340  nonces[signatory]++ */\n      dup2\n      sload\n      dup1\n      swap3\n      swap2\n      swap1\n      0x01\n      add\n      swap2\n      swap1\n      pop\n      sstore\n        /* \"FAANGToken.sol\":4312:4317  nonce */\n      dup10\n        /* \"FAANGToken.sol\":4312:4340  nonce == nonces[signatory]++ */\n      eq\n        /* \"FAANGToken.sol\":4304:4380  require(nonce == nonces[signatory]++, \"FAANG::delegateBySig: invalid nonce\") */\n      tag_203\n      jumpi\n      mload(0x40)\n      0x08c379a000000000000000000000000000000000000000000000000000000000\n      dup2\n      mstore\n      0x04\n      add\n      dup1\n      dup1\n      0x20\n      add\n      dup3\n      dup2\n      sub\n      dup3\n      mstore\n      0x23\n      dup2\n      mstore\n      0x20\n      add\n      dup1\n      data_35f2f56bf70e2ae759087dc220b0e72189b8ee2f10efb0cfa38fabfa2765e306\n      0x23\n      swap2\n      codecopy\n      0x40\n      add\n      swap2\n      pop\n      pop\n      mload(0x40)\n      dup1\n      swap2\n      sub\n      swap1\n      revert\n    tag_203:\n        /* \"FAANGToken.sol\":4405:4411  expiry */\n      dup8\n        /* \"FAANGToken.sol\":4398:4401  now */\n      timestamp\n        /* \"FAANGToken.sol\":4398:4411  now <= expiry */\n      gt\n      iszero\n        /* \"FAANGToken.sol\":4390:4455  require(now <= expiry, \"FAANG::delegateBySig: signature expired\") */\n      tag_204\n      jumpi\n      mload(0x40)\n      0x08c379a000000000000000000000000000000000000000000000000000000000\n      dup2\n      mstore\n      0x04\n      add\n      dup1\n      dup1\n      0x20\n      add\n      dup3\n      dup2\n      sub\n      dup3\n      mstore\n      0x27\n      dup2\n      mstore\n      0x20\n      add\n      dup1\n      data_44598df16e77d2968590d69e49f5e86c22c3347773526912228964ebf0bce0e2\n      0x27\n      swap2\n      codecopy\n      0x40\n      add\n      swap2\n      pop\n      pop\n      mload(0x40)\n      dup1\n      swap2\n      sub\n      swap1\n      revert\n    tag_204:\n        /* \"FAANGToken.sol\":4472:4503  _delegate(signatory, delegatee) */\n      tag_205\n        /* \"FAANGToken.sol\":4482:4491  signatory */\n      dup2\n        /* \"FAANGToken.sol\":4493:4502  delegatee */\n      dup12\n        /* \"FAANGToken.sol\":4472:4481  _delegate */\n      tag_152\n        /* \"FAANGToken.sol\":4472:4503  _delegate(signatory, delegatee) */\n      jump\t// in\n    tag_205:\n        /* \"FAANGToken.sol\":4465:4503  return _delegate(signatory, delegatee) */\n      pop\n      pop\n      pop\n      pop\n        /* \"FAANGToken.sol\":3370:4510  function delegateBySig(... */\n      pop\n      pop\n      pop\n      pop\n      pop\n      pop\n      jump\t// out\n        /* \"BEP20.sol\":3578:3719  function allowance(address owner, address spender) public override view returns (uint256) {... */\n    tag_107:\n        /* \"BEP20.sol\":3659:3666  uint256 */\n      0x00\n        /* \"BEP20.sol\":3685:3696  _allowances */\n      0x02\n        /* \"BEP20.sol\":3685:3703  _allowances[owner] */\n      0x00\n        /* \"BEP20.sol\":3697:3702  owner */\n      dup5\n        /* \"BEP20.sol\":3685:3703  _allowances[owner] */\n      0xffffffffffffffffffffffffffffffffffffffff\n      and\n      0xffffffffffffffffffffffffffffffffffffffff\n      and\n      dup2\n      mstore\n      0x20\n      add\n      swap1\n      dup2\n      mstore\n      0x20\n      add\n      0x00\n      keccak256\n        /* \"BEP20.sol\":3685:3712  _allowances[owner][spender] */\n      0x00\n        /* \"BEP20.sol\":3704:3711  spender */\n      dup4\n        /* \"BEP20.sol\":3685:3712  _allowances[owner][spender] */\n      0xffffffffffffffffffffffffffffffffffffffff\n      and\n      0xffffffffffffffffffffffffffffffffffffffff\n      and\n      dup2\n      mstore\n      0x20\n      add\n      swap1\n      dup2\n      mstore\n      0x20\n      add\n      0x00\n      keccak256\n      sload\n        /* \"BEP20.sol\":3678:3712  return _allowances[owner][spender] */\n      swap1\n      pop\n        /* \"BEP20.sol\":3578:3719  function allowance(address owner, address spender) public override view returns (uint256) {... */\n      swap3\n      swap2\n      pop\n      pop\n      jump\t// out\n        /* \"FAANGToken.sol\":1812:1929  bytes32 public constant DELEGATION_TYPEHASH = keccak256(\"Delegation(address delegatee,uint256 nonce,uint256 expiry)\") */\n    tag_109:\n        /* \"FAANGToken.sol\":1858:1929  keccak256(\"Delegation(address delegatee,uint256 nonce,uint256 expiry)\") */\n      0xe48329057bfd03d55e49b547132e39cffd9c1820ad7b9d4c5307691425d15adf\n        /* \"FAANGToken.sol\":1812:1929  bytes32 public constant DELEGATION_TYPEHASH = keccak256(\"Delegation(address delegatee,uint256 nonce,uint256 expiry)\") */\n      dup2\n      jump\t// out\n        /* \"FAANGToken.sol\":1344:1414  mapping (address => mapping (uint32 => Checkpoint)) public checkpoints */\n    tag_112:\n      mstore(0x20, 0x08)\n      dup2\n      0x00\n      mstore\n      mstore(0x20, keccak256(0x00, 0x40))\n      dup1\n      0x00\n      mstore\n      keccak256(0x00, 0x40)\n      0x00\n      swap2\n      pop\n      swap2\n      pop\n      pop\n      dup1\n      0x00\n      add\n      0x00\n      swap1\n      sload\n      swap1\n      0x0100\n      exp\n      swap1\n      div\n      0xffffffff\n      and\n      swap1\n      dup1\n      0x01\n      add\n      sload\n      swap1\n      pop\n      dup3\n      jump\t// out\n        /* \"Ownable.sol\":1984:2091  function transferOwnership(address newOwner) public onlyOwner {... */\n    tag_115:\n        /* \"Ownable.sol\":1289:1301  _msgSender() */\n      tag_208\n        /* \"Ownable.sol\":1289:1299  _msgSender */\n      tag_123\n        /* \"Ownable.sol\":1289:1301  _msgSender() */\n      jump\t// in\n    tag_208:\n        /* \"Ownable.sol\":1279:1301  _owner == _msgSender() */\n      0xffffffffffffffffffffffffffffffffffffffff\n      and\n        /* \"Ownable.sol\":1279:1285  _owner */\n      0x00\n      dup1\n      sload\n      swap1\n      0x0100\n      exp\n      swap1\n      div\n      0xffffffffffffffffffffffffffffffffffffffff\n      and\n        /* \"Ownable.sol\":1279:1301  _owner == _msgSender() */\n      0xffffffffffffffffffffffffffffffffffffffff\n      and\n      eq\n        /* \"Ownable.sol\":1271:1338  require(_owner == _msgSender(), 'Ownable: caller is not the owner') */\n      tag_209\n      jumpi\n      mload(0x40)\n      0x08c379a000000000000000000000000000000000000000000000000000000000\n      dup2\n      mstore\n      0x04\n      add\n      dup1\n      dup1\n      0x20\n      add\n      dup3\n      dup2\n      sub\n      dup3\n      mstore\n      0x20\n      dup2\n      mstore\n      0x20\n      add\n      dup1\n      0x4f776e61626c653a2063616c6c6572206973206e6f7420746865206f776e6572\n      dup2\n      mstore\n      pop\n      0x20\n      add\n      swap2\n      pop\n      pop\n      mload(0x40)\n      dup1\n      swap2\n      sub\n      swap1\n      revert\n    tag_209:\n        /* \"Ownable.sol\":2056:2084  _transferOwnership(newOwner) */\n      tag_211\n        /* \"Ownable.sol\":2075:2083  newOwner */\n      dup2\n        /* \"Ownable.sol\":2056:2074  _transferOwnership */\n      tag_212\n        /* \"Ownable.sol\":2056:2084  _transferOwnership(newOwner) */\n      jump\t// in\n    tag_211:\n        /* \"Ownable.sol\":1984:2091  function transferOwnership(address newOwner) public onlyOwner {... */\n      pop\n      jump\t// out\n        /* \"Context.sol\":780:876  function _msgSender() internal view returns (address payable) {... */\n    tag_123:\n        /* \"Context.sol\":825:840  address payable */\n      0x00\n        /* \"Context.sol\":859:869  msg.sender */\n      caller\n        /* \"Context.sol\":852:869  return msg.sender */\n      swap1\n      pop\n        /* \"Context.sol\":780:876  function _msgSender() internal view returns (address payable) {... */\n      swap1\n      jump\t// out\n        /* \"BEP20.sol\":9208:9570  function _approve(... */\n    tag_124:\n        /* \"BEP20.sol\":9348:9349  0 */\n      0x00\n        /* \"BEP20.sol\":9331:9350  owner != address(0) */\n      0xffffffffffffffffffffffffffffffffffffffff\n      and\n        /* \"BEP20.sol\":9331:9336  owner */\n      dup4\n        /* \"BEP20.sol\":9331:9350  owner != address(0) */\n      0xffffffffffffffffffffffffffffffffffffffff\n      and\n      eq\n      iszero\n        /* \"BEP20.sol\":9323:9391  require(owner != address(0), 'BEP20: approve from the zero address') */\n      tag_215\n      jumpi\n      mload(0x40)\n      0x08c379a000000000000000000000000000000000000000000000000000000000\n      dup2\n      mstore\n      0x04\n      add\n      dup1\n      dup1\n      0x20\n      add\n      dup3\n      dup2\n      sub\n      dup3\n      mstore\n      0x24\n      dup2\n      mstore\n      0x20\n      add\n      dup1\n      data_1441cfbef485de93bedecc35b3d10fa2992db382c4c9c583a6e423a140abe4a4\n      0x24\n      swap2\n      codecopy\n      0x40\n      add\n      swap2\n      pop\n      pop\n      mload(0x40)\n      dup1\n      swap2\n      sub\n      swap1\n      revert\n    tag_215:\n        /* \"BEP20.sol\":9428:9429  0 */\n      0x00\n        /* \"BEP20.sol\":9409:9430  spender != address(0) */\n      0xffffffffffffffffffffffffffffffffffffffff\n      and\n        /* \"BEP20.sol\":9409:9416  spender */\n      dup3\n        /* \"BEP20.sol\":9409:9430  spender != address(0) */\n      0xffffffffffffffffffffffffffffffffffffffff\n      and\n      eq\n      iszero\n        /* \"BEP20.sol\":9401:9469  require(spender != address(0), 'BEP20: approve to the zero address') */\n      tag_216\n      jumpi\n      mload(0x40)\n      0x08c379a000000000000000000000000000000000000000000000000000000000\n      dup2\n      mstore\n      0x04\n      add\n      dup1\n      dup1\n      0x20\n      add\n      dup3\n      dup2\n      sub\n      dup3\n      mstore\n      0x22\n      dup2\n      mstore\n      0x20\n      add\n      dup1\n      data_f10e7571e18b354270dee950932fb6a745efc79414b2b2556185a4ed6a1af0d5\n      0x22\n      swap2\n      codecopy\n      0x40\n      add\n      swap2\n      pop\n      pop\n      mload(0x40)\n      dup1\n      swap2\n      sub\n      swap1\n      revert\n    tag_216:\n        /* \"BEP20.sol\":9510:9516  amount */\n      dup1\n        /* \"BEP20.sol\":9480:9491  _allowances */\n      0x02\n        /* \"BEP20.sol\":9480:9498  _allowances[owner] */\n      0x00\n        /* \"BEP20.sol\":9492:9497  owner */\n      dup6\n        /* \"BEP20.sol\":9480:9498  _allowances[owner] */\n      0xffffffffffffffffffffffffffffffffffffffff\n      and\n      0xffffffffffffffffffffffffffffffffffffffff\n      and\n      dup2\n      mstore\n      0x20\n      add\n      swap1\n      dup2\n      mstore\n      0x20\n      add\n      0x00\n      keccak256\n        /* \"BEP20.sol\":9480:9507  _allowances[owner][spender] */\n      0x00\n        /* \"BEP20.sol\":9499:9506  spender */\n      dup5\n        /* \"BEP20.sol\":9480:9507  _allowances[owner][spender] */\n      0xffffffffffffffffffffffffffffffffffffffff\n      and\n      0xffffffffffffffffffffffffffffffffffffffff\n      and\n      dup2\n      mstore\n      0x20\n      add\n      swap1\n      dup2\n      mstore\n      0x20\n      add\n      0x00\n      keccak256\n        /* \"BEP20.sol\":9480:9516  _allowances[owner][spender] = amount */\n      dup2\n      swap1\n      sstore\n      pop\n        /* \"BEP20.sol\":9547:9554  spender */\n      dup2\n        /* \"BEP20.sol\":9531:9563  Approval(owner, spender, amount) */\n      0xffffffffffffffffffffffffffffffffffffffff\n      and\n        /* \"BEP20.sol\":9540:9545  owner */\n      dup4\n        /* \"BEP20.sol\":9531:9563  Approval(owner, spender, amount) */\n      0xffffffffffffffffffffffffffffffffffffffff\n      and\n      0x8c5be1e5ebec7d5bd14f71427d1e84f3dd0314c0f7b2291e5b200ac8c7c3b925\n        /* \"BEP20.sol\":9556:9562  amount */\n      dup4\n        /* \"BEP20.sol\":9531:9563  Approval(owner, spender, amount) */\n      mload(0x40)\n      dup1\n      dup3\n      dup2\n      mstore\n      0x20\n      add\n      swap2\n      pop\n      pop\n      mload(0x40)\n      dup1\n      swap2\n      sub\n      swap1\n      log3\n        /* \"BEP20.sol\":9208:9570  function _approve(... */\n      pop\n      pop\n      pop\n      jump\t// out\n        /* \"BEP20.sol\":7056:7550  function _transfer(... */\n    tag_128:\n        /* \"BEP20.sol\":7201:7202  0 */\n      0x00\n        /* \"BEP20.sol\":7183:7203  sender != address(0) */\n      0xffffffffffffffffffffffffffffffffffffffff\n      and\n        /* \"BEP20.sol\":7183:7189  sender */\n      dup4\n        /* \"BEP20.sol\":7183:7203  sender != address(0) */\n      0xffffffffffffffffffffffffffffffffffffffff\n      and\n      eq\n      iszero\n        /* \"BEP20.sol\":7175:7245  require(sender != address(0), 'BEP20: transfer from the zero address') */\n      tag_218\n      jumpi\n      mload(0x40)\n      0x08c379a000000000000000000000000000000000000000000000000000000000\n      dup2\n      mstore\n      0x04\n      add\n      dup1\n      dup1\n      0x20\n      add\n      dup3\n      dup2\n      sub\n      dup3\n      mstore\n      0x25\n      dup2\n      mstore\n      0x20\n      add\n      dup1\n      data_0d26cf302d50b28de74be656b11d67092b32131e5712d1bcf08c4e976dacda57\n      0x25\n      swap2\n      codecopy\n      0x40\n      add\n      swap2\n      pop\n      pop\n      mload(0x40)\n      dup1\n      swap2\n      sub\n      swap1\n      revert\n    tag_218:\n        /* \"BEP20.sol\":7284:7285  0 */\n      0x00\n        /* \"BEP20.sol\":7263:7286  recipient != address(0) */\n      0xffffffffffffffffffffffffffffffffffffffff\n      and\n        /* \"BEP20.sol\":7263:7272  recipient */\n      dup3\n        /* \"BEP20.sol\":7263:7286  recipient != address(0) */\n      0xffffffffffffffffffffffffffffffffffffffff\n      and\n      eq\n      iszero\n        /* \"BEP20.sol\":7255:7326  require(recipient != address(0), 'BEP20: transfer to the zero address') */\n      tag_219\n      jumpi\n      mload(0x40)\n      0x08c379a000000000000000000000000000000000000000000000000000000000\n      dup2\n      mstore\n      0x04\n      add\n      dup1\n      dup1\n      0x20\n      add\n      dup3\n      dup2\n      sub\n      dup3\n      mstore\n      0x23\n      dup2\n      mstore\n      0x20\n      add\n      dup1\n      data_ade9efcb59e42e439ffe61509b352b1af56d64ccb68d80b039b7b69578f371d2\n      0x23\n      swap2\n      codecopy\n      0x40\n      add\n      swap2\n      pop\n      pop\n      mload(0x40)\n      dup1\n      swap2\n      sub\n      swap1\n      revert\n    tag_219:\n        /* \"BEP20.sol\":7357:7428  _balances[sender].sub(amount, 'BEP20: transfer amount exceeds balance') */\n      tag_220\n        /* \"BEP20.sol\":7379:7385  amount */\n      dup2\n        /* \"BEP20.sol\":7357:7428  _balances[sender].sub(amount, 'BEP20: transfer amount exceeds balance') */\n      mload(0x40)\n      dup1\n      0x60\n      add\n      0x40\n      mstore\n      dup1\n      0x26\n      dup2\n      mstore\n      0x20\n      add\n      data_a91efd7a65ef5b4ae4d6568d674798b78a5a89184dd296c100513251c22d3e73\n      0x26\n      swap2\n      codecopy\n        /* \"BEP20.sol\":7357:7366  _balances */\n      0x01\n        /* \"BEP20.sol\":7357:7374  _balances[sender] */\n      0x00\n        /* \"BEP20.sol\":7367:7373  sender */\n      dup8\n        /* \"BEP20.sol\":7357:7374  _balances[sender] */\n      0xffffffffffffffffffffffffffffffffffffffff\n      and\n      0xffffffffffffffffffffffffffffffffffffffff\n      and\n      dup2\n      mstore\n      0x20\n      add\n      swap1\n      dup2\n      mstore\n      0x20\n      add\n      0x00\n      keccak256\n      sload\n        /* \"BEP20.sol\":7357:7378  _balances[sender].sub */\n      tag_133\n      swap1\n        /* \"BEP20.sol\":7357:7428  _balances[sender].sub(amount, 'BEP20: transfer amount exceeds balance') */\n      swap3\n      swap2\n      swap1\n      0xffffffff\n      and\n      jump\t// in\n    tag_220:\n        /* \"BEP20.sol\":7337:7346  _balances */\n      0x01\n        /* \"BEP20.sol\":7337:7354  _balances[sender] */\n      0x00\n        /* \"BEP20.sol\":7347:7353  sender */\n      dup6\n        /* \"BEP20.sol\":7337:7354  _balances[sender] */\n      0xffffffffffffffffffffffffffffffffffffffff\n      and\n      0xffffffffffffffffffffffffffffffffffffffff\n      and\n      dup2\n      mstore\n      0x20\n      add\n      swap1\n      dup2\n      mstore\n      0x20\n      add\n      0x00\n      keccak256\n        /* \"BEP20.sol\":7337:7428  _balances[sender] = _balances[sender].sub(amount, 'BEP20: transfer amount exceeds balance') */\n      dup2\n      swap1\n      sstore\n      pop\n        /* \"BEP20.sol\":7461:7493  _balances[recipient].add(amount) */\n      tag_221\n        /* \"BEP20.sol\":7486:7492  amount */\n      dup2\n        /* \"BEP20.sol\":7461:7470  _balances */\n      0x01\n        /* \"BEP20.sol\":7461:7481  _balances[recipient] */\n      0x00\n        /* \"BEP20.sol\":7471:7480  recipient */\n      dup6\n        /* \"BEP20.sol\":7461:7481  _balances[recipient] */\n      0xffffffffffffffffffffffffffffffffffffffff\n      and\n      0xffffffffffffffffffffffffffffffffffffffff\n      and\n      dup2\n      mstore\n      0x20\n      add\n      swap1\n      dup2\n      mstore\n      0x20\n      add\n      0x00\n      keccak256\n      sload\n        /* \"BEP20.sol\":7461:7485  _balances[recipient].add */\n      tag_140\n      swap1\n        /* \"BEP20.sol\":7461:7493  _balances[recipient].add(amount) */\n      swap2\n      swap1\n      0xffffffff\n      and\n      jump\t// in\n    tag_221:\n        /* \"BEP20.sol\":7438:7447  _balances */\n      0x01\n        /* \"BEP20.sol\":7438:7458  _balances[recipient] */\n      0x00\n        /* \"BEP20.sol\":7448:7457  recipient */\n      dup5\n        /* \"BEP20.sol\":7438:7458  _balances[recipient] */\n      0xffffffffffffffffffffffffffffffffffffffff\n      and\n      0xffffffffffffffffffffffffffffffffffffffff\n      and\n      dup2\n      mstore\n      0x20\n      add\n      swap1\n      dup2\n      mstore\n      0x20\n      add\n      0x00\n      keccak256\n        /* \"BEP20.sol\":7438:7493  _balances[recipient] = _balances[recipient].add(amount) */\n      dup2\n      swap1\n      sstore\n      pop\n        /* \"BEP20.sol\":7525:7534  recipient */\n      dup2\n        /* \"BEP20.sol\":7508:7543  Transfer(sender, recipient, amount) */\n      0xffffffffffffffffffffffffffffffffffffffff\n      and\n        /* \"BEP20.sol\":7517:7523  sender */\n      dup4\n        /* \"BEP20.sol\":7508:7543  Transfer(sender, recipient, amount) */\n      0xffffffffffffffffffffffffffffffffffffffff\n      and\n      0xddf252ad1be2c89b69c2b068fc378daa952ba7f163c4a11628f55a4df523b3ef\n        /* \"BEP20.sol\":7536:7542  amount */\n      dup4\n        /* \"BEP20.sol\":7508:7543  Transfer(sender, recipient, amount) */\n      mload(0x40)\n      dup1\n      dup3\n      dup2\n      mstore\n      0x20\n      add\n      swap2\n      pop\n      pop\n      mload(0x40)\n      dup1\n      swap2\n      sub\n      swap1\n      log3\n        /* \"BEP20.sol\":7056:7550  function _transfer(... */\n      pop\n      pop\n      pop\n      jump\t// out\n        /* \"SafeMath.sol\":1747:1964  function sub(... */\n    tag_133:\n        /* \"SafeMath.sol\":1863:1870  uint256 */\n      0x00\n        /* \"SafeMath.sol\":1895:1896  a */\n      dup4\n        /* \"SafeMath.sol\":1890:1891  b */\n      dup4\n        /* \"SafeMath.sol\":1890:1896  b <= a */\n      gt\n      iszero\n        /* \"SafeMath.sol\":1898:1910  errorMessage */\n      dup3\n        /* \"SafeMath.sol\":1882:1911  require(b <= a, errorMessage) */\n      swap1\n      tag_223\n      jumpi\n      mload(0x40)\n      0x08c379a000000000000000000000000000000000000000000000000000000000\n      dup2\n      mstore\n      0x04\n      add\n      dup1\n      dup1\n      0x20\n      add\n      dup3\n      dup2\n      sub\n      dup3\n      mstore\n      dup4\n      dup2\n      dup2\n      mload\n      dup2\n      mstore\n      0x20\n      add\n      swap2\n      pop\n      dup1\n      mload\n      swap1\n      0x20\n      add\n      swap1\n      dup1\n      dup4\n      dup4\n      0x00\n    tag_224:\n      dup4\n      dup2\n      lt\n      iszero\n      tag_226\n      jumpi\n      dup1\n      dup3\n      add\n      mload\n      dup2\n      dup5\n      add\n      mstore\n      0x20\n      dup2\n      add\n      swap1\n      pop\n      jump(tag_224)\n    tag_226:\n      pop\n      pop\n      pop\n      pop\n      swap1\n      pop\n      swap1\n      dup2\n      add\n      swap1\n      0x1f\n      and\n      dup1\n      iszero\n      tag_227\n      jumpi\n      dup1\n      dup3\n      sub\n      dup1\n      mload\n      0x01\n      dup4\n      0x20\n      sub\n      0x0100\n      exp\n      sub\n      not\n      and\n      dup2\n      mstore\n      0x20\n      add\n      swap2\n      pop\n    tag_227:\n      pop\n      swap3\n      pop\n      pop\n      pop\n      mload(0x40)\n      dup1\n      swap2\n      sub\n      swap1\n      revert\n    tag_223:\n      pop\n        /* \"SafeMath.sol\":1921:1930  uint256 c */\n      0x00\n        /* \"SafeMath.sol\":1937:1938  b */\n      dup4\n        /* \"SafeMath.sol\":1933:1934  a */\n      dup6\n        /* \"SafeMath.sol\":1933:1938  a - b */\n      sub\n        /* \"SafeMath.sol\":1921:1938  uint256 c = a - b */\n      swap1\n      pop\n        /* \"SafeMath.sol\":1956:1957  c */\n      dup1\n        /* \"SafeMath.sol\":1949:1957  return c */\n      swap2\n      pop\n      pop\n        /* \"SafeMath.sol\":1747:1964  function sub(... */\n      swap4\n      swap3\n      pop\n      pop\n      pop\n      jump\t// out\n        /* \"SafeMath.sol\":875:1051  function add(uint256 a, uint256 b) internal pure returns (uint256) {... */\n    tag_140:\n        /* \"SafeMath.sol\":933:940  uint256 */\n      0x00\n        /* \"SafeMath.sol\":952:961  uint256 c */\n      dup1\n        /* \"SafeMath.sol\":968:969  b */\n      dup3\n        /* \"SafeMath.sol\":964:965  a */\n      dup5\n        /* \"SafeMath.sol\":964:969  a + b */\n      add\n        /* \"SafeMath.sol\":952:969  uint256 c = a + b */\n      swap1\n      pop\n        /* \"SafeMath.sol\":992:993  a */\n      dup4\n        /* \"SafeMath.sol\":987:988  c */\n      dup2\n        /* \"SafeMath.sol\":987:993  c >= a */\n      lt\n      iszero\n        /* \"SafeMath.sol\":979:1025  require(c >= a, 'SafeMath: addition overflow') */\n      tag_229\n      jumpi\n      mload(0x40)\n      0x08c379a000000000000000000000000000000000000000000000000000000000\n      dup2\n      mstore\n      0x04\n      add\n      dup1\n      dup1\n      0x20\n      add\n      dup3\n      dup2\n      sub\n      dup3\n      mstore\n      0x1b\n      dup2\n      mstore\n      0x20\n      add\n      dup1\n      0x536166654d6174683a206164646974696f6e206f766572666c6f770000000000\n      dup2\n      mstore\n      pop\n      0x20\n      add\n      swap2\n      pop\n      pop\n      mload(0x40)\n      dup1\n      swap2\n      sub\n      swap1\n      revert\n    tag_229:\n        /* \"SafeMath.sol\":1043:1044  c */\n      dup1\n        /* \"SafeMath.sol\":1036:1044  return c */\n      swap2\n      pop\n      pop\n        /* \"SafeMath.sol\":875:1051  function add(uint256 a, uint256 b) internal pure returns (uint256) {... */\n      swap3\n      swap2\n      pop\n      pop\n      jump\t// out\n        /* \"BEP20.sol\":7820:8122  function _mint(address account, uint256 amount) internal {... */\n    tag_146:\n        /* \"BEP20.sol\":7914:7915  0 */\n      0x00\n        /* \"BEP20.sol\":7895:7916  account != address(0) */\n      0xffffffffffffffffffffffffffffffffffffffff\n      and\n        /* \"BEP20.sol\":7895:7902  account */\n      dup3\n        /* \"BEP20.sol\":7895:7916  account != address(0) */\n      0xffffffffffffffffffffffffffffffffffffffff\n      and\n      eq\n      iszero\n        /* \"BEP20.sol\":7887:7952  require(account != address(0), 'BEP20: mint to the zero address') */\n      tag_231\n      jumpi\n      mload(0x40)\n      0x08c379a000000000000000000000000000000000000000000000000000000000\n      dup2\n      mstore\n      0x04\n      add\n      dup1\n      dup1\n      0x20\n      add\n      dup3\n      dup2\n      sub\n      dup3\n      mstore\n      0x1f\n      dup2\n      mstore\n      0x20\n      add\n      dup1\n      0x42455032303a206d696e7420746f20746865207a65726f206164647265737300\n      dup2\n      mstore\n      pop\n      0x20\n      add\n      swap2\n      pop\n      pop\n      mload(0x40)\n      dup1\n      swap2\n      sub\n      swap1\n      revert\n    tag_231:\n        /* \"BEP20.sol\":7978:8002  _totalSupply.add(amount) */\n      tag_232\n        /* \"BEP20.sol\":7995:8001  amount */\n      dup2\n        /* \"BEP20.sol\":7978:7990  _totalSupply */\n      sload(0x03)\n        /* \"BEP20.sol\":7978:7994  _totalSupply.add */\n      tag_140\n      swap1\n        /* \"BEP20.sol\":7978:8002  _totalSupply.add(amount) */\n      swap2\n      swap1\n      0xffffffff\n      and\n      jump\t// in\n    tag_232:\n        /* \"BEP20.sol\":7963:7975  _totalSupply */\n      0x03\n        /* \"BEP20.sol\":7963:8002  _totalSupply = _totalSupply.add(amount) */\n      dup2\n      swap1\n      sstore\n      pop\n        /* \"BEP20.sol\":8033:8063  _balances[account].add(amount) */\n      tag_233\n        /* \"BEP20.sol\":8056:8062  amount */\n      dup2\n        /* \"BEP20.sol\":8033:8042  _balances */\n      0x01\n        /* \"BEP20.sol\":8033:8051  _balances[account] */\n      0x00\n        /* \"BEP20.sol\":8043:8050  account */\n      dup6\n        /* \"BEP20.sol\":8033:8051  _balances[account] */\n      0xffffffffffffffffffffffffffffffffffffffff\n      and\n      0xffffffffffffffffffffffffffffffffffffffff\n      and\n      dup2\n      mstore\n      0x20\n      add\n      swap1\n      dup2\n      mstore\n      0x20\n      add\n      0x00\n      keccak256\n      sload\n        /* \"BEP20.sol\":8033:8055  _balances[account].add */\n      tag_140\n      swap1\n        /* \"BEP20.sol\":8033:8063  _balances[account].add(amount) */\n      swap2\n      swap1\n      0xffffffff\n      and\n      jump\t// in\n    tag_233:\n        /* \"BEP20.sol\":8012:8021  _balances */\n      0x01\n        /* \"BEP20.sol\":8012:8030  _balances[account] */\n      0x00\n        /* \"BEP20.sol\":8022:8029  account */\n      dup5\n        /* \"BEP20.sol\":8012:8030  _balances[account] */\n      0xffffffffffffffffffffffffffffffffffffffff\n      and\n      0xffffffffffffffffffffffffffffffffffffffff\n      and\n      dup2\n      mstore\n      0x20\n      add\n      swap1\n      dup2\n      mstore\n      0x20\n      add\n      0x00\n      keccak256\n        /* \"BEP20.sol\":8012:8063  _balances[account] = _balances[account].add(amount) */\n      dup2\n      swap1\n      sstore\n      pop\n        /* \"BEP20.sol\":8099:8106  account */\n      dup2\n        /* \"BEP20.sol\":8078:8115  Transfer(address(0), account, amount) */\n      0xffffffffffffffffffffffffffffffffffffffff\n      and\n        /* \"BEP20.sol\":8095:8096  0 */\n      0x00\n        /* \"BEP20.sol\":8078:8115  Transfer(address(0), account, amount) */\n      0xffffffffffffffffffffffffffffffffffffffff\n      and\n      0xddf252ad1be2c89b69c2b068fc378daa952ba7f163c4a11628f55a4df523b3ef\n        /* \"BEP20.sol\":8108:8114  amount */\n      dup4\n        /* \"BEP20.sol\":8078:8115  Transfer(address(0), account, amount) */\n      mload(0x40)\n      dup1\n      dup3\n      dup2\n      mstore\n      0x20\n      add\n      swap2\n      pop\n      pop\n      mload(0x40)\n      dup1\n      swap2\n      sub\n      swap1\n      log3\n        /* \"BEP20.sol\":7820:8122  function _mint(address account, uint256 amount) internal {... */\n      pop\n      pop\n      jump\t// out\n        /* \"FAANGToken.sol\":7033:7962  function _moveDelegates(address srcRep, address dstRep, uint256 amount) internal {... */\n    tag_148:\n        /* \"FAANGToken.sol\":7138:7144  dstRep */\n      dup2\n        /* \"FAANGToken.sol\":7128:7144  srcRep != dstRep */\n      0xffffffffffffffffffffffffffffffffffffffff\n      and\n        /* \"FAANGToken.sol\":7128:7134  srcRep */\n      dup4\n        /* \"FAANGToken.sol\":7128:7144  srcRep != dstRep */\n      0xffffffffffffffffffffffffffffffffffffffff\n      and\n      eq\n      iszero\n        /* \"FAANGToken.sol\":7128:7158  srcRep != dstRep && amount > 0 */\n      dup1\n      iszero\n      tag_235\n      jumpi\n      pop\n        /* \"FAANGToken.sol\":7157:7158  0 */\n      0x00\n        /* \"FAANGToken.sol\":7148:7154  amount */\n      dup2\n        /* \"FAANGToken.sol\":7148:7158  amount > 0 */\n      gt\n        /* \"FAANGToken.sol\":7128:7158  srcRep != dstRep && amount > 0 */\n    tag_235:\n        /* \"FAANGToken.sol\":7124:7956  if (srcRep != dstRep && amount > 0) {... */\n      iszero\n      tag_236\n      jumpi\n        /* \"FAANGToken.sol\":7196:7197  0 */\n      0x00\n        /* \"FAANGToken.sol\":7178:7198  srcRep != address(0) */\n      0xffffffffffffffffffffffffffffffffffffffff\n      and\n        /* \"FAANGToken.sol\":7178:7184  srcRep */\n      dup4\n        /* \"FAANGToken.sol\":7178:7198  srcRep != address(0) */\n      0xffffffffffffffffffffffffffffffffffffffff\n      and\n      eq\n        /* \"FAANGToken.sol\":7174:7553  if (srcRep != address(0)) {... */\n      tag_237\n      jumpi\n        /* \"FAANGToken.sol\":7265:7281  uint32 srcRepNum */\n      0x00\n        /* \"FAANGToken.sol\":7284:7298  numCheckpoints */\n      0x09\n        /* \"FAANGToken.sol\":7284:7306  numCheckpoints[srcRep] */\n      0x00\n        /* \"FAANGToken.sol\":7299:7305  srcRep */\n      dup6\n        /* \"FAANGToken.sol\":7284:7306  numCheckpoints[srcRep] */\n      0xffffffffffffffffffffffffffffffffffffffff\n      and\n      0xffffffffffffffffffffffffffffffffffffffff\n      and\n      dup2\n      mstore\n      0x20\n      add\n      swap1\n      dup2\n      mstore\n      0x20\n      add\n      0x00\n      keccak256\n      0x00\n      swap1\n      sload\n      swap1\n      0x0100\n      exp\n      swap1\n      div\n      0xffffffff\n      and\n        /* \"FAANGToken.sol\":7265:7306  uint32 srcRepNum = numCheckpoints[srcRep] */\n      swap1\n      pop\n        /* \"FAANGToken.sol\":7324:7341  uint256 srcRepOld */\n      0x00\n        /* \"FAANGToken.sol\":7356:7357  0 */\n      dup1\n        /* \"FAANGToken.sol\":7344:7353  srcRepNum */\n      dup3\n        /* \"FAANGToken.sol\":7344:7357  srcRepNum > 0 */\n      0xffffffff\n      and\n      gt\n        /* \"FAANGToken.sol\":7344:7404  srcRepNum > 0 ? checkpoints[srcRep][srcRepNum - 1].votes : 0 */\n      tag_238\n      jumpi\n        /* \"FAANGToken.sol\":7403:7404  0 */\n      0x00\n        /* \"FAANGToken.sol\":7344:7404  srcRepNum > 0 ? checkpoints[srcRep][srcRepNum - 1].votes : 0 */\n      jump(tag_239)\n    tag_238:\n        /* \"FAANGToken.sol\":7360:7371  checkpoints */\n      0x08\n        /* \"FAANGToken.sol\":7360:7379  checkpoints[srcRep] */\n      0x00\n        /* \"FAANGToken.sol\":7372:7378  srcRep */\n      dup7\n        /* \"FAANGToken.sol\":7360:7379  checkpoints[srcRep] */\n      0xffffffffffffffffffffffffffffffffffffffff\n      and\n      0xffffffffffffffffffffffffffffffffffffffff\n      and\n      dup2\n      mstore\n      0x20\n      add\n      swap1\n      dup2\n      mstore\n      0x20\n      add\n      0x00\n      keccak256\n        /* \"FAANGToken.sol\":7360:7394  checkpoints[srcRep][srcRepNum - 1] */\n      0x00\n        /* \"FAANGToken.sol\":7392:7393  1 */\n      0x01\n        /* \"FAANGToken.sol\":7380:7389  srcRepNum */\n      dup5\n        /* \"FAANGToken.sol\":7380:7393  srcRepNum - 1 */\n      sub\n        /* \"FAANGToken.sol\":7360:7394  checkpoints[srcRep][srcRepNum - 1] */\n      0xffffffff\n      and\n      0xffffffff\n      and\n      dup2\n      mstore\n      0x20\n      add\n      swap1\n      dup2\n      mstore\n      0x20\n      add\n      0x00\n      keccak256\n        /* \"FAANGToken.sol\":7360:7400  checkpoints[srcRep][srcRepNum - 1].votes */\n      0x01\n      add\n      sload\n        /* \"FAANGToken.sol\":7344:7404  srcRepNum > 0 ? checkpoints[srcRep][srcRepNum - 1].votes : 0 */\n    tag_239:\n        /* \"FAANGToken.sol\":7324:7404  uint256 srcRepOld = srcRepNum > 0 ? checkpoints[srcRep][srcRepNum - 1].votes : 0 */\n      swap1\n      pop\n        /* \"FAANGToken.sol\":7422:7439  uint256 srcRepNew */\n      0x00\n        /* \"FAANGToken.sol\":7442:7463  srcRepOld.sub(amount) */\n      tag_240\n        /* \"FAANGToken.sol\":7456:7462  amount */\n      dup5\n        /* \"FAANGToken.sol\":7442:7451  srcRepOld */\n      dup4\n        /* \"FAANGToken.sol\":7442:7455  srcRepOld.sub */\n      tag_241\n      swap1\n        /* \"FAANGToken.sol\":7442:7463  srcRepOld.sub(amount) */\n      swap2\n      swap1\n      0xffffffff\n      and\n      jump\t// in\n    tag_240:\n        /* \"FAANGToken.sol\":7422:7463  uint256 srcRepNew = srcRepOld.sub(amount) */\n      swap1\n      pop\n        /* \"FAANGToken.sol\":7481:7538  _writeCheckpoint(srcRep, srcRepNum, srcRepOld, srcRepNew) */\n      tag_242\n        /* \"FAANGToken.sol\":7498:7504  srcRep */\n      dup7\n        /* \"FAANGToken.sol\":7506:7515  srcRepNum */\n      dup5\n        /* \"FAANGToken.sol\":7517:7526  srcRepOld */\n      dup5\n        /* \"FAANGToken.sol\":7528:7537  srcRepNew */\n      dup5\n        /* \"FAANGToken.sol\":7481:7497  _writeCheckpoint */\n      tag_243\n        /* \"FAANGToken.sol\":7481:7538  _writeCheckpoint(srcRep, srcRepNum, srcRepOld, srcRepNew) */\n      jump\t// in\n    tag_242:\n        /* \"FAANGToken.sol\":7174:7553  if (srcRep != address(0)) {... */\n      pop\n      pop\n      pop\n    tag_237:\n        /* \"FAANGToken.sol\":7589:7590  0 */\n      0x00\n        /* \"FAANGToken.sol\":7571:7591  dstRep != address(0) */\n      0xffffffffffffffffffffffffffffffffffffffff\n      and\n        /* \"FAANGToken.sol\":7571:7577  dstRep */\n      dup3\n        /* \"FAANGToken.sol\":7571:7591  dstRep != address(0) */\n      0xffffffffffffffffffffffffffffffffffffffff\n      and\n      eq\n        /* \"FAANGToken.sol\":7567:7946  if (dstRep != address(0)) {... */\n      tag_244\n      jumpi\n        /* \"FAANGToken.sol\":7658:7674  uint32 dstRepNum */\n      0x00\n        /* \"FAANGToken.sol\":7677:7691  numCheckpoints */\n      0x09\n        /* \"FAANGToken.sol\":7677:7699  numCheckpoints[dstRep] */\n      0x00\n        /* \"FAANGToken.sol\":7692:7698  dstRep */\n      dup5\n        /* \"FAANGToken.sol\":7677:7699  numCheckpoints[dstRep] */\n      0xffffffffffffffffffffffffffffffffffffffff\n      and\n      0xffffffffffffffffffffffffffffffffffffffff\n      and\n      dup2\n      mstore\n      0x20\n      add\n      swap1\n      dup2\n      mstore\n      0x20\n      add\n      0x00\n      keccak256\n      0x00\n      swap1\n      sload\n      swap1\n      0x0100\n      exp\n      swap1\n      div\n      0xffffffff\n      and\n        /* \"FAANGToken.sol\":7658:7699  uint32 dstRepNum = numCheckpoints[dstRep] */\n      swap1\n      pop\n        /* \"FAANGToken.sol\":7717:7734  uint256 dstRepOld */\n      0x00\n        /* \"FAANGToken.sol\":7749:7750  0 */\n      dup1\n        /* \"FAANGToken.sol\":7737:7746  dstRepNum */\n      dup3\n        /* \"FAANGToken.sol\":7737:7750  dstRepNum > 0 */\n      0xffffffff\n      and\n      gt\n        /* \"FAANGToken.sol\":7737:7797  dstRepNum > 0 ? checkpoints[dstRep][dstRepNum - 1].votes : 0 */\n      tag_245\n      jumpi\n        /* \"FAANGToken.sol\":7796:7797  0 */\n      0x00\n        /* \"FAANGToken.sol\":7737:7797  dstRepNum > 0 ? checkpoints[dstRep][dstRepNum - 1].votes : 0 */\n      jump(tag_246)\n    tag_245:\n        /* \"FAANGToken.sol\":7753:7764  checkpoints */\n      0x08\n        /* \"FAANGToken.sol\":7753:7772  checkpoints[dstRep] */\n      0x00\n        /* \"FAANGToken.sol\":7765:7771  dstRep */\n      dup6\n        /* \"FAANGToken.sol\":7753:7772  checkpoints[dstRep] */\n      0xffffffffffffffffffffffffffffffffffffffff\n      and\n      0xffffffffffffffffffffffffffffffffffffffff\n      and\n      dup2\n      mstore\n      0x20\n      add\n      swap1\n      dup2\n      mstore\n      0x20\n      add\n      0x00\n      keccak256\n        /* \"FAANGToken.sol\":7753:7787  checkpoints[dstRep][dstRepNum - 1] */\n      0x00\n        /* \"FAANGToken.sol\":7785:7786  1 */\n      0x01\n        /* \"FAANGToken.sol\":7773:7782  dstRepNum */\n      dup5\n        /* \"FAANGToken.sol\":7773:7786  dstRepNum - 1 */\n      sub\n        /* \"FAANGToken.sol\":7753:7787  checkpoints[dstRep][dstRepNum - 1] */\n      0xffffffff\n      and\n      0xffffffff\n      and\n      dup2\n      mstore\n      0x20\n      add\n      swap1\n      dup2\n      mstore\n      0x20\n      add\n      0x00\n      keccak256\n        /* \"FAANGToken.sol\":7753:7793  checkpoints[dstRep][dstRepNum - 1].votes */\n      0x01\n      add\n      sload\n        /* \"FAANGToken.sol\":7737:7797  dstRepNum > 0 ? checkpoints[dstRep][dstRepNum - 1].votes : 0 */\n    tag_246:\n        /* \"FAANGToken.sol\":7717:7797  uint256 dstRepOld = dstRepNum > 0 ? checkpoints[dstRep][dstRepNum - 1].votes : 0 */\n      swap1\n      pop\n        /* \"FAANGToken.sol\":7815:7832  uint256 dstRepNew */\n      0x00\n        /* \"FAANGToken.sol\":7835:7856  dstRepOld.add(amount) */\n      tag_247\n        /* \"FAANGToken.sol\":7849:7855  amount */\n      dup5\n        /* \"FAANGToken.sol\":7835:7844  dstRepOld */\n      dup4\n        /* \"FAANGToken.sol\":7835:7848  dstRepOld.add */\n      tag_140\n      swap1\n        /* \"FAANGToken.sol\":7835:7856  dstRepOld.add(amount) */\n      swap2\n      swap1\n      0xffffffff\n      and\n      jump\t// in\n    tag_247:\n        /* \"FAANGToken.sol\":7815:7856  uint256 dstRepNew = dstRepOld.add(amount) */\n      swap1\n      pop\n        /* \"FAANGToken.sol\":7874:7931  _writeCheckpoint(dstRep, dstRepNum, dstRepOld, dstRepNew) */\n      tag_248\n        /* \"FAANGToken.sol\":7891:7897  dstRep */\n      dup6\n        /* \"FAANGToken.sol\":7899:7908  dstRepNum */\n      dup5\n        /* \"FAANGToken.sol\":7910:7919  dstRepOld */\n      dup5\n        /* \"FAANGToken.sol\":7921:7930  dstRepNew */\n      dup5\n        /* \"FAANGToken.sol\":7874:7890  _writeCheckpoint */\n      tag_243\n        /* \"FAANGToken.sol\":7874:7931  _writeCheckpoint(dstRep, dstRepNum, dstRepOld, dstRepNew) */\n      jump\t// in\n    tag_248:\n        /* \"FAANGToken.sol\":7567:7946  if (dstRep != address(0)) {... */\n      pop\n      pop\n      pop\n    tag_244:\n        /* \"FAANGToken.sol\":7124:7956  if (srcRep != dstRep && amount > 0) {... */\n    tag_236:\n        /* \"FAANGToken.sol\":7033:7962  function _moveDelegates(address srcRep, address dstRep, uint256 amount) internal {... */\n      pop\n      pop\n      pop\n      jump\t// out\n        /* \"FAANGToken.sol\":6598:7027  function _delegate(address delegator, address delegatee)... */\n    tag_152:\n        /* \"FAANGToken.sol\":6686:6709  address currentDelegate */\n      0x00\n        /* \"FAANGToken.sol\":6712:6722  _delegates */\n      0x07\n        /* \"FAANGToken.sol\":6712:6733  _delegates[delegator] */\n      0x00\n        /* \"FAANGToken.sol\":6723:6732  delegator */\n      dup5\n        /* \"FAANGToken.sol\":6712:6733  _delegates[delegator] */\n      0xffffffffffffffffffffffffffffffffffffffff\n      and\n      0xffffffffffffffffffffffffffffffffffffffff\n      and\n      dup2\n      mstore\n      0x20\n      add\n      swap1\n      dup2\n      mstore\n      0x20\n      add\n      0x00\n      keccak256\n      0x00\n      swap1\n      sload\n      swap1\n      0x0100\n      exp\n      swap1\n      div\n      0xffffffffffffffffffffffffffffffffffffffff\n      and\n        /* \"FAANGToken.sol\":6686:6733  address currentDelegate = _delegates[delegator] */\n      swap1\n      pop\n        /* \"FAANGToken.sol\":6743:6767  uint256 delegatorBalance */\n      0x00\n        /* \"FAANGToken.sol\":6770:6790  balanceOf(delegator) */\n      tag_250\n        /* \"FAANGToken.sol\":6780:6789  delegator */\n      dup5\n        /* \"FAANGToken.sol\":6770:6779  balanceOf */\n      tag_71\n        /* \"FAANGToken.sol\":6770:6790  balanceOf(delegator) */\n      jump\t// in\n    tag_250:\n        /* \"FAANGToken.sol\":6743:6790  uint256 delegatorBalance = balanceOf(delegator) */\n      swap1\n      pop\n        /* \"FAANGToken.sol\":6870:6879  delegatee */\n      dup3\n        /* \"FAANGToken.sol\":6846:6856  _delegates */\n      0x07\n        /* \"FAANGToken.sol\":6846:6867  _delegates[delegator] */\n      0x00\n        /* \"FAANGToken.sol\":6857:6866  delegator */\n      dup7\n        /* \"FAANGToken.sol\":6846:6867  _delegates[delegator] */\n      0xffffffffffffffffffffffffffffffffffffffff\n      and\n      0xffffffffffffffffffffffffffffffffffffffff\n      and\n      dup2\n      mstore\n      0x20\n      add\n      swap1\n      dup2\n      mstore\n      0x20\n      add\n      0x00\n      keccak256\n      0x00\n        /* \"FAANGToken.sol\":6846:6879  _delegates[delegator] = delegatee */\n      0x0100\n      exp\n      dup2\n      sload\n      dup2\n      0xffffffffffffffffffffffffffffffffffffffff\n      mul\n      not\n      and\n      swap1\n      dup4\n      0xffffffffffffffffffffffffffffffffffffffff\n      and\n      mul\n      or\n      swap1\n      sstore\n      pop\n        /* \"FAANGToken.sol\":6939:6948  delegatee */\n      dup3\n        /* \"FAANGToken.sol\":6895:6949  DelegateChanged(delegator, currentDelegate, delegatee) */\n      0xffffffffffffffffffffffffffffffffffffffff\n      and\n        /* \"FAANGToken.sol\":6922:6937  currentDelegate */\n      dup3\n        /* \"FAANGToken.sol\":6895:6949  DelegateChanged(delegator, currentDelegate, delegatee) */\n      0xffffffffffffffffffffffffffffffffffffffff\n      and\n        /* \"FAANGToken.sol\":6911:6920  delegator */\n      dup6\n        /* \"FAANGToken.sol\":6895:6949  DelegateChanged(delegator, currentDelegate, delegatee) */\n      0xffffffffffffffffffffffffffffffffffffffff\n      and\n      0x3134e8a2e6d97e929a7e54011ea5485d7d196dd5f0ba4d4ef95803e8e3fc257f\n      mload(0x40)\n      mload(0x40)\n      dup1\n      swap2\n      sub\n      swap1\n      log4\n        /* \"FAANGToken.sol\":6960:7020  _moveDelegates(currentDelegate, delegatee, delegatorBalance) */\n      tag_251\n        /* \"FAANGToken.sol\":6975:6990  currentDelegate */\n      dup3\n        /* \"FAANGToken.sol\":6992:7001  delegatee */\n      dup5\n        /* \"FAANGToken.sol\":7003:7019  delegatorBalance */\n      dup4\n        /* \"FAANGToken.sol\":6960:6974  _moveDelegates */\n      tag_148\n        /* \"FAANGToken.sol\":6960:7020  _moveDelegates(currentDelegate, delegatee, delegatorBalance) */\n      jump\t// in\n    tag_251:\n        /* \"FAANGToken.sol\":6598:7027  function _delegate(address delegator, address delegatee)... */\n      pop\n      pop\n      pop\n      pop\n      jump\t// out\n        /* \"FAANGToken.sol\":8825:8974  function getChainId() internal pure returns (uint) {... */\n    tag_199:\n        /* \"FAANGToken.sol\":8870:8874  uint */\n      0x00\n        /* \"FAANGToken.sol\":8886:8901  uint256 chainId */\n      dup1\n        /* \"FAANGToken.sol\":8933:8942  chainid() */\n      chainid\n        /* \"FAANGToken.sol\":8922:8942  chainId := chainid() */\n      swap1\n      pop\n        /* \"FAANGToken.sol\":8960:8967  chainId */\n      dup1\n        /* \"FAANGToken.sol\":8953:8967  return chainId */\n      swap2\n      pop\n      pop\n        /* \"FAANGToken.sol\":8825:8974  function getChainId() internal pure returns (uint) {... */\n      swap1\n      jump\t// out\n        /* \"Ownable.sol\":2192:2417  function _transferOwnership(address newOwner) internal {... */\n    tag_212:\n        /* \"Ownable.sol\":2285:2286  0 */\n      0x00\n        /* \"Ownable.sol\":2265:2287  newOwner != address(0) */\n      0xffffffffffffffffffffffffffffffffffffffff\n      and\n        /* \"Ownable.sol\":2265:2273  newOwner */\n      dup2\n        /* \"Ownable.sol\":2265:2287  newOwner != address(0) */\n      0xffffffffffffffffffffffffffffffffffffffff\n      and\n      eq\n      iszero\n        /* \"Ownable.sol\":2257:2330  require(newOwner != address(0), 'Ownable: new owner is the zero address') */\n      tag_254\n      jumpi\n      mload(0x40)\n      0x08c379a000000000000000000000000000000000000000000000000000000000\n      dup2\n      mstore\n      0x04\n      add\n      dup1\n      dup1\n      0x20\n      add\n      dup3\n      dup2\n      sub\n      dup3\n      mstore\n      0x26\n      dup2\n      mstore\n      0x20\n      add\n      dup1\n      data_245f15ff17f551913a7a18385165551503906a406f905ac1c2437281a7cd0cfe\n      0x26\n      swap2\n      codecopy\n      0x40\n      add\n      swap2\n      pop\n      pop\n      mload(0x40)\n      dup1\n      swap2\n      sub\n      swap1\n      revert\n    tag_254:\n        /* \"Ownable.sol\":2374:2382  newOwner */\n      dup1\n        /* \"Ownable.sol\":2345:2383  OwnershipTransferred(_owner, newOwner) */\n      0xffffffffffffffffffffffffffffffffffffffff\n      and\n        /* \"Ownable.sol\":2366:2372  _owner */\n      0x00\n      dup1\n      sload\n      swap1\n      0x0100\n      exp\n      swap1\n      div\n      0xffffffffffffffffffffffffffffffffffffffff\n      and\n        /* \"Ownable.sol\":2345:2383  OwnershipTransferred(_owner, newOwner) */\n      0xffffffffffffffffffffffffffffffffffffffff\n      and\n      0x8be0079c531659141344cd1fd0a4f28419497f9722a3daafe3b4186f6b6457e0\n      mload(0x40)\n      mload(0x40)\n      dup1\n      swap2\n      sub\n      swap1\n      log3\n        /* \"Ownable.sol\":2402:2410  newOwner */\n      dup1\n        /* \"Ownable.sol\":2393:2399  _owner */\n      0x00\n      dup1\n        /* \"Ownable.sol\":2393:2410  _owner = newOwner */\n      0x0100\n      exp\n      dup2\n      sload\n      dup2\n      0xffffffffffffffffffffffffffffffffffffffff\n      mul\n      not\n      and\n      swap1\n      dup4\n      0xffffffffffffffffffffffffffffffffffffffff\n      and\n      mul\n      or\n      swap1\n      sstore\n      pop\n        /* \"Ownable.sol\":2192:2417  function _transferOwnership(address newOwner) internal {... */\n      pop\n      jump\t// out\n        /* \"SafeMath.sol\":1322:1456  function sub(uint256 a, uint256 b) internal pure returns (uint256) {... */\n    tag_241:\n        /* \"SafeMath.sol\":1380:1387  uint256 */\n      0x00\n        /* \"SafeMath.sol\":1406:1449  sub(a, b, 'SafeMath: subtraction overflow') */\n      tag_256\n        /* \"SafeMath.sol\":1410:1411  a */\n      dup4\n        /* \"SafeMath.sol\":1413:1414  b */\n      dup4\n        /* \"SafeMath.sol\":1406:1449  sub(a, b, 'SafeMath: subtraction overflow') */\n      mload(0x40)\n      dup1\n      0x40\n      add\n      0x40\n      mstore\n      dup1\n      0x1e\n      dup2\n      mstore\n      0x20\n      add\n      0x536166654d6174683a207375627472616374696f6e206f766572666c6f770000\n      dup2\n      mstore\n      pop\n        /* \"SafeMath.sol\":1406:1409  sub */\n      tag_133\n        /* \"SafeMath.sol\":1406:1449  sub(a, b, 'SafeMath: subtraction overflow') */\n      jump\t// in\n    tag_256:\n        /* \"SafeMath.sol\":1399:1449  return sub(a, b, 'SafeMath: subtraction overflow') */\n      swap1\n      pop\n        /* \"SafeMath.sol\":1322:1456  function sub(uint256 a, uint256 b) internal pure returns (uint256) {... */\n      swap3\n      swap2\n      pop\n      pop\n      jump\t// out\n        /* \"FAANGToken.sol\":7968:8655  function _writeCheckpoint(... */\n    tag_243:\n        /* \"FAANGToken.sol\":8139:8157  uint32 blockNumber */\n      0x00\n        /* \"FAANGToken.sol\":8160:8237  safe32(block.number, \"FAANG::_writeCheckpoint: block number exceeds 32 bits\") */\n      tag_258\n        /* \"FAANGToken.sol\":8167:8179  block.number */\n      number\n        /* \"FAANGToken.sol\":8160:8237  safe32(block.number, \"FAANG::_writeCheckpoint: block number exceeds 32 bits\") */\n      mload(0x40)\n      dup1\n      0x60\n      add\n      0x40\n      mstore\n      dup1\n      0x35\n      dup2\n      mstore\n      0x20\n      add\n      data_69e7dee0b4c3ba101fe3a96ed2a4161350797f9fa3e7ed8457ab02e9480e1b6e\n      0x35\n      swap2\n      codecopy\n        /* \"FAANGToken.sol\":8160:8166  safe32 */\n      tag_259\n        /* \"FAANGToken.sol\":8160:8237  safe32(block.number, \"FAANG::_writeCheckpoint: block number exceeds 32 bits\") */\n      jump\t// in\n    tag_258:\n        /* \"FAANGToken.sol\":8139:8237  uint32 blockNumber = safe32(block.number, \"FAANG::_writeCheckpoint: block number exceeds 32 bits\") */\n      swap1\n      pop\n        /* \"FAANGToken.sol\":8267:8268  0 */\n      0x00\n        /* \"FAANGToken.sol\":8252:8264  nCheckpoints */\n      dup5\n        /* \"FAANGToken.sol\":8252:8268  nCheckpoints > 0 */\n      0xffffffff\n      and\n      gt\n        /* \"FAANGToken.sol\":8252:8337  nCheckpoints > 0 && checkpoints[delegatee][nCheckpoints - 1].fromBlock == blockNumber */\n      dup1\n      iszero\n      tag_260\n      jumpi\n      pop\n        /* \"FAANGToken.sol\":8326:8337  blockNumber */\n      dup1\n        /* \"FAANGToken.sol\":8272:8337  checkpoints[delegatee][nCheckpoints - 1].fromBlock == blockNumber */\n      0xffffffff\n      and\n        /* \"FAANGToken.sol\":8272:8283  checkpoints */\n      0x08\n        /* \"FAANGToken.sol\":8272:8294  checkpoints[delegatee] */\n      0x00\n        /* \"FAANGToken.sol\":8284:8293  delegatee */\n      dup8\n        /* \"FAANGToken.sol\":8272:8294  checkpoints[delegatee] */\n      0xffffffffffffffffffffffffffffffffffffffff\n      and\n      0xffffffffffffffffffffffffffffffffffffffff\n      and\n      dup2\n      mstore\n      0x20\n      add\n      swap1\n      dup2\n      mstore\n      0x20\n      add\n      0x00\n      keccak256\n        /* \"FAANGToken.sol\":8272:8312  checkpoints[delegatee][nCheckpoints - 1] */\n      0x00\n        /* \"FAANGToken.sol\":8310:8311  1 */\n      0x01\n        /* \"FAANGToken.sol\":8295:8307  nCheckpoints */\n      dup8\n        /* \"FAANGToken.sol\":8295:8311  nCheckpoints - 1 */\n      sub\n        /* \"FAANGToken.sol\":8272:8312  checkpoints[delegatee][nCheckpoints - 1] */\n      0xffffffff\n      and\n      0xffffffff\n      and\n      dup2\n      mstore\n      0x20\n      add\n      swap1\n      dup2\n      mstore\n      0x20\n      add\n      0x00\n      keccak256\n        /* \"FAANGToken.sol\":8272:8322  checkpoints[delegatee][nCheckpoints - 1].fromBlock */\n      0x00\n      add\n      0x00\n      swap1\n      sload\n      swap1\n      0x0100\n      exp\n      swap1\n      div\n      0xffffffff\n      and\n        /* \"FAANGToken.sol\":8272:8337  checkpoints[delegatee][nCheckpoints - 1].fromBlock == blockNumber */\n      0xffffffff\n      and\n      eq\n        /* \"FAANGToken.sol\":8252:8337  nCheckpoints > 0 && checkpoints[delegatee][nCheckpoints - 1].fromBlock == blockNumber */\n    tag_260:\n        /* \"FAANGToken.sol\":8248:8582  if (nCheckpoints > 0 && checkpoints[delegatee][nCheckpoints - 1].fromBlock == blockNumber) {... */\n      iszero\n      tag_261\n      jumpi\n        /* \"FAANGToken.sol\":8402:8410  newVotes */\n      dup2\n        /* \"FAANGToken.sol\":8353:8364  checkpoints */\n      0x08\n        /* \"FAANGToken.sol\":8353:8375  checkpoints[delegatee] */\n      0x00\n        /* \"FAANGToken.sol\":8365:8374  delegatee */\n      dup8\n        /* \"FAANGToken.sol\":8353:8375  checkpoints[delegatee] */\n      0xffffffffffffffffffffffffffffffffffffffff\n      and\n      0xffffffffffffffffffffffffffffffffffffffff\n      and\n      dup2\n      mstore\n      0x20\n      add\n      swap1\n      dup2\n      mstore\n      0x20\n      add\n      0x00\n      keccak256\n        /* \"FAANGToken.sol\":8353:8393  checkpoints[delegatee][nCheckpoints - 1] */\n      0x00\n        /* \"FAANGToken.sol\":8391:8392  1 */\n      0x01\n        /* \"FAANGToken.sol\":8376:8388  nCheckpoints */\n      dup8\n        /* \"FAANGToken.sol\":8376:8392  nCheckpoints - 1 */\n      sub\n        /* \"FAANGToken.sol\":8353:8393  checkpoints[delegatee][nCheckpoints - 1] */\n      0xffffffff\n      and\n      0xffffffff\n      and\n      dup2\n      mstore\n      0x20\n      add\n      swap1\n      dup2\n      mstore\n      0x20\n      add\n      0x00\n      keccak256\n        /* \"FAANGToken.sol\":8353:8399  checkpoints[delegatee][nCheckpoints - 1].votes */\n      0x01\n      add\n        /* \"FAANGToken.sol\":8353:8410  checkpoints[delegatee][nCheckpoints - 1].votes = newVotes */\n      dup2\n      swap1\n      sstore\n      pop\n        /* \"FAANGToken.sol\":8248:8582  if (nCheckpoints > 0 && checkpoints[delegatee][nCheckpoints - 1].fromBlock == blockNumber) {... */\n      jump(tag_262)\n    tag_261:\n        /* \"FAANGToken.sol\":8480:8513  Checkpoint(blockNumber, newVotes) */\n      mload(0x40)\n      dup1\n      0x40\n      add\n      0x40\n      mstore\n      dup1\n        /* \"FAANGToken.sol\":8491:8502  blockNumber */\n      dup3\n        /* \"FAANGToken.sol\":8480:8513  Checkpoint(blockNumber, newVotes) */\n      0xffffffff\n      and\n      dup2\n      mstore\n      0x20\n      add\n        /* \"FAANGToken.sol\":8504:8512  newVotes */\n      dup4\n        /* \"FAANGToken.sol\":8480:8513  Checkpoint(blockNumber, newVotes) */\n      dup2\n      mstore\n      pop\n        /* \"FAANGToken.sol\":8441:8452  checkpoints */\n      0x08\n        /* \"FAANGToken.sol\":8441:8463  checkpoints[delegatee] */\n      0x00\n        /* \"FAANGToken.sol\":8453:8462  delegatee */\n      dup8\n        /* \"FAANGToken.sol\":8441:8463  checkpoints[delegatee] */\n      0xffffffffffffffffffffffffffffffffffffffff\n      and\n      0xffffffffffffffffffffffffffffffffffffffff\n      and\n      dup2\n      mstore\n      0x20\n      add\n      swap1\n      dup2\n      mstore\n      0x20\n      add\n      0x00\n      keccak256\n        /* \"FAANGToken.sol\":8441:8477  checkpoints[delegatee][nCheckpoints] */\n      0x00\n        /* \"FAANGToken.sol\":8464:8476  nCheckpoints */\n      dup7\n        /* \"FAANGToken.sol\":8441:8477  checkpoints[delegatee][nCheckpoints] */\n      0xffffffff\n      and\n      0xffffffff\n      and\n      dup2\n      mstore\n      0x20\n      add\n      swap1\n      dup2\n      mstore\n      0x20\n      add\n      0x00\n      keccak256\n        /* \"FAANGToken.sol\":8441:8513  checkpoints[delegatee][nCheckpoints] = Checkpoint(blockNumber, newVotes) */\n      0x00\n      dup3\n      add\n      mload\n      dup2\n      0x00\n      add\n      exp(0x0100, 0x00)\n      dup2\n      sload\n      dup2\n      0xffffffff\n      mul\n      not\n      and\n      swap1\n      dup4\n      0xffffffff\n      and\n      mul\n      or\n      swap1\n      sstore\n      pop\n      0x20\n      dup3\n      add\n      mload\n      dup2\n      0x01\n      add\n      sstore\n      swap1\n      pop\n      pop\n        /* \"FAANGToken.sol\":8570:8571  1 */\n      0x01\n        /* \"FAANGToken.sol\":8555:8567  nCheckpoints */\n      dup5\n        /* \"FAANGToken.sol\":8555:8571  nCheckpoints + 1 */\n      add\n        /* \"FAANGToken.sol\":8527:8541  numCheckpoints */\n      0x09\n        /* \"FAANGToken.sol\":8527:8552  numCheckpoints[delegatee] */\n      0x00\n        /* \"FAANGToken.sol\":8542:8551  delegatee */\n      dup8\n        /* \"FAANGToken.sol\":8527:8552  numCheckpoints[delegatee] */\n      0xffffffffffffffffffffffffffffffffffffffff\n      and\n      0xffffffffffffffffffffffffffffffffffffffff\n      and\n      dup2\n      mstore\n      0x20\n      add\n      swap1\n      dup2\n      mstore\n      0x20\n      add\n      0x00\n      keccak256\n      0x00\n        /* \"FAANGToken.sol\":8527:8571  numCheckpoints[delegatee] = nCheckpoints + 1 */\n      0x0100\n      exp\n      dup2\n      sload\n      dup2\n      0xffffffff\n      mul\n      not\n      and\n      swap1\n      dup4\n      0xffffffff\n      and\n      mul\n      or\n      swap1\n      sstore\n      pop\n        /* \"FAANGToken.sol\":8248:8582  if (nCheckpoints > 0 && checkpoints[delegatee][nCheckpoints - 1].fromBlock == blockNumber) {... */\n    tag_262:\n        /* \"FAANGToken.sol\":8618:8627  delegatee */\n      dup5\n        /* \"FAANGToken.sol\":8597:8648  DelegateVotesChanged(delegatee, oldVotes, newVotes) */\n      0xffffffffffffffffffffffffffffffffffffffff\n      and\n      0xdec2bacdd2f05b59de34da9b523dff8be42e5e38e818c82fdb0bae774387a724\n        /* \"FAANGToken.sol\":8629:8637  oldVotes */\n      dup5\n        /* \"FAANGToken.sol\":8639:8647  newVotes */\n      dup5\n        /* \"FAANGToken.sol\":8597:8648  DelegateVotesChanged(delegatee, oldVotes, newVotes) */\n      mload(0x40)\n      dup1\n      dup4\n      dup2\n      mstore\n      0x20\n      add\n      dup3\n      dup2\n      mstore\n      0x20\n      add\n      swap3\n      pop\n      pop\n      pop\n      mload(0x40)\n      dup1\n      swap2\n      sub\n      swap1\n      log2\n        /* \"FAANGToken.sol\":7968:8655  function _writeCheckpoint(... */\n      pop\n      pop\n      pop\n      pop\n      pop\n      jump\t// out\n        /* \"FAANGToken.sol\":8661:8819  function safe32(uint n, string memory errorMessage) internal pure returns (uint32) {... */\n    tag_259:\n        /* \"FAANGToken.sol\":8736:8742  uint32 */\n      0x00\n        /* \"FAANGToken.sol\":8766:8771  2**32 */\n      0x0100000000\n        /* \"FAANGToken.sol\":8762:8763  n */\n      dup4\n        /* \"FAANGToken.sol\":8762:8771  n < 2**32 */\n      lt\n        /* \"FAANGToken.sol\":8773:8785  errorMessage */\n      dup3\n        /* \"FAANGToken.sol\":8754:8786  require(n < 2**32, errorMessage) */\n      swap1\n      tag_264\n      jumpi\n      mload(0x40)\n      0x08c379a000000000000000000000000000000000000000000000000000000000\n      dup2\n      mstore\n      0x04\n      add\n      dup1\n      dup1\n      0x20\n      add\n      dup3\n      dup2\n      sub\n      dup3\n      mstore\n      dup4\n      dup2\n      dup2\n      mload\n      dup2\n      mstore\n      0x20\n      add\n      swap2\n      pop\n      dup1\n      mload\n      swap1\n      0x20\n      add\n      swap1\n      dup1\n      dup4\n      dup4\n      0x00\n    tag_265:\n      dup4\n      dup2\n      lt\n      iszero\n      tag_267\n      jumpi\n      dup1\n      dup3\n      add\n      mload\n      dup2\n      dup5\n      add\n      mstore\n      0x20\n      dup2\n      add\n      swap1\n      pop\n      jump(tag_265)\n    tag_267:\n      pop\n      pop\n      pop\n      pop\n      swap1\n      pop\n      swap1\n      dup2\n      add\n      swap1\n      0x1f\n      and\n      dup1\n      iszero\n      tag_268\n      jumpi\n      dup1\n      dup3\n      sub\n      dup1\n      mload\n      0x01\n      dup4\n      0x20\n      sub\n      0x0100\n      exp\n      sub\n      not\n      and\n      dup2\n      mstore\n      0x20\n      add\n      swap2\n      pop\n    tag_268:\n      pop\n      swap3\n      pop\n      pop\n      pop\n      mload(0x40)\n      dup1\n      swap2\n      sub\n      swap1\n      revert\n    tag_264:\n      pop\n        /* \"FAANGToken.sol\":8810:8811  n */\n      dup3\n        /* \"FAANGToken.sol\":8796:8812  return uint32(n) */\n      swap1\n      pop\n        /* \"FAANGToken.sol\":8661:8819  function safe32(uint n, string memory errorMessage) internal pure returns (uint32) {... */\n      swap3\n      swap2\n      pop\n      pop\n      jump\t// out\n    tag_167:\n      mload(0x40)\n      dup1\n      0x40\n      add\n      0x40\n      mstore\n      dup1\n      and(0xffffffff, 0x00)\n      dup2\n      mstore\n      0x20\n      add\n      0x00\n      dup2\n      mstore\n      pop\n      swap1\n      jump\t// out\n    stop\n    data_0d26cf302d50b28de74be656b11d67092b32131e5712d1bcf08c4e976dacda57 42455032303a207472616e736665722066726f6d20746865207a65726f2061646472657373\n    data_1441cfbef485de93bedecc35b3d10fa2992db382c4c9c583a6e423a140abe4a4 42455032303a20617070726f76652066726f6d20746865207a65726f2061646472657373\n    data_245f15ff17f551913a7a18385165551503906a406f905ac1c2437281a7cd0cfe 4f776e61626c653a206e6577206f776e657220697320746865207a65726f2061646472657373\n    data_35f2f56bf70e2ae759087dc220b0e72189b8ee2f10efb0cfa38fabfa2765e306 4641414e473a3a64656c656761746542795369673a20696e76616c6964206e6f6e6365\n    data_44598df16e77d2968590d69e49f5e86c22c3347773526912228964ebf0bce0e2 4641414e473a3a64656c656761746542795369673a207369676e61747572652065787069726564\n    data_4f3506f4ba71c79c3cbd442a3afeb30e9b27af2d84e116a4385b34e267d2287e 42455032303a207472616e7366657220616d6f756e74206578636565647320616c6c6f77616e6365\n    data_69e7dee0b4c3ba101fe3a96ed2a4161350797f9fa3e7ed8457ab02e9480e1b6e 4641414e473a3a5f7772697465436865636b706f696e743a20626c6f636b206e756d62657220657863656564732033322062697473\n    data_a28e71f425b32a6f04f74ff331d8c2092633e109e1699e090629ebd644e0e919 4641414e473a3a6765745072696f72566f7465733a206e6f74207965742064657465726d696e6564\n    data_a91efd7a65ef5b4ae4d6568d674798b78a5a89184dd296c100513251c22d3e73 42455032303a207472616e7366657220616d6f756e7420657863656564732062616c616e6365\n    data_ac540f2a2a250acc678ed3f8d5fbddb917dcf58b26f411915aa20a10f0a75b33 4641414e473a3a64656c656761746542795369673a20696e76616c6964207369676e6174757265\n    data_ade9efcb59e42e439ffe61509b352b1af56d64ccb68d80b039b7b69578f371d2 42455032303a207472616e7366657220746f20746865207a65726f2061646472657373\n    data_b7060b3538dcd3ddc8a941c91636a8115a1aa46914747fd9809d543bbb46cd22 42455032303a2064656372656173656420616c6c6f77616e63652062656c6f77207a65726f\n    data_f10e7571e18b354270dee950932fb6a745efc79414b2b2556185a4ed6a1af0d5 42455032303a20617070726f766520746f20746865207a65726f2061646472657373\n\n    auxdata: 0xa264697066735822122073ff4ee2c9740783b283c12dbdb9a1ed258094b8324f7e766d00e9367a07f65a64736f6c634300060c0033\n}\n","bytecode":{"linkReferences":{},"object":"60806040523480156200001157600080fd5b506040518060400160405280600b81526020017f4641414e4720546f6b656e0000000000000000000000000000000000000000008152506040518060400160405280600581526020017f4641414e470000000000000000000000000000000000000000000000000000008152506000620000906200018460201b60201c565b9050806000806101000a81548173ffffffffffffffffffffffffffffffffffffffff021916908373ffffffffffffffffffffffffffffffffffffffff1602179055508073ffffffffffffffffffffffffffffffffffffffff16600073ffffffffffffffffffffffffffffffffffffffff167f8be0079c531659141344cd1fd0a4f28419497f9722a3daafe3b4186f6b6457e060405160405180910390a3508160049080519060200190620001469291906200018c565b5080600590805190602001906200015f9291906200018c565b506012600660006101000a81548160ff021916908360ff160217905550505062000232565b600033905090565b828054600181600116156101000203166002900490600052602060002090601f016020900481019282601f10620001cf57805160ff191683800117855562000200565b8280016001018555821562000200579182015b82811115620001ff578251825591602001919060010190620001e2565b5b5090506200020f919062000213565b5090565b5b808211156200022e57600081600090555060010162000214565b5090565b61302180620002426000396000f3fe608060405234801561001057600080fd5b50600436106101a95760003560e01c8063782d6fe1116100f9578063a9059cbb11610097578063dd62ed3e11610071578063dd62ed3e1461091c578063e7a324dc14610994578063f1127ed8146109b2578063f2fde38b14610a27576101a9565b8063a9059cbb146107e7578063b4b5ea571461084b578063c3cda520146108a3576101a9565b80638da5cb5b116100d35780638da5cb5b1461068857806395d89b41146106bc578063a0712d681461073f578063a457c2d714610783576101a9565b8063782d6fe11461059a5780637ecebe00146105fc578063893d20e814610654576101a9565b806339509351116101665780635c19a95c116101405780635c19a95c146104965780636fcfff45146104da57806370a0823114610538578063715018a614610590576101a9565b8063395093511461037657806340c10f19146103da578063587cde1e14610428576101a9565b806306fdde03146101ae578063095ea7b31461023157806318160ddd1461029557806320606b70146102b357806323b872dd146102d1578063313ce56714610355575b600080fd5b6101b6610a6b565b6040518080602001828103825283818151815260200191508051906020019080838360005b838110156101f65780820151818401526020810190506101db565b50505050905090810190601f1680156102235780820380516001836020036101000a031916815260200191505b509250505060405180910390f35b61027d6004803603604081101561024757600080fd5b81019080803573ffffffffffffffffffffffffffffffffffffffff16906020019092919080359060200190929190505050610b0d565b60405180821515815260200191505060405180910390f35b61029d610b2b565b6040518082815260200191505060405180910390f35b6102bb610b35565b6040518082815260200191505060405180910390f35b61033d600480360360608110156102e757600080fd5b81019080803573ffffffffffffffffffffffffffffffffffffffff169060200190929190803573ffffffffffffffffffffffffffffffffffffffff16906020019092919080359060200190929190505050610b59565b60405180821515815260200191505060405180910390f35b61035d610c32565b604051808260ff16815260200191505060405180910390f35b6103c26004803603604081101561038c57600080fd5b81019080803573ffffffffffffffffffffffffffffffffffffffff16906020019092919080359060200190929190505050610c49565b60405180821515815260200191505060405180910390f35b610426600480360360408110156103f057600080fd5b81019080803573ffffffffffffffffffffffffffffffffffffffff16906020019092919080359060200190929190505050610cfc565b005b61046a6004803603602081101561043e57600080fd5b81019080803573ffffffffffffffffffffffffffffffffffffffff169060200190929190505050610e3d565b604051808273ffffffffffffffffffffffffffffffffffffffff16815260200191505060405180910390f35b6104d8600480360360208110156104ac57600080fd5b81019080803573ffffffffffffffffffffffffffffffffffffffff169060200190929190505050610ea6565b005b61051c600480360360208110156104f057600080fd5b81019080803573ffffffffffffffffffffffffffffffffffffffff169060200190929190505050610eb3565b604051808263ffffffff16815260200191505060405180910390f35b61057a6004803603602081101561054e57600080fd5b81019080803573ffffffffffffffffffffffffffffffffffffffff169060200190929190505050610ed6565b6040518082815260200191505060405180910390f35b610598610f1f565b005b6105e6600480360360408110156105b057600080fd5b81019080803573ffffffffffffffffffffffffffffffffffffffff169060200190929190803590602001909291905050506110a5565b6040518082815260200191505060405180910390f35b61063e6004803603602081101561061257600080fd5b81019080803573ffffffffffffffffffffffffffffffffffffffff169060200190929190505050611466565b6040518082815260200191505060405180910390f35b61065c61147e565b604051808273ffffffffffffffffffffffffffffffffffffffff16815260200191505060405180910390f35b61069061148d565b604051808273ffffffffffffffffffffffffffffffffffffffff16815260200191505060405180910390f35b6106c46114b6565b6040518080602001828103825283818151815260200191508051906020019080838360005b838110156107045780820151818401526020810190506106e9565b50505050905090810190601f1680156107315780820380516001836020036101000a031916815260200191505b509250505060405180910390f35b61076b6004803603602081101561075557600080fd5b8101908080359060200190929190505050611558565b60405180821515815260200191505060405180910390f35b6107cf6004803603604081101561079957600080fd5b81019080803573ffffffffffffffffffffffffffffffffffffffff1690602001909291908035906020019092919050505061163c565b60405180821515815260200191505060405180910390f35b610833600480360360408110156107fd57600080fd5b81019080803573ffffffffffffffffffffffffffffffffffffffff16906020019092919080359060200190929190505050611709565b60405180821515815260200191505060405180910390f35b61088d6004803603602081101561086157600080fd5b81019080803573ffffffffffffffffffffffffffffffffffffffff169060200190929190505050611727565b6040518082815260200191505060405180910390f35b61091a600480360360c08110156108b957600080fd5b81019080803573ffffffffffffffffffffffffffffffffffffffff1690602001909291908035906020019092919080359060200190929190803560ff16906020019092919080359060200190929190803590602001909291905050506117fd565b005b61097e6004803603604081101561093257600080fd5b81019080803573ffffffffffffffffffffffffffffffffffffffff169060200190929190803573ffffffffffffffffffffffffffffffffffffffff169060200190929190505050611b61565b6040518082815260200191505060405180910390f35b61099c611be8565b6040518082815260200191505060405180910390f35b610a04600480360360408110156109c857600080fd5b81019080803573ffffffffffffffffffffffffffffffffffffffff169060200190929190803563ffffffff169060200190929190505050611c0c565b604051808363ffffffff1681526020018281526020019250505060405180910390f35b610a6960048036036020811015610a3d57600080fd5b81019080803573ffffffffffffffffffffffffffffffffffffffff169060200190929190505050611c4d565b005b606060048054600181600116156101000203166002900480601f016020809104026020016040519081016040528092919081815260200182805460018160011615610100020316600290048015610b035780601f10610ad857610100808354040283529160200191610b03565b820191906000526020600020905b815481529060010190602001808311610ae657829003601f168201915b5050505050905090565b6000610b21610b1a611d21565b8484611d29565b6001905092915050565b6000600354905090565b7f8cad95687ba82c2ce50e74f7b754645e5117c3a5bec8151c0726d5857980a86681565b6000610b66848484611f20565b610c2784610b72611d21565b610c2285604051806060016040528060288152602001612eb060289139600260008b73ffffffffffffffffffffffffffffffffffffffff1673ffffffffffffffffffffffffffffffffffffffff1681526020019081526020016000206000610bd8611d21565b73ffffffffffffffffffffffffffffffffffffffff1673ffffffffffffffffffffffffffffffffffffffff168152602001908152602001600020546121da9092919063ffffffff16565b611d29565b600190509392505050565b6000600660009054906101000a900460ff16905090565b6000610cf2610c56611d21565b84610ced8560026000610c67611d21565b73ffffffffffffffffffffffffffffffffffffffff1673ffffffffffffffffffffffffffffffffffffffff16815260200190815260200160002060008973ffffffffffffffffffffffffffffffffffffffff1673ffffffffffffffffffffffffffffffffffffffff1681526020019081526020016000205461229a90919063ffffffff16565b611d29565b6001905092915050565b610d04611d21565b73ffffffffffffffffffffffffffffffffffffffff1660008054906101000a900473ffffffffffffffffffffffffffffffffffffffff1673ffffffffffffffffffffffffffffffffffffffff1614610dc4576040517f08c379a00000000000000000000000000000000000000000000000000000000081526004018080602001828103825260208152602001807f4f776e61626c653a2063616c6c6572206973206e6f7420746865206f776e657281525060200191505060405180910390fd5b610dce8282612322565b610e396000600760008573ffffffffffffffffffffffffffffffffffffffff1673ffffffffffffffffffffffffffffffffffffffff16815260200190815260200160002060009054906101000a900473ffffffffffffffffffffffffffffffffffffffff16836124df565b5050565b6000600760008373ffffffffffffffffffffffffffffffffffffffff1673ffffffffffffffffffffffffffffffffffffffff16815260200190815260200160002060009054906101000a900473ffffffffffffffffffffffffffffffffffffffff169050919050565b610eb0338261277c565b50565b60096020528060005260406000206000915054906101000a900463ffffffff1681565b6000600160008373ffffffffffffffffffffffffffffffffffffffff1673ffffffffffffffffffffffffffffffffffffffff168152602001908152602001600020549050919050565b610f27611d21565b73ffffffffffffffffffffffffffffffffffffffff1660008054906101000a900473ffffffffffffffffffffffffffffffffffffffff1673ffffffffffffffffffffffffffffffffffffffff1614610fe7576040517f08c379a00000000000000000000000000000000000000000000000000000000081526004018080602001828103825260208152602001807f4f776e61626c653a2063616c6c6572206973206e6f7420746865206f776e657281525060200191505060405180910390fd5b600073ffffffffffffffffffffffffffffffffffffffff1660008054906101000a900473ffffffffffffffffffffffffffffffffffffffff1673ffffffffffffffffffffffffffffffffffffffff167f8be0079c531659141344cd1fd0a4f28419497f9722a3daafe3b4186f6b6457e060405160405180910390a360008060006101000a81548173ffffffffffffffffffffffffffffffffffffffff021916908373ffffffffffffffffffffffffffffffffffffffff160217905550565b60004382106110ff576040517f08c379a0000000000000000000000000000000000000000000000000000000008152600401808060200182810382526028815260200180612f0d6028913960400191505060405180910390fd5b6000600960008573ffffffffffffffffffffffffffffffffffffffff1673ffffffffffffffffffffffffffffffffffffffff16815260200190815260200160002060009054906101000a900463ffffffff16905060008163ffffffff16141561116c576000915050611460565b82600860008673ffffffffffffffffffffffffffffffffffffffff1673ffffffffffffffffffffffffffffffffffffffff16815260200190815260200160002060006001840363ffffffff1663ffffffff16815260200190815260200160002060000160009054906101000a900463ffffffff1663ffffffff161161125657600860008573ffffffffffffffffffffffffffffffffffffffff1673ffffffffffffffffffffffffffffffffffffffff16815260200190815260200160002060006001830363ffffffff1663ffffffff16815260200190815260200160002060010154915050611460565b82600860008673ffffffffffffffffffffffffffffffffffffffff1673ffffffffffffffffffffffffffffffffffffffff16815260200190815260200160002060008063ffffffff16815260200190815260200160002060000160009054906101000a900463ffffffff1663ffffffff1611156112d7576000915050611460565b6000806001830390505b8163ffffffff168163ffffffff1611156113fa576000600283830363ffffffff168161130957fe5b0482039050611316612dd6565b600860008973ffffffffffffffffffffffffffffffffffffffff1673ffffffffffffffffffffffffffffffffffffffff16815260200190815260200160002060008363ffffffff1663ffffffff1681526020019081526020016000206040518060400160405290816000820160009054906101000a900463ffffffff1663ffffffff1663ffffffff168152602001600182015481525050905086816000015163ffffffff1614156113d257806020015195505050505050611460565b86816000015163ffffffff1610156113ec578193506113f3565b6001820392505b50506112e1565b600860008773ffffffffffffffffffffffffffffffffffffffff1673ffffffffffffffffffffffffffffffffffffffff16815260200190815260200160002060008363ffffffff1663ffffffff1681526020019081526020016000206001015493505050505b92915050565b600a6020528060005260406000206000915090505481565b600061148861148d565b905090565b60008060009054906101000a900473ffffffffffffffffffffffffffffffffffffffff16905090565b606060058054600181600116156101000203166002900480601f01602080910402602001604051908101604052809291908181526020018280546001816001161561010002031660029004801561154e5780601f106115235761010080835404028352916020019161154e565b820191906000526020600020905b81548152906001019060200180831161153157829003601f168201915b5050505050905090565b6000611562611d21565b73ffffffffffffffffffffffffffffffffffffffff1660008054906101000a900473ffffffffffffffffffffffffffffffffffffffff1673ffffffffffffffffffffffffffffffffffffffff1614611622576040517f08c379a00000000000000000000000000000000000000000000000000000000081526004018080602001828103825260208152602001807f4f776e61626c653a2063616c6c6572206973206e6f7420746865206f776e657281525060200191505060405180910390fd5b61163361162d611d21565b83612322565b60019050919050565b60006116ff611649611d21565b846116fa85604051806060016040528060258152602001612fa56025913960026000611673611d21565b73ffffffffffffffffffffffffffffffffffffffff1673ffffffffffffffffffffffffffffffffffffffff16815260200190815260200160002060008a73ffffffffffffffffffffffffffffffffffffffff1673ffffffffffffffffffffffffffffffffffffffff168152602001908152602001600020546121da9092919063ffffffff16565b611d29565b6001905092915050565b600061171d611716611d21565b8484611f20565b6001905092915050565b600080600960008473ffffffffffffffffffffffffffffffffffffffff1673ffffffffffffffffffffffffffffffffffffffff16815260200190815260200160002060009054906101000a900463ffffffff16905060008163ffffffff16116117915760006117f5565b600860008473ffffffffffffffffffffffffffffffffffffffff1673ffffffffffffffffffffffffffffffffffffffff16815260200190815260200160002060006001830363ffffffff1663ffffffff168152602001908152602001600020600101545b915050919050565b60007f8cad95687ba82c2ce50e74f7b754645e5117c3a5bec8151c0726d5857980a866611828610a6b565b805190602001206118376128ed565b30604051602001808581526020018481526020018381526020018273ffffffffffffffffffffffffffffffffffffffff16815260200194505050505060405160208183030381529060405280519060200120905060007fe48329057bfd03d55e49b547132e39cffd9c1820ad7b9d4c5307691425d15adf888888604051602001808581526020018473ffffffffffffffffffffffffffffffffffffffff1681526020018381526020018281526020019450505050506040516020818303038152906040528051906020012090506000828260405160200180807f190100000000000000000000000000000000000000000000000000000000000081525060020183815260200182815260200192505050604051602081830303815290604052805190602001209050600060018288888860405160008152602001604052604051808581526020018460ff1681526020018381526020018281526020019450505050506020604051602081039080840390855afa1580156119bb573d6000803e3d6000fd5b505050602060405103519050600073ffffffffffffffffffffffffffffffffffffffff168173ffffffffffffffffffffffffffffffffffffffff161415611a4d576040517f08c379a0000000000000000000000000000000000000000000000000000000008152600401808060200182810382526027815260200180612f5b6027913960400191505060405180910390fd5b600a60008273ffffffffffffffffffffffffffffffffffffffff1673ffffffffffffffffffffffffffffffffffffffff1681526020019081526020016000206000815480929190600101919050558914611af2576040517f08c379a0000000000000000000000000000000000000000000000000000000008152600401808060200182810382526023815260200180612e666023913960400191505060405180910390fd5b87421115611b4b576040517f08c379a0000000000000000000000000000000000000000000000000000000008152600401808060200182810382526027815260200180612e896027913960400191505060405180910390fd5b611b55818b61277c565b50505050505050505050565b6000600260008473ffffffffffffffffffffffffffffffffffffffff1673ffffffffffffffffffffffffffffffffffffffff16815260200190815260200160002060008373ffffffffffffffffffffffffffffffffffffffff1673ffffffffffffffffffffffffffffffffffffffff16815260200190815260200160002054905092915050565b7fe48329057bfd03d55e49b547132e39cffd9c1820ad7b9d4c5307691425d15adf81565b6008602052816000526040600020602052806000526040600020600091509150508060000160009054906101000a900463ffffffff16908060010154905082565b611c55611d21565b73ffffffffffffffffffffffffffffffffffffffff1660008054906101000a900473ffffffffffffffffffffffffffffffffffffffff1673ffffffffffffffffffffffffffffffffffffffff1614611d15576040517f08c379a00000000000000000000000000000000000000000000000000000000081526004018080602001828103825260208152602001807f4f776e61626c653a2063616c6c6572206973206e6f7420746865206f776e657281525060200191505060405180910390fd5b611d1e816128fa565b50565b600033905090565b600073ffffffffffffffffffffffffffffffffffffffff168373ffffffffffffffffffffffffffffffffffffffff161415611daf576040517f08c379a0000000000000000000000000000000000000000000000000000000008152600401808060200182810382526024815260200180612e1c6024913960400191505060405180910390fd5b600073ffffffffffffffffffffffffffffffffffffffff168273ffffffffffffffffffffffffffffffffffffffff161415611e35576040517f08c379a0000000000000000000000000000000000000000000000000000000008152600401808060200182810382526022815260200180612fca6022913960400191505060405180910390fd5b80600260008573ffffffffffffffffffffffffffffffffffffffff1673ffffffffffffffffffffffffffffffffffffffff16815260200190815260200160002060008473ffffffffffffffffffffffffffffffffffffffff1673ffffffffffffffffffffffffffffffffffffffff168152602001908152602001600020819055508173ffffffffffffffffffffffffffffffffffffffff168373ffffffffffffffffffffffffffffffffffffffff167f8c5be1e5ebec7d5bd14f71427d1e84f3dd0314c0f7b2291e5b200ac8c7c3b925836040518082815260200191505060405180910390a3505050565b600073ffffffffffffffffffffffffffffffffffffffff168373ffffffffffffffffffffffffffffffffffffffff161415611fa6576040517f08c379a0000000000000000000000000000000000000000000000000000000008152600401808060200182810382526025815260200180612df76025913960400191505060405180910390fd5b600073ffffffffffffffffffffffffffffffffffffffff168273ffffffffffffffffffffffffffffffffffffffff16141561202c576040517f08c379a0000000000000000000000000000000000000000000000000000000008152600401808060200182810382526023815260200180612f826023913960400191505060405180910390fd5b61209881604051806060016040528060268152602001612f3560269139600160008773ffffffffffffffffffffffffffffffffffffffff1673ffffffffffffffffffffffffffffffffffffffff168152602001908152602001600020546121da9092919063ffffffff16565b600160008573ffffffffffffffffffffffffffffffffffffffff1673ffffffffffffffffffffffffffffffffffffffff1681526020019081526020016000208190555061212d81600160008573ffffffffffffffffffffffffffffffffffffffff1673ffffffffffffffffffffffffffffffffffffffff1681526020019081526020016000205461229a90919063ffffffff16565b600160008473ffffffffffffffffffffffffffffffffffffffff1673ffffffffffffffffffffffffffffffffffffffff168152602001908152602001600020819055508173ffffffffffffffffffffffffffffffffffffffff168373ffffffffffffffffffffffffffffffffffffffff167fddf252ad1be2c89b69c2b068fc378daa952ba7f163c4a11628f55a4df523b3ef836040518082815260200191505060405180910390a3505050565b6000838311158290612287576040517f08c379a00000000000000000000000000000000000000000000000000000000081526004018080602001828103825283818151815260200191508051906020019080838360005b8381101561224c578082015181840152602081019050612231565b50505050905090810190601f1680156122795780820380516001836020036101000a031916815260200191505b509250505060405180910390fd5b5060008385039050809150509392505050565b600080828401905083811015612318576040517f08c379a000000000000000000000000000000000000000000000000000000000815260040180806020018281038252601b8152602001807f536166654d6174683a206164646974696f6e206f766572666c6f77000000000081525060200191505060405180910390fd5b8091505092915050565b600073ffffffffffffffffffffffffffffffffffffffff168273ffffffffffffffffffffffffffffffffffffffff1614156123c5576040517f08c379a000000000000000000000000000000000000000000000000000000000815260040180806020018281038252601f8152602001807f42455032303a206d696e7420746f20746865207a65726f20616464726573730081525060200191505060405180910390fd5b6123da8160035461229a90919063ffffffff16565b60038190555061243281600160008573ffffffffffffffffffffffffffffffffffffffff1673ffffffffffffffffffffffffffffffffffffffff1681526020019081526020016000205461229a90919063ffffffff16565b600160008473ffffffffffffffffffffffffffffffffffffffff1673ffffffffffffffffffffffffffffffffffffffff168152602001908152602001600020819055508173ffffffffffffffffffffffffffffffffffffffff16600073ffffffffffffffffffffffffffffffffffffffff167fddf252ad1be2c89b69c2b068fc378daa952ba7f163c4a11628f55a4df523b3ef836040518082815260200191505060405180910390a35050565b8173ffffffffffffffffffffffffffffffffffffffff168373ffffffffffffffffffffffffffffffffffffffff161415801561251b5750600081115b1561277757600073ffffffffffffffffffffffffffffffffffffffff168373ffffffffffffffffffffffffffffffffffffffff161461264b576000600960008573ffffffffffffffffffffffffffffffffffffffff1673ffffffffffffffffffffffffffffffffffffffff16815260200190815260200160002060009054906101000a900463ffffffff1690506000808263ffffffff16116125be576000612622565b600860008673ffffffffffffffffffffffffffffffffffffffff1673ffffffffffffffffffffffffffffffffffffffff16815260200190815260200160002060006001840363ffffffff1663ffffffff168152602001908152602001600020600101545b905060006126398483612a3d90919063ffffffff16565b905061264786848484612a87565b5050505b600073ffffffffffffffffffffffffffffffffffffffff168273ffffffffffffffffffffffffffffffffffffffff1614612776576000600960008473ffffffffffffffffffffffffffffffffffffffff1673ffffffffffffffffffffffffffffffffffffffff16815260200190815260200160002060009054906101000a900463ffffffff1690506000808263ffffffff16116126e957600061274d565b600860008573ffffffffffffffffffffffffffffffffffffffff1673ffffffffffffffffffffffffffffffffffffffff16815260200190815260200160002060006001840363ffffffff1663ffffffff168152602001908152602001600020600101545b90506000612764848361229a90919063ffffffff16565b905061277285848484612a87565b5050505b5b505050565b6000600760008473ffffffffffffffffffffffffffffffffffffffff1673ffffffffffffffffffffffffffffffffffffffff16815260200190815260200160002060009054906101000a900473ffffffffffffffffffffffffffffffffffffffff16905060006127eb84610ed6565b905082600760008673ffffffffffffffffffffffffffffffffffffffff1673ffffffffffffffffffffffffffffffffffffffff16815260200190815260200160002060006101000a81548173ffffffffffffffffffffffffffffffffffffffff021916908373ffffffffffffffffffffffffffffffffffffffff1602179055508273ffffffffffffffffffffffffffffffffffffffff168273ffffffffffffffffffffffffffffffffffffffff168573ffffffffffffffffffffffffffffffffffffffff167f3134e8a2e6d97e929a7e54011ea5485d7d196dd5f0ba4d4ef95803e8e3fc257f60405160405180910390a46128e78284836124df565b50505050565b6000804690508091505090565b600073ffffffffffffffffffffffffffffffffffffffff168173ffffffffffffffffffffffffffffffffffffffff161415612980576040517f08c379a0000000000000000000000000000000000000000000000000000000008152600401808060200182810382526026815260200180612e406026913960400191505060405180910390fd5b8073ffffffffffffffffffffffffffffffffffffffff1660008054906101000a900473ffffffffffffffffffffffffffffffffffffffff1673ffffffffffffffffffffffffffffffffffffffff167f8be0079c531659141344cd1fd0a4f28419497f9722a3daafe3b4186f6b6457e060405160405180910390a3806000806101000a81548173ffffffffffffffffffffffffffffffffffffffff021916908373ffffffffffffffffffffffffffffffffffffffff16021790555050565b6000612a7f83836040518060400160405280601e81526020017f536166654d6174683a207375627472616374696f6e206f766572666c6f7700008152506121da565b905092915050565b6000612aab43604051806060016040528060358152602001612ed860359139612d1b565b905060008463ffffffff16118015612b4057508063ffffffff16600860008773ffffffffffffffffffffffffffffffffffffffff1673ffffffffffffffffffffffffffffffffffffffff16815260200190815260200160002060006001870363ffffffff1663ffffffff16815260200190815260200160002060000160009054906101000a900463ffffffff1663ffffffff16145b15612bb15781600860008773ffffffffffffffffffffffffffffffffffffffff1673ffffffffffffffffffffffffffffffffffffffff16815260200190815260200160002060006001870363ffffffff1663ffffffff16815260200190815260200160002060010181905550612cbe565b60405180604001604052808263ffffffff16815260200183815250600860008773ffffffffffffffffffffffffffffffffffffffff1673ffffffffffffffffffffffffffffffffffffffff16815260200190815260200160002060008663ffffffff1663ffffffff16815260200190815260200160002060008201518160000160006101000a81548163ffffffff021916908363ffffffff1602179055506020820151816001015590505060018401600960008773ffffffffffffffffffffffffffffffffffffffff1673ffffffffffffffffffffffffffffffffffffffff16815260200190815260200160002060006101000a81548163ffffffff021916908363ffffffff1602179055505b8473ffffffffffffffffffffffffffffffffffffffff167fdec2bacdd2f05b59de34da9b523dff8be42e5e38e818c82fdb0bae774387a7248484604051808381526020018281526020019250505060405180910390a25050505050565b600064010000000083108290612dcc576040517f08c379a00000000000000000000000000000000000000000000000000000000081526004018080602001828103825283818151815260200191508051906020019080838360005b83811015612d91578082015181840152602081019050612d76565b50505050905090810190601f168015612dbe5780820380516001836020036101000a031916815260200191505b509250505060405180910390fd5b5082905092915050565b6040518060400160405280600063ffffffff16815260200160008152509056fe42455032303a207472616e736665722066726f6d20746865207a65726f206164647265737342455032303a20617070726f76652066726f6d20746865207a65726f20616464726573734f776e61626c653a206e6577206f776e657220697320746865207a65726f20616464726573734641414e473a3a64656c656761746542795369673a20696e76616c6964206e6f6e63654641414e473a3a64656c656761746542795369673a207369676e6174757265206578706972656442455032303a207472616e7366657220616d6f756e74206578636565647320616c6c6f77616e63654641414e473a3a5f7772697465436865636b706f696e743a20626c6f636b206e756d626572206578636565647320333220626974734641414e473a3a6765745072696f72566f7465733a206e6f74207965742064657465726d696e656442455032303a207472616e7366657220616d6f756e7420657863656564732062616c616e63654641414e473a3a64656c656761746542795369673a20696e76616c6964207369676e617475726542455032303a207472616e7366657220746f20746865207a65726f206164647265737342455032303a2064656372656173656420616c6c6f77616e63652062656c6f77207a65726f42455032303a20617070726f766520746f20746865207a65726f2061646472657373a264697066735822122073ff4ee2c9740783b283c12dbdb9a1ed258094b8324f7e766d00e9367a07f65a64736f6c634300060c0033","opcodes":"PUSH1 0x80 PUSH1 0x40 MSTORE CALLVALUE DUP1 ISZERO PUSH3 0x11 JUMPI PUSH1 0x0 DUP1 REVERT JUMPDEST POP PUSH1 0x40 MLOAD DUP1 PUSH1 0x40 ADD PUSH1 0x40 MSTORE DUP1 PUSH1 0xB DUP2 MSTORE PUSH1 0x20 ADD PUSH32 0x4641414E4720546F6B656E000000000000000000000000000000000000000000 DUP2 MSTORE POP PUSH1 0x40 MLOAD DUP1 PUSH1 0x40 ADD PUSH1 0x40 MSTORE DUP1 PUSH1 0x5 DUP2 MSTORE PUSH1 0x20 ADD PUSH32 0x4641414E47000000000000000000000000000000000000000000000000000000 DUP2 MSTORE POP PUSH1 0x0 PUSH3 0x90 PUSH3 0x184 PUSH1 0x20 SHL PUSH1 0x20 SHR JUMP JUMPDEST SWAP1 POP DUP1 PUSH1 0x0 DUP1 PUSH2 0x100 EXP DUP2 SLOAD DUP2 PUSH20 0xFFFFFFFFFFFFFFFFFFFFFFFFFFFFFFFFFFFFFFFF MUL NOT AND SWAP1 DUP4 PUSH20 0xFFFFFFFFFFFFFFFFFFFFFFFFFFFFFFFFFFFFFFFF AND MUL OR SWAP1 SSTORE POP DUP1 PUSH20 0xFFFFFFFFFFFFFFFFFFFFFFFFFFFFFFFFFFFFFFFF AND PUSH1 0x0 PUSH20 0xFFFFFFFFFFFFFFFFFFFFFFFFFFFFFFFFFFFFFFFF AND PUSH32 0x8BE0079C531659141344CD1FD0A4F28419497F9722A3DAAFE3B4186F6B6457E0 PUSH1 0x40 MLOAD PUSH1 0x40 MLOAD DUP1 SWAP2 SUB SWAP1 LOG3 POP DUP2 PUSH1 0x4 SWAP1 DUP1 MLOAD SWAP1 PUSH1 0x20 ADD SWAP1 PUSH3 0x146 SWAP3 SWAP2 SWAP1 PUSH3 0x18C JUMP JUMPDEST POP DUP1 PUSH1 0x5 SWAP1 DUP1 MLOAD SWAP1 PUSH1 0x20 ADD SWAP1 PUSH3 0x15F SWAP3 SWAP2 SWAP1 PUSH3 0x18C JUMP JUMPDEST POP PUSH1 0x12 PUSH1 0x6 PUSH1 0x0 PUSH2 0x100 EXP DUP2 SLOAD DUP2 PUSH1 0xFF MUL NOT AND SWAP1 DUP4 PUSH1 0xFF AND MUL OR SWAP1 SSTORE POP POP POP PUSH3 0x232 JUMP JUMPDEST PUSH1 0x0 CALLER SWAP1 POP SWAP1 JUMP JUMPDEST DUP3 DUP1 SLOAD PUSH1 0x1 DUP2 PUSH1 0x1 AND ISZERO PUSH2 0x100 MUL SUB AND PUSH1 0x2 SWAP1 DIV SWAP1 PUSH1 0x0 MSTORE PUSH1 0x20 PUSH1 0x0 KECCAK256 SWAP1 PUSH1 0x1F ADD PUSH1 0x20 SWAP1 DIV DUP2 ADD SWAP3 DUP3 PUSH1 0x1F LT PUSH3 0x1CF JUMPI DUP1 MLOAD PUSH1 0xFF NOT AND DUP4 DUP1 ADD OR DUP6 SSTORE PUSH3 0x200 JUMP JUMPDEST DUP3 DUP1 ADD PUSH1 0x1 ADD DUP6 SSTORE DUP3 ISZERO PUSH3 0x200 JUMPI SWAP2 DUP3 ADD JUMPDEST DUP3 DUP2 GT ISZERO PUSH3 0x1FF JUMPI DUP3 MLOAD DUP3 SSTORE SWAP2 PUSH1 0x20 ADD SWAP2 SWAP1 PUSH1 0x1 ADD SWAP1 PUSH3 0x1E2 JUMP JUMPDEST JUMPDEST POP SWAP1 POP PUSH3 0x20F SWAP2 SWAP1 PUSH3 0x213 JUMP JUMPDEST POP SWAP1 JUMP JUMPDEST JUMPDEST DUP1 DUP3 GT ISZERO PUSH3 0x22E JUMPI PUSH1 0x0 DUP2 PUSH1 0x0 SWAP1 SSTORE POP PUSH1 0x1 ADD PUSH3 0x214 JUMP JUMPDEST POP SWAP1 JUMP JUMPDEST PUSH2 0x3021 DUP1 PUSH3 0x242 PUSH1 0x0 CODECOPY PUSH1 0x0 RETURN INVALID PUSH1 0x80 PUSH1 0x40 MSTORE CALLVALUE DUP1 ISZERO PUSH2 0x10 JUMPI PUSH1 0x0 DUP1 REVERT JUMPDEST POP PUSH1 0x4 CALLDATASIZE LT PUSH2 0x1A9 JUMPI PUSH1 0x0 CALLDATALOAD PUSH1 0xE0 SHR DUP1 PUSH4 0x782D6FE1 GT PUSH2 0xF9 JUMPI DUP1 PUSH4 0xA9059CBB GT PUSH2 0x97 JUMPI DUP1 PUSH4 0xDD62ED3E GT PUSH2 0x71 JUMPI DUP1 PUSH4 0xDD62ED3E EQ PUSH2 0x91C JUMPI DUP1 PUSH4 0xE7A324DC EQ PUSH2 0x994 JUMPI DUP1 PUSH4 0xF1127ED8 EQ PUSH2 0x9B2 JUMPI DUP1 PUSH4 0xF2FDE38B EQ PUSH2 0xA27 JUMPI PUSH2 0x1A9 JUMP JUMPDEST DUP1 PUSH4 0xA9059CBB EQ PUSH2 0x7E7 JUMPI DUP1 PUSH4 0xB4B5EA57 EQ PUSH2 0x84B JUMPI DUP1 PUSH4 0xC3CDA520 EQ PUSH2 0x8A3 JUMPI PUSH2 0x1A9 JUMP JUMPDEST DUP1 PUSH4 0x8DA5CB5B GT PUSH2 0xD3 JUMPI DUP1 PUSH4 0x8DA5CB5B EQ PUSH2 0x688 JUMPI DUP1 PUSH4 0x95D89B41 EQ PUSH2 0x6BC JUMPI DUP1 PUSH4 0xA0712D68 EQ PUSH2 0x73F JUMPI DUP1 PUSH4 0xA457C2D7 EQ PUSH2 0x783 JUMPI PUSH2 0x1A9 JUMP JUMPDEST DUP1 PUSH4 0x782D6FE1 EQ PUSH2 0x59A JUMPI DUP1 PUSH4 0x7ECEBE00 EQ PUSH2 0x5FC JUMPI DUP1 PUSH4 0x893D20E8 EQ PUSH2 0x654 JUMPI PUSH2 0x1A9 JUMP JUMPDEST DUP1 PUSH4 0x39509351 GT PUSH2 0x166 JUMPI DUP1 PUSH4 0x5C19A95C GT PUSH2 0x140 JUMPI DUP1 PUSH4 0x5C19A95C EQ PUSH2 0x496 JUMPI DUP1 PUSH4 0x6FCFFF45 EQ PUSH2 0x4DA JUMPI DUP1 PUSH4 0x70A08231 EQ PUSH2 0x538 JUMPI DUP1 PUSH4 0x715018A6 EQ PUSH2 0x590 JUMPI PUSH2 0x1A9 JUMP JUMPDEST DUP1 PUSH4 0x39509351 EQ PUSH2 0x376 JUMPI DUP1 PUSH4 0x40C10F19 EQ PUSH2 0x3DA JUMPI DUP1 PUSH4 0x587CDE1E EQ PUSH2 0x428 JUMPI PUSH2 0x1A9 JUMP JUMPDEST DUP1 PUSH4 0x6FDDE03 EQ PUSH2 0x1AE JUMPI DUP1 PUSH4 0x95EA7B3 EQ PUSH2 0x231 JUMPI DUP1 PUSH4 0x18160DDD EQ PUSH2 0x295 JUMPI DUP1 PUSH4 0x20606B70 EQ PUSH2 0x2B3 JUMPI DUP1 PUSH4 0x23B872DD EQ PUSH2 0x2D1 JUMPI DUP1 PUSH4 0x313CE567 EQ PUSH2 0x355 JUMPI JUMPDEST PUSH1 0x0 DUP1 REVERT JUMPDEST PUSH2 0x1B6 PUSH2 0xA6B JUMP JUMPDEST PUSH1 0x40 MLOAD DUP1 DUP1 PUSH1 0x20 ADD DUP3 DUP2 SUB DUP3 MSTORE DUP4 DUP2 DUP2 MLOAD DUP2 MSTORE PUSH1 0x20 ADD SWAP2 POP DUP1 MLOAD SWAP1 PUSH1 0x20 ADD SWAP1 DUP1 DUP4 DUP4 PUSH1 0x0 JUMPDEST DUP4 DUP2 LT ISZERO PUSH2 0x1F6 JUMPI DUP1 DUP3 ADD MLOAD DUP2 DUP5 ADD MSTORE PUSH1 0x20 DUP2 ADD SWAP1 POP PUSH2 0x1DB JUMP JUMPDEST POP POP POP POP SWAP1 POP SWAP1 DUP2 ADD SWAP1 PUSH1 0x1F AND DUP1 ISZERO PUSH2 0x223 JUMPI DUP1 DUP3 SUB DUP1 MLOAD PUSH1 0x1 DUP4 PUSH1 0x20 SUB PUSH2 0x100 EXP SUB NOT AND DUP2 MSTORE PUSH1 0x20 ADD SWAP2 POP JUMPDEST POP SWAP3 POP POP POP PUSH1 0x40 MLOAD DUP1 SWAP2 SUB SWAP1 RETURN JUMPDEST PUSH2 0x27D PUSH1 0x4 DUP1 CALLDATASIZE SUB PUSH1 0x40 DUP2 LT ISZERO PUSH2 0x247 JUMPI PUSH1 0x0 DUP1 REVERT JUMPDEST DUP2 ADD SWAP1 DUP1 DUP1 CALLDATALOAD PUSH20 0xFFFFFFFFFFFFFFFFFFFFFFFFFFFFFFFFFFFFFFFF AND SWAP1 PUSH1 0x20 ADD SWAP1 SWAP3 SWAP2 SWAP1 DUP1 CALLDATALOAD SWAP1 PUSH1 0x20 ADD SWAP1 SWAP3 SWAP2 SWAP1 POP POP POP PUSH2 0xB0D JUMP JUMPDEST PUSH1 0x40 MLOAD DUP1 DUP3 ISZERO ISZERO DUP2 MSTORE PUSH1 0x20 ADD SWAP2 POP POP PUSH1 0x40 MLOAD DUP1 SWAP2 SUB SWAP1 RETURN JUMPDEST PUSH2 0x29D PUSH2 0xB2B JUMP JUMPDEST PUSH1 0x40 MLOAD DUP1 DUP3 DUP2 MSTORE PUSH1 0x20 ADD SWAP2 POP POP PUSH1 0x40 MLOAD DUP1 SWAP2 SUB SWAP1 RETURN JUMPDEST PUSH2 0x2BB PUSH2 0xB35 JUMP JUMPDEST PUSH1 0x40 MLOAD DUP1 DUP3 DUP2 MSTORE PUSH1 0x20 ADD SWAP2 POP POP PUSH1 0x40 MLOAD DUP1 SWAP2 SUB SWAP1 RETURN JUMPDEST PUSH2 0x33D PUSH1 0x4 DUP1 CALLDATASIZE SUB PUSH1 0x60 DUP2 LT ISZERO PUSH2 0x2E7 JUMPI PUSH1 0x0 DUP1 REVERT JUMPDEST DUP2 ADD SWAP1 DUP1 DUP1 CALLDATALOAD PUSH20 0xFFFFFFFFFFFFFFFFFFFFFFFFFFFFFFFFFFFFFFFF AND SWAP1 PUSH1 0x20 ADD SWAP1 SWAP3 SWAP2 SWAP1 DUP1 CALLDATALOAD PUSH20 0xFFFFFFFFFFFFFFFFFFFFFFFFFFFFFFFFFFFFFFFF AND SWAP1 PUSH1 0x20 ADD SWAP1 SWAP3 SWAP2 SWAP1 DUP1 CALLDATALOAD SWAP1 PUSH1 0x20 ADD SWAP1 SWAP3 SWAP2 SWAP1 POP POP POP PUSH2 0xB59 JUMP JUMPDEST PUSH1 0x40 MLOAD DUP1 DUP3 ISZERO ISZERO DUP2 MSTORE PUSH1 0x20 ADD SWAP2 POP POP PUSH1 0x40 MLOAD DUP1 SWAP2 SUB SWAP1 RETURN JUMPDEST PUSH2 0x35D PUSH2 0xC32 JUMP JUMPDEST PUSH1 0x40 MLOAD DUP1 DUP3 PUSH1 0xFF AND DUP2 MSTORE PUSH1 0x20 ADD SWAP2 POP POP PUSH1 0x40 MLOAD DUP1 SWAP2 SUB SWAP1 RETURN JUMPDEST PUSH2 0x3C2 PUSH1 0x4 DUP1 CALLDATASIZE SUB PUSH1 0x40 DUP2 LT ISZERO PUSH2 0x38C JUMPI PUSH1 0x0 DUP1 REVERT JUMPDEST DUP2 ADD SWAP1 DUP1 DUP1 CALLDATALOAD PUSH20 0xFFFFFFFFFFFFFFFFFFFFFFFFFFFFFFFFFFFFFFFF AND SWAP1 PUSH1 0x20 ADD SWAP1 SWAP3 SWAP2 SWAP1 DUP1 CALLDATALOAD SWAP1 PUSH1 0x20 ADD SWAP1 SWAP3 SWAP2 SWAP1 POP POP POP PUSH2 0xC49 JUMP JUMPDEST PUSH1 0x40 MLOAD DUP1 DUP3 ISZERO ISZERO DUP2 MSTORE PUSH1 0x20 ADD SWAP2 POP POP PUSH1 0x40 MLOAD DUP1 SWAP2 SUB SWAP1 RETURN JUMPDEST PUSH2 0x426 PUSH1 0x4 DUP1 CALLDATASIZE SUB PUSH1 0x40 DUP2 LT ISZERO PUSH2 0x3F0 JUMPI PUSH1 0x0 DUP1 REVERT JUMPDEST DUP2 ADD SWAP1 DUP1 DUP1 CALLDATALOAD PUSH20 0xFFFFFFFFFFFFFFFFFFFFFFFFFFFFFFFFFFFFFFFF AND SWAP1 PUSH1 0x20 ADD SWAP1 SWAP3 SWAP2 SWAP1 DUP1 CALLDATALOAD SWAP1 PUSH1 0x20 ADD SWAP1 SWAP3 SWAP2 SWAP1 POP POP POP PUSH2 0xCFC JUMP JUMPDEST STOP JUMPDEST PUSH2 0x46A PUSH1 0x4 DUP1 CALLDATASIZE SUB PUSH1 0x20 DUP2 LT ISZERO PUSH2 0x43E JUMPI PUSH1 0x0 DUP1 REVERT JUMPDEST DUP2 ADD SWAP1 DUP1 DUP1 CALLDATALOAD PUSH20 0xFFFFFFFFFFFFFFFFFFFFFFFFFFFFFFFFFFFFFFFF AND SWAP1 PUSH1 0x20 ADD SWAP1 SWAP3 SWAP2 SWAP1 POP POP POP PUSH2 0xE3D JUMP JUMPDEST PUSH1 0x40 MLOAD DUP1 DUP3 PUSH20 0xFFFFFFFFFFFFFFFFFFFFFFFFFFFFFFFFFFFFFFFF AND DUP2 MSTORE PUSH1 0x20 ADD SWAP2 POP POP PUSH1 0x40 MLOAD DUP1 SWAP2 SUB SWAP1 RETURN JUMPDEST PUSH2 0x4D8 PUSH1 0x4 DUP1 CALLDATASIZE SUB PUSH1 0x20 DUP2 LT ISZERO PUSH2 0x4AC JUMPI PUSH1 0x0 DUP1 REVERT JUMPDEST DUP2 ADD SWAP1 DUP1 DUP1 CALLDATALOAD PUSH20 0xFFFFFFFFFFFFFFFFFFFFFFFFFFFFFFFFFFFFFFFF AND SWAP1 PUSH1 0x20 ADD SWAP1 SWAP3 SWAP2 SWAP1 POP POP POP PUSH2 0xEA6 JUMP JUMPDEST STOP JUMPDEST PUSH2 0x51C PUSH1 0x4 DUP1 CALLDATASIZE SUB PUSH1 0x20 DUP2 LT ISZERO PUSH2 0x4F0 JUMPI PUSH1 0x0 DUP1 REVERT JUMPDEST DUP2 ADD SWAP1 DUP1 DUP1 CALLDATALOAD PUSH20 0xFFFFFFFFFFFFFFFFFFFFFFFFFFFFFFFFFFFFFFFF AND SWAP1 PUSH1 0x20 ADD SWAP1 SWAP3 SWAP2 SWAP1 POP POP POP PUSH2 0xEB3 JUMP JUMPDEST PUSH1 0x40 MLOAD DUP1 DUP3 PUSH4 0xFFFFFFFF AND DUP2 MSTORE PUSH1 0x20 ADD SWAP2 POP POP PUSH1 0x40 MLOAD DUP1 SWAP2 SUB SWAP1 RETURN JUMPDEST PUSH2 0x57A PUSH1 0x4 DUP1 CALLDATASIZE SUB PUSH1 0x20 DUP2 LT ISZERO PUSH2 0x54E JUMPI PUSH1 0x0 DUP1 REVERT JUMPDEST DUP2 ADD SWAP1 DUP1 DUP1 CALLDATALOAD PUSH20 0xFFFFFFFFFFFFFFFFFFFFFFFFFFFFFFFFFFFFFFFF AND SWAP1 PUSH1 0x20 ADD SWAP1 SWAP3 SWAP2 SWAP1 POP POP POP PUSH2 0xED6 JUMP JUMPDEST PUSH1 0x40 MLOAD DUP1 DUP3 DUP2 MSTORE PUSH1 0x20 ADD SWAP2 POP POP PUSH1 0x40 MLOAD DUP1 SWAP2 SUB SWAP1 RETURN JUMPDEST PUSH2 0x598 PUSH2 0xF1F JUMP JUMPDEST STOP JUMPDEST PUSH2 0x5E6 PUSH1 0x4 DUP1 CALLDATASIZE SUB PUSH1 0x40 DUP2 LT ISZERO PUSH2 0x5B0 JUMPI PUSH1 0x0 DUP1 REVERT JUMPDEST DUP2 ADD SWAP1 DUP1 DUP1 CALLDATALOAD PUSH20 0xFFFFFFFFFFFFFFFFFFFFFFFFFFFFFFFFFFFFFFFF AND SWAP1 PUSH1 0x20 ADD SWAP1 SWAP3 SWAP2 SWAP1 DUP1 CALLDATALOAD SWAP1 PUSH1 0x20 ADD SWAP1 SWAP3 SWAP2 SWAP1 POP POP POP PUSH2 0x10A5 JUMP JUMPDEST PUSH1 0x40 MLOAD DUP1 DUP3 DUP2 MSTORE PUSH1 0x20 ADD SWAP2 POP POP PUSH1 0x40 MLOAD DUP1 SWAP2 SUB SWAP1 RETURN JUMPDEST PUSH2 0x63E PUSH1 0x4 DUP1 CALLDATASIZE SUB PUSH1 0x20 DUP2 LT ISZERO PUSH2 0x612 JUMPI PUSH1 0x0 DUP1 REVERT JUMPDEST DUP2 ADD SWAP1 DUP1 DUP1 CALLDATALOAD PUSH20 0xFFFFFFFFFFFFFFFFFFFFFFFFFFFFFFFFFFFFFFFF AND SWAP1 PUSH1 0x20 ADD SWAP1 SWAP3 SWAP2 SWAP1 POP POP POP PUSH2 0x1466 JUMP JUMPDEST PUSH1 0x40 MLOAD DUP1 DUP3 DUP2 MSTORE PUSH1 0x20 ADD SWAP2 POP POP PUSH1 0x40 MLOAD DUP1 SWAP2 SUB SWAP1 RETURN JUMPDEST PUSH2 0x65C PUSH2 0x147E JUMP JUMPDEST PUSH1 0x40 MLOAD DUP1 DUP3 PUSH20 0xFFFFFFFFFFFFFFFFFFFFFFFFFFFFFFFFFFFFFFFF AND DUP2 MSTORE PUSH1 0x20 ADD SWAP2 POP POP PUSH1 0x40 MLOAD DUP1 SWAP2 SUB SWAP1 RETURN JUMPDEST PUSH2 0x690 PUSH2 0x148D JUMP JUMPDEST PUSH1 0x40 MLOAD DUP1 DUP3 PUSH20 0xFFFFFFFFFFFFFFFFFFFFFFFFFFFFFFFFFFFFFFFF AND DUP2 MSTORE PUSH1 0x20 ADD SWAP2 POP POP PUSH1 0x40 MLOAD DUP1 SWAP2 SUB SWAP1 RETURN JUMPDEST PUSH2 0x6C4 PUSH2 0x14B6 JUMP JUMPDEST PUSH1 0x40 MLOAD DUP1 DUP1 PUSH1 0x20 ADD DUP3 DUP2 SUB DUP3 MSTORE DUP4 DUP2 DUP2 MLOAD DUP2 MSTORE PUSH1 0x20 ADD SWAP2 POP DUP1 MLOAD SWAP1 PUSH1 0x20 ADD SWAP1 DUP1 DUP4 DUP4 PUSH1 0x0 JUMPDEST DUP4 DUP2 LT ISZERO PUSH2 0x704 JUMPI DUP1 DUP3 ADD MLOAD DUP2 DUP5 ADD MSTORE PUSH1 0x20 DUP2 ADD SWAP1 POP PUSH2 0x6E9 JUMP JUMPDEST POP POP POP POP SWAP1 POP SWAP1 DUP2 ADD SWAP1 PUSH1 0x1F AND DUP1 ISZERO PUSH2 0x731 JUMPI DUP1 DUP3 SUB DUP1 MLOAD PUSH1 0x1 DUP4 PUSH1 0x20 SUB PUSH2 0x100 EXP SUB NOT AND DUP2 MSTORE PUSH1 0x20 ADD SWAP2 POP JUMPDEST POP SWAP3 POP POP POP PUSH1 0x40 MLOAD DUP1 SWAP2 SUB SWAP1 RETURN JUMPDEST PUSH2 0x76B PUSH1 0x4 DUP1 CALLDATASIZE SUB PUSH1 0x20 DUP2 LT ISZERO PUSH2 0x755 JUMPI PUSH1 0x0 DUP1 REVERT JUMPDEST DUP2 ADD SWAP1 DUP1 DUP1 CALLDATALOAD SWAP1 PUSH1 0x20 ADD SWAP1 SWAP3 SWAP2 SWAP1 POP POP POP PUSH2 0x1558 JUMP JUMPDEST PUSH1 0x40 MLOAD DUP1 DUP3 ISZERO ISZERO DUP2 MSTORE PUSH1 0x20 ADD SWAP2 POP POP PUSH1 0x40 MLOAD DUP1 SWAP2 SUB SWAP1 RETURN JUMPDEST PUSH2 0x7CF PUSH1 0x4 DUP1 CALLDATASIZE SUB PUSH1 0x40 DUP2 LT ISZERO PUSH2 0x799 JUMPI PUSH1 0x0 DUP1 REVERT JUMPDEST DUP2 ADD SWAP1 DUP1 DUP1 CALLDATALOAD PUSH20 0xFFFFFFFFFFFFFFFFFFFFFFFFFFFFFFFFFFFFFFFF AND SWAP1 PUSH1 0x20 ADD SWAP1 SWAP3 SWAP2 SWAP1 DUP1 CALLDATALOAD SWAP1 PUSH1 0x20 ADD SWAP1 SWAP3 SWAP2 SWAP1 POP POP POP PUSH2 0x163C JUMP JUMPDEST PUSH1 0x40 MLOAD DUP1 DUP3 ISZERO ISZERO DUP2 MSTORE PUSH1 0x20 ADD SWAP2 POP POP PUSH1 0x40 MLOAD DUP1 SWAP2 SUB SWAP1 RETURN JUMPDEST PUSH2 0x833 PUSH1 0x4 DUP1 CALLDATASIZE SUB PUSH1 0x40 DUP2 LT ISZERO PUSH2 0x7FD JUMPI PUSH1 0x0 DUP1 REVERT JUMPDEST DUP2 ADD SWAP1 DUP1 DUP1 CALLDATALOAD PUSH20 0xFFFFFFFFFFFFFFFFFFFFFFFFFFFFFFFFFFFFFFFF AND SWAP1 PUSH1 0x20 ADD SWAP1 SWAP3 SWAP2 SWAP1 DUP1 CALLDATALOAD SWAP1 PUSH1 0x20 ADD SWAP1 SWAP3 SWAP2 SWAP1 POP POP POP PUSH2 0x1709 JUMP JUMPDEST PUSH1 0x40 MLOAD DUP1 DUP3 ISZERO ISZERO DUP2 MSTORE PUSH1 0x20 ADD SWAP2 POP POP PUSH1 0x40 MLOAD DUP1 SWAP2 SUB SWAP1 RETURN JUMPDEST PUSH2 0x88D PUSH1 0x4 DUP1 CALLDATASIZE SUB PUSH1 0x20 DUP2 LT ISZERO PUSH2 0x861 JUMPI PUSH1 0x0 DUP1 REVERT JUMPDEST DUP2 ADD SWAP1 DUP1 DUP1 CALLDATALOAD PUSH20 0xFFFFFFFFFFFFFFFFFFFFFFFFFFFFFFFFFFFFFFFF AND SWAP1 PUSH1 0x20 ADD SWAP1 SWAP3 SWAP2 SWAP1 POP POP POP PUSH2 0x1727 JUMP JUMPDEST PUSH1 0x40 MLOAD DUP1 DUP3 DUP2 MSTORE PUSH1 0x20 ADD SWAP2 POP POP PUSH1 0x40 MLOAD DUP1 SWAP2 SUB SWAP1 RETURN JUMPDEST PUSH2 0x91A PUSH1 0x4 DUP1 CALLDATASIZE SUB PUSH1 0xC0 DUP2 LT ISZERO PUSH2 0x8B9 JUMPI PUSH1 0x0 DUP1 REVERT JUMPDEST DUP2 ADD SWAP1 DUP1 DUP1 CALLDATALOAD PUSH20 0xFFFFFFFFFFFFFFFFFFFFFFFFFFFFFFFFFFFFFFFF AND SWAP1 PUSH1 0x20 ADD SWAP1 SWAP3 SWAP2 SWAP1 DUP1 CALLDATALOAD SWAP1 PUSH1 0x20 ADD SWAP1 SWAP3 SWAP2 SWAP1 DUP1 CALLDATALOAD SWAP1 PUSH1 0x20 ADD SWAP1 SWAP3 SWAP2 SWAP1 DUP1 CALLDATALOAD PUSH1 0xFF AND SWAP1 PUSH1 0x20 ADD SWAP1 SWAP3 SWAP2 SWAP1 DUP1 CALLDATALOAD SWAP1 PUSH1 0x20 ADD SWAP1 SWAP3 SWAP2 SWAP1 DUP1 CALLDATALOAD SWAP1 PUSH1 0x20 ADD SWAP1 SWAP3 SWAP2 SWAP1 POP POP POP PUSH2 0x17FD JUMP JUMPDEST STOP JUMPDEST PUSH2 0x97E PUSH1 0x4 DUP1 CALLDATASIZE SUB PUSH1 0x40 DUP2 LT ISZERO PUSH2 0x932 JUMPI PUSH1 0x0 DUP1 REVERT JUMPDEST DUP2 ADD SWAP1 DUP1 DUP1 CALLDATALOAD PUSH20 0xFFFFFFFFFFFFFFFFFFFFFFFFFFFFFFFFFFFFFFFF AND SWAP1 PUSH1 0x20 ADD SWAP1 SWAP3 SWAP2 SWAP1 DUP1 CALLDATALOAD PUSH20 0xFFFFFFFFFFFFFFFFFFFFFFFFFFFFFFFFFFFFFFFF AND SWAP1 PUSH1 0x20 ADD SWAP1 SWAP3 SWAP2 SWAP1 POP POP POP PUSH2 0x1B61 JUMP JUMPDEST PUSH1 0x40 MLOAD DUP1 DUP3 DUP2 MSTORE PUSH1 0x20 ADD SWAP2 POP POP PUSH1 0x40 MLOAD DUP1 SWAP2 SUB SWAP1 RETURN JUMPDEST PUSH2 0x99C PUSH2 0x1BE8 JUMP JUMPDEST PUSH1 0x40 MLOAD DUP1 DUP3 DUP2 MSTORE PUSH1 0x20 ADD SWAP2 POP POP PUSH1 0x40 MLOAD DUP1 SWAP2 SUB SWAP1 RETURN JUMPDEST PUSH2 0xA04 PUSH1 0x4 DUP1 CALLDATASIZE SUB PUSH1 0x40 DUP2 LT ISZERO PUSH2 0x9C8 JUMPI PUSH1 0x0 DUP1 REVERT JUMPDEST DUP2 ADD SWAP1 DUP1 DUP1 CALLDATALOAD PUSH20 0xFFFFFFFFFFFFFFFFFFFFFFFFFFFFFFFFFFFFFFFF AND SWAP1 PUSH1 0x20 ADD SWAP1 SWAP3 SWAP2 SWAP1 DUP1 CALLDATALOAD PUSH4 0xFFFFFFFF AND SWAP1 PUSH1 0x20 ADD SWAP1 SWAP3 SWAP2 SWAP1 POP POP POP PUSH2 0x1C0C JUMP JUMPDEST PUSH1 0x40 MLOAD DUP1 DUP4 PUSH4 0xFFFFFFFF AND DUP2 MSTORE PUSH1 0x20 ADD DUP3 DUP2 MSTORE PUSH1 0x20 ADD SWAP3 POP POP POP PUSH1 0x40 MLOAD DUP1 SWAP2 SUB SWAP1 RETURN JUMPDEST PUSH2 0xA69 PUSH1 0x4 DUP1 CALLDATASIZE SUB PUSH1 0x20 DUP2 LT ISZERO PUSH2 0xA3D JUMPI PUSH1 0x0 DUP1 REVERT JUMPDEST DUP2 ADD SWAP1 DUP1 DUP1 CALLDATALOAD PUSH20 0xFFFFFFFFFFFFFFFFFFFFFFFFFFFFFFFFFFFFFFFF AND SWAP1 PUSH1 0x20 ADD SWAP1 SWAP3 SWAP2 SWAP1 POP POP POP PUSH2 0x1C4D JUMP JUMPDEST STOP JUMPDEST PUSH1 0x60 PUSH1 0x4 DUP1 SLOAD PUSH1 0x1 DUP2 PUSH1 0x1 AND ISZERO PUSH2 0x100 MUL SUB AND PUSH1 0x2 SWAP1 DIV DUP1 PUSH1 0x1F ADD PUSH1 0x20 DUP1 SWAP2 DIV MUL PUSH1 0x20 ADD PUSH1 0x40 MLOAD SWAP1 DUP2 ADD PUSH1 0x40 MSTORE DUP1 SWAP3 SWAP2 SWAP1 DUP2 DUP2 MSTORE PUSH1 0x20 ADD DUP3 DUP1 SLOAD PUSH1 0x1 DUP2 PUSH1 0x1 AND ISZERO PUSH2 0x100 MUL SUB AND PUSH1 0x2 SWAP1 DIV DUP1 ISZERO PUSH2 0xB03 JUMPI DUP1 PUSH1 0x1F LT PUSH2 0xAD8 JUMPI PUSH2 0x100 DUP1 DUP4 SLOAD DIV MUL DUP4 MSTORE SWAP2 PUSH1 0x20 ADD SWAP2 PUSH2 0xB03 JUMP JUMPDEST DUP3 ADD SWAP2 SWAP1 PUSH1 0x0 MSTORE PUSH1 0x20 PUSH1 0x0 KECCAK256 SWAP1 JUMPDEST DUP2 SLOAD DUP2 MSTORE SWAP1 PUSH1 0x1 ADD SWAP1 PUSH1 0x20 ADD DUP1 DUP4 GT PUSH2 0xAE6 JUMPI DUP3 SWAP1 SUB PUSH1 0x1F AND DUP3 ADD SWAP2 JUMPDEST POP POP POP POP POP SWAP1 POP SWAP1 JUMP JUMPDEST PUSH1 0x0 PUSH2 0xB21 PUSH2 0xB1A PUSH2 0x1D21 JUMP JUMPDEST DUP5 DUP5 PUSH2 0x1D29 JUMP JUMPDEST PUSH1 0x1 SWAP1 POP SWAP3 SWAP2 POP POP JUMP JUMPDEST PUSH1 0x0 PUSH1 0x3 SLOAD SWAP1 POP SWAP1 JUMP JUMPDEST PUSH32 0x8CAD95687BA82C2CE50E74F7B754645E5117C3A5BEC8151C0726D5857980A866 DUP2 JUMP JUMPDEST PUSH1 0x0 PUSH2 0xB66 DUP5 DUP5 DUP5 PUSH2 0x1F20 JUMP JUMPDEST PUSH2 0xC27 DUP5 PUSH2 0xB72 PUSH2 0x1D21 JUMP JUMPDEST PUSH2 0xC22 DUP6 PUSH1 0x40 MLOAD DUP1 PUSH1 0x60 ADD PUSH1 0x40 MSTORE DUP1 PUSH1 0x28 DUP2 MSTORE PUSH1 0x20 ADD PUSH2 0x2EB0 PUSH1 0x28 SWAP2 CODECOPY PUSH1 0x2 PUSH1 0x0 DUP12 PUSH20 0xFFFFFFFFFFFFFFFFFFFFFFFFFFFFFFFFFFFFFFFF AND PUSH20 0xFFFFFFFFFFFFFFFFFFFFFFFFFFFFFFFFFFFFFFFF AND DUP2 MSTORE PUSH1 0x20 ADD SWAP1 DUP2 MSTORE PUSH1 0x20 ADD PUSH1 0x0 KECCAK256 PUSH1 0x0 PUSH2 0xBD8 PUSH2 0x1D21 JUMP JUMPDEST PUSH20 0xFFFFFFFFFFFFFFFFFFFFFFFFFFFFFFFFFFFFFFFF AND PUSH20 0xFFFFFFFFFFFFFFFFFFFFFFFFFFFFFFFFFFFFFFFF AND DUP2 MSTORE PUSH1 0x20 ADD SWAP1 DUP2 MSTORE PUSH1 0x20 ADD PUSH1 0x0 KECCAK256 SLOAD PUSH2 0x21DA SWAP1 SWAP3 SWAP2 SWAP1 PUSH4 0xFFFFFFFF AND JUMP JUMPDEST PUSH2 0x1D29 JUMP JUMPDEST PUSH1 0x1 SWAP1 POP SWAP4 SWAP3 POP POP POP JUMP JUMPDEST PUSH1 0x0 PUSH1 0x6 PUSH1 0x0 SWAP1 SLOAD SWAP1 PUSH2 0x100 EXP SWAP1 DIV PUSH1 0xFF AND SWAP1 POP SWAP1 JUMP JUMPDEST PUSH1 0x0 PUSH2 0xCF2 PUSH2 0xC56 PUSH2 0x1D21 JUMP JUMPDEST DUP5 PUSH2 0xCED DUP6 PUSH1 0x2 PUSH1 0x0 PUSH2 0xC67 PUSH2 0x1D21 JUMP JUMPDEST PUSH20 0xFFFFFFFFFFFFFFFFFFFFFFFFFFFFFFFFFFFFFFFF AND PUSH20 0xFFFFFFFFFFFFFFFFFFFFFFFFFFFFFFFFFFFFFFFF AND DUP2 MSTORE PUSH1 0x20 ADD SWAP1 DUP2 MSTORE PUSH1 0x20 ADD PUSH1 0x0 KECCAK256 PUSH1 0x0 DUP10 PUSH20 0xFFFFFFFFFFFFFFFFFFFFFFFFFFFFFFFFFFFFFFFF AND PUSH20 0xFFFFFFFFFFFFFFFFFFFFFFFFFFFFFFFFFFFFFFFF AND DUP2 MSTORE PUSH1 0x20 ADD SWAP1 DUP2 MSTORE PUSH1 0x20 ADD PUSH1 0x0 KECCAK256 SLOAD PUSH2 0x229A SWAP1 SWAP2 SWAP1 PUSH4 0xFFFFFFFF AND JUMP JUMPDEST PUSH2 0x1D29 JUMP JUMPDEST PUSH1 0x1 SWAP1 POP SWAP3 SWAP2 POP POP JUMP JUMPDEST PUSH2 0xD04 PUSH2 0x1D21 JUMP JUMPDEST PUSH20 0xFFFFFFFFFFFFFFFFFFFFFFFFFFFFFFFFFFFFFFFF AND PUSH1 0x0 DUP1 SLOAD SWAP1 PUSH2 0x100 EXP SWAP1 DIV PUSH20 0xFFFFFFFFFFFFFFFFFFFFFFFFFFFFFFFFFFFFFFFF AND PUSH20 0xFFFFFFFFFFFFFFFFFFFFFFFFFFFFFFFFFFFFFFFF AND EQ PUSH2 0xDC4 JUMPI PUSH1 0x40 MLOAD PUSH32 0x8C379A000000000000000000000000000000000000000000000000000000000 DUP2 MSTORE PUSH1 0x4 ADD DUP1 DUP1 PUSH1 0x20 ADD DUP3 DUP2 SUB DUP3 MSTORE PUSH1 0x20 DUP2 MSTORE PUSH1 0x20 ADD DUP1 PUSH32 0x4F776E61626C653A2063616C6C6572206973206E6F7420746865206F776E6572 DUP2 MSTORE POP PUSH1 0x20 ADD SWAP2 POP POP PUSH1 0x40 MLOAD DUP1 SWAP2 SUB SWAP1 REVERT JUMPDEST PUSH2 0xDCE DUP3 DUP3 PUSH2 0x2322 JUMP JUMPDEST PUSH2 0xE39 PUSH1 0x0 PUSH1 0x7 PUSH1 0x0 DUP6 PUSH20 0xFFFFFFFFFFFFFFFFFFFFFFFFFFFFFFFFFFFFFFFF AND PUSH20 0xFFFFFFFFFFFFFFFFFFFFFFFFFFFFFFFFFFFFFFFF AND DUP2 MSTORE PUSH1 0x20 ADD SWAP1 DUP2 MSTORE PUSH1 0x20 ADD PUSH1 0x0 KECCAK256 PUSH1 0x0 SWAP1 SLOAD SWAP1 PUSH2 0x100 EXP SWAP1 DIV PUSH20 0xFFFFFFFFFFFFFFFFFFFFFFFFFFFFFFFFFFFFFFFF AND DUP4 PUSH2 0x24DF JUMP JUMPDEST POP POP JUMP JUMPDEST PUSH1 0x0 PUSH1 0x7 PUSH1 0x0 DUP4 PUSH20 0xFFFFFFFFFFFFFFFFFFFFFFFFFFFFFFFFFFFFFFFF AND PUSH20 0xFFFFFFFFFFFFFFFFFFFFFFFFFFFFFFFFFFFFFFFF AND DUP2 MSTORE PUSH1 0x20 ADD SWAP1 DUP2 MSTORE PUSH1 0x20 ADD PUSH1 0x0 KECCAK256 PUSH1 0x0 SWAP1 SLOAD SWAP1 PUSH2 0x100 EXP SWAP1 DIV PUSH20 0xFFFFFFFFFFFFFFFFFFFFFFFFFFFFFFFFFFFFFFFF AND SWAP1 POP SWAP2 SWAP1 POP JUMP JUMPDEST PUSH2 0xEB0 CALLER DUP3 PUSH2 0x277C JUMP JUMPDEST POP JUMP JUMPDEST PUSH1 0x9 PUSH1 0x20 MSTORE DUP1 PUSH1 0x0 MSTORE PUSH1 0x40 PUSH1 0x0 KECCAK256 PUSH1 0x0 SWAP2 POP SLOAD SWAP1 PUSH2 0x100 EXP SWAP1 DIV PUSH4 0xFFFFFFFF AND DUP2 JUMP JUMPDEST PUSH1 0x0 PUSH1 0x1 PUSH1 0x0 DUP4 PUSH20 0xFFFFFFFFFFFFFFFFFFFFFFFFFFFFFFFFFFFFFFFF AND PUSH20 0xFFFFFFFFFFFFFFFFFFFFFFFFFFFFFFFFFFFFFFFF AND DUP2 MSTORE PUSH1 0x20 ADD SWAP1 DUP2 MSTORE PUSH1 0x20 ADD PUSH1 0x0 KECCAK256 SLOAD SWAP1 POP SWAP2 SWAP1 POP JUMP JUMPDEST PUSH2 0xF27 PUSH2 0x1D21 JUMP JUMPDEST PUSH20 0xFFFFFFFFFFFFFFFFFFFFFFFFFFFFFFFFFFFFFFFF AND PUSH1 0x0 DUP1 SLOAD SWAP1 PUSH2 0x100 EXP SWAP1 DIV PUSH20 0xFFFFFFFFFFFFFFFFFFFFFFFFFFFFFFFFFFFFFFFF AND PUSH20 0xFFFFFFFFFFFFFFFFFFFFFFFFFFFFFFFFFFFFFFFF AND EQ PUSH2 0xFE7 JUMPI PUSH1 0x40 MLOAD PUSH32 0x8C379A000000000000000000000000000000000000000000000000000000000 DUP2 MSTORE PUSH1 0x4 ADD DUP1 DUP1 PUSH1 0x20 ADD DUP3 DUP2 SUB DUP3 MSTORE PUSH1 0x20 DUP2 MSTORE PUSH1 0x20 ADD DUP1 PUSH32 0x4F776E61626C653A2063616C6C6572206973206E6F7420746865206F776E6572 DUP2 MSTORE POP PUSH1 0x20 ADD SWAP2 POP POP PUSH1 0x40 MLOAD DUP1 SWAP2 SUB SWAP1 REVERT JUMPDEST PUSH1 0x0 PUSH20 0xFFFFFFFFFFFFFFFFFFFFFFFFFFFFFFFFFFFFFFFF AND PUSH1 0x0 DUP1 SLOAD SWAP1 PUSH2 0x100 EXP SWAP1 DIV PUSH20 0xFFFFFFFFFFFFFFFFFFFFFFFFFFFFFFFFFFFFFFFF AND PUSH20 0xFFFFFFFFFFFFFFFFFFFFFFFFFFFFFFFFFFFFFFFF AND PUSH32 0x8BE0079C531659141344CD1FD0A4F28419497F9722A3DAAFE3B4186F6B6457E0 PUSH1 0x40 MLOAD PUSH1 0x40 MLOAD DUP1 SWAP2 SUB SWAP1 LOG3 PUSH1 0x0 DUP1 PUSH1 0x0 PUSH2 0x100 EXP DUP2 SLOAD DUP2 PUSH20 0xFFFFFFFFFFFFFFFFFFFFFFFFFFFFFFFFFFFFFFFF MUL NOT AND SWAP1 DUP4 PUSH20 0xFFFFFFFFFFFFFFFFFFFFFFFFFFFFFFFFFFFFFFFF AND MUL OR SWAP1 SSTORE POP JUMP JUMPDEST PUSH1 0x0 NUMBER DUP3 LT PUSH2 0x10FF JUMPI PUSH1 0x40 MLOAD PUSH32 0x8C379A000000000000000000000000000000000000000000000000000000000 DUP2 MSTORE PUSH1 0x4 ADD DUP1 DUP1 PUSH1 0x20 ADD DUP3 DUP2 SUB DUP3 MSTORE PUSH1 0x28 DUP2 MSTORE PUSH1 0x20 ADD DUP1 PUSH2 0x2F0D PUSH1 0x28 SWAP2 CODECOPY PUSH1 0x40 ADD SWAP2 POP POP PUSH1 0x40 MLOAD DUP1 SWAP2 SUB SWAP1 REVERT JUMPDEST PUSH1 0x0 PUSH1 0x9 PUSH1 0x0 DUP6 PUSH20 0xFFFFFFFFFFFFFFFFFFFFFFFFFFFFFFFFFFFFFFFF AND PUSH20 0xFFFFFFFFFFFFFFFFFFFFFFFFFFFFFFFFFFFFFFFF AND DUP2 MSTORE PUSH1 0x20 ADD SWAP1 DUP2 MSTORE PUSH1 0x20 ADD PUSH1 0x0 KECCAK256 PUSH1 0x0 SWAP1 SLOAD SWAP1 PUSH2 0x100 EXP SWAP1 DIV PUSH4 0xFFFFFFFF AND SWAP1 POP PUSH1 0x0 DUP2 PUSH4 0xFFFFFFFF AND EQ ISZERO PUSH2 0x116C JUMPI PUSH1 0x0 SWAP2 POP POP PUSH2 0x1460 JUMP JUMPDEST DUP3 PUSH1 0x8 PUSH1 0x0 DUP7 PUSH20 0xFFFFFFFFFFFFFFFFFFFFFFFFFFFFFFFFFFFFFFFF AND PUSH20 0xFFFFFFFFFFFFFFFFFFFFFFFFFFFFFFFFFFFFFFFF AND DUP2 MSTORE PUSH1 0x20 ADD SWAP1 DUP2 MSTORE PUSH1 0x20 ADD PUSH1 0x0 KECCAK256 PUSH1 0x0 PUSH1 0x1 DUP5 SUB PUSH4 0xFFFFFFFF AND PUSH4 0xFFFFFFFF AND DUP2 MSTORE PUSH1 0x20 ADD SWAP1 DUP2 MSTORE PUSH1 0x20 ADD PUSH1 0x0 KECCAK256 PUSH1 0x0 ADD PUSH1 0x0 SWAP1 SLOAD SWAP1 PUSH2 0x100 EXP SWAP1 DIV PUSH4 0xFFFFFFFF AND PUSH4 0xFFFFFFFF AND GT PUSH2 0x1256 JUMPI PUSH1 0x8 PUSH1 0x0 DUP6 PUSH20 0xFFFFFFFFFFFFFFFFFFFFFFFFFFFFFFFFFFFFFFFF AND PUSH20 0xFFFFFFFFFFFFFFFFFFFFFFFFFFFFFFFFFFFFFFFF AND DUP2 MSTORE PUSH1 0x20 ADD SWAP1 DUP2 MSTORE PUSH1 0x20 ADD PUSH1 0x0 KECCAK256 PUSH1 0x0 PUSH1 0x1 DUP4 SUB PUSH4 0xFFFFFFFF AND PUSH4 0xFFFFFFFF AND DUP2 MSTORE PUSH1 0x20 ADD SWAP1 DUP2 MSTORE PUSH1 0x20 ADD PUSH1 0x0 KECCAK256 PUSH1 0x1 ADD SLOAD SWAP2 POP POP PUSH2 0x1460 JUMP JUMPDEST DUP3 PUSH1 0x8 PUSH1 0x0 DUP7 PUSH20 0xFFFFFFFFFFFFFFFFFFFFFFFFFFFFFFFFFFFFFFFF AND PUSH20 0xFFFFFFFFFFFFFFFFFFFFFFFFFFFFFFFFFFFFFFFF AND DUP2 MSTORE PUSH1 0x20 ADD SWAP1 DUP2 MSTORE PUSH1 0x20 ADD PUSH1 0x0 KECCAK256 PUSH1 0x0 DUP1 PUSH4 0xFFFFFFFF AND DUP2 MSTORE PUSH1 0x20 ADD SWAP1 DUP2 MSTORE PUSH1 0x20 ADD PUSH1 0x0 KECCAK256 PUSH1 0x0 ADD PUSH1 0x0 SWAP1 SLOAD SWAP1 PUSH2 0x100 EXP SWAP1 DIV PUSH4 0xFFFFFFFF AND PUSH4 0xFFFFFFFF AND GT ISZERO PUSH2 0x12D7 JUMPI PUSH1 0x0 SWAP2 POP POP PUSH2 0x1460 JUMP JUMPDEST PUSH1 0x0 DUP1 PUSH1 0x1 DUP4 SUB SWAP1 POP JUMPDEST DUP2 PUSH4 0xFFFFFFFF AND DUP2 PUSH4 0xFFFFFFFF AND GT ISZERO PUSH2 0x13FA JUMPI PUSH1 0x0 PUSH1 0x2 DUP4 DUP4 SUB PUSH4 0xFFFFFFFF AND DUP2 PUSH2 0x1309 JUMPI INVALID JUMPDEST DIV DUP3 SUB SWAP1 POP PUSH2 0x1316 PUSH2 0x2DD6 JUMP JUMPDEST PUSH1 0x8 PUSH1 0x0 DUP10 PUSH20 0xFFFFFFFFFFFFFFFFFFFFFFFFFFFFFFFFFFFFFFFF AND PUSH20 0xFFFFFFFFFFFFFFFFFFFFFFFFFFFFFFFFFFFFFFFF AND DUP2 MSTORE PUSH1 0x20 ADD SWAP1 DUP2 MSTORE PUSH1 0x20 ADD PUSH1 0x0 KECCAK256 PUSH1 0x0 DUP4 PUSH4 0xFFFFFFFF AND PUSH4 0xFFFFFFFF AND DUP2 MSTORE PUSH1 0x20 ADD SWAP1 DUP2 MSTORE PUSH1 0x20 ADD PUSH1 0x0 KECCAK256 PUSH1 0x40 MLOAD DUP1 PUSH1 0x40 ADD PUSH1 0x40 MSTORE SWAP1 DUP2 PUSH1 0x0 DUP3 ADD PUSH1 0x0 SWAP1 SLOAD SWAP1 PUSH2 0x100 EXP SWAP1 DIV PUSH4 0xFFFFFFFF AND PUSH4 0xFFFFFFFF AND PUSH4 0xFFFFFFFF AND DUP2 MSTORE PUSH1 0x20 ADD PUSH1 0x1 DUP3 ADD SLOAD DUP2 MSTORE POP POP SWAP1 POP DUP7 DUP2 PUSH1 0x0 ADD MLOAD PUSH4 0xFFFFFFFF AND EQ ISZERO PUSH2 0x13D2 JUMPI DUP1 PUSH1 0x20 ADD MLOAD SWAP6 POP POP POP POP POP POP PUSH2 0x1460 JUMP JUMPDEST DUP7 DUP2 PUSH1 0x0 ADD MLOAD PUSH4 0xFFFFFFFF AND LT ISZERO PUSH2 0x13EC JUMPI DUP2 SWAP4 POP PUSH2 0x13F3 JUMP JUMPDEST PUSH1 0x1 DUP3 SUB SWAP3 POP JUMPDEST POP POP PUSH2 0x12E1 JUMP JUMPDEST PUSH1 0x8 PUSH1 0x0 DUP8 PUSH20 0xFFFFFFFFFFFFFFFFFFFFFFFFFFFFFFFFFFFFFFFF AND PUSH20 0xFFFFFFFFFFFFFFFFFFFFFFFFFFFFFFFFFFFFFFFF AND DUP2 MSTORE PUSH1 0x20 ADD SWAP1 DUP2 MSTORE PUSH1 0x20 ADD PUSH1 0x0 KECCAK256 PUSH1 0x0 DUP4 PUSH4 0xFFFFFFFF AND PUSH4 0xFFFFFFFF AND DUP2 MSTORE PUSH1 0x20 ADD SWAP1 DUP2 MSTORE PUSH1 0x20 ADD PUSH1 0x0 KECCAK256 PUSH1 0x1 ADD SLOAD SWAP4 POP POP POP POP JUMPDEST SWAP3 SWAP2 POP POP JUMP JUMPDEST PUSH1 0xA PUSH1 0x20 MSTORE DUP1 PUSH1 0x0 MSTORE PUSH1 0x40 PUSH1 0x0 KECCAK256 PUSH1 0x0 SWAP2 POP SWAP1 POP SLOAD DUP2 JUMP JUMPDEST PUSH1 0x0 PUSH2 0x1488 PUSH2 0x148D JUMP JUMPDEST SWAP1 POP SWAP1 JUMP JUMPDEST PUSH1 0x0 DUP1 PUSH1 0x0 SWAP1 SLOAD SWAP1 PUSH2 0x100 EXP SWAP1 DIV PUSH20 0xFFFFFFFFFFFFFFFFFFFFFFFFFFFFFFFFFFFFFFFF AND SWAP1 POP SWAP1 JUMP JUMPDEST PUSH1 0x60 PUSH1 0x5 DUP1 SLOAD PUSH1 0x1 DUP2 PUSH1 0x1 AND ISZERO PUSH2 0x100 MUL SUB AND PUSH1 0x2 SWAP1 DIV DUP1 PUSH1 0x1F ADD PUSH1 0x20 DUP1 SWAP2 DIV MUL PUSH1 0x20 ADD PUSH1 0x40 MLOAD SWAP1 DUP2 ADD PUSH1 0x40 MSTORE DUP1 SWAP3 SWAP2 SWAP1 DUP2 DUP2 MSTORE PUSH1 0x20 ADD DUP3 DUP1 SLOAD PUSH1 0x1 DUP2 PUSH1 0x1 AND ISZERO PUSH2 0x100 MUL SUB AND PUSH1 0x2 SWAP1 DIV DUP1 ISZERO PUSH2 0x154E JUMPI DUP1 PUSH1 0x1F LT PUSH2 0x1523 JUMPI PUSH2 0x100 DUP1 DUP4 SLOAD DIV MUL DUP4 MSTORE SWAP2 PUSH1 0x20 ADD SWAP2 PUSH2 0x154E JUMP JUMPDEST DUP3 ADD SWAP2 SWAP1 PUSH1 0x0 MSTORE PUSH1 0x20 PUSH1 0x0 KECCAK256 SWAP1 JUMPDEST DUP2 SLOAD DUP2 MSTORE SWAP1 PUSH1 0x1 ADD SWAP1 PUSH1 0x20 ADD DUP1 DUP4 GT PUSH2 0x1531 JUMPI DUP3 SWAP1 SUB PUSH1 0x1F AND DUP3 ADD SWAP2 JUMPDEST POP POP POP POP POP SWAP1 POP SWAP1 JUMP JUMPDEST PUSH1 0x0 PUSH2 0x1562 PUSH2 0x1D21 JUMP JUMPDEST PUSH20 0xFFFFFFFFFFFFFFFFFFFFFFFFFFFFFFFFFFFFFFFF AND PUSH1 0x0 DUP1 SLOAD SWAP1 PUSH2 0x100 EXP SWAP1 DIV PUSH20 0xFFFFFFFFFFFFFFFFFFFFFFFFFFFFFFFFFFFFFFFF AND PUSH20 0xFFFFFFFFFFFFFFFFFFFFFFFFFFFFFFFFFFFFFFFF AND EQ PUSH2 0x1622 JUMPI PUSH1 0x40 MLOAD PUSH32 0x8C379A000000000000000000000000000000000000000000000000000000000 DUP2 MSTORE PUSH1 0x4 ADD DUP1 DUP1 PUSH1 0x20 ADD DUP3 DUP2 SUB DUP3 MSTORE PUSH1 0x20 DUP2 MSTORE PUSH1 0x20 ADD DUP1 PUSH32 0x4F776E61626C653A2063616C6C6572206973206E6F7420746865206F776E6572 DUP2 MSTORE POP PUSH1 0x20 ADD SWAP2 POP POP PUSH1 0x40 MLOAD DUP1 SWAP2 SUB SWAP1 REVERT JUMPDEST PUSH2 0x1633 PUSH2 0x162D PUSH2 0x1D21 JUMP JUMPDEST DUP4 PUSH2 0x2322 JUMP JUMPDEST PUSH1 0x1 SWAP1 POP SWAP2 SWAP1 POP JUMP JUMPDEST PUSH1 0x0 PUSH2 0x16FF PUSH2 0x1649 PUSH2 0x1D21 JUMP JUMPDEST DUP5 PUSH2 0x16FA DUP6 PUSH1 0x40 MLOAD DUP1 PUSH1 0x60 ADD PUSH1 0x40 MSTORE DUP1 PUSH1 0x25 DUP2 MSTORE PUSH1 0x20 ADD PUSH2 0x2FA5 PUSH1 0x25 SWAP2 CODECOPY PUSH1 0x2 PUSH1 0x0 PUSH2 0x1673 PUSH2 0x1D21 JUMP JUMPDEST PUSH20 0xFFFFFFFFFFFFFFFFFFFFFFFFFFFFFFFFFFFFFFFF AND PUSH20 0xFFFFFFFFFFFFFFFFFFFFFFFFFFFFFFFFFFFFFFFF AND DUP2 MSTORE PUSH1 0x20 ADD SWAP1 DUP2 MSTORE PUSH1 0x20 ADD PUSH1 0x0 KECCAK256 PUSH1 0x0 DUP11 PUSH20 0xFFFFFFFFFFFFFFFFFFFFFFFFFFFFFFFFFFFFFFFF AND PUSH20 0xFFFFFFFFFFFFFFFFFFFFFFFFFFFFFFFFFFFFFFFF AND DUP2 MSTORE PUSH1 0x20 ADD SWAP1 DUP2 MSTORE PUSH1 0x20 ADD PUSH1 0x0 KECCAK256 SLOAD PUSH2 0x21DA SWAP1 SWAP3 SWAP2 SWAP1 PUSH4 0xFFFFFFFF AND JUMP JUMPDEST PUSH2 0x1D29 JUMP JUMPDEST PUSH1 0x1 SWAP1 POP SWAP3 SWAP2 POP POP JUMP JUMPDEST PUSH1 0x0 PUSH2 0x171D PUSH2 0x1716 PUSH2 0x1D21 JUMP JUMPDEST DUP5 DUP5 PUSH2 0x1F20 JUMP JUMPDEST PUSH1 0x1 SWAP1 POP SWAP3 SWAP2 POP POP JUMP JUMPDEST PUSH1 0x0 DUP1 PUSH1 0x9 PUSH1 0x0 DUP5 PUSH20 0xFFFFFFFFFFFFFFFFFFFFFFFFFFFFFFFFFFFFFFFF AND PUSH20 0xFFFFFFFFFFFFFFFFFFFFFFFFFFFFFFFFFFFFFFFF AND DUP2 MSTORE PUSH1 0x20 ADD SWAP1 DUP2 MSTORE PUSH1 0x20 ADD PUSH1 0x0 KECCAK256 PUSH1 0x0 SWAP1 SLOAD SWAP1 PUSH2 0x100 EXP SWAP1 DIV PUSH4 0xFFFFFFFF AND SWAP1 POP PUSH1 0x0 DUP2 PUSH4 0xFFFFFFFF AND GT PUSH2 0x1791 JUMPI PUSH1 0x0 PUSH2 0x17F5 JUMP JUMPDEST PUSH1 0x8 PUSH1 0x0 DUP5 PUSH20 0xFFFFFFFFFFFFFFFFFFFFFFFFFFFFFFFFFFFFFFFF AND PUSH20 0xFFFFFFFFFFFFFFFFFFFFFFFFFFFFFFFFFFFFFFFF AND DUP2 MSTORE PUSH1 0x20 ADD SWAP1 DUP2 MSTORE PUSH1 0x20 ADD PUSH1 0x0 KECCAK256 PUSH1 0x0 PUSH1 0x1 DUP4 SUB PUSH4 0xFFFFFFFF AND PUSH4 0xFFFFFFFF AND DUP2 MSTORE PUSH1 0x20 ADD SWAP1 DUP2 MSTORE PUSH1 0x20 ADD PUSH1 0x0 KECCAK256 PUSH1 0x1 ADD SLOAD JUMPDEST SWAP2 POP POP SWAP2 SWAP1 POP JUMP JUMPDEST PUSH1 0x0 PUSH32 0x8CAD95687BA82C2CE50E74F7B754645E5117C3A5BEC8151C0726D5857980A866 PUSH2 0x1828 PUSH2 0xA6B JUMP JUMPDEST DUP1 MLOAD SWAP1 PUSH1 0x20 ADD KECCAK256 PUSH2 0x1837 PUSH2 0x28ED JUMP JUMPDEST ADDRESS PUSH1 0x40 MLOAD PUSH1 0x20 ADD DUP1 DUP6 DUP2 MSTORE PUSH1 0x20 ADD DUP5 DUP2 MSTORE PUSH1 0x20 ADD DUP4 DUP2 MSTORE PUSH1 0x20 ADD DUP3 PUSH20 0xFFFFFFFFFFFFFFFFFFFFFFFFFFFFFFFFFFFFFFFF AND DUP2 MSTORE PUSH1 0x20 ADD SWAP5 POP POP POP POP POP PUSH1 0x40 MLOAD PUSH1 0x20 DUP2 DUP4 SUB SUB DUP2 MSTORE SWAP1 PUSH1 0x40 MSTORE DUP1 MLOAD SWAP1 PUSH1 0x20 ADD KECCAK256 SWAP1 POP PUSH1 0x0 PUSH32 0xE48329057BFD03D55E49B547132E39CFFD9C1820AD7B9D4C5307691425D15ADF DUP9 DUP9 DUP9 PUSH1 0x40 MLOAD PUSH1 0x20 ADD DUP1 DUP6 DUP2 MSTORE PUSH1 0x20 ADD DUP5 PUSH20 0xFFFFFFFFFFFFFFFFFFFFFFFFFFFFFFFFFFFFFFFF AND DUP2 MSTORE PUSH1 0x20 ADD DUP4 DUP2 MSTORE PUSH1 0x20 ADD DUP3 DUP2 MSTORE PUSH1 0x20 ADD SWAP5 POP POP POP POP POP PUSH1 0x40 MLOAD PUSH1 0x20 DUP2 DUP4 SUB SUB DUP2 MSTORE SWAP1 PUSH1 0x40 MSTORE DUP1 MLOAD SWAP1 PUSH1 0x20 ADD KECCAK256 SWAP1 POP PUSH1 0x0 DUP3 DUP3 PUSH1 0x40 MLOAD PUSH1 0x20 ADD DUP1 DUP1 PUSH32 0x1901000000000000000000000000000000000000000000000000000000000000 DUP2 MSTORE POP PUSH1 0x2 ADD DUP4 DUP2 MSTORE PUSH1 0x20 ADD DUP3 DUP2 MSTORE PUSH1 0x20 ADD SWAP3 POP POP POP PUSH1 0x40 MLOAD PUSH1 0x20 DUP2 DUP4 SUB SUB DUP2 MSTORE SWAP1 PUSH1 0x40 MSTORE DUP1 MLOAD SWAP1 PUSH1 0x20 ADD KECCAK256 SWAP1 POP PUSH1 0x0 PUSH1 0x1 DUP3 DUP9 DUP9 DUP9 PUSH1 0x40 MLOAD PUSH1 0x0 DUP2 MSTORE PUSH1 0x20 ADD PUSH1 0x40 MSTORE PUSH1 0x40 MLOAD DUP1 DUP6 DUP2 MSTORE PUSH1 0x20 ADD DUP5 PUSH1 0xFF AND DUP2 MSTORE PUSH1 0x20 ADD DUP4 DUP2 MSTORE PUSH1 0x20 ADD DUP3 DUP2 MSTORE PUSH1 0x20 ADD SWAP5 POP POP POP POP POP PUSH1 0x20 PUSH1 0x40 MLOAD PUSH1 0x20 DUP2 SUB SWAP1 DUP1 DUP5 SUB SWAP1 DUP6 GAS STATICCALL ISZERO DUP1 ISZERO PUSH2 0x19BB JUMPI RETURNDATASIZE PUSH1 0x0 DUP1 RETURNDATACOPY RETURNDATASIZE PUSH1 0x0 REVERT JUMPDEST POP POP POP PUSH1 0x20 PUSH1 0x40 MLOAD SUB MLOAD SWAP1 POP PUSH1 0x0 PUSH20 0xFFFFFFFFFFFFFFFFFFFFFFFFFFFFFFFFFFFFFFFF AND DUP2 PUSH20 0xFFFFFFFFFFFFFFFFFFFFFFFFFFFFFFFFFFFFFFFF AND EQ ISZERO PUSH2 0x1A4D JUMPI PUSH1 0x40 MLOAD PUSH32 0x8C379A000000000000000000000000000000000000000000000000000000000 DUP2 MSTORE PUSH1 0x4 ADD DUP1 DUP1 PUSH1 0x20 ADD DUP3 DUP2 SUB DUP3 MSTORE PUSH1 0x27 DUP2 MSTORE PUSH1 0x20 ADD DUP1 PUSH2 0x2F5B PUSH1 0x27 SWAP2 CODECOPY PUSH1 0x40 ADD SWAP2 POP POP PUSH1 0x40 MLOAD DUP1 SWAP2 SUB SWAP1 REVERT JUMPDEST PUSH1 0xA PUSH1 0x0 DUP3 PUSH20 0xFFFFFFFFFFFFFFFFFFFFFFFFFFFFFFFFFFFFFFFF AND PUSH20 0xFFFFFFFFFFFFFFFFFFFFFFFFFFFFFFFFFFFFFFFF AND DUP2 MSTORE PUSH1 0x20 ADD SWAP1 DUP2 MSTORE PUSH1 0x20 ADD PUSH1 0x0 KECCAK256 PUSH1 0x0 DUP2 SLOAD DUP1 SWAP3 SWAP2 SWAP1 PUSH1 0x1 ADD SWAP2 SWAP1 POP SSTORE DUP10 EQ PUSH2 0x1AF2 JUMPI PUSH1 0x40 MLOAD PUSH32 0x8C379A000000000000000000000000000000000000000000000000000000000 DUP2 MSTORE PUSH1 0x4 ADD DUP1 DUP1 PUSH1 0x20 ADD DUP3 DUP2 SUB DUP3 MSTORE PUSH1 0x23 DUP2 MSTORE PUSH1 0x20 ADD DUP1 PUSH2 0x2E66 PUSH1 0x23 SWAP2 CODECOPY PUSH1 0x40 ADD SWAP2 POP POP PUSH1 0x40 MLOAD DUP1 SWAP2 SUB SWAP1 REVERT JUMPDEST DUP8 TIMESTAMP GT ISZERO PUSH2 0x1B4B JUMPI PUSH1 0x40 MLOAD PUSH32 0x8C379A000000000000000000000000000000000000000000000000000000000 DUP2 MSTORE PUSH1 0x4 ADD DUP1 DUP1 PUSH1 0x20 ADD DUP3 DUP2 SUB DUP3 MSTORE PUSH1 0x27 DUP2 MSTORE PUSH1 0x20 ADD DUP1 PUSH2 0x2E89 PUSH1 0x27 SWAP2 CODECOPY PUSH1 0x40 ADD SWAP2 POP POP PUSH1 0x40 MLOAD DUP1 SWAP2 SUB SWAP1 REVERT JUMPDEST PUSH2 0x1B55 DUP2 DUP12 PUSH2 0x277C JUMP JUMPDEST POP POP POP POP POP POP POP POP POP POP JUMP JUMPDEST PUSH1 0x0 PUSH1 0x2 PUSH1 0x0 DUP5 PUSH20 0xFFFFFFFFFFFFFFFFFFFFFFFFFFFFFFFFFFFFFFFF AND PUSH20 0xFFFFFFFFFFFFFFFFFFFFFFFFFFFFFFFFFFFFFFFF AND DUP2 MSTORE PUSH1 0x20 ADD SWAP1 DUP2 MSTORE PUSH1 0x20 ADD PUSH1 0x0 KECCAK256 PUSH1 0x0 DUP4 PUSH20 0xFFFFFFFFFFFFFFFFFFFFFFFFFFFFFFFFFFFFFFFF AND PUSH20 0xFFFFFFFFFFFFFFFFFFFFFFFFFFFFFFFFFFFFFFFF AND DUP2 MSTORE PUSH1 0x20 ADD SWAP1 DUP2 MSTORE PUSH1 0x20 ADD PUSH1 0x0 KECCAK256 SLOAD SWAP1 POP SWAP3 SWAP2 POP POP JUMP JUMPDEST PUSH32 0xE48329057BFD03D55E49B547132E39CFFD9C1820AD7B9D4C5307691425D15ADF DUP2 JUMP JUMPDEST PUSH1 0x8 PUSH1 0x20 MSTORE DUP2 PUSH1 0x0 MSTORE PUSH1 0x40 PUSH1 0x0 KECCAK256 PUSH1 0x20 MSTORE DUP1 PUSH1 0x0 MSTORE PUSH1 0x40 PUSH1 0x0 KECCAK256 PUSH1 0x0 SWAP2 POP SWAP2 POP POP DUP1 PUSH1 0x0 ADD PUSH1 0x0 SWAP1 SLOAD SWAP1 PUSH2 0x100 EXP SWAP1 DIV PUSH4 0xFFFFFFFF AND SWAP1 DUP1 PUSH1 0x1 ADD SLOAD SWAP1 POP DUP3 JUMP JUMPDEST PUSH2 0x1C55 PUSH2 0x1D21 JUMP JUMPDEST PUSH20 0xFFFFFFFFFFFFFFFFFFFFFFFFFFFFFFFFFFFFFFFF AND PUSH1 0x0 DUP1 SLOAD SWAP1 PUSH2 0x100 EXP SWAP1 DIV PUSH20 0xFFFFFFFFFFFFFFFFFFFFFFFFFFFFFFFFFFFFFFFF AND PUSH20 0xFFFFFFFFFFFFFFFFFFFFFFFFFFFFFFFFFFFFFFFF AND EQ PUSH2 0x1D15 JUMPI PUSH1 0x40 MLOAD PUSH32 0x8C379A000000000000000000000000000000000000000000000000000000000 DUP2 MSTORE PUSH1 0x4 ADD DUP1 DUP1 PUSH1 0x20 ADD DUP3 DUP2 SUB DUP3 MSTORE PUSH1 0x20 DUP2 MSTORE PUSH1 0x20 ADD DUP1 PUSH32 0x4F776E61626C653A2063616C6C6572206973206E6F7420746865206F776E6572 DUP2 MSTORE POP PUSH1 0x20 ADD SWAP2 POP POP PUSH1 0x40 MLOAD DUP1 SWAP2 SUB SWAP1 REVERT JUMPDEST PUSH2 0x1D1E DUP2 PUSH2 0x28FA JUMP JUMPDEST POP JUMP JUMPDEST PUSH1 0x0 CALLER SWAP1 POP SWAP1 JUMP JUMPDEST PUSH1 0x0 PUSH20 0xFFFFFFFFFFFFFFFFFFFFFFFFFFFFFFFFFFFFFFFF AND DUP4 PUSH20 0xFFFFFFFFFFFFFFFFFFFFFFFFFFFFFFFFFFFFFFFF AND EQ ISZERO PUSH2 0x1DAF JUMPI PUSH1 0x40 MLOAD PUSH32 0x8C379A000000000000000000000000000000000000000000000000000000000 DUP2 MSTORE PUSH1 0x4 ADD DUP1 DUP1 PUSH1 0x20 ADD DUP3 DUP2 SUB DUP3 MSTORE PUSH1 0x24 DUP2 MSTORE PUSH1 0x20 ADD DUP1 PUSH2 0x2E1C PUSH1 0x24 SWAP2 CODECOPY PUSH1 0x40 ADD SWAP2 POP POP PUSH1 0x40 MLOAD DUP1 SWAP2 SUB SWAP1 REVERT JUMPDEST PUSH1 0x0 PUSH20 0xFFFFFFFFFFFFFFFFFFFFFFFFFFFFFFFFFFFFFFFF AND DUP3 PUSH20 0xFFFFFFFFFFFFFFFFFFFFFFFFFFFFFFFFFFFFFFFF AND EQ ISZERO PUSH2 0x1E35 JUMPI PUSH1 0x40 MLOAD PUSH32 0x8C379A000000000000000000000000000000000000000000000000000000000 DUP2 MSTORE PUSH1 0x4 ADD DUP1 DUP1 PUSH1 0x20 ADD DUP3 DUP2 SUB DUP3 MSTORE PUSH1 0x22 DUP2 MSTORE PUSH1 0x20 ADD DUP1 PUSH2 0x2FCA PUSH1 0x22 SWAP2 CODECOPY PUSH1 0x40 ADD SWAP2 POP POP PUSH1 0x40 MLOAD DUP1 SWAP2 SUB SWAP1 REVERT JUMPDEST DUP1 PUSH1 0x2 PUSH1 0x0 DUP6 PUSH20 0xFFFFFFFFFFFFFFFFFFFFFFFFFFFFFFFFFFFFFFFF AND PUSH20 0xFFFFFFFFFFFFFFFFFFFFFFFFFFFFFFFFFFFFFFFF AND DUP2 MSTORE PUSH1 0x20 ADD SWAP1 DUP2 MSTORE PUSH1 0x20 ADD PUSH1 0x0 KECCAK256 PUSH1 0x0 DUP5 PUSH20 0xFFFFFFFFFFFFFFFFFFFFFFFFFFFFFFFFFFFFFFFF AND PUSH20 0xFFFFFFFFFFFFFFFFFFFFFFFFFFFFFFFFFFFFFFFF AND DUP2 MSTORE PUSH1 0x20 ADD SWAP1 DUP2 MSTORE PUSH1 0x20 ADD PUSH1 0x0 KECCAK256 DUP2 SWAP1 SSTORE POP DUP2 PUSH20 0xFFFFFFFFFFFFFFFFFFFFFFFFFFFFFFFFFFFFFFFF AND DUP4 PUSH20 0xFFFFFFFFFFFFFFFFFFFFFFFFFFFFFFFFFFFFFFFF AND PUSH32 0x8C5BE1E5EBEC7D5BD14F71427D1E84F3DD0314C0F7B2291E5B200AC8C7C3B925 DUP4 PUSH1 0x40 MLOAD DUP1 DUP3 DUP2 MSTORE PUSH1 0x20 ADD SWAP2 POP POP PUSH1 0x40 MLOAD DUP1 SWAP2 SUB SWAP1 LOG3 POP POP POP JUMP JUMPDEST PUSH1 0x0 PUSH20 0xFFFFFFFFFFFFFFFFFFFFFFFFFFFFFFFFFFFFFFFF AND DUP4 PUSH20 0xFFFFFFFFFFFFFFFFFFFFFFFFFFFFFFFFFFFFFFFF AND EQ ISZERO PUSH2 0x1FA6 JUMPI PUSH1 0x40 MLOAD PUSH32 0x8C379A000000000000000000000000000000000000000000000000000000000 DUP2 MSTORE PUSH1 0x4 ADD DUP1 DUP1 PUSH1 0x20 ADD DUP3 DUP2 SUB DUP3 MSTORE PUSH1 0x25 DUP2 MSTORE PUSH1 0x20 ADD DUP1 PUSH2 0x2DF7 PUSH1 0x25 SWAP2 CODECOPY PUSH1 0x40 ADD SWAP2 POP POP PUSH1 0x40 MLOAD DUP1 SWAP2 SUB SWAP1 REVERT JUMPDEST PUSH1 0x0 PUSH20 0xFFFFFFFFFFFFFFFFFFFFFFFFFFFFFFFFFFFFFFFF AND DUP3 PUSH20 0xFFFFFFFFFFFFFFFFFFFFFFFFFFFFFFFFFFFFFFFF AND EQ ISZERO PUSH2 0x202C JUMPI PUSH1 0x40 MLOAD PUSH32 0x8C379A000000000000000000000000000000000000000000000000000000000 DUP2 MSTORE PUSH1 0x4 ADD DUP1 DUP1 PUSH1 0x20 ADD DUP3 DUP2 SUB DUP3 MSTORE PUSH1 0x23 DUP2 MSTORE PUSH1 0x20 ADD DUP1 PUSH2 0x2F82 PUSH1 0x23 SWAP2 CODECOPY PUSH1 0x40 ADD SWAP2 POP POP PUSH1 0x40 MLOAD DUP1 SWAP2 SUB SWAP1 REVERT JUMPDEST PUSH2 0x2098 DUP2 PUSH1 0x40 MLOAD DUP1 PUSH1 0x60 ADD PUSH1 0x40 MSTORE DUP1 PUSH1 0x26 DUP2 MSTORE PUSH1 0x20 ADD PUSH2 0x2F35 PUSH1 0x26 SWAP2 CODECOPY PUSH1 0x1 PUSH1 0x0 DUP8 PUSH20 0xFFFFFFFFFFFFFFFFFFFFFFFFFFFFFFFFFFFFFFFF AND PUSH20 0xFFFFFFFFFFFFFFFFFFFFFFFFFFFFFFFFFFFFFFFF AND DUP2 MSTORE PUSH1 0x20 ADD SWAP1 DUP2 MSTORE PUSH1 0x20 ADD PUSH1 0x0 KECCAK256 SLOAD PUSH2 0x21DA SWAP1 SWAP3 SWAP2 SWAP1 PUSH4 0xFFFFFFFF AND JUMP JUMPDEST PUSH1 0x1 PUSH1 0x0 DUP6 PUSH20 0xFFFFFFFFFFFFFFFFFFFFFFFFFFFFFFFFFFFFFFFF AND PUSH20 0xFFFFFFFFFFFFFFFFFFFFFFFFFFFFFFFFFFFFFFFF AND DUP2 MSTORE PUSH1 0x20 ADD SWAP1 DUP2 MSTORE PUSH1 0x20 ADD PUSH1 0x0 KECCAK256 DUP2 SWAP1 SSTORE POP PUSH2 0x212D DUP2 PUSH1 0x1 PUSH1 0x0 DUP6 PUSH20 0xFFFFFFFFFFFFFFFFFFFFFFFFFFFFFFFFFFFFFFFF AND PUSH20 0xFFFFFFFFFFFFFFFFFFFFFFFFFFFFFFFFFFFFFFFF AND DUP2 MSTORE PUSH1 0x20 ADD SWAP1 DUP2 MSTORE PUSH1 0x20 ADD PUSH1 0x0 KECCAK256 SLOAD PUSH2 0x229A SWAP1 SWAP2 SWAP1 PUSH4 0xFFFFFFFF AND JUMP JUMPDEST PUSH1 0x1 PUSH1 0x0 DUP5 PUSH20 0xFFFFFFFFFFFFFFFFFFFFFFFFFFFFFFFFFFFFFFFF AND PUSH20 0xFFFFFFFFFFFFFFFFFFFFFFFFFFFFFFFFFFFFFFFF AND DUP2 MSTORE PUSH1 0x20 ADD SWAP1 DUP2 MSTORE PUSH1 0x20 ADD PUSH1 0x0 KECCAK256 DUP2 SWAP1 SSTORE POP DUP2 PUSH20 0xFFFFFFFFFFFFFFFFFFFFFFFFFFFFFFFFFFFFFFFF AND DUP4 PUSH20 0xFFFFFFFFFFFFFFFFFFFFFFFFFFFFFFFFFFFFFFFF AND PUSH32 0xDDF252AD1BE2C89B69C2B068FC378DAA952BA7F163C4A11628F55A4DF523B3EF DUP4 PUSH1 0x40 MLOAD DUP1 DUP3 DUP2 MSTORE PUSH1 0x20 ADD SWAP2 POP POP PUSH1 0x40 MLOAD DUP1 SWAP2 SUB SWAP1 LOG3 POP POP POP JUMP JUMPDEST PUSH1 0x0 DUP4 DUP4 GT ISZERO DUP3 SWAP1 PUSH2 0x2287 JUMPI PUSH1 0x40 MLOAD PUSH32 0x8C379A000000000000000000000000000000000000000000000000000000000 DUP2 MSTORE PUSH1 0x4 ADD DUP1 DUP1 PUSH1 0x20 ADD DUP3 DUP2 SUB DUP3 MSTORE DUP4 DUP2 DUP2 MLOAD DUP2 MSTORE PUSH1 0x20 ADD SWAP2 POP DUP1 MLOAD SWAP1 PUSH1 0x20 ADD SWAP1 DUP1 DUP4 DUP4 PUSH1 0x0 JUMPDEST DUP4 DUP2 LT ISZERO PUSH2 0x224C JUMPI DUP1 DUP3 ADD MLOAD DUP2 DUP5 ADD MSTORE PUSH1 0x20 DUP2 ADD SWAP1 POP PUSH2 0x2231 JUMP JUMPDEST POP POP POP POP SWAP1 POP SWAP1 DUP2 ADD SWAP1 PUSH1 0x1F AND DUP1 ISZERO PUSH2 0x2279 JUMPI DUP1 DUP3 SUB DUP1 MLOAD PUSH1 0x1 DUP4 PUSH1 0x20 SUB PUSH2 0x100 EXP SUB NOT AND DUP2 MSTORE PUSH1 0x20 ADD SWAP2 POP JUMPDEST POP SWAP3 POP POP POP PUSH1 0x40 MLOAD DUP1 SWAP2 SUB SWAP1 REVERT JUMPDEST POP PUSH1 0x0 DUP4 DUP6 SUB SWAP1 POP DUP1 SWAP2 POP POP SWAP4 SWAP3 POP POP POP JUMP JUMPDEST PUSH1 0x0 DUP1 DUP3 DUP5 ADD SWAP1 POP DUP4 DUP2 LT ISZERO PUSH2 0x2318 JUMPI PUSH1 0x40 MLOAD PUSH32 0x8C379A000000000000000000000000000000000000000000000000000000000 DUP2 MSTORE PUSH1 0x4 ADD DUP1 DUP1 PUSH1 0x20 ADD DUP3 DUP2 SUB DUP3 MSTORE PUSH1 0x1B DUP2 MSTORE PUSH1 0x20 ADD DUP1 PUSH32 0x536166654D6174683A206164646974696F6E206F766572666C6F770000000000 DUP2 MSTORE POP PUSH1 0x20 ADD SWAP2 POP POP PUSH1 0x40 MLOAD DUP1 SWAP2 SUB SWAP1 REVERT JUMPDEST DUP1 SWAP2 POP POP SWAP3 SWAP2 POP POP JUMP JUMPDEST PUSH1 0x0 PUSH20 0xFFFFFFFFFFFFFFFFFFFFFFFFFFFFFFFFFFFFFFFF AND DUP3 PUSH20 0xFFFFFFFFFFFFFFFFFFFFFFFFFFFFFFFFFFFFFFFF AND EQ ISZERO PUSH2 0x23C5 JUMPI PUSH1 0x40 MLOAD PUSH32 0x8C379A000000000000000000000000000000000000000000000000000000000 DUP2 MSTORE PUSH1 0x4 ADD DUP1 DUP1 PUSH1 0x20 ADD DUP3 DUP2 SUB DUP3 MSTORE PUSH1 0x1F DUP2 MSTORE PUSH1 0x20 ADD DUP1 PUSH32 0x42455032303A206D696E7420746F20746865207A65726F206164647265737300 DUP2 MSTORE POP PUSH1 0x20 ADD SWAP2 POP POP PUSH1 0x40 MLOAD DUP1 SWAP2 SUB SWAP1 REVERT JUMPDEST PUSH2 0x23DA DUP2 PUSH1 0x3 SLOAD PUSH2 0x229A SWAP1 SWAP2 SWAP1 PUSH4 0xFFFFFFFF AND JUMP JUMPDEST PUSH1 0x3 DUP2 SWAP1 SSTORE POP PUSH2 0x2432 DUP2 PUSH1 0x1 PUSH1 0x0 DUP6 PUSH20 0xFFFFFFFFFFFFFFFFFFFFFFFFFFFFFFFFFFFFFFFF AND PUSH20 0xFFFFFFFFFFFFFFFFFFFFFFFFFFFFFFFFFFFFFFFF AND DUP2 MSTORE PUSH1 0x20 ADD SWAP1 DUP2 MSTORE PUSH1 0x20 ADD PUSH1 0x0 KECCAK256 SLOAD PUSH2 0x229A SWAP1 SWAP2 SWAP1 PUSH4 0xFFFFFFFF AND JUMP JUMPDEST PUSH1 0x1 PUSH1 0x0 DUP5 PUSH20 0xFFFFFFFFFFFFFFFFFFFFFFFFFFFFFFFFFFFFFFFF AND PUSH20 0xFFFFFFFFFFFFFFFFFFFFFFFFFFFFFFFFFFFFFFFF AND DUP2 MSTORE PUSH1 0x20 ADD SWAP1 DUP2 MSTORE PUSH1 0x20 ADD PUSH1 0x0 KECCAK256 DUP2 SWAP1 SSTORE POP DUP2 PUSH20 0xFFFFFFFFFFFFFFFFFFFFFFFFFFFFFFFFFFFFFFFF AND PUSH1 0x0 PUSH20 0xFFFFFFFFFFFFFFFFFFFFFFFFFFFFFFFFFFFFFFFF AND PUSH32 0xDDF252AD1BE2C89B69C2B068FC378DAA952BA7F163C4A11628F55A4DF523B3EF DUP4 PUSH1 0x40 MLOAD DUP1 DUP3 DUP2 MSTORE PUSH1 0x20 ADD SWAP2 POP POP PUSH1 0x40 MLOAD DUP1 SWAP2 SUB SWAP1 LOG3 POP POP JUMP JUMPDEST DUP2 PUSH20 0xFFFFFFFFFFFFFFFFFFFFFFFFFFFFFFFFFFFFFFFF AND DUP4 PUSH20 0xFFFFFFFFFFFFFFFFFFFFFFFFFFFFFFFFFFFFFFFF AND EQ ISZERO DUP1 ISZERO PUSH2 0x251B JUMPI POP PUSH1 0x0 DUP2 GT JUMPDEST ISZERO PUSH2 0x2777 JUMPI PUSH1 0x0 PUSH20 0xFFFFFFFFFFFFFFFFFFFFFFFFFFFFFFFFFFFFFFFF AND DUP4 PUSH20 0xFFFFFFFFFFFFFFFFFFFFFFFFFFFFFFFFFFFFFFFF AND EQ PUSH2 0x264B JUMPI PUSH1 0x0 PUSH1 0x9 PUSH1 0x0 DUP6 PUSH20 0xFFFFFFFFFFFFFFFFFFFFFFFFFFFFFFFFFFFFFFFF AND PUSH20 0xFFFFFFFFFFFFFFFFFFFFFFFFFFFFFFFFFFFFFFFF AND DUP2 MSTORE PUSH1 0x20 ADD SWAP1 DUP2 MSTORE PUSH1 0x20 ADD PUSH1 0x0 KECCAK256 PUSH1 0x0 SWAP1 SLOAD SWAP1 PUSH2 0x100 EXP SWAP1 DIV PUSH4 0xFFFFFFFF AND SWAP1 POP PUSH1 0x0 DUP1 DUP3 PUSH4 0xFFFFFFFF AND GT PUSH2 0x25BE JUMPI PUSH1 0x0 PUSH2 0x2622 JUMP JUMPDEST PUSH1 0x8 PUSH1 0x0 DUP7 PUSH20 0xFFFFFFFFFFFFFFFFFFFFFFFFFFFFFFFFFFFFFFFF AND PUSH20 0xFFFFFFFFFFFFFFFFFFFFFFFFFFFFFFFFFFFFFFFF AND DUP2 MSTORE PUSH1 0x20 ADD SWAP1 DUP2 MSTORE PUSH1 0x20 ADD PUSH1 0x0 KECCAK256 PUSH1 0x0 PUSH1 0x1 DUP5 SUB PUSH4 0xFFFFFFFF AND PUSH4 0xFFFFFFFF AND DUP2 MSTORE PUSH1 0x20 ADD SWAP1 DUP2 MSTORE PUSH1 0x20 ADD PUSH1 0x0 KECCAK256 PUSH1 0x1 ADD SLOAD JUMPDEST SWAP1 POP PUSH1 0x0 PUSH2 0x2639 DUP5 DUP4 PUSH2 0x2A3D SWAP1 SWAP2 SWAP1 PUSH4 0xFFFFFFFF AND JUMP JUMPDEST SWAP1 POP PUSH2 0x2647 DUP7 DUP5 DUP5 DUP5 PUSH2 0x2A87 JUMP JUMPDEST POP POP POP JUMPDEST PUSH1 0x0 PUSH20 0xFFFFFFFFFFFFFFFFFFFFFFFFFFFFFFFFFFFFFFFF AND DUP3 PUSH20 0xFFFFFFFFFFFFFFFFFFFFFFFFFFFFFFFFFFFFFFFF AND EQ PUSH2 0x2776 JUMPI PUSH1 0x0 PUSH1 0x9 PUSH1 0x0 DUP5 PUSH20 0xFFFFFFFFFFFFFFFFFFFFFFFFFFFFFFFFFFFFFFFF AND PUSH20 0xFFFFFFFFFFFFFFFFFFFFFFFFFFFFFFFFFFFFFFFF AND DUP2 MSTORE PUSH1 0x20 ADD SWAP1 DUP2 MSTORE PUSH1 0x20 ADD PUSH1 0x0 KECCAK256 PUSH1 0x0 SWAP1 SLOAD SWAP1 PUSH2 0x100 EXP SWAP1 DIV PUSH4 0xFFFFFFFF AND SWAP1 POP PUSH1 0x0 DUP1 DUP3 PUSH4 0xFFFFFFFF AND GT PUSH2 0x26E9 JUMPI PUSH1 0x0 PUSH2 0x274D JUMP JUMPDEST PUSH1 0x8 PUSH1 0x0 DUP6 PUSH20 0xFFFFFFFFFFFFFFFFFFFFFFFFFFFFFFFFFFFFFFFF AND PUSH20 0xFFFFFFFFFFFFFFFFFFFFFFFFFFFFFFFFFFFFFFFF AND DUP2 MSTORE PUSH1 0x20 ADD SWAP1 DUP2 MSTORE PUSH1 0x20 ADD PUSH1 0x0 KECCAK256 PUSH1 0x0 PUSH1 0x1 DUP5 SUB PUSH4 0xFFFFFFFF AND PUSH4 0xFFFFFFFF AND DUP2 MSTORE PUSH1 0x20 ADD SWAP1 DUP2 MSTORE PUSH1 0x20 ADD PUSH1 0x0 KECCAK256 PUSH1 0x1 ADD SLOAD JUMPDEST SWAP1 POP PUSH1 0x0 PUSH2 0x2764 DUP5 DUP4 PUSH2 0x229A SWAP1 SWAP2 SWAP1 PUSH4 0xFFFFFFFF AND JUMP JUMPDEST SWAP1 POP PUSH2 0x2772 DUP6 DUP5 DUP5 DUP5 PUSH2 0x2A87 JUMP JUMPDEST POP POP POP JUMPDEST JUMPDEST POP POP POP JUMP JUMPDEST PUSH1 0x0 PUSH1 0x7 PUSH1 0x0 DUP5 PUSH20 0xFFFFFFFFFFFFFFFFFFFFFFFFFFFFFFFFFFFFFFFF AND PUSH20 0xFFFFFFFFFFFFFFFFFFFFFFFFFFFFFFFFFFFFFFFF AND DUP2 MSTORE PUSH1 0x20 ADD SWAP1 DUP2 MSTORE PUSH1 0x20 ADD PUSH1 0x0 KECCAK256 PUSH1 0x0 SWAP1 SLOAD SWAP1 PUSH2 0x100 EXP SWAP1 DIV PUSH20 0xFFFFFFFFFFFFFFFFFFFFFFFFFFFFFFFFFFFFFFFF AND SWAP1 POP PUSH1 0x0 PUSH2 0x27EB DUP5 PUSH2 0xED6 JUMP JUMPDEST SWAP1 POP DUP3 PUSH1 0x7 PUSH1 0x0 DUP7 PUSH20 0xFFFFFFFFFFFFFFFFFFFFFFFFFFFFFFFFFFFFFFFF AND PUSH20 0xFFFFFFFFFFFFFFFFFFFFFFFFFFFFFFFFFFFFFFFF AND DUP2 MSTORE PUSH1 0x20 ADD SWAP1 DUP2 MSTORE PUSH1 0x20 ADD PUSH1 0x0 KECCAK256 PUSH1 0x0 PUSH2 0x100 EXP DUP2 SLOAD DUP2 PUSH20 0xFFFFFFFFFFFFFFFFFFFFFFFFFFFFFFFFFFFFFFFF MUL NOT AND SWAP1 DUP4 PUSH20 0xFFFFFFFFFFFFFFFFFFFFFFFFFFFFFFFFFFFFFFFF AND MUL OR SWAP1 SSTORE POP DUP3 PUSH20 0xFFFFFFFFFFFFFFFFFFFFFFFFFFFFFFFFFFFFFFFF AND DUP3 PUSH20 0xFFFFFFFFFFFFFFFFFFFFFFFFFFFFFFFFFFFFFFFF AND DUP6 PUSH20 0xFFFFFFFFFFFFFFFFFFFFFFFFFFFFFFFFFFFFFFFF AND PUSH32 0x3134E8A2E6D97E929A7E54011EA5485D7D196DD5F0BA4D4EF95803E8E3FC257F PUSH1 0x40 MLOAD PUSH1 0x40 MLOAD DUP1 SWAP2 SUB SWAP1 LOG4 PUSH2 0x28E7 DUP3 DUP5 DUP4 PUSH2 0x24DF JUMP JUMPDEST POP POP POP POP JUMP JUMPDEST PUSH1 0x0 DUP1 CHAINID SWAP1 POP DUP1 SWAP2 POP POP SWAP1 JUMP JUMPDEST PUSH1 0x0 PUSH20 0xFFFFFFFFFFFFFFFFFFFFFFFFFFFFFFFFFFFFFFFF AND DUP2 PUSH20 0xFFFFFFFFFFFFFFFFFFFFFFFFFFFFFFFFFFFFFFFF AND EQ ISZERO PUSH2 0x2980 JUMPI PUSH1 0x40 MLOAD PUSH32 0x8C379A000000000000000000000000000000000000000000000000000000000 DUP2 MSTORE PUSH1 0x4 ADD DUP1 DUP1 PUSH1 0x20 ADD DUP3 DUP2 SUB DUP3 MSTORE PUSH1 0x26 DUP2 MSTORE PUSH1 0x20 ADD DUP1 PUSH2 0x2E40 PUSH1 0x26 SWAP2 CODECOPY PUSH1 0x40 ADD SWAP2 POP POP PUSH1 0x40 MLOAD DUP1 SWAP2 SUB SWAP1 REVERT JUMPDEST DUP1 PUSH20 0xFFFFFFFFFFFFFFFFFFFFFFFFFFFFFFFFFFFFFFFF AND PUSH1 0x0 DUP1 SLOAD SWAP1 PUSH2 0x100 EXP SWAP1 DIV PUSH20 0xFFFFFFFFFFFFFFFFFFFFFFFFFFFFFFFFFFFFFFFF AND PUSH20 0xFFFFFFFFFFFFFFFFFFFFFFFFFFFFFFFFFFFFFFFF AND PUSH32 0x8BE0079C531659141344CD1FD0A4F28419497F9722A3DAAFE3B4186F6B6457E0 PUSH1 0x40 MLOAD PUSH1 0x40 MLOAD DUP1 SWAP2 SUB SWAP1 LOG3 DUP1 PUSH1 0x0 DUP1 PUSH2 0x100 EXP DUP2 SLOAD DUP2 PUSH20 0xFFFFFFFFFFFFFFFFFFFFFFFFFFFFFFFFFFFFFFFF MUL NOT AND SWAP1 DUP4 PUSH20 0xFFFFFFFFFFFFFFFFFFFFFFFFFFFFFFFFFFFFFFFF AND MUL OR SWAP1 SSTORE POP POP JUMP JUMPDEST PUSH1 0x0 PUSH2 0x2A7F DUP4 DUP4 PUSH1 0x40 MLOAD DUP1 PUSH1 0x40 ADD PUSH1 0x40 MSTORE DUP1 PUSH1 0x1E DUP2 MSTORE PUSH1 0x20 ADD PUSH32 0x536166654D6174683A207375627472616374696F6E206F766572666C6F770000 DUP2 MSTORE POP PUSH2 0x21DA JUMP JUMPDEST SWAP1 POP SWAP3 SWAP2 POP POP JUMP JUMPDEST PUSH1 0x0 PUSH2 0x2AAB NUMBER PUSH1 0x40 MLOAD DUP1 PUSH1 0x60 ADD PUSH1 0x40 MSTORE DUP1 PUSH1 0x35 DUP2 MSTORE PUSH1 0x20 ADD PUSH2 0x2ED8 PUSH1 0x35 SWAP2 CODECOPY PUSH2 0x2D1B JUMP JUMPDEST SWAP1 POP PUSH1 0x0 DUP5 PUSH4 0xFFFFFFFF AND GT DUP1 ISZERO PUSH2 0x2B40 JUMPI POP DUP1 PUSH4 0xFFFFFFFF AND PUSH1 0x8 PUSH1 0x0 DUP8 PUSH20 0xFFFFFFFFFFFFFFFFFFFFFFFFFFFFFFFFFFFFFFFF AND PUSH20 0xFFFFFFFFFFFFFFFFFFFFFFFFFFFFFFFFFFFFFFFF AND DUP2 MSTORE PUSH1 0x20 ADD SWAP1 DUP2 MSTORE PUSH1 0x20 ADD PUSH1 0x0 KECCAK256 PUSH1 0x0 PUSH1 0x1 DUP8 SUB PUSH4 0xFFFFFFFF AND PUSH4 0xFFFFFFFF AND DUP2 MSTORE PUSH1 0x20 ADD SWAP1 DUP2 MSTORE PUSH1 0x20 ADD PUSH1 0x0 KECCAK256 PUSH1 0x0 ADD PUSH1 0x0 SWAP1 SLOAD SWAP1 PUSH2 0x100 EXP SWAP1 DIV PUSH4 0xFFFFFFFF AND PUSH4 0xFFFFFFFF AND EQ JUMPDEST ISZERO PUSH2 0x2BB1 JUMPI DUP2 PUSH1 0x8 PUSH1 0x0 DUP8 PUSH20 0xFFFFFFFFFFFFFFFFFFFFFFFFFFFFFFFFFFFFFFFF AND PUSH20 0xFFFFFFFFFFFFFFFFFFFFFFFFFFFFFFFFFFFFFFFF AND DUP2 MSTORE PUSH1 0x20 ADD SWAP1 DUP2 MSTORE PUSH1 0x20 ADD PUSH1 0x0 KECCAK256 PUSH1 0x0 PUSH1 0x1 DUP8 SUB PUSH4 0xFFFFFFFF AND PUSH4 0xFFFFFFFF AND DUP2 MSTORE PUSH1 0x20 ADD SWAP1 DUP2 MSTORE PUSH1 0x20 ADD PUSH1 0x0 KECCAK256 PUSH1 0x1 ADD DUP2 SWAP1 SSTORE POP PUSH2 0x2CBE JUMP JUMPDEST PUSH1 0x40 MLOAD DUP1 PUSH1 0x40 ADD PUSH1 0x40 MSTORE DUP1 DUP3 PUSH4 0xFFFFFFFF AND DUP2 MSTORE PUSH1 0x20 ADD DUP4 DUP2 MSTORE POP PUSH1 0x8 PUSH1 0x0 DUP8 PUSH20 0xFFFFFFFFFFFFFFFFFFFFFFFFFFFFFFFFFFFFFFFF AND PUSH20 0xFFFFFFFFFFFFFFFFFFFFFFFFFFFFFFFFFFFFFFFF AND DUP2 MSTORE PUSH1 0x20 ADD SWAP1 DUP2 MSTORE PUSH1 0x20 ADD PUSH1 0x0 KECCAK256 PUSH1 0x0 DUP7 PUSH4 0xFFFFFFFF AND PUSH4 0xFFFFFFFF AND DUP2 MSTORE PUSH1 0x20 ADD SWAP1 DUP2 MSTORE PUSH1 0x20 ADD PUSH1 0x0 KECCAK256 PUSH1 0x0 DUP3 ADD MLOAD DUP2 PUSH1 0x0 ADD PUSH1 0x0 PUSH2 0x100 EXP DUP2 SLOAD DUP2 PUSH4 0xFFFFFFFF MUL NOT AND SWAP1 DUP4 PUSH4 0xFFFFFFFF AND MUL OR SWAP1 SSTORE POP PUSH1 0x20 DUP3 ADD MLOAD DUP2 PUSH1 0x1 ADD SSTORE SWAP1 POP POP PUSH1 0x1 DUP5 ADD PUSH1 0x9 PUSH1 0x0 DUP8 PUSH20 0xFFFFFFFFFFFFFFFFFFFFFFFFFFFFFFFFFFFFFFFF AND PUSH20 0xFFFFFFFFFFFFFFFFFFFFFFFFFFFFFFFFFFFFFFFF AND DUP2 MSTORE PUSH1 0x20 ADD SWAP1 DUP2 MSTORE PUSH1 0x20 ADD PUSH1 0x0 KECCAK256 PUSH1 0x0 PUSH2 0x100 EXP DUP2 SLOAD DUP2 PUSH4 0xFFFFFFFF MUL NOT AND SWAP1 DUP4 PUSH4 0xFFFFFFFF AND MUL OR SWAP1 SSTORE POP JUMPDEST DUP5 PUSH20 0xFFFFFFFFFFFFFFFFFFFFFFFFFFFFFFFFFFFFFFFF AND PUSH32 0xDEC2BACDD2F05B59DE34DA9B523DFF8BE42E5E38E818C82FDB0BAE774387A724 DUP5 DUP5 PUSH1 0x40 MLOAD DUP1 DUP4 DUP2 MSTORE PUSH1 0x20 ADD DUP3 DUP2 MSTORE PUSH1 0x20 ADD SWAP3 POP POP POP PUSH1 0x40 MLOAD DUP1 SWAP2 SUB SWAP1 LOG2 POP POP POP POP POP JUMP JUMPDEST PUSH1 0x0 PUSH5 0x100000000 DUP4 LT DUP3 SWAP1 PUSH2 0x2DCC JUMPI PUSH1 0x40 MLOAD PUSH32 0x8C379A000000000000000000000000000000000000000000000000000000000 DUP2 MSTORE PUSH1 0x4 ADD DUP1 DUP1 PUSH1 0x20 ADD DUP3 DUP2 SUB DUP3 MSTORE DUP4 DUP2 DUP2 MLOAD DUP2 MSTORE PUSH1 0x20 ADD SWAP2 POP DUP1 MLOAD SWAP1 PUSH1 0x20 ADD SWAP1 DUP1 DUP4 DUP4 PUSH1 0x0 JUMPDEST DUP4 DUP2 LT ISZERO PUSH2 0x2D91 JUMPI DUP1 DUP3 ADD MLOAD DUP2 DUP5 ADD MSTORE PUSH1 0x20 DUP2 ADD SWAP1 POP PUSH2 0x2D76 JUMP JUMPDEST POP POP POP POP SWAP1 POP SWAP1 DUP2 ADD SWAP1 PUSH1 0x1F AND DUP1 ISZERO PUSH2 0x2DBE JUMPI DUP1 DUP3 SUB DUP1 MLOAD PUSH1 0x1 DUP4 PUSH1 0x20 SUB PUSH2 0x100 EXP SUB NOT AND DUP2 MSTORE PUSH1 0x20 ADD SWAP2 POP JUMPDEST POP SWAP3 POP POP POP PUSH1 0x40 MLOAD DUP1 SWAP2 SUB SWAP1 REVERT JUMPDEST POP DUP3 SWAP1 POP SWAP3 SWAP2 POP POP JUMP JUMPDEST PUSH1 0x40 MLOAD DUP1 PUSH1 0x40 ADD PUSH1 0x40 MSTORE DUP1 PUSH1 0x0 PUSH4 0xFFFFFFFF AND DUP2 MSTORE PUSH1 0x20 ADD PUSH1 0x0 DUP2 MSTORE POP SWAP1 JUMP INVALID TIMESTAMP GASLIMIT POP ORIGIN ADDRESS GASPRICE KECCAK256 PUSH21 0x72616E736665722066726F6D20746865207A65726F KECCAK256 PUSH2 0x6464 PUSH19 0x65737342455032303A20617070726F76652066 PUSH19 0x6F6D20746865207A65726F2061646472657373 0x4F PUSH24 0x6E61626C653A206E6577206F776E65722069732074686520 PUSH27 0x65726F20616464726573734641414E473A3A64656C656761746542 PUSH26 0x5369673A20696E76616C6964206E6F6E63654641414E473A3A64 PUSH6 0x6C6567617465 TIMESTAMP PUSH26 0x5369673A207369676E6174757265206578706972656442455032 ADDRESS GASPRICE KECCAK256 PUSH21 0x72616E7366657220616D6F756E7420657863656564 PUSH20 0x20616C6C6F77616E63654641414E473A3A5F7772 PUSH10 0x7465436865636B706F69 PUSH15 0x743A20626C6F636B206E756D626572 KECCAK256 PUSH6 0x786365656473 KECCAK256 CALLER ORIGIN KECCAK256 PUSH3 0x697473 CHAINID COINBASE COINBASE 0x4E SELFBALANCE GASPRICE GASPRICE PUSH8 0x65745072696F7256 PUSH16 0x7465733A206E6F742079657420646574 PUSH6 0x726D696E6564 TIMESTAMP GASLIMIT POP ORIGIN ADDRESS GASPRICE KECCAK256 PUSH21 0x72616E7366657220616D6F756E7420657863656564 PUSH20 0x2062616C616E63654641414E473A3A64656C6567 PUSH2 0x7465 TIMESTAMP PUSH26 0x5369673A20696E76616C6964207369676E617475726542455032 ADDRESS GASPRICE KECCAK256 PUSH21 0x72616E7366657220746F20746865207A65726F2061 PUSH5 0x6472657373 TIMESTAMP GASLIMIT POP ORIGIN ADDRESS GASPRICE KECCAK256 PUSH5 0x6563726561 PUSH20 0x656420616C6C6F77616E63652062656C6F77207A PUSH6 0x726F42455032 ADDRESS GASPRICE KECCAK256 PUSH2 0x7070 PUSH19 0x6F766520746F20746865207A65726F20616464 PUSH19 0x657373A264697066735822122073FF4EE2C974 SMOD DUP4 0xB2 DUP4 0xC1 0x2D 0xBD 0xB9 LOG1 0xED 0x25 DUP1 SWAP5 0xB8 ORIGIN 0x4F PUSH31 0x766D00E9367A07F65A64736F6C634300060C00330000000000000000000000 "},"gasEstimates":{"creation":{"codeDepositCost":"2464200","executionCost":"infinite","totalCost":"infinite"},"external":{"DELEGATION_TYPEHASH()":"271","DOMAIN_TYPEHASH()":"295","allowance(address,address)":"1365","approve(address,uint256)":"infinite","balanceOf(address)":"1285","checkpoints(address,uint32)":"2243","decimals()":"1189","decreaseAllowance(address,uint256)":"infinite","delegate(address)":"infinite","delegateBySig(address,uint256,uint256,uint8,bytes32,bytes32)":"infinite","delegates(address)":"1328","getCurrentVotes(address)":"2334","getOwner()":"1180","getPriorVotes(address,uint256)":"infinite","increaseAllowance(address,uint256)":"infinite","mint(address,uint256)":"infinite","mint(uint256)":"infinite","name()":"infinite","nonces(address)":"1237","numCheckpoints(address)":"1267","owner()":"1100","renounceOwnership()":"24402","symbol()":"infinite","totalSupply()":"1081","transfer(address,uint256)":"infinite","transferFrom(address,address,uint256)":"infinite","transferOwnership(address)":"infinite"},"internal":{"_delegate(address,address)":"infinite","_moveDelegates(address,address,uint256)":"infinite","_writeCheckpoint(address,uint32,uint256,uint256)":"infinite","getChainId()":"35","safe32(uint256,string memory)":"infinite"}},"methodIdentifiers":{"DELEGATION_TYPEHASH()":"e7a324dc","DOMAIN_TYPEHASH()":"20606b70","allowance(address,address)":"dd62ed3e","approve(address,uint256)":"095ea7b3","balanceOf(address)":"70a08231","checkpoints(address,uint32)":"f1127ed8","decimals()":"313ce567","decreaseAllowance(address,uint256)":"a457c2d7","delegate(address)":"5c19a95c","delegateBySig(address,uint256,uint256,uint8,bytes32,bytes32)":"c3cda520","delegates(address)":"587cde1e","getCurrentVotes(address)":"b4b5ea57","getOwner()":"893d20e8","getPriorVotes(address,uint256)":"782d6fe1","increaseAllowance(address,uint256)":"39509351","mint(address,uint256)":"40c10f19","mint(uint256)":"a0712d68","name()":"06fdde03","nonces(address)":"7ecebe00","numCheckpoints(address)":"6fcfff45","owner()":"8da5cb5b","renounceOwnership()":"715018a6","symbol()":"95d89b41","totalSupply()":"18160ddd","transfer(address,uint256)":"a9059cbb","transferFrom(address,address,uint256)":"23b872dd","transferOwnership(address)":"f2fde38b"}},"storageLayout":{"storage":[{"astId":2366,"contract":"FAANGToken.sol:FAANGToken","label":"_owner","offset":0,"slot":"0","type":"t_address"},{"astId":231,"contract":"FAANGToken.sol:FAANGToken","label":"_balances","offset":0,"slot":"1","type":"t_mapping(t_address,t_uint256)"},{"astId":237,"contract":"FAANGToken.sol:FAANGToken","label":"_allowances","offset":0,"slot":"2","type":"t_mapping(t_address,t_mapping(t_address,t_uint256))"},{"astId":239,"contract":"FAANGToken.sol:FAANGToken","label":"_totalSupply","offset":0,"slot":"3","type":"t_uint256"},{"astId":241,"contract":"FAANGToken.sol:FAANGToken","label":"_name","offset":0,"slot":"4","type":"t_string_storage"},{"astId":243,"contract":"FAANGToken.sol:FAANGToken","label":"_symbol","offset":0,"slot":"5","type":"t_string_storage"},{"astId":245,"contract":"FAANGToken.sol:FAANGToken","label":"_decimals","offset":0,"slot":"6","type":"t_uint8"},{"astId":1660,"contract":"FAANGToken.sol:FAANGToken","label":"_delegates","offset":0,"slot":"7","type":"t_mapping(t_address,t_address)"},{"astId":1672,"contract":"FAANGToken.sol:FAANGToken","label":"checkpoints","offset":0,"slot":"8","type":"t_mapping(t_address,t_mapping(t_uint32,t_struct(Checkpoint)1665_storage))"},{"astId":1677,"contract":"FAANGToken.sol:FAANGToken","label":"numCheckpoints","offset":0,"slot":"9","type":"t_mapping(t_address,t_uint32)"},{"astId":1694,"contract":"FAANGToken.sol:FAANGToken","label":"nonces","offset":0,"slot":"10","type":"t_mapping(t_address,t_uint256)"}],"types":{"t_address":{"encoding":"inplace","label":"address","numberOfBytes":"20"},"t_mapping(t_address,t_address)":{"encoding":"mapping","key":"t_address","label":"mapping(address => address)","numberOfBytes":"32","value":"t_address"},"t_mapping(t_address,t_mapping(t_address,t_uint256))":{"encoding":"mapping","key":"t_address","label":"mapping(address => mapping(address => uint256))","numberOfBytes":"32","value":"t_mapping(t_address,t_uint256)"},"t_mapping(t_address,t_mapping(t_uint32,t_struct(Checkpoint)1665_storage))":{"encoding":"mapping","key":"t_address","label":"mapping(address => mapping(uint32 => struct FAANGToken.Checkpoint))","numberOfBytes":"32","value":"t_mapping(t_uint32,t_struct(Checkpoint)1665_storage)"},"t_mapping(t_address,t_uint256)":{"encoding":"mapping","key":"t_address","label":"mapping(address => uint256)","numberOfBytes":"32","value":"t_uint256"},"t_mapping(t_address,t_uint32)":{"encoding":"mapping","key":"t_address","label":"mapping(address => uint32)","numberOfBytes":"32","value":"t_uint32"},"t_mapping(t_uint32,t_struct(Checkpoint)1665_storage)":{"encoding":"mapping","key":"t_uint32","label":"mapping(uint32 => struct FAANGToken.Checkpoint)","numberOfBytes":"32","value":"t_struct(Checkpoint)1665_storage"},"t_string_storage":{"encoding":"bytes","label":"string","numberOfBytes":"32"},"t_struct(Checkpoint)1665_storage":{"encoding":"inplace","label":"struct FAANGToken.Checkpoint","members":[{"astId":1662,"contract":"FAANGToken.sol:FAANGToken","label":"fromBlock","offset":0,"slot":"0","type":"t_uint32"},{"astId":1664,"contract":"FAANGToken.sol:FAANGToken","label":"votes","offset":0,"slot":"1","type":"t_uint256"}],"numberOfBytes":"64"},"t_uint256":{"encoding":"inplace","label":"uint256","numberOfBytes":"32"},"t_uint32":{"encoding":"inplace","label":"uint32","numberOfBytes":"4"},"t_uint8":{"encoding":"inplace","label":"uint8","numberOfBytes":"1"}}},"userdoc":{"events":{"DelegateChanged(address,address,address)":{"notice":"An event thats emitted when an account changes its delegate"},"DelegateVotesChanged(address,uint256,uint256)":{"notice":"An event thats emitted when a delegate account's vote balance changes"}},"kind":"user","methods":{"DELEGATION_TYPEHASH()":{"notice":"The EIP-712 typehash for the delegation struct used by the contract"},"DOMAIN_TYPEHASH()":{"notice":"The EIP-712 typehash for the contract's domain"},"checkpoints(address,uint32)":{"notice":"A record of votes checkpoints for each account, by index"},"delegate(address)":{"notice":"Delegate votes from `msg.sender` to `delegatee`"},"delegateBySig(address,uint256,uint256,uint8,bytes32,bytes32)":{"notice":"Delegates votes from signatory to `delegatee`"},"delegates(address)":{"notice":"Delegate votes from `msg.sender` to `delegatee`"},"getCurrentVotes(address)":{"notice":"Gets the current votes balance for `account`"},"getPriorVotes(address,uint256)":{"notice":"Determine the prior number of votes for an account as of a block number"},"mint(address,uint256)":{"notice":"Creates `_amount` token to `_to`. Must only be called by the owner (MasterChef)."},"nonces(address)":{"notice":"A record of states for signing / validating signatures"},"numCheckpoints(address)":{"notice":"The number of checkpoints for each account"}},"version":1}}