{"abi":[{"inputs":[{"internalType":"contract FAANGToken","name":"_FAANG","type":"address"},{"internalType":"uint256","name":"_startBlock","type":"uint256"}],"stateMutability":"nonpayable","type":"constructor"},{"anonymous":false,"inputs":[{"indexed":true,"internalType":"address","name":"user","type":"address"},{"indexed":false,"internalType":"uint256","name":"pid","type":"uint256"},{"indexed":false,"internalType":"uint256","name":"amount","type":"uint256"}],"name":"ClaimReward","type":"event"},{"anonymous":false,"inputs":[{"indexed":true,"internalType":"address","name":"user","type":"address"},{"indexed":true,"internalType":"uint256","name":"pid","type":"uint256"},{"indexed":false,"internalType":"uint256","name":"amount","type":"uint256"}],"name":"Deposit","type":"event"},{"anonymous":false,"inputs":[{"indexed":true,"internalType":"address","name":"user","type":"address"},{"indexed":true,"internalType":"uint256","name":"pid","type":"uint256"},{"indexed":false,"internalType":"uint256","name":"amount","type":"uint256"}],"name":"EmergencyWithdraw","type":"event"},{"anonymous":false,"inputs":[{"indexed":true,"internalType":"address","name":"previousOwner","type":"address"},{"indexed":true,"internalType":"address","name":"newOwner","type":"address"}],"name":"OwnershipTransferred","type":"event"},{"anonymous":false,"inputs":[{"indexed":true,"internalType":"address","name":"user","type":"address"},{"indexed":true,"internalType":"uint256","name":"pid","type":"uint256"},{"indexed":false,"internalType":"uint256","name":"amount","type":"uint256"}],"name":"Withdraw","type":"event"},{"inputs":[],"name":"FAANG","outputs":[{"internalType":"contract FAANGToken","name":"","type":"address"}],"stateMutability":"view","type":"function"},{"inputs":[],"name":"FAANGPerBlock","outputs":[{"internalType":"uint256","name":"","type":"uint256"}],"stateMutability":"view","type":"function"},{"inputs":[{"internalType":"contract IBEP20","name":"_lpToken","type":"address"},{"internalType":"bool","name":"_withUpdate","type":"bool"}],"name":"add","outputs":[],"stateMutability":"nonpayable","type":"function"},{"inputs":[],"name":"canClaimFAANGRewards","outputs":[{"internalType":"bool","name":"","type":"bool"}],"stateMutability":"view","type":"function"},{"inputs":[{"internalType":"uint256","name":"_pid","type":"uint256"},{"internalType":"uint256","name":"_amount","type":"uint256"}],"name":"deposit","outputs":[],"stateMutability":"nonpayable","type":"function"},{"inputs":[{"internalType":"uint256","name":"_pid","type":"uint256"}],"name":"emergencyWithdraw","outputs":[],"stateMutability":"nonpayable","type":"function"},{"inputs":[{"internalType":"uint256","name":"_from","type":"uint256"},{"internalType":"uint256","name":"_to","type":"uint256"}],"name":"getMultiplier","outputs":[{"internalType":"uint256","name":"","type":"uint256"}],"stateMutability":"pure","type":"function"},{"inputs":[{"internalType":"contract IBEP20","name":"_lpToken","type":"address"}],"name":"getPoolIdForLpToken","outputs":[{"internalType":"uint256","name":"","type":"uint256"}],"stateMutability":"view","type":"function"},{"inputs":[],"name":"massUpdatePools","outputs":[],"stateMutability":"nonpayable","type":"function"},{"inputs":[],"name":"owner","outputs":[{"internalType":"address","name":"","type":"address"}],"stateMutability":"view","type":"function"},{"inputs":[{"internalType":"uint256","name":"_pid","type":"uint256"},{"internalType":"address","name":"_user","type":"address"}],"name":"pendingFAANG","outputs":[{"internalType":"uint256","name":"","type":"uint256"}],"stateMutability":"view","type":"function"},{"inputs":[{"internalType":"contract IBEP20","name":"","type":"address"}],"name":"poolExistence","outputs":[{"internalType":"bool","name":"","type":"bool"}],"stateMutability":"view","type":"function"},{"inputs":[{"internalType":"contract IBEP20","name":"","type":"address"}],"name":"poolIdForLpAddress","outputs":[{"internalType":"uint256","name":"","type":"uint256"}],"stateMutability":"view","type":"function"},{"inputs":[{"internalType":"uint256","name":"","type":"uint256"}],"name":"poolInfo","outputs":[{"internalType":"contract IBEP20","name":"lpToken","type":"address"},{"internalType":"uint256","name":"lastRewardBlock","type":"uint256"},{"internalType":"uint256","name":"accFAANGPerShare","type":"uint256"}],"stateMutability":"view","type":"function"},{"inputs":[],"name":"poolLength","outputs":[{"internalType":"uint256","name":"","type":"uint256"}],"stateMutability":"view","type":"function"},{"inputs":[],"name":"renounceOwnership","outputs":[],"stateMutability":"nonpayable","type":"function"},{"inputs":[{"internalType":"address","name":"newOwner","type":"address"}],"name":"transferOwnership","outputs":[],"stateMutability":"nonpayable","type":"function"},{"inputs":[{"internalType":"uint256","name":"_pid","type":"uint256"}],"name":"updatePool","outputs":[],"stateMutability":"nonpayable","type":"function"},{"inputs":[{"internalType":"uint256","name":"_newStartBlock","type":"uint256"}],"name":"updateStartBlock","outputs":[],"stateMutability":"nonpayable","type":"function"},{"inputs":[{"internalType":"uint256","name":"","type":"uint256"},{"internalType":"address","name":"","type":"address"}],"name":"userInfo","outputs":[{"internalType":"uint256","name":"amount","type":"uint256"},{"internalType":"uint256","name":"rewardDebt","type":"uint256"},{"internalType":"uint256","name":"rewardLockedUp","type":"uint256"}],"stateMutability":"view","type":"function"},{"inputs":[{"internalType":"uint256","name":"_pid","type":"uint256"},{"internalType":"uint256","name":"_amount","type":"uint256"}],"name":"withdraw","outputs":[],"stateMutability":"nonpayable","type":"function"}],"devdoc":{"kind":"dev","methods":{"owner()":{"details":"Returns the address of the current owner."},"renounceOwnership()":{"details":"Leaves the contract without owner. It will not be possible to call `onlyOwner` functions anymore. Can only be called by the current owner. NOTE: Renouncing ownership will leave the contract without an owner, thereby removing any functionality that is only available to the owner."},"transferOwnership(address)":{"details":"Transfers ownership of the contract to a new account (`newOwner`). Can only be called by the current owner."}},"version":1},"evm":{"assembly":"    /* \"FAANGOrchestrator.sol\":217:10365  contract FAANGOrchestrator is Ownable, ReentrancyGuard {... */\n  mstore(0x40, 0x80)\n    /* \"FAANGOrchestrator.sol\":1689:1696  1 ether */\n  0x0de0b6b3a7640000\n    /* \"FAANGOrchestrator.sol\":1658:1696  uint256 public FAANGPerBlock = 1 ether */\n  0x03\n  sstore\n    /* \"FAANGOrchestrator.sol\":2567:2808  constructor(... */\n  callvalue\n  dup1\n  iszero\n  tag_1\n  jumpi\n  0x00\n  dup1\n  revert\ntag_1:\n  pop\n  mload(0x40)\n  sub(codesize, bytecodeSize)\n  dup1\n  bytecodeSize\n  dup4\n  codecopy\n  dup2\n  dup2\n  add\n  0x40\n  mstore\n  0x40\n  dup2\n  lt\n  iszero\n  tag_2\n  jumpi\n  0x00\n  dup1\n  revert\ntag_2:\n  dup2\n  add\n  swap1\n  dup1\n  dup1\n  mload\n  swap1\n  0x20\n  add\n  swap1\n  swap3\n  swap2\n  swap1\n  dup1\n  mload\n  swap1\n  0x20\n  add\n  swap1\n  swap3\n  swap2\n  swap1\n  pop\n  pop\n  pop\n    /* \"Ownable.sol\":874:891  address msgSender */\n  0x00\n    /* \"Ownable.sol\":894:906  _msgSender() */\n  tag_9\n    /* \"Ownable.sol\":894:904  _msgSender */\n  shl(0x20, tag_10)\n    /* \"Ownable.sol\":894:906  _msgSender() */\n  0x20\n  shr\n  jump\t// in\ntag_9:\n    /* \"Ownable.sol\":874:906  address msgSender = _msgSender() */\n  swap1\n  pop\n    /* \"Ownable.sol\":925:934  msgSender */\n  dup1\n    /* \"Ownable.sol\":916:922  _owner */\n  0x00\n  dup1\n    /* \"Ownable.sol\":916:934  _owner = msgSender */\n  0x0100\n  exp\n  dup2\n  sload\n  dup2\n  0xffffffffffffffffffffffffffffffffffffffff\n  mul\n  not\n  and\n  swap1\n  dup4\n  0xffffffffffffffffffffffffffffffffffffffff\n  and\n  mul\n  or\n  swap1\n  sstore\n  pop\n    /* \"Ownable.sol\":982:991  msgSender */\n  dup1\n    /* \"Ownable.sol\":949:992  OwnershipTransferred(address(0), msgSender) */\n  0xffffffffffffffffffffffffffffffffffffffff\n  and\n    /* \"Ownable.sol\":978:979  0 */\n  0x00\n    /* \"Ownable.sol\":949:992  OwnershipTransferred(address(0), msgSender) */\n  0xffffffffffffffffffffffffffffffffffffffff\n  and\n  0x8be0079c531659141344cd1fd0a4f28419497f9722a3daafe3b4186f6b6457e0\n  mload(0x40)\n  mload(0x40)\n  dup1\n  swap2\n  sub\n  swap1\n  log3\n    /* \"Ownable.sol\":841:999  constructor() internal {... */\n  pop\n    /* \"ReentrancyGuard.sol\":1637:1638  1 */\n  0x01\n    /* \"ReentrancyGuard.sol\":1752:1759  _status */\n  dup1\n    /* \"ReentrancyGuard.sol\":1752:1774  _status = _NOT_ENTERED */\n  dup2\n  swap1\n  sstore\n  pop\n    /* \"FAANGOrchestrator.sol\":2666:2672  _FAANG */\n  dup2\n    /* \"FAANGOrchestrator.sol\":2658:2663  FAANG */\n  0x02\n  0x00\n    /* \"FAANGOrchestrator.sol\":2658:2672  FAANG = _FAANG */\n  0x0100\n  exp\n  dup2\n  sload\n  dup2\n  0xffffffffffffffffffffffffffffffffffffffff\n  mul\n  not\n  and\n  swap1\n  dup4\n  0xffffffffffffffffffffffffffffffffffffffff\n  and\n  mul\n  or\n  swap1\n  sstore\n  pop\n    /* \"FAANGOrchestrator.sol\":2695:2706  _startBlock */\n  dup1\n    /* \"FAANGOrchestrator.sol\":2682:2692  startBlock */\n  0x05\n    /* \"FAANGOrchestrator.sol\":2682:2706  startBlock = _startBlock */\n  dup2\n  swap1\n  sstore\n  pop\n    /* \"FAANGOrchestrator.sol\":2732:2755  _startBlock.add(864000) */\n  tag_13\n    /* \"FAANGOrchestrator.sol\":2748:2754  864000 */\n  0x0d2f00\n    /* \"FAANGOrchestrator.sol\":2732:2743  _startBlock */\n  dup3\n    /* \"FAANGOrchestrator.sol\":2732:2747  _startBlock.add */\n  or(tag_0_83, shl(0x20, tag_14))\n  swap1\n    /* \"FAANGOrchestrator.sol\":2732:2755  _startBlock.add(864000) */\n  swap2\n  swap1\n  0x20\n  shr\n  jump\t// in\ntag_13:\n    /* \"FAANGOrchestrator.sol\":2716:2729  inActiveBlock */\n  0x04\n    /* \"FAANGOrchestrator.sol\":2716:2755  inActiveBlock = _startBlock.add(864000) */\n  dup2\n  swap1\n  sstore\n  pop\n    /* \"FAANGOrchestrator.sol\":2567:2808  constructor(... */\n  pop\n  pop\n    /* \"FAANGOrchestrator.sol\":217:10365  contract FAANGOrchestrator is Ownable, ReentrancyGuard {... */\n  jump(tag_15)\n    /* \"Context.sol\":780:876  function _msgSender() internal view returns (address payable) {... */\ntag_10:\n    /* \"Context.sol\":825:840  address payable */\n  0x00\n    /* \"Context.sol\":859:869  msg.sender */\n  caller\n    /* \"Context.sol\":852:869  return msg.sender */\n  swap1\n  pop\n    /* \"Context.sol\":780:876  function _msgSender() internal view returns (address payable) {... */\n  swap1\n  jump\t// out\n    /* \"SafeMath.sol\":875:1051  function add(uint256 a, uint256 b) internal pure returns (uint256) {... */\ntag_14:\n    /* \"SafeMath.sol\":933:940  uint256 */\n  0x00\n    /* \"SafeMath.sol\":952:961  uint256 c */\n  dup1\n    /* \"SafeMath.sol\":968:969  b */\n  dup3\n    /* \"SafeMath.sol\":964:965  a */\n  dup5\n    /* \"SafeMath.sol\":964:969  a + b */\n  add\n    /* \"SafeMath.sol\":952:969  uint256 c = a + b */\n  swap1\n  pop\n    /* \"SafeMath.sol\":992:993  a */\n  dup4\n    /* \"SafeMath.sol\":987:988  c */\n  dup2\n    /* \"SafeMath.sol\":987:993  c >= a */\n  lt\n  iszero\n    /* \"SafeMath.sol\":979:1025  require(c >= a, 'SafeMath: addition overflow') */\n  tag_18\n  jumpi\n  mload(0x40)\n  0x08c379a000000000000000000000000000000000000000000000000000000000\n  dup2\n  mstore\n  0x04\n  add\n  dup1\n  dup1\n  0x20\n  add\n  dup3\n  dup2\n  sub\n  dup3\n  mstore\n  0x1b\n  dup2\n  mstore\n  0x20\n  add\n  dup1\n  0x536166654d6174683a206164646974696f6e206f766572666c6f770000000000\n  dup2\n  mstore\n  pop\n  0x20\n  add\n  swap2\n  pop\n  pop\n  mload(0x40)\n  dup1\n  swap2\n  sub\n  swap1\n  revert\ntag_18:\n    /* \"SafeMath.sol\":1043:1044  c */\n  dup1\n    /* \"SafeMath.sol\":1036:1044  return c */\n  swap2\n  pop\n  pop\n    /* \"SafeMath.sol\":875:1051  function add(uint256 a, uint256 b) internal pure returns (uint256) {... */\n  swap3\n  swap2\n  pop\n  pop\n  jump\t// out\n    /* \"FAANGOrchestrator.sol\":217:10365  contract FAANGOrchestrator is Ownable, ReentrancyGuard {... */\ntag_15:\n  dataSize(sub_0)\n  dup1\n  dataOffset(sub_0)\n  0x00\n  codecopy\n  0x00\n  return\nstop\n\nsub_0: assembly {\n        /* \"FAANGOrchestrator.sol\":217:10365  contract FAANGOrchestrator is Ownable, ReentrancyGuard {... */\n      mstore(0x40, 0x80)\n      callvalue\n      dup1\n      iszero\n      tag_1\n      jumpi\n      0x00\n      dup1\n      revert\n    tag_1:\n      pop\n      jumpi(tag_2, lt(calldatasize, 0x04))\n      shr(0xe0, calldataload(0x00))\n      dup1\n      0x715018a6\n      gt\n      tag_24\n      jumpi\n      dup1\n      0x9bf62f7e\n      gt\n      tag_25\n      jumpi\n      dup1\n      0x9bf62f7e\n      eq\n      tag_18\n      jumpi\n      dup1\n      0xc100710d\n      eq\n      tag_19\n      jumpi\n      dup1\n      0xcbd258b5\n      eq\n      tag_20\n      jumpi\n      dup1\n      0xe2bbb158\n      eq\n      tag_21\n      jumpi\n      dup1\n      0xf2fde38b\n      eq\n      tag_22\n      jumpi\n      dup1\n      0xfac2b9ba\n      eq\n      tag_23\n      jumpi\n      jump(tag_2)\n    tag_25:\n      dup1\n      0x715018a6\n      eq\n      tag_13\n      jumpi\n      dup1\n      0x71811c3f\n      eq\n      tag_14\n      jumpi\n      dup1\n      0x8da5cb5b\n      eq\n      tag_15\n      jumpi\n      dup1\n      0x8dbb1e3a\n      eq\n      tag_16\n      jumpi\n      dup1\n      0x93f1a40b\n      eq\n      tag_17\n      jumpi\n      jump(tag_2)\n    tag_24:\n      dup1\n      0x51eb05a6\n      gt\n      tag_26\n      jumpi\n      dup1\n      0x51eb05a6\n      eq\n      tag_8\n      jumpi\n      dup1\n      0x5312ea8e\n      eq\n      tag_9\n      jumpi\n      dup1\n      0x630b5ba1\n      eq\n      tag_10\n      jumpi\n      dup1\n      0x6621d3ba\n      eq\n      tag_11\n      jumpi\n      dup1\n      0x6e983466\n      eq\n      tag_12\n      jumpi\n      jump(tag_2)\n    tag_26:\n      dup1\n      0x081e3eda\n      eq\n      tag_3\n      jumpi\n      dup1\n      0x1526fe27\n      eq\n      tag_4\n      jumpi\n      dup1\n      0x190f39f0\n      eq\n      tag_5\n      jumpi\n      dup1\n      0x267c3338\n      eq\n      tag_6\n      jumpi\n      dup1\n      0x441a3e70\n      eq\n      tag_7\n      jumpi\n    tag_2:\n      0x00\n      dup1\n      revert\n        /* \"FAANGOrchestrator.sol\":2848:2941  function poolLength() external view returns (uint256) {... */\n    tag_3:\n      tag_27\n      tag_28\n      jump\t// in\n    tag_27:\n      mload(0x40)\n      dup1\n      dup3\n      dup2\n      mstore\n      0x20\n      add\n      swap2\n      pop\n      pop\n      mload(0x40)\n      dup1\n      swap2\n      sub\n      swap1\n      return\n        /* \"FAANGOrchestrator.sol\":1814:1840  PoolInfo[] public poolInfo */\n    tag_4:\n      tag_29\n      0x04\n      dup1\n      calldatasize\n      sub\n      0x20\n      dup2\n      lt\n      iszero\n      tag_30\n      jumpi\n      0x00\n      dup1\n      revert\n    tag_30:\n      dup2\n      add\n      swap1\n      dup1\n      dup1\n      calldataload\n      swap1\n      0x20\n      add\n      swap1\n      swap3\n      swap2\n      swap1\n      pop\n      pop\n      pop\n      tag_31\n      jump\t// in\n    tag_29:\n      mload(0x40)\n      dup1\n      dup5\n      0xffffffffffffffffffffffffffffffffffffffff\n      and\n      dup2\n      mstore\n      0x20\n      add\n      dup4\n      dup2\n      mstore\n      0x20\n      add\n      dup3\n      dup2\n      mstore\n      0x20\n      add\n      swap4\n      pop\n      pop\n      pop\n      pop\n      mload(0x40)\n      dup1\n      swap2\n      sub\n      swap1\n      return\n        /* \"FAANGOrchestrator.sol\":3250:3468  function getPoolIdForLpToken(IBEP20 _lpToken) external view returns (uint256) {... */\n    tag_5:\n      tag_32\n      0x04\n      dup1\n      calldatasize\n      sub\n      0x20\n      dup2\n      lt\n      iszero\n      tag_33\n      jumpi\n      0x00\n      dup1\n      revert\n    tag_33:\n      dup2\n      add\n      swap1\n      dup1\n      dup1\n      calldataload\n      0xffffffffffffffffffffffffffffffffffffffff\n      and\n      swap1\n      0x20\n      add\n      swap1\n      swap3\n      swap2\n      swap1\n      pop\n      pop\n      pop\n      tag_34\n      jump\t// in\n    tag_32:\n      mload(0x40)\n      dup1\n      dup3\n      dup2\n      mstore\n      0x20\n      add\n      swap2\n      pop\n      pop\n      mload(0x40)\n      dup1\n      swap2\n      sub\n      swap1\n      return\n        /* \"FAANGOrchestrator.sol\":1658:1696  uint256 public FAANGPerBlock = 1 ether */\n    tag_6:\n      tag_35\n      tag_36\n      jump\t// in\n    tag_35:\n      mload(0x40)\n      dup1\n      dup3\n      dup2\n      mstore\n      0x20\n      add\n      swap2\n      pop\n      pop\n      mload(0x40)\n      dup1\n      swap2\n      sub\n      swap1\n      return\n        /* \"FAANGOrchestrator.sol\":8014:8642  function withdraw(uint256 _pid, uint256 _amount) public nonReentrant {... */\n    tag_7:\n      tag_37\n      0x04\n      dup1\n      calldatasize\n      sub\n      0x40\n      dup2\n      lt\n      iszero\n      tag_38\n      jumpi\n      0x00\n      dup1\n      revert\n    tag_38:\n      dup2\n      add\n      swap1\n      dup1\n      dup1\n      calldataload\n      swap1\n      0x20\n      add\n      swap1\n      swap3\n      swap2\n      swap1\n      dup1\n      calldataload\n      swap1\n      0x20\n      add\n      swap1\n      swap3\n      swap2\n      swap1\n      pop\n      pop\n      pop\n      tag_39\n      jump\t// in\n    tag_37:\n      stop\n        /* \"FAANGOrchestrator.sol\":6038:7130  function updatePool(uint256 _pid) public {... */\n    tag_8:\n      tag_40\n      0x04\n      dup1\n      calldatasize\n      sub\n      0x20\n      dup2\n      lt\n      iszero\n      tag_41\n      jumpi\n      0x00\n      dup1\n      revert\n    tag_41:\n      dup2\n      add\n      swap1\n      dup1\n      dup1\n      calldataload\n      swap1\n      0x20\n      add\n      swap1\n      swap3\n      swap2\n      swap1\n      pop\n      pop\n      pop\n      tag_42\n      jump\t// in\n    tag_40:\n      stop\n        /* \"FAANGOrchestrator.sol\":9460:9824  function emergencyWithdraw(uint256 _pid) public nonReentrant {... */\n    tag_9:\n      tag_43\n      0x04\n      dup1\n      calldatasize\n      sub\n      0x20\n      dup2\n      lt\n      iszero\n      tag_44\n      jumpi\n      0x00\n      dup1\n      revert\n    tag_44:\n      dup2\n      add\n      swap1\n      dup1\n      dup1\n      calldataload\n      swap1\n      0x20\n      add\n      swap1\n      swap3\n      swap2\n      swap1\n      pop\n      pop\n      pop\n      tag_45\n      jump\t// in\n    tag_43:\n      stop\n        /* \"FAANGOrchestrator.sol\":5790:5965  function massUpdatePools() public {... */\n    tag_10:\n      tag_46\n      tag_47\n      jump\t// in\n    tag_46:\n      stop\n        /* \"FAANGOrchestrator.sol\":1589:1612  FAANGToken public FAANG */\n    tag_11:\n      tag_48\n      tag_49\n      jump\t// in\n    tag_48:\n      mload(0x40)\n      dup1\n      dup3\n      0xffffffffffffffffffffffffffffffffffffffff\n      and\n      dup2\n      mstore\n      0x20\n      add\n      swap2\n      pop\n      pop\n      mload(0x40)\n      dup1\n      swap2\n      sub\n      swap1\n      return\n        /* \"FAANGOrchestrator.sol\":3725:4245  function add(... */\n    tag_12:\n      tag_50\n      0x04\n      dup1\n      calldatasize\n      sub\n      0x40\n      dup2\n      lt\n      iszero\n      tag_51\n      jumpi\n      0x00\n      dup1\n      revert\n    tag_51:\n      dup2\n      add\n      swap1\n      dup1\n      dup1\n      calldataload\n      0xffffffffffffffffffffffffffffffffffffffff\n      and\n      swap1\n      0x20\n      add\n      swap1\n      swap3\n      swap2\n      swap1\n      dup1\n      calldataload\n      iszero\n      iszero\n      swap1\n      0x20\n      add\n      swap1\n      swap3\n      swap2\n      swap1\n      pop\n      pop\n      pop\n      tag_52\n      jump\t// in\n    tag_50:\n      stop\n        /* \"Ownable.sol\":1698:1835  function renounceOwnership() public onlyOwner {... */\n    tag_13:\n      tag_53\n      tag_54\n      jump\t// in\n    tag_53:\n      stop\n        /* \"FAANGOrchestrator.sol\":7136:7245  function canClaimFAANGRewards() public view returns (bool) {... */\n    tag_14:\n      tag_55\n      tag_56\n      jump\t// in\n    tag_55:\n      mload(0x40)\n      dup1\n      dup3\n      iszero\n      iszero\n      dup2\n      mstore\n      0x20\n      add\n      swap2\n      pop\n      pop\n      mload(0x40)\n      dup1\n      swap2\n      sub\n      swap1\n      return\n        /* \"Ownable.sol\":1075:1152  function owner() public view returns (address) {... */\n    tag_15:\n      tag_57\n      tag_58\n      jump\t// in\n    tag_57:\n      mload(0x40)\n      dup1\n      dup3\n      0xffffffffffffffffffffffffffffffffffffffff\n      and\n      dup2\n      mstore\n      0x20\n      add\n      swap2\n      pop\n      pop\n      mload(0x40)\n      dup1\n      swap2\n      sub\n      swap1\n      return\n        /* \"FAANGOrchestrator.sol\":4318:4437  function getMultiplier(uint256 _from, uint256 _to) public pure returns (uint256) {... */\n    tag_16:\n      tag_59\n      0x04\n      dup1\n      calldatasize\n      sub\n      0x40\n      dup2\n      lt\n      iszero\n      tag_60\n      jumpi\n      0x00\n      dup1\n      revert\n    tag_60:\n      dup2\n      add\n      swap1\n      dup1\n      dup1\n      calldataload\n      swap1\n      0x20\n      add\n      swap1\n      swap3\n      swap2\n      swap1\n      dup1\n      calldataload\n      swap1\n      0x20\n      add\n      swap1\n      swap3\n      swap2\n      swap1\n      pop\n      pop\n      pop\n      tag_61\n      jump\t// in\n    tag_59:\n      mload(0x40)\n      dup1\n      dup3\n      dup2\n      mstore\n      0x20\n      add\n      swap2\n      pop\n      pop\n      mload(0x40)\n      dup1\n      swap2\n      sub\n      swap1\n      return\n        /* \"FAANGOrchestrator.sol\":1894:1958  mapping(uint256 => mapping(address => UserInfo)) public userInfo */\n    tag_17:\n      tag_62\n      0x04\n      dup1\n      calldatasize\n      sub\n      0x40\n      dup2\n      lt\n      iszero\n      tag_63\n      jumpi\n      0x00\n      dup1\n      revert\n    tag_63:\n      dup2\n      add\n      swap1\n      dup1\n      dup1\n      calldataload\n      swap1\n      0x20\n      add\n      swap1\n      swap3\n      swap2\n      swap1\n      dup1\n      calldataload\n      0xffffffffffffffffffffffffffffffffffffffff\n      and\n      swap1\n      0x20\n      add\n      swap1\n      swap3\n      swap2\n      swap1\n      pop\n      pop\n      pop\n      tag_64\n      jump\t// in\n    tag_62:\n      mload(0x40)\n      dup1\n      dup5\n      dup2\n      mstore\n      0x20\n      add\n      dup4\n      dup2\n      mstore\n      0x20\n      add\n      dup3\n      dup2\n      mstore\n      0x20\n      add\n      swap4\n      pop\n      pop\n      pop\n      pop\n      mload(0x40)\n      dup1\n      swap2\n      sub\n      swap1\n      return\n        /* \"FAANGOrchestrator.sol\":2158:2210  mapping(IBEP20 => uint256) public poolIdForLpAddress */\n    tag_18:\n      tag_65\n      0x04\n      dup1\n      calldatasize\n      sub\n      0x20\n      dup2\n      lt\n      iszero\n      tag_66\n      jumpi\n      0x00\n      dup1\n      revert\n    tag_66:\n      dup2\n      add\n      swap1\n      dup1\n      dup1\n      calldataload\n      0xffffffffffffffffffffffffffffffffffffffff\n      and\n      swap1\n      0x20\n      add\n      swap1\n      swap3\n      swap2\n      swap1\n      pop\n      pop\n      pop\n      tag_67\n      jump\t// in\n    tag_65:\n      mload(0x40)\n      dup1\n      dup3\n      dup2\n      mstore\n      0x20\n      add\n      swap2\n      pop\n      pop\n      mload(0x40)\n      dup1\n      swap2\n      sub\n      swap1\n      return\n        /* \"FAANGOrchestrator.sol\":4670:5710  function pendingFAANG(uint256 _pid, address _user) external view returns (uint256) {... */\n    tag_19:\n      tag_68\n      0x04\n      dup1\n      calldatasize\n      sub\n      0x40\n      dup2\n      lt\n      iszero\n      tag_69\n      jumpi\n      0x00\n      dup1\n      revert\n    tag_69:\n      dup2\n      add\n      swap1\n      dup1\n      dup1\n      calldataload\n      swap1\n      0x20\n      add\n      swap1\n      swap3\n      swap2\n      swap1\n      dup1\n      calldataload\n      0xffffffffffffffffffffffffffffffffffffffff\n      and\n      swap1\n      0x20\n      add\n      swap1\n      swap3\n      swap2\n      swap1\n      pop\n      pop\n      pop\n      tag_70\n      jump\t// in\n    tag_68:\n      mload(0x40)\n      dup1\n      dup3\n      dup2\n      mstore\n      0x20\n      add\n      swap2\n      pop\n      pop\n      mload(0x40)\n      dup1\n      swap2\n      sub\n      swap1\n      return\n        /* \"FAANGOrchestrator.sol\":2078:2122  mapping(IBEP20 => bool) public poolExistence */\n    tag_20:\n      tag_71\n      0x04\n      dup1\n      calldatasize\n      sub\n      0x20\n      dup2\n      lt\n      iszero\n      tag_72\n      jumpi\n      0x00\n      dup1\n      revert\n    tag_72:\n      dup2\n      add\n      swap1\n      dup1\n      dup1\n      calldataload\n      0xffffffffffffffffffffffffffffffffffffffff\n      and\n      swap1\n      0x20\n      add\n      swap1\n      swap3\n      swap2\n      swap1\n      pop\n      pop\n      pop\n      tag_73\n      jump\t// in\n    tag_71:\n      mload(0x40)\n      dup1\n      dup3\n      iszero\n      iszero\n      dup2\n      mstore\n      0x20\n      add\n      swap2\n      pop\n      pop\n      mload(0x40)\n      dup1\n      swap2\n      sub\n      swap1\n      return\n        /* \"FAANGOrchestrator.sol\":7251:7965  function deposit(uint256 _pid, uint256 _amount) public nonReentrant {... */\n    tag_21:\n      tag_74\n      0x04\n      dup1\n      calldatasize\n      sub\n      0x40\n      dup2\n      lt\n      iszero\n      tag_75\n      jumpi\n      0x00\n      dup1\n      revert\n    tag_75:\n      dup2\n      add\n      swap1\n      dup1\n      dup1\n      calldataload\n      swap1\n      0x20\n      add\n      swap1\n      swap3\n      swap2\n      swap1\n      dup1\n      calldataload\n      swap1\n      0x20\n      add\n      swap1\n      swap3\n      swap2\n      swap1\n      pop\n      pop\n      pop\n      tag_76\n      jump\t// in\n    tag_74:\n      stop\n        /* \"Ownable.sol\":1984:2091  function transferOwnership(address newOwner) public onlyOwner {... */\n    tag_22:\n      tag_77\n      0x04\n      dup1\n      calldatasize\n      sub\n      0x20\n      dup2\n      lt\n      iszero\n      tag_78\n      jumpi\n      0x00\n      dup1\n      revert\n    tag_78:\n      dup2\n      add\n      swap1\n      dup1\n      dup1\n      calldataload\n      0xffffffffffffffffffffffffffffffffffffffff\n      and\n      swap1\n      0x20\n      add\n      swap1\n      swap3\n      swap2\n      swap1\n      pop\n      pop\n      pop\n      tag_79\n      jump\t// in\n    tag_77:\n      stop\n        /* \"FAANGOrchestrator.sol\":2947:3244  function updateStartBlock(uint256 _newStartBlock) public onlyOwner {... */\n    tag_23:\n      tag_80\n      0x04\n      dup1\n      calldatasize\n      sub\n      0x20\n      dup2\n      lt\n      iszero\n      tag_81\n      jumpi\n      0x00\n      dup1\n      revert\n    tag_81:\n      dup2\n      add\n      swap1\n      dup1\n      dup1\n      calldataload\n      swap1\n      0x20\n      add\n      swap1\n      swap3\n      swap2\n      swap1\n      pop\n      pop\n      pop\n      tag_82\n      jump\t// in\n    tag_80:\n      stop\n        /* \"FAANGOrchestrator.sol\":2848:2941  function poolLength() external view returns (uint256) {... */\n    tag_28:\n        /* \"FAANGOrchestrator.sol\":2893:2900  uint256 */\n      0x00\n        /* \"FAANGOrchestrator.sol\":2919:2927  poolInfo */\n      0x06\n        /* \"FAANGOrchestrator.sol\":2919:2934  poolInfo.length */\n      dup1\n      sload\n      swap1\n      pop\n        /* \"FAANGOrchestrator.sol\":2912:2934  return poolInfo.length */\n      swap1\n      pop\n        /* \"FAANGOrchestrator.sol\":2848:2941  function poolLength() external view returns (uint256) {... */\n      swap1\n      jump\t// out\n        /* \"FAANGOrchestrator.sol\":1814:1840  PoolInfo[] public poolInfo */\n    tag_31:\n      0x06\n      dup2\n      dup2\n      sload\n      dup2\n      lt\n      tag_85\n      jumpi\n      invalid\n    tag_85:\n      swap1\n      0x00\n      mstore\n      keccak256(0x00, 0x20)\n      swap1\n      0x03\n      mul\n      add\n      0x00\n      swap2\n      pop\n      swap1\n      pop\n      dup1\n      0x00\n      add\n      0x00\n      swap1\n      sload\n      swap1\n      0x0100\n      exp\n      swap1\n      div\n      0xffffffffffffffffffffffffffffffffffffffff\n      and\n      swap1\n      dup1\n      0x01\n      add\n      sload\n      swap1\n      dup1\n      0x02\n      add\n      sload\n      swap1\n      pop\n      dup4\n      jump\t// out\n        /* \"FAANGOrchestrator.sol\":3250:3468  function getPoolIdForLpToken(IBEP20 _lpToken) external view returns (uint256) {... */\n    tag_34:\n        /* \"FAANGOrchestrator.sol\":3319:3326  uint256 */\n      0x00\n        /* \"FAANGOrchestrator.sol\":3373:3378  false */\n      dup1\n        /* \"FAANGOrchestrator.sol\":3346:3378  poolExistence[_lpToken] != false */\n      iszero\n      iszero\n        /* \"FAANGOrchestrator.sol\":3346:3359  poolExistence */\n      0x08\n        /* \"FAANGOrchestrator.sol\":3346:3369  poolExistence[_lpToken] */\n      0x00\n        /* \"FAANGOrchestrator.sol\":3360:3368  _lpToken */\n      dup5\n        /* \"FAANGOrchestrator.sol\":3346:3369  poolExistence[_lpToken] */\n      0xffffffffffffffffffffffffffffffffffffffff\n      and\n      0xffffffffffffffffffffffffffffffffffffffff\n      and\n      dup2\n      mstore\n      0x20\n      add\n      swap1\n      dup2\n      mstore\n      0x20\n      add\n      0x00\n      keccak256\n      0x00\n      swap1\n      sload\n      swap1\n      0x0100\n      exp\n      swap1\n      div\n      0xff\n      and\n        /* \"FAANGOrchestrator.sol\":3346:3378  poolExistence[_lpToken] != false */\n      iszero\n      iszero\n      eq\n      iszero\n        /* \"FAANGOrchestrator.sol\":3338:3416  require(poolExistence[_lpToken] != false, \"getPoolIdForLpToken: do not exist\") */\n      tag_88\n      jumpi\n      mload(0x40)\n      0x08c379a000000000000000000000000000000000000000000000000000000000\n      dup2\n      mstore\n      0x04\n      add\n      dup1\n      dup1\n      0x20\n      add\n      dup3\n      dup2\n      sub\n      dup3\n      mstore\n      0x21\n      dup2\n      mstore\n      0x20\n      add\n      dup1\n      data_bf35de78f3e15a98c58afdc189c393a6a76029783bd8ecfd3a8b87b4a628fd85\n      0x21\n      swap2\n      codecopy\n      0x40\n      add\n      swap2\n      pop\n      pop\n      mload(0x40)\n      dup1\n      swap2\n      sub\n      swap1\n      revert\n    tag_88:\n        /* \"FAANGOrchestrator.sol\":3433:3451  poolIdForLpAddress */\n      0x09\n        /* \"FAANGOrchestrator.sol\":3433:3461  poolIdForLpAddress[_lpToken] */\n      0x00\n        /* \"FAANGOrchestrator.sol\":3452:3460  _lpToken */\n      dup4\n        /* \"FAANGOrchestrator.sol\":3433:3461  poolIdForLpAddress[_lpToken] */\n      0xffffffffffffffffffffffffffffffffffffffff\n      and\n      0xffffffffffffffffffffffffffffffffffffffff\n      and\n      dup2\n      mstore\n      0x20\n      add\n      swap1\n      dup2\n      mstore\n      0x20\n      add\n      0x00\n      keccak256\n      sload\n        /* \"FAANGOrchestrator.sol\":3426:3461  return poolIdForLpAddress[_lpToken] */\n      swap1\n      pop\n        /* \"FAANGOrchestrator.sol\":3250:3468  function getPoolIdForLpToken(IBEP20 _lpToken) external view returns (uint256) {... */\n      swap2\n      swap1\n      pop\n      jump\t// out\n        /* \"FAANGOrchestrator.sol\":1658:1696  uint256 public FAANGPerBlock = 1 ether */\n    tag_36:\n      sload(0x03)\n      dup2\n      jump\t// out\n        /* \"FAANGOrchestrator.sol\":8014:8642  function withdraw(uint256 _pid, uint256 _amount) public nonReentrant {... */\n    tag_39:\n        /* \"ReentrancyGuard.sol\":1680:1681  2 */\n      0x02\n        /* \"ReentrancyGuard.sol\":2269:2276  _status */\n      sload(0x01)\n        /* \"ReentrancyGuard.sol\":2269:2288  _status != _ENTERED */\n      eq\n      iszero\n        /* \"ReentrancyGuard.sol\":2261:2324  require(_status != _ENTERED, \"ReentrancyGuard: reentrant call\") */\n      tag_90\n      jumpi\n      mload(0x40)\n      0x08c379a000000000000000000000000000000000000000000000000000000000\n      dup2\n      mstore\n      0x04\n      add\n      dup1\n      dup1\n      0x20\n      add\n      dup3\n      dup2\n      sub\n      dup3\n      mstore\n      0x1f\n      dup2\n      mstore\n      0x20\n      add\n      dup1\n      0x5265656e7472616e637947756172643a207265656e7472616e742063616c6c00\n      dup2\n      mstore\n      pop\n      0x20\n      add\n      swap2\n      pop\n      pop\n      mload(0x40)\n      dup1\n      swap2\n      sub\n      swap1\n      revert\n    tag_90:\n        /* \"ReentrancyGuard.sol\":1680:1681  2 */\n      0x02\n        /* \"ReentrancyGuard.sol\":2399:2406  _status */\n      0x01\n        /* \"ReentrancyGuard.sol\":2399:2417  _status = _ENTERED */\n      dup2\n      swap1\n      sstore\n      pop\n        /* \"FAANGOrchestrator.sol\":8093:8114  PoolInfo storage pool */\n      0x00\n        /* \"FAANGOrchestrator.sol\":8117:8125  poolInfo */\n      0x06\n        /* \"FAANGOrchestrator.sol\":8126:8130  _pid */\n      dup4\n        /* \"FAANGOrchestrator.sol\":8117:8131  poolInfo[_pid] */\n      dup2\n      sload\n      dup2\n      lt\n      tag_92\n      jumpi\n      invalid\n    tag_92:\n      swap1\n      0x00\n      mstore\n      keccak256(0x00, 0x20)\n      swap1\n      0x03\n      mul\n      add\n        /* \"FAANGOrchestrator.sol\":8093:8131  PoolInfo storage pool = poolInfo[_pid] */\n      swap1\n      pop\n        /* \"FAANGOrchestrator.sol\":8141:8162  UserInfo storage user */\n      0x00\n        /* \"FAANGOrchestrator.sol\":8165:8173  userInfo */\n      0x07\n        /* \"FAANGOrchestrator.sol\":8165:8179  userInfo[_pid] */\n      0x00\n        /* \"FAANGOrchestrator.sol\":8174:8178  _pid */\n      dup6\n        /* \"FAANGOrchestrator.sol\":8165:8179  userInfo[_pid] */\n      dup2\n      mstore\n      0x20\n      add\n      swap1\n      dup2\n      mstore\n      0x20\n      add\n      0x00\n      keccak256\n        /* \"FAANGOrchestrator.sol\":8165:8191  userInfo[_pid][msg.sender] */\n      0x00\n        /* \"FAANGOrchestrator.sol\":8180:8190  msg.sender */\n      caller\n        /* \"FAANGOrchestrator.sol\":8165:8191  userInfo[_pid][msg.sender] */\n      0xffffffffffffffffffffffffffffffffffffffff\n      and\n      0xffffffffffffffffffffffffffffffffffffffff\n      and\n      dup2\n      mstore\n      0x20\n      add\n      swap1\n      dup2\n      mstore\n      0x20\n      add\n      0x00\n      keccak256\n        /* \"FAANGOrchestrator.sol\":8141:8191  UserInfo storage user = userInfo[_pid][msg.sender] */\n      swap1\n      pop\n        /* \"FAANGOrchestrator.sol\":8225:8232  _amount */\n      dup3\n        /* \"FAANGOrchestrator.sol\":8210:8214  user */\n      dup2\n        /* \"FAANGOrchestrator.sol\":8210:8221  user.amount */\n      0x00\n      add\n      sload\n        /* \"FAANGOrchestrator.sol\":8210:8232  user.amount >= _amount */\n      lt\n      iszero\n        /* \"FAANGOrchestrator.sol\":8202:8255  require(user.amount >= _amount, \"withdraw: not good\") */\n      tag_94\n      jumpi\n      mload(0x40)\n      0x08c379a000000000000000000000000000000000000000000000000000000000\n      dup2\n      mstore\n      0x04\n      add\n      dup1\n      dup1\n      0x20\n      add\n      dup3\n      dup2\n      sub\n      dup3\n      mstore\n      0x12\n      dup2\n      mstore\n      0x20\n      add\n      dup1\n      0x77697468647261773a206e6f7420676f6f640000000000000000000000000000\n      dup2\n      mstore\n      pop\n      0x20\n      add\n      swap2\n      pop\n      pop\n      mload(0x40)\n      dup1\n      swap2\n      sub\n      swap1\n      revert\n    tag_94:\n        /* \"FAANGOrchestrator.sol\":8266:8282  updatePool(_pid) */\n      tag_95\n        /* \"FAANGOrchestrator.sol\":8277:8281  _pid */\n      dup5\n        /* \"FAANGOrchestrator.sol\":8266:8276  updatePool */\n      tag_42\n        /* \"FAANGOrchestrator.sol\":8266:8282  updatePool(_pid) */\n      jump\t// in\n    tag_95:\n        /* \"FAANGOrchestrator.sol\":8293:8322  payOrLockupPendingFAANG(_pid) */\n      tag_96\n        /* \"FAANGOrchestrator.sol\":8317:8321  _pid */\n      dup5\n        /* \"FAANGOrchestrator.sol\":8293:8316  payOrLockupPendingFAANG */\n      tag_97\n        /* \"FAANGOrchestrator.sol\":8293:8322  payOrLockupPendingFAANG(_pid) */\n      jump\t// in\n    tag_96:\n        /* \"FAANGOrchestrator.sol\":8347:8348  0 */\n      0x00\n        /* \"FAANGOrchestrator.sol\":8337:8344  _amount */\n      dup4\n        /* \"FAANGOrchestrator.sol\":8337:8348  _amount > 0 */\n      gt\n        /* \"FAANGOrchestrator.sol\":8333:8482  if (_amount > 0) {... */\n      iszero\n      tag_98\n      jumpi\n        /* \"FAANGOrchestrator.sol\":8378:8402  user.amount.sub(_amount) */\n      tag_99\n        /* \"FAANGOrchestrator.sol\":8394:8401  _amount */\n      dup4\n        /* \"FAANGOrchestrator.sol\":8378:8382  user */\n      dup3\n        /* \"FAANGOrchestrator.sol\":8378:8389  user.amount */\n      0x00\n      add\n      sload\n        /* \"FAANGOrchestrator.sol\":8378:8393  user.amount.sub */\n      tag_100\n      swap1\n        /* \"FAANGOrchestrator.sol\":8378:8402  user.amount.sub(_amount) */\n      swap2\n      swap1\n      0xffffffff\n      and\n      jump\t// in\n    tag_99:\n        /* \"FAANGOrchestrator.sol\":8364:8368  user */\n      dup2\n        /* \"FAANGOrchestrator.sol\":8364:8375  user.amount */\n      0x00\n      add\n        /* \"FAANGOrchestrator.sol\":8364:8402  user.amount = user.amount.sub(_amount) */\n      dup2\n      swap1\n      sstore\n      pop\n        /* \"FAANGOrchestrator.sol\":8416:8471  pool.lpToken.safeTransfer(address(msg.sender), _amount) */\n      tag_101\n        /* \"FAANGOrchestrator.sol\":8450:8460  msg.sender */\n      caller\n        /* \"FAANGOrchestrator.sol\":8463:8470  _amount */\n      dup5\n        /* \"FAANGOrchestrator.sol\":8416:8420  pool */\n      dup5\n        /* \"FAANGOrchestrator.sol\":8416:8428  pool.lpToken */\n      0x00\n      add\n      0x00\n      swap1\n      sload\n      swap1\n      0x0100\n      exp\n      swap1\n      div\n      0xffffffffffffffffffffffffffffffffffffffff\n      and\n        /* \"FAANGOrchestrator.sol\":8416:8441  pool.lpToken.safeTransfer */\n      0xffffffffffffffffffffffffffffffffffffffff\n      and\n      tag_102\n      swap1\n        /* \"FAANGOrchestrator.sol\":8416:8471  pool.lpToken.safeTransfer(address(msg.sender), _amount) */\n      swap3\n      swap2\n      swap1\n      0xffffffff\n      and\n      jump\t// in\n    tag_101:\n        /* \"FAANGOrchestrator.sol\":8333:8482  if (_amount > 0) {... */\n    tag_98:\n        /* \"FAANGOrchestrator.sol\":8510:8584  user.amount... */\n      tag_103\n        /* \"FAANGOrchestrator.sol\":8579:8583  1e12 */\n      0xe8d4a51000\n        /* \"FAANGOrchestrator.sol\":8510:8561  user.amount... */\n      tag_104\n        /* \"FAANGOrchestrator.sol\":8539:8543  pool */\n      dup5\n        /* \"FAANGOrchestrator.sol\":8539:8560  pool.accFAANGPerShare */\n      0x02\n      add\n      sload\n        /* \"FAANGOrchestrator.sol\":8510:8514  user */\n      dup5\n        /* \"FAANGOrchestrator.sol\":8510:8521  user.amount */\n      0x00\n      add\n      sload\n        /* \"FAANGOrchestrator.sol\":8510:8538  user.amount... */\n      tag_105\n      swap1\n        /* \"FAANGOrchestrator.sol\":8510:8561  user.amount... */\n      swap2\n      swap1\n      0xffffffff\n      and\n      jump\t// in\n    tag_104:\n        /* \"FAANGOrchestrator.sol\":8510:8578  user.amount... */\n      tag_106\n      swap1\n        /* \"FAANGOrchestrator.sol\":8510:8584  user.amount... */\n      swap2\n      swap1\n      0xffffffff\n      and\n      jump\t// in\n    tag_103:\n        /* \"FAANGOrchestrator.sol\":8492:8496  user */\n      dup2\n        /* \"FAANGOrchestrator.sol\":8492:8507  user.rewardDebt */\n      0x01\n      add\n        /* \"FAANGOrchestrator.sol\":8492:8584  user.rewardDebt = user.amount... */\n      dup2\n      swap1\n      sstore\n      pop\n        /* \"FAANGOrchestrator.sol\":8621:8625  _pid */\n      dup4\n        /* \"FAANGOrchestrator.sol\":8609:8619  msg.sender */\n      caller\n        /* \"FAANGOrchestrator.sol\":8600:8635  Withdraw(msg.sender, _pid, _amount) */\n      0xffffffffffffffffffffffffffffffffffffffff\n      and\n      0xf279e6a1f5e320cca91135676d9cb6e44ca8a08c0b88342bcdb1144f6511b568\n        /* \"FAANGOrchestrator.sol\":8627:8634  _amount */\n      dup6\n        /* \"FAANGOrchestrator.sol\":8600:8635  Withdraw(msg.sender, _pid, _amount) */\n      mload(0x40)\n      dup1\n      dup3\n      dup2\n      mstore\n      0x20\n      add\n      swap2\n      pop\n      pop\n      mload(0x40)\n      dup1\n      swap2\n      sub\n      swap1\n      log3\n        /* \"ReentrancyGuard.sol\":2428:2429  _ */\n      pop\n      pop\n        /* \"ReentrancyGuard.sol\":1637:1638  1 */\n      0x01\n        /* \"ReentrancyGuard.sol\":2572:2579  _status */\n      dup1\n        /* \"ReentrancyGuard.sol\":2572:2594  _status = _NOT_ENTERED */\n      dup2\n      swap1\n      sstore\n      pop\n        /* \"FAANGOrchestrator.sol\":8014:8642  function withdraw(uint256 _pid, uint256 _amount) public nonReentrant {... */\n      pop\n      pop\n      jump\t// out\n        /* \"FAANGOrchestrator.sol\":6038:7130  function updatePool(uint256 _pid) public {... */\n    tag_42:\n        /* \"FAANGOrchestrator.sol\":6089:6110  PoolInfo storage pool */\n      0x00\n        /* \"FAANGOrchestrator.sol\":6113:6121  poolInfo */\n      0x06\n        /* \"FAANGOrchestrator.sol\":6122:6126  _pid */\n      dup3\n        /* \"FAANGOrchestrator.sol\":6113:6127  poolInfo[_pid] */\n      dup2\n      sload\n      dup2\n      lt\n      tag_108\n      jumpi\n      invalid\n    tag_108:\n      swap1\n      0x00\n      mstore\n      keccak256(0x00, 0x20)\n      swap1\n      0x03\n      mul\n      add\n        /* \"FAANGOrchestrator.sol\":6089:6127  PoolInfo storage pool = poolInfo[_pid] */\n      swap1\n      pop\n        /* \"FAANGOrchestrator.sol\":6138:6169  uint256 blockToCalculateRewards */\n      0x00\n        /* \"FAANGOrchestrator.sol\":6172:6212  minCurrentBlockAndInactiveBlockIfExist() */\n      tag_110\n        /* \"FAANGOrchestrator.sol\":6172:6210  minCurrentBlockAndInactiveBlockIfExist */\n      tag_111\n        /* \"FAANGOrchestrator.sol\":6172:6212  minCurrentBlockAndInactiveBlockIfExist() */\n      jump\t// in\n    tag_110:\n        /* \"FAANGOrchestrator.sol\":6138:6212  uint256 blockToCalculateRewards = minCurrentBlockAndInactiveBlockIfExist() */\n      swap1\n      pop\n        /* \"FAANGOrchestrator.sol\":6254:6258  pool */\n      dup2\n        /* \"FAANGOrchestrator.sol\":6254:6274  pool.lastRewardBlock */\n      0x01\n      add\n      sload\n        /* \"FAANGOrchestrator.sol\":6227:6250  blockToCalculateRewards */\n      dup2\n        /* \"FAANGOrchestrator.sol\":6227:6274  blockToCalculateRewards <= pool.lastRewardBlock */\n      gt\n        /* \"FAANGOrchestrator.sol\":6223:6307  if (blockToCalculateRewards <= pool.lastRewardBlock) {... */\n      tag_112\n      jumpi\n        /* \"FAANGOrchestrator.sol\":6290:6297  return; */\n      pop\n      pop\n      jump(tag_107)\n        /* \"FAANGOrchestrator.sol\":6223:6307  if (blockToCalculateRewards <= pool.lastRewardBlock) {... */\n    tag_112:\n        /* \"FAANGOrchestrator.sol\":6317:6333  uint256 lpSupply */\n      0x00\n        /* \"FAANGOrchestrator.sol\":6336:6340  pool */\n      dup3\n        /* \"FAANGOrchestrator.sol\":6336:6348  pool.lpToken */\n      0x00\n      add\n      0x00\n      swap1\n      sload\n      swap1\n      0x0100\n      exp\n      swap1\n      div\n      0xffffffffffffffffffffffffffffffffffffffff\n      and\n        /* \"FAANGOrchestrator.sol\":6336:6358  pool.lpToken.balanceOf */\n      0xffffffffffffffffffffffffffffffffffffffff\n      and\n      0x70a08231\n        /* \"FAANGOrchestrator.sol\":6367:6371  this */\n      address\n        /* \"FAANGOrchestrator.sol\":6336:6373  pool.lpToken.balanceOf(address(this)) */\n      mload(0x40)\n      dup3\n      0xffffffff\n      and\n      0xe0\n      shl\n      dup2\n      mstore\n      0x04\n      add\n      dup1\n      dup3\n      0xffffffffffffffffffffffffffffffffffffffff\n      and\n      dup2\n      mstore\n      0x20\n      add\n      swap2\n      pop\n      pop\n      0x20\n      mload(0x40)\n      dup1\n      dup4\n      sub\n      dup2\n      dup7\n      dup1\n      extcodesize\n      iszero\n      dup1\n      iszero\n      tag_113\n      jumpi\n      0x00\n      dup1\n      revert\n    tag_113:\n      pop\n      gas\n      staticcall\n      iszero\n      dup1\n      iszero\n      tag_115\n      jumpi\n      returndatasize\n      0x00\n      dup1\n      returndatacopy\n      revert(0x00, returndatasize)\n    tag_115:\n      pop\n      pop\n      pop\n      pop\n      mload(0x40)\n      returndatasize\n      0x20\n      dup2\n      lt\n      iszero\n      tag_116\n      jumpi\n      0x00\n      dup1\n      revert\n    tag_116:\n      dup2\n      add\n      swap1\n      dup1\n      dup1\n      mload\n      swap1\n      0x20\n      add\n      swap1\n      swap3\n      swap2\n      swap1\n      pop\n      pop\n      pop\n        /* \"FAANGOrchestrator.sol\":6317:6373  uint256 lpSupply = pool.lpToken.balanceOf(address(this)) */\n      swap1\n      pop\n        /* \"FAANGOrchestrator.sol\":6488:6489  0 */\n      0x00\n        /* \"FAANGOrchestrator.sol\":6476:6484  lpSupply */\n      dup2\n        /* \"FAANGOrchestrator.sol\":6476:6489  lpSupply == 0 */\n      eq\n        /* \"FAANGOrchestrator.sol\":6472:6583  if (lpSupply == 0) {... */\n      iszero\n      tag_117\n      jumpi\n        /* \"FAANGOrchestrator.sol\":6528:6551  blockToCalculateRewards */\n      dup2\n        /* \"FAANGOrchestrator.sol\":6505:6509  pool */\n      dup4\n        /* \"FAANGOrchestrator.sol\":6505:6525  pool.lastRewardBlock */\n      0x01\n      add\n        /* \"FAANGOrchestrator.sol\":6505:6551  pool.lastRewardBlock = blockToCalculateRewards */\n      dup2\n      swap1\n      sstore\n      pop\n        /* \"FAANGOrchestrator.sol\":6566:6573  return; */\n      pop\n      pop\n      pop\n      jump(tag_107)\n        /* \"FAANGOrchestrator.sol\":6472:6583  if (lpSupply == 0) {... */\n    tag_117:\n        /* \"FAANGOrchestrator.sol\":6593:6611  uint256 multiplier */\n      0x00\n        /* \"FAANGOrchestrator.sol\":6614:6674  getMultiplier(pool.lastRewardBlock, blockToCalculateRewards) */\n      tag_118\n        /* \"FAANGOrchestrator.sol\":6628:6632  pool */\n      dup5\n        /* \"FAANGOrchestrator.sol\":6628:6648  pool.lastRewardBlock */\n      0x01\n      add\n      sload\n        /* \"FAANGOrchestrator.sol\":6650:6673  blockToCalculateRewards */\n      dup5\n        /* \"FAANGOrchestrator.sol\":6614:6627  getMultiplier */\n      tag_61\n        /* \"FAANGOrchestrator.sol\":6614:6674  getMultiplier(pool.lastRewardBlock, blockToCalculateRewards) */\n      jump\t// in\n    tag_118:\n        /* \"FAANGOrchestrator.sol\":6593:6674  uint256 multiplier = getMultiplier(pool.lastRewardBlock, blockToCalculateRewards) */\n      swap1\n      pop\n        /* \"FAANGOrchestrator.sol\":6745:6764  uint256 FAANGReward */\n      0x00\n        /* \"FAANGOrchestrator.sol\":6767:6796  multiplier.mul(FAANGPerBlock) */\n      tag_119\n        /* \"FAANGOrchestrator.sol\":6782:6795  FAANGPerBlock */\n      sload(0x03)\n        /* \"FAANGOrchestrator.sol\":6767:6777  multiplier */\n      dup4\n        /* \"FAANGOrchestrator.sol\":6767:6781  multiplier.mul */\n      tag_105\n      swap1\n        /* \"FAANGOrchestrator.sol\":6767:6796  multiplier.mul(FAANGPerBlock) */\n      swap2\n      swap1\n      0xffffffff\n      and\n      jump\t// in\n    tag_119:\n        /* \"FAANGOrchestrator.sol\":6745:6796  uint256 FAANGReward = multiplier.mul(FAANGPerBlock) */\n      swap1\n      pop\n        /* \"FAANGOrchestrator.sol\":6807:6812  FAANG */\n      0x02\n      0x00\n      swap1\n      sload\n      swap1\n      0x0100\n      exp\n      swap1\n      div\n      0xffffffffffffffffffffffffffffffffffffffff\n      and\n        /* \"FAANGOrchestrator.sol\":6807:6817  FAANG.mint */\n      0xffffffffffffffffffffffffffffffffffffffff\n      and\n      0x40c10f19\n        /* \"FAANGOrchestrator.sol\":6826:6830  this */\n      address\n        /* \"FAANGOrchestrator.sol\":6833:6844  FAANGReward */\n      dup4\n        /* \"FAANGOrchestrator.sol\":6807:6845  FAANG.mint(address(this), FAANGReward) */\n      mload(0x40)\n      dup4\n      0xffffffff\n      and\n      0xe0\n      shl\n      dup2\n      mstore\n      0x04\n      add\n      dup1\n      dup4\n      0xffffffffffffffffffffffffffffffffffffffff\n      and\n      dup2\n      mstore\n      0x20\n      add\n      dup3\n      dup2\n      mstore\n      0x20\n      add\n      swap3\n      pop\n      pop\n      pop\n      0x00\n      mload(0x40)\n      dup1\n      dup4\n      sub\n      dup2\n      0x00\n      dup8\n      dup1\n      extcodesize\n      iszero\n      dup1\n      iszero\n      tag_120\n      jumpi\n      0x00\n      dup1\n      revert\n    tag_120:\n      pop\n      gas\n      call\n      iszero\n      dup1\n      iszero\n      tag_122\n      jumpi\n      returndatasize\n      0x00\n      dup1\n      returndatacopy\n      revert(0x00, returndatasize)\n    tag_122:\n      pop\n      pop\n      pop\n      pop\n        /* \"FAANGOrchestrator.sol\":6927:7066  pool.accFAANGPerShare... */\n      tag_123\n        /* \"FAANGOrchestrator.sol\":6983:7052  FAANGReward... */\n      tag_124\n        /* \"FAANGOrchestrator.sol\":7043:7051  lpSupply */\n      dup5\n        /* \"FAANGOrchestrator.sol\":6983:7021  FAANGReward... */\n      tag_125\n        /* \"FAANGOrchestrator.sol\":7016:7020  1e12 */\n      0xe8d4a51000\n        /* \"FAANGOrchestrator.sol\":6983:6994  FAANGReward */\n      dup6\n        /* \"FAANGOrchestrator.sol\":6983:7015  FAANGReward... */\n      tag_105\n      swap1\n        /* \"FAANGOrchestrator.sol\":6983:7021  FAANGReward... */\n      swap2\n      swap1\n      0xffffffff\n      and\n      jump\t// in\n    tag_125:\n        /* \"FAANGOrchestrator.sol\":6983:7042  FAANGReward... */\n      tag_106\n      swap1\n        /* \"FAANGOrchestrator.sol\":6983:7052  FAANGReward... */\n      swap2\n      swap1\n      0xffffffff\n      and\n      jump\t// in\n    tag_124:\n        /* \"FAANGOrchestrator.sol\":6927:6931  pool */\n      dup7\n        /* \"FAANGOrchestrator.sol\":6927:6948  pool.accFAANGPerShare */\n      0x02\n      add\n      sload\n        /* \"FAANGOrchestrator.sol\":6927:6965  pool.accFAANGPerShare... */\n      tag_83\n      swap1\n        /* \"FAANGOrchestrator.sol\":6927:7066  pool.accFAANGPerShare... */\n      swap2\n      swap1\n      0xffffffff\n      and\n      jump\t// in\n    tag_123:\n        /* \"FAANGOrchestrator.sol\":6903:6907  pool */\n      dup6\n        /* \"FAANGOrchestrator.sol\":6903:6924  pool.accFAANGPerShare */\n      0x02\n      add\n        /* \"FAANGOrchestrator.sol\":6903:7066  pool.accFAANGPerShare = pool.accFAANGPerShare... */\n      dup2\n      swap1\n      sstore\n      pop\n        /* \"FAANGOrchestrator.sol\":7100:7123  blockToCalculateRewards */\n      dup4\n        /* \"FAANGOrchestrator.sol\":7077:7081  pool */\n      dup6\n        /* \"FAANGOrchestrator.sol\":7077:7097  pool.lastRewardBlock */\n      0x01\n      add\n        /* \"FAANGOrchestrator.sol\":7077:7123  pool.lastRewardBlock = blockToCalculateRewards */\n      dup2\n      swap1\n      sstore\n      pop\n        /* \"FAANGOrchestrator.sol\":6038:7130  function updatePool(uint256 _pid) public {... */\n      pop\n      pop\n      pop\n      pop\n      pop\n    tag_107:\n      pop\n      jump\t// out\n        /* \"FAANGOrchestrator.sol\":9460:9824  function emergencyWithdraw(uint256 _pid) public nonReentrant {... */\n    tag_45:\n        /* \"ReentrancyGuard.sol\":1680:1681  2 */\n      0x02\n        /* \"ReentrancyGuard.sol\":2269:2276  _status */\n      sload(0x01)\n        /* \"ReentrancyGuard.sol\":2269:2288  _status != _ENTERED */\n      eq\n      iszero\n        /* \"ReentrancyGuard.sol\":2261:2324  require(_status != _ENTERED, \"ReentrancyGuard: reentrant call\") */\n      tag_127\n      jumpi\n      mload(0x40)\n      0x08c379a000000000000000000000000000000000000000000000000000000000\n      dup2\n      mstore\n      0x04\n      add\n      dup1\n      dup1\n      0x20\n      add\n      dup3\n      dup2\n      sub\n      dup3\n      mstore\n      0x1f\n      dup2\n      mstore\n      0x20\n      add\n      dup1\n      0x5265656e7472616e637947756172643a207265656e7472616e742063616c6c00\n      dup2\n      mstore\n      pop\n      0x20\n      add\n      swap2\n      pop\n      pop\n      mload(0x40)\n      dup1\n      swap2\n      sub\n      swap1\n      revert\n    tag_127:\n        /* \"ReentrancyGuard.sol\":1680:1681  2 */\n      0x02\n        /* \"ReentrancyGuard.sol\":2399:2406  _status */\n      0x01\n        /* \"ReentrancyGuard.sol\":2399:2417  _status = _ENTERED */\n      dup2\n      swap1\n      sstore\n      pop\n        /* \"FAANGOrchestrator.sol\":9531:9552  PoolInfo storage pool */\n      0x00\n        /* \"FAANGOrchestrator.sol\":9555:9563  poolInfo */\n      0x06\n        /* \"FAANGOrchestrator.sol\":9564:9568  _pid */\n      dup3\n        /* \"FAANGOrchestrator.sol\":9555:9569  poolInfo[_pid] */\n      dup2\n      sload\n      dup2\n      lt\n      tag_129\n      jumpi\n      invalid\n    tag_129:\n      swap1\n      0x00\n      mstore\n      keccak256(0x00, 0x20)\n      swap1\n      0x03\n      mul\n      add\n        /* \"FAANGOrchestrator.sol\":9531:9569  PoolInfo storage pool = poolInfo[_pid] */\n      swap1\n      pop\n        /* \"FAANGOrchestrator.sol\":9579:9600  UserInfo storage user */\n      0x00\n        /* \"FAANGOrchestrator.sol\":9603:9611  userInfo */\n      0x07\n        /* \"FAANGOrchestrator.sol\":9603:9617  userInfo[_pid] */\n      0x00\n        /* \"FAANGOrchestrator.sol\":9612:9616  _pid */\n      dup5\n        /* \"FAANGOrchestrator.sol\":9603:9617  userInfo[_pid] */\n      dup2\n      mstore\n      0x20\n      add\n      swap1\n      dup2\n      mstore\n      0x20\n      add\n      0x00\n      keccak256\n        /* \"FAANGOrchestrator.sol\":9603:9629  userInfo[_pid][msg.sender] */\n      0x00\n        /* \"FAANGOrchestrator.sol\":9618:9628  msg.sender */\n      caller\n        /* \"FAANGOrchestrator.sol\":9603:9629  userInfo[_pid][msg.sender] */\n      0xffffffffffffffffffffffffffffffffffffffff\n      and\n      0xffffffffffffffffffffffffffffffffffffffff\n      and\n      dup2\n      mstore\n      0x20\n      add\n      swap1\n      dup2\n      mstore\n      0x20\n      add\n      0x00\n      keccak256\n        /* \"FAANGOrchestrator.sol\":9579:9629  UserInfo storage user = userInfo[_pid][msg.sender] */\n      swap1\n      pop\n        /* \"FAANGOrchestrator.sol\":9639:9698  pool.lpToken.safeTransfer(address(msg.sender), user.amount) */\n      tag_131\n        /* \"FAANGOrchestrator.sol\":9673:9683  msg.sender */\n      caller\n        /* \"FAANGOrchestrator.sol\":9686:9690  user */\n      dup3\n        /* \"FAANGOrchestrator.sol\":9686:9697  user.amount */\n      0x00\n      add\n      sload\n        /* \"FAANGOrchestrator.sol\":9639:9643  pool */\n      dup5\n        /* \"FAANGOrchestrator.sol\":9639:9651  pool.lpToken */\n      0x00\n      add\n      0x00\n      swap1\n      sload\n      swap1\n      0x0100\n      exp\n      swap1\n      div\n      0xffffffffffffffffffffffffffffffffffffffff\n      and\n        /* \"FAANGOrchestrator.sol\":9639:9664  pool.lpToken.safeTransfer */\n      0xffffffffffffffffffffffffffffffffffffffff\n      and\n      tag_102\n      swap1\n        /* \"FAANGOrchestrator.sol\":9639:9698  pool.lpToken.safeTransfer(address(msg.sender), user.amount) */\n      swap3\n      swap2\n      swap1\n      0xffffffff\n      and\n      jump\t// in\n    tag_131:\n        /* \"FAANGOrchestrator.sol\":9744:9748  _pid */\n      dup3\n        /* \"FAANGOrchestrator.sol\":9732:9742  msg.sender */\n      caller\n        /* \"FAANGOrchestrator.sol\":9714:9762  EmergencyWithdraw(msg.sender, _pid, user.amount) */\n      0xffffffffffffffffffffffffffffffffffffffff\n      and\n      0xbb757047c2b5f3974fe26b7c10f732e7bce710b0952a71082702781e62ae0595\n        /* \"FAANGOrchestrator.sol\":9750:9754  user */\n      dup4\n        /* \"FAANGOrchestrator.sol\":9750:9761  user.amount */\n      0x00\n      add\n      sload\n        /* \"FAANGOrchestrator.sol\":9714:9762  EmergencyWithdraw(msg.sender, _pid, user.amount) */\n      mload(0x40)\n      dup1\n      dup3\n      dup2\n      mstore\n      0x20\n      add\n      swap2\n      pop\n      pop\n      mload(0x40)\n      dup1\n      swap2\n      sub\n      swap1\n      log3\n        /* \"FAANGOrchestrator.sol\":9787:9788  0 */\n      0x00\n        /* \"FAANGOrchestrator.sol\":9773:9777  user */\n      dup2\n        /* \"FAANGOrchestrator.sol\":9773:9784  user.amount */\n      0x00\n      add\n        /* \"FAANGOrchestrator.sol\":9773:9788  user.amount = 0 */\n      dup2\n      swap1\n      sstore\n      pop\n        /* \"FAANGOrchestrator.sol\":9816:9817  0 */\n      0x00\n        /* \"FAANGOrchestrator.sol\":9798:9802  user */\n      dup2\n        /* \"FAANGOrchestrator.sol\":9798:9813  user.rewardDebt */\n      0x01\n      add\n        /* \"FAANGOrchestrator.sol\":9798:9817  user.rewardDebt = 0 */\n      dup2\n      swap1\n      sstore\n      pop\n        /* \"ReentrancyGuard.sol\":2428:2429  _ */\n      pop\n      pop\n        /* \"ReentrancyGuard.sol\":1637:1638  1 */\n      0x01\n        /* \"ReentrancyGuard.sol\":2572:2579  _status */\n      dup1\n        /* \"ReentrancyGuard.sol\":2572:2594  _status = _NOT_ENTERED */\n      dup2\n      swap1\n      sstore\n      pop\n        /* \"FAANGOrchestrator.sol\":9460:9824  function emergencyWithdraw(uint256 _pid) public nonReentrant {... */\n      pop\n      jump\t// out\n        /* \"FAANGOrchestrator.sol\":5790:5965  function massUpdatePools() public {... */\n    tag_47:\n        /* \"FAANGOrchestrator.sol\":5834:5848  uint256 length */\n      0x00\n        /* \"FAANGOrchestrator.sol\":5851:5859  poolInfo */\n      0x06\n        /* \"FAANGOrchestrator.sol\":5851:5866  poolInfo.length */\n      dup1\n      sload\n      swap1\n      pop\n        /* \"FAANGOrchestrator.sol\":5834:5866  uint256 length = poolInfo.length */\n      swap1\n      pop\n        /* \"FAANGOrchestrator.sol\":5881:5892  uint256 pid */\n      0x00\n        /* \"FAANGOrchestrator.sol\":5876:5959  for (uint256 pid = 0; pid < length; ++pid) {... */\n    tag_133:\n        /* \"FAANGOrchestrator.sol\":5904:5910  length */\n      dup2\n        /* \"FAANGOrchestrator.sol\":5898:5901  pid */\n      dup2\n        /* \"FAANGOrchestrator.sol\":5898:5910  pid < length */\n      lt\n        /* \"FAANGOrchestrator.sol\":5876:5959  for (uint256 pid = 0; pid < length; ++pid) {... */\n      iszero\n      tag_134\n      jumpi\n        /* \"FAANGOrchestrator.sol\":5933:5948  updatePool(pid) */\n      tag_136\n        /* \"FAANGOrchestrator.sol\":5944:5947  pid */\n      dup2\n        /* \"FAANGOrchestrator.sol\":5933:5943  updatePool */\n      tag_42\n        /* \"FAANGOrchestrator.sol\":5933:5948  updatePool(pid) */\n      jump\t// in\n    tag_136:\n        /* \"FAANGOrchestrator.sol\":5912:5917  ++pid */\n      dup1\n      0x01\n      add\n      swap1\n      pop\n        /* \"FAANGOrchestrator.sol\":5876:5959  for (uint256 pid = 0; pid < length; ++pid) {... */\n      jump(tag_133)\n    tag_134:\n      pop\n        /* \"FAANGOrchestrator.sol\":5790:5965  function massUpdatePools() public {... */\n      pop\n      jump\t// out\n        /* \"FAANGOrchestrator.sol\":1589:1612  FAANGToken public FAANG */\n    tag_49:\n      0x02\n      0x00\n      swap1\n      sload\n      swap1\n      0x0100\n      exp\n      swap1\n      div\n      0xffffffffffffffffffffffffffffffffffffffff\n      and\n      dup2\n      jump\t// out\n        /* \"FAANGOrchestrator.sol\":3725:4245  function add(... */\n    tag_52:\n        /* \"Ownable.sol\":1289:1301  _msgSender() */\n      tag_138\n        /* \"Ownable.sol\":1289:1299  _msgSender */\n      tag_139\n        /* \"Ownable.sol\":1289:1301  _msgSender() */\n      jump\t// in\n    tag_138:\n        /* \"Ownable.sol\":1279:1301  _owner == _msgSender() */\n      0xffffffffffffffffffffffffffffffffffffffff\n      and\n        /* \"Ownable.sol\":1279:1285  _owner */\n      0x00\n      dup1\n      sload\n      swap1\n      0x0100\n      exp\n      swap1\n      div\n      0xffffffffffffffffffffffffffffffffffffffff\n      and\n        /* \"Ownable.sol\":1279:1301  _owner == _msgSender() */\n      0xffffffffffffffffffffffffffffffffffffffff\n      and\n      eq\n        /* \"Ownable.sol\":1271:1338  require(_owner == _msgSender(), 'Ownable: caller is not the owner') */\n      tag_140\n      jumpi\n      mload(0x40)\n      0x08c379a000000000000000000000000000000000000000000000000000000000\n      dup2\n      mstore\n      0x04\n      add\n      dup1\n      dup1\n      0x20\n      add\n      dup3\n      dup2\n      sub\n      dup3\n      mstore\n      0x20\n      dup2\n      mstore\n      0x20\n      add\n      dup1\n      0x4f776e61626c653a2063616c6c6572206973206e6f7420746865206f776e6572\n      dup2\n      mstore\n      pop\n      0x20\n      add\n      swap2\n      pop\n      pop\n      mload(0x40)\n      dup1\n      swap2\n      sub\n      swap1\n      revert\n    tag_140:\n        /* \"FAANGOrchestrator.sol\":3826:3834  _lpToken */\n      dup2\n        /* \"FAANGOrchestrator.sol\":3600:3605  false */\n      0x00\n        /* \"FAANGOrchestrator.sol\":3573:3605  poolExistence[_lpToken] == false */\n      iszero\n      iszero\n        /* \"FAANGOrchestrator.sol\":3573:3586  poolExistence */\n      0x08\n        /* \"FAANGOrchestrator.sol\":3573:3596  poolExistence[_lpToken] */\n      0x00\n        /* \"FAANGOrchestrator.sol\":3587:3595  _lpToken */\n      dup4\n        /* \"FAANGOrchestrator.sol\":3573:3596  poolExistence[_lpToken] */\n      0xffffffffffffffffffffffffffffffffffffffff\n      and\n      0xffffffffffffffffffffffffffffffffffffffff\n      and\n      dup2\n      mstore\n      0x20\n      add\n      swap1\n      dup2\n      mstore\n      0x20\n      add\n      0x00\n      keccak256\n      0x00\n      swap1\n      sload\n      swap1\n      0x0100\n      exp\n      swap1\n      div\n      0xff\n      and\n        /* \"FAANGOrchestrator.sol\":3573:3605  poolExistence[_lpToken] == false */\n      iszero\n      iszero\n      eq\n        /* \"FAANGOrchestrator.sol\":3565:3635  require(poolExistence[_lpToken] == false, \"nonDuplicated: duplicated\") */\n      tag_142\n      jumpi\n      mload(0x40)\n      0x08c379a000000000000000000000000000000000000000000000000000000000\n      dup2\n      mstore\n      0x04\n      add\n      dup1\n      dup1\n      0x20\n      add\n      dup3\n      dup2\n      sub\n      dup3\n      mstore\n      0x19\n      dup2\n      mstore\n      0x20\n      add\n      dup1\n      0x6e6f6e4475706c6963617465643a206475706c69636174656400000000000000\n      dup2\n      mstore\n      pop\n      0x20\n      add\n      swap2\n      pop\n      pop\n      mload(0x40)\n      dup1\n      swap2\n      sub\n      swap1\n      revert\n    tag_142:\n        /* \"FAANGOrchestrator.sol\":3850:3861  _withUpdate */\n      dup2\n        /* \"FAANGOrchestrator.sol\":3846:3905  if (_withUpdate) {... */\n      iszero\n      tag_144\n      jumpi\n        /* \"FAANGOrchestrator.sol\":3877:3894  massUpdatePools() */\n      tag_145\n        /* \"FAANGOrchestrator.sol\":3877:3892  massUpdatePools */\n      tag_47\n        /* \"FAANGOrchestrator.sol\":3877:3894  massUpdatePools() */\n      jump\t// in\n    tag_145:\n        /* \"FAANGOrchestrator.sol\":3846:3905  if (_withUpdate) {... */\n    tag_144:\n        /* \"FAANGOrchestrator.sol\":3941:3945  true */\n      0x01\n        /* \"FAANGOrchestrator.sol\":3915:3928  poolExistence */\n      0x08\n        /* \"FAANGOrchestrator.sol\":3915:3938  poolExistence[_lpToken] */\n      0x00\n        /* \"FAANGOrchestrator.sol\":3929:3937  _lpToken */\n      dup6\n        /* \"FAANGOrchestrator.sol\":3915:3938  poolExistence[_lpToken] */\n      0xffffffffffffffffffffffffffffffffffffffff\n      and\n      0xffffffffffffffffffffffffffffffffffffffff\n      and\n      dup2\n      mstore\n      0x20\n      add\n      swap1\n      dup2\n      mstore\n      0x20\n      add\n      0x00\n      keccak256\n      0x00\n        /* \"FAANGOrchestrator.sol\":3915:3945  poolExistence[_lpToken] = true */\n      0x0100\n      exp\n      dup2\n      sload\n      dup2\n      0xff\n      mul\n      not\n      and\n      swap1\n      dup4\n      iszero\n      iszero\n      mul\n      or\n      swap1\n      sstore\n      pop\n        /* \"FAANGOrchestrator.sol\":3956:3964  poolInfo */\n      0x06\n        /* \"FAANGOrchestrator.sol\":3983:4167  PoolInfo({... */\n      mload(0x40)\n      dup1\n      0x60\n      add\n      0x40\n      mstore\n      dup1\n        /* \"FAANGOrchestrator.sol\":4019:4027  _lpToken */\n      dup6\n        /* \"FAANGOrchestrator.sol\":3983:4167  PoolInfo({... */\n      0xffffffffffffffffffffffffffffffffffffffff\n      and\n      dup2\n      mstore\n      0x20\n      add\n        /* \"FAANGOrchestrator.sol\":4077:4087  startBlock */\n      sload(0x05)\n        /* \"FAANGOrchestrator.sol\":4062:4074  block.number */\n      number\n        /* \"FAANGOrchestrator.sol\":4062:4087  block.number > startBlock */\n      gt\n        /* \"FAANGOrchestrator.sol\":4062:4115  block.number > startBlock ? block.number : startBlock */\n      tag_146\n      jumpi\n        /* \"FAANGOrchestrator.sol\":4105:4115  startBlock */\n      sload(0x05)\n        /* \"FAANGOrchestrator.sol\":4062:4115  block.number > startBlock ? block.number : startBlock */\n      jump(tag_147)\n    tag_146:\n        /* \"FAANGOrchestrator.sol\":4090:4102  block.number */\n      number\n        /* \"FAANGOrchestrator.sol\":4062:4115  block.number > startBlock ? block.number : startBlock */\n    tag_147:\n        /* \"FAANGOrchestrator.sol\":3983:4167  PoolInfo({... */\n      dup2\n      mstore\n      0x20\n      add\n        /* \"FAANGOrchestrator.sol\":4151:4152  0 */\n      0x00\n        /* \"FAANGOrchestrator.sol\":3983:4167  PoolInfo({... */\n      dup2\n      mstore\n      pop\n        /* \"FAANGOrchestrator.sol\":3956:4177  poolInfo.push(... */\n      swap1\n      dup1\n      0x01\n      dup2\n      sload\n      add\n      dup1\n      dup3\n      sstore\n      dup1\n      swap2\n      pop\n      pop\n      0x01\n      swap1\n      sub\n      swap1\n      0x00\n      mstore\n      keccak256(0x00, 0x20)\n      swap1\n      0x03\n      mul\n      add\n      0x00\n      swap1\n      swap2\n      swap1\n      swap2\n      swap1\n      swap2\n      pop\n      0x00\n      dup3\n      add\n      mload\n      dup2\n      0x00\n      add\n      exp(0x0100, 0x00)\n      dup2\n      sload\n      dup2\n      0xffffffffffffffffffffffffffffffffffffffff\n      mul\n      not\n      and\n      swap1\n      dup4\n      0xffffffffffffffffffffffffffffffffffffffff\n      and\n      mul\n      or\n      swap1\n      sstore\n      pop\n      0x20\n      dup3\n      add\n      mload\n      dup2\n      0x01\n      add\n      sstore\n      0x40\n      dup3\n      add\n      mload\n      dup2\n      0x02\n      add\n      sstore\n      pop\n      pop\n        /* \"FAANGOrchestrator.sol\":4237:4238  1 */\n      0x01\n        /* \"FAANGOrchestrator.sol\":4219:4227  poolInfo */\n      0x06\n        /* \"FAANGOrchestrator.sol\":4219:4234  poolInfo.length */\n      dup1\n      sload\n      swap1\n      pop\n        /* \"FAANGOrchestrator.sol\":4219:4238  poolInfo.length - 1 */\n      sub\n        /* \"FAANGOrchestrator.sol\":4188:4206  poolIdForLpAddress */\n      0x09\n        /* \"FAANGOrchestrator.sol\":4188:4216  poolIdForLpAddress[_lpToken] */\n      0x00\n        /* \"FAANGOrchestrator.sol\":4207:4215  _lpToken */\n      dup6\n        /* \"FAANGOrchestrator.sol\":4188:4216  poolIdForLpAddress[_lpToken] */\n      0xffffffffffffffffffffffffffffffffffffffff\n      and\n      0xffffffffffffffffffffffffffffffffffffffff\n      and\n      dup2\n      mstore\n      0x20\n      add\n      swap1\n      dup2\n      mstore\n      0x20\n      add\n      0x00\n      keccak256\n        /* \"FAANGOrchestrator.sol\":4188:4238  poolIdForLpAddress[_lpToken] = poolInfo.length - 1 */\n      dup2\n      swap1\n      sstore\n      pop\n        /* \"Ownable.sol\":1348:1349  _ */\n      pop\n        /* \"FAANGOrchestrator.sol\":3725:4245  function add(... */\n      pop\n      pop\n      jump\t// out\n        /* \"Ownable.sol\":1698:1835  function renounceOwnership() public onlyOwner {... */\n    tag_54:\n        /* \"Ownable.sol\":1289:1301  _msgSender() */\n      tag_150\n        /* \"Ownable.sol\":1289:1299  _msgSender */\n      tag_139\n        /* \"Ownable.sol\":1289:1301  _msgSender() */\n      jump\t// in\n    tag_150:\n        /* \"Ownable.sol\":1279:1301  _owner == _msgSender() */\n      0xffffffffffffffffffffffffffffffffffffffff\n      and\n        /* \"Ownable.sol\":1279:1285  _owner */\n      0x00\n      dup1\n      sload\n      swap1\n      0x0100\n      exp\n      swap1\n      div\n      0xffffffffffffffffffffffffffffffffffffffff\n      and\n        /* \"Ownable.sol\":1279:1301  _owner == _msgSender() */\n      0xffffffffffffffffffffffffffffffffffffffff\n      and\n      eq\n        /* \"Ownable.sol\":1271:1338  require(_owner == _msgSender(), 'Ownable: caller is not the owner') */\n      tag_151\n      jumpi\n      mload(0x40)\n      0x08c379a000000000000000000000000000000000000000000000000000000000\n      dup2\n      mstore\n      0x04\n      add\n      dup1\n      dup1\n      0x20\n      add\n      dup3\n      dup2\n      sub\n      dup3\n      mstore\n      0x20\n      dup2\n      mstore\n      0x20\n      add\n      dup1\n      0x4f776e61626c653a2063616c6c6572206973206e6f7420746865206f776e6572\n      dup2\n      mstore\n      pop\n      0x20\n      add\n      swap2\n      pop\n      pop\n      mload(0x40)\n      dup1\n      swap2\n      sub\n      swap1\n      revert\n    tag_151:\n        /* \"Ownable.sol\":1796:1797  0 */\n      0x00\n        /* \"Ownable.sol\":1759:1799  OwnershipTransferred(_owner, address(0)) */\n      0xffffffffffffffffffffffffffffffffffffffff\n      and\n        /* \"Ownable.sol\":1780:1786  _owner */\n      0x00\n      dup1\n      sload\n      swap1\n      0x0100\n      exp\n      swap1\n      div\n      0xffffffffffffffffffffffffffffffffffffffff\n      and\n        /* \"Ownable.sol\":1759:1799  OwnershipTransferred(_owner, address(0)) */\n      0xffffffffffffffffffffffffffffffffffffffff\n      and\n      0x8be0079c531659141344cd1fd0a4f28419497f9722a3daafe3b4186f6b6457e0\n      mload(0x40)\n      mload(0x40)\n      dup1\n      swap2\n      sub\n      swap1\n      log3\n        /* \"Ownable.sol\":1826:1827  0 */\n      0x00\n        /* \"Ownable.sol\":1809:1815  _owner */\n      dup1\n      0x00\n        /* \"Ownable.sol\":1809:1828  _owner = address(0) */\n      0x0100\n      exp\n      dup2\n      sload\n      dup2\n      0xffffffffffffffffffffffffffffffffffffffff\n      mul\n      not\n      and\n      swap1\n      dup4\n      0xffffffffffffffffffffffffffffffffffffffff\n      and\n      mul\n      or\n      swap1\n      sstore\n      pop\n        /* \"Ownable.sol\":1698:1835  function renounceOwnership() public onlyOwner {... */\n      jump\t// out\n        /* \"FAANGOrchestrator.sol\":7136:7245  function canClaimFAANGRewards() public view returns (bool) {... */\n    tag_56:\n        /* \"FAANGOrchestrator.sol\":7189:7193  bool */\n      0x00\n        /* \"FAANGOrchestrator.sol\":7228:7238  startBlock */\n      sload(0x05)\n        /* \"FAANGOrchestrator.sol\":7212:7224  block.number */\n      number\n        /* \"FAANGOrchestrator.sol\":7212:7238  block.number >= startBlock */\n      lt\n      iszero\n        /* \"FAANGOrchestrator.sol\":7205:7238  return block.number >= startBlock */\n      swap1\n      pop\n        /* \"FAANGOrchestrator.sol\":7136:7245  function canClaimFAANGRewards() public view returns (bool) {... */\n      swap1\n      jump\t// out\n        /* \"Ownable.sol\":1075:1152  function owner() public view returns (address) {... */\n    tag_58:\n        /* \"Ownable.sol\":1113:1120  address */\n      0x00\n        /* \"Ownable.sol\":1139:1145  _owner */\n      dup1\n      0x00\n      swap1\n      sload\n      swap1\n      0x0100\n      exp\n      swap1\n      div\n      0xffffffffffffffffffffffffffffffffffffffff\n      and\n        /* \"Ownable.sol\":1132:1145  return _owner */\n      swap1\n      pop\n        /* \"Ownable.sol\":1075:1152  function owner() public view returns (address) {... */\n      swap1\n      jump\t// out\n        /* \"FAANGOrchestrator.sol\":4318:4437  function getMultiplier(uint256 _from, uint256 _to) public pure returns (uint256) {... */\n    tag_61:\n        /* \"FAANGOrchestrator.sol\":4390:4397  uint256 */\n      0x00\n        /* \"FAANGOrchestrator.sol\":4416:4430  _to.sub(_from) */\n      tag_156\n        /* \"FAANGOrchestrator.sol\":4424:4429  _from */\n      dup4\n        /* \"FAANGOrchestrator.sol\":4416:4419  _to */\n      dup4\n        /* \"FAANGOrchestrator.sol\":4416:4423  _to.sub */\n      tag_100\n      swap1\n        /* \"FAANGOrchestrator.sol\":4416:4430  _to.sub(_from) */\n      swap2\n      swap1\n      0xffffffff\n      and\n      jump\t// in\n    tag_156:\n        /* \"FAANGOrchestrator.sol\":4409:4430  return _to.sub(_from) */\n      swap1\n      pop\n        /* \"FAANGOrchestrator.sol\":4318:4437  function getMultiplier(uint256 _from, uint256 _to) public pure returns (uint256) {... */\n      swap3\n      swap2\n      pop\n      pop\n      jump\t// out\n        /* \"FAANGOrchestrator.sol\":1894:1958  mapping(uint256 => mapping(address => UserInfo)) public userInfo */\n    tag_64:\n      mstore(0x20, 0x07)\n      dup2\n      0x00\n      mstore\n      mstore(0x20, keccak256(0x00, 0x40))\n      dup1\n      0x00\n      mstore\n      keccak256(0x00, 0x40)\n      0x00\n      swap2\n      pop\n      swap2\n      pop\n      pop\n      dup1\n      0x00\n      add\n      sload\n      swap1\n      dup1\n      0x01\n      add\n      sload\n      swap1\n      dup1\n      0x02\n      add\n      sload\n      swap1\n      pop\n      dup4\n      jump\t// out\n        /* \"FAANGOrchestrator.sol\":2158:2210  mapping(IBEP20 => uint256) public poolIdForLpAddress */\n    tag_67:\n      mstore(0x20, 0x09)\n      dup1\n      0x00\n      mstore\n      keccak256(0x00, 0x40)\n      0x00\n      swap2\n      pop\n      swap1\n      pop\n      sload\n      dup2\n      jump\t// out\n        /* \"FAANGOrchestrator.sol\":4670:5710  function pendingFAANG(uint256 _pid, address _user) external view returns (uint256) {... */\n    tag_70:\n        /* \"FAANGOrchestrator.sol\":4744:4751  uint256 */\n      0x00\n        /* \"FAANGOrchestrator.sol\":4763:4784  PoolInfo storage pool */\n      dup1\n        /* \"FAANGOrchestrator.sol\":4787:4795  poolInfo */\n      0x06\n        /* \"FAANGOrchestrator.sol\":4796:4800  _pid */\n      dup5\n        /* \"FAANGOrchestrator.sol\":4787:4801  poolInfo[_pid] */\n      dup2\n      sload\n      dup2\n      lt\n      tag_158\n      jumpi\n      invalid\n    tag_158:\n      swap1\n      0x00\n      mstore\n      keccak256(0x00, 0x20)\n      swap1\n      0x03\n      mul\n      add\n        /* \"FAANGOrchestrator.sol\":4763:4801  PoolInfo storage pool = poolInfo[_pid] */\n      swap1\n      pop\n        /* \"FAANGOrchestrator.sol\":4811:4832  UserInfo storage user */\n      0x00\n        /* \"FAANGOrchestrator.sol\":4835:4843  userInfo */\n      0x07\n        /* \"FAANGOrchestrator.sol\":4835:4849  userInfo[_pid] */\n      0x00\n        /* \"FAANGOrchestrator.sol\":4844:4848  _pid */\n      dup7\n        /* \"FAANGOrchestrator.sol\":4835:4849  userInfo[_pid] */\n      dup2\n      mstore\n      0x20\n      add\n      swap1\n      dup2\n      mstore\n      0x20\n      add\n      0x00\n      keccak256\n        /* \"FAANGOrchestrator.sol\":4835:4856  userInfo[_pid][_user] */\n      0x00\n        /* \"FAANGOrchestrator.sol\":4850:4855  _user */\n      dup6\n        /* \"FAANGOrchestrator.sol\":4835:4856  userInfo[_pid][_user] */\n      0xffffffffffffffffffffffffffffffffffffffff\n      and\n      0xffffffffffffffffffffffffffffffffffffffff\n      and\n      dup2\n      mstore\n      0x20\n      add\n      swap1\n      dup2\n      mstore\n      0x20\n      add\n      0x00\n      keccak256\n        /* \"FAANGOrchestrator.sol\":4811:4856  UserInfo storage user = userInfo[_pid][_user] */\n      swap1\n      pop\n        /* \"FAANGOrchestrator.sol\":4867:4891  uint256 accFAANGPerShare */\n      0x00\n        /* \"FAANGOrchestrator.sol\":4894:4898  pool */\n      dup3\n        /* \"FAANGOrchestrator.sol\":4894:4915  pool.accFAANGPerShare */\n      0x02\n      add\n      sload\n        /* \"FAANGOrchestrator.sol\":4867:4915  uint256 accFAANGPerShare = pool.accFAANGPerShare */\n      swap1\n      pop\n        /* \"FAANGOrchestrator.sol\":4925:4941  uint256 lpSupply */\n      0x00\n        /* \"FAANGOrchestrator.sol\":4944:4948  pool */\n      dup4\n        /* \"FAANGOrchestrator.sol\":4944:4956  pool.lpToken */\n      0x00\n      add\n      0x00\n      swap1\n      sload\n      swap1\n      0x0100\n      exp\n      swap1\n      div\n      0xffffffffffffffffffffffffffffffffffffffff\n      and\n        /* \"FAANGOrchestrator.sol\":4944:4966  pool.lpToken.balanceOf */\n      0xffffffffffffffffffffffffffffffffffffffff\n      and\n      0x70a08231\n        /* \"FAANGOrchestrator.sol\":4975:4979  this */\n      address\n        /* \"FAANGOrchestrator.sol\":4944:4981  pool.lpToken.balanceOf(address(this)) */\n      mload(0x40)\n      dup3\n      0xffffffff\n      and\n      0xe0\n      shl\n      dup2\n      mstore\n      0x04\n      add\n      dup1\n      dup3\n      0xffffffffffffffffffffffffffffffffffffffff\n      and\n      dup2\n      mstore\n      0x20\n      add\n      swap2\n      pop\n      pop\n      0x20\n      mload(0x40)\n      dup1\n      dup4\n      sub\n      dup2\n      dup7\n      dup1\n      extcodesize\n      iszero\n      dup1\n      iszero\n      tag_160\n      jumpi\n      0x00\n      dup1\n      revert\n    tag_160:\n      pop\n      gas\n      staticcall\n      iszero\n      dup1\n      iszero\n      tag_162\n      jumpi\n      returndatasize\n      0x00\n      dup1\n      returndatacopy\n      revert(0x00, returndatasize)\n    tag_162:\n      pop\n      pop\n      pop\n      pop\n      mload(0x40)\n      returndatasize\n      0x20\n      dup2\n      lt\n      iszero\n      tag_163\n      jumpi\n      0x00\n      dup1\n      revert\n    tag_163:\n      dup2\n      add\n      swap1\n      dup1\n      dup1\n      mload\n      swap1\n      0x20\n      add\n      swap1\n      swap3\n      swap2\n      swap1\n      pop\n      pop\n      pop\n        /* \"FAANGOrchestrator.sol\":4925:4981  uint256 lpSupply = pool.lpToken.balanceOf(address(this)) */\n      swap1\n      pop\n        /* \"FAANGOrchestrator.sol\":4992:5026  uint256 blockToCalculateMultiplier */\n      0x00\n        /* \"FAANGOrchestrator.sol\":5029:5069  minCurrentBlockAndInactiveBlockIfExist() */\n      tag_164\n        /* \"FAANGOrchestrator.sol\":5029:5067  minCurrentBlockAndInactiveBlockIfExist */\n      tag_111\n        /* \"FAANGOrchestrator.sol\":5029:5069  minCurrentBlockAndInactiveBlockIfExist() */\n      jump\t// in\n    tag_164:\n        /* \"FAANGOrchestrator.sol\":4992:5069  uint256 blockToCalculateMultiplier = minCurrentBlockAndInactiveBlockIfExist() */\n      swap1\n      pop\n        /* \"FAANGOrchestrator.sol\":5113:5117  pool */\n      dup5\n        /* \"FAANGOrchestrator.sol\":5113:5133  pool.lastRewardBlock */\n      0x01\n      add\n      sload\n        /* \"FAANGOrchestrator.sol\":5084:5110  blockToCalculateMultiplier */\n      dup2\n        /* \"FAANGOrchestrator.sol\":5084:5133  blockToCalculateMultiplier > pool.lastRewardBlock */\n      gt\n        /* \"FAANGOrchestrator.sol\":5084:5150  blockToCalculateMultiplier > pool.lastRewardBlock && lpSupply != 0 */\n      dup1\n      iszero\n      tag_165\n      jumpi\n      pop\n        /* \"FAANGOrchestrator.sol\":5149:5150  0 */\n      0x00\n        /* \"FAANGOrchestrator.sol\":5137:5145  lpSupply */\n      dup3\n        /* \"FAANGOrchestrator.sol\":5137:5150  lpSupply != 0 */\n      eq\n      iszero\n        /* \"FAANGOrchestrator.sol\":5084:5150  blockToCalculateMultiplier > pool.lastRewardBlock && lpSupply != 0 */\n    tag_165:\n        /* \"FAANGOrchestrator.sol\":5080:5522  if (blockToCalculateMultiplier > pool.lastRewardBlock && lpSupply != 0) {... */\n      iszero\n      tag_166\n      jumpi\n        /* \"FAANGOrchestrator.sol\":5166:5184  uint256 multiplier */\n      0x00\n        /* \"FAANGOrchestrator.sol\":5187:5250  getMultiplier(pool.lastRewardBlock, blockToCalculateMultiplier) */\n      tag_167\n        /* \"FAANGOrchestrator.sol\":5201:5205  pool */\n      dup7\n        /* \"FAANGOrchestrator.sol\":5201:5221  pool.lastRewardBlock */\n      0x01\n      add\n      sload\n        /* \"FAANGOrchestrator.sol\":5223:5249  blockToCalculateMultiplier */\n      dup4\n        /* \"FAANGOrchestrator.sol\":5187:5200  getMultiplier */\n      tag_61\n        /* \"FAANGOrchestrator.sol\":5187:5250  getMultiplier(pool.lastRewardBlock, blockToCalculateMultiplier) */\n      jump\t// in\n    tag_167:\n        /* \"FAANGOrchestrator.sol\":5166:5250  uint256 multiplier = getMultiplier(pool.lastRewardBlock, blockToCalculateMultiplier) */\n      swap1\n      pop\n        /* \"FAANGOrchestrator.sol\":5264:5283  uint256 FAANGReward */\n      0x00\n        /* \"FAANGOrchestrator.sol\":5286:5315  multiplier.mul(FAANGPerBlock) */\n      tag_168\n        /* \"FAANGOrchestrator.sol\":5301:5314  FAANGPerBlock */\n      sload(0x03)\n        /* \"FAANGOrchestrator.sol\":5286:5296  multiplier */\n      dup4\n        /* \"FAANGOrchestrator.sol\":5286:5300  multiplier.mul */\n      tag_105\n      swap1\n        /* \"FAANGOrchestrator.sol\":5286:5315  multiplier.mul(FAANGPerBlock) */\n      swap2\n      swap1\n      0xffffffff\n      and\n      jump\t// in\n    tag_168:\n        /* \"FAANGOrchestrator.sol\":5264:5315  uint256 FAANGReward = multiplier.mul(FAANGPerBlock) */\n      swap1\n      pop\n        /* \"FAANGOrchestrator.sol\":5349:5511  accFAANGPerShare... */\n      tag_169\n        /* \"FAANGOrchestrator.sol\":5408:5493  FAANGReward... */\n      tag_170\n        /* \"FAANGOrchestrator.sol\":5484:5492  lpSupply */\n      dup6\n        /* \"FAANGOrchestrator.sol\":5408:5454  FAANGReward... */\n      tag_171\n        /* \"FAANGOrchestrator.sol\":5449:5453  1e12 */\n      0xe8d4a51000\n        /* \"FAANGOrchestrator.sol\":5408:5419  FAANGReward */\n      dup6\n        /* \"FAANGOrchestrator.sol\":5408:5448  FAANGReward... */\n      tag_105\n      swap1\n        /* \"FAANGOrchestrator.sol\":5408:5454  FAANGReward... */\n      swap2\n      swap1\n      0xffffffff\n      and\n      jump\t// in\n    tag_171:\n        /* \"FAANGOrchestrator.sol\":5408:5483  FAANGReward... */\n      tag_106\n      swap1\n        /* \"FAANGOrchestrator.sol\":5408:5493  FAANGReward... */\n      swap2\n      swap1\n      0xffffffff\n      and\n      jump\t// in\n    tag_170:\n        /* \"FAANGOrchestrator.sol\":5349:5365  accFAANGPerShare */\n      dup7\n        /* \"FAANGOrchestrator.sol\":5349:5386  accFAANGPerShare... */\n      tag_83\n      swap1\n        /* \"FAANGOrchestrator.sol\":5349:5511  accFAANGPerShare... */\n      swap2\n      swap1\n      0xffffffff\n      and\n      jump\t// in\n    tag_169:\n        /* \"FAANGOrchestrator.sol\":5330:5511  accFAANGPerShare = accFAANGPerShare... */\n      swap5\n      pop\n        /* \"FAANGOrchestrator.sol\":5080:5522  if (blockToCalculateMultiplier > pool.lastRewardBlock && lpSupply != 0) {... */\n      pop\n      pop\n    tag_166:\n        /* \"FAANGOrchestrator.sol\":5532:5547  uint256 pending */\n      0x00\n        /* \"FAANGOrchestrator.sol\":5550:5653  user.amount... */\n      tag_172\n        /* \"FAANGOrchestrator.sol\":5637:5641  user */\n      dup6\n        /* \"FAANGOrchestrator.sol\":5637:5652  user.rewardDebt */\n      0x01\n      add\n      sload\n        /* \"FAANGOrchestrator.sol\":5550:5619  user.amount... */\n      tag_173\n        /* \"FAANGOrchestrator.sol\":5614:5618  1e12 */\n      0xe8d4a51000\n        /* \"FAANGOrchestrator.sol\":5550:5596  user.amount... */\n      tag_174\n        /* \"FAANGOrchestrator.sol\":5579:5595  accFAANGPerShare */\n      dup9\n        /* \"FAANGOrchestrator.sol\":5550:5554  user */\n      dup11\n        /* \"FAANGOrchestrator.sol\":5550:5561  user.amount */\n      0x00\n      add\n      sload\n        /* \"FAANGOrchestrator.sol\":5550:5578  user.amount... */\n      tag_105\n      swap1\n        /* \"FAANGOrchestrator.sol\":5550:5596  user.amount... */\n      swap2\n      swap1\n      0xffffffff\n      and\n      jump\t// in\n    tag_174:\n        /* \"FAANGOrchestrator.sol\":5550:5613  user.amount... */\n      tag_106\n      swap1\n        /* \"FAANGOrchestrator.sol\":5550:5619  user.amount... */\n      swap2\n      swap1\n      0xffffffff\n      and\n      jump\t// in\n    tag_173:\n        /* \"FAANGOrchestrator.sol\":5550:5636  user.amount... */\n      tag_100\n      swap1\n        /* \"FAANGOrchestrator.sol\":5550:5653  user.amount... */\n      swap2\n      swap1\n      0xffffffff\n      and\n      jump\t// in\n    tag_172:\n        /* \"FAANGOrchestrator.sol\":5532:5653  uint256 pending = user.amount... */\n      swap1\n      pop\n        /* \"FAANGOrchestrator.sol\":5671:5703  pending.add(user.rewardLockedUp) */\n      tag_175\n        /* \"FAANGOrchestrator.sol\":5683:5687  user */\n      dup6\n        /* \"FAANGOrchestrator.sol\":5683:5702  user.rewardLockedUp */\n      0x02\n      add\n      sload\n        /* \"FAANGOrchestrator.sol\":5671:5678  pending */\n      dup3\n        /* \"FAANGOrchestrator.sol\":5671:5682  pending.add */\n      tag_83\n      swap1\n        /* \"FAANGOrchestrator.sol\":5671:5703  pending.add(user.rewardLockedUp) */\n      swap2\n      swap1\n      0xffffffff\n      and\n      jump\t// in\n    tag_175:\n        /* \"FAANGOrchestrator.sol\":5664:5703  return pending.add(user.rewardLockedUp) */\n      swap7\n      pop\n      pop\n      pop\n      pop\n      pop\n      pop\n      pop\n        /* \"FAANGOrchestrator.sol\":4670:5710  function pendingFAANG(uint256 _pid, address _user) external view returns (uint256) {... */\n      swap3\n      swap2\n      pop\n      pop\n      jump\t// out\n        /* \"FAANGOrchestrator.sol\":2078:2122  mapping(IBEP20 => bool) public poolExistence */\n    tag_73:\n      mstore(0x20, 0x08)\n      dup1\n      0x00\n      mstore\n      keccak256(0x00, 0x40)\n      0x00\n      swap2\n      pop\n      sload\n      swap1\n      0x0100\n      exp\n      swap1\n      div\n      0xff\n      and\n      dup2\n      jump\t// out\n        /* \"FAANGOrchestrator.sol\":7251:7965  function deposit(uint256 _pid, uint256 _amount) public nonReentrant {... */\n    tag_76:\n        /* \"ReentrancyGuard.sol\":1680:1681  2 */\n      0x02\n        /* \"ReentrancyGuard.sol\":2269:2276  _status */\n      sload(0x01)\n        /* \"ReentrancyGuard.sol\":2269:2288  _status != _ENTERED */\n      eq\n      iszero\n        /* \"ReentrancyGuard.sol\":2261:2324  require(_status != _ENTERED, \"ReentrancyGuard: reentrant call\") */\n      tag_177\n      jumpi\n      mload(0x40)\n      0x08c379a000000000000000000000000000000000000000000000000000000000\n      dup2\n      mstore\n      0x04\n      add\n      dup1\n      dup1\n      0x20\n      add\n      dup3\n      dup2\n      sub\n      dup3\n      mstore\n      0x1f\n      dup2\n      mstore\n      0x20\n      add\n      dup1\n      0x5265656e7472616e637947756172643a207265656e7472616e742063616c6c00\n      dup2\n      mstore\n      pop\n      0x20\n      add\n      swap2\n      pop\n      pop\n      mload(0x40)\n      dup1\n      swap2\n      sub\n      swap1\n      revert\n    tag_177:\n        /* \"ReentrancyGuard.sol\":1680:1681  2 */\n      0x02\n        /* \"ReentrancyGuard.sol\":2399:2406  _status */\n      0x01\n        /* \"ReentrancyGuard.sol\":2399:2417  _status = _ENTERED */\n      dup2\n      swap1\n      sstore\n      pop\n        /* \"FAANGOrchestrator.sol\":7349:7350  0 */\n      0x00\n        /* \"FAANGOrchestrator.sol\":7333:7346  inActiveBlock */\n      sload(0x04)\n        /* \"FAANGOrchestrator.sol\":7333:7350  inActiveBlock > 0 */\n      gt\n        /* \"FAANGOrchestrator.sol\":7329:7452  if (inActiveBlock > 0) {... */\n      iszero\n      tag_179\n      jumpi\n        /* \"FAANGOrchestrator.sol\":7390:7403  inActiveBlock */\n      sload(0x04)\n        /* \"FAANGOrchestrator.sol\":7374:7386  block.number */\n      number\n        /* \"FAANGOrchestrator.sol\":7374:7403  block.number <= inActiveBlock */\n      gt\n      iszero\n        /* \"FAANGOrchestrator.sol\":7366:7441  require(block.number <= inActiveBlock, \"deposit: staking period has ended\") */\n      tag_180\n      jumpi\n      mload(0x40)\n      0x08c379a000000000000000000000000000000000000000000000000000000000\n      dup2\n      mstore\n      0x04\n      add\n      dup1\n      dup1\n      0x20\n      add\n      dup3\n      dup2\n      sub\n      dup3\n      mstore\n      0x21\n      dup2\n      mstore\n      0x20\n      add\n      dup1\n      data_defd5c903b3416581b5d98f5a021e4c2963664705201c58ffb06423da9b1f891\n      0x21\n      swap2\n      codecopy\n      0x40\n      add\n      swap2\n      pop\n      pop\n      mload(0x40)\n      dup1\n      swap2\n      sub\n      swap1\n      revert\n    tag_180:\n        /* \"FAANGOrchestrator.sol\":7329:7452  if (inActiveBlock > 0) {... */\n    tag_179:\n        /* \"FAANGOrchestrator.sol\":7462:7483  PoolInfo storage pool */\n      0x00\n        /* \"FAANGOrchestrator.sol\":7486:7494  poolInfo */\n      0x06\n        /* \"FAANGOrchestrator.sol\":7495:7499  _pid */\n      dup4\n        /* \"FAANGOrchestrator.sol\":7486:7500  poolInfo[_pid] */\n      dup2\n      sload\n      dup2\n      lt\n      tag_181\n      jumpi\n      invalid\n    tag_181:\n      swap1\n      0x00\n      mstore\n      keccak256(0x00, 0x20)\n      swap1\n      0x03\n      mul\n      add\n        /* \"FAANGOrchestrator.sol\":7462:7500  PoolInfo storage pool = poolInfo[_pid] */\n      swap1\n      pop\n        /* \"FAANGOrchestrator.sol\":7510:7531  UserInfo storage user */\n      0x00\n        /* \"FAANGOrchestrator.sol\":7534:7542  userInfo */\n      0x07\n        /* \"FAANGOrchestrator.sol\":7534:7548  userInfo[_pid] */\n      0x00\n        /* \"FAANGOrchestrator.sol\":7543:7547  _pid */\n      dup6\n        /* \"FAANGOrchestrator.sol\":7534:7548  userInfo[_pid] */\n      dup2\n      mstore\n      0x20\n      add\n      swap1\n      dup2\n      mstore\n      0x20\n      add\n      0x00\n      keccak256\n        /* \"FAANGOrchestrator.sol\":7534:7560  userInfo[_pid][msg.sender] */\n      0x00\n        /* \"FAANGOrchestrator.sol\":7549:7559  msg.sender */\n      caller\n        /* \"FAANGOrchestrator.sol\":7534:7560  userInfo[_pid][msg.sender] */\n      0xffffffffffffffffffffffffffffffffffffffff\n      and\n      0xffffffffffffffffffffffffffffffffffffffff\n      and\n      dup2\n      mstore\n      0x20\n      add\n      swap1\n      dup2\n      mstore\n      0x20\n      add\n      0x00\n      keccak256\n        /* \"FAANGOrchestrator.sol\":7510:7560  UserInfo storage user = userInfo[_pid][msg.sender] */\n      swap1\n      pop\n        /* \"FAANGOrchestrator.sol\":7571:7587  updatePool(_pid) */\n      tag_183\n        /* \"FAANGOrchestrator.sol\":7582:7586  _pid */\n      dup5\n        /* \"FAANGOrchestrator.sol\":7571:7581  updatePool */\n      tag_42\n        /* \"FAANGOrchestrator.sol\":7571:7587  updatePool(_pid) */\n      jump\t// in\n    tag_183:\n        /* \"FAANGOrchestrator.sol\":7598:7627  payOrLockupPendingFAANG(_pid) */\n      tag_184\n        /* \"FAANGOrchestrator.sol\":7622:7626  _pid */\n      dup5\n        /* \"FAANGOrchestrator.sol\":7598:7621  payOrLockupPendingFAANG */\n      tag_97\n        /* \"FAANGOrchestrator.sol\":7598:7627  payOrLockupPendingFAANG(_pid) */\n      jump\t// in\n    tag_184:\n        /* \"FAANGOrchestrator.sol\":7652:7653  0 */\n      0x00\n        /* \"FAANGOrchestrator.sol\":7642:7649  _amount */\n      dup4\n        /* \"FAANGOrchestrator.sol\":7642:7653  _amount > 0 */\n      gt\n        /* \"FAANGOrchestrator.sol\":7638:7806  if (_amount > 0) {... */\n      iszero\n      tag_185\n      jumpi\n        /* \"FAANGOrchestrator.sol\":7669:7743  pool.lpToken.safeTransferFrom(address(msg.sender), address(this), _amount) */\n      tag_186\n        /* \"FAANGOrchestrator.sol\":7707:7717  msg.sender */\n      caller\n        /* \"FAANGOrchestrator.sol\":7728:7732  this */\n      address\n        /* \"FAANGOrchestrator.sol\":7735:7742  _amount */\n      dup6\n        /* \"FAANGOrchestrator.sol\":7669:7673  pool */\n      dup6\n        /* \"FAANGOrchestrator.sol\":7669:7681  pool.lpToken */\n      0x00\n      add\n      0x00\n      swap1\n      sload\n      swap1\n      0x0100\n      exp\n      swap1\n      div\n      0xffffffffffffffffffffffffffffffffffffffff\n      and\n        /* \"FAANGOrchestrator.sol\":7669:7698  pool.lpToken.safeTransferFrom */\n      0xffffffffffffffffffffffffffffffffffffffff\n      and\n      tag_187\n      swap1\n        /* \"FAANGOrchestrator.sol\":7669:7743  pool.lpToken.safeTransferFrom(address(msg.sender), address(this), _amount) */\n      swap4\n      swap3\n      swap2\n      swap1\n      0xffffffff\n      and\n      jump\t// in\n    tag_186:\n        /* \"FAANGOrchestrator.sol\":7771:7795  user.amount.add(_amount) */\n      tag_188\n        /* \"FAANGOrchestrator.sol\":7787:7794  _amount */\n      dup4\n        /* \"FAANGOrchestrator.sol\":7771:7775  user */\n      dup3\n        /* \"FAANGOrchestrator.sol\":7771:7782  user.amount */\n      0x00\n      add\n      sload\n        /* \"FAANGOrchestrator.sol\":7771:7786  user.amount.add */\n      tag_83\n      swap1\n        /* \"FAANGOrchestrator.sol\":7771:7795  user.amount.add(_amount) */\n      swap2\n      swap1\n      0xffffffff\n      and\n      jump\t// in\n    tag_188:\n        /* \"FAANGOrchestrator.sol\":7757:7761  user */\n      dup2\n        /* \"FAANGOrchestrator.sol\":7757:7768  user.amount */\n      0x00\n      add\n        /* \"FAANGOrchestrator.sol\":7757:7795  user.amount = user.amount.add(_amount) */\n      dup2\n      swap1\n      sstore\n      pop\n        /* \"FAANGOrchestrator.sol\":7638:7806  if (_amount > 0) {... */\n    tag_185:\n        /* \"FAANGOrchestrator.sol\":7834:7908  user.amount... */\n      tag_189\n        /* \"FAANGOrchestrator.sol\":7903:7907  1e12 */\n      0xe8d4a51000\n        /* \"FAANGOrchestrator.sol\":7834:7885  user.amount... */\n      tag_190\n        /* \"FAANGOrchestrator.sol\":7863:7867  pool */\n      dup5\n        /* \"FAANGOrchestrator.sol\":7863:7884  pool.accFAANGPerShare */\n      0x02\n      add\n      sload\n        /* \"FAANGOrchestrator.sol\":7834:7838  user */\n      dup5\n        /* \"FAANGOrchestrator.sol\":7834:7845  user.amount */\n      0x00\n      add\n      sload\n        /* \"FAANGOrchestrator.sol\":7834:7862  user.amount... */\n      tag_105\n      swap1\n        /* \"FAANGOrchestrator.sol\":7834:7885  user.amount... */\n      swap2\n      swap1\n      0xffffffff\n      and\n      jump\t// in\n    tag_190:\n        /* \"FAANGOrchestrator.sol\":7834:7902  user.amount... */\n      tag_106\n      swap1\n        /* \"FAANGOrchestrator.sol\":7834:7908  user.amount... */\n      swap2\n      swap1\n      0xffffffff\n      and\n      jump\t// in\n    tag_189:\n        /* \"FAANGOrchestrator.sol\":7816:7820  user */\n      dup2\n        /* \"FAANGOrchestrator.sol\":7816:7831  user.rewardDebt */\n      0x01\n      add\n        /* \"FAANGOrchestrator.sol\":7816:7908  user.rewardDebt = user.amount... */\n      dup2\n      swap1\n      sstore\n      pop\n        /* \"FAANGOrchestrator.sol\":7944:7948  _pid */\n      dup4\n        /* \"FAANGOrchestrator.sol\":7932:7942  msg.sender */\n      caller\n        /* \"FAANGOrchestrator.sol\":7924:7958  Deposit(msg.sender, _pid, _amount) */\n      0xffffffffffffffffffffffffffffffffffffffff\n      and\n      0x90890809c654f11d6e72a28fa60149770a0d11ec6c92319d6ceb2bb0a4ea1a15\n        /* \"FAANGOrchestrator.sol\":7950:7957  _amount */\n      dup6\n        /* \"FAANGOrchestrator.sol\":7924:7958  Deposit(msg.sender, _pid, _amount) */\n      mload(0x40)\n      dup1\n      dup3\n      dup2\n      mstore\n      0x20\n      add\n      swap2\n      pop\n      pop\n      mload(0x40)\n      dup1\n      swap2\n      sub\n      swap1\n      log3\n        /* \"ReentrancyGuard.sol\":2428:2429  _ */\n      pop\n      pop\n        /* \"ReentrancyGuard.sol\":1637:1638  1 */\n      0x01\n        /* \"ReentrancyGuard.sol\":2572:2579  _status */\n      dup1\n        /* \"ReentrancyGuard.sol\":2572:2594  _status = _NOT_ENTERED */\n      dup2\n      swap1\n      sstore\n      pop\n        /* \"FAANGOrchestrator.sol\":7251:7965  function deposit(uint256 _pid, uint256 _amount) public nonReentrant {... */\n      pop\n      pop\n      jump\t// out\n        /* \"Ownable.sol\":1984:2091  function transferOwnership(address newOwner) public onlyOwner {... */\n    tag_79:\n        /* \"Ownable.sol\":1289:1301  _msgSender() */\n      tag_192\n        /* \"Ownable.sol\":1289:1299  _msgSender */\n      tag_139\n        /* \"Ownable.sol\":1289:1301  _msgSender() */\n      jump\t// in\n    tag_192:\n        /* \"Ownable.sol\":1279:1301  _owner == _msgSender() */\n      0xffffffffffffffffffffffffffffffffffffffff\n      and\n        /* \"Ownable.sol\":1279:1285  _owner */\n      0x00\n      dup1\n      sload\n      swap1\n      0x0100\n      exp\n      swap1\n      div\n      0xffffffffffffffffffffffffffffffffffffffff\n      and\n        /* \"Ownable.sol\":1279:1301  _owner == _msgSender() */\n      0xffffffffffffffffffffffffffffffffffffffff\n      and\n      eq\n        /* \"Ownable.sol\":1271:1338  require(_owner == _msgSender(), 'Ownable: caller is not the owner') */\n      tag_193\n      jumpi\n      mload(0x40)\n      0x08c379a000000000000000000000000000000000000000000000000000000000\n      dup2\n      mstore\n      0x04\n      add\n      dup1\n      dup1\n      0x20\n      add\n      dup3\n      dup2\n      sub\n      dup3\n      mstore\n      0x20\n      dup2\n      mstore\n      0x20\n      add\n      dup1\n      0x4f776e61626c653a2063616c6c6572206973206e6f7420746865206f776e6572\n      dup2\n      mstore\n      pop\n      0x20\n      add\n      swap2\n      pop\n      pop\n      mload(0x40)\n      dup1\n      swap2\n      sub\n      swap1\n      revert\n    tag_193:\n        /* \"Ownable.sol\":2056:2084  _transferOwnership(newOwner) */\n      tag_195\n        /* \"Ownable.sol\":2075:2083  newOwner */\n      dup2\n        /* \"Ownable.sol\":2056:2074  _transferOwnership */\n      tag_196\n        /* \"Ownable.sol\":2056:2084  _transferOwnership(newOwner) */\n      jump\t// in\n    tag_195:\n        /* \"Ownable.sol\":1984:2091  function transferOwnership(address newOwner) public onlyOwner {... */\n      pop\n      jump\t// out\n        /* \"FAANGOrchestrator.sol\":2947:3244  function updateStartBlock(uint256 _newStartBlock) public onlyOwner {... */\n    tag_82:\n        /* \"Ownable.sol\":1289:1301  _msgSender() */\n      tag_198\n        /* \"Ownable.sol\":1289:1299  _msgSender */\n      tag_139\n        /* \"Ownable.sol\":1289:1301  _msgSender() */\n      jump\t// in\n    tag_198:\n        /* \"Ownable.sol\":1279:1301  _owner == _msgSender() */\n      0xffffffffffffffffffffffffffffffffffffffff\n      and\n        /* \"Ownable.sol\":1279:1285  _owner */\n      0x00\n      dup1\n      sload\n      swap1\n      0x0100\n      exp\n      swap1\n      div\n      0xffffffffffffffffffffffffffffffffffffffff\n      and\n        /* \"Ownable.sol\":1279:1301  _owner == _msgSender() */\n      0xffffffffffffffffffffffffffffffffffffffff\n      and\n      eq\n        /* \"Ownable.sol\":1271:1338  require(_owner == _msgSender(), 'Ownable: caller is not the owner') */\n      tag_199\n      jumpi\n      mload(0x40)\n      0x08c379a000000000000000000000000000000000000000000000000000000000\n      dup2\n      mstore\n      0x04\n      add\n      dup1\n      dup1\n      0x20\n      add\n      dup3\n      dup2\n      sub\n      dup3\n      mstore\n      0x20\n      dup2\n      mstore\n      0x20\n      add\n      dup1\n      0x4f776e61626c653a2063616c6c6572206973206e6f7420746865206f776e6572\n      dup2\n      mstore\n      pop\n      0x20\n      add\n      swap2\n      pop\n      pop\n      mload(0x40)\n      dup1\n      swap2\n      sub\n      swap1\n      revert\n    tag_199:\n        /* \"FAANGOrchestrator.sol\":3049:3059  startBlock */\n      sload(0x05)\n        /* \"FAANGOrchestrator.sol\":3032:3046  _newStartBlock */\n      dup2\n        /* \"FAANGOrchestrator.sol\":3032:3059  _newStartBlock > startBlock */\n      gt\n        /* \"FAANGOrchestrator.sol\":3024:3133  require(_newStartBlock > startBlock, \"update startblock: new start block must be after previous start block\") */\n      tag_201\n      jumpi\n      mload(0x40)\n      0x08c379a000000000000000000000000000000000000000000000000000000000\n      dup2\n      mstore\n      0x04\n      add\n      dup1\n      dup1\n      0x20\n      add\n      dup3\n      dup2\n      sub\n      dup3\n      mstore\n      0x45\n      dup2\n      mstore\n      0x20\n      add\n      dup1\n      data_860bc997e53dcbe73d4588d7f05f563f62c6991e60126900efa3e3c9b5bff139\n      0x45\n      swap2\n      codecopy\n      0x60\n      add\n      swap2\n      pop\n      pop\n      mload(0x40)\n      dup1\n      swap2\n      sub\n      swap1\n      revert\n    tag_201:\n        /* \"FAANGOrchestrator.sol\":3144:3170  PoolInfo storage faangPool */\n      0x00\n        /* \"FAANGOrchestrator.sol\":3173:3181  poolInfo */\n      0x06\n        /* \"FAANGOrchestrator.sol\":3182:3183  0 */\n      0x00\n        /* \"FAANGOrchestrator.sol\":3173:3184  poolInfo[0] */\n      dup2\n      sload\n      dup2\n      lt\n      tag_202\n      jumpi\n      invalid\n    tag_202:\n      swap1\n      0x00\n      mstore\n      keccak256(0x00, 0x20)\n      swap1\n      0x03\n      mul\n      add\n        /* \"FAANGOrchestrator.sol\":3144:3184  PoolInfo storage faangPool = poolInfo[0] */\n      swap1\n      pop\n        /* \"FAANGOrchestrator.sol\":3223:3237  _newStartBlock */\n      dup2\n        /* \"FAANGOrchestrator.sol\":3195:3204  faangPool */\n      dup2\n        /* \"FAANGOrchestrator.sol\":3195:3220  faangPool.lastRewardBlock */\n      0x01\n      add\n        /* \"FAANGOrchestrator.sol\":3195:3237  faangPool.lastRewardBlock = _newStartBlock */\n      dup2\n      swap1\n      sstore\n      pop\n        /* \"Ownable.sol\":1348:1349  _ */\n      pop\n        /* \"FAANGOrchestrator.sol\":2947:3244  function updateStartBlock(uint256 _newStartBlock) public onlyOwner {... */\n      pop\n      jump\t// out\n        /* \"SafeMath.sol\":875:1051  function add(uint256 a, uint256 b) internal pure returns (uint256) {... */\n    tag_83:\n        /* \"SafeMath.sol\":933:940  uint256 */\n      0x00\n        /* \"SafeMath.sol\":952:961  uint256 c */\n      dup1\n        /* \"SafeMath.sol\":968:969  b */\n      dup3\n        /* \"SafeMath.sol\":964:965  a */\n      dup5\n        /* \"SafeMath.sol\":964:969  a + b */\n      add\n        /* \"SafeMath.sol\":952:969  uint256 c = a + b */\n      swap1\n      pop\n        /* \"SafeMath.sol\":992:993  a */\n      dup4\n        /* \"SafeMath.sol\":987:988  c */\n      dup2\n        /* \"SafeMath.sol\":987:993  c >= a */\n      lt\n      iszero\n        /* \"SafeMath.sol\":979:1025  require(c >= a, 'SafeMath: addition overflow') */\n      tag_205\n      jumpi\n      mload(0x40)\n      0x08c379a000000000000000000000000000000000000000000000000000000000\n      dup2\n      mstore\n      0x04\n      add\n      dup1\n      dup1\n      0x20\n      add\n      dup3\n      dup2\n      sub\n      dup3\n      mstore\n      0x1b\n      dup2\n      mstore\n      0x20\n      add\n      dup1\n      0x536166654d6174683a206164646974696f6e206f766572666c6f770000000000\n      dup2\n      mstore\n      pop\n      0x20\n      add\n      swap2\n      pop\n      pop\n      mload(0x40)\n      dup1\n      swap2\n      sub\n      swap1\n      revert\n    tag_205:\n        /* \"SafeMath.sol\":1043:1044  c */\n      dup1\n        /* \"SafeMath.sol\":1036:1044  return c */\n      swap2\n      pop\n      pop\n        /* \"SafeMath.sol\":875:1051  function add(uint256 a, uint256 b) internal pure returns (uint256) {... */\n      swap3\n      swap2\n      pop\n      pop\n      jump\t// out\n        /* \"FAANGOrchestrator.sol\":8684:9392  function payOrLockupPendingFAANG(uint256 _pid) internal {... */\n    tag_97:\n        /* \"FAANGOrchestrator.sol\":8750:8771  PoolInfo storage pool */\n      0x00\n        /* \"FAANGOrchestrator.sol\":8774:8782  poolInfo */\n      0x06\n        /* \"FAANGOrchestrator.sol\":8783:8787  _pid */\n      dup3\n        /* \"FAANGOrchestrator.sol\":8774:8788  poolInfo[_pid] */\n      dup2\n      sload\n      dup2\n      lt\n      tag_207\n      jumpi\n      invalid\n    tag_207:\n      swap1\n      0x00\n      mstore\n      keccak256(0x00, 0x20)\n      swap1\n      0x03\n      mul\n      add\n        /* \"FAANGOrchestrator.sol\":8750:8788  PoolInfo storage pool = poolInfo[_pid] */\n      swap1\n      pop\n        /* \"FAANGOrchestrator.sol\":8798:8819  UserInfo storage user */\n      0x00\n        /* \"FAANGOrchestrator.sol\":8822:8830  userInfo */\n      0x07\n        /* \"FAANGOrchestrator.sol\":8822:8836  userInfo[_pid] */\n      0x00\n        /* \"FAANGOrchestrator.sol\":8831:8835  _pid */\n      dup5\n        /* \"FAANGOrchestrator.sol\":8822:8836  userInfo[_pid] */\n      dup2\n      mstore\n      0x20\n      add\n      swap1\n      dup2\n      mstore\n      0x20\n      add\n      0x00\n      keccak256\n        /* \"FAANGOrchestrator.sol\":8822:8848  userInfo[_pid][msg.sender] */\n      0x00\n        /* \"FAANGOrchestrator.sol\":8837:8847  msg.sender */\n      caller\n        /* \"FAANGOrchestrator.sol\":8822:8848  userInfo[_pid][msg.sender] */\n      0xffffffffffffffffffffffffffffffffffffffff\n      and\n      0xffffffffffffffffffffffffffffffffffffffff\n      and\n      dup2\n      mstore\n      0x20\n      add\n      swap1\n      dup2\n      mstore\n      0x20\n      add\n      0x00\n      keccak256\n        /* \"FAANGOrchestrator.sol\":8798:8848  UserInfo storage user = userInfo[_pid][msg.sender] */\n      swap1\n      pop\n        /* \"FAANGOrchestrator.sol\":8859:8874  uint256 pending */\n      0x00\n        /* \"FAANGOrchestrator.sol\":8877:8985  user.amount... */\n      tag_209\n        /* \"FAANGOrchestrator.sol\":8969:8973  user */\n      dup3\n        /* \"FAANGOrchestrator.sol\":8969:8984  user.rewardDebt */\n      0x01\n      add\n      sload\n        /* \"FAANGOrchestrator.sol\":8877:8951  user.amount... */\n      tag_210\n        /* \"FAANGOrchestrator.sol\":8946:8950  1e12 */\n      0xe8d4a51000\n        /* \"FAANGOrchestrator.sol\":8877:8928  user.amount... */\n      tag_211\n        /* \"FAANGOrchestrator.sol\":8906:8910  pool */\n      dup8\n        /* \"FAANGOrchestrator.sol\":8906:8927  pool.accFAANGPerShare */\n      0x02\n      add\n      sload\n        /* \"FAANGOrchestrator.sol\":8877:8881  user */\n      dup8\n        /* \"FAANGOrchestrator.sol\":8877:8888  user.amount */\n      0x00\n      add\n      sload\n        /* \"FAANGOrchestrator.sol\":8877:8905  user.amount... */\n      tag_105\n      swap1\n        /* \"FAANGOrchestrator.sol\":8877:8928  user.amount... */\n      swap2\n      swap1\n      0xffffffff\n      and\n      jump\t// in\n    tag_211:\n        /* \"FAANGOrchestrator.sol\":8877:8945  user.amount... */\n      tag_106\n      swap1\n        /* \"FAANGOrchestrator.sol\":8877:8951  user.amount... */\n      swap2\n      swap1\n      0xffffffff\n      and\n      jump\t// in\n    tag_210:\n        /* \"FAANGOrchestrator.sol\":8877:8968  user.amount... */\n      tag_100\n      swap1\n        /* \"FAANGOrchestrator.sol\":8877:8985  user.amount... */\n      swap2\n      swap1\n      0xffffffff\n      and\n      jump\t// in\n    tag_209:\n        /* \"FAANGOrchestrator.sol\":8859:8985  uint256 pending = user.amount... */\n      swap1\n      pop\n        /* \"FAANGOrchestrator.sol\":9000:9022  canClaimFAANGRewards() */\n      tag_212\n        /* \"FAANGOrchestrator.sol\":9000:9020  canClaimFAANGRewards */\n      tag_56\n        /* \"FAANGOrchestrator.sol\":9000:9022  canClaimFAANGRewards() */\n      jump\t// in\n    tag_212:\n        /* \"FAANGOrchestrator.sol\":8996:9386  if (canClaimFAANGRewards()) {... */\n      iszero\n      tag_213\n      jumpi\n        /* \"FAANGOrchestrator.sol\":9052:9053  0 */\n      0x00\n        /* \"FAANGOrchestrator.sol\":9042:9049  pending */\n      dup2\n        /* \"FAANGOrchestrator.sol\":9042:9053  pending > 0 */\n      gt\n        /* \"FAANGOrchestrator.sol\":9042:9080  pending > 0 || user.rewardLockedUp > 0 */\n      dup1\n      tag_214\n      jumpi\n      pop\n        /* \"FAANGOrchestrator.sol\":9079:9080  0 */\n      0x00\n        /* \"FAANGOrchestrator.sol\":9057:9061  user */\n      dup3\n        /* \"FAANGOrchestrator.sol\":9057:9076  user.rewardLockedUp */\n      0x02\n      add\n      sload\n        /* \"FAANGOrchestrator.sol\":9057:9080  user.rewardLockedUp > 0 */\n      gt\n        /* \"FAANGOrchestrator.sol\":9042:9080  pending > 0 || user.rewardLockedUp > 0 */\n    tag_214:\n        /* \"FAANGOrchestrator.sol\":9038:9274  if (pending > 0 || user.rewardLockedUp > 0) {... */\n      iszero\n      tag_215\n      jumpi\n        /* \"FAANGOrchestrator.sol\":9100:9120  uint256 totalRewards */\n      0x00\n        /* \"FAANGOrchestrator.sol\":9123:9155  pending.add(user.rewardLockedUp) */\n      tag_216\n        /* \"FAANGOrchestrator.sol\":9135:9139  user */\n      dup4\n        /* \"FAANGOrchestrator.sol\":9135:9154  user.rewardLockedUp */\n      0x02\n      add\n      sload\n        /* \"FAANGOrchestrator.sol\":9123:9130  pending */\n      dup4\n        /* \"FAANGOrchestrator.sol\":9123:9134  pending.add */\n      tag_83\n      swap1\n        /* \"FAANGOrchestrator.sol\":9123:9155  pending.add(user.rewardLockedUp) */\n      swap2\n      swap1\n      0xffffffff\n      and\n      jump\t// in\n    tag_216:\n        /* \"FAANGOrchestrator.sol\":9100:9155  uint256 totalRewards = pending.add(user.rewardLockedUp) */\n      swap1\n      pop\n        /* \"FAANGOrchestrator.sol\":9196:9197  0 */\n      0x00\n        /* \"FAANGOrchestrator.sol\":9174:9178  user */\n      dup4\n        /* \"FAANGOrchestrator.sol\":9174:9193  user.rewardLockedUp */\n      0x02\n      add\n        /* \"FAANGOrchestrator.sol\":9174:9197  user.rewardLockedUp = 0 */\n      dup2\n      swap1\n      sstore\n      pop\n        /* \"FAANGOrchestrator.sol\":9216:9259  safeFAANGTransfer(msg.sender, totalRewards) */\n      tag_217\n        /* \"FAANGOrchestrator.sol\":9234:9244  msg.sender */\n      caller\n        /* \"FAANGOrchestrator.sol\":9246:9258  totalRewards */\n      dup3\n        /* \"FAANGOrchestrator.sol\":9216:9233  safeFAANGTransfer */\n      tag_218\n        /* \"FAANGOrchestrator.sol\":9216:9259  safeFAANGTransfer(msg.sender, totalRewards) */\n      jump\t// in\n    tag_217:\n        /* \"FAANGOrchestrator.sol\":9038:9274  if (pending > 0 || user.rewardLockedUp > 0) {... */\n      pop\n    tag_215:\n        /* \"FAANGOrchestrator.sol\":8996:9386  if (canClaimFAANGRewards()) {... */\n      jump(tag_219)\n    tag_213:\n        /* \"FAANGOrchestrator.sol\":9304:9305  0 */\n      0x00\n        /* \"FAANGOrchestrator.sol\":9294:9301  pending */\n      dup2\n        /* \"FAANGOrchestrator.sol\":9294:9305  pending > 0 */\n      gt\n        /* \"FAANGOrchestrator.sol\":9290:9386  if (pending > 0) {... */\n      iszero\n      tag_220\n      jumpi\n        /* \"FAANGOrchestrator.sol\":9343:9375  user.rewardLockedUp.add(pending) */\n      tag_221\n        /* \"FAANGOrchestrator.sol\":9367:9374  pending */\n      dup2\n        /* \"FAANGOrchestrator.sol\":9343:9347  user */\n      dup4\n        /* \"FAANGOrchestrator.sol\":9343:9362  user.rewardLockedUp */\n      0x02\n      add\n      sload\n        /* \"FAANGOrchestrator.sol\":9343:9366  user.rewardLockedUp.add */\n      tag_83\n      swap1\n        /* \"FAANGOrchestrator.sol\":9343:9375  user.rewardLockedUp.add(pending) */\n      swap2\n      swap1\n      0xffffffff\n      and\n      jump\t// in\n    tag_221:\n        /* \"FAANGOrchestrator.sol\":9321:9325  user */\n      dup3\n        /* \"FAANGOrchestrator.sol\":9321:9340  user.rewardLockedUp */\n      0x02\n      add\n        /* \"FAANGOrchestrator.sol\":9321:9375  user.rewardLockedUp = user.rewardLockedUp.add(pending) */\n      dup2\n      swap1\n      sstore\n      pop\n        /* \"FAANGOrchestrator.sol\":9290:9386  if (pending > 0) {... */\n    tag_220:\n        /* \"FAANGOrchestrator.sol\":8996:9386  if (canClaimFAANGRewards()) {... */\n    tag_219:\n        /* \"FAANGOrchestrator.sol\":8684:9392  function payOrLockupPendingFAANG(uint256 _pid) internal {... */\n      pop\n      pop\n      pop\n      pop\n      jump\t// out\n        /* \"SafeMath.sol\":1322:1456  function sub(uint256 a, uint256 b) internal pure returns (uint256) {... */\n    tag_100:\n        /* \"SafeMath.sol\":1380:1387  uint256 */\n      0x00\n        /* \"SafeMath.sol\":1406:1449  sub(a, b, 'SafeMath: subtraction overflow') */\n      tag_223\n        /* \"SafeMath.sol\":1410:1411  a */\n      dup4\n        /* \"SafeMath.sol\":1413:1414  b */\n      dup4\n        /* \"SafeMath.sol\":1406:1449  sub(a, b, 'SafeMath: subtraction overflow') */\n      mload(0x40)\n      dup1\n      0x40\n      add\n      0x40\n      mstore\n      dup1\n      0x1e\n      dup2\n      mstore\n      0x20\n      add\n      0x536166654d6174683a207375627472616374696f6e206f766572666c6f770000\n      dup2\n      mstore\n      pop\n        /* \"SafeMath.sol\":1406:1409  sub */\n      tag_224\n        /* \"SafeMath.sol\":1406:1449  sub(a, b, 'SafeMath: subtraction overflow') */\n      jump\t// in\n    tag_223:\n        /* \"SafeMath.sol\":1399:1449  return sub(a, b, 'SafeMath: subtraction overflow') */\n      swap1\n      pop\n        /* \"SafeMath.sol\":1322:1456  function sub(uint256 a, uint256 b) internal pure returns (uint256) {... */\n      swap3\n      swap2\n      pop\n      pop\n      jump\t// out\n        /* \"SafeBEP20.sol\":677:882  function safeTransfer(... */\n    tag_102:\n        /* \"SafeBEP20.sol\":789:875  _callOptionalReturn(token, abi.encodeWithSelector(token.transfer.selector, to, value)) */\n      tag_226\n        /* \"SafeBEP20.sol\":809:814  token */\n      dup4\n        /* \"SafeBEP20.sol\":839:862  token.transfer.selector */\n      shl(0xe0, 0xa9059cbb)\n        /* \"SafeBEP20.sol\":864:866  to */\n      dup5\n        /* \"SafeBEP20.sol\":868:873  value */\n      dup5\n        /* \"SafeBEP20.sol\":816:874  abi.encodeWithSelector(token.transfer.selector, to, value) */\n      add(0x24, mload(0x40))\n      dup1\n      dup4\n      0xffffffffffffffffffffffffffffffffffffffff\n      and\n      dup2\n      mstore\n      0x20\n      add\n      dup3\n      dup2\n      mstore\n      0x20\n      add\n      swap3\n      pop\n      pop\n      pop\n      mload(0x40)\n      0x20\n      dup2\n      dup4\n      sub\n      sub\n      dup2\n      mstore\n      swap1\n      0x40\n      mstore\n      swap1\n      not(0xffffffffffffffffffffffffffffffffffffffffffffffffffffffff)\n      and\n      0x20\n      dup3\n      add\n      dup1\n      mload\n      0xffffffffffffffffffffffffffffffffffffffffffffffffffffffff\n      dup4\n      dup2\n      dup4\n      and\n      or\n      dup4\n      mstore\n      pop\n      pop\n      pop\n      pop\n        /* \"SafeBEP20.sol\":789:808  _callOptionalReturn */\n      tag_227\n        /* \"SafeBEP20.sol\":789:875  _callOptionalReturn(token, abi.encodeWithSelector(token.transfer.selector, to, value)) */\n      jump\t// in\n    tag_226:\n        /* \"SafeBEP20.sol\":677:882  function safeTransfer(... */\n      pop\n      pop\n      pop\n      jump\t// out\n        /* \"SafeMath.sol\":2211:2670  function mul(uint256 a, uint256 b) internal pure returns (uint256) {... */\n    tag_105:\n        /* \"SafeMath.sol\":2269:2276  uint256 */\n      0x00\n        /* \"SafeMath.sol\":2515:2516  0 */\n      dup1\n        /* \"SafeMath.sol\":2510:2511  a */\n      dup4\n        /* \"SafeMath.sol\":2510:2516  a == 0 */\n      eq\n        /* \"SafeMath.sol\":2506:2551  if (a == 0) {... */\n      iszero\n      tag_229\n      jumpi\n        /* \"SafeMath.sol\":2539:2540  0 */\n      0x00\n        /* \"SafeMath.sol\":2532:2540  return 0 */\n      swap1\n      pop\n      jump(tag_228)\n        /* \"SafeMath.sol\":2506:2551  if (a == 0) {... */\n    tag_229:\n        /* \"SafeMath.sol\":2561:2570  uint256 c */\n      0x00\n        /* \"SafeMath.sol\":2577:2578  b */\n      dup3\n        /* \"SafeMath.sol\":2573:2574  a */\n      dup5\n        /* \"SafeMath.sol\":2573:2578  a * b */\n      mul\n        /* \"SafeMath.sol\":2561:2578  uint256 c = a * b */\n      swap1\n      pop\n        /* \"SafeMath.sol\":2605:2606  b */\n      dup3\n        /* \"SafeMath.sol\":2600:2601  a */\n      dup5\n        /* \"SafeMath.sol\":2596:2597  c */\n      dup3\n        /* \"SafeMath.sol\":2596:2601  c / a */\n      dup2\n      tag_230\n      jumpi\n      invalid\n    tag_230:\n      div\n        /* \"SafeMath.sol\":2596:2606  c / a == b */\n      eq\n        /* \"SafeMath.sol\":2588:2644  require(c / a == b, 'SafeMath: multiplication overflow') */\n      tag_231\n      jumpi\n      mload(0x40)\n      0x08c379a000000000000000000000000000000000000000000000000000000000\n      dup2\n      mstore\n      0x04\n      add\n      dup1\n      dup1\n      0x20\n      add\n      dup3\n      dup2\n      sub\n      dup3\n      mstore\n      0x21\n      dup2\n      mstore\n      0x20\n      add\n      dup1\n      data_9113bb53c2876a3805b2c9242029423fc540a728243ce887ab24c82cf119fba3\n      0x21\n      swap2\n      codecopy\n      0x40\n      add\n      swap2\n      pop\n      pop\n      mload(0x40)\n      dup1\n      swap2\n      sub\n      swap1\n      revert\n    tag_231:\n        /* \"SafeMath.sol\":2662:2663  c */\n      dup1\n        /* \"SafeMath.sol\":2655:2663  return c */\n      swap2\n      pop\n      pop\n        /* \"SafeMath.sol\":2211:2670  function mul(uint256 a, uint256 b) internal pure returns (uint256) {... */\n    tag_228:\n      swap3\n      swap2\n      pop\n      pop\n      jump\t// out\n        /* \"SafeMath.sol\":3132:3262  function div(uint256 a, uint256 b) internal pure returns (uint256) {... */\n    tag_106:\n        /* \"SafeMath.sol\":3190:3197  uint256 */\n      0x00\n        /* \"SafeMath.sol\":3216:3255  div(a, b, 'SafeMath: division by zero') */\n      tag_233\n        /* \"SafeMath.sol\":3220:3221  a */\n      dup4\n        /* \"SafeMath.sol\":3223:3224  b */\n      dup4\n        /* \"SafeMath.sol\":3216:3255  div(a, b, 'SafeMath: division by zero') */\n      mload(0x40)\n      dup1\n      0x40\n      add\n      0x40\n      mstore\n      dup1\n      0x1a\n      dup2\n      mstore\n      0x20\n      add\n      0x536166654d6174683a206469766973696f6e206279207a65726f000000000000\n      dup2\n      mstore\n      pop\n        /* \"SafeMath.sol\":3216:3219  div */\n      tag_234\n        /* \"SafeMath.sol\":3216:3255  div(a, b, 'SafeMath: division by zero') */\n      jump\t// in\n    tag_233:\n        /* \"SafeMath.sol\":3209:3255  return div(a, b, 'SafeMath: division by zero') */\n      swap1\n      pop\n        /* \"SafeMath.sol\":3132:3262  function div(uint256 a, uint256 b) internal pure returns (uint256) {... */\n      swap3\n      swap2\n      pop\n      pop\n      jump\t// out\n        /* \"FAANGOrchestrator.sol\":4443:4608  function minCurrentBlockAndInactiveBlockIfExist() internal view returns (uint256) {... */\n    tag_111:\n        /* \"FAANGOrchestrator.sol\":4516:4523  uint256 */\n      0x00\n        /* \"FAANGOrchestrator.sol\":4557:4570  inActiveBlock */\n      sload(0x04)\n        /* \"FAANGOrchestrator.sol\":4542:4554  block.number */\n      number\n        /* \"FAANGOrchestrator.sol\":4542:4570  block.number > inActiveBlock */\n      gt\n        /* \"FAANGOrchestrator.sol\":4542:4601  block.number > inActiveBlock ? inActiveBlock : block.number */\n      tag_236\n      jumpi\n        /* \"FAANGOrchestrator.sol\":4589:4601  block.number */\n      number\n        /* \"FAANGOrchestrator.sol\":4542:4601  block.number > inActiveBlock ? inActiveBlock : block.number */\n      jump(tag_237)\n    tag_236:\n        /* \"FAANGOrchestrator.sol\":4573:4586  inActiveBlock */\n      sload(0x04)\n        /* \"FAANGOrchestrator.sol\":4542:4601  block.number > inActiveBlock ? inActiveBlock : block.number */\n    tag_237:\n        /* \"FAANGOrchestrator.sol\":4535:4601  return block.number > inActiveBlock ? inActiveBlock : block.number */\n      swap1\n      pop\n        /* \"FAANGOrchestrator.sol\":4443:4608  function minCurrentBlockAndInactiveBlockIfExist() internal view returns (uint256) {... */\n      swap1\n      jump\t// out\n        /* \"Context.sol\":780:876  function _msgSender() internal view returns (address payable) {... */\n    tag_139:\n        /* \"Context.sol\":825:840  address payable */\n      0x00\n        /* \"Context.sol\":859:869  msg.sender */\n      caller\n        /* \"Context.sol\":852:869  return msg.sender */\n      swap1\n      pop\n        /* \"Context.sol\":780:876  function _msgSender() internal view returns (address payable) {... */\n      swap1\n      jump\t// out\n        /* \"SafeBEP20.sol\":888:1129  function safeTransferFrom(... */\n    tag_187:\n        /* \"SafeBEP20.sol\":1026:1122  _callOptionalReturn(token, abi.encodeWithSelector(token.transferFrom.selector, from, to, value)) */\n      tag_240\n        /* \"SafeBEP20.sol\":1046:1051  token */\n      dup5\n        /* \"SafeBEP20.sol\":1076:1103  token.transferFrom.selector */\n      shl(0xe0, 0x23b872dd)\n        /* \"SafeBEP20.sol\":1105:1109  from */\n      dup6\n        /* \"SafeBEP20.sol\":1111:1113  to */\n      dup6\n        /* \"SafeBEP20.sol\":1115:1120  value */\n      dup6\n        /* \"SafeBEP20.sol\":1053:1121  abi.encodeWithSelector(token.transferFrom.selector, from, to, value) */\n      add(0x24, mload(0x40))\n      dup1\n      dup5\n      0xffffffffffffffffffffffffffffffffffffffff\n      and\n      dup2\n      mstore\n      0x20\n      add\n      dup4\n      0xffffffffffffffffffffffffffffffffffffffff\n      and\n      dup2\n      mstore\n      0x20\n      add\n      dup3\n      dup2\n      mstore\n      0x20\n      add\n      swap4\n      pop\n      pop\n      pop\n      pop\n      mload(0x40)\n      0x20\n      dup2\n      dup4\n      sub\n      sub\n      dup2\n      mstore\n      swap1\n      0x40\n      mstore\n      swap1\n      not(0xffffffffffffffffffffffffffffffffffffffffffffffffffffffff)\n      and\n      0x20\n      dup3\n      add\n      dup1\n      mload\n      0xffffffffffffffffffffffffffffffffffffffffffffffffffffffff\n      dup4\n      dup2\n      dup4\n      and\n      or\n      dup4\n      mstore\n      pop\n      pop\n      pop\n      pop\n        /* \"SafeBEP20.sol\":1026:1045  _callOptionalReturn */\n      tag_227\n        /* \"SafeBEP20.sol\":1026:1122  _callOptionalReturn(token, abi.encodeWithSelector(token.transferFrom.selector, from, to, value)) */\n      jump\t// in\n    tag_240:\n        /* \"SafeBEP20.sol\":888:1129  function safeTransferFrom(... */\n      pop\n      pop\n      pop\n      pop\n      jump\t// out\n        /* \"Ownable.sol\":2192:2417  function _transferOwnership(address newOwner) internal {... */\n    tag_196:\n        /* \"Ownable.sol\":2285:2286  0 */\n      0x00\n        /* \"Ownable.sol\":2265:2287  newOwner != address(0) */\n      0xffffffffffffffffffffffffffffffffffffffff\n      and\n        /* \"Ownable.sol\":2265:2273  newOwner */\n      dup2\n        /* \"Ownable.sol\":2265:2287  newOwner != address(0) */\n      0xffffffffffffffffffffffffffffffffffffffff\n      and\n      eq\n      iszero\n        /* \"Ownable.sol\":2257:2330  require(newOwner != address(0), 'Ownable: new owner is the zero address') */\n      tag_242\n      jumpi\n      mload(0x40)\n      0x08c379a000000000000000000000000000000000000000000000000000000000\n      dup2\n      mstore\n      0x04\n      add\n      dup1\n      dup1\n      0x20\n      add\n      dup3\n      dup2\n      sub\n      dup3\n      mstore\n      0x26\n      dup2\n      mstore\n      0x20\n      add\n      dup1\n      data_245f15ff17f551913a7a18385165551503906a406f905ac1c2437281a7cd0cfe\n      0x26\n      swap2\n      codecopy\n      0x40\n      add\n      swap2\n      pop\n      pop\n      mload(0x40)\n      dup1\n      swap2\n      sub\n      swap1\n      revert\n    tag_242:\n        /* \"Ownable.sol\":2374:2382  newOwner */\n      dup1\n        /* \"Ownable.sol\":2345:2383  OwnershipTransferred(_owner, newOwner) */\n      0xffffffffffffffffffffffffffffffffffffffff\n      and\n        /* \"Ownable.sol\":2366:2372  _owner */\n      0x00\n      dup1\n      sload\n      swap1\n      0x0100\n      exp\n      swap1\n      div\n      0xffffffffffffffffffffffffffffffffffffffff\n      and\n        /* \"Ownable.sol\":2345:2383  OwnershipTransferred(_owner, newOwner) */\n      0xffffffffffffffffffffffffffffffffffffffff\n      and\n      0x8be0079c531659141344cd1fd0a4f28419497f9722a3daafe3b4186f6b6457e0\n      mload(0x40)\n      mload(0x40)\n      dup1\n      swap2\n      sub\n      swap1\n      log3\n        /* \"Ownable.sol\":2402:2410  newOwner */\n      dup1\n        /* \"Ownable.sol\":2393:2399  _owner */\n      0x00\n      dup1\n        /* \"Ownable.sol\":2393:2410  _owner = newOwner */\n      0x0100\n      exp\n      dup2\n      sload\n      dup2\n      0xffffffffffffffffffffffffffffffffffffffff\n      mul\n      not\n      and\n      swap1\n      dup4\n      0xffffffffffffffffffffffffffffffffffffffff\n      and\n      mul\n      or\n      swap1\n      sstore\n      pop\n        /* \"Ownable.sol\":2192:2417  function _transferOwnership(address newOwner) internal {... */\n      pop\n      jump\t// out\n        /* \"FAANGOrchestrator.sol\":9937:10363  function safeFAANGTransfer(address _to, uint256 _amount) internal {... */\n    tag_218:\n        /* \"FAANGOrchestrator.sol\":10013:10029  uint256 FAANGBal */\n      0x00\n        /* \"FAANGOrchestrator.sol\":10032:10037  FAANG */\n      0x02\n      0x00\n      swap1\n      sload\n      swap1\n      0x0100\n      exp\n      swap1\n      div\n      0xffffffffffffffffffffffffffffffffffffffff\n      and\n        /* \"FAANGOrchestrator.sol\":10032:10047  FAANG.balanceOf */\n      0xffffffffffffffffffffffffffffffffffffffff\n      and\n      0x70a08231\n        /* \"FAANGOrchestrator.sol\":10056:10060  this */\n      address\n        /* \"FAANGOrchestrator.sol\":10032:10062  FAANG.balanceOf(address(this)) */\n      mload(0x40)\n      dup3\n      0xffffffff\n      and\n      0xe0\n      shl\n      dup2\n      mstore\n      0x04\n      add\n      dup1\n      dup3\n      0xffffffffffffffffffffffffffffffffffffffff\n      and\n      dup2\n      mstore\n      0x20\n      add\n      swap2\n      pop\n      pop\n      0x20\n      mload(0x40)\n      dup1\n      dup4\n      sub\n      dup2\n      dup7\n      dup1\n      extcodesize\n      iszero\n      dup1\n      iszero\n      tag_244\n      jumpi\n      0x00\n      dup1\n      revert\n    tag_244:\n      pop\n      gas\n      staticcall\n      iszero\n      dup1\n      iszero\n      tag_246\n      jumpi\n      returndatasize\n      0x00\n      dup1\n      returndatacopy\n      revert(0x00, returndatasize)\n    tag_246:\n      pop\n      pop\n      pop\n      pop\n      mload(0x40)\n      returndatasize\n      0x20\n      dup2\n      lt\n      iszero\n      tag_247\n      jumpi\n      0x00\n      dup1\n      revert\n    tag_247:\n      dup2\n      add\n      swap1\n      dup1\n      dup1\n      mload\n      swap1\n      0x20\n      add\n      swap1\n      swap3\n      swap2\n      swap1\n      pop\n      pop\n      pop\n        /* \"FAANGOrchestrator.sol\":10013:10062  uint256 FAANGBal = FAANG.balanceOf(address(this)) */\n      swap1\n      pop\n        /* \"FAANGOrchestrator.sol\":10072:10092  bool transferSuccess */\n      0x00\n        /* \"FAANGOrchestrator.sol\":10125:10133  FAANGBal */\n      dup2\n        /* \"FAANGOrchestrator.sol\":10115:10122  _amount */\n      dup4\n        /* \"FAANGOrchestrator.sol\":10115:10133  _amount > FAANGBal */\n      gt\n        /* \"FAANGOrchestrator.sol\":10111:10284  if (_amount > FAANGBal) {... */\n      iszero\n      tag_248\n      jumpi\n        /* \"FAANGOrchestrator.sol\":10167:10172  FAANG */\n      0x02\n      0x00\n      swap1\n      sload\n      swap1\n      0x0100\n      exp\n      swap1\n      div\n      0xffffffffffffffffffffffffffffffffffffffff\n      and\n        /* \"FAANGOrchestrator.sol\":10167:10181  FAANG.transfer */\n      0xffffffffffffffffffffffffffffffffffffffff\n      and\n      0xa9059cbb\n        /* \"FAANGOrchestrator.sol\":10182:10185  _to */\n      dup6\n        /* \"FAANGOrchestrator.sol\":10187:10195  FAANGBal */\n      dup5\n        /* \"FAANGOrchestrator.sol\":10167:10196  FAANG.transfer(_to, FAANGBal) */\n      mload(0x40)\n      dup4\n      0xffffffff\n      and\n      0xe0\n      shl\n      dup2\n      mstore\n      0x04\n      add\n      dup1\n      dup4\n      0xffffffffffffffffffffffffffffffffffffffff\n      and\n      dup2\n      mstore\n      0x20\n      add\n      dup3\n      dup2\n      mstore\n      0x20\n      add\n      swap3\n      pop\n      pop\n      pop\n      0x20\n      mload(0x40)\n      dup1\n      dup4\n      sub\n      dup2\n      0x00\n      dup8\n      dup1\n      extcodesize\n      iszero\n      dup1\n      iszero\n      tag_249\n      jumpi\n      0x00\n      dup1\n      revert\n    tag_249:\n      pop\n      gas\n      call\n      iszero\n      dup1\n      iszero\n      tag_251\n      jumpi\n      returndatasize\n      0x00\n      dup1\n      returndatacopy\n      revert(0x00, returndatasize)\n    tag_251:\n      pop\n      pop\n      pop\n      pop\n      mload(0x40)\n      returndatasize\n      0x20\n      dup2\n      lt\n      iszero\n      tag_252\n      jumpi\n      0x00\n      dup1\n      revert\n    tag_252:\n      dup2\n      add\n      swap1\n      dup1\n      dup1\n      mload\n      swap1\n      0x20\n      add\n      swap1\n      swap3\n      swap2\n      swap1\n      pop\n      pop\n      pop\n        /* \"FAANGOrchestrator.sol\":10149:10196  transferSuccess = FAANG.transfer(_to, FAANGBal) */\n      swap1\n      pop\n        /* \"FAANGOrchestrator.sol\":10111:10284  if (_amount > FAANGBal) {... */\n      jump(tag_253)\n    tag_248:\n        /* \"FAANGOrchestrator.sol\":10245:10250  FAANG */\n      0x02\n      0x00\n      swap1\n      sload\n      swap1\n      0x0100\n      exp\n      swap1\n      div\n      0xffffffffffffffffffffffffffffffffffffffff\n      and\n        /* \"FAANGOrchestrator.sol\":10245:10259  FAANG.transfer */\n      0xffffffffffffffffffffffffffffffffffffffff\n      and\n      0xa9059cbb\n        /* \"FAANGOrchestrator.sol\":10260:10263  _to */\n      dup6\n        /* \"FAANGOrchestrator.sol\":10265:10272  _amount */\n      dup6\n        /* \"FAANGOrchestrator.sol\":10245:10273  FAANG.transfer(_to, _amount) */\n      mload(0x40)\n      dup4\n      0xffffffff\n      and\n      0xe0\n      shl\n      dup2\n      mstore\n      0x04\n      add\n      dup1\n      dup4\n      0xffffffffffffffffffffffffffffffffffffffff\n      and\n      dup2\n      mstore\n      0x20\n      add\n      dup3\n      dup2\n      mstore\n      0x20\n      add\n      swap3\n      pop\n      pop\n      pop\n      0x20\n      mload(0x40)\n      dup1\n      dup4\n      sub\n      dup2\n      0x00\n      dup8\n      dup1\n      extcodesize\n      iszero\n      dup1\n      iszero\n      tag_254\n      jumpi\n      0x00\n      dup1\n      revert\n    tag_254:\n      pop\n      gas\n      call\n      iszero\n      dup1\n      iszero\n      tag_256\n      jumpi\n      returndatasize\n      0x00\n      dup1\n      returndatacopy\n      revert(0x00, returndatasize)\n    tag_256:\n      pop\n      pop\n      pop\n      pop\n      mload(0x40)\n      returndatasize\n      0x20\n      dup2\n      lt\n      iszero\n      tag_257\n      jumpi\n      0x00\n      dup1\n      revert\n    tag_257:\n      dup2\n      add\n      swap1\n      dup1\n      dup1\n      mload\n      swap1\n      0x20\n      add\n      swap1\n      swap3\n      swap2\n      swap1\n      pop\n      pop\n      pop\n        /* \"FAANGOrchestrator.sol\":10227:10273  transferSuccess = FAANG.transfer(_to, _amount) */\n      swap1\n      pop\n        /* \"FAANGOrchestrator.sol\":10111:10284  if (_amount > FAANGBal) {... */\n    tag_253:\n        /* \"FAANGOrchestrator.sol\":10302:10317  transferSuccess */\n      dup1\n        /* \"FAANGOrchestrator.sol\":10294:10356  require(transferSuccess, \"safePlumTransfer: transfer failed.\") */\n      tag_258\n      jumpi\n      mload(0x40)\n      0x08c379a000000000000000000000000000000000000000000000000000000000\n      dup2\n      mstore\n      0x04\n      add\n      dup1\n      dup1\n      0x20\n      add\n      dup3\n      dup2\n      sub\n      dup3\n      mstore\n      0x22\n      dup2\n      mstore\n      0x20\n      add\n      dup1\n      data_2a7e0e7f8bc79ffac7125960112eaea13c804910c2e58b65c50e00aacc68de0e\n      0x22\n      swap2\n      codecopy\n      0x40\n      add\n      swap2\n      pop\n      pop\n      mload(0x40)\n      dup1\n      swap2\n      sub\n      swap1\n      revert\n    tag_258:\n        /* \"FAANGOrchestrator.sol\":9937:10363  function safeFAANGTransfer(address _to, uint256 _amount) internal {... */\n      pop\n      pop\n      pop\n      pop\n      jump\t// out\n        /* \"SafeMath.sol\":1747:1964  function sub(... */\n    tag_224:\n        /* \"SafeMath.sol\":1863:1870  uint256 */\n      0x00\n        /* \"SafeMath.sol\":1895:1896  a */\n      dup4\n        /* \"SafeMath.sol\":1890:1891  b */\n      dup4\n        /* \"SafeMath.sol\":1890:1896  b <= a */\n      gt\n      iszero\n        /* \"SafeMath.sol\":1898:1910  errorMessage */\n      dup3\n        /* \"SafeMath.sol\":1882:1911  require(b <= a, errorMessage) */\n      swap1\n      tag_260\n      jumpi\n      mload(0x40)\n      0x08c379a000000000000000000000000000000000000000000000000000000000\n      dup2\n      mstore\n      0x04\n      add\n      dup1\n      dup1\n      0x20\n      add\n      dup3\n      dup2\n      sub\n      dup3\n      mstore\n      dup4\n      dup2\n      dup2\n      mload\n      dup2\n      mstore\n      0x20\n      add\n      swap2\n      pop\n      dup1\n      mload\n      swap1\n      0x20\n      add\n      swap1\n      dup1\n      dup4\n      dup4\n      0x00\n    tag_261:\n      dup4\n      dup2\n      lt\n      iszero\n      tag_263\n      jumpi\n      dup1\n      dup3\n      add\n      mload\n      dup2\n      dup5\n      add\n      mstore\n      0x20\n      dup2\n      add\n      swap1\n      pop\n      jump(tag_261)\n    tag_263:\n      pop\n      pop\n      pop\n      pop\n      swap1\n      pop\n      swap1\n      dup2\n      add\n      swap1\n      0x1f\n      and\n      dup1\n      iszero\n      tag_264\n      jumpi\n      dup1\n      dup3\n      sub\n      dup1\n      mload\n      0x01\n      dup4\n      0x20\n      sub\n      0x0100\n      exp\n      sub\n      not\n      and\n      dup2\n      mstore\n      0x20\n      add\n      swap2\n      pop\n    tag_264:\n      pop\n      swap3\n      pop\n      pop\n      pop\n      mload(0x40)\n      dup1\n      swap2\n      sub\n      swap1\n      revert\n    tag_260:\n      pop\n        /* \"SafeMath.sol\":1921:1930  uint256 c */\n      0x00\n        /* \"SafeMath.sol\":1937:1938  b */\n      dup4\n        /* \"SafeMath.sol\":1933:1934  a */\n      dup6\n        /* \"SafeMath.sol\":1933:1938  a - b */\n      sub\n        /* \"SafeMath.sol\":1921:1938  uint256 c = a - b */\n      swap1\n      pop\n        /* \"SafeMath.sol\":1956:1957  c */\n      dup1\n        /* \"SafeMath.sol\":1949:1957  return c */\n      swap2\n      pop\n      pop\n        /* \"SafeMath.sol\":1747:1964  function sub(... */\n      swap4\n      swap3\n      pop\n      pop\n      pop\n      jump\t// out\n        /* \"SafeBEP20.sol\":3145:3908  function _callOptionalReturn(IBEP20 token, bytes memory data) private {... */\n    tag_227:\n        /* \"SafeBEP20.sol\":3564:3587  bytes memory returndata */\n      0x60\n        /* \"SafeBEP20.sol\":3590:3659  address(token).functionCall(data, 'SafeBEP20: low-level call failed') */\n      tag_266\n        /* \"SafeBEP20.sol\":3618:3622  data */\n      dup3\n        /* \"SafeBEP20.sol\":3590:3659  address(token).functionCall(data, 'SafeBEP20: low-level call failed') */\n      mload(0x40)\n      dup1\n      0x40\n      add\n      0x40\n      mstore\n      dup1\n      0x20\n      dup2\n      mstore\n      0x20\n      add\n      0x5361666542455032303a206c6f772d6c6576656c2063616c6c206661696c6564\n      dup2\n      mstore\n      pop\n        /* \"SafeBEP20.sol\":3598:3603  token */\n      dup6\n        /* \"SafeBEP20.sol\":3590:3617  address(token).functionCall */\n      0xffffffffffffffffffffffffffffffffffffffff\n      and\n      tag_267\n      swap1\n        /* \"SafeBEP20.sol\":3590:3659  address(token).functionCall(data, 'SafeBEP20: low-level call failed') */\n      swap3\n      swap2\n      swap1\n      0xffffffff\n      and\n      jump\t// in\n    tag_266:\n        /* \"SafeBEP20.sol\":3564:3659  bytes memory returndata = address(token).functionCall(data, 'SafeBEP20: low-level call failed') */\n      swap1\n      pop\n        /* \"SafeBEP20.sol\":3693:3694  0 */\n      0x00\n        /* \"SafeBEP20.sol\":3673:3683  returndata */\n      dup2\n        /* \"SafeBEP20.sol\":3673:3690  returndata.length */\n      mload\n        /* \"SafeBEP20.sol\":3673:3694  returndata.length > 0 */\n      gt\n        /* \"SafeBEP20.sol\":3669:3902  if (returndata.length > 0) {... */\n      iszero\n      tag_268\n      jumpi\n        /* \"SafeBEP20.sol\":3825:3835  returndata */\n      dup1\n        /* \"SafeBEP20.sol\":3814:3844  abi.decode(returndata, (bool)) */\n      dup1\n      0x20\n      add\n      swap1\n      mload\n      0x20\n      dup2\n      lt\n      iszero\n      tag_269\n      jumpi\n      0x00\n      dup1\n      revert\n    tag_269:\n      dup2\n      add\n      swap1\n      dup1\n      dup1\n      mload\n      swap1\n      0x20\n      add\n      swap1\n      swap3\n      swap2\n      swap1\n      pop\n      pop\n      pop\n        /* \"SafeBEP20.sol\":3806:3891  require(abi.decode(returndata, (bool)), 'SafeBEP20: BEP20 operation did not succeed') */\n      tag_270\n      jumpi\n      mload(0x40)\n      0x08c379a000000000000000000000000000000000000000000000000000000000\n      dup2\n      mstore\n      0x04\n      add\n      dup1\n      dup1\n      0x20\n      add\n      dup3\n      dup2\n      sub\n      dup3\n      mstore\n      0x2a\n      dup2\n      mstore\n      0x20\n      add\n      dup1\n      data_21c3364d55537bf20eb8f05374e9f53f47299e1883c412f1f1135f398f2c2082\n      0x2a\n      swap2\n      codecopy\n      0x40\n      add\n      swap2\n      pop\n      pop\n      mload(0x40)\n      dup1\n      swap2\n      sub\n      swap1\n      revert\n    tag_270:\n        /* \"SafeBEP20.sol\":3669:3902  if (returndata.length > 0) {... */\n    tag_268:\n        /* \"SafeBEP20.sol\":3145:3908  function _callOptionalReturn(IBEP20 token, bytes memory data) private {... */\n      pop\n      pop\n      pop\n      jump\t// out\n        /* \"SafeMath.sol\":3744:4046  function div(... */\n    tag_234:\n        /* \"SafeMath.sol\":3860:3867  uint256 */\n      0x00\n        /* \"SafeMath.sol\":3891:3892  0 */\n      dup1\n        /* \"SafeMath.sol\":3887:3888  b */\n      dup4\n        /* \"SafeMath.sol\":3887:3892  b > 0 */\n      gt\n        /* \"SafeMath.sol\":3894:3906  errorMessage */\n      dup3\n        /* \"SafeMath.sol\":3879:3907  require(b > 0, errorMessage) */\n      swap1\n      tag_272\n      jumpi\n      mload(0x40)\n      0x08c379a000000000000000000000000000000000000000000000000000000000\n      dup2\n      mstore\n      0x04\n      add\n      dup1\n      dup1\n      0x20\n      add\n      dup3\n      dup2\n      sub\n      dup3\n      mstore\n      dup4\n      dup2\n      dup2\n      mload\n      dup2\n      mstore\n      0x20\n      add\n      swap2\n      pop\n      dup1\n      mload\n      swap1\n      0x20\n      add\n      swap1\n      dup1\n      dup4\n      dup4\n      0x00\n    tag_273:\n      dup4\n      dup2\n      lt\n      iszero\n      tag_275\n      jumpi\n      dup1\n      dup3\n      add\n      mload\n      dup2\n      dup5\n      add\n      mstore\n      0x20\n      dup2\n      add\n      swap1\n      pop\n      jump(tag_273)\n    tag_275:\n      pop\n      pop\n      pop\n      pop\n      swap1\n      pop\n      swap1\n      dup2\n      add\n      swap1\n      0x1f\n      and\n      dup1\n      iszero\n      tag_276\n      jumpi\n      dup1\n      dup3\n      sub\n      dup1\n      mload\n      0x01\n      dup4\n      0x20\n      sub\n      0x0100\n      exp\n      sub\n      not\n      and\n      dup2\n      mstore\n      0x20\n      add\n      swap2\n      pop\n    tag_276:\n      pop\n      swap3\n      pop\n      pop\n      pop\n      mload(0x40)\n      dup1\n      swap2\n      sub\n      swap1\n      revert\n    tag_272:\n      pop\n        /* \"SafeMath.sol\":3917:3926  uint256 c */\n      0x00\n        /* \"SafeMath.sol\":3933:3934  b */\n      dup4\n        /* \"SafeMath.sol\":3929:3930  a */\n      dup6\n        /* \"SafeMath.sol\":3929:3934  a / b */\n      dup2\n      tag_277\n      jumpi\n      invalid\n    tag_277:\n      div\n        /* \"SafeMath.sol\":3917:3934  uint256 c = a / b */\n      swap1\n      pop\n        /* \"SafeMath.sol\":4038:4039  c */\n      dup1\n        /* \"SafeMath.sol\":4031:4039  return c */\n      swap2\n      pop\n      pop\n        /* \"SafeMath.sol\":3744:4046  function div(... */\n      swap4\n      swap3\n      pop\n      pop\n      pop\n      jump\t// out\n        /* \"Address.sol\":3790:4014  function functionCall(... */\n    tag_267:\n        /* \"Address.sol\":3923:3935  bytes memory */\n      0x60\n        /* \"Address.sol\":3954:4007  _functionCallWithValue(target, data, 0, errorMessage) */\n      tag_279\n        /* \"Address.sol\":3977:3983  target */\n      dup5\n        /* \"Address.sol\":3985:3989  data */\n      dup5\n        /* \"Address.sol\":3991:3992  0 */\n      0x00\n        /* \"Address.sol\":3994:4006  errorMessage */\n      dup6\n        /* \"Address.sol\":3954:3976  _functionCallWithValue */\n      tag_280\n        /* \"Address.sol\":3954:4007  _functionCallWithValue(target, data, 0, errorMessage) */\n      jump\t// in\n    tag_279:\n        /* \"Address.sol\":3947:4007  return _functionCallWithValue(target, data, 0, errorMessage) */\n      swap1\n      pop\n        /* \"Address.sol\":3790:4014  function functionCall(... */\n      swap4\n      swap3\n      pop\n      pop\n      pop\n      jump\t// out\n        /* \"Address.sol\":5235:6229  function _functionCallWithValue(... */\n    tag_280:\n        /* \"Address.sol\":5403:5415  bytes memory */\n      0x60\n        /* \"Address.sol\":5435:5453  isContract(target) */\n      tag_282\n        /* \"Address.sol\":5446:5452  target */\n      dup6\n        /* \"Address.sol\":5435:5445  isContract */\n      tag_283\n        /* \"Address.sol\":5435:5453  isContract(target) */\n      jump\t// in\n    tag_282:\n        /* \"Address.sol\":5427:5487  require(isContract(target), 'Address: call to non-contract') */\n      tag_284\n      jumpi\n      mload(0x40)\n      0x08c379a000000000000000000000000000000000000000000000000000000000\n      dup2\n      mstore\n      0x04\n      add\n      dup1\n      dup1\n      0x20\n      add\n      dup3\n      dup2\n      sub\n      dup3\n      mstore\n      0x1d\n      dup2\n      mstore\n      0x20\n      add\n      dup1\n      0x416464726573733a2063616c6c20746f206e6f6e2d636f6e7472616374000000\n      dup2\n      mstore\n      pop\n      0x20\n      add\n      swap2\n      pop\n      pop\n      mload(0x40)\n      dup1\n      swap2\n      sub\n      swap1\n      revert\n    tag_284:\n        /* \"Address.sol\":5558:5570  bool success */\n      0x00\n        /* \"Address.sol\":5572:5595  bytes memory returndata */\n      0x60\n        /* \"Address.sol\":5599:5605  target */\n      dup7\n        /* \"Address.sol\":5599:5610  target.call */\n      0xffffffffffffffffffffffffffffffffffffffff\n      and\n        /* \"Address.sol\":5618:5626  weiValue */\n      dup6\n        /* \"Address.sol\":5628:5632  data */\n      dup8\n        /* \"Address.sol\":5599:5633  target.call{value: weiValue}(data) */\n      mload(0x40)\n      dup1\n      dup3\n      dup1\n      mload\n      swap1\n      0x20\n      add\n      swap1\n      dup1\n      dup4\n      dup4\n    tag_285:\n      0x20\n      dup4\n      lt\n      tag_287\n      jumpi\n      dup1\n      mload\n      dup3\n      mstore\n      0x20\n      dup3\n      add\n      swap2\n      pop\n      0x20\n      dup2\n      add\n      swap1\n      pop\n      0x20\n      dup4\n      sub\n      swap3\n      pop\n      jump(tag_285)\n    tag_287:\n      0x01\n      dup4\n      0x20\n      sub\n      0x0100\n      exp\n      sub\n      dup1\n      not\n      dup3\n      mload\n      and\n      dup2\n      dup5\n      mload\n      and\n      dup1\n      dup3\n      or\n      dup6\n      mstore\n      pop\n      pop\n      pop\n      pop\n      pop\n      pop\n      swap1\n      pop\n      add\n      swap2\n      pop\n      pop\n      0x00\n      mload(0x40)\n      dup1\n      dup4\n      sub\n      dup2\n      dup6\n      dup8\n      gas\n      call\n      swap3\n      pop\n      pop\n      pop\n      returndatasize\n      dup1\n      0x00\n      dup2\n      eq\n      tag_290\n      jumpi\n      mload(0x40)\n      swap2\n      pop\n      and(add(returndatasize, 0x3f), not(0x1f))\n      dup3\n      add\n      0x40\n      mstore\n      returndatasize\n      dup3\n      mstore\n      returndatasize\n      0x00\n      0x20\n      dup5\n      add\n      returndatacopy\n      jump(tag_289)\n    tag_290:\n      0x60\n      swap2\n      pop\n    tag_289:\n      pop\n        /* \"Address.sol\":5557:5633  (bool success, bytes memory returndata) = target.call{value: weiValue}(data) */\n      swap2\n      pop\n      swap2\n      pop\n        /* \"Address.sol\":5647:5654  success */\n      dup2\n        /* \"Address.sol\":5643:6223  if (success) {... */\n      iszero\n      tag_291\n      jumpi\n        /* \"Address.sol\":5677:5687  returndata */\n      dup1\n        /* \"Address.sol\":5670:5687  return returndata */\n      swap3\n      pop\n      pop\n      pop\n      jump(tag_281)\n        /* \"Address.sol\":5643:6223  if (success) {... */\n    tag_291:\n        /* \"Address.sol\":5808:5809  0 */\n      0x00\n        /* \"Address.sol\":5788:5798  returndata */\n      dup2\n        /* \"Address.sol\":5788:5805  returndata.length */\n      mload\n        /* \"Address.sol\":5788:5809  returndata.length > 0 */\n      gt\n        /* \"Address.sol\":5784:6213  if (returndata.length > 0) {... */\n      iszero\n      tag_293\n      jumpi\n        /* \"Address.sol\":6046:6056  returndata */\n      dup1\n        /* \"Address.sol\":6040:6057  mload(returndata) */\n      mload\n        /* \"Address.sol\":6106:6121  returndata_size */\n      dup1\n        /* \"Address.sol\":6093:6103  returndata */\n      dup3\n        /* \"Address.sol\":6089:6091  32 */\n      0x20\n        /* \"Address.sol\":6085:6104  add(32, returndata) */\n      add\n        /* \"Address.sol\":6078:6122  revert(add(32, returndata), returndata_size) */\n      revert\n        /* \"Address.sol\":5995:6140  {... */\n    tag_293:\n        /* \"Address.sol\":6185:6197  errorMessage */\n      dup4\n        /* \"Address.sol\":6178:6198  revert(errorMessage) */\n      mload(0x40)\n      0x08c379a000000000000000000000000000000000000000000000000000000000\n      dup2\n      mstore\n      0x04\n      add\n      dup1\n      dup1\n      0x20\n      add\n      dup3\n      dup2\n      sub\n      dup3\n      mstore\n      dup4\n      dup2\n      dup2\n      mload\n      dup2\n      mstore\n      0x20\n      add\n      swap2\n      pop\n      dup1\n      mload\n      swap1\n      0x20\n      add\n      swap1\n      dup1\n      dup4\n      dup4\n      0x00\n    tag_295:\n      dup4\n      dup2\n      lt\n      iszero\n      tag_297\n      jumpi\n      dup1\n      dup3\n      add\n      mload\n      dup2\n      dup5\n      add\n      mstore\n      0x20\n      dup2\n      add\n      swap1\n      pop\n      jump(tag_295)\n    tag_297:\n      pop\n      pop\n      pop\n      pop\n      swap1\n      pop\n      swap1\n      dup2\n      add\n      swap1\n      0x1f\n      and\n      dup1\n      iszero\n      tag_298\n      jumpi\n      dup1\n      dup3\n      sub\n      dup1\n      mload\n      0x01\n      dup4\n      0x20\n      sub\n      0x0100\n      exp\n      sub\n      not\n      and\n      dup2\n      mstore\n      0x20\n      add\n      swap2\n      pop\n    tag_298:\n      pop\n      swap3\n      pop\n      pop\n      pop\n      mload(0x40)\n      dup1\n      swap2\n      sub\n      swap1\n      revert\n        /* \"Address.sol\":5235:6229  function _functionCallWithValue(... */\n    tag_281:\n      swap5\n      swap4\n      pop\n      pop\n      pop\n      pop\n      jump\t// out\n        /* \"Address.sol\":718:1348  function isContract(address account) internal view returns (bool) {... */\n    tag_283:\n        /* \"Address.sol\":778:782  bool */\n      0x00\n        /* \"Address.sol\":1036:1052  bytes32 codehash */\n      dup1\n        /* \"Address.sol\":1062:1081  bytes32 accountHash */\n      0x00\n        /* \"Address.sol\":1084:1150  0xc5d2460186f7233c927e7db2dcc703c0e500b653ca82273b7bfad8045d85a470 */\n      0xc5d2460186f7233c927e7db2dcc703c0e500b653ca82273b7bfad8045d85a470\n        /* \"Address.sol\":1062:1150  bytes32 accountHash = 0xc5d2460186f7233c927e7db2dcc703c0e500b653ca82273b7bfad8045d85a470 */\n      0x00\n      shl\n      swap1\n      pop\n        /* \"Address.sol\":1263:1270  account */\n      dup4\n        /* \"Address.sol\":1251:1271  extcodehash(account) */\n      extcodehash\n        /* \"Address.sol\":1239:1271  codehash := extcodehash(account) */\n      swap2\n      pop\n        /* \"Address.sol\":1310:1321  accountHash */\n      dup1\n        /* \"Address.sol\":1298:1306  codehash */\n      dup3\n        /* \"Address.sol\":1298:1321  codehash != accountHash */\n      eq\n      iszero\n        /* \"Address.sol\":1298:1340  codehash != accountHash && codehash != 0x0 */\n      dup1\n      iszero\n      tag_300\n      jumpi\n      pop\n        /* \"Address.sol\":1337:1340  0x0 */\n      0x00\n        /* \"Address.sol\":1325:1340  codehash != 0x0 */\n      dup1\n      shl\n        /* \"Address.sol\":1325:1333  codehash */\n      dup3\n        /* \"Address.sol\":1325:1340  codehash != 0x0 */\n      eq\n      iszero\n        /* \"Address.sol\":1298:1340  codehash != accountHash && codehash != 0x0 */\n    tag_300:\n        /* \"Address.sol\":1290:1341  return (codehash != accountHash && codehash != 0x0) */\n      swap3\n      pop\n      pop\n      pop\n        /* \"Address.sol\":718:1348  function isContract(address account) internal view returns (bool) {... */\n      swap2\n      swap1\n      pop\n      jump\t// out\n    stop\n    data_21c3364d55537bf20eb8f05374e9f53f47299e1883c412f1f1135f398f2c2082 5361666542455032303a204245503230206f7065726174696f6e20646964206e6f742073756363656564\n    data_245f15ff17f551913a7a18385165551503906a406f905ac1c2437281a7cd0cfe 4f776e61626c653a206e6577206f776e657220697320746865207a65726f2061646472657373\n    data_2a7e0e7f8bc79ffac7125960112eaea13c804910c2e58b65c50e00aacc68de0e 73616665506c756d5472616e736665723a207472616e73666572206661696c65642e\n    data_860bc997e53dcbe73d4588d7f05f563f62c6991e60126900efa3e3c9b5bff139 757064617465207374617274626c6f636b3a206e657720737461727420626c6f636b206d7573742062652061667465722070726576696f757320737461727420626c6f636b\n    data_9113bb53c2876a3805b2c9242029423fc540a728243ce887ab24c82cf119fba3 536166654d6174683a206d756c7469706c69636174696f6e206f766572666c6f77\n    data_bf35de78f3e15a98c58afdc189c393a6a76029783bd8ecfd3a8b87b4a628fd85 676574506f6f6c4964466f724c70546f6b656e3a20646f206e6f74206578697374\n    data_defd5c903b3416581b5d98f5a021e4c2963664705201c58ffb06423da9b1f891 6465706f7369743a207374616b696e6720706572696f642068617320656e646564\n\n    auxdata: 0xa26469706673582212205d9fd4dc2dce727072ccefdf656cfda8cefd9b1643fea4bcce8a08bf38af55b064736f6c634300060c0033\n}\n","bytecode":{"linkReferences":{},"object":"6080604052670de0b6b3a76400006003553480156200001d57600080fd5b5060405162002b9738038062002b97833981810160405260408110156200004357600080fd5b8101908080519060200190929190805190602001909291905050506000620000706200018860201b60201c565b9050806000806101000a81548173ffffffffffffffffffffffffffffffffffffffff021916908373ffffffffffffffffffffffffffffffffffffffff1602179055508073ffffffffffffffffffffffffffffffffffffffff16600073ffffffffffffffffffffffffffffffffffffffff167f8be0079c531659141344cd1fd0a4f28419497f9722a3daafe3b4186f6b6457e060405160405180910390a3506001808190555081600260006101000a81548173ffffffffffffffffffffffffffffffffffffffff021916908373ffffffffffffffffffffffffffffffffffffffff160217905550806005819055506200017a620d2f00826200019060201b62001ab81790919060201c565b600481905550505062000219565b600033905090565b6000808284019050838110156200020f576040517f08c379a000000000000000000000000000000000000000000000000000000000815260040180806020018281038252601b8152602001807f536166654d6174683a206164646974696f6e206f766572666c6f77000000000081525060200191505060405180910390fd5b8091505092915050565b61296e80620002296000396000f3fe608060405234801561001057600080fd5b50600436106101375760003560e01c8063715018a6116100b85780639bf62f7e1161007c5780639bf62f7e14610472578063c100710d146104ca578063cbd258b51461052c578063e2bbb15814610586578063f2fde38b146105be578063fac2b9ba1461060257610137565b8063715018a61461035857806371811c3f146103625780638da5cb5b146103825780638dbb1e3a146103b657806393f1a40b1461040257610137565b806351eb05a6116100ff57806351eb05a61461026e5780635312ea8e1461029c578063630b5ba1146102ca5780636621d3ba146102d45780636e9834661461030857610137565b8063081e3eda1461013c5780631526fe271461015a578063190f39f0146101c0578063267c333814610218578063441a3e7014610236575b600080fd5b610144610630565b6040518082815260200191505060405180910390f35b6101866004803603602081101561017057600080fd5b810190808035906020019092919050505061063d565b604051808473ffffffffffffffffffffffffffffffffffffffff168152602001838152602001828152602001935050505060405180910390f35b610202600480360360208110156101d657600080fd5b81019080803573ffffffffffffffffffffffffffffffffffffffff169060200190929190505050610694565b6040518082815260200191505060405180910390f35b610220610786565b6040518082815260200191505060405180910390f35b61026c6004803603604081101561024c57600080fd5b81019080803590602001909291908035906020019092919050505061078c565b005b61029a6004803603602081101561028457600080fd5b8101908080359060200190929190505050610a1a565b005b6102c8600480360360208110156102b257600080fd5b8101908080359060200190929190505050610c6b565b005b6102d2610e25565b005b6102dc610e52565b604051808273ffffffffffffffffffffffffffffffffffffffff16815260200191505060405180910390f35b6103566004803603604081101561031e57600080fd5b81019080803573ffffffffffffffffffffffffffffffffffffffff169060200190929190803515159060200190929190505050610e78565b005b61036061118b565b005b61036a611311565b60405180821515815260200191505060405180910390f35b61038a61131e565b604051808273ffffffffffffffffffffffffffffffffffffffff16815260200191505060405180910390f35b6103ec600480360360408110156103cc57600080fd5b810190808035906020019092919080359060200190929190505050611347565b6040518082815260200191505060405180910390f35b61044e6004803603604081101561041857600080fd5b8101908080359060200190929190803573ffffffffffffffffffffffffffffffffffffffff169060200190929190505050611364565b60405180848152602001838152602001828152602001935050505060405180910390f35b6104b46004803603602081101561048857600080fd5b81019080803573ffffffffffffffffffffffffffffffffffffffff16906020019092919050505061139b565b6040518082815260200191505060405180910390f35b610516600480360360408110156104e057600080fd5b8101908080359060200190929190803573ffffffffffffffffffffffffffffffffffffffff1690602001909291905050506113b3565b6040518082815260200191505060405180910390f35b61056e6004803603602081101561054257600080fd5b81019080803573ffffffffffffffffffffffffffffffffffffffff1690602001909291905050506115f8565b60405180821515815260200191505060405180910390f35b6105bc6004803603604081101561059c57600080fd5b810190808035906020019092919080359060200190929190505050611618565b005b610600600480360360208110156105d457600080fd5b81019080803573ffffffffffffffffffffffffffffffffffffffff169060200190929190505050611895565b005b61062e6004803603602081101561061857600080fd5b8101908080359060200190929190505050611969565b005b6000600680549050905090565b6006818154811061064a57fe5b90600052602060002090600302016000915090508060000160009054906101000a900473ffffffffffffffffffffffffffffffffffffffff16908060010154908060020154905083565b6000801515600860008473ffffffffffffffffffffffffffffffffffffffff1673ffffffffffffffffffffffffffffffffffffffff16815260200190815260200160002060009054906101000a900460ff161515141561073f576040517f08c379a00000000000000000000000000000000000000000000000000000000081526004018080602001828103825260218152602001806128f76021913960400191505060405180910390fd5b600960008373ffffffffffffffffffffffffffffffffffffffff1673ffffffffffffffffffffffffffffffffffffffff168152602001908152602001600020549050919050565b60035481565b60026001541415610805576040517f08c379a000000000000000000000000000000000000000000000000000000000815260040180806020018281038252601f8152602001807f5265656e7472616e637947756172643a207265656e7472616e742063616c6c0081525060200191505060405180910390fd5b600260018190555060006006838154811061081c57fe5b9060005260206000209060030201905060006007600085815260200190815260200160002060003373ffffffffffffffffffffffffffffffffffffffff1673ffffffffffffffffffffffffffffffffffffffff168152602001908152602001600020905082816000015410156108fa576040517f08c379a00000000000000000000000000000000000000000000000000000000081526004018080602001828103825260128152602001807f77697468647261773a206e6f7420676f6f64000000000000000000000000000081525060200191505060405180910390fd5b61090384610a1a565b61090c84611b40565b60008311156109845761092c838260000154611c8a90919063ffffffff16565b816000018190555061098333848460000160009054906101000a900473ffffffffffffffffffffffffffffffffffffffff1673ffffffffffffffffffffffffffffffffffffffff16611cd49092919063ffffffff16565b5b6109b664e8d4a510006109a884600201548460000154611d7690919063ffffffff16565b611dfc90919063ffffffff16565b8160010181905550833373ffffffffffffffffffffffffffffffffffffffff167ff279e6a1f5e320cca91135676d9cb6e44ca8a08c0b88342bcdb1144f6511b568856040518082815260200191505060405180910390a35050600180819055505050565b600060068281548110610a2957fe5b906000526020600020906003020190506000610a43611e46565b905081600101548111610a57575050610c68565b60008260000160009054906101000a900473ffffffffffffffffffffffffffffffffffffffff1673ffffffffffffffffffffffffffffffffffffffff166370a08231306040518263ffffffff1660e01b8152600401808273ffffffffffffffffffffffffffffffffffffffff16815260200191505060206040518083038186803b158015610ae457600080fd5b505afa158015610af8573d6000803e3d6000fd5b505050506040513d6020811015610b0e57600080fd5b810190808051906020019092919050505090506000811415610b3b57818360010181905550505050610c68565b6000610b4b846001015484611347565b90506000610b6460035483611d7690919063ffffffff16565b9050600260009054906101000a900473ffffffffffffffffffffffffffffffffffffffff1673ffffffffffffffffffffffffffffffffffffffff166340c10f1930836040518363ffffffff1660e01b8152600401808373ffffffffffffffffffffffffffffffffffffffff16815260200182815260200192505050600060405180830381600087803b158015610bf957600080fd5b505af1158015610c0d573d6000803e3d6000fd5b50505050610c51610c3e84610c3064e8d4a5100085611d7690919063ffffffff16565b611dfc90919063ffffffff16565b8660020154611ab890919063ffffffff16565b856002018190555083856001018190555050505050505b50565b60026001541415610ce4576040517f08c379a000000000000000000000000000000000000000000000000000000000815260040180806020018281038252601f8152602001807f5265656e7472616e637947756172643a207265656e7472616e742063616c6c0081525060200191505060405180910390fd5b6002600181905550600060068281548110610cfb57fe5b9060005260206000209060030201905060006007600084815260200190815260200160002060003373ffffffffffffffffffffffffffffffffffffffff1673ffffffffffffffffffffffffffffffffffffffff1681526020019081526020016000209050610db23382600001548460000160009054906101000a900473ffffffffffffffffffffffffffffffffffffffff1673ffffffffffffffffffffffffffffffffffffffff16611cd49092919063ffffffff16565b823373ffffffffffffffffffffffffffffffffffffffff167fbb757047c2b5f3974fe26b7c10f732e7bce710b0952a71082702781e62ae059583600001546040518082815260200191505060405180910390a3600081600001819055506000816001018190555050506001808190555050565b6000600680549050905060005b81811015610e4e57610e4381610a1a565b806001019050610e32565b5050565b600260009054906101000a900473ffffffffffffffffffffffffffffffffffffffff1681565b610e80611e60565b73ffffffffffffffffffffffffffffffffffffffff1660008054906101000a900473ffffffffffffffffffffffffffffffffffffffff1673ffffffffffffffffffffffffffffffffffffffff1614610f40576040517f08c379a00000000000000000000000000000000000000000000000000000000081526004018080602001828103825260208152602001807f4f776e61626c653a2063616c6c6572206973206e6f7420746865206f776e657281525060200191505060405180910390fd5b8160001515600860008373ffffffffffffffffffffffffffffffffffffffff1673ffffffffffffffffffffffffffffffffffffffff16815260200190815260200160002060009054906101000a900460ff16151514611007576040517f08c379a00000000000000000000000000000000000000000000000000000000081526004018080602001828103825260198152602001807f6e6f6e4475706c6963617465643a206475706c6963617465640000000000000081525060200191505060405180910390fd5b811561101657611015610e25565b5b6001600860008573ffffffffffffffffffffffffffffffffffffffff1673ffffffffffffffffffffffffffffffffffffffff16815260200190815260200160002060006101000a81548160ff021916908315150217905550600660405180606001604052808573ffffffffffffffffffffffffffffffffffffffff16815260200160055443116110a8576005546110aa565b435b81526020016000815250908060018154018082558091505060019003906000526020600020906003020160009091909190915060008201518160000160006101000a81548173ffffffffffffffffffffffffffffffffffffffff021916908373ffffffffffffffffffffffffffffffffffffffff16021790555060208201518160010155604082015181600201555050600160068054905003600960008573ffffffffffffffffffffffffffffffffffffffff1673ffffffffffffffffffffffffffffffffffffffff16815260200190815260200160002081905550505050565b611193611e60565b73ffffffffffffffffffffffffffffffffffffffff1660008054906101000a900473ffffffffffffffffffffffffffffffffffffffff1673ffffffffffffffffffffffffffffffffffffffff1614611253576040517f08c379a00000000000000000000000000000000000000000000000000000000081526004018080602001828103825260208152602001807f4f776e61626c653a2063616c6c6572206973206e6f7420746865206f776e657281525060200191505060405180910390fd5b600073ffffffffffffffffffffffffffffffffffffffff1660008054906101000a900473ffffffffffffffffffffffffffffffffffffffff1673ffffffffffffffffffffffffffffffffffffffff167f8be0079c531659141344cd1fd0a4f28419497f9722a3daafe3b4186f6b6457e060405160405180910390a360008060006101000a81548173ffffffffffffffffffffffffffffffffffffffff021916908373ffffffffffffffffffffffffffffffffffffffff160217905550565b6000600554431015905090565b60008060009054906101000a900473ffffffffffffffffffffffffffffffffffffffff16905090565b600061135c8383611c8a90919063ffffffff16565b905092915050565b6007602052816000526040600020602052806000526040600020600091509150508060000154908060010154908060020154905083565b60096020528060005260406000206000915090505481565b600080600684815481106113c357fe5b9060005260206000209060030201905060006007600086815260200190815260200160002060008573ffffffffffffffffffffffffffffffffffffffff1673ffffffffffffffffffffffffffffffffffffffff168152602001908152602001600020905060008260020154905060008360000160009054906101000a900473ffffffffffffffffffffffffffffffffffffffff1673ffffffffffffffffffffffffffffffffffffffff166370a08231306040518263ffffffff1660e01b8152600401808273ffffffffffffffffffffffffffffffffffffffff16815260200191505060206040518083038186803b1580156114bd57600080fd5b505afa1580156114d1573d6000803e3d6000fd5b505050506040513d60208110156114e757600080fd5b810190808051906020019092919050505090506000611504611e46565b905084600101548111801561151a575060008214155b1561158b57600061152f866001015483611347565b9050600061154860035483611d7690919063ffffffff16565b90506115866115778561156964e8d4a5100085611d7690919063ffffffff16565b611dfc90919063ffffffff16565b86611ab890919063ffffffff16565b945050505b60006115d185600101546115c364e8d4a510006115b5888a60000154611d7690919063ffffffff16565b611dfc90919063ffffffff16565b611c8a90919063ffffffff16565b90506115ea856002015482611ab890919063ffffffff16565b965050505050505092915050565b60086020528060005260406000206000915054906101000a900460ff1681565b60026001541415611691576040517f08c379a000000000000000000000000000000000000000000000000000000000815260040180806020018281038252601f8152602001807f5265656e7472616e637947756172643a207265656e7472616e742063616c6c0081525060200191505060405180910390fd5b600260018190555060006004541115611700576004544311156116ff576040517f08c379a00000000000000000000000000000000000000000000000000000000081526004018080602001828103825260218152602001806129186021913960400191505060405180910390fd5b5b60006006838154811061170f57fe5b9060005260206000209060030201905060006007600085815260200190815260200160002060003373ffffffffffffffffffffffffffffffffffffffff1673ffffffffffffffffffffffffffffffffffffffff168152602001908152602001600020905061177c84610a1a565b61178584611b40565b60008311156117ff576117df3330858560000160009054906101000a900473ffffffffffffffffffffffffffffffffffffffff1673ffffffffffffffffffffffffffffffffffffffff16611e68909392919063ffffffff16565b6117f6838260000154611ab890919063ffffffff16565b81600001819055505b61183164e8d4a5100061182384600201548460000154611d7690919063ffffffff16565b611dfc90919063ffffffff16565b8160010181905550833373ffffffffffffffffffffffffffffffffffffffff167f90890809c654f11d6e72a28fa60149770a0d11ec6c92319d6ceb2bb0a4ea1a15856040518082815260200191505060405180910390a35050600180819055505050565b61189d611e60565b73ffffffffffffffffffffffffffffffffffffffff1660008054906101000a900473ffffffffffffffffffffffffffffffffffffffff1673ffffffffffffffffffffffffffffffffffffffff161461195d576040517f08c379a00000000000000000000000000000000000000000000000000000000081526004018080602001828103825260208152602001807f4f776e61626c653a2063616c6c6572206973206e6f7420746865206f776e657281525060200191505060405180910390fd5b61196681611f29565b50565b611971611e60565b73ffffffffffffffffffffffffffffffffffffffff1660008054906101000a900473ffffffffffffffffffffffffffffffffffffffff1673ffffffffffffffffffffffffffffffffffffffff1614611a31576040517f08c379a00000000000000000000000000000000000000000000000000000000081526004018080602001828103825260208152602001807f4f776e61626c653a2063616c6c6572206973206e6f7420746865206f776e657281525060200191505060405180910390fd5b6005548111611a8b576040517f08c379a00000000000000000000000000000000000000000000000000000000081526004018080602001828103825260458152602001806128916045913960600191505060405180910390fd5b60006006600081548110611a9b57fe5b906000526020600020906003020190508181600101819055505050565b600080828401905083811015611b36576040517f08c379a000000000000000000000000000000000000000000000000000000000815260040180806020018281038252601b8152602001807f536166654d6174683a206164646974696f6e206f766572666c6f77000000000081525060200191505060405180910390fd5b8091505092915050565b600060068281548110611b4f57fe5b9060005260206000209060030201905060006007600084815260200190815260200160002060003373ffffffffffffffffffffffffffffffffffffffff1673ffffffffffffffffffffffffffffffffffffffff16815260200190815260200160002090506000611bfd8260010154611bef64e8d4a51000611be187600201548760000154611d7690919063ffffffff16565b611dfc90919063ffffffff16565b611c8a90919063ffffffff16565b9050611c07611311565b15611c5a576000811180611c1f575060008260020154115b15611c55576000611c3d836002015483611ab890919063ffffffff16565b905060008360020181905550611c53338261206c565b505b611c84565b6000811115611c8357611c7a818360020154611ab890919063ffffffff16565b82600201819055505b5b50505050565b6000611ccc83836040518060400160405280601e81526020017f536166654d6174683a207375627472616374696f6e206f766572666c6f770000815250612340565b905092915050565b611d718363a9059cbb60e01b8484604051602401808373ffffffffffffffffffffffffffffffffffffffff16815260200182815260200192505050604051602081830303815290604052907bffffffffffffffffffffffffffffffffffffffffffffffffffffffff19166020820180517bffffffffffffffffffffffffffffffffffffffffffffffffffffffff8381831617835250505050612400565b505050565b600080831415611d895760009050611df6565b6000828402905082848281611d9a57fe5b0414611df1576040517f08c379a00000000000000000000000000000000000000000000000000000000081526004018080602001828103825260218152602001806128d66021913960400191505060405180910390fd5b809150505b92915050565b6000611e3e83836040518060400160405280601a81526020017f536166654d6174683a206469766973696f6e206279207a65726f0000000000008152506124ef565b905092915050565b60006004544311611e575743611e5b565b6004545b905090565b600033905090565b611f23846323b872dd60e01b858585604051602401808473ffffffffffffffffffffffffffffffffffffffff1681526020018373ffffffffffffffffffffffffffffffffffffffff1681526020018281526020019350505050604051602081830303815290604052907bffffffffffffffffffffffffffffffffffffffffffffffffffffffff19166020820180517bffffffffffffffffffffffffffffffffffffffffffffffffffffffff8381831617835250505050612400565b50505050565b600073ffffffffffffffffffffffffffffffffffffffff168173ffffffffffffffffffffffffffffffffffffffff161415611faf576040517f08c379a00000000000000000000000000000000000000000000000000000000081526004018080602001828103825260268152602001806128496026913960400191505060405180910390fd5b8073ffffffffffffffffffffffffffffffffffffffff1660008054906101000a900473ffffffffffffffffffffffffffffffffffffffff1673ffffffffffffffffffffffffffffffffffffffff167f8be0079c531659141344cd1fd0a4f28419497f9722a3daafe3b4186f6b6457e060405160405180910390a3806000806101000a81548173ffffffffffffffffffffffffffffffffffffffff021916908373ffffffffffffffffffffffffffffffffffffffff16021790555050565b6000600260009054906101000a900473ffffffffffffffffffffffffffffffffffffffff1673ffffffffffffffffffffffffffffffffffffffff166370a08231306040518263ffffffff1660e01b8152600401808273ffffffffffffffffffffffffffffffffffffffff16815260200191505060206040518083038186803b1580156120f757600080fd5b505afa15801561210b573d6000803e3d6000fd5b505050506040513d602081101561212157600080fd5b8101908080519060200190929190505050905060008183111561221357600260009054906101000a900473ffffffffffffffffffffffffffffffffffffffff1673ffffffffffffffffffffffffffffffffffffffff1663a9059cbb85846040518363ffffffff1660e01b8152600401808373ffffffffffffffffffffffffffffffffffffffff16815260200182815260200192505050602060405180830381600087803b1580156121d157600080fd5b505af11580156121e5573d6000803e3d6000fd5b505050506040513d60208110156121fb57600080fd5b810190808051906020019092919050505090506122e4565b600260009054906101000a900473ffffffffffffffffffffffffffffffffffffffff1673ffffffffffffffffffffffffffffffffffffffff1663a9059cbb85856040518363ffffffff1660e01b8152600401808373ffffffffffffffffffffffffffffffffffffffff16815260200182815260200192505050602060405180830381600087803b1580156122a657600080fd5b505af11580156122ba573d6000803e3d6000fd5b505050506040513d60208110156122d057600080fd5b810190808051906020019092919050505090505b8061233a576040517f08c379a000000000000000000000000000000000000000000000000000000000815260040180806020018281038252602281526020018061286f6022913960400191505060405180910390fd5b50505050565b60008383111582906123ed576040517f08c379a00000000000000000000000000000000000000000000000000000000081526004018080602001828103825283818151815260200191508051906020019080838360005b838110156123b2578082015181840152602081019050612397565b50505050905090810190601f1680156123df5780820380516001836020036101000a031916815260200191505b509250505060405180910390fd5b5060008385039050809150509392505050565b6060612462826040518060400160405280602081526020017f5361666542455032303a206c6f772d6c6576656c2063616c6c206661696c65648152508573ffffffffffffffffffffffffffffffffffffffff166125b59092919063ffffffff16565b90506000815111156124ea5780806020019051602081101561248357600080fd5b81019080805190602001909291905050506124e9576040517f08c379a000000000000000000000000000000000000000000000000000000000815260040180806020018281038252602a81526020018061281f602a913960400191505060405180910390fd5b5b505050565b6000808311829061259b576040517f08c379a00000000000000000000000000000000000000000000000000000000081526004018080602001828103825283818151815260200191508051906020019080838360005b83811015612560578082015181840152602081019050612545565b50505050905090810190601f16801561258d5780820380516001836020036101000a031916815260200191505b509250505060405180910390fd5b5060008385816125a757fe5b049050809150509392505050565b60606125c484846000856125cd565b90509392505050565b60606125d8856127d3565b61264a576040517f08c379a000000000000000000000000000000000000000000000000000000000815260040180806020018281038252601d8152602001807f416464726573733a2063616c6c20746f206e6f6e2d636f6e747261637400000081525060200191505060405180910390fd5b600060608673ffffffffffffffffffffffffffffffffffffffff1685876040518082805190602001908083835b6020831061269a5780518252602082019150602081019050602083039250612677565b6001836020036101000a03801982511681845116808217855250505050505090500191505060006040518083038185875af1925050503d80600081146126fc576040519150601f19603f3d011682016040523d82523d6000602084013e612701565b606091505b509150915081156127165780925050506127cb565b6000815111156127295780518082602001fd5b836040517f08c379a00000000000000000000000000000000000000000000000000000000081526004018080602001828103825283818151815260200191508051906020019080838360005b83811015612790578082015181840152602081019050612775565b50505050905090810190601f1680156127bd5780820380516001836020036101000a031916815260200191505b509250505060405180910390fd5b949350505050565b60008060007fc5d2460186f7233c927e7db2dcc703c0e500b653ca82273b7bfad8045d85a47060001b9050833f915080821415801561281557506000801b8214155b9250505091905056fe5361666542455032303a204245503230206f7065726174696f6e20646964206e6f7420737563636565644f776e61626c653a206e6577206f776e657220697320746865207a65726f206164647265737373616665506c756d5472616e736665723a207472616e73666572206661696c65642e757064617465207374617274626c6f636b3a206e657720737461727420626c6f636b206d7573742062652061667465722070726576696f757320737461727420626c6f636b536166654d6174683a206d756c7469706c69636174696f6e206f766572666c6f77676574506f6f6c4964466f724c70546f6b656e3a20646f206e6f742065786973746465706f7369743a207374616b696e6720706572696f642068617320656e646564a26469706673582212205d9fd4dc2dce727072ccefdf656cfda8cefd9b1643fea4bcce8a08bf38af55b064736f6c634300060c0033","opcodes":"PUSH1 0x80 PUSH1 0x40 MSTORE PUSH8 0xDE0B6B3A7640000 PUSH1 0x3 SSTORE CALLVALUE DUP1 ISZERO PUSH3 0x1D JUMPI PUSH1 0x0 DUP1 REVERT JUMPDEST POP PUSH1 0x40 MLOAD PUSH3 0x2B97 CODESIZE SUB DUP1 PUSH3 0x2B97 DUP4 CODECOPY DUP2 DUP2 ADD PUSH1 0x40 MSTORE PUSH1 0x40 DUP2 LT ISZERO PUSH3 0x43 JUMPI PUSH1 0x0 DUP1 REVERT JUMPDEST DUP2 ADD SWAP1 DUP1 DUP1 MLOAD SWAP1 PUSH1 0x20 ADD SWAP1 SWAP3 SWAP2 SWAP1 DUP1 MLOAD SWAP1 PUSH1 0x20 ADD SWAP1 SWAP3 SWAP2 SWAP1 POP POP POP PUSH1 0x0 PUSH3 0x70 PUSH3 0x188 PUSH1 0x20 SHL PUSH1 0x20 SHR JUMP JUMPDEST SWAP1 POP DUP1 PUSH1 0x0 DUP1 PUSH2 0x100 EXP DUP2 SLOAD DUP2 PUSH20 0xFFFFFFFFFFFFFFFFFFFFFFFFFFFFFFFFFFFFFFFF MUL NOT AND SWAP1 DUP4 PUSH20 0xFFFFFFFFFFFFFFFFFFFFFFFFFFFFFFFFFFFFFFFF AND MUL OR SWAP1 SSTORE POP DUP1 PUSH20 0xFFFFFFFFFFFFFFFFFFFFFFFFFFFFFFFFFFFFFFFF AND PUSH1 0x0 PUSH20 0xFFFFFFFFFFFFFFFFFFFFFFFFFFFFFFFFFFFFFFFF AND PUSH32 0x8BE0079C531659141344CD1FD0A4F28419497F9722A3DAAFE3B4186F6B6457E0 PUSH1 0x40 MLOAD PUSH1 0x40 MLOAD DUP1 SWAP2 SUB SWAP1 LOG3 POP PUSH1 0x1 DUP1 DUP2 SWAP1 SSTORE POP DUP2 PUSH1 0x2 PUSH1 0x0 PUSH2 0x100 EXP DUP2 SLOAD DUP2 PUSH20 0xFFFFFFFFFFFFFFFFFFFFFFFFFFFFFFFFFFFFFFFF MUL NOT AND SWAP1 DUP4 PUSH20 0xFFFFFFFFFFFFFFFFFFFFFFFFFFFFFFFFFFFFFFFF AND MUL OR SWAP1 SSTORE POP DUP1 PUSH1 0x5 DUP2 SWAP1 SSTORE POP PUSH3 0x17A PUSH3 0xD2F00 DUP3 PUSH3 0x190 PUSH1 0x20 SHL PUSH3 0x1AB8 OR SWAP1 SWAP2 SWAP1 PUSH1 0x20 SHR JUMP JUMPDEST PUSH1 0x4 DUP2 SWAP1 SSTORE POP POP POP PUSH3 0x219 JUMP JUMPDEST PUSH1 0x0 CALLER SWAP1 POP SWAP1 JUMP JUMPDEST PUSH1 0x0 DUP1 DUP3 DUP5 ADD SWAP1 POP DUP4 DUP2 LT ISZERO PUSH3 0x20F JUMPI PUSH1 0x40 MLOAD PUSH32 0x8C379A000000000000000000000000000000000000000000000000000000000 DUP2 MSTORE PUSH1 0x4 ADD DUP1 DUP1 PUSH1 0x20 ADD DUP3 DUP2 SUB DUP3 MSTORE PUSH1 0x1B DUP2 MSTORE PUSH1 0x20 ADD DUP1 PUSH32 0x536166654D6174683A206164646974696F6E206F766572666C6F770000000000 DUP2 MSTORE POP PUSH1 0x20 ADD SWAP2 POP POP PUSH1 0x40 MLOAD DUP1 SWAP2 SUB SWAP1 REVERT JUMPDEST DUP1 SWAP2 POP POP SWAP3 SWAP2 POP POP JUMP JUMPDEST PUSH2 0x296E DUP1 PUSH3 0x229 PUSH1 0x0 CODECOPY PUSH1 0x0 RETURN INVALID PUSH1 0x80 PUSH1 0x40 MSTORE CALLVALUE DUP1 ISZERO PUSH2 0x10 JUMPI PUSH1 0x0 DUP1 REVERT JUMPDEST POP PUSH1 0x4 CALLDATASIZE LT PUSH2 0x137 JUMPI PUSH1 0x0 CALLDATALOAD PUSH1 0xE0 SHR DUP1 PUSH4 0x715018A6 GT PUSH2 0xB8 JUMPI DUP1 PUSH4 0x9BF62F7E GT PUSH2 0x7C JUMPI DUP1 PUSH4 0x9BF62F7E EQ PUSH2 0x472 JUMPI DUP1 PUSH4 0xC100710D EQ PUSH2 0x4CA JUMPI DUP1 PUSH4 0xCBD258B5 EQ PUSH2 0x52C JUMPI DUP1 PUSH4 0xE2BBB158 EQ PUSH2 0x586 JUMPI DUP1 PUSH4 0xF2FDE38B EQ PUSH2 0x5BE JUMPI DUP1 PUSH4 0xFAC2B9BA EQ PUSH2 0x602 JUMPI PUSH2 0x137 JUMP JUMPDEST DUP1 PUSH4 0x715018A6 EQ PUSH2 0x358 JUMPI DUP1 PUSH4 0x71811C3F EQ PUSH2 0x362 JUMPI DUP1 PUSH4 0x8DA5CB5B EQ PUSH2 0x382 JUMPI DUP1 PUSH4 0x8DBB1E3A EQ PUSH2 0x3B6 JUMPI DUP1 PUSH4 0x93F1A40B EQ PUSH2 0x402 JUMPI PUSH2 0x137 JUMP JUMPDEST DUP1 PUSH4 0x51EB05A6 GT PUSH2 0xFF JUMPI DUP1 PUSH4 0x51EB05A6 EQ PUSH2 0x26E JUMPI DUP1 PUSH4 0x5312EA8E EQ PUSH2 0x29C JUMPI DUP1 PUSH4 0x630B5BA1 EQ PUSH2 0x2CA JUMPI DUP1 PUSH4 0x6621D3BA EQ PUSH2 0x2D4 JUMPI DUP1 PUSH4 0x6E983466 EQ PUSH2 0x308 JUMPI PUSH2 0x137 JUMP JUMPDEST DUP1 PUSH4 0x81E3EDA EQ PUSH2 0x13C JUMPI DUP1 PUSH4 0x1526FE27 EQ PUSH2 0x15A JUMPI DUP1 PUSH4 0x190F39F0 EQ PUSH2 0x1C0 JUMPI DUP1 PUSH4 0x267C3338 EQ PUSH2 0x218 JUMPI DUP1 PUSH4 0x441A3E70 EQ PUSH2 0x236 JUMPI JUMPDEST PUSH1 0x0 DUP1 REVERT JUMPDEST PUSH2 0x144 PUSH2 0x630 JUMP JUMPDEST PUSH1 0x40 MLOAD DUP1 DUP3 DUP2 MSTORE PUSH1 0x20 ADD SWAP2 POP POP PUSH1 0x40 MLOAD DUP1 SWAP2 SUB SWAP1 RETURN JUMPDEST PUSH2 0x186 PUSH1 0x4 DUP1 CALLDATASIZE SUB PUSH1 0x20 DUP2 LT ISZERO PUSH2 0x170 JUMPI PUSH1 0x0 DUP1 REVERT JUMPDEST DUP2 ADD SWAP1 DUP1 DUP1 CALLDATALOAD SWAP1 PUSH1 0x20 ADD SWAP1 SWAP3 SWAP2 SWAP1 POP POP POP PUSH2 0x63D JUMP JUMPDEST PUSH1 0x40 MLOAD DUP1 DUP5 PUSH20 0xFFFFFFFFFFFFFFFFFFFFFFFFFFFFFFFFFFFFFFFF AND DUP2 MSTORE PUSH1 0x20 ADD DUP4 DUP2 MSTORE PUSH1 0x20 ADD DUP3 DUP2 MSTORE PUSH1 0x20 ADD SWAP4 POP POP POP POP PUSH1 0x40 MLOAD DUP1 SWAP2 SUB SWAP1 RETURN JUMPDEST PUSH2 0x202 PUSH1 0x4 DUP1 CALLDATASIZE SUB PUSH1 0x20 DUP2 LT ISZERO PUSH2 0x1D6 JUMPI PUSH1 0x0 DUP1 REVERT JUMPDEST DUP2 ADD SWAP1 DUP1 DUP1 CALLDATALOAD PUSH20 0xFFFFFFFFFFFFFFFFFFFFFFFFFFFFFFFFFFFFFFFF AND SWAP1 PUSH1 0x20 ADD SWAP1 SWAP3 SWAP2 SWAP1 POP POP POP PUSH2 0x694 JUMP JUMPDEST PUSH1 0x40 MLOAD DUP1 DUP3 DUP2 MSTORE PUSH1 0x20 ADD SWAP2 POP POP PUSH1 0x40 MLOAD DUP1 SWAP2 SUB SWAP1 RETURN JUMPDEST PUSH2 0x220 PUSH2 0x786 JUMP JUMPDEST PUSH1 0x40 MLOAD DUP1 DUP3 DUP2 MSTORE PUSH1 0x20 ADD SWAP2 POP POP PUSH1 0x40 MLOAD DUP1 SWAP2 SUB SWAP1 RETURN JUMPDEST PUSH2 0x26C PUSH1 0x4 DUP1 CALLDATASIZE SUB PUSH1 0x40 DUP2 LT ISZERO PUSH2 0x24C JUMPI PUSH1 0x0 DUP1 REVERT JUMPDEST DUP2 ADD SWAP1 DUP1 DUP1 CALLDATALOAD SWAP1 PUSH1 0x20 ADD SWAP1 SWAP3 SWAP2 SWAP1 DUP1 CALLDATALOAD SWAP1 PUSH1 0x20 ADD SWAP1 SWAP3 SWAP2 SWAP1 POP POP POP PUSH2 0x78C JUMP JUMPDEST STOP JUMPDEST PUSH2 0x29A PUSH1 0x4 DUP1 CALLDATASIZE SUB PUSH1 0x20 DUP2 LT ISZERO PUSH2 0x284 JUMPI PUSH1 0x0 DUP1 REVERT JUMPDEST DUP2 ADD SWAP1 DUP1 DUP1 CALLDATALOAD SWAP1 PUSH1 0x20 ADD SWAP1 SWAP3 SWAP2 SWAP1 POP POP POP PUSH2 0xA1A JUMP JUMPDEST STOP JUMPDEST PUSH2 0x2C8 PUSH1 0x4 DUP1 CALLDATASIZE SUB PUSH1 0x20 DUP2 LT ISZERO PUSH2 0x2B2 JUMPI PUSH1 0x0 DUP1 REVERT JUMPDEST DUP2 ADD SWAP1 DUP1 DUP1 CALLDATALOAD SWAP1 PUSH1 0x20 ADD SWAP1 SWAP3 SWAP2 SWAP1 POP POP POP PUSH2 0xC6B JUMP JUMPDEST STOP JUMPDEST PUSH2 0x2D2 PUSH2 0xE25 JUMP JUMPDEST STOP JUMPDEST PUSH2 0x2DC PUSH2 0xE52 JUMP JUMPDEST PUSH1 0x40 MLOAD DUP1 DUP3 PUSH20 0xFFFFFFFFFFFFFFFFFFFFFFFFFFFFFFFFFFFFFFFF AND DUP2 MSTORE PUSH1 0x20 ADD SWAP2 POP POP PUSH1 0x40 MLOAD DUP1 SWAP2 SUB SWAP1 RETURN JUMPDEST PUSH2 0x356 PUSH1 0x4 DUP1 CALLDATASIZE SUB PUSH1 0x40 DUP2 LT ISZERO PUSH2 0x31E JUMPI PUSH1 0x0 DUP1 REVERT JUMPDEST DUP2 ADD SWAP1 DUP1 DUP1 CALLDATALOAD PUSH20 0xFFFFFFFFFFFFFFFFFFFFFFFFFFFFFFFFFFFFFFFF AND SWAP1 PUSH1 0x20 ADD SWAP1 SWAP3 SWAP2 SWAP1 DUP1 CALLDATALOAD ISZERO ISZERO SWAP1 PUSH1 0x20 ADD SWAP1 SWAP3 SWAP2 SWAP1 POP POP POP PUSH2 0xE78 JUMP JUMPDEST STOP JUMPDEST PUSH2 0x360 PUSH2 0x118B JUMP JUMPDEST STOP JUMPDEST PUSH2 0x36A PUSH2 0x1311 JUMP JUMPDEST PUSH1 0x40 MLOAD DUP1 DUP3 ISZERO ISZERO DUP2 MSTORE PUSH1 0x20 ADD SWAP2 POP POP PUSH1 0x40 MLOAD DUP1 SWAP2 SUB SWAP1 RETURN JUMPDEST PUSH2 0x38A PUSH2 0x131E JUMP JUMPDEST PUSH1 0x40 MLOAD DUP1 DUP3 PUSH20 0xFFFFFFFFFFFFFFFFFFFFFFFFFFFFFFFFFFFFFFFF AND DUP2 MSTORE PUSH1 0x20 ADD SWAP2 POP POP PUSH1 0x40 MLOAD DUP1 SWAP2 SUB SWAP1 RETURN JUMPDEST PUSH2 0x3EC PUSH1 0x4 DUP1 CALLDATASIZE SUB PUSH1 0x40 DUP2 LT ISZERO PUSH2 0x3CC JUMPI PUSH1 0x0 DUP1 REVERT JUMPDEST DUP2 ADD SWAP1 DUP1 DUP1 CALLDATALOAD SWAP1 PUSH1 0x20 ADD SWAP1 SWAP3 SWAP2 SWAP1 DUP1 CALLDATALOAD SWAP1 PUSH1 0x20 ADD SWAP1 SWAP3 SWAP2 SWAP1 POP POP POP PUSH2 0x1347 JUMP JUMPDEST PUSH1 0x40 MLOAD DUP1 DUP3 DUP2 MSTORE PUSH1 0x20 ADD SWAP2 POP POP PUSH1 0x40 MLOAD DUP1 SWAP2 SUB SWAP1 RETURN JUMPDEST PUSH2 0x44E PUSH1 0x4 DUP1 CALLDATASIZE SUB PUSH1 0x40 DUP2 LT ISZERO PUSH2 0x418 JUMPI PUSH1 0x0 DUP1 REVERT JUMPDEST DUP2 ADD SWAP1 DUP1 DUP1 CALLDATALOAD SWAP1 PUSH1 0x20 ADD SWAP1 SWAP3 SWAP2 SWAP1 DUP1 CALLDATALOAD PUSH20 0xFFFFFFFFFFFFFFFFFFFFFFFFFFFFFFFFFFFFFFFF AND SWAP1 PUSH1 0x20 ADD SWAP1 SWAP3 SWAP2 SWAP1 POP POP POP PUSH2 0x1364 JUMP JUMPDEST PUSH1 0x40 MLOAD DUP1 DUP5 DUP2 MSTORE PUSH1 0x20 ADD DUP4 DUP2 MSTORE PUSH1 0x20 ADD DUP3 DUP2 MSTORE PUSH1 0x20 ADD SWAP4 POP POP POP POP PUSH1 0x40 MLOAD DUP1 SWAP2 SUB SWAP1 RETURN JUMPDEST PUSH2 0x4B4 PUSH1 0x4 DUP1 CALLDATASIZE SUB PUSH1 0x20 DUP2 LT ISZERO PUSH2 0x488 JUMPI PUSH1 0x0 DUP1 REVERT JUMPDEST DUP2 ADD SWAP1 DUP1 DUP1 CALLDATALOAD PUSH20 0xFFFFFFFFFFFFFFFFFFFFFFFFFFFFFFFFFFFFFFFF AND SWAP1 PUSH1 0x20 ADD SWAP1 SWAP3 SWAP2 SWAP1 POP POP POP PUSH2 0x139B JUMP JUMPDEST PUSH1 0x40 MLOAD DUP1 DUP3 DUP2 MSTORE PUSH1 0x20 ADD SWAP2 POP POP PUSH1 0x40 MLOAD DUP1 SWAP2 SUB SWAP1 RETURN JUMPDEST PUSH2 0x516 PUSH1 0x4 DUP1 CALLDATASIZE SUB PUSH1 0x40 DUP2 LT ISZERO PUSH2 0x4E0 JUMPI PUSH1 0x0 DUP1 REVERT JUMPDEST DUP2 ADD SWAP1 DUP1 DUP1 CALLDATALOAD SWAP1 PUSH1 0x20 ADD SWAP1 SWAP3 SWAP2 SWAP1 DUP1 CALLDATALOAD PUSH20 0xFFFFFFFFFFFFFFFFFFFFFFFFFFFFFFFFFFFFFFFF AND SWAP1 PUSH1 0x20 ADD SWAP1 SWAP3 SWAP2 SWAP1 POP POP POP PUSH2 0x13B3 JUMP JUMPDEST PUSH1 0x40 MLOAD DUP1 DUP3 DUP2 MSTORE PUSH1 0x20 ADD SWAP2 POP POP PUSH1 0x40 MLOAD DUP1 SWAP2 SUB SWAP1 RETURN JUMPDEST PUSH2 0x56E PUSH1 0x4 DUP1 CALLDATASIZE SUB PUSH1 0x20 DUP2 LT ISZERO PUSH2 0x542 JUMPI PUSH1 0x0 DUP1 REVERT JUMPDEST DUP2 ADD SWAP1 DUP1 DUP1 CALLDATALOAD PUSH20 0xFFFFFFFFFFFFFFFFFFFFFFFFFFFFFFFFFFFFFFFF AND SWAP1 PUSH1 0x20 ADD SWAP1 SWAP3 SWAP2 SWAP1 POP POP POP PUSH2 0x15F8 JUMP JUMPDEST PUSH1 0x40 MLOAD DUP1 DUP3 ISZERO ISZERO DUP2 MSTORE PUSH1 0x20 ADD SWAP2 POP POP PUSH1 0x40 MLOAD DUP1 SWAP2 SUB SWAP1 RETURN JUMPDEST PUSH2 0x5BC PUSH1 0x4 DUP1 CALLDATASIZE SUB PUSH1 0x40 DUP2 LT ISZERO PUSH2 0x59C JUMPI PUSH1 0x0 DUP1 REVERT JUMPDEST DUP2 ADD SWAP1 DUP1 DUP1 CALLDATALOAD SWAP1 PUSH1 0x20 ADD SWAP1 SWAP3 SWAP2 SWAP1 DUP1 CALLDATALOAD SWAP1 PUSH1 0x20 ADD SWAP1 SWAP3 SWAP2 SWAP1 POP POP POP PUSH2 0x1618 JUMP JUMPDEST STOP JUMPDEST PUSH2 0x600 PUSH1 0x4 DUP1 CALLDATASIZE SUB PUSH1 0x20 DUP2 LT ISZERO PUSH2 0x5D4 JUMPI PUSH1 0x0 DUP1 REVERT JUMPDEST DUP2 ADD SWAP1 DUP1 DUP1 CALLDATALOAD PUSH20 0xFFFFFFFFFFFFFFFFFFFFFFFFFFFFFFFFFFFFFFFF AND SWAP1 PUSH1 0x20 ADD SWAP1 SWAP3 SWAP2 SWAP1 POP POP POP PUSH2 0x1895 JUMP JUMPDEST STOP JUMPDEST PUSH2 0x62E PUSH1 0x4 DUP1 CALLDATASIZE SUB PUSH1 0x20 DUP2 LT ISZERO PUSH2 0x618 JUMPI PUSH1 0x0 DUP1 REVERT JUMPDEST DUP2 ADD SWAP1 DUP1 DUP1 CALLDATALOAD SWAP1 PUSH1 0x20 ADD SWAP1 SWAP3 SWAP2 SWAP1 POP POP POP PUSH2 0x1969 JUMP JUMPDEST STOP JUMPDEST PUSH1 0x0 PUSH1 0x6 DUP1 SLOAD SWAP1 POP SWAP1 POP SWAP1 JUMP JUMPDEST PUSH1 0x6 DUP2 DUP2 SLOAD DUP2 LT PUSH2 0x64A JUMPI INVALID JUMPDEST SWAP1 PUSH1 0x0 MSTORE PUSH1 0x20 PUSH1 0x0 KECCAK256 SWAP1 PUSH1 0x3 MUL ADD PUSH1 0x0 SWAP2 POP SWAP1 POP DUP1 PUSH1 0x0 ADD PUSH1 0x0 SWAP1 SLOAD SWAP1 PUSH2 0x100 EXP SWAP1 DIV PUSH20 0xFFFFFFFFFFFFFFFFFFFFFFFFFFFFFFFFFFFFFFFF AND SWAP1 DUP1 PUSH1 0x1 ADD SLOAD SWAP1 DUP1 PUSH1 0x2 ADD SLOAD SWAP1 POP DUP4 JUMP JUMPDEST PUSH1 0x0 DUP1 ISZERO ISZERO PUSH1 0x8 PUSH1 0x0 DUP5 PUSH20 0xFFFFFFFFFFFFFFFFFFFFFFFFFFFFFFFFFFFFFFFF AND PUSH20 0xFFFFFFFFFFFFFFFFFFFFFFFFFFFFFFFFFFFFFFFF AND DUP2 MSTORE PUSH1 0x20 ADD SWAP1 DUP2 MSTORE PUSH1 0x20 ADD PUSH1 0x0 KECCAK256 PUSH1 0x0 SWAP1 SLOAD SWAP1 PUSH2 0x100 EXP SWAP1 DIV PUSH1 0xFF AND ISZERO ISZERO EQ ISZERO PUSH2 0x73F JUMPI PUSH1 0x40 MLOAD PUSH32 0x8C379A000000000000000000000000000000000000000000000000000000000 DUP2 MSTORE PUSH1 0x4 ADD DUP1 DUP1 PUSH1 0x20 ADD DUP3 DUP2 SUB DUP3 MSTORE PUSH1 0x21 DUP2 MSTORE PUSH1 0x20 ADD DUP1 PUSH2 0x28F7 PUSH1 0x21 SWAP2 CODECOPY PUSH1 0x40 ADD SWAP2 POP POP PUSH1 0x40 MLOAD DUP1 SWAP2 SUB SWAP1 REVERT JUMPDEST PUSH1 0x9 PUSH1 0x0 DUP4 PUSH20 0xFFFFFFFFFFFFFFFFFFFFFFFFFFFFFFFFFFFFFFFF AND PUSH20 0xFFFFFFFFFFFFFFFFFFFFFFFFFFFFFFFFFFFFFFFF AND DUP2 MSTORE PUSH1 0x20 ADD SWAP1 DUP2 MSTORE PUSH1 0x20 ADD PUSH1 0x0 KECCAK256 SLOAD SWAP1 POP SWAP2 SWAP1 POP JUMP JUMPDEST PUSH1 0x3 SLOAD DUP2 JUMP JUMPDEST PUSH1 0x2 PUSH1 0x1 SLOAD EQ ISZERO PUSH2 0x805 JUMPI PUSH1 0x40 MLOAD PUSH32 0x8C379A000000000000000000000000000000000000000000000000000000000 DUP2 MSTORE PUSH1 0x4 ADD DUP1 DUP1 PUSH1 0x20 ADD DUP3 DUP2 SUB DUP3 MSTORE PUSH1 0x1F DUP2 MSTORE PUSH1 0x20 ADD DUP1 PUSH32 0x5265656E7472616E637947756172643A207265656E7472616E742063616C6C00 DUP2 MSTORE POP PUSH1 0x20 ADD SWAP2 POP POP PUSH1 0x40 MLOAD DUP1 SWAP2 SUB SWAP1 REVERT JUMPDEST PUSH1 0x2 PUSH1 0x1 DUP2 SWAP1 SSTORE POP PUSH1 0x0 PUSH1 0x6 DUP4 DUP2 SLOAD DUP2 LT PUSH2 0x81C JUMPI INVALID JUMPDEST SWAP1 PUSH1 0x0 MSTORE PUSH1 0x20 PUSH1 0x0 KECCAK256 SWAP1 PUSH1 0x3 MUL ADD SWAP1 POP PUSH1 0x0 PUSH1 0x7 PUSH1 0x0 DUP6 DUP2 MSTORE PUSH1 0x20 ADD SWAP1 DUP2 MSTORE PUSH1 0x20 ADD PUSH1 0x0 KECCAK256 PUSH1 0x0 CALLER PUSH20 0xFFFFFFFFFFFFFFFFFFFFFFFFFFFFFFFFFFFFFFFF AND PUSH20 0xFFFFFFFFFFFFFFFFFFFFFFFFFFFFFFFFFFFFFFFF AND DUP2 MSTORE PUSH1 0x20 ADD SWAP1 DUP2 MSTORE PUSH1 0x20 ADD PUSH1 0x0 KECCAK256 SWAP1 POP DUP3 DUP2 PUSH1 0x0 ADD SLOAD LT ISZERO PUSH2 0x8FA JUMPI PUSH1 0x40 MLOAD PUSH32 0x8C379A000000000000000000000000000000000000000000000000000000000 DUP2 MSTORE PUSH1 0x4 ADD DUP1 DUP1 PUSH1 0x20 ADD DUP3 DUP2 SUB DUP3 MSTORE PUSH1 0x12 DUP2 MSTORE PUSH1 0x20 ADD DUP1 PUSH32 0x77697468647261773A206E6F7420676F6F640000000000000000000000000000 DUP2 MSTORE POP PUSH1 0x20 ADD SWAP2 POP POP PUSH1 0x40 MLOAD DUP1 SWAP2 SUB SWAP1 REVERT JUMPDEST PUSH2 0x903 DUP5 PUSH2 0xA1A JUMP JUMPDEST PUSH2 0x90C DUP5 PUSH2 0x1B40 JUMP JUMPDEST PUSH1 0x0 DUP4 GT ISZERO PUSH2 0x984 JUMPI PUSH2 0x92C DUP4 DUP3 PUSH1 0x0 ADD SLOAD PUSH2 0x1C8A SWAP1 SWAP2 SWAP1 PUSH4 0xFFFFFFFF AND JUMP JUMPDEST DUP2 PUSH1 0x0 ADD DUP2 SWAP1 SSTORE POP PUSH2 0x983 CALLER DUP5 DUP5 PUSH1 0x0 ADD PUSH1 0x0 SWAP1 SLOAD SWAP1 PUSH2 0x100 EXP SWAP1 DIV PUSH20 0xFFFFFFFFFFFFFFFFFFFFFFFFFFFFFFFFFFFFFFFF AND PUSH20 0xFFFFFFFFFFFFFFFFFFFFFFFFFFFFFFFFFFFFFFFF AND PUSH2 0x1CD4 SWAP1 SWAP3 SWAP2 SWAP1 PUSH4 0xFFFFFFFF AND JUMP JUMPDEST JUMPDEST PUSH2 0x9B6 PUSH5 0xE8D4A51000 PUSH2 0x9A8 DUP5 PUSH1 0x2 ADD SLOAD DUP5 PUSH1 0x0 ADD SLOAD PUSH2 0x1D76 SWAP1 SWAP2 SWAP1 PUSH4 0xFFFFFFFF AND JUMP JUMPDEST PUSH2 0x1DFC SWAP1 SWAP2 SWAP1 PUSH4 0xFFFFFFFF AND JUMP JUMPDEST DUP2 PUSH1 0x1 ADD DUP2 SWAP1 SSTORE POP DUP4 CALLER PUSH20 0xFFFFFFFFFFFFFFFFFFFFFFFFFFFFFFFFFFFFFFFF AND PUSH32 0xF279E6A1F5E320CCA91135676D9CB6E44CA8A08C0B88342BCDB1144F6511B568 DUP6 PUSH1 0x40 MLOAD DUP1 DUP3 DUP2 MSTORE PUSH1 0x20 ADD SWAP2 POP POP PUSH1 0x40 MLOAD DUP1 SWAP2 SUB SWAP1 LOG3 POP POP PUSH1 0x1 DUP1 DUP2 SWAP1 SSTORE POP POP POP JUMP JUMPDEST PUSH1 0x0 PUSH1 0x6 DUP3 DUP2 SLOAD DUP2 LT PUSH2 0xA29 JUMPI INVALID JUMPDEST SWAP1 PUSH1 0x0 MSTORE PUSH1 0x20 PUSH1 0x0 KECCAK256 SWAP1 PUSH1 0x3 MUL ADD SWAP1 POP PUSH1 0x0 PUSH2 0xA43 PUSH2 0x1E46 JUMP JUMPDEST SWAP1 POP DUP2 PUSH1 0x1 ADD SLOAD DUP2 GT PUSH2 0xA57 JUMPI POP POP PUSH2 0xC68 JUMP JUMPDEST PUSH1 0x0 DUP3 PUSH1 0x0 ADD PUSH1 0x0 SWAP1 SLOAD SWAP1 PUSH2 0x100 EXP SWAP1 DIV PUSH20 0xFFFFFFFFFFFFFFFFFFFFFFFFFFFFFFFFFFFFFFFF AND PUSH20 0xFFFFFFFFFFFFFFFFFFFFFFFFFFFFFFFFFFFFFFFF AND PUSH4 0x70A08231 ADDRESS PUSH1 0x40 MLOAD DUP3 PUSH4 0xFFFFFFFF AND PUSH1 0xE0 SHL DUP2 MSTORE PUSH1 0x4 ADD DUP1 DUP3 PUSH20 0xFFFFFFFFFFFFFFFFFFFFFFFFFFFFFFFFFFFFFFFF AND DUP2 MSTORE PUSH1 0x20 ADD SWAP2 POP POP PUSH1 0x20 PUSH1 0x40 MLOAD DUP1 DUP4 SUB DUP2 DUP7 DUP1 EXTCODESIZE ISZERO DUP1 ISZERO PUSH2 0xAE4 JUMPI PUSH1 0x0 DUP1 REVERT JUMPDEST POP GAS STATICCALL ISZERO DUP1 ISZERO PUSH2 0xAF8 JUMPI RETURNDATASIZE PUSH1 0x0 DUP1 RETURNDATACOPY RETURNDATASIZE PUSH1 0x0 REVERT JUMPDEST POP POP POP POP PUSH1 0x40 MLOAD RETURNDATASIZE PUSH1 0x20 DUP2 LT ISZERO PUSH2 0xB0E JUMPI PUSH1 0x0 DUP1 REVERT JUMPDEST DUP2 ADD SWAP1 DUP1 DUP1 MLOAD SWAP1 PUSH1 0x20 ADD SWAP1 SWAP3 SWAP2 SWAP1 POP POP POP SWAP1 POP PUSH1 0x0 DUP2 EQ ISZERO PUSH2 0xB3B JUMPI DUP2 DUP4 PUSH1 0x1 ADD DUP2 SWAP1 SSTORE POP POP POP POP PUSH2 0xC68 JUMP JUMPDEST PUSH1 0x0 PUSH2 0xB4B DUP5 PUSH1 0x1 ADD SLOAD DUP5 PUSH2 0x1347 JUMP JUMPDEST SWAP1 POP PUSH1 0x0 PUSH2 0xB64 PUSH1 0x3 SLOAD DUP4 PUSH2 0x1D76 SWAP1 SWAP2 SWAP1 PUSH4 0xFFFFFFFF AND JUMP JUMPDEST SWAP1 POP PUSH1 0x2 PUSH1 0x0 SWAP1 SLOAD SWAP1 PUSH2 0x100 EXP SWAP1 DIV PUSH20 0xFFFFFFFFFFFFFFFFFFFFFFFFFFFFFFFFFFFFFFFF AND PUSH20 0xFFFFFFFFFFFFFFFFFFFFFFFFFFFFFFFFFFFFFFFF AND PUSH4 0x40C10F19 ADDRESS DUP4 PUSH1 0x40 MLOAD DUP4 PUSH4 0xFFFFFFFF AND PUSH1 0xE0 SHL DUP2 MSTORE PUSH1 0x4 ADD DUP1 DUP4 PUSH20 0xFFFFFFFFFFFFFFFFFFFFFFFFFFFFFFFFFFFFFFFF AND DUP2 MSTORE PUSH1 0x20 ADD DUP3 DUP2 MSTORE PUSH1 0x20 ADD SWAP3 POP POP POP PUSH1 0x0 PUSH1 0x40 MLOAD DUP1 DUP4 SUB DUP2 PUSH1 0x0 DUP8 DUP1 EXTCODESIZE ISZERO DUP1 ISZERO PUSH2 0xBF9 JUMPI PUSH1 0x0 DUP1 REVERT JUMPDEST POP GAS CALL ISZERO DUP1 ISZERO PUSH2 0xC0D JUMPI RETURNDATASIZE PUSH1 0x0 DUP1 RETURNDATACOPY RETURNDATASIZE PUSH1 0x0 REVERT JUMPDEST POP POP POP POP PUSH2 0xC51 PUSH2 0xC3E DUP5 PUSH2 0xC30 PUSH5 0xE8D4A51000 DUP6 PUSH2 0x1D76 SWAP1 SWAP2 SWAP1 PUSH4 0xFFFFFFFF AND JUMP JUMPDEST PUSH2 0x1DFC SWAP1 SWAP2 SWAP1 PUSH4 0xFFFFFFFF AND JUMP JUMPDEST DUP7 PUSH1 0x2 ADD SLOAD PUSH2 0x1AB8 SWAP1 SWAP2 SWAP1 PUSH4 0xFFFFFFFF AND JUMP JUMPDEST DUP6 PUSH1 0x2 ADD DUP2 SWAP1 SSTORE POP DUP4 DUP6 PUSH1 0x1 ADD DUP2 SWAP1 SSTORE POP POP POP POP POP POP JUMPDEST POP JUMP JUMPDEST PUSH1 0x2 PUSH1 0x1 SLOAD EQ ISZERO PUSH2 0xCE4 JUMPI PUSH1 0x40 MLOAD PUSH32 0x8C379A000000000000000000000000000000000000000000000000000000000 DUP2 MSTORE PUSH1 0x4 ADD DUP1 DUP1 PUSH1 0x20 ADD DUP3 DUP2 SUB DUP3 MSTORE PUSH1 0x1F DUP2 MSTORE PUSH1 0x20 ADD DUP1 PUSH32 0x5265656E7472616E637947756172643A207265656E7472616E742063616C6C00 DUP2 MSTORE POP PUSH1 0x20 ADD SWAP2 POP POP PUSH1 0x40 MLOAD DUP1 SWAP2 SUB SWAP1 REVERT JUMPDEST PUSH1 0x2 PUSH1 0x1 DUP2 SWAP1 SSTORE POP PUSH1 0x0 PUSH1 0x6 DUP3 DUP2 SLOAD DUP2 LT PUSH2 0xCFB JUMPI INVALID JUMPDEST SWAP1 PUSH1 0x0 MSTORE PUSH1 0x20 PUSH1 0x0 KECCAK256 SWAP1 PUSH1 0x3 MUL ADD SWAP1 POP PUSH1 0x0 PUSH1 0x7 PUSH1 0x0 DUP5 DUP2 MSTORE PUSH1 0x20 ADD SWAP1 DUP2 MSTORE PUSH1 0x20 ADD PUSH1 0x0 KECCAK256 PUSH1 0x0 CALLER PUSH20 0xFFFFFFFFFFFFFFFFFFFFFFFFFFFFFFFFFFFFFFFF AND PUSH20 0xFFFFFFFFFFFFFFFFFFFFFFFFFFFFFFFFFFFFFFFF AND DUP2 MSTORE PUSH1 0x20 ADD SWAP1 DUP2 MSTORE PUSH1 0x20 ADD PUSH1 0x0 KECCAK256 SWAP1 POP PUSH2 0xDB2 CALLER DUP3 PUSH1 0x0 ADD SLOAD DUP5 PUSH1 0x0 ADD PUSH1 0x0 SWAP1 SLOAD SWAP1 PUSH2 0x100 EXP SWAP1 DIV PUSH20 0xFFFFFFFFFFFFFFFFFFFFFFFFFFFFFFFFFFFFFFFF AND PUSH20 0xFFFFFFFFFFFFFFFFFFFFFFFFFFFFFFFFFFFFFFFF AND PUSH2 0x1CD4 SWAP1 SWAP3 SWAP2 SWAP1 PUSH4 0xFFFFFFFF AND JUMP JUMPDEST DUP3 CALLER PUSH20 0xFFFFFFFFFFFFFFFFFFFFFFFFFFFFFFFFFFFFFFFF AND PUSH32 0xBB757047C2B5F3974FE26B7C10F732E7BCE710B0952A71082702781E62AE0595 DUP4 PUSH1 0x0 ADD SLOAD PUSH1 0x40 MLOAD DUP1 DUP3 DUP2 MSTORE PUSH1 0x20 ADD SWAP2 POP POP PUSH1 0x40 MLOAD DUP1 SWAP2 SUB SWAP1 LOG3 PUSH1 0x0 DUP2 PUSH1 0x0 ADD DUP2 SWAP1 SSTORE POP PUSH1 0x0 DUP2 PUSH1 0x1 ADD DUP2 SWAP1 SSTORE POP POP POP PUSH1 0x1 DUP1 DUP2 SWAP1 SSTORE POP POP JUMP JUMPDEST PUSH1 0x0 PUSH1 0x6 DUP1 SLOAD SWAP1 POP SWAP1 POP PUSH1 0x0 JUMPDEST DUP2 DUP2 LT ISZERO PUSH2 0xE4E JUMPI PUSH2 0xE43 DUP2 PUSH2 0xA1A JUMP JUMPDEST DUP1 PUSH1 0x1 ADD SWAP1 POP PUSH2 0xE32 JUMP JUMPDEST POP POP JUMP JUMPDEST PUSH1 0x2 PUSH1 0x0 SWAP1 SLOAD SWAP1 PUSH2 0x100 EXP SWAP1 DIV PUSH20 0xFFFFFFFFFFFFFFFFFFFFFFFFFFFFFFFFFFFFFFFF AND DUP2 JUMP JUMPDEST PUSH2 0xE80 PUSH2 0x1E60 JUMP JUMPDEST PUSH20 0xFFFFFFFFFFFFFFFFFFFFFFFFFFFFFFFFFFFFFFFF AND PUSH1 0x0 DUP1 SLOAD SWAP1 PUSH2 0x100 EXP SWAP1 DIV PUSH20 0xFFFFFFFFFFFFFFFFFFFFFFFFFFFFFFFFFFFFFFFF AND PUSH20 0xFFFFFFFFFFFFFFFFFFFFFFFFFFFFFFFFFFFFFFFF AND EQ PUSH2 0xF40 JUMPI PUSH1 0x40 MLOAD PUSH32 0x8C379A000000000000000000000000000000000000000000000000000000000 DUP2 MSTORE PUSH1 0x4 ADD DUP1 DUP1 PUSH1 0x20 ADD DUP3 DUP2 SUB DUP3 MSTORE PUSH1 0x20 DUP2 MSTORE PUSH1 0x20 ADD DUP1 PUSH32 0x4F776E61626C653A2063616C6C6572206973206E6F7420746865206F776E6572 DUP2 MSTORE POP PUSH1 0x20 ADD SWAP2 POP POP PUSH1 0x40 MLOAD DUP1 SWAP2 SUB SWAP1 REVERT JUMPDEST DUP2 PUSH1 0x0 ISZERO ISZERO PUSH1 0x8 PUSH1 0x0 DUP4 PUSH20 0xFFFFFFFFFFFFFFFFFFFFFFFFFFFFFFFFFFFFFFFF AND PUSH20 0xFFFFFFFFFFFFFFFFFFFFFFFFFFFFFFFFFFFFFFFF AND DUP2 MSTORE PUSH1 0x20 ADD SWAP1 DUP2 MSTORE PUSH1 0x20 ADD PUSH1 0x0 KECCAK256 PUSH1 0x0 SWAP1 SLOAD SWAP1 PUSH2 0x100 EXP SWAP1 DIV PUSH1 0xFF AND ISZERO ISZERO EQ PUSH2 0x1007 JUMPI PUSH1 0x40 MLOAD PUSH32 0x8C379A000000000000000000000000000000000000000000000000000000000 DUP2 MSTORE PUSH1 0x4 ADD DUP1 DUP1 PUSH1 0x20 ADD DUP3 DUP2 SUB DUP3 MSTORE PUSH1 0x19 DUP2 MSTORE PUSH1 0x20 ADD DUP1 PUSH32 0x6E6F6E4475706C6963617465643A206475706C69636174656400000000000000 DUP2 MSTORE POP PUSH1 0x20 ADD SWAP2 POP POP PUSH1 0x40 MLOAD DUP1 SWAP2 SUB SWAP1 REVERT JUMPDEST DUP2 ISZERO PUSH2 0x1016 JUMPI PUSH2 0x1015 PUSH2 0xE25 JUMP JUMPDEST JUMPDEST PUSH1 0x1 PUSH1 0x8 PUSH1 0x0 DUP6 PUSH20 0xFFFFFFFFFFFFFFFFFFFFFFFFFFFFFFFFFFFFFFFF AND PUSH20 0xFFFFFFFFFFFFFFFFFFFFFFFFFFFFFFFFFFFFFFFF AND DUP2 MSTORE PUSH1 0x20 ADD SWAP1 DUP2 MSTORE PUSH1 0x20 ADD PUSH1 0x0 KECCAK256 PUSH1 0x0 PUSH2 0x100 EXP DUP2 SLOAD DUP2 PUSH1 0xFF MUL NOT AND SWAP1 DUP4 ISZERO ISZERO MUL OR SWAP1 SSTORE POP PUSH1 0x6 PUSH1 0x40 MLOAD DUP1 PUSH1 0x60 ADD PUSH1 0x40 MSTORE DUP1 DUP6 PUSH20 0xFFFFFFFFFFFFFFFFFFFFFFFFFFFFFFFFFFFFFFFF AND DUP2 MSTORE PUSH1 0x20 ADD PUSH1 0x5 SLOAD NUMBER GT PUSH2 0x10A8 JUMPI PUSH1 0x5 SLOAD PUSH2 0x10AA JUMP JUMPDEST NUMBER JUMPDEST DUP2 MSTORE PUSH1 0x20 ADD PUSH1 0x0 DUP2 MSTORE POP SWAP1 DUP1 PUSH1 0x1 DUP2 SLOAD ADD DUP1 DUP3 SSTORE DUP1 SWAP2 POP POP PUSH1 0x1 SWAP1 SUB SWAP1 PUSH1 0x0 MSTORE PUSH1 0x20 PUSH1 0x0 KECCAK256 SWAP1 PUSH1 0x3 MUL ADD PUSH1 0x0 SWAP1 SWAP2 SWAP1 SWAP2 SWAP1 SWAP2 POP PUSH1 0x0 DUP3 ADD MLOAD DUP2 PUSH1 0x0 ADD PUSH1 0x0 PUSH2 0x100 EXP DUP2 SLOAD DUP2 PUSH20 0xFFFFFFFFFFFFFFFFFFFFFFFFFFFFFFFFFFFFFFFF MUL NOT AND SWAP1 DUP4 PUSH20 0xFFFFFFFFFFFFFFFFFFFFFFFFFFFFFFFFFFFFFFFF AND MUL OR SWAP1 SSTORE POP PUSH1 0x20 DUP3 ADD MLOAD DUP2 PUSH1 0x1 ADD SSTORE PUSH1 0x40 DUP3 ADD MLOAD DUP2 PUSH1 0x2 ADD SSTORE POP POP PUSH1 0x1 PUSH1 0x6 DUP1 SLOAD SWAP1 POP SUB PUSH1 0x9 PUSH1 0x0 DUP6 PUSH20 0xFFFFFFFFFFFFFFFFFFFFFFFFFFFFFFFFFFFFFFFF AND PUSH20 0xFFFFFFFFFFFFFFFFFFFFFFFFFFFFFFFFFFFFFFFF AND DUP2 MSTORE PUSH1 0x20 ADD SWAP1 DUP2 MSTORE PUSH1 0x20 ADD PUSH1 0x0 KECCAK256 DUP2 SWAP1 SSTORE POP POP POP POP JUMP JUMPDEST PUSH2 0x1193 PUSH2 0x1E60 JUMP JUMPDEST PUSH20 0xFFFFFFFFFFFFFFFFFFFFFFFFFFFFFFFFFFFFFFFF AND PUSH1 0x0 DUP1 SLOAD SWAP1 PUSH2 0x100 EXP SWAP1 DIV PUSH20 0xFFFFFFFFFFFFFFFFFFFFFFFFFFFFFFFFFFFFFFFF AND PUSH20 0xFFFFFFFFFFFFFFFFFFFFFFFFFFFFFFFFFFFFFFFF AND EQ PUSH2 0x1253 JUMPI PUSH1 0x40 MLOAD PUSH32 0x8C379A000000000000000000000000000000000000000000000000000000000 DUP2 MSTORE PUSH1 0x4 ADD DUP1 DUP1 PUSH1 0x20 ADD DUP3 DUP2 SUB DUP3 MSTORE PUSH1 0x20 DUP2 MSTORE PUSH1 0x20 ADD DUP1 PUSH32 0x4F776E61626C653A2063616C6C6572206973206E6F7420746865206F776E6572 DUP2 MSTORE POP PUSH1 0x20 ADD SWAP2 POP POP PUSH1 0x40 MLOAD DUP1 SWAP2 SUB SWAP1 REVERT JUMPDEST PUSH1 0x0 PUSH20 0xFFFFFFFFFFFFFFFFFFFFFFFFFFFFFFFFFFFFFFFF AND PUSH1 0x0 DUP1 SLOAD SWAP1 PUSH2 0x100 EXP SWAP1 DIV PUSH20 0xFFFFFFFFFFFFFFFFFFFFFFFFFFFFFFFFFFFFFFFF AND PUSH20 0xFFFFFFFFFFFFFFFFFFFFFFFFFFFFFFFFFFFFFFFF AND PUSH32 0x8BE0079C531659141344CD1FD0A4F28419497F9722A3DAAFE3B4186F6B6457E0 PUSH1 0x40 MLOAD PUSH1 0x40 MLOAD DUP1 SWAP2 SUB SWAP1 LOG3 PUSH1 0x0 DUP1 PUSH1 0x0 PUSH2 0x100 EXP DUP2 SLOAD DUP2 PUSH20 0xFFFFFFFFFFFFFFFFFFFFFFFFFFFFFFFFFFFFFFFF MUL NOT AND SWAP1 DUP4 PUSH20 0xFFFFFFFFFFFFFFFFFFFFFFFFFFFFFFFFFFFFFFFF AND MUL OR SWAP1 SSTORE POP JUMP JUMPDEST PUSH1 0x0 PUSH1 0x5 SLOAD NUMBER LT ISZERO SWAP1 POP SWAP1 JUMP JUMPDEST PUSH1 0x0 DUP1 PUSH1 0x0 SWAP1 SLOAD SWAP1 PUSH2 0x100 EXP SWAP1 DIV PUSH20 0xFFFFFFFFFFFFFFFFFFFFFFFFFFFFFFFFFFFFFFFF AND SWAP1 POP SWAP1 JUMP JUMPDEST PUSH1 0x0 PUSH2 0x135C DUP4 DUP4 PUSH2 0x1C8A SWAP1 SWAP2 SWAP1 PUSH4 0xFFFFFFFF AND JUMP JUMPDEST SWAP1 POP SWAP3 SWAP2 POP POP JUMP JUMPDEST PUSH1 0x7 PUSH1 0x20 MSTORE DUP2 PUSH1 0x0 MSTORE PUSH1 0x40 PUSH1 0x0 KECCAK256 PUSH1 0x20 MSTORE DUP1 PUSH1 0x0 MSTORE PUSH1 0x40 PUSH1 0x0 KECCAK256 PUSH1 0x0 SWAP2 POP SWAP2 POP POP DUP1 PUSH1 0x0 ADD SLOAD SWAP1 DUP1 PUSH1 0x1 ADD SLOAD SWAP1 DUP1 PUSH1 0x2 ADD SLOAD SWAP1 POP DUP4 JUMP JUMPDEST PUSH1 0x9 PUSH1 0x20 MSTORE DUP1 PUSH1 0x0 MSTORE PUSH1 0x40 PUSH1 0x0 KECCAK256 PUSH1 0x0 SWAP2 POP SWAP1 POP SLOAD DUP2 JUMP JUMPDEST PUSH1 0x0 DUP1 PUSH1 0x6 DUP5 DUP2 SLOAD DUP2 LT PUSH2 0x13C3 JUMPI INVALID JUMPDEST SWAP1 PUSH1 0x0 MSTORE PUSH1 0x20 PUSH1 0x0 KECCAK256 SWAP1 PUSH1 0x3 MUL ADD SWAP1 POP PUSH1 0x0 PUSH1 0x7 PUSH1 0x0 DUP7 DUP2 MSTORE PUSH1 0x20 ADD SWAP1 DUP2 MSTORE PUSH1 0x20 ADD PUSH1 0x0 KECCAK256 PUSH1 0x0 DUP6 PUSH20 0xFFFFFFFFFFFFFFFFFFFFFFFFFFFFFFFFFFFFFFFF AND PUSH20 0xFFFFFFFFFFFFFFFFFFFFFFFFFFFFFFFFFFFFFFFF AND DUP2 MSTORE PUSH1 0x20 ADD SWAP1 DUP2 MSTORE PUSH1 0x20 ADD PUSH1 0x0 KECCAK256 SWAP1 POP PUSH1 0x0 DUP3 PUSH1 0x2 ADD SLOAD SWAP1 POP PUSH1 0x0 DUP4 PUSH1 0x0 ADD PUSH1 0x0 SWAP1 SLOAD SWAP1 PUSH2 0x100 EXP SWAP1 DIV PUSH20 0xFFFFFFFFFFFFFFFFFFFFFFFFFFFFFFFFFFFFFFFF AND PUSH20 0xFFFFFFFFFFFFFFFFFFFFFFFFFFFFFFFFFFFFFFFF AND PUSH4 0x70A08231 ADDRESS PUSH1 0x40 MLOAD DUP3 PUSH4 0xFFFFFFFF AND PUSH1 0xE0 SHL DUP2 MSTORE PUSH1 0x4 ADD DUP1 DUP3 PUSH20 0xFFFFFFFFFFFFFFFFFFFFFFFFFFFFFFFFFFFFFFFF AND DUP2 MSTORE PUSH1 0x20 ADD SWAP2 POP POP PUSH1 0x20 PUSH1 0x40 MLOAD DUP1 DUP4 SUB DUP2 DUP7 DUP1 EXTCODESIZE ISZERO DUP1 ISZERO PUSH2 0x14BD JUMPI PUSH1 0x0 DUP1 REVERT JUMPDEST POP GAS STATICCALL ISZERO DUP1 ISZERO PUSH2 0x14D1 JUMPI RETURNDATASIZE PUSH1 0x0 DUP1 RETURNDATACOPY RETURNDATASIZE PUSH1 0x0 REVERT JUMPDEST POP POP POP POP PUSH1 0x40 MLOAD RETURNDATASIZE PUSH1 0x20 DUP2 LT ISZERO PUSH2 0x14E7 JUMPI PUSH1 0x0 DUP1 REVERT JUMPDEST DUP2 ADD SWAP1 DUP1 DUP1 MLOAD SWAP1 PUSH1 0x20 ADD SWAP1 SWAP3 SWAP2 SWAP1 POP POP POP SWAP1 POP PUSH1 0x0 PUSH2 0x1504 PUSH2 0x1E46 JUMP JUMPDEST SWAP1 POP DUP5 PUSH1 0x1 ADD SLOAD DUP2 GT DUP1 ISZERO PUSH2 0x151A JUMPI POP PUSH1 0x0 DUP3 EQ ISZERO JUMPDEST ISZERO PUSH2 0x158B JUMPI PUSH1 0x0 PUSH2 0x152F DUP7 PUSH1 0x1 ADD SLOAD DUP4 PUSH2 0x1347 JUMP JUMPDEST SWAP1 POP PUSH1 0x0 PUSH2 0x1548 PUSH1 0x3 SLOAD DUP4 PUSH2 0x1D76 SWAP1 SWAP2 SWAP1 PUSH4 0xFFFFFFFF AND JUMP JUMPDEST SWAP1 POP PUSH2 0x1586 PUSH2 0x1577 DUP6 PUSH2 0x1569 PUSH5 0xE8D4A51000 DUP6 PUSH2 0x1D76 SWAP1 SWAP2 SWAP1 PUSH4 0xFFFFFFFF AND JUMP JUMPDEST PUSH2 0x1DFC SWAP1 SWAP2 SWAP1 PUSH4 0xFFFFFFFF AND JUMP JUMPDEST DUP7 PUSH2 0x1AB8 SWAP1 SWAP2 SWAP1 PUSH4 0xFFFFFFFF AND JUMP JUMPDEST SWAP5 POP POP POP JUMPDEST PUSH1 0x0 PUSH2 0x15D1 DUP6 PUSH1 0x1 ADD SLOAD PUSH2 0x15C3 PUSH5 0xE8D4A51000 PUSH2 0x15B5 DUP9 DUP11 PUSH1 0x0 ADD SLOAD PUSH2 0x1D76 SWAP1 SWAP2 SWAP1 PUSH4 0xFFFFFFFF AND JUMP JUMPDEST PUSH2 0x1DFC SWAP1 SWAP2 SWAP1 PUSH4 0xFFFFFFFF AND JUMP JUMPDEST PUSH2 0x1C8A SWAP1 SWAP2 SWAP1 PUSH4 0xFFFFFFFF AND JUMP JUMPDEST SWAP1 POP PUSH2 0x15EA DUP6 PUSH1 0x2 ADD SLOAD DUP3 PUSH2 0x1AB8 SWAP1 SWAP2 SWAP1 PUSH4 0xFFFFFFFF AND JUMP JUMPDEST SWAP7 POP POP POP POP POP POP POP SWAP3 SWAP2 POP POP JUMP JUMPDEST PUSH1 0x8 PUSH1 0x20 MSTORE DUP1 PUSH1 0x0 MSTORE PUSH1 0x40 PUSH1 0x0 KECCAK256 PUSH1 0x0 SWAP2 POP SLOAD SWAP1 PUSH2 0x100 EXP SWAP1 DIV PUSH1 0xFF AND DUP2 JUMP JUMPDEST PUSH1 0x2 PUSH1 0x1 SLOAD EQ ISZERO PUSH2 0x1691 JUMPI PUSH1 0x40 MLOAD PUSH32 0x8C379A000000000000000000000000000000000000000000000000000000000 DUP2 MSTORE PUSH1 0x4 ADD DUP1 DUP1 PUSH1 0x20 ADD DUP3 DUP2 SUB DUP3 MSTORE PUSH1 0x1F DUP2 MSTORE PUSH1 0x20 ADD DUP1 PUSH32 0x5265656E7472616E637947756172643A207265656E7472616E742063616C6C00 DUP2 MSTORE POP PUSH1 0x20 ADD SWAP2 POP POP PUSH1 0x40 MLOAD DUP1 SWAP2 SUB SWAP1 REVERT JUMPDEST PUSH1 0x2 PUSH1 0x1 DUP2 SWAP1 SSTORE POP PUSH1 0x0 PUSH1 0x4 SLOAD GT ISZERO PUSH2 0x1700 JUMPI PUSH1 0x4 SLOAD NUMBER GT ISZERO PUSH2 0x16FF JUMPI PUSH1 0x40 MLOAD PUSH32 0x8C379A000000000000000000000000000000000000000000000000000000000 DUP2 MSTORE PUSH1 0x4 ADD DUP1 DUP1 PUSH1 0x20 ADD DUP3 DUP2 SUB DUP3 MSTORE PUSH1 0x21 DUP2 MSTORE PUSH1 0x20 ADD DUP1 PUSH2 0x2918 PUSH1 0x21 SWAP2 CODECOPY PUSH1 0x40 ADD SWAP2 POP POP PUSH1 0x40 MLOAD DUP1 SWAP2 SUB SWAP1 REVERT JUMPDEST JUMPDEST PUSH1 0x0 PUSH1 0x6 DUP4 DUP2 SLOAD DUP2 LT PUSH2 0x170F JUMPI INVALID JUMPDEST SWAP1 PUSH1 0x0 MSTORE PUSH1 0x20 PUSH1 0x0 KECCAK256 SWAP1 PUSH1 0x3 MUL ADD SWAP1 POP PUSH1 0x0 PUSH1 0x7 PUSH1 0x0 DUP6 DUP2 MSTORE PUSH1 0x20 ADD SWAP1 DUP2 MSTORE PUSH1 0x20 ADD PUSH1 0x0 KECCAK256 PUSH1 0x0 CALLER PUSH20 0xFFFFFFFFFFFFFFFFFFFFFFFFFFFFFFFFFFFFFFFF AND PUSH20 0xFFFFFFFFFFFFFFFFFFFFFFFFFFFFFFFFFFFFFFFF AND DUP2 MSTORE PUSH1 0x20 ADD SWAP1 DUP2 MSTORE PUSH1 0x20 ADD PUSH1 0x0 KECCAK256 SWAP1 POP PUSH2 0x177C DUP5 PUSH2 0xA1A JUMP JUMPDEST PUSH2 0x1785 DUP5 PUSH2 0x1B40 JUMP JUMPDEST PUSH1 0x0 DUP4 GT ISZERO PUSH2 0x17FF JUMPI PUSH2 0x17DF CALLER ADDRESS DUP6 DUP6 PUSH1 0x0 ADD PUSH1 0x0 SWAP1 SLOAD SWAP1 PUSH2 0x100 EXP SWAP1 DIV PUSH20 0xFFFFFFFFFFFFFFFFFFFFFFFFFFFFFFFFFFFFFFFF AND PUSH20 0xFFFFFFFFFFFFFFFFFFFFFFFFFFFFFFFFFFFFFFFF AND PUSH2 0x1E68 SWAP1 SWAP4 SWAP3 SWAP2 SWAP1 PUSH4 0xFFFFFFFF AND JUMP JUMPDEST PUSH2 0x17F6 DUP4 DUP3 PUSH1 0x0 ADD SLOAD PUSH2 0x1AB8 SWAP1 SWAP2 SWAP1 PUSH4 0xFFFFFFFF AND JUMP JUMPDEST DUP2 PUSH1 0x0 ADD DUP2 SWAP1 SSTORE POP JUMPDEST PUSH2 0x1831 PUSH5 0xE8D4A51000 PUSH2 0x1823 DUP5 PUSH1 0x2 ADD SLOAD DUP5 PUSH1 0x0 ADD SLOAD PUSH2 0x1D76 SWAP1 SWAP2 SWAP1 PUSH4 0xFFFFFFFF AND JUMP JUMPDEST PUSH2 0x1DFC SWAP1 SWAP2 SWAP1 PUSH4 0xFFFFFFFF AND JUMP JUMPDEST DUP2 PUSH1 0x1 ADD DUP2 SWAP1 SSTORE POP DUP4 CALLER PUSH20 0xFFFFFFFFFFFFFFFFFFFFFFFFFFFFFFFFFFFFFFFF AND PUSH32 0x90890809C654F11D6E72A28FA60149770A0D11EC6C92319D6CEB2BB0A4EA1A15 DUP6 PUSH1 0x40 MLOAD DUP1 DUP3 DUP2 MSTORE PUSH1 0x20 ADD SWAP2 POP POP PUSH1 0x40 MLOAD DUP1 SWAP2 SUB SWAP1 LOG3 POP POP PUSH1 0x1 DUP1 DUP2 SWAP1 SSTORE POP POP POP JUMP JUMPDEST PUSH2 0x189D PUSH2 0x1E60 JUMP JUMPDEST PUSH20 0xFFFFFFFFFFFFFFFFFFFFFFFFFFFFFFFFFFFFFFFF AND PUSH1 0x0 DUP1 SLOAD SWAP1 PUSH2 0x100 EXP SWAP1 DIV PUSH20 0xFFFFFFFFFFFFFFFFFFFFFFFFFFFFFFFFFFFFFFFF AND PUSH20 0xFFFFFFFFFFFFFFFFFFFFFFFFFFFFFFFFFFFFFFFF AND EQ PUSH2 0x195D JUMPI PUSH1 0x40 MLOAD PUSH32 0x8C379A000000000000000000000000000000000000000000000000000000000 DUP2 MSTORE PUSH1 0x4 ADD DUP1 DUP1 PUSH1 0x20 ADD DUP3 DUP2 SUB DUP3 MSTORE PUSH1 0x20 DUP2 MSTORE PUSH1 0x20 ADD DUP1 PUSH32 0x4F776E61626C653A2063616C6C6572206973206E6F7420746865206F776E6572 DUP2 MSTORE POP PUSH1 0x20 ADD SWAP2 POP POP PUSH1 0x40 MLOAD DUP1 SWAP2 SUB SWAP1 REVERT JUMPDEST PUSH2 0x1966 DUP2 PUSH2 0x1F29 JUMP JUMPDEST POP JUMP JUMPDEST PUSH2 0x1971 PUSH2 0x1E60 JUMP JUMPDEST PUSH20 0xFFFFFFFFFFFFFFFFFFFFFFFFFFFFFFFFFFFFFFFF AND PUSH1 0x0 DUP1 SLOAD SWAP1 PUSH2 0x100 EXP SWAP1 DIV PUSH20 0xFFFFFFFFFFFFFFFFFFFFFFFFFFFFFFFFFFFFFFFF AND PUSH20 0xFFFFFFFFFFFFFFFFFFFFFFFFFFFFFFFFFFFFFFFF AND EQ PUSH2 0x1A31 JUMPI PUSH1 0x40 MLOAD PUSH32 0x8C379A000000000000000000000000000000000000000000000000000000000 DUP2 MSTORE PUSH1 0x4 ADD DUP1 DUP1 PUSH1 0x20 ADD DUP3 DUP2 SUB DUP3 MSTORE PUSH1 0x20 DUP2 MSTORE PUSH1 0x20 ADD DUP1 PUSH32 0x4F776E61626C653A2063616C6C6572206973206E6F7420746865206F776E6572 DUP2 MSTORE POP PUSH1 0x20 ADD SWAP2 POP POP PUSH1 0x40 MLOAD DUP1 SWAP2 SUB SWAP1 REVERT JUMPDEST PUSH1 0x5 SLOAD DUP2 GT PUSH2 0x1A8B JUMPI PUSH1 0x40 MLOAD PUSH32 0x8C379A000000000000000000000000000000000000000000000000000000000 DUP2 MSTORE PUSH1 0x4 ADD DUP1 DUP1 PUSH1 0x20 ADD DUP3 DUP2 SUB DUP3 MSTORE PUSH1 0x45 DUP2 MSTORE PUSH1 0x20 ADD DUP1 PUSH2 0x2891 PUSH1 0x45 SWAP2 CODECOPY PUSH1 0x60 ADD SWAP2 POP POP PUSH1 0x40 MLOAD DUP1 SWAP2 SUB SWAP1 REVERT JUMPDEST PUSH1 0x0 PUSH1 0x6 PUSH1 0x0 DUP2 SLOAD DUP2 LT PUSH2 0x1A9B JUMPI INVALID JUMPDEST SWAP1 PUSH1 0x0 MSTORE PUSH1 0x20 PUSH1 0x0 KECCAK256 SWAP1 PUSH1 0x3 MUL ADD SWAP1 POP DUP2 DUP2 PUSH1 0x1 ADD DUP2 SWAP1 SSTORE POP POP POP JUMP JUMPDEST PUSH1 0x0 DUP1 DUP3 DUP5 ADD SWAP1 POP DUP4 DUP2 LT ISZERO PUSH2 0x1B36 JUMPI PUSH1 0x40 MLOAD PUSH32 0x8C379A000000000000000000000000000000000000000000000000000000000 DUP2 MSTORE PUSH1 0x4 ADD DUP1 DUP1 PUSH1 0x20 ADD DUP3 DUP2 SUB DUP3 MSTORE PUSH1 0x1B DUP2 MSTORE PUSH1 0x20 ADD DUP1 PUSH32 0x536166654D6174683A206164646974696F6E206F766572666C6F770000000000 DUP2 MSTORE POP PUSH1 0x20 ADD SWAP2 POP POP PUSH1 0x40 MLOAD DUP1 SWAP2 SUB SWAP1 REVERT JUMPDEST DUP1 SWAP2 POP POP SWAP3 SWAP2 POP POP JUMP JUMPDEST PUSH1 0x0 PUSH1 0x6 DUP3 DUP2 SLOAD DUP2 LT PUSH2 0x1B4F JUMPI INVALID JUMPDEST SWAP1 PUSH1 0x0 MSTORE PUSH1 0x20 PUSH1 0x0 KECCAK256 SWAP1 PUSH1 0x3 MUL ADD SWAP1 POP PUSH1 0x0 PUSH1 0x7 PUSH1 0x0 DUP5 DUP2 MSTORE PUSH1 0x20 ADD SWAP1 DUP2 MSTORE PUSH1 0x20 ADD PUSH1 0x0 KECCAK256 PUSH1 0x0 CALLER PUSH20 0xFFFFFFFFFFFFFFFFFFFFFFFFFFFFFFFFFFFFFFFF AND PUSH20 0xFFFFFFFFFFFFFFFFFFFFFFFFFFFFFFFFFFFFFFFF AND DUP2 MSTORE PUSH1 0x20 ADD SWAP1 DUP2 MSTORE PUSH1 0x20 ADD PUSH1 0x0 KECCAK256 SWAP1 POP PUSH1 0x0 PUSH2 0x1BFD DUP3 PUSH1 0x1 ADD SLOAD PUSH2 0x1BEF PUSH5 0xE8D4A51000 PUSH2 0x1BE1 DUP8 PUSH1 0x2 ADD SLOAD DUP8 PUSH1 0x0 ADD SLOAD PUSH2 0x1D76 SWAP1 SWAP2 SWAP1 PUSH4 0xFFFFFFFF AND JUMP JUMPDEST PUSH2 0x1DFC SWAP1 SWAP2 SWAP1 PUSH4 0xFFFFFFFF AND JUMP JUMPDEST PUSH2 0x1C8A SWAP1 SWAP2 SWAP1 PUSH4 0xFFFFFFFF AND JUMP JUMPDEST SWAP1 POP PUSH2 0x1C07 PUSH2 0x1311 JUMP JUMPDEST ISZERO PUSH2 0x1C5A JUMPI PUSH1 0x0 DUP2 GT DUP1 PUSH2 0x1C1F JUMPI POP PUSH1 0x0 DUP3 PUSH1 0x2 ADD SLOAD GT JUMPDEST ISZERO PUSH2 0x1C55 JUMPI PUSH1 0x0 PUSH2 0x1C3D DUP4 PUSH1 0x2 ADD SLOAD DUP4 PUSH2 0x1AB8 SWAP1 SWAP2 SWAP1 PUSH4 0xFFFFFFFF AND JUMP JUMPDEST SWAP1 POP PUSH1 0x0 DUP4 PUSH1 0x2 ADD DUP2 SWAP1 SSTORE POP PUSH2 0x1C53 CALLER DUP3 PUSH2 0x206C JUMP JUMPDEST POP JUMPDEST PUSH2 0x1C84 JUMP JUMPDEST PUSH1 0x0 DUP2 GT ISZERO PUSH2 0x1C83 JUMPI PUSH2 0x1C7A DUP2 DUP4 PUSH1 0x2 ADD SLOAD PUSH2 0x1AB8 SWAP1 SWAP2 SWAP1 PUSH4 0xFFFFFFFF AND JUMP JUMPDEST DUP3 PUSH1 0x2 ADD DUP2 SWAP1 SSTORE POP JUMPDEST JUMPDEST POP POP POP POP JUMP JUMPDEST PUSH1 0x0 PUSH2 0x1CCC DUP4 DUP4 PUSH1 0x40 MLOAD DUP1 PUSH1 0x40 ADD PUSH1 0x40 MSTORE DUP1 PUSH1 0x1E DUP2 MSTORE PUSH1 0x20 ADD PUSH32 0x536166654D6174683A207375627472616374696F6E206F766572666C6F770000 DUP2 MSTORE POP PUSH2 0x2340 JUMP JUMPDEST SWAP1 POP SWAP3 SWAP2 POP POP JUMP JUMPDEST PUSH2 0x1D71 DUP4 PUSH4 0xA9059CBB PUSH1 0xE0 SHL DUP5 DUP5 PUSH1 0x40 MLOAD PUSH1 0x24 ADD DUP1 DUP4 PUSH20 0xFFFFFFFFFFFFFFFFFFFFFFFFFFFFFFFFFFFFFFFF AND DUP2 MSTORE PUSH1 0x20 ADD DUP3 DUP2 MSTORE PUSH1 0x20 ADD SWAP3 POP POP POP PUSH1 0x40 MLOAD PUSH1 0x20 DUP2 DUP4 SUB SUB DUP2 MSTORE SWAP1 PUSH1 0x40 MSTORE SWAP1 PUSH28 0xFFFFFFFFFFFFFFFFFFFFFFFFFFFFFFFFFFFFFFFFFFFFFFFFFFFFFFFF NOT AND PUSH1 0x20 DUP3 ADD DUP1 MLOAD PUSH28 0xFFFFFFFFFFFFFFFFFFFFFFFFFFFFFFFFFFFFFFFFFFFFFFFFFFFFFFFF DUP4 DUP2 DUP4 AND OR DUP4 MSTORE POP POP POP POP PUSH2 0x2400 JUMP JUMPDEST POP POP POP JUMP JUMPDEST PUSH1 0x0 DUP1 DUP4 EQ ISZERO PUSH2 0x1D89 JUMPI PUSH1 0x0 SWAP1 POP PUSH2 0x1DF6 JUMP JUMPDEST PUSH1 0x0 DUP3 DUP5 MUL SWAP1 POP DUP3 DUP5 DUP3 DUP2 PUSH2 0x1D9A JUMPI INVALID JUMPDEST DIV EQ PUSH2 0x1DF1 JUMPI PUSH1 0x40 MLOAD PUSH32 0x8C379A000000000000000000000000000000000000000000000000000000000 DUP2 MSTORE PUSH1 0x4 ADD DUP1 DUP1 PUSH1 0x20 ADD DUP3 DUP2 SUB DUP3 MSTORE PUSH1 0x21 DUP2 MSTORE PUSH1 0x20 ADD DUP1 PUSH2 0x28D6 PUSH1 0x21 SWAP2 CODECOPY PUSH1 0x40 ADD SWAP2 POP POP PUSH1 0x40 MLOAD DUP1 SWAP2 SUB SWAP1 REVERT JUMPDEST DUP1 SWAP2 POP POP JUMPDEST SWAP3 SWAP2 POP POP JUMP JUMPDEST PUSH1 0x0 PUSH2 0x1E3E DUP4 DUP4 PUSH1 0x40 MLOAD DUP1 PUSH1 0x40 ADD PUSH1 0x40 MSTORE DUP1 PUSH1 0x1A DUP2 MSTORE PUSH1 0x20 ADD PUSH32 0x536166654D6174683A206469766973696F6E206279207A65726F000000000000 DUP2 MSTORE POP PUSH2 0x24EF JUMP JUMPDEST SWAP1 POP SWAP3 SWAP2 POP POP JUMP JUMPDEST PUSH1 0x0 PUSH1 0x4 SLOAD NUMBER GT PUSH2 0x1E57 JUMPI NUMBER PUSH2 0x1E5B JUMP JUMPDEST PUSH1 0x4 SLOAD JUMPDEST SWAP1 POP SWAP1 JUMP JUMPDEST PUSH1 0x0 CALLER SWAP1 POP SWAP1 JUMP JUMPDEST PUSH2 0x1F23 DUP5 PUSH4 0x23B872DD PUSH1 0xE0 SHL DUP6 DUP6 DUP6 PUSH1 0x40 MLOAD PUSH1 0x24 ADD DUP1 DUP5 PUSH20 0xFFFFFFFFFFFFFFFFFFFFFFFFFFFFFFFFFFFFFFFF AND DUP2 MSTORE PUSH1 0x20 ADD DUP4 PUSH20 0xFFFFFFFFFFFFFFFFFFFFFFFFFFFFFFFFFFFFFFFF AND DUP2 MSTORE PUSH1 0x20 ADD DUP3 DUP2 MSTORE PUSH1 0x20 ADD SWAP4 POP POP POP POP PUSH1 0x40 MLOAD PUSH1 0x20 DUP2 DUP4 SUB SUB DUP2 MSTORE SWAP1 PUSH1 0x40 MSTORE SWAP1 PUSH28 0xFFFFFFFFFFFFFFFFFFFFFFFFFFFFFFFFFFFFFFFFFFFFFFFFFFFFFFFF NOT AND PUSH1 0x20 DUP3 ADD DUP1 MLOAD PUSH28 0xFFFFFFFFFFFFFFFFFFFFFFFFFFFFFFFFFFFFFFFFFFFFFFFFFFFFFFFF DUP4 DUP2 DUP4 AND OR DUP4 MSTORE POP POP POP POP PUSH2 0x2400 JUMP JUMPDEST POP POP POP POP JUMP JUMPDEST PUSH1 0x0 PUSH20 0xFFFFFFFFFFFFFFFFFFFFFFFFFFFFFFFFFFFFFFFF AND DUP2 PUSH20 0xFFFFFFFFFFFFFFFFFFFFFFFFFFFFFFFFFFFFFFFF AND EQ ISZERO PUSH2 0x1FAF JUMPI PUSH1 0x40 MLOAD PUSH32 0x8C379A000000000000000000000000000000000000000000000000000000000 DUP2 MSTORE PUSH1 0x4 ADD DUP1 DUP1 PUSH1 0x20 ADD DUP3 DUP2 SUB DUP3 MSTORE PUSH1 0x26 DUP2 MSTORE PUSH1 0x20 ADD DUP1 PUSH2 0x2849 PUSH1 0x26 SWAP2 CODECOPY PUSH1 0x40 ADD SWAP2 POP POP PUSH1 0x40 MLOAD DUP1 SWAP2 SUB SWAP1 REVERT JUMPDEST DUP1 PUSH20 0xFFFFFFFFFFFFFFFFFFFFFFFFFFFFFFFFFFFFFFFF AND PUSH1 0x0 DUP1 SLOAD SWAP1 PUSH2 0x100 EXP SWAP1 DIV PUSH20 0xFFFFFFFFFFFFFFFFFFFFFFFFFFFFFFFFFFFFFFFF AND PUSH20 0xFFFFFFFFFFFFFFFFFFFFFFFFFFFFFFFFFFFFFFFF AND PUSH32 0x8BE0079C531659141344CD1FD0A4F28419497F9722A3DAAFE3B4186F6B6457E0 PUSH1 0x40 MLOAD PUSH1 0x40 MLOAD DUP1 SWAP2 SUB SWAP1 LOG3 DUP1 PUSH1 0x0 DUP1 PUSH2 0x100 EXP DUP2 SLOAD DUP2 PUSH20 0xFFFFFFFFFFFFFFFFFFFFFFFFFFFFFFFFFFFFFFFF MUL NOT AND SWAP1 DUP4 PUSH20 0xFFFFFFFFFFFFFFFFFFFFFFFFFFFFFFFFFFFFFFFF AND MUL OR SWAP1 SSTORE POP POP JUMP JUMPDEST PUSH1 0x0 PUSH1 0x2 PUSH1 0x0 SWAP1 SLOAD SWAP1 PUSH2 0x100 EXP SWAP1 DIV PUSH20 0xFFFFFFFFFFFFFFFFFFFFFFFFFFFFFFFFFFFFFFFF AND PUSH20 0xFFFFFFFFFFFFFFFFFFFFFFFFFFFFFFFFFFFFFFFF AND PUSH4 0x70A08231 ADDRESS PUSH1 0x40 MLOAD DUP3 PUSH4 0xFFFFFFFF AND PUSH1 0xE0 SHL DUP2 MSTORE PUSH1 0x4 ADD DUP1 DUP3 PUSH20 0xFFFFFFFFFFFFFFFFFFFFFFFFFFFFFFFFFFFFFFFF AND DUP2 MSTORE PUSH1 0x20 ADD SWAP2 POP POP PUSH1 0x20 PUSH1 0x40 MLOAD DUP1 DUP4 SUB DUP2 DUP7 DUP1 EXTCODESIZE ISZERO DUP1 ISZERO PUSH2 0x20F7 JUMPI PUSH1 0x0 DUP1 REVERT JUMPDEST POP GAS STATICCALL ISZERO DUP1 ISZERO PUSH2 0x210B JUMPI RETURNDATASIZE PUSH1 0x0 DUP1 RETURNDATACOPY RETURNDATASIZE PUSH1 0x0 REVERT JUMPDEST POP POP POP POP PUSH1 0x40 MLOAD RETURNDATASIZE PUSH1 0x20 DUP2 LT ISZERO PUSH2 0x2121 JUMPI PUSH1 0x0 DUP1 REVERT JUMPDEST DUP2 ADD SWAP1 DUP1 DUP1 MLOAD SWAP1 PUSH1 0x20 ADD SWAP1 SWAP3 SWAP2 SWAP1 POP POP POP SWAP1 POP PUSH1 0x0 DUP2 DUP4 GT ISZERO PUSH2 0x2213 JUMPI PUSH1 0x2 PUSH1 0x0 SWAP1 SLOAD SWAP1 PUSH2 0x100 EXP SWAP1 DIV PUSH20 0xFFFFFFFFFFFFFFFFFFFFFFFFFFFFFFFFFFFFFFFF AND PUSH20 0xFFFFFFFFFFFFFFFFFFFFFFFFFFFFFFFFFFFFFFFF AND PUSH4 0xA9059CBB DUP6 DUP5 PUSH1 0x40 MLOAD DUP4 PUSH4 0xFFFFFFFF AND PUSH1 0xE0 SHL DUP2 MSTORE PUSH1 0x4 ADD DUP1 DUP4 PUSH20 0xFFFFFFFFFFFFFFFFFFFFFFFFFFFFFFFFFFFFFFFF AND DUP2 MSTORE PUSH1 0x20 ADD DUP3 DUP2 MSTORE PUSH1 0x20 ADD SWAP3 POP POP POP PUSH1 0x20 PUSH1 0x40 MLOAD DUP1 DUP4 SUB DUP2 PUSH1 0x0 DUP8 DUP1 EXTCODESIZE ISZERO DUP1 ISZERO PUSH2 0x21D1 JUMPI PUSH1 0x0 DUP1 REVERT JUMPDEST POP GAS CALL ISZERO DUP1 ISZERO PUSH2 0x21E5 JUMPI RETURNDATASIZE PUSH1 0x0 DUP1 RETURNDATACOPY RETURNDATASIZE PUSH1 0x0 REVERT JUMPDEST POP POP POP POP PUSH1 0x40 MLOAD RETURNDATASIZE PUSH1 0x20 DUP2 LT ISZERO PUSH2 0x21FB JUMPI PUSH1 0x0 DUP1 REVERT JUMPDEST DUP2 ADD SWAP1 DUP1 DUP1 MLOAD SWAP1 PUSH1 0x20 ADD SWAP1 SWAP3 SWAP2 SWAP1 POP POP POP SWAP1 POP PUSH2 0x22E4 JUMP JUMPDEST PUSH1 0x2 PUSH1 0x0 SWAP1 SLOAD SWAP1 PUSH2 0x100 EXP SWAP1 DIV PUSH20 0xFFFFFFFFFFFFFFFFFFFFFFFFFFFFFFFFFFFFFFFF AND PUSH20 0xFFFFFFFFFFFFFFFFFFFFFFFFFFFFFFFFFFFFFFFF AND PUSH4 0xA9059CBB DUP6 DUP6 PUSH1 0x40 MLOAD DUP4 PUSH4 0xFFFFFFFF AND PUSH1 0xE0 SHL DUP2 MSTORE PUSH1 0x4 ADD DUP1 DUP4 PUSH20 0xFFFFFFFFFFFFFFFFFFFFFFFFFFFFFFFFFFFFFFFF AND DUP2 MSTORE PUSH1 0x20 ADD DUP3 DUP2 MSTORE PUSH1 0x20 ADD SWAP3 POP POP POP PUSH1 0x20 PUSH1 0x40 MLOAD DUP1 DUP4 SUB DUP2 PUSH1 0x0 DUP8 DUP1 EXTCODESIZE ISZERO DUP1 ISZERO PUSH2 0x22A6 JUMPI PUSH1 0x0 DUP1 REVERT JUMPDEST POP GAS CALL ISZERO DUP1 ISZERO PUSH2 0x22BA JUMPI RETURNDATASIZE PUSH1 0x0 DUP1 RETURNDATACOPY RETURNDATASIZE PUSH1 0x0 REVERT JUMPDEST POP POP POP POP PUSH1 0x40 MLOAD RETURNDATASIZE PUSH1 0x20 DUP2 LT ISZERO PUSH2 0x22D0 JUMPI PUSH1 0x0 DUP1 REVERT JUMPDEST DUP2 ADD SWAP1 DUP1 DUP1 MLOAD SWAP1 PUSH1 0x20 ADD SWAP1 SWAP3 SWAP2 SWAP1 POP POP POP SWAP1 POP JUMPDEST DUP1 PUSH2 0x233A JUMPI PUSH1 0x40 MLOAD PUSH32 0x8C379A000000000000000000000000000000000000000000000000000000000 DUP2 MSTORE PUSH1 0x4 ADD DUP1 DUP1 PUSH1 0x20 ADD DUP3 DUP2 SUB DUP3 MSTORE PUSH1 0x22 DUP2 MSTORE PUSH1 0x20 ADD DUP1 PUSH2 0x286F PUSH1 0x22 SWAP2 CODECOPY PUSH1 0x40 ADD SWAP2 POP POP PUSH1 0x40 MLOAD DUP1 SWAP2 SUB SWAP1 REVERT JUMPDEST POP POP POP POP JUMP JUMPDEST PUSH1 0x0 DUP4 DUP4 GT ISZERO DUP3 SWAP1 PUSH2 0x23ED JUMPI PUSH1 0x40 MLOAD PUSH32 0x8C379A000000000000000000000000000000000000000000000000000000000 DUP2 MSTORE PUSH1 0x4 ADD DUP1 DUP1 PUSH1 0x20 ADD DUP3 DUP2 SUB DUP3 MSTORE DUP4 DUP2 DUP2 MLOAD DUP2 MSTORE PUSH1 0x20 ADD SWAP2 POP DUP1 MLOAD SWAP1 PUSH1 0x20 ADD SWAP1 DUP1 DUP4 DUP4 PUSH1 0x0 JUMPDEST DUP4 DUP2 LT ISZERO PUSH2 0x23B2 JUMPI DUP1 DUP3 ADD MLOAD DUP2 DUP5 ADD MSTORE PUSH1 0x20 DUP2 ADD SWAP1 POP PUSH2 0x2397 JUMP JUMPDEST POP POP POP POP SWAP1 POP SWAP1 DUP2 ADD SWAP1 PUSH1 0x1F AND DUP1 ISZERO PUSH2 0x23DF JUMPI DUP1 DUP3 SUB DUP1 MLOAD PUSH1 0x1 DUP4 PUSH1 0x20 SUB PUSH2 0x100 EXP SUB NOT AND DUP2 MSTORE PUSH1 0x20 ADD SWAP2 POP JUMPDEST POP SWAP3 POP POP POP PUSH1 0x40 MLOAD DUP1 SWAP2 SUB SWAP1 REVERT JUMPDEST POP PUSH1 0x0 DUP4 DUP6 SUB SWAP1 POP DUP1 SWAP2 POP POP SWAP4 SWAP3 POP POP POP JUMP JUMPDEST PUSH1 0x60 PUSH2 0x2462 DUP3 PUSH1 0x40 MLOAD DUP1 PUSH1 0x40 ADD PUSH1 0x40 MSTORE DUP1 PUSH1 0x20 DUP2 MSTORE PUSH1 0x20 ADD PUSH32 0x5361666542455032303A206C6F772D6C6576656C2063616C6C206661696C6564 DUP2 MSTORE POP DUP6 PUSH20 0xFFFFFFFFFFFFFFFFFFFFFFFFFFFFFFFFFFFFFFFF AND PUSH2 0x25B5 SWAP1 SWAP3 SWAP2 SWAP1 PUSH4 0xFFFFFFFF AND JUMP JUMPDEST SWAP1 POP PUSH1 0x0 DUP2 MLOAD GT ISZERO PUSH2 0x24EA JUMPI DUP1 DUP1 PUSH1 0x20 ADD SWAP1 MLOAD PUSH1 0x20 DUP2 LT ISZERO PUSH2 0x2483 JUMPI PUSH1 0x0 DUP1 REVERT JUMPDEST DUP2 ADD SWAP1 DUP1 DUP1 MLOAD SWAP1 PUSH1 0x20 ADD SWAP1 SWAP3 SWAP2 SWAP1 POP POP POP PUSH2 0x24E9 JUMPI PUSH1 0x40 MLOAD PUSH32 0x8C379A000000000000000000000000000000000000000000000000000000000 DUP2 MSTORE PUSH1 0x4 ADD DUP1 DUP1 PUSH1 0x20 ADD DUP3 DUP2 SUB DUP3 MSTORE PUSH1 0x2A DUP2 MSTORE PUSH1 0x20 ADD DUP1 PUSH2 0x281F PUSH1 0x2A SWAP2 CODECOPY PUSH1 0x40 ADD SWAP2 POP POP PUSH1 0x40 MLOAD DUP1 SWAP2 SUB SWAP1 REVERT JUMPDEST JUMPDEST POP POP POP JUMP JUMPDEST PUSH1 0x0 DUP1 DUP4 GT DUP3 SWAP1 PUSH2 0x259B JUMPI PUSH1 0x40 MLOAD PUSH32 0x8C379A000000000000000000000000000000000000000000000000000000000 DUP2 MSTORE PUSH1 0x4 ADD DUP1 DUP1 PUSH1 0x20 ADD DUP3 DUP2 SUB DUP3 MSTORE DUP4 DUP2 DUP2 MLOAD DUP2 MSTORE PUSH1 0x20 ADD SWAP2 POP DUP1 MLOAD SWAP1 PUSH1 0x20 ADD SWAP1 DUP1 DUP4 DUP4 PUSH1 0x0 JUMPDEST DUP4 DUP2 LT ISZERO PUSH2 0x2560 JUMPI DUP1 DUP3 ADD MLOAD DUP2 DUP5 ADD MSTORE PUSH1 0x20 DUP2 ADD SWAP1 POP PUSH2 0x2545 JUMP JUMPDEST POP POP POP POP SWAP1 POP SWAP1 DUP2 ADD SWAP1 PUSH1 0x1F AND DUP1 ISZERO PUSH2 0x258D JUMPI DUP1 DUP3 SUB DUP1 MLOAD PUSH1 0x1 DUP4 PUSH1 0x20 SUB PUSH2 0x100 EXP SUB NOT AND DUP2 MSTORE PUSH1 0x20 ADD SWAP2 POP JUMPDEST POP SWAP3 POP POP POP PUSH1 0x40 MLOAD DUP1 SWAP2 SUB SWAP1 REVERT JUMPDEST POP PUSH1 0x0 DUP4 DUP6 DUP2 PUSH2 0x25A7 JUMPI INVALID JUMPDEST DIV SWAP1 POP DUP1 SWAP2 POP POP SWAP4 SWAP3 POP POP POP JUMP JUMPDEST PUSH1 0x60 PUSH2 0x25C4 DUP5 DUP5 PUSH1 0x0 DUP6 PUSH2 0x25CD JUMP JUMPDEST SWAP1 POP SWAP4 SWAP3 POP POP POP JUMP JUMPDEST PUSH1 0x60 PUSH2 0x25D8 DUP6 PUSH2 0x27D3 JUMP JUMPDEST PUSH2 0x264A JUMPI PUSH1 0x40 MLOAD PUSH32 0x8C379A000000000000000000000000000000000000000000000000000000000 DUP2 MSTORE PUSH1 0x4 ADD DUP1 DUP1 PUSH1 0x20 ADD DUP3 DUP2 SUB DUP3 MSTORE PUSH1 0x1D DUP2 MSTORE PUSH1 0x20 ADD DUP1 PUSH32 0x416464726573733A2063616C6C20746F206E6F6E2D636F6E7472616374000000 DUP2 MSTORE POP PUSH1 0x20 ADD SWAP2 POP POP PUSH1 0x40 MLOAD DUP1 SWAP2 SUB SWAP1 REVERT JUMPDEST PUSH1 0x0 PUSH1 0x60 DUP7 PUSH20 0xFFFFFFFFFFFFFFFFFFFFFFFFFFFFFFFFFFFFFFFF AND DUP6 DUP8 PUSH1 0x40 MLOAD DUP1 DUP3 DUP1 MLOAD SWAP1 PUSH1 0x20 ADD SWAP1 DUP1 DUP4 DUP4 JUMPDEST PUSH1 0x20 DUP4 LT PUSH2 0x269A JUMPI DUP1 MLOAD DUP3 MSTORE PUSH1 0x20 DUP3 ADD SWAP2 POP PUSH1 0x20 DUP2 ADD SWAP1 POP PUSH1 0x20 DUP4 SUB SWAP3 POP PUSH2 0x2677 JUMP JUMPDEST PUSH1 0x1 DUP4 PUSH1 0x20 SUB PUSH2 0x100 EXP SUB DUP1 NOT DUP3 MLOAD AND DUP2 DUP5 MLOAD AND DUP1 DUP3 OR DUP6 MSTORE POP POP POP POP POP POP SWAP1 POP ADD SWAP2 POP POP PUSH1 0x0 PUSH1 0x40 MLOAD DUP1 DUP4 SUB DUP2 DUP6 DUP8 GAS CALL SWAP3 POP POP POP RETURNDATASIZE DUP1 PUSH1 0x0 DUP2 EQ PUSH2 0x26FC JUMPI PUSH1 0x40 MLOAD SWAP2 POP PUSH1 0x1F NOT PUSH1 0x3F RETURNDATASIZE ADD AND DUP3 ADD PUSH1 0x40 MSTORE RETURNDATASIZE DUP3 MSTORE RETURNDATASIZE PUSH1 0x0 PUSH1 0x20 DUP5 ADD RETURNDATACOPY PUSH2 0x2701 JUMP JUMPDEST PUSH1 0x60 SWAP2 POP JUMPDEST POP SWAP2 POP SWAP2 POP DUP2 ISZERO PUSH2 0x2716 JUMPI DUP1 SWAP3 POP POP POP PUSH2 0x27CB JUMP JUMPDEST PUSH1 0x0 DUP2 MLOAD GT ISZERO PUSH2 0x2729 JUMPI DUP1 MLOAD DUP1 DUP3 PUSH1 0x20 ADD REVERT JUMPDEST DUP4 PUSH1 0x40 MLOAD PUSH32 0x8C379A000000000000000000000000000000000000000000000000000000000 DUP2 MSTORE PUSH1 0x4 ADD DUP1 DUP1 PUSH1 0x20 ADD DUP3 DUP2 SUB DUP3 MSTORE DUP4 DUP2 DUP2 MLOAD DUP2 MSTORE PUSH1 0x20 ADD SWAP2 POP DUP1 MLOAD SWAP1 PUSH1 0x20 ADD SWAP1 DUP1 DUP4 DUP4 PUSH1 0x0 JUMPDEST DUP4 DUP2 LT ISZERO PUSH2 0x2790 JUMPI DUP1 DUP3 ADD MLOAD DUP2 DUP5 ADD MSTORE PUSH1 0x20 DUP2 ADD SWAP1 POP PUSH2 0x2775 JUMP JUMPDEST POP POP POP POP SWAP1 POP SWAP1 DUP2 ADD SWAP1 PUSH1 0x1F AND DUP1 ISZERO PUSH2 0x27BD JUMPI DUP1 DUP3 SUB DUP1 MLOAD PUSH1 0x1 DUP4 PUSH1 0x20 SUB PUSH2 0x100 EXP SUB NOT AND DUP2 MSTORE PUSH1 0x20 ADD SWAP2 POP JUMPDEST POP SWAP3 POP POP POP PUSH1 0x40 MLOAD DUP1 SWAP2 SUB SWAP1 REVERT JUMPDEST SWAP5 SWAP4 POP POP POP POP JUMP JUMPDEST PUSH1 0x0 DUP1 PUSH1 0x0 PUSH32 0xC5D2460186F7233C927E7DB2DCC703C0E500B653CA82273B7BFAD8045D85A470 PUSH1 0x0 SHL SWAP1 POP DUP4 EXTCODEHASH SWAP2 POP DUP1 DUP3 EQ ISZERO DUP1 ISZERO PUSH2 0x2815 JUMPI POP PUSH1 0x0 DUP1 SHL DUP3 EQ ISZERO JUMPDEST SWAP3 POP POP POP SWAP2 SWAP1 POP JUMP INVALID MSTORE8 PUSH2 0x6665 TIMESTAMP GASLIMIT POP ORIGIN ADDRESS GASPRICE KECCAK256 TIMESTAMP GASLIMIT POP ORIGIN ADDRESS KECCAK256 PUSH16 0x7065726174696F6E20646964206E6F74 KECCAK256 PUSH20 0x7563636565644F776E61626C653A206E6577206F PUSH24 0x6E657220697320746865207A65726F206164647265737373 PUSH2 0x6665 POP PUSH13 0x756D5472616E736665723A2074 PUSH19 0x616E73666572206661696C65642E7570646174 PUSH6 0x207374617274 PUSH3 0x6C6F63 PUSH12 0x3A206E657720737461727420 PUSH3 0x6C6F63 PUSH12 0x206D75737420626520616674 PUSH6 0x722070726576 PUSH10 0x6F757320737461727420 PUSH3 0x6C6F63 PUSH12 0x536166654D6174683A206D75 PUSH13 0x7469706C69636174696F6E206F PUSH23 0x6572666C6F77676574506F6F6C4964466F724C70546F6B PUSH6 0x6E3A20646F20 PUSH15 0x6F742065786973746465706F736974 GASPRICE KECCAK256 PUSH20 0x74616B696E6720706572696F642068617320656E PUSH5 0x6564A26469 PUSH17 0x6673582212205D9FD4DC2DCE727072CCEF 0xDF PUSH6 0x6CFDA8CEFD9B AND NUMBER INVALID LOG4 0xBC 0xCE DUP11 ADDMOD 0xBF CODESIZE 0xAF SSTORE 0xB0 PUSH5 0x736F6C6343 STOP MOD 0xC STOP CALLER "},"gasEstimates":{"creation":{"codeDepositCost":"2121200","executionCost":"infinite","totalCost":"infinite"},"external":{"FAANG()":"1136","FAANGPerBlock()":"1095","add(address,bool)":"infinite","canClaimFAANGRewards()":"1072","deposit(uint256,uint256)":"infinite","emergencyWithdraw(uint256)":"infinite","getMultiplier(uint256,uint256)":"infinite","getPoolIdForLpToken(address)":"infinite","massUpdatePools()":"infinite","owner()":"1122","pendingFAANG(uint256,address)":"infinite","poolExistence(address)":"1266","poolIdForLpAddress(address)":"1191","poolInfo(uint256)":"3757","poolLength()":"1045","renounceOwnership()":"24314","transferOwnership(address)":"infinite","updatePool(uint256)":"infinite","updateStartBlock(uint256)":"infinite","userInfo(uint256,address)":"3050","withdraw(uint256,uint256)":"infinite"},"internal":{"minCurrentBlockAndInactiveBlockIfExist()":"1646","payOrLockupPendingFAANG(uint256)":"infinite","safeFAANGTransfer(address,uint256)":"infinite"}},"methodIdentifiers":{"FAANG()":"6621d3ba","FAANGPerBlock()":"267c3338","add(address,bool)":"6e983466","canClaimFAANGRewards()":"71811c3f","deposit(uint256,uint256)":"e2bbb158","emergencyWithdraw(uint256)":"5312ea8e","getMultiplier(uint256,uint256)":"8dbb1e3a","getPoolIdForLpToken(address)":"190f39f0","massUpdatePools()":"630b5ba1","owner()":"8da5cb5b","pendingFAANG(uint256,address)":"c100710d","poolExistence(address)":"cbd258b5","poolIdForLpAddress(address)":"9bf62f7e","poolInfo(uint256)":"1526fe27","poolLength()":"081e3eda","renounceOwnership()":"715018a6","transferOwnership(address)":"f2fde38b","updatePool(uint256)":"51eb05a6","updateStartBlock(uint256)":"fac2b9ba","userInfo(uint256,address)":"93f1a40b","withdraw(uint256,uint256)":"441a3e70"}},"storageLayout":{"storage":[{"astId":2391,"contract":"FAANGOrchestrator.sol:FAANGOrchestrator","label":"_owner","offset":0,"slot":"0","type":"t_address"},{"astId":2590,"contract":"FAANGOrchestrator.sol:FAANGOrchestrator","label":"_status","offset":0,"slot":"1","type":"t_uint256"},{"astId":798,"contract":"FAANGOrchestrator.sol:FAANGOrchestrator","label":"FAANG","offset":0,"slot":"2","type":"t_contract(FAANGToken)2282"},{"astId":801,"contract":"FAANGOrchestrator.sol:FAANGOrchestrator","label":"FAANGPerBlock","offset":0,"slot":"3","type":"t_uint256"},{"astId":803,"contract":"FAANGOrchestrator.sol:FAANGOrchestrator","label":"inActiveBlock","offset":0,"slot":"4","type":"t_uint256"},{"astId":805,"contract":"FAANGOrchestrator.sol:FAANGOrchestrator","label":"startBlock","offset":0,"slot":"5","type":"t_uint256"},{"astId":808,"contract":"FAANGOrchestrator.sol:FAANGOrchestrator","label":"poolInfo","offset":0,"slot":"6","type":"t_array(t_struct(PoolInfo)796_storage)dyn_storage"},{"astId":814,"contract":"FAANGOrchestrator.sol:FAANGOrchestrator","label":"userInfo","offset":0,"slot":"7","type":"t_mapping(t_uint256,t_mapping(t_address,t_struct(UserInfo)789_storage))"},{"astId":818,"contract":"FAANGOrchestrator.sol:FAANGOrchestrator","label":"poolExistence","offset":0,"slot":"8","type":"t_mapping(t_contract(IBEP20)2383,t_bool)"},{"astId":822,"contract":"FAANGOrchestrator.sol:FAANGOrchestrator","label":"poolIdForLpAddress","offset":0,"slot":"9","type":"t_mapping(t_contract(IBEP20)2383,t_uint256)"}],"types":{"t_address":{"encoding":"inplace","label":"address","numberOfBytes":"20"},"t_array(t_struct(PoolInfo)796_storage)dyn_storage":{"base":"t_struct(PoolInfo)796_storage","encoding":"dynamic_array","label":"struct FAANGOrchestrator.PoolInfo[]","numberOfBytes":"32"},"t_bool":{"encoding":"inplace","label":"bool","numberOfBytes":"1"},"t_contract(FAANGToken)2282":{"encoding":"inplace","label":"contract FAANGToken","numberOfBytes":"20"},"t_contract(IBEP20)2383":{"encoding":"inplace","label":"contract IBEP20","numberOfBytes":"20"},"t_mapping(t_address,t_struct(UserInfo)789_storage)":{"encoding":"mapping","key":"t_address","label":"mapping(address => struct FAANGOrchestrator.UserInfo)","numberOfBytes":"32","value":"t_struct(UserInfo)789_storage"},"t_mapping(t_contract(IBEP20)2383,t_bool)":{"encoding":"mapping","key":"t_contract(IBEP20)2383","label":"mapping(contract IBEP20 => bool)","numberOfBytes":"32","value":"t_bool"},"t_mapping(t_contract(IBEP20)2383,t_uint256)":{"encoding":"mapping","key":"t_contract(IBEP20)2383","label":"mapping(contract IBEP20 => uint256)","numberOfBytes":"32","value":"t_uint256"},"t_mapping(t_uint256,t_mapping(t_address,t_struct(UserInfo)789_storage))":{"encoding":"mapping","key":"t_uint256","label":"mapping(uint256 => mapping(address => struct FAANGOrchestrator.UserInfo))","numberOfBytes":"32","value":"t_mapping(t_address,t_struct(UserInfo)789_storage)"},"t_struct(PoolInfo)796_storage":{"encoding":"inplace","label":"struct FAANGOrchestrator.PoolInfo","members":[{"astId":791,"contract":"FAANGOrchestrator.sol:FAANGOrchestrator","label":"lpToken","offset":0,"slot":"0","type":"t_contract(IBEP20)2383"},{"astId":793,"contract":"FAANGOrchestrator.sol:FAANGOrchestrator","label":"lastRewardBlock","offset":0,"slot":"1","type":"t_uint256"},{"astId":795,"contract":"FAANGOrchestrator.sol:FAANGOrchestrator","label":"accFAANGPerShare","offset":0,"slot":"2","type":"t_uint256"}],"numberOfBytes":"96"},"t_struct(UserInfo)789_storage":{"encoding":"inplace","label":"struct FAANGOrchestrator.UserInfo","members":[{"astId":784,"contract":"FAANGOrchestrator.sol:FAANGOrchestrator","label":"amount","offset":0,"slot":"0","type":"t_uint256"},{"astId":786,"contract":"FAANGOrchestrator.sol:FAANGOrchestrator","label":"rewardDebt","offset":0,"slot":"1","type":"t_uint256"},{"astId":788,"contract":"FAANGOrchestrator.sol:FAANGOrchestrator","label":"rewardLockedUp","offset":0,"slot":"2","type":"t_uint256"}],"numberOfBytes":"96"},"t_uint256":{"encoding":"inplace","label":"uint256","numberOfBytes":"32"}}},"userdoc":{"kind":"user","methods":{},"version":1}}