{"abi":[{"inputs":[],"stateMutability":"nonpayable","type":"constructor"},{"anonymous":false,"inputs":[],"name":"Paused","type":"event"},{"anonymous":false,"inputs":[],"name":"Unpaused","type":"event"},{"inputs":[],"name":"paused","outputs":[{"internalType":"bool","name":"","type":"bool"}],"stateMutability":"view","type":"function"}],"devdoc":{"details":"Base contract which allows children to implement an emergency stop mechanism.","kind":"dev","methods":{"paused()":{"returns":{"_0":"true if the contract is paused, false otherwise."}}},"title":"Pausable","version":1},"evm":{"assembly":"    /* \"Pausable.sol\":172:1167  contract Pausable {... */\n  mstore(0x40, 0x80)\n    /* \"Pausable.sol\":258:305  constructor() public {... */\n  callvalue\n  dup1\n  iszero\n  tag_1\n  jumpi\n  0x00\n  dup1\n  revert\ntag_1:\n  pop\n    /* \"Pausable.sol\":295:300  false */\n  0x00\n    /* \"Pausable.sol\":285:292  _paused */\n  dup1\n  0x00\n    /* \"Pausable.sol\":285:300  _paused = false */\n  0x0100\n  exp\n  dup2\n  sload\n  dup2\n  0xff\n  mul\n  not\n  and\n  swap1\n  dup4\n  iszero\n  iszero\n  mul\n  or\n  swap1\n  sstore\n  pop\n    /* \"Pausable.sol\":172:1167  contract Pausable {... */\n  dataSize(sub_0)\n  dup1\n  dataOffset(sub_0)\n  0x00\n  codecopy\n  0x00\n  return\nstop\n\nsub_0: assembly {\n        /* \"Pausable.sol\":172:1167  contract Pausable {... */\n      mstore(0x40, 0x80)\n      callvalue\n      dup1\n      iszero\n      tag_1\n      jumpi\n      0x00\n      dup1\n      revert\n    tag_1:\n      pop\n      jumpi(tag_2, lt(calldatasize, 0x04))\n      shr(0xe0, calldataload(0x00))\n      dup1\n      0x5c975abb\n      eq\n      tag_3\n      jumpi\n    tag_2:\n      0x00\n      dup1\n      revert\n        /* \"Pausable.sol\":383:452  function paused() public view returns(bool) {... */\n    tag_3:\n      tag_4\n      tag_5\n      jump\t// in\n    tag_4:\n      mload(0x40)\n      dup1\n      dup3\n      iszero\n      iszero\n      dup2\n      mstore\n      0x20\n      add\n      swap2\n      pop\n      pop\n      mload(0x40)\n      dup1\n      swap2\n      sub\n      swap1\n      return\n    tag_5:\n        /* \"Pausable.sol\":421:425  bool */\n      0x00\n        /* \"Pausable.sol\":440:447  _paused */\n      dup1\n      0x00\n      swap1\n      sload\n      swap1\n      0x0100\n      exp\n      swap1\n      div\n      0xff\n      and\n        /* \"Pausable.sol\":433:447  return _paused */\n      swap1\n      pop\n        /* \"Pausable.sol\":383:452  function paused() public view returns(bool) {... */\n      swap1\n      jump\t// out\n\n    auxdata: 0xa2646970667358221220060067474fb93524d95fd2a5f37f58e0299702f489c30128df4ab74ba2b74a8c64736f6c634300060c0033\n}\n","bytecode":{"linkReferences":{},"object":"6080604052348015600f57600080fd5b5060008060006101000a81548160ff0219169083151502179055506097806100386000396000f3fe6080604052348015600f57600080fd5b506004361060285760003560e01c80635c975abb14602d575b600080fd5b6033604b565b60405180821515815260200191505060405180910390f35b60008060009054906101000a900460ff1690509056fea2646970667358221220060067474fb93524d95fd2a5f37f58e0299702f489c30128df4ab74ba2b74a8c64736f6c634300060c0033","opcodes":"PUSH1 0x80 PUSH1 0x40 MSTORE CALLVALUE DUP1 ISZERO PUSH1 0xF JUMPI PUSH1 0x0 DUP1 REVERT JUMPDEST POP PUSH1 0x0 DUP1 PUSH1 0x0 PUSH2 0x100 EXP DUP2 SLOAD DUP2 PUSH1 0xFF MUL NOT AND SWAP1 DUP4 ISZERO ISZERO MUL OR SWAP1 SSTORE POP PUSH1 0x97 DUP1 PUSH2 0x38 PUSH1 0x0 CODECOPY PUSH1 0x0 RETURN INVALID PUSH1 0x80 PUSH1 0x40 MSTORE CALLVALUE DUP1 ISZERO PUSH1 0xF JUMPI PUSH1 0x0 DUP1 REVERT JUMPDEST POP PUSH1 0x4 CALLDATASIZE LT PUSH1 0x28 JUMPI PUSH1 0x0 CALLDATALOAD PUSH1 0xE0 SHR DUP1 PUSH4 0x5C975ABB EQ PUSH1 0x2D JUMPI JUMPDEST PUSH1 0x0 DUP1 REVERT JUMPDEST PUSH1 0x33 PUSH1 0x4B JUMP JUMPDEST PUSH1 0x40 MLOAD DUP1 DUP3 ISZERO ISZERO DUP2 MSTORE PUSH1 0x20 ADD SWAP2 POP POP PUSH1 0x40 MLOAD DUP1 SWAP2 SUB SWAP1 RETURN JUMPDEST PUSH1 0x0 DUP1 PUSH1 0x0 SWAP1 SLOAD SWAP1 PUSH2 0x100 EXP SWAP1 DIV PUSH1 0xFF AND SWAP1 POP SWAP1 JUMP INVALID LOG2 PUSH5 0x6970667358 0x22 SLT KECCAK256 MOD STOP PUSH8 0x474FB93524D95FD2 0xA5 RETURN PUSH32 0x58E0299702F489C30128DF4AB74BA2B74A8C64736F6C634300060C0033000000 "},"gasEstimates":{"creation":{"codeDepositCost":"30200","executionCost":"20948","totalCost":"51148"},"external":{"paused()":"1033"},"internal":{"pause()":"infinite","unpause()":"infinite"}},"methodIdentifiers":{"paused()":"5c975abb"}},"storageLayout":{"storage":[{"astId":2512,"contract":"Pausable.sol:Pausable","label":"_paused","offset":0,"slot":"0","type":"t_bool"}],"types":{"t_bool":{"encoding":"inplace","label":"bool","numberOfBytes":"1"}}},"userdoc":{"kind":"user","methods":{},"version":1}}