{"abi":[{"inputs":[{"internalType":"contract TEXOToken","name":"_tEXO","type":"address"},{"internalType":"address","name":"_devAddr","type":"address"},{"internalType":"address","name":"_feeAddress","type":"address"},{"internalType":"uint256","name":"_blockToStartReducingEmissionRate","type":"uint256"}],"stateMutability":"nonpayable","type":"constructor"},{"anonymous":false,"inputs":[{"indexed":true,"internalType":"address","name":"caller","type":"address"},{"indexed":false,"internalType":"uint256","name":"previousValue","type":"uint256"},{"indexed":false,"internalType":"uint256","name":"newValue","type":"uint256"}],"name":"BlockToStartEmissionRateUpdated","type":"event"},{"anonymous":false,"inputs":[{"indexed":true,"internalType":"address","name":"user","type":"address"},{"indexed":false,"internalType":"uint256","name":"pid","type":"uint256"},{"indexed":false,"internalType":"uint256","name":"amount","type":"uint256"}],"name":"ClaimReward","type":"event"},{"anonymous":false,"inputs":[{"indexed":true,"internalType":"address","name":"user","type":"address"},{"indexed":true,"internalType":"uint256","name":"pid","type":"uint256"},{"indexed":false,"internalType":"uint256","name":"amount","type":"uint256"}],"name":"Deposit","type":"event"},{"anonymous":false,"inputs":[{"indexed":true,"internalType":"address","name":"user","type":"address"},{"indexed":true,"internalType":"uint256","name":"pid","type":"uint256"},{"indexed":false,"internalType":"uint256","name":"amount","type":"uint256"}],"name":"EmergencyWithdraw","type":"event"},{"anonymous":false,"inputs":[{"indexed":true,"internalType":"address","name":"caller","type":"address"},{"indexed":false,"internalType":"uint256","name":"previousAmount","type":"uint256"},{"indexed":false,"internalType":"uint256","name":"newAmount","type":"uint256"}],"name":"EmissionRateUpdated","type":"event"},{"anonymous":false,"inputs":[{"indexed":true,"internalType":"address","name":"previousOwner","type":"address"},{"indexed":true,"internalType":"address","name":"newOwner","type":"address"}],"name":"OwnershipTransferred","type":"event"},{"anonymous":false,"inputs":[{"indexed":true,"internalType":"address","name":"_referrer","type":"address"},{"indexed":true,"internalType":"address","name":"_user","type":"address"}],"name":"Referral","type":"event"},{"anonymous":false,"inputs":[{"indexed":false,"internalType":"uint256","name":"_oldBp","type":"uint256"},{"indexed":false,"internalType":"uint256","name":"_newBp","type":"uint256"}],"name":"ReferralBonusBpChanged","type":"event"},{"anonymous":false,"inputs":[{"indexed":true,"internalType":"address","name":"_user","type":"address"},{"indexed":true,"internalType":"address","name":"_userTo","type":"address"},{"indexed":false,"internalType":"uint256","name":"_reward","type":"uint256"}],"name":"ReferralPaid","type":"event"},{"anonymous":false,"inputs":[{"indexed":true,"internalType":"address","name":"user","type":"address"},{"indexed":true,"internalType":"address","name":"_feeAddress","type":"address"}],"name":"SetDevAddress","type":"event"},{"anonymous":false,"inputs":[{"indexed":true,"internalType":"address","name":"user","type":"address"},{"indexed":true,"internalType":"address","name":"_devAddress","type":"address"}],"name":"SetFeeAddress","type":"event"},{"anonymous":false,"inputs":[{"indexed":true,"internalType":"address","name":"user","type":"address"},{"indexed":true,"internalType":"uint256","name":"pid","type":"uint256"},{"indexed":false,"internalType":"uint256","name":"amount","type":"uint256"}],"name":"Withdraw","type":"event"},{"inputs":[],"name":"EMISSION_REDUCTION_PERIOD_BLOCKS","outputs":[{"internalType":"uint256","name":"","type":"uint256"}],"stateMutability":"view","type":"function"},{"inputs":[],"name":"EMISSION_REDUCTION_RATE_PER_PERIOD","outputs":[{"internalType":"uint256","name":"","type":"uint256"}],"stateMutability":"view","type":"function"},{"inputs":[],"name":"INITIAL_EMISSION_RATE","outputs":[{"internalType":"uint256","name":"","type":"uint256"}],"stateMutability":"view","type":"function"},{"inputs":[],"name":"MAXIMUM_DEPOSIT_FEE_BP","outputs":[{"internalType":"uint16","name":"","type":"uint16"}],"stateMutability":"view","type":"function"},{"inputs":[],"name":"MAXIMUM_REFERRAL_BP","outputs":[{"internalType":"uint16","name":"","type":"uint16"}],"stateMutability":"view","type":"function"},{"inputs":[],"name":"MINIMUM_EMISSION_RATE","outputs":[{"internalType":"uint256","name":"","type":"uint256"}],"stateMutability":"view","type":"function"},{"inputs":[{"internalType":"uint256","name":"_allocPoint","type":"uint256"},{"internalType":"contract IBEP20","name":"_lpToken","type":"address"},{"internalType":"uint16","name":"_depositFeeBP","type":"uint16"},{"internalType":"bool","name":"_withUpdate","type":"bool"},{"internalType":"uint256","name":"_blockToReceiveReward","type":"uint256"},{"internalType":"uint256","name":"_startGenerateRewardBlock","type":"uint256"},{"internalType":"uint256","name":"_inActiveBlock","type":"uint256"}],"name":"add","outputs":[],"stateMutability":"nonpayable","type":"function"},{"inputs":[],"name":"blockToStartReducingEmissionRate","outputs":[{"internalType":"uint256","name":"","type":"uint256"}],"stateMutability":"view","type":"function"},{"inputs":[{"internalType":"uint256","name":"_pid","type":"uint256"}],"name":"canClaimReward","outputs":[{"internalType":"bool","name":"","type":"bool"}],"stateMutability":"view","type":"function"},{"inputs":[{"internalType":"uint256","name":"_pid","type":"uint256"},{"internalType":"uint256","name":"_amount","type":"uint256"},{"internalType":"address","name":"_referrer","type":"address"}],"name":"deposit","outputs":[],"stateMutability":"nonpayable","type":"function"},{"inputs":[],"name":"devAddr","outputs":[{"internalType":"address","name":"","type":"address"}],"stateMutability":"view","type":"function"},{"inputs":[{"internalType":"uint256","name":"_pid","type":"uint256"}],"name":"emergencyWithdraw","outputs":[],"stateMutability":"nonpayable","type":"function"},{"inputs":[],"name":"feeAddress","outputs":[{"internalType":"address","name":"","type":"address"}],"stateMutability":"view","type":"function"},{"inputs":[{"internalType":"uint256","name":"_from","type":"uint256"},{"internalType":"uint256","name":"_to","type":"uint256"}],"name":"getMultiplier","outputs":[{"internalType":"uint256","name":"","type":"uint256"}],"stateMutability":"pure","type":"function"},{"inputs":[{"internalType":"contract IBEP20","name":"_lpToken","type":"address"}],"name":"getPoolIdForLpToken","outputs":[{"internalType":"uint256","name":"","type":"uint256"}],"stateMutability":"view","type":"function"},{"inputs":[{"internalType":"address","name":"_user","type":"address"}],"name":"getReferral","outputs":[{"internalType":"address","name":"","type":"address"}],"stateMutability":"view","type":"function"},{"inputs":[],"name":"lastReductionPeriodIndex","outputs":[{"internalType":"uint256","name":"","type":"uint256"}],"stateMutability":"view","type":"function"},{"inputs":[],"name":"massUpdatePools","outputs":[],"stateMutability":"nonpayable","type":"function"},{"inputs":[],"name":"owner","outputs":[{"internalType":"address","name":"","type":"address"}],"stateMutability":"view","type":"function"},{"inputs":[{"internalType":"uint256","name":"_pid","type":"uint256"},{"internalType":"address","name":"_user","type":"address"}],"name":"pendingTEXO","outputs":[{"internalType":"uint256","name":"","type":"uint256"}],"stateMutability":"view","type":"function"},{"inputs":[{"internalType":"contract IBEP20","name":"","type":"address"}],"name":"poolExistence","outputs":[{"internalType":"bool","name":"","type":"bool"}],"stateMutability":"view","type":"function"},{"inputs":[{"internalType":"contract IBEP20","name":"","type":"address"}],"name":"poolIdForLpAddress","outputs":[{"internalType":"uint256","name":"","type":"uint256"}],"stateMutability":"view","type":"function"},{"inputs":[{"internalType":"uint256","name":"","type":"uint256"}],"name":"poolInfo","outputs":[{"internalType":"contract IBEP20","name":"lpToken","type":"address"},{"internalType":"uint256","name":"allocPoint","type":"uint256"},{"internalType":"uint256","name":"blockToReceiveReward","type":"uint256"},{"internalType":"uint256","name":"inActiveBlock","type":"uint256"},{"internalType":"uint256","name":"lastRewardBlock","type":"uint256"},{"internalType":"uint256","name":"accTEXOPerShare","type":"uint256"},{"internalType":"uint16","name":"depositFeeBP","type":"uint16"}],"stateMutability":"view","type":"function"},{"inputs":[],"name":"poolLength","outputs":[{"internalType":"uint256","name":"","type":"uint256"}],"stateMutability":"view","type":"function"},{"inputs":[],"name":"reduceEmissionRateWithDefaultRate","outputs":[],"stateMutability":"nonpayable","type":"function"},{"inputs":[],"name":"refBonusBP","outputs":[{"internalType":"uint256","name":"","type":"uint256"}],"stateMutability":"view","type":"function"},{"inputs":[{"internalType":"address","name":"","type":"address"}],"name":"referredCount","outputs":[{"internalType":"uint256","name":"","type":"uint256"}],"stateMutability":"view","type":"function"},{"inputs":[{"internalType":"address","name":"","type":"address"}],"name":"referrers","outputs":[{"internalType":"address","name":"","type":"address"}],"stateMutability":"view","type":"function"},{"inputs":[],"name":"renounceOwnership","outputs":[],"stateMutability":"nonpayable","type":"function"},{"inputs":[{"internalType":"uint256","name":"_pid","type":"uint256"},{"internalType":"uint256","name":"_allocPoint","type":"uint256"},{"internalType":"uint16","name":"_depositFeeBP","type":"uint16"},{"internalType":"bool","name":"_withUpdate","type":"bool"},{"internalType":"uint256","name":"_blockToReceiveReward","type":"uint256"},{"internalType":"uint256","name":"_inActiveBlock","type":"uint256"}],"name":"set","outputs":[],"stateMutability":"nonpayable","type":"function"},{"inputs":[{"internalType":"uint256","name":"newBlockToStartReducingEmissionRate","type":"uint256"}],"name":"setBlockToStartReducingEmissionRate","outputs":[],"stateMutability":"nonpayable","type":"function"},{"inputs":[{"internalType":"address","name":"_devaddr","type":"address"}],"name":"setDevAddress","outputs":[],"stateMutability":"nonpayable","type":"function"},{"inputs":[{"internalType":"uint256","name":"newEmissionRate","type":"uint256"}],"name":"setEmissionRate","outputs":[],"stateMutability":"nonpayable","type":"function"},{"inputs":[{"internalType":"address","name":"_feeAddress","type":"address"}],"name":"setFeeAddress","outputs":[],"stateMutability":"nonpayable","type":"function"},{"inputs":[],"name":"tEXO","outputs":[{"internalType":"contract TEXOToken","name":"","type":"address"}],"stateMutability":"view","type":"function"},{"inputs":[],"name":"tEXOPerBlock","outputs":[{"internalType":"uint256","name":"","type":"uint256"}],"stateMutability":"view","type":"function"},{"inputs":[],"name":"totalAllocPoint","outputs":[{"internalType":"uint256","name":"","type":"uint256"}],"stateMutability":"view","type":"function"},{"inputs":[{"internalType":"address","name":"newOwner","type":"address"}],"name":"transferOwnership","outputs":[],"stateMutability":"nonpayable","type":"function"},{"inputs":[{"internalType":"uint256","name":"_pid","type":"uint256"}],"name":"updatePool","outputs":[],"stateMutability":"nonpayable","type":"function"},{"inputs":[{"internalType":"uint256","name":"_newRefBonusBp","type":"uint256"}],"name":"updateReferralBonusBp","outputs":[],"stateMutability":"nonpayable","type":"function"},{"inputs":[{"internalType":"uint256","name":"","type":"uint256"},{"internalType":"address","name":"","type":"address"}],"name":"userInfo","outputs":[{"internalType":"uint256","name":"amount","type":"uint256"},{"internalType":"uint256","name":"rewardDebt","type":"uint256"},{"internalType":"uint256","name":"rewardLockedUp","type":"uint256"}],"stateMutability":"view","type":"function"},{"inputs":[{"internalType":"uint256","name":"_pid","type":"uint256"},{"internalType":"uint256","name":"_amount","type":"uint256"}],"name":"withdraw","outputs":[],"stateMutability":"nonpayable","type":"function"}],"devdoc":{"kind":"dev","methods":{"owner()":{"details":"Returns the address of the current owner."},"renounceOwnership()":{"details":"Leaves the contract without owner. It will not be possible to call `onlyOwner` functions anymore. Can only be called by the current owner. NOTE: Renouncing ownership will leave the contract without an owner, thereby removing any functionality that is only available to the owner."},"transferOwnership(address)":{"details":"Transfers ownership of the contract to a new account (`newOwner`). Can only be called by the current owner."}},"version":1},"evm":{"assembly":"    /* \"TEXOOrchestrator.sol\":239:19838  contract TEXOOrchestrator is Ownable, ReentrancyGuard {... */\n  mstore(0x40, 0x80)\n    /* \"TEXOOrchestrator.sol\":2562:2563  0 */\n  0x00\n    /* \"TEXOOrchestrator.sol\":2529:2563  uint256 public totalAllocPoint = 0 */\n  0x09\n  sstore\n    /* \"TEXOOrchestrator.sol\":2656:2659  200 */\n  0xc8\n    /* \"TEXOOrchestrator.sol\":2628:2659  uint256 public refBonusBP = 200 */\n  0x0a\n  sstore\n    /* \"TEXOOrchestrator.sol\":3785:3786  0 */\n  0x00\n    /* \"TEXOOrchestrator.sol\":3743:3786  uint256 public lastReductionPeriodIndex = 0 */\n  0x0f\n  sstore\n    /* \"TEXOOrchestrator.sol\":4726:5097  constructor(... */\n  callvalue\n  dup1\n  iszero\n  tag_1\n  jumpi\n  0x00\n  dup1\n  revert\ntag_1:\n  pop\n  mload(0x40)\n  sub(codesize, bytecodeSize)\n  dup1\n  bytecodeSize\n  dup4\n  codecopy\n  dup2\n  dup2\n  add\n  0x40\n  mstore\n  0x80\n  dup2\n  lt\n  iszero\n  tag_2\n  jumpi\n  0x00\n  dup1\n  revert\ntag_2:\n  dup2\n  add\n  swap1\n  dup1\n  dup1\n  mload\n  swap1\n  0x20\n  add\n  swap1\n  swap3\n  swap2\n  swap1\n  dup1\n  mload\n  swap1\n  0x20\n  add\n  swap1\n  swap3\n  swap2\n  swap1\n  dup1\n  mload\n  swap1\n  0x20\n  add\n  swap1\n  swap3\n  swap2\n  swap1\n  dup1\n  mload\n  swap1\n  0x20\n  add\n  swap1\n  swap3\n  swap2\n  swap1\n  pop\n  pop\n  pop\n    /* \"Ownable.sol\":874:891  address msgSender */\n  0x00\n    /* \"Ownable.sol\":894:906  _msgSender() */\n  tag_9\n    /* \"Ownable.sol\":894:904  _msgSender */\n  shl(0x20, tag_10)\n    /* \"Ownable.sol\":894:906  _msgSender() */\n  0x20\n  shr\n  jump\t// in\ntag_9:\n    /* \"Ownable.sol\":874:906  address msgSender = _msgSender() */\n  swap1\n  pop\n    /* \"Ownable.sol\":925:934  msgSender */\n  dup1\n    /* \"Ownable.sol\":916:922  _owner */\n  0x00\n  dup1\n    /* \"Ownable.sol\":916:934  _owner = msgSender */\n  0x0100\n  exp\n  dup2\n  sload\n  dup2\n  0xffffffffffffffffffffffffffffffffffffffff\n  mul\n  not\n  and\n  swap1\n  dup4\n  0xffffffffffffffffffffffffffffffffffffffff\n  and\n  mul\n  or\n  swap1\n  sstore\n  pop\n    /* \"Ownable.sol\":982:991  msgSender */\n  dup1\n    /* \"Ownable.sol\":949:992  OwnershipTransferred(address(0), msgSender) */\n  0xffffffffffffffffffffffffffffffffffffffff\n  and\n    /* \"Ownable.sol\":978:979  0 */\n  0x00\n    /* \"Ownable.sol\":949:992  OwnershipTransferred(address(0), msgSender) */\n  0xffffffffffffffffffffffffffffffffffffffff\n  and\n  0x8be0079c531659141344cd1fd0a4f28419497f9722a3daafe3b4186f6b6457e0\n  mload(0x40)\n  mload(0x40)\n  dup1\n  swap2\n  sub\n  swap1\n  log3\n    /* \"Ownable.sol\":841:999  constructor() internal {... */\n  pop\n    /* \"ReentrancyGuard.sol\":1637:1638  1 */\n  0x01\n    /* \"ReentrancyGuard.sol\":1752:1759  _status */\n  dup1\n    /* \"ReentrancyGuard.sol\":1752:1774  _status = _NOT_ENTERED */\n  dup2\n  swap1\n  sstore\n  pop\n    /* \"TEXOOrchestrator.sol\":4899:4904  _tEXO */\n  dup4\n    /* \"TEXOOrchestrator.sol\":4892:4896  tEXO */\n  0x02\n  0x00\n    /* \"TEXOOrchestrator.sol\":4892:4904  tEXO = _tEXO */\n  0x0100\n  exp\n  dup2\n  sload\n  dup2\n  0xffffffffffffffffffffffffffffffffffffffff\n  mul\n  not\n  and\n  swap1\n  dup4\n  0xffffffffffffffffffffffffffffffffffffffff\n  and\n  mul\n  or\n  swap1\n  sstore\n  pop\n    /* \"TEXOOrchestrator.sol\":4924:4932  _devAddr */\n  dup3\n    /* \"TEXOOrchestrator.sol\":4914:4921  devAddr */\n  0x03\n  0x00\n    /* \"TEXOOrchestrator.sol\":4914:4932  devAddr = _devAddr */\n  0x0100\n  exp\n  dup2\n  sload\n  dup2\n  0xffffffffffffffffffffffffffffffffffffffff\n  mul\n  not\n  and\n  swap1\n  dup4\n  0xffffffffffffffffffffffffffffffffffffffff\n  and\n  mul\n  or\n  swap1\n  sstore\n  pop\n    /* \"TEXOOrchestrator.sol\":4955:4966  _feeAddress */\n  dup2\n    /* \"TEXOOrchestrator.sol\":4942:4952  feeAddress */\n  0x05\n  0x00\n    /* \"TEXOOrchestrator.sol\":4942:4966  feeAddress = _feeAddress */\n  0x0100\n  exp\n  dup2\n  sload\n  dup2\n  0xffffffffffffffffffffffffffffffffffffffff\n  mul\n  not\n  and\n  swap1\n  dup4\n  0xffffffffffffffffffffffffffffffffffffffff\n  and\n  mul\n  or\n  swap1\n  sstore\n  pop\n    /* \"TEXOOrchestrator.sol\":3316:3326  500 finney */\n  0x06f05b59d3b20000\n    /* \"TEXOOrchestrator.sol\":4976:4988  tEXOPerBlock */\n  0x04\n    /* \"TEXOOrchestrator.sol\":4976:5012  tEXOPerBlock = INITIAL_EMISSION_RATE */\n  dup2\n  swap1\n  sstore\n  pop\n    /* \"TEXOOrchestrator.sol\":5057:5090  _blockToStartReducingEmissionRate */\n  dup1\n    /* \"TEXOOrchestrator.sol\":5022:5054  blockToStartReducingEmissionRate */\n  0x06\n    /* \"TEXOOrchestrator.sol\":5022:5090  blockToStartReducingEmissionRate = _blockToStartReducingEmissionRate */\n  dup2\n  swap1\n  sstore\n  pop\n    /* \"TEXOOrchestrator.sol\":4726:5097  constructor(... */\n  pop\n  pop\n  pop\n  pop\n    /* \"TEXOOrchestrator.sol\":239:19838  contract TEXOOrchestrator is Ownable, ReentrancyGuard {... */\n  jump(tag_13)\n    /* \"Context.sol\":780:876  function _msgSender() internal view returns (address payable) {... */\ntag_10:\n    /* \"Context.sol\":825:840  address payable */\n  0x00\n    /* \"Context.sol\":859:869  msg.sender */\n  caller\n    /* \"Context.sol\":852:869  return msg.sender */\n  swap1\n  pop\n    /* \"Context.sol\":780:876  function _msgSender() internal view returns (address payable) {... */\n  swap1\n  jump\t// out\n    /* \"TEXOOrchestrator.sol\":239:19838  contract TEXOOrchestrator is Ownable, ReentrancyGuard {... */\ntag_13:\n  dataSize(sub_0)\n  dup1\n  dataOffset(sub_0)\n  0x00\n  codecopy\n  0x00\n  return\nstop\n\nsub_0: assembly {\n        /* \"TEXOOrchestrator.sol\":239:19838  contract TEXOOrchestrator is Ownable, ReentrancyGuard {... */\n      mstore(0x40, 0x80)\n      callvalue\n      dup1\n      iszero\n      tag_1\n      jumpi\n      0x00\n      dup1\n      revert\n    tag_1:\n      pop\n      jumpi(tag_2, lt(calldatasize, 0x04))\n      shr(0xe0, calldataload(0x00))\n      dup1\n      0x6a9a7660\n      gt\n      tag_45\n      jumpi\n      dup1\n      0xa1bdb15e\n      gt\n      tag_46\n      jumpi\n      dup1\n      0xd0d41fe1\n      gt\n      tag_47\n      jumpi\n      dup1\n      0xd0d41fe1\n      eq\n      tag_39\n      jumpi\n      dup1\n      0xd4adafdf\n      eq\n      tag_40\n      jumpi\n      dup1\n      0xda09c72c\n      eq\n      tag_41\n      jumpi\n      dup1\n      0xdfe3d2cd\n      eq\n      tag_42\n      jumpi\n      dup1\n      0xea76bc29\n      eq\n      tag_43\n      jumpi\n      dup1\n      0xf2fde38b\n      eq\n      tag_44\n      jumpi\n      jump(tag_2)\n    tag_47:\n      dup1\n      0xa1bdb15e\n      eq\n      tag_34\n      jumpi\n      dup1\n      0xae715d70\n      eq\n      tag_35\n      jumpi\n      dup1\n      0xb7eee1f1\n      eq\n      tag_36\n      jumpi\n      dup1\n      0xca291b13\n      eq\n      tag_37\n      jumpi\n      dup1\n      0xcbd258b5\n      eq\n      tag_38\n      jumpi\n      jump(tag_2)\n    tag_46:\n      dup1\n      0x8dbdbe6d\n      gt\n      tag_48\n      jumpi\n      dup1\n      0x8dbdbe6d\n      eq\n      tag_29\n      jumpi\n      dup1\n      0x91bb809c\n      eq\n      tag_30\n      jumpi\n      dup1\n      0x93f1a40b\n      eq\n      tag_31\n      jumpi\n      dup1\n      0x955c9b93\n      eq\n      tag_32\n      jumpi\n      dup1\n      0x9bf62f7e\n      eq\n      tag_33\n      jumpi\n      jump(tag_2)\n    tag_48:\n      dup1\n      0x6a9a7660\n      eq\n      tag_24\n      jumpi\n      dup1\n      0x715018a6\n      eq\n      tag_25\n      jumpi\n      dup1\n      0x8705fcd4\n      eq\n      tag_26\n      jumpi\n      dup1\n      0x8da5cb5b\n      eq\n      tag_27\n      jumpi\n      dup1\n      0x8dbb1e3a\n      eq\n      tag_28\n      jumpi\n      jump(tag_2)\n    tag_45:\n      dup1\n      0x41275358\n      gt\n      tag_49\n      jumpi\n      dup1\n      0x54324b58\n      gt\n      tag_50\n      jumpi\n      dup1\n      0x54324b58\n      eq\n      tag_18\n      jumpi\n      dup1\n      0x61e0c468\n      eq\n      tag_19\n      jumpi\n      dup1\n      0x630b5ba1\n      eq\n      tag_20\n      jumpi\n      dup1\n      0x64ed743b\n      eq\n      tag_21\n      jumpi\n      dup1\n      0x660f8340\n      eq\n      tag_22\n      jumpi\n      dup1\n      0x66f685ea\n      eq\n      tag_23\n      jumpi\n      jump(tag_2)\n    tag_50:\n      dup1\n      0x41275358\n      eq\n      tag_13\n      jumpi\n      dup1\n      0x441a3e70\n      eq\n      tag_14\n      jumpi\n      dup1\n      0x4a3b68cc\n      eq\n      tag_15\n      jumpi\n      dup1\n      0x51eb05a6\n      eq\n      tag_16\n      jumpi\n      dup1\n      0x5312ea8e\n      eq\n      tag_17\n      jumpi\n      jump(tag_2)\n    tag_49:\n      dup1\n      0x190f39f0\n      gt\n      tag_51\n      jumpi\n      dup1\n      0x190f39f0\n      eq\n      tag_8\n      jumpi\n      dup1\n      0x1eb704b0\n      eq\n      tag_9\n      jumpi\n      dup1\n      0x3a22df78\n      eq\n      tag_10\n      jumpi\n      dup1\n      0x3b0f0f2f\n      eq\n      tag_11\n      jumpi\n      dup1\n      0x3f7b06d8\n      eq\n      tag_12\n      jumpi\n      jump(tag_2)\n    tag_51:\n      dup1\n      0x0326f66d\n      eq\n      tag_3\n      jumpi\n      dup1\n      0x081e3eda\n      eq\n      tag_4\n      jumpi\n      dup1\n      0x0b844523\n      eq\n      tag_5\n      jumpi\n      dup1\n      0x1526fe27\n      eq\n      tag_6\n      jumpi\n      dup1\n      0x17caf6f1\n      eq\n      tag_7\n      jumpi\n    tag_2:\n      0x00\n      dup1\n      revert\n        /* \"TEXOOrchestrator.sol\":6999:7842  function set(... */\n    tag_3:\n      tag_52\n      0x04\n      dup1\n      calldatasize\n      sub\n      0xc0\n      dup2\n      lt\n      iszero\n      tag_53\n      jumpi\n      0x00\n      dup1\n      revert\n    tag_53:\n      dup2\n      add\n      swap1\n      dup1\n      dup1\n      calldataload\n      swap1\n      0x20\n      add\n      swap1\n      swap3\n      swap2\n      swap1\n      dup1\n      calldataload\n      swap1\n      0x20\n      add\n      swap1\n      swap3\n      swap2\n      swap1\n      dup1\n      calldataload\n      0xffff\n      and\n      swap1\n      0x20\n      add\n      swap1\n      swap3\n      swap2\n      swap1\n      dup1\n      calldataload\n      iszero\n      iszero\n      swap1\n      0x20\n      add\n      swap1\n      swap3\n      swap2\n      swap1\n      dup1\n      calldataload\n      swap1\n      0x20\n      add\n      swap1\n      swap3\n      swap2\n      swap1\n      dup1\n      calldataload\n      swap1\n      0x20\n      add\n      swap1\n      swap3\n      swap2\n      swap1\n      pop\n      pop\n      pop\n      tag_54\n      jump\t// in\n    tag_52:\n      stop\n        /* \"TEXOOrchestrator.sol\":5137:5230  function poolLength() external view returns (uint256) {... */\n    tag_4:\n      tag_55\n      tag_56\n      jump\t// in\n    tag_55:\n      mload(0x40)\n      dup1\n      dup3\n      dup2\n      mstore\n      0x20\n      add\n      swap2\n      pop\n      pop\n      mload(0x40)\n      dup1\n      swap2\n      sub\n      swap1\n      return\n        /* \"TEXOOrchestrator.sol\":5711:6890  function add(... */\n    tag_5:\n      tag_57\n      0x04\n      dup1\n      calldatasize\n      sub\n      0xe0\n      dup2\n      lt\n      iszero\n      tag_58\n      jumpi\n      0x00\n      dup1\n      revert\n    tag_58:\n      dup2\n      add\n      swap1\n      dup1\n      dup1\n      calldataload\n      swap1\n      0x20\n      add\n      swap1\n      swap3\n      swap2\n      swap1\n      dup1\n      calldataload\n      0xffffffffffffffffffffffffffffffffffffffff\n      and\n      swap1\n      0x20\n      add\n      swap1\n      swap3\n      swap2\n      swap1\n      dup1\n      calldataload\n      0xffff\n      and\n      swap1\n      0x20\n      add\n      swap1\n      swap3\n      swap2\n      swap1\n      dup1\n      calldataload\n      iszero\n      iszero\n      swap1\n      0x20\n      add\n      swap1\n      swap3\n      swap2\n      swap1\n      dup1\n      calldataload\n      swap1\n      0x20\n      add\n      swap1\n      swap3\n      swap2\n      swap1\n      dup1\n      calldataload\n      swap1\n      0x20\n      add\n      swap1\n      swap3\n      swap2\n      swap1\n      dup1\n      calldataload\n      swap1\n      0x20\n      add\n      swap1\n      swap3\n      swap2\n      swap1\n      pop\n      pop\n      pop\n      tag_59\n      jump\t// in\n    tag_57:\n      stop\n        /* \"TEXOOrchestrator.sol\":2292:2318  PoolInfo[] public poolInfo */\n    tag_6:\n      tag_60\n      0x04\n      dup1\n      calldatasize\n      sub\n      0x20\n      dup2\n      lt\n      iszero\n      tag_61\n      jumpi\n      0x00\n      dup1\n      revert\n    tag_61:\n      dup2\n      add\n      swap1\n      dup1\n      dup1\n      calldataload\n      swap1\n      0x20\n      add\n      swap1\n      swap3\n      swap2\n      swap1\n      pop\n      pop\n      pop\n      tag_62\n      jump\t// in\n    tag_60:\n      mload(0x40)\n      dup1\n      dup9\n      0xffffffffffffffffffffffffffffffffffffffff\n      and\n      dup2\n      mstore\n      0x20\n      add\n      dup8\n      dup2\n      mstore\n      0x20\n      add\n      dup7\n      dup2\n      mstore\n      0x20\n      add\n      dup6\n      dup2\n      mstore\n      0x20\n      add\n      dup5\n      dup2\n      mstore\n      0x20\n      add\n      dup4\n      dup2\n      mstore\n      0x20\n      add\n      dup3\n      0xffff\n      and\n      dup2\n      mstore\n      0x20\n      add\n      swap8\n      pop\n      pop\n      pop\n      pop\n      pop\n      pop\n      pop\n      pop\n      mload(0x40)\n      dup1\n      swap2\n      sub\n      swap1\n      return\n        /* \"TEXOOrchestrator.sol\":2529:2563  uint256 public totalAllocPoint = 0 */\n    tag_7:\n      tag_63\n      tag_64\n      jump\t// in\n    tag_63:\n      mload(0x40)\n      dup1\n      dup3\n      dup2\n      mstore\n      0x20\n      add\n      swap2\n      pop\n      pop\n      mload(0x40)\n      dup1\n      swap2\n      sub\n      swap1\n      return\n        /* \"TEXOOrchestrator.sol\":5236:5454  function getPoolIdForLpToken(IBEP20 _lpToken) external view returns (uint256) {... */\n    tag_8:\n      tag_65\n      0x04\n      dup1\n      calldatasize\n      sub\n      0x20\n      dup2\n      lt\n      iszero\n      tag_66\n      jumpi\n      0x00\n      dup1\n      revert\n    tag_66:\n      dup2\n      add\n      swap1\n      dup1\n      dup1\n      calldataload\n      0xffffffffffffffffffffffffffffffffffffffff\n      and\n      swap1\n      0x20\n      add\n      swap1\n      swap3\n      swap2\n      swap1\n      pop\n      pop\n      pop\n      tag_67\n      jump\t// in\n    tag_65:\n      mload(0x40)\n      dup1\n      dup3\n      dup2\n      mstore\n      0x20\n      add\n      swap2\n      pop\n      pop\n      mload(0x40)\n      dup1\n      swap2\n      sub\n      swap1\n      return\n        /* \"TEXOOrchestrator.sol\":17759:18184  function setBlockToStartReducingEmissionRate(uint256 newBlockToStartReducingEmissionRate) public onlyOwner {... */\n    tag_9:\n      tag_68\n      0x04\n      dup1\n      calldatasize\n      sub\n      0x20\n      dup2\n      lt\n      iszero\n      tag_69\n      jumpi\n      0x00\n      dup1\n      revert\n    tag_69:\n      dup2\n      add\n      swap1\n      dup1\n      dup1\n      calldataload\n      swap1\n      0x20\n      add\n      swap1\n      swap3\n      swap2\n      swap1\n      pop\n      pop\n      pop\n      tag_70\n      jump\t// in\n    tag_68:\n      stop\n        /* \"TEXOOrchestrator.sol\":2792:2841  uint16 public constant MAXIMUM_REFERRAL_BP = 2000 */\n    tag_10:\n      tag_71\n      tag_72\n      jump\t// in\n    tag_71:\n      mload(0x40)\n      dup1\n      dup3\n      0xffff\n      and\n      dup2\n      mstore\n      0x20\n      add\n      swap2\n      pop\n      pop\n      mload(0x40)\n      dup1\n      swap2\n      sub\n      swap1\n      return\n        /* \"TEXOOrchestrator.sol\":18618:18724  function getReferral(address _user) public view returns (address) {... */\n    tag_11:\n      tag_73\n      0x04\n      dup1\n      calldatasize\n      sub\n      0x20\n      dup2\n      lt\n      iszero\n      tag_74\n      jumpi\n      0x00\n      dup1\n      revert\n    tag_74:\n      dup2\n      add\n      swap1\n      dup1\n      dup1\n      calldataload\n      0xffffffffffffffffffffffffffffffffffffffff\n      and\n      swap1\n      0x20\n      add\n      swap1\n      swap3\n      swap2\n      swap1\n      pop\n      pop\n      pop\n      tag_75\n      jump\t// in\n    tag_73:\n      mload(0x40)\n      dup1\n      dup3\n      0xffffffffffffffffffffffffffffffffffffffff\n      and\n      dup2\n      mstore\n      0x20\n      add\n      swap2\n      pop\n      pop\n      mload(0x40)\n      dup1\n      swap2\n      sub\n      swap1\n      return\n        /* \"TEXOOrchestrator.sol\":2960:3008  mapping(address => uint256) public referredCount */\n    tag_12:\n      tag_76\n      0x04\n      dup1\n      calldatasize\n      sub\n      0x20\n      dup2\n      lt\n      iszero\n      tag_77\n      jumpi\n      0x00\n      dup1\n      revert\n    tag_77:\n      dup2\n      add\n      swap1\n      dup1\n      dup1\n      calldataload\n      0xffffffffffffffffffffffffffffffffffffffff\n      and\n      swap1\n      0x20\n      add\n      swap1\n      swap3\n      swap2\n      swap1\n      pop\n      pop\n      pop\n      tag_78\n      jump\t// in\n    tag_76:\n      mload(0x40)\n      dup1\n      dup3\n      dup2\n      mstore\n      0x20\n      add\n      swap2\n      pop\n      pop\n      mload(0x40)\n      dup1\n      swap2\n      sub\n      swap1\n      return\n        /* \"TEXOOrchestrator.sol\":2127:2152  address public feeAddress */\n    tag_13:\n      tag_79\n      tag_80\n      jump\t// in\n    tag_79:\n      mload(0x40)\n      dup1\n      dup3\n      0xffffffffffffffffffffffffffffffffffffffff\n      and\n      dup2\n      mstore\n      0x20\n      add\n      swap2\n      pop\n      pop\n      mload(0x40)\n      dup1\n      swap2\n      sub\n      swap1\n      return\n        /* \"TEXOOrchestrator.sol\":12941:13567  function withdraw(uint256 _pid, uint256 _amount) public nonReentrant {... */\n    tag_14:\n      tag_81\n      0x04\n      dup1\n      calldatasize\n      sub\n      0x40\n      dup2\n      lt\n      iszero\n      tag_82\n      jumpi\n      0x00\n      dup1\n      revert\n    tag_82:\n      dup2\n      add\n      swap1\n      dup1\n      dup1\n      calldataload\n      swap1\n      0x20\n      add\n      swap1\n      swap3\n      swap2\n      swap1\n      dup1\n      calldataload\n      swap1\n      0x20\n      add\n      swap1\n      swap3\n      swap2\n      swap1\n      pop\n      pop\n      pop\n      tag_83\n      jump\t// in\n    tag_81:\n      stop\n        /* \"TEXOOrchestrator.sol\":2871:2915  mapping(address => address) public referrers */\n    tag_15:\n      tag_84\n      0x04\n      dup1\n      calldatasize\n      sub\n      0x20\n      dup2\n      lt\n      iszero\n      tag_85\n      jumpi\n      0x00\n      dup1\n      revert\n    tag_85:\n      dup2\n      add\n      swap1\n      dup1\n      dup1\n      calldataload\n      0xffffffffffffffffffffffffffffffffffffffff\n      and\n      swap1\n      0x20\n      add\n      swap1\n      swap3\n      swap2\n      swap1\n      pop\n      pop\n      pop\n      tag_86\n      jump\t// in\n    tag_84:\n      mload(0x40)\n      dup1\n      dup3\n      0xffffffffffffffffffffffffffffffffffffffff\n      and\n      dup2\n      mstore\n      0x20\n      add\n      swap2\n      pop\n      pop\n      mload(0x40)\n      dup1\n      swap2\n      sub\n      swap1\n      return\n        /* \"TEXOOrchestrator.sol\":9875:11273  function updatePool(uint256 _pid) public {... */\n    tag_16:\n      tag_87\n      0x04\n      dup1\n      calldatasize\n      sub\n      0x20\n      dup2\n      lt\n      iszero\n      tag_88\n      jumpi\n      0x00\n      dup1\n      revert\n    tag_88:\n      dup2\n      add\n      swap1\n      dup1\n      dup1\n      calldataload\n      swap1\n      0x20\n      add\n      swap1\n      swap3\n      swap2\n      swap1\n      pop\n      pop\n      pop\n      tag_89\n      jump\t// in\n    tag_87:\n      stop\n        /* \"TEXOOrchestrator.sol\":14476:14840  function emergencyWithdraw(uint256 _pid) public nonReentrant {... */\n    tag_17:\n      tag_90\n      0x04\n      dup1\n      calldatasize\n      sub\n      0x20\n      dup2\n      lt\n      iszero\n      tag_91\n      jumpi\n      0x00\n      dup1\n      revert\n    tag_91:\n      dup2\n      add\n      swap1\n      dup1\n      dup1\n      calldataload\n      swap1\n      0x20\n      add\n      swap1\n      swap3\n      swap2\n      swap1\n      pop\n      pop\n      pop\n      tag_92\n      jump\t// in\n    tag_90:\n      stop\n        /* \"TEXOOrchestrator.sol\":2212:2259  uint256 public blockToStartReducingEmissionRate */\n    tag_18:\n      tag_93\n      tag_94\n      jump\t// in\n    tag_93:\n      mload(0x40)\n      dup1\n      dup3\n      dup2\n      mstore\n      0x20\n      add\n      swap2\n      pop\n      pop\n      mload(0x40)\n      dup1\n      swap2\n      sub\n      swap1\n      return\n        /* \"TEXOOrchestrator.sol\":3383:3441  uint256 public constant MINIMUM_EMISSION_RATE = 100 finney */\n    tag_19:\n      tag_95\n      tag_96\n      jump\t// in\n    tag_95:\n      mload(0x40)\n      dup1\n      dup3\n      dup2\n      mstore\n      0x20\n      add\n      swap2\n      pop\n      pop\n      mload(0x40)\n      dup1\n      swap2\n      sub\n      swap1\n      return\n        /* \"TEXOOrchestrator.sol\":9627:9802  function massUpdatePools() public {... */\n    tag_20:\n      tag_97\n      tag_98\n      jump\t// in\n    tag_97:\n      stop\n        /* \"TEXOOrchestrator.sol\":19389:19836  function updateReferralBonusBp(uint256 _newRefBonusBp) public onlyOwner {... */\n    tag_21:\n      tag_99\n      0x04\n      dup1\n      calldatasize\n      sub\n      0x20\n      dup2\n      lt\n      iszero\n      tag_100\n      jumpi\n      0x00\n      dup1\n      revert\n    tag_100:\n      dup2\n      add\n      swap1\n      dup1\n      dup1\n      calldataload\n      swap1\n      0x20\n      add\n      swap1\n      swap3\n      swap2\n      swap1\n      pop\n      pop\n      pop\n      tag_101\n      jump\t// in\n    tag_99:\n      stop\n        /* \"TEXOOrchestrator.sol\":2067:2094  uint256 public tEXOPerBlock */\n    tag_22:\n      tag_102\n      tag_103\n      jump\t// in\n    tag_102:\n      mload(0x40)\n      dup1\n      dup3\n      dup2\n      mstore\n      0x20\n      add\n      swap2\n      pop\n      pop\n      mload(0x40)\n      dup1\n      swap2\n      sub\n      swap1\n      return\n        /* \"TEXOOrchestrator.sol\":2628:2659  uint256 public refBonusBP = 200 */\n    tag_23:\n      tag_104\n      tag_105\n      jump\t// in\n    tag_104:\n      mload(0x40)\n      dup1\n      dup3\n      dup2\n      mstore\n      0x20\n      add\n      swap2\n      pop\n      pop\n      mload(0x40)\n      dup1\n      swap2\n      sub\n      swap1\n      return\n        /* \"TEXOOrchestrator.sol\":3743:3786  uint256 public lastReductionPeriodIndex = 0 */\n    tag_24:\n      tag_106\n      tag_107\n      jump\t// in\n    tag_106:\n      mload(0x40)\n      dup1\n      dup3\n      dup2\n      mstore\n      0x20\n      add\n      swap2\n      pop\n      pop\n      mload(0x40)\n      dup1\n      swap2\n      sub\n      swap1\n      return\n        /* \"Ownable.sol\":1698:1835  function renounceOwnership() public onlyOwner {... */\n    tag_25:\n      tag_108\n      tag_109\n      jump\t// in\n    tag_108:\n      stop\n        /* \"TEXOOrchestrator.sol\":15737:16033  function setFeeAddress(address _feeAddress) public {... */\n    tag_26:\n      tag_110\n      0x04\n      dup1\n      calldatasize\n      sub\n      0x20\n      dup2\n      lt\n      iszero\n      tag_111\n      jumpi\n      0x00\n      dup1\n      revert\n    tag_111:\n      dup2\n      add\n      swap1\n      dup1\n      dup1\n      calldataload\n      0xffffffffffffffffffffffffffffffffffffffff\n      and\n      swap1\n      0x20\n      add\n      swap1\n      swap3\n      swap2\n      swap1\n      pop\n      pop\n      pop\n      tag_112\n      jump\t// in\n    tag_110:\n      stop\n        /* \"Ownable.sol\":1075:1152  function owner() public view returns (address) {... */\n    tag_27:\n      tag_113\n      tag_114\n      jump\t// in\n    tag_113:\n      mload(0x40)\n      dup1\n      dup3\n      0xffffffffffffffffffffffffffffffffffffffff\n      and\n      dup2\n      mstore\n      0x20\n      add\n      swap2\n      pop\n      pop\n      mload(0x40)\n      dup1\n      swap2\n      sub\n      swap1\n      return\n        /* \"TEXOOrchestrator.sol\":7915:8034  function getMultiplier(uint256 _from, uint256 _to) public pure returns (uint256) {... */\n    tag_28:\n      tag_115\n      0x04\n      dup1\n      calldatasize\n      sub\n      0x40\n      dup2\n      lt\n      iszero\n      tag_116\n      jumpi\n      0x00\n      dup1\n      revert\n    tag_116:\n      dup2\n      add\n      swap1\n      dup1\n      dup1\n      calldataload\n      swap1\n      0x20\n      add\n      swap1\n      swap3\n      swap2\n      swap1\n      dup1\n      calldataload\n      swap1\n      0x20\n      add\n      swap1\n      swap3\n      swap2\n      swap1\n      pop\n      pop\n      pop\n      tag_117\n      jump\t// in\n    tag_115:\n      mload(0x40)\n      dup1\n      dup3\n      dup2\n      mstore\n      0x20\n      add\n      swap2\n      pop\n      pop\n      mload(0x40)\n      dup1\n      swap2\n      sub\n      swap1\n      return\n        /* \"TEXOOrchestrator.sol\":11538:12892  function deposit(uint256 _pid, uint256 _amount, address _referrer) public nonReentrant {... */\n    tag_29:\n      tag_118\n      0x04\n      dup1\n      calldatasize\n      sub\n      0x60\n      dup2\n      lt\n      iszero\n      tag_119\n      jumpi\n      0x00\n      dup1\n      revert\n    tag_119:\n      dup2\n      add\n      swap1\n      dup1\n      dup1\n      calldataload\n      swap1\n      0x20\n      add\n      swap1\n      swap3\n      swap2\n      swap1\n      dup1\n      calldataload\n      swap1\n      0x20\n      add\n      swap1\n      swap3\n      swap2\n      swap1\n      dup1\n      calldataload\n      0xffffffffffffffffffffffffffffffffffffffff\n      and\n      swap1\n      0x20\n      add\n      swap1\n      swap3\n      swap2\n      swap1\n      pop\n      pop\n      pop\n      tag_120\n      jump\t// in\n    tag_118:\n      stop\n        /* \"TEXOOrchestrator.sol\":3268:3326  uint256 public constant INITIAL_EMISSION_RATE = 500 finney */\n    tag_30:\n      tag_121\n      tag_122\n      jump\t// in\n    tag_121:\n      mload(0x40)\n      dup1\n      dup3\n      dup2\n      mstore\n      0x20\n      add\n      swap2\n      pop\n      pop\n      mload(0x40)\n      dup1\n      swap2\n      sub\n      swap1\n      return\n        /* \"TEXOOrchestrator.sol\":2372:2436  mapping(uint256 => mapping(address => UserInfo)) public userInfo */\n    tag_31:\n      tag_123\n      0x04\n      dup1\n      calldatasize\n      sub\n      0x40\n      dup2\n      lt\n      iszero\n      tag_124\n      jumpi\n      0x00\n      dup1\n      revert\n    tag_124:\n      dup2\n      add\n      swap1\n      dup1\n      dup1\n      calldataload\n      swap1\n      0x20\n      add\n      swap1\n      swap3\n      swap2\n      swap1\n      dup1\n      calldataload\n      0xffffffffffffffffffffffffffffffffffffffff\n      and\n      swap1\n      0x20\n      add\n      swap1\n      swap3\n      swap2\n      swap1\n      pop\n      pop\n      pop\n      tag_125\n      jump\t// in\n    tag_123:\n      mload(0x40)\n      dup1\n      dup5\n      dup2\n      mstore\n      0x20\n      add\n      dup4\n      dup2\n      mstore\n      0x20\n      add\n      dup3\n      dup2\n      mstore\n      0x20\n      add\n      swap4\n      pop\n      pop\n      pop\n      pop\n      mload(0x40)\n      dup1\n      swap2\n      sub\n      swap1\n      return\n        /* \"TEXOOrchestrator.sol\":2693:2744  uint16 public constant MAXIMUM_DEPOSIT_FEE_BP = 400 */\n    tag_32:\n      tag_126\n      tag_127\n      jump\t// in\n    tag_126:\n      mload(0x40)\n      dup1\n      dup3\n      0xffff\n      and\n      dup2\n      mstore\n      0x20\n      add\n      swap2\n      pop\n      pop\n      mload(0x40)\n      dup1\n      swap2\n      sub\n      swap1\n      return\n        /* \"TEXOOrchestrator.sol\":3159:3211  mapping(IBEP20 => uint256) public poolIdForLpAddress */\n    tag_33:\n      tag_128\n      0x04\n      dup1\n      calldatasize\n      sub\n      0x20\n      dup2\n      lt\n      iszero\n      tag_129\n      jumpi\n      0x00\n      dup1\n      revert\n    tag_129:\n      dup2\n      add\n      swap1\n      dup1\n      dup1\n      calldataload\n      0xffffffffffffffffffffffffffffffffffffffff\n      and\n      swap1\n      0x20\n      add\n      swap1\n      swap3\n      swap2\n      swap1\n      pop\n      pop\n      pop\n      tag_130\n      jump\t// in\n    tag_128:\n      mload(0x40)\n      dup1\n      dup3\n      dup2\n      mstore\n      0x20\n      add\n      swap2\n      pop\n      pop\n      mload(0x40)\n      dup1\n      swap2\n      sub\n      swap1\n      return\n        /* \"TEXOOrchestrator.sol\":17472:17753  function setEmissionRate(uint256 newEmissionRate) public onlyOwner {... */\n    tag_34:\n      tag_131\n      0x04\n      dup1\n      calldatasize\n      sub\n      0x20\n      dup2\n      lt\n      iszero\n      tag_132\n      jumpi\n      0x00\n      dup1\n      revert\n    tag_132:\n      dup2\n      add\n      swap1\n      dup1\n      dup1\n      calldataload\n      swap1\n      0x20\n      add\n      swap1\n      swap3\n      swap2\n      swap1\n      pop\n      pop\n      pop\n      tag_133\n      jump\t// in\n    tag_131:\n      stop\n        /* \"TEXOOrchestrator.sol\":1954:1975  TEXOToken public tEXO */\n    tag_35:\n      tag_134\n      tag_135\n      jump\t// in\n    tag_134:\n      mload(0x40)\n      dup1\n      dup3\n      0xffffffffffffffffffffffffffffffffffffffff\n      and\n      dup2\n      mstore\n      0x20\n      add\n      swap2\n      pop\n      pop\n      mload(0x40)\n      dup1\n      swap2\n      sub\n      swap1\n      return\n        /* \"TEXOOrchestrator.sol\":3637:3702  uint256 public constant EMISSION_REDUCTION_RATE_PER_PERIOD = 1500 */\n    tag_36:\n      tag_136\n      tag_137\n      jump\t// in\n    tag_136:\n      mload(0x40)\n      dup1\n      dup3\n      dup2\n      mstore\n      0x20\n      add\n      swap2\n      pop\n      pop\n      mload(0x40)\n      dup1\n      swap2\n      sub\n      swap1\n      return\n        /* \"TEXOOrchestrator.sol\":11279:11458  function canClaimReward(uint256 _pid) public view returns (bool) {... */\n    tag_37:\n      tag_138\n      0x04\n      dup1\n      calldatasize\n      sub\n      0x20\n      dup2\n      lt\n      iszero\n      tag_139\n      jumpi\n      0x00\n      dup1\n      revert\n    tag_139:\n      dup2\n      add\n      swap1\n      dup1\n      dup1\n      calldataload\n      swap1\n      0x20\n      add\n      swap1\n      swap3\n      swap2\n      swap1\n      pop\n      pop\n      pop\n      tag_140\n      jump\t// in\n    tag_138:\n      mload(0x40)\n      dup1\n      dup3\n      iszero\n      iszero\n      dup2\n      mstore\n      0x20\n      add\n      swap2\n      pop\n      pop\n      mload(0x40)\n      dup1\n      swap2\n      sub\n      swap1\n      return\n        /* \"TEXOOrchestrator.sol\":3079:3123  mapping(IBEP20 => bool) public poolExistence */\n    tag_38:\n      tag_141\n      0x04\n      dup1\n      calldatasize\n      sub\n      0x20\n      dup2\n      lt\n      iszero\n      tag_142\n      jumpi\n      0x00\n      dup1\n      revert\n    tag_142:\n      dup2\n      add\n      swap1\n      dup1\n      dup1\n      calldataload\n      0xffffffffffffffffffffffffffffffffffffffff\n      and\n      swap1\n      0x20\n      add\n      swap1\n      swap3\n      swap2\n      swap1\n      pop\n      pop\n      pop\n      tag_143\n      jump\t// in\n    tag_141:\n      mload(0x40)\n      dup1\n      dup3\n      iszero\n      iszero\n      dup2\n      mstore\n      0x20\n      add\n      swap2\n      pop\n      pop\n      mload(0x40)\n      dup1\n      swap2\n      sub\n      swap1\n      return\n        /* \"TEXOOrchestrator.sol\":15423:15676  function setDevAddress(address _devaddr) public {... */\n    tag_39:\n      tag_144\n      0x04\n      dup1\n      calldatasize\n      sub\n      0x20\n      dup2\n      lt\n      iszero\n      tag_145\n      jumpi\n      0x00\n      dup1\n      revert\n    tag_145:\n      dup2\n      add\n      swap1\n      dup1\n      dup1\n      calldataload\n      0xffffffffffffffffffffffffffffffffffffffff\n      and\n      swap1\n      0x20\n      add\n      swap1\n      swap3\n      swap2\n      swap1\n      pop\n      pop\n      pop\n      tag_146\n      jump\t// in\n    tag_144:\n      stop\n        /* \"TEXOOrchestrator.sol\":3503:3567  uint256 public constant EMISSION_REDUCTION_PERIOD_BLOCKS = 28800 */\n    tag_40:\n      tag_147\n      tag_148\n      jump\t// in\n    tag_147:\n      mload(0x40)\n      dup1\n      dup3\n      dup2\n      mstore\n      0x20\n      add\n      swap2\n      pop\n      pop\n      mload(0x40)\n      dup1\n      swap2\n      sub\n      swap1\n      return\n        /* \"TEXOOrchestrator.sol\":2001:2023  address public devAddr */\n    tag_41:\n      tag_149\n      tag_150\n      jump\t// in\n    tag_149:\n      mload(0x40)\n      dup1\n      dup3\n      0xffffffffffffffffffffffffffffffffffffffff\n      and\n      dup2\n      mstore\n      0x20\n      add\n      swap2\n      pop\n      pop\n      mload(0x40)\n      dup1\n      swap2\n      sub\n      swap1\n      return\n        /* \"TEXOOrchestrator.sol\":8095:9223  function pendingTEXO(uint256 _pid, address _user) external view returns (uint256) {... */\n    tag_42:\n      tag_151\n      0x04\n      dup1\n      calldatasize\n      sub\n      0x40\n      dup2\n      lt\n      iszero\n      tag_152\n      jumpi\n      0x00\n      dup1\n      revert\n    tag_152:\n      dup2\n      add\n      swap1\n      dup1\n      dup1\n      calldataload\n      swap1\n      0x20\n      add\n      swap1\n      swap3\n      swap2\n      swap1\n      dup1\n      calldataload\n      0xffffffffffffffffffffffffffffffffffffffff\n      and\n      swap1\n      0x20\n      add\n      swap1\n      swap3\n      swap2\n      swap1\n      pop\n      pop\n      pop\n      tag_153\n      jump\t// in\n    tag_151:\n      mload(0x40)\n      dup1\n      dup3\n      dup2\n      mstore\n      0x20\n      add\n      swap2\n      pop\n      pop\n      mload(0x40)\n      dup1\n      swap2\n      sub\n      swap1\n      return\n        /* \"TEXOOrchestrator.sol\":16179:17466  function reduceEmissionRateWithDefaultRate() public {... */\n    tag_43:\n      tag_154\n      tag_155\n      jump\t// in\n    tag_154:\n      stop\n        /* \"Ownable.sol\":1984:2091  function transferOwnership(address newOwner) public onlyOwner {... */\n    tag_44:\n      tag_156\n      0x04\n      dup1\n      calldatasize\n      sub\n      0x20\n      dup2\n      lt\n      iszero\n      tag_157\n      jumpi\n      0x00\n      dup1\n      revert\n    tag_157:\n      dup2\n      add\n      swap1\n      dup1\n      dup1\n      calldataload\n      0xffffffffffffffffffffffffffffffffffffffff\n      and\n      swap1\n      0x20\n      add\n      swap1\n      swap3\n      swap2\n      swap1\n      pop\n      pop\n      pop\n      tag_158\n      jump\t// in\n    tag_156:\n      stop\n        /* \"TEXOOrchestrator.sol\":6999:7842  function set(... */\n    tag_54:\n        /* \"Ownable.sol\":1289:1301  _msgSender() */\n      tag_160\n        /* \"Ownable.sol\":1289:1299  _msgSender */\n      tag_161\n        /* \"Ownable.sol\":1289:1301  _msgSender() */\n      jump\t// in\n    tag_160:\n        /* \"Ownable.sol\":1279:1301  _owner == _msgSender() */\n      0xffffffffffffffffffffffffffffffffffffffff\n      and\n        /* \"Ownable.sol\":1279:1285  _owner */\n      0x00\n      dup1\n      sload\n      swap1\n      0x0100\n      exp\n      swap1\n      div\n      0xffffffffffffffffffffffffffffffffffffffff\n      and\n        /* \"Ownable.sol\":1279:1301  _owner == _msgSender() */\n      0xffffffffffffffffffffffffffffffffffffffff\n      and\n      eq\n        /* \"Ownable.sol\":1271:1338  require(_owner == _msgSender(), 'Ownable: caller is not the owner') */\n      tag_162\n      jumpi\n      mload(0x40)\n      0x08c379a000000000000000000000000000000000000000000000000000000000\n      dup2\n      mstore\n      0x04\n      add\n      dup1\n      dup1\n      0x20\n      add\n      dup3\n      dup2\n      sub\n      dup3\n      mstore\n      0x20\n      dup2\n      mstore\n      0x20\n      add\n      dup1\n      0x4f776e61626c653a2063616c6c6572206973206e6f7420746865206f776e6572\n      dup2\n      mstore\n      pop\n      0x20\n      add\n      swap2\n      pop\n      pop\n      mload(0x40)\n      dup1\n      swap2\n      sub\n      swap1\n      revert\n    tag_162:\n        /* \"TEXOOrchestrator.sol\":2741:2744  400 */\n      0x0190\n        /* \"TEXOOrchestrator.sol\":7231:7270  _depositFeeBP <= MAXIMUM_DEPOSIT_FEE_BP */\n      0xffff\n      and\n        /* \"TEXOOrchestrator.sol\":7231:7244  _depositFeeBP */\n      dup5\n        /* \"TEXOOrchestrator.sol\":7231:7270  _depositFeeBP <= MAXIMUM_DEPOSIT_FEE_BP */\n      0xffff\n      and\n      gt\n      iszero\n        /* \"TEXOOrchestrator.sol\":7223:7312  require(_depositFeeBP <= MAXIMUM_DEPOSIT_FEE_BP, \"set: invalid deposit fee basis points\") */\n      tag_164\n      jumpi\n      mload(0x40)\n      0x08c379a000000000000000000000000000000000000000000000000000000000\n      dup2\n      mstore\n      0x04\n      add\n      dup1\n      dup1\n      0x20\n      add\n      dup3\n      dup2\n      sub\n      dup3\n      mstore\n      0x25\n      dup2\n      mstore\n      0x20\n      add\n      dup1\n      data_9353dfb5d58f0da66015bbcadafa0686e2e7b7226db2e603088e70c7012680cf\n      0x25\n      swap2\n      codecopy\n      0x40\n      add\n      swap2\n      pop\n      pop\n      mload(0x40)\n      dup1\n      swap2\n      sub\n      swap1\n      revert\n    tag_164:\n        /* \"TEXOOrchestrator.sol\":7354:7355  0 */\n      0x00\n        /* \"TEXOOrchestrator.sol\":7330:7351  _blockToReceiveReward */\n      dup3\n        /* \"TEXOOrchestrator.sol\":7330:7355  _blockToReceiveReward > 0 */\n      gt\n        /* \"TEXOOrchestrator.sol\":7322:7400  require(_blockToReceiveReward > 0, \"set: block to receive reward is required\") */\n      tag_165\n      jumpi\n      mload(0x40)\n      0x08c379a000000000000000000000000000000000000000000000000000000000\n      dup2\n      mstore\n      0x04\n      add\n      dup1\n      dup1\n      0x20\n      add\n      dup3\n      dup2\n      sub\n      dup3\n      mstore\n      0x28\n      dup2\n      mstore\n      0x20\n      add\n      dup1\n      data_bf4862f6c2d2911dd0cebd03922326a5538d65dbdcf0050cc95b3de0fb3f3413\n      0x28\n      swap2\n      codecopy\n      0x40\n      add\n      swap2\n      pop\n      pop\n      mload(0x40)\n      dup1\n      swap2\n      sub\n      swap1\n      revert\n    tag_165:\n        /* \"TEXOOrchestrator.sol\":7415:7426  _withUpdate */\n      dup3\n        /* \"TEXOOrchestrator.sol\":7411:7470  if (_withUpdate) {... */\n      iszero\n      tag_166\n      jumpi\n        /* \"TEXOOrchestrator.sol\":7442:7459  massUpdatePools() */\n      tag_167\n        /* \"TEXOOrchestrator.sol\":7442:7457  massUpdatePools */\n      tag_98\n        /* \"TEXOOrchestrator.sol\":7442:7459  massUpdatePools() */\n      jump\t// in\n    tag_167:\n        /* \"TEXOOrchestrator.sol\":7411:7470  if (_withUpdate) {... */\n    tag_166:\n        /* \"TEXOOrchestrator.sol\":7498:7583  totalAllocPoint.sub(poolInfo[_pid].allocPoint).add(... */\n      tag_168\n        /* \"TEXOOrchestrator.sol\":7562:7573  _allocPoint */\n      dup6\n        /* \"TEXOOrchestrator.sol\":7498:7544  totalAllocPoint.sub(poolInfo[_pid].allocPoint) */\n      tag_169\n        /* \"TEXOOrchestrator.sol\":7518:7526  poolInfo */\n      0x07\n        /* \"TEXOOrchestrator.sol\":7527:7531  _pid */\n      dup10\n        /* \"TEXOOrchestrator.sol\":7518:7532  poolInfo[_pid] */\n      dup2\n      sload\n      dup2\n      lt\n      tag_170\n      jumpi\n      invalid\n    tag_170:\n      swap1\n      0x00\n      mstore\n      keccak256(0x00, 0x20)\n      swap1\n      0x07\n      mul\n      add\n        /* \"TEXOOrchestrator.sol\":7518:7543  poolInfo[_pid].allocPoint */\n      0x01\n      add\n      sload\n        /* \"TEXOOrchestrator.sol\":7498:7513  totalAllocPoint */\n      sload(0x09)\n        /* \"TEXOOrchestrator.sol\":7498:7517  totalAllocPoint.sub */\n      tag_172\n      swap1\n        /* \"TEXOOrchestrator.sol\":7498:7544  totalAllocPoint.sub(poolInfo[_pid].allocPoint) */\n      swap2\n      swap1\n      0xffffffff\n      and\n      jump\t// in\n    tag_169:\n        /* \"TEXOOrchestrator.sol\":7498:7548  totalAllocPoint.sub(poolInfo[_pid].allocPoint).add */\n      tag_173\n      swap1\n        /* \"TEXOOrchestrator.sol\":7498:7583  totalAllocPoint.sub(poolInfo[_pid].allocPoint).add(... */\n      swap2\n      swap1\n      0xffffffff\n      and\n      jump\t// in\n    tag_168:\n        /* \"TEXOOrchestrator.sol\":7480:7495  totalAllocPoint */\n      0x09\n        /* \"TEXOOrchestrator.sol\":7480:7583  totalAllocPoint = totalAllocPoint.sub(poolInfo[_pid].allocPoint).add(... */\n      dup2\n      swap1\n      sstore\n      pop\n        /* \"TEXOOrchestrator.sol\":7622:7633  _allocPoint */\n      dup5\n        /* \"TEXOOrchestrator.sol\":7594:7602  poolInfo */\n      0x07\n        /* \"TEXOOrchestrator.sol\":7603:7607  _pid */\n      dup8\n        /* \"TEXOOrchestrator.sol\":7594:7608  poolInfo[_pid] */\n      dup2\n      sload\n      dup2\n      lt\n      tag_174\n      jumpi\n      invalid\n    tag_174:\n      swap1\n      0x00\n      mstore\n      keccak256(0x00, 0x20)\n      swap1\n      0x07\n      mul\n      add\n        /* \"TEXOOrchestrator.sol\":7594:7619  poolInfo[_pid].allocPoint */\n      0x01\n      add\n        /* \"TEXOOrchestrator.sol\":7594:7633  poolInfo[_pid].allocPoint = _allocPoint */\n      dup2\n      swap1\n      sstore\n      pop\n        /* \"TEXOOrchestrator.sol\":7673:7686  _depositFeeBP */\n      dup4\n        /* \"TEXOOrchestrator.sol\":7643:7651  poolInfo */\n      0x07\n        /* \"TEXOOrchestrator.sol\":7652:7656  _pid */\n      dup8\n        /* \"TEXOOrchestrator.sol\":7643:7657  poolInfo[_pid] */\n      dup2\n      sload\n      dup2\n      lt\n      tag_176\n      jumpi\n      invalid\n    tag_176:\n      swap1\n      0x00\n      mstore\n      keccak256(0x00, 0x20)\n      swap1\n      0x07\n      mul\n      add\n        /* \"TEXOOrchestrator.sol\":7643:7670  poolInfo[_pid].depositFeeBP */\n      0x06\n      add\n      0x00\n        /* \"TEXOOrchestrator.sol\":7643:7686  poolInfo[_pid].depositFeeBP = _depositFeeBP */\n      0x0100\n      exp\n      dup2\n      sload\n      dup2\n      0xffff\n      mul\n      not\n      and\n      swap1\n      dup4\n      0xffff\n      and\n      mul\n      or\n      swap1\n      sstore\n      pop\n        /* \"TEXOOrchestrator.sol\":7734:7755  _blockToReceiveReward */\n      dup2\n        /* \"TEXOOrchestrator.sol\":7696:7704  poolInfo */\n      0x07\n        /* \"TEXOOrchestrator.sol\":7705:7709  _pid */\n      dup8\n        /* \"TEXOOrchestrator.sol\":7696:7710  poolInfo[_pid] */\n      dup2\n      sload\n      dup2\n      lt\n      tag_178\n      jumpi\n      invalid\n    tag_178:\n      swap1\n      0x00\n      mstore\n      keccak256(0x00, 0x20)\n      swap1\n      0x07\n      mul\n      add\n        /* \"TEXOOrchestrator.sol\":7696:7731  poolInfo[_pid].blockToReceiveReward */\n      0x02\n      add\n        /* \"TEXOOrchestrator.sol\":7696:7755  poolInfo[_pid].blockToReceiveReward = _blockToReceiveReward */\n      dup2\n      swap1\n      sstore\n      pop\n        /* \"TEXOOrchestrator.sol\":7813:7814  0 */\n      0x00\n        /* \"TEXOOrchestrator.sol\":7796:7810  _inActiveBlock */\n      dup2\n        /* \"TEXOOrchestrator.sol\":7796:7814  _inActiveBlock > 0 */\n      gt\n        /* \"TEXOOrchestrator.sol\":7796:7835  _inActiveBlock > 0 ? _inActiveBlock : 0 */\n      tag_180\n      jumpi\n        /* \"TEXOOrchestrator.sol\":7834:7835  0 */\n      0x00\n        /* \"TEXOOrchestrator.sol\":7796:7835  _inActiveBlock > 0 ? _inActiveBlock : 0 */\n      jump(tag_181)\n    tag_180:\n        /* \"TEXOOrchestrator.sol\":7817:7831  _inActiveBlock */\n      dup1\n        /* \"TEXOOrchestrator.sol\":7796:7835  _inActiveBlock > 0 ? _inActiveBlock : 0 */\n    tag_181:\n        /* \"TEXOOrchestrator.sol\":7765:7773  poolInfo */\n      0x07\n        /* \"TEXOOrchestrator.sol\":7774:7778  _pid */\n      dup8\n        /* \"TEXOOrchestrator.sol\":7765:7779  poolInfo[_pid] */\n      dup2\n      sload\n      dup2\n      lt\n      tag_182\n      jumpi\n      invalid\n    tag_182:\n      swap1\n      0x00\n      mstore\n      keccak256(0x00, 0x20)\n      swap1\n      0x07\n      mul\n      add\n        /* \"TEXOOrchestrator.sol\":7765:7793  poolInfo[_pid].inActiveBlock */\n      0x03\n      add\n        /* \"TEXOOrchestrator.sol\":7765:7835  poolInfo[_pid].inActiveBlock = _inActiveBlock > 0 ? _inActiveBlock : 0 */\n      dup2\n      swap1\n      sstore\n      pop\n        /* \"TEXOOrchestrator.sol\":6999:7842  function set(... */\n      pop\n      pop\n      pop\n      pop\n      pop\n      pop\n      jump\t// out\n        /* \"TEXOOrchestrator.sol\":5137:5230  function poolLength() external view returns (uint256) {... */\n    tag_56:\n        /* \"TEXOOrchestrator.sol\":5182:5189  uint256 */\n      0x00\n        /* \"TEXOOrchestrator.sol\":5208:5216  poolInfo */\n      0x07\n        /* \"TEXOOrchestrator.sol\":5208:5223  poolInfo.length */\n      dup1\n      sload\n      swap1\n      pop\n        /* \"TEXOOrchestrator.sol\":5201:5223  return poolInfo.length */\n      swap1\n      pop\n        /* \"TEXOOrchestrator.sol\":5137:5230  function poolLength() external view returns (uint256) {... */\n      swap1\n      jump\t// out\n        /* \"TEXOOrchestrator.sol\":5711:6890  function add(... */\n    tag_59:\n        /* \"Ownable.sol\":1289:1301  _msgSender() */\n      tag_186\n        /* \"Ownable.sol\":1289:1299  _msgSender */\n      tag_161\n        /* \"Ownable.sol\":1289:1301  _msgSender() */\n      jump\t// in\n    tag_186:\n        /* \"Ownable.sol\":1279:1301  _owner == _msgSender() */\n      0xffffffffffffffffffffffffffffffffffffffff\n      and\n        /* \"Ownable.sol\":1279:1285  _owner */\n      0x00\n      dup1\n      sload\n      swap1\n      0x0100\n      exp\n      swap1\n      div\n      0xffffffffffffffffffffffffffffffffffffffff\n      and\n        /* \"Ownable.sol\":1279:1301  _owner == _msgSender() */\n      0xffffffffffffffffffffffffffffffffffffffff\n      and\n      eq\n        /* \"Ownable.sol\":1271:1338  require(_owner == _msgSender(), 'Ownable: caller is not the owner') */\n      tag_187\n      jumpi\n      mload(0x40)\n      0x08c379a000000000000000000000000000000000000000000000000000000000\n      dup2\n      mstore\n      0x04\n      add\n      dup1\n      dup1\n      0x20\n      add\n      dup3\n      dup2\n      sub\n      dup3\n      mstore\n      0x20\n      dup2\n      mstore\n      0x20\n      add\n      dup1\n      0x4f776e61626c653a2063616c6c6572206973206e6f7420746865206f776e6572\n      dup2\n      mstore\n      pop\n      0x20\n      add\n      swap2\n      pop\n      pop\n      mload(0x40)\n      dup1\n      swap2\n      sub\n      swap1\n      revert\n    tag_187:\n        /* \"TEXOOrchestrator.sol\":5985:5993  _lpToken */\n      dup6\n        /* \"TEXOOrchestrator.sol\":5586:5591  false */\n      0x00\n        /* \"TEXOOrchestrator.sol\":5559:5591  poolExistence[_lpToken] == false */\n      iszero\n      iszero\n        /* \"TEXOOrchestrator.sol\":5559:5572  poolExistence */\n      0x0d\n        /* \"TEXOOrchestrator.sol\":5559:5582  poolExistence[_lpToken] */\n      0x00\n        /* \"TEXOOrchestrator.sol\":5573:5581  _lpToken */\n      dup4\n        /* \"TEXOOrchestrator.sol\":5559:5582  poolExistence[_lpToken] */\n      0xffffffffffffffffffffffffffffffffffffffff\n      and\n      0xffffffffffffffffffffffffffffffffffffffff\n      and\n      dup2\n      mstore\n      0x20\n      add\n      swap1\n      dup2\n      mstore\n      0x20\n      add\n      0x00\n      keccak256\n      0x00\n      swap1\n      sload\n      swap1\n      0x0100\n      exp\n      swap1\n      div\n      0xff\n      and\n        /* \"TEXOOrchestrator.sol\":5559:5591  poolExistence[_lpToken] == false */\n      iszero\n      iszero\n      eq\n        /* \"TEXOOrchestrator.sol\":5551:5621  require(poolExistence[_lpToken] == false, \"nonDuplicated: duplicated\") */\n      tag_189\n      jumpi\n      mload(0x40)\n      0x08c379a000000000000000000000000000000000000000000000000000000000\n      dup2\n      mstore\n      0x04\n      add\n      dup1\n      dup1\n      0x20\n      add\n      dup3\n      dup2\n      sub\n      dup3\n      mstore\n      0x19\n      dup2\n      mstore\n      0x20\n      add\n      dup1\n      0x6e6f6e4475706c6963617465643a206475706c69636174656400000000000000\n      dup2\n      mstore\n      pop\n      0x20\n      add\n      swap2\n      pop\n      pop\n      mload(0x40)\n      dup1\n      swap2\n      sub\n      swap1\n      revert\n    tag_189:\n        /* \"TEXOOrchestrator.sol\":2741:2744  400 */\n      0x0190\n        /* \"TEXOOrchestrator.sol\":6013:6052  _depositFeeBP <= MAXIMUM_DEPOSIT_FEE_BP */\n      0xffff\n      and\n        /* \"TEXOOrchestrator.sol\":6013:6026  _depositFeeBP */\n      dup7\n        /* \"TEXOOrchestrator.sol\":6013:6052  _depositFeeBP <= MAXIMUM_DEPOSIT_FEE_BP */\n      0xffff\n      and\n      gt\n      iszero\n        /* \"TEXOOrchestrator.sol\":6005:6094  require(_depositFeeBP <= MAXIMUM_DEPOSIT_FEE_BP, \"add: invalid deposit fee basis points\") */\n      tag_191\n      jumpi\n      mload(0x40)\n      0x08c379a000000000000000000000000000000000000000000000000000000000\n      dup2\n      mstore\n      0x04\n      add\n      dup1\n      dup1\n      0x20\n      add\n      dup3\n      dup2\n      sub\n      dup3\n      mstore\n      0x25\n      dup2\n      mstore\n      0x20\n      add\n      dup1\n      data_0ecf01aeb804f0ae223eada9d16893a9009cdcbe208d348705dc613f9a9f5331\n      0x25\n      swap2\n      codecopy\n      0x40\n      add\n      swap2\n      pop\n      pop\n      mload(0x40)\n      dup1\n      swap2\n      sub\n      swap1\n      revert\n    tag_191:\n        /* \"TEXOOrchestrator.sol\":6136:6137  0 */\n      0x00\n        /* \"TEXOOrchestrator.sol\":6112:6133  _blockToReceiveReward */\n      dup5\n        /* \"TEXOOrchestrator.sol\":6112:6137  _blockToReceiveReward > 0 */\n      gt\n        /* \"TEXOOrchestrator.sol\":6104:6183  require(_blockToReceiveReward > 0, \"add: block to receive reward is required \") */\n      tag_192\n      jumpi\n      mload(0x40)\n      0x08c379a000000000000000000000000000000000000000000000000000000000\n      dup2\n      mstore\n      0x04\n      add\n      dup1\n      dup1\n      0x20\n      add\n      dup3\n      dup2\n      sub\n      dup3\n      mstore\n      0x29\n      dup2\n      mstore\n      0x20\n      add\n      dup1\n      data_4a850434ef441d85843a8ad55252d2359c2e8d60a78973332ca10dded0d107a5\n      0x29\n      swap2\n      codecopy\n      0x40\n      add\n      swap2\n      pop\n      pop\n      mload(0x40)\n      dup1\n      swap2\n      sub\n      swap1\n      revert\n    tag_192:\n        /* \"TEXOOrchestrator.sol\":6198:6209  _withUpdate */\n      dup5\n        /* \"TEXOOrchestrator.sol\":6194:6253  if (_withUpdate) {... */\n      iszero\n      tag_193\n      jumpi\n        /* \"TEXOOrchestrator.sol\":6225:6242  massUpdatePools() */\n      tag_194\n        /* \"TEXOOrchestrator.sol\":6225:6240  massUpdatePools */\n      tag_98\n        /* \"TEXOOrchestrator.sol\":6225:6242  massUpdatePools() */\n      jump\t// in\n    tag_194:\n        /* \"TEXOOrchestrator.sol\":6194:6253  if (_withUpdate) {... */\n    tag_193:\n        /* \"TEXOOrchestrator.sol\":6281:6313  totalAllocPoint.add(_allocPoint) */\n      tag_195\n        /* \"TEXOOrchestrator.sol\":6301:6312  _allocPoint */\n      dup9\n        /* \"TEXOOrchestrator.sol\":6281:6296  totalAllocPoint */\n      sload(0x09)\n        /* \"TEXOOrchestrator.sol\":6281:6300  totalAllocPoint.add */\n      tag_173\n      swap1\n        /* \"TEXOOrchestrator.sol\":6281:6313  totalAllocPoint.add(_allocPoint) */\n      swap2\n      swap1\n      0xffffffff\n      and\n      jump\t// in\n    tag_195:\n        /* \"TEXOOrchestrator.sol\":6263:6278  totalAllocPoint */\n      0x09\n        /* \"TEXOOrchestrator.sol\":6263:6313  totalAllocPoint = totalAllocPoint.add(_allocPoint) */\n      dup2\n      swap1\n      sstore\n      pop\n        /* \"TEXOOrchestrator.sol\":6349:6353  true */\n      0x01\n        /* \"TEXOOrchestrator.sol\":6323:6336  poolExistence */\n      0x0d\n        /* \"TEXOOrchestrator.sol\":6323:6346  poolExistence[_lpToken] */\n      0x00\n        /* \"TEXOOrchestrator.sol\":6337:6345  _lpToken */\n      dup10\n        /* \"TEXOOrchestrator.sol\":6323:6346  poolExistence[_lpToken] */\n      0xffffffffffffffffffffffffffffffffffffffff\n      and\n      0xffffffffffffffffffffffffffffffffffffffff\n      and\n      dup2\n      mstore\n      0x20\n      add\n      swap1\n      dup2\n      mstore\n      0x20\n      add\n      0x00\n      keccak256\n      0x00\n        /* \"TEXOOrchestrator.sol\":6323:6353  poolExistence[_lpToken] = true */\n      0x0100\n      exp\n      dup2\n      sload\n      dup2\n      0xff\n      mul\n      not\n      and\n      swap1\n      dup4\n      iszero\n      iszero\n      mul\n      or\n      swap1\n      sstore\n      pop\n        /* \"TEXOOrchestrator.sol\":6364:6372  poolInfo */\n      0x07\n        /* \"TEXOOrchestrator.sol\":6391:6812  PoolInfo({... */\n      mload(0x40)\n      dup1\n      0xe0\n      add\n      0x40\n      mstore\n      dup1\n        /* \"TEXOOrchestrator.sol\":6427:6435  _lpToken */\n      dup10\n        /* \"TEXOOrchestrator.sol\":6391:6812  PoolInfo({... */\n      0xffffffffffffffffffffffffffffffffffffffff\n      and\n      dup2\n      mstore\n      0x20\n      add\n        /* \"TEXOOrchestrator.sol\":6465:6476  _allocPoint */\n      dup11\n        /* \"TEXOOrchestrator.sol\":6391:6812  PoolInfo({... */\n      dup2\n      mstore\n      0x20\n      add\n        /* \"TEXOOrchestrator.sol\":6704:6725  _blockToReceiveReward */\n      dup7\n        /* \"TEXOOrchestrator.sol\":6391:6812  PoolInfo({... */\n      dup2\n      mstore\n      0x20\n      add\n        /* \"TEXOOrchestrator.sol\":6775:6776  0 */\n      0x00\n        /* \"TEXOOrchestrator.sol\":6758:6772  _inActiveBlock */\n      dup6\n        /* \"TEXOOrchestrator.sol\":6758:6776  _inActiveBlock > 0 */\n      gt\n        /* \"TEXOOrchestrator.sol\":6758:6797  _inActiveBlock > 0 ? _inActiveBlock : 0 */\n      tag_196\n      jumpi\n        /* \"TEXOOrchestrator.sol\":6796:6797  0 */\n      0x00\n        /* \"TEXOOrchestrator.sol\":6758:6797  _inActiveBlock > 0 ? _inActiveBlock : 0 */\n      jump(tag_197)\n    tag_196:\n        /* \"TEXOOrchestrator.sol\":6779:6793  _inActiveBlock */\n      dup5\n        /* \"TEXOOrchestrator.sol\":6758:6797  _inActiveBlock > 0 ? _inActiveBlock : 0 */\n    tag_197:\n        /* \"TEXOOrchestrator.sol\":6391:6812  PoolInfo({... */\n      dup2\n      mstore\n      0x20\n      add\n        /* \"TEXOOrchestrator.sol\":6539:6540  0 */\n      0x00\n        /* \"TEXOOrchestrator.sol\":6511:6536  _startGenerateRewardBlock */\n      dup7\n        /* \"TEXOOrchestrator.sol\":6511:6540  _startGenerateRewardBlock > 0 */\n      gt\n        /* \"TEXOOrchestrator.sol\":6511:6583  _startGenerateRewardBlock > 0 ? _startGenerateRewardBlock : block.number */\n      tag_198\n      jumpi\n        /* \"TEXOOrchestrator.sol\":6571:6583  block.number */\n      number\n        /* \"TEXOOrchestrator.sol\":6511:6583  _startGenerateRewardBlock > 0 ? _startGenerateRewardBlock : block.number */\n      jump(tag_199)\n    tag_198:\n        /* \"TEXOOrchestrator.sol\":6543:6568  _startGenerateRewardBlock */\n      dup6\n        /* \"TEXOOrchestrator.sol\":6511:6583  _startGenerateRewardBlock > 0 ? _startGenerateRewardBlock : block.number */\n    tag_199:\n        /* \"TEXOOrchestrator.sol\":6391:6812  PoolInfo({... */\n      dup2\n      mstore\n      0x20\n      add\n        /* \"TEXOOrchestrator.sol\":6618:6619  0 */\n      0x00\n        /* \"TEXOOrchestrator.sol\":6391:6812  PoolInfo({... */\n      dup2\n      mstore\n      0x20\n      add\n        /* \"TEXOOrchestrator.sol\":6651:6664  _depositFeeBP */\n      dup9\n        /* \"TEXOOrchestrator.sol\":6391:6812  PoolInfo({... */\n      0xffff\n      and\n      dup2\n      mstore\n      pop\n        /* \"TEXOOrchestrator.sol\":6364:6822  poolInfo.push(... */\n      swap1\n      dup1\n      0x01\n      dup2\n      sload\n      add\n      dup1\n      dup3\n      sstore\n      dup1\n      swap2\n      pop\n      pop\n      0x01\n      swap1\n      sub\n      swap1\n      0x00\n      mstore\n      keccak256(0x00, 0x20)\n      swap1\n      0x07\n      mul\n      add\n      0x00\n      swap1\n      swap2\n      swap1\n      swap2\n      swap1\n      swap2\n      pop\n      0x00\n      dup3\n      add\n      mload\n      dup2\n      0x00\n      add\n      exp(0x0100, 0x00)\n      dup2\n      sload\n      dup2\n      0xffffffffffffffffffffffffffffffffffffffff\n      mul\n      not\n      and\n      swap1\n      dup4\n      0xffffffffffffffffffffffffffffffffffffffff\n      and\n      mul\n      or\n      swap1\n      sstore\n      pop\n      0x20\n      dup3\n      add\n      mload\n      dup2\n      0x01\n      add\n      sstore\n      0x40\n      dup3\n      add\n      mload\n      dup2\n      0x02\n      add\n      sstore\n      0x60\n      dup3\n      add\n      mload\n      dup2\n      0x03\n      add\n      sstore\n      0x80\n      dup3\n      add\n      mload\n      dup2\n      0x04\n      add\n      sstore\n      0xa0\n      dup3\n      add\n      mload\n      dup2\n      0x05\n      add\n      sstore\n      0xc0\n      dup3\n      add\n      mload\n      dup2\n      0x06\n      add\n      exp(0x0100, 0x00)\n      dup2\n      sload\n      dup2\n      0xffff\n      mul\n      not\n      and\n      swap1\n      dup4\n      0xffff\n      and\n      mul\n      or\n      swap1\n      sstore\n      pop\n      pop\n      pop\n        /* \"TEXOOrchestrator.sol\":6882:6883  1 */\n      0x01\n        /* \"TEXOOrchestrator.sol\":6864:6872  poolInfo */\n      0x07\n        /* \"TEXOOrchestrator.sol\":6864:6879  poolInfo.length */\n      dup1\n      sload\n      swap1\n      pop\n        /* \"TEXOOrchestrator.sol\":6864:6883  poolInfo.length - 1 */\n      sub\n        /* \"TEXOOrchestrator.sol\":6833:6851  poolIdForLpAddress */\n      0x0e\n        /* \"TEXOOrchestrator.sol\":6833:6861  poolIdForLpAddress[_lpToken] */\n      0x00\n        /* \"TEXOOrchestrator.sol\":6852:6860  _lpToken */\n      dup10\n        /* \"TEXOOrchestrator.sol\":6833:6861  poolIdForLpAddress[_lpToken] */\n      0xffffffffffffffffffffffffffffffffffffffff\n      and\n      0xffffffffffffffffffffffffffffffffffffffff\n      and\n      dup2\n      mstore\n      0x20\n      add\n      swap1\n      dup2\n      mstore\n      0x20\n      add\n      0x00\n      keccak256\n        /* \"TEXOOrchestrator.sol\":6833:6883  poolIdForLpAddress[_lpToken] = poolInfo.length - 1 */\n      dup2\n      swap1\n      sstore\n      pop\n        /* \"Ownable.sol\":1348:1349  _ */\n      pop\n        /* \"TEXOOrchestrator.sol\":5711:6890  function add(... */\n      pop\n      pop\n      pop\n      pop\n      pop\n      pop\n      pop\n      jump\t// out\n        /* \"TEXOOrchestrator.sol\":2292:2318  PoolInfo[] public poolInfo */\n    tag_62:\n      0x07\n      dup2\n      dup2\n      sload\n      dup2\n      lt\n      tag_201\n      jumpi\n      invalid\n    tag_201:\n      swap1\n      0x00\n      mstore\n      keccak256(0x00, 0x20)\n      swap1\n      0x07\n      mul\n      add\n      0x00\n      swap2\n      pop\n      swap1\n      pop\n      dup1\n      0x00\n      add\n      0x00\n      swap1\n      sload\n      swap1\n      0x0100\n      exp\n      swap1\n      div\n      0xffffffffffffffffffffffffffffffffffffffff\n      and\n      swap1\n      dup1\n      0x01\n      add\n      sload\n      swap1\n      dup1\n      0x02\n      add\n      sload\n      swap1\n      dup1\n      0x03\n      add\n      sload\n      swap1\n      dup1\n      0x04\n      add\n      sload\n      swap1\n      dup1\n      0x05\n      add\n      sload\n      swap1\n      dup1\n      0x06\n      add\n      0x00\n      swap1\n      sload\n      swap1\n      0x0100\n      exp\n      swap1\n      div\n      0xffff\n      and\n      swap1\n      pop\n      dup8\n      jump\t// out\n        /* \"TEXOOrchestrator.sol\":2529:2563  uint256 public totalAllocPoint = 0 */\n    tag_64:\n      sload(0x09)\n      dup2\n      jump\t// out\n        /* \"TEXOOrchestrator.sol\":5236:5454  function getPoolIdForLpToken(IBEP20 _lpToken) external view returns (uint256) {... */\n    tag_67:\n        /* \"TEXOOrchestrator.sol\":5305:5312  uint256 */\n      0x00\n        /* \"TEXOOrchestrator.sol\":5359:5364  false */\n      dup1\n        /* \"TEXOOrchestrator.sol\":5332:5364  poolExistence[_lpToken] != false */\n      iszero\n      iszero\n        /* \"TEXOOrchestrator.sol\":5332:5345  poolExistence */\n      0x0d\n        /* \"TEXOOrchestrator.sol\":5332:5355  poolExistence[_lpToken] */\n      0x00\n        /* \"TEXOOrchestrator.sol\":5346:5354  _lpToken */\n      dup5\n        /* \"TEXOOrchestrator.sol\":5332:5355  poolExistence[_lpToken] */\n      0xffffffffffffffffffffffffffffffffffffffff\n      and\n      0xffffffffffffffffffffffffffffffffffffffff\n      and\n      dup2\n      mstore\n      0x20\n      add\n      swap1\n      dup2\n      mstore\n      0x20\n      add\n      0x00\n      keccak256\n      0x00\n      swap1\n      sload\n      swap1\n      0x0100\n      exp\n      swap1\n      div\n      0xff\n      and\n        /* \"TEXOOrchestrator.sol\":5332:5364  poolExistence[_lpToken] != false */\n      iszero\n      iszero\n      eq\n      iszero\n        /* \"TEXOOrchestrator.sol\":5324:5402  require(poolExistence[_lpToken] != false, \"getPoolIdForLpToken: do not exist\") */\n      tag_204\n      jumpi\n      mload(0x40)\n      0x08c379a000000000000000000000000000000000000000000000000000000000\n      dup2\n      mstore\n      0x04\n      add\n      dup1\n      dup1\n      0x20\n      add\n      dup3\n      dup2\n      sub\n      dup3\n      mstore\n      0x21\n      dup2\n      mstore\n      0x20\n      add\n      dup1\n      data_bf35de78f3e15a98c58afdc189c393a6a76029783bd8ecfd3a8b87b4a628fd85\n      0x21\n      swap2\n      codecopy\n      0x40\n      add\n      swap2\n      pop\n      pop\n      mload(0x40)\n      dup1\n      swap2\n      sub\n      swap1\n      revert\n    tag_204:\n        /* \"TEXOOrchestrator.sol\":5419:5437  poolIdForLpAddress */\n      0x0e\n        /* \"TEXOOrchestrator.sol\":5419:5447  poolIdForLpAddress[_lpToken] */\n      0x00\n        /* \"TEXOOrchestrator.sol\":5438:5446  _lpToken */\n      dup4\n        /* \"TEXOOrchestrator.sol\":5419:5447  poolIdForLpAddress[_lpToken] */\n      0xffffffffffffffffffffffffffffffffffffffff\n      and\n      0xffffffffffffffffffffffffffffffffffffffff\n      and\n      dup2\n      mstore\n      0x20\n      add\n      swap1\n      dup2\n      mstore\n      0x20\n      add\n      0x00\n      keccak256\n      sload\n        /* \"TEXOOrchestrator.sol\":5412:5447  return poolIdForLpAddress[_lpToken] */\n      swap1\n      pop\n        /* \"TEXOOrchestrator.sol\":5236:5454  function getPoolIdForLpToken(IBEP20 _lpToken) external view returns (uint256) {... */\n      swap2\n      swap1\n      pop\n      jump\t// out\n        /* \"TEXOOrchestrator.sol\":17759:18184  function setBlockToStartReducingEmissionRate(uint256 newBlockToStartReducingEmissionRate) public onlyOwner {... */\n    tag_70:\n        /* \"Ownable.sol\":1289:1301  _msgSender() */\n      tag_206\n        /* \"Ownable.sol\":1289:1299  _msgSender */\n      tag_161\n        /* \"Ownable.sol\":1289:1301  _msgSender() */\n      jump\t// in\n    tag_206:\n        /* \"Ownable.sol\":1279:1301  _owner == _msgSender() */\n      0xffffffffffffffffffffffffffffffffffffffff\n      and\n        /* \"Ownable.sol\":1279:1285  _owner */\n      0x00\n      dup1\n      sload\n      swap1\n      0x0100\n      exp\n      swap1\n      div\n      0xffffffffffffffffffffffffffffffffffffffff\n      and\n        /* \"Ownable.sol\":1279:1301  _owner == _msgSender() */\n      0xffffffffffffffffffffffffffffffffffffffff\n      and\n      eq\n        /* \"Ownable.sol\":1271:1338  require(_owner == _msgSender(), 'Ownable: caller is not the owner') */\n      tag_207\n      jumpi\n      mload(0x40)\n      0x08c379a000000000000000000000000000000000000000000000000000000000\n      dup2\n      mstore\n      0x04\n      add\n      dup1\n      dup1\n      0x20\n      add\n      dup3\n      dup2\n      sub\n      dup3\n      mstore\n      0x20\n      dup2\n      mstore\n      0x20\n      add\n      dup1\n      0x4f776e61626c653a2063616c6c6572206973206e6f7420746865206f776e6572\n      dup2\n      mstore\n      pop\n      0x20\n      add\n      swap2\n      pop\n      pop\n      mload(0x40)\n      dup1\n      swap2\n      sub\n      swap1\n      revert\n    tag_207:\n        /* \"TEXOOrchestrator.sol\":17876:17924  uint256 previousBlockToStartReducingEmissionRate */\n      0x00\n        /* \"TEXOOrchestrator.sol\":17927:17959  blockToStartReducingEmissionRate */\n      sload(0x06)\n        /* \"TEXOOrchestrator.sol\":17876:17959  uint256 previousBlockToStartReducingEmissionRate = blockToStartReducingEmissionRate */\n      swap1\n      pop\n        /* \"TEXOOrchestrator.sol\":18004:18039  newBlockToStartReducingEmissionRate */\n      dup2\n        /* \"TEXOOrchestrator.sol\":17969:18001  blockToStartReducingEmissionRate */\n      0x06\n        /* \"TEXOOrchestrator.sol\":17969:18039  blockToStartReducingEmissionRate = newBlockToStartReducingEmissionRate */\n      dup2\n      swap1\n      sstore\n      pop\n        /* \"TEXOOrchestrator.sol\":18087:18097  msg.sender */\n      caller\n        /* \"TEXOOrchestrator.sol\":18055:18177  BlockToStartEmissionRateUpdated(msg.sender, previousBlockToStartReducingEmissionRate, newBlockToStartReducingEmissionRate) */\n      0xffffffffffffffffffffffffffffffffffffffff\n      and\n      0xabe024a075fcd3d0ce833cbf71173e1b743a290b0fe6f4a02121c07017f358b0\n        /* \"TEXOOrchestrator.sol\":18099:18139  previousBlockToStartReducingEmissionRate */\n      dup3\n        /* \"TEXOOrchestrator.sol\":18141:18176  newBlockToStartReducingEmissionRate */\n      dup5\n        /* \"TEXOOrchestrator.sol\":18055:18177  BlockToStartEmissionRateUpdated(msg.sender, previousBlockToStartReducingEmissionRate, newBlockToStartReducingEmissionRate) */\n      mload(0x40)\n      dup1\n      dup4\n      dup2\n      mstore\n      0x20\n      add\n      dup3\n      dup2\n      mstore\n      0x20\n      add\n      swap3\n      pop\n      pop\n      pop\n      mload(0x40)\n      dup1\n      swap2\n      sub\n      swap1\n      log2\n        /* \"Ownable.sol\":1348:1349  _ */\n      pop\n        /* \"TEXOOrchestrator.sol\":17759:18184  function setBlockToStartReducingEmissionRate(uint256 newBlockToStartReducingEmissionRate) public onlyOwner {... */\n      pop\n      jump\t// out\n        /* \"TEXOOrchestrator.sol\":2792:2841  uint16 public constant MAXIMUM_REFERRAL_BP = 2000 */\n    tag_72:\n        /* \"TEXOOrchestrator.sol\":2837:2841  2000 */\n      0x07d0\n        /* \"TEXOOrchestrator.sol\":2792:2841  uint16 public constant MAXIMUM_REFERRAL_BP = 2000 */\n      dup2\n      jump\t// out\n        /* \"TEXOOrchestrator.sol\":18618:18724  function getReferral(address _user) public view returns (address) {... */\n    tag_75:\n        /* \"TEXOOrchestrator.sol\":18675:18682  address */\n      0x00\n        /* \"TEXOOrchestrator.sol\":18701:18710  referrers */\n      0x0b\n        /* \"TEXOOrchestrator.sol\":18701:18717  referrers[_user] */\n      0x00\n        /* \"TEXOOrchestrator.sol\":18711:18716  _user */\n      dup4\n        /* \"TEXOOrchestrator.sol\":18701:18717  referrers[_user] */\n      0xffffffffffffffffffffffffffffffffffffffff\n      and\n      0xffffffffffffffffffffffffffffffffffffffff\n      and\n      dup2\n      mstore\n      0x20\n      add\n      swap1\n      dup2\n      mstore\n      0x20\n      add\n      0x00\n      keccak256\n      0x00\n      swap1\n      sload\n      swap1\n      0x0100\n      exp\n      swap1\n      div\n      0xffffffffffffffffffffffffffffffffffffffff\n      and\n        /* \"TEXOOrchestrator.sol\":18694:18717  return referrers[_user] */\n      swap1\n      pop\n        /* \"TEXOOrchestrator.sol\":18618:18724  function getReferral(address _user) public view returns (address) {... */\n      swap2\n      swap1\n      pop\n      jump\t// out\n        /* \"TEXOOrchestrator.sol\":2960:3008  mapping(address => uint256) public referredCount */\n    tag_78:\n      mstore(0x20, 0x0c)\n      dup1\n      0x00\n      mstore\n      keccak256(0x00, 0x40)\n      0x00\n      swap2\n      pop\n      swap1\n      pop\n      sload\n      dup2\n      jump\t// out\n        /* \"TEXOOrchestrator.sol\":2127:2152  address public feeAddress */\n    tag_80:\n      0x05\n      0x00\n      swap1\n      sload\n      swap1\n      0x0100\n      exp\n      swap1\n      div\n      0xffffffffffffffffffffffffffffffffffffffff\n      and\n      dup2\n      jump\t// out\n        /* \"TEXOOrchestrator.sol\":12941:13567  function withdraw(uint256 _pid, uint256 _amount) public nonReentrant {... */\n    tag_83:\n        /* \"ReentrancyGuard.sol\":1680:1681  2 */\n      0x02\n        /* \"ReentrancyGuard.sol\":2269:2276  _status */\n      sload(0x01)\n        /* \"ReentrancyGuard.sol\":2269:2288  _status != _ENTERED */\n      eq\n      iszero\n        /* \"ReentrancyGuard.sol\":2261:2324  require(_status != _ENTERED, \"ReentrancyGuard: reentrant call\") */\n      tag_211\n      jumpi\n      mload(0x40)\n      0x08c379a000000000000000000000000000000000000000000000000000000000\n      dup2\n      mstore\n      0x04\n      add\n      dup1\n      dup1\n      0x20\n      add\n      dup3\n      dup2\n      sub\n      dup3\n      mstore\n      0x1f\n      dup2\n      mstore\n      0x20\n      add\n      dup1\n      0x5265656e7472616e637947756172643a207265656e7472616e742063616c6c00\n      dup2\n      mstore\n      pop\n      0x20\n      add\n      swap2\n      pop\n      pop\n      mload(0x40)\n      dup1\n      swap2\n      sub\n      swap1\n      revert\n    tag_211:\n        /* \"ReentrancyGuard.sol\":1680:1681  2 */\n      0x02\n        /* \"ReentrancyGuard.sol\":2399:2406  _status */\n      0x01\n        /* \"ReentrancyGuard.sol\":2399:2417  _status = _ENTERED */\n      dup2\n      swap1\n      sstore\n      pop\n        /* \"TEXOOrchestrator.sol\":13020:13041  PoolInfo storage pool */\n      0x00\n        /* \"TEXOOrchestrator.sol\":13044:13052  poolInfo */\n      0x07\n        /* \"TEXOOrchestrator.sol\":13053:13057  _pid */\n      dup4\n        /* \"TEXOOrchestrator.sol\":13044:13058  poolInfo[_pid] */\n      dup2\n      sload\n      dup2\n      lt\n      tag_213\n      jumpi\n      invalid\n    tag_213:\n      swap1\n      0x00\n      mstore\n      keccak256(0x00, 0x20)\n      swap1\n      0x07\n      mul\n      add\n        /* \"TEXOOrchestrator.sol\":13020:13058  PoolInfo storage pool = poolInfo[_pid] */\n      swap1\n      pop\n        /* \"TEXOOrchestrator.sol\":13068:13089  UserInfo storage user */\n      0x00\n        /* \"TEXOOrchestrator.sol\":13092:13100  userInfo */\n      0x08\n        /* \"TEXOOrchestrator.sol\":13092:13106  userInfo[_pid] */\n      0x00\n        /* \"TEXOOrchestrator.sol\":13101:13105  _pid */\n      dup6\n        /* \"TEXOOrchestrator.sol\":13092:13106  userInfo[_pid] */\n      dup2\n      mstore\n      0x20\n      add\n      swap1\n      dup2\n      mstore\n      0x20\n      add\n      0x00\n      keccak256\n        /* \"TEXOOrchestrator.sol\":13092:13118  userInfo[_pid][msg.sender] */\n      0x00\n        /* \"TEXOOrchestrator.sol\":13107:13117  msg.sender */\n      caller\n        /* \"TEXOOrchestrator.sol\":13092:13118  userInfo[_pid][msg.sender] */\n      0xffffffffffffffffffffffffffffffffffffffff\n      and\n      0xffffffffffffffffffffffffffffffffffffffff\n      and\n      dup2\n      mstore\n      0x20\n      add\n      swap1\n      dup2\n      mstore\n      0x20\n      add\n      0x00\n      keccak256\n        /* \"TEXOOrchestrator.sol\":13068:13118  UserInfo storage user = userInfo[_pid][msg.sender] */\n      swap1\n      pop\n        /* \"TEXOOrchestrator.sol\":13152:13159  _amount */\n      dup3\n        /* \"TEXOOrchestrator.sol\":13137:13141  user */\n      dup2\n        /* \"TEXOOrchestrator.sol\":13137:13148  user.amount */\n      0x00\n      add\n      sload\n        /* \"TEXOOrchestrator.sol\":13137:13159  user.amount >= _amount */\n      lt\n      iszero\n        /* \"TEXOOrchestrator.sol\":13129:13182  require(user.amount >= _amount, \"withdraw: not good\") */\n      tag_215\n      jumpi\n      mload(0x40)\n      0x08c379a000000000000000000000000000000000000000000000000000000000\n      dup2\n      mstore\n      0x04\n      add\n      dup1\n      dup1\n      0x20\n      add\n      dup3\n      dup2\n      sub\n      dup3\n      mstore\n      0x12\n      dup2\n      mstore\n      0x20\n      add\n      dup1\n      0x77697468647261773a206e6f7420676f6f640000000000000000000000000000\n      dup2\n      mstore\n      pop\n      0x20\n      add\n      swap2\n      pop\n      pop\n      mload(0x40)\n      dup1\n      swap2\n      sub\n      swap1\n      revert\n    tag_215:\n        /* \"TEXOOrchestrator.sol\":13193:13209  updatePool(_pid) */\n      tag_216\n        /* \"TEXOOrchestrator.sol\":13204:13208  _pid */\n      dup5\n        /* \"TEXOOrchestrator.sol\":13193:13203  updatePool */\n      tag_89\n        /* \"TEXOOrchestrator.sol\":13193:13209  updatePool(_pid) */\n      jump\t// in\n    tag_216:\n        /* \"TEXOOrchestrator.sol\":13220:13248  payOrLockupPendingTEXO(_pid) */\n      tag_217\n        /* \"TEXOOrchestrator.sol\":13243:13247  _pid */\n      dup5\n        /* \"TEXOOrchestrator.sol\":13220:13242  payOrLockupPendingTEXO */\n      tag_218\n        /* \"TEXOOrchestrator.sol\":13220:13248  payOrLockupPendingTEXO(_pid) */\n      jump\t// in\n    tag_217:\n        /* \"TEXOOrchestrator.sol\":13273:13274  0 */\n      0x00\n        /* \"TEXOOrchestrator.sol\":13263:13270  _amount */\n      dup4\n        /* \"TEXOOrchestrator.sol\":13263:13274  _amount > 0 */\n      gt\n        /* \"TEXOOrchestrator.sol\":13259:13408  if (_amount > 0) {... */\n      iszero\n      tag_219\n      jumpi\n        /* \"TEXOOrchestrator.sol\":13304:13328  user.amount.sub(_amount) */\n      tag_220\n        /* \"TEXOOrchestrator.sol\":13320:13327  _amount */\n      dup4\n        /* \"TEXOOrchestrator.sol\":13304:13308  user */\n      dup3\n        /* \"TEXOOrchestrator.sol\":13304:13315  user.amount */\n      0x00\n      add\n      sload\n        /* \"TEXOOrchestrator.sol\":13304:13319  user.amount.sub */\n      tag_172\n      swap1\n        /* \"TEXOOrchestrator.sol\":13304:13328  user.amount.sub(_amount) */\n      swap2\n      swap1\n      0xffffffff\n      and\n      jump\t// in\n    tag_220:\n        /* \"TEXOOrchestrator.sol\":13290:13294  user */\n      dup2\n        /* \"TEXOOrchestrator.sol\":13290:13301  user.amount */\n      0x00\n      add\n        /* \"TEXOOrchestrator.sol\":13290:13328  user.amount = user.amount.sub(_amount) */\n      dup2\n      swap1\n      sstore\n      pop\n        /* \"TEXOOrchestrator.sol\":13342:13397  pool.lpToken.safeTransfer(address(msg.sender), _amount) */\n      tag_221\n        /* \"TEXOOrchestrator.sol\":13376:13386  msg.sender */\n      caller\n        /* \"TEXOOrchestrator.sol\":13389:13396  _amount */\n      dup5\n        /* \"TEXOOrchestrator.sol\":13342:13346  pool */\n      dup5\n        /* \"TEXOOrchestrator.sol\":13342:13354  pool.lpToken */\n      0x00\n      add\n      0x00\n      swap1\n      sload\n      swap1\n      0x0100\n      exp\n      swap1\n      div\n      0xffffffffffffffffffffffffffffffffffffffff\n      and\n        /* \"TEXOOrchestrator.sol\":13342:13367  pool.lpToken.safeTransfer */\n      0xffffffffffffffffffffffffffffffffffffffff\n      and\n      tag_222\n      swap1\n        /* \"TEXOOrchestrator.sol\":13342:13397  pool.lpToken.safeTransfer(address(msg.sender), _amount) */\n      swap3\n      swap2\n      swap1\n      0xffffffff\n      and\n      jump\t// in\n    tag_221:\n        /* \"TEXOOrchestrator.sol\":13259:13408  if (_amount > 0) {... */\n    tag_219:\n        /* \"TEXOOrchestrator.sol\":13436:13509  user.amount... */\n      tag_223\n        /* \"TEXOOrchestrator.sol\":13504:13508  1e12 */\n      0xe8d4a51000\n        /* \"TEXOOrchestrator.sol\":13436:13486  user.amount... */\n      tag_224\n        /* \"TEXOOrchestrator.sol\":13465:13469  pool */\n      dup5\n        /* \"TEXOOrchestrator.sol\":13465:13485  pool.accTEXOPerShare */\n      0x05\n      add\n      sload\n        /* \"TEXOOrchestrator.sol\":13436:13440  user */\n      dup5\n        /* \"TEXOOrchestrator.sol\":13436:13447  user.amount */\n      0x00\n      add\n      sload\n        /* \"TEXOOrchestrator.sol\":13436:13464  user.amount... */\n      tag_225\n      swap1\n        /* \"TEXOOrchestrator.sol\":13436:13486  user.amount... */\n      swap2\n      swap1\n      0xffffffff\n      and\n      jump\t// in\n    tag_224:\n        /* \"TEXOOrchestrator.sol\":13436:13503  user.amount... */\n      tag_226\n      swap1\n        /* \"TEXOOrchestrator.sol\":13436:13509  user.amount... */\n      swap2\n      swap1\n      0xffffffff\n      and\n      jump\t// in\n    tag_223:\n        /* \"TEXOOrchestrator.sol\":13418:13422  user */\n      dup2\n        /* \"TEXOOrchestrator.sol\":13418:13433  user.rewardDebt */\n      0x01\n      add\n        /* \"TEXOOrchestrator.sol\":13418:13509  user.rewardDebt = user.amount... */\n      dup2\n      swap1\n      sstore\n      pop\n        /* \"TEXOOrchestrator.sol\":13546:13550  _pid */\n      dup4\n        /* \"TEXOOrchestrator.sol\":13534:13544  msg.sender */\n      caller\n        /* \"TEXOOrchestrator.sol\":13525:13560  Withdraw(msg.sender, _pid, _amount) */\n      0xffffffffffffffffffffffffffffffffffffffff\n      and\n      0xf279e6a1f5e320cca91135676d9cb6e44ca8a08c0b88342bcdb1144f6511b568\n        /* \"TEXOOrchestrator.sol\":13552:13559  _amount */\n      dup6\n        /* \"TEXOOrchestrator.sol\":13525:13560  Withdraw(msg.sender, _pid, _amount) */\n      mload(0x40)\n      dup1\n      dup3\n      dup2\n      mstore\n      0x20\n      add\n      swap2\n      pop\n      pop\n      mload(0x40)\n      dup1\n      swap2\n      sub\n      swap1\n      log3\n        /* \"ReentrancyGuard.sol\":2428:2429  _ */\n      pop\n      pop\n        /* \"ReentrancyGuard.sol\":1637:1638  1 */\n      0x01\n        /* \"ReentrancyGuard.sol\":2572:2579  _status */\n      dup1\n        /* \"ReentrancyGuard.sol\":2572:2594  _status = _NOT_ENTERED */\n      dup2\n      swap1\n      sstore\n      pop\n        /* \"TEXOOrchestrator.sol\":12941:13567  function withdraw(uint256 _pid, uint256 _amount) public nonReentrant {... */\n      pop\n      pop\n      jump\t// out\n        /* \"TEXOOrchestrator.sol\":2871:2915  mapping(address => address) public referrers */\n    tag_86:\n      mstore(0x20, 0x0b)\n      dup1\n      0x00\n      mstore\n      keccak256(0x00, 0x40)\n      0x00\n      swap2\n      pop\n      sload\n      swap1\n      0x0100\n      exp\n      swap1\n      div\n      0xffffffffffffffffffffffffffffffffffffffff\n      and\n      dup2\n      jump\t// out\n        /* \"TEXOOrchestrator.sol\":9875:11273  function updatePool(uint256 _pid) public {... */\n    tag_89:\n        /* \"TEXOOrchestrator.sol\":9926:9947  PoolInfo storage pool */\n      0x00\n        /* \"TEXOOrchestrator.sol\":9950:9958  poolInfo */\n      0x07\n        /* \"TEXOOrchestrator.sol\":9959:9963  _pid */\n      dup3\n        /* \"TEXOOrchestrator.sol\":9950:9964  poolInfo[_pid] */\n      dup2\n      sload\n      dup2\n      lt\n      tag_228\n      jumpi\n      invalid\n    tag_228:\n      swap1\n      0x00\n      mstore\n      keccak256(0x00, 0x20)\n      swap1\n      0x07\n      mul\n      add\n        /* \"TEXOOrchestrator.sol\":9926:9964  PoolInfo storage pool = poolInfo[_pid] */\n      swap1\n      pop\n        /* \"TEXOOrchestrator.sol\":9975:10009  uint256 blockToCalculateMultiplier */\n      0x00\n        /* \"TEXOOrchestrator.sol\":10012:10056  minCurrentBlockAndInactiveBlockIfExist(_pid) */\n      tag_230\n        /* \"TEXOOrchestrator.sol\":10051:10055  _pid */\n      dup4\n        /* \"TEXOOrchestrator.sol\":10012:10050  minCurrentBlockAndInactiveBlockIfExist */\n      tag_231\n        /* \"TEXOOrchestrator.sol\":10012:10056  minCurrentBlockAndInactiveBlockIfExist(_pid) */\n      jump\t// in\n    tag_230:\n        /* \"TEXOOrchestrator.sol\":9975:10056  uint256 blockToCalculateMultiplier = minCurrentBlockAndInactiveBlockIfExist(_pid) */\n      swap1\n      pop\n        /* \"TEXOOrchestrator.sol\":10101:10105  pool */\n      dup2\n        /* \"TEXOOrchestrator.sol\":10101:10121  pool.lastRewardBlock */\n      0x04\n      add\n      sload\n        /* \"TEXOOrchestrator.sol\":10071:10097  blockToCalculateMultiplier */\n      dup2\n        /* \"TEXOOrchestrator.sol\":10071:10121  blockToCalculateMultiplier <= pool.lastRewardBlock */\n      gt\n        /* \"TEXOOrchestrator.sol\":10067:10154  if (blockToCalculateMultiplier <= pool.lastRewardBlock) {... */\n      tag_232\n      jumpi\n        /* \"TEXOOrchestrator.sol\":10137:10144  return; */\n      pop\n      pop\n      jump(tag_227)\n        /* \"TEXOOrchestrator.sol\":10067:10154  if (blockToCalculateMultiplier <= pool.lastRewardBlock) {... */\n    tag_232:\n        /* \"TEXOOrchestrator.sol\":10164:10180  uint256 lpSupply */\n      0x00\n        /* \"TEXOOrchestrator.sol\":10183:10187  pool */\n      dup3\n        /* \"TEXOOrchestrator.sol\":10183:10195  pool.lpToken */\n      0x00\n      add\n      0x00\n      swap1\n      sload\n      swap1\n      0x0100\n      exp\n      swap1\n      div\n      0xffffffffffffffffffffffffffffffffffffffff\n      and\n        /* \"TEXOOrchestrator.sol\":10183:10205  pool.lpToken.balanceOf */\n      0xffffffffffffffffffffffffffffffffffffffff\n      and\n      0x70a08231\n        /* \"TEXOOrchestrator.sol\":10214:10218  this */\n      address\n        /* \"TEXOOrchestrator.sol\":10183:10220  pool.lpToken.balanceOf(address(this)) */\n      mload(0x40)\n      dup3\n      0xffffffff\n      and\n      0xe0\n      shl\n      dup2\n      mstore\n      0x04\n      add\n      dup1\n      dup3\n      0xffffffffffffffffffffffffffffffffffffffff\n      and\n      dup2\n      mstore\n      0x20\n      add\n      swap2\n      pop\n      pop\n      0x20\n      mload(0x40)\n      dup1\n      dup4\n      sub\n      dup2\n      dup7\n      dup1\n      extcodesize\n      iszero\n      dup1\n      iszero\n      tag_233\n      jumpi\n      0x00\n      dup1\n      revert\n    tag_233:\n      pop\n      gas\n      staticcall\n      iszero\n      dup1\n      iszero\n      tag_235\n      jumpi\n      returndatasize\n      0x00\n      dup1\n      returndatacopy\n      revert(0x00, returndatasize)\n    tag_235:\n      pop\n      pop\n      pop\n      pop\n      mload(0x40)\n      returndatasize\n      0x20\n      dup2\n      lt\n      iszero\n      tag_236\n      jumpi\n      0x00\n      dup1\n      revert\n    tag_236:\n      dup2\n      add\n      swap1\n      dup1\n      dup1\n      mload\n      swap1\n      0x20\n      add\n      swap1\n      swap3\n      swap2\n      swap1\n      pop\n      pop\n      pop\n        /* \"TEXOOrchestrator.sol\":10164:10220  uint256 lpSupply = pool.lpToken.balanceOf(address(this)) */\n      swap1\n      pop\n        /* \"TEXOOrchestrator.sol\":10335:10336  0 */\n      0x00\n        /* \"TEXOOrchestrator.sol\":10323:10331  lpSupply */\n      dup2\n        /* \"TEXOOrchestrator.sol\":10323:10336  lpSupply == 0 */\n      eq\n        /* \"TEXOOrchestrator.sol\":10323:10360  lpSupply == 0 || pool.allocPoint == 0 */\n      dup1\n      tag_237\n      jumpi\n      pop\n        /* \"TEXOOrchestrator.sol\":10359:10360  0 */\n      0x00\n        /* \"TEXOOrchestrator.sol\":10340:10344  pool */\n      dup4\n        /* \"TEXOOrchestrator.sol\":10340:10355  pool.allocPoint */\n      0x01\n      add\n      sload\n        /* \"TEXOOrchestrator.sol\":10340:10360  pool.allocPoint == 0 */\n      eq\n        /* \"TEXOOrchestrator.sol\":10323:10360  lpSupply == 0 || pool.allocPoint == 0 */\n    tag_237:\n        /* \"TEXOOrchestrator.sol\":10319:10538  if (lpSupply == 0 || pool.allocPoint == 0) { // If pool initially has no staked WETH token, or pool has no allocation points.... */\n      iszero\n      tag_238\n      jumpi\n        /* \"TEXOOrchestrator.sol\":10480:10506  blockToCalculateMultiplier */\n      dup2\n        /* \"TEXOOrchestrator.sol\":10457:10461  pool */\n      dup4\n        /* \"TEXOOrchestrator.sol\":10457:10477  pool.lastRewardBlock */\n      0x04\n      add\n        /* \"TEXOOrchestrator.sol\":10457:10506  pool.lastRewardBlock = blockToCalculateMultiplier */\n      dup2\n      swap1\n      sstore\n      pop\n        /* \"TEXOOrchestrator.sol\":10521:10528  return; */\n      pop\n      pop\n      pop\n      jump(tag_227)\n        /* \"TEXOOrchestrator.sol\":10319:10538  if (lpSupply == 0 || pool.allocPoint == 0) { // If pool initially has no staked WETH token, or pool has no allocation points.... */\n    tag_238:\n        /* \"TEXOOrchestrator.sol\":10548:10566  uint256 multiplier */\n      0x00\n        /* \"TEXOOrchestrator.sol\":10569:10632  getMultiplier(pool.lastRewardBlock, blockToCalculateMultiplier) */\n      tag_239\n        /* \"TEXOOrchestrator.sol\":10583:10587  pool */\n      dup5\n        /* \"TEXOOrchestrator.sol\":10583:10603  pool.lastRewardBlock */\n      0x04\n      add\n      sload\n        /* \"TEXOOrchestrator.sol\":10605:10631  blockToCalculateMultiplier */\n      dup5\n        /* \"TEXOOrchestrator.sol\":10569:10582  getMultiplier */\n      tag_117\n        /* \"TEXOOrchestrator.sol\":10569:10632  getMultiplier(pool.lastRewardBlock, blockToCalculateMultiplier) */\n      jump\t// in\n    tag_239:\n        /* \"TEXOOrchestrator.sol\":10548:10632  uint256 multiplier = getMultiplier(pool.lastRewardBlock, blockToCalculateMultiplier) */\n      swap1\n      pop\n        /* \"TEXOOrchestrator.sol\":10703:10721  uint256 tEXOReward */\n      0x00\n        /* \"TEXOOrchestrator.sol\":10724:10833  multiplier... */\n      tag_240\n        /* \"TEXOOrchestrator.sol\":10817:10832  totalAllocPoint */\n      sload(0x09)\n        /* \"TEXOOrchestrator.sol\":10724:10799  multiplier... */\n      tag_241\n        /* \"TEXOOrchestrator.sol\":10783:10787  pool */\n      dup8\n        /* \"TEXOOrchestrator.sol\":10783:10798  pool.allocPoint */\n      0x01\n      add\n      sload\n        /* \"TEXOOrchestrator.sol\":10724:10765  multiplier... */\n      tag_242\n        /* \"TEXOOrchestrator.sol\":10752:10764  tEXOPerBlock */\n      sload(0x04)\n        /* \"TEXOOrchestrator.sol\":10724:10734  multiplier */\n      dup8\n        /* \"TEXOOrchestrator.sol\":10724:10751  multiplier... */\n      tag_225\n      swap1\n        /* \"TEXOOrchestrator.sol\":10724:10765  multiplier... */\n      swap2\n      swap1\n      0xffffffff\n      and\n      jump\t// in\n    tag_242:\n        /* \"TEXOOrchestrator.sol\":10724:10782  multiplier... */\n      tag_225\n      swap1\n        /* \"TEXOOrchestrator.sol\":10724:10799  multiplier... */\n      swap2\n      swap1\n      0xffffffff\n      and\n      jump\t// in\n    tag_241:\n        /* \"TEXOOrchestrator.sol\":10724:10816  multiplier... */\n      tag_226\n      swap1\n        /* \"TEXOOrchestrator.sol\":10724:10833  multiplier... */\n      swap2\n      swap1\n      0xffffffff\n      and\n      jump\t// in\n    tag_240:\n        /* \"TEXOOrchestrator.sol\":10703:10833  uint256 tEXOReward = multiplier... */\n      swap1\n      pop\n        /* \"TEXOOrchestrator.sol\":10844:10848  tEXO */\n      0x02\n      0x00\n      swap1\n      sload\n      swap1\n      0x0100\n      exp\n      swap1\n      div\n      0xffffffffffffffffffffffffffffffffffffffff\n      and\n        /* \"TEXOOrchestrator.sol\":10844:10853  tEXO.mint */\n      0xffffffffffffffffffffffffffffffffffffffff\n      and\n      0x40c10f19\n        /* \"TEXOOrchestrator.sol\":10854:10861  devAddr */\n      0x03\n      0x00\n      swap1\n      sload\n      swap1\n      0x0100\n      exp\n      swap1\n      div\n      0xffffffffffffffffffffffffffffffffffffffff\n      and\n        /* \"TEXOOrchestrator.sol\":10863:10881  tEXOReward.div(10) */\n      tag_243\n        /* \"TEXOOrchestrator.sol\":10878:10880  10 */\n      0x0a\n        /* \"TEXOOrchestrator.sol\":10863:10873  tEXOReward */\n      dup6\n        /* \"TEXOOrchestrator.sol\":10863:10877  tEXOReward.div */\n      tag_226\n      swap1\n        /* \"TEXOOrchestrator.sol\":10863:10881  tEXOReward.div(10) */\n      swap2\n      swap1\n      0xffffffff\n      and\n      jump\t// in\n    tag_243:\n        /* \"TEXOOrchestrator.sol\":10844:10882  tEXO.mint(devAddr, tEXOReward.div(10)) */\n      mload(0x40)\n      dup4\n      0xffffffff\n      and\n      0xe0\n      shl\n      dup2\n      mstore\n      0x04\n      add\n      dup1\n      dup4\n      0xffffffffffffffffffffffffffffffffffffffff\n      and\n      dup2\n      mstore\n      0x20\n      add\n      dup3\n      dup2\n      mstore\n      0x20\n      add\n      swap3\n      pop\n      pop\n      pop\n      0x00\n      mload(0x40)\n      dup1\n      dup4\n      sub\n      dup2\n      0x00\n      dup8\n      dup1\n      extcodesize\n      iszero\n      dup1\n      iszero\n      tag_244\n      jumpi\n      0x00\n      dup1\n      revert\n    tag_244:\n      pop\n      gas\n      call\n      iszero\n      dup1\n      iszero\n      tag_246\n      jumpi\n      returndatasize\n      0x00\n      dup1\n      returndatacopy\n      revert(0x00, returndatasize)\n    tag_246:\n      pop\n      pop\n      pop\n      pop\n        /* \"TEXOOrchestrator.sol\":10953:10957  tEXO */\n      0x02\n      0x00\n      swap1\n      sload\n      swap1\n      0x0100\n      exp\n      swap1\n      div\n      0xffffffffffffffffffffffffffffffffffffffff\n      and\n        /* \"TEXOOrchestrator.sol\":10953:10962  tEXO.mint */\n      0xffffffffffffffffffffffffffffffffffffffff\n      and\n      0x40c10f19\n        /* \"TEXOOrchestrator.sol\":10971:10975  this */\n      address\n        /* \"TEXOOrchestrator.sol\":10978:10988  tEXOReward */\n      dup4\n        /* \"TEXOOrchestrator.sol\":10953:10989  tEXO.mint(address(this), tEXOReward) */\n      mload(0x40)\n      dup4\n      0xffffffff\n      and\n      0xe0\n      shl\n      dup2\n      mstore\n      0x04\n      add\n      dup1\n      dup4\n      0xffffffffffffffffffffffffffffffffffffffff\n      and\n      dup2\n      mstore\n      0x20\n      add\n      dup3\n      dup2\n      mstore\n      0x20\n      add\n      swap3\n      pop\n      pop\n      pop\n      0x00\n      mload(0x40)\n      dup1\n      dup4\n      sub\n      dup2\n      0x00\n      dup8\n      dup1\n      extcodesize\n      iszero\n      dup1\n      iszero\n      tag_247\n      jumpi\n      0x00\n      dup1\n      revert\n    tag_247:\n      pop\n      gas\n      call\n      iszero\n      dup1\n      iszero\n      tag_249\n      jumpi\n      returndatasize\n      0x00\n      dup1\n      returndatacopy\n      revert(0x00, returndatasize)\n    tag_249:\n      pop\n      pop\n      pop\n      pop\n        /* \"TEXOOrchestrator.sol\":11069:11206  pool.accTEXOPerShare... */\n      tag_250\n        /* \"TEXOOrchestrator.sol\":11124:11192  tEXOReward... */\n      tag_251\n        /* \"TEXOOrchestrator.sol\":11183:11191  lpSupply */\n      dup5\n        /* \"TEXOOrchestrator.sol\":11124:11161  tEXOReward... */\n      tag_252\n        /* \"TEXOOrchestrator.sol\":11156:11160  1e12 */\n      0xe8d4a51000\n        /* \"TEXOOrchestrator.sol\":11124:11134  tEXOReward */\n      dup6\n        /* \"TEXOOrchestrator.sol\":11124:11155  tEXOReward... */\n      tag_225\n      swap1\n        /* \"TEXOOrchestrator.sol\":11124:11161  tEXOReward... */\n      swap2\n      swap1\n      0xffffffff\n      and\n      jump\t// in\n    tag_252:\n        /* \"TEXOOrchestrator.sol\":11124:11182  tEXOReward... */\n      tag_226\n      swap1\n        /* \"TEXOOrchestrator.sol\":11124:11192  tEXOReward... */\n      swap2\n      swap1\n      0xffffffff\n      and\n      jump\t// in\n    tag_251:\n        /* \"TEXOOrchestrator.sol\":11069:11073  pool */\n      dup7\n        /* \"TEXOOrchestrator.sol\":11069:11089  pool.accTEXOPerShare */\n      0x05\n      add\n      sload\n        /* \"TEXOOrchestrator.sol\":11069:11106  pool.accTEXOPerShare... */\n      tag_173\n      swap1\n        /* \"TEXOOrchestrator.sol\":11069:11206  pool.accTEXOPerShare... */\n      swap2\n      swap1\n      0xffffffff\n      and\n      jump\t// in\n    tag_250:\n        /* \"TEXOOrchestrator.sol\":11046:11050  pool */\n      dup6\n        /* \"TEXOOrchestrator.sol\":11046:11066  pool.accTEXOPerShare */\n      0x05\n      add\n        /* \"TEXOOrchestrator.sol\":11046:11206  pool.accTEXOPerShare = pool.accTEXOPerShare... */\n      dup2\n      swap1\n      sstore\n      pop\n        /* \"TEXOOrchestrator.sol\":11240:11266  blockToCalculateMultiplier */\n      dup4\n        /* \"TEXOOrchestrator.sol\":11217:11221  pool */\n      dup6\n        /* \"TEXOOrchestrator.sol\":11217:11237  pool.lastRewardBlock */\n      0x04\n      add\n        /* \"TEXOOrchestrator.sol\":11217:11266  pool.lastRewardBlock = blockToCalculateMultiplier */\n      dup2\n      swap1\n      sstore\n      pop\n        /* \"TEXOOrchestrator.sol\":9875:11273  function updatePool(uint256 _pid) public {... */\n      pop\n      pop\n      pop\n      pop\n      pop\n    tag_227:\n      pop\n      jump\t// out\n        /* \"TEXOOrchestrator.sol\":14476:14840  function emergencyWithdraw(uint256 _pid) public nonReentrant {... */\n    tag_92:\n        /* \"ReentrancyGuard.sol\":1680:1681  2 */\n      0x02\n        /* \"ReentrancyGuard.sol\":2269:2276  _status */\n      sload(0x01)\n        /* \"ReentrancyGuard.sol\":2269:2288  _status != _ENTERED */\n      eq\n      iszero\n        /* \"ReentrancyGuard.sol\":2261:2324  require(_status != _ENTERED, \"ReentrancyGuard: reentrant call\") */\n      tag_254\n      jumpi\n      mload(0x40)\n      0x08c379a000000000000000000000000000000000000000000000000000000000\n      dup2\n      mstore\n      0x04\n      add\n      dup1\n      dup1\n      0x20\n      add\n      dup3\n      dup2\n      sub\n      dup3\n      mstore\n      0x1f\n      dup2\n      mstore\n      0x20\n      add\n      dup1\n      0x5265656e7472616e637947756172643a207265656e7472616e742063616c6c00\n      dup2\n      mstore\n      pop\n      0x20\n      add\n      swap2\n      pop\n      pop\n      mload(0x40)\n      dup1\n      swap2\n      sub\n      swap1\n      revert\n    tag_254:\n        /* \"ReentrancyGuard.sol\":1680:1681  2 */\n      0x02\n        /* \"ReentrancyGuard.sol\":2399:2406  _status */\n      0x01\n        /* \"ReentrancyGuard.sol\":2399:2417  _status = _ENTERED */\n      dup2\n      swap1\n      sstore\n      pop\n        /* \"TEXOOrchestrator.sol\":14547:14568  PoolInfo storage pool */\n      0x00\n        /* \"TEXOOrchestrator.sol\":14571:14579  poolInfo */\n      0x07\n        /* \"TEXOOrchestrator.sol\":14580:14584  _pid */\n      dup3\n        /* \"TEXOOrchestrator.sol\":14571:14585  poolInfo[_pid] */\n      dup2\n      sload\n      dup2\n      lt\n      tag_256\n      jumpi\n      invalid\n    tag_256:\n      swap1\n      0x00\n      mstore\n      keccak256(0x00, 0x20)\n      swap1\n      0x07\n      mul\n      add\n        /* \"TEXOOrchestrator.sol\":14547:14585  PoolInfo storage pool = poolInfo[_pid] */\n      swap1\n      pop\n        /* \"TEXOOrchestrator.sol\":14595:14616  UserInfo storage user */\n      0x00\n        /* \"TEXOOrchestrator.sol\":14619:14627  userInfo */\n      0x08\n        /* \"TEXOOrchestrator.sol\":14619:14633  userInfo[_pid] */\n      0x00\n        /* \"TEXOOrchestrator.sol\":14628:14632  _pid */\n      dup5\n        /* \"TEXOOrchestrator.sol\":14619:14633  userInfo[_pid] */\n      dup2\n      mstore\n      0x20\n      add\n      swap1\n      dup2\n      mstore\n      0x20\n      add\n      0x00\n      keccak256\n        /* \"TEXOOrchestrator.sol\":14619:14645  userInfo[_pid][msg.sender] */\n      0x00\n        /* \"TEXOOrchestrator.sol\":14634:14644  msg.sender */\n      caller\n        /* \"TEXOOrchestrator.sol\":14619:14645  userInfo[_pid][msg.sender] */\n      0xffffffffffffffffffffffffffffffffffffffff\n      and\n      0xffffffffffffffffffffffffffffffffffffffff\n      and\n      dup2\n      mstore\n      0x20\n      add\n      swap1\n      dup2\n      mstore\n      0x20\n      add\n      0x00\n      keccak256\n        /* \"TEXOOrchestrator.sol\":14595:14645  UserInfo storage user = userInfo[_pid][msg.sender] */\n      swap1\n      pop\n        /* \"TEXOOrchestrator.sol\":14655:14714  pool.lpToken.safeTransfer(address(msg.sender), user.amount) */\n      tag_258\n        /* \"TEXOOrchestrator.sol\":14689:14699  msg.sender */\n      caller\n        /* \"TEXOOrchestrator.sol\":14702:14706  user */\n      dup3\n        /* \"TEXOOrchestrator.sol\":14702:14713  user.amount */\n      0x00\n      add\n      sload\n        /* \"TEXOOrchestrator.sol\":14655:14659  pool */\n      dup5\n        /* \"TEXOOrchestrator.sol\":14655:14667  pool.lpToken */\n      0x00\n      add\n      0x00\n      swap1\n      sload\n      swap1\n      0x0100\n      exp\n      swap1\n      div\n      0xffffffffffffffffffffffffffffffffffffffff\n      and\n        /* \"TEXOOrchestrator.sol\":14655:14680  pool.lpToken.safeTransfer */\n      0xffffffffffffffffffffffffffffffffffffffff\n      and\n      tag_222\n      swap1\n        /* \"TEXOOrchestrator.sol\":14655:14714  pool.lpToken.safeTransfer(address(msg.sender), user.amount) */\n      swap3\n      swap2\n      swap1\n      0xffffffff\n      and\n      jump\t// in\n    tag_258:\n        /* \"TEXOOrchestrator.sol\":14760:14764  _pid */\n      dup3\n        /* \"TEXOOrchestrator.sol\":14748:14758  msg.sender */\n      caller\n        /* \"TEXOOrchestrator.sol\":14730:14778  EmergencyWithdraw(msg.sender, _pid, user.amount) */\n      0xffffffffffffffffffffffffffffffffffffffff\n      and\n      0xbb757047c2b5f3974fe26b7c10f732e7bce710b0952a71082702781e62ae0595\n        /* \"TEXOOrchestrator.sol\":14766:14770  user */\n      dup4\n        /* \"TEXOOrchestrator.sol\":14766:14777  user.amount */\n      0x00\n      add\n      sload\n        /* \"TEXOOrchestrator.sol\":14730:14778  EmergencyWithdraw(msg.sender, _pid, user.amount) */\n      mload(0x40)\n      dup1\n      dup3\n      dup2\n      mstore\n      0x20\n      add\n      swap2\n      pop\n      pop\n      mload(0x40)\n      dup1\n      swap2\n      sub\n      swap1\n      log3\n        /* \"TEXOOrchestrator.sol\":14803:14804  0 */\n      0x00\n        /* \"TEXOOrchestrator.sol\":14789:14793  user */\n      dup2\n        /* \"TEXOOrchestrator.sol\":14789:14800  user.amount */\n      0x00\n      add\n        /* \"TEXOOrchestrator.sol\":14789:14804  user.amount = 0 */\n      dup2\n      swap1\n      sstore\n      pop\n        /* \"TEXOOrchestrator.sol\":14832:14833  0 */\n      0x00\n        /* \"TEXOOrchestrator.sol\":14814:14818  user */\n      dup2\n        /* \"TEXOOrchestrator.sol\":14814:14829  user.rewardDebt */\n      0x01\n      add\n        /* \"TEXOOrchestrator.sol\":14814:14833  user.rewardDebt = 0 */\n      dup2\n      swap1\n      sstore\n      pop\n        /* \"ReentrancyGuard.sol\":2428:2429  _ */\n      pop\n      pop\n        /* \"ReentrancyGuard.sol\":1637:1638  1 */\n      0x01\n        /* \"ReentrancyGuard.sol\":2572:2579  _status */\n      dup1\n        /* \"ReentrancyGuard.sol\":2572:2594  _status = _NOT_ENTERED */\n      dup2\n      swap1\n      sstore\n      pop\n        /* \"TEXOOrchestrator.sol\":14476:14840  function emergencyWithdraw(uint256 _pid) public nonReentrant {... */\n      pop\n      jump\t// out\n        /* \"TEXOOrchestrator.sol\":2212:2259  uint256 public blockToStartReducingEmissionRate */\n    tag_94:\n      sload(0x06)\n      dup2\n      jump\t// out\n        /* \"TEXOOrchestrator.sol\":3383:3441  uint256 public constant MINIMUM_EMISSION_RATE = 100 finney */\n    tag_96:\n        /* \"TEXOOrchestrator.sol\":3431:3441  100 finney */\n      0x016345785d8a0000\n        /* \"TEXOOrchestrator.sol\":3383:3441  uint256 public constant MINIMUM_EMISSION_RATE = 100 finney */\n      dup2\n      jump\t// out\n        /* \"TEXOOrchestrator.sol\":9627:9802  function massUpdatePools() public {... */\n    tag_98:\n        /* \"TEXOOrchestrator.sol\":9671:9685  uint256 length */\n      0x00\n        /* \"TEXOOrchestrator.sol\":9688:9696  poolInfo */\n      0x07\n        /* \"TEXOOrchestrator.sol\":9688:9703  poolInfo.length */\n      dup1\n      sload\n      swap1\n      pop\n        /* \"TEXOOrchestrator.sol\":9671:9703  uint256 length = poolInfo.length */\n      swap1\n      pop\n        /* \"TEXOOrchestrator.sol\":9718:9729  uint256 pid */\n      0x00\n        /* \"TEXOOrchestrator.sol\":9713:9796  for (uint256 pid = 0; pid < length; ++pid) {... */\n    tag_260:\n        /* \"TEXOOrchestrator.sol\":9741:9747  length */\n      dup2\n        /* \"TEXOOrchestrator.sol\":9735:9738  pid */\n      dup2\n        /* \"TEXOOrchestrator.sol\":9735:9747  pid < length */\n      lt\n        /* \"TEXOOrchestrator.sol\":9713:9796  for (uint256 pid = 0; pid < length; ++pid) {... */\n      iszero\n      tag_261\n      jumpi\n        /* \"TEXOOrchestrator.sol\":9770:9785  updatePool(pid) */\n      tag_263\n        /* \"TEXOOrchestrator.sol\":9781:9784  pid */\n      dup2\n        /* \"TEXOOrchestrator.sol\":9770:9780  updatePool */\n      tag_89\n        /* \"TEXOOrchestrator.sol\":9770:9785  updatePool(pid) */\n      jump\t// in\n    tag_263:\n        /* \"TEXOOrchestrator.sol\":9749:9754  ++pid */\n      dup1\n      0x01\n      add\n      swap1\n      pop\n        /* \"TEXOOrchestrator.sol\":9713:9796  for (uint256 pid = 0; pid < length; ++pid) {... */\n      jump(tag_260)\n    tag_261:\n      pop\n        /* \"TEXOOrchestrator.sol\":9627:9802  function massUpdatePools() public {... */\n      pop\n      jump\t// out\n        /* \"TEXOOrchestrator.sol\":19389:19836  function updateReferralBonusBp(uint256 _newRefBonusBp) public onlyOwner {... */\n    tag_101:\n        /* \"Ownable.sol\":1289:1301  _msgSender() */\n      tag_265\n        /* \"Ownable.sol\":1289:1299  _msgSender */\n      tag_161\n        /* \"Ownable.sol\":1289:1301  _msgSender() */\n      jump\t// in\n    tag_265:\n        /* \"Ownable.sol\":1279:1301  _owner == _msgSender() */\n      0xffffffffffffffffffffffffffffffffffffffff\n      and\n        /* \"Ownable.sol\":1279:1285  _owner */\n      0x00\n      dup1\n      sload\n      swap1\n      0x0100\n      exp\n      swap1\n      div\n      0xffffffffffffffffffffffffffffffffffffffff\n      and\n        /* \"Ownable.sol\":1279:1301  _owner == _msgSender() */\n      0xffffffffffffffffffffffffffffffffffffffff\n      and\n      eq\n        /* \"Ownable.sol\":1271:1338  require(_owner == _msgSender(), 'Ownable: caller is not the owner') */\n      tag_266\n      jumpi\n      mload(0x40)\n      0x08c379a000000000000000000000000000000000000000000000000000000000\n      dup2\n      mstore\n      0x04\n      add\n      dup1\n      dup1\n      0x20\n      add\n      dup3\n      dup2\n      sub\n      dup3\n      mstore\n      0x20\n      dup2\n      mstore\n      0x20\n      add\n      dup1\n      0x4f776e61626c653a2063616c6c6572206973206e6f7420746865206f776e6572\n      dup2\n      mstore\n      pop\n      0x20\n      add\n      swap2\n      pop\n      pop\n      mload(0x40)\n      dup1\n      swap2\n      sub\n      swap1\n      revert\n    tag_266:\n        /* \"TEXOOrchestrator.sol\":2837:2841  2000 */\n      0x07d0\n        /* \"TEXOOrchestrator.sol\":19479:19516  _newRefBonusBp <= MAXIMUM_REFERRAL_BP */\n      0xffff\n      and\n        /* \"TEXOOrchestrator.sol\":19479:19493  _newRefBonusBp */\n      dup2\n        /* \"TEXOOrchestrator.sol\":19479:19516  _newRefBonusBp <= MAXIMUM_REFERRAL_BP */\n      gt\n      iszero\n        /* \"TEXOOrchestrator.sol\":19471:19579  require(_newRefBonusBp <= MAXIMUM_REFERRAL_BP, \"updateRefBonusPercent: invalid referral bonus basis points\") */\n      tag_268\n      jumpi\n      mload(0x40)\n      0x08c379a000000000000000000000000000000000000000000000000000000000\n      dup2\n      mstore\n      0x04\n      add\n      dup1\n      dup1\n      0x20\n      add\n      dup3\n      dup2\n      sub\n      dup3\n      mstore\n      0x3a\n      dup2\n      mstore\n      0x20\n      add\n      dup1\n      data_20a6bce988e8b6ff5852ac398e27735d1d8155a9d79e532ec3c3da13f504a6a4\n      0x3a\n      swap2\n      codecopy\n      0x40\n      add\n      swap2\n      pop\n      pop\n      mload(0x40)\n      dup1\n      swap2\n      sub\n      swap1\n      revert\n    tag_268:\n        /* \"TEXOOrchestrator.sol\":19615:19625  refBonusBP */\n      sload(0x0a)\n        /* \"TEXOOrchestrator.sol\":19597:19611  _newRefBonusBp */\n      dup2\n        /* \"TEXOOrchestrator.sol\":19597:19625  _newRefBonusBp != refBonusBP */\n      eq\n      iszero\n        /* \"TEXOOrchestrator.sol\":19589:19670  require(_newRefBonusBp != refBonusBP, \"updateRefBonusPercent: same bonus bp set\") */\n      tag_269\n      jumpi\n      mload(0x40)\n      0x08c379a000000000000000000000000000000000000000000000000000000000\n      dup2\n      mstore\n      0x04\n      add\n      dup1\n      dup1\n      0x20\n      add\n      dup3\n      dup2\n      sub\n      dup3\n      mstore\n      0x28\n      dup2\n      mstore\n      0x20\n      add\n      dup1\n      data_9d1a761c817eae8410d2081a433553cad78dcf01ebb754f58addc464260ba484\n      0x28\n      swap2\n      codecopy\n      0x40\n      add\n      swap2\n      pop\n      pop\n      mload(0x40)\n      dup1\n      swap2\n      sub\n      swap1\n      revert\n    tag_269:\n        /* \"TEXOOrchestrator.sol\":19680:19706  uint256 previousRefBonusBP */\n      0x00\n        /* \"TEXOOrchestrator.sol\":19709:19719  refBonusBP */\n      sload(0x0a)\n        /* \"TEXOOrchestrator.sol\":19680:19719  uint256 previousRefBonusBP = refBonusBP */\n      swap1\n      pop\n        /* \"TEXOOrchestrator.sol\":19742:19756  _newRefBonusBp */\n      dup2\n        /* \"TEXOOrchestrator.sol\":19729:19739  refBonusBP */\n      0x0a\n        /* \"TEXOOrchestrator.sol\":19729:19756  refBonusBP = _newRefBonusBp */\n      dup2\n      swap1\n      sstore\n      pop\n        /* \"TEXOOrchestrator.sol\":19771:19829  ReferralBonusBpChanged(previousRefBonusBP, _newRefBonusBp) */\n      0x3282b692bfebf5f35b198a229212cf532c72099026ab54c4b8665382d1086b3f\n        /* \"TEXOOrchestrator.sol\":19794:19812  previousRefBonusBP */\n      dup2\n        /* \"TEXOOrchestrator.sol\":19814:19828  _newRefBonusBp */\n      dup4\n        /* \"TEXOOrchestrator.sol\":19771:19829  ReferralBonusBpChanged(previousRefBonusBP, _newRefBonusBp) */\n      mload(0x40)\n      dup1\n      dup4\n      dup2\n      mstore\n      0x20\n      add\n      dup3\n      dup2\n      mstore\n      0x20\n      add\n      swap3\n      pop\n      pop\n      pop\n      mload(0x40)\n      dup1\n      swap2\n      sub\n      swap1\n      log1\n        /* \"Ownable.sol\":1348:1349  _ */\n      pop\n        /* \"TEXOOrchestrator.sol\":19389:19836  function updateReferralBonusBp(uint256 _newRefBonusBp) public onlyOwner {... */\n      pop\n      jump\t// out\n        /* \"TEXOOrchestrator.sol\":2067:2094  uint256 public tEXOPerBlock */\n    tag_103:\n      sload(0x04)\n      dup2\n      jump\t// out\n        /* \"TEXOOrchestrator.sol\":2628:2659  uint256 public refBonusBP = 200 */\n    tag_105:\n      sload(0x0a)\n      dup2\n      jump\t// out\n        /* \"TEXOOrchestrator.sol\":3743:3786  uint256 public lastReductionPeriodIndex = 0 */\n    tag_107:\n      sload(0x0f)\n      dup2\n      jump\t// out\n        /* \"Ownable.sol\":1698:1835  function renounceOwnership() public onlyOwner {... */\n    tag_109:\n        /* \"Ownable.sol\":1289:1301  _msgSender() */\n      tag_271\n        /* \"Ownable.sol\":1289:1299  _msgSender */\n      tag_161\n        /* \"Ownable.sol\":1289:1301  _msgSender() */\n      jump\t// in\n    tag_271:\n        /* \"Ownable.sol\":1279:1301  _owner == _msgSender() */\n      0xffffffffffffffffffffffffffffffffffffffff\n      and\n        /* \"Ownable.sol\":1279:1285  _owner */\n      0x00\n      dup1\n      sload\n      swap1\n      0x0100\n      exp\n      swap1\n      div\n      0xffffffffffffffffffffffffffffffffffffffff\n      and\n        /* \"Ownable.sol\":1279:1301  _owner == _msgSender() */\n      0xffffffffffffffffffffffffffffffffffffffff\n      and\n      eq\n        /* \"Ownable.sol\":1271:1338  require(_owner == _msgSender(), 'Ownable: caller is not the owner') */\n      tag_272\n      jumpi\n      mload(0x40)\n      0x08c379a000000000000000000000000000000000000000000000000000000000\n      dup2\n      mstore\n      0x04\n      add\n      dup1\n      dup1\n      0x20\n      add\n      dup3\n      dup2\n      sub\n      dup3\n      mstore\n      0x20\n      dup2\n      mstore\n      0x20\n      add\n      dup1\n      0x4f776e61626c653a2063616c6c6572206973206e6f7420746865206f776e6572\n      dup2\n      mstore\n      pop\n      0x20\n      add\n      swap2\n      pop\n      pop\n      mload(0x40)\n      dup1\n      swap2\n      sub\n      swap1\n      revert\n    tag_272:\n        /* \"Ownable.sol\":1796:1797  0 */\n      0x00\n        /* \"Ownable.sol\":1759:1799  OwnershipTransferred(_owner, address(0)) */\n      0xffffffffffffffffffffffffffffffffffffffff\n      and\n        /* \"Ownable.sol\":1780:1786  _owner */\n      0x00\n      dup1\n      sload\n      swap1\n      0x0100\n      exp\n      swap1\n      div\n      0xffffffffffffffffffffffffffffffffffffffff\n      and\n        /* \"Ownable.sol\":1759:1799  OwnershipTransferred(_owner, address(0)) */\n      0xffffffffffffffffffffffffffffffffffffffff\n      and\n      0x8be0079c531659141344cd1fd0a4f28419497f9722a3daafe3b4186f6b6457e0\n      mload(0x40)\n      mload(0x40)\n      dup1\n      swap2\n      sub\n      swap1\n      log3\n        /* \"Ownable.sol\":1826:1827  0 */\n      0x00\n        /* \"Ownable.sol\":1809:1815  _owner */\n      dup1\n      0x00\n        /* \"Ownable.sol\":1809:1828  _owner = address(0) */\n      0x0100\n      exp\n      dup2\n      sload\n      dup2\n      0xffffffffffffffffffffffffffffffffffffffff\n      mul\n      not\n      and\n      swap1\n      dup4\n      0xffffffffffffffffffffffffffffffffffffffff\n      and\n      mul\n      or\n      swap1\n      sstore\n      pop\n        /* \"Ownable.sol\":1698:1835  function renounceOwnership() public onlyOwner {... */\n      jump\t// out\n        /* \"TEXOOrchestrator.sol\":15737:16033  function setFeeAddress(address _feeAddress) public {... */\n    tag_112:\n        /* \"TEXOOrchestrator.sol\":15829:15830  0 */\n      0x00\n        /* \"TEXOOrchestrator.sol\":15806:15831  _feeAddress != address(0) */\n      0xffffffffffffffffffffffffffffffffffffffff\n      and\n        /* \"TEXOOrchestrator.sol\":15806:15817  _feeAddress */\n      dup2\n        /* \"TEXOOrchestrator.sol\":15806:15831  _feeAddress != address(0) */\n      0xffffffffffffffffffffffffffffffffffffffff\n      and\n      eq\n      iszero\n        /* \"TEXOOrchestrator.sol\":15798:15866  require(_feeAddress != address(0), \"setFeeAddress: invalid address\") */\n      tag_275\n      jumpi\n      mload(0x40)\n      0x08c379a000000000000000000000000000000000000000000000000000000000\n      dup2\n      mstore\n      0x04\n      add\n      dup1\n      dup1\n      0x20\n      add\n      dup3\n      dup2\n      sub\n      dup3\n      mstore\n      0x1e\n      dup2\n      mstore\n      0x20\n      add\n      dup1\n      0x736574466565416464726573733a20696e76616c696420616464726573730000\n      dup2\n      mstore\n      pop\n      0x20\n      add\n      swap2\n      pop\n      pop\n      mload(0x40)\n      dup1\n      swap2\n      sub\n      swap1\n      revert\n    tag_275:\n        /* \"TEXOOrchestrator.sol\":15898:15908  feeAddress */\n      0x05\n      0x00\n      swap1\n      sload\n      swap1\n      0x0100\n      exp\n      swap1\n      div\n      0xffffffffffffffffffffffffffffffffffffffff\n      and\n        /* \"TEXOOrchestrator.sol\":15884:15908  msg.sender == feeAddress */\n      0xffffffffffffffffffffffffffffffffffffffff\n      and\n        /* \"TEXOOrchestrator.sol\":15884:15894  msg.sender */\n      caller\n        /* \"TEXOOrchestrator.sol\":15884:15908  msg.sender == feeAddress */\n      0xffffffffffffffffffffffffffffffffffffffff\n      and\n      eq\n        /* \"TEXOOrchestrator.sol\":15876:15937  require(msg.sender == feeAddress, \"setFeeAddress: FORBIDDEN\") */\n      tag_276\n      jumpi\n      mload(0x40)\n      0x08c379a000000000000000000000000000000000000000000000000000000000\n      dup2\n      mstore\n      0x04\n      add\n      dup1\n      dup1\n      0x20\n      add\n      dup3\n      dup2\n      sub\n      dup3\n      mstore\n      0x18\n      dup2\n      mstore\n      0x20\n      add\n      dup1\n      0x736574466565416464726573733a20464f5242494444454e0000000000000000\n      dup2\n      mstore\n      pop\n      0x20\n      add\n      swap2\n      pop\n      pop\n      mload(0x40)\n      dup1\n      swap2\n      sub\n      swap1\n      revert\n    tag_276:\n        /* \"TEXOOrchestrator.sol\":15961:15972  _feeAddress */\n      dup1\n        /* \"TEXOOrchestrator.sol\":15948:15958  feeAddress */\n      0x05\n      0x00\n        /* \"TEXOOrchestrator.sol\":15948:15972  feeAddress = _feeAddress */\n      0x0100\n      exp\n      dup2\n      sload\n      dup2\n      0xffffffffffffffffffffffffffffffffffffffff\n      mul\n      not\n      and\n      swap1\n      dup4\n      0xffffffffffffffffffffffffffffffffffffffff\n      and\n      mul\n      or\n      swap1\n      sstore\n      pop\n        /* \"TEXOOrchestrator.sol\":16014:16025  _feeAddress */\n      dup1\n        /* \"TEXOOrchestrator.sol\":15988:16026  SetFeeAddress(msg.sender, _feeAddress) */\n      0xffffffffffffffffffffffffffffffffffffffff\n      and\n        /* \"TEXOOrchestrator.sol\":16002:16012  msg.sender */\n      caller\n        /* \"TEXOOrchestrator.sol\":15988:16026  SetFeeAddress(msg.sender, _feeAddress) */\n      0xffffffffffffffffffffffffffffffffffffffff\n      and\n      0xd44190acf9d04bdb5d3a1aafff7e6dee8b40b93dfb8c5d3f0eea4b9f4539c3f7\n      mload(0x40)\n      mload(0x40)\n      dup1\n      swap2\n      sub\n      swap1\n      log3\n        /* \"TEXOOrchestrator.sol\":15737:16033  function setFeeAddress(address _feeAddress) public {... */\n      pop\n      jump\t// out\n        /* \"Ownable.sol\":1075:1152  function owner() public view returns (address) {... */\n    tag_114:\n        /* \"Ownable.sol\":1113:1120  address */\n      0x00\n        /* \"Ownable.sol\":1139:1145  _owner */\n      dup1\n      0x00\n      swap1\n      sload\n      swap1\n      0x0100\n      exp\n      swap1\n      div\n      0xffffffffffffffffffffffffffffffffffffffff\n      and\n        /* \"Ownable.sol\":1132:1145  return _owner */\n      swap1\n      pop\n        /* \"Ownable.sol\":1075:1152  function owner() public view returns (address) {... */\n      swap1\n      jump\t// out\n        /* \"TEXOOrchestrator.sol\":7915:8034  function getMultiplier(uint256 _from, uint256 _to) public pure returns (uint256) {... */\n    tag_117:\n        /* \"TEXOOrchestrator.sol\":7987:7994  uint256 */\n      0x00\n        /* \"TEXOOrchestrator.sol\":8013:8027  _to.sub(_from) */\n      tag_279\n        /* \"TEXOOrchestrator.sol\":8021:8026  _from */\n      dup4\n        /* \"TEXOOrchestrator.sol\":8013:8016  _to */\n      dup4\n        /* \"TEXOOrchestrator.sol\":8013:8020  _to.sub */\n      tag_172\n      swap1\n        /* \"TEXOOrchestrator.sol\":8013:8027  _to.sub(_from) */\n      swap2\n      swap1\n      0xffffffff\n      and\n      jump\t// in\n    tag_279:\n        /* \"TEXOOrchestrator.sol\":8006:8027  return _to.sub(_from) */\n      swap1\n      pop\n        /* \"TEXOOrchestrator.sol\":7915:8034  function getMultiplier(uint256 _from, uint256 _to) public pure returns (uint256) {... */\n      swap3\n      swap2\n      pop\n      pop\n      jump\t// out\n        /* \"TEXOOrchestrator.sol\":11538:12892  function deposit(uint256 _pid, uint256 _amount, address _referrer) public nonReentrant {... */\n    tag_120:\n        /* \"ReentrancyGuard.sol\":1680:1681  2 */\n      0x02\n        /* \"ReentrancyGuard.sol\":2269:2276  _status */\n      sload(0x01)\n        /* \"ReentrancyGuard.sol\":2269:2288  _status != _ENTERED */\n      eq\n      iszero\n        /* \"ReentrancyGuard.sol\":2261:2324  require(_status != _ENTERED, \"ReentrancyGuard: reentrant call\") */\n      tag_281\n      jumpi\n      mload(0x40)\n      0x08c379a000000000000000000000000000000000000000000000000000000000\n      dup2\n      mstore\n      0x04\n      add\n      dup1\n      dup1\n      0x20\n      add\n      dup3\n      dup2\n      sub\n      dup3\n      mstore\n      0x1f\n      dup2\n      mstore\n      0x20\n      add\n      dup1\n      0x5265656e7472616e637947756172643a207265656e7472616e742063616c6c00\n      dup2\n      mstore\n      pop\n      0x20\n      add\n      swap2\n      pop\n      pop\n      mload(0x40)\n      dup1\n      swap2\n      sub\n      swap1\n      revert\n    tag_281:\n        /* \"ReentrancyGuard.sol\":1680:1681  2 */\n      0x02\n        /* \"ReentrancyGuard.sol\":2399:2406  _status */\n      0x01\n        /* \"ReentrancyGuard.sol\":2399:2417  _status = _ENTERED */\n      dup2\n      swap1\n      sstore\n      pop\n        /* \"TEXOOrchestrator.sol\":11664:11673  _referrer */\n      dup1\n        /* \"TEXOOrchestrator.sol\":11643:11674  _referrer == address(_referrer) */\n      0xffffffffffffffffffffffffffffffffffffffff\n      and\n        /* \"TEXOOrchestrator.sol\":11643:11652  _referrer */\n      dup2\n        /* \"TEXOOrchestrator.sol\":11643:11674  _referrer == address(_referrer) */\n      0xffffffffffffffffffffffffffffffffffffffff\n      and\n      eq\n        /* \"TEXOOrchestrator.sol\":11635:11711  require(_referrer == address(_referrer),\"deposit: Invalid referrer address\") */\n      tag_283\n      jumpi\n      mload(0x40)\n      0x08c379a000000000000000000000000000000000000000000000000000000000\n      dup2\n      mstore\n      0x04\n      add\n      dup1\n      dup1\n      0x20\n      add\n      dup3\n      dup2\n      sub\n      dup3\n      mstore\n      0x21\n      dup2\n      mstore\n      0x20\n      add\n      dup1\n      data_542d191555ea619dedb1489efd71948659c57b11c6c1a84d1c1ce6e7c8074aad\n      0x21\n      swap2\n      codecopy\n      0x40\n      add\n      swap2\n      pop\n      pop\n      mload(0x40)\n      dup1\n      swap2\n      sub\n      swap1\n      revert\n    tag_283:\n        /* \"TEXOOrchestrator.sol\":11722:11743  PoolInfo storage pool */\n      0x00\n        /* \"TEXOOrchestrator.sol\":11746:11754  poolInfo */\n      0x07\n        /* \"TEXOOrchestrator.sol\":11755:11759  _pid */\n      dup5\n        /* \"TEXOOrchestrator.sol\":11746:11760  poolInfo[_pid] */\n      dup2\n      sload\n      dup2\n      lt\n      tag_284\n      jumpi\n      invalid\n    tag_284:\n      swap1\n      0x00\n      mstore\n      keccak256(0x00, 0x20)\n      swap1\n      0x07\n      mul\n      add\n        /* \"TEXOOrchestrator.sol\":11722:11760  PoolInfo storage pool = poolInfo[_pid] */\n      swap1\n      pop\n        /* \"TEXOOrchestrator.sol\":11795:11796  0 */\n      0x00\n        /* \"TEXOOrchestrator.sol\":11774:11778  pool */\n      dup2\n        /* \"TEXOOrchestrator.sol\":11774:11792  pool.inActiveBlock */\n      0x03\n      add\n      sload\n        /* \"TEXOOrchestrator.sol\":11774:11796  pool.inActiveBlock > 0 */\n      gt\n        /* \"TEXOOrchestrator.sol\":11770:11903  if (pool.inActiveBlock > 0) {... */\n      iszero\n      tag_286\n      jumpi\n        /* \"TEXOOrchestrator.sol\":11836:11840  pool */\n      dup1\n        /* \"TEXOOrchestrator.sol\":11836:11854  pool.inActiveBlock */\n      0x03\n      add\n      sload\n        /* \"TEXOOrchestrator.sol\":11820:11832  block.number */\n      number\n        /* \"TEXOOrchestrator.sol\":11820:11854  block.number <= pool.inActiveBlock */\n      gt\n      iszero\n        /* \"TEXOOrchestrator.sol\":11812:11892  require(block.number <= pool.inActiveBlock, \"deposit: staking period has ended\") */\n      tag_287\n      jumpi\n      mload(0x40)\n      0x08c379a000000000000000000000000000000000000000000000000000000000\n      dup2\n      mstore\n      0x04\n      add\n      dup1\n      dup1\n      0x20\n      add\n      dup3\n      dup2\n      sub\n      dup3\n      mstore\n      0x21\n      dup2\n      mstore\n      0x20\n      add\n      dup1\n      data_defd5c903b3416581b5d98f5a021e4c2963664705201c58ffb06423da9b1f891\n      0x21\n      swap2\n      codecopy\n      0x40\n      add\n      swap2\n      pop\n      pop\n      mload(0x40)\n      dup1\n      swap2\n      sub\n      swap1\n      revert\n    tag_287:\n        /* \"TEXOOrchestrator.sol\":11770:11903  if (pool.inActiveBlock > 0) {... */\n    tag_286:\n        /* \"TEXOOrchestrator.sol\":11913:11934  UserInfo storage user */\n      0x00\n        /* \"TEXOOrchestrator.sol\":11937:11945  userInfo */\n      0x08\n        /* \"TEXOOrchestrator.sol\":11937:11951  userInfo[_pid] */\n      0x00\n        /* \"TEXOOrchestrator.sol\":11946:11950  _pid */\n      dup7\n        /* \"TEXOOrchestrator.sol\":11937:11951  userInfo[_pid] */\n      dup2\n      mstore\n      0x20\n      add\n      swap1\n      dup2\n      mstore\n      0x20\n      add\n      0x00\n      keccak256\n        /* \"TEXOOrchestrator.sol\":11937:11963  userInfo[_pid][msg.sender] */\n      0x00\n        /* \"TEXOOrchestrator.sol\":11952:11962  msg.sender */\n      caller\n        /* \"TEXOOrchestrator.sol\":11937:11963  userInfo[_pid][msg.sender] */\n      0xffffffffffffffffffffffffffffffffffffffff\n      and\n      0xffffffffffffffffffffffffffffffffffffffff\n      and\n      dup2\n      mstore\n      0x20\n      add\n      swap1\n      dup2\n      mstore\n      0x20\n      add\n      0x00\n      keccak256\n        /* \"TEXOOrchestrator.sol\":11913:11963  UserInfo storage user = userInfo[_pid][msg.sender] */\n      swap1\n      pop\n        /* \"TEXOOrchestrator.sol\":11974:11990  updatePool(_pid) */\n      tag_288\n        /* \"TEXOOrchestrator.sol\":11985:11989  _pid */\n      dup6\n        /* \"TEXOOrchestrator.sol\":11974:11984  updatePool */\n      tag_89\n        /* \"TEXOOrchestrator.sol\":11974:11990  updatePool(_pid) */\n      jump\t// in\n    tag_288:\n        /* \"TEXOOrchestrator.sol\":12001:12029  payOrLockupPendingTEXO(_pid) */\n      tag_289\n        /* \"TEXOOrchestrator.sol\":12024:12028  _pid */\n      dup6\n        /* \"TEXOOrchestrator.sol\":12001:12023  payOrLockupPendingTEXO */\n      tag_218\n        /* \"TEXOOrchestrator.sol\":12001:12029  payOrLockupPendingTEXO(_pid) */\n      jump\t// in\n    tag_289:\n        /* \"TEXOOrchestrator.sol\":12054:12055  0 */\n      0x00\n        /* \"TEXOOrchestrator.sol\":12044:12051  _amount */\n      dup5\n        /* \"TEXOOrchestrator.sol\":12044:12055  _amount > 0 */\n      gt\n        /* \"TEXOOrchestrator.sol\":12044:12082  _amount > 0 && _referrer != address(0) */\n      dup1\n      iszero\n      tag_290\n      jumpi\n      pop\n        /* \"TEXOOrchestrator.sol\":12080:12081  0 */\n      0x00\n        /* \"TEXOOrchestrator.sol\":12059:12082  _referrer != address(0) */\n      0xffffffffffffffffffffffffffffffffffffffff\n      and\n        /* \"TEXOOrchestrator.sol\":12059:12068  _referrer */\n      dup4\n        /* \"TEXOOrchestrator.sol\":12059:12082  _referrer != address(0) */\n      0xffffffffffffffffffffffffffffffffffffffff\n      and\n      eq\n      iszero\n        /* \"TEXOOrchestrator.sol\":12044:12082  _amount > 0 && _referrer != address(0) */\n    tag_290:\n        /* \"TEXOOrchestrator.sol\":12044:12109  _amount > 0 && _referrer != address(0) && _referrer != msg.sender */\n      dup1\n      iszero\n      tag_291\n      jumpi\n      pop\n        /* \"TEXOOrchestrator.sol\":12099:12109  msg.sender */\n      caller\n        /* \"TEXOOrchestrator.sol\":12086:12109  _referrer != msg.sender */\n      0xffffffffffffffffffffffffffffffffffffffff\n      and\n        /* \"TEXOOrchestrator.sol\":12086:12095  _referrer */\n      dup4\n        /* \"TEXOOrchestrator.sol\":12086:12109  _referrer != msg.sender */\n      0xffffffffffffffffffffffffffffffffffffffff\n      and\n      eq\n      iszero\n        /* \"TEXOOrchestrator.sol\":12044:12109  _amount > 0 && _referrer != address(0) && _referrer != msg.sender */\n    tag_291:\n        /* \"TEXOOrchestrator.sol\":12040:12170  if (_amount > 0 && _referrer != address(0) && _referrer != msg.sender) {... */\n      iszero\n      tag_292\n      jumpi\n        /* \"TEXOOrchestrator.sol\":12125:12159  setReferral(msg.sender, _referrer) */\n      tag_293\n        /* \"TEXOOrchestrator.sol\":12137:12147  msg.sender */\n      caller\n        /* \"TEXOOrchestrator.sol\":12149:12158  _referrer */\n      dup5\n        /* \"TEXOOrchestrator.sol\":12125:12136  setReferral */\n      tag_294\n        /* \"TEXOOrchestrator.sol\":12125:12159  setReferral(msg.sender, _referrer) */\n      jump\t// in\n    tag_293:\n        /* \"TEXOOrchestrator.sol\":12040:12170  if (_amount > 0 && _referrer != address(0) && _referrer != msg.sender) {... */\n    tag_292:\n        /* \"TEXOOrchestrator.sol\":12194:12195  0 */\n      0x00\n        /* \"TEXOOrchestrator.sol\":12184:12191  _amount */\n      dup5\n        /* \"TEXOOrchestrator.sol\":12184:12195  _amount > 0 */\n      gt\n        /* \"TEXOOrchestrator.sol\":12180:12734  if (_amount > 0) {... */\n      iszero\n      tag_295\n      jumpi\n        /* \"TEXOOrchestrator.sol\":12211:12285  pool.lpToken.safeTransferFrom(address(msg.sender), address(this), _amount) */\n      tag_296\n        /* \"TEXOOrchestrator.sol\":12249:12259  msg.sender */\n      caller\n        /* \"TEXOOrchestrator.sol\":12270:12274  this */\n      address\n        /* \"TEXOOrchestrator.sol\":12277:12284  _amount */\n      dup7\n        /* \"TEXOOrchestrator.sol\":12211:12215  pool */\n      dup6\n        /* \"TEXOOrchestrator.sol\":12211:12223  pool.lpToken */\n      0x00\n      add\n      0x00\n      swap1\n      sload\n      swap1\n      0x0100\n      exp\n      swap1\n      div\n      0xffffffffffffffffffffffffffffffffffffffff\n      and\n        /* \"TEXOOrchestrator.sol\":12211:12240  pool.lpToken.safeTransferFrom */\n      0xffffffffffffffffffffffffffffffffffffffff\n      and\n      tag_297\n      swap1\n        /* \"TEXOOrchestrator.sol\":12211:12285  pool.lpToken.safeTransferFrom(address(msg.sender), address(this), _amount) */\n      swap4\n      swap3\n      swap2\n      swap1\n      0xffffffff\n      and\n      jump\t// in\n    tag_296:\n        /* \"TEXOOrchestrator.sol\":12324:12325  0 */\n      0x00\n        /* \"TEXOOrchestrator.sol\":12304:12308  pool */\n      dup3\n        /* \"TEXOOrchestrator.sol\":12304:12321  pool.depositFeeBP */\n      0x06\n      add\n      0x00\n      swap1\n      sload\n      swap1\n      0x0100\n      exp\n      swap1\n      div\n      0xffff\n      and\n        /* \"TEXOOrchestrator.sol\":12304:12325  pool.depositFeeBP > 0 */\n      0xffff\n      and\n      gt\n        /* \"TEXOOrchestrator.sol\":12300:12724  if (pool.depositFeeBP > 0) {... */\n      iszero\n      tag_298\n      jumpi\n        /* \"TEXOOrchestrator.sol\":12345:12363  uint256 depositFee */\n      0x00\n        /* \"TEXOOrchestrator.sol\":12366:12449  _amount... */\n      tag_299\n        /* \"TEXOOrchestrator.sol\":12443:12448  10000 */\n      0x2710\n        /* \"TEXOOrchestrator.sol\":12366:12417  _amount... */\n      tag_300\n        /* \"TEXOOrchestrator.sol\":12399:12403  pool */\n      dup6\n        /* \"TEXOOrchestrator.sol\":12399:12416  pool.depositFeeBP */\n      0x06\n      add\n      0x00\n      swap1\n      sload\n      swap1\n      0x0100\n      exp\n      swap1\n      div\n      0xffff\n      and\n        /* \"TEXOOrchestrator.sol\":12366:12417  _amount... */\n      0xffff\n      and\n        /* \"TEXOOrchestrator.sol\":12366:12373  _amount */\n      dup9\n        /* \"TEXOOrchestrator.sol\":12366:12398  _amount... */\n      tag_225\n      swap1\n        /* \"TEXOOrchestrator.sol\":12366:12417  _amount... */\n      swap2\n      swap1\n      0xffffffff\n      and\n      jump\t// in\n    tag_300:\n        /* \"TEXOOrchestrator.sol\":12366:12442  _amount... */\n      tag_226\n      swap1\n        /* \"TEXOOrchestrator.sol\":12366:12449  _amount... */\n      swap2\n      swap1\n      0xffffffff\n      and\n      jump\t// in\n    tag_299:\n        /* \"TEXOOrchestrator.sol\":12345:12449  uint256 depositFee = _amount... */\n      swap1\n      pop\n        /* \"TEXOOrchestrator.sol\":12482:12564  user.amount... */\n      tag_301\n        /* \"TEXOOrchestrator.sol\":12553:12563  depositFee */\n      dup2\n        /* \"TEXOOrchestrator.sol\":12482:12527  user.amount... */\n      tag_302\n        /* \"TEXOOrchestrator.sol\":12519:12526  _amount */\n      dup8\n        /* \"TEXOOrchestrator.sol\":12482:12486  user */\n      dup6\n        /* \"TEXOOrchestrator.sol\":12482:12493  user.amount */\n      0x00\n      add\n      sload\n        /* \"TEXOOrchestrator.sol\":12482:12518  user.amount... */\n      tag_173\n      swap1\n        /* \"TEXOOrchestrator.sol\":12482:12527  user.amount... */\n      swap2\n      swap1\n      0xffffffff\n      and\n      jump\t// in\n    tag_302:\n        /* \"TEXOOrchestrator.sol\":12482:12552  user.amount... */\n      tag_172\n      swap1\n        /* \"TEXOOrchestrator.sol\":12482:12564  user.amount... */\n      swap2\n      swap1\n      0xffffffff\n      and\n      jump\t// in\n    tag_301:\n        /* \"TEXOOrchestrator.sol\":12468:12472  user */\n      dup3\n        /* \"TEXOOrchestrator.sol\":12468:12479  user.amount */\n      0x00\n      add\n        /* \"TEXOOrchestrator.sol\":12468:12564  user.amount = user.amount... */\n      dup2\n      swap1\n      sstore\n      pop\n        /* \"TEXOOrchestrator.sol\":12583:12632  pool.lpToken.safeTransfer(feeAddress, depositFee) */\n      tag_303\n        /* \"TEXOOrchestrator.sol\":12609:12619  feeAddress */\n      0x05\n      0x00\n      swap1\n      sload\n      swap1\n      0x0100\n      exp\n      swap1\n      div\n      0xffffffffffffffffffffffffffffffffffffffff\n      and\n        /* \"TEXOOrchestrator.sol\":12621:12631  depositFee */\n      dup3\n        /* \"TEXOOrchestrator.sol\":12583:12587  pool */\n      dup6\n        /* \"TEXOOrchestrator.sol\":12583:12595  pool.lpToken */\n      0x00\n      add\n      0x00\n      swap1\n      sload\n      swap1\n      0x0100\n      exp\n      swap1\n      div\n      0xffffffffffffffffffffffffffffffffffffffff\n      and\n        /* \"TEXOOrchestrator.sol\":12583:12608  pool.lpToken.safeTransfer */\n      0xffffffffffffffffffffffffffffffffffffffff\n      and\n      tag_222\n      swap1\n        /* \"TEXOOrchestrator.sol\":12583:12632  pool.lpToken.safeTransfer(feeAddress, depositFee) */\n      swap3\n      swap2\n      swap1\n      0xffffffff\n      and\n      jump\t// in\n    tag_303:\n        /* \"TEXOOrchestrator.sol\":12300:12724  if (pool.depositFeeBP > 0) {... */\n      pop\n      jump(tag_304)\n    tag_298:\n        /* \"TEXOOrchestrator.sol\":12685:12709  user.amount.add(_amount) */\n      tag_305\n        /* \"TEXOOrchestrator.sol\":12701:12708  _amount */\n      dup5\n        /* \"TEXOOrchestrator.sol\":12685:12689  user */\n      dup3\n        /* \"TEXOOrchestrator.sol\":12685:12696  user.amount */\n      0x00\n      add\n      sload\n        /* \"TEXOOrchestrator.sol\":12685:12700  user.amount.add */\n      tag_173\n      swap1\n        /* \"TEXOOrchestrator.sol\":12685:12709  user.amount.add(_amount) */\n      swap2\n      swap1\n      0xffffffff\n      and\n      jump\t// in\n    tag_305:\n        /* \"TEXOOrchestrator.sol\":12671:12675  user */\n      dup2\n        /* \"TEXOOrchestrator.sol\":12671:12682  user.amount */\n      0x00\n      add\n        /* \"TEXOOrchestrator.sol\":12671:12709  user.amount = user.amount.add(_amount) */\n      dup2\n      swap1\n      sstore\n      pop\n        /* \"TEXOOrchestrator.sol\":12300:12724  if (pool.depositFeeBP > 0) {... */\n    tag_304:\n        /* \"TEXOOrchestrator.sol\":12180:12734  if (_amount > 0) {... */\n    tag_295:\n        /* \"TEXOOrchestrator.sol\":12762:12835  user.amount... */\n      tag_306\n        /* \"TEXOOrchestrator.sol\":12830:12834  1e12 */\n      0xe8d4a51000\n        /* \"TEXOOrchestrator.sol\":12762:12812  user.amount... */\n      tag_307\n        /* \"TEXOOrchestrator.sol\":12791:12795  pool */\n      dup5\n        /* \"TEXOOrchestrator.sol\":12791:12811  pool.accTEXOPerShare */\n      0x05\n      add\n      sload\n        /* \"TEXOOrchestrator.sol\":12762:12766  user */\n      dup5\n        /* \"TEXOOrchestrator.sol\":12762:12773  user.amount */\n      0x00\n      add\n      sload\n        /* \"TEXOOrchestrator.sol\":12762:12790  user.amount... */\n      tag_225\n      swap1\n        /* \"TEXOOrchestrator.sol\":12762:12812  user.amount... */\n      swap2\n      swap1\n      0xffffffff\n      and\n      jump\t// in\n    tag_307:\n        /* \"TEXOOrchestrator.sol\":12762:12829  user.amount... */\n      tag_226\n      swap1\n        /* \"TEXOOrchestrator.sol\":12762:12835  user.amount... */\n      swap2\n      swap1\n      0xffffffff\n      and\n      jump\t// in\n    tag_306:\n        /* \"TEXOOrchestrator.sol\":12744:12748  user */\n      dup2\n        /* \"TEXOOrchestrator.sol\":12744:12759  user.rewardDebt */\n      0x01\n      add\n        /* \"TEXOOrchestrator.sol\":12744:12835  user.rewardDebt = user.amount... */\n      dup2\n      swap1\n      sstore\n      pop\n        /* \"TEXOOrchestrator.sol\":12871:12875  _pid */\n      dup5\n        /* \"TEXOOrchestrator.sol\":12859:12869  msg.sender */\n      caller\n        /* \"TEXOOrchestrator.sol\":12851:12885  Deposit(msg.sender, _pid, _amount) */\n      0xffffffffffffffffffffffffffffffffffffffff\n      and\n      0x90890809c654f11d6e72a28fa60149770a0d11ec6c92319d6ceb2bb0a4ea1a15\n        /* \"TEXOOrchestrator.sol\":12877:12884  _amount */\n      dup7\n        /* \"TEXOOrchestrator.sol\":12851:12885  Deposit(msg.sender, _pid, _amount) */\n      mload(0x40)\n      dup1\n      dup3\n      dup2\n      mstore\n      0x20\n      add\n      swap2\n      pop\n      pop\n      mload(0x40)\n      dup1\n      swap2\n      sub\n      swap1\n      log3\n        /* \"ReentrancyGuard.sol\":2428:2429  _ */\n      pop\n      pop\n        /* \"ReentrancyGuard.sol\":1637:1638  1 */\n      0x01\n        /* \"ReentrancyGuard.sol\":2572:2579  _status */\n      dup1\n        /* \"ReentrancyGuard.sol\":2572:2594  _status = _NOT_ENTERED */\n      dup2\n      swap1\n      sstore\n      pop\n        /* \"TEXOOrchestrator.sol\":11538:12892  function deposit(uint256 _pid, uint256 _amount, address _referrer) public nonReentrant {... */\n      pop\n      pop\n      pop\n      jump\t// out\n        /* \"TEXOOrchestrator.sol\":3268:3326  uint256 public constant INITIAL_EMISSION_RATE = 500 finney */\n    tag_122:\n        /* \"TEXOOrchestrator.sol\":3316:3326  500 finney */\n      0x06f05b59d3b20000\n        /* \"TEXOOrchestrator.sol\":3268:3326  uint256 public constant INITIAL_EMISSION_RATE = 500 finney */\n      dup2\n      jump\t// out\n        /* \"TEXOOrchestrator.sol\":2372:2436  mapping(uint256 => mapping(address => UserInfo)) public userInfo */\n    tag_125:\n      mstore(0x20, 0x08)\n      dup2\n      0x00\n      mstore\n      mstore(0x20, keccak256(0x00, 0x40))\n      dup1\n      0x00\n      mstore\n      keccak256(0x00, 0x40)\n      0x00\n      swap2\n      pop\n      swap2\n      pop\n      pop\n      dup1\n      0x00\n      add\n      sload\n      swap1\n      dup1\n      0x01\n      add\n      sload\n      swap1\n      dup1\n      0x02\n      add\n      sload\n      swap1\n      pop\n      dup4\n      jump\t// out\n        /* \"TEXOOrchestrator.sol\":2693:2744  uint16 public constant MAXIMUM_DEPOSIT_FEE_BP = 400 */\n    tag_127:\n        /* \"TEXOOrchestrator.sol\":2741:2744  400 */\n      0x0190\n        /* \"TEXOOrchestrator.sol\":2693:2744  uint16 public constant MAXIMUM_DEPOSIT_FEE_BP = 400 */\n      dup2\n      jump\t// out\n        /* \"TEXOOrchestrator.sol\":3159:3211  mapping(IBEP20 => uint256) public poolIdForLpAddress */\n    tag_130:\n      mstore(0x20, 0x0e)\n      dup1\n      0x00\n      mstore\n      keccak256(0x00, 0x40)\n      0x00\n      swap2\n      pop\n      swap1\n      pop\n      sload\n      dup2\n      jump\t// out\n        /* \"TEXOOrchestrator.sol\":17472:17753  function setEmissionRate(uint256 newEmissionRate) public onlyOwner {... */\n    tag_133:\n        /* \"Ownable.sol\":1289:1301  _msgSender() */\n      tag_309\n        /* \"Ownable.sol\":1289:1299  _msgSender */\n      tag_161\n        /* \"Ownable.sol\":1289:1301  _msgSender() */\n      jump\t// in\n    tag_309:\n        /* \"Ownable.sol\":1279:1301  _owner == _msgSender() */\n      0xffffffffffffffffffffffffffffffffffffffff\n      and\n        /* \"Ownable.sol\":1279:1285  _owner */\n      0x00\n      dup1\n      sload\n      swap1\n      0x0100\n      exp\n      swap1\n      div\n      0xffffffffffffffffffffffffffffffffffffffff\n      and\n        /* \"Ownable.sol\":1279:1301  _owner == _msgSender() */\n      0xffffffffffffffffffffffffffffffffffffffff\n      and\n      eq\n        /* \"Ownable.sol\":1271:1338  require(_owner == _msgSender(), 'Ownable: caller is not the owner') */\n      tag_310\n      jumpi\n      mload(0x40)\n      0x08c379a000000000000000000000000000000000000000000000000000000000\n      dup2\n      mstore\n      0x04\n      add\n      dup1\n      dup1\n      0x20\n      add\n      dup3\n      dup2\n      sub\n      dup3\n      mstore\n      0x20\n      dup2\n      mstore\n      0x20\n      add\n      dup1\n      0x4f776e61626c653a2063616c6c6572206973206e6f7420746865206f776e6572\n      dup2\n      mstore\n      pop\n      0x20\n      add\n      swap2\n      pop\n      pop\n      mload(0x40)\n      dup1\n      swap2\n      sub\n      swap1\n      revert\n    tag_310:\n        /* \"TEXOOrchestrator.sol\":17549:17577  uint256 previousEmissionRate */\n      0x00\n        /* \"TEXOOrchestrator.sol\":17580:17592  tEXOPerBlock */\n      sload(0x04)\n        /* \"TEXOOrchestrator.sol\":17549:17592  uint256 previousEmissionRate = tEXOPerBlock */\n      swap1\n      pop\n        /* \"TEXOOrchestrator.sol\":17617:17632  newEmissionRate */\n      dup2\n        /* \"TEXOOrchestrator.sol\":17602:17614  tEXOPerBlock */\n      0x04\n        /* \"TEXOOrchestrator.sol\":17602:17632  tEXOPerBlock = newEmissionRate */\n      dup2\n      swap1\n      sstore\n      pop\n        /* \"TEXOOrchestrator.sol\":17643:17660  massUpdatePools() */\n      tag_312\n        /* \"TEXOOrchestrator.sol\":17643:17658  massUpdatePools */\n      tag_98\n        /* \"TEXOOrchestrator.sol\":17643:17660  massUpdatePools() */\n      jump\t// in\n    tag_312:\n        /* \"TEXOOrchestrator.sol\":17696:17706  msg.sender */\n      caller\n        /* \"TEXOOrchestrator.sol\":17676:17746  EmissionRateUpdated(msg.sender, previousEmissionRate, newEmissionRate) */\n      0xffffffffffffffffffffffffffffffffffffffff\n      and\n      0xeedc6338c9c1ad8f3cd6c90dd09dbe98dbd57e610d3e59a17996d07acb0d9511\n        /* \"TEXOOrchestrator.sol\":17708:17728  previousEmissionRate */\n      dup3\n        /* \"TEXOOrchestrator.sol\":17730:17745  newEmissionRate */\n      dup5\n        /* \"TEXOOrchestrator.sol\":17676:17746  EmissionRateUpdated(msg.sender, previousEmissionRate, newEmissionRate) */\n      mload(0x40)\n      dup1\n      dup4\n      dup2\n      mstore\n      0x20\n      add\n      dup3\n      dup2\n      mstore\n      0x20\n      add\n      swap3\n      pop\n      pop\n      pop\n      mload(0x40)\n      dup1\n      swap2\n      sub\n      swap1\n      log2\n        /* \"Ownable.sol\":1348:1349  _ */\n      pop\n        /* \"TEXOOrchestrator.sol\":17472:17753  function setEmissionRate(uint256 newEmissionRate) public onlyOwner {... */\n      pop\n      jump\t// out\n        /* \"TEXOOrchestrator.sol\":1954:1975  TEXOToken public tEXO */\n    tag_135:\n      0x02\n      0x00\n      swap1\n      sload\n      swap1\n      0x0100\n      exp\n      swap1\n      div\n      0xffffffffffffffffffffffffffffffffffffffff\n      and\n      dup2\n      jump\t// out\n        /* \"TEXOOrchestrator.sol\":3637:3702  uint256 public constant EMISSION_REDUCTION_RATE_PER_PERIOD = 1500 */\n    tag_137:\n        /* \"TEXOOrchestrator.sol\":3698:3702  1500 */\n      0x05dc\n        /* \"TEXOOrchestrator.sol\":3637:3702  uint256 public constant EMISSION_REDUCTION_RATE_PER_PERIOD = 1500 */\n      dup2\n      jump\t// out\n        /* \"TEXOOrchestrator.sol\":11279:11458  function canClaimReward(uint256 _pid) public view returns (bool) {... */\n    tag_140:\n        /* \"TEXOOrchestrator.sol\":11338:11342  bool */\n      0x00\n        /* \"TEXOOrchestrator.sol\":11354:11375  PoolInfo storage pool */\n      dup1\n        /* \"TEXOOrchestrator.sol\":11378:11386  poolInfo */\n      0x07\n        /* \"TEXOOrchestrator.sol\":11387:11391  _pid */\n      dup4\n        /* \"TEXOOrchestrator.sol\":11378:11392  poolInfo[_pid] */\n      dup2\n      sload\n      dup2\n      lt\n      tag_314\n      jumpi\n      invalid\n    tag_314:\n      swap1\n      0x00\n      mstore\n      keccak256(0x00, 0x20)\n      swap1\n      0x07\n      mul\n      add\n        /* \"TEXOOrchestrator.sol\":11354:11392  PoolInfo storage pool = poolInfo[_pid] */\n      swap1\n      pop\n        /* \"TEXOOrchestrator.sol\":11439:11451  block.number */\n      number\n        /* \"TEXOOrchestrator.sol\":11410:11414  pool */\n      dup2\n        /* \"TEXOOrchestrator.sol\":11410:11435  pool.blockToReceiveReward */\n      0x02\n      add\n      sload\n        /* \"TEXOOrchestrator.sol\":11410:11451  pool.blockToReceiveReward <= block.number */\n      gt\n      iszero\n        /* \"TEXOOrchestrator.sol\":11403:11451  return pool.blockToReceiveReward <= block.number */\n      swap2\n      pop\n      pop\n        /* \"TEXOOrchestrator.sol\":11279:11458  function canClaimReward(uint256 _pid) public view returns (bool) {... */\n      swap2\n      swap1\n      pop\n      jump\t// out\n        /* \"TEXOOrchestrator.sol\":3079:3123  mapping(IBEP20 => bool) public poolExistence */\n    tag_143:\n      mstore(0x20, 0x0d)\n      dup1\n      0x00\n      mstore\n      keccak256(0x00, 0x40)\n      0x00\n      swap2\n      pop\n      sload\n      swap1\n      0x0100\n      exp\n      swap1\n      div\n      0xff\n      and\n      dup2\n      jump\t// out\n        /* \"TEXOOrchestrator.sol\":15423:15676  function setDevAddress(address _devaddr) public {... */\n    tag_146:\n        /* \"TEXOOrchestrator.sol\":15509:15510  0 */\n      0x00\n        /* \"TEXOOrchestrator.sol\":15489:15511  _devaddr != address(0) */\n      0xffffffffffffffffffffffffffffffffffffffff\n      and\n        /* \"TEXOOrchestrator.sol\":15489:15497  _devaddr */\n      dup2\n        /* \"TEXOOrchestrator.sol\":15489:15511  _devaddr != address(0) */\n      0xffffffffffffffffffffffffffffffffffffffff\n      and\n      eq\n      iszero\n        /* \"TEXOOrchestrator.sol\":15481:15536  require(_devaddr != address(0), \"dev: invalid address\") */\n      tag_317\n      jumpi\n      mload(0x40)\n      0x08c379a000000000000000000000000000000000000000000000000000000000\n      dup2\n      mstore\n      0x04\n      add\n      dup1\n      dup1\n      0x20\n      add\n      dup3\n      dup2\n      sub\n      dup3\n      mstore\n      0x14\n      dup2\n      mstore\n      0x20\n      add\n      dup1\n      0x6465763a20696e76616c69642061646472657373000000000000000000000000\n      dup2\n      mstore\n      pop\n      0x20\n      add\n      swap2\n      pop\n      pop\n      mload(0x40)\n      dup1\n      swap2\n      sub\n      swap1\n      revert\n    tag_317:\n        /* \"TEXOOrchestrator.sol\":15568:15575  devAddr */\n      0x03\n      0x00\n      swap1\n      sload\n      swap1\n      0x0100\n      exp\n      swap1\n      div\n      0xffffffffffffffffffffffffffffffffffffffff\n      and\n        /* \"TEXOOrchestrator.sol\":15554:15575  msg.sender == devAddr */\n      0xffffffffffffffffffffffffffffffffffffffff\n      and\n        /* \"TEXOOrchestrator.sol\":15554:15564  msg.sender */\n      caller\n        /* \"TEXOOrchestrator.sol\":15554:15575  msg.sender == devAddr */\n      0xffffffffffffffffffffffffffffffffffffffff\n      and\n      eq\n        /* \"TEXOOrchestrator.sol\":15546:15589  require(msg.sender == devAddr, \"dev: wut?\") */\n      tag_318\n      jumpi\n      mload(0x40)\n      0x08c379a000000000000000000000000000000000000000000000000000000000\n      dup2\n      mstore\n      0x04\n      add\n      dup1\n      dup1\n      0x20\n      add\n      dup3\n      dup2\n      sub\n      dup3\n      mstore\n      0x09\n      dup2\n      mstore\n      0x20\n      add\n      dup1\n      0x6465763a207775743f0000000000000000000000000000000000000000000000\n      dup2\n      mstore\n      pop\n      0x20\n      add\n      swap2\n      pop\n      pop\n      mload(0x40)\n      dup1\n      swap2\n      sub\n      swap1\n      revert\n    tag_318:\n        /* \"TEXOOrchestrator.sol\":15610:15618  _devaddr */\n      dup1\n        /* \"TEXOOrchestrator.sol\":15600:15607  devAddr */\n      0x03\n      0x00\n        /* \"TEXOOrchestrator.sol\":15600:15618  devAddr = _devaddr */\n      0x0100\n      exp\n      dup2\n      sload\n      dup2\n      0xffffffffffffffffffffffffffffffffffffffff\n      mul\n      not\n      and\n      swap1\n      dup4\n      0xffffffffffffffffffffffffffffffffffffffff\n      and\n      mul\n      or\n      swap1\n      sstore\n      pop\n        /* \"TEXOOrchestrator.sol\":15660:15668  _devaddr */\n      dup1\n        /* \"TEXOOrchestrator.sol\":15634:15669  SetDevAddress(msg.sender, _devaddr) */\n      0xffffffffffffffffffffffffffffffffffffffff\n      and\n        /* \"TEXOOrchestrator.sol\":15648:15658  msg.sender */\n      caller\n        /* \"TEXOOrchestrator.sol\":15634:15669  SetDevAddress(msg.sender, _devaddr) */\n      0xffffffffffffffffffffffffffffffffffffffff\n      and\n      0x618c54559e94f1499a808aad71ee8729f8e74e8c48e979616328ce493a1a52e7\n      mload(0x40)\n      mload(0x40)\n      dup1\n      swap2\n      sub\n      swap1\n      log3\n        /* \"TEXOOrchestrator.sol\":15423:15676  function setDevAddress(address _devaddr) public {... */\n      pop\n      jump\t// out\n        /* \"TEXOOrchestrator.sol\":3503:3567  uint256 public constant EMISSION_REDUCTION_PERIOD_BLOCKS = 28800 */\n    tag_148:\n        /* \"TEXOOrchestrator.sol\":3562:3567  28800 */\n      0x7080\n        /* \"TEXOOrchestrator.sol\":3503:3567  uint256 public constant EMISSION_REDUCTION_PERIOD_BLOCKS = 28800 */\n      dup2\n      jump\t// out\n        /* \"TEXOOrchestrator.sol\":2001:2023  address public devAddr */\n    tag_150:\n      0x03\n      0x00\n      swap1\n      sload\n      swap1\n      0x0100\n      exp\n      swap1\n      div\n      0xffffffffffffffffffffffffffffffffffffffff\n      and\n      dup2\n      jump\t// out\n        /* \"TEXOOrchestrator.sol\":8095:9223  function pendingTEXO(uint256 _pid, address _user) external view returns (uint256) {... */\n    tag_153:\n        /* \"TEXOOrchestrator.sol\":8168:8175  uint256 */\n      0x00\n        /* \"TEXOOrchestrator.sol\":8187:8208  PoolInfo storage pool */\n      dup1\n        /* \"TEXOOrchestrator.sol\":8211:8219  poolInfo */\n      0x07\n        /* \"TEXOOrchestrator.sol\":8220:8224  _pid */\n      dup5\n        /* \"TEXOOrchestrator.sol\":8211:8225  poolInfo[_pid] */\n      dup2\n      sload\n      dup2\n      lt\n      tag_320\n      jumpi\n      invalid\n    tag_320:\n      swap1\n      0x00\n      mstore\n      keccak256(0x00, 0x20)\n      swap1\n      0x07\n      mul\n      add\n        /* \"TEXOOrchestrator.sol\":8187:8225  PoolInfo storage pool = poolInfo[_pid] */\n      swap1\n      pop\n        /* \"TEXOOrchestrator.sol\":8235:8256  UserInfo storage user */\n      0x00\n        /* \"TEXOOrchestrator.sol\":8259:8267  userInfo */\n      0x08\n        /* \"TEXOOrchestrator.sol\":8259:8273  userInfo[_pid] */\n      0x00\n        /* \"TEXOOrchestrator.sol\":8268:8272  _pid */\n      dup7\n        /* \"TEXOOrchestrator.sol\":8259:8273  userInfo[_pid] */\n      dup2\n      mstore\n      0x20\n      add\n      swap1\n      dup2\n      mstore\n      0x20\n      add\n      0x00\n      keccak256\n        /* \"TEXOOrchestrator.sol\":8259:8280  userInfo[_pid][_user] */\n      0x00\n        /* \"TEXOOrchestrator.sol\":8274:8279  _user */\n      dup6\n        /* \"TEXOOrchestrator.sol\":8259:8280  userInfo[_pid][_user] */\n      0xffffffffffffffffffffffffffffffffffffffff\n      and\n      0xffffffffffffffffffffffffffffffffffffffff\n      and\n      dup2\n      mstore\n      0x20\n      add\n      swap1\n      dup2\n      mstore\n      0x20\n      add\n      0x00\n      keccak256\n        /* \"TEXOOrchestrator.sol\":8235:8280  UserInfo storage user = userInfo[_pid][_user] */\n      swap1\n      pop\n        /* \"TEXOOrchestrator.sol\":8291:8314  uint256 accTEXOPerShare */\n      0x00\n        /* \"TEXOOrchestrator.sol\":8317:8321  pool */\n      dup3\n        /* \"TEXOOrchestrator.sol\":8317:8337  pool.accTEXOPerShare */\n      0x05\n      add\n      sload\n        /* \"TEXOOrchestrator.sol\":8291:8337  uint256 accTEXOPerShare = pool.accTEXOPerShare */\n      swap1\n      pop\n        /* \"TEXOOrchestrator.sol\":8347:8363  uint256 lpSupply */\n      0x00\n        /* \"TEXOOrchestrator.sol\":8366:8370  pool */\n      dup4\n        /* \"TEXOOrchestrator.sol\":8366:8378  pool.lpToken */\n      0x00\n      add\n      0x00\n      swap1\n      sload\n      swap1\n      0x0100\n      exp\n      swap1\n      div\n      0xffffffffffffffffffffffffffffffffffffffff\n      and\n        /* \"TEXOOrchestrator.sol\":8366:8388  pool.lpToken.balanceOf */\n      0xffffffffffffffffffffffffffffffffffffffff\n      and\n      0x70a08231\n        /* \"TEXOOrchestrator.sol\":8397:8401  this */\n      address\n        /* \"TEXOOrchestrator.sol\":8366:8403  pool.lpToken.balanceOf(address(this)) */\n      mload(0x40)\n      dup3\n      0xffffffff\n      and\n      0xe0\n      shl\n      dup2\n      mstore\n      0x04\n      add\n      dup1\n      dup3\n      0xffffffffffffffffffffffffffffffffffffffff\n      and\n      dup2\n      mstore\n      0x20\n      add\n      swap2\n      pop\n      pop\n      0x20\n      mload(0x40)\n      dup1\n      dup4\n      sub\n      dup2\n      dup7\n      dup1\n      extcodesize\n      iszero\n      dup1\n      iszero\n      tag_322\n      jumpi\n      0x00\n      dup1\n      revert\n    tag_322:\n      pop\n      gas\n      staticcall\n      iszero\n      dup1\n      iszero\n      tag_324\n      jumpi\n      returndatasize\n      0x00\n      dup1\n      returndatacopy\n      revert(0x00, returndatasize)\n    tag_324:\n      pop\n      pop\n      pop\n      pop\n      mload(0x40)\n      returndatasize\n      0x20\n      dup2\n      lt\n      iszero\n      tag_325\n      jumpi\n      0x00\n      dup1\n      revert\n    tag_325:\n      dup2\n      add\n      swap1\n      dup1\n      dup1\n      mload\n      swap1\n      0x20\n      add\n      swap1\n      swap3\n      swap2\n      swap1\n      pop\n      pop\n      pop\n        /* \"TEXOOrchestrator.sol\":8347:8403  uint256 lpSupply = pool.lpToken.balanceOf(address(this)) */\n      swap1\n      pop\n        /* \"TEXOOrchestrator.sol\":8414:8448  uint256 blockToCalculateMultiplier */\n      0x00\n        /* \"TEXOOrchestrator.sol\":8451:8495  minCurrentBlockAndInactiveBlockIfExist(_pid) */\n      tag_326\n        /* \"TEXOOrchestrator.sol\":8490:8494  _pid */\n      dup9\n        /* \"TEXOOrchestrator.sol\":8451:8489  minCurrentBlockAndInactiveBlockIfExist */\n      tag_231\n        /* \"TEXOOrchestrator.sol\":8451:8495  minCurrentBlockAndInactiveBlockIfExist(_pid) */\n      jump\t// in\n    tag_326:\n        /* \"TEXOOrchestrator.sol\":8414:8495  uint256 blockToCalculateMultiplier = minCurrentBlockAndInactiveBlockIfExist(_pid) */\n      swap1\n      pop\n        /* \"TEXOOrchestrator.sol\":8539:8543  pool */\n      dup5\n        /* \"TEXOOrchestrator.sol\":8539:8559  pool.lastRewardBlock */\n      0x04\n      add\n      sload\n        /* \"TEXOOrchestrator.sol\":8510:8536  blockToCalculateMultiplier */\n      dup2\n        /* \"TEXOOrchestrator.sol\":8510:8559  blockToCalculateMultiplier > pool.lastRewardBlock */\n      gt\n        /* \"TEXOOrchestrator.sol\":8510:8576  blockToCalculateMultiplier > pool.lastRewardBlock && lpSupply != 0 */\n      dup1\n      iszero\n      tag_327\n      jumpi\n      pop\n        /* \"TEXOOrchestrator.sol\":8575:8576  0 */\n      0x00\n        /* \"TEXOOrchestrator.sol\":8563:8571  lpSupply */\n      dup3\n        /* \"TEXOOrchestrator.sol\":8563:8576  lpSupply != 0 */\n      eq\n      iszero\n        /* \"TEXOOrchestrator.sol\":8510:8576  blockToCalculateMultiplier > pool.lastRewardBlock && lpSupply != 0 */\n    tag_327:\n        /* \"TEXOOrchestrator.sol\":8506:9036  if (blockToCalculateMultiplier > pool.lastRewardBlock && lpSupply != 0) {... */\n      iszero\n      tag_328\n      jumpi\n        /* \"TEXOOrchestrator.sol\":8592:8610  uint256 multiplier */\n      0x00\n        /* \"TEXOOrchestrator.sol\":8613:8676  getMultiplier(pool.lastRewardBlock, blockToCalculateMultiplier) */\n      tag_329\n        /* \"TEXOOrchestrator.sol\":8627:8631  pool */\n      dup7\n        /* \"TEXOOrchestrator.sol\":8627:8647  pool.lastRewardBlock */\n      0x04\n      add\n      sload\n        /* \"TEXOOrchestrator.sol\":8649:8675  blockToCalculateMultiplier */\n      dup4\n        /* \"TEXOOrchestrator.sol\":8613:8626  getMultiplier */\n      tag_117\n        /* \"TEXOOrchestrator.sol\":8613:8676  getMultiplier(pool.lastRewardBlock, blockToCalculateMultiplier) */\n      jump\t// in\n    tag_329:\n        /* \"TEXOOrchestrator.sol\":8592:8676  uint256 multiplier = getMultiplier(pool.lastRewardBlock, blockToCalculateMultiplier) */\n      swap1\n      pop\n        /* \"TEXOOrchestrator.sol\":8690:8708  uint256 tEXOReward */\n      0x00\n        /* \"TEXOOrchestrator.sol\":8711:8832  multiplier... */\n      tag_330\n        /* \"TEXOOrchestrator.sol\":8816:8831  totalAllocPoint */\n      sload(0x09)\n        /* \"TEXOOrchestrator.sol\":8711:8794  multiplier... */\n      tag_331\n        /* \"TEXOOrchestrator.sol\":8778:8782  pool */\n      dup10\n        /* \"TEXOOrchestrator.sol\":8778:8793  pool.allocPoint */\n      0x01\n      add\n      sload\n        /* \"TEXOOrchestrator.sol\":8711:8756  multiplier... */\n      tag_332\n        /* \"TEXOOrchestrator.sol\":8743:8755  tEXOPerBlock */\n      sload(0x04)\n        /* \"TEXOOrchestrator.sol\":8711:8721  multiplier */\n      dup8\n        /* \"TEXOOrchestrator.sol\":8711:8742  multiplier... */\n      tag_225\n      swap1\n        /* \"TEXOOrchestrator.sol\":8711:8756  multiplier... */\n      swap2\n      swap1\n      0xffffffff\n      and\n      jump\t// in\n    tag_332:\n        /* \"TEXOOrchestrator.sol\":8711:8777  multiplier... */\n      tag_225\n      swap1\n        /* \"TEXOOrchestrator.sol\":8711:8794  multiplier... */\n      swap2\n      swap1\n      0xffffffff\n      and\n      jump\t// in\n    tag_331:\n        /* \"TEXOOrchestrator.sol\":8711:8815  multiplier... */\n      tag_226\n      swap1\n        /* \"TEXOOrchestrator.sol\":8711:8832  multiplier... */\n      swap2\n      swap1\n      0xffffffff\n      and\n      jump\t// in\n    tag_330:\n        /* \"TEXOOrchestrator.sol\":8690:8832  uint256 tEXOReward = multiplier... */\n      swap1\n      pop\n        /* \"TEXOOrchestrator.sol\":8865:9025  accTEXOPerShare... */\n      tag_333\n        /* \"TEXOOrchestrator.sol\":8923:9007  tEXOReward... */\n      tag_334\n        /* \"TEXOOrchestrator.sol\":8998:9006  lpSupply */\n      dup6\n        /* \"TEXOOrchestrator.sol\":8923:8968  tEXOReward... */\n      tag_335\n        /* \"TEXOOrchestrator.sol\":8963:8967  1e12 */\n      0xe8d4a51000\n        /* \"TEXOOrchestrator.sol\":8923:8933  tEXOReward */\n      dup6\n        /* \"TEXOOrchestrator.sol\":8923:8962  tEXOReward... */\n      tag_225\n      swap1\n        /* \"TEXOOrchestrator.sol\":8923:8968  tEXOReward... */\n      swap2\n      swap1\n      0xffffffff\n      and\n      jump\t// in\n    tag_335:\n        /* \"TEXOOrchestrator.sol\":8923:8997  tEXOReward... */\n      tag_226\n      swap1\n        /* \"TEXOOrchestrator.sol\":8923:9007  tEXOReward... */\n      swap2\n      swap1\n      0xffffffff\n      and\n      jump\t// in\n    tag_334:\n        /* \"TEXOOrchestrator.sol\":8865:8880  accTEXOPerShare */\n      dup7\n        /* \"TEXOOrchestrator.sol\":8865:8901  accTEXOPerShare... */\n      tag_173\n      swap1\n        /* \"TEXOOrchestrator.sol\":8865:9025  accTEXOPerShare... */\n      swap2\n      swap1\n      0xffffffff\n      and\n      jump\t// in\n    tag_333:\n        /* \"TEXOOrchestrator.sol\":8847:9025  accTEXOPerShare = accTEXOPerShare... */\n      swap5\n      pop\n        /* \"TEXOOrchestrator.sol\":8506:9036  if (blockToCalculateMultiplier > pool.lastRewardBlock && lpSupply != 0) {... */\n      pop\n      pop\n    tag_328:\n        /* \"TEXOOrchestrator.sol\":9046:9061  uint256 pending */\n      0x00\n        /* \"TEXOOrchestrator.sol\":9064:9166  user.amount... */\n      tag_336\n        /* \"TEXOOrchestrator.sol\":9150:9154  user */\n      dup6\n        /* \"TEXOOrchestrator.sol\":9150:9165  user.rewardDebt */\n      0x01\n      add\n      sload\n        /* \"TEXOOrchestrator.sol\":9064:9132  user.amount... */\n      tag_337\n        /* \"TEXOOrchestrator.sol\":9127:9131  1e12 */\n      0xe8d4a51000\n        /* \"TEXOOrchestrator.sol\":9064:9109  user.amount... */\n      tag_338\n        /* \"TEXOOrchestrator.sol\":9093:9108  accTEXOPerShare */\n      dup9\n        /* \"TEXOOrchestrator.sol\":9064:9068  user */\n      dup11\n        /* \"TEXOOrchestrator.sol\":9064:9075  user.amount */\n      0x00\n      add\n      sload\n        /* \"TEXOOrchestrator.sol\":9064:9092  user.amount... */\n      tag_225\n      swap1\n        /* \"TEXOOrchestrator.sol\":9064:9109  user.amount... */\n      swap2\n      swap1\n      0xffffffff\n      and\n      jump\t// in\n    tag_338:\n        /* \"TEXOOrchestrator.sol\":9064:9126  user.amount... */\n      tag_226\n      swap1\n        /* \"TEXOOrchestrator.sol\":9064:9132  user.amount... */\n      swap2\n      swap1\n      0xffffffff\n      and\n      jump\t// in\n    tag_337:\n        /* \"TEXOOrchestrator.sol\":9064:9149  user.amount... */\n      tag_172\n      swap1\n        /* \"TEXOOrchestrator.sol\":9064:9166  user.amount... */\n      swap2\n      swap1\n      0xffffffff\n      and\n      jump\t// in\n    tag_336:\n        /* \"TEXOOrchestrator.sol\":9046:9166  uint256 pending = user.amount... */\n      swap1\n      pop\n        /* \"TEXOOrchestrator.sol\":9184:9216  pending.add(user.rewardLockedUp) */\n      tag_339\n        /* \"TEXOOrchestrator.sol\":9196:9200  user */\n      dup6\n        /* \"TEXOOrchestrator.sol\":9196:9215  user.rewardLockedUp */\n      0x02\n      add\n      sload\n        /* \"TEXOOrchestrator.sol\":9184:9191  pending */\n      dup3\n        /* \"TEXOOrchestrator.sol\":9184:9195  pending.add */\n      tag_173\n      swap1\n        /* \"TEXOOrchestrator.sol\":9184:9216  pending.add(user.rewardLockedUp) */\n      swap2\n      swap1\n      0xffffffff\n      and\n      jump\t// in\n    tag_339:\n        /* \"TEXOOrchestrator.sol\":9177:9216  return pending.add(user.rewardLockedUp) */\n      swap7\n      pop\n      pop\n      pop\n      pop\n      pop\n      pop\n      pop\n        /* \"TEXOOrchestrator.sol\":8095:9223  function pendingTEXO(uint256 _pid, address _user) external view returns (uint256) {... */\n      swap3\n      swap2\n      pop\n      pop\n      jump\t// out\n        /* \"TEXOOrchestrator.sol\":16179:17466  function reduceEmissionRateWithDefaultRate() public {... */\n    tag_155:\n        /* \"TEXOOrchestrator.sol\":16264:16296  blockToStartReducingEmissionRate */\n      sload(0x06)\n        /* \"TEXOOrchestrator.sol\":16249:16261  block.number */\n      number\n        /* \"TEXOOrchestrator.sol\":16249:16296  block.number > blockToStartReducingEmissionRate */\n      gt\n        /* \"TEXOOrchestrator.sol\":16241:16383  require(block.number > blockToStartReducingEmissionRate, \"reduceEmissionRateWithDefaultRate: Can only be called after specified block starts\") */\n      tag_341\n      jumpi\n      mload(0x40)\n      0x08c379a000000000000000000000000000000000000000000000000000000000\n      dup2\n      mstore\n      0x04\n      add\n      dup1\n      dup1\n      0x20\n      add\n      dup3\n      dup2\n      sub\n      dup3\n      mstore\n      0x52\n      dup2\n      mstore\n      0x20\n      add\n      dup1\n      data_a827dd9c9a80825686eef28a9f1d2466e1d29b6da48280d16028581898989615\n      0x52\n      swap2\n      codecopy\n      0x60\n      add\n      swap2\n      pop\n      pop\n      mload(0x40)\n      dup1\n      swap2\n      sub\n      swap1\n      revert\n    tag_341:\n        /* \"TEXOOrchestrator.sol\":3431:3441  100 finney */\n      0x016345785d8a0000\n        /* \"TEXOOrchestrator.sol\":16401:16413  tEXOPerBlock */\n      sload(0x04)\n        /* \"TEXOOrchestrator.sol\":16401:16437  tEXOPerBlock > MINIMUM_EMISSION_RATE */\n      gt\n        /* \"TEXOOrchestrator.sol\":16393:16524  require(tEXOPerBlock > MINIMUM_EMISSION_RATE, \"reduceEmissionRateWithDefaultRate: Emission rate has reached the minimum threshold\") */\n      tag_342\n      jumpi\n      mload(0x40)\n      0x08c379a000000000000000000000000000000000000000000000000000000000\n      dup2\n      mstore\n      0x04\n      add\n      dup1\n      dup1\n      0x20\n      add\n      dup3\n      dup2\n      sub\n      dup3\n      mstore\n      0x52\n      dup2\n      mstore\n      0x20\n      add\n      dup1\n      data_d4e7846547be135afcf8a93a01a9053e9fa2c0d79f8d5448158422588210b6ab\n      0x52\n      swap2\n      codecopy\n      0x60\n      add\n      swap2\n      pop\n      pop\n      mload(0x40)\n      dup1\n      swap2\n      sub\n      swap1\n      revert\n    tag_342:\n        /* \"TEXOOrchestrator.sol\":16535:16555  uint256 currentIndex */\n      0x00\n        /* \"TEXOOrchestrator.sol\":16558:16646  block.number.sub(blockToStartReducingEmissionRate).div(EMISSION_REDUCTION_PERIOD_BLOCKS) */\n      tag_343\n        /* \"TEXOOrchestrator.sol\":3562:3567  28800 */\n      0x7080\n        /* \"TEXOOrchestrator.sol\":16558:16608  block.number.sub(blockToStartReducingEmissionRate) */\n      tag_344\n        /* \"TEXOOrchestrator.sol\":16575:16607  blockToStartReducingEmissionRate */\n      sload(0x06)\n        /* \"TEXOOrchestrator.sol\":16558:16570  block.number */\n      number\n        /* \"TEXOOrchestrator.sol\":16558:16574  block.number.sub */\n      tag_172\n      swap1\n        /* \"TEXOOrchestrator.sol\":16558:16608  block.number.sub(blockToStartReducingEmissionRate) */\n      swap2\n      swap1\n      0xffffffff\n      and\n      jump\t// in\n    tag_344:\n        /* \"TEXOOrchestrator.sol\":16558:16612  block.number.sub(blockToStartReducingEmissionRate).div */\n      tag_226\n      swap1\n        /* \"TEXOOrchestrator.sol\":16558:16646  block.number.sub(blockToStartReducingEmissionRate).div(EMISSION_REDUCTION_PERIOD_BLOCKS) */\n      swap2\n      swap1\n      0xffffffff\n      and\n      jump\t// in\n    tag_343:\n        /* \"TEXOOrchestrator.sol\":16535:16646  uint256 currentIndex = block.number.sub(blockToStartReducingEmissionRate).div(EMISSION_REDUCTION_PERIOD_BLOCKS) */\n      swap1\n      pop\n        /* \"TEXOOrchestrator.sol\":16676:16700  lastReductionPeriodIndex */\n      sload(0x0f)\n        /* \"TEXOOrchestrator.sol\":16660:16672  currentIndex */\n      dup2\n        /* \"TEXOOrchestrator.sol\":16660:16700  currentIndex <= lastReductionPeriodIndex */\n      gt\n        /* \"TEXOOrchestrator.sol\":16656:16733  if (currentIndex <= lastReductionPeriodIndex) {... */\n      tag_345\n      jumpi\n        /* \"TEXOOrchestrator.sol\":16716:16723  return; */\n      pop\n      jump(tag_340)\n        /* \"TEXOOrchestrator.sol\":16656:16733  if (currentIndex <= lastReductionPeriodIndex) {... */\n    tag_345:\n        /* \"TEXOOrchestrator.sol\":16743:16766  uint256 newEmissionRate */\n      0x00\n        /* \"TEXOOrchestrator.sol\":16769:16781  tEXOPerBlock */\n      sload(0x04)\n        /* \"TEXOOrchestrator.sol\":16743:16781  uint256 newEmissionRate = tEXOPerBlock */\n      swap1\n      pop\n        /* \"TEXOOrchestrator.sol\":16796:16809  uint256 index */\n      0x00\n        /* \"TEXOOrchestrator.sol\":16812:16836  lastReductionPeriodIndex */\n      sload(0x0f)\n        /* \"TEXOOrchestrator.sol\":16796:16836  uint256 index = lastReductionPeriodIndex */\n      swap1\n      pop\n        /* \"TEXOOrchestrator.sol\":16791:17016  for (uint256 index = lastReductionPeriodIndex; index < currentIndex; ++index) {... */\n    tag_346:\n        /* \"TEXOOrchestrator.sol\":16846:16858  currentIndex */\n      dup3\n        /* \"TEXOOrchestrator.sol\":16838:16843  index */\n      dup2\n        /* \"TEXOOrchestrator.sol\":16838:16858  index < currentIndex */\n      lt\n        /* \"TEXOOrchestrator.sol\":16791:17016  for (uint256 index = lastReductionPeriodIndex; index < currentIndex; ++index) {... */\n      iszero\n      tag_347\n      jumpi\n        /* \"TEXOOrchestrator.sol\":16901:17005  newEmissionRate... */\n      tag_349\n        /* \"TEXOOrchestrator.sol\":17001:17004  1e4 */\n      0x2710\n        /* \"TEXOOrchestrator.sol\":16901:16979  newEmissionRate... */\n      tag_350\n        /* \"TEXOOrchestrator.sol\":3698:3702  1500 */\n      0x05dc\n        /* \"TEXOOrchestrator.sol\":16938:16941  1e4 */\n      0x2710\n        /* \"TEXOOrchestrator.sol\":16938:16978  1e4 - EMISSION_REDUCTION_RATE_PER_PERIOD */\n      sub\n        /* \"TEXOOrchestrator.sol\":16901:16916  newEmissionRate */\n      dup6\n        /* \"TEXOOrchestrator.sol\":16901:16937  newEmissionRate... */\n      tag_225\n      swap1\n        /* \"TEXOOrchestrator.sol\":16901:16979  newEmissionRate... */\n      swap2\n      swap1\n      0xffffffff\n      and\n      jump\t// in\n    tag_350:\n        /* \"TEXOOrchestrator.sol\":16901:17000  newEmissionRate... */\n      tag_226\n      swap1\n        /* \"TEXOOrchestrator.sol\":16901:17005  newEmissionRate... */\n      swap2\n      swap1\n      0xffffffff\n      and\n      jump\t// in\n    tag_349:\n        /* \"TEXOOrchestrator.sol\":16883:17005  newEmissionRate = newEmissionRate... */\n      swap2\n      pop\n        /* \"TEXOOrchestrator.sol\":16860:16867  ++index */\n      dup1\n      0x01\n      add\n      swap1\n      pop\n        /* \"TEXOOrchestrator.sol\":16791:17016  for (uint256 index = lastReductionPeriodIndex; index < currentIndex; ++index) {... */\n      jump(tag_346)\n    tag_347:\n      pop\n        /* \"TEXOOrchestrator.sol\":3431:3441  100 finney */\n      0x016345785d8a0000\n        /* \"TEXOOrchestrator.sol\":17044:17059  newEmissionRate */\n      dup2\n        /* \"TEXOOrchestrator.sol\":17044:17083  newEmissionRate < MINIMUM_EMISSION_RATE */\n      lt\n        /* \"TEXOOrchestrator.sol\":17044:17125  newEmissionRate < MINIMUM_EMISSION_RATE ? MINIMUM_EMISSION_RATE : newEmissionRate */\n      tag_351\n      jumpi\n        /* \"TEXOOrchestrator.sol\":17110:17125  newEmissionRate */\n      dup1\n        /* \"TEXOOrchestrator.sol\":17044:17125  newEmissionRate < MINIMUM_EMISSION_RATE ? MINIMUM_EMISSION_RATE : newEmissionRate */\n      jump(tag_352)\n    tag_351:\n        /* \"TEXOOrchestrator.sol\":3431:3441  100 finney */\n      0x016345785d8a0000\n        /* \"TEXOOrchestrator.sol\":17044:17125  newEmissionRate < MINIMUM_EMISSION_RATE ? MINIMUM_EMISSION_RATE : newEmissionRate */\n    tag_352:\n        /* \"TEXOOrchestrator.sol\":17026:17125  newEmissionRate = newEmissionRate < MINIMUM_EMISSION_RATE ? MINIMUM_EMISSION_RATE : newEmissionRate */\n      swap1\n      pop\n        /* \"TEXOOrchestrator.sol\":17158:17170  tEXOPerBlock */\n      sload(0x04)\n        /* \"TEXOOrchestrator.sol\":17139:17154  newEmissionRate */\n      dup2\n        /* \"TEXOOrchestrator.sol\":17139:17170  newEmissionRate >= tEXOPerBlock */\n      lt\n        /* \"TEXOOrchestrator.sol\":17135:17203  if (newEmissionRate >= tEXOPerBlock) {... */\n      tag_353\n      jumpi\n        /* \"TEXOOrchestrator.sol\":17186:17193  return; */\n      pop\n      pop\n      jump(tag_340)\n        /* \"TEXOOrchestrator.sol\":17135:17203  if (newEmissionRate >= tEXOPerBlock) {... */\n    tag_353:\n        /* \"TEXOOrchestrator.sol\":17213:17230  massUpdatePools() */\n      tag_354\n        /* \"TEXOOrchestrator.sol\":17213:17228  massUpdatePools */\n      tag_98\n        /* \"TEXOOrchestrator.sol\":17213:17230  massUpdatePools() */\n      jump\t// in\n    tag_354:\n        /* \"TEXOOrchestrator.sol\":17268:17280  currentIndex */\n      dup2\n        /* \"TEXOOrchestrator.sol\":17241:17265  lastReductionPeriodIndex */\n      0x0f\n        /* \"TEXOOrchestrator.sol\":17241:17280  lastReductionPeriodIndex = currentIndex */\n      dup2\n      swap1\n      sstore\n      pop\n        /* \"TEXOOrchestrator.sol\":17290:17318  uint256 previousEmissionRate */\n      0x00\n        /* \"TEXOOrchestrator.sol\":17321:17333  tEXOPerBlock */\n      sload(0x04)\n        /* \"TEXOOrchestrator.sol\":17290:17333  uint256 previousEmissionRate = tEXOPerBlock */\n      swap1\n      pop\n        /* \"TEXOOrchestrator.sol\":17358:17373  newEmissionRate */\n      dup2\n        /* \"TEXOOrchestrator.sol\":17343:17355  tEXOPerBlock */\n      0x04\n        /* \"TEXOOrchestrator.sol\":17343:17373  tEXOPerBlock = newEmissionRate */\n      dup2\n      swap1\n      sstore\n      pop\n        /* \"TEXOOrchestrator.sol\":17409:17419  msg.sender */\n      caller\n        /* \"TEXOOrchestrator.sol\":17389:17459  EmissionRateUpdated(msg.sender, previousEmissionRate, newEmissionRate) */\n      0xffffffffffffffffffffffffffffffffffffffff\n      and\n      0xeedc6338c9c1ad8f3cd6c90dd09dbe98dbd57e610d3e59a17996d07acb0d9511\n        /* \"TEXOOrchestrator.sol\":17421:17441  previousEmissionRate */\n      dup3\n        /* \"TEXOOrchestrator.sol\":17443:17458  newEmissionRate */\n      dup5\n        /* \"TEXOOrchestrator.sol\":17389:17459  EmissionRateUpdated(msg.sender, previousEmissionRate, newEmissionRate) */\n      mload(0x40)\n      dup1\n      dup4\n      dup2\n      mstore\n      0x20\n      add\n      dup3\n      dup2\n      mstore\n      0x20\n      add\n      swap3\n      pop\n      pop\n      pop\n      mload(0x40)\n      dup1\n      swap2\n      sub\n      swap1\n      log2\n        /* \"TEXOOrchestrator.sol\":16179:17466  function reduceEmissionRateWithDefaultRate() public {... */\n      pop\n      pop\n      pop\n    tag_340:\n      jump\t// out\n        /* \"Ownable.sol\":1984:2091  function transferOwnership(address newOwner) public onlyOwner {... */\n    tag_158:\n        /* \"Ownable.sol\":1289:1301  _msgSender() */\n      tag_356\n        /* \"Ownable.sol\":1289:1299  _msgSender */\n      tag_161\n        /* \"Ownable.sol\":1289:1301  _msgSender() */\n      jump\t// in\n    tag_356:\n        /* \"Ownable.sol\":1279:1301  _owner == _msgSender() */\n      0xffffffffffffffffffffffffffffffffffffffff\n      and\n        /* \"Ownable.sol\":1279:1285  _owner */\n      0x00\n      dup1\n      sload\n      swap1\n      0x0100\n      exp\n      swap1\n      div\n      0xffffffffffffffffffffffffffffffffffffffff\n      and\n        /* \"Ownable.sol\":1279:1301  _owner == _msgSender() */\n      0xffffffffffffffffffffffffffffffffffffffff\n      and\n      eq\n        /* \"Ownable.sol\":1271:1338  require(_owner == _msgSender(), 'Ownable: caller is not the owner') */\n      tag_357\n      jumpi\n      mload(0x40)\n      0x08c379a000000000000000000000000000000000000000000000000000000000\n      dup2\n      mstore\n      0x04\n      add\n      dup1\n      dup1\n      0x20\n      add\n      dup3\n      dup2\n      sub\n      dup3\n      mstore\n      0x20\n      dup2\n      mstore\n      0x20\n      add\n      dup1\n      0x4f776e61626c653a2063616c6c6572206973206e6f7420746865206f776e6572\n      dup2\n      mstore\n      pop\n      0x20\n      add\n      swap2\n      pop\n      pop\n      mload(0x40)\n      dup1\n      swap2\n      sub\n      swap1\n      revert\n    tag_357:\n        /* \"Ownable.sol\":2056:2084  _transferOwnership(newOwner) */\n      tag_359\n        /* \"Ownable.sol\":2075:2083  newOwner */\n      dup2\n        /* \"Ownable.sol\":2056:2074  _transferOwnership */\n      tag_360\n        /* \"Ownable.sol\":2056:2084  _transferOwnership(newOwner) */\n      jump\t// in\n    tag_359:\n        /* \"Ownable.sol\":1984:2091  function transferOwnership(address newOwner) public onlyOwner {... */\n      pop\n      jump\t// out\n        /* \"Context.sol\":780:876  function _msgSender() internal view returns (address payable) {... */\n    tag_161:\n        /* \"Context.sol\":825:840  address payable */\n      0x00\n        /* \"Context.sol\":859:869  msg.sender */\n      caller\n        /* \"Context.sol\":852:869  return msg.sender */\n      swap1\n      pop\n        /* \"Context.sol\":780:876  function _msgSender() internal view returns (address payable) {... */\n      swap1\n      jump\t// out\n        /* \"SafeMath.sol\":1322:1456  function sub(uint256 a, uint256 b) internal pure returns (uint256) {... */\n    tag_172:\n        /* \"SafeMath.sol\":1380:1387  uint256 */\n      0x00\n        /* \"SafeMath.sol\":1406:1449  sub(a, b, 'SafeMath: subtraction overflow') */\n      tag_363\n        /* \"SafeMath.sol\":1410:1411  a */\n      dup4\n        /* \"SafeMath.sol\":1413:1414  b */\n      dup4\n        /* \"SafeMath.sol\":1406:1449  sub(a, b, 'SafeMath: subtraction overflow') */\n      mload(0x40)\n      dup1\n      0x40\n      add\n      0x40\n      mstore\n      dup1\n      0x1e\n      dup2\n      mstore\n      0x20\n      add\n      0x536166654d6174683a207375627472616374696f6e206f766572666c6f770000\n      dup2\n      mstore\n      pop\n        /* \"SafeMath.sol\":1406:1409  sub */\n      tag_364\n        /* \"SafeMath.sol\":1406:1449  sub(a, b, 'SafeMath: subtraction overflow') */\n      jump\t// in\n    tag_363:\n        /* \"SafeMath.sol\":1399:1449  return sub(a, b, 'SafeMath: subtraction overflow') */\n      swap1\n      pop\n        /* \"SafeMath.sol\":1322:1456  function sub(uint256 a, uint256 b) internal pure returns (uint256) {... */\n      swap3\n      swap2\n      pop\n      pop\n      jump\t// out\n        /* \"SafeMath.sol\":875:1051  function add(uint256 a, uint256 b) internal pure returns (uint256) {... */\n    tag_173:\n        /* \"SafeMath.sol\":933:940  uint256 */\n      0x00\n        /* \"SafeMath.sol\":952:961  uint256 c */\n      dup1\n        /* \"SafeMath.sol\":968:969  b */\n      dup3\n        /* \"SafeMath.sol\":964:965  a */\n      dup5\n        /* \"SafeMath.sol\":964:969  a + b */\n      add\n        /* \"SafeMath.sol\":952:969  uint256 c = a + b */\n      swap1\n      pop\n        /* \"SafeMath.sol\":992:993  a */\n      dup4\n        /* \"SafeMath.sol\":987:988  c */\n      dup2\n        /* \"SafeMath.sol\":987:993  c >= a */\n      lt\n      iszero\n        /* \"SafeMath.sol\":979:1025  require(c >= a, 'SafeMath: addition overflow') */\n      tag_366\n      jumpi\n      mload(0x40)\n      0x08c379a000000000000000000000000000000000000000000000000000000000\n      dup2\n      mstore\n      0x04\n      add\n      dup1\n      dup1\n      0x20\n      add\n      dup3\n      dup2\n      sub\n      dup3\n      mstore\n      0x1b\n      dup2\n      mstore\n      0x20\n      add\n      dup1\n      0x536166654d6174683a206164646974696f6e206f766572666c6f770000000000\n      dup2\n      mstore\n      pop\n      0x20\n      add\n      swap2\n      pop\n      pop\n      mload(0x40)\n      dup1\n      swap2\n      sub\n      swap1\n      revert\n    tag_366:\n        /* \"SafeMath.sol\":1043:1044  c */\n      dup1\n        /* \"SafeMath.sol\":1036:1044  return c */\n      swap2\n      pop\n      pop\n        /* \"SafeMath.sol\":875:1051  function add(uint256 a, uint256 b) internal pure returns (uint256) {... */\n      swap3\n      swap2\n      pop\n      pop\n      jump\t// out\n        /* \"TEXOOrchestrator.sol\":13608:14408  function payOrLockupPendingTEXO(uint256 _pid) internal {... */\n    tag_218:\n        /* \"TEXOOrchestrator.sol\":13673:13694  PoolInfo storage pool */\n      0x00\n        /* \"TEXOOrchestrator.sol\":13697:13705  poolInfo */\n      0x07\n        /* \"TEXOOrchestrator.sol\":13706:13710  _pid */\n      dup3\n        /* \"TEXOOrchestrator.sol\":13697:13711  poolInfo[_pid] */\n      dup2\n      sload\n      dup2\n      lt\n      tag_368\n      jumpi\n      invalid\n    tag_368:\n      swap1\n      0x00\n      mstore\n      keccak256(0x00, 0x20)\n      swap1\n      0x07\n      mul\n      add\n        /* \"TEXOOrchestrator.sol\":13673:13711  PoolInfo storage pool = poolInfo[_pid] */\n      swap1\n      pop\n        /* \"TEXOOrchestrator.sol\":13721:13742  UserInfo storage user */\n      0x00\n        /* \"TEXOOrchestrator.sol\":13745:13753  userInfo */\n      0x08\n        /* \"TEXOOrchestrator.sol\":13745:13759  userInfo[_pid] */\n      0x00\n        /* \"TEXOOrchestrator.sol\":13754:13758  _pid */\n      dup5\n        /* \"TEXOOrchestrator.sol\":13745:13759  userInfo[_pid] */\n      dup2\n      mstore\n      0x20\n      add\n      swap1\n      dup2\n      mstore\n      0x20\n      add\n      0x00\n      keccak256\n        /* \"TEXOOrchestrator.sol\":13745:13771  userInfo[_pid][msg.sender] */\n      0x00\n        /* \"TEXOOrchestrator.sol\":13760:13770  msg.sender */\n      caller\n        /* \"TEXOOrchestrator.sol\":13745:13771  userInfo[_pid][msg.sender] */\n      0xffffffffffffffffffffffffffffffffffffffff\n      and\n      0xffffffffffffffffffffffffffffffffffffffff\n      and\n      dup2\n      mstore\n      0x20\n      add\n      swap1\n      dup2\n      mstore\n      0x20\n      add\n      0x00\n      keccak256\n        /* \"TEXOOrchestrator.sol\":13721:13771  UserInfo storage user = userInfo[_pid][msg.sender] */\n      swap1\n      pop\n        /* \"TEXOOrchestrator.sol\":13782:13797  uint256 pending */\n      0x00\n        /* \"TEXOOrchestrator.sol\":13800:13907  user.amount... */\n      tag_370\n        /* \"TEXOOrchestrator.sol\":13891:13895  user */\n      dup3\n        /* \"TEXOOrchestrator.sol\":13891:13906  user.rewardDebt */\n      0x01\n      add\n      sload\n        /* \"TEXOOrchestrator.sol\":13800:13873  user.amount... */\n      tag_371\n        /* \"TEXOOrchestrator.sol\":13868:13872  1e12 */\n      0xe8d4a51000\n        /* \"TEXOOrchestrator.sol\":13800:13850  user.amount... */\n      tag_372\n        /* \"TEXOOrchestrator.sol\":13829:13833  pool */\n      dup8\n        /* \"TEXOOrchestrator.sol\":13829:13849  pool.accTEXOPerShare */\n      0x05\n      add\n      sload\n        /* \"TEXOOrchestrator.sol\":13800:13804  user */\n      dup8\n        /* \"TEXOOrchestrator.sol\":13800:13811  user.amount */\n      0x00\n      add\n      sload\n        /* \"TEXOOrchestrator.sol\":13800:13828  user.amount... */\n      tag_225\n      swap1\n        /* \"TEXOOrchestrator.sol\":13800:13850  user.amount... */\n      swap2\n      swap1\n      0xffffffff\n      and\n      jump\t// in\n    tag_372:\n        /* \"TEXOOrchestrator.sol\":13800:13867  user.amount... */\n      tag_226\n      swap1\n        /* \"TEXOOrchestrator.sol\":13800:13873  user.amount... */\n      swap2\n      swap1\n      0xffffffff\n      and\n      jump\t// in\n    tag_371:\n        /* \"TEXOOrchestrator.sol\":13800:13890  user.amount... */\n      tag_172\n      swap1\n        /* \"TEXOOrchestrator.sol\":13800:13907  user.amount... */\n      swap2\n      swap1\n      0xffffffff\n      and\n      jump\t// in\n    tag_370:\n        /* \"TEXOOrchestrator.sol\":13782:13907  uint256 pending = user.amount... */\n      swap1\n      pop\n        /* \"TEXOOrchestrator.sol\":13922:13942  canClaimReward(_pid) */\n      tag_373\n        /* \"TEXOOrchestrator.sol\":13937:13941  _pid */\n      dup5\n        /* \"TEXOOrchestrator.sol\":13922:13936  canClaimReward */\n      tag_140\n        /* \"TEXOOrchestrator.sol\":13922:13942  canClaimReward(_pid) */\n      jump\t// in\n    tag_373:\n        /* \"TEXOOrchestrator.sol\":13918:14402  if (canClaimReward(_pid)) {... */\n      iszero\n      tag_374\n      jumpi\n        /* \"TEXOOrchestrator.sol\":13972:13973  0 */\n      0x00\n        /* \"TEXOOrchestrator.sol\":13962:13969  pending */\n      dup2\n        /* \"TEXOOrchestrator.sol\":13962:13973  pending > 0 */\n      gt\n        /* \"TEXOOrchestrator.sol\":13962:14000  pending > 0 || user.rewardLockedUp > 0 */\n      dup1\n      tag_375\n      jumpi\n      pop\n        /* \"TEXOOrchestrator.sol\":13999:14000  0 */\n      0x00\n        /* \"TEXOOrchestrator.sol\":13977:13981  user */\n      dup3\n        /* \"TEXOOrchestrator.sol\":13977:13996  user.rewardLockedUp */\n      0x02\n      add\n      sload\n        /* \"TEXOOrchestrator.sol\":13977:14000  user.rewardLockedUp > 0 */\n      gt\n        /* \"TEXOOrchestrator.sol\":13962:14000  pending > 0 || user.rewardLockedUp > 0 */\n    tag_375:\n        /* \"TEXOOrchestrator.sol\":13958:14290  if (pending > 0 || user.rewardLockedUp > 0) {... */\n      iszero\n      tag_376\n      jumpi\n        /* \"TEXOOrchestrator.sol\":14020:14040  uint256 totalRewards */\n      0x00\n        /* \"TEXOOrchestrator.sol\":14043:14075  pending.add(user.rewardLockedUp) */\n      tag_377\n        /* \"TEXOOrchestrator.sol\":14055:14059  user */\n      dup4\n        /* \"TEXOOrchestrator.sol\":14055:14074  user.rewardLockedUp */\n      0x02\n      add\n      sload\n        /* \"TEXOOrchestrator.sol\":14043:14050  pending */\n      dup4\n        /* \"TEXOOrchestrator.sol\":14043:14054  pending.add */\n      tag_173\n      swap1\n        /* \"TEXOOrchestrator.sol\":14043:14075  pending.add(user.rewardLockedUp) */\n      swap2\n      swap1\n      0xffffffff\n      and\n      jump\t// in\n    tag_377:\n        /* \"TEXOOrchestrator.sol\":14020:14075  uint256 totalRewards = pending.add(user.rewardLockedUp) */\n      swap1\n      pop\n        /* \"TEXOOrchestrator.sol\":14116:14117  0 */\n      0x00\n        /* \"TEXOOrchestrator.sol\":14094:14098  user */\n      dup4\n        /* \"TEXOOrchestrator.sol\":14094:14113  user.rewardLockedUp */\n      0x02\n      add\n        /* \"TEXOOrchestrator.sol\":14094:14117  user.rewardLockedUp = 0 */\n      dup2\n      swap1\n      sstore\n      pop\n        /* \"TEXOOrchestrator.sol\":14168:14210  safeTEXOTransfer(msg.sender, totalRewards) */\n      tag_378\n        /* \"TEXOOrchestrator.sol\":14185:14195  msg.sender */\n      caller\n        /* \"TEXOOrchestrator.sol\":14197:14209  totalRewards */\n      dup3\n        /* \"TEXOOrchestrator.sol\":14168:14184  safeTEXOTransfer */\n      tag_379\n        /* \"TEXOOrchestrator.sol\":14168:14210  safeTEXOTransfer(msg.sender, totalRewards) */\n      jump\t// in\n    tag_378:\n        /* \"TEXOOrchestrator.sol\":14228:14275  payReferralCommission(msg.sender, totalRewards) */\n      tag_380\n        /* \"TEXOOrchestrator.sol\":14250:14260  msg.sender */\n      caller\n        /* \"TEXOOrchestrator.sol\":14262:14274  totalRewards */\n      dup3\n        /* \"TEXOOrchestrator.sol\":14228:14249  payReferralCommission */\n      tag_381\n        /* \"TEXOOrchestrator.sol\":14228:14275  payReferralCommission(msg.sender, totalRewards) */\n      jump\t// in\n    tag_380:\n        /* \"TEXOOrchestrator.sol\":13958:14290  if (pending > 0 || user.rewardLockedUp > 0) {... */\n      pop\n    tag_376:\n        /* \"TEXOOrchestrator.sol\":13918:14402  if (canClaimReward(_pid)) {... */\n      jump(tag_382)\n    tag_374:\n        /* \"TEXOOrchestrator.sol\":14320:14321  0 */\n      0x00\n        /* \"TEXOOrchestrator.sol\":14310:14317  pending */\n      dup2\n        /* \"TEXOOrchestrator.sol\":14310:14321  pending > 0 */\n      gt\n        /* \"TEXOOrchestrator.sol\":14306:14402  if (pending > 0) {... */\n      iszero\n      tag_383\n      jumpi\n        /* \"TEXOOrchestrator.sol\":14359:14391  user.rewardLockedUp.add(pending) */\n      tag_384\n        /* \"TEXOOrchestrator.sol\":14383:14390  pending */\n      dup2\n        /* \"TEXOOrchestrator.sol\":14359:14363  user */\n      dup4\n        /* \"TEXOOrchestrator.sol\":14359:14378  user.rewardLockedUp */\n      0x02\n      add\n      sload\n        /* \"TEXOOrchestrator.sol\":14359:14382  user.rewardLockedUp.add */\n      tag_173\n      swap1\n        /* \"TEXOOrchestrator.sol\":14359:14391  user.rewardLockedUp.add(pending) */\n      swap2\n      swap1\n      0xffffffff\n      and\n      jump\t// in\n    tag_384:\n        /* \"TEXOOrchestrator.sol\":14337:14341  user */\n      dup3\n        /* \"TEXOOrchestrator.sol\":14337:14356  user.rewardLockedUp */\n      0x02\n      add\n        /* \"TEXOOrchestrator.sol\":14337:14391  user.rewardLockedUp = user.rewardLockedUp.add(pending) */\n      dup2\n      swap1\n      sstore\n      pop\n        /* \"TEXOOrchestrator.sol\":14306:14402  if (pending > 0) {... */\n    tag_383:\n        /* \"TEXOOrchestrator.sol\":13918:14402  if (canClaimReward(_pid)) {... */\n    tag_382:\n        /* \"TEXOOrchestrator.sol\":13608:14408  function payOrLockupPendingTEXO(uint256 _pid) internal {... */\n      pop\n      pop\n      pop\n      pop\n      jump\t// out\n        /* \"SafeBEP20.sol\":677:882  function safeTransfer(... */\n    tag_222:\n        /* \"SafeBEP20.sol\":789:875  _callOptionalReturn(token, abi.encodeWithSelector(token.transfer.selector, to, value)) */\n      tag_386\n        /* \"SafeBEP20.sol\":809:814  token */\n      dup4\n        /* \"SafeBEP20.sol\":839:862  token.transfer.selector */\n      shl(0xe0, 0xa9059cbb)\n        /* \"SafeBEP20.sol\":864:866  to */\n      dup5\n        /* \"SafeBEP20.sol\":868:873  value */\n      dup5\n        /* \"SafeBEP20.sol\":816:874  abi.encodeWithSelector(token.transfer.selector, to, value) */\n      add(0x24, mload(0x40))\n      dup1\n      dup4\n      0xffffffffffffffffffffffffffffffffffffffff\n      and\n      dup2\n      mstore\n      0x20\n      add\n      dup3\n      dup2\n      mstore\n      0x20\n      add\n      swap3\n      pop\n      pop\n      pop\n      mload(0x40)\n      0x20\n      dup2\n      dup4\n      sub\n      sub\n      dup2\n      mstore\n      swap1\n      0x40\n      mstore\n      swap1\n      not(0xffffffffffffffffffffffffffffffffffffffffffffffffffffffff)\n      and\n      0x20\n      dup3\n      add\n      dup1\n      mload\n      0xffffffffffffffffffffffffffffffffffffffffffffffffffffffff\n      dup4\n      dup2\n      dup4\n      and\n      or\n      dup4\n      mstore\n      pop\n      pop\n      pop\n      pop\n        /* \"SafeBEP20.sol\":789:808  _callOptionalReturn */\n      tag_387\n        /* \"SafeBEP20.sol\":789:875  _callOptionalReturn(token, abi.encodeWithSelector(token.transfer.selector, to, value)) */\n      jump\t// in\n    tag_386:\n        /* \"SafeBEP20.sol\":677:882  function safeTransfer(... */\n      pop\n      pop\n      pop\n      jump\t// out\n        /* \"SafeMath.sol\":2211:2670  function mul(uint256 a, uint256 b) internal pure returns (uint256) {... */\n    tag_225:\n        /* \"SafeMath.sol\":2269:2276  uint256 */\n      0x00\n        /* \"SafeMath.sol\":2515:2516  0 */\n      dup1\n        /* \"SafeMath.sol\":2510:2511  a */\n      dup4\n        /* \"SafeMath.sol\":2510:2516  a == 0 */\n      eq\n        /* \"SafeMath.sol\":2506:2551  if (a == 0) {... */\n      iszero\n      tag_389\n      jumpi\n        /* \"SafeMath.sol\":2539:2540  0 */\n      0x00\n        /* \"SafeMath.sol\":2532:2540  return 0 */\n      swap1\n      pop\n      jump(tag_388)\n        /* \"SafeMath.sol\":2506:2551  if (a == 0) {... */\n    tag_389:\n        /* \"SafeMath.sol\":2561:2570  uint256 c */\n      0x00\n        /* \"SafeMath.sol\":2577:2578  b */\n      dup3\n        /* \"SafeMath.sol\":2573:2574  a */\n      dup5\n        /* \"SafeMath.sol\":2573:2578  a * b */\n      mul\n        /* \"SafeMath.sol\":2561:2578  uint256 c = a * b */\n      swap1\n      pop\n        /* \"SafeMath.sol\":2605:2606  b */\n      dup3\n        /* \"SafeMath.sol\":2600:2601  a */\n      dup5\n        /* \"SafeMath.sol\":2596:2597  c */\n      dup3\n        /* \"SafeMath.sol\":2596:2601  c / a */\n      dup2\n      tag_390\n      jumpi\n      invalid\n    tag_390:\n      div\n        /* \"SafeMath.sol\":2596:2606  c / a == b */\n      eq\n        /* \"SafeMath.sol\":2588:2644  require(c / a == b, 'SafeMath: multiplication overflow') */\n      tag_391\n      jumpi\n      mload(0x40)\n      0x08c379a000000000000000000000000000000000000000000000000000000000\n      dup2\n      mstore\n      0x04\n      add\n      dup1\n      dup1\n      0x20\n      add\n      dup3\n      dup2\n      sub\n      dup3\n      mstore\n      0x21\n      dup2\n      mstore\n      0x20\n      add\n      dup1\n      data_9113bb53c2876a3805b2c9242029423fc540a728243ce887ab24c82cf119fba3\n      0x21\n      swap2\n      codecopy\n      0x40\n      add\n      swap2\n      pop\n      pop\n      mload(0x40)\n      dup1\n      swap2\n      sub\n      swap1\n      revert\n    tag_391:\n        /* \"SafeMath.sol\":2662:2663  c */\n      dup1\n        /* \"SafeMath.sol\":2655:2663  return c */\n      swap2\n      pop\n      pop\n        /* \"SafeMath.sol\":2211:2670  function mul(uint256 a, uint256 b) internal pure returns (uint256) {... */\n    tag_388:\n      swap3\n      swap2\n      pop\n      pop\n      jump\t// out\n        /* \"SafeMath.sol\":3132:3262  function div(uint256 a, uint256 b) internal pure returns (uint256) {... */\n    tag_226:\n        /* \"SafeMath.sol\":3190:3197  uint256 */\n      0x00\n        /* \"SafeMath.sol\":3216:3255  div(a, b, 'SafeMath: division by zero') */\n      tag_393\n        /* \"SafeMath.sol\":3220:3221  a */\n      dup4\n        /* \"SafeMath.sol\":3223:3224  b */\n      dup4\n        /* \"SafeMath.sol\":3216:3255  div(a, b, 'SafeMath: division by zero') */\n      mload(0x40)\n      dup1\n      0x40\n      add\n      0x40\n      mstore\n      dup1\n      0x1a\n      dup2\n      mstore\n      0x20\n      add\n      0x536166654d6174683a206469766973696f6e206279207a65726f000000000000\n      dup2\n      mstore\n      pop\n        /* \"SafeMath.sol\":3216:3219  div */\n      tag_394\n        /* \"SafeMath.sol\":3216:3255  div(a, b, 'SafeMath: division by zero') */\n      jump\t// in\n    tag_393:\n        /* \"SafeMath.sol\":3209:3255  return div(a, b, 'SafeMath: division by zero') */\n      swap1\n      pop\n        /* \"SafeMath.sol\":3132:3262  function div(uint256 a, uint256 b) internal pure returns (uint256) {... */\n      swap3\n      swap2\n      pop\n      pop\n      jump\t// out\n        /* \"TEXOOrchestrator.sol\":9229:9547  function minCurrentBlockAndInactiveBlockIfExist(uint256 _pid) internal view returns (uint256) {... */\n    tag_231:\n        /* \"TEXOOrchestrator.sol\":9314:9321  uint256 */\n      0x00\n        /* \"TEXOOrchestrator.sol\":9333:9354  PoolInfo storage pool */\n      dup1\n        /* \"TEXOOrchestrator.sol\":9357:9365  poolInfo */\n      0x07\n        /* \"TEXOOrchestrator.sol\":9366:9370  _pid */\n      dup4\n        /* \"TEXOOrchestrator.sol\":9357:9371  poolInfo[_pid] */\n      dup2\n      sload\n      dup2\n      lt\n      tag_396\n      jumpi\n      invalid\n    tag_396:\n      swap1\n      0x00\n      mstore\n      keccak256(0x00, 0x20)\n      swap1\n      0x07\n      mul\n      add\n        /* \"TEXOOrchestrator.sol\":9333:9371  PoolInfo storage pool = poolInfo[_pid] */\n      swap1\n      pop\n        /* \"TEXOOrchestrator.sol\":9407:9408  0 */\n      0x00\n        /* \"TEXOOrchestrator.sol\":9385:9389  pool */\n      dup2\n        /* \"TEXOOrchestrator.sol\":9385:9403  pool.inActiveBlock */\n      0x03\n      add\n      sload\n        /* \"TEXOOrchestrator.sol\":9385:9408  pool.inActiveBlock == 0 */\n      eq\n        /* \"TEXOOrchestrator.sol\":9381:9454  if (pool.inActiveBlock == 0) {... */\n      iszero\n      tag_398\n      jumpi\n        /* \"TEXOOrchestrator.sol\":9431:9443  block.number */\n      number\n        /* \"TEXOOrchestrator.sol\":9424:9443  return block.number */\n      swap2\n      pop\n      pop\n      jump(tag_395)\n        /* \"TEXOOrchestrator.sol\":9381:9454  if (pool.inActiveBlock == 0) {... */\n    tag_398:\n        /* \"TEXOOrchestrator.sol\":9486:9490  pool */\n      dup1\n        /* \"TEXOOrchestrator.sol\":9486:9504  pool.inActiveBlock */\n      0x03\n      add\n      sload\n        /* \"TEXOOrchestrator.sol\":9471:9483  block.number */\n      number\n        /* \"TEXOOrchestrator.sol\":9471:9504  block.number > pool.inActiveBlock */\n      gt\n        /* \"TEXOOrchestrator.sol\":9471:9540  block.number > pool.inActiveBlock ? pool.inActiveBlock : block.number */\n      tag_399\n      jumpi\n        /* \"TEXOOrchestrator.sol\":9528:9540  block.number */\n      number\n        /* \"TEXOOrchestrator.sol\":9471:9540  block.number > pool.inActiveBlock ? pool.inActiveBlock : block.number */\n      jump(tag_400)\n    tag_399:\n        /* \"TEXOOrchestrator.sol\":9507:9511  pool */\n      dup1\n        /* \"TEXOOrchestrator.sol\":9507:9525  pool.inActiveBlock */\n      0x03\n      add\n      sload\n        /* \"TEXOOrchestrator.sol\":9471:9540  block.number > pool.inActiveBlock ? pool.inActiveBlock : block.number */\n    tag_400:\n        /* \"TEXOOrchestrator.sol\":9464:9540  return block.number > pool.inActiveBlock ? pool.inActiveBlock : block.number */\n      swap2\n      pop\n      pop\n        /* \"TEXOOrchestrator.sol\":9229:9547  function minCurrentBlockAndInactiveBlockIfExist(uint256 _pid) internal view returns (uint256) {... */\n    tag_395:\n      swap2\n      swap1\n      pop\n      jump\t// out\n        /* \"TEXOOrchestrator.sol\":18229:18570  function setReferral(address _user, address _referrer) internal {... */\n    tag_294:\n        /* \"TEXOOrchestrator.sol\":18328:18337  _referrer */\n      dup1\n        /* \"TEXOOrchestrator.sol\":18307:18338  _referrer == address(_referrer) */\n      0xffffffffffffffffffffffffffffffffffffffff\n      and\n        /* \"TEXOOrchestrator.sol\":18307:18316  _referrer */\n      dup2\n        /* \"TEXOOrchestrator.sol\":18307:18338  _referrer == address(_referrer) */\n      0xffffffffffffffffffffffffffffffffffffffff\n      and\n      eq\n        /* \"TEXOOrchestrator.sol\":18307:18372  _referrer == address(_referrer) && referrers[_user] == address(0) */\n      dup1\n      iszero\n      tag_402\n      jumpi\n      pop\n        /* \"TEXOOrchestrator.sol\":18370:18371  0 */\n      0x00\n        /* \"TEXOOrchestrator.sol\":18342:18372  referrers[_user] == address(0) */\n      0xffffffffffffffffffffffffffffffffffffffff\n      and\n        /* \"TEXOOrchestrator.sol\":18342:18351  referrers */\n      0x0b\n        /* \"TEXOOrchestrator.sol\":18342:18358  referrers[_user] */\n      0x00\n        /* \"TEXOOrchestrator.sol\":18352:18357  _user */\n      dup5\n        /* \"TEXOOrchestrator.sol\":18342:18358  referrers[_user] */\n      0xffffffffffffffffffffffffffffffffffffffff\n      and\n      0xffffffffffffffffffffffffffffffffffffffff\n      and\n      dup2\n      mstore\n      0x20\n      add\n      swap1\n      dup2\n      mstore\n      0x20\n      add\n      0x00\n      keccak256\n      0x00\n      swap1\n      sload\n      swap1\n      0x0100\n      exp\n      swap1\n      div\n      0xffffffffffffffffffffffffffffffffffffffff\n      and\n        /* \"TEXOOrchestrator.sol\":18342:18372  referrers[_user] == address(0) */\n      0xffffffffffffffffffffffffffffffffffffffff\n      and\n      eq\n        /* \"TEXOOrchestrator.sol\":18307:18372  _referrer == address(_referrer) && referrers[_user] == address(0) */\n    tag_402:\n        /* \"TEXOOrchestrator.sol\":18307:18399  _referrer == address(_referrer) && referrers[_user] == address(0) && _referrer != address(0) */\n      dup1\n      iszero\n      tag_403\n      jumpi\n      pop\n        /* \"TEXOOrchestrator.sol\":18397:18398  0 */\n      0x00\n        /* \"TEXOOrchestrator.sol\":18376:18399  _referrer != address(0) */\n      0xffffffffffffffffffffffffffffffffffffffff\n      and\n        /* \"TEXOOrchestrator.sol\":18376:18385  _referrer */\n      dup2\n        /* \"TEXOOrchestrator.sol\":18376:18399  _referrer != address(0) */\n      0xffffffffffffffffffffffffffffffffffffffff\n      and\n      eq\n      iszero\n        /* \"TEXOOrchestrator.sol\":18307:18399  _referrer == address(_referrer) && referrers[_user] == address(0) && _referrer != address(0) */\n    tag_403:\n        /* \"TEXOOrchestrator.sol\":18307:18421  _referrer == address(_referrer) && referrers[_user] == address(0) && _referrer != address(0) && _referrer != _user */\n      dup1\n      iszero\n      tag_404\n      jumpi\n      pop\n        /* \"TEXOOrchestrator.sol\":18416:18421  _user */\n      dup2\n        /* \"TEXOOrchestrator.sol\":18403:18421  _referrer != _user */\n      0xffffffffffffffffffffffffffffffffffffffff\n      and\n        /* \"TEXOOrchestrator.sol\":18403:18412  _referrer */\n      dup2\n        /* \"TEXOOrchestrator.sol\":18403:18421  _referrer != _user */\n      0xffffffffffffffffffffffffffffffffffffffff\n      and\n      eq\n      iszero\n        /* \"TEXOOrchestrator.sol\":18307:18421  _referrer == address(_referrer) && referrers[_user] == address(0) && _referrer != address(0) && _referrer != _user */\n    tag_404:\n        /* \"TEXOOrchestrator.sol\":18303:18564  if (_referrer == address(_referrer) && referrers[_user] == address(0) && _referrer != address(0) && _referrer != _user) {... */\n      iszero\n      tag_405\n      jumpi\n        /* \"TEXOOrchestrator.sol\":18456:18465  _referrer */\n      dup1\n        /* \"TEXOOrchestrator.sol\":18437:18446  referrers */\n      0x0b\n        /* \"TEXOOrchestrator.sol\":18437:18453  referrers[_user] */\n      0x00\n        /* \"TEXOOrchestrator.sol\":18447:18452  _user */\n      dup5\n        /* \"TEXOOrchestrator.sol\":18437:18453  referrers[_user] */\n      0xffffffffffffffffffffffffffffffffffffffff\n      and\n      0xffffffffffffffffffffffffffffffffffffffff\n      and\n      dup2\n      mstore\n      0x20\n      add\n      swap1\n      dup2\n      mstore\n      0x20\n      add\n      0x00\n      keccak256\n      0x00\n        /* \"TEXOOrchestrator.sol\":18437:18465  referrers[_user] = _referrer */\n      0x0100\n      exp\n      dup2\n      sload\n      dup2\n      0xffffffffffffffffffffffffffffffffffffffff\n      mul\n      not\n      and\n      swap1\n      dup4\n      0xffffffffffffffffffffffffffffffffffffffff\n      and\n      mul\n      or\n      swap1\n      sstore\n      pop\n        /* \"TEXOOrchestrator.sol\":18507:18508  1 */\n      0x01\n        /* \"TEXOOrchestrator.sol\":18479:18492  referredCount */\n      0x0c\n        /* \"TEXOOrchestrator.sol\":18479:18503  referredCount[_referrer] */\n      0x00\n        /* \"TEXOOrchestrator.sol\":18493:18502  _referrer */\n      dup4\n        /* \"TEXOOrchestrator.sol\":18479:18503  referredCount[_referrer] */\n      0xffffffffffffffffffffffffffffffffffffffff\n      and\n      0xffffffffffffffffffffffffffffffffffffffff\n      and\n      dup2\n      mstore\n      0x20\n      add\n      swap1\n      dup2\n      mstore\n      0x20\n      add\n      0x00\n      keccak256\n      0x00\n        /* \"TEXOOrchestrator.sol\":18479:18508  referredCount[_referrer] += 1 */\n      dup3\n      dup3\n      sload\n      add\n      swap3\n      pop\n      pop\n      dup2\n      swap1\n      sstore\n      pop\n        /* \"TEXOOrchestrator.sol\":18543:18552  _referrer */\n      dup1\n        /* \"TEXOOrchestrator.sol\":18527:18553  Referral(_user, _referrer) */\n      0xffffffffffffffffffffffffffffffffffffffff\n      and\n        /* \"TEXOOrchestrator.sol\":18536:18541  _user */\n      dup3\n        /* \"TEXOOrchestrator.sol\":18527:18553  Referral(_user, _referrer) */\n      0xffffffffffffffffffffffffffffffffffffffff\n      and\n      0x9d05414fb79fac216c15606de5cc06664e91a254e4d5f57664d5f1beaf7fb7ef\n      mload(0x40)\n      mload(0x40)\n      dup1\n      swap2\n      sub\n      swap1\n      log3\n        /* \"TEXOOrchestrator.sol\":18303:18564  if (_referrer == address(_referrer) && referrers[_user] == address(0) && _referrer != address(0) && _referrer != _user) {... */\n    tag_405:\n        /* \"TEXOOrchestrator.sol\":18229:18570  function setReferral(address _user, address _referrer) internal {... */\n      pop\n      pop\n      jump\t// out\n        /* \"SafeBEP20.sol\":888:1129  function safeTransferFrom(... */\n    tag_297:\n        /* \"SafeBEP20.sol\":1026:1122  _callOptionalReturn(token, abi.encodeWithSelector(token.transferFrom.selector, from, to, value)) */\n      tag_407\n        /* \"SafeBEP20.sol\":1046:1051  token */\n      dup5\n        /* \"SafeBEP20.sol\":1076:1103  token.transferFrom.selector */\n      shl(0xe0, 0x23b872dd)\n        /* \"SafeBEP20.sol\":1105:1109  from */\n      dup6\n        /* \"SafeBEP20.sol\":1111:1113  to */\n      dup6\n        /* \"SafeBEP20.sol\":1115:1120  value */\n      dup6\n        /* \"SafeBEP20.sol\":1053:1121  abi.encodeWithSelector(token.transferFrom.selector, from, to, value) */\n      add(0x24, mload(0x40))\n      dup1\n      dup5\n      0xffffffffffffffffffffffffffffffffffffffff\n      and\n      dup2\n      mstore\n      0x20\n      add\n      dup4\n      0xffffffffffffffffffffffffffffffffffffffff\n      and\n      dup2\n      mstore\n      0x20\n      add\n      dup3\n      dup2\n      mstore\n      0x20\n      add\n      swap4\n      pop\n      pop\n      pop\n      pop\n      mload(0x40)\n      0x20\n      dup2\n      dup4\n      sub\n      sub\n      dup2\n      mstore\n      swap1\n      0x40\n      mstore\n      swap1\n      not(0xffffffffffffffffffffffffffffffffffffffffffffffffffffffff)\n      and\n      0x20\n      dup3\n      add\n      dup1\n      mload\n      0xffffffffffffffffffffffffffffffffffffffffffffffffffffffff\n      dup4\n      dup2\n      dup4\n      and\n      or\n      dup4\n      mstore\n      pop\n      pop\n      pop\n      pop\n        /* \"SafeBEP20.sol\":1026:1045  _callOptionalReturn */\n      tag_387\n        /* \"SafeBEP20.sol\":1026:1122  _callOptionalReturn(token, abi.encodeWithSelector(token.transferFrom.selector, from, to, value)) */\n      jump\t// in\n    tag_407:\n        /* \"SafeBEP20.sol\":888:1129  function safeTransferFrom(... */\n      pop\n      pop\n      pop\n      pop\n      jump\t// out\n        /* \"Ownable.sol\":2192:2417  function _transferOwnership(address newOwner) internal {... */\n    tag_360:\n        /* \"Ownable.sol\":2285:2286  0 */\n      0x00\n        /* \"Ownable.sol\":2265:2287  newOwner != address(0) */\n      0xffffffffffffffffffffffffffffffffffffffff\n      and\n        /* \"Ownable.sol\":2265:2273  newOwner */\n      dup2\n        /* \"Ownable.sol\":2265:2287  newOwner != address(0) */\n      0xffffffffffffffffffffffffffffffffffffffff\n      and\n      eq\n      iszero\n        /* \"Ownable.sol\":2257:2330  require(newOwner != address(0), 'Ownable: new owner is the zero address') */\n      tag_409\n      jumpi\n      mload(0x40)\n      0x08c379a000000000000000000000000000000000000000000000000000000000\n      dup2\n      mstore\n      0x04\n      add\n      dup1\n      dup1\n      0x20\n      add\n      dup3\n      dup2\n      sub\n      dup3\n      mstore\n      0x26\n      dup2\n      mstore\n      0x20\n      add\n      dup1\n      data_245f15ff17f551913a7a18385165551503906a406f905ac1c2437281a7cd0cfe\n      0x26\n      swap2\n      codecopy\n      0x40\n      add\n      swap2\n      pop\n      pop\n      mload(0x40)\n      dup1\n      swap2\n      sub\n      swap1\n      revert\n    tag_409:\n        /* \"Ownable.sol\":2374:2382  newOwner */\n      dup1\n        /* \"Ownable.sol\":2345:2383  OwnershipTransferred(_owner, newOwner) */\n      0xffffffffffffffffffffffffffffffffffffffff\n      and\n        /* \"Ownable.sol\":2366:2372  _owner */\n      0x00\n      dup1\n      sload\n      swap1\n      0x0100\n      exp\n      swap1\n      div\n      0xffffffffffffffffffffffffffffffffffffffff\n      and\n        /* \"Ownable.sol\":2345:2383  OwnershipTransferred(_owner, newOwner) */\n      0xffffffffffffffffffffffffffffffffffffffff\n      and\n      0x8be0079c531659141344cd1fd0a4f28419497f9722a3daafe3b4186f6b6457e0\n      mload(0x40)\n      mload(0x40)\n      dup1\n      swap2\n      sub\n      swap1\n      log3\n        /* \"Ownable.sol\":2402:2410  newOwner */\n      dup1\n        /* \"Ownable.sol\":2393:2399  _owner */\n      0x00\n      dup1\n        /* \"Ownable.sol\":2393:2410  _owner = newOwner */\n      0x0100\n      exp\n      dup2\n      sload\n      dup2\n      0xffffffffffffffffffffffffffffffffffffffff\n      mul\n      not\n      and\n      swap1\n      dup4\n      0xffffffffffffffffffffffffffffffffffffffff\n      and\n      mul\n      or\n      swap1\n      sstore\n      pop\n        /* \"Ownable.sol\":2192:2417  function _transferOwnership(address newOwner) internal {... */\n      pop\n      jump\t// out\n        /* \"SafeMath.sol\":1747:1964  function sub(... */\n    tag_364:\n        /* \"SafeMath.sol\":1863:1870  uint256 */\n      0x00\n        /* \"SafeMath.sol\":1895:1896  a */\n      dup4\n        /* \"SafeMath.sol\":1890:1891  b */\n      dup4\n        /* \"SafeMath.sol\":1890:1896  b <= a */\n      gt\n      iszero\n        /* \"SafeMath.sol\":1898:1910  errorMessage */\n      dup3\n        /* \"SafeMath.sol\":1882:1911  require(b <= a, errorMessage) */\n      swap1\n      tag_411\n      jumpi\n      mload(0x40)\n      0x08c379a000000000000000000000000000000000000000000000000000000000\n      dup2\n      mstore\n      0x04\n      add\n      dup1\n      dup1\n      0x20\n      add\n      dup3\n      dup2\n      sub\n      dup3\n      mstore\n      dup4\n      dup2\n      dup2\n      mload\n      dup2\n      mstore\n      0x20\n      add\n      swap2\n      pop\n      dup1\n      mload\n      swap1\n      0x20\n      add\n      swap1\n      dup1\n      dup4\n      dup4\n      0x00\n    tag_412:\n      dup4\n      dup2\n      lt\n      iszero\n      tag_414\n      jumpi\n      dup1\n      dup3\n      add\n      mload\n      dup2\n      dup5\n      add\n      mstore\n      0x20\n      dup2\n      add\n      swap1\n      pop\n      jump(tag_412)\n    tag_414:\n      pop\n      pop\n      pop\n      pop\n      swap1\n      pop\n      swap1\n      dup2\n      add\n      swap1\n      0x1f\n      and\n      dup1\n      iszero\n      tag_415\n      jumpi\n      dup1\n      dup3\n      sub\n      dup1\n      mload\n      0x01\n      dup4\n      0x20\n      sub\n      0x0100\n      exp\n      sub\n      not\n      and\n      dup2\n      mstore\n      0x20\n      add\n      swap2\n      pop\n    tag_415:\n      pop\n      swap3\n      pop\n      pop\n      pop\n      mload(0x40)\n      dup1\n      swap2\n      sub\n      swap1\n      revert\n    tag_411:\n      pop\n        /* \"SafeMath.sol\":1921:1930  uint256 c */\n      0x00\n        /* \"SafeMath.sol\":1937:1938  b */\n      dup4\n        /* \"SafeMath.sol\":1933:1934  a */\n      dup6\n        /* \"SafeMath.sol\":1933:1938  a - b */\n      sub\n        /* \"SafeMath.sol\":1921:1938  uint256 c = a - b */\n      swap1\n      pop\n        /* \"SafeMath.sol\":1956:1957  c */\n      dup1\n        /* \"SafeMath.sol\":1949:1957  return c */\n      swap2\n      pop\n      pop\n        /* \"SafeMath.sol\":1747:1964  function sub(... */\n      swap4\n      swap3\n      pop\n      pop\n      pop\n      jump\t// out\n        /* \"TEXOOrchestrator.sol\":14951:15370  function safeTEXOTransfer(address _to, uint256 _amount) internal {... */\n    tag_379:\n        /* \"TEXOOrchestrator.sol\":15026:15041  uint256 tEXOBal */\n      0x00\n        /* \"TEXOOrchestrator.sol\":15044:15048  tEXO */\n      0x02\n      0x00\n      swap1\n      sload\n      swap1\n      0x0100\n      exp\n      swap1\n      div\n      0xffffffffffffffffffffffffffffffffffffffff\n      and\n        /* \"TEXOOrchestrator.sol\":15044:15058  tEXO.balanceOf */\n      0xffffffffffffffffffffffffffffffffffffffff\n      and\n      0x70a08231\n        /* \"TEXOOrchestrator.sol\":15067:15071  this */\n      address\n        /* \"TEXOOrchestrator.sol\":15044:15073  tEXO.balanceOf(address(this)) */\n      mload(0x40)\n      dup3\n      0xffffffff\n      and\n      0xe0\n      shl\n      dup2\n      mstore\n      0x04\n      add\n      dup1\n      dup3\n      0xffffffffffffffffffffffffffffffffffffffff\n      and\n      dup2\n      mstore\n      0x20\n      add\n      swap2\n      pop\n      pop\n      0x20\n      mload(0x40)\n      dup1\n      dup4\n      sub\n      dup2\n      dup7\n      dup1\n      extcodesize\n      iszero\n      dup1\n      iszero\n      tag_417\n      jumpi\n      0x00\n      dup1\n      revert\n    tag_417:\n      pop\n      gas\n      staticcall\n      iszero\n      dup1\n      iszero\n      tag_419\n      jumpi\n      returndatasize\n      0x00\n      dup1\n      returndatacopy\n      revert(0x00, returndatasize)\n    tag_419:\n      pop\n      pop\n      pop\n      pop\n      mload(0x40)\n      returndatasize\n      0x20\n      dup2\n      lt\n      iszero\n      tag_420\n      jumpi\n      0x00\n      dup1\n      revert\n    tag_420:\n      dup2\n      add\n      swap1\n      dup1\n      dup1\n      mload\n      swap1\n      0x20\n      add\n      swap1\n      swap3\n      swap2\n      swap1\n      pop\n      pop\n      pop\n        /* \"TEXOOrchestrator.sol\":15026:15073  uint256 tEXOBal = tEXO.balanceOf(address(this)) */\n      swap1\n      pop\n        /* \"TEXOOrchestrator.sol\":15083:15103  bool transferSuccess */\n      0x00\n        /* \"TEXOOrchestrator.sol\":15136:15143  tEXOBal */\n      dup2\n        /* \"TEXOOrchestrator.sol\":15126:15133  _amount */\n      dup4\n        /* \"TEXOOrchestrator.sol\":15126:15143  _amount > tEXOBal */\n      gt\n        /* \"TEXOOrchestrator.sol\":15122:15291  if (_amount > tEXOBal) {... */\n      iszero\n      tag_421\n      jumpi\n        /* \"TEXOOrchestrator.sol\":15177:15181  tEXO */\n      0x02\n      0x00\n      swap1\n      sload\n      swap1\n      0x0100\n      exp\n      swap1\n      div\n      0xffffffffffffffffffffffffffffffffffffffff\n      and\n        /* \"TEXOOrchestrator.sol\":15177:15190  tEXO.transfer */\n      0xffffffffffffffffffffffffffffffffffffffff\n      and\n      0xa9059cbb\n        /* \"TEXOOrchestrator.sol\":15191:15194  _to */\n      dup6\n        /* \"TEXOOrchestrator.sol\":15196:15203  tEXOBal */\n      dup5\n        /* \"TEXOOrchestrator.sol\":15177:15204  tEXO.transfer(_to, tEXOBal) */\n      mload(0x40)\n      dup4\n      0xffffffff\n      and\n      0xe0\n      shl\n      dup2\n      mstore\n      0x04\n      add\n      dup1\n      dup4\n      0xffffffffffffffffffffffffffffffffffffffff\n      and\n      dup2\n      mstore\n      0x20\n      add\n      dup3\n      dup2\n      mstore\n      0x20\n      add\n      swap3\n      pop\n      pop\n      pop\n      0x20\n      mload(0x40)\n      dup1\n      dup4\n      sub\n      dup2\n      0x00\n      dup8\n      dup1\n      extcodesize\n      iszero\n      dup1\n      iszero\n      tag_422\n      jumpi\n      0x00\n      dup1\n      revert\n    tag_422:\n      pop\n      gas\n      call\n      iszero\n      dup1\n      iszero\n      tag_424\n      jumpi\n      returndatasize\n      0x00\n      dup1\n      returndatacopy\n      revert(0x00, returndatasize)\n    tag_424:\n      pop\n      pop\n      pop\n      pop\n      mload(0x40)\n      returndatasize\n      0x20\n      dup2\n      lt\n      iszero\n      tag_425\n      jumpi\n      0x00\n      dup1\n      revert\n    tag_425:\n      dup2\n      add\n      swap1\n      dup1\n      dup1\n      mload\n      swap1\n      0x20\n      add\n      swap1\n      swap3\n      swap2\n      swap1\n      pop\n      pop\n      pop\n        /* \"TEXOOrchestrator.sol\":15159:15204  transferSuccess = tEXO.transfer(_to, tEXOBal) */\n      swap1\n      pop\n        /* \"TEXOOrchestrator.sol\":15122:15291  if (_amount > tEXOBal) {... */\n      jump(tag_426)\n    tag_421:\n        /* \"TEXOOrchestrator.sol\":15253:15257  tEXO */\n      0x02\n      0x00\n      swap1\n      sload\n      swap1\n      0x0100\n      exp\n      swap1\n      div\n      0xffffffffffffffffffffffffffffffffffffffff\n      and\n        /* \"TEXOOrchestrator.sol\":15253:15266  tEXO.transfer */\n      0xffffffffffffffffffffffffffffffffffffffff\n      and\n      0xa9059cbb\n        /* \"TEXOOrchestrator.sol\":15267:15270  _to */\n      dup6\n        /* \"TEXOOrchestrator.sol\":15272:15279  _amount */\n      dup6\n        /* \"TEXOOrchestrator.sol\":15253:15280  tEXO.transfer(_to, _amount) */\n      mload(0x40)\n      dup4\n      0xffffffff\n      and\n      0xe0\n      shl\n      dup2\n      mstore\n      0x04\n      add\n      dup1\n      dup4\n      0xffffffffffffffffffffffffffffffffffffffff\n      and\n      dup2\n      mstore\n      0x20\n      add\n      dup3\n      dup2\n      mstore\n      0x20\n      add\n      swap3\n      pop\n      pop\n      pop\n      0x20\n      mload(0x40)\n      dup1\n      dup4\n      sub\n      dup2\n      0x00\n      dup8\n      dup1\n      extcodesize\n      iszero\n      dup1\n      iszero\n      tag_427\n      jumpi\n      0x00\n      dup1\n      revert\n    tag_427:\n      pop\n      gas\n      call\n      iszero\n      dup1\n      iszero\n      tag_429\n      jumpi\n      returndatasize\n      0x00\n      dup1\n      returndatacopy\n      revert(0x00, returndatasize)\n    tag_429:\n      pop\n      pop\n      pop\n      pop\n      mload(0x40)\n      returndatasize\n      0x20\n      dup2\n      lt\n      iszero\n      tag_430\n      jumpi\n      0x00\n      dup1\n      revert\n    tag_430:\n      dup2\n      add\n      swap1\n      dup1\n      dup1\n      mload\n      swap1\n      0x20\n      add\n      swap1\n      swap3\n      swap2\n      swap1\n      pop\n      pop\n      pop\n        /* \"TEXOOrchestrator.sol\":15235:15280  transferSuccess = tEXO.transfer(_to, _amount) */\n      swap1\n      pop\n        /* \"TEXOOrchestrator.sol\":15122:15291  if (_amount > tEXOBal) {... */\n    tag_426:\n        /* \"TEXOOrchestrator.sol\":15309:15324  transferSuccess */\n      dup1\n        /* \"TEXOOrchestrator.sol\":15301:15363  require(transferSuccess, \"safeTEXOTransfer: transfer failed.\") */\n      tag_431\n      jumpi\n      mload(0x40)\n      0x08c379a000000000000000000000000000000000000000000000000000000000\n      dup2\n      mstore\n      0x04\n      add\n      dup1\n      dup1\n      0x20\n      add\n      dup3\n      dup2\n      sub\n      dup3\n      mstore\n      0x22\n      dup2\n      mstore\n      0x20\n      add\n      dup1\n      data_b18210ea07272ab041e61cb97e7415fcdcf1ae3c702794efc111000f6c3144a5\n      0x22\n      swap2\n      codecopy\n      0x40\n      add\n      swap2\n      pop\n      pop\n      mload(0x40)\n      dup1\n      swap2\n      sub\n      swap1\n      revert\n    tag_431:\n        /* \"TEXOOrchestrator.sol\":14951:15370  function safeTEXOTransfer(address _to, uint256 _amount) internal {... */\n      pop\n      pop\n      pop\n      pop\n      jump\t// out\n        /* \"TEXOOrchestrator.sol\":18801:19202  function payReferralCommission(address _user, uint256 _pending) internal {... */\n    tag_381:\n        /* \"TEXOOrchestrator.sol\":18884:18900  address referrer */\n      0x00\n        /* \"TEXOOrchestrator.sol\":18903:18921  getReferral(_user) */\n      tag_433\n        /* \"TEXOOrchestrator.sol\":18915:18920  _user */\n      dup4\n        /* \"TEXOOrchestrator.sol\":18903:18914  getReferral */\n      tag_75\n        /* \"TEXOOrchestrator.sol\":18903:18921  getReferral(_user) */\n      jump\t// in\n    tag_433:\n        /* \"TEXOOrchestrator.sol\":18884:18921  address referrer = getReferral(_user) */\n      swap1\n      pop\n        /* \"TEXOOrchestrator.sol\":18955:18956  0 */\n      0x00\n        /* \"TEXOOrchestrator.sol\":18935:18957  referrer != address(0) */\n      0xffffffffffffffffffffffffffffffffffffffff\n      and\n        /* \"TEXOOrchestrator.sol\":18935:18943  referrer */\n      dup2\n        /* \"TEXOOrchestrator.sol\":18935:18957  referrer != address(0) */\n      0xffffffffffffffffffffffffffffffffffffffff\n      and\n      eq\n      iszero\n        /* \"TEXOOrchestrator.sol\":18935:18978  referrer != address(0) && referrer != _user */\n      dup1\n      iszero\n      tag_434\n      jumpi\n      pop\n        /* \"TEXOOrchestrator.sol\":18973:18978  _user */\n      dup3\n        /* \"TEXOOrchestrator.sol\":18961:18978  referrer != _user */\n      0xffffffffffffffffffffffffffffffffffffffff\n      and\n        /* \"TEXOOrchestrator.sol\":18961:18969  referrer */\n      dup2\n        /* \"TEXOOrchestrator.sol\":18961:18978  referrer != _user */\n      0xffffffffffffffffffffffffffffffffffffffff\n      and\n      eq\n      iszero\n        /* \"TEXOOrchestrator.sol\":18935:18978  referrer != address(0) && referrer != _user */\n    tag_434:\n        /* \"TEXOOrchestrator.sol\":18935:18996  referrer != address(0) && referrer != _user && refBonusBP > 0 */\n      dup1\n      iszero\n      tag_435\n      jumpi\n      pop\n        /* \"TEXOOrchestrator.sol\":18995:18996  0 */\n      0x00\n        /* \"TEXOOrchestrator.sol\":18982:18992  refBonusBP */\n      sload(0x0a)\n        /* \"TEXOOrchestrator.sol\":18982:18996  refBonusBP > 0 */\n      gt\n        /* \"TEXOOrchestrator.sol\":18935:18996  referrer != address(0) && referrer != _user && refBonusBP > 0 */\n    tag_435:\n        /* \"TEXOOrchestrator.sol\":18931:19196  if (referrer != address(0) && referrer != _user && refBonusBP > 0) {... */\n      iszero\n      tag_436\n      jumpi\n        /* \"TEXOOrchestrator.sol\":19012:19034  uint256 refBonusEarned */\n      0x00\n        /* \"TEXOOrchestrator.sol\":19037:19072  _pending.mul(refBonusBP).div(10000) */\n      tag_437\n        /* \"TEXOOrchestrator.sol\":19066:19071  10000 */\n      0x2710\n        /* \"TEXOOrchestrator.sol\":19037:19061  _pending.mul(refBonusBP) */\n      tag_438\n        /* \"TEXOOrchestrator.sol\":19050:19060  refBonusBP */\n      sload(0x0a)\n        /* \"TEXOOrchestrator.sol\":19037:19045  _pending */\n      dup7\n        /* \"TEXOOrchestrator.sol\":19037:19049  _pending.mul */\n      tag_225\n      swap1\n        /* \"TEXOOrchestrator.sol\":19037:19061  _pending.mul(refBonusBP) */\n      swap2\n      swap1\n      0xffffffff\n      and\n      jump\t// in\n    tag_438:\n        /* \"TEXOOrchestrator.sol\":19037:19065  _pending.mul(refBonusBP).div */\n      tag_226\n      swap1\n        /* \"TEXOOrchestrator.sol\":19037:19072  _pending.mul(refBonusBP).div(10000) */\n      swap2\n      swap1\n      0xffffffff\n      and\n      jump\t// in\n    tag_437:\n        /* \"TEXOOrchestrator.sol\":19012:19072  uint256 refBonusEarned = _pending.mul(refBonusBP).div(10000) */\n      swap1\n      pop\n        /* \"TEXOOrchestrator.sol\":19086:19090  tEXO */\n      0x02\n      0x00\n      swap1\n      sload\n      swap1\n      0x0100\n      exp\n      swap1\n      div\n      0xffffffffffffffffffffffffffffffffffffffff\n      and\n        /* \"TEXOOrchestrator.sol\":19086:19095  tEXO.mint */\n      0xffffffffffffffffffffffffffffffffffffffff\n      and\n      0x40c10f19\n        /* \"TEXOOrchestrator.sol\":19096:19104  referrer */\n      dup4\n        /* \"TEXOOrchestrator.sol\":19106:19120  refBonusEarned */\n      dup4\n        /* \"TEXOOrchestrator.sol\":19086:19121  tEXO.mint(referrer, refBonusEarned) */\n      mload(0x40)\n      dup4\n      0xffffffff\n      and\n      0xe0\n      shl\n      dup2\n      mstore\n      0x04\n      add\n      dup1\n      dup4\n      0xffffffffffffffffffffffffffffffffffffffff\n      and\n      dup2\n      mstore\n      0x20\n      add\n      dup3\n      dup2\n      mstore\n      0x20\n      add\n      swap3\n      pop\n      pop\n      pop\n      0x00\n      mload(0x40)\n      dup1\n      dup4\n      sub\n      dup2\n      0x00\n      dup8\n      dup1\n      extcodesize\n      iszero\n      dup1\n      iszero\n      tag_439\n      jumpi\n      0x00\n      dup1\n      revert\n    tag_439:\n      pop\n      gas\n      call\n      iszero\n      dup1\n      iszero\n      tag_441\n      jumpi\n      returndatasize\n      0x00\n      dup1\n      returndatacopy\n      revert(0x00, returndatasize)\n    tag_441:\n      pop\n      pop\n      pop\n      pop\n        /* \"TEXOOrchestrator.sol\":19160:19168  referrer */\n      dup2\n        /* \"TEXOOrchestrator.sol\":19140:19185  ReferralPaid(_user, referrer, refBonusEarned) */\n      0xffffffffffffffffffffffffffffffffffffffff\n      and\n        /* \"TEXOOrchestrator.sol\":19153:19158  _user */\n      dup5\n        /* \"TEXOOrchestrator.sol\":19140:19185  ReferralPaid(_user, referrer, refBonusEarned) */\n      0xffffffffffffffffffffffffffffffffffffffff\n      and\n      0x0a721ab4682ceb61c7e4d264ef879fc419a6d764b136e7d96ef54b2053c75673\n        /* \"TEXOOrchestrator.sol\":19170:19184  refBonusEarned */\n      dup4\n        /* \"TEXOOrchestrator.sol\":19140:19185  ReferralPaid(_user, referrer, refBonusEarned) */\n      mload(0x40)\n      dup1\n      dup3\n      dup2\n      mstore\n      0x20\n      add\n      swap2\n      pop\n      pop\n      mload(0x40)\n      dup1\n      swap2\n      sub\n      swap1\n      log3\n        /* \"TEXOOrchestrator.sol\":18931:19196  if (referrer != address(0) && referrer != _user && refBonusBP > 0) {... */\n      pop\n    tag_436:\n        /* \"TEXOOrchestrator.sol\":18801:19202  function payReferralCommission(address _user, uint256 _pending) internal {... */\n      pop\n      pop\n      pop\n      jump\t// out\n        /* \"SafeBEP20.sol\":3145:3908  function _callOptionalReturn(IBEP20 token, bytes memory data) private {... */\n    tag_387:\n        /* \"SafeBEP20.sol\":3564:3587  bytes memory returndata */\n      0x60\n        /* \"SafeBEP20.sol\":3590:3659  address(token).functionCall(data, 'SafeBEP20: low-level call failed') */\n      tag_443\n        /* \"SafeBEP20.sol\":3618:3622  data */\n      dup3\n        /* \"SafeBEP20.sol\":3590:3659  address(token).functionCall(data, 'SafeBEP20: low-level call failed') */\n      mload(0x40)\n      dup1\n      0x40\n      add\n      0x40\n      mstore\n      dup1\n      0x20\n      dup2\n      mstore\n      0x20\n      add\n      0x5361666542455032303a206c6f772d6c6576656c2063616c6c206661696c6564\n      dup2\n      mstore\n      pop\n        /* \"SafeBEP20.sol\":3598:3603  token */\n      dup6\n        /* \"SafeBEP20.sol\":3590:3617  address(token).functionCall */\n      0xffffffffffffffffffffffffffffffffffffffff\n      and\n      tag_444\n      swap1\n        /* \"SafeBEP20.sol\":3590:3659  address(token).functionCall(data, 'SafeBEP20: low-level call failed') */\n      swap3\n      swap2\n      swap1\n      0xffffffff\n      and\n      jump\t// in\n    tag_443:\n        /* \"SafeBEP20.sol\":3564:3659  bytes memory returndata = address(token).functionCall(data, 'SafeBEP20: low-level call failed') */\n      swap1\n      pop\n        /* \"SafeBEP20.sol\":3693:3694  0 */\n      0x00\n        /* \"SafeBEP20.sol\":3673:3683  returndata */\n      dup2\n        /* \"SafeBEP20.sol\":3673:3690  returndata.length */\n      mload\n        /* \"SafeBEP20.sol\":3673:3694  returndata.length > 0 */\n      gt\n        /* \"SafeBEP20.sol\":3669:3902  if (returndata.length > 0) {... */\n      iszero\n      tag_445\n      jumpi\n        /* \"SafeBEP20.sol\":3825:3835  returndata */\n      dup1\n        /* \"SafeBEP20.sol\":3814:3844  abi.decode(returndata, (bool)) */\n      dup1\n      0x20\n      add\n      swap1\n      mload\n      0x20\n      dup2\n      lt\n      iszero\n      tag_446\n      jumpi\n      0x00\n      dup1\n      revert\n    tag_446:\n      dup2\n      add\n      swap1\n      dup1\n      dup1\n      mload\n      swap1\n      0x20\n      add\n      swap1\n      swap3\n      swap2\n      swap1\n      pop\n      pop\n      pop\n        /* \"SafeBEP20.sol\":3806:3891  require(abi.decode(returndata, (bool)), 'SafeBEP20: BEP20 operation did not succeed') */\n      tag_447\n      jumpi\n      mload(0x40)\n      0x08c379a000000000000000000000000000000000000000000000000000000000\n      dup2\n      mstore\n      0x04\n      add\n      dup1\n      dup1\n      0x20\n      add\n      dup3\n      dup2\n      sub\n      dup3\n      mstore\n      0x2a\n      dup2\n      mstore\n      0x20\n      add\n      dup1\n      data_21c3364d55537bf20eb8f05374e9f53f47299e1883c412f1f1135f398f2c2082\n      0x2a\n      swap2\n      codecopy\n      0x40\n      add\n      swap2\n      pop\n      pop\n      mload(0x40)\n      dup1\n      swap2\n      sub\n      swap1\n      revert\n    tag_447:\n        /* \"SafeBEP20.sol\":3669:3902  if (returndata.length > 0) {... */\n    tag_445:\n        /* \"SafeBEP20.sol\":3145:3908  function _callOptionalReturn(IBEP20 token, bytes memory data) private {... */\n      pop\n      pop\n      pop\n      jump\t// out\n        /* \"SafeMath.sol\":3744:4046  function div(... */\n    tag_394:\n        /* \"SafeMath.sol\":3860:3867  uint256 */\n      0x00\n        /* \"SafeMath.sol\":3891:3892  0 */\n      dup1\n        /* \"SafeMath.sol\":3887:3888  b */\n      dup4\n        /* \"SafeMath.sol\":3887:3892  b > 0 */\n      gt\n        /* \"SafeMath.sol\":3894:3906  errorMessage */\n      dup3\n        /* \"SafeMath.sol\":3879:3907  require(b > 0, errorMessage) */\n      swap1\n      tag_449\n      jumpi\n      mload(0x40)\n      0x08c379a000000000000000000000000000000000000000000000000000000000\n      dup2\n      mstore\n      0x04\n      add\n      dup1\n      dup1\n      0x20\n      add\n      dup3\n      dup2\n      sub\n      dup3\n      mstore\n      dup4\n      dup2\n      dup2\n      mload\n      dup2\n      mstore\n      0x20\n      add\n      swap2\n      pop\n      dup1\n      mload\n      swap1\n      0x20\n      add\n      swap1\n      dup1\n      dup4\n      dup4\n      0x00\n    tag_450:\n      dup4\n      dup2\n      lt\n      iszero\n      tag_452\n      jumpi\n      dup1\n      dup3\n      add\n      mload\n      dup2\n      dup5\n      add\n      mstore\n      0x20\n      dup2\n      add\n      swap1\n      pop\n      jump(tag_450)\n    tag_452:\n      pop\n      pop\n      pop\n      pop\n      swap1\n      pop\n      swap1\n      dup2\n      add\n      swap1\n      0x1f\n      and\n      dup1\n      iszero\n      tag_453\n      jumpi\n      dup1\n      dup3\n      sub\n      dup1\n      mload\n      0x01\n      dup4\n      0x20\n      sub\n      0x0100\n      exp\n      sub\n      not\n      and\n      dup2\n      mstore\n      0x20\n      add\n      swap2\n      pop\n    tag_453:\n      pop\n      swap3\n      pop\n      pop\n      pop\n      mload(0x40)\n      dup1\n      swap2\n      sub\n      swap1\n      revert\n    tag_449:\n      pop\n        /* \"SafeMath.sol\":3917:3926  uint256 c */\n      0x00\n        /* \"SafeMath.sol\":3933:3934  b */\n      dup4\n        /* \"SafeMath.sol\":3929:3930  a */\n      dup6\n        /* \"SafeMath.sol\":3929:3934  a / b */\n      dup2\n      tag_454\n      jumpi\n      invalid\n    tag_454:\n      div\n        /* \"SafeMath.sol\":3917:3934  uint256 c = a / b */\n      swap1\n      pop\n        /* \"SafeMath.sol\":4038:4039  c */\n      dup1\n        /* \"SafeMath.sol\":4031:4039  return c */\n      swap2\n      pop\n      pop\n        /* \"SafeMath.sol\":3744:4046  function div(... */\n      swap4\n      swap3\n      pop\n      pop\n      pop\n      jump\t// out\n        /* \"Address.sol\":3790:4014  function functionCall(... */\n    tag_444:\n        /* \"Address.sol\":3923:3935  bytes memory */\n      0x60\n        /* \"Address.sol\":3954:4007  _functionCallWithValue(target, data, 0, errorMessage) */\n      tag_456\n        /* \"Address.sol\":3977:3983  target */\n      dup5\n        /* \"Address.sol\":3985:3989  data */\n      dup5\n        /* \"Address.sol\":3991:3992  0 */\n      0x00\n        /* \"Address.sol\":3994:4006  errorMessage */\n      dup6\n        /* \"Address.sol\":3954:3976  _functionCallWithValue */\n      tag_457\n        /* \"Address.sol\":3954:4007  _functionCallWithValue(target, data, 0, errorMessage) */\n      jump\t// in\n    tag_456:\n        /* \"Address.sol\":3947:4007  return _functionCallWithValue(target, data, 0, errorMessage) */\n      swap1\n      pop\n        /* \"Address.sol\":3790:4014  function functionCall(... */\n      swap4\n      swap3\n      pop\n      pop\n      pop\n      jump\t// out\n        /* \"Address.sol\":5235:6229  function _functionCallWithValue(... */\n    tag_457:\n        /* \"Address.sol\":5403:5415  bytes memory */\n      0x60\n        /* \"Address.sol\":5435:5453  isContract(target) */\n      tag_459\n        /* \"Address.sol\":5446:5452  target */\n      dup6\n        /* \"Address.sol\":5435:5445  isContract */\n      tag_460\n        /* \"Address.sol\":5435:5453  isContract(target) */\n      jump\t// in\n    tag_459:\n        /* \"Address.sol\":5427:5487  require(isContract(target), 'Address: call to non-contract') */\n      tag_461\n      jumpi\n      mload(0x40)\n      0x08c379a000000000000000000000000000000000000000000000000000000000\n      dup2\n      mstore\n      0x04\n      add\n      dup1\n      dup1\n      0x20\n      add\n      dup3\n      dup2\n      sub\n      dup3\n      mstore\n      0x1d\n      dup2\n      mstore\n      0x20\n      add\n      dup1\n      0x416464726573733a2063616c6c20746f206e6f6e2d636f6e7472616374000000\n      dup2\n      mstore\n      pop\n      0x20\n      add\n      swap2\n      pop\n      pop\n      mload(0x40)\n      dup1\n      swap2\n      sub\n      swap1\n      revert\n    tag_461:\n        /* \"Address.sol\":5558:5570  bool success */\n      0x00\n        /* \"Address.sol\":5572:5595  bytes memory returndata */\n      0x60\n        /* \"Address.sol\":5599:5605  target */\n      dup7\n        /* \"Address.sol\":5599:5610  target.call */\n      0xffffffffffffffffffffffffffffffffffffffff\n      and\n        /* \"Address.sol\":5618:5626  weiValue */\n      dup6\n        /* \"Address.sol\":5628:5632  data */\n      dup8\n        /* \"Address.sol\":5599:5633  target.call{value: weiValue}(data) */\n      mload(0x40)\n      dup1\n      dup3\n      dup1\n      mload\n      swap1\n      0x20\n      add\n      swap1\n      dup1\n      dup4\n      dup4\n    tag_462:\n      0x20\n      dup4\n      lt\n      tag_464\n      jumpi\n      dup1\n      mload\n      dup3\n      mstore\n      0x20\n      dup3\n      add\n      swap2\n      pop\n      0x20\n      dup2\n      add\n      swap1\n      pop\n      0x20\n      dup4\n      sub\n      swap3\n      pop\n      jump(tag_462)\n    tag_464:\n      0x01\n      dup4\n      0x20\n      sub\n      0x0100\n      exp\n      sub\n      dup1\n      not\n      dup3\n      mload\n      and\n      dup2\n      dup5\n      mload\n      and\n      dup1\n      dup3\n      or\n      dup6\n      mstore\n      pop\n      pop\n      pop\n      pop\n      pop\n      pop\n      swap1\n      pop\n      add\n      swap2\n      pop\n      pop\n      0x00\n      mload(0x40)\n      dup1\n      dup4\n      sub\n      dup2\n      dup6\n      dup8\n      gas\n      call\n      swap3\n      pop\n      pop\n      pop\n      returndatasize\n      dup1\n      0x00\n      dup2\n      eq\n      tag_467\n      jumpi\n      mload(0x40)\n      swap2\n      pop\n      and(add(returndatasize, 0x3f), not(0x1f))\n      dup3\n      add\n      0x40\n      mstore\n      returndatasize\n      dup3\n      mstore\n      returndatasize\n      0x00\n      0x20\n      dup5\n      add\n      returndatacopy\n      jump(tag_466)\n    tag_467:\n      0x60\n      swap2\n      pop\n    tag_466:\n      pop\n        /* \"Address.sol\":5557:5633  (bool success, bytes memory returndata) = target.call{value: weiValue}(data) */\n      swap2\n      pop\n      swap2\n      pop\n        /* \"Address.sol\":5647:5654  success */\n      dup2\n        /* \"Address.sol\":5643:6223  if (success) {... */\n      iszero\n      tag_468\n      jumpi\n        /* \"Address.sol\":5677:5687  returndata */\n      dup1\n        /* \"Address.sol\":5670:5687  return returndata */\n      swap3\n      pop\n      pop\n      pop\n      jump(tag_458)\n        /* \"Address.sol\":5643:6223  if (success) {... */\n    tag_468:\n        /* \"Address.sol\":5808:5809  0 */\n      0x00\n        /* \"Address.sol\":5788:5798  returndata */\n      dup2\n        /* \"Address.sol\":5788:5805  returndata.length */\n      mload\n        /* \"Address.sol\":5788:5809  returndata.length > 0 */\n      gt\n        /* \"Address.sol\":5784:6213  if (returndata.length > 0) {... */\n      iszero\n      tag_470\n      jumpi\n        /* \"Address.sol\":6046:6056  returndata */\n      dup1\n        /* \"Address.sol\":6040:6057  mload(returndata) */\n      mload\n        /* \"Address.sol\":6106:6121  returndata_size */\n      dup1\n        /* \"Address.sol\":6093:6103  returndata */\n      dup3\n        /* \"Address.sol\":6089:6091  32 */\n      0x20\n        /* \"Address.sol\":6085:6104  add(32, returndata) */\n      add\n        /* \"Address.sol\":6078:6122  revert(add(32, returndata), returndata_size) */\n      revert\n        /* \"Address.sol\":5995:6140  {... */\n    tag_470:\n        /* \"Address.sol\":6185:6197  errorMessage */\n      dup4\n        /* \"Address.sol\":6178:6198  revert(errorMessage) */\n      mload(0x40)\n      0x08c379a000000000000000000000000000000000000000000000000000000000\n      dup2\n      mstore\n      0x04\n      add\n      dup1\n      dup1\n      0x20\n      add\n      dup3\n      dup2\n      sub\n      dup3\n      mstore\n      dup4\n      dup2\n      dup2\n      mload\n      dup2\n      mstore\n      0x20\n      add\n      swap2\n      pop\n      dup1\n      mload\n      swap1\n      0x20\n      add\n      swap1\n      dup1\n      dup4\n      dup4\n      0x00\n    tag_472:\n      dup4\n      dup2\n      lt\n      iszero\n      tag_474\n      jumpi\n      dup1\n      dup3\n      add\n      mload\n      dup2\n      dup5\n      add\n      mstore\n      0x20\n      dup2\n      add\n      swap1\n      pop\n      jump(tag_472)\n    tag_474:\n      pop\n      pop\n      pop\n      pop\n      swap1\n      pop\n      swap1\n      dup2\n      add\n      swap1\n      0x1f\n      and\n      dup1\n      iszero\n      tag_475\n      jumpi\n      dup1\n      dup3\n      sub\n      dup1\n      mload\n      0x01\n      dup4\n      0x20\n      sub\n      0x0100\n      exp\n      sub\n      not\n      and\n      dup2\n      mstore\n      0x20\n      add\n      swap2\n      pop\n    tag_475:\n      pop\n      swap3\n      pop\n      pop\n      pop\n      mload(0x40)\n      dup1\n      swap2\n      sub\n      swap1\n      revert\n        /* \"Address.sol\":5235:6229  function _functionCallWithValue(... */\n    tag_458:\n      swap5\n      swap4\n      pop\n      pop\n      pop\n      pop\n      jump\t// out\n        /* \"Address.sol\":718:1348  function isContract(address account) internal view returns (bool) {... */\n    tag_460:\n        /* \"Address.sol\":778:782  bool */\n      0x00\n        /* \"Address.sol\":1036:1052  bytes32 codehash */\n      dup1\n        /* \"Address.sol\":1062:1081  bytes32 accountHash */\n      0x00\n        /* \"Address.sol\":1084:1150  0xc5d2460186f7233c927e7db2dcc703c0e500b653ca82273b7bfad8045d85a470 */\n      0xc5d2460186f7233c927e7db2dcc703c0e500b653ca82273b7bfad8045d85a470\n        /* \"Address.sol\":1062:1150  bytes32 accountHash = 0xc5d2460186f7233c927e7db2dcc703c0e500b653ca82273b7bfad8045d85a470 */\n      0x00\n      shl\n      swap1\n      pop\n        /* \"Address.sol\":1263:1270  account */\n      dup4\n        /* \"Address.sol\":1251:1271  extcodehash(account) */\n      extcodehash\n        /* \"Address.sol\":1239:1271  codehash := extcodehash(account) */\n      swap2\n      pop\n        /* \"Address.sol\":1310:1321  accountHash */\n      dup1\n        /* \"Address.sol\":1298:1306  codehash */\n      dup3\n        /* \"Address.sol\":1298:1321  codehash != accountHash */\n      eq\n      iszero\n        /* \"Address.sol\":1298:1340  codehash != accountHash && codehash != 0x0 */\n      dup1\n      iszero\n      tag_477\n      jumpi\n      pop\n        /* \"Address.sol\":1337:1340  0x0 */\n      0x00\n        /* \"Address.sol\":1325:1340  codehash != 0x0 */\n      dup1\n      shl\n        /* \"Address.sol\":1325:1333  codehash */\n      dup3\n        /* \"Address.sol\":1325:1340  codehash != 0x0 */\n      eq\n      iszero\n        /* \"Address.sol\":1298:1340  codehash != accountHash && codehash != 0x0 */\n    tag_477:\n        /* \"Address.sol\":1290:1341  return (codehash != accountHash && codehash != 0x0) */\n      swap3\n      pop\n      pop\n      pop\n        /* \"Address.sol\":718:1348  function isContract(address account) internal view returns (bool) {... */\n      swap2\n      swap1\n      pop\n      jump\t// out\n    stop\n    data_0ecf01aeb804f0ae223eada9d16893a9009cdcbe208d348705dc613f9a9f5331 6164643a20696e76616c6964206465706f7369742066656520626173697320706f696e7473\n    data_20a6bce988e8b6ff5852ac398e27735d1d8155a9d79e532ec3c3da13f504a6a4 757064617465526566426f6e757350657263656e743a20696e76616c696420726566657272616c20626f6e757320626173697320706f696e7473\n    data_21c3364d55537bf20eb8f05374e9f53f47299e1883c412f1f1135f398f2c2082 5361666542455032303a204245503230206f7065726174696f6e20646964206e6f742073756363656564\n    data_245f15ff17f551913a7a18385165551503906a406f905ac1c2437281a7cd0cfe 4f776e61626c653a206e6577206f776e657220697320746865207a65726f2061646472657373\n    data_4a850434ef441d85843a8ad55252d2359c2e8d60a78973332ca10dded0d107a5 6164643a20626c6f636b20746f20726563656976652072657761726420697320726571756972656420\n    data_542d191555ea619dedb1489efd71948659c57b11c6c1a84d1c1ce6e7c8074aad 6465706f7369743a20496e76616c69642072656665727265722061646472657373\n    data_9113bb53c2876a3805b2c9242029423fc540a728243ce887ab24c82cf119fba3 536166654d6174683a206d756c7469706c69636174696f6e206f766572666c6f77\n    data_9353dfb5d58f0da66015bbcadafa0686e2e7b7226db2e603088e70c7012680cf 7365743a20696e76616c6964206465706f7369742066656520626173697320706f696e7473\n    data_9d1a761c817eae8410d2081a433553cad78dcf01ebb754f58addc464260ba484 757064617465526566426f6e757350657263656e743a2073616d6520626f6e757320627020736574\n    data_a827dd9c9a80825686eef28a9f1d2466e1d29b6da48280d16028581898989615 726564756365456d697373696f6e526174655769746844656661756c74526174653a2043616e206f6e6c792062652063616c6c65642061667465722073706563696669656420626c6f636b20737461727473\n    data_b18210ea07272ab041e61cb97e7415fcdcf1ae3c702794efc111000f6c3144a5 736166655445584f5472616e736665723a207472616e73666572206661696c65642e\n    data_bf35de78f3e15a98c58afdc189c393a6a76029783bd8ecfd3a8b87b4a628fd85 676574506f6f6c4964466f724c70546f6b656e3a20646f206e6f74206578697374\n    data_bf4862f6c2d2911dd0cebd03922326a5538d65dbdcf0050cc95b3de0fb3f3413 7365743a20626c6f636b20746f207265636569766520726577617264206973207265717569726564\n    data_d4e7846547be135afcf8a93a01a9053e9fa2c0d79f8d5448158422588210b6ab 726564756365456d697373696f6e526174655769746844656661756c74526174653a20456d697373696f6e207261746520686173207265616368656420746865206d696e696d756d207468726573686f6c64\n    data_defd5c903b3416581b5d98f5a021e4c2963664705201c58ffb06423da9b1f891 6465706f7369743a207374616b696e6720706572696f642068617320656e646564\n\n    auxdata: 0xa26469706673582212200c771faab0d153ddec6ffe9b80a94254fc660d3587be948090276783867c9be764736f6c634300060c0033\n}\n","bytecode":{"linkReferences":{},"object":"6080604052600060095560c8600a556000600f553480156200002057600080fd5b506040516200492538038062004925833981810160405260808110156200004657600080fd5b81019080805190602001909291908051906020019092919080519060200190929190805190602001909291905050506000620000876200020f60201b60201c565b9050806000806101000a81548173ffffffffffffffffffffffffffffffffffffffff021916908373ffffffffffffffffffffffffffffffffffffffff1602179055508073ffffffffffffffffffffffffffffffffffffffff16600073ffffffffffffffffffffffffffffffffffffffff167f8be0079c531659141344cd1fd0a4f28419497f9722a3daafe3b4186f6b6457e060405160405180910390a3506001808190555083600260006101000a81548173ffffffffffffffffffffffffffffffffffffffff021916908373ffffffffffffffffffffffffffffffffffffffff16021790555082600360006101000a81548173ffffffffffffffffffffffffffffffffffffffff021916908373ffffffffffffffffffffffffffffffffffffffff16021790555081600560006101000a81548173ffffffffffffffffffffffffffffffffffffffff021916908373ffffffffffffffffffffffffffffffffffffffff1602179055506706f05b59d3b20000600481905550806006819055505050505062000217565b600033905090565b6146fe80620002276000396000f3fe608060405234801561001057600080fd5b506004361061025e5760003560e01c80636a9a766011610146578063a1bdb15e116100c3578063d0d41fe111610087578063d0d41fe114610acf578063d4adafdf14610b13578063da09c72c14610b31578063dfe3d2cd14610b65578063ea76bc2914610bc7578063f2fde38b14610bd15761025e565b8063a1bdb15e146109b1578063ae715d70146109df578063b7eee1f114610a13578063ca291b1314610a31578063cbd258b514610a755761025e565b80638dbdbe6d1161010a5780638dbdbe6d1461085157806391bb809c146108a957806393f1a40b146108c7578063955c9b93146109375780639bf62f7e146109595761025e565b80636a9a766014610765578063715018a6146107835780638705fcd41461078d5780638da5cb5b146107d15780638dbb1e3a146108055761025e565b806341275358116101df57806354324b58116101a357806354324b58146106b557806361e0c468146106d3578063630b5ba1146106f157806364ed743b146106fb578063660f83401461072957806366f685ea146107475761025e565b8063412753581461057f578063441a3e70146105b35780634a3b68cc146105eb57806351eb05a6146106595780635312ea8e146106875761025e565b8063190f39f011610226578063190f39f0146104115780631eb704b0146104695780633a22df78146104975780633b0f0f2f146104b95780633f7b06d8146105275761025e565b80630326f66d14610263578063081e3eda146102c95780630b844523146102e75780631526fe271461036d57806317caf6f1146103f3575b600080fd5b6102c7600480360360c081101561027957600080fd5b810190808035906020019092919080359060200190929190803561ffff1690602001909291908035151590602001909291908035906020019092919080359060200190929190505050610c15565b005b6102d1610ead565b6040518082815260200191505060405180910390f35b61036b600480360360e08110156102fd57600080fd5b8101908080359060200190929190803573ffffffffffffffffffffffffffffffffffffffff169060200190929190803561ffff169060200190929190803515159060200190929190803590602001909291908035906020019092919080359060200190929190505050610eba565b005b6103996004803603602081101561038357600080fd5b8101908080359060200190929190505050611313565b604051808873ffffffffffffffffffffffffffffffffffffffff1681526020018781526020018681526020018581526020018481526020018381526020018261ffff16815260200197505050505050505060405180910390f35b6103fb611390565b6040518082815260200191505060405180910390f35b6104536004803603602081101561042757600080fd5b81019080803573ffffffffffffffffffffffffffffffffffffffff169060200190929190505050611396565b6040518082815260200191505060405180910390f35b6104956004803603602081101561047f57600080fd5b8101908080359060200190929190505050611488565b005b61049f6115b8565b604051808261ffff16815260200191505060405180910390f35b6104fb600480360360208110156104cf57600080fd5b81019080803573ffffffffffffffffffffffffffffffffffffffff1690602001909291905050506115be565b604051808273ffffffffffffffffffffffffffffffffffffffff16815260200191505060405180910390f35b6105696004803603602081101561053d57600080fd5b81019080803573ffffffffffffffffffffffffffffffffffffffff169060200190929190505050611627565b6040518082815260200191505060405180910390f35b61058761163f565b604051808273ffffffffffffffffffffffffffffffffffffffff16815260200191505060405180910390f35b6105e9600480360360408110156105c957600080fd5b810190808035906020019092919080359060200190929190505050611665565b005b61062d6004803603602081101561060157600080fd5b81019080803573ffffffffffffffffffffffffffffffffffffffff1690602001909291905050506118f3565b604051808273ffffffffffffffffffffffffffffffffffffffff16815260200191505060405180910390f35b6106856004803603602081101561066f57600080fd5b8101908080359060200190929190505050611926565b005b6106b36004803603602081101561069d57600080fd5b8101908080359060200190929190505050611c91565b005b6106bd611e4b565b6040518082815260200191505060405180910390f35b6106db611e51565b6040518082815260200191505060405180910390f35b6106f9611e5d565b005b6107276004803603602081101561071157600080fd5b8101908080359060200190929190505050611e8a565b005b61073161205d565b6040518082815260200191505060405180910390f35b61074f612063565b6040518082815260200191505060405180910390f35b61076d612069565b6040518082815260200191505060405180910390f35b61078b61206f565b005b6107cf600480360360208110156107a357600080fd5b81019080803573ffffffffffffffffffffffffffffffffffffffff1690602001909291905050506121f5565b005b6107d96123f9565b604051808273ffffffffffffffffffffffffffffffffffffffff16815260200191505060405180910390f35b61083b6004803603604081101561081b57600080fd5b810190808035906020019092919080359060200190929190505050612422565b6040518082815260200191505060405180910390f35b6108a76004803603606081101561086757600080fd5b810190808035906020019092919080359060200190929190803573ffffffffffffffffffffffffffffffffffffffff16906020019092919050505061243f565b005b6108b16128d3565b6040518082815260200191505060405180910390f35b610913600480360360408110156108dd57600080fd5b8101908080359060200190929190803573ffffffffffffffffffffffffffffffffffffffff1690602001909291905050506128df565b60405180848152602001838152602001828152602001935050505060405180910390f35b61093f612916565b604051808261ffff16815260200191505060405180910390f35b61099b6004803603602081101561096f57600080fd5b81019080803573ffffffffffffffffffffffffffffffffffffffff16906020019092919050505061291c565b6040518082815260200191505060405180910390f35b6109dd600480360360208110156109c757600080fd5b8101908080359060200190929190505050612934565b005b6109e7612a6c565b604051808273ffffffffffffffffffffffffffffffffffffffff16815260200191505060405180910390f35b610a1b612a92565b6040518082815260200191505060405180910390f35b610a5d60048036036020811015610a4757600080fd5b8101908080359060200190929190505050612a98565b60405180821515815260200191505060405180910390f35b610ab760048036036020811015610a8b57600080fd5b81019080803573ffffffffffffffffffffffffffffffffffffffff169060200190929190505050612ac8565b60405180821515815260200191505060405180910390f35b610b1160048036036020811015610ae557600080fd5b81019080803573ffffffffffffffffffffffffffffffffffffffff169060200190929190505050612ae8565b005b610b1b612cec565b6040518082815260200191505060405180910390f35b610b39612cf2565b604051808273ffffffffffffffffffffffffffffffffffffffff16815260200191505060405180910390f35b610bb160048036036040811015610b7b57600080fd5b8101908080359060200190929190803573ffffffffffffffffffffffffffffffffffffffff169060200190929190505050612d18565b6040518082815260200191505060405180910390f35b610bcf612f88565b005b610c1360048036036020811015610be757600080fd5b81019080803573ffffffffffffffffffffffffffffffffffffffff16906020019092919050505061317c565b005b610c1d613250565b73ffffffffffffffffffffffffffffffffffffffff1660008054906101000a900473ffffffffffffffffffffffffffffffffffffffff1673ffffffffffffffffffffffffffffffffffffffff1614610cdd576040517f08c379a00000000000000000000000000000000000000000000000000000000081526004018080602001828103825260208152602001807f4f776e61626c653a2063616c6c6572206973206e6f7420746865206f776e657281525060200191505060405180910390fd5b61019061ffff168461ffff161115610d40576040517f08c379a000000000000000000000000000000000000000000000000000000000815260040180806020018281038252602581526020018061454c6025913960400191505060405180910390fd5b60008211610d99576040517f08c379a000000000000000000000000000000000000000000000000000000000815260040180806020018281038252602881526020018061462e6028913960400191505060405180910390fd5b8215610da857610da7611e5d565b5b610ded85610ddf60078981548110610dbc57fe5b90600052602060002090600702016001015460095461325890919063ffffffff16565b6132a290919063ffffffff16565b6009819055508460078781548110610e0157fe5b9060005260206000209060070201600101819055508360078781548110610e2457fe5b906000526020600020906007020160060160006101000a81548161ffff021916908361ffff1602179055508160078781548110610e5d57fe5b90600052602060002090600702016002018190555060008111610e81576000610e83565b805b60078781548110610e9057fe5b906000526020600020906007020160030181905550505050505050565b6000600780549050905090565b610ec2613250565b73ffffffffffffffffffffffffffffffffffffffff1660008054906101000a900473ffffffffffffffffffffffffffffffffffffffff1673ffffffffffffffffffffffffffffffffffffffff1614610f82576040517f08c379a00000000000000000000000000000000000000000000000000000000081526004018080602001828103825260208152602001807f4f776e61626c653a2063616c6c6572206973206e6f7420746865206f776e657281525060200191505060405180910390fd5b8560001515600d60008373ffffffffffffffffffffffffffffffffffffffff1673ffffffffffffffffffffffffffffffffffffffff16815260200190815260200160002060009054906101000a900460ff16151514611049576040517f08c379a00000000000000000000000000000000000000000000000000000000081526004018080602001828103825260198152602001807f6e6f6e4475706c6963617465643a206475706c6963617465640000000000000081525060200191505060405180910390fd5b61019061ffff168661ffff1611156110ac576040517f08c379a00000000000000000000000000000000000000000000000000000000081526004018080602001828103825260258152602001806144326025913960400191505060405180910390fd5b60008411611105576040517f08c379a00000000000000000000000000000000000000000000000000000000081526004018080602001828103825260298152602001806144e16029913960400191505060405180910390fd5b841561111457611113611e5d565b5b611129886009546132a290919063ffffffff16565b6009819055506001600d60008973ffffffffffffffffffffffffffffffffffffffff1673ffffffffffffffffffffffffffffffffffffffff16815260200190815260200160002060006101000a81548160ff02191690831515021790555060076040518060e001604052808973ffffffffffffffffffffffffffffffffffffffff1681526020018a8152602001868152602001600085116111cb5760006111cd565b845b8152602001600086116111e057436111e2565b855b8152602001600081526020018861ffff16815250908060018154018082558091505060019003906000526020600020906007020160009091909190915060008201518160000160006101000a81548173ffffffffffffffffffffffffffffffffffffffff021916908373ffffffffffffffffffffffffffffffffffffffff1602179055506020820151816001015560408201518160020155606082015181600301556080820151816004015560a0820151816005015560c08201518160060160006101000a81548161ffff021916908361ffff1602179055505050600160078054905003600e60008973ffffffffffffffffffffffffffffffffffffffff1673ffffffffffffffffffffffffffffffffffffffff168152602001908152602001600020819055505050505050505050565b6007818154811061132057fe5b90600052602060002090600702016000915090508060000160009054906101000a900473ffffffffffffffffffffffffffffffffffffffff16908060010154908060020154908060030154908060040154908060050154908060060160009054906101000a900461ffff16905087565b60095481565b6000801515600d60008473ffffffffffffffffffffffffffffffffffffffff1673ffffffffffffffffffffffffffffffffffffffff16815260200190815260200160002060009054906101000a900460ff1615151415611441576040517f08c379a000000000000000000000000000000000000000000000000000000000815260040180806020018281038252602181526020018061460d6021913960400191505060405180910390fd5b600e60008373ffffffffffffffffffffffffffffffffffffffff1673ffffffffffffffffffffffffffffffffffffffff168152602001908152602001600020549050919050565b611490613250565b73ffffffffffffffffffffffffffffffffffffffff1660008054906101000a900473ffffffffffffffffffffffffffffffffffffffff1673ffffffffffffffffffffffffffffffffffffffff1614611550576040517f08c379a00000000000000000000000000000000000000000000000000000000081526004018080602001828103825260208152602001807f4f776e61626c653a2063616c6c6572206973206e6f7420746865206f776e657281525060200191505060405180910390fd5b60006006549050816006819055503373ffffffffffffffffffffffffffffffffffffffff167fabe024a075fcd3d0ce833cbf71173e1b743a290b0fe6f4a02121c07017f358b08284604051808381526020018281526020019250505060405180910390a25050565b6107d081565b6000600b60008373ffffffffffffffffffffffffffffffffffffffff1673ffffffffffffffffffffffffffffffffffffffff16815260200190815260200160002060009054906101000a900473ffffffffffffffffffffffffffffffffffffffff169050919050565b600c6020528060005260406000206000915090505481565b600560009054906101000a900473ffffffffffffffffffffffffffffffffffffffff1681565b600260015414156116de576040517f08c379a000000000000000000000000000000000000000000000000000000000815260040180806020018281038252601f8152602001807f5265656e7472616e637947756172643a207265656e7472616e742063616c6c0081525060200191505060405180910390fd5b60026001819055506000600783815481106116f557fe5b9060005260206000209060070201905060006008600085815260200190815260200160002060003373ffffffffffffffffffffffffffffffffffffffff1673ffffffffffffffffffffffffffffffffffffffff168152602001908152602001600020905082816000015410156117d3576040517f08c379a00000000000000000000000000000000000000000000000000000000081526004018080602001828103825260128152602001807f77697468647261773a206e6f7420676f6f64000000000000000000000000000081525060200191505060405180910390fd5b6117dc84611926565b6117e58461332a565b600083111561185d5761180583826000015461325890919063ffffffff16565b816000018190555061185c33848460000160009054906101000a900473ffffffffffffffffffffffffffffffffffffffff1673ffffffffffffffffffffffffffffffffffffffff1661347f9092919063ffffffff16565b5b61188f64e8d4a510006118818460050154846000015461352190919063ffffffff16565b6135a790919063ffffffff16565b8160010181905550833373ffffffffffffffffffffffffffffffffffffffff167ff279e6a1f5e320cca91135676d9cb6e44ca8a08c0b88342bcdb1144f6511b568856040518082815260200191505060405180910390a35050600180819055505050565b600b6020528060005260406000206000915054906101000a900473ffffffffffffffffffffffffffffffffffffffff1681565b60006007828154811061193557fe5b906000526020600020906007020190506000611950836135f1565b905081600401548111611964575050611c8e565b60008260000160009054906101000a900473ffffffffffffffffffffffffffffffffffffffff1673ffffffffffffffffffffffffffffffffffffffff166370a08231306040518263ffffffff1660e01b8152600401808273ffffffffffffffffffffffffffffffffffffffff16815260200191505060206040518083038186803b1580156119f157600080fd5b505afa158015611a05573d6000803e3d6000fd5b505050506040513d6020811015611a1b57600080fd5b810190808051906020019092919050505090506000811480611a41575060008360010154145b15611a5757818360040181905550505050611c8e565b6000611a67846004015484612422565b90506000611aaa600954611a9c8760010154611a8e6004548761352190919063ffffffff16565b61352190919063ffffffff16565b6135a790919063ffffffff16565b9050600260009054906101000a900473ffffffffffffffffffffffffffffffffffffffff1673ffffffffffffffffffffffffffffffffffffffff166340c10f19600360009054906101000a900473ffffffffffffffffffffffffffffffffffffffff16611b21600a856135a790919063ffffffff16565b6040518363ffffffff1660e01b8152600401808373ffffffffffffffffffffffffffffffffffffffff16815260200182815260200192505050600060405180830381600087803b158015611b7457600080fd5b505af1158015611b88573d6000803e3d6000fd5b50505050600260009054906101000a900473ffffffffffffffffffffffffffffffffffffffff1673ffffffffffffffffffffffffffffffffffffffff166340c10f1930836040518363ffffffff1660e01b8152600401808373ffffffffffffffffffffffffffffffffffffffff16815260200182815260200192505050600060405180830381600087803b158015611c1f57600080fd5b505af1158015611c33573d6000803e3d6000fd5b50505050611c77611c6484611c5664e8d4a510008561352190919063ffffffff16565b6135a790919063ffffffff16565b86600501546132a290919063ffffffff16565b856005018190555083856004018190555050505050505b50565b60026001541415611d0a576040517f08c379a000000000000000000000000000000000000000000000000000000000815260040180806020018281038252601f8152602001807f5265656e7472616e637947756172643a207265656e7472616e742063616c6c0081525060200191505060405180910390fd5b6002600181905550600060078281548110611d2157fe5b9060005260206000209060070201905060006008600084815260200190815260200160002060003373ffffffffffffffffffffffffffffffffffffffff1673ffffffffffffffffffffffffffffffffffffffff1681526020019081526020016000209050611dd83382600001548460000160009054906101000a900473ffffffffffffffffffffffffffffffffffffffff1673ffffffffffffffffffffffffffffffffffffffff1661347f9092919063ffffffff16565b823373ffffffffffffffffffffffffffffffffffffffff167fbb757047c2b5f3974fe26b7c10f732e7bce710b0952a71082702781e62ae059583600001546040518082815260200191505060405180910390a3600081600001819055506000816001018190555050506001808190555050565b60065481565b67016345785d8a000081565b6000600780549050905060005b81811015611e8657611e7b81611926565b806001019050611e6a565b5050565b611e92613250565b73ffffffffffffffffffffffffffffffffffffffff1660008054906101000a900473ffffffffffffffffffffffffffffffffffffffff1673ffffffffffffffffffffffffffffffffffffffff1614611f52576040517f08c379a00000000000000000000000000000000000000000000000000000000081526004018080602001828103825260208152602001807f4f776e61626c653a2063616c6c6572206973206e6f7420746865206f776e657281525060200191505060405180910390fd5b6107d061ffff16811115611fb1576040517f08c379a000000000000000000000000000000000000000000000000000000000815260040180806020018281038252603a815260200180614457603a913960400191505060405180910390fd5b600a5481141561200c576040517f08c379a00000000000000000000000000000000000000000000000000000000081526004018080602001828103825260288152602001806145716028913960400191505060405180910390fd5b6000600a54905081600a819055507f3282b692bfebf5f35b198a229212cf532c72099026ab54c4b8665382d1086b3f8183604051808381526020018281526020019250505060405180910390a15050565b60045481565b600a5481565b600f5481565b612077613250565b73ffffffffffffffffffffffffffffffffffffffff1660008054906101000a900473ffffffffffffffffffffffffffffffffffffffff1673ffffffffffffffffffffffffffffffffffffffff1614612137576040517f08c379a00000000000000000000000000000000000000000000000000000000081526004018080602001828103825260208152602001807f4f776e61626c653a2063616c6c6572206973206e6f7420746865206f776e657281525060200191505060405180910390fd5b600073ffffffffffffffffffffffffffffffffffffffff1660008054906101000a900473ffffffffffffffffffffffffffffffffffffffff1673ffffffffffffffffffffffffffffffffffffffff167f8be0079c531659141344cd1fd0a4f28419497f9722a3daafe3b4186f6b6457e060405160405180910390a360008060006101000a81548173ffffffffffffffffffffffffffffffffffffffff021916908373ffffffffffffffffffffffffffffffffffffffff160217905550565b600073ffffffffffffffffffffffffffffffffffffffff168173ffffffffffffffffffffffffffffffffffffffff161415612298576040517f08c379a000000000000000000000000000000000000000000000000000000000815260040180806020018281038252601e8152602001807f736574466565416464726573733a20696e76616c69642061646472657373000081525060200191505060405180910390fd5b600560009054906101000a900473ffffffffffffffffffffffffffffffffffffffff1673ffffffffffffffffffffffffffffffffffffffff163373ffffffffffffffffffffffffffffffffffffffff161461235b576040517f08c379a00000000000000000000000000000000000000000000000000000000081526004018080602001828103825260188152602001807f736574466565416464726573733a20464f5242494444454e000000000000000081525060200191505060405180910390fd5b80600560006101000a81548173ffffffffffffffffffffffffffffffffffffffff021916908373ffffffffffffffffffffffffffffffffffffffff1602179055508073ffffffffffffffffffffffffffffffffffffffff163373ffffffffffffffffffffffffffffffffffffffff167fd44190acf9d04bdb5d3a1aafff7e6dee8b40b93dfb8c5d3f0eea4b9f4539c3f760405160405180910390a350565b60008060009054906101000a900473ffffffffffffffffffffffffffffffffffffffff16905090565b6000612437838361325890919063ffffffff16565b905092915050565b600260015414156124b8576040517f08c379a000000000000000000000000000000000000000000000000000000000815260040180806020018281038252601f8152602001807f5265656e7472616e637947756172643a207265656e7472616e742063616c6c0081525060200191505060405180910390fd5b60026001819055508073ffffffffffffffffffffffffffffffffffffffff168173ffffffffffffffffffffffffffffffffffffffff1614612544576040517f08c379a000000000000000000000000000000000000000000000000000000000815260040180806020018281038252602181526020018061450a6021913960400191505060405180910390fd5b60006007848154811061255357fe5b906000526020600020906007020190506000816003015411156125ce5780600301544311156125cd576040517f08c379a00000000000000000000000000000000000000000000000000000000081526004018080602001828103825260218152602001806146a86021913960400191505060405180910390fd5b5b60006008600086815260200190815260200160002060003373ffffffffffffffffffffffffffffffffffffffff1673ffffffffffffffffffffffffffffffffffffffff168152602001908152602001600020905061262b85611926565b6126348561332a565b6000841180156126715750600073ffffffffffffffffffffffffffffffffffffffff168373ffffffffffffffffffffffffffffffffffffffff1614155b80156126a957503373ffffffffffffffffffffffffffffffffffffffff168373ffffffffffffffffffffffffffffffffffffffff1614155b156126b9576126b83384613647565b5b600084111561283c576127133330868560000160009054906101000a900473ffffffffffffffffffffffffffffffffffffffff1673ffffffffffffffffffffffffffffffffffffffff166138ae909392919063ffffffff16565b60008260060160009054906101000a900461ffff1661ffff16111561281b5760006127716127106127638560060160009054906101000a900461ffff1661ffff168861352190919063ffffffff16565b6135a790919063ffffffff16565b905061279c8161278e8785600001546132a290919063ffffffff16565b61325890919063ffffffff16565b8260000181905550612815600560009054906101000a900473ffffffffffffffffffffffffffffffffffffffff16828560000160009054906101000a900473ffffffffffffffffffffffffffffffffffffffff1673ffffffffffffffffffffffffffffffffffffffff1661347f9092919063ffffffff16565b5061283b565b6128328482600001546132a290919063ffffffff16565b81600001819055505b5b61286e64e8d4a510006128608460050154846000015461352190919063ffffffff16565b6135a790919063ffffffff16565b8160010181905550843373ffffffffffffffffffffffffffffffffffffffff167f90890809c654f11d6e72a28fa60149770a0d11ec6c92319d6ceb2bb0a4ea1a15866040518082815260200191505060405180910390a3505060018081905550505050565b6706f05b59d3b2000081565b6008602052816000526040600020602052806000526040600020600091509150508060000154908060010154908060020154905083565b61019081565b600e6020528060005260406000206000915090505481565b61293c613250565b73ffffffffffffffffffffffffffffffffffffffff1660008054906101000a900473ffffffffffffffffffffffffffffffffffffffff1673ffffffffffffffffffffffffffffffffffffffff16146129fc576040517f08c379a00000000000000000000000000000000000000000000000000000000081526004018080602001828103825260208152602001807f4f776e61626c653a2063616c6c6572206973206e6f7420746865206f776e657281525060200191505060405180910390fd5b6000600454905081600481905550612a12611e5d565b3373ffffffffffffffffffffffffffffffffffffffff167feedc6338c9c1ad8f3cd6c90dd09dbe98dbd57e610d3e59a17996d07acb0d95118284604051808381526020018281526020019250505060405180910390a25050565b600260009054906101000a900473ffffffffffffffffffffffffffffffffffffffff1681565b6105dc81565b60008060078381548110612aa857fe5b906000526020600020906007020190504381600201541115915050919050565b600d6020528060005260406000206000915054906101000a900460ff1681565b600073ffffffffffffffffffffffffffffffffffffffff168173ffffffffffffffffffffffffffffffffffffffff161415612b8b576040517f08c379a00000000000000000000000000000000000000000000000000000000081526004018080602001828103825260148152602001807f6465763a20696e76616c6964206164647265737300000000000000000000000081525060200191505060405180910390fd5b600360009054906101000a900473ffffffffffffffffffffffffffffffffffffffff1673ffffffffffffffffffffffffffffffffffffffff163373ffffffffffffffffffffffffffffffffffffffff1614612c4e576040517f08c379a00000000000000000000000000000000000000000000000000000000081526004018080602001828103825260098152602001807f6465763a207775743f000000000000000000000000000000000000000000000081525060200191505060405180910390fd5b80600360006101000a81548173ffffffffffffffffffffffffffffffffffffffff021916908373ffffffffffffffffffffffffffffffffffffffff1602179055508073ffffffffffffffffffffffffffffffffffffffff163373ffffffffffffffffffffffffffffffffffffffff167f618c54559e94f1499a808aad71ee8729f8e74e8c48e979616328ce493a1a52e760405160405180910390a350565b61708081565b600360009054906101000a900473ffffffffffffffffffffffffffffffffffffffff1681565b60008060078481548110612d2857fe5b9060005260206000209060070201905060006008600086815260200190815260200160002060008573ffffffffffffffffffffffffffffffffffffffff1673ffffffffffffffffffffffffffffffffffffffff168152602001908152602001600020905060008260050154905060008360000160009054906101000a900473ffffffffffffffffffffffffffffffffffffffff1673ffffffffffffffffffffffffffffffffffffffff166370a08231306040518263ffffffff1660e01b8152600401808273ffffffffffffffffffffffffffffffffffffffff16815260200191505060206040518083038186803b158015612e2257600080fd5b505afa158015612e36573d6000803e3d6000fd5b505050506040513d6020811015612e4c57600080fd5b810190808051906020019092919050505090506000612e6a886135f1565b9050846004015481118015612e80575060008214155b15612f1b576000612e95866004015483612422565b90506000612ed8600954612eca8960010154612ebc6004548761352190919063ffffffff16565b61352190919063ffffffff16565b6135a790919063ffffffff16565b9050612f16612f0785612ef964e8d4a510008561352190919063ffffffff16565b6135a790919063ffffffff16565b866132a290919063ffffffff16565b945050505b6000612f618560010154612f5364e8d4a51000612f45888a6000015461352190919063ffffffff16565b6135a790919063ffffffff16565b61325890919063ffffffff16565b9050612f7a8560020154826132a290919063ffffffff16565b965050505050505092915050565b6006544311612fe2576040517f08c379a00000000000000000000000000000000000000000000000000000000081526004018080602001828103825260528152602001806145996052913960600191505060405180910390fd5b67016345785d8a000060045411613044576040517f08c379a00000000000000000000000000000000000000000000000000000000081526004018080602001828103825260528152602001806146566052913960600191505060405180910390fd5b600061306f6170806130616006544361325890919063ffffffff16565b6135a790919063ffffffff16565b9050600f548111613080575061317a565b600060045490506000600f5490505b828110156130d1576130c46127106130b66105dc612710038561352190919063ffffffff16565b6135a790919063ffffffff16565b915080600101905061308f565b5067016345785d8a000081106130e757806130f1565b67016345785d8a00005b9050600454811061310357505061317a565b61310b611e5d565b81600f8190555060006004549050816004819055503373ffffffffffffffffffffffffffffffffffffffff167feedc6338c9c1ad8f3cd6c90dd09dbe98dbd57e610d3e59a17996d07acb0d95118284604051808381526020018281526020019250505060405180910390a25050505b565b613184613250565b73ffffffffffffffffffffffffffffffffffffffff1660008054906101000a900473ffffffffffffffffffffffffffffffffffffffff1673ffffffffffffffffffffffffffffffffffffffff1614613244576040517f08c379a00000000000000000000000000000000000000000000000000000000081526004018080602001828103825260208152602001807f4f776e61626c653a2063616c6c6572206973206e6f7420746865206f776e657281525060200191505060405180910390fd5b61324d8161396f565b50565b600033905090565b600061329a83836040518060400160405280601e81526020017f536166654d6174683a207375627472616374696f6e206f766572666c6f770000815250613ab2565b905092915050565b600080828401905083811015613320576040517f08c379a000000000000000000000000000000000000000000000000000000000815260040180806020018281038252601b8152602001807f536166654d6174683a206164646974696f6e206f766572666c6f77000000000081525060200191505060405180910390fd5b8091505092915050565b60006007828154811061333957fe5b9060005260206000209060070201905060006008600084815260200190815260200160002060003373ffffffffffffffffffffffffffffffffffffffff1673ffffffffffffffffffffffffffffffffffffffff168152602001908152602001600020905060006133e782600101546133d964e8d4a510006133cb8760050154876000015461352190919063ffffffff16565b6135a790919063ffffffff16565b61325890919063ffffffff16565b90506133f284612a98565b1561344f57600081118061340a575060008260020154115b1561344a5760006134288360020154836132a290919063ffffffff16565b90506000836002018190555061343e3382613b72565b6134483382613e46565b505b613479565b60008111156134785761346f8183600201546132a290919063ffffffff16565b82600201819055505b5b50505050565b61351c8363a9059cbb60e01b8484604051602401808373ffffffffffffffffffffffffffffffffffffffff16815260200182815260200192505050604051602081830303815290604052907bffffffffffffffffffffffffffffffffffffffffffffffffffffffff19166020820180517bffffffffffffffffffffffffffffffffffffffffffffffffffffffff8381831617835250505050614013565b505050565b60008083141561353457600090506135a1565b600082840290508284828161354557fe5b041461359c576040517f08c379a000000000000000000000000000000000000000000000000000000000815260040180806020018281038252602181526020018061452b6021913960400191505060405180910390fd5b809150505b92915050565b60006135e983836040518060400160405280601a81526020017f536166654d6174683a206469766973696f6e206279207a65726f000000000000815250614102565b905092915050565b6000806007838154811061360157fe5b906000526020600020906007020190506000816003015414156136275743915050613642565b80600301544311613638574361363e565b80600301545b9150505b919050565b8073ffffffffffffffffffffffffffffffffffffffff168173ffffffffffffffffffffffffffffffffffffffff1614801561370d5750600073ffffffffffffffffffffffffffffffffffffffff16600b60008473ffffffffffffffffffffffffffffffffffffffff1673ffffffffffffffffffffffffffffffffffffffff16815260200190815260200160002060009054906101000a900473ffffffffffffffffffffffffffffffffffffffff1673ffffffffffffffffffffffffffffffffffffffff16145b80156137465750600073ffffffffffffffffffffffffffffffffffffffff168173ffffffffffffffffffffffffffffffffffffffff1614155b801561377e57508173ffffffffffffffffffffffffffffffffffffffff168173ffffffffffffffffffffffffffffffffffffffff1614155b156138aa5780600b60008473ffffffffffffffffffffffffffffffffffffffff1673ffffffffffffffffffffffffffffffffffffffff16815260200190815260200160002060006101000a81548173ffffffffffffffffffffffffffffffffffffffff021916908373ffffffffffffffffffffffffffffffffffffffff1602179055506001600c60008373ffffffffffffffffffffffffffffffffffffffff1673ffffffffffffffffffffffffffffffffffffffff168152602001908152602001600020600082825401925050819055508073ffffffffffffffffffffffffffffffffffffffff168273ffffffffffffffffffffffffffffffffffffffff167f9d05414fb79fac216c15606de5cc06664e91a254e4d5f57664d5f1beaf7fb7ef60405160405180910390a35b5050565b613969846323b872dd60e01b858585604051602401808473ffffffffffffffffffffffffffffffffffffffff1681526020018373ffffffffffffffffffffffffffffffffffffffff1681526020018281526020019350505050604051602081830303815290604052907bffffffffffffffffffffffffffffffffffffffffffffffffffffffff19166020820180517bffffffffffffffffffffffffffffffffffffffffffffffffffffffff8381831617835250505050614013565b50505050565b600073ffffffffffffffffffffffffffffffffffffffff168173ffffffffffffffffffffffffffffffffffffffff1614156139f5576040517f08c379a00000000000000000000000000000000000000000000000000000000081526004018080602001828103825260268152602001806144bb6026913960400191505060405180910390fd5b8073ffffffffffffffffffffffffffffffffffffffff1660008054906101000a900473ffffffffffffffffffffffffffffffffffffffff1673ffffffffffffffffffffffffffffffffffffffff167f8be0079c531659141344cd1fd0a4f28419497f9722a3daafe3b4186f6b6457e060405160405180910390a3806000806101000a81548173ffffffffffffffffffffffffffffffffffffffff021916908373ffffffffffffffffffffffffffffffffffffffff16021790555050565b6000838311158290613b5f576040517f08c379a00000000000000000000000000000000000000000000000000000000081526004018080602001828103825283818151815260200191508051906020019080838360005b83811015613b24578082015181840152602081019050613b09565b50505050905090810190601f168015613b515780820380516001836020036101000a031916815260200191505b509250505060405180910390fd5b5060008385039050809150509392505050565b6000600260009054906101000a900473ffffffffffffffffffffffffffffffffffffffff1673ffffffffffffffffffffffffffffffffffffffff166370a08231306040518263ffffffff1660e01b8152600401808273ffffffffffffffffffffffffffffffffffffffff16815260200191505060206040518083038186803b158015613bfd57600080fd5b505afa158015613c11573d6000803e3d6000fd5b505050506040513d6020811015613c2757600080fd5b81019080805190602001909291905050509050600081831115613d1957600260009054906101000a900473ffffffffffffffffffffffffffffffffffffffff1673ffffffffffffffffffffffffffffffffffffffff1663a9059cbb85846040518363ffffffff1660e01b8152600401808373ffffffffffffffffffffffffffffffffffffffff16815260200182815260200192505050602060405180830381600087803b158015613cd757600080fd5b505af1158015613ceb573d6000803e3d6000fd5b505050506040513d6020811015613d0157600080fd5b81019080805190602001909291905050509050613dea565b600260009054906101000a900473ffffffffffffffffffffffffffffffffffffffff1673ffffffffffffffffffffffffffffffffffffffff1663a9059cbb85856040518363ffffffff1660e01b8152600401808373ffffffffffffffffffffffffffffffffffffffff16815260200182815260200192505050602060405180830381600087803b158015613dac57600080fd5b505af1158015613dc0573d6000803e3d6000fd5b505050506040513d6020811015613dd657600080fd5b810190808051906020019092919050505090505b80613e40576040517f08c379a00000000000000000000000000000000000000000000000000000000081526004018080602001828103825260228152602001806145eb6022913960400191505060405180910390fd5b50505050565b6000613e51836115be565b9050600073ffffffffffffffffffffffffffffffffffffffff168173ffffffffffffffffffffffffffffffffffffffff1614158015613ebc57508273ffffffffffffffffffffffffffffffffffffffff168173ffffffffffffffffffffffffffffffffffffffff1614155b8015613eca57506000600a54115b1561400e576000613efa612710613eec600a548661352190919063ffffffff16565b6135a790919063ffffffff16565b9050600260009054906101000a900473ffffffffffffffffffffffffffffffffffffffff1673ffffffffffffffffffffffffffffffffffffffff166340c10f1983836040518363ffffffff1660e01b8152600401808373ffffffffffffffffffffffffffffffffffffffff16815260200182815260200192505050600060405180830381600087803b158015613f8f57600080fd5b505af1158015613fa3573d6000803e3d6000fd5b505050508173ffffffffffffffffffffffffffffffffffffffff168473ffffffffffffffffffffffffffffffffffffffff167f0a721ab4682ceb61c7e4d264ef879fc419a6d764b136e7d96ef54b2053c75673836040518082815260200191505060405180910390a3505b505050565b6060614075826040518060400160405280602081526020017f5361666542455032303a206c6f772d6c6576656c2063616c6c206661696c65648152508573ffffffffffffffffffffffffffffffffffffffff166141c89092919063ffffffff16565b90506000815111156140fd5780806020019051602081101561409657600080fd5b81019080805190602001909291905050506140fc576040517f08c379a000000000000000000000000000000000000000000000000000000000815260040180806020018281038252602a815260200180614491602a913960400191505060405180910390fd5b5b505050565b600080831182906141ae576040517f08c379a00000000000000000000000000000000000000000000000000000000081526004018080602001828103825283818151815260200191508051906020019080838360005b83811015614173578082015181840152602081019050614158565b50505050905090810190601f1680156141a05780820380516001836020036101000a031916815260200191505b509250505060405180910390fd5b5060008385816141ba57fe5b049050809150509392505050565b60606141d784846000856141e0565b90509392505050565b60606141eb856143e6565b61425d576040517f08c379a000000000000000000000000000000000000000000000000000000000815260040180806020018281038252601d8152602001807f416464726573733a2063616c6c20746f206e6f6e2d636f6e747261637400000081525060200191505060405180910390fd5b600060608673ffffffffffffffffffffffffffffffffffffffff1685876040518082805190602001908083835b602083106142ad578051825260208201915060208101905060208303925061428a565b6001836020036101000a03801982511681845116808217855250505050505090500191505060006040518083038185875af1925050503d806000811461430f576040519150601f19603f3d011682016040523d82523d6000602084013e614314565b606091505b509150915081156143295780925050506143de565b60008151111561433c5780518082602001fd5b836040517f08c379a00000000000000000000000000000000000000000000000000000000081526004018080602001828103825283818151815260200191508051906020019080838360005b838110156143a3578082015181840152602081019050614388565b50505050905090810190601f1680156143d05780820380516001836020036101000a031916815260200191505b509250505060405180910390fd5b949350505050565b60008060007fc5d2460186f7233c927e7db2dcc703c0e500b653ca82273b7bfad8045d85a47060001b9050833f915080821415801561442857506000801b8214155b9250505091905056fe6164643a20696e76616c6964206465706f7369742066656520626173697320706f696e7473757064617465526566426f6e757350657263656e743a20696e76616c696420726566657272616c20626f6e757320626173697320706f696e74735361666542455032303a204245503230206f7065726174696f6e20646964206e6f7420737563636565644f776e61626c653a206e6577206f776e657220697320746865207a65726f20616464726573736164643a20626c6f636b20746f207265636569766520726577617264206973207265717569726564206465706f7369743a20496e76616c69642072656665727265722061646472657373536166654d6174683a206d756c7469706c69636174696f6e206f766572666c6f777365743a20696e76616c6964206465706f7369742066656520626173697320706f696e7473757064617465526566426f6e757350657263656e743a2073616d6520626f6e757320627020736574726564756365456d697373696f6e526174655769746844656661756c74526174653a2043616e206f6e6c792062652063616c6c65642061667465722073706563696669656420626c6f636b20737461727473736166655445584f5472616e736665723a207472616e73666572206661696c65642e676574506f6f6c4964466f724c70546f6b656e3a20646f206e6f742065786973747365743a20626c6f636b20746f207265636569766520726577617264206973207265717569726564726564756365456d697373696f6e526174655769746844656661756c74526174653a20456d697373696f6e207261746520686173207265616368656420746865206d696e696d756d207468726573686f6c646465706f7369743a207374616b696e6720706572696f642068617320656e646564a26469706673582212200c771faab0d153ddec6ffe9b80a94254fc660d3587be948090276783867c9be764736f6c634300060c0033","opcodes":"PUSH1 0x80 PUSH1 0x40 MSTORE PUSH1 0x0 PUSH1 0x9 SSTORE PUSH1 0xC8 PUSH1 0xA SSTORE PUSH1 0x0 PUSH1 0xF SSTORE CALLVALUE DUP1 ISZERO PUSH3 0x20 JUMPI PUSH1 0x0 DUP1 REVERT JUMPDEST POP PUSH1 0x40 MLOAD PUSH3 0x4925 CODESIZE SUB DUP1 PUSH3 0x4925 DUP4 CODECOPY DUP2 DUP2 ADD PUSH1 0x40 MSTORE PUSH1 0x80 DUP2 LT ISZERO PUSH3 0x46 JUMPI PUSH1 0x0 DUP1 REVERT JUMPDEST DUP2 ADD SWAP1 DUP1 DUP1 MLOAD SWAP1 PUSH1 0x20 ADD SWAP1 SWAP3 SWAP2 SWAP1 DUP1 MLOAD SWAP1 PUSH1 0x20 ADD SWAP1 SWAP3 SWAP2 SWAP1 DUP1 MLOAD SWAP1 PUSH1 0x20 ADD SWAP1 SWAP3 SWAP2 SWAP1 DUP1 MLOAD SWAP1 PUSH1 0x20 ADD SWAP1 SWAP3 SWAP2 SWAP1 POP POP POP PUSH1 0x0 PUSH3 0x87 PUSH3 0x20F PUSH1 0x20 SHL PUSH1 0x20 SHR JUMP JUMPDEST SWAP1 POP DUP1 PUSH1 0x0 DUP1 PUSH2 0x100 EXP DUP2 SLOAD DUP2 PUSH20 0xFFFFFFFFFFFFFFFFFFFFFFFFFFFFFFFFFFFFFFFF MUL NOT AND SWAP1 DUP4 PUSH20 0xFFFFFFFFFFFFFFFFFFFFFFFFFFFFFFFFFFFFFFFF AND MUL OR SWAP1 SSTORE POP DUP1 PUSH20 0xFFFFFFFFFFFFFFFFFFFFFFFFFFFFFFFFFFFFFFFF AND PUSH1 0x0 PUSH20 0xFFFFFFFFFFFFFFFFFFFFFFFFFFFFFFFFFFFFFFFF AND PUSH32 0x8BE0079C531659141344CD1FD0A4F28419497F9722A3DAAFE3B4186F6B6457E0 PUSH1 0x40 MLOAD PUSH1 0x40 MLOAD DUP1 SWAP2 SUB SWAP1 LOG3 POP PUSH1 0x1 DUP1 DUP2 SWAP1 SSTORE POP DUP4 PUSH1 0x2 PUSH1 0x0 PUSH2 0x100 EXP DUP2 SLOAD DUP2 PUSH20 0xFFFFFFFFFFFFFFFFFFFFFFFFFFFFFFFFFFFFFFFF MUL NOT AND SWAP1 DUP4 PUSH20 0xFFFFFFFFFFFFFFFFFFFFFFFFFFFFFFFFFFFFFFFF AND MUL OR SWAP1 SSTORE POP DUP3 PUSH1 0x3 PUSH1 0x0 PUSH2 0x100 EXP DUP2 SLOAD DUP2 PUSH20 0xFFFFFFFFFFFFFFFFFFFFFFFFFFFFFFFFFFFFFFFF MUL NOT AND SWAP1 DUP4 PUSH20 0xFFFFFFFFFFFFFFFFFFFFFFFFFFFFFFFFFFFFFFFF AND MUL OR SWAP1 SSTORE POP DUP2 PUSH1 0x5 PUSH1 0x0 PUSH2 0x100 EXP DUP2 SLOAD DUP2 PUSH20 0xFFFFFFFFFFFFFFFFFFFFFFFFFFFFFFFFFFFFFFFF MUL NOT AND SWAP1 DUP4 PUSH20 0xFFFFFFFFFFFFFFFFFFFFFFFFFFFFFFFFFFFFFFFF AND MUL OR SWAP1 SSTORE POP PUSH8 0x6F05B59D3B20000 PUSH1 0x4 DUP2 SWAP1 SSTORE POP DUP1 PUSH1 0x6 DUP2 SWAP1 SSTORE POP POP POP POP POP PUSH3 0x217 JUMP JUMPDEST PUSH1 0x0 CALLER SWAP1 POP SWAP1 JUMP JUMPDEST PUSH2 0x46FE DUP1 PUSH3 0x227 PUSH1 0x0 CODECOPY PUSH1 0x0 RETURN INVALID PUSH1 0x80 PUSH1 0x40 MSTORE CALLVALUE DUP1 ISZERO PUSH2 0x10 JUMPI PUSH1 0x0 DUP1 REVERT JUMPDEST POP PUSH1 0x4 CALLDATASIZE LT PUSH2 0x25E JUMPI PUSH1 0x0 CALLDATALOAD PUSH1 0xE0 SHR DUP1 PUSH4 0x6A9A7660 GT PUSH2 0x146 JUMPI DUP1 PUSH4 0xA1BDB15E GT PUSH2 0xC3 JUMPI DUP1 PUSH4 0xD0D41FE1 GT PUSH2 0x87 JUMPI DUP1 PUSH4 0xD0D41FE1 EQ PUSH2 0xACF JUMPI DUP1 PUSH4 0xD4ADAFDF EQ PUSH2 0xB13 JUMPI DUP1 PUSH4 0xDA09C72C EQ PUSH2 0xB31 JUMPI DUP1 PUSH4 0xDFE3D2CD EQ PUSH2 0xB65 JUMPI DUP1 PUSH4 0xEA76BC29 EQ PUSH2 0xBC7 JUMPI DUP1 PUSH4 0xF2FDE38B EQ PUSH2 0xBD1 JUMPI PUSH2 0x25E JUMP JUMPDEST DUP1 PUSH4 0xA1BDB15E EQ PUSH2 0x9B1 JUMPI DUP1 PUSH4 0xAE715D70 EQ PUSH2 0x9DF JUMPI DUP1 PUSH4 0xB7EEE1F1 EQ PUSH2 0xA13 JUMPI DUP1 PUSH4 0xCA291B13 EQ PUSH2 0xA31 JUMPI DUP1 PUSH4 0xCBD258B5 EQ PUSH2 0xA75 JUMPI PUSH2 0x25E JUMP JUMPDEST DUP1 PUSH4 0x8DBDBE6D GT PUSH2 0x10A JUMPI DUP1 PUSH4 0x8DBDBE6D EQ PUSH2 0x851 JUMPI DUP1 PUSH4 0x91BB809C EQ PUSH2 0x8A9 JUMPI DUP1 PUSH4 0x93F1A40B EQ PUSH2 0x8C7 JUMPI DUP1 PUSH4 0x955C9B93 EQ PUSH2 0x937 JUMPI DUP1 PUSH4 0x9BF62F7E EQ PUSH2 0x959 JUMPI PUSH2 0x25E JUMP JUMPDEST DUP1 PUSH4 0x6A9A7660 EQ PUSH2 0x765 JUMPI DUP1 PUSH4 0x715018A6 EQ PUSH2 0x783 JUMPI DUP1 PUSH4 0x8705FCD4 EQ PUSH2 0x78D JUMPI DUP1 PUSH4 0x8DA5CB5B EQ PUSH2 0x7D1 JUMPI DUP1 PUSH4 0x8DBB1E3A EQ PUSH2 0x805 JUMPI PUSH2 0x25E JUMP JUMPDEST DUP1 PUSH4 0x41275358 GT PUSH2 0x1DF JUMPI DUP1 PUSH4 0x54324B58 GT PUSH2 0x1A3 JUMPI DUP1 PUSH4 0x54324B58 EQ PUSH2 0x6B5 JUMPI DUP1 PUSH4 0x61E0C468 EQ PUSH2 0x6D3 JUMPI DUP1 PUSH4 0x630B5BA1 EQ PUSH2 0x6F1 JUMPI DUP1 PUSH4 0x64ED743B EQ PUSH2 0x6FB JUMPI DUP1 PUSH4 0x660F8340 EQ PUSH2 0x729 JUMPI DUP1 PUSH4 0x66F685EA EQ PUSH2 0x747 JUMPI PUSH2 0x25E JUMP JUMPDEST DUP1 PUSH4 0x41275358 EQ PUSH2 0x57F JUMPI DUP1 PUSH4 0x441A3E70 EQ PUSH2 0x5B3 JUMPI DUP1 PUSH4 0x4A3B68CC EQ PUSH2 0x5EB JUMPI DUP1 PUSH4 0x51EB05A6 EQ PUSH2 0x659 JUMPI DUP1 PUSH4 0x5312EA8E EQ PUSH2 0x687 JUMPI PUSH2 0x25E JUMP JUMPDEST DUP1 PUSH4 0x190F39F0 GT PUSH2 0x226 JUMPI DUP1 PUSH4 0x190F39F0 EQ PUSH2 0x411 JUMPI DUP1 PUSH4 0x1EB704B0 EQ PUSH2 0x469 JUMPI DUP1 PUSH4 0x3A22DF78 EQ PUSH2 0x497 JUMPI DUP1 PUSH4 0x3B0F0F2F EQ PUSH2 0x4B9 JUMPI DUP1 PUSH4 0x3F7B06D8 EQ PUSH2 0x527 JUMPI PUSH2 0x25E JUMP JUMPDEST DUP1 PUSH4 0x326F66D EQ PUSH2 0x263 JUMPI DUP1 PUSH4 0x81E3EDA EQ PUSH2 0x2C9 JUMPI DUP1 PUSH4 0xB844523 EQ PUSH2 0x2E7 JUMPI DUP1 PUSH4 0x1526FE27 EQ PUSH2 0x36D JUMPI DUP1 PUSH4 0x17CAF6F1 EQ PUSH2 0x3F3 JUMPI JUMPDEST PUSH1 0x0 DUP1 REVERT JUMPDEST PUSH2 0x2C7 PUSH1 0x4 DUP1 CALLDATASIZE SUB PUSH1 0xC0 DUP2 LT ISZERO PUSH2 0x279 JUMPI PUSH1 0x0 DUP1 REVERT JUMPDEST DUP2 ADD SWAP1 DUP1 DUP1 CALLDATALOAD SWAP1 PUSH1 0x20 ADD SWAP1 SWAP3 SWAP2 SWAP1 DUP1 CALLDATALOAD SWAP1 PUSH1 0x20 ADD SWAP1 SWAP3 SWAP2 SWAP1 DUP1 CALLDATALOAD PUSH2 0xFFFF AND SWAP1 PUSH1 0x20 ADD SWAP1 SWAP3 SWAP2 SWAP1 DUP1 CALLDATALOAD ISZERO ISZERO SWAP1 PUSH1 0x20 ADD SWAP1 SWAP3 SWAP2 SWAP1 DUP1 CALLDATALOAD SWAP1 PUSH1 0x20 ADD SWAP1 SWAP3 SWAP2 SWAP1 DUP1 CALLDATALOAD SWAP1 PUSH1 0x20 ADD SWAP1 SWAP3 SWAP2 SWAP1 POP POP POP PUSH2 0xC15 JUMP JUMPDEST STOP JUMPDEST PUSH2 0x2D1 PUSH2 0xEAD JUMP JUMPDEST PUSH1 0x40 MLOAD DUP1 DUP3 DUP2 MSTORE PUSH1 0x20 ADD SWAP2 POP POP PUSH1 0x40 MLOAD DUP1 SWAP2 SUB SWAP1 RETURN JUMPDEST PUSH2 0x36B PUSH1 0x4 DUP1 CALLDATASIZE SUB PUSH1 0xE0 DUP2 LT ISZERO PUSH2 0x2FD JUMPI PUSH1 0x0 DUP1 REVERT JUMPDEST DUP2 ADD SWAP1 DUP1 DUP1 CALLDATALOAD SWAP1 PUSH1 0x20 ADD SWAP1 SWAP3 SWAP2 SWAP1 DUP1 CALLDATALOAD PUSH20 0xFFFFFFFFFFFFFFFFFFFFFFFFFFFFFFFFFFFFFFFF AND SWAP1 PUSH1 0x20 ADD SWAP1 SWAP3 SWAP2 SWAP1 DUP1 CALLDATALOAD PUSH2 0xFFFF AND SWAP1 PUSH1 0x20 ADD SWAP1 SWAP3 SWAP2 SWAP1 DUP1 CALLDATALOAD ISZERO ISZERO SWAP1 PUSH1 0x20 ADD SWAP1 SWAP3 SWAP2 SWAP1 DUP1 CALLDATALOAD SWAP1 PUSH1 0x20 ADD SWAP1 SWAP3 SWAP2 SWAP1 DUP1 CALLDATALOAD SWAP1 PUSH1 0x20 ADD SWAP1 SWAP3 SWAP2 SWAP1 DUP1 CALLDATALOAD SWAP1 PUSH1 0x20 ADD SWAP1 SWAP3 SWAP2 SWAP1 POP POP POP PUSH2 0xEBA JUMP JUMPDEST STOP JUMPDEST PUSH2 0x399 PUSH1 0x4 DUP1 CALLDATASIZE SUB PUSH1 0x20 DUP2 LT ISZERO PUSH2 0x383 JUMPI PUSH1 0x0 DUP1 REVERT JUMPDEST DUP2 ADD SWAP1 DUP1 DUP1 CALLDATALOAD SWAP1 PUSH1 0x20 ADD SWAP1 SWAP3 SWAP2 SWAP1 POP POP POP PUSH2 0x1313 JUMP JUMPDEST PUSH1 0x40 MLOAD DUP1 DUP9 PUSH20 0xFFFFFFFFFFFFFFFFFFFFFFFFFFFFFFFFFFFFFFFF AND DUP2 MSTORE PUSH1 0x20 ADD DUP8 DUP2 MSTORE PUSH1 0x20 ADD DUP7 DUP2 MSTORE PUSH1 0x20 ADD DUP6 DUP2 MSTORE PUSH1 0x20 ADD DUP5 DUP2 MSTORE PUSH1 0x20 ADD DUP4 DUP2 MSTORE PUSH1 0x20 ADD DUP3 PUSH2 0xFFFF AND DUP2 MSTORE PUSH1 0x20 ADD SWAP8 POP POP POP POP POP POP POP POP PUSH1 0x40 MLOAD DUP1 SWAP2 SUB SWAP1 RETURN JUMPDEST PUSH2 0x3FB PUSH2 0x1390 JUMP JUMPDEST PUSH1 0x40 MLOAD DUP1 DUP3 DUP2 MSTORE PUSH1 0x20 ADD SWAP2 POP POP PUSH1 0x40 MLOAD DUP1 SWAP2 SUB SWAP1 RETURN JUMPDEST PUSH2 0x453 PUSH1 0x4 DUP1 CALLDATASIZE SUB PUSH1 0x20 DUP2 LT ISZERO PUSH2 0x427 JUMPI PUSH1 0x0 DUP1 REVERT JUMPDEST DUP2 ADD SWAP1 DUP1 DUP1 CALLDATALOAD PUSH20 0xFFFFFFFFFFFFFFFFFFFFFFFFFFFFFFFFFFFFFFFF AND SWAP1 PUSH1 0x20 ADD SWAP1 SWAP3 SWAP2 SWAP1 POP POP POP PUSH2 0x1396 JUMP JUMPDEST PUSH1 0x40 MLOAD DUP1 DUP3 DUP2 MSTORE PUSH1 0x20 ADD SWAP2 POP POP PUSH1 0x40 MLOAD DUP1 SWAP2 SUB SWAP1 RETURN JUMPDEST PUSH2 0x495 PUSH1 0x4 DUP1 CALLDATASIZE SUB PUSH1 0x20 DUP2 LT ISZERO PUSH2 0x47F JUMPI PUSH1 0x0 DUP1 REVERT JUMPDEST DUP2 ADD SWAP1 DUP1 DUP1 CALLDATALOAD SWAP1 PUSH1 0x20 ADD SWAP1 SWAP3 SWAP2 SWAP1 POP POP POP PUSH2 0x1488 JUMP JUMPDEST STOP JUMPDEST PUSH2 0x49F PUSH2 0x15B8 JUMP JUMPDEST PUSH1 0x40 MLOAD DUP1 DUP3 PUSH2 0xFFFF AND DUP2 MSTORE PUSH1 0x20 ADD SWAP2 POP POP PUSH1 0x40 MLOAD DUP1 SWAP2 SUB SWAP1 RETURN JUMPDEST PUSH2 0x4FB PUSH1 0x4 DUP1 CALLDATASIZE SUB PUSH1 0x20 DUP2 LT ISZERO PUSH2 0x4CF JUMPI PUSH1 0x0 DUP1 REVERT JUMPDEST DUP2 ADD SWAP1 DUP1 DUP1 CALLDATALOAD PUSH20 0xFFFFFFFFFFFFFFFFFFFFFFFFFFFFFFFFFFFFFFFF AND SWAP1 PUSH1 0x20 ADD SWAP1 SWAP3 SWAP2 SWAP1 POP POP POP PUSH2 0x15BE JUMP JUMPDEST PUSH1 0x40 MLOAD DUP1 DUP3 PUSH20 0xFFFFFFFFFFFFFFFFFFFFFFFFFFFFFFFFFFFFFFFF AND DUP2 MSTORE PUSH1 0x20 ADD SWAP2 POP POP PUSH1 0x40 MLOAD DUP1 SWAP2 SUB SWAP1 RETURN JUMPDEST PUSH2 0x569 PUSH1 0x4 DUP1 CALLDATASIZE SUB PUSH1 0x20 DUP2 LT ISZERO PUSH2 0x53D JUMPI PUSH1 0x0 DUP1 REVERT JUMPDEST DUP2 ADD SWAP1 DUP1 DUP1 CALLDATALOAD PUSH20 0xFFFFFFFFFFFFFFFFFFFFFFFFFFFFFFFFFFFFFFFF AND SWAP1 PUSH1 0x20 ADD SWAP1 SWAP3 SWAP2 SWAP1 POP POP POP PUSH2 0x1627 JUMP JUMPDEST PUSH1 0x40 MLOAD DUP1 DUP3 DUP2 MSTORE PUSH1 0x20 ADD SWAP2 POP POP PUSH1 0x40 MLOAD DUP1 SWAP2 SUB SWAP1 RETURN JUMPDEST PUSH2 0x587 PUSH2 0x163F JUMP JUMPDEST PUSH1 0x40 MLOAD DUP1 DUP3 PUSH20 0xFFFFFFFFFFFFFFFFFFFFFFFFFFFFFFFFFFFFFFFF AND DUP2 MSTORE PUSH1 0x20 ADD SWAP2 POP POP PUSH1 0x40 MLOAD DUP1 SWAP2 SUB SWAP1 RETURN JUMPDEST PUSH2 0x5E9 PUSH1 0x4 DUP1 CALLDATASIZE SUB PUSH1 0x40 DUP2 LT ISZERO PUSH2 0x5C9 JUMPI PUSH1 0x0 DUP1 REVERT JUMPDEST DUP2 ADD SWAP1 DUP1 DUP1 CALLDATALOAD SWAP1 PUSH1 0x20 ADD SWAP1 SWAP3 SWAP2 SWAP1 DUP1 CALLDATALOAD SWAP1 PUSH1 0x20 ADD SWAP1 SWAP3 SWAP2 SWAP1 POP POP POP PUSH2 0x1665 JUMP JUMPDEST STOP JUMPDEST PUSH2 0x62D PUSH1 0x4 DUP1 CALLDATASIZE SUB PUSH1 0x20 DUP2 LT ISZERO PUSH2 0x601 JUMPI PUSH1 0x0 DUP1 REVERT JUMPDEST DUP2 ADD SWAP1 DUP1 DUP1 CALLDATALOAD PUSH20 0xFFFFFFFFFFFFFFFFFFFFFFFFFFFFFFFFFFFFFFFF AND SWAP1 PUSH1 0x20 ADD SWAP1 SWAP3 SWAP2 SWAP1 POP POP POP PUSH2 0x18F3 JUMP JUMPDEST PUSH1 0x40 MLOAD DUP1 DUP3 PUSH20 0xFFFFFFFFFFFFFFFFFFFFFFFFFFFFFFFFFFFFFFFF AND DUP2 MSTORE PUSH1 0x20 ADD SWAP2 POP POP PUSH1 0x40 MLOAD DUP1 SWAP2 SUB SWAP1 RETURN JUMPDEST PUSH2 0x685 PUSH1 0x4 DUP1 CALLDATASIZE SUB PUSH1 0x20 DUP2 LT ISZERO PUSH2 0x66F JUMPI PUSH1 0x0 DUP1 REVERT JUMPDEST DUP2 ADD SWAP1 DUP1 DUP1 CALLDATALOAD SWAP1 PUSH1 0x20 ADD SWAP1 SWAP3 SWAP2 SWAP1 POP POP POP PUSH2 0x1926 JUMP JUMPDEST STOP JUMPDEST PUSH2 0x6B3 PUSH1 0x4 DUP1 CALLDATASIZE SUB PUSH1 0x20 DUP2 LT ISZERO PUSH2 0x69D JUMPI PUSH1 0x0 DUP1 REVERT JUMPDEST DUP2 ADD SWAP1 DUP1 DUP1 CALLDATALOAD SWAP1 PUSH1 0x20 ADD SWAP1 SWAP3 SWAP2 SWAP1 POP POP POP PUSH2 0x1C91 JUMP JUMPDEST STOP JUMPDEST PUSH2 0x6BD PUSH2 0x1E4B JUMP JUMPDEST PUSH1 0x40 MLOAD DUP1 DUP3 DUP2 MSTORE PUSH1 0x20 ADD SWAP2 POP POP PUSH1 0x40 MLOAD DUP1 SWAP2 SUB SWAP1 RETURN JUMPDEST PUSH2 0x6DB PUSH2 0x1E51 JUMP JUMPDEST PUSH1 0x40 MLOAD DUP1 DUP3 DUP2 MSTORE PUSH1 0x20 ADD SWAP2 POP POP PUSH1 0x40 MLOAD DUP1 SWAP2 SUB SWAP1 RETURN JUMPDEST PUSH2 0x6F9 PUSH2 0x1E5D JUMP JUMPDEST STOP JUMPDEST PUSH2 0x727 PUSH1 0x4 DUP1 CALLDATASIZE SUB PUSH1 0x20 DUP2 LT ISZERO PUSH2 0x711 JUMPI PUSH1 0x0 DUP1 REVERT JUMPDEST DUP2 ADD SWAP1 DUP1 DUP1 CALLDATALOAD SWAP1 PUSH1 0x20 ADD SWAP1 SWAP3 SWAP2 SWAP1 POP POP POP PUSH2 0x1E8A JUMP JUMPDEST STOP JUMPDEST PUSH2 0x731 PUSH2 0x205D JUMP JUMPDEST PUSH1 0x40 MLOAD DUP1 DUP3 DUP2 MSTORE PUSH1 0x20 ADD SWAP2 POP POP PUSH1 0x40 MLOAD DUP1 SWAP2 SUB SWAP1 RETURN JUMPDEST PUSH2 0x74F PUSH2 0x2063 JUMP JUMPDEST PUSH1 0x40 MLOAD DUP1 DUP3 DUP2 MSTORE PUSH1 0x20 ADD SWAP2 POP POP PUSH1 0x40 MLOAD DUP1 SWAP2 SUB SWAP1 RETURN JUMPDEST PUSH2 0x76D PUSH2 0x2069 JUMP JUMPDEST PUSH1 0x40 MLOAD DUP1 DUP3 DUP2 MSTORE PUSH1 0x20 ADD SWAP2 POP POP PUSH1 0x40 MLOAD DUP1 SWAP2 SUB SWAP1 RETURN JUMPDEST PUSH2 0x78B PUSH2 0x206F JUMP JUMPDEST STOP JUMPDEST PUSH2 0x7CF PUSH1 0x4 DUP1 CALLDATASIZE SUB PUSH1 0x20 DUP2 LT ISZERO PUSH2 0x7A3 JUMPI PUSH1 0x0 DUP1 REVERT JUMPDEST DUP2 ADD SWAP1 DUP1 DUP1 CALLDATALOAD PUSH20 0xFFFFFFFFFFFFFFFFFFFFFFFFFFFFFFFFFFFFFFFF AND SWAP1 PUSH1 0x20 ADD SWAP1 SWAP3 SWAP2 SWAP1 POP POP POP PUSH2 0x21F5 JUMP JUMPDEST STOP JUMPDEST PUSH2 0x7D9 PUSH2 0x23F9 JUMP JUMPDEST PUSH1 0x40 MLOAD DUP1 DUP3 PUSH20 0xFFFFFFFFFFFFFFFFFFFFFFFFFFFFFFFFFFFFFFFF AND DUP2 MSTORE PUSH1 0x20 ADD SWAP2 POP POP PUSH1 0x40 MLOAD DUP1 SWAP2 SUB SWAP1 RETURN JUMPDEST PUSH2 0x83B PUSH1 0x4 DUP1 CALLDATASIZE SUB PUSH1 0x40 DUP2 LT ISZERO PUSH2 0x81B JUMPI PUSH1 0x0 DUP1 REVERT JUMPDEST DUP2 ADD SWAP1 DUP1 DUP1 CALLDATALOAD SWAP1 PUSH1 0x20 ADD SWAP1 SWAP3 SWAP2 SWAP1 DUP1 CALLDATALOAD SWAP1 PUSH1 0x20 ADD SWAP1 SWAP3 SWAP2 SWAP1 POP POP POP PUSH2 0x2422 JUMP JUMPDEST PUSH1 0x40 MLOAD DUP1 DUP3 DUP2 MSTORE PUSH1 0x20 ADD SWAP2 POP POP PUSH1 0x40 MLOAD DUP1 SWAP2 SUB SWAP1 RETURN JUMPDEST PUSH2 0x8A7 PUSH1 0x4 DUP1 CALLDATASIZE SUB PUSH1 0x60 DUP2 LT ISZERO PUSH2 0x867 JUMPI PUSH1 0x0 DUP1 REVERT JUMPDEST DUP2 ADD SWAP1 DUP1 DUP1 CALLDATALOAD SWAP1 PUSH1 0x20 ADD SWAP1 SWAP3 SWAP2 SWAP1 DUP1 CALLDATALOAD SWAP1 PUSH1 0x20 ADD SWAP1 SWAP3 SWAP2 SWAP1 DUP1 CALLDATALOAD PUSH20 0xFFFFFFFFFFFFFFFFFFFFFFFFFFFFFFFFFFFFFFFF AND SWAP1 PUSH1 0x20 ADD SWAP1 SWAP3 SWAP2 SWAP1 POP POP POP PUSH2 0x243F JUMP JUMPDEST STOP JUMPDEST PUSH2 0x8B1 PUSH2 0x28D3 JUMP JUMPDEST PUSH1 0x40 MLOAD DUP1 DUP3 DUP2 MSTORE PUSH1 0x20 ADD SWAP2 POP POP PUSH1 0x40 MLOAD DUP1 SWAP2 SUB SWAP1 RETURN JUMPDEST PUSH2 0x913 PUSH1 0x4 DUP1 CALLDATASIZE SUB PUSH1 0x40 DUP2 LT ISZERO PUSH2 0x8DD JUMPI PUSH1 0x0 DUP1 REVERT JUMPDEST DUP2 ADD SWAP1 DUP1 DUP1 CALLDATALOAD SWAP1 PUSH1 0x20 ADD SWAP1 SWAP3 SWAP2 SWAP1 DUP1 CALLDATALOAD PUSH20 0xFFFFFFFFFFFFFFFFFFFFFFFFFFFFFFFFFFFFFFFF AND SWAP1 PUSH1 0x20 ADD SWAP1 SWAP3 SWAP2 SWAP1 POP POP POP PUSH2 0x28DF JUMP JUMPDEST PUSH1 0x40 MLOAD DUP1 DUP5 DUP2 MSTORE PUSH1 0x20 ADD DUP4 DUP2 MSTORE PUSH1 0x20 ADD DUP3 DUP2 MSTORE PUSH1 0x20 ADD SWAP4 POP POP POP POP PUSH1 0x40 MLOAD DUP1 SWAP2 SUB SWAP1 RETURN JUMPDEST PUSH2 0x93F PUSH2 0x2916 JUMP JUMPDEST PUSH1 0x40 MLOAD DUP1 DUP3 PUSH2 0xFFFF AND DUP2 MSTORE PUSH1 0x20 ADD SWAP2 POP POP PUSH1 0x40 MLOAD DUP1 SWAP2 SUB SWAP1 RETURN JUMPDEST PUSH2 0x99B PUSH1 0x4 DUP1 CALLDATASIZE SUB PUSH1 0x20 DUP2 LT ISZERO PUSH2 0x96F JUMPI PUSH1 0x0 DUP1 REVERT JUMPDEST DUP2 ADD SWAP1 DUP1 DUP1 CALLDATALOAD PUSH20 0xFFFFFFFFFFFFFFFFFFFFFFFFFFFFFFFFFFFFFFFF AND SWAP1 PUSH1 0x20 ADD SWAP1 SWAP3 SWAP2 SWAP1 POP POP POP PUSH2 0x291C JUMP JUMPDEST PUSH1 0x40 MLOAD DUP1 DUP3 DUP2 MSTORE PUSH1 0x20 ADD SWAP2 POP POP PUSH1 0x40 MLOAD DUP1 SWAP2 SUB SWAP1 RETURN JUMPDEST PUSH2 0x9DD PUSH1 0x4 DUP1 CALLDATASIZE SUB PUSH1 0x20 DUP2 LT ISZERO PUSH2 0x9C7 JUMPI PUSH1 0x0 DUP1 REVERT JUMPDEST DUP2 ADD SWAP1 DUP1 DUP1 CALLDATALOAD SWAP1 PUSH1 0x20 ADD SWAP1 SWAP3 SWAP2 SWAP1 POP POP POP PUSH2 0x2934 JUMP JUMPDEST STOP JUMPDEST PUSH2 0x9E7 PUSH2 0x2A6C JUMP JUMPDEST PUSH1 0x40 MLOAD DUP1 DUP3 PUSH20 0xFFFFFFFFFFFFFFFFFFFFFFFFFFFFFFFFFFFFFFFF AND DUP2 MSTORE PUSH1 0x20 ADD SWAP2 POP POP PUSH1 0x40 MLOAD DUP1 SWAP2 SUB SWAP1 RETURN JUMPDEST PUSH2 0xA1B PUSH2 0x2A92 JUMP JUMPDEST PUSH1 0x40 MLOAD DUP1 DUP3 DUP2 MSTORE PUSH1 0x20 ADD SWAP2 POP POP PUSH1 0x40 MLOAD DUP1 SWAP2 SUB SWAP1 RETURN JUMPDEST PUSH2 0xA5D PUSH1 0x4 DUP1 CALLDATASIZE SUB PUSH1 0x20 DUP2 LT ISZERO PUSH2 0xA47 JUMPI PUSH1 0x0 DUP1 REVERT JUMPDEST DUP2 ADD SWAP1 DUP1 DUP1 CALLDATALOAD SWAP1 PUSH1 0x20 ADD SWAP1 SWAP3 SWAP2 SWAP1 POP POP POP PUSH2 0x2A98 JUMP JUMPDEST PUSH1 0x40 MLOAD DUP1 DUP3 ISZERO ISZERO DUP2 MSTORE PUSH1 0x20 ADD SWAP2 POP POP PUSH1 0x40 MLOAD DUP1 SWAP2 SUB SWAP1 RETURN JUMPDEST PUSH2 0xAB7 PUSH1 0x4 DUP1 CALLDATASIZE SUB PUSH1 0x20 DUP2 LT ISZERO PUSH2 0xA8B JUMPI PUSH1 0x0 DUP1 REVERT JUMPDEST DUP2 ADD SWAP1 DUP1 DUP1 CALLDATALOAD PUSH20 0xFFFFFFFFFFFFFFFFFFFFFFFFFFFFFFFFFFFFFFFF AND SWAP1 PUSH1 0x20 ADD SWAP1 SWAP3 SWAP2 SWAP1 POP POP POP PUSH2 0x2AC8 JUMP JUMPDEST PUSH1 0x40 MLOAD DUP1 DUP3 ISZERO ISZERO DUP2 MSTORE PUSH1 0x20 ADD SWAP2 POP POP PUSH1 0x40 MLOAD DUP1 SWAP2 SUB SWAP1 RETURN JUMPDEST PUSH2 0xB11 PUSH1 0x4 DUP1 CALLDATASIZE SUB PUSH1 0x20 DUP2 LT ISZERO PUSH2 0xAE5 JUMPI PUSH1 0x0 DUP1 REVERT JUMPDEST DUP2 ADD SWAP1 DUP1 DUP1 CALLDATALOAD PUSH20 0xFFFFFFFFFFFFFFFFFFFFFFFFFFFFFFFFFFFFFFFF AND SWAP1 PUSH1 0x20 ADD SWAP1 SWAP3 SWAP2 SWAP1 POP POP POP PUSH2 0x2AE8 JUMP JUMPDEST STOP JUMPDEST PUSH2 0xB1B PUSH2 0x2CEC JUMP JUMPDEST PUSH1 0x40 MLOAD DUP1 DUP3 DUP2 MSTORE PUSH1 0x20 ADD SWAP2 POP POP PUSH1 0x40 MLOAD DUP1 SWAP2 SUB SWAP1 RETURN JUMPDEST PUSH2 0xB39 PUSH2 0x2CF2 JUMP JUMPDEST PUSH1 0x40 MLOAD DUP1 DUP3 PUSH20 0xFFFFFFFFFFFFFFFFFFFFFFFFFFFFFFFFFFFFFFFF AND DUP2 MSTORE PUSH1 0x20 ADD SWAP2 POP POP PUSH1 0x40 MLOAD DUP1 SWAP2 SUB SWAP1 RETURN JUMPDEST PUSH2 0xBB1 PUSH1 0x4 DUP1 CALLDATASIZE SUB PUSH1 0x40 DUP2 LT ISZERO PUSH2 0xB7B JUMPI PUSH1 0x0 DUP1 REVERT JUMPDEST DUP2 ADD SWAP1 DUP1 DUP1 CALLDATALOAD SWAP1 PUSH1 0x20 ADD SWAP1 SWAP3 SWAP2 SWAP1 DUP1 CALLDATALOAD PUSH20 0xFFFFFFFFFFFFFFFFFFFFFFFFFFFFFFFFFFFFFFFF AND SWAP1 PUSH1 0x20 ADD SWAP1 SWAP3 SWAP2 SWAP1 POP POP POP PUSH2 0x2D18 JUMP JUMPDEST PUSH1 0x40 MLOAD DUP1 DUP3 DUP2 MSTORE PUSH1 0x20 ADD SWAP2 POP POP PUSH1 0x40 MLOAD DUP1 SWAP2 SUB SWAP1 RETURN JUMPDEST PUSH2 0xBCF PUSH2 0x2F88 JUMP JUMPDEST STOP JUMPDEST PUSH2 0xC13 PUSH1 0x4 DUP1 CALLDATASIZE SUB PUSH1 0x20 DUP2 LT ISZERO PUSH2 0xBE7 JUMPI PUSH1 0x0 DUP1 REVERT JUMPDEST DUP2 ADD SWAP1 DUP1 DUP1 CALLDATALOAD PUSH20 0xFFFFFFFFFFFFFFFFFFFFFFFFFFFFFFFFFFFFFFFF AND SWAP1 PUSH1 0x20 ADD SWAP1 SWAP3 SWAP2 SWAP1 POP POP POP PUSH2 0x317C JUMP JUMPDEST STOP JUMPDEST PUSH2 0xC1D PUSH2 0x3250 JUMP JUMPDEST PUSH20 0xFFFFFFFFFFFFFFFFFFFFFFFFFFFFFFFFFFFFFFFF AND PUSH1 0x0 DUP1 SLOAD SWAP1 PUSH2 0x100 EXP SWAP1 DIV PUSH20 0xFFFFFFFFFFFFFFFFFFFFFFFFFFFFFFFFFFFFFFFF AND PUSH20 0xFFFFFFFFFFFFFFFFFFFFFFFFFFFFFFFFFFFFFFFF AND EQ PUSH2 0xCDD JUMPI PUSH1 0x40 MLOAD PUSH32 0x8C379A000000000000000000000000000000000000000000000000000000000 DUP2 MSTORE PUSH1 0x4 ADD DUP1 DUP1 PUSH1 0x20 ADD DUP3 DUP2 SUB DUP3 MSTORE PUSH1 0x20 DUP2 MSTORE PUSH1 0x20 ADD DUP1 PUSH32 0x4F776E61626C653A2063616C6C6572206973206E6F7420746865206F776E6572 DUP2 MSTORE POP PUSH1 0x20 ADD SWAP2 POP POP PUSH1 0x40 MLOAD DUP1 SWAP2 SUB SWAP1 REVERT JUMPDEST PUSH2 0x190 PUSH2 0xFFFF AND DUP5 PUSH2 0xFFFF AND GT ISZERO PUSH2 0xD40 JUMPI PUSH1 0x40 MLOAD PUSH32 0x8C379A000000000000000000000000000000000000000000000000000000000 DUP2 MSTORE PUSH1 0x4 ADD DUP1 DUP1 PUSH1 0x20 ADD DUP3 DUP2 SUB DUP3 MSTORE PUSH1 0x25 DUP2 MSTORE PUSH1 0x20 ADD DUP1 PUSH2 0x454C PUSH1 0x25 SWAP2 CODECOPY PUSH1 0x40 ADD SWAP2 POP POP PUSH1 0x40 MLOAD DUP1 SWAP2 SUB SWAP1 REVERT JUMPDEST PUSH1 0x0 DUP3 GT PUSH2 0xD99 JUMPI PUSH1 0x40 MLOAD PUSH32 0x8C379A000000000000000000000000000000000000000000000000000000000 DUP2 MSTORE PUSH1 0x4 ADD DUP1 DUP1 PUSH1 0x20 ADD DUP3 DUP2 SUB DUP3 MSTORE PUSH1 0x28 DUP2 MSTORE PUSH1 0x20 ADD DUP1 PUSH2 0x462E PUSH1 0x28 SWAP2 CODECOPY PUSH1 0x40 ADD SWAP2 POP POP PUSH1 0x40 MLOAD DUP1 SWAP2 SUB SWAP1 REVERT JUMPDEST DUP3 ISZERO PUSH2 0xDA8 JUMPI PUSH2 0xDA7 PUSH2 0x1E5D JUMP JUMPDEST JUMPDEST PUSH2 0xDED DUP6 PUSH2 0xDDF PUSH1 0x7 DUP10 DUP2 SLOAD DUP2 LT PUSH2 0xDBC JUMPI INVALID JUMPDEST SWAP1 PUSH1 0x0 MSTORE PUSH1 0x20 PUSH1 0x0 KECCAK256 SWAP1 PUSH1 0x7 MUL ADD PUSH1 0x1 ADD SLOAD PUSH1 0x9 SLOAD PUSH2 0x3258 SWAP1 SWAP2 SWAP1 PUSH4 0xFFFFFFFF AND JUMP JUMPDEST PUSH2 0x32A2 SWAP1 SWAP2 SWAP1 PUSH4 0xFFFFFFFF AND JUMP JUMPDEST PUSH1 0x9 DUP2 SWAP1 SSTORE POP DUP5 PUSH1 0x7 DUP8 DUP2 SLOAD DUP2 LT PUSH2 0xE01 JUMPI INVALID JUMPDEST SWAP1 PUSH1 0x0 MSTORE PUSH1 0x20 PUSH1 0x0 KECCAK256 SWAP1 PUSH1 0x7 MUL ADD PUSH1 0x1 ADD DUP2 SWAP1 SSTORE POP DUP4 PUSH1 0x7 DUP8 DUP2 SLOAD DUP2 LT PUSH2 0xE24 JUMPI INVALID JUMPDEST SWAP1 PUSH1 0x0 MSTORE PUSH1 0x20 PUSH1 0x0 KECCAK256 SWAP1 PUSH1 0x7 MUL ADD PUSH1 0x6 ADD PUSH1 0x0 PUSH2 0x100 EXP DUP2 SLOAD DUP2 PUSH2 0xFFFF MUL NOT AND SWAP1 DUP4 PUSH2 0xFFFF AND MUL OR SWAP1 SSTORE POP DUP2 PUSH1 0x7 DUP8 DUP2 SLOAD DUP2 LT PUSH2 0xE5D JUMPI INVALID JUMPDEST SWAP1 PUSH1 0x0 MSTORE PUSH1 0x20 PUSH1 0x0 KECCAK256 SWAP1 PUSH1 0x7 MUL ADD PUSH1 0x2 ADD DUP2 SWAP1 SSTORE POP PUSH1 0x0 DUP2 GT PUSH2 0xE81 JUMPI PUSH1 0x0 PUSH2 0xE83 JUMP JUMPDEST DUP1 JUMPDEST PUSH1 0x7 DUP8 DUP2 SLOAD DUP2 LT PUSH2 0xE90 JUMPI INVALID JUMPDEST SWAP1 PUSH1 0x0 MSTORE PUSH1 0x20 PUSH1 0x0 KECCAK256 SWAP1 PUSH1 0x7 MUL ADD PUSH1 0x3 ADD DUP2 SWAP1 SSTORE POP POP POP POP POP POP POP JUMP JUMPDEST PUSH1 0x0 PUSH1 0x7 DUP1 SLOAD SWAP1 POP SWAP1 POP SWAP1 JUMP JUMPDEST PUSH2 0xEC2 PUSH2 0x3250 JUMP JUMPDEST PUSH20 0xFFFFFFFFFFFFFFFFFFFFFFFFFFFFFFFFFFFFFFFF AND PUSH1 0x0 DUP1 SLOAD SWAP1 PUSH2 0x100 EXP SWAP1 DIV PUSH20 0xFFFFFFFFFFFFFFFFFFFFFFFFFFFFFFFFFFFFFFFF AND PUSH20 0xFFFFFFFFFFFFFFFFFFFFFFFFFFFFFFFFFFFFFFFF AND EQ PUSH2 0xF82 JUMPI PUSH1 0x40 MLOAD PUSH32 0x8C379A000000000000000000000000000000000000000000000000000000000 DUP2 MSTORE PUSH1 0x4 ADD DUP1 DUP1 PUSH1 0x20 ADD DUP3 DUP2 SUB DUP3 MSTORE PUSH1 0x20 DUP2 MSTORE PUSH1 0x20 ADD DUP1 PUSH32 0x4F776E61626C653A2063616C6C6572206973206E6F7420746865206F776E6572 DUP2 MSTORE POP PUSH1 0x20 ADD SWAP2 POP POP PUSH1 0x40 MLOAD DUP1 SWAP2 SUB SWAP1 REVERT JUMPDEST DUP6 PUSH1 0x0 ISZERO ISZERO PUSH1 0xD PUSH1 0x0 DUP4 PUSH20 0xFFFFFFFFFFFFFFFFFFFFFFFFFFFFFFFFFFFFFFFF AND PUSH20 0xFFFFFFFFFFFFFFFFFFFFFFFFFFFFFFFFFFFFFFFF AND DUP2 MSTORE PUSH1 0x20 ADD SWAP1 DUP2 MSTORE PUSH1 0x20 ADD PUSH1 0x0 KECCAK256 PUSH1 0x0 SWAP1 SLOAD SWAP1 PUSH2 0x100 EXP SWAP1 DIV PUSH1 0xFF AND ISZERO ISZERO EQ PUSH2 0x1049 JUMPI PUSH1 0x40 MLOAD PUSH32 0x8C379A000000000000000000000000000000000000000000000000000000000 DUP2 MSTORE PUSH1 0x4 ADD DUP1 DUP1 PUSH1 0x20 ADD DUP3 DUP2 SUB DUP3 MSTORE PUSH1 0x19 DUP2 MSTORE PUSH1 0x20 ADD DUP1 PUSH32 0x6E6F6E4475706C6963617465643A206475706C69636174656400000000000000 DUP2 MSTORE POP PUSH1 0x20 ADD SWAP2 POP POP PUSH1 0x40 MLOAD DUP1 SWAP2 SUB SWAP1 REVERT JUMPDEST PUSH2 0x190 PUSH2 0xFFFF AND DUP7 PUSH2 0xFFFF AND GT ISZERO PUSH2 0x10AC JUMPI PUSH1 0x40 MLOAD PUSH32 0x8C379A000000000000000000000000000000000000000000000000000000000 DUP2 MSTORE PUSH1 0x4 ADD DUP1 DUP1 PUSH1 0x20 ADD DUP3 DUP2 SUB DUP3 MSTORE PUSH1 0x25 DUP2 MSTORE PUSH1 0x20 ADD DUP1 PUSH2 0x4432 PUSH1 0x25 SWAP2 CODECOPY PUSH1 0x40 ADD SWAP2 POP POP PUSH1 0x40 MLOAD DUP1 SWAP2 SUB SWAP1 REVERT JUMPDEST PUSH1 0x0 DUP5 GT PUSH2 0x1105 JUMPI PUSH1 0x40 MLOAD PUSH32 0x8C379A000000000000000000000000000000000000000000000000000000000 DUP2 MSTORE PUSH1 0x4 ADD DUP1 DUP1 PUSH1 0x20 ADD DUP3 DUP2 SUB DUP3 MSTORE PUSH1 0x29 DUP2 MSTORE PUSH1 0x20 ADD DUP1 PUSH2 0x44E1 PUSH1 0x29 SWAP2 CODECOPY PUSH1 0x40 ADD SWAP2 POP POP PUSH1 0x40 MLOAD DUP1 SWAP2 SUB SWAP1 REVERT JUMPDEST DUP5 ISZERO PUSH2 0x1114 JUMPI PUSH2 0x1113 PUSH2 0x1E5D JUMP JUMPDEST JUMPDEST PUSH2 0x1129 DUP9 PUSH1 0x9 SLOAD PUSH2 0x32A2 SWAP1 SWAP2 SWAP1 PUSH4 0xFFFFFFFF AND JUMP JUMPDEST PUSH1 0x9 DUP2 SWAP1 SSTORE POP PUSH1 0x1 PUSH1 0xD PUSH1 0x0 DUP10 PUSH20 0xFFFFFFFFFFFFFFFFFFFFFFFFFFFFFFFFFFFFFFFF AND PUSH20 0xFFFFFFFFFFFFFFFFFFFFFFFFFFFFFFFFFFFFFFFF AND DUP2 MSTORE PUSH1 0x20 ADD SWAP1 DUP2 MSTORE PUSH1 0x20 ADD PUSH1 0x0 KECCAK256 PUSH1 0x0 PUSH2 0x100 EXP DUP2 SLOAD DUP2 PUSH1 0xFF MUL NOT AND SWAP1 DUP4 ISZERO ISZERO MUL OR SWAP1 SSTORE POP PUSH1 0x7 PUSH1 0x40 MLOAD DUP1 PUSH1 0xE0 ADD PUSH1 0x40 MSTORE DUP1 DUP10 PUSH20 0xFFFFFFFFFFFFFFFFFFFFFFFFFFFFFFFFFFFFFFFF AND DUP2 MSTORE PUSH1 0x20 ADD DUP11 DUP2 MSTORE PUSH1 0x20 ADD DUP7 DUP2 MSTORE PUSH1 0x20 ADD PUSH1 0x0 DUP6 GT PUSH2 0x11CB JUMPI PUSH1 0x0 PUSH2 0x11CD JUMP JUMPDEST DUP5 JUMPDEST DUP2 MSTORE PUSH1 0x20 ADD PUSH1 0x0 DUP7 GT PUSH2 0x11E0 JUMPI NUMBER PUSH2 0x11E2 JUMP JUMPDEST DUP6 JUMPDEST DUP2 MSTORE PUSH1 0x20 ADD PUSH1 0x0 DUP2 MSTORE PUSH1 0x20 ADD DUP9 PUSH2 0xFFFF AND DUP2 MSTORE POP SWAP1 DUP1 PUSH1 0x1 DUP2 SLOAD ADD DUP1 DUP3 SSTORE DUP1 SWAP2 POP POP PUSH1 0x1 SWAP1 SUB SWAP1 PUSH1 0x0 MSTORE PUSH1 0x20 PUSH1 0x0 KECCAK256 SWAP1 PUSH1 0x7 MUL ADD PUSH1 0x0 SWAP1 SWAP2 SWAP1 SWAP2 SWAP1 SWAP2 POP PUSH1 0x0 DUP3 ADD MLOAD DUP2 PUSH1 0x0 ADD PUSH1 0x0 PUSH2 0x100 EXP DUP2 SLOAD DUP2 PUSH20 0xFFFFFFFFFFFFFFFFFFFFFFFFFFFFFFFFFFFFFFFF MUL NOT AND SWAP1 DUP4 PUSH20 0xFFFFFFFFFFFFFFFFFFFFFFFFFFFFFFFFFFFFFFFF AND MUL OR SWAP1 SSTORE POP PUSH1 0x20 DUP3 ADD MLOAD DUP2 PUSH1 0x1 ADD SSTORE PUSH1 0x40 DUP3 ADD MLOAD DUP2 PUSH1 0x2 ADD SSTORE PUSH1 0x60 DUP3 ADD MLOAD DUP2 PUSH1 0x3 ADD SSTORE PUSH1 0x80 DUP3 ADD MLOAD DUP2 PUSH1 0x4 ADD SSTORE PUSH1 0xA0 DUP3 ADD MLOAD DUP2 PUSH1 0x5 ADD SSTORE PUSH1 0xC0 DUP3 ADD MLOAD DUP2 PUSH1 0x6 ADD PUSH1 0x0 PUSH2 0x100 EXP DUP2 SLOAD DUP2 PUSH2 0xFFFF MUL NOT AND SWAP1 DUP4 PUSH2 0xFFFF AND MUL OR SWAP1 SSTORE POP POP POP PUSH1 0x1 PUSH1 0x7 DUP1 SLOAD SWAP1 POP SUB PUSH1 0xE PUSH1 0x0 DUP10 PUSH20 0xFFFFFFFFFFFFFFFFFFFFFFFFFFFFFFFFFFFFFFFF AND PUSH20 0xFFFFFFFFFFFFFFFFFFFFFFFFFFFFFFFFFFFFFFFF AND DUP2 MSTORE PUSH1 0x20 ADD SWAP1 DUP2 MSTORE PUSH1 0x20 ADD PUSH1 0x0 KECCAK256 DUP2 SWAP1 SSTORE POP POP POP POP POP POP POP POP POP JUMP JUMPDEST PUSH1 0x7 DUP2 DUP2 SLOAD DUP2 LT PUSH2 0x1320 JUMPI INVALID JUMPDEST SWAP1 PUSH1 0x0 MSTORE PUSH1 0x20 PUSH1 0x0 KECCAK256 SWAP1 PUSH1 0x7 MUL ADD PUSH1 0x0 SWAP2 POP SWAP1 POP DUP1 PUSH1 0x0 ADD PUSH1 0x0 SWAP1 SLOAD SWAP1 PUSH2 0x100 EXP SWAP1 DIV PUSH20 0xFFFFFFFFFFFFFFFFFFFFFFFFFFFFFFFFFFFFFFFF AND SWAP1 DUP1 PUSH1 0x1 ADD SLOAD SWAP1 DUP1 PUSH1 0x2 ADD SLOAD SWAP1 DUP1 PUSH1 0x3 ADD SLOAD SWAP1 DUP1 PUSH1 0x4 ADD SLOAD SWAP1 DUP1 PUSH1 0x5 ADD SLOAD SWAP1 DUP1 PUSH1 0x6 ADD PUSH1 0x0 SWAP1 SLOAD SWAP1 PUSH2 0x100 EXP SWAP1 DIV PUSH2 0xFFFF AND SWAP1 POP DUP8 JUMP JUMPDEST PUSH1 0x9 SLOAD DUP2 JUMP JUMPDEST PUSH1 0x0 DUP1 ISZERO ISZERO PUSH1 0xD PUSH1 0x0 DUP5 PUSH20 0xFFFFFFFFFFFFFFFFFFFFFFFFFFFFFFFFFFFFFFFF AND PUSH20 0xFFFFFFFFFFFFFFFFFFFFFFFFFFFFFFFFFFFFFFFF AND DUP2 MSTORE PUSH1 0x20 ADD SWAP1 DUP2 MSTORE PUSH1 0x20 ADD PUSH1 0x0 KECCAK256 PUSH1 0x0 SWAP1 SLOAD SWAP1 PUSH2 0x100 EXP SWAP1 DIV PUSH1 0xFF AND ISZERO ISZERO EQ ISZERO PUSH2 0x1441 JUMPI PUSH1 0x40 MLOAD PUSH32 0x8C379A000000000000000000000000000000000000000000000000000000000 DUP2 MSTORE PUSH1 0x4 ADD DUP1 DUP1 PUSH1 0x20 ADD DUP3 DUP2 SUB DUP3 MSTORE PUSH1 0x21 DUP2 MSTORE PUSH1 0x20 ADD DUP1 PUSH2 0x460D PUSH1 0x21 SWAP2 CODECOPY PUSH1 0x40 ADD SWAP2 POP POP PUSH1 0x40 MLOAD DUP1 SWAP2 SUB SWAP1 REVERT JUMPDEST PUSH1 0xE PUSH1 0x0 DUP4 PUSH20 0xFFFFFFFFFFFFFFFFFFFFFFFFFFFFFFFFFFFFFFFF AND PUSH20 0xFFFFFFFFFFFFFFFFFFFFFFFFFFFFFFFFFFFFFFFF AND DUP2 MSTORE PUSH1 0x20 ADD SWAP1 DUP2 MSTORE PUSH1 0x20 ADD PUSH1 0x0 KECCAK256 SLOAD SWAP1 POP SWAP2 SWAP1 POP JUMP JUMPDEST PUSH2 0x1490 PUSH2 0x3250 JUMP JUMPDEST PUSH20 0xFFFFFFFFFFFFFFFFFFFFFFFFFFFFFFFFFFFFFFFF AND PUSH1 0x0 DUP1 SLOAD SWAP1 PUSH2 0x100 EXP SWAP1 DIV PUSH20 0xFFFFFFFFFFFFFFFFFFFFFFFFFFFFFFFFFFFFFFFF AND PUSH20 0xFFFFFFFFFFFFFFFFFFFFFFFFFFFFFFFFFFFFFFFF AND EQ PUSH2 0x1550 JUMPI PUSH1 0x40 MLOAD PUSH32 0x8C379A000000000000000000000000000000000000000000000000000000000 DUP2 MSTORE PUSH1 0x4 ADD DUP1 DUP1 PUSH1 0x20 ADD DUP3 DUP2 SUB DUP3 MSTORE PUSH1 0x20 DUP2 MSTORE PUSH1 0x20 ADD DUP1 PUSH32 0x4F776E61626C653A2063616C6C6572206973206E6F7420746865206F776E6572 DUP2 MSTORE POP PUSH1 0x20 ADD SWAP2 POP POP PUSH1 0x40 MLOAD DUP1 SWAP2 SUB SWAP1 REVERT JUMPDEST PUSH1 0x0 PUSH1 0x6 SLOAD SWAP1 POP DUP2 PUSH1 0x6 DUP2 SWAP1 SSTORE POP CALLER PUSH20 0xFFFFFFFFFFFFFFFFFFFFFFFFFFFFFFFFFFFFFFFF AND PUSH32 0xABE024A075FCD3D0CE833CBF71173E1B743A290B0FE6F4A02121C07017F358B0 DUP3 DUP5 PUSH1 0x40 MLOAD DUP1 DUP4 DUP2 MSTORE PUSH1 0x20 ADD DUP3 DUP2 MSTORE PUSH1 0x20 ADD SWAP3 POP POP POP PUSH1 0x40 MLOAD DUP1 SWAP2 SUB SWAP1 LOG2 POP POP JUMP JUMPDEST PUSH2 0x7D0 DUP2 JUMP JUMPDEST PUSH1 0x0 PUSH1 0xB PUSH1 0x0 DUP4 PUSH20 0xFFFFFFFFFFFFFFFFFFFFFFFFFFFFFFFFFFFFFFFF AND PUSH20 0xFFFFFFFFFFFFFFFFFFFFFFFFFFFFFFFFFFFFFFFF AND DUP2 MSTORE PUSH1 0x20 ADD SWAP1 DUP2 MSTORE PUSH1 0x20 ADD PUSH1 0x0 KECCAK256 PUSH1 0x0 SWAP1 SLOAD SWAP1 PUSH2 0x100 EXP SWAP1 DIV PUSH20 0xFFFFFFFFFFFFFFFFFFFFFFFFFFFFFFFFFFFFFFFF AND SWAP1 POP SWAP2 SWAP1 POP JUMP JUMPDEST PUSH1 0xC PUSH1 0x20 MSTORE DUP1 PUSH1 0x0 MSTORE PUSH1 0x40 PUSH1 0x0 KECCAK256 PUSH1 0x0 SWAP2 POP SWAP1 POP SLOAD DUP2 JUMP JUMPDEST PUSH1 0x5 PUSH1 0x0 SWAP1 SLOAD SWAP1 PUSH2 0x100 EXP SWAP1 DIV PUSH20 0xFFFFFFFFFFFFFFFFFFFFFFFFFFFFFFFFFFFFFFFF AND DUP2 JUMP JUMPDEST PUSH1 0x2 PUSH1 0x1 SLOAD EQ ISZERO PUSH2 0x16DE JUMPI PUSH1 0x40 MLOAD PUSH32 0x8C379A000000000000000000000000000000000000000000000000000000000 DUP2 MSTORE PUSH1 0x4 ADD DUP1 DUP1 PUSH1 0x20 ADD DUP3 DUP2 SUB DUP3 MSTORE PUSH1 0x1F DUP2 MSTORE PUSH1 0x20 ADD DUP1 PUSH32 0x5265656E7472616E637947756172643A207265656E7472616E742063616C6C00 DUP2 MSTORE POP PUSH1 0x20 ADD SWAP2 POP POP PUSH1 0x40 MLOAD DUP1 SWAP2 SUB SWAP1 REVERT JUMPDEST PUSH1 0x2 PUSH1 0x1 DUP2 SWAP1 SSTORE POP PUSH1 0x0 PUSH1 0x7 DUP4 DUP2 SLOAD DUP2 LT PUSH2 0x16F5 JUMPI INVALID JUMPDEST SWAP1 PUSH1 0x0 MSTORE PUSH1 0x20 PUSH1 0x0 KECCAK256 SWAP1 PUSH1 0x7 MUL ADD SWAP1 POP PUSH1 0x0 PUSH1 0x8 PUSH1 0x0 DUP6 DUP2 MSTORE PUSH1 0x20 ADD SWAP1 DUP2 MSTORE PUSH1 0x20 ADD PUSH1 0x0 KECCAK256 PUSH1 0x0 CALLER PUSH20 0xFFFFFFFFFFFFFFFFFFFFFFFFFFFFFFFFFFFFFFFF AND PUSH20 0xFFFFFFFFFFFFFFFFFFFFFFFFFFFFFFFFFFFFFFFF AND DUP2 MSTORE PUSH1 0x20 ADD SWAP1 DUP2 MSTORE PUSH1 0x20 ADD PUSH1 0x0 KECCAK256 SWAP1 POP DUP3 DUP2 PUSH1 0x0 ADD SLOAD LT ISZERO PUSH2 0x17D3 JUMPI PUSH1 0x40 MLOAD PUSH32 0x8C379A000000000000000000000000000000000000000000000000000000000 DUP2 MSTORE PUSH1 0x4 ADD DUP1 DUP1 PUSH1 0x20 ADD DUP3 DUP2 SUB DUP3 MSTORE PUSH1 0x12 DUP2 MSTORE PUSH1 0x20 ADD DUP1 PUSH32 0x77697468647261773A206E6F7420676F6F640000000000000000000000000000 DUP2 MSTORE POP PUSH1 0x20 ADD SWAP2 POP POP PUSH1 0x40 MLOAD DUP1 SWAP2 SUB SWAP1 REVERT JUMPDEST PUSH2 0x17DC DUP5 PUSH2 0x1926 JUMP JUMPDEST PUSH2 0x17E5 DUP5 PUSH2 0x332A JUMP JUMPDEST PUSH1 0x0 DUP4 GT ISZERO PUSH2 0x185D JUMPI PUSH2 0x1805 DUP4 DUP3 PUSH1 0x0 ADD SLOAD PUSH2 0x3258 SWAP1 SWAP2 SWAP1 PUSH4 0xFFFFFFFF AND JUMP JUMPDEST DUP2 PUSH1 0x0 ADD DUP2 SWAP1 SSTORE POP PUSH2 0x185C CALLER DUP5 DUP5 PUSH1 0x0 ADD PUSH1 0x0 SWAP1 SLOAD SWAP1 PUSH2 0x100 EXP SWAP1 DIV PUSH20 0xFFFFFFFFFFFFFFFFFFFFFFFFFFFFFFFFFFFFFFFF AND PUSH20 0xFFFFFFFFFFFFFFFFFFFFFFFFFFFFFFFFFFFFFFFF AND PUSH2 0x347F SWAP1 SWAP3 SWAP2 SWAP1 PUSH4 0xFFFFFFFF AND JUMP JUMPDEST JUMPDEST PUSH2 0x188F PUSH5 0xE8D4A51000 PUSH2 0x1881 DUP5 PUSH1 0x5 ADD SLOAD DUP5 PUSH1 0x0 ADD SLOAD PUSH2 0x3521 SWAP1 SWAP2 SWAP1 PUSH4 0xFFFFFFFF AND JUMP JUMPDEST PUSH2 0x35A7 SWAP1 SWAP2 SWAP1 PUSH4 0xFFFFFFFF AND JUMP JUMPDEST DUP2 PUSH1 0x1 ADD DUP2 SWAP1 SSTORE POP DUP4 CALLER PUSH20 0xFFFFFFFFFFFFFFFFFFFFFFFFFFFFFFFFFFFFFFFF AND PUSH32 0xF279E6A1F5E320CCA91135676D9CB6E44CA8A08C0B88342BCDB1144F6511B568 DUP6 PUSH1 0x40 MLOAD DUP1 DUP3 DUP2 MSTORE PUSH1 0x20 ADD SWAP2 POP POP PUSH1 0x40 MLOAD DUP1 SWAP2 SUB SWAP1 LOG3 POP POP PUSH1 0x1 DUP1 DUP2 SWAP1 SSTORE POP POP POP JUMP JUMPDEST PUSH1 0xB PUSH1 0x20 MSTORE DUP1 PUSH1 0x0 MSTORE PUSH1 0x40 PUSH1 0x0 KECCAK256 PUSH1 0x0 SWAP2 POP SLOAD SWAP1 PUSH2 0x100 EXP SWAP1 DIV PUSH20 0xFFFFFFFFFFFFFFFFFFFFFFFFFFFFFFFFFFFFFFFF AND DUP2 JUMP JUMPDEST PUSH1 0x0 PUSH1 0x7 DUP3 DUP2 SLOAD DUP2 LT PUSH2 0x1935 JUMPI INVALID JUMPDEST SWAP1 PUSH1 0x0 MSTORE PUSH1 0x20 PUSH1 0x0 KECCAK256 SWAP1 PUSH1 0x7 MUL ADD SWAP1 POP PUSH1 0x0 PUSH2 0x1950 DUP4 PUSH2 0x35F1 JUMP JUMPDEST SWAP1 POP DUP2 PUSH1 0x4 ADD SLOAD DUP2 GT PUSH2 0x1964 JUMPI POP POP PUSH2 0x1C8E JUMP JUMPDEST PUSH1 0x0 DUP3 PUSH1 0x0 ADD PUSH1 0x0 SWAP1 SLOAD SWAP1 PUSH2 0x100 EXP SWAP1 DIV PUSH20 0xFFFFFFFFFFFFFFFFFFFFFFFFFFFFFFFFFFFFFFFF AND PUSH20 0xFFFFFFFFFFFFFFFFFFFFFFFFFFFFFFFFFFFFFFFF AND PUSH4 0x70A08231 ADDRESS PUSH1 0x40 MLOAD DUP3 PUSH4 0xFFFFFFFF AND PUSH1 0xE0 SHL DUP2 MSTORE PUSH1 0x4 ADD DUP1 DUP3 PUSH20 0xFFFFFFFFFFFFFFFFFFFFFFFFFFFFFFFFFFFFFFFF AND DUP2 MSTORE PUSH1 0x20 ADD SWAP2 POP POP PUSH1 0x20 PUSH1 0x40 MLOAD DUP1 DUP4 SUB DUP2 DUP7 DUP1 EXTCODESIZE ISZERO DUP1 ISZERO PUSH2 0x19F1 JUMPI PUSH1 0x0 DUP1 REVERT JUMPDEST POP GAS STATICCALL ISZERO DUP1 ISZERO PUSH2 0x1A05 JUMPI RETURNDATASIZE PUSH1 0x0 DUP1 RETURNDATACOPY RETURNDATASIZE PUSH1 0x0 REVERT JUMPDEST POP POP POP POP PUSH1 0x40 MLOAD RETURNDATASIZE PUSH1 0x20 DUP2 LT ISZERO PUSH2 0x1A1B JUMPI PUSH1 0x0 DUP1 REVERT JUMPDEST DUP2 ADD SWAP1 DUP1 DUP1 MLOAD SWAP1 PUSH1 0x20 ADD SWAP1 SWAP3 SWAP2 SWAP1 POP POP POP SWAP1 POP PUSH1 0x0 DUP2 EQ DUP1 PUSH2 0x1A41 JUMPI POP PUSH1 0x0 DUP4 PUSH1 0x1 ADD SLOAD EQ JUMPDEST ISZERO PUSH2 0x1A57 JUMPI DUP2 DUP4 PUSH1 0x4 ADD DUP2 SWAP1 SSTORE POP POP POP POP PUSH2 0x1C8E JUMP JUMPDEST PUSH1 0x0 PUSH2 0x1A67 DUP5 PUSH1 0x4 ADD SLOAD DUP5 PUSH2 0x2422 JUMP JUMPDEST SWAP1 POP PUSH1 0x0 PUSH2 0x1AAA PUSH1 0x9 SLOAD PUSH2 0x1A9C DUP8 PUSH1 0x1 ADD SLOAD PUSH2 0x1A8E PUSH1 0x4 SLOAD DUP8 PUSH2 0x3521 SWAP1 SWAP2 SWAP1 PUSH4 0xFFFFFFFF AND JUMP JUMPDEST PUSH2 0x3521 SWAP1 SWAP2 SWAP1 PUSH4 0xFFFFFFFF AND JUMP JUMPDEST PUSH2 0x35A7 SWAP1 SWAP2 SWAP1 PUSH4 0xFFFFFFFF AND JUMP JUMPDEST SWAP1 POP PUSH1 0x2 PUSH1 0x0 SWAP1 SLOAD SWAP1 PUSH2 0x100 EXP SWAP1 DIV PUSH20 0xFFFFFFFFFFFFFFFFFFFFFFFFFFFFFFFFFFFFFFFF AND PUSH20 0xFFFFFFFFFFFFFFFFFFFFFFFFFFFFFFFFFFFFFFFF AND PUSH4 0x40C10F19 PUSH1 0x3 PUSH1 0x0 SWAP1 SLOAD SWAP1 PUSH2 0x100 EXP SWAP1 DIV PUSH20 0xFFFFFFFFFFFFFFFFFFFFFFFFFFFFFFFFFFFFFFFF AND PUSH2 0x1B21 PUSH1 0xA DUP6 PUSH2 0x35A7 SWAP1 SWAP2 SWAP1 PUSH4 0xFFFFFFFF AND JUMP JUMPDEST PUSH1 0x40 MLOAD DUP4 PUSH4 0xFFFFFFFF AND PUSH1 0xE0 SHL DUP2 MSTORE PUSH1 0x4 ADD DUP1 DUP4 PUSH20 0xFFFFFFFFFFFFFFFFFFFFFFFFFFFFFFFFFFFFFFFF AND DUP2 MSTORE PUSH1 0x20 ADD DUP3 DUP2 MSTORE PUSH1 0x20 ADD SWAP3 POP POP POP PUSH1 0x0 PUSH1 0x40 MLOAD DUP1 DUP4 SUB DUP2 PUSH1 0x0 DUP8 DUP1 EXTCODESIZE ISZERO DUP1 ISZERO PUSH2 0x1B74 JUMPI PUSH1 0x0 DUP1 REVERT JUMPDEST POP GAS CALL ISZERO DUP1 ISZERO PUSH2 0x1B88 JUMPI RETURNDATASIZE PUSH1 0x0 DUP1 RETURNDATACOPY RETURNDATASIZE PUSH1 0x0 REVERT JUMPDEST POP POP POP POP PUSH1 0x2 PUSH1 0x0 SWAP1 SLOAD SWAP1 PUSH2 0x100 EXP SWAP1 DIV PUSH20 0xFFFFFFFFFFFFFFFFFFFFFFFFFFFFFFFFFFFFFFFF AND PUSH20 0xFFFFFFFFFFFFFFFFFFFFFFFFFFFFFFFFFFFFFFFF AND PUSH4 0x40C10F19 ADDRESS DUP4 PUSH1 0x40 MLOAD DUP4 PUSH4 0xFFFFFFFF AND PUSH1 0xE0 SHL DUP2 MSTORE PUSH1 0x4 ADD DUP1 DUP4 PUSH20 0xFFFFFFFFFFFFFFFFFFFFFFFFFFFFFFFFFFFFFFFF AND DUP2 MSTORE PUSH1 0x20 ADD DUP3 DUP2 MSTORE PUSH1 0x20 ADD SWAP3 POP POP POP PUSH1 0x0 PUSH1 0x40 MLOAD DUP1 DUP4 SUB DUP2 PUSH1 0x0 DUP8 DUP1 EXTCODESIZE ISZERO DUP1 ISZERO PUSH2 0x1C1F JUMPI PUSH1 0x0 DUP1 REVERT JUMPDEST POP GAS CALL ISZERO DUP1 ISZERO PUSH2 0x1C33 JUMPI RETURNDATASIZE PUSH1 0x0 DUP1 RETURNDATACOPY RETURNDATASIZE PUSH1 0x0 REVERT JUMPDEST POP POP POP POP PUSH2 0x1C77 PUSH2 0x1C64 DUP5 PUSH2 0x1C56 PUSH5 0xE8D4A51000 DUP6 PUSH2 0x3521 SWAP1 SWAP2 SWAP1 PUSH4 0xFFFFFFFF AND JUMP JUMPDEST PUSH2 0x35A7 SWAP1 SWAP2 SWAP1 PUSH4 0xFFFFFFFF AND JUMP JUMPDEST DUP7 PUSH1 0x5 ADD SLOAD PUSH2 0x32A2 SWAP1 SWAP2 SWAP1 PUSH4 0xFFFFFFFF AND JUMP JUMPDEST DUP6 PUSH1 0x5 ADD DUP2 SWAP1 SSTORE POP DUP4 DUP6 PUSH1 0x4 ADD DUP2 SWAP1 SSTORE POP POP POP POP POP POP JUMPDEST POP JUMP JUMPDEST PUSH1 0x2 PUSH1 0x1 SLOAD EQ ISZERO PUSH2 0x1D0A JUMPI PUSH1 0x40 MLOAD PUSH32 0x8C379A000000000000000000000000000000000000000000000000000000000 DUP2 MSTORE PUSH1 0x4 ADD DUP1 DUP1 PUSH1 0x20 ADD DUP3 DUP2 SUB DUP3 MSTORE PUSH1 0x1F DUP2 MSTORE PUSH1 0x20 ADD DUP1 PUSH32 0x5265656E7472616E637947756172643A207265656E7472616E742063616C6C00 DUP2 MSTORE POP PUSH1 0x20 ADD SWAP2 POP POP PUSH1 0x40 MLOAD DUP1 SWAP2 SUB SWAP1 REVERT JUMPDEST PUSH1 0x2 PUSH1 0x1 DUP2 SWAP1 SSTORE POP PUSH1 0x0 PUSH1 0x7 DUP3 DUP2 SLOAD DUP2 LT PUSH2 0x1D21 JUMPI INVALID JUMPDEST SWAP1 PUSH1 0x0 MSTORE PUSH1 0x20 PUSH1 0x0 KECCAK256 SWAP1 PUSH1 0x7 MUL ADD SWAP1 POP PUSH1 0x0 PUSH1 0x8 PUSH1 0x0 DUP5 DUP2 MSTORE PUSH1 0x20 ADD SWAP1 DUP2 MSTORE PUSH1 0x20 ADD PUSH1 0x0 KECCAK256 PUSH1 0x0 CALLER PUSH20 0xFFFFFFFFFFFFFFFFFFFFFFFFFFFFFFFFFFFFFFFF AND PUSH20 0xFFFFFFFFFFFFFFFFFFFFFFFFFFFFFFFFFFFFFFFF AND DUP2 MSTORE PUSH1 0x20 ADD SWAP1 DUP2 MSTORE PUSH1 0x20 ADD PUSH1 0x0 KECCAK256 SWAP1 POP PUSH2 0x1DD8 CALLER DUP3 PUSH1 0x0 ADD SLOAD DUP5 PUSH1 0x0 ADD PUSH1 0x0 SWAP1 SLOAD SWAP1 PUSH2 0x100 EXP SWAP1 DIV PUSH20 0xFFFFFFFFFFFFFFFFFFFFFFFFFFFFFFFFFFFFFFFF AND PUSH20 0xFFFFFFFFFFFFFFFFFFFFFFFFFFFFFFFFFFFFFFFF AND PUSH2 0x347F SWAP1 SWAP3 SWAP2 SWAP1 PUSH4 0xFFFFFFFF AND JUMP JUMPDEST DUP3 CALLER PUSH20 0xFFFFFFFFFFFFFFFFFFFFFFFFFFFFFFFFFFFFFFFF AND PUSH32 0xBB757047C2B5F3974FE26B7C10F732E7BCE710B0952A71082702781E62AE0595 DUP4 PUSH1 0x0 ADD SLOAD PUSH1 0x40 MLOAD DUP1 DUP3 DUP2 MSTORE PUSH1 0x20 ADD SWAP2 POP POP PUSH1 0x40 MLOAD DUP1 SWAP2 SUB SWAP1 LOG3 PUSH1 0x0 DUP2 PUSH1 0x0 ADD DUP2 SWAP1 SSTORE POP PUSH1 0x0 DUP2 PUSH1 0x1 ADD DUP2 SWAP1 SSTORE POP POP POP PUSH1 0x1 DUP1 DUP2 SWAP1 SSTORE POP POP JUMP JUMPDEST PUSH1 0x6 SLOAD DUP2 JUMP JUMPDEST PUSH8 0x16345785D8A0000 DUP2 JUMP JUMPDEST PUSH1 0x0 PUSH1 0x7 DUP1 SLOAD SWAP1 POP SWAP1 POP PUSH1 0x0 JUMPDEST DUP2 DUP2 LT ISZERO PUSH2 0x1E86 JUMPI PUSH2 0x1E7B DUP2 PUSH2 0x1926 JUMP JUMPDEST DUP1 PUSH1 0x1 ADD SWAP1 POP PUSH2 0x1E6A JUMP JUMPDEST POP POP JUMP JUMPDEST PUSH2 0x1E92 PUSH2 0x3250 JUMP JUMPDEST PUSH20 0xFFFFFFFFFFFFFFFFFFFFFFFFFFFFFFFFFFFFFFFF AND PUSH1 0x0 DUP1 SLOAD SWAP1 PUSH2 0x100 EXP SWAP1 DIV PUSH20 0xFFFFFFFFFFFFFFFFFFFFFFFFFFFFFFFFFFFFFFFF AND PUSH20 0xFFFFFFFFFFFFFFFFFFFFFFFFFFFFFFFFFFFFFFFF AND EQ PUSH2 0x1F52 JUMPI PUSH1 0x40 MLOAD PUSH32 0x8C379A000000000000000000000000000000000000000000000000000000000 DUP2 MSTORE PUSH1 0x4 ADD DUP1 DUP1 PUSH1 0x20 ADD DUP3 DUP2 SUB DUP3 MSTORE PUSH1 0x20 DUP2 MSTORE PUSH1 0x20 ADD DUP1 PUSH32 0x4F776E61626C653A2063616C6C6572206973206E6F7420746865206F776E6572 DUP2 MSTORE POP PUSH1 0x20 ADD SWAP2 POP POP PUSH1 0x40 MLOAD DUP1 SWAP2 SUB SWAP1 REVERT JUMPDEST PUSH2 0x7D0 PUSH2 0xFFFF AND DUP2 GT ISZERO PUSH2 0x1FB1 JUMPI PUSH1 0x40 MLOAD PUSH32 0x8C379A000000000000000000000000000000000000000000000000000000000 DUP2 MSTORE PUSH1 0x4 ADD DUP1 DUP1 PUSH1 0x20 ADD DUP3 DUP2 SUB DUP3 MSTORE PUSH1 0x3A DUP2 MSTORE PUSH1 0x20 ADD DUP1 PUSH2 0x4457 PUSH1 0x3A SWAP2 CODECOPY PUSH1 0x40 ADD SWAP2 POP POP PUSH1 0x40 MLOAD DUP1 SWAP2 SUB SWAP1 REVERT JUMPDEST PUSH1 0xA SLOAD DUP2 EQ ISZERO PUSH2 0x200C JUMPI PUSH1 0x40 MLOAD PUSH32 0x8C379A000000000000000000000000000000000000000000000000000000000 DUP2 MSTORE PUSH1 0x4 ADD DUP1 DUP1 PUSH1 0x20 ADD DUP3 DUP2 SUB DUP3 MSTORE PUSH1 0x28 DUP2 MSTORE PUSH1 0x20 ADD DUP1 PUSH2 0x4571 PUSH1 0x28 SWAP2 CODECOPY PUSH1 0x40 ADD SWAP2 POP POP PUSH1 0x40 MLOAD DUP1 SWAP2 SUB SWAP1 REVERT JUMPDEST PUSH1 0x0 PUSH1 0xA SLOAD SWAP1 POP DUP2 PUSH1 0xA DUP2 SWAP1 SSTORE POP PUSH32 0x3282B692BFEBF5F35B198A229212CF532C72099026AB54C4B8665382D1086B3F DUP2 DUP4 PUSH1 0x40 MLOAD DUP1 DUP4 DUP2 MSTORE PUSH1 0x20 ADD DUP3 DUP2 MSTORE PUSH1 0x20 ADD SWAP3 POP POP POP PUSH1 0x40 MLOAD DUP1 SWAP2 SUB SWAP1 LOG1 POP POP JUMP JUMPDEST PUSH1 0x4 SLOAD DUP2 JUMP JUMPDEST PUSH1 0xA SLOAD DUP2 JUMP JUMPDEST PUSH1 0xF SLOAD DUP2 JUMP JUMPDEST PUSH2 0x2077 PUSH2 0x3250 JUMP JUMPDEST PUSH20 0xFFFFFFFFFFFFFFFFFFFFFFFFFFFFFFFFFFFFFFFF AND PUSH1 0x0 DUP1 SLOAD SWAP1 PUSH2 0x100 EXP SWAP1 DIV PUSH20 0xFFFFFFFFFFFFFFFFFFFFFFFFFFFFFFFFFFFFFFFF AND PUSH20 0xFFFFFFFFFFFFFFFFFFFFFFFFFFFFFFFFFFFFFFFF AND EQ PUSH2 0x2137 JUMPI PUSH1 0x40 MLOAD PUSH32 0x8C379A000000000000000000000000000000000000000000000000000000000 DUP2 MSTORE PUSH1 0x4 ADD DUP1 DUP1 PUSH1 0x20 ADD DUP3 DUP2 SUB DUP3 MSTORE PUSH1 0x20 DUP2 MSTORE PUSH1 0x20 ADD DUP1 PUSH32 0x4F776E61626C653A2063616C6C6572206973206E6F7420746865206F776E6572 DUP2 MSTORE POP PUSH1 0x20 ADD SWAP2 POP POP PUSH1 0x40 MLOAD DUP1 SWAP2 SUB SWAP1 REVERT JUMPDEST PUSH1 0x0 PUSH20 0xFFFFFFFFFFFFFFFFFFFFFFFFFFFFFFFFFFFFFFFF AND PUSH1 0x0 DUP1 SLOAD SWAP1 PUSH2 0x100 EXP SWAP1 DIV PUSH20 0xFFFFFFFFFFFFFFFFFFFFFFFFFFFFFFFFFFFFFFFF AND PUSH20 0xFFFFFFFFFFFFFFFFFFFFFFFFFFFFFFFFFFFFFFFF AND PUSH32 0x8BE0079C531659141344CD1FD0A4F28419497F9722A3DAAFE3B4186F6B6457E0 PUSH1 0x40 MLOAD PUSH1 0x40 MLOAD DUP1 SWAP2 SUB SWAP1 LOG3 PUSH1 0x0 DUP1 PUSH1 0x0 PUSH2 0x100 EXP DUP2 SLOAD DUP2 PUSH20 0xFFFFFFFFFFFFFFFFFFFFFFFFFFFFFFFFFFFFFFFF MUL NOT AND SWAP1 DUP4 PUSH20 0xFFFFFFFFFFFFFFFFFFFFFFFFFFFFFFFFFFFFFFFF AND MUL OR SWAP1 SSTORE POP JUMP JUMPDEST PUSH1 0x0 PUSH20 0xFFFFFFFFFFFFFFFFFFFFFFFFFFFFFFFFFFFFFFFF AND DUP2 PUSH20 0xFFFFFFFFFFFFFFFFFFFFFFFFFFFFFFFFFFFFFFFF AND EQ ISZERO PUSH2 0x2298 JUMPI PUSH1 0x40 MLOAD PUSH32 0x8C379A000000000000000000000000000000000000000000000000000000000 DUP2 MSTORE PUSH1 0x4 ADD DUP1 DUP1 PUSH1 0x20 ADD DUP3 DUP2 SUB DUP3 MSTORE PUSH1 0x1E DUP2 MSTORE PUSH1 0x20 ADD DUP1 PUSH32 0x736574466565416464726573733A20696E76616C696420616464726573730000 DUP2 MSTORE POP PUSH1 0x20 ADD SWAP2 POP POP PUSH1 0x40 MLOAD DUP1 SWAP2 SUB SWAP1 REVERT JUMPDEST PUSH1 0x5 PUSH1 0x0 SWAP1 SLOAD SWAP1 PUSH2 0x100 EXP SWAP1 DIV PUSH20 0xFFFFFFFFFFFFFFFFFFFFFFFFFFFFFFFFFFFFFFFF AND PUSH20 0xFFFFFFFFFFFFFFFFFFFFFFFFFFFFFFFFFFFFFFFF AND CALLER PUSH20 0xFFFFFFFFFFFFFFFFFFFFFFFFFFFFFFFFFFFFFFFF AND EQ PUSH2 0x235B JUMPI PUSH1 0x40 MLOAD PUSH32 0x8C379A000000000000000000000000000000000000000000000000000000000 DUP2 MSTORE PUSH1 0x4 ADD DUP1 DUP1 PUSH1 0x20 ADD DUP3 DUP2 SUB DUP3 MSTORE PUSH1 0x18 DUP2 MSTORE PUSH1 0x20 ADD DUP1 PUSH32 0x736574466565416464726573733A20464F5242494444454E0000000000000000 DUP2 MSTORE POP PUSH1 0x20 ADD SWAP2 POP POP PUSH1 0x40 MLOAD DUP1 SWAP2 SUB SWAP1 REVERT JUMPDEST DUP1 PUSH1 0x5 PUSH1 0x0 PUSH2 0x100 EXP DUP2 SLOAD DUP2 PUSH20 0xFFFFFFFFFFFFFFFFFFFFFFFFFFFFFFFFFFFFFFFF MUL NOT AND SWAP1 DUP4 PUSH20 0xFFFFFFFFFFFFFFFFFFFFFFFFFFFFFFFFFFFFFFFF AND MUL OR SWAP1 SSTORE POP DUP1 PUSH20 0xFFFFFFFFFFFFFFFFFFFFFFFFFFFFFFFFFFFFFFFF AND CALLER PUSH20 0xFFFFFFFFFFFFFFFFFFFFFFFFFFFFFFFFFFFFFFFF AND PUSH32 0xD44190ACF9D04BDB5D3A1AAFFF7E6DEE8B40B93DFB8C5D3F0EEA4B9F4539C3F7 PUSH1 0x40 MLOAD PUSH1 0x40 MLOAD DUP1 SWAP2 SUB SWAP1 LOG3 POP JUMP JUMPDEST PUSH1 0x0 DUP1 PUSH1 0x0 SWAP1 SLOAD SWAP1 PUSH2 0x100 EXP SWAP1 DIV PUSH20 0xFFFFFFFFFFFFFFFFFFFFFFFFFFFFFFFFFFFFFFFF AND SWAP1 POP SWAP1 JUMP JUMPDEST PUSH1 0x0 PUSH2 0x2437 DUP4 DUP4 PUSH2 0x3258 SWAP1 SWAP2 SWAP1 PUSH4 0xFFFFFFFF AND JUMP JUMPDEST SWAP1 POP SWAP3 SWAP2 POP POP JUMP JUMPDEST PUSH1 0x2 PUSH1 0x1 SLOAD EQ ISZERO PUSH2 0x24B8 JUMPI PUSH1 0x40 MLOAD PUSH32 0x8C379A000000000000000000000000000000000000000000000000000000000 DUP2 MSTORE PUSH1 0x4 ADD DUP1 DUP1 PUSH1 0x20 ADD DUP3 DUP2 SUB DUP3 MSTORE PUSH1 0x1F DUP2 MSTORE PUSH1 0x20 ADD DUP1 PUSH32 0x5265656E7472616E637947756172643A207265656E7472616E742063616C6C00 DUP2 MSTORE POP PUSH1 0x20 ADD SWAP2 POP POP PUSH1 0x40 MLOAD DUP1 SWAP2 SUB SWAP1 REVERT JUMPDEST PUSH1 0x2 PUSH1 0x1 DUP2 SWAP1 SSTORE POP DUP1 PUSH20 0xFFFFFFFFFFFFFFFFFFFFFFFFFFFFFFFFFFFFFFFF AND DUP2 PUSH20 0xFFFFFFFFFFFFFFFFFFFFFFFFFFFFFFFFFFFFFFFF AND EQ PUSH2 0x2544 JUMPI PUSH1 0x40 MLOAD PUSH32 0x8C379A000000000000000000000000000000000000000000000000000000000 DUP2 MSTORE PUSH1 0x4 ADD DUP1 DUP1 PUSH1 0x20 ADD DUP3 DUP2 SUB DUP3 MSTORE PUSH1 0x21 DUP2 MSTORE PUSH1 0x20 ADD DUP1 PUSH2 0x450A PUSH1 0x21 SWAP2 CODECOPY PUSH1 0x40 ADD SWAP2 POP POP PUSH1 0x40 MLOAD DUP1 SWAP2 SUB SWAP1 REVERT JUMPDEST PUSH1 0x0 PUSH1 0x7 DUP5 DUP2 SLOAD DUP2 LT PUSH2 0x2553 JUMPI INVALID JUMPDEST SWAP1 PUSH1 0x0 MSTORE PUSH1 0x20 PUSH1 0x0 KECCAK256 SWAP1 PUSH1 0x7 MUL ADD SWAP1 POP PUSH1 0x0 DUP2 PUSH1 0x3 ADD SLOAD GT ISZERO PUSH2 0x25CE JUMPI DUP1 PUSH1 0x3 ADD SLOAD NUMBER GT ISZERO PUSH2 0x25CD JUMPI PUSH1 0x40 MLOAD PUSH32 0x8C379A000000000000000000000000000000000000000000000000000000000 DUP2 MSTORE PUSH1 0x4 ADD DUP1 DUP1 PUSH1 0x20 ADD DUP3 DUP2 SUB DUP3 MSTORE PUSH1 0x21 DUP2 MSTORE PUSH1 0x20 ADD DUP1 PUSH2 0x46A8 PUSH1 0x21 SWAP2 CODECOPY PUSH1 0x40 ADD SWAP2 POP POP PUSH1 0x40 MLOAD DUP1 SWAP2 SUB SWAP1 REVERT JUMPDEST JUMPDEST PUSH1 0x0 PUSH1 0x8 PUSH1 0x0 DUP7 DUP2 MSTORE PUSH1 0x20 ADD SWAP1 DUP2 MSTORE PUSH1 0x20 ADD PUSH1 0x0 KECCAK256 PUSH1 0x0 CALLER PUSH20 0xFFFFFFFFFFFFFFFFFFFFFFFFFFFFFFFFFFFFFFFF AND PUSH20 0xFFFFFFFFFFFFFFFFFFFFFFFFFFFFFFFFFFFFFFFF AND DUP2 MSTORE PUSH1 0x20 ADD SWAP1 DUP2 MSTORE PUSH1 0x20 ADD PUSH1 0x0 KECCAK256 SWAP1 POP PUSH2 0x262B DUP6 PUSH2 0x1926 JUMP JUMPDEST PUSH2 0x2634 DUP6 PUSH2 0x332A JUMP JUMPDEST PUSH1 0x0 DUP5 GT DUP1 ISZERO PUSH2 0x2671 JUMPI POP PUSH1 0x0 PUSH20 0xFFFFFFFFFFFFFFFFFFFFFFFFFFFFFFFFFFFFFFFF AND DUP4 PUSH20 0xFFFFFFFFFFFFFFFFFFFFFFFFFFFFFFFFFFFFFFFF AND EQ ISZERO JUMPDEST DUP1 ISZERO PUSH2 0x26A9 JUMPI POP CALLER PUSH20 0xFFFFFFFFFFFFFFFFFFFFFFFFFFFFFFFFFFFFFFFF AND DUP4 PUSH20 0xFFFFFFFFFFFFFFFFFFFFFFFFFFFFFFFFFFFFFFFF AND EQ ISZERO JUMPDEST ISZERO PUSH2 0x26B9 JUMPI PUSH2 0x26B8 CALLER DUP5 PUSH2 0x3647 JUMP JUMPDEST JUMPDEST PUSH1 0x0 DUP5 GT ISZERO PUSH2 0x283C JUMPI PUSH2 0x2713 CALLER ADDRESS DUP7 DUP6 PUSH1 0x0 ADD PUSH1 0x0 SWAP1 SLOAD SWAP1 PUSH2 0x100 EXP SWAP1 DIV PUSH20 0xFFFFFFFFFFFFFFFFFFFFFFFFFFFFFFFFFFFFFFFF AND PUSH20 0xFFFFFFFFFFFFFFFFFFFFFFFFFFFFFFFFFFFFFFFF AND PUSH2 0x38AE SWAP1 SWAP4 SWAP3 SWAP2 SWAP1 PUSH4 0xFFFFFFFF AND JUMP JUMPDEST PUSH1 0x0 DUP3 PUSH1 0x6 ADD PUSH1 0x0 SWAP1 SLOAD SWAP1 PUSH2 0x100 EXP SWAP1 DIV PUSH2 0xFFFF AND PUSH2 0xFFFF AND GT ISZERO PUSH2 0x281B JUMPI PUSH1 0x0 PUSH2 0x2771 PUSH2 0x2710 PUSH2 0x2763 DUP6 PUSH1 0x6 ADD PUSH1 0x0 SWAP1 SLOAD SWAP1 PUSH2 0x100 EXP SWAP1 DIV PUSH2 0xFFFF AND PUSH2 0xFFFF AND DUP9 PUSH2 0x3521 SWAP1 SWAP2 SWAP1 PUSH4 0xFFFFFFFF AND JUMP JUMPDEST PUSH2 0x35A7 SWAP1 SWAP2 SWAP1 PUSH4 0xFFFFFFFF AND JUMP JUMPDEST SWAP1 POP PUSH2 0x279C DUP2 PUSH2 0x278E DUP8 DUP6 PUSH1 0x0 ADD SLOAD PUSH2 0x32A2 SWAP1 SWAP2 SWAP1 PUSH4 0xFFFFFFFF AND JUMP JUMPDEST PUSH2 0x3258 SWAP1 SWAP2 SWAP1 PUSH4 0xFFFFFFFF AND JUMP JUMPDEST DUP3 PUSH1 0x0 ADD DUP2 SWAP1 SSTORE POP PUSH2 0x2815 PUSH1 0x5 PUSH1 0x0 SWAP1 SLOAD SWAP1 PUSH2 0x100 EXP SWAP1 DIV PUSH20 0xFFFFFFFFFFFFFFFFFFFFFFFFFFFFFFFFFFFFFFFF AND DUP3 DUP6 PUSH1 0x0 ADD PUSH1 0x0 SWAP1 SLOAD SWAP1 PUSH2 0x100 EXP SWAP1 DIV PUSH20 0xFFFFFFFFFFFFFFFFFFFFFFFFFFFFFFFFFFFFFFFF AND PUSH20 0xFFFFFFFFFFFFFFFFFFFFFFFFFFFFFFFFFFFFFFFF AND PUSH2 0x347F SWAP1 SWAP3 SWAP2 SWAP1 PUSH4 0xFFFFFFFF AND JUMP JUMPDEST POP PUSH2 0x283B JUMP JUMPDEST PUSH2 0x2832 DUP5 DUP3 PUSH1 0x0 ADD SLOAD PUSH2 0x32A2 SWAP1 SWAP2 SWAP1 PUSH4 0xFFFFFFFF AND JUMP JUMPDEST DUP2 PUSH1 0x0 ADD DUP2 SWAP1 SSTORE POP JUMPDEST JUMPDEST PUSH2 0x286E PUSH5 0xE8D4A51000 PUSH2 0x2860 DUP5 PUSH1 0x5 ADD SLOAD DUP5 PUSH1 0x0 ADD SLOAD PUSH2 0x3521 SWAP1 SWAP2 SWAP1 PUSH4 0xFFFFFFFF AND JUMP JUMPDEST PUSH2 0x35A7 SWAP1 SWAP2 SWAP1 PUSH4 0xFFFFFFFF AND JUMP JUMPDEST DUP2 PUSH1 0x1 ADD DUP2 SWAP1 SSTORE POP DUP5 CALLER PUSH20 0xFFFFFFFFFFFFFFFFFFFFFFFFFFFFFFFFFFFFFFFF AND PUSH32 0x90890809C654F11D6E72A28FA60149770A0D11EC6C92319D6CEB2BB0A4EA1A15 DUP7 PUSH1 0x40 MLOAD DUP1 DUP3 DUP2 MSTORE PUSH1 0x20 ADD SWAP2 POP POP PUSH1 0x40 MLOAD DUP1 SWAP2 SUB SWAP1 LOG3 POP POP PUSH1 0x1 DUP1 DUP2 SWAP1 SSTORE POP POP POP POP JUMP JUMPDEST PUSH8 0x6F05B59D3B20000 DUP2 JUMP JUMPDEST PUSH1 0x8 PUSH1 0x20 MSTORE DUP2 PUSH1 0x0 MSTORE PUSH1 0x40 PUSH1 0x0 KECCAK256 PUSH1 0x20 MSTORE DUP1 PUSH1 0x0 MSTORE PUSH1 0x40 PUSH1 0x0 KECCAK256 PUSH1 0x0 SWAP2 POP SWAP2 POP POP DUP1 PUSH1 0x0 ADD SLOAD SWAP1 DUP1 PUSH1 0x1 ADD SLOAD SWAP1 DUP1 PUSH1 0x2 ADD SLOAD SWAP1 POP DUP4 JUMP JUMPDEST PUSH2 0x190 DUP2 JUMP JUMPDEST PUSH1 0xE PUSH1 0x20 MSTORE DUP1 PUSH1 0x0 MSTORE PUSH1 0x40 PUSH1 0x0 KECCAK256 PUSH1 0x0 SWAP2 POP SWAP1 POP SLOAD DUP2 JUMP JUMPDEST PUSH2 0x293C PUSH2 0x3250 JUMP JUMPDEST PUSH20 0xFFFFFFFFFFFFFFFFFFFFFFFFFFFFFFFFFFFFFFFF AND PUSH1 0x0 DUP1 SLOAD SWAP1 PUSH2 0x100 EXP SWAP1 DIV PUSH20 0xFFFFFFFFFFFFFFFFFFFFFFFFFFFFFFFFFFFFFFFF AND PUSH20 0xFFFFFFFFFFFFFFFFFFFFFFFFFFFFFFFFFFFFFFFF AND EQ PUSH2 0x29FC JUMPI PUSH1 0x40 MLOAD PUSH32 0x8C379A000000000000000000000000000000000000000000000000000000000 DUP2 MSTORE PUSH1 0x4 ADD DUP1 DUP1 PUSH1 0x20 ADD DUP3 DUP2 SUB DUP3 MSTORE PUSH1 0x20 DUP2 MSTORE PUSH1 0x20 ADD DUP1 PUSH32 0x4F776E61626C653A2063616C6C6572206973206E6F7420746865206F776E6572 DUP2 MSTORE POP PUSH1 0x20 ADD SWAP2 POP POP PUSH1 0x40 MLOAD DUP1 SWAP2 SUB SWAP1 REVERT JUMPDEST PUSH1 0x0 PUSH1 0x4 SLOAD SWAP1 POP DUP2 PUSH1 0x4 DUP2 SWAP1 SSTORE POP PUSH2 0x2A12 PUSH2 0x1E5D JUMP JUMPDEST CALLER PUSH20 0xFFFFFFFFFFFFFFFFFFFFFFFFFFFFFFFFFFFFFFFF AND PUSH32 0xEEDC6338C9C1AD8F3CD6C90DD09DBE98DBD57E610D3E59A17996D07ACB0D9511 DUP3 DUP5 PUSH1 0x40 MLOAD DUP1 DUP4 DUP2 MSTORE PUSH1 0x20 ADD DUP3 DUP2 MSTORE PUSH1 0x20 ADD SWAP3 POP POP POP PUSH1 0x40 MLOAD DUP1 SWAP2 SUB SWAP1 LOG2 POP POP JUMP JUMPDEST PUSH1 0x2 PUSH1 0x0 SWAP1 SLOAD SWAP1 PUSH2 0x100 EXP SWAP1 DIV PUSH20 0xFFFFFFFFFFFFFFFFFFFFFFFFFFFFFFFFFFFFFFFF AND DUP2 JUMP JUMPDEST PUSH2 0x5DC DUP2 JUMP JUMPDEST PUSH1 0x0 DUP1 PUSH1 0x7 DUP4 DUP2 SLOAD DUP2 LT PUSH2 0x2AA8 JUMPI INVALID JUMPDEST SWAP1 PUSH1 0x0 MSTORE PUSH1 0x20 PUSH1 0x0 KECCAK256 SWAP1 PUSH1 0x7 MUL ADD SWAP1 POP NUMBER DUP2 PUSH1 0x2 ADD SLOAD GT ISZERO SWAP2 POP POP SWAP2 SWAP1 POP JUMP JUMPDEST PUSH1 0xD PUSH1 0x20 MSTORE DUP1 PUSH1 0x0 MSTORE PUSH1 0x40 PUSH1 0x0 KECCAK256 PUSH1 0x0 SWAP2 POP SLOAD SWAP1 PUSH2 0x100 EXP SWAP1 DIV PUSH1 0xFF AND DUP2 JUMP JUMPDEST PUSH1 0x0 PUSH20 0xFFFFFFFFFFFFFFFFFFFFFFFFFFFFFFFFFFFFFFFF AND DUP2 PUSH20 0xFFFFFFFFFFFFFFFFFFFFFFFFFFFFFFFFFFFFFFFF AND EQ ISZERO PUSH2 0x2B8B JUMPI PUSH1 0x40 MLOAD PUSH32 0x8C379A000000000000000000000000000000000000000000000000000000000 DUP2 MSTORE PUSH1 0x4 ADD DUP1 DUP1 PUSH1 0x20 ADD DUP3 DUP2 SUB DUP3 MSTORE PUSH1 0x14 DUP2 MSTORE PUSH1 0x20 ADD DUP1 PUSH32 0x6465763A20696E76616C69642061646472657373000000000000000000000000 DUP2 MSTORE POP PUSH1 0x20 ADD SWAP2 POP POP PUSH1 0x40 MLOAD DUP1 SWAP2 SUB SWAP1 REVERT JUMPDEST PUSH1 0x3 PUSH1 0x0 SWAP1 SLOAD SWAP1 PUSH2 0x100 EXP SWAP1 DIV PUSH20 0xFFFFFFFFFFFFFFFFFFFFFFFFFFFFFFFFFFFFFFFF AND PUSH20 0xFFFFFFFFFFFFFFFFFFFFFFFFFFFFFFFFFFFFFFFF AND CALLER PUSH20 0xFFFFFFFFFFFFFFFFFFFFFFFFFFFFFFFFFFFFFFFF AND EQ PUSH2 0x2C4E JUMPI PUSH1 0x40 MLOAD PUSH32 0x8C379A000000000000000000000000000000000000000000000000000000000 DUP2 MSTORE PUSH1 0x4 ADD DUP1 DUP1 PUSH1 0x20 ADD DUP3 DUP2 SUB DUP3 MSTORE PUSH1 0x9 DUP2 MSTORE PUSH1 0x20 ADD DUP1 PUSH32 0x6465763A207775743F0000000000000000000000000000000000000000000000 DUP2 MSTORE POP PUSH1 0x20 ADD SWAP2 POP POP PUSH1 0x40 MLOAD DUP1 SWAP2 SUB SWAP1 REVERT JUMPDEST DUP1 PUSH1 0x3 PUSH1 0x0 PUSH2 0x100 EXP DUP2 SLOAD DUP2 PUSH20 0xFFFFFFFFFFFFFFFFFFFFFFFFFFFFFFFFFFFFFFFF MUL NOT AND SWAP1 DUP4 PUSH20 0xFFFFFFFFFFFFFFFFFFFFFFFFFFFFFFFFFFFFFFFF AND MUL OR SWAP1 SSTORE POP DUP1 PUSH20 0xFFFFFFFFFFFFFFFFFFFFFFFFFFFFFFFFFFFFFFFF AND CALLER PUSH20 0xFFFFFFFFFFFFFFFFFFFFFFFFFFFFFFFFFFFFFFFF AND PUSH32 0x618C54559E94F1499A808AAD71EE8729F8E74E8C48E979616328CE493A1A52E7 PUSH1 0x40 MLOAD PUSH1 0x40 MLOAD DUP1 SWAP2 SUB SWAP1 LOG3 POP JUMP JUMPDEST PUSH2 0x7080 DUP2 JUMP JUMPDEST PUSH1 0x3 PUSH1 0x0 SWAP1 SLOAD SWAP1 PUSH2 0x100 EXP SWAP1 DIV PUSH20 0xFFFFFFFFFFFFFFFFFFFFFFFFFFFFFFFFFFFFFFFF AND DUP2 JUMP JUMPDEST PUSH1 0x0 DUP1 PUSH1 0x7 DUP5 DUP2 SLOAD DUP2 LT PUSH2 0x2D28 JUMPI INVALID JUMPDEST SWAP1 PUSH1 0x0 MSTORE PUSH1 0x20 PUSH1 0x0 KECCAK256 SWAP1 PUSH1 0x7 MUL ADD SWAP1 POP PUSH1 0x0 PUSH1 0x8 PUSH1 0x0 DUP7 DUP2 MSTORE PUSH1 0x20 ADD SWAP1 DUP2 MSTORE PUSH1 0x20 ADD PUSH1 0x0 KECCAK256 PUSH1 0x0 DUP6 PUSH20 0xFFFFFFFFFFFFFFFFFFFFFFFFFFFFFFFFFFFFFFFF AND PUSH20 0xFFFFFFFFFFFFFFFFFFFFFFFFFFFFFFFFFFFFFFFF AND DUP2 MSTORE PUSH1 0x20 ADD SWAP1 DUP2 MSTORE PUSH1 0x20 ADD PUSH1 0x0 KECCAK256 SWAP1 POP PUSH1 0x0 DUP3 PUSH1 0x5 ADD SLOAD SWAP1 POP PUSH1 0x0 DUP4 PUSH1 0x0 ADD PUSH1 0x0 SWAP1 SLOAD SWAP1 PUSH2 0x100 EXP SWAP1 DIV PUSH20 0xFFFFFFFFFFFFFFFFFFFFFFFFFFFFFFFFFFFFFFFF AND PUSH20 0xFFFFFFFFFFFFFFFFFFFFFFFFFFFFFFFFFFFFFFFF AND PUSH4 0x70A08231 ADDRESS PUSH1 0x40 MLOAD DUP3 PUSH4 0xFFFFFFFF AND PUSH1 0xE0 SHL DUP2 MSTORE PUSH1 0x4 ADD DUP1 DUP3 PUSH20 0xFFFFFFFFFFFFFFFFFFFFFFFFFFFFFFFFFFFFFFFF AND DUP2 MSTORE PUSH1 0x20 ADD SWAP2 POP POP PUSH1 0x20 PUSH1 0x40 MLOAD DUP1 DUP4 SUB DUP2 DUP7 DUP1 EXTCODESIZE ISZERO DUP1 ISZERO PUSH2 0x2E22 JUMPI PUSH1 0x0 DUP1 REVERT JUMPDEST POP GAS STATICCALL ISZERO DUP1 ISZERO PUSH2 0x2E36 JUMPI RETURNDATASIZE PUSH1 0x0 DUP1 RETURNDATACOPY RETURNDATASIZE PUSH1 0x0 REVERT JUMPDEST POP POP POP POP PUSH1 0x40 MLOAD RETURNDATASIZE PUSH1 0x20 DUP2 LT ISZERO PUSH2 0x2E4C JUMPI PUSH1 0x0 DUP1 REVERT JUMPDEST DUP2 ADD SWAP1 DUP1 DUP1 MLOAD SWAP1 PUSH1 0x20 ADD SWAP1 SWAP3 SWAP2 SWAP1 POP POP POP SWAP1 POP PUSH1 0x0 PUSH2 0x2E6A DUP9 PUSH2 0x35F1 JUMP JUMPDEST SWAP1 POP DUP5 PUSH1 0x4 ADD SLOAD DUP2 GT DUP1 ISZERO PUSH2 0x2E80 JUMPI POP PUSH1 0x0 DUP3 EQ ISZERO JUMPDEST ISZERO PUSH2 0x2F1B JUMPI PUSH1 0x0 PUSH2 0x2E95 DUP7 PUSH1 0x4 ADD SLOAD DUP4 PUSH2 0x2422 JUMP JUMPDEST SWAP1 POP PUSH1 0x0 PUSH2 0x2ED8 PUSH1 0x9 SLOAD PUSH2 0x2ECA DUP10 PUSH1 0x1 ADD SLOAD PUSH2 0x2EBC PUSH1 0x4 SLOAD DUP8 PUSH2 0x3521 SWAP1 SWAP2 SWAP1 PUSH4 0xFFFFFFFF AND JUMP JUMPDEST PUSH2 0x3521 SWAP1 SWAP2 SWAP1 PUSH4 0xFFFFFFFF AND JUMP JUMPDEST PUSH2 0x35A7 SWAP1 SWAP2 SWAP1 PUSH4 0xFFFFFFFF AND JUMP JUMPDEST SWAP1 POP PUSH2 0x2F16 PUSH2 0x2F07 DUP6 PUSH2 0x2EF9 PUSH5 0xE8D4A51000 DUP6 PUSH2 0x3521 SWAP1 SWAP2 SWAP1 PUSH4 0xFFFFFFFF AND JUMP JUMPDEST PUSH2 0x35A7 SWAP1 SWAP2 SWAP1 PUSH4 0xFFFFFFFF AND JUMP JUMPDEST DUP7 PUSH2 0x32A2 SWAP1 SWAP2 SWAP1 PUSH4 0xFFFFFFFF AND JUMP JUMPDEST SWAP5 POP POP POP JUMPDEST PUSH1 0x0 PUSH2 0x2F61 DUP6 PUSH1 0x1 ADD SLOAD PUSH2 0x2F53 PUSH5 0xE8D4A51000 PUSH2 0x2F45 DUP9 DUP11 PUSH1 0x0 ADD SLOAD PUSH2 0x3521 SWAP1 SWAP2 SWAP1 PUSH4 0xFFFFFFFF AND JUMP JUMPDEST PUSH2 0x35A7 SWAP1 SWAP2 SWAP1 PUSH4 0xFFFFFFFF AND JUMP JUMPDEST PUSH2 0x3258 SWAP1 SWAP2 SWAP1 PUSH4 0xFFFFFFFF AND JUMP JUMPDEST SWAP1 POP PUSH2 0x2F7A DUP6 PUSH1 0x2 ADD SLOAD DUP3 PUSH2 0x32A2 SWAP1 SWAP2 SWAP1 PUSH4 0xFFFFFFFF AND JUMP JUMPDEST SWAP7 POP POP POP POP POP POP POP SWAP3 SWAP2 POP POP JUMP JUMPDEST PUSH1 0x6 SLOAD NUMBER GT PUSH2 0x2FE2 JUMPI PUSH1 0x40 MLOAD PUSH32 0x8C379A000000000000000000000000000000000000000000000000000000000 DUP2 MSTORE PUSH1 0x4 ADD DUP1 DUP1 PUSH1 0x20 ADD DUP3 DUP2 SUB DUP3 MSTORE PUSH1 0x52 DUP2 MSTORE PUSH1 0x20 ADD DUP1 PUSH2 0x4599 PUSH1 0x52 SWAP2 CODECOPY PUSH1 0x60 ADD SWAP2 POP POP PUSH1 0x40 MLOAD DUP1 SWAP2 SUB SWAP1 REVERT JUMPDEST PUSH8 0x16345785D8A0000 PUSH1 0x4 SLOAD GT PUSH2 0x3044 JUMPI PUSH1 0x40 MLOAD PUSH32 0x8C379A000000000000000000000000000000000000000000000000000000000 DUP2 MSTORE PUSH1 0x4 ADD DUP1 DUP1 PUSH1 0x20 ADD DUP3 DUP2 SUB DUP3 MSTORE PUSH1 0x52 DUP2 MSTORE PUSH1 0x20 ADD DUP1 PUSH2 0x4656 PUSH1 0x52 SWAP2 CODECOPY PUSH1 0x60 ADD SWAP2 POP POP PUSH1 0x40 MLOAD DUP1 SWAP2 SUB SWAP1 REVERT JUMPDEST PUSH1 0x0 PUSH2 0x306F PUSH2 0x7080 PUSH2 0x3061 PUSH1 0x6 SLOAD NUMBER PUSH2 0x3258 SWAP1 SWAP2 SWAP1 PUSH4 0xFFFFFFFF AND JUMP JUMPDEST PUSH2 0x35A7 SWAP1 SWAP2 SWAP1 PUSH4 0xFFFFFFFF AND JUMP JUMPDEST SWAP1 POP PUSH1 0xF SLOAD DUP2 GT PUSH2 0x3080 JUMPI POP PUSH2 0x317A JUMP JUMPDEST PUSH1 0x0 PUSH1 0x4 SLOAD SWAP1 POP PUSH1 0x0 PUSH1 0xF SLOAD SWAP1 POP JUMPDEST DUP3 DUP2 LT ISZERO PUSH2 0x30D1 JUMPI PUSH2 0x30C4 PUSH2 0x2710 PUSH2 0x30B6 PUSH2 0x5DC PUSH2 0x2710 SUB DUP6 PUSH2 0x3521 SWAP1 SWAP2 SWAP1 PUSH4 0xFFFFFFFF AND JUMP JUMPDEST PUSH2 0x35A7 SWAP1 SWAP2 SWAP1 PUSH4 0xFFFFFFFF AND JUMP JUMPDEST SWAP2 POP DUP1 PUSH1 0x1 ADD SWAP1 POP PUSH2 0x308F JUMP JUMPDEST POP PUSH8 0x16345785D8A0000 DUP2 LT PUSH2 0x30E7 JUMPI DUP1 PUSH2 0x30F1 JUMP JUMPDEST PUSH8 0x16345785D8A0000 JUMPDEST SWAP1 POP PUSH1 0x4 SLOAD DUP2 LT PUSH2 0x3103 JUMPI POP POP PUSH2 0x317A JUMP JUMPDEST PUSH2 0x310B PUSH2 0x1E5D JUMP JUMPDEST DUP2 PUSH1 0xF DUP2 SWAP1 SSTORE POP PUSH1 0x0 PUSH1 0x4 SLOAD SWAP1 POP DUP2 PUSH1 0x4 DUP2 SWAP1 SSTORE POP CALLER PUSH20 0xFFFFFFFFFFFFFFFFFFFFFFFFFFFFFFFFFFFFFFFF AND PUSH32 0xEEDC6338C9C1AD8F3CD6C90DD09DBE98DBD57E610D3E59A17996D07ACB0D9511 DUP3 DUP5 PUSH1 0x40 MLOAD DUP1 DUP4 DUP2 MSTORE PUSH1 0x20 ADD DUP3 DUP2 MSTORE PUSH1 0x20 ADD SWAP3 POP POP POP PUSH1 0x40 MLOAD DUP1 SWAP2 SUB SWAP1 LOG2 POP POP POP JUMPDEST JUMP JUMPDEST PUSH2 0x3184 PUSH2 0x3250 JUMP JUMPDEST PUSH20 0xFFFFFFFFFFFFFFFFFFFFFFFFFFFFFFFFFFFFFFFF AND PUSH1 0x0 DUP1 SLOAD SWAP1 PUSH2 0x100 EXP SWAP1 DIV PUSH20 0xFFFFFFFFFFFFFFFFFFFFFFFFFFFFFFFFFFFFFFFF AND PUSH20 0xFFFFFFFFFFFFFFFFFFFFFFFFFFFFFFFFFFFFFFFF AND EQ PUSH2 0x3244 JUMPI PUSH1 0x40 MLOAD PUSH32 0x8C379A000000000000000000000000000000000000000000000000000000000 DUP2 MSTORE PUSH1 0x4 ADD DUP1 DUP1 PUSH1 0x20 ADD DUP3 DUP2 SUB DUP3 MSTORE PUSH1 0x20 DUP2 MSTORE PUSH1 0x20 ADD DUP1 PUSH32 0x4F776E61626C653A2063616C6C6572206973206E6F7420746865206F776E6572 DUP2 MSTORE POP PUSH1 0x20 ADD SWAP2 POP POP PUSH1 0x40 MLOAD DUP1 SWAP2 SUB SWAP1 REVERT JUMPDEST PUSH2 0x324D DUP2 PUSH2 0x396F JUMP JUMPDEST POP JUMP JUMPDEST PUSH1 0x0 CALLER SWAP1 POP SWAP1 JUMP JUMPDEST PUSH1 0x0 PUSH2 0x329A DUP4 DUP4 PUSH1 0x40 MLOAD DUP1 PUSH1 0x40 ADD PUSH1 0x40 MSTORE DUP1 PUSH1 0x1E DUP2 MSTORE PUSH1 0x20 ADD PUSH32 0x536166654D6174683A207375627472616374696F6E206F766572666C6F770000 DUP2 MSTORE POP PUSH2 0x3AB2 JUMP JUMPDEST SWAP1 POP SWAP3 SWAP2 POP POP JUMP JUMPDEST PUSH1 0x0 DUP1 DUP3 DUP5 ADD SWAP1 POP DUP4 DUP2 LT ISZERO PUSH2 0x3320 JUMPI PUSH1 0x40 MLOAD PUSH32 0x8C379A000000000000000000000000000000000000000000000000000000000 DUP2 MSTORE PUSH1 0x4 ADD DUP1 DUP1 PUSH1 0x20 ADD DUP3 DUP2 SUB DUP3 MSTORE PUSH1 0x1B DUP2 MSTORE PUSH1 0x20 ADD DUP1 PUSH32 0x536166654D6174683A206164646974696F6E206F766572666C6F770000000000 DUP2 MSTORE POP PUSH1 0x20 ADD SWAP2 POP POP PUSH1 0x40 MLOAD DUP1 SWAP2 SUB SWAP1 REVERT JUMPDEST DUP1 SWAP2 POP POP SWAP3 SWAP2 POP POP JUMP JUMPDEST PUSH1 0x0 PUSH1 0x7 DUP3 DUP2 SLOAD DUP2 LT PUSH2 0x3339 JUMPI INVALID JUMPDEST SWAP1 PUSH1 0x0 MSTORE PUSH1 0x20 PUSH1 0x0 KECCAK256 SWAP1 PUSH1 0x7 MUL ADD SWAP1 POP PUSH1 0x0 PUSH1 0x8 PUSH1 0x0 DUP5 DUP2 MSTORE PUSH1 0x20 ADD SWAP1 DUP2 MSTORE PUSH1 0x20 ADD PUSH1 0x0 KECCAK256 PUSH1 0x0 CALLER PUSH20 0xFFFFFFFFFFFFFFFFFFFFFFFFFFFFFFFFFFFFFFFF AND PUSH20 0xFFFFFFFFFFFFFFFFFFFFFFFFFFFFFFFFFFFFFFFF AND DUP2 MSTORE PUSH1 0x20 ADD SWAP1 DUP2 MSTORE PUSH1 0x20 ADD PUSH1 0x0 KECCAK256 SWAP1 POP PUSH1 0x0 PUSH2 0x33E7 DUP3 PUSH1 0x1 ADD SLOAD PUSH2 0x33D9 PUSH5 0xE8D4A51000 PUSH2 0x33CB DUP8 PUSH1 0x5 ADD SLOAD DUP8 PUSH1 0x0 ADD SLOAD PUSH2 0x3521 SWAP1 SWAP2 SWAP1 PUSH4 0xFFFFFFFF AND JUMP JUMPDEST PUSH2 0x35A7 SWAP1 SWAP2 SWAP1 PUSH4 0xFFFFFFFF AND JUMP JUMPDEST PUSH2 0x3258 SWAP1 SWAP2 SWAP1 PUSH4 0xFFFFFFFF AND JUMP JUMPDEST SWAP1 POP PUSH2 0x33F2 DUP5 PUSH2 0x2A98 JUMP JUMPDEST ISZERO PUSH2 0x344F JUMPI PUSH1 0x0 DUP2 GT DUP1 PUSH2 0x340A JUMPI POP PUSH1 0x0 DUP3 PUSH1 0x2 ADD SLOAD GT JUMPDEST ISZERO PUSH2 0x344A JUMPI PUSH1 0x0 PUSH2 0x3428 DUP4 PUSH1 0x2 ADD SLOAD DUP4 PUSH2 0x32A2 SWAP1 SWAP2 SWAP1 PUSH4 0xFFFFFFFF AND JUMP JUMPDEST SWAP1 POP PUSH1 0x0 DUP4 PUSH1 0x2 ADD DUP2 SWAP1 SSTORE POP PUSH2 0x343E CALLER DUP3 PUSH2 0x3B72 JUMP JUMPDEST PUSH2 0x3448 CALLER DUP3 PUSH2 0x3E46 JUMP JUMPDEST POP JUMPDEST PUSH2 0x3479 JUMP JUMPDEST PUSH1 0x0 DUP2 GT ISZERO PUSH2 0x3478 JUMPI PUSH2 0x346F DUP2 DUP4 PUSH1 0x2 ADD SLOAD PUSH2 0x32A2 SWAP1 SWAP2 SWAP1 PUSH4 0xFFFFFFFF AND JUMP JUMPDEST DUP3 PUSH1 0x2 ADD DUP2 SWAP1 SSTORE POP JUMPDEST JUMPDEST POP POP POP POP JUMP JUMPDEST PUSH2 0x351C DUP4 PUSH4 0xA9059CBB PUSH1 0xE0 SHL DUP5 DUP5 PUSH1 0x40 MLOAD PUSH1 0x24 ADD DUP1 DUP4 PUSH20 0xFFFFFFFFFFFFFFFFFFFFFFFFFFFFFFFFFFFFFFFF AND DUP2 MSTORE PUSH1 0x20 ADD DUP3 DUP2 MSTORE PUSH1 0x20 ADD SWAP3 POP POP POP PUSH1 0x40 MLOAD PUSH1 0x20 DUP2 DUP4 SUB SUB DUP2 MSTORE SWAP1 PUSH1 0x40 MSTORE SWAP1 PUSH28 0xFFFFFFFFFFFFFFFFFFFFFFFFFFFFFFFFFFFFFFFFFFFFFFFFFFFFFFFF NOT AND PUSH1 0x20 DUP3 ADD DUP1 MLOAD PUSH28 0xFFFFFFFFFFFFFFFFFFFFFFFFFFFFFFFFFFFFFFFFFFFFFFFFFFFFFFFF DUP4 DUP2 DUP4 AND OR DUP4 MSTORE POP POP POP POP PUSH2 0x4013 JUMP JUMPDEST POP POP POP JUMP JUMPDEST PUSH1 0x0 DUP1 DUP4 EQ ISZERO PUSH2 0x3534 JUMPI PUSH1 0x0 SWAP1 POP PUSH2 0x35A1 JUMP JUMPDEST PUSH1 0x0 DUP3 DUP5 MUL SWAP1 POP DUP3 DUP5 DUP3 DUP2 PUSH2 0x3545 JUMPI INVALID JUMPDEST DIV EQ PUSH2 0x359C JUMPI PUSH1 0x40 MLOAD PUSH32 0x8C379A000000000000000000000000000000000000000000000000000000000 DUP2 MSTORE PUSH1 0x4 ADD DUP1 DUP1 PUSH1 0x20 ADD DUP3 DUP2 SUB DUP3 MSTORE PUSH1 0x21 DUP2 MSTORE PUSH1 0x20 ADD DUP1 PUSH2 0x452B PUSH1 0x21 SWAP2 CODECOPY PUSH1 0x40 ADD SWAP2 POP POP PUSH1 0x40 MLOAD DUP1 SWAP2 SUB SWAP1 REVERT JUMPDEST DUP1 SWAP2 POP POP JUMPDEST SWAP3 SWAP2 POP POP JUMP JUMPDEST PUSH1 0x0 PUSH2 0x35E9 DUP4 DUP4 PUSH1 0x40 MLOAD DUP1 PUSH1 0x40 ADD PUSH1 0x40 MSTORE DUP1 PUSH1 0x1A DUP2 MSTORE PUSH1 0x20 ADD PUSH32 0x536166654D6174683A206469766973696F6E206279207A65726F000000000000 DUP2 MSTORE POP PUSH2 0x4102 JUMP JUMPDEST SWAP1 POP SWAP3 SWAP2 POP POP JUMP JUMPDEST PUSH1 0x0 DUP1 PUSH1 0x7 DUP4 DUP2 SLOAD DUP2 LT PUSH2 0x3601 JUMPI INVALID JUMPDEST SWAP1 PUSH1 0x0 MSTORE PUSH1 0x20 PUSH1 0x0 KECCAK256 SWAP1 PUSH1 0x7 MUL ADD SWAP1 POP PUSH1 0x0 DUP2 PUSH1 0x3 ADD SLOAD EQ ISZERO PUSH2 0x3627 JUMPI NUMBER SWAP2 POP POP PUSH2 0x3642 JUMP JUMPDEST DUP1 PUSH1 0x3 ADD SLOAD NUMBER GT PUSH2 0x3638 JUMPI NUMBER PUSH2 0x363E JUMP JUMPDEST DUP1 PUSH1 0x3 ADD SLOAD JUMPDEST SWAP2 POP POP JUMPDEST SWAP2 SWAP1 POP JUMP JUMPDEST DUP1 PUSH20 0xFFFFFFFFFFFFFFFFFFFFFFFFFFFFFFFFFFFFFFFF AND DUP2 PUSH20 0xFFFFFFFFFFFFFFFFFFFFFFFFFFFFFFFFFFFFFFFF AND EQ DUP1 ISZERO PUSH2 0x370D JUMPI POP PUSH1 0x0 PUSH20 0xFFFFFFFFFFFFFFFFFFFFFFFFFFFFFFFFFFFFFFFF AND PUSH1 0xB PUSH1 0x0 DUP5 PUSH20 0xFFFFFFFFFFFFFFFFFFFFFFFFFFFFFFFFFFFFFFFF AND PUSH20 0xFFFFFFFFFFFFFFFFFFFFFFFFFFFFFFFFFFFFFFFF AND DUP2 MSTORE PUSH1 0x20 ADD SWAP1 DUP2 MSTORE PUSH1 0x20 ADD PUSH1 0x0 KECCAK256 PUSH1 0x0 SWAP1 SLOAD SWAP1 PUSH2 0x100 EXP SWAP1 DIV PUSH20 0xFFFFFFFFFFFFFFFFFFFFFFFFFFFFFFFFFFFFFFFF AND PUSH20 0xFFFFFFFFFFFFFFFFFFFFFFFFFFFFFFFFFFFFFFFF AND EQ JUMPDEST DUP1 ISZERO PUSH2 0x3746 JUMPI POP PUSH1 0x0 PUSH20 0xFFFFFFFFFFFFFFFFFFFFFFFFFFFFFFFFFFFFFFFF AND DUP2 PUSH20 0xFFFFFFFFFFFFFFFFFFFFFFFFFFFFFFFFFFFFFFFF AND EQ ISZERO JUMPDEST DUP1 ISZERO PUSH2 0x377E JUMPI POP DUP2 PUSH20 0xFFFFFFFFFFFFFFFFFFFFFFFFFFFFFFFFFFFFFFFF AND DUP2 PUSH20 0xFFFFFFFFFFFFFFFFFFFFFFFFFFFFFFFFFFFFFFFF AND EQ ISZERO JUMPDEST ISZERO PUSH2 0x38AA JUMPI DUP1 PUSH1 0xB PUSH1 0x0 DUP5 PUSH20 0xFFFFFFFFFFFFFFFFFFFFFFFFFFFFFFFFFFFFFFFF AND PUSH20 0xFFFFFFFFFFFFFFFFFFFFFFFFFFFFFFFFFFFFFFFF AND DUP2 MSTORE PUSH1 0x20 ADD SWAP1 DUP2 MSTORE PUSH1 0x20 ADD PUSH1 0x0 KECCAK256 PUSH1 0x0 PUSH2 0x100 EXP DUP2 SLOAD DUP2 PUSH20 0xFFFFFFFFFFFFFFFFFFFFFFFFFFFFFFFFFFFFFFFF MUL NOT AND SWAP1 DUP4 PUSH20 0xFFFFFFFFFFFFFFFFFFFFFFFFFFFFFFFFFFFFFFFF AND MUL OR SWAP1 SSTORE POP PUSH1 0x1 PUSH1 0xC PUSH1 0x0 DUP4 PUSH20 0xFFFFFFFFFFFFFFFFFFFFFFFFFFFFFFFFFFFFFFFF AND PUSH20 0xFFFFFFFFFFFFFFFFFFFFFFFFFFFFFFFFFFFFFFFF AND DUP2 MSTORE PUSH1 0x20 ADD SWAP1 DUP2 MSTORE PUSH1 0x20 ADD PUSH1 0x0 KECCAK256 PUSH1 0x0 DUP3 DUP3 SLOAD ADD SWAP3 POP POP DUP2 SWAP1 SSTORE POP DUP1 PUSH20 0xFFFFFFFFFFFFFFFFFFFFFFFFFFFFFFFFFFFFFFFF AND DUP3 PUSH20 0xFFFFFFFFFFFFFFFFFFFFFFFFFFFFFFFFFFFFFFFF AND PUSH32 0x9D05414FB79FAC216C15606DE5CC06664E91A254E4D5F57664D5F1BEAF7FB7EF PUSH1 0x40 MLOAD PUSH1 0x40 MLOAD DUP1 SWAP2 SUB SWAP1 LOG3 JUMPDEST POP POP JUMP JUMPDEST PUSH2 0x3969 DUP5 PUSH4 0x23B872DD PUSH1 0xE0 SHL DUP6 DUP6 DUP6 PUSH1 0x40 MLOAD PUSH1 0x24 ADD DUP1 DUP5 PUSH20 0xFFFFFFFFFFFFFFFFFFFFFFFFFFFFFFFFFFFFFFFF AND DUP2 MSTORE PUSH1 0x20 ADD DUP4 PUSH20 0xFFFFFFFFFFFFFFFFFFFFFFFFFFFFFFFFFFFFFFFF AND DUP2 MSTORE PUSH1 0x20 ADD DUP3 DUP2 MSTORE PUSH1 0x20 ADD SWAP4 POP POP POP POP PUSH1 0x40 MLOAD PUSH1 0x20 DUP2 DUP4 SUB SUB DUP2 MSTORE SWAP1 PUSH1 0x40 MSTORE SWAP1 PUSH28 0xFFFFFFFFFFFFFFFFFFFFFFFFFFFFFFFFFFFFFFFFFFFFFFFFFFFFFFFF NOT AND PUSH1 0x20 DUP3 ADD DUP1 MLOAD PUSH28 0xFFFFFFFFFFFFFFFFFFFFFFFFFFFFFFFFFFFFFFFFFFFFFFFFFFFFFFFF DUP4 DUP2 DUP4 AND OR DUP4 MSTORE POP POP POP POP PUSH2 0x4013 JUMP JUMPDEST POP POP POP POP JUMP JUMPDEST PUSH1 0x0 PUSH20 0xFFFFFFFFFFFFFFFFFFFFFFFFFFFFFFFFFFFFFFFF AND DUP2 PUSH20 0xFFFFFFFFFFFFFFFFFFFFFFFFFFFFFFFFFFFFFFFF AND EQ ISZERO PUSH2 0x39F5 JUMPI PUSH1 0x40 MLOAD PUSH32 0x8C379A000000000000000000000000000000000000000000000000000000000 DUP2 MSTORE PUSH1 0x4 ADD DUP1 DUP1 PUSH1 0x20 ADD DUP3 DUP2 SUB DUP3 MSTORE PUSH1 0x26 DUP2 MSTORE PUSH1 0x20 ADD DUP1 PUSH2 0x44BB PUSH1 0x26 SWAP2 CODECOPY PUSH1 0x40 ADD SWAP2 POP POP PUSH1 0x40 MLOAD DUP1 SWAP2 SUB SWAP1 REVERT JUMPDEST DUP1 PUSH20 0xFFFFFFFFFFFFFFFFFFFFFFFFFFFFFFFFFFFFFFFF AND PUSH1 0x0 DUP1 SLOAD SWAP1 PUSH2 0x100 EXP SWAP1 DIV PUSH20 0xFFFFFFFFFFFFFFFFFFFFFFFFFFFFFFFFFFFFFFFF AND PUSH20 0xFFFFFFFFFFFFFFFFFFFFFFFFFFFFFFFFFFFFFFFF AND PUSH32 0x8BE0079C531659141344CD1FD0A4F28419497F9722A3DAAFE3B4186F6B6457E0 PUSH1 0x40 MLOAD PUSH1 0x40 MLOAD DUP1 SWAP2 SUB SWAP1 LOG3 DUP1 PUSH1 0x0 DUP1 PUSH2 0x100 EXP DUP2 SLOAD DUP2 PUSH20 0xFFFFFFFFFFFFFFFFFFFFFFFFFFFFFFFFFFFFFFFF MUL NOT AND SWAP1 DUP4 PUSH20 0xFFFFFFFFFFFFFFFFFFFFFFFFFFFFFFFFFFFFFFFF AND MUL OR SWAP1 SSTORE POP POP JUMP JUMPDEST PUSH1 0x0 DUP4 DUP4 GT ISZERO DUP3 SWAP1 PUSH2 0x3B5F JUMPI PUSH1 0x40 MLOAD PUSH32 0x8C379A000000000000000000000000000000000000000000000000000000000 DUP2 MSTORE PUSH1 0x4 ADD DUP1 DUP1 PUSH1 0x20 ADD DUP3 DUP2 SUB DUP3 MSTORE DUP4 DUP2 DUP2 MLOAD DUP2 MSTORE PUSH1 0x20 ADD SWAP2 POP DUP1 MLOAD SWAP1 PUSH1 0x20 ADD SWAP1 DUP1 DUP4 DUP4 PUSH1 0x0 JUMPDEST DUP4 DUP2 LT ISZERO PUSH2 0x3B24 JUMPI DUP1 DUP3 ADD MLOAD DUP2 DUP5 ADD MSTORE PUSH1 0x20 DUP2 ADD SWAP1 POP PUSH2 0x3B09 JUMP JUMPDEST POP POP POP POP SWAP1 POP SWAP1 DUP2 ADD SWAP1 PUSH1 0x1F AND DUP1 ISZERO PUSH2 0x3B51 JUMPI DUP1 DUP3 SUB DUP1 MLOAD PUSH1 0x1 DUP4 PUSH1 0x20 SUB PUSH2 0x100 EXP SUB NOT AND DUP2 MSTORE PUSH1 0x20 ADD SWAP2 POP JUMPDEST POP SWAP3 POP POP POP PUSH1 0x40 MLOAD DUP1 SWAP2 SUB SWAP1 REVERT JUMPDEST POP PUSH1 0x0 DUP4 DUP6 SUB SWAP1 POP DUP1 SWAP2 POP POP SWAP4 SWAP3 POP POP POP JUMP JUMPDEST PUSH1 0x0 PUSH1 0x2 PUSH1 0x0 SWAP1 SLOAD SWAP1 PUSH2 0x100 EXP SWAP1 DIV PUSH20 0xFFFFFFFFFFFFFFFFFFFFFFFFFFFFFFFFFFFFFFFF AND PUSH20 0xFFFFFFFFFFFFFFFFFFFFFFFFFFFFFFFFFFFFFFFF AND PUSH4 0x70A08231 ADDRESS PUSH1 0x40 MLOAD DUP3 PUSH4 0xFFFFFFFF AND PUSH1 0xE0 SHL DUP2 MSTORE PUSH1 0x4 ADD DUP1 DUP3 PUSH20 0xFFFFFFFFFFFFFFFFFFFFFFFFFFFFFFFFFFFFFFFF AND DUP2 MSTORE PUSH1 0x20 ADD SWAP2 POP POP PUSH1 0x20 PUSH1 0x40 MLOAD DUP1 DUP4 SUB DUP2 DUP7 DUP1 EXTCODESIZE ISZERO DUP1 ISZERO PUSH2 0x3BFD JUMPI PUSH1 0x0 DUP1 REVERT JUMPDEST POP GAS STATICCALL ISZERO DUP1 ISZERO PUSH2 0x3C11 JUMPI RETURNDATASIZE PUSH1 0x0 DUP1 RETURNDATACOPY RETURNDATASIZE PUSH1 0x0 REVERT JUMPDEST POP POP POP POP PUSH1 0x40 MLOAD RETURNDATASIZE PUSH1 0x20 DUP2 LT ISZERO PUSH2 0x3C27 JUMPI PUSH1 0x0 DUP1 REVERT JUMPDEST DUP2 ADD SWAP1 DUP1 DUP1 MLOAD SWAP1 PUSH1 0x20 ADD SWAP1 SWAP3 SWAP2 SWAP1 POP POP POP SWAP1 POP PUSH1 0x0 DUP2 DUP4 GT ISZERO PUSH2 0x3D19 JUMPI PUSH1 0x2 PUSH1 0x0 SWAP1 SLOAD SWAP1 PUSH2 0x100 EXP SWAP1 DIV PUSH20 0xFFFFFFFFFFFFFFFFFFFFFFFFFFFFFFFFFFFFFFFF AND PUSH20 0xFFFFFFFFFFFFFFFFFFFFFFFFFFFFFFFFFFFFFFFF AND PUSH4 0xA9059CBB DUP6 DUP5 PUSH1 0x40 MLOAD DUP4 PUSH4 0xFFFFFFFF AND PUSH1 0xE0 SHL DUP2 MSTORE PUSH1 0x4 ADD DUP1 DUP4 PUSH20 0xFFFFFFFFFFFFFFFFFFFFFFFFFFFFFFFFFFFFFFFF AND DUP2 MSTORE PUSH1 0x20 ADD DUP3 DUP2 MSTORE PUSH1 0x20 ADD SWAP3 POP POP POP PUSH1 0x20 PUSH1 0x40 MLOAD DUP1 DUP4 SUB DUP2 PUSH1 0x0 DUP8 DUP1 EXTCODESIZE ISZERO DUP1 ISZERO PUSH2 0x3CD7 JUMPI PUSH1 0x0 DUP1 REVERT JUMPDEST POP GAS CALL ISZERO DUP1 ISZERO PUSH2 0x3CEB JUMPI RETURNDATASIZE PUSH1 0x0 DUP1 RETURNDATACOPY RETURNDATASIZE PUSH1 0x0 REVERT JUMPDEST POP POP POP POP PUSH1 0x40 MLOAD RETURNDATASIZE PUSH1 0x20 DUP2 LT ISZERO PUSH2 0x3D01 JUMPI PUSH1 0x0 DUP1 REVERT JUMPDEST DUP2 ADD SWAP1 DUP1 DUP1 MLOAD SWAP1 PUSH1 0x20 ADD SWAP1 SWAP3 SWAP2 SWAP1 POP POP POP SWAP1 POP PUSH2 0x3DEA JUMP JUMPDEST PUSH1 0x2 PUSH1 0x0 SWAP1 SLOAD SWAP1 PUSH2 0x100 EXP SWAP1 DIV PUSH20 0xFFFFFFFFFFFFFFFFFFFFFFFFFFFFFFFFFFFFFFFF AND PUSH20 0xFFFFFFFFFFFFFFFFFFFFFFFFFFFFFFFFFFFFFFFF AND PUSH4 0xA9059CBB DUP6 DUP6 PUSH1 0x40 MLOAD DUP4 PUSH4 0xFFFFFFFF AND PUSH1 0xE0 SHL DUP2 MSTORE PUSH1 0x4 ADD DUP1 DUP4 PUSH20 0xFFFFFFFFFFFFFFFFFFFFFFFFFFFFFFFFFFFFFFFF AND DUP2 MSTORE PUSH1 0x20 ADD DUP3 DUP2 MSTORE PUSH1 0x20 ADD SWAP3 POP POP POP PUSH1 0x20 PUSH1 0x40 MLOAD DUP1 DUP4 SUB DUP2 PUSH1 0x0 DUP8 DUP1 EXTCODESIZE ISZERO DUP1 ISZERO PUSH2 0x3DAC JUMPI PUSH1 0x0 DUP1 REVERT JUMPDEST POP GAS CALL ISZERO DUP1 ISZERO PUSH2 0x3DC0 JUMPI RETURNDATASIZE PUSH1 0x0 DUP1 RETURNDATACOPY RETURNDATASIZE PUSH1 0x0 REVERT JUMPDEST POP POP POP POP PUSH1 0x40 MLOAD RETURNDATASIZE PUSH1 0x20 DUP2 LT ISZERO PUSH2 0x3DD6 JUMPI PUSH1 0x0 DUP1 REVERT JUMPDEST DUP2 ADD SWAP1 DUP1 DUP1 MLOAD SWAP1 PUSH1 0x20 ADD SWAP1 SWAP3 SWAP2 SWAP1 POP POP POP SWAP1 POP JUMPDEST DUP1 PUSH2 0x3E40 JUMPI PUSH1 0x40 MLOAD PUSH32 0x8C379A000000000000000000000000000000000000000000000000000000000 DUP2 MSTORE PUSH1 0x4 ADD DUP1 DUP1 PUSH1 0x20 ADD DUP3 DUP2 SUB DUP3 MSTORE PUSH1 0x22 DUP2 MSTORE PUSH1 0x20 ADD DUP1 PUSH2 0x45EB PUSH1 0x22 SWAP2 CODECOPY PUSH1 0x40 ADD SWAP2 POP POP PUSH1 0x40 MLOAD DUP1 SWAP2 SUB SWAP1 REVERT JUMPDEST POP POP POP POP JUMP JUMPDEST PUSH1 0x0 PUSH2 0x3E51 DUP4 PUSH2 0x15BE JUMP JUMPDEST SWAP1 POP PUSH1 0x0 PUSH20 0xFFFFFFFFFFFFFFFFFFFFFFFFFFFFFFFFFFFFFFFF AND DUP2 PUSH20 0xFFFFFFFFFFFFFFFFFFFFFFFFFFFFFFFFFFFFFFFF AND EQ ISZERO DUP1 ISZERO PUSH2 0x3EBC JUMPI POP DUP3 PUSH20 0xFFFFFFFFFFFFFFFFFFFFFFFFFFFFFFFFFFFFFFFF AND DUP2 PUSH20 0xFFFFFFFFFFFFFFFFFFFFFFFFFFFFFFFFFFFFFFFF AND EQ ISZERO JUMPDEST DUP1 ISZERO PUSH2 0x3ECA JUMPI POP PUSH1 0x0 PUSH1 0xA SLOAD GT JUMPDEST ISZERO PUSH2 0x400E JUMPI PUSH1 0x0 PUSH2 0x3EFA PUSH2 0x2710 PUSH2 0x3EEC PUSH1 0xA SLOAD DUP7 PUSH2 0x3521 SWAP1 SWAP2 SWAP1 PUSH4 0xFFFFFFFF AND JUMP JUMPDEST PUSH2 0x35A7 SWAP1 SWAP2 SWAP1 PUSH4 0xFFFFFFFF AND JUMP JUMPDEST SWAP1 POP PUSH1 0x2 PUSH1 0x0 SWAP1 SLOAD SWAP1 PUSH2 0x100 EXP SWAP1 DIV PUSH20 0xFFFFFFFFFFFFFFFFFFFFFFFFFFFFFFFFFFFFFFFF AND PUSH20 0xFFFFFFFFFFFFFFFFFFFFFFFFFFFFFFFFFFFFFFFF AND PUSH4 0x40C10F19 DUP4 DUP4 PUSH1 0x40 MLOAD DUP4 PUSH4 0xFFFFFFFF AND PUSH1 0xE0 SHL DUP2 MSTORE PUSH1 0x4 ADD DUP1 DUP4 PUSH20 0xFFFFFFFFFFFFFFFFFFFFFFFFFFFFFFFFFFFFFFFF AND DUP2 MSTORE PUSH1 0x20 ADD DUP3 DUP2 MSTORE PUSH1 0x20 ADD SWAP3 POP POP POP PUSH1 0x0 PUSH1 0x40 MLOAD DUP1 DUP4 SUB DUP2 PUSH1 0x0 DUP8 DUP1 EXTCODESIZE ISZERO DUP1 ISZERO PUSH2 0x3F8F JUMPI PUSH1 0x0 DUP1 REVERT JUMPDEST POP GAS CALL ISZERO DUP1 ISZERO PUSH2 0x3FA3 JUMPI RETURNDATASIZE PUSH1 0x0 DUP1 RETURNDATACOPY RETURNDATASIZE PUSH1 0x0 REVERT JUMPDEST POP POP POP POP DUP2 PUSH20 0xFFFFFFFFFFFFFFFFFFFFFFFFFFFFFFFFFFFFFFFF AND DUP5 PUSH20 0xFFFFFFFFFFFFFFFFFFFFFFFFFFFFFFFFFFFFFFFF AND PUSH32 0xA721AB4682CEB61C7E4D264EF879FC419A6D764B136E7D96EF54B2053C75673 DUP4 PUSH1 0x40 MLOAD DUP1 DUP3 DUP2 MSTORE PUSH1 0x20 ADD SWAP2 POP POP PUSH1 0x40 MLOAD DUP1 SWAP2 SUB SWAP1 LOG3 POP JUMPDEST POP POP POP JUMP JUMPDEST PUSH1 0x60 PUSH2 0x4075 DUP3 PUSH1 0x40 MLOAD DUP1 PUSH1 0x40 ADD PUSH1 0x40 MSTORE DUP1 PUSH1 0x20 DUP2 MSTORE PUSH1 0x20 ADD PUSH32 0x5361666542455032303A206C6F772D6C6576656C2063616C6C206661696C6564 DUP2 MSTORE POP DUP6 PUSH20 0xFFFFFFFFFFFFFFFFFFFFFFFFFFFFFFFFFFFFFFFF AND PUSH2 0x41C8 SWAP1 SWAP3 SWAP2 SWAP1 PUSH4 0xFFFFFFFF AND JUMP JUMPDEST SWAP1 POP PUSH1 0x0 DUP2 MLOAD GT ISZERO PUSH2 0x40FD JUMPI DUP1 DUP1 PUSH1 0x20 ADD SWAP1 MLOAD PUSH1 0x20 DUP2 LT ISZERO PUSH2 0x4096 JUMPI PUSH1 0x0 DUP1 REVERT JUMPDEST DUP2 ADD SWAP1 DUP1 DUP1 MLOAD SWAP1 PUSH1 0x20 ADD SWAP1 SWAP3 SWAP2 SWAP1 POP POP POP PUSH2 0x40FC JUMPI PUSH1 0x40 MLOAD PUSH32 0x8C379A000000000000000000000000000000000000000000000000000000000 DUP2 MSTORE PUSH1 0x4 ADD DUP1 DUP1 PUSH1 0x20 ADD DUP3 DUP2 SUB DUP3 MSTORE PUSH1 0x2A DUP2 MSTORE PUSH1 0x20 ADD DUP1 PUSH2 0x4491 PUSH1 0x2A SWAP2 CODECOPY PUSH1 0x40 ADD SWAP2 POP POP PUSH1 0x40 MLOAD DUP1 SWAP2 SUB SWAP1 REVERT JUMPDEST JUMPDEST POP POP POP JUMP JUMPDEST PUSH1 0x0 DUP1 DUP4 GT DUP3 SWAP1 PUSH2 0x41AE JUMPI PUSH1 0x40 MLOAD PUSH32 0x8C379A000000000000000000000000000000000000000000000000000000000 DUP2 MSTORE PUSH1 0x4 ADD DUP1 DUP1 PUSH1 0x20 ADD DUP3 DUP2 SUB DUP3 MSTORE DUP4 DUP2 DUP2 MLOAD DUP2 MSTORE PUSH1 0x20 ADD SWAP2 POP DUP1 MLOAD SWAP1 PUSH1 0x20 ADD SWAP1 DUP1 DUP4 DUP4 PUSH1 0x0 JUMPDEST DUP4 DUP2 LT ISZERO PUSH2 0x4173 JUMPI DUP1 DUP3 ADD MLOAD DUP2 DUP5 ADD MSTORE PUSH1 0x20 DUP2 ADD SWAP1 POP PUSH2 0x4158 JUMP JUMPDEST POP POP POP POP SWAP1 POP SWAP1 DUP2 ADD SWAP1 PUSH1 0x1F AND DUP1 ISZERO PUSH2 0x41A0 JUMPI DUP1 DUP3 SUB DUP1 MLOAD PUSH1 0x1 DUP4 PUSH1 0x20 SUB PUSH2 0x100 EXP SUB NOT AND DUP2 MSTORE PUSH1 0x20 ADD SWAP2 POP JUMPDEST POP SWAP3 POP POP POP PUSH1 0x40 MLOAD DUP1 SWAP2 SUB SWAP1 REVERT JUMPDEST POP PUSH1 0x0 DUP4 DUP6 DUP2 PUSH2 0x41BA JUMPI INVALID JUMPDEST DIV SWAP1 POP DUP1 SWAP2 POP POP SWAP4 SWAP3 POP POP POP JUMP JUMPDEST PUSH1 0x60 PUSH2 0x41D7 DUP5 DUP5 PUSH1 0x0 DUP6 PUSH2 0x41E0 JUMP JUMPDEST SWAP1 POP SWAP4 SWAP3 POP POP POP JUMP JUMPDEST PUSH1 0x60 PUSH2 0x41EB DUP6 PUSH2 0x43E6 JUMP JUMPDEST PUSH2 0x425D JUMPI PUSH1 0x40 MLOAD PUSH32 0x8C379A000000000000000000000000000000000000000000000000000000000 DUP2 MSTORE PUSH1 0x4 ADD DUP1 DUP1 PUSH1 0x20 ADD DUP3 DUP2 SUB DUP3 MSTORE PUSH1 0x1D DUP2 MSTORE PUSH1 0x20 ADD DUP1 PUSH32 0x416464726573733A2063616C6C20746F206E6F6E2D636F6E7472616374000000 DUP2 MSTORE POP PUSH1 0x20 ADD SWAP2 POP POP PUSH1 0x40 MLOAD DUP1 SWAP2 SUB SWAP1 REVERT JUMPDEST PUSH1 0x0 PUSH1 0x60 DUP7 PUSH20 0xFFFFFFFFFFFFFFFFFFFFFFFFFFFFFFFFFFFFFFFF AND DUP6 DUP8 PUSH1 0x40 MLOAD DUP1 DUP3 DUP1 MLOAD SWAP1 PUSH1 0x20 ADD SWAP1 DUP1 DUP4 DUP4 JUMPDEST PUSH1 0x20 DUP4 LT PUSH2 0x42AD JUMPI DUP1 MLOAD DUP3 MSTORE PUSH1 0x20 DUP3 ADD SWAP2 POP PUSH1 0x20 DUP2 ADD SWAP1 POP PUSH1 0x20 DUP4 SUB SWAP3 POP PUSH2 0x428A JUMP JUMPDEST PUSH1 0x1 DUP4 PUSH1 0x20 SUB PUSH2 0x100 EXP SUB DUP1 NOT DUP3 MLOAD AND DUP2 DUP5 MLOAD AND DUP1 DUP3 OR DUP6 MSTORE POP POP POP POP POP POP SWAP1 POP ADD SWAP2 POP POP PUSH1 0x0 PUSH1 0x40 MLOAD DUP1 DUP4 SUB DUP2 DUP6 DUP8 GAS CALL SWAP3 POP POP POP RETURNDATASIZE DUP1 PUSH1 0x0 DUP2 EQ PUSH2 0x430F JUMPI PUSH1 0x40 MLOAD SWAP2 POP PUSH1 0x1F NOT PUSH1 0x3F RETURNDATASIZE ADD AND DUP3 ADD PUSH1 0x40 MSTORE RETURNDATASIZE DUP3 MSTORE RETURNDATASIZE PUSH1 0x0 PUSH1 0x20 DUP5 ADD RETURNDATACOPY PUSH2 0x4314 JUMP JUMPDEST PUSH1 0x60 SWAP2 POP JUMPDEST POP SWAP2 POP SWAP2 POP DUP2 ISZERO PUSH2 0x4329 JUMPI DUP1 SWAP3 POP POP POP PUSH2 0x43DE JUMP JUMPDEST PUSH1 0x0 DUP2 MLOAD GT ISZERO PUSH2 0x433C JUMPI DUP1 MLOAD DUP1 DUP3 PUSH1 0x20 ADD REVERT JUMPDEST DUP4 PUSH1 0x40 MLOAD PUSH32 0x8C379A000000000000000000000000000000000000000000000000000000000 DUP2 MSTORE PUSH1 0x4 ADD DUP1 DUP1 PUSH1 0x20 ADD DUP3 DUP2 SUB DUP3 MSTORE DUP4 DUP2 DUP2 MLOAD DUP2 MSTORE PUSH1 0x20 ADD SWAP2 POP DUP1 MLOAD SWAP1 PUSH1 0x20 ADD SWAP1 DUP1 DUP4 DUP4 PUSH1 0x0 JUMPDEST DUP4 DUP2 LT ISZERO PUSH2 0x43A3 JUMPI DUP1 DUP3 ADD MLOAD DUP2 DUP5 ADD MSTORE PUSH1 0x20 DUP2 ADD SWAP1 POP PUSH2 0x4388 JUMP JUMPDEST POP POP POP POP SWAP1 POP SWAP1 DUP2 ADD SWAP1 PUSH1 0x1F AND DUP1 ISZERO PUSH2 0x43D0 JUMPI DUP1 DUP3 SUB DUP1 MLOAD PUSH1 0x1 DUP4 PUSH1 0x20 SUB PUSH2 0x100 EXP SUB NOT AND DUP2 MSTORE PUSH1 0x20 ADD SWAP2 POP JUMPDEST POP SWAP3 POP POP POP PUSH1 0x40 MLOAD DUP1 SWAP2 SUB SWAP1 REVERT JUMPDEST SWAP5 SWAP4 POP POP POP POP JUMP JUMPDEST PUSH1 0x0 DUP1 PUSH1 0x0 PUSH32 0xC5D2460186F7233C927E7DB2DCC703C0E500B653CA82273B7BFAD8045D85A470 PUSH1 0x0 SHL SWAP1 POP DUP4 EXTCODEHASH SWAP2 POP DUP1 DUP3 EQ ISZERO DUP1 ISZERO PUSH2 0x4428 JUMPI POP PUSH1 0x0 DUP1 SHL DUP3 EQ ISZERO JUMPDEST SWAP3 POP POP POP SWAP2 SWAP1 POP JUMP INVALID PUSH2 0x6464 GASPRICE KECCAK256 PUSH10 0x6E76616C696420646570 PUSH16 0x7369742066656520626173697320706F PUSH10 0x6E747375706461746552 PUSH6 0x66426F6E7573 POP PUSH6 0x7263656E743A KECCAK256 PUSH10 0x6E76616C696420726566 PUSH6 0x7272616C2062 PUSH16 0x6E757320626173697320706F696E7473 MSTORE8 PUSH2 0x6665 TIMESTAMP GASLIMIT POP ORIGIN ADDRESS GASPRICE KECCAK256 TIMESTAMP GASLIMIT POP ORIGIN ADDRESS KECCAK256 PUSH16 0x7065726174696F6E20646964206E6F74 KECCAK256 PUSH20 0x7563636565644F776E61626C653A206E6577206F PUSH24 0x6E657220697320746865207A65726F206164647265737361 PUSH5 0x643A20626C PUSH16 0x636B20746F2072656365697665207265 PUSH24 0x617264206973207265717569726564206465706F7369743A KECCAK256 0x49 PUSH15 0x76616C696420726566657272657220 PUSH2 0x6464 PUSH19 0x657373536166654D6174683A206D756C746970 PUSH13 0x69636174696F6E206F76657266 PUSH13 0x6F777365743A20696E76616C69 PUSH5 0x206465706F PUSH20 0x69742066656520626173697320706F696E747375 PUSH17 0x64617465526566426F6E75735065726365 PUSH15 0x743A2073616D6520626F6E75732062 PUSH17 0x20736574726564756365456D697373696F PUSH15 0x526174655769746844656661756C74 MSTORE PUSH2 0x7465 GASPRICE KECCAK256 NUMBER PUSH2 0x6E20 PUSH16 0x6E6C792062652063616C6C6564206166 PUSH21 0x65722073706563696669656420626C6F636B207374 PUSH2 0x7274 PUSH20 0x736166655445584F5472616E736665723A207472 PUSH2 0x6E73 PUSH7 0x6572206661696C PUSH6 0x642E67657450 PUSH16 0x6F6C4964466F724C70546F6B656E3A20 PUSH5 0x6F206E6F74 KECCAK256 PUSH6 0x786973747365 PUSH21 0x3A20626C6F636B20746F2072656365697665207265 PUSH24 0x617264206973207265717569726564726564756365456D69 PUSH20 0x73696F6E526174655769746844656661756C7452 PUSH2 0x7465 GASPRICE KECCAK256 GASLIMIT PUSH14 0x697373696F6E2072617465206861 PUSH20 0x207265616368656420746865206D696E696D756D KECCAK256 PUSH21 0x68726573686F6C646465706F7369743A207374616B PUSH10 0x6E6720706572696F6420 PUSH9 0x617320656E646564A2 PUSH5 0x6970667358 0x22 SLT KECCAK256 0xC PUSH24 0x1FAAB0D153DDEC6FFE9B80A94254FC660D3587BE94809027 PUSH8 0x83867C9BE764736F PUSH13 0x634300060C0033000000000000 "},"gasEstimates":{"creation":{"codeDepositCost":"3634800","executionCost":"infinite","totalCost":"infinite"},"external":{"EMISSION_REDUCTION_PERIOD_BLOCKS()":"271","EMISSION_REDUCTION_RATE_PER_PERIOD()":"294","INITIAL_EMISSION_RATE()":"272","MAXIMUM_DEPOSIT_FEE_BP()":"322","MAXIMUM_REFERRAL_BP()":"301","MINIMUM_EMISSION_RATE()":"272","add(uint256,address,uint16,bool,uint256,uint256,uint256)":"infinite","blockToStartReducingEmissionRate()":"1050","canClaimReward(uint256)":"2135","deposit(uint256,uint256,address)":"infinite","devAddr()":"1135","emergencyWithdraw(uint256)":"infinite","feeAddress()":"1093","getMultiplier(uint256,uint256)":"infinite","getPoolIdForLpToken(address)":"infinite","getReferral(address)":"1350","lastReductionPeriodIndex()":"1051","massUpdatePools()":"infinite","owner()":"1167","pendingTEXO(uint256,address)":"infinite","poolExistence(address)":"1333","poolIdForLpAddress(address)":"1302","poolInfo(uint256)":"7194","poolLength()":"1090","reduceEmissionRateWithDefaultRate()":"infinite","refBonusBP()":"1160","referredCount(address)":"1303","referrers(address)":"1290","renounceOwnership()":"24359","set(uint256,uint256,uint16,bool,uint256,uint256)":"infinite","setBlockToStartReducingEmissionRate(uint256)":"23754","setDevAddress(address)":"23597","setEmissionRate(uint256)":"infinite","setFeeAddress(address)":"23643","tEXO()":"1114","tEXOPerBlock()":"1138","totalAllocPoint()":"1140","transferOwnership(address)":"infinite","updatePool(uint256)":"infinite","updateReferralBonusBp(uint256)":"infinite","userInfo(uint256,address)":"3028","withdraw(uint256,uint256)":"infinite"},"internal":{"minCurrentBlockAndInactiveBlockIfExist(uint256)":"3403","payOrLockupPendingTEXO(uint256)":"infinite","payReferralCommission(address,uint256)":"infinite","safeTEXOTransfer(address,uint256)":"infinite","setReferral(address,address)":"44546"}},"methodIdentifiers":{"EMISSION_REDUCTION_PERIOD_BLOCKS()":"d4adafdf","EMISSION_REDUCTION_RATE_PER_PERIOD()":"b7eee1f1","INITIAL_EMISSION_RATE()":"91bb809c","MAXIMUM_DEPOSIT_FEE_BP()":"955c9b93","MAXIMUM_REFERRAL_BP()":"3a22df78","MINIMUM_EMISSION_RATE()":"61e0c468","add(uint256,address,uint16,bool,uint256,uint256,uint256)":"0b844523","blockToStartReducingEmissionRate()":"54324b58","canClaimReward(uint256)":"ca291b13","deposit(uint256,uint256,address)":"8dbdbe6d","devAddr()":"da09c72c","emergencyWithdraw(uint256)":"5312ea8e","feeAddress()":"41275358","getMultiplier(uint256,uint256)":"8dbb1e3a","getPoolIdForLpToken(address)":"190f39f0","getReferral(address)":"3b0f0f2f","lastReductionPeriodIndex()":"6a9a7660","massUpdatePools()":"630b5ba1","owner()":"8da5cb5b","pendingTEXO(uint256,address)":"dfe3d2cd","poolExistence(address)":"cbd258b5","poolIdForLpAddress(address)":"9bf62f7e","poolInfo(uint256)":"1526fe27","poolLength()":"081e3eda","reduceEmissionRateWithDefaultRate()":"ea76bc29","refBonusBP()":"66f685ea","referredCount(address)":"3f7b06d8","referrers(address)":"4a3b68cc","renounceOwnership()":"715018a6","set(uint256,uint256,uint16,bool,uint256,uint256)":"0326f66d","setBlockToStartReducingEmissionRate(uint256)":"1eb704b0","setDevAddress(address)":"d0d41fe1","setEmissionRate(uint256)":"a1bdb15e","setFeeAddress(address)":"8705fcd4","tEXO()":"ae715d70","tEXOPerBlock()":"660f8340","totalAllocPoint()":"17caf6f1","transferOwnership(address)":"f2fde38b","updatePool(uint256)":"51eb05a6","updateReferralBonusBp(uint256)":"64ed743b","userInfo(uint256,address)":"93f1a40b","withdraw(uint256,uint256)":"441a3e70"}},"storageLayout":{"storage":[{"astId":2391,"contract":"TEXOOrchestrator.sol:TEXOOrchestrator","label":"_owner","offset":0,"slot":"0","type":"t_address"},{"astId":2590,"contract":"TEXOOrchestrator.sol:TEXOOrchestrator","label":"_status","offset":0,"slot":"1","type":"t_uint256"},{"astId":4060,"contract":"TEXOOrchestrator.sol:TEXOOrchestrator","label":"tEXO","offset":0,"slot":"2","type":"t_contract(TEXOToken)6253"},{"astId":4062,"contract":"TEXOOrchestrator.sol:TEXOOrchestrator","label":"devAddr","offset":0,"slot":"3","type":"t_address"},{"astId":4064,"contract":"TEXOOrchestrator.sol:TEXOOrchestrator","label":"tEXOPerBlock","offset":0,"slot":"4","type":"t_uint256"},{"astId":4066,"contract":"TEXOOrchestrator.sol:TEXOOrchestrator","label":"feeAddress","offset":0,"slot":"5","type":"t_address"},{"astId":4068,"contract":"TEXOOrchestrator.sol:TEXOOrchestrator","label":"blockToStartReducingEmissionRate","offset":0,"slot":"6","type":"t_uint256"},{"astId":4071,"contract":"TEXOOrchestrator.sol:TEXOOrchestrator","label":"poolInfo","offset":0,"slot":"7","type":"t_array(t_struct(PoolInfo)4058_storage)dyn_storage"},{"astId":4077,"contract":"TEXOOrchestrator.sol:TEXOOrchestrator","label":"userInfo","offset":0,"slot":"8","type":"t_mapping(t_uint256,t_mapping(t_address,t_struct(UserInfo)4043_storage))"},{"astId":4080,"contract":"TEXOOrchestrator.sol:TEXOOrchestrator","label":"totalAllocPoint","offset":0,"slot":"9","type":"t_uint256"},{"astId":4083,"contract":"TEXOOrchestrator.sol:TEXOOrchestrator","label":"refBonusBP","offset":0,"slot":"10","type":"t_uint256"},{"astId":4093,"contract":"TEXOOrchestrator.sol:TEXOOrchestrator","label":"referrers","offset":0,"slot":"11","type":"t_mapping(t_address,t_address)"},{"astId":4097,"contract":"TEXOOrchestrator.sol:TEXOOrchestrator","label":"referredCount","offset":0,"slot":"12","type":"t_mapping(t_address,t_uint256)"},{"astId":4101,"contract":"TEXOOrchestrator.sol:TEXOOrchestrator","label":"poolExistence","offset":0,"slot":"13","type":"t_mapping(t_contract(IBEP20)2383,t_bool)"},{"astId":4105,"contract":"TEXOOrchestrator.sol:TEXOOrchestrator","label":"poolIdForLpAddress","offset":0,"slot":"14","type":"t_mapping(t_contract(IBEP20)2383,t_uint256)"},{"astId":4120,"contract":"TEXOOrchestrator.sol:TEXOOrchestrator","label":"lastReductionPeriodIndex","offset":0,"slot":"15","type":"t_uint256"}],"types":{"t_address":{"encoding":"inplace","label":"address","numberOfBytes":"20"},"t_array(t_struct(PoolInfo)4058_storage)dyn_storage":{"base":"t_struct(PoolInfo)4058_storage","encoding":"dynamic_array","label":"struct TEXOOrchestrator.PoolInfo[]","numberOfBytes":"32"},"t_bool":{"encoding":"inplace","label":"bool","numberOfBytes":"1"},"t_contract(IBEP20)2383":{"encoding":"inplace","label":"contract IBEP20","numberOfBytes":"20"},"t_contract(TEXOToken)6253":{"encoding":"inplace","label":"contract TEXOToken","numberOfBytes":"20"},"t_mapping(t_address,t_address)":{"encoding":"mapping","key":"t_address","label":"mapping(address => address)","numberOfBytes":"32","value":"t_address"},"t_mapping(t_address,t_struct(UserInfo)4043_storage)":{"encoding":"mapping","key":"t_address","label":"mapping(address => struct TEXOOrchestrator.UserInfo)","numberOfBytes":"32","value":"t_struct(UserInfo)4043_storage"},"t_mapping(t_address,t_uint256)":{"encoding":"mapping","key":"t_address","label":"mapping(address => uint256)","numberOfBytes":"32","value":"t_uint256"},"t_mapping(t_contract(IBEP20)2383,t_bool)":{"encoding":"mapping","key":"t_contract(IBEP20)2383","label":"mapping(contract IBEP20 => bool)","numberOfBytes":"32","value":"t_bool"},"t_mapping(t_contract(IBEP20)2383,t_uint256)":{"encoding":"mapping","key":"t_contract(IBEP20)2383","label":"mapping(contract IBEP20 => uint256)","numberOfBytes":"32","value":"t_uint256"},"t_mapping(t_uint256,t_mapping(t_address,t_struct(UserInfo)4043_storage))":{"encoding":"mapping","key":"t_uint256","label":"mapping(uint256 => mapping(address => struct TEXOOrchestrator.UserInfo))","numberOfBytes":"32","value":"t_mapping(t_address,t_struct(UserInfo)4043_storage)"},"t_struct(PoolInfo)4058_storage":{"encoding":"inplace","label":"struct TEXOOrchestrator.PoolInfo","members":[{"astId":4045,"contract":"TEXOOrchestrator.sol:TEXOOrchestrator","label":"lpToken","offset":0,"slot":"0","type":"t_contract(IBEP20)2383"},{"astId":4047,"contract":"TEXOOrchestrator.sol:TEXOOrchestrator","label":"allocPoint","offset":0,"slot":"1","type":"t_uint256"},{"astId":4049,"contract":"TEXOOrchestrator.sol:TEXOOrchestrator","label":"blockToReceiveReward","offset":0,"slot":"2","type":"t_uint256"},{"astId":4051,"contract":"TEXOOrchestrator.sol:TEXOOrchestrator","label":"inActiveBlock","offset":0,"slot":"3","type":"t_uint256"},{"astId":4053,"contract":"TEXOOrchestrator.sol:TEXOOrchestrator","label":"lastRewardBlock","offset":0,"slot":"4","type":"t_uint256"},{"astId":4055,"contract":"TEXOOrchestrator.sol:TEXOOrchestrator","label":"accTEXOPerShare","offset":0,"slot":"5","type":"t_uint256"},{"astId":4057,"contract":"TEXOOrchestrator.sol:TEXOOrchestrator","label":"depositFeeBP","offset":0,"slot":"6","type":"t_uint16"}],"numberOfBytes":"224"},"t_struct(UserInfo)4043_storage":{"encoding":"inplace","label":"struct TEXOOrchestrator.UserInfo","members":[{"astId":4038,"contract":"TEXOOrchestrator.sol:TEXOOrchestrator","label":"amount","offset":0,"slot":"0","type":"t_uint256"},{"astId":4040,"contract":"TEXOOrchestrator.sol:TEXOOrchestrator","label":"rewardDebt","offset":0,"slot":"1","type":"t_uint256"},{"astId":4042,"contract":"TEXOOrchestrator.sol:TEXOOrchestrator","label":"rewardLockedUp","offset":0,"slot":"2","type":"t_uint256"}],"numberOfBytes":"96"},"t_uint16":{"encoding":"inplace","label":"uint16","numberOfBytes":"2"},"t_uint256":{"encoding":"inplace","label":"uint256","numberOfBytes":"32"}}},"userdoc":{"kind":"user","methods":{},"version":1}}