{"abi":[{"inputs":[{"internalType":"contract TEXOToken","name":"_tEXO","type":"address"},{"internalType":"address","name":"_devAddr","type":"address"},{"internalType":"address","name":"_feeAddress","type":"address"},{"internalType":"uint256","name":"_startBlock","type":"uint256"},{"internalType":"uint256","name":"_blockToStartReducingEmissionRate","type":"uint256"},{"internalType":"uint256","name":"_blockToUnlockClaimingRewards","type":"uint256"}],"stateMutability":"nonpayable","type":"constructor"},{"anonymous":false,"inputs":[{"indexed":true,"internalType":"address","name":"user","type":"address"},{"indexed":true,"internalType":"uint256","name":"pid","type":"uint256"},{"indexed":false,"internalType":"uint256","name":"amount","type":"uint256"}],"name":"Deposit","type":"event"},{"anonymous":false,"inputs":[{"indexed":true,"internalType":"address","name":"user","type":"address"},{"indexed":true,"internalType":"uint256","name":"pid","type":"uint256"},{"indexed":false,"internalType":"uint256","name":"amount","type":"uint256"}],"name":"EmergencyWithdraw","type":"event"},{"anonymous":false,"inputs":[{"indexed":true,"internalType":"address","name":"caller","type":"address"},{"indexed":false,"internalType":"uint256","name":"previousAmount","type":"uint256"},{"indexed":false,"internalType":"uint256","name":"newAmount","type":"uint256"}],"name":"EmissionRateUpdated","type":"event"},{"anonymous":false,"inputs":[{"indexed":true,"internalType":"address","name":"previousOwner","type":"address"},{"indexed":true,"internalType":"address","name":"newOwner","type":"address"}],"name":"OwnershipTransferred","type":"event"},{"anonymous":false,"inputs":[{"indexed":true,"internalType":"address","name":"_referrer","type":"address"},{"indexed":true,"internalType":"address","name":"_user","type":"address"}],"name":"Referral","type":"event"},{"anonymous":false,"inputs":[{"indexed":false,"internalType":"uint256","name":"_oldBp","type":"uint256"},{"indexed":false,"internalType":"uint256","name":"_newBp","type":"uint256"}],"name":"ReferralBonusBpChanged","type":"event"},{"anonymous":false,"inputs":[{"indexed":true,"internalType":"address","name":"_user","type":"address"},{"indexed":true,"internalType":"address","name":"_userTo","type":"address"},{"indexed":false,"internalType":"uint256","name":"_reward","type":"uint256"}],"name":"ReferralPaid","type":"event"},{"anonymous":false,"inputs":[{"indexed":true,"internalType":"address","name":"user","type":"address"},{"indexed":true,"internalType":"address","name":"_feeAddress","type":"address"}],"name":"SetDevAddress","type":"event"},{"anonymous":false,"inputs":[{"indexed":true,"internalType":"address","name":"user","type":"address"},{"indexed":true,"internalType":"address","name":"_devAddress","type":"address"}],"name":"SetFeeAddress","type":"event"},{"anonymous":false,"inputs":[{"indexed":true,"internalType":"address","name":"user","type":"address"},{"indexed":true,"internalType":"uint256","name":"pid","type":"uint256"},{"indexed":false,"internalType":"uint256","name":"amount","type":"uint256"}],"name":"Withdraw","type":"event"},{"inputs":[],"name":"EMISSION_REDUCTION_PERIOD_BLOCKS","outputs":[{"internalType":"uint256","name":"","type":"uint256"}],"stateMutability":"view","type":"function"},{"inputs":[],"name":"EMISSION_REDUCTION_RATE_PER_PERIOD","outputs":[{"internalType":"uint256","name":"","type":"uint256"}],"stateMutability":"view","type":"function"},{"inputs":[],"name":"INITIAL_EMISSION_RATE","outputs":[{"internalType":"uint256","name":"","type":"uint256"}],"stateMutability":"view","type":"function"},{"inputs":[],"name":"MAXIMUM_DEPOSIT_FEE_BP","outputs":[{"internalType":"uint16","name":"","type":"uint16"}],"stateMutability":"view","type":"function"},{"inputs":[],"name":"MAXIMUM_REFERRAL_BP","outputs":[{"internalType":"uint16","name":"","type":"uint16"}],"stateMutability":"view","type":"function"},{"inputs":[],"name":"MINIMUM_EMISSION_RATE","outputs":[{"internalType":"uint256","name":"","type":"uint256"}],"stateMutability":"view","type":"function"},{"inputs":[{"internalType":"uint256","name":"_allocPoint","type":"uint256"},{"internalType":"contract IBEP20","name":"_lpToken","type":"address"},{"internalType":"uint16","name":"_depositFeeBP","type":"uint16"},{"internalType":"bool","name":"_withUpdate","type":"bool"},{"internalType":"uint256","name":"_blockToReceiveReward","type":"uint256"}],"name":"add","outputs":[],"stateMutability":"nonpayable","type":"function"},{"inputs":[],"name":"blockToStartReducingEmissionRate","outputs":[{"internalType":"uint256","name":"","type":"uint256"}],"stateMutability":"view","type":"function"},{"inputs":[{"internalType":"uint256","name":"_pid","type":"uint256"}],"name":"canGenerateTexoReward","outputs":[{"internalType":"bool","name":"","type":"bool"}],"stateMutability":"view","type":"function"},{"inputs":[{"internalType":"uint256","name":"_pid","type":"uint256"}],"name":"canWithdrawReward","outputs":[{"internalType":"bool","name":"","type":"bool"}],"stateMutability":"view","type":"function"},{"inputs":[{"internalType":"uint256","name":"_pid","type":"uint256"},{"internalType":"uint256","name":"_amount","type":"uint256"},{"internalType":"address","name":"_referrer","type":"address"}],"name":"deposit","outputs":[],"stateMutability":"nonpayable","type":"function"},{"inputs":[{"internalType":"uint256","name":"_pid","type":"uint256"},{"internalType":"uint256","name":"_amount","type":"uint256"}],"name":"deposit","outputs":[],"stateMutability":"nonpayable","type":"function"},{"inputs":[],"name":"devAddr","outputs":[{"internalType":"address","name":"","type":"address"}],"stateMutability":"view","type":"function"},{"inputs":[{"internalType":"uint256","name":"_pid","type":"uint256"}],"name":"emergencyWithdraw","outputs":[],"stateMutability":"nonpayable","type":"function"},{"inputs":[],"name":"feeAddress","outputs":[{"internalType":"address","name":"","type":"address"}],"stateMutability":"view","type":"function"},{"inputs":[{"internalType":"uint256","name":"_from","type":"uint256"},{"internalType":"uint256","name":"_to","type":"uint256"}],"name":"getMultiplier","outputs":[{"internalType":"uint256","name":"","type":"uint256"}],"stateMutability":"pure","type":"function"},{"inputs":[{"internalType":"contract IBEP20","name":"_lpToken","type":"address"}],"name":"getPoolIdForLpToken","outputs":[{"internalType":"uint256","name":"","type":"uint256"}],"stateMutability":"view","type":"function"},{"inputs":[{"internalType":"address","name":"_user","type":"address"}],"name":"getReferral","outputs":[{"internalType":"address","name":"","type":"address"}],"stateMutability":"view","type":"function"},{"inputs":[],"name":"globalBlockToUnlockClaimingRewards","outputs":[{"internalType":"uint256","name":"","type":"uint256"}],"stateMutability":"view","type":"function"},{"inputs":[],"name":"isAllowReduceEmissionRate","outputs":[{"internalType":"bool","name":"","type":"bool"}],"stateMutability":"view","type":"function"},{"inputs":[],"name":"lastReductionPeriodIndex","outputs":[{"internalType":"uint256","name":"","type":"uint256"}],"stateMutability":"view","type":"function"},{"inputs":[],"name":"massUpdatePools","outputs":[],"stateMutability":"nonpayable","type":"function"},{"inputs":[],"name":"owner","outputs":[{"internalType":"address","name":"","type":"address"}],"stateMutability":"view","type":"function"},{"inputs":[{"internalType":"uint256","name":"_pid","type":"uint256"},{"internalType":"address","name":"_user","type":"address"}],"name":"pendingTEXO","outputs":[{"internalType":"uint256","name":"","type":"uint256"}],"stateMutability":"view","type":"function"},{"inputs":[{"internalType":"contract IBEP20","name":"","type":"address"}],"name":"poolExistence","outputs":[{"internalType":"bool","name":"","type":"bool"}],"stateMutability":"view","type":"function"},{"inputs":[{"internalType":"contract IBEP20","name":"","type":"address"}],"name":"poolIdForLpAddress","outputs":[{"internalType":"uint256","name":"","type":"uint256"}],"stateMutability":"view","type":"function"},{"inputs":[{"internalType":"uint256","name":"","type":"uint256"}],"name":"poolInfo","outputs":[{"internalType":"contract IBEP20","name":"lpToken","type":"address"},{"internalType":"uint256","name":"allocPoint","type":"uint256"},{"internalType":"uint256","name":"blockToReceiveReward","type":"uint256"},{"internalType":"uint256","name":"lastRewardBlock","type":"uint256"},{"internalType":"uint256","name":"accTEXOPerShare","type":"uint256"},{"internalType":"uint16","name":"depositFeeBP","type":"uint16"}],"stateMutability":"view","type":"function"},{"inputs":[],"name":"poolLength","outputs":[{"internalType":"uint256","name":"","type":"uint256"}],"stateMutability":"view","type":"function"},{"inputs":[],"name":"reduceEmissionRateWithDefaultRate","outputs":[],"stateMutability":"nonpayable","type":"function"},{"inputs":[],"name":"refBonusBP","outputs":[{"internalType":"uint256","name":"","type":"uint256"}],"stateMutability":"view","type":"function"},{"inputs":[{"internalType":"address","name":"","type":"address"}],"name":"referredCount","outputs":[{"internalType":"uint256","name":"","type":"uint256"}],"stateMutability":"view","type":"function"},{"inputs":[{"internalType":"address","name":"","type":"address"}],"name":"referrers","outputs":[{"internalType":"address","name":"","type":"address"}],"stateMutability":"view","type":"function"},{"inputs":[],"name":"renounceOwnership","outputs":[],"stateMutability":"nonpayable","type":"function"},{"inputs":[{"internalType":"uint256","name":"_pid","type":"uint256"},{"internalType":"uint256","name":"_allocPoint","type":"uint256"},{"internalType":"uint16","name":"_depositFeeBP","type":"uint16"},{"internalType":"bool","name":"_withUpdate","type":"bool"},{"internalType":"uint256","name":"_blockToReceiveReward","type":"uint256"}],"name":"set","outputs":[],"stateMutability":"nonpayable","type":"function"},{"inputs":[{"internalType":"uint256","name":"_blockToStartReducingEmissionRate","type":"uint256"}],"name":"setBlockToStartReducingEmissionRate","outputs":[],"stateMutability":"nonpayable","type":"function"},{"inputs":[{"internalType":"address","name":"_devaddr","type":"address"}],"name":"setDevAddress","outputs":[],"stateMutability":"nonpayable","type":"function"},{"inputs":[{"internalType":"uint256","name":"newEmissionRate","type":"uint256"}],"name":"setEmissionRate","outputs":[],"stateMutability":"nonpayable","type":"function"},{"inputs":[{"internalType":"address","name":"_feeAddress","type":"address"}],"name":"setFeeAddress","outputs":[],"stateMutability":"nonpayable","type":"function"},{"inputs":[{"internalType":"bool","name":"isAllow","type":"bool"}],"name":"setFlagAllowReduceEmissionRate","outputs":[],"stateMutability":"nonpayable","type":"function"},{"inputs":[{"internalType":"uint256","name":"_blockToUnlockClaimingRewards","type":"uint256"}],"name":"setGlobalBlockToUnlockClaimingRewards","outputs":[],"stateMutability":"nonpayable","type":"function"},{"inputs":[],"name":"tEXO","outputs":[{"internalType":"contract TEXOToken","name":"","type":"address"}],"stateMutability":"view","type":"function"},{"inputs":[],"name":"tEXOPerBlock","outputs":[{"internalType":"uint256","name":"","type":"uint256"}],"stateMutability":"view","type":"function"},{"inputs":[],"name":"totalAllocPoint","outputs":[{"internalType":"uint256","name":"","type":"uint256"}],"stateMutability":"view","type":"function"},{"inputs":[{"internalType":"address","name":"newOwner","type":"address"}],"name":"transferOwnership","outputs":[],"stateMutability":"nonpayable","type":"function"},{"inputs":[{"internalType":"uint256","name":"_pid","type":"uint256"}],"name":"updatePool","outputs":[],"stateMutability":"nonpayable","type":"function"},{"inputs":[{"internalType":"uint256","name":"_newRefBonusBp","type":"uint256"}],"name":"updateReferralBonusBp","outputs":[],"stateMutability":"nonpayable","type":"function"},{"inputs":[{"internalType":"uint256","name":"","type":"uint256"},{"internalType":"address","name":"","type":"address"}],"name":"userInfo","outputs":[{"internalType":"uint256","name":"amount","type":"uint256"},{"internalType":"uint256","name":"rewardDebt","type":"uint256"},{"internalType":"bool","name":"isAlreadyStaked","type":"bool"}],"stateMutability":"view","type":"function"},{"inputs":[{"internalType":"uint256","name":"_pid","type":"uint256"},{"internalType":"uint256","name":"_amount","type":"uint256"}],"name":"withdraw","outputs":[],"stateMutability":"nonpayable","type":"function"}],"devdoc":{"kind":"dev","methods":{"owner()":{"details":"Returns the address of the current owner."},"renounceOwnership()":{"details":"Leaves the contract without owner. It will not be possible to call `onlyOwner` functions anymore. Can only be called by the current owner. NOTE: Renouncing ownership will leave the contract without an owner, thereby removing any functionality that is only available to the owner."},"transferOwnership(address)":{"details":"Transfers ownership of the contract to a new account (`newOwner`). Can only be called by the current owner."}},"title":"TEXO Token (tEXO)","version":1},"evm":{"assembly":"    /* \"TEXOToken.sol\":33757:54633  contract TEXOOrchestrator is Ownable, ReentrancyGuard {... */\n  mstore(0x40, 0x80)\n    /* \"TEXOToken.sol\":36107:36108  0 */\n  0x00\n    /* \"TEXOToken.sol\":36074:36108  uint256 public totalAllocPoint = 0 */\n  0x0b\n  sstore\n    /* \"TEXOToken.sol\":36201:36204  100 */\n  0x64\n    /* \"TEXOToken.sol\":36173:36204  uint256 public refBonusBP = 100 */\n  0x0c\n  sstore\n    /* \"TEXOToken.sol\":37332:37333  0 */\n  0x00\n    /* \"TEXOToken.sol\":37290:37333  uint256 public lastReductionPeriodIndex = 0 */\n  0x11\n  sstore\n    /* \"TEXOToken.sol\":37380:37385  false */\n  0x00\n    /* \"TEXOToken.sol\":37340:37385  bool public isAllowReduceEmissionRate = false */\n  0x12\n  exp(0x0100, 0x00)\n  dup2\n  sload\n  dup2\n  0xff\n  mul\n  not\n  and\n  swap1\n  dup4\n  iszero\n  iszero\n  mul\n  or\n  swap1\n  sstore\n  pop\n    /* \"TEXOToken.sol\":38143:38700  constructor(... */\n  callvalue\n  dup1\n  iszero\n  tag_1\n  jumpi\n  0x00\n  dup1\n  revert\ntag_1:\n  pop\n  mload(0x40)\n  sub(codesize, bytecodeSize)\n  dup1\n  bytecodeSize\n  dup4\n  codecopy\n  dup2\n  dup2\n  add\n  0x40\n  mstore\n  0xc0\n  dup2\n  lt\n  iszero\n  tag_2\n  jumpi\n  0x00\n  dup1\n  revert\ntag_2:\n  dup2\n  add\n  swap1\n  dup1\n  dup1\n  mload\n  swap1\n  0x20\n  add\n  swap1\n  swap3\n  swap2\n  swap1\n  dup1\n  mload\n  swap1\n  0x20\n  add\n  swap1\n  swap3\n  swap2\n  swap1\n  dup1\n  mload\n  swap1\n  0x20\n  add\n  swap1\n  swap3\n  swap2\n  swap1\n  dup1\n  mload\n  swap1\n  0x20\n  add\n  swap1\n  swap3\n  swap2\n  swap1\n  dup1\n  mload\n  swap1\n  0x20\n  add\n  swap1\n  swap3\n  swap2\n  swap1\n  dup1\n  mload\n  swap1\n  0x20\n  add\n  swap1\n  swap3\n  swap2\n  swap1\n  pop\n  pop\n  pop\n    /* \"TEXOToken.sol\":11248:11265  address msgSender */\n  0x00\n    /* \"TEXOToken.sol\":11268:11280  _msgSender() */\n  tag_9\n    /* \"TEXOToken.sol\":11268:11278  _msgSender */\n  shl(0x20, tag_10)\n    /* \"TEXOToken.sol\":11268:11280  _msgSender() */\n  0x20\n  shr\n  jump\t// in\ntag_9:\n    /* \"TEXOToken.sol\":11248:11280  address msgSender = _msgSender() */\n  swap1\n  pop\n    /* \"TEXOToken.sol\":11299:11308  msgSender */\n  dup1\n    /* \"TEXOToken.sol\":11290:11296  _owner */\n  0x00\n  dup1\n    /* \"TEXOToken.sol\":11290:11308  _owner = msgSender */\n  0x0100\n  exp\n  dup2\n  sload\n  dup2\n  0xffffffffffffffffffffffffffffffffffffffff\n  mul\n  not\n  and\n  swap1\n  dup4\n  0xffffffffffffffffffffffffffffffffffffffff\n  and\n  mul\n  or\n  swap1\n  sstore\n  pop\n    /* \"TEXOToken.sol\":11356:11365  msgSender */\n  dup1\n    /* \"TEXOToken.sol\":11323:11366  OwnershipTransferred(address(0), msgSender) */\n  0xffffffffffffffffffffffffffffffffffffffff\n  and\n    /* \"TEXOToken.sol\":11352:11353  0 */\n  0x00\n    /* \"TEXOToken.sol\":11323:11366  OwnershipTransferred(address(0), msgSender) */\n  0xffffffffffffffffffffffffffffffffffffffff\n  and\n  0x8be0079c531659141344cd1fd0a4f28419497f9722a3daafe3b4186f6b6457e0\n  mload(0x40)\n  mload(0x40)\n  dup1\n  swap2\n  sub\n  swap1\n  log3\n    /* \"TEXOToken.sol\":11214:11373  constructor () internal {... */\n  pop\n    /* \"TEXOToken.sol\":21153:21154  1 */\n  0x01\n    /* \"TEXOToken.sol\":21268:21275  _status */\n  dup1\n    /* \"TEXOToken.sol\":21268:21290  _status = _NOT_ENTERED */\n  dup2\n  swap1\n  sstore\n  pop\n    /* \"TEXOToken.sol\":38392:38397  _tEXO */\n  dup6\n    /* \"TEXOToken.sol\":38385:38389  tEXO */\n  0x02\n  0x00\n    /* \"TEXOToken.sol\":38385:38397  tEXO = _tEXO */\n  0x0100\n  exp\n  dup2\n  sload\n  dup2\n  0xffffffffffffffffffffffffffffffffffffffff\n  mul\n  not\n  and\n  swap1\n  dup4\n  0xffffffffffffffffffffffffffffffffffffffff\n  and\n  mul\n  or\n  swap1\n  sstore\n  pop\n    /* \"TEXOToken.sol\":38417:38425  _devAddr */\n  dup5\n    /* \"TEXOToken.sol\":38407:38414  devAddr */\n  0x03\n  0x00\n    /* \"TEXOToken.sol\":38407:38425  devAddr = _devAddr */\n  0x0100\n  exp\n  dup2\n  sload\n  dup2\n  0xffffffffffffffffffffffffffffffffffffffff\n  mul\n  not\n  and\n  swap1\n  dup4\n  0xffffffffffffffffffffffffffffffffffffffff\n  and\n  mul\n  or\n  swap1\n  sstore\n  pop\n    /* \"TEXOToken.sol\":38448:38459  _feeAddress */\n  dup4\n    /* \"TEXOToken.sol\":38435:38445  feeAddress */\n  0x05\n  0x00\n    /* \"TEXOToken.sol\":38435:38459  feeAddress = _feeAddress */\n  0x0100\n  exp\n  dup2\n  sload\n  dup2\n  0xffffffffffffffffffffffffffffffffffffffff\n  mul\n  not\n  and\n  swap1\n  dup4\n  0xffffffffffffffffffffffffffffffffffffffff\n  and\n  mul\n  or\n  swap1\n  sstore\n  pop\n    /* \"TEXOToken.sol\":36863:36873  500 finney */\n  0x06f05b59d3b20000\n    /* \"TEXOToken.sol\":38469:38481  tEXOPerBlock */\n  0x04\n    /* \"TEXOToken.sol\":38469:38505  tEXOPerBlock = INITIAL_EMISSION_RATE */\n  dup2\n  swap1\n  sstore\n  pop\n    /* \"TEXOToken.sol\":38528:38539  _startBlock */\n  dup3\n    /* \"TEXOToken.sol\":38515:38525  startBlock */\n  0x08\n    /* \"TEXOToken.sol\":38515:38539  startBlock = _startBlock */\n  dup2\n  swap1\n  sstore\n  pop\n    /* \"TEXOToken.sol\":38584:38617  _blockToStartReducingEmissionRate */\n  dup2\n    /* \"TEXOToken.sol\":38549:38581  blockToStartReducingEmissionRate */\n  0x06\n    /* \"TEXOToken.sol\":38549:38617  blockToStartReducingEmissionRate = _blockToStartReducingEmissionRate */\n  dup2\n  swap1\n  sstore\n  pop\n    /* \"TEXOToken.sol\":38664:38693  _blockToUnlockClaimingRewards */\n  dup1\n    /* \"TEXOToken.sol\":38627:38661  globalBlockToUnlockClaimingRewards */\n  0x07\n    /* \"TEXOToken.sol\":38627:38693  globalBlockToUnlockClaimingRewards = _blockToUnlockClaimingRewards */\n  dup2\n  swap1\n  sstore\n  pop\n    /* \"TEXOToken.sol\":38143:38700  constructor(... */\n  pop\n  pop\n  pop\n  pop\n  pop\n  pop\n    /* \"TEXOToken.sol\":33757:54633  contract TEXOOrchestrator is Ownable, ReentrancyGuard {... */\n  jump(tag_13)\n    /* \"TEXOToken.sol\":5955:6051  function _msgSender() internal view returns (address payable) {... */\ntag_10:\n    /* \"TEXOToken.sol\":6000:6015  address payable */\n  0x00\n    /* \"TEXOToken.sol\":6034:6044  msg.sender */\n  caller\n    /* \"TEXOToken.sol\":6027:6044  return msg.sender */\n  swap1\n  pop\n    /* \"TEXOToken.sol\":5955:6051  function _msgSender() internal view returns (address payable) {... */\n  swap1\n  jump\t// out\n    /* \"TEXOToken.sol\":33757:54633  contract TEXOOrchestrator is Ownable, ReentrancyGuard {... */\ntag_13:\n  dataSize(sub_0)\n  dup1\n  dataOffset(sub_0)\n  0x00\n  codecopy\n  0x00\n  return\nstop\n\nsub_0: assembly {\n        /* \"TEXOToken.sol\":33757:54633  contract TEXOOrchestrator is Ownable, ReentrancyGuard {... */\n      mstore(0x40, 0x80)\n      callvalue\n      dup1\n      iszero\n      tag_1\n      jumpi\n      0x00\n      dup1\n      revert\n    tag_1:\n      pop\n      jumpi(tag_2, lt(calldatasize, 0x04))\n      shr(0xe0, calldataload(0x00))\n      dup1\n      0x8da5cb5b\n      gt\n      tag_51\n      jumpi\n      dup1\n      0xb7eee1f1\n      gt\n      tag_52\n      jumpi\n      dup1\n      0xdfe3d2cd\n      gt\n      tag_53\n      jumpi\n      dup1\n      0xdfe3d2cd\n      eq\n      tag_45\n      jumpi\n      dup1\n      0xe2bbb158\n      eq\n      tag_46\n      jumpi\n      dup1\n      0xea76bc29\n      eq\n      tag_47\n      jumpi\n      dup1\n      0xebec9e8b\n      eq\n      tag_48\n      jumpi\n      dup1\n      0xf2fde38b\n      eq\n      tag_49\n      jumpi\n      dup1\n      0xfab96ae6\n      eq\n      tag_50\n      jumpi\n      jump(tag_2)\n    tag_53:\n      dup1\n      0xb7eee1f1\n      eq\n      tag_39\n      jumpi\n      dup1\n      0xc6df25bd\n      eq\n      tag_40\n      jumpi\n      dup1\n      0xcbd258b5\n      eq\n      tag_41\n      jumpi\n      dup1\n      0xd0d41fe1\n      eq\n      tag_42\n      jumpi\n      dup1\n      0xd4adafdf\n      eq\n      tag_43\n      jumpi\n      dup1\n      0xda09c72c\n      eq\n      tag_44\n      jumpi\n      jump(tag_2)\n    tag_52:\n      dup1\n      0x9bf62f7e\n      gt\n      tag_54\n      jumpi\n      dup1\n      0x9bf62f7e\n      eq\n      tag_33\n      jumpi\n      dup1\n      0xa1515333\n      eq\n      tag_34\n      jumpi\n      dup1\n      0xa1bdb15e\n      eq\n      tag_35\n      jumpi\n      dup1\n      0xae715d70\n      eq\n      tag_36\n      jumpi\n      dup1\n      0xb2a5aa2e\n      eq\n      tag_37\n      jumpi\n      dup1\n      0xb51d4c80\n      eq\n      tag_38\n      jumpi\n      jump(tag_2)\n    tag_54:\n      dup1\n      0x8da5cb5b\n      eq\n      tag_27\n      jumpi\n      dup1\n      0x8dbb1e3a\n      eq\n      tag_28\n      jumpi\n      dup1\n      0x8dbdbe6d\n      eq\n      tag_29\n      jumpi\n      dup1\n      0x91bb809c\n      eq\n      tag_30\n      jumpi\n      dup1\n      0x93f1a40b\n      eq\n      tag_31\n      jumpi\n      dup1\n      0x955c9b93\n      eq\n      tag_32\n      jumpi\n      jump(tag_2)\n    tag_51:\n      dup1\n      0x51eb05a6\n      gt\n      tag_55\n      jumpi\n      dup1\n      0x660f8340\n      gt\n      tag_56\n      jumpi\n      dup1\n      0x660f8340\n      eq\n      tag_21\n      jumpi\n      dup1\n      0x66f685ea\n      eq\n      tag_22\n      jumpi\n      dup1\n      0x6a9a7660\n      eq\n      tag_23\n      jumpi\n      dup1\n      0x715018a6\n      eq\n      tag_24\n      jumpi\n      dup1\n      0x80361747\n      eq\n      tag_25\n      jumpi\n      dup1\n      0x8705fcd4\n      eq\n      tag_26\n      jumpi\n      jump(tag_2)\n    tag_56:\n      dup1\n      0x51eb05a6\n      eq\n      tag_15\n      jumpi\n      dup1\n      0x5312ea8e\n      eq\n      tag_16\n      jumpi\n      dup1\n      0x54324b58\n      eq\n      tag_17\n      jumpi\n      dup1\n      0x61e0c468\n      eq\n      tag_18\n      jumpi\n      dup1\n      0x630b5ba1\n      eq\n      tag_19\n      jumpi\n      dup1\n      0x64ed743b\n      eq\n      tag_20\n      jumpi\n      jump(tag_2)\n    tag_55:\n      dup1\n      0x3b0f0f2f\n      gt\n      tag_57\n      jumpi\n      dup1\n      0x3b0f0f2f\n      eq\n      tag_9\n      jumpi\n      dup1\n      0x3f7b06d8\n      eq\n      tag_10\n      jumpi\n      dup1\n      0x41275358\n      eq\n      tag_11\n      jumpi\n      dup1\n      0x441a3e70\n      eq\n      tag_12\n      jumpi\n      dup1\n      0x47e3cda5\n      eq\n      tag_13\n      jumpi\n      dup1\n      0x4a3b68cc\n      eq\n      tag_14\n      jumpi\n      jump(tag_2)\n    tag_57:\n      dup1\n      0x081e3eda\n      eq\n      tag_3\n      jumpi\n      dup1\n      0x1526fe27\n      eq\n      tag_4\n      jumpi\n      dup1\n      0x17caf6f1\n      eq\n      tag_5\n      jumpi\n      dup1\n      0x190f39f0\n      eq\n      tag_6\n      jumpi\n      dup1\n      0x1eb704b0\n      eq\n      tag_7\n      jumpi\n      dup1\n      0x3a22df78\n      eq\n      tag_8\n      jumpi\n    tag_2:\n      0x00\n      dup1\n      revert\n        /* \"TEXOToken.sol\":38740:38833  function poolLength() external view returns (uint256) {... */\n    tag_3:\n      tag_58\n      tag_59\n      jump\t// in\n    tag_58:\n      mload(0x40)\n      dup1\n      dup3\n      dup2\n      mstore\n      0x20\n      add\n      swap2\n      pop\n      pop\n      mload(0x40)\n      dup1\n      swap2\n      sub\n      swap1\n      return\n        /* \"TEXOToken.sol\":35837:35863  PoolInfo[] public poolInfo */\n    tag_4:\n      tag_60\n      0x04\n      dup1\n      calldatasize\n      sub\n      0x20\n      dup2\n      lt\n      iszero\n      tag_61\n      jumpi\n      0x00\n      dup1\n      revert\n    tag_61:\n      dup2\n      add\n      swap1\n      dup1\n      dup1\n      calldataload\n      swap1\n      0x20\n      add\n      swap1\n      swap3\n      swap2\n      swap1\n      pop\n      pop\n      pop\n      tag_62\n      jump\t// in\n    tag_60:\n      mload(0x40)\n      dup1\n      dup8\n      0xffffffffffffffffffffffffffffffffffffffff\n      and\n      dup2\n      mstore\n      0x20\n      add\n      dup7\n      dup2\n      mstore\n      0x20\n      add\n      dup6\n      dup2\n      mstore\n      0x20\n      add\n      dup5\n      dup2\n      mstore\n      0x20\n      add\n      dup4\n      dup2\n      mstore\n      0x20\n      add\n      dup3\n      0xffff\n      and\n      dup2\n      mstore\n      0x20\n      add\n      swap7\n      pop\n      pop\n      pop\n      pop\n      pop\n      pop\n      pop\n      mload(0x40)\n      dup1\n      swap2\n      sub\n      swap1\n      return\n        /* \"TEXOToken.sol\":36074:36108  uint256 public totalAllocPoint = 0 */\n    tag_5:\n      tag_63\n      tag_64\n      jump\t// in\n    tag_63:\n      mload(0x40)\n      dup1\n      dup3\n      dup2\n      mstore\n      0x20\n      add\n      swap2\n      pop\n      pop\n      mload(0x40)\n      dup1\n      swap2\n      sub\n      swap1\n      return\n        /* \"TEXOToken.sol\":39231:39449  function getPoolIdForLpToken(IBEP20 _lpToken) external view returns (uint256) {... */\n    tag_6:\n      tag_65\n      0x04\n      dup1\n      calldatasize\n      sub\n      0x20\n      dup2\n      lt\n      iszero\n      tag_66\n      jumpi\n      0x00\n      dup1\n      revert\n    tag_66:\n      dup2\n      add\n      swap1\n      dup1\n      dup1\n      calldataload\n      0xffffffffffffffffffffffffffffffffffffffff\n      and\n      swap1\n      0x20\n      add\n      swap1\n      swap3\n      swap2\n      swap1\n      pop\n      pop\n      pop\n      tag_67\n      jump\t// in\n    tag_65:\n      mload(0x40)\n      dup1\n      dup3\n      dup2\n      mstore\n      0x20\n      add\n      swap2\n      pop\n      pop\n      mload(0x40)\n      dup1\n      swap2\n      sub\n      swap1\n      return\n        /* \"TEXOToken.sol\":38839:39031  function setBlockToStartReducingEmissionRate(uint256 _blockToStartReducingEmissionRate) external onlyOwner {... */\n    tag_7:\n      tag_68\n      0x04\n      dup1\n      calldatasize\n      sub\n      0x20\n      dup2\n      lt\n      iszero\n      tag_69\n      jumpi\n      0x00\n      dup1\n      revert\n    tag_69:\n      dup2\n      add\n      swap1\n      dup1\n      dup1\n      calldataload\n      swap1\n      0x20\n      add\n      swap1\n      swap3\n      swap2\n      swap1\n      pop\n      pop\n      pop\n      tag_70\n      jump\t// in\n    tag_68:\n      stop\n        /* \"TEXOToken.sol\":36339:36388  uint16 public constant MAXIMUM_REFERRAL_BP = 2000 */\n    tag_8:\n      tag_71\n      tag_72\n      jump\t// in\n    tag_71:\n      mload(0x40)\n      dup1\n      dup3\n      0xffff\n      and\n      dup2\n      mstore\n      0x20\n      add\n      swap2\n      pop\n      pop\n      mload(0x40)\n      dup1\n      swap2\n      sub\n      swap1\n      return\n        /* \"TEXOToken.sol\":53412:53518  function getReferral(address _user) public view returns (address) {... */\n    tag_9:\n      tag_73\n      0x04\n      dup1\n      calldatasize\n      sub\n      0x20\n      dup2\n      lt\n      iszero\n      tag_74\n      jumpi\n      0x00\n      dup1\n      revert\n    tag_74:\n      dup2\n      add\n      swap1\n      dup1\n      dup1\n      calldataload\n      0xffffffffffffffffffffffffffffffffffffffff\n      and\n      swap1\n      0x20\n      add\n      swap1\n      swap3\n      swap2\n      swap1\n      pop\n      pop\n      pop\n      tag_75\n      jump\t// in\n    tag_73:\n      mload(0x40)\n      dup1\n      dup3\n      0xffffffffffffffffffffffffffffffffffffffff\n      and\n      dup2\n      mstore\n      0x20\n      add\n      swap2\n      pop\n      pop\n      mload(0x40)\n      dup1\n      swap2\n      sub\n      swap1\n      return\n        /* \"TEXOToken.sol\":36507:36555  mapping(address => uint256) public referredCount */\n    tag_10:\n      tag_76\n      0x04\n      dup1\n      calldatasize\n      sub\n      0x20\n      dup2\n      lt\n      iszero\n      tag_77\n      jumpi\n      0x00\n      dup1\n      revert\n    tag_77:\n      dup2\n      add\n      swap1\n      dup1\n      dup1\n      calldataload\n      0xffffffffffffffffffffffffffffffffffffffff\n      and\n      swap1\n      0x20\n      add\n      swap1\n      swap3\n      swap2\n      swap1\n      pop\n      pop\n      pop\n      tag_78\n      jump\t// in\n    tag_76:\n      mload(0x40)\n      dup1\n      dup3\n      dup2\n      mstore\n      0x20\n      add\n      swap2\n      pop\n      pop\n      mload(0x40)\n      dup1\n      swap2\n      sub\n      swap1\n      return\n        /* \"TEXOToken.sol\":35559:35584  address public feeAddress */\n    tag_11:\n      tag_79\n      tag_80\n      jump\t// in\n    tag_79:\n      mload(0x40)\n      dup1\n      dup3\n      0xffffffffffffffffffffffffffffffffffffffff\n      and\n      dup2\n      mstore\n      0x20\n      add\n      swap2\n      pop\n      pop\n      mload(0x40)\n      dup1\n      swap2\n      sub\n      swap1\n      return\n        /* \"TEXOToken.sol\":48399:49355  function withdraw(uint256 _pid, uint256 _amount) public nonReentrant {... */\n    tag_12:\n      tag_81\n      0x04\n      dup1\n      calldatasize\n      sub\n      0x40\n      dup2\n      lt\n      iszero\n      tag_82\n      jumpi\n      0x00\n      dup1\n      revert\n    tag_82:\n      dup2\n      add\n      swap1\n      dup1\n      dup1\n      calldataload\n      swap1\n      0x20\n      add\n      swap1\n      swap3\n      swap2\n      swap1\n      dup1\n      calldataload\n      swap1\n      0x20\n      add\n      swap1\n      swap3\n      swap2\n      swap1\n      pop\n      pop\n      pop\n      tag_83\n      jump\t// in\n    tag_81:\n      stop\n        /* \"TEXOToken.sol\":37340:37385  bool public isAllowReduceEmissionRate = false */\n    tag_13:\n      tag_84\n      tag_85\n      jump\t// in\n    tag_84:\n      mload(0x40)\n      dup1\n      dup3\n      iszero\n      iszero\n      dup2\n      mstore\n      0x20\n      add\n      swap2\n      pop\n      pop\n      mload(0x40)\n      dup1\n      swap2\n      sub\n      swap1\n      return\n        /* \"TEXOToken.sol\":36418:36462  mapping(address => address) public referrers */\n    tag_14:\n      tag_86\n      0x04\n      dup1\n      calldatasize\n      sub\n      0x20\n      dup2\n      lt\n      iszero\n      tag_87\n      jumpi\n      0x00\n      dup1\n      revert\n    tag_87:\n      dup2\n      add\n      swap1\n      dup1\n      dup1\n      calldataload\n      0xffffffffffffffffffffffffffffffffffffffff\n      and\n      swap1\n      0x20\n      add\n      swap1\n      swap3\n      swap2\n      swap1\n      pop\n      pop\n      pop\n      tag_88\n      jump\t// in\n    tag_86:\n      mload(0x40)\n      dup1\n      dup3\n      0xffffffffffffffffffffffffffffffffffffffff\n      and\n      dup2\n      mstore\n      0x20\n      add\n      swap2\n      pop\n      pop\n      mload(0x40)\n      dup1\n      swap2\n      sub\n      swap1\n      return\n        /* \"TEXOToken.sol\":43194:44519  function updatePool(uint256 _pid) public {... */\n    tag_15:\n      tag_89\n      0x04\n      dup1\n      calldatasize\n      sub\n      0x20\n      dup2\n      lt\n      iszero\n      tag_90\n      jumpi\n      0x00\n      dup1\n      revert\n    tag_90:\n      dup2\n      add\n      swap1\n      dup1\n      dup1\n      calldataload\n      swap1\n      0x20\n      add\n      swap1\n      swap3\n      swap2\n      swap1\n      pop\n      pop\n      pop\n      tag_91\n      jump\t// in\n    tag_89:\n      stop\n        /* \"TEXOToken.sol\":49423:49825  function emergencyWithdraw(uint256 _pid) public nonReentrant {... */\n    tag_16:\n      tag_92\n      0x04\n      dup1\n      calldatasize\n      sub\n      0x20\n      dup2\n      lt\n      iszero\n      tag_93\n      jumpi\n      0x00\n      dup1\n      revert\n    tag_93:\n      dup2\n      add\n      swap1\n      dup1\n      dup1\n      calldataload\n      swap1\n      0x20\n      add\n      swap1\n      swap3\n      swap2\n      swap1\n      pop\n      pop\n      pop\n      tag_94\n      jump\t// in\n    tag_92:\n      stop\n        /* \"TEXOToken.sol\":35644:35691  uint256 public blockToStartReducingEmissionRate */\n    tag_17:\n      tag_95\n      tag_96\n      jump\t// in\n    tag_95:\n      mload(0x40)\n      dup1\n      dup3\n      dup2\n      mstore\n      0x20\n      add\n      swap2\n      pop\n      pop\n      mload(0x40)\n      dup1\n      swap2\n      sub\n      swap1\n      return\n        /* \"TEXOToken.sol\":36930:36988  uint256 public constant MINIMUM_EMISSION_RATE = 100 finney */\n    tag_18:\n      tag_97\n      tag_98\n      jump\t// in\n    tag_97:\n      mload(0x40)\n      dup1\n      dup3\n      dup2\n      mstore\n      0x20\n      add\n      swap2\n      pop\n      pop\n      mload(0x40)\n      dup1\n      swap2\n      sub\n      swap1\n      return\n        /* \"TEXOToken.sol\":42946:43121  function massUpdatePools() public {... */\n    tag_19:\n      tag_99\n      tag_100\n      jump\t// in\n    tag_99:\n      stop\n        /* \"TEXOToken.sol\":54183:54630  function updateReferralBonusBp(uint256 _newRefBonusBp) public onlyOwner {... */\n    tag_20:\n      tag_101\n      0x04\n      dup1\n      calldatasize\n      sub\n      0x20\n      dup2\n      lt\n      iszero\n      tag_102\n      jumpi\n      0x00\n      dup1\n      revert\n    tag_102:\n      dup2\n      add\n      swap1\n      dup1\n      dup1\n      calldataload\n      swap1\n      0x20\n      add\n      swap1\n      swap3\n      swap2\n      swap1\n      pop\n      pop\n      pop\n      tag_103\n      jump\t// in\n    tag_101:\n      stop\n        /* \"TEXOToken.sol\":35499:35526  uint256 public tEXOPerBlock */\n    tag_21:\n      tag_104\n      tag_105\n      jump\t// in\n    tag_104:\n      mload(0x40)\n      dup1\n      dup3\n      dup2\n      mstore\n      0x20\n      add\n      swap2\n      pop\n      pop\n      mload(0x40)\n      dup1\n      swap2\n      sub\n      swap1\n      return\n        /* \"TEXOToken.sol\":36173:36204  uint256 public refBonusBP = 100 */\n    tag_22:\n      tag_106\n      tag_107\n      jump\t// in\n    tag_106:\n      mload(0x40)\n      dup1\n      dup3\n      dup2\n      mstore\n      0x20\n      add\n      swap2\n      pop\n      pop\n      mload(0x40)\n      dup1\n      swap2\n      sub\n      swap1\n      return\n        /* \"TEXOToken.sol\":37290:37333  uint256 public lastReductionPeriodIndex = 0 */\n    tag_23:\n      tag_108\n      tag_109\n      jump\t// in\n    tag_108:\n      mload(0x40)\n      dup1\n      dup3\n      dup2\n      mstore\n      0x20\n      add\n      swap2\n      pop\n      pop\n      mload(0x40)\n      dup1\n      swap2\n      sub\n      swap1\n      return\n        /* \"TEXOToken.sol\":12072:12209  function renounceOwnership() public onlyOwner {... */\n    tag_24:\n      tag_110\n      tag_111\n      jump\t// in\n    tag_110:\n      stop\n        /* \"TEXOToken.sol\":52568:52691  function setFlagAllowReduceEmissionRate(bool isAllow) public onlyOwner {... */\n    tag_25:\n      tag_112\n      0x04\n      dup1\n      calldatasize\n      sub\n      0x20\n      dup2\n      lt\n      iszero\n      tag_113\n      jumpi\n      0x00\n      dup1\n      revert\n    tag_113:\n      dup2\n      add\n      swap1\n      dup1\n      dup1\n      calldataload\n      iszero\n      iszero\n      swap1\n      0x20\n      add\n      swap1\n      swap3\n      swap2\n      swap1\n      pop\n      pop\n      pop\n      tag_114\n      jump\t// in\n    tag_112:\n      stop\n        /* \"TEXOToken.sol\":50722:51018  function setFeeAddress(address _feeAddress) public {... */\n    tag_26:\n      tag_115\n      0x04\n      dup1\n      calldatasize\n      sub\n      0x20\n      dup2\n      lt\n      iszero\n      tag_116\n      jumpi\n      0x00\n      dup1\n      revert\n    tag_116:\n      dup2\n      add\n      swap1\n      dup1\n      dup1\n      calldataload\n      0xffffffffffffffffffffffffffffffffffffffff\n      and\n      swap1\n      0x20\n      add\n      swap1\n      swap3\n      swap2\n      swap1\n      pop\n      pop\n      pop\n      tag_117\n      jump\t// in\n    tag_115:\n      stop\n        /* \"TEXOToken.sol\":11449:11526  function owner() public view returns (address) {... */\n    tag_27:\n      tag_118\n      tag_119\n      jump\t// in\n    tag_118:\n      mload(0x40)\n      dup1\n      dup3\n      0xffffffffffffffffffffffffffffffffffffffff\n      and\n      dup2\n      mstore\n      0x20\n      add\n      swap2\n      pop\n      pop\n      mload(0x40)\n      dup1\n      swap2\n      sub\n      swap1\n      return\n        /* \"TEXOToken.sol\":41708:41827  function getMultiplier(uint256 _from, uint256 _to) public pure returns (uint256) {... */\n    tag_28:\n      tag_120\n      0x04\n      dup1\n      calldatasize\n      sub\n      0x40\n      dup2\n      lt\n      iszero\n      tag_121\n      jumpi\n      0x00\n      dup1\n      revert\n    tag_121:\n      dup2\n      add\n      swap1\n      dup1\n      dup1\n      calldataload\n      swap1\n      0x20\n      add\n      swap1\n      swap3\n      swap2\n      swap1\n      dup1\n      calldataload\n      swap1\n      0x20\n      add\n      swap1\n      swap3\n      swap2\n      swap1\n      pop\n      pop\n      pop\n      tag_122\n      jump\t// in\n    tag_120:\n      mload(0x40)\n      dup1\n      dup3\n      dup2\n      mstore\n      0x20\n      add\n      swap2\n      pop\n      pop\n      mload(0x40)\n      dup1\n      swap2\n      sub\n      swap1\n      return\n        /* \"TEXOToken.sol\":46593:48350  function deposit(uint256 _pid, uint256 _amount, address _referrer) public nonReentrant {... */\n    tag_29:\n      tag_123\n      0x04\n      dup1\n      calldatasize\n      sub\n      0x60\n      dup2\n      lt\n      iszero\n      tag_124\n      jumpi\n      0x00\n      dup1\n      revert\n    tag_124:\n      dup2\n      add\n      swap1\n      dup1\n      dup1\n      calldataload\n      swap1\n      0x20\n      add\n      swap1\n      swap3\n      swap2\n      swap1\n      dup1\n      calldataload\n      swap1\n      0x20\n      add\n      swap1\n      swap3\n      swap2\n      swap1\n      dup1\n      calldataload\n      0xffffffffffffffffffffffffffffffffffffffff\n      and\n      swap1\n      0x20\n      add\n      swap1\n      swap3\n      swap2\n      swap1\n      pop\n      pop\n      pop\n      tag_125\n      jump\t// in\n    tag_123:\n      stop\n        /* \"TEXOToken.sol\":36815:36873  uint256 public constant INITIAL_EMISSION_RATE = 500 finney */\n    tag_30:\n      tag_126\n      tag_127\n      jump\t// in\n    tag_126:\n      mload(0x40)\n      dup1\n      dup3\n      dup2\n      mstore\n      0x20\n      add\n      swap2\n      pop\n      pop\n      mload(0x40)\n      dup1\n      swap2\n      sub\n      swap1\n      return\n        /* \"TEXOToken.sol\":35917:35981  mapping(uint256 => mapping(address => UserInfo)) public userInfo */\n    tag_31:\n      tag_128\n      0x04\n      dup1\n      calldatasize\n      sub\n      0x40\n      dup2\n      lt\n      iszero\n      tag_129\n      jumpi\n      0x00\n      dup1\n      revert\n    tag_129:\n      dup2\n      add\n      swap1\n      dup1\n      dup1\n      calldataload\n      swap1\n      0x20\n      add\n      swap1\n      swap3\n      swap2\n      swap1\n      dup1\n      calldataload\n      0xffffffffffffffffffffffffffffffffffffffff\n      and\n      swap1\n      0x20\n      add\n      swap1\n      swap3\n      swap2\n      swap1\n      pop\n      pop\n      pop\n      tag_130\n      jump\t// in\n    tag_128:\n      mload(0x40)\n      dup1\n      dup5\n      dup2\n      mstore\n      0x20\n      add\n      dup4\n      dup2\n      mstore\n      0x20\n      add\n      dup3\n      iszero\n      iszero\n      dup2\n      mstore\n      0x20\n      add\n      swap4\n      pop\n      pop\n      pop\n      pop\n      mload(0x40)\n      dup1\n      swap2\n      sub\n      swap1\n      return\n        /* \"TEXOToken.sol\":36239:36291  uint16 public constant MAXIMUM_DEPOSIT_FEE_BP = 1000 */\n    tag_32:\n      tag_131\n      tag_132\n      jump\t// in\n    tag_131:\n      mload(0x40)\n      dup1\n      dup3\n      0xffff\n      and\n      dup2\n      mstore\n      0x20\n      add\n      swap2\n      pop\n      pop\n      mload(0x40)\n      dup1\n      swap2\n      sub\n      swap1\n      return\n        /* \"TEXOToken.sol\":36706:36758  mapping(IBEP20 => uint256) public poolIdForLpAddress */\n    tag_33:\n      tag_133\n      0x04\n      dup1\n      calldatasize\n      sub\n      0x20\n      dup2\n      lt\n      iszero\n      tag_134\n      jumpi\n      0x00\n      dup1\n      revert\n    tag_134:\n      dup2\n      add\n      swap1\n      dup1\n      dup1\n      calldataload\n      0xffffffffffffffffffffffffffffffffffffffff\n      and\n      swap1\n      0x20\n      add\n      swap1\n      swap3\n      swap2\n      swap1\n      pop\n      pop\n      pop\n      tag_135\n      jump\t// in\n    tag_133:\n      mload(0x40)\n      dup1\n      dup3\n      dup2\n      mstore\n      0x20\n      add\n      swap2\n      pop\n      pop\n      mload(0x40)\n      dup1\n      swap2\n      sub\n      swap1\n      return\n        /* \"TEXOToken.sol\":35698:35747  uint256 public globalBlockToUnlockClaimingRewards */\n    tag_34:\n      tag_136\n      tag_137\n      jump\t// in\n    tag_136:\n      mload(0x40)\n      dup1\n      dup3\n      dup2\n      mstore\n      0x20\n      add\n      swap2\n      pop\n      pop\n      mload(0x40)\n      dup1\n      swap2\n      sub\n      swap1\n      return\n        /* \"TEXOToken.sol\":52697:52978  function setEmissionRate(uint256 newEmissionRate) public onlyOwner {... */\n    tag_35:\n      tag_138\n      0x04\n      dup1\n      calldatasize\n      sub\n      0x20\n      dup2\n      lt\n      iszero\n      tag_139\n      jumpi\n      0x00\n      dup1\n      revert\n    tag_139:\n      dup2\n      add\n      swap1\n      dup1\n      dup1\n      calldataload\n      swap1\n      0x20\n      add\n      swap1\n      swap3\n      swap2\n      swap1\n      pop\n      pop\n      pop\n      tag_140\n      jump\t// in\n    tag_138:\n      stop\n        /* \"TEXOToken.sol\":35386:35407  TEXOToken public tEXO */\n    tag_36:\n      tag_141\n      tag_142\n      jump\t// in\n    tag_141:\n      mload(0x40)\n      dup1\n      dup3\n      0xffffffffffffffffffffffffffffffffffffffff\n      and\n      dup2\n      mstore\n      0x20\n      add\n      swap2\n      pop\n      pop\n      mload(0x40)\n      dup1\n      swap2\n      sub\n      swap1\n      return\n        /* \"TEXOToken.sol\":39037:39225  function setGlobalBlockToUnlockClaimingRewards(uint256 _blockToUnlockClaimingRewards) external onlyOwner {... */\n    tag_37:\n      tag_143\n      0x04\n      dup1\n      calldatasize\n      sub\n      0x20\n      dup2\n      lt\n      iszero\n      tag_144\n      jumpi\n      0x00\n      dup1\n      revert\n    tag_144:\n      dup2\n      add\n      swap1\n      dup1\n      dup1\n      calldataload\n      swap1\n      0x20\n      add\n      swap1\n      swap3\n      swap2\n      swap1\n      pop\n      pop\n      pop\n      tag_145\n      jump\t// in\n    tag_143:\n      stop\n        /* \"TEXOToken.sol\":44525:44707  function canWithdrawReward(uint256 _pid) public view returns (bool) {... */\n    tag_38:\n      tag_146\n      0x04\n      dup1\n      calldatasize\n      sub\n      0x20\n      dup2\n      lt\n      iszero\n      tag_147\n      jumpi\n      0x00\n      dup1\n      revert\n    tag_147:\n      dup2\n      add\n      swap1\n      dup1\n      dup1\n      calldataload\n      swap1\n      0x20\n      add\n      swap1\n      swap3\n      swap2\n      swap1\n      pop\n      pop\n      pop\n      tag_148\n      jump\t// in\n    tag_146:\n      mload(0x40)\n      dup1\n      dup3\n      iszero\n      iszero\n      dup2\n      mstore\n      0x20\n      add\n      swap2\n      pop\n      pop\n      mload(0x40)\n      dup1\n      swap2\n      sub\n      swap1\n      return\n        /* \"TEXOToken.sol\":37184:37249  uint256 public constant EMISSION_REDUCTION_RATE_PER_PERIOD = 1500 */\n    tag_39:\n      tag_149\n      tag_150\n      jump\t// in\n    tag_149:\n      mload(0x40)\n      dup1\n      dup3\n      dup2\n      mstore\n      0x20\n      add\n      swap2\n      pop\n      pop\n      mload(0x40)\n      dup1\n      swap2\n      sub\n      swap1\n      return\n        /* \"TEXOToken.sol\":40866:41635  function set(... */\n    tag_40:\n      tag_151\n      0x04\n      dup1\n      calldatasize\n      sub\n      0xa0\n      dup2\n      lt\n      iszero\n      tag_152\n      jumpi\n      0x00\n      dup1\n      revert\n    tag_152:\n      dup2\n      add\n      swap1\n      dup1\n      dup1\n      calldataload\n      swap1\n      0x20\n      add\n      swap1\n      swap3\n      swap2\n      swap1\n      dup1\n      calldataload\n      swap1\n      0x20\n      add\n      swap1\n      swap3\n      swap2\n      swap1\n      dup1\n      calldataload\n      0xffff\n      and\n      swap1\n      0x20\n      add\n      swap1\n      swap3\n      swap2\n      swap1\n      dup1\n      calldataload\n      iszero\n      iszero\n      swap1\n      0x20\n      add\n      swap1\n      swap3\n      swap2\n      swap1\n      dup1\n      calldataload\n      swap1\n      0x20\n      add\n      swap1\n      swap3\n      swap2\n      swap1\n      pop\n      pop\n      pop\n      tag_153\n      jump\t// in\n    tag_151:\n      stop\n        /* \"TEXOToken.sol\":36626:36670  mapping(IBEP20 => bool) public poolExistence */\n    tag_41:\n      tag_154\n      0x04\n      dup1\n      calldatasize\n      sub\n      0x20\n      dup2\n      lt\n      iszero\n      tag_155\n      jumpi\n      0x00\n      dup1\n      revert\n    tag_155:\n      dup2\n      add\n      swap1\n      dup1\n      dup1\n      calldataload\n      0xffffffffffffffffffffffffffffffffffffffff\n      and\n      swap1\n      0x20\n      add\n      swap1\n      swap3\n      swap2\n      swap1\n      pop\n      pop\n      pop\n      tag_156\n      jump\t// in\n    tag_154:\n      mload(0x40)\n      dup1\n      dup3\n      iszero\n      iszero\n      dup2\n      mstore\n      0x20\n      add\n      swap2\n      pop\n      pop\n      mload(0x40)\n      dup1\n      swap2\n      sub\n      swap1\n      return\n        /* \"TEXOToken.sol\":50408:50661  function setDevAddress(address _devaddr) public {... */\n    tag_42:\n      tag_157\n      0x04\n      dup1\n      calldatasize\n      sub\n      0x20\n      dup2\n      lt\n      iszero\n      tag_158\n      jumpi\n      0x00\n      dup1\n      revert\n    tag_158:\n      dup2\n      add\n      swap1\n      dup1\n      dup1\n      calldataload\n      0xffffffffffffffffffffffffffffffffffffffff\n      and\n      swap1\n      0x20\n      add\n      swap1\n      swap3\n      swap2\n      swap1\n      pop\n      pop\n      pop\n      tag_159\n      jump\t// in\n    tag_157:\n      stop\n        /* \"TEXOToken.sol\":37050:37114  uint256 public constant EMISSION_REDUCTION_PERIOD_BLOCKS = 28800 */\n    tag_43:\n      tag_160\n      tag_161\n      jump\t// in\n    tag_160:\n      mload(0x40)\n      dup1\n      dup3\n      dup2\n      mstore\n      0x20\n      add\n      swap2\n      pop\n      pop\n      mload(0x40)\n      dup1\n      swap2\n      sub\n      swap1\n      return\n        /* \"TEXOToken.sol\":35433:35455  address public devAddr */\n    tag_44:\n      tag_162\n      tag_163\n      jump\t// in\n    tag_162:\n      mload(0x40)\n      dup1\n      dup3\n      0xffffffffffffffffffffffffffffffffffffffff\n      and\n      dup2\n      mstore\n      0x20\n      add\n      swap2\n      pop\n      pop\n      mload(0x40)\n      dup1\n      swap2\n      sub\n      swap1\n      return\n        /* \"TEXOToken.sol\":41888:42866  function pendingTEXO(uint256 _pid, address _user) external view returns (uint256) {... */\n    tag_45:\n      tag_164\n      0x04\n      dup1\n      calldatasize\n      sub\n      0x40\n      dup2\n      lt\n      iszero\n      tag_165\n      jumpi\n      0x00\n      dup1\n      revert\n    tag_165:\n      dup2\n      add\n      swap1\n      dup1\n      dup1\n      calldataload\n      swap1\n      0x20\n      add\n      swap1\n      swap3\n      swap2\n      swap1\n      dup1\n      calldataload\n      0xffffffffffffffffffffffffffffffffffffffff\n      and\n      swap1\n      0x20\n      add\n      swap1\n      swap3\n      swap2\n      swap1\n      pop\n      pop\n      pop\n      tag_166\n      jump\t// in\n    tag_164:\n      mload(0x40)\n      dup1\n      dup3\n      dup2\n      mstore\n      0x20\n      add\n      swap2\n      pop\n      pop\n      mload(0x40)\n      dup1\n      swap2\n      sub\n      swap1\n      return\n        /* \"TEXOToken.sol\":44974:46513  function deposit(uint256 _pid, uint256 _amount) public nonReentrant {... */\n    tag_46:\n      tag_167\n      0x04\n      dup1\n      calldatasize\n      sub\n      0x40\n      dup2\n      lt\n      iszero\n      tag_168\n      jumpi\n      0x00\n      dup1\n      revert\n    tag_168:\n      dup2\n      add\n      swap1\n      dup1\n      dup1\n      calldataload\n      swap1\n      0x20\n      add\n      swap1\n      swap3\n      swap2\n      swap1\n      dup1\n      calldataload\n      swap1\n      0x20\n      add\n      swap1\n      swap3\n      swap2\n      swap1\n      pop\n      pop\n      pop\n      tag_169\n      jump\t// in\n    tag_167:\n      stop\n        /* \"TEXOToken.sol\":51163:52562  function reduceEmissionRateWithDefaultRate() public {... */\n    tag_47:\n      tag_170\n      tag_171\n      jump\t// in\n    tag_170:\n      stop\n        /* \"TEXOToken.sol\":44713:44908  function canGenerateTexoReward(uint256 _pid) public view returns (bool) {... */\n    tag_48:\n      tag_172\n      0x04\n      dup1\n      calldatasize\n      sub\n      0x20\n      dup2\n      lt\n      iszero\n      tag_173\n      jumpi\n      0x00\n      dup1\n      revert\n    tag_173:\n      dup2\n      add\n      swap1\n      dup1\n      dup1\n      calldataload\n      swap1\n      0x20\n      add\n      swap1\n      swap3\n      swap2\n      swap1\n      pop\n      pop\n      pop\n      tag_174\n      jump\t// in\n    tag_172:\n      mload(0x40)\n      dup1\n      dup3\n      iszero\n      iszero\n      dup2\n      mstore\n      0x20\n      add\n      swap2\n      pop\n      pop\n      mload(0x40)\n      dup1\n      swap2\n      sub\n      swap1\n      return\n        /* \"TEXOToken.sol\":12358:12465  function transferOwnership(address newOwner) public onlyOwner {... */\n    tag_49:\n      tag_175\n      0x04\n      dup1\n      calldatasize\n      sub\n      0x20\n      dup2\n      lt\n      iszero\n      tag_176\n      jumpi\n      0x00\n      dup1\n      revert\n    tag_176:\n      dup2\n      add\n      swap1\n      dup1\n      dup1\n      calldataload\n      0xffffffffffffffffffffffffffffffffffffffff\n      and\n      swap1\n      0x20\n      add\n      swap1\n      swap3\n      swap2\n      swap1\n      pop\n      pop\n      pop\n      tag_177\n      jump\t// in\n    tag_175:\n      stop\n        /* \"TEXOToken.sol\":39706:40757  function add(... */\n    tag_50:\n      tag_178\n      0x04\n      dup1\n      calldatasize\n      sub\n      0xa0\n      dup2\n      lt\n      iszero\n      tag_179\n      jumpi\n      0x00\n      dup1\n      revert\n    tag_179:\n      dup2\n      add\n      swap1\n      dup1\n      dup1\n      calldataload\n      swap1\n      0x20\n      add\n      swap1\n      swap3\n      swap2\n      swap1\n      dup1\n      calldataload\n      0xffffffffffffffffffffffffffffffffffffffff\n      and\n      swap1\n      0x20\n      add\n      swap1\n      swap3\n      swap2\n      swap1\n      dup1\n      calldataload\n      0xffff\n      and\n      swap1\n      0x20\n      add\n      swap1\n      swap3\n      swap2\n      swap1\n      dup1\n      calldataload\n      iszero\n      iszero\n      swap1\n      0x20\n      add\n      swap1\n      swap3\n      swap2\n      swap1\n      dup1\n      calldataload\n      swap1\n      0x20\n      add\n      swap1\n      swap3\n      swap2\n      swap1\n      pop\n      pop\n      pop\n      tag_180\n      jump\t// in\n    tag_178:\n      stop\n        /* \"TEXOToken.sol\":38740:38833  function poolLength() external view returns (uint256) {... */\n    tag_59:\n        /* \"TEXOToken.sol\":38785:38792  uint256 */\n      0x00\n        /* \"TEXOToken.sol\":38811:38819  poolInfo */\n      0x09\n        /* \"TEXOToken.sol\":38811:38826  poolInfo.length */\n      dup1\n      sload\n      swap1\n      pop\n        /* \"TEXOToken.sol\":38804:38826  return poolInfo.length */\n      swap1\n      pop\n        /* \"TEXOToken.sol\":38740:38833  function poolLength() external view returns (uint256) {... */\n      swap1\n      jump\t// out\n        /* \"TEXOToken.sol\":35837:35863  PoolInfo[] public poolInfo */\n    tag_62:\n      0x09\n      dup2\n      dup2\n      sload\n      dup2\n      lt\n      tag_182\n      jumpi\n      invalid\n    tag_182:\n      swap1\n      0x00\n      mstore\n      keccak256(0x00, 0x20)\n      swap1\n      0x06\n      mul\n      add\n      0x00\n      swap2\n      pop\n      swap1\n      pop\n      dup1\n      0x00\n      add\n      0x00\n      swap1\n      sload\n      swap1\n      0x0100\n      exp\n      swap1\n      div\n      0xffffffffffffffffffffffffffffffffffffffff\n      and\n      swap1\n      dup1\n      0x01\n      add\n      sload\n      swap1\n      dup1\n      0x02\n      add\n      sload\n      swap1\n      dup1\n      0x03\n      add\n      sload\n      swap1\n      dup1\n      0x04\n      add\n      sload\n      swap1\n      dup1\n      0x05\n      add\n      0x00\n      swap1\n      sload\n      swap1\n      0x0100\n      exp\n      swap1\n      div\n      0xffff\n      and\n      swap1\n      pop\n      dup7\n      jump\t// out\n        /* \"TEXOToken.sol\":36074:36108  uint256 public totalAllocPoint = 0 */\n    tag_64:\n      sload(0x0b)\n      dup2\n      jump\t// out\n        /* \"TEXOToken.sol\":39231:39449  function getPoolIdForLpToken(IBEP20 _lpToken) external view returns (uint256) {... */\n    tag_67:\n        /* \"TEXOToken.sol\":39300:39307  uint256 */\n      0x00\n        /* \"TEXOToken.sol\":39354:39359  false */\n      dup1\n        /* \"TEXOToken.sol\":39327:39359  poolExistence[_lpToken] != false */\n      iszero\n      iszero\n        /* \"TEXOToken.sol\":39327:39340  poolExistence */\n      0x0f\n        /* \"TEXOToken.sol\":39327:39350  poolExistence[_lpToken] */\n      0x00\n        /* \"TEXOToken.sol\":39341:39349  _lpToken */\n      dup5\n        /* \"TEXOToken.sol\":39327:39350  poolExistence[_lpToken] */\n      0xffffffffffffffffffffffffffffffffffffffff\n      and\n      0xffffffffffffffffffffffffffffffffffffffff\n      and\n      dup2\n      mstore\n      0x20\n      add\n      swap1\n      dup2\n      mstore\n      0x20\n      add\n      0x00\n      keccak256\n      0x00\n      swap1\n      sload\n      swap1\n      0x0100\n      exp\n      swap1\n      div\n      0xff\n      and\n        /* \"TEXOToken.sol\":39327:39359  poolExistence[_lpToken] != false */\n      iszero\n      iszero\n      eq\n      iszero\n        /* \"TEXOToken.sol\":39319:39397  require(poolExistence[_lpToken] != false, \"getPoolIdForLpToken: do not exist\") */\n      tag_185\n      jumpi\n      mload(0x40)\n      0x08c379a000000000000000000000000000000000000000000000000000000000\n      dup2\n      mstore\n      0x04\n      add\n      dup1\n      dup1\n      0x20\n      add\n      dup3\n      dup2\n      sub\n      dup3\n      mstore\n      0x21\n      dup2\n      mstore\n      0x20\n      add\n      dup1\n      data_bf35de78f3e15a98c58afdc189c393a6a76029783bd8ecfd3a8b87b4a628fd85\n      0x21\n      swap2\n      codecopy\n      0x40\n      add\n      swap2\n      pop\n      pop\n      mload(0x40)\n      dup1\n      swap2\n      sub\n      swap1\n      revert\n    tag_185:\n        /* \"TEXOToken.sol\":39414:39432  poolIdForLpAddress */\n      0x10\n        /* \"TEXOToken.sol\":39414:39442  poolIdForLpAddress[_lpToken] */\n      0x00\n        /* \"TEXOToken.sol\":39433:39441  _lpToken */\n      dup4\n        /* \"TEXOToken.sol\":39414:39442  poolIdForLpAddress[_lpToken] */\n      0xffffffffffffffffffffffffffffffffffffffff\n      and\n      0xffffffffffffffffffffffffffffffffffffffff\n      and\n      dup2\n      mstore\n      0x20\n      add\n      swap1\n      dup2\n      mstore\n      0x20\n      add\n      0x00\n      keccak256\n      sload\n        /* \"TEXOToken.sol\":39407:39442  return poolIdForLpAddress[_lpToken] */\n      swap1\n      pop\n        /* \"TEXOToken.sol\":39231:39449  function getPoolIdForLpToken(IBEP20 _lpToken) external view returns (uint256) {... */\n      swap2\n      swap1\n      pop\n      jump\t// out\n        /* \"TEXOToken.sol\":38839:39031  function setBlockToStartReducingEmissionRate(uint256 _blockToStartReducingEmissionRate) external onlyOwner {... */\n    tag_70:\n        /* \"TEXOToken.sol\":11663:11675  _msgSender() */\n      tag_187\n        /* \"TEXOToken.sol\":11663:11673  _msgSender */\n      tag_188\n        /* \"TEXOToken.sol\":11663:11675  _msgSender() */\n      jump\t// in\n    tag_187:\n        /* \"TEXOToken.sol\":11653:11675  _owner == _msgSender() */\n      0xffffffffffffffffffffffffffffffffffffffff\n      and\n        /* \"TEXOToken.sol\":11653:11659  _owner */\n      0x00\n      dup1\n      sload\n      swap1\n      0x0100\n      exp\n      swap1\n      div\n      0xffffffffffffffffffffffffffffffffffffffff\n      and\n        /* \"TEXOToken.sol\":11653:11675  _owner == _msgSender() */\n      0xffffffffffffffffffffffffffffffffffffffff\n      and\n      eq\n        /* \"TEXOToken.sol\":11645:11712  require(_owner == _msgSender(), \"Ownable: caller is not the owner\") */\n      tag_189\n      jumpi\n      mload(0x40)\n      0x08c379a000000000000000000000000000000000000000000000000000000000\n      dup2\n      mstore\n      0x04\n      add\n      dup1\n      dup1\n      0x20\n      add\n      dup3\n      dup2\n      sub\n      dup3\n      mstore\n      0x20\n      dup2\n      mstore\n      0x20\n      add\n      dup1\n      0x4f776e61626c653a2063616c6c6572206973206e6f7420746865206f776e6572\n      dup2\n      mstore\n      pop\n      0x20\n      add\n      swap2\n      pop\n      pop\n      mload(0x40)\n      dup1\n      swap2\n      sub\n      swap1\n      revert\n    tag_189:\n        /* \"TEXOToken.sol\":38991:39024  _blockToStartReducingEmissionRate */\n      dup1\n        /* \"TEXOToken.sol\":38956:38988  blockToStartReducingEmissionRate */\n      0x06\n        /* \"TEXOToken.sol\":38956:39024  blockToStartReducingEmissionRate = _blockToStartReducingEmissionRate */\n      dup2\n      swap1\n      sstore\n      pop\n        /* \"TEXOToken.sol\":38839:39031  function setBlockToStartReducingEmissionRate(uint256 _blockToStartReducingEmissionRate) external onlyOwner {... */\n      pop\n      jump\t// out\n        /* \"TEXOToken.sol\":36339:36388  uint16 public constant MAXIMUM_REFERRAL_BP = 2000 */\n    tag_72:\n        /* \"TEXOToken.sol\":36384:36388  2000 */\n      0x07d0\n        /* \"TEXOToken.sol\":36339:36388  uint16 public constant MAXIMUM_REFERRAL_BP = 2000 */\n      dup2\n      jump\t// out\n        /* \"TEXOToken.sol\":53412:53518  function getReferral(address _user) public view returns (address) {... */\n    tag_75:\n        /* \"TEXOToken.sol\":53469:53476  address */\n      0x00\n        /* \"TEXOToken.sol\":53495:53504  referrers */\n      0x0d\n        /* \"TEXOToken.sol\":53495:53511  referrers[_user] */\n      0x00\n        /* \"TEXOToken.sol\":53505:53510  _user */\n      dup4\n        /* \"TEXOToken.sol\":53495:53511  referrers[_user] */\n      0xffffffffffffffffffffffffffffffffffffffff\n      and\n      0xffffffffffffffffffffffffffffffffffffffff\n      and\n      dup2\n      mstore\n      0x20\n      add\n      swap1\n      dup2\n      mstore\n      0x20\n      add\n      0x00\n      keccak256\n      0x00\n      swap1\n      sload\n      swap1\n      0x0100\n      exp\n      swap1\n      div\n      0xffffffffffffffffffffffffffffffffffffffff\n      and\n        /* \"TEXOToken.sol\":53488:53511  return referrers[_user] */\n      swap1\n      pop\n        /* \"TEXOToken.sol\":53412:53518  function getReferral(address _user) public view returns (address) {... */\n      swap2\n      swap1\n      pop\n      jump\t// out\n        /* \"TEXOToken.sol\":36507:36555  mapping(address => uint256) public referredCount */\n    tag_78:\n      mstore(0x20, 0x0e)\n      dup1\n      0x00\n      mstore\n      keccak256(0x00, 0x40)\n      0x00\n      swap2\n      pop\n      swap1\n      pop\n      sload\n      dup2\n      jump\t// out\n        /* \"TEXOToken.sol\":35559:35584  address public feeAddress */\n    tag_80:\n      0x05\n      0x00\n      swap1\n      sload\n      swap1\n      0x0100\n      exp\n      swap1\n      div\n      0xffffffffffffffffffffffffffffffffffffffff\n      and\n      dup2\n      jump\t// out\n        /* \"TEXOToken.sol\":48399:49355  function withdraw(uint256 _pid, uint256 _amount) public nonReentrant {... */\n    tag_83:\n        /* \"TEXOToken.sol\":21196:21197  2 */\n      0x02\n        /* \"TEXOToken.sol\":21785:21792  _status */\n      sload(0x01)\n        /* \"TEXOToken.sol\":21785:21804  _status != _ENTERED */\n      eq\n      iszero\n        /* \"TEXOToken.sol\":21777:21840  require(_status != _ENTERED, \"ReentrancyGuard: reentrant call\") */\n      tag_193\n      jumpi\n      mload(0x40)\n      0x08c379a000000000000000000000000000000000000000000000000000000000\n      dup2\n      mstore\n      0x04\n      add\n      dup1\n      dup1\n      0x20\n      add\n      dup3\n      dup2\n      sub\n      dup3\n      mstore\n      0x1f\n      dup2\n      mstore\n      0x20\n      add\n      dup1\n      0x5265656e7472616e637947756172643a207265656e7472616e742063616c6c00\n      dup2\n      mstore\n      pop\n      0x20\n      add\n      swap2\n      pop\n      pop\n      mload(0x40)\n      dup1\n      swap2\n      sub\n      swap1\n      revert\n    tag_193:\n        /* \"TEXOToken.sol\":21196:21197  2 */\n      0x02\n        /* \"TEXOToken.sol\":21915:21922  _status */\n      0x01\n        /* \"TEXOToken.sol\":21915:21933  _status = _ENTERED */\n      dup2\n      swap1\n      sstore\n      pop\n        /* \"TEXOToken.sol\":48478:48499  PoolInfo storage pool */\n      0x00\n        /* \"TEXOToken.sol\":48502:48510  poolInfo */\n      0x09\n        /* \"TEXOToken.sol\":48511:48515  _pid */\n      dup4\n        /* \"TEXOToken.sol\":48502:48516  poolInfo[_pid] */\n      dup2\n      sload\n      dup2\n      lt\n      tag_195\n      jumpi\n      invalid\n    tag_195:\n      swap1\n      0x00\n      mstore\n      keccak256(0x00, 0x20)\n      swap1\n      0x06\n      mul\n      add\n        /* \"TEXOToken.sol\":48478:48516  PoolInfo storage pool = poolInfo[_pid] */\n      swap1\n      pop\n        /* \"TEXOToken.sol\":48526:48547  UserInfo storage user */\n      0x00\n        /* \"TEXOToken.sol\":48550:48558  userInfo */\n      0x0a\n        /* \"TEXOToken.sol\":48550:48564  userInfo[_pid] */\n      0x00\n        /* \"TEXOToken.sol\":48559:48563  _pid */\n      dup6\n        /* \"TEXOToken.sol\":48550:48564  userInfo[_pid] */\n      dup2\n      mstore\n      0x20\n      add\n      swap1\n      dup2\n      mstore\n      0x20\n      add\n      0x00\n      keccak256\n        /* \"TEXOToken.sol\":48550:48576  userInfo[_pid][msg.sender] */\n      0x00\n        /* \"TEXOToken.sol\":48565:48575  msg.sender */\n      caller\n        /* \"TEXOToken.sol\":48550:48576  userInfo[_pid][msg.sender] */\n      0xffffffffffffffffffffffffffffffffffffffff\n      and\n      0xffffffffffffffffffffffffffffffffffffffff\n      and\n      dup2\n      mstore\n      0x20\n      add\n      swap1\n      dup2\n      mstore\n      0x20\n      add\n      0x00\n      keccak256\n        /* \"TEXOToken.sol\":48526:48576  UserInfo storage user = userInfo[_pid][msg.sender] */\n      swap1\n      pop\n        /* \"TEXOToken.sol\":48610:48617  _amount */\n      dup3\n        /* \"TEXOToken.sol\":48595:48599  user */\n      dup2\n        /* \"TEXOToken.sol\":48595:48606  user.amount */\n      0x00\n      add\n      sload\n        /* \"TEXOToken.sol\":48595:48617  user.amount >= _amount */\n      lt\n      iszero\n        /* \"TEXOToken.sol\":48587:48640  require(user.amount >= _amount, \"withdraw: not good\") */\n      tag_197\n      jumpi\n      mload(0x40)\n      0x08c379a000000000000000000000000000000000000000000000000000000000\n      dup2\n      mstore\n      0x04\n      add\n      dup1\n      dup1\n      0x20\n      add\n      dup3\n      dup2\n      sub\n      dup3\n      mstore\n      0x12\n      dup2\n      mstore\n      0x20\n      add\n      dup1\n      0x77697468647261773a206e6f7420676f6f640000000000000000000000000000\n      dup2\n      mstore\n      pop\n      0x20\n      add\n      swap2\n      pop\n      pop\n      mload(0x40)\n      dup1\n      swap2\n      sub\n      swap1\n      revert\n    tag_197:\n        /* \"TEXOToken.sol\":48651:48667  updatePool(_pid) */\n      tag_198\n        /* \"TEXOToken.sol\":48662:48666  _pid */\n      dup5\n        /* \"TEXOToken.sol\":48651:48661  updatePool */\n      tag_91\n        /* \"TEXOToken.sol\":48651:48667  updatePool(_pid) */\n      jump\t// in\n    tag_198:\n        /* \"TEXOToken.sol\":48678:48698  bool canWithdrawTEXO */\n      0x00\n        /* \"TEXOToken.sol\":48701:48724  canWithdrawReward(_pid) */\n      tag_199\n        /* \"TEXOToken.sol\":48719:48723  _pid */\n      dup6\n        /* \"TEXOToken.sol\":48701:48718  canWithdrawReward */\n      tag_148\n        /* \"TEXOToken.sol\":48701:48724  canWithdrawReward(_pid) */\n      jump\t// in\n    tag_199:\n        /* \"TEXOToken.sol\":48678:48724  bool canWithdrawTEXO = canWithdrawReward(_pid) */\n      swap1\n      pop\n        /* \"TEXOToken.sol\":48735:48750  uint256 pending */\n      0x00\n        /* \"TEXOToken.sol\":48753:48860  user.amount... */\n      tag_200\n        /* \"TEXOToken.sol\":48844:48848  user */\n      dup4\n        /* \"TEXOToken.sol\":48844:48859  user.rewardDebt */\n      0x01\n      add\n      sload\n        /* \"TEXOToken.sol\":48753:48826  user.amount... */\n      tag_201\n        /* \"TEXOToken.sol\":48821:48825  1e12 */\n      0xe8d4a51000\n        /* \"TEXOToken.sol\":48753:48803  user.amount... */\n      tag_202\n        /* \"TEXOToken.sol\":48782:48786  pool */\n      dup9\n        /* \"TEXOToken.sol\":48782:48802  pool.accTEXOPerShare */\n      0x04\n      add\n      sload\n        /* \"TEXOToken.sol\":48753:48757  user */\n      dup9\n        /* \"TEXOToken.sol\":48753:48764  user.amount */\n      0x00\n      add\n      sload\n        /* \"TEXOToken.sol\":48753:48781  user.amount... */\n      tag_203\n      swap1\n        /* \"TEXOToken.sol\":48753:48803  user.amount... */\n      swap2\n      swap1\n      0xffffffff\n      and\n      jump\t// in\n    tag_202:\n        /* \"TEXOToken.sol\":48753:48820  user.amount... */\n      tag_204\n      swap1\n        /* \"TEXOToken.sol\":48753:48826  user.amount... */\n      swap2\n      swap1\n      0xffffffff\n      and\n      jump\t// in\n    tag_201:\n        /* \"TEXOToken.sol\":48753:48843  user.amount... */\n      tag_205\n      swap1\n        /* \"TEXOToken.sol\":48753:48860  user.amount... */\n      swap2\n      swap1\n      0xffffffff\n      and\n      jump\t// in\n    tag_200:\n        /* \"TEXOToken.sol\":48735:48860  uint256 pending = user.amount... */\n      swap1\n      pop\n        /* \"TEXOToken.sol\":48875:48890  canWithdrawTEXO */\n      dup2\n        /* \"TEXOToken.sol\":48875:48905  canWithdrawTEXO && pending > 0 */\n      dup1\n      iszero\n      tag_206\n      jumpi\n      pop\n        /* \"TEXOToken.sol\":48904:48905  0 */\n      0x00\n        /* \"TEXOToken.sol\":48894:48901  pending */\n      dup2\n        /* \"TEXOToken.sol\":48894:48905  pending > 0 */\n      gt\n        /* \"TEXOToken.sol\":48875:48905  canWithdrawTEXO && pending > 0 */\n    tag_206:\n        /* \"TEXOToken.sol\":48871:49139  if (canWithdrawTEXO && pending > 0) {... */\n      iszero\n      tag_207\n      jumpi\n        /* \"TEXOToken.sol\":48921:48958  safeTEXOTransfer(msg.sender, pending) */\n      tag_208\n        /* \"TEXOToken.sol\":48938:48948  msg.sender */\n      caller\n        /* \"TEXOToken.sol\":48950:48957  pending */\n      dup3\n        /* \"TEXOToken.sol\":48921:48937  safeTEXOTransfer */\n      tag_209\n        /* \"TEXOToken.sol\":48921:48958  safeTEXOTransfer(msg.sender, pending) */\n      jump\t// in\n    tag_208:\n        /* \"TEXOToken.sol\":48972:49014  payReferralCommission(msg.sender, pending) */\n      tag_210\n        /* \"TEXOToken.sol\":48994:49004  msg.sender */\n      caller\n        /* \"TEXOToken.sol\":49006:49013  pending */\n      dup3\n        /* \"TEXOToken.sol\":48972:48993  payReferralCommission */\n      tag_211\n        /* \"TEXOToken.sol\":48972:49014  payReferralCommission(msg.sender, pending) */\n      jump\t// in\n    tag_210:\n        /* \"TEXOToken.sol\":49047:49128  user.amount... */\n      tag_212\n        /* \"TEXOToken.sol\":49123:49127  1e12 */\n      0xe8d4a51000\n        /* \"TEXOToken.sol\":49047:49101  user.amount... */\n      tag_213\n        /* \"TEXOToken.sol\":49080:49084  pool */\n      dup7\n        /* \"TEXOToken.sol\":49080:49100  pool.accTEXOPerShare */\n      0x04\n      add\n      sload\n        /* \"TEXOToken.sol\":49047:49051  user */\n      dup7\n        /* \"TEXOToken.sol\":49047:49058  user.amount */\n      0x00\n      add\n      sload\n        /* \"TEXOToken.sol\":49047:49079  user.amount... */\n      tag_203\n      swap1\n        /* \"TEXOToken.sol\":49047:49101  user.amount... */\n      swap2\n      swap1\n      0xffffffff\n      and\n      jump\t// in\n    tag_213:\n        /* \"TEXOToken.sol\":49047:49122  user.amount... */\n      tag_204\n      swap1\n        /* \"TEXOToken.sol\":49047:49128  user.amount... */\n      swap2\n      swap1\n      0xffffffff\n      and\n      jump\t// in\n    tag_212:\n        /* \"TEXOToken.sol\":49029:49033  user */\n      dup4\n        /* \"TEXOToken.sol\":49029:49044  user.rewardDebt */\n      0x01\n      add\n        /* \"TEXOToken.sol\":49029:49128  user.rewardDebt = user.amount... */\n      dup2\n      swap1\n      sstore\n      pop\n        /* \"TEXOToken.sol\":48871:49139  if (canWithdrawTEXO && pending > 0) {... */\n    tag_207:\n        /* \"TEXOToken.sol\":49163:49164  0 */\n      0x00\n        /* \"TEXOToken.sol\":49153:49160  _amount */\n      dup6\n        /* \"TEXOToken.sol\":49153:49164  _amount > 0 */\n      gt\n        /* \"TEXOToken.sol\":49149:49298  if (_amount > 0) {... */\n      iszero\n      tag_214\n      jumpi\n        /* \"TEXOToken.sol\":49194:49218  user.amount.sub(_amount) */\n      tag_215\n        /* \"TEXOToken.sol\":49210:49217  _amount */\n      dup6\n        /* \"TEXOToken.sol\":49194:49198  user */\n      dup5\n        /* \"TEXOToken.sol\":49194:49205  user.amount */\n      0x00\n      add\n      sload\n        /* \"TEXOToken.sol\":49194:49209  user.amount.sub */\n      tag_205\n      swap1\n        /* \"TEXOToken.sol\":49194:49218  user.amount.sub(_amount) */\n      swap2\n      swap1\n      0xffffffff\n      and\n      jump\t// in\n    tag_215:\n        /* \"TEXOToken.sol\":49180:49184  user */\n      dup4\n        /* \"TEXOToken.sol\":49180:49191  user.amount */\n      0x00\n      add\n        /* \"TEXOToken.sol\":49180:49218  user.amount = user.amount.sub(_amount) */\n      dup2\n      swap1\n      sstore\n      pop\n        /* \"TEXOToken.sol\":49232:49287  pool.lpToken.safeTransfer(address(msg.sender), _amount) */\n      tag_216\n        /* \"TEXOToken.sol\":49266:49276  msg.sender */\n      caller\n        /* \"TEXOToken.sol\":49279:49286  _amount */\n      dup7\n        /* \"TEXOToken.sol\":49232:49236  pool */\n      dup7\n        /* \"TEXOToken.sol\":49232:49244  pool.lpToken */\n      0x00\n      add\n      0x00\n      swap1\n      sload\n      swap1\n      0x0100\n      exp\n      swap1\n      div\n      0xffffffffffffffffffffffffffffffffffffffff\n      and\n        /* \"TEXOToken.sol\":49232:49257  pool.lpToken.safeTransfer */\n      0xffffffffffffffffffffffffffffffffffffffff\n      and\n      tag_217\n      swap1\n        /* \"TEXOToken.sol\":49232:49287  pool.lpToken.safeTransfer(address(msg.sender), _amount) */\n      swap3\n      swap2\n      swap1\n      0xffffffff\n      and\n      jump\t// in\n    tag_216:\n        /* \"TEXOToken.sol\":49149:49298  if (_amount > 0) {... */\n    tag_214:\n        /* \"TEXOToken.sol\":49334:49338  _pid */\n      dup6\n        /* \"TEXOToken.sol\":49322:49332  msg.sender */\n      caller\n        /* \"TEXOToken.sol\":49313:49348  Withdraw(msg.sender, _pid, _amount) */\n      0xffffffffffffffffffffffffffffffffffffffff\n      and\n      0xf279e6a1f5e320cca91135676d9cb6e44ca8a08c0b88342bcdb1144f6511b568\n        /* \"TEXOToken.sol\":49340:49347  _amount */\n      dup8\n        /* \"TEXOToken.sol\":49313:49348  Withdraw(msg.sender, _pid, _amount) */\n      mload(0x40)\n      dup1\n      dup3\n      dup2\n      mstore\n      0x20\n      add\n      swap2\n      pop\n      pop\n      mload(0x40)\n      dup1\n      swap2\n      sub\n      swap1\n      log3\n        /* \"TEXOToken.sol\":21944:21945  _ */\n      pop\n      pop\n      pop\n      pop\n        /* \"TEXOToken.sol\":21153:21154  1 */\n      0x01\n        /* \"TEXOToken.sol\":22088:22095  _status */\n      dup1\n        /* \"TEXOToken.sol\":22088:22110  _status = _NOT_ENTERED */\n      dup2\n      swap1\n      sstore\n      pop\n        /* \"TEXOToken.sol\":48399:49355  function withdraw(uint256 _pid, uint256 _amount) public nonReentrant {... */\n      pop\n      pop\n      jump\t// out\n        /* \"TEXOToken.sol\":37340:37385  bool public isAllowReduceEmissionRate = false */\n    tag_85:\n      0x12\n      0x00\n      swap1\n      sload\n      swap1\n      0x0100\n      exp\n      swap1\n      div\n      0xff\n      and\n      dup2\n      jump\t// out\n        /* \"TEXOToken.sol\":36418:36462  mapping(address => address) public referrers */\n    tag_88:\n      mstore(0x20, 0x0d)\n      dup1\n      0x00\n      mstore\n      keccak256(0x00, 0x40)\n      0x00\n      swap2\n      pop\n      sload\n      swap1\n      0x0100\n      exp\n      swap1\n      div\n      0xffffffffffffffffffffffffffffffffffffffff\n      and\n      dup2\n      jump\t// out\n        /* \"TEXOToken.sol\":43194:44519  function updatePool(uint256 _pid) public {... */\n    tag_91:\n        /* \"TEXOToken.sol\":43245:43266  PoolInfo storage pool */\n      0x00\n        /* \"TEXOToken.sol\":43269:43277  poolInfo */\n      0x09\n        /* \"TEXOToken.sol\":43278:43282  _pid */\n      dup3\n        /* \"TEXOToken.sol\":43269:43283  poolInfo[_pid] */\n      dup2\n      sload\n      dup2\n      lt\n      tag_219\n      jumpi\n      invalid\n    tag_219:\n      swap1\n      0x00\n      mstore\n      keccak256(0x00, 0x20)\n      swap1\n      0x06\n      mul\n      add\n        /* \"TEXOToken.sol\":43245:43283  PoolInfo storage pool = poolInfo[_pid] */\n      swap1\n      pop\n        /* \"TEXOToken.sol\":43314:43318  pool */\n      dup1\n        /* \"TEXOToken.sol\":43314:43334  pool.lastRewardBlock */\n      0x03\n      add\n      sload\n        /* \"TEXOToken.sol\":43298:43310  block.number */\n      number\n        /* \"TEXOToken.sol\":43298:43334  block.number <= pool.lastRewardBlock */\n      gt\n        /* \"TEXOToken.sol\":43294:43367  if (block.number <= pool.lastRewardBlock) {... */\n      tag_221\n      jumpi\n        /* \"TEXOToken.sol\":43350:43357  return; */\n      pop\n      jump(tag_218)\n        /* \"TEXOToken.sol\":43294:43367  if (block.number <= pool.lastRewardBlock) {... */\n    tag_221:\n        /* \"TEXOToken.sol\":43382:43409  canGenerateTexoReward(_pid) */\n      tag_222\n        /* \"TEXOToken.sol\":43404:43408  _pid */\n      dup3\n        /* \"TEXOToken.sol\":43382:43403  canGenerateTexoReward */\n      tag_174\n        /* \"TEXOToken.sol\":43382:43409  canGenerateTexoReward(_pid) */\n      jump\t// in\n    tag_222:\n        /* \"TEXOToken.sol\":43377:43442  if (!canGenerateTexoReward(_pid)) {... */\n      tag_223\n      jumpi\n        /* \"TEXOToken.sol\":43425:43432  return; */\n      pop\n      jump(tag_218)\n        /* \"TEXOToken.sol\":43377:43442  if (!canGenerateTexoReward(_pid)) {... */\n    tag_223:\n        /* \"TEXOToken.sol\":43452:43468  uint256 lpSupply */\n      0x00\n        /* \"TEXOToken.sol\":43471:43475  pool */\n      dup2\n        /* \"TEXOToken.sol\":43471:43483  pool.lpToken */\n      0x00\n      add\n      0x00\n      swap1\n      sload\n      swap1\n      0x0100\n      exp\n      swap1\n      div\n      0xffffffffffffffffffffffffffffffffffffffff\n      and\n        /* \"TEXOToken.sol\":43471:43493  pool.lpToken.balanceOf */\n      0xffffffffffffffffffffffffffffffffffffffff\n      and\n      0x70a08231\n        /* \"TEXOToken.sol\":43502:43506  this */\n      address\n        /* \"TEXOToken.sol\":43471:43508  pool.lpToken.balanceOf(address(this)) */\n      mload(0x40)\n      dup3\n      0xffffffff\n      and\n      0xe0\n      shl\n      dup2\n      mstore\n      0x04\n      add\n      dup1\n      dup3\n      0xffffffffffffffffffffffffffffffffffffffff\n      and\n      dup2\n      mstore\n      0x20\n      add\n      swap2\n      pop\n      pop\n      0x20\n      mload(0x40)\n      dup1\n      dup4\n      sub\n      dup2\n      dup7\n      dup1\n      extcodesize\n      iszero\n      dup1\n      iszero\n      tag_224\n      jumpi\n      0x00\n      dup1\n      revert\n    tag_224:\n      pop\n      gas\n      staticcall\n      iszero\n      dup1\n      iszero\n      tag_226\n      jumpi\n      returndatasize\n      0x00\n      dup1\n      returndatacopy\n      revert(0x00, returndatasize)\n    tag_226:\n      pop\n      pop\n      pop\n      pop\n      mload(0x40)\n      returndatasize\n      0x20\n      dup2\n      lt\n      iszero\n      tag_227\n      jumpi\n      0x00\n      dup1\n      revert\n    tag_227:\n      dup2\n      add\n      swap1\n      dup1\n      dup1\n      mload\n      swap1\n      0x20\n      add\n      swap1\n      swap3\n      swap2\n      swap1\n      pop\n      pop\n      pop\n        /* \"TEXOToken.sol\":43452:43508  uint256 lpSupply = pool.lpToken.balanceOf(address(this)) */\n      swap1\n      pop\n        /* \"TEXOToken.sol\":43623:43624  0 */\n      0x00\n        /* \"TEXOToken.sol\":43611:43619  lpSupply */\n      dup2\n        /* \"TEXOToken.sol\":43611:43624  lpSupply == 0 */\n      eq\n        /* \"TEXOToken.sol\":43611:43648  lpSupply == 0 || pool.allocPoint == 0 */\n      dup1\n      tag_228\n      jumpi\n      pop\n        /* \"TEXOToken.sol\":43647:43648  0 */\n      0x00\n        /* \"TEXOToken.sol\":43628:43632  pool */\n      dup3\n        /* \"TEXOToken.sol\":43628:43643  pool.allocPoint */\n      0x01\n      add\n      sload\n        /* \"TEXOToken.sol\":43628:43648  pool.allocPoint == 0 */\n      eq\n        /* \"TEXOToken.sol\":43611:43648  lpSupply == 0 || pool.allocPoint == 0 */\n    tag_228:\n        /* \"TEXOToken.sol\":43607:43812  if (lpSupply == 0 || pool.allocPoint == 0) { // If pool initially has no staked WETH token, or pool has no allocation points.... */\n      iszero\n      tag_229\n      jumpi\n        /* \"TEXOToken.sol\":43768:43780  block.number */\n      number\n        /* \"TEXOToken.sol\":43745:43749  pool */\n      dup3\n        /* \"TEXOToken.sol\":43745:43765  pool.lastRewardBlock */\n      0x03\n      add\n        /* \"TEXOToken.sol\":43745:43780  pool.lastRewardBlock = block.number */\n      dup2\n      swap1\n      sstore\n      pop\n        /* \"TEXOToken.sol\":43795:43802  return; */\n      pop\n      pop\n      jump(tag_218)\n        /* \"TEXOToken.sol\":43607:43812  if (lpSupply == 0 || pool.allocPoint == 0) { // If pool initially has no staked WETH token, or pool has no allocation points.... */\n    tag_229:\n        /* \"TEXOToken.sol\":43822:43840  uint256 multiplier */\n      0x00\n        /* \"TEXOToken.sol\":43843:43892  getMultiplier(pool.lastRewardBlock, block.number) */\n      tag_230\n        /* \"TEXOToken.sol\":43857:43861  pool */\n      dup4\n        /* \"TEXOToken.sol\":43857:43877  pool.lastRewardBlock */\n      0x03\n      add\n      sload\n        /* \"TEXOToken.sol\":43879:43891  block.number */\n      number\n        /* \"TEXOToken.sol\":43843:43856  getMultiplier */\n      tag_122\n        /* \"TEXOToken.sol\":43843:43892  getMultiplier(pool.lastRewardBlock, block.number) */\n      jump\t// in\n    tag_230:\n        /* \"TEXOToken.sol\":43822:43892  uint256 multiplier = getMultiplier(pool.lastRewardBlock, block.number) */\n      swap1\n      pop\n        /* \"TEXOToken.sol\":43963:43981  uint256 tEXOReward */\n      0x00\n        /* \"TEXOToken.sol\":43984:44093  multiplier... */\n      tag_231\n        /* \"TEXOToken.sol\":44077:44092  totalAllocPoint */\n      sload(0x0b)\n        /* \"TEXOToken.sol\":43984:44059  multiplier... */\n      tag_232\n        /* \"TEXOToken.sol\":44043:44047  pool */\n      dup7\n        /* \"TEXOToken.sol\":44043:44058  pool.allocPoint */\n      0x01\n      add\n      sload\n        /* \"TEXOToken.sol\":43984:44025  multiplier... */\n      tag_233\n        /* \"TEXOToken.sol\":44012:44024  tEXOPerBlock */\n      sload(0x04)\n        /* \"TEXOToken.sol\":43984:43994  multiplier */\n      dup8\n        /* \"TEXOToken.sol\":43984:44011  multiplier... */\n      tag_203\n      swap1\n        /* \"TEXOToken.sol\":43984:44025  multiplier... */\n      swap2\n      swap1\n      0xffffffff\n      and\n      jump\t// in\n    tag_233:\n        /* \"TEXOToken.sol\":43984:44042  multiplier... */\n      tag_203\n      swap1\n        /* \"TEXOToken.sol\":43984:44059  multiplier... */\n      swap2\n      swap1\n      0xffffffff\n      and\n      jump\t// in\n    tag_232:\n        /* \"TEXOToken.sol\":43984:44076  multiplier... */\n      tag_204\n      swap1\n        /* \"TEXOToken.sol\":43984:44093  multiplier... */\n      swap2\n      swap1\n      0xffffffff\n      and\n      jump\t// in\n    tag_231:\n        /* \"TEXOToken.sol\":43963:44093  uint256 tEXOReward = multiplier... */\n      swap1\n      pop\n        /* \"TEXOToken.sol\":44104:44108  tEXO */\n      0x02\n      0x00\n      swap1\n      sload\n      swap1\n      0x0100\n      exp\n      swap1\n      div\n      0xffffffffffffffffffffffffffffffffffffffff\n      and\n        /* \"TEXOToken.sol\":44104:44113  tEXO.mint */\n      0xffffffffffffffffffffffffffffffffffffffff\n      and\n      0x40c10f19\n        /* \"TEXOToken.sol\":44114:44121  devAddr */\n      0x03\n      0x00\n      swap1\n      sload\n      swap1\n      0x0100\n      exp\n      swap1\n      div\n      0xffffffffffffffffffffffffffffffffffffffff\n      and\n        /* \"TEXOToken.sol\":44123:44141  tEXOReward.div(10) */\n      tag_234\n        /* \"TEXOToken.sol\":44138:44140  10 */\n      0x0a\n        /* \"TEXOToken.sol\":44123:44133  tEXOReward */\n      dup6\n        /* \"TEXOToken.sol\":44123:44137  tEXOReward.div */\n      tag_204\n      swap1\n        /* \"TEXOToken.sol\":44123:44141  tEXOReward.div(10) */\n      swap2\n      swap1\n      0xffffffff\n      and\n      jump\t// in\n    tag_234:\n        /* \"TEXOToken.sol\":44104:44142  tEXO.mint(devAddr, tEXOReward.div(10)) */\n      mload(0x40)\n      dup4\n      0xffffffff\n      and\n      0xe0\n      shl\n      dup2\n      mstore\n      0x04\n      add\n      dup1\n      dup4\n      0xffffffffffffffffffffffffffffffffffffffff\n      and\n      dup2\n      mstore\n      0x20\n      add\n      dup3\n      dup2\n      mstore\n      0x20\n      add\n      swap3\n      pop\n      pop\n      pop\n      0x00\n      mload(0x40)\n      dup1\n      dup4\n      sub\n      dup2\n      0x00\n      dup8\n      dup1\n      extcodesize\n      iszero\n      dup1\n      iszero\n      tag_235\n      jumpi\n      0x00\n      dup1\n      revert\n    tag_235:\n      pop\n      gas\n      call\n      iszero\n      dup1\n      iszero\n      tag_237\n      jumpi\n      returndatasize\n      0x00\n      dup1\n      returndatacopy\n      revert(0x00, returndatasize)\n    tag_237:\n      pop\n      pop\n      pop\n      pop\n        /* \"TEXOToken.sol\":44213:44217  tEXO */\n      0x02\n      0x00\n      swap1\n      sload\n      swap1\n      0x0100\n      exp\n      swap1\n      div\n      0xffffffffffffffffffffffffffffffffffffffff\n      and\n        /* \"TEXOToken.sol\":44213:44222  tEXO.mint */\n      0xffffffffffffffffffffffffffffffffffffffff\n      and\n      0x40c10f19\n        /* \"TEXOToken.sol\":44231:44235  this */\n      address\n        /* \"TEXOToken.sol\":44238:44248  tEXOReward */\n      dup4\n        /* \"TEXOToken.sol\":44213:44249  tEXO.mint(address(this), tEXOReward) */\n      mload(0x40)\n      dup4\n      0xffffffff\n      and\n      0xe0\n      shl\n      dup2\n      mstore\n      0x04\n      add\n      dup1\n      dup4\n      0xffffffffffffffffffffffffffffffffffffffff\n      and\n      dup2\n      mstore\n      0x20\n      add\n      dup3\n      dup2\n      mstore\n      0x20\n      add\n      swap3\n      pop\n      pop\n      pop\n      0x00\n      mload(0x40)\n      dup1\n      dup4\n      sub\n      dup2\n      0x00\n      dup8\n      dup1\n      extcodesize\n      iszero\n      dup1\n      iszero\n      tag_238\n      jumpi\n      0x00\n      dup1\n      revert\n    tag_238:\n      pop\n      gas\n      call\n      iszero\n      dup1\n      iszero\n      tag_240\n      jumpi\n      returndatasize\n      0x00\n      dup1\n      returndatacopy\n      revert(0x00, returndatasize)\n    tag_240:\n      pop\n      pop\n      pop\n      pop\n        /* \"TEXOToken.sol\":44329:44466  pool.accTEXOPerShare... */\n      tag_241\n        /* \"TEXOToken.sol\":44384:44452  tEXOReward... */\n      tag_242\n        /* \"TEXOToken.sol\":44443:44451  lpSupply */\n      dup5\n        /* \"TEXOToken.sol\":44384:44421  tEXOReward... */\n      tag_243\n        /* \"TEXOToken.sol\":44416:44420  1e12 */\n      0xe8d4a51000\n        /* \"TEXOToken.sol\":44384:44394  tEXOReward */\n      dup6\n        /* \"TEXOToken.sol\":44384:44415  tEXOReward... */\n      tag_203\n      swap1\n        /* \"TEXOToken.sol\":44384:44421  tEXOReward... */\n      swap2\n      swap1\n      0xffffffff\n      and\n      jump\t// in\n    tag_243:\n        /* \"TEXOToken.sol\":44384:44442  tEXOReward... */\n      tag_204\n      swap1\n        /* \"TEXOToken.sol\":44384:44452  tEXOReward... */\n      swap2\n      swap1\n      0xffffffff\n      and\n      jump\t// in\n    tag_242:\n        /* \"TEXOToken.sol\":44329:44333  pool */\n      dup6\n        /* \"TEXOToken.sol\":44329:44349  pool.accTEXOPerShare */\n      0x04\n      add\n      sload\n        /* \"TEXOToken.sol\":44329:44366  pool.accTEXOPerShare... */\n      tag_244\n      swap1\n        /* \"TEXOToken.sol\":44329:44466  pool.accTEXOPerShare... */\n      swap2\n      swap1\n      0xffffffff\n      and\n      jump\t// in\n    tag_241:\n        /* \"TEXOToken.sol\":44306:44310  pool */\n      dup5\n        /* \"TEXOToken.sol\":44306:44326  pool.accTEXOPerShare */\n      0x04\n      add\n        /* \"TEXOToken.sol\":44306:44466  pool.accTEXOPerShare = pool.accTEXOPerShare... */\n      dup2\n      swap1\n      sstore\n      pop\n        /* \"TEXOToken.sol\":44500:44512  block.number */\n      number\n        /* \"TEXOToken.sol\":44477:44481  pool */\n      dup5\n        /* \"TEXOToken.sol\":44477:44497  pool.lastRewardBlock */\n      0x03\n      add\n        /* \"TEXOToken.sol\":44477:44512  pool.lastRewardBlock = block.number */\n      dup2\n      swap1\n      sstore\n      pop\n        /* \"TEXOToken.sol\":43194:44519  function updatePool(uint256 _pid) public {... */\n      pop\n      pop\n      pop\n      pop\n    tag_218:\n      pop\n      jump\t// out\n        /* \"TEXOToken.sol\":49423:49825  function emergencyWithdraw(uint256 _pid) public nonReentrant {... */\n    tag_94:\n        /* \"TEXOToken.sol\":21196:21197  2 */\n      0x02\n        /* \"TEXOToken.sol\":21785:21792  _status */\n      sload(0x01)\n        /* \"TEXOToken.sol\":21785:21804  _status != _ENTERED */\n      eq\n      iszero\n        /* \"TEXOToken.sol\":21777:21840  require(_status != _ENTERED, \"ReentrancyGuard: reentrant call\") */\n      tag_246\n      jumpi\n      mload(0x40)\n      0x08c379a000000000000000000000000000000000000000000000000000000000\n      dup2\n      mstore\n      0x04\n      add\n      dup1\n      dup1\n      0x20\n      add\n      dup3\n      dup2\n      sub\n      dup3\n      mstore\n      0x1f\n      dup2\n      mstore\n      0x20\n      add\n      dup1\n      0x5265656e7472616e637947756172643a207265656e7472616e742063616c6c00\n      dup2\n      mstore\n      pop\n      0x20\n      add\n      swap2\n      pop\n      pop\n      mload(0x40)\n      dup1\n      swap2\n      sub\n      swap1\n      revert\n    tag_246:\n        /* \"TEXOToken.sol\":21196:21197  2 */\n      0x02\n        /* \"TEXOToken.sol\":21915:21922  _status */\n      0x01\n        /* \"TEXOToken.sol\":21915:21933  _status = _ENTERED */\n      dup2\n      swap1\n      sstore\n      pop\n        /* \"TEXOToken.sol\":49494:49515  PoolInfo storage pool */\n      0x00\n        /* \"TEXOToken.sol\":49518:49526  poolInfo */\n      0x09\n        /* \"TEXOToken.sol\":49527:49531  _pid */\n      dup3\n        /* \"TEXOToken.sol\":49518:49532  poolInfo[_pid] */\n      dup2\n      sload\n      dup2\n      lt\n      tag_248\n      jumpi\n      invalid\n    tag_248:\n      swap1\n      0x00\n      mstore\n      keccak256(0x00, 0x20)\n      swap1\n      0x06\n      mul\n      add\n        /* \"TEXOToken.sol\":49494:49532  PoolInfo storage pool = poolInfo[_pid] */\n      swap1\n      pop\n        /* \"TEXOToken.sol\":49542:49563  UserInfo storage user */\n      0x00\n        /* \"TEXOToken.sol\":49566:49574  userInfo */\n      0x0a\n        /* \"TEXOToken.sol\":49566:49580  userInfo[_pid] */\n      0x00\n        /* \"TEXOToken.sol\":49575:49579  _pid */\n      dup5\n        /* \"TEXOToken.sol\":49566:49580  userInfo[_pid] */\n      dup2\n      mstore\n      0x20\n      add\n      swap1\n      dup2\n      mstore\n      0x20\n      add\n      0x00\n      keccak256\n        /* \"TEXOToken.sol\":49566:49592  userInfo[_pid][msg.sender] */\n      0x00\n        /* \"TEXOToken.sol\":49581:49591  msg.sender */\n      caller\n        /* \"TEXOToken.sol\":49566:49592  userInfo[_pid][msg.sender] */\n      0xffffffffffffffffffffffffffffffffffffffff\n      and\n      0xffffffffffffffffffffffffffffffffffffffff\n      and\n      dup2\n      mstore\n      0x20\n      add\n      swap1\n      dup2\n      mstore\n      0x20\n      add\n      0x00\n      keccak256\n        /* \"TEXOToken.sol\":49542:49592  UserInfo storage user = userInfo[_pid][msg.sender] */\n      swap1\n      pop\n        /* \"TEXOToken.sol\":49602:49661  pool.lpToken.safeTransfer(address(msg.sender), user.amount) */\n      tag_250\n        /* \"TEXOToken.sol\":49636:49646  msg.sender */\n      caller\n        /* \"TEXOToken.sol\":49649:49653  user */\n      dup3\n        /* \"TEXOToken.sol\":49649:49660  user.amount */\n      0x00\n      add\n      sload\n        /* \"TEXOToken.sol\":49602:49606  pool */\n      dup5\n        /* \"TEXOToken.sol\":49602:49614  pool.lpToken */\n      0x00\n      add\n      0x00\n      swap1\n      sload\n      swap1\n      0x0100\n      exp\n      swap1\n      div\n      0xffffffffffffffffffffffffffffffffffffffff\n      and\n        /* \"TEXOToken.sol\":49602:49627  pool.lpToken.safeTransfer */\n      0xffffffffffffffffffffffffffffffffffffffff\n      and\n      tag_217\n      swap1\n        /* \"TEXOToken.sol\":49602:49661  pool.lpToken.safeTransfer(address(msg.sender), user.amount) */\n      swap3\n      swap2\n      swap1\n      0xffffffff\n      and\n      jump\t// in\n    tag_250:\n        /* \"TEXOToken.sol\":49707:49711  _pid */\n      dup3\n        /* \"TEXOToken.sol\":49695:49705  msg.sender */\n      caller\n        /* \"TEXOToken.sol\":49677:49725  EmergencyWithdraw(msg.sender, _pid, user.amount) */\n      0xffffffffffffffffffffffffffffffffffffffff\n      and\n      0xbb757047c2b5f3974fe26b7c10f732e7bce710b0952a71082702781e62ae0595\n        /* \"TEXOToken.sol\":49713:49717  user */\n      dup4\n        /* \"TEXOToken.sol\":49713:49724  user.amount */\n      0x00\n      add\n      sload\n        /* \"TEXOToken.sol\":49677:49725  EmergencyWithdraw(msg.sender, _pid, user.amount) */\n      mload(0x40)\n      dup1\n      dup3\n      dup2\n      mstore\n      0x20\n      add\n      swap2\n      pop\n      pop\n      mload(0x40)\n      dup1\n      swap2\n      sub\n      swap1\n      log3\n        /* \"TEXOToken.sol\":49750:49751  0 */\n      0x00\n        /* \"TEXOToken.sol\":49736:49740  user */\n      dup2\n        /* \"TEXOToken.sol\":49736:49747  user.amount */\n      0x00\n      add\n        /* \"TEXOToken.sol\":49736:49751  user.amount = 0 */\n      dup2\n      swap1\n      sstore\n      pop\n        /* \"TEXOToken.sol\":49779:49780  0 */\n      0x00\n        /* \"TEXOToken.sol\":49761:49765  user */\n      dup2\n        /* \"TEXOToken.sol\":49761:49776  user.rewardDebt */\n      0x01\n      add\n        /* \"TEXOToken.sol\":49761:49780  user.rewardDebt = 0 */\n      dup2\n      swap1\n      sstore\n      pop\n        /* \"TEXOToken.sol\":49813:49818  false */\n      0x00\n        /* \"TEXOToken.sol\":49790:49794  user */\n      dup2\n        /* \"TEXOToken.sol\":49790:49810  user.isAlreadyStaked */\n      0x02\n      add\n      0x00\n        /* \"TEXOToken.sol\":49790:49818  user.isAlreadyStaked = false */\n      0x0100\n      exp\n      dup2\n      sload\n      dup2\n      0xff\n      mul\n      not\n      and\n      swap1\n      dup4\n      iszero\n      iszero\n      mul\n      or\n      swap1\n      sstore\n      pop\n        /* \"TEXOToken.sol\":21944:21945  _ */\n      pop\n      pop\n        /* \"TEXOToken.sol\":21153:21154  1 */\n      0x01\n        /* \"TEXOToken.sol\":22088:22095  _status */\n      dup1\n        /* \"TEXOToken.sol\":22088:22110  _status = _NOT_ENTERED */\n      dup2\n      swap1\n      sstore\n      pop\n        /* \"TEXOToken.sol\":49423:49825  function emergencyWithdraw(uint256 _pid) public nonReentrant {... */\n      pop\n      jump\t// out\n        /* \"TEXOToken.sol\":35644:35691  uint256 public blockToStartReducingEmissionRate */\n    tag_96:\n      sload(0x06)\n      dup2\n      jump\t// out\n        /* \"TEXOToken.sol\":36930:36988  uint256 public constant MINIMUM_EMISSION_RATE = 100 finney */\n    tag_98:\n        /* \"TEXOToken.sol\":36978:36988  100 finney */\n      0x016345785d8a0000\n        /* \"TEXOToken.sol\":36930:36988  uint256 public constant MINIMUM_EMISSION_RATE = 100 finney */\n      dup2\n      jump\t// out\n        /* \"TEXOToken.sol\":42946:43121  function massUpdatePools() public {... */\n    tag_100:\n        /* \"TEXOToken.sol\":42990:43004  uint256 length */\n      0x00\n        /* \"TEXOToken.sol\":43007:43015  poolInfo */\n      0x09\n        /* \"TEXOToken.sol\":43007:43022  poolInfo.length */\n      dup1\n      sload\n      swap1\n      pop\n        /* \"TEXOToken.sol\":42990:43022  uint256 length = poolInfo.length */\n      swap1\n      pop\n        /* \"TEXOToken.sol\":43037:43048  uint256 pid */\n      0x00\n        /* \"TEXOToken.sol\":43032:43115  for (uint256 pid = 0; pid < length; ++pid) {... */\n    tag_252:\n        /* \"TEXOToken.sol\":43060:43066  length */\n      dup2\n        /* \"TEXOToken.sol\":43054:43057  pid */\n      dup2\n        /* \"TEXOToken.sol\":43054:43066  pid < length */\n      lt\n        /* \"TEXOToken.sol\":43032:43115  for (uint256 pid = 0; pid < length; ++pid) {... */\n      iszero\n      tag_253\n      jumpi\n        /* \"TEXOToken.sol\":43089:43104  updatePool(pid) */\n      tag_255\n        /* \"TEXOToken.sol\":43100:43103  pid */\n      dup2\n        /* \"TEXOToken.sol\":43089:43099  updatePool */\n      tag_91\n        /* \"TEXOToken.sol\":43089:43104  updatePool(pid) */\n      jump\t// in\n    tag_255:\n        /* \"TEXOToken.sol\":43068:43073  ++pid */\n      dup1\n      0x01\n      add\n      swap1\n      pop\n        /* \"TEXOToken.sol\":43032:43115  for (uint256 pid = 0; pid < length; ++pid) {... */\n      jump(tag_252)\n    tag_253:\n      pop\n        /* \"TEXOToken.sol\":42946:43121  function massUpdatePools() public {... */\n      pop\n      jump\t// out\n        /* \"TEXOToken.sol\":54183:54630  function updateReferralBonusBp(uint256 _newRefBonusBp) public onlyOwner {... */\n    tag_103:\n        /* \"TEXOToken.sol\":11663:11675  _msgSender() */\n      tag_257\n        /* \"TEXOToken.sol\":11663:11673  _msgSender */\n      tag_188\n        /* \"TEXOToken.sol\":11663:11675  _msgSender() */\n      jump\t// in\n    tag_257:\n        /* \"TEXOToken.sol\":11653:11675  _owner == _msgSender() */\n      0xffffffffffffffffffffffffffffffffffffffff\n      and\n        /* \"TEXOToken.sol\":11653:11659  _owner */\n      0x00\n      dup1\n      sload\n      swap1\n      0x0100\n      exp\n      swap1\n      div\n      0xffffffffffffffffffffffffffffffffffffffff\n      and\n        /* \"TEXOToken.sol\":11653:11675  _owner == _msgSender() */\n      0xffffffffffffffffffffffffffffffffffffffff\n      and\n      eq\n        /* \"TEXOToken.sol\":11645:11712  require(_owner == _msgSender(), \"Ownable: caller is not the owner\") */\n      tag_258\n      jumpi\n      mload(0x40)\n      0x08c379a000000000000000000000000000000000000000000000000000000000\n      dup2\n      mstore\n      0x04\n      add\n      dup1\n      dup1\n      0x20\n      add\n      dup3\n      dup2\n      sub\n      dup3\n      mstore\n      0x20\n      dup2\n      mstore\n      0x20\n      add\n      dup1\n      0x4f776e61626c653a2063616c6c6572206973206e6f7420746865206f776e6572\n      dup2\n      mstore\n      pop\n      0x20\n      add\n      swap2\n      pop\n      pop\n      mload(0x40)\n      dup1\n      swap2\n      sub\n      swap1\n      revert\n    tag_258:\n        /* \"TEXOToken.sol\":36384:36388  2000 */\n      0x07d0\n        /* \"TEXOToken.sol\":54273:54310  _newRefBonusBp <= MAXIMUM_REFERRAL_BP */\n      0xffff\n      and\n        /* \"TEXOToken.sol\":54273:54287  _newRefBonusBp */\n      dup2\n        /* \"TEXOToken.sol\":54273:54310  _newRefBonusBp <= MAXIMUM_REFERRAL_BP */\n      gt\n      iszero\n        /* \"TEXOToken.sol\":54265:54373  require(_newRefBonusBp <= MAXIMUM_REFERRAL_BP, \"updateRefBonusPercent: invalid referral bonus basis points\") */\n      tag_260\n      jumpi\n      mload(0x40)\n      0x08c379a000000000000000000000000000000000000000000000000000000000\n      dup2\n      mstore\n      0x04\n      add\n      dup1\n      dup1\n      0x20\n      add\n      dup3\n      dup2\n      sub\n      dup3\n      mstore\n      0x3a\n      dup2\n      mstore\n      0x20\n      add\n      dup1\n      data_20a6bce988e8b6ff5852ac398e27735d1d8155a9d79e532ec3c3da13f504a6a4\n      0x3a\n      swap2\n      codecopy\n      0x40\n      add\n      swap2\n      pop\n      pop\n      mload(0x40)\n      dup1\n      swap2\n      sub\n      swap1\n      revert\n    tag_260:\n        /* \"TEXOToken.sol\":54409:54419  refBonusBP */\n      sload(0x0c)\n        /* \"TEXOToken.sol\":54391:54405  _newRefBonusBp */\n      dup2\n        /* \"TEXOToken.sol\":54391:54419  _newRefBonusBp != refBonusBP */\n      eq\n      iszero\n        /* \"TEXOToken.sol\":54383:54464  require(_newRefBonusBp != refBonusBP, \"updateRefBonusPercent: same bonus bp set\") */\n      tag_261\n      jumpi\n      mload(0x40)\n      0x08c379a000000000000000000000000000000000000000000000000000000000\n      dup2\n      mstore\n      0x04\n      add\n      dup1\n      dup1\n      0x20\n      add\n      dup3\n      dup2\n      sub\n      dup3\n      mstore\n      0x28\n      dup2\n      mstore\n      0x20\n      add\n      dup1\n      data_9d1a761c817eae8410d2081a433553cad78dcf01ebb754f58addc464260ba484\n      0x28\n      swap2\n      codecopy\n      0x40\n      add\n      swap2\n      pop\n      pop\n      mload(0x40)\n      dup1\n      swap2\n      sub\n      swap1\n      revert\n    tag_261:\n        /* \"TEXOToken.sol\":54474:54500  uint256 previousRefBonusBP */\n      0x00\n        /* \"TEXOToken.sol\":54503:54513  refBonusBP */\n      sload(0x0c)\n        /* \"TEXOToken.sol\":54474:54513  uint256 previousRefBonusBP = refBonusBP */\n      swap1\n      pop\n        /* \"TEXOToken.sol\":54536:54550  _newRefBonusBp */\n      dup2\n        /* \"TEXOToken.sol\":54523:54533  refBonusBP */\n      0x0c\n        /* \"TEXOToken.sol\":54523:54550  refBonusBP = _newRefBonusBp */\n      dup2\n      swap1\n      sstore\n      pop\n        /* \"TEXOToken.sol\":54565:54623  ReferralBonusBpChanged(previousRefBonusBP, _newRefBonusBp) */\n      0x3282b692bfebf5f35b198a229212cf532c72099026ab54c4b8665382d1086b3f\n        /* \"TEXOToken.sol\":54588:54606  previousRefBonusBP */\n      dup2\n        /* \"TEXOToken.sol\":54608:54622  _newRefBonusBp */\n      dup4\n        /* \"TEXOToken.sol\":54565:54623  ReferralBonusBpChanged(previousRefBonusBP, _newRefBonusBp) */\n      mload(0x40)\n      dup1\n      dup4\n      dup2\n      mstore\n      0x20\n      add\n      dup3\n      dup2\n      mstore\n      0x20\n      add\n      swap3\n      pop\n      pop\n      pop\n      mload(0x40)\n      dup1\n      swap2\n      sub\n      swap1\n      log1\n        /* \"TEXOToken.sol\":11722:11723  _ */\n      pop\n        /* \"TEXOToken.sol\":54183:54630  function updateReferralBonusBp(uint256 _newRefBonusBp) public onlyOwner {... */\n      pop\n      jump\t// out\n        /* \"TEXOToken.sol\":35499:35526  uint256 public tEXOPerBlock */\n    tag_105:\n      sload(0x04)\n      dup2\n      jump\t// out\n        /* \"TEXOToken.sol\":36173:36204  uint256 public refBonusBP = 100 */\n    tag_107:\n      sload(0x0c)\n      dup2\n      jump\t// out\n        /* \"TEXOToken.sol\":37290:37333  uint256 public lastReductionPeriodIndex = 0 */\n    tag_109:\n      sload(0x11)\n      dup2\n      jump\t// out\n        /* \"TEXOToken.sol\":12072:12209  function renounceOwnership() public onlyOwner {... */\n    tag_111:\n        /* \"TEXOToken.sol\":11663:11675  _msgSender() */\n      tag_263\n        /* \"TEXOToken.sol\":11663:11673  _msgSender */\n      tag_188\n        /* \"TEXOToken.sol\":11663:11675  _msgSender() */\n      jump\t// in\n    tag_263:\n        /* \"TEXOToken.sol\":11653:11675  _owner == _msgSender() */\n      0xffffffffffffffffffffffffffffffffffffffff\n      and\n        /* \"TEXOToken.sol\":11653:11659  _owner */\n      0x00\n      dup1\n      sload\n      swap1\n      0x0100\n      exp\n      swap1\n      div\n      0xffffffffffffffffffffffffffffffffffffffff\n      and\n        /* \"TEXOToken.sol\":11653:11675  _owner == _msgSender() */\n      0xffffffffffffffffffffffffffffffffffffffff\n      and\n      eq\n        /* \"TEXOToken.sol\":11645:11712  require(_owner == _msgSender(), \"Ownable: caller is not the owner\") */\n      tag_264\n      jumpi\n      mload(0x40)\n      0x08c379a000000000000000000000000000000000000000000000000000000000\n      dup2\n      mstore\n      0x04\n      add\n      dup1\n      dup1\n      0x20\n      add\n      dup3\n      dup2\n      sub\n      dup3\n      mstore\n      0x20\n      dup2\n      mstore\n      0x20\n      add\n      dup1\n      0x4f776e61626c653a2063616c6c6572206973206e6f7420746865206f776e6572\n      dup2\n      mstore\n      pop\n      0x20\n      add\n      swap2\n      pop\n      pop\n      mload(0x40)\n      dup1\n      swap2\n      sub\n      swap1\n      revert\n    tag_264:\n        /* \"TEXOToken.sol\":12170:12171  0 */\n      0x00\n        /* \"TEXOToken.sol\":12133:12173  OwnershipTransferred(_owner, address(0)) */\n      0xffffffffffffffffffffffffffffffffffffffff\n      and\n        /* \"TEXOToken.sol\":12154:12160  _owner */\n      0x00\n      dup1\n      sload\n      swap1\n      0x0100\n      exp\n      swap1\n      div\n      0xffffffffffffffffffffffffffffffffffffffff\n      and\n        /* \"TEXOToken.sol\":12133:12173  OwnershipTransferred(_owner, address(0)) */\n      0xffffffffffffffffffffffffffffffffffffffff\n      and\n      0x8be0079c531659141344cd1fd0a4f28419497f9722a3daafe3b4186f6b6457e0\n      mload(0x40)\n      mload(0x40)\n      dup1\n      swap2\n      sub\n      swap1\n      log3\n        /* \"TEXOToken.sol\":12200:12201  0 */\n      0x00\n        /* \"TEXOToken.sol\":12183:12189  _owner */\n      dup1\n      0x00\n        /* \"TEXOToken.sol\":12183:12202  _owner = address(0) */\n      0x0100\n      exp\n      dup2\n      sload\n      dup2\n      0xffffffffffffffffffffffffffffffffffffffff\n      mul\n      not\n      and\n      swap1\n      dup4\n      0xffffffffffffffffffffffffffffffffffffffff\n      and\n      mul\n      or\n      swap1\n      sstore\n      pop\n        /* \"TEXOToken.sol\":12072:12209  function renounceOwnership() public onlyOwner {... */\n      jump\t// out\n        /* \"TEXOToken.sol\":52568:52691  function setFlagAllowReduceEmissionRate(bool isAllow) public onlyOwner {... */\n    tag_114:\n        /* \"TEXOToken.sol\":11663:11675  _msgSender() */\n      tag_267\n        /* \"TEXOToken.sol\":11663:11673  _msgSender */\n      tag_188\n        /* \"TEXOToken.sol\":11663:11675  _msgSender() */\n      jump\t// in\n    tag_267:\n        /* \"TEXOToken.sol\":11653:11675  _owner == _msgSender() */\n      0xffffffffffffffffffffffffffffffffffffffff\n      and\n        /* \"TEXOToken.sol\":11653:11659  _owner */\n      0x00\n      dup1\n      sload\n      swap1\n      0x0100\n      exp\n      swap1\n      div\n      0xffffffffffffffffffffffffffffffffffffffff\n      and\n        /* \"TEXOToken.sol\":11653:11675  _owner == _msgSender() */\n      0xffffffffffffffffffffffffffffffffffffffff\n      and\n      eq\n        /* \"TEXOToken.sol\":11645:11712  require(_owner == _msgSender(), \"Ownable: caller is not the owner\") */\n      tag_268\n      jumpi\n      mload(0x40)\n      0x08c379a000000000000000000000000000000000000000000000000000000000\n      dup2\n      mstore\n      0x04\n      add\n      dup1\n      dup1\n      0x20\n      add\n      dup3\n      dup2\n      sub\n      dup3\n      mstore\n      0x20\n      dup2\n      mstore\n      0x20\n      add\n      dup1\n      0x4f776e61626c653a2063616c6c6572206973206e6f7420746865206f776e6572\n      dup2\n      mstore\n      pop\n      0x20\n      add\n      swap2\n      pop\n      pop\n      mload(0x40)\n      dup1\n      swap2\n      sub\n      swap1\n      revert\n    tag_268:\n        /* \"TEXOToken.sol\":52677:52684  isAllow */\n      dup1\n        /* \"TEXOToken.sol\":52649:52674  isAllowReduceEmissionRate */\n      0x12\n      0x00\n        /* \"TEXOToken.sol\":52649:52684  isAllowReduceEmissionRate = isAllow */\n      0x0100\n      exp\n      dup2\n      sload\n      dup2\n      0xff\n      mul\n      not\n      and\n      swap1\n      dup4\n      iszero\n      iszero\n      mul\n      or\n      swap1\n      sstore\n      pop\n        /* \"TEXOToken.sol\":52568:52691  function setFlagAllowReduceEmissionRate(bool isAllow) public onlyOwner {... */\n      pop\n      jump\t// out\n        /* \"TEXOToken.sol\":50722:51018  function setFeeAddress(address _feeAddress) public {... */\n    tag_117:\n        /* \"TEXOToken.sol\":50814:50815  0 */\n      0x00\n        /* \"TEXOToken.sol\":50791:50816  _feeAddress != address(0) */\n      0xffffffffffffffffffffffffffffffffffffffff\n      and\n        /* \"TEXOToken.sol\":50791:50802  _feeAddress */\n      dup2\n        /* \"TEXOToken.sol\":50791:50816  _feeAddress != address(0) */\n      0xffffffffffffffffffffffffffffffffffffffff\n      and\n      eq\n      iszero\n        /* \"TEXOToken.sol\":50783:50851  require(_feeAddress != address(0), \"setFeeAddress: invalid address\") */\n      tag_271\n      jumpi\n      mload(0x40)\n      0x08c379a000000000000000000000000000000000000000000000000000000000\n      dup2\n      mstore\n      0x04\n      add\n      dup1\n      dup1\n      0x20\n      add\n      dup3\n      dup2\n      sub\n      dup3\n      mstore\n      0x1e\n      dup2\n      mstore\n      0x20\n      add\n      dup1\n      0x736574466565416464726573733a20696e76616c696420616464726573730000\n      dup2\n      mstore\n      pop\n      0x20\n      add\n      swap2\n      pop\n      pop\n      mload(0x40)\n      dup1\n      swap2\n      sub\n      swap1\n      revert\n    tag_271:\n        /* \"TEXOToken.sol\":50883:50893  feeAddress */\n      0x05\n      0x00\n      swap1\n      sload\n      swap1\n      0x0100\n      exp\n      swap1\n      div\n      0xffffffffffffffffffffffffffffffffffffffff\n      and\n        /* \"TEXOToken.sol\":50869:50893  msg.sender == feeAddress */\n      0xffffffffffffffffffffffffffffffffffffffff\n      and\n        /* \"TEXOToken.sol\":50869:50879  msg.sender */\n      caller\n        /* \"TEXOToken.sol\":50869:50893  msg.sender == feeAddress */\n      0xffffffffffffffffffffffffffffffffffffffff\n      and\n      eq\n        /* \"TEXOToken.sol\":50861:50922  require(msg.sender == feeAddress, \"setFeeAddress: FORBIDDEN\") */\n      tag_272\n      jumpi\n      mload(0x40)\n      0x08c379a000000000000000000000000000000000000000000000000000000000\n      dup2\n      mstore\n      0x04\n      add\n      dup1\n      dup1\n      0x20\n      add\n      dup3\n      dup2\n      sub\n      dup3\n      mstore\n      0x18\n      dup2\n      mstore\n      0x20\n      add\n      dup1\n      0x736574466565416464726573733a20464f5242494444454e0000000000000000\n      dup2\n      mstore\n      pop\n      0x20\n      add\n      swap2\n      pop\n      pop\n      mload(0x40)\n      dup1\n      swap2\n      sub\n      swap1\n      revert\n    tag_272:\n        /* \"TEXOToken.sol\":50946:50957  _feeAddress */\n      dup1\n        /* \"TEXOToken.sol\":50933:50943  feeAddress */\n      0x05\n      0x00\n        /* \"TEXOToken.sol\":50933:50957  feeAddress = _feeAddress */\n      0x0100\n      exp\n      dup2\n      sload\n      dup2\n      0xffffffffffffffffffffffffffffffffffffffff\n      mul\n      not\n      and\n      swap1\n      dup4\n      0xffffffffffffffffffffffffffffffffffffffff\n      and\n      mul\n      or\n      swap1\n      sstore\n      pop\n        /* \"TEXOToken.sol\":50999:51010  _feeAddress */\n      dup1\n        /* \"TEXOToken.sol\":50973:51011  SetFeeAddress(msg.sender, _feeAddress) */\n      0xffffffffffffffffffffffffffffffffffffffff\n      and\n        /* \"TEXOToken.sol\":50987:50997  msg.sender */\n      caller\n        /* \"TEXOToken.sol\":50973:51011  SetFeeAddress(msg.sender, _feeAddress) */\n      0xffffffffffffffffffffffffffffffffffffffff\n      and\n      0xd44190acf9d04bdb5d3a1aafff7e6dee8b40b93dfb8c5d3f0eea4b9f4539c3f7\n      mload(0x40)\n      mload(0x40)\n      dup1\n      swap2\n      sub\n      swap1\n      log3\n        /* \"TEXOToken.sol\":50722:51018  function setFeeAddress(address _feeAddress) public {... */\n      pop\n      jump\t// out\n        /* \"TEXOToken.sol\":11449:11526  function owner() public view returns (address) {... */\n    tag_119:\n        /* \"TEXOToken.sol\":11487:11494  address */\n      0x00\n        /* \"TEXOToken.sol\":11513:11519  _owner */\n      dup1\n      0x00\n      swap1\n      sload\n      swap1\n      0x0100\n      exp\n      swap1\n      div\n      0xffffffffffffffffffffffffffffffffffffffff\n      and\n        /* \"TEXOToken.sol\":11506:11519  return _owner */\n      swap1\n      pop\n        /* \"TEXOToken.sol\":11449:11526  function owner() public view returns (address) {... */\n      swap1\n      jump\t// out\n        /* \"TEXOToken.sol\":41708:41827  function getMultiplier(uint256 _from, uint256 _to) public pure returns (uint256) {... */\n    tag_122:\n        /* \"TEXOToken.sol\":41780:41787  uint256 */\n      0x00\n        /* \"TEXOToken.sol\":41806:41820  _to.sub(_from) */\n      tag_275\n        /* \"TEXOToken.sol\":41814:41819  _from */\n      dup4\n        /* \"TEXOToken.sol\":41806:41809  _to */\n      dup4\n        /* \"TEXOToken.sol\":41806:41813  _to.sub */\n      tag_205\n      swap1\n        /* \"TEXOToken.sol\":41806:41820  _to.sub(_from) */\n      swap2\n      swap1\n      0xffffffff\n      and\n      jump\t// in\n    tag_275:\n        /* \"TEXOToken.sol\":41799:41820  return _to.sub(_from) */\n      swap1\n      pop\n        /* \"TEXOToken.sol\":41708:41827  function getMultiplier(uint256 _from, uint256 _to) public pure returns (uint256) {... */\n      swap3\n      swap2\n      pop\n      pop\n      jump\t// out\n        /* \"TEXOToken.sol\":46593:48350  function deposit(uint256 _pid, uint256 _amount, address _referrer) public nonReentrant {... */\n    tag_125:\n        /* \"TEXOToken.sol\":21196:21197  2 */\n      0x02\n        /* \"TEXOToken.sol\":21785:21792  _status */\n      sload(0x01)\n        /* \"TEXOToken.sol\":21785:21804  _status != _ENTERED */\n      eq\n      iszero\n        /* \"TEXOToken.sol\":21777:21840  require(_status != _ENTERED, \"ReentrancyGuard: reentrant call\") */\n      tag_277\n      jumpi\n      mload(0x40)\n      0x08c379a000000000000000000000000000000000000000000000000000000000\n      dup2\n      mstore\n      0x04\n      add\n      dup1\n      dup1\n      0x20\n      add\n      dup3\n      dup2\n      sub\n      dup3\n      mstore\n      0x1f\n      dup2\n      mstore\n      0x20\n      add\n      dup1\n      0x5265656e7472616e637947756172643a207265656e7472616e742063616c6c00\n      dup2\n      mstore\n      pop\n      0x20\n      add\n      swap2\n      pop\n      pop\n      mload(0x40)\n      dup1\n      swap2\n      sub\n      swap1\n      revert\n    tag_277:\n        /* \"TEXOToken.sol\":21196:21197  2 */\n      0x02\n        /* \"TEXOToken.sol\":21915:21922  _status */\n      0x01\n        /* \"TEXOToken.sol\":21915:21933  _status = _ENTERED */\n      dup2\n      swap1\n      sstore\n      pop\n        /* \"TEXOToken.sol\":46719:46728  _referrer */\n      dup1\n        /* \"TEXOToken.sol\":46698:46729  _referrer == address(_referrer) */\n      0xffffffffffffffffffffffffffffffffffffffff\n      and\n        /* \"TEXOToken.sol\":46698:46707  _referrer */\n      dup2\n        /* \"TEXOToken.sol\":46698:46729  _referrer == address(_referrer) */\n      0xffffffffffffffffffffffffffffffffffffffff\n      and\n      eq\n        /* \"TEXOToken.sol\":46690:46766  require(_referrer == address(_referrer),\"deposit: Invalid referrer address\") */\n      tag_279\n      jumpi\n      mload(0x40)\n      0x08c379a000000000000000000000000000000000000000000000000000000000\n      dup2\n      mstore\n      0x04\n      add\n      dup1\n      dup1\n      0x20\n      add\n      dup3\n      dup2\n      sub\n      dup3\n      mstore\n      0x21\n      dup2\n      mstore\n      0x20\n      add\n      dup1\n      data_542d191555ea619dedb1489efd71948659c57b11c6c1a84d1c1ce6e7c8074aad\n      0x21\n      swap2\n      codecopy\n      0x40\n      add\n      swap2\n      pop\n      pop\n      mload(0x40)\n      dup1\n      swap2\n      sub\n      swap1\n      revert\n    tag_279:\n        /* \"TEXOToken.sol\":46777:46798  PoolInfo storage pool */\n      0x00\n        /* \"TEXOToken.sol\":46801:46809  poolInfo */\n      0x09\n        /* \"TEXOToken.sol\":46810:46814  _pid */\n      dup5\n        /* \"TEXOToken.sol\":46801:46815  poolInfo[_pid] */\n      dup2\n      sload\n      dup2\n      lt\n      tag_280\n      jumpi\n      invalid\n    tag_280:\n      swap1\n      0x00\n      mstore\n      keccak256(0x00, 0x20)\n      swap1\n      0x06\n      mul\n      add\n        /* \"TEXOToken.sol\":46777:46815  PoolInfo storage pool = poolInfo[_pid] */\n      swap1\n      pop\n        /* \"TEXOToken.sol\":46825:46846  UserInfo storage user */\n      0x00\n        /* \"TEXOToken.sol\":46849:46857  userInfo */\n      0x0a\n        /* \"TEXOToken.sol\":46849:46863  userInfo[_pid] */\n      0x00\n        /* \"TEXOToken.sol\":46858:46862  _pid */\n      dup7\n        /* \"TEXOToken.sol\":46849:46863  userInfo[_pid] */\n      dup2\n      mstore\n      0x20\n      add\n      swap1\n      dup2\n      mstore\n      0x20\n      add\n      0x00\n      keccak256\n        /* \"TEXOToken.sol\":46849:46875  userInfo[_pid][msg.sender] */\n      0x00\n        /* \"TEXOToken.sol\":46864:46874  msg.sender */\n      caller\n        /* \"TEXOToken.sol\":46849:46875  userInfo[_pid][msg.sender] */\n      0xffffffffffffffffffffffffffffffffffffffff\n      and\n      0xffffffffffffffffffffffffffffffffffffffff\n      and\n      dup2\n      mstore\n      0x20\n      add\n      swap1\n      dup2\n      mstore\n      0x20\n      add\n      0x00\n      keccak256\n        /* \"TEXOToken.sol\":46825:46875  UserInfo storage user = userInfo[_pid][msg.sender] */\n      swap1\n      pop\n        /* \"TEXOToken.sol\":46886:46902  updatePool(_pid) */\n      tag_282\n        /* \"TEXOToken.sol\":46897:46901  _pid */\n      dup6\n        /* \"TEXOToken.sol\":46886:46896  updatePool */\n      tag_91\n        /* \"TEXOToken.sol\":46886:46902  updatePool(_pid) */\n      jump\t// in\n    tag_282:\n        /* \"TEXOToken.sol\":46931:46932  0 */\n      0x00\n        /* \"TEXOToken.sol\":46917:46921  user */\n      dup2\n        /* \"TEXOToken.sol\":46917:46928  user.amount */\n      0x00\n      add\n      sload\n        /* \"TEXOToken.sol\":46917:46932  user.amount > 0 */\n      gt\n        /* \"TEXOToken.sol\":46913:47467  if (user.amount > 0) {... */\n      iszero\n      tag_283\n      jumpi\n        /* \"TEXOToken.sol\":46948:46963  uint256 pending */\n      0x00\n        /* \"TEXOToken.sol\":46966:47085  user.amount... */\n      tag_284\n        /* \"TEXOToken.sol\":47069:47073  user */\n      dup3\n        /* \"TEXOToken.sol\":47069:47084  user.rewardDebt */\n      0x01\n      add\n      sload\n        /* \"TEXOToken.sol\":46966:47047  user.amount... */\n      tag_285\n        /* \"TEXOToken.sol\":47042:47046  1e12 */\n      0xe8d4a51000\n        /* \"TEXOToken.sol\":46966:47020  user.amount... */\n      tag_286\n        /* \"TEXOToken.sol\":46999:47003  pool */\n      dup8\n        /* \"TEXOToken.sol\":46999:47019  pool.accTEXOPerShare */\n      0x04\n      add\n      sload\n        /* \"TEXOToken.sol\":46966:46970  user */\n      dup8\n        /* \"TEXOToken.sol\":46966:46977  user.amount */\n      0x00\n      add\n      sload\n        /* \"TEXOToken.sol\":46966:46998  user.amount... */\n      tag_203\n      swap1\n        /* \"TEXOToken.sol\":46966:47020  user.amount... */\n      swap2\n      swap1\n      0xffffffff\n      and\n      jump\t// in\n    tag_286:\n        /* \"TEXOToken.sol\":46966:47041  user.amount... */\n      tag_204\n      swap1\n        /* \"TEXOToken.sol\":46966:47047  user.amount... */\n      swap2\n      swap1\n      0xffffffff\n      and\n      jump\t// in\n    tag_285:\n        /* \"TEXOToken.sol\":46966:47068  user.amount... */\n      tag_205\n      swap1\n        /* \"TEXOToken.sol\":46966:47085  user.amount... */\n      swap2\n      swap1\n      0xffffffff\n      and\n      jump\t// in\n    tag_284:\n        /* \"TEXOToken.sol\":46948:47085  uint256 pending = user.amount... */\n      swap1\n      pop\n        /* \"TEXOToken.sol\":47104:47124  bool canWithdrawTEXO */\n      0x00\n        /* \"TEXOToken.sol\":47127:47150  canWithdrawReward(_pid) */\n      tag_287\n        /* \"TEXOToken.sol\":47145:47149  _pid */\n      dup8\n        /* \"TEXOToken.sol\":47127:47144  canWithdrawReward */\n      tag_148\n        /* \"TEXOToken.sol\":47127:47150  canWithdrawReward(_pid) */\n      jump\t// in\n    tag_287:\n        /* \"TEXOToken.sol\":47104:47150  bool canWithdrawTEXO = canWithdrawReward(_pid) */\n      swap1\n      pop\n        /* \"TEXOToken.sol\":47169:47184  canWithdrawTEXO */\n      dup1\n        /* \"TEXOToken.sol\":47169:47199  canWithdrawTEXO && pending > 0 */\n      dup1\n      iszero\n      tag_288\n      jumpi\n      pop\n        /* \"TEXOToken.sol\":47198:47199  0 */\n      0x00\n        /* \"TEXOToken.sol\":47188:47195  pending */\n      dup3\n        /* \"TEXOToken.sol\":47188:47199  pending > 0 */\n      gt\n        /* \"TEXOToken.sol\":47169:47199  canWithdrawTEXO && pending > 0 */\n    tag_288:\n        /* \"TEXOToken.sol\":47165:47457  if (canWithdrawTEXO && pending > 0) {... */\n      iszero\n      tag_289\n      jumpi\n        /* \"TEXOToken.sol\":47219:47256  safeTEXOTransfer(msg.sender, pending) */\n      tag_290\n        /* \"TEXOToken.sol\":47236:47246  msg.sender */\n      caller\n        /* \"TEXOToken.sol\":47248:47255  pending */\n      dup4\n        /* \"TEXOToken.sol\":47219:47235  safeTEXOTransfer */\n      tag_209\n        /* \"TEXOToken.sol\":47219:47256  safeTEXOTransfer(msg.sender, pending) */\n      jump\t// in\n    tag_290:\n        /* \"TEXOToken.sol\":47274:47316  payReferralCommission(msg.sender, pending) */\n      tag_291\n        /* \"TEXOToken.sol\":47296:47306  msg.sender */\n      caller\n        /* \"TEXOToken.sol\":47308:47315  pending */\n      dup4\n        /* \"TEXOToken.sol\":47274:47295  payReferralCommission */\n      tag_211\n        /* \"TEXOToken.sol\":47274:47316  payReferralCommission(msg.sender, pending) */\n      jump\t// in\n    tag_291:\n        /* \"TEXOToken.sol\":47353:47442  user.amount... */\n      tag_292\n        /* \"TEXOToken.sol\":47437:47441  1e12 */\n      0xe8d4a51000\n        /* \"TEXOToken.sol\":47353:47411  user.amount... */\n      tag_293\n        /* \"TEXOToken.sol\":47390:47394  pool */\n      dup7\n        /* \"TEXOToken.sol\":47390:47410  pool.accTEXOPerShare */\n      0x04\n      add\n      sload\n        /* \"TEXOToken.sol\":47353:47357  user */\n      dup7\n        /* \"TEXOToken.sol\":47353:47364  user.amount */\n      0x00\n      add\n      sload\n        /* \"TEXOToken.sol\":47353:47389  user.amount... */\n      tag_203\n      swap1\n        /* \"TEXOToken.sol\":47353:47411  user.amount... */\n      swap2\n      swap1\n      0xffffffff\n      and\n      jump\t// in\n    tag_293:\n        /* \"TEXOToken.sol\":47353:47436  user.amount... */\n      tag_204\n      swap1\n        /* \"TEXOToken.sol\":47353:47442  user.amount... */\n      swap2\n      swap1\n      0xffffffff\n      and\n      jump\t// in\n    tag_292:\n        /* \"TEXOToken.sol\":47335:47339  user */\n      dup4\n        /* \"TEXOToken.sol\":47335:47350  user.rewardDebt */\n      0x01\n      add\n        /* \"TEXOToken.sol\":47335:47442  user.rewardDebt = user.amount... */\n      dup2\n      swap1\n      sstore\n      pop\n        /* \"TEXOToken.sol\":47165:47457  if (canWithdrawTEXO && pending > 0) {... */\n    tag_289:\n        /* \"TEXOToken.sol\":46913:47467  if (user.amount > 0) {... */\n      pop\n      pop\n    tag_283:\n        /* \"TEXOToken.sol\":47491:47492  0 */\n      0x00\n        /* \"TEXOToken.sol\":47481:47488  _amount */\n      dup5\n        /* \"TEXOToken.sol\":47481:47492  _amount > 0 */\n      gt\n        /* \"TEXOToken.sol\":47477:48079  if (_amount > 0) {... */\n      iszero\n      tag_294\n      jumpi\n        /* \"TEXOToken.sol\":47508:47542  setReferral(msg.sender, _referrer) */\n      tag_295\n        /* \"TEXOToken.sol\":47520:47530  msg.sender */\n      caller\n        /* \"TEXOToken.sol\":47532:47541  _referrer */\n      dup5\n        /* \"TEXOToken.sol\":47508:47519  setReferral */\n      tag_296\n        /* \"TEXOToken.sol\":47508:47542  setReferral(msg.sender, _referrer) */\n      jump\t// in\n    tag_295:\n        /* \"TEXOToken.sol\":47556:47630  pool.lpToken.safeTransferFrom(address(msg.sender), address(this), _amount) */\n      tag_297\n        /* \"TEXOToken.sol\":47594:47604  msg.sender */\n      caller\n        /* \"TEXOToken.sol\":47615:47619  this */\n      address\n        /* \"TEXOToken.sol\":47622:47629  _amount */\n      dup7\n        /* \"TEXOToken.sol\":47556:47560  pool */\n      dup6\n        /* \"TEXOToken.sol\":47556:47568  pool.lpToken */\n      0x00\n      add\n      0x00\n      swap1\n      sload\n      swap1\n      0x0100\n      exp\n      swap1\n      div\n      0xffffffffffffffffffffffffffffffffffffffff\n      and\n        /* \"TEXOToken.sol\":47556:47585  pool.lpToken.safeTransferFrom */\n      0xffffffffffffffffffffffffffffffffffffffff\n      and\n      tag_298\n      swap1\n        /* \"TEXOToken.sol\":47556:47630  pool.lpToken.safeTransferFrom(address(msg.sender), address(this), _amount) */\n      swap4\n      swap3\n      swap2\n      swap1\n      0xffffffff\n      and\n      jump\t// in\n    tag_297:\n        /* \"TEXOToken.sol\":47669:47670  0 */\n      0x00\n        /* \"TEXOToken.sol\":47649:47653  pool */\n      dup3\n        /* \"TEXOToken.sol\":47649:47666  pool.depositFeeBP */\n      0x05\n      add\n      0x00\n      swap1\n      sload\n      swap1\n      0x0100\n      exp\n      swap1\n      div\n      0xffff\n      and\n        /* \"TEXOToken.sol\":47649:47670  pool.depositFeeBP > 0 */\n      0xffff\n      and\n      gt\n        /* \"TEXOToken.sol\":47645:48069  if (pool.depositFeeBP > 0) {... */\n      iszero\n      tag_299\n      jumpi\n        /* \"TEXOToken.sol\":47690:47708  uint256 depositFee */\n      0x00\n        /* \"TEXOToken.sol\":47711:47794  _amount... */\n      tag_300\n        /* \"TEXOToken.sol\":47788:47793  10000 */\n      0x2710\n        /* \"TEXOToken.sol\":47711:47762  _amount... */\n      tag_301\n        /* \"TEXOToken.sol\":47744:47748  pool */\n      dup6\n        /* \"TEXOToken.sol\":47744:47761  pool.depositFeeBP */\n      0x05\n      add\n      0x00\n      swap1\n      sload\n      swap1\n      0x0100\n      exp\n      swap1\n      div\n      0xffff\n      and\n        /* \"TEXOToken.sol\":47711:47762  _amount... */\n      0xffff\n      and\n        /* \"TEXOToken.sol\":47711:47718  _amount */\n      dup9\n        /* \"TEXOToken.sol\":47711:47743  _amount... */\n      tag_203\n      swap1\n        /* \"TEXOToken.sol\":47711:47762  _amount... */\n      swap2\n      swap1\n      0xffffffff\n      and\n      jump\t// in\n    tag_301:\n        /* \"TEXOToken.sol\":47711:47787  _amount... */\n      tag_204\n      swap1\n        /* \"TEXOToken.sol\":47711:47794  _amount... */\n      swap2\n      swap1\n      0xffffffff\n      and\n      jump\t// in\n    tag_300:\n        /* \"TEXOToken.sol\":47690:47794  uint256 depositFee = _amount... */\n      swap1\n      pop\n        /* \"TEXOToken.sol\":47827:47909  user.amount... */\n      tag_302\n        /* \"TEXOToken.sol\":47898:47908  depositFee */\n      dup2\n        /* \"TEXOToken.sol\":47827:47872  user.amount... */\n      tag_303\n        /* \"TEXOToken.sol\":47864:47871  _amount */\n      dup8\n        /* \"TEXOToken.sol\":47827:47831  user */\n      dup6\n        /* \"TEXOToken.sol\":47827:47838  user.amount */\n      0x00\n      add\n      sload\n        /* \"TEXOToken.sol\":47827:47863  user.amount... */\n      tag_244\n      swap1\n        /* \"TEXOToken.sol\":47827:47872  user.amount... */\n      swap2\n      swap1\n      0xffffffff\n      and\n      jump\t// in\n    tag_303:\n        /* \"TEXOToken.sol\":47827:47897  user.amount... */\n      tag_205\n      swap1\n        /* \"TEXOToken.sol\":47827:47909  user.amount... */\n      swap2\n      swap1\n      0xffffffff\n      and\n      jump\t// in\n    tag_302:\n        /* \"TEXOToken.sol\":47813:47817  user */\n      dup3\n        /* \"TEXOToken.sol\":47813:47824  user.amount */\n      0x00\n      add\n        /* \"TEXOToken.sol\":47813:47909  user.amount = user.amount... */\n      dup2\n      swap1\n      sstore\n      pop\n        /* \"TEXOToken.sol\":47928:47977  pool.lpToken.safeTransfer(feeAddress, depositFee) */\n      tag_304\n        /* \"TEXOToken.sol\":47954:47964  feeAddress */\n      0x05\n      0x00\n      swap1\n      sload\n      swap1\n      0x0100\n      exp\n      swap1\n      div\n      0xffffffffffffffffffffffffffffffffffffffff\n      and\n        /* \"TEXOToken.sol\":47966:47976  depositFee */\n      dup3\n        /* \"TEXOToken.sol\":47928:47932  pool */\n      dup6\n        /* \"TEXOToken.sol\":47928:47940  pool.lpToken */\n      0x00\n      add\n      0x00\n      swap1\n      sload\n      swap1\n      0x0100\n      exp\n      swap1\n      div\n      0xffffffffffffffffffffffffffffffffffffffff\n      and\n        /* \"TEXOToken.sol\":47928:47953  pool.lpToken.safeTransfer */\n      0xffffffffffffffffffffffffffffffffffffffff\n      and\n      tag_217\n      swap1\n        /* \"TEXOToken.sol\":47928:47977  pool.lpToken.safeTransfer(feeAddress, depositFee) */\n      swap3\n      swap2\n      swap1\n      0xffffffff\n      and\n      jump\t// in\n    tag_304:\n        /* \"TEXOToken.sol\":47645:48069  if (pool.depositFeeBP > 0) {... */\n      pop\n      jump(tag_305)\n    tag_299:\n        /* \"TEXOToken.sol\":48030:48054  user.amount.add(_amount) */\n      tag_306\n        /* \"TEXOToken.sol\":48046:48053  _amount */\n      dup5\n        /* \"TEXOToken.sol\":48030:48034  user */\n      dup3\n        /* \"TEXOToken.sol\":48030:48041  user.amount */\n      0x00\n      add\n      sload\n        /* \"TEXOToken.sol\":48030:48045  user.amount.add */\n      tag_244\n      swap1\n        /* \"TEXOToken.sol\":48030:48054  user.amount.add(_amount) */\n      swap2\n      swap1\n      0xffffffff\n      and\n      jump\t// in\n    tag_306:\n        /* \"TEXOToken.sol\":48016:48020  user */\n      dup2\n        /* \"TEXOToken.sol\":48016:48027  user.amount */\n      0x00\n      add\n        /* \"TEXOToken.sol\":48016:48054  user.amount = user.amount.add(_amount) */\n      dup2\n      swap1\n      sstore\n      pop\n        /* \"TEXOToken.sol\":47645:48069  if (pool.depositFeeBP > 0) {... */\n    tag_305:\n        /* \"TEXOToken.sol\":47477:48079  if (_amount > 0) {... */\n    tag_294:\n        /* \"TEXOToken.sol\":48094:48098  user */\n      dup1\n        /* \"TEXOToken.sol\":48094:48114  user.isAlreadyStaked */\n      0x02\n      add\n      0x00\n      swap1\n      sload\n      swap1\n      0x0100\n      exp\n      swap1\n      div\n      0xff\n      and\n        /* \"TEXOToken.sol\":48089:48294  if (!user.isAlreadyStaked) {... */\n      tag_307\n      jumpi\n        /* \"TEXOToken.sol\":48148:48229  user.amount... */\n      tag_308\n        /* \"TEXOToken.sol\":48224:48228  1e12 */\n      0xe8d4a51000\n        /* \"TEXOToken.sol\":48148:48202  user.amount... */\n      tag_309\n        /* \"TEXOToken.sol\":48181:48185  pool */\n      dup5\n        /* \"TEXOToken.sol\":48181:48201  pool.accTEXOPerShare */\n      0x04\n      add\n      sload\n        /* \"TEXOToken.sol\":48148:48152  user */\n      dup5\n        /* \"TEXOToken.sol\":48148:48159  user.amount */\n      0x00\n      add\n      sload\n        /* \"TEXOToken.sol\":48148:48180  user.amount... */\n      tag_203\n      swap1\n        /* \"TEXOToken.sol\":48148:48202  user.amount... */\n      swap2\n      swap1\n      0xffffffff\n      and\n      jump\t// in\n    tag_309:\n        /* \"TEXOToken.sol\":48148:48223  user.amount... */\n      tag_204\n      swap1\n        /* \"TEXOToken.sol\":48148:48229  user.amount... */\n      swap2\n      swap1\n      0xffffffff\n      and\n      jump\t// in\n    tag_308:\n        /* \"TEXOToken.sol\":48130:48134  user */\n      dup2\n        /* \"TEXOToken.sol\":48130:48145  user.rewardDebt */\n      0x01\n      add\n        /* \"TEXOToken.sol\":48130:48229  user.rewardDebt = user.amount... */\n      dup2\n      swap1\n      sstore\n      pop\n        /* \"TEXOToken.sol\":48279:48283  true */\n      0x01\n        /* \"TEXOToken.sol\":48256:48260  user */\n      dup2\n        /* \"TEXOToken.sol\":48256:48276  user.isAlreadyStaked */\n      0x02\n      add\n      0x00\n        /* \"TEXOToken.sol\":48256:48283  user.isAlreadyStaked = true */\n      0x0100\n      exp\n      dup2\n      sload\n      dup2\n      0xff\n      mul\n      not\n      and\n      swap1\n      dup4\n      iszero\n      iszero\n      mul\n      or\n      swap1\n      sstore\n      pop\n        /* \"TEXOToken.sol\":48089:48294  if (!user.isAlreadyStaked) {... */\n    tag_307:\n        /* \"TEXOToken.sol\":48329:48333  _pid */\n      dup5\n        /* \"TEXOToken.sol\":48317:48327  msg.sender */\n      caller\n        /* \"TEXOToken.sol\":48309:48343  Deposit(msg.sender, _pid, _amount) */\n      0xffffffffffffffffffffffffffffffffffffffff\n      and\n      0x90890809c654f11d6e72a28fa60149770a0d11ec6c92319d6ceb2bb0a4ea1a15\n        /* \"TEXOToken.sol\":48335:48342  _amount */\n      dup7\n        /* \"TEXOToken.sol\":48309:48343  Deposit(msg.sender, _pid, _amount) */\n      mload(0x40)\n      dup1\n      dup3\n      dup2\n      mstore\n      0x20\n      add\n      swap2\n      pop\n      pop\n      mload(0x40)\n      dup1\n      swap2\n      sub\n      swap1\n      log3\n        /* \"TEXOToken.sol\":21944:21945  _ */\n      pop\n      pop\n        /* \"TEXOToken.sol\":21153:21154  1 */\n      0x01\n        /* \"TEXOToken.sol\":22088:22095  _status */\n      dup1\n        /* \"TEXOToken.sol\":22088:22110  _status = _NOT_ENTERED */\n      dup2\n      swap1\n      sstore\n      pop\n        /* \"TEXOToken.sol\":46593:48350  function deposit(uint256 _pid, uint256 _amount, address _referrer) public nonReentrant {... */\n      pop\n      pop\n      pop\n      jump\t// out\n        /* \"TEXOToken.sol\":36815:36873  uint256 public constant INITIAL_EMISSION_RATE = 500 finney */\n    tag_127:\n        /* \"TEXOToken.sol\":36863:36873  500 finney */\n      0x06f05b59d3b20000\n        /* \"TEXOToken.sol\":36815:36873  uint256 public constant INITIAL_EMISSION_RATE = 500 finney */\n      dup2\n      jump\t// out\n        /* \"TEXOToken.sol\":35917:35981  mapping(uint256 => mapping(address => UserInfo)) public userInfo */\n    tag_130:\n      mstore(0x20, 0x0a)\n      dup2\n      0x00\n      mstore\n      mstore(0x20, keccak256(0x00, 0x40))\n      dup1\n      0x00\n      mstore\n      keccak256(0x00, 0x40)\n      0x00\n      swap2\n      pop\n      swap2\n      pop\n      pop\n      dup1\n      0x00\n      add\n      sload\n      swap1\n      dup1\n      0x01\n      add\n      sload\n      swap1\n      dup1\n      0x02\n      add\n      0x00\n      swap1\n      sload\n      swap1\n      0x0100\n      exp\n      swap1\n      div\n      0xff\n      and\n      swap1\n      pop\n      dup4\n      jump\t// out\n        /* \"TEXOToken.sol\":36239:36291  uint16 public constant MAXIMUM_DEPOSIT_FEE_BP = 1000 */\n    tag_132:\n        /* \"TEXOToken.sol\":36287:36291  1000 */\n      0x03e8\n        /* \"TEXOToken.sol\":36239:36291  uint16 public constant MAXIMUM_DEPOSIT_FEE_BP = 1000 */\n      dup2\n      jump\t// out\n        /* \"TEXOToken.sol\":36706:36758  mapping(IBEP20 => uint256) public poolIdForLpAddress */\n    tag_135:\n      mstore(0x20, 0x10)\n      dup1\n      0x00\n      mstore\n      keccak256(0x00, 0x40)\n      0x00\n      swap2\n      pop\n      swap1\n      pop\n      sload\n      dup2\n      jump\t// out\n        /* \"TEXOToken.sol\":35698:35747  uint256 public globalBlockToUnlockClaimingRewards */\n    tag_137:\n      sload(0x07)\n      dup2\n      jump\t// out\n        /* \"TEXOToken.sol\":52697:52978  function setEmissionRate(uint256 newEmissionRate) public onlyOwner {... */\n    tag_140:\n        /* \"TEXOToken.sol\":11663:11675  _msgSender() */\n      tag_311\n        /* \"TEXOToken.sol\":11663:11673  _msgSender */\n      tag_188\n        /* \"TEXOToken.sol\":11663:11675  _msgSender() */\n      jump\t// in\n    tag_311:\n        /* \"TEXOToken.sol\":11653:11675  _owner == _msgSender() */\n      0xffffffffffffffffffffffffffffffffffffffff\n      and\n        /* \"TEXOToken.sol\":11653:11659  _owner */\n      0x00\n      dup1\n      sload\n      swap1\n      0x0100\n      exp\n      swap1\n      div\n      0xffffffffffffffffffffffffffffffffffffffff\n      and\n        /* \"TEXOToken.sol\":11653:11675  _owner == _msgSender() */\n      0xffffffffffffffffffffffffffffffffffffffff\n      and\n      eq\n        /* \"TEXOToken.sol\":11645:11712  require(_owner == _msgSender(), \"Ownable: caller is not the owner\") */\n      tag_312\n      jumpi\n      mload(0x40)\n      0x08c379a000000000000000000000000000000000000000000000000000000000\n      dup2\n      mstore\n      0x04\n      add\n      dup1\n      dup1\n      0x20\n      add\n      dup3\n      dup2\n      sub\n      dup3\n      mstore\n      0x20\n      dup2\n      mstore\n      0x20\n      add\n      dup1\n      0x4f776e61626c653a2063616c6c6572206973206e6f7420746865206f776e6572\n      dup2\n      mstore\n      pop\n      0x20\n      add\n      swap2\n      pop\n      pop\n      mload(0x40)\n      dup1\n      swap2\n      sub\n      swap1\n      revert\n    tag_312:\n        /* \"TEXOToken.sol\":52774:52802  uint256 previousEmissionRate */\n      0x00\n        /* \"TEXOToken.sol\":52805:52817  tEXOPerBlock */\n      sload(0x04)\n        /* \"TEXOToken.sol\":52774:52817  uint256 previousEmissionRate = tEXOPerBlock */\n      swap1\n      pop\n        /* \"TEXOToken.sol\":52842:52857  newEmissionRate */\n      dup2\n        /* \"TEXOToken.sol\":52827:52839  tEXOPerBlock */\n      0x04\n        /* \"TEXOToken.sol\":52827:52857  tEXOPerBlock = newEmissionRate */\n      dup2\n      swap1\n      sstore\n      pop\n        /* \"TEXOToken.sol\":52868:52885  massUpdatePools() */\n      tag_314\n        /* \"TEXOToken.sol\":52868:52883  massUpdatePools */\n      tag_100\n        /* \"TEXOToken.sol\":52868:52885  massUpdatePools() */\n      jump\t// in\n    tag_314:\n        /* \"TEXOToken.sol\":52921:52931  msg.sender */\n      caller\n        /* \"TEXOToken.sol\":52901:52971  EmissionRateUpdated(msg.sender, previousEmissionRate, newEmissionRate) */\n      0xffffffffffffffffffffffffffffffffffffffff\n      and\n      0xeedc6338c9c1ad8f3cd6c90dd09dbe98dbd57e610d3e59a17996d07acb0d9511\n        /* \"TEXOToken.sol\":52933:52953  previousEmissionRate */\n      dup3\n        /* \"TEXOToken.sol\":52955:52970  newEmissionRate */\n      dup5\n        /* \"TEXOToken.sol\":52901:52971  EmissionRateUpdated(msg.sender, previousEmissionRate, newEmissionRate) */\n      mload(0x40)\n      dup1\n      dup4\n      dup2\n      mstore\n      0x20\n      add\n      dup3\n      dup2\n      mstore\n      0x20\n      add\n      swap3\n      pop\n      pop\n      pop\n      mload(0x40)\n      dup1\n      swap2\n      sub\n      swap1\n      log2\n        /* \"TEXOToken.sol\":11722:11723  _ */\n      pop\n        /* \"TEXOToken.sol\":52697:52978  function setEmissionRate(uint256 newEmissionRate) public onlyOwner {... */\n      pop\n      jump\t// out\n        /* \"TEXOToken.sol\":35386:35407  TEXOToken public tEXO */\n    tag_142:\n      0x02\n      0x00\n      swap1\n      sload\n      swap1\n      0x0100\n      exp\n      swap1\n      div\n      0xffffffffffffffffffffffffffffffffffffffff\n      and\n      dup2\n      jump\t// out\n        /* \"TEXOToken.sol\":39037:39225  function setGlobalBlockToUnlockClaimingRewards(uint256 _blockToUnlockClaimingRewards) external onlyOwner {... */\n    tag_145:\n        /* \"TEXOToken.sol\":11663:11675  _msgSender() */\n      tag_316\n        /* \"TEXOToken.sol\":11663:11673  _msgSender */\n      tag_188\n        /* \"TEXOToken.sol\":11663:11675  _msgSender() */\n      jump\t// in\n    tag_316:\n        /* \"TEXOToken.sol\":11653:11675  _owner == _msgSender() */\n      0xffffffffffffffffffffffffffffffffffffffff\n      and\n        /* \"TEXOToken.sol\":11653:11659  _owner */\n      0x00\n      dup1\n      sload\n      swap1\n      0x0100\n      exp\n      swap1\n      div\n      0xffffffffffffffffffffffffffffffffffffffff\n      and\n        /* \"TEXOToken.sol\":11653:11675  _owner == _msgSender() */\n      0xffffffffffffffffffffffffffffffffffffffff\n      and\n      eq\n        /* \"TEXOToken.sol\":11645:11712  require(_owner == _msgSender(), \"Ownable: caller is not the owner\") */\n      tag_317\n      jumpi\n      mload(0x40)\n      0x08c379a000000000000000000000000000000000000000000000000000000000\n      dup2\n      mstore\n      0x04\n      add\n      dup1\n      dup1\n      0x20\n      add\n      dup3\n      dup2\n      sub\n      dup3\n      mstore\n      0x20\n      dup2\n      mstore\n      0x20\n      add\n      dup1\n      0x4f776e61626c653a2063616c6c6572206973206e6f7420746865206f776e6572\n      dup2\n      mstore\n      pop\n      0x20\n      add\n      swap2\n      pop\n      pop\n      mload(0x40)\n      dup1\n      swap2\n      sub\n      swap1\n      revert\n    tag_317:\n        /* \"TEXOToken.sol\":39189:39218  _blockToUnlockClaimingRewards */\n      dup1\n        /* \"TEXOToken.sol\":39152:39186  globalBlockToUnlockClaimingRewards */\n      0x07\n        /* \"TEXOToken.sol\":39152:39218  globalBlockToUnlockClaimingRewards = _blockToUnlockClaimingRewards */\n      dup2\n      swap1\n      sstore\n      pop\n        /* \"TEXOToken.sol\":39037:39225  function setGlobalBlockToUnlockClaimingRewards(uint256 _blockToUnlockClaimingRewards) external onlyOwner {... */\n      pop\n      jump\t// out\n        /* \"TEXOToken.sol\":44525:44707  function canWithdrawReward(uint256 _pid) public view returns (bool) {... */\n    tag_148:\n        /* \"TEXOToken.sol\":44587:44591  bool */\n      0x00\n        /* \"TEXOToken.sol\":44603:44624  PoolInfo storage pool */\n      dup1\n        /* \"TEXOToken.sol\":44627:44635  poolInfo */\n      0x09\n        /* \"TEXOToken.sol\":44636:44640  _pid */\n      dup4\n        /* \"TEXOToken.sol\":44627:44641  poolInfo[_pid] */\n      dup2\n      sload\n      dup2\n      lt\n      tag_320\n      jumpi\n      invalid\n    tag_320:\n      swap1\n      0x00\n      mstore\n      keccak256(0x00, 0x20)\n      swap1\n      0x06\n      mul\n      add\n        /* \"TEXOToken.sol\":44603:44641  PoolInfo storage pool = poolInfo[_pid] */\n      swap1\n      pop\n        /* \"TEXOToken.sol\":44688:44700  block.number */\n      number\n        /* \"TEXOToken.sol\":44659:44663  pool */\n      dup2\n        /* \"TEXOToken.sol\":44659:44684  pool.blockToReceiveReward */\n      0x02\n      add\n      sload\n        /* \"TEXOToken.sol\":44659:44700  pool.blockToReceiveReward <= block.number */\n      gt\n      iszero\n        /* \"TEXOToken.sol\":44652:44700  return pool.blockToReceiveReward <= block.number */\n      swap2\n      pop\n      pop\n        /* \"TEXOToken.sol\":44525:44707  function canWithdrawReward(uint256 _pid) public view returns (bool) {... */\n      swap2\n      swap1\n      pop\n      jump\t// out\n        /* \"TEXOToken.sol\":37184:37249  uint256 public constant EMISSION_REDUCTION_RATE_PER_PERIOD = 1500 */\n    tag_150:\n        /* \"TEXOToken.sol\":37245:37249  1500 */\n      0x05dc\n        /* \"TEXOToken.sol\":37184:37249  uint256 public constant EMISSION_REDUCTION_RATE_PER_PERIOD = 1500 */\n      dup2\n      jump\t// out\n        /* \"TEXOToken.sol\":40866:41635  function set(... */\n    tag_153:\n        /* \"TEXOToken.sol\":11663:11675  _msgSender() */\n      tag_323\n        /* \"TEXOToken.sol\":11663:11673  _msgSender */\n      tag_188\n        /* \"TEXOToken.sol\":11663:11675  _msgSender() */\n      jump\t// in\n    tag_323:\n        /* \"TEXOToken.sol\":11653:11675  _owner == _msgSender() */\n      0xffffffffffffffffffffffffffffffffffffffff\n      and\n        /* \"TEXOToken.sol\":11653:11659  _owner */\n      0x00\n      dup1\n      sload\n      swap1\n      0x0100\n      exp\n      swap1\n      div\n      0xffffffffffffffffffffffffffffffffffffffff\n      and\n        /* \"TEXOToken.sol\":11653:11675  _owner == _msgSender() */\n      0xffffffffffffffffffffffffffffffffffffffff\n      and\n      eq\n        /* \"TEXOToken.sol\":11645:11712  require(_owner == _msgSender(), \"Ownable: caller is not the owner\") */\n      tag_324\n      jumpi\n      mload(0x40)\n      0x08c379a000000000000000000000000000000000000000000000000000000000\n      dup2\n      mstore\n      0x04\n      add\n      dup1\n      dup1\n      0x20\n      add\n      dup3\n      dup2\n      sub\n      dup3\n      mstore\n      0x20\n      dup2\n      mstore\n      0x20\n      add\n      dup1\n      0x4f776e61626c653a2063616c6c6572206973206e6f7420746865206f776e6572\n      dup2\n      mstore\n      pop\n      0x20\n      add\n      swap2\n      pop\n      pop\n      mload(0x40)\n      dup1\n      swap2\n      sub\n      swap1\n      revert\n    tag_324:\n        /* \"TEXOToken.sol\":36287:36291  1000 */\n      0x03e8\n        /* \"TEXOToken.sol\":41066:41105  _depositFeeBP <= MAXIMUM_DEPOSIT_FEE_BP */\n      0xffff\n      and\n        /* \"TEXOToken.sol\":41066:41079  _depositFeeBP */\n      dup4\n        /* \"TEXOToken.sol\":41066:41105  _depositFeeBP <= MAXIMUM_DEPOSIT_FEE_BP */\n      0xffff\n      and\n      gt\n      iszero\n        /* \"TEXOToken.sol\":41058:41147  require(_depositFeeBP <= MAXIMUM_DEPOSIT_FEE_BP, \"set: invalid deposit fee basis points\") */\n      tag_326\n      jumpi\n      mload(0x40)\n      0x08c379a000000000000000000000000000000000000000000000000000000000\n      dup2\n      mstore\n      0x04\n      add\n      dup1\n      dup1\n      0x20\n      add\n      dup3\n      dup2\n      sub\n      dup3\n      mstore\n      0x25\n      dup2\n      mstore\n      0x20\n      add\n      dup1\n      data_9353dfb5d58f0da66015bbcadafa0686e2e7b7226db2e603088e70c7012680cf\n      0x25\n      swap2\n      codecopy\n      0x40\n      add\n      swap2\n      pop\n      pop\n      mload(0x40)\n      dup1\n      swap2\n      sub\n      swap1\n      revert\n    tag_326:\n        /* \"TEXOToken.sol\":41161:41172  _withUpdate */\n      dup2\n        /* \"TEXOToken.sol\":41157:41216  if (_withUpdate) {... */\n      iszero\n      tag_327\n      jumpi\n        /* \"TEXOToken.sol\":41188:41205  massUpdatePools() */\n      tag_328\n        /* \"TEXOToken.sol\":41188:41203  massUpdatePools */\n      tag_100\n        /* \"TEXOToken.sol\":41188:41205  massUpdatePools() */\n      jump\t// in\n    tag_328:\n        /* \"TEXOToken.sol\":41157:41216  if (_withUpdate) {... */\n    tag_327:\n        /* \"TEXOToken.sol\":41226:41254  uint256 blockToReceiveReward */\n      0x00\n        /* \"TEXOToken.sol\":41281:41282  0 */\n      dup1\n        /* \"TEXOToken.sol\":41257:41278  _blockToReceiveReward */\n      dup3\n        /* \"TEXOToken.sol\":41257:41282  _blockToReceiveReward > 0 */\n      gt\n        /* \"TEXOToken.sol\":41257:41343  _blockToReceiveReward > 0 ? _blockToReceiveReward : globalBlockToUnlockClaimingRewards */\n      tag_329\n      jumpi\n        /* \"TEXOToken.sol\":41309:41343  globalBlockToUnlockClaimingRewards */\n      sload(0x07)\n        /* \"TEXOToken.sol\":41257:41343  _blockToReceiveReward > 0 ? _blockToReceiveReward : globalBlockToUnlockClaimingRewards */\n      jump(tag_330)\n    tag_329:\n        /* \"TEXOToken.sol\":41285:41306  _blockToReceiveReward */\n      dup2\n        /* \"TEXOToken.sol\":41257:41343  _blockToReceiveReward > 0 ? _blockToReceiveReward : globalBlockToUnlockClaimingRewards */\n    tag_330:\n        /* \"TEXOToken.sol\":41226:41343  uint256 blockToReceiveReward = _blockToReceiveReward > 0 ? _blockToReceiveReward : globalBlockToUnlockClaimingRewards */\n      swap1\n      pop\n        /* \"TEXOToken.sol\":41372:41457  totalAllocPoint.sub(poolInfo[_pid].allocPoint).add(... */\n      tag_331\n        /* \"TEXOToken.sol\":41436:41447  _allocPoint */\n      dup6\n        /* \"TEXOToken.sol\":41372:41418  totalAllocPoint.sub(poolInfo[_pid].allocPoint) */\n      tag_332\n        /* \"TEXOToken.sol\":41392:41400  poolInfo */\n      0x09\n        /* \"TEXOToken.sol\":41401:41405  _pid */\n      dup10\n        /* \"TEXOToken.sol\":41392:41406  poolInfo[_pid] */\n      dup2\n      sload\n      dup2\n      lt\n      tag_333\n      jumpi\n      invalid\n    tag_333:\n      swap1\n      0x00\n      mstore\n      keccak256(0x00, 0x20)\n      swap1\n      0x06\n      mul\n      add\n        /* \"TEXOToken.sol\":41392:41417  poolInfo[_pid].allocPoint */\n      0x01\n      add\n      sload\n        /* \"TEXOToken.sol\":41372:41387  totalAllocPoint */\n      sload(0x0b)\n        /* \"TEXOToken.sol\":41372:41391  totalAllocPoint.sub */\n      tag_205\n      swap1\n        /* \"TEXOToken.sol\":41372:41418  totalAllocPoint.sub(poolInfo[_pid].allocPoint) */\n      swap2\n      swap1\n      0xffffffff\n      and\n      jump\t// in\n    tag_332:\n        /* \"TEXOToken.sol\":41372:41422  totalAllocPoint.sub(poolInfo[_pid].allocPoint).add */\n      tag_244\n      swap1\n        /* \"TEXOToken.sol\":41372:41457  totalAllocPoint.sub(poolInfo[_pid].allocPoint).add(... */\n      swap2\n      swap1\n      0xffffffff\n      and\n      jump\t// in\n    tag_331:\n        /* \"TEXOToken.sol\":41354:41369  totalAllocPoint */\n      0x0b\n        /* \"TEXOToken.sol\":41354:41457  totalAllocPoint = totalAllocPoint.sub(poolInfo[_pid].allocPoint).add(... */\n      dup2\n      swap1\n      sstore\n      pop\n        /* \"TEXOToken.sol\":41496:41507  _allocPoint */\n      dup5\n        /* \"TEXOToken.sol\":41468:41476  poolInfo */\n      0x09\n        /* \"TEXOToken.sol\":41477:41481  _pid */\n      dup8\n        /* \"TEXOToken.sol\":41468:41482  poolInfo[_pid] */\n      dup2\n      sload\n      dup2\n      lt\n      tag_335\n      jumpi\n      invalid\n    tag_335:\n      swap1\n      0x00\n      mstore\n      keccak256(0x00, 0x20)\n      swap1\n      0x06\n      mul\n      add\n        /* \"TEXOToken.sol\":41468:41493  poolInfo[_pid].allocPoint */\n      0x01\n      add\n        /* \"TEXOToken.sol\":41468:41507  poolInfo[_pid].allocPoint = _allocPoint */\n      dup2\n      swap1\n      sstore\n      pop\n        /* \"TEXOToken.sol\":41547:41560  _depositFeeBP */\n      dup4\n        /* \"TEXOToken.sol\":41517:41525  poolInfo */\n      0x09\n        /* \"TEXOToken.sol\":41526:41530  _pid */\n      dup8\n        /* \"TEXOToken.sol\":41517:41531  poolInfo[_pid] */\n      dup2\n      sload\n      dup2\n      lt\n      tag_337\n      jumpi\n      invalid\n    tag_337:\n      swap1\n      0x00\n      mstore\n      keccak256(0x00, 0x20)\n      swap1\n      0x06\n      mul\n      add\n        /* \"TEXOToken.sol\":41517:41544  poolInfo[_pid].depositFeeBP */\n      0x05\n      add\n      0x00\n        /* \"TEXOToken.sol\":41517:41560  poolInfo[_pid].depositFeeBP = _depositFeeBP */\n      0x0100\n      exp\n      dup2\n      sload\n      dup2\n      0xffff\n      mul\n      not\n      and\n      swap1\n      dup4\n      0xffff\n      and\n      mul\n      or\n      swap1\n      sstore\n      pop\n        /* \"TEXOToken.sol\":41608:41628  blockToReceiveReward */\n      dup1\n        /* \"TEXOToken.sol\":41570:41578  poolInfo */\n      0x09\n        /* \"TEXOToken.sol\":41579:41583  _pid */\n      dup8\n        /* \"TEXOToken.sol\":41570:41584  poolInfo[_pid] */\n      dup2\n      sload\n      dup2\n      lt\n      tag_339\n      jumpi\n      invalid\n    tag_339:\n      swap1\n      0x00\n      mstore\n      keccak256(0x00, 0x20)\n      swap1\n      0x06\n      mul\n      add\n        /* \"TEXOToken.sol\":41570:41605  poolInfo[_pid].blockToReceiveReward */\n      0x02\n      add\n        /* \"TEXOToken.sol\":41570:41628  poolInfo[_pid].blockToReceiveReward = blockToReceiveReward */\n      dup2\n      swap1\n      sstore\n      pop\n        /* \"TEXOToken.sol\":11722:11723  _ */\n      pop\n        /* \"TEXOToken.sol\":40866:41635  function set(... */\n      pop\n      pop\n      pop\n      pop\n      pop\n      jump\t// out\n        /* \"TEXOToken.sol\":36626:36670  mapping(IBEP20 => bool) public poolExistence */\n    tag_156:\n      mstore(0x20, 0x0f)\n      dup1\n      0x00\n      mstore\n      keccak256(0x00, 0x40)\n      0x00\n      swap2\n      pop\n      sload\n      swap1\n      0x0100\n      exp\n      swap1\n      div\n      0xff\n      and\n      dup2\n      jump\t// out\n        /* \"TEXOToken.sol\":50408:50661  function setDevAddress(address _devaddr) public {... */\n    tag_159:\n        /* \"TEXOToken.sol\":50494:50495  0 */\n      0x00\n        /* \"TEXOToken.sol\":50474:50496  _devaddr != address(0) */\n      0xffffffffffffffffffffffffffffffffffffffff\n      and\n        /* \"TEXOToken.sol\":50474:50482  _devaddr */\n      dup2\n        /* \"TEXOToken.sol\":50474:50496  _devaddr != address(0) */\n      0xffffffffffffffffffffffffffffffffffffffff\n      and\n      eq\n      iszero\n        /* \"TEXOToken.sol\":50466:50521  require(_devaddr != address(0), \"dev: invalid address\") */\n      tag_342\n      jumpi\n      mload(0x40)\n      0x08c379a000000000000000000000000000000000000000000000000000000000\n      dup2\n      mstore\n      0x04\n      add\n      dup1\n      dup1\n      0x20\n      add\n      dup3\n      dup2\n      sub\n      dup3\n      mstore\n      0x14\n      dup2\n      mstore\n      0x20\n      add\n      dup1\n      0x6465763a20696e76616c69642061646472657373000000000000000000000000\n      dup2\n      mstore\n      pop\n      0x20\n      add\n      swap2\n      pop\n      pop\n      mload(0x40)\n      dup1\n      swap2\n      sub\n      swap1\n      revert\n    tag_342:\n        /* \"TEXOToken.sol\":50553:50560  devAddr */\n      0x03\n      0x00\n      swap1\n      sload\n      swap1\n      0x0100\n      exp\n      swap1\n      div\n      0xffffffffffffffffffffffffffffffffffffffff\n      and\n        /* \"TEXOToken.sol\":50539:50560  msg.sender == devAddr */\n      0xffffffffffffffffffffffffffffffffffffffff\n      and\n        /* \"TEXOToken.sol\":50539:50549  msg.sender */\n      caller\n        /* \"TEXOToken.sol\":50539:50560  msg.sender == devAddr */\n      0xffffffffffffffffffffffffffffffffffffffff\n      and\n      eq\n        /* \"TEXOToken.sol\":50531:50574  require(msg.sender == devAddr, \"dev: wut?\") */\n      tag_343\n      jumpi\n      mload(0x40)\n      0x08c379a000000000000000000000000000000000000000000000000000000000\n      dup2\n      mstore\n      0x04\n      add\n      dup1\n      dup1\n      0x20\n      add\n      dup3\n      dup2\n      sub\n      dup3\n      mstore\n      0x09\n      dup2\n      mstore\n      0x20\n      add\n      dup1\n      0x6465763a207775743f0000000000000000000000000000000000000000000000\n      dup2\n      mstore\n      pop\n      0x20\n      add\n      swap2\n      pop\n      pop\n      mload(0x40)\n      dup1\n      swap2\n      sub\n      swap1\n      revert\n    tag_343:\n        /* \"TEXOToken.sol\":50595:50603  _devaddr */\n      dup1\n        /* \"TEXOToken.sol\":50585:50592  devAddr */\n      0x03\n      0x00\n        /* \"TEXOToken.sol\":50585:50603  devAddr = _devaddr */\n      0x0100\n      exp\n      dup2\n      sload\n      dup2\n      0xffffffffffffffffffffffffffffffffffffffff\n      mul\n      not\n      and\n      swap1\n      dup4\n      0xffffffffffffffffffffffffffffffffffffffff\n      and\n      mul\n      or\n      swap1\n      sstore\n      pop\n        /* \"TEXOToken.sol\":50645:50653  _devaddr */\n      dup1\n        /* \"TEXOToken.sol\":50619:50654  SetDevAddress(msg.sender, _devaddr) */\n      0xffffffffffffffffffffffffffffffffffffffff\n      and\n        /* \"TEXOToken.sol\":50633:50643  msg.sender */\n      caller\n        /* \"TEXOToken.sol\":50619:50654  SetDevAddress(msg.sender, _devaddr) */\n      0xffffffffffffffffffffffffffffffffffffffff\n      and\n      0x618c54559e94f1499a808aad71ee8729f8e74e8c48e979616328ce493a1a52e7\n      mload(0x40)\n      mload(0x40)\n      dup1\n      swap2\n      sub\n      swap1\n      log3\n        /* \"TEXOToken.sol\":50408:50661  function setDevAddress(address _devaddr) public {... */\n      pop\n      jump\t// out\n        /* \"TEXOToken.sol\":37050:37114  uint256 public constant EMISSION_REDUCTION_PERIOD_BLOCKS = 28800 */\n    tag_161:\n        /* \"TEXOToken.sol\":37109:37114  28800 */\n      0x7080\n        /* \"TEXOToken.sol\":37050:37114  uint256 public constant EMISSION_REDUCTION_PERIOD_BLOCKS = 28800 */\n      dup2\n      jump\t// out\n        /* \"TEXOToken.sol\":35433:35455  address public devAddr */\n    tag_163:\n      0x03\n      0x00\n      swap1\n      sload\n      swap1\n      0x0100\n      exp\n      swap1\n      div\n      0xffffffffffffffffffffffffffffffffffffffff\n      and\n      dup2\n      jump\t// out\n        /* \"TEXOToken.sol\":41888:42866  function pendingTEXO(uint256 _pid, address _user) external view returns (uint256) {... */\n    tag_166:\n        /* \"TEXOToken.sol\":41961:41968  uint256 */\n      0x00\n        /* \"TEXOToken.sol\":41980:42001  PoolInfo storage pool */\n      dup1\n        /* \"TEXOToken.sol\":42004:42012  poolInfo */\n      0x09\n        /* \"TEXOToken.sol\":42013:42017  _pid */\n      dup5\n        /* \"TEXOToken.sol\":42004:42018  poolInfo[_pid] */\n      dup2\n      sload\n      dup2\n      lt\n      tag_345\n      jumpi\n      invalid\n    tag_345:\n      swap1\n      0x00\n      mstore\n      keccak256(0x00, 0x20)\n      swap1\n      0x06\n      mul\n      add\n        /* \"TEXOToken.sol\":41980:42018  PoolInfo storage pool = poolInfo[_pid] */\n      swap1\n      pop\n        /* \"TEXOToken.sol\":42028:42049  UserInfo storage user */\n      0x00\n        /* \"TEXOToken.sol\":42052:42060  userInfo */\n      0x0a\n        /* \"TEXOToken.sol\":42052:42066  userInfo[_pid] */\n      0x00\n        /* \"TEXOToken.sol\":42061:42065  _pid */\n      dup7\n        /* \"TEXOToken.sol\":42052:42066  userInfo[_pid] */\n      dup2\n      mstore\n      0x20\n      add\n      swap1\n      dup2\n      mstore\n      0x20\n      add\n      0x00\n      keccak256\n        /* \"TEXOToken.sol\":42052:42073  userInfo[_pid][_user] */\n      0x00\n        /* \"TEXOToken.sol\":42067:42072  _user */\n      dup6\n        /* \"TEXOToken.sol\":42052:42073  userInfo[_pid][_user] */\n      0xffffffffffffffffffffffffffffffffffffffff\n      and\n      0xffffffffffffffffffffffffffffffffffffffff\n      and\n      dup2\n      mstore\n      0x20\n      add\n      swap1\n      dup2\n      mstore\n      0x20\n      add\n      0x00\n      keccak256\n        /* \"TEXOToken.sol\":42028:42073  UserInfo storage user = userInfo[_pid][_user] */\n      swap1\n      pop\n        /* \"TEXOToken.sol\":42084:42107  uint256 accTEXOPerShare */\n      0x00\n        /* \"TEXOToken.sol\":42110:42114  pool */\n      dup3\n        /* \"TEXOToken.sol\":42110:42130  pool.accTEXOPerShare */\n      0x04\n      add\n      sload\n        /* \"TEXOToken.sol\":42084:42130  uint256 accTEXOPerShare = pool.accTEXOPerShare */\n      swap1\n      pop\n        /* \"TEXOToken.sol\":42140:42156  uint256 lpSupply */\n      0x00\n        /* \"TEXOToken.sol\":42159:42163  pool */\n      dup4\n        /* \"TEXOToken.sol\":42159:42171  pool.lpToken */\n      0x00\n      add\n      0x00\n      swap1\n      sload\n      swap1\n      0x0100\n      exp\n      swap1\n      div\n      0xffffffffffffffffffffffffffffffffffffffff\n      and\n        /* \"TEXOToken.sol\":42159:42181  pool.lpToken.balanceOf */\n      0xffffffffffffffffffffffffffffffffffffffff\n      and\n      0x70a08231\n        /* \"TEXOToken.sol\":42190:42194  this */\n      address\n        /* \"TEXOToken.sol\":42159:42196  pool.lpToken.balanceOf(address(this)) */\n      mload(0x40)\n      dup3\n      0xffffffff\n      and\n      0xe0\n      shl\n      dup2\n      mstore\n      0x04\n      add\n      dup1\n      dup3\n      0xffffffffffffffffffffffffffffffffffffffff\n      and\n      dup2\n      mstore\n      0x20\n      add\n      swap2\n      pop\n      pop\n      0x20\n      mload(0x40)\n      dup1\n      dup4\n      sub\n      dup2\n      dup7\n      dup1\n      extcodesize\n      iszero\n      dup1\n      iszero\n      tag_347\n      jumpi\n      0x00\n      dup1\n      revert\n    tag_347:\n      pop\n      gas\n      staticcall\n      iszero\n      dup1\n      iszero\n      tag_349\n      jumpi\n      returndatasize\n      0x00\n      dup1\n      returndatacopy\n      revert(0x00, returndatasize)\n    tag_349:\n      pop\n      pop\n      pop\n      pop\n      mload(0x40)\n      returndatasize\n      0x20\n      dup2\n      lt\n      iszero\n      tag_350\n      jumpi\n      0x00\n      dup1\n      revert\n    tag_350:\n      dup2\n      add\n      swap1\n      dup1\n      dup1\n      mload\n      swap1\n      0x20\n      add\n      swap1\n      swap3\n      swap2\n      swap1\n      pop\n      pop\n      pop\n        /* \"TEXOToken.sol\":42140:42196  uint256 lpSupply = pool.lpToken.balanceOf(address(this)) */\n      swap1\n      pop\n        /* \"TEXOToken.sol\":42211:42238  canGenerateTexoReward(_pid) */\n      tag_351\n        /* \"TEXOToken.sol\":42233:42237  _pid */\n      dup8\n        /* \"TEXOToken.sol\":42211:42232  canGenerateTexoReward */\n      tag_174\n        /* \"TEXOToken.sol\":42211:42238  canGenerateTexoReward(_pid) */\n      jump\t// in\n    tag_351:\n        /* \"TEXOToken.sol\":42211:42277  canGenerateTexoReward(_pid) && block.number > pool.lastRewardBlock */\n      dup1\n      iszero\n      tag_352\n      jumpi\n      pop\n        /* \"TEXOToken.sol\":42257:42261  pool */\n      dup4\n        /* \"TEXOToken.sol\":42257:42277  pool.lastRewardBlock */\n      0x03\n      add\n      sload\n        /* \"TEXOToken.sol\":42242:42254  block.number */\n      number\n        /* \"TEXOToken.sol\":42242:42277  block.number > pool.lastRewardBlock */\n      gt\n        /* \"TEXOToken.sol\":42211:42277  canGenerateTexoReward(_pid) && block.number > pool.lastRewardBlock */\n    tag_352:\n        /* \"TEXOToken.sol\":42211:42294  canGenerateTexoReward(_pid) && block.number > pool.lastRewardBlock && lpSupply != 0 */\n      dup1\n      iszero\n      tag_353\n      jumpi\n      pop\n        /* \"TEXOToken.sol\":42293:42294  0 */\n      0x00\n        /* \"TEXOToken.sol\":42281:42289  lpSupply */\n      dup2\n        /* \"TEXOToken.sol\":42281:42294  lpSupply != 0 */\n      eq\n      iszero\n        /* \"TEXOToken.sol\":42211:42294  canGenerateTexoReward(_pid) && block.number > pool.lastRewardBlock && lpSupply != 0 */\n    tag_353:\n        /* \"TEXOToken.sol\":42207:42740  if (canGenerateTexoReward(_pid) && block.number > pool.lastRewardBlock && lpSupply != 0) {... */\n      iszero\n      tag_354\n      jumpi\n        /* \"TEXOToken.sol\":42310:42328  uint256 multiplier */\n      0x00\n        /* \"TEXOToken.sol\":42331:42380  getMultiplier(pool.lastRewardBlock, block.number) */\n      tag_355\n        /* \"TEXOToken.sol\":42345:42349  pool */\n      dup6\n        /* \"TEXOToken.sol\":42345:42365  pool.lastRewardBlock */\n      0x03\n      add\n      sload\n        /* \"TEXOToken.sol\":42367:42379  block.number */\n      number\n        /* \"TEXOToken.sol\":42331:42344  getMultiplier */\n      tag_122\n        /* \"TEXOToken.sol\":42331:42380  getMultiplier(pool.lastRewardBlock, block.number) */\n      jump\t// in\n    tag_355:\n        /* \"TEXOToken.sol\":42310:42380  uint256 multiplier = getMultiplier(pool.lastRewardBlock, block.number) */\n      swap1\n      pop\n        /* \"TEXOToken.sol\":42394:42412  uint256 tEXOReward */\n      0x00\n        /* \"TEXOToken.sol\":42415:42536  multiplier... */\n      tag_356\n        /* \"TEXOToken.sol\":42520:42535  totalAllocPoint */\n      sload(0x0b)\n        /* \"TEXOToken.sol\":42415:42498  multiplier... */\n      tag_357\n        /* \"TEXOToken.sol\":42482:42486  pool */\n      dup9\n        /* \"TEXOToken.sol\":42482:42497  pool.allocPoint */\n      0x01\n      add\n      sload\n        /* \"TEXOToken.sol\":42415:42460  multiplier... */\n      tag_358\n        /* \"TEXOToken.sol\":42447:42459  tEXOPerBlock */\n      sload(0x04)\n        /* \"TEXOToken.sol\":42415:42425  multiplier */\n      dup8\n        /* \"TEXOToken.sol\":42415:42446  multiplier... */\n      tag_203\n      swap1\n        /* \"TEXOToken.sol\":42415:42460  multiplier... */\n      swap2\n      swap1\n      0xffffffff\n      and\n      jump\t// in\n    tag_358:\n        /* \"TEXOToken.sol\":42415:42481  multiplier... */\n      tag_203\n      swap1\n        /* \"TEXOToken.sol\":42415:42498  multiplier... */\n      swap2\n      swap1\n      0xffffffff\n      and\n      jump\t// in\n    tag_357:\n        /* \"TEXOToken.sol\":42415:42519  multiplier... */\n      tag_204\n      swap1\n        /* \"TEXOToken.sol\":42415:42536  multiplier... */\n      swap2\n      swap1\n      0xffffffff\n      and\n      jump\t// in\n    tag_356:\n        /* \"TEXOToken.sol\":42394:42536  uint256 tEXOReward = multiplier... */\n      swap1\n      pop\n        /* \"TEXOToken.sol\":42569:42729  accTEXOPerShare... */\n      tag_359\n        /* \"TEXOToken.sol\":42627:42711  tEXOReward... */\n      tag_360\n        /* \"TEXOToken.sol\":42702:42710  lpSupply */\n      dup5\n        /* \"TEXOToken.sol\":42627:42672  tEXOReward... */\n      tag_361\n        /* \"TEXOToken.sol\":42667:42671  1e12 */\n      0xe8d4a51000\n        /* \"TEXOToken.sol\":42627:42637  tEXOReward */\n      dup6\n        /* \"TEXOToken.sol\":42627:42666  tEXOReward... */\n      tag_203\n      swap1\n        /* \"TEXOToken.sol\":42627:42672  tEXOReward... */\n      swap2\n      swap1\n      0xffffffff\n      and\n      jump\t// in\n    tag_361:\n        /* \"TEXOToken.sol\":42627:42701  tEXOReward... */\n      tag_204\n      swap1\n        /* \"TEXOToken.sol\":42627:42711  tEXOReward... */\n      swap2\n      swap1\n      0xffffffff\n      and\n      jump\t// in\n    tag_360:\n        /* \"TEXOToken.sol\":42569:42584  accTEXOPerShare */\n      dup6\n        /* \"TEXOToken.sol\":42569:42605  accTEXOPerShare... */\n      tag_244\n      swap1\n        /* \"TEXOToken.sol\":42569:42729  accTEXOPerShare... */\n      swap2\n      swap1\n      0xffffffff\n      and\n      jump\t// in\n    tag_359:\n        /* \"TEXOToken.sol\":42551:42729  accTEXOPerShare = accTEXOPerShare... */\n      swap4\n      pop\n        /* \"TEXOToken.sol\":42207:42740  if (canGenerateTexoReward(_pid) && block.number > pool.lastRewardBlock && lpSupply != 0) {... */\n      pop\n      pop\n    tag_354:\n        /* \"TEXOToken.sol\":42757:42859  user.amount... */\n      tag_362\n        /* \"TEXOToken.sol\":42843:42847  user */\n      dup4\n        /* \"TEXOToken.sol\":42843:42858  user.rewardDebt */\n      0x01\n      add\n      sload\n        /* \"TEXOToken.sol\":42757:42825  user.amount... */\n      tag_363\n        /* \"TEXOToken.sol\":42820:42824  1e12 */\n      0xe8d4a51000\n        /* \"TEXOToken.sol\":42757:42802  user.amount... */\n      tag_364\n        /* \"TEXOToken.sol\":42786:42801  accTEXOPerShare */\n      dup7\n        /* \"TEXOToken.sol\":42757:42761  user */\n      dup9\n        /* \"TEXOToken.sol\":42757:42768  user.amount */\n      0x00\n      add\n      sload\n        /* \"TEXOToken.sol\":42757:42785  user.amount... */\n      tag_203\n      swap1\n        /* \"TEXOToken.sol\":42757:42802  user.amount... */\n      swap2\n      swap1\n      0xffffffff\n      and\n      jump\t// in\n    tag_364:\n        /* \"TEXOToken.sol\":42757:42819  user.amount... */\n      tag_204\n      swap1\n        /* \"TEXOToken.sol\":42757:42825  user.amount... */\n      swap2\n      swap1\n      0xffffffff\n      and\n      jump\t// in\n    tag_363:\n        /* \"TEXOToken.sol\":42757:42842  user.amount... */\n      tag_205\n      swap1\n        /* \"TEXOToken.sol\":42757:42859  user.amount... */\n      swap2\n      swap1\n      0xffffffff\n      and\n      jump\t// in\n    tag_362:\n        /* \"TEXOToken.sol\":42750:42859  return user.amount... */\n      swap5\n      pop\n      pop\n      pop\n      pop\n      pop\n        /* \"TEXOToken.sol\":41888:42866  function pendingTEXO(uint256 _pid, address _user) external view returns (uint256) {... */\n      swap3\n      swap2\n      pop\n      pop\n      jump\t// out\n        /* \"TEXOToken.sol\":44974:46513  function deposit(uint256 _pid, uint256 _amount) public nonReentrant {... */\n    tag_169:\n        /* \"TEXOToken.sol\":21196:21197  2 */\n      0x02\n        /* \"TEXOToken.sol\":21785:21792  _status */\n      sload(0x01)\n        /* \"TEXOToken.sol\":21785:21804  _status != _ENTERED */\n      eq\n      iszero\n        /* \"TEXOToken.sol\":21777:21840  require(_status != _ENTERED, \"ReentrancyGuard: reentrant call\") */\n      tag_366\n      jumpi\n      mload(0x40)\n      0x08c379a000000000000000000000000000000000000000000000000000000000\n      dup2\n      mstore\n      0x04\n      add\n      dup1\n      dup1\n      0x20\n      add\n      dup3\n      dup2\n      sub\n      dup3\n      mstore\n      0x1f\n      dup2\n      mstore\n      0x20\n      add\n      dup1\n      0x5265656e7472616e637947756172643a207265656e7472616e742063616c6c00\n      dup2\n      mstore\n      pop\n      0x20\n      add\n      swap2\n      pop\n      pop\n      mload(0x40)\n      dup1\n      swap2\n      sub\n      swap1\n      revert\n    tag_366:\n        /* \"TEXOToken.sol\":21196:21197  2 */\n      0x02\n        /* \"TEXOToken.sol\":21915:21922  _status */\n      0x01\n        /* \"TEXOToken.sol\":21915:21933  _status = _ENTERED */\n      dup2\n      swap1\n      sstore\n      pop\n        /* \"TEXOToken.sol\":45052:45073  PoolInfo storage pool */\n      0x00\n        /* \"TEXOToken.sol\":45076:45084  poolInfo */\n      0x09\n        /* \"TEXOToken.sol\":45085:45089  _pid */\n      dup4\n        /* \"TEXOToken.sol\":45076:45090  poolInfo[_pid] */\n      dup2\n      sload\n      dup2\n      lt\n      tag_368\n      jumpi\n      invalid\n    tag_368:\n      swap1\n      0x00\n      mstore\n      keccak256(0x00, 0x20)\n      swap1\n      0x06\n      mul\n      add\n        /* \"TEXOToken.sol\":45052:45090  PoolInfo storage pool = poolInfo[_pid] */\n      swap1\n      pop\n        /* \"TEXOToken.sol\":45100:45121  UserInfo storage user */\n      0x00\n        /* \"TEXOToken.sol\":45124:45132  userInfo */\n      0x0a\n        /* \"TEXOToken.sol\":45124:45138  userInfo[_pid] */\n      0x00\n        /* \"TEXOToken.sol\":45133:45137  _pid */\n      dup6\n        /* \"TEXOToken.sol\":45124:45138  userInfo[_pid] */\n      dup2\n      mstore\n      0x20\n      add\n      swap1\n      dup2\n      mstore\n      0x20\n      add\n      0x00\n      keccak256\n        /* \"TEXOToken.sol\":45124:45150  userInfo[_pid][msg.sender] */\n      0x00\n        /* \"TEXOToken.sol\":45139:45149  msg.sender */\n      caller\n        /* \"TEXOToken.sol\":45124:45150  userInfo[_pid][msg.sender] */\n      0xffffffffffffffffffffffffffffffffffffffff\n      and\n      0xffffffffffffffffffffffffffffffffffffffff\n      and\n      dup2\n      mstore\n      0x20\n      add\n      swap1\n      dup2\n      mstore\n      0x20\n      add\n      0x00\n      keccak256\n        /* \"TEXOToken.sol\":45100:45150  UserInfo storage user = userInfo[_pid][msg.sender] */\n      swap1\n      pop\n        /* \"TEXOToken.sol\":45161:45177  updatePool(_pid) */\n      tag_370\n        /* \"TEXOToken.sol\":45172:45176  _pid */\n      dup5\n        /* \"TEXOToken.sol\":45161:45171  updatePool */\n      tag_91\n        /* \"TEXOToken.sol\":45161:45177  updatePool(_pid) */\n      jump\t// in\n    tag_370:\n        /* \"TEXOToken.sol\":45206:45207  0 */\n      0x00\n        /* \"TEXOToken.sol\":45192:45196  user */\n      dup2\n        /* \"TEXOToken.sol\":45192:45203  user.amount */\n      0x00\n      add\n      sload\n        /* \"TEXOToken.sol\":45192:45207  user.amount > 0 */\n      gt\n        /* \"TEXOToken.sol\":45188:45678  if (user.amount > 0) {... */\n      iszero\n      tag_371\n      jumpi\n        /* \"TEXOToken.sol\":45223:45238  uint256 pending */\n      0x00\n        /* \"TEXOToken.sol\":45241:45360  user.amount... */\n      tag_372\n        /* \"TEXOToken.sol\":45344:45348  user */\n      dup3\n        /* \"TEXOToken.sol\":45344:45359  user.rewardDebt */\n      0x01\n      add\n      sload\n        /* \"TEXOToken.sol\":45241:45322  user.amount... */\n      tag_373\n        /* \"TEXOToken.sol\":45317:45321  1e12 */\n      0xe8d4a51000\n        /* \"TEXOToken.sol\":45241:45295  user.amount... */\n      tag_374\n        /* \"TEXOToken.sol\":45274:45278  pool */\n      dup8\n        /* \"TEXOToken.sol\":45274:45294  pool.accTEXOPerShare */\n      0x04\n      add\n      sload\n        /* \"TEXOToken.sol\":45241:45245  user */\n      dup8\n        /* \"TEXOToken.sol\":45241:45252  user.amount */\n      0x00\n      add\n      sload\n        /* \"TEXOToken.sol\":45241:45273  user.amount... */\n      tag_203\n      swap1\n        /* \"TEXOToken.sol\":45241:45295  user.amount... */\n      swap2\n      swap1\n      0xffffffff\n      and\n      jump\t// in\n    tag_374:\n        /* \"TEXOToken.sol\":45241:45316  user.amount... */\n      tag_204\n      swap1\n        /* \"TEXOToken.sol\":45241:45322  user.amount... */\n      swap2\n      swap1\n      0xffffffff\n      and\n      jump\t// in\n    tag_373:\n        /* \"TEXOToken.sol\":45241:45343  user.amount... */\n      tag_205\n      swap1\n        /* \"TEXOToken.sol\":45241:45360  user.amount... */\n      swap2\n      swap1\n      0xffffffff\n      and\n      jump\t// in\n    tag_372:\n        /* \"TEXOToken.sol\":45223:45360  uint256 pending = user.amount... */\n      swap1\n      pop\n        /* \"TEXOToken.sol\":45375:45395  bool canWithdrawTEXO */\n      0x00\n        /* \"TEXOToken.sol\":45398:45421  canWithdrawReward(_pid) */\n      tag_375\n        /* \"TEXOToken.sol\":45416:45420  _pid */\n      dup7\n        /* \"TEXOToken.sol\":45398:45415  canWithdrawReward */\n      tag_148\n        /* \"TEXOToken.sol\":45398:45421  canWithdrawReward(_pid) */\n      jump\t// in\n    tag_375:\n        /* \"TEXOToken.sol\":45375:45421  bool canWithdrawTEXO = canWithdrawReward(_pid) */\n      swap1\n      pop\n        /* \"TEXOToken.sol\":45440:45455  canWithdrawTEXO */\n      dup1\n        /* \"TEXOToken.sol\":45440:45470  canWithdrawTEXO && pending > 0 */\n      dup1\n      iszero\n      tag_376\n      jumpi\n      pop\n        /* \"TEXOToken.sol\":45469:45470  0 */\n      0x00\n        /* \"TEXOToken.sol\":45459:45466  pending */\n      dup3\n        /* \"TEXOToken.sol\":45459:45470  pending > 0 */\n      gt\n        /* \"TEXOToken.sol\":45440:45470  canWithdrawTEXO && pending > 0 */\n    tag_376:\n        /* \"TEXOToken.sol\":45436:45668  if (canWithdrawTEXO && pending > 0) {... */\n      iszero\n      tag_377\n      jumpi\n        /* \"TEXOToken.sol\":45490:45527  safeTEXOTransfer(msg.sender, pending) */\n      tag_378\n        /* \"TEXOToken.sol\":45507:45517  msg.sender */\n      caller\n        /* \"TEXOToken.sol\":45519:45526  pending */\n      dup4\n        /* \"TEXOToken.sol\":45490:45506  safeTEXOTransfer */\n      tag_209\n        /* \"TEXOToken.sol\":45490:45527  safeTEXOTransfer(msg.sender, pending) */\n      jump\t// in\n    tag_378:\n        /* \"TEXOToken.sol\":45564:45653  user.amount... */\n      tag_379\n        /* \"TEXOToken.sol\":45648:45652  1e12 */\n      0xe8d4a51000\n        /* \"TEXOToken.sol\":45564:45622  user.amount... */\n      tag_380\n        /* \"TEXOToken.sol\":45601:45605  pool */\n      dup7\n        /* \"TEXOToken.sol\":45601:45621  pool.accTEXOPerShare */\n      0x04\n      add\n      sload\n        /* \"TEXOToken.sol\":45564:45568  user */\n      dup7\n        /* \"TEXOToken.sol\":45564:45575  user.amount */\n      0x00\n      add\n      sload\n        /* \"TEXOToken.sol\":45564:45600  user.amount... */\n      tag_203\n      swap1\n        /* \"TEXOToken.sol\":45564:45622  user.amount... */\n      swap2\n      swap1\n      0xffffffff\n      and\n      jump\t// in\n    tag_380:\n        /* \"TEXOToken.sol\":45564:45647  user.amount... */\n      tag_204\n      swap1\n        /* \"TEXOToken.sol\":45564:45653  user.amount... */\n      swap2\n      swap1\n      0xffffffff\n      and\n      jump\t// in\n    tag_379:\n        /* \"TEXOToken.sol\":45546:45550  user */\n      dup4\n        /* \"TEXOToken.sol\":45546:45561  user.rewardDebt */\n      0x01\n      add\n        /* \"TEXOToken.sol\":45546:45653  user.rewardDebt = user.amount... */\n      dup2\n      swap1\n      sstore\n      pop\n        /* \"TEXOToken.sol\":45436:45668  if (canWithdrawTEXO && pending > 0) {... */\n    tag_377:\n        /* \"TEXOToken.sol\":45188:45678  if (user.amount > 0) {... */\n      pop\n      pop\n    tag_371:\n        /* \"TEXOToken.sol\":45702:45703  0 */\n      0x00\n        /* \"TEXOToken.sol\":45692:45699  _amount */\n      dup4\n        /* \"TEXOToken.sol\":45692:45703  _amount > 0 */\n      gt\n        /* \"TEXOToken.sol\":45688:46242  if (_amount > 0) {... */\n      iszero\n      tag_381\n      jumpi\n        /* \"TEXOToken.sol\":45719:45793  pool.lpToken.safeTransferFrom(address(msg.sender), address(this), _amount) */\n      tag_382\n        /* \"TEXOToken.sol\":45757:45767  msg.sender */\n      caller\n        /* \"TEXOToken.sol\":45778:45782  this */\n      address\n        /* \"TEXOToken.sol\":45785:45792  _amount */\n      dup6\n        /* \"TEXOToken.sol\":45719:45723  pool */\n      dup6\n        /* \"TEXOToken.sol\":45719:45731  pool.lpToken */\n      0x00\n      add\n      0x00\n      swap1\n      sload\n      swap1\n      0x0100\n      exp\n      swap1\n      div\n      0xffffffffffffffffffffffffffffffffffffffff\n      and\n        /* \"TEXOToken.sol\":45719:45748  pool.lpToken.safeTransferFrom */\n      0xffffffffffffffffffffffffffffffffffffffff\n      and\n      tag_298\n      swap1\n        /* \"TEXOToken.sol\":45719:45793  pool.lpToken.safeTransferFrom(address(msg.sender), address(this), _amount) */\n      swap4\n      swap3\n      swap2\n      swap1\n      0xffffffff\n      and\n      jump\t// in\n    tag_382:\n        /* \"TEXOToken.sol\":45832:45833  0 */\n      0x00\n        /* \"TEXOToken.sol\":45812:45816  pool */\n      dup3\n        /* \"TEXOToken.sol\":45812:45829  pool.depositFeeBP */\n      0x05\n      add\n      0x00\n      swap1\n      sload\n      swap1\n      0x0100\n      exp\n      swap1\n      div\n      0xffff\n      and\n        /* \"TEXOToken.sol\":45812:45833  pool.depositFeeBP > 0 */\n      0xffff\n      and\n      gt\n        /* \"TEXOToken.sol\":45808:46232  if (pool.depositFeeBP > 0) {... */\n      iszero\n      tag_383\n      jumpi\n        /* \"TEXOToken.sol\":45853:45871  uint256 depositFee */\n      0x00\n        /* \"TEXOToken.sol\":45874:45957  _amount... */\n      tag_384\n        /* \"TEXOToken.sol\":45951:45956  10000 */\n      0x2710\n        /* \"TEXOToken.sol\":45874:45925  _amount... */\n      tag_385\n        /* \"TEXOToken.sol\":45907:45911  pool */\n      dup6\n        /* \"TEXOToken.sol\":45907:45924  pool.depositFeeBP */\n      0x05\n      add\n      0x00\n      swap1\n      sload\n      swap1\n      0x0100\n      exp\n      swap1\n      div\n      0xffff\n      and\n        /* \"TEXOToken.sol\":45874:45925  _amount... */\n      0xffff\n      and\n        /* \"TEXOToken.sol\":45874:45881  _amount */\n      dup8\n        /* \"TEXOToken.sol\":45874:45906  _amount... */\n      tag_203\n      swap1\n        /* \"TEXOToken.sol\":45874:45925  _amount... */\n      swap2\n      swap1\n      0xffffffff\n      and\n      jump\t// in\n    tag_385:\n        /* \"TEXOToken.sol\":45874:45950  _amount... */\n      tag_204\n      swap1\n        /* \"TEXOToken.sol\":45874:45957  _amount... */\n      swap2\n      swap1\n      0xffffffff\n      and\n      jump\t// in\n    tag_384:\n        /* \"TEXOToken.sol\":45853:45957  uint256 depositFee = _amount... */\n      swap1\n      pop\n        /* \"TEXOToken.sol\":45990:46072  user.amount... */\n      tag_386\n        /* \"TEXOToken.sol\":46061:46071  depositFee */\n      dup2\n        /* \"TEXOToken.sol\":45990:46035  user.amount... */\n      tag_387\n        /* \"TEXOToken.sol\":46027:46034  _amount */\n      dup7\n        /* \"TEXOToken.sol\":45990:45994  user */\n      dup6\n        /* \"TEXOToken.sol\":45990:46001  user.amount */\n      0x00\n      add\n      sload\n        /* \"TEXOToken.sol\":45990:46026  user.amount... */\n      tag_244\n      swap1\n        /* \"TEXOToken.sol\":45990:46035  user.amount... */\n      swap2\n      swap1\n      0xffffffff\n      and\n      jump\t// in\n    tag_387:\n        /* \"TEXOToken.sol\":45990:46060  user.amount... */\n      tag_205\n      swap1\n        /* \"TEXOToken.sol\":45990:46072  user.amount... */\n      swap2\n      swap1\n      0xffffffff\n      and\n      jump\t// in\n    tag_386:\n        /* \"TEXOToken.sol\":45976:45980  user */\n      dup3\n        /* \"TEXOToken.sol\":45976:45987  user.amount */\n      0x00\n      add\n        /* \"TEXOToken.sol\":45976:46072  user.amount = user.amount... */\n      dup2\n      swap1\n      sstore\n      pop\n        /* \"TEXOToken.sol\":46091:46140  pool.lpToken.safeTransfer(feeAddress, depositFee) */\n      tag_388\n        /* \"TEXOToken.sol\":46117:46127  feeAddress */\n      0x05\n      0x00\n      swap1\n      sload\n      swap1\n      0x0100\n      exp\n      swap1\n      div\n      0xffffffffffffffffffffffffffffffffffffffff\n      and\n        /* \"TEXOToken.sol\":46129:46139  depositFee */\n      dup3\n        /* \"TEXOToken.sol\":46091:46095  pool */\n      dup6\n        /* \"TEXOToken.sol\":46091:46103  pool.lpToken */\n      0x00\n      add\n      0x00\n      swap1\n      sload\n      swap1\n      0x0100\n      exp\n      swap1\n      div\n      0xffffffffffffffffffffffffffffffffffffffff\n      and\n        /* \"TEXOToken.sol\":46091:46116  pool.lpToken.safeTransfer */\n      0xffffffffffffffffffffffffffffffffffffffff\n      and\n      tag_217\n      swap1\n        /* \"TEXOToken.sol\":46091:46140  pool.lpToken.safeTransfer(feeAddress, depositFee) */\n      swap3\n      swap2\n      swap1\n      0xffffffff\n      and\n      jump\t// in\n    tag_388:\n        /* \"TEXOToken.sol\":45808:46232  if (pool.depositFeeBP > 0) {... */\n      pop\n      jump(tag_389)\n    tag_383:\n        /* \"TEXOToken.sol\":46193:46217  user.amount.add(_amount) */\n      tag_390\n        /* \"TEXOToken.sol\":46209:46216  _amount */\n      dup4\n        /* \"TEXOToken.sol\":46193:46197  user */\n      dup3\n        /* \"TEXOToken.sol\":46193:46204  user.amount */\n      0x00\n      add\n      sload\n        /* \"TEXOToken.sol\":46193:46208  user.amount.add */\n      tag_244\n      swap1\n        /* \"TEXOToken.sol\":46193:46217  user.amount.add(_amount) */\n      swap2\n      swap1\n      0xffffffff\n      and\n      jump\t// in\n    tag_390:\n        /* \"TEXOToken.sol\":46179:46183  user */\n      dup2\n        /* \"TEXOToken.sol\":46179:46190  user.amount */\n      0x00\n      add\n        /* \"TEXOToken.sol\":46179:46217  user.amount = user.amount.add(_amount) */\n      dup2\n      swap1\n      sstore\n      pop\n        /* \"TEXOToken.sol\":45808:46232  if (pool.depositFeeBP > 0) {... */\n    tag_389:\n        /* \"TEXOToken.sol\":45688:46242  if (_amount > 0) {... */\n    tag_381:\n        /* \"TEXOToken.sol\":46257:46261  user */\n      dup1\n        /* \"TEXOToken.sol\":46257:46277  user.isAlreadyStaked */\n      0x02\n      add\n      0x00\n      swap1\n      sload\n      swap1\n      0x0100\n      exp\n      swap1\n      div\n      0xff\n      and\n        /* \"TEXOToken.sol\":46252:46457  if (!user.isAlreadyStaked) {... */\n      tag_391\n      jumpi\n        /* \"TEXOToken.sol\":46311:46392  user.amount... */\n      tag_392\n        /* \"TEXOToken.sol\":46387:46391  1e12 */\n      0xe8d4a51000\n        /* \"TEXOToken.sol\":46311:46365  user.amount... */\n      tag_393\n        /* \"TEXOToken.sol\":46344:46348  pool */\n      dup5\n        /* \"TEXOToken.sol\":46344:46364  pool.accTEXOPerShare */\n      0x04\n      add\n      sload\n        /* \"TEXOToken.sol\":46311:46315  user */\n      dup5\n        /* \"TEXOToken.sol\":46311:46322  user.amount */\n      0x00\n      add\n      sload\n        /* \"TEXOToken.sol\":46311:46343  user.amount... */\n      tag_203\n      swap1\n        /* \"TEXOToken.sol\":46311:46365  user.amount... */\n      swap2\n      swap1\n      0xffffffff\n      and\n      jump\t// in\n    tag_393:\n        /* \"TEXOToken.sol\":46311:46386  user.amount... */\n      tag_204\n      swap1\n        /* \"TEXOToken.sol\":46311:46392  user.amount... */\n      swap2\n      swap1\n      0xffffffff\n      and\n      jump\t// in\n    tag_392:\n        /* \"TEXOToken.sol\":46293:46297  user */\n      dup2\n        /* \"TEXOToken.sol\":46293:46308  user.rewardDebt */\n      0x01\n      add\n        /* \"TEXOToken.sol\":46293:46392  user.rewardDebt = user.amount... */\n      dup2\n      swap1\n      sstore\n      pop\n        /* \"TEXOToken.sol\":46442:46446  true */\n      0x01\n        /* \"TEXOToken.sol\":46419:46423  user */\n      dup2\n        /* \"TEXOToken.sol\":46419:46439  user.isAlreadyStaked */\n      0x02\n      add\n      0x00\n        /* \"TEXOToken.sol\":46419:46446  user.isAlreadyStaked = true */\n      0x0100\n      exp\n      dup2\n      sload\n      dup2\n      0xff\n      mul\n      not\n      and\n      swap1\n      dup4\n      iszero\n      iszero\n      mul\n      or\n      swap1\n      sstore\n      pop\n        /* \"TEXOToken.sol\":46252:46457  if (!user.isAlreadyStaked) {... */\n    tag_391:\n        /* \"TEXOToken.sol\":46492:46496  _pid */\n      dup4\n        /* \"TEXOToken.sol\":46480:46490  msg.sender */\n      caller\n        /* \"TEXOToken.sol\":46472:46506  Deposit(msg.sender, _pid, _amount) */\n      0xffffffffffffffffffffffffffffffffffffffff\n      and\n      0x90890809c654f11d6e72a28fa60149770a0d11ec6c92319d6ceb2bb0a4ea1a15\n        /* \"TEXOToken.sol\":46498:46505  _amount */\n      dup6\n        /* \"TEXOToken.sol\":46472:46506  Deposit(msg.sender, _pid, _amount) */\n      mload(0x40)\n      dup1\n      dup3\n      dup2\n      mstore\n      0x20\n      add\n      swap2\n      pop\n      pop\n      mload(0x40)\n      dup1\n      swap2\n      sub\n      swap1\n      log3\n        /* \"TEXOToken.sol\":21944:21945  _ */\n      pop\n      pop\n        /* \"TEXOToken.sol\":21153:21154  1 */\n      0x01\n        /* \"TEXOToken.sol\":22088:22095  _status */\n      dup1\n        /* \"TEXOToken.sol\":22088:22110  _status = _NOT_ENTERED */\n      dup2\n      swap1\n      sstore\n      pop\n        /* \"TEXOToken.sol\":44974:46513  function deposit(uint256 _pid, uint256 _amount) public nonReentrant {... */\n      pop\n      pop\n      jump\t// out\n        /* \"TEXOToken.sol\":51163:52562  function reduceEmissionRateWithDefaultRate() public {... */\n    tag_171:\n        /* \"TEXOToken.sol\":51233:51258  isAllowReduceEmissionRate */\n      0x12\n      0x00\n      swap1\n      sload\n      swap1\n      0x0100\n      exp\n      swap1\n      div\n      0xff\n      and\n        /* \"TEXOToken.sol\":51225:51327  require(isAllowReduceEmissionRate, \"reduceEmissionRateWithDefaultRate: Permission flag not turned on\") */\n      tag_395\n      jumpi\n      mload(0x40)\n      0x08c379a000000000000000000000000000000000000000000000000000000000\n      dup2\n      mstore\n      0x04\n      add\n      dup1\n      dup1\n      0x20\n      add\n      dup3\n      dup2\n      sub\n      dup3\n      mstore\n      0x40\n      dup2\n      mstore\n      0x20\n      add\n      dup1\n      data_fb61bfab522ff5726f96c4cebf8c9bc7c68d529a173450ab2ca49eebd2ecf0bb\n      0x40\n      swap2\n      codecopy\n      0x40\n      add\n      swap2\n      pop\n      pop\n      mload(0x40)\n      dup1\n      swap2\n      sub\n      swap1\n      revert\n    tag_395:\n        /* \"TEXOToken.sol\":51360:51392  blockToStartReducingEmissionRate */\n      sload(0x06)\n        /* \"TEXOToken.sol\":51345:51357  block.number */\n      number\n        /* \"TEXOToken.sol\":51345:51392  block.number > blockToStartReducingEmissionRate */\n      gt\n        /* \"TEXOToken.sol\":51337:51479  require(block.number > blockToStartReducingEmissionRate, \"reduceEmissionRateWithDefaultRate: Can only be called after specified block starts\") */\n      tag_396\n      jumpi\n      mload(0x40)\n      0x08c379a000000000000000000000000000000000000000000000000000000000\n      dup2\n      mstore\n      0x04\n      add\n      dup1\n      dup1\n      0x20\n      add\n      dup3\n      dup2\n      sub\n      dup3\n      mstore\n      0x52\n      dup2\n      mstore\n      0x20\n      add\n      dup1\n      data_a827dd9c9a80825686eef28a9f1d2466e1d29b6da48280d16028581898989615\n      0x52\n      swap2\n      codecopy\n      0x60\n      add\n      swap2\n      pop\n      pop\n      mload(0x40)\n      dup1\n      swap2\n      sub\n      swap1\n      revert\n    tag_396:\n        /* \"TEXOToken.sol\":36978:36988  100 finney */\n      0x016345785d8a0000\n        /* \"TEXOToken.sol\":51497:51509  tEXOPerBlock */\n      sload(0x04)\n        /* \"TEXOToken.sol\":51497:51533  tEXOPerBlock > MINIMUM_EMISSION_RATE */\n      gt\n        /* \"TEXOToken.sol\":51489:51620  require(tEXOPerBlock > MINIMUM_EMISSION_RATE, \"reduceEmissionRateWithDefaultRate: Emission rate has reached the minimum threshold\") */\n      tag_397\n      jumpi\n      mload(0x40)\n      0x08c379a000000000000000000000000000000000000000000000000000000000\n      dup2\n      mstore\n      0x04\n      add\n      dup1\n      dup1\n      0x20\n      add\n      dup3\n      dup2\n      sub\n      dup3\n      mstore\n      0x52\n      dup2\n      mstore\n      0x20\n      add\n      dup1\n      data_d4e7846547be135afcf8a93a01a9053e9fa2c0d79f8d5448158422588210b6ab\n      0x52\n      swap2\n      codecopy\n      0x60\n      add\n      swap2\n      pop\n      pop\n      mload(0x40)\n      dup1\n      swap2\n      sub\n      swap1\n      revert\n    tag_397:\n        /* \"TEXOToken.sol\":51631:51651  uint256 currentIndex */\n      0x00\n        /* \"TEXOToken.sol\":51654:51742  block.number.sub(blockToStartReducingEmissionRate).div(EMISSION_REDUCTION_PERIOD_BLOCKS) */\n      tag_398\n        /* \"TEXOToken.sol\":37109:37114  28800 */\n      0x7080\n        /* \"TEXOToken.sol\":51654:51704  block.number.sub(blockToStartReducingEmissionRate) */\n      tag_399\n        /* \"TEXOToken.sol\":51671:51703  blockToStartReducingEmissionRate */\n      sload(0x06)\n        /* \"TEXOToken.sol\":51654:51666  block.number */\n      number\n        /* \"TEXOToken.sol\":51654:51670  block.number.sub */\n      tag_205\n      swap1\n        /* \"TEXOToken.sol\":51654:51704  block.number.sub(blockToStartReducingEmissionRate) */\n      swap2\n      swap1\n      0xffffffff\n      and\n      jump\t// in\n    tag_399:\n        /* \"TEXOToken.sol\":51654:51708  block.number.sub(blockToStartReducingEmissionRate).div */\n      tag_204\n      swap1\n        /* \"TEXOToken.sol\":51654:51742  block.number.sub(blockToStartReducingEmissionRate).div(EMISSION_REDUCTION_PERIOD_BLOCKS) */\n      swap2\n      swap1\n      0xffffffff\n      and\n      jump\t// in\n    tag_398:\n        /* \"TEXOToken.sol\":51631:51742  uint256 currentIndex = block.number.sub(blockToStartReducingEmissionRate).div(EMISSION_REDUCTION_PERIOD_BLOCKS) */\n      swap1\n      pop\n        /* \"TEXOToken.sol\":51772:51796  lastReductionPeriodIndex */\n      sload(0x11)\n        /* \"TEXOToken.sol\":51756:51768  currentIndex */\n      dup2\n        /* \"TEXOToken.sol\":51756:51796  currentIndex <= lastReductionPeriodIndex */\n      gt\n        /* \"TEXOToken.sol\":51752:51829  if (currentIndex <= lastReductionPeriodIndex) {... */\n      tag_400\n      jumpi\n        /* \"TEXOToken.sol\":51812:51819  return; */\n      pop\n      jump(tag_394)\n        /* \"TEXOToken.sol\":51752:51829  if (currentIndex <= lastReductionPeriodIndex) {... */\n    tag_400:\n        /* \"TEXOToken.sol\":51839:51862  uint256 newEmissionRate */\n      0x00\n        /* \"TEXOToken.sol\":51865:51877  tEXOPerBlock */\n      sload(0x04)\n        /* \"TEXOToken.sol\":51839:51877  uint256 newEmissionRate = tEXOPerBlock */\n      swap1\n      pop\n        /* \"TEXOToken.sol\":51892:51905  uint256 index */\n      0x00\n        /* \"TEXOToken.sol\":51908:51932  lastReductionPeriodIndex */\n      sload(0x11)\n        /* \"TEXOToken.sol\":51892:51932  uint256 index = lastReductionPeriodIndex */\n      swap1\n      pop\n        /* \"TEXOToken.sol\":51887:52112  for (uint256 index = lastReductionPeriodIndex; index < currentIndex; ++index) {... */\n    tag_401:\n        /* \"TEXOToken.sol\":51942:51954  currentIndex */\n      dup3\n        /* \"TEXOToken.sol\":51934:51939  index */\n      dup2\n        /* \"TEXOToken.sol\":51934:51954  index < currentIndex */\n      lt\n        /* \"TEXOToken.sol\":51887:52112  for (uint256 index = lastReductionPeriodIndex; index < currentIndex; ++index) {... */\n      iszero\n      tag_402\n      jumpi\n        /* \"TEXOToken.sol\":51997:52101  newEmissionRate... */\n      tag_404\n        /* \"TEXOToken.sol\":52097:52100  1e4 */\n      0x2710\n        /* \"TEXOToken.sol\":51997:52075  newEmissionRate... */\n      tag_405\n        /* \"TEXOToken.sol\":37245:37249  1500 */\n      0x05dc\n        /* \"TEXOToken.sol\":52034:52037  1e4 */\n      0x2710\n        /* \"TEXOToken.sol\":52034:52074  1e4 - EMISSION_REDUCTION_RATE_PER_PERIOD */\n      sub\n        /* \"TEXOToken.sol\":51997:52012  newEmissionRate */\n      dup6\n        /* \"TEXOToken.sol\":51997:52033  newEmissionRate... */\n      tag_203\n      swap1\n        /* \"TEXOToken.sol\":51997:52075  newEmissionRate... */\n      swap2\n      swap1\n      0xffffffff\n      and\n      jump\t// in\n    tag_405:\n        /* \"TEXOToken.sol\":51997:52096  newEmissionRate... */\n      tag_204\n      swap1\n        /* \"TEXOToken.sol\":51997:52101  newEmissionRate... */\n      swap2\n      swap1\n      0xffffffff\n      and\n      jump\t// in\n    tag_404:\n        /* \"TEXOToken.sol\":51979:52101  newEmissionRate = newEmissionRate... */\n      swap2\n      pop\n        /* \"TEXOToken.sol\":51956:51963  ++index */\n      dup1\n      0x01\n      add\n      swap1\n      pop\n        /* \"TEXOToken.sol\":51887:52112  for (uint256 index = lastReductionPeriodIndex; index < currentIndex; ++index) {... */\n      jump(tag_401)\n    tag_402:\n      pop\n        /* \"TEXOToken.sol\":36978:36988  100 finney */\n      0x016345785d8a0000\n        /* \"TEXOToken.sol\":52140:52155  newEmissionRate */\n      dup2\n        /* \"TEXOToken.sol\":52140:52179  newEmissionRate < MINIMUM_EMISSION_RATE */\n      lt\n        /* \"TEXOToken.sol\":52140:52221  newEmissionRate < MINIMUM_EMISSION_RATE ? MINIMUM_EMISSION_RATE : newEmissionRate */\n      tag_406\n      jumpi\n        /* \"TEXOToken.sol\":52206:52221  newEmissionRate */\n      dup1\n        /* \"TEXOToken.sol\":52140:52221  newEmissionRate < MINIMUM_EMISSION_RATE ? MINIMUM_EMISSION_RATE : newEmissionRate */\n      jump(tag_407)\n    tag_406:\n        /* \"TEXOToken.sol\":36978:36988  100 finney */\n      0x016345785d8a0000\n        /* \"TEXOToken.sol\":52140:52221  newEmissionRate < MINIMUM_EMISSION_RATE ? MINIMUM_EMISSION_RATE : newEmissionRate */\n    tag_407:\n        /* \"TEXOToken.sol\":52122:52221  newEmissionRate = newEmissionRate < MINIMUM_EMISSION_RATE ? MINIMUM_EMISSION_RATE : newEmissionRate */\n      swap1\n      pop\n        /* \"TEXOToken.sol\":52254:52266  tEXOPerBlock */\n      sload(0x04)\n        /* \"TEXOToken.sol\":52235:52250  newEmissionRate */\n      dup2\n        /* \"TEXOToken.sol\":52235:52266  newEmissionRate >= tEXOPerBlock */\n      lt\n        /* \"TEXOToken.sol\":52231:52299  if (newEmissionRate >= tEXOPerBlock) {... */\n      tag_408\n      jumpi\n        /* \"TEXOToken.sol\":52282:52289  return; */\n      pop\n      pop\n      jump(tag_394)\n        /* \"TEXOToken.sol\":52231:52299  if (newEmissionRate >= tEXOPerBlock) {... */\n    tag_408:\n        /* \"TEXOToken.sol\":52309:52326  massUpdatePools() */\n      tag_409\n        /* \"TEXOToken.sol\":52309:52324  massUpdatePools */\n      tag_100\n        /* \"TEXOToken.sol\":52309:52326  massUpdatePools() */\n      jump\t// in\n    tag_409:\n        /* \"TEXOToken.sol\":52364:52376  currentIndex */\n      dup2\n        /* \"TEXOToken.sol\":52337:52361  lastReductionPeriodIndex */\n      0x11\n        /* \"TEXOToken.sol\":52337:52376  lastReductionPeriodIndex = currentIndex */\n      dup2\n      swap1\n      sstore\n      pop\n        /* \"TEXOToken.sol\":52386:52414  uint256 previousEmissionRate */\n      0x00\n        /* \"TEXOToken.sol\":52417:52429  tEXOPerBlock */\n      sload(0x04)\n        /* \"TEXOToken.sol\":52386:52429  uint256 previousEmissionRate = tEXOPerBlock */\n      swap1\n      pop\n        /* \"TEXOToken.sol\":52454:52469  newEmissionRate */\n      dup2\n        /* \"TEXOToken.sol\":52439:52451  tEXOPerBlock */\n      0x04\n        /* \"TEXOToken.sol\":52439:52469  tEXOPerBlock = newEmissionRate */\n      dup2\n      swap1\n      sstore\n      pop\n        /* \"TEXOToken.sol\":52505:52515  msg.sender */\n      caller\n        /* \"TEXOToken.sol\":52485:52555  EmissionRateUpdated(msg.sender, previousEmissionRate, newEmissionRate) */\n      0xffffffffffffffffffffffffffffffffffffffff\n      and\n      0xeedc6338c9c1ad8f3cd6c90dd09dbe98dbd57e610d3e59a17996d07acb0d9511\n        /* \"TEXOToken.sol\":52517:52537  previousEmissionRate */\n      dup3\n        /* \"TEXOToken.sol\":52539:52554  newEmissionRate */\n      dup5\n        /* \"TEXOToken.sol\":52485:52555  EmissionRateUpdated(msg.sender, previousEmissionRate, newEmissionRate) */\n      mload(0x40)\n      dup1\n      dup4\n      dup2\n      mstore\n      0x20\n      add\n      dup3\n      dup2\n      mstore\n      0x20\n      add\n      swap3\n      pop\n      pop\n      pop\n      mload(0x40)\n      dup1\n      swap2\n      sub\n      swap1\n      log2\n        /* \"TEXOToken.sol\":51163:52562  function reduceEmissionRateWithDefaultRate() public {... */\n      pop\n      pop\n      pop\n    tag_394:\n      jump\t// out\n        /* \"TEXOToken.sol\":44713:44908  function canGenerateTexoReward(uint256 _pid) public view returns (bool) {... */\n    tag_174:\n        /* \"TEXOToken.sol\":44779:44783  bool */\n      0x00\n        /* \"TEXOToken.sol\":44795:44816  PoolInfo storage pool */\n      dup1\n        /* \"TEXOToken.sol\":44819:44827  poolInfo */\n      0x09\n        /* \"TEXOToken.sol\":44828:44832  _pid */\n      dup4\n        /* \"TEXOToken.sol\":44819:44833  poolInfo[_pid] */\n      dup2\n      sload\n      dup2\n      lt\n      tag_411\n      jumpi\n      invalid\n    tag_411:\n      swap1\n      0x00\n      mstore\n      keccak256(0x00, 0x20)\n      swap1\n      0x06\n      mul\n      add\n        /* \"TEXOToken.sol\":44795:44833  PoolInfo storage pool = poolInfo[_pid] */\n      swap1\n      pop\n        /* \"TEXOToken.sol\":44853:44876  canWithdrawReward(_pid) */\n      tag_413\n        /* \"TEXOToken.sol\":44871:44875  _pid */\n      dup4\n        /* \"TEXOToken.sol\":44853:44870  canWithdrawReward */\n      tag_148\n        /* \"TEXOToken.sol\":44853:44876  canWithdrawReward(_pid) */\n      jump\t// in\n    tag_413:\n        /* \"TEXOToken.sol\":44853:44900  canWithdrawReward(_pid) && pool.allocPoint == 0 */\n      dup1\n      iszero\n      tag_414\n      jumpi\n      pop\n        /* \"TEXOToken.sol\":44899:44900  0 */\n      0x00\n        /* \"TEXOToken.sol\":44880:44884  pool */\n      dup2\n        /* \"TEXOToken.sol\":44880:44895  pool.allocPoint */\n      0x01\n      add\n      sload\n        /* \"TEXOToken.sol\":44880:44900  pool.allocPoint == 0 */\n      eq\n        /* \"TEXOToken.sol\":44853:44900  canWithdrawReward(_pid) && pool.allocPoint == 0 */\n    tag_414:\n        /* \"TEXOToken.sol\":44851:44901  !(canWithdrawReward(_pid) && pool.allocPoint == 0) */\n      iszero\n        /* \"TEXOToken.sol\":44844:44901  return !(canWithdrawReward(_pid) && pool.allocPoint == 0) */\n      swap2\n      pop\n      pop\n        /* \"TEXOToken.sol\":44713:44908  function canGenerateTexoReward(uint256 _pid) public view returns (bool) {... */\n      swap2\n      swap1\n      pop\n      jump\t// out\n        /* \"TEXOToken.sol\":12358:12465  function transferOwnership(address newOwner) public onlyOwner {... */\n    tag_177:\n        /* \"TEXOToken.sol\":11663:11675  _msgSender() */\n      tag_416\n        /* \"TEXOToken.sol\":11663:11673  _msgSender */\n      tag_188\n        /* \"TEXOToken.sol\":11663:11675  _msgSender() */\n      jump\t// in\n    tag_416:\n        /* \"TEXOToken.sol\":11653:11675  _owner == _msgSender() */\n      0xffffffffffffffffffffffffffffffffffffffff\n      and\n        /* \"TEXOToken.sol\":11653:11659  _owner */\n      0x00\n      dup1\n      sload\n      swap1\n      0x0100\n      exp\n      swap1\n      div\n      0xffffffffffffffffffffffffffffffffffffffff\n      and\n        /* \"TEXOToken.sol\":11653:11675  _owner == _msgSender() */\n      0xffffffffffffffffffffffffffffffffffffffff\n      and\n      eq\n        /* \"TEXOToken.sol\":11645:11712  require(_owner == _msgSender(), \"Ownable: caller is not the owner\") */\n      tag_417\n      jumpi\n      mload(0x40)\n      0x08c379a000000000000000000000000000000000000000000000000000000000\n      dup2\n      mstore\n      0x04\n      add\n      dup1\n      dup1\n      0x20\n      add\n      dup3\n      dup2\n      sub\n      dup3\n      mstore\n      0x20\n      dup2\n      mstore\n      0x20\n      add\n      dup1\n      0x4f776e61626c653a2063616c6c6572206973206e6f7420746865206f776e6572\n      dup2\n      mstore\n      pop\n      0x20\n      add\n      swap2\n      pop\n      pop\n      mload(0x40)\n      dup1\n      swap2\n      sub\n      swap1\n      revert\n    tag_417:\n        /* \"TEXOToken.sol\":12430:12458  _transferOwnership(newOwner) */\n      tag_419\n        /* \"TEXOToken.sol\":12449:12457  newOwner */\n      dup2\n        /* \"TEXOToken.sol\":12430:12448  _transferOwnership */\n      tag_420\n        /* \"TEXOToken.sol\":12430:12458  _transferOwnership(newOwner) */\n      jump\t// in\n    tag_419:\n        /* \"TEXOToken.sol\":12358:12465  function transferOwnership(address newOwner) public onlyOwner {... */\n      pop\n      jump\t// out\n        /* \"TEXOToken.sol\":39706:40757  function add(... */\n    tag_180:\n        /* \"TEXOToken.sol\":11663:11675  _msgSender() */\n      tag_422\n        /* \"TEXOToken.sol\":11663:11673  _msgSender */\n      tag_188\n        /* \"TEXOToken.sol\":11663:11675  _msgSender() */\n      jump\t// in\n    tag_422:\n        /* \"TEXOToken.sol\":11653:11675  _owner == _msgSender() */\n      0xffffffffffffffffffffffffffffffffffffffff\n      and\n        /* \"TEXOToken.sol\":11653:11659  _owner */\n      0x00\n      dup1\n      sload\n      swap1\n      0x0100\n      exp\n      swap1\n      div\n      0xffffffffffffffffffffffffffffffffffffffff\n      and\n        /* \"TEXOToken.sol\":11653:11675  _owner == _msgSender() */\n      0xffffffffffffffffffffffffffffffffffffffff\n      and\n      eq\n        /* \"TEXOToken.sol\":11645:11712  require(_owner == _msgSender(), \"Ownable: caller is not the owner\") */\n      tag_423\n      jumpi\n      mload(0x40)\n      0x08c379a000000000000000000000000000000000000000000000000000000000\n      dup2\n      mstore\n      0x04\n      add\n      dup1\n      dup1\n      0x20\n      add\n      dup3\n      dup2\n      sub\n      dup3\n      mstore\n      0x20\n      dup2\n      mstore\n      0x20\n      add\n      dup1\n      0x4f776e61626c653a2063616c6c6572206973206e6f7420746865206f776e6572\n      dup2\n      mstore\n      pop\n      0x20\n      add\n      swap2\n      pop\n      pop\n      mload(0x40)\n      dup1\n      swap2\n      sub\n      swap1\n      revert\n    tag_423:\n        /* \"TEXOToken.sol\":39905:39913  _lpToken */\n      dup4\n        /* \"TEXOToken.sol\":39581:39586  false */\n      0x00\n        /* \"TEXOToken.sol\":39554:39586  poolExistence[_lpToken] == false */\n      iszero\n      iszero\n        /* \"TEXOToken.sol\":39554:39567  poolExistence */\n      0x0f\n        /* \"TEXOToken.sol\":39554:39577  poolExistence[_lpToken] */\n      0x00\n        /* \"TEXOToken.sol\":39568:39576  _lpToken */\n      dup4\n        /* \"TEXOToken.sol\":39554:39577  poolExistence[_lpToken] */\n      0xffffffffffffffffffffffffffffffffffffffff\n      and\n      0xffffffffffffffffffffffffffffffffffffffff\n      and\n      dup2\n      mstore\n      0x20\n      add\n      swap1\n      dup2\n      mstore\n      0x20\n      add\n      0x00\n      keccak256\n      0x00\n      swap1\n      sload\n      swap1\n      0x0100\n      exp\n      swap1\n      div\n      0xff\n      and\n        /* \"TEXOToken.sol\":39554:39586  poolExistence[_lpToken] == false */\n      iszero\n      iszero\n      eq\n        /* \"TEXOToken.sol\":39546:39616  require(poolExistence[_lpToken] == false, \"nonDuplicated: duplicated\") */\n      tag_425\n      jumpi\n      mload(0x40)\n      0x08c379a000000000000000000000000000000000000000000000000000000000\n      dup2\n      mstore\n      0x04\n      add\n      dup1\n      dup1\n      0x20\n      add\n      dup3\n      dup2\n      sub\n      dup3\n      mstore\n      0x19\n      dup2\n      mstore\n      0x20\n      add\n      dup1\n      0x6e6f6e4475706c6963617465643a206475706c69636174656400000000000000\n      dup2\n      mstore\n      pop\n      0x20\n      add\n      swap2\n      pop\n      pop\n      mload(0x40)\n      dup1\n      swap2\n      sub\n      swap1\n      revert\n    tag_425:\n        /* \"TEXOToken.sol\":36287:36291  1000 */\n      0x03e8\n        /* \"TEXOToken.sol\":39933:39972  _depositFeeBP <= MAXIMUM_DEPOSIT_FEE_BP */\n      0xffff\n      and\n        /* \"TEXOToken.sol\":39933:39946  _depositFeeBP */\n      dup5\n        /* \"TEXOToken.sol\":39933:39972  _depositFeeBP <= MAXIMUM_DEPOSIT_FEE_BP */\n      0xffff\n      and\n      gt\n      iszero\n        /* \"TEXOToken.sol\":39925:40014  require(_depositFeeBP <= MAXIMUM_DEPOSIT_FEE_BP, \"add: invalid deposit fee basis points\") */\n      tag_427\n      jumpi\n      mload(0x40)\n      0x08c379a000000000000000000000000000000000000000000000000000000000\n      dup2\n      mstore\n      0x04\n      add\n      dup1\n      dup1\n      0x20\n      add\n      dup3\n      dup2\n      sub\n      dup3\n      mstore\n      0x25\n      dup2\n      mstore\n      0x20\n      add\n      dup1\n      data_0ecf01aeb804f0ae223eada9d16893a9009cdcbe208d348705dc613f9a9f5331\n      0x25\n      swap2\n      codecopy\n      0x40\n      add\n      swap2\n      pop\n      pop\n      mload(0x40)\n      dup1\n      swap2\n      sub\n      swap1\n      revert\n    tag_427:\n        /* \"TEXOToken.sol\":40029:40040  _withUpdate */\n      dup3\n        /* \"TEXOToken.sol\":40025:40084  if (_withUpdate) {... */\n      iszero\n      tag_428\n      jumpi\n        /* \"TEXOToken.sol\":40056:40073  massUpdatePools() */\n      tag_429\n        /* \"TEXOToken.sol\":40056:40071  massUpdatePools */\n      tag_100\n        /* \"TEXOToken.sol\":40056:40073  massUpdatePools() */\n      jump\t// in\n    tag_429:\n        /* \"TEXOToken.sol\":40025:40084  if (_withUpdate) {... */\n    tag_428:\n        /* \"TEXOToken.sol\":40094:40122  uint256 blockToReceiveReward */\n      0x00\n        /* \"TEXOToken.sol\":40149:40150  0 */\n      dup1\n        /* \"TEXOToken.sol\":40125:40146  _blockToReceiveReward */\n      dup4\n        /* \"TEXOToken.sol\":40125:40150  _blockToReceiveReward > 0 */\n      gt\n        /* \"TEXOToken.sol\":40125:40211  _blockToReceiveReward > 0 ? _blockToReceiveReward : globalBlockToUnlockClaimingRewards */\n      tag_430\n      jumpi\n        /* \"TEXOToken.sol\":40177:40211  globalBlockToUnlockClaimingRewards */\n      sload(0x07)\n        /* \"TEXOToken.sol\":40125:40211  _blockToReceiveReward > 0 ? _blockToReceiveReward : globalBlockToUnlockClaimingRewards */\n      jump(tag_431)\n    tag_430:\n        /* \"TEXOToken.sol\":40153:40174  _blockToReceiveReward */\n      dup3\n        /* \"TEXOToken.sol\":40125:40211  _blockToReceiveReward > 0 ? _blockToReceiveReward : globalBlockToUnlockClaimingRewards */\n    tag_431:\n        /* \"TEXOToken.sol\":40094:40211  uint256 blockToReceiveReward = _blockToReceiveReward > 0 ? _blockToReceiveReward : globalBlockToUnlockClaimingRewards */\n      swap1\n      pop\n        /* \"TEXOToken.sol\":40240:40272  totalAllocPoint.add(_allocPoint) */\n      tag_432\n        /* \"TEXOToken.sol\":40260:40271  _allocPoint */\n      dup8\n        /* \"TEXOToken.sol\":40240:40255  totalAllocPoint */\n      sload(0x0b)\n        /* \"TEXOToken.sol\":40240:40259  totalAllocPoint.add */\n      tag_244\n      swap1\n        /* \"TEXOToken.sol\":40240:40272  totalAllocPoint.add(_allocPoint) */\n      swap2\n      swap1\n      0xffffffff\n      and\n      jump\t// in\n    tag_432:\n        /* \"TEXOToken.sol\":40222:40237  totalAllocPoint */\n      0x0b\n        /* \"TEXOToken.sol\":40222:40272  totalAllocPoint = totalAllocPoint.add(_allocPoint) */\n      dup2\n      swap1\n      sstore\n      pop\n        /* \"TEXOToken.sol\":40308:40312  true */\n      0x01\n        /* \"TEXOToken.sol\":40282:40295  poolExistence */\n      0x0f\n        /* \"TEXOToken.sol\":40282:40305  poolExistence[_lpToken] */\n      0x00\n        /* \"TEXOToken.sol\":40296:40304  _lpToken */\n      dup9\n        /* \"TEXOToken.sol\":40282:40305  poolExistence[_lpToken] */\n      0xffffffffffffffffffffffffffffffffffffffff\n      and\n      0xffffffffffffffffffffffffffffffffffffffff\n      and\n      dup2\n      mstore\n      0x20\n      add\n      swap1\n      dup2\n      mstore\n      0x20\n      add\n      0x00\n      keccak256\n      0x00\n        /* \"TEXOToken.sol\":40282:40312  poolExistence[_lpToken] = true */\n      0x0100\n      exp\n      dup2\n      sload\n      dup2\n      0xff\n      mul\n      not\n      and\n      swap1\n      dup4\n      iszero\n      iszero\n      mul\n      or\n      swap1\n      sstore\n      pop\n        /* \"TEXOToken.sol\":40323:40331  poolInfo */\n      0x09\n        /* \"TEXOToken.sol\":40350:40679  PoolInfo({... */\n      mload(0x40)\n      dup1\n      0xc0\n      add\n      0x40\n      mstore\n      dup1\n        /* \"TEXOToken.sol\":40386:40394  _lpToken */\n      dup9\n        /* \"TEXOToken.sol\":40350:40679  PoolInfo({... */\n      0xffffffffffffffffffffffffffffffffffffffff\n      and\n      dup2\n      mstore\n      0x20\n      add\n        /* \"TEXOToken.sol\":40424:40435  _allocPoint */\n      dup10\n        /* \"TEXOToken.sol\":40350:40679  PoolInfo({... */\n      dup2\n      mstore\n      0x20\n      add\n        /* \"TEXOToken.sol\":40644:40664  blockToReceiveReward */\n      dup4\n        /* \"TEXOToken.sol\":40350:40679  PoolInfo({... */\n      dup2\n      mstore\n      0x20\n      add\n        /* \"TEXOToken.sol\":40485:40495  startBlock */\n      sload(0x08)\n        /* \"TEXOToken.sol\":40470:40482  block.number */\n      number\n        /* \"TEXOToken.sol\":40470:40495  block.number > startBlock */\n      gt\n        /* \"TEXOToken.sol\":40470:40523  block.number > startBlock ? block.number : startBlock */\n      tag_433\n      jumpi\n        /* \"TEXOToken.sol\":40513:40523  startBlock */\n      sload(0x08)\n        /* \"TEXOToken.sol\":40470:40523  block.number > startBlock ? block.number : startBlock */\n      jump(tag_434)\n    tag_433:\n        /* \"TEXOToken.sol\":40498:40510  block.number */\n      number\n        /* \"TEXOToken.sol\":40470:40523  block.number > startBlock ? block.number : startBlock */\n    tag_434:\n        /* \"TEXOToken.sol\":40350:40679  PoolInfo({... */\n      dup2\n      mstore\n      0x20\n      add\n        /* \"TEXOToken.sol\":40558:40559  0 */\n      0x00\n        /* \"TEXOToken.sol\":40350:40679  PoolInfo({... */\n      dup2\n      mstore\n      0x20\n      add\n        /* \"TEXOToken.sol\":40591:40604  _depositFeeBP */\n      dup8\n        /* \"TEXOToken.sol\":40350:40679  PoolInfo({... */\n      0xffff\n      and\n      dup2\n      mstore\n      pop\n        /* \"TEXOToken.sol\":40323:40689  poolInfo.push(... */\n      swap1\n      dup1\n      0x01\n      dup2\n      sload\n      add\n      dup1\n      dup3\n      sstore\n      dup1\n      swap2\n      pop\n      pop\n      0x01\n      swap1\n      sub\n      swap1\n      0x00\n      mstore\n      keccak256(0x00, 0x20)\n      swap1\n      0x06\n      mul\n      add\n      0x00\n      swap1\n      swap2\n      swap1\n      swap2\n      swap1\n      swap2\n      pop\n      0x00\n      dup3\n      add\n      mload\n      dup2\n      0x00\n      add\n      exp(0x0100, 0x00)\n      dup2\n      sload\n      dup2\n      0xffffffffffffffffffffffffffffffffffffffff\n      mul\n      not\n      and\n      swap1\n      dup4\n      0xffffffffffffffffffffffffffffffffffffffff\n      and\n      mul\n      or\n      swap1\n      sstore\n      pop\n      0x20\n      dup3\n      add\n      mload\n      dup2\n      0x01\n      add\n      sstore\n      0x40\n      dup3\n      add\n      mload\n      dup2\n      0x02\n      add\n      sstore\n      0x60\n      dup3\n      add\n      mload\n      dup2\n      0x03\n      add\n      sstore\n      0x80\n      dup3\n      add\n      mload\n      dup2\n      0x04\n      add\n      sstore\n      0xa0\n      dup3\n      add\n      mload\n      dup2\n      0x05\n      add\n      exp(0x0100, 0x00)\n      dup2\n      sload\n      dup2\n      0xffff\n      mul\n      not\n      and\n      swap1\n      dup4\n      0xffff\n      and\n      mul\n      or\n      swap1\n      sstore\n      pop\n      pop\n      pop\n        /* \"TEXOToken.sol\":40749:40750  1 */\n      0x01\n        /* \"TEXOToken.sol\":40731:40739  poolInfo */\n      0x09\n        /* \"TEXOToken.sol\":40731:40746  poolInfo.length */\n      dup1\n      sload\n      swap1\n      pop\n        /* \"TEXOToken.sol\":40731:40750  poolInfo.length - 1 */\n      sub\n        /* \"TEXOToken.sol\":40700:40718  poolIdForLpAddress */\n      0x10\n        /* \"TEXOToken.sol\":40700:40728  poolIdForLpAddress[_lpToken] */\n      0x00\n        /* \"TEXOToken.sol\":40719:40727  _lpToken */\n      dup9\n        /* \"TEXOToken.sol\":40700:40728  poolIdForLpAddress[_lpToken] */\n      0xffffffffffffffffffffffffffffffffffffffff\n      and\n      0xffffffffffffffffffffffffffffffffffffffff\n      and\n      dup2\n      mstore\n      0x20\n      add\n      swap1\n      dup2\n      mstore\n      0x20\n      add\n      0x00\n      keccak256\n        /* \"TEXOToken.sol\":40700:40750  poolIdForLpAddress[_lpToken] = poolInfo.length - 1 */\n      dup2\n      swap1\n      sstore\n      pop\n        /* \"TEXOToken.sol\":39626:39627  _ */\n      pop\n        /* \"TEXOToken.sol\":11722:11723  _ */\n      pop\n        /* \"TEXOToken.sol\":39706:40757  function add(... */\n      pop\n      pop\n      pop\n      pop\n      pop\n      jump\t// out\n        /* \"TEXOToken.sol\":5955:6051  function _msgSender() internal view returns (address payable) {... */\n    tag_188:\n        /* \"TEXOToken.sol\":6000:6015  address payable */\n      0x00\n        /* \"TEXOToken.sol\":6034:6044  msg.sender */\n      caller\n        /* \"TEXOToken.sol\":6027:6044  return msg.sender */\n      swap1\n      pop\n        /* \"TEXOToken.sol\":5955:6051  function _msgSender() internal view returns (address payable) {... */\n      swap1\n      jump\t// out\n        /* \"TEXOToken.sol\":2185:2644  function mul(uint256 a, uint256 b) internal pure returns (uint256) {... */\n    tag_203:\n        /* \"TEXOToken.sol\":2243:2250  uint256 */\n      0x00\n        /* \"TEXOToken.sol\":2489:2490  0 */\n      dup1\n        /* \"TEXOToken.sol\":2484:2485  a */\n      dup4\n        /* \"TEXOToken.sol\":2484:2490  a == 0 */\n      eq\n        /* \"TEXOToken.sol\":2480:2525  if (a == 0) {... */\n      iszero\n      tag_438\n      jumpi\n        /* \"TEXOToken.sol\":2513:2514  0 */\n      0x00\n        /* \"TEXOToken.sol\":2506:2514  return 0 */\n      swap1\n      pop\n      jump(tag_437)\n        /* \"TEXOToken.sol\":2480:2525  if (a == 0) {... */\n    tag_438:\n        /* \"TEXOToken.sol\":2535:2544  uint256 c */\n      0x00\n        /* \"TEXOToken.sol\":2551:2552  b */\n      dup3\n        /* \"TEXOToken.sol\":2547:2548  a */\n      dup5\n        /* \"TEXOToken.sol\":2547:2552  a * b */\n      mul\n        /* \"TEXOToken.sol\":2535:2552  uint256 c = a * b */\n      swap1\n      pop\n        /* \"TEXOToken.sol\":2579:2580  b */\n      dup3\n        /* \"TEXOToken.sol\":2574:2575  a */\n      dup5\n        /* \"TEXOToken.sol\":2570:2571  c */\n      dup3\n        /* \"TEXOToken.sol\":2570:2575  c / a */\n      dup2\n      tag_439\n      jumpi\n      invalid\n    tag_439:\n      div\n        /* \"TEXOToken.sol\":2570:2580  c / a == b */\n      eq\n        /* \"TEXOToken.sol\":2562:2618  require(c / a == b, \"SafeMath: multiplication overflow\") */\n      tag_440\n      jumpi\n      mload(0x40)\n      0x08c379a000000000000000000000000000000000000000000000000000000000\n      dup2\n      mstore\n      0x04\n      add\n      dup1\n      dup1\n      0x20\n      add\n      dup3\n      dup2\n      sub\n      dup3\n      mstore\n      0x21\n      dup2\n      mstore\n      0x20\n      add\n      dup1\n      data_9113bb53c2876a3805b2c9242029423fc540a728243ce887ab24c82cf119fba3\n      0x21\n      swap2\n      codecopy\n      0x40\n      add\n      swap2\n      pop\n      pop\n      mload(0x40)\n      dup1\n      swap2\n      sub\n      swap1\n      revert\n    tag_440:\n        /* \"TEXOToken.sol\":2636:2637  c */\n      dup1\n        /* \"TEXOToken.sol\":2629:2637  return c */\n      swap2\n      pop\n      pop\n        /* \"TEXOToken.sol\":2185:2644  function mul(uint256 a, uint256 b) internal pure returns (uint256) {... */\n    tag_437:\n      swap3\n      swap2\n      pop\n      pop\n      jump\t// out\n        /* \"TEXOToken.sol\":3099:3229  function div(uint256 a, uint256 b) internal pure returns (uint256) {... */\n    tag_204:\n        /* \"TEXOToken.sol\":3157:3164  uint256 */\n      0x00\n        /* \"TEXOToken.sol\":3183:3222  div(a, b, \"SafeMath: division by zero\") */\n      tag_442\n        /* \"TEXOToken.sol\":3187:3188  a */\n      dup4\n        /* \"TEXOToken.sol\":3190:3191  b */\n      dup4\n        /* \"TEXOToken.sol\":3183:3222  div(a, b, \"SafeMath: division by zero\") */\n      mload(0x40)\n      dup1\n      0x40\n      add\n      0x40\n      mstore\n      dup1\n      0x1a\n      dup2\n      mstore\n      0x20\n      add\n      0x536166654d6174683a206469766973696f6e206279207a65726f000000000000\n      dup2\n      mstore\n      pop\n        /* \"TEXOToken.sol\":3183:3186  div */\n      tag_443\n        /* \"TEXOToken.sol\":3183:3222  div(a, b, \"SafeMath: division by zero\") */\n      jump\t// in\n    tag_442:\n        /* \"TEXOToken.sol\":3176:3222  return div(a, b, \"SafeMath: division by zero\") */\n      swap1\n      pop\n        /* \"TEXOToken.sol\":3099:3229  function div(uint256 a, uint256 b) internal pure returns (uint256) {... */\n      swap3\n      swap2\n      pop\n      pop\n      jump\t// out\n        /* \"TEXOToken.sol\":1340:1474  function sub(uint256 a, uint256 b) internal pure returns (uint256) {... */\n    tag_205:\n        /* \"TEXOToken.sol\":1398:1405  uint256 */\n      0x00\n        /* \"TEXOToken.sol\":1424:1467  sub(a, b, \"SafeMath: subtraction overflow\") */\n      tag_445\n        /* \"TEXOToken.sol\":1428:1429  a */\n      dup4\n        /* \"TEXOToken.sol\":1431:1432  b */\n      dup4\n        /* \"TEXOToken.sol\":1424:1467  sub(a, b, \"SafeMath: subtraction overflow\") */\n      mload(0x40)\n      dup1\n      0x40\n      add\n      0x40\n      mstore\n      dup1\n      0x1e\n      dup2\n      mstore\n      0x20\n      add\n      0x536166654d6174683a207375627472616374696f6e206f766572666c6f770000\n      dup2\n      mstore\n      pop\n        /* \"TEXOToken.sol\":1424:1427  sub */\n      tag_446\n        /* \"TEXOToken.sol\":1424:1467  sub(a, b, \"SafeMath: subtraction overflow\") */\n      jump\t// in\n    tag_445:\n        /* \"TEXOToken.sol\":1417:1467  return sub(a, b, \"SafeMath: subtraction overflow\") */\n      swap1\n      pop\n        /* \"TEXOToken.sol\":1340:1474  function sub(uint256 a, uint256 b) internal pure returns (uint256) {... */\n      swap3\n      swap2\n      pop\n      pop\n      jump\t// out\n        /* \"TEXOToken.sol\":49936:50355  function safeTEXOTransfer(address _to, uint256 _amount) internal {... */\n    tag_209:\n        /* \"TEXOToken.sol\":50011:50026  uint256 tEXOBal */\n      0x00\n        /* \"TEXOToken.sol\":50029:50033  tEXO */\n      0x02\n      0x00\n      swap1\n      sload\n      swap1\n      0x0100\n      exp\n      swap1\n      div\n      0xffffffffffffffffffffffffffffffffffffffff\n      and\n        /* \"TEXOToken.sol\":50029:50043  tEXO.balanceOf */\n      0xffffffffffffffffffffffffffffffffffffffff\n      and\n      0x70a08231\n        /* \"TEXOToken.sol\":50052:50056  this */\n      address\n        /* \"TEXOToken.sol\":50029:50058  tEXO.balanceOf(address(this)) */\n      mload(0x40)\n      dup3\n      0xffffffff\n      and\n      0xe0\n      shl\n      dup2\n      mstore\n      0x04\n      add\n      dup1\n      dup3\n      0xffffffffffffffffffffffffffffffffffffffff\n      and\n      dup2\n      mstore\n      0x20\n      add\n      swap2\n      pop\n      pop\n      0x20\n      mload(0x40)\n      dup1\n      dup4\n      sub\n      dup2\n      dup7\n      dup1\n      extcodesize\n      iszero\n      dup1\n      iszero\n      tag_448\n      jumpi\n      0x00\n      dup1\n      revert\n    tag_448:\n      pop\n      gas\n      staticcall\n      iszero\n      dup1\n      iszero\n      tag_450\n      jumpi\n      returndatasize\n      0x00\n      dup1\n      returndatacopy\n      revert(0x00, returndatasize)\n    tag_450:\n      pop\n      pop\n      pop\n      pop\n      mload(0x40)\n      returndatasize\n      0x20\n      dup2\n      lt\n      iszero\n      tag_451\n      jumpi\n      0x00\n      dup1\n      revert\n    tag_451:\n      dup2\n      add\n      swap1\n      dup1\n      dup1\n      mload\n      swap1\n      0x20\n      add\n      swap1\n      swap3\n      swap2\n      swap1\n      pop\n      pop\n      pop\n        /* \"TEXOToken.sol\":50011:50058  uint256 tEXOBal = tEXO.balanceOf(address(this)) */\n      swap1\n      pop\n        /* \"TEXOToken.sol\":50068:50088  bool transferSuccess */\n      0x00\n        /* \"TEXOToken.sol\":50121:50128  tEXOBal */\n      dup2\n        /* \"TEXOToken.sol\":50111:50118  _amount */\n      dup4\n        /* \"TEXOToken.sol\":50111:50128  _amount > tEXOBal */\n      gt\n        /* \"TEXOToken.sol\":50107:50276  if (_amount > tEXOBal) {... */\n      iszero\n      tag_452\n      jumpi\n        /* \"TEXOToken.sol\":50162:50166  tEXO */\n      0x02\n      0x00\n      swap1\n      sload\n      swap1\n      0x0100\n      exp\n      swap1\n      div\n      0xffffffffffffffffffffffffffffffffffffffff\n      and\n        /* \"TEXOToken.sol\":50162:50175  tEXO.transfer */\n      0xffffffffffffffffffffffffffffffffffffffff\n      and\n      0xa9059cbb\n        /* \"TEXOToken.sol\":50176:50179  _to */\n      dup6\n        /* \"TEXOToken.sol\":50181:50188  tEXOBal */\n      dup5\n        /* \"TEXOToken.sol\":50162:50189  tEXO.transfer(_to, tEXOBal) */\n      mload(0x40)\n      dup4\n      0xffffffff\n      and\n      0xe0\n      shl\n      dup2\n      mstore\n      0x04\n      add\n      dup1\n      dup4\n      0xffffffffffffffffffffffffffffffffffffffff\n      and\n      dup2\n      mstore\n      0x20\n      add\n      dup3\n      dup2\n      mstore\n      0x20\n      add\n      swap3\n      pop\n      pop\n      pop\n      0x20\n      mload(0x40)\n      dup1\n      dup4\n      sub\n      dup2\n      0x00\n      dup8\n      dup1\n      extcodesize\n      iszero\n      dup1\n      iszero\n      tag_453\n      jumpi\n      0x00\n      dup1\n      revert\n    tag_453:\n      pop\n      gas\n      call\n      iszero\n      dup1\n      iszero\n      tag_455\n      jumpi\n      returndatasize\n      0x00\n      dup1\n      returndatacopy\n      revert(0x00, returndatasize)\n    tag_455:\n      pop\n      pop\n      pop\n      pop\n      mload(0x40)\n      returndatasize\n      0x20\n      dup2\n      lt\n      iszero\n      tag_456\n      jumpi\n      0x00\n      dup1\n      revert\n    tag_456:\n      dup2\n      add\n      swap1\n      dup1\n      dup1\n      mload\n      swap1\n      0x20\n      add\n      swap1\n      swap3\n      swap2\n      swap1\n      pop\n      pop\n      pop\n        /* \"TEXOToken.sol\":50144:50189  transferSuccess = tEXO.transfer(_to, tEXOBal) */\n      swap1\n      pop\n        /* \"TEXOToken.sol\":50107:50276  if (_amount > tEXOBal) {... */\n      jump(tag_457)\n    tag_452:\n        /* \"TEXOToken.sol\":50238:50242  tEXO */\n      0x02\n      0x00\n      swap1\n      sload\n      swap1\n      0x0100\n      exp\n      swap1\n      div\n      0xffffffffffffffffffffffffffffffffffffffff\n      and\n        /* \"TEXOToken.sol\":50238:50251  tEXO.transfer */\n      0xffffffffffffffffffffffffffffffffffffffff\n      and\n      0xa9059cbb\n        /* \"TEXOToken.sol\":50252:50255  _to */\n      dup6\n        /* \"TEXOToken.sol\":50257:50264  _amount */\n      dup6\n        /* \"TEXOToken.sol\":50238:50265  tEXO.transfer(_to, _amount) */\n      mload(0x40)\n      dup4\n      0xffffffff\n      and\n      0xe0\n      shl\n      dup2\n      mstore\n      0x04\n      add\n      dup1\n      dup4\n      0xffffffffffffffffffffffffffffffffffffffff\n      and\n      dup2\n      mstore\n      0x20\n      add\n      dup3\n      dup2\n      mstore\n      0x20\n      add\n      swap3\n      pop\n      pop\n      pop\n      0x20\n      mload(0x40)\n      dup1\n      dup4\n      sub\n      dup2\n      0x00\n      dup8\n      dup1\n      extcodesize\n      iszero\n      dup1\n      iszero\n      tag_458\n      jumpi\n      0x00\n      dup1\n      revert\n    tag_458:\n      pop\n      gas\n      call\n      iszero\n      dup1\n      iszero\n      tag_460\n      jumpi\n      returndatasize\n      0x00\n      dup1\n      returndatacopy\n      revert(0x00, returndatasize)\n    tag_460:\n      pop\n      pop\n      pop\n      pop\n      mload(0x40)\n      returndatasize\n      0x20\n      dup2\n      lt\n      iszero\n      tag_461\n      jumpi\n      0x00\n      dup1\n      revert\n    tag_461:\n      dup2\n      add\n      swap1\n      dup1\n      dup1\n      mload\n      swap1\n      0x20\n      add\n      swap1\n      swap3\n      swap2\n      swap1\n      pop\n      pop\n      pop\n        /* \"TEXOToken.sol\":50220:50265  transferSuccess = tEXO.transfer(_to, _amount) */\n      swap1\n      pop\n        /* \"TEXOToken.sol\":50107:50276  if (_amount > tEXOBal) {... */\n    tag_457:\n        /* \"TEXOToken.sol\":50294:50309  transferSuccess */\n      dup1\n        /* \"TEXOToken.sol\":50286:50348  require(transferSuccess, \"safePlumTransfer: transfer failed.\") */\n      tag_462\n      jumpi\n      mload(0x40)\n      0x08c379a000000000000000000000000000000000000000000000000000000000\n      dup2\n      mstore\n      0x04\n      add\n      dup1\n      dup1\n      0x20\n      add\n      dup3\n      dup2\n      sub\n      dup3\n      mstore\n      0x22\n      dup2\n      mstore\n      0x20\n      add\n      dup1\n      data_2a7e0e7f8bc79ffac7125960112eaea13c804910c2e58b65c50e00aacc68de0e\n      0x22\n      swap2\n      codecopy\n      0x40\n      add\n      swap2\n      pop\n      pop\n      mload(0x40)\n      dup1\n      swap2\n      sub\n      swap1\n      revert\n    tag_462:\n        /* \"TEXOToken.sol\":49936:50355  function safeTEXOTransfer(address _to, uint256 _amount) internal {... */\n      pop\n      pop\n      pop\n      pop\n      jump\t// out\n        /* \"TEXOToken.sol\":53595:53996  function payReferralCommission(address _user, uint256 _pending) internal {... */\n    tag_211:\n        /* \"TEXOToken.sol\":53678:53694  address referrer */\n      0x00\n        /* \"TEXOToken.sol\":53697:53715  getReferral(_user) */\n      tag_464\n        /* \"TEXOToken.sol\":53709:53714  _user */\n      dup4\n        /* \"TEXOToken.sol\":53697:53708  getReferral */\n      tag_75\n        /* \"TEXOToken.sol\":53697:53715  getReferral(_user) */\n      jump\t// in\n    tag_464:\n        /* \"TEXOToken.sol\":53678:53715  address referrer = getReferral(_user) */\n      swap1\n      pop\n        /* \"TEXOToken.sol\":53749:53750  0 */\n      0x00\n        /* \"TEXOToken.sol\":53729:53751  referrer != address(0) */\n      0xffffffffffffffffffffffffffffffffffffffff\n      and\n        /* \"TEXOToken.sol\":53729:53737  referrer */\n      dup2\n        /* \"TEXOToken.sol\":53729:53751  referrer != address(0) */\n      0xffffffffffffffffffffffffffffffffffffffff\n      and\n      eq\n      iszero\n        /* \"TEXOToken.sol\":53729:53772  referrer != address(0) && referrer != _user */\n      dup1\n      iszero\n      tag_465\n      jumpi\n      pop\n        /* \"TEXOToken.sol\":53767:53772  _user */\n      dup3\n        /* \"TEXOToken.sol\":53755:53772  referrer != _user */\n      0xffffffffffffffffffffffffffffffffffffffff\n      and\n        /* \"TEXOToken.sol\":53755:53763  referrer */\n      dup2\n        /* \"TEXOToken.sol\":53755:53772  referrer != _user */\n      0xffffffffffffffffffffffffffffffffffffffff\n      and\n      eq\n      iszero\n        /* \"TEXOToken.sol\":53729:53772  referrer != address(0) && referrer != _user */\n    tag_465:\n        /* \"TEXOToken.sol\":53729:53790  referrer != address(0) && referrer != _user && refBonusBP > 0 */\n      dup1\n      iszero\n      tag_466\n      jumpi\n      pop\n        /* \"TEXOToken.sol\":53789:53790  0 */\n      0x00\n        /* \"TEXOToken.sol\":53776:53786  refBonusBP */\n      sload(0x0c)\n        /* \"TEXOToken.sol\":53776:53790  refBonusBP > 0 */\n      gt\n        /* \"TEXOToken.sol\":53729:53790  referrer != address(0) && referrer != _user && refBonusBP > 0 */\n    tag_466:\n        /* \"TEXOToken.sol\":53725:53990  if (referrer != address(0) && referrer != _user && refBonusBP > 0) {... */\n      iszero\n      tag_467\n      jumpi\n        /* \"TEXOToken.sol\":53806:53828  uint256 refBonusEarned */\n      0x00\n        /* \"TEXOToken.sol\":53831:53866  _pending.mul(refBonusBP).div(10000) */\n      tag_468\n        /* \"TEXOToken.sol\":53860:53865  10000 */\n      0x2710\n        /* \"TEXOToken.sol\":53831:53855  _pending.mul(refBonusBP) */\n      tag_469\n        /* \"TEXOToken.sol\":53844:53854  refBonusBP */\n      sload(0x0c)\n        /* \"TEXOToken.sol\":53831:53839  _pending */\n      dup7\n        /* \"TEXOToken.sol\":53831:53843  _pending.mul */\n      tag_203\n      swap1\n        /* \"TEXOToken.sol\":53831:53855  _pending.mul(refBonusBP) */\n      swap2\n      swap1\n      0xffffffff\n      and\n      jump\t// in\n    tag_469:\n        /* \"TEXOToken.sol\":53831:53859  _pending.mul(refBonusBP).div */\n      tag_204\n      swap1\n        /* \"TEXOToken.sol\":53831:53866  _pending.mul(refBonusBP).div(10000) */\n      swap2\n      swap1\n      0xffffffff\n      and\n      jump\t// in\n    tag_468:\n        /* \"TEXOToken.sol\":53806:53866  uint256 refBonusEarned = _pending.mul(refBonusBP).div(10000) */\n      swap1\n      pop\n        /* \"TEXOToken.sol\":53880:53884  tEXO */\n      0x02\n      0x00\n      swap1\n      sload\n      swap1\n      0x0100\n      exp\n      swap1\n      div\n      0xffffffffffffffffffffffffffffffffffffffff\n      and\n        /* \"TEXOToken.sol\":53880:53889  tEXO.mint */\n      0xffffffffffffffffffffffffffffffffffffffff\n      and\n      0x40c10f19\n        /* \"TEXOToken.sol\":53890:53898  referrer */\n      dup4\n        /* \"TEXOToken.sol\":53900:53914  refBonusEarned */\n      dup4\n        /* \"TEXOToken.sol\":53880:53915  tEXO.mint(referrer, refBonusEarned) */\n      mload(0x40)\n      dup4\n      0xffffffff\n      and\n      0xe0\n      shl\n      dup2\n      mstore\n      0x04\n      add\n      dup1\n      dup4\n      0xffffffffffffffffffffffffffffffffffffffff\n      and\n      dup2\n      mstore\n      0x20\n      add\n      dup3\n      dup2\n      mstore\n      0x20\n      add\n      swap3\n      pop\n      pop\n      pop\n      0x00\n      mload(0x40)\n      dup1\n      dup4\n      sub\n      dup2\n      0x00\n      dup8\n      dup1\n      extcodesize\n      iszero\n      dup1\n      iszero\n      tag_470\n      jumpi\n      0x00\n      dup1\n      revert\n    tag_470:\n      pop\n      gas\n      call\n      iszero\n      dup1\n      iszero\n      tag_472\n      jumpi\n      returndatasize\n      0x00\n      dup1\n      returndatacopy\n      revert(0x00, returndatasize)\n    tag_472:\n      pop\n      pop\n      pop\n      pop\n        /* \"TEXOToken.sol\":53954:53962  referrer */\n      dup2\n        /* \"TEXOToken.sol\":53934:53979  ReferralPaid(_user, referrer, refBonusEarned) */\n      0xffffffffffffffffffffffffffffffffffffffff\n      and\n        /* \"TEXOToken.sol\":53947:53952  _user */\n      dup5\n        /* \"TEXOToken.sol\":53934:53979  ReferralPaid(_user, referrer, refBonusEarned) */\n      0xffffffffffffffffffffffffffffffffffffffff\n      and\n      0x0a721ab4682ceb61c7e4d264ef879fc419a6d764b136e7d96ef54b2053c75673\n        /* \"TEXOToken.sol\":53964:53978  refBonusEarned */\n      dup4\n        /* \"TEXOToken.sol\":53934:53979  ReferralPaid(_user, referrer, refBonusEarned) */\n      mload(0x40)\n      dup1\n      dup3\n      dup2\n      mstore\n      0x20\n      add\n      swap2\n      pop\n      pop\n      mload(0x40)\n      dup1\n      swap2\n      sub\n      swap1\n      log3\n        /* \"TEXOToken.sol\":53725:53990  if (referrer != address(0) && referrer != _user && refBonusBP > 0) {... */\n      pop\n    tag_467:\n        /* \"TEXOToken.sol\":53595:53996  function payReferralCommission(address _user, uint256 _pending) internal {... */\n      pop\n      pop\n      pop\n      jump\t// out\n        /* \"TEXOToken.sol\":22669:22844  function safeTransfer(IBEP20 token, address to, uint256 value) internal {... */\n    tag_217:\n        /* \"TEXOToken.sol\":22751:22837  _callOptionalReturn(token, abi.encodeWithSelector(token.transfer.selector, to, value)) */\n      tag_474\n        /* \"TEXOToken.sol\":22771:22776  token */\n      dup4\n        /* \"TEXOToken.sol\":22801:22824  token.transfer.selector */\n      shl(0xe0, 0xa9059cbb)\n        /* \"TEXOToken.sol\":22826:22828  to */\n      dup5\n        /* \"TEXOToken.sol\":22830:22835  value */\n      dup5\n        /* \"TEXOToken.sol\":22778:22836  abi.encodeWithSelector(token.transfer.selector, to, value) */\n      add(0x24, mload(0x40))\n      dup1\n      dup4\n      0xffffffffffffffffffffffffffffffffffffffff\n      and\n      dup2\n      mstore\n      0x20\n      add\n      dup3\n      dup2\n      mstore\n      0x20\n      add\n      swap3\n      pop\n      pop\n      pop\n      mload(0x40)\n      0x20\n      dup2\n      dup4\n      sub\n      sub\n      dup2\n      mstore\n      swap1\n      0x40\n      mstore\n      swap1\n      not(0xffffffffffffffffffffffffffffffffffffffffffffffffffffffff)\n      and\n      0x20\n      dup3\n      add\n      dup1\n      mload\n      0xffffffffffffffffffffffffffffffffffffffffffffffffffffffff\n      dup4\n      dup2\n      dup4\n      and\n      or\n      dup4\n      mstore\n      pop\n      pop\n      pop\n      pop\n        /* \"TEXOToken.sol\":22751:22770  _callOptionalReturn */\n      tag_475\n        /* \"TEXOToken.sol\":22751:22837  _callOptionalReturn(token, abi.encodeWithSelector(token.transfer.selector, to, value)) */\n      jump\t// in\n    tag_474:\n        /* \"TEXOToken.sol\":22669:22844  function safeTransfer(IBEP20 token, address to, uint256 value) internal {... */\n      pop\n      pop\n      pop\n      jump\t// out\n        /* \"TEXOToken.sol\":900:1076  function add(uint256 a, uint256 b) internal pure returns (uint256) {... */\n    tag_244:\n        /* \"TEXOToken.sol\":958:965  uint256 */\n      0x00\n        /* \"TEXOToken.sol\":977:986  uint256 c */\n      dup1\n        /* \"TEXOToken.sol\":993:994  b */\n      dup3\n        /* \"TEXOToken.sol\":989:990  a */\n      dup5\n        /* \"TEXOToken.sol\":989:994  a + b */\n      add\n        /* \"TEXOToken.sol\":977:994  uint256 c = a + b */\n      swap1\n      pop\n        /* \"TEXOToken.sol\":1017:1018  a */\n      dup4\n        /* \"TEXOToken.sol\":1012:1013  c */\n      dup2\n        /* \"TEXOToken.sol\":1012:1018  c >= a */\n      lt\n      iszero\n        /* \"TEXOToken.sol\":1004:1050  require(c >= a, \"SafeMath: addition overflow\") */\n      tag_477\n      jumpi\n      mload(0x40)\n      0x08c379a000000000000000000000000000000000000000000000000000000000\n      dup2\n      mstore\n      0x04\n      add\n      dup1\n      dup1\n      0x20\n      add\n      dup3\n      dup2\n      sub\n      dup3\n      mstore\n      0x1b\n      dup2\n      mstore\n      0x20\n      add\n      dup1\n      0x536166654d6174683a206164646974696f6e206f766572666c6f770000000000\n      dup2\n      mstore\n      pop\n      0x20\n      add\n      swap2\n      pop\n      pop\n      mload(0x40)\n      dup1\n      swap2\n      sub\n      swap1\n      revert\n    tag_477:\n        /* \"TEXOToken.sol\":1068:1069  c */\n      dup1\n        /* \"TEXOToken.sol\":1061:1069  return c */\n      swap2\n      pop\n      pop\n        /* \"TEXOToken.sol\":900:1076  function add(uint256 a, uint256 b) internal pure returns (uint256) {... */\n      swap3\n      swap2\n      pop\n      pop\n      jump\t// out\n        /* \"TEXOToken.sol\":53023:53364  function setReferral(address _user, address _referrer) internal {... */\n    tag_296:\n        /* \"TEXOToken.sol\":53122:53131  _referrer */\n      dup1\n        /* \"TEXOToken.sol\":53101:53132  _referrer == address(_referrer) */\n      0xffffffffffffffffffffffffffffffffffffffff\n      and\n        /* \"TEXOToken.sol\":53101:53110  _referrer */\n      dup2\n        /* \"TEXOToken.sol\":53101:53132  _referrer == address(_referrer) */\n      0xffffffffffffffffffffffffffffffffffffffff\n      and\n      eq\n        /* \"TEXOToken.sol\":53101:53166  _referrer == address(_referrer) && referrers[_user] == address(0) */\n      dup1\n      iszero\n      tag_479\n      jumpi\n      pop\n        /* \"TEXOToken.sol\":53164:53165  0 */\n      0x00\n        /* \"TEXOToken.sol\":53136:53166  referrers[_user] == address(0) */\n      0xffffffffffffffffffffffffffffffffffffffff\n      and\n        /* \"TEXOToken.sol\":53136:53145  referrers */\n      0x0d\n        /* \"TEXOToken.sol\":53136:53152  referrers[_user] */\n      0x00\n        /* \"TEXOToken.sol\":53146:53151  _user */\n      dup5\n        /* \"TEXOToken.sol\":53136:53152  referrers[_user] */\n      0xffffffffffffffffffffffffffffffffffffffff\n      and\n      0xffffffffffffffffffffffffffffffffffffffff\n      and\n      dup2\n      mstore\n      0x20\n      add\n      swap1\n      dup2\n      mstore\n      0x20\n      add\n      0x00\n      keccak256\n      0x00\n      swap1\n      sload\n      swap1\n      0x0100\n      exp\n      swap1\n      div\n      0xffffffffffffffffffffffffffffffffffffffff\n      and\n        /* \"TEXOToken.sol\":53136:53166  referrers[_user] == address(0) */\n      0xffffffffffffffffffffffffffffffffffffffff\n      and\n      eq\n        /* \"TEXOToken.sol\":53101:53166  _referrer == address(_referrer) && referrers[_user] == address(0) */\n    tag_479:\n        /* \"TEXOToken.sol\":53101:53193  _referrer == address(_referrer) && referrers[_user] == address(0) && _referrer != address(0) */\n      dup1\n      iszero\n      tag_480\n      jumpi\n      pop\n        /* \"TEXOToken.sol\":53191:53192  0 */\n      0x00\n        /* \"TEXOToken.sol\":53170:53193  _referrer != address(0) */\n      0xffffffffffffffffffffffffffffffffffffffff\n      and\n        /* \"TEXOToken.sol\":53170:53179  _referrer */\n      dup2\n        /* \"TEXOToken.sol\":53170:53193  _referrer != address(0) */\n      0xffffffffffffffffffffffffffffffffffffffff\n      and\n      eq\n      iszero\n        /* \"TEXOToken.sol\":53101:53193  _referrer == address(_referrer) && referrers[_user] == address(0) && _referrer != address(0) */\n    tag_480:\n        /* \"TEXOToken.sol\":53101:53215  _referrer == address(_referrer) && referrers[_user] == address(0) && _referrer != address(0) && _referrer != _user */\n      dup1\n      iszero\n      tag_481\n      jumpi\n      pop\n        /* \"TEXOToken.sol\":53210:53215  _user */\n      dup2\n        /* \"TEXOToken.sol\":53197:53215  _referrer != _user */\n      0xffffffffffffffffffffffffffffffffffffffff\n      and\n        /* \"TEXOToken.sol\":53197:53206  _referrer */\n      dup2\n        /* \"TEXOToken.sol\":53197:53215  _referrer != _user */\n      0xffffffffffffffffffffffffffffffffffffffff\n      and\n      eq\n      iszero\n        /* \"TEXOToken.sol\":53101:53215  _referrer == address(_referrer) && referrers[_user] == address(0) && _referrer != address(0) && _referrer != _user */\n    tag_481:\n        /* \"TEXOToken.sol\":53097:53358  if (_referrer == address(_referrer) && referrers[_user] == address(0) && _referrer != address(0) && _referrer != _user) {... */\n      iszero\n      tag_482\n      jumpi\n        /* \"TEXOToken.sol\":53250:53259  _referrer */\n      dup1\n        /* \"TEXOToken.sol\":53231:53240  referrers */\n      0x0d\n        /* \"TEXOToken.sol\":53231:53247  referrers[_user] */\n      0x00\n        /* \"TEXOToken.sol\":53241:53246  _user */\n      dup5\n        /* \"TEXOToken.sol\":53231:53247  referrers[_user] */\n      0xffffffffffffffffffffffffffffffffffffffff\n      and\n      0xffffffffffffffffffffffffffffffffffffffff\n      and\n      dup2\n      mstore\n      0x20\n      add\n      swap1\n      dup2\n      mstore\n      0x20\n      add\n      0x00\n      keccak256\n      0x00\n        /* \"TEXOToken.sol\":53231:53259  referrers[_user] = _referrer */\n      0x0100\n      exp\n      dup2\n      sload\n      dup2\n      0xffffffffffffffffffffffffffffffffffffffff\n      mul\n      not\n      and\n      swap1\n      dup4\n      0xffffffffffffffffffffffffffffffffffffffff\n      and\n      mul\n      or\n      swap1\n      sstore\n      pop\n        /* \"TEXOToken.sol\":53301:53302  1 */\n      0x01\n        /* \"TEXOToken.sol\":53273:53286  referredCount */\n      0x0e\n        /* \"TEXOToken.sol\":53273:53297  referredCount[_referrer] */\n      0x00\n        /* \"TEXOToken.sol\":53287:53296  _referrer */\n      dup4\n        /* \"TEXOToken.sol\":53273:53297  referredCount[_referrer] */\n      0xffffffffffffffffffffffffffffffffffffffff\n      and\n      0xffffffffffffffffffffffffffffffffffffffff\n      and\n      dup2\n      mstore\n      0x20\n      add\n      swap1\n      dup2\n      mstore\n      0x20\n      add\n      0x00\n      keccak256\n      0x00\n        /* \"TEXOToken.sol\":53273:53302  referredCount[_referrer] += 1 */\n      dup3\n      dup3\n      sload\n      add\n      swap3\n      pop\n      pop\n      dup2\n      swap1\n      sstore\n      pop\n        /* \"TEXOToken.sol\":53337:53346  _referrer */\n      dup1\n        /* \"TEXOToken.sol\":53321:53347  Referral(_user, _referrer) */\n      0xffffffffffffffffffffffffffffffffffffffff\n      and\n        /* \"TEXOToken.sol\":53330:53335  _user */\n      dup3\n        /* \"TEXOToken.sol\":53321:53347  Referral(_user, _referrer) */\n      0xffffffffffffffffffffffffffffffffffffffff\n      and\n      0x9d05414fb79fac216c15606de5cc06664e91a254e4d5f57664d5f1beaf7fb7ef\n      mload(0x40)\n      mload(0x40)\n      dup1\n      swap2\n      sub\n      swap1\n      log3\n        /* \"TEXOToken.sol\":53097:53358  if (_referrer == address(_referrer) && referrers[_user] == address(0) && _referrer != address(0) && _referrer != _user) {... */\n    tag_482:\n        /* \"TEXOToken.sol\":53023:53364  function setReferral(address _user, address _referrer) internal {... */\n      pop\n      pop\n      jump\t// out\n        /* \"TEXOToken.sol\":22850:23053  function safeTransferFrom(IBEP20 token, address from, address to, uint256 value) internal {... */\n    tag_298:\n        /* \"TEXOToken.sol\":22950:23046  _callOptionalReturn(token, abi.encodeWithSelector(token.transferFrom.selector, from, to, value)) */\n      tag_484\n        /* \"TEXOToken.sol\":22970:22975  token */\n      dup5\n        /* \"TEXOToken.sol\":23000:23027  token.transferFrom.selector */\n      shl(0xe0, 0x23b872dd)\n        /* \"TEXOToken.sol\":23029:23033  from */\n      dup6\n        /* \"TEXOToken.sol\":23035:23037  to */\n      dup6\n        /* \"TEXOToken.sol\":23039:23044  value */\n      dup6\n        /* \"TEXOToken.sol\":22977:23045  abi.encodeWithSelector(token.transferFrom.selector, from, to, value) */\n      add(0x24, mload(0x40))\n      dup1\n      dup5\n      0xffffffffffffffffffffffffffffffffffffffff\n      and\n      dup2\n      mstore\n      0x20\n      add\n      dup4\n      0xffffffffffffffffffffffffffffffffffffffff\n      and\n      dup2\n      mstore\n      0x20\n      add\n      dup3\n      dup2\n      mstore\n      0x20\n      add\n      swap4\n      pop\n      pop\n      pop\n      pop\n      mload(0x40)\n      0x20\n      dup2\n      dup4\n      sub\n      sub\n      dup2\n      mstore\n      swap1\n      0x40\n      mstore\n      swap1\n      not(0xffffffffffffffffffffffffffffffffffffffffffffffffffffffff)\n      and\n      0x20\n      dup3\n      add\n      dup1\n      mload\n      0xffffffffffffffffffffffffffffffffffffffffffffffffffffffff\n      dup4\n      dup2\n      dup4\n      and\n      or\n      dup4\n      mstore\n      pop\n      pop\n      pop\n      pop\n        /* \"TEXOToken.sol\":22950:22969  _callOptionalReturn */\n      tag_475\n        /* \"TEXOToken.sol\":22950:23046  _callOptionalReturn(token, abi.encodeWithSelector(token.transferFrom.selector, from, to, value)) */\n      jump\t// in\n    tag_484:\n        /* \"TEXOToken.sol\":22850:23053  function safeTransferFrom(IBEP20 token, address from, address to, uint256 value) internal {... */\n      pop\n      pop\n      pop\n      pop\n      jump\t// out\n        /* \"TEXOToken.sol\":12566:12791  function _transferOwnership(address newOwner) internal {... */\n    tag_420:\n        /* \"TEXOToken.sol\":12659:12660  0 */\n      0x00\n        /* \"TEXOToken.sol\":12639:12661  newOwner != address(0) */\n      0xffffffffffffffffffffffffffffffffffffffff\n      and\n        /* \"TEXOToken.sol\":12639:12647  newOwner */\n      dup2\n        /* \"TEXOToken.sol\":12639:12661  newOwner != address(0) */\n      0xffffffffffffffffffffffffffffffffffffffff\n      and\n      eq\n      iszero\n        /* \"TEXOToken.sol\":12631:12704  require(newOwner != address(0), \"Ownable: new owner is the zero address\") */\n      tag_486\n      jumpi\n      mload(0x40)\n      0x08c379a000000000000000000000000000000000000000000000000000000000\n      dup2\n      mstore\n      0x04\n      add\n      dup1\n      dup1\n      0x20\n      add\n      dup3\n      dup2\n      sub\n      dup3\n      mstore\n      0x26\n      dup2\n      mstore\n      0x20\n      add\n      dup1\n      data_245f15ff17f551913a7a18385165551503906a406f905ac1c2437281a7cd0cfe\n      0x26\n      swap2\n      codecopy\n      0x40\n      add\n      swap2\n      pop\n      pop\n      mload(0x40)\n      dup1\n      swap2\n      sub\n      swap1\n      revert\n    tag_486:\n        /* \"TEXOToken.sol\":12748:12756  newOwner */\n      dup1\n        /* \"TEXOToken.sol\":12719:12757  OwnershipTransferred(_owner, newOwner) */\n      0xffffffffffffffffffffffffffffffffffffffff\n      and\n        /* \"TEXOToken.sol\":12740:12746  _owner */\n      0x00\n      dup1\n      sload\n      swap1\n      0x0100\n      exp\n      swap1\n      div\n      0xffffffffffffffffffffffffffffffffffffffff\n      and\n        /* \"TEXOToken.sol\":12719:12757  OwnershipTransferred(_owner, newOwner) */\n      0xffffffffffffffffffffffffffffffffffffffff\n      and\n      0x8be0079c531659141344cd1fd0a4f28419497f9722a3daafe3b4186f6b6457e0\n      mload(0x40)\n      mload(0x40)\n      dup1\n      swap2\n      sub\n      swap1\n      log3\n        /* \"TEXOToken.sol\":12776:12784  newOwner */\n      dup1\n        /* \"TEXOToken.sol\":12767:12773  _owner */\n      0x00\n      dup1\n        /* \"TEXOToken.sol\":12767:12784  _owner = newOwner */\n      0x0100\n      exp\n      dup2\n      sload\n      dup2\n      0xffffffffffffffffffffffffffffffffffffffff\n      mul\n      not\n      and\n      swap1\n      dup4\n      0xffffffffffffffffffffffffffffffffffffffff\n      and\n      mul\n      or\n      swap1\n      sstore\n      pop\n        /* \"TEXOToken.sol\":12566:12791  function _transferOwnership(address newOwner) internal {... */\n      pop\n      jump\t// out\n        /* \"TEXOToken.sol\":3704:4042  function div(uint256 a, uint256 b, string memory errorMessage) internal pure returns (uint256) {... */\n    tag_443:\n        /* \"TEXOToken.sol\":3790:3797  uint256 */\n      0x00\n        /* \"TEXOToken.sol\":3887:3888  0 */\n      dup1\n        /* \"TEXOToken.sol\":3883:3884  b */\n      dup4\n        /* \"TEXOToken.sol\":3883:3888  b > 0 */\n      gt\n        /* \"TEXOToken.sol\":3890:3902  errorMessage */\n      dup3\n        /* \"TEXOToken.sol\":3875:3903  require(b > 0, errorMessage) */\n      swap1\n      tag_488\n      jumpi\n      mload(0x40)\n      0x08c379a000000000000000000000000000000000000000000000000000000000\n      dup2\n      mstore\n      0x04\n      add\n      dup1\n      dup1\n      0x20\n      add\n      dup3\n      dup2\n      sub\n      dup3\n      mstore\n      dup4\n      dup2\n      dup2\n      mload\n      dup2\n      mstore\n      0x20\n      add\n      swap2\n      pop\n      dup1\n      mload\n      swap1\n      0x20\n      add\n      swap1\n      dup1\n      dup4\n      dup4\n      0x00\n    tag_489:\n      dup4\n      dup2\n      lt\n      iszero\n      tag_491\n      jumpi\n      dup1\n      dup3\n      add\n      mload\n      dup2\n      dup5\n      add\n      mstore\n      0x20\n      dup2\n      add\n      swap1\n      pop\n      jump(tag_489)\n    tag_491:\n      pop\n      pop\n      pop\n      pop\n      swap1\n      pop\n      swap1\n      dup2\n      add\n      swap1\n      0x1f\n      and\n      dup1\n      iszero\n      tag_492\n      jumpi\n      dup1\n      dup3\n      sub\n      dup1\n      mload\n      0x01\n      dup4\n      0x20\n      sub\n      0x0100\n      exp\n      sub\n      not\n      and\n      dup2\n      mstore\n      0x20\n      add\n      swap2\n      pop\n    tag_492:\n      pop\n      swap3\n      pop\n      pop\n      pop\n      mload(0x40)\n      dup1\n      swap2\n      sub\n      swap1\n      revert\n    tag_488:\n      pop\n        /* \"TEXOToken.sol\":3913:3922  uint256 c */\n      0x00\n        /* \"TEXOToken.sol\":3929:3930  b */\n      dup4\n        /* \"TEXOToken.sol\":3925:3926  a */\n      dup6\n        /* \"TEXOToken.sol\":3925:3930  a / b */\n      dup2\n      tag_493\n      jumpi\n      invalid\n    tag_493:\n      div\n        /* \"TEXOToken.sol\":3913:3930  uint256 c = a / b */\n      swap1\n      pop\n        /* \"TEXOToken.sol\":4034:4035  c */\n      dup1\n        /* \"TEXOToken.sol\":4027:4035  return c */\n      swap2\n      pop\n      pop\n        /* \"TEXOToken.sol\":3704:4042  function div(uint256 a, uint256 b, string memory errorMessage) internal pure returns (uint256) {... */\n      swap4\n      swap3\n      pop\n      pop\n      pop\n      jump\t// out\n        /* \"TEXOToken.sol\":1758:1945  function sub(uint256 a, uint256 b, string memory errorMessage) internal pure returns (uint256) {... */\n    tag_446:\n        /* \"TEXOToken.sol\":1844:1851  uint256 */\n      0x00\n        /* \"TEXOToken.sol\":1876:1877  a */\n      dup4\n        /* \"TEXOToken.sol\":1871:1872  b */\n      dup4\n        /* \"TEXOToken.sol\":1871:1877  b <= a */\n      gt\n      iszero\n        /* \"TEXOToken.sol\":1879:1891  errorMessage */\n      dup3\n        /* \"TEXOToken.sol\":1863:1892  require(b <= a, errorMessage) */\n      swap1\n      tag_495\n      jumpi\n      mload(0x40)\n      0x08c379a000000000000000000000000000000000000000000000000000000000\n      dup2\n      mstore\n      0x04\n      add\n      dup1\n      dup1\n      0x20\n      add\n      dup3\n      dup2\n      sub\n      dup3\n      mstore\n      dup4\n      dup2\n      dup2\n      mload\n      dup2\n      mstore\n      0x20\n      add\n      swap2\n      pop\n      dup1\n      mload\n      swap1\n      0x20\n      add\n      swap1\n      dup1\n      dup4\n      dup4\n      0x00\n    tag_496:\n      dup4\n      dup2\n      lt\n      iszero\n      tag_498\n      jumpi\n      dup1\n      dup3\n      add\n      mload\n      dup2\n      dup5\n      add\n      mstore\n      0x20\n      dup2\n      add\n      swap1\n      pop\n      jump(tag_496)\n    tag_498:\n      pop\n      pop\n      pop\n      pop\n      swap1\n      pop\n      swap1\n      dup2\n      add\n      swap1\n      0x1f\n      and\n      dup1\n      iszero\n      tag_499\n      jumpi\n      dup1\n      dup3\n      sub\n      dup1\n      mload\n      0x01\n      dup4\n      0x20\n      sub\n      0x0100\n      exp\n      sub\n      not\n      and\n      dup2\n      mstore\n      0x20\n      add\n      swap2\n      pop\n    tag_499:\n      pop\n      swap3\n      pop\n      pop\n      pop\n      mload(0x40)\n      dup1\n      swap2\n      sub\n      swap1\n      revert\n    tag_495:\n      pop\n        /* \"TEXOToken.sol\":1902:1911  uint256 c */\n      0x00\n        /* \"TEXOToken.sol\":1918:1919  b */\n      dup4\n        /* \"TEXOToken.sol\":1914:1915  a */\n      dup6\n        /* \"TEXOToken.sol\":1914:1919  a - b */\n      sub\n        /* \"TEXOToken.sol\":1902:1919  uint256 c = a - b */\n      swap1\n      pop\n        /* \"TEXOToken.sol\":1937:1938  c */\n      dup1\n        /* \"TEXOToken.sol\":1930:1938  return c */\n      swap2\n      pop\n      pop\n        /* \"TEXOToken.sol\":1758:1945  function sub(uint256 a, uint256 b, string memory errorMessage) internal pure returns (uint256) {... */\n      swap4\n      swap3\n      pop\n      pop\n      pop\n      jump\t// out\n        /* \"TEXOToken.sol\":24932:25683  function _callOptionalReturn(IBEP20 token, bytes memory data) private {... */\n    tag_475:\n        /* \"TEXOToken.sol\":25351:25374  bytes memory returndata */\n      0x60\n        /* \"TEXOToken.sol\":25377:25446  address(token).functionCall(data, \"SafeBEP20: low-level call failed\") */\n      tag_501\n        /* \"TEXOToken.sol\":25405:25409  data */\n      dup3\n        /* \"TEXOToken.sol\":25377:25446  address(token).functionCall(data, \"SafeBEP20: low-level call failed\") */\n      mload(0x40)\n      dup1\n      0x40\n      add\n      0x40\n      mstore\n      dup1\n      0x20\n      dup2\n      mstore\n      0x20\n      add\n      0x5361666542455032303a206c6f772d6c6576656c2063616c6c206661696c6564\n      dup2\n      mstore\n      pop\n        /* \"TEXOToken.sol\":25385:25390  token */\n      dup6\n        /* \"TEXOToken.sol\":25377:25404  address(token).functionCall */\n      0xffffffffffffffffffffffffffffffffffffffff\n      and\n      tag_502\n      swap1\n        /* \"TEXOToken.sol\":25377:25446  address(token).functionCall(data, \"SafeBEP20: low-level call failed\") */\n      swap3\n      swap2\n      swap1\n      0xffffffff\n      and\n      jump\t// in\n    tag_501:\n        /* \"TEXOToken.sol\":25351:25446  bytes memory returndata = address(token).functionCall(data, \"SafeBEP20: low-level call failed\") */\n      swap1\n      pop\n        /* \"TEXOToken.sol\":25480:25481  0 */\n      0x00\n        /* \"TEXOToken.sol\":25460:25470  returndata */\n      dup2\n        /* \"TEXOToken.sol\":25460:25477  returndata.length */\n      mload\n        /* \"TEXOToken.sol\":25460:25481  returndata.length > 0 */\n      gt\n        /* \"TEXOToken.sol\":25456:25677  if (returndata.length > 0) { // Return data is optional... */\n      iszero\n      tag_503\n      jumpi\n        /* \"TEXOToken.sol\":25600:25610  returndata */\n      dup1\n        /* \"TEXOToken.sol\":25589:25619  abi.decode(returndata, (bool)) */\n      dup1\n      0x20\n      add\n      swap1\n      mload\n      0x20\n      dup2\n      lt\n      iszero\n      tag_504\n      jumpi\n      0x00\n      dup1\n      revert\n    tag_504:\n      dup2\n      add\n      swap1\n      dup1\n      dup1\n      mload\n      swap1\n      0x20\n      add\n      swap1\n      swap3\n      swap2\n      swap1\n      pop\n      pop\n      pop\n        /* \"TEXOToken.sol\":25581:25666  require(abi.decode(returndata, (bool)), \"SafeBEP20: BEP20 operation did not succeed\") */\n      tag_505\n      jumpi\n      mload(0x40)\n      0x08c379a000000000000000000000000000000000000000000000000000000000\n      dup2\n      mstore\n      0x04\n      add\n      dup1\n      dup1\n      0x20\n      add\n      dup3\n      dup2\n      sub\n      dup3\n      mstore\n      0x2a\n      dup2\n      mstore\n      0x20\n      add\n      dup1\n      data_21c3364d55537bf20eb8f05374e9f53f47299e1883c412f1f1135f398f2c2082\n      0x2a\n      swap2\n      codecopy\n      0x40\n      add\n      swap2\n      pop\n      pop\n      mload(0x40)\n      dup1\n      swap2\n      sub\n      swap1\n      revert\n    tag_505:\n        /* \"TEXOToken.sol\":25456:25677  if (returndata.length > 0) { // Return data is optional... */\n    tag_503:\n        /* \"TEXOToken.sol\":24932:25683  function _callOptionalReturn(IBEP20 token, bytes memory data) private {... */\n      pop\n      pop\n      pop\n      jump\t// out\n        /* \"TEXOToken.sol\":16312:16505  function functionCall(address target, bytes memory data, string memory errorMessage) internal returns (bytes memory) {... */\n    tag_502:\n        /* \"TEXOToken.sol\":16415:16427  bytes memory */\n      0x60\n        /* \"TEXOToken.sol\":16446:16498  functionCallWithValue(target, data, 0, errorMessage) */\n      tag_507\n        /* \"TEXOToken.sol\":16468:16474  target */\n      dup5\n        /* \"TEXOToken.sol\":16476:16480  data */\n      dup5\n        /* \"TEXOToken.sol\":16482:16483  0 */\n      0x00\n        /* \"TEXOToken.sol\":16485:16497  errorMessage */\n      dup6\n        /* \"TEXOToken.sol\":16446:16467  functionCallWithValue */\n      tag_508\n        /* \"TEXOToken.sol\":16446:16498  functionCallWithValue(target, data, 0, errorMessage) */\n      jump\t// in\n    tag_507:\n        /* \"TEXOToken.sol\":16439:16498  return functionCallWithValue(target, data, 0, errorMessage) */\n      swap1\n      pop\n        /* \"TEXOToken.sol\":16312:16505  function functionCall(address target, bytes memory data, string memory errorMessage) internal returns (bytes memory) {... */\n      swap4\n      swap3\n      pop\n      pop\n      pop\n      jump\t// out\n        /* \"TEXOToken.sol\":17339:17862  function functionCallWithValue(address target, bytes memory data, uint256 value, string memory errorMessage) internal returns (bytes memory) {... */\n    tag_508:\n        /* \"TEXOToken.sol\":17466:17478  bytes memory */\n      0x60\n        /* \"TEXOToken.sol\":17523:17528  value */\n      dup3\n        /* \"TEXOToken.sol\":17498:17519  address(this).balance */\n      selfbalance\n        /* \"TEXOToken.sol\":17498:17528  address(this).balance >= value */\n      lt\n      iszero\n        /* \"TEXOToken.sol\":17490:17571  require(address(this).balance >= value, \"Address: insufficient balance for call\") */\n      tag_510\n      jumpi\n      mload(0x40)\n      0x08c379a000000000000000000000000000000000000000000000000000000000\n      dup2\n      mstore\n      0x04\n      add\n      dup1\n      dup1\n      0x20\n      add\n      dup3\n      dup2\n      sub\n      dup3\n      mstore\n      0x26\n      dup2\n      mstore\n      0x20\n      add\n      dup1\n      data_565f1a77334fc4792800921178c71e4521acffab18ff9e7885b49377ee80ab4c\n      0x26\n      swap2\n      codecopy\n      0x40\n      add\n      swap2\n      pop\n      pop\n      mload(0x40)\n      dup1\n      swap2\n      sub\n      swap1\n      revert\n    tag_510:\n        /* \"TEXOToken.sol\":17589:17607  isContract(target) */\n      tag_511\n        /* \"TEXOToken.sol\":17600:17606  target */\n      dup6\n        /* \"TEXOToken.sol\":17589:17599  isContract */\n      tag_512\n        /* \"TEXOToken.sol\":17589:17607  isContract(target) */\n      jump\t// in\n    tag_511:\n        /* \"TEXOToken.sol\":17581:17641  require(isContract(target), \"Address: call to non-contract\") */\n      tag_513\n      jumpi\n      mload(0x40)\n      0x08c379a000000000000000000000000000000000000000000000000000000000\n      dup2\n      mstore\n      0x04\n      add\n      dup1\n      dup1\n      0x20\n      add\n      dup3\n      dup2\n      sub\n      dup3\n      mstore\n      0x1d\n      dup2\n      mstore\n      0x20\n      add\n      dup1\n      0x416464726573733a2063616c6c20746f206e6f6e2d636f6e7472616374000000\n      dup2\n      mstore\n      pop\n      0x20\n      add\n      swap2\n      pop\n      pop\n      mload(0x40)\n      dup1\n      swap2\n      sub\n      swap1\n      revert\n    tag_513:\n        /* \"TEXOToken.sol\":17712:17724  bool success */\n      0x00\n        /* \"TEXOToken.sol\":17726:17749  bytes memory returndata */\n      0x60\n        /* \"TEXOToken.sol\":17753:17759  target */\n      dup7\n        /* \"TEXOToken.sol\":17753:17764  target.call */\n      0xffffffffffffffffffffffffffffffffffffffff\n      and\n        /* \"TEXOToken.sol\":17773:17778  value */\n      dup6\n        /* \"TEXOToken.sol\":17781:17785  data */\n      dup8\n        /* \"TEXOToken.sol\":17753:17786  target.call{ value: value }(data) */\n      mload(0x40)\n      dup1\n      dup3\n      dup1\n      mload\n      swap1\n      0x20\n      add\n      swap1\n      dup1\n      dup4\n      dup4\n    tag_514:\n      0x20\n      dup4\n      lt\n      tag_516\n      jumpi\n      dup1\n      mload\n      dup3\n      mstore\n      0x20\n      dup3\n      add\n      swap2\n      pop\n      0x20\n      dup2\n      add\n      swap1\n      pop\n      0x20\n      dup4\n      sub\n      swap3\n      pop\n      jump(tag_514)\n    tag_516:\n      0x01\n      dup4\n      0x20\n      sub\n      0x0100\n      exp\n      sub\n      dup1\n      not\n      dup3\n      mload\n      and\n      dup2\n      dup5\n      mload\n      and\n      dup1\n      dup3\n      or\n      dup6\n      mstore\n      pop\n      pop\n      pop\n      pop\n      pop\n      pop\n      swap1\n      pop\n      add\n      swap2\n      pop\n      pop\n      0x00\n      mload(0x40)\n      dup1\n      dup4\n      sub\n      dup2\n      dup6\n      dup8\n      gas\n      call\n      swap3\n      pop\n      pop\n      pop\n      returndatasize\n      dup1\n      0x00\n      dup2\n      eq\n      tag_519\n      jumpi\n      mload(0x40)\n      swap2\n      pop\n      and(add(returndatasize, 0x3f), not(0x1f))\n      dup3\n      add\n      0x40\n      mstore\n      returndatasize\n      dup3\n      mstore\n      returndatasize\n      0x00\n      0x20\n      dup5\n      add\n      returndatacopy\n      jump(tag_518)\n    tag_519:\n      0x60\n      swap2\n      pop\n    tag_518:\n      pop\n        /* \"TEXOToken.sol\":17711:17786  (bool success, bytes memory returndata) = target.call{ value: value }(data) */\n      swap2\n      pop\n      swap2\n      pop\n        /* \"TEXOToken.sol\":17803:17855  _verifyCallResult(success, returndata, errorMessage) */\n      tag_520\n        /* \"TEXOToken.sol\":17821:17828  success */\n      dup3\n        /* \"TEXOToken.sol\":17830:17840  returndata */\n      dup3\n        /* \"TEXOToken.sol\":17842:17854  errorMessage */\n      dup7\n        /* \"TEXOToken.sol\":17803:17820  _verifyCallResult */\n      tag_521\n        /* \"TEXOToken.sol\":17803:17855  _verifyCallResult(success, returndata, errorMessage) */\n      jump\t// in\n    tag_520:\n        /* \"TEXOToken.sol\":17796:17855  return _verifyCallResult(success, returndata, errorMessage) */\n      swap3\n      pop\n      pop\n      pop\n        /* \"TEXOToken.sol\":17339:17862  function functionCallWithValue(address target, bytes memory data, uint256 value, string memory errorMessage) internal returns (bytes memory) {... */\n      swap5\n      swap4\n      pop\n      pop\n      pop\n      pop\n      jump\t// out\n        /* \"TEXOToken.sol\":13455:13868  function isContract(address account) internal view returns (bool) {... */\n    tag_512:\n        /* \"TEXOToken.sol\":13515:13519  bool */\n      0x00\n        /* \"TEXOToken.sol\":13718:13730  uint256 size */\n      dup1\n        /* \"TEXOToken.sol\":13827:13834  account */\n      dup3\n        /* \"TEXOToken.sol\":13815:13835  extcodesize(account) */\n      extcodesize\n        /* \"TEXOToken.sol\":13807:13835  size := extcodesize(account) */\n      swap1\n      pop\n        /* \"TEXOToken.sol\":13860:13861  0 */\n      0x00\n        /* \"TEXOToken.sol\":13853:13857  size */\n      dup2\n        /* \"TEXOToken.sol\":13853:13861  size > 0 */\n      gt\n        /* \"TEXOToken.sol\":13846:13861  return size > 0 */\n      swap2\n      pop\n      pop\n        /* \"TEXOToken.sol\":13455:13868  function isContract(address account) internal view returns (bool) {... */\n      swap2\n      swap1\n      pop\n      jump\t// out\n        /* \"TEXOToken.sol\":18842:19567  function _verifyCallResult(bool success, bytes memory returndata, string memory errorMessage) private pure returns(bytes memory) {... */\n    tag_521:\n        /* \"TEXOToken.sol\":18957:18969  bytes memory */\n      0x60\n        /* \"TEXOToken.sol\":18985:18992  success */\n      dup4\n        /* \"TEXOToken.sol\":18981:19561  if (success) {... */\n      iszero\n      tag_524\n      jumpi\n        /* \"TEXOToken.sol\":19015:19025  returndata */\n      dup3\n        /* \"TEXOToken.sol\":19008:19025  return returndata */\n      swap1\n      pop\n      jump(tag_523)\n        /* \"TEXOToken.sol\":18981:19561  if (success) {... */\n    tag_524:\n        /* \"TEXOToken.sol\":19146:19147  0 */\n      0x00\n        /* \"TEXOToken.sol\":19126:19136  returndata */\n      dup4\n        /* \"TEXOToken.sol\":19126:19143  returndata.length */\n      mload\n        /* \"TEXOToken.sol\":19126:19147  returndata.length > 0 */\n      gt\n        /* \"TEXOToken.sol\":19122:19551  if (returndata.length > 0) {... */\n      iszero\n      tag_526\n      jumpi\n        /* \"TEXOToken.sol\":19384:19394  returndata */\n      dup3\n        /* \"TEXOToken.sol\":19378:19395  mload(returndata) */\n      mload\n        /* \"TEXOToken.sol\":19444:19459  returndata_size */\n      dup1\n        /* \"TEXOToken.sol\":19431:19441  returndata */\n      dup5\n        /* \"TEXOToken.sol\":19427:19429  32 */\n      0x20\n        /* \"TEXOToken.sol\":19423:19442  add(32, returndata) */\n      add\n        /* \"TEXOToken.sol\":19416:19460  revert(add(32, returndata), returndata_size) */\n      revert\n        /* \"TEXOToken.sol\":19333:19478  {... */\n    tag_526:\n        /* \"TEXOToken.sol\":19523:19535  errorMessage */\n      dup2\n        /* \"TEXOToken.sol\":19516:19536  revert(errorMessage) */\n      mload(0x40)\n      0x08c379a000000000000000000000000000000000000000000000000000000000\n      dup2\n      mstore\n      0x04\n      add\n      dup1\n      dup1\n      0x20\n      add\n      dup3\n      dup2\n      sub\n      dup3\n      mstore\n      dup4\n      dup2\n      dup2\n      mload\n      dup2\n      mstore\n      0x20\n      add\n      swap2\n      pop\n      dup1\n      mload\n      swap1\n      0x20\n      add\n      swap1\n      dup1\n      dup4\n      dup4\n      0x00\n    tag_528:\n      dup4\n      dup2\n      lt\n      iszero\n      tag_530\n      jumpi\n      dup1\n      dup3\n      add\n      mload\n      dup2\n      dup5\n      add\n      mstore\n      0x20\n      dup2\n      add\n      swap1\n      pop\n      jump(tag_528)\n    tag_530:\n      pop\n      pop\n      pop\n      pop\n      swap1\n      pop\n      swap1\n      dup2\n      add\n      swap1\n      0x1f\n      and\n      dup1\n      iszero\n      tag_531\n      jumpi\n      dup1\n      dup3\n      sub\n      dup1\n      mload\n      0x01\n      dup4\n      0x20\n      sub\n      0x0100\n      exp\n      sub\n      not\n      and\n      dup2\n      mstore\n      0x20\n      add\n      swap2\n      pop\n    tag_531:\n      pop\n      swap3\n      pop\n      pop\n      pop\n      mload(0x40)\n      dup1\n      swap2\n      sub\n      swap1\n      revert\n        /* \"TEXOToken.sol\":18842:19567  function _verifyCallResult(bool success, bytes memory returndata, string memory errorMessage) private pure returns(bytes memory) {... */\n    tag_523:\n      swap4\n      swap3\n      pop\n      pop\n      pop\n      jump\t// out\n    stop\n    data_0ecf01aeb804f0ae223eada9d16893a9009cdcbe208d348705dc613f9a9f5331 6164643a20696e76616c6964206465706f7369742066656520626173697320706f696e7473\n    data_20a6bce988e8b6ff5852ac398e27735d1d8155a9d79e532ec3c3da13f504a6a4 757064617465526566426f6e757350657263656e743a20696e76616c696420726566657272616c20626f6e757320626173697320706f696e7473\n    data_21c3364d55537bf20eb8f05374e9f53f47299e1883c412f1f1135f398f2c2082 5361666542455032303a204245503230206f7065726174696f6e20646964206e6f742073756363656564\n    data_245f15ff17f551913a7a18385165551503906a406f905ac1c2437281a7cd0cfe 4f776e61626c653a206e6577206f776e657220697320746865207a65726f2061646472657373\n    data_2a7e0e7f8bc79ffac7125960112eaea13c804910c2e58b65c50e00aacc68de0e 73616665506c756d5472616e736665723a207472616e73666572206661696c65642e\n    data_542d191555ea619dedb1489efd71948659c57b11c6c1a84d1c1ce6e7c8074aad 6465706f7369743a20496e76616c69642072656665727265722061646472657373\n    data_565f1a77334fc4792800921178c71e4521acffab18ff9e7885b49377ee80ab4c 416464726573733a20696e73756666696369656e742062616c616e636520666f722063616c6c\n    data_9113bb53c2876a3805b2c9242029423fc540a728243ce887ab24c82cf119fba3 536166654d6174683a206d756c7469706c69636174696f6e206f766572666c6f77\n    data_9353dfb5d58f0da66015bbcadafa0686e2e7b7226db2e603088e70c7012680cf 7365743a20696e76616c6964206465706f7369742066656520626173697320706f696e7473\n    data_9d1a761c817eae8410d2081a433553cad78dcf01ebb754f58addc464260ba484 757064617465526566426f6e757350657263656e743a2073616d6520626f6e757320627020736574\n    data_a827dd9c9a80825686eef28a9f1d2466e1d29b6da48280d16028581898989615 726564756365456d697373696f6e526174655769746844656661756c74526174653a2043616e206f6e6c792062652063616c6c65642061667465722073706563696669656420626c6f636b20737461727473\n    data_bf35de78f3e15a98c58afdc189c393a6a76029783bd8ecfd3a8b87b4a628fd85 676574506f6f6c4964466f724c70546f6b656e3a20646f206e6f74206578697374\n    data_d4e7846547be135afcf8a93a01a9053e9fa2c0d79f8d5448158422588210b6ab 726564756365456d697373696f6e526174655769746844656661756c74526174653a20456d697373696f6e207261746520686173207265616368656420746865206d696e696d756d207468726573686f6c64\n    data_fb61bfab522ff5726f96c4cebf8c9bc7c68d529a173450ab2ca49eebd2ecf0bb 726564756365456d697373696f6e526174655769746844656661756c74526174653a205065726d697373696f6e20666c6167206e6f74207475726e6564206f6e\n\n    auxdata: 0xa2646970667358221220239a9129574f35bd77a8134ea4e0ef85f0a15fb2c5f0f259cca42bb01c7a6eba64736f6c634300060c0033\n}\n","bytecode":{"linkReferences":{},"object":"60806040526000600b556064600c5560006011556000601260006101000a81548160ff0219169083151502179055503480156200003b57600080fd5b5060405162004efb38038062004efb833981810160405260c08110156200006157600080fd5b810190808051906020019092919080519060200190929190805190602001909291908051906020019092919080519060200190929190805190602001909291905050506000620000b66200024e60201b60201c565b9050806000806101000a81548173ffffffffffffffffffffffffffffffffffffffff021916908373ffffffffffffffffffffffffffffffffffffffff1602179055508073ffffffffffffffffffffffffffffffffffffffff16600073ffffffffffffffffffffffffffffffffffffffff167f8be0079c531659141344cd1fd0a4f28419497f9722a3daafe3b4186f6b6457e060405160405180910390a3506001808190555085600260006101000a81548173ffffffffffffffffffffffffffffffffffffffff021916908373ffffffffffffffffffffffffffffffffffffffff16021790555084600360006101000a81548173ffffffffffffffffffffffffffffffffffffffff021916908373ffffffffffffffffffffffffffffffffffffffff16021790555083600560006101000a81548173ffffffffffffffffffffffffffffffffffffffff021916908373ffffffffffffffffffffffffffffffffffffffff1602179055506706f05b59d3b2000060048190555082600881905550816006819055508060078190555050505050505062000256565b600033905090565b614c9580620002666000396000f3fe608060405234801561001057600080fd5b50600436106102a05760003560e01c80638da5cb5b11610167578063b7eee1f1116100ce578063dfe3d2cd11610087578063dfe3d2cd14610bae578063e2bbb15814610c10578063ea76bc2914610c48578063ebec9e8b14610c52578063f2fde38b14610c96578063fab96ae614610cda576102a0565b8063b7eee1f114610a44578063c6df25bd14610a62578063cbd258b514610abe578063d0d41fe114610b18578063d4adafdf14610b5c578063da09c72c14610b7a576102a0565b80639bf62f7e116101205780639bf62f7e146108fa578063a151533314610952578063a1bdb15e14610970578063ae715d701461099e578063b2a5aa2e146109d2578063b51d4c8014610a00576102a0565b80638da5cb5b146107705780638dbb1e3a146107a45780638dbdbe6d146107f057806391bb809c1461084857806393f1a40b14610866578063955c9b93146108d8576102a0565b806351eb05a61161020b578063660f8340116101c4578063660f83401461069857806366f685ea146106b65780636a9a7660146106d4578063715018a6146106f257806380361747146106fc5780638705fcd41461072c576102a0565b806351eb05a6146105c85780635312ea8e146105f657806354324b581461062457806361e0c46814610642578063630b5ba11461066057806364ed743b1461066a576102a0565b80633b0f0f2f1161025d5780633b0f0f2f146104085780633f7b06d81461047657806341275358146104ce578063441a3e701461050257806347e3cda51461053a5780634a3b68cc1461055a576102a0565b8063081e3eda146102a55780631526fe27146102c357806317caf6f114610342578063190f39f0146103605780631eb704b0146103b85780633a22df78146103e6575b600080fd5b6102ad610d4c565b6040518082815260200191505060405180910390f35b6102ef600480360360208110156102d957600080fd5b8101908080359060200190929190505050610d59565b604051808773ffffffffffffffffffffffffffffffffffffffff1681526020018681526020018581526020018481526020018381526020018261ffff168152602001965050505050505060405180910390f35b61034a610dd0565b6040518082815260200191505060405180910390f35b6103a26004803603602081101561037657600080fd5b81019080803573ffffffffffffffffffffffffffffffffffffffff169060200190929190505050610dd6565b6040518082815260200191505060405180910390f35b6103e4600480360360208110156103ce57600080fd5b8101908080359060200190929190505050610ec8565b005b6103ee610f9a565b604051808261ffff16815260200191505060405180910390f35b61044a6004803603602081101561041e57600080fd5b81019080803573ffffffffffffffffffffffffffffffffffffffff169060200190929190505050610fa0565b604051808273ffffffffffffffffffffffffffffffffffffffff16815260200191505060405180910390f35b6104b86004803603602081101561048c57600080fd5b81019080803573ffffffffffffffffffffffffffffffffffffffff169060200190929190505050611009565b6040518082815260200191505060405180910390f35b6104d6611021565b604051808273ffffffffffffffffffffffffffffffffffffffff16815260200191505060405180910390f35b6105386004803603604081101561051857600080fd5b810190808035906020019092919080359060200190929190505050611047565b005b61054261134e565b60405180821515815260200191505060405180910390f35b61059c6004803603602081101561057057600080fd5b81019080803573ffffffffffffffffffffffffffffffffffffffff169060200190929190505050611361565b604051808273ffffffffffffffffffffffffffffffffffffffff16815260200191505060405180910390f35b6105f4600480360360208110156105de57600080fd5b8101908080359060200190929190505050611394565b005b6106226004803603602081101561060c57600080fd5b8101908080359060200190929190505050611702565b005b61062c6118d9565b6040518082815260200191505060405180910390f35b61064a6118df565b6040518082815260200191505060405180910390f35b6106686118eb565b005b6106966004803603602081101561068057600080fd5b8101908080359060200190929190505050611918565b005b6106a0611aeb565b6040518082815260200191505060405180910390f35b6106be611af1565b6040518082815260200191505060405180910390f35b6106dc611af7565b6040518082815260200191505060405180910390f35b6106fa611afd565b005b61072a6004803603602081101561071257600080fd5b81019080803515159060200190929190505050611c83565b005b61076e6004803603602081101561074257600080fd5b81019080803573ffffffffffffffffffffffffffffffffffffffff169060200190929190505050611d68565b005b610778611f6c565b604051808273ffffffffffffffffffffffffffffffffffffffff16815260200191505060405180910390f35b6107da600480360360408110156107ba57600080fd5b810190808035906020019092919080359060200190929190505050611f95565b6040518082815260200191505060405180910390f35b6108466004803603606081101561080657600080fd5b810190808035906020019092919080359060200190929190803573ffffffffffffffffffffffffffffffffffffffff169060200190929190505050611fb2565b005b610850612455565b6040518082815260200191505060405180910390f35b6108b26004803603604081101561087c57600080fd5b8101908080359060200190929190803573ffffffffffffffffffffffffffffffffffffffff169060200190929190505050612461565b604051808481526020018381526020018215158152602001935050505060405180910390f35b6108e06124a5565b604051808261ffff16815260200191505060405180910390f35b61093c6004803603602081101561091057600080fd5b81019080803573ffffffffffffffffffffffffffffffffffffffff1690602001909291905050506124ab565b6040518082815260200191505060405180910390f35b61095a6124c3565b6040518082815260200191505060405180910390f35b61099c6004803603602081101561098657600080fd5b81019080803590602001909291905050506124c9565b005b6109a6612601565b604051808273ffffffffffffffffffffffffffffffffffffffff16815260200191505060405180910390f35b6109fe600480360360208110156109e857600080fd5b8101908080359060200190929190505050612627565b005b610a2c60048036036020811015610a1657600080fd5b81019080803590602001909291905050506126f9565b60405180821515815260200191505060405180910390f35b610a4c612729565b6040518082815260200191505060405180910390f35b610abc600480360360a0811015610a7857600080fd5b810190808035906020019092919080359060200190929190803561ffff1690602001909291908035151590602001909291908035906020019092919050505061272f565b005b610b0060048036036020811015610ad457600080fd5b81019080803573ffffffffffffffffffffffffffffffffffffffff169060200190929190505050612950565b60405180821515815260200191505060405180910390f35b610b5a60048036036020811015610b2e57600080fd5b81019080803573ffffffffffffffffffffffffffffffffffffffff169060200190929190505050612970565b005b610b64612b74565b6040518082815260200191505060405180910390f35b610b82612b7a565b604051808273ffffffffffffffffffffffffffffffffffffffff16815260200191505060405180910390f35b610bfa60048036036040811015610bc457600080fd5b8101908080359060200190929190803573ffffffffffffffffffffffffffffffffffffffff169060200190929190505050612ba0565b6040518082815260200191505060405180910390f35b610c4660048036036040811015610c2657600080fd5b810190808035906020019092919080359060200190929190505050612df7565b005b610c50613201565b005b610c7e60048036036020811015610c6857600080fd5b810190808035906020019092919050505061345a565b60405180821515815260200191505060405180910390f35b610cd860048036036020811015610cac57600080fd5b81019080803573ffffffffffffffffffffffffffffffffffffffff16906020019092919050505061349c565b005b610d4a600480360360a0811015610cf057600080fd5b8101908080359060200190929190803573ffffffffffffffffffffffffffffffffffffffff169060200190929190803561ffff16906020019092919080351515906020019092919080359060200190929190505050613570565b005b6000600980549050905090565b60098181548110610d6657fe5b90600052602060002090600602016000915090508060000160009054906101000a900473ffffffffffffffffffffffffffffffffffffffff16908060010154908060020154908060030154908060040154908060050160009054906101000a900461ffff16905086565b600b5481565b6000801515600f60008473ffffffffffffffffffffffffffffffffffffffff1673ffffffffffffffffffffffffffffffffffffffff16815260200190815260200160002060009054906101000a900460ff1615151415610e81576040517f08c379a0000000000000000000000000000000000000000000000000000000008152600401808060200182810382526021815260200180614bad6021913960400191505060405180910390fd5b601060008373ffffffffffffffffffffffffffffffffffffffff1673ffffffffffffffffffffffffffffffffffffffff168152602001908152602001600020549050919050565b610ed0613967565b73ffffffffffffffffffffffffffffffffffffffff1660008054906101000a900473ffffffffffffffffffffffffffffffffffffffff1673ffffffffffffffffffffffffffffffffffffffff1614610f90576040517f08c379a00000000000000000000000000000000000000000000000000000000081526004018080602001828103825260208152602001807f4f776e61626c653a2063616c6c6572206973206e6f7420746865206f776e657281525060200191505060405180910390fd5b8060068190555050565b6107d081565b6000600d60008373ffffffffffffffffffffffffffffffffffffffff1673ffffffffffffffffffffffffffffffffffffffff16815260200190815260200160002060009054906101000a900473ffffffffffffffffffffffffffffffffffffffff169050919050565b600e6020528060005260406000206000915090505481565b600560009054906101000a900473ffffffffffffffffffffffffffffffffffffffff1681565b600260015414156110c0576040517f08c379a000000000000000000000000000000000000000000000000000000000815260040180806020018281038252601f8152602001807f5265656e7472616e637947756172643a207265656e7472616e742063616c6c0081525060200191505060405180910390fd5b60026001819055506000600983815481106110d757fe5b906000526020600020906006020190506000600a600085815260200190815260200160002060003373ffffffffffffffffffffffffffffffffffffffff1673ffffffffffffffffffffffffffffffffffffffff168152602001908152602001600020905082816000015410156111b5576040517f08c379a00000000000000000000000000000000000000000000000000000000081526004018080602001828103825260128152602001807f77697468647261773a206e6f7420676f6f64000000000000000000000000000081525060200191505060405180910390fd5b6111be84611394565b60006111c9856126f9565b90506000611215836001015461120764e8d4a510006111f98860040154886000015461396f90919063ffffffff16565b6139f590919063ffffffff16565b613a3f90919063ffffffff16565b90508180156112245750600081115b15611278576112333382613a89565b61123d3382613d5d565b61126f64e8d4a510006112618660040154866000015461396f90919063ffffffff16565b6139f590919063ffffffff16565b83600101819055505b60008511156112f057611298858460000154613a3f90919063ffffffff16565b83600001819055506112ef33868660000160009054906101000a900473ffffffffffffffffffffffffffffffffffffffff1673ffffffffffffffffffffffffffffffffffffffff16613f2a9092919063ffffffff16565b5b853373ffffffffffffffffffffffffffffffffffffffff167ff279e6a1f5e320cca91135676d9cb6e44ca8a08c0b88342bcdb1144f6511b568876040518082815260200191505060405180910390a350505050600180819055505050565b601260009054906101000a900460ff1681565b600d6020528060005260406000206000915054906101000a900473ffffffffffffffffffffffffffffffffffffffff1681565b6000600982815481106113a357fe5b90600052602060002090600602019050806003015443116113c457506116ff565b6113cd8261345a565b6113d757506116ff565b60008160000160009054906101000a900473ffffffffffffffffffffffffffffffffffffffff1673ffffffffffffffffffffffffffffffffffffffff166370a08231306040518263ffffffff1660e01b8152600401808273ffffffffffffffffffffffffffffffffffffffff16815260200191505060206040518083038186803b15801561146457600080fd5b505afa158015611478573d6000803e3d6000fd5b505050506040513d602081101561148e57600080fd5b8101908080519060200190929190505050905060008114806114b4575060008260010154145b156114c95743826003018190555050506116ff565b60006114d9836003015443611f95565b9050600061151c600b5461150e86600101546115006004548761396f90919063ffffffff16565b61396f90919063ffffffff16565b6139f590919063ffffffff16565b9050600260009054906101000a900473ffffffffffffffffffffffffffffffffffffffff1673ffffffffffffffffffffffffffffffffffffffff166340c10f19600360009054906101000a900473ffffffffffffffffffffffffffffffffffffffff16611593600a856139f590919063ffffffff16565b6040518363ffffffff1660e01b8152600401808373ffffffffffffffffffffffffffffffffffffffff16815260200182815260200192505050600060405180830381600087803b1580156115e657600080fd5b505af11580156115fa573d6000803e3d6000fd5b50505050600260009054906101000a900473ffffffffffffffffffffffffffffffffffffffff1673ffffffffffffffffffffffffffffffffffffffff166340c10f1930836040518363ffffffff1660e01b8152600401808373ffffffffffffffffffffffffffffffffffffffff16815260200182815260200192505050600060405180830381600087803b15801561169157600080fd5b505af11580156116a5573d6000803e3d6000fd5b505050506116e96116d6846116c864e8d4a510008561396f90919063ffffffff16565b6139f590919063ffffffff16565b8560040154613fcc90919063ffffffff16565b8460040181905550438460030181905550505050505b50565b6002600154141561177b576040517f08c379a000000000000000000000000000000000000000000000000000000000815260040180806020018281038252601f8152602001807f5265656e7472616e637947756172643a207265656e7472616e742063616c6c0081525060200191505060405180910390fd5b600260018190555060006009828154811061179257fe5b906000526020600020906006020190506000600a600084815260200190815260200160002060003373ffffffffffffffffffffffffffffffffffffffff1673ffffffffffffffffffffffffffffffffffffffff16815260200190815260200160002090506118493382600001548460000160009054906101000a900473ffffffffffffffffffffffffffffffffffffffff1673ffffffffffffffffffffffffffffffffffffffff16613f2a9092919063ffffffff16565b823373ffffffffffffffffffffffffffffffffffffffff167fbb757047c2b5f3974fe26b7c10f732e7bce710b0952a71082702781e62ae059583600001546040518082815260200191505060405180910390a3600081600001819055506000816001018190555060008160020160006101000a81548160ff02191690831515021790555050506001808190555050565b60065481565b67016345785d8a000081565b6000600980549050905060005b818110156119145761190981611394565b8060010190506118f8565b5050565b611920613967565b73ffffffffffffffffffffffffffffffffffffffff1660008054906101000a900473ffffffffffffffffffffffffffffffffffffffff1673ffffffffffffffffffffffffffffffffffffffff16146119e0576040517f08c379a00000000000000000000000000000000000000000000000000000000081526004018080602001828103825260208152602001807f4f776e61626c653a2063616c6c6572206973206e6f7420746865206f776e657281525060200191505060405180910390fd5b6107d061ffff16811115611a3f576040517f08c379a000000000000000000000000000000000000000000000000000000000815260040180806020018281038252603a8152602001806149fa603a913960400191505060405180910390fd5b600c54811415611a9a576040517f08c379a0000000000000000000000000000000000000000000000000000000008152600401808060200182810382526028815260200180614b336028913960400191505060405180910390fd5b6000600c54905081600c819055507f3282b692bfebf5f35b198a229212cf532c72099026ab54c4b8665382d1086b3f8183604051808381526020018281526020019250505060405180910390a15050565b60045481565b600c5481565b60115481565b611b05613967565b73ffffffffffffffffffffffffffffffffffffffff1660008054906101000a900473ffffffffffffffffffffffffffffffffffffffff1673ffffffffffffffffffffffffffffffffffffffff1614611bc5576040517f08c379a00000000000000000000000000000000000000000000000000000000081526004018080602001828103825260208152602001807f4f776e61626c653a2063616c6c6572206973206e6f7420746865206f776e657281525060200191505060405180910390fd5b600073ffffffffffffffffffffffffffffffffffffffff1660008054906101000a900473ffffffffffffffffffffffffffffffffffffffff1673ffffffffffffffffffffffffffffffffffffffff167f8be0079c531659141344cd1fd0a4f28419497f9722a3daafe3b4186f6b6457e060405160405180910390a360008060006101000a81548173ffffffffffffffffffffffffffffffffffffffff021916908373ffffffffffffffffffffffffffffffffffffffff160217905550565b611c8b613967565b73ffffffffffffffffffffffffffffffffffffffff1660008054906101000a900473ffffffffffffffffffffffffffffffffffffffff1673ffffffffffffffffffffffffffffffffffffffff1614611d4b576040517f08c379a00000000000000000000000000000000000000000000000000000000081526004018080602001828103825260208152602001807f4f776e61626c653a2063616c6c6572206973206e6f7420746865206f776e657281525060200191505060405180910390fd5b80601260006101000a81548160ff02191690831515021790555050565b600073ffffffffffffffffffffffffffffffffffffffff168173ffffffffffffffffffffffffffffffffffffffff161415611e0b576040517f08c379a000000000000000000000000000000000000000000000000000000000815260040180806020018281038252601e8152602001807f736574466565416464726573733a20696e76616c69642061646472657373000081525060200191505060405180910390fd5b600560009054906101000a900473ffffffffffffffffffffffffffffffffffffffff1673ffffffffffffffffffffffffffffffffffffffff163373ffffffffffffffffffffffffffffffffffffffff1614611ece576040517f08c379a00000000000000000000000000000000000000000000000000000000081526004018080602001828103825260188152602001807f736574466565416464726573733a20464f5242494444454e000000000000000081525060200191505060405180910390fd5b80600560006101000a81548173ffffffffffffffffffffffffffffffffffffffff021916908373ffffffffffffffffffffffffffffffffffffffff1602179055508073ffffffffffffffffffffffffffffffffffffffff163373ffffffffffffffffffffffffffffffffffffffff167fd44190acf9d04bdb5d3a1aafff7e6dee8b40b93dfb8c5d3f0eea4b9f4539c3f760405160405180910390a350565b60008060009054906101000a900473ffffffffffffffffffffffffffffffffffffffff16905090565b6000611faa8383613a3f90919063ffffffff16565b905092915050565b6002600154141561202b576040517f08c379a000000000000000000000000000000000000000000000000000000000815260040180806020018281038252601f8152602001807f5265656e7472616e637947756172643a207265656e7472616e742063616c6c0081525060200191505060405180910390fd5b60026001819055508073ffffffffffffffffffffffffffffffffffffffff168173ffffffffffffffffffffffffffffffffffffffff16146120b7576040517f08c379a0000000000000000000000000000000000000000000000000000000008152600401808060200182810382526021815260200180614aa66021913960400191505060405180910390fd5b6000600984815481106120c657fe5b906000526020600020906006020190506000600a600086815260200190815260200160002060003373ffffffffffffffffffffffffffffffffffffffff1673ffffffffffffffffffffffffffffffffffffffff168152602001908152602001600020905061213385611394565b6000816000015411156121fd57600061218a826001015461217c64e8d4a5100061216e8760040154876000015461396f90919063ffffffff16565b6139f590919063ffffffff16565b613a3f90919063ffffffff16565b90506000612197876126f9565b90508080156121a65750600082115b156121fa576121b53383613a89565b6121bf3383613d5d565b6121f164e8d4a510006121e38660040154866000015461396f90919063ffffffff16565b6139f590919063ffffffff16565b83600101819055505b50505b600084111561238a576122103384614054565b6122613330868560000160009054906101000a900473ffffffffffffffffffffffffffffffffffffffff1673ffffffffffffffffffffffffffffffffffffffff166142bb909392919063ffffffff16565b60008260050160009054906101000a900461ffff1661ffff1611156123695760006122bf6127106122b18560050160009054906101000a900461ffff1661ffff168861396f90919063ffffffff16565b6139f590919063ffffffff16565b90506122ea816122dc878560000154613fcc90919063ffffffff16565b613a3f90919063ffffffff16565b8260000181905550612363600560009054906101000a900473ffffffffffffffffffffffffffffffffffffffff16828560000160009054906101000a900473ffffffffffffffffffffffffffffffffffffffff1673ffffffffffffffffffffffffffffffffffffffff16613f2a9092919063ffffffff16565b50612389565b612380848260000154613fcc90919063ffffffff16565b81600001819055505b5b8060020160009054906101000a900460ff166123f8576123d264e8d4a510006123c48460040154846000015461396f90919063ffffffff16565b6139f590919063ffffffff16565b816001018190555060018160020160006101000a81548160ff0219169083151502179055505b843373ffffffffffffffffffffffffffffffffffffffff167f90890809c654f11d6e72a28fa60149770a0d11ec6c92319d6ceb2bb0a4ea1a15866040518082815260200191505060405180910390a3505060018081905550505050565b6706f05b59d3b2000081565b600a602052816000526040600020602052806000526040600020600091509150508060000154908060010154908060020160009054906101000a900460ff16905083565b6103e881565b60106020528060005260406000206000915090505481565b60075481565b6124d1613967565b73ffffffffffffffffffffffffffffffffffffffff1660008054906101000a900473ffffffffffffffffffffffffffffffffffffffff1673ffffffffffffffffffffffffffffffffffffffff1614612591576040517f08c379a00000000000000000000000000000000000000000000000000000000081526004018080602001828103825260208152602001807f4f776e61626c653a2063616c6c6572206973206e6f7420746865206f776e657281525060200191505060405180910390fd5b60006004549050816004819055506125a76118eb565b3373ffffffffffffffffffffffffffffffffffffffff167feedc6338c9c1ad8f3cd6c90dd09dbe98dbd57e610d3e59a17996d07acb0d95118284604051808381526020018281526020019250505060405180910390a25050565b600260009054906101000a900473ffffffffffffffffffffffffffffffffffffffff1681565b61262f613967565b73ffffffffffffffffffffffffffffffffffffffff1660008054906101000a900473ffffffffffffffffffffffffffffffffffffffff1673ffffffffffffffffffffffffffffffffffffffff16146126ef576040517f08c379a00000000000000000000000000000000000000000000000000000000081526004018080602001828103825260208152602001807f4f776e61626c653a2063616c6c6572206973206e6f7420746865206f776e657281525060200191505060405180910390fd5b8060078190555050565b6000806009838154811061270957fe5b906000526020600020906006020190504381600201541115915050919050565b6105dc81565b612737613967565b73ffffffffffffffffffffffffffffffffffffffff1660008054906101000a900473ffffffffffffffffffffffffffffffffffffffff1673ffffffffffffffffffffffffffffffffffffffff16146127f7576040517f08c379a00000000000000000000000000000000000000000000000000000000081526004018080602001828103825260208152602001807f4f776e61626c653a2063616c6c6572206973206e6f7420746865206f776e657281525060200191505060405180910390fd5b6103e861ffff168361ffff16111561285a576040517f08c379a0000000000000000000000000000000000000000000000000000000008152600401808060200182810382526025815260200180614b0e6025913960400191505060405180910390fd5b8115612869576128686118eb565b5b600080821161287a5760075461287c565b815b90506128c3856128b56009898154811061289257fe5b906000526020600020906006020160010154600b54613a3f90919063ffffffff16565b613fcc90919063ffffffff16565b600b8190555084600987815481106128d757fe5b90600052602060002090600602016001018190555083600987815481106128fa57fe5b906000526020600020906006020160050160006101000a81548161ffff021916908361ffff160217905550806009878154811061293357fe5b906000526020600020906006020160020181905550505050505050565b600f6020528060005260406000206000915054906101000a900460ff1681565b600073ffffffffffffffffffffffffffffffffffffffff168173ffffffffffffffffffffffffffffffffffffffff161415612a13576040517f08c379a00000000000000000000000000000000000000000000000000000000081526004018080602001828103825260148152602001807f6465763a20696e76616c6964206164647265737300000000000000000000000081525060200191505060405180910390fd5b600360009054906101000a900473ffffffffffffffffffffffffffffffffffffffff1673ffffffffffffffffffffffffffffffffffffffff163373ffffffffffffffffffffffffffffffffffffffff1614612ad6576040517f08c379a00000000000000000000000000000000000000000000000000000000081526004018080602001828103825260098152602001807f6465763a207775743f000000000000000000000000000000000000000000000081525060200191505060405180910390fd5b80600360006101000a81548173ffffffffffffffffffffffffffffffffffffffff021916908373ffffffffffffffffffffffffffffffffffffffff1602179055508073ffffffffffffffffffffffffffffffffffffffff163373ffffffffffffffffffffffffffffffffffffffff167f618c54559e94f1499a808aad71ee8729f8e74e8c48e979616328ce493a1a52e760405160405180910390a350565b61708081565b600360009054906101000a900473ffffffffffffffffffffffffffffffffffffffff1681565b60008060098481548110612bb057fe5b906000526020600020906006020190506000600a600086815260200190815260200160002060008573ffffffffffffffffffffffffffffffffffffffff1673ffffffffffffffffffffffffffffffffffffffff168152602001908152602001600020905060008260040154905060008360000160009054906101000a900473ffffffffffffffffffffffffffffffffffffffff1673ffffffffffffffffffffffffffffffffffffffff166370a08231306040518263ffffffff1660e01b8152600401808273ffffffffffffffffffffffffffffffffffffffff16815260200191505060206040518083038186803b158015612caa57600080fd5b505afa158015612cbe573d6000803e3d6000fd5b505050506040513d6020811015612cd457600080fd5b81019080805190602001909291905050509050612cf08761345a565b8015612cff5750836003015443115b8015612d0c575060008114155b15612da7576000612d21856003015443611f95565b90506000612d64600b54612d568860010154612d486004548761396f90919063ffffffff16565b61396f90919063ffffffff16565b6139f590919063ffffffff16565b9050612da2612d9384612d8564e8d4a510008561396f90919063ffffffff16565b6139f590919063ffffffff16565b85613fcc90919063ffffffff16565b935050505b612deb8360010154612ddd64e8d4a51000612dcf86886000015461396f90919063ffffffff16565b6139f590919063ffffffff16565b613a3f90919063ffffffff16565b94505050505092915050565b60026001541415612e70576040517f08c379a000000000000000000000000000000000000000000000000000000000815260040180806020018281038252601f8152602001807f5265656e7472616e637947756172643a207265656e7472616e742063616c6c0081525060200191505060405180910390fd5b6002600181905550600060098381548110612e8757fe5b906000526020600020906006020190506000600a600085815260200190815260200160002060003373ffffffffffffffffffffffffffffffffffffffff1673ffffffffffffffffffffffffffffffffffffffff1681526020019081526020016000209050612ef484611394565b600081600001541115612fb4576000612f4b8260010154612f3d64e8d4a51000612f2f8760040154876000015461396f90919063ffffffff16565b6139f590919063ffffffff16565b613a3f90919063ffffffff16565b90506000612f58866126f9565b9050808015612f675750600082115b15612fb157612f763383613a89565b612fa864e8d4a51000612f9a8660040154866000015461396f90919063ffffffff16565b6139f590919063ffffffff16565b83600101819055505b50505b60008311156131375761300e3330858560000160009054906101000a900473ffffffffffffffffffffffffffffffffffffffff1673ffffffffffffffffffffffffffffffffffffffff166142bb909392919063ffffffff16565b60008260050160009054906101000a900461ffff1661ffff16111561311657600061306c61271061305e8560050160009054906101000a900461ffff1661ffff168761396f90919063ffffffff16565b6139f590919063ffffffff16565b905061309781613089868560000154613fcc90919063ffffffff16565b613a3f90919063ffffffff16565b8260000181905550613110600560009054906101000a900473ffffffffffffffffffffffffffffffffffffffff16828560000160009054906101000a900473ffffffffffffffffffffffffffffffffffffffff1673ffffffffffffffffffffffffffffffffffffffff16613f2a9092919063ffffffff16565b50613136565b61312d838260000154613fcc90919063ffffffff16565b81600001819055505b5b8060020160009054906101000a900460ff166131a55761317f64e8d4a510006131718460040154846000015461396f90919063ffffffff16565b6139f590919063ffffffff16565b816001018190555060018160020160006101000a81548160ff0219169083151502179055505b833373ffffffffffffffffffffffffffffffffffffffff167f90890809c654f11d6e72a28fa60149770a0d11ec6c92319d6ceb2bb0a4ea1a15856040518082815260200191505060405180910390a35050600180819055505050565b601260009054906101000a900460ff16613266576040517f08c379a0000000000000000000000000000000000000000000000000000000008152600401808060200182810382526040815260200180614c206040913960400191505060405180910390fd5b60065443116132c0576040517f08c379a0000000000000000000000000000000000000000000000000000000008152600401808060200182810382526052815260200180614b5b6052913960600191505060405180910390fd5b67016345785d8a000060045411613322576040517f08c379a0000000000000000000000000000000000000000000000000000000008152600401808060200182810382526052815260200180614bce6052913960600191505060405180910390fd5b600061334d61708061333f60065443613a3f90919063ffffffff16565b6139f590919063ffffffff16565b9050601154811161335e5750613458565b60006004549050600060115490505b828110156133af576133a26127106133946105dc612710038561396f90919063ffffffff16565b6139f590919063ffffffff16565b915080600101905061336d565b5067016345785d8a000081106133c557806133cf565b67016345785d8a00005b905060045481106133e1575050613458565b6133e96118eb565b8160118190555060006004549050816004819055503373ffffffffffffffffffffffffffffffffffffffff167feedc6338c9c1ad8f3cd6c90dd09dbe98dbd57e610d3e59a17996d07acb0d95118284604051808381526020018281526020019250505060405180910390a25050505b565b6000806009838154811061346a57fe5b90600052602060002090600602019050613483836126f9565b8015613493575060008160010154145b15915050919050565b6134a4613967565b73ffffffffffffffffffffffffffffffffffffffff1660008054906101000a900473ffffffffffffffffffffffffffffffffffffffff1673ffffffffffffffffffffffffffffffffffffffff1614613564576040517f08c379a00000000000000000000000000000000000000000000000000000000081526004018080602001828103825260208152602001807f4f776e61626c653a2063616c6c6572206973206e6f7420746865206f776e657281525060200191505060405180910390fd5b61356d8161437c565b50565b613578613967565b73ffffffffffffffffffffffffffffffffffffffff1660008054906101000a900473ffffffffffffffffffffffffffffffffffffffff1673ffffffffffffffffffffffffffffffffffffffff1614613638576040517f08c379a00000000000000000000000000000000000000000000000000000000081526004018080602001828103825260208152602001807f4f776e61626c653a2063616c6c6572206973206e6f7420746865206f776e657281525060200191505060405180910390fd5b8360001515600f60008373ffffffffffffffffffffffffffffffffffffffff1673ffffffffffffffffffffffffffffffffffffffff16815260200190815260200160002060009054906101000a900460ff161515146136ff576040517f08c379a00000000000000000000000000000000000000000000000000000000081526004018080602001828103825260198152602001807f6e6f6e4475706c6963617465643a206475706c6963617465640000000000000081525060200191505060405180910390fd5b6103e861ffff168461ffff161115613762576040517f08c379a00000000000000000000000000000000000000000000000000000000081526004018080602001828103825260258152602001806149d56025913960400191505060405180910390fd5b8215613771576137706118eb565b5b600080831161378257600754613784565b825b905061379b87600b54613fcc90919063ffffffff16565b600b819055506001600f60008873ffffffffffffffffffffffffffffffffffffffff1673ffffffffffffffffffffffffffffffffffffffff16815260200190815260200160002060006101000a81548160ff02191690831515021790555060096040518060c001604052808873ffffffffffffffffffffffffffffffffffffffff168152602001898152602001838152602001600854431161383f57600854613841565b435b8152602001600081526020018761ffff16815250908060018154018082558091505060019003906000526020600020906006020160009091909190915060008201518160000160006101000a81548173ffffffffffffffffffffffffffffffffffffffff021916908373ffffffffffffffffffffffffffffffffffffffff1602179055506020820151816001015560408201518160020155606082015181600301556080820151816004015560a08201518160050160006101000a81548161ffff021916908361ffff1602179055505050600160098054905003601060008873ffffffffffffffffffffffffffffffffffffffff1673ffffffffffffffffffffffffffffffffffffffff1681526020019081526020016000208190555050505050505050565b600033905090565b60008083141561398257600090506139ef565b600082840290508284828161399357fe5b04146139ea576040517f08c379a0000000000000000000000000000000000000000000000000000000008152600401808060200182810382526021815260200180614aed6021913960400191505060405180910390fd5b809150505b92915050565b6000613a3783836040518060400160405280601a81526020017f536166654d6174683a206469766973696f6e206279207a65726f0000000000008152506144bf565b905092915050565b6000613a8183836040518060400160405280601e81526020017f536166654d6174683a207375627472616374696f6e206f766572666c6f770000815250614585565b905092915050565b6000600260009054906101000a900473ffffffffffffffffffffffffffffffffffffffff1673ffffffffffffffffffffffffffffffffffffffff166370a08231306040518263ffffffff1660e01b8152600401808273ffffffffffffffffffffffffffffffffffffffff16815260200191505060206040518083038186803b158015613b1457600080fd5b505afa158015613b28573d6000803e3d6000fd5b505050506040513d6020811015613b3e57600080fd5b81019080805190602001909291905050509050600081831115613c3057600260009054906101000a900473ffffffffffffffffffffffffffffffffffffffff1673ffffffffffffffffffffffffffffffffffffffff1663a9059cbb85846040518363ffffffff1660e01b8152600401808373ffffffffffffffffffffffffffffffffffffffff16815260200182815260200192505050602060405180830381600087803b158015613bee57600080fd5b505af1158015613c02573d6000803e3d6000fd5b505050506040513d6020811015613c1857600080fd5b81019080805190602001909291905050509050613d01565b600260009054906101000a900473ffffffffffffffffffffffffffffffffffffffff1673ffffffffffffffffffffffffffffffffffffffff1663a9059cbb85856040518363ffffffff1660e01b8152600401808373ffffffffffffffffffffffffffffffffffffffff16815260200182815260200192505050602060405180830381600087803b158015613cc357600080fd5b505af1158015613cd7573d6000803e3d6000fd5b505050506040513d6020811015613ced57600080fd5b810190808051906020019092919050505090505b80613d57576040517f08c379a0000000000000000000000000000000000000000000000000000000008152600401808060200182810382526022815260200180614a846022913960400191505060405180910390fd5b50505050565b6000613d6883610fa0565b9050600073ffffffffffffffffffffffffffffffffffffffff168173ffffffffffffffffffffffffffffffffffffffff1614158015613dd357508273ffffffffffffffffffffffffffffffffffffffff168173ffffffffffffffffffffffffffffffffffffffff1614155b8015613de157506000600c54115b15613f25576000613e11612710613e03600c548661396f90919063ffffffff16565b6139f590919063ffffffff16565b9050600260009054906101000a900473ffffffffffffffffffffffffffffffffffffffff1673ffffffffffffffffffffffffffffffffffffffff166340c10f1983836040518363ffffffff1660e01b8152600401808373ffffffffffffffffffffffffffffffffffffffff16815260200182815260200192505050600060405180830381600087803b158015613ea657600080fd5b505af1158015613eba573d6000803e3d6000fd5b505050508173ffffffffffffffffffffffffffffffffffffffff168473ffffffffffffffffffffffffffffffffffffffff167f0a721ab4682ceb61c7e4d264ef879fc419a6d764b136e7d96ef54b2053c75673836040518082815260200191505060405180910390a3505b505050565b613fc78363a9059cbb60e01b8484604051602401808373ffffffffffffffffffffffffffffffffffffffff16815260200182815260200192505050604051602081830303815290604052907bffffffffffffffffffffffffffffffffffffffffffffffffffffffff19166020820180517bffffffffffffffffffffffffffffffffffffffffffffffffffffffff8381831617835250505050614645565b505050565b60008082840190508381101561404a576040517f08c379a000000000000000000000000000000000000000000000000000000000815260040180806020018281038252601b8152602001807f536166654d6174683a206164646974696f6e206f766572666c6f77000000000081525060200191505060405180910390fd5b8091505092915050565b8073ffffffffffffffffffffffffffffffffffffffff168173ffffffffffffffffffffffffffffffffffffffff1614801561411a5750600073ffffffffffffffffffffffffffffffffffffffff16600d60008473ffffffffffffffffffffffffffffffffffffffff1673ffffffffffffffffffffffffffffffffffffffff16815260200190815260200160002060009054906101000a900473ffffffffffffffffffffffffffffffffffffffff1673ffffffffffffffffffffffffffffffffffffffff16145b80156141535750600073ffffffffffffffffffffffffffffffffffffffff168173ffffffffffffffffffffffffffffffffffffffff1614155b801561418b57508173ffffffffffffffffffffffffffffffffffffffff168173ffffffffffffffffffffffffffffffffffffffff1614155b156142b75780600d60008473ffffffffffffffffffffffffffffffffffffffff1673ffffffffffffffffffffffffffffffffffffffff16815260200190815260200160002060006101000a81548173ffffffffffffffffffffffffffffffffffffffff021916908373ffffffffffffffffffffffffffffffffffffffff1602179055506001600e60008373ffffffffffffffffffffffffffffffffffffffff1673ffffffffffffffffffffffffffffffffffffffff168152602001908152602001600020600082825401925050819055508073ffffffffffffffffffffffffffffffffffffffff168273ffffffffffffffffffffffffffffffffffffffff167f9d05414fb79fac216c15606de5cc06664e91a254e4d5f57664d5f1beaf7fb7ef60405160405180910390a35b5050565b614376846323b872dd60e01b858585604051602401808473ffffffffffffffffffffffffffffffffffffffff1681526020018373ffffffffffffffffffffffffffffffffffffffff1681526020018281526020019350505050604051602081830303815290604052907bffffffffffffffffffffffffffffffffffffffffffffffffffffffff19166020820180517bffffffffffffffffffffffffffffffffffffffffffffffffffffffff8381831617835250505050614645565b50505050565b600073ffffffffffffffffffffffffffffffffffffffff168173ffffffffffffffffffffffffffffffffffffffff161415614402576040517f08c379a0000000000000000000000000000000000000000000000000000000008152600401808060200182810382526026815260200180614a5e6026913960400191505060405180910390fd5b8073ffffffffffffffffffffffffffffffffffffffff1660008054906101000a900473ffffffffffffffffffffffffffffffffffffffff1673ffffffffffffffffffffffffffffffffffffffff167f8be0079c531659141344cd1fd0a4f28419497f9722a3daafe3b4186f6b6457e060405160405180910390a3806000806101000a81548173ffffffffffffffffffffffffffffffffffffffff021916908373ffffffffffffffffffffffffffffffffffffffff16021790555050565b6000808311829061456b576040517f08c379a00000000000000000000000000000000000000000000000000000000081526004018080602001828103825283818151815260200191508051906020019080838360005b83811015614530578082015181840152602081019050614515565b50505050905090810190601f16801561455d5780820380516001836020036101000a031916815260200191505b509250505060405180910390fd5b50600083858161457757fe5b049050809150509392505050565b6000838311158290614632576040517f08c379a00000000000000000000000000000000000000000000000000000000081526004018080602001828103825283818151815260200191508051906020019080838360005b838110156145f75780820151818401526020810190506145dc565b50505050905090810190601f1680156146245780820380516001836020036101000a031916815260200191505b509250505060405180910390fd5b5060008385039050809150509392505050565b60606146a7826040518060400160405280602081526020017f5361666542455032303a206c6f772d6c6576656c2063616c6c206661696c65648152508573ffffffffffffffffffffffffffffffffffffffff166147349092919063ffffffff16565b905060008151111561472f578080602001905160208110156146c857600080fd5b810190808051906020019092919050505061472e576040517f08c379a000000000000000000000000000000000000000000000000000000000815260040180806020018281038252602a815260200180614a34602a913960400191505060405180910390fd5b5b505050565b6060614743848460008561474c565b90509392505050565b6060824710156147a7576040517f08c379a0000000000000000000000000000000000000000000000000000000008152600401808060200182810382526026815260200180614ac76026913960400191505060405180910390fd5b6147b0856148f5565b614822576040517f08c379a000000000000000000000000000000000000000000000000000000000815260040180806020018281038252601d8152602001807f416464726573733a2063616c6c20746f206e6f6e2d636f6e747261637400000081525060200191505060405180910390fd5b600060608673ffffffffffffffffffffffffffffffffffffffff1685876040518082805190602001908083835b60208310614872578051825260208201915060208101905060208303925061484f565b6001836020036101000a03801982511681845116808217855250505050505090500191505060006040518083038185875af1925050503d80600081146148d4576040519150601f19603f3d011682016040523d82523d6000602084013e6148d9565b606091505b50915091506148e9828286614908565b92505050949350505050565b600080823b905060008111915050919050565b60608315614918578290506149cd565b60008351111561492b5782518084602001fd5b816040517f08c379a00000000000000000000000000000000000000000000000000000000081526004018080602001828103825283818151815260200191508051906020019080838360005b83811015614992578082015181840152602081019050614977565b50505050905090810190601f1680156149bf5780820380516001836020036101000a031916815260200191505b509250505060405180910390fd5b939250505056fe6164643a20696e76616c6964206465706f7369742066656520626173697320706f696e7473757064617465526566426f6e757350657263656e743a20696e76616c696420726566657272616c20626f6e757320626173697320706f696e74735361666542455032303a204245503230206f7065726174696f6e20646964206e6f7420737563636565644f776e61626c653a206e6577206f776e657220697320746865207a65726f206164647265737373616665506c756d5472616e736665723a207472616e73666572206661696c65642e6465706f7369743a20496e76616c69642072656665727265722061646472657373416464726573733a20696e73756666696369656e742062616c616e636520666f722063616c6c536166654d6174683a206d756c7469706c69636174696f6e206f766572666c6f777365743a20696e76616c6964206465706f7369742066656520626173697320706f696e7473757064617465526566426f6e757350657263656e743a2073616d6520626f6e757320627020736574726564756365456d697373696f6e526174655769746844656661756c74526174653a2043616e206f6e6c792062652063616c6c65642061667465722073706563696669656420626c6f636b20737461727473676574506f6f6c4964466f724c70546f6b656e3a20646f206e6f74206578697374726564756365456d697373696f6e526174655769746844656661756c74526174653a20456d697373696f6e207261746520686173207265616368656420746865206d696e696d756d207468726573686f6c64726564756365456d697373696f6e526174655769746844656661756c74526174653a205065726d697373696f6e20666c6167206e6f74207475726e6564206f6ea2646970667358221220239a9129574f35bd77a8134ea4e0ef85f0a15fb2c5f0f259cca42bb01c7a6eba64736f6c634300060c0033","opcodes":"PUSH1 0x80 PUSH1 0x40 MSTORE PUSH1 0x0 PUSH1 0xB SSTORE PUSH1 0x64 PUSH1 0xC SSTORE PUSH1 0x0 PUSH1 0x11 SSTORE PUSH1 0x0 PUSH1 0x12 PUSH1 0x0 PUSH2 0x100 EXP DUP2 SLOAD DUP2 PUSH1 0xFF MUL NOT AND SWAP1 DUP4 ISZERO ISZERO MUL OR SWAP1 SSTORE POP CALLVALUE DUP1 ISZERO PUSH3 0x3B JUMPI PUSH1 0x0 DUP1 REVERT JUMPDEST POP PUSH1 0x40 MLOAD PUSH3 0x4EFB CODESIZE SUB DUP1 PUSH3 0x4EFB DUP4 CODECOPY DUP2 DUP2 ADD PUSH1 0x40 MSTORE PUSH1 0xC0 DUP2 LT ISZERO PUSH3 0x61 JUMPI PUSH1 0x0 DUP1 REVERT JUMPDEST DUP2 ADD SWAP1 DUP1 DUP1 MLOAD SWAP1 PUSH1 0x20 ADD SWAP1 SWAP3 SWAP2 SWAP1 DUP1 MLOAD SWAP1 PUSH1 0x20 ADD SWAP1 SWAP3 SWAP2 SWAP1 DUP1 MLOAD SWAP1 PUSH1 0x20 ADD SWAP1 SWAP3 SWAP2 SWAP1 DUP1 MLOAD SWAP1 PUSH1 0x20 ADD SWAP1 SWAP3 SWAP2 SWAP1 DUP1 MLOAD SWAP1 PUSH1 0x20 ADD SWAP1 SWAP3 SWAP2 SWAP1 DUP1 MLOAD SWAP1 PUSH1 0x20 ADD SWAP1 SWAP3 SWAP2 SWAP1 POP POP POP PUSH1 0x0 PUSH3 0xB6 PUSH3 0x24E PUSH1 0x20 SHL PUSH1 0x20 SHR JUMP JUMPDEST SWAP1 POP DUP1 PUSH1 0x0 DUP1 PUSH2 0x100 EXP DUP2 SLOAD DUP2 PUSH20 0xFFFFFFFFFFFFFFFFFFFFFFFFFFFFFFFFFFFFFFFF MUL NOT AND SWAP1 DUP4 PUSH20 0xFFFFFFFFFFFFFFFFFFFFFFFFFFFFFFFFFFFFFFFF AND MUL OR SWAP1 SSTORE POP DUP1 PUSH20 0xFFFFFFFFFFFFFFFFFFFFFFFFFFFFFFFFFFFFFFFF AND PUSH1 0x0 PUSH20 0xFFFFFFFFFFFFFFFFFFFFFFFFFFFFFFFFFFFFFFFF AND PUSH32 0x8BE0079C531659141344CD1FD0A4F28419497F9722A3DAAFE3B4186F6B6457E0 PUSH1 0x40 MLOAD PUSH1 0x40 MLOAD DUP1 SWAP2 SUB SWAP1 LOG3 POP PUSH1 0x1 DUP1 DUP2 SWAP1 SSTORE POP DUP6 PUSH1 0x2 PUSH1 0x0 PUSH2 0x100 EXP DUP2 SLOAD DUP2 PUSH20 0xFFFFFFFFFFFFFFFFFFFFFFFFFFFFFFFFFFFFFFFF MUL NOT AND SWAP1 DUP4 PUSH20 0xFFFFFFFFFFFFFFFFFFFFFFFFFFFFFFFFFFFFFFFF AND MUL OR SWAP1 SSTORE POP DUP5 PUSH1 0x3 PUSH1 0x0 PUSH2 0x100 EXP DUP2 SLOAD DUP2 PUSH20 0xFFFFFFFFFFFFFFFFFFFFFFFFFFFFFFFFFFFFFFFF MUL NOT AND SWAP1 DUP4 PUSH20 0xFFFFFFFFFFFFFFFFFFFFFFFFFFFFFFFFFFFFFFFF AND MUL OR SWAP1 SSTORE POP DUP4 PUSH1 0x5 PUSH1 0x0 PUSH2 0x100 EXP DUP2 SLOAD DUP2 PUSH20 0xFFFFFFFFFFFFFFFFFFFFFFFFFFFFFFFFFFFFFFFF MUL NOT AND SWAP1 DUP4 PUSH20 0xFFFFFFFFFFFFFFFFFFFFFFFFFFFFFFFFFFFFFFFF AND MUL OR SWAP1 SSTORE POP PUSH8 0x6F05B59D3B20000 PUSH1 0x4 DUP2 SWAP1 SSTORE POP DUP3 PUSH1 0x8 DUP2 SWAP1 SSTORE POP DUP2 PUSH1 0x6 DUP2 SWAP1 SSTORE POP DUP1 PUSH1 0x7 DUP2 SWAP1 SSTORE POP POP POP POP POP POP POP PUSH3 0x256 JUMP JUMPDEST PUSH1 0x0 CALLER SWAP1 POP SWAP1 JUMP JUMPDEST PUSH2 0x4C95 DUP1 PUSH3 0x266 PUSH1 0x0 CODECOPY PUSH1 0x0 RETURN INVALID PUSH1 0x80 PUSH1 0x40 MSTORE CALLVALUE DUP1 ISZERO PUSH2 0x10 JUMPI PUSH1 0x0 DUP1 REVERT JUMPDEST POP PUSH1 0x4 CALLDATASIZE LT PUSH2 0x2A0 JUMPI PUSH1 0x0 CALLDATALOAD PUSH1 0xE0 SHR DUP1 PUSH4 0x8DA5CB5B GT PUSH2 0x167 JUMPI DUP1 PUSH4 0xB7EEE1F1 GT PUSH2 0xCE JUMPI DUP1 PUSH4 0xDFE3D2CD GT PUSH2 0x87 JUMPI DUP1 PUSH4 0xDFE3D2CD EQ PUSH2 0xBAE JUMPI DUP1 PUSH4 0xE2BBB158 EQ PUSH2 0xC10 JUMPI DUP1 PUSH4 0xEA76BC29 EQ PUSH2 0xC48 JUMPI DUP1 PUSH4 0xEBEC9E8B EQ PUSH2 0xC52 JUMPI DUP1 PUSH4 0xF2FDE38B EQ PUSH2 0xC96 JUMPI DUP1 PUSH4 0xFAB96AE6 EQ PUSH2 0xCDA JUMPI PUSH2 0x2A0 JUMP JUMPDEST DUP1 PUSH4 0xB7EEE1F1 EQ PUSH2 0xA44 JUMPI DUP1 PUSH4 0xC6DF25BD EQ PUSH2 0xA62 JUMPI DUP1 PUSH4 0xCBD258B5 EQ PUSH2 0xABE JUMPI DUP1 PUSH4 0xD0D41FE1 EQ PUSH2 0xB18 JUMPI DUP1 PUSH4 0xD4ADAFDF EQ PUSH2 0xB5C JUMPI DUP1 PUSH4 0xDA09C72C EQ PUSH2 0xB7A JUMPI PUSH2 0x2A0 JUMP JUMPDEST DUP1 PUSH4 0x9BF62F7E GT PUSH2 0x120 JUMPI DUP1 PUSH4 0x9BF62F7E EQ PUSH2 0x8FA JUMPI DUP1 PUSH4 0xA1515333 EQ PUSH2 0x952 JUMPI DUP1 PUSH4 0xA1BDB15E EQ PUSH2 0x970 JUMPI DUP1 PUSH4 0xAE715D70 EQ PUSH2 0x99E JUMPI DUP1 PUSH4 0xB2A5AA2E EQ PUSH2 0x9D2 JUMPI DUP1 PUSH4 0xB51D4C80 EQ PUSH2 0xA00 JUMPI PUSH2 0x2A0 JUMP JUMPDEST DUP1 PUSH4 0x8DA5CB5B EQ PUSH2 0x770 JUMPI DUP1 PUSH4 0x8DBB1E3A EQ PUSH2 0x7A4 JUMPI DUP1 PUSH4 0x8DBDBE6D EQ PUSH2 0x7F0 JUMPI DUP1 PUSH4 0x91BB809C EQ PUSH2 0x848 JUMPI DUP1 PUSH4 0x93F1A40B EQ PUSH2 0x866 JUMPI DUP1 PUSH4 0x955C9B93 EQ PUSH2 0x8D8 JUMPI PUSH2 0x2A0 JUMP JUMPDEST DUP1 PUSH4 0x51EB05A6 GT PUSH2 0x20B JUMPI DUP1 PUSH4 0x660F8340 GT PUSH2 0x1C4 JUMPI DUP1 PUSH4 0x660F8340 EQ PUSH2 0x698 JUMPI DUP1 PUSH4 0x66F685EA EQ PUSH2 0x6B6 JUMPI DUP1 PUSH4 0x6A9A7660 EQ PUSH2 0x6D4 JUMPI DUP1 PUSH4 0x715018A6 EQ PUSH2 0x6F2 JUMPI DUP1 PUSH4 0x80361747 EQ PUSH2 0x6FC JUMPI DUP1 PUSH4 0x8705FCD4 EQ PUSH2 0x72C JUMPI PUSH2 0x2A0 JUMP JUMPDEST DUP1 PUSH4 0x51EB05A6 EQ PUSH2 0x5C8 JUMPI DUP1 PUSH4 0x5312EA8E EQ PUSH2 0x5F6 JUMPI DUP1 PUSH4 0x54324B58 EQ PUSH2 0x624 JUMPI DUP1 PUSH4 0x61E0C468 EQ PUSH2 0x642 JUMPI DUP1 PUSH4 0x630B5BA1 EQ PUSH2 0x660 JUMPI DUP1 PUSH4 0x64ED743B EQ PUSH2 0x66A JUMPI PUSH2 0x2A0 JUMP JUMPDEST DUP1 PUSH4 0x3B0F0F2F GT PUSH2 0x25D JUMPI DUP1 PUSH4 0x3B0F0F2F EQ PUSH2 0x408 JUMPI DUP1 PUSH4 0x3F7B06D8 EQ PUSH2 0x476 JUMPI DUP1 PUSH4 0x41275358 EQ PUSH2 0x4CE JUMPI DUP1 PUSH4 0x441A3E70 EQ PUSH2 0x502 JUMPI DUP1 PUSH4 0x47E3CDA5 EQ PUSH2 0x53A JUMPI DUP1 PUSH4 0x4A3B68CC EQ PUSH2 0x55A JUMPI PUSH2 0x2A0 JUMP JUMPDEST DUP1 PUSH4 0x81E3EDA EQ PUSH2 0x2A5 JUMPI DUP1 PUSH4 0x1526FE27 EQ PUSH2 0x2C3 JUMPI DUP1 PUSH4 0x17CAF6F1 EQ PUSH2 0x342 JUMPI DUP1 PUSH4 0x190F39F0 EQ PUSH2 0x360 JUMPI DUP1 PUSH4 0x1EB704B0 EQ PUSH2 0x3B8 JUMPI DUP1 PUSH4 0x3A22DF78 EQ PUSH2 0x3E6 JUMPI JUMPDEST PUSH1 0x0 DUP1 REVERT JUMPDEST PUSH2 0x2AD PUSH2 0xD4C JUMP JUMPDEST PUSH1 0x40 MLOAD DUP1 DUP3 DUP2 MSTORE PUSH1 0x20 ADD SWAP2 POP POP PUSH1 0x40 MLOAD DUP1 SWAP2 SUB SWAP1 RETURN JUMPDEST PUSH2 0x2EF PUSH1 0x4 DUP1 CALLDATASIZE SUB PUSH1 0x20 DUP2 LT ISZERO PUSH2 0x2D9 JUMPI PUSH1 0x0 DUP1 REVERT JUMPDEST DUP2 ADD SWAP1 DUP1 DUP1 CALLDATALOAD SWAP1 PUSH1 0x20 ADD SWAP1 SWAP3 SWAP2 SWAP1 POP POP POP PUSH2 0xD59 JUMP JUMPDEST PUSH1 0x40 MLOAD DUP1 DUP8 PUSH20 0xFFFFFFFFFFFFFFFFFFFFFFFFFFFFFFFFFFFFFFFF AND DUP2 MSTORE PUSH1 0x20 ADD DUP7 DUP2 MSTORE PUSH1 0x20 ADD DUP6 DUP2 MSTORE PUSH1 0x20 ADD DUP5 DUP2 MSTORE PUSH1 0x20 ADD DUP4 DUP2 MSTORE PUSH1 0x20 ADD DUP3 PUSH2 0xFFFF AND DUP2 MSTORE PUSH1 0x20 ADD SWAP7 POP POP POP POP POP POP POP PUSH1 0x40 MLOAD DUP1 SWAP2 SUB SWAP1 RETURN JUMPDEST PUSH2 0x34A PUSH2 0xDD0 JUMP JUMPDEST PUSH1 0x40 MLOAD DUP1 DUP3 DUP2 MSTORE PUSH1 0x20 ADD SWAP2 POP POP PUSH1 0x40 MLOAD DUP1 SWAP2 SUB SWAP1 RETURN JUMPDEST PUSH2 0x3A2 PUSH1 0x4 DUP1 CALLDATASIZE SUB PUSH1 0x20 DUP2 LT ISZERO PUSH2 0x376 JUMPI PUSH1 0x0 DUP1 REVERT JUMPDEST DUP2 ADD SWAP1 DUP1 DUP1 CALLDATALOAD PUSH20 0xFFFFFFFFFFFFFFFFFFFFFFFFFFFFFFFFFFFFFFFF AND SWAP1 PUSH1 0x20 ADD SWAP1 SWAP3 SWAP2 SWAP1 POP POP POP PUSH2 0xDD6 JUMP JUMPDEST PUSH1 0x40 MLOAD DUP1 DUP3 DUP2 MSTORE PUSH1 0x20 ADD SWAP2 POP POP PUSH1 0x40 MLOAD DUP1 SWAP2 SUB SWAP1 RETURN JUMPDEST PUSH2 0x3E4 PUSH1 0x4 DUP1 CALLDATASIZE SUB PUSH1 0x20 DUP2 LT ISZERO PUSH2 0x3CE JUMPI PUSH1 0x0 DUP1 REVERT JUMPDEST DUP2 ADD SWAP1 DUP1 DUP1 CALLDATALOAD SWAP1 PUSH1 0x20 ADD SWAP1 SWAP3 SWAP2 SWAP1 POP POP POP PUSH2 0xEC8 JUMP JUMPDEST STOP JUMPDEST PUSH2 0x3EE PUSH2 0xF9A JUMP JUMPDEST PUSH1 0x40 MLOAD DUP1 DUP3 PUSH2 0xFFFF AND DUP2 MSTORE PUSH1 0x20 ADD SWAP2 POP POP PUSH1 0x40 MLOAD DUP1 SWAP2 SUB SWAP1 RETURN JUMPDEST PUSH2 0x44A PUSH1 0x4 DUP1 CALLDATASIZE SUB PUSH1 0x20 DUP2 LT ISZERO PUSH2 0x41E JUMPI PUSH1 0x0 DUP1 REVERT JUMPDEST DUP2 ADD SWAP1 DUP1 DUP1 CALLDATALOAD PUSH20 0xFFFFFFFFFFFFFFFFFFFFFFFFFFFFFFFFFFFFFFFF AND SWAP1 PUSH1 0x20 ADD SWAP1 SWAP3 SWAP2 SWAP1 POP POP POP PUSH2 0xFA0 JUMP JUMPDEST PUSH1 0x40 MLOAD DUP1 DUP3 PUSH20 0xFFFFFFFFFFFFFFFFFFFFFFFFFFFFFFFFFFFFFFFF AND DUP2 MSTORE PUSH1 0x20 ADD SWAP2 POP POP PUSH1 0x40 MLOAD DUP1 SWAP2 SUB SWAP1 RETURN JUMPDEST PUSH2 0x4B8 PUSH1 0x4 DUP1 CALLDATASIZE SUB PUSH1 0x20 DUP2 LT ISZERO PUSH2 0x48C JUMPI PUSH1 0x0 DUP1 REVERT JUMPDEST DUP2 ADD SWAP1 DUP1 DUP1 CALLDATALOAD PUSH20 0xFFFFFFFFFFFFFFFFFFFFFFFFFFFFFFFFFFFFFFFF AND SWAP1 PUSH1 0x20 ADD SWAP1 SWAP3 SWAP2 SWAP1 POP POP POP PUSH2 0x1009 JUMP JUMPDEST PUSH1 0x40 MLOAD DUP1 DUP3 DUP2 MSTORE PUSH1 0x20 ADD SWAP2 POP POP PUSH1 0x40 MLOAD DUP1 SWAP2 SUB SWAP1 RETURN JUMPDEST PUSH2 0x4D6 PUSH2 0x1021 JUMP JUMPDEST PUSH1 0x40 MLOAD DUP1 DUP3 PUSH20 0xFFFFFFFFFFFFFFFFFFFFFFFFFFFFFFFFFFFFFFFF AND DUP2 MSTORE PUSH1 0x20 ADD SWAP2 POP POP PUSH1 0x40 MLOAD DUP1 SWAP2 SUB SWAP1 RETURN JUMPDEST PUSH2 0x538 PUSH1 0x4 DUP1 CALLDATASIZE SUB PUSH1 0x40 DUP2 LT ISZERO PUSH2 0x518 JUMPI PUSH1 0x0 DUP1 REVERT JUMPDEST DUP2 ADD SWAP1 DUP1 DUP1 CALLDATALOAD SWAP1 PUSH1 0x20 ADD SWAP1 SWAP3 SWAP2 SWAP1 DUP1 CALLDATALOAD SWAP1 PUSH1 0x20 ADD SWAP1 SWAP3 SWAP2 SWAP1 POP POP POP PUSH2 0x1047 JUMP JUMPDEST STOP JUMPDEST PUSH2 0x542 PUSH2 0x134E JUMP JUMPDEST PUSH1 0x40 MLOAD DUP1 DUP3 ISZERO ISZERO DUP2 MSTORE PUSH1 0x20 ADD SWAP2 POP POP PUSH1 0x40 MLOAD DUP1 SWAP2 SUB SWAP1 RETURN JUMPDEST PUSH2 0x59C PUSH1 0x4 DUP1 CALLDATASIZE SUB PUSH1 0x20 DUP2 LT ISZERO PUSH2 0x570 JUMPI PUSH1 0x0 DUP1 REVERT JUMPDEST DUP2 ADD SWAP1 DUP1 DUP1 CALLDATALOAD PUSH20 0xFFFFFFFFFFFFFFFFFFFFFFFFFFFFFFFFFFFFFFFF AND SWAP1 PUSH1 0x20 ADD SWAP1 SWAP3 SWAP2 SWAP1 POP POP POP PUSH2 0x1361 JUMP JUMPDEST PUSH1 0x40 MLOAD DUP1 DUP3 PUSH20 0xFFFFFFFFFFFFFFFFFFFFFFFFFFFFFFFFFFFFFFFF AND DUP2 MSTORE PUSH1 0x20 ADD SWAP2 POP POP PUSH1 0x40 MLOAD DUP1 SWAP2 SUB SWAP1 RETURN JUMPDEST PUSH2 0x5F4 PUSH1 0x4 DUP1 CALLDATASIZE SUB PUSH1 0x20 DUP2 LT ISZERO PUSH2 0x5DE JUMPI PUSH1 0x0 DUP1 REVERT JUMPDEST DUP2 ADD SWAP1 DUP1 DUP1 CALLDATALOAD SWAP1 PUSH1 0x20 ADD SWAP1 SWAP3 SWAP2 SWAP1 POP POP POP PUSH2 0x1394 JUMP JUMPDEST STOP JUMPDEST PUSH2 0x622 PUSH1 0x4 DUP1 CALLDATASIZE SUB PUSH1 0x20 DUP2 LT ISZERO PUSH2 0x60C JUMPI PUSH1 0x0 DUP1 REVERT JUMPDEST DUP2 ADD SWAP1 DUP1 DUP1 CALLDATALOAD SWAP1 PUSH1 0x20 ADD SWAP1 SWAP3 SWAP2 SWAP1 POP POP POP PUSH2 0x1702 JUMP JUMPDEST STOP JUMPDEST PUSH2 0x62C PUSH2 0x18D9 JUMP JUMPDEST PUSH1 0x40 MLOAD DUP1 DUP3 DUP2 MSTORE PUSH1 0x20 ADD SWAP2 POP POP PUSH1 0x40 MLOAD DUP1 SWAP2 SUB SWAP1 RETURN JUMPDEST PUSH2 0x64A PUSH2 0x18DF JUMP JUMPDEST PUSH1 0x40 MLOAD DUP1 DUP3 DUP2 MSTORE PUSH1 0x20 ADD SWAP2 POP POP PUSH1 0x40 MLOAD DUP1 SWAP2 SUB SWAP1 RETURN JUMPDEST PUSH2 0x668 PUSH2 0x18EB JUMP JUMPDEST STOP JUMPDEST PUSH2 0x696 PUSH1 0x4 DUP1 CALLDATASIZE SUB PUSH1 0x20 DUP2 LT ISZERO PUSH2 0x680 JUMPI PUSH1 0x0 DUP1 REVERT JUMPDEST DUP2 ADD SWAP1 DUP1 DUP1 CALLDATALOAD SWAP1 PUSH1 0x20 ADD SWAP1 SWAP3 SWAP2 SWAP1 POP POP POP PUSH2 0x1918 JUMP JUMPDEST STOP JUMPDEST PUSH2 0x6A0 PUSH2 0x1AEB JUMP JUMPDEST PUSH1 0x40 MLOAD DUP1 DUP3 DUP2 MSTORE PUSH1 0x20 ADD SWAP2 POP POP PUSH1 0x40 MLOAD DUP1 SWAP2 SUB SWAP1 RETURN JUMPDEST PUSH2 0x6BE PUSH2 0x1AF1 JUMP JUMPDEST PUSH1 0x40 MLOAD DUP1 DUP3 DUP2 MSTORE PUSH1 0x20 ADD SWAP2 POP POP PUSH1 0x40 MLOAD DUP1 SWAP2 SUB SWAP1 RETURN JUMPDEST PUSH2 0x6DC PUSH2 0x1AF7 JUMP JUMPDEST PUSH1 0x40 MLOAD DUP1 DUP3 DUP2 MSTORE PUSH1 0x20 ADD SWAP2 POP POP PUSH1 0x40 MLOAD DUP1 SWAP2 SUB SWAP1 RETURN JUMPDEST PUSH2 0x6FA PUSH2 0x1AFD JUMP JUMPDEST STOP JUMPDEST PUSH2 0x72A PUSH1 0x4 DUP1 CALLDATASIZE SUB PUSH1 0x20 DUP2 LT ISZERO PUSH2 0x712 JUMPI PUSH1 0x0 DUP1 REVERT JUMPDEST DUP2 ADD SWAP1 DUP1 DUP1 CALLDATALOAD ISZERO ISZERO SWAP1 PUSH1 0x20 ADD SWAP1 SWAP3 SWAP2 SWAP1 POP POP POP PUSH2 0x1C83 JUMP JUMPDEST STOP JUMPDEST PUSH2 0x76E PUSH1 0x4 DUP1 CALLDATASIZE SUB PUSH1 0x20 DUP2 LT ISZERO PUSH2 0x742 JUMPI PUSH1 0x0 DUP1 REVERT JUMPDEST DUP2 ADD SWAP1 DUP1 DUP1 CALLDATALOAD PUSH20 0xFFFFFFFFFFFFFFFFFFFFFFFFFFFFFFFFFFFFFFFF AND SWAP1 PUSH1 0x20 ADD SWAP1 SWAP3 SWAP2 SWAP1 POP POP POP PUSH2 0x1D68 JUMP JUMPDEST STOP JUMPDEST PUSH2 0x778 PUSH2 0x1F6C JUMP JUMPDEST PUSH1 0x40 MLOAD DUP1 DUP3 PUSH20 0xFFFFFFFFFFFFFFFFFFFFFFFFFFFFFFFFFFFFFFFF AND DUP2 MSTORE PUSH1 0x20 ADD SWAP2 POP POP PUSH1 0x40 MLOAD DUP1 SWAP2 SUB SWAP1 RETURN JUMPDEST PUSH2 0x7DA PUSH1 0x4 DUP1 CALLDATASIZE SUB PUSH1 0x40 DUP2 LT ISZERO PUSH2 0x7BA JUMPI PUSH1 0x0 DUP1 REVERT JUMPDEST DUP2 ADD SWAP1 DUP1 DUP1 CALLDATALOAD SWAP1 PUSH1 0x20 ADD SWAP1 SWAP3 SWAP2 SWAP1 DUP1 CALLDATALOAD SWAP1 PUSH1 0x20 ADD SWAP1 SWAP3 SWAP2 SWAP1 POP POP POP PUSH2 0x1F95 JUMP JUMPDEST PUSH1 0x40 MLOAD DUP1 DUP3 DUP2 MSTORE PUSH1 0x20 ADD SWAP2 POP POP PUSH1 0x40 MLOAD DUP1 SWAP2 SUB SWAP1 RETURN JUMPDEST PUSH2 0x846 PUSH1 0x4 DUP1 CALLDATASIZE SUB PUSH1 0x60 DUP2 LT ISZERO PUSH2 0x806 JUMPI PUSH1 0x0 DUP1 REVERT JUMPDEST DUP2 ADD SWAP1 DUP1 DUP1 CALLDATALOAD SWAP1 PUSH1 0x20 ADD SWAP1 SWAP3 SWAP2 SWAP1 DUP1 CALLDATALOAD SWAP1 PUSH1 0x20 ADD SWAP1 SWAP3 SWAP2 SWAP1 DUP1 CALLDATALOAD PUSH20 0xFFFFFFFFFFFFFFFFFFFFFFFFFFFFFFFFFFFFFFFF AND SWAP1 PUSH1 0x20 ADD SWAP1 SWAP3 SWAP2 SWAP1 POP POP POP PUSH2 0x1FB2 JUMP JUMPDEST STOP JUMPDEST PUSH2 0x850 PUSH2 0x2455 JUMP JUMPDEST PUSH1 0x40 MLOAD DUP1 DUP3 DUP2 MSTORE PUSH1 0x20 ADD SWAP2 POP POP PUSH1 0x40 MLOAD DUP1 SWAP2 SUB SWAP1 RETURN JUMPDEST PUSH2 0x8B2 PUSH1 0x4 DUP1 CALLDATASIZE SUB PUSH1 0x40 DUP2 LT ISZERO PUSH2 0x87C JUMPI PUSH1 0x0 DUP1 REVERT JUMPDEST DUP2 ADD SWAP1 DUP1 DUP1 CALLDATALOAD SWAP1 PUSH1 0x20 ADD SWAP1 SWAP3 SWAP2 SWAP1 DUP1 CALLDATALOAD PUSH20 0xFFFFFFFFFFFFFFFFFFFFFFFFFFFFFFFFFFFFFFFF AND SWAP1 PUSH1 0x20 ADD SWAP1 SWAP3 SWAP2 SWAP1 POP POP POP PUSH2 0x2461 JUMP JUMPDEST PUSH1 0x40 MLOAD DUP1 DUP5 DUP2 MSTORE PUSH1 0x20 ADD DUP4 DUP2 MSTORE PUSH1 0x20 ADD DUP3 ISZERO ISZERO DUP2 MSTORE PUSH1 0x20 ADD SWAP4 POP POP POP POP PUSH1 0x40 MLOAD DUP1 SWAP2 SUB SWAP1 RETURN JUMPDEST PUSH2 0x8E0 PUSH2 0x24A5 JUMP JUMPDEST PUSH1 0x40 MLOAD DUP1 DUP3 PUSH2 0xFFFF AND DUP2 MSTORE PUSH1 0x20 ADD SWAP2 POP POP PUSH1 0x40 MLOAD DUP1 SWAP2 SUB SWAP1 RETURN JUMPDEST PUSH2 0x93C PUSH1 0x4 DUP1 CALLDATASIZE SUB PUSH1 0x20 DUP2 LT ISZERO PUSH2 0x910 JUMPI PUSH1 0x0 DUP1 REVERT JUMPDEST DUP2 ADD SWAP1 DUP1 DUP1 CALLDATALOAD PUSH20 0xFFFFFFFFFFFFFFFFFFFFFFFFFFFFFFFFFFFFFFFF AND SWAP1 PUSH1 0x20 ADD SWAP1 SWAP3 SWAP2 SWAP1 POP POP POP PUSH2 0x24AB JUMP JUMPDEST PUSH1 0x40 MLOAD DUP1 DUP3 DUP2 MSTORE PUSH1 0x20 ADD SWAP2 POP POP PUSH1 0x40 MLOAD DUP1 SWAP2 SUB SWAP1 RETURN JUMPDEST PUSH2 0x95A PUSH2 0x24C3 JUMP JUMPDEST PUSH1 0x40 MLOAD DUP1 DUP3 DUP2 MSTORE PUSH1 0x20 ADD SWAP2 POP POP PUSH1 0x40 MLOAD DUP1 SWAP2 SUB SWAP1 RETURN JUMPDEST PUSH2 0x99C PUSH1 0x4 DUP1 CALLDATASIZE SUB PUSH1 0x20 DUP2 LT ISZERO PUSH2 0x986 JUMPI PUSH1 0x0 DUP1 REVERT JUMPDEST DUP2 ADD SWAP1 DUP1 DUP1 CALLDATALOAD SWAP1 PUSH1 0x20 ADD SWAP1 SWAP3 SWAP2 SWAP1 POP POP POP PUSH2 0x24C9 JUMP JUMPDEST STOP JUMPDEST PUSH2 0x9A6 PUSH2 0x2601 JUMP JUMPDEST PUSH1 0x40 MLOAD DUP1 DUP3 PUSH20 0xFFFFFFFFFFFFFFFFFFFFFFFFFFFFFFFFFFFFFFFF AND DUP2 MSTORE PUSH1 0x20 ADD SWAP2 POP POP PUSH1 0x40 MLOAD DUP1 SWAP2 SUB SWAP1 RETURN JUMPDEST PUSH2 0x9FE PUSH1 0x4 DUP1 CALLDATASIZE SUB PUSH1 0x20 DUP2 LT ISZERO PUSH2 0x9E8 JUMPI PUSH1 0x0 DUP1 REVERT JUMPDEST DUP2 ADD SWAP1 DUP1 DUP1 CALLDATALOAD SWAP1 PUSH1 0x20 ADD SWAP1 SWAP3 SWAP2 SWAP1 POP POP POP PUSH2 0x2627 JUMP JUMPDEST STOP JUMPDEST PUSH2 0xA2C PUSH1 0x4 DUP1 CALLDATASIZE SUB PUSH1 0x20 DUP2 LT ISZERO PUSH2 0xA16 JUMPI PUSH1 0x0 DUP1 REVERT JUMPDEST DUP2 ADD SWAP1 DUP1 DUP1 CALLDATALOAD SWAP1 PUSH1 0x20 ADD SWAP1 SWAP3 SWAP2 SWAP1 POP POP POP PUSH2 0x26F9 JUMP JUMPDEST PUSH1 0x40 MLOAD DUP1 DUP3 ISZERO ISZERO DUP2 MSTORE PUSH1 0x20 ADD SWAP2 POP POP PUSH1 0x40 MLOAD DUP1 SWAP2 SUB SWAP1 RETURN JUMPDEST PUSH2 0xA4C PUSH2 0x2729 JUMP JUMPDEST PUSH1 0x40 MLOAD DUP1 DUP3 DUP2 MSTORE PUSH1 0x20 ADD SWAP2 POP POP PUSH1 0x40 MLOAD DUP1 SWAP2 SUB SWAP1 RETURN JUMPDEST PUSH2 0xABC PUSH1 0x4 DUP1 CALLDATASIZE SUB PUSH1 0xA0 DUP2 LT ISZERO PUSH2 0xA78 JUMPI PUSH1 0x0 DUP1 REVERT JUMPDEST DUP2 ADD SWAP1 DUP1 DUP1 CALLDATALOAD SWAP1 PUSH1 0x20 ADD SWAP1 SWAP3 SWAP2 SWAP1 DUP1 CALLDATALOAD SWAP1 PUSH1 0x20 ADD SWAP1 SWAP3 SWAP2 SWAP1 DUP1 CALLDATALOAD PUSH2 0xFFFF AND SWAP1 PUSH1 0x20 ADD SWAP1 SWAP3 SWAP2 SWAP1 DUP1 CALLDATALOAD ISZERO ISZERO SWAP1 PUSH1 0x20 ADD SWAP1 SWAP3 SWAP2 SWAP1 DUP1 CALLDATALOAD SWAP1 PUSH1 0x20 ADD SWAP1 SWAP3 SWAP2 SWAP1 POP POP POP PUSH2 0x272F JUMP JUMPDEST STOP JUMPDEST PUSH2 0xB00 PUSH1 0x4 DUP1 CALLDATASIZE SUB PUSH1 0x20 DUP2 LT ISZERO PUSH2 0xAD4 JUMPI PUSH1 0x0 DUP1 REVERT JUMPDEST DUP2 ADD SWAP1 DUP1 DUP1 CALLDATALOAD PUSH20 0xFFFFFFFFFFFFFFFFFFFFFFFFFFFFFFFFFFFFFFFF AND SWAP1 PUSH1 0x20 ADD SWAP1 SWAP3 SWAP2 SWAP1 POP POP POP PUSH2 0x2950 JUMP JUMPDEST PUSH1 0x40 MLOAD DUP1 DUP3 ISZERO ISZERO DUP2 MSTORE PUSH1 0x20 ADD SWAP2 POP POP PUSH1 0x40 MLOAD DUP1 SWAP2 SUB SWAP1 RETURN JUMPDEST PUSH2 0xB5A PUSH1 0x4 DUP1 CALLDATASIZE SUB PUSH1 0x20 DUP2 LT ISZERO PUSH2 0xB2E JUMPI PUSH1 0x0 DUP1 REVERT JUMPDEST DUP2 ADD SWAP1 DUP1 DUP1 CALLDATALOAD PUSH20 0xFFFFFFFFFFFFFFFFFFFFFFFFFFFFFFFFFFFFFFFF AND SWAP1 PUSH1 0x20 ADD SWAP1 SWAP3 SWAP2 SWAP1 POP POP POP PUSH2 0x2970 JUMP JUMPDEST STOP JUMPDEST PUSH2 0xB64 PUSH2 0x2B74 JUMP JUMPDEST PUSH1 0x40 MLOAD DUP1 DUP3 DUP2 MSTORE PUSH1 0x20 ADD SWAP2 POP POP PUSH1 0x40 MLOAD DUP1 SWAP2 SUB SWAP1 RETURN JUMPDEST PUSH2 0xB82 PUSH2 0x2B7A JUMP JUMPDEST PUSH1 0x40 MLOAD DUP1 DUP3 PUSH20 0xFFFFFFFFFFFFFFFFFFFFFFFFFFFFFFFFFFFFFFFF AND DUP2 MSTORE PUSH1 0x20 ADD SWAP2 POP POP PUSH1 0x40 MLOAD DUP1 SWAP2 SUB SWAP1 RETURN JUMPDEST PUSH2 0xBFA PUSH1 0x4 DUP1 CALLDATASIZE SUB PUSH1 0x40 DUP2 LT ISZERO PUSH2 0xBC4 JUMPI PUSH1 0x0 DUP1 REVERT JUMPDEST DUP2 ADD SWAP1 DUP1 DUP1 CALLDATALOAD SWAP1 PUSH1 0x20 ADD SWAP1 SWAP3 SWAP2 SWAP1 DUP1 CALLDATALOAD PUSH20 0xFFFFFFFFFFFFFFFFFFFFFFFFFFFFFFFFFFFFFFFF AND SWAP1 PUSH1 0x20 ADD SWAP1 SWAP3 SWAP2 SWAP1 POP POP POP PUSH2 0x2BA0 JUMP JUMPDEST PUSH1 0x40 MLOAD DUP1 DUP3 DUP2 MSTORE PUSH1 0x20 ADD SWAP2 POP POP PUSH1 0x40 MLOAD DUP1 SWAP2 SUB SWAP1 RETURN JUMPDEST PUSH2 0xC46 PUSH1 0x4 DUP1 CALLDATASIZE SUB PUSH1 0x40 DUP2 LT ISZERO PUSH2 0xC26 JUMPI PUSH1 0x0 DUP1 REVERT JUMPDEST DUP2 ADD SWAP1 DUP1 DUP1 CALLDATALOAD SWAP1 PUSH1 0x20 ADD SWAP1 SWAP3 SWAP2 SWAP1 DUP1 CALLDATALOAD SWAP1 PUSH1 0x20 ADD SWAP1 SWAP3 SWAP2 SWAP1 POP POP POP PUSH2 0x2DF7 JUMP JUMPDEST STOP JUMPDEST PUSH2 0xC50 PUSH2 0x3201 JUMP JUMPDEST STOP JUMPDEST PUSH2 0xC7E PUSH1 0x4 DUP1 CALLDATASIZE SUB PUSH1 0x20 DUP2 LT ISZERO PUSH2 0xC68 JUMPI PUSH1 0x0 DUP1 REVERT JUMPDEST DUP2 ADD SWAP1 DUP1 DUP1 CALLDATALOAD SWAP1 PUSH1 0x20 ADD SWAP1 SWAP3 SWAP2 SWAP1 POP POP POP PUSH2 0x345A JUMP JUMPDEST PUSH1 0x40 MLOAD DUP1 DUP3 ISZERO ISZERO DUP2 MSTORE PUSH1 0x20 ADD SWAP2 POP POP PUSH1 0x40 MLOAD DUP1 SWAP2 SUB SWAP1 RETURN JUMPDEST PUSH2 0xCD8 PUSH1 0x4 DUP1 CALLDATASIZE SUB PUSH1 0x20 DUP2 LT ISZERO PUSH2 0xCAC JUMPI PUSH1 0x0 DUP1 REVERT JUMPDEST DUP2 ADD SWAP1 DUP1 DUP1 CALLDATALOAD PUSH20 0xFFFFFFFFFFFFFFFFFFFFFFFFFFFFFFFFFFFFFFFF AND SWAP1 PUSH1 0x20 ADD SWAP1 SWAP3 SWAP2 SWAP1 POP POP POP PUSH2 0x349C JUMP JUMPDEST STOP JUMPDEST PUSH2 0xD4A PUSH1 0x4 DUP1 CALLDATASIZE SUB PUSH1 0xA0 DUP2 LT ISZERO PUSH2 0xCF0 JUMPI PUSH1 0x0 DUP1 REVERT JUMPDEST DUP2 ADD SWAP1 DUP1 DUP1 CALLDATALOAD SWAP1 PUSH1 0x20 ADD SWAP1 SWAP3 SWAP2 SWAP1 DUP1 CALLDATALOAD PUSH20 0xFFFFFFFFFFFFFFFFFFFFFFFFFFFFFFFFFFFFFFFF AND SWAP1 PUSH1 0x20 ADD SWAP1 SWAP3 SWAP2 SWAP1 DUP1 CALLDATALOAD PUSH2 0xFFFF AND SWAP1 PUSH1 0x20 ADD SWAP1 SWAP3 SWAP2 SWAP1 DUP1 CALLDATALOAD ISZERO ISZERO SWAP1 PUSH1 0x20 ADD SWAP1 SWAP3 SWAP2 SWAP1 DUP1 CALLDATALOAD SWAP1 PUSH1 0x20 ADD SWAP1 SWAP3 SWAP2 SWAP1 POP POP POP PUSH2 0x3570 JUMP JUMPDEST STOP JUMPDEST PUSH1 0x0 PUSH1 0x9 DUP1 SLOAD SWAP1 POP SWAP1 POP SWAP1 JUMP JUMPDEST PUSH1 0x9 DUP2 DUP2 SLOAD DUP2 LT PUSH2 0xD66 JUMPI INVALID JUMPDEST SWAP1 PUSH1 0x0 MSTORE PUSH1 0x20 PUSH1 0x0 KECCAK256 SWAP1 PUSH1 0x6 MUL ADD PUSH1 0x0 SWAP2 POP SWAP1 POP DUP1 PUSH1 0x0 ADD PUSH1 0x0 SWAP1 SLOAD SWAP1 PUSH2 0x100 EXP SWAP1 DIV PUSH20 0xFFFFFFFFFFFFFFFFFFFFFFFFFFFFFFFFFFFFFFFF AND SWAP1 DUP1 PUSH1 0x1 ADD SLOAD SWAP1 DUP1 PUSH1 0x2 ADD SLOAD SWAP1 DUP1 PUSH1 0x3 ADD SLOAD SWAP1 DUP1 PUSH1 0x4 ADD SLOAD SWAP1 DUP1 PUSH1 0x5 ADD PUSH1 0x0 SWAP1 SLOAD SWAP1 PUSH2 0x100 EXP SWAP1 DIV PUSH2 0xFFFF AND SWAP1 POP DUP7 JUMP JUMPDEST PUSH1 0xB SLOAD DUP2 JUMP JUMPDEST PUSH1 0x0 DUP1 ISZERO ISZERO PUSH1 0xF PUSH1 0x0 DUP5 PUSH20 0xFFFFFFFFFFFFFFFFFFFFFFFFFFFFFFFFFFFFFFFF AND PUSH20 0xFFFFFFFFFFFFFFFFFFFFFFFFFFFFFFFFFFFFFFFF AND DUP2 MSTORE PUSH1 0x20 ADD SWAP1 DUP2 MSTORE PUSH1 0x20 ADD PUSH1 0x0 KECCAK256 PUSH1 0x0 SWAP1 SLOAD SWAP1 PUSH2 0x100 EXP SWAP1 DIV PUSH1 0xFF AND ISZERO ISZERO EQ ISZERO PUSH2 0xE81 JUMPI PUSH1 0x40 MLOAD PUSH32 0x8C379A000000000000000000000000000000000000000000000000000000000 DUP2 MSTORE PUSH1 0x4 ADD DUP1 DUP1 PUSH1 0x20 ADD DUP3 DUP2 SUB DUP3 MSTORE PUSH1 0x21 DUP2 MSTORE PUSH1 0x20 ADD DUP1 PUSH2 0x4BAD PUSH1 0x21 SWAP2 CODECOPY PUSH1 0x40 ADD SWAP2 POP POP PUSH1 0x40 MLOAD DUP1 SWAP2 SUB SWAP1 REVERT JUMPDEST PUSH1 0x10 PUSH1 0x0 DUP4 PUSH20 0xFFFFFFFFFFFFFFFFFFFFFFFFFFFFFFFFFFFFFFFF AND PUSH20 0xFFFFFFFFFFFFFFFFFFFFFFFFFFFFFFFFFFFFFFFF AND DUP2 MSTORE PUSH1 0x20 ADD SWAP1 DUP2 MSTORE PUSH1 0x20 ADD PUSH1 0x0 KECCAK256 SLOAD SWAP1 POP SWAP2 SWAP1 POP JUMP JUMPDEST PUSH2 0xED0 PUSH2 0x3967 JUMP JUMPDEST PUSH20 0xFFFFFFFFFFFFFFFFFFFFFFFFFFFFFFFFFFFFFFFF AND PUSH1 0x0 DUP1 SLOAD SWAP1 PUSH2 0x100 EXP SWAP1 DIV PUSH20 0xFFFFFFFFFFFFFFFFFFFFFFFFFFFFFFFFFFFFFFFF AND PUSH20 0xFFFFFFFFFFFFFFFFFFFFFFFFFFFFFFFFFFFFFFFF AND EQ PUSH2 0xF90 JUMPI PUSH1 0x40 MLOAD PUSH32 0x8C379A000000000000000000000000000000000000000000000000000000000 DUP2 MSTORE PUSH1 0x4 ADD DUP1 DUP1 PUSH1 0x20 ADD DUP3 DUP2 SUB DUP3 MSTORE PUSH1 0x20 DUP2 MSTORE PUSH1 0x20 ADD DUP1 PUSH32 0x4F776E61626C653A2063616C6C6572206973206E6F7420746865206F776E6572 DUP2 MSTORE POP PUSH1 0x20 ADD SWAP2 POP POP PUSH1 0x40 MLOAD DUP1 SWAP2 SUB SWAP1 REVERT JUMPDEST DUP1 PUSH1 0x6 DUP2 SWAP1 SSTORE POP POP JUMP JUMPDEST PUSH2 0x7D0 DUP2 JUMP JUMPDEST PUSH1 0x0 PUSH1 0xD PUSH1 0x0 DUP4 PUSH20 0xFFFFFFFFFFFFFFFFFFFFFFFFFFFFFFFFFFFFFFFF AND PUSH20 0xFFFFFFFFFFFFFFFFFFFFFFFFFFFFFFFFFFFFFFFF AND DUP2 MSTORE PUSH1 0x20 ADD SWAP1 DUP2 MSTORE PUSH1 0x20 ADD PUSH1 0x0 KECCAK256 PUSH1 0x0 SWAP1 SLOAD SWAP1 PUSH2 0x100 EXP SWAP1 DIV PUSH20 0xFFFFFFFFFFFFFFFFFFFFFFFFFFFFFFFFFFFFFFFF AND SWAP1 POP SWAP2 SWAP1 POP JUMP JUMPDEST PUSH1 0xE PUSH1 0x20 MSTORE DUP1 PUSH1 0x0 MSTORE PUSH1 0x40 PUSH1 0x0 KECCAK256 PUSH1 0x0 SWAP2 POP SWAP1 POP SLOAD DUP2 JUMP JUMPDEST PUSH1 0x5 PUSH1 0x0 SWAP1 SLOAD SWAP1 PUSH2 0x100 EXP SWAP1 DIV PUSH20 0xFFFFFFFFFFFFFFFFFFFFFFFFFFFFFFFFFFFFFFFF AND DUP2 JUMP JUMPDEST PUSH1 0x2 PUSH1 0x1 SLOAD EQ ISZERO PUSH2 0x10C0 JUMPI PUSH1 0x40 MLOAD PUSH32 0x8C379A000000000000000000000000000000000000000000000000000000000 DUP2 MSTORE PUSH1 0x4 ADD DUP1 DUP1 PUSH1 0x20 ADD DUP3 DUP2 SUB DUP3 MSTORE PUSH1 0x1F DUP2 MSTORE PUSH1 0x20 ADD DUP1 PUSH32 0x5265656E7472616E637947756172643A207265656E7472616E742063616C6C00 DUP2 MSTORE POP PUSH1 0x20 ADD SWAP2 POP POP PUSH1 0x40 MLOAD DUP1 SWAP2 SUB SWAP1 REVERT JUMPDEST PUSH1 0x2 PUSH1 0x1 DUP2 SWAP1 SSTORE POP PUSH1 0x0 PUSH1 0x9 DUP4 DUP2 SLOAD DUP2 LT PUSH2 0x10D7 JUMPI INVALID JUMPDEST SWAP1 PUSH1 0x0 MSTORE PUSH1 0x20 PUSH1 0x0 KECCAK256 SWAP1 PUSH1 0x6 MUL ADD SWAP1 POP PUSH1 0x0 PUSH1 0xA PUSH1 0x0 DUP6 DUP2 MSTORE PUSH1 0x20 ADD SWAP1 DUP2 MSTORE PUSH1 0x20 ADD PUSH1 0x0 KECCAK256 PUSH1 0x0 CALLER PUSH20 0xFFFFFFFFFFFFFFFFFFFFFFFFFFFFFFFFFFFFFFFF AND PUSH20 0xFFFFFFFFFFFFFFFFFFFFFFFFFFFFFFFFFFFFFFFF AND DUP2 MSTORE PUSH1 0x20 ADD SWAP1 DUP2 MSTORE PUSH1 0x20 ADD PUSH1 0x0 KECCAK256 SWAP1 POP DUP3 DUP2 PUSH1 0x0 ADD SLOAD LT ISZERO PUSH2 0x11B5 JUMPI PUSH1 0x40 MLOAD PUSH32 0x8C379A000000000000000000000000000000000000000000000000000000000 DUP2 MSTORE PUSH1 0x4 ADD DUP1 DUP1 PUSH1 0x20 ADD DUP3 DUP2 SUB DUP3 MSTORE PUSH1 0x12 DUP2 MSTORE PUSH1 0x20 ADD DUP1 PUSH32 0x77697468647261773A206E6F7420676F6F640000000000000000000000000000 DUP2 MSTORE POP PUSH1 0x20 ADD SWAP2 POP POP PUSH1 0x40 MLOAD DUP1 SWAP2 SUB SWAP1 REVERT JUMPDEST PUSH2 0x11BE DUP5 PUSH2 0x1394 JUMP JUMPDEST PUSH1 0x0 PUSH2 0x11C9 DUP6 PUSH2 0x26F9 JUMP JUMPDEST SWAP1 POP PUSH1 0x0 PUSH2 0x1215 DUP4 PUSH1 0x1 ADD SLOAD PUSH2 0x1207 PUSH5 0xE8D4A51000 PUSH2 0x11F9 DUP9 PUSH1 0x4 ADD SLOAD DUP9 PUSH1 0x0 ADD SLOAD PUSH2 0x396F SWAP1 SWAP2 SWAP1 PUSH4 0xFFFFFFFF AND JUMP JUMPDEST PUSH2 0x39F5 SWAP1 SWAP2 SWAP1 PUSH4 0xFFFFFFFF AND JUMP JUMPDEST PUSH2 0x3A3F SWAP1 SWAP2 SWAP1 PUSH4 0xFFFFFFFF AND JUMP JUMPDEST SWAP1 POP DUP2 DUP1 ISZERO PUSH2 0x1224 JUMPI POP PUSH1 0x0 DUP2 GT JUMPDEST ISZERO PUSH2 0x1278 JUMPI PUSH2 0x1233 CALLER DUP3 PUSH2 0x3A89 JUMP JUMPDEST PUSH2 0x123D CALLER DUP3 PUSH2 0x3D5D JUMP JUMPDEST PUSH2 0x126F PUSH5 0xE8D4A51000 PUSH2 0x1261 DUP7 PUSH1 0x4 ADD SLOAD DUP7 PUSH1 0x0 ADD SLOAD PUSH2 0x396F SWAP1 SWAP2 SWAP1 PUSH4 0xFFFFFFFF AND JUMP JUMPDEST PUSH2 0x39F5 SWAP1 SWAP2 SWAP1 PUSH4 0xFFFFFFFF AND JUMP JUMPDEST DUP4 PUSH1 0x1 ADD DUP2 SWAP1 SSTORE POP JUMPDEST PUSH1 0x0 DUP6 GT ISZERO PUSH2 0x12F0 JUMPI PUSH2 0x1298 DUP6 DUP5 PUSH1 0x0 ADD SLOAD PUSH2 0x3A3F SWAP1 SWAP2 SWAP1 PUSH4 0xFFFFFFFF AND JUMP JUMPDEST DUP4 PUSH1 0x0 ADD DUP2 SWAP1 SSTORE POP PUSH2 0x12EF CALLER DUP7 DUP7 PUSH1 0x0 ADD PUSH1 0x0 SWAP1 SLOAD SWAP1 PUSH2 0x100 EXP SWAP1 DIV PUSH20 0xFFFFFFFFFFFFFFFFFFFFFFFFFFFFFFFFFFFFFFFF AND PUSH20 0xFFFFFFFFFFFFFFFFFFFFFFFFFFFFFFFFFFFFFFFF AND PUSH2 0x3F2A SWAP1 SWAP3 SWAP2 SWAP1 PUSH4 0xFFFFFFFF AND JUMP JUMPDEST JUMPDEST DUP6 CALLER PUSH20 0xFFFFFFFFFFFFFFFFFFFFFFFFFFFFFFFFFFFFFFFF AND PUSH32 0xF279E6A1F5E320CCA91135676D9CB6E44CA8A08C0B88342BCDB1144F6511B568 DUP8 PUSH1 0x40 MLOAD DUP1 DUP3 DUP2 MSTORE PUSH1 0x20 ADD SWAP2 POP POP PUSH1 0x40 MLOAD DUP1 SWAP2 SUB SWAP1 LOG3 POP POP POP POP PUSH1 0x1 DUP1 DUP2 SWAP1 SSTORE POP POP POP JUMP JUMPDEST PUSH1 0x12 PUSH1 0x0 SWAP1 SLOAD SWAP1 PUSH2 0x100 EXP SWAP1 DIV PUSH1 0xFF AND DUP2 JUMP JUMPDEST PUSH1 0xD PUSH1 0x20 MSTORE DUP1 PUSH1 0x0 MSTORE PUSH1 0x40 PUSH1 0x0 KECCAK256 PUSH1 0x0 SWAP2 POP SLOAD SWAP1 PUSH2 0x100 EXP SWAP1 DIV PUSH20 0xFFFFFFFFFFFFFFFFFFFFFFFFFFFFFFFFFFFFFFFF AND DUP2 JUMP JUMPDEST PUSH1 0x0 PUSH1 0x9 DUP3 DUP2 SLOAD DUP2 LT PUSH2 0x13A3 JUMPI INVALID JUMPDEST SWAP1 PUSH1 0x0 MSTORE PUSH1 0x20 PUSH1 0x0 KECCAK256 SWAP1 PUSH1 0x6 MUL ADD SWAP1 POP DUP1 PUSH1 0x3 ADD SLOAD NUMBER GT PUSH2 0x13C4 JUMPI POP PUSH2 0x16FF JUMP JUMPDEST PUSH2 0x13CD DUP3 PUSH2 0x345A JUMP JUMPDEST PUSH2 0x13D7 JUMPI POP PUSH2 0x16FF JUMP JUMPDEST PUSH1 0x0 DUP2 PUSH1 0x0 ADD PUSH1 0x0 SWAP1 SLOAD SWAP1 PUSH2 0x100 EXP SWAP1 DIV PUSH20 0xFFFFFFFFFFFFFFFFFFFFFFFFFFFFFFFFFFFFFFFF AND PUSH20 0xFFFFFFFFFFFFFFFFFFFFFFFFFFFFFFFFFFFFFFFF AND PUSH4 0x70A08231 ADDRESS PUSH1 0x40 MLOAD DUP3 PUSH4 0xFFFFFFFF AND PUSH1 0xE0 SHL DUP2 MSTORE PUSH1 0x4 ADD DUP1 DUP3 PUSH20 0xFFFFFFFFFFFFFFFFFFFFFFFFFFFFFFFFFFFFFFFF AND DUP2 MSTORE PUSH1 0x20 ADD SWAP2 POP POP PUSH1 0x20 PUSH1 0x40 MLOAD DUP1 DUP4 SUB DUP2 DUP7 DUP1 EXTCODESIZE ISZERO DUP1 ISZERO PUSH2 0x1464 JUMPI PUSH1 0x0 DUP1 REVERT JUMPDEST POP GAS STATICCALL ISZERO DUP1 ISZERO PUSH2 0x1478 JUMPI RETURNDATASIZE PUSH1 0x0 DUP1 RETURNDATACOPY RETURNDATASIZE PUSH1 0x0 REVERT JUMPDEST POP POP POP POP PUSH1 0x40 MLOAD RETURNDATASIZE PUSH1 0x20 DUP2 LT ISZERO PUSH2 0x148E JUMPI PUSH1 0x0 DUP1 REVERT JUMPDEST DUP2 ADD SWAP1 DUP1 DUP1 MLOAD SWAP1 PUSH1 0x20 ADD SWAP1 SWAP3 SWAP2 SWAP1 POP POP POP SWAP1 POP PUSH1 0x0 DUP2 EQ DUP1 PUSH2 0x14B4 JUMPI POP PUSH1 0x0 DUP3 PUSH1 0x1 ADD SLOAD EQ JUMPDEST ISZERO PUSH2 0x14C9 JUMPI NUMBER DUP3 PUSH1 0x3 ADD DUP2 SWAP1 SSTORE POP POP POP PUSH2 0x16FF JUMP JUMPDEST PUSH1 0x0 PUSH2 0x14D9 DUP4 PUSH1 0x3 ADD SLOAD NUMBER PUSH2 0x1F95 JUMP JUMPDEST SWAP1 POP PUSH1 0x0 PUSH2 0x151C PUSH1 0xB SLOAD PUSH2 0x150E DUP7 PUSH1 0x1 ADD SLOAD PUSH2 0x1500 PUSH1 0x4 SLOAD DUP8 PUSH2 0x396F SWAP1 SWAP2 SWAP1 PUSH4 0xFFFFFFFF AND JUMP JUMPDEST PUSH2 0x396F SWAP1 SWAP2 SWAP1 PUSH4 0xFFFFFFFF AND JUMP JUMPDEST PUSH2 0x39F5 SWAP1 SWAP2 SWAP1 PUSH4 0xFFFFFFFF AND JUMP JUMPDEST SWAP1 POP PUSH1 0x2 PUSH1 0x0 SWAP1 SLOAD SWAP1 PUSH2 0x100 EXP SWAP1 DIV PUSH20 0xFFFFFFFFFFFFFFFFFFFFFFFFFFFFFFFFFFFFFFFF AND PUSH20 0xFFFFFFFFFFFFFFFFFFFFFFFFFFFFFFFFFFFFFFFF AND PUSH4 0x40C10F19 PUSH1 0x3 PUSH1 0x0 SWAP1 SLOAD SWAP1 PUSH2 0x100 EXP SWAP1 DIV PUSH20 0xFFFFFFFFFFFFFFFFFFFFFFFFFFFFFFFFFFFFFFFF AND PUSH2 0x1593 PUSH1 0xA DUP6 PUSH2 0x39F5 SWAP1 SWAP2 SWAP1 PUSH4 0xFFFFFFFF AND JUMP JUMPDEST PUSH1 0x40 MLOAD DUP4 PUSH4 0xFFFFFFFF AND PUSH1 0xE0 SHL DUP2 MSTORE PUSH1 0x4 ADD DUP1 DUP4 PUSH20 0xFFFFFFFFFFFFFFFFFFFFFFFFFFFFFFFFFFFFFFFF AND DUP2 MSTORE PUSH1 0x20 ADD DUP3 DUP2 MSTORE PUSH1 0x20 ADD SWAP3 POP POP POP PUSH1 0x0 PUSH1 0x40 MLOAD DUP1 DUP4 SUB DUP2 PUSH1 0x0 DUP8 DUP1 EXTCODESIZE ISZERO DUP1 ISZERO PUSH2 0x15E6 JUMPI PUSH1 0x0 DUP1 REVERT JUMPDEST POP GAS CALL ISZERO DUP1 ISZERO PUSH2 0x15FA JUMPI RETURNDATASIZE PUSH1 0x0 DUP1 RETURNDATACOPY RETURNDATASIZE PUSH1 0x0 REVERT JUMPDEST POP POP POP POP PUSH1 0x2 PUSH1 0x0 SWAP1 SLOAD SWAP1 PUSH2 0x100 EXP SWAP1 DIV PUSH20 0xFFFFFFFFFFFFFFFFFFFFFFFFFFFFFFFFFFFFFFFF AND PUSH20 0xFFFFFFFFFFFFFFFFFFFFFFFFFFFFFFFFFFFFFFFF AND PUSH4 0x40C10F19 ADDRESS DUP4 PUSH1 0x40 MLOAD DUP4 PUSH4 0xFFFFFFFF AND PUSH1 0xE0 SHL DUP2 MSTORE PUSH1 0x4 ADD DUP1 DUP4 PUSH20 0xFFFFFFFFFFFFFFFFFFFFFFFFFFFFFFFFFFFFFFFF AND DUP2 MSTORE PUSH1 0x20 ADD DUP3 DUP2 MSTORE PUSH1 0x20 ADD SWAP3 POP POP POP PUSH1 0x0 PUSH1 0x40 MLOAD DUP1 DUP4 SUB DUP2 PUSH1 0x0 DUP8 DUP1 EXTCODESIZE ISZERO DUP1 ISZERO PUSH2 0x1691 JUMPI PUSH1 0x0 DUP1 REVERT JUMPDEST POP GAS CALL ISZERO DUP1 ISZERO PUSH2 0x16A5 JUMPI RETURNDATASIZE PUSH1 0x0 DUP1 RETURNDATACOPY RETURNDATASIZE PUSH1 0x0 REVERT JUMPDEST POP POP POP POP PUSH2 0x16E9 PUSH2 0x16D6 DUP5 PUSH2 0x16C8 PUSH5 0xE8D4A51000 DUP6 PUSH2 0x396F SWAP1 SWAP2 SWAP1 PUSH4 0xFFFFFFFF AND JUMP JUMPDEST PUSH2 0x39F5 SWAP1 SWAP2 SWAP1 PUSH4 0xFFFFFFFF AND JUMP JUMPDEST DUP6 PUSH1 0x4 ADD SLOAD PUSH2 0x3FCC SWAP1 SWAP2 SWAP1 PUSH4 0xFFFFFFFF AND JUMP JUMPDEST DUP5 PUSH1 0x4 ADD DUP2 SWAP1 SSTORE POP NUMBER DUP5 PUSH1 0x3 ADD DUP2 SWAP1 SSTORE POP POP POP POP POP JUMPDEST POP JUMP JUMPDEST PUSH1 0x2 PUSH1 0x1 SLOAD EQ ISZERO PUSH2 0x177B JUMPI PUSH1 0x40 MLOAD PUSH32 0x8C379A000000000000000000000000000000000000000000000000000000000 DUP2 MSTORE PUSH1 0x4 ADD DUP1 DUP1 PUSH1 0x20 ADD DUP3 DUP2 SUB DUP3 MSTORE PUSH1 0x1F DUP2 MSTORE PUSH1 0x20 ADD DUP1 PUSH32 0x5265656E7472616E637947756172643A207265656E7472616E742063616C6C00 DUP2 MSTORE POP PUSH1 0x20 ADD SWAP2 POP POP PUSH1 0x40 MLOAD DUP1 SWAP2 SUB SWAP1 REVERT JUMPDEST PUSH1 0x2 PUSH1 0x1 DUP2 SWAP1 SSTORE POP PUSH1 0x0 PUSH1 0x9 DUP3 DUP2 SLOAD DUP2 LT PUSH2 0x1792 JUMPI INVALID JUMPDEST SWAP1 PUSH1 0x0 MSTORE PUSH1 0x20 PUSH1 0x0 KECCAK256 SWAP1 PUSH1 0x6 MUL ADD SWAP1 POP PUSH1 0x0 PUSH1 0xA PUSH1 0x0 DUP5 DUP2 MSTORE PUSH1 0x20 ADD SWAP1 DUP2 MSTORE PUSH1 0x20 ADD PUSH1 0x0 KECCAK256 PUSH1 0x0 CALLER PUSH20 0xFFFFFFFFFFFFFFFFFFFFFFFFFFFFFFFFFFFFFFFF AND PUSH20 0xFFFFFFFFFFFFFFFFFFFFFFFFFFFFFFFFFFFFFFFF AND DUP2 MSTORE PUSH1 0x20 ADD SWAP1 DUP2 MSTORE PUSH1 0x20 ADD PUSH1 0x0 KECCAK256 SWAP1 POP PUSH2 0x1849 CALLER DUP3 PUSH1 0x0 ADD SLOAD DUP5 PUSH1 0x0 ADD PUSH1 0x0 SWAP1 SLOAD SWAP1 PUSH2 0x100 EXP SWAP1 DIV PUSH20 0xFFFFFFFFFFFFFFFFFFFFFFFFFFFFFFFFFFFFFFFF AND PUSH20 0xFFFFFFFFFFFFFFFFFFFFFFFFFFFFFFFFFFFFFFFF AND PUSH2 0x3F2A SWAP1 SWAP3 SWAP2 SWAP1 PUSH4 0xFFFFFFFF AND JUMP JUMPDEST DUP3 CALLER PUSH20 0xFFFFFFFFFFFFFFFFFFFFFFFFFFFFFFFFFFFFFFFF AND PUSH32 0xBB757047C2B5F3974FE26B7C10F732E7BCE710B0952A71082702781E62AE0595 DUP4 PUSH1 0x0 ADD SLOAD PUSH1 0x40 MLOAD DUP1 DUP3 DUP2 MSTORE PUSH1 0x20 ADD SWAP2 POP POP PUSH1 0x40 MLOAD DUP1 SWAP2 SUB SWAP1 LOG3 PUSH1 0x0 DUP2 PUSH1 0x0 ADD DUP2 SWAP1 SSTORE POP PUSH1 0x0 DUP2 PUSH1 0x1 ADD DUP2 SWAP1 SSTORE POP PUSH1 0x0 DUP2 PUSH1 0x2 ADD PUSH1 0x0 PUSH2 0x100 EXP DUP2 SLOAD DUP2 PUSH1 0xFF MUL NOT AND SWAP1 DUP4 ISZERO ISZERO MUL OR SWAP1 SSTORE POP POP POP PUSH1 0x1 DUP1 DUP2 SWAP1 SSTORE POP POP JUMP JUMPDEST PUSH1 0x6 SLOAD DUP2 JUMP JUMPDEST PUSH8 0x16345785D8A0000 DUP2 JUMP JUMPDEST PUSH1 0x0 PUSH1 0x9 DUP1 SLOAD SWAP1 POP SWAP1 POP PUSH1 0x0 JUMPDEST DUP2 DUP2 LT ISZERO PUSH2 0x1914 JUMPI PUSH2 0x1909 DUP2 PUSH2 0x1394 JUMP JUMPDEST DUP1 PUSH1 0x1 ADD SWAP1 POP PUSH2 0x18F8 JUMP JUMPDEST POP POP JUMP JUMPDEST PUSH2 0x1920 PUSH2 0x3967 JUMP JUMPDEST PUSH20 0xFFFFFFFFFFFFFFFFFFFFFFFFFFFFFFFFFFFFFFFF AND PUSH1 0x0 DUP1 SLOAD SWAP1 PUSH2 0x100 EXP SWAP1 DIV PUSH20 0xFFFFFFFFFFFFFFFFFFFFFFFFFFFFFFFFFFFFFFFF AND PUSH20 0xFFFFFFFFFFFFFFFFFFFFFFFFFFFFFFFFFFFFFFFF AND EQ PUSH2 0x19E0 JUMPI PUSH1 0x40 MLOAD PUSH32 0x8C379A000000000000000000000000000000000000000000000000000000000 DUP2 MSTORE PUSH1 0x4 ADD DUP1 DUP1 PUSH1 0x20 ADD DUP3 DUP2 SUB DUP3 MSTORE PUSH1 0x20 DUP2 MSTORE PUSH1 0x20 ADD DUP1 PUSH32 0x4F776E61626C653A2063616C6C6572206973206E6F7420746865206F776E6572 DUP2 MSTORE POP PUSH1 0x20 ADD SWAP2 POP POP PUSH1 0x40 MLOAD DUP1 SWAP2 SUB SWAP1 REVERT JUMPDEST PUSH2 0x7D0 PUSH2 0xFFFF AND DUP2 GT ISZERO PUSH2 0x1A3F JUMPI PUSH1 0x40 MLOAD PUSH32 0x8C379A000000000000000000000000000000000000000000000000000000000 DUP2 MSTORE PUSH1 0x4 ADD DUP1 DUP1 PUSH1 0x20 ADD DUP3 DUP2 SUB DUP3 MSTORE PUSH1 0x3A DUP2 MSTORE PUSH1 0x20 ADD DUP1 PUSH2 0x49FA PUSH1 0x3A SWAP2 CODECOPY PUSH1 0x40 ADD SWAP2 POP POP PUSH1 0x40 MLOAD DUP1 SWAP2 SUB SWAP1 REVERT JUMPDEST PUSH1 0xC SLOAD DUP2 EQ ISZERO PUSH2 0x1A9A JUMPI PUSH1 0x40 MLOAD PUSH32 0x8C379A000000000000000000000000000000000000000000000000000000000 DUP2 MSTORE PUSH1 0x4 ADD DUP1 DUP1 PUSH1 0x20 ADD DUP3 DUP2 SUB DUP3 MSTORE PUSH1 0x28 DUP2 MSTORE PUSH1 0x20 ADD DUP1 PUSH2 0x4B33 PUSH1 0x28 SWAP2 CODECOPY PUSH1 0x40 ADD SWAP2 POP POP PUSH1 0x40 MLOAD DUP1 SWAP2 SUB SWAP1 REVERT JUMPDEST PUSH1 0x0 PUSH1 0xC SLOAD SWAP1 POP DUP2 PUSH1 0xC DUP2 SWAP1 SSTORE POP PUSH32 0x3282B692BFEBF5F35B198A229212CF532C72099026AB54C4B8665382D1086B3F DUP2 DUP4 PUSH1 0x40 MLOAD DUP1 DUP4 DUP2 MSTORE PUSH1 0x20 ADD DUP3 DUP2 MSTORE PUSH1 0x20 ADD SWAP3 POP POP POP PUSH1 0x40 MLOAD DUP1 SWAP2 SUB SWAP1 LOG1 POP POP JUMP JUMPDEST PUSH1 0x4 SLOAD DUP2 JUMP JUMPDEST PUSH1 0xC SLOAD DUP2 JUMP JUMPDEST PUSH1 0x11 SLOAD DUP2 JUMP JUMPDEST PUSH2 0x1B05 PUSH2 0x3967 JUMP JUMPDEST PUSH20 0xFFFFFFFFFFFFFFFFFFFFFFFFFFFFFFFFFFFFFFFF AND PUSH1 0x0 DUP1 SLOAD SWAP1 PUSH2 0x100 EXP SWAP1 DIV PUSH20 0xFFFFFFFFFFFFFFFFFFFFFFFFFFFFFFFFFFFFFFFF AND PUSH20 0xFFFFFFFFFFFFFFFFFFFFFFFFFFFFFFFFFFFFFFFF AND EQ PUSH2 0x1BC5 JUMPI PUSH1 0x40 MLOAD PUSH32 0x8C379A000000000000000000000000000000000000000000000000000000000 DUP2 MSTORE PUSH1 0x4 ADD DUP1 DUP1 PUSH1 0x20 ADD DUP3 DUP2 SUB DUP3 MSTORE PUSH1 0x20 DUP2 MSTORE PUSH1 0x20 ADD DUP1 PUSH32 0x4F776E61626C653A2063616C6C6572206973206E6F7420746865206F776E6572 DUP2 MSTORE POP PUSH1 0x20 ADD SWAP2 POP POP PUSH1 0x40 MLOAD DUP1 SWAP2 SUB SWAP1 REVERT JUMPDEST PUSH1 0x0 PUSH20 0xFFFFFFFFFFFFFFFFFFFFFFFFFFFFFFFFFFFFFFFF AND PUSH1 0x0 DUP1 SLOAD SWAP1 PUSH2 0x100 EXP SWAP1 DIV PUSH20 0xFFFFFFFFFFFFFFFFFFFFFFFFFFFFFFFFFFFFFFFF AND PUSH20 0xFFFFFFFFFFFFFFFFFFFFFFFFFFFFFFFFFFFFFFFF AND PUSH32 0x8BE0079C531659141344CD1FD0A4F28419497F9722A3DAAFE3B4186F6B6457E0 PUSH1 0x40 MLOAD PUSH1 0x40 MLOAD DUP1 SWAP2 SUB SWAP1 LOG3 PUSH1 0x0 DUP1 PUSH1 0x0 PUSH2 0x100 EXP DUP2 SLOAD DUP2 PUSH20 0xFFFFFFFFFFFFFFFFFFFFFFFFFFFFFFFFFFFFFFFF MUL NOT AND SWAP1 DUP4 PUSH20 0xFFFFFFFFFFFFFFFFFFFFFFFFFFFFFFFFFFFFFFFF AND MUL OR SWAP1 SSTORE POP JUMP JUMPDEST PUSH2 0x1C8B PUSH2 0x3967 JUMP JUMPDEST PUSH20 0xFFFFFFFFFFFFFFFFFFFFFFFFFFFFFFFFFFFFFFFF AND PUSH1 0x0 DUP1 SLOAD SWAP1 PUSH2 0x100 EXP SWAP1 DIV PUSH20 0xFFFFFFFFFFFFFFFFFFFFFFFFFFFFFFFFFFFFFFFF AND PUSH20 0xFFFFFFFFFFFFFFFFFFFFFFFFFFFFFFFFFFFFFFFF AND EQ PUSH2 0x1D4B JUMPI PUSH1 0x40 MLOAD PUSH32 0x8C379A000000000000000000000000000000000000000000000000000000000 DUP2 MSTORE PUSH1 0x4 ADD DUP1 DUP1 PUSH1 0x20 ADD DUP3 DUP2 SUB DUP3 MSTORE PUSH1 0x20 DUP2 MSTORE PUSH1 0x20 ADD DUP1 PUSH32 0x4F776E61626C653A2063616C6C6572206973206E6F7420746865206F776E6572 DUP2 MSTORE POP PUSH1 0x20 ADD SWAP2 POP POP PUSH1 0x40 MLOAD DUP1 SWAP2 SUB SWAP1 REVERT JUMPDEST DUP1 PUSH1 0x12 PUSH1 0x0 PUSH2 0x100 EXP DUP2 SLOAD DUP2 PUSH1 0xFF MUL NOT AND SWAP1 DUP4 ISZERO ISZERO MUL OR SWAP1 SSTORE POP POP JUMP JUMPDEST PUSH1 0x0 PUSH20 0xFFFFFFFFFFFFFFFFFFFFFFFFFFFFFFFFFFFFFFFF AND DUP2 PUSH20 0xFFFFFFFFFFFFFFFFFFFFFFFFFFFFFFFFFFFFFFFF AND EQ ISZERO PUSH2 0x1E0B JUMPI PUSH1 0x40 MLOAD PUSH32 0x8C379A000000000000000000000000000000000000000000000000000000000 DUP2 MSTORE PUSH1 0x4 ADD DUP1 DUP1 PUSH1 0x20 ADD DUP3 DUP2 SUB DUP3 MSTORE PUSH1 0x1E DUP2 MSTORE PUSH1 0x20 ADD DUP1 PUSH32 0x736574466565416464726573733A20696E76616C696420616464726573730000 DUP2 MSTORE POP PUSH1 0x20 ADD SWAP2 POP POP PUSH1 0x40 MLOAD DUP1 SWAP2 SUB SWAP1 REVERT JUMPDEST PUSH1 0x5 PUSH1 0x0 SWAP1 SLOAD SWAP1 PUSH2 0x100 EXP SWAP1 DIV PUSH20 0xFFFFFFFFFFFFFFFFFFFFFFFFFFFFFFFFFFFFFFFF AND PUSH20 0xFFFFFFFFFFFFFFFFFFFFFFFFFFFFFFFFFFFFFFFF AND CALLER PUSH20 0xFFFFFFFFFFFFFFFFFFFFFFFFFFFFFFFFFFFFFFFF AND EQ PUSH2 0x1ECE JUMPI PUSH1 0x40 MLOAD PUSH32 0x8C379A000000000000000000000000000000000000000000000000000000000 DUP2 MSTORE PUSH1 0x4 ADD DUP1 DUP1 PUSH1 0x20 ADD DUP3 DUP2 SUB DUP3 MSTORE PUSH1 0x18 DUP2 MSTORE PUSH1 0x20 ADD DUP1 PUSH32 0x736574466565416464726573733A20464F5242494444454E0000000000000000 DUP2 MSTORE POP PUSH1 0x20 ADD SWAP2 POP POP PUSH1 0x40 MLOAD DUP1 SWAP2 SUB SWAP1 REVERT JUMPDEST DUP1 PUSH1 0x5 PUSH1 0x0 PUSH2 0x100 EXP DUP2 SLOAD DUP2 PUSH20 0xFFFFFFFFFFFFFFFFFFFFFFFFFFFFFFFFFFFFFFFF MUL NOT AND SWAP1 DUP4 PUSH20 0xFFFFFFFFFFFFFFFFFFFFFFFFFFFFFFFFFFFFFFFF AND MUL OR SWAP1 SSTORE POP DUP1 PUSH20 0xFFFFFFFFFFFFFFFFFFFFFFFFFFFFFFFFFFFFFFFF AND CALLER PUSH20 0xFFFFFFFFFFFFFFFFFFFFFFFFFFFFFFFFFFFFFFFF AND PUSH32 0xD44190ACF9D04BDB5D3A1AAFFF7E6DEE8B40B93DFB8C5D3F0EEA4B9F4539C3F7 PUSH1 0x40 MLOAD PUSH1 0x40 MLOAD DUP1 SWAP2 SUB SWAP1 LOG3 POP JUMP JUMPDEST PUSH1 0x0 DUP1 PUSH1 0x0 SWAP1 SLOAD SWAP1 PUSH2 0x100 EXP SWAP1 DIV PUSH20 0xFFFFFFFFFFFFFFFFFFFFFFFFFFFFFFFFFFFFFFFF AND SWAP1 POP SWAP1 JUMP JUMPDEST PUSH1 0x0 PUSH2 0x1FAA DUP4 DUP4 PUSH2 0x3A3F SWAP1 SWAP2 SWAP1 PUSH4 0xFFFFFFFF AND JUMP JUMPDEST SWAP1 POP SWAP3 SWAP2 POP POP JUMP JUMPDEST PUSH1 0x2 PUSH1 0x1 SLOAD EQ ISZERO PUSH2 0x202B JUMPI PUSH1 0x40 MLOAD PUSH32 0x8C379A000000000000000000000000000000000000000000000000000000000 DUP2 MSTORE PUSH1 0x4 ADD DUP1 DUP1 PUSH1 0x20 ADD DUP3 DUP2 SUB DUP3 MSTORE PUSH1 0x1F DUP2 MSTORE PUSH1 0x20 ADD DUP1 PUSH32 0x5265656E7472616E637947756172643A207265656E7472616E742063616C6C00 DUP2 MSTORE POP PUSH1 0x20 ADD SWAP2 POP POP PUSH1 0x40 MLOAD DUP1 SWAP2 SUB SWAP1 REVERT JUMPDEST PUSH1 0x2 PUSH1 0x1 DUP2 SWAP1 SSTORE POP DUP1 PUSH20 0xFFFFFFFFFFFFFFFFFFFFFFFFFFFFFFFFFFFFFFFF AND DUP2 PUSH20 0xFFFFFFFFFFFFFFFFFFFFFFFFFFFFFFFFFFFFFFFF AND EQ PUSH2 0x20B7 JUMPI PUSH1 0x40 MLOAD PUSH32 0x8C379A000000000000000000000000000000000000000000000000000000000 DUP2 MSTORE PUSH1 0x4 ADD DUP1 DUP1 PUSH1 0x20 ADD DUP3 DUP2 SUB DUP3 MSTORE PUSH1 0x21 DUP2 MSTORE PUSH1 0x20 ADD DUP1 PUSH2 0x4AA6 PUSH1 0x21 SWAP2 CODECOPY PUSH1 0x40 ADD SWAP2 POP POP PUSH1 0x40 MLOAD DUP1 SWAP2 SUB SWAP1 REVERT JUMPDEST PUSH1 0x0 PUSH1 0x9 DUP5 DUP2 SLOAD DUP2 LT PUSH2 0x20C6 JUMPI INVALID JUMPDEST SWAP1 PUSH1 0x0 MSTORE PUSH1 0x20 PUSH1 0x0 KECCAK256 SWAP1 PUSH1 0x6 MUL ADD SWAP1 POP PUSH1 0x0 PUSH1 0xA PUSH1 0x0 DUP7 DUP2 MSTORE PUSH1 0x20 ADD SWAP1 DUP2 MSTORE PUSH1 0x20 ADD PUSH1 0x0 KECCAK256 PUSH1 0x0 CALLER PUSH20 0xFFFFFFFFFFFFFFFFFFFFFFFFFFFFFFFFFFFFFFFF AND PUSH20 0xFFFFFFFFFFFFFFFFFFFFFFFFFFFFFFFFFFFFFFFF AND DUP2 MSTORE PUSH1 0x20 ADD SWAP1 DUP2 MSTORE PUSH1 0x20 ADD PUSH1 0x0 KECCAK256 SWAP1 POP PUSH2 0x2133 DUP6 PUSH2 0x1394 JUMP JUMPDEST PUSH1 0x0 DUP2 PUSH1 0x0 ADD SLOAD GT ISZERO PUSH2 0x21FD JUMPI PUSH1 0x0 PUSH2 0x218A DUP3 PUSH1 0x1 ADD SLOAD PUSH2 0x217C PUSH5 0xE8D4A51000 PUSH2 0x216E DUP8 PUSH1 0x4 ADD SLOAD DUP8 PUSH1 0x0 ADD SLOAD PUSH2 0x396F SWAP1 SWAP2 SWAP1 PUSH4 0xFFFFFFFF AND JUMP JUMPDEST PUSH2 0x39F5 SWAP1 SWAP2 SWAP1 PUSH4 0xFFFFFFFF AND JUMP JUMPDEST PUSH2 0x3A3F SWAP1 SWAP2 SWAP1 PUSH4 0xFFFFFFFF AND JUMP JUMPDEST SWAP1 POP PUSH1 0x0 PUSH2 0x2197 DUP8 PUSH2 0x26F9 JUMP JUMPDEST SWAP1 POP DUP1 DUP1 ISZERO PUSH2 0x21A6 JUMPI POP PUSH1 0x0 DUP3 GT JUMPDEST ISZERO PUSH2 0x21FA JUMPI PUSH2 0x21B5 CALLER DUP4 PUSH2 0x3A89 JUMP JUMPDEST PUSH2 0x21BF CALLER DUP4 PUSH2 0x3D5D JUMP JUMPDEST PUSH2 0x21F1 PUSH5 0xE8D4A51000 PUSH2 0x21E3 DUP7 PUSH1 0x4 ADD SLOAD DUP7 PUSH1 0x0 ADD SLOAD PUSH2 0x396F SWAP1 SWAP2 SWAP1 PUSH4 0xFFFFFFFF AND JUMP JUMPDEST PUSH2 0x39F5 SWAP1 SWAP2 SWAP1 PUSH4 0xFFFFFFFF AND JUMP JUMPDEST DUP4 PUSH1 0x1 ADD DUP2 SWAP1 SSTORE POP JUMPDEST POP POP JUMPDEST PUSH1 0x0 DUP5 GT ISZERO PUSH2 0x238A JUMPI PUSH2 0x2210 CALLER DUP5 PUSH2 0x4054 JUMP JUMPDEST PUSH2 0x2261 CALLER ADDRESS DUP7 DUP6 PUSH1 0x0 ADD PUSH1 0x0 SWAP1 SLOAD SWAP1 PUSH2 0x100 EXP SWAP1 DIV PUSH20 0xFFFFFFFFFFFFFFFFFFFFFFFFFFFFFFFFFFFFFFFF AND PUSH20 0xFFFFFFFFFFFFFFFFFFFFFFFFFFFFFFFFFFFFFFFF AND PUSH2 0x42BB SWAP1 SWAP4 SWAP3 SWAP2 SWAP1 PUSH4 0xFFFFFFFF AND JUMP JUMPDEST PUSH1 0x0 DUP3 PUSH1 0x5 ADD PUSH1 0x0 SWAP1 SLOAD SWAP1 PUSH2 0x100 EXP SWAP1 DIV PUSH2 0xFFFF AND PUSH2 0xFFFF AND GT ISZERO PUSH2 0x2369 JUMPI PUSH1 0x0 PUSH2 0x22BF PUSH2 0x2710 PUSH2 0x22B1 DUP6 PUSH1 0x5 ADD PUSH1 0x0 SWAP1 SLOAD SWAP1 PUSH2 0x100 EXP SWAP1 DIV PUSH2 0xFFFF AND PUSH2 0xFFFF AND DUP9 PUSH2 0x396F SWAP1 SWAP2 SWAP1 PUSH4 0xFFFFFFFF AND JUMP JUMPDEST PUSH2 0x39F5 SWAP1 SWAP2 SWAP1 PUSH4 0xFFFFFFFF AND JUMP JUMPDEST SWAP1 POP PUSH2 0x22EA DUP2 PUSH2 0x22DC DUP8 DUP6 PUSH1 0x0 ADD SLOAD PUSH2 0x3FCC SWAP1 SWAP2 SWAP1 PUSH4 0xFFFFFFFF AND JUMP JUMPDEST PUSH2 0x3A3F SWAP1 SWAP2 SWAP1 PUSH4 0xFFFFFFFF AND JUMP JUMPDEST DUP3 PUSH1 0x0 ADD DUP2 SWAP1 SSTORE POP PUSH2 0x2363 PUSH1 0x5 PUSH1 0x0 SWAP1 SLOAD SWAP1 PUSH2 0x100 EXP SWAP1 DIV PUSH20 0xFFFFFFFFFFFFFFFFFFFFFFFFFFFFFFFFFFFFFFFF AND DUP3 DUP6 PUSH1 0x0 ADD PUSH1 0x0 SWAP1 SLOAD SWAP1 PUSH2 0x100 EXP SWAP1 DIV PUSH20 0xFFFFFFFFFFFFFFFFFFFFFFFFFFFFFFFFFFFFFFFF AND PUSH20 0xFFFFFFFFFFFFFFFFFFFFFFFFFFFFFFFFFFFFFFFF AND PUSH2 0x3F2A SWAP1 SWAP3 SWAP2 SWAP1 PUSH4 0xFFFFFFFF AND JUMP JUMPDEST POP PUSH2 0x2389 JUMP JUMPDEST PUSH2 0x2380 DUP5 DUP3 PUSH1 0x0 ADD SLOAD PUSH2 0x3FCC SWAP1 SWAP2 SWAP1 PUSH4 0xFFFFFFFF AND JUMP JUMPDEST DUP2 PUSH1 0x0 ADD DUP2 SWAP1 SSTORE POP JUMPDEST JUMPDEST DUP1 PUSH1 0x2 ADD PUSH1 0x0 SWAP1 SLOAD SWAP1 PUSH2 0x100 EXP SWAP1 DIV PUSH1 0xFF AND PUSH2 0x23F8 JUMPI PUSH2 0x23D2 PUSH5 0xE8D4A51000 PUSH2 0x23C4 DUP5 PUSH1 0x4 ADD SLOAD DUP5 PUSH1 0x0 ADD SLOAD PUSH2 0x396F SWAP1 SWAP2 SWAP1 PUSH4 0xFFFFFFFF AND JUMP JUMPDEST PUSH2 0x39F5 SWAP1 SWAP2 SWAP1 PUSH4 0xFFFFFFFF AND JUMP JUMPDEST DUP2 PUSH1 0x1 ADD DUP2 SWAP1 SSTORE POP PUSH1 0x1 DUP2 PUSH1 0x2 ADD PUSH1 0x0 PUSH2 0x100 EXP DUP2 SLOAD DUP2 PUSH1 0xFF MUL NOT AND SWAP1 DUP4 ISZERO ISZERO MUL OR SWAP1 SSTORE POP JUMPDEST DUP5 CALLER PUSH20 0xFFFFFFFFFFFFFFFFFFFFFFFFFFFFFFFFFFFFFFFF AND PUSH32 0x90890809C654F11D6E72A28FA60149770A0D11EC6C92319D6CEB2BB0A4EA1A15 DUP7 PUSH1 0x40 MLOAD DUP1 DUP3 DUP2 MSTORE PUSH1 0x20 ADD SWAP2 POP POP PUSH1 0x40 MLOAD DUP1 SWAP2 SUB SWAP1 LOG3 POP POP PUSH1 0x1 DUP1 DUP2 SWAP1 SSTORE POP POP POP POP JUMP JUMPDEST PUSH8 0x6F05B59D3B20000 DUP2 JUMP JUMPDEST PUSH1 0xA PUSH1 0x20 MSTORE DUP2 PUSH1 0x0 MSTORE PUSH1 0x40 PUSH1 0x0 KECCAK256 PUSH1 0x20 MSTORE DUP1 PUSH1 0x0 MSTORE PUSH1 0x40 PUSH1 0x0 KECCAK256 PUSH1 0x0 SWAP2 POP SWAP2 POP POP DUP1 PUSH1 0x0 ADD SLOAD SWAP1 DUP1 PUSH1 0x1 ADD SLOAD SWAP1 DUP1 PUSH1 0x2 ADD PUSH1 0x0 SWAP1 SLOAD SWAP1 PUSH2 0x100 EXP SWAP1 DIV PUSH1 0xFF AND SWAP1 POP DUP4 JUMP JUMPDEST PUSH2 0x3E8 DUP2 JUMP JUMPDEST PUSH1 0x10 PUSH1 0x20 MSTORE DUP1 PUSH1 0x0 MSTORE PUSH1 0x40 PUSH1 0x0 KECCAK256 PUSH1 0x0 SWAP2 POP SWAP1 POP SLOAD DUP2 JUMP JUMPDEST PUSH1 0x7 SLOAD DUP2 JUMP JUMPDEST PUSH2 0x24D1 PUSH2 0x3967 JUMP JUMPDEST PUSH20 0xFFFFFFFFFFFFFFFFFFFFFFFFFFFFFFFFFFFFFFFF AND PUSH1 0x0 DUP1 SLOAD SWAP1 PUSH2 0x100 EXP SWAP1 DIV PUSH20 0xFFFFFFFFFFFFFFFFFFFFFFFFFFFFFFFFFFFFFFFF AND PUSH20 0xFFFFFFFFFFFFFFFFFFFFFFFFFFFFFFFFFFFFFFFF AND EQ PUSH2 0x2591 JUMPI PUSH1 0x40 MLOAD PUSH32 0x8C379A000000000000000000000000000000000000000000000000000000000 DUP2 MSTORE PUSH1 0x4 ADD DUP1 DUP1 PUSH1 0x20 ADD DUP3 DUP2 SUB DUP3 MSTORE PUSH1 0x20 DUP2 MSTORE PUSH1 0x20 ADD DUP1 PUSH32 0x4F776E61626C653A2063616C6C6572206973206E6F7420746865206F776E6572 DUP2 MSTORE POP PUSH1 0x20 ADD SWAP2 POP POP PUSH1 0x40 MLOAD DUP1 SWAP2 SUB SWAP1 REVERT JUMPDEST PUSH1 0x0 PUSH1 0x4 SLOAD SWAP1 POP DUP2 PUSH1 0x4 DUP2 SWAP1 SSTORE POP PUSH2 0x25A7 PUSH2 0x18EB JUMP JUMPDEST CALLER PUSH20 0xFFFFFFFFFFFFFFFFFFFFFFFFFFFFFFFFFFFFFFFF AND PUSH32 0xEEDC6338C9C1AD8F3CD6C90DD09DBE98DBD57E610D3E59A17996D07ACB0D9511 DUP3 DUP5 PUSH1 0x40 MLOAD DUP1 DUP4 DUP2 MSTORE PUSH1 0x20 ADD DUP3 DUP2 MSTORE PUSH1 0x20 ADD SWAP3 POP POP POP PUSH1 0x40 MLOAD DUP1 SWAP2 SUB SWAP1 LOG2 POP POP JUMP JUMPDEST PUSH1 0x2 PUSH1 0x0 SWAP1 SLOAD SWAP1 PUSH2 0x100 EXP SWAP1 DIV PUSH20 0xFFFFFFFFFFFFFFFFFFFFFFFFFFFFFFFFFFFFFFFF AND DUP2 JUMP JUMPDEST PUSH2 0x262F PUSH2 0x3967 JUMP JUMPDEST PUSH20 0xFFFFFFFFFFFFFFFFFFFFFFFFFFFFFFFFFFFFFFFF AND PUSH1 0x0 DUP1 SLOAD SWAP1 PUSH2 0x100 EXP SWAP1 DIV PUSH20 0xFFFFFFFFFFFFFFFFFFFFFFFFFFFFFFFFFFFFFFFF AND PUSH20 0xFFFFFFFFFFFFFFFFFFFFFFFFFFFFFFFFFFFFFFFF AND EQ PUSH2 0x26EF JUMPI PUSH1 0x40 MLOAD PUSH32 0x8C379A000000000000000000000000000000000000000000000000000000000 DUP2 MSTORE PUSH1 0x4 ADD DUP1 DUP1 PUSH1 0x20 ADD DUP3 DUP2 SUB DUP3 MSTORE PUSH1 0x20 DUP2 MSTORE PUSH1 0x20 ADD DUP1 PUSH32 0x4F776E61626C653A2063616C6C6572206973206E6F7420746865206F776E6572 DUP2 MSTORE POP PUSH1 0x20 ADD SWAP2 POP POP PUSH1 0x40 MLOAD DUP1 SWAP2 SUB SWAP1 REVERT JUMPDEST DUP1 PUSH1 0x7 DUP2 SWAP1 SSTORE POP POP JUMP JUMPDEST PUSH1 0x0 DUP1 PUSH1 0x9 DUP4 DUP2 SLOAD DUP2 LT PUSH2 0x2709 JUMPI INVALID JUMPDEST SWAP1 PUSH1 0x0 MSTORE PUSH1 0x20 PUSH1 0x0 KECCAK256 SWAP1 PUSH1 0x6 MUL ADD SWAP1 POP NUMBER DUP2 PUSH1 0x2 ADD SLOAD GT ISZERO SWAP2 POP POP SWAP2 SWAP1 POP JUMP JUMPDEST PUSH2 0x5DC DUP2 JUMP JUMPDEST PUSH2 0x2737 PUSH2 0x3967 JUMP JUMPDEST PUSH20 0xFFFFFFFFFFFFFFFFFFFFFFFFFFFFFFFFFFFFFFFF AND PUSH1 0x0 DUP1 SLOAD SWAP1 PUSH2 0x100 EXP SWAP1 DIV PUSH20 0xFFFFFFFFFFFFFFFFFFFFFFFFFFFFFFFFFFFFFFFF AND PUSH20 0xFFFFFFFFFFFFFFFFFFFFFFFFFFFFFFFFFFFFFFFF AND EQ PUSH2 0x27F7 JUMPI PUSH1 0x40 MLOAD PUSH32 0x8C379A000000000000000000000000000000000000000000000000000000000 DUP2 MSTORE PUSH1 0x4 ADD DUP1 DUP1 PUSH1 0x20 ADD DUP3 DUP2 SUB DUP3 MSTORE PUSH1 0x20 DUP2 MSTORE PUSH1 0x20 ADD DUP1 PUSH32 0x4F776E61626C653A2063616C6C6572206973206E6F7420746865206F776E6572 DUP2 MSTORE POP PUSH1 0x20 ADD SWAP2 POP POP PUSH1 0x40 MLOAD DUP1 SWAP2 SUB SWAP1 REVERT JUMPDEST PUSH2 0x3E8 PUSH2 0xFFFF AND DUP4 PUSH2 0xFFFF AND GT ISZERO PUSH2 0x285A JUMPI PUSH1 0x40 MLOAD PUSH32 0x8C379A000000000000000000000000000000000000000000000000000000000 DUP2 MSTORE PUSH1 0x4 ADD DUP1 DUP1 PUSH1 0x20 ADD DUP3 DUP2 SUB DUP3 MSTORE PUSH1 0x25 DUP2 MSTORE PUSH1 0x20 ADD DUP1 PUSH2 0x4B0E PUSH1 0x25 SWAP2 CODECOPY PUSH1 0x40 ADD SWAP2 POP POP PUSH1 0x40 MLOAD DUP1 SWAP2 SUB SWAP1 REVERT JUMPDEST DUP2 ISZERO PUSH2 0x2869 JUMPI PUSH2 0x2868 PUSH2 0x18EB JUMP JUMPDEST JUMPDEST PUSH1 0x0 DUP1 DUP3 GT PUSH2 0x287A JUMPI PUSH1 0x7 SLOAD PUSH2 0x287C JUMP JUMPDEST DUP2 JUMPDEST SWAP1 POP PUSH2 0x28C3 DUP6 PUSH2 0x28B5 PUSH1 0x9 DUP10 DUP2 SLOAD DUP2 LT PUSH2 0x2892 JUMPI INVALID JUMPDEST SWAP1 PUSH1 0x0 MSTORE PUSH1 0x20 PUSH1 0x0 KECCAK256 SWAP1 PUSH1 0x6 MUL ADD PUSH1 0x1 ADD SLOAD PUSH1 0xB SLOAD PUSH2 0x3A3F SWAP1 SWAP2 SWAP1 PUSH4 0xFFFFFFFF AND JUMP JUMPDEST PUSH2 0x3FCC SWAP1 SWAP2 SWAP1 PUSH4 0xFFFFFFFF AND JUMP JUMPDEST PUSH1 0xB DUP2 SWAP1 SSTORE POP DUP5 PUSH1 0x9 DUP8 DUP2 SLOAD DUP2 LT PUSH2 0x28D7 JUMPI INVALID JUMPDEST SWAP1 PUSH1 0x0 MSTORE PUSH1 0x20 PUSH1 0x0 KECCAK256 SWAP1 PUSH1 0x6 MUL ADD PUSH1 0x1 ADD DUP2 SWAP1 SSTORE POP DUP4 PUSH1 0x9 DUP8 DUP2 SLOAD DUP2 LT PUSH2 0x28FA JUMPI INVALID JUMPDEST SWAP1 PUSH1 0x0 MSTORE PUSH1 0x20 PUSH1 0x0 KECCAK256 SWAP1 PUSH1 0x6 MUL ADD PUSH1 0x5 ADD PUSH1 0x0 PUSH2 0x100 EXP DUP2 SLOAD DUP2 PUSH2 0xFFFF MUL NOT AND SWAP1 DUP4 PUSH2 0xFFFF AND MUL OR SWAP1 SSTORE POP DUP1 PUSH1 0x9 DUP8 DUP2 SLOAD DUP2 LT PUSH2 0x2933 JUMPI INVALID JUMPDEST SWAP1 PUSH1 0x0 MSTORE PUSH1 0x20 PUSH1 0x0 KECCAK256 SWAP1 PUSH1 0x6 MUL ADD PUSH1 0x2 ADD DUP2 SWAP1 SSTORE POP POP POP POP POP POP POP JUMP JUMPDEST PUSH1 0xF PUSH1 0x20 MSTORE DUP1 PUSH1 0x0 MSTORE PUSH1 0x40 PUSH1 0x0 KECCAK256 PUSH1 0x0 SWAP2 POP SLOAD SWAP1 PUSH2 0x100 EXP SWAP1 DIV PUSH1 0xFF AND DUP2 JUMP JUMPDEST PUSH1 0x0 PUSH20 0xFFFFFFFFFFFFFFFFFFFFFFFFFFFFFFFFFFFFFFFF AND DUP2 PUSH20 0xFFFFFFFFFFFFFFFFFFFFFFFFFFFFFFFFFFFFFFFF AND EQ ISZERO PUSH2 0x2A13 JUMPI PUSH1 0x40 MLOAD PUSH32 0x8C379A000000000000000000000000000000000000000000000000000000000 DUP2 MSTORE PUSH1 0x4 ADD DUP1 DUP1 PUSH1 0x20 ADD DUP3 DUP2 SUB DUP3 MSTORE PUSH1 0x14 DUP2 MSTORE PUSH1 0x20 ADD DUP1 PUSH32 0x6465763A20696E76616C69642061646472657373000000000000000000000000 DUP2 MSTORE POP PUSH1 0x20 ADD SWAP2 POP POP PUSH1 0x40 MLOAD DUP1 SWAP2 SUB SWAP1 REVERT JUMPDEST PUSH1 0x3 PUSH1 0x0 SWAP1 SLOAD SWAP1 PUSH2 0x100 EXP SWAP1 DIV PUSH20 0xFFFFFFFFFFFFFFFFFFFFFFFFFFFFFFFFFFFFFFFF AND PUSH20 0xFFFFFFFFFFFFFFFFFFFFFFFFFFFFFFFFFFFFFFFF AND CALLER PUSH20 0xFFFFFFFFFFFFFFFFFFFFFFFFFFFFFFFFFFFFFFFF AND EQ PUSH2 0x2AD6 JUMPI PUSH1 0x40 MLOAD PUSH32 0x8C379A000000000000000000000000000000000000000000000000000000000 DUP2 MSTORE PUSH1 0x4 ADD DUP1 DUP1 PUSH1 0x20 ADD DUP3 DUP2 SUB DUP3 MSTORE PUSH1 0x9 DUP2 MSTORE PUSH1 0x20 ADD DUP1 PUSH32 0x6465763A207775743F0000000000000000000000000000000000000000000000 DUP2 MSTORE POP PUSH1 0x20 ADD SWAP2 POP POP PUSH1 0x40 MLOAD DUP1 SWAP2 SUB SWAP1 REVERT JUMPDEST DUP1 PUSH1 0x3 PUSH1 0x0 PUSH2 0x100 EXP DUP2 SLOAD DUP2 PUSH20 0xFFFFFFFFFFFFFFFFFFFFFFFFFFFFFFFFFFFFFFFF MUL NOT AND SWAP1 DUP4 PUSH20 0xFFFFFFFFFFFFFFFFFFFFFFFFFFFFFFFFFFFFFFFF AND MUL OR SWAP1 SSTORE POP DUP1 PUSH20 0xFFFFFFFFFFFFFFFFFFFFFFFFFFFFFFFFFFFFFFFF AND CALLER PUSH20 0xFFFFFFFFFFFFFFFFFFFFFFFFFFFFFFFFFFFFFFFF AND PUSH32 0x618C54559E94F1499A808AAD71EE8729F8E74E8C48E979616328CE493A1A52E7 PUSH1 0x40 MLOAD PUSH1 0x40 MLOAD DUP1 SWAP2 SUB SWAP1 LOG3 POP JUMP JUMPDEST PUSH2 0x7080 DUP2 JUMP JUMPDEST PUSH1 0x3 PUSH1 0x0 SWAP1 SLOAD SWAP1 PUSH2 0x100 EXP SWAP1 DIV PUSH20 0xFFFFFFFFFFFFFFFFFFFFFFFFFFFFFFFFFFFFFFFF AND DUP2 JUMP JUMPDEST PUSH1 0x0 DUP1 PUSH1 0x9 DUP5 DUP2 SLOAD DUP2 LT PUSH2 0x2BB0 JUMPI INVALID JUMPDEST SWAP1 PUSH1 0x0 MSTORE PUSH1 0x20 PUSH1 0x0 KECCAK256 SWAP1 PUSH1 0x6 MUL ADD SWAP1 POP PUSH1 0x0 PUSH1 0xA PUSH1 0x0 DUP7 DUP2 MSTORE PUSH1 0x20 ADD SWAP1 DUP2 MSTORE PUSH1 0x20 ADD PUSH1 0x0 KECCAK256 PUSH1 0x0 DUP6 PUSH20 0xFFFFFFFFFFFFFFFFFFFFFFFFFFFFFFFFFFFFFFFF AND PUSH20 0xFFFFFFFFFFFFFFFFFFFFFFFFFFFFFFFFFFFFFFFF AND DUP2 MSTORE PUSH1 0x20 ADD SWAP1 DUP2 MSTORE PUSH1 0x20 ADD PUSH1 0x0 KECCAK256 SWAP1 POP PUSH1 0x0 DUP3 PUSH1 0x4 ADD SLOAD SWAP1 POP PUSH1 0x0 DUP4 PUSH1 0x0 ADD PUSH1 0x0 SWAP1 SLOAD SWAP1 PUSH2 0x100 EXP SWAP1 DIV PUSH20 0xFFFFFFFFFFFFFFFFFFFFFFFFFFFFFFFFFFFFFFFF AND PUSH20 0xFFFFFFFFFFFFFFFFFFFFFFFFFFFFFFFFFFFFFFFF AND PUSH4 0x70A08231 ADDRESS PUSH1 0x40 MLOAD DUP3 PUSH4 0xFFFFFFFF AND PUSH1 0xE0 SHL DUP2 MSTORE PUSH1 0x4 ADD DUP1 DUP3 PUSH20 0xFFFFFFFFFFFFFFFFFFFFFFFFFFFFFFFFFFFFFFFF AND DUP2 MSTORE PUSH1 0x20 ADD SWAP2 POP POP PUSH1 0x20 PUSH1 0x40 MLOAD DUP1 DUP4 SUB DUP2 DUP7 DUP1 EXTCODESIZE ISZERO DUP1 ISZERO PUSH2 0x2CAA JUMPI PUSH1 0x0 DUP1 REVERT JUMPDEST POP GAS STATICCALL ISZERO DUP1 ISZERO PUSH2 0x2CBE JUMPI RETURNDATASIZE PUSH1 0x0 DUP1 RETURNDATACOPY RETURNDATASIZE PUSH1 0x0 REVERT JUMPDEST POP POP POP POP PUSH1 0x40 MLOAD RETURNDATASIZE PUSH1 0x20 DUP2 LT ISZERO PUSH2 0x2CD4 JUMPI PUSH1 0x0 DUP1 REVERT JUMPDEST DUP2 ADD SWAP1 DUP1 DUP1 MLOAD SWAP1 PUSH1 0x20 ADD SWAP1 SWAP3 SWAP2 SWAP1 POP POP POP SWAP1 POP PUSH2 0x2CF0 DUP8 PUSH2 0x345A JUMP JUMPDEST DUP1 ISZERO PUSH2 0x2CFF JUMPI POP DUP4 PUSH1 0x3 ADD SLOAD NUMBER GT JUMPDEST DUP1 ISZERO PUSH2 0x2D0C JUMPI POP PUSH1 0x0 DUP2 EQ ISZERO JUMPDEST ISZERO PUSH2 0x2DA7 JUMPI PUSH1 0x0 PUSH2 0x2D21 DUP6 PUSH1 0x3 ADD SLOAD NUMBER PUSH2 0x1F95 JUMP JUMPDEST SWAP1 POP PUSH1 0x0 PUSH2 0x2D64 PUSH1 0xB SLOAD PUSH2 0x2D56 DUP9 PUSH1 0x1 ADD SLOAD PUSH2 0x2D48 PUSH1 0x4 SLOAD DUP8 PUSH2 0x396F SWAP1 SWAP2 SWAP1 PUSH4 0xFFFFFFFF AND JUMP JUMPDEST PUSH2 0x396F SWAP1 SWAP2 SWAP1 PUSH4 0xFFFFFFFF AND JUMP JUMPDEST PUSH2 0x39F5 SWAP1 SWAP2 SWAP1 PUSH4 0xFFFFFFFF AND JUMP JUMPDEST SWAP1 POP PUSH2 0x2DA2 PUSH2 0x2D93 DUP5 PUSH2 0x2D85 PUSH5 0xE8D4A51000 DUP6 PUSH2 0x396F SWAP1 SWAP2 SWAP1 PUSH4 0xFFFFFFFF AND JUMP JUMPDEST PUSH2 0x39F5 SWAP1 SWAP2 SWAP1 PUSH4 0xFFFFFFFF AND JUMP JUMPDEST DUP6 PUSH2 0x3FCC SWAP1 SWAP2 SWAP1 PUSH4 0xFFFFFFFF AND JUMP JUMPDEST SWAP4 POP POP POP JUMPDEST PUSH2 0x2DEB DUP4 PUSH1 0x1 ADD SLOAD PUSH2 0x2DDD PUSH5 0xE8D4A51000 PUSH2 0x2DCF DUP7 DUP9 PUSH1 0x0 ADD SLOAD PUSH2 0x396F SWAP1 SWAP2 SWAP1 PUSH4 0xFFFFFFFF AND JUMP JUMPDEST PUSH2 0x39F5 SWAP1 SWAP2 SWAP1 PUSH4 0xFFFFFFFF AND JUMP JUMPDEST PUSH2 0x3A3F SWAP1 SWAP2 SWAP1 PUSH4 0xFFFFFFFF AND JUMP JUMPDEST SWAP5 POP POP POP POP POP SWAP3 SWAP2 POP POP JUMP JUMPDEST PUSH1 0x2 PUSH1 0x1 SLOAD EQ ISZERO PUSH2 0x2E70 JUMPI PUSH1 0x40 MLOAD PUSH32 0x8C379A000000000000000000000000000000000000000000000000000000000 DUP2 MSTORE PUSH1 0x4 ADD DUP1 DUP1 PUSH1 0x20 ADD DUP3 DUP2 SUB DUP3 MSTORE PUSH1 0x1F DUP2 MSTORE PUSH1 0x20 ADD DUP1 PUSH32 0x5265656E7472616E637947756172643A207265656E7472616E742063616C6C00 DUP2 MSTORE POP PUSH1 0x20 ADD SWAP2 POP POP PUSH1 0x40 MLOAD DUP1 SWAP2 SUB SWAP1 REVERT JUMPDEST PUSH1 0x2 PUSH1 0x1 DUP2 SWAP1 SSTORE POP PUSH1 0x0 PUSH1 0x9 DUP4 DUP2 SLOAD DUP2 LT PUSH2 0x2E87 JUMPI INVALID JUMPDEST SWAP1 PUSH1 0x0 MSTORE PUSH1 0x20 PUSH1 0x0 KECCAK256 SWAP1 PUSH1 0x6 MUL ADD SWAP1 POP PUSH1 0x0 PUSH1 0xA PUSH1 0x0 DUP6 DUP2 MSTORE PUSH1 0x20 ADD SWAP1 DUP2 MSTORE PUSH1 0x20 ADD PUSH1 0x0 KECCAK256 PUSH1 0x0 CALLER PUSH20 0xFFFFFFFFFFFFFFFFFFFFFFFFFFFFFFFFFFFFFFFF AND PUSH20 0xFFFFFFFFFFFFFFFFFFFFFFFFFFFFFFFFFFFFFFFF AND DUP2 MSTORE PUSH1 0x20 ADD SWAP1 DUP2 MSTORE PUSH1 0x20 ADD PUSH1 0x0 KECCAK256 SWAP1 POP PUSH2 0x2EF4 DUP5 PUSH2 0x1394 JUMP JUMPDEST PUSH1 0x0 DUP2 PUSH1 0x0 ADD SLOAD GT ISZERO PUSH2 0x2FB4 JUMPI PUSH1 0x0 PUSH2 0x2F4B DUP3 PUSH1 0x1 ADD SLOAD PUSH2 0x2F3D PUSH5 0xE8D4A51000 PUSH2 0x2F2F DUP8 PUSH1 0x4 ADD SLOAD DUP8 PUSH1 0x0 ADD SLOAD PUSH2 0x396F SWAP1 SWAP2 SWAP1 PUSH4 0xFFFFFFFF AND JUMP JUMPDEST PUSH2 0x39F5 SWAP1 SWAP2 SWAP1 PUSH4 0xFFFFFFFF AND JUMP JUMPDEST PUSH2 0x3A3F SWAP1 SWAP2 SWAP1 PUSH4 0xFFFFFFFF AND JUMP JUMPDEST SWAP1 POP PUSH1 0x0 PUSH2 0x2F58 DUP7 PUSH2 0x26F9 JUMP JUMPDEST SWAP1 POP DUP1 DUP1 ISZERO PUSH2 0x2F67 JUMPI POP PUSH1 0x0 DUP3 GT JUMPDEST ISZERO PUSH2 0x2FB1 JUMPI PUSH2 0x2F76 CALLER DUP4 PUSH2 0x3A89 JUMP JUMPDEST PUSH2 0x2FA8 PUSH5 0xE8D4A51000 PUSH2 0x2F9A DUP7 PUSH1 0x4 ADD SLOAD DUP7 PUSH1 0x0 ADD SLOAD PUSH2 0x396F SWAP1 SWAP2 SWAP1 PUSH4 0xFFFFFFFF AND JUMP JUMPDEST PUSH2 0x39F5 SWAP1 SWAP2 SWAP1 PUSH4 0xFFFFFFFF AND JUMP JUMPDEST DUP4 PUSH1 0x1 ADD DUP2 SWAP1 SSTORE POP JUMPDEST POP POP JUMPDEST PUSH1 0x0 DUP4 GT ISZERO PUSH2 0x3137 JUMPI PUSH2 0x300E CALLER ADDRESS DUP6 DUP6 PUSH1 0x0 ADD PUSH1 0x0 SWAP1 SLOAD SWAP1 PUSH2 0x100 EXP SWAP1 DIV PUSH20 0xFFFFFFFFFFFFFFFFFFFFFFFFFFFFFFFFFFFFFFFF AND PUSH20 0xFFFFFFFFFFFFFFFFFFFFFFFFFFFFFFFFFFFFFFFF AND PUSH2 0x42BB SWAP1 SWAP4 SWAP3 SWAP2 SWAP1 PUSH4 0xFFFFFFFF AND JUMP JUMPDEST PUSH1 0x0 DUP3 PUSH1 0x5 ADD PUSH1 0x0 SWAP1 SLOAD SWAP1 PUSH2 0x100 EXP SWAP1 DIV PUSH2 0xFFFF AND PUSH2 0xFFFF AND GT ISZERO PUSH2 0x3116 JUMPI PUSH1 0x0 PUSH2 0x306C PUSH2 0x2710 PUSH2 0x305E DUP6 PUSH1 0x5 ADD PUSH1 0x0 SWAP1 SLOAD SWAP1 PUSH2 0x100 EXP SWAP1 DIV PUSH2 0xFFFF AND PUSH2 0xFFFF AND DUP8 PUSH2 0x396F SWAP1 SWAP2 SWAP1 PUSH4 0xFFFFFFFF AND JUMP JUMPDEST PUSH2 0x39F5 SWAP1 SWAP2 SWAP1 PUSH4 0xFFFFFFFF AND JUMP JUMPDEST SWAP1 POP PUSH2 0x3097 DUP2 PUSH2 0x3089 DUP7 DUP6 PUSH1 0x0 ADD SLOAD PUSH2 0x3FCC SWAP1 SWAP2 SWAP1 PUSH4 0xFFFFFFFF AND JUMP JUMPDEST PUSH2 0x3A3F SWAP1 SWAP2 SWAP1 PUSH4 0xFFFFFFFF AND JUMP JUMPDEST DUP3 PUSH1 0x0 ADD DUP2 SWAP1 SSTORE POP PUSH2 0x3110 PUSH1 0x5 PUSH1 0x0 SWAP1 SLOAD SWAP1 PUSH2 0x100 EXP SWAP1 DIV PUSH20 0xFFFFFFFFFFFFFFFFFFFFFFFFFFFFFFFFFFFFFFFF AND DUP3 DUP6 PUSH1 0x0 ADD PUSH1 0x0 SWAP1 SLOAD SWAP1 PUSH2 0x100 EXP SWAP1 DIV PUSH20 0xFFFFFFFFFFFFFFFFFFFFFFFFFFFFFFFFFFFFFFFF AND PUSH20 0xFFFFFFFFFFFFFFFFFFFFFFFFFFFFFFFFFFFFFFFF AND PUSH2 0x3F2A SWAP1 SWAP3 SWAP2 SWAP1 PUSH4 0xFFFFFFFF AND JUMP JUMPDEST POP PUSH2 0x3136 JUMP JUMPDEST PUSH2 0x312D DUP4 DUP3 PUSH1 0x0 ADD SLOAD PUSH2 0x3FCC SWAP1 SWAP2 SWAP1 PUSH4 0xFFFFFFFF AND JUMP JUMPDEST DUP2 PUSH1 0x0 ADD DUP2 SWAP1 SSTORE POP JUMPDEST JUMPDEST DUP1 PUSH1 0x2 ADD PUSH1 0x0 SWAP1 SLOAD SWAP1 PUSH2 0x100 EXP SWAP1 DIV PUSH1 0xFF AND PUSH2 0x31A5 JUMPI PUSH2 0x317F PUSH5 0xE8D4A51000 PUSH2 0x3171 DUP5 PUSH1 0x4 ADD SLOAD DUP5 PUSH1 0x0 ADD SLOAD PUSH2 0x396F SWAP1 SWAP2 SWAP1 PUSH4 0xFFFFFFFF AND JUMP JUMPDEST PUSH2 0x39F5 SWAP1 SWAP2 SWAP1 PUSH4 0xFFFFFFFF AND JUMP JUMPDEST DUP2 PUSH1 0x1 ADD DUP2 SWAP1 SSTORE POP PUSH1 0x1 DUP2 PUSH1 0x2 ADD PUSH1 0x0 PUSH2 0x100 EXP DUP2 SLOAD DUP2 PUSH1 0xFF MUL NOT AND SWAP1 DUP4 ISZERO ISZERO MUL OR SWAP1 SSTORE POP JUMPDEST DUP4 CALLER PUSH20 0xFFFFFFFFFFFFFFFFFFFFFFFFFFFFFFFFFFFFFFFF AND PUSH32 0x90890809C654F11D6E72A28FA60149770A0D11EC6C92319D6CEB2BB0A4EA1A15 DUP6 PUSH1 0x40 MLOAD DUP1 DUP3 DUP2 MSTORE PUSH1 0x20 ADD SWAP2 POP POP PUSH1 0x40 MLOAD DUP1 SWAP2 SUB SWAP1 LOG3 POP POP PUSH1 0x1 DUP1 DUP2 SWAP1 SSTORE POP POP POP JUMP JUMPDEST PUSH1 0x12 PUSH1 0x0 SWAP1 SLOAD SWAP1 PUSH2 0x100 EXP SWAP1 DIV PUSH1 0xFF AND PUSH2 0x3266 JUMPI PUSH1 0x40 MLOAD PUSH32 0x8C379A000000000000000000000000000000000000000000000000000000000 DUP2 MSTORE PUSH1 0x4 ADD DUP1 DUP1 PUSH1 0x20 ADD DUP3 DUP2 SUB DUP3 MSTORE PUSH1 0x40 DUP2 MSTORE PUSH1 0x20 ADD DUP1 PUSH2 0x4C20 PUSH1 0x40 SWAP2 CODECOPY PUSH1 0x40 ADD SWAP2 POP POP PUSH1 0x40 MLOAD DUP1 SWAP2 SUB SWAP1 REVERT JUMPDEST PUSH1 0x6 SLOAD NUMBER GT PUSH2 0x32C0 JUMPI PUSH1 0x40 MLOAD PUSH32 0x8C379A000000000000000000000000000000000000000000000000000000000 DUP2 MSTORE PUSH1 0x4 ADD DUP1 DUP1 PUSH1 0x20 ADD DUP3 DUP2 SUB DUP3 MSTORE PUSH1 0x52 DUP2 MSTORE PUSH1 0x20 ADD DUP1 PUSH2 0x4B5B PUSH1 0x52 SWAP2 CODECOPY PUSH1 0x60 ADD SWAP2 POP POP PUSH1 0x40 MLOAD DUP1 SWAP2 SUB SWAP1 REVERT JUMPDEST PUSH8 0x16345785D8A0000 PUSH1 0x4 SLOAD GT PUSH2 0x3322 JUMPI PUSH1 0x40 MLOAD PUSH32 0x8C379A000000000000000000000000000000000000000000000000000000000 DUP2 MSTORE PUSH1 0x4 ADD DUP1 DUP1 PUSH1 0x20 ADD DUP3 DUP2 SUB DUP3 MSTORE PUSH1 0x52 DUP2 MSTORE PUSH1 0x20 ADD DUP1 PUSH2 0x4BCE PUSH1 0x52 SWAP2 CODECOPY PUSH1 0x60 ADD SWAP2 POP POP PUSH1 0x40 MLOAD DUP1 SWAP2 SUB SWAP1 REVERT JUMPDEST PUSH1 0x0 PUSH2 0x334D PUSH2 0x7080 PUSH2 0x333F PUSH1 0x6 SLOAD NUMBER PUSH2 0x3A3F SWAP1 SWAP2 SWAP1 PUSH4 0xFFFFFFFF AND JUMP JUMPDEST PUSH2 0x39F5 SWAP1 SWAP2 SWAP1 PUSH4 0xFFFFFFFF AND JUMP JUMPDEST SWAP1 POP PUSH1 0x11 SLOAD DUP2 GT PUSH2 0x335E JUMPI POP PUSH2 0x3458 JUMP JUMPDEST PUSH1 0x0 PUSH1 0x4 SLOAD SWAP1 POP PUSH1 0x0 PUSH1 0x11 SLOAD SWAP1 POP JUMPDEST DUP3 DUP2 LT ISZERO PUSH2 0x33AF JUMPI PUSH2 0x33A2 PUSH2 0x2710 PUSH2 0x3394 PUSH2 0x5DC PUSH2 0x2710 SUB DUP6 PUSH2 0x396F SWAP1 SWAP2 SWAP1 PUSH4 0xFFFFFFFF AND JUMP JUMPDEST PUSH2 0x39F5 SWAP1 SWAP2 SWAP1 PUSH4 0xFFFFFFFF AND JUMP JUMPDEST SWAP2 POP DUP1 PUSH1 0x1 ADD SWAP1 POP PUSH2 0x336D JUMP JUMPDEST POP PUSH8 0x16345785D8A0000 DUP2 LT PUSH2 0x33C5 JUMPI DUP1 PUSH2 0x33CF JUMP JUMPDEST PUSH8 0x16345785D8A0000 JUMPDEST SWAP1 POP PUSH1 0x4 SLOAD DUP2 LT PUSH2 0x33E1 JUMPI POP POP PUSH2 0x3458 JUMP JUMPDEST PUSH2 0x33E9 PUSH2 0x18EB JUMP JUMPDEST DUP2 PUSH1 0x11 DUP2 SWAP1 SSTORE POP PUSH1 0x0 PUSH1 0x4 SLOAD SWAP1 POP DUP2 PUSH1 0x4 DUP2 SWAP1 SSTORE POP CALLER PUSH20 0xFFFFFFFFFFFFFFFFFFFFFFFFFFFFFFFFFFFFFFFF AND PUSH32 0xEEDC6338C9C1AD8F3CD6C90DD09DBE98DBD57E610D3E59A17996D07ACB0D9511 DUP3 DUP5 PUSH1 0x40 MLOAD DUP1 DUP4 DUP2 MSTORE PUSH1 0x20 ADD DUP3 DUP2 MSTORE PUSH1 0x20 ADD SWAP3 POP POP POP PUSH1 0x40 MLOAD DUP1 SWAP2 SUB SWAP1 LOG2 POP POP POP JUMPDEST JUMP JUMPDEST PUSH1 0x0 DUP1 PUSH1 0x9 DUP4 DUP2 SLOAD DUP2 LT PUSH2 0x346A JUMPI INVALID JUMPDEST SWAP1 PUSH1 0x0 MSTORE PUSH1 0x20 PUSH1 0x0 KECCAK256 SWAP1 PUSH1 0x6 MUL ADD SWAP1 POP PUSH2 0x3483 DUP4 PUSH2 0x26F9 JUMP JUMPDEST DUP1 ISZERO PUSH2 0x3493 JUMPI POP PUSH1 0x0 DUP2 PUSH1 0x1 ADD SLOAD EQ JUMPDEST ISZERO SWAP2 POP POP SWAP2 SWAP1 POP JUMP JUMPDEST PUSH2 0x34A4 PUSH2 0x3967 JUMP JUMPDEST PUSH20 0xFFFFFFFFFFFFFFFFFFFFFFFFFFFFFFFFFFFFFFFF AND PUSH1 0x0 DUP1 SLOAD SWAP1 PUSH2 0x100 EXP SWAP1 DIV PUSH20 0xFFFFFFFFFFFFFFFFFFFFFFFFFFFFFFFFFFFFFFFF AND PUSH20 0xFFFFFFFFFFFFFFFFFFFFFFFFFFFFFFFFFFFFFFFF AND EQ PUSH2 0x3564 JUMPI PUSH1 0x40 MLOAD PUSH32 0x8C379A000000000000000000000000000000000000000000000000000000000 DUP2 MSTORE PUSH1 0x4 ADD DUP1 DUP1 PUSH1 0x20 ADD DUP3 DUP2 SUB DUP3 MSTORE PUSH1 0x20 DUP2 MSTORE PUSH1 0x20 ADD DUP1 PUSH32 0x4F776E61626C653A2063616C6C6572206973206E6F7420746865206F776E6572 DUP2 MSTORE POP PUSH1 0x20 ADD SWAP2 POP POP PUSH1 0x40 MLOAD DUP1 SWAP2 SUB SWAP1 REVERT JUMPDEST PUSH2 0x356D DUP2 PUSH2 0x437C JUMP JUMPDEST POP JUMP JUMPDEST PUSH2 0x3578 PUSH2 0x3967 JUMP JUMPDEST PUSH20 0xFFFFFFFFFFFFFFFFFFFFFFFFFFFFFFFFFFFFFFFF AND PUSH1 0x0 DUP1 SLOAD SWAP1 PUSH2 0x100 EXP SWAP1 DIV PUSH20 0xFFFFFFFFFFFFFFFFFFFFFFFFFFFFFFFFFFFFFFFF AND PUSH20 0xFFFFFFFFFFFFFFFFFFFFFFFFFFFFFFFFFFFFFFFF AND EQ PUSH2 0x3638 JUMPI PUSH1 0x40 MLOAD PUSH32 0x8C379A000000000000000000000000000000000000000000000000000000000 DUP2 MSTORE PUSH1 0x4 ADD DUP1 DUP1 PUSH1 0x20 ADD DUP3 DUP2 SUB DUP3 MSTORE PUSH1 0x20 DUP2 MSTORE PUSH1 0x20 ADD DUP1 PUSH32 0x4F776E61626C653A2063616C6C6572206973206E6F7420746865206F776E6572 DUP2 MSTORE POP PUSH1 0x20 ADD SWAP2 POP POP PUSH1 0x40 MLOAD DUP1 SWAP2 SUB SWAP1 REVERT JUMPDEST DUP4 PUSH1 0x0 ISZERO ISZERO PUSH1 0xF PUSH1 0x0 DUP4 PUSH20 0xFFFFFFFFFFFFFFFFFFFFFFFFFFFFFFFFFFFFFFFF AND PUSH20 0xFFFFFFFFFFFFFFFFFFFFFFFFFFFFFFFFFFFFFFFF AND DUP2 MSTORE PUSH1 0x20 ADD SWAP1 DUP2 MSTORE PUSH1 0x20 ADD PUSH1 0x0 KECCAK256 PUSH1 0x0 SWAP1 SLOAD SWAP1 PUSH2 0x100 EXP SWAP1 DIV PUSH1 0xFF AND ISZERO ISZERO EQ PUSH2 0x36FF JUMPI PUSH1 0x40 MLOAD PUSH32 0x8C379A000000000000000000000000000000000000000000000000000000000 DUP2 MSTORE PUSH1 0x4 ADD DUP1 DUP1 PUSH1 0x20 ADD DUP3 DUP2 SUB DUP3 MSTORE PUSH1 0x19 DUP2 MSTORE PUSH1 0x20 ADD DUP1 PUSH32 0x6E6F6E4475706C6963617465643A206475706C69636174656400000000000000 DUP2 MSTORE POP PUSH1 0x20 ADD SWAP2 POP POP PUSH1 0x40 MLOAD DUP1 SWAP2 SUB SWAP1 REVERT JUMPDEST PUSH2 0x3E8 PUSH2 0xFFFF AND DUP5 PUSH2 0xFFFF AND GT ISZERO PUSH2 0x3762 JUMPI PUSH1 0x40 MLOAD PUSH32 0x8C379A000000000000000000000000000000000000000000000000000000000 DUP2 MSTORE PUSH1 0x4 ADD DUP1 DUP1 PUSH1 0x20 ADD DUP3 DUP2 SUB DUP3 MSTORE PUSH1 0x25 DUP2 MSTORE PUSH1 0x20 ADD DUP1 PUSH2 0x49D5 PUSH1 0x25 SWAP2 CODECOPY PUSH1 0x40 ADD SWAP2 POP POP PUSH1 0x40 MLOAD DUP1 SWAP2 SUB SWAP1 REVERT JUMPDEST DUP3 ISZERO PUSH2 0x3771 JUMPI PUSH2 0x3770 PUSH2 0x18EB JUMP JUMPDEST JUMPDEST PUSH1 0x0 DUP1 DUP4 GT PUSH2 0x3782 JUMPI PUSH1 0x7 SLOAD PUSH2 0x3784 JUMP JUMPDEST DUP3 JUMPDEST SWAP1 POP PUSH2 0x379B DUP8 PUSH1 0xB SLOAD PUSH2 0x3FCC SWAP1 SWAP2 SWAP1 PUSH4 0xFFFFFFFF AND JUMP JUMPDEST PUSH1 0xB DUP2 SWAP1 SSTORE POP PUSH1 0x1 PUSH1 0xF PUSH1 0x0 DUP9 PUSH20 0xFFFFFFFFFFFFFFFFFFFFFFFFFFFFFFFFFFFFFFFF AND PUSH20 0xFFFFFFFFFFFFFFFFFFFFFFFFFFFFFFFFFFFFFFFF AND DUP2 MSTORE PUSH1 0x20 ADD SWAP1 DUP2 MSTORE PUSH1 0x20 ADD PUSH1 0x0 KECCAK256 PUSH1 0x0 PUSH2 0x100 EXP DUP2 SLOAD DUP2 PUSH1 0xFF MUL NOT AND SWAP1 DUP4 ISZERO ISZERO MUL OR SWAP1 SSTORE POP PUSH1 0x9 PUSH1 0x40 MLOAD DUP1 PUSH1 0xC0 ADD PUSH1 0x40 MSTORE DUP1 DUP9 PUSH20 0xFFFFFFFFFFFFFFFFFFFFFFFFFFFFFFFFFFFFFFFF AND DUP2 MSTORE PUSH1 0x20 ADD DUP10 DUP2 MSTORE PUSH1 0x20 ADD DUP4 DUP2 MSTORE PUSH1 0x20 ADD PUSH1 0x8 SLOAD NUMBER GT PUSH2 0x383F JUMPI PUSH1 0x8 SLOAD PUSH2 0x3841 JUMP JUMPDEST NUMBER JUMPDEST DUP2 MSTORE PUSH1 0x20 ADD PUSH1 0x0 DUP2 MSTORE PUSH1 0x20 ADD DUP8 PUSH2 0xFFFF AND DUP2 MSTORE POP SWAP1 DUP1 PUSH1 0x1 DUP2 SLOAD ADD DUP1 DUP3 SSTORE DUP1 SWAP2 POP POP PUSH1 0x1 SWAP1 SUB SWAP1 PUSH1 0x0 MSTORE PUSH1 0x20 PUSH1 0x0 KECCAK256 SWAP1 PUSH1 0x6 MUL ADD PUSH1 0x0 SWAP1 SWAP2 SWAP1 SWAP2 SWAP1 SWAP2 POP PUSH1 0x0 DUP3 ADD MLOAD DUP2 PUSH1 0x0 ADD PUSH1 0x0 PUSH2 0x100 EXP DUP2 SLOAD DUP2 PUSH20 0xFFFFFFFFFFFFFFFFFFFFFFFFFFFFFFFFFFFFFFFF MUL NOT AND SWAP1 DUP4 PUSH20 0xFFFFFFFFFFFFFFFFFFFFFFFFFFFFFFFFFFFFFFFF AND MUL OR SWAP1 SSTORE POP PUSH1 0x20 DUP3 ADD MLOAD DUP2 PUSH1 0x1 ADD SSTORE PUSH1 0x40 DUP3 ADD MLOAD DUP2 PUSH1 0x2 ADD SSTORE PUSH1 0x60 DUP3 ADD MLOAD DUP2 PUSH1 0x3 ADD SSTORE PUSH1 0x80 DUP3 ADD MLOAD DUP2 PUSH1 0x4 ADD SSTORE PUSH1 0xA0 DUP3 ADD MLOAD DUP2 PUSH1 0x5 ADD PUSH1 0x0 PUSH2 0x100 EXP DUP2 SLOAD DUP2 PUSH2 0xFFFF MUL NOT AND SWAP1 DUP4 PUSH2 0xFFFF AND MUL OR SWAP1 SSTORE POP POP POP PUSH1 0x1 PUSH1 0x9 DUP1 SLOAD SWAP1 POP SUB PUSH1 0x10 PUSH1 0x0 DUP9 PUSH20 0xFFFFFFFFFFFFFFFFFFFFFFFFFFFFFFFFFFFFFFFF AND PUSH20 0xFFFFFFFFFFFFFFFFFFFFFFFFFFFFFFFFFFFFFFFF AND DUP2 MSTORE PUSH1 0x20 ADD SWAP1 DUP2 MSTORE PUSH1 0x20 ADD PUSH1 0x0 KECCAK256 DUP2 SWAP1 SSTORE POP POP POP POP POP POP POP POP JUMP JUMPDEST PUSH1 0x0 CALLER SWAP1 POP SWAP1 JUMP JUMPDEST PUSH1 0x0 DUP1 DUP4 EQ ISZERO PUSH2 0x3982 JUMPI PUSH1 0x0 SWAP1 POP PUSH2 0x39EF JUMP JUMPDEST PUSH1 0x0 DUP3 DUP5 MUL SWAP1 POP DUP3 DUP5 DUP3 DUP2 PUSH2 0x3993 JUMPI INVALID JUMPDEST DIV EQ PUSH2 0x39EA JUMPI PUSH1 0x40 MLOAD PUSH32 0x8C379A000000000000000000000000000000000000000000000000000000000 DUP2 MSTORE PUSH1 0x4 ADD DUP1 DUP1 PUSH1 0x20 ADD DUP3 DUP2 SUB DUP3 MSTORE PUSH1 0x21 DUP2 MSTORE PUSH1 0x20 ADD DUP1 PUSH2 0x4AED PUSH1 0x21 SWAP2 CODECOPY PUSH1 0x40 ADD SWAP2 POP POP PUSH1 0x40 MLOAD DUP1 SWAP2 SUB SWAP1 REVERT JUMPDEST DUP1 SWAP2 POP POP JUMPDEST SWAP3 SWAP2 POP POP JUMP JUMPDEST PUSH1 0x0 PUSH2 0x3A37 DUP4 DUP4 PUSH1 0x40 MLOAD DUP1 PUSH1 0x40 ADD PUSH1 0x40 MSTORE DUP1 PUSH1 0x1A DUP2 MSTORE PUSH1 0x20 ADD PUSH32 0x536166654D6174683A206469766973696F6E206279207A65726F000000000000 DUP2 MSTORE POP PUSH2 0x44BF JUMP JUMPDEST SWAP1 POP SWAP3 SWAP2 POP POP JUMP JUMPDEST PUSH1 0x0 PUSH2 0x3A81 DUP4 DUP4 PUSH1 0x40 MLOAD DUP1 PUSH1 0x40 ADD PUSH1 0x40 MSTORE DUP1 PUSH1 0x1E DUP2 MSTORE PUSH1 0x20 ADD PUSH32 0x536166654D6174683A207375627472616374696F6E206F766572666C6F770000 DUP2 MSTORE POP PUSH2 0x4585 JUMP JUMPDEST SWAP1 POP SWAP3 SWAP2 POP POP JUMP JUMPDEST PUSH1 0x0 PUSH1 0x2 PUSH1 0x0 SWAP1 SLOAD SWAP1 PUSH2 0x100 EXP SWAP1 DIV PUSH20 0xFFFFFFFFFFFFFFFFFFFFFFFFFFFFFFFFFFFFFFFF AND PUSH20 0xFFFFFFFFFFFFFFFFFFFFFFFFFFFFFFFFFFFFFFFF AND PUSH4 0x70A08231 ADDRESS PUSH1 0x40 MLOAD DUP3 PUSH4 0xFFFFFFFF AND PUSH1 0xE0 SHL DUP2 MSTORE PUSH1 0x4 ADD DUP1 DUP3 PUSH20 0xFFFFFFFFFFFFFFFFFFFFFFFFFFFFFFFFFFFFFFFF AND DUP2 MSTORE PUSH1 0x20 ADD SWAP2 POP POP PUSH1 0x20 PUSH1 0x40 MLOAD DUP1 DUP4 SUB DUP2 DUP7 DUP1 EXTCODESIZE ISZERO DUP1 ISZERO PUSH2 0x3B14 JUMPI PUSH1 0x0 DUP1 REVERT JUMPDEST POP GAS STATICCALL ISZERO DUP1 ISZERO PUSH2 0x3B28 JUMPI RETURNDATASIZE PUSH1 0x0 DUP1 RETURNDATACOPY RETURNDATASIZE PUSH1 0x0 REVERT JUMPDEST POP POP POP POP PUSH1 0x40 MLOAD RETURNDATASIZE PUSH1 0x20 DUP2 LT ISZERO PUSH2 0x3B3E JUMPI PUSH1 0x0 DUP1 REVERT JUMPDEST DUP2 ADD SWAP1 DUP1 DUP1 MLOAD SWAP1 PUSH1 0x20 ADD SWAP1 SWAP3 SWAP2 SWAP1 POP POP POP SWAP1 POP PUSH1 0x0 DUP2 DUP4 GT ISZERO PUSH2 0x3C30 JUMPI PUSH1 0x2 PUSH1 0x0 SWAP1 SLOAD SWAP1 PUSH2 0x100 EXP SWAP1 DIV PUSH20 0xFFFFFFFFFFFFFFFFFFFFFFFFFFFFFFFFFFFFFFFF AND PUSH20 0xFFFFFFFFFFFFFFFFFFFFFFFFFFFFFFFFFFFFFFFF AND PUSH4 0xA9059CBB DUP6 DUP5 PUSH1 0x40 MLOAD DUP4 PUSH4 0xFFFFFFFF AND PUSH1 0xE0 SHL DUP2 MSTORE PUSH1 0x4 ADD DUP1 DUP4 PUSH20 0xFFFFFFFFFFFFFFFFFFFFFFFFFFFFFFFFFFFFFFFF AND DUP2 MSTORE PUSH1 0x20 ADD DUP3 DUP2 MSTORE PUSH1 0x20 ADD SWAP3 POP POP POP PUSH1 0x20 PUSH1 0x40 MLOAD DUP1 DUP4 SUB DUP2 PUSH1 0x0 DUP8 DUP1 EXTCODESIZE ISZERO DUP1 ISZERO PUSH2 0x3BEE JUMPI PUSH1 0x0 DUP1 REVERT JUMPDEST POP GAS CALL ISZERO DUP1 ISZERO PUSH2 0x3C02 JUMPI RETURNDATASIZE PUSH1 0x0 DUP1 RETURNDATACOPY RETURNDATASIZE PUSH1 0x0 REVERT JUMPDEST POP POP POP POP PUSH1 0x40 MLOAD RETURNDATASIZE PUSH1 0x20 DUP2 LT ISZERO PUSH2 0x3C18 JUMPI PUSH1 0x0 DUP1 REVERT JUMPDEST DUP2 ADD SWAP1 DUP1 DUP1 MLOAD SWAP1 PUSH1 0x20 ADD SWAP1 SWAP3 SWAP2 SWAP1 POP POP POP SWAP1 POP PUSH2 0x3D01 JUMP JUMPDEST PUSH1 0x2 PUSH1 0x0 SWAP1 SLOAD SWAP1 PUSH2 0x100 EXP SWAP1 DIV PUSH20 0xFFFFFFFFFFFFFFFFFFFFFFFFFFFFFFFFFFFFFFFF AND PUSH20 0xFFFFFFFFFFFFFFFFFFFFFFFFFFFFFFFFFFFFFFFF AND PUSH4 0xA9059CBB DUP6 DUP6 PUSH1 0x40 MLOAD DUP4 PUSH4 0xFFFFFFFF AND PUSH1 0xE0 SHL DUP2 MSTORE PUSH1 0x4 ADD DUP1 DUP4 PUSH20 0xFFFFFFFFFFFFFFFFFFFFFFFFFFFFFFFFFFFFFFFF AND DUP2 MSTORE PUSH1 0x20 ADD DUP3 DUP2 MSTORE PUSH1 0x20 ADD SWAP3 POP POP POP PUSH1 0x20 PUSH1 0x40 MLOAD DUP1 DUP4 SUB DUP2 PUSH1 0x0 DUP8 DUP1 EXTCODESIZE ISZERO DUP1 ISZERO PUSH2 0x3CC3 JUMPI PUSH1 0x0 DUP1 REVERT JUMPDEST POP GAS CALL ISZERO DUP1 ISZERO PUSH2 0x3CD7 JUMPI RETURNDATASIZE PUSH1 0x0 DUP1 RETURNDATACOPY RETURNDATASIZE PUSH1 0x0 REVERT JUMPDEST POP POP POP POP PUSH1 0x40 MLOAD RETURNDATASIZE PUSH1 0x20 DUP2 LT ISZERO PUSH2 0x3CED JUMPI PUSH1 0x0 DUP1 REVERT JUMPDEST DUP2 ADD SWAP1 DUP1 DUP1 MLOAD SWAP1 PUSH1 0x20 ADD SWAP1 SWAP3 SWAP2 SWAP1 POP POP POP SWAP1 POP JUMPDEST DUP1 PUSH2 0x3D57 JUMPI PUSH1 0x40 MLOAD PUSH32 0x8C379A000000000000000000000000000000000000000000000000000000000 DUP2 MSTORE PUSH1 0x4 ADD DUP1 DUP1 PUSH1 0x20 ADD DUP3 DUP2 SUB DUP3 MSTORE PUSH1 0x22 DUP2 MSTORE PUSH1 0x20 ADD DUP1 PUSH2 0x4A84 PUSH1 0x22 SWAP2 CODECOPY PUSH1 0x40 ADD SWAP2 POP POP PUSH1 0x40 MLOAD DUP1 SWAP2 SUB SWAP1 REVERT JUMPDEST POP POP POP POP JUMP JUMPDEST PUSH1 0x0 PUSH2 0x3D68 DUP4 PUSH2 0xFA0 JUMP JUMPDEST SWAP1 POP PUSH1 0x0 PUSH20 0xFFFFFFFFFFFFFFFFFFFFFFFFFFFFFFFFFFFFFFFF AND DUP2 PUSH20 0xFFFFFFFFFFFFFFFFFFFFFFFFFFFFFFFFFFFFFFFF AND EQ ISZERO DUP1 ISZERO PUSH2 0x3DD3 JUMPI POP DUP3 PUSH20 0xFFFFFFFFFFFFFFFFFFFFFFFFFFFFFFFFFFFFFFFF AND DUP2 PUSH20 0xFFFFFFFFFFFFFFFFFFFFFFFFFFFFFFFFFFFFFFFF AND EQ ISZERO JUMPDEST DUP1 ISZERO PUSH2 0x3DE1 JUMPI POP PUSH1 0x0 PUSH1 0xC SLOAD GT JUMPDEST ISZERO PUSH2 0x3F25 JUMPI PUSH1 0x0 PUSH2 0x3E11 PUSH2 0x2710 PUSH2 0x3E03 PUSH1 0xC SLOAD DUP7 PUSH2 0x396F SWAP1 SWAP2 SWAP1 PUSH4 0xFFFFFFFF AND JUMP JUMPDEST PUSH2 0x39F5 SWAP1 SWAP2 SWAP1 PUSH4 0xFFFFFFFF AND JUMP JUMPDEST SWAP1 POP PUSH1 0x2 PUSH1 0x0 SWAP1 SLOAD SWAP1 PUSH2 0x100 EXP SWAP1 DIV PUSH20 0xFFFFFFFFFFFFFFFFFFFFFFFFFFFFFFFFFFFFFFFF AND PUSH20 0xFFFFFFFFFFFFFFFFFFFFFFFFFFFFFFFFFFFFFFFF AND PUSH4 0x40C10F19 DUP4 DUP4 PUSH1 0x40 MLOAD DUP4 PUSH4 0xFFFFFFFF AND PUSH1 0xE0 SHL DUP2 MSTORE PUSH1 0x4 ADD DUP1 DUP4 PUSH20 0xFFFFFFFFFFFFFFFFFFFFFFFFFFFFFFFFFFFFFFFF AND DUP2 MSTORE PUSH1 0x20 ADD DUP3 DUP2 MSTORE PUSH1 0x20 ADD SWAP3 POP POP POP PUSH1 0x0 PUSH1 0x40 MLOAD DUP1 DUP4 SUB DUP2 PUSH1 0x0 DUP8 DUP1 EXTCODESIZE ISZERO DUP1 ISZERO PUSH2 0x3EA6 JUMPI PUSH1 0x0 DUP1 REVERT JUMPDEST POP GAS CALL ISZERO DUP1 ISZERO PUSH2 0x3EBA JUMPI RETURNDATASIZE PUSH1 0x0 DUP1 RETURNDATACOPY RETURNDATASIZE PUSH1 0x0 REVERT JUMPDEST POP POP POP POP DUP2 PUSH20 0xFFFFFFFFFFFFFFFFFFFFFFFFFFFFFFFFFFFFFFFF AND DUP5 PUSH20 0xFFFFFFFFFFFFFFFFFFFFFFFFFFFFFFFFFFFFFFFF AND PUSH32 0xA721AB4682CEB61C7E4D264EF879FC419A6D764B136E7D96EF54B2053C75673 DUP4 PUSH1 0x40 MLOAD DUP1 DUP3 DUP2 MSTORE PUSH1 0x20 ADD SWAP2 POP POP PUSH1 0x40 MLOAD DUP1 SWAP2 SUB SWAP1 LOG3 POP JUMPDEST POP POP POP JUMP JUMPDEST PUSH2 0x3FC7 DUP4 PUSH4 0xA9059CBB PUSH1 0xE0 SHL DUP5 DUP5 PUSH1 0x40 MLOAD PUSH1 0x24 ADD DUP1 DUP4 PUSH20 0xFFFFFFFFFFFFFFFFFFFFFFFFFFFFFFFFFFFFFFFF AND DUP2 MSTORE PUSH1 0x20 ADD DUP3 DUP2 MSTORE PUSH1 0x20 ADD SWAP3 POP POP POP PUSH1 0x40 MLOAD PUSH1 0x20 DUP2 DUP4 SUB SUB DUP2 MSTORE SWAP1 PUSH1 0x40 MSTORE SWAP1 PUSH28 0xFFFFFFFFFFFFFFFFFFFFFFFFFFFFFFFFFFFFFFFFFFFFFFFFFFFFFFFF NOT AND PUSH1 0x20 DUP3 ADD DUP1 MLOAD PUSH28 0xFFFFFFFFFFFFFFFFFFFFFFFFFFFFFFFFFFFFFFFFFFFFFFFFFFFFFFFF DUP4 DUP2 DUP4 AND OR DUP4 MSTORE POP POP POP POP PUSH2 0x4645 JUMP JUMPDEST POP POP POP JUMP JUMPDEST PUSH1 0x0 DUP1 DUP3 DUP5 ADD SWAP1 POP DUP4 DUP2 LT ISZERO PUSH2 0x404A JUMPI PUSH1 0x40 MLOAD PUSH32 0x8C379A000000000000000000000000000000000000000000000000000000000 DUP2 MSTORE PUSH1 0x4 ADD DUP1 DUP1 PUSH1 0x20 ADD DUP3 DUP2 SUB DUP3 MSTORE PUSH1 0x1B DUP2 MSTORE PUSH1 0x20 ADD DUP1 PUSH32 0x536166654D6174683A206164646974696F6E206F766572666C6F770000000000 DUP2 MSTORE POP PUSH1 0x20 ADD SWAP2 POP POP PUSH1 0x40 MLOAD DUP1 SWAP2 SUB SWAP1 REVERT JUMPDEST DUP1 SWAP2 POP POP SWAP3 SWAP2 POP POP JUMP JUMPDEST DUP1 PUSH20 0xFFFFFFFFFFFFFFFFFFFFFFFFFFFFFFFFFFFFFFFF AND DUP2 PUSH20 0xFFFFFFFFFFFFFFFFFFFFFFFFFFFFFFFFFFFFFFFF AND EQ DUP1 ISZERO PUSH2 0x411A JUMPI POP PUSH1 0x0 PUSH20 0xFFFFFFFFFFFFFFFFFFFFFFFFFFFFFFFFFFFFFFFF AND PUSH1 0xD PUSH1 0x0 DUP5 PUSH20 0xFFFFFFFFFFFFFFFFFFFFFFFFFFFFFFFFFFFFFFFF AND PUSH20 0xFFFFFFFFFFFFFFFFFFFFFFFFFFFFFFFFFFFFFFFF AND DUP2 MSTORE PUSH1 0x20 ADD SWAP1 DUP2 MSTORE PUSH1 0x20 ADD PUSH1 0x0 KECCAK256 PUSH1 0x0 SWAP1 SLOAD SWAP1 PUSH2 0x100 EXP SWAP1 DIV PUSH20 0xFFFFFFFFFFFFFFFFFFFFFFFFFFFFFFFFFFFFFFFF AND PUSH20 0xFFFFFFFFFFFFFFFFFFFFFFFFFFFFFFFFFFFFFFFF AND EQ JUMPDEST DUP1 ISZERO PUSH2 0x4153 JUMPI POP PUSH1 0x0 PUSH20 0xFFFFFFFFFFFFFFFFFFFFFFFFFFFFFFFFFFFFFFFF AND DUP2 PUSH20 0xFFFFFFFFFFFFFFFFFFFFFFFFFFFFFFFFFFFFFFFF AND EQ ISZERO JUMPDEST DUP1 ISZERO PUSH2 0x418B JUMPI POP DUP2 PUSH20 0xFFFFFFFFFFFFFFFFFFFFFFFFFFFFFFFFFFFFFFFF AND DUP2 PUSH20 0xFFFFFFFFFFFFFFFFFFFFFFFFFFFFFFFFFFFFFFFF AND EQ ISZERO JUMPDEST ISZERO PUSH2 0x42B7 JUMPI DUP1 PUSH1 0xD PUSH1 0x0 DUP5 PUSH20 0xFFFFFFFFFFFFFFFFFFFFFFFFFFFFFFFFFFFFFFFF AND PUSH20 0xFFFFFFFFFFFFFFFFFFFFFFFFFFFFFFFFFFFFFFFF AND DUP2 MSTORE PUSH1 0x20 ADD SWAP1 DUP2 MSTORE PUSH1 0x20 ADD PUSH1 0x0 KECCAK256 PUSH1 0x0 PUSH2 0x100 EXP DUP2 SLOAD DUP2 PUSH20 0xFFFFFFFFFFFFFFFFFFFFFFFFFFFFFFFFFFFFFFFF MUL NOT AND SWAP1 DUP4 PUSH20 0xFFFFFFFFFFFFFFFFFFFFFFFFFFFFFFFFFFFFFFFF AND MUL OR SWAP1 SSTORE POP PUSH1 0x1 PUSH1 0xE PUSH1 0x0 DUP4 PUSH20 0xFFFFFFFFFFFFFFFFFFFFFFFFFFFFFFFFFFFFFFFF AND PUSH20 0xFFFFFFFFFFFFFFFFFFFFFFFFFFFFFFFFFFFFFFFF AND DUP2 MSTORE PUSH1 0x20 ADD SWAP1 DUP2 MSTORE PUSH1 0x20 ADD PUSH1 0x0 KECCAK256 PUSH1 0x0 DUP3 DUP3 SLOAD ADD SWAP3 POP POP DUP2 SWAP1 SSTORE POP DUP1 PUSH20 0xFFFFFFFFFFFFFFFFFFFFFFFFFFFFFFFFFFFFFFFF AND DUP3 PUSH20 0xFFFFFFFFFFFFFFFFFFFFFFFFFFFFFFFFFFFFFFFF AND PUSH32 0x9D05414FB79FAC216C15606DE5CC06664E91A254E4D5F57664D5F1BEAF7FB7EF PUSH1 0x40 MLOAD PUSH1 0x40 MLOAD DUP1 SWAP2 SUB SWAP1 LOG3 JUMPDEST POP POP JUMP JUMPDEST PUSH2 0x4376 DUP5 PUSH4 0x23B872DD PUSH1 0xE0 SHL DUP6 DUP6 DUP6 PUSH1 0x40 MLOAD PUSH1 0x24 ADD DUP1 DUP5 PUSH20 0xFFFFFFFFFFFFFFFFFFFFFFFFFFFFFFFFFFFFFFFF AND DUP2 MSTORE PUSH1 0x20 ADD DUP4 PUSH20 0xFFFFFFFFFFFFFFFFFFFFFFFFFFFFFFFFFFFFFFFF AND DUP2 MSTORE PUSH1 0x20 ADD DUP3 DUP2 MSTORE PUSH1 0x20 ADD SWAP4 POP POP POP POP PUSH1 0x40 MLOAD PUSH1 0x20 DUP2 DUP4 SUB SUB DUP2 MSTORE SWAP1 PUSH1 0x40 MSTORE SWAP1 PUSH28 0xFFFFFFFFFFFFFFFFFFFFFFFFFFFFFFFFFFFFFFFFFFFFFFFFFFFFFFFF NOT AND PUSH1 0x20 DUP3 ADD DUP1 MLOAD PUSH28 0xFFFFFFFFFFFFFFFFFFFFFFFFFFFFFFFFFFFFFFFFFFFFFFFFFFFFFFFF DUP4 DUP2 DUP4 AND OR DUP4 MSTORE POP POP POP POP PUSH2 0x4645 JUMP JUMPDEST POP POP POP POP JUMP JUMPDEST PUSH1 0x0 PUSH20 0xFFFFFFFFFFFFFFFFFFFFFFFFFFFFFFFFFFFFFFFF AND DUP2 PUSH20 0xFFFFFFFFFFFFFFFFFFFFFFFFFFFFFFFFFFFFFFFF AND EQ ISZERO PUSH2 0x4402 JUMPI PUSH1 0x40 MLOAD PUSH32 0x8C379A000000000000000000000000000000000000000000000000000000000 DUP2 MSTORE PUSH1 0x4 ADD DUP1 DUP1 PUSH1 0x20 ADD DUP3 DUP2 SUB DUP3 MSTORE PUSH1 0x26 DUP2 MSTORE PUSH1 0x20 ADD DUP1 PUSH2 0x4A5E PUSH1 0x26 SWAP2 CODECOPY PUSH1 0x40 ADD SWAP2 POP POP PUSH1 0x40 MLOAD DUP1 SWAP2 SUB SWAP1 REVERT JUMPDEST DUP1 PUSH20 0xFFFFFFFFFFFFFFFFFFFFFFFFFFFFFFFFFFFFFFFF AND PUSH1 0x0 DUP1 SLOAD SWAP1 PUSH2 0x100 EXP SWAP1 DIV PUSH20 0xFFFFFFFFFFFFFFFFFFFFFFFFFFFFFFFFFFFFFFFF AND PUSH20 0xFFFFFFFFFFFFFFFFFFFFFFFFFFFFFFFFFFFFFFFF AND PUSH32 0x8BE0079C531659141344CD1FD0A4F28419497F9722A3DAAFE3B4186F6B6457E0 PUSH1 0x40 MLOAD PUSH1 0x40 MLOAD DUP1 SWAP2 SUB SWAP1 LOG3 DUP1 PUSH1 0x0 DUP1 PUSH2 0x100 EXP DUP2 SLOAD DUP2 PUSH20 0xFFFFFFFFFFFFFFFFFFFFFFFFFFFFFFFFFFFFFFFF MUL NOT AND SWAP1 DUP4 PUSH20 0xFFFFFFFFFFFFFFFFFFFFFFFFFFFFFFFFFFFFFFFF AND MUL OR SWAP1 SSTORE POP POP JUMP JUMPDEST PUSH1 0x0 DUP1 DUP4 GT DUP3 SWAP1 PUSH2 0x456B JUMPI PUSH1 0x40 MLOAD PUSH32 0x8C379A000000000000000000000000000000000000000000000000000000000 DUP2 MSTORE PUSH1 0x4 ADD DUP1 DUP1 PUSH1 0x20 ADD DUP3 DUP2 SUB DUP3 MSTORE DUP4 DUP2 DUP2 MLOAD DUP2 MSTORE PUSH1 0x20 ADD SWAP2 POP DUP1 MLOAD SWAP1 PUSH1 0x20 ADD SWAP1 DUP1 DUP4 DUP4 PUSH1 0x0 JUMPDEST DUP4 DUP2 LT ISZERO PUSH2 0x4530 JUMPI DUP1 DUP3 ADD MLOAD DUP2 DUP5 ADD MSTORE PUSH1 0x20 DUP2 ADD SWAP1 POP PUSH2 0x4515 JUMP JUMPDEST POP POP POP POP SWAP1 POP SWAP1 DUP2 ADD SWAP1 PUSH1 0x1F AND DUP1 ISZERO PUSH2 0x455D JUMPI DUP1 DUP3 SUB DUP1 MLOAD PUSH1 0x1 DUP4 PUSH1 0x20 SUB PUSH2 0x100 EXP SUB NOT AND DUP2 MSTORE PUSH1 0x20 ADD SWAP2 POP JUMPDEST POP SWAP3 POP POP POP PUSH1 0x40 MLOAD DUP1 SWAP2 SUB SWAP1 REVERT JUMPDEST POP PUSH1 0x0 DUP4 DUP6 DUP2 PUSH2 0x4577 JUMPI INVALID JUMPDEST DIV SWAP1 POP DUP1 SWAP2 POP POP SWAP4 SWAP3 POP POP POP JUMP JUMPDEST PUSH1 0x0 DUP4 DUP4 GT ISZERO DUP3 SWAP1 PUSH2 0x4632 JUMPI PUSH1 0x40 MLOAD PUSH32 0x8C379A000000000000000000000000000000000000000000000000000000000 DUP2 MSTORE PUSH1 0x4 ADD DUP1 DUP1 PUSH1 0x20 ADD DUP3 DUP2 SUB DUP3 MSTORE DUP4 DUP2 DUP2 MLOAD DUP2 MSTORE PUSH1 0x20 ADD SWAP2 POP DUP1 MLOAD SWAP1 PUSH1 0x20 ADD SWAP1 DUP1 DUP4 DUP4 PUSH1 0x0 JUMPDEST DUP4 DUP2 LT ISZERO PUSH2 0x45F7 JUMPI DUP1 DUP3 ADD MLOAD DUP2 DUP5 ADD MSTORE PUSH1 0x20 DUP2 ADD SWAP1 POP PUSH2 0x45DC JUMP JUMPDEST POP POP POP POP SWAP1 POP SWAP1 DUP2 ADD SWAP1 PUSH1 0x1F AND DUP1 ISZERO PUSH2 0x4624 JUMPI DUP1 DUP3 SUB DUP1 MLOAD PUSH1 0x1 DUP4 PUSH1 0x20 SUB PUSH2 0x100 EXP SUB NOT AND DUP2 MSTORE PUSH1 0x20 ADD SWAP2 POP JUMPDEST POP SWAP3 POP POP POP PUSH1 0x40 MLOAD DUP1 SWAP2 SUB SWAP1 REVERT JUMPDEST POP PUSH1 0x0 DUP4 DUP6 SUB SWAP1 POP DUP1 SWAP2 POP POP SWAP4 SWAP3 POP POP POP JUMP JUMPDEST PUSH1 0x60 PUSH2 0x46A7 DUP3 PUSH1 0x40 MLOAD DUP1 PUSH1 0x40 ADD PUSH1 0x40 MSTORE DUP1 PUSH1 0x20 DUP2 MSTORE PUSH1 0x20 ADD PUSH32 0x5361666542455032303A206C6F772D6C6576656C2063616C6C206661696C6564 DUP2 MSTORE POP DUP6 PUSH20 0xFFFFFFFFFFFFFFFFFFFFFFFFFFFFFFFFFFFFFFFF AND PUSH2 0x4734 SWAP1 SWAP3 SWAP2 SWAP1 PUSH4 0xFFFFFFFF AND JUMP JUMPDEST SWAP1 POP PUSH1 0x0 DUP2 MLOAD GT ISZERO PUSH2 0x472F JUMPI DUP1 DUP1 PUSH1 0x20 ADD SWAP1 MLOAD PUSH1 0x20 DUP2 LT ISZERO PUSH2 0x46C8 JUMPI PUSH1 0x0 DUP1 REVERT JUMPDEST DUP2 ADD SWAP1 DUP1 DUP1 MLOAD SWAP1 PUSH1 0x20 ADD SWAP1 SWAP3 SWAP2 SWAP1 POP POP POP PUSH2 0x472E JUMPI PUSH1 0x40 MLOAD PUSH32 0x8C379A000000000000000000000000000000000000000000000000000000000 DUP2 MSTORE PUSH1 0x4 ADD DUP1 DUP1 PUSH1 0x20 ADD DUP3 DUP2 SUB DUP3 MSTORE PUSH1 0x2A DUP2 MSTORE PUSH1 0x20 ADD DUP1 PUSH2 0x4A34 PUSH1 0x2A SWAP2 CODECOPY PUSH1 0x40 ADD SWAP2 POP POP PUSH1 0x40 MLOAD DUP1 SWAP2 SUB SWAP1 REVERT JUMPDEST JUMPDEST POP POP POP JUMP JUMPDEST PUSH1 0x60 PUSH2 0x4743 DUP5 DUP5 PUSH1 0x0 DUP6 PUSH2 0x474C JUMP JUMPDEST SWAP1 POP SWAP4 SWAP3 POP POP POP JUMP JUMPDEST PUSH1 0x60 DUP3 SELFBALANCE LT ISZERO PUSH2 0x47A7 JUMPI PUSH1 0x40 MLOAD PUSH32 0x8C379A000000000000000000000000000000000000000000000000000000000 DUP2 MSTORE PUSH1 0x4 ADD DUP1 DUP1 PUSH1 0x20 ADD DUP3 DUP2 SUB DUP3 MSTORE PUSH1 0x26 DUP2 MSTORE PUSH1 0x20 ADD DUP1 PUSH2 0x4AC7 PUSH1 0x26 SWAP2 CODECOPY PUSH1 0x40 ADD SWAP2 POP POP PUSH1 0x40 MLOAD DUP1 SWAP2 SUB SWAP1 REVERT JUMPDEST PUSH2 0x47B0 DUP6 PUSH2 0x48F5 JUMP JUMPDEST PUSH2 0x4822 JUMPI PUSH1 0x40 MLOAD PUSH32 0x8C379A000000000000000000000000000000000000000000000000000000000 DUP2 MSTORE PUSH1 0x4 ADD DUP1 DUP1 PUSH1 0x20 ADD DUP3 DUP2 SUB DUP3 MSTORE PUSH1 0x1D DUP2 MSTORE PUSH1 0x20 ADD DUP1 PUSH32 0x416464726573733A2063616C6C20746F206E6F6E2D636F6E7472616374000000 DUP2 MSTORE POP PUSH1 0x20 ADD SWAP2 POP POP PUSH1 0x40 MLOAD DUP1 SWAP2 SUB SWAP1 REVERT JUMPDEST PUSH1 0x0 PUSH1 0x60 DUP7 PUSH20 0xFFFFFFFFFFFFFFFFFFFFFFFFFFFFFFFFFFFFFFFF AND DUP6 DUP8 PUSH1 0x40 MLOAD DUP1 DUP3 DUP1 MLOAD SWAP1 PUSH1 0x20 ADD SWAP1 DUP1 DUP4 DUP4 JUMPDEST PUSH1 0x20 DUP4 LT PUSH2 0x4872 JUMPI DUP1 MLOAD DUP3 MSTORE PUSH1 0x20 DUP3 ADD SWAP2 POP PUSH1 0x20 DUP2 ADD SWAP1 POP PUSH1 0x20 DUP4 SUB SWAP3 POP PUSH2 0x484F JUMP JUMPDEST PUSH1 0x1 DUP4 PUSH1 0x20 SUB PUSH2 0x100 EXP SUB DUP1 NOT DUP3 MLOAD AND DUP2 DUP5 MLOAD AND DUP1 DUP3 OR DUP6 MSTORE POP POP POP POP POP POP SWAP1 POP ADD SWAP2 POP POP PUSH1 0x0 PUSH1 0x40 MLOAD DUP1 DUP4 SUB DUP2 DUP6 DUP8 GAS CALL SWAP3 POP POP POP RETURNDATASIZE DUP1 PUSH1 0x0 DUP2 EQ PUSH2 0x48D4 JUMPI PUSH1 0x40 MLOAD SWAP2 POP PUSH1 0x1F NOT PUSH1 0x3F RETURNDATASIZE ADD AND DUP3 ADD PUSH1 0x40 MSTORE RETURNDATASIZE DUP3 MSTORE RETURNDATASIZE PUSH1 0x0 PUSH1 0x20 DUP5 ADD RETURNDATACOPY PUSH2 0x48D9 JUMP JUMPDEST PUSH1 0x60 SWAP2 POP JUMPDEST POP SWAP2 POP SWAP2 POP PUSH2 0x48E9 DUP3 DUP3 DUP7 PUSH2 0x4908 JUMP JUMPDEST SWAP3 POP POP POP SWAP5 SWAP4 POP POP POP POP JUMP JUMPDEST PUSH1 0x0 DUP1 DUP3 EXTCODESIZE SWAP1 POP PUSH1 0x0 DUP2 GT SWAP2 POP POP SWAP2 SWAP1 POP JUMP JUMPDEST PUSH1 0x60 DUP4 ISZERO PUSH2 0x4918 JUMPI DUP3 SWAP1 POP PUSH2 0x49CD JUMP JUMPDEST PUSH1 0x0 DUP4 MLOAD GT ISZERO PUSH2 0x492B JUMPI DUP3 MLOAD DUP1 DUP5 PUSH1 0x20 ADD REVERT JUMPDEST DUP2 PUSH1 0x40 MLOAD PUSH32 0x8C379A000000000000000000000000000000000000000000000000000000000 DUP2 MSTORE PUSH1 0x4 ADD DUP1 DUP1 PUSH1 0x20 ADD DUP3 DUP2 SUB DUP3 MSTORE DUP4 DUP2 DUP2 MLOAD DUP2 MSTORE PUSH1 0x20 ADD SWAP2 POP DUP1 MLOAD SWAP1 PUSH1 0x20 ADD SWAP1 DUP1 DUP4 DUP4 PUSH1 0x0 JUMPDEST DUP4 DUP2 LT ISZERO PUSH2 0x4992 JUMPI DUP1 DUP3 ADD MLOAD DUP2 DUP5 ADD MSTORE PUSH1 0x20 DUP2 ADD SWAP1 POP PUSH2 0x4977 JUMP JUMPDEST POP POP POP POP SWAP1 POP SWAP1 DUP2 ADD SWAP1 PUSH1 0x1F AND DUP1 ISZERO PUSH2 0x49BF JUMPI DUP1 DUP3 SUB DUP1 MLOAD PUSH1 0x1 DUP4 PUSH1 0x20 SUB PUSH2 0x100 EXP SUB NOT AND DUP2 MSTORE PUSH1 0x20 ADD SWAP2 POP JUMPDEST POP SWAP3 POP POP POP PUSH1 0x40 MLOAD DUP1 SWAP2 SUB SWAP1 REVERT JUMPDEST SWAP4 SWAP3 POP POP POP JUMP INVALID PUSH2 0x6464 GASPRICE KECCAK256 PUSH10 0x6E76616C696420646570 PUSH16 0x7369742066656520626173697320706F PUSH10 0x6E747375706461746552 PUSH6 0x66426F6E7573 POP PUSH6 0x7263656E743A KECCAK256 PUSH10 0x6E76616C696420726566 PUSH6 0x7272616C2062 PUSH16 0x6E757320626173697320706F696E7473 MSTORE8 PUSH2 0x6665 TIMESTAMP GASLIMIT POP ORIGIN ADDRESS GASPRICE KECCAK256 TIMESTAMP GASLIMIT POP ORIGIN ADDRESS KECCAK256 PUSH16 0x7065726174696F6E20646964206E6F74 KECCAK256 PUSH20 0x7563636565644F776E61626C653A206E6577206F PUSH24 0x6E657220697320746865207A65726F206164647265737373 PUSH2 0x6665 POP PUSH13 0x756D5472616E736665723A2074 PUSH19 0x616E73666572206661696C65642E6465706F73 PUSH10 0x743A20496E76616C6964 KECCAK256 PUSH19 0x65666572726572206164647265737341646472 PUSH6 0x73733A20696E PUSH20 0x756666696369656E742062616C616E636520666F PUSH19 0x2063616C6C536166654D6174683A206D756C74 PUSH10 0x706C69636174696F6E20 PUSH16 0x766572666C6F777365743A20696E7661 PUSH13 0x6964206465706F736974206665 PUSH6 0x206261736973 KECCAK256 PUSH17 0x6F696E7473757064617465526566426F6E PUSH22 0x7350657263656E743A2073616D6520626F6E75732062 PUSH17 0x20736574726564756365456D697373696F PUSH15 0x526174655769746844656661756C74 MSTORE PUSH2 0x7465 GASPRICE KECCAK256 NUMBER PUSH2 0x6E20 PUSH16 0x6E6C792062652063616C6C6564206166 PUSH21 0x65722073706563696669656420626C6F636B207374 PUSH2 0x7274 PUSH20 0x676574506F6F6C4964466F724C70546F6B656E3A KECCAK256 PUSH5 0x6F206E6F74 KECCAK256 PUSH6 0x786973747265 PUSH5 0x756365456D PUSH10 0x7373696F6E5261746557 PUSH10 0x746844656661756C7452 PUSH2 0x7465 GASPRICE KECCAK256 GASLIMIT PUSH14 0x697373696F6E2072617465206861 PUSH20 0x207265616368656420746865206D696E696D756D KECCAK256 PUSH21 0x68726573686F6C64726564756365456D697373696F PUSH15 0x526174655769746844656661756C74 MSTORE PUSH2 0x7465 GASPRICE KECCAK256 POP PUSH6 0x726D69737369 PUSH16 0x6E20666C6167206E6F74207475726E65 PUSH5 0x206F6EA264 PUSH10 0x70667358221220239A91 0x29 JUMPI 0x4F CALLDATALOAD 0xBD PUSH24 0xA8134EA4E0EF85F0A15FB2C5F0F259CCA42BB01C7A6EBA64 PUSH20 0x6F6C634300060C00330000000000000000000000 "},"gasEstimates":{"creation":{"codeDepositCost":"3921000","executionCost":"infinite","totalCost":"infinite"},"external":{"EMISSION_REDUCTION_PERIOD_BLOCKS()":"338","EMISSION_REDUCTION_RATE_PER_PERIOD()":"250","INITIAL_EMISSION_RATE()":"317","MAXIMUM_DEPOSIT_FEE_BP()":"367","MAXIMUM_REFERRAL_BP()":"368","MINIMUM_EMISSION_RATE()":"317","add(uint256,address,uint16,bool,uint256)":"infinite","blockToStartReducingEmissionRate()":"1095","canGenerateTexoReward(uint256)":"3921","canWithdrawReward(uint256)":"2179","deposit(uint256,uint256)":"infinite","deposit(uint256,uint256,address)":"infinite","devAddr()":"1202","emergencyWithdraw(uint256)":"infinite","feeAddress()":"1137","getMultiplier(uint256,uint256)":"infinite","getPoolIdForLpToken(address)":"infinite","getReferral(address)":"1284","globalBlockToUnlockClaimingRewards()":"1072","isAllowReduceEmissionRate()":"1181","lastReductionPeriodIndex()":"1094","massUpdatePools()":"infinite","owner()":"1101","pendingTEXO(uint256,address)":"infinite","poolExistence(address)":"1289","poolIdForLpAddress(address)":"1214","poolInfo(uint256)":"6318","poolLength()":"1068","reduceEmissionRateWithDefaultRate()":"infinite","refBonusBP()":"1072","referredCount(address)":"1237","referrers(address)":"1356","renounceOwnership()":"24402","set(uint256,uint256,uint16,bool,uint256)":"infinite","setBlockToStartReducingEmissionRate(uint256)":"21279","setDevAddress(address)":"23664","setEmissionRate(uint256)":"infinite","setFeeAddress(address)":"23708","setFlagAllowReduceEmissionRate(bool)":"22136","setGlobalBlockToUnlockClaimingRewards(uint256)":"21277","tEXO()":"1158","tEXOPerBlock()":"1050","totalAllocPoint()":"1096","transferOwnership(address)":"infinite","updatePool(uint256)":"infinite","updateReferralBonusBp(uint256)":"infinite","userInfo(uint256,address)":"3115","withdraw(uint256,uint256)":"infinite"},"internal":{"payReferralCommission(address,uint256)":"infinite","safeTEXOTransfer(address,uint256)":"infinite","setReferral(address,address)":"44546"}},"methodIdentifiers":{"EMISSION_REDUCTION_PERIOD_BLOCKS()":"d4adafdf","EMISSION_REDUCTION_RATE_PER_PERIOD()":"b7eee1f1","INITIAL_EMISSION_RATE()":"91bb809c","MAXIMUM_DEPOSIT_FEE_BP()":"955c9b93","MAXIMUM_REFERRAL_BP()":"3a22df78","MINIMUM_EMISSION_RATE()":"61e0c468","add(uint256,address,uint16,bool,uint256)":"fab96ae6","blockToStartReducingEmissionRate()":"54324b58","canGenerateTexoReward(uint256)":"ebec9e8b","canWithdrawReward(uint256)":"b51d4c80","deposit(uint256,uint256)":"e2bbb158","deposit(uint256,uint256,address)":"8dbdbe6d","devAddr()":"da09c72c","emergencyWithdraw(uint256)":"5312ea8e","feeAddress()":"41275358","getMultiplier(uint256,uint256)":"8dbb1e3a","getPoolIdForLpToken(address)":"190f39f0","getReferral(address)":"3b0f0f2f","globalBlockToUnlockClaimingRewards()":"a1515333","isAllowReduceEmissionRate()":"47e3cda5","lastReductionPeriodIndex()":"6a9a7660","massUpdatePools()":"630b5ba1","owner()":"8da5cb5b","pendingTEXO(uint256,address)":"dfe3d2cd","poolExistence(address)":"cbd258b5","poolIdForLpAddress(address)":"9bf62f7e","poolInfo(uint256)":"1526fe27","poolLength()":"081e3eda","reduceEmissionRateWithDefaultRate()":"ea76bc29","refBonusBP()":"66f685ea","referredCount(address)":"3f7b06d8","referrers(address)":"4a3b68cc","renounceOwnership()":"715018a6","set(uint256,uint256,uint16,bool,uint256)":"c6df25bd","setBlockToStartReducingEmissionRate(uint256)":"1eb704b0","setDevAddress(address)":"d0d41fe1","setEmissionRate(uint256)":"a1bdb15e","setFeeAddress(address)":"8705fcd4","setFlagAllowReduceEmissionRate(bool)":"80361747","setGlobalBlockToUnlockClaimingRewards(uint256)":"b2a5aa2e","tEXO()":"ae715d70","tEXOPerBlock()":"660f8340","totalAllocPoint()":"17caf6f1","transferOwnership(address)":"f2fde38b","updatePool(uint256)":"51eb05a6","updateReferralBonusBp(uint256)":"64ed743b","userInfo(uint256,address)":"93f1a40b","withdraw(uint256,uint256)":"441a3e70"}},"storageLayout":{"storage":[{"astId":325,"contract":"TEXOToken.sol:TEXOOrchestrator","label":"_owner","offset":0,"slot":"0","type":"t_address"},{"astId":688,"contract":"TEXOToken.sol:TEXOOrchestrator","label":"_status","offset":0,"slot":"1","type":"t_uint256"},{"astId":1487,"contract":"TEXOToken.sol:TEXOOrchestrator","label":"tEXO","offset":0,"slot":"2","type":"t_contract(TEXOToken)1454"},{"astId":1489,"contract":"TEXOToken.sol:TEXOOrchestrator","label":"devAddr","offset":0,"slot":"3","type":"t_address"},{"astId":1491,"contract":"TEXOToken.sol:TEXOOrchestrator","label":"tEXOPerBlock","offset":0,"slot":"4","type":"t_uint256"},{"astId":1493,"contract":"TEXOToken.sol:TEXOOrchestrator","label":"feeAddress","offset":0,"slot":"5","type":"t_address"},{"astId":1495,"contract":"TEXOToken.sol:TEXOOrchestrator","label":"blockToStartReducingEmissionRate","offset":0,"slot":"6","type":"t_uint256"},{"astId":1497,"contract":"TEXOToken.sol:TEXOOrchestrator","label":"globalBlockToUnlockClaimingRewards","offset":0,"slot":"7","type":"t_uint256"},{"astId":1499,"contract":"TEXOToken.sol:TEXOOrchestrator","label":"startBlock","offset":0,"slot":"8","type":"t_uint256"},{"astId":1502,"contract":"TEXOToken.sol:TEXOOrchestrator","label":"poolInfo","offset":0,"slot":"9","type":"t_array(t_struct(PoolInfo)1485_storage)dyn_storage"},{"astId":1508,"contract":"TEXOToken.sol:TEXOOrchestrator","label":"userInfo","offset":0,"slot":"10","type":"t_mapping(t_uint256,t_mapping(t_address,t_struct(UserInfo)1472_storage))"},{"astId":1511,"contract":"TEXOToken.sol:TEXOOrchestrator","label":"totalAllocPoint","offset":0,"slot":"11","type":"t_uint256"},{"astId":1514,"contract":"TEXOToken.sol:TEXOOrchestrator","label":"refBonusBP","offset":0,"slot":"12","type":"t_uint256"},{"astId":1524,"contract":"TEXOToken.sol:TEXOOrchestrator","label":"referrers","offset":0,"slot":"13","type":"t_mapping(t_address,t_address)"},{"astId":1528,"contract":"TEXOToken.sol:TEXOOrchestrator","label":"referredCount","offset":0,"slot":"14","type":"t_mapping(t_address,t_uint256)"},{"astId":1532,"contract":"TEXOToken.sol:TEXOOrchestrator","label":"poolExistence","offset":0,"slot":"15","type":"t_mapping(t_contract(IBEP20)320,t_bool)"},{"astId":1536,"contract":"TEXOToken.sol:TEXOOrchestrator","label":"poolIdForLpAddress","offset":0,"slot":"16","type":"t_mapping(t_contract(IBEP20)320,t_uint256)"},{"astId":1551,"contract":"TEXOToken.sol:TEXOOrchestrator","label":"lastReductionPeriodIndex","offset":0,"slot":"17","type":"t_uint256"},{"astId":1554,"contract":"TEXOToken.sol:TEXOOrchestrator","label":"isAllowReduceEmissionRate","offset":0,"slot":"18","type":"t_bool"}],"types":{"t_address":{"encoding":"inplace","label":"address","numberOfBytes":"20"},"t_array(t_struct(PoolInfo)1485_storage)dyn_storage":{"base":"t_struct(PoolInfo)1485_storage","encoding":"dynamic_array","label":"struct TEXOOrchestrator.PoolInfo[]","numberOfBytes":"32"},"t_bool":{"encoding":"inplace","label":"bool","numberOfBytes":"1"},"t_contract(IBEP20)320":{"encoding":"inplace","label":"contract IBEP20","numberOfBytes":"20"},"t_contract(TEXOToken)1454":{"encoding":"inplace","label":"contract TEXOToken","numberOfBytes":"20"},"t_mapping(t_address,t_address)":{"encoding":"mapping","key":"t_address","label":"mapping(address => address)","numberOfBytes":"32","value":"t_address"},"t_mapping(t_address,t_struct(UserInfo)1472_storage)":{"encoding":"mapping","key":"t_address","label":"mapping(address => struct TEXOOrchestrator.UserInfo)","numberOfBytes":"32","value":"t_struct(UserInfo)1472_storage"},"t_mapping(t_address,t_uint256)":{"encoding":"mapping","key":"t_address","label":"mapping(address => uint256)","numberOfBytes":"32","value":"t_uint256"},"t_mapping(t_contract(IBEP20)320,t_bool)":{"encoding":"mapping","key":"t_contract(IBEP20)320","label":"mapping(contract IBEP20 => bool)","numberOfBytes":"32","value":"t_bool"},"t_mapping(t_contract(IBEP20)320,t_uint256)":{"encoding":"mapping","key":"t_contract(IBEP20)320","label":"mapping(contract IBEP20 => uint256)","numberOfBytes":"32","value":"t_uint256"},"t_mapping(t_uint256,t_mapping(t_address,t_struct(UserInfo)1472_storage))":{"encoding":"mapping","key":"t_uint256","label":"mapping(uint256 => mapping(address => struct TEXOOrchestrator.UserInfo))","numberOfBytes":"32","value":"t_mapping(t_address,t_struct(UserInfo)1472_storage)"},"t_struct(PoolInfo)1485_storage":{"encoding":"inplace","label":"struct TEXOOrchestrator.PoolInfo","members":[{"astId":1474,"contract":"TEXOToken.sol:TEXOOrchestrator","label":"lpToken","offset":0,"slot":"0","type":"t_contract(IBEP20)320"},{"astId":1476,"contract":"TEXOToken.sol:TEXOOrchestrator","label":"allocPoint","offset":0,"slot":"1","type":"t_uint256"},{"astId":1478,"contract":"TEXOToken.sol:TEXOOrchestrator","label":"blockToReceiveReward","offset":0,"slot":"2","type":"t_uint256"},{"astId":1480,"contract":"TEXOToken.sol:TEXOOrchestrator","label":"lastRewardBlock","offset":0,"slot":"3","type":"t_uint256"},{"astId":1482,"contract":"TEXOToken.sol:TEXOOrchestrator","label":"accTEXOPerShare","offset":0,"slot":"4","type":"t_uint256"},{"astId":1484,"contract":"TEXOToken.sol:TEXOOrchestrator","label":"depositFeeBP","offset":0,"slot":"5","type":"t_uint16"}],"numberOfBytes":"192"},"t_struct(UserInfo)1472_storage":{"encoding":"inplace","label":"struct TEXOOrchestrator.UserInfo","members":[{"astId":1467,"contract":"TEXOToken.sol:TEXOOrchestrator","label":"amount","offset":0,"slot":"0","type":"t_uint256"},{"astId":1469,"contract":"TEXOToken.sol:TEXOOrchestrator","label":"rewardDebt","offset":0,"slot":"1","type":"t_uint256"},{"astId":1471,"contract":"TEXOToken.sol:TEXOOrchestrator","label":"isAlreadyStaked","offset":0,"slot":"2","type":"t_bool"}],"numberOfBytes":"96"},"t_uint16":{"encoding":"inplace","label":"uint16","numberOfBytes":"2"},"t_uint256":{"encoding":"inplace","label":"uint256","numberOfBytes":"32"}}},"userdoc":{"kind":"user","methods":{},"version":1}}