{"abi":[{"inputs":[{"internalType":"contract TEXOToken","name":"_tEXO","type":"address"},{"internalType":"address","name":"_devAddr","type":"address"},{"internalType":"address","name":"_feeAddress","type":"address"},{"internalType":"uint256","name":"_startBlock","type":"uint256"},{"internalType":"uint256","name":"_blockToStartReducingEmissionRate","type":"uint256"},{"internalType":"uint256","name":"_blockToUnlockClaimingRewards","type":"uint256"}],"stateMutability":"nonpayable","type":"constructor"},{"anonymous":false,"inputs":[{"indexed":true,"internalType":"address","name":"user","type":"address"},{"indexed":true,"internalType":"uint256","name":"pid","type":"uint256"},{"indexed":false,"internalType":"uint256","name":"amount","type":"uint256"}],"name":"Deposit","type":"event"},{"anonymous":false,"inputs":[{"indexed":true,"internalType":"address","name":"user","type":"address"},{"indexed":true,"internalType":"uint256","name":"pid","type":"uint256"},{"indexed":false,"internalType":"uint256","name":"amount","type":"uint256"}],"name":"EmergencyWithdraw","type":"event"},{"anonymous":false,"inputs":[{"indexed":true,"internalType":"address","name":"caller","type":"address"},{"indexed":false,"internalType":"uint256","name":"previousAmount","type":"uint256"},{"indexed":false,"internalType":"uint256","name":"newAmount","type":"uint256"}],"name":"EmissionRateUpdated","type":"event"},{"anonymous":false,"inputs":[{"indexed":true,"internalType":"address","name":"previousOwner","type":"address"},{"indexed":true,"internalType":"address","name":"newOwner","type":"address"}],"name":"OwnershipTransferred","type":"event"},{"anonymous":false,"inputs":[{"indexed":true,"internalType":"address","name":"_referrer","type":"address"},{"indexed":true,"internalType":"address","name":"_user","type":"address"}],"name":"Referral","type":"event"},{"anonymous":false,"inputs":[{"indexed":false,"internalType":"uint256","name":"_oldBp","type":"uint256"},{"indexed":false,"internalType":"uint256","name":"_newBp","type":"uint256"}],"name":"ReferralBonusBpChanged","type":"event"},{"anonymous":false,"inputs":[{"indexed":true,"internalType":"address","name":"_user","type":"address"},{"indexed":true,"internalType":"address","name":"_userTo","type":"address"},{"indexed":false,"internalType":"uint256","name":"_reward","type":"uint256"}],"name":"ReferralPaid","type":"event"},{"anonymous":false,"inputs":[{"indexed":true,"internalType":"address","name":"user","type":"address"},{"indexed":true,"internalType":"address","name":"_feeAddress","type":"address"}],"name":"SetDevAddress","type":"event"},{"anonymous":false,"inputs":[{"indexed":true,"internalType":"address","name":"user","type":"address"},{"indexed":true,"internalType":"address","name":"_devAddress","type":"address"}],"name":"SetFeeAddress","type":"event"},{"anonymous":false,"inputs":[{"indexed":true,"internalType":"address","name":"user","type":"address"},{"indexed":true,"internalType":"uint256","name":"pid","type":"uint256"},{"indexed":false,"internalType":"uint256","name":"amount","type":"uint256"}],"name":"Withdraw","type":"event"},{"inputs":[],"name":"EMISSION_REDUCTION_PERIOD_BLOCKS","outputs":[{"internalType":"uint256","name":"","type":"uint256"}],"stateMutability":"view","type":"function"},{"inputs":[],"name":"EMISSION_REDUCTION_RATE_PER_PERIOD","outputs":[{"internalType":"uint256","name":"","type":"uint256"}],"stateMutability":"view","type":"function"},{"inputs":[],"name":"INITIAL_EMISSION_RATE","outputs":[{"internalType":"uint256","name":"","type":"uint256"}],"stateMutability":"view","type":"function"},{"inputs":[],"name":"MAXIMUM_DEPOSIT_FEE_BP","outputs":[{"internalType":"uint16","name":"","type":"uint16"}],"stateMutability":"view","type":"function"},{"inputs":[],"name":"MAXIMUM_REFERRAL_BP","outputs":[{"internalType":"uint16","name":"","type":"uint16"}],"stateMutability":"view","type":"function"},{"inputs":[],"name":"MINIMUM_EMISSION_RATE","outputs":[{"internalType":"uint256","name":"","type":"uint256"}],"stateMutability":"view","type":"function"},{"inputs":[{"internalType":"uint256","name":"_allocPoint","type":"uint256"},{"internalType":"contract IBEP20","name":"_lpToken","type":"address"},{"internalType":"uint16","name":"_depositFeeBP","type":"uint16"},{"internalType":"bool","name":"_withUpdate","type":"bool"},{"internalType":"uint256","name":"_blockToReceiveReward","type":"uint256"},{"internalType":"uint256","name":"_startGenerateRewardBlock","type":"uint256"}],"name":"add","outputs":[],"stateMutability":"nonpayable","type":"function"},{"inputs":[],"name":"blockToStartReducingEmissionRate","outputs":[{"internalType":"uint256","name":"","type":"uint256"}],"stateMutability":"view","type":"function"},{"inputs":[{"internalType":"uint256","name":"_pid","type":"uint256"}],"name":"canGenerateTexoReward","outputs":[{"internalType":"bool","name":"","type":"bool"}],"stateMutability":"view","type":"function"},{"inputs":[{"internalType":"uint256","name":"_pid","type":"uint256"}],"name":"canWithdrawReward","outputs":[{"internalType":"bool","name":"","type":"bool"}],"stateMutability":"view","type":"function"},{"inputs":[{"internalType":"uint256","name":"_pid","type":"uint256"},{"internalType":"uint256","name":"_amount","type":"uint256"},{"internalType":"address","name":"_referrer","type":"address"}],"name":"deposit","outputs":[],"stateMutability":"nonpayable","type":"function"},{"inputs":[{"internalType":"uint256","name":"_pid","type":"uint256"},{"internalType":"uint256","name":"_amount","type":"uint256"}],"name":"deposit","outputs":[],"stateMutability":"nonpayable","type":"function"},{"inputs":[],"name":"devAddr","outputs":[{"internalType":"address","name":"","type":"address"}],"stateMutability":"view","type":"function"},{"inputs":[{"internalType":"uint256","name":"_pid","type":"uint256"}],"name":"emergencyWithdraw","outputs":[],"stateMutability":"nonpayable","type":"function"},{"inputs":[],"name":"feeAddress","outputs":[{"internalType":"address","name":"","type":"address"}],"stateMutability":"view","type":"function"},{"inputs":[{"internalType":"uint256","name":"_from","type":"uint256"},{"internalType":"uint256","name":"_to","type":"uint256"}],"name":"getMultiplier","outputs":[{"internalType":"uint256","name":"","type":"uint256"}],"stateMutability":"pure","type":"function"},{"inputs":[{"internalType":"contract IBEP20","name":"_lpToken","type":"address"}],"name":"getPoolIdForLpToken","outputs":[{"internalType":"uint256","name":"","type":"uint256"}],"stateMutability":"view","type":"function"},{"inputs":[{"internalType":"address","name":"_user","type":"address"}],"name":"getReferral","outputs":[{"internalType":"address","name":"","type":"address"}],"stateMutability":"view","type":"function"},{"inputs":[],"name":"globalBlockToUnlockClaimingRewards","outputs":[{"internalType":"uint256","name":"","type":"uint256"}],"stateMutability":"view","type":"function"},{"inputs":[],"name":"isAllowReduceEmissionRate","outputs":[{"internalType":"bool","name":"","type":"bool"}],"stateMutability":"view","type":"function"},{"inputs":[],"name":"lastReductionPeriodIndex","outputs":[{"internalType":"uint256","name":"","type":"uint256"}],"stateMutability":"view","type":"function"},{"inputs":[],"name":"massUpdatePools","outputs":[],"stateMutability":"nonpayable","type":"function"},{"inputs":[],"name":"owner","outputs":[{"internalType":"address","name":"","type":"address"}],"stateMutability":"view","type":"function"},{"inputs":[{"internalType":"uint256","name":"_pid","type":"uint256"},{"internalType":"address","name":"_user","type":"address"}],"name":"pendingTEXO","outputs":[{"internalType":"uint256","name":"","type":"uint256"}],"stateMutability":"view","type":"function"},{"inputs":[{"internalType":"contract IBEP20","name":"","type":"address"}],"name":"poolExistence","outputs":[{"internalType":"bool","name":"","type":"bool"}],"stateMutability":"view","type":"function"},{"inputs":[{"internalType":"contract IBEP20","name":"","type":"address"}],"name":"poolIdForLpAddress","outputs":[{"internalType":"uint256","name":"","type":"uint256"}],"stateMutability":"view","type":"function"},{"inputs":[{"internalType":"uint256","name":"","type":"uint256"}],"name":"poolInfo","outputs":[{"internalType":"contract IBEP20","name":"lpToken","type":"address"},{"internalType":"uint256","name":"allocPoint","type":"uint256"},{"internalType":"uint256","name":"blockToReceiveReward","type":"uint256"},{"internalType":"uint256","name":"lastRewardBlock","type":"uint256"},{"internalType":"uint256","name":"accTEXOPerShare","type":"uint256"},{"internalType":"uint16","name":"depositFeeBP","type":"uint16"}],"stateMutability":"view","type":"function"},{"inputs":[],"name":"poolLength","outputs":[{"internalType":"uint256","name":"","type":"uint256"}],"stateMutability":"view","type":"function"},{"inputs":[],"name":"reduceEmissionRateWithDefaultRate","outputs":[],"stateMutability":"nonpayable","type":"function"},{"inputs":[],"name":"refBonusBP","outputs":[{"internalType":"uint256","name":"","type":"uint256"}],"stateMutability":"view","type":"function"},{"inputs":[{"internalType":"address","name":"","type":"address"}],"name":"referredCount","outputs":[{"internalType":"uint256","name":"","type":"uint256"}],"stateMutability":"view","type":"function"},{"inputs":[{"internalType":"address","name":"","type":"address"}],"name":"referrers","outputs":[{"internalType":"address","name":"","type":"address"}],"stateMutability":"view","type":"function"},{"inputs":[],"name":"renounceOwnership","outputs":[],"stateMutability":"nonpayable","type":"function"},{"inputs":[{"internalType":"uint256","name":"_pid","type":"uint256"},{"internalType":"uint256","name":"_allocPoint","type":"uint256"},{"internalType":"uint16","name":"_depositFeeBP","type":"uint16"},{"internalType":"bool","name":"_withUpdate","type":"bool"},{"internalType":"uint256","name":"_blockToReceiveReward","type":"uint256"}],"name":"set","outputs":[],"stateMutability":"nonpayable","type":"function"},{"inputs":[{"internalType":"uint256","name":"_blockToStartReducingEmissionRate","type":"uint256"}],"name":"setBlockToStartReducingEmissionRate","outputs":[],"stateMutability":"nonpayable","type":"function"},{"inputs":[{"internalType":"address","name":"_devaddr","type":"address"}],"name":"setDevAddress","outputs":[],"stateMutability":"nonpayable","type":"function"},{"inputs":[{"internalType":"uint256","name":"newEmissionRate","type":"uint256"}],"name":"setEmissionRate","outputs":[],"stateMutability":"nonpayable","type":"function"},{"inputs":[{"internalType":"address","name":"_feeAddress","type":"address"}],"name":"setFeeAddress","outputs":[],"stateMutability":"nonpayable","type":"function"},{"inputs":[{"internalType":"bool","name":"isAllow","type":"bool"}],"name":"setFlagAllowReduceEmissionRate","outputs":[],"stateMutability":"nonpayable","type":"function"},{"inputs":[{"internalType":"uint256","name":"_blockToUnlockClaimingRewards","type":"uint256"}],"name":"setGlobalBlockToUnlockClaimingRewards","outputs":[],"stateMutability":"nonpayable","type":"function"},{"inputs":[],"name":"tEXO","outputs":[{"internalType":"contract TEXOToken","name":"","type":"address"}],"stateMutability":"view","type":"function"},{"inputs":[],"name":"tEXOPerBlock","outputs":[{"internalType":"uint256","name":"","type":"uint256"}],"stateMutability":"view","type":"function"},{"inputs":[],"name":"totalAllocPoint","outputs":[{"internalType":"uint256","name":"","type":"uint256"}],"stateMutability":"view","type":"function"},{"inputs":[{"internalType":"address","name":"newOwner","type":"address"}],"name":"transferOwnership","outputs":[],"stateMutability":"nonpayable","type":"function"},{"inputs":[{"internalType":"uint256","name":"_pid","type":"uint256"}],"name":"updatePool","outputs":[],"stateMutability":"nonpayable","type":"function"},{"inputs":[{"internalType":"uint256","name":"_newRefBonusBp","type":"uint256"}],"name":"updateReferralBonusBp","outputs":[],"stateMutability":"nonpayable","type":"function"},{"inputs":[{"internalType":"uint256","name":"","type":"uint256"},{"internalType":"address","name":"","type":"address"}],"name":"userInfo","outputs":[{"internalType":"uint256","name":"amount","type":"uint256"},{"internalType":"uint256","name":"rewardDebt","type":"uint256"},{"internalType":"bool","name":"isAlreadyStaked","type":"bool"}],"stateMutability":"view","type":"function"},{"inputs":[{"internalType":"uint256","name":"_pid","type":"uint256"},{"internalType":"uint256","name":"_amount","type":"uint256"}],"name":"withdraw","outputs":[],"stateMutability":"nonpayable","type":"function"}],"devdoc":{"kind":"dev","methods":{"owner()":{"details":"Returns the address of the current owner."},"renounceOwnership()":{"details":"Leaves the contract without owner. It will not be possible to call `onlyOwner` functions anymore. Can only be called by the current owner. NOTE: Renouncing ownership will leave the contract without an owner, thereby removing any functionality that is only available to the owner."},"transferOwnership(address)":{"details":"Transfers ownership of the contract to a new account (`newOwner`). Can only be called by the current owner."}},"title":"TEXO Token (tEXO)","version":1},"evm":{"assembly":"    /* \"TEXOToken.sol\":33757:54738  contract TEXOOrchestrator is Ownable, ReentrancyGuard {... */\n  mstore(0x40, 0x80)\n    /* \"TEXOToken.sol\":36107:36108  0 */\n  0x00\n    /* \"TEXOToken.sol\":36074:36108  uint256 public totalAllocPoint = 0 */\n  0x0b\n  sstore\n    /* \"TEXOToken.sol\":36201:36204  100 */\n  0x64\n    /* \"TEXOToken.sol\":36173:36204  uint256 public refBonusBP = 100 */\n  0x0c\n  sstore\n    /* \"TEXOToken.sol\":37332:37333  0 */\n  0x00\n    /* \"TEXOToken.sol\":37290:37333  uint256 public lastReductionPeriodIndex = 0 */\n  0x11\n  sstore\n    /* \"TEXOToken.sol\":37380:37385  false */\n  0x00\n    /* \"TEXOToken.sol\":37340:37385  bool public isAllowReduceEmissionRate = false */\n  0x12\n  exp(0x0100, 0x00)\n  dup2\n  sload\n  dup2\n  0xff\n  mul\n  not\n  and\n  swap1\n  dup4\n  iszero\n  iszero\n  mul\n  or\n  swap1\n  sstore\n  pop\n    /* \"TEXOToken.sol\":38143:38700  constructor(... */\n  callvalue\n  dup1\n  iszero\n  tag_1\n  jumpi\n  0x00\n  dup1\n  revert\ntag_1:\n  pop\n  mload(0x40)\n  sub(codesize, bytecodeSize)\n  dup1\n  bytecodeSize\n  dup4\n  codecopy\n  dup2\n  dup2\n  add\n  0x40\n  mstore\n  0xc0\n  dup2\n  lt\n  iszero\n  tag_2\n  jumpi\n  0x00\n  dup1\n  revert\ntag_2:\n  dup2\n  add\n  swap1\n  dup1\n  dup1\n  mload\n  swap1\n  0x20\n  add\n  swap1\n  swap3\n  swap2\n  swap1\n  dup1\n  mload\n  swap1\n  0x20\n  add\n  swap1\n  swap3\n  swap2\n  swap1\n  dup1\n  mload\n  swap1\n  0x20\n  add\n  swap1\n  swap3\n  swap2\n  swap1\n  dup1\n  mload\n  swap1\n  0x20\n  add\n  swap1\n  swap3\n  swap2\n  swap1\n  dup1\n  mload\n  swap1\n  0x20\n  add\n  swap1\n  swap3\n  swap2\n  swap1\n  dup1\n  mload\n  swap1\n  0x20\n  add\n  swap1\n  swap3\n  swap2\n  swap1\n  pop\n  pop\n  pop\n    /* \"TEXOToken.sol\":11248:11265  address msgSender */\n  0x00\n    /* \"TEXOToken.sol\":11268:11280  _msgSender() */\n  tag_9\n    /* \"TEXOToken.sol\":11268:11278  _msgSender */\n  shl(0x20, tag_10)\n    /* \"TEXOToken.sol\":11268:11280  _msgSender() */\n  0x20\n  shr\n  jump\t// in\ntag_9:\n    /* \"TEXOToken.sol\":11248:11280  address msgSender = _msgSender() */\n  swap1\n  pop\n    /* \"TEXOToken.sol\":11299:11308  msgSender */\n  dup1\n    /* \"TEXOToken.sol\":11290:11296  _owner */\n  0x00\n  dup1\n    /* \"TEXOToken.sol\":11290:11308  _owner = msgSender */\n  0x0100\n  exp\n  dup2\n  sload\n  dup2\n  0xffffffffffffffffffffffffffffffffffffffff\n  mul\n  not\n  and\n  swap1\n  dup4\n  0xffffffffffffffffffffffffffffffffffffffff\n  and\n  mul\n  or\n  swap1\n  sstore\n  pop\n    /* \"TEXOToken.sol\":11356:11365  msgSender */\n  dup1\n    /* \"TEXOToken.sol\":11323:11366  OwnershipTransferred(address(0), msgSender) */\n  0xffffffffffffffffffffffffffffffffffffffff\n  and\n    /* \"TEXOToken.sol\":11352:11353  0 */\n  0x00\n    /* \"TEXOToken.sol\":11323:11366  OwnershipTransferred(address(0), msgSender) */\n  0xffffffffffffffffffffffffffffffffffffffff\n  and\n  0x8be0079c531659141344cd1fd0a4f28419497f9722a3daafe3b4186f6b6457e0\n  mload(0x40)\n  mload(0x40)\n  dup1\n  swap2\n  sub\n  swap1\n  log3\n    /* \"TEXOToken.sol\":11214:11373  constructor () internal {... */\n  pop\n    /* \"TEXOToken.sol\":21153:21154  1 */\n  0x01\n    /* \"TEXOToken.sol\":21268:21275  _status */\n  dup1\n    /* \"TEXOToken.sol\":21268:21290  _status = _NOT_ENTERED */\n  dup2\n  swap1\n  sstore\n  pop\n    /* \"TEXOToken.sol\":38392:38397  _tEXO */\n  dup6\n    /* \"TEXOToken.sol\":38385:38389  tEXO */\n  0x02\n  0x00\n    /* \"TEXOToken.sol\":38385:38397  tEXO = _tEXO */\n  0x0100\n  exp\n  dup2\n  sload\n  dup2\n  0xffffffffffffffffffffffffffffffffffffffff\n  mul\n  not\n  and\n  swap1\n  dup4\n  0xffffffffffffffffffffffffffffffffffffffff\n  and\n  mul\n  or\n  swap1\n  sstore\n  pop\n    /* \"TEXOToken.sol\":38417:38425  _devAddr */\n  dup5\n    /* \"TEXOToken.sol\":38407:38414  devAddr */\n  0x03\n  0x00\n    /* \"TEXOToken.sol\":38407:38425  devAddr = _devAddr */\n  0x0100\n  exp\n  dup2\n  sload\n  dup2\n  0xffffffffffffffffffffffffffffffffffffffff\n  mul\n  not\n  and\n  swap1\n  dup4\n  0xffffffffffffffffffffffffffffffffffffffff\n  and\n  mul\n  or\n  swap1\n  sstore\n  pop\n    /* \"TEXOToken.sol\":38448:38459  _feeAddress */\n  dup4\n    /* \"TEXOToken.sol\":38435:38445  feeAddress */\n  0x05\n  0x00\n    /* \"TEXOToken.sol\":38435:38459  feeAddress = _feeAddress */\n  0x0100\n  exp\n  dup2\n  sload\n  dup2\n  0xffffffffffffffffffffffffffffffffffffffff\n  mul\n  not\n  and\n  swap1\n  dup4\n  0xffffffffffffffffffffffffffffffffffffffff\n  and\n  mul\n  or\n  swap1\n  sstore\n  pop\n    /* \"TEXOToken.sol\":36863:36873  500 finney */\n  0x06f05b59d3b20000\n    /* \"TEXOToken.sol\":38469:38481  tEXOPerBlock */\n  0x04\n    /* \"TEXOToken.sol\":38469:38505  tEXOPerBlock = INITIAL_EMISSION_RATE */\n  dup2\n  swap1\n  sstore\n  pop\n    /* \"TEXOToken.sol\":38528:38539  _startBlock */\n  dup3\n    /* \"TEXOToken.sol\":38515:38525  startBlock */\n  0x08\n    /* \"TEXOToken.sol\":38515:38539  startBlock = _startBlock */\n  dup2\n  swap1\n  sstore\n  pop\n    /* \"TEXOToken.sol\":38584:38617  _blockToStartReducingEmissionRate */\n  dup2\n    /* \"TEXOToken.sol\":38549:38581  blockToStartReducingEmissionRate */\n  0x06\n    /* \"TEXOToken.sol\":38549:38617  blockToStartReducingEmissionRate = _blockToStartReducingEmissionRate */\n  dup2\n  swap1\n  sstore\n  pop\n    /* \"TEXOToken.sol\":38664:38693  _blockToUnlockClaimingRewards */\n  dup1\n    /* \"TEXOToken.sol\":38627:38661  globalBlockToUnlockClaimingRewards */\n  0x07\n    /* \"TEXOToken.sol\":38627:38693  globalBlockToUnlockClaimingRewards = _blockToUnlockClaimingRewards */\n  dup2\n  swap1\n  sstore\n  pop\n    /* \"TEXOToken.sol\":38143:38700  constructor(... */\n  pop\n  pop\n  pop\n  pop\n  pop\n  pop\n    /* \"TEXOToken.sol\":33757:54738  contract TEXOOrchestrator is Ownable, ReentrancyGuard {... */\n  jump(tag_13)\n    /* \"TEXOToken.sol\":5955:6051  function _msgSender() internal view returns (address payable) {... */\ntag_10:\n    /* \"TEXOToken.sol\":6000:6015  address payable */\n  0x00\n    /* \"TEXOToken.sol\":6034:6044  msg.sender */\n  caller\n    /* \"TEXOToken.sol\":6027:6044  return msg.sender */\n  swap1\n  pop\n    /* \"TEXOToken.sol\":5955:6051  function _msgSender() internal view returns (address payable) {... */\n  swap1\n  jump\t// out\n    /* \"TEXOToken.sol\":33757:54738  contract TEXOOrchestrator is Ownable, ReentrancyGuard {... */\ntag_13:\n  dataSize(sub_0)\n  dup1\n  dataOffset(sub_0)\n  0x00\n  codecopy\n  0x00\n  return\nstop\n\nsub_0: assembly {\n        /* \"TEXOToken.sol\":33757:54738  contract TEXOOrchestrator is Ownable, ReentrancyGuard {... */\n      mstore(0x40, 0x80)\n      callvalue\n      dup1\n      iszero\n      tag_1\n      jumpi\n      0x00\n      dup1\n      revert\n    tag_1:\n      pop\n      jumpi(tag_2, lt(calldatasize, 0x04))\n      shr(0xe0, calldataload(0x00))\n      dup1\n      0x8705fcd4\n      gt\n      tag_51\n      jumpi\n      dup1\n      0xb51d4c80\n      gt\n      tag_52\n      jumpi\n      dup1\n      0xda09c72c\n      gt\n      tag_53\n      jumpi\n      dup1\n      0xda09c72c\n      eq\n      tag_45\n      jumpi\n      dup1\n      0xdfe3d2cd\n      eq\n      tag_46\n      jumpi\n      dup1\n      0xe2bbb158\n      eq\n      tag_47\n      jumpi\n      dup1\n      0xea76bc29\n      eq\n      tag_48\n      jumpi\n      dup1\n      0xebec9e8b\n      eq\n      tag_49\n      jumpi\n      dup1\n      0xf2fde38b\n      eq\n      tag_50\n      jumpi\n      jump(tag_2)\n    tag_53:\n      dup1\n      0xb51d4c80\n      eq\n      tag_39\n      jumpi\n      dup1\n      0xb7eee1f1\n      eq\n      tag_40\n      jumpi\n      dup1\n      0xc6df25bd\n      eq\n      tag_41\n      jumpi\n      dup1\n      0xcbd258b5\n      eq\n      tag_42\n      jumpi\n      dup1\n      0xd0d41fe1\n      eq\n      tag_43\n      jumpi\n      dup1\n      0xd4adafdf\n      eq\n      tag_44\n      jumpi\n      jump(tag_2)\n    tag_52:\n      dup1\n      0x955c9b93\n      gt\n      tag_54\n      jumpi\n      dup1\n      0x955c9b93\n      eq\n      tag_33\n      jumpi\n      dup1\n      0x9bf62f7e\n      eq\n      tag_34\n      jumpi\n      dup1\n      0xa1515333\n      eq\n      tag_35\n      jumpi\n      dup1\n      0xa1bdb15e\n      eq\n      tag_36\n      jumpi\n      dup1\n      0xae715d70\n      eq\n      tag_37\n      jumpi\n      dup1\n      0xb2a5aa2e\n      eq\n      tag_38\n      jumpi\n      jump(tag_2)\n    tag_54:\n      dup1\n      0x8705fcd4\n      eq\n      tag_27\n      jumpi\n      dup1\n      0x8da5cb5b\n      eq\n      tag_28\n      jumpi\n      dup1\n      0x8dbb1e3a\n      eq\n      tag_29\n      jumpi\n      dup1\n      0x8dbdbe6d\n      eq\n      tag_30\n      jumpi\n      dup1\n      0x91bb809c\n      eq\n      tag_31\n      jumpi\n      dup1\n      0x93f1a40b\n      eq\n      tag_32\n      jumpi\n      jump(tag_2)\n    tag_51:\n      dup1\n      0x4a3b68cc\n      gt\n      tag_55\n      jumpi\n      dup1\n      0x64ed743b\n      gt\n      tag_56\n      jumpi\n      dup1\n      0x64ed743b\n      eq\n      tag_21\n      jumpi\n      dup1\n      0x660f8340\n      eq\n      tag_22\n      jumpi\n      dup1\n      0x66f685ea\n      eq\n      tag_23\n      jumpi\n      dup1\n      0x6a9a7660\n      eq\n      tag_24\n      jumpi\n      dup1\n      0x715018a6\n      eq\n      tag_25\n      jumpi\n      dup1\n      0x80361747\n      eq\n      tag_26\n      jumpi\n      jump(tag_2)\n    tag_56:\n      dup1\n      0x4a3b68cc\n      eq\n      tag_15\n      jumpi\n      dup1\n      0x51eb05a6\n      eq\n      tag_16\n      jumpi\n      dup1\n      0x5312ea8e\n      eq\n      tag_17\n      jumpi\n      dup1\n      0x54324b58\n      eq\n      tag_18\n      jumpi\n      dup1\n      0x61e0c468\n      eq\n      tag_19\n      jumpi\n      dup1\n      0x630b5ba1\n      eq\n      tag_20\n      jumpi\n      jump(tag_2)\n    tag_55:\n      dup1\n      0x3a22df78\n      gt\n      tag_57\n      jumpi\n      dup1\n      0x3a22df78\n      eq\n      tag_9\n      jumpi\n      dup1\n      0x3b0f0f2f\n      eq\n      tag_10\n      jumpi\n      dup1\n      0x3f7b06d8\n      eq\n      tag_11\n      jumpi\n      dup1\n      0x41275358\n      eq\n      tag_12\n      jumpi\n      dup1\n      0x441a3e70\n      eq\n      tag_13\n      jumpi\n      dup1\n      0x47e3cda5\n      eq\n      tag_14\n      jumpi\n      jump(tag_2)\n    tag_57:\n      dup1\n      0x081e3eda\n      eq\n      tag_3\n      jumpi\n      dup1\n      0x1526fe27\n      eq\n      tag_4\n      jumpi\n      dup1\n      0x17caf6f1\n      eq\n      tag_5\n      jumpi\n      dup1\n      0x189d451d\n      eq\n      tag_6\n      jumpi\n      dup1\n      0x190f39f0\n      eq\n      tag_7\n      jumpi\n      dup1\n      0x1eb704b0\n      eq\n      tag_8\n      jumpi\n    tag_2:\n      0x00\n      dup1\n      revert\n        /* \"TEXOToken.sol\":38740:38833  function poolLength() external view returns (uint256) {... */\n    tag_3:\n      tag_58\n      tag_59\n      jump\t// in\n    tag_58:\n      mload(0x40)\n      dup1\n      dup3\n      dup2\n      mstore\n      0x20\n      add\n      swap2\n      pop\n      pop\n      mload(0x40)\n      dup1\n      swap2\n      sub\n      swap1\n      return\n        /* \"TEXOToken.sol\":35837:35863  PoolInfo[] public poolInfo */\n    tag_4:\n      tag_60\n      0x04\n      dup1\n      calldatasize\n      sub\n      0x20\n      dup2\n      lt\n      iszero\n      tag_61\n      jumpi\n      0x00\n      dup1\n      revert\n    tag_61:\n      dup2\n      add\n      swap1\n      dup1\n      dup1\n      calldataload\n      swap1\n      0x20\n      add\n      swap1\n      swap3\n      swap2\n      swap1\n      pop\n      pop\n      pop\n      tag_62\n      jump\t// in\n    tag_60:\n      mload(0x40)\n      dup1\n      dup8\n      0xffffffffffffffffffffffffffffffffffffffff\n      and\n      dup2\n      mstore\n      0x20\n      add\n      dup7\n      dup2\n      mstore\n      0x20\n      add\n      dup6\n      dup2\n      mstore\n      0x20\n      add\n      dup5\n      dup2\n      mstore\n      0x20\n      add\n      dup4\n      dup2\n      mstore\n      0x20\n      add\n      dup3\n      0xffff\n      and\n      dup2\n      mstore\n      0x20\n      add\n      swap7\n      pop\n      pop\n      pop\n      pop\n      pop\n      pop\n      pop\n      mload(0x40)\n      dup1\n      swap2\n      sub\n      swap1\n      return\n        /* \"TEXOToken.sol\":36074:36108  uint256 public totalAllocPoint = 0 */\n    tag_5:\n      tag_63\n      tag_64\n      jump\t// in\n    tag_63:\n      mload(0x40)\n      dup1\n      dup3\n      dup2\n      mstore\n      0x20\n      add\n      swap2\n      pop\n      pop\n      mload(0x40)\n      dup1\n      swap2\n      sub\n      swap1\n      return\n        /* \"TEXOToken.sol\":39706:40862  function add(... */\n    tag_6:\n      tag_65\n      0x04\n      dup1\n      calldatasize\n      sub\n      0xc0\n      dup2\n      lt\n      iszero\n      tag_66\n      jumpi\n      0x00\n      dup1\n      revert\n    tag_66:\n      dup2\n      add\n      swap1\n      dup1\n      dup1\n      calldataload\n      swap1\n      0x20\n      add\n      swap1\n      swap3\n      swap2\n      swap1\n      dup1\n      calldataload\n      0xffffffffffffffffffffffffffffffffffffffff\n      and\n      swap1\n      0x20\n      add\n      swap1\n      swap3\n      swap2\n      swap1\n      dup1\n      calldataload\n      0xffff\n      and\n      swap1\n      0x20\n      add\n      swap1\n      swap3\n      swap2\n      swap1\n      dup1\n      calldataload\n      iszero\n      iszero\n      swap1\n      0x20\n      add\n      swap1\n      swap3\n      swap2\n      swap1\n      dup1\n      calldataload\n      swap1\n      0x20\n      add\n      swap1\n      swap3\n      swap2\n      swap1\n      dup1\n      calldataload\n      swap1\n      0x20\n      add\n      swap1\n      swap3\n      swap2\n      swap1\n      pop\n      pop\n      pop\n      tag_67\n      jump\t// in\n    tag_65:\n      stop\n        /* \"TEXOToken.sol\":39231:39449  function getPoolIdForLpToken(IBEP20 _lpToken) external view returns (uint256) {... */\n    tag_7:\n      tag_68\n      0x04\n      dup1\n      calldatasize\n      sub\n      0x20\n      dup2\n      lt\n      iszero\n      tag_69\n      jumpi\n      0x00\n      dup1\n      revert\n    tag_69:\n      dup2\n      add\n      swap1\n      dup1\n      dup1\n      calldataload\n      0xffffffffffffffffffffffffffffffffffffffff\n      and\n      swap1\n      0x20\n      add\n      swap1\n      swap3\n      swap2\n      swap1\n      pop\n      pop\n      pop\n      tag_70\n      jump\t// in\n    tag_68:\n      mload(0x40)\n      dup1\n      dup3\n      dup2\n      mstore\n      0x20\n      add\n      swap2\n      pop\n      pop\n      mload(0x40)\n      dup1\n      swap2\n      sub\n      swap1\n      return\n        /* \"TEXOToken.sol\":38839:39031  function setBlockToStartReducingEmissionRate(uint256 _blockToStartReducingEmissionRate) external onlyOwner {... */\n    tag_8:\n      tag_71\n      0x04\n      dup1\n      calldatasize\n      sub\n      0x20\n      dup2\n      lt\n      iszero\n      tag_72\n      jumpi\n      0x00\n      dup1\n      revert\n    tag_72:\n      dup2\n      add\n      swap1\n      dup1\n      dup1\n      calldataload\n      swap1\n      0x20\n      add\n      swap1\n      swap3\n      swap2\n      swap1\n      pop\n      pop\n      pop\n      tag_73\n      jump\t// in\n    tag_71:\n      stop\n        /* \"TEXOToken.sol\":36339:36388  uint16 public constant MAXIMUM_REFERRAL_BP = 2000 */\n    tag_9:\n      tag_74\n      tag_75\n      jump\t// in\n    tag_74:\n      mload(0x40)\n      dup1\n      dup3\n      0xffff\n      and\n      dup2\n      mstore\n      0x20\n      add\n      swap2\n      pop\n      pop\n      mload(0x40)\n      dup1\n      swap2\n      sub\n      swap1\n      return\n        /* \"TEXOToken.sol\":53517:53623  function getReferral(address _user) public view returns (address) {... */\n    tag_10:\n      tag_76\n      0x04\n      dup1\n      calldatasize\n      sub\n      0x20\n      dup2\n      lt\n      iszero\n      tag_77\n      jumpi\n      0x00\n      dup1\n      revert\n    tag_77:\n      dup2\n      add\n      swap1\n      dup1\n      dup1\n      calldataload\n      0xffffffffffffffffffffffffffffffffffffffff\n      and\n      swap1\n      0x20\n      add\n      swap1\n      swap3\n      swap2\n      swap1\n      pop\n      pop\n      pop\n      tag_78\n      jump\t// in\n    tag_76:\n      mload(0x40)\n      dup1\n      dup3\n      0xffffffffffffffffffffffffffffffffffffffff\n      and\n      dup2\n      mstore\n      0x20\n      add\n      swap2\n      pop\n      pop\n      mload(0x40)\n      dup1\n      swap2\n      sub\n      swap1\n      return\n        /* \"TEXOToken.sol\":36507:36555  mapping(address => uint256) public referredCount */\n    tag_11:\n      tag_79\n      0x04\n      dup1\n      calldatasize\n      sub\n      0x20\n      dup2\n      lt\n      iszero\n      tag_80\n      jumpi\n      0x00\n      dup1\n      revert\n    tag_80:\n      dup2\n      add\n      swap1\n      dup1\n      dup1\n      calldataload\n      0xffffffffffffffffffffffffffffffffffffffff\n      and\n      swap1\n      0x20\n      add\n      swap1\n      swap3\n      swap2\n      swap1\n      pop\n      pop\n      pop\n      tag_81\n      jump\t// in\n    tag_79:\n      mload(0x40)\n      dup1\n      dup3\n      dup2\n      mstore\n      0x20\n      add\n      swap2\n      pop\n      pop\n      mload(0x40)\n      dup1\n      swap2\n      sub\n      swap1\n      return\n        /* \"TEXOToken.sol\":35559:35584  address public feeAddress */\n    tag_12:\n      tag_82\n      tag_83\n      jump\t// in\n    tag_82:\n      mload(0x40)\n      dup1\n      dup3\n      0xffffffffffffffffffffffffffffffffffffffff\n      and\n      dup2\n      mstore\n      0x20\n      add\n      swap2\n      pop\n      pop\n      mload(0x40)\n      dup1\n      swap2\n      sub\n      swap1\n      return\n        /* \"TEXOToken.sol\":48504:49460  function withdraw(uint256 _pid, uint256 _amount) public nonReentrant {... */\n    tag_13:\n      tag_84\n      0x04\n      dup1\n      calldatasize\n      sub\n      0x40\n      dup2\n      lt\n      iszero\n      tag_85\n      jumpi\n      0x00\n      dup1\n      revert\n    tag_85:\n      dup2\n      add\n      swap1\n      dup1\n      dup1\n      calldataload\n      swap1\n      0x20\n      add\n      swap1\n      swap3\n      swap2\n      swap1\n      dup1\n      calldataload\n      swap1\n      0x20\n      add\n      swap1\n      swap3\n      swap2\n      swap1\n      pop\n      pop\n      pop\n      tag_86\n      jump\t// in\n    tag_84:\n      stop\n        /* \"TEXOToken.sol\":37340:37385  bool public isAllowReduceEmissionRate = false */\n    tag_14:\n      tag_87\n      tag_88\n      jump\t// in\n    tag_87:\n      mload(0x40)\n      dup1\n      dup3\n      iszero\n      iszero\n      dup2\n      mstore\n      0x20\n      add\n      swap2\n      pop\n      pop\n      mload(0x40)\n      dup1\n      swap2\n      sub\n      swap1\n      return\n        /* \"TEXOToken.sol\":36418:36462  mapping(address => address) public referrers */\n    tag_15:\n      tag_89\n      0x04\n      dup1\n      calldatasize\n      sub\n      0x20\n      dup2\n      lt\n      iszero\n      tag_90\n      jumpi\n      0x00\n      dup1\n      revert\n    tag_90:\n      dup2\n      add\n      swap1\n      dup1\n      dup1\n      calldataload\n      0xffffffffffffffffffffffffffffffffffffffff\n      and\n      swap1\n      0x20\n      add\n      swap1\n      swap3\n      swap2\n      swap1\n      pop\n      pop\n      pop\n      tag_91\n      jump\t// in\n    tag_89:\n      mload(0x40)\n      dup1\n      dup3\n      0xffffffffffffffffffffffffffffffffffffffff\n      and\n      dup2\n      mstore\n      0x20\n      add\n      swap2\n      pop\n      pop\n      mload(0x40)\n      dup1\n      swap2\n      sub\n      swap1\n      return\n        /* \"TEXOToken.sol\":43299:44624  function updatePool(uint256 _pid) public {... */\n    tag_16:\n      tag_92\n      0x04\n      dup1\n      calldatasize\n      sub\n      0x20\n      dup2\n      lt\n      iszero\n      tag_93\n      jumpi\n      0x00\n      dup1\n      revert\n    tag_93:\n      dup2\n      add\n      swap1\n      dup1\n      dup1\n      calldataload\n      swap1\n      0x20\n      add\n      swap1\n      swap3\n      swap2\n      swap1\n      pop\n      pop\n      pop\n      tag_94\n      jump\t// in\n    tag_92:\n      stop\n        /* \"TEXOToken.sol\":49528:49930  function emergencyWithdraw(uint256 _pid) public nonReentrant {... */\n    tag_17:\n      tag_95\n      0x04\n      dup1\n      calldatasize\n      sub\n      0x20\n      dup2\n      lt\n      iszero\n      tag_96\n      jumpi\n      0x00\n      dup1\n      revert\n    tag_96:\n      dup2\n      add\n      swap1\n      dup1\n      dup1\n      calldataload\n      swap1\n      0x20\n      add\n      swap1\n      swap3\n      swap2\n      swap1\n      pop\n      pop\n      pop\n      tag_97\n      jump\t// in\n    tag_95:\n      stop\n        /* \"TEXOToken.sol\":35644:35691  uint256 public blockToStartReducingEmissionRate */\n    tag_18:\n      tag_98\n      tag_99\n      jump\t// in\n    tag_98:\n      mload(0x40)\n      dup1\n      dup3\n      dup2\n      mstore\n      0x20\n      add\n      swap2\n      pop\n      pop\n      mload(0x40)\n      dup1\n      swap2\n      sub\n      swap1\n      return\n        /* \"TEXOToken.sol\":36930:36988  uint256 public constant MINIMUM_EMISSION_RATE = 100 finney */\n    tag_19:\n      tag_100\n      tag_101\n      jump\t// in\n    tag_100:\n      mload(0x40)\n      dup1\n      dup3\n      dup2\n      mstore\n      0x20\n      add\n      swap2\n      pop\n      pop\n      mload(0x40)\n      dup1\n      swap2\n      sub\n      swap1\n      return\n        /* \"TEXOToken.sol\":43051:43226  function massUpdatePools() public {... */\n    tag_20:\n      tag_102\n      tag_103\n      jump\t// in\n    tag_102:\n      stop\n        /* \"TEXOToken.sol\":54288:54735  function updateReferralBonusBp(uint256 _newRefBonusBp) public onlyOwner {... */\n    tag_21:\n      tag_104\n      0x04\n      dup1\n      calldatasize\n      sub\n      0x20\n      dup2\n      lt\n      iszero\n      tag_105\n      jumpi\n      0x00\n      dup1\n      revert\n    tag_105:\n      dup2\n      add\n      swap1\n      dup1\n      dup1\n      calldataload\n      swap1\n      0x20\n      add\n      swap1\n      swap3\n      swap2\n      swap1\n      pop\n      pop\n      pop\n      tag_106\n      jump\t// in\n    tag_104:\n      stop\n        /* \"TEXOToken.sol\":35499:35526  uint256 public tEXOPerBlock */\n    tag_22:\n      tag_107\n      tag_108\n      jump\t// in\n    tag_107:\n      mload(0x40)\n      dup1\n      dup3\n      dup2\n      mstore\n      0x20\n      add\n      swap2\n      pop\n      pop\n      mload(0x40)\n      dup1\n      swap2\n      sub\n      swap1\n      return\n        /* \"TEXOToken.sol\":36173:36204  uint256 public refBonusBP = 100 */\n    tag_23:\n      tag_109\n      tag_110\n      jump\t// in\n    tag_109:\n      mload(0x40)\n      dup1\n      dup3\n      dup2\n      mstore\n      0x20\n      add\n      swap2\n      pop\n      pop\n      mload(0x40)\n      dup1\n      swap2\n      sub\n      swap1\n      return\n        /* \"TEXOToken.sol\":37290:37333  uint256 public lastReductionPeriodIndex = 0 */\n    tag_24:\n      tag_111\n      tag_112\n      jump\t// in\n    tag_111:\n      mload(0x40)\n      dup1\n      dup3\n      dup2\n      mstore\n      0x20\n      add\n      swap2\n      pop\n      pop\n      mload(0x40)\n      dup1\n      swap2\n      sub\n      swap1\n      return\n        /* \"TEXOToken.sol\":12072:12209  function renounceOwnership() public onlyOwner {... */\n    tag_25:\n      tag_113\n      tag_114\n      jump\t// in\n    tag_113:\n      stop\n        /* \"TEXOToken.sol\":52673:52796  function setFlagAllowReduceEmissionRate(bool isAllow) public onlyOwner {... */\n    tag_26:\n      tag_115\n      0x04\n      dup1\n      calldatasize\n      sub\n      0x20\n      dup2\n      lt\n      iszero\n      tag_116\n      jumpi\n      0x00\n      dup1\n      revert\n    tag_116:\n      dup2\n      add\n      swap1\n      dup1\n      dup1\n      calldataload\n      iszero\n      iszero\n      swap1\n      0x20\n      add\n      swap1\n      swap3\n      swap2\n      swap1\n      pop\n      pop\n      pop\n      tag_117\n      jump\t// in\n    tag_115:\n      stop\n        /* \"TEXOToken.sol\":50827:51123  function setFeeAddress(address _feeAddress) public {... */\n    tag_27:\n      tag_118\n      0x04\n      dup1\n      calldatasize\n      sub\n      0x20\n      dup2\n      lt\n      iszero\n      tag_119\n      jumpi\n      0x00\n      dup1\n      revert\n    tag_119:\n      dup2\n      add\n      swap1\n      dup1\n      dup1\n      calldataload\n      0xffffffffffffffffffffffffffffffffffffffff\n      and\n      swap1\n      0x20\n      add\n      swap1\n      swap3\n      swap2\n      swap1\n      pop\n      pop\n      pop\n      tag_120\n      jump\t// in\n    tag_118:\n      stop\n        /* \"TEXOToken.sol\":11449:11526  function owner() public view returns (address) {... */\n    tag_28:\n      tag_121\n      tag_122\n      jump\t// in\n    tag_121:\n      mload(0x40)\n      dup1\n      dup3\n      0xffffffffffffffffffffffffffffffffffffffff\n      and\n      dup2\n      mstore\n      0x20\n      add\n      swap2\n      pop\n      pop\n      mload(0x40)\n      dup1\n      swap2\n      sub\n      swap1\n      return\n        /* \"TEXOToken.sol\":41813:41932  function getMultiplier(uint256 _from, uint256 _to) public pure returns (uint256) {... */\n    tag_29:\n      tag_123\n      0x04\n      dup1\n      calldatasize\n      sub\n      0x40\n      dup2\n      lt\n      iszero\n      tag_124\n      jumpi\n      0x00\n      dup1\n      revert\n    tag_124:\n      dup2\n      add\n      swap1\n      dup1\n      dup1\n      calldataload\n      swap1\n      0x20\n      add\n      swap1\n      swap3\n      swap2\n      swap1\n      dup1\n      calldataload\n      swap1\n      0x20\n      add\n      swap1\n      swap3\n      swap2\n      swap1\n      pop\n      pop\n      pop\n      tag_125\n      jump\t// in\n    tag_123:\n      mload(0x40)\n      dup1\n      dup3\n      dup2\n      mstore\n      0x20\n      add\n      swap2\n      pop\n      pop\n      mload(0x40)\n      dup1\n      swap2\n      sub\n      swap1\n      return\n        /* \"TEXOToken.sol\":46698:48455  function deposit(uint256 _pid, uint256 _amount, address _referrer) public nonReentrant {... */\n    tag_30:\n      tag_126\n      0x04\n      dup1\n      calldatasize\n      sub\n      0x60\n      dup2\n      lt\n      iszero\n      tag_127\n      jumpi\n      0x00\n      dup1\n      revert\n    tag_127:\n      dup2\n      add\n      swap1\n      dup1\n      dup1\n      calldataload\n      swap1\n      0x20\n      add\n      swap1\n      swap3\n      swap2\n      swap1\n      dup1\n      calldataload\n      swap1\n      0x20\n      add\n      swap1\n      swap3\n      swap2\n      swap1\n      dup1\n      calldataload\n      0xffffffffffffffffffffffffffffffffffffffff\n      and\n      swap1\n      0x20\n      add\n      swap1\n      swap3\n      swap2\n      swap1\n      pop\n      pop\n      pop\n      tag_128\n      jump\t// in\n    tag_126:\n      stop\n        /* \"TEXOToken.sol\":36815:36873  uint256 public constant INITIAL_EMISSION_RATE = 500 finney */\n    tag_31:\n      tag_129\n      tag_130\n      jump\t// in\n    tag_129:\n      mload(0x40)\n      dup1\n      dup3\n      dup2\n      mstore\n      0x20\n      add\n      swap2\n      pop\n      pop\n      mload(0x40)\n      dup1\n      swap2\n      sub\n      swap1\n      return\n        /* \"TEXOToken.sol\":35917:35981  mapping(uint256 => mapping(address => UserInfo)) public userInfo */\n    tag_32:\n      tag_131\n      0x04\n      dup1\n      calldatasize\n      sub\n      0x40\n      dup2\n      lt\n      iszero\n      tag_132\n      jumpi\n      0x00\n      dup1\n      revert\n    tag_132:\n      dup2\n      add\n      swap1\n      dup1\n      dup1\n      calldataload\n      swap1\n      0x20\n      add\n      swap1\n      swap3\n      swap2\n      swap1\n      dup1\n      calldataload\n      0xffffffffffffffffffffffffffffffffffffffff\n      and\n      swap1\n      0x20\n      add\n      swap1\n      swap3\n      swap2\n      swap1\n      pop\n      pop\n      pop\n      tag_133\n      jump\t// in\n    tag_131:\n      mload(0x40)\n      dup1\n      dup5\n      dup2\n      mstore\n      0x20\n      add\n      dup4\n      dup2\n      mstore\n      0x20\n      add\n      dup3\n      iszero\n      iszero\n      dup2\n      mstore\n      0x20\n      add\n      swap4\n      pop\n      pop\n      pop\n      pop\n      mload(0x40)\n      dup1\n      swap2\n      sub\n      swap1\n      return\n        /* \"TEXOToken.sol\":36239:36291  uint16 public constant MAXIMUM_DEPOSIT_FEE_BP = 1000 */\n    tag_33:\n      tag_134\n      tag_135\n      jump\t// in\n    tag_134:\n      mload(0x40)\n      dup1\n      dup3\n      0xffff\n      and\n      dup2\n      mstore\n      0x20\n      add\n      swap2\n      pop\n      pop\n      mload(0x40)\n      dup1\n      swap2\n      sub\n      swap1\n      return\n        /* \"TEXOToken.sol\":36706:36758  mapping(IBEP20 => uint256) public poolIdForLpAddress */\n    tag_34:\n      tag_136\n      0x04\n      dup1\n      calldatasize\n      sub\n      0x20\n      dup2\n      lt\n      iszero\n      tag_137\n      jumpi\n      0x00\n      dup1\n      revert\n    tag_137:\n      dup2\n      add\n      swap1\n      dup1\n      dup1\n      calldataload\n      0xffffffffffffffffffffffffffffffffffffffff\n      and\n      swap1\n      0x20\n      add\n      swap1\n      swap3\n      swap2\n      swap1\n      pop\n      pop\n      pop\n      tag_138\n      jump\t// in\n    tag_136:\n      mload(0x40)\n      dup1\n      dup3\n      dup2\n      mstore\n      0x20\n      add\n      swap2\n      pop\n      pop\n      mload(0x40)\n      dup1\n      swap2\n      sub\n      swap1\n      return\n        /* \"TEXOToken.sol\":35698:35747  uint256 public globalBlockToUnlockClaimingRewards */\n    tag_35:\n      tag_139\n      tag_140\n      jump\t// in\n    tag_139:\n      mload(0x40)\n      dup1\n      dup3\n      dup2\n      mstore\n      0x20\n      add\n      swap2\n      pop\n      pop\n      mload(0x40)\n      dup1\n      swap2\n      sub\n      swap1\n      return\n        /* \"TEXOToken.sol\":52802:53083  function setEmissionRate(uint256 newEmissionRate) public onlyOwner {... */\n    tag_36:\n      tag_141\n      0x04\n      dup1\n      calldatasize\n      sub\n      0x20\n      dup2\n      lt\n      iszero\n      tag_142\n      jumpi\n      0x00\n      dup1\n      revert\n    tag_142:\n      dup2\n      add\n      swap1\n      dup1\n      dup1\n      calldataload\n      swap1\n      0x20\n      add\n      swap1\n      swap3\n      swap2\n      swap1\n      pop\n      pop\n      pop\n      tag_143\n      jump\t// in\n    tag_141:\n      stop\n        /* \"TEXOToken.sol\":35386:35407  TEXOToken public tEXO */\n    tag_37:\n      tag_144\n      tag_145\n      jump\t// in\n    tag_144:\n      mload(0x40)\n      dup1\n      dup3\n      0xffffffffffffffffffffffffffffffffffffffff\n      and\n      dup2\n      mstore\n      0x20\n      add\n      swap2\n      pop\n      pop\n      mload(0x40)\n      dup1\n      swap2\n      sub\n      swap1\n      return\n        /* \"TEXOToken.sol\":39037:39225  function setGlobalBlockToUnlockClaimingRewards(uint256 _blockToUnlockClaimingRewards) external onlyOwner {... */\n    tag_38:\n      tag_146\n      0x04\n      dup1\n      calldatasize\n      sub\n      0x20\n      dup2\n      lt\n      iszero\n      tag_147\n      jumpi\n      0x00\n      dup1\n      revert\n    tag_147:\n      dup2\n      add\n      swap1\n      dup1\n      dup1\n      calldataload\n      swap1\n      0x20\n      add\n      swap1\n      swap3\n      swap2\n      swap1\n      pop\n      pop\n      pop\n      tag_148\n      jump\t// in\n    tag_146:\n      stop\n        /* \"TEXOToken.sol\":44630:44812  function canWithdrawReward(uint256 _pid) public view returns (bool) {... */\n    tag_39:\n      tag_149\n      0x04\n      dup1\n      calldatasize\n      sub\n      0x20\n      dup2\n      lt\n      iszero\n      tag_150\n      jumpi\n      0x00\n      dup1\n      revert\n    tag_150:\n      dup2\n      add\n      swap1\n      dup1\n      dup1\n      calldataload\n      swap1\n      0x20\n      add\n      swap1\n      swap3\n      swap2\n      swap1\n      pop\n      pop\n      pop\n      tag_151\n      jump\t// in\n    tag_149:\n      mload(0x40)\n      dup1\n      dup3\n      iszero\n      iszero\n      dup2\n      mstore\n      0x20\n      add\n      swap2\n      pop\n      pop\n      mload(0x40)\n      dup1\n      swap2\n      sub\n      swap1\n      return\n        /* \"TEXOToken.sol\":37184:37249  uint256 public constant EMISSION_REDUCTION_RATE_PER_PERIOD = 1500 */\n    tag_40:\n      tag_152\n      tag_153\n      jump\t// in\n    tag_152:\n      mload(0x40)\n      dup1\n      dup3\n      dup2\n      mstore\n      0x20\n      add\n      swap2\n      pop\n      pop\n      mload(0x40)\n      dup1\n      swap2\n      sub\n      swap1\n      return\n        /* \"TEXOToken.sol\":40971:41740  function set(... */\n    tag_41:\n      tag_154\n      0x04\n      dup1\n      calldatasize\n      sub\n      0xa0\n      dup2\n      lt\n      iszero\n      tag_155\n      jumpi\n      0x00\n      dup1\n      revert\n    tag_155:\n      dup2\n      add\n      swap1\n      dup1\n      dup1\n      calldataload\n      swap1\n      0x20\n      add\n      swap1\n      swap3\n      swap2\n      swap1\n      dup1\n      calldataload\n      swap1\n      0x20\n      add\n      swap1\n      swap3\n      swap2\n      swap1\n      dup1\n      calldataload\n      0xffff\n      and\n      swap1\n      0x20\n      add\n      swap1\n      swap3\n      swap2\n      swap1\n      dup1\n      calldataload\n      iszero\n      iszero\n      swap1\n      0x20\n      add\n      swap1\n      swap3\n      swap2\n      swap1\n      dup1\n      calldataload\n      swap1\n      0x20\n      add\n      swap1\n      swap3\n      swap2\n      swap1\n      pop\n      pop\n      pop\n      tag_156\n      jump\t// in\n    tag_154:\n      stop\n        /* \"TEXOToken.sol\":36626:36670  mapping(IBEP20 => bool) public poolExistence */\n    tag_42:\n      tag_157\n      0x04\n      dup1\n      calldatasize\n      sub\n      0x20\n      dup2\n      lt\n      iszero\n      tag_158\n      jumpi\n      0x00\n      dup1\n      revert\n    tag_158:\n      dup2\n      add\n      swap1\n      dup1\n      dup1\n      calldataload\n      0xffffffffffffffffffffffffffffffffffffffff\n      and\n      swap1\n      0x20\n      add\n      swap1\n      swap3\n      swap2\n      swap1\n      pop\n      pop\n      pop\n      tag_159\n      jump\t// in\n    tag_157:\n      mload(0x40)\n      dup1\n      dup3\n      iszero\n      iszero\n      dup2\n      mstore\n      0x20\n      add\n      swap2\n      pop\n      pop\n      mload(0x40)\n      dup1\n      swap2\n      sub\n      swap1\n      return\n        /* \"TEXOToken.sol\":50513:50766  function setDevAddress(address _devaddr) public {... */\n    tag_43:\n      tag_160\n      0x04\n      dup1\n      calldatasize\n      sub\n      0x20\n      dup2\n      lt\n      iszero\n      tag_161\n      jumpi\n      0x00\n      dup1\n      revert\n    tag_161:\n      dup2\n      add\n      swap1\n      dup1\n      dup1\n      calldataload\n      0xffffffffffffffffffffffffffffffffffffffff\n      and\n      swap1\n      0x20\n      add\n      swap1\n      swap3\n      swap2\n      swap1\n      pop\n      pop\n      pop\n      tag_162\n      jump\t// in\n    tag_160:\n      stop\n        /* \"TEXOToken.sol\":37050:37114  uint256 public constant EMISSION_REDUCTION_PERIOD_BLOCKS = 28800 */\n    tag_44:\n      tag_163\n      tag_164\n      jump\t// in\n    tag_163:\n      mload(0x40)\n      dup1\n      dup3\n      dup2\n      mstore\n      0x20\n      add\n      swap2\n      pop\n      pop\n      mload(0x40)\n      dup1\n      swap2\n      sub\n      swap1\n      return\n        /* \"TEXOToken.sol\":35433:35455  address public devAddr */\n    tag_45:\n      tag_165\n      tag_166\n      jump\t// in\n    tag_165:\n      mload(0x40)\n      dup1\n      dup3\n      0xffffffffffffffffffffffffffffffffffffffff\n      and\n      dup2\n      mstore\n      0x20\n      add\n      swap2\n      pop\n      pop\n      mload(0x40)\n      dup1\n      swap2\n      sub\n      swap1\n      return\n        /* \"TEXOToken.sol\":41993:42971  function pendingTEXO(uint256 _pid, address _user) external view returns (uint256) {... */\n    tag_46:\n      tag_167\n      0x04\n      dup1\n      calldatasize\n      sub\n      0x40\n      dup2\n      lt\n      iszero\n      tag_168\n      jumpi\n      0x00\n      dup1\n      revert\n    tag_168:\n      dup2\n      add\n      swap1\n      dup1\n      dup1\n      calldataload\n      swap1\n      0x20\n      add\n      swap1\n      swap3\n      swap2\n      swap1\n      dup1\n      calldataload\n      0xffffffffffffffffffffffffffffffffffffffff\n      and\n      swap1\n      0x20\n      add\n      swap1\n      swap3\n      swap2\n      swap1\n      pop\n      pop\n      pop\n      tag_169\n      jump\t// in\n    tag_167:\n      mload(0x40)\n      dup1\n      dup3\n      dup2\n      mstore\n      0x20\n      add\n      swap2\n      pop\n      pop\n      mload(0x40)\n      dup1\n      swap2\n      sub\n      swap1\n      return\n        /* \"TEXOToken.sol\":45079:46618  function deposit(uint256 _pid, uint256 _amount) public nonReentrant {... */\n    tag_47:\n      tag_170\n      0x04\n      dup1\n      calldatasize\n      sub\n      0x40\n      dup2\n      lt\n      iszero\n      tag_171\n      jumpi\n      0x00\n      dup1\n      revert\n    tag_171:\n      dup2\n      add\n      swap1\n      dup1\n      dup1\n      calldataload\n      swap1\n      0x20\n      add\n      swap1\n      swap3\n      swap2\n      swap1\n      dup1\n      calldataload\n      swap1\n      0x20\n      add\n      swap1\n      swap3\n      swap2\n      swap1\n      pop\n      pop\n      pop\n      tag_172\n      jump\t// in\n    tag_170:\n      stop\n        /* \"TEXOToken.sol\":51268:52667  function reduceEmissionRateWithDefaultRate() public {... */\n    tag_48:\n      tag_173\n      tag_174\n      jump\t// in\n    tag_173:\n      stop\n        /* \"TEXOToken.sol\":44818:45013  function canGenerateTexoReward(uint256 _pid) public view returns (bool) {... */\n    tag_49:\n      tag_175\n      0x04\n      dup1\n      calldatasize\n      sub\n      0x20\n      dup2\n      lt\n      iszero\n      tag_176\n      jumpi\n      0x00\n      dup1\n      revert\n    tag_176:\n      dup2\n      add\n      swap1\n      dup1\n      dup1\n      calldataload\n      swap1\n      0x20\n      add\n      swap1\n      swap3\n      swap2\n      swap1\n      pop\n      pop\n      pop\n      tag_177\n      jump\t// in\n    tag_175:\n      mload(0x40)\n      dup1\n      dup3\n      iszero\n      iszero\n      dup2\n      mstore\n      0x20\n      add\n      swap2\n      pop\n      pop\n      mload(0x40)\n      dup1\n      swap2\n      sub\n      swap1\n      return\n        /* \"TEXOToken.sol\":12358:12465  function transferOwnership(address newOwner) public onlyOwner {... */\n    tag_50:\n      tag_178\n      0x04\n      dup1\n      calldatasize\n      sub\n      0x20\n      dup2\n      lt\n      iszero\n      tag_179\n      jumpi\n      0x00\n      dup1\n      revert\n    tag_179:\n      dup2\n      add\n      swap1\n      dup1\n      dup1\n      calldataload\n      0xffffffffffffffffffffffffffffffffffffffff\n      and\n      swap1\n      0x20\n      add\n      swap1\n      swap3\n      swap2\n      swap1\n      pop\n      pop\n      pop\n      tag_180\n      jump\t// in\n    tag_178:\n      stop\n        /* \"TEXOToken.sol\":38740:38833  function poolLength() external view returns (uint256) {... */\n    tag_59:\n        /* \"TEXOToken.sol\":38785:38792  uint256 */\n      0x00\n        /* \"TEXOToken.sol\":38811:38819  poolInfo */\n      0x09\n        /* \"TEXOToken.sol\":38811:38826  poolInfo.length */\n      dup1\n      sload\n      swap1\n      pop\n        /* \"TEXOToken.sol\":38804:38826  return poolInfo.length */\n      swap1\n      pop\n        /* \"TEXOToken.sol\":38740:38833  function poolLength() external view returns (uint256) {... */\n      swap1\n      jump\t// out\n        /* \"TEXOToken.sol\":35837:35863  PoolInfo[] public poolInfo */\n    tag_62:\n      0x09\n      dup2\n      dup2\n      sload\n      dup2\n      lt\n      tag_182\n      jumpi\n      invalid\n    tag_182:\n      swap1\n      0x00\n      mstore\n      keccak256(0x00, 0x20)\n      swap1\n      0x06\n      mul\n      add\n      0x00\n      swap2\n      pop\n      swap1\n      pop\n      dup1\n      0x00\n      add\n      0x00\n      swap1\n      sload\n      swap1\n      0x0100\n      exp\n      swap1\n      div\n      0xffffffffffffffffffffffffffffffffffffffff\n      and\n      swap1\n      dup1\n      0x01\n      add\n      sload\n      swap1\n      dup1\n      0x02\n      add\n      sload\n      swap1\n      dup1\n      0x03\n      add\n      sload\n      swap1\n      dup1\n      0x04\n      add\n      sload\n      swap1\n      dup1\n      0x05\n      add\n      0x00\n      swap1\n      sload\n      swap1\n      0x0100\n      exp\n      swap1\n      div\n      0xffff\n      and\n      swap1\n      pop\n      dup7\n      jump\t// out\n        /* \"TEXOToken.sol\":36074:36108  uint256 public totalAllocPoint = 0 */\n    tag_64:\n      sload(0x0b)\n      dup2\n      jump\t// out\n        /* \"TEXOToken.sol\":39706:40862  function add(... */\n    tag_67:\n        /* \"TEXOToken.sol\":11663:11675  _msgSender() */\n      tag_185\n        /* \"TEXOToken.sol\":11663:11673  _msgSender */\n      tag_186\n        /* \"TEXOToken.sol\":11663:11675  _msgSender() */\n      jump\t// in\n    tag_185:\n        /* \"TEXOToken.sol\":11653:11675  _owner == _msgSender() */\n      0xffffffffffffffffffffffffffffffffffffffff\n      and\n        /* \"TEXOToken.sol\":11653:11659  _owner */\n      0x00\n      dup1\n      sload\n      swap1\n      0x0100\n      exp\n      swap1\n      div\n      0xffffffffffffffffffffffffffffffffffffffff\n      and\n        /* \"TEXOToken.sol\":11653:11675  _owner == _msgSender() */\n      0xffffffffffffffffffffffffffffffffffffffff\n      and\n      eq\n        /* \"TEXOToken.sol\":11645:11712  require(_owner == _msgSender(), \"Ownable: caller is not the owner\") */\n      tag_187\n      jumpi\n      mload(0x40)\n      0x08c379a000000000000000000000000000000000000000000000000000000000\n      dup2\n      mstore\n      0x04\n      add\n      dup1\n      dup1\n      0x20\n      add\n      dup3\n      dup2\n      sub\n      dup3\n      mstore\n      0x20\n      dup2\n      mstore\n      0x20\n      add\n      dup1\n      0x4f776e61626c653a2063616c6c6572206973206e6f7420746865206f776e6572\n      dup2\n      mstore\n      pop\n      0x20\n      add\n      swap2\n      pop\n      pop\n      mload(0x40)\n      dup1\n      swap2\n      sub\n      swap1\n      revert\n    tag_187:\n        /* \"TEXOToken.sol\":39948:39956  _lpToken */\n      dup5\n        /* \"TEXOToken.sol\":39581:39586  false */\n      0x00\n        /* \"TEXOToken.sol\":39554:39586  poolExistence[_lpToken] == false */\n      iszero\n      iszero\n        /* \"TEXOToken.sol\":39554:39567  poolExistence */\n      0x0f\n        /* \"TEXOToken.sol\":39554:39577  poolExistence[_lpToken] */\n      0x00\n        /* \"TEXOToken.sol\":39568:39576  _lpToken */\n      dup4\n        /* \"TEXOToken.sol\":39554:39577  poolExistence[_lpToken] */\n      0xffffffffffffffffffffffffffffffffffffffff\n      and\n      0xffffffffffffffffffffffffffffffffffffffff\n      and\n      dup2\n      mstore\n      0x20\n      add\n      swap1\n      dup2\n      mstore\n      0x20\n      add\n      0x00\n      keccak256\n      0x00\n      swap1\n      sload\n      swap1\n      0x0100\n      exp\n      swap1\n      div\n      0xff\n      and\n        /* \"TEXOToken.sol\":39554:39586  poolExistence[_lpToken] == false */\n      iszero\n      iszero\n      eq\n        /* \"TEXOToken.sol\":39546:39616  require(poolExistence[_lpToken] == false, \"nonDuplicated: duplicated\") */\n      tag_189\n      jumpi\n      mload(0x40)\n      0x08c379a000000000000000000000000000000000000000000000000000000000\n      dup2\n      mstore\n      0x04\n      add\n      dup1\n      dup1\n      0x20\n      add\n      dup3\n      dup2\n      sub\n      dup3\n      mstore\n      0x19\n      dup2\n      mstore\n      0x20\n      add\n      dup1\n      0x6e6f6e4475706c6963617465643a206475706c69636174656400000000000000\n      dup2\n      mstore\n      pop\n      0x20\n      add\n      swap2\n      pop\n      pop\n      mload(0x40)\n      dup1\n      swap2\n      sub\n      swap1\n      revert\n    tag_189:\n        /* \"TEXOToken.sol\":36287:36291  1000 */\n      0x03e8\n        /* \"TEXOToken.sol\":39976:40015  _depositFeeBP <= MAXIMUM_DEPOSIT_FEE_BP */\n      0xffff\n      and\n        /* \"TEXOToken.sol\":39976:39989  _depositFeeBP */\n      dup6\n        /* \"TEXOToken.sol\":39976:40015  _depositFeeBP <= MAXIMUM_DEPOSIT_FEE_BP */\n      0xffff\n      and\n      gt\n      iszero\n        /* \"TEXOToken.sol\":39968:40057  require(_depositFeeBP <= MAXIMUM_DEPOSIT_FEE_BP, \"add: invalid deposit fee basis points\") */\n      tag_191\n      jumpi\n      mload(0x40)\n      0x08c379a000000000000000000000000000000000000000000000000000000000\n      dup2\n      mstore\n      0x04\n      add\n      dup1\n      dup1\n      0x20\n      add\n      dup3\n      dup2\n      sub\n      dup3\n      mstore\n      0x25\n      dup2\n      mstore\n      0x20\n      add\n      dup1\n      data_0ecf01aeb804f0ae223eada9d16893a9009cdcbe208d348705dc613f9a9f5331\n      0x25\n      swap2\n      codecopy\n      0x40\n      add\n      swap2\n      pop\n      pop\n      mload(0x40)\n      dup1\n      swap2\n      sub\n      swap1\n      revert\n    tag_191:\n        /* \"TEXOToken.sol\":40072:40083  _withUpdate */\n      dup4\n        /* \"TEXOToken.sol\":40068:40127  if (_withUpdate) {... */\n      iszero\n      tag_192\n      jumpi\n        /* \"TEXOToken.sol\":40099:40116  massUpdatePools() */\n      tag_193\n        /* \"TEXOToken.sol\":40099:40114  massUpdatePools */\n      tag_103\n        /* \"TEXOToken.sol\":40099:40116  massUpdatePools() */\n      jump\t// in\n    tag_193:\n        /* \"TEXOToken.sol\":40068:40127  if (_withUpdate) {... */\n    tag_192:\n        /* \"TEXOToken.sol\":40137:40165  uint256 blockToReceiveReward */\n      0x00\n        /* \"TEXOToken.sol\":40192:40193  0 */\n      dup1\n        /* \"TEXOToken.sol\":40168:40189  _blockToReceiveReward */\n      dup5\n        /* \"TEXOToken.sol\":40168:40193  _blockToReceiveReward > 0 */\n      gt\n        /* \"TEXOToken.sol\":40168:40254  _blockToReceiveReward > 0 ? _blockToReceiveReward : globalBlockToUnlockClaimingRewards */\n      tag_194\n      jumpi\n        /* \"TEXOToken.sol\":40220:40254  globalBlockToUnlockClaimingRewards */\n      sload(0x07)\n        /* \"TEXOToken.sol\":40168:40254  _blockToReceiveReward > 0 ? _blockToReceiveReward : globalBlockToUnlockClaimingRewards */\n      jump(tag_195)\n    tag_194:\n        /* \"TEXOToken.sol\":40196:40217  _blockToReceiveReward */\n      dup4\n        /* \"TEXOToken.sol\":40168:40254  _blockToReceiveReward > 0 ? _blockToReceiveReward : globalBlockToUnlockClaimingRewards */\n    tag_195:\n        /* \"TEXOToken.sol\":40137:40254  uint256 blockToReceiveReward = _blockToReceiveReward > 0 ? _blockToReceiveReward : globalBlockToUnlockClaimingRewards */\n      swap1\n      pop\n        /* \"TEXOToken.sol\":40283:40315  totalAllocPoint.add(_allocPoint) */\n      tag_196\n        /* \"TEXOToken.sol\":40303:40314  _allocPoint */\n      dup9\n        /* \"TEXOToken.sol\":40283:40298  totalAllocPoint */\n      sload(0x0b)\n        /* \"TEXOToken.sol\":40283:40302  totalAllocPoint.add */\n      tag_197\n      swap1\n        /* \"TEXOToken.sol\":40283:40315  totalAllocPoint.add(_allocPoint) */\n      swap2\n      swap1\n      0xffffffff\n      and\n      jump\t// in\n    tag_196:\n        /* \"TEXOToken.sol\":40265:40280  totalAllocPoint */\n      0x0b\n        /* \"TEXOToken.sol\":40265:40315  totalAllocPoint = totalAllocPoint.add(_allocPoint) */\n      dup2\n      swap1\n      sstore\n      pop\n        /* \"TEXOToken.sol\":40351:40355  true */\n      0x01\n        /* \"TEXOToken.sol\":40325:40338  poolExistence */\n      0x0f\n        /* \"TEXOToken.sol\":40325:40348  poolExistence[_lpToken] */\n      0x00\n        /* \"TEXOToken.sol\":40339:40347  _lpToken */\n      dup10\n        /* \"TEXOToken.sol\":40325:40348  poolExistence[_lpToken] */\n      0xffffffffffffffffffffffffffffffffffffffff\n      and\n      0xffffffffffffffffffffffffffffffffffffffff\n      and\n      dup2\n      mstore\n      0x20\n      add\n      swap1\n      dup2\n      mstore\n      0x20\n      add\n      0x00\n      keccak256\n      0x00\n        /* \"TEXOToken.sol\":40325:40355  poolExistence[_lpToken] = true */\n      0x0100\n      exp\n      dup2\n      sload\n      dup2\n      0xff\n      mul\n      not\n      and\n      swap1\n      dup4\n      iszero\n      iszero\n      mul\n      or\n      swap1\n      sstore\n      pop\n        /* \"TEXOToken.sol\":40366:40374  poolInfo */\n      0x09\n        /* \"TEXOToken.sol\":40393:40784  PoolInfo({... */\n      mload(0x40)\n      dup1\n      0xc0\n      add\n      0x40\n      mstore\n      dup1\n        /* \"TEXOToken.sol\":40429:40437  _lpToken */\n      dup10\n        /* \"TEXOToken.sol\":40393:40784  PoolInfo({... */\n      0xffffffffffffffffffffffffffffffffffffffff\n      and\n      dup2\n      mstore\n      0x20\n      add\n        /* \"TEXOToken.sol\":40467:40478  _allocPoint */\n      dup11\n        /* \"TEXOToken.sol\":40393:40784  PoolInfo({... */\n      dup2\n      mstore\n      0x20\n      add\n        /* \"TEXOToken.sol\":40749:40769  blockToReceiveReward */\n      dup4\n        /* \"TEXOToken.sol\":40393:40784  PoolInfo({... */\n      dup2\n      mstore\n      0x20\n      add\n        /* \"TEXOToken.sol\":40541:40542  0 */\n      0x00\n        /* \"TEXOToken.sol\":40513:40538  _startGenerateRewardBlock */\n      dup7\n        /* \"TEXOToken.sol\":40513:40542  _startGenerateRewardBlock > 0 */\n      gt\n        /* \"TEXOToken.sol\":40513:40628  _startGenerateRewardBlock > 0 ? _startGenerateRewardBlock : (block.number > startBlock ? block.number : startBlock) */\n      tag_198\n      jumpi\n        /* \"TEXOToken.sol\":40589:40599  startBlock */\n      sload(0x08)\n        /* \"TEXOToken.sol\":40574:40586  block.number */\n      number\n        /* \"TEXOToken.sol\":40574:40599  block.number > startBlock */\n      gt\n        /* \"TEXOToken.sol\":40574:40627  block.number > startBlock ? block.number : startBlock */\n      tag_199\n      jumpi\n        /* \"TEXOToken.sol\":40617:40627  startBlock */\n      sload(0x08)\n        /* \"TEXOToken.sol\":40574:40627  block.number > startBlock ? block.number : startBlock */\n      jump(tag_200)\n    tag_199:\n        /* \"TEXOToken.sol\":40602:40614  block.number */\n      number\n        /* \"TEXOToken.sol\":40574:40627  block.number > startBlock ? block.number : startBlock */\n    tag_200:\n        /* \"TEXOToken.sol\":40513:40628  _startGenerateRewardBlock > 0 ? _startGenerateRewardBlock : (block.number > startBlock ? block.number : startBlock) */\n      jump(tag_201)\n    tag_198:\n        /* \"TEXOToken.sol\":40545:40570  _startGenerateRewardBlock */\n      dup6\n        /* \"TEXOToken.sol\":40513:40628  _startGenerateRewardBlock > 0 ? _startGenerateRewardBlock : (block.number > startBlock ? block.number : startBlock) */\n    tag_201:\n        /* \"TEXOToken.sol\":40393:40784  PoolInfo({... */\n      dup2\n      mstore\n      0x20\n      add\n        /* \"TEXOToken.sol\":40663:40664  0 */\n      0x00\n        /* \"TEXOToken.sol\":40393:40784  PoolInfo({... */\n      dup2\n      mstore\n      0x20\n      add\n        /* \"TEXOToken.sol\":40696:40709  _depositFeeBP */\n      dup9\n        /* \"TEXOToken.sol\":40393:40784  PoolInfo({... */\n      0xffff\n      and\n      dup2\n      mstore\n      pop\n        /* \"TEXOToken.sol\":40366:40794  poolInfo.push(... */\n      swap1\n      dup1\n      0x01\n      dup2\n      sload\n      add\n      dup1\n      dup3\n      sstore\n      dup1\n      swap2\n      pop\n      pop\n      0x01\n      swap1\n      sub\n      swap1\n      0x00\n      mstore\n      keccak256(0x00, 0x20)\n      swap1\n      0x06\n      mul\n      add\n      0x00\n      swap1\n      swap2\n      swap1\n      swap2\n      swap1\n      swap2\n      pop\n      0x00\n      dup3\n      add\n      mload\n      dup2\n      0x00\n      add\n      exp(0x0100, 0x00)\n      dup2\n      sload\n      dup2\n      0xffffffffffffffffffffffffffffffffffffffff\n      mul\n      not\n      and\n      swap1\n      dup4\n      0xffffffffffffffffffffffffffffffffffffffff\n      and\n      mul\n      or\n      swap1\n      sstore\n      pop\n      0x20\n      dup3\n      add\n      mload\n      dup2\n      0x01\n      add\n      sstore\n      0x40\n      dup3\n      add\n      mload\n      dup2\n      0x02\n      add\n      sstore\n      0x60\n      dup3\n      add\n      mload\n      dup2\n      0x03\n      add\n      sstore\n      0x80\n      dup3\n      add\n      mload\n      dup2\n      0x04\n      add\n      sstore\n      0xa0\n      dup3\n      add\n      mload\n      dup2\n      0x05\n      add\n      exp(0x0100, 0x00)\n      dup2\n      sload\n      dup2\n      0xffff\n      mul\n      not\n      and\n      swap1\n      dup4\n      0xffff\n      and\n      mul\n      or\n      swap1\n      sstore\n      pop\n      pop\n      pop\n        /* \"TEXOToken.sol\":40854:40855  1 */\n      0x01\n        /* \"TEXOToken.sol\":40836:40844  poolInfo */\n      0x09\n        /* \"TEXOToken.sol\":40836:40851  poolInfo.length */\n      dup1\n      sload\n      swap1\n      pop\n        /* \"TEXOToken.sol\":40836:40855  poolInfo.length - 1 */\n      sub\n        /* \"TEXOToken.sol\":40805:40823  poolIdForLpAddress */\n      0x10\n        /* \"TEXOToken.sol\":40805:40833  poolIdForLpAddress[_lpToken] */\n      0x00\n        /* \"TEXOToken.sol\":40824:40832  _lpToken */\n      dup10\n        /* \"TEXOToken.sol\":40805:40833  poolIdForLpAddress[_lpToken] */\n      0xffffffffffffffffffffffffffffffffffffffff\n      and\n      0xffffffffffffffffffffffffffffffffffffffff\n      and\n      dup2\n      mstore\n      0x20\n      add\n      swap1\n      dup2\n      mstore\n      0x20\n      add\n      0x00\n      keccak256\n        /* \"TEXOToken.sol\":40805:40855  poolIdForLpAddress[_lpToken] = poolInfo.length - 1 */\n      dup2\n      swap1\n      sstore\n      pop\n        /* \"TEXOToken.sol\":39626:39627  _ */\n      pop\n        /* \"TEXOToken.sol\":11722:11723  _ */\n      pop\n        /* \"TEXOToken.sol\":39706:40862  function add(... */\n      pop\n      pop\n      pop\n      pop\n      pop\n      pop\n      jump\t// out\n        /* \"TEXOToken.sol\":39231:39449  function getPoolIdForLpToken(IBEP20 _lpToken) external view returns (uint256) {... */\n    tag_70:\n        /* \"TEXOToken.sol\":39300:39307  uint256 */\n      0x00\n        /* \"TEXOToken.sol\":39354:39359  false */\n      dup1\n        /* \"TEXOToken.sol\":39327:39359  poolExistence[_lpToken] != false */\n      iszero\n      iszero\n        /* \"TEXOToken.sol\":39327:39340  poolExistence */\n      0x0f\n        /* \"TEXOToken.sol\":39327:39350  poolExistence[_lpToken] */\n      0x00\n        /* \"TEXOToken.sol\":39341:39349  _lpToken */\n      dup5\n        /* \"TEXOToken.sol\":39327:39350  poolExistence[_lpToken] */\n      0xffffffffffffffffffffffffffffffffffffffff\n      and\n      0xffffffffffffffffffffffffffffffffffffffff\n      and\n      dup2\n      mstore\n      0x20\n      add\n      swap1\n      dup2\n      mstore\n      0x20\n      add\n      0x00\n      keccak256\n      0x00\n      swap1\n      sload\n      swap1\n      0x0100\n      exp\n      swap1\n      div\n      0xff\n      and\n        /* \"TEXOToken.sol\":39327:39359  poolExistence[_lpToken] != false */\n      iszero\n      iszero\n      eq\n      iszero\n        /* \"TEXOToken.sol\":39319:39397  require(poolExistence[_lpToken] != false, \"getPoolIdForLpToken: do not exist\") */\n      tag_204\n      jumpi\n      mload(0x40)\n      0x08c379a000000000000000000000000000000000000000000000000000000000\n      dup2\n      mstore\n      0x04\n      add\n      dup1\n      dup1\n      0x20\n      add\n      dup3\n      dup2\n      sub\n      dup3\n      mstore\n      0x21\n      dup2\n      mstore\n      0x20\n      add\n      dup1\n      data_bf35de78f3e15a98c58afdc189c393a6a76029783bd8ecfd3a8b87b4a628fd85\n      0x21\n      swap2\n      codecopy\n      0x40\n      add\n      swap2\n      pop\n      pop\n      mload(0x40)\n      dup1\n      swap2\n      sub\n      swap1\n      revert\n    tag_204:\n        /* \"TEXOToken.sol\":39414:39432  poolIdForLpAddress */\n      0x10\n        /* \"TEXOToken.sol\":39414:39442  poolIdForLpAddress[_lpToken] */\n      0x00\n        /* \"TEXOToken.sol\":39433:39441  _lpToken */\n      dup4\n        /* \"TEXOToken.sol\":39414:39442  poolIdForLpAddress[_lpToken] */\n      0xffffffffffffffffffffffffffffffffffffffff\n      and\n      0xffffffffffffffffffffffffffffffffffffffff\n      and\n      dup2\n      mstore\n      0x20\n      add\n      swap1\n      dup2\n      mstore\n      0x20\n      add\n      0x00\n      keccak256\n      sload\n        /* \"TEXOToken.sol\":39407:39442  return poolIdForLpAddress[_lpToken] */\n      swap1\n      pop\n        /* \"TEXOToken.sol\":39231:39449  function getPoolIdForLpToken(IBEP20 _lpToken) external view returns (uint256) {... */\n      swap2\n      swap1\n      pop\n      jump\t// out\n        /* \"TEXOToken.sol\":38839:39031  function setBlockToStartReducingEmissionRate(uint256 _blockToStartReducingEmissionRate) external onlyOwner {... */\n    tag_73:\n        /* \"TEXOToken.sol\":11663:11675  _msgSender() */\n      tag_206\n        /* \"TEXOToken.sol\":11663:11673  _msgSender */\n      tag_186\n        /* \"TEXOToken.sol\":11663:11675  _msgSender() */\n      jump\t// in\n    tag_206:\n        /* \"TEXOToken.sol\":11653:11675  _owner == _msgSender() */\n      0xffffffffffffffffffffffffffffffffffffffff\n      and\n        /* \"TEXOToken.sol\":11653:11659  _owner */\n      0x00\n      dup1\n      sload\n      swap1\n      0x0100\n      exp\n      swap1\n      div\n      0xffffffffffffffffffffffffffffffffffffffff\n      and\n        /* \"TEXOToken.sol\":11653:11675  _owner == _msgSender() */\n      0xffffffffffffffffffffffffffffffffffffffff\n      and\n      eq\n        /* \"TEXOToken.sol\":11645:11712  require(_owner == _msgSender(), \"Ownable: caller is not the owner\") */\n      tag_207\n      jumpi\n      mload(0x40)\n      0x08c379a000000000000000000000000000000000000000000000000000000000\n      dup2\n      mstore\n      0x04\n      add\n      dup1\n      dup1\n      0x20\n      add\n      dup3\n      dup2\n      sub\n      dup3\n      mstore\n      0x20\n      dup2\n      mstore\n      0x20\n      add\n      dup1\n      0x4f776e61626c653a2063616c6c6572206973206e6f7420746865206f776e6572\n      dup2\n      mstore\n      pop\n      0x20\n      add\n      swap2\n      pop\n      pop\n      mload(0x40)\n      dup1\n      swap2\n      sub\n      swap1\n      revert\n    tag_207:\n        /* \"TEXOToken.sol\":38991:39024  _blockToStartReducingEmissionRate */\n      dup1\n        /* \"TEXOToken.sol\":38956:38988  blockToStartReducingEmissionRate */\n      0x06\n        /* \"TEXOToken.sol\":38956:39024  blockToStartReducingEmissionRate = _blockToStartReducingEmissionRate */\n      dup2\n      swap1\n      sstore\n      pop\n        /* \"TEXOToken.sol\":38839:39031  function setBlockToStartReducingEmissionRate(uint256 _blockToStartReducingEmissionRate) external onlyOwner {... */\n      pop\n      jump\t// out\n        /* \"TEXOToken.sol\":36339:36388  uint16 public constant MAXIMUM_REFERRAL_BP = 2000 */\n    tag_75:\n        /* \"TEXOToken.sol\":36384:36388  2000 */\n      0x07d0\n        /* \"TEXOToken.sol\":36339:36388  uint16 public constant MAXIMUM_REFERRAL_BP = 2000 */\n      dup2\n      jump\t// out\n        /* \"TEXOToken.sol\":53517:53623  function getReferral(address _user) public view returns (address) {... */\n    tag_78:\n        /* \"TEXOToken.sol\":53574:53581  address */\n      0x00\n        /* \"TEXOToken.sol\":53600:53609  referrers */\n      0x0d\n        /* \"TEXOToken.sol\":53600:53616  referrers[_user] */\n      0x00\n        /* \"TEXOToken.sol\":53610:53615  _user */\n      dup4\n        /* \"TEXOToken.sol\":53600:53616  referrers[_user] */\n      0xffffffffffffffffffffffffffffffffffffffff\n      and\n      0xffffffffffffffffffffffffffffffffffffffff\n      and\n      dup2\n      mstore\n      0x20\n      add\n      swap1\n      dup2\n      mstore\n      0x20\n      add\n      0x00\n      keccak256\n      0x00\n      swap1\n      sload\n      swap1\n      0x0100\n      exp\n      swap1\n      div\n      0xffffffffffffffffffffffffffffffffffffffff\n      and\n        /* \"TEXOToken.sol\":53593:53616  return referrers[_user] */\n      swap1\n      pop\n        /* \"TEXOToken.sol\":53517:53623  function getReferral(address _user) public view returns (address) {... */\n      swap2\n      swap1\n      pop\n      jump\t// out\n        /* \"TEXOToken.sol\":36507:36555  mapping(address => uint256) public referredCount */\n    tag_81:\n      mstore(0x20, 0x0e)\n      dup1\n      0x00\n      mstore\n      keccak256(0x00, 0x40)\n      0x00\n      swap2\n      pop\n      swap1\n      pop\n      sload\n      dup2\n      jump\t// out\n        /* \"TEXOToken.sol\":35559:35584  address public feeAddress */\n    tag_83:\n      0x05\n      0x00\n      swap1\n      sload\n      swap1\n      0x0100\n      exp\n      swap1\n      div\n      0xffffffffffffffffffffffffffffffffffffffff\n      and\n      dup2\n      jump\t// out\n        /* \"TEXOToken.sol\":48504:49460  function withdraw(uint256 _pid, uint256 _amount) public nonReentrant {... */\n    tag_86:\n        /* \"TEXOToken.sol\":21196:21197  2 */\n      0x02\n        /* \"TEXOToken.sol\":21785:21792  _status */\n      sload(0x01)\n        /* \"TEXOToken.sol\":21785:21804  _status != _ENTERED */\n      eq\n      iszero\n        /* \"TEXOToken.sol\":21777:21840  require(_status != _ENTERED, \"ReentrancyGuard: reentrant call\") */\n      tag_211\n      jumpi\n      mload(0x40)\n      0x08c379a000000000000000000000000000000000000000000000000000000000\n      dup2\n      mstore\n      0x04\n      add\n      dup1\n      dup1\n      0x20\n      add\n      dup3\n      dup2\n      sub\n      dup3\n      mstore\n      0x1f\n      dup2\n      mstore\n      0x20\n      add\n      dup1\n      0x5265656e7472616e637947756172643a207265656e7472616e742063616c6c00\n      dup2\n      mstore\n      pop\n      0x20\n      add\n      swap2\n      pop\n      pop\n      mload(0x40)\n      dup1\n      swap2\n      sub\n      swap1\n      revert\n    tag_211:\n        /* \"TEXOToken.sol\":21196:21197  2 */\n      0x02\n        /* \"TEXOToken.sol\":21915:21922  _status */\n      0x01\n        /* \"TEXOToken.sol\":21915:21933  _status = _ENTERED */\n      dup2\n      swap1\n      sstore\n      pop\n        /* \"TEXOToken.sol\":48583:48604  PoolInfo storage pool */\n      0x00\n        /* \"TEXOToken.sol\":48607:48615  poolInfo */\n      0x09\n        /* \"TEXOToken.sol\":48616:48620  _pid */\n      dup4\n        /* \"TEXOToken.sol\":48607:48621  poolInfo[_pid] */\n      dup2\n      sload\n      dup2\n      lt\n      tag_213\n      jumpi\n      invalid\n    tag_213:\n      swap1\n      0x00\n      mstore\n      keccak256(0x00, 0x20)\n      swap1\n      0x06\n      mul\n      add\n        /* \"TEXOToken.sol\":48583:48621  PoolInfo storage pool = poolInfo[_pid] */\n      swap1\n      pop\n        /* \"TEXOToken.sol\":48631:48652  UserInfo storage user */\n      0x00\n        /* \"TEXOToken.sol\":48655:48663  userInfo */\n      0x0a\n        /* \"TEXOToken.sol\":48655:48669  userInfo[_pid] */\n      0x00\n        /* \"TEXOToken.sol\":48664:48668  _pid */\n      dup6\n        /* \"TEXOToken.sol\":48655:48669  userInfo[_pid] */\n      dup2\n      mstore\n      0x20\n      add\n      swap1\n      dup2\n      mstore\n      0x20\n      add\n      0x00\n      keccak256\n        /* \"TEXOToken.sol\":48655:48681  userInfo[_pid][msg.sender] */\n      0x00\n        /* \"TEXOToken.sol\":48670:48680  msg.sender */\n      caller\n        /* \"TEXOToken.sol\":48655:48681  userInfo[_pid][msg.sender] */\n      0xffffffffffffffffffffffffffffffffffffffff\n      and\n      0xffffffffffffffffffffffffffffffffffffffff\n      and\n      dup2\n      mstore\n      0x20\n      add\n      swap1\n      dup2\n      mstore\n      0x20\n      add\n      0x00\n      keccak256\n        /* \"TEXOToken.sol\":48631:48681  UserInfo storage user = userInfo[_pid][msg.sender] */\n      swap1\n      pop\n        /* \"TEXOToken.sol\":48715:48722  _amount */\n      dup3\n        /* \"TEXOToken.sol\":48700:48704  user */\n      dup2\n        /* \"TEXOToken.sol\":48700:48711  user.amount */\n      0x00\n      add\n      sload\n        /* \"TEXOToken.sol\":48700:48722  user.amount >= _amount */\n      lt\n      iszero\n        /* \"TEXOToken.sol\":48692:48745  require(user.amount >= _amount, \"withdraw: not good\") */\n      tag_215\n      jumpi\n      mload(0x40)\n      0x08c379a000000000000000000000000000000000000000000000000000000000\n      dup2\n      mstore\n      0x04\n      add\n      dup1\n      dup1\n      0x20\n      add\n      dup3\n      dup2\n      sub\n      dup3\n      mstore\n      0x12\n      dup2\n      mstore\n      0x20\n      add\n      dup1\n      0x77697468647261773a206e6f7420676f6f640000000000000000000000000000\n      dup2\n      mstore\n      pop\n      0x20\n      add\n      swap2\n      pop\n      pop\n      mload(0x40)\n      dup1\n      swap2\n      sub\n      swap1\n      revert\n    tag_215:\n        /* \"TEXOToken.sol\":48756:48772  updatePool(_pid) */\n      tag_216\n        /* \"TEXOToken.sol\":48767:48771  _pid */\n      dup5\n        /* \"TEXOToken.sol\":48756:48766  updatePool */\n      tag_94\n        /* \"TEXOToken.sol\":48756:48772  updatePool(_pid) */\n      jump\t// in\n    tag_216:\n        /* \"TEXOToken.sol\":48783:48803  bool canWithdrawTEXO */\n      0x00\n        /* \"TEXOToken.sol\":48806:48829  canWithdrawReward(_pid) */\n      tag_217\n        /* \"TEXOToken.sol\":48824:48828  _pid */\n      dup6\n        /* \"TEXOToken.sol\":48806:48823  canWithdrawReward */\n      tag_151\n        /* \"TEXOToken.sol\":48806:48829  canWithdrawReward(_pid) */\n      jump\t// in\n    tag_217:\n        /* \"TEXOToken.sol\":48783:48829  bool canWithdrawTEXO = canWithdrawReward(_pid) */\n      swap1\n      pop\n        /* \"TEXOToken.sol\":48840:48855  uint256 pending */\n      0x00\n        /* \"TEXOToken.sol\":48858:48965  user.amount... */\n      tag_218\n        /* \"TEXOToken.sol\":48949:48953  user */\n      dup4\n        /* \"TEXOToken.sol\":48949:48964  user.rewardDebt */\n      0x01\n      add\n      sload\n        /* \"TEXOToken.sol\":48858:48931  user.amount... */\n      tag_219\n        /* \"TEXOToken.sol\":48926:48930  1e12 */\n      0xe8d4a51000\n        /* \"TEXOToken.sol\":48858:48908  user.amount... */\n      tag_220\n        /* \"TEXOToken.sol\":48887:48891  pool */\n      dup9\n        /* \"TEXOToken.sol\":48887:48907  pool.accTEXOPerShare */\n      0x04\n      add\n      sload\n        /* \"TEXOToken.sol\":48858:48862  user */\n      dup9\n        /* \"TEXOToken.sol\":48858:48869  user.amount */\n      0x00\n      add\n      sload\n        /* \"TEXOToken.sol\":48858:48886  user.amount... */\n      tag_221\n      swap1\n        /* \"TEXOToken.sol\":48858:48908  user.amount... */\n      swap2\n      swap1\n      0xffffffff\n      and\n      jump\t// in\n    tag_220:\n        /* \"TEXOToken.sol\":48858:48925  user.amount... */\n      tag_222\n      swap1\n        /* \"TEXOToken.sol\":48858:48931  user.amount... */\n      swap2\n      swap1\n      0xffffffff\n      and\n      jump\t// in\n    tag_219:\n        /* \"TEXOToken.sol\":48858:48948  user.amount... */\n      tag_223\n      swap1\n        /* \"TEXOToken.sol\":48858:48965  user.amount... */\n      swap2\n      swap1\n      0xffffffff\n      and\n      jump\t// in\n    tag_218:\n        /* \"TEXOToken.sol\":48840:48965  uint256 pending = user.amount... */\n      swap1\n      pop\n        /* \"TEXOToken.sol\":48980:48995  canWithdrawTEXO */\n      dup2\n        /* \"TEXOToken.sol\":48980:49010  canWithdrawTEXO && pending > 0 */\n      dup1\n      iszero\n      tag_224\n      jumpi\n      pop\n        /* \"TEXOToken.sol\":49009:49010  0 */\n      0x00\n        /* \"TEXOToken.sol\":48999:49006  pending */\n      dup2\n        /* \"TEXOToken.sol\":48999:49010  pending > 0 */\n      gt\n        /* \"TEXOToken.sol\":48980:49010  canWithdrawTEXO && pending > 0 */\n    tag_224:\n        /* \"TEXOToken.sol\":48976:49244  if (canWithdrawTEXO && pending > 0) {... */\n      iszero\n      tag_225\n      jumpi\n        /* \"TEXOToken.sol\":49026:49063  safeTEXOTransfer(msg.sender, pending) */\n      tag_226\n        /* \"TEXOToken.sol\":49043:49053  msg.sender */\n      caller\n        /* \"TEXOToken.sol\":49055:49062  pending */\n      dup3\n        /* \"TEXOToken.sol\":49026:49042  safeTEXOTransfer */\n      tag_227\n        /* \"TEXOToken.sol\":49026:49063  safeTEXOTransfer(msg.sender, pending) */\n      jump\t// in\n    tag_226:\n        /* \"TEXOToken.sol\":49077:49119  payReferralCommission(msg.sender, pending) */\n      tag_228\n        /* \"TEXOToken.sol\":49099:49109  msg.sender */\n      caller\n        /* \"TEXOToken.sol\":49111:49118  pending */\n      dup3\n        /* \"TEXOToken.sol\":49077:49098  payReferralCommission */\n      tag_229\n        /* \"TEXOToken.sol\":49077:49119  payReferralCommission(msg.sender, pending) */\n      jump\t// in\n    tag_228:\n        /* \"TEXOToken.sol\":49152:49233  user.amount... */\n      tag_230\n        /* \"TEXOToken.sol\":49228:49232  1e12 */\n      0xe8d4a51000\n        /* \"TEXOToken.sol\":49152:49206  user.amount... */\n      tag_231\n        /* \"TEXOToken.sol\":49185:49189  pool */\n      dup7\n        /* \"TEXOToken.sol\":49185:49205  pool.accTEXOPerShare */\n      0x04\n      add\n      sload\n        /* \"TEXOToken.sol\":49152:49156  user */\n      dup7\n        /* \"TEXOToken.sol\":49152:49163  user.amount */\n      0x00\n      add\n      sload\n        /* \"TEXOToken.sol\":49152:49184  user.amount... */\n      tag_221\n      swap1\n        /* \"TEXOToken.sol\":49152:49206  user.amount... */\n      swap2\n      swap1\n      0xffffffff\n      and\n      jump\t// in\n    tag_231:\n        /* \"TEXOToken.sol\":49152:49227  user.amount... */\n      tag_222\n      swap1\n        /* \"TEXOToken.sol\":49152:49233  user.amount... */\n      swap2\n      swap1\n      0xffffffff\n      and\n      jump\t// in\n    tag_230:\n        /* \"TEXOToken.sol\":49134:49138  user */\n      dup4\n        /* \"TEXOToken.sol\":49134:49149  user.rewardDebt */\n      0x01\n      add\n        /* \"TEXOToken.sol\":49134:49233  user.rewardDebt = user.amount... */\n      dup2\n      swap1\n      sstore\n      pop\n        /* \"TEXOToken.sol\":48976:49244  if (canWithdrawTEXO && pending > 0) {... */\n    tag_225:\n        /* \"TEXOToken.sol\":49268:49269  0 */\n      0x00\n        /* \"TEXOToken.sol\":49258:49265  _amount */\n      dup6\n        /* \"TEXOToken.sol\":49258:49269  _amount > 0 */\n      gt\n        /* \"TEXOToken.sol\":49254:49403  if (_amount > 0) {... */\n      iszero\n      tag_232\n      jumpi\n        /* \"TEXOToken.sol\":49299:49323  user.amount.sub(_amount) */\n      tag_233\n        /* \"TEXOToken.sol\":49315:49322  _amount */\n      dup6\n        /* \"TEXOToken.sol\":49299:49303  user */\n      dup5\n        /* \"TEXOToken.sol\":49299:49310  user.amount */\n      0x00\n      add\n      sload\n        /* \"TEXOToken.sol\":49299:49314  user.amount.sub */\n      tag_223\n      swap1\n        /* \"TEXOToken.sol\":49299:49323  user.amount.sub(_amount) */\n      swap2\n      swap1\n      0xffffffff\n      and\n      jump\t// in\n    tag_233:\n        /* \"TEXOToken.sol\":49285:49289  user */\n      dup4\n        /* \"TEXOToken.sol\":49285:49296  user.amount */\n      0x00\n      add\n        /* \"TEXOToken.sol\":49285:49323  user.amount = user.amount.sub(_amount) */\n      dup2\n      swap1\n      sstore\n      pop\n        /* \"TEXOToken.sol\":49337:49392  pool.lpToken.safeTransfer(address(msg.sender), _amount) */\n      tag_234\n        /* \"TEXOToken.sol\":49371:49381  msg.sender */\n      caller\n        /* \"TEXOToken.sol\":49384:49391  _amount */\n      dup7\n        /* \"TEXOToken.sol\":49337:49341  pool */\n      dup7\n        /* \"TEXOToken.sol\":49337:49349  pool.lpToken */\n      0x00\n      add\n      0x00\n      swap1\n      sload\n      swap1\n      0x0100\n      exp\n      swap1\n      div\n      0xffffffffffffffffffffffffffffffffffffffff\n      and\n        /* \"TEXOToken.sol\":49337:49362  pool.lpToken.safeTransfer */\n      0xffffffffffffffffffffffffffffffffffffffff\n      and\n      tag_235\n      swap1\n        /* \"TEXOToken.sol\":49337:49392  pool.lpToken.safeTransfer(address(msg.sender), _amount) */\n      swap3\n      swap2\n      swap1\n      0xffffffff\n      and\n      jump\t// in\n    tag_234:\n        /* \"TEXOToken.sol\":49254:49403  if (_amount > 0) {... */\n    tag_232:\n        /* \"TEXOToken.sol\":49439:49443  _pid */\n      dup6\n        /* \"TEXOToken.sol\":49427:49437  msg.sender */\n      caller\n        /* \"TEXOToken.sol\":49418:49453  Withdraw(msg.sender, _pid, _amount) */\n      0xffffffffffffffffffffffffffffffffffffffff\n      and\n      0xf279e6a1f5e320cca91135676d9cb6e44ca8a08c0b88342bcdb1144f6511b568\n        /* \"TEXOToken.sol\":49445:49452  _amount */\n      dup8\n        /* \"TEXOToken.sol\":49418:49453  Withdraw(msg.sender, _pid, _amount) */\n      mload(0x40)\n      dup1\n      dup3\n      dup2\n      mstore\n      0x20\n      add\n      swap2\n      pop\n      pop\n      mload(0x40)\n      dup1\n      swap2\n      sub\n      swap1\n      log3\n        /* \"TEXOToken.sol\":21944:21945  _ */\n      pop\n      pop\n      pop\n      pop\n        /* \"TEXOToken.sol\":21153:21154  1 */\n      0x01\n        /* \"TEXOToken.sol\":22088:22095  _status */\n      dup1\n        /* \"TEXOToken.sol\":22088:22110  _status = _NOT_ENTERED */\n      dup2\n      swap1\n      sstore\n      pop\n        /* \"TEXOToken.sol\":48504:49460  function withdraw(uint256 _pid, uint256 _amount) public nonReentrant {... */\n      pop\n      pop\n      jump\t// out\n        /* \"TEXOToken.sol\":37340:37385  bool public isAllowReduceEmissionRate = false */\n    tag_88:\n      0x12\n      0x00\n      swap1\n      sload\n      swap1\n      0x0100\n      exp\n      swap1\n      div\n      0xff\n      and\n      dup2\n      jump\t// out\n        /* \"TEXOToken.sol\":36418:36462  mapping(address => address) public referrers */\n    tag_91:\n      mstore(0x20, 0x0d)\n      dup1\n      0x00\n      mstore\n      keccak256(0x00, 0x40)\n      0x00\n      swap2\n      pop\n      sload\n      swap1\n      0x0100\n      exp\n      swap1\n      div\n      0xffffffffffffffffffffffffffffffffffffffff\n      and\n      dup2\n      jump\t// out\n        /* \"TEXOToken.sol\":43299:44624  function updatePool(uint256 _pid) public {... */\n    tag_94:\n        /* \"TEXOToken.sol\":43350:43371  PoolInfo storage pool */\n      0x00\n        /* \"TEXOToken.sol\":43374:43382  poolInfo */\n      0x09\n        /* \"TEXOToken.sol\":43383:43387  _pid */\n      dup3\n        /* \"TEXOToken.sol\":43374:43388  poolInfo[_pid] */\n      dup2\n      sload\n      dup2\n      lt\n      tag_237\n      jumpi\n      invalid\n    tag_237:\n      swap1\n      0x00\n      mstore\n      keccak256(0x00, 0x20)\n      swap1\n      0x06\n      mul\n      add\n        /* \"TEXOToken.sol\":43350:43388  PoolInfo storage pool = poolInfo[_pid] */\n      swap1\n      pop\n        /* \"TEXOToken.sol\":43419:43423  pool */\n      dup1\n        /* \"TEXOToken.sol\":43419:43439  pool.lastRewardBlock */\n      0x03\n      add\n      sload\n        /* \"TEXOToken.sol\":43403:43415  block.number */\n      number\n        /* \"TEXOToken.sol\":43403:43439  block.number <= pool.lastRewardBlock */\n      gt\n        /* \"TEXOToken.sol\":43399:43472  if (block.number <= pool.lastRewardBlock) {... */\n      tag_239\n      jumpi\n        /* \"TEXOToken.sol\":43455:43462  return; */\n      pop\n      jump(tag_236)\n        /* \"TEXOToken.sol\":43399:43472  if (block.number <= pool.lastRewardBlock) {... */\n    tag_239:\n        /* \"TEXOToken.sol\":43487:43514  canGenerateTexoReward(_pid) */\n      tag_240\n        /* \"TEXOToken.sol\":43509:43513  _pid */\n      dup3\n        /* \"TEXOToken.sol\":43487:43508  canGenerateTexoReward */\n      tag_177\n        /* \"TEXOToken.sol\":43487:43514  canGenerateTexoReward(_pid) */\n      jump\t// in\n    tag_240:\n        /* \"TEXOToken.sol\":43482:43547  if (!canGenerateTexoReward(_pid)) {... */\n      tag_241\n      jumpi\n        /* \"TEXOToken.sol\":43530:43537  return; */\n      pop\n      jump(tag_236)\n        /* \"TEXOToken.sol\":43482:43547  if (!canGenerateTexoReward(_pid)) {... */\n    tag_241:\n        /* \"TEXOToken.sol\":43557:43573  uint256 lpSupply */\n      0x00\n        /* \"TEXOToken.sol\":43576:43580  pool */\n      dup2\n        /* \"TEXOToken.sol\":43576:43588  pool.lpToken */\n      0x00\n      add\n      0x00\n      swap1\n      sload\n      swap1\n      0x0100\n      exp\n      swap1\n      div\n      0xffffffffffffffffffffffffffffffffffffffff\n      and\n        /* \"TEXOToken.sol\":43576:43598  pool.lpToken.balanceOf */\n      0xffffffffffffffffffffffffffffffffffffffff\n      and\n      0x70a08231\n        /* \"TEXOToken.sol\":43607:43611  this */\n      address\n        /* \"TEXOToken.sol\":43576:43613  pool.lpToken.balanceOf(address(this)) */\n      mload(0x40)\n      dup3\n      0xffffffff\n      and\n      0xe0\n      shl\n      dup2\n      mstore\n      0x04\n      add\n      dup1\n      dup3\n      0xffffffffffffffffffffffffffffffffffffffff\n      and\n      dup2\n      mstore\n      0x20\n      add\n      swap2\n      pop\n      pop\n      0x20\n      mload(0x40)\n      dup1\n      dup4\n      sub\n      dup2\n      dup7\n      dup1\n      extcodesize\n      iszero\n      dup1\n      iszero\n      tag_242\n      jumpi\n      0x00\n      dup1\n      revert\n    tag_242:\n      pop\n      gas\n      staticcall\n      iszero\n      dup1\n      iszero\n      tag_244\n      jumpi\n      returndatasize\n      0x00\n      dup1\n      returndatacopy\n      revert(0x00, returndatasize)\n    tag_244:\n      pop\n      pop\n      pop\n      pop\n      mload(0x40)\n      returndatasize\n      0x20\n      dup2\n      lt\n      iszero\n      tag_245\n      jumpi\n      0x00\n      dup1\n      revert\n    tag_245:\n      dup2\n      add\n      swap1\n      dup1\n      dup1\n      mload\n      swap1\n      0x20\n      add\n      swap1\n      swap3\n      swap2\n      swap1\n      pop\n      pop\n      pop\n        /* \"TEXOToken.sol\":43557:43613  uint256 lpSupply = pool.lpToken.balanceOf(address(this)) */\n      swap1\n      pop\n        /* \"TEXOToken.sol\":43728:43729  0 */\n      0x00\n        /* \"TEXOToken.sol\":43716:43724  lpSupply */\n      dup2\n        /* \"TEXOToken.sol\":43716:43729  lpSupply == 0 */\n      eq\n        /* \"TEXOToken.sol\":43716:43753  lpSupply == 0 || pool.allocPoint == 0 */\n      dup1\n      tag_246\n      jumpi\n      pop\n        /* \"TEXOToken.sol\":43752:43753  0 */\n      0x00\n        /* \"TEXOToken.sol\":43733:43737  pool */\n      dup3\n        /* \"TEXOToken.sol\":43733:43748  pool.allocPoint */\n      0x01\n      add\n      sload\n        /* \"TEXOToken.sol\":43733:43753  pool.allocPoint == 0 */\n      eq\n        /* \"TEXOToken.sol\":43716:43753  lpSupply == 0 || pool.allocPoint == 0 */\n    tag_246:\n        /* \"TEXOToken.sol\":43712:43917  if (lpSupply == 0 || pool.allocPoint == 0) { // If pool initially has no staked WETH token, or pool has no allocation points.... */\n      iszero\n      tag_247\n      jumpi\n        /* \"TEXOToken.sol\":43873:43885  block.number */\n      number\n        /* \"TEXOToken.sol\":43850:43854  pool */\n      dup3\n        /* \"TEXOToken.sol\":43850:43870  pool.lastRewardBlock */\n      0x03\n      add\n        /* \"TEXOToken.sol\":43850:43885  pool.lastRewardBlock = block.number */\n      dup2\n      swap1\n      sstore\n      pop\n        /* \"TEXOToken.sol\":43900:43907  return; */\n      pop\n      pop\n      jump(tag_236)\n        /* \"TEXOToken.sol\":43712:43917  if (lpSupply == 0 || pool.allocPoint == 0) { // If pool initially has no staked WETH token, or pool has no allocation points.... */\n    tag_247:\n        /* \"TEXOToken.sol\":43927:43945  uint256 multiplier */\n      0x00\n        /* \"TEXOToken.sol\":43948:43997  getMultiplier(pool.lastRewardBlock, block.number) */\n      tag_248\n        /* \"TEXOToken.sol\":43962:43966  pool */\n      dup4\n        /* \"TEXOToken.sol\":43962:43982  pool.lastRewardBlock */\n      0x03\n      add\n      sload\n        /* \"TEXOToken.sol\":43984:43996  block.number */\n      number\n        /* \"TEXOToken.sol\":43948:43961  getMultiplier */\n      tag_125\n        /* \"TEXOToken.sol\":43948:43997  getMultiplier(pool.lastRewardBlock, block.number) */\n      jump\t// in\n    tag_248:\n        /* \"TEXOToken.sol\":43927:43997  uint256 multiplier = getMultiplier(pool.lastRewardBlock, block.number) */\n      swap1\n      pop\n        /* \"TEXOToken.sol\":44068:44086  uint256 tEXOReward */\n      0x00\n        /* \"TEXOToken.sol\":44089:44198  multiplier... */\n      tag_249\n        /* \"TEXOToken.sol\":44182:44197  totalAllocPoint */\n      sload(0x0b)\n        /* \"TEXOToken.sol\":44089:44164  multiplier... */\n      tag_250\n        /* \"TEXOToken.sol\":44148:44152  pool */\n      dup7\n        /* \"TEXOToken.sol\":44148:44163  pool.allocPoint */\n      0x01\n      add\n      sload\n        /* \"TEXOToken.sol\":44089:44130  multiplier... */\n      tag_251\n        /* \"TEXOToken.sol\":44117:44129  tEXOPerBlock */\n      sload(0x04)\n        /* \"TEXOToken.sol\":44089:44099  multiplier */\n      dup8\n        /* \"TEXOToken.sol\":44089:44116  multiplier... */\n      tag_221\n      swap1\n        /* \"TEXOToken.sol\":44089:44130  multiplier... */\n      swap2\n      swap1\n      0xffffffff\n      and\n      jump\t// in\n    tag_251:\n        /* \"TEXOToken.sol\":44089:44147  multiplier... */\n      tag_221\n      swap1\n        /* \"TEXOToken.sol\":44089:44164  multiplier... */\n      swap2\n      swap1\n      0xffffffff\n      and\n      jump\t// in\n    tag_250:\n        /* \"TEXOToken.sol\":44089:44181  multiplier... */\n      tag_222\n      swap1\n        /* \"TEXOToken.sol\":44089:44198  multiplier... */\n      swap2\n      swap1\n      0xffffffff\n      and\n      jump\t// in\n    tag_249:\n        /* \"TEXOToken.sol\":44068:44198  uint256 tEXOReward = multiplier... */\n      swap1\n      pop\n        /* \"TEXOToken.sol\":44209:44213  tEXO */\n      0x02\n      0x00\n      swap1\n      sload\n      swap1\n      0x0100\n      exp\n      swap1\n      div\n      0xffffffffffffffffffffffffffffffffffffffff\n      and\n        /* \"TEXOToken.sol\":44209:44218  tEXO.mint */\n      0xffffffffffffffffffffffffffffffffffffffff\n      and\n      0x40c10f19\n        /* \"TEXOToken.sol\":44219:44226  devAddr */\n      0x03\n      0x00\n      swap1\n      sload\n      swap1\n      0x0100\n      exp\n      swap1\n      div\n      0xffffffffffffffffffffffffffffffffffffffff\n      and\n        /* \"TEXOToken.sol\":44228:44246  tEXOReward.div(10) */\n      tag_252\n        /* \"TEXOToken.sol\":44243:44245  10 */\n      0x0a\n        /* \"TEXOToken.sol\":44228:44238  tEXOReward */\n      dup6\n        /* \"TEXOToken.sol\":44228:44242  tEXOReward.div */\n      tag_222\n      swap1\n        /* \"TEXOToken.sol\":44228:44246  tEXOReward.div(10) */\n      swap2\n      swap1\n      0xffffffff\n      and\n      jump\t// in\n    tag_252:\n        /* \"TEXOToken.sol\":44209:44247  tEXO.mint(devAddr, tEXOReward.div(10)) */\n      mload(0x40)\n      dup4\n      0xffffffff\n      and\n      0xe0\n      shl\n      dup2\n      mstore\n      0x04\n      add\n      dup1\n      dup4\n      0xffffffffffffffffffffffffffffffffffffffff\n      and\n      dup2\n      mstore\n      0x20\n      add\n      dup3\n      dup2\n      mstore\n      0x20\n      add\n      swap3\n      pop\n      pop\n      pop\n      0x00\n      mload(0x40)\n      dup1\n      dup4\n      sub\n      dup2\n      0x00\n      dup8\n      dup1\n      extcodesize\n      iszero\n      dup1\n      iszero\n      tag_253\n      jumpi\n      0x00\n      dup1\n      revert\n    tag_253:\n      pop\n      gas\n      call\n      iszero\n      dup1\n      iszero\n      tag_255\n      jumpi\n      returndatasize\n      0x00\n      dup1\n      returndatacopy\n      revert(0x00, returndatasize)\n    tag_255:\n      pop\n      pop\n      pop\n      pop\n        /* \"TEXOToken.sol\":44318:44322  tEXO */\n      0x02\n      0x00\n      swap1\n      sload\n      swap1\n      0x0100\n      exp\n      swap1\n      div\n      0xffffffffffffffffffffffffffffffffffffffff\n      and\n        /* \"TEXOToken.sol\":44318:44327  tEXO.mint */\n      0xffffffffffffffffffffffffffffffffffffffff\n      and\n      0x40c10f19\n        /* \"TEXOToken.sol\":44336:44340  this */\n      address\n        /* \"TEXOToken.sol\":44343:44353  tEXOReward */\n      dup4\n        /* \"TEXOToken.sol\":44318:44354  tEXO.mint(address(this), tEXOReward) */\n      mload(0x40)\n      dup4\n      0xffffffff\n      and\n      0xe0\n      shl\n      dup2\n      mstore\n      0x04\n      add\n      dup1\n      dup4\n      0xffffffffffffffffffffffffffffffffffffffff\n      and\n      dup2\n      mstore\n      0x20\n      add\n      dup3\n      dup2\n      mstore\n      0x20\n      add\n      swap3\n      pop\n      pop\n      pop\n      0x00\n      mload(0x40)\n      dup1\n      dup4\n      sub\n      dup2\n      0x00\n      dup8\n      dup1\n      extcodesize\n      iszero\n      dup1\n      iszero\n      tag_256\n      jumpi\n      0x00\n      dup1\n      revert\n    tag_256:\n      pop\n      gas\n      call\n      iszero\n      dup1\n      iszero\n      tag_258\n      jumpi\n      returndatasize\n      0x00\n      dup1\n      returndatacopy\n      revert(0x00, returndatasize)\n    tag_258:\n      pop\n      pop\n      pop\n      pop\n        /* \"TEXOToken.sol\":44434:44571  pool.accTEXOPerShare... */\n      tag_259\n        /* \"TEXOToken.sol\":44489:44557  tEXOReward... */\n      tag_260\n        /* \"TEXOToken.sol\":44548:44556  lpSupply */\n      dup5\n        /* \"TEXOToken.sol\":44489:44526  tEXOReward... */\n      tag_261\n        /* \"TEXOToken.sol\":44521:44525  1e12 */\n      0xe8d4a51000\n        /* \"TEXOToken.sol\":44489:44499  tEXOReward */\n      dup6\n        /* \"TEXOToken.sol\":44489:44520  tEXOReward... */\n      tag_221\n      swap1\n        /* \"TEXOToken.sol\":44489:44526  tEXOReward... */\n      swap2\n      swap1\n      0xffffffff\n      and\n      jump\t// in\n    tag_261:\n        /* \"TEXOToken.sol\":44489:44547  tEXOReward... */\n      tag_222\n      swap1\n        /* \"TEXOToken.sol\":44489:44557  tEXOReward... */\n      swap2\n      swap1\n      0xffffffff\n      and\n      jump\t// in\n    tag_260:\n        /* \"TEXOToken.sol\":44434:44438  pool */\n      dup6\n        /* \"TEXOToken.sol\":44434:44454  pool.accTEXOPerShare */\n      0x04\n      add\n      sload\n        /* \"TEXOToken.sol\":44434:44471  pool.accTEXOPerShare... */\n      tag_197\n      swap1\n        /* \"TEXOToken.sol\":44434:44571  pool.accTEXOPerShare... */\n      swap2\n      swap1\n      0xffffffff\n      and\n      jump\t// in\n    tag_259:\n        /* \"TEXOToken.sol\":44411:44415  pool */\n      dup5\n        /* \"TEXOToken.sol\":44411:44431  pool.accTEXOPerShare */\n      0x04\n      add\n        /* \"TEXOToken.sol\":44411:44571  pool.accTEXOPerShare = pool.accTEXOPerShare... */\n      dup2\n      swap1\n      sstore\n      pop\n        /* \"TEXOToken.sol\":44605:44617  block.number */\n      number\n        /* \"TEXOToken.sol\":44582:44586  pool */\n      dup5\n        /* \"TEXOToken.sol\":44582:44602  pool.lastRewardBlock */\n      0x03\n      add\n        /* \"TEXOToken.sol\":44582:44617  pool.lastRewardBlock = block.number */\n      dup2\n      swap1\n      sstore\n      pop\n        /* \"TEXOToken.sol\":43299:44624  function updatePool(uint256 _pid) public {... */\n      pop\n      pop\n      pop\n      pop\n    tag_236:\n      pop\n      jump\t// out\n        /* \"TEXOToken.sol\":49528:49930  function emergencyWithdraw(uint256 _pid) public nonReentrant {... */\n    tag_97:\n        /* \"TEXOToken.sol\":21196:21197  2 */\n      0x02\n        /* \"TEXOToken.sol\":21785:21792  _status */\n      sload(0x01)\n        /* \"TEXOToken.sol\":21785:21804  _status != _ENTERED */\n      eq\n      iszero\n        /* \"TEXOToken.sol\":21777:21840  require(_status != _ENTERED, \"ReentrancyGuard: reentrant call\") */\n      tag_263\n      jumpi\n      mload(0x40)\n      0x08c379a000000000000000000000000000000000000000000000000000000000\n      dup2\n      mstore\n      0x04\n      add\n      dup1\n      dup1\n      0x20\n      add\n      dup3\n      dup2\n      sub\n      dup3\n      mstore\n      0x1f\n      dup2\n      mstore\n      0x20\n      add\n      dup1\n      0x5265656e7472616e637947756172643a207265656e7472616e742063616c6c00\n      dup2\n      mstore\n      pop\n      0x20\n      add\n      swap2\n      pop\n      pop\n      mload(0x40)\n      dup1\n      swap2\n      sub\n      swap1\n      revert\n    tag_263:\n        /* \"TEXOToken.sol\":21196:21197  2 */\n      0x02\n        /* \"TEXOToken.sol\":21915:21922  _status */\n      0x01\n        /* \"TEXOToken.sol\":21915:21933  _status = _ENTERED */\n      dup2\n      swap1\n      sstore\n      pop\n        /* \"TEXOToken.sol\":49599:49620  PoolInfo storage pool */\n      0x00\n        /* \"TEXOToken.sol\":49623:49631  poolInfo */\n      0x09\n        /* \"TEXOToken.sol\":49632:49636  _pid */\n      dup3\n        /* \"TEXOToken.sol\":49623:49637  poolInfo[_pid] */\n      dup2\n      sload\n      dup2\n      lt\n      tag_265\n      jumpi\n      invalid\n    tag_265:\n      swap1\n      0x00\n      mstore\n      keccak256(0x00, 0x20)\n      swap1\n      0x06\n      mul\n      add\n        /* \"TEXOToken.sol\":49599:49637  PoolInfo storage pool = poolInfo[_pid] */\n      swap1\n      pop\n        /* \"TEXOToken.sol\":49647:49668  UserInfo storage user */\n      0x00\n        /* \"TEXOToken.sol\":49671:49679  userInfo */\n      0x0a\n        /* \"TEXOToken.sol\":49671:49685  userInfo[_pid] */\n      0x00\n        /* \"TEXOToken.sol\":49680:49684  _pid */\n      dup5\n        /* \"TEXOToken.sol\":49671:49685  userInfo[_pid] */\n      dup2\n      mstore\n      0x20\n      add\n      swap1\n      dup2\n      mstore\n      0x20\n      add\n      0x00\n      keccak256\n        /* \"TEXOToken.sol\":49671:49697  userInfo[_pid][msg.sender] */\n      0x00\n        /* \"TEXOToken.sol\":49686:49696  msg.sender */\n      caller\n        /* \"TEXOToken.sol\":49671:49697  userInfo[_pid][msg.sender] */\n      0xffffffffffffffffffffffffffffffffffffffff\n      and\n      0xffffffffffffffffffffffffffffffffffffffff\n      and\n      dup2\n      mstore\n      0x20\n      add\n      swap1\n      dup2\n      mstore\n      0x20\n      add\n      0x00\n      keccak256\n        /* \"TEXOToken.sol\":49647:49697  UserInfo storage user = userInfo[_pid][msg.sender] */\n      swap1\n      pop\n        /* \"TEXOToken.sol\":49707:49766  pool.lpToken.safeTransfer(address(msg.sender), user.amount) */\n      tag_267\n        /* \"TEXOToken.sol\":49741:49751  msg.sender */\n      caller\n        /* \"TEXOToken.sol\":49754:49758  user */\n      dup3\n        /* \"TEXOToken.sol\":49754:49765  user.amount */\n      0x00\n      add\n      sload\n        /* \"TEXOToken.sol\":49707:49711  pool */\n      dup5\n        /* \"TEXOToken.sol\":49707:49719  pool.lpToken */\n      0x00\n      add\n      0x00\n      swap1\n      sload\n      swap1\n      0x0100\n      exp\n      swap1\n      div\n      0xffffffffffffffffffffffffffffffffffffffff\n      and\n        /* \"TEXOToken.sol\":49707:49732  pool.lpToken.safeTransfer */\n      0xffffffffffffffffffffffffffffffffffffffff\n      and\n      tag_235\n      swap1\n        /* \"TEXOToken.sol\":49707:49766  pool.lpToken.safeTransfer(address(msg.sender), user.amount) */\n      swap3\n      swap2\n      swap1\n      0xffffffff\n      and\n      jump\t// in\n    tag_267:\n        /* \"TEXOToken.sol\":49812:49816  _pid */\n      dup3\n        /* \"TEXOToken.sol\":49800:49810  msg.sender */\n      caller\n        /* \"TEXOToken.sol\":49782:49830  EmergencyWithdraw(msg.sender, _pid, user.amount) */\n      0xffffffffffffffffffffffffffffffffffffffff\n      and\n      0xbb757047c2b5f3974fe26b7c10f732e7bce710b0952a71082702781e62ae0595\n        /* \"TEXOToken.sol\":49818:49822  user */\n      dup4\n        /* \"TEXOToken.sol\":49818:49829  user.amount */\n      0x00\n      add\n      sload\n        /* \"TEXOToken.sol\":49782:49830  EmergencyWithdraw(msg.sender, _pid, user.amount) */\n      mload(0x40)\n      dup1\n      dup3\n      dup2\n      mstore\n      0x20\n      add\n      swap2\n      pop\n      pop\n      mload(0x40)\n      dup1\n      swap2\n      sub\n      swap1\n      log3\n        /* \"TEXOToken.sol\":49855:49856  0 */\n      0x00\n        /* \"TEXOToken.sol\":49841:49845  user */\n      dup2\n        /* \"TEXOToken.sol\":49841:49852  user.amount */\n      0x00\n      add\n        /* \"TEXOToken.sol\":49841:49856  user.amount = 0 */\n      dup2\n      swap1\n      sstore\n      pop\n        /* \"TEXOToken.sol\":49884:49885  0 */\n      0x00\n        /* \"TEXOToken.sol\":49866:49870  user */\n      dup2\n        /* \"TEXOToken.sol\":49866:49881  user.rewardDebt */\n      0x01\n      add\n        /* \"TEXOToken.sol\":49866:49885  user.rewardDebt = 0 */\n      dup2\n      swap1\n      sstore\n      pop\n        /* \"TEXOToken.sol\":49918:49923  false */\n      0x00\n        /* \"TEXOToken.sol\":49895:49899  user */\n      dup2\n        /* \"TEXOToken.sol\":49895:49915  user.isAlreadyStaked */\n      0x02\n      add\n      0x00\n        /* \"TEXOToken.sol\":49895:49923  user.isAlreadyStaked = false */\n      0x0100\n      exp\n      dup2\n      sload\n      dup2\n      0xff\n      mul\n      not\n      and\n      swap1\n      dup4\n      iszero\n      iszero\n      mul\n      or\n      swap1\n      sstore\n      pop\n        /* \"TEXOToken.sol\":21944:21945  _ */\n      pop\n      pop\n        /* \"TEXOToken.sol\":21153:21154  1 */\n      0x01\n        /* \"TEXOToken.sol\":22088:22095  _status */\n      dup1\n        /* \"TEXOToken.sol\":22088:22110  _status = _NOT_ENTERED */\n      dup2\n      swap1\n      sstore\n      pop\n        /* \"TEXOToken.sol\":49528:49930  function emergencyWithdraw(uint256 _pid) public nonReentrant {... */\n      pop\n      jump\t// out\n        /* \"TEXOToken.sol\":35644:35691  uint256 public blockToStartReducingEmissionRate */\n    tag_99:\n      sload(0x06)\n      dup2\n      jump\t// out\n        /* \"TEXOToken.sol\":36930:36988  uint256 public constant MINIMUM_EMISSION_RATE = 100 finney */\n    tag_101:\n        /* \"TEXOToken.sol\":36978:36988  100 finney */\n      0x016345785d8a0000\n        /* \"TEXOToken.sol\":36930:36988  uint256 public constant MINIMUM_EMISSION_RATE = 100 finney */\n      dup2\n      jump\t// out\n        /* \"TEXOToken.sol\":43051:43226  function massUpdatePools() public {... */\n    tag_103:\n        /* \"TEXOToken.sol\":43095:43109  uint256 length */\n      0x00\n        /* \"TEXOToken.sol\":43112:43120  poolInfo */\n      0x09\n        /* \"TEXOToken.sol\":43112:43127  poolInfo.length */\n      dup1\n      sload\n      swap1\n      pop\n        /* \"TEXOToken.sol\":43095:43127  uint256 length = poolInfo.length */\n      swap1\n      pop\n        /* \"TEXOToken.sol\":43142:43153  uint256 pid */\n      0x00\n        /* \"TEXOToken.sol\":43137:43220  for (uint256 pid = 0; pid < length; ++pid) {... */\n    tag_269:\n        /* \"TEXOToken.sol\":43165:43171  length */\n      dup2\n        /* \"TEXOToken.sol\":43159:43162  pid */\n      dup2\n        /* \"TEXOToken.sol\":43159:43171  pid < length */\n      lt\n        /* \"TEXOToken.sol\":43137:43220  for (uint256 pid = 0; pid < length; ++pid) {... */\n      iszero\n      tag_270\n      jumpi\n        /* \"TEXOToken.sol\":43194:43209  updatePool(pid) */\n      tag_272\n        /* \"TEXOToken.sol\":43205:43208  pid */\n      dup2\n        /* \"TEXOToken.sol\":43194:43204  updatePool */\n      tag_94\n        /* \"TEXOToken.sol\":43194:43209  updatePool(pid) */\n      jump\t// in\n    tag_272:\n        /* \"TEXOToken.sol\":43173:43178  ++pid */\n      dup1\n      0x01\n      add\n      swap1\n      pop\n        /* \"TEXOToken.sol\":43137:43220  for (uint256 pid = 0; pid < length; ++pid) {... */\n      jump(tag_269)\n    tag_270:\n      pop\n        /* \"TEXOToken.sol\":43051:43226  function massUpdatePools() public {... */\n      pop\n      jump\t// out\n        /* \"TEXOToken.sol\":54288:54735  function updateReferralBonusBp(uint256 _newRefBonusBp) public onlyOwner {... */\n    tag_106:\n        /* \"TEXOToken.sol\":11663:11675  _msgSender() */\n      tag_274\n        /* \"TEXOToken.sol\":11663:11673  _msgSender */\n      tag_186\n        /* \"TEXOToken.sol\":11663:11675  _msgSender() */\n      jump\t// in\n    tag_274:\n        /* \"TEXOToken.sol\":11653:11675  _owner == _msgSender() */\n      0xffffffffffffffffffffffffffffffffffffffff\n      and\n        /* \"TEXOToken.sol\":11653:11659  _owner */\n      0x00\n      dup1\n      sload\n      swap1\n      0x0100\n      exp\n      swap1\n      div\n      0xffffffffffffffffffffffffffffffffffffffff\n      and\n        /* \"TEXOToken.sol\":11653:11675  _owner == _msgSender() */\n      0xffffffffffffffffffffffffffffffffffffffff\n      and\n      eq\n        /* \"TEXOToken.sol\":11645:11712  require(_owner == _msgSender(), \"Ownable: caller is not the owner\") */\n      tag_275\n      jumpi\n      mload(0x40)\n      0x08c379a000000000000000000000000000000000000000000000000000000000\n      dup2\n      mstore\n      0x04\n      add\n      dup1\n      dup1\n      0x20\n      add\n      dup3\n      dup2\n      sub\n      dup3\n      mstore\n      0x20\n      dup2\n      mstore\n      0x20\n      add\n      dup1\n      0x4f776e61626c653a2063616c6c6572206973206e6f7420746865206f776e6572\n      dup2\n      mstore\n      pop\n      0x20\n      add\n      swap2\n      pop\n      pop\n      mload(0x40)\n      dup1\n      swap2\n      sub\n      swap1\n      revert\n    tag_275:\n        /* \"TEXOToken.sol\":36384:36388  2000 */\n      0x07d0\n        /* \"TEXOToken.sol\":54378:54415  _newRefBonusBp <= MAXIMUM_REFERRAL_BP */\n      0xffff\n      and\n        /* \"TEXOToken.sol\":54378:54392  _newRefBonusBp */\n      dup2\n        /* \"TEXOToken.sol\":54378:54415  _newRefBonusBp <= MAXIMUM_REFERRAL_BP */\n      gt\n      iszero\n        /* \"TEXOToken.sol\":54370:54478  require(_newRefBonusBp <= MAXIMUM_REFERRAL_BP, \"updateRefBonusPercent: invalid referral bonus basis points\") */\n      tag_277\n      jumpi\n      mload(0x40)\n      0x08c379a000000000000000000000000000000000000000000000000000000000\n      dup2\n      mstore\n      0x04\n      add\n      dup1\n      dup1\n      0x20\n      add\n      dup3\n      dup2\n      sub\n      dup3\n      mstore\n      0x3a\n      dup2\n      mstore\n      0x20\n      add\n      dup1\n      data_20a6bce988e8b6ff5852ac398e27735d1d8155a9d79e532ec3c3da13f504a6a4\n      0x3a\n      swap2\n      codecopy\n      0x40\n      add\n      swap2\n      pop\n      pop\n      mload(0x40)\n      dup1\n      swap2\n      sub\n      swap1\n      revert\n    tag_277:\n        /* \"TEXOToken.sol\":54514:54524  refBonusBP */\n      sload(0x0c)\n        /* \"TEXOToken.sol\":54496:54510  _newRefBonusBp */\n      dup2\n        /* \"TEXOToken.sol\":54496:54524  _newRefBonusBp != refBonusBP */\n      eq\n      iszero\n        /* \"TEXOToken.sol\":54488:54569  require(_newRefBonusBp != refBonusBP, \"updateRefBonusPercent: same bonus bp set\") */\n      tag_278\n      jumpi\n      mload(0x40)\n      0x08c379a000000000000000000000000000000000000000000000000000000000\n      dup2\n      mstore\n      0x04\n      add\n      dup1\n      dup1\n      0x20\n      add\n      dup3\n      dup2\n      sub\n      dup3\n      mstore\n      0x28\n      dup2\n      mstore\n      0x20\n      add\n      dup1\n      data_9d1a761c817eae8410d2081a433553cad78dcf01ebb754f58addc464260ba484\n      0x28\n      swap2\n      codecopy\n      0x40\n      add\n      swap2\n      pop\n      pop\n      mload(0x40)\n      dup1\n      swap2\n      sub\n      swap1\n      revert\n    tag_278:\n        /* \"TEXOToken.sol\":54579:54605  uint256 previousRefBonusBP */\n      0x00\n        /* \"TEXOToken.sol\":54608:54618  refBonusBP */\n      sload(0x0c)\n        /* \"TEXOToken.sol\":54579:54618  uint256 previousRefBonusBP = refBonusBP */\n      swap1\n      pop\n        /* \"TEXOToken.sol\":54641:54655  _newRefBonusBp */\n      dup2\n        /* \"TEXOToken.sol\":54628:54638  refBonusBP */\n      0x0c\n        /* \"TEXOToken.sol\":54628:54655  refBonusBP = _newRefBonusBp */\n      dup2\n      swap1\n      sstore\n      pop\n        /* \"TEXOToken.sol\":54670:54728  ReferralBonusBpChanged(previousRefBonusBP, _newRefBonusBp) */\n      0x3282b692bfebf5f35b198a229212cf532c72099026ab54c4b8665382d1086b3f\n        /* \"TEXOToken.sol\":54693:54711  previousRefBonusBP */\n      dup2\n        /* \"TEXOToken.sol\":54713:54727  _newRefBonusBp */\n      dup4\n        /* \"TEXOToken.sol\":54670:54728  ReferralBonusBpChanged(previousRefBonusBP, _newRefBonusBp) */\n      mload(0x40)\n      dup1\n      dup4\n      dup2\n      mstore\n      0x20\n      add\n      dup3\n      dup2\n      mstore\n      0x20\n      add\n      swap3\n      pop\n      pop\n      pop\n      mload(0x40)\n      dup1\n      swap2\n      sub\n      swap1\n      log1\n        /* \"TEXOToken.sol\":11722:11723  _ */\n      pop\n        /* \"TEXOToken.sol\":54288:54735  function updateReferralBonusBp(uint256 _newRefBonusBp) public onlyOwner {... */\n      pop\n      jump\t// out\n        /* \"TEXOToken.sol\":35499:35526  uint256 public tEXOPerBlock */\n    tag_108:\n      sload(0x04)\n      dup2\n      jump\t// out\n        /* \"TEXOToken.sol\":36173:36204  uint256 public refBonusBP = 100 */\n    tag_110:\n      sload(0x0c)\n      dup2\n      jump\t// out\n        /* \"TEXOToken.sol\":37290:37333  uint256 public lastReductionPeriodIndex = 0 */\n    tag_112:\n      sload(0x11)\n      dup2\n      jump\t// out\n        /* \"TEXOToken.sol\":12072:12209  function renounceOwnership() public onlyOwner {... */\n    tag_114:\n        /* \"TEXOToken.sol\":11663:11675  _msgSender() */\n      tag_280\n        /* \"TEXOToken.sol\":11663:11673  _msgSender */\n      tag_186\n        /* \"TEXOToken.sol\":11663:11675  _msgSender() */\n      jump\t// in\n    tag_280:\n        /* \"TEXOToken.sol\":11653:11675  _owner == _msgSender() */\n      0xffffffffffffffffffffffffffffffffffffffff\n      and\n        /* \"TEXOToken.sol\":11653:11659  _owner */\n      0x00\n      dup1\n      sload\n      swap1\n      0x0100\n      exp\n      swap1\n      div\n      0xffffffffffffffffffffffffffffffffffffffff\n      and\n        /* \"TEXOToken.sol\":11653:11675  _owner == _msgSender() */\n      0xffffffffffffffffffffffffffffffffffffffff\n      and\n      eq\n        /* \"TEXOToken.sol\":11645:11712  require(_owner == _msgSender(), \"Ownable: caller is not the owner\") */\n      tag_281\n      jumpi\n      mload(0x40)\n      0x08c379a000000000000000000000000000000000000000000000000000000000\n      dup2\n      mstore\n      0x04\n      add\n      dup1\n      dup1\n      0x20\n      add\n      dup3\n      dup2\n      sub\n      dup3\n      mstore\n      0x20\n      dup2\n      mstore\n      0x20\n      add\n      dup1\n      0x4f776e61626c653a2063616c6c6572206973206e6f7420746865206f776e6572\n      dup2\n      mstore\n      pop\n      0x20\n      add\n      swap2\n      pop\n      pop\n      mload(0x40)\n      dup1\n      swap2\n      sub\n      swap1\n      revert\n    tag_281:\n        /* \"TEXOToken.sol\":12170:12171  0 */\n      0x00\n        /* \"TEXOToken.sol\":12133:12173  OwnershipTransferred(_owner, address(0)) */\n      0xffffffffffffffffffffffffffffffffffffffff\n      and\n        /* \"TEXOToken.sol\":12154:12160  _owner */\n      0x00\n      dup1\n      sload\n      swap1\n      0x0100\n      exp\n      swap1\n      div\n      0xffffffffffffffffffffffffffffffffffffffff\n      and\n        /* \"TEXOToken.sol\":12133:12173  OwnershipTransferred(_owner, address(0)) */\n      0xffffffffffffffffffffffffffffffffffffffff\n      and\n      0x8be0079c531659141344cd1fd0a4f28419497f9722a3daafe3b4186f6b6457e0\n      mload(0x40)\n      mload(0x40)\n      dup1\n      swap2\n      sub\n      swap1\n      log3\n        /* \"TEXOToken.sol\":12200:12201  0 */\n      0x00\n        /* \"TEXOToken.sol\":12183:12189  _owner */\n      dup1\n      0x00\n        /* \"TEXOToken.sol\":12183:12202  _owner = address(0) */\n      0x0100\n      exp\n      dup2\n      sload\n      dup2\n      0xffffffffffffffffffffffffffffffffffffffff\n      mul\n      not\n      and\n      swap1\n      dup4\n      0xffffffffffffffffffffffffffffffffffffffff\n      and\n      mul\n      or\n      swap1\n      sstore\n      pop\n        /* \"TEXOToken.sol\":12072:12209  function renounceOwnership() public onlyOwner {... */\n      jump\t// out\n        /* \"TEXOToken.sol\":52673:52796  function setFlagAllowReduceEmissionRate(bool isAllow) public onlyOwner {... */\n    tag_117:\n        /* \"TEXOToken.sol\":11663:11675  _msgSender() */\n      tag_284\n        /* \"TEXOToken.sol\":11663:11673  _msgSender */\n      tag_186\n        /* \"TEXOToken.sol\":11663:11675  _msgSender() */\n      jump\t// in\n    tag_284:\n        /* \"TEXOToken.sol\":11653:11675  _owner == _msgSender() */\n      0xffffffffffffffffffffffffffffffffffffffff\n      and\n        /* \"TEXOToken.sol\":11653:11659  _owner */\n      0x00\n      dup1\n      sload\n      swap1\n      0x0100\n      exp\n      swap1\n      div\n      0xffffffffffffffffffffffffffffffffffffffff\n      and\n        /* \"TEXOToken.sol\":11653:11675  _owner == _msgSender() */\n      0xffffffffffffffffffffffffffffffffffffffff\n      and\n      eq\n        /* \"TEXOToken.sol\":11645:11712  require(_owner == _msgSender(), \"Ownable: caller is not the owner\") */\n      tag_285\n      jumpi\n      mload(0x40)\n      0x08c379a000000000000000000000000000000000000000000000000000000000\n      dup2\n      mstore\n      0x04\n      add\n      dup1\n      dup1\n      0x20\n      add\n      dup3\n      dup2\n      sub\n      dup3\n      mstore\n      0x20\n      dup2\n      mstore\n      0x20\n      add\n      dup1\n      0x4f776e61626c653a2063616c6c6572206973206e6f7420746865206f776e6572\n      dup2\n      mstore\n      pop\n      0x20\n      add\n      swap2\n      pop\n      pop\n      mload(0x40)\n      dup1\n      swap2\n      sub\n      swap1\n      revert\n    tag_285:\n        /* \"TEXOToken.sol\":52782:52789  isAllow */\n      dup1\n        /* \"TEXOToken.sol\":52754:52779  isAllowReduceEmissionRate */\n      0x12\n      0x00\n        /* \"TEXOToken.sol\":52754:52789  isAllowReduceEmissionRate = isAllow */\n      0x0100\n      exp\n      dup2\n      sload\n      dup2\n      0xff\n      mul\n      not\n      and\n      swap1\n      dup4\n      iszero\n      iszero\n      mul\n      or\n      swap1\n      sstore\n      pop\n        /* \"TEXOToken.sol\":52673:52796  function setFlagAllowReduceEmissionRate(bool isAllow) public onlyOwner {... */\n      pop\n      jump\t// out\n        /* \"TEXOToken.sol\":50827:51123  function setFeeAddress(address _feeAddress) public {... */\n    tag_120:\n        /* \"TEXOToken.sol\":50919:50920  0 */\n      0x00\n        /* \"TEXOToken.sol\":50896:50921  _feeAddress != address(0) */\n      0xffffffffffffffffffffffffffffffffffffffff\n      and\n        /* \"TEXOToken.sol\":50896:50907  _feeAddress */\n      dup2\n        /* \"TEXOToken.sol\":50896:50921  _feeAddress != address(0) */\n      0xffffffffffffffffffffffffffffffffffffffff\n      and\n      eq\n      iszero\n        /* \"TEXOToken.sol\":50888:50956  require(_feeAddress != address(0), \"setFeeAddress: invalid address\") */\n      tag_288\n      jumpi\n      mload(0x40)\n      0x08c379a000000000000000000000000000000000000000000000000000000000\n      dup2\n      mstore\n      0x04\n      add\n      dup1\n      dup1\n      0x20\n      add\n      dup3\n      dup2\n      sub\n      dup3\n      mstore\n      0x1e\n      dup2\n      mstore\n      0x20\n      add\n      dup1\n      0x736574466565416464726573733a20696e76616c696420616464726573730000\n      dup2\n      mstore\n      pop\n      0x20\n      add\n      swap2\n      pop\n      pop\n      mload(0x40)\n      dup1\n      swap2\n      sub\n      swap1\n      revert\n    tag_288:\n        /* \"TEXOToken.sol\":50988:50998  feeAddress */\n      0x05\n      0x00\n      swap1\n      sload\n      swap1\n      0x0100\n      exp\n      swap1\n      div\n      0xffffffffffffffffffffffffffffffffffffffff\n      and\n        /* \"TEXOToken.sol\":50974:50998  msg.sender == feeAddress */\n      0xffffffffffffffffffffffffffffffffffffffff\n      and\n        /* \"TEXOToken.sol\":50974:50984  msg.sender */\n      caller\n        /* \"TEXOToken.sol\":50974:50998  msg.sender == feeAddress */\n      0xffffffffffffffffffffffffffffffffffffffff\n      and\n      eq\n        /* \"TEXOToken.sol\":50966:51027  require(msg.sender == feeAddress, \"setFeeAddress: FORBIDDEN\") */\n      tag_289\n      jumpi\n      mload(0x40)\n      0x08c379a000000000000000000000000000000000000000000000000000000000\n      dup2\n      mstore\n      0x04\n      add\n      dup1\n      dup1\n      0x20\n      add\n      dup3\n      dup2\n      sub\n      dup3\n      mstore\n      0x18\n      dup2\n      mstore\n      0x20\n      add\n      dup1\n      0x736574466565416464726573733a20464f5242494444454e0000000000000000\n      dup2\n      mstore\n      pop\n      0x20\n      add\n      swap2\n      pop\n      pop\n      mload(0x40)\n      dup1\n      swap2\n      sub\n      swap1\n      revert\n    tag_289:\n        /* \"TEXOToken.sol\":51051:51062  _feeAddress */\n      dup1\n        /* \"TEXOToken.sol\":51038:51048  feeAddress */\n      0x05\n      0x00\n        /* \"TEXOToken.sol\":51038:51062  feeAddress = _feeAddress */\n      0x0100\n      exp\n      dup2\n      sload\n      dup2\n      0xffffffffffffffffffffffffffffffffffffffff\n      mul\n      not\n      and\n      swap1\n      dup4\n      0xffffffffffffffffffffffffffffffffffffffff\n      and\n      mul\n      or\n      swap1\n      sstore\n      pop\n        /* \"TEXOToken.sol\":51104:51115  _feeAddress */\n      dup1\n        /* \"TEXOToken.sol\":51078:51116  SetFeeAddress(msg.sender, _feeAddress) */\n      0xffffffffffffffffffffffffffffffffffffffff\n      and\n        /* \"TEXOToken.sol\":51092:51102  msg.sender */\n      caller\n        /* \"TEXOToken.sol\":51078:51116  SetFeeAddress(msg.sender, _feeAddress) */\n      0xffffffffffffffffffffffffffffffffffffffff\n      and\n      0xd44190acf9d04bdb5d3a1aafff7e6dee8b40b93dfb8c5d3f0eea4b9f4539c3f7\n      mload(0x40)\n      mload(0x40)\n      dup1\n      swap2\n      sub\n      swap1\n      log3\n        /* \"TEXOToken.sol\":50827:51123  function setFeeAddress(address _feeAddress) public {... */\n      pop\n      jump\t// out\n        /* \"TEXOToken.sol\":11449:11526  function owner() public view returns (address) {... */\n    tag_122:\n        /* \"TEXOToken.sol\":11487:11494  address */\n      0x00\n        /* \"TEXOToken.sol\":11513:11519  _owner */\n      dup1\n      0x00\n      swap1\n      sload\n      swap1\n      0x0100\n      exp\n      swap1\n      div\n      0xffffffffffffffffffffffffffffffffffffffff\n      and\n        /* \"TEXOToken.sol\":11506:11519  return _owner */\n      swap1\n      pop\n        /* \"TEXOToken.sol\":11449:11526  function owner() public view returns (address) {... */\n      swap1\n      jump\t// out\n        /* \"TEXOToken.sol\":41813:41932  function getMultiplier(uint256 _from, uint256 _to) public pure returns (uint256) {... */\n    tag_125:\n        /* \"TEXOToken.sol\":41885:41892  uint256 */\n      0x00\n        /* \"TEXOToken.sol\":41911:41925  _to.sub(_from) */\n      tag_292\n        /* \"TEXOToken.sol\":41919:41924  _from */\n      dup4\n        /* \"TEXOToken.sol\":41911:41914  _to */\n      dup4\n        /* \"TEXOToken.sol\":41911:41918  _to.sub */\n      tag_223\n      swap1\n        /* \"TEXOToken.sol\":41911:41925  _to.sub(_from) */\n      swap2\n      swap1\n      0xffffffff\n      and\n      jump\t// in\n    tag_292:\n        /* \"TEXOToken.sol\":41904:41925  return _to.sub(_from) */\n      swap1\n      pop\n        /* \"TEXOToken.sol\":41813:41932  function getMultiplier(uint256 _from, uint256 _to) public pure returns (uint256) {... */\n      swap3\n      swap2\n      pop\n      pop\n      jump\t// out\n        /* \"TEXOToken.sol\":46698:48455  function deposit(uint256 _pid, uint256 _amount, address _referrer) public nonReentrant {... */\n    tag_128:\n        /* \"TEXOToken.sol\":21196:21197  2 */\n      0x02\n        /* \"TEXOToken.sol\":21785:21792  _status */\n      sload(0x01)\n        /* \"TEXOToken.sol\":21785:21804  _status != _ENTERED */\n      eq\n      iszero\n        /* \"TEXOToken.sol\":21777:21840  require(_status != _ENTERED, \"ReentrancyGuard: reentrant call\") */\n      tag_294\n      jumpi\n      mload(0x40)\n      0x08c379a000000000000000000000000000000000000000000000000000000000\n      dup2\n      mstore\n      0x04\n      add\n      dup1\n      dup1\n      0x20\n      add\n      dup3\n      dup2\n      sub\n      dup3\n      mstore\n      0x1f\n      dup2\n      mstore\n      0x20\n      add\n      dup1\n      0x5265656e7472616e637947756172643a207265656e7472616e742063616c6c00\n      dup2\n      mstore\n      pop\n      0x20\n      add\n      swap2\n      pop\n      pop\n      mload(0x40)\n      dup1\n      swap2\n      sub\n      swap1\n      revert\n    tag_294:\n        /* \"TEXOToken.sol\":21196:21197  2 */\n      0x02\n        /* \"TEXOToken.sol\":21915:21922  _status */\n      0x01\n        /* \"TEXOToken.sol\":21915:21933  _status = _ENTERED */\n      dup2\n      swap1\n      sstore\n      pop\n        /* \"TEXOToken.sol\":46824:46833  _referrer */\n      dup1\n        /* \"TEXOToken.sol\":46803:46834  _referrer == address(_referrer) */\n      0xffffffffffffffffffffffffffffffffffffffff\n      and\n        /* \"TEXOToken.sol\":46803:46812  _referrer */\n      dup2\n        /* \"TEXOToken.sol\":46803:46834  _referrer == address(_referrer) */\n      0xffffffffffffffffffffffffffffffffffffffff\n      and\n      eq\n        /* \"TEXOToken.sol\":46795:46871  require(_referrer == address(_referrer),\"deposit: Invalid referrer address\") */\n      tag_296\n      jumpi\n      mload(0x40)\n      0x08c379a000000000000000000000000000000000000000000000000000000000\n      dup2\n      mstore\n      0x04\n      add\n      dup1\n      dup1\n      0x20\n      add\n      dup3\n      dup2\n      sub\n      dup3\n      mstore\n      0x21\n      dup2\n      mstore\n      0x20\n      add\n      dup1\n      data_542d191555ea619dedb1489efd71948659c57b11c6c1a84d1c1ce6e7c8074aad\n      0x21\n      swap2\n      codecopy\n      0x40\n      add\n      swap2\n      pop\n      pop\n      mload(0x40)\n      dup1\n      swap2\n      sub\n      swap1\n      revert\n    tag_296:\n        /* \"TEXOToken.sol\":46882:46903  PoolInfo storage pool */\n      0x00\n        /* \"TEXOToken.sol\":46906:46914  poolInfo */\n      0x09\n        /* \"TEXOToken.sol\":46915:46919  _pid */\n      dup5\n        /* \"TEXOToken.sol\":46906:46920  poolInfo[_pid] */\n      dup2\n      sload\n      dup2\n      lt\n      tag_297\n      jumpi\n      invalid\n    tag_297:\n      swap1\n      0x00\n      mstore\n      keccak256(0x00, 0x20)\n      swap1\n      0x06\n      mul\n      add\n        /* \"TEXOToken.sol\":46882:46920  PoolInfo storage pool = poolInfo[_pid] */\n      swap1\n      pop\n        /* \"TEXOToken.sol\":46930:46951  UserInfo storage user */\n      0x00\n        /* \"TEXOToken.sol\":46954:46962  userInfo */\n      0x0a\n        /* \"TEXOToken.sol\":46954:46968  userInfo[_pid] */\n      0x00\n        /* \"TEXOToken.sol\":46963:46967  _pid */\n      dup7\n        /* \"TEXOToken.sol\":46954:46968  userInfo[_pid] */\n      dup2\n      mstore\n      0x20\n      add\n      swap1\n      dup2\n      mstore\n      0x20\n      add\n      0x00\n      keccak256\n        /* \"TEXOToken.sol\":46954:46980  userInfo[_pid][msg.sender] */\n      0x00\n        /* \"TEXOToken.sol\":46969:46979  msg.sender */\n      caller\n        /* \"TEXOToken.sol\":46954:46980  userInfo[_pid][msg.sender] */\n      0xffffffffffffffffffffffffffffffffffffffff\n      and\n      0xffffffffffffffffffffffffffffffffffffffff\n      and\n      dup2\n      mstore\n      0x20\n      add\n      swap1\n      dup2\n      mstore\n      0x20\n      add\n      0x00\n      keccak256\n        /* \"TEXOToken.sol\":46930:46980  UserInfo storage user = userInfo[_pid][msg.sender] */\n      swap1\n      pop\n        /* \"TEXOToken.sol\":46991:47007  updatePool(_pid) */\n      tag_299\n        /* \"TEXOToken.sol\":47002:47006  _pid */\n      dup6\n        /* \"TEXOToken.sol\":46991:47001  updatePool */\n      tag_94\n        /* \"TEXOToken.sol\":46991:47007  updatePool(_pid) */\n      jump\t// in\n    tag_299:\n        /* \"TEXOToken.sol\":47036:47037  0 */\n      0x00\n        /* \"TEXOToken.sol\":47022:47026  user */\n      dup2\n        /* \"TEXOToken.sol\":47022:47033  user.amount */\n      0x00\n      add\n      sload\n        /* \"TEXOToken.sol\":47022:47037  user.amount > 0 */\n      gt\n        /* \"TEXOToken.sol\":47018:47572  if (user.amount > 0) {... */\n      iszero\n      tag_300\n      jumpi\n        /* \"TEXOToken.sol\":47053:47068  uint256 pending */\n      0x00\n        /* \"TEXOToken.sol\":47071:47190  user.amount... */\n      tag_301\n        /* \"TEXOToken.sol\":47174:47178  user */\n      dup3\n        /* \"TEXOToken.sol\":47174:47189  user.rewardDebt */\n      0x01\n      add\n      sload\n        /* \"TEXOToken.sol\":47071:47152  user.amount... */\n      tag_302\n        /* \"TEXOToken.sol\":47147:47151  1e12 */\n      0xe8d4a51000\n        /* \"TEXOToken.sol\":47071:47125  user.amount... */\n      tag_303\n        /* \"TEXOToken.sol\":47104:47108  pool */\n      dup8\n        /* \"TEXOToken.sol\":47104:47124  pool.accTEXOPerShare */\n      0x04\n      add\n      sload\n        /* \"TEXOToken.sol\":47071:47075  user */\n      dup8\n        /* \"TEXOToken.sol\":47071:47082  user.amount */\n      0x00\n      add\n      sload\n        /* \"TEXOToken.sol\":47071:47103  user.amount... */\n      tag_221\n      swap1\n        /* \"TEXOToken.sol\":47071:47125  user.amount... */\n      swap2\n      swap1\n      0xffffffff\n      and\n      jump\t// in\n    tag_303:\n        /* \"TEXOToken.sol\":47071:47146  user.amount... */\n      tag_222\n      swap1\n        /* \"TEXOToken.sol\":47071:47152  user.amount... */\n      swap2\n      swap1\n      0xffffffff\n      and\n      jump\t// in\n    tag_302:\n        /* \"TEXOToken.sol\":47071:47173  user.amount... */\n      tag_223\n      swap1\n        /* \"TEXOToken.sol\":47071:47190  user.amount... */\n      swap2\n      swap1\n      0xffffffff\n      and\n      jump\t// in\n    tag_301:\n        /* \"TEXOToken.sol\":47053:47190  uint256 pending = user.amount... */\n      swap1\n      pop\n        /* \"TEXOToken.sol\":47209:47229  bool canWithdrawTEXO */\n      0x00\n        /* \"TEXOToken.sol\":47232:47255  canWithdrawReward(_pid) */\n      tag_304\n        /* \"TEXOToken.sol\":47250:47254  _pid */\n      dup8\n        /* \"TEXOToken.sol\":47232:47249  canWithdrawReward */\n      tag_151\n        /* \"TEXOToken.sol\":47232:47255  canWithdrawReward(_pid) */\n      jump\t// in\n    tag_304:\n        /* \"TEXOToken.sol\":47209:47255  bool canWithdrawTEXO = canWithdrawReward(_pid) */\n      swap1\n      pop\n        /* \"TEXOToken.sol\":47274:47289  canWithdrawTEXO */\n      dup1\n        /* \"TEXOToken.sol\":47274:47304  canWithdrawTEXO && pending > 0 */\n      dup1\n      iszero\n      tag_305\n      jumpi\n      pop\n        /* \"TEXOToken.sol\":47303:47304  0 */\n      0x00\n        /* \"TEXOToken.sol\":47293:47300  pending */\n      dup3\n        /* \"TEXOToken.sol\":47293:47304  pending > 0 */\n      gt\n        /* \"TEXOToken.sol\":47274:47304  canWithdrawTEXO && pending > 0 */\n    tag_305:\n        /* \"TEXOToken.sol\":47270:47562  if (canWithdrawTEXO && pending > 0) {... */\n      iszero\n      tag_306\n      jumpi\n        /* \"TEXOToken.sol\":47324:47361  safeTEXOTransfer(msg.sender, pending) */\n      tag_307\n        /* \"TEXOToken.sol\":47341:47351  msg.sender */\n      caller\n        /* \"TEXOToken.sol\":47353:47360  pending */\n      dup4\n        /* \"TEXOToken.sol\":47324:47340  safeTEXOTransfer */\n      tag_227\n        /* \"TEXOToken.sol\":47324:47361  safeTEXOTransfer(msg.sender, pending) */\n      jump\t// in\n    tag_307:\n        /* \"TEXOToken.sol\":47379:47421  payReferralCommission(msg.sender, pending) */\n      tag_308\n        /* \"TEXOToken.sol\":47401:47411  msg.sender */\n      caller\n        /* \"TEXOToken.sol\":47413:47420  pending */\n      dup4\n        /* \"TEXOToken.sol\":47379:47400  payReferralCommission */\n      tag_229\n        /* \"TEXOToken.sol\":47379:47421  payReferralCommission(msg.sender, pending) */\n      jump\t// in\n    tag_308:\n        /* \"TEXOToken.sol\":47458:47547  user.amount... */\n      tag_309\n        /* \"TEXOToken.sol\":47542:47546  1e12 */\n      0xe8d4a51000\n        /* \"TEXOToken.sol\":47458:47516  user.amount... */\n      tag_310\n        /* \"TEXOToken.sol\":47495:47499  pool */\n      dup7\n        /* \"TEXOToken.sol\":47495:47515  pool.accTEXOPerShare */\n      0x04\n      add\n      sload\n        /* \"TEXOToken.sol\":47458:47462  user */\n      dup7\n        /* \"TEXOToken.sol\":47458:47469  user.amount */\n      0x00\n      add\n      sload\n        /* \"TEXOToken.sol\":47458:47494  user.amount... */\n      tag_221\n      swap1\n        /* \"TEXOToken.sol\":47458:47516  user.amount... */\n      swap2\n      swap1\n      0xffffffff\n      and\n      jump\t// in\n    tag_310:\n        /* \"TEXOToken.sol\":47458:47541  user.amount... */\n      tag_222\n      swap1\n        /* \"TEXOToken.sol\":47458:47547  user.amount... */\n      swap2\n      swap1\n      0xffffffff\n      and\n      jump\t// in\n    tag_309:\n        /* \"TEXOToken.sol\":47440:47444  user */\n      dup4\n        /* \"TEXOToken.sol\":47440:47455  user.rewardDebt */\n      0x01\n      add\n        /* \"TEXOToken.sol\":47440:47547  user.rewardDebt = user.amount... */\n      dup2\n      swap1\n      sstore\n      pop\n        /* \"TEXOToken.sol\":47270:47562  if (canWithdrawTEXO && pending > 0) {... */\n    tag_306:\n        /* \"TEXOToken.sol\":47018:47572  if (user.amount > 0) {... */\n      pop\n      pop\n    tag_300:\n        /* \"TEXOToken.sol\":47596:47597  0 */\n      0x00\n        /* \"TEXOToken.sol\":47586:47593  _amount */\n      dup5\n        /* \"TEXOToken.sol\":47586:47597  _amount > 0 */\n      gt\n        /* \"TEXOToken.sol\":47582:48184  if (_amount > 0) {... */\n      iszero\n      tag_311\n      jumpi\n        /* \"TEXOToken.sol\":47613:47647  setReferral(msg.sender, _referrer) */\n      tag_312\n        /* \"TEXOToken.sol\":47625:47635  msg.sender */\n      caller\n        /* \"TEXOToken.sol\":47637:47646  _referrer */\n      dup5\n        /* \"TEXOToken.sol\":47613:47624  setReferral */\n      tag_313\n        /* \"TEXOToken.sol\":47613:47647  setReferral(msg.sender, _referrer) */\n      jump\t// in\n    tag_312:\n        /* \"TEXOToken.sol\":47661:47735  pool.lpToken.safeTransferFrom(address(msg.sender), address(this), _amount) */\n      tag_314\n        /* \"TEXOToken.sol\":47699:47709  msg.sender */\n      caller\n        /* \"TEXOToken.sol\":47720:47724  this */\n      address\n        /* \"TEXOToken.sol\":47727:47734  _amount */\n      dup7\n        /* \"TEXOToken.sol\":47661:47665  pool */\n      dup6\n        /* \"TEXOToken.sol\":47661:47673  pool.lpToken */\n      0x00\n      add\n      0x00\n      swap1\n      sload\n      swap1\n      0x0100\n      exp\n      swap1\n      div\n      0xffffffffffffffffffffffffffffffffffffffff\n      and\n        /* \"TEXOToken.sol\":47661:47690  pool.lpToken.safeTransferFrom */\n      0xffffffffffffffffffffffffffffffffffffffff\n      and\n      tag_315\n      swap1\n        /* \"TEXOToken.sol\":47661:47735  pool.lpToken.safeTransferFrom(address(msg.sender), address(this), _amount) */\n      swap4\n      swap3\n      swap2\n      swap1\n      0xffffffff\n      and\n      jump\t// in\n    tag_314:\n        /* \"TEXOToken.sol\":47774:47775  0 */\n      0x00\n        /* \"TEXOToken.sol\":47754:47758  pool */\n      dup3\n        /* \"TEXOToken.sol\":47754:47771  pool.depositFeeBP */\n      0x05\n      add\n      0x00\n      swap1\n      sload\n      swap1\n      0x0100\n      exp\n      swap1\n      div\n      0xffff\n      and\n        /* \"TEXOToken.sol\":47754:47775  pool.depositFeeBP > 0 */\n      0xffff\n      and\n      gt\n        /* \"TEXOToken.sol\":47750:48174  if (pool.depositFeeBP > 0) {... */\n      iszero\n      tag_316\n      jumpi\n        /* \"TEXOToken.sol\":47795:47813  uint256 depositFee */\n      0x00\n        /* \"TEXOToken.sol\":47816:47899  _amount... */\n      tag_317\n        /* \"TEXOToken.sol\":47893:47898  10000 */\n      0x2710\n        /* \"TEXOToken.sol\":47816:47867  _amount... */\n      tag_318\n        /* \"TEXOToken.sol\":47849:47853  pool */\n      dup6\n        /* \"TEXOToken.sol\":47849:47866  pool.depositFeeBP */\n      0x05\n      add\n      0x00\n      swap1\n      sload\n      swap1\n      0x0100\n      exp\n      swap1\n      div\n      0xffff\n      and\n        /* \"TEXOToken.sol\":47816:47867  _amount... */\n      0xffff\n      and\n        /* \"TEXOToken.sol\":47816:47823  _amount */\n      dup9\n        /* \"TEXOToken.sol\":47816:47848  _amount... */\n      tag_221\n      swap1\n        /* \"TEXOToken.sol\":47816:47867  _amount... */\n      swap2\n      swap1\n      0xffffffff\n      and\n      jump\t// in\n    tag_318:\n        /* \"TEXOToken.sol\":47816:47892  _amount... */\n      tag_222\n      swap1\n        /* \"TEXOToken.sol\":47816:47899  _amount... */\n      swap2\n      swap1\n      0xffffffff\n      and\n      jump\t// in\n    tag_317:\n        /* \"TEXOToken.sol\":47795:47899  uint256 depositFee = _amount... */\n      swap1\n      pop\n        /* \"TEXOToken.sol\":47932:48014  user.amount... */\n      tag_319\n        /* \"TEXOToken.sol\":48003:48013  depositFee */\n      dup2\n        /* \"TEXOToken.sol\":47932:47977  user.amount... */\n      tag_320\n        /* \"TEXOToken.sol\":47969:47976  _amount */\n      dup8\n        /* \"TEXOToken.sol\":47932:47936  user */\n      dup6\n        /* \"TEXOToken.sol\":47932:47943  user.amount */\n      0x00\n      add\n      sload\n        /* \"TEXOToken.sol\":47932:47968  user.amount... */\n      tag_197\n      swap1\n        /* \"TEXOToken.sol\":47932:47977  user.amount... */\n      swap2\n      swap1\n      0xffffffff\n      and\n      jump\t// in\n    tag_320:\n        /* \"TEXOToken.sol\":47932:48002  user.amount... */\n      tag_223\n      swap1\n        /* \"TEXOToken.sol\":47932:48014  user.amount... */\n      swap2\n      swap1\n      0xffffffff\n      and\n      jump\t// in\n    tag_319:\n        /* \"TEXOToken.sol\":47918:47922  user */\n      dup3\n        /* \"TEXOToken.sol\":47918:47929  user.amount */\n      0x00\n      add\n        /* \"TEXOToken.sol\":47918:48014  user.amount = user.amount... */\n      dup2\n      swap1\n      sstore\n      pop\n        /* \"TEXOToken.sol\":48033:48082  pool.lpToken.safeTransfer(feeAddress, depositFee) */\n      tag_321\n        /* \"TEXOToken.sol\":48059:48069  feeAddress */\n      0x05\n      0x00\n      swap1\n      sload\n      swap1\n      0x0100\n      exp\n      swap1\n      div\n      0xffffffffffffffffffffffffffffffffffffffff\n      and\n        /* \"TEXOToken.sol\":48071:48081  depositFee */\n      dup3\n        /* \"TEXOToken.sol\":48033:48037  pool */\n      dup6\n        /* \"TEXOToken.sol\":48033:48045  pool.lpToken */\n      0x00\n      add\n      0x00\n      swap1\n      sload\n      swap1\n      0x0100\n      exp\n      swap1\n      div\n      0xffffffffffffffffffffffffffffffffffffffff\n      and\n        /* \"TEXOToken.sol\":48033:48058  pool.lpToken.safeTransfer */\n      0xffffffffffffffffffffffffffffffffffffffff\n      and\n      tag_235\n      swap1\n        /* \"TEXOToken.sol\":48033:48082  pool.lpToken.safeTransfer(feeAddress, depositFee) */\n      swap3\n      swap2\n      swap1\n      0xffffffff\n      and\n      jump\t// in\n    tag_321:\n        /* \"TEXOToken.sol\":47750:48174  if (pool.depositFeeBP > 0) {... */\n      pop\n      jump(tag_322)\n    tag_316:\n        /* \"TEXOToken.sol\":48135:48159  user.amount.add(_amount) */\n      tag_323\n        /* \"TEXOToken.sol\":48151:48158  _amount */\n      dup5\n        /* \"TEXOToken.sol\":48135:48139  user */\n      dup3\n        /* \"TEXOToken.sol\":48135:48146  user.amount */\n      0x00\n      add\n      sload\n        /* \"TEXOToken.sol\":48135:48150  user.amount.add */\n      tag_197\n      swap1\n        /* \"TEXOToken.sol\":48135:48159  user.amount.add(_amount) */\n      swap2\n      swap1\n      0xffffffff\n      and\n      jump\t// in\n    tag_323:\n        /* \"TEXOToken.sol\":48121:48125  user */\n      dup2\n        /* \"TEXOToken.sol\":48121:48132  user.amount */\n      0x00\n      add\n        /* \"TEXOToken.sol\":48121:48159  user.amount = user.amount.add(_amount) */\n      dup2\n      swap1\n      sstore\n      pop\n        /* \"TEXOToken.sol\":47750:48174  if (pool.depositFeeBP > 0) {... */\n    tag_322:\n        /* \"TEXOToken.sol\":47582:48184  if (_amount > 0) {... */\n    tag_311:\n        /* \"TEXOToken.sol\":48199:48203  user */\n      dup1\n        /* \"TEXOToken.sol\":48199:48219  user.isAlreadyStaked */\n      0x02\n      add\n      0x00\n      swap1\n      sload\n      swap1\n      0x0100\n      exp\n      swap1\n      div\n      0xff\n      and\n        /* \"TEXOToken.sol\":48194:48399  if (!user.isAlreadyStaked) {... */\n      tag_324\n      jumpi\n        /* \"TEXOToken.sol\":48253:48334  user.amount... */\n      tag_325\n        /* \"TEXOToken.sol\":48329:48333  1e12 */\n      0xe8d4a51000\n        /* \"TEXOToken.sol\":48253:48307  user.amount... */\n      tag_326\n        /* \"TEXOToken.sol\":48286:48290  pool */\n      dup5\n        /* \"TEXOToken.sol\":48286:48306  pool.accTEXOPerShare */\n      0x04\n      add\n      sload\n        /* \"TEXOToken.sol\":48253:48257  user */\n      dup5\n        /* \"TEXOToken.sol\":48253:48264  user.amount */\n      0x00\n      add\n      sload\n        /* \"TEXOToken.sol\":48253:48285  user.amount... */\n      tag_221\n      swap1\n        /* \"TEXOToken.sol\":48253:48307  user.amount... */\n      swap2\n      swap1\n      0xffffffff\n      and\n      jump\t// in\n    tag_326:\n        /* \"TEXOToken.sol\":48253:48328  user.amount... */\n      tag_222\n      swap1\n        /* \"TEXOToken.sol\":48253:48334  user.amount... */\n      swap2\n      swap1\n      0xffffffff\n      and\n      jump\t// in\n    tag_325:\n        /* \"TEXOToken.sol\":48235:48239  user */\n      dup2\n        /* \"TEXOToken.sol\":48235:48250  user.rewardDebt */\n      0x01\n      add\n        /* \"TEXOToken.sol\":48235:48334  user.rewardDebt = user.amount... */\n      dup2\n      swap1\n      sstore\n      pop\n        /* \"TEXOToken.sol\":48384:48388  true */\n      0x01\n        /* \"TEXOToken.sol\":48361:48365  user */\n      dup2\n        /* \"TEXOToken.sol\":48361:48381  user.isAlreadyStaked */\n      0x02\n      add\n      0x00\n        /* \"TEXOToken.sol\":48361:48388  user.isAlreadyStaked = true */\n      0x0100\n      exp\n      dup2\n      sload\n      dup2\n      0xff\n      mul\n      not\n      and\n      swap1\n      dup4\n      iszero\n      iszero\n      mul\n      or\n      swap1\n      sstore\n      pop\n        /* \"TEXOToken.sol\":48194:48399  if (!user.isAlreadyStaked) {... */\n    tag_324:\n        /* \"TEXOToken.sol\":48434:48438  _pid */\n      dup5\n        /* \"TEXOToken.sol\":48422:48432  msg.sender */\n      caller\n        /* \"TEXOToken.sol\":48414:48448  Deposit(msg.sender, _pid, _amount) */\n      0xffffffffffffffffffffffffffffffffffffffff\n      and\n      0x90890809c654f11d6e72a28fa60149770a0d11ec6c92319d6ceb2bb0a4ea1a15\n        /* \"TEXOToken.sol\":48440:48447  _amount */\n      dup7\n        /* \"TEXOToken.sol\":48414:48448  Deposit(msg.sender, _pid, _amount) */\n      mload(0x40)\n      dup1\n      dup3\n      dup2\n      mstore\n      0x20\n      add\n      swap2\n      pop\n      pop\n      mload(0x40)\n      dup1\n      swap2\n      sub\n      swap1\n      log3\n        /* \"TEXOToken.sol\":21944:21945  _ */\n      pop\n      pop\n        /* \"TEXOToken.sol\":21153:21154  1 */\n      0x01\n        /* \"TEXOToken.sol\":22088:22095  _status */\n      dup1\n        /* \"TEXOToken.sol\":22088:22110  _status = _NOT_ENTERED */\n      dup2\n      swap1\n      sstore\n      pop\n        /* \"TEXOToken.sol\":46698:48455  function deposit(uint256 _pid, uint256 _amount, address _referrer) public nonReentrant {... */\n      pop\n      pop\n      pop\n      jump\t// out\n        /* \"TEXOToken.sol\":36815:36873  uint256 public constant INITIAL_EMISSION_RATE = 500 finney */\n    tag_130:\n        /* \"TEXOToken.sol\":36863:36873  500 finney */\n      0x06f05b59d3b20000\n        /* \"TEXOToken.sol\":36815:36873  uint256 public constant INITIAL_EMISSION_RATE = 500 finney */\n      dup2\n      jump\t// out\n        /* \"TEXOToken.sol\":35917:35981  mapping(uint256 => mapping(address => UserInfo)) public userInfo */\n    tag_133:\n      mstore(0x20, 0x0a)\n      dup2\n      0x00\n      mstore\n      mstore(0x20, keccak256(0x00, 0x40))\n      dup1\n      0x00\n      mstore\n      keccak256(0x00, 0x40)\n      0x00\n      swap2\n      pop\n      swap2\n      pop\n      pop\n      dup1\n      0x00\n      add\n      sload\n      swap1\n      dup1\n      0x01\n      add\n      sload\n      swap1\n      dup1\n      0x02\n      add\n      0x00\n      swap1\n      sload\n      swap1\n      0x0100\n      exp\n      swap1\n      div\n      0xff\n      and\n      swap1\n      pop\n      dup4\n      jump\t// out\n        /* \"TEXOToken.sol\":36239:36291  uint16 public constant MAXIMUM_DEPOSIT_FEE_BP = 1000 */\n    tag_135:\n        /* \"TEXOToken.sol\":36287:36291  1000 */\n      0x03e8\n        /* \"TEXOToken.sol\":36239:36291  uint16 public constant MAXIMUM_DEPOSIT_FEE_BP = 1000 */\n      dup2\n      jump\t// out\n        /* \"TEXOToken.sol\":36706:36758  mapping(IBEP20 => uint256) public poolIdForLpAddress */\n    tag_138:\n      mstore(0x20, 0x10)\n      dup1\n      0x00\n      mstore\n      keccak256(0x00, 0x40)\n      0x00\n      swap2\n      pop\n      swap1\n      pop\n      sload\n      dup2\n      jump\t// out\n        /* \"TEXOToken.sol\":35698:35747  uint256 public globalBlockToUnlockClaimingRewards */\n    tag_140:\n      sload(0x07)\n      dup2\n      jump\t// out\n        /* \"TEXOToken.sol\":52802:53083  function setEmissionRate(uint256 newEmissionRate) public onlyOwner {... */\n    tag_143:\n        /* \"TEXOToken.sol\":11663:11675  _msgSender() */\n      tag_328\n        /* \"TEXOToken.sol\":11663:11673  _msgSender */\n      tag_186\n        /* \"TEXOToken.sol\":11663:11675  _msgSender() */\n      jump\t// in\n    tag_328:\n        /* \"TEXOToken.sol\":11653:11675  _owner == _msgSender() */\n      0xffffffffffffffffffffffffffffffffffffffff\n      and\n        /* \"TEXOToken.sol\":11653:11659  _owner */\n      0x00\n      dup1\n      sload\n      swap1\n      0x0100\n      exp\n      swap1\n      div\n      0xffffffffffffffffffffffffffffffffffffffff\n      and\n        /* \"TEXOToken.sol\":11653:11675  _owner == _msgSender() */\n      0xffffffffffffffffffffffffffffffffffffffff\n      and\n      eq\n        /* \"TEXOToken.sol\":11645:11712  require(_owner == _msgSender(), \"Ownable: caller is not the owner\") */\n      tag_329\n      jumpi\n      mload(0x40)\n      0x08c379a000000000000000000000000000000000000000000000000000000000\n      dup2\n      mstore\n      0x04\n      add\n      dup1\n      dup1\n      0x20\n      add\n      dup3\n      dup2\n      sub\n      dup3\n      mstore\n      0x20\n      dup2\n      mstore\n      0x20\n      add\n      dup1\n      0x4f776e61626c653a2063616c6c6572206973206e6f7420746865206f776e6572\n      dup2\n      mstore\n      pop\n      0x20\n      add\n      swap2\n      pop\n      pop\n      mload(0x40)\n      dup1\n      swap2\n      sub\n      swap1\n      revert\n    tag_329:\n        /* \"TEXOToken.sol\":52879:52907  uint256 previousEmissionRate */\n      0x00\n        /* \"TEXOToken.sol\":52910:52922  tEXOPerBlock */\n      sload(0x04)\n        /* \"TEXOToken.sol\":52879:52922  uint256 previousEmissionRate = tEXOPerBlock */\n      swap1\n      pop\n        /* \"TEXOToken.sol\":52947:52962  newEmissionRate */\n      dup2\n        /* \"TEXOToken.sol\":52932:52944  tEXOPerBlock */\n      0x04\n        /* \"TEXOToken.sol\":52932:52962  tEXOPerBlock = newEmissionRate */\n      dup2\n      swap1\n      sstore\n      pop\n        /* \"TEXOToken.sol\":52973:52990  massUpdatePools() */\n      tag_331\n        /* \"TEXOToken.sol\":52973:52988  massUpdatePools */\n      tag_103\n        /* \"TEXOToken.sol\":52973:52990  massUpdatePools() */\n      jump\t// in\n    tag_331:\n        /* \"TEXOToken.sol\":53026:53036  msg.sender */\n      caller\n        /* \"TEXOToken.sol\":53006:53076  EmissionRateUpdated(msg.sender, previousEmissionRate, newEmissionRate) */\n      0xffffffffffffffffffffffffffffffffffffffff\n      and\n      0xeedc6338c9c1ad8f3cd6c90dd09dbe98dbd57e610d3e59a17996d07acb0d9511\n        /* \"TEXOToken.sol\":53038:53058  previousEmissionRate */\n      dup3\n        /* \"TEXOToken.sol\":53060:53075  newEmissionRate */\n      dup5\n        /* \"TEXOToken.sol\":53006:53076  EmissionRateUpdated(msg.sender, previousEmissionRate, newEmissionRate) */\n      mload(0x40)\n      dup1\n      dup4\n      dup2\n      mstore\n      0x20\n      add\n      dup3\n      dup2\n      mstore\n      0x20\n      add\n      swap3\n      pop\n      pop\n      pop\n      mload(0x40)\n      dup1\n      swap2\n      sub\n      swap1\n      log2\n        /* \"TEXOToken.sol\":11722:11723  _ */\n      pop\n        /* \"TEXOToken.sol\":52802:53083  function setEmissionRate(uint256 newEmissionRate) public onlyOwner {... */\n      pop\n      jump\t// out\n        /* \"TEXOToken.sol\":35386:35407  TEXOToken public tEXO */\n    tag_145:\n      0x02\n      0x00\n      swap1\n      sload\n      swap1\n      0x0100\n      exp\n      swap1\n      div\n      0xffffffffffffffffffffffffffffffffffffffff\n      and\n      dup2\n      jump\t// out\n        /* \"TEXOToken.sol\":39037:39225  function setGlobalBlockToUnlockClaimingRewards(uint256 _blockToUnlockClaimingRewards) external onlyOwner {... */\n    tag_148:\n        /* \"TEXOToken.sol\":11663:11675  _msgSender() */\n      tag_333\n        /* \"TEXOToken.sol\":11663:11673  _msgSender */\n      tag_186\n        /* \"TEXOToken.sol\":11663:11675  _msgSender() */\n      jump\t// in\n    tag_333:\n        /* \"TEXOToken.sol\":11653:11675  _owner == _msgSender() */\n      0xffffffffffffffffffffffffffffffffffffffff\n      and\n        /* \"TEXOToken.sol\":11653:11659  _owner */\n      0x00\n      dup1\n      sload\n      swap1\n      0x0100\n      exp\n      swap1\n      div\n      0xffffffffffffffffffffffffffffffffffffffff\n      and\n        /* \"TEXOToken.sol\":11653:11675  _owner == _msgSender() */\n      0xffffffffffffffffffffffffffffffffffffffff\n      and\n      eq\n        /* \"TEXOToken.sol\":11645:11712  require(_owner == _msgSender(), \"Ownable: caller is not the owner\") */\n      tag_334\n      jumpi\n      mload(0x40)\n      0x08c379a000000000000000000000000000000000000000000000000000000000\n      dup2\n      mstore\n      0x04\n      add\n      dup1\n      dup1\n      0x20\n      add\n      dup3\n      dup2\n      sub\n      dup3\n      mstore\n      0x20\n      dup2\n      mstore\n      0x20\n      add\n      dup1\n      0x4f776e61626c653a2063616c6c6572206973206e6f7420746865206f776e6572\n      dup2\n      mstore\n      pop\n      0x20\n      add\n      swap2\n      pop\n      pop\n      mload(0x40)\n      dup1\n      swap2\n      sub\n      swap1\n      revert\n    tag_334:\n        /* \"TEXOToken.sol\":39189:39218  _blockToUnlockClaimingRewards */\n      dup1\n        /* \"TEXOToken.sol\":39152:39186  globalBlockToUnlockClaimingRewards */\n      0x07\n        /* \"TEXOToken.sol\":39152:39218  globalBlockToUnlockClaimingRewards = _blockToUnlockClaimingRewards */\n      dup2\n      swap1\n      sstore\n      pop\n        /* \"TEXOToken.sol\":39037:39225  function setGlobalBlockToUnlockClaimingRewards(uint256 _blockToUnlockClaimingRewards) external onlyOwner {... */\n      pop\n      jump\t// out\n        /* \"TEXOToken.sol\":44630:44812  function canWithdrawReward(uint256 _pid) public view returns (bool) {... */\n    tag_151:\n        /* \"TEXOToken.sol\":44692:44696  bool */\n      0x00\n        /* \"TEXOToken.sol\":44708:44729  PoolInfo storage pool */\n      dup1\n        /* \"TEXOToken.sol\":44732:44740  poolInfo */\n      0x09\n        /* \"TEXOToken.sol\":44741:44745  _pid */\n      dup4\n        /* \"TEXOToken.sol\":44732:44746  poolInfo[_pid] */\n      dup2\n      sload\n      dup2\n      lt\n      tag_337\n      jumpi\n      invalid\n    tag_337:\n      swap1\n      0x00\n      mstore\n      keccak256(0x00, 0x20)\n      swap1\n      0x06\n      mul\n      add\n        /* \"TEXOToken.sol\":44708:44746  PoolInfo storage pool = poolInfo[_pid] */\n      swap1\n      pop\n        /* \"TEXOToken.sol\":44793:44805  block.number */\n      number\n        /* \"TEXOToken.sol\":44764:44768  pool */\n      dup2\n        /* \"TEXOToken.sol\":44764:44789  pool.blockToReceiveReward */\n      0x02\n      add\n      sload\n        /* \"TEXOToken.sol\":44764:44805  pool.blockToReceiveReward <= block.number */\n      gt\n      iszero\n        /* \"TEXOToken.sol\":44757:44805  return pool.blockToReceiveReward <= block.number */\n      swap2\n      pop\n      pop\n        /* \"TEXOToken.sol\":44630:44812  function canWithdrawReward(uint256 _pid) public view returns (bool) {... */\n      swap2\n      swap1\n      pop\n      jump\t// out\n        /* \"TEXOToken.sol\":37184:37249  uint256 public constant EMISSION_REDUCTION_RATE_PER_PERIOD = 1500 */\n    tag_153:\n        /* \"TEXOToken.sol\":37245:37249  1500 */\n      0x05dc\n        /* \"TEXOToken.sol\":37184:37249  uint256 public constant EMISSION_REDUCTION_RATE_PER_PERIOD = 1500 */\n      dup2\n      jump\t// out\n        /* \"TEXOToken.sol\":40971:41740  function set(... */\n    tag_156:\n        /* \"TEXOToken.sol\":11663:11675  _msgSender() */\n      tag_340\n        /* \"TEXOToken.sol\":11663:11673  _msgSender */\n      tag_186\n        /* \"TEXOToken.sol\":11663:11675  _msgSender() */\n      jump\t// in\n    tag_340:\n        /* \"TEXOToken.sol\":11653:11675  _owner == _msgSender() */\n      0xffffffffffffffffffffffffffffffffffffffff\n      and\n        /* \"TEXOToken.sol\":11653:11659  _owner */\n      0x00\n      dup1\n      sload\n      swap1\n      0x0100\n      exp\n      swap1\n      div\n      0xffffffffffffffffffffffffffffffffffffffff\n      and\n        /* \"TEXOToken.sol\":11653:11675  _owner == _msgSender() */\n      0xffffffffffffffffffffffffffffffffffffffff\n      and\n      eq\n        /* \"TEXOToken.sol\":11645:11712  require(_owner == _msgSender(), \"Ownable: caller is not the owner\") */\n      tag_341\n      jumpi\n      mload(0x40)\n      0x08c379a000000000000000000000000000000000000000000000000000000000\n      dup2\n      mstore\n      0x04\n      add\n      dup1\n      dup1\n      0x20\n      add\n      dup3\n      dup2\n      sub\n      dup3\n      mstore\n      0x20\n      dup2\n      mstore\n      0x20\n      add\n      dup1\n      0x4f776e61626c653a2063616c6c6572206973206e6f7420746865206f776e6572\n      dup2\n      mstore\n      pop\n      0x20\n      add\n      swap2\n      pop\n      pop\n      mload(0x40)\n      dup1\n      swap2\n      sub\n      swap1\n      revert\n    tag_341:\n        /* \"TEXOToken.sol\":36287:36291  1000 */\n      0x03e8\n        /* \"TEXOToken.sol\":41171:41210  _depositFeeBP <= MAXIMUM_DEPOSIT_FEE_BP */\n      0xffff\n      and\n        /* \"TEXOToken.sol\":41171:41184  _depositFeeBP */\n      dup4\n        /* \"TEXOToken.sol\":41171:41210  _depositFeeBP <= MAXIMUM_DEPOSIT_FEE_BP */\n      0xffff\n      and\n      gt\n      iszero\n        /* \"TEXOToken.sol\":41163:41252  require(_depositFeeBP <= MAXIMUM_DEPOSIT_FEE_BP, \"set: invalid deposit fee basis points\") */\n      tag_343\n      jumpi\n      mload(0x40)\n      0x08c379a000000000000000000000000000000000000000000000000000000000\n      dup2\n      mstore\n      0x04\n      add\n      dup1\n      dup1\n      0x20\n      add\n      dup3\n      dup2\n      sub\n      dup3\n      mstore\n      0x25\n      dup2\n      mstore\n      0x20\n      add\n      dup1\n      data_9353dfb5d58f0da66015bbcadafa0686e2e7b7226db2e603088e70c7012680cf\n      0x25\n      swap2\n      codecopy\n      0x40\n      add\n      swap2\n      pop\n      pop\n      mload(0x40)\n      dup1\n      swap2\n      sub\n      swap1\n      revert\n    tag_343:\n        /* \"TEXOToken.sol\":41266:41277  _withUpdate */\n      dup2\n        /* \"TEXOToken.sol\":41262:41321  if (_withUpdate) {... */\n      iszero\n      tag_344\n      jumpi\n        /* \"TEXOToken.sol\":41293:41310  massUpdatePools() */\n      tag_345\n        /* \"TEXOToken.sol\":41293:41308  massUpdatePools */\n      tag_103\n        /* \"TEXOToken.sol\":41293:41310  massUpdatePools() */\n      jump\t// in\n    tag_345:\n        /* \"TEXOToken.sol\":41262:41321  if (_withUpdate) {... */\n    tag_344:\n        /* \"TEXOToken.sol\":41331:41359  uint256 blockToReceiveReward */\n      0x00\n        /* \"TEXOToken.sol\":41386:41387  0 */\n      dup1\n        /* \"TEXOToken.sol\":41362:41383  _blockToReceiveReward */\n      dup3\n        /* \"TEXOToken.sol\":41362:41387  _blockToReceiveReward > 0 */\n      gt\n        /* \"TEXOToken.sol\":41362:41448  _blockToReceiveReward > 0 ? _blockToReceiveReward : globalBlockToUnlockClaimingRewards */\n      tag_346\n      jumpi\n        /* \"TEXOToken.sol\":41414:41448  globalBlockToUnlockClaimingRewards */\n      sload(0x07)\n        /* \"TEXOToken.sol\":41362:41448  _blockToReceiveReward > 0 ? _blockToReceiveReward : globalBlockToUnlockClaimingRewards */\n      jump(tag_347)\n    tag_346:\n        /* \"TEXOToken.sol\":41390:41411  _blockToReceiveReward */\n      dup2\n        /* \"TEXOToken.sol\":41362:41448  _blockToReceiveReward > 0 ? _blockToReceiveReward : globalBlockToUnlockClaimingRewards */\n    tag_347:\n        /* \"TEXOToken.sol\":41331:41448  uint256 blockToReceiveReward = _blockToReceiveReward > 0 ? _blockToReceiveReward : globalBlockToUnlockClaimingRewards */\n      swap1\n      pop\n        /* \"TEXOToken.sol\":41477:41562  totalAllocPoint.sub(poolInfo[_pid].allocPoint).add(... */\n      tag_348\n        /* \"TEXOToken.sol\":41541:41552  _allocPoint */\n      dup6\n        /* \"TEXOToken.sol\":41477:41523  totalAllocPoint.sub(poolInfo[_pid].allocPoint) */\n      tag_349\n        /* \"TEXOToken.sol\":41497:41505  poolInfo */\n      0x09\n        /* \"TEXOToken.sol\":41506:41510  _pid */\n      dup10\n        /* \"TEXOToken.sol\":41497:41511  poolInfo[_pid] */\n      dup2\n      sload\n      dup2\n      lt\n      tag_350\n      jumpi\n      invalid\n    tag_350:\n      swap1\n      0x00\n      mstore\n      keccak256(0x00, 0x20)\n      swap1\n      0x06\n      mul\n      add\n        /* \"TEXOToken.sol\":41497:41522  poolInfo[_pid].allocPoint */\n      0x01\n      add\n      sload\n        /* \"TEXOToken.sol\":41477:41492  totalAllocPoint */\n      sload(0x0b)\n        /* \"TEXOToken.sol\":41477:41496  totalAllocPoint.sub */\n      tag_223\n      swap1\n        /* \"TEXOToken.sol\":41477:41523  totalAllocPoint.sub(poolInfo[_pid].allocPoint) */\n      swap2\n      swap1\n      0xffffffff\n      and\n      jump\t// in\n    tag_349:\n        /* \"TEXOToken.sol\":41477:41527  totalAllocPoint.sub(poolInfo[_pid].allocPoint).add */\n      tag_197\n      swap1\n        /* \"TEXOToken.sol\":41477:41562  totalAllocPoint.sub(poolInfo[_pid].allocPoint).add(... */\n      swap2\n      swap1\n      0xffffffff\n      and\n      jump\t// in\n    tag_348:\n        /* \"TEXOToken.sol\":41459:41474  totalAllocPoint */\n      0x0b\n        /* \"TEXOToken.sol\":41459:41562  totalAllocPoint = totalAllocPoint.sub(poolInfo[_pid].allocPoint).add(... */\n      dup2\n      swap1\n      sstore\n      pop\n        /* \"TEXOToken.sol\":41601:41612  _allocPoint */\n      dup5\n        /* \"TEXOToken.sol\":41573:41581  poolInfo */\n      0x09\n        /* \"TEXOToken.sol\":41582:41586  _pid */\n      dup8\n        /* \"TEXOToken.sol\":41573:41587  poolInfo[_pid] */\n      dup2\n      sload\n      dup2\n      lt\n      tag_352\n      jumpi\n      invalid\n    tag_352:\n      swap1\n      0x00\n      mstore\n      keccak256(0x00, 0x20)\n      swap1\n      0x06\n      mul\n      add\n        /* \"TEXOToken.sol\":41573:41598  poolInfo[_pid].allocPoint */\n      0x01\n      add\n        /* \"TEXOToken.sol\":41573:41612  poolInfo[_pid].allocPoint = _allocPoint */\n      dup2\n      swap1\n      sstore\n      pop\n        /* \"TEXOToken.sol\":41652:41665  _depositFeeBP */\n      dup4\n        /* \"TEXOToken.sol\":41622:41630  poolInfo */\n      0x09\n        /* \"TEXOToken.sol\":41631:41635  _pid */\n      dup8\n        /* \"TEXOToken.sol\":41622:41636  poolInfo[_pid] */\n      dup2\n      sload\n      dup2\n      lt\n      tag_354\n      jumpi\n      invalid\n    tag_354:\n      swap1\n      0x00\n      mstore\n      keccak256(0x00, 0x20)\n      swap1\n      0x06\n      mul\n      add\n        /* \"TEXOToken.sol\":41622:41649  poolInfo[_pid].depositFeeBP */\n      0x05\n      add\n      0x00\n        /* \"TEXOToken.sol\":41622:41665  poolInfo[_pid].depositFeeBP = _depositFeeBP */\n      0x0100\n      exp\n      dup2\n      sload\n      dup2\n      0xffff\n      mul\n      not\n      and\n      swap1\n      dup4\n      0xffff\n      and\n      mul\n      or\n      swap1\n      sstore\n      pop\n        /* \"TEXOToken.sol\":41713:41733  blockToReceiveReward */\n      dup1\n        /* \"TEXOToken.sol\":41675:41683  poolInfo */\n      0x09\n        /* \"TEXOToken.sol\":41684:41688  _pid */\n      dup8\n        /* \"TEXOToken.sol\":41675:41689  poolInfo[_pid] */\n      dup2\n      sload\n      dup2\n      lt\n      tag_356\n      jumpi\n      invalid\n    tag_356:\n      swap1\n      0x00\n      mstore\n      keccak256(0x00, 0x20)\n      swap1\n      0x06\n      mul\n      add\n        /* \"TEXOToken.sol\":41675:41710  poolInfo[_pid].blockToReceiveReward */\n      0x02\n      add\n        /* \"TEXOToken.sol\":41675:41733  poolInfo[_pid].blockToReceiveReward = blockToReceiveReward */\n      dup2\n      swap1\n      sstore\n      pop\n        /* \"TEXOToken.sol\":11722:11723  _ */\n      pop\n        /* \"TEXOToken.sol\":40971:41740  function set(... */\n      pop\n      pop\n      pop\n      pop\n      pop\n      jump\t// out\n        /* \"TEXOToken.sol\":36626:36670  mapping(IBEP20 => bool) public poolExistence */\n    tag_159:\n      mstore(0x20, 0x0f)\n      dup1\n      0x00\n      mstore\n      keccak256(0x00, 0x40)\n      0x00\n      swap2\n      pop\n      sload\n      swap1\n      0x0100\n      exp\n      swap1\n      div\n      0xff\n      and\n      dup2\n      jump\t// out\n        /* \"TEXOToken.sol\":50513:50766  function setDevAddress(address _devaddr) public {... */\n    tag_162:\n        /* \"TEXOToken.sol\":50599:50600  0 */\n      0x00\n        /* \"TEXOToken.sol\":50579:50601  _devaddr != address(0) */\n      0xffffffffffffffffffffffffffffffffffffffff\n      and\n        /* \"TEXOToken.sol\":50579:50587  _devaddr */\n      dup2\n        /* \"TEXOToken.sol\":50579:50601  _devaddr != address(0) */\n      0xffffffffffffffffffffffffffffffffffffffff\n      and\n      eq\n      iszero\n        /* \"TEXOToken.sol\":50571:50626  require(_devaddr != address(0), \"dev: invalid address\") */\n      tag_359\n      jumpi\n      mload(0x40)\n      0x08c379a000000000000000000000000000000000000000000000000000000000\n      dup2\n      mstore\n      0x04\n      add\n      dup1\n      dup1\n      0x20\n      add\n      dup3\n      dup2\n      sub\n      dup3\n      mstore\n      0x14\n      dup2\n      mstore\n      0x20\n      add\n      dup1\n      0x6465763a20696e76616c69642061646472657373000000000000000000000000\n      dup2\n      mstore\n      pop\n      0x20\n      add\n      swap2\n      pop\n      pop\n      mload(0x40)\n      dup1\n      swap2\n      sub\n      swap1\n      revert\n    tag_359:\n        /* \"TEXOToken.sol\":50658:50665  devAddr */\n      0x03\n      0x00\n      swap1\n      sload\n      swap1\n      0x0100\n      exp\n      swap1\n      div\n      0xffffffffffffffffffffffffffffffffffffffff\n      and\n        /* \"TEXOToken.sol\":50644:50665  msg.sender == devAddr */\n      0xffffffffffffffffffffffffffffffffffffffff\n      and\n        /* \"TEXOToken.sol\":50644:50654  msg.sender */\n      caller\n        /* \"TEXOToken.sol\":50644:50665  msg.sender == devAddr */\n      0xffffffffffffffffffffffffffffffffffffffff\n      and\n      eq\n        /* \"TEXOToken.sol\":50636:50679  require(msg.sender == devAddr, \"dev: wut?\") */\n      tag_360\n      jumpi\n      mload(0x40)\n      0x08c379a000000000000000000000000000000000000000000000000000000000\n      dup2\n      mstore\n      0x04\n      add\n      dup1\n      dup1\n      0x20\n      add\n      dup3\n      dup2\n      sub\n      dup3\n      mstore\n      0x09\n      dup2\n      mstore\n      0x20\n      add\n      dup1\n      0x6465763a207775743f0000000000000000000000000000000000000000000000\n      dup2\n      mstore\n      pop\n      0x20\n      add\n      swap2\n      pop\n      pop\n      mload(0x40)\n      dup1\n      swap2\n      sub\n      swap1\n      revert\n    tag_360:\n        /* \"TEXOToken.sol\":50700:50708  _devaddr */\n      dup1\n        /* \"TEXOToken.sol\":50690:50697  devAddr */\n      0x03\n      0x00\n        /* \"TEXOToken.sol\":50690:50708  devAddr = _devaddr */\n      0x0100\n      exp\n      dup2\n      sload\n      dup2\n      0xffffffffffffffffffffffffffffffffffffffff\n      mul\n      not\n      and\n      swap1\n      dup4\n      0xffffffffffffffffffffffffffffffffffffffff\n      and\n      mul\n      or\n      swap1\n      sstore\n      pop\n        /* \"TEXOToken.sol\":50750:50758  _devaddr */\n      dup1\n        /* \"TEXOToken.sol\":50724:50759  SetDevAddress(msg.sender, _devaddr) */\n      0xffffffffffffffffffffffffffffffffffffffff\n      and\n        /* \"TEXOToken.sol\":50738:50748  msg.sender */\n      caller\n        /* \"TEXOToken.sol\":50724:50759  SetDevAddress(msg.sender, _devaddr) */\n      0xffffffffffffffffffffffffffffffffffffffff\n      and\n      0x618c54559e94f1499a808aad71ee8729f8e74e8c48e979616328ce493a1a52e7\n      mload(0x40)\n      mload(0x40)\n      dup1\n      swap2\n      sub\n      swap1\n      log3\n        /* \"TEXOToken.sol\":50513:50766  function setDevAddress(address _devaddr) public {... */\n      pop\n      jump\t// out\n        /* \"TEXOToken.sol\":37050:37114  uint256 public constant EMISSION_REDUCTION_PERIOD_BLOCKS = 28800 */\n    tag_164:\n        /* \"TEXOToken.sol\":37109:37114  28800 */\n      0x7080\n        /* \"TEXOToken.sol\":37050:37114  uint256 public constant EMISSION_REDUCTION_PERIOD_BLOCKS = 28800 */\n      dup2\n      jump\t// out\n        /* \"TEXOToken.sol\":35433:35455  address public devAddr */\n    tag_166:\n      0x03\n      0x00\n      swap1\n      sload\n      swap1\n      0x0100\n      exp\n      swap1\n      div\n      0xffffffffffffffffffffffffffffffffffffffff\n      and\n      dup2\n      jump\t// out\n        /* \"TEXOToken.sol\":41993:42971  function pendingTEXO(uint256 _pid, address _user) external view returns (uint256) {... */\n    tag_169:\n        /* \"TEXOToken.sol\":42066:42073  uint256 */\n      0x00\n        /* \"TEXOToken.sol\":42085:42106  PoolInfo storage pool */\n      dup1\n        /* \"TEXOToken.sol\":42109:42117  poolInfo */\n      0x09\n        /* \"TEXOToken.sol\":42118:42122  _pid */\n      dup5\n        /* \"TEXOToken.sol\":42109:42123  poolInfo[_pid] */\n      dup2\n      sload\n      dup2\n      lt\n      tag_362\n      jumpi\n      invalid\n    tag_362:\n      swap1\n      0x00\n      mstore\n      keccak256(0x00, 0x20)\n      swap1\n      0x06\n      mul\n      add\n        /* \"TEXOToken.sol\":42085:42123  PoolInfo storage pool = poolInfo[_pid] */\n      swap1\n      pop\n        /* \"TEXOToken.sol\":42133:42154  UserInfo storage user */\n      0x00\n        /* \"TEXOToken.sol\":42157:42165  userInfo */\n      0x0a\n        /* \"TEXOToken.sol\":42157:42171  userInfo[_pid] */\n      0x00\n        /* \"TEXOToken.sol\":42166:42170  _pid */\n      dup7\n        /* \"TEXOToken.sol\":42157:42171  userInfo[_pid] */\n      dup2\n      mstore\n      0x20\n      add\n      swap1\n      dup2\n      mstore\n      0x20\n      add\n      0x00\n      keccak256\n        /* \"TEXOToken.sol\":42157:42178  userInfo[_pid][_user] */\n      0x00\n        /* \"TEXOToken.sol\":42172:42177  _user */\n      dup6\n        /* \"TEXOToken.sol\":42157:42178  userInfo[_pid][_user] */\n      0xffffffffffffffffffffffffffffffffffffffff\n      and\n      0xffffffffffffffffffffffffffffffffffffffff\n      and\n      dup2\n      mstore\n      0x20\n      add\n      swap1\n      dup2\n      mstore\n      0x20\n      add\n      0x00\n      keccak256\n        /* \"TEXOToken.sol\":42133:42178  UserInfo storage user = userInfo[_pid][_user] */\n      swap1\n      pop\n        /* \"TEXOToken.sol\":42189:42212  uint256 accTEXOPerShare */\n      0x00\n        /* \"TEXOToken.sol\":42215:42219  pool */\n      dup3\n        /* \"TEXOToken.sol\":42215:42235  pool.accTEXOPerShare */\n      0x04\n      add\n      sload\n        /* \"TEXOToken.sol\":42189:42235  uint256 accTEXOPerShare = pool.accTEXOPerShare */\n      swap1\n      pop\n        /* \"TEXOToken.sol\":42245:42261  uint256 lpSupply */\n      0x00\n        /* \"TEXOToken.sol\":42264:42268  pool */\n      dup4\n        /* \"TEXOToken.sol\":42264:42276  pool.lpToken */\n      0x00\n      add\n      0x00\n      swap1\n      sload\n      swap1\n      0x0100\n      exp\n      swap1\n      div\n      0xffffffffffffffffffffffffffffffffffffffff\n      and\n        /* \"TEXOToken.sol\":42264:42286  pool.lpToken.balanceOf */\n      0xffffffffffffffffffffffffffffffffffffffff\n      and\n      0x70a08231\n        /* \"TEXOToken.sol\":42295:42299  this */\n      address\n        /* \"TEXOToken.sol\":42264:42301  pool.lpToken.balanceOf(address(this)) */\n      mload(0x40)\n      dup3\n      0xffffffff\n      and\n      0xe0\n      shl\n      dup2\n      mstore\n      0x04\n      add\n      dup1\n      dup3\n      0xffffffffffffffffffffffffffffffffffffffff\n      and\n      dup2\n      mstore\n      0x20\n      add\n      swap2\n      pop\n      pop\n      0x20\n      mload(0x40)\n      dup1\n      dup4\n      sub\n      dup2\n      dup7\n      dup1\n      extcodesize\n      iszero\n      dup1\n      iszero\n      tag_364\n      jumpi\n      0x00\n      dup1\n      revert\n    tag_364:\n      pop\n      gas\n      staticcall\n      iszero\n      dup1\n      iszero\n      tag_366\n      jumpi\n      returndatasize\n      0x00\n      dup1\n      returndatacopy\n      revert(0x00, returndatasize)\n    tag_366:\n      pop\n      pop\n      pop\n      pop\n      mload(0x40)\n      returndatasize\n      0x20\n      dup2\n      lt\n      iszero\n      tag_367\n      jumpi\n      0x00\n      dup1\n      revert\n    tag_367:\n      dup2\n      add\n      swap1\n      dup1\n      dup1\n      mload\n      swap1\n      0x20\n      add\n      swap1\n      swap3\n      swap2\n      swap1\n      pop\n      pop\n      pop\n        /* \"TEXOToken.sol\":42245:42301  uint256 lpSupply = pool.lpToken.balanceOf(address(this)) */\n      swap1\n      pop\n        /* \"TEXOToken.sol\":42316:42343  canGenerateTexoReward(_pid) */\n      tag_368\n        /* \"TEXOToken.sol\":42338:42342  _pid */\n      dup8\n        /* \"TEXOToken.sol\":42316:42337  canGenerateTexoReward */\n      tag_177\n        /* \"TEXOToken.sol\":42316:42343  canGenerateTexoReward(_pid) */\n      jump\t// in\n    tag_368:\n        /* \"TEXOToken.sol\":42316:42382  canGenerateTexoReward(_pid) && block.number > pool.lastRewardBlock */\n      dup1\n      iszero\n      tag_369\n      jumpi\n      pop\n        /* \"TEXOToken.sol\":42362:42366  pool */\n      dup4\n        /* \"TEXOToken.sol\":42362:42382  pool.lastRewardBlock */\n      0x03\n      add\n      sload\n        /* \"TEXOToken.sol\":42347:42359  block.number */\n      number\n        /* \"TEXOToken.sol\":42347:42382  block.number > pool.lastRewardBlock */\n      gt\n        /* \"TEXOToken.sol\":42316:42382  canGenerateTexoReward(_pid) && block.number > pool.lastRewardBlock */\n    tag_369:\n        /* \"TEXOToken.sol\":42316:42399  canGenerateTexoReward(_pid) && block.number > pool.lastRewardBlock && lpSupply != 0 */\n      dup1\n      iszero\n      tag_370\n      jumpi\n      pop\n        /* \"TEXOToken.sol\":42398:42399  0 */\n      0x00\n        /* \"TEXOToken.sol\":42386:42394  lpSupply */\n      dup2\n        /* \"TEXOToken.sol\":42386:42399  lpSupply != 0 */\n      eq\n      iszero\n        /* \"TEXOToken.sol\":42316:42399  canGenerateTexoReward(_pid) && block.number > pool.lastRewardBlock && lpSupply != 0 */\n    tag_370:\n        /* \"TEXOToken.sol\":42312:42845  if (canGenerateTexoReward(_pid) && block.number > pool.lastRewardBlock && lpSupply != 0) {... */\n      iszero\n      tag_371\n      jumpi\n        /* \"TEXOToken.sol\":42415:42433  uint256 multiplier */\n      0x00\n        /* \"TEXOToken.sol\":42436:42485  getMultiplier(pool.lastRewardBlock, block.number) */\n      tag_372\n        /* \"TEXOToken.sol\":42450:42454  pool */\n      dup6\n        /* \"TEXOToken.sol\":42450:42470  pool.lastRewardBlock */\n      0x03\n      add\n      sload\n        /* \"TEXOToken.sol\":42472:42484  block.number */\n      number\n        /* \"TEXOToken.sol\":42436:42449  getMultiplier */\n      tag_125\n        /* \"TEXOToken.sol\":42436:42485  getMultiplier(pool.lastRewardBlock, block.number) */\n      jump\t// in\n    tag_372:\n        /* \"TEXOToken.sol\":42415:42485  uint256 multiplier = getMultiplier(pool.lastRewardBlock, block.number) */\n      swap1\n      pop\n        /* \"TEXOToken.sol\":42499:42517  uint256 tEXOReward */\n      0x00\n        /* \"TEXOToken.sol\":42520:42641  multiplier... */\n      tag_373\n        /* \"TEXOToken.sol\":42625:42640  totalAllocPoint */\n      sload(0x0b)\n        /* \"TEXOToken.sol\":42520:42603  multiplier... */\n      tag_374\n        /* \"TEXOToken.sol\":42587:42591  pool */\n      dup9\n        /* \"TEXOToken.sol\":42587:42602  pool.allocPoint */\n      0x01\n      add\n      sload\n        /* \"TEXOToken.sol\":42520:42565  multiplier... */\n      tag_375\n        /* \"TEXOToken.sol\":42552:42564  tEXOPerBlock */\n      sload(0x04)\n        /* \"TEXOToken.sol\":42520:42530  multiplier */\n      dup8\n        /* \"TEXOToken.sol\":42520:42551  multiplier... */\n      tag_221\n      swap1\n        /* \"TEXOToken.sol\":42520:42565  multiplier... */\n      swap2\n      swap1\n      0xffffffff\n      and\n      jump\t// in\n    tag_375:\n        /* \"TEXOToken.sol\":42520:42586  multiplier... */\n      tag_221\n      swap1\n        /* \"TEXOToken.sol\":42520:42603  multiplier... */\n      swap2\n      swap1\n      0xffffffff\n      and\n      jump\t// in\n    tag_374:\n        /* \"TEXOToken.sol\":42520:42624  multiplier... */\n      tag_222\n      swap1\n        /* \"TEXOToken.sol\":42520:42641  multiplier... */\n      swap2\n      swap1\n      0xffffffff\n      and\n      jump\t// in\n    tag_373:\n        /* \"TEXOToken.sol\":42499:42641  uint256 tEXOReward = multiplier... */\n      swap1\n      pop\n        /* \"TEXOToken.sol\":42674:42834  accTEXOPerShare... */\n      tag_376\n        /* \"TEXOToken.sol\":42732:42816  tEXOReward... */\n      tag_377\n        /* \"TEXOToken.sol\":42807:42815  lpSupply */\n      dup5\n        /* \"TEXOToken.sol\":42732:42777  tEXOReward... */\n      tag_378\n        /* \"TEXOToken.sol\":42772:42776  1e12 */\n      0xe8d4a51000\n        /* \"TEXOToken.sol\":42732:42742  tEXOReward */\n      dup6\n        /* \"TEXOToken.sol\":42732:42771  tEXOReward... */\n      tag_221\n      swap1\n        /* \"TEXOToken.sol\":42732:42777  tEXOReward... */\n      swap2\n      swap1\n      0xffffffff\n      and\n      jump\t// in\n    tag_378:\n        /* \"TEXOToken.sol\":42732:42806  tEXOReward... */\n      tag_222\n      swap1\n        /* \"TEXOToken.sol\":42732:42816  tEXOReward... */\n      swap2\n      swap1\n      0xffffffff\n      and\n      jump\t// in\n    tag_377:\n        /* \"TEXOToken.sol\":42674:42689  accTEXOPerShare */\n      dup6\n        /* \"TEXOToken.sol\":42674:42710  accTEXOPerShare... */\n      tag_197\n      swap1\n        /* \"TEXOToken.sol\":42674:42834  accTEXOPerShare... */\n      swap2\n      swap1\n      0xffffffff\n      and\n      jump\t// in\n    tag_376:\n        /* \"TEXOToken.sol\":42656:42834  accTEXOPerShare = accTEXOPerShare... */\n      swap4\n      pop\n        /* \"TEXOToken.sol\":42312:42845  if (canGenerateTexoReward(_pid) && block.number > pool.lastRewardBlock && lpSupply != 0) {... */\n      pop\n      pop\n    tag_371:\n        /* \"TEXOToken.sol\":42862:42964  user.amount... */\n      tag_379\n        /* \"TEXOToken.sol\":42948:42952  user */\n      dup4\n        /* \"TEXOToken.sol\":42948:42963  user.rewardDebt */\n      0x01\n      add\n      sload\n        /* \"TEXOToken.sol\":42862:42930  user.amount... */\n      tag_380\n        /* \"TEXOToken.sol\":42925:42929  1e12 */\n      0xe8d4a51000\n        /* \"TEXOToken.sol\":42862:42907  user.amount... */\n      tag_381\n        /* \"TEXOToken.sol\":42891:42906  accTEXOPerShare */\n      dup7\n        /* \"TEXOToken.sol\":42862:42866  user */\n      dup9\n        /* \"TEXOToken.sol\":42862:42873  user.amount */\n      0x00\n      add\n      sload\n        /* \"TEXOToken.sol\":42862:42890  user.amount... */\n      tag_221\n      swap1\n        /* \"TEXOToken.sol\":42862:42907  user.amount... */\n      swap2\n      swap1\n      0xffffffff\n      and\n      jump\t// in\n    tag_381:\n        /* \"TEXOToken.sol\":42862:42924  user.amount... */\n      tag_222\n      swap1\n        /* \"TEXOToken.sol\":42862:42930  user.amount... */\n      swap2\n      swap1\n      0xffffffff\n      and\n      jump\t// in\n    tag_380:\n        /* \"TEXOToken.sol\":42862:42947  user.amount... */\n      tag_223\n      swap1\n        /* \"TEXOToken.sol\":42862:42964  user.amount... */\n      swap2\n      swap1\n      0xffffffff\n      and\n      jump\t// in\n    tag_379:\n        /* \"TEXOToken.sol\":42855:42964  return user.amount... */\n      swap5\n      pop\n      pop\n      pop\n      pop\n      pop\n        /* \"TEXOToken.sol\":41993:42971  function pendingTEXO(uint256 _pid, address _user) external view returns (uint256) {... */\n      swap3\n      swap2\n      pop\n      pop\n      jump\t// out\n        /* \"TEXOToken.sol\":45079:46618  function deposit(uint256 _pid, uint256 _amount) public nonReentrant {... */\n    tag_172:\n        /* \"TEXOToken.sol\":21196:21197  2 */\n      0x02\n        /* \"TEXOToken.sol\":21785:21792  _status */\n      sload(0x01)\n        /* \"TEXOToken.sol\":21785:21804  _status != _ENTERED */\n      eq\n      iszero\n        /* \"TEXOToken.sol\":21777:21840  require(_status != _ENTERED, \"ReentrancyGuard: reentrant call\") */\n      tag_383\n      jumpi\n      mload(0x40)\n      0x08c379a000000000000000000000000000000000000000000000000000000000\n      dup2\n      mstore\n      0x04\n      add\n      dup1\n      dup1\n      0x20\n      add\n      dup3\n      dup2\n      sub\n      dup3\n      mstore\n      0x1f\n      dup2\n      mstore\n      0x20\n      add\n      dup1\n      0x5265656e7472616e637947756172643a207265656e7472616e742063616c6c00\n      dup2\n      mstore\n      pop\n      0x20\n      add\n      swap2\n      pop\n      pop\n      mload(0x40)\n      dup1\n      swap2\n      sub\n      swap1\n      revert\n    tag_383:\n        /* \"TEXOToken.sol\":21196:21197  2 */\n      0x02\n        /* \"TEXOToken.sol\":21915:21922  _status */\n      0x01\n        /* \"TEXOToken.sol\":21915:21933  _status = _ENTERED */\n      dup2\n      swap1\n      sstore\n      pop\n        /* \"TEXOToken.sol\":45157:45178  PoolInfo storage pool */\n      0x00\n        /* \"TEXOToken.sol\":45181:45189  poolInfo */\n      0x09\n        /* \"TEXOToken.sol\":45190:45194  _pid */\n      dup4\n        /* \"TEXOToken.sol\":45181:45195  poolInfo[_pid] */\n      dup2\n      sload\n      dup2\n      lt\n      tag_385\n      jumpi\n      invalid\n    tag_385:\n      swap1\n      0x00\n      mstore\n      keccak256(0x00, 0x20)\n      swap1\n      0x06\n      mul\n      add\n        /* \"TEXOToken.sol\":45157:45195  PoolInfo storage pool = poolInfo[_pid] */\n      swap1\n      pop\n        /* \"TEXOToken.sol\":45205:45226  UserInfo storage user */\n      0x00\n        /* \"TEXOToken.sol\":45229:45237  userInfo */\n      0x0a\n        /* \"TEXOToken.sol\":45229:45243  userInfo[_pid] */\n      0x00\n        /* \"TEXOToken.sol\":45238:45242  _pid */\n      dup6\n        /* \"TEXOToken.sol\":45229:45243  userInfo[_pid] */\n      dup2\n      mstore\n      0x20\n      add\n      swap1\n      dup2\n      mstore\n      0x20\n      add\n      0x00\n      keccak256\n        /* \"TEXOToken.sol\":45229:45255  userInfo[_pid][msg.sender] */\n      0x00\n        /* \"TEXOToken.sol\":45244:45254  msg.sender */\n      caller\n        /* \"TEXOToken.sol\":45229:45255  userInfo[_pid][msg.sender] */\n      0xffffffffffffffffffffffffffffffffffffffff\n      and\n      0xffffffffffffffffffffffffffffffffffffffff\n      and\n      dup2\n      mstore\n      0x20\n      add\n      swap1\n      dup2\n      mstore\n      0x20\n      add\n      0x00\n      keccak256\n        /* \"TEXOToken.sol\":45205:45255  UserInfo storage user = userInfo[_pid][msg.sender] */\n      swap1\n      pop\n        /* \"TEXOToken.sol\":45266:45282  updatePool(_pid) */\n      tag_387\n        /* \"TEXOToken.sol\":45277:45281  _pid */\n      dup5\n        /* \"TEXOToken.sol\":45266:45276  updatePool */\n      tag_94\n        /* \"TEXOToken.sol\":45266:45282  updatePool(_pid) */\n      jump\t// in\n    tag_387:\n        /* \"TEXOToken.sol\":45311:45312  0 */\n      0x00\n        /* \"TEXOToken.sol\":45297:45301  user */\n      dup2\n        /* \"TEXOToken.sol\":45297:45308  user.amount */\n      0x00\n      add\n      sload\n        /* \"TEXOToken.sol\":45297:45312  user.amount > 0 */\n      gt\n        /* \"TEXOToken.sol\":45293:45783  if (user.amount > 0) {... */\n      iszero\n      tag_388\n      jumpi\n        /* \"TEXOToken.sol\":45328:45343  uint256 pending */\n      0x00\n        /* \"TEXOToken.sol\":45346:45465  user.amount... */\n      tag_389\n        /* \"TEXOToken.sol\":45449:45453  user */\n      dup3\n        /* \"TEXOToken.sol\":45449:45464  user.rewardDebt */\n      0x01\n      add\n      sload\n        /* \"TEXOToken.sol\":45346:45427  user.amount... */\n      tag_390\n        /* \"TEXOToken.sol\":45422:45426  1e12 */\n      0xe8d4a51000\n        /* \"TEXOToken.sol\":45346:45400  user.amount... */\n      tag_391\n        /* \"TEXOToken.sol\":45379:45383  pool */\n      dup8\n        /* \"TEXOToken.sol\":45379:45399  pool.accTEXOPerShare */\n      0x04\n      add\n      sload\n        /* \"TEXOToken.sol\":45346:45350  user */\n      dup8\n        /* \"TEXOToken.sol\":45346:45357  user.amount */\n      0x00\n      add\n      sload\n        /* \"TEXOToken.sol\":45346:45378  user.amount... */\n      tag_221\n      swap1\n        /* \"TEXOToken.sol\":45346:45400  user.amount... */\n      swap2\n      swap1\n      0xffffffff\n      and\n      jump\t// in\n    tag_391:\n        /* \"TEXOToken.sol\":45346:45421  user.amount... */\n      tag_222\n      swap1\n        /* \"TEXOToken.sol\":45346:45427  user.amount... */\n      swap2\n      swap1\n      0xffffffff\n      and\n      jump\t// in\n    tag_390:\n        /* \"TEXOToken.sol\":45346:45448  user.amount... */\n      tag_223\n      swap1\n        /* \"TEXOToken.sol\":45346:45465  user.amount... */\n      swap2\n      swap1\n      0xffffffff\n      and\n      jump\t// in\n    tag_389:\n        /* \"TEXOToken.sol\":45328:45465  uint256 pending = user.amount... */\n      swap1\n      pop\n        /* \"TEXOToken.sol\":45480:45500  bool canWithdrawTEXO */\n      0x00\n        /* \"TEXOToken.sol\":45503:45526  canWithdrawReward(_pid) */\n      tag_392\n        /* \"TEXOToken.sol\":45521:45525  _pid */\n      dup7\n        /* \"TEXOToken.sol\":45503:45520  canWithdrawReward */\n      tag_151\n        /* \"TEXOToken.sol\":45503:45526  canWithdrawReward(_pid) */\n      jump\t// in\n    tag_392:\n        /* \"TEXOToken.sol\":45480:45526  bool canWithdrawTEXO = canWithdrawReward(_pid) */\n      swap1\n      pop\n        /* \"TEXOToken.sol\":45545:45560  canWithdrawTEXO */\n      dup1\n        /* \"TEXOToken.sol\":45545:45575  canWithdrawTEXO && pending > 0 */\n      dup1\n      iszero\n      tag_393\n      jumpi\n      pop\n        /* \"TEXOToken.sol\":45574:45575  0 */\n      0x00\n        /* \"TEXOToken.sol\":45564:45571  pending */\n      dup3\n        /* \"TEXOToken.sol\":45564:45575  pending > 0 */\n      gt\n        /* \"TEXOToken.sol\":45545:45575  canWithdrawTEXO && pending > 0 */\n    tag_393:\n        /* \"TEXOToken.sol\":45541:45773  if (canWithdrawTEXO && pending > 0) {... */\n      iszero\n      tag_394\n      jumpi\n        /* \"TEXOToken.sol\":45595:45632  safeTEXOTransfer(msg.sender, pending) */\n      tag_395\n        /* \"TEXOToken.sol\":45612:45622  msg.sender */\n      caller\n        /* \"TEXOToken.sol\":45624:45631  pending */\n      dup4\n        /* \"TEXOToken.sol\":45595:45611  safeTEXOTransfer */\n      tag_227\n        /* \"TEXOToken.sol\":45595:45632  safeTEXOTransfer(msg.sender, pending) */\n      jump\t// in\n    tag_395:\n        /* \"TEXOToken.sol\":45669:45758  user.amount... */\n      tag_396\n        /* \"TEXOToken.sol\":45753:45757  1e12 */\n      0xe8d4a51000\n        /* \"TEXOToken.sol\":45669:45727  user.amount... */\n      tag_397\n        /* \"TEXOToken.sol\":45706:45710  pool */\n      dup7\n        /* \"TEXOToken.sol\":45706:45726  pool.accTEXOPerShare */\n      0x04\n      add\n      sload\n        /* \"TEXOToken.sol\":45669:45673  user */\n      dup7\n        /* \"TEXOToken.sol\":45669:45680  user.amount */\n      0x00\n      add\n      sload\n        /* \"TEXOToken.sol\":45669:45705  user.amount... */\n      tag_221\n      swap1\n        /* \"TEXOToken.sol\":45669:45727  user.amount... */\n      swap2\n      swap1\n      0xffffffff\n      and\n      jump\t// in\n    tag_397:\n        /* \"TEXOToken.sol\":45669:45752  user.amount... */\n      tag_222\n      swap1\n        /* \"TEXOToken.sol\":45669:45758  user.amount... */\n      swap2\n      swap1\n      0xffffffff\n      and\n      jump\t// in\n    tag_396:\n        /* \"TEXOToken.sol\":45651:45655  user */\n      dup4\n        /* \"TEXOToken.sol\":45651:45666  user.rewardDebt */\n      0x01\n      add\n        /* \"TEXOToken.sol\":45651:45758  user.rewardDebt = user.amount... */\n      dup2\n      swap1\n      sstore\n      pop\n        /* \"TEXOToken.sol\":45541:45773  if (canWithdrawTEXO && pending > 0) {... */\n    tag_394:\n        /* \"TEXOToken.sol\":45293:45783  if (user.amount > 0) {... */\n      pop\n      pop\n    tag_388:\n        /* \"TEXOToken.sol\":45807:45808  0 */\n      0x00\n        /* \"TEXOToken.sol\":45797:45804  _amount */\n      dup4\n        /* \"TEXOToken.sol\":45797:45808  _amount > 0 */\n      gt\n        /* \"TEXOToken.sol\":45793:46347  if (_amount > 0) {... */\n      iszero\n      tag_398\n      jumpi\n        /* \"TEXOToken.sol\":45824:45898  pool.lpToken.safeTransferFrom(address(msg.sender), address(this), _amount) */\n      tag_399\n        /* \"TEXOToken.sol\":45862:45872  msg.sender */\n      caller\n        /* \"TEXOToken.sol\":45883:45887  this */\n      address\n        /* \"TEXOToken.sol\":45890:45897  _amount */\n      dup6\n        /* \"TEXOToken.sol\":45824:45828  pool */\n      dup6\n        /* \"TEXOToken.sol\":45824:45836  pool.lpToken */\n      0x00\n      add\n      0x00\n      swap1\n      sload\n      swap1\n      0x0100\n      exp\n      swap1\n      div\n      0xffffffffffffffffffffffffffffffffffffffff\n      and\n        /* \"TEXOToken.sol\":45824:45853  pool.lpToken.safeTransferFrom */\n      0xffffffffffffffffffffffffffffffffffffffff\n      and\n      tag_315\n      swap1\n        /* \"TEXOToken.sol\":45824:45898  pool.lpToken.safeTransferFrom(address(msg.sender), address(this), _amount) */\n      swap4\n      swap3\n      swap2\n      swap1\n      0xffffffff\n      and\n      jump\t// in\n    tag_399:\n        /* \"TEXOToken.sol\":45937:45938  0 */\n      0x00\n        /* \"TEXOToken.sol\":45917:45921  pool */\n      dup3\n        /* \"TEXOToken.sol\":45917:45934  pool.depositFeeBP */\n      0x05\n      add\n      0x00\n      swap1\n      sload\n      swap1\n      0x0100\n      exp\n      swap1\n      div\n      0xffff\n      and\n        /* \"TEXOToken.sol\":45917:45938  pool.depositFeeBP > 0 */\n      0xffff\n      and\n      gt\n        /* \"TEXOToken.sol\":45913:46337  if (pool.depositFeeBP > 0) {... */\n      iszero\n      tag_400\n      jumpi\n        /* \"TEXOToken.sol\":45958:45976  uint256 depositFee */\n      0x00\n        /* \"TEXOToken.sol\":45979:46062  _amount... */\n      tag_401\n        /* \"TEXOToken.sol\":46056:46061  10000 */\n      0x2710\n        /* \"TEXOToken.sol\":45979:46030  _amount... */\n      tag_402\n        /* \"TEXOToken.sol\":46012:46016  pool */\n      dup6\n        /* \"TEXOToken.sol\":46012:46029  pool.depositFeeBP */\n      0x05\n      add\n      0x00\n      swap1\n      sload\n      swap1\n      0x0100\n      exp\n      swap1\n      div\n      0xffff\n      and\n        /* \"TEXOToken.sol\":45979:46030  _amount... */\n      0xffff\n      and\n        /* \"TEXOToken.sol\":45979:45986  _amount */\n      dup8\n        /* \"TEXOToken.sol\":45979:46011  _amount... */\n      tag_221\n      swap1\n        /* \"TEXOToken.sol\":45979:46030  _amount... */\n      swap2\n      swap1\n      0xffffffff\n      and\n      jump\t// in\n    tag_402:\n        /* \"TEXOToken.sol\":45979:46055  _amount... */\n      tag_222\n      swap1\n        /* \"TEXOToken.sol\":45979:46062  _amount... */\n      swap2\n      swap1\n      0xffffffff\n      and\n      jump\t// in\n    tag_401:\n        /* \"TEXOToken.sol\":45958:46062  uint256 depositFee = _amount... */\n      swap1\n      pop\n        /* \"TEXOToken.sol\":46095:46177  user.amount... */\n      tag_403\n        /* \"TEXOToken.sol\":46166:46176  depositFee */\n      dup2\n        /* \"TEXOToken.sol\":46095:46140  user.amount... */\n      tag_404\n        /* \"TEXOToken.sol\":46132:46139  _amount */\n      dup7\n        /* \"TEXOToken.sol\":46095:46099  user */\n      dup6\n        /* \"TEXOToken.sol\":46095:46106  user.amount */\n      0x00\n      add\n      sload\n        /* \"TEXOToken.sol\":46095:46131  user.amount... */\n      tag_197\n      swap1\n        /* \"TEXOToken.sol\":46095:46140  user.amount... */\n      swap2\n      swap1\n      0xffffffff\n      and\n      jump\t// in\n    tag_404:\n        /* \"TEXOToken.sol\":46095:46165  user.amount... */\n      tag_223\n      swap1\n        /* \"TEXOToken.sol\":46095:46177  user.amount... */\n      swap2\n      swap1\n      0xffffffff\n      and\n      jump\t// in\n    tag_403:\n        /* \"TEXOToken.sol\":46081:46085  user */\n      dup3\n        /* \"TEXOToken.sol\":46081:46092  user.amount */\n      0x00\n      add\n        /* \"TEXOToken.sol\":46081:46177  user.amount = user.amount... */\n      dup2\n      swap1\n      sstore\n      pop\n        /* \"TEXOToken.sol\":46196:46245  pool.lpToken.safeTransfer(feeAddress, depositFee) */\n      tag_405\n        /* \"TEXOToken.sol\":46222:46232  feeAddress */\n      0x05\n      0x00\n      swap1\n      sload\n      swap1\n      0x0100\n      exp\n      swap1\n      div\n      0xffffffffffffffffffffffffffffffffffffffff\n      and\n        /* \"TEXOToken.sol\":46234:46244  depositFee */\n      dup3\n        /* \"TEXOToken.sol\":46196:46200  pool */\n      dup6\n        /* \"TEXOToken.sol\":46196:46208  pool.lpToken */\n      0x00\n      add\n      0x00\n      swap1\n      sload\n      swap1\n      0x0100\n      exp\n      swap1\n      div\n      0xffffffffffffffffffffffffffffffffffffffff\n      and\n        /* \"TEXOToken.sol\":46196:46221  pool.lpToken.safeTransfer */\n      0xffffffffffffffffffffffffffffffffffffffff\n      and\n      tag_235\n      swap1\n        /* \"TEXOToken.sol\":46196:46245  pool.lpToken.safeTransfer(feeAddress, depositFee) */\n      swap3\n      swap2\n      swap1\n      0xffffffff\n      and\n      jump\t// in\n    tag_405:\n        /* \"TEXOToken.sol\":45913:46337  if (pool.depositFeeBP > 0) {... */\n      pop\n      jump(tag_406)\n    tag_400:\n        /* \"TEXOToken.sol\":46298:46322  user.amount.add(_amount) */\n      tag_407\n        /* \"TEXOToken.sol\":46314:46321  _amount */\n      dup4\n        /* \"TEXOToken.sol\":46298:46302  user */\n      dup3\n        /* \"TEXOToken.sol\":46298:46309  user.amount */\n      0x00\n      add\n      sload\n        /* \"TEXOToken.sol\":46298:46313  user.amount.add */\n      tag_197\n      swap1\n        /* \"TEXOToken.sol\":46298:46322  user.amount.add(_amount) */\n      swap2\n      swap1\n      0xffffffff\n      and\n      jump\t// in\n    tag_407:\n        /* \"TEXOToken.sol\":46284:46288  user */\n      dup2\n        /* \"TEXOToken.sol\":46284:46295  user.amount */\n      0x00\n      add\n        /* \"TEXOToken.sol\":46284:46322  user.amount = user.amount.add(_amount) */\n      dup2\n      swap1\n      sstore\n      pop\n        /* \"TEXOToken.sol\":45913:46337  if (pool.depositFeeBP > 0) {... */\n    tag_406:\n        /* \"TEXOToken.sol\":45793:46347  if (_amount > 0) {... */\n    tag_398:\n        /* \"TEXOToken.sol\":46362:46366  user */\n      dup1\n        /* \"TEXOToken.sol\":46362:46382  user.isAlreadyStaked */\n      0x02\n      add\n      0x00\n      swap1\n      sload\n      swap1\n      0x0100\n      exp\n      swap1\n      div\n      0xff\n      and\n        /* \"TEXOToken.sol\":46357:46562  if (!user.isAlreadyStaked) {... */\n      tag_408\n      jumpi\n        /* \"TEXOToken.sol\":46416:46497  user.amount... */\n      tag_409\n        /* \"TEXOToken.sol\":46492:46496  1e12 */\n      0xe8d4a51000\n        /* \"TEXOToken.sol\":46416:46470  user.amount... */\n      tag_410\n        /* \"TEXOToken.sol\":46449:46453  pool */\n      dup5\n        /* \"TEXOToken.sol\":46449:46469  pool.accTEXOPerShare */\n      0x04\n      add\n      sload\n        /* \"TEXOToken.sol\":46416:46420  user */\n      dup5\n        /* \"TEXOToken.sol\":46416:46427  user.amount */\n      0x00\n      add\n      sload\n        /* \"TEXOToken.sol\":46416:46448  user.amount... */\n      tag_221\n      swap1\n        /* \"TEXOToken.sol\":46416:46470  user.amount... */\n      swap2\n      swap1\n      0xffffffff\n      and\n      jump\t// in\n    tag_410:\n        /* \"TEXOToken.sol\":46416:46491  user.amount... */\n      tag_222\n      swap1\n        /* \"TEXOToken.sol\":46416:46497  user.amount... */\n      swap2\n      swap1\n      0xffffffff\n      and\n      jump\t// in\n    tag_409:\n        /* \"TEXOToken.sol\":46398:46402  user */\n      dup2\n        /* \"TEXOToken.sol\":46398:46413  user.rewardDebt */\n      0x01\n      add\n        /* \"TEXOToken.sol\":46398:46497  user.rewardDebt = user.amount... */\n      dup2\n      swap1\n      sstore\n      pop\n        /* \"TEXOToken.sol\":46547:46551  true */\n      0x01\n        /* \"TEXOToken.sol\":46524:46528  user */\n      dup2\n        /* \"TEXOToken.sol\":46524:46544  user.isAlreadyStaked */\n      0x02\n      add\n      0x00\n        /* \"TEXOToken.sol\":46524:46551  user.isAlreadyStaked = true */\n      0x0100\n      exp\n      dup2\n      sload\n      dup2\n      0xff\n      mul\n      not\n      and\n      swap1\n      dup4\n      iszero\n      iszero\n      mul\n      or\n      swap1\n      sstore\n      pop\n        /* \"TEXOToken.sol\":46357:46562  if (!user.isAlreadyStaked) {... */\n    tag_408:\n        /* \"TEXOToken.sol\":46597:46601  _pid */\n      dup4\n        /* \"TEXOToken.sol\":46585:46595  msg.sender */\n      caller\n        /* \"TEXOToken.sol\":46577:46611  Deposit(msg.sender, _pid, _amount) */\n      0xffffffffffffffffffffffffffffffffffffffff\n      and\n      0x90890809c654f11d6e72a28fa60149770a0d11ec6c92319d6ceb2bb0a4ea1a15\n        /* \"TEXOToken.sol\":46603:46610  _amount */\n      dup6\n        /* \"TEXOToken.sol\":46577:46611  Deposit(msg.sender, _pid, _amount) */\n      mload(0x40)\n      dup1\n      dup3\n      dup2\n      mstore\n      0x20\n      add\n      swap2\n      pop\n      pop\n      mload(0x40)\n      dup1\n      swap2\n      sub\n      swap1\n      log3\n        /* \"TEXOToken.sol\":21944:21945  _ */\n      pop\n      pop\n        /* \"TEXOToken.sol\":21153:21154  1 */\n      0x01\n        /* \"TEXOToken.sol\":22088:22095  _status */\n      dup1\n        /* \"TEXOToken.sol\":22088:22110  _status = _NOT_ENTERED */\n      dup2\n      swap1\n      sstore\n      pop\n        /* \"TEXOToken.sol\":45079:46618  function deposit(uint256 _pid, uint256 _amount) public nonReentrant {... */\n      pop\n      pop\n      jump\t// out\n        /* \"TEXOToken.sol\":51268:52667  function reduceEmissionRateWithDefaultRate() public {... */\n    tag_174:\n        /* \"TEXOToken.sol\":51338:51363  isAllowReduceEmissionRate */\n      0x12\n      0x00\n      swap1\n      sload\n      swap1\n      0x0100\n      exp\n      swap1\n      div\n      0xff\n      and\n        /* \"TEXOToken.sol\":51330:51432  require(isAllowReduceEmissionRate, \"reduceEmissionRateWithDefaultRate: Permission flag not turned on\") */\n      tag_412\n      jumpi\n      mload(0x40)\n      0x08c379a000000000000000000000000000000000000000000000000000000000\n      dup2\n      mstore\n      0x04\n      add\n      dup1\n      dup1\n      0x20\n      add\n      dup3\n      dup2\n      sub\n      dup3\n      mstore\n      0x40\n      dup2\n      mstore\n      0x20\n      add\n      dup1\n      data_fb61bfab522ff5726f96c4cebf8c9bc7c68d529a173450ab2ca49eebd2ecf0bb\n      0x40\n      swap2\n      codecopy\n      0x40\n      add\n      swap2\n      pop\n      pop\n      mload(0x40)\n      dup1\n      swap2\n      sub\n      swap1\n      revert\n    tag_412:\n        /* \"TEXOToken.sol\":51465:51497  blockToStartReducingEmissionRate */\n      sload(0x06)\n        /* \"TEXOToken.sol\":51450:51462  block.number */\n      number\n        /* \"TEXOToken.sol\":51450:51497  block.number > blockToStartReducingEmissionRate */\n      gt\n        /* \"TEXOToken.sol\":51442:51584  require(block.number > blockToStartReducingEmissionRate, \"reduceEmissionRateWithDefaultRate: Can only be called after specified block starts\") */\n      tag_413\n      jumpi\n      mload(0x40)\n      0x08c379a000000000000000000000000000000000000000000000000000000000\n      dup2\n      mstore\n      0x04\n      add\n      dup1\n      dup1\n      0x20\n      add\n      dup3\n      dup2\n      sub\n      dup3\n      mstore\n      0x52\n      dup2\n      mstore\n      0x20\n      add\n      dup1\n      data_a827dd9c9a80825686eef28a9f1d2466e1d29b6da48280d16028581898989615\n      0x52\n      swap2\n      codecopy\n      0x60\n      add\n      swap2\n      pop\n      pop\n      mload(0x40)\n      dup1\n      swap2\n      sub\n      swap1\n      revert\n    tag_413:\n        /* \"TEXOToken.sol\":36978:36988  100 finney */\n      0x016345785d8a0000\n        /* \"TEXOToken.sol\":51602:51614  tEXOPerBlock */\n      sload(0x04)\n        /* \"TEXOToken.sol\":51602:51638  tEXOPerBlock > MINIMUM_EMISSION_RATE */\n      gt\n        /* \"TEXOToken.sol\":51594:51725  require(tEXOPerBlock > MINIMUM_EMISSION_RATE, \"reduceEmissionRateWithDefaultRate: Emission rate has reached the minimum threshold\") */\n      tag_414\n      jumpi\n      mload(0x40)\n      0x08c379a000000000000000000000000000000000000000000000000000000000\n      dup2\n      mstore\n      0x04\n      add\n      dup1\n      dup1\n      0x20\n      add\n      dup3\n      dup2\n      sub\n      dup3\n      mstore\n      0x52\n      dup2\n      mstore\n      0x20\n      add\n      dup1\n      data_d4e7846547be135afcf8a93a01a9053e9fa2c0d79f8d5448158422588210b6ab\n      0x52\n      swap2\n      codecopy\n      0x60\n      add\n      swap2\n      pop\n      pop\n      mload(0x40)\n      dup1\n      swap2\n      sub\n      swap1\n      revert\n    tag_414:\n        /* \"TEXOToken.sol\":51736:51756  uint256 currentIndex */\n      0x00\n        /* \"TEXOToken.sol\":51759:51847  block.number.sub(blockToStartReducingEmissionRate).div(EMISSION_REDUCTION_PERIOD_BLOCKS) */\n      tag_415\n        /* \"TEXOToken.sol\":37109:37114  28800 */\n      0x7080\n        /* \"TEXOToken.sol\":51759:51809  block.number.sub(blockToStartReducingEmissionRate) */\n      tag_416\n        /* \"TEXOToken.sol\":51776:51808  blockToStartReducingEmissionRate */\n      sload(0x06)\n        /* \"TEXOToken.sol\":51759:51771  block.number */\n      number\n        /* \"TEXOToken.sol\":51759:51775  block.number.sub */\n      tag_223\n      swap1\n        /* \"TEXOToken.sol\":51759:51809  block.number.sub(blockToStartReducingEmissionRate) */\n      swap2\n      swap1\n      0xffffffff\n      and\n      jump\t// in\n    tag_416:\n        /* \"TEXOToken.sol\":51759:51813  block.number.sub(blockToStartReducingEmissionRate).div */\n      tag_222\n      swap1\n        /* \"TEXOToken.sol\":51759:51847  block.number.sub(blockToStartReducingEmissionRate).div(EMISSION_REDUCTION_PERIOD_BLOCKS) */\n      swap2\n      swap1\n      0xffffffff\n      and\n      jump\t// in\n    tag_415:\n        /* \"TEXOToken.sol\":51736:51847  uint256 currentIndex = block.number.sub(blockToStartReducingEmissionRate).div(EMISSION_REDUCTION_PERIOD_BLOCKS) */\n      swap1\n      pop\n        /* \"TEXOToken.sol\":51877:51901  lastReductionPeriodIndex */\n      sload(0x11)\n        /* \"TEXOToken.sol\":51861:51873  currentIndex */\n      dup2\n        /* \"TEXOToken.sol\":51861:51901  currentIndex <= lastReductionPeriodIndex */\n      gt\n        /* \"TEXOToken.sol\":51857:51934  if (currentIndex <= lastReductionPeriodIndex) {... */\n      tag_417\n      jumpi\n        /* \"TEXOToken.sol\":51917:51924  return; */\n      pop\n      jump(tag_411)\n        /* \"TEXOToken.sol\":51857:51934  if (currentIndex <= lastReductionPeriodIndex) {... */\n    tag_417:\n        /* \"TEXOToken.sol\":51944:51967  uint256 newEmissionRate */\n      0x00\n        /* \"TEXOToken.sol\":51970:51982  tEXOPerBlock */\n      sload(0x04)\n        /* \"TEXOToken.sol\":51944:51982  uint256 newEmissionRate = tEXOPerBlock */\n      swap1\n      pop\n        /* \"TEXOToken.sol\":51997:52010  uint256 index */\n      0x00\n        /* \"TEXOToken.sol\":52013:52037  lastReductionPeriodIndex */\n      sload(0x11)\n        /* \"TEXOToken.sol\":51997:52037  uint256 index = lastReductionPeriodIndex */\n      swap1\n      pop\n        /* \"TEXOToken.sol\":51992:52217  for (uint256 index = lastReductionPeriodIndex; index < currentIndex; ++index) {... */\n    tag_418:\n        /* \"TEXOToken.sol\":52047:52059  currentIndex */\n      dup3\n        /* \"TEXOToken.sol\":52039:52044  index */\n      dup2\n        /* \"TEXOToken.sol\":52039:52059  index < currentIndex */\n      lt\n        /* \"TEXOToken.sol\":51992:52217  for (uint256 index = lastReductionPeriodIndex; index < currentIndex; ++index) {... */\n      iszero\n      tag_419\n      jumpi\n        /* \"TEXOToken.sol\":52102:52206  newEmissionRate... */\n      tag_421\n        /* \"TEXOToken.sol\":52202:52205  1e4 */\n      0x2710\n        /* \"TEXOToken.sol\":52102:52180  newEmissionRate... */\n      tag_422\n        /* \"TEXOToken.sol\":37245:37249  1500 */\n      0x05dc\n        /* \"TEXOToken.sol\":52139:52142  1e4 */\n      0x2710\n        /* \"TEXOToken.sol\":52139:52179  1e4 - EMISSION_REDUCTION_RATE_PER_PERIOD */\n      sub\n        /* \"TEXOToken.sol\":52102:52117  newEmissionRate */\n      dup6\n        /* \"TEXOToken.sol\":52102:52138  newEmissionRate... */\n      tag_221\n      swap1\n        /* \"TEXOToken.sol\":52102:52180  newEmissionRate... */\n      swap2\n      swap1\n      0xffffffff\n      and\n      jump\t// in\n    tag_422:\n        /* \"TEXOToken.sol\":52102:52201  newEmissionRate... */\n      tag_222\n      swap1\n        /* \"TEXOToken.sol\":52102:52206  newEmissionRate... */\n      swap2\n      swap1\n      0xffffffff\n      and\n      jump\t// in\n    tag_421:\n        /* \"TEXOToken.sol\":52084:52206  newEmissionRate = newEmissionRate... */\n      swap2\n      pop\n        /* \"TEXOToken.sol\":52061:52068  ++index */\n      dup1\n      0x01\n      add\n      swap1\n      pop\n        /* \"TEXOToken.sol\":51992:52217  for (uint256 index = lastReductionPeriodIndex; index < currentIndex; ++index) {... */\n      jump(tag_418)\n    tag_419:\n      pop\n        /* \"TEXOToken.sol\":36978:36988  100 finney */\n      0x016345785d8a0000\n        /* \"TEXOToken.sol\":52245:52260  newEmissionRate */\n      dup2\n        /* \"TEXOToken.sol\":52245:52284  newEmissionRate < MINIMUM_EMISSION_RATE */\n      lt\n        /* \"TEXOToken.sol\":52245:52326  newEmissionRate < MINIMUM_EMISSION_RATE ? MINIMUM_EMISSION_RATE : newEmissionRate */\n      tag_423\n      jumpi\n        /* \"TEXOToken.sol\":52311:52326  newEmissionRate */\n      dup1\n        /* \"TEXOToken.sol\":52245:52326  newEmissionRate < MINIMUM_EMISSION_RATE ? MINIMUM_EMISSION_RATE : newEmissionRate */\n      jump(tag_424)\n    tag_423:\n        /* \"TEXOToken.sol\":36978:36988  100 finney */\n      0x016345785d8a0000\n        /* \"TEXOToken.sol\":52245:52326  newEmissionRate < MINIMUM_EMISSION_RATE ? MINIMUM_EMISSION_RATE : newEmissionRate */\n    tag_424:\n        /* \"TEXOToken.sol\":52227:52326  newEmissionRate = newEmissionRate < MINIMUM_EMISSION_RATE ? MINIMUM_EMISSION_RATE : newEmissionRate */\n      swap1\n      pop\n        /* \"TEXOToken.sol\":52359:52371  tEXOPerBlock */\n      sload(0x04)\n        /* \"TEXOToken.sol\":52340:52355  newEmissionRate */\n      dup2\n        /* \"TEXOToken.sol\":52340:52371  newEmissionRate >= tEXOPerBlock */\n      lt\n        /* \"TEXOToken.sol\":52336:52404  if (newEmissionRate >= tEXOPerBlock) {... */\n      tag_425\n      jumpi\n        /* \"TEXOToken.sol\":52387:52394  return; */\n      pop\n      pop\n      jump(tag_411)\n        /* \"TEXOToken.sol\":52336:52404  if (newEmissionRate >= tEXOPerBlock) {... */\n    tag_425:\n        /* \"TEXOToken.sol\":52414:52431  massUpdatePools() */\n      tag_426\n        /* \"TEXOToken.sol\":52414:52429  massUpdatePools */\n      tag_103\n        /* \"TEXOToken.sol\":52414:52431  massUpdatePools() */\n      jump\t// in\n    tag_426:\n        /* \"TEXOToken.sol\":52469:52481  currentIndex */\n      dup2\n        /* \"TEXOToken.sol\":52442:52466  lastReductionPeriodIndex */\n      0x11\n        /* \"TEXOToken.sol\":52442:52481  lastReductionPeriodIndex = currentIndex */\n      dup2\n      swap1\n      sstore\n      pop\n        /* \"TEXOToken.sol\":52491:52519  uint256 previousEmissionRate */\n      0x00\n        /* \"TEXOToken.sol\":52522:52534  tEXOPerBlock */\n      sload(0x04)\n        /* \"TEXOToken.sol\":52491:52534  uint256 previousEmissionRate = tEXOPerBlock */\n      swap1\n      pop\n        /* \"TEXOToken.sol\":52559:52574  newEmissionRate */\n      dup2\n        /* \"TEXOToken.sol\":52544:52556  tEXOPerBlock */\n      0x04\n        /* \"TEXOToken.sol\":52544:52574  tEXOPerBlock = newEmissionRate */\n      dup2\n      swap1\n      sstore\n      pop\n        /* \"TEXOToken.sol\":52610:52620  msg.sender */\n      caller\n        /* \"TEXOToken.sol\":52590:52660  EmissionRateUpdated(msg.sender, previousEmissionRate, newEmissionRate) */\n      0xffffffffffffffffffffffffffffffffffffffff\n      and\n      0xeedc6338c9c1ad8f3cd6c90dd09dbe98dbd57e610d3e59a17996d07acb0d9511\n        /* \"TEXOToken.sol\":52622:52642  previousEmissionRate */\n      dup3\n        /* \"TEXOToken.sol\":52644:52659  newEmissionRate */\n      dup5\n        /* \"TEXOToken.sol\":52590:52660  EmissionRateUpdated(msg.sender, previousEmissionRate, newEmissionRate) */\n      mload(0x40)\n      dup1\n      dup4\n      dup2\n      mstore\n      0x20\n      add\n      dup3\n      dup2\n      mstore\n      0x20\n      add\n      swap3\n      pop\n      pop\n      pop\n      mload(0x40)\n      dup1\n      swap2\n      sub\n      swap1\n      log2\n        /* \"TEXOToken.sol\":51268:52667  function reduceEmissionRateWithDefaultRate() public {... */\n      pop\n      pop\n      pop\n    tag_411:\n      jump\t// out\n        /* \"TEXOToken.sol\":44818:45013  function canGenerateTexoReward(uint256 _pid) public view returns (bool) {... */\n    tag_177:\n        /* \"TEXOToken.sol\":44884:44888  bool */\n      0x00\n        /* \"TEXOToken.sol\":44900:44921  PoolInfo storage pool */\n      dup1\n        /* \"TEXOToken.sol\":44924:44932  poolInfo */\n      0x09\n        /* \"TEXOToken.sol\":44933:44937  _pid */\n      dup4\n        /* \"TEXOToken.sol\":44924:44938  poolInfo[_pid] */\n      dup2\n      sload\n      dup2\n      lt\n      tag_428\n      jumpi\n      invalid\n    tag_428:\n      swap1\n      0x00\n      mstore\n      keccak256(0x00, 0x20)\n      swap1\n      0x06\n      mul\n      add\n        /* \"TEXOToken.sol\":44900:44938  PoolInfo storage pool = poolInfo[_pid] */\n      swap1\n      pop\n        /* \"TEXOToken.sol\":44958:44981  canWithdrawReward(_pid) */\n      tag_430\n        /* \"TEXOToken.sol\":44976:44980  _pid */\n      dup4\n        /* \"TEXOToken.sol\":44958:44975  canWithdrawReward */\n      tag_151\n        /* \"TEXOToken.sol\":44958:44981  canWithdrawReward(_pid) */\n      jump\t// in\n    tag_430:\n        /* \"TEXOToken.sol\":44958:45005  canWithdrawReward(_pid) && pool.allocPoint == 0 */\n      dup1\n      iszero\n      tag_431\n      jumpi\n      pop\n        /* \"TEXOToken.sol\":45004:45005  0 */\n      0x00\n        /* \"TEXOToken.sol\":44985:44989  pool */\n      dup2\n        /* \"TEXOToken.sol\":44985:45000  pool.allocPoint */\n      0x01\n      add\n      sload\n        /* \"TEXOToken.sol\":44985:45005  pool.allocPoint == 0 */\n      eq\n        /* \"TEXOToken.sol\":44958:45005  canWithdrawReward(_pid) && pool.allocPoint == 0 */\n    tag_431:\n        /* \"TEXOToken.sol\":44956:45006  !(canWithdrawReward(_pid) && pool.allocPoint == 0) */\n      iszero\n        /* \"TEXOToken.sol\":44949:45006  return !(canWithdrawReward(_pid) && pool.allocPoint == 0) */\n      swap2\n      pop\n      pop\n        /* \"TEXOToken.sol\":44818:45013  function canGenerateTexoReward(uint256 _pid) public view returns (bool) {... */\n      swap2\n      swap1\n      pop\n      jump\t// out\n        /* \"TEXOToken.sol\":12358:12465  function transferOwnership(address newOwner) public onlyOwner {... */\n    tag_180:\n        /* \"TEXOToken.sol\":11663:11675  _msgSender() */\n      tag_433\n        /* \"TEXOToken.sol\":11663:11673  _msgSender */\n      tag_186\n        /* \"TEXOToken.sol\":11663:11675  _msgSender() */\n      jump\t// in\n    tag_433:\n        /* \"TEXOToken.sol\":11653:11675  _owner == _msgSender() */\n      0xffffffffffffffffffffffffffffffffffffffff\n      and\n        /* \"TEXOToken.sol\":11653:11659  _owner */\n      0x00\n      dup1\n      sload\n      swap1\n      0x0100\n      exp\n      swap1\n      div\n      0xffffffffffffffffffffffffffffffffffffffff\n      and\n        /* \"TEXOToken.sol\":11653:11675  _owner == _msgSender() */\n      0xffffffffffffffffffffffffffffffffffffffff\n      and\n      eq\n        /* \"TEXOToken.sol\":11645:11712  require(_owner == _msgSender(), \"Ownable: caller is not the owner\") */\n      tag_434\n      jumpi\n      mload(0x40)\n      0x08c379a000000000000000000000000000000000000000000000000000000000\n      dup2\n      mstore\n      0x04\n      add\n      dup1\n      dup1\n      0x20\n      add\n      dup3\n      dup2\n      sub\n      dup3\n      mstore\n      0x20\n      dup2\n      mstore\n      0x20\n      add\n      dup1\n      0x4f776e61626c653a2063616c6c6572206973206e6f7420746865206f776e6572\n      dup2\n      mstore\n      pop\n      0x20\n      add\n      swap2\n      pop\n      pop\n      mload(0x40)\n      dup1\n      swap2\n      sub\n      swap1\n      revert\n    tag_434:\n        /* \"TEXOToken.sol\":12430:12458  _transferOwnership(newOwner) */\n      tag_436\n        /* \"TEXOToken.sol\":12449:12457  newOwner */\n      dup2\n        /* \"TEXOToken.sol\":12430:12448  _transferOwnership */\n      tag_437\n        /* \"TEXOToken.sol\":12430:12458  _transferOwnership(newOwner) */\n      jump\t// in\n    tag_436:\n        /* \"TEXOToken.sol\":12358:12465  function transferOwnership(address newOwner) public onlyOwner {... */\n      pop\n      jump\t// out\n        /* \"TEXOToken.sol\":5955:6051  function _msgSender() internal view returns (address payable) {... */\n    tag_186:\n        /* \"TEXOToken.sol\":6000:6015  address payable */\n      0x00\n        /* \"TEXOToken.sol\":6034:6044  msg.sender */\n      caller\n        /* \"TEXOToken.sol\":6027:6044  return msg.sender */\n      swap1\n      pop\n        /* \"TEXOToken.sol\":5955:6051  function _msgSender() internal view returns (address payable) {... */\n      swap1\n      jump\t// out\n        /* \"TEXOToken.sol\":900:1076  function add(uint256 a, uint256 b) internal pure returns (uint256) {... */\n    tag_197:\n        /* \"TEXOToken.sol\":958:965  uint256 */\n      0x00\n        /* \"TEXOToken.sol\":977:986  uint256 c */\n      dup1\n        /* \"TEXOToken.sol\":993:994  b */\n      dup3\n        /* \"TEXOToken.sol\":989:990  a */\n      dup5\n        /* \"TEXOToken.sol\":989:994  a + b */\n      add\n        /* \"TEXOToken.sol\":977:994  uint256 c = a + b */\n      swap1\n      pop\n        /* \"TEXOToken.sol\":1017:1018  a */\n      dup4\n        /* \"TEXOToken.sol\":1012:1013  c */\n      dup2\n        /* \"TEXOToken.sol\":1012:1018  c >= a */\n      lt\n      iszero\n        /* \"TEXOToken.sol\":1004:1050  require(c >= a, \"SafeMath: addition overflow\") */\n      tag_440\n      jumpi\n      mload(0x40)\n      0x08c379a000000000000000000000000000000000000000000000000000000000\n      dup2\n      mstore\n      0x04\n      add\n      dup1\n      dup1\n      0x20\n      add\n      dup3\n      dup2\n      sub\n      dup3\n      mstore\n      0x1b\n      dup2\n      mstore\n      0x20\n      add\n      dup1\n      0x536166654d6174683a206164646974696f6e206f766572666c6f770000000000\n      dup2\n      mstore\n      pop\n      0x20\n      add\n      swap2\n      pop\n      pop\n      mload(0x40)\n      dup1\n      swap2\n      sub\n      swap1\n      revert\n    tag_440:\n        /* \"TEXOToken.sol\":1068:1069  c */\n      dup1\n        /* \"TEXOToken.sol\":1061:1069  return c */\n      swap2\n      pop\n      pop\n        /* \"TEXOToken.sol\":900:1076  function add(uint256 a, uint256 b) internal pure returns (uint256) {... */\n      swap3\n      swap2\n      pop\n      pop\n      jump\t// out\n        /* \"TEXOToken.sol\":2185:2644  function mul(uint256 a, uint256 b) internal pure returns (uint256) {... */\n    tag_221:\n        /* \"TEXOToken.sol\":2243:2250  uint256 */\n      0x00\n        /* \"TEXOToken.sol\":2489:2490  0 */\n      dup1\n        /* \"TEXOToken.sol\":2484:2485  a */\n      dup4\n        /* \"TEXOToken.sol\":2484:2490  a == 0 */\n      eq\n        /* \"TEXOToken.sol\":2480:2525  if (a == 0) {... */\n      iszero\n      tag_442\n      jumpi\n        /* \"TEXOToken.sol\":2513:2514  0 */\n      0x00\n        /* \"TEXOToken.sol\":2506:2514  return 0 */\n      swap1\n      pop\n      jump(tag_441)\n        /* \"TEXOToken.sol\":2480:2525  if (a == 0) {... */\n    tag_442:\n        /* \"TEXOToken.sol\":2535:2544  uint256 c */\n      0x00\n        /* \"TEXOToken.sol\":2551:2552  b */\n      dup3\n        /* \"TEXOToken.sol\":2547:2548  a */\n      dup5\n        /* \"TEXOToken.sol\":2547:2552  a * b */\n      mul\n        /* \"TEXOToken.sol\":2535:2552  uint256 c = a * b */\n      swap1\n      pop\n        /* \"TEXOToken.sol\":2579:2580  b */\n      dup3\n        /* \"TEXOToken.sol\":2574:2575  a */\n      dup5\n        /* \"TEXOToken.sol\":2570:2571  c */\n      dup3\n        /* \"TEXOToken.sol\":2570:2575  c / a */\n      dup2\n      tag_443\n      jumpi\n      invalid\n    tag_443:\n      div\n        /* \"TEXOToken.sol\":2570:2580  c / a == b */\n      eq\n        /* \"TEXOToken.sol\":2562:2618  require(c / a == b, \"SafeMath: multiplication overflow\") */\n      tag_444\n      jumpi\n      mload(0x40)\n      0x08c379a000000000000000000000000000000000000000000000000000000000\n      dup2\n      mstore\n      0x04\n      add\n      dup1\n      dup1\n      0x20\n      add\n      dup3\n      dup2\n      sub\n      dup3\n      mstore\n      0x21\n      dup2\n      mstore\n      0x20\n      add\n      dup1\n      data_9113bb53c2876a3805b2c9242029423fc540a728243ce887ab24c82cf119fba3\n      0x21\n      swap2\n      codecopy\n      0x40\n      add\n      swap2\n      pop\n      pop\n      mload(0x40)\n      dup1\n      swap2\n      sub\n      swap1\n      revert\n    tag_444:\n        /* \"TEXOToken.sol\":2636:2637  c */\n      dup1\n        /* \"TEXOToken.sol\":2629:2637  return c */\n      swap2\n      pop\n      pop\n        /* \"TEXOToken.sol\":2185:2644  function mul(uint256 a, uint256 b) internal pure returns (uint256) {... */\n    tag_441:\n      swap3\n      swap2\n      pop\n      pop\n      jump\t// out\n        /* \"TEXOToken.sol\":3099:3229  function div(uint256 a, uint256 b) internal pure returns (uint256) {... */\n    tag_222:\n        /* \"TEXOToken.sol\":3157:3164  uint256 */\n      0x00\n        /* \"TEXOToken.sol\":3183:3222  div(a, b, \"SafeMath: division by zero\") */\n      tag_446\n        /* \"TEXOToken.sol\":3187:3188  a */\n      dup4\n        /* \"TEXOToken.sol\":3190:3191  b */\n      dup4\n        /* \"TEXOToken.sol\":3183:3222  div(a, b, \"SafeMath: division by zero\") */\n      mload(0x40)\n      dup1\n      0x40\n      add\n      0x40\n      mstore\n      dup1\n      0x1a\n      dup2\n      mstore\n      0x20\n      add\n      0x536166654d6174683a206469766973696f6e206279207a65726f000000000000\n      dup2\n      mstore\n      pop\n        /* \"TEXOToken.sol\":3183:3186  div */\n      tag_447\n        /* \"TEXOToken.sol\":3183:3222  div(a, b, \"SafeMath: division by zero\") */\n      jump\t// in\n    tag_446:\n        /* \"TEXOToken.sol\":3176:3222  return div(a, b, \"SafeMath: division by zero\") */\n      swap1\n      pop\n        /* \"TEXOToken.sol\":3099:3229  function div(uint256 a, uint256 b) internal pure returns (uint256) {... */\n      swap3\n      swap2\n      pop\n      pop\n      jump\t// out\n        /* \"TEXOToken.sol\":1340:1474  function sub(uint256 a, uint256 b) internal pure returns (uint256) {... */\n    tag_223:\n        /* \"TEXOToken.sol\":1398:1405  uint256 */\n      0x00\n        /* \"TEXOToken.sol\":1424:1467  sub(a, b, \"SafeMath: subtraction overflow\") */\n      tag_449\n        /* \"TEXOToken.sol\":1428:1429  a */\n      dup4\n        /* \"TEXOToken.sol\":1431:1432  b */\n      dup4\n        /* \"TEXOToken.sol\":1424:1467  sub(a, b, \"SafeMath: subtraction overflow\") */\n      mload(0x40)\n      dup1\n      0x40\n      add\n      0x40\n      mstore\n      dup1\n      0x1e\n      dup2\n      mstore\n      0x20\n      add\n      0x536166654d6174683a207375627472616374696f6e206f766572666c6f770000\n      dup2\n      mstore\n      pop\n        /* \"TEXOToken.sol\":1424:1427  sub */\n      tag_450\n        /* \"TEXOToken.sol\":1424:1467  sub(a, b, \"SafeMath: subtraction overflow\") */\n      jump\t// in\n    tag_449:\n        /* \"TEXOToken.sol\":1417:1467  return sub(a, b, \"SafeMath: subtraction overflow\") */\n      swap1\n      pop\n        /* \"TEXOToken.sol\":1340:1474  function sub(uint256 a, uint256 b) internal pure returns (uint256) {... */\n      swap3\n      swap2\n      pop\n      pop\n      jump\t// out\n        /* \"TEXOToken.sol\":50041:50460  function safeTEXOTransfer(address _to, uint256 _amount) internal {... */\n    tag_227:\n        /* \"TEXOToken.sol\":50116:50131  uint256 tEXOBal */\n      0x00\n        /* \"TEXOToken.sol\":50134:50138  tEXO */\n      0x02\n      0x00\n      swap1\n      sload\n      swap1\n      0x0100\n      exp\n      swap1\n      div\n      0xffffffffffffffffffffffffffffffffffffffff\n      and\n        /* \"TEXOToken.sol\":50134:50148  tEXO.balanceOf */\n      0xffffffffffffffffffffffffffffffffffffffff\n      and\n      0x70a08231\n        /* \"TEXOToken.sol\":50157:50161  this */\n      address\n        /* \"TEXOToken.sol\":50134:50163  tEXO.balanceOf(address(this)) */\n      mload(0x40)\n      dup3\n      0xffffffff\n      and\n      0xe0\n      shl\n      dup2\n      mstore\n      0x04\n      add\n      dup1\n      dup3\n      0xffffffffffffffffffffffffffffffffffffffff\n      and\n      dup2\n      mstore\n      0x20\n      add\n      swap2\n      pop\n      pop\n      0x20\n      mload(0x40)\n      dup1\n      dup4\n      sub\n      dup2\n      dup7\n      dup1\n      extcodesize\n      iszero\n      dup1\n      iszero\n      tag_452\n      jumpi\n      0x00\n      dup1\n      revert\n    tag_452:\n      pop\n      gas\n      staticcall\n      iszero\n      dup1\n      iszero\n      tag_454\n      jumpi\n      returndatasize\n      0x00\n      dup1\n      returndatacopy\n      revert(0x00, returndatasize)\n    tag_454:\n      pop\n      pop\n      pop\n      pop\n      mload(0x40)\n      returndatasize\n      0x20\n      dup2\n      lt\n      iszero\n      tag_455\n      jumpi\n      0x00\n      dup1\n      revert\n    tag_455:\n      dup2\n      add\n      swap1\n      dup1\n      dup1\n      mload\n      swap1\n      0x20\n      add\n      swap1\n      swap3\n      swap2\n      swap1\n      pop\n      pop\n      pop\n        /* \"TEXOToken.sol\":50116:50163  uint256 tEXOBal = tEXO.balanceOf(address(this)) */\n      swap1\n      pop\n        /* \"TEXOToken.sol\":50173:50193  bool transferSuccess */\n      0x00\n        /* \"TEXOToken.sol\":50226:50233  tEXOBal */\n      dup2\n        /* \"TEXOToken.sol\":50216:50223  _amount */\n      dup4\n        /* \"TEXOToken.sol\":50216:50233  _amount > tEXOBal */\n      gt\n        /* \"TEXOToken.sol\":50212:50381  if (_amount > tEXOBal) {... */\n      iszero\n      tag_456\n      jumpi\n        /* \"TEXOToken.sol\":50267:50271  tEXO */\n      0x02\n      0x00\n      swap1\n      sload\n      swap1\n      0x0100\n      exp\n      swap1\n      div\n      0xffffffffffffffffffffffffffffffffffffffff\n      and\n        /* \"TEXOToken.sol\":50267:50280  tEXO.transfer */\n      0xffffffffffffffffffffffffffffffffffffffff\n      and\n      0xa9059cbb\n        /* \"TEXOToken.sol\":50281:50284  _to */\n      dup6\n        /* \"TEXOToken.sol\":50286:50293  tEXOBal */\n      dup5\n        /* \"TEXOToken.sol\":50267:50294  tEXO.transfer(_to, tEXOBal) */\n      mload(0x40)\n      dup4\n      0xffffffff\n      and\n      0xe0\n      shl\n      dup2\n      mstore\n      0x04\n      add\n      dup1\n      dup4\n      0xffffffffffffffffffffffffffffffffffffffff\n      and\n      dup2\n      mstore\n      0x20\n      add\n      dup3\n      dup2\n      mstore\n      0x20\n      add\n      swap3\n      pop\n      pop\n      pop\n      0x20\n      mload(0x40)\n      dup1\n      dup4\n      sub\n      dup2\n      0x00\n      dup8\n      dup1\n      extcodesize\n      iszero\n      dup1\n      iszero\n      tag_457\n      jumpi\n      0x00\n      dup1\n      revert\n    tag_457:\n      pop\n      gas\n      call\n      iszero\n      dup1\n      iszero\n      tag_459\n      jumpi\n      returndatasize\n      0x00\n      dup1\n      returndatacopy\n      revert(0x00, returndatasize)\n    tag_459:\n      pop\n      pop\n      pop\n      pop\n      mload(0x40)\n      returndatasize\n      0x20\n      dup2\n      lt\n      iszero\n      tag_460\n      jumpi\n      0x00\n      dup1\n      revert\n    tag_460:\n      dup2\n      add\n      swap1\n      dup1\n      dup1\n      mload\n      swap1\n      0x20\n      add\n      swap1\n      swap3\n      swap2\n      swap1\n      pop\n      pop\n      pop\n        /* \"TEXOToken.sol\":50249:50294  transferSuccess = tEXO.transfer(_to, tEXOBal) */\n      swap1\n      pop\n        /* \"TEXOToken.sol\":50212:50381  if (_amount > tEXOBal) {... */\n      jump(tag_461)\n    tag_456:\n        /* \"TEXOToken.sol\":50343:50347  tEXO */\n      0x02\n      0x00\n      swap1\n      sload\n      swap1\n      0x0100\n      exp\n      swap1\n      div\n      0xffffffffffffffffffffffffffffffffffffffff\n      and\n        /* \"TEXOToken.sol\":50343:50356  tEXO.transfer */\n      0xffffffffffffffffffffffffffffffffffffffff\n      and\n      0xa9059cbb\n        /* \"TEXOToken.sol\":50357:50360  _to */\n      dup6\n        /* \"TEXOToken.sol\":50362:50369  _amount */\n      dup6\n        /* \"TEXOToken.sol\":50343:50370  tEXO.transfer(_to, _amount) */\n      mload(0x40)\n      dup4\n      0xffffffff\n      and\n      0xe0\n      shl\n      dup2\n      mstore\n      0x04\n      add\n      dup1\n      dup4\n      0xffffffffffffffffffffffffffffffffffffffff\n      and\n      dup2\n      mstore\n      0x20\n      add\n      dup3\n      dup2\n      mstore\n      0x20\n      add\n      swap3\n      pop\n      pop\n      pop\n      0x20\n      mload(0x40)\n      dup1\n      dup4\n      sub\n      dup2\n      0x00\n      dup8\n      dup1\n      extcodesize\n      iszero\n      dup1\n      iszero\n      tag_462\n      jumpi\n      0x00\n      dup1\n      revert\n    tag_462:\n      pop\n      gas\n      call\n      iszero\n      dup1\n      iszero\n      tag_464\n      jumpi\n      returndatasize\n      0x00\n      dup1\n      returndatacopy\n      revert(0x00, returndatasize)\n    tag_464:\n      pop\n      pop\n      pop\n      pop\n      mload(0x40)\n      returndatasize\n      0x20\n      dup2\n      lt\n      iszero\n      tag_465\n      jumpi\n      0x00\n      dup1\n      revert\n    tag_465:\n      dup2\n      add\n      swap1\n      dup1\n      dup1\n      mload\n      swap1\n      0x20\n      add\n      swap1\n      swap3\n      swap2\n      swap1\n      pop\n      pop\n      pop\n        /* \"TEXOToken.sol\":50325:50370  transferSuccess = tEXO.transfer(_to, _amount) */\n      swap1\n      pop\n        /* \"TEXOToken.sol\":50212:50381  if (_amount > tEXOBal) {... */\n    tag_461:\n        /* \"TEXOToken.sol\":50399:50414  transferSuccess */\n      dup1\n        /* \"TEXOToken.sol\":50391:50453  require(transferSuccess, \"safePlumTransfer: transfer failed.\") */\n      tag_466\n      jumpi\n      mload(0x40)\n      0x08c379a000000000000000000000000000000000000000000000000000000000\n      dup2\n      mstore\n      0x04\n      add\n      dup1\n      dup1\n      0x20\n      add\n      dup3\n      dup2\n      sub\n      dup3\n      mstore\n      0x22\n      dup2\n      mstore\n      0x20\n      add\n      dup1\n      data_2a7e0e7f8bc79ffac7125960112eaea13c804910c2e58b65c50e00aacc68de0e\n      0x22\n      swap2\n      codecopy\n      0x40\n      add\n      swap2\n      pop\n      pop\n      mload(0x40)\n      dup1\n      swap2\n      sub\n      swap1\n      revert\n    tag_466:\n        /* \"TEXOToken.sol\":50041:50460  function safeTEXOTransfer(address _to, uint256 _amount) internal {... */\n      pop\n      pop\n      pop\n      pop\n      jump\t// out\n        /* \"TEXOToken.sol\":53700:54101  function payReferralCommission(address _user, uint256 _pending) internal {... */\n    tag_229:\n        /* \"TEXOToken.sol\":53783:53799  address referrer */\n      0x00\n        /* \"TEXOToken.sol\":53802:53820  getReferral(_user) */\n      tag_468\n        /* \"TEXOToken.sol\":53814:53819  _user */\n      dup4\n        /* \"TEXOToken.sol\":53802:53813  getReferral */\n      tag_78\n        /* \"TEXOToken.sol\":53802:53820  getReferral(_user) */\n      jump\t// in\n    tag_468:\n        /* \"TEXOToken.sol\":53783:53820  address referrer = getReferral(_user) */\n      swap1\n      pop\n        /* \"TEXOToken.sol\":53854:53855  0 */\n      0x00\n        /* \"TEXOToken.sol\":53834:53856  referrer != address(0) */\n      0xffffffffffffffffffffffffffffffffffffffff\n      and\n        /* \"TEXOToken.sol\":53834:53842  referrer */\n      dup2\n        /* \"TEXOToken.sol\":53834:53856  referrer != address(0) */\n      0xffffffffffffffffffffffffffffffffffffffff\n      and\n      eq\n      iszero\n        /* \"TEXOToken.sol\":53834:53877  referrer != address(0) && referrer != _user */\n      dup1\n      iszero\n      tag_469\n      jumpi\n      pop\n        /* \"TEXOToken.sol\":53872:53877  _user */\n      dup3\n        /* \"TEXOToken.sol\":53860:53877  referrer != _user */\n      0xffffffffffffffffffffffffffffffffffffffff\n      and\n        /* \"TEXOToken.sol\":53860:53868  referrer */\n      dup2\n        /* \"TEXOToken.sol\":53860:53877  referrer != _user */\n      0xffffffffffffffffffffffffffffffffffffffff\n      and\n      eq\n      iszero\n        /* \"TEXOToken.sol\":53834:53877  referrer != address(0) && referrer != _user */\n    tag_469:\n        /* \"TEXOToken.sol\":53834:53895  referrer != address(0) && referrer != _user && refBonusBP > 0 */\n      dup1\n      iszero\n      tag_470\n      jumpi\n      pop\n        /* \"TEXOToken.sol\":53894:53895  0 */\n      0x00\n        /* \"TEXOToken.sol\":53881:53891  refBonusBP */\n      sload(0x0c)\n        /* \"TEXOToken.sol\":53881:53895  refBonusBP > 0 */\n      gt\n        /* \"TEXOToken.sol\":53834:53895  referrer != address(0) && referrer != _user && refBonusBP > 0 */\n    tag_470:\n        /* \"TEXOToken.sol\":53830:54095  if (referrer != address(0) && referrer != _user && refBonusBP > 0) {... */\n      iszero\n      tag_471\n      jumpi\n        /* \"TEXOToken.sol\":53911:53933  uint256 refBonusEarned */\n      0x00\n        /* \"TEXOToken.sol\":53936:53971  _pending.mul(refBonusBP).div(10000) */\n      tag_472\n        /* \"TEXOToken.sol\":53965:53970  10000 */\n      0x2710\n        /* \"TEXOToken.sol\":53936:53960  _pending.mul(refBonusBP) */\n      tag_473\n        /* \"TEXOToken.sol\":53949:53959  refBonusBP */\n      sload(0x0c)\n        /* \"TEXOToken.sol\":53936:53944  _pending */\n      dup7\n        /* \"TEXOToken.sol\":53936:53948  _pending.mul */\n      tag_221\n      swap1\n        /* \"TEXOToken.sol\":53936:53960  _pending.mul(refBonusBP) */\n      swap2\n      swap1\n      0xffffffff\n      and\n      jump\t// in\n    tag_473:\n        /* \"TEXOToken.sol\":53936:53964  _pending.mul(refBonusBP).div */\n      tag_222\n      swap1\n        /* \"TEXOToken.sol\":53936:53971  _pending.mul(refBonusBP).div(10000) */\n      swap2\n      swap1\n      0xffffffff\n      and\n      jump\t// in\n    tag_472:\n        /* \"TEXOToken.sol\":53911:53971  uint256 refBonusEarned = _pending.mul(refBonusBP).div(10000) */\n      swap1\n      pop\n        /* \"TEXOToken.sol\":53985:53989  tEXO */\n      0x02\n      0x00\n      swap1\n      sload\n      swap1\n      0x0100\n      exp\n      swap1\n      div\n      0xffffffffffffffffffffffffffffffffffffffff\n      and\n        /* \"TEXOToken.sol\":53985:53994  tEXO.mint */\n      0xffffffffffffffffffffffffffffffffffffffff\n      and\n      0x40c10f19\n        /* \"TEXOToken.sol\":53995:54003  referrer */\n      dup4\n        /* \"TEXOToken.sol\":54005:54019  refBonusEarned */\n      dup4\n        /* \"TEXOToken.sol\":53985:54020  tEXO.mint(referrer, refBonusEarned) */\n      mload(0x40)\n      dup4\n      0xffffffff\n      and\n      0xe0\n      shl\n      dup2\n      mstore\n      0x04\n      add\n      dup1\n      dup4\n      0xffffffffffffffffffffffffffffffffffffffff\n      and\n      dup2\n      mstore\n      0x20\n      add\n      dup3\n      dup2\n      mstore\n      0x20\n      add\n      swap3\n      pop\n      pop\n      pop\n      0x00\n      mload(0x40)\n      dup1\n      dup4\n      sub\n      dup2\n      0x00\n      dup8\n      dup1\n      extcodesize\n      iszero\n      dup1\n      iszero\n      tag_474\n      jumpi\n      0x00\n      dup1\n      revert\n    tag_474:\n      pop\n      gas\n      call\n      iszero\n      dup1\n      iszero\n      tag_476\n      jumpi\n      returndatasize\n      0x00\n      dup1\n      returndatacopy\n      revert(0x00, returndatasize)\n    tag_476:\n      pop\n      pop\n      pop\n      pop\n        /* \"TEXOToken.sol\":54059:54067  referrer */\n      dup2\n        /* \"TEXOToken.sol\":54039:54084  ReferralPaid(_user, referrer, refBonusEarned) */\n      0xffffffffffffffffffffffffffffffffffffffff\n      and\n        /* \"TEXOToken.sol\":54052:54057  _user */\n      dup5\n        /* \"TEXOToken.sol\":54039:54084  ReferralPaid(_user, referrer, refBonusEarned) */\n      0xffffffffffffffffffffffffffffffffffffffff\n      and\n      0x0a721ab4682ceb61c7e4d264ef879fc419a6d764b136e7d96ef54b2053c75673\n        /* \"TEXOToken.sol\":54069:54083  refBonusEarned */\n      dup4\n        /* \"TEXOToken.sol\":54039:54084  ReferralPaid(_user, referrer, refBonusEarned) */\n      mload(0x40)\n      dup1\n      dup3\n      dup2\n      mstore\n      0x20\n      add\n      swap2\n      pop\n      pop\n      mload(0x40)\n      dup1\n      swap2\n      sub\n      swap1\n      log3\n        /* \"TEXOToken.sol\":53830:54095  if (referrer != address(0) && referrer != _user && refBonusBP > 0) {... */\n      pop\n    tag_471:\n        /* \"TEXOToken.sol\":53700:54101  function payReferralCommission(address _user, uint256 _pending) internal {... */\n      pop\n      pop\n      pop\n      jump\t// out\n        /* \"TEXOToken.sol\":22669:22844  function safeTransfer(IBEP20 token, address to, uint256 value) internal {... */\n    tag_235:\n        /* \"TEXOToken.sol\":22751:22837  _callOptionalReturn(token, abi.encodeWithSelector(token.transfer.selector, to, value)) */\n      tag_478\n        /* \"TEXOToken.sol\":22771:22776  token */\n      dup4\n        /* \"TEXOToken.sol\":22801:22824  token.transfer.selector */\n      shl(0xe0, 0xa9059cbb)\n        /* \"TEXOToken.sol\":22826:22828  to */\n      dup5\n        /* \"TEXOToken.sol\":22830:22835  value */\n      dup5\n        /* \"TEXOToken.sol\":22778:22836  abi.encodeWithSelector(token.transfer.selector, to, value) */\n      add(0x24, mload(0x40))\n      dup1\n      dup4\n      0xffffffffffffffffffffffffffffffffffffffff\n      and\n      dup2\n      mstore\n      0x20\n      add\n      dup3\n      dup2\n      mstore\n      0x20\n      add\n      swap3\n      pop\n      pop\n      pop\n      mload(0x40)\n      0x20\n      dup2\n      dup4\n      sub\n      sub\n      dup2\n      mstore\n      swap1\n      0x40\n      mstore\n      swap1\n      not(0xffffffffffffffffffffffffffffffffffffffffffffffffffffffff)\n      and\n      0x20\n      dup3\n      add\n      dup1\n      mload\n      0xffffffffffffffffffffffffffffffffffffffffffffffffffffffff\n      dup4\n      dup2\n      dup4\n      and\n      or\n      dup4\n      mstore\n      pop\n      pop\n      pop\n      pop\n        /* \"TEXOToken.sol\":22751:22770  _callOptionalReturn */\n      tag_479\n        /* \"TEXOToken.sol\":22751:22837  _callOptionalReturn(token, abi.encodeWithSelector(token.transfer.selector, to, value)) */\n      jump\t// in\n    tag_478:\n        /* \"TEXOToken.sol\":22669:22844  function safeTransfer(IBEP20 token, address to, uint256 value) internal {... */\n      pop\n      pop\n      pop\n      jump\t// out\n        /* \"TEXOToken.sol\":53128:53469  function setReferral(address _user, address _referrer) internal {... */\n    tag_313:\n        /* \"TEXOToken.sol\":53227:53236  _referrer */\n      dup1\n        /* \"TEXOToken.sol\":53206:53237  _referrer == address(_referrer) */\n      0xffffffffffffffffffffffffffffffffffffffff\n      and\n        /* \"TEXOToken.sol\":53206:53215  _referrer */\n      dup2\n        /* \"TEXOToken.sol\":53206:53237  _referrer == address(_referrer) */\n      0xffffffffffffffffffffffffffffffffffffffff\n      and\n      eq\n        /* \"TEXOToken.sol\":53206:53271  _referrer == address(_referrer) && referrers[_user] == address(0) */\n      dup1\n      iszero\n      tag_481\n      jumpi\n      pop\n        /* \"TEXOToken.sol\":53269:53270  0 */\n      0x00\n        /* \"TEXOToken.sol\":53241:53271  referrers[_user] == address(0) */\n      0xffffffffffffffffffffffffffffffffffffffff\n      and\n        /* \"TEXOToken.sol\":53241:53250  referrers */\n      0x0d\n        /* \"TEXOToken.sol\":53241:53257  referrers[_user] */\n      0x00\n        /* \"TEXOToken.sol\":53251:53256  _user */\n      dup5\n        /* \"TEXOToken.sol\":53241:53257  referrers[_user] */\n      0xffffffffffffffffffffffffffffffffffffffff\n      and\n      0xffffffffffffffffffffffffffffffffffffffff\n      and\n      dup2\n      mstore\n      0x20\n      add\n      swap1\n      dup2\n      mstore\n      0x20\n      add\n      0x00\n      keccak256\n      0x00\n      swap1\n      sload\n      swap1\n      0x0100\n      exp\n      swap1\n      div\n      0xffffffffffffffffffffffffffffffffffffffff\n      and\n        /* \"TEXOToken.sol\":53241:53271  referrers[_user] == address(0) */\n      0xffffffffffffffffffffffffffffffffffffffff\n      and\n      eq\n        /* \"TEXOToken.sol\":53206:53271  _referrer == address(_referrer) && referrers[_user] == address(0) */\n    tag_481:\n        /* \"TEXOToken.sol\":53206:53298  _referrer == address(_referrer) && referrers[_user] == address(0) && _referrer != address(0) */\n      dup1\n      iszero\n      tag_482\n      jumpi\n      pop\n        /* \"TEXOToken.sol\":53296:53297  0 */\n      0x00\n        /* \"TEXOToken.sol\":53275:53298  _referrer != address(0) */\n      0xffffffffffffffffffffffffffffffffffffffff\n      and\n        /* \"TEXOToken.sol\":53275:53284  _referrer */\n      dup2\n        /* \"TEXOToken.sol\":53275:53298  _referrer != address(0) */\n      0xffffffffffffffffffffffffffffffffffffffff\n      and\n      eq\n      iszero\n        /* \"TEXOToken.sol\":53206:53298  _referrer == address(_referrer) && referrers[_user] == address(0) && _referrer != address(0) */\n    tag_482:\n        /* \"TEXOToken.sol\":53206:53320  _referrer == address(_referrer) && referrers[_user] == address(0) && _referrer != address(0) && _referrer != _user */\n      dup1\n      iszero\n      tag_483\n      jumpi\n      pop\n        /* \"TEXOToken.sol\":53315:53320  _user */\n      dup2\n        /* \"TEXOToken.sol\":53302:53320  _referrer != _user */\n      0xffffffffffffffffffffffffffffffffffffffff\n      and\n        /* \"TEXOToken.sol\":53302:53311  _referrer */\n      dup2\n        /* \"TEXOToken.sol\":53302:53320  _referrer != _user */\n      0xffffffffffffffffffffffffffffffffffffffff\n      and\n      eq\n      iszero\n        /* \"TEXOToken.sol\":53206:53320  _referrer == address(_referrer) && referrers[_user] == address(0) && _referrer != address(0) && _referrer != _user */\n    tag_483:\n        /* \"TEXOToken.sol\":53202:53463  if (_referrer == address(_referrer) && referrers[_user] == address(0) && _referrer != address(0) && _referrer != _user) {... */\n      iszero\n      tag_484\n      jumpi\n        /* \"TEXOToken.sol\":53355:53364  _referrer */\n      dup1\n        /* \"TEXOToken.sol\":53336:53345  referrers */\n      0x0d\n        /* \"TEXOToken.sol\":53336:53352  referrers[_user] */\n      0x00\n        /* \"TEXOToken.sol\":53346:53351  _user */\n      dup5\n        /* \"TEXOToken.sol\":53336:53352  referrers[_user] */\n      0xffffffffffffffffffffffffffffffffffffffff\n      and\n      0xffffffffffffffffffffffffffffffffffffffff\n      and\n      dup2\n      mstore\n      0x20\n      add\n      swap1\n      dup2\n      mstore\n      0x20\n      add\n      0x00\n      keccak256\n      0x00\n        /* \"TEXOToken.sol\":53336:53364  referrers[_user] = _referrer */\n      0x0100\n      exp\n      dup2\n      sload\n      dup2\n      0xffffffffffffffffffffffffffffffffffffffff\n      mul\n      not\n      and\n      swap1\n      dup4\n      0xffffffffffffffffffffffffffffffffffffffff\n      and\n      mul\n      or\n      swap1\n      sstore\n      pop\n        /* \"TEXOToken.sol\":53406:53407  1 */\n      0x01\n        /* \"TEXOToken.sol\":53378:53391  referredCount */\n      0x0e\n        /* \"TEXOToken.sol\":53378:53402  referredCount[_referrer] */\n      0x00\n        /* \"TEXOToken.sol\":53392:53401  _referrer */\n      dup4\n        /* \"TEXOToken.sol\":53378:53402  referredCount[_referrer] */\n      0xffffffffffffffffffffffffffffffffffffffff\n      and\n      0xffffffffffffffffffffffffffffffffffffffff\n      and\n      dup2\n      mstore\n      0x20\n      add\n      swap1\n      dup2\n      mstore\n      0x20\n      add\n      0x00\n      keccak256\n      0x00\n        /* \"TEXOToken.sol\":53378:53407  referredCount[_referrer] += 1 */\n      dup3\n      dup3\n      sload\n      add\n      swap3\n      pop\n      pop\n      dup2\n      swap1\n      sstore\n      pop\n        /* \"TEXOToken.sol\":53442:53451  _referrer */\n      dup1\n        /* \"TEXOToken.sol\":53426:53452  Referral(_user, _referrer) */\n      0xffffffffffffffffffffffffffffffffffffffff\n      and\n        /* \"TEXOToken.sol\":53435:53440  _user */\n      dup3\n        /* \"TEXOToken.sol\":53426:53452  Referral(_user, _referrer) */\n      0xffffffffffffffffffffffffffffffffffffffff\n      and\n      0x9d05414fb79fac216c15606de5cc06664e91a254e4d5f57664d5f1beaf7fb7ef\n      mload(0x40)\n      mload(0x40)\n      dup1\n      swap2\n      sub\n      swap1\n      log3\n        /* \"TEXOToken.sol\":53202:53463  if (_referrer == address(_referrer) && referrers[_user] == address(0) && _referrer != address(0) && _referrer != _user) {... */\n    tag_484:\n        /* \"TEXOToken.sol\":53128:53469  function setReferral(address _user, address _referrer) internal {... */\n      pop\n      pop\n      jump\t// out\n        /* \"TEXOToken.sol\":22850:23053  function safeTransferFrom(IBEP20 token, address from, address to, uint256 value) internal {... */\n    tag_315:\n        /* \"TEXOToken.sol\":22950:23046  _callOptionalReturn(token, abi.encodeWithSelector(token.transferFrom.selector, from, to, value)) */\n      tag_486\n        /* \"TEXOToken.sol\":22970:22975  token */\n      dup5\n        /* \"TEXOToken.sol\":23000:23027  token.transferFrom.selector */\n      shl(0xe0, 0x23b872dd)\n        /* \"TEXOToken.sol\":23029:23033  from */\n      dup6\n        /* \"TEXOToken.sol\":23035:23037  to */\n      dup6\n        /* \"TEXOToken.sol\":23039:23044  value */\n      dup6\n        /* \"TEXOToken.sol\":22977:23045  abi.encodeWithSelector(token.transferFrom.selector, from, to, value) */\n      add(0x24, mload(0x40))\n      dup1\n      dup5\n      0xffffffffffffffffffffffffffffffffffffffff\n      and\n      dup2\n      mstore\n      0x20\n      add\n      dup4\n      0xffffffffffffffffffffffffffffffffffffffff\n      and\n      dup2\n      mstore\n      0x20\n      add\n      dup3\n      dup2\n      mstore\n      0x20\n      add\n      swap4\n      pop\n      pop\n      pop\n      pop\n      mload(0x40)\n      0x20\n      dup2\n      dup4\n      sub\n      sub\n      dup2\n      mstore\n      swap1\n      0x40\n      mstore\n      swap1\n      not(0xffffffffffffffffffffffffffffffffffffffffffffffffffffffff)\n      and\n      0x20\n      dup3\n      add\n      dup1\n      mload\n      0xffffffffffffffffffffffffffffffffffffffffffffffffffffffff\n      dup4\n      dup2\n      dup4\n      and\n      or\n      dup4\n      mstore\n      pop\n      pop\n      pop\n      pop\n        /* \"TEXOToken.sol\":22950:22969  _callOptionalReturn */\n      tag_479\n        /* \"TEXOToken.sol\":22950:23046  _callOptionalReturn(token, abi.encodeWithSelector(token.transferFrom.selector, from, to, value)) */\n      jump\t// in\n    tag_486:\n        /* \"TEXOToken.sol\":22850:23053  function safeTransferFrom(IBEP20 token, address from, address to, uint256 value) internal {... */\n      pop\n      pop\n      pop\n      pop\n      jump\t// out\n        /* \"TEXOToken.sol\":12566:12791  function _transferOwnership(address newOwner) internal {... */\n    tag_437:\n        /* \"TEXOToken.sol\":12659:12660  0 */\n      0x00\n        /* \"TEXOToken.sol\":12639:12661  newOwner != address(0) */\n      0xffffffffffffffffffffffffffffffffffffffff\n      and\n        /* \"TEXOToken.sol\":12639:12647  newOwner */\n      dup2\n        /* \"TEXOToken.sol\":12639:12661  newOwner != address(0) */\n      0xffffffffffffffffffffffffffffffffffffffff\n      and\n      eq\n      iszero\n        /* \"TEXOToken.sol\":12631:12704  require(newOwner != address(0), \"Ownable: new owner is the zero address\") */\n      tag_488\n      jumpi\n      mload(0x40)\n      0x08c379a000000000000000000000000000000000000000000000000000000000\n      dup2\n      mstore\n      0x04\n      add\n      dup1\n      dup1\n      0x20\n      add\n      dup3\n      dup2\n      sub\n      dup3\n      mstore\n      0x26\n      dup2\n      mstore\n      0x20\n      add\n      dup1\n      data_245f15ff17f551913a7a18385165551503906a406f905ac1c2437281a7cd0cfe\n      0x26\n      swap2\n      codecopy\n      0x40\n      add\n      swap2\n      pop\n      pop\n      mload(0x40)\n      dup1\n      swap2\n      sub\n      swap1\n      revert\n    tag_488:\n        /* \"TEXOToken.sol\":12748:12756  newOwner */\n      dup1\n        /* \"TEXOToken.sol\":12719:12757  OwnershipTransferred(_owner, newOwner) */\n      0xffffffffffffffffffffffffffffffffffffffff\n      and\n        /* \"TEXOToken.sol\":12740:12746  _owner */\n      0x00\n      dup1\n      sload\n      swap1\n      0x0100\n      exp\n      swap1\n      div\n      0xffffffffffffffffffffffffffffffffffffffff\n      and\n        /* \"TEXOToken.sol\":12719:12757  OwnershipTransferred(_owner, newOwner) */\n      0xffffffffffffffffffffffffffffffffffffffff\n      and\n      0x8be0079c531659141344cd1fd0a4f28419497f9722a3daafe3b4186f6b6457e0\n      mload(0x40)\n      mload(0x40)\n      dup1\n      swap2\n      sub\n      swap1\n      log3\n        /* \"TEXOToken.sol\":12776:12784  newOwner */\n      dup1\n        /* \"TEXOToken.sol\":12767:12773  _owner */\n      0x00\n      dup1\n        /* \"TEXOToken.sol\":12767:12784  _owner = newOwner */\n      0x0100\n      exp\n      dup2\n      sload\n      dup2\n      0xffffffffffffffffffffffffffffffffffffffff\n      mul\n      not\n      and\n      swap1\n      dup4\n      0xffffffffffffffffffffffffffffffffffffffff\n      and\n      mul\n      or\n      swap1\n      sstore\n      pop\n        /* \"TEXOToken.sol\":12566:12791  function _transferOwnership(address newOwner) internal {... */\n      pop\n      jump\t// out\n        /* \"TEXOToken.sol\":3704:4042  function div(uint256 a, uint256 b, string memory errorMessage) internal pure returns (uint256) {... */\n    tag_447:\n        /* \"TEXOToken.sol\":3790:3797  uint256 */\n      0x00\n        /* \"TEXOToken.sol\":3887:3888  0 */\n      dup1\n        /* \"TEXOToken.sol\":3883:3884  b */\n      dup4\n        /* \"TEXOToken.sol\":3883:3888  b > 0 */\n      gt\n        /* \"TEXOToken.sol\":3890:3902  errorMessage */\n      dup3\n        /* \"TEXOToken.sol\":3875:3903  require(b > 0, errorMessage) */\n      swap1\n      tag_490\n      jumpi\n      mload(0x40)\n      0x08c379a000000000000000000000000000000000000000000000000000000000\n      dup2\n      mstore\n      0x04\n      add\n      dup1\n      dup1\n      0x20\n      add\n      dup3\n      dup2\n      sub\n      dup3\n      mstore\n      dup4\n      dup2\n      dup2\n      mload\n      dup2\n      mstore\n      0x20\n      add\n      swap2\n      pop\n      dup1\n      mload\n      swap1\n      0x20\n      add\n      swap1\n      dup1\n      dup4\n      dup4\n      0x00\n    tag_491:\n      dup4\n      dup2\n      lt\n      iszero\n      tag_493\n      jumpi\n      dup1\n      dup3\n      add\n      mload\n      dup2\n      dup5\n      add\n      mstore\n      0x20\n      dup2\n      add\n      swap1\n      pop\n      jump(tag_491)\n    tag_493:\n      pop\n      pop\n      pop\n      pop\n      swap1\n      pop\n      swap1\n      dup2\n      add\n      swap1\n      0x1f\n      and\n      dup1\n      iszero\n      tag_494\n      jumpi\n      dup1\n      dup3\n      sub\n      dup1\n      mload\n      0x01\n      dup4\n      0x20\n      sub\n      0x0100\n      exp\n      sub\n      not\n      and\n      dup2\n      mstore\n      0x20\n      add\n      swap2\n      pop\n    tag_494:\n      pop\n      swap3\n      pop\n      pop\n      pop\n      mload(0x40)\n      dup1\n      swap2\n      sub\n      swap1\n      revert\n    tag_490:\n      pop\n        /* \"TEXOToken.sol\":3913:3922  uint256 c */\n      0x00\n        /* \"TEXOToken.sol\":3929:3930  b */\n      dup4\n        /* \"TEXOToken.sol\":3925:3926  a */\n      dup6\n        /* \"TEXOToken.sol\":3925:3930  a / b */\n      dup2\n      tag_495\n      jumpi\n      invalid\n    tag_495:\n      div\n        /* \"TEXOToken.sol\":3913:3930  uint256 c = a / b */\n      swap1\n      pop\n        /* \"TEXOToken.sol\":4034:4035  c */\n      dup1\n        /* \"TEXOToken.sol\":4027:4035  return c */\n      swap2\n      pop\n      pop\n        /* \"TEXOToken.sol\":3704:4042  function div(uint256 a, uint256 b, string memory errorMessage) internal pure returns (uint256) {... */\n      swap4\n      swap3\n      pop\n      pop\n      pop\n      jump\t// out\n        /* \"TEXOToken.sol\":1758:1945  function sub(uint256 a, uint256 b, string memory errorMessage) internal pure returns (uint256) {... */\n    tag_450:\n        /* \"TEXOToken.sol\":1844:1851  uint256 */\n      0x00\n        /* \"TEXOToken.sol\":1876:1877  a */\n      dup4\n        /* \"TEXOToken.sol\":1871:1872  b */\n      dup4\n        /* \"TEXOToken.sol\":1871:1877  b <= a */\n      gt\n      iszero\n        /* \"TEXOToken.sol\":1879:1891  errorMessage */\n      dup3\n        /* \"TEXOToken.sol\":1863:1892  require(b <= a, errorMessage) */\n      swap1\n      tag_497\n      jumpi\n      mload(0x40)\n      0x08c379a000000000000000000000000000000000000000000000000000000000\n      dup2\n      mstore\n      0x04\n      add\n      dup1\n      dup1\n      0x20\n      add\n      dup3\n      dup2\n      sub\n      dup3\n      mstore\n      dup4\n      dup2\n      dup2\n      mload\n      dup2\n      mstore\n      0x20\n      add\n      swap2\n      pop\n      dup1\n      mload\n      swap1\n      0x20\n      add\n      swap1\n      dup1\n      dup4\n      dup4\n      0x00\n    tag_498:\n      dup4\n      dup2\n      lt\n      iszero\n      tag_500\n      jumpi\n      dup1\n      dup3\n      add\n      mload\n      dup2\n      dup5\n      add\n      mstore\n      0x20\n      dup2\n      add\n      swap1\n      pop\n      jump(tag_498)\n    tag_500:\n      pop\n      pop\n      pop\n      pop\n      swap1\n      pop\n      swap1\n      dup2\n      add\n      swap1\n      0x1f\n      and\n      dup1\n      iszero\n      tag_501\n      jumpi\n      dup1\n      dup3\n      sub\n      dup1\n      mload\n      0x01\n      dup4\n      0x20\n      sub\n      0x0100\n      exp\n      sub\n      not\n      and\n      dup2\n      mstore\n      0x20\n      add\n      swap2\n      pop\n    tag_501:\n      pop\n      swap3\n      pop\n      pop\n      pop\n      mload(0x40)\n      dup1\n      swap2\n      sub\n      swap1\n      revert\n    tag_497:\n      pop\n        /* \"TEXOToken.sol\":1902:1911  uint256 c */\n      0x00\n        /* \"TEXOToken.sol\":1918:1919  b */\n      dup4\n        /* \"TEXOToken.sol\":1914:1915  a */\n      dup6\n        /* \"TEXOToken.sol\":1914:1919  a - b */\n      sub\n        /* \"TEXOToken.sol\":1902:1919  uint256 c = a - b */\n      swap1\n      pop\n        /* \"TEXOToken.sol\":1937:1938  c */\n      dup1\n        /* \"TEXOToken.sol\":1930:1938  return c */\n      swap2\n      pop\n      pop\n        /* \"TEXOToken.sol\":1758:1945  function sub(uint256 a, uint256 b, string memory errorMessage) internal pure returns (uint256) {... */\n      swap4\n      swap3\n      pop\n      pop\n      pop\n      jump\t// out\n        /* \"TEXOToken.sol\":24932:25683  function _callOptionalReturn(IBEP20 token, bytes memory data) private {... */\n    tag_479:\n        /* \"TEXOToken.sol\":25351:25374  bytes memory returndata */\n      0x60\n        /* \"TEXOToken.sol\":25377:25446  address(token).functionCall(data, \"SafeBEP20: low-level call failed\") */\n      tag_503\n        /* \"TEXOToken.sol\":25405:25409  data */\n      dup3\n        /* \"TEXOToken.sol\":25377:25446  address(token).functionCall(data, \"SafeBEP20: low-level call failed\") */\n      mload(0x40)\n      dup1\n      0x40\n      add\n      0x40\n      mstore\n      dup1\n      0x20\n      dup2\n      mstore\n      0x20\n      add\n      0x5361666542455032303a206c6f772d6c6576656c2063616c6c206661696c6564\n      dup2\n      mstore\n      pop\n        /* \"TEXOToken.sol\":25385:25390  token */\n      dup6\n        /* \"TEXOToken.sol\":25377:25404  address(token).functionCall */\n      0xffffffffffffffffffffffffffffffffffffffff\n      and\n      tag_504\n      swap1\n        /* \"TEXOToken.sol\":25377:25446  address(token).functionCall(data, \"SafeBEP20: low-level call failed\") */\n      swap3\n      swap2\n      swap1\n      0xffffffff\n      and\n      jump\t// in\n    tag_503:\n        /* \"TEXOToken.sol\":25351:25446  bytes memory returndata = address(token).functionCall(data, \"SafeBEP20: low-level call failed\") */\n      swap1\n      pop\n        /* \"TEXOToken.sol\":25480:25481  0 */\n      0x00\n        /* \"TEXOToken.sol\":25460:25470  returndata */\n      dup2\n        /* \"TEXOToken.sol\":25460:25477  returndata.length */\n      mload\n        /* \"TEXOToken.sol\":25460:25481  returndata.length > 0 */\n      gt\n        /* \"TEXOToken.sol\":25456:25677  if (returndata.length > 0) { // Return data is optional... */\n      iszero\n      tag_505\n      jumpi\n        /* \"TEXOToken.sol\":25600:25610  returndata */\n      dup1\n        /* \"TEXOToken.sol\":25589:25619  abi.decode(returndata, (bool)) */\n      dup1\n      0x20\n      add\n      swap1\n      mload\n      0x20\n      dup2\n      lt\n      iszero\n      tag_506\n      jumpi\n      0x00\n      dup1\n      revert\n    tag_506:\n      dup2\n      add\n      swap1\n      dup1\n      dup1\n      mload\n      swap1\n      0x20\n      add\n      swap1\n      swap3\n      swap2\n      swap1\n      pop\n      pop\n      pop\n        /* \"TEXOToken.sol\":25581:25666  require(abi.decode(returndata, (bool)), \"SafeBEP20: BEP20 operation did not succeed\") */\n      tag_507\n      jumpi\n      mload(0x40)\n      0x08c379a000000000000000000000000000000000000000000000000000000000\n      dup2\n      mstore\n      0x04\n      add\n      dup1\n      dup1\n      0x20\n      add\n      dup3\n      dup2\n      sub\n      dup3\n      mstore\n      0x2a\n      dup2\n      mstore\n      0x20\n      add\n      dup1\n      data_21c3364d55537bf20eb8f05374e9f53f47299e1883c412f1f1135f398f2c2082\n      0x2a\n      swap2\n      codecopy\n      0x40\n      add\n      swap2\n      pop\n      pop\n      mload(0x40)\n      dup1\n      swap2\n      sub\n      swap1\n      revert\n    tag_507:\n        /* \"TEXOToken.sol\":25456:25677  if (returndata.length > 0) { // Return data is optional... */\n    tag_505:\n        /* \"TEXOToken.sol\":24932:25683  function _callOptionalReturn(IBEP20 token, bytes memory data) private {... */\n      pop\n      pop\n      pop\n      jump\t// out\n        /* \"TEXOToken.sol\":16312:16505  function functionCall(address target, bytes memory data, string memory errorMessage) internal returns (bytes memory) {... */\n    tag_504:\n        /* \"TEXOToken.sol\":16415:16427  bytes memory */\n      0x60\n        /* \"TEXOToken.sol\":16446:16498  functionCallWithValue(target, data, 0, errorMessage) */\n      tag_509\n        /* \"TEXOToken.sol\":16468:16474  target */\n      dup5\n        /* \"TEXOToken.sol\":16476:16480  data */\n      dup5\n        /* \"TEXOToken.sol\":16482:16483  0 */\n      0x00\n        /* \"TEXOToken.sol\":16485:16497  errorMessage */\n      dup6\n        /* \"TEXOToken.sol\":16446:16467  functionCallWithValue */\n      tag_510\n        /* \"TEXOToken.sol\":16446:16498  functionCallWithValue(target, data, 0, errorMessage) */\n      jump\t// in\n    tag_509:\n        /* \"TEXOToken.sol\":16439:16498  return functionCallWithValue(target, data, 0, errorMessage) */\n      swap1\n      pop\n        /* \"TEXOToken.sol\":16312:16505  function functionCall(address target, bytes memory data, string memory errorMessage) internal returns (bytes memory) {... */\n      swap4\n      swap3\n      pop\n      pop\n      pop\n      jump\t// out\n        /* \"TEXOToken.sol\":17339:17862  function functionCallWithValue(address target, bytes memory data, uint256 value, string memory errorMessage) internal returns (bytes memory) {... */\n    tag_510:\n        /* \"TEXOToken.sol\":17466:17478  bytes memory */\n      0x60\n        /* \"TEXOToken.sol\":17523:17528  value */\n      dup3\n        /* \"TEXOToken.sol\":17498:17519  address(this).balance */\n      selfbalance\n        /* \"TEXOToken.sol\":17498:17528  address(this).balance >= value */\n      lt\n      iszero\n        /* \"TEXOToken.sol\":17490:17571  require(address(this).balance >= value, \"Address: insufficient balance for call\") */\n      tag_512\n      jumpi\n      mload(0x40)\n      0x08c379a000000000000000000000000000000000000000000000000000000000\n      dup2\n      mstore\n      0x04\n      add\n      dup1\n      dup1\n      0x20\n      add\n      dup3\n      dup2\n      sub\n      dup3\n      mstore\n      0x26\n      dup2\n      mstore\n      0x20\n      add\n      dup1\n      data_565f1a77334fc4792800921178c71e4521acffab18ff9e7885b49377ee80ab4c\n      0x26\n      swap2\n      codecopy\n      0x40\n      add\n      swap2\n      pop\n      pop\n      mload(0x40)\n      dup1\n      swap2\n      sub\n      swap1\n      revert\n    tag_512:\n        /* \"TEXOToken.sol\":17589:17607  isContract(target) */\n      tag_513\n        /* \"TEXOToken.sol\":17600:17606  target */\n      dup6\n        /* \"TEXOToken.sol\":17589:17599  isContract */\n      tag_514\n        /* \"TEXOToken.sol\":17589:17607  isContract(target) */\n      jump\t// in\n    tag_513:\n        /* \"TEXOToken.sol\":17581:17641  require(isContract(target), \"Address: call to non-contract\") */\n      tag_515\n      jumpi\n      mload(0x40)\n      0x08c379a000000000000000000000000000000000000000000000000000000000\n      dup2\n      mstore\n      0x04\n      add\n      dup1\n      dup1\n      0x20\n      add\n      dup3\n      dup2\n      sub\n      dup3\n      mstore\n      0x1d\n      dup2\n      mstore\n      0x20\n      add\n      dup1\n      0x416464726573733a2063616c6c20746f206e6f6e2d636f6e7472616374000000\n      dup2\n      mstore\n      pop\n      0x20\n      add\n      swap2\n      pop\n      pop\n      mload(0x40)\n      dup1\n      swap2\n      sub\n      swap1\n      revert\n    tag_515:\n        /* \"TEXOToken.sol\":17712:17724  bool success */\n      0x00\n        /* \"TEXOToken.sol\":17726:17749  bytes memory returndata */\n      0x60\n        /* \"TEXOToken.sol\":17753:17759  target */\n      dup7\n        /* \"TEXOToken.sol\":17753:17764  target.call */\n      0xffffffffffffffffffffffffffffffffffffffff\n      and\n        /* \"TEXOToken.sol\":17773:17778  value */\n      dup6\n        /* \"TEXOToken.sol\":17781:17785  data */\n      dup8\n        /* \"TEXOToken.sol\":17753:17786  target.call{ value: value }(data) */\n      mload(0x40)\n      dup1\n      dup3\n      dup1\n      mload\n      swap1\n      0x20\n      add\n      swap1\n      dup1\n      dup4\n      dup4\n    tag_516:\n      0x20\n      dup4\n      lt\n      tag_518\n      jumpi\n      dup1\n      mload\n      dup3\n      mstore\n      0x20\n      dup3\n      add\n      swap2\n      pop\n      0x20\n      dup2\n      add\n      swap1\n      pop\n      0x20\n      dup4\n      sub\n      swap3\n      pop\n      jump(tag_516)\n    tag_518:\n      0x01\n      dup4\n      0x20\n      sub\n      0x0100\n      exp\n      sub\n      dup1\n      not\n      dup3\n      mload\n      and\n      dup2\n      dup5\n      mload\n      and\n      dup1\n      dup3\n      or\n      dup6\n      mstore\n      pop\n      pop\n      pop\n      pop\n      pop\n      pop\n      swap1\n      pop\n      add\n      swap2\n      pop\n      pop\n      0x00\n      mload(0x40)\n      dup1\n      dup4\n      sub\n      dup2\n      dup6\n      dup8\n      gas\n      call\n      swap3\n      pop\n      pop\n      pop\n      returndatasize\n      dup1\n      0x00\n      dup2\n      eq\n      tag_521\n      jumpi\n      mload(0x40)\n      swap2\n      pop\n      and(add(returndatasize, 0x3f), not(0x1f))\n      dup3\n      add\n      0x40\n      mstore\n      returndatasize\n      dup3\n      mstore\n      returndatasize\n      0x00\n      0x20\n      dup5\n      add\n      returndatacopy\n      jump(tag_520)\n    tag_521:\n      0x60\n      swap2\n      pop\n    tag_520:\n      pop\n        /* \"TEXOToken.sol\":17711:17786  (bool success, bytes memory returndata) = target.call{ value: value }(data) */\n      swap2\n      pop\n      swap2\n      pop\n        /* \"TEXOToken.sol\":17803:17855  _verifyCallResult(success, returndata, errorMessage) */\n      tag_522\n        /* \"TEXOToken.sol\":17821:17828  success */\n      dup3\n        /* \"TEXOToken.sol\":17830:17840  returndata */\n      dup3\n        /* \"TEXOToken.sol\":17842:17854  errorMessage */\n      dup7\n        /* \"TEXOToken.sol\":17803:17820  _verifyCallResult */\n      tag_523\n        /* \"TEXOToken.sol\":17803:17855  _verifyCallResult(success, returndata, errorMessage) */\n      jump\t// in\n    tag_522:\n        /* \"TEXOToken.sol\":17796:17855  return _verifyCallResult(success, returndata, errorMessage) */\n      swap3\n      pop\n      pop\n      pop\n        /* \"TEXOToken.sol\":17339:17862  function functionCallWithValue(address target, bytes memory data, uint256 value, string memory errorMessage) internal returns (bytes memory) {... */\n      swap5\n      swap4\n      pop\n      pop\n      pop\n      pop\n      jump\t// out\n        /* \"TEXOToken.sol\":13455:13868  function isContract(address account) internal view returns (bool) {... */\n    tag_514:\n        /* \"TEXOToken.sol\":13515:13519  bool */\n      0x00\n        /* \"TEXOToken.sol\":13718:13730  uint256 size */\n      dup1\n        /* \"TEXOToken.sol\":13827:13834  account */\n      dup3\n        /* \"TEXOToken.sol\":13815:13835  extcodesize(account) */\n      extcodesize\n        /* \"TEXOToken.sol\":13807:13835  size := extcodesize(account) */\n      swap1\n      pop\n        /* \"TEXOToken.sol\":13860:13861  0 */\n      0x00\n        /* \"TEXOToken.sol\":13853:13857  size */\n      dup2\n        /* \"TEXOToken.sol\":13853:13861  size > 0 */\n      gt\n        /* \"TEXOToken.sol\":13846:13861  return size > 0 */\n      swap2\n      pop\n      pop\n        /* \"TEXOToken.sol\":13455:13868  function isContract(address account) internal view returns (bool) {... */\n      swap2\n      swap1\n      pop\n      jump\t// out\n        /* \"TEXOToken.sol\":18842:19567  function _verifyCallResult(bool success, bytes memory returndata, string memory errorMessage) private pure returns(bytes memory) {... */\n    tag_523:\n        /* \"TEXOToken.sol\":18957:18969  bytes memory */\n      0x60\n        /* \"TEXOToken.sol\":18985:18992  success */\n      dup4\n        /* \"TEXOToken.sol\":18981:19561  if (success) {... */\n      iszero\n      tag_526\n      jumpi\n        /* \"TEXOToken.sol\":19015:19025  returndata */\n      dup3\n        /* \"TEXOToken.sol\":19008:19025  return returndata */\n      swap1\n      pop\n      jump(tag_525)\n        /* \"TEXOToken.sol\":18981:19561  if (success) {... */\n    tag_526:\n        /* \"TEXOToken.sol\":19146:19147  0 */\n      0x00\n        /* \"TEXOToken.sol\":19126:19136  returndata */\n      dup4\n        /* \"TEXOToken.sol\":19126:19143  returndata.length */\n      mload\n        /* \"TEXOToken.sol\":19126:19147  returndata.length > 0 */\n      gt\n        /* \"TEXOToken.sol\":19122:19551  if (returndata.length > 0) {... */\n      iszero\n      tag_528\n      jumpi\n        /* \"TEXOToken.sol\":19384:19394  returndata */\n      dup3\n        /* \"TEXOToken.sol\":19378:19395  mload(returndata) */\n      mload\n        /* \"TEXOToken.sol\":19444:19459  returndata_size */\n      dup1\n        /* \"TEXOToken.sol\":19431:19441  returndata */\n      dup5\n        /* \"TEXOToken.sol\":19427:19429  32 */\n      0x20\n        /* \"TEXOToken.sol\":19423:19442  add(32, returndata) */\n      add\n        /* \"TEXOToken.sol\":19416:19460  revert(add(32, returndata), returndata_size) */\n      revert\n        /* \"TEXOToken.sol\":19333:19478  {... */\n    tag_528:\n        /* \"TEXOToken.sol\":19523:19535  errorMessage */\n      dup2\n        /* \"TEXOToken.sol\":19516:19536  revert(errorMessage) */\n      mload(0x40)\n      0x08c379a000000000000000000000000000000000000000000000000000000000\n      dup2\n      mstore\n      0x04\n      add\n      dup1\n      dup1\n      0x20\n      add\n      dup3\n      dup2\n      sub\n      dup3\n      mstore\n      dup4\n      dup2\n      dup2\n      mload\n      dup2\n      mstore\n      0x20\n      add\n      swap2\n      pop\n      dup1\n      mload\n      swap1\n      0x20\n      add\n      swap1\n      dup1\n      dup4\n      dup4\n      0x00\n    tag_530:\n      dup4\n      dup2\n      lt\n      iszero\n      tag_532\n      jumpi\n      dup1\n      dup3\n      add\n      mload\n      dup2\n      dup5\n      add\n      mstore\n      0x20\n      dup2\n      add\n      swap1\n      pop\n      jump(tag_530)\n    tag_532:\n      pop\n      pop\n      pop\n      pop\n      swap1\n      pop\n      swap1\n      dup2\n      add\n      swap1\n      0x1f\n      and\n      dup1\n      iszero\n      tag_533\n      jumpi\n      dup1\n      dup3\n      sub\n      dup1\n      mload\n      0x01\n      dup4\n      0x20\n      sub\n      0x0100\n      exp\n      sub\n      not\n      and\n      dup2\n      mstore\n      0x20\n      add\n      swap2\n      pop\n    tag_533:\n      pop\n      swap3\n      pop\n      pop\n      pop\n      mload(0x40)\n      dup1\n      swap2\n      sub\n      swap1\n      revert\n        /* \"TEXOToken.sol\":18842:19567  function _verifyCallResult(bool success, bytes memory returndata, string memory errorMessage) private pure returns(bytes memory) {... */\n    tag_525:\n      swap4\n      swap3\n      pop\n      pop\n      pop\n      jump\t// out\n    stop\n    data_0ecf01aeb804f0ae223eada9d16893a9009cdcbe208d348705dc613f9a9f5331 6164643a20696e76616c6964206465706f7369742066656520626173697320706f696e7473\n    data_20a6bce988e8b6ff5852ac398e27735d1d8155a9d79e532ec3c3da13f504a6a4 757064617465526566426f6e757350657263656e743a20696e76616c696420726566657272616c20626f6e757320626173697320706f696e7473\n    data_21c3364d55537bf20eb8f05374e9f53f47299e1883c412f1f1135f398f2c2082 5361666542455032303a204245503230206f7065726174696f6e20646964206e6f742073756363656564\n    data_245f15ff17f551913a7a18385165551503906a406f905ac1c2437281a7cd0cfe 4f776e61626c653a206e6577206f776e657220697320746865207a65726f2061646472657373\n    data_2a7e0e7f8bc79ffac7125960112eaea13c804910c2e58b65c50e00aacc68de0e 73616665506c756d5472616e736665723a207472616e73666572206661696c65642e\n    data_542d191555ea619dedb1489efd71948659c57b11c6c1a84d1c1ce6e7c8074aad 6465706f7369743a20496e76616c69642072656665727265722061646472657373\n    data_565f1a77334fc4792800921178c71e4521acffab18ff9e7885b49377ee80ab4c 416464726573733a20696e73756666696369656e742062616c616e636520666f722063616c6c\n    data_9113bb53c2876a3805b2c9242029423fc540a728243ce887ab24c82cf119fba3 536166654d6174683a206d756c7469706c69636174696f6e206f766572666c6f77\n    data_9353dfb5d58f0da66015bbcadafa0686e2e7b7226db2e603088e70c7012680cf 7365743a20696e76616c6964206465706f7369742066656520626173697320706f696e7473\n    data_9d1a761c817eae8410d2081a433553cad78dcf01ebb754f58addc464260ba484 757064617465526566426f6e757350657263656e743a2073616d6520626f6e757320627020736574\n    data_a827dd9c9a80825686eef28a9f1d2466e1d29b6da48280d16028581898989615 726564756365456d697373696f6e526174655769746844656661756c74526174653a2043616e206f6e6c792062652063616c6c65642061667465722073706563696669656420626c6f636b20737461727473\n    data_bf35de78f3e15a98c58afdc189c393a6a76029783bd8ecfd3a8b87b4a628fd85 676574506f6f6c4964466f724c70546f6b656e3a20646f206e6f74206578697374\n    data_d4e7846547be135afcf8a93a01a9053e9fa2c0d79f8d5448158422588210b6ab 726564756365456d697373696f6e526174655769746844656661756c74526174653a20456d697373696f6e207261746520686173207265616368656420746865206d696e696d756d207468726573686f6c64\n    data_fb61bfab522ff5726f96c4cebf8c9bc7c68d529a173450ab2ca49eebd2ecf0bb 726564756365456d697373696f6e526174655769746844656661756c74526174653a205065726d697373696f6e20666c6167206e6f74207475726e6564206f6e\n\n    auxdata: 0xa2646970667358221220fb000c08e3765754bfde9009e37aa10fed98bd356ccb5d47c47cf6f09069c01c64736f6c634300060c0033\n}\n","bytecode":{"linkReferences":{},"object":"60806040526000600b556064600c5560006011556000601260006101000a81548160ff0219169083151502179055503480156200003b57600080fd5b5060405162004f1538038062004f15833981810160405260c08110156200006157600080fd5b810190808051906020019092919080519060200190929190805190602001909291908051906020019092919080519060200190929190805190602001909291905050506000620000b66200024e60201b60201c565b9050806000806101000a81548173ffffffffffffffffffffffffffffffffffffffff021916908373ffffffffffffffffffffffffffffffffffffffff1602179055508073ffffffffffffffffffffffffffffffffffffffff16600073ffffffffffffffffffffffffffffffffffffffff167f8be0079c531659141344cd1fd0a4f28419497f9722a3daafe3b4186f6b6457e060405160405180910390a3506001808190555085600260006101000a81548173ffffffffffffffffffffffffffffffffffffffff021916908373ffffffffffffffffffffffffffffffffffffffff16021790555084600360006101000a81548173ffffffffffffffffffffffffffffffffffffffff021916908373ffffffffffffffffffffffffffffffffffffffff16021790555083600560006101000a81548173ffffffffffffffffffffffffffffffffffffffff021916908373ffffffffffffffffffffffffffffffffffffffff1602179055506706f05b59d3b2000060048190555082600881905550816006819055508060078190555050505050505062000256565b600033905090565b614caf80620002666000396000f3fe608060405234801561001057600080fd5b50600436106102a05760003560e01c80638705fcd411610167578063b51d4c80116100ce578063da09c72c11610087578063da09c72c14610bf6578063dfe3d2cd14610c2a578063e2bbb15814610c8c578063ea76bc2914610cc4578063ebec9e8b14610cce578063f2fde38b14610d12576102a0565b8063b51d4c8014610a7c578063b7eee1f114610ac0578063c6df25bd14610ade578063cbd258b514610b3a578063d0d41fe114610b94578063d4adafdf14610bd8576102a0565b8063955c9b9311610120578063955c9b93146109545780639bf62f7e14610976578063a1515333146109ce578063a1bdb15e146109ec578063ae715d7014610a1a578063b2a5aa2e14610a4e576102a0565b80638705fcd4146107a85780638da5cb5b146107ec5780638dbb1e3a146108205780638dbdbe6d1461086c57806391bb809c146108c457806393f1a40b146108e2576102a0565b80634a3b68cc1161020b57806364ed743b116101c457806364ed743b146106e6578063660f83401461071457806366f685ea146107325780636a9a766014610750578063715018a61461076e5780638036174714610778576102a0565b80634a3b68cc146105d657806351eb05a6146106445780635312ea8e1461067257806354324b58146106a057806361e0c468146106be578063630b5ba1146106dc576102a0565b80633a22df781161025d5780633a22df78146104625780633b0f0f2f146104845780633f7b06d8146104f2578063412753581461054a578063441a3e701461057e57806347e3cda5146105b6576102a0565b8063081e3eda146102a55780631526fe27146102c357806317caf6f114610342578063189d451d14610360578063190f39f0146103dc5780631eb704b014610434575b600080fd5b6102ad610d56565b6040518082815260200191505060405180910390f35b6102ef600480360360208110156102d957600080fd5b8101908080359060200190929190505050610d63565b604051808773ffffffffffffffffffffffffffffffffffffffff1681526020018681526020018581526020018481526020018381526020018261ffff168152602001965050505050505060405180910390f35b61034a610dda565b6040518082815260200191505060405180910390f35b6103da600480360360c081101561037657600080fd5b8101908080359060200190929190803573ffffffffffffffffffffffffffffffffffffffff169060200190929190803561ffff1690602001909291908035151590602001909291908035906020019092919080359060200190929190505050610de0565b005b61041e600480360360208110156103f257600080fd5b81019080803573ffffffffffffffffffffffffffffffffffffffff1690602001909291905050506111e7565b6040518082815260200191505060405180910390f35b6104606004803603602081101561044a57600080fd5b81019080803590602001909291905050506112d9565b005b61046a6113ab565b604051808261ffff16815260200191505060405180910390f35b6104c66004803603602081101561049a57600080fd5b81019080803573ffffffffffffffffffffffffffffffffffffffff1690602001909291905050506113b1565b604051808273ffffffffffffffffffffffffffffffffffffffff16815260200191505060405180910390f35b6105346004803603602081101561050857600080fd5b81019080803573ffffffffffffffffffffffffffffffffffffffff16906020019092919050505061141a565b6040518082815260200191505060405180910390f35b610552611432565b604051808273ffffffffffffffffffffffffffffffffffffffff16815260200191505060405180910390f35b6105b46004803603604081101561059457600080fd5b810190808035906020019092919080359060200190929190505050611458565b005b6105be61175f565b60405180821515815260200191505060405180910390f35b610618600480360360208110156105ec57600080fd5b81019080803573ffffffffffffffffffffffffffffffffffffffff169060200190929190505050611772565b604051808273ffffffffffffffffffffffffffffffffffffffff16815260200191505060405180910390f35b6106706004803603602081101561065a57600080fd5b81019080803590602001909291905050506117a5565b005b61069e6004803603602081101561068857600080fd5b8101908080359060200190929190505050611b13565b005b6106a8611cea565b6040518082815260200191505060405180910390f35b6106c6611cf0565b6040518082815260200191505060405180910390f35b6106e4611cfc565b005b610712600480360360208110156106fc57600080fd5b8101908080359060200190929190505050611d29565b005b61071c611efc565b6040518082815260200191505060405180910390f35b61073a611f02565b6040518082815260200191505060405180910390f35b610758611f08565b6040518082815260200191505060405180910390f35b610776611f0e565b005b6107a66004803603602081101561078e57600080fd5b81019080803515159060200190929190505050612094565b005b6107ea600480360360208110156107be57600080fd5b81019080803573ffffffffffffffffffffffffffffffffffffffff169060200190929190505050612179565b005b6107f461237d565b604051808273ffffffffffffffffffffffffffffffffffffffff16815260200191505060405180910390f35b6108566004803603604081101561083657600080fd5b8101908080359060200190929190803590602001909291905050506123a6565b6040518082815260200191505060405180910390f35b6108c26004803603606081101561088257600080fd5b810190808035906020019092919080359060200190929190803573ffffffffffffffffffffffffffffffffffffffff1690602001909291905050506123c3565b005b6108cc612866565b6040518082815260200191505060405180910390f35b61092e600480360360408110156108f857600080fd5b8101908080359060200190929190803573ffffffffffffffffffffffffffffffffffffffff169060200190929190505050612872565b604051808481526020018381526020018215158152602001935050505060405180910390f35b61095c6128b6565b604051808261ffff16815260200191505060405180910390f35b6109b86004803603602081101561098c57600080fd5b81019080803573ffffffffffffffffffffffffffffffffffffffff1690602001909291905050506128bc565b6040518082815260200191505060405180910390f35b6109d66128d4565b6040518082815260200191505060405180910390f35b610a1860048036036020811015610a0257600080fd5b81019080803590602001909291905050506128da565b005b610a22612a12565b604051808273ffffffffffffffffffffffffffffffffffffffff16815260200191505060405180910390f35b610a7a60048036036020811015610a6457600080fd5b8101908080359060200190929190505050612a38565b005b610aa860048036036020811015610a9257600080fd5b8101908080359060200190929190505050612b0a565b60405180821515815260200191505060405180910390f35b610ac8612b3a565b6040518082815260200191505060405180910390f35b610b38600480360360a0811015610af457600080fd5b810190808035906020019092919080359060200190929190803561ffff16906020019092919080351515906020019092919080359060200190929190505050612b40565b005b610b7c60048036036020811015610b5057600080fd5b81019080803573ffffffffffffffffffffffffffffffffffffffff169060200190929190505050612d61565b60405180821515815260200191505060405180910390f35b610bd660048036036020811015610baa57600080fd5b81019080803573ffffffffffffffffffffffffffffffffffffffff169060200190929190505050612d81565b005b610be0612f85565b6040518082815260200191505060405180910390f35b610bfe612f8b565b604051808273ffffffffffffffffffffffffffffffffffffffff16815260200191505060405180910390f35b610c7660048036036040811015610c4057600080fd5b8101908080359060200190929190803573ffffffffffffffffffffffffffffffffffffffff169060200190929190505050612fb1565b6040518082815260200191505060405180910390f35b610cc260048036036040811015610ca257600080fd5b810190808035906020019092919080359060200190929190505050613208565b005b610ccc613612565b005b610cfa60048036036020811015610ce457600080fd5b810190808035906020019092919050505061386b565b60405180821515815260200191505060405180910390f35b610d5460048036036020811015610d2857600080fd5b81019080803573ffffffffffffffffffffffffffffffffffffffff1690602001909291905050506138ad565b005b6000600980549050905090565b60098181548110610d7057fe5b90600052602060002090600602016000915090508060000160009054906101000a900473ffffffffffffffffffffffffffffffffffffffff16908060010154908060020154908060030154908060040154908060050160009054906101000a900461ffff16905086565b600b5481565b610de8613981565b73ffffffffffffffffffffffffffffffffffffffff1660008054906101000a900473ffffffffffffffffffffffffffffffffffffffff1673ffffffffffffffffffffffffffffffffffffffff1614610ea8576040517f08c379a00000000000000000000000000000000000000000000000000000000081526004018080602001828103825260208152602001807f4f776e61626c653a2063616c6c6572206973206e6f7420746865206f776e657281525060200191505060405180910390fd5b8460001515600f60008373ffffffffffffffffffffffffffffffffffffffff1673ffffffffffffffffffffffffffffffffffffffff16815260200190815260200160002060009054906101000a900460ff16151514610f6f576040517f08c379a00000000000000000000000000000000000000000000000000000000081526004018080602001828103825260198152602001807f6e6f6e4475706c6963617465643a206475706c6963617465640000000000000081525060200191505060405180910390fd5b6103e861ffff168561ffff161115610fd2576040517f08c379a00000000000000000000000000000000000000000000000000000000081526004018080602001828103825260258152602001806149ef6025913960400191505060405180910390fd5b8315610fe157610fe0611cfc565b5b6000808411610ff257600754610ff4565b835b905061100b88600b5461398990919063ffffffff16565b600b819055506001600f60008973ffffffffffffffffffffffffffffffffffffffff1673ffffffffffffffffffffffffffffffffffffffff16815260200190815260200160002060006101000a81548160ff02191690831515021790555060096040518060c001604052808973ffffffffffffffffffffffffffffffffffffffff1681526020018a8152602001838152602001600086116110be5760085443116110b7576008546110b9565b435b6110c0565b855b8152602001600081526020018861ffff16815250908060018154018082558091505060019003906000526020600020906006020160009091909190915060008201518160000160006101000a81548173ffffffffffffffffffffffffffffffffffffffff021916908373ffffffffffffffffffffffffffffffffffffffff1602179055506020820151816001015560408201518160020155606082015181600301556080820151816004015560a08201518160050160006101000a81548161ffff021916908361ffff1602179055505050600160098054905003601060008973ffffffffffffffffffffffffffffffffffffffff1673ffffffffffffffffffffffffffffffffffffffff168152602001908152602001600020819055505050505050505050565b6000801515600f60008473ffffffffffffffffffffffffffffffffffffffff1673ffffffffffffffffffffffffffffffffffffffff16815260200190815260200160002060009054906101000a900460ff1615151415611292576040517f08c379a0000000000000000000000000000000000000000000000000000000008152600401808060200182810382526021815260200180614bc76021913960400191505060405180910390fd5b601060008373ffffffffffffffffffffffffffffffffffffffff1673ffffffffffffffffffffffffffffffffffffffff168152602001908152602001600020549050919050565b6112e1613981565b73ffffffffffffffffffffffffffffffffffffffff1660008054906101000a900473ffffffffffffffffffffffffffffffffffffffff1673ffffffffffffffffffffffffffffffffffffffff16146113a1576040517f08c379a00000000000000000000000000000000000000000000000000000000081526004018080602001828103825260208152602001807f4f776e61626c653a2063616c6c6572206973206e6f7420746865206f776e657281525060200191505060405180910390fd5b8060068190555050565b6107d081565b6000600d60008373ffffffffffffffffffffffffffffffffffffffff1673ffffffffffffffffffffffffffffffffffffffff16815260200190815260200160002060009054906101000a900473ffffffffffffffffffffffffffffffffffffffff169050919050565b600e6020528060005260406000206000915090505481565b600560009054906101000a900473ffffffffffffffffffffffffffffffffffffffff1681565b600260015414156114d1576040517f08c379a000000000000000000000000000000000000000000000000000000000815260040180806020018281038252601f8152602001807f5265656e7472616e637947756172643a207265656e7472616e742063616c6c0081525060200191505060405180910390fd5b60026001819055506000600983815481106114e857fe5b906000526020600020906006020190506000600a600085815260200190815260200160002060003373ffffffffffffffffffffffffffffffffffffffff1673ffffffffffffffffffffffffffffffffffffffff168152602001908152602001600020905082816000015410156115c6576040517f08c379a00000000000000000000000000000000000000000000000000000000081526004018080602001828103825260128152602001807f77697468647261773a206e6f7420676f6f64000000000000000000000000000081525060200191505060405180910390fd5b6115cf846117a5565b60006115da85612b0a565b90506000611626836001015461161864e8d4a5100061160a88600401548860000154613a1190919063ffffffff16565b613a9790919063ffffffff16565b613ae190919063ffffffff16565b90508180156116355750600081115b15611689576116443382613b2b565b61164e3382613dff565b61168064e8d4a5100061167286600401548660000154613a1190919063ffffffff16565b613a9790919063ffffffff16565b83600101819055505b6000851115611701576116a9858460000154613ae190919063ffffffff16565b836000018190555061170033868660000160009054906101000a900473ffffffffffffffffffffffffffffffffffffffff1673ffffffffffffffffffffffffffffffffffffffff16613fcc9092919063ffffffff16565b5b853373ffffffffffffffffffffffffffffffffffffffff167ff279e6a1f5e320cca91135676d9cb6e44ca8a08c0b88342bcdb1144f6511b568876040518082815260200191505060405180910390a350505050600180819055505050565b601260009054906101000a900460ff1681565b600d6020528060005260406000206000915054906101000a900473ffffffffffffffffffffffffffffffffffffffff1681565b6000600982815481106117b457fe5b90600052602060002090600602019050806003015443116117d55750611b10565b6117de8261386b565b6117e85750611b10565b60008160000160009054906101000a900473ffffffffffffffffffffffffffffffffffffffff1673ffffffffffffffffffffffffffffffffffffffff166370a08231306040518263ffffffff1660e01b8152600401808273ffffffffffffffffffffffffffffffffffffffff16815260200191505060206040518083038186803b15801561187557600080fd5b505afa158015611889573d6000803e3d6000fd5b505050506040513d602081101561189f57600080fd5b8101908080519060200190929190505050905060008114806118c5575060008260010154145b156118da574382600301819055505050611b10565b60006118ea8360030154436123a6565b9050600061192d600b5461191f866001015461191160045487613a1190919063ffffffff16565b613a1190919063ffffffff16565b613a9790919063ffffffff16565b9050600260009054906101000a900473ffffffffffffffffffffffffffffffffffffffff1673ffffffffffffffffffffffffffffffffffffffff166340c10f19600360009054906101000a900473ffffffffffffffffffffffffffffffffffffffff166119a4600a85613a9790919063ffffffff16565b6040518363ffffffff1660e01b8152600401808373ffffffffffffffffffffffffffffffffffffffff16815260200182815260200192505050600060405180830381600087803b1580156119f757600080fd5b505af1158015611a0b573d6000803e3d6000fd5b50505050600260009054906101000a900473ffffffffffffffffffffffffffffffffffffffff1673ffffffffffffffffffffffffffffffffffffffff166340c10f1930836040518363ffffffff1660e01b8152600401808373ffffffffffffffffffffffffffffffffffffffff16815260200182815260200192505050600060405180830381600087803b158015611aa257600080fd5b505af1158015611ab6573d6000803e3d6000fd5b50505050611afa611ae784611ad964e8d4a5100085613a1190919063ffffffff16565b613a9790919063ffffffff16565b856004015461398990919063ffffffff16565b8460040181905550438460030181905550505050505b50565b60026001541415611b8c576040517f08c379a000000000000000000000000000000000000000000000000000000000815260040180806020018281038252601f8152602001807f5265656e7472616e637947756172643a207265656e7472616e742063616c6c0081525060200191505060405180910390fd5b6002600181905550600060098281548110611ba357fe5b906000526020600020906006020190506000600a600084815260200190815260200160002060003373ffffffffffffffffffffffffffffffffffffffff1673ffffffffffffffffffffffffffffffffffffffff1681526020019081526020016000209050611c5a3382600001548460000160009054906101000a900473ffffffffffffffffffffffffffffffffffffffff1673ffffffffffffffffffffffffffffffffffffffff16613fcc9092919063ffffffff16565b823373ffffffffffffffffffffffffffffffffffffffff167fbb757047c2b5f3974fe26b7c10f732e7bce710b0952a71082702781e62ae059583600001546040518082815260200191505060405180910390a3600081600001819055506000816001018190555060008160020160006101000a81548160ff02191690831515021790555050506001808190555050565b60065481565b67016345785d8a000081565b6000600980549050905060005b81811015611d2557611d1a816117a5565b806001019050611d09565b5050565b611d31613981565b73ffffffffffffffffffffffffffffffffffffffff1660008054906101000a900473ffffffffffffffffffffffffffffffffffffffff1673ffffffffffffffffffffffffffffffffffffffff1614611df1576040517f08c379a00000000000000000000000000000000000000000000000000000000081526004018080602001828103825260208152602001807f4f776e61626c653a2063616c6c6572206973206e6f7420746865206f776e657281525060200191505060405180910390fd5b6107d061ffff16811115611e50576040517f08c379a000000000000000000000000000000000000000000000000000000000815260040180806020018281038252603a815260200180614a14603a913960400191505060405180910390fd5b600c54811415611eab576040517f08c379a0000000000000000000000000000000000000000000000000000000008152600401808060200182810382526028815260200180614b4d6028913960400191505060405180910390fd5b6000600c54905081600c819055507f3282b692bfebf5f35b198a229212cf532c72099026ab54c4b8665382d1086b3f8183604051808381526020018281526020019250505060405180910390a15050565b60045481565b600c5481565b60115481565b611f16613981565b73ffffffffffffffffffffffffffffffffffffffff1660008054906101000a900473ffffffffffffffffffffffffffffffffffffffff1673ffffffffffffffffffffffffffffffffffffffff1614611fd6576040517f08c379a00000000000000000000000000000000000000000000000000000000081526004018080602001828103825260208152602001807f4f776e61626c653a2063616c6c6572206973206e6f7420746865206f776e657281525060200191505060405180910390fd5b600073ffffffffffffffffffffffffffffffffffffffff1660008054906101000a900473ffffffffffffffffffffffffffffffffffffffff1673ffffffffffffffffffffffffffffffffffffffff167f8be0079c531659141344cd1fd0a4f28419497f9722a3daafe3b4186f6b6457e060405160405180910390a360008060006101000a81548173ffffffffffffffffffffffffffffffffffffffff021916908373ffffffffffffffffffffffffffffffffffffffff160217905550565b61209c613981565b73ffffffffffffffffffffffffffffffffffffffff1660008054906101000a900473ffffffffffffffffffffffffffffffffffffffff1673ffffffffffffffffffffffffffffffffffffffff161461215c576040517f08c379a00000000000000000000000000000000000000000000000000000000081526004018080602001828103825260208152602001807f4f776e61626c653a2063616c6c6572206973206e6f7420746865206f776e657281525060200191505060405180910390fd5b80601260006101000a81548160ff02191690831515021790555050565b600073ffffffffffffffffffffffffffffffffffffffff168173ffffffffffffffffffffffffffffffffffffffff16141561221c576040517f08c379a000000000000000000000000000000000000000000000000000000000815260040180806020018281038252601e8152602001807f736574466565416464726573733a20696e76616c69642061646472657373000081525060200191505060405180910390fd5b600560009054906101000a900473ffffffffffffffffffffffffffffffffffffffff1673ffffffffffffffffffffffffffffffffffffffff163373ffffffffffffffffffffffffffffffffffffffff16146122df576040517f08c379a00000000000000000000000000000000000000000000000000000000081526004018080602001828103825260188152602001807f736574466565416464726573733a20464f5242494444454e000000000000000081525060200191505060405180910390fd5b80600560006101000a81548173ffffffffffffffffffffffffffffffffffffffff021916908373ffffffffffffffffffffffffffffffffffffffff1602179055508073ffffffffffffffffffffffffffffffffffffffff163373ffffffffffffffffffffffffffffffffffffffff167fd44190acf9d04bdb5d3a1aafff7e6dee8b40b93dfb8c5d3f0eea4b9f4539c3f760405160405180910390a350565b60008060009054906101000a900473ffffffffffffffffffffffffffffffffffffffff16905090565b60006123bb8383613ae190919063ffffffff16565b905092915050565b6002600154141561243c576040517f08c379a000000000000000000000000000000000000000000000000000000000815260040180806020018281038252601f8152602001807f5265656e7472616e637947756172643a207265656e7472616e742063616c6c0081525060200191505060405180910390fd5b60026001819055508073ffffffffffffffffffffffffffffffffffffffff168173ffffffffffffffffffffffffffffffffffffffff16146124c8576040517f08c379a0000000000000000000000000000000000000000000000000000000008152600401808060200182810382526021815260200180614ac06021913960400191505060405180910390fd5b6000600984815481106124d757fe5b906000526020600020906006020190506000600a600086815260200190815260200160002060003373ffffffffffffffffffffffffffffffffffffffff1673ffffffffffffffffffffffffffffffffffffffff1681526020019081526020016000209050612544856117a5565b60008160000154111561260e57600061259b826001015461258d64e8d4a5100061257f87600401548760000154613a1190919063ffffffff16565b613a9790919063ffffffff16565b613ae190919063ffffffff16565b905060006125a887612b0a565b90508080156125b75750600082115b1561260b576125c63383613b2b565b6125d03383613dff565b61260264e8d4a510006125f486600401548660000154613a1190919063ffffffff16565b613a9790919063ffffffff16565b83600101819055505b50505b600084111561279b57612621338461406e565b6126723330868560000160009054906101000a900473ffffffffffffffffffffffffffffffffffffffff1673ffffffffffffffffffffffffffffffffffffffff166142d5909392919063ffffffff16565b60008260050160009054906101000a900461ffff1661ffff16111561277a5760006126d06127106126c28560050160009054906101000a900461ffff1661ffff1688613a1190919063ffffffff16565b613a9790919063ffffffff16565b90506126fb816126ed87856000015461398990919063ffffffff16565b613ae190919063ffffffff16565b8260000181905550612774600560009054906101000a900473ffffffffffffffffffffffffffffffffffffffff16828560000160009054906101000a900473ffffffffffffffffffffffffffffffffffffffff1673ffffffffffffffffffffffffffffffffffffffff16613fcc9092919063ffffffff16565b5061279a565b61279184826000015461398990919063ffffffff16565b81600001819055505b5b8060020160009054906101000a900460ff16612809576127e364e8d4a510006127d584600401548460000154613a1190919063ffffffff16565b613a9790919063ffffffff16565b816001018190555060018160020160006101000a81548160ff0219169083151502179055505b843373ffffffffffffffffffffffffffffffffffffffff167f90890809c654f11d6e72a28fa60149770a0d11ec6c92319d6ceb2bb0a4ea1a15866040518082815260200191505060405180910390a3505060018081905550505050565b6706f05b59d3b2000081565b600a602052816000526040600020602052806000526040600020600091509150508060000154908060010154908060020160009054906101000a900460ff16905083565b6103e881565b60106020528060005260406000206000915090505481565b60075481565b6128e2613981565b73ffffffffffffffffffffffffffffffffffffffff1660008054906101000a900473ffffffffffffffffffffffffffffffffffffffff1673ffffffffffffffffffffffffffffffffffffffff16146129a2576040517f08c379a00000000000000000000000000000000000000000000000000000000081526004018080602001828103825260208152602001807f4f776e61626c653a2063616c6c6572206973206e6f7420746865206f776e657281525060200191505060405180910390fd5b60006004549050816004819055506129b8611cfc565b3373ffffffffffffffffffffffffffffffffffffffff167feedc6338c9c1ad8f3cd6c90dd09dbe98dbd57e610d3e59a17996d07acb0d95118284604051808381526020018281526020019250505060405180910390a25050565b600260009054906101000a900473ffffffffffffffffffffffffffffffffffffffff1681565b612a40613981565b73ffffffffffffffffffffffffffffffffffffffff1660008054906101000a900473ffffffffffffffffffffffffffffffffffffffff1673ffffffffffffffffffffffffffffffffffffffff1614612b00576040517f08c379a00000000000000000000000000000000000000000000000000000000081526004018080602001828103825260208152602001807f4f776e61626c653a2063616c6c6572206973206e6f7420746865206f776e657281525060200191505060405180910390fd5b8060078190555050565b60008060098381548110612b1a57fe5b906000526020600020906006020190504381600201541115915050919050565b6105dc81565b612b48613981565b73ffffffffffffffffffffffffffffffffffffffff1660008054906101000a900473ffffffffffffffffffffffffffffffffffffffff1673ffffffffffffffffffffffffffffffffffffffff1614612c08576040517f08c379a00000000000000000000000000000000000000000000000000000000081526004018080602001828103825260208152602001807f4f776e61626c653a2063616c6c6572206973206e6f7420746865206f776e657281525060200191505060405180910390fd5b6103e861ffff168361ffff161115612c6b576040517f08c379a0000000000000000000000000000000000000000000000000000000008152600401808060200182810382526025815260200180614b286025913960400191505060405180910390fd5b8115612c7a57612c79611cfc565b5b6000808211612c8b57600754612c8d565b815b9050612cd485612cc660098981548110612ca357fe5b906000526020600020906006020160010154600b54613ae190919063ffffffff16565b61398990919063ffffffff16565b600b819055508460098781548110612ce857fe5b9060005260206000209060060201600101819055508360098781548110612d0b57fe5b906000526020600020906006020160050160006101000a81548161ffff021916908361ffff1602179055508060098781548110612d4457fe5b906000526020600020906006020160020181905550505050505050565b600f6020528060005260406000206000915054906101000a900460ff1681565b600073ffffffffffffffffffffffffffffffffffffffff168173ffffffffffffffffffffffffffffffffffffffff161415612e24576040517f08c379a00000000000000000000000000000000000000000000000000000000081526004018080602001828103825260148152602001807f6465763a20696e76616c6964206164647265737300000000000000000000000081525060200191505060405180910390fd5b600360009054906101000a900473ffffffffffffffffffffffffffffffffffffffff1673ffffffffffffffffffffffffffffffffffffffff163373ffffffffffffffffffffffffffffffffffffffff1614612ee7576040517f08c379a00000000000000000000000000000000000000000000000000000000081526004018080602001828103825260098152602001807f6465763a207775743f000000000000000000000000000000000000000000000081525060200191505060405180910390fd5b80600360006101000a81548173ffffffffffffffffffffffffffffffffffffffff021916908373ffffffffffffffffffffffffffffffffffffffff1602179055508073ffffffffffffffffffffffffffffffffffffffff163373ffffffffffffffffffffffffffffffffffffffff167f618c54559e94f1499a808aad71ee8729f8e74e8c48e979616328ce493a1a52e760405160405180910390a350565b61708081565b600360009054906101000a900473ffffffffffffffffffffffffffffffffffffffff1681565b60008060098481548110612fc157fe5b906000526020600020906006020190506000600a600086815260200190815260200160002060008573ffffffffffffffffffffffffffffffffffffffff1673ffffffffffffffffffffffffffffffffffffffff168152602001908152602001600020905060008260040154905060008360000160009054906101000a900473ffffffffffffffffffffffffffffffffffffffff1673ffffffffffffffffffffffffffffffffffffffff166370a08231306040518263ffffffff1660e01b8152600401808273ffffffffffffffffffffffffffffffffffffffff16815260200191505060206040518083038186803b1580156130bb57600080fd5b505afa1580156130cf573d6000803e3d6000fd5b505050506040513d60208110156130e557600080fd5b810190808051906020019092919050505090506131018761386b565b80156131105750836003015443115b801561311d575060008114155b156131b85760006131328560030154436123a6565b90506000613175600b54613167886001015461315960045487613a1190919063ffffffff16565b613a1190919063ffffffff16565b613a9790919063ffffffff16565b90506131b36131a48461319664e8d4a5100085613a1190919063ffffffff16565b613a9790919063ffffffff16565b8561398990919063ffffffff16565b935050505b6131fc83600101546131ee64e8d4a510006131e0868860000154613a1190919063ffffffff16565b613a9790919063ffffffff16565b613ae190919063ffffffff16565b94505050505092915050565b60026001541415613281576040517f08c379a000000000000000000000000000000000000000000000000000000000815260040180806020018281038252601f8152602001807f5265656e7472616e637947756172643a207265656e7472616e742063616c6c0081525060200191505060405180910390fd5b600260018190555060006009838154811061329857fe5b906000526020600020906006020190506000600a600085815260200190815260200160002060003373ffffffffffffffffffffffffffffffffffffffff1673ffffffffffffffffffffffffffffffffffffffff1681526020019081526020016000209050613305846117a5565b6000816000015411156133c557600061335c826001015461334e64e8d4a5100061334087600401548760000154613a1190919063ffffffff16565b613a9790919063ffffffff16565b613ae190919063ffffffff16565b9050600061336986612b0a565b90508080156133785750600082115b156133c2576133873383613b2b565b6133b964e8d4a510006133ab86600401548660000154613a1190919063ffffffff16565b613a9790919063ffffffff16565b83600101819055505b50505b60008311156135485761341f3330858560000160009054906101000a900473ffffffffffffffffffffffffffffffffffffffff1673ffffffffffffffffffffffffffffffffffffffff166142d5909392919063ffffffff16565b60008260050160009054906101000a900461ffff1661ffff16111561352757600061347d61271061346f8560050160009054906101000a900461ffff1661ffff1687613a1190919063ffffffff16565b613a9790919063ffffffff16565b90506134a88161349a86856000015461398990919063ffffffff16565b613ae190919063ffffffff16565b8260000181905550613521600560009054906101000a900473ffffffffffffffffffffffffffffffffffffffff16828560000160009054906101000a900473ffffffffffffffffffffffffffffffffffffffff1673ffffffffffffffffffffffffffffffffffffffff16613fcc9092919063ffffffff16565b50613547565b61353e83826000015461398990919063ffffffff16565b81600001819055505b5b8060020160009054906101000a900460ff166135b65761359064e8d4a5100061358284600401548460000154613a1190919063ffffffff16565b613a9790919063ffffffff16565b816001018190555060018160020160006101000a81548160ff0219169083151502179055505b833373ffffffffffffffffffffffffffffffffffffffff167f90890809c654f11d6e72a28fa60149770a0d11ec6c92319d6ceb2bb0a4ea1a15856040518082815260200191505060405180910390a35050600180819055505050565b601260009054906101000a900460ff16613677576040517f08c379a0000000000000000000000000000000000000000000000000000000008152600401808060200182810382526040815260200180614c3a6040913960400191505060405180910390fd5b60065443116136d1576040517f08c379a0000000000000000000000000000000000000000000000000000000008152600401808060200182810382526052815260200180614b756052913960600191505060405180910390fd5b67016345785d8a000060045411613733576040517f08c379a0000000000000000000000000000000000000000000000000000000008152600401808060200182810382526052815260200180614be86052913960600191505060405180910390fd5b600061375e61708061375060065443613ae190919063ffffffff16565b613a9790919063ffffffff16565b9050601154811161376f5750613869565b60006004549050600060115490505b828110156137c0576137b36127106137a56105dc6127100385613a1190919063ffffffff16565b613a9790919063ffffffff16565b915080600101905061377e565b5067016345785d8a000081106137d657806137e0565b67016345785d8a00005b905060045481106137f2575050613869565b6137fa611cfc565b8160118190555060006004549050816004819055503373ffffffffffffffffffffffffffffffffffffffff167feedc6338c9c1ad8f3cd6c90dd09dbe98dbd57e610d3e59a17996d07acb0d95118284604051808381526020018281526020019250505060405180910390a25050505b565b6000806009838154811061387b57fe5b9060005260206000209060060201905061389483612b0a565b80156138a4575060008160010154145b15915050919050565b6138b5613981565b73ffffffffffffffffffffffffffffffffffffffff1660008054906101000a900473ffffffffffffffffffffffffffffffffffffffff1673ffffffffffffffffffffffffffffffffffffffff1614613975576040517f08c379a00000000000000000000000000000000000000000000000000000000081526004018080602001828103825260208152602001807f4f776e61626c653a2063616c6c6572206973206e6f7420746865206f776e657281525060200191505060405180910390fd5b61397e81614396565b50565b600033905090565b600080828401905083811015613a07576040517f08c379a000000000000000000000000000000000000000000000000000000000815260040180806020018281038252601b8152602001807f536166654d6174683a206164646974696f6e206f766572666c6f77000000000081525060200191505060405180910390fd5b8091505092915050565b600080831415613a245760009050613a91565b6000828402905082848281613a3557fe5b0414613a8c576040517f08c379a0000000000000000000000000000000000000000000000000000000008152600401808060200182810382526021815260200180614b076021913960400191505060405180910390fd5b809150505b92915050565b6000613ad983836040518060400160405280601a81526020017f536166654d6174683a206469766973696f6e206279207a65726f0000000000008152506144d9565b905092915050565b6000613b2383836040518060400160405280601e81526020017f536166654d6174683a207375627472616374696f6e206f766572666c6f77000081525061459f565b905092915050565b6000600260009054906101000a900473ffffffffffffffffffffffffffffffffffffffff1673ffffffffffffffffffffffffffffffffffffffff166370a08231306040518263ffffffff1660e01b8152600401808273ffffffffffffffffffffffffffffffffffffffff16815260200191505060206040518083038186803b158015613bb657600080fd5b505afa158015613bca573d6000803e3d6000fd5b505050506040513d6020811015613be057600080fd5b81019080805190602001909291905050509050600081831115613cd257600260009054906101000a900473ffffffffffffffffffffffffffffffffffffffff1673ffffffffffffffffffffffffffffffffffffffff1663a9059cbb85846040518363ffffffff1660e01b8152600401808373ffffffffffffffffffffffffffffffffffffffff16815260200182815260200192505050602060405180830381600087803b158015613c9057600080fd5b505af1158015613ca4573d6000803e3d6000fd5b505050506040513d6020811015613cba57600080fd5b81019080805190602001909291905050509050613da3565b600260009054906101000a900473ffffffffffffffffffffffffffffffffffffffff1673ffffffffffffffffffffffffffffffffffffffff1663a9059cbb85856040518363ffffffff1660e01b8152600401808373ffffffffffffffffffffffffffffffffffffffff16815260200182815260200192505050602060405180830381600087803b158015613d6557600080fd5b505af1158015613d79573d6000803e3d6000fd5b505050506040513d6020811015613d8f57600080fd5b810190808051906020019092919050505090505b80613df9576040517f08c379a0000000000000000000000000000000000000000000000000000000008152600401808060200182810382526022815260200180614a9e6022913960400191505060405180910390fd5b50505050565b6000613e0a836113b1565b9050600073ffffffffffffffffffffffffffffffffffffffff168173ffffffffffffffffffffffffffffffffffffffff1614158015613e7557508273ffffffffffffffffffffffffffffffffffffffff168173ffffffffffffffffffffffffffffffffffffffff1614155b8015613e8357506000600c54115b15613fc7576000613eb3612710613ea5600c5486613a1190919063ffffffff16565b613a9790919063ffffffff16565b9050600260009054906101000a900473ffffffffffffffffffffffffffffffffffffffff1673ffffffffffffffffffffffffffffffffffffffff166340c10f1983836040518363ffffffff1660e01b8152600401808373ffffffffffffffffffffffffffffffffffffffff16815260200182815260200192505050600060405180830381600087803b158015613f4857600080fd5b505af1158015613f5c573d6000803e3d6000fd5b505050508173ffffffffffffffffffffffffffffffffffffffff168473ffffffffffffffffffffffffffffffffffffffff167f0a721ab4682ceb61c7e4d264ef879fc419a6d764b136e7d96ef54b2053c75673836040518082815260200191505060405180910390a3505b505050565b6140698363a9059cbb60e01b8484604051602401808373ffffffffffffffffffffffffffffffffffffffff16815260200182815260200192505050604051602081830303815290604052907bffffffffffffffffffffffffffffffffffffffffffffffffffffffff19166020820180517bffffffffffffffffffffffffffffffffffffffffffffffffffffffff838183161783525050505061465f565b505050565b8073ffffffffffffffffffffffffffffffffffffffff168173ffffffffffffffffffffffffffffffffffffffff161480156141345750600073ffffffffffffffffffffffffffffffffffffffff16600d60008473ffffffffffffffffffffffffffffffffffffffff1673ffffffffffffffffffffffffffffffffffffffff16815260200190815260200160002060009054906101000a900473ffffffffffffffffffffffffffffffffffffffff1673ffffffffffffffffffffffffffffffffffffffff16145b801561416d5750600073ffffffffffffffffffffffffffffffffffffffff168173ffffffffffffffffffffffffffffffffffffffff1614155b80156141a557508173ffffffffffffffffffffffffffffffffffffffff168173ffffffffffffffffffffffffffffffffffffffff1614155b156142d15780600d60008473ffffffffffffffffffffffffffffffffffffffff1673ffffffffffffffffffffffffffffffffffffffff16815260200190815260200160002060006101000a81548173ffffffffffffffffffffffffffffffffffffffff021916908373ffffffffffffffffffffffffffffffffffffffff1602179055506001600e60008373ffffffffffffffffffffffffffffffffffffffff1673ffffffffffffffffffffffffffffffffffffffff168152602001908152602001600020600082825401925050819055508073ffffffffffffffffffffffffffffffffffffffff168273ffffffffffffffffffffffffffffffffffffffff167f9d05414fb79fac216c15606de5cc06664e91a254e4d5f57664d5f1beaf7fb7ef60405160405180910390a35b5050565b614390846323b872dd60e01b858585604051602401808473ffffffffffffffffffffffffffffffffffffffff1681526020018373ffffffffffffffffffffffffffffffffffffffff1681526020018281526020019350505050604051602081830303815290604052907bffffffffffffffffffffffffffffffffffffffffffffffffffffffff19166020820180517bffffffffffffffffffffffffffffffffffffffffffffffffffffffff838183161783525050505061465f565b50505050565b600073ffffffffffffffffffffffffffffffffffffffff168173ffffffffffffffffffffffffffffffffffffffff16141561441c576040517f08c379a0000000000000000000000000000000000000000000000000000000008152600401808060200182810382526026815260200180614a786026913960400191505060405180910390fd5b8073ffffffffffffffffffffffffffffffffffffffff1660008054906101000a900473ffffffffffffffffffffffffffffffffffffffff1673ffffffffffffffffffffffffffffffffffffffff167f8be0079c531659141344cd1fd0a4f28419497f9722a3daafe3b4186f6b6457e060405160405180910390a3806000806101000a81548173ffffffffffffffffffffffffffffffffffffffff021916908373ffffffffffffffffffffffffffffffffffffffff16021790555050565b60008083118290614585576040517f08c379a00000000000000000000000000000000000000000000000000000000081526004018080602001828103825283818151815260200191508051906020019080838360005b8381101561454a57808201518184015260208101905061452f565b50505050905090810190601f1680156145775780820380516001836020036101000a031916815260200191505b509250505060405180910390fd5b50600083858161459157fe5b049050809150509392505050565b600083831115829061464c576040517f08c379a00000000000000000000000000000000000000000000000000000000081526004018080602001828103825283818151815260200191508051906020019080838360005b838110156146115780820151818401526020810190506145f6565b50505050905090810190601f16801561463e5780820380516001836020036101000a031916815260200191505b509250505060405180910390fd5b5060008385039050809150509392505050565b60606146c1826040518060400160405280602081526020017f5361666542455032303a206c6f772d6c6576656c2063616c6c206661696c65648152508573ffffffffffffffffffffffffffffffffffffffff1661474e9092919063ffffffff16565b9050600081511115614749578080602001905160208110156146e257600080fd5b8101908080519060200190929190505050614748576040517f08c379a000000000000000000000000000000000000000000000000000000000815260040180806020018281038252602a815260200180614a4e602a913960400191505060405180910390fd5b5b505050565b606061475d8484600085614766565b90509392505050565b6060824710156147c1576040517f08c379a0000000000000000000000000000000000000000000000000000000008152600401808060200182810382526026815260200180614ae16026913960400191505060405180910390fd5b6147ca8561490f565b61483c576040517f08c379a000000000000000000000000000000000000000000000000000000000815260040180806020018281038252601d8152602001807f416464726573733a2063616c6c20746f206e6f6e2d636f6e747261637400000081525060200191505060405180910390fd5b600060608673ffffffffffffffffffffffffffffffffffffffff1685876040518082805190602001908083835b6020831061488c5780518252602082019150602081019050602083039250614869565b6001836020036101000a03801982511681845116808217855250505050505090500191505060006040518083038185875af1925050503d80600081146148ee576040519150601f19603f3d011682016040523d82523d6000602084013e6148f3565b606091505b5091509150614903828286614922565b92505050949350505050565b600080823b905060008111915050919050565b60608315614932578290506149e7565b6000835111156149455782518084602001fd5b816040517f08c379a00000000000000000000000000000000000000000000000000000000081526004018080602001828103825283818151815260200191508051906020019080838360005b838110156149ac578082015181840152602081019050614991565b50505050905090810190601f1680156149d95780820380516001836020036101000a031916815260200191505b509250505060405180910390fd5b939250505056fe6164643a20696e76616c6964206465706f7369742066656520626173697320706f696e7473757064617465526566426f6e757350657263656e743a20696e76616c696420726566657272616c20626f6e757320626173697320706f696e74735361666542455032303a204245503230206f7065726174696f6e20646964206e6f7420737563636565644f776e61626c653a206e6577206f776e657220697320746865207a65726f206164647265737373616665506c756d5472616e736665723a207472616e73666572206661696c65642e6465706f7369743a20496e76616c69642072656665727265722061646472657373416464726573733a20696e73756666696369656e742062616c616e636520666f722063616c6c536166654d6174683a206d756c7469706c69636174696f6e206f766572666c6f777365743a20696e76616c6964206465706f7369742066656520626173697320706f696e7473757064617465526566426f6e757350657263656e743a2073616d6520626f6e757320627020736574726564756365456d697373696f6e526174655769746844656661756c74526174653a2043616e206f6e6c792062652063616c6c65642061667465722073706563696669656420626c6f636b20737461727473676574506f6f6c4964466f724c70546f6b656e3a20646f206e6f74206578697374726564756365456d697373696f6e526174655769746844656661756c74526174653a20456d697373696f6e207261746520686173207265616368656420746865206d696e696d756d207468726573686f6c64726564756365456d697373696f6e526174655769746844656661756c74526174653a205065726d697373696f6e20666c6167206e6f74207475726e6564206f6ea2646970667358221220fb000c08e3765754bfde9009e37aa10fed98bd356ccb5d47c47cf6f09069c01c64736f6c634300060c0033","opcodes":"PUSH1 0x80 PUSH1 0x40 MSTORE PUSH1 0x0 PUSH1 0xB SSTORE PUSH1 0x64 PUSH1 0xC SSTORE PUSH1 0x0 PUSH1 0x11 SSTORE PUSH1 0x0 PUSH1 0x12 PUSH1 0x0 PUSH2 0x100 EXP DUP2 SLOAD DUP2 PUSH1 0xFF MUL NOT AND SWAP1 DUP4 ISZERO ISZERO MUL OR SWAP1 SSTORE POP CALLVALUE DUP1 ISZERO PUSH3 0x3B JUMPI PUSH1 0x0 DUP1 REVERT JUMPDEST POP PUSH1 0x40 MLOAD PUSH3 0x4F15 CODESIZE SUB DUP1 PUSH3 0x4F15 DUP4 CODECOPY DUP2 DUP2 ADD PUSH1 0x40 MSTORE PUSH1 0xC0 DUP2 LT ISZERO PUSH3 0x61 JUMPI PUSH1 0x0 DUP1 REVERT JUMPDEST DUP2 ADD SWAP1 DUP1 DUP1 MLOAD SWAP1 PUSH1 0x20 ADD SWAP1 SWAP3 SWAP2 SWAP1 DUP1 MLOAD SWAP1 PUSH1 0x20 ADD SWAP1 SWAP3 SWAP2 SWAP1 DUP1 MLOAD SWAP1 PUSH1 0x20 ADD SWAP1 SWAP3 SWAP2 SWAP1 DUP1 MLOAD SWAP1 PUSH1 0x20 ADD SWAP1 SWAP3 SWAP2 SWAP1 DUP1 MLOAD SWAP1 PUSH1 0x20 ADD SWAP1 SWAP3 SWAP2 SWAP1 DUP1 MLOAD SWAP1 PUSH1 0x20 ADD SWAP1 SWAP3 SWAP2 SWAP1 POP POP POP PUSH1 0x0 PUSH3 0xB6 PUSH3 0x24E PUSH1 0x20 SHL PUSH1 0x20 SHR JUMP JUMPDEST SWAP1 POP DUP1 PUSH1 0x0 DUP1 PUSH2 0x100 EXP DUP2 SLOAD DUP2 PUSH20 0xFFFFFFFFFFFFFFFFFFFFFFFFFFFFFFFFFFFFFFFF MUL NOT AND SWAP1 DUP4 PUSH20 0xFFFFFFFFFFFFFFFFFFFFFFFFFFFFFFFFFFFFFFFF AND MUL OR SWAP1 SSTORE POP DUP1 PUSH20 0xFFFFFFFFFFFFFFFFFFFFFFFFFFFFFFFFFFFFFFFF AND PUSH1 0x0 PUSH20 0xFFFFFFFFFFFFFFFFFFFFFFFFFFFFFFFFFFFFFFFF AND PUSH32 0x8BE0079C531659141344CD1FD0A4F28419497F9722A3DAAFE3B4186F6B6457E0 PUSH1 0x40 MLOAD PUSH1 0x40 MLOAD DUP1 SWAP2 SUB SWAP1 LOG3 POP PUSH1 0x1 DUP1 DUP2 SWAP1 SSTORE POP DUP6 PUSH1 0x2 PUSH1 0x0 PUSH2 0x100 EXP DUP2 SLOAD DUP2 PUSH20 0xFFFFFFFFFFFFFFFFFFFFFFFFFFFFFFFFFFFFFFFF MUL NOT AND SWAP1 DUP4 PUSH20 0xFFFFFFFFFFFFFFFFFFFFFFFFFFFFFFFFFFFFFFFF AND MUL OR SWAP1 SSTORE POP DUP5 PUSH1 0x3 PUSH1 0x0 PUSH2 0x100 EXP DUP2 SLOAD DUP2 PUSH20 0xFFFFFFFFFFFFFFFFFFFFFFFFFFFFFFFFFFFFFFFF MUL NOT AND SWAP1 DUP4 PUSH20 0xFFFFFFFFFFFFFFFFFFFFFFFFFFFFFFFFFFFFFFFF AND MUL OR SWAP1 SSTORE POP DUP4 PUSH1 0x5 PUSH1 0x0 PUSH2 0x100 EXP DUP2 SLOAD DUP2 PUSH20 0xFFFFFFFFFFFFFFFFFFFFFFFFFFFFFFFFFFFFFFFF MUL NOT AND SWAP1 DUP4 PUSH20 0xFFFFFFFFFFFFFFFFFFFFFFFFFFFFFFFFFFFFFFFF AND MUL OR SWAP1 SSTORE POP PUSH8 0x6F05B59D3B20000 PUSH1 0x4 DUP2 SWAP1 SSTORE POP DUP3 PUSH1 0x8 DUP2 SWAP1 SSTORE POP DUP2 PUSH1 0x6 DUP2 SWAP1 SSTORE POP DUP1 PUSH1 0x7 DUP2 SWAP1 SSTORE POP POP POP POP POP POP POP PUSH3 0x256 JUMP JUMPDEST PUSH1 0x0 CALLER SWAP1 POP SWAP1 JUMP JUMPDEST PUSH2 0x4CAF DUP1 PUSH3 0x266 PUSH1 0x0 CODECOPY PUSH1 0x0 RETURN INVALID PUSH1 0x80 PUSH1 0x40 MSTORE CALLVALUE DUP1 ISZERO PUSH2 0x10 JUMPI PUSH1 0x0 DUP1 REVERT JUMPDEST POP PUSH1 0x4 CALLDATASIZE LT PUSH2 0x2A0 JUMPI PUSH1 0x0 CALLDATALOAD PUSH1 0xE0 SHR DUP1 PUSH4 0x8705FCD4 GT PUSH2 0x167 JUMPI DUP1 PUSH4 0xB51D4C80 GT PUSH2 0xCE JUMPI DUP1 PUSH4 0xDA09C72C GT PUSH2 0x87 JUMPI DUP1 PUSH4 0xDA09C72C EQ PUSH2 0xBF6 JUMPI DUP1 PUSH4 0xDFE3D2CD EQ PUSH2 0xC2A JUMPI DUP1 PUSH4 0xE2BBB158 EQ PUSH2 0xC8C JUMPI DUP1 PUSH4 0xEA76BC29 EQ PUSH2 0xCC4 JUMPI DUP1 PUSH4 0xEBEC9E8B EQ PUSH2 0xCCE JUMPI DUP1 PUSH4 0xF2FDE38B EQ PUSH2 0xD12 JUMPI PUSH2 0x2A0 JUMP JUMPDEST DUP1 PUSH4 0xB51D4C80 EQ PUSH2 0xA7C JUMPI DUP1 PUSH4 0xB7EEE1F1 EQ PUSH2 0xAC0 JUMPI DUP1 PUSH4 0xC6DF25BD EQ PUSH2 0xADE JUMPI DUP1 PUSH4 0xCBD258B5 EQ PUSH2 0xB3A JUMPI DUP1 PUSH4 0xD0D41FE1 EQ PUSH2 0xB94 JUMPI DUP1 PUSH4 0xD4ADAFDF EQ PUSH2 0xBD8 JUMPI PUSH2 0x2A0 JUMP JUMPDEST DUP1 PUSH4 0x955C9B93 GT PUSH2 0x120 JUMPI DUP1 PUSH4 0x955C9B93 EQ PUSH2 0x954 JUMPI DUP1 PUSH4 0x9BF62F7E EQ PUSH2 0x976 JUMPI DUP1 PUSH4 0xA1515333 EQ PUSH2 0x9CE JUMPI DUP1 PUSH4 0xA1BDB15E EQ PUSH2 0x9EC JUMPI DUP1 PUSH4 0xAE715D70 EQ PUSH2 0xA1A JUMPI DUP1 PUSH4 0xB2A5AA2E EQ PUSH2 0xA4E JUMPI PUSH2 0x2A0 JUMP JUMPDEST DUP1 PUSH4 0x8705FCD4 EQ PUSH2 0x7A8 JUMPI DUP1 PUSH4 0x8DA5CB5B EQ PUSH2 0x7EC JUMPI DUP1 PUSH4 0x8DBB1E3A EQ PUSH2 0x820 JUMPI DUP1 PUSH4 0x8DBDBE6D EQ PUSH2 0x86C JUMPI DUP1 PUSH4 0x91BB809C EQ PUSH2 0x8C4 JUMPI DUP1 PUSH4 0x93F1A40B EQ PUSH2 0x8E2 JUMPI PUSH2 0x2A0 JUMP JUMPDEST DUP1 PUSH4 0x4A3B68CC GT PUSH2 0x20B JUMPI DUP1 PUSH4 0x64ED743B GT PUSH2 0x1C4 JUMPI DUP1 PUSH4 0x64ED743B EQ PUSH2 0x6E6 JUMPI DUP1 PUSH4 0x660F8340 EQ PUSH2 0x714 JUMPI DUP1 PUSH4 0x66F685EA EQ PUSH2 0x732 JUMPI DUP1 PUSH4 0x6A9A7660 EQ PUSH2 0x750 JUMPI DUP1 PUSH4 0x715018A6 EQ PUSH2 0x76E JUMPI DUP1 PUSH4 0x80361747 EQ PUSH2 0x778 JUMPI PUSH2 0x2A0 JUMP JUMPDEST DUP1 PUSH4 0x4A3B68CC EQ PUSH2 0x5D6 JUMPI DUP1 PUSH4 0x51EB05A6 EQ PUSH2 0x644 JUMPI DUP1 PUSH4 0x5312EA8E EQ PUSH2 0x672 JUMPI DUP1 PUSH4 0x54324B58 EQ PUSH2 0x6A0 JUMPI DUP1 PUSH4 0x61E0C468 EQ PUSH2 0x6BE JUMPI DUP1 PUSH4 0x630B5BA1 EQ PUSH2 0x6DC JUMPI PUSH2 0x2A0 JUMP JUMPDEST DUP1 PUSH4 0x3A22DF78 GT PUSH2 0x25D JUMPI DUP1 PUSH4 0x3A22DF78 EQ PUSH2 0x462 JUMPI DUP1 PUSH4 0x3B0F0F2F EQ PUSH2 0x484 JUMPI DUP1 PUSH4 0x3F7B06D8 EQ PUSH2 0x4F2 JUMPI DUP1 PUSH4 0x41275358 EQ PUSH2 0x54A JUMPI DUP1 PUSH4 0x441A3E70 EQ PUSH2 0x57E JUMPI DUP1 PUSH4 0x47E3CDA5 EQ PUSH2 0x5B6 JUMPI PUSH2 0x2A0 JUMP JUMPDEST DUP1 PUSH4 0x81E3EDA EQ PUSH2 0x2A5 JUMPI DUP1 PUSH4 0x1526FE27 EQ PUSH2 0x2C3 JUMPI DUP1 PUSH4 0x17CAF6F1 EQ PUSH2 0x342 JUMPI DUP1 PUSH4 0x189D451D EQ PUSH2 0x360 JUMPI DUP1 PUSH4 0x190F39F0 EQ PUSH2 0x3DC JUMPI DUP1 PUSH4 0x1EB704B0 EQ PUSH2 0x434 JUMPI JUMPDEST PUSH1 0x0 DUP1 REVERT JUMPDEST PUSH2 0x2AD PUSH2 0xD56 JUMP JUMPDEST PUSH1 0x40 MLOAD DUP1 DUP3 DUP2 MSTORE PUSH1 0x20 ADD SWAP2 POP POP PUSH1 0x40 MLOAD DUP1 SWAP2 SUB SWAP1 RETURN JUMPDEST PUSH2 0x2EF PUSH1 0x4 DUP1 CALLDATASIZE SUB PUSH1 0x20 DUP2 LT ISZERO PUSH2 0x2D9 JUMPI PUSH1 0x0 DUP1 REVERT JUMPDEST DUP2 ADD SWAP1 DUP1 DUP1 CALLDATALOAD SWAP1 PUSH1 0x20 ADD SWAP1 SWAP3 SWAP2 SWAP1 POP POP POP PUSH2 0xD63 JUMP JUMPDEST PUSH1 0x40 MLOAD DUP1 DUP8 PUSH20 0xFFFFFFFFFFFFFFFFFFFFFFFFFFFFFFFFFFFFFFFF AND DUP2 MSTORE PUSH1 0x20 ADD DUP7 DUP2 MSTORE PUSH1 0x20 ADD DUP6 DUP2 MSTORE PUSH1 0x20 ADD DUP5 DUP2 MSTORE PUSH1 0x20 ADD DUP4 DUP2 MSTORE PUSH1 0x20 ADD DUP3 PUSH2 0xFFFF AND DUP2 MSTORE PUSH1 0x20 ADD SWAP7 POP POP POP POP POP POP POP PUSH1 0x40 MLOAD DUP1 SWAP2 SUB SWAP1 RETURN JUMPDEST PUSH2 0x34A PUSH2 0xDDA JUMP JUMPDEST PUSH1 0x40 MLOAD DUP1 DUP3 DUP2 MSTORE PUSH1 0x20 ADD SWAP2 POP POP PUSH1 0x40 MLOAD DUP1 SWAP2 SUB SWAP1 RETURN JUMPDEST PUSH2 0x3DA PUSH1 0x4 DUP1 CALLDATASIZE SUB PUSH1 0xC0 DUP2 LT ISZERO PUSH2 0x376 JUMPI PUSH1 0x0 DUP1 REVERT JUMPDEST DUP2 ADD SWAP1 DUP1 DUP1 CALLDATALOAD SWAP1 PUSH1 0x20 ADD SWAP1 SWAP3 SWAP2 SWAP1 DUP1 CALLDATALOAD PUSH20 0xFFFFFFFFFFFFFFFFFFFFFFFFFFFFFFFFFFFFFFFF AND SWAP1 PUSH1 0x20 ADD SWAP1 SWAP3 SWAP2 SWAP1 DUP1 CALLDATALOAD PUSH2 0xFFFF AND SWAP1 PUSH1 0x20 ADD SWAP1 SWAP3 SWAP2 SWAP1 DUP1 CALLDATALOAD ISZERO ISZERO SWAP1 PUSH1 0x20 ADD SWAP1 SWAP3 SWAP2 SWAP1 DUP1 CALLDATALOAD SWAP1 PUSH1 0x20 ADD SWAP1 SWAP3 SWAP2 SWAP1 DUP1 CALLDATALOAD SWAP1 PUSH1 0x20 ADD SWAP1 SWAP3 SWAP2 SWAP1 POP POP POP PUSH2 0xDE0 JUMP JUMPDEST STOP JUMPDEST PUSH2 0x41E PUSH1 0x4 DUP1 CALLDATASIZE SUB PUSH1 0x20 DUP2 LT ISZERO PUSH2 0x3F2 JUMPI PUSH1 0x0 DUP1 REVERT JUMPDEST DUP2 ADD SWAP1 DUP1 DUP1 CALLDATALOAD PUSH20 0xFFFFFFFFFFFFFFFFFFFFFFFFFFFFFFFFFFFFFFFF AND SWAP1 PUSH1 0x20 ADD SWAP1 SWAP3 SWAP2 SWAP1 POP POP POP PUSH2 0x11E7 JUMP JUMPDEST PUSH1 0x40 MLOAD DUP1 DUP3 DUP2 MSTORE PUSH1 0x20 ADD SWAP2 POP POP PUSH1 0x40 MLOAD DUP1 SWAP2 SUB SWAP1 RETURN JUMPDEST PUSH2 0x460 PUSH1 0x4 DUP1 CALLDATASIZE SUB PUSH1 0x20 DUP2 LT ISZERO PUSH2 0x44A JUMPI PUSH1 0x0 DUP1 REVERT JUMPDEST DUP2 ADD SWAP1 DUP1 DUP1 CALLDATALOAD SWAP1 PUSH1 0x20 ADD SWAP1 SWAP3 SWAP2 SWAP1 POP POP POP PUSH2 0x12D9 JUMP JUMPDEST STOP JUMPDEST PUSH2 0x46A PUSH2 0x13AB JUMP JUMPDEST PUSH1 0x40 MLOAD DUP1 DUP3 PUSH2 0xFFFF AND DUP2 MSTORE PUSH1 0x20 ADD SWAP2 POP POP PUSH1 0x40 MLOAD DUP1 SWAP2 SUB SWAP1 RETURN JUMPDEST PUSH2 0x4C6 PUSH1 0x4 DUP1 CALLDATASIZE SUB PUSH1 0x20 DUP2 LT ISZERO PUSH2 0x49A JUMPI PUSH1 0x0 DUP1 REVERT JUMPDEST DUP2 ADD SWAP1 DUP1 DUP1 CALLDATALOAD PUSH20 0xFFFFFFFFFFFFFFFFFFFFFFFFFFFFFFFFFFFFFFFF AND SWAP1 PUSH1 0x20 ADD SWAP1 SWAP3 SWAP2 SWAP1 POP POP POP PUSH2 0x13B1 JUMP JUMPDEST PUSH1 0x40 MLOAD DUP1 DUP3 PUSH20 0xFFFFFFFFFFFFFFFFFFFFFFFFFFFFFFFFFFFFFFFF AND DUP2 MSTORE PUSH1 0x20 ADD SWAP2 POP POP PUSH1 0x40 MLOAD DUP1 SWAP2 SUB SWAP1 RETURN JUMPDEST PUSH2 0x534 PUSH1 0x4 DUP1 CALLDATASIZE SUB PUSH1 0x20 DUP2 LT ISZERO PUSH2 0x508 JUMPI PUSH1 0x0 DUP1 REVERT JUMPDEST DUP2 ADD SWAP1 DUP1 DUP1 CALLDATALOAD PUSH20 0xFFFFFFFFFFFFFFFFFFFFFFFFFFFFFFFFFFFFFFFF AND SWAP1 PUSH1 0x20 ADD SWAP1 SWAP3 SWAP2 SWAP1 POP POP POP PUSH2 0x141A JUMP JUMPDEST PUSH1 0x40 MLOAD DUP1 DUP3 DUP2 MSTORE PUSH1 0x20 ADD SWAP2 POP POP PUSH1 0x40 MLOAD DUP1 SWAP2 SUB SWAP1 RETURN JUMPDEST PUSH2 0x552 PUSH2 0x1432 JUMP JUMPDEST PUSH1 0x40 MLOAD DUP1 DUP3 PUSH20 0xFFFFFFFFFFFFFFFFFFFFFFFFFFFFFFFFFFFFFFFF AND DUP2 MSTORE PUSH1 0x20 ADD SWAP2 POP POP PUSH1 0x40 MLOAD DUP1 SWAP2 SUB SWAP1 RETURN JUMPDEST PUSH2 0x5B4 PUSH1 0x4 DUP1 CALLDATASIZE SUB PUSH1 0x40 DUP2 LT ISZERO PUSH2 0x594 JUMPI PUSH1 0x0 DUP1 REVERT JUMPDEST DUP2 ADD SWAP1 DUP1 DUP1 CALLDATALOAD SWAP1 PUSH1 0x20 ADD SWAP1 SWAP3 SWAP2 SWAP1 DUP1 CALLDATALOAD SWAP1 PUSH1 0x20 ADD SWAP1 SWAP3 SWAP2 SWAP1 POP POP POP PUSH2 0x1458 JUMP JUMPDEST STOP JUMPDEST PUSH2 0x5BE PUSH2 0x175F JUMP JUMPDEST PUSH1 0x40 MLOAD DUP1 DUP3 ISZERO ISZERO DUP2 MSTORE PUSH1 0x20 ADD SWAP2 POP POP PUSH1 0x40 MLOAD DUP1 SWAP2 SUB SWAP1 RETURN JUMPDEST PUSH2 0x618 PUSH1 0x4 DUP1 CALLDATASIZE SUB PUSH1 0x20 DUP2 LT ISZERO PUSH2 0x5EC JUMPI PUSH1 0x0 DUP1 REVERT JUMPDEST DUP2 ADD SWAP1 DUP1 DUP1 CALLDATALOAD PUSH20 0xFFFFFFFFFFFFFFFFFFFFFFFFFFFFFFFFFFFFFFFF AND SWAP1 PUSH1 0x20 ADD SWAP1 SWAP3 SWAP2 SWAP1 POP POP POP PUSH2 0x1772 JUMP JUMPDEST PUSH1 0x40 MLOAD DUP1 DUP3 PUSH20 0xFFFFFFFFFFFFFFFFFFFFFFFFFFFFFFFFFFFFFFFF AND DUP2 MSTORE PUSH1 0x20 ADD SWAP2 POP POP PUSH1 0x40 MLOAD DUP1 SWAP2 SUB SWAP1 RETURN JUMPDEST PUSH2 0x670 PUSH1 0x4 DUP1 CALLDATASIZE SUB PUSH1 0x20 DUP2 LT ISZERO PUSH2 0x65A JUMPI PUSH1 0x0 DUP1 REVERT JUMPDEST DUP2 ADD SWAP1 DUP1 DUP1 CALLDATALOAD SWAP1 PUSH1 0x20 ADD SWAP1 SWAP3 SWAP2 SWAP1 POP POP POP PUSH2 0x17A5 JUMP JUMPDEST STOP JUMPDEST PUSH2 0x69E PUSH1 0x4 DUP1 CALLDATASIZE SUB PUSH1 0x20 DUP2 LT ISZERO PUSH2 0x688 JUMPI PUSH1 0x0 DUP1 REVERT JUMPDEST DUP2 ADD SWAP1 DUP1 DUP1 CALLDATALOAD SWAP1 PUSH1 0x20 ADD SWAP1 SWAP3 SWAP2 SWAP1 POP POP POP PUSH2 0x1B13 JUMP JUMPDEST STOP JUMPDEST PUSH2 0x6A8 PUSH2 0x1CEA JUMP JUMPDEST PUSH1 0x40 MLOAD DUP1 DUP3 DUP2 MSTORE PUSH1 0x20 ADD SWAP2 POP POP PUSH1 0x40 MLOAD DUP1 SWAP2 SUB SWAP1 RETURN JUMPDEST PUSH2 0x6C6 PUSH2 0x1CF0 JUMP JUMPDEST PUSH1 0x40 MLOAD DUP1 DUP3 DUP2 MSTORE PUSH1 0x20 ADD SWAP2 POP POP PUSH1 0x40 MLOAD DUP1 SWAP2 SUB SWAP1 RETURN JUMPDEST PUSH2 0x6E4 PUSH2 0x1CFC JUMP JUMPDEST STOP JUMPDEST PUSH2 0x712 PUSH1 0x4 DUP1 CALLDATASIZE SUB PUSH1 0x20 DUP2 LT ISZERO PUSH2 0x6FC JUMPI PUSH1 0x0 DUP1 REVERT JUMPDEST DUP2 ADD SWAP1 DUP1 DUP1 CALLDATALOAD SWAP1 PUSH1 0x20 ADD SWAP1 SWAP3 SWAP2 SWAP1 POP POP POP PUSH2 0x1D29 JUMP JUMPDEST STOP JUMPDEST PUSH2 0x71C PUSH2 0x1EFC JUMP JUMPDEST PUSH1 0x40 MLOAD DUP1 DUP3 DUP2 MSTORE PUSH1 0x20 ADD SWAP2 POP POP PUSH1 0x40 MLOAD DUP1 SWAP2 SUB SWAP1 RETURN JUMPDEST PUSH2 0x73A PUSH2 0x1F02 JUMP JUMPDEST PUSH1 0x40 MLOAD DUP1 DUP3 DUP2 MSTORE PUSH1 0x20 ADD SWAP2 POP POP PUSH1 0x40 MLOAD DUP1 SWAP2 SUB SWAP1 RETURN JUMPDEST PUSH2 0x758 PUSH2 0x1F08 JUMP JUMPDEST PUSH1 0x40 MLOAD DUP1 DUP3 DUP2 MSTORE PUSH1 0x20 ADD SWAP2 POP POP PUSH1 0x40 MLOAD DUP1 SWAP2 SUB SWAP1 RETURN JUMPDEST PUSH2 0x776 PUSH2 0x1F0E JUMP JUMPDEST STOP JUMPDEST PUSH2 0x7A6 PUSH1 0x4 DUP1 CALLDATASIZE SUB PUSH1 0x20 DUP2 LT ISZERO PUSH2 0x78E JUMPI PUSH1 0x0 DUP1 REVERT JUMPDEST DUP2 ADD SWAP1 DUP1 DUP1 CALLDATALOAD ISZERO ISZERO SWAP1 PUSH1 0x20 ADD SWAP1 SWAP3 SWAP2 SWAP1 POP POP POP PUSH2 0x2094 JUMP JUMPDEST STOP JUMPDEST PUSH2 0x7EA PUSH1 0x4 DUP1 CALLDATASIZE SUB PUSH1 0x20 DUP2 LT ISZERO PUSH2 0x7BE JUMPI PUSH1 0x0 DUP1 REVERT JUMPDEST DUP2 ADD SWAP1 DUP1 DUP1 CALLDATALOAD PUSH20 0xFFFFFFFFFFFFFFFFFFFFFFFFFFFFFFFFFFFFFFFF AND SWAP1 PUSH1 0x20 ADD SWAP1 SWAP3 SWAP2 SWAP1 POP POP POP PUSH2 0x2179 JUMP JUMPDEST STOP JUMPDEST PUSH2 0x7F4 PUSH2 0x237D JUMP JUMPDEST PUSH1 0x40 MLOAD DUP1 DUP3 PUSH20 0xFFFFFFFFFFFFFFFFFFFFFFFFFFFFFFFFFFFFFFFF AND DUP2 MSTORE PUSH1 0x20 ADD SWAP2 POP POP PUSH1 0x40 MLOAD DUP1 SWAP2 SUB SWAP1 RETURN JUMPDEST PUSH2 0x856 PUSH1 0x4 DUP1 CALLDATASIZE SUB PUSH1 0x40 DUP2 LT ISZERO PUSH2 0x836 JUMPI PUSH1 0x0 DUP1 REVERT JUMPDEST DUP2 ADD SWAP1 DUP1 DUP1 CALLDATALOAD SWAP1 PUSH1 0x20 ADD SWAP1 SWAP3 SWAP2 SWAP1 DUP1 CALLDATALOAD SWAP1 PUSH1 0x20 ADD SWAP1 SWAP3 SWAP2 SWAP1 POP POP POP PUSH2 0x23A6 JUMP JUMPDEST PUSH1 0x40 MLOAD DUP1 DUP3 DUP2 MSTORE PUSH1 0x20 ADD SWAP2 POP POP PUSH1 0x40 MLOAD DUP1 SWAP2 SUB SWAP1 RETURN JUMPDEST PUSH2 0x8C2 PUSH1 0x4 DUP1 CALLDATASIZE SUB PUSH1 0x60 DUP2 LT ISZERO PUSH2 0x882 JUMPI PUSH1 0x0 DUP1 REVERT JUMPDEST DUP2 ADD SWAP1 DUP1 DUP1 CALLDATALOAD SWAP1 PUSH1 0x20 ADD SWAP1 SWAP3 SWAP2 SWAP1 DUP1 CALLDATALOAD SWAP1 PUSH1 0x20 ADD SWAP1 SWAP3 SWAP2 SWAP1 DUP1 CALLDATALOAD PUSH20 0xFFFFFFFFFFFFFFFFFFFFFFFFFFFFFFFFFFFFFFFF AND SWAP1 PUSH1 0x20 ADD SWAP1 SWAP3 SWAP2 SWAP1 POP POP POP PUSH2 0x23C3 JUMP JUMPDEST STOP JUMPDEST PUSH2 0x8CC PUSH2 0x2866 JUMP JUMPDEST PUSH1 0x40 MLOAD DUP1 DUP3 DUP2 MSTORE PUSH1 0x20 ADD SWAP2 POP POP PUSH1 0x40 MLOAD DUP1 SWAP2 SUB SWAP1 RETURN JUMPDEST PUSH2 0x92E PUSH1 0x4 DUP1 CALLDATASIZE SUB PUSH1 0x40 DUP2 LT ISZERO PUSH2 0x8F8 JUMPI PUSH1 0x0 DUP1 REVERT JUMPDEST DUP2 ADD SWAP1 DUP1 DUP1 CALLDATALOAD SWAP1 PUSH1 0x20 ADD SWAP1 SWAP3 SWAP2 SWAP1 DUP1 CALLDATALOAD PUSH20 0xFFFFFFFFFFFFFFFFFFFFFFFFFFFFFFFFFFFFFFFF AND SWAP1 PUSH1 0x20 ADD SWAP1 SWAP3 SWAP2 SWAP1 POP POP POP PUSH2 0x2872 JUMP JUMPDEST PUSH1 0x40 MLOAD DUP1 DUP5 DUP2 MSTORE PUSH1 0x20 ADD DUP4 DUP2 MSTORE PUSH1 0x20 ADD DUP3 ISZERO ISZERO DUP2 MSTORE PUSH1 0x20 ADD SWAP4 POP POP POP POP PUSH1 0x40 MLOAD DUP1 SWAP2 SUB SWAP1 RETURN JUMPDEST PUSH2 0x95C PUSH2 0x28B6 JUMP JUMPDEST PUSH1 0x40 MLOAD DUP1 DUP3 PUSH2 0xFFFF AND DUP2 MSTORE PUSH1 0x20 ADD SWAP2 POP POP PUSH1 0x40 MLOAD DUP1 SWAP2 SUB SWAP1 RETURN JUMPDEST PUSH2 0x9B8 PUSH1 0x4 DUP1 CALLDATASIZE SUB PUSH1 0x20 DUP2 LT ISZERO PUSH2 0x98C JUMPI PUSH1 0x0 DUP1 REVERT JUMPDEST DUP2 ADD SWAP1 DUP1 DUP1 CALLDATALOAD PUSH20 0xFFFFFFFFFFFFFFFFFFFFFFFFFFFFFFFFFFFFFFFF AND SWAP1 PUSH1 0x20 ADD SWAP1 SWAP3 SWAP2 SWAP1 POP POP POP PUSH2 0x28BC JUMP JUMPDEST PUSH1 0x40 MLOAD DUP1 DUP3 DUP2 MSTORE PUSH1 0x20 ADD SWAP2 POP POP PUSH1 0x40 MLOAD DUP1 SWAP2 SUB SWAP1 RETURN JUMPDEST PUSH2 0x9D6 PUSH2 0x28D4 JUMP JUMPDEST PUSH1 0x40 MLOAD DUP1 DUP3 DUP2 MSTORE PUSH1 0x20 ADD SWAP2 POP POP PUSH1 0x40 MLOAD DUP1 SWAP2 SUB SWAP1 RETURN JUMPDEST PUSH2 0xA18 PUSH1 0x4 DUP1 CALLDATASIZE SUB PUSH1 0x20 DUP2 LT ISZERO PUSH2 0xA02 JUMPI PUSH1 0x0 DUP1 REVERT JUMPDEST DUP2 ADD SWAP1 DUP1 DUP1 CALLDATALOAD SWAP1 PUSH1 0x20 ADD SWAP1 SWAP3 SWAP2 SWAP1 POP POP POP PUSH2 0x28DA JUMP JUMPDEST STOP JUMPDEST PUSH2 0xA22 PUSH2 0x2A12 JUMP JUMPDEST PUSH1 0x40 MLOAD DUP1 DUP3 PUSH20 0xFFFFFFFFFFFFFFFFFFFFFFFFFFFFFFFFFFFFFFFF AND DUP2 MSTORE PUSH1 0x20 ADD SWAP2 POP POP PUSH1 0x40 MLOAD DUP1 SWAP2 SUB SWAP1 RETURN JUMPDEST PUSH2 0xA7A PUSH1 0x4 DUP1 CALLDATASIZE SUB PUSH1 0x20 DUP2 LT ISZERO PUSH2 0xA64 JUMPI PUSH1 0x0 DUP1 REVERT JUMPDEST DUP2 ADD SWAP1 DUP1 DUP1 CALLDATALOAD SWAP1 PUSH1 0x20 ADD SWAP1 SWAP3 SWAP2 SWAP1 POP POP POP PUSH2 0x2A38 JUMP JUMPDEST STOP JUMPDEST PUSH2 0xAA8 PUSH1 0x4 DUP1 CALLDATASIZE SUB PUSH1 0x20 DUP2 LT ISZERO PUSH2 0xA92 JUMPI PUSH1 0x0 DUP1 REVERT JUMPDEST DUP2 ADD SWAP1 DUP1 DUP1 CALLDATALOAD SWAP1 PUSH1 0x20 ADD SWAP1 SWAP3 SWAP2 SWAP1 POP POP POP PUSH2 0x2B0A JUMP JUMPDEST PUSH1 0x40 MLOAD DUP1 DUP3 ISZERO ISZERO DUP2 MSTORE PUSH1 0x20 ADD SWAP2 POP POP PUSH1 0x40 MLOAD DUP1 SWAP2 SUB SWAP1 RETURN JUMPDEST PUSH2 0xAC8 PUSH2 0x2B3A JUMP JUMPDEST PUSH1 0x40 MLOAD DUP1 DUP3 DUP2 MSTORE PUSH1 0x20 ADD SWAP2 POP POP PUSH1 0x40 MLOAD DUP1 SWAP2 SUB SWAP1 RETURN JUMPDEST PUSH2 0xB38 PUSH1 0x4 DUP1 CALLDATASIZE SUB PUSH1 0xA0 DUP2 LT ISZERO PUSH2 0xAF4 JUMPI PUSH1 0x0 DUP1 REVERT JUMPDEST DUP2 ADD SWAP1 DUP1 DUP1 CALLDATALOAD SWAP1 PUSH1 0x20 ADD SWAP1 SWAP3 SWAP2 SWAP1 DUP1 CALLDATALOAD SWAP1 PUSH1 0x20 ADD SWAP1 SWAP3 SWAP2 SWAP1 DUP1 CALLDATALOAD PUSH2 0xFFFF AND SWAP1 PUSH1 0x20 ADD SWAP1 SWAP3 SWAP2 SWAP1 DUP1 CALLDATALOAD ISZERO ISZERO SWAP1 PUSH1 0x20 ADD SWAP1 SWAP3 SWAP2 SWAP1 DUP1 CALLDATALOAD SWAP1 PUSH1 0x20 ADD SWAP1 SWAP3 SWAP2 SWAP1 POP POP POP PUSH2 0x2B40 JUMP JUMPDEST STOP JUMPDEST PUSH2 0xB7C PUSH1 0x4 DUP1 CALLDATASIZE SUB PUSH1 0x20 DUP2 LT ISZERO PUSH2 0xB50 JUMPI PUSH1 0x0 DUP1 REVERT JUMPDEST DUP2 ADD SWAP1 DUP1 DUP1 CALLDATALOAD PUSH20 0xFFFFFFFFFFFFFFFFFFFFFFFFFFFFFFFFFFFFFFFF AND SWAP1 PUSH1 0x20 ADD SWAP1 SWAP3 SWAP2 SWAP1 POP POP POP PUSH2 0x2D61 JUMP JUMPDEST PUSH1 0x40 MLOAD DUP1 DUP3 ISZERO ISZERO DUP2 MSTORE PUSH1 0x20 ADD SWAP2 POP POP PUSH1 0x40 MLOAD DUP1 SWAP2 SUB SWAP1 RETURN JUMPDEST PUSH2 0xBD6 PUSH1 0x4 DUP1 CALLDATASIZE SUB PUSH1 0x20 DUP2 LT ISZERO PUSH2 0xBAA JUMPI PUSH1 0x0 DUP1 REVERT JUMPDEST DUP2 ADD SWAP1 DUP1 DUP1 CALLDATALOAD PUSH20 0xFFFFFFFFFFFFFFFFFFFFFFFFFFFFFFFFFFFFFFFF AND SWAP1 PUSH1 0x20 ADD SWAP1 SWAP3 SWAP2 SWAP1 POP POP POP PUSH2 0x2D81 JUMP JUMPDEST STOP JUMPDEST PUSH2 0xBE0 PUSH2 0x2F85 JUMP JUMPDEST PUSH1 0x40 MLOAD DUP1 DUP3 DUP2 MSTORE PUSH1 0x20 ADD SWAP2 POP POP PUSH1 0x40 MLOAD DUP1 SWAP2 SUB SWAP1 RETURN JUMPDEST PUSH2 0xBFE PUSH2 0x2F8B JUMP JUMPDEST PUSH1 0x40 MLOAD DUP1 DUP3 PUSH20 0xFFFFFFFFFFFFFFFFFFFFFFFFFFFFFFFFFFFFFFFF AND DUP2 MSTORE PUSH1 0x20 ADD SWAP2 POP POP PUSH1 0x40 MLOAD DUP1 SWAP2 SUB SWAP1 RETURN JUMPDEST PUSH2 0xC76 PUSH1 0x4 DUP1 CALLDATASIZE SUB PUSH1 0x40 DUP2 LT ISZERO PUSH2 0xC40 JUMPI PUSH1 0x0 DUP1 REVERT JUMPDEST DUP2 ADD SWAP1 DUP1 DUP1 CALLDATALOAD SWAP1 PUSH1 0x20 ADD SWAP1 SWAP3 SWAP2 SWAP1 DUP1 CALLDATALOAD PUSH20 0xFFFFFFFFFFFFFFFFFFFFFFFFFFFFFFFFFFFFFFFF AND SWAP1 PUSH1 0x20 ADD SWAP1 SWAP3 SWAP2 SWAP1 POP POP POP PUSH2 0x2FB1 JUMP JUMPDEST PUSH1 0x40 MLOAD DUP1 DUP3 DUP2 MSTORE PUSH1 0x20 ADD SWAP2 POP POP PUSH1 0x40 MLOAD DUP1 SWAP2 SUB SWAP1 RETURN JUMPDEST PUSH2 0xCC2 PUSH1 0x4 DUP1 CALLDATASIZE SUB PUSH1 0x40 DUP2 LT ISZERO PUSH2 0xCA2 JUMPI PUSH1 0x0 DUP1 REVERT JUMPDEST DUP2 ADD SWAP1 DUP1 DUP1 CALLDATALOAD SWAP1 PUSH1 0x20 ADD SWAP1 SWAP3 SWAP2 SWAP1 DUP1 CALLDATALOAD SWAP1 PUSH1 0x20 ADD SWAP1 SWAP3 SWAP2 SWAP1 POP POP POP PUSH2 0x3208 JUMP JUMPDEST STOP JUMPDEST PUSH2 0xCCC PUSH2 0x3612 JUMP JUMPDEST STOP JUMPDEST PUSH2 0xCFA PUSH1 0x4 DUP1 CALLDATASIZE SUB PUSH1 0x20 DUP2 LT ISZERO PUSH2 0xCE4 JUMPI PUSH1 0x0 DUP1 REVERT JUMPDEST DUP2 ADD SWAP1 DUP1 DUP1 CALLDATALOAD SWAP1 PUSH1 0x20 ADD SWAP1 SWAP3 SWAP2 SWAP1 POP POP POP PUSH2 0x386B JUMP JUMPDEST PUSH1 0x40 MLOAD DUP1 DUP3 ISZERO ISZERO DUP2 MSTORE PUSH1 0x20 ADD SWAP2 POP POP PUSH1 0x40 MLOAD DUP1 SWAP2 SUB SWAP1 RETURN JUMPDEST PUSH2 0xD54 PUSH1 0x4 DUP1 CALLDATASIZE SUB PUSH1 0x20 DUP2 LT ISZERO PUSH2 0xD28 JUMPI PUSH1 0x0 DUP1 REVERT JUMPDEST DUP2 ADD SWAP1 DUP1 DUP1 CALLDATALOAD PUSH20 0xFFFFFFFFFFFFFFFFFFFFFFFFFFFFFFFFFFFFFFFF AND SWAP1 PUSH1 0x20 ADD SWAP1 SWAP3 SWAP2 SWAP1 POP POP POP PUSH2 0x38AD JUMP JUMPDEST STOP JUMPDEST PUSH1 0x0 PUSH1 0x9 DUP1 SLOAD SWAP1 POP SWAP1 POP SWAP1 JUMP JUMPDEST PUSH1 0x9 DUP2 DUP2 SLOAD DUP2 LT PUSH2 0xD70 JUMPI INVALID JUMPDEST SWAP1 PUSH1 0x0 MSTORE PUSH1 0x20 PUSH1 0x0 KECCAK256 SWAP1 PUSH1 0x6 MUL ADD PUSH1 0x0 SWAP2 POP SWAP1 POP DUP1 PUSH1 0x0 ADD PUSH1 0x0 SWAP1 SLOAD SWAP1 PUSH2 0x100 EXP SWAP1 DIV PUSH20 0xFFFFFFFFFFFFFFFFFFFFFFFFFFFFFFFFFFFFFFFF AND SWAP1 DUP1 PUSH1 0x1 ADD SLOAD SWAP1 DUP1 PUSH1 0x2 ADD SLOAD SWAP1 DUP1 PUSH1 0x3 ADD SLOAD SWAP1 DUP1 PUSH1 0x4 ADD SLOAD SWAP1 DUP1 PUSH1 0x5 ADD PUSH1 0x0 SWAP1 SLOAD SWAP1 PUSH2 0x100 EXP SWAP1 DIV PUSH2 0xFFFF AND SWAP1 POP DUP7 JUMP JUMPDEST PUSH1 0xB SLOAD DUP2 JUMP JUMPDEST PUSH2 0xDE8 PUSH2 0x3981 JUMP JUMPDEST PUSH20 0xFFFFFFFFFFFFFFFFFFFFFFFFFFFFFFFFFFFFFFFF AND PUSH1 0x0 DUP1 SLOAD SWAP1 PUSH2 0x100 EXP SWAP1 DIV PUSH20 0xFFFFFFFFFFFFFFFFFFFFFFFFFFFFFFFFFFFFFFFF AND PUSH20 0xFFFFFFFFFFFFFFFFFFFFFFFFFFFFFFFFFFFFFFFF AND EQ PUSH2 0xEA8 JUMPI PUSH1 0x40 MLOAD PUSH32 0x8C379A000000000000000000000000000000000000000000000000000000000 DUP2 MSTORE PUSH1 0x4 ADD DUP1 DUP1 PUSH1 0x20 ADD DUP3 DUP2 SUB DUP3 MSTORE PUSH1 0x20 DUP2 MSTORE PUSH1 0x20 ADD DUP1 PUSH32 0x4F776E61626C653A2063616C6C6572206973206E6F7420746865206F776E6572 DUP2 MSTORE POP PUSH1 0x20 ADD SWAP2 POP POP PUSH1 0x40 MLOAD DUP1 SWAP2 SUB SWAP1 REVERT JUMPDEST DUP5 PUSH1 0x0 ISZERO ISZERO PUSH1 0xF PUSH1 0x0 DUP4 PUSH20 0xFFFFFFFFFFFFFFFFFFFFFFFFFFFFFFFFFFFFFFFF AND PUSH20 0xFFFFFFFFFFFFFFFFFFFFFFFFFFFFFFFFFFFFFFFF AND DUP2 MSTORE PUSH1 0x20 ADD SWAP1 DUP2 MSTORE PUSH1 0x20 ADD PUSH1 0x0 KECCAK256 PUSH1 0x0 SWAP1 SLOAD SWAP1 PUSH2 0x100 EXP SWAP1 DIV PUSH1 0xFF AND ISZERO ISZERO EQ PUSH2 0xF6F JUMPI PUSH1 0x40 MLOAD PUSH32 0x8C379A000000000000000000000000000000000000000000000000000000000 DUP2 MSTORE PUSH1 0x4 ADD DUP1 DUP1 PUSH1 0x20 ADD DUP3 DUP2 SUB DUP3 MSTORE PUSH1 0x19 DUP2 MSTORE PUSH1 0x20 ADD DUP1 PUSH32 0x6E6F6E4475706C6963617465643A206475706C69636174656400000000000000 DUP2 MSTORE POP PUSH1 0x20 ADD SWAP2 POP POP PUSH1 0x40 MLOAD DUP1 SWAP2 SUB SWAP1 REVERT JUMPDEST PUSH2 0x3E8 PUSH2 0xFFFF AND DUP6 PUSH2 0xFFFF AND GT ISZERO PUSH2 0xFD2 JUMPI PUSH1 0x40 MLOAD PUSH32 0x8C379A000000000000000000000000000000000000000000000000000000000 DUP2 MSTORE PUSH1 0x4 ADD DUP1 DUP1 PUSH1 0x20 ADD DUP3 DUP2 SUB DUP3 MSTORE PUSH1 0x25 DUP2 MSTORE PUSH1 0x20 ADD DUP1 PUSH2 0x49EF PUSH1 0x25 SWAP2 CODECOPY PUSH1 0x40 ADD SWAP2 POP POP PUSH1 0x40 MLOAD DUP1 SWAP2 SUB SWAP1 REVERT JUMPDEST DUP4 ISZERO PUSH2 0xFE1 JUMPI PUSH2 0xFE0 PUSH2 0x1CFC JUMP JUMPDEST JUMPDEST PUSH1 0x0 DUP1 DUP5 GT PUSH2 0xFF2 JUMPI PUSH1 0x7 SLOAD PUSH2 0xFF4 JUMP JUMPDEST DUP4 JUMPDEST SWAP1 POP PUSH2 0x100B DUP9 PUSH1 0xB SLOAD PUSH2 0x3989 SWAP1 SWAP2 SWAP1 PUSH4 0xFFFFFFFF AND JUMP JUMPDEST PUSH1 0xB DUP2 SWAP1 SSTORE POP PUSH1 0x1 PUSH1 0xF PUSH1 0x0 DUP10 PUSH20 0xFFFFFFFFFFFFFFFFFFFFFFFFFFFFFFFFFFFFFFFF AND PUSH20 0xFFFFFFFFFFFFFFFFFFFFFFFFFFFFFFFFFFFFFFFF AND DUP2 MSTORE PUSH1 0x20 ADD SWAP1 DUP2 MSTORE PUSH1 0x20 ADD PUSH1 0x0 KECCAK256 PUSH1 0x0 PUSH2 0x100 EXP DUP2 SLOAD DUP2 PUSH1 0xFF MUL NOT AND SWAP1 DUP4 ISZERO ISZERO MUL OR SWAP1 SSTORE POP PUSH1 0x9 PUSH1 0x40 MLOAD DUP1 PUSH1 0xC0 ADD PUSH1 0x40 MSTORE DUP1 DUP10 PUSH20 0xFFFFFFFFFFFFFFFFFFFFFFFFFFFFFFFFFFFFFFFF AND DUP2 MSTORE PUSH1 0x20 ADD DUP11 DUP2 MSTORE PUSH1 0x20 ADD DUP4 DUP2 MSTORE PUSH1 0x20 ADD PUSH1 0x0 DUP7 GT PUSH2 0x10BE JUMPI PUSH1 0x8 SLOAD NUMBER GT PUSH2 0x10B7 JUMPI PUSH1 0x8 SLOAD PUSH2 0x10B9 JUMP JUMPDEST NUMBER JUMPDEST PUSH2 0x10C0 JUMP JUMPDEST DUP6 JUMPDEST DUP2 MSTORE PUSH1 0x20 ADD PUSH1 0x0 DUP2 MSTORE PUSH1 0x20 ADD DUP9 PUSH2 0xFFFF AND DUP2 MSTORE POP SWAP1 DUP1 PUSH1 0x1 DUP2 SLOAD ADD DUP1 DUP3 SSTORE DUP1 SWAP2 POP POP PUSH1 0x1 SWAP1 SUB SWAP1 PUSH1 0x0 MSTORE PUSH1 0x20 PUSH1 0x0 KECCAK256 SWAP1 PUSH1 0x6 MUL ADD PUSH1 0x0 SWAP1 SWAP2 SWAP1 SWAP2 SWAP1 SWAP2 POP PUSH1 0x0 DUP3 ADD MLOAD DUP2 PUSH1 0x0 ADD PUSH1 0x0 PUSH2 0x100 EXP DUP2 SLOAD DUP2 PUSH20 0xFFFFFFFFFFFFFFFFFFFFFFFFFFFFFFFFFFFFFFFF MUL NOT AND SWAP1 DUP4 PUSH20 0xFFFFFFFFFFFFFFFFFFFFFFFFFFFFFFFFFFFFFFFF AND MUL OR SWAP1 SSTORE POP PUSH1 0x20 DUP3 ADD MLOAD DUP2 PUSH1 0x1 ADD SSTORE PUSH1 0x40 DUP3 ADD MLOAD DUP2 PUSH1 0x2 ADD SSTORE PUSH1 0x60 DUP3 ADD MLOAD DUP2 PUSH1 0x3 ADD SSTORE PUSH1 0x80 DUP3 ADD MLOAD DUP2 PUSH1 0x4 ADD SSTORE PUSH1 0xA0 DUP3 ADD MLOAD DUP2 PUSH1 0x5 ADD PUSH1 0x0 PUSH2 0x100 EXP DUP2 SLOAD DUP2 PUSH2 0xFFFF MUL NOT AND SWAP1 DUP4 PUSH2 0xFFFF AND MUL OR SWAP1 SSTORE POP POP POP PUSH1 0x1 PUSH1 0x9 DUP1 SLOAD SWAP1 POP SUB PUSH1 0x10 PUSH1 0x0 DUP10 PUSH20 0xFFFFFFFFFFFFFFFFFFFFFFFFFFFFFFFFFFFFFFFF AND PUSH20 0xFFFFFFFFFFFFFFFFFFFFFFFFFFFFFFFFFFFFFFFF AND DUP2 MSTORE PUSH1 0x20 ADD SWAP1 DUP2 MSTORE PUSH1 0x20 ADD PUSH1 0x0 KECCAK256 DUP2 SWAP1 SSTORE POP POP POP POP POP POP POP POP POP JUMP JUMPDEST PUSH1 0x0 DUP1 ISZERO ISZERO PUSH1 0xF PUSH1 0x0 DUP5 PUSH20 0xFFFFFFFFFFFFFFFFFFFFFFFFFFFFFFFFFFFFFFFF AND PUSH20 0xFFFFFFFFFFFFFFFFFFFFFFFFFFFFFFFFFFFFFFFF AND DUP2 MSTORE PUSH1 0x20 ADD SWAP1 DUP2 MSTORE PUSH1 0x20 ADD PUSH1 0x0 KECCAK256 PUSH1 0x0 SWAP1 SLOAD SWAP1 PUSH2 0x100 EXP SWAP1 DIV PUSH1 0xFF AND ISZERO ISZERO EQ ISZERO PUSH2 0x1292 JUMPI PUSH1 0x40 MLOAD PUSH32 0x8C379A000000000000000000000000000000000000000000000000000000000 DUP2 MSTORE PUSH1 0x4 ADD DUP1 DUP1 PUSH1 0x20 ADD DUP3 DUP2 SUB DUP3 MSTORE PUSH1 0x21 DUP2 MSTORE PUSH1 0x20 ADD DUP1 PUSH2 0x4BC7 PUSH1 0x21 SWAP2 CODECOPY PUSH1 0x40 ADD SWAP2 POP POP PUSH1 0x40 MLOAD DUP1 SWAP2 SUB SWAP1 REVERT JUMPDEST PUSH1 0x10 PUSH1 0x0 DUP4 PUSH20 0xFFFFFFFFFFFFFFFFFFFFFFFFFFFFFFFFFFFFFFFF AND PUSH20 0xFFFFFFFFFFFFFFFFFFFFFFFFFFFFFFFFFFFFFFFF AND DUP2 MSTORE PUSH1 0x20 ADD SWAP1 DUP2 MSTORE PUSH1 0x20 ADD PUSH1 0x0 KECCAK256 SLOAD SWAP1 POP SWAP2 SWAP1 POP JUMP JUMPDEST PUSH2 0x12E1 PUSH2 0x3981 JUMP JUMPDEST PUSH20 0xFFFFFFFFFFFFFFFFFFFFFFFFFFFFFFFFFFFFFFFF AND PUSH1 0x0 DUP1 SLOAD SWAP1 PUSH2 0x100 EXP SWAP1 DIV PUSH20 0xFFFFFFFFFFFFFFFFFFFFFFFFFFFFFFFFFFFFFFFF AND PUSH20 0xFFFFFFFFFFFFFFFFFFFFFFFFFFFFFFFFFFFFFFFF AND EQ PUSH2 0x13A1 JUMPI PUSH1 0x40 MLOAD PUSH32 0x8C379A000000000000000000000000000000000000000000000000000000000 DUP2 MSTORE PUSH1 0x4 ADD DUP1 DUP1 PUSH1 0x20 ADD DUP3 DUP2 SUB DUP3 MSTORE PUSH1 0x20 DUP2 MSTORE PUSH1 0x20 ADD DUP1 PUSH32 0x4F776E61626C653A2063616C6C6572206973206E6F7420746865206F776E6572 DUP2 MSTORE POP PUSH1 0x20 ADD SWAP2 POP POP PUSH1 0x40 MLOAD DUP1 SWAP2 SUB SWAP1 REVERT JUMPDEST DUP1 PUSH1 0x6 DUP2 SWAP1 SSTORE POP POP JUMP JUMPDEST PUSH2 0x7D0 DUP2 JUMP JUMPDEST PUSH1 0x0 PUSH1 0xD PUSH1 0x0 DUP4 PUSH20 0xFFFFFFFFFFFFFFFFFFFFFFFFFFFFFFFFFFFFFFFF AND PUSH20 0xFFFFFFFFFFFFFFFFFFFFFFFFFFFFFFFFFFFFFFFF AND DUP2 MSTORE PUSH1 0x20 ADD SWAP1 DUP2 MSTORE PUSH1 0x20 ADD PUSH1 0x0 KECCAK256 PUSH1 0x0 SWAP1 SLOAD SWAP1 PUSH2 0x100 EXP SWAP1 DIV PUSH20 0xFFFFFFFFFFFFFFFFFFFFFFFFFFFFFFFFFFFFFFFF AND SWAP1 POP SWAP2 SWAP1 POP JUMP JUMPDEST PUSH1 0xE PUSH1 0x20 MSTORE DUP1 PUSH1 0x0 MSTORE PUSH1 0x40 PUSH1 0x0 KECCAK256 PUSH1 0x0 SWAP2 POP SWAP1 POP SLOAD DUP2 JUMP JUMPDEST PUSH1 0x5 PUSH1 0x0 SWAP1 SLOAD SWAP1 PUSH2 0x100 EXP SWAP1 DIV PUSH20 0xFFFFFFFFFFFFFFFFFFFFFFFFFFFFFFFFFFFFFFFF AND DUP2 JUMP JUMPDEST PUSH1 0x2 PUSH1 0x1 SLOAD EQ ISZERO PUSH2 0x14D1 JUMPI PUSH1 0x40 MLOAD PUSH32 0x8C379A000000000000000000000000000000000000000000000000000000000 DUP2 MSTORE PUSH1 0x4 ADD DUP1 DUP1 PUSH1 0x20 ADD DUP3 DUP2 SUB DUP3 MSTORE PUSH1 0x1F DUP2 MSTORE PUSH1 0x20 ADD DUP1 PUSH32 0x5265656E7472616E637947756172643A207265656E7472616E742063616C6C00 DUP2 MSTORE POP PUSH1 0x20 ADD SWAP2 POP POP PUSH1 0x40 MLOAD DUP1 SWAP2 SUB SWAP1 REVERT JUMPDEST PUSH1 0x2 PUSH1 0x1 DUP2 SWAP1 SSTORE POP PUSH1 0x0 PUSH1 0x9 DUP4 DUP2 SLOAD DUP2 LT PUSH2 0x14E8 JUMPI INVALID JUMPDEST SWAP1 PUSH1 0x0 MSTORE PUSH1 0x20 PUSH1 0x0 KECCAK256 SWAP1 PUSH1 0x6 MUL ADD SWAP1 POP PUSH1 0x0 PUSH1 0xA PUSH1 0x0 DUP6 DUP2 MSTORE PUSH1 0x20 ADD SWAP1 DUP2 MSTORE PUSH1 0x20 ADD PUSH1 0x0 KECCAK256 PUSH1 0x0 CALLER PUSH20 0xFFFFFFFFFFFFFFFFFFFFFFFFFFFFFFFFFFFFFFFF AND PUSH20 0xFFFFFFFFFFFFFFFFFFFFFFFFFFFFFFFFFFFFFFFF AND DUP2 MSTORE PUSH1 0x20 ADD SWAP1 DUP2 MSTORE PUSH1 0x20 ADD PUSH1 0x0 KECCAK256 SWAP1 POP DUP3 DUP2 PUSH1 0x0 ADD SLOAD LT ISZERO PUSH2 0x15C6 JUMPI PUSH1 0x40 MLOAD PUSH32 0x8C379A000000000000000000000000000000000000000000000000000000000 DUP2 MSTORE PUSH1 0x4 ADD DUP1 DUP1 PUSH1 0x20 ADD DUP3 DUP2 SUB DUP3 MSTORE PUSH1 0x12 DUP2 MSTORE PUSH1 0x20 ADD DUP1 PUSH32 0x77697468647261773A206E6F7420676F6F640000000000000000000000000000 DUP2 MSTORE POP PUSH1 0x20 ADD SWAP2 POP POP PUSH1 0x40 MLOAD DUP1 SWAP2 SUB SWAP1 REVERT JUMPDEST PUSH2 0x15CF DUP5 PUSH2 0x17A5 JUMP JUMPDEST PUSH1 0x0 PUSH2 0x15DA DUP6 PUSH2 0x2B0A JUMP JUMPDEST SWAP1 POP PUSH1 0x0 PUSH2 0x1626 DUP4 PUSH1 0x1 ADD SLOAD PUSH2 0x1618 PUSH5 0xE8D4A51000 PUSH2 0x160A DUP9 PUSH1 0x4 ADD SLOAD DUP9 PUSH1 0x0 ADD SLOAD PUSH2 0x3A11 SWAP1 SWAP2 SWAP1 PUSH4 0xFFFFFFFF AND JUMP JUMPDEST PUSH2 0x3A97 SWAP1 SWAP2 SWAP1 PUSH4 0xFFFFFFFF AND JUMP JUMPDEST PUSH2 0x3AE1 SWAP1 SWAP2 SWAP1 PUSH4 0xFFFFFFFF AND JUMP JUMPDEST SWAP1 POP DUP2 DUP1 ISZERO PUSH2 0x1635 JUMPI POP PUSH1 0x0 DUP2 GT JUMPDEST ISZERO PUSH2 0x1689 JUMPI PUSH2 0x1644 CALLER DUP3 PUSH2 0x3B2B JUMP JUMPDEST PUSH2 0x164E CALLER DUP3 PUSH2 0x3DFF JUMP JUMPDEST PUSH2 0x1680 PUSH5 0xE8D4A51000 PUSH2 0x1672 DUP7 PUSH1 0x4 ADD SLOAD DUP7 PUSH1 0x0 ADD SLOAD PUSH2 0x3A11 SWAP1 SWAP2 SWAP1 PUSH4 0xFFFFFFFF AND JUMP JUMPDEST PUSH2 0x3A97 SWAP1 SWAP2 SWAP1 PUSH4 0xFFFFFFFF AND JUMP JUMPDEST DUP4 PUSH1 0x1 ADD DUP2 SWAP1 SSTORE POP JUMPDEST PUSH1 0x0 DUP6 GT ISZERO PUSH2 0x1701 JUMPI PUSH2 0x16A9 DUP6 DUP5 PUSH1 0x0 ADD SLOAD PUSH2 0x3AE1 SWAP1 SWAP2 SWAP1 PUSH4 0xFFFFFFFF AND JUMP JUMPDEST DUP4 PUSH1 0x0 ADD DUP2 SWAP1 SSTORE POP PUSH2 0x1700 CALLER DUP7 DUP7 PUSH1 0x0 ADD PUSH1 0x0 SWAP1 SLOAD SWAP1 PUSH2 0x100 EXP SWAP1 DIV PUSH20 0xFFFFFFFFFFFFFFFFFFFFFFFFFFFFFFFFFFFFFFFF AND PUSH20 0xFFFFFFFFFFFFFFFFFFFFFFFFFFFFFFFFFFFFFFFF AND PUSH2 0x3FCC SWAP1 SWAP3 SWAP2 SWAP1 PUSH4 0xFFFFFFFF AND JUMP JUMPDEST JUMPDEST DUP6 CALLER PUSH20 0xFFFFFFFFFFFFFFFFFFFFFFFFFFFFFFFFFFFFFFFF AND PUSH32 0xF279E6A1F5E320CCA91135676D9CB6E44CA8A08C0B88342BCDB1144F6511B568 DUP8 PUSH1 0x40 MLOAD DUP1 DUP3 DUP2 MSTORE PUSH1 0x20 ADD SWAP2 POP POP PUSH1 0x40 MLOAD DUP1 SWAP2 SUB SWAP1 LOG3 POP POP POP POP PUSH1 0x1 DUP1 DUP2 SWAP1 SSTORE POP POP POP JUMP JUMPDEST PUSH1 0x12 PUSH1 0x0 SWAP1 SLOAD SWAP1 PUSH2 0x100 EXP SWAP1 DIV PUSH1 0xFF AND DUP2 JUMP JUMPDEST PUSH1 0xD PUSH1 0x20 MSTORE DUP1 PUSH1 0x0 MSTORE PUSH1 0x40 PUSH1 0x0 KECCAK256 PUSH1 0x0 SWAP2 POP SLOAD SWAP1 PUSH2 0x100 EXP SWAP1 DIV PUSH20 0xFFFFFFFFFFFFFFFFFFFFFFFFFFFFFFFFFFFFFFFF AND DUP2 JUMP JUMPDEST PUSH1 0x0 PUSH1 0x9 DUP3 DUP2 SLOAD DUP2 LT PUSH2 0x17B4 JUMPI INVALID JUMPDEST SWAP1 PUSH1 0x0 MSTORE PUSH1 0x20 PUSH1 0x0 KECCAK256 SWAP1 PUSH1 0x6 MUL ADD SWAP1 POP DUP1 PUSH1 0x3 ADD SLOAD NUMBER GT PUSH2 0x17D5 JUMPI POP PUSH2 0x1B10 JUMP JUMPDEST PUSH2 0x17DE DUP3 PUSH2 0x386B JUMP JUMPDEST PUSH2 0x17E8 JUMPI POP PUSH2 0x1B10 JUMP JUMPDEST PUSH1 0x0 DUP2 PUSH1 0x0 ADD PUSH1 0x0 SWAP1 SLOAD SWAP1 PUSH2 0x100 EXP SWAP1 DIV PUSH20 0xFFFFFFFFFFFFFFFFFFFFFFFFFFFFFFFFFFFFFFFF AND PUSH20 0xFFFFFFFFFFFFFFFFFFFFFFFFFFFFFFFFFFFFFFFF AND PUSH4 0x70A08231 ADDRESS PUSH1 0x40 MLOAD DUP3 PUSH4 0xFFFFFFFF AND PUSH1 0xE0 SHL DUP2 MSTORE PUSH1 0x4 ADD DUP1 DUP3 PUSH20 0xFFFFFFFFFFFFFFFFFFFFFFFFFFFFFFFFFFFFFFFF AND DUP2 MSTORE PUSH1 0x20 ADD SWAP2 POP POP PUSH1 0x20 PUSH1 0x40 MLOAD DUP1 DUP4 SUB DUP2 DUP7 DUP1 EXTCODESIZE ISZERO DUP1 ISZERO PUSH2 0x1875 JUMPI PUSH1 0x0 DUP1 REVERT JUMPDEST POP GAS STATICCALL ISZERO DUP1 ISZERO PUSH2 0x1889 JUMPI RETURNDATASIZE PUSH1 0x0 DUP1 RETURNDATACOPY RETURNDATASIZE PUSH1 0x0 REVERT JUMPDEST POP POP POP POP PUSH1 0x40 MLOAD RETURNDATASIZE PUSH1 0x20 DUP2 LT ISZERO PUSH2 0x189F JUMPI PUSH1 0x0 DUP1 REVERT JUMPDEST DUP2 ADD SWAP1 DUP1 DUP1 MLOAD SWAP1 PUSH1 0x20 ADD SWAP1 SWAP3 SWAP2 SWAP1 POP POP POP SWAP1 POP PUSH1 0x0 DUP2 EQ DUP1 PUSH2 0x18C5 JUMPI POP PUSH1 0x0 DUP3 PUSH1 0x1 ADD SLOAD EQ JUMPDEST ISZERO PUSH2 0x18DA JUMPI NUMBER DUP3 PUSH1 0x3 ADD DUP2 SWAP1 SSTORE POP POP POP PUSH2 0x1B10 JUMP JUMPDEST PUSH1 0x0 PUSH2 0x18EA DUP4 PUSH1 0x3 ADD SLOAD NUMBER PUSH2 0x23A6 JUMP JUMPDEST SWAP1 POP PUSH1 0x0 PUSH2 0x192D PUSH1 0xB SLOAD PUSH2 0x191F DUP7 PUSH1 0x1 ADD SLOAD PUSH2 0x1911 PUSH1 0x4 SLOAD DUP8 PUSH2 0x3A11 SWAP1 SWAP2 SWAP1 PUSH4 0xFFFFFFFF AND JUMP JUMPDEST PUSH2 0x3A11 SWAP1 SWAP2 SWAP1 PUSH4 0xFFFFFFFF AND JUMP JUMPDEST PUSH2 0x3A97 SWAP1 SWAP2 SWAP1 PUSH4 0xFFFFFFFF AND JUMP JUMPDEST SWAP1 POP PUSH1 0x2 PUSH1 0x0 SWAP1 SLOAD SWAP1 PUSH2 0x100 EXP SWAP1 DIV PUSH20 0xFFFFFFFFFFFFFFFFFFFFFFFFFFFFFFFFFFFFFFFF AND PUSH20 0xFFFFFFFFFFFFFFFFFFFFFFFFFFFFFFFFFFFFFFFF AND PUSH4 0x40C10F19 PUSH1 0x3 PUSH1 0x0 SWAP1 SLOAD SWAP1 PUSH2 0x100 EXP SWAP1 DIV PUSH20 0xFFFFFFFFFFFFFFFFFFFFFFFFFFFFFFFFFFFFFFFF AND PUSH2 0x19A4 PUSH1 0xA DUP6 PUSH2 0x3A97 SWAP1 SWAP2 SWAP1 PUSH4 0xFFFFFFFF AND JUMP JUMPDEST PUSH1 0x40 MLOAD DUP4 PUSH4 0xFFFFFFFF AND PUSH1 0xE0 SHL DUP2 MSTORE PUSH1 0x4 ADD DUP1 DUP4 PUSH20 0xFFFFFFFFFFFFFFFFFFFFFFFFFFFFFFFFFFFFFFFF AND DUP2 MSTORE PUSH1 0x20 ADD DUP3 DUP2 MSTORE PUSH1 0x20 ADD SWAP3 POP POP POP PUSH1 0x0 PUSH1 0x40 MLOAD DUP1 DUP4 SUB DUP2 PUSH1 0x0 DUP8 DUP1 EXTCODESIZE ISZERO DUP1 ISZERO PUSH2 0x19F7 JUMPI PUSH1 0x0 DUP1 REVERT JUMPDEST POP GAS CALL ISZERO DUP1 ISZERO PUSH2 0x1A0B JUMPI RETURNDATASIZE PUSH1 0x0 DUP1 RETURNDATACOPY RETURNDATASIZE PUSH1 0x0 REVERT JUMPDEST POP POP POP POP PUSH1 0x2 PUSH1 0x0 SWAP1 SLOAD SWAP1 PUSH2 0x100 EXP SWAP1 DIV PUSH20 0xFFFFFFFFFFFFFFFFFFFFFFFFFFFFFFFFFFFFFFFF AND PUSH20 0xFFFFFFFFFFFFFFFFFFFFFFFFFFFFFFFFFFFFFFFF AND PUSH4 0x40C10F19 ADDRESS DUP4 PUSH1 0x40 MLOAD DUP4 PUSH4 0xFFFFFFFF AND PUSH1 0xE0 SHL DUP2 MSTORE PUSH1 0x4 ADD DUP1 DUP4 PUSH20 0xFFFFFFFFFFFFFFFFFFFFFFFFFFFFFFFFFFFFFFFF AND DUP2 MSTORE PUSH1 0x20 ADD DUP3 DUP2 MSTORE PUSH1 0x20 ADD SWAP3 POP POP POP PUSH1 0x0 PUSH1 0x40 MLOAD DUP1 DUP4 SUB DUP2 PUSH1 0x0 DUP8 DUP1 EXTCODESIZE ISZERO DUP1 ISZERO PUSH2 0x1AA2 JUMPI PUSH1 0x0 DUP1 REVERT JUMPDEST POP GAS CALL ISZERO DUP1 ISZERO PUSH2 0x1AB6 JUMPI RETURNDATASIZE PUSH1 0x0 DUP1 RETURNDATACOPY RETURNDATASIZE PUSH1 0x0 REVERT JUMPDEST POP POP POP POP PUSH2 0x1AFA PUSH2 0x1AE7 DUP5 PUSH2 0x1AD9 PUSH5 0xE8D4A51000 DUP6 PUSH2 0x3A11 SWAP1 SWAP2 SWAP1 PUSH4 0xFFFFFFFF AND JUMP JUMPDEST PUSH2 0x3A97 SWAP1 SWAP2 SWAP1 PUSH4 0xFFFFFFFF AND JUMP JUMPDEST DUP6 PUSH1 0x4 ADD SLOAD PUSH2 0x3989 SWAP1 SWAP2 SWAP1 PUSH4 0xFFFFFFFF AND JUMP JUMPDEST DUP5 PUSH1 0x4 ADD DUP2 SWAP1 SSTORE POP NUMBER DUP5 PUSH1 0x3 ADD DUP2 SWAP1 SSTORE POP POP POP POP POP JUMPDEST POP JUMP JUMPDEST PUSH1 0x2 PUSH1 0x1 SLOAD EQ ISZERO PUSH2 0x1B8C JUMPI PUSH1 0x40 MLOAD PUSH32 0x8C379A000000000000000000000000000000000000000000000000000000000 DUP2 MSTORE PUSH1 0x4 ADD DUP1 DUP1 PUSH1 0x20 ADD DUP3 DUP2 SUB DUP3 MSTORE PUSH1 0x1F DUP2 MSTORE PUSH1 0x20 ADD DUP1 PUSH32 0x5265656E7472616E637947756172643A207265656E7472616E742063616C6C00 DUP2 MSTORE POP PUSH1 0x20 ADD SWAP2 POP POP PUSH1 0x40 MLOAD DUP1 SWAP2 SUB SWAP1 REVERT JUMPDEST PUSH1 0x2 PUSH1 0x1 DUP2 SWAP1 SSTORE POP PUSH1 0x0 PUSH1 0x9 DUP3 DUP2 SLOAD DUP2 LT PUSH2 0x1BA3 JUMPI INVALID JUMPDEST SWAP1 PUSH1 0x0 MSTORE PUSH1 0x20 PUSH1 0x0 KECCAK256 SWAP1 PUSH1 0x6 MUL ADD SWAP1 POP PUSH1 0x0 PUSH1 0xA PUSH1 0x0 DUP5 DUP2 MSTORE PUSH1 0x20 ADD SWAP1 DUP2 MSTORE PUSH1 0x20 ADD PUSH1 0x0 KECCAK256 PUSH1 0x0 CALLER PUSH20 0xFFFFFFFFFFFFFFFFFFFFFFFFFFFFFFFFFFFFFFFF AND PUSH20 0xFFFFFFFFFFFFFFFFFFFFFFFFFFFFFFFFFFFFFFFF AND DUP2 MSTORE PUSH1 0x20 ADD SWAP1 DUP2 MSTORE PUSH1 0x20 ADD PUSH1 0x0 KECCAK256 SWAP1 POP PUSH2 0x1C5A CALLER DUP3 PUSH1 0x0 ADD SLOAD DUP5 PUSH1 0x0 ADD PUSH1 0x0 SWAP1 SLOAD SWAP1 PUSH2 0x100 EXP SWAP1 DIV PUSH20 0xFFFFFFFFFFFFFFFFFFFFFFFFFFFFFFFFFFFFFFFF AND PUSH20 0xFFFFFFFFFFFFFFFFFFFFFFFFFFFFFFFFFFFFFFFF AND PUSH2 0x3FCC SWAP1 SWAP3 SWAP2 SWAP1 PUSH4 0xFFFFFFFF AND JUMP JUMPDEST DUP3 CALLER PUSH20 0xFFFFFFFFFFFFFFFFFFFFFFFFFFFFFFFFFFFFFFFF AND PUSH32 0xBB757047C2B5F3974FE26B7C10F732E7BCE710B0952A71082702781E62AE0595 DUP4 PUSH1 0x0 ADD SLOAD PUSH1 0x40 MLOAD DUP1 DUP3 DUP2 MSTORE PUSH1 0x20 ADD SWAP2 POP POP PUSH1 0x40 MLOAD DUP1 SWAP2 SUB SWAP1 LOG3 PUSH1 0x0 DUP2 PUSH1 0x0 ADD DUP2 SWAP1 SSTORE POP PUSH1 0x0 DUP2 PUSH1 0x1 ADD DUP2 SWAP1 SSTORE POP PUSH1 0x0 DUP2 PUSH1 0x2 ADD PUSH1 0x0 PUSH2 0x100 EXP DUP2 SLOAD DUP2 PUSH1 0xFF MUL NOT AND SWAP1 DUP4 ISZERO ISZERO MUL OR SWAP1 SSTORE POP POP POP PUSH1 0x1 DUP1 DUP2 SWAP1 SSTORE POP POP JUMP JUMPDEST PUSH1 0x6 SLOAD DUP2 JUMP JUMPDEST PUSH8 0x16345785D8A0000 DUP2 JUMP JUMPDEST PUSH1 0x0 PUSH1 0x9 DUP1 SLOAD SWAP1 POP SWAP1 POP PUSH1 0x0 JUMPDEST DUP2 DUP2 LT ISZERO PUSH2 0x1D25 JUMPI PUSH2 0x1D1A DUP2 PUSH2 0x17A5 JUMP JUMPDEST DUP1 PUSH1 0x1 ADD SWAP1 POP PUSH2 0x1D09 JUMP JUMPDEST POP POP JUMP JUMPDEST PUSH2 0x1D31 PUSH2 0x3981 JUMP JUMPDEST PUSH20 0xFFFFFFFFFFFFFFFFFFFFFFFFFFFFFFFFFFFFFFFF AND PUSH1 0x0 DUP1 SLOAD SWAP1 PUSH2 0x100 EXP SWAP1 DIV PUSH20 0xFFFFFFFFFFFFFFFFFFFFFFFFFFFFFFFFFFFFFFFF AND PUSH20 0xFFFFFFFFFFFFFFFFFFFFFFFFFFFFFFFFFFFFFFFF AND EQ PUSH2 0x1DF1 JUMPI PUSH1 0x40 MLOAD PUSH32 0x8C379A000000000000000000000000000000000000000000000000000000000 DUP2 MSTORE PUSH1 0x4 ADD DUP1 DUP1 PUSH1 0x20 ADD DUP3 DUP2 SUB DUP3 MSTORE PUSH1 0x20 DUP2 MSTORE PUSH1 0x20 ADD DUP1 PUSH32 0x4F776E61626C653A2063616C6C6572206973206E6F7420746865206F776E6572 DUP2 MSTORE POP PUSH1 0x20 ADD SWAP2 POP POP PUSH1 0x40 MLOAD DUP1 SWAP2 SUB SWAP1 REVERT JUMPDEST PUSH2 0x7D0 PUSH2 0xFFFF AND DUP2 GT ISZERO PUSH2 0x1E50 JUMPI PUSH1 0x40 MLOAD PUSH32 0x8C379A000000000000000000000000000000000000000000000000000000000 DUP2 MSTORE PUSH1 0x4 ADD DUP1 DUP1 PUSH1 0x20 ADD DUP3 DUP2 SUB DUP3 MSTORE PUSH1 0x3A DUP2 MSTORE PUSH1 0x20 ADD DUP1 PUSH2 0x4A14 PUSH1 0x3A SWAP2 CODECOPY PUSH1 0x40 ADD SWAP2 POP POP PUSH1 0x40 MLOAD DUP1 SWAP2 SUB SWAP1 REVERT JUMPDEST PUSH1 0xC SLOAD DUP2 EQ ISZERO PUSH2 0x1EAB JUMPI PUSH1 0x40 MLOAD PUSH32 0x8C379A000000000000000000000000000000000000000000000000000000000 DUP2 MSTORE PUSH1 0x4 ADD DUP1 DUP1 PUSH1 0x20 ADD DUP3 DUP2 SUB DUP3 MSTORE PUSH1 0x28 DUP2 MSTORE PUSH1 0x20 ADD DUP1 PUSH2 0x4B4D PUSH1 0x28 SWAP2 CODECOPY PUSH1 0x40 ADD SWAP2 POP POP PUSH1 0x40 MLOAD DUP1 SWAP2 SUB SWAP1 REVERT JUMPDEST PUSH1 0x0 PUSH1 0xC SLOAD SWAP1 POP DUP2 PUSH1 0xC DUP2 SWAP1 SSTORE POP PUSH32 0x3282B692BFEBF5F35B198A229212CF532C72099026AB54C4B8665382D1086B3F DUP2 DUP4 PUSH1 0x40 MLOAD DUP1 DUP4 DUP2 MSTORE PUSH1 0x20 ADD DUP3 DUP2 MSTORE PUSH1 0x20 ADD SWAP3 POP POP POP PUSH1 0x40 MLOAD DUP1 SWAP2 SUB SWAP1 LOG1 POP POP JUMP JUMPDEST PUSH1 0x4 SLOAD DUP2 JUMP JUMPDEST PUSH1 0xC SLOAD DUP2 JUMP JUMPDEST PUSH1 0x11 SLOAD DUP2 JUMP JUMPDEST PUSH2 0x1F16 PUSH2 0x3981 JUMP JUMPDEST PUSH20 0xFFFFFFFFFFFFFFFFFFFFFFFFFFFFFFFFFFFFFFFF AND PUSH1 0x0 DUP1 SLOAD SWAP1 PUSH2 0x100 EXP SWAP1 DIV PUSH20 0xFFFFFFFFFFFFFFFFFFFFFFFFFFFFFFFFFFFFFFFF AND PUSH20 0xFFFFFFFFFFFFFFFFFFFFFFFFFFFFFFFFFFFFFFFF AND EQ PUSH2 0x1FD6 JUMPI PUSH1 0x40 MLOAD PUSH32 0x8C379A000000000000000000000000000000000000000000000000000000000 DUP2 MSTORE PUSH1 0x4 ADD DUP1 DUP1 PUSH1 0x20 ADD DUP3 DUP2 SUB DUP3 MSTORE PUSH1 0x20 DUP2 MSTORE PUSH1 0x20 ADD DUP1 PUSH32 0x4F776E61626C653A2063616C6C6572206973206E6F7420746865206F776E6572 DUP2 MSTORE POP PUSH1 0x20 ADD SWAP2 POP POP PUSH1 0x40 MLOAD DUP1 SWAP2 SUB SWAP1 REVERT JUMPDEST PUSH1 0x0 PUSH20 0xFFFFFFFFFFFFFFFFFFFFFFFFFFFFFFFFFFFFFFFF AND PUSH1 0x0 DUP1 SLOAD SWAP1 PUSH2 0x100 EXP SWAP1 DIV PUSH20 0xFFFFFFFFFFFFFFFFFFFFFFFFFFFFFFFFFFFFFFFF AND PUSH20 0xFFFFFFFFFFFFFFFFFFFFFFFFFFFFFFFFFFFFFFFF AND PUSH32 0x8BE0079C531659141344CD1FD0A4F28419497F9722A3DAAFE3B4186F6B6457E0 PUSH1 0x40 MLOAD PUSH1 0x40 MLOAD DUP1 SWAP2 SUB SWAP1 LOG3 PUSH1 0x0 DUP1 PUSH1 0x0 PUSH2 0x100 EXP DUP2 SLOAD DUP2 PUSH20 0xFFFFFFFFFFFFFFFFFFFFFFFFFFFFFFFFFFFFFFFF MUL NOT AND SWAP1 DUP4 PUSH20 0xFFFFFFFFFFFFFFFFFFFFFFFFFFFFFFFFFFFFFFFF AND MUL OR SWAP1 SSTORE POP JUMP JUMPDEST PUSH2 0x209C PUSH2 0x3981 JUMP JUMPDEST PUSH20 0xFFFFFFFFFFFFFFFFFFFFFFFFFFFFFFFFFFFFFFFF AND PUSH1 0x0 DUP1 SLOAD SWAP1 PUSH2 0x100 EXP SWAP1 DIV PUSH20 0xFFFFFFFFFFFFFFFFFFFFFFFFFFFFFFFFFFFFFFFF AND PUSH20 0xFFFFFFFFFFFFFFFFFFFFFFFFFFFFFFFFFFFFFFFF AND EQ PUSH2 0x215C JUMPI PUSH1 0x40 MLOAD PUSH32 0x8C379A000000000000000000000000000000000000000000000000000000000 DUP2 MSTORE PUSH1 0x4 ADD DUP1 DUP1 PUSH1 0x20 ADD DUP3 DUP2 SUB DUP3 MSTORE PUSH1 0x20 DUP2 MSTORE PUSH1 0x20 ADD DUP1 PUSH32 0x4F776E61626C653A2063616C6C6572206973206E6F7420746865206F776E6572 DUP2 MSTORE POP PUSH1 0x20 ADD SWAP2 POP POP PUSH1 0x40 MLOAD DUP1 SWAP2 SUB SWAP1 REVERT JUMPDEST DUP1 PUSH1 0x12 PUSH1 0x0 PUSH2 0x100 EXP DUP2 SLOAD DUP2 PUSH1 0xFF MUL NOT AND SWAP1 DUP4 ISZERO ISZERO MUL OR SWAP1 SSTORE POP POP JUMP JUMPDEST PUSH1 0x0 PUSH20 0xFFFFFFFFFFFFFFFFFFFFFFFFFFFFFFFFFFFFFFFF AND DUP2 PUSH20 0xFFFFFFFFFFFFFFFFFFFFFFFFFFFFFFFFFFFFFFFF AND EQ ISZERO PUSH2 0x221C JUMPI PUSH1 0x40 MLOAD PUSH32 0x8C379A000000000000000000000000000000000000000000000000000000000 DUP2 MSTORE PUSH1 0x4 ADD DUP1 DUP1 PUSH1 0x20 ADD DUP3 DUP2 SUB DUP3 MSTORE PUSH1 0x1E DUP2 MSTORE PUSH1 0x20 ADD DUP1 PUSH32 0x736574466565416464726573733A20696E76616C696420616464726573730000 DUP2 MSTORE POP PUSH1 0x20 ADD SWAP2 POP POP PUSH1 0x40 MLOAD DUP1 SWAP2 SUB SWAP1 REVERT JUMPDEST PUSH1 0x5 PUSH1 0x0 SWAP1 SLOAD SWAP1 PUSH2 0x100 EXP SWAP1 DIV PUSH20 0xFFFFFFFFFFFFFFFFFFFFFFFFFFFFFFFFFFFFFFFF AND PUSH20 0xFFFFFFFFFFFFFFFFFFFFFFFFFFFFFFFFFFFFFFFF AND CALLER PUSH20 0xFFFFFFFFFFFFFFFFFFFFFFFFFFFFFFFFFFFFFFFF AND EQ PUSH2 0x22DF JUMPI PUSH1 0x40 MLOAD PUSH32 0x8C379A000000000000000000000000000000000000000000000000000000000 DUP2 MSTORE PUSH1 0x4 ADD DUP1 DUP1 PUSH1 0x20 ADD DUP3 DUP2 SUB DUP3 MSTORE PUSH1 0x18 DUP2 MSTORE PUSH1 0x20 ADD DUP1 PUSH32 0x736574466565416464726573733A20464F5242494444454E0000000000000000 DUP2 MSTORE POP PUSH1 0x20 ADD SWAP2 POP POP PUSH1 0x40 MLOAD DUP1 SWAP2 SUB SWAP1 REVERT JUMPDEST DUP1 PUSH1 0x5 PUSH1 0x0 PUSH2 0x100 EXP DUP2 SLOAD DUP2 PUSH20 0xFFFFFFFFFFFFFFFFFFFFFFFFFFFFFFFFFFFFFFFF MUL NOT AND SWAP1 DUP4 PUSH20 0xFFFFFFFFFFFFFFFFFFFFFFFFFFFFFFFFFFFFFFFF AND MUL OR SWAP1 SSTORE POP DUP1 PUSH20 0xFFFFFFFFFFFFFFFFFFFFFFFFFFFFFFFFFFFFFFFF AND CALLER PUSH20 0xFFFFFFFFFFFFFFFFFFFFFFFFFFFFFFFFFFFFFFFF AND PUSH32 0xD44190ACF9D04BDB5D3A1AAFFF7E6DEE8B40B93DFB8C5D3F0EEA4B9F4539C3F7 PUSH1 0x40 MLOAD PUSH1 0x40 MLOAD DUP1 SWAP2 SUB SWAP1 LOG3 POP JUMP JUMPDEST PUSH1 0x0 DUP1 PUSH1 0x0 SWAP1 SLOAD SWAP1 PUSH2 0x100 EXP SWAP1 DIV PUSH20 0xFFFFFFFFFFFFFFFFFFFFFFFFFFFFFFFFFFFFFFFF AND SWAP1 POP SWAP1 JUMP JUMPDEST PUSH1 0x0 PUSH2 0x23BB DUP4 DUP4 PUSH2 0x3AE1 SWAP1 SWAP2 SWAP1 PUSH4 0xFFFFFFFF AND JUMP JUMPDEST SWAP1 POP SWAP3 SWAP2 POP POP JUMP JUMPDEST PUSH1 0x2 PUSH1 0x1 SLOAD EQ ISZERO PUSH2 0x243C JUMPI PUSH1 0x40 MLOAD PUSH32 0x8C379A000000000000000000000000000000000000000000000000000000000 DUP2 MSTORE PUSH1 0x4 ADD DUP1 DUP1 PUSH1 0x20 ADD DUP3 DUP2 SUB DUP3 MSTORE PUSH1 0x1F DUP2 MSTORE PUSH1 0x20 ADD DUP1 PUSH32 0x5265656E7472616E637947756172643A207265656E7472616E742063616C6C00 DUP2 MSTORE POP PUSH1 0x20 ADD SWAP2 POP POP PUSH1 0x40 MLOAD DUP1 SWAP2 SUB SWAP1 REVERT JUMPDEST PUSH1 0x2 PUSH1 0x1 DUP2 SWAP1 SSTORE POP DUP1 PUSH20 0xFFFFFFFFFFFFFFFFFFFFFFFFFFFFFFFFFFFFFFFF AND DUP2 PUSH20 0xFFFFFFFFFFFFFFFFFFFFFFFFFFFFFFFFFFFFFFFF AND EQ PUSH2 0x24C8 JUMPI PUSH1 0x40 MLOAD PUSH32 0x8C379A000000000000000000000000000000000000000000000000000000000 DUP2 MSTORE PUSH1 0x4 ADD DUP1 DUP1 PUSH1 0x20 ADD DUP3 DUP2 SUB DUP3 MSTORE PUSH1 0x21 DUP2 MSTORE PUSH1 0x20 ADD DUP1 PUSH2 0x4AC0 PUSH1 0x21 SWAP2 CODECOPY PUSH1 0x40 ADD SWAP2 POP POP PUSH1 0x40 MLOAD DUP1 SWAP2 SUB SWAP1 REVERT JUMPDEST PUSH1 0x0 PUSH1 0x9 DUP5 DUP2 SLOAD DUP2 LT PUSH2 0x24D7 JUMPI INVALID JUMPDEST SWAP1 PUSH1 0x0 MSTORE PUSH1 0x20 PUSH1 0x0 KECCAK256 SWAP1 PUSH1 0x6 MUL ADD SWAP1 POP PUSH1 0x0 PUSH1 0xA PUSH1 0x0 DUP7 DUP2 MSTORE PUSH1 0x20 ADD SWAP1 DUP2 MSTORE PUSH1 0x20 ADD PUSH1 0x0 KECCAK256 PUSH1 0x0 CALLER PUSH20 0xFFFFFFFFFFFFFFFFFFFFFFFFFFFFFFFFFFFFFFFF AND PUSH20 0xFFFFFFFFFFFFFFFFFFFFFFFFFFFFFFFFFFFFFFFF AND DUP2 MSTORE PUSH1 0x20 ADD SWAP1 DUP2 MSTORE PUSH1 0x20 ADD PUSH1 0x0 KECCAK256 SWAP1 POP PUSH2 0x2544 DUP6 PUSH2 0x17A5 JUMP JUMPDEST PUSH1 0x0 DUP2 PUSH1 0x0 ADD SLOAD GT ISZERO PUSH2 0x260E JUMPI PUSH1 0x0 PUSH2 0x259B DUP3 PUSH1 0x1 ADD SLOAD PUSH2 0x258D PUSH5 0xE8D4A51000 PUSH2 0x257F DUP8 PUSH1 0x4 ADD SLOAD DUP8 PUSH1 0x0 ADD SLOAD PUSH2 0x3A11 SWAP1 SWAP2 SWAP1 PUSH4 0xFFFFFFFF AND JUMP JUMPDEST PUSH2 0x3A97 SWAP1 SWAP2 SWAP1 PUSH4 0xFFFFFFFF AND JUMP JUMPDEST PUSH2 0x3AE1 SWAP1 SWAP2 SWAP1 PUSH4 0xFFFFFFFF AND JUMP JUMPDEST SWAP1 POP PUSH1 0x0 PUSH2 0x25A8 DUP8 PUSH2 0x2B0A JUMP JUMPDEST SWAP1 POP DUP1 DUP1 ISZERO PUSH2 0x25B7 JUMPI POP PUSH1 0x0 DUP3 GT JUMPDEST ISZERO PUSH2 0x260B JUMPI PUSH2 0x25C6 CALLER DUP4 PUSH2 0x3B2B JUMP JUMPDEST PUSH2 0x25D0 CALLER DUP4 PUSH2 0x3DFF JUMP JUMPDEST PUSH2 0x2602 PUSH5 0xE8D4A51000 PUSH2 0x25F4 DUP7 PUSH1 0x4 ADD SLOAD DUP7 PUSH1 0x0 ADD SLOAD PUSH2 0x3A11 SWAP1 SWAP2 SWAP1 PUSH4 0xFFFFFFFF AND JUMP JUMPDEST PUSH2 0x3A97 SWAP1 SWAP2 SWAP1 PUSH4 0xFFFFFFFF AND JUMP JUMPDEST DUP4 PUSH1 0x1 ADD DUP2 SWAP1 SSTORE POP JUMPDEST POP POP JUMPDEST PUSH1 0x0 DUP5 GT ISZERO PUSH2 0x279B JUMPI PUSH2 0x2621 CALLER DUP5 PUSH2 0x406E JUMP JUMPDEST PUSH2 0x2672 CALLER ADDRESS DUP7 DUP6 PUSH1 0x0 ADD PUSH1 0x0 SWAP1 SLOAD SWAP1 PUSH2 0x100 EXP SWAP1 DIV PUSH20 0xFFFFFFFFFFFFFFFFFFFFFFFFFFFFFFFFFFFFFFFF AND PUSH20 0xFFFFFFFFFFFFFFFFFFFFFFFFFFFFFFFFFFFFFFFF AND PUSH2 0x42D5 SWAP1 SWAP4 SWAP3 SWAP2 SWAP1 PUSH4 0xFFFFFFFF AND JUMP JUMPDEST PUSH1 0x0 DUP3 PUSH1 0x5 ADD PUSH1 0x0 SWAP1 SLOAD SWAP1 PUSH2 0x100 EXP SWAP1 DIV PUSH2 0xFFFF AND PUSH2 0xFFFF AND GT ISZERO PUSH2 0x277A JUMPI PUSH1 0x0 PUSH2 0x26D0 PUSH2 0x2710 PUSH2 0x26C2 DUP6 PUSH1 0x5 ADD PUSH1 0x0 SWAP1 SLOAD SWAP1 PUSH2 0x100 EXP SWAP1 DIV PUSH2 0xFFFF AND PUSH2 0xFFFF AND DUP9 PUSH2 0x3A11 SWAP1 SWAP2 SWAP1 PUSH4 0xFFFFFFFF AND JUMP JUMPDEST PUSH2 0x3A97 SWAP1 SWAP2 SWAP1 PUSH4 0xFFFFFFFF AND JUMP JUMPDEST SWAP1 POP PUSH2 0x26FB DUP2 PUSH2 0x26ED DUP8 DUP6 PUSH1 0x0 ADD SLOAD PUSH2 0x3989 SWAP1 SWAP2 SWAP1 PUSH4 0xFFFFFFFF AND JUMP JUMPDEST PUSH2 0x3AE1 SWAP1 SWAP2 SWAP1 PUSH4 0xFFFFFFFF AND JUMP JUMPDEST DUP3 PUSH1 0x0 ADD DUP2 SWAP1 SSTORE POP PUSH2 0x2774 PUSH1 0x5 PUSH1 0x0 SWAP1 SLOAD SWAP1 PUSH2 0x100 EXP SWAP1 DIV PUSH20 0xFFFFFFFFFFFFFFFFFFFFFFFFFFFFFFFFFFFFFFFF AND DUP3 DUP6 PUSH1 0x0 ADD PUSH1 0x0 SWAP1 SLOAD SWAP1 PUSH2 0x100 EXP SWAP1 DIV PUSH20 0xFFFFFFFFFFFFFFFFFFFFFFFFFFFFFFFFFFFFFFFF AND PUSH20 0xFFFFFFFFFFFFFFFFFFFFFFFFFFFFFFFFFFFFFFFF AND PUSH2 0x3FCC SWAP1 SWAP3 SWAP2 SWAP1 PUSH4 0xFFFFFFFF AND JUMP JUMPDEST POP PUSH2 0x279A JUMP JUMPDEST PUSH2 0x2791 DUP5 DUP3 PUSH1 0x0 ADD SLOAD PUSH2 0x3989 SWAP1 SWAP2 SWAP1 PUSH4 0xFFFFFFFF AND JUMP JUMPDEST DUP2 PUSH1 0x0 ADD DUP2 SWAP1 SSTORE POP JUMPDEST JUMPDEST DUP1 PUSH1 0x2 ADD PUSH1 0x0 SWAP1 SLOAD SWAP1 PUSH2 0x100 EXP SWAP1 DIV PUSH1 0xFF AND PUSH2 0x2809 JUMPI PUSH2 0x27E3 PUSH5 0xE8D4A51000 PUSH2 0x27D5 DUP5 PUSH1 0x4 ADD SLOAD DUP5 PUSH1 0x0 ADD SLOAD PUSH2 0x3A11 SWAP1 SWAP2 SWAP1 PUSH4 0xFFFFFFFF AND JUMP JUMPDEST PUSH2 0x3A97 SWAP1 SWAP2 SWAP1 PUSH4 0xFFFFFFFF AND JUMP JUMPDEST DUP2 PUSH1 0x1 ADD DUP2 SWAP1 SSTORE POP PUSH1 0x1 DUP2 PUSH1 0x2 ADD PUSH1 0x0 PUSH2 0x100 EXP DUP2 SLOAD DUP2 PUSH1 0xFF MUL NOT AND SWAP1 DUP4 ISZERO ISZERO MUL OR SWAP1 SSTORE POP JUMPDEST DUP5 CALLER PUSH20 0xFFFFFFFFFFFFFFFFFFFFFFFFFFFFFFFFFFFFFFFF AND PUSH32 0x90890809C654F11D6E72A28FA60149770A0D11EC6C92319D6CEB2BB0A4EA1A15 DUP7 PUSH1 0x40 MLOAD DUP1 DUP3 DUP2 MSTORE PUSH1 0x20 ADD SWAP2 POP POP PUSH1 0x40 MLOAD DUP1 SWAP2 SUB SWAP1 LOG3 POP POP PUSH1 0x1 DUP1 DUP2 SWAP1 SSTORE POP POP POP POP JUMP JUMPDEST PUSH8 0x6F05B59D3B20000 DUP2 JUMP JUMPDEST PUSH1 0xA PUSH1 0x20 MSTORE DUP2 PUSH1 0x0 MSTORE PUSH1 0x40 PUSH1 0x0 KECCAK256 PUSH1 0x20 MSTORE DUP1 PUSH1 0x0 MSTORE PUSH1 0x40 PUSH1 0x0 KECCAK256 PUSH1 0x0 SWAP2 POP SWAP2 POP POP DUP1 PUSH1 0x0 ADD SLOAD SWAP1 DUP1 PUSH1 0x1 ADD SLOAD SWAP1 DUP1 PUSH1 0x2 ADD PUSH1 0x0 SWAP1 SLOAD SWAP1 PUSH2 0x100 EXP SWAP1 DIV PUSH1 0xFF AND SWAP1 POP DUP4 JUMP JUMPDEST PUSH2 0x3E8 DUP2 JUMP JUMPDEST PUSH1 0x10 PUSH1 0x20 MSTORE DUP1 PUSH1 0x0 MSTORE PUSH1 0x40 PUSH1 0x0 KECCAK256 PUSH1 0x0 SWAP2 POP SWAP1 POP SLOAD DUP2 JUMP JUMPDEST PUSH1 0x7 SLOAD DUP2 JUMP JUMPDEST PUSH2 0x28E2 PUSH2 0x3981 JUMP JUMPDEST PUSH20 0xFFFFFFFFFFFFFFFFFFFFFFFFFFFFFFFFFFFFFFFF AND PUSH1 0x0 DUP1 SLOAD SWAP1 PUSH2 0x100 EXP SWAP1 DIV PUSH20 0xFFFFFFFFFFFFFFFFFFFFFFFFFFFFFFFFFFFFFFFF AND PUSH20 0xFFFFFFFFFFFFFFFFFFFFFFFFFFFFFFFFFFFFFFFF AND EQ PUSH2 0x29A2 JUMPI PUSH1 0x40 MLOAD PUSH32 0x8C379A000000000000000000000000000000000000000000000000000000000 DUP2 MSTORE PUSH1 0x4 ADD DUP1 DUP1 PUSH1 0x20 ADD DUP3 DUP2 SUB DUP3 MSTORE PUSH1 0x20 DUP2 MSTORE PUSH1 0x20 ADD DUP1 PUSH32 0x4F776E61626C653A2063616C6C6572206973206E6F7420746865206F776E6572 DUP2 MSTORE POP PUSH1 0x20 ADD SWAP2 POP POP PUSH1 0x40 MLOAD DUP1 SWAP2 SUB SWAP1 REVERT JUMPDEST PUSH1 0x0 PUSH1 0x4 SLOAD SWAP1 POP DUP2 PUSH1 0x4 DUP2 SWAP1 SSTORE POP PUSH2 0x29B8 PUSH2 0x1CFC JUMP JUMPDEST CALLER PUSH20 0xFFFFFFFFFFFFFFFFFFFFFFFFFFFFFFFFFFFFFFFF AND PUSH32 0xEEDC6338C9C1AD8F3CD6C90DD09DBE98DBD57E610D3E59A17996D07ACB0D9511 DUP3 DUP5 PUSH1 0x40 MLOAD DUP1 DUP4 DUP2 MSTORE PUSH1 0x20 ADD DUP3 DUP2 MSTORE PUSH1 0x20 ADD SWAP3 POP POP POP PUSH1 0x40 MLOAD DUP1 SWAP2 SUB SWAP1 LOG2 POP POP JUMP JUMPDEST PUSH1 0x2 PUSH1 0x0 SWAP1 SLOAD SWAP1 PUSH2 0x100 EXP SWAP1 DIV PUSH20 0xFFFFFFFFFFFFFFFFFFFFFFFFFFFFFFFFFFFFFFFF AND DUP2 JUMP JUMPDEST PUSH2 0x2A40 PUSH2 0x3981 JUMP JUMPDEST PUSH20 0xFFFFFFFFFFFFFFFFFFFFFFFFFFFFFFFFFFFFFFFF AND PUSH1 0x0 DUP1 SLOAD SWAP1 PUSH2 0x100 EXP SWAP1 DIV PUSH20 0xFFFFFFFFFFFFFFFFFFFFFFFFFFFFFFFFFFFFFFFF AND PUSH20 0xFFFFFFFFFFFFFFFFFFFFFFFFFFFFFFFFFFFFFFFF AND EQ PUSH2 0x2B00 JUMPI PUSH1 0x40 MLOAD PUSH32 0x8C379A000000000000000000000000000000000000000000000000000000000 DUP2 MSTORE PUSH1 0x4 ADD DUP1 DUP1 PUSH1 0x20 ADD DUP3 DUP2 SUB DUP3 MSTORE PUSH1 0x20 DUP2 MSTORE PUSH1 0x20 ADD DUP1 PUSH32 0x4F776E61626C653A2063616C6C6572206973206E6F7420746865206F776E6572 DUP2 MSTORE POP PUSH1 0x20 ADD SWAP2 POP POP PUSH1 0x40 MLOAD DUP1 SWAP2 SUB SWAP1 REVERT JUMPDEST DUP1 PUSH1 0x7 DUP2 SWAP1 SSTORE POP POP JUMP JUMPDEST PUSH1 0x0 DUP1 PUSH1 0x9 DUP4 DUP2 SLOAD DUP2 LT PUSH2 0x2B1A JUMPI INVALID JUMPDEST SWAP1 PUSH1 0x0 MSTORE PUSH1 0x20 PUSH1 0x0 KECCAK256 SWAP1 PUSH1 0x6 MUL ADD SWAP1 POP NUMBER DUP2 PUSH1 0x2 ADD SLOAD GT ISZERO SWAP2 POP POP SWAP2 SWAP1 POP JUMP JUMPDEST PUSH2 0x5DC DUP2 JUMP JUMPDEST PUSH2 0x2B48 PUSH2 0x3981 JUMP JUMPDEST PUSH20 0xFFFFFFFFFFFFFFFFFFFFFFFFFFFFFFFFFFFFFFFF AND PUSH1 0x0 DUP1 SLOAD SWAP1 PUSH2 0x100 EXP SWAP1 DIV PUSH20 0xFFFFFFFFFFFFFFFFFFFFFFFFFFFFFFFFFFFFFFFF AND PUSH20 0xFFFFFFFFFFFFFFFFFFFFFFFFFFFFFFFFFFFFFFFF AND EQ PUSH2 0x2C08 JUMPI PUSH1 0x40 MLOAD PUSH32 0x8C379A000000000000000000000000000000000000000000000000000000000 DUP2 MSTORE PUSH1 0x4 ADD DUP1 DUP1 PUSH1 0x20 ADD DUP3 DUP2 SUB DUP3 MSTORE PUSH1 0x20 DUP2 MSTORE PUSH1 0x20 ADD DUP1 PUSH32 0x4F776E61626C653A2063616C6C6572206973206E6F7420746865206F776E6572 DUP2 MSTORE POP PUSH1 0x20 ADD SWAP2 POP POP PUSH1 0x40 MLOAD DUP1 SWAP2 SUB SWAP1 REVERT JUMPDEST PUSH2 0x3E8 PUSH2 0xFFFF AND DUP4 PUSH2 0xFFFF AND GT ISZERO PUSH2 0x2C6B JUMPI PUSH1 0x40 MLOAD PUSH32 0x8C379A000000000000000000000000000000000000000000000000000000000 DUP2 MSTORE PUSH1 0x4 ADD DUP1 DUP1 PUSH1 0x20 ADD DUP3 DUP2 SUB DUP3 MSTORE PUSH1 0x25 DUP2 MSTORE PUSH1 0x20 ADD DUP1 PUSH2 0x4B28 PUSH1 0x25 SWAP2 CODECOPY PUSH1 0x40 ADD SWAP2 POP POP PUSH1 0x40 MLOAD DUP1 SWAP2 SUB SWAP1 REVERT JUMPDEST DUP2 ISZERO PUSH2 0x2C7A JUMPI PUSH2 0x2C79 PUSH2 0x1CFC JUMP JUMPDEST JUMPDEST PUSH1 0x0 DUP1 DUP3 GT PUSH2 0x2C8B JUMPI PUSH1 0x7 SLOAD PUSH2 0x2C8D JUMP JUMPDEST DUP2 JUMPDEST SWAP1 POP PUSH2 0x2CD4 DUP6 PUSH2 0x2CC6 PUSH1 0x9 DUP10 DUP2 SLOAD DUP2 LT PUSH2 0x2CA3 JUMPI INVALID JUMPDEST SWAP1 PUSH1 0x0 MSTORE PUSH1 0x20 PUSH1 0x0 KECCAK256 SWAP1 PUSH1 0x6 MUL ADD PUSH1 0x1 ADD SLOAD PUSH1 0xB SLOAD PUSH2 0x3AE1 SWAP1 SWAP2 SWAP1 PUSH4 0xFFFFFFFF AND JUMP JUMPDEST PUSH2 0x3989 SWAP1 SWAP2 SWAP1 PUSH4 0xFFFFFFFF AND JUMP JUMPDEST PUSH1 0xB DUP2 SWAP1 SSTORE POP DUP5 PUSH1 0x9 DUP8 DUP2 SLOAD DUP2 LT PUSH2 0x2CE8 JUMPI INVALID JUMPDEST SWAP1 PUSH1 0x0 MSTORE PUSH1 0x20 PUSH1 0x0 KECCAK256 SWAP1 PUSH1 0x6 MUL ADD PUSH1 0x1 ADD DUP2 SWAP1 SSTORE POP DUP4 PUSH1 0x9 DUP8 DUP2 SLOAD DUP2 LT PUSH2 0x2D0B JUMPI INVALID JUMPDEST SWAP1 PUSH1 0x0 MSTORE PUSH1 0x20 PUSH1 0x0 KECCAK256 SWAP1 PUSH1 0x6 MUL ADD PUSH1 0x5 ADD PUSH1 0x0 PUSH2 0x100 EXP DUP2 SLOAD DUP2 PUSH2 0xFFFF MUL NOT AND SWAP1 DUP4 PUSH2 0xFFFF AND MUL OR SWAP1 SSTORE POP DUP1 PUSH1 0x9 DUP8 DUP2 SLOAD DUP2 LT PUSH2 0x2D44 JUMPI INVALID JUMPDEST SWAP1 PUSH1 0x0 MSTORE PUSH1 0x20 PUSH1 0x0 KECCAK256 SWAP1 PUSH1 0x6 MUL ADD PUSH1 0x2 ADD DUP2 SWAP1 SSTORE POP POP POP POP POP POP POP JUMP JUMPDEST PUSH1 0xF PUSH1 0x20 MSTORE DUP1 PUSH1 0x0 MSTORE PUSH1 0x40 PUSH1 0x0 KECCAK256 PUSH1 0x0 SWAP2 POP SLOAD SWAP1 PUSH2 0x100 EXP SWAP1 DIV PUSH1 0xFF AND DUP2 JUMP JUMPDEST PUSH1 0x0 PUSH20 0xFFFFFFFFFFFFFFFFFFFFFFFFFFFFFFFFFFFFFFFF AND DUP2 PUSH20 0xFFFFFFFFFFFFFFFFFFFFFFFFFFFFFFFFFFFFFFFF AND EQ ISZERO PUSH2 0x2E24 JUMPI PUSH1 0x40 MLOAD PUSH32 0x8C379A000000000000000000000000000000000000000000000000000000000 DUP2 MSTORE PUSH1 0x4 ADD DUP1 DUP1 PUSH1 0x20 ADD DUP3 DUP2 SUB DUP3 MSTORE PUSH1 0x14 DUP2 MSTORE PUSH1 0x20 ADD DUP1 PUSH32 0x6465763A20696E76616C69642061646472657373000000000000000000000000 DUP2 MSTORE POP PUSH1 0x20 ADD SWAP2 POP POP PUSH1 0x40 MLOAD DUP1 SWAP2 SUB SWAP1 REVERT JUMPDEST PUSH1 0x3 PUSH1 0x0 SWAP1 SLOAD SWAP1 PUSH2 0x100 EXP SWAP1 DIV PUSH20 0xFFFFFFFFFFFFFFFFFFFFFFFFFFFFFFFFFFFFFFFF AND PUSH20 0xFFFFFFFFFFFFFFFFFFFFFFFFFFFFFFFFFFFFFFFF AND CALLER PUSH20 0xFFFFFFFFFFFFFFFFFFFFFFFFFFFFFFFFFFFFFFFF AND EQ PUSH2 0x2EE7 JUMPI PUSH1 0x40 MLOAD PUSH32 0x8C379A000000000000000000000000000000000000000000000000000000000 DUP2 MSTORE PUSH1 0x4 ADD DUP1 DUP1 PUSH1 0x20 ADD DUP3 DUP2 SUB DUP3 MSTORE PUSH1 0x9 DUP2 MSTORE PUSH1 0x20 ADD DUP1 PUSH32 0x6465763A207775743F0000000000000000000000000000000000000000000000 DUP2 MSTORE POP PUSH1 0x20 ADD SWAP2 POP POP PUSH1 0x40 MLOAD DUP1 SWAP2 SUB SWAP1 REVERT JUMPDEST DUP1 PUSH1 0x3 PUSH1 0x0 PUSH2 0x100 EXP DUP2 SLOAD DUP2 PUSH20 0xFFFFFFFFFFFFFFFFFFFFFFFFFFFFFFFFFFFFFFFF MUL NOT AND SWAP1 DUP4 PUSH20 0xFFFFFFFFFFFFFFFFFFFFFFFFFFFFFFFFFFFFFFFF AND MUL OR SWAP1 SSTORE POP DUP1 PUSH20 0xFFFFFFFFFFFFFFFFFFFFFFFFFFFFFFFFFFFFFFFF AND CALLER PUSH20 0xFFFFFFFFFFFFFFFFFFFFFFFFFFFFFFFFFFFFFFFF AND PUSH32 0x618C54559E94F1499A808AAD71EE8729F8E74E8C48E979616328CE493A1A52E7 PUSH1 0x40 MLOAD PUSH1 0x40 MLOAD DUP1 SWAP2 SUB SWAP1 LOG3 POP JUMP JUMPDEST PUSH2 0x7080 DUP2 JUMP JUMPDEST PUSH1 0x3 PUSH1 0x0 SWAP1 SLOAD SWAP1 PUSH2 0x100 EXP SWAP1 DIV PUSH20 0xFFFFFFFFFFFFFFFFFFFFFFFFFFFFFFFFFFFFFFFF AND DUP2 JUMP JUMPDEST PUSH1 0x0 DUP1 PUSH1 0x9 DUP5 DUP2 SLOAD DUP2 LT PUSH2 0x2FC1 JUMPI INVALID JUMPDEST SWAP1 PUSH1 0x0 MSTORE PUSH1 0x20 PUSH1 0x0 KECCAK256 SWAP1 PUSH1 0x6 MUL ADD SWAP1 POP PUSH1 0x0 PUSH1 0xA PUSH1 0x0 DUP7 DUP2 MSTORE PUSH1 0x20 ADD SWAP1 DUP2 MSTORE PUSH1 0x20 ADD PUSH1 0x0 KECCAK256 PUSH1 0x0 DUP6 PUSH20 0xFFFFFFFFFFFFFFFFFFFFFFFFFFFFFFFFFFFFFFFF AND PUSH20 0xFFFFFFFFFFFFFFFFFFFFFFFFFFFFFFFFFFFFFFFF AND DUP2 MSTORE PUSH1 0x20 ADD SWAP1 DUP2 MSTORE PUSH1 0x20 ADD PUSH1 0x0 KECCAK256 SWAP1 POP PUSH1 0x0 DUP3 PUSH1 0x4 ADD SLOAD SWAP1 POP PUSH1 0x0 DUP4 PUSH1 0x0 ADD PUSH1 0x0 SWAP1 SLOAD SWAP1 PUSH2 0x100 EXP SWAP1 DIV PUSH20 0xFFFFFFFFFFFFFFFFFFFFFFFFFFFFFFFFFFFFFFFF AND PUSH20 0xFFFFFFFFFFFFFFFFFFFFFFFFFFFFFFFFFFFFFFFF AND PUSH4 0x70A08231 ADDRESS PUSH1 0x40 MLOAD DUP3 PUSH4 0xFFFFFFFF AND PUSH1 0xE0 SHL DUP2 MSTORE PUSH1 0x4 ADD DUP1 DUP3 PUSH20 0xFFFFFFFFFFFFFFFFFFFFFFFFFFFFFFFFFFFFFFFF AND DUP2 MSTORE PUSH1 0x20 ADD SWAP2 POP POP PUSH1 0x20 PUSH1 0x40 MLOAD DUP1 DUP4 SUB DUP2 DUP7 DUP1 EXTCODESIZE ISZERO DUP1 ISZERO PUSH2 0x30BB JUMPI PUSH1 0x0 DUP1 REVERT JUMPDEST POP GAS STATICCALL ISZERO DUP1 ISZERO PUSH2 0x30CF JUMPI RETURNDATASIZE PUSH1 0x0 DUP1 RETURNDATACOPY RETURNDATASIZE PUSH1 0x0 REVERT JUMPDEST POP POP POP POP PUSH1 0x40 MLOAD RETURNDATASIZE PUSH1 0x20 DUP2 LT ISZERO PUSH2 0x30E5 JUMPI PUSH1 0x0 DUP1 REVERT JUMPDEST DUP2 ADD SWAP1 DUP1 DUP1 MLOAD SWAP1 PUSH1 0x20 ADD SWAP1 SWAP3 SWAP2 SWAP1 POP POP POP SWAP1 POP PUSH2 0x3101 DUP8 PUSH2 0x386B JUMP JUMPDEST DUP1 ISZERO PUSH2 0x3110 JUMPI POP DUP4 PUSH1 0x3 ADD SLOAD NUMBER GT JUMPDEST DUP1 ISZERO PUSH2 0x311D JUMPI POP PUSH1 0x0 DUP2 EQ ISZERO JUMPDEST ISZERO PUSH2 0x31B8 JUMPI PUSH1 0x0 PUSH2 0x3132 DUP6 PUSH1 0x3 ADD SLOAD NUMBER PUSH2 0x23A6 JUMP JUMPDEST SWAP1 POP PUSH1 0x0 PUSH2 0x3175 PUSH1 0xB SLOAD PUSH2 0x3167 DUP9 PUSH1 0x1 ADD SLOAD PUSH2 0x3159 PUSH1 0x4 SLOAD DUP8 PUSH2 0x3A11 SWAP1 SWAP2 SWAP1 PUSH4 0xFFFFFFFF AND JUMP JUMPDEST PUSH2 0x3A11 SWAP1 SWAP2 SWAP1 PUSH4 0xFFFFFFFF AND JUMP JUMPDEST PUSH2 0x3A97 SWAP1 SWAP2 SWAP1 PUSH4 0xFFFFFFFF AND JUMP JUMPDEST SWAP1 POP PUSH2 0x31B3 PUSH2 0x31A4 DUP5 PUSH2 0x3196 PUSH5 0xE8D4A51000 DUP6 PUSH2 0x3A11 SWAP1 SWAP2 SWAP1 PUSH4 0xFFFFFFFF AND JUMP JUMPDEST PUSH2 0x3A97 SWAP1 SWAP2 SWAP1 PUSH4 0xFFFFFFFF AND JUMP JUMPDEST DUP6 PUSH2 0x3989 SWAP1 SWAP2 SWAP1 PUSH4 0xFFFFFFFF AND JUMP JUMPDEST SWAP4 POP POP POP JUMPDEST PUSH2 0x31FC DUP4 PUSH1 0x1 ADD SLOAD PUSH2 0x31EE PUSH5 0xE8D4A51000 PUSH2 0x31E0 DUP7 DUP9 PUSH1 0x0 ADD SLOAD PUSH2 0x3A11 SWAP1 SWAP2 SWAP1 PUSH4 0xFFFFFFFF AND JUMP JUMPDEST PUSH2 0x3A97 SWAP1 SWAP2 SWAP1 PUSH4 0xFFFFFFFF AND JUMP JUMPDEST PUSH2 0x3AE1 SWAP1 SWAP2 SWAP1 PUSH4 0xFFFFFFFF AND JUMP JUMPDEST SWAP5 POP POP POP POP POP SWAP3 SWAP2 POP POP JUMP JUMPDEST PUSH1 0x2 PUSH1 0x1 SLOAD EQ ISZERO PUSH2 0x3281 JUMPI PUSH1 0x40 MLOAD PUSH32 0x8C379A000000000000000000000000000000000000000000000000000000000 DUP2 MSTORE PUSH1 0x4 ADD DUP1 DUP1 PUSH1 0x20 ADD DUP3 DUP2 SUB DUP3 MSTORE PUSH1 0x1F DUP2 MSTORE PUSH1 0x20 ADD DUP1 PUSH32 0x5265656E7472616E637947756172643A207265656E7472616E742063616C6C00 DUP2 MSTORE POP PUSH1 0x20 ADD SWAP2 POP POP PUSH1 0x40 MLOAD DUP1 SWAP2 SUB SWAP1 REVERT JUMPDEST PUSH1 0x2 PUSH1 0x1 DUP2 SWAP1 SSTORE POP PUSH1 0x0 PUSH1 0x9 DUP4 DUP2 SLOAD DUP2 LT PUSH2 0x3298 JUMPI INVALID JUMPDEST SWAP1 PUSH1 0x0 MSTORE PUSH1 0x20 PUSH1 0x0 KECCAK256 SWAP1 PUSH1 0x6 MUL ADD SWAP1 POP PUSH1 0x0 PUSH1 0xA PUSH1 0x0 DUP6 DUP2 MSTORE PUSH1 0x20 ADD SWAP1 DUP2 MSTORE PUSH1 0x20 ADD PUSH1 0x0 KECCAK256 PUSH1 0x0 CALLER PUSH20 0xFFFFFFFFFFFFFFFFFFFFFFFFFFFFFFFFFFFFFFFF AND PUSH20 0xFFFFFFFFFFFFFFFFFFFFFFFFFFFFFFFFFFFFFFFF AND DUP2 MSTORE PUSH1 0x20 ADD SWAP1 DUP2 MSTORE PUSH1 0x20 ADD PUSH1 0x0 KECCAK256 SWAP1 POP PUSH2 0x3305 DUP5 PUSH2 0x17A5 JUMP JUMPDEST PUSH1 0x0 DUP2 PUSH1 0x0 ADD SLOAD GT ISZERO PUSH2 0x33C5 JUMPI PUSH1 0x0 PUSH2 0x335C DUP3 PUSH1 0x1 ADD SLOAD PUSH2 0x334E PUSH5 0xE8D4A51000 PUSH2 0x3340 DUP8 PUSH1 0x4 ADD SLOAD DUP8 PUSH1 0x0 ADD SLOAD PUSH2 0x3A11 SWAP1 SWAP2 SWAP1 PUSH4 0xFFFFFFFF AND JUMP JUMPDEST PUSH2 0x3A97 SWAP1 SWAP2 SWAP1 PUSH4 0xFFFFFFFF AND JUMP JUMPDEST PUSH2 0x3AE1 SWAP1 SWAP2 SWAP1 PUSH4 0xFFFFFFFF AND JUMP JUMPDEST SWAP1 POP PUSH1 0x0 PUSH2 0x3369 DUP7 PUSH2 0x2B0A JUMP JUMPDEST SWAP1 POP DUP1 DUP1 ISZERO PUSH2 0x3378 JUMPI POP PUSH1 0x0 DUP3 GT JUMPDEST ISZERO PUSH2 0x33C2 JUMPI PUSH2 0x3387 CALLER DUP4 PUSH2 0x3B2B JUMP JUMPDEST PUSH2 0x33B9 PUSH5 0xE8D4A51000 PUSH2 0x33AB DUP7 PUSH1 0x4 ADD SLOAD DUP7 PUSH1 0x0 ADD SLOAD PUSH2 0x3A11 SWAP1 SWAP2 SWAP1 PUSH4 0xFFFFFFFF AND JUMP JUMPDEST PUSH2 0x3A97 SWAP1 SWAP2 SWAP1 PUSH4 0xFFFFFFFF AND JUMP JUMPDEST DUP4 PUSH1 0x1 ADD DUP2 SWAP1 SSTORE POP JUMPDEST POP POP JUMPDEST PUSH1 0x0 DUP4 GT ISZERO PUSH2 0x3548 JUMPI PUSH2 0x341F CALLER ADDRESS DUP6 DUP6 PUSH1 0x0 ADD PUSH1 0x0 SWAP1 SLOAD SWAP1 PUSH2 0x100 EXP SWAP1 DIV PUSH20 0xFFFFFFFFFFFFFFFFFFFFFFFFFFFFFFFFFFFFFFFF AND PUSH20 0xFFFFFFFFFFFFFFFFFFFFFFFFFFFFFFFFFFFFFFFF AND PUSH2 0x42D5 SWAP1 SWAP4 SWAP3 SWAP2 SWAP1 PUSH4 0xFFFFFFFF AND JUMP JUMPDEST PUSH1 0x0 DUP3 PUSH1 0x5 ADD PUSH1 0x0 SWAP1 SLOAD SWAP1 PUSH2 0x100 EXP SWAP1 DIV PUSH2 0xFFFF AND PUSH2 0xFFFF AND GT ISZERO PUSH2 0x3527 JUMPI PUSH1 0x0 PUSH2 0x347D PUSH2 0x2710 PUSH2 0x346F DUP6 PUSH1 0x5 ADD PUSH1 0x0 SWAP1 SLOAD SWAP1 PUSH2 0x100 EXP SWAP1 DIV PUSH2 0xFFFF AND PUSH2 0xFFFF AND DUP8 PUSH2 0x3A11 SWAP1 SWAP2 SWAP1 PUSH4 0xFFFFFFFF AND JUMP JUMPDEST PUSH2 0x3A97 SWAP1 SWAP2 SWAP1 PUSH4 0xFFFFFFFF AND JUMP JUMPDEST SWAP1 POP PUSH2 0x34A8 DUP2 PUSH2 0x349A DUP7 DUP6 PUSH1 0x0 ADD SLOAD PUSH2 0x3989 SWAP1 SWAP2 SWAP1 PUSH4 0xFFFFFFFF AND JUMP JUMPDEST PUSH2 0x3AE1 SWAP1 SWAP2 SWAP1 PUSH4 0xFFFFFFFF AND JUMP JUMPDEST DUP3 PUSH1 0x0 ADD DUP2 SWAP1 SSTORE POP PUSH2 0x3521 PUSH1 0x5 PUSH1 0x0 SWAP1 SLOAD SWAP1 PUSH2 0x100 EXP SWAP1 DIV PUSH20 0xFFFFFFFFFFFFFFFFFFFFFFFFFFFFFFFFFFFFFFFF AND DUP3 DUP6 PUSH1 0x0 ADD PUSH1 0x0 SWAP1 SLOAD SWAP1 PUSH2 0x100 EXP SWAP1 DIV PUSH20 0xFFFFFFFFFFFFFFFFFFFFFFFFFFFFFFFFFFFFFFFF AND PUSH20 0xFFFFFFFFFFFFFFFFFFFFFFFFFFFFFFFFFFFFFFFF AND PUSH2 0x3FCC SWAP1 SWAP3 SWAP2 SWAP1 PUSH4 0xFFFFFFFF AND JUMP JUMPDEST POP PUSH2 0x3547 JUMP JUMPDEST PUSH2 0x353E DUP4 DUP3 PUSH1 0x0 ADD SLOAD PUSH2 0x3989 SWAP1 SWAP2 SWAP1 PUSH4 0xFFFFFFFF AND JUMP JUMPDEST DUP2 PUSH1 0x0 ADD DUP2 SWAP1 SSTORE POP JUMPDEST JUMPDEST DUP1 PUSH1 0x2 ADD PUSH1 0x0 SWAP1 SLOAD SWAP1 PUSH2 0x100 EXP SWAP1 DIV PUSH1 0xFF AND PUSH2 0x35B6 JUMPI PUSH2 0x3590 PUSH5 0xE8D4A51000 PUSH2 0x3582 DUP5 PUSH1 0x4 ADD SLOAD DUP5 PUSH1 0x0 ADD SLOAD PUSH2 0x3A11 SWAP1 SWAP2 SWAP1 PUSH4 0xFFFFFFFF AND JUMP JUMPDEST PUSH2 0x3A97 SWAP1 SWAP2 SWAP1 PUSH4 0xFFFFFFFF AND JUMP JUMPDEST DUP2 PUSH1 0x1 ADD DUP2 SWAP1 SSTORE POP PUSH1 0x1 DUP2 PUSH1 0x2 ADD PUSH1 0x0 PUSH2 0x100 EXP DUP2 SLOAD DUP2 PUSH1 0xFF MUL NOT AND SWAP1 DUP4 ISZERO ISZERO MUL OR SWAP1 SSTORE POP JUMPDEST DUP4 CALLER PUSH20 0xFFFFFFFFFFFFFFFFFFFFFFFFFFFFFFFFFFFFFFFF AND PUSH32 0x90890809C654F11D6E72A28FA60149770A0D11EC6C92319D6CEB2BB0A4EA1A15 DUP6 PUSH1 0x40 MLOAD DUP1 DUP3 DUP2 MSTORE PUSH1 0x20 ADD SWAP2 POP POP PUSH1 0x40 MLOAD DUP1 SWAP2 SUB SWAP1 LOG3 POP POP PUSH1 0x1 DUP1 DUP2 SWAP1 SSTORE POP POP POP JUMP JUMPDEST PUSH1 0x12 PUSH1 0x0 SWAP1 SLOAD SWAP1 PUSH2 0x100 EXP SWAP1 DIV PUSH1 0xFF AND PUSH2 0x3677 JUMPI PUSH1 0x40 MLOAD PUSH32 0x8C379A000000000000000000000000000000000000000000000000000000000 DUP2 MSTORE PUSH1 0x4 ADD DUP1 DUP1 PUSH1 0x20 ADD DUP3 DUP2 SUB DUP3 MSTORE PUSH1 0x40 DUP2 MSTORE PUSH1 0x20 ADD DUP1 PUSH2 0x4C3A PUSH1 0x40 SWAP2 CODECOPY PUSH1 0x40 ADD SWAP2 POP POP PUSH1 0x40 MLOAD DUP1 SWAP2 SUB SWAP1 REVERT JUMPDEST PUSH1 0x6 SLOAD NUMBER GT PUSH2 0x36D1 JUMPI PUSH1 0x40 MLOAD PUSH32 0x8C379A000000000000000000000000000000000000000000000000000000000 DUP2 MSTORE PUSH1 0x4 ADD DUP1 DUP1 PUSH1 0x20 ADD DUP3 DUP2 SUB DUP3 MSTORE PUSH1 0x52 DUP2 MSTORE PUSH1 0x20 ADD DUP1 PUSH2 0x4B75 PUSH1 0x52 SWAP2 CODECOPY PUSH1 0x60 ADD SWAP2 POP POP PUSH1 0x40 MLOAD DUP1 SWAP2 SUB SWAP1 REVERT JUMPDEST PUSH8 0x16345785D8A0000 PUSH1 0x4 SLOAD GT PUSH2 0x3733 JUMPI PUSH1 0x40 MLOAD PUSH32 0x8C379A000000000000000000000000000000000000000000000000000000000 DUP2 MSTORE PUSH1 0x4 ADD DUP1 DUP1 PUSH1 0x20 ADD DUP3 DUP2 SUB DUP3 MSTORE PUSH1 0x52 DUP2 MSTORE PUSH1 0x20 ADD DUP1 PUSH2 0x4BE8 PUSH1 0x52 SWAP2 CODECOPY PUSH1 0x60 ADD SWAP2 POP POP PUSH1 0x40 MLOAD DUP1 SWAP2 SUB SWAP1 REVERT JUMPDEST PUSH1 0x0 PUSH2 0x375E PUSH2 0x7080 PUSH2 0x3750 PUSH1 0x6 SLOAD NUMBER PUSH2 0x3AE1 SWAP1 SWAP2 SWAP1 PUSH4 0xFFFFFFFF AND JUMP JUMPDEST PUSH2 0x3A97 SWAP1 SWAP2 SWAP1 PUSH4 0xFFFFFFFF AND JUMP JUMPDEST SWAP1 POP PUSH1 0x11 SLOAD DUP2 GT PUSH2 0x376F JUMPI POP PUSH2 0x3869 JUMP JUMPDEST PUSH1 0x0 PUSH1 0x4 SLOAD SWAP1 POP PUSH1 0x0 PUSH1 0x11 SLOAD SWAP1 POP JUMPDEST DUP3 DUP2 LT ISZERO PUSH2 0x37C0 JUMPI PUSH2 0x37B3 PUSH2 0x2710 PUSH2 0x37A5 PUSH2 0x5DC PUSH2 0x2710 SUB DUP6 PUSH2 0x3A11 SWAP1 SWAP2 SWAP1 PUSH4 0xFFFFFFFF AND JUMP JUMPDEST PUSH2 0x3A97 SWAP1 SWAP2 SWAP1 PUSH4 0xFFFFFFFF AND JUMP JUMPDEST SWAP2 POP DUP1 PUSH1 0x1 ADD SWAP1 POP PUSH2 0x377E JUMP JUMPDEST POP PUSH8 0x16345785D8A0000 DUP2 LT PUSH2 0x37D6 JUMPI DUP1 PUSH2 0x37E0 JUMP JUMPDEST PUSH8 0x16345785D8A0000 JUMPDEST SWAP1 POP PUSH1 0x4 SLOAD DUP2 LT PUSH2 0x37F2 JUMPI POP POP PUSH2 0x3869 JUMP JUMPDEST PUSH2 0x37FA PUSH2 0x1CFC JUMP JUMPDEST DUP2 PUSH1 0x11 DUP2 SWAP1 SSTORE POP PUSH1 0x0 PUSH1 0x4 SLOAD SWAP1 POP DUP2 PUSH1 0x4 DUP2 SWAP1 SSTORE POP CALLER PUSH20 0xFFFFFFFFFFFFFFFFFFFFFFFFFFFFFFFFFFFFFFFF AND PUSH32 0xEEDC6338C9C1AD8F3CD6C90DD09DBE98DBD57E610D3E59A17996D07ACB0D9511 DUP3 DUP5 PUSH1 0x40 MLOAD DUP1 DUP4 DUP2 MSTORE PUSH1 0x20 ADD DUP3 DUP2 MSTORE PUSH1 0x20 ADD SWAP3 POP POP POP PUSH1 0x40 MLOAD DUP1 SWAP2 SUB SWAP1 LOG2 POP POP POP JUMPDEST JUMP JUMPDEST PUSH1 0x0 DUP1 PUSH1 0x9 DUP4 DUP2 SLOAD DUP2 LT PUSH2 0x387B JUMPI INVALID JUMPDEST SWAP1 PUSH1 0x0 MSTORE PUSH1 0x20 PUSH1 0x0 KECCAK256 SWAP1 PUSH1 0x6 MUL ADD SWAP1 POP PUSH2 0x3894 DUP4 PUSH2 0x2B0A JUMP JUMPDEST DUP1 ISZERO PUSH2 0x38A4 JUMPI POP PUSH1 0x0 DUP2 PUSH1 0x1 ADD SLOAD EQ JUMPDEST ISZERO SWAP2 POP POP SWAP2 SWAP1 POP JUMP JUMPDEST PUSH2 0x38B5 PUSH2 0x3981 JUMP JUMPDEST PUSH20 0xFFFFFFFFFFFFFFFFFFFFFFFFFFFFFFFFFFFFFFFF AND PUSH1 0x0 DUP1 SLOAD SWAP1 PUSH2 0x100 EXP SWAP1 DIV PUSH20 0xFFFFFFFFFFFFFFFFFFFFFFFFFFFFFFFFFFFFFFFF AND PUSH20 0xFFFFFFFFFFFFFFFFFFFFFFFFFFFFFFFFFFFFFFFF AND EQ PUSH2 0x3975 JUMPI PUSH1 0x40 MLOAD PUSH32 0x8C379A000000000000000000000000000000000000000000000000000000000 DUP2 MSTORE PUSH1 0x4 ADD DUP1 DUP1 PUSH1 0x20 ADD DUP3 DUP2 SUB DUP3 MSTORE PUSH1 0x20 DUP2 MSTORE PUSH1 0x20 ADD DUP1 PUSH32 0x4F776E61626C653A2063616C6C6572206973206E6F7420746865206F776E6572 DUP2 MSTORE POP PUSH1 0x20 ADD SWAP2 POP POP PUSH1 0x40 MLOAD DUP1 SWAP2 SUB SWAP1 REVERT JUMPDEST PUSH2 0x397E DUP2 PUSH2 0x4396 JUMP JUMPDEST POP JUMP JUMPDEST PUSH1 0x0 CALLER SWAP1 POP SWAP1 JUMP JUMPDEST PUSH1 0x0 DUP1 DUP3 DUP5 ADD SWAP1 POP DUP4 DUP2 LT ISZERO PUSH2 0x3A07 JUMPI PUSH1 0x40 MLOAD PUSH32 0x8C379A000000000000000000000000000000000000000000000000000000000 DUP2 MSTORE PUSH1 0x4 ADD DUP1 DUP1 PUSH1 0x20 ADD DUP3 DUP2 SUB DUP3 MSTORE PUSH1 0x1B DUP2 MSTORE PUSH1 0x20 ADD DUP1 PUSH32 0x536166654D6174683A206164646974696F6E206F766572666C6F770000000000 DUP2 MSTORE POP PUSH1 0x20 ADD SWAP2 POP POP PUSH1 0x40 MLOAD DUP1 SWAP2 SUB SWAP1 REVERT JUMPDEST DUP1 SWAP2 POP POP SWAP3 SWAP2 POP POP JUMP JUMPDEST PUSH1 0x0 DUP1 DUP4 EQ ISZERO PUSH2 0x3A24 JUMPI PUSH1 0x0 SWAP1 POP PUSH2 0x3A91 JUMP JUMPDEST PUSH1 0x0 DUP3 DUP5 MUL SWAP1 POP DUP3 DUP5 DUP3 DUP2 PUSH2 0x3A35 JUMPI INVALID JUMPDEST DIV EQ PUSH2 0x3A8C JUMPI PUSH1 0x40 MLOAD PUSH32 0x8C379A000000000000000000000000000000000000000000000000000000000 DUP2 MSTORE PUSH1 0x4 ADD DUP1 DUP1 PUSH1 0x20 ADD DUP3 DUP2 SUB DUP3 MSTORE PUSH1 0x21 DUP2 MSTORE PUSH1 0x20 ADD DUP1 PUSH2 0x4B07 PUSH1 0x21 SWAP2 CODECOPY PUSH1 0x40 ADD SWAP2 POP POP PUSH1 0x40 MLOAD DUP1 SWAP2 SUB SWAP1 REVERT JUMPDEST DUP1 SWAP2 POP POP JUMPDEST SWAP3 SWAP2 POP POP JUMP JUMPDEST PUSH1 0x0 PUSH2 0x3AD9 DUP4 DUP4 PUSH1 0x40 MLOAD DUP1 PUSH1 0x40 ADD PUSH1 0x40 MSTORE DUP1 PUSH1 0x1A DUP2 MSTORE PUSH1 0x20 ADD PUSH32 0x536166654D6174683A206469766973696F6E206279207A65726F000000000000 DUP2 MSTORE POP PUSH2 0x44D9 JUMP JUMPDEST SWAP1 POP SWAP3 SWAP2 POP POP JUMP JUMPDEST PUSH1 0x0 PUSH2 0x3B23 DUP4 DUP4 PUSH1 0x40 MLOAD DUP1 PUSH1 0x40 ADD PUSH1 0x40 MSTORE DUP1 PUSH1 0x1E DUP2 MSTORE PUSH1 0x20 ADD PUSH32 0x536166654D6174683A207375627472616374696F6E206F766572666C6F770000 DUP2 MSTORE POP PUSH2 0x459F JUMP JUMPDEST SWAP1 POP SWAP3 SWAP2 POP POP JUMP JUMPDEST PUSH1 0x0 PUSH1 0x2 PUSH1 0x0 SWAP1 SLOAD SWAP1 PUSH2 0x100 EXP SWAP1 DIV PUSH20 0xFFFFFFFFFFFFFFFFFFFFFFFFFFFFFFFFFFFFFFFF AND PUSH20 0xFFFFFFFFFFFFFFFFFFFFFFFFFFFFFFFFFFFFFFFF AND PUSH4 0x70A08231 ADDRESS PUSH1 0x40 MLOAD DUP3 PUSH4 0xFFFFFFFF AND PUSH1 0xE0 SHL DUP2 MSTORE PUSH1 0x4 ADD DUP1 DUP3 PUSH20 0xFFFFFFFFFFFFFFFFFFFFFFFFFFFFFFFFFFFFFFFF AND DUP2 MSTORE PUSH1 0x20 ADD SWAP2 POP POP PUSH1 0x20 PUSH1 0x40 MLOAD DUP1 DUP4 SUB DUP2 DUP7 DUP1 EXTCODESIZE ISZERO DUP1 ISZERO PUSH2 0x3BB6 JUMPI PUSH1 0x0 DUP1 REVERT JUMPDEST POP GAS STATICCALL ISZERO DUP1 ISZERO PUSH2 0x3BCA JUMPI RETURNDATASIZE PUSH1 0x0 DUP1 RETURNDATACOPY RETURNDATASIZE PUSH1 0x0 REVERT JUMPDEST POP POP POP POP PUSH1 0x40 MLOAD RETURNDATASIZE PUSH1 0x20 DUP2 LT ISZERO PUSH2 0x3BE0 JUMPI PUSH1 0x0 DUP1 REVERT JUMPDEST DUP2 ADD SWAP1 DUP1 DUP1 MLOAD SWAP1 PUSH1 0x20 ADD SWAP1 SWAP3 SWAP2 SWAP1 POP POP POP SWAP1 POP PUSH1 0x0 DUP2 DUP4 GT ISZERO PUSH2 0x3CD2 JUMPI PUSH1 0x2 PUSH1 0x0 SWAP1 SLOAD SWAP1 PUSH2 0x100 EXP SWAP1 DIV PUSH20 0xFFFFFFFFFFFFFFFFFFFFFFFFFFFFFFFFFFFFFFFF AND PUSH20 0xFFFFFFFFFFFFFFFFFFFFFFFFFFFFFFFFFFFFFFFF AND PUSH4 0xA9059CBB DUP6 DUP5 PUSH1 0x40 MLOAD DUP4 PUSH4 0xFFFFFFFF AND PUSH1 0xE0 SHL DUP2 MSTORE PUSH1 0x4 ADD DUP1 DUP4 PUSH20 0xFFFFFFFFFFFFFFFFFFFFFFFFFFFFFFFFFFFFFFFF AND DUP2 MSTORE PUSH1 0x20 ADD DUP3 DUP2 MSTORE PUSH1 0x20 ADD SWAP3 POP POP POP PUSH1 0x20 PUSH1 0x40 MLOAD DUP1 DUP4 SUB DUP2 PUSH1 0x0 DUP8 DUP1 EXTCODESIZE ISZERO DUP1 ISZERO PUSH2 0x3C90 JUMPI PUSH1 0x0 DUP1 REVERT JUMPDEST POP GAS CALL ISZERO DUP1 ISZERO PUSH2 0x3CA4 JUMPI RETURNDATASIZE PUSH1 0x0 DUP1 RETURNDATACOPY RETURNDATASIZE PUSH1 0x0 REVERT JUMPDEST POP POP POP POP PUSH1 0x40 MLOAD RETURNDATASIZE PUSH1 0x20 DUP2 LT ISZERO PUSH2 0x3CBA JUMPI PUSH1 0x0 DUP1 REVERT JUMPDEST DUP2 ADD SWAP1 DUP1 DUP1 MLOAD SWAP1 PUSH1 0x20 ADD SWAP1 SWAP3 SWAP2 SWAP1 POP POP POP SWAP1 POP PUSH2 0x3DA3 JUMP JUMPDEST PUSH1 0x2 PUSH1 0x0 SWAP1 SLOAD SWAP1 PUSH2 0x100 EXP SWAP1 DIV PUSH20 0xFFFFFFFFFFFFFFFFFFFFFFFFFFFFFFFFFFFFFFFF AND PUSH20 0xFFFFFFFFFFFFFFFFFFFFFFFFFFFFFFFFFFFFFFFF AND PUSH4 0xA9059CBB DUP6 DUP6 PUSH1 0x40 MLOAD DUP4 PUSH4 0xFFFFFFFF AND PUSH1 0xE0 SHL DUP2 MSTORE PUSH1 0x4 ADD DUP1 DUP4 PUSH20 0xFFFFFFFFFFFFFFFFFFFFFFFFFFFFFFFFFFFFFFFF AND DUP2 MSTORE PUSH1 0x20 ADD DUP3 DUP2 MSTORE PUSH1 0x20 ADD SWAP3 POP POP POP PUSH1 0x20 PUSH1 0x40 MLOAD DUP1 DUP4 SUB DUP2 PUSH1 0x0 DUP8 DUP1 EXTCODESIZE ISZERO DUP1 ISZERO PUSH2 0x3D65 JUMPI PUSH1 0x0 DUP1 REVERT JUMPDEST POP GAS CALL ISZERO DUP1 ISZERO PUSH2 0x3D79 JUMPI RETURNDATASIZE PUSH1 0x0 DUP1 RETURNDATACOPY RETURNDATASIZE PUSH1 0x0 REVERT JUMPDEST POP POP POP POP PUSH1 0x40 MLOAD RETURNDATASIZE PUSH1 0x20 DUP2 LT ISZERO PUSH2 0x3D8F JUMPI PUSH1 0x0 DUP1 REVERT JUMPDEST DUP2 ADD SWAP1 DUP1 DUP1 MLOAD SWAP1 PUSH1 0x20 ADD SWAP1 SWAP3 SWAP2 SWAP1 POP POP POP SWAP1 POP JUMPDEST DUP1 PUSH2 0x3DF9 JUMPI PUSH1 0x40 MLOAD PUSH32 0x8C379A000000000000000000000000000000000000000000000000000000000 DUP2 MSTORE PUSH1 0x4 ADD DUP1 DUP1 PUSH1 0x20 ADD DUP3 DUP2 SUB DUP3 MSTORE PUSH1 0x22 DUP2 MSTORE PUSH1 0x20 ADD DUP1 PUSH2 0x4A9E PUSH1 0x22 SWAP2 CODECOPY PUSH1 0x40 ADD SWAP2 POP POP PUSH1 0x40 MLOAD DUP1 SWAP2 SUB SWAP1 REVERT JUMPDEST POP POP POP POP JUMP JUMPDEST PUSH1 0x0 PUSH2 0x3E0A DUP4 PUSH2 0x13B1 JUMP JUMPDEST SWAP1 POP PUSH1 0x0 PUSH20 0xFFFFFFFFFFFFFFFFFFFFFFFFFFFFFFFFFFFFFFFF AND DUP2 PUSH20 0xFFFFFFFFFFFFFFFFFFFFFFFFFFFFFFFFFFFFFFFF AND EQ ISZERO DUP1 ISZERO PUSH2 0x3E75 JUMPI POP DUP3 PUSH20 0xFFFFFFFFFFFFFFFFFFFFFFFFFFFFFFFFFFFFFFFF AND DUP2 PUSH20 0xFFFFFFFFFFFFFFFFFFFFFFFFFFFFFFFFFFFFFFFF AND EQ ISZERO JUMPDEST DUP1 ISZERO PUSH2 0x3E83 JUMPI POP PUSH1 0x0 PUSH1 0xC SLOAD GT JUMPDEST ISZERO PUSH2 0x3FC7 JUMPI PUSH1 0x0 PUSH2 0x3EB3 PUSH2 0x2710 PUSH2 0x3EA5 PUSH1 0xC SLOAD DUP7 PUSH2 0x3A11 SWAP1 SWAP2 SWAP1 PUSH4 0xFFFFFFFF AND JUMP JUMPDEST PUSH2 0x3A97 SWAP1 SWAP2 SWAP1 PUSH4 0xFFFFFFFF AND JUMP JUMPDEST SWAP1 POP PUSH1 0x2 PUSH1 0x0 SWAP1 SLOAD SWAP1 PUSH2 0x100 EXP SWAP1 DIV PUSH20 0xFFFFFFFFFFFFFFFFFFFFFFFFFFFFFFFFFFFFFFFF AND PUSH20 0xFFFFFFFFFFFFFFFFFFFFFFFFFFFFFFFFFFFFFFFF AND PUSH4 0x40C10F19 DUP4 DUP4 PUSH1 0x40 MLOAD DUP4 PUSH4 0xFFFFFFFF AND PUSH1 0xE0 SHL DUP2 MSTORE PUSH1 0x4 ADD DUP1 DUP4 PUSH20 0xFFFFFFFFFFFFFFFFFFFFFFFFFFFFFFFFFFFFFFFF AND DUP2 MSTORE PUSH1 0x20 ADD DUP3 DUP2 MSTORE PUSH1 0x20 ADD SWAP3 POP POP POP PUSH1 0x0 PUSH1 0x40 MLOAD DUP1 DUP4 SUB DUP2 PUSH1 0x0 DUP8 DUP1 EXTCODESIZE ISZERO DUP1 ISZERO PUSH2 0x3F48 JUMPI PUSH1 0x0 DUP1 REVERT JUMPDEST POP GAS CALL ISZERO DUP1 ISZERO PUSH2 0x3F5C JUMPI RETURNDATASIZE PUSH1 0x0 DUP1 RETURNDATACOPY RETURNDATASIZE PUSH1 0x0 REVERT JUMPDEST POP POP POP POP DUP2 PUSH20 0xFFFFFFFFFFFFFFFFFFFFFFFFFFFFFFFFFFFFFFFF AND DUP5 PUSH20 0xFFFFFFFFFFFFFFFFFFFFFFFFFFFFFFFFFFFFFFFF AND PUSH32 0xA721AB4682CEB61C7E4D264EF879FC419A6D764B136E7D96EF54B2053C75673 DUP4 PUSH1 0x40 MLOAD DUP1 DUP3 DUP2 MSTORE PUSH1 0x20 ADD SWAP2 POP POP PUSH1 0x40 MLOAD DUP1 SWAP2 SUB SWAP1 LOG3 POP JUMPDEST POP POP POP JUMP JUMPDEST PUSH2 0x4069 DUP4 PUSH4 0xA9059CBB PUSH1 0xE0 SHL DUP5 DUP5 PUSH1 0x40 MLOAD PUSH1 0x24 ADD DUP1 DUP4 PUSH20 0xFFFFFFFFFFFFFFFFFFFFFFFFFFFFFFFFFFFFFFFF AND DUP2 MSTORE PUSH1 0x20 ADD DUP3 DUP2 MSTORE PUSH1 0x20 ADD SWAP3 POP POP POP PUSH1 0x40 MLOAD PUSH1 0x20 DUP2 DUP4 SUB SUB DUP2 MSTORE SWAP1 PUSH1 0x40 MSTORE SWAP1 PUSH28 0xFFFFFFFFFFFFFFFFFFFFFFFFFFFFFFFFFFFFFFFFFFFFFFFFFFFFFFFF NOT AND PUSH1 0x20 DUP3 ADD DUP1 MLOAD PUSH28 0xFFFFFFFFFFFFFFFFFFFFFFFFFFFFFFFFFFFFFFFFFFFFFFFFFFFFFFFF DUP4 DUP2 DUP4 AND OR DUP4 MSTORE POP POP POP POP PUSH2 0x465F JUMP JUMPDEST POP POP POP JUMP JUMPDEST DUP1 PUSH20 0xFFFFFFFFFFFFFFFFFFFFFFFFFFFFFFFFFFFFFFFF AND DUP2 PUSH20 0xFFFFFFFFFFFFFFFFFFFFFFFFFFFFFFFFFFFFFFFF AND EQ DUP1 ISZERO PUSH2 0x4134 JUMPI POP PUSH1 0x0 PUSH20 0xFFFFFFFFFFFFFFFFFFFFFFFFFFFFFFFFFFFFFFFF AND PUSH1 0xD PUSH1 0x0 DUP5 PUSH20 0xFFFFFFFFFFFFFFFFFFFFFFFFFFFFFFFFFFFFFFFF AND PUSH20 0xFFFFFFFFFFFFFFFFFFFFFFFFFFFFFFFFFFFFFFFF AND DUP2 MSTORE PUSH1 0x20 ADD SWAP1 DUP2 MSTORE PUSH1 0x20 ADD PUSH1 0x0 KECCAK256 PUSH1 0x0 SWAP1 SLOAD SWAP1 PUSH2 0x100 EXP SWAP1 DIV PUSH20 0xFFFFFFFFFFFFFFFFFFFFFFFFFFFFFFFFFFFFFFFF AND PUSH20 0xFFFFFFFFFFFFFFFFFFFFFFFFFFFFFFFFFFFFFFFF AND EQ JUMPDEST DUP1 ISZERO PUSH2 0x416D JUMPI POP PUSH1 0x0 PUSH20 0xFFFFFFFFFFFFFFFFFFFFFFFFFFFFFFFFFFFFFFFF AND DUP2 PUSH20 0xFFFFFFFFFFFFFFFFFFFFFFFFFFFFFFFFFFFFFFFF AND EQ ISZERO JUMPDEST DUP1 ISZERO PUSH2 0x41A5 JUMPI POP DUP2 PUSH20 0xFFFFFFFFFFFFFFFFFFFFFFFFFFFFFFFFFFFFFFFF AND DUP2 PUSH20 0xFFFFFFFFFFFFFFFFFFFFFFFFFFFFFFFFFFFFFFFF AND EQ ISZERO JUMPDEST ISZERO PUSH2 0x42D1 JUMPI DUP1 PUSH1 0xD PUSH1 0x0 DUP5 PUSH20 0xFFFFFFFFFFFFFFFFFFFFFFFFFFFFFFFFFFFFFFFF AND PUSH20 0xFFFFFFFFFFFFFFFFFFFFFFFFFFFFFFFFFFFFFFFF AND DUP2 MSTORE PUSH1 0x20 ADD SWAP1 DUP2 MSTORE PUSH1 0x20 ADD PUSH1 0x0 KECCAK256 PUSH1 0x0 PUSH2 0x100 EXP DUP2 SLOAD DUP2 PUSH20 0xFFFFFFFFFFFFFFFFFFFFFFFFFFFFFFFFFFFFFFFF MUL NOT AND SWAP1 DUP4 PUSH20 0xFFFFFFFFFFFFFFFFFFFFFFFFFFFFFFFFFFFFFFFF AND MUL OR SWAP1 SSTORE POP PUSH1 0x1 PUSH1 0xE PUSH1 0x0 DUP4 PUSH20 0xFFFFFFFFFFFFFFFFFFFFFFFFFFFFFFFFFFFFFFFF AND PUSH20 0xFFFFFFFFFFFFFFFFFFFFFFFFFFFFFFFFFFFFFFFF AND DUP2 MSTORE PUSH1 0x20 ADD SWAP1 DUP2 MSTORE PUSH1 0x20 ADD PUSH1 0x0 KECCAK256 PUSH1 0x0 DUP3 DUP3 SLOAD ADD SWAP3 POP POP DUP2 SWAP1 SSTORE POP DUP1 PUSH20 0xFFFFFFFFFFFFFFFFFFFFFFFFFFFFFFFFFFFFFFFF AND DUP3 PUSH20 0xFFFFFFFFFFFFFFFFFFFFFFFFFFFFFFFFFFFFFFFF AND PUSH32 0x9D05414FB79FAC216C15606DE5CC06664E91A254E4D5F57664D5F1BEAF7FB7EF PUSH1 0x40 MLOAD PUSH1 0x40 MLOAD DUP1 SWAP2 SUB SWAP1 LOG3 JUMPDEST POP POP JUMP JUMPDEST PUSH2 0x4390 DUP5 PUSH4 0x23B872DD PUSH1 0xE0 SHL DUP6 DUP6 DUP6 PUSH1 0x40 MLOAD PUSH1 0x24 ADD DUP1 DUP5 PUSH20 0xFFFFFFFFFFFFFFFFFFFFFFFFFFFFFFFFFFFFFFFF AND DUP2 MSTORE PUSH1 0x20 ADD DUP4 PUSH20 0xFFFFFFFFFFFFFFFFFFFFFFFFFFFFFFFFFFFFFFFF AND DUP2 MSTORE PUSH1 0x20 ADD DUP3 DUP2 MSTORE PUSH1 0x20 ADD SWAP4 POP POP POP POP PUSH1 0x40 MLOAD PUSH1 0x20 DUP2 DUP4 SUB SUB DUP2 MSTORE SWAP1 PUSH1 0x40 MSTORE SWAP1 PUSH28 0xFFFFFFFFFFFFFFFFFFFFFFFFFFFFFFFFFFFFFFFFFFFFFFFFFFFFFFFF NOT AND PUSH1 0x20 DUP3 ADD DUP1 MLOAD PUSH28 0xFFFFFFFFFFFFFFFFFFFFFFFFFFFFFFFFFFFFFFFFFFFFFFFFFFFFFFFF DUP4 DUP2 DUP4 AND OR DUP4 MSTORE POP POP POP POP PUSH2 0x465F JUMP JUMPDEST POP POP POP POP JUMP JUMPDEST PUSH1 0x0 PUSH20 0xFFFFFFFFFFFFFFFFFFFFFFFFFFFFFFFFFFFFFFFF AND DUP2 PUSH20 0xFFFFFFFFFFFFFFFFFFFFFFFFFFFFFFFFFFFFFFFF AND EQ ISZERO PUSH2 0x441C JUMPI PUSH1 0x40 MLOAD PUSH32 0x8C379A000000000000000000000000000000000000000000000000000000000 DUP2 MSTORE PUSH1 0x4 ADD DUP1 DUP1 PUSH1 0x20 ADD DUP3 DUP2 SUB DUP3 MSTORE PUSH1 0x26 DUP2 MSTORE PUSH1 0x20 ADD DUP1 PUSH2 0x4A78 PUSH1 0x26 SWAP2 CODECOPY PUSH1 0x40 ADD SWAP2 POP POP PUSH1 0x40 MLOAD DUP1 SWAP2 SUB SWAP1 REVERT JUMPDEST DUP1 PUSH20 0xFFFFFFFFFFFFFFFFFFFFFFFFFFFFFFFFFFFFFFFF AND PUSH1 0x0 DUP1 SLOAD SWAP1 PUSH2 0x100 EXP SWAP1 DIV PUSH20 0xFFFFFFFFFFFFFFFFFFFFFFFFFFFFFFFFFFFFFFFF AND PUSH20 0xFFFFFFFFFFFFFFFFFFFFFFFFFFFFFFFFFFFFFFFF AND PUSH32 0x8BE0079C531659141344CD1FD0A4F28419497F9722A3DAAFE3B4186F6B6457E0 PUSH1 0x40 MLOAD PUSH1 0x40 MLOAD DUP1 SWAP2 SUB SWAP1 LOG3 DUP1 PUSH1 0x0 DUP1 PUSH2 0x100 EXP DUP2 SLOAD DUP2 PUSH20 0xFFFFFFFFFFFFFFFFFFFFFFFFFFFFFFFFFFFFFFFF MUL NOT AND SWAP1 DUP4 PUSH20 0xFFFFFFFFFFFFFFFFFFFFFFFFFFFFFFFFFFFFFFFF AND MUL OR SWAP1 SSTORE POP POP JUMP JUMPDEST PUSH1 0x0 DUP1 DUP4 GT DUP3 SWAP1 PUSH2 0x4585 JUMPI PUSH1 0x40 MLOAD PUSH32 0x8C379A000000000000000000000000000000000000000000000000000000000 DUP2 MSTORE PUSH1 0x4 ADD DUP1 DUP1 PUSH1 0x20 ADD DUP3 DUP2 SUB DUP3 MSTORE DUP4 DUP2 DUP2 MLOAD DUP2 MSTORE PUSH1 0x20 ADD SWAP2 POP DUP1 MLOAD SWAP1 PUSH1 0x20 ADD SWAP1 DUP1 DUP4 DUP4 PUSH1 0x0 JUMPDEST DUP4 DUP2 LT ISZERO PUSH2 0x454A JUMPI DUP1 DUP3 ADD MLOAD DUP2 DUP5 ADD MSTORE PUSH1 0x20 DUP2 ADD SWAP1 POP PUSH2 0x452F JUMP JUMPDEST POP POP POP POP SWAP1 POP SWAP1 DUP2 ADD SWAP1 PUSH1 0x1F AND DUP1 ISZERO PUSH2 0x4577 JUMPI DUP1 DUP3 SUB DUP1 MLOAD PUSH1 0x1 DUP4 PUSH1 0x20 SUB PUSH2 0x100 EXP SUB NOT AND DUP2 MSTORE PUSH1 0x20 ADD SWAP2 POP JUMPDEST POP SWAP3 POP POP POP PUSH1 0x40 MLOAD DUP1 SWAP2 SUB SWAP1 REVERT JUMPDEST POP PUSH1 0x0 DUP4 DUP6 DUP2 PUSH2 0x4591 JUMPI INVALID JUMPDEST DIV SWAP1 POP DUP1 SWAP2 POP POP SWAP4 SWAP3 POP POP POP JUMP JUMPDEST PUSH1 0x0 DUP4 DUP4 GT ISZERO DUP3 SWAP1 PUSH2 0x464C JUMPI PUSH1 0x40 MLOAD PUSH32 0x8C379A000000000000000000000000000000000000000000000000000000000 DUP2 MSTORE PUSH1 0x4 ADD DUP1 DUP1 PUSH1 0x20 ADD DUP3 DUP2 SUB DUP3 MSTORE DUP4 DUP2 DUP2 MLOAD DUP2 MSTORE PUSH1 0x20 ADD SWAP2 POP DUP1 MLOAD SWAP1 PUSH1 0x20 ADD SWAP1 DUP1 DUP4 DUP4 PUSH1 0x0 JUMPDEST DUP4 DUP2 LT ISZERO PUSH2 0x4611 JUMPI DUP1 DUP3 ADD MLOAD DUP2 DUP5 ADD MSTORE PUSH1 0x20 DUP2 ADD SWAP1 POP PUSH2 0x45F6 JUMP JUMPDEST POP POP POP POP SWAP1 POP SWAP1 DUP2 ADD SWAP1 PUSH1 0x1F AND DUP1 ISZERO PUSH2 0x463E JUMPI DUP1 DUP3 SUB DUP1 MLOAD PUSH1 0x1 DUP4 PUSH1 0x20 SUB PUSH2 0x100 EXP SUB NOT AND DUP2 MSTORE PUSH1 0x20 ADD SWAP2 POP JUMPDEST POP SWAP3 POP POP POP PUSH1 0x40 MLOAD DUP1 SWAP2 SUB SWAP1 REVERT JUMPDEST POP PUSH1 0x0 DUP4 DUP6 SUB SWAP1 POP DUP1 SWAP2 POP POP SWAP4 SWAP3 POP POP POP JUMP JUMPDEST PUSH1 0x60 PUSH2 0x46C1 DUP3 PUSH1 0x40 MLOAD DUP1 PUSH1 0x40 ADD PUSH1 0x40 MSTORE DUP1 PUSH1 0x20 DUP2 MSTORE PUSH1 0x20 ADD PUSH32 0x5361666542455032303A206C6F772D6C6576656C2063616C6C206661696C6564 DUP2 MSTORE POP DUP6 PUSH20 0xFFFFFFFFFFFFFFFFFFFFFFFFFFFFFFFFFFFFFFFF AND PUSH2 0x474E SWAP1 SWAP3 SWAP2 SWAP1 PUSH4 0xFFFFFFFF AND JUMP JUMPDEST SWAP1 POP PUSH1 0x0 DUP2 MLOAD GT ISZERO PUSH2 0x4749 JUMPI DUP1 DUP1 PUSH1 0x20 ADD SWAP1 MLOAD PUSH1 0x20 DUP2 LT ISZERO PUSH2 0x46E2 JUMPI PUSH1 0x0 DUP1 REVERT JUMPDEST DUP2 ADD SWAP1 DUP1 DUP1 MLOAD SWAP1 PUSH1 0x20 ADD SWAP1 SWAP3 SWAP2 SWAP1 POP POP POP PUSH2 0x4748 JUMPI PUSH1 0x40 MLOAD PUSH32 0x8C379A000000000000000000000000000000000000000000000000000000000 DUP2 MSTORE PUSH1 0x4 ADD DUP1 DUP1 PUSH1 0x20 ADD DUP3 DUP2 SUB DUP3 MSTORE PUSH1 0x2A DUP2 MSTORE PUSH1 0x20 ADD DUP1 PUSH2 0x4A4E PUSH1 0x2A SWAP2 CODECOPY PUSH1 0x40 ADD SWAP2 POP POP PUSH1 0x40 MLOAD DUP1 SWAP2 SUB SWAP1 REVERT JUMPDEST JUMPDEST POP POP POP JUMP JUMPDEST PUSH1 0x60 PUSH2 0x475D DUP5 DUP5 PUSH1 0x0 DUP6 PUSH2 0x4766 JUMP JUMPDEST SWAP1 POP SWAP4 SWAP3 POP POP POP JUMP JUMPDEST PUSH1 0x60 DUP3 SELFBALANCE LT ISZERO PUSH2 0x47C1 JUMPI PUSH1 0x40 MLOAD PUSH32 0x8C379A000000000000000000000000000000000000000000000000000000000 DUP2 MSTORE PUSH1 0x4 ADD DUP1 DUP1 PUSH1 0x20 ADD DUP3 DUP2 SUB DUP3 MSTORE PUSH1 0x26 DUP2 MSTORE PUSH1 0x20 ADD DUP1 PUSH2 0x4AE1 PUSH1 0x26 SWAP2 CODECOPY PUSH1 0x40 ADD SWAP2 POP POP PUSH1 0x40 MLOAD DUP1 SWAP2 SUB SWAP1 REVERT JUMPDEST PUSH2 0x47CA DUP6 PUSH2 0x490F JUMP JUMPDEST PUSH2 0x483C JUMPI PUSH1 0x40 MLOAD PUSH32 0x8C379A000000000000000000000000000000000000000000000000000000000 DUP2 MSTORE PUSH1 0x4 ADD DUP1 DUP1 PUSH1 0x20 ADD DUP3 DUP2 SUB DUP3 MSTORE PUSH1 0x1D DUP2 MSTORE PUSH1 0x20 ADD DUP1 PUSH32 0x416464726573733A2063616C6C20746F206E6F6E2D636F6E7472616374000000 DUP2 MSTORE POP PUSH1 0x20 ADD SWAP2 POP POP PUSH1 0x40 MLOAD DUP1 SWAP2 SUB SWAP1 REVERT JUMPDEST PUSH1 0x0 PUSH1 0x60 DUP7 PUSH20 0xFFFFFFFFFFFFFFFFFFFFFFFFFFFFFFFFFFFFFFFF AND DUP6 DUP8 PUSH1 0x40 MLOAD DUP1 DUP3 DUP1 MLOAD SWAP1 PUSH1 0x20 ADD SWAP1 DUP1 DUP4 DUP4 JUMPDEST PUSH1 0x20 DUP4 LT PUSH2 0x488C JUMPI DUP1 MLOAD DUP3 MSTORE PUSH1 0x20 DUP3 ADD SWAP2 POP PUSH1 0x20 DUP2 ADD SWAP1 POP PUSH1 0x20 DUP4 SUB SWAP3 POP PUSH2 0x4869 JUMP JUMPDEST PUSH1 0x1 DUP4 PUSH1 0x20 SUB PUSH2 0x100 EXP SUB DUP1 NOT DUP3 MLOAD AND DUP2 DUP5 MLOAD AND DUP1 DUP3 OR DUP6 MSTORE POP POP POP POP POP POP SWAP1 POP ADD SWAP2 POP POP PUSH1 0x0 PUSH1 0x40 MLOAD DUP1 DUP4 SUB DUP2 DUP6 DUP8 GAS CALL SWAP3 POP POP POP RETURNDATASIZE DUP1 PUSH1 0x0 DUP2 EQ PUSH2 0x48EE JUMPI PUSH1 0x40 MLOAD SWAP2 POP PUSH1 0x1F NOT PUSH1 0x3F RETURNDATASIZE ADD AND DUP3 ADD PUSH1 0x40 MSTORE RETURNDATASIZE DUP3 MSTORE RETURNDATASIZE PUSH1 0x0 PUSH1 0x20 DUP5 ADD RETURNDATACOPY PUSH2 0x48F3 JUMP JUMPDEST PUSH1 0x60 SWAP2 POP JUMPDEST POP SWAP2 POP SWAP2 POP PUSH2 0x4903 DUP3 DUP3 DUP7 PUSH2 0x4922 JUMP JUMPDEST SWAP3 POP POP POP SWAP5 SWAP4 POP POP POP POP JUMP JUMPDEST PUSH1 0x0 DUP1 DUP3 EXTCODESIZE SWAP1 POP PUSH1 0x0 DUP2 GT SWAP2 POP POP SWAP2 SWAP1 POP JUMP JUMPDEST PUSH1 0x60 DUP4 ISZERO PUSH2 0x4932 JUMPI DUP3 SWAP1 POP PUSH2 0x49E7 JUMP JUMPDEST PUSH1 0x0 DUP4 MLOAD GT ISZERO PUSH2 0x4945 JUMPI DUP3 MLOAD DUP1 DUP5 PUSH1 0x20 ADD REVERT JUMPDEST DUP2 PUSH1 0x40 MLOAD PUSH32 0x8C379A000000000000000000000000000000000000000000000000000000000 DUP2 MSTORE PUSH1 0x4 ADD DUP1 DUP1 PUSH1 0x20 ADD DUP3 DUP2 SUB DUP3 MSTORE DUP4 DUP2 DUP2 MLOAD DUP2 MSTORE PUSH1 0x20 ADD SWAP2 POP DUP1 MLOAD SWAP1 PUSH1 0x20 ADD SWAP1 DUP1 DUP4 DUP4 PUSH1 0x0 JUMPDEST DUP4 DUP2 LT ISZERO PUSH2 0x49AC JUMPI DUP1 DUP3 ADD MLOAD DUP2 DUP5 ADD MSTORE PUSH1 0x20 DUP2 ADD SWAP1 POP PUSH2 0x4991 JUMP JUMPDEST POP POP POP POP SWAP1 POP SWAP1 DUP2 ADD SWAP1 PUSH1 0x1F AND DUP1 ISZERO PUSH2 0x49D9 JUMPI DUP1 DUP3 SUB DUP1 MLOAD PUSH1 0x1 DUP4 PUSH1 0x20 SUB PUSH2 0x100 EXP SUB NOT AND DUP2 MSTORE PUSH1 0x20 ADD SWAP2 POP JUMPDEST POP SWAP3 POP POP POP PUSH1 0x40 MLOAD DUP1 SWAP2 SUB SWAP1 REVERT JUMPDEST SWAP4 SWAP3 POP POP POP JUMP INVALID PUSH2 0x6464 GASPRICE KECCAK256 PUSH10 0x6E76616C696420646570 PUSH16 0x7369742066656520626173697320706F PUSH10 0x6E747375706461746552 PUSH6 0x66426F6E7573 POP PUSH6 0x7263656E743A KECCAK256 PUSH10 0x6E76616C696420726566 PUSH6 0x7272616C2062 PUSH16 0x6E757320626173697320706F696E7473 MSTORE8 PUSH2 0x6665 TIMESTAMP GASLIMIT POP ORIGIN ADDRESS GASPRICE KECCAK256 TIMESTAMP GASLIMIT POP ORIGIN ADDRESS KECCAK256 PUSH16 0x7065726174696F6E20646964206E6F74 KECCAK256 PUSH20 0x7563636565644F776E61626C653A206E6577206F PUSH24 0x6E657220697320746865207A65726F206164647265737373 PUSH2 0x6665 POP PUSH13 0x756D5472616E736665723A2074 PUSH19 0x616E73666572206661696C65642E6465706F73 PUSH10 0x743A20496E76616C6964 KECCAK256 PUSH19 0x65666572726572206164647265737341646472 PUSH6 0x73733A20696E PUSH20 0x756666696369656E742062616C616E636520666F PUSH19 0x2063616C6C536166654D6174683A206D756C74 PUSH10 0x706C69636174696F6E20 PUSH16 0x766572666C6F777365743A20696E7661 PUSH13 0x6964206465706F736974206665 PUSH6 0x206261736973 KECCAK256 PUSH17 0x6F696E7473757064617465526566426F6E PUSH22 0x7350657263656E743A2073616D6520626F6E75732062 PUSH17 0x20736574726564756365456D697373696F PUSH15 0x526174655769746844656661756C74 MSTORE PUSH2 0x7465 GASPRICE KECCAK256 NUMBER PUSH2 0x6E20 PUSH16 0x6E6C792062652063616C6C6564206166 PUSH21 0x65722073706563696669656420626C6F636B207374 PUSH2 0x7274 PUSH20 0x676574506F6F6C4964466F724C70546F6B656E3A KECCAK256 PUSH5 0x6F206E6F74 KECCAK256 PUSH6 0x786973747265 PUSH5 0x756365456D PUSH10 0x7373696F6E5261746557 PUSH10 0x746844656661756C7452 PUSH2 0x7465 GASPRICE KECCAK256 GASLIMIT PUSH14 0x697373696F6E2072617465206861 PUSH20 0x207265616368656420746865206D696E696D756D KECCAK256 PUSH21 0x68726573686F6C64726564756365456D697373696F PUSH15 0x526174655769746844656661756C74 MSTORE PUSH2 0x7465 GASPRICE KECCAK256 POP PUSH6 0x726D69737369 PUSH16 0x6E20666C6167206E6F74207475726E65 PUSH5 0x206F6EA264 PUSH10 0x70667358221220FB000C ADDMOD 0xE3 PUSH23 0x5754BFDE9009E37AA10FED98BD356CCB5D47C47CF6F090 PUSH10 0xC01C64736F6C63430006 0xC STOP CALLER "},"gasEstimates":{"creation":{"codeDepositCost":"3926200","executionCost":"infinite","totalCost":"infinite"},"external":{"EMISSION_REDUCTION_PERIOD_BLOCKS()":"360","EMISSION_REDUCTION_RATE_PER_PERIOD()":"272","INITIAL_EMISSION_RATE()":"339","MAXIMUM_DEPOSIT_FEE_BP()":"256","MAXIMUM_REFERRAL_BP()":"257","MINIMUM_EMISSION_RATE()":"339","add(uint256,address,uint16,bool,uint256,uint256)":"infinite","blockToStartReducingEmissionRate()":"1117","canGenerateTexoReward(uint256)":"3943","canWithdrawReward(uint256)":"2069","deposit(uint256,uint256)":"infinite","deposit(uint256,uint256,address)":"infinite","devAddr()":"1091","emergencyWithdraw(uint256)":"infinite","feeAddress()":"1159","getMultiplier(uint256,uint256)":"infinite","getPoolIdForLpToken(address)":"infinite","getReferral(address)":"1306","globalBlockToUnlockClaimingRewards()":"1094","isAllowReduceEmissionRate()":"1203","lastReductionPeriodIndex()":"1116","massUpdatePools()":"infinite","owner()":"1123","pendingTEXO(uint256,address)":"infinite","poolExistence(address)":"1311","poolIdForLpAddress(address)":"1236","poolInfo(uint256)":"6318","poolLength()":"1068","reduceEmissionRateWithDefaultRate()":"infinite","refBonusBP()":"1094","referredCount(address)":"1259","referrers(address)":"1246","renounceOwnership()":"24424","set(uint256,uint256,uint16,bool,uint256)":"infinite","setBlockToStartReducingEmissionRate(uint256)":"21301","setDevAddress(address)":"23686","setEmissionRate(uint256)":"infinite","setFeeAddress(address)":"23599","setFlagAllowReduceEmissionRate(bool)":"22158","setGlobalBlockToUnlockClaimingRewards(uint256)":"21299","tEXO()":"1180","tEXOPerBlock()":"1072","totalAllocPoint()":"1096","transferOwnership(address)":"infinite","updatePool(uint256)":"infinite","updateReferralBonusBp(uint256)":"infinite","userInfo(uint256,address)":"3137","withdraw(uint256,uint256)":"infinite"},"internal":{"payReferralCommission(address,uint256)":"infinite","safeTEXOTransfer(address,uint256)":"infinite","setReferral(address,address)":"44546"}},"methodIdentifiers":{"EMISSION_REDUCTION_PERIOD_BLOCKS()":"d4adafdf","EMISSION_REDUCTION_RATE_PER_PERIOD()":"b7eee1f1","INITIAL_EMISSION_RATE()":"91bb809c","MAXIMUM_DEPOSIT_FEE_BP()":"955c9b93","MAXIMUM_REFERRAL_BP()":"3a22df78","MINIMUM_EMISSION_RATE()":"61e0c468","add(uint256,address,uint16,bool,uint256,uint256)":"189d451d","blockToStartReducingEmissionRate()":"54324b58","canGenerateTexoReward(uint256)":"ebec9e8b","canWithdrawReward(uint256)":"b51d4c80","deposit(uint256,uint256)":"e2bbb158","deposit(uint256,uint256,address)":"8dbdbe6d","devAddr()":"da09c72c","emergencyWithdraw(uint256)":"5312ea8e","feeAddress()":"41275358","getMultiplier(uint256,uint256)":"8dbb1e3a","getPoolIdForLpToken(address)":"190f39f0","getReferral(address)":"3b0f0f2f","globalBlockToUnlockClaimingRewards()":"a1515333","isAllowReduceEmissionRate()":"47e3cda5","lastReductionPeriodIndex()":"6a9a7660","massUpdatePools()":"630b5ba1","owner()":"8da5cb5b","pendingTEXO(uint256,address)":"dfe3d2cd","poolExistence(address)":"cbd258b5","poolIdForLpAddress(address)":"9bf62f7e","poolInfo(uint256)":"1526fe27","poolLength()":"081e3eda","reduceEmissionRateWithDefaultRate()":"ea76bc29","refBonusBP()":"66f685ea","referredCount(address)":"3f7b06d8","referrers(address)":"4a3b68cc","renounceOwnership()":"715018a6","set(uint256,uint256,uint16,bool,uint256)":"c6df25bd","setBlockToStartReducingEmissionRate(uint256)":"1eb704b0","setDevAddress(address)":"d0d41fe1","setEmissionRate(uint256)":"a1bdb15e","setFeeAddress(address)":"8705fcd4","setFlagAllowReduceEmissionRate(bool)":"80361747","setGlobalBlockToUnlockClaimingRewards(uint256)":"b2a5aa2e","tEXO()":"ae715d70","tEXOPerBlock()":"660f8340","totalAllocPoint()":"17caf6f1","transferOwnership(address)":"f2fde38b","updatePool(uint256)":"51eb05a6","updateReferralBonusBp(uint256)":"64ed743b","userInfo(uint256,address)":"93f1a40b","withdraw(uint256,uint256)":"441a3e70"}},"storageLayout":{"storage":[{"astId":325,"contract":"TEXOToken.sol:TEXOOrchestrator","label":"_owner","offset":0,"slot":"0","type":"t_address"},{"astId":688,"contract":"TEXOToken.sol:TEXOOrchestrator","label":"_status","offset":0,"slot":"1","type":"t_uint256"},{"astId":1487,"contract":"TEXOToken.sol:TEXOOrchestrator","label":"tEXO","offset":0,"slot":"2","type":"t_contract(TEXOToken)1454"},{"astId":1489,"contract":"TEXOToken.sol:TEXOOrchestrator","label":"devAddr","offset":0,"slot":"3","type":"t_address"},{"astId":1491,"contract":"TEXOToken.sol:TEXOOrchestrator","label":"tEXOPerBlock","offset":0,"slot":"4","type":"t_uint256"},{"astId":1493,"contract":"TEXOToken.sol:TEXOOrchestrator","label":"feeAddress","offset":0,"slot":"5","type":"t_address"},{"astId":1495,"contract":"TEXOToken.sol:TEXOOrchestrator","label":"blockToStartReducingEmissionRate","offset":0,"slot":"6","type":"t_uint256"},{"astId":1497,"contract":"TEXOToken.sol:TEXOOrchestrator","label":"globalBlockToUnlockClaimingRewards","offset":0,"slot":"7","type":"t_uint256"},{"astId":1499,"contract":"TEXOToken.sol:TEXOOrchestrator","label":"startBlock","offset":0,"slot":"8","type":"t_uint256"},{"astId":1502,"contract":"TEXOToken.sol:TEXOOrchestrator","label":"poolInfo","offset":0,"slot":"9","type":"t_array(t_struct(PoolInfo)1485_storage)dyn_storage"},{"astId":1508,"contract":"TEXOToken.sol:TEXOOrchestrator","label":"userInfo","offset":0,"slot":"10","type":"t_mapping(t_uint256,t_mapping(t_address,t_struct(UserInfo)1472_storage))"},{"astId":1511,"contract":"TEXOToken.sol:TEXOOrchestrator","label":"totalAllocPoint","offset":0,"slot":"11","type":"t_uint256"},{"astId":1514,"contract":"TEXOToken.sol:TEXOOrchestrator","label":"refBonusBP","offset":0,"slot":"12","type":"t_uint256"},{"astId":1524,"contract":"TEXOToken.sol:TEXOOrchestrator","label":"referrers","offset":0,"slot":"13","type":"t_mapping(t_address,t_address)"},{"astId":1528,"contract":"TEXOToken.sol:TEXOOrchestrator","label":"referredCount","offset":0,"slot":"14","type":"t_mapping(t_address,t_uint256)"},{"astId":1532,"contract":"TEXOToken.sol:TEXOOrchestrator","label":"poolExistence","offset":0,"slot":"15","type":"t_mapping(t_contract(IBEP20)320,t_bool)"},{"astId":1536,"contract":"TEXOToken.sol:TEXOOrchestrator","label":"poolIdForLpAddress","offset":0,"slot":"16","type":"t_mapping(t_contract(IBEP20)320,t_uint256)"},{"astId":1551,"contract":"TEXOToken.sol:TEXOOrchestrator","label":"lastReductionPeriodIndex","offset":0,"slot":"17","type":"t_uint256"},{"astId":1554,"contract":"TEXOToken.sol:TEXOOrchestrator","label":"isAllowReduceEmissionRate","offset":0,"slot":"18","type":"t_bool"}],"types":{"t_address":{"encoding":"inplace","label":"address","numberOfBytes":"20"},"t_array(t_struct(PoolInfo)1485_storage)dyn_storage":{"base":"t_struct(PoolInfo)1485_storage","encoding":"dynamic_array","label":"struct TEXOOrchestrator.PoolInfo[]","numberOfBytes":"32"},"t_bool":{"encoding":"inplace","label":"bool","numberOfBytes":"1"},"t_contract(IBEP20)320":{"encoding":"inplace","label":"contract IBEP20","numberOfBytes":"20"},"t_contract(TEXOToken)1454":{"encoding":"inplace","label":"contract TEXOToken","numberOfBytes":"20"},"t_mapping(t_address,t_address)":{"encoding":"mapping","key":"t_address","label":"mapping(address => address)","numberOfBytes":"32","value":"t_address"},"t_mapping(t_address,t_struct(UserInfo)1472_storage)":{"encoding":"mapping","key":"t_address","label":"mapping(address => struct TEXOOrchestrator.UserInfo)","numberOfBytes":"32","value":"t_struct(UserInfo)1472_storage"},"t_mapping(t_address,t_uint256)":{"encoding":"mapping","key":"t_address","label":"mapping(address => uint256)","numberOfBytes":"32","value":"t_uint256"},"t_mapping(t_contract(IBEP20)320,t_bool)":{"encoding":"mapping","key":"t_contract(IBEP20)320","label":"mapping(contract IBEP20 => bool)","numberOfBytes":"32","value":"t_bool"},"t_mapping(t_contract(IBEP20)320,t_uint256)":{"encoding":"mapping","key":"t_contract(IBEP20)320","label":"mapping(contract IBEP20 => uint256)","numberOfBytes":"32","value":"t_uint256"},"t_mapping(t_uint256,t_mapping(t_address,t_struct(UserInfo)1472_storage))":{"encoding":"mapping","key":"t_uint256","label":"mapping(uint256 => mapping(address => struct TEXOOrchestrator.UserInfo))","numberOfBytes":"32","value":"t_mapping(t_address,t_struct(UserInfo)1472_storage)"},"t_struct(PoolInfo)1485_storage":{"encoding":"inplace","label":"struct TEXOOrchestrator.PoolInfo","members":[{"astId":1474,"contract":"TEXOToken.sol:TEXOOrchestrator","label":"lpToken","offset":0,"slot":"0","type":"t_contract(IBEP20)320"},{"astId":1476,"contract":"TEXOToken.sol:TEXOOrchestrator","label":"allocPoint","offset":0,"slot":"1","type":"t_uint256"},{"astId":1478,"contract":"TEXOToken.sol:TEXOOrchestrator","label":"blockToReceiveReward","offset":0,"slot":"2","type":"t_uint256"},{"astId":1480,"contract":"TEXOToken.sol:TEXOOrchestrator","label":"lastRewardBlock","offset":0,"slot":"3","type":"t_uint256"},{"astId":1482,"contract":"TEXOToken.sol:TEXOOrchestrator","label":"accTEXOPerShare","offset":0,"slot":"4","type":"t_uint256"},{"astId":1484,"contract":"TEXOToken.sol:TEXOOrchestrator","label":"depositFeeBP","offset":0,"slot":"5","type":"t_uint16"}],"numberOfBytes":"192"},"t_struct(UserInfo)1472_storage":{"encoding":"inplace","label":"struct TEXOOrchestrator.UserInfo","members":[{"astId":1467,"contract":"TEXOToken.sol:TEXOOrchestrator","label":"amount","offset":0,"slot":"0","type":"t_uint256"},{"astId":1469,"contract":"TEXOToken.sol:TEXOOrchestrator","label":"rewardDebt","offset":0,"slot":"1","type":"t_uint256"},{"astId":1471,"contract":"TEXOToken.sol:TEXOOrchestrator","label":"isAlreadyStaked","offset":0,"slot":"2","type":"t_bool"}],"numberOfBytes":"96"},"t_uint16":{"encoding":"inplace","label":"uint16","numberOfBytes":"2"},"t_uint256":{"encoding":"inplace","label":"uint256","numberOfBytes":"32"}}},"userdoc":{"kind":"user","methods":{},"version":1}}