{"abi":[{"inputs":[{"internalType":"contract TEXOToken","name":"_tEXO","type":"address"},{"internalType":"address","name":"_devAddr","type":"address"},{"internalType":"address","name":"_feeAddress","type":"address"},{"internalType":"uint256","name":"_startBlock","type":"uint256"},{"internalType":"uint256","name":"_blockToStartReducingEmissionRate","type":"uint256"},{"internalType":"uint256","name":"_blockToUnlockClaimingRewards","type":"uint256"}],"stateMutability":"nonpayable","type":"constructor"},{"anonymous":false,"inputs":[{"indexed":true,"internalType":"address","name":"user","type":"address"},{"indexed":false,"internalType":"uint256","name":"pid","type":"uint256"},{"indexed":false,"internalType":"uint256","name":"amount","type":"uint256"}],"name":"ClaimReward","type":"event"},{"anonymous":false,"inputs":[{"indexed":true,"internalType":"address","name":"user","type":"address"},{"indexed":true,"internalType":"uint256","name":"pid","type":"uint256"},{"indexed":false,"internalType":"uint256","name":"amount","type":"uint256"}],"name":"Deposit","type":"event"},{"anonymous":false,"inputs":[{"indexed":true,"internalType":"address","name":"user","type":"address"},{"indexed":true,"internalType":"uint256","name":"pid","type":"uint256"},{"indexed":false,"internalType":"uint256","name":"amount","type":"uint256"}],"name":"EmergencyWithdraw","type":"event"},{"anonymous":false,"inputs":[{"indexed":true,"internalType":"address","name":"caller","type":"address"},{"indexed":false,"internalType":"uint256","name":"previousAmount","type":"uint256"},{"indexed":false,"internalType":"uint256","name":"newAmount","type":"uint256"}],"name":"EmissionRateUpdated","type":"event"},{"anonymous":false,"inputs":[{"indexed":true,"internalType":"address","name":"previousOwner","type":"address"},{"indexed":true,"internalType":"address","name":"newOwner","type":"address"}],"name":"OwnershipTransferred","type":"event"},{"anonymous":false,"inputs":[{"indexed":true,"internalType":"address","name":"_referrer","type":"address"},{"indexed":true,"internalType":"address","name":"_user","type":"address"}],"name":"Referral","type":"event"},{"anonymous":false,"inputs":[{"indexed":false,"internalType":"uint256","name":"_oldBp","type":"uint256"},{"indexed":false,"internalType":"uint256","name":"_newBp","type":"uint256"}],"name":"ReferralBonusBpChanged","type":"event"},{"anonymous":false,"inputs":[{"indexed":true,"internalType":"address","name":"_user","type":"address"},{"indexed":true,"internalType":"address","name":"_userTo","type":"address"},{"indexed":false,"internalType":"uint256","name":"_reward","type":"uint256"}],"name":"ReferralPaid","type":"event"},{"anonymous":false,"inputs":[{"indexed":true,"internalType":"address","name":"user","type":"address"},{"indexed":true,"internalType":"address","name":"_feeAddress","type":"address"}],"name":"SetDevAddress","type":"event"},{"anonymous":false,"inputs":[{"indexed":true,"internalType":"address","name":"user","type":"address"},{"indexed":true,"internalType":"address","name":"_devAddress","type":"address"}],"name":"SetFeeAddress","type":"event"},{"anonymous":false,"inputs":[{"indexed":true,"internalType":"address","name":"user","type":"address"},{"indexed":true,"internalType":"uint256","name":"pid","type":"uint256"},{"indexed":false,"internalType":"uint256","name":"amount","type":"uint256"}],"name":"Withdraw","type":"event"},{"inputs":[],"name":"EMISSION_REDUCTION_PERIOD_BLOCKS","outputs":[{"internalType":"uint256","name":"","type":"uint256"}],"stateMutability":"view","type":"function"},{"inputs":[],"name":"EMISSION_REDUCTION_RATE_PER_PERIOD","outputs":[{"internalType":"uint256","name":"","type":"uint256"}],"stateMutability":"view","type":"function"},{"inputs":[],"name":"INITIAL_EMISSION_RATE","outputs":[{"internalType":"uint256","name":"","type":"uint256"}],"stateMutability":"view","type":"function"},{"inputs":[],"name":"MAXIMUM_DEPOSIT_FEE_BP","outputs":[{"internalType":"uint16","name":"","type":"uint16"}],"stateMutability":"view","type":"function"},{"inputs":[],"name":"MAXIMUM_REFERRAL_BP","outputs":[{"internalType":"uint16","name":"","type":"uint16"}],"stateMutability":"view","type":"function"},{"inputs":[],"name":"MINIMUM_EMISSION_RATE","outputs":[{"internalType":"uint256","name":"","type":"uint256"}],"stateMutability":"view","type":"function"},{"inputs":[{"internalType":"uint256","name":"_allocPoint","type":"uint256"},{"internalType":"contract IBEP20","name":"_lpToken","type":"address"},{"internalType":"uint16","name":"_depositFeeBP","type":"uint16"},{"internalType":"bool","name":"_withUpdate","type":"bool"},{"internalType":"uint256","name":"_blockToReceiveReward","type":"uint256"},{"internalType":"uint256","name":"_startGenerateRewardBlock","type":"uint256"},{"internalType":"uint256","name":"_inActiveBlock","type":"uint256"}],"name":"add","outputs":[],"stateMutability":"nonpayable","type":"function"},{"inputs":[],"name":"blockToStartReducingEmissionRate","outputs":[{"internalType":"uint256","name":"","type":"uint256"}],"stateMutability":"view","type":"function"},{"inputs":[{"internalType":"uint256","name":"_pid","type":"uint256"}],"name":"canClaimReward","outputs":[{"internalType":"bool","name":"","type":"bool"}],"stateMutability":"view","type":"function"},{"inputs":[{"internalType":"uint256","name":"_pid","type":"uint256"},{"internalType":"uint256","name":"_amount","type":"uint256"},{"internalType":"address","name":"_referrer","type":"address"}],"name":"deposit","outputs":[],"stateMutability":"nonpayable","type":"function"},{"inputs":[],"name":"devAddr","outputs":[{"internalType":"address","name":"","type":"address"}],"stateMutability":"view","type":"function"},{"inputs":[{"internalType":"uint256","name":"_pid","type":"uint256"}],"name":"emergencyWithdraw","outputs":[],"stateMutability":"nonpayable","type":"function"},{"inputs":[],"name":"feeAddress","outputs":[{"internalType":"address","name":"","type":"address"}],"stateMutability":"view","type":"function"},{"inputs":[{"internalType":"uint256","name":"_from","type":"uint256"},{"internalType":"uint256","name":"_to","type":"uint256"}],"name":"getMultiplier","outputs":[{"internalType":"uint256","name":"","type":"uint256"}],"stateMutability":"pure","type":"function"},{"inputs":[{"internalType":"contract IBEP20","name":"_lpToken","type":"address"}],"name":"getPoolIdForLpToken","outputs":[{"internalType":"uint256","name":"","type":"uint256"}],"stateMutability":"view","type":"function"},{"inputs":[{"internalType":"address","name":"_user","type":"address"}],"name":"getReferral","outputs":[{"internalType":"address","name":"","type":"address"}],"stateMutability":"view","type":"function"},{"inputs":[],"name":"globalBlockToUnlockClaimingRewards","outputs":[{"internalType":"uint256","name":"","type":"uint256"}],"stateMutability":"view","type":"function"},{"inputs":[],"name":"lastReductionPeriodIndex","outputs":[{"internalType":"uint256","name":"","type":"uint256"}],"stateMutability":"view","type":"function"},{"inputs":[],"name":"massUpdatePools","outputs":[],"stateMutability":"nonpayable","type":"function"},{"inputs":[],"name":"owner","outputs":[{"internalType":"address","name":"","type":"address"}],"stateMutability":"view","type":"function"},{"inputs":[{"internalType":"uint256","name":"_pid","type":"uint256"},{"internalType":"address","name":"_user","type":"address"}],"name":"pendingTEXO","outputs":[{"internalType":"uint256","name":"","type":"uint256"}],"stateMutability":"view","type":"function"},{"inputs":[{"internalType":"contract IBEP20","name":"","type":"address"}],"name":"poolExistence","outputs":[{"internalType":"bool","name":"","type":"bool"}],"stateMutability":"view","type":"function"},{"inputs":[{"internalType":"contract IBEP20","name":"","type":"address"}],"name":"poolIdForLpAddress","outputs":[{"internalType":"uint256","name":"","type":"uint256"}],"stateMutability":"view","type":"function"},{"inputs":[{"internalType":"uint256","name":"","type":"uint256"}],"name":"poolInfo","outputs":[{"internalType":"contract IBEP20","name":"lpToken","type":"address"},{"internalType":"uint256","name":"allocPoint","type":"uint256"},{"internalType":"uint256","name":"blockToReceiveReward","type":"uint256"},{"internalType":"uint256","name":"inActiveBlock","type":"uint256"},{"internalType":"uint256","name":"lastRewardBlock","type":"uint256"},{"internalType":"uint256","name":"accTEXOPerShare","type":"uint256"},{"internalType":"uint16","name":"depositFeeBP","type":"uint16"}],"stateMutability":"view","type":"function"},{"inputs":[],"name":"poolLength","outputs":[{"internalType":"uint256","name":"","type":"uint256"}],"stateMutability":"view","type":"function"},{"inputs":[],"name":"reduceEmissionRateWithDefaultRate","outputs":[],"stateMutability":"nonpayable","type":"function"},{"inputs":[],"name":"refBonusBP","outputs":[{"internalType":"uint256","name":"","type":"uint256"}],"stateMutability":"view","type":"function"},{"inputs":[{"internalType":"address","name":"","type":"address"}],"name":"referredCount","outputs":[{"internalType":"uint256","name":"","type":"uint256"}],"stateMutability":"view","type":"function"},{"inputs":[{"internalType":"address","name":"","type":"address"}],"name":"referrers","outputs":[{"internalType":"address","name":"","type":"address"}],"stateMutability":"view","type":"function"},{"inputs":[],"name":"renounceOwnership","outputs":[],"stateMutability":"nonpayable","type":"function"},{"inputs":[{"internalType":"uint256","name":"_pid","type":"uint256"},{"internalType":"uint256","name":"_allocPoint","type":"uint256"},{"internalType":"uint16","name":"_depositFeeBP","type":"uint16"},{"internalType":"bool","name":"_withUpdate","type":"bool"},{"internalType":"uint256","name":"_blockToReceiveReward","type":"uint256"},{"internalType":"uint256","name":"_inActiveBlock","type":"uint256"}],"name":"set","outputs":[],"stateMutability":"nonpayable","type":"function"},{"inputs":[{"internalType":"address","name":"_devaddr","type":"address"}],"name":"setDevAddress","outputs":[],"stateMutability":"nonpayable","type":"function"},{"inputs":[{"internalType":"uint256","name":"newEmissionRate","type":"uint256"}],"name":"setEmissionRate","outputs":[],"stateMutability":"nonpayable","type":"function"},{"inputs":[{"internalType":"address","name":"_feeAddress","type":"address"}],"name":"setFeeAddress","outputs":[],"stateMutability":"nonpayable","type":"function"},{"inputs":[],"name":"tEXO","outputs":[{"internalType":"contract TEXOToken","name":"","type":"address"}],"stateMutability":"view","type":"function"},{"inputs":[],"name":"tEXOPerBlock","outputs":[{"internalType":"uint256","name":"","type":"uint256"}],"stateMutability":"view","type":"function"},{"inputs":[],"name":"totalAllocPoint","outputs":[{"internalType":"uint256","name":"","type":"uint256"}],"stateMutability":"view","type":"function"},{"inputs":[{"internalType":"address","name":"newOwner","type":"address"}],"name":"transferOwnership","outputs":[],"stateMutability":"nonpayable","type":"function"},{"inputs":[{"internalType":"uint256","name":"_pid","type":"uint256"}],"name":"updatePool","outputs":[],"stateMutability":"nonpayable","type":"function"},{"inputs":[{"internalType":"uint256","name":"_newRefBonusBp","type":"uint256"}],"name":"updateReferralBonusBp","outputs":[],"stateMutability":"nonpayable","type":"function"},{"inputs":[{"internalType":"uint256","name":"","type":"uint256"},{"internalType":"address","name":"","type":"address"}],"name":"userInfo","outputs":[{"internalType":"uint256","name":"amount","type":"uint256"},{"internalType":"uint256","name":"rewardDebt","type":"uint256"},{"internalType":"uint256","name":"rewardLockedUp","type":"uint256"}],"stateMutability":"view","type":"function"},{"inputs":[{"internalType":"uint256","name":"_pid","type":"uint256"},{"internalType":"uint256","name":"_amount","type":"uint256"}],"name":"withdraw","outputs":[],"stateMutability":"nonpayable","type":"function"}],"devdoc":{"kind":"dev","methods":{"owner()":{"details":"Returns the address of the current owner."},"renounceOwnership()":{"details":"Leaves the contract without owner. It will not be possible to call `onlyOwner` functions anymore. Can only be called by the current owner. NOTE: Renouncing ownership will leave the contract without an owner, thereby removing any functionality that is only available to the owner."},"transferOwnership(address)":{"details":"Transfers ownership of the contract to a new account (`newOwner`). Can only be called by the current owner."}},"version":1},"evm":{"assembly":"    /* \"TEXOOrchestrator.sol\":192:19638  contract TEXOOrchestrator is Ownable, ReentrancyGuard {... */\n  mstore(0x40, 0x80)\n    /* \"TEXOOrchestrator.sol\":2597:2598  0 */\n  0x00\n    /* \"TEXOOrchestrator.sol\":2564:2598  uint256 public totalAllocPoint = 0 */\n  0x0b\n  sstore\n    /* \"TEXOOrchestrator.sol\":2691:2694  200 */\n  0xc8\n    /* \"TEXOOrchestrator.sol\":2663:2694  uint256 public refBonusBP = 200 */\n  0x0c\n  sstore\n    /* \"TEXOOrchestrator.sol\":3820:3821  0 */\n  0x00\n    /* \"TEXOOrchestrator.sol\":3778:3821  uint256 public lastReductionPeriodIndex = 0 */\n  0x11\n  sstore\n    /* \"TEXOOrchestrator.sol\":4653:5210  constructor(... */\n  callvalue\n  dup1\n  iszero\n  tag_1\n  jumpi\n  0x00\n  dup1\n  revert\ntag_1:\n  pop\n  mload(0x40)\n  sub(codesize, bytecodeSize)\n  dup1\n  bytecodeSize\n  dup4\n  codecopy\n  dup2\n  dup2\n  add\n  0x40\n  mstore\n  0xc0\n  dup2\n  lt\n  iszero\n  tag_2\n  jumpi\n  0x00\n  dup1\n  revert\ntag_2:\n  dup2\n  add\n  swap1\n  dup1\n  dup1\n  mload\n  swap1\n  0x20\n  add\n  swap1\n  swap3\n  swap2\n  swap1\n  dup1\n  mload\n  swap1\n  0x20\n  add\n  swap1\n  swap3\n  swap2\n  swap1\n  dup1\n  mload\n  swap1\n  0x20\n  add\n  swap1\n  swap3\n  swap2\n  swap1\n  dup1\n  mload\n  swap1\n  0x20\n  add\n  swap1\n  swap3\n  swap2\n  swap1\n  dup1\n  mload\n  swap1\n  0x20\n  add\n  swap1\n  swap3\n  swap2\n  swap1\n  dup1\n  mload\n  swap1\n  0x20\n  add\n  swap1\n  swap3\n  swap2\n  swap1\n  pop\n  pop\n  pop\n    /* \"Ownable.sol\":874:891  address msgSender */\n  0x00\n    /* \"Ownable.sol\":894:906  _msgSender() */\n  tag_9\n    /* \"Ownable.sol\":894:904  _msgSender */\n  shl(0x20, tag_10)\n    /* \"Ownable.sol\":894:906  _msgSender() */\n  0x20\n  shr\n  jump\t// in\ntag_9:\n    /* \"Ownable.sol\":874:906  address msgSender = _msgSender() */\n  swap1\n  pop\n    /* \"Ownable.sol\":925:934  msgSender */\n  dup1\n    /* \"Ownable.sol\":916:922  _owner */\n  0x00\n  dup1\n    /* \"Ownable.sol\":916:934  _owner = msgSender */\n  0x0100\n  exp\n  dup2\n  sload\n  dup2\n  0xffffffffffffffffffffffffffffffffffffffff\n  mul\n  not\n  and\n  swap1\n  dup4\n  0xffffffffffffffffffffffffffffffffffffffff\n  and\n  mul\n  or\n  swap1\n  sstore\n  pop\n    /* \"Ownable.sol\":982:991  msgSender */\n  dup1\n    /* \"Ownable.sol\":949:992  OwnershipTransferred(address(0), msgSender) */\n  0xffffffffffffffffffffffffffffffffffffffff\n  and\n    /* \"Ownable.sol\":978:979  0 */\n  0x00\n    /* \"Ownable.sol\":949:992  OwnershipTransferred(address(0), msgSender) */\n  0xffffffffffffffffffffffffffffffffffffffff\n  and\n  0x8be0079c531659141344cd1fd0a4f28419497f9722a3daafe3b4186f6b6457e0\n  mload(0x40)\n  mload(0x40)\n  dup1\n  swap2\n  sub\n  swap1\n  log3\n    /* \"Ownable.sol\":841:999  constructor() internal {... */\n  pop\n    /* \"ReentrancyGuard.sol\":1637:1638  1 */\n  0x01\n    /* \"ReentrancyGuard.sol\":1752:1759  _status */\n  dup1\n    /* \"ReentrancyGuard.sol\":1752:1774  _status = _NOT_ENTERED */\n  dup2\n  swap1\n  sstore\n  pop\n    /* \"TEXOOrchestrator.sol\":4902:4907  _tEXO */\n  dup6\n    /* \"TEXOOrchestrator.sol\":4895:4899  tEXO */\n  0x02\n  0x00\n    /* \"TEXOOrchestrator.sol\":4895:4907  tEXO = _tEXO */\n  0x0100\n  exp\n  dup2\n  sload\n  dup2\n  0xffffffffffffffffffffffffffffffffffffffff\n  mul\n  not\n  and\n  swap1\n  dup4\n  0xffffffffffffffffffffffffffffffffffffffff\n  and\n  mul\n  or\n  swap1\n  sstore\n  pop\n    /* \"TEXOOrchestrator.sol\":4927:4935  _devAddr */\n  dup5\n    /* \"TEXOOrchestrator.sol\":4917:4924  devAddr */\n  0x03\n  0x00\n    /* \"TEXOOrchestrator.sol\":4917:4935  devAddr = _devAddr */\n  0x0100\n  exp\n  dup2\n  sload\n  dup2\n  0xffffffffffffffffffffffffffffffffffffffff\n  mul\n  not\n  and\n  swap1\n  dup4\n  0xffffffffffffffffffffffffffffffffffffffff\n  and\n  mul\n  or\n  swap1\n  sstore\n  pop\n    /* \"TEXOOrchestrator.sol\":4958:4969  _feeAddress */\n  dup4\n    /* \"TEXOOrchestrator.sol\":4945:4955  feeAddress */\n  0x05\n  0x00\n    /* \"TEXOOrchestrator.sol\":4945:4969  feeAddress = _feeAddress */\n  0x0100\n  exp\n  dup2\n  sload\n  dup2\n  0xffffffffffffffffffffffffffffffffffffffff\n  mul\n  not\n  and\n  swap1\n  dup4\n  0xffffffffffffffffffffffffffffffffffffffff\n  and\n  mul\n  or\n  swap1\n  sstore\n  pop\n    /* \"TEXOOrchestrator.sol\":3351:3361  500 finney */\n  0x06f05b59d3b20000\n    /* \"TEXOOrchestrator.sol\":4979:4991  tEXOPerBlock */\n  0x04\n    /* \"TEXOOrchestrator.sol\":4979:5015  tEXOPerBlock = INITIAL_EMISSION_RATE */\n  dup2\n  swap1\n  sstore\n  pop\n    /* \"TEXOOrchestrator.sol\":5038:5049  _startBlock */\n  dup3\n    /* \"TEXOOrchestrator.sol\":5025:5035  startBlock */\n  0x08\n    /* \"TEXOOrchestrator.sol\":5025:5049  startBlock = _startBlock */\n  dup2\n  swap1\n  sstore\n  pop\n    /* \"TEXOOrchestrator.sol\":5094:5127  _blockToStartReducingEmissionRate */\n  dup2\n    /* \"TEXOOrchestrator.sol\":5059:5091  blockToStartReducingEmissionRate */\n  0x06\n    /* \"TEXOOrchestrator.sol\":5059:5127  blockToStartReducingEmissionRate = _blockToStartReducingEmissionRate */\n  dup2\n  swap1\n  sstore\n  pop\n    /* \"TEXOOrchestrator.sol\":5174:5203  _blockToUnlockClaimingRewards */\n  dup1\n    /* \"TEXOOrchestrator.sol\":5137:5171  globalBlockToUnlockClaimingRewards */\n  0x07\n    /* \"TEXOOrchestrator.sol\":5137:5203  globalBlockToUnlockClaimingRewards = _blockToUnlockClaimingRewards */\n  dup2\n  swap1\n  sstore\n  pop\n    /* \"TEXOOrchestrator.sol\":4653:5210  constructor(... */\n  pop\n  pop\n  pop\n  pop\n  pop\n  pop\n    /* \"TEXOOrchestrator.sol\":192:19638  contract TEXOOrchestrator is Ownable, ReentrancyGuard {... */\n  jump(tag_13)\n    /* \"Context.sol\":780:876  function _msgSender() internal view returns (address payable) {... */\ntag_10:\n    /* \"Context.sol\":825:840  address payable */\n  0x00\n    /* \"Context.sol\":859:869  msg.sender */\n  caller\n    /* \"Context.sol\":852:869  return msg.sender */\n  swap1\n  pop\n    /* \"Context.sol\":780:876  function _msgSender() internal view returns (address payable) {... */\n  swap1\n  jump\t// out\n    /* \"TEXOOrchestrator.sol\":192:19638  contract TEXOOrchestrator is Ownable, ReentrancyGuard {... */\ntag_13:\n  dataSize(sub_0)\n  dup1\n  dataOffset(sub_0)\n  0x00\n  codecopy\n  0x00\n  return\nstop\n\nsub_0: assembly {\n        /* \"TEXOOrchestrator.sol\":192:19638  contract TEXOOrchestrator is Ownable, ReentrancyGuard {... */\n      mstore(0x40, 0x80)\n      callvalue\n      dup1\n      iszero\n      tag_1\n      jumpi\n      0x00\n      dup1\n      revert\n    tag_1:\n      pop\n      jumpi(tag_2, lt(calldatasize, 0x04))\n      shr(0xe0, calldataload(0x00))\n      dup1\n      0x715018a6\n      gt\n      tag_45\n      jumpi\n      dup1\n      0xa1bdb15e\n      gt\n      tag_46\n      jumpi\n      dup1\n      0xd0d41fe1\n      gt\n      tag_47\n      jumpi\n      dup1\n      0xd0d41fe1\n      eq\n      tag_39\n      jumpi\n      dup1\n      0xd4adafdf\n      eq\n      tag_40\n      jumpi\n      dup1\n      0xda09c72c\n      eq\n      tag_41\n      jumpi\n      dup1\n      0xdfe3d2cd\n      eq\n      tag_42\n      jumpi\n      dup1\n      0xea76bc29\n      eq\n      tag_43\n      jumpi\n      dup1\n      0xf2fde38b\n      eq\n      tag_44\n      jumpi\n      jump(tag_2)\n    tag_47:\n      dup1\n      0xa1bdb15e\n      eq\n      tag_34\n      jumpi\n      dup1\n      0xae715d70\n      eq\n      tag_35\n      jumpi\n      dup1\n      0xb7eee1f1\n      eq\n      tag_36\n      jumpi\n      dup1\n      0xca291b13\n      eq\n      tag_37\n      jumpi\n      dup1\n      0xcbd258b5\n      eq\n      tag_38\n      jumpi\n      jump(tag_2)\n    tag_46:\n      dup1\n      0x91bb809c\n      gt\n      tag_48\n      jumpi\n      dup1\n      0x91bb809c\n      eq\n      tag_29\n      jumpi\n      dup1\n      0x93f1a40b\n      eq\n      tag_30\n      jumpi\n      dup1\n      0x955c9b93\n      eq\n      tag_31\n      jumpi\n      dup1\n      0x9bf62f7e\n      eq\n      tag_32\n      jumpi\n      dup1\n      0xa1515333\n      eq\n      tag_33\n      jumpi\n      jump(tag_2)\n    tag_48:\n      dup1\n      0x715018a6\n      eq\n      tag_24\n      jumpi\n      dup1\n      0x8705fcd4\n      eq\n      tag_25\n      jumpi\n      dup1\n      0x8da5cb5b\n      eq\n      tag_26\n      jumpi\n      dup1\n      0x8dbb1e3a\n      eq\n      tag_27\n      jumpi\n      dup1\n      0x8dbdbe6d\n      eq\n      tag_28\n      jumpi\n      jump(tag_2)\n    tag_45:\n      dup1\n      0x441a3e70\n      gt\n      tag_49\n      jumpi\n      dup1\n      0x61e0c468\n      gt\n      tag_50\n      jumpi\n      dup1\n      0x61e0c468\n      eq\n      tag_18\n      jumpi\n      dup1\n      0x630b5ba1\n      eq\n      tag_19\n      jumpi\n      dup1\n      0x64ed743b\n      eq\n      tag_20\n      jumpi\n      dup1\n      0x660f8340\n      eq\n      tag_21\n      jumpi\n      dup1\n      0x66f685ea\n      eq\n      tag_22\n      jumpi\n      dup1\n      0x6a9a7660\n      eq\n      tag_23\n      jumpi\n      jump(tag_2)\n    tag_50:\n      dup1\n      0x441a3e70\n      eq\n      tag_13\n      jumpi\n      dup1\n      0x4a3b68cc\n      eq\n      tag_14\n      jumpi\n      dup1\n      0x51eb05a6\n      eq\n      tag_15\n      jumpi\n      dup1\n      0x5312ea8e\n      eq\n      tag_16\n      jumpi\n      dup1\n      0x54324b58\n      eq\n      tag_17\n      jumpi\n      jump(tag_2)\n    tag_49:\n      dup1\n      0x190f39f0\n      gt\n      tag_51\n      jumpi\n      dup1\n      0x190f39f0\n      eq\n      tag_8\n      jumpi\n      dup1\n      0x3a22df78\n      eq\n      tag_9\n      jumpi\n      dup1\n      0x3b0f0f2f\n      eq\n      tag_10\n      jumpi\n      dup1\n      0x3f7b06d8\n      eq\n      tag_11\n      jumpi\n      dup1\n      0x41275358\n      eq\n      tag_12\n      jumpi\n      jump(tag_2)\n    tag_51:\n      dup1\n      0x0326f66d\n      eq\n      tag_3\n      jumpi\n      dup1\n      0x081e3eda\n      eq\n      tag_4\n      jumpi\n      dup1\n      0x0b844523\n      eq\n      tag_5\n      jumpi\n      dup1\n      0x1526fe27\n      eq\n      tag_6\n      jumpi\n      dup1\n      0x17caf6f1\n      eq\n      tag_7\n      jumpi\n    tag_2:\n      0x00\n      dup1\n      revert\n        /* \"TEXOOrchestrator.sol\":7193:8074  function set(... */\n    tag_3:\n      tag_52\n      0x04\n      dup1\n      calldatasize\n      sub\n      0xc0\n      dup2\n      lt\n      iszero\n      tag_53\n      jumpi\n      0x00\n      dup1\n      revert\n    tag_53:\n      dup2\n      add\n      swap1\n      dup1\n      dup1\n      calldataload\n      swap1\n      0x20\n      add\n      swap1\n      swap3\n      swap2\n      swap1\n      dup1\n      calldataload\n      swap1\n      0x20\n      add\n      swap1\n      swap3\n      swap2\n      swap1\n      dup1\n      calldataload\n      0xffff\n      and\n      swap1\n      0x20\n      add\n      swap1\n      swap3\n      swap2\n      swap1\n      dup1\n      calldataload\n      iszero\n      iszero\n      swap1\n      0x20\n      add\n      swap1\n      swap3\n      swap2\n      swap1\n      dup1\n      calldataload\n      swap1\n      0x20\n      add\n      swap1\n      swap3\n      swap2\n      swap1\n      dup1\n      calldataload\n      swap1\n      0x20\n      add\n      swap1\n      swap3\n      swap2\n      swap1\n      pop\n      pop\n      pop\n      tag_54\n      jump\t// in\n    tag_52:\n      stop\n        /* \"TEXOOrchestrator.sol\":5250:5343  function poolLength() external view returns (uint256) {... */\n    tag_4:\n      tag_55\n      tag_56\n      jump\t// in\n    tag_55:\n      mload(0x40)\n      dup1\n      dup3\n      dup2\n      mstore\n      0x20\n      add\n      swap2\n      pop\n      pop\n      mload(0x40)\n      dup1\n      swap2\n      sub\n      swap1\n      return\n        /* \"TEXOOrchestrator.sol\":5824:7084  function add(... */\n    tag_5:\n      tag_57\n      0x04\n      dup1\n      calldatasize\n      sub\n      0xe0\n      dup2\n      lt\n      iszero\n      tag_58\n      jumpi\n      0x00\n      dup1\n      revert\n    tag_58:\n      dup2\n      add\n      swap1\n      dup1\n      dup1\n      calldataload\n      swap1\n      0x20\n      add\n      swap1\n      swap3\n      swap2\n      swap1\n      dup1\n      calldataload\n      0xffffffffffffffffffffffffffffffffffffffff\n      and\n      swap1\n      0x20\n      add\n      swap1\n      swap3\n      swap2\n      swap1\n      dup1\n      calldataload\n      0xffff\n      and\n      swap1\n      0x20\n      add\n      swap1\n      swap3\n      swap2\n      swap1\n      dup1\n      calldataload\n      iszero\n      iszero\n      swap1\n      0x20\n      add\n      swap1\n      swap3\n      swap2\n      swap1\n      dup1\n      calldataload\n      swap1\n      0x20\n      add\n      swap1\n      swap3\n      swap2\n      swap1\n      dup1\n      calldataload\n      swap1\n      0x20\n      add\n      swap1\n      swap3\n      swap2\n      swap1\n      dup1\n      calldataload\n      swap1\n      0x20\n      add\n      swap1\n      swap3\n      swap2\n      swap1\n      pop\n      pop\n      pop\n      tag_59\n      jump\t// in\n    tag_57:\n      stop\n        /* \"TEXOOrchestrator.sol\":2327:2353  PoolInfo[] public poolInfo */\n    tag_6:\n      tag_60\n      0x04\n      dup1\n      calldatasize\n      sub\n      0x20\n      dup2\n      lt\n      iszero\n      tag_61\n      jumpi\n      0x00\n      dup1\n      revert\n    tag_61:\n      dup2\n      add\n      swap1\n      dup1\n      dup1\n      calldataload\n      swap1\n      0x20\n      add\n      swap1\n      swap3\n      swap2\n      swap1\n      pop\n      pop\n      pop\n      tag_62\n      jump\t// in\n    tag_60:\n      mload(0x40)\n      dup1\n      dup9\n      0xffffffffffffffffffffffffffffffffffffffff\n      and\n      dup2\n      mstore\n      0x20\n      add\n      dup8\n      dup2\n      mstore\n      0x20\n      add\n      dup7\n      dup2\n      mstore\n      0x20\n      add\n      dup6\n      dup2\n      mstore\n      0x20\n      add\n      dup5\n      dup2\n      mstore\n      0x20\n      add\n      dup4\n      dup2\n      mstore\n      0x20\n      add\n      dup3\n      0xffff\n      and\n      dup2\n      mstore\n      0x20\n      add\n      swap8\n      pop\n      pop\n      pop\n      pop\n      pop\n      pop\n      pop\n      pop\n      mload(0x40)\n      dup1\n      swap2\n      sub\n      swap1\n      return\n        /* \"TEXOOrchestrator.sol\":2564:2598  uint256 public totalAllocPoint = 0 */\n    tag_7:\n      tag_63\n      tag_64\n      jump\t// in\n    tag_63:\n      mload(0x40)\n      dup1\n      dup3\n      dup2\n      mstore\n      0x20\n      add\n      swap2\n      pop\n      pop\n      mload(0x40)\n      dup1\n      swap2\n      sub\n      swap1\n      return\n        /* \"TEXOOrchestrator.sol\":5349:5567  function getPoolIdForLpToken(IBEP20 _lpToken) external view returns (uint256) {... */\n    tag_8:\n      tag_65\n      0x04\n      dup1\n      calldatasize\n      sub\n      0x20\n      dup2\n      lt\n      iszero\n      tag_66\n      jumpi\n      0x00\n      dup1\n      revert\n    tag_66:\n      dup2\n      add\n      swap1\n      dup1\n      dup1\n      calldataload\n      0xffffffffffffffffffffffffffffffffffffffff\n      and\n      swap1\n      0x20\n      add\n      swap1\n      swap3\n      swap2\n      swap1\n      pop\n      pop\n      pop\n      tag_67\n      jump\t// in\n    tag_65:\n      mload(0x40)\n      dup1\n      dup3\n      dup2\n      mstore\n      0x20\n      add\n      swap2\n      pop\n      pop\n      mload(0x40)\n      dup1\n      swap2\n      sub\n      swap1\n      return\n        /* \"TEXOOrchestrator.sol\":2827:2876  uint16 public constant MAXIMUM_REFERRAL_BP = 2000 */\n    tag_9:\n      tag_68\n      tag_69\n      jump\t// in\n    tag_68:\n      mload(0x40)\n      dup1\n      dup3\n      0xffff\n      and\n      dup2\n      mstore\n      0x20\n      add\n      swap2\n      pop\n      pop\n      mload(0x40)\n      dup1\n      swap2\n      sub\n      swap1\n      return\n        /* \"TEXOOrchestrator.sol\":18418:18524  function getReferral(address _user) public view returns (address) {... */\n    tag_10:\n      tag_70\n      0x04\n      dup1\n      calldatasize\n      sub\n      0x20\n      dup2\n      lt\n      iszero\n      tag_71\n      jumpi\n      0x00\n      dup1\n      revert\n    tag_71:\n      dup2\n      add\n      swap1\n      dup1\n      dup1\n      calldataload\n      0xffffffffffffffffffffffffffffffffffffffff\n      and\n      swap1\n      0x20\n      add\n      swap1\n      swap3\n      swap2\n      swap1\n      pop\n      pop\n      pop\n      tag_72\n      jump\t// in\n    tag_70:\n      mload(0x40)\n      dup1\n      dup3\n      0xffffffffffffffffffffffffffffffffffffffff\n      and\n      dup2\n      mstore\n      0x20\n      add\n      swap2\n      pop\n      pop\n      mload(0x40)\n      dup1\n      swap2\n      sub\n      swap1\n      return\n        /* \"TEXOOrchestrator.sol\":2995:3043  mapping(address => uint256) public referredCount */\n    tag_11:\n      tag_73\n      0x04\n      dup1\n      calldatasize\n      sub\n      0x20\n      dup2\n      lt\n      iszero\n      tag_74\n      jumpi\n      0x00\n      dup1\n      revert\n    tag_74:\n      dup2\n      add\n      swap1\n      dup1\n      dup1\n      calldataload\n      0xffffffffffffffffffffffffffffffffffffffff\n      and\n      swap1\n      0x20\n      add\n      swap1\n      swap3\n      swap2\n      swap1\n      pop\n      pop\n      pop\n      tag_75\n      jump\t// in\n    tag_73:\n      mload(0x40)\n      dup1\n      dup3\n      dup2\n      mstore\n      0x20\n      add\n      swap2\n      pop\n      pop\n      mload(0x40)\n      dup1\n      swap2\n      sub\n      swap1\n      return\n        /* \"TEXOOrchestrator.sol\":2049:2074  address public feeAddress */\n    tag_12:\n      tag_76\n      tag_77\n      jump\t// in\n    tag_76:\n      mload(0x40)\n      dup1\n      dup3\n      0xffffffffffffffffffffffffffffffffffffffff\n      and\n      dup2\n      mstore\n      0x20\n      add\n      swap2\n      pop\n      pop\n      mload(0x40)\n      dup1\n      swap2\n      sub\n      swap1\n      return\n        /* \"TEXOOrchestrator.sol\":13173:13799  function withdraw(uint256 _pid, uint256 _amount) public nonReentrant {... */\n    tag_13:\n      tag_78\n      0x04\n      dup1\n      calldatasize\n      sub\n      0x40\n      dup2\n      lt\n      iszero\n      tag_79\n      jumpi\n      0x00\n      dup1\n      revert\n    tag_79:\n      dup2\n      add\n      swap1\n      dup1\n      dup1\n      calldataload\n      swap1\n      0x20\n      add\n      swap1\n      swap3\n      swap2\n      swap1\n      dup1\n      calldataload\n      swap1\n      0x20\n      add\n      swap1\n      swap3\n      swap2\n      swap1\n      pop\n      pop\n      pop\n      tag_80\n      jump\t// in\n    tag_78:\n      stop\n        /* \"TEXOOrchestrator.sol\":2906:2950  mapping(address => address) public referrers */\n    tag_14:\n      tag_81\n      0x04\n      dup1\n      calldatasize\n      sub\n      0x20\n      dup2\n      lt\n      iszero\n      tag_82\n      jumpi\n      0x00\n      dup1\n      revert\n    tag_82:\n      dup2\n      add\n      swap1\n      dup1\n      dup1\n      calldataload\n      0xffffffffffffffffffffffffffffffffffffffff\n      and\n      swap1\n      0x20\n      add\n      swap1\n      swap3\n      swap2\n      swap1\n      pop\n      pop\n      pop\n      tag_83\n      jump\t// in\n    tag_81:\n      mload(0x40)\n      dup1\n      dup3\n      0xffffffffffffffffffffffffffffffffffffffff\n      and\n      dup2\n      mstore\n      0x20\n      add\n      swap2\n      pop\n      pop\n      mload(0x40)\n      dup1\n      swap2\n      sub\n      swap1\n      return\n        /* \"TEXOOrchestrator.sol\":10107:11505  function updatePool(uint256 _pid) public {... */\n    tag_15:\n      tag_84\n      0x04\n      dup1\n      calldatasize\n      sub\n      0x20\n      dup2\n      lt\n      iszero\n      tag_85\n      jumpi\n      0x00\n      dup1\n      revert\n    tag_85:\n      dup2\n      add\n      swap1\n      dup1\n      dup1\n      calldataload\n      swap1\n      0x20\n      add\n      swap1\n      swap3\n      swap2\n      swap1\n      pop\n      pop\n      pop\n      tag_86\n      jump\t// in\n    tag_84:\n      stop\n        /* \"TEXOOrchestrator.sol\":14708:15072  function emergencyWithdraw(uint256 _pid) public nonReentrant {... */\n    tag_16:\n      tag_87\n      0x04\n      dup1\n      calldatasize\n      sub\n      0x20\n      dup2\n      lt\n      iszero\n      tag_88\n      jumpi\n      0x00\n      dup1\n      revert\n    tag_88:\n      dup2\n      add\n      swap1\n      dup1\n      dup1\n      calldataload\n      swap1\n      0x20\n      add\n      swap1\n      swap3\n      swap2\n      swap1\n      pop\n      pop\n      pop\n      tag_89\n      jump\t// in\n    tag_87:\n      stop\n        /* \"TEXOOrchestrator.sol\":2134:2181  uint256 public blockToStartReducingEmissionRate */\n    tag_17:\n      tag_90\n      tag_91\n      jump\t// in\n    tag_90:\n      mload(0x40)\n      dup1\n      dup3\n      dup2\n      mstore\n      0x20\n      add\n      swap2\n      pop\n      pop\n      mload(0x40)\n      dup1\n      swap2\n      sub\n      swap1\n      return\n        /* \"TEXOOrchestrator.sol\":3418:3476  uint256 public constant MINIMUM_EMISSION_RATE = 100 finney */\n    tag_18:\n      tag_92\n      tag_93\n      jump\t// in\n    tag_92:\n      mload(0x40)\n      dup1\n      dup3\n      dup2\n      mstore\n      0x20\n      add\n      swap2\n      pop\n      pop\n      mload(0x40)\n      dup1\n      swap2\n      sub\n      swap1\n      return\n        /* \"TEXOOrchestrator.sol\":9859:10034  function massUpdatePools() public {... */\n    tag_19:\n      tag_94\n      tag_95\n      jump\t// in\n    tag_94:\n      stop\n        /* \"TEXOOrchestrator.sol\":19189:19636  function updateReferralBonusBp(uint256 _newRefBonusBp) public onlyOwner {... */\n    tag_20:\n      tag_96\n      0x04\n      dup1\n      calldatasize\n      sub\n      0x20\n      dup2\n      lt\n      iszero\n      tag_97\n      jumpi\n      0x00\n      dup1\n      revert\n    tag_97:\n      dup2\n      add\n      swap1\n      dup1\n      dup1\n      calldataload\n      swap1\n      0x20\n      add\n      swap1\n      swap3\n      swap2\n      swap1\n      pop\n      pop\n      pop\n      tag_98\n      jump\t// in\n    tag_96:\n      stop\n        /* \"TEXOOrchestrator.sol\":1989:2016  uint256 public tEXOPerBlock */\n    tag_21:\n      tag_99\n      tag_100\n      jump\t// in\n    tag_99:\n      mload(0x40)\n      dup1\n      dup3\n      dup2\n      mstore\n      0x20\n      add\n      swap2\n      pop\n      pop\n      mload(0x40)\n      dup1\n      swap2\n      sub\n      swap1\n      return\n        /* \"TEXOOrchestrator.sol\":2663:2694  uint256 public refBonusBP = 200 */\n    tag_22:\n      tag_101\n      tag_102\n      jump\t// in\n    tag_101:\n      mload(0x40)\n      dup1\n      dup3\n      dup2\n      mstore\n      0x20\n      add\n      swap2\n      pop\n      pop\n      mload(0x40)\n      dup1\n      swap2\n      sub\n      swap1\n      return\n        /* \"TEXOOrchestrator.sol\":3778:3821  uint256 public lastReductionPeriodIndex = 0 */\n    tag_23:\n      tag_103\n      tag_104\n      jump\t// in\n    tag_103:\n      mload(0x40)\n      dup1\n      dup3\n      dup2\n      mstore\n      0x20\n      add\n      swap2\n      pop\n      pop\n      mload(0x40)\n      dup1\n      swap2\n      sub\n      swap1\n      return\n        /* \"Ownable.sol\":1698:1835  function renounceOwnership() public onlyOwner {... */\n    tag_24:\n      tag_105\n      tag_106\n      jump\t// in\n    tag_105:\n      stop\n        /* \"TEXOOrchestrator.sol\":15969:16265  function setFeeAddress(address _feeAddress) public {... */\n    tag_25:\n      tag_107\n      0x04\n      dup1\n      calldatasize\n      sub\n      0x20\n      dup2\n      lt\n      iszero\n      tag_108\n      jumpi\n      0x00\n      dup1\n      revert\n    tag_108:\n      dup2\n      add\n      swap1\n      dup1\n      dup1\n      calldataload\n      0xffffffffffffffffffffffffffffffffffffffff\n      and\n      swap1\n      0x20\n      add\n      swap1\n      swap3\n      swap2\n      swap1\n      pop\n      pop\n      pop\n      tag_109\n      jump\t// in\n    tag_107:\n      stop\n        /* \"Ownable.sol\":1075:1152  function owner() public view returns (address) {... */\n    tag_26:\n      tag_110\n      tag_111\n      jump\t// in\n    tag_110:\n      mload(0x40)\n      dup1\n      dup3\n      0xffffffffffffffffffffffffffffffffffffffff\n      and\n      dup2\n      mstore\n      0x20\n      add\n      swap2\n      pop\n      pop\n      mload(0x40)\n      dup1\n      swap2\n      sub\n      swap1\n      return\n        /* \"TEXOOrchestrator.sol\":8147:8266  function getMultiplier(uint256 _from, uint256 _to) public pure returns (uint256) {... */\n    tag_27:\n      tag_112\n      0x04\n      dup1\n      calldatasize\n      sub\n      0x40\n      dup2\n      lt\n      iszero\n      tag_113\n      jumpi\n      0x00\n      dup1\n      revert\n    tag_113:\n      dup2\n      add\n      swap1\n      dup1\n      dup1\n      calldataload\n      swap1\n      0x20\n      add\n      swap1\n      swap3\n      swap2\n      swap1\n      dup1\n      calldataload\n      swap1\n      0x20\n      add\n      swap1\n      swap3\n      swap2\n      swap1\n      pop\n      pop\n      pop\n      tag_114\n      jump\t// in\n    tag_112:\n      mload(0x40)\n      dup1\n      dup3\n      dup2\n      mstore\n      0x20\n      add\n      swap2\n      pop\n      pop\n      mload(0x40)\n      dup1\n      swap2\n      sub\n      swap1\n      return\n        /* \"TEXOOrchestrator.sol\":11770:13124  function deposit(uint256 _pid, uint256 _amount, address _referrer) public nonReentrant {... */\n    tag_28:\n      tag_115\n      0x04\n      dup1\n      calldatasize\n      sub\n      0x60\n      dup2\n      lt\n      iszero\n      tag_116\n      jumpi\n      0x00\n      dup1\n      revert\n    tag_116:\n      dup2\n      add\n      swap1\n      dup1\n      dup1\n      calldataload\n      swap1\n      0x20\n      add\n      swap1\n      swap3\n      swap2\n      swap1\n      dup1\n      calldataload\n      swap1\n      0x20\n      add\n      swap1\n      swap3\n      swap2\n      swap1\n      dup1\n      calldataload\n      0xffffffffffffffffffffffffffffffffffffffff\n      and\n      swap1\n      0x20\n      add\n      swap1\n      swap3\n      swap2\n      swap1\n      pop\n      pop\n      pop\n      tag_117\n      jump\t// in\n    tag_115:\n      stop\n        /* \"TEXOOrchestrator.sol\":3303:3361  uint256 public constant INITIAL_EMISSION_RATE = 500 finney */\n    tag_29:\n      tag_118\n      tag_119\n      jump\t// in\n    tag_118:\n      mload(0x40)\n      dup1\n      dup3\n      dup2\n      mstore\n      0x20\n      add\n      swap2\n      pop\n      pop\n      mload(0x40)\n      dup1\n      swap2\n      sub\n      swap1\n      return\n        /* \"TEXOOrchestrator.sol\":2407:2471  mapping(uint256 => mapping(address => UserInfo)) public userInfo */\n    tag_30:\n      tag_120\n      0x04\n      dup1\n      calldatasize\n      sub\n      0x40\n      dup2\n      lt\n      iszero\n      tag_121\n      jumpi\n      0x00\n      dup1\n      revert\n    tag_121:\n      dup2\n      add\n      swap1\n      dup1\n      dup1\n      calldataload\n      swap1\n      0x20\n      add\n      swap1\n      swap3\n      swap2\n      swap1\n      dup1\n      calldataload\n      0xffffffffffffffffffffffffffffffffffffffff\n      and\n      swap1\n      0x20\n      add\n      swap1\n      swap3\n      swap2\n      swap1\n      pop\n      pop\n      pop\n      tag_122\n      jump\t// in\n    tag_120:\n      mload(0x40)\n      dup1\n      dup5\n      dup2\n      mstore\n      0x20\n      add\n      dup4\n      dup2\n      mstore\n      0x20\n      add\n      dup3\n      dup2\n      mstore\n      0x20\n      add\n      swap4\n      pop\n      pop\n      pop\n      pop\n      mload(0x40)\n      dup1\n      swap2\n      sub\n      swap1\n      return\n        /* \"TEXOOrchestrator.sol\":2728:2779  uint16 public constant MAXIMUM_DEPOSIT_FEE_BP = 400 */\n    tag_31:\n      tag_123\n      tag_124\n      jump\t// in\n    tag_123:\n      mload(0x40)\n      dup1\n      dup3\n      0xffff\n      and\n      dup2\n      mstore\n      0x20\n      add\n      swap2\n      pop\n      pop\n      mload(0x40)\n      dup1\n      swap2\n      sub\n      swap1\n      return\n        /* \"TEXOOrchestrator.sol\":3194:3246  mapping(IBEP20 => uint256) public poolIdForLpAddress */\n    tag_32:\n      tag_125\n      0x04\n      dup1\n      calldatasize\n      sub\n      0x20\n      dup2\n      lt\n      iszero\n      tag_126\n      jumpi\n      0x00\n      dup1\n      revert\n    tag_126:\n      dup2\n      add\n      swap1\n      dup1\n      dup1\n      calldataload\n      0xffffffffffffffffffffffffffffffffffffffff\n      and\n      swap1\n      0x20\n      add\n      swap1\n      swap3\n      swap2\n      swap1\n      pop\n      pop\n      pop\n      tag_127\n      jump\t// in\n    tag_125:\n      mload(0x40)\n      dup1\n      dup3\n      dup2\n      mstore\n      0x20\n      add\n      swap2\n      pop\n      pop\n      mload(0x40)\n      dup1\n      swap2\n      sub\n      swap1\n      return\n        /* \"TEXOOrchestrator.sol\":2188:2237  uint256 public globalBlockToUnlockClaimingRewards */\n    tag_33:\n      tag_128\n      tag_129\n      jump\t// in\n    tag_128:\n      mload(0x40)\n      dup1\n      dup3\n      dup2\n      mstore\n      0x20\n      add\n      swap2\n      pop\n      pop\n      mload(0x40)\n      dup1\n      swap2\n      sub\n      swap1\n      return\n        /* \"TEXOOrchestrator.sol\":17703:17984  function setEmissionRate(uint256 newEmissionRate) public onlyOwner {... */\n    tag_34:\n      tag_130\n      0x04\n      dup1\n      calldatasize\n      sub\n      0x20\n      dup2\n      lt\n      iszero\n      tag_131\n      jumpi\n      0x00\n      dup1\n      revert\n    tag_131:\n      dup2\n      add\n      swap1\n      dup1\n      dup1\n      calldataload\n      swap1\n      0x20\n      add\n      swap1\n      swap3\n      swap2\n      swap1\n      pop\n      pop\n      pop\n      tag_132\n      jump\t// in\n    tag_130:\n      stop\n        /* \"TEXOOrchestrator.sol\":1876:1897  TEXOToken public tEXO */\n    tag_35:\n      tag_133\n      tag_134\n      jump\t// in\n    tag_133:\n      mload(0x40)\n      dup1\n      dup3\n      0xffffffffffffffffffffffffffffffffffffffff\n      and\n      dup2\n      mstore\n      0x20\n      add\n      swap2\n      pop\n      pop\n      mload(0x40)\n      dup1\n      swap2\n      sub\n      swap1\n      return\n        /* \"TEXOOrchestrator.sol\":3672:3737  uint256 public constant EMISSION_REDUCTION_RATE_PER_PERIOD = 1500 */\n    tag_36:\n      tag_135\n      tag_136\n      jump\t// in\n    tag_135:\n      mload(0x40)\n      dup1\n      dup3\n      dup2\n      mstore\n      0x20\n      add\n      swap2\n      pop\n      pop\n      mload(0x40)\n      dup1\n      swap2\n      sub\n      swap1\n      return\n        /* \"TEXOOrchestrator.sol\":11511:11690  function canClaimReward(uint256 _pid) public view returns (bool) {... */\n    tag_37:\n      tag_137\n      0x04\n      dup1\n      calldatasize\n      sub\n      0x20\n      dup2\n      lt\n      iszero\n      tag_138\n      jumpi\n      0x00\n      dup1\n      revert\n    tag_138:\n      dup2\n      add\n      swap1\n      dup1\n      dup1\n      calldataload\n      swap1\n      0x20\n      add\n      swap1\n      swap3\n      swap2\n      swap1\n      pop\n      pop\n      pop\n      tag_139\n      jump\t// in\n    tag_137:\n      mload(0x40)\n      dup1\n      dup3\n      iszero\n      iszero\n      dup2\n      mstore\n      0x20\n      add\n      swap2\n      pop\n      pop\n      mload(0x40)\n      dup1\n      swap2\n      sub\n      swap1\n      return\n        /* \"TEXOOrchestrator.sol\":3114:3158  mapping(IBEP20 => bool) public poolExistence */\n    tag_38:\n      tag_140\n      0x04\n      dup1\n      calldatasize\n      sub\n      0x20\n      dup2\n      lt\n      iszero\n      tag_141\n      jumpi\n      0x00\n      dup1\n      revert\n    tag_141:\n      dup2\n      add\n      swap1\n      dup1\n      dup1\n      calldataload\n      0xffffffffffffffffffffffffffffffffffffffff\n      and\n      swap1\n      0x20\n      add\n      swap1\n      swap3\n      swap2\n      swap1\n      pop\n      pop\n      pop\n      tag_142\n      jump\t// in\n    tag_140:\n      mload(0x40)\n      dup1\n      dup3\n      iszero\n      iszero\n      dup2\n      mstore\n      0x20\n      add\n      swap2\n      pop\n      pop\n      mload(0x40)\n      dup1\n      swap2\n      sub\n      swap1\n      return\n        /* \"TEXOOrchestrator.sol\":15655:15908  function setDevAddress(address _devaddr) public {... */\n    tag_39:\n      tag_143\n      0x04\n      dup1\n      calldatasize\n      sub\n      0x20\n      dup2\n      lt\n      iszero\n      tag_144\n      jumpi\n      0x00\n      dup1\n      revert\n    tag_144:\n      dup2\n      add\n      swap1\n      dup1\n      dup1\n      calldataload\n      0xffffffffffffffffffffffffffffffffffffffff\n      and\n      swap1\n      0x20\n      add\n      swap1\n      swap3\n      swap2\n      swap1\n      pop\n      pop\n      pop\n      tag_145\n      jump\t// in\n    tag_143:\n      stop\n        /* \"TEXOOrchestrator.sol\":3538:3602  uint256 public constant EMISSION_REDUCTION_PERIOD_BLOCKS = 28800 */\n    tag_40:\n      tag_146\n      tag_147\n      jump\t// in\n    tag_146:\n      mload(0x40)\n      dup1\n      dup3\n      dup2\n      mstore\n      0x20\n      add\n      swap2\n      pop\n      pop\n      mload(0x40)\n      dup1\n      swap2\n      sub\n      swap1\n      return\n        /* \"TEXOOrchestrator.sol\":1923:1945  address public devAddr */\n    tag_41:\n      tag_148\n      tag_149\n      jump\t// in\n    tag_148:\n      mload(0x40)\n      dup1\n      dup3\n      0xffffffffffffffffffffffffffffffffffffffff\n      and\n      dup2\n      mstore\n      0x20\n      add\n      swap2\n      pop\n      pop\n      mload(0x40)\n      dup1\n      swap2\n      sub\n      swap1\n      return\n        /* \"TEXOOrchestrator.sol\":8327:9455  function pendingTEXO(uint256 _pid, address _user) external view returns (uint256) {... */\n    tag_42:\n      tag_150\n      0x04\n      dup1\n      calldatasize\n      sub\n      0x40\n      dup2\n      lt\n      iszero\n      tag_151\n      jumpi\n      0x00\n      dup1\n      revert\n    tag_151:\n      dup2\n      add\n      swap1\n      dup1\n      dup1\n      calldataload\n      swap1\n      0x20\n      add\n      swap1\n      swap3\n      swap2\n      swap1\n      dup1\n      calldataload\n      0xffffffffffffffffffffffffffffffffffffffff\n      and\n      swap1\n      0x20\n      add\n      swap1\n      swap3\n      swap2\n      swap1\n      pop\n      pop\n      pop\n      tag_152\n      jump\t// in\n    tag_150:\n      mload(0x40)\n      dup1\n      dup3\n      dup2\n      mstore\n      0x20\n      add\n      swap2\n      pop\n      pop\n      mload(0x40)\n      dup1\n      swap2\n      sub\n      swap1\n      return\n        /* \"TEXOOrchestrator.sol\":16410:17697  function reduceEmissionRateWithDefaultRate() public {... */\n    tag_43:\n      tag_153\n      tag_154\n      jump\t// in\n    tag_153:\n      stop\n        /* \"Ownable.sol\":1984:2091  function transferOwnership(address newOwner) public onlyOwner {... */\n    tag_44:\n      tag_155\n      0x04\n      dup1\n      calldatasize\n      sub\n      0x20\n      dup2\n      lt\n      iszero\n      tag_156\n      jumpi\n      0x00\n      dup1\n      revert\n    tag_156:\n      dup2\n      add\n      swap1\n      dup1\n      dup1\n      calldataload\n      0xffffffffffffffffffffffffffffffffffffffff\n      and\n      swap1\n      0x20\n      add\n      swap1\n      swap3\n      swap2\n      swap1\n      pop\n      pop\n      pop\n      tag_157\n      jump\t// in\n    tag_155:\n      stop\n        /* \"TEXOOrchestrator.sol\":7193:8074  function set(... */\n    tag_54:\n        /* \"Ownable.sol\":1289:1301  _msgSender() */\n      tag_159\n        /* \"Ownable.sol\":1289:1299  _msgSender */\n      tag_160\n        /* \"Ownable.sol\":1289:1301  _msgSender() */\n      jump\t// in\n    tag_159:\n        /* \"Ownable.sol\":1279:1301  _owner == _msgSender() */\n      0xffffffffffffffffffffffffffffffffffffffff\n      and\n        /* \"Ownable.sol\":1279:1285  _owner */\n      0x00\n      dup1\n      sload\n      swap1\n      0x0100\n      exp\n      swap1\n      div\n      0xffffffffffffffffffffffffffffffffffffffff\n      and\n        /* \"Ownable.sol\":1279:1301  _owner == _msgSender() */\n      0xffffffffffffffffffffffffffffffffffffffff\n      and\n      eq\n        /* \"Ownable.sol\":1271:1338  require(_owner == _msgSender(), 'Ownable: caller is not the owner') */\n      tag_161\n      jumpi\n      mload(0x40)\n      0x08c379a000000000000000000000000000000000000000000000000000000000\n      dup2\n      mstore\n      0x04\n      add\n      dup1\n      dup1\n      0x20\n      add\n      dup3\n      dup2\n      sub\n      dup3\n      mstore\n      0x20\n      dup2\n      mstore\n      0x20\n      add\n      dup1\n      0x4f776e61626c653a2063616c6c6572206973206e6f7420746865206f776e6572\n      dup2\n      mstore\n      pop\n      0x20\n      add\n      swap2\n      pop\n      pop\n      mload(0x40)\n      dup1\n      swap2\n      sub\n      swap1\n      revert\n    tag_161:\n        /* \"TEXOOrchestrator.sol\":2776:2779  400 */\n      0x0190\n        /* \"TEXOOrchestrator.sol\":7425:7464  _depositFeeBP <= MAXIMUM_DEPOSIT_FEE_BP */\n      0xffff\n      and\n        /* \"TEXOOrchestrator.sol\":7425:7438  _depositFeeBP */\n      dup5\n        /* \"TEXOOrchestrator.sol\":7425:7464  _depositFeeBP <= MAXIMUM_DEPOSIT_FEE_BP */\n      0xffff\n      and\n      gt\n      iszero\n        /* \"TEXOOrchestrator.sol\":7417:7506  require(_depositFeeBP <= MAXIMUM_DEPOSIT_FEE_BP, \"set: invalid deposit fee basis points\") */\n      tag_163\n      jumpi\n      mload(0x40)\n      0x08c379a000000000000000000000000000000000000000000000000000000000\n      dup2\n      mstore\n      0x04\n      add\n      dup1\n      dup1\n      0x20\n      add\n      dup3\n      dup2\n      sub\n      dup3\n      mstore\n      0x25\n      dup2\n      mstore\n      0x20\n      add\n      dup1\n      data_9353dfb5d58f0da66015bbcadafa0686e2e7b7226db2e603088e70c7012680cf\n      0x25\n      swap2\n      codecopy\n      0x40\n      add\n      swap2\n      pop\n      pop\n      mload(0x40)\n      dup1\n      swap2\n      sub\n      swap1\n      revert\n    tag_163:\n        /* \"TEXOOrchestrator.sol\":7520:7531  _withUpdate */\n      dup3\n        /* \"TEXOOrchestrator.sol\":7516:7575  if (_withUpdate) {... */\n      iszero\n      tag_164\n      jumpi\n        /* \"TEXOOrchestrator.sol\":7547:7564  massUpdatePools() */\n      tag_165\n        /* \"TEXOOrchestrator.sol\":7547:7562  massUpdatePools */\n      tag_95\n        /* \"TEXOOrchestrator.sol\":7547:7564  massUpdatePools() */\n      jump\t// in\n    tag_165:\n        /* \"TEXOOrchestrator.sol\":7516:7575  if (_withUpdate) {... */\n    tag_164:\n        /* \"TEXOOrchestrator.sol\":7585:7613  uint256 blockToReceiveReward */\n      0x00\n        /* \"TEXOOrchestrator.sol\":7640:7641  0 */\n      dup1\n        /* \"TEXOOrchestrator.sol\":7616:7637  _blockToReceiveReward */\n      dup4\n        /* \"TEXOOrchestrator.sol\":7616:7641  _blockToReceiveReward > 0 */\n      gt\n        /* \"TEXOOrchestrator.sol\":7616:7702  _blockToReceiveReward > 0 ? _blockToReceiveReward : globalBlockToUnlockClaimingRewards */\n      tag_166\n      jumpi\n        /* \"TEXOOrchestrator.sol\":7668:7702  globalBlockToUnlockClaimingRewards */\n      sload(0x07)\n        /* \"TEXOOrchestrator.sol\":7616:7702  _blockToReceiveReward > 0 ? _blockToReceiveReward : globalBlockToUnlockClaimingRewards */\n      jump(tag_167)\n    tag_166:\n        /* \"TEXOOrchestrator.sol\":7644:7665  _blockToReceiveReward */\n      dup3\n        /* \"TEXOOrchestrator.sol\":7616:7702  _blockToReceiveReward > 0 ? _blockToReceiveReward : globalBlockToUnlockClaimingRewards */\n    tag_167:\n        /* \"TEXOOrchestrator.sol\":7585:7702  uint256 blockToReceiveReward = _blockToReceiveReward > 0 ? _blockToReceiveReward : globalBlockToUnlockClaimingRewards */\n      swap1\n      pop\n        /* \"TEXOOrchestrator.sol\":7731:7816  totalAllocPoint.sub(poolInfo[_pid].allocPoint).add(... */\n      tag_168\n        /* \"TEXOOrchestrator.sol\":7795:7806  _allocPoint */\n      dup7\n        /* \"TEXOOrchestrator.sol\":7731:7777  totalAllocPoint.sub(poolInfo[_pid].allocPoint) */\n      tag_169\n        /* \"TEXOOrchestrator.sol\":7751:7759  poolInfo */\n      0x09\n        /* \"TEXOOrchestrator.sol\":7760:7764  _pid */\n      dup11\n        /* \"TEXOOrchestrator.sol\":7751:7765  poolInfo[_pid] */\n      dup2\n      sload\n      dup2\n      lt\n      tag_170\n      jumpi\n      invalid\n    tag_170:\n      swap1\n      0x00\n      mstore\n      keccak256(0x00, 0x20)\n      swap1\n      0x07\n      mul\n      add\n        /* \"TEXOOrchestrator.sol\":7751:7776  poolInfo[_pid].allocPoint */\n      0x01\n      add\n      sload\n        /* \"TEXOOrchestrator.sol\":7731:7746  totalAllocPoint */\n      sload(0x0b)\n        /* \"TEXOOrchestrator.sol\":7731:7750  totalAllocPoint.sub */\n      tag_172\n      swap1\n        /* \"TEXOOrchestrator.sol\":7731:7777  totalAllocPoint.sub(poolInfo[_pid].allocPoint) */\n      swap2\n      swap1\n      0xffffffff\n      and\n      jump\t// in\n    tag_169:\n        /* \"TEXOOrchestrator.sol\":7731:7781  totalAllocPoint.sub(poolInfo[_pid].allocPoint).add */\n      tag_173\n      swap1\n        /* \"TEXOOrchestrator.sol\":7731:7816  totalAllocPoint.sub(poolInfo[_pid].allocPoint).add(... */\n      swap2\n      swap1\n      0xffffffff\n      and\n      jump\t// in\n    tag_168:\n        /* \"TEXOOrchestrator.sol\":7713:7728  totalAllocPoint */\n      0x0b\n        /* \"TEXOOrchestrator.sol\":7713:7816  totalAllocPoint = totalAllocPoint.sub(poolInfo[_pid].allocPoint).add(... */\n      dup2\n      swap1\n      sstore\n      pop\n        /* \"TEXOOrchestrator.sol\":7855:7866  _allocPoint */\n      dup6\n        /* \"TEXOOrchestrator.sol\":7827:7835  poolInfo */\n      0x09\n        /* \"TEXOOrchestrator.sol\":7836:7840  _pid */\n      dup9\n        /* \"TEXOOrchestrator.sol\":7827:7841  poolInfo[_pid] */\n      dup2\n      sload\n      dup2\n      lt\n      tag_174\n      jumpi\n      invalid\n    tag_174:\n      swap1\n      0x00\n      mstore\n      keccak256(0x00, 0x20)\n      swap1\n      0x07\n      mul\n      add\n        /* \"TEXOOrchestrator.sol\":7827:7852  poolInfo[_pid].allocPoint */\n      0x01\n      add\n        /* \"TEXOOrchestrator.sol\":7827:7866  poolInfo[_pid].allocPoint = _allocPoint */\n      dup2\n      swap1\n      sstore\n      pop\n        /* \"TEXOOrchestrator.sol\":7906:7919  _depositFeeBP */\n      dup5\n        /* \"TEXOOrchestrator.sol\":7876:7884  poolInfo */\n      0x09\n        /* \"TEXOOrchestrator.sol\":7885:7889  _pid */\n      dup9\n        /* \"TEXOOrchestrator.sol\":7876:7890  poolInfo[_pid] */\n      dup2\n      sload\n      dup2\n      lt\n      tag_176\n      jumpi\n      invalid\n    tag_176:\n      swap1\n      0x00\n      mstore\n      keccak256(0x00, 0x20)\n      swap1\n      0x07\n      mul\n      add\n        /* \"TEXOOrchestrator.sol\":7876:7903  poolInfo[_pid].depositFeeBP */\n      0x06\n      add\n      0x00\n        /* \"TEXOOrchestrator.sol\":7876:7919  poolInfo[_pid].depositFeeBP = _depositFeeBP */\n      0x0100\n      exp\n      dup2\n      sload\n      dup2\n      0xffff\n      mul\n      not\n      and\n      swap1\n      dup4\n      0xffff\n      and\n      mul\n      or\n      swap1\n      sstore\n      pop\n        /* \"TEXOOrchestrator.sol\":7967:7987  blockToReceiveReward */\n      dup1\n        /* \"TEXOOrchestrator.sol\":7929:7937  poolInfo */\n      0x09\n        /* \"TEXOOrchestrator.sol\":7938:7942  _pid */\n      dup9\n        /* \"TEXOOrchestrator.sol\":7929:7943  poolInfo[_pid] */\n      dup2\n      sload\n      dup2\n      lt\n      tag_178\n      jumpi\n      invalid\n    tag_178:\n      swap1\n      0x00\n      mstore\n      keccak256(0x00, 0x20)\n      swap1\n      0x07\n      mul\n      add\n        /* \"TEXOOrchestrator.sol\":7929:7964  poolInfo[_pid].blockToReceiveReward */\n      0x02\n      add\n        /* \"TEXOOrchestrator.sol\":7929:7987  poolInfo[_pid].blockToReceiveReward = blockToReceiveReward */\n      dup2\n      swap1\n      sstore\n      pop\n        /* \"TEXOOrchestrator.sol\":8045:8046  0 */\n      0x00\n        /* \"TEXOOrchestrator.sol\":8028:8042  _inActiveBlock */\n      dup3\n        /* \"TEXOOrchestrator.sol\":8028:8046  _inActiveBlock > 0 */\n      gt\n        /* \"TEXOOrchestrator.sol\":8028:8067  _inActiveBlock > 0 ? _inActiveBlock : 0 */\n      tag_180\n      jumpi\n        /* \"TEXOOrchestrator.sol\":8066:8067  0 */\n      0x00\n        /* \"TEXOOrchestrator.sol\":8028:8067  _inActiveBlock > 0 ? _inActiveBlock : 0 */\n      jump(tag_181)\n    tag_180:\n        /* \"TEXOOrchestrator.sol\":8049:8063  _inActiveBlock */\n      dup2\n        /* \"TEXOOrchestrator.sol\":8028:8067  _inActiveBlock > 0 ? _inActiveBlock : 0 */\n    tag_181:\n        /* \"TEXOOrchestrator.sol\":7997:8005  poolInfo */\n      0x09\n        /* \"TEXOOrchestrator.sol\":8006:8010  _pid */\n      dup9\n        /* \"TEXOOrchestrator.sol\":7997:8011  poolInfo[_pid] */\n      dup2\n      sload\n      dup2\n      lt\n      tag_182\n      jumpi\n      invalid\n    tag_182:\n      swap1\n      0x00\n      mstore\n      keccak256(0x00, 0x20)\n      swap1\n      0x07\n      mul\n      add\n        /* \"TEXOOrchestrator.sol\":7997:8025  poolInfo[_pid].inActiveBlock */\n      0x03\n      add\n        /* \"TEXOOrchestrator.sol\":7997:8067  poolInfo[_pid].inActiveBlock = _inActiveBlock > 0 ? _inActiveBlock : 0 */\n      dup2\n      swap1\n      sstore\n      pop\n        /* \"Ownable.sol\":1348:1349  _ */\n      pop\n        /* \"TEXOOrchestrator.sol\":7193:8074  function set(... */\n      pop\n      pop\n      pop\n      pop\n      pop\n      pop\n      jump\t// out\n        /* \"TEXOOrchestrator.sol\":5250:5343  function poolLength() external view returns (uint256) {... */\n    tag_56:\n        /* \"TEXOOrchestrator.sol\":5295:5302  uint256 */\n      0x00\n        /* \"TEXOOrchestrator.sol\":5321:5329  poolInfo */\n      0x09\n        /* \"TEXOOrchestrator.sol\":5321:5336  poolInfo.length */\n      dup1\n      sload\n      swap1\n      pop\n        /* \"TEXOOrchestrator.sol\":5314:5336  return poolInfo.length */\n      swap1\n      pop\n        /* \"TEXOOrchestrator.sol\":5250:5343  function poolLength() external view returns (uint256) {... */\n      swap1\n      jump\t// out\n        /* \"TEXOOrchestrator.sol\":5824:7084  function add(... */\n    tag_59:\n        /* \"Ownable.sol\":1289:1301  _msgSender() */\n      tag_186\n        /* \"Ownable.sol\":1289:1299  _msgSender */\n      tag_160\n        /* \"Ownable.sol\":1289:1301  _msgSender() */\n      jump\t// in\n    tag_186:\n        /* \"Ownable.sol\":1279:1301  _owner == _msgSender() */\n      0xffffffffffffffffffffffffffffffffffffffff\n      and\n        /* \"Ownable.sol\":1279:1285  _owner */\n      0x00\n      dup1\n      sload\n      swap1\n      0x0100\n      exp\n      swap1\n      div\n      0xffffffffffffffffffffffffffffffffffffffff\n      and\n        /* \"Ownable.sol\":1279:1301  _owner == _msgSender() */\n      0xffffffffffffffffffffffffffffffffffffffff\n      and\n      eq\n        /* \"Ownable.sol\":1271:1338  require(_owner == _msgSender(), 'Ownable: caller is not the owner') */\n      tag_187\n      jumpi\n      mload(0x40)\n      0x08c379a000000000000000000000000000000000000000000000000000000000\n      dup2\n      mstore\n      0x04\n      add\n      dup1\n      dup1\n      0x20\n      add\n      dup3\n      dup2\n      sub\n      dup3\n      mstore\n      0x20\n      dup2\n      mstore\n      0x20\n      add\n      dup1\n      0x4f776e61626c653a2063616c6c6572206973206e6f7420746865206f776e6572\n      dup2\n      mstore\n      pop\n      0x20\n      add\n      swap2\n      pop\n      pop\n      mload(0x40)\n      dup1\n      swap2\n      sub\n      swap1\n      revert\n    tag_187:\n        /* \"TEXOOrchestrator.sol\":6098:6106  _lpToken */\n      dup6\n        /* \"TEXOOrchestrator.sol\":5699:5704  false */\n      0x00\n        /* \"TEXOOrchestrator.sol\":5672:5704  poolExistence[_lpToken] == false */\n      iszero\n      iszero\n        /* \"TEXOOrchestrator.sol\":5672:5685  poolExistence */\n      0x0f\n        /* \"TEXOOrchestrator.sol\":5672:5695  poolExistence[_lpToken] */\n      0x00\n        /* \"TEXOOrchestrator.sol\":5686:5694  _lpToken */\n      dup4\n        /* \"TEXOOrchestrator.sol\":5672:5695  poolExistence[_lpToken] */\n      0xffffffffffffffffffffffffffffffffffffffff\n      and\n      0xffffffffffffffffffffffffffffffffffffffff\n      and\n      dup2\n      mstore\n      0x20\n      add\n      swap1\n      dup2\n      mstore\n      0x20\n      add\n      0x00\n      keccak256\n      0x00\n      swap1\n      sload\n      swap1\n      0x0100\n      exp\n      swap1\n      div\n      0xff\n      and\n        /* \"TEXOOrchestrator.sol\":5672:5704  poolExistence[_lpToken] == false */\n      iszero\n      iszero\n      eq\n        /* \"TEXOOrchestrator.sol\":5664:5734  require(poolExistence[_lpToken] == false, \"nonDuplicated: duplicated\") */\n      tag_189\n      jumpi\n      mload(0x40)\n      0x08c379a000000000000000000000000000000000000000000000000000000000\n      dup2\n      mstore\n      0x04\n      add\n      dup1\n      dup1\n      0x20\n      add\n      dup3\n      dup2\n      sub\n      dup3\n      mstore\n      0x19\n      dup2\n      mstore\n      0x20\n      add\n      dup1\n      0x6e6f6e4475706c6963617465643a206475706c69636174656400000000000000\n      dup2\n      mstore\n      pop\n      0x20\n      add\n      swap2\n      pop\n      pop\n      mload(0x40)\n      dup1\n      swap2\n      sub\n      swap1\n      revert\n    tag_189:\n        /* \"TEXOOrchestrator.sol\":2776:2779  400 */\n      0x0190\n        /* \"TEXOOrchestrator.sol\":6126:6165  _depositFeeBP <= MAXIMUM_DEPOSIT_FEE_BP */\n      0xffff\n      and\n        /* \"TEXOOrchestrator.sol\":6126:6139  _depositFeeBP */\n      dup7\n        /* \"TEXOOrchestrator.sol\":6126:6165  _depositFeeBP <= MAXIMUM_DEPOSIT_FEE_BP */\n      0xffff\n      and\n      gt\n      iszero\n        /* \"TEXOOrchestrator.sol\":6118:6207  require(_depositFeeBP <= MAXIMUM_DEPOSIT_FEE_BP, \"add: invalid deposit fee basis points\") */\n      tag_191\n      jumpi\n      mload(0x40)\n      0x08c379a000000000000000000000000000000000000000000000000000000000\n      dup2\n      mstore\n      0x04\n      add\n      dup1\n      dup1\n      0x20\n      add\n      dup3\n      dup2\n      sub\n      dup3\n      mstore\n      0x25\n      dup2\n      mstore\n      0x20\n      add\n      dup1\n      data_0ecf01aeb804f0ae223eada9d16893a9009cdcbe208d348705dc613f9a9f5331\n      0x25\n      swap2\n      codecopy\n      0x40\n      add\n      swap2\n      pop\n      pop\n      mload(0x40)\n      dup1\n      swap2\n      sub\n      swap1\n      revert\n    tag_191:\n        /* \"TEXOOrchestrator.sol\":6222:6233  _withUpdate */\n      dup5\n        /* \"TEXOOrchestrator.sol\":6218:6277  if (_withUpdate) {... */\n      iszero\n      tag_192\n      jumpi\n        /* \"TEXOOrchestrator.sol\":6249:6266  massUpdatePools() */\n      tag_193\n        /* \"TEXOOrchestrator.sol\":6249:6264  massUpdatePools */\n      tag_95\n        /* \"TEXOOrchestrator.sol\":6249:6266  massUpdatePools() */\n      jump\t// in\n    tag_193:\n        /* \"TEXOOrchestrator.sol\":6218:6277  if (_withUpdate) {... */\n    tag_192:\n        /* \"TEXOOrchestrator.sol\":6287:6315  uint256 blockToReceiveReward */\n      0x00\n        /* \"TEXOOrchestrator.sol\":6342:6343  0 */\n      dup1\n        /* \"TEXOOrchestrator.sol\":6318:6339  _blockToReceiveReward */\n      dup6\n        /* \"TEXOOrchestrator.sol\":6318:6343  _blockToReceiveReward > 0 */\n      gt\n        /* \"TEXOOrchestrator.sol\":6318:6404  _blockToReceiveReward > 0 ? _blockToReceiveReward : globalBlockToUnlockClaimingRewards */\n      tag_194\n      jumpi\n        /* \"TEXOOrchestrator.sol\":6370:6404  globalBlockToUnlockClaimingRewards */\n      sload(0x07)\n        /* \"TEXOOrchestrator.sol\":6318:6404  _blockToReceiveReward > 0 ? _blockToReceiveReward : globalBlockToUnlockClaimingRewards */\n      jump(tag_195)\n    tag_194:\n        /* \"TEXOOrchestrator.sol\":6346:6367  _blockToReceiveReward */\n      dup5\n        /* \"TEXOOrchestrator.sol\":6318:6404  _blockToReceiveReward > 0 ? _blockToReceiveReward : globalBlockToUnlockClaimingRewards */\n    tag_195:\n        /* \"TEXOOrchestrator.sol\":6287:6404  uint256 blockToReceiveReward = _blockToReceiveReward > 0 ? _blockToReceiveReward : globalBlockToUnlockClaimingRewards */\n      swap1\n      pop\n        /* \"TEXOOrchestrator.sol\":6433:6465  totalAllocPoint.add(_allocPoint) */\n      tag_196\n        /* \"TEXOOrchestrator.sol\":6453:6464  _allocPoint */\n      dup10\n        /* \"TEXOOrchestrator.sol\":6433:6448  totalAllocPoint */\n      sload(0x0b)\n        /* \"TEXOOrchestrator.sol\":6433:6452  totalAllocPoint.add */\n      tag_173\n      swap1\n        /* \"TEXOOrchestrator.sol\":6433:6465  totalAllocPoint.add(_allocPoint) */\n      swap2\n      swap1\n      0xffffffff\n      and\n      jump\t// in\n    tag_196:\n        /* \"TEXOOrchestrator.sol\":6415:6430  totalAllocPoint */\n      0x0b\n        /* \"TEXOOrchestrator.sol\":6415:6465  totalAllocPoint = totalAllocPoint.add(_allocPoint) */\n      dup2\n      swap1\n      sstore\n      pop\n        /* \"TEXOOrchestrator.sol\":6501:6505  true */\n      0x01\n        /* \"TEXOOrchestrator.sol\":6475:6488  poolExistence */\n      0x0f\n        /* \"TEXOOrchestrator.sol\":6475:6498  poolExistence[_lpToken] */\n      0x00\n        /* \"TEXOOrchestrator.sol\":6489:6497  _lpToken */\n      dup11\n        /* \"TEXOOrchestrator.sol\":6475:6498  poolExistence[_lpToken] */\n      0xffffffffffffffffffffffffffffffffffffffff\n      and\n      0xffffffffffffffffffffffffffffffffffffffff\n      and\n      dup2\n      mstore\n      0x20\n      add\n      swap1\n      dup2\n      mstore\n      0x20\n      add\n      0x00\n      keccak256\n      0x00\n        /* \"TEXOOrchestrator.sol\":6475:6505  poolExistence[_lpToken] = true */\n      0x0100\n      exp\n      dup2\n      sload\n      dup2\n      0xff\n      mul\n      not\n      and\n      swap1\n      dup4\n      iszero\n      iszero\n      mul\n      or\n      swap1\n      sstore\n      pop\n        /* \"TEXOOrchestrator.sol\":6516:6524  poolInfo */\n      0x09\n        /* \"TEXOOrchestrator.sol\":6543:7006  PoolInfo({... */\n      mload(0x40)\n      dup1\n      0xe0\n      add\n      0x40\n      mstore\n      dup1\n        /* \"TEXOOrchestrator.sol\":6579:6587  _lpToken */\n      dup11\n        /* \"TEXOOrchestrator.sol\":6543:7006  PoolInfo({... */\n      0xffffffffffffffffffffffffffffffffffffffff\n      and\n      dup2\n      mstore\n      0x20\n      add\n        /* \"TEXOOrchestrator.sol\":6617:6628  _allocPoint */\n      dup12\n        /* \"TEXOOrchestrator.sol\":6543:7006  PoolInfo({... */\n      dup2\n      mstore\n      0x20\n      add\n        /* \"TEXOOrchestrator.sol\":6899:6919  blockToReceiveReward */\n      dup4\n        /* \"TEXOOrchestrator.sol\":6543:7006  PoolInfo({... */\n      dup2\n      mstore\n      0x20\n      add\n        /* \"TEXOOrchestrator.sol\":6969:6970  0 */\n      0x00\n        /* \"TEXOOrchestrator.sol\":6952:6966  _inActiveBlock */\n      dup7\n        /* \"TEXOOrchestrator.sol\":6952:6970  _inActiveBlock > 0 */\n      gt\n        /* \"TEXOOrchestrator.sol\":6952:6991  _inActiveBlock > 0 ? _inActiveBlock : 0 */\n      tag_197\n      jumpi\n        /* \"TEXOOrchestrator.sol\":6990:6991  0 */\n      0x00\n        /* \"TEXOOrchestrator.sol\":6952:6991  _inActiveBlock > 0 ? _inActiveBlock : 0 */\n      jump(tag_198)\n    tag_197:\n        /* \"TEXOOrchestrator.sol\":6973:6987  _inActiveBlock */\n      dup6\n        /* \"TEXOOrchestrator.sol\":6952:6991  _inActiveBlock > 0 ? _inActiveBlock : 0 */\n    tag_198:\n        /* \"TEXOOrchestrator.sol\":6543:7006  PoolInfo({... */\n      dup2\n      mstore\n      0x20\n      add\n        /* \"TEXOOrchestrator.sol\":6691:6692  0 */\n      0x00\n        /* \"TEXOOrchestrator.sol\":6663:6688  _startGenerateRewardBlock */\n      dup8\n        /* \"TEXOOrchestrator.sol\":6663:6692  _startGenerateRewardBlock > 0 */\n      gt\n        /* \"TEXOOrchestrator.sol\":6663:6778  _startGenerateRewardBlock > 0 ? _startGenerateRewardBlock : (block.number > startBlock ? block.number : startBlock) */\n      tag_199\n      jumpi\n        /* \"TEXOOrchestrator.sol\":6739:6749  startBlock */\n      sload(0x08)\n        /* \"TEXOOrchestrator.sol\":6724:6736  block.number */\n      number\n        /* \"TEXOOrchestrator.sol\":6724:6749  block.number > startBlock */\n      gt\n        /* \"TEXOOrchestrator.sol\":6724:6777  block.number > startBlock ? block.number : startBlock */\n      tag_200\n      jumpi\n        /* \"TEXOOrchestrator.sol\":6767:6777  startBlock */\n      sload(0x08)\n        /* \"TEXOOrchestrator.sol\":6724:6777  block.number > startBlock ? block.number : startBlock */\n      jump(tag_201)\n    tag_200:\n        /* \"TEXOOrchestrator.sol\":6752:6764  block.number */\n      number\n        /* \"TEXOOrchestrator.sol\":6724:6777  block.number > startBlock ? block.number : startBlock */\n    tag_201:\n        /* \"TEXOOrchestrator.sol\":6663:6778  _startGenerateRewardBlock > 0 ? _startGenerateRewardBlock : (block.number > startBlock ? block.number : startBlock) */\n      jump(tag_202)\n    tag_199:\n        /* \"TEXOOrchestrator.sol\":6695:6720  _startGenerateRewardBlock */\n      dup7\n        /* \"TEXOOrchestrator.sol\":6663:6778  _startGenerateRewardBlock > 0 ? _startGenerateRewardBlock : (block.number > startBlock ? block.number : startBlock) */\n    tag_202:\n        /* \"TEXOOrchestrator.sol\":6543:7006  PoolInfo({... */\n      dup2\n      mstore\n      0x20\n      add\n        /* \"TEXOOrchestrator.sol\":6813:6814  0 */\n      0x00\n        /* \"TEXOOrchestrator.sol\":6543:7006  PoolInfo({... */\n      dup2\n      mstore\n      0x20\n      add\n        /* \"TEXOOrchestrator.sol\":6846:6859  _depositFeeBP */\n      dup10\n        /* \"TEXOOrchestrator.sol\":6543:7006  PoolInfo({... */\n      0xffff\n      and\n      dup2\n      mstore\n      pop\n        /* \"TEXOOrchestrator.sol\":6516:7016  poolInfo.push(... */\n      swap1\n      dup1\n      0x01\n      dup2\n      sload\n      add\n      dup1\n      dup3\n      sstore\n      dup1\n      swap2\n      pop\n      pop\n      0x01\n      swap1\n      sub\n      swap1\n      0x00\n      mstore\n      keccak256(0x00, 0x20)\n      swap1\n      0x07\n      mul\n      add\n      0x00\n      swap1\n      swap2\n      swap1\n      swap2\n      swap1\n      swap2\n      pop\n      0x00\n      dup3\n      add\n      mload\n      dup2\n      0x00\n      add\n      exp(0x0100, 0x00)\n      dup2\n      sload\n      dup2\n      0xffffffffffffffffffffffffffffffffffffffff\n      mul\n      not\n      and\n      swap1\n      dup4\n      0xffffffffffffffffffffffffffffffffffffffff\n      and\n      mul\n      or\n      swap1\n      sstore\n      pop\n      0x20\n      dup3\n      add\n      mload\n      dup2\n      0x01\n      add\n      sstore\n      0x40\n      dup3\n      add\n      mload\n      dup2\n      0x02\n      add\n      sstore\n      0x60\n      dup3\n      add\n      mload\n      dup2\n      0x03\n      add\n      sstore\n      0x80\n      dup3\n      add\n      mload\n      dup2\n      0x04\n      add\n      sstore\n      0xa0\n      dup3\n      add\n      mload\n      dup2\n      0x05\n      add\n      sstore\n      0xc0\n      dup3\n      add\n      mload\n      dup2\n      0x06\n      add\n      exp(0x0100, 0x00)\n      dup2\n      sload\n      dup2\n      0xffff\n      mul\n      not\n      and\n      swap1\n      dup4\n      0xffff\n      and\n      mul\n      or\n      swap1\n      sstore\n      pop\n      pop\n      pop\n        /* \"TEXOOrchestrator.sol\":7076:7077  1 */\n      0x01\n        /* \"TEXOOrchestrator.sol\":7058:7066  poolInfo */\n      0x09\n        /* \"TEXOOrchestrator.sol\":7058:7073  poolInfo.length */\n      dup1\n      sload\n      swap1\n      pop\n        /* \"TEXOOrchestrator.sol\":7058:7077  poolInfo.length - 1 */\n      sub\n        /* \"TEXOOrchestrator.sol\":7027:7045  poolIdForLpAddress */\n      0x10\n        /* \"TEXOOrchestrator.sol\":7027:7055  poolIdForLpAddress[_lpToken] */\n      0x00\n        /* \"TEXOOrchestrator.sol\":7046:7054  _lpToken */\n      dup11\n        /* \"TEXOOrchestrator.sol\":7027:7055  poolIdForLpAddress[_lpToken] */\n      0xffffffffffffffffffffffffffffffffffffffff\n      and\n      0xffffffffffffffffffffffffffffffffffffffff\n      and\n      dup2\n      mstore\n      0x20\n      add\n      swap1\n      dup2\n      mstore\n      0x20\n      add\n      0x00\n      keccak256\n        /* \"TEXOOrchestrator.sol\":7027:7077  poolIdForLpAddress[_lpToken] = poolInfo.length - 1 */\n      dup2\n      swap1\n      sstore\n      pop\n        /* \"TEXOOrchestrator.sol\":5744:5745  _ */\n      pop\n        /* \"Ownable.sol\":1348:1349  _ */\n      pop\n        /* \"TEXOOrchestrator.sol\":5824:7084  function add(... */\n      pop\n      pop\n      pop\n      pop\n      pop\n      pop\n      pop\n      jump\t// out\n        /* \"TEXOOrchestrator.sol\":2327:2353  PoolInfo[] public poolInfo */\n    tag_62:\n      0x09\n      dup2\n      dup2\n      sload\n      dup2\n      lt\n      tag_204\n      jumpi\n      invalid\n    tag_204:\n      swap1\n      0x00\n      mstore\n      keccak256(0x00, 0x20)\n      swap1\n      0x07\n      mul\n      add\n      0x00\n      swap2\n      pop\n      swap1\n      pop\n      dup1\n      0x00\n      add\n      0x00\n      swap1\n      sload\n      swap1\n      0x0100\n      exp\n      swap1\n      div\n      0xffffffffffffffffffffffffffffffffffffffff\n      and\n      swap1\n      dup1\n      0x01\n      add\n      sload\n      swap1\n      dup1\n      0x02\n      add\n      sload\n      swap1\n      dup1\n      0x03\n      add\n      sload\n      swap1\n      dup1\n      0x04\n      add\n      sload\n      swap1\n      dup1\n      0x05\n      add\n      sload\n      swap1\n      dup1\n      0x06\n      add\n      0x00\n      swap1\n      sload\n      swap1\n      0x0100\n      exp\n      swap1\n      div\n      0xffff\n      and\n      swap1\n      pop\n      dup8\n      jump\t// out\n        /* \"TEXOOrchestrator.sol\":2564:2598  uint256 public totalAllocPoint = 0 */\n    tag_64:\n      sload(0x0b)\n      dup2\n      jump\t// out\n        /* \"TEXOOrchestrator.sol\":5349:5567  function getPoolIdForLpToken(IBEP20 _lpToken) external view returns (uint256) {... */\n    tag_67:\n        /* \"TEXOOrchestrator.sol\":5418:5425  uint256 */\n      0x00\n        /* \"TEXOOrchestrator.sol\":5472:5477  false */\n      dup1\n        /* \"TEXOOrchestrator.sol\":5445:5477  poolExistence[_lpToken] != false */\n      iszero\n      iszero\n        /* \"TEXOOrchestrator.sol\":5445:5458  poolExistence */\n      0x0f\n        /* \"TEXOOrchestrator.sol\":5445:5468  poolExistence[_lpToken] */\n      0x00\n        /* \"TEXOOrchestrator.sol\":5459:5467  _lpToken */\n      dup5\n        /* \"TEXOOrchestrator.sol\":5445:5468  poolExistence[_lpToken] */\n      0xffffffffffffffffffffffffffffffffffffffff\n      and\n      0xffffffffffffffffffffffffffffffffffffffff\n      and\n      dup2\n      mstore\n      0x20\n      add\n      swap1\n      dup2\n      mstore\n      0x20\n      add\n      0x00\n      keccak256\n      0x00\n      swap1\n      sload\n      swap1\n      0x0100\n      exp\n      swap1\n      div\n      0xff\n      and\n        /* \"TEXOOrchestrator.sol\":5445:5477  poolExistence[_lpToken] != false */\n      iszero\n      iszero\n      eq\n      iszero\n        /* \"TEXOOrchestrator.sol\":5437:5515  require(poolExistence[_lpToken] != false, \"getPoolIdForLpToken: do not exist\") */\n      tag_207\n      jumpi\n      mload(0x40)\n      0x08c379a000000000000000000000000000000000000000000000000000000000\n      dup2\n      mstore\n      0x04\n      add\n      dup1\n      dup1\n      0x20\n      add\n      dup3\n      dup2\n      sub\n      dup3\n      mstore\n      0x21\n      dup2\n      mstore\n      0x20\n      add\n      dup1\n      data_bf35de78f3e15a98c58afdc189c393a6a76029783bd8ecfd3a8b87b4a628fd85\n      0x21\n      swap2\n      codecopy\n      0x40\n      add\n      swap2\n      pop\n      pop\n      mload(0x40)\n      dup1\n      swap2\n      sub\n      swap1\n      revert\n    tag_207:\n        /* \"TEXOOrchestrator.sol\":5532:5550  poolIdForLpAddress */\n      0x10\n        /* \"TEXOOrchestrator.sol\":5532:5560  poolIdForLpAddress[_lpToken] */\n      0x00\n        /* \"TEXOOrchestrator.sol\":5551:5559  _lpToken */\n      dup4\n        /* \"TEXOOrchestrator.sol\":5532:5560  poolIdForLpAddress[_lpToken] */\n      0xffffffffffffffffffffffffffffffffffffffff\n      and\n      0xffffffffffffffffffffffffffffffffffffffff\n      and\n      dup2\n      mstore\n      0x20\n      add\n      swap1\n      dup2\n      mstore\n      0x20\n      add\n      0x00\n      keccak256\n      sload\n        /* \"TEXOOrchestrator.sol\":5525:5560  return poolIdForLpAddress[_lpToken] */\n      swap1\n      pop\n        /* \"TEXOOrchestrator.sol\":5349:5567  function getPoolIdForLpToken(IBEP20 _lpToken) external view returns (uint256) {... */\n      swap2\n      swap1\n      pop\n      jump\t// out\n        /* \"TEXOOrchestrator.sol\":2827:2876  uint16 public constant MAXIMUM_REFERRAL_BP = 2000 */\n    tag_69:\n        /* \"TEXOOrchestrator.sol\":2872:2876  2000 */\n      0x07d0\n        /* \"TEXOOrchestrator.sol\":2827:2876  uint16 public constant MAXIMUM_REFERRAL_BP = 2000 */\n      dup2\n      jump\t// out\n        /* \"TEXOOrchestrator.sol\":18418:18524  function getReferral(address _user) public view returns (address) {... */\n    tag_72:\n        /* \"TEXOOrchestrator.sol\":18475:18482  address */\n      0x00\n        /* \"TEXOOrchestrator.sol\":18501:18510  referrers */\n      0x0d\n        /* \"TEXOOrchestrator.sol\":18501:18517  referrers[_user] */\n      0x00\n        /* \"TEXOOrchestrator.sol\":18511:18516  _user */\n      dup4\n        /* \"TEXOOrchestrator.sol\":18501:18517  referrers[_user] */\n      0xffffffffffffffffffffffffffffffffffffffff\n      and\n      0xffffffffffffffffffffffffffffffffffffffff\n      and\n      dup2\n      mstore\n      0x20\n      add\n      swap1\n      dup2\n      mstore\n      0x20\n      add\n      0x00\n      keccak256\n      0x00\n      swap1\n      sload\n      swap1\n      0x0100\n      exp\n      swap1\n      div\n      0xffffffffffffffffffffffffffffffffffffffff\n      and\n        /* \"TEXOOrchestrator.sol\":18494:18517  return referrers[_user] */\n      swap1\n      pop\n        /* \"TEXOOrchestrator.sol\":18418:18524  function getReferral(address _user) public view returns (address) {... */\n      swap2\n      swap1\n      pop\n      jump\t// out\n        /* \"TEXOOrchestrator.sol\":2995:3043  mapping(address => uint256) public referredCount */\n    tag_75:\n      mstore(0x20, 0x0e)\n      dup1\n      0x00\n      mstore\n      keccak256(0x00, 0x40)\n      0x00\n      swap2\n      pop\n      swap1\n      pop\n      sload\n      dup2\n      jump\t// out\n        /* \"TEXOOrchestrator.sol\":2049:2074  address public feeAddress */\n    tag_77:\n      0x05\n      0x00\n      swap1\n      sload\n      swap1\n      0x0100\n      exp\n      swap1\n      div\n      0xffffffffffffffffffffffffffffffffffffffff\n      and\n      dup2\n      jump\t// out\n        /* \"TEXOOrchestrator.sol\":13173:13799  function withdraw(uint256 _pid, uint256 _amount) public nonReentrant {... */\n    tag_80:\n        /* \"ReentrancyGuard.sol\":1680:1681  2 */\n      0x02\n        /* \"ReentrancyGuard.sol\":2269:2276  _status */\n      sload(0x01)\n        /* \"ReentrancyGuard.sol\":2269:2288  _status != _ENTERED */\n      eq\n      iszero\n        /* \"ReentrancyGuard.sol\":2261:2324  require(_status != _ENTERED, \"ReentrancyGuard: reentrant call\") */\n      tag_210\n      jumpi\n      mload(0x40)\n      0x08c379a000000000000000000000000000000000000000000000000000000000\n      dup2\n      mstore\n      0x04\n      add\n      dup1\n      dup1\n      0x20\n      add\n      dup3\n      dup2\n      sub\n      dup3\n      mstore\n      0x1f\n      dup2\n      mstore\n      0x20\n      add\n      dup1\n      0x5265656e7472616e637947756172643a207265656e7472616e742063616c6c00\n      dup2\n      mstore\n      pop\n      0x20\n      add\n      swap2\n      pop\n      pop\n      mload(0x40)\n      dup1\n      swap2\n      sub\n      swap1\n      revert\n    tag_210:\n        /* \"ReentrancyGuard.sol\":1680:1681  2 */\n      0x02\n        /* \"ReentrancyGuard.sol\":2399:2406  _status */\n      0x01\n        /* \"ReentrancyGuard.sol\":2399:2417  _status = _ENTERED */\n      dup2\n      swap1\n      sstore\n      pop\n        /* \"TEXOOrchestrator.sol\":13252:13273  PoolInfo storage pool */\n      0x00\n        /* \"TEXOOrchestrator.sol\":13276:13284  poolInfo */\n      0x09\n        /* \"TEXOOrchestrator.sol\":13285:13289  _pid */\n      dup4\n        /* \"TEXOOrchestrator.sol\":13276:13290  poolInfo[_pid] */\n      dup2\n      sload\n      dup2\n      lt\n      tag_212\n      jumpi\n      invalid\n    tag_212:\n      swap1\n      0x00\n      mstore\n      keccak256(0x00, 0x20)\n      swap1\n      0x07\n      mul\n      add\n        /* \"TEXOOrchestrator.sol\":13252:13290  PoolInfo storage pool = poolInfo[_pid] */\n      swap1\n      pop\n        /* \"TEXOOrchestrator.sol\":13300:13321  UserInfo storage user */\n      0x00\n        /* \"TEXOOrchestrator.sol\":13324:13332  userInfo */\n      0x0a\n        /* \"TEXOOrchestrator.sol\":13324:13338  userInfo[_pid] */\n      0x00\n        /* \"TEXOOrchestrator.sol\":13333:13337  _pid */\n      dup6\n        /* \"TEXOOrchestrator.sol\":13324:13338  userInfo[_pid] */\n      dup2\n      mstore\n      0x20\n      add\n      swap1\n      dup2\n      mstore\n      0x20\n      add\n      0x00\n      keccak256\n        /* \"TEXOOrchestrator.sol\":13324:13350  userInfo[_pid][msg.sender] */\n      0x00\n        /* \"TEXOOrchestrator.sol\":13339:13349  msg.sender */\n      caller\n        /* \"TEXOOrchestrator.sol\":13324:13350  userInfo[_pid][msg.sender] */\n      0xffffffffffffffffffffffffffffffffffffffff\n      and\n      0xffffffffffffffffffffffffffffffffffffffff\n      and\n      dup2\n      mstore\n      0x20\n      add\n      swap1\n      dup2\n      mstore\n      0x20\n      add\n      0x00\n      keccak256\n        /* \"TEXOOrchestrator.sol\":13300:13350  UserInfo storage user = userInfo[_pid][msg.sender] */\n      swap1\n      pop\n        /* \"TEXOOrchestrator.sol\":13384:13391  _amount */\n      dup3\n        /* \"TEXOOrchestrator.sol\":13369:13373  user */\n      dup2\n        /* \"TEXOOrchestrator.sol\":13369:13380  user.amount */\n      0x00\n      add\n      sload\n        /* \"TEXOOrchestrator.sol\":13369:13391  user.amount >= _amount */\n      lt\n      iszero\n        /* \"TEXOOrchestrator.sol\":13361:13414  require(user.amount >= _amount, \"withdraw: not good\") */\n      tag_214\n      jumpi\n      mload(0x40)\n      0x08c379a000000000000000000000000000000000000000000000000000000000\n      dup2\n      mstore\n      0x04\n      add\n      dup1\n      dup1\n      0x20\n      add\n      dup3\n      dup2\n      sub\n      dup3\n      mstore\n      0x12\n      dup2\n      mstore\n      0x20\n      add\n      dup1\n      0x77697468647261773a206e6f7420676f6f640000000000000000000000000000\n      dup2\n      mstore\n      pop\n      0x20\n      add\n      swap2\n      pop\n      pop\n      mload(0x40)\n      dup1\n      swap2\n      sub\n      swap1\n      revert\n    tag_214:\n        /* \"TEXOOrchestrator.sol\":13425:13441  updatePool(_pid) */\n      tag_215\n        /* \"TEXOOrchestrator.sol\":13436:13440  _pid */\n      dup5\n        /* \"TEXOOrchestrator.sol\":13425:13435  updatePool */\n      tag_86\n        /* \"TEXOOrchestrator.sol\":13425:13441  updatePool(_pid) */\n      jump\t// in\n    tag_215:\n        /* \"TEXOOrchestrator.sol\":13452:13480  payOrLockupPendingTEXO(_pid) */\n      tag_216\n        /* \"TEXOOrchestrator.sol\":13475:13479  _pid */\n      dup5\n        /* \"TEXOOrchestrator.sol\":13452:13474  payOrLockupPendingTEXO */\n      tag_217\n        /* \"TEXOOrchestrator.sol\":13452:13480  payOrLockupPendingTEXO(_pid) */\n      jump\t// in\n    tag_216:\n        /* \"TEXOOrchestrator.sol\":13505:13506  0 */\n      0x00\n        /* \"TEXOOrchestrator.sol\":13495:13502  _amount */\n      dup4\n        /* \"TEXOOrchestrator.sol\":13495:13506  _amount > 0 */\n      gt\n        /* \"TEXOOrchestrator.sol\":13491:13640  if (_amount > 0) {... */\n      iszero\n      tag_218\n      jumpi\n        /* \"TEXOOrchestrator.sol\":13536:13560  user.amount.sub(_amount) */\n      tag_219\n        /* \"TEXOOrchestrator.sol\":13552:13559  _amount */\n      dup4\n        /* \"TEXOOrchestrator.sol\":13536:13540  user */\n      dup3\n        /* \"TEXOOrchestrator.sol\":13536:13547  user.amount */\n      0x00\n      add\n      sload\n        /* \"TEXOOrchestrator.sol\":13536:13551  user.amount.sub */\n      tag_172\n      swap1\n        /* \"TEXOOrchestrator.sol\":13536:13560  user.amount.sub(_amount) */\n      swap2\n      swap1\n      0xffffffff\n      and\n      jump\t// in\n    tag_219:\n        /* \"TEXOOrchestrator.sol\":13522:13526  user */\n      dup2\n        /* \"TEXOOrchestrator.sol\":13522:13533  user.amount */\n      0x00\n      add\n        /* \"TEXOOrchestrator.sol\":13522:13560  user.amount = user.amount.sub(_amount) */\n      dup2\n      swap1\n      sstore\n      pop\n        /* \"TEXOOrchestrator.sol\":13574:13629  pool.lpToken.safeTransfer(address(msg.sender), _amount) */\n      tag_220\n        /* \"TEXOOrchestrator.sol\":13608:13618  msg.sender */\n      caller\n        /* \"TEXOOrchestrator.sol\":13621:13628  _amount */\n      dup5\n        /* \"TEXOOrchestrator.sol\":13574:13578  pool */\n      dup5\n        /* \"TEXOOrchestrator.sol\":13574:13586  pool.lpToken */\n      0x00\n      add\n      0x00\n      swap1\n      sload\n      swap1\n      0x0100\n      exp\n      swap1\n      div\n      0xffffffffffffffffffffffffffffffffffffffff\n      and\n        /* \"TEXOOrchestrator.sol\":13574:13599  pool.lpToken.safeTransfer */\n      0xffffffffffffffffffffffffffffffffffffffff\n      and\n      tag_221\n      swap1\n        /* \"TEXOOrchestrator.sol\":13574:13629  pool.lpToken.safeTransfer(address(msg.sender), _amount) */\n      swap3\n      swap2\n      swap1\n      0xffffffff\n      and\n      jump\t// in\n    tag_220:\n        /* \"TEXOOrchestrator.sol\":13491:13640  if (_amount > 0) {... */\n    tag_218:\n        /* \"TEXOOrchestrator.sol\":13668:13741  user.amount... */\n      tag_222\n        /* \"TEXOOrchestrator.sol\":13736:13740  1e12 */\n      0xe8d4a51000\n        /* \"TEXOOrchestrator.sol\":13668:13718  user.amount... */\n      tag_223\n        /* \"TEXOOrchestrator.sol\":13697:13701  pool */\n      dup5\n        /* \"TEXOOrchestrator.sol\":13697:13717  pool.accTEXOPerShare */\n      0x05\n      add\n      sload\n        /* \"TEXOOrchestrator.sol\":13668:13672  user */\n      dup5\n        /* \"TEXOOrchestrator.sol\":13668:13679  user.amount */\n      0x00\n      add\n      sload\n        /* \"TEXOOrchestrator.sol\":13668:13696  user.amount... */\n      tag_224\n      swap1\n        /* \"TEXOOrchestrator.sol\":13668:13718  user.amount... */\n      swap2\n      swap1\n      0xffffffff\n      and\n      jump\t// in\n    tag_223:\n        /* \"TEXOOrchestrator.sol\":13668:13735  user.amount... */\n      tag_225\n      swap1\n        /* \"TEXOOrchestrator.sol\":13668:13741  user.amount... */\n      swap2\n      swap1\n      0xffffffff\n      and\n      jump\t// in\n    tag_222:\n        /* \"TEXOOrchestrator.sol\":13650:13654  user */\n      dup2\n        /* \"TEXOOrchestrator.sol\":13650:13665  user.rewardDebt */\n      0x01\n      add\n        /* \"TEXOOrchestrator.sol\":13650:13741  user.rewardDebt = user.amount... */\n      dup2\n      swap1\n      sstore\n      pop\n        /* \"TEXOOrchestrator.sol\":13778:13782  _pid */\n      dup4\n        /* \"TEXOOrchestrator.sol\":13766:13776  msg.sender */\n      caller\n        /* \"TEXOOrchestrator.sol\":13757:13792  Withdraw(msg.sender, _pid, _amount) */\n      0xffffffffffffffffffffffffffffffffffffffff\n      and\n      0xf279e6a1f5e320cca91135676d9cb6e44ca8a08c0b88342bcdb1144f6511b568\n        /* \"TEXOOrchestrator.sol\":13784:13791  _amount */\n      dup6\n        /* \"TEXOOrchestrator.sol\":13757:13792  Withdraw(msg.sender, _pid, _amount) */\n      mload(0x40)\n      dup1\n      dup3\n      dup2\n      mstore\n      0x20\n      add\n      swap2\n      pop\n      pop\n      mload(0x40)\n      dup1\n      swap2\n      sub\n      swap1\n      log3\n        /* \"ReentrancyGuard.sol\":2428:2429  _ */\n      pop\n      pop\n        /* \"ReentrancyGuard.sol\":1637:1638  1 */\n      0x01\n        /* \"ReentrancyGuard.sol\":2572:2579  _status */\n      dup1\n        /* \"ReentrancyGuard.sol\":2572:2594  _status = _NOT_ENTERED */\n      dup2\n      swap1\n      sstore\n      pop\n        /* \"TEXOOrchestrator.sol\":13173:13799  function withdraw(uint256 _pid, uint256 _amount) public nonReentrant {... */\n      pop\n      pop\n      jump\t// out\n        /* \"TEXOOrchestrator.sol\":2906:2950  mapping(address => address) public referrers */\n    tag_83:\n      mstore(0x20, 0x0d)\n      dup1\n      0x00\n      mstore\n      keccak256(0x00, 0x40)\n      0x00\n      swap2\n      pop\n      sload\n      swap1\n      0x0100\n      exp\n      swap1\n      div\n      0xffffffffffffffffffffffffffffffffffffffff\n      and\n      dup2\n      jump\t// out\n        /* \"TEXOOrchestrator.sol\":10107:11505  function updatePool(uint256 _pid) public {... */\n    tag_86:\n        /* \"TEXOOrchestrator.sol\":10158:10179  PoolInfo storage pool */\n      0x00\n        /* \"TEXOOrchestrator.sol\":10182:10190  poolInfo */\n      0x09\n        /* \"TEXOOrchestrator.sol\":10191:10195  _pid */\n      dup3\n        /* \"TEXOOrchestrator.sol\":10182:10196  poolInfo[_pid] */\n      dup2\n      sload\n      dup2\n      lt\n      tag_227\n      jumpi\n      invalid\n    tag_227:\n      swap1\n      0x00\n      mstore\n      keccak256(0x00, 0x20)\n      swap1\n      0x07\n      mul\n      add\n        /* \"TEXOOrchestrator.sol\":10158:10196  PoolInfo storage pool = poolInfo[_pid] */\n      swap1\n      pop\n        /* \"TEXOOrchestrator.sol\":10207:10241  uint256 blockToCalculateMultiplier */\n      0x00\n        /* \"TEXOOrchestrator.sol\":10244:10288  minCurrentBlockAndInactiveBlockIfExist(_pid) */\n      tag_229\n        /* \"TEXOOrchestrator.sol\":10283:10287  _pid */\n      dup4\n        /* \"TEXOOrchestrator.sol\":10244:10282  minCurrentBlockAndInactiveBlockIfExist */\n      tag_230\n        /* \"TEXOOrchestrator.sol\":10244:10288  minCurrentBlockAndInactiveBlockIfExist(_pid) */\n      jump\t// in\n    tag_229:\n        /* \"TEXOOrchestrator.sol\":10207:10288  uint256 blockToCalculateMultiplier = minCurrentBlockAndInactiveBlockIfExist(_pid) */\n      swap1\n      pop\n        /* \"TEXOOrchestrator.sol\":10333:10337  pool */\n      dup2\n        /* \"TEXOOrchestrator.sol\":10333:10353  pool.lastRewardBlock */\n      0x04\n      add\n      sload\n        /* \"TEXOOrchestrator.sol\":10303:10329  blockToCalculateMultiplier */\n      dup2\n        /* \"TEXOOrchestrator.sol\":10303:10353  blockToCalculateMultiplier <= pool.lastRewardBlock */\n      gt\n        /* \"TEXOOrchestrator.sol\":10299:10386  if (blockToCalculateMultiplier <= pool.lastRewardBlock) {... */\n      tag_231\n      jumpi\n        /* \"TEXOOrchestrator.sol\":10369:10376  return; */\n      pop\n      pop\n      jump(tag_226)\n        /* \"TEXOOrchestrator.sol\":10299:10386  if (blockToCalculateMultiplier <= pool.lastRewardBlock) {... */\n    tag_231:\n        /* \"TEXOOrchestrator.sol\":10396:10412  uint256 lpSupply */\n      0x00\n        /* \"TEXOOrchestrator.sol\":10415:10419  pool */\n      dup3\n        /* \"TEXOOrchestrator.sol\":10415:10427  pool.lpToken */\n      0x00\n      add\n      0x00\n      swap1\n      sload\n      swap1\n      0x0100\n      exp\n      swap1\n      div\n      0xffffffffffffffffffffffffffffffffffffffff\n      and\n        /* \"TEXOOrchestrator.sol\":10415:10437  pool.lpToken.balanceOf */\n      0xffffffffffffffffffffffffffffffffffffffff\n      and\n      0x70a08231\n        /* \"TEXOOrchestrator.sol\":10446:10450  this */\n      address\n        /* \"TEXOOrchestrator.sol\":10415:10452  pool.lpToken.balanceOf(address(this)) */\n      mload(0x40)\n      dup3\n      0xffffffff\n      and\n      0xe0\n      shl\n      dup2\n      mstore\n      0x04\n      add\n      dup1\n      dup3\n      0xffffffffffffffffffffffffffffffffffffffff\n      and\n      dup2\n      mstore\n      0x20\n      add\n      swap2\n      pop\n      pop\n      0x20\n      mload(0x40)\n      dup1\n      dup4\n      sub\n      dup2\n      dup7\n      dup1\n      extcodesize\n      iszero\n      dup1\n      iszero\n      tag_232\n      jumpi\n      0x00\n      dup1\n      revert\n    tag_232:\n      pop\n      gas\n      staticcall\n      iszero\n      dup1\n      iszero\n      tag_234\n      jumpi\n      returndatasize\n      0x00\n      dup1\n      returndatacopy\n      revert(0x00, returndatasize)\n    tag_234:\n      pop\n      pop\n      pop\n      pop\n      mload(0x40)\n      returndatasize\n      0x20\n      dup2\n      lt\n      iszero\n      tag_235\n      jumpi\n      0x00\n      dup1\n      revert\n    tag_235:\n      dup2\n      add\n      swap1\n      dup1\n      dup1\n      mload\n      swap1\n      0x20\n      add\n      swap1\n      swap3\n      swap2\n      swap1\n      pop\n      pop\n      pop\n        /* \"TEXOOrchestrator.sol\":10396:10452  uint256 lpSupply = pool.lpToken.balanceOf(address(this)) */\n      swap1\n      pop\n        /* \"TEXOOrchestrator.sol\":10567:10568  0 */\n      0x00\n        /* \"TEXOOrchestrator.sol\":10555:10563  lpSupply */\n      dup2\n        /* \"TEXOOrchestrator.sol\":10555:10568  lpSupply == 0 */\n      eq\n        /* \"TEXOOrchestrator.sol\":10555:10592  lpSupply == 0 || pool.allocPoint == 0 */\n      dup1\n      tag_236\n      jumpi\n      pop\n        /* \"TEXOOrchestrator.sol\":10591:10592  0 */\n      0x00\n        /* \"TEXOOrchestrator.sol\":10572:10576  pool */\n      dup4\n        /* \"TEXOOrchestrator.sol\":10572:10587  pool.allocPoint */\n      0x01\n      add\n      sload\n        /* \"TEXOOrchestrator.sol\":10572:10592  pool.allocPoint == 0 */\n      eq\n        /* \"TEXOOrchestrator.sol\":10555:10592  lpSupply == 0 || pool.allocPoint == 0 */\n    tag_236:\n        /* \"TEXOOrchestrator.sol\":10551:10770  if (lpSupply == 0 || pool.allocPoint == 0) { // If pool initially has no staked WETH token, or pool has no allocation points.... */\n      iszero\n      tag_237\n      jumpi\n        /* \"TEXOOrchestrator.sol\":10712:10738  blockToCalculateMultiplier */\n      dup2\n        /* \"TEXOOrchestrator.sol\":10689:10693  pool */\n      dup4\n        /* \"TEXOOrchestrator.sol\":10689:10709  pool.lastRewardBlock */\n      0x04\n      add\n        /* \"TEXOOrchestrator.sol\":10689:10738  pool.lastRewardBlock = blockToCalculateMultiplier */\n      dup2\n      swap1\n      sstore\n      pop\n        /* \"TEXOOrchestrator.sol\":10753:10760  return; */\n      pop\n      pop\n      pop\n      jump(tag_226)\n        /* \"TEXOOrchestrator.sol\":10551:10770  if (lpSupply == 0 || pool.allocPoint == 0) { // If pool initially has no staked WETH token, or pool has no allocation points.... */\n    tag_237:\n        /* \"TEXOOrchestrator.sol\":10780:10798  uint256 multiplier */\n      0x00\n        /* \"TEXOOrchestrator.sol\":10801:10864  getMultiplier(pool.lastRewardBlock, blockToCalculateMultiplier) */\n      tag_238\n        /* \"TEXOOrchestrator.sol\":10815:10819  pool */\n      dup5\n        /* \"TEXOOrchestrator.sol\":10815:10835  pool.lastRewardBlock */\n      0x04\n      add\n      sload\n        /* \"TEXOOrchestrator.sol\":10837:10863  blockToCalculateMultiplier */\n      dup5\n        /* \"TEXOOrchestrator.sol\":10801:10814  getMultiplier */\n      tag_114\n        /* \"TEXOOrchestrator.sol\":10801:10864  getMultiplier(pool.lastRewardBlock, blockToCalculateMultiplier) */\n      jump\t// in\n    tag_238:\n        /* \"TEXOOrchestrator.sol\":10780:10864  uint256 multiplier = getMultiplier(pool.lastRewardBlock, blockToCalculateMultiplier) */\n      swap1\n      pop\n        /* \"TEXOOrchestrator.sol\":10935:10953  uint256 tEXOReward */\n      0x00\n        /* \"TEXOOrchestrator.sol\":10956:11065  multiplier... */\n      tag_239\n        /* \"TEXOOrchestrator.sol\":11049:11064  totalAllocPoint */\n      sload(0x0b)\n        /* \"TEXOOrchestrator.sol\":10956:11031  multiplier... */\n      tag_240\n        /* \"TEXOOrchestrator.sol\":11015:11019  pool */\n      dup8\n        /* \"TEXOOrchestrator.sol\":11015:11030  pool.allocPoint */\n      0x01\n      add\n      sload\n        /* \"TEXOOrchestrator.sol\":10956:10997  multiplier... */\n      tag_241\n        /* \"TEXOOrchestrator.sol\":10984:10996  tEXOPerBlock */\n      sload(0x04)\n        /* \"TEXOOrchestrator.sol\":10956:10966  multiplier */\n      dup8\n        /* \"TEXOOrchestrator.sol\":10956:10983  multiplier... */\n      tag_224\n      swap1\n        /* \"TEXOOrchestrator.sol\":10956:10997  multiplier... */\n      swap2\n      swap1\n      0xffffffff\n      and\n      jump\t// in\n    tag_241:\n        /* \"TEXOOrchestrator.sol\":10956:11014  multiplier... */\n      tag_224\n      swap1\n        /* \"TEXOOrchestrator.sol\":10956:11031  multiplier... */\n      swap2\n      swap1\n      0xffffffff\n      and\n      jump\t// in\n    tag_240:\n        /* \"TEXOOrchestrator.sol\":10956:11048  multiplier... */\n      tag_225\n      swap1\n        /* \"TEXOOrchestrator.sol\":10956:11065  multiplier... */\n      swap2\n      swap1\n      0xffffffff\n      and\n      jump\t// in\n    tag_239:\n        /* \"TEXOOrchestrator.sol\":10935:11065  uint256 tEXOReward = multiplier... */\n      swap1\n      pop\n        /* \"TEXOOrchestrator.sol\":11076:11080  tEXO */\n      0x02\n      0x00\n      swap1\n      sload\n      swap1\n      0x0100\n      exp\n      swap1\n      div\n      0xffffffffffffffffffffffffffffffffffffffff\n      and\n        /* \"TEXOOrchestrator.sol\":11076:11085  tEXO.mint */\n      0xffffffffffffffffffffffffffffffffffffffff\n      and\n      0x40c10f19\n        /* \"TEXOOrchestrator.sol\":11086:11093  devAddr */\n      0x03\n      0x00\n      swap1\n      sload\n      swap1\n      0x0100\n      exp\n      swap1\n      div\n      0xffffffffffffffffffffffffffffffffffffffff\n      and\n        /* \"TEXOOrchestrator.sol\":11095:11113  tEXOReward.div(10) */\n      tag_242\n        /* \"TEXOOrchestrator.sol\":11110:11112  10 */\n      0x0a\n        /* \"TEXOOrchestrator.sol\":11095:11105  tEXOReward */\n      dup6\n        /* \"TEXOOrchestrator.sol\":11095:11109  tEXOReward.div */\n      tag_225\n      swap1\n        /* \"TEXOOrchestrator.sol\":11095:11113  tEXOReward.div(10) */\n      swap2\n      swap1\n      0xffffffff\n      and\n      jump\t// in\n    tag_242:\n        /* \"TEXOOrchestrator.sol\":11076:11114  tEXO.mint(devAddr, tEXOReward.div(10)) */\n      mload(0x40)\n      dup4\n      0xffffffff\n      and\n      0xe0\n      shl\n      dup2\n      mstore\n      0x04\n      add\n      dup1\n      dup4\n      0xffffffffffffffffffffffffffffffffffffffff\n      and\n      dup2\n      mstore\n      0x20\n      add\n      dup3\n      dup2\n      mstore\n      0x20\n      add\n      swap3\n      pop\n      pop\n      pop\n      0x00\n      mload(0x40)\n      dup1\n      dup4\n      sub\n      dup2\n      0x00\n      dup8\n      dup1\n      extcodesize\n      iszero\n      dup1\n      iszero\n      tag_243\n      jumpi\n      0x00\n      dup1\n      revert\n    tag_243:\n      pop\n      gas\n      call\n      iszero\n      dup1\n      iszero\n      tag_245\n      jumpi\n      returndatasize\n      0x00\n      dup1\n      returndatacopy\n      revert(0x00, returndatasize)\n    tag_245:\n      pop\n      pop\n      pop\n      pop\n        /* \"TEXOOrchestrator.sol\":11185:11189  tEXO */\n      0x02\n      0x00\n      swap1\n      sload\n      swap1\n      0x0100\n      exp\n      swap1\n      div\n      0xffffffffffffffffffffffffffffffffffffffff\n      and\n        /* \"TEXOOrchestrator.sol\":11185:11194  tEXO.mint */\n      0xffffffffffffffffffffffffffffffffffffffff\n      and\n      0x40c10f19\n        /* \"TEXOOrchestrator.sol\":11203:11207  this */\n      address\n        /* \"TEXOOrchestrator.sol\":11210:11220  tEXOReward */\n      dup4\n        /* \"TEXOOrchestrator.sol\":11185:11221  tEXO.mint(address(this), tEXOReward) */\n      mload(0x40)\n      dup4\n      0xffffffff\n      and\n      0xe0\n      shl\n      dup2\n      mstore\n      0x04\n      add\n      dup1\n      dup4\n      0xffffffffffffffffffffffffffffffffffffffff\n      and\n      dup2\n      mstore\n      0x20\n      add\n      dup3\n      dup2\n      mstore\n      0x20\n      add\n      swap3\n      pop\n      pop\n      pop\n      0x00\n      mload(0x40)\n      dup1\n      dup4\n      sub\n      dup2\n      0x00\n      dup8\n      dup1\n      extcodesize\n      iszero\n      dup1\n      iszero\n      tag_246\n      jumpi\n      0x00\n      dup1\n      revert\n    tag_246:\n      pop\n      gas\n      call\n      iszero\n      dup1\n      iszero\n      tag_248\n      jumpi\n      returndatasize\n      0x00\n      dup1\n      returndatacopy\n      revert(0x00, returndatasize)\n    tag_248:\n      pop\n      pop\n      pop\n      pop\n        /* \"TEXOOrchestrator.sol\":11301:11438  pool.accTEXOPerShare... */\n      tag_249\n        /* \"TEXOOrchestrator.sol\":11356:11424  tEXOReward... */\n      tag_250\n        /* \"TEXOOrchestrator.sol\":11415:11423  lpSupply */\n      dup5\n        /* \"TEXOOrchestrator.sol\":11356:11393  tEXOReward... */\n      tag_251\n        /* \"TEXOOrchestrator.sol\":11388:11392  1e12 */\n      0xe8d4a51000\n        /* \"TEXOOrchestrator.sol\":11356:11366  tEXOReward */\n      dup6\n        /* \"TEXOOrchestrator.sol\":11356:11387  tEXOReward... */\n      tag_224\n      swap1\n        /* \"TEXOOrchestrator.sol\":11356:11393  tEXOReward... */\n      swap2\n      swap1\n      0xffffffff\n      and\n      jump\t// in\n    tag_251:\n        /* \"TEXOOrchestrator.sol\":11356:11414  tEXOReward... */\n      tag_225\n      swap1\n        /* \"TEXOOrchestrator.sol\":11356:11424  tEXOReward... */\n      swap2\n      swap1\n      0xffffffff\n      and\n      jump\t// in\n    tag_250:\n        /* \"TEXOOrchestrator.sol\":11301:11305  pool */\n      dup7\n        /* \"TEXOOrchestrator.sol\":11301:11321  pool.accTEXOPerShare */\n      0x05\n      add\n      sload\n        /* \"TEXOOrchestrator.sol\":11301:11338  pool.accTEXOPerShare... */\n      tag_173\n      swap1\n        /* \"TEXOOrchestrator.sol\":11301:11438  pool.accTEXOPerShare... */\n      swap2\n      swap1\n      0xffffffff\n      and\n      jump\t// in\n    tag_249:\n        /* \"TEXOOrchestrator.sol\":11278:11282  pool */\n      dup6\n        /* \"TEXOOrchestrator.sol\":11278:11298  pool.accTEXOPerShare */\n      0x05\n      add\n        /* \"TEXOOrchestrator.sol\":11278:11438  pool.accTEXOPerShare = pool.accTEXOPerShare... */\n      dup2\n      swap1\n      sstore\n      pop\n        /* \"TEXOOrchestrator.sol\":11472:11498  blockToCalculateMultiplier */\n      dup4\n        /* \"TEXOOrchestrator.sol\":11449:11453  pool */\n      dup6\n        /* \"TEXOOrchestrator.sol\":11449:11469  pool.lastRewardBlock */\n      0x04\n      add\n        /* \"TEXOOrchestrator.sol\":11449:11498  pool.lastRewardBlock = blockToCalculateMultiplier */\n      dup2\n      swap1\n      sstore\n      pop\n        /* \"TEXOOrchestrator.sol\":10107:11505  function updatePool(uint256 _pid) public {... */\n      pop\n      pop\n      pop\n      pop\n      pop\n    tag_226:\n      pop\n      jump\t// out\n        /* \"TEXOOrchestrator.sol\":14708:15072  function emergencyWithdraw(uint256 _pid) public nonReentrant {... */\n    tag_89:\n        /* \"ReentrancyGuard.sol\":1680:1681  2 */\n      0x02\n        /* \"ReentrancyGuard.sol\":2269:2276  _status */\n      sload(0x01)\n        /* \"ReentrancyGuard.sol\":2269:2288  _status != _ENTERED */\n      eq\n      iszero\n        /* \"ReentrancyGuard.sol\":2261:2324  require(_status != _ENTERED, \"ReentrancyGuard: reentrant call\") */\n      tag_253\n      jumpi\n      mload(0x40)\n      0x08c379a000000000000000000000000000000000000000000000000000000000\n      dup2\n      mstore\n      0x04\n      add\n      dup1\n      dup1\n      0x20\n      add\n      dup3\n      dup2\n      sub\n      dup3\n      mstore\n      0x1f\n      dup2\n      mstore\n      0x20\n      add\n      dup1\n      0x5265656e7472616e637947756172643a207265656e7472616e742063616c6c00\n      dup2\n      mstore\n      pop\n      0x20\n      add\n      swap2\n      pop\n      pop\n      mload(0x40)\n      dup1\n      swap2\n      sub\n      swap1\n      revert\n    tag_253:\n        /* \"ReentrancyGuard.sol\":1680:1681  2 */\n      0x02\n        /* \"ReentrancyGuard.sol\":2399:2406  _status */\n      0x01\n        /* \"ReentrancyGuard.sol\":2399:2417  _status = _ENTERED */\n      dup2\n      swap1\n      sstore\n      pop\n        /* \"TEXOOrchestrator.sol\":14779:14800  PoolInfo storage pool */\n      0x00\n        /* \"TEXOOrchestrator.sol\":14803:14811  poolInfo */\n      0x09\n        /* \"TEXOOrchestrator.sol\":14812:14816  _pid */\n      dup3\n        /* \"TEXOOrchestrator.sol\":14803:14817  poolInfo[_pid] */\n      dup2\n      sload\n      dup2\n      lt\n      tag_255\n      jumpi\n      invalid\n    tag_255:\n      swap1\n      0x00\n      mstore\n      keccak256(0x00, 0x20)\n      swap1\n      0x07\n      mul\n      add\n        /* \"TEXOOrchestrator.sol\":14779:14817  PoolInfo storage pool = poolInfo[_pid] */\n      swap1\n      pop\n        /* \"TEXOOrchestrator.sol\":14827:14848  UserInfo storage user */\n      0x00\n        /* \"TEXOOrchestrator.sol\":14851:14859  userInfo */\n      0x0a\n        /* \"TEXOOrchestrator.sol\":14851:14865  userInfo[_pid] */\n      0x00\n        /* \"TEXOOrchestrator.sol\":14860:14864  _pid */\n      dup5\n        /* \"TEXOOrchestrator.sol\":14851:14865  userInfo[_pid] */\n      dup2\n      mstore\n      0x20\n      add\n      swap1\n      dup2\n      mstore\n      0x20\n      add\n      0x00\n      keccak256\n        /* \"TEXOOrchestrator.sol\":14851:14877  userInfo[_pid][msg.sender] */\n      0x00\n        /* \"TEXOOrchestrator.sol\":14866:14876  msg.sender */\n      caller\n        /* \"TEXOOrchestrator.sol\":14851:14877  userInfo[_pid][msg.sender] */\n      0xffffffffffffffffffffffffffffffffffffffff\n      and\n      0xffffffffffffffffffffffffffffffffffffffff\n      and\n      dup2\n      mstore\n      0x20\n      add\n      swap1\n      dup2\n      mstore\n      0x20\n      add\n      0x00\n      keccak256\n        /* \"TEXOOrchestrator.sol\":14827:14877  UserInfo storage user = userInfo[_pid][msg.sender] */\n      swap1\n      pop\n        /* \"TEXOOrchestrator.sol\":14887:14946  pool.lpToken.safeTransfer(address(msg.sender), user.amount) */\n      tag_257\n        /* \"TEXOOrchestrator.sol\":14921:14931  msg.sender */\n      caller\n        /* \"TEXOOrchestrator.sol\":14934:14938  user */\n      dup3\n        /* \"TEXOOrchestrator.sol\":14934:14945  user.amount */\n      0x00\n      add\n      sload\n        /* \"TEXOOrchestrator.sol\":14887:14891  pool */\n      dup5\n        /* \"TEXOOrchestrator.sol\":14887:14899  pool.lpToken */\n      0x00\n      add\n      0x00\n      swap1\n      sload\n      swap1\n      0x0100\n      exp\n      swap1\n      div\n      0xffffffffffffffffffffffffffffffffffffffff\n      and\n        /* \"TEXOOrchestrator.sol\":14887:14912  pool.lpToken.safeTransfer */\n      0xffffffffffffffffffffffffffffffffffffffff\n      and\n      tag_221\n      swap1\n        /* \"TEXOOrchestrator.sol\":14887:14946  pool.lpToken.safeTransfer(address(msg.sender), user.amount) */\n      swap3\n      swap2\n      swap1\n      0xffffffff\n      and\n      jump\t// in\n    tag_257:\n        /* \"TEXOOrchestrator.sol\":14992:14996  _pid */\n      dup3\n        /* \"TEXOOrchestrator.sol\":14980:14990  msg.sender */\n      caller\n        /* \"TEXOOrchestrator.sol\":14962:15010  EmergencyWithdraw(msg.sender, _pid, user.amount) */\n      0xffffffffffffffffffffffffffffffffffffffff\n      and\n      0xbb757047c2b5f3974fe26b7c10f732e7bce710b0952a71082702781e62ae0595\n        /* \"TEXOOrchestrator.sol\":14998:15002  user */\n      dup4\n        /* \"TEXOOrchestrator.sol\":14998:15009  user.amount */\n      0x00\n      add\n      sload\n        /* \"TEXOOrchestrator.sol\":14962:15010  EmergencyWithdraw(msg.sender, _pid, user.amount) */\n      mload(0x40)\n      dup1\n      dup3\n      dup2\n      mstore\n      0x20\n      add\n      swap2\n      pop\n      pop\n      mload(0x40)\n      dup1\n      swap2\n      sub\n      swap1\n      log3\n        /* \"TEXOOrchestrator.sol\":15035:15036  0 */\n      0x00\n        /* \"TEXOOrchestrator.sol\":15021:15025  user */\n      dup2\n        /* \"TEXOOrchestrator.sol\":15021:15032  user.amount */\n      0x00\n      add\n        /* \"TEXOOrchestrator.sol\":15021:15036  user.amount = 0 */\n      dup2\n      swap1\n      sstore\n      pop\n        /* \"TEXOOrchestrator.sol\":15064:15065  0 */\n      0x00\n        /* \"TEXOOrchestrator.sol\":15046:15050  user */\n      dup2\n        /* \"TEXOOrchestrator.sol\":15046:15061  user.rewardDebt */\n      0x01\n      add\n        /* \"TEXOOrchestrator.sol\":15046:15065  user.rewardDebt = 0 */\n      dup2\n      swap1\n      sstore\n      pop\n        /* \"ReentrancyGuard.sol\":2428:2429  _ */\n      pop\n      pop\n        /* \"ReentrancyGuard.sol\":1637:1638  1 */\n      0x01\n        /* \"ReentrancyGuard.sol\":2572:2579  _status */\n      dup1\n        /* \"ReentrancyGuard.sol\":2572:2594  _status = _NOT_ENTERED */\n      dup2\n      swap1\n      sstore\n      pop\n        /* \"TEXOOrchestrator.sol\":14708:15072  function emergencyWithdraw(uint256 _pid) public nonReentrant {... */\n      pop\n      jump\t// out\n        /* \"TEXOOrchestrator.sol\":2134:2181  uint256 public blockToStartReducingEmissionRate */\n    tag_91:\n      sload(0x06)\n      dup2\n      jump\t// out\n        /* \"TEXOOrchestrator.sol\":3418:3476  uint256 public constant MINIMUM_EMISSION_RATE = 100 finney */\n    tag_93:\n        /* \"TEXOOrchestrator.sol\":3466:3476  100 finney */\n      0x016345785d8a0000\n        /* \"TEXOOrchestrator.sol\":3418:3476  uint256 public constant MINIMUM_EMISSION_RATE = 100 finney */\n      dup2\n      jump\t// out\n        /* \"TEXOOrchestrator.sol\":9859:10034  function massUpdatePools() public {... */\n    tag_95:\n        /* \"TEXOOrchestrator.sol\":9903:9917  uint256 length */\n      0x00\n        /* \"TEXOOrchestrator.sol\":9920:9928  poolInfo */\n      0x09\n        /* \"TEXOOrchestrator.sol\":9920:9935  poolInfo.length */\n      dup1\n      sload\n      swap1\n      pop\n        /* \"TEXOOrchestrator.sol\":9903:9935  uint256 length = poolInfo.length */\n      swap1\n      pop\n        /* \"TEXOOrchestrator.sol\":9950:9961  uint256 pid */\n      0x00\n        /* \"TEXOOrchestrator.sol\":9945:10028  for (uint256 pid = 0; pid < length; ++pid) {... */\n    tag_259:\n        /* \"TEXOOrchestrator.sol\":9973:9979  length */\n      dup2\n        /* \"TEXOOrchestrator.sol\":9967:9970  pid */\n      dup2\n        /* \"TEXOOrchestrator.sol\":9967:9979  pid < length */\n      lt\n        /* \"TEXOOrchestrator.sol\":9945:10028  for (uint256 pid = 0; pid < length; ++pid) {... */\n      iszero\n      tag_260\n      jumpi\n        /* \"TEXOOrchestrator.sol\":10002:10017  updatePool(pid) */\n      tag_262\n        /* \"TEXOOrchestrator.sol\":10013:10016  pid */\n      dup2\n        /* \"TEXOOrchestrator.sol\":10002:10012  updatePool */\n      tag_86\n        /* \"TEXOOrchestrator.sol\":10002:10017  updatePool(pid) */\n      jump\t// in\n    tag_262:\n        /* \"TEXOOrchestrator.sol\":9981:9986  ++pid */\n      dup1\n      0x01\n      add\n      swap1\n      pop\n        /* \"TEXOOrchestrator.sol\":9945:10028  for (uint256 pid = 0; pid < length; ++pid) {... */\n      jump(tag_259)\n    tag_260:\n      pop\n        /* \"TEXOOrchestrator.sol\":9859:10034  function massUpdatePools() public {... */\n      pop\n      jump\t// out\n        /* \"TEXOOrchestrator.sol\":19189:19636  function updateReferralBonusBp(uint256 _newRefBonusBp) public onlyOwner {... */\n    tag_98:\n        /* \"Ownable.sol\":1289:1301  _msgSender() */\n      tag_264\n        /* \"Ownable.sol\":1289:1299  _msgSender */\n      tag_160\n        /* \"Ownable.sol\":1289:1301  _msgSender() */\n      jump\t// in\n    tag_264:\n        /* \"Ownable.sol\":1279:1301  _owner == _msgSender() */\n      0xffffffffffffffffffffffffffffffffffffffff\n      and\n        /* \"Ownable.sol\":1279:1285  _owner */\n      0x00\n      dup1\n      sload\n      swap1\n      0x0100\n      exp\n      swap1\n      div\n      0xffffffffffffffffffffffffffffffffffffffff\n      and\n        /* \"Ownable.sol\":1279:1301  _owner == _msgSender() */\n      0xffffffffffffffffffffffffffffffffffffffff\n      and\n      eq\n        /* \"Ownable.sol\":1271:1338  require(_owner == _msgSender(), 'Ownable: caller is not the owner') */\n      tag_265\n      jumpi\n      mload(0x40)\n      0x08c379a000000000000000000000000000000000000000000000000000000000\n      dup2\n      mstore\n      0x04\n      add\n      dup1\n      dup1\n      0x20\n      add\n      dup3\n      dup2\n      sub\n      dup3\n      mstore\n      0x20\n      dup2\n      mstore\n      0x20\n      add\n      dup1\n      0x4f776e61626c653a2063616c6c6572206973206e6f7420746865206f776e6572\n      dup2\n      mstore\n      pop\n      0x20\n      add\n      swap2\n      pop\n      pop\n      mload(0x40)\n      dup1\n      swap2\n      sub\n      swap1\n      revert\n    tag_265:\n        /* \"TEXOOrchestrator.sol\":2872:2876  2000 */\n      0x07d0\n        /* \"TEXOOrchestrator.sol\":19279:19316  _newRefBonusBp <= MAXIMUM_REFERRAL_BP */\n      0xffff\n      and\n        /* \"TEXOOrchestrator.sol\":19279:19293  _newRefBonusBp */\n      dup2\n        /* \"TEXOOrchestrator.sol\":19279:19316  _newRefBonusBp <= MAXIMUM_REFERRAL_BP */\n      gt\n      iszero\n        /* \"TEXOOrchestrator.sol\":19271:19379  require(_newRefBonusBp <= MAXIMUM_REFERRAL_BP, \"updateRefBonusPercent: invalid referral bonus basis points\") */\n      tag_267\n      jumpi\n      mload(0x40)\n      0x08c379a000000000000000000000000000000000000000000000000000000000\n      dup2\n      mstore\n      0x04\n      add\n      dup1\n      dup1\n      0x20\n      add\n      dup3\n      dup2\n      sub\n      dup3\n      mstore\n      0x3a\n      dup2\n      mstore\n      0x20\n      add\n      dup1\n      data_20a6bce988e8b6ff5852ac398e27735d1d8155a9d79e532ec3c3da13f504a6a4\n      0x3a\n      swap2\n      codecopy\n      0x40\n      add\n      swap2\n      pop\n      pop\n      mload(0x40)\n      dup1\n      swap2\n      sub\n      swap1\n      revert\n    tag_267:\n        /* \"TEXOOrchestrator.sol\":19415:19425  refBonusBP */\n      sload(0x0c)\n        /* \"TEXOOrchestrator.sol\":19397:19411  _newRefBonusBp */\n      dup2\n        /* \"TEXOOrchestrator.sol\":19397:19425  _newRefBonusBp != refBonusBP */\n      eq\n      iszero\n        /* \"TEXOOrchestrator.sol\":19389:19470  require(_newRefBonusBp != refBonusBP, \"updateRefBonusPercent: same bonus bp set\") */\n      tag_268\n      jumpi\n      mload(0x40)\n      0x08c379a000000000000000000000000000000000000000000000000000000000\n      dup2\n      mstore\n      0x04\n      add\n      dup1\n      dup1\n      0x20\n      add\n      dup3\n      dup2\n      sub\n      dup3\n      mstore\n      0x28\n      dup2\n      mstore\n      0x20\n      add\n      dup1\n      data_9d1a761c817eae8410d2081a433553cad78dcf01ebb754f58addc464260ba484\n      0x28\n      swap2\n      codecopy\n      0x40\n      add\n      swap2\n      pop\n      pop\n      mload(0x40)\n      dup1\n      swap2\n      sub\n      swap1\n      revert\n    tag_268:\n        /* \"TEXOOrchestrator.sol\":19480:19506  uint256 previousRefBonusBP */\n      0x00\n        /* \"TEXOOrchestrator.sol\":19509:19519  refBonusBP */\n      sload(0x0c)\n        /* \"TEXOOrchestrator.sol\":19480:19519  uint256 previousRefBonusBP = refBonusBP */\n      swap1\n      pop\n        /* \"TEXOOrchestrator.sol\":19542:19556  _newRefBonusBp */\n      dup2\n        /* \"TEXOOrchestrator.sol\":19529:19539  refBonusBP */\n      0x0c\n        /* \"TEXOOrchestrator.sol\":19529:19556  refBonusBP = _newRefBonusBp */\n      dup2\n      swap1\n      sstore\n      pop\n        /* \"TEXOOrchestrator.sol\":19571:19629  ReferralBonusBpChanged(previousRefBonusBP, _newRefBonusBp) */\n      0x3282b692bfebf5f35b198a229212cf532c72099026ab54c4b8665382d1086b3f\n        /* \"TEXOOrchestrator.sol\":19594:19612  previousRefBonusBP */\n      dup2\n        /* \"TEXOOrchestrator.sol\":19614:19628  _newRefBonusBp */\n      dup4\n        /* \"TEXOOrchestrator.sol\":19571:19629  ReferralBonusBpChanged(previousRefBonusBP, _newRefBonusBp) */\n      mload(0x40)\n      dup1\n      dup4\n      dup2\n      mstore\n      0x20\n      add\n      dup3\n      dup2\n      mstore\n      0x20\n      add\n      swap3\n      pop\n      pop\n      pop\n      mload(0x40)\n      dup1\n      swap2\n      sub\n      swap1\n      log1\n        /* \"Ownable.sol\":1348:1349  _ */\n      pop\n        /* \"TEXOOrchestrator.sol\":19189:19636  function updateReferralBonusBp(uint256 _newRefBonusBp) public onlyOwner {... */\n      pop\n      jump\t// out\n        /* \"TEXOOrchestrator.sol\":1989:2016  uint256 public tEXOPerBlock */\n    tag_100:\n      sload(0x04)\n      dup2\n      jump\t// out\n        /* \"TEXOOrchestrator.sol\":2663:2694  uint256 public refBonusBP = 200 */\n    tag_102:\n      sload(0x0c)\n      dup2\n      jump\t// out\n        /* \"TEXOOrchestrator.sol\":3778:3821  uint256 public lastReductionPeriodIndex = 0 */\n    tag_104:\n      sload(0x11)\n      dup2\n      jump\t// out\n        /* \"Ownable.sol\":1698:1835  function renounceOwnership() public onlyOwner {... */\n    tag_106:\n        /* \"Ownable.sol\":1289:1301  _msgSender() */\n      tag_270\n        /* \"Ownable.sol\":1289:1299  _msgSender */\n      tag_160\n        /* \"Ownable.sol\":1289:1301  _msgSender() */\n      jump\t// in\n    tag_270:\n        /* \"Ownable.sol\":1279:1301  _owner == _msgSender() */\n      0xffffffffffffffffffffffffffffffffffffffff\n      and\n        /* \"Ownable.sol\":1279:1285  _owner */\n      0x00\n      dup1\n      sload\n      swap1\n      0x0100\n      exp\n      swap1\n      div\n      0xffffffffffffffffffffffffffffffffffffffff\n      and\n        /* \"Ownable.sol\":1279:1301  _owner == _msgSender() */\n      0xffffffffffffffffffffffffffffffffffffffff\n      and\n      eq\n        /* \"Ownable.sol\":1271:1338  require(_owner == _msgSender(), 'Ownable: caller is not the owner') */\n      tag_271\n      jumpi\n      mload(0x40)\n      0x08c379a000000000000000000000000000000000000000000000000000000000\n      dup2\n      mstore\n      0x04\n      add\n      dup1\n      dup1\n      0x20\n      add\n      dup3\n      dup2\n      sub\n      dup3\n      mstore\n      0x20\n      dup2\n      mstore\n      0x20\n      add\n      dup1\n      0x4f776e61626c653a2063616c6c6572206973206e6f7420746865206f776e6572\n      dup2\n      mstore\n      pop\n      0x20\n      add\n      swap2\n      pop\n      pop\n      mload(0x40)\n      dup1\n      swap2\n      sub\n      swap1\n      revert\n    tag_271:\n        /* \"Ownable.sol\":1796:1797  0 */\n      0x00\n        /* \"Ownable.sol\":1759:1799  OwnershipTransferred(_owner, address(0)) */\n      0xffffffffffffffffffffffffffffffffffffffff\n      and\n        /* \"Ownable.sol\":1780:1786  _owner */\n      0x00\n      dup1\n      sload\n      swap1\n      0x0100\n      exp\n      swap1\n      div\n      0xffffffffffffffffffffffffffffffffffffffff\n      and\n        /* \"Ownable.sol\":1759:1799  OwnershipTransferred(_owner, address(0)) */\n      0xffffffffffffffffffffffffffffffffffffffff\n      and\n      0x8be0079c531659141344cd1fd0a4f28419497f9722a3daafe3b4186f6b6457e0\n      mload(0x40)\n      mload(0x40)\n      dup1\n      swap2\n      sub\n      swap1\n      log3\n        /* \"Ownable.sol\":1826:1827  0 */\n      0x00\n        /* \"Ownable.sol\":1809:1815  _owner */\n      dup1\n      0x00\n        /* \"Ownable.sol\":1809:1828  _owner = address(0) */\n      0x0100\n      exp\n      dup2\n      sload\n      dup2\n      0xffffffffffffffffffffffffffffffffffffffff\n      mul\n      not\n      and\n      swap1\n      dup4\n      0xffffffffffffffffffffffffffffffffffffffff\n      and\n      mul\n      or\n      swap1\n      sstore\n      pop\n        /* \"Ownable.sol\":1698:1835  function renounceOwnership() public onlyOwner {... */\n      jump\t// out\n        /* \"TEXOOrchestrator.sol\":15969:16265  function setFeeAddress(address _feeAddress) public {... */\n    tag_109:\n        /* \"TEXOOrchestrator.sol\":16061:16062  0 */\n      0x00\n        /* \"TEXOOrchestrator.sol\":16038:16063  _feeAddress != address(0) */\n      0xffffffffffffffffffffffffffffffffffffffff\n      and\n        /* \"TEXOOrchestrator.sol\":16038:16049  _feeAddress */\n      dup2\n        /* \"TEXOOrchestrator.sol\":16038:16063  _feeAddress != address(0) */\n      0xffffffffffffffffffffffffffffffffffffffff\n      and\n      eq\n      iszero\n        /* \"TEXOOrchestrator.sol\":16030:16098  require(_feeAddress != address(0), \"setFeeAddress: invalid address\") */\n      tag_274\n      jumpi\n      mload(0x40)\n      0x08c379a000000000000000000000000000000000000000000000000000000000\n      dup2\n      mstore\n      0x04\n      add\n      dup1\n      dup1\n      0x20\n      add\n      dup3\n      dup2\n      sub\n      dup3\n      mstore\n      0x1e\n      dup2\n      mstore\n      0x20\n      add\n      dup1\n      0x736574466565416464726573733a20696e76616c696420616464726573730000\n      dup2\n      mstore\n      pop\n      0x20\n      add\n      swap2\n      pop\n      pop\n      mload(0x40)\n      dup1\n      swap2\n      sub\n      swap1\n      revert\n    tag_274:\n        /* \"TEXOOrchestrator.sol\":16130:16140  feeAddress */\n      0x05\n      0x00\n      swap1\n      sload\n      swap1\n      0x0100\n      exp\n      swap1\n      div\n      0xffffffffffffffffffffffffffffffffffffffff\n      and\n        /* \"TEXOOrchestrator.sol\":16116:16140  msg.sender == feeAddress */\n      0xffffffffffffffffffffffffffffffffffffffff\n      and\n        /* \"TEXOOrchestrator.sol\":16116:16126  msg.sender */\n      caller\n        /* \"TEXOOrchestrator.sol\":16116:16140  msg.sender == feeAddress */\n      0xffffffffffffffffffffffffffffffffffffffff\n      and\n      eq\n        /* \"TEXOOrchestrator.sol\":16108:16169  require(msg.sender == feeAddress, \"setFeeAddress: FORBIDDEN\") */\n      tag_275\n      jumpi\n      mload(0x40)\n      0x08c379a000000000000000000000000000000000000000000000000000000000\n      dup2\n      mstore\n      0x04\n      add\n      dup1\n      dup1\n      0x20\n      add\n      dup3\n      dup2\n      sub\n      dup3\n      mstore\n      0x18\n      dup2\n      mstore\n      0x20\n      add\n      dup1\n      0x736574466565416464726573733a20464f5242494444454e0000000000000000\n      dup2\n      mstore\n      pop\n      0x20\n      add\n      swap2\n      pop\n      pop\n      mload(0x40)\n      dup1\n      swap2\n      sub\n      swap1\n      revert\n    tag_275:\n        /* \"TEXOOrchestrator.sol\":16193:16204  _feeAddress */\n      dup1\n        /* \"TEXOOrchestrator.sol\":16180:16190  feeAddress */\n      0x05\n      0x00\n        /* \"TEXOOrchestrator.sol\":16180:16204  feeAddress = _feeAddress */\n      0x0100\n      exp\n      dup2\n      sload\n      dup2\n      0xffffffffffffffffffffffffffffffffffffffff\n      mul\n      not\n      and\n      swap1\n      dup4\n      0xffffffffffffffffffffffffffffffffffffffff\n      and\n      mul\n      or\n      swap1\n      sstore\n      pop\n        /* \"TEXOOrchestrator.sol\":16246:16257  _feeAddress */\n      dup1\n        /* \"TEXOOrchestrator.sol\":16220:16258  SetFeeAddress(msg.sender, _feeAddress) */\n      0xffffffffffffffffffffffffffffffffffffffff\n      and\n        /* \"TEXOOrchestrator.sol\":16234:16244  msg.sender */\n      caller\n        /* \"TEXOOrchestrator.sol\":16220:16258  SetFeeAddress(msg.sender, _feeAddress) */\n      0xffffffffffffffffffffffffffffffffffffffff\n      and\n      0xd44190acf9d04bdb5d3a1aafff7e6dee8b40b93dfb8c5d3f0eea4b9f4539c3f7\n      mload(0x40)\n      mload(0x40)\n      dup1\n      swap2\n      sub\n      swap1\n      log3\n        /* \"TEXOOrchestrator.sol\":15969:16265  function setFeeAddress(address _feeAddress) public {... */\n      pop\n      jump\t// out\n        /* \"Ownable.sol\":1075:1152  function owner() public view returns (address) {... */\n    tag_111:\n        /* \"Ownable.sol\":1113:1120  address */\n      0x00\n        /* \"Ownable.sol\":1139:1145  _owner */\n      dup1\n      0x00\n      swap1\n      sload\n      swap1\n      0x0100\n      exp\n      swap1\n      div\n      0xffffffffffffffffffffffffffffffffffffffff\n      and\n        /* \"Ownable.sol\":1132:1145  return _owner */\n      swap1\n      pop\n        /* \"Ownable.sol\":1075:1152  function owner() public view returns (address) {... */\n      swap1\n      jump\t// out\n        /* \"TEXOOrchestrator.sol\":8147:8266  function getMultiplier(uint256 _from, uint256 _to) public pure returns (uint256) {... */\n    tag_114:\n        /* \"TEXOOrchestrator.sol\":8219:8226  uint256 */\n      0x00\n        /* \"TEXOOrchestrator.sol\":8245:8259  _to.sub(_from) */\n      tag_278\n        /* \"TEXOOrchestrator.sol\":8253:8258  _from */\n      dup4\n        /* \"TEXOOrchestrator.sol\":8245:8248  _to */\n      dup4\n        /* \"TEXOOrchestrator.sol\":8245:8252  _to.sub */\n      tag_172\n      swap1\n        /* \"TEXOOrchestrator.sol\":8245:8259  _to.sub(_from) */\n      swap2\n      swap1\n      0xffffffff\n      and\n      jump\t// in\n    tag_278:\n        /* \"TEXOOrchestrator.sol\":8238:8259  return _to.sub(_from) */\n      swap1\n      pop\n        /* \"TEXOOrchestrator.sol\":8147:8266  function getMultiplier(uint256 _from, uint256 _to) public pure returns (uint256) {... */\n      swap3\n      swap2\n      pop\n      pop\n      jump\t// out\n        /* \"TEXOOrchestrator.sol\":11770:13124  function deposit(uint256 _pid, uint256 _amount, address _referrer) public nonReentrant {... */\n    tag_117:\n        /* \"ReentrancyGuard.sol\":1680:1681  2 */\n      0x02\n        /* \"ReentrancyGuard.sol\":2269:2276  _status */\n      sload(0x01)\n        /* \"ReentrancyGuard.sol\":2269:2288  _status != _ENTERED */\n      eq\n      iszero\n        /* \"ReentrancyGuard.sol\":2261:2324  require(_status != _ENTERED, \"ReentrancyGuard: reentrant call\") */\n      tag_280\n      jumpi\n      mload(0x40)\n      0x08c379a000000000000000000000000000000000000000000000000000000000\n      dup2\n      mstore\n      0x04\n      add\n      dup1\n      dup1\n      0x20\n      add\n      dup3\n      dup2\n      sub\n      dup3\n      mstore\n      0x1f\n      dup2\n      mstore\n      0x20\n      add\n      dup1\n      0x5265656e7472616e637947756172643a207265656e7472616e742063616c6c00\n      dup2\n      mstore\n      pop\n      0x20\n      add\n      swap2\n      pop\n      pop\n      mload(0x40)\n      dup1\n      swap2\n      sub\n      swap1\n      revert\n    tag_280:\n        /* \"ReentrancyGuard.sol\":1680:1681  2 */\n      0x02\n        /* \"ReentrancyGuard.sol\":2399:2406  _status */\n      0x01\n        /* \"ReentrancyGuard.sol\":2399:2417  _status = _ENTERED */\n      dup2\n      swap1\n      sstore\n      pop\n        /* \"TEXOOrchestrator.sol\":11896:11905  _referrer */\n      dup1\n        /* \"TEXOOrchestrator.sol\":11875:11906  _referrer == address(_referrer) */\n      0xffffffffffffffffffffffffffffffffffffffff\n      and\n        /* \"TEXOOrchestrator.sol\":11875:11884  _referrer */\n      dup2\n        /* \"TEXOOrchestrator.sol\":11875:11906  _referrer == address(_referrer) */\n      0xffffffffffffffffffffffffffffffffffffffff\n      and\n      eq\n        /* \"TEXOOrchestrator.sol\":11867:11943  require(_referrer == address(_referrer),\"deposit: Invalid referrer address\") */\n      tag_282\n      jumpi\n      mload(0x40)\n      0x08c379a000000000000000000000000000000000000000000000000000000000\n      dup2\n      mstore\n      0x04\n      add\n      dup1\n      dup1\n      0x20\n      add\n      dup3\n      dup2\n      sub\n      dup3\n      mstore\n      0x21\n      dup2\n      mstore\n      0x20\n      add\n      dup1\n      data_542d191555ea619dedb1489efd71948659c57b11c6c1a84d1c1ce6e7c8074aad\n      0x21\n      swap2\n      codecopy\n      0x40\n      add\n      swap2\n      pop\n      pop\n      mload(0x40)\n      dup1\n      swap2\n      sub\n      swap1\n      revert\n    tag_282:\n        /* \"TEXOOrchestrator.sol\":11954:11975  PoolInfo storage pool */\n      0x00\n        /* \"TEXOOrchestrator.sol\":11978:11986  poolInfo */\n      0x09\n        /* \"TEXOOrchestrator.sol\":11987:11991  _pid */\n      dup5\n        /* \"TEXOOrchestrator.sol\":11978:11992  poolInfo[_pid] */\n      dup2\n      sload\n      dup2\n      lt\n      tag_283\n      jumpi\n      invalid\n    tag_283:\n      swap1\n      0x00\n      mstore\n      keccak256(0x00, 0x20)\n      swap1\n      0x07\n      mul\n      add\n        /* \"TEXOOrchestrator.sol\":11954:11992  PoolInfo storage pool = poolInfo[_pid] */\n      swap1\n      pop\n        /* \"TEXOOrchestrator.sol\":12027:12028  0 */\n      0x00\n        /* \"TEXOOrchestrator.sol\":12006:12010  pool */\n      dup2\n        /* \"TEXOOrchestrator.sol\":12006:12024  pool.inActiveBlock */\n      0x03\n      add\n      sload\n        /* \"TEXOOrchestrator.sol\":12006:12028  pool.inActiveBlock > 0 */\n      gt\n        /* \"TEXOOrchestrator.sol\":12002:12135  if (pool.inActiveBlock > 0) {... */\n      iszero\n      tag_285\n      jumpi\n        /* \"TEXOOrchestrator.sol\":12068:12072  pool */\n      dup1\n        /* \"TEXOOrchestrator.sol\":12068:12086  pool.inActiveBlock */\n      0x03\n      add\n      sload\n        /* \"TEXOOrchestrator.sol\":12052:12064  block.number */\n      number\n        /* \"TEXOOrchestrator.sol\":12052:12086  block.number <= pool.inActiveBlock */\n      gt\n      iszero\n        /* \"TEXOOrchestrator.sol\":12044:12124  require(block.number <= pool.inActiveBlock, \"deposit: staking period has ended\") */\n      tag_286\n      jumpi\n      mload(0x40)\n      0x08c379a000000000000000000000000000000000000000000000000000000000\n      dup2\n      mstore\n      0x04\n      add\n      dup1\n      dup1\n      0x20\n      add\n      dup3\n      dup2\n      sub\n      dup3\n      mstore\n      0x21\n      dup2\n      mstore\n      0x20\n      add\n      dup1\n      data_defd5c903b3416581b5d98f5a021e4c2963664705201c58ffb06423da9b1f891\n      0x21\n      swap2\n      codecopy\n      0x40\n      add\n      swap2\n      pop\n      pop\n      mload(0x40)\n      dup1\n      swap2\n      sub\n      swap1\n      revert\n    tag_286:\n        /* \"TEXOOrchestrator.sol\":12002:12135  if (pool.inActiveBlock > 0) {... */\n    tag_285:\n        /* \"TEXOOrchestrator.sol\":12145:12166  UserInfo storage user */\n      0x00\n        /* \"TEXOOrchestrator.sol\":12169:12177  userInfo */\n      0x0a\n        /* \"TEXOOrchestrator.sol\":12169:12183  userInfo[_pid] */\n      0x00\n        /* \"TEXOOrchestrator.sol\":12178:12182  _pid */\n      dup7\n        /* \"TEXOOrchestrator.sol\":12169:12183  userInfo[_pid] */\n      dup2\n      mstore\n      0x20\n      add\n      swap1\n      dup2\n      mstore\n      0x20\n      add\n      0x00\n      keccak256\n        /* \"TEXOOrchestrator.sol\":12169:12195  userInfo[_pid][msg.sender] */\n      0x00\n        /* \"TEXOOrchestrator.sol\":12184:12194  msg.sender */\n      caller\n        /* \"TEXOOrchestrator.sol\":12169:12195  userInfo[_pid][msg.sender] */\n      0xffffffffffffffffffffffffffffffffffffffff\n      and\n      0xffffffffffffffffffffffffffffffffffffffff\n      and\n      dup2\n      mstore\n      0x20\n      add\n      swap1\n      dup2\n      mstore\n      0x20\n      add\n      0x00\n      keccak256\n        /* \"TEXOOrchestrator.sol\":12145:12195  UserInfo storage user = userInfo[_pid][msg.sender] */\n      swap1\n      pop\n        /* \"TEXOOrchestrator.sol\":12206:12222  updatePool(_pid) */\n      tag_287\n        /* \"TEXOOrchestrator.sol\":12217:12221  _pid */\n      dup6\n        /* \"TEXOOrchestrator.sol\":12206:12216  updatePool */\n      tag_86\n        /* \"TEXOOrchestrator.sol\":12206:12222  updatePool(_pid) */\n      jump\t// in\n    tag_287:\n        /* \"TEXOOrchestrator.sol\":12233:12261  payOrLockupPendingTEXO(_pid) */\n      tag_288\n        /* \"TEXOOrchestrator.sol\":12256:12260  _pid */\n      dup6\n        /* \"TEXOOrchestrator.sol\":12233:12255  payOrLockupPendingTEXO */\n      tag_217\n        /* \"TEXOOrchestrator.sol\":12233:12261  payOrLockupPendingTEXO(_pid) */\n      jump\t// in\n    tag_288:\n        /* \"TEXOOrchestrator.sol\":12286:12287  0 */\n      0x00\n        /* \"TEXOOrchestrator.sol\":12276:12283  _amount */\n      dup5\n        /* \"TEXOOrchestrator.sol\":12276:12287  _amount > 0 */\n      gt\n        /* \"TEXOOrchestrator.sol\":12276:12314  _amount > 0 && _referrer != address(0) */\n      dup1\n      iszero\n      tag_289\n      jumpi\n      pop\n        /* \"TEXOOrchestrator.sol\":12312:12313  0 */\n      0x00\n        /* \"TEXOOrchestrator.sol\":12291:12314  _referrer != address(0) */\n      0xffffffffffffffffffffffffffffffffffffffff\n      and\n        /* \"TEXOOrchestrator.sol\":12291:12300  _referrer */\n      dup4\n        /* \"TEXOOrchestrator.sol\":12291:12314  _referrer != address(0) */\n      0xffffffffffffffffffffffffffffffffffffffff\n      and\n      eq\n      iszero\n        /* \"TEXOOrchestrator.sol\":12276:12314  _amount > 0 && _referrer != address(0) */\n    tag_289:\n        /* \"TEXOOrchestrator.sol\":12276:12341  _amount > 0 && _referrer != address(0) && _referrer != msg.sender */\n      dup1\n      iszero\n      tag_290\n      jumpi\n      pop\n        /* \"TEXOOrchestrator.sol\":12331:12341  msg.sender */\n      caller\n        /* \"TEXOOrchestrator.sol\":12318:12341  _referrer != msg.sender */\n      0xffffffffffffffffffffffffffffffffffffffff\n      and\n        /* \"TEXOOrchestrator.sol\":12318:12327  _referrer */\n      dup4\n        /* \"TEXOOrchestrator.sol\":12318:12341  _referrer != msg.sender */\n      0xffffffffffffffffffffffffffffffffffffffff\n      and\n      eq\n      iszero\n        /* \"TEXOOrchestrator.sol\":12276:12341  _amount > 0 && _referrer != address(0) && _referrer != msg.sender */\n    tag_290:\n        /* \"TEXOOrchestrator.sol\":12272:12402  if (_amount > 0 && _referrer != address(0) && _referrer != msg.sender) {... */\n      iszero\n      tag_291\n      jumpi\n        /* \"TEXOOrchestrator.sol\":12357:12391  setReferral(msg.sender, _referrer) */\n      tag_292\n        /* \"TEXOOrchestrator.sol\":12369:12379  msg.sender */\n      caller\n        /* \"TEXOOrchestrator.sol\":12381:12390  _referrer */\n      dup5\n        /* \"TEXOOrchestrator.sol\":12357:12368  setReferral */\n      tag_293\n        /* \"TEXOOrchestrator.sol\":12357:12391  setReferral(msg.sender, _referrer) */\n      jump\t// in\n    tag_292:\n        /* \"TEXOOrchestrator.sol\":12272:12402  if (_amount > 0 && _referrer != address(0) && _referrer != msg.sender) {... */\n    tag_291:\n        /* \"TEXOOrchestrator.sol\":12426:12427  0 */\n      0x00\n        /* \"TEXOOrchestrator.sol\":12416:12423  _amount */\n      dup5\n        /* \"TEXOOrchestrator.sol\":12416:12427  _amount > 0 */\n      gt\n        /* \"TEXOOrchestrator.sol\":12412:12966  if (_amount > 0) {... */\n      iszero\n      tag_294\n      jumpi\n        /* \"TEXOOrchestrator.sol\":12443:12517  pool.lpToken.safeTransferFrom(address(msg.sender), address(this), _amount) */\n      tag_295\n        /* \"TEXOOrchestrator.sol\":12481:12491  msg.sender */\n      caller\n        /* \"TEXOOrchestrator.sol\":12502:12506  this */\n      address\n        /* \"TEXOOrchestrator.sol\":12509:12516  _amount */\n      dup7\n        /* \"TEXOOrchestrator.sol\":12443:12447  pool */\n      dup6\n        /* \"TEXOOrchestrator.sol\":12443:12455  pool.lpToken */\n      0x00\n      add\n      0x00\n      swap1\n      sload\n      swap1\n      0x0100\n      exp\n      swap1\n      div\n      0xffffffffffffffffffffffffffffffffffffffff\n      and\n        /* \"TEXOOrchestrator.sol\":12443:12472  pool.lpToken.safeTransferFrom */\n      0xffffffffffffffffffffffffffffffffffffffff\n      and\n      tag_296\n      swap1\n        /* \"TEXOOrchestrator.sol\":12443:12517  pool.lpToken.safeTransferFrom(address(msg.sender), address(this), _amount) */\n      swap4\n      swap3\n      swap2\n      swap1\n      0xffffffff\n      and\n      jump\t// in\n    tag_295:\n        /* \"TEXOOrchestrator.sol\":12556:12557  0 */\n      0x00\n        /* \"TEXOOrchestrator.sol\":12536:12540  pool */\n      dup3\n        /* \"TEXOOrchestrator.sol\":12536:12553  pool.depositFeeBP */\n      0x06\n      add\n      0x00\n      swap1\n      sload\n      swap1\n      0x0100\n      exp\n      swap1\n      div\n      0xffff\n      and\n        /* \"TEXOOrchestrator.sol\":12536:12557  pool.depositFeeBP > 0 */\n      0xffff\n      and\n      gt\n        /* \"TEXOOrchestrator.sol\":12532:12956  if (pool.depositFeeBP > 0) {... */\n      iszero\n      tag_297\n      jumpi\n        /* \"TEXOOrchestrator.sol\":12577:12595  uint256 depositFee */\n      0x00\n        /* \"TEXOOrchestrator.sol\":12598:12681  _amount... */\n      tag_298\n        /* \"TEXOOrchestrator.sol\":12675:12680  10000 */\n      0x2710\n        /* \"TEXOOrchestrator.sol\":12598:12649  _amount... */\n      tag_299\n        /* \"TEXOOrchestrator.sol\":12631:12635  pool */\n      dup6\n        /* \"TEXOOrchestrator.sol\":12631:12648  pool.depositFeeBP */\n      0x06\n      add\n      0x00\n      swap1\n      sload\n      swap1\n      0x0100\n      exp\n      swap1\n      div\n      0xffff\n      and\n        /* \"TEXOOrchestrator.sol\":12598:12649  _amount... */\n      0xffff\n      and\n        /* \"TEXOOrchestrator.sol\":12598:12605  _amount */\n      dup9\n        /* \"TEXOOrchestrator.sol\":12598:12630  _amount... */\n      tag_224\n      swap1\n        /* \"TEXOOrchestrator.sol\":12598:12649  _amount... */\n      swap2\n      swap1\n      0xffffffff\n      and\n      jump\t// in\n    tag_299:\n        /* \"TEXOOrchestrator.sol\":12598:12674  _amount... */\n      tag_225\n      swap1\n        /* \"TEXOOrchestrator.sol\":12598:12681  _amount... */\n      swap2\n      swap1\n      0xffffffff\n      and\n      jump\t// in\n    tag_298:\n        /* \"TEXOOrchestrator.sol\":12577:12681  uint256 depositFee = _amount... */\n      swap1\n      pop\n        /* \"TEXOOrchestrator.sol\":12714:12796  user.amount... */\n      tag_300\n        /* \"TEXOOrchestrator.sol\":12785:12795  depositFee */\n      dup2\n        /* \"TEXOOrchestrator.sol\":12714:12759  user.amount... */\n      tag_301\n        /* \"TEXOOrchestrator.sol\":12751:12758  _amount */\n      dup8\n        /* \"TEXOOrchestrator.sol\":12714:12718  user */\n      dup6\n        /* \"TEXOOrchestrator.sol\":12714:12725  user.amount */\n      0x00\n      add\n      sload\n        /* \"TEXOOrchestrator.sol\":12714:12750  user.amount... */\n      tag_173\n      swap1\n        /* \"TEXOOrchestrator.sol\":12714:12759  user.amount... */\n      swap2\n      swap1\n      0xffffffff\n      and\n      jump\t// in\n    tag_301:\n        /* \"TEXOOrchestrator.sol\":12714:12784  user.amount... */\n      tag_172\n      swap1\n        /* \"TEXOOrchestrator.sol\":12714:12796  user.amount... */\n      swap2\n      swap1\n      0xffffffff\n      and\n      jump\t// in\n    tag_300:\n        /* \"TEXOOrchestrator.sol\":12700:12704  user */\n      dup3\n        /* \"TEXOOrchestrator.sol\":12700:12711  user.amount */\n      0x00\n      add\n        /* \"TEXOOrchestrator.sol\":12700:12796  user.amount = user.amount... */\n      dup2\n      swap1\n      sstore\n      pop\n        /* \"TEXOOrchestrator.sol\":12815:12864  pool.lpToken.safeTransfer(feeAddress, depositFee) */\n      tag_302\n        /* \"TEXOOrchestrator.sol\":12841:12851  feeAddress */\n      0x05\n      0x00\n      swap1\n      sload\n      swap1\n      0x0100\n      exp\n      swap1\n      div\n      0xffffffffffffffffffffffffffffffffffffffff\n      and\n        /* \"TEXOOrchestrator.sol\":12853:12863  depositFee */\n      dup3\n        /* \"TEXOOrchestrator.sol\":12815:12819  pool */\n      dup6\n        /* \"TEXOOrchestrator.sol\":12815:12827  pool.lpToken */\n      0x00\n      add\n      0x00\n      swap1\n      sload\n      swap1\n      0x0100\n      exp\n      swap1\n      div\n      0xffffffffffffffffffffffffffffffffffffffff\n      and\n        /* \"TEXOOrchestrator.sol\":12815:12840  pool.lpToken.safeTransfer */\n      0xffffffffffffffffffffffffffffffffffffffff\n      and\n      tag_221\n      swap1\n        /* \"TEXOOrchestrator.sol\":12815:12864  pool.lpToken.safeTransfer(feeAddress, depositFee) */\n      swap3\n      swap2\n      swap1\n      0xffffffff\n      and\n      jump\t// in\n    tag_302:\n        /* \"TEXOOrchestrator.sol\":12532:12956  if (pool.depositFeeBP > 0) {... */\n      pop\n      jump(tag_303)\n    tag_297:\n        /* \"TEXOOrchestrator.sol\":12917:12941  user.amount.add(_amount) */\n      tag_304\n        /* \"TEXOOrchestrator.sol\":12933:12940  _amount */\n      dup5\n        /* \"TEXOOrchestrator.sol\":12917:12921  user */\n      dup3\n        /* \"TEXOOrchestrator.sol\":12917:12928  user.amount */\n      0x00\n      add\n      sload\n        /* \"TEXOOrchestrator.sol\":12917:12932  user.amount.add */\n      tag_173\n      swap1\n        /* \"TEXOOrchestrator.sol\":12917:12941  user.amount.add(_amount) */\n      swap2\n      swap1\n      0xffffffff\n      and\n      jump\t// in\n    tag_304:\n        /* \"TEXOOrchestrator.sol\":12903:12907  user */\n      dup2\n        /* \"TEXOOrchestrator.sol\":12903:12914  user.amount */\n      0x00\n      add\n        /* \"TEXOOrchestrator.sol\":12903:12941  user.amount = user.amount.add(_amount) */\n      dup2\n      swap1\n      sstore\n      pop\n        /* \"TEXOOrchestrator.sol\":12532:12956  if (pool.depositFeeBP > 0) {... */\n    tag_303:\n        /* \"TEXOOrchestrator.sol\":12412:12966  if (_amount > 0) {... */\n    tag_294:\n        /* \"TEXOOrchestrator.sol\":12994:13067  user.amount... */\n      tag_305\n        /* \"TEXOOrchestrator.sol\":13062:13066  1e12 */\n      0xe8d4a51000\n        /* \"TEXOOrchestrator.sol\":12994:13044  user.amount... */\n      tag_306\n        /* \"TEXOOrchestrator.sol\":13023:13027  pool */\n      dup5\n        /* \"TEXOOrchestrator.sol\":13023:13043  pool.accTEXOPerShare */\n      0x05\n      add\n      sload\n        /* \"TEXOOrchestrator.sol\":12994:12998  user */\n      dup5\n        /* \"TEXOOrchestrator.sol\":12994:13005  user.amount */\n      0x00\n      add\n      sload\n        /* \"TEXOOrchestrator.sol\":12994:13022  user.amount... */\n      tag_224\n      swap1\n        /* \"TEXOOrchestrator.sol\":12994:13044  user.amount... */\n      swap2\n      swap1\n      0xffffffff\n      and\n      jump\t// in\n    tag_306:\n        /* \"TEXOOrchestrator.sol\":12994:13061  user.amount... */\n      tag_225\n      swap1\n        /* \"TEXOOrchestrator.sol\":12994:13067  user.amount... */\n      swap2\n      swap1\n      0xffffffff\n      and\n      jump\t// in\n    tag_305:\n        /* \"TEXOOrchestrator.sol\":12976:12980  user */\n      dup2\n        /* \"TEXOOrchestrator.sol\":12976:12991  user.rewardDebt */\n      0x01\n      add\n        /* \"TEXOOrchestrator.sol\":12976:13067  user.rewardDebt = user.amount... */\n      dup2\n      swap1\n      sstore\n      pop\n        /* \"TEXOOrchestrator.sol\":13103:13107  _pid */\n      dup5\n        /* \"TEXOOrchestrator.sol\":13091:13101  msg.sender */\n      caller\n        /* \"TEXOOrchestrator.sol\":13083:13117  Deposit(msg.sender, _pid, _amount) */\n      0xffffffffffffffffffffffffffffffffffffffff\n      and\n      0x90890809c654f11d6e72a28fa60149770a0d11ec6c92319d6ceb2bb0a4ea1a15\n        /* \"TEXOOrchestrator.sol\":13109:13116  _amount */\n      dup7\n        /* \"TEXOOrchestrator.sol\":13083:13117  Deposit(msg.sender, _pid, _amount) */\n      mload(0x40)\n      dup1\n      dup3\n      dup2\n      mstore\n      0x20\n      add\n      swap2\n      pop\n      pop\n      mload(0x40)\n      dup1\n      swap2\n      sub\n      swap1\n      log3\n        /* \"ReentrancyGuard.sol\":2428:2429  _ */\n      pop\n      pop\n        /* \"ReentrancyGuard.sol\":1637:1638  1 */\n      0x01\n        /* \"ReentrancyGuard.sol\":2572:2579  _status */\n      dup1\n        /* \"ReentrancyGuard.sol\":2572:2594  _status = _NOT_ENTERED */\n      dup2\n      swap1\n      sstore\n      pop\n        /* \"TEXOOrchestrator.sol\":11770:13124  function deposit(uint256 _pid, uint256 _amount, address _referrer) public nonReentrant {... */\n      pop\n      pop\n      pop\n      jump\t// out\n        /* \"TEXOOrchestrator.sol\":3303:3361  uint256 public constant INITIAL_EMISSION_RATE = 500 finney */\n    tag_119:\n        /* \"TEXOOrchestrator.sol\":3351:3361  500 finney */\n      0x06f05b59d3b20000\n        /* \"TEXOOrchestrator.sol\":3303:3361  uint256 public constant INITIAL_EMISSION_RATE = 500 finney */\n      dup2\n      jump\t// out\n        /* \"TEXOOrchestrator.sol\":2407:2471  mapping(uint256 => mapping(address => UserInfo)) public userInfo */\n    tag_122:\n      mstore(0x20, 0x0a)\n      dup2\n      0x00\n      mstore\n      mstore(0x20, keccak256(0x00, 0x40))\n      dup1\n      0x00\n      mstore\n      keccak256(0x00, 0x40)\n      0x00\n      swap2\n      pop\n      swap2\n      pop\n      pop\n      dup1\n      0x00\n      add\n      sload\n      swap1\n      dup1\n      0x01\n      add\n      sload\n      swap1\n      dup1\n      0x02\n      add\n      sload\n      swap1\n      pop\n      dup4\n      jump\t// out\n        /* \"TEXOOrchestrator.sol\":2728:2779  uint16 public constant MAXIMUM_DEPOSIT_FEE_BP = 400 */\n    tag_124:\n        /* \"TEXOOrchestrator.sol\":2776:2779  400 */\n      0x0190\n        /* \"TEXOOrchestrator.sol\":2728:2779  uint16 public constant MAXIMUM_DEPOSIT_FEE_BP = 400 */\n      dup2\n      jump\t// out\n        /* \"TEXOOrchestrator.sol\":3194:3246  mapping(IBEP20 => uint256) public poolIdForLpAddress */\n    tag_127:\n      mstore(0x20, 0x10)\n      dup1\n      0x00\n      mstore\n      keccak256(0x00, 0x40)\n      0x00\n      swap2\n      pop\n      swap1\n      pop\n      sload\n      dup2\n      jump\t// out\n        /* \"TEXOOrchestrator.sol\":2188:2237  uint256 public globalBlockToUnlockClaimingRewards */\n    tag_129:\n      sload(0x07)\n      dup2\n      jump\t// out\n        /* \"TEXOOrchestrator.sol\":17703:17984  function setEmissionRate(uint256 newEmissionRate) public onlyOwner {... */\n    tag_132:\n        /* \"Ownable.sol\":1289:1301  _msgSender() */\n      tag_308\n        /* \"Ownable.sol\":1289:1299  _msgSender */\n      tag_160\n        /* \"Ownable.sol\":1289:1301  _msgSender() */\n      jump\t// in\n    tag_308:\n        /* \"Ownable.sol\":1279:1301  _owner == _msgSender() */\n      0xffffffffffffffffffffffffffffffffffffffff\n      and\n        /* \"Ownable.sol\":1279:1285  _owner */\n      0x00\n      dup1\n      sload\n      swap1\n      0x0100\n      exp\n      swap1\n      div\n      0xffffffffffffffffffffffffffffffffffffffff\n      and\n        /* \"Ownable.sol\":1279:1301  _owner == _msgSender() */\n      0xffffffffffffffffffffffffffffffffffffffff\n      and\n      eq\n        /* \"Ownable.sol\":1271:1338  require(_owner == _msgSender(), 'Ownable: caller is not the owner') */\n      tag_309\n      jumpi\n      mload(0x40)\n      0x08c379a000000000000000000000000000000000000000000000000000000000\n      dup2\n      mstore\n      0x04\n      add\n      dup1\n      dup1\n      0x20\n      add\n      dup3\n      dup2\n      sub\n      dup3\n      mstore\n      0x20\n      dup2\n      mstore\n      0x20\n      add\n      dup1\n      0x4f776e61626c653a2063616c6c6572206973206e6f7420746865206f776e6572\n      dup2\n      mstore\n      pop\n      0x20\n      add\n      swap2\n      pop\n      pop\n      mload(0x40)\n      dup1\n      swap2\n      sub\n      swap1\n      revert\n    tag_309:\n        /* \"TEXOOrchestrator.sol\":17780:17808  uint256 previousEmissionRate */\n      0x00\n        /* \"TEXOOrchestrator.sol\":17811:17823  tEXOPerBlock */\n      sload(0x04)\n        /* \"TEXOOrchestrator.sol\":17780:17823  uint256 previousEmissionRate = tEXOPerBlock */\n      swap1\n      pop\n        /* \"TEXOOrchestrator.sol\":17848:17863  newEmissionRate */\n      dup2\n        /* \"TEXOOrchestrator.sol\":17833:17845  tEXOPerBlock */\n      0x04\n        /* \"TEXOOrchestrator.sol\":17833:17863  tEXOPerBlock = newEmissionRate */\n      dup2\n      swap1\n      sstore\n      pop\n        /* \"TEXOOrchestrator.sol\":17874:17891  massUpdatePools() */\n      tag_311\n        /* \"TEXOOrchestrator.sol\":17874:17889  massUpdatePools */\n      tag_95\n        /* \"TEXOOrchestrator.sol\":17874:17891  massUpdatePools() */\n      jump\t// in\n    tag_311:\n        /* \"TEXOOrchestrator.sol\":17927:17937  msg.sender */\n      caller\n        /* \"TEXOOrchestrator.sol\":17907:17977  EmissionRateUpdated(msg.sender, previousEmissionRate, newEmissionRate) */\n      0xffffffffffffffffffffffffffffffffffffffff\n      and\n      0xeedc6338c9c1ad8f3cd6c90dd09dbe98dbd57e610d3e59a17996d07acb0d9511\n        /* \"TEXOOrchestrator.sol\":17939:17959  previousEmissionRate */\n      dup3\n        /* \"TEXOOrchestrator.sol\":17961:17976  newEmissionRate */\n      dup5\n        /* \"TEXOOrchestrator.sol\":17907:17977  EmissionRateUpdated(msg.sender, previousEmissionRate, newEmissionRate) */\n      mload(0x40)\n      dup1\n      dup4\n      dup2\n      mstore\n      0x20\n      add\n      dup3\n      dup2\n      mstore\n      0x20\n      add\n      swap3\n      pop\n      pop\n      pop\n      mload(0x40)\n      dup1\n      swap2\n      sub\n      swap1\n      log2\n        /* \"Ownable.sol\":1348:1349  _ */\n      pop\n        /* \"TEXOOrchestrator.sol\":17703:17984  function setEmissionRate(uint256 newEmissionRate) public onlyOwner {... */\n      pop\n      jump\t// out\n        /* \"TEXOOrchestrator.sol\":1876:1897  TEXOToken public tEXO */\n    tag_134:\n      0x02\n      0x00\n      swap1\n      sload\n      swap1\n      0x0100\n      exp\n      swap1\n      div\n      0xffffffffffffffffffffffffffffffffffffffff\n      and\n      dup2\n      jump\t// out\n        /* \"TEXOOrchestrator.sol\":3672:3737  uint256 public constant EMISSION_REDUCTION_RATE_PER_PERIOD = 1500 */\n    tag_136:\n        /* \"TEXOOrchestrator.sol\":3733:3737  1500 */\n      0x05dc\n        /* \"TEXOOrchestrator.sol\":3672:3737  uint256 public constant EMISSION_REDUCTION_RATE_PER_PERIOD = 1500 */\n      dup2\n      jump\t// out\n        /* \"TEXOOrchestrator.sol\":11511:11690  function canClaimReward(uint256 _pid) public view returns (bool) {... */\n    tag_139:\n        /* \"TEXOOrchestrator.sol\":11570:11574  bool */\n      0x00\n        /* \"TEXOOrchestrator.sol\":11586:11607  PoolInfo storage pool */\n      dup1\n        /* \"TEXOOrchestrator.sol\":11610:11618  poolInfo */\n      0x09\n        /* \"TEXOOrchestrator.sol\":11619:11623  _pid */\n      dup4\n        /* \"TEXOOrchestrator.sol\":11610:11624  poolInfo[_pid] */\n      dup2\n      sload\n      dup2\n      lt\n      tag_313\n      jumpi\n      invalid\n    tag_313:\n      swap1\n      0x00\n      mstore\n      keccak256(0x00, 0x20)\n      swap1\n      0x07\n      mul\n      add\n        /* \"TEXOOrchestrator.sol\":11586:11624  PoolInfo storage pool = poolInfo[_pid] */\n      swap1\n      pop\n        /* \"TEXOOrchestrator.sol\":11671:11683  block.number */\n      number\n        /* \"TEXOOrchestrator.sol\":11642:11646  pool */\n      dup2\n        /* \"TEXOOrchestrator.sol\":11642:11667  pool.blockToReceiveReward */\n      0x02\n      add\n      sload\n        /* \"TEXOOrchestrator.sol\":11642:11683  pool.blockToReceiveReward <= block.number */\n      gt\n      iszero\n        /* \"TEXOOrchestrator.sol\":11635:11683  return pool.blockToReceiveReward <= block.number */\n      swap2\n      pop\n      pop\n        /* \"TEXOOrchestrator.sol\":11511:11690  function canClaimReward(uint256 _pid) public view returns (bool) {... */\n      swap2\n      swap1\n      pop\n      jump\t// out\n        /* \"TEXOOrchestrator.sol\":3114:3158  mapping(IBEP20 => bool) public poolExistence */\n    tag_142:\n      mstore(0x20, 0x0f)\n      dup1\n      0x00\n      mstore\n      keccak256(0x00, 0x40)\n      0x00\n      swap2\n      pop\n      sload\n      swap1\n      0x0100\n      exp\n      swap1\n      div\n      0xff\n      and\n      dup2\n      jump\t// out\n        /* \"TEXOOrchestrator.sol\":15655:15908  function setDevAddress(address _devaddr) public {... */\n    tag_145:\n        /* \"TEXOOrchestrator.sol\":15741:15742  0 */\n      0x00\n        /* \"TEXOOrchestrator.sol\":15721:15743  _devaddr != address(0) */\n      0xffffffffffffffffffffffffffffffffffffffff\n      and\n        /* \"TEXOOrchestrator.sol\":15721:15729  _devaddr */\n      dup2\n        /* \"TEXOOrchestrator.sol\":15721:15743  _devaddr != address(0) */\n      0xffffffffffffffffffffffffffffffffffffffff\n      and\n      eq\n      iszero\n        /* \"TEXOOrchestrator.sol\":15713:15768  require(_devaddr != address(0), \"dev: invalid address\") */\n      tag_316\n      jumpi\n      mload(0x40)\n      0x08c379a000000000000000000000000000000000000000000000000000000000\n      dup2\n      mstore\n      0x04\n      add\n      dup1\n      dup1\n      0x20\n      add\n      dup3\n      dup2\n      sub\n      dup3\n      mstore\n      0x14\n      dup2\n      mstore\n      0x20\n      add\n      dup1\n      0x6465763a20696e76616c69642061646472657373000000000000000000000000\n      dup2\n      mstore\n      pop\n      0x20\n      add\n      swap2\n      pop\n      pop\n      mload(0x40)\n      dup1\n      swap2\n      sub\n      swap1\n      revert\n    tag_316:\n        /* \"TEXOOrchestrator.sol\":15800:15807  devAddr */\n      0x03\n      0x00\n      swap1\n      sload\n      swap1\n      0x0100\n      exp\n      swap1\n      div\n      0xffffffffffffffffffffffffffffffffffffffff\n      and\n        /* \"TEXOOrchestrator.sol\":15786:15807  msg.sender == devAddr */\n      0xffffffffffffffffffffffffffffffffffffffff\n      and\n        /* \"TEXOOrchestrator.sol\":15786:15796  msg.sender */\n      caller\n        /* \"TEXOOrchestrator.sol\":15786:15807  msg.sender == devAddr */\n      0xffffffffffffffffffffffffffffffffffffffff\n      and\n      eq\n        /* \"TEXOOrchestrator.sol\":15778:15821  require(msg.sender == devAddr, \"dev: wut?\") */\n      tag_317\n      jumpi\n      mload(0x40)\n      0x08c379a000000000000000000000000000000000000000000000000000000000\n      dup2\n      mstore\n      0x04\n      add\n      dup1\n      dup1\n      0x20\n      add\n      dup3\n      dup2\n      sub\n      dup3\n      mstore\n      0x09\n      dup2\n      mstore\n      0x20\n      add\n      dup1\n      0x6465763a207775743f0000000000000000000000000000000000000000000000\n      dup2\n      mstore\n      pop\n      0x20\n      add\n      swap2\n      pop\n      pop\n      mload(0x40)\n      dup1\n      swap2\n      sub\n      swap1\n      revert\n    tag_317:\n        /* \"TEXOOrchestrator.sol\":15842:15850  _devaddr */\n      dup1\n        /* \"TEXOOrchestrator.sol\":15832:15839  devAddr */\n      0x03\n      0x00\n        /* \"TEXOOrchestrator.sol\":15832:15850  devAddr = _devaddr */\n      0x0100\n      exp\n      dup2\n      sload\n      dup2\n      0xffffffffffffffffffffffffffffffffffffffff\n      mul\n      not\n      and\n      swap1\n      dup4\n      0xffffffffffffffffffffffffffffffffffffffff\n      and\n      mul\n      or\n      swap1\n      sstore\n      pop\n        /* \"TEXOOrchestrator.sol\":15892:15900  _devaddr */\n      dup1\n        /* \"TEXOOrchestrator.sol\":15866:15901  SetDevAddress(msg.sender, _devaddr) */\n      0xffffffffffffffffffffffffffffffffffffffff\n      and\n        /* \"TEXOOrchestrator.sol\":15880:15890  msg.sender */\n      caller\n        /* \"TEXOOrchestrator.sol\":15866:15901  SetDevAddress(msg.sender, _devaddr) */\n      0xffffffffffffffffffffffffffffffffffffffff\n      and\n      0x618c54559e94f1499a808aad71ee8729f8e74e8c48e979616328ce493a1a52e7\n      mload(0x40)\n      mload(0x40)\n      dup1\n      swap2\n      sub\n      swap1\n      log3\n        /* \"TEXOOrchestrator.sol\":15655:15908  function setDevAddress(address _devaddr) public {... */\n      pop\n      jump\t// out\n        /* \"TEXOOrchestrator.sol\":3538:3602  uint256 public constant EMISSION_REDUCTION_PERIOD_BLOCKS = 28800 */\n    tag_147:\n        /* \"TEXOOrchestrator.sol\":3597:3602  28800 */\n      0x7080\n        /* \"TEXOOrchestrator.sol\":3538:3602  uint256 public constant EMISSION_REDUCTION_PERIOD_BLOCKS = 28800 */\n      dup2\n      jump\t// out\n        /* \"TEXOOrchestrator.sol\":1923:1945  address public devAddr */\n    tag_149:\n      0x03\n      0x00\n      swap1\n      sload\n      swap1\n      0x0100\n      exp\n      swap1\n      div\n      0xffffffffffffffffffffffffffffffffffffffff\n      and\n      dup2\n      jump\t// out\n        /* \"TEXOOrchestrator.sol\":8327:9455  function pendingTEXO(uint256 _pid, address _user) external view returns (uint256) {... */\n    tag_152:\n        /* \"TEXOOrchestrator.sol\":8400:8407  uint256 */\n      0x00\n        /* \"TEXOOrchestrator.sol\":8419:8440  PoolInfo storage pool */\n      dup1\n        /* \"TEXOOrchestrator.sol\":8443:8451  poolInfo */\n      0x09\n        /* \"TEXOOrchestrator.sol\":8452:8456  _pid */\n      dup5\n        /* \"TEXOOrchestrator.sol\":8443:8457  poolInfo[_pid] */\n      dup2\n      sload\n      dup2\n      lt\n      tag_319\n      jumpi\n      invalid\n    tag_319:\n      swap1\n      0x00\n      mstore\n      keccak256(0x00, 0x20)\n      swap1\n      0x07\n      mul\n      add\n        /* \"TEXOOrchestrator.sol\":8419:8457  PoolInfo storage pool = poolInfo[_pid] */\n      swap1\n      pop\n        /* \"TEXOOrchestrator.sol\":8467:8488  UserInfo storage user */\n      0x00\n        /* \"TEXOOrchestrator.sol\":8491:8499  userInfo */\n      0x0a\n        /* \"TEXOOrchestrator.sol\":8491:8505  userInfo[_pid] */\n      0x00\n        /* \"TEXOOrchestrator.sol\":8500:8504  _pid */\n      dup7\n        /* \"TEXOOrchestrator.sol\":8491:8505  userInfo[_pid] */\n      dup2\n      mstore\n      0x20\n      add\n      swap1\n      dup2\n      mstore\n      0x20\n      add\n      0x00\n      keccak256\n        /* \"TEXOOrchestrator.sol\":8491:8512  userInfo[_pid][_user] */\n      0x00\n        /* \"TEXOOrchestrator.sol\":8506:8511  _user */\n      dup6\n        /* \"TEXOOrchestrator.sol\":8491:8512  userInfo[_pid][_user] */\n      0xffffffffffffffffffffffffffffffffffffffff\n      and\n      0xffffffffffffffffffffffffffffffffffffffff\n      and\n      dup2\n      mstore\n      0x20\n      add\n      swap1\n      dup2\n      mstore\n      0x20\n      add\n      0x00\n      keccak256\n        /* \"TEXOOrchestrator.sol\":8467:8512  UserInfo storage user = userInfo[_pid][_user] */\n      swap1\n      pop\n        /* \"TEXOOrchestrator.sol\":8523:8546  uint256 accTEXOPerShare */\n      0x00\n        /* \"TEXOOrchestrator.sol\":8549:8553  pool */\n      dup3\n        /* \"TEXOOrchestrator.sol\":8549:8569  pool.accTEXOPerShare */\n      0x05\n      add\n      sload\n        /* \"TEXOOrchestrator.sol\":8523:8569  uint256 accTEXOPerShare = pool.accTEXOPerShare */\n      swap1\n      pop\n        /* \"TEXOOrchestrator.sol\":8579:8595  uint256 lpSupply */\n      0x00\n        /* \"TEXOOrchestrator.sol\":8598:8602  pool */\n      dup4\n        /* \"TEXOOrchestrator.sol\":8598:8610  pool.lpToken */\n      0x00\n      add\n      0x00\n      swap1\n      sload\n      swap1\n      0x0100\n      exp\n      swap1\n      div\n      0xffffffffffffffffffffffffffffffffffffffff\n      and\n        /* \"TEXOOrchestrator.sol\":8598:8620  pool.lpToken.balanceOf */\n      0xffffffffffffffffffffffffffffffffffffffff\n      and\n      0x70a08231\n        /* \"TEXOOrchestrator.sol\":8629:8633  this */\n      address\n        /* \"TEXOOrchestrator.sol\":8598:8635  pool.lpToken.balanceOf(address(this)) */\n      mload(0x40)\n      dup3\n      0xffffffff\n      and\n      0xe0\n      shl\n      dup2\n      mstore\n      0x04\n      add\n      dup1\n      dup3\n      0xffffffffffffffffffffffffffffffffffffffff\n      and\n      dup2\n      mstore\n      0x20\n      add\n      swap2\n      pop\n      pop\n      0x20\n      mload(0x40)\n      dup1\n      dup4\n      sub\n      dup2\n      dup7\n      dup1\n      extcodesize\n      iszero\n      dup1\n      iszero\n      tag_321\n      jumpi\n      0x00\n      dup1\n      revert\n    tag_321:\n      pop\n      gas\n      staticcall\n      iszero\n      dup1\n      iszero\n      tag_323\n      jumpi\n      returndatasize\n      0x00\n      dup1\n      returndatacopy\n      revert(0x00, returndatasize)\n    tag_323:\n      pop\n      pop\n      pop\n      pop\n      mload(0x40)\n      returndatasize\n      0x20\n      dup2\n      lt\n      iszero\n      tag_324\n      jumpi\n      0x00\n      dup1\n      revert\n    tag_324:\n      dup2\n      add\n      swap1\n      dup1\n      dup1\n      mload\n      swap1\n      0x20\n      add\n      swap1\n      swap3\n      swap2\n      swap1\n      pop\n      pop\n      pop\n        /* \"TEXOOrchestrator.sol\":8579:8635  uint256 lpSupply = pool.lpToken.balanceOf(address(this)) */\n      swap1\n      pop\n        /* \"TEXOOrchestrator.sol\":8646:8680  uint256 blockToCalculateMultiplier */\n      0x00\n        /* \"TEXOOrchestrator.sol\":8683:8727  minCurrentBlockAndInactiveBlockIfExist(_pid) */\n      tag_325\n        /* \"TEXOOrchestrator.sol\":8722:8726  _pid */\n      dup9\n        /* \"TEXOOrchestrator.sol\":8683:8721  minCurrentBlockAndInactiveBlockIfExist */\n      tag_230\n        /* \"TEXOOrchestrator.sol\":8683:8727  minCurrentBlockAndInactiveBlockIfExist(_pid) */\n      jump\t// in\n    tag_325:\n        /* \"TEXOOrchestrator.sol\":8646:8727  uint256 blockToCalculateMultiplier = minCurrentBlockAndInactiveBlockIfExist(_pid) */\n      swap1\n      pop\n        /* \"TEXOOrchestrator.sol\":8771:8775  pool */\n      dup5\n        /* \"TEXOOrchestrator.sol\":8771:8791  pool.lastRewardBlock */\n      0x04\n      add\n      sload\n        /* \"TEXOOrchestrator.sol\":8742:8768  blockToCalculateMultiplier */\n      dup2\n        /* \"TEXOOrchestrator.sol\":8742:8791  blockToCalculateMultiplier > pool.lastRewardBlock */\n      gt\n        /* \"TEXOOrchestrator.sol\":8742:8808  blockToCalculateMultiplier > pool.lastRewardBlock && lpSupply != 0 */\n      dup1\n      iszero\n      tag_326\n      jumpi\n      pop\n        /* \"TEXOOrchestrator.sol\":8807:8808  0 */\n      0x00\n        /* \"TEXOOrchestrator.sol\":8795:8803  lpSupply */\n      dup3\n        /* \"TEXOOrchestrator.sol\":8795:8808  lpSupply != 0 */\n      eq\n      iszero\n        /* \"TEXOOrchestrator.sol\":8742:8808  blockToCalculateMultiplier > pool.lastRewardBlock && lpSupply != 0 */\n    tag_326:\n        /* \"TEXOOrchestrator.sol\":8738:9268  if (blockToCalculateMultiplier > pool.lastRewardBlock && lpSupply != 0) {... */\n      iszero\n      tag_327\n      jumpi\n        /* \"TEXOOrchestrator.sol\":8824:8842  uint256 multiplier */\n      0x00\n        /* \"TEXOOrchestrator.sol\":8845:8908  getMultiplier(pool.lastRewardBlock, blockToCalculateMultiplier) */\n      tag_328\n        /* \"TEXOOrchestrator.sol\":8859:8863  pool */\n      dup7\n        /* \"TEXOOrchestrator.sol\":8859:8879  pool.lastRewardBlock */\n      0x04\n      add\n      sload\n        /* \"TEXOOrchestrator.sol\":8881:8907  blockToCalculateMultiplier */\n      dup4\n        /* \"TEXOOrchestrator.sol\":8845:8858  getMultiplier */\n      tag_114\n        /* \"TEXOOrchestrator.sol\":8845:8908  getMultiplier(pool.lastRewardBlock, blockToCalculateMultiplier) */\n      jump\t// in\n    tag_328:\n        /* \"TEXOOrchestrator.sol\":8824:8908  uint256 multiplier = getMultiplier(pool.lastRewardBlock, blockToCalculateMultiplier) */\n      swap1\n      pop\n        /* \"TEXOOrchestrator.sol\":8922:8940  uint256 tEXOReward */\n      0x00\n        /* \"TEXOOrchestrator.sol\":8943:9064  multiplier... */\n      tag_329\n        /* \"TEXOOrchestrator.sol\":9048:9063  totalAllocPoint */\n      sload(0x0b)\n        /* \"TEXOOrchestrator.sol\":8943:9026  multiplier... */\n      tag_330\n        /* \"TEXOOrchestrator.sol\":9010:9014  pool */\n      dup10\n        /* \"TEXOOrchestrator.sol\":9010:9025  pool.allocPoint */\n      0x01\n      add\n      sload\n        /* \"TEXOOrchestrator.sol\":8943:8988  multiplier... */\n      tag_331\n        /* \"TEXOOrchestrator.sol\":8975:8987  tEXOPerBlock */\n      sload(0x04)\n        /* \"TEXOOrchestrator.sol\":8943:8953  multiplier */\n      dup8\n        /* \"TEXOOrchestrator.sol\":8943:8974  multiplier... */\n      tag_224\n      swap1\n        /* \"TEXOOrchestrator.sol\":8943:8988  multiplier... */\n      swap2\n      swap1\n      0xffffffff\n      and\n      jump\t// in\n    tag_331:\n        /* \"TEXOOrchestrator.sol\":8943:9009  multiplier... */\n      tag_224\n      swap1\n        /* \"TEXOOrchestrator.sol\":8943:9026  multiplier... */\n      swap2\n      swap1\n      0xffffffff\n      and\n      jump\t// in\n    tag_330:\n        /* \"TEXOOrchestrator.sol\":8943:9047  multiplier... */\n      tag_225\n      swap1\n        /* \"TEXOOrchestrator.sol\":8943:9064  multiplier... */\n      swap2\n      swap1\n      0xffffffff\n      and\n      jump\t// in\n    tag_329:\n        /* \"TEXOOrchestrator.sol\":8922:9064  uint256 tEXOReward = multiplier... */\n      swap1\n      pop\n        /* \"TEXOOrchestrator.sol\":9097:9257  accTEXOPerShare... */\n      tag_332\n        /* \"TEXOOrchestrator.sol\":9155:9239  tEXOReward... */\n      tag_333\n        /* \"TEXOOrchestrator.sol\":9230:9238  lpSupply */\n      dup6\n        /* \"TEXOOrchestrator.sol\":9155:9200  tEXOReward... */\n      tag_334\n        /* \"TEXOOrchestrator.sol\":9195:9199  1e12 */\n      0xe8d4a51000\n        /* \"TEXOOrchestrator.sol\":9155:9165  tEXOReward */\n      dup6\n        /* \"TEXOOrchestrator.sol\":9155:9194  tEXOReward... */\n      tag_224\n      swap1\n        /* \"TEXOOrchestrator.sol\":9155:9200  tEXOReward... */\n      swap2\n      swap1\n      0xffffffff\n      and\n      jump\t// in\n    tag_334:\n        /* \"TEXOOrchestrator.sol\":9155:9229  tEXOReward... */\n      tag_225\n      swap1\n        /* \"TEXOOrchestrator.sol\":9155:9239  tEXOReward... */\n      swap2\n      swap1\n      0xffffffff\n      and\n      jump\t// in\n    tag_333:\n        /* \"TEXOOrchestrator.sol\":9097:9112  accTEXOPerShare */\n      dup7\n        /* \"TEXOOrchestrator.sol\":9097:9133  accTEXOPerShare... */\n      tag_173\n      swap1\n        /* \"TEXOOrchestrator.sol\":9097:9257  accTEXOPerShare... */\n      swap2\n      swap1\n      0xffffffff\n      and\n      jump\t// in\n    tag_332:\n        /* \"TEXOOrchestrator.sol\":9079:9257  accTEXOPerShare = accTEXOPerShare... */\n      swap5\n      pop\n        /* \"TEXOOrchestrator.sol\":8738:9268  if (blockToCalculateMultiplier > pool.lastRewardBlock && lpSupply != 0) {... */\n      pop\n      pop\n    tag_327:\n        /* \"TEXOOrchestrator.sol\":9278:9293  uint256 pending */\n      0x00\n        /* \"TEXOOrchestrator.sol\":9296:9398  user.amount... */\n      tag_335\n        /* \"TEXOOrchestrator.sol\":9382:9386  user */\n      dup6\n        /* \"TEXOOrchestrator.sol\":9382:9397  user.rewardDebt */\n      0x01\n      add\n      sload\n        /* \"TEXOOrchestrator.sol\":9296:9364  user.amount... */\n      tag_336\n        /* \"TEXOOrchestrator.sol\":9359:9363  1e12 */\n      0xe8d4a51000\n        /* \"TEXOOrchestrator.sol\":9296:9341  user.amount... */\n      tag_337\n        /* \"TEXOOrchestrator.sol\":9325:9340  accTEXOPerShare */\n      dup9\n        /* \"TEXOOrchestrator.sol\":9296:9300  user */\n      dup11\n        /* \"TEXOOrchestrator.sol\":9296:9307  user.amount */\n      0x00\n      add\n      sload\n        /* \"TEXOOrchestrator.sol\":9296:9324  user.amount... */\n      tag_224\n      swap1\n        /* \"TEXOOrchestrator.sol\":9296:9341  user.amount... */\n      swap2\n      swap1\n      0xffffffff\n      and\n      jump\t// in\n    tag_337:\n        /* \"TEXOOrchestrator.sol\":9296:9358  user.amount... */\n      tag_225\n      swap1\n        /* \"TEXOOrchestrator.sol\":9296:9364  user.amount... */\n      swap2\n      swap1\n      0xffffffff\n      and\n      jump\t// in\n    tag_336:\n        /* \"TEXOOrchestrator.sol\":9296:9381  user.amount... */\n      tag_172\n      swap1\n        /* \"TEXOOrchestrator.sol\":9296:9398  user.amount... */\n      swap2\n      swap1\n      0xffffffff\n      and\n      jump\t// in\n    tag_335:\n        /* \"TEXOOrchestrator.sol\":9278:9398  uint256 pending = user.amount... */\n      swap1\n      pop\n        /* \"TEXOOrchestrator.sol\":9416:9448  pending.add(user.rewardLockedUp) */\n      tag_338\n        /* \"TEXOOrchestrator.sol\":9428:9432  user */\n      dup6\n        /* \"TEXOOrchestrator.sol\":9428:9447  user.rewardLockedUp */\n      0x02\n      add\n      sload\n        /* \"TEXOOrchestrator.sol\":9416:9423  pending */\n      dup3\n        /* \"TEXOOrchestrator.sol\":9416:9427  pending.add */\n      tag_173\n      swap1\n        /* \"TEXOOrchestrator.sol\":9416:9448  pending.add(user.rewardLockedUp) */\n      swap2\n      swap1\n      0xffffffff\n      and\n      jump\t// in\n    tag_338:\n        /* \"TEXOOrchestrator.sol\":9409:9448  return pending.add(user.rewardLockedUp) */\n      swap7\n      pop\n      pop\n      pop\n      pop\n      pop\n      pop\n      pop\n        /* \"TEXOOrchestrator.sol\":8327:9455  function pendingTEXO(uint256 _pid, address _user) external view returns (uint256) {... */\n      swap3\n      swap2\n      pop\n      pop\n      jump\t// out\n        /* \"TEXOOrchestrator.sol\":16410:17697  function reduceEmissionRateWithDefaultRate() public {... */\n    tag_154:\n        /* \"TEXOOrchestrator.sol\":16495:16527  blockToStartReducingEmissionRate */\n      sload(0x06)\n        /* \"TEXOOrchestrator.sol\":16480:16492  block.number */\n      number\n        /* \"TEXOOrchestrator.sol\":16480:16527  block.number > blockToStartReducingEmissionRate */\n      gt\n        /* \"TEXOOrchestrator.sol\":16472:16614  require(block.number > blockToStartReducingEmissionRate, \"reduceEmissionRateWithDefaultRate: Can only be called after specified block starts\") */\n      tag_340\n      jumpi\n      mload(0x40)\n      0x08c379a000000000000000000000000000000000000000000000000000000000\n      dup2\n      mstore\n      0x04\n      add\n      dup1\n      dup1\n      0x20\n      add\n      dup3\n      dup2\n      sub\n      dup3\n      mstore\n      0x52\n      dup2\n      mstore\n      0x20\n      add\n      dup1\n      data_a827dd9c9a80825686eef28a9f1d2466e1d29b6da48280d16028581898989615\n      0x52\n      swap2\n      codecopy\n      0x60\n      add\n      swap2\n      pop\n      pop\n      mload(0x40)\n      dup1\n      swap2\n      sub\n      swap1\n      revert\n    tag_340:\n        /* \"TEXOOrchestrator.sol\":3466:3476  100 finney */\n      0x016345785d8a0000\n        /* \"TEXOOrchestrator.sol\":16632:16644  tEXOPerBlock */\n      sload(0x04)\n        /* \"TEXOOrchestrator.sol\":16632:16668  tEXOPerBlock > MINIMUM_EMISSION_RATE */\n      gt\n        /* \"TEXOOrchestrator.sol\":16624:16755  require(tEXOPerBlock > MINIMUM_EMISSION_RATE, \"reduceEmissionRateWithDefaultRate: Emission rate has reached the minimum threshold\") */\n      tag_341\n      jumpi\n      mload(0x40)\n      0x08c379a000000000000000000000000000000000000000000000000000000000\n      dup2\n      mstore\n      0x04\n      add\n      dup1\n      dup1\n      0x20\n      add\n      dup3\n      dup2\n      sub\n      dup3\n      mstore\n      0x52\n      dup2\n      mstore\n      0x20\n      add\n      dup1\n      data_d4e7846547be135afcf8a93a01a9053e9fa2c0d79f8d5448158422588210b6ab\n      0x52\n      swap2\n      codecopy\n      0x60\n      add\n      swap2\n      pop\n      pop\n      mload(0x40)\n      dup1\n      swap2\n      sub\n      swap1\n      revert\n    tag_341:\n        /* \"TEXOOrchestrator.sol\":16766:16786  uint256 currentIndex */\n      0x00\n        /* \"TEXOOrchestrator.sol\":16789:16877  block.number.sub(blockToStartReducingEmissionRate).div(EMISSION_REDUCTION_PERIOD_BLOCKS) */\n      tag_342\n        /* \"TEXOOrchestrator.sol\":3597:3602  28800 */\n      0x7080\n        /* \"TEXOOrchestrator.sol\":16789:16839  block.number.sub(blockToStartReducingEmissionRate) */\n      tag_343\n        /* \"TEXOOrchestrator.sol\":16806:16838  blockToStartReducingEmissionRate */\n      sload(0x06)\n        /* \"TEXOOrchestrator.sol\":16789:16801  block.number */\n      number\n        /* \"TEXOOrchestrator.sol\":16789:16805  block.number.sub */\n      tag_172\n      swap1\n        /* \"TEXOOrchestrator.sol\":16789:16839  block.number.sub(blockToStartReducingEmissionRate) */\n      swap2\n      swap1\n      0xffffffff\n      and\n      jump\t// in\n    tag_343:\n        /* \"TEXOOrchestrator.sol\":16789:16843  block.number.sub(blockToStartReducingEmissionRate).div */\n      tag_225\n      swap1\n        /* \"TEXOOrchestrator.sol\":16789:16877  block.number.sub(blockToStartReducingEmissionRate).div(EMISSION_REDUCTION_PERIOD_BLOCKS) */\n      swap2\n      swap1\n      0xffffffff\n      and\n      jump\t// in\n    tag_342:\n        /* \"TEXOOrchestrator.sol\":16766:16877  uint256 currentIndex = block.number.sub(blockToStartReducingEmissionRate).div(EMISSION_REDUCTION_PERIOD_BLOCKS) */\n      swap1\n      pop\n        /* \"TEXOOrchestrator.sol\":16907:16931  lastReductionPeriodIndex */\n      sload(0x11)\n        /* \"TEXOOrchestrator.sol\":16891:16903  currentIndex */\n      dup2\n        /* \"TEXOOrchestrator.sol\":16891:16931  currentIndex <= lastReductionPeriodIndex */\n      gt\n        /* \"TEXOOrchestrator.sol\":16887:16964  if (currentIndex <= lastReductionPeriodIndex) {... */\n      tag_344\n      jumpi\n        /* \"TEXOOrchestrator.sol\":16947:16954  return; */\n      pop\n      jump(tag_339)\n        /* \"TEXOOrchestrator.sol\":16887:16964  if (currentIndex <= lastReductionPeriodIndex) {... */\n    tag_344:\n        /* \"TEXOOrchestrator.sol\":16974:16997  uint256 newEmissionRate */\n      0x00\n        /* \"TEXOOrchestrator.sol\":17000:17012  tEXOPerBlock */\n      sload(0x04)\n        /* \"TEXOOrchestrator.sol\":16974:17012  uint256 newEmissionRate = tEXOPerBlock */\n      swap1\n      pop\n        /* \"TEXOOrchestrator.sol\":17027:17040  uint256 index */\n      0x00\n        /* \"TEXOOrchestrator.sol\":17043:17067  lastReductionPeriodIndex */\n      sload(0x11)\n        /* \"TEXOOrchestrator.sol\":17027:17067  uint256 index = lastReductionPeriodIndex */\n      swap1\n      pop\n        /* \"TEXOOrchestrator.sol\":17022:17247  for (uint256 index = lastReductionPeriodIndex; index < currentIndex; ++index) {... */\n    tag_345:\n        /* \"TEXOOrchestrator.sol\":17077:17089  currentIndex */\n      dup3\n        /* \"TEXOOrchestrator.sol\":17069:17074  index */\n      dup2\n        /* \"TEXOOrchestrator.sol\":17069:17089  index < currentIndex */\n      lt\n        /* \"TEXOOrchestrator.sol\":17022:17247  for (uint256 index = lastReductionPeriodIndex; index < currentIndex; ++index) {... */\n      iszero\n      tag_346\n      jumpi\n        /* \"TEXOOrchestrator.sol\":17132:17236  newEmissionRate... */\n      tag_348\n        /* \"TEXOOrchestrator.sol\":17232:17235  1e4 */\n      0x2710\n        /* \"TEXOOrchestrator.sol\":17132:17210  newEmissionRate... */\n      tag_349\n        /* \"TEXOOrchestrator.sol\":3733:3737  1500 */\n      0x05dc\n        /* \"TEXOOrchestrator.sol\":17169:17172  1e4 */\n      0x2710\n        /* \"TEXOOrchestrator.sol\":17169:17209  1e4 - EMISSION_REDUCTION_RATE_PER_PERIOD */\n      sub\n        /* \"TEXOOrchestrator.sol\":17132:17147  newEmissionRate */\n      dup6\n        /* \"TEXOOrchestrator.sol\":17132:17168  newEmissionRate... */\n      tag_224\n      swap1\n        /* \"TEXOOrchestrator.sol\":17132:17210  newEmissionRate... */\n      swap2\n      swap1\n      0xffffffff\n      and\n      jump\t// in\n    tag_349:\n        /* \"TEXOOrchestrator.sol\":17132:17231  newEmissionRate... */\n      tag_225\n      swap1\n        /* \"TEXOOrchestrator.sol\":17132:17236  newEmissionRate... */\n      swap2\n      swap1\n      0xffffffff\n      and\n      jump\t// in\n    tag_348:\n        /* \"TEXOOrchestrator.sol\":17114:17236  newEmissionRate = newEmissionRate... */\n      swap2\n      pop\n        /* \"TEXOOrchestrator.sol\":17091:17098  ++index */\n      dup1\n      0x01\n      add\n      swap1\n      pop\n        /* \"TEXOOrchestrator.sol\":17022:17247  for (uint256 index = lastReductionPeriodIndex; index < currentIndex; ++index) {... */\n      jump(tag_345)\n    tag_346:\n      pop\n        /* \"TEXOOrchestrator.sol\":3466:3476  100 finney */\n      0x016345785d8a0000\n        /* \"TEXOOrchestrator.sol\":17275:17290  newEmissionRate */\n      dup2\n        /* \"TEXOOrchestrator.sol\":17275:17314  newEmissionRate < MINIMUM_EMISSION_RATE */\n      lt\n        /* \"TEXOOrchestrator.sol\":17275:17356  newEmissionRate < MINIMUM_EMISSION_RATE ? MINIMUM_EMISSION_RATE : newEmissionRate */\n      tag_350\n      jumpi\n        /* \"TEXOOrchestrator.sol\":17341:17356  newEmissionRate */\n      dup1\n        /* \"TEXOOrchestrator.sol\":17275:17356  newEmissionRate < MINIMUM_EMISSION_RATE ? MINIMUM_EMISSION_RATE : newEmissionRate */\n      jump(tag_351)\n    tag_350:\n        /* \"TEXOOrchestrator.sol\":3466:3476  100 finney */\n      0x016345785d8a0000\n        /* \"TEXOOrchestrator.sol\":17275:17356  newEmissionRate < MINIMUM_EMISSION_RATE ? MINIMUM_EMISSION_RATE : newEmissionRate */\n    tag_351:\n        /* \"TEXOOrchestrator.sol\":17257:17356  newEmissionRate = newEmissionRate < MINIMUM_EMISSION_RATE ? MINIMUM_EMISSION_RATE : newEmissionRate */\n      swap1\n      pop\n        /* \"TEXOOrchestrator.sol\":17389:17401  tEXOPerBlock */\n      sload(0x04)\n        /* \"TEXOOrchestrator.sol\":17370:17385  newEmissionRate */\n      dup2\n        /* \"TEXOOrchestrator.sol\":17370:17401  newEmissionRate >= tEXOPerBlock */\n      lt\n        /* \"TEXOOrchestrator.sol\":17366:17434  if (newEmissionRate >= tEXOPerBlock) {... */\n      tag_352\n      jumpi\n        /* \"TEXOOrchestrator.sol\":17417:17424  return; */\n      pop\n      pop\n      jump(tag_339)\n        /* \"TEXOOrchestrator.sol\":17366:17434  if (newEmissionRate >= tEXOPerBlock) {... */\n    tag_352:\n        /* \"TEXOOrchestrator.sol\":17444:17461  massUpdatePools() */\n      tag_353\n        /* \"TEXOOrchestrator.sol\":17444:17459  massUpdatePools */\n      tag_95\n        /* \"TEXOOrchestrator.sol\":17444:17461  massUpdatePools() */\n      jump\t// in\n    tag_353:\n        /* \"TEXOOrchestrator.sol\":17499:17511  currentIndex */\n      dup2\n        /* \"TEXOOrchestrator.sol\":17472:17496  lastReductionPeriodIndex */\n      0x11\n        /* \"TEXOOrchestrator.sol\":17472:17511  lastReductionPeriodIndex = currentIndex */\n      dup2\n      swap1\n      sstore\n      pop\n        /* \"TEXOOrchestrator.sol\":17521:17549  uint256 previousEmissionRate */\n      0x00\n        /* \"TEXOOrchestrator.sol\":17552:17564  tEXOPerBlock */\n      sload(0x04)\n        /* \"TEXOOrchestrator.sol\":17521:17564  uint256 previousEmissionRate = tEXOPerBlock */\n      swap1\n      pop\n        /* \"TEXOOrchestrator.sol\":17589:17604  newEmissionRate */\n      dup2\n        /* \"TEXOOrchestrator.sol\":17574:17586  tEXOPerBlock */\n      0x04\n        /* \"TEXOOrchestrator.sol\":17574:17604  tEXOPerBlock = newEmissionRate */\n      dup2\n      swap1\n      sstore\n      pop\n        /* \"TEXOOrchestrator.sol\":17640:17650  msg.sender */\n      caller\n        /* \"TEXOOrchestrator.sol\":17620:17690  EmissionRateUpdated(msg.sender, previousEmissionRate, newEmissionRate) */\n      0xffffffffffffffffffffffffffffffffffffffff\n      and\n      0xeedc6338c9c1ad8f3cd6c90dd09dbe98dbd57e610d3e59a17996d07acb0d9511\n        /* \"TEXOOrchestrator.sol\":17652:17672  previousEmissionRate */\n      dup3\n        /* \"TEXOOrchestrator.sol\":17674:17689  newEmissionRate */\n      dup5\n        /* \"TEXOOrchestrator.sol\":17620:17690  EmissionRateUpdated(msg.sender, previousEmissionRate, newEmissionRate) */\n      mload(0x40)\n      dup1\n      dup4\n      dup2\n      mstore\n      0x20\n      add\n      dup3\n      dup2\n      mstore\n      0x20\n      add\n      swap3\n      pop\n      pop\n      pop\n      mload(0x40)\n      dup1\n      swap2\n      sub\n      swap1\n      log2\n        /* \"TEXOOrchestrator.sol\":16410:17697  function reduceEmissionRateWithDefaultRate() public {... */\n      pop\n      pop\n      pop\n    tag_339:\n      jump\t// out\n        /* \"Ownable.sol\":1984:2091  function transferOwnership(address newOwner) public onlyOwner {... */\n    tag_157:\n        /* \"Ownable.sol\":1289:1301  _msgSender() */\n      tag_355\n        /* \"Ownable.sol\":1289:1299  _msgSender */\n      tag_160\n        /* \"Ownable.sol\":1289:1301  _msgSender() */\n      jump\t// in\n    tag_355:\n        /* \"Ownable.sol\":1279:1301  _owner == _msgSender() */\n      0xffffffffffffffffffffffffffffffffffffffff\n      and\n        /* \"Ownable.sol\":1279:1285  _owner */\n      0x00\n      dup1\n      sload\n      swap1\n      0x0100\n      exp\n      swap1\n      div\n      0xffffffffffffffffffffffffffffffffffffffff\n      and\n        /* \"Ownable.sol\":1279:1301  _owner == _msgSender() */\n      0xffffffffffffffffffffffffffffffffffffffff\n      and\n      eq\n        /* \"Ownable.sol\":1271:1338  require(_owner == _msgSender(), 'Ownable: caller is not the owner') */\n      tag_356\n      jumpi\n      mload(0x40)\n      0x08c379a000000000000000000000000000000000000000000000000000000000\n      dup2\n      mstore\n      0x04\n      add\n      dup1\n      dup1\n      0x20\n      add\n      dup3\n      dup2\n      sub\n      dup3\n      mstore\n      0x20\n      dup2\n      mstore\n      0x20\n      add\n      dup1\n      0x4f776e61626c653a2063616c6c6572206973206e6f7420746865206f776e6572\n      dup2\n      mstore\n      pop\n      0x20\n      add\n      swap2\n      pop\n      pop\n      mload(0x40)\n      dup1\n      swap2\n      sub\n      swap1\n      revert\n    tag_356:\n        /* \"Ownable.sol\":2056:2084  _transferOwnership(newOwner) */\n      tag_358\n        /* \"Ownable.sol\":2075:2083  newOwner */\n      dup2\n        /* \"Ownable.sol\":2056:2074  _transferOwnership */\n      tag_359\n        /* \"Ownable.sol\":2056:2084  _transferOwnership(newOwner) */\n      jump\t// in\n    tag_358:\n        /* \"Ownable.sol\":1984:2091  function transferOwnership(address newOwner) public onlyOwner {... */\n      pop\n      jump\t// out\n        /* \"Context.sol\":780:876  function _msgSender() internal view returns (address payable) {... */\n    tag_160:\n        /* \"Context.sol\":825:840  address payable */\n      0x00\n        /* \"Context.sol\":859:869  msg.sender */\n      caller\n        /* \"Context.sol\":852:869  return msg.sender */\n      swap1\n      pop\n        /* \"Context.sol\":780:876  function _msgSender() internal view returns (address payable) {... */\n      swap1\n      jump\t// out\n        /* \"SafeMath.sol\":1322:1456  function sub(uint256 a, uint256 b) internal pure returns (uint256) {... */\n    tag_172:\n        /* \"SafeMath.sol\":1380:1387  uint256 */\n      0x00\n        /* \"SafeMath.sol\":1406:1449  sub(a, b, 'SafeMath: subtraction overflow') */\n      tag_362\n        /* \"SafeMath.sol\":1410:1411  a */\n      dup4\n        /* \"SafeMath.sol\":1413:1414  b */\n      dup4\n        /* \"SafeMath.sol\":1406:1449  sub(a, b, 'SafeMath: subtraction overflow') */\n      mload(0x40)\n      dup1\n      0x40\n      add\n      0x40\n      mstore\n      dup1\n      0x1e\n      dup2\n      mstore\n      0x20\n      add\n      0x536166654d6174683a207375627472616374696f6e206f766572666c6f770000\n      dup2\n      mstore\n      pop\n        /* \"SafeMath.sol\":1406:1409  sub */\n      tag_363\n        /* \"SafeMath.sol\":1406:1449  sub(a, b, 'SafeMath: subtraction overflow') */\n      jump\t// in\n    tag_362:\n        /* \"SafeMath.sol\":1399:1449  return sub(a, b, 'SafeMath: subtraction overflow') */\n      swap1\n      pop\n        /* \"SafeMath.sol\":1322:1456  function sub(uint256 a, uint256 b) internal pure returns (uint256) {... */\n      swap3\n      swap2\n      pop\n      pop\n      jump\t// out\n        /* \"SafeMath.sol\":875:1051  function add(uint256 a, uint256 b) internal pure returns (uint256) {... */\n    tag_173:\n        /* \"SafeMath.sol\":933:940  uint256 */\n      0x00\n        /* \"SafeMath.sol\":952:961  uint256 c */\n      dup1\n        /* \"SafeMath.sol\":968:969  b */\n      dup3\n        /* \"SafeMath.sol\":964:965  a */\n      dup5\n        /* \"SafeMath.sol\":964:969  a + b */\n      add\n        /* \"SafeMath.sol\":952:969  uint256 c = a + b */\n      swap1\n      pop\n        /* \"SafeMath.sol\":992:993  a */\n      dup4\n        /* \"SafeMath.sol\":987:988  c */\n      dup2\n        /* \"SafeMath.sol\":987:993  c >= a */\n      lt\n      iszero\n        /* \"SafeMath.sol\":979:1025  require(c >= a, 'SafeMath: addition overflow') */\n      tag_365\n      jumpi\n      mload(0x40)\n      0x08c379a000000000000000000000000000000000000000000000000000000000\n      dup2\n      mstore\n      0x04\n      add\n      dup1\n      dup1\n      0x20\n      add\n      dup3\n      dup2\n      sub\n      dup3\n      mstore\n      0x1b\n      dup2\n      mstore\n      0x20\n      add\n      dup1\n      0x536166654d6174683a206164646974696f6e206f766572666c6f770000000000\n      dup2\n      mstore\n      pop\n      0x20\n      add\n      swap2\n      pop\n      pop\n      mload(0x40)\n      dup1\n      swap2\n      sub\n      swap1\n      revert\n    tag_365:\n        /* \"SafeMath.sol\":1043:1044  c */\n      dup1\n        /* \"SafeMath.sol\":1036:1044  return c */\n      swap2\n      pop\n      pop\n        /* \"SafeMath.sol\":875:1051  function add(uint256 a, uint256 b) internal pure returns (uint256) {... */\n      swap3\n      swap2\n      pop\n      pop\n      jump\t// out\n        /* \"TEXOOrchestrator.sol\":13840:14640  function payOrLockupPendingTEXO(uint256 _pid) internal {... */\n    tag_217:\n        /* \"TEXOOrchestrator.sol\":13905:13926  PoolInfo storage pool */\n      0x00\n        /* \"TEXOOrchestrator.sol\":13929:13937  poolInfo */\n      0x09\n        /* \"TEXOOrchestrator.sol\":13938:13942  _pid */\n      dup3\n        /* \"TEXOOrchestrator.sol\":13929:13943  poolInfo[_pid] */\n      dup2\n      sload\n      dup2\n      lt\n      tag_367\n      jumpi\n      invalid\n    tag_367:\n      swap1\n      0x00\n      mstore\n      keccak256(0x00, 0x20)\n      swap1\n      0x07\n      mul\n      add\n        /* \"TEXOOrchestrator.sol\":13905:13943  PoolInfo storage pool = poolInfo[_pid] */\n      swap1\n      pop\n        /* \"TEXOOrchestrator.sol\":13953:13974  UserInfo storage user */\n      0x00\n        /* \"TEXOOrchestrator.sol\":13977:13985  userInfo */\n      0x0a\n        /* \"TEXOOrchestrator.sol\":13977:13991  userInfo[_pid] */\n      0x00\n        /* \"TEXOOrchestrator.sol\":13986:13990  _pid */\n      dup5\n        /* \"TEXOOrchestrator.sol\":13977:13991  userInfo[_pid] */\n      dup2\n      mstore\n      0x20\n      add\n      swap1\n      dup2\n      mstore\n      0x20\n      add\n      0x00\n      keccak256\n        /* \"TEXOOrchestrator.sol\":13977:14003  userInfo[_pid][msg.sender] */\n      0x00\n        /* \"TEXOOrchestrator.sol\":13992:14002  msg.sender */\n      caller\n        /* \"TEXOOrchestrator.sol\":13977:14003  userInfo[_pid][msg.sender] */\n      0xffffffffffffffffffffffffffffffffffffffff\n      and\n      0xffffffffffffffffffffffffffffffffffffffff\n      and\n      dup2\n      mstore\n      0x20\n      add\n      swap1\n      dup2\n      mstore\n      0x20\n      add\n      0x00\n      keccak256\n        /* \"TEXOOrchestrator.sol\":13953:14003  UserInfo storage user = userInfo[_pid][msg.sender] */\n      swap1\n      pop\n        /* \"TEXOOrchestrator.sol\":14014:14029  uint256 pending */\n      0x00\n        /* \"TEXOOrchestrator.sol\":14032:14139  user.amount... */\n      tag_369\n        /* \"TEXOOrchestrator.sol\":14123:14127  user */\n      dup3\n        /* \"TEXOOrchestrator.sol\":14123:14138  user.rewardDebt */\n      0x01\n      add\n      sload\n        /* \"TEXOOrchestrator.sol\":14032:14105  user.amount... */\n      tag_370\n        /* \"TEXOOrchestrator.sol\":14100:14104  1e12 */\n      0xe8d4a51000\n        /* \"TEXOOrchestrator.sol\":14032:14082  user.amount... */\n      tag_371\n        /* \"TEXOOrchestrator.sol\":14061:14065  pool */\n      dup8\n        /* \"TEXOOrchestrator.sol\":14061:14081  pool.accTEXOPerShare */\n      0x05\n      add\n      sload\n        /* \"TEXOOrchestrator.sol\":14032:14036  user */\n      dup8\n        /* \"TEXOOrchestrator.sol\":14032:14043  user.amount */\n      0x00\n      add\n      sload\n        /* \"TEXOOrchestrator.sol\":14032:14060  user.amount... */\n      tag_224\n      swap1\n        /* \"TEXOOrchestrator.sol\":14032:14082  user.amount... */\n      swap2\n      swap1\n      0xffffffff\n      and\n      jump\t// in\n    tag_371:\n        /* \"TEXOOrchestrator.sol\":14032:14099  user.amount... */\n      tag_225\n      swap1\n        /* \"TEXOOrchestrator.sol\":14032:14105  user.amount... */\n      swap2\n      swap1\n      0xffffffff\n      and\n      jump\t// in\n    tag_370:\n        /* \"TEXOOrchestrator.sol\":14032:14122  user.amount... */\n      tag_172\n      swap1\n        /* \"TEXOOrchestrator.sol\":14032:14139  user.amount... */\n      swap2\n      swap1\n      0xffffffff\n      and\n      jump\t// in\n    tag_369:\n        /* \"TEXOOrchestrator.sol\":14014:14139  uint256 pending = user.amount... */\n      swap1\n      pop\n        /* \"TEXOOrchestrator.sol\":14154:14174  canClaimReward(_pid) */\n      tag_372\n        /* \"TEXOOrchestrator.sol\":14169:14173  _pid */\n      dup5\n        /* \"TEXOOrchestrator.sol\":14154:14168  canClaimReward */\n      tag_139\n        /* \"TEXOOrchestrator.sol\":14154:14174  canClaimReward(_pid) */\n      jump\t// in\n    tag_372:\n        /* \"TEXOOrchestrator.sol\":14150:14634  if (canClaimReward(_pid)) {... */\n      iszero\n      tag_373\n      jumpi\n        /* \"TEXOOrchestrator.sol\":14204:14205  0 */\n      0x00\n        /* \"TEXOOrchestrator.sol\":14194:14201  pending */\n      dup2\n        /* \"TEXOOrchestrator.sol\":14194:14205  pending > 0 */\n      gt\n        /* \"TEXOOrchestrator.sol\":14194:14232  pending > 0 || user.rewardLockedUp > 0 */\n      dup1\n      tag_374\n      jumpi\n      pop\n        /* \"TEXOOrchestrator.sol\":14231:14232  0 */\n      0x00\n        /* \"TEXOOrchestrator.sol\":14209:14213  user */\n      dup3\n        /* \"TEXOOrchestrator.sol\":14209:14228  user.rewardLockedUp */\n      0x02\n      add\n      sload\n        /* \"TEXOOrchestrator.sol\":14209:14232  user.rewardLockedUp > 0 */\n      gt\n        /* \"TEXOOrchestrator.sol\":14194:14232  pending > 0 || user.rewardLockedUp > 0 */\n    tag_374:\n        /* \"TEXOOrchestrator.sol\":14190:14522  if (pending > 0 || user.rewardLockedUp > 0) {... */\n      iszero\n      tag_375\n      jumpi\n        /* \"TEXOOrchestrator.sol\":14252:14272  uint256 totalRewards */\n      0x00\n        /* \"TEXOOrchestrator.sol\":14275:14307  pending.add(user.rewardLockedUp) */\n      tag_376\n        /* \"TEXOOrchestrator.sol\":14287:14291  user */\n      dup4\n        /* \"TEXOOrchestrator.sol\":14287:14306  user.rewardLockedUp */\n      0x02\n      add\n      sload\n        /* \"TEXOOrchestrator.sol\":14275:14282  pending */\n      dup4\n        /* \"TEXOOrchestrator.sol\":14275:14286  pending.add */\n      tag_173\n      swap1\n        /* \"TEXOOrchestrator.sol\":14275:14307  pending.add(user.rewardLockedUp) */\n      swap2\n      swap1\n      0xffffffff\n      and\n      jump\t// in\n    tag_376:\n        /* \"TEXOOrchestrator.sol\":14252:14307  uint256 totalRewards = pending.add(user.rewardLockedUp) */\n      swap1\n      pop\n        /* \"TEXOOrchestrator.sol\":14348:14349  0 */\n      0x00\n        /* \"TEXOOrchestrator.sol\":14326:14330  user */\n      dup4\n        /* \"TEXOOrchestrator.sol\":14326:14345  user.rewardLockedUp */\n      0x02\n      add\n        /* \"TEXOOrchestrator.sol\":14326:14349  user.rewardLockedUp = 0 */\n      dup2\n      swap1\n      sstore\n      pop\n        /* \"TEXOOrchestrator.sol\":14400:14442  safeTEXOTransfer(msg.sender, totalRewards) */\n      tag_377\n        /* \"TEXOOrchestrator.sol\":14417:14427  msg.sender */\n      caller\n        /* \"TEXOOrchestrator.sol\":14429:14441  totalRewards */\n      dup3\n        /* \"TEXOOrchestrator.sol\":14400:14416  safeTEXOTransfer */\n      tag_378\n        /* \"TEXOOrchestrator.sol\":14400:14442  safeTEXOTransfer(msg.sender, totalRewards) */\n      jump\t// in\n    tag_377:\n        /* \"TEXOOrchestrator.sol\":14460:14507  payReferralCommission(msg.sender, totalRewards) */\n      tag_379\n        /* \"TEXOOrchestrator.sol\":14482:14492  msg.sender */\n      caller\n        /* \"TEXOOrchestrator.sol\":14494:14506  totalRewards */\n      dup3\n        /* \"TEXOOrchestrator.sol\":14460:14481  payReferralCommission */\n      tag_380\n        /* \"TEXOOrchestrator.sol\":14460:14507  payReferralCommission(msg.sender, totalRewards) */\n      jump\t// in\n    tag_379:\n        /* \"TEXOOrchestrator.sol\":14190:14522  if (pending > 0 || user.rewardLockedUp > 0) {... */\n      pop\n    tag_375:\n        /* \"TEXOOrchestrator.sol\":14150:14634  if (canClaimReward(_pid)) {... */\n      jump(tag_381)\n    tag_373:\n        /* \"TEXOOrchestrator.sol\":14552:14553  0 */\n      0x00\n        /* \"TEXOOrchestrator.sol\":14542:14549  pending */\n      dup2\n        /* \"TEXOOrchestrator.sol\":14542:14553  pending > 0 */\n      gt\n        /* \"TEXOOrchestrator.sol\":14538:14634  if (pending > 0) {... */\n      iszero\n      tag_382\n      jumpi\n        /* \"TEXOOrchestrator.sol\":14591:14623  user.rewardLockedUp.add(pending) */\n      tag_383\n        /* \"TEXOOrchestrator.sol\":14615:14622  pending */\n      dup2\n        /* \"TEXOOrchestrator.sol\":14591:14595  user */\n      dup4\n        /* \"TEXOOrchestrator.sol\":14591:14610  user.rewardLockedUp */\n      0x02\n      add\n      sload\n        /* \"TEXOOrchestrator.sol\":14591:14614  user.rewardLockedUp.add */\n      tag_173\n      swap1\n        /* \"TEXOOrchestrator.sol\":14591:14623  user.rewardLockedUp.add(pending) */\n      swap2\n      swap1\n      0xffffffff\n      and\n      jump\t// in\n    tag_383:\n        /* \"TEXOOrchestrator.sol\":14569:14573  user */\n      dup3\n        /* \"TEXOOrchestrator.sol\":14569:14588  user.rewardLockedUp */\n      0x02\n      add\n        /* \"TEXOOrchestrator.sol\":14569:14623  user.rewardLockedUp = user.rewardLockedUp.add(pending) */\n      dup2\n      swap1\n      sstore\n      pop\n        /* \"TEXOOrchestrator.sol\":14538:14634  if (pending > 0) {... */\n    tag_382:\n        /* \"TEXOOrchestrator.sol\":14150:14634  if (canClaimReward(_pid)) {... */\n    tag_381:\n        /* \"TEXOOrchestrator.sol\":13840:14640  function payOrLockupPendingTEXO(uint256 _pid) internal {... */\n      pop\n      pop\n      pop\n      pop\n      jump\t// out\n        /* \"SafeBEP20.sol\":677:882  function safeTransfer(... */\n    tag_221:\n        /* \"SafeBEP20.sol\":789:875  _callOptionalReturn(token, abi.encodeWithSelector(token.transfer.selector, to, value)) */\n      tag_385\n        /* \"SafeBEP20.sol\":809:814  token */\n      dup4\n        /* \"SafeBEP20.sol\":839:862  token.transfer.selector */\n      shl(0xe0, 0xa9059cbb)\n        /* \"SafeBEP20.sol\":864:866  to */\n      dup5\n        /* \"SafeBEP20.sol\":868:873  value */\n      dup5\n        /* \"SafeBEP20.sol\":816:874  abi.encodeWithSelector(token.transfer.selector, to, value) */\n      add(0x24, mload(0x40))\n      dup1\n      dup4\n      0xffffffffffffffffffffffffffffffffffffffff\n      and\n      dup2\n      mstore\n      0x20\n      add\n      dup3\n      dup2\n      mstore\n      0x20\n      add\n      swap3\n      pop\n      pop\n      pop\n      mload(0x40)\n      0x20\n      dup2\n      dup4\n      sub\n      sub\n      dup2\n      mstore\n      swap1\n      0x40\n      mstore\n      swap1\n      not(0xffffffffffffffffffffffffffffffffffffffffffffffffffffffff)\n      and\n      0x20\n      dup3\n      add\n      dup1\n      mload\n      0xffffffffffffffffffffffffffffffffffffffffffffffffffffffff\n      dup4\n      dup2\n      dup4\n      and\n      or\n      dup4\n      mstore\n      pop\n      pop\n      pop\n      pop\n        /* \"SafeBEP20.sol\":789:808  _callOptionalReturn */\n      tag_386\n        /* \"SafeBEP20.sol\":789:875  _callOptionalReturn(token, abi.encodeWithSelector(token.transfer.selector, to, value)) */\n      jump\t// in\n    tag_385:\n        /* \"SafeBEP20.sol\":677:882  function safeTransfer(... */\n      pop\n      pop\n      pop\n      jump\t// out\n        /* \"SafeMath.sol\":2211:2670  function mul(uint256 a, uint256 b) internal pure returns (uint256) {... */\n    tag_224:\n        /* \"SafeMath.sol\":2269:2276  uint256 */\n      0x00\n        /* \"SafeMath.sol\":2515:2516  0 */\n      dup1\n        /* \"SafeMath.sol\":2510:2511  a */\n      dup4\n        /* \"SafeMath.sol\":2510:2516  a == 0 */\n      eq\n        /* \"SafeMath.sol\":2506:2551  if (a == 0) {... */\n      iszero\n      tag_388\n      jumpi\n        /* \"SafeMath.sol\":2539:2540  0 */\n      0x00\n        /* \"SafeMath.sol\":2532:2540  return 0 */\n      swap1\n      pop\n      jump(tag_387)\n        /* \"SafeMath.sol\":2506:2551  if (a == 0) {... */\n    tag_388:\n        /* \"SafeMath.sol\":2561:2570  uint256 c */\n      0x00\n        /* \"SafeMath.sol\":2577:2578  b */\n      dup3\n        /* \"SafeMath.sol\":2573:2574  a */\n      dup5\n        /* \"SafeMath.sol\":2573:2578  a * b */\n      mul\n        /* \"SafeMath.sol\":2561:2578  uint256 c = a * b */\n      swap1\n      pop\n        /* \"SafeMath.sol\":2605:2606  b */\n      dup3\n        /* \"SafeMath.sol\":2600:2601  a */\n      dup5\n        /* \"SafeMath.sol\":2596:2597  c */\n      dup3\n        /* \"SafeMath.sol\":2596:2601  c / a */\n      dup2\n      tag_389\n      jumpi\n      invalid\n    tag_389:\n      div\n        /* \"SafeMath.sol\":2596:2606  c / a == b */\n      eq\n        /* \"SafeMath.sol\":2588:2644  require(c / a == b, 'SafeMath: multiplication overflow') */\n      tag_390\n      jumpi\n      mload(0x40)\n      0x08c379a000000000000000000000000000000000000000000000000000000000\n      dup2\n      mstore\n      0x04\n      add\n      dup1\n      dup1\n      0x20\n      add\n      dup3\n      dup2\n      sub\n      dup3\n      mstore\n      0x21\n      dup2\n      mstore\n      0x20\n      add\n      dup1\n      data_9113bb53c2876a3805b2c9242029423fc540a728243ce887ab24c82cf119fba3\n      0x21\n      swap2\n      codecopy\n      0x40\n      add\n      swap2\n      pop\n      pop\n      mload(0x40)\n      dup1\n      swap2\n      sub\n      swap1\n      revert\n    tag_390:\n        /* \"SafeMath.sol\":2662:2663  c */\n      dup1\n        /* \"SafeMath.sol\":2655:2663  return c */\n      swap2\n      pop\n      pop\n        /* \"SafeMath.sol\":2211:2670  function mul(uint256 a, uint256 b) internal pure returns (uint256) {... */\n    tag_387:\n      swap3\n      swap2\n      pop\n      pop\n      jump\t// out\n        /* \"SafeMath.sol\":3132:3262  function div(uint256 a, uint256 b) internal pure returns (uint256) {... */\n    tag_225:\n        /* \"SafeMath.sol\":3190:3197  uint256 */\n      0x00\n        /* \"SafeMath.sol\":3216:3255  div(a, b, 'SafeMath: division by zero') */\n      tag_392\n        /* \"SafeMath.sol\":3220:3221  a */\n      dup4\n        /* \"SafeMath.sol\":3223:3224  b */\n      dup4\n        /* \"SafeMath.sol\":3216:3255  div(a, b, 'SafeMath: division by zero') */\n      mload(0x40)\n      dup1\n      0x40\n      add\n      0x40\n      mstore\n      dup1\n      0x1a\n      dup2\n      mstore\n      0x20\n      add\n      0x536166654d6174683a206469766973696f6e206279207a65726f000000000000\n      dup2\n      mstore\n      pop\n        /* \"SafeMath.sol\":3216:3219  div */\n      tag_393\n        /* \"SafeMath.sol\":3216:3255  div(a, b, 'SafeMath: division by zero') */\n      jump\t// in\n    tag_392:\n        /* \"SafeMath.sol\":3209:3255  return div(a, b, 'SafeMath: division by zero') */\n      swap1\n      pop\n        /* \"SafeMath.sol\":3132:3262  function div(uint256 a, uint256 b) internal pure returns (uint256) {... */\n      swap3\n      swap2\n      pop\n      pop\n      jump\t// out\n        /* \"TEXOOrchestrator.sol\":9461:9779  function minCurrentBlockAndInactiveBlockIfExist(uint256 _pid) internal view returns (uint256) {... */\n    tag_230:\n        /* \"TEXOOrchestrator.sol\":9546:9553  uint256 */\n      0x00\n        /* \"TEXOOrchestrator.sol\":9565:9586  PoolInfo storage pool */\n      dup1\n        /* \"TEXOOrchestrator.sol\":9589:9597  poolInfo */\n      0x09\n        /* \"TEXOOrchestrator.sol\":9598:9602  _pid */\n      dup4\n        /* \"TEXOOrchestrator.sol\":9589:9603  poolInfo[_pid] */\n      dup2\n      sload\n      dup2\n      lt\n      tag_395\n      jumpi\n      invalid\n    tag_395:\n      swap1\n      0x00\n      mstore\n      keccak256(0x00, 0x20)\n      swap1\n      0x07\n      mul\n      add\n        /* \"TEXOOrchestrator.sol\":9565:9603  PoolInfo storage pool = poolInfo[_pid] */\n      swap1\n      pop\n        /* \"TEXOOrchestrator.sol\":9639:9640  0 */\n      0x00\n        /* \"TEXOOrchestrator.sol\":9617:9621  pool */\n      dup2\n        /* \"TEXOOrchestrator.sol\":9617:9635  pool.inActiveBlock */\n      0x03\n      add\n      sload\n        /* \"TEXOOrchestrator.sol\":9617:9640  pool.inActiveBlock == 0 */\n      eq\n        /* \"TEXOOrchestrator.sol\":9613:9686  if (pool.inActiveBlock == 0) {... */\n      iszero\n      tag_397\n      jumpi\n        /* \"TEXOOrchestrator.sol\":9663:9675  block.number */\n      number\n        /* \"TEXOOrchestrator.sol\":9656:9675  return block.number */\n      swap2\n      pop\n      pop\n      jump(tag_394)\n        /* \"TEXOOrchestrator.sol\":9613:9686  if (pool.inActiveBlock == 0) {... */\n    tag_397:\n        /* \"TEXOOrchestrator.sol\":9718:9722  pool */\n      dup1\n        /* \"TEXOOrchestrator.sol\":9718:9736  pool.inActiveBlock */\n      0x03\n      add\n      sload\n        /* \"TEXOOrchestrator.sol\":9703:9715  block.number */\n      number\n        /* \"TEXOOrchestrator.sol\":9703:9736  block.number > pool.inActiveBlock */\n      gt\n        /* \"TEXOOrchestrator.sol\":9703:9772  block.number > pool.inActiveBlock ? pool.inActiveBlock : block.number */\n      tag_398\n      jumpi\n        /* \"TEXOOrchestrator.sol\":9760:9772  block.number */\n      number\n        /* \"TEXOOrchestrator.sol\":9703:9772  block.number > pool.inActiveBlock ? pool.inActiveBlock : block.number */\n      jump(tag_399)\n    tag_398:\n        /* \"TEXOOrchestrator.sol\":9739:9743  pool */\n      dup1\n        /* \"TEXOOrchestrator.sol\":9739:9757  pool.inActiveBlock */\n      0x03\n      add\n      sload\n        /* \"TEXOOrchestrator.sol\":9703:9772  block.number > pool.inActiveBlock ? pool.inActiveBlock : block.number */\n    tag_399:\n        /* \"TEXOOrchestrator.sol\":9696:9772  return block.number > pool.inActiveBlock ? pool.inActiveBlock : block.number */\n      swap2\n      pop\n      pop\n        /* \"TEXOOrchestrator.sol\":9461:9779  function minCurrentBlockAndInactiveBlockIfExist(uint256 _pid) internal view returns (uint256) {... */\n    tag_394:\n      swap2\n      swap1\n      pop\n      jump\t// out\n        /* \"TEXOOrchestrator.sol\":18029:18370  function setReferral(address _user, address _referrer) internal {... */\n    tag_293:\n        /* \"TEXOOrchestrator.sol\":18128:18137  _referrer */\n      dup1\n        /* \"TEXOOrchestrator.sol\":18107:18138  _referrer == address(_referrer) */\n      0xffffffffffffffffffffffffffffffffffffffff\n      and\n        /* \"TEXOOrchestrator.sol\":18107:18116  _referrer */\n      dup2\n        /* \"TEXOOrchestrator.sol\":18107:18138  _referrer == address(_referrer) */\n      0xffffffffffffffffffffffffffffffffffffffff\n      and\n      eq\n        /* \"TEXOOrchestrator.sol\":18107:18172  _referrer == address(_referrer) && referrers[_user] == address(0) */\n      dup1\n      iszero\n      tag_401\n      jumpi\n      pop\n        /* \"TEXOOrchestrator.sol\":18170:18171  0 */\n      0x00\n        /* \"TEXOOrchestrator.sol\":18142:18172  referrers[_user] == address(0) */\n      0xffffffffffffffffffffffffffffffffffffffff\n      and\n        /* \"TEXOOrchestrator.sol\":18142:18151  referrers */\n      0x0d\n        /* \"TEXOOrchestrator.sol\":18142:18158  referrers[_user] */\n      0x00\n        /* \"TEXOOrchestrator.sol\":18152:18157  _user */\n      dup5\n        /* \"TEXOOrchestrator.sol\":18142:18158  referrers[_user] */\n      0xffffffffffffffffffffffffffffffffffffffff\n      and\n      0xffffffffffffffffffffffffffffffffffffffff\n      and\n      dup2\n      mstore\n      0x20\n      add\n      swap1\n      dup2\n      mstore\n      0x20\n      add\n      0x00\n      keccak256\n      0x00\n      swap1\n      sload\n      swap1\n      0x0100\n      exp\n      swap1\n      div\n      0xffffffffffffffffffffffffffffffffffffffff\n      and\n        /* \"TEXOOrchestrator.sol\":18142:18172  referrers[_user] == address(0) */\n      0xffffffffffffffffffffffffffffffffffffffff\n      and\n      eq\n        /* \"TEXOOrchestrator.sol\":18107:18172  _referrer == address(_referrer) && referrers[_user] == address(0) */\n    tag_401:\n        /* \"TEXOOrchestrator.sol\":18107:18199  _referrer == address(_referrer) && referrers[_user] == address(0) && _referrer != address(0) */\n      dup1\n      iszero\n      tag_402\n      jumpi\n      pop\n        /* \"TEXOOrchestrator.sol\":18197:18198  0 */\n      0x00\n        /* \"TEXOOrchestrator.sol\":18176:18199  _referrer != address(0) */\n      0xffffffffffffffffffffffffffffffffffffffff\n      and\n        /* \"TEXOOrchestrator.sol\":18176:18185  _referrer */\n      dup2\n        /* \"TEXOOrchestrator.sol\":18176:18199  _referrer != address(0) */\n      0xffffffffffffffffffffffffffffffffffffffff\n      and\n      eq\n      iszero\n        /* \"TEXOOrchestrator.sol\":18107:18199  _referrer == address(_referrer) && referrers[_user] == address(0) && _referrer != address(0) */\n    tag_402:\n        /* \"TEXOOrchestrator.sol\":18107:18221  _referrer == address(_referrer) && referrers[_user] == address(0) && _referrer != address(0) && _referrer != _user */\n      dup1\n      iszero\n      tag_403\n      jumpi\n      pop\n        /* \"TEXOOrchestrator.sol\":18216:18221  _user */\n      dup2\n        /* \"TEXOOrchestrator.sol\":18203:18221  _referrer != _user */\n      0xffffffffffffffffffffffffffffffffffffffff\n      and\n        /* \"TEXOOrchestrator.sol\":18203:18212  _referrer */\n      dup2\n        /* \"TEXOOrchestrator.sol\":18203:18221  _referrer != _user */\n      0xffffffffffffffffffffffffffffffffffffffff\n      and\n      eq\n      iszero\n        /* \"TEXOOrchestrator.sol\":18107:18221  _referrer == address(_referrer) && referrers[_user] == address(0) && _referrer != address(0) && _referrer != _user */\n    tag_403:\n        /* \"TEXOOrchestrator.sol\":18103:18364  if (_referrer == address(_referrer) && referrers[_user] == address(0) && _referrer != address(0) && _referrer != _user) {... */\n      iszero\n      tag_404\n      jumpi\n        /* \"TEXOOrchestrator.sol\":18256:18265  _referrer */\n      dup1\n        /* \"TEXOOrchestrator.sol\":18237:18246  referrers */\n      0x0d\n        /* \"TEXOOrchestrator.sol\":18237:18253  referrers[_user] */\n      0x00\n        /* \"TEXOOrchestrator.sol\":18247:18252  _user */\n      dup5\n        /* \"TEXOOrchestrator.sol\":18237:18253  referrers[_user] */\n      0xffffffffffffffffffffffffffffffffffffffff\n      and\n      0xffffffffffffffffffffffffffffffffffffffff\n      and\n      dup2\n      mstore\n      0x20\n      add\n      swap1\n      dup2\n      mstore\n      0x20\n      add\n      0x00\n      keccak256\n      0x00\n        /* \"TEXOOrchestrator.sol\":18237:18265  referrers[_user] = _referrer */\n      0x0100\n      exp\n      dup2\n      sload\n      dup2\n      0xffffffffffffffffffffffffffffffffffffffff\n      mul\n      not\n      and\n      swap1\n      dup4\n      0xffffffffffffffffffffffffffffffffffffffff\n      and\n      mul\n      or\n      swap1\n      sstore\n      pop\n        /* \"TEXOOrchestrator.sol\":18307:18308  1 */\n      0x01\n        /* \"TEXOOrchestrator.sol\":18279:18292  referredCount */\n      0x0e\n        /* \"TEXOOrchestrator.sol\":18279:18303  referredCount[_referrer] */\n      0x00\n        /* \"TEXOOrchestrator.sol\":18293:18302  _referrer */\n      dup4\n        /* \"TEXOOrchestrator.sol\":18279:18303  referredCount[_referrer] */\n      0xffffffffffffffffffffffffffffffffffffffff\n      and\n      0xffffffffffffffffffffffffffffffffffffffff\n      and\n      dup2\n      mstore\n      0x20\n      add\n      swap1\n      dup2\n      mstore\n      0x20\n      add\n      0x00\n      keccak256\n      0x00\n        /* \"TEXOOrchestrator.sol\":18279:18308  referredCount[_referrer] += 1 */\n      dup3\n      dup3\n      sload\n      add\n      swap3\n      pop\n      pop\n      dup2\n      swap1\n      sstore\n      pop\n        /* \"TEXOOrchestrator.sol\":18343:18352  _referrer */\n      dup1\n        /* \"TEXOOrchestrator.sol\":18327:18353  Referral(_user, _referrer) */\n      0xffffffffffffffffffffffffffffffffffffffff\n      and\n        /* \"TEXOOrchestrator.sol\":18336:18341  _user */\n      dup3\n        /* \"TEXOOrchestrator.sol\":18327:18353  Referral(_user, _referrer) */\n      0xffffffffffffffffffffffffffffffffffffffff\n      and\n      0x9d05414fb79fac216c15606de5cc06664e91a254e4d5f57664d5f1beaf7fb7ef\n      mload(0x40)\n      mload(0x40)\n      dup1\n      swap2\n      sub\n      swap1\n      log3\n        /* \"TEXOOrchestrator.sol\":18103:18364  if (_referrer == address(_referrer) && referrers[_user] == address(0) && _referrer != address(0) && _referrer != _user) {... */\n    tag_404:\n        /* \"TEXOOrchestrator.sol\":18029:18370  function setReferral(address _user, address _referrer) internal {... */\n      pop\n      pop\n      jump\t// out\n        /* \"SafeBEP20.sol\":888:1129  function safeTransferFrom(... */\n    tag_296:\n        /* \"SafeBEP20.sol\":1026:1122  _callOptionalReturn(token, abi.encodeWithSelector(token.transferFrom.selector, from, to, value)) */\n      tag_406\n        /* \"SafeBEP20.sol\":1046:1051  token */\n      dup5\n        /* \"SafeBEP20.sol\":1076:1103  token.transferFrom.selector */\n      shl(0xe0, 0x23b872dd)\n        /* \"SafeBEP20.sol\":1105:1109  from */\n      dup6\n        /* \"SafeBEP20.sol\":1111:1113  to */\n      dup6\n        /* \"SafeBEP20.sol\":1115:1120  value */\n      dup6\n        /* \"SafeBEP20.sol\":1053:1121  abi.encodeWithSelector(token.transferFrom.selector, from, to, value) */\n      add(0x24, mload(0x40))\n      dup1\n      dup5\n      0xffffffffffffffffffffffffffffffffffffffff\n      and\n      dup2\n      mstore\n      0x20\n      add\n      dup4\n      0xffffffffffffffffffffffffffffffffffffffff\n      and\n      dup2\n      mstore\n      0x20\n      add\n      dup3\n      dup2\n      mstore\n      0x20\n      add\n      swap4\n      pop\n      pop\n      pop\n      pop\n      mload(0x40)\n      0x20\n      dup2\n      dup4\n      sub\n      sub\n      dup2\n      mstore\n      swap1\n      0x40\n      mstore\n      swap1\n      not(0xffffffffffffffffffffffffffffffffffffffffffffffffffffffff)\n      and\n      0x20\n      dup3\n      add\n      dup1\n      mload\n      0xffffffffffffffffffffffffffffffffffffffffffffffffffffffff\n      dup4\n      dup2\n      dup4\n      and\n      or\n      dup4\n      mstore\n      pop\n      pop\n      pop\n      pop\n        /* \"SafeBEP20.sol\":1026:1045  _callOptionalReturn */\n      tag_386\n        /* \"SafeBEP20.sol\":1026:1122  _callOptionalReturn(token, abi.encodeWithSelector(token.transferFrom.selector, from, to, value)) */\n      jump\t// in\n    tag_406:\n        /* \"SafeBEP20.sol\":888:1129  function safeTransferFrom(... */\n      pop\n      pop\n      pop\n      pop\n      jump\t// out\n        /* \"Ownable.sol\":2192:2417  function _transferOwnership(address newOwner) internal {... */\n    tag_359:\n        /* \"Ownable.sol\":2285:2286  0 */\n      0x00\n        /* \"Ownable.sol\":2265:2287  newOwner != address(0) */\n      0xffffffffffffffffffffffffffffffffffffffff\n      and\n        /* \"Ownable.sol\":2265:2273  newOwner */\n      dup2\n        /* \"Ownable.sol\":2265:2287  newOwner != address(0) */\n      0xffffffffffffffffffffffffffffffffffffffff\n      and\n      eq\n      iszero\n        /* \"Ownable.sol\":2257:2330  require(newOwner != address(0), 'Ownable: new owner is the zero address') */\n      tag_408\n      jumpi\n      mload(0x40)\n      0x08c379a000000000000000000000000000000000000000000000000000000000\n      dup2\n      mstore\n      0x04\n      add\n      dup1\n      dup1\n      0x20\n      add\n      dup3\n      dup2\n      sub\n      dup3\n      mstore\n      0x26\n      dup2\n      mstore\n      0x20\n      add\n      dup1\n      data_245f15ff17f551913a7a18385165551503906a406f905ac1c2437281a7cd0cfe\n      0x26\n      swap2\n      codecopy\n      0x40\n      add\n      swap2\n      pop\n      pop\n      mload(0x40)\n      dup1\n      swap2\n      sub\n      swap1\n      revert\n    tag_408:\n        /* \"Ownable.sol\":2374:2382  newOwner */\n      dup1\n        /* \"Ownable.sol\":2345:2383  OwnershipTransferred(_owner, newOwner) */\n      0xffffffffffffffffffffffffffffffffffffffff\n      and\n        /* \"Ownable.sol\":2366:2372  _owner */\n      0x00\n      dup1\n      sload\n      swap1\n      0x0100\n      exp\n      swap1\n      div\n      0xffffffffffffffffffffffffffffffffffffffff\n      and\n        /* \"Ownable.sol\":2345:2383  OwnershipTransferred(_owner, newOwner) */\n      0xffffffffffffffffffffffffffffffffffffffff\n      and\n      0x8be0079c531659141344cd1fd0a4f28419497f9722a3daafe3b4186f6b6457e0\n      mload(0x40)\n      mload(0x40)\n      dup1\n      swap2\n      sub\n      swap1\n      log3\n        /* \"Ownable.sol\":2402:2410  newOwner */\n      dup1\n        /* \"Ownable.sol\":2393:2399  _owner */\n      0x00\n      dup1\n        /* \"Ownable.sol\":2393:2410  _owner = newOwner */\n      0x0100\n      exp\n      dup2\n      sload\n      dup2\n      0xffffffffffffffffffffffffffffffffffffffff\n      mul\n      not\n      and\n      swap1\n      dup4\n      0xffffffffffffffffffffffffffffffffffffffff\n      and\n      mul\n      or\n      swap1\n      sstore\n      pop\n        /* \"Ownable.sol\":2192:2417  function _transferOwnership(address newOwner) internal {... */\n      pop\n      jump\t// out\n        /* \"SafeMath.sol\":1747:1964  function sub(... */\n    tag_363:\n        /* \"SafeMath.sol\":1863:1870  uint256 */\n      0x00\n        /* \"SafeMath.sol\":1895:1896  a */\n      dup4\n        /* \"SafeMath.sol\":1890:1891  b */\n      dup4\n        /* \"SafeMath.sol\":1890:1896  b <= a */\n      gt\n      iszero\n        /* \"SafeMath.sol\":1898:1910  errorMessage */\n      dup3\n        /* \"SafeMath.sol\":1882:1911  require(b <= a, errorMessage) */\n      swap1\n      tag_410\n      jumpi\n      mload(0x40)\n      0x08c379a000000000000000000000000000000000000000000000000000000000\n      dup2\n      mstore\n      0x04\n      add\n      dup1\n      dup1\n      0x20\n      add\n      dup3\n      dup2\n      sub\n      dup3\n      mstore\n      dup4\n      dup2\n      dup2\n      mload\n      dup2\n      mstore\n      0x20\n      add\n      swap2\n      pop\n      dup1\n      mload\n      swap1\n      0x20\n      add\n      swap1\n      dup1\n      dup4\n      dup4\n      0x00\n    tag_411:\n      dup4\n      dup2\n      lt\n      iszero\n      tag_413\n      jumpi\n      dup1\n      dup3\n      add\n      mload\n      dup2\n      dup5\n      add\n      mstore\n      0x20\n      dup2\n      add\n      swap1\n      pop\n      jump(tag_411)\n    tag_413:\n      pop\n      pop\n      pop\n      pop\n      swap1\n      pop\n      swap1\n      dup2\n      add\n      swap1\n      0x1f\n      and\n      dup1\n      iszero\n      tag_414\n      jumpi\n      dup1\n      dup3\n      sub\n      dup1\n      mload\n      0x01\n      dup4\n      0x20\n      sub\n      0x0100\n      exp\n      sub\n      not\n      and\n      dup2\n      mstore\n      0x20\n      add\n      swap2\n      pop\n    tag_414:\n      pop\n      swap3\n      pop\n      pop\n      pop\n      mload(0x40)\n      dup1\n      swap2\n      sub\n      swap1\n      revert\n    tag_410:\n      pop\n        /* \"SafeMath.sol\":1921:1930  uint256 c */\n      0x00\n        /* \"SafeMath.sol\":1937:1938  b */\n      dup4\n        /* \"SafeMath.sol\":1933:1934  a */\n      dup6\n        /* \"SafeMath.sol\":1933:1938  a - b */\n      sub\n        /* \"SafeMath.sol\":1921:1938  uint256 c = a - b */\n      swap1\n      pop\n        /* \"SafeMath.sol\":1956:1957  c */\n      dup1\n        /* \"SafeMath.sol\":1949:1957  return c */\n      swap2\n      pop\n      pop\n        /* \"SafeMath.sol\":1747:1964  function sub(... */\n      swap4\n      swap3\n      pop\n      pop\n      pop\n      jump\t// out\n        /* \"TEXOOrchestrator.sol\":15183:15602  function safeTEXOTransfer(address _to, uint256 _amount) internal {... */\n    tag_378:\n        /* \"TEXOOrchestrator.sol\":15258:15273  uint256 tEXOBal */\n      0x00\n        /* \"TEXOOrchestrator.sol\":15276:15280  tEXO */\n      0x02\n      0x00\n      swap1\n      sload\n      swap1\n      0x0100\n      exp\n      swap1\n      div\n      0xffffffffffffffffffffffffffffffffffffffff\n      and\n        /* \"TEXOOrchestrator.sol\":15276:15290  tEXO.balanceOf */\n      0xffffffffffffffffffffffffffffffffffffffff\n      and\n      0x70a08231\n        /* \"TEXOOrchestrator.sol\":15299:15303  this */\n      address\n        /* \"TEXOOrchestrator.sol\":15276:15305  tEXO.balanceOf(address(this)) */\n      mload(0x40)\n      dup3\n      0xffffffff\n      and\n      0xe0\n      shl\n      dup2\n      mstore\n      0x04\n      add\n      dup1\n      dup3\n      0xffffffffffffffffffffffffffffffffffffffff\n      and\n      dup2\n      mstore\n      0x20\n      add\n      swap2\n      pop\n      pop\n      0x20\n      mload(0x40)\n      dup1\n      dup4\n      sub\n      dup2\n      dup7\n      dup1\n      extcodesize\n      iszero\n      dup1\n      iszero\n      tag_416\n      jumpi\n      0x00\n      dup1\n      revert\n    tag_416:\n      pop\n      gas\n      staticcall\n      iszero\n      dup1\n      iszero\n      tag_418\n      jumpi\n      returndatasize\n      0x00\n      dup1\n      returndatacopy\n      revert(0x00, returndatasize)\n    tag_418:\n      pop\n      pop\n      pop\n      pop\n      mload(0x40)\n      returndatasize\n      0x20\n      dup2\n      lt\n      iszero\n      tag_419\n      jumpi\n      0x00\n      dup1\n      revert\n    tag_419:\n      dup2\n      add\n      swap1\n      dup1\n      dup1\n      mload\n      swap1\n      0x20\n      add\n      swap1\n      swap3\n      swap2\n      swap1\n      pop\n      pop\n      pop\n        /* \"TEXOOrchestrator.sol\":15258:15305  uint256 tEXOBal = tEXO.balanceOf(address(this)) */\n      swap1\n      pop\n        /* \"TEXOOrchestrator.sol\":15315:15335  bool transferSuccess */\n      0x00\n        /* \"TEXOOrchestrator.sol\":15368:15375  tEXOBal */\n      dup2\n        /* \"TEXOOrchestrator.sol\":15358:15365  _amount */\n      dup4\n        /* \"TEXOOrchestrator.sol\":15358:15375  _amount > tEXOBal */\n      gt\n        /* \"TEXOOrchestrator.sol\":15354:15523  if (_amount > tEXOBal) {... */\n      iszero\n      tag_420\n      jumpi\n        /* \"TEXOOrchestrator.sol\":15409:15413  tEXO */\n      0x02\n      0x00\n      swap1\n      sload\n      swap1\n      0x0100\n      exp\n      swap1\n      div\n      0xffffffffffffffffffffffffffffffffffffffff\n      and\n        /* \"TEXOOrchestrator.sol\":15409:15422  tEXO.transfer */\n      0xffffffffffffffffffffffffffffffffffffffff\n      and\n      0xa9059cbb\n        /* \"TEXOOrchestrator.sol\":15423:15426  _to */\n      dup6\n        /* \"TEXOOrchestrator.sol\":15428:15435  tEXOBal */\n      dup5\n        /* \"TEXOOrchestrator.sol\":15409:15436  tEXO.transfer(_to, tEXOBal) */\n      mload(0x40)\n      dup4\n      0xffffffff\n      and\n      0xe0\n      shl\n      dup2\n      mstore\n      0x04\n      add\n      dup1\n      dup4\n      0xffffffffffffffffffffffffffffffffffffffff\n      and\n      dup2\n      mstore\n      0x20\n      add\n      dup3\n      dup2\n      mstore\n      0x20\n      add\n      swap3\n      pop\n      pop\n      pop\n      0x20\n      mload(0x40)\n      dup1\n      dup4\n      sub\n      dup2\n      0x00\n      dup8\n      dup1\n      extcodesize\n      iszero\n      dup1\n      iszero\n      tag_421\n      jumpi\n      0x00\n      dup1\n      revert\n    tag_421:\n      pop\n      gas\n      call\n      iszero\n      dup1\n      iszero\n      tag_423\n      jumpi\n      returndatasize\n      0x00\n      dup1\n      returndatacopy\n      revert(0x00, returndatasize)\n    tag_423:\n      pop\n      pop\n      pop\n      pop\n      mload(0x40)\n      returndatasize\n      0x20\n      dup2\n      lt\n      iszero\n      tag_424\n      jumpi\n      0x00\n      dup1\n      revert\n    tag_424:\n      dup2\n      add\n      swap1\n      dup1\n      dup1\n      mload\n      swap1\n      0x20\n      add\n      swap1\n      swap3\n      swap2\n      swap1\n      pop\n      pop\n      pop\n        /* \"TEXOOrchestrator.sol\":15391:15436  transferSuccess = tEXO.transfer(_to, tEXOBal) */\n      swap1\n      pop\n        /* \"TEXOOrchestrator.sol\":15354:15523  if (_amount > tEXOBal) {... */\n      jump(tag_425)\n    tag_420:\n        /* \"TEXOOrchestrator.sol\":15485:15489  tEXO */\n      0x02\n      0x00\n      swap1\n      sload\n      swap1\n      0x0100\n      exp\n      swap1\n      div\n      0xffffffffffffffffffffffffffffffffffffffff\n      and\n        /* \"TEXOOrchestrator.sol\":15485:15498  tEXO.transfer */\n      0xffffffffffffffffffffffffffffffffffffffff\n      and\n      0xa9059cbb\n        /* \"TEXOOrchestrator.sol\":15499:15502  _to */\n      dup6\n        /* \"TEXOOrchestrator.sol\":15504:15511  _amount */\n      dup6\n        /* \"TEXOOrchestrator.sol\":15485:15512  tEXO.transfer(_to, _amount) */\n      mload(0x40)\n      dup4\n      0xffffffff\n      and\n      0xe0\n      shl\n      dup2\n      mstore\n      0x04\n      add\n      dup1\n      dup4\n      0xffffffffffffffffffffffffffffffffffffffff\n      and\n      dup2\n      mstore\n      0x20\n      add\n      dup3\n      dup2\n      mstore\n      0x20\n      add\n      swap3\n      pop\n      pop\n      pop\n      0x20\n      mload(0x40)\n      dup1\n      dup4\n      sub\n      dup2\n      0x00\n      dup8\n      dup1\n      extcodesize\n      iszero\n      dup1\n      iszero\n      tag_426\n      jumpi\n      0x00\n      dup1\n      revert\n    tag_426:\n      pop\n      gas\n      call\n      iszero\n      dup1\n      iszero\n      tag_428\n      jumpi\n      returndatasize\n      0x00\n      dup1\n      returndatacopy\n      revert(0x00, returndatasize)\n    tag_428:\n      pop\n      pop\n      pop\n      pop\n      mload(0x40)\n      returndatasize\n      0x20\n      dup2\n      lt\n      iszero\n      tag_429\n      jumpi\n      0x00\n      dup1\n      revert\n    tag_429:\n      dup2\n      add\n      swap1\n      dup1\n      dup1\n      mload\n      swap1\n      0x20\n      add\n      swap1\n      swap3\n      swap2\n      swap1\n      pop\n      pop\n      pop\n        /* \"TEXOOrchestrator.sol\":15467:15512  transferSuccess = tEXO.transfer(_to, _amount) */\n      swap1\n      pop\n        /* \"TEXOOrchestrator.sol\":15354:15523  if (_amount > tEXOBal) {... */\n    tag_425:\n        /* \"TEXOOrchestrator.sol\":15541:15556  transferSuccess */\n      dup1\n        /* \"TEXOOrchestrator.sol\":15533:15595  require(transferSuccess, \"safePlumTransfer: transfer failed.\") */\n      tag_430\n      jumpi\n      mload(0x40)\n      0x08c379a000000000000000000000000000000000000000000000000000000000\n      dup2\n      mstore\n      0x04\n      add\n      dup1\n      dup1\n      0x20\n      add\n      dup3\n      dup2\n      sub\n      dup3\n      mstore\n      0x22\n      dup2\n      mstore\n      0x20\n      add\n      dup1\n      data_2a7e0e7f8bc79ffac7125960112eaea13c804910c2e58b65c50e00aacc68de0e\n      0x22\n      swap2\n      codecopy\n      0x40\n      add\n      swap2\n      pop\n      pop\n      mload(0x40)\n      dup1\n      swap2\n      sub\n      swap1\n      revert\n    tag_430:\n        /* \"TEXOOrchestrator.sol\":15183:15602  function safeTEXOTransfer(address _to, uint256 _amount) internal {... */\n      pop\n      pop\n      pop\n      pop\n      jump\t// out\n        /* \"TEXOOrchestrator.sol\":18601:19002  function payReferralCommission(address _user, uint256 _pending) internal {... */\n    tag_380:\n        /* \"TEXOOrchestrator.sol\":18684:18700  address referrer */\n      0x00\n        /* \"TEXOOrchestrator.sol\":18703:18721  getReferral(_user) */\n      tag_432\n        /* \"TEXOOrchestrator.sol\":18715:18720  _user */\n      dup4\n        /* \"TEXOOrchestrator.sol\":18703:18714  getReferral */\n      tag_72\n        /* \"TEXOOrchestrator.sol\":18703:18721  getReferral(_user) */\n      jump\t// in\n    tag_432:\n        /* \"TEXOOrchestrator.sol\":18684:18721  address referrer = getReferral(_user) */\n      swap1\n      pop\n        /* \"TEXOOrchestrator.sol\":18755:18756  0 */\n      0x00\n        /* \"TEXOOrchestrator.sol\":18735:18757  referrer != address(0) */\n      0xffffffffffffffffffffffffffffffffffffffff\n      and\n        /* \"TEXOOrchestrator.sol\":18735:18743  referrer */\n      dup2\n        /* \"TEXOOrchestrator.sol\":18735:18757  referrer != address(0) */\n      0xffffffffffffffffffffffffffffffffffffffff\n      and\n      eq\n      iszero\n        /* \"TEXOOrchestrator.sol\":18735:18778  referrer != address(0) && referrer != _user */\n      dup1\n      iszero\n      tag_433\n      jumpi\n      pop\n        /* \"TEXOOrchestrator.sol\":18773:18778  _user */\n      dup3\n        /* \"TEXOOrchestrator.sol\":18761:18778  referrer != _user */\n      0xffffffffffffffffffffffffffffffffffffffff\n      and\n        /* \"TEXOOrchestrator.sol\":18761:18769  referrer */\n      dup2\n        /* \"TEXOOrchestrator.sol\":18761:18778  referrer != _user */\n      0xffffffffffffffffffffffffffffffffffffffff\n      and\n      eq\n      iszero\n        /* \"TEXOOrchestrator.sol\":18735:18778  referrer != address(0) && referrer != _user */\n    tag_433:\n        /* \"TEXOOrchestrator.sol\":18735:18796  referrer != address(0) && referrer != _user && refBonusBP > 0 */\n      dup1\n      iszero\n      tag_434\n      jumpi\n      pop\n        /* \"TEXOOrchestrator.sol\":18795:18796  0 */\n      0x00\n        /* \"TEXOOrchestrator.sol\":18782:18792  refBonusBP */\n      sload(0x0c)\n        /* \"TEXOOrchestrator.sol\":18782:18796  refBonusBP > 0 */\n      gt\n        /* \"TEXOOrchestrator.sol\":18735:18796  referrer != address(0) && referrer != _user && refBonusBP > 0 */\n    tag_434:\n        /* \"TEXOOrchestrator.sol\":18731:18996  if (referrer != address(0) && referrer != _user && refBonusBP > 0) {... */\n      iszero\n      tag_435\n      jumpi\n        /* \"TEXOOrchestrator.sol\":18812:18834  uint256 refBonusEarned */\n      0x00\n        /* \"TEXOOrchestrator.sol\":18837:18872  _pending.mul(refBonusBP).div(10000) */\n      tag_436\n        /* \"TEXOOrchestrator.sol\":18866:18871  10000 */\n      0x2710\n        /* \"TEXOOrchestrator.sol\":18837:18861  _pending.mul(refBonusBP) */\n      tag_437\n        /* \"TEXOOrchestrator.sol\":18850:18860  refBonusBP */\n      sload(0x0c)\n        /* \"TEXOOrchestrator.sol\":18837:18845  _pending */\n      dup7\n        /* \"TEXOOrchestrator.sol\":18837:18849  _pending.mul */\n      tag_224\n      swap1\n        /* \"TEXOOrchestrator.sol\":18837:18861  _pending.mul(refBonusBP) */\n      swap2\n      swap1\n      0xffffffff\n      and\n      jump\t// in\n    tag_437:\n        /* \"TEXOOrchestrator.sol\":18837:18865  _pending.mul(refBonusBP).div */\n      tag_225\n      swap1\n        /* \"TEXOOrchestrator.sol\":18837:18872  _pending.mul(refBonusBP).div(10000) */\n      swap2\n      swap1\n      0xffffffff\n      and\n      jump\t// in\n    tag_436:\n        /* \"TEXOOrchestrator.sol\":18812:18872  uint256 refBonusEarned = _pending.mul(refBonusBP).div(10000) */\n      swap1\n      pop\n        /* \"TEXOOrchestrator.sol\":18886:18890  tEXO */\n      0x02\n      0x00\n      swap1\n      sload\n      swap1\n      0x0100\n      exp\n      swap1\n      div\n      0xffffffffffffffffffffffffffffffffffffffff\n      and\n        /* \"TEXOOrchestrator.sol\":18886:18895  tEXO.mint */\n      0xffffffffffffffffffffffffffffffffffffffff\n      and\n      0x40c10f19\n        /* \"TEXOOrchestrator.sol\":18896:18904  referrer */\n      dup4\n        /* \"TEXOOrchestrator.sol\":18906:18920  refBonusEarned */\n      dup4\n        /* \"TEXOOrchestrator.sol\":18886:18921  tEXO.mint(referrer, refBonusEarned) */\n      mload(0x40)\n      dup4\n      0xffffffff\n      and\n      0xe0\n      shl\n      dup2\n      mstore\n      0x04\n      add\n      dup1\n      dup4\n      0xffffffffffffffffffffffffffffffffffffffff\n      and\n      dup2\n      mstore\n      0x20\n      add\n      dup3\n      dup2\n      mstore\n      0x20\n      add\n      swap3\n      pop\n      pop\n      pop\n      0x00\n      mload(0x40)\n      dup1\n      dup4\n      sub\n      dup2\n      0x00\n      dup8\n      dup1\n      extcodesize\n      iszero\n      dup1\n      iszero\n      tag_438\n      jumpi\n      0x00\n      dup1\n      revert\n    tag_438:\n      pop\n      gas\n      call\n      iszero\n      dup1\n      iszero\n      tag_440\n      jumpi\n      returndatasize\n      0x00\n      dup1\n      returndatacopy\n      revert(0x00, returndatasize)\n    tag_440:\n      pop\n      pop\n      pop\n      pop\n        /* \"TEXOOrchestrator.sol\":18960:18968  referrer */\n      dup2\n        /* \"TEXOOrchestrator.sol\":18940:18985  ReferralPaid(_user, referrer, refBonusEarned) */\n      0xffffffffffffffffffffffffffffffffffffffff\n      and\n        /* \"TEXOOrchestrator.sol\":18953:18958  _user */\n      dup5\n        /* \"TEXOOrchestrator.sol\":18940:18985  ReferralPaid(_user, referrer, refBonusEarned) */\n      0xffffffffffffffffffffffffffffffffffffffff\n      and\n      0x0a721ab4682ceb61c7e4d264ef879fc419a6d764b136e7d96ef54b2053c75673\n        /* \"TEXOOrchestrator.sol\":18970:18984  refBonusEarned */\n      dup4\n        /* \"TEXOOrchestrator.sol\":18940:18985  ReferralPaid(_user, referrer, refBonusEarned) */\n      mload(0x40)\n      dup1\n      dup3\n      dup2\n      mstore\n      0x20\n      add\n      swap2\n      pop\n      pop\n      mload(0x40)\n      dup1\n      swap2\n      sub\n      swap1\n      log3\n        /* \"TEXOOrchestrator.sol\":18731:18996  if (referrer != address(0) && referrer != _user && refBonusBP > 0) {... */\n      pop\n    tag_435:\n        /* \"TEXOOrchestrator.sol\":18601:19002  function payReferralCommission(address _user, uint256 _pending) internal {... */\n      pop\n      pop\n      pop\n      jump\t// out\n        /* \"SafeBEP20.sol\":3145:3908  function _callOptionalReturn(IBEP20 token, bytes memory data) private {... */\n    tag_386:\n        /* \"SafeBEP20.sol\":3564:3587  bytes memory returndata */\n      0x60\n        /* \"SafeBEP20.sol\":3590:3659  address(token).functionCall(data, 'SafeBEP20: low-level call failed') */\n      tag_442\n        /* \"SafeBEP20.sol\":3618:3622  data */\n      dup3\n        /* \"SafeBEP20.sol\":3590:3659  address(token).functionCall(data, 'SafeBEP20: low-level call failed') */\n      mload(0x40)\n      dup1\n      0x40\n      add\n      0x40\n      mstore\n      dup1\n      0x20\n      dup2\n      mstore\n      0x20\n      add\n      0x5361666542455032303a206c6f772d6c6576656c2063616c6c206661696c6564\n      dup2\n      mstore\n      pop\n        /* \"SafeBEP20.sol\":3598:3603  token */\n      dup6\n        /* \"SafeBEP20.sol\":3590:3617  address(token).functionCall */\n      0xffffffffffffffffffffffffffffffffffffffff\n      and\n      tag_443\n      swap1\n        /* \"SafeBEP20.sol\":3590:3659  address(token).functionCall(data, 'SafeBEP20: low-level call failed') */\n      swap3\n      swap2\n      swap1\n      0xffffffff\n      and\n      jump\t// in\n    tag_442:\n        /* \"SafeBEP20.sol\":3564:3659  bytes memory returndata = address(token).functionCall(data, 'SafeBEP20: low-level call failed') */\n      swap1\n      pop\n        /* \"SafeBEP20.sol\":3693:3694  0 */\n      0x00\n        /* \"SafeBEP20.sol\":3673:3683  returndata */\n      dup2\n        /* \"SafeBEP20.sol\":3673:3690  returndata.length */\n      mload\n        /* \"SafeBEP20.sol\":3673:3694  returndata.length > 0 */\n      gt\n        /* \"SafeBEP20.sol\":3669:3902  if (returndata.length > 0) {... */\n      iszero\n      tag_444\n      jumpi\n        /* \"SafeBEP20.sol\":3825:3835  returndata */\n      dup1\n        /* \"SafeBEP20.sol\":3814:3844  abi.decode(returndata, (bool)) */\n      dup1\n      0x20\n      add\n      swap1\n      mload\n      0x20\n      dup2\n      lt\n      iszero\n      tag_445\n      jumpi\n      0x00\n      dup1\n      revert\n    tag_445:\n      dup2\n      add\n      swap1\n      dup1\n      dup1\n      mload\n      swap1\n      0x20\n      add\n      swap1\n      swap3\n      swap2\n      swap1\n      pop\n      pop\n      pop\n        /* \"SafeBEP20.sol\":3806:3891  require(abi.decode(returndata, (bool)), 'SafeBEP20: BEP20 operation did not succeed') */\n      tag_446\n      jumpi\n      mload(0x40)\n      0x08c379a000000000000000000000000000000000000000000000000000000000\n      dup2\n      mstore\n      0x04\n      add\n      dup1\n      dup1\n      0x20\n      add\n      dup3\n      dup2\n      sub\n      dup3\n      mstore\n      0x2a\n      dup2\n      mstore\n      0x20\n      add\n      dup1\n      data_21c3364d55537bf20eb8f05374e9f53f47299e1883c412f1f1135f398f2c2082\n      0x2a\n      swap2\n      codecopy\n      0x40\n      add\n      swap2\n      pop\n      pop\n      mload(0x40)\n      dup1\n      swap2\n      sub\n      swap1\n      revert\n    tag_446:\n        /* \"SafeBEP20.sol\":3669:3902  if (returndata.length > 0) {... */\n    tag_444:\n        /* \"SafeBEP20.sol\":3145:3908  function _callOptionalReturn(IBEP20 token, bytes memory data) private {... */\n      pop\n      pop\n      pop\n      jump\t// out\n        /* \"SafeMath.sol\":3744:4046  function div(... */\n    tag_393:\n        /* \"SafeMath.sol\":3860:3867  uint256 */\n      0x00\n        /* \"SafeMath.sol\":3891:3892  0 */\n      dup1\n        /* \"SafeMath.sol\":3887:3888  b */\n      dup4\n        /* \"SafeMath.sol\":3887:3892  b > 0 */\n      gt\n        /* \"SafeMath.sol\":3894:3906  errorMessage */\n      dup3\n        /* \"SafeMath.sol\":3879:3907  require(b > 0, errorMessage) */\n      swap1\n      tag_448\n      jumpi\n      mload(0x40)\n      0x08c379a000000000000000000000000000000000000000000000000000000000\n      dup2\n      mstore\n      0x04\n      add\n      dup1\n      dup1\n      0x20\n      add\n      dup3\n      dup2\n      sub\n      dup3\n      mstore\n      dup4\n      dup2\n      dup2\n      mload\n      dup2\n      mstore\n      0x20\n      add\n      swap2\n      pop\n      dup1\n      mload\n      swap1\n      0x20\n      add\n      swap1\n      dup1\n      dup4\n      dup4\n      0x00\n    tag_449:\n      dup4\n      dup2\n      lt\n      iszero\n      tag_451\n      jumpi\n      dup1\n      dup3\n      add\n      mload\n      dup2\n      dup5\n      add\n      mstore\n      0x20\n      dup2\n      add\n      swap1\n      pop\n      jump(tag_449)\n    tag_451:\n      pop\n      pop\n      pop\n      pop\n      swap1\n      pop\n      swap1\n      dup2\n      add\n      swap1\n      0x1f\n      and\n      dup1\n      iszero\n      tag_452\n      jumpi\n      dup1\n      dup3\n      sub\n      dup1\n      mload\n      0x01\n      dup4\n      0x20\n      sub\n      0x0100\n      exp\n      sub\n      not\n      and\n      dup2\n      mstore\n      0x20\n      add\n      swap2\n      pop\n    tag_452:\n      pop\n      swap3\n      pop\n      pop\n      pop\n      mload(0x40)\n      dup1\n      swap2\n      sub\n      swap1\n      revert\n    tag_448:\n      pop\n        /* \"SafeMath.sol\":3917:3926  uint256 c */\n      0x00\n        /* \"SafeMath.sol\":3933:3934  b */\n      dup4\n        /* \"SafeMath.sol\":3929:3930  a */\n      dup6\n        /* \"SafeMath.sol\":3929:3934  a / b */\n      dup2\n      tag_453\n      jumpi\n      invalid\n    tag_453:\n      div\n        /* \"SafeMath.sol\":3917:3934  uint256 c = a / b */\n      swap1\n      pop\n        /* \"SafeMath.sol\":4038:4039  c */\n      dup1\n        /* \"SafeMath.sol\":4031:4039  return c */\n      swap2\n      pop\n      pop\n        /* \"SafeMath.sol\":3744:4046  function div(... */\n      swap4\n      swap3\n      pop\n      pop\n      pop\n      jump\t// out\n        /* \"Address.sol\":3790:4014  function functionCall(... */\n    tag_443:\n        /* \"Address.sol\":3923:3935  bytes memory */\n      0x60\n        /* \"Address.sol\":3954:4007  _functionCallWithValue(target, data, 0, errorMessage) */\n      tag_455\n        /* \"Address.sol\":3977:3983  target */\n      dup5\n        /* \"Address.sol\":3985:3989  data */\n      dup5\n        /* \"Address.sol\":3991:3992  0 */\n      0x00\n        /* \"Address.sol\":3994:4006  errorMessage */\n      dup6\n        /* \"Address.sol\":3954:3976  _functionCallWithValue */\n      tag_456\n        /* \"Address.sol\":3954:4007  _functionCallWithValue(target, data, 0, errorMessage) */\n      jump\t// in\n    tag_455:\n        /* \"Address.sol\":3947:4007  return _functionCallWithValue(target, data, 0, errorMessage) */\n      swap1\n      pop\n        /* \"Address.sol\":3790:4014  function functionCall(... */\n      swap4\n      swap3\n      pop\n      pop\n      pop\n      jump\t// out\n        /* \"Address.sol\":5235:6229  function _functionCallWithValue(... */\n    tag_456:\n        /* \"Address.sol\":5403:5415  bytes memory */\n      0x60\n        /* \"Address.sol\":5435:5453  isContract(target) */\n      tag_458\n        /* \"Address.sol\":5446:5452  target */\n      dup6\n        /* \"Address.sol\":5435:5445  isContract */\n      tag_459\n        /* \"Address.sol\":5435:5453  isContract(target) */\n      jump\t// in\n    tag_458:\n        /* \"Address.sol\":5427:5487  require(isContract(target), 'Address: call to non-contract') */\n      tag_460\n      jumpi\n      mload(0x40)\n      0x08c379a000000000000000000000000000000000000000000000000000000000\n      dup2\n      mstore\n      0x04\n      add\n      dup1\n      dup1\n      0x20\n      add\n      dup3\n      dup2\n      sub\n      dup3\n      mstore\n      0x1d\n      dup2\n      mstore\n      0x20\n      add\n      dup1\n      0x416464726573733a2063616c6c20746f206e6f6e2d636f6e7472616374000000\n      dup2\n      mstore\n      pop\n      0x20\n      add\n      swap2\n      pop\n      pop\n      mload(0x40)\n      dup1\n      swap2\n      sub\n      swap1\n      revert\n    tag_460:\n        /* \"Address.sol\":5558:5570  bool success */\n      0x00\n        /* \"Address.sol\":5572:5595  bytes memory returndata */\n      0x60\n        /* \"Address.sol\":5599:5605  target */\n      dup7\n        /* \"Address.sol\":5599:5610  target.call */\n      0xffffffffffffffffffffffffffffffffffffffff\n      and\n        /* \"Address.sol\":5618:5626  weiValue */\n      dup6\n        /* \"Address.sol\":5628:5632  data */\n      dup8\n        /* \"Address.sol\":5599:5633  target.call{value: weiValue}(data) */\n      mload(0x40)\n      dup1\n      dup3\n      dup1\n      mload\n      swap1\n      0x20\n      add\n      swap1\n      dup1\n      dup4\n      dup4\n    tag_461:\n      0x20\n      dup4\n      lt\n      tag_463\n      jumpi\n      dup1\n      mload\n      dup3\n      mstore\n      0x20\n      dup3\n      add\n      swap2\n      pop\n      0x20\n      dup2\n      add\n      swap1\n      pop\n      0x20\n      dup4\n      sub\n      swap3\n      pop\n      jump(tag_461)\n    tag_463:\n      0x01\n      dup4\n      0x20\n      sub\n      0x0100\n      exp\n      sub\n      dup1\n      not\n      dup3\n      mload\n      and\n      dup2\n      dup5\n      mload\n      and\n      dup1\n      dup3\n      or\n      dup6\n      mstore\n      pop\n      pop\n      pop\n      pop\n      pop\n      pop\n      swap1\n      pop\n      add\n      swap2\n      pop\n      pop\n      0x00\n      mload(0x40)\n      dup1\n      dup4\n      sub\n      dup2\n      dup6\n      dup8\n      gas\n      call\n      swap3\n      pop\n      pop\n      pop\n      returndatasize\n      dup1\n      0x00\n      dup2\n      eq\n      tag_466\n      jumpi\n      mload(0x40)\n      swap2\n      pop\n      and(add(returndatasize, 0x3f), not(0x1f))\n      dup3\n      add\n      0x40\n      mstore\n      returndatasize\n      dup3\n      mstore\n      returndatasize\n      0x00\n      0x20\n      dup5\n      add\n      returndatacopy\n      jump(tag_465)\n    tag_466:\n      0x60\n      swap2\n      pop\n    tag_465:\n      pop\n        /* \"Address.sol\":5557:5633  (bool success, bytes memory returndata) = target.call{value: weiValue}(data) */\n      swap2\n      pop\n      swap2\n      pop\n        /* \"Address.sol\":5647:5654  success */\n      dup2\n        /* \"Address.sol\":5643:6223  if (success) {... */\n      iszero\n      tag_467\n      jumpi\n        /* \"Address.sol\":5677:5687  returndata */\n      dup1\n        /* \"Address.sol\":5670:5687  return returndata */\n      swap3\n      pop\n      pop\n      pop\n      jump(tag_457)\n        /* \"Address.sol\":5643:6223  if (success) {... */\n    tag_467:\n        /* \"Address.sol\":5808:5809  0 */\n      0x00\n        /* \"Address.sol\":5788:5798  returndata */\n      dup2\n        /* \"Address.sol\":5788:5805  returndata.length */\n      mload\n        /* \"Address.sol\":5788:5809  returndata.length > 0 */\n      gt\n        /* \"Address.sol\":5784:6213  if (returndata.length > 0) {... */\n      iszero\n      tag_469\n      jumpi\n        /* \"Address.sol\":6046:6056  returndata */\n      dup1\n        /* \"Address.sol\":6040:6057  mload(returndata) */\n      mload\n        /* \"Address.sol\":6106:6121  returndata_size */\n      dup1\n        /* \"Address.sol\":6093:6103  returndata */\n      dup3\n        /* \"Address.sol\":6089:6091  32 */\n      0x20\n        /* \"Address.sol\":6085:6104  add(32, returndata) */\n      add\n        /* \"Address.sol\":6078:6122  revert(add(32, returndata), returndata_size) */\n      revert\n        /* \"Address.sol\":5995:6140  {... */\n    tag_469:\n        /* \"Address.sol\":6185:6197  errorMessage */\n      dup4\n        /* \"Address.sol\":6178:6198  revert(errorMessage) */\n      mload(0x40)\n      0x08c379a000000000000000000000000000000000000000000000000000000000\n      dup2\n      mstore\n      0x04\n      add\n      dup1\n      dup1\n      0x20\n      add\n      dup3\n      dup2\n      sub\n      dup3\n      mstore\n      dup4\n      dup2\n      dup2\n      mload\n      dup2\n      mstore\n      0x20\n      add\n      swap2\n      pop\n      dup1\n      mload\n      swap1\n      0x20\n      add\n      swap1\n      dup1\n      dup4\n      dup4\n      0x00\n    tag_471:\n      dup4\n      dup2\n      lt\n      iszero\n      tag_473\n      jumpi\n      dup1\n      dup3\n      add\n      mload\n      dup2\n      dup5\n      add\n      mstore\n      0x20\n      dup2\n      add\n      swap1\n      pop\n      jump(tag_471)\n    tag_473:\n      pop\n      pop\n      pop\n      pop\n      swap1\n      pop\n      swap1\n      dup2\n      add\n      swap1\n      0x1f\n      and\n      dup1\n      iszero\n      tag_474\n      jumpi\n      dup1\n      dup3\n      sub\n      dup1\n      mload\n      0x01\n      dup4\n      0x20\n      sub\n      0x0100\n      exp\n      sub\n      not\n      and\n      dup2\n      mstore\n      0x20\n      add\n      swap2\n      pop\n    tag_474:\n      pop\n      swap3\n      pop\n      pop\n      pop\n      mload(0x40)\n      dup1\n      swap2\n      sub\n      swap1\n      revert\n        /* \"Address.sol\":5235:6229  function _functionCallWithValue(... */\n    tag_457:\n      swap5\n      swap4\n      pop\n      pop\n      pop\n      pop\n      jump\t// out\n        /* \"Address.sol\":718:1348  function isContract(address account) internal view returns (bool) {... */\n    tag_459:\n        /* \"Address.sol\":778:782  bool */\n      0x00\n        /* \"Address.sol\":1036:1052  bytes32 codehash */\n      dup1\n        /* \"Address.sol\":1062:1081  bytes32 accountHash */\n      0x00\n        /* \"Address.sol\":1084:1150  0xc5d2460186f7233c927e7db2dcc703c0e500b653ca82273b7bfad8045d85a470 */\n      0xc5d2460186f7233c927e7db2dcc703c0e500b653ca82273b7bfad8045d85a470\n        /* \"Address.sol\":1062:1150  bytes32 accountHash = 0xc5d2460186f7233c927e7db2dcc703c0e500b653ca82273b7bfad8045d85a470 */\n      0x00\n      shl\n      swap1\n      pop\n        /* \"Address.sol\":1263:1270  account */\n      dup4\n        /* \"Address.sol\":1251:1271  extcodehash(account) */\n      extcodehash\n        /* \"Address.sol\":1239:1271  codehash := extcodehash(account) */\n      swap2\n      pop\n        /* \"Address.sol\":1310:1321  accountHash */\n      dup1\n        /* \"Address.sol\":1298:1306  codehash */\n      dup3\n        /* \"Address.sol\":1298:1321  codehash != accountHash */\n      eq\n      iszero\n        /* \"Address.sol\":1298:1340  codehash != accountHash && codehash != 0x0 */\n      dup1\n      iszero\n      tag_476\n      jumpi\n      pop\n        /* \"Address.sol\":1337:1340  0x0 */\n      0x00\n        /* \"Address.sol\":1325:1340  codehash != 0x0 */\n      dup1\n      shl\n        /* \"Address.sol\":1325:1333  codehash */\n      dup3\n        /* \"Address.sol\":1325:1340  codehash != 0x0 */\n      eq\n      iszero\n        /* \"Address.sol\":1298:1340  codehash != accountHash && codehash != 0x0 */\n    tag_476:\n        /* \"Address.sol\":1290:1341  return (codehash != accountHash && codehash != 0x0) */\n      swap3\n      pop\n      pop\n      pop\n        /* \"Address.sol\":718:1348  function isContract(address account) internal view returns (bool) {... */\n      swap2\n      swap1\n      pop\n      jump\t// out\n    stop\n    data_0ecf01aeb804f0ae223eada9d16893a9009cdcbe208d348705dc613f9a9f5331 6164643a20696e76616c6964206465706f7369742066656520626173697320706f696e7473\n    data_20a6bce988e8b6ff5852ac398e27735d1d8155a9d79e532ec3c3da13f504a6a4 757064617465526566426f6e757350657263656e743a20696e76616c696420726566657272616c20626f6e757320626173697320706f696e7473\n    data_21c3364d55537bf20eb8f05374e9f53f47299e1883c412f1f1135f398f2c2082 5361666542455032303a204245503230206f7065726174696f6e20646964206e6f742073756363656564\n    data_245f15ff17f551913a7a18385165551503906a406f905ac1c2437281a7cd0cfe 4f776e61626c653a206e6577206f776e657220697320746865207a65726f2061646472657373\n    data_2a7e0e7f8bc79ffac7125960112eaea13c804910c2e58b65c50e00aacc68de0e 73616665506c756d5472616e736665723a207472616e73666572206661696c65642e\n    data_542d191555ea619dedb1489efd71948659c57b11c6c1a84d1c1ce6e7c8074aad 6465706f7369743a20496e76616c69642072656665727265722061646472657373\n    data_9113bb53c2876a3805b2c9242029423fc540a728243ce887ab24c82cf119fba3 536166654d6174683a206d756c7469706c69636174696f6e206f766572666c6f77\n    data_9353dfb5d58f0da66015bbcadafa0686e2e7b7226db2e603088e70c7012680cf 7365743a20696e76616c6964206465706f7369742066656520626173697320706f696e7473\n    data_9d1a761c817eae8410d2081a433553cad78dcf01ebb754f58addc464260ba484 757064617465526566426f6e757350657263656e743a2073616d6520626f6e757320627020736574\n    data_a827dd9c9a80825686eef28a9f1d2466e1d29b6da48280d16028581898989615 726564756365456d697373696f6e526174655769746844656661756c74526174653a2043616e206f6e6c792062652063616c6c65642061667465722073706563696669656420626c6f636b20737461727473\n    data_bf35de78f3e15a98c58afdc189c393a6a76029783bd8ecfd3a8b87b4a628fd85 676574506f6f6c4964466f724c70546f6b656e3a20646f206e6f74206578697374\n    data_d4e7846547be135afcf8a93a01a9053e9fa2c0d79f8d5448158422588210b6ab 726564756365456d697373696f6e526174655769746844656661756c74526174653a20456d697373696f6e207261746520686173207265616368656420746865206d696e696d756d207468726573686f6c64\n    data_defd5c903b3416581b5d98f5a021e4c2963664705201c58ffb06423da9b1f891 6465706f7369743a207374616b696e6720706572696f642068617320656e646564\n\n    auxdata: 0xa2646970667358221220a40a0bf8ee4e9504282d79dae6bfd462cf3e27182a8ba3a3a0424066ba7d7b3b64736f6c634300060c0033\n}\n","bytecode":{"linkReferences":{},"object":"60806040526000600b5560c8600c5560006011553480156200002057600080fd5b506040516200474a3803806200474a833981810160405260c08110156200004657600080fd5b8101908080519060200190929190805190602001909291908051906020019092919080519060200190929190805190602001909291908051906020019092919050505060006200009b6200023360201b60201c565b9050806000806101000a81548173ffffffffffffffffffffffffffffffffffffffff021916908373ffffffffffffffffffffffffffffffffffffffff1602179055508073ffffffffffffffffffffffffffffffffffffffff16600073ffffffffffffffffffffffffffffffffffffffff167f8be0079c531659141344cd1fd0a4f28419497f9722a3daafe3b4186f6b6457e060405160405180910390a3506001808190555085600260006101000a81548173ffffffffffffffffffffffffffffffffffffffff021916908373ffffffffffffffffffffffffffffffffffffffff16021790555084600360006101000a81548173ffffffffffffffffffffffffffffffffffffffff021916908373ffffffffffffffffffffffffffffffffffffffff16021790555083600560006101000a81548173ffffffffffffffffffffffffffffffffffffffff021916908373ffffffffffffffffffffffffffffffffffffffff1602179055506706f05b59d3b200006004819055508260088190555081600681905550806007819055505050505050506200023b565b600033905090565b6144ff806200024b6000396000f3fe608060405234801561001057600080fd5b506004361061025e5760003560e01c8063715018a611610146578063a1bdb15e116100c3578063d0d41fe111610087578063d0d41fe114610abf578063d4adafdf14610b03578063da09c72c14610b21578063dfe3d2cd14610b55578063ea76bc2914610bb7578063f2fde38b14610bc15761025e565b8063a1bdb15e146109a1578063ae715d70146109cf578063b7eee1f114610a03578063ca291b1314610a21578063cbd258b514610a655761025e565b806391bb809c1161010a57806391bb809c1461087b57806393f1a40b14610899578063955c9b93146109095780639bf62f7e1461092b578063a1515333146109835761025e565b8063715018a6146107555780638705fcd41461075f5780638da5cb5b146107a35780638dbb1e3a146107d75780638dbdbe6d146108235761025e565b8063441a3e70116101df57806361e0c468116101a357806361e0c468146106a5578063630b5ba1146106c357806364ed743b146106cd578063660f8340146106fb57806366f685ea146107195780636a9a7660146107375761025e565b8063441a3e70146105855780634a3b68cc146105bd57806351eb05a61461062b5780635312ea8e1461065957806354324b58146106875761025e565b8063190f39f011610226578063190f39f0146104115780633a22df78146104695780633b0f0f2f1461048b5780633f7b06d8146104f957806341275358146105515761025e565b80630326f66d14610263578063081e3eda146102c95780630b844523146102e75780631526fe271461036d57806317caf6f1146103f3575b600080fd5b6102c7600480360360c081101561027957600080fd5b810190808035906020019092919080359060200190929190803561ffff1690602001909291908035151590602001909291908035906020019092919080359060200190929190505050610c05565b005b6102d1610e5a565b6040518082815260200191505060405180910390f35b61036b600480360360e08110156102fd57600080fd5b8101908080359060200190929190803573ffffffffffffffffffffffffffffffffffffffff169060200190929190803561ffff169060200190929190803515159060200190929190803590602001909291908035906020019092919080359060200190929190505050610e67565b005b6103996004803603602081101561038357600080fd5b810190808035906020019092919050505061128f565b604051808873ffffffffffffffffffffffffffffffffffffffff1681526020018781526020018681526020018581526020018481526020018381526020018261ffff16815260200197505050505050505060405180910390f35b6103fb61130c565b6040518082815260200191505060405180910390f35b6104536004803603602081101561042757600080fd5b81019080803573ffffffffffffffffffffffffffffffffffffffff169060200190929190505050611312565b6040518082815260200191505060405180910390f35b610471611404565b604051808261ffff16815260200191505060405180910390f35b6104cd600480360360208110156104a157600080fd5b81019080803573ffffffffffffffffffffffffffffffffffffffff16906020019092919050505061140a565b604051808273ffffffffffffffffffffffffffffffffffffffff16815260200191505060405180910390f35b61053b6004803603602081101561050f57600080fd5b81019080803573ffffffffffffffffffffffffffffffffffffffff169060200190929190505050611473565b6040518082815260200191505060405180910390f35b61055961148b565b604051808273ffffffffffffffffffffffffffffffffffffffff16815260200191505060405180910390f35b6105bb6004803603604081101561059b57600080fd5b8101908080359060200190929190803590602001909291905050506114b1565b005b6105ff600480360360208110156105d357600080fd5b81019080803573ffffffffffffffffffffffffffffffffffffffff16906020019092919050505061173f565b604051808273ffffffffffffffffffffffffffffffffffffffff16815260200191505060405180910390f35b6106576004803603602081101561064157600080fd5b8101908080359060200190929190505050611772565b005b6106856004803603602081101561066f57600080fd5b8101908080359060200190929190505050611add565b005b61068f611c97565b6040518082815260200191505060405180910390f35b6106ad611c9d565b6040518082815260200191505060405180910390f35b6106cb611ca9565b005b6106f9600480360360208110156106e357600080fd5b8101908080359060200190929190505050611cd6565b005b610703611ea9565b6040518082815260200191505060405180910390f35b610721611eaf565b6040518082815260200191505060405180910390f35b61073f611eb5565b6040518082815260200191505060405180910390f35b61075d611ebb565b005b6107a16004803603602081101561077557600080fd5b81019080803573ffffffffffffffffffffffffffffffffffffffff169060200190929190505050612041565b005b6107ab612245565b604051808273ffffffffffffffffffffffffffffffffffffffff16815260200191505060405180910390f35b61080d600480360360408110156107ed57600080fd5b81019080803590602001909291908035906020019092919050505061226e565b6040518082815260200191505060405180910390f35b6108796004803603606081101561083957600080fd5b810190808035906020019092919080359060200190929190803573ffffffffffffffffffffffffffffffffffffffff16906020019092919050505061228b565b005b61088361271f565b6040518082815260200191505060405180910390f35b6108e5600480360360408110156108af57600080fd5b8101908080359060200190929190803573ffffffffffffffffffffffffffffffffffffffff16906020019092919050505061272b565b60405180848152602001838152602001828152602001935050505060405180910390f35b610911612762565b604051808261ffff16815260200191505060405180910390f35b61096d6004803603602081101561094157600080fd5b81019080803573ffffffffffffffffffffffffffffffffffffffff169060200190929190505050612768565b6040518082815260200191505060405180910390f35b61098b612780565b6040518082815260200191505060405180910390f35b6109cd600480360360208110156109b757600080fd5b8101908080359060200190929190505050612786565b005b6109d76128be565b604051808273ffffffffffffffffffffffffffffffffffffffff16815260200191505060405180910390f35b610a0b6128e4565b6040518082815260200191505060405180910390f35b610a4d60048036036020811015610a3757600080fd5b81019080803590602001909291905050506128ea565b60405180821515815260200191505060405180910390f35b610aa760048036036020811015610a7b57600080fd5b81019080803573ffffffffffffffffffffffffffffffffffffffff16906020019092919050505061291a565b60405180821515815260200191505060405180910390f35b610b0160048036036020811015610ad557600080fd5b81019080803573ffffffffffffffffffffffffffffffffffffffff16906020019092919050505061293a565b005b610b0b612b3e565b6040518082815260200191505060405180910390f35b610b29612b44565b604051808273ffffffffffffffffffffffffffffffffffffffff16815260200191505060405180910390f35b610ba160048036036040811015610b6b57600080fd5b8101908080359060200190929190803573ffffffffffffffffffffffffffffffffffffffff169060200190929190505050612b6a565b6040518082815260200191505060405180910390f35b610bbf612dda565b005b610c0360048036036020811015610bd757600080fd5b81019080803573ffffffffffffffffffffffffffffffffffffffff169060200190929190505050612fce565b005b610c0d6130a2565b73ffffffffffffffffffffffffffffffffffffffff1660008054906101000a900473ffffffffffffffffffffffffffffffffffffffff1673ffffffffffffffffffffffffffffffffffffffff1614610ccd576040517f08c379a00000000000000000000000000000000000000000000000000000000081526004018080602001828103825260208152602001807f4f776e61626c653a2063616c6c6572206973206e6f7420746865206f776e657281525060200191505060405180910390fd5b61019061ffff168461ffff161115610d30576040517f08c379a00000000000000000000000000000000000000000000000000000000081526004018080602001828103825260258152602001806143976025913960400191505060405180910390fd5b8215610d3f57610d3e611ca9565b5b6000808311610d5057600754610d52565b825b9050610d9986610d8b60098a81548110610d6857fe5b906000526020600020906007020160010154600b546130aa90919063ffffffff16565b6130f490919063ffffffff16565b600b819055508560098881548110610dad57fe5b9060005260206000209060070201600101819055508460098881548110610dd057fe5b906000526020600020906007020160060160006101000a81548161ffff021916908361ffff1602179055508060098881548110610e0957fe5b90600052602060002090600702016002018190555060008211610e2d576000610e2f565b815b60098881548110610e3c57fe5b90600052602060002090600702016003018190555050505050505050565b6000600980549050905090565b610e6f6130a2565b73ffffffffffffffffffffffffffffffffffffffff1660008054906101000a900473ffffffffffffffffffffffffffffffffffffffff1673ffffffffffffffffffffffffffffffffffffffff1614610f2f576040517f08c379a00000000000000000000000000000000000000000000000000000000081526004018080602001828103825260208152602001807f4f776e61626c653a2063616c6c6572206973206e6f7420746865206f776e657281525060200191505060405180910390fd5b8560001515600f60008373ffffffffffffffffffffffffffffffffffffffff1673ffffffffffffffffffffffffffffffffffffffff16815260200190815260200160002060009054906101000a900460ff16151514610ff6576040517f08c379a00000000000000000000000000000000000000000000000000000000081526004018080602001828103825260198152602001807f6e6f6e4475706c6963617465643a206475706c6963617465640000000000000081525060200191505060405180910390fd5b61019061ffff168661ffff161115611059576040517f08c379a00000000000000000000000000000000000000000000000000000000081526004018080602001828103825260258152602001806142846025913960400191505060405180910390fd5b841561106857611067611ca9565b5b60008085116110795760075461107b565b845b905061109289600b546130f490919063ffffffff16565b600b819055506001600f60008a73ffffffffffffffffffffffffffffffffffffffff1673ffffffffffffffffffffffffffffffffffffffff16815260200190815260200160002060006101000a81548160ff02191690831515021790555060096040518060e001604052808a73ffffffffffffffffffffffffffffffffffffffff1681526020018b815260200183815260200160008611611134576000611136565b855b81526020016000871161115b57600854431161115457600854611156565b435b61115d565b865b8152602001600081526020018961ffff16815250908060018154018082558091505060019003906000526020600020906007020160009091909190915060008201518160000160006101000a81548173ffffffffffffffffffffffffffffffffffffffff021916908373ffffffffffffffffffffffffffffffffffffffff1602179055506020820151816001015560408201518160020155606082015181600301556080820151816004015560a0820151816005015560c08201518160060160006101000a81548161ffff021916908361ffff1602179055505050600160098054905003601060008a73ffffffffffffffffffffffffffffffffffffffff1673ffffffffffffffffffffffffffffffffffffffff16815260200190815260200160002081905550505050505050505050565b6009818154811061129c57fe5b90600052602060002090600702016000915090508060000160009054906101000a900473ffffffffffffffffffffffffffffffffffffffff16908060010154908060020154908060030154908060040154908060050154908060060160009054906101000a900461ffff16905087565b600b5481565b6000801515600f60008473ffffffffffffffffffffffffffffffffffffffff1673ffffffffffffffffffffffffffffffffffffffff16815260200190815260200160002060009054906101000a900460ff16151514156113bd576040517f08c379a00000000000000000000000000000000000000000000000000000000081526004018080602001828103825260218152602001806144366021913960400191505060405180910390fd5b601060008373ffffffffffffffffffffffffffffffffffffffff1673ffffffffffffffffffffffffffffffffffffffff168152602001908152602001600020549050919050565b6107d081565b6000600d60008373ffffffffffffffffffffffffffffffffffffffff1673ffffffffffffffffffffffffffffffffffffffff16815260200190815260200160002060009054906101000a900473ffffffffffffffffffffffffffffffffffffffff169050919050565b600e6020528060005260406000206000915090505481565b600560009054906101000a900473ffffffffffffffffffffffffffffffffffffffff1681565b6002600154141561152a576040517f08c379a000000000000000000000000000000000000000000000000000000000815260040180806020018281038252601f8152602001807f5265656e7472616e637947756172643a207265656e7472616e742063616c6c0081525060200191505060405180910390fd5b600260018190555060006009838154811061154157fe5b906000526020600020906007020190506000600a600085815260200190815260200160002060003373ffffffffffffffffffffffffffffffffffffffff1673ffffffffffffffffffffffffffffffffffffffff1681526020019081526020016000209050828160000154101561161f576040517f08c379a00000000000000000000000000000000000000000000000000000000081526004018080602001828103825260128152602001807f77697468647261773a206e6f7420676f6f64000000000000000000000000000081525060200191505060405180910390fd5b61162884611772565b6116318461317c565b60008311156116a9576116518382600001546130aa90919063ffffffff16565b81600001819055506116a833848460000160009054906101000a900473ffffffffffffffffffffffffffffffffffffffff1673ffffffffffffffffffffffffffffffffffffffff166132d19092919063ffffffff16565b5b6116db64e8d4a510006116cd8460050154846000015461337390919063ffffffff16565b6133f990919063ffffffff16565b8160010181905550833373ffffffffffffffffffffffffffffffffffffffff167ff279e6a1f5e320cca91135676d9cb6e44ca8a08c0b88342bcdb1144f6511b568856040518082815260200191505060405180910390a35050600180819055505050565b600d6020528060005260406000206000915054906101000a900473ffffffffffffffffffffffffffffffffffffffff1681565b60006009828154811061178157fe5b90600052602060002090600702019050600061179c83613443565b9050816004015481116117b0575050611ada565b60008260000160009054906101000a900473ffffffffffffffffffffffffffffffffffffffff1673ffffffffffffffffffffffffffffffffffffffff166370a08231306040518263ffffffff1660e01b8152600401808273ffffffffffffffffffffffffffffffffffffffff16815260200191505060206040518083038186803b15801561183d57600080fd5b505afa158015611851573d6000803e3d6000fd5b505050506040513d602081101561186757600080fd5b81019080805190602001909291905050509050600081148061188d575060008360010154145b156118a357818360040181905550505050611ada565b60006118b384600401548461226e565b905060006118f6600b546118e887600101546118da6004548761337390919063ffffffff16565b61337390919063ffffffff16565b6133f990919063ffffffff16565b9050600260009054906101000a900473ffffffffffffffffffffffffffffffffffffffff1673ffffffffffffffffffffffffffffffffffffffff166340c10f19600360009054906101000a900473ffffffffffffffffffffffffffffffffffffffff1661196d600a856133f990919063ffffffff16565b6040518363ffffffff1660e01b8152600401808373ffffffffffffffffffffffffffffffffffffffff16815260200182815260200192505050600060405180830381600087803b1580156119c057600080fd5b505af11580156119d4573d6000803e3d6000fd5b50505050600260009054906101000a900473ffffffffffffffffffffffffffffffffffffffff1673ffffffffffffffffffffffffffffffffffffffff166340c10f1930836040518363ffffffff1660e01b8152600401808373ffffffffffffffffffffffffffffffffffffffff16815260200182815260200192505050600060405180830381600087803b158015611a6b57600080fd5b505af1158015611a7f573d6000803e3d6000fd5b50505050611ac3611ab084611aa264e8d4a510008561337390919063ffffffff16565b6133f990919063ffffffff16565b86600501546130f490919063ffffffff16565b856005018190555083856004018190555050505050505b50565b60026001541415611b56576040517f08c379a000000000000000000000000000000000000000000000000000000000815260040180806020018281038252601f8152602001807f5265656e7472616e637947756172643a207265656e7472616e742063616c6c0081525060200191505060405180910390fd5b6002600181905550600060098281548110611b6d57fe5b906000526020600020906007020190506000600a600084815260200190815260200160002060003373ffffffffffffffffffffffffffffffffffffffff1673ffffffffffffffffffffffffffffffffffffffff1681526020019081526020016000209050611c243382600001548460000160009054906101000a900473ffffffffffffffffffffffffffffffffffffffff1673ffffffffffffffffffffffffffffffffffffffff166132d19092919063ffffffff16565b823373ffffffffffffffffffffffffffffffffffffffff167fbb757047c2b5f3974fe26b7c10f732e7bce710b0952a71082702781e62ae059583600001546040518082815260200191505060405180910390a3600081600001819055506000816001018190555050506001808190555050565b60065481565b67016345785d8a000081565b6000600980549050905060005b81811015611cd257611cc781611772565b806001019050611cb6565b5050565b611cde6130a2565b73ffffffffffffffffffffffffffffffffffffffff1660008054906101000a900473ffffffffffffffffffffffffffffffffffffffff1673ffffffffffffffffffffffffffffffffffffffff1614611d9e576040517f08c379a00000000000000000000000000000000000000000000000000000000081526004018080602001828103825260208152602001807f4f776e61626c653a2063616c6c6572206973206e6f7420746865206f776e657281525060200191505060405180910390fd5b6107d061ffff16811115611dfd576040517f08c379a000000000000000000000000000000000000000000000000000000000815260040180806020018281038252603a8152602001806142a9603a913960400191505060405180910390fd5b600c54811415611e58576040517f08c379a00000000000000000000000000000000000000000000000000000000081526004018080602001828103825260288152602001806143bc6028913960400191505060405180910390fd5b6000600c54905081600c819055507f3282b692bfebf5f35b198a229212cf532c72099026ab54c4b8665382d1086b3f8183604051808381526020018281526020019250505060405180910390a15050565b60045481565b600c5481565b60115481565b611ec36130a2565b73ffffffffffffffffffffffffffffffffffffffff1660008054906101000a900473ffffffffffffffffffffffffffffffffffffffff1673ffffffffffffffffffffffffffffffffffffffff1614611f83576040517f08c379a00000000000000000000000000000000000000000000000000000000081526004018080602001828103825260208152602001807f4f776e61626c653a2063616c6c6572206973206e6f7420746865206f776e657281525060200191505060405180910390fd5b600073ffffffffffffffffffffffffffffffffffffffff1660008054906101000a900473ffffffffffffffffffffffffffffffffffffffff1673ffffffffffffffffffffffffffffffffffffffff167f8be0079c531659141344cd1fd0a4f28419497f9722a3daafe3b4186f6b6457e060405160405180910390a360008060006101000a81548173ffffffffffffffffffffffffffffffffffffffff021916908373ffffffffffffffffffffffffffffffffffffffff160217905550565b600073ffffffffffffffffffffffffffffffffffffffff168173ffffffffffffffffffffffffffffffffffffffff1614156120e4576040517f08c379a000000000000000000000000000000000000000000000000000000000815260040180806020018281038252601e8152602001807f736574466565416464726573733a20696e76616c69642061646472657373000081525060200191505060405180910390fd5b600560009054906101000a900473ffffffffffffffffffffffffffffffffffffffff1673ffffffffffffffffffffffffffffffffffffffff163373ffffffffffffffffffffffffffffffffffffffff16146121a7576040517f08c379a00000000000000000000000000000000000000000000000000000000081526004018080602001828103825260188152602001807f736574466565416464726573733a20464f5242494444454e000000000000000081525060200191505060405180910390fd5b80600560006101000a81548173ffffffffffffffffffffffffffffffffffffffff021916908373ffffffffffffffffffffffffffffffffffffffff1602179055508073ffffffffffffffffffffffffffffffffffffffff163373ffffffffffffffffffffffffffffffffffffffff167fd44190acf9d04bdb5d3a1aafff7e6dee8b40b93dfb8c5d3f0eea4b9f4539c3f760405160405180910390a350565b60008060009054906101000a900473ffffffffffffffffffffffffffffffffffffffff16905090565b600061228383836130aa90919063ffffffff16565b905092915050565b60026001541415612304576040517f08c379a000000000000000000000000000000000000000000000000000000000815260040180806020018281038252601f8152602001807f5265656e7472616e637947756172643a207265656e7472616e742063616c6c0081525060200191505060405180910390fd5b60026001819055508073ffffffffffffffffffffffffffffffffffffffff168173ffffffffffffffffffffffffffffffffffffffff1614612390576040517f08c379a00000000000000000000000000000000000000000000000000000000081526004018080602001828103825260218152602001806143556021913960400191505060405180910390fd5b60006009848154811061239f57fe5b9060005260206000209060070201905060008160030154111561241a578060030154431115612419576040517f08c379a00000000000000000000000000000000000000000000000000000000081526004018080602001828103825260218152602001806144a96021913960400191505060405180910390fd5b5b6000600a600086815260200190815260200160002060003373ffffffffffffffffffffffffffffffffffffffff1673ffffffffffffffffffffffffffffffffffffffff168152602001908152602001600020905061247785611772565b6124808561317c565b6000841180156124bd5750600073ffffffffffffffffffffffffffffffffffffffff168373ffffffffffffffffffffffffffffffffffffffff1614155b80156124f557503373ffffffffffffffffffffffffffffffffffffffff168373ffffffffffffffffffffffffffffffffffffffff1614155b15612505576125043384613499565b5b60008411156126885761255f3330868560000160009054906101000a900473ffffffffffffffffffffffffffffffffffffffff1673ffffffffffffffffffffffffffffffffffffffff16613700909392919063ffffffff16565b60008260060160009054906101000a900461ffff1661ffff1611156126675760006125bd6127106125af8560060160009054906101000a900461ffff1661ffff168861337390919063ffffffff16565b6133f990919063ffffffff16565b90506125e8816125da8785600001546130f490919063ffffffff16565b6130aa90919063ffffffff16565b8260000181905550612661600560009054906101000a900473ffffffffffffffffffffffffffffffffffffffff16828560000160009054906101000a900473ffffffffffffffffffffffffffffffffffffffff1673ffffffffffffffffffffffffffffffffffffffff166132d19092919063ffffffff16565b50612687565b61267e8482600001546130f490919063ffffffff16565b81600001819055505b5b6126ba64e8d4a510006126ac8460050154846000015461337390919063ffffffff16565b6133f990919063ffffffff16565b8160010181905550843373ffffffffffffffffffffffffffffffffffffffff167f90890809c654f11d6e72a28fa60149770a0d11ec6c92319d6ceb2bb0a4ea1a15866040518082815260200191505060405180910390a3505060018081905550505050565b6706f05b59d3b2000081565b600a602052816000526040600020602052806000526040600020600091509150508060000154908060010154908060020154905083565b61019081565b60106020528060005260406000206000915090505481565b60075481565b61278e6130a2565b73ffffffffffffffffffffffffffffffffffffffff1660008054906101000a900473ffffffffffffffffffffffffffffffffffffffff1673ffffffffffffffffffffffffffffffffffffffff161461284e576040517f08c379a00000000000000000000000000000000000000000000000000000000081526004018080602001828103825260208152602001807f4f776e61626c653a2063616c6c6572206973206e6f7420746865206f776e657281525060200191505060405180910390fd5b6000600454905081600481905550612864611ca9565b3373ffffffffffffffffffffffffffffffffffffffff167feedc6338c9c1ad8f3cd6c90dd09dbe98dbd57e610d3e59a17996d07acb0d95118284604051808381526020018281526020019250505060405180910390a25050565b600260009054906101000a900473ffffffffffffffffffffffffffffffffffffffff1681565b6105dc81565b600080600983815481106128fa57fe5b906000526020600020906007020190504381600201541115915050919050565b600f6020528060005260406000206000915054906101000a900460ff1681565b600073ffffffffffffffffffffffffffffffffffffffff168173ffffffffffffffffffffffffffffffffffffffff1614156129dd576040517f08c379a00000000000000000000000000000000000000000000000000000000081526004018080602001828103825260148152602001807f6465763a20696e76616c6964206164647265737300000000000000000000000081525060200191505060405180910390fd5b600360009054906101000a900473ffffffffffffffffffffffffffffffffffffffff1673ffffffffffffffffffffffffffffffffffffffff163373ffffffffffffffffffffffffffffffffffffffff1614612aa0576040517f08c379a00000000000000000000000000000000000000000000000000000000081526004018080602001828103825260098152602001807f6465763a207775743f000000000000000000000000000000000000000000000081525060200191505060405180910390fd5b80600360006101000a81548173ffffffffffffffffffffffffffffffffffffffff021916908373ffffffffffffffffffffffffffffffffffffffff1602179055508073ffffffffffffffffffffffffffffffffffffffff163373ffffffffffffffffffffffffffffffffffffffff167f618c54559e94f1499a808aad71ee8729f8e74e8c48e979616328ce493a1a52e760405160405180910390a350565b61708081565b600360009054906101000a900473ffffffffffffffffffffffffffffffffffffffff1681565b60008060098481548110612b7a57fe5b906000526020600020906007020190506000600a600086815260200190815260200160002060008573ffffffffffffffffffffffffffffffffffffffff1673ffffffffffffffffffffffffffffffffffffffff168152602001908152602001600020905060008260050154905060008360000160009054906101000a900473ffffffffffffffffffffffffffffffffffffffff1673ffffffffffffffffffffffffffffffffffffffff166370a08231306040518263ffffffff1660e01b8152600401808273ffffffffffffffffffffffffffffffffffffffff16815260200191505060206040518083038186803b158015612c7457600080fd5b505afa158015612c88573d6000803e3d6000fd5b505050506040513d6020811015612c9e57600080fd5b810190808051906020019092919050505090506000612cbc88613443565b9050846004015481118015612cd2575060008214155b15612d6d576000612ce786600401548361226e565b90506000612d2a600b54612d1c8960010154612d0e6004548761337390919063ffffffff16565b61337390919063ffffffff16565b6133f990919063ffffffff16565b9050612d68612d5985612d4b64e8d4a510008561337390919063ffffffff16565b6133f990919063ffffffff16565b866130f490919063ffffffff16565b945050505b6000612db38560010154612da564e8d4a51000612d97888a6000015461337390919063ffffffff16565b6133f990919063ffffffff16565b6130aa90919063ffffffff16565b9050612dcc8560020154826130f490919063ffffffff16565b965050505050505092915050565b6006544311612e34576040517f08c379a00000000000000000000000000000000000000000000000000000000081526004018080602001828103825260528152602001806143e46052913960600191505060405180910390fd5b67016345785d8a000060045411612e96576040517f08c379a00000000000000000000000000000000000000000000000000000000081526004018080602001828103825260528152602001806144576052913960600191505060405180910390fd5b6000612ec1617080612eb3600654436130aa90919063ffffffff16565b6133f990919063ffffffff16565b90506011548111612ed25750612fcc565b60006004549050600060115490505b82811015612f2357612f16612710612f086105dc612710038561337390919063ffffffff16565b6133f990919063ffffffff16565b9150806001019050612ee1565b5067016345785d8a00008110612f395780612f43565b67016345785d8a00005b90506004548110612f55575050612fcc565b612f5d611ca9565b8160118190555060006004549050816004819055503373ffffffffffffffffffffffffffffffffffffffff167feedc6338c9c1ad8f3cd6c90dd09dbe98dbd57e610d3e59a17996d07acb0d95118284604051808381526020018281526020019250505060405180910390a25050505b565b612fd66130a2565b73ffffffffffffffffffffffffffffffffffffffff1660008054906101000a900473ffffffffffffffffffffffffffffffffffffffff1673ffffffffffffffffffffffffffffffffffffffff1614613096576040517f08c379a00000000000000000000000000000000000000000000000000000000081526004018080602001828103825260208152602001807f4f776e61626c653a2063616c6c6572206973206e6f7420746865206f776e657281525060200191505060405180910390fd5b61309f816137c1565b50565b600033905090565b60006130ec83836040518060400160405280601e81526020017f536166654d6174683a207375627472616374696f6e206f766572666c6f770000815250613904565b905092915050565b600080828401905083811015613172576040517f08c379a000000000000000000000000000000000000000000000000000000000815260040180806020018281038252601b8152602001807f536166654d6174683a206164646974696f6e206f766572666c6f77000000000081525060200191505060405180910390fd5b8091505092915050565b60006009828154811061318b57fe5b906000526020600020906007020190506000600a600084815260200190815260200160002060003373ffffffffffffffffffffffffffffffffffffffff1673ffffffffffffffffffffffffffffffffffffffff16815260200190815260200160002090506000613239826001015461322b64e8d4a5100061321d8760050154876000015461337390919063ffffffff16565b6133f990919063ffffffff16565b6130aa90919063ffffffff16565b9050613244846128ea565b156132a157600081118061325c575060008260020154115b1561329c57600061327a8360020154836130f490919063ffffffff16565b90506000836002018190555061329033826139c4565b61329a3382613c98565b505b6132cb565b60008111156132ca576132c18183600201546130f490919063ffffffff16565b82600201819055505b5b50505050565b61336e8363a9059cbb60e01b8484604051602401808373ffffffffffffffffffffffffffffffffffffffff16815260200182815260200192505050604051602081830303815290604052907bffffffffffffffffffffffffffffffffffffffffffffffffffffffff19166020820180517bffffffffffffffffffffffffffffffffffffffffffffffffffffffff8381831617835250505050613e65565b505050565b60008083141561338657600090506133f3565b600082840290508284828161339757fe5b04146133ee576040517f08c379a00000000000000000000000000000000000000000000000000000000081526004018080602001828103825260218152602001806143766021913960400191505060405180910390fd5b809150505b92915050565b600061343b83836040518060400160405280601a81526020017f536166654d6174683a206469766973696f6e206279207a65726f000000000000815250613f54565b905092915050565b6000806009838154811061345357fe5b906000526020600020906007020190506000816003015414156134795743915050613494565b8060030154431161348a5743613490565b80600301545b9150505b919050565b8073ffffffffffffffffffffffffffffffffffffffff168173ffffffffffffffffffffffffffffffffffffffff1614801561355f5750600073ffffffffffffffffffffffffffffffffffffffff16600d60008473ffffffffffffffffffffffffffffffffffffffff1673ffffffffffffffffffffffffffffffffffffffff16815260200190815260200160002060009054906101000a900473ffffffffffffffffffffffffffffffffffffffff1673ffffffffffffffffffffffffffffffffffffffff16145b80156135985750600073ffffffffffffffffffffffffffffffffffffffff168173ffffffffffffffffffffffffffffffffffffffff1614155b80156135d057508173ffffffffffffffffffffffffffffffffffffffff168173ffffffffffffffffffffffffffffffffffffffff1614155b156136fc5780600d60008473ffffffffffffffffffffffffffffffffffffffff1673ffffffffffffffffffffffffffffffffffffffff16815260200190815260200160002060006101000a81548173ffffffffffffffffffffffffffffffffffffffff021916908373ffffffffffffffffffffffffffffffffffffffff1602179055506001600e60008373ffffffffffffffffffffffffffffffffffffffff1673ffffffffffffffffffffffffffffffffffffffff168152602001908152602001600020600082825401925050819055508073ffffffffffffffffffffffffffffffffffffffff168273ffffffffffffffffffffffffffffffffffffffff167f9d05414fb79fac216c15606de5cc06664e91a254e4d5f57664d5f1beaf7fb7ef60405160405180910390a35b5050565b6137bb846323b872dd60e01b858585604051602401808473ffffffffffffffffffffffffffffffffffffffff1681526020018373ffffffffffffffffffffffffffffffffffffffff1681526020018281526020019350505050604051602081830303815290604052907bffffffffffffffffffffffffffffffffffffffffffffffffffffffff19166020820180517bffffffffffffffffffffffffffffffffffffffffffffffffffffffff8381831617835250505050613e65565b50505050565b600073ffffffffffffffffffffffffffffffffffffffff168173ffffffffffffffffffffffffffffffffffffffff161415613847576040517f08c379a000000000000000000000000000000000000000000000000000000000815260040180806020018281038252602681526020018061430d6026913960400191505060405180910390fd5b8073ffffffffffffffffffffffffffffffffffffffff1660008054906101000a900473ffffffffffffffffffffffffffffffffffffffff1673ffffffffffffffffffffffffffffffffffffffff167f8be0079c531659141344cd1fd0a4f28419497f9722a3daafe3b4186f6b6457e060405160405180910390a3806000806101000a81548173ffffffffffffffffffffffffffffffffffffffff021916908373ffffffffffffffffffffffffffffffffffffffff16021790555050565b60008383111582906139b1576040517f08c379a00000000000000000000000000000000000000000000000000000000081526004018080602001828103825283818151815260200191508051906020019080838360005b8381101561397657808201518184015260208101905061395b565b50505050905090810190601f1680156139a35780820380516001836020036101000a031916815260200191505b509250505060405180910390fd5b5060008385039050809150509392505050565b6000600260009054906101000a900473ffffffffffffffffffffffffffffffffffffffff1673ffffffffffffffffffffffffffffffffffffffff166370a08231306040518263ffffffff1660e01b8152600401808273ffffffffffffffffffffffffffffffffffffffff16815260200191505060206040518083038186803b158015613a4f57600080fd5b505afa158015613a63573d6000803e3d6000fd5b505050506040513d6020811015613a7957600080fd5b81019080805190602001909291905050509050600081831115613b6b57600260009054906101000a900473ffffffffffffffffffffffffffffffffffffffff1673ffffffffffffffffffffffffffffffffffffffff1663a9059cbb85846040518363ffffffff1660e01b8152600401808373ffffffffffffffffffffffffffffffffffffffff16815260200182815260200192505050602060405180830381600087803b158015613b2957600080fd5b505af1158015613b3d573d6000803e3d6000fd5b505050506040513d6020811015613b5357600080fd5b81019080805190602001909291905050509050613c3c565b600260009054906101000a900473ffffffffffffffffffffffffffffffffffffffff1673ffffffffffffffffffffffffffffffffffffffff1663a9059cbb85856040518363ffffffff1660e01b8152600401808373ffffffffffffffffffffffffffffffffffffffff16815260200182815260200192505050602060405180830381600087803b158015613bfe57600080fd5b505af1158015613c12573d6000803e3d6000fd5b505050506040513d6020811015613c2857600080fd5b810190808051906020019092919050505090505b80613c92576040517f08c379a00000000000000000000000000000000000000000000000000000000081526004018080602001828103825260228152602001806143336022913960400191505060405180910390fd5b50505050565b6000613ca38361140a565b9050600073ffffffffffffffffffffffffffffffffffffffff168173ffffffffffffffffffffffffffffffffffffffff1614158015613d0e57508273ffffffffffffffffffffffffffffffffffffffff168173ffffffffffffffffffffffffffffffffffffffff1614155b8015613d1c57506000600c54115b15613e60576000613d4c612710613d3e600c548661337390919063ffffffff16565b6133f990919063ffffffff16565b9050600260009054906101000a900473ffffffffffffffffffffffffffffffffffffffff1673ffffffffffffffffffffffffffffffffffffffff166340c10f1983836040518363ffffffff1660e01b8152600401808373ffffffffffffffffffffffffffffffffffffffff16815260200182815260200192505050600060405180830381600087803b158015613de157600080fd5b505af1158015613df5573d6000803e3d6000fd5b505050508173ffffffffffffffffffffffffffffffffffffffff168473ffffffffffffffffffffffffffffffffffffffff167f0a721ab4682ceb61c7e4d264ef879fc419a6d764b136e7d96ef54b2053c75673836040518082815260200191505060405180910390a3505b505050565b6060613ec7826040518060400160405280602081526020017f5361666542455032303a206c6f772d6c6576656c2063616c6c206661696c65648152508573ffffffffffffffffffffffffffffffffffffffff1661401a9092919063ffffffff16565b9050600081511115613f4f57808060200190516020811015613ee857600080fd5b8101908080519060200190929190505050613f4e576040517f08c379a000000000000000000000000000000000000000000000000000000000815260040180806020018281038252602a8152602001806142e3602a913960400191505060405180910390fd5b5b505050565b60008083118290614000576040517f08c379a00000000000000000000000000000000000000000000000000000000081526004018080602001828103825283818151815260200191508051906020019080838360005b83811015613fc5578082015181840152602081019050613faa565b50505050905090810190601f168015613ff25780820380516001836020036101000a031916815260200191505b509250505060405180910390fd5b50600083858161400c57fe5b049050809150509392505050565b60606140298484600085614032565b90509392505050565b606061403d85614238565b6140af576040517f08c379a000000000000000000000000000000000000000000000000000000000815260040180806020018281038252601d8152602001807f416464726573733a2063616c6c20746f206e6f6e2d636f6e747261637400000081525060200191505060405180910390fd5b600060608673ffffffffffffffffffffffffffffffffffffffff1685876040518082805190602001908083835b602083106140ff57805182526020820191506020810190506020830392506140dc565b6001836020036101000a03801982511681845116808217855250505050505090500191505060006040518083038185875af1925050503d8060008114614161576040519150601f19603f3d011682016040523d82523d6000602084013e614166565b606091505b5091509150811561417b578092505050614230565b60008151111561418e5780518082602001fd5b836040517f08c379a00000000000000000000000000000000000000000000000000000000081526004018080602001828103825283818151815260200191508051906020019080838360005b838110156141f55780820151818401526020810190506141da565b50505050905090810190601f1680156142225780820380516001836020036101000a031916815260200191505b509250505060405180910390fd5b949350505050565b60008060007fc5d2460186f7233c927e7db2dcc703c0e500b653ca82273b7bfad8045d85a47060001b9050833f915080821415801561427a57506000801b8214155b9250505091905056fe6164643a20696e76616c6964206465706f7369742066656520626173697320706f696e7473757064617465526566426f6e757350657263656e743a20696e76616c696420726566657272616c20626f6e757320626173697320706f696e74735361666542455032303a204245503230206f7065726174696f6e20646964206e6f7420737563636565644f776e61626c653a206e6577206f776e657220697320746865207a65726f206164647265737373616665506c756d5472616e736665723a207472616e73666572206661696c65642e6465706f7369743a20496e76616c69642072656665727265722061646472657373536166654d6174683a206d756c7469706c69636174696f6e206f766572666c6f777365743a20696e76616c6964206465706f7369742066656520626173697320706f696e7473757064617465526566426f6e757350657263656e743a2073616d6520626f6e757320627020736574726564756365456d697373696f6e526174655769746844656661756c74526174653a2043616e206f6e6c792062652063616c6c65642061667465722073706563696669656420626c6f636b20737461727473676574506f6f6c4964466f724c70546f6b656e3a20646f206e6f74206578697374726564756365456d697373696f6e526174655769746844656661756c74526174653a20456d697373696f6e207261746520686173207265616368656420746865206d696e696d756d207468726573686f6c646465706f7369743a207374616b696e6720706572696f642068617320656e646564a2646970667358221220a40a0bf8ee4e9504282d79dae6bfd462cf3e27182a8ba3a3a0424066ba7d7b3b64736f6c634300060c0033","opcodes":"PUSH1 0x80 PUSH1 0x40 MSTORE PUSH1 0x0 PUSH1 0xB SSTORE PUSH1 0xC8 PUSH1 0xC SSTORE PUSH1 0x0 PUSH1 0x11 SSTORE CALLVALUE DUP1 ISZERO PUSH3 0x20 JUMPI PUSH1 0x0 DUP1 REVERT JUMPDEST POP PUSH1 0x40 MLOAD PUSH3 0x474A CODESIZE SUB DUP1 PUSH3 0x474A DUP4 CODECOPY DUP2 DUP2 ADD PUSH1 0x40 MSTORE PUSH1 0xC0 DUP2 LT ISZERO PUSH3 0x46 JUMPI PUSH1 0x0 DUP1 REVERT JUMPDEST DUP2 ADD SWAP1 DUP1 DUP1 MLOAD SWAP1 PUSH1 0x20 ADD SWAP1 SWAP3 SWAP2 SWAP1 DUP1 MLOAD SWAP1 PUSH1 0x20 ADD SWAP1 SWAP3 SWAP2 SWAP1 DUP1 MLOAD SWAP1 PUSH1 0x20 ADD SWAP1 SWAP3 SWAP2 SWAP1 DUP1 MLOAD SWAP1 PUSH1 0x20 ADD SWAP1 SWAP3 SWAP2 SWAP1 DUP1 MLOAD SWAP1 PUSH1 0x20 ADD SWAP1 SWAP3 SWAP2 SWAP1 DUP1 MLOAD SWAP1 PUSH1 0x20 ADD SWAP1 SWAP3 SWAP2 SWAP1 POP POP POP PUSH1 0x0 PUSH3 0x9B PUSH3 0x233 PUSH1 0x20 SHL PUSH1 0x20 SHR JUMP JUMPDEST SWAP1 POP DUP1 PUSH1 0x0 DUP1 PUSH2 0x100 EXP DUP2 SLOAD DUP2 PUSH20 0xFFFFFFFFFFFFFFFFFFFFFFFFFFFFFFFFFFFFFFFF MUL NOT AND SWAP1 DUP4 PUSH20 0xFFFFFFFFFFFFFFFFFFFFFFFFFFFFFFFFFFFFFFFF AND MUL OR SWAP1 SSTORE POP DUP1 PUSH20 0xFFFFFFFFFFFFFFFFFFFFFFFFFFFFFFFFFFFFFFFF AND PUSH1 0x0 PUSH20 0xFFFFFFFFFFFFFFFFFFFFFFFFFFFFFFFFFFFFFFFF AND PUSH32 0x8BE0079C531659141344CD1FD0A4F28419497F9722A3DAAFE3B4186F6B6457E0 PUSH1 0x40 MLOAD PUSH1 0x40 MLOAD DUP1 SWAP2 SUB SWAP1 LOG3 POP PUSH1 0x1 DUP1 DUP2 SWAP1 SSTORE POP DUP6 PUSH1 0x2 PUSH1 0x0 PUSH2 0x100 EXP DUP2 SLOAD DUP2 PUSH20 0xFFFFFFFFFFFFFFFFFFFFFFFFFFFFFFFFFFFFFFFF MUL NOT AND SWAP1 DUP4 PUSH20 0xFFFFFFFFFFFFFFFFFFFFFFFFFFFFFFFFFFFFFFFF AND MUL OR SWAP1 SSTORE POP DUP5 PUSH1 0x3 PUSH1 0x0 PUSH2 0x100 EXP DUP2 SLOAD DUP2 PUSH20 0xFFFFFFFFFFFFFFFFFFFFFFFFFFFFFFFFFFFFFFFF MUL NOT AND SWAP1 DUP4 PUSH20 0xFFFFFFFFFFFFFFFFFFFFFFFFFFFFFFFFFFFFFFFF AND MUL OR SWAP1 SSTORE POP DUP4 PUSH1 0x5 PUSH1 0x0 PUSH2 0x100 EXP DUP2 SLOAD DUP2 PUSH20 0xFFFFFFFFFFFFFFFFFFFFFFFFFFFFFFFFFFFFFFFF MUL NOT AND SWAP1 DUP4 PUSH20 0xFFFFFFFFFFFFFFFFFFFFFFFFFFFFFFFFFFFFFFFF AND MUL OR SWAP1 SSTORE POP PUSH8 0x6F05B59D3B20000 PUSH1 0x4 DUP2 SWAP1 SSTORE POP DUP3 PUSH1 0x8 DUP2 SWAP1 SSTORE POP DUP2 PUSH1 0x6 DUP2 SWAP1 SSTORE POP DUP1 PUSH1 0x7 DUP2 SWAP1 SSTORE POP POP POP POP POP POP POP PUSH3 0x23B JUMP JUMPDEST PUSH1 0x0 CALLER SWAP1 POP SWAP1 JUMP JUMPDEST PUSH2 0x44FF DUP1 PUSH3 0x24B PUSH1 0x0 CODECOPY PUSH1 0x0 RETURN INVALID PUSH1 0x80 PUSH1 0x40 MSTORE CALLVALUE DUP1 ISZERO PUSH2 0x10 JUMPI PUSH1 0x0 DUP1 REVERT JUMPDEST POP PUSH1 0x4 CALLDATASIZE LT PUSH2 0x25E JUMPI PUSH1 0x0 CALLDATALOAD PUSH1 0xE0 SHR DUP1 PUSH4 0x715018A6 GT PUSH2 0x146 JUMPI DUP1 PUSH4 0xA1BDB15E GT PUSH2 0xC3 JUMPI DUP1 PUSH4 0xD0D41FE1 GT PUSH2 0x87 JUMPI DUP1 PUSH4 0xD0D41FE1 EQ PUSH2 0xABF JUMPI DUP1 PUSH4 0xD4ADAFDF EQ PUSH2 0xB03 JUMPI DUP1 PUSH4 0xDA09C72C EQ PUSH2 0xB21 JUMPI DUP1 PUSH4 0xDFE3D2CD EQ PUSH2 0xB55 JUMPI DUP1 PUSH4 0xEA76BC29 EQ PUSH2 0xBB7 JUMPI DUP1 PUSH4 0xF2FDE38B EQ PUSH2 0xBC1 JUMPI PUSH2 0x25E JUMP JUMPDEST DUP1 PUSH4 0xA1BDB15E EQ PUSH2 0x9A1 JUMPI DUP1 PUSH4 0xAE715D70 EQ PUSH2 0x9CF JUMPI DUP1 PUSH4 0xB7EEE1F1 EQ PUSH2 0xA03 JUMPI DUP1 PUSH4 0xCA291B13 EQ PUSH2 0xA21 JUMPI DUP1 PUSH4 0xCBD258B5 EQ PUSH2 0xA65 JUMPI PUSH2 0x25E JUMP JUMPDEST DUP1 PUSH4 0x91BB809C GT PUSH2 0x10A JUMPI DUP1 PUSH4 0x91BB809C EQ PUSH2 0x87B JUMPI DUP1 PUSH4 0x93F1A40B EQ PUSH2 0x899 JUMPI DUP1 PUSH4 0x955C9B93 EQ PUSH2 0x909 JUMPI DUP1 PUSH4 0x9BF62F7E EQ PUSH2 0x92B JUMPI DUP1 PUSH4 0xA1515333 EQ PUSH2 0x983 JUMPI PUSH2 0x25E JUMP JUMPDEST DUP1 PUSH4 0x715018A6 EQ PUSH2 0x755 JUMPI DUP1 PUSH4 0x8705FCD4 EQ PUSH2 0x75F JUMPI DUP1 PUSH4 0x8DA5CB5B EQ PUSH2 0x7A3 JUMPI DUP1 PUSH4 0x8DBB1E3A EQ PUSH2 0x7D7 JUMPI DUP1 PUSH4 0x8DBDBE6D EQ PUSH2 0x823 JUMPI PUSH2 0x25E JUMP JUMPDEST DUP1 PUSH4 0x441A3E70 GT PUSH2 0x1DF JUMPI DUP1 PUSH4 0x61E0C468 GT PUSH2 0x1A3 JUMPI DUP1 PUSH4 0x61E0C468 EQ PUSH2 0x6A5 JUMPI DUP1 PUSH4 0x630B5BA1 EQ PUSH2 0x6C3 JUMPI DUP1 PUSH4 0x64ED743B EQ PUSH2 0x6CD JUMPI DUP1 PUSH4 0x660F8340 EQ PUSH2 0x6FB JUMPI DUP1 PUSH4 0x66F685EA EQ PUSH2 0x719 JUMPI DUP1 PUSH4 0x6A9A7660 EQ PUSH2 0x737 JUMPI PUSH2 0x25E JUMP JUMPDEST DUP1 PUSH4 0x441A3E70 EQ PUSH2 0x585 JUMPI DUP1 PUSH4 0x4A3B68CC EQ PUSH2 0x5BD JUMPI DUP1 PUSH4 0x51EB05A6 EQ PUSH2 0x62B JUMPI DUP1 PUSH4 0x5312EA8E EQ PUSH2 0x659 JUMPI DUP1 PUSH4 0x54324B58 EQ PUSH2 0x687 JUMPI PUSH2 0x25E JUMP JUMPDEST DUP1 PUSH4 0x190F39F0 GT PUSH2 0x226 JUMPI DUP1 PUSH4 0x190F39F0 EQ PUSH2 0x411 JUMPI DUP1 PUSH4 0x3A22DF78 EQ PUSH2 0x469 JUMPI DUP1 PUSH4 0x3B0F0F2F EQ PUSH2 0x48B JUMPI DUP1 PUSH4 0x3F7B06D8 EQ PUSH2 0x4F9 JUMPI DUP1 PUSH4 0x41275358 EQ PUSH2 0x551 JUMPI PUSH2 0x25E JUMP JUMPDEST DUP1 PUSH4 0x326F66D EQ PUSH2 0x263 JUMPI DUP1 PUSH4 0x81E3EDA EQ PUSH2 0x2C9 JUMPI DUP1 PUSH4 0xB844523 EQ PUSH2 0x2E7 JUMPI DUP1 PUSH4 0x1526FE27 EQ PUSH2 0x36D JUMPI DUP1 PUSH4 0x17CAF6F1 EQ PUSH2 0x3F3 JUMPI JUMPDEST PUSH1 0x0 DUP1 REVERT JUMPDEST PUSH2 0x2C7 PUSH1 0x4 DUP1 CALLDATASIZE SUB PUSH1 0xC0 DUP2 LT ISZERO PUSH2 0x279 JUMPI PUSH1 0x0 DUP1 REVERT JUMPDEST DUP2 ADD SWAP1 DUP1 DUP1 CALLDATALOAD SWAP1 PUSH1 0x20 ADD SWAP1 SWAP3 SWAP2 SWAP1 DUP1 CALLDATALOAD SWAP1 PUSH1 0x20 ADD SWAP1 SWAP3 SWAP2 SWAP1 DUP1 CALLDATALOAD PUSH2 0xFFFF AND SWAP1 PUSH1 0x20 ADD SWAP1 SWAP3 SWAP2 SWAP1 DUP1 CALLDATALOAD ISZERO ISZERO SWAP1 PUSH1 0x20 ADD SWAP1 SWAP3 SWAP2 SWAP1 DUP1 CALLDATALOAD SWAP1 PUSH1 0x20 ADD SWAP1 SWAP3 SWAP2 SWAP1 DUP1 CALLDATALOAD SWAP1 PUSH1 0x20 ADD SWAP1 SWAP3 SWAP2 SWAP1 POP POP POP PUSH2 0xC05 JUMP JUMPDEST STOP JUMPDEST PUSH2 0x2D1 PUSH2 0xE5A JUMP JUMPDEST PUSH1 0x40 MLOAD DUP1 DUP3 DUP2 MSTORE PUSH1 0x20 ADD SWAP2 POP POP PUSH1 0x40 MLOAD DUP1 SWAP2 SUB SWAP1 RETURN JUMPDEST PUSH2 0x36B PUSH1 0x4 DUP1 CALLDATASIZE SUB PUSH1 0xE0 DUP2 LT ISZERO PUSH2 0x2FD JUMPI PUSH1 0x0 DUP1 REVERT JUMPDEST DUP2 ADD SWAP1 DUP1 DUP1 CALLDATALOAD SWAP1 PUSH1 0x20 ADD SWAP1 SWAP3 SWAP2 SWAP1 DUP1 CALLDATALOAD PUSH20 0xFFFFFFFFFFFFFFFFFFFFFFFFFFFFFFFFFFFFFFFF AND SWAP1 PUSH1 0x20 ADD SWAP1 SWAP3 SWAP2 SWAP1 DUP1 CALLDATALOAD PUSH2 0xFFFF AND SWAP1 PUSH1 0x20 ADD SWAP1 SWAP3 SWAP2 SWAP1 DUP1 CALLDATALOAD ISZERO ISZERO SWAP1 PUSH1 0x20 ADD SWAP1 SWAP3 SWAP2 SWAP1 DUP1 CALLDATALOAD SWAP1 PUSH1 0x20 ADD SWAP1 SWAP3 SWAP2 SWAP1 DUP1 CALLDATALOAD SWAP1 PUSH1 0x20 ADD SWAP1 SWAP3 SWAP2 SWAP1 DUP1 CALLDATALOAD SWAP1 PUSH1 0x20 ADD SWAP1 SWAP3 SWAP2 SWAP1 POP POP POP PUSH2 0xE67 JUMP JUMPDEST STOP JUMPDEST PUSH2 0x399 PUSH1 0x4 DUP1 CALLDATASIZE SUB PUSH1 0x20 DUP2 LT ISZERO PUSH2 0x383 JUMPI PUSH1 0x0 DUP1 REVERT JUMPDEST DUP2 ADD SWAP1 DUP1 DUP1 CALLDATALOAD SWAP1 PUSH1 0x20 ADD SWAP1 SWAP3 SWAP2 SWAP1 POP POP POP PUSH2 0x128F JUMP JUMPDEST PUSH1 0x40 MLOAD DUP1 DUP9 PUSH20 0xFFFFFFFFFFFFFFFFFFFFFFFFFFFFFFFFFFFFFFFF AND DUP2 MSTORE PUSH1 0x20 ADD DUP8 DUP2 MSTORE PUSH1 0x20 ADD DUP7 DUP2 MSTORE PUSH1 0x20 ADD DUP6 DUP2 MSTORE PUSH1 0x20 ADD DUP5 DUP2 MSTORE PUSH1 0x20 ADD DUP4 DUP2 MSTORE PUSH1 0x20 ADD DUP3 PUSH2 0xFFFF AND DUP2 MSTORE PUSH1 0x20 ADD SWAP8 POP POP POP POP POP POP POP POP PUSH1 0x40 MLOAD DUP1 SWAP2 SUB SWAP1 RETURN JUMPDEST PUSH2 0x3FB PUSH2 0x130C JUMP JUMPDEST PUSH1 0x40 MLOAD DUP1 DUP3 DUP2 MSTORE PUSH1 0x20 ADD SWAP2 POP POP PUSH1 0x40 MLOAD DUP1 SWAP2 SUB SWAP1 RETURN JUMPDEST PUSH2 0x453 PUSH1 0x4 DUP1 CALLDATASIZE SUB PUSH1 0x20 DUP2 LT ISZERO PUSH2 0x427 JUMPI PUSH1 0x0 DUP1 REVERT JUMPDEST DUP2 ADD SWAP1 DUP1 DUP1 CALLDATALOAD PUSH20 0xFFFFFFFFFFFFFFFFFFFFFFFFFFFFFFFFFFFFFFFF AND SWAP1 PUSH1 0x20 ADD SWAP1 SWAP3 SWAP2 SWAP1 POP POP POP PUSH2 0x1312 JUMP JUMPDEST PUSH1 0x40 MLOAD DUP1 DUP3 DUP2 MSTORE PUSH1 0x20 ADD SWAP2 POP POP PUSH1 0x40 MLOAD DUP1 SWAP2 SUB SWAP1 RETURN JUMPDEST PUSH2 0x471 PUSH2 0x1404 JUMP JUMPDEST PUSH1 0x40 MLOAD DUP1 DUP3 PUSH2 0xFFFF AND DUP2 MSTORE PUSH1 0x20 ADD SWAP2 POP POP PUSH1 0x40 MLOAD DUP1 SWAP2 SUB SWAP1 RETURN JUMPDEST PUSH2 0x4CD PUSH1 0x4 DUP1 CALLDATASIZE SUB PUSH1 0x20 DUP2 LT ISZERO PUSH2 0x4A1 JUMPI PUSH1 0x0 DUP1 REVERT JUMPDEST DUP2 ADD SWAP1 DUP1 DUP1 CALLDATALOAD PUSH20 0xFFFFFFFFFFFFFFFFFFFFFFFFFFFFFFFFFFFFFFFF AND SWAP1 PUSH1 0x20 ADD SWAP1 SWAP3 SWAP2 SWAP1 POP POP POP PUSH2 0x140A JUMP JUMPDEST PUSH1 0x40 MLOAD DUP1 DUP3 PUSH20 0xFFFFFFFFFFFFFFFFFFFFFFFFFFFFFFFFFFFFFFFF AND DUP2 MSTORE PUSH1 0x20 ADD SWAP2 POP POP PUSH1 0x40 MLOAD DUP1 SWAP2 SUB SWAP1 RETURN JUMPDEST PUSH2 0x53B PUSH1 0x4 DUP1 CALLDATASIZE SUB PUSH1 0x20 DUP2 LT ISZERO PUSH2 0x50F JUMPI PUSH1 0x0 DUP1 REVERT JUMPDEST DUP2 ADD SWAP1 DUP1 DUP1 CALLDATALOAD PUSH20 0xFFFFFFFFFFFFFFFFFFFFFFFFFFFFFFFFFFFFFFFF AND SWAP1 PUSH1 0x20 ADD SWAP1 SWAP3 SWAP2 SWAP1 POP POP POP PUSH2 0x1473 JUMP JUMPDEST PUSH1 0x40 MLOAD DUP1 DUP3 DUP2 MSTORE PUSH1 0x20 ADD SWAP2 POP POP PUSH1 0x40 MLOAD DUP1 SWAP2 SUB SWAP1 RETURN JUMPDEST PUSH2 0x559 PUSH2 0x148B JUMP JUMPDEST PUSH1 0x40 MLOAD DUP1 DUP3 PUSH20 0xFFFFFFFFFFFFFFFFFFFFFFFFFFFFFFFFFFFFFFFF AND DUP2 MSTORE PUSH1 0x20 ADD SWAP2 POP POP PUSH1 0x40 MLOAD DUP1 SWAP2 SUB SWAP1 RETURN JUMPDEST PUSH2 0x5BB PUSH1 0x4 DUP1 CALLDATASIZE SUB PUSH1 0x40 DUP2 LT ISZERO PUSH2 0x59B JUMPI PUSH1 0x0 DUP1 REVERT JUMPDEST DUP2 ADD SWAP1 DUP1 DUP1 CALLDATALOAD SWAP1 PUSH1 0x20 ADD SWAP1 SWAP3 SWAP2 SWAP1 DUP1 CALLDATALOAD SWAP1 PUSH1 0x20 ADD SWAP1 SWAP3 SWAP2 SWAP1 POP POP POP PUSH2 0x14B1 JUMP JUMPDEST STOP JUMPDEST PUSH2 0x5FF PUSH1 0x4 DUP1 CALLDATASIZE SUB PUSH1 0x20 DUP2 LT ISZERO PUSH2 0x5D3 JUMPI PUSH1 0x0 DUP1 REVERT JUMPDEST DUP2 ADD SWAP1 DUP1 DUP1 CALLDATALOAD PUSH20 0xFFFFFFFFFFFFFFFFFFFFFFFFFFFFFFFFFFFFFFFF AND SWAP1 PUSH1 0x20 ADD SWAP1 SWAP3 SWAP2 SWAP1 POP POP POP PUSH2 0x173F JUMP JUMPDEST PUSH1 0x40 MLOAD DUP1 DUP3 PUSH20 0xFFFFFFFFFFFFFFFFFFFFFFFFFFFFFFFFFFFFFFFF AND DUP2 MSTORE PUSH1 0x20 ADD SWAP2 POP POP PUSH1 0x40 MLOAD DUP1 SWAP2 SUB SWAP1 RETURN JUMPDEST PUSH2 0x657 PUSH1 0x4 DUP1 CALLDATASIZE SUB PUSH1 0x20 DUP2 LT ISZERO PUSH2 0x641 JUMPI PUSH1 0x0 DUP1 REVERT JUMPDEST DUP2 ADD SWAP1 DUP1 DUP1 CALLDATALOAD SWAP1 PUSH1 0x20 ADD SWAP1 SWAP3 SWAP2 SWAP1 POP POP POP PUSH2 0x1772 JUMP JUMPDEST STOP JUMPDEST PUSH2 0x685 PUSH1 0x4 DUP1 CALLDATASIZE SUB PUSH1 0x20 DUP2 LT ISZERO PUSH2 0x66F JUMPI PUSH1 0x0 DUP1 REVERT JUMPDEST DUP2 ADD SWAP1 DUP1 DUP1 CALLDATALOAD SWAP1 PUSH1 0x20 ADD SWAP1 SWAP3 SWAP2 SWAP1 POP POP POP PUSH2 0x1ADD JUMP JUMPDEST STOP JUMPDEST PUSH2 0x68F PUSH2 0x1C97 JUMP JUMPDEST PUSH1 0x40 MLOAD DUP1 DUP3 DUP2 MSTORE PUSH1 0x20 ADD SWAP2 POP POP PUSH1 0x40 MLOAD DUP1 SWAP2 SUB SWAP1 RETURN JUMPDEST PUSH2 0x6AD PUSH2 0x1C9D JUMP JUMPDEST PUSH1 0x40 MLOAD DUP1 DUP3 DUP2 MSTORE PUSH1 0x20 ADD SWAP2 POP POP PUSH1 0x40 MLOAD DUP1 SWAP2 SUB SWAP1 RETURN JUMPDEST PUSH2 0x6CB PUSH2 0x1CA9 JUMP JUMPDEST STOP JUMPDEST PUSH2 0x6F9 PUSH1 0x4 DUP1 CALLDATASIZE SUB PUSH1 0x20 DUP2 LT ISZERO PUSH2 0x6E3 JUMPI PUSH1 0x0 DUP1 REVERT JUMPDEST DUP2 ADD SWAP1 DUP1 DUP1 CALLDATALOAD SWAP1 PUSH1 0x20 ADD SWAP1 SWAP3 SWAP2 SWAP1 POP POP POP PUSH2 0x1CD6 JUMP JUMPDEST STOP JUMPDEST PUSH2 0x703 PUSH2 0x1EA9 JUMP JUMPDEST PUSH1 0x40 MLOAD DUP1 DUP3 DUP2 MSTORE PUSH1 0x20 ADD SWAP2 POP POP PUSH1 0x40 MLOAD DUP1 SWAP2 SUB SWAP1 RETURN JUMPDEST PUSH2 0x721 PUSH2 0x1EAF JUMP JUMPDEST PUSH1 0x40 MLOAD DUP1 DUP3 DUP2 MSTORE PUSH1 0x20 ADD SWAP2 POP POP PUSH1 0x40 MLOAD DUP1 SWAP2 SUB SWAP1 RETURN JUMPDEST PUSH2 0x73F PUSH2 0x1EB5 JUMP JUMPDEST PUSH1 0x40 MLOAD DUP1 DUP3 DUP2 MSTORE PUSH1 0x20 ADD SWAP2 POP POP PUSH1 0x40 MLOAD DUP1 SWAP2 SUB SWAP1 RETURN JUMPDEST PUSH2 0x75D PUSH2 0x1EBB JUMP JUMPDEST STOP JUMPDEST PUSH2 0x7A1 PUSH1 0x4 DUP1 CALLDATASIZE SUB PUSH1 0x20 DUP2 LT ISZERO PUSH2 0x775 JUMPI PUSH1 0x0 DUP1 REVERT JUMPDEST DUP2 ADD SWAP1 DUP1 DUP1 CALLDATALOAD PUSH20 0xFFFFFFFFFFFFFFFFFFFFFFFFFFFFFFFFFFFFFFFF AND SWAP1 PUSH1 0x20 ADD SWAP1 SWAP3 SWAP2 SWAP1 POP POP POP PUSH2 0x2041 JUMP JUMPDEST STOP JUMPDEST PUSH2 0x7AB PUSH2 0x2245 JUMP JUMPDEST PUSH1 0x40 MLOAD DUP1 DUP3 PUSH20 0xFFFFFFFFFFFFFFFFFFFFFFFFFFFFFFFFFFFFFFFF AND DUP2 MSTORE PUSH1 0x20 ADD SWAP2 POP POP PUSH1 0x40 MLOAD DUP1 SWAP2 SUB SWAP1 RETURN JUMPDEST PUSH2 0x80D PUSH1 0x4 DUP1 CALLDATASIZE SUB PUSH1 0x40 DUP2 LT ISZERO PUSH2 0x7ED JUMPI PUSH1 0x0 DUP1 REVERT JUMPDEST DUP2 ADD SWAP1 DUP1 DUP1 CALLDATALOAD SWAP1 PUSH1 0x20 ADD SWAP1 SWAP3 SWAP2 SWAP1 DUP1 CALLDATALOAD SWAP1 PUSH1 0x20 ADD SWAP1 SWAP3 SWAP2 SWAP1 POP POP POP PUSH2 0x226E JUMP JUMPDEST PUSH1 0x40 MLOAD DUP1 DUP3 DUP2 MSTORE PUSH1 0x20 ADD SWAP2 POP POP PUSH1 0x40 MLOAD DUP1 SWAP2 SUB SWAP1 RETURN JUMPDEST PUSH2 0x879 PUSH1 0x4 DUP1 CALLDATASIZE SUB PUSH1 0x60 DUP2 LT ISZERO PUSH2 0x839 JUMPI PUSH1 0x0 DUP1 REVERT JUMPDEST DUP2 ADD SWAP1 DUP1 DUP1 CALLDATALOAD SWAP1 PUSH1 0x20 ADD SWAP1 SWAP3 SWAP2 SWAP1 DUP1 CALLDATALOAD SWAP1 PUSH1 0x20 ADD SWAP1 SWAP3 SWAP2 SWAP1 DUP1 CALLDATALOAD PUSH20 0xFFFFFFFFFFFFFFFFFFFFFFFFFFFFFFFFFFFFFFFF AND SWAP1 PUSH1 0x20 ADD SWAP1 SWAP3 SWAP2 SWAP1 POP POP POP PUSH2 0x228B JUMP JUMPDEST STOP JUMPDEST PUSH2 0x883 PUSH2 0x271F JUMP JUMPDEST PUSH1 0x40 MLOAD DUP1 DUP3 DUP2 MSTORE PUSH1 0x20 ADD SWAP2 POP POP PUSH1 0x40 MLOAD DUP1 SWAP2 SUB SWAP1 RETURN JUMPDEST PUSH2 0x8E5 PUSH1 0x4 DUP1 CALLDATASIZE SUB PUSH1 0x40 DUP2 LT ISZERO PUSH2 0x8AF JUMPI PUSH1 0x0 DUP1 REVERT JUMPDEST DUP2 ADD SWAP1 DUP1 DUP1 CALLDATALOAD SWAP1 PUSH1 0x20 ADD SWAP1 SWAP3 SWAP2 SWAP1 DUP1 CALLDATALOAD PUSH20 0xFFFFFFFFFFFFFFFFFFFFFFFFFFFFFFFFFFFFFFFF AND SWAP1 PUSH1 0x20 ADD SWAP1 SWAP3 SWAP2 SWAP1 POP POP POP PUSH2 0x272B JUMP JUMPDEST PUSH1 0x40 MLOAD DUP1 DUP5 DUP2 MSTORE PUSH1 0x20 ADD DUP4 DUP2 MSTORE PUSH1 0x20 ADD DUP3 DUP2 MSTORE PUSH1 0x20 ADD SWAP4 POP POP POP POP PUSH1 0x40 MLOAD DUP1 SWAP2 SUB SWAP1 RETURN JUMPDEST PUSH2 0x911 PUSH2 0x2762 JUMP JUMPDEST PUSH1 0x40 MLOAD DUP1 DUP3 PUSH2 0xFFFF AND DUP2 MSTORE PUSH1 0x20 ADD SWAP2 POP POP PUSH1 0x40 MLOAD DUP1 SWAP2 SUB SWAP1 RETURN JUMPDEST PUSH2 0x96D PUSH1 0x4 DUP1 CALLDATASIZE SUB PUSH1 0x20 DUP2 LT ISZERO PUSH2 0x941 JUMPI PUSH1 0x0 DUP1 REVERT JUMPDEST DUP2 ADD SWAP1 DUP1 DUP1 CALLDATALOAD PUSH20 0xFFFFFFFFFFFFFFFFFFFFFFFFFFFFFFFFFFFFFFFF AND SWAP1 PUSH1 0x20 ADD SWAP1 SWAP3 SWAP2 SWAP1 POP POP POP PUSH2 0x2768 JUMP JUMPDEST PUSH1 0x40 MLOAD DUP1 DUP3 DUP2 MSTORE PUSH1 0x20 ADD SWAP2 POP POP PUSH1 0x40 MLOAD DUP1 SWAP2 SUB SWAP1 RETURN JUMPDEST PUSH2 0x98B PUSH2 0x2780 JUMP JUMPDEST PUSH1 0x40 MLOAD DUP1 DUP3 DUP2 MSTORE PUSH1 0x20 ADD SWAP2 POP POP PUSH1 0x40 MLOAD DUP1 SWAP2 SUB SWAP1 RETURN JUMPDEST PUSH2 0x9CD PUSH1 0x4 DUP1 CALLDATASIZE SUB PUSH1 0x20 DUP2 LT ISZERO PUSH2 0x9B7 JUMPI PUSH1 0x0 DUP1 REVERT JUMPDEST DUP2 ADD SWAP1 DUP1 DUP1 CALLDATALOAD SWAP1 PUSH1 0x20 ADD SWAP1 SWAP3 SWAP2 SWAP1 POP POP POP PUSH2 0x2786 JUMP JUMPDEST STOP JUMPDEST PUSH2 0x9D7 PUSH2 0x28BE JUMP JUMPDEST PUSH1 0x40 MLOAD DUP1 DUP3 PUSH20 0xFFFFFFFFFFFFFFFFFFFFFFFFFFFFFFFFFFFFFFFF AND DUP2 MSTORE PUSH1 0x20 ADD SWAP2 POP POP PUSH1 0x40 MLOAD DUP1 SWAP2 SUB SWAP1 RETURN JUMPDEST PUSH2 0xA0B PUSH2 0x28E4 JUMP JUMPDEST PUSH1 0x40 MLOAD DUP1 DUP3 DUP2 MSTORE PUSH1 0x20 ADD SWAP2 POP POP PUSH1 0x40 MLOAD DUP1 SWAP2 SUB SWAP1 RETURN JUMPDEST PUSH2 0xA4D PUSH1 0x4 DUP1 CALLDATASIZE SUB PUSH1 0x20 DUP2 LT ISZERO PUSH2 0xA37 JUMPI PUSH1 0x0 DUP1 REVERT JUMPDEST DUP2 ADD SWAP1 DUP1 DUP1 CALLDATALOAD SWAP1 PUSH1 0x20 ADD SWAP1 SWAP3 SWAP2 SWAP1 POP POP POP PUSH2 0x28EA JUMP JUMPDEST PUSH1 0x40 MLOAD DUP1 DUP3 ISZERO ISZERO DUP2 MSTORE PUSH1 0x20 ADD SWAP2 POP POP PUSH1 0x40 MLOAD DUP1 SWAP2 SUB SWAP1 RETURN JUMPDEST PUSH2 0xAA7 PUSH1 0x4 DUP1 CALLDATASIZE SUB PUSH1 0x20 DUP2 LT ISZERO PUSH2 0xA7B JUMPI PUSH1 0x0 DUP1 REVERT JUMPDEST DUP2 ADD SWAP1 DUP1 DUP1 CALLDATALOAD PUSH20 0xFFFFFFFFFFFFFFFFFFFFFFFFFFFFFFFFFFFFFFFF AND SWAP1 PUSH1 0x20 ADD SWAP1 SWAP3 SWAP2 SWAP1 POP POP POP PUSH2 0x291A JUMP JUMPDEST PUSH1 0x40 MLOAD DUP1 DUP3 ISZERO ISZERO DUP2 MSTORE PUSH1 0x20 ADD SWAP2 POP POP PUSH1 0x40 MLOAD DUP1 SWAP2 SUB SWAP1 RETURN JUMPDEST PUSH2 0xB01 PUSH1 0x4 DUP1 CALLDATASIZE SUB PUSH1 0x20 DUP2 LT ISZERO PUSH2 0xAD5 JUMPI PUSH1 0x0 DUP1 REVERT JUMPDEST DUP2 ADD SWAP1 DUP1 DUP1 CALLDATALOAD PUSH20 0xFFFFFFFFFFFFFFFFFFFFFFFFFFFFFFFFFFFFFFFF AND SWAP1 PUSH1 0x20 ADD SWAP1 SWAP3 SWAP2 SWAP1 POP POP POP PUSH2 0x293A JUMP JUMPDEST STOP JUMPDEST PUSH2 0xB0B PUSH2 0x2B3E JUMP JUMPDEST PUSH1 0x40 MLOAD DUP1 DUP3 DUP2 MSTORE PUSH1 0x20 ADD SWAP2 POP POP PUSH1 0x40 MLOAD DUP1 SWAP2 SUB SWAP1 RETURN JUMPDEST PUSH2 0xB29 PUSH2 0x2B44 JUMP JUMPDEST PUSH1 0x40 MLOAD DUP1 DUP3 PUSH20 0xFFFFFFFFFFFFFFFFFFFFFFFFFFFFFFFFFFFFFFFF AND DUP2 MSTORE PUSH1 0x20 ADD SWAP2 POP POP PUSH1 0x40 MLOAD DUP1 SWAP2 SUB SWAP1 RETURN JUMPDEST PUSH2 0xBA1 PUSH1 0x4 DUP1 CALLDATASIZE SUB PUSH1 0x40 DUP2 LT ISZERO PUSH2 0xB6B JUMPI PUSH1 0x0 DUP1 REVERT JUMPDEST DUP2 ADD SWAP1 DUP1 DUP1 CALLDATALOAD SWAP1 PUSH1 0x20 ADD SWAP1 SWAP3 SWAP2 SWAP1 DUP1 CALLDATALOAD PUSH20 0xFFFFFFFFFFFFFFFFFFFFFFFFFFFFFFFFFFFFFFFF AND SWAP1 PUSH1 0x20 ADD SWAP1 SWAP3 SWAP2 SWAP1 POP POP POP PUSH2 0x2B6A JUMP JUMPDEST PUSH1 0x40 MLOAD DUP1 DUP3 DUP2 MSTORE PUSH1 0x20 ADD SWAP2 POP POP PUSH1 0x40 MLOAD DUP1 SWAP2 SUB SWAP1 RETURN JUMPDEST PUSH2 0xBBF PUSH2 0x2DDA JUMP JUMPDEST STOP JUMPDEST PUSH2 0xC03 PUSH1 0x4 DUP1 CALLDATASIZE SUB PUSH1 0x20 DUP2 LT ISZERO PUSH2 0xBD7 JUMPI PUSH1 0x0 DUP1 REVERT JUMPDEST DUP2 ADD SWAP1 DUP1 DUP1 CALLDATALOAD PUSH20 0xFFFFFFFFFFFFFFFFFFFFFFFFFFFFFFFFFFFFFFFF AND SWAP1 PUSH1 0x20 ADD SWAP1 SWAP3 SWAP2 SWAP1 POP POP POP PUSH2 0x2FCE JUMP JUMPDEST STOP JUMPDEST PUSH2 0xC0D PUSH2 0x30A2 JUMP JUMPDEST PUSH20 0xFFFFFFFFFFFFFFFFFFFFFFFFFFFFFFFFFFFFFFFF AND PUSH1 0x0 DUP1 SLOAD SWAP1 PUSH2 0x100 EXP SWAP1 DIV PUSH20 0xFFFFFFFFFFFFFFFFFFFFFFFFFFFFFFFFFFFFFFFF AND PUSH20 0xFFFFFFFFFFFFFFFFFFFFFFFFFFFFFFFFFFFFFFFF AND EQ PUSH2 0xCCD JUMPI PUSH1 0x40 MLOAD PUSH32 0x8C379A000000000000000000000000000000000000000000000000000000000 DUP2 MSTORE PUSH1 0x4 ADD DUP1 DUP1 PUSH1 0x20 ADD DUP3 DUP2 SUB DUP3 MSTORE PUSH1 0x20 DUP2 MSTORE PUSH1 0x20 ADD DUP1 PUSH32 0x4F776E61626C653A2063616C6C6572206973206E6F7420746865206F776E6572 DUP2 MSTORE POP PUSH1 0x20 ADD SWAP2 POP POP PUSH1 0x40 MLOAD DUP1 SWAP2 SUB SWAP1 REVERT JUMPDEST PUSH2 0x190 PUSH2 0xFFFF AND DUP5 PUSH2 0xFFFF AND GT ISZERO PUSH2 0xD30 JUMPI PUSH1 0x40 MLOAD PUSH32 0x8C379A000000000000000000000000000000000000000000000000000000000 DUP2 MSTORE PUSH1 0x4 ADD DUP1 DUP1 PUSH1 0x20 ADD DUP3 DUP2 SUB DUP3 MSTORE PUSH1 0x25 DUP2 MSTORE PUSH1 0x20 ADD DUP1 PUSH2 0x4397 PUSH1 0x25 SWAP2 CODECOPY PUSH1 0x40 ADD SWAP2 POP POP PUSH1 0x40 MLOAD DUP1 SWAP2 SUB SWAP1 REVERT JUMPDEST DUP3 ISZERO PUSH2 0xD3F JUMPI PUSH2 0xD3E PUSH2 0x1CA9 JUMP JUMPDEST JUMPDEST PUSH1 0x0 DUP1 DUP4 GT PUSH2 0xD50 JUMPI PUSH1 0x7 SLOAD PUSH2 0xD52 JUMP JUMPDEST DUP3 JUMPDEST SWAP1 POP PUSH2 0xD99 DUP7 PUSH2 0xD8B PUSH1 0x9 DUP11 DUP2 SLOAD DUP2 LT PUSH2 0xD68 JUMPI INVALID JUMPDEST SWAP1 PUSH1 0x0 MSTORE PUSH1 0x20 PUSH1 0x0 KECCAK256 SWAP1 PUSH1 0x7 MUL ADD PUSH1 0x1 ADD SLOAD PUSH1 0xB SLOAD PUSH2 0x30AA SWAP1 SWAP2 SWAP1 PUSH4 0xFFFFFFFF AND JUMP JUMPDEST PUSH2 0x30F4 SWAP1 SWAP2 SWAP1 PUSH4 0xFFFFFFFF AND JUMP JUMPDEST PUSH1 0xB DUP2 SWAP1 SSTORE POP DUP6 PUSH1 0x9 DUP9 DUP2 SLOAD DUP2 LT PUSH2 0xDAD JUMPI INVALID JUMPDEST SWAP1 PUSH1 0x0 MSTORE PUSH1 0x20 PUSH1 0x0 KECCAK256 SWAP1 PUSH1 0x7 MUL ADD PUSH1 0x1 ADD DUP2 SWAP1 SSTORE POP DUP5 PUSH1 0x9 DUP9 DUP2 SLOAD DUP2 LT PUSH2 0xDD0 JUMPI INVALID JUMPDEST SWAP1 PUSH1 0x0 MSTORE PUSH1 0x20 PUSH1 0x0 KECCAK256 SWAP1 PUSH1 0x7 MUL ADD PUSH1 0x6 ADD PUSH1 0x0 PUSH2 0x100 EXP DUP2 SLOAD DUP2 PUSH2 0xFFFF MUL NOT AND SWAP1 DUP4 PUSH2 0xFFFF AND MUL OR SWAP1 SSTORE POP DUP1 PUSH1 0x9 DUP9 DUP2 SLOAD DUP2 LT PUSH2 0xE09 JUMPI INVALID JUMPDEST SWAP1 PUSH1 0x0 MSTORE PUSH1 0x20 PUSH1 0x0 KECCAK256 SWAP1 PUSH1 0x7 MUL ADD PUSH1 0x2 ADD DUP2 SWAP1 SSTORE POP PUSH1 0x0 DUP3 GT PUSH2 0xE2D JUMPI PUSH1 0x0 PUSH2 0xE2F JUMP JUMPDEST DUP2 JUMPDEST PUSH1 0x9 DUP9 DUP2 SLOAD DUP2 LT PUSH2 0xE3C JUMPI INVALID JUMPDEST SWAP1 PUSH1 0x0 MSTORE PUSH1 0x20 PUSH1 0x0 KECCAK256 SWAP1 PUSH1 0x7 MUL ADD PUSH1 0x3 ADD DUP2 SWAP1 SSTORE POP POP POP POP POP POP POP POP JUMP JUMPDEST PUSH1 0x0 PUSH1 0x9 DUP1 SLOAD SWAP1 POP SWAP1 POP SWAP1 JUMP JUMPDEST PUSH2 0xE6F PUSH2 0x30A2 JUMP JUMPDEST PUSH20 0xFFFFFFFFFFFFFFFFFFFFFFFFFFFFFFFFFFFFFFFF AND PUSH1 0x0 DUP1 SLOAD SWAP1 PUSH2 0x100 EXP SWAP1 DIV PUSH20 0xFFFFFFFFFFFFFFFFFFFFFFFFFFFFFFFFFFFFFFFF AND PUSH20 0xFFFFFFFFFFFFFFFFFFFFFFFFFFFFFFFFFFFFFFFF AND EQ PUSH2 0xF2F JUMPI PUSH1 0x40 MLOAD PUSH32 0x8C379A000000000000000000000000000000000000000000000000000000000 DUP2 MSTORE PUSH1 0x4 ADD DUP1 DUP1 PUSH1 0x20 ADD DUP3 DUP2 SUB DUP3 MSTORE PUSH1 0x20 DUP2 MSTORE PUSH1 0x20 ADD DUP1 PUSH32 0x4F776E61626C653A2063616C6C6572206973206E6F7420746865206F776E6572 DUP2 MSTORE POP PUSH1 0x20 ADD SWAP2 POP POP PUSH1 0x40 MLOAD DUP1 SWAP2 SUB SWAP1 REVERT JUMPDEST DUP6 PUSH1 0x0 ISZERO ISZERO PUSH1 0xF PUSH1 0x0 DUP4 PUSH20 0xFFFFFFFFFFFFFFFFFFFFFFFFFFFFFFFFFFFFFFFF AND PUSH20 0xFFFFFFFFFFFFFFFFFFFFFFFFFFFFFFFFFFFFFFFF AND DUP2 MSTORE PUSH1 0x20 ADD SWAP1 DUP2 MSTORE PUSH1 0x20 ADD PUSH1 0x0 KECCAK256 PUSH1 0x0 SWAP1 SLOAD SWAP1 PUSH2 0x100 EXP SWAP1 DIV PUSH1 0xFF AND ISZERO ISZERO EQ PUSH2 0xFF6 JUMPI PUSH1 0x40 MLOAD PUSH32 0x8C379A000000000000000000000000000000000000000000000000000000000 DUP2 MSTORE PUSH1 0x4 ADD DUP1 DUP1 PUSH1 0x20 ADD DUP3 DUP2 SUB DUP3 MSTORE PUSH1 0x19 DUP2 MSTORE PUSH1 0x20 ADD DUP1 PUSH32 0x6E6F6E4475706C6963617465643A206475706C69636174656400000000000000 DUP2 MSTORE POP PUSH1 0x20 ADD SWAP2 POP POP PUSH1 0x40 MLOAD DUP1 SWAP2 SUB SWAP1 REVERT JUMPDEST PUSH2 0x190 PUSH2 0xFFFF AND DUP7 PUSH2 0xFFFF AND GT ISZERO PUSH2 0x1059 JUMPI PUSH1 0x40 MLOAD PUSH32 0x8C379A000000000000000000000000000000000000000000000000000000000 DUP2 MSTORE PUSH1 0x4 ADD DUP1 DUP1 PUSH1 0x20 ADD DUP3 DUP2 SUB DUP3 MSTORE PUSH1 0x25 DUP2 MSTORE PUSH1 0x20 ADD DUP1 PUSH2 0x4284 PUSH1 0x25 SWAP2 CODECOPY PUSH1 0x40 ADD SWAP2 POP POP PUSH1 0x40 MLOAD DUP1 SWAP2 SUB SWAP1 REVERT JUMPDEST DUP5 ISZERO PUSH2 0x1068 JUMPI PUSH2 0x1067 PUSH2 0x1CA9 JUMP JUMPDEST JUMPDEST PUSH1 0x0 DUP1 DUP6 GT PUSH2 0x1079 JUMPI PUSH1 0x7 SLOAD PUSH2 0x107B JUMP JUMPDEST DUP5 JUMPDEST SWAP1 POP PUSH2 0x1092 DUP10 PUSH1 0xB SLOAD PUSH2 0x30F4 SWAP1 SWAP2 SWAP1 PUSH4 0xFFFFFFFF AND JUMP JUMPDEST PUSH1 0xB DUP2 SWAP1 SSTORE POP PUSH1 0x1 PUSH1 0xF PUSH1 0x0 DUP11 PUSH20 0xFFFFFFFFFFFFFFFFFFFFFFFFFFFFFFFFFFFFFFFF AND PUSH20 0xFFFFFFFFFFFFFFFFFFFFFFFFFFFFFFFFFFFFFFFF AND DUP2 MSTORE PUSH1 0x20 ADD SWAP1 DUP2 MSTORE PUSH1 0x20 ADD PUSH1 0x0 KECCAK256 PUSH1 0x0 PUSH2 0x100 EXP DUP2 SLOAD DUP2 PUSH1 0xFF MUL NOT AND SWAP1 DUP4 ISZERO ISZERO MUL OR SWAP1 SSTORE POP PUSH1 0x9 PUSH1 0x40 MLOAD DUP1 PUSH1 0xE0 ADD PUSH1 0x40 MSTORE DUP1 DUP11 PUSH20 0xFFFFFFFFFFFFFFFFFFFFFFFFFFFFFFFFFFFFFFFF AND DUP2 MSTORE PUSH1 0x20 ADD DUP12 DUP2 MSTORE PUSH1 0x20 ADD DUP4 DUP2 MSTORE PUSH1 0x20 ADD PUSH1 0x0 DUP7 GT PUSH2 0x1134 JUMPI PUSH1 0x0 PUSH2 0x1136 JUMP JUMPDEST DUP6 JUMPDEST DUP2 MSTORE PUSH1 0x20 ADD PUSH1 0x0 DUP8 GT PUSH2 0x115B JUMPI PUSH1 0x8 SLOAD NUMBER GT PUSH2 0x1154 JUMPI PUSH1 0x8 SLOAD PUSH2 0x1156 JUMP JUMPDEST NUMBER JUMPDEST PUSH2 0x115D JUMP JUMPDEST DUP7 JUMPDEST DUP2 MSTORE PUSH1 0x20 ADD PUSH1 0x0 DUP2 MSTORE PUSH1 0x20 ADD DUP10 PUSH2 0xFFFF AND DUP2 MSTORE POP SWAP1 DUP1 PUSH1 0x1 DUP2 SLOAD ADD DUP1 DUP3 SSTORE DUP1 SWAP2 POP POP PUSH1 0x1 SWAP1 SUB SWAP1 PUSH1 0x0 MSTORE PUSH1 0x20 PUSH1 0x0 KECCAK256 SWAP1 PUSH1 0x7 MUL ADD PUSH1 0x0 SWAP1 SWAP2 SWAP1 SWAP2 SWAP1 SWAP2 POP PUSH1 0x0 DUP3 ADD MLOAD DUP2 PUSH1 0x0 ADD PUSH1 0x0 PUSH2 0x100 EXP DUP2 SLOAD DUP2 PUSH20 0xFFFFFFFFFFFFFFFFFFFFFFFFFFFFFFFFFFFFFFFF MUL NOT AND SWAP1 DUP4 PUSH20 0xFFFFFFFFFFFFFFFFFFFFFFFFFFFFFFFFFFFFFFFF AND MUL OR SWAP1 SSTORE POP PUSH1 0x20 DUP3 ADD MLOAD DUP2 PUSH1 0x1 ADD SSTORE PUSH1 0x40 DUP3 ADD MLOAD DUP2 PUSH1 0x2 ADD SSTORE PUSH1 0x60 DUP3 ADD MLOAD DUP2 PUSH1 0x3 ADD SSTORE PUSH1 0x80 DUP3 ADD MLOAD DUP2 PUSH1 0x4 ADD SSTORE PUSH1 0xA0 DUP3 ADD MLOAD DUP2 PUSH1 0x5 ADD SSTORE PUSH1 0xC0 DUP3 ADD MLOAD DUP2 PUSH1 0x6 ADD PUSH1 0x0 PUSH2 0x100 EXP DUP2 SLOAD DUP2 PUSH2 0xFFFF MUL NOT AND SWAP1 DUP4 PUSH2 0xFFFF AND MUL OR SWAP1 SSTORE POP POP POP PUSH1 0x1 PUSH1 0x9 DUP1 SLOAD SWAP1 POP SUB PUSH1 0x10 PUSH1 0x0 DUP11 PUSH20 0xFFFFFFFFFFFFFFFFFFFFFFFFFFFFFFFFFFFFFFFF AND PUSH20 0xFFFFFFFFFFFFFFFFFFFFFFFFFFFFFFFFFFFFFFFF AND DUP2 MSTORE PUSH1 0x20 ADD SWAP1 DUP2 MSTORE PUSH1 0x20 ADD PUSH1 0x0 KECCAK256 DUP2 SWAP1 SSTORE POP POP POP POP POP POP POP POP POP POP JUMP JUMPDEST PUSH1 0x9 DUP2 DUP2 SLOAD DUP2 LT PUSH2 0x129C JUMPI INVALID JUMPDEST SWAP1 PUSH1 0x0 MSTORE PUSH1 0x20 PUSH1 0x0 KECCAK256 SWAP1 PUSH1 0x7 MUL ADD PUSH1 0x0 SWAP2 POP SWAP1 POP DUP1 PUSH1 0x0 ADD PUSH1 0x0 SWAP1 SLOAD SWAP1 PUSH2 0x100 EXP SWAP1 DIV PUSH20 0xFFFFFFFFFFFFFFFFFFFFFFFFFFFFFFFFFFFFFFFF AND SWAP1 DUP1 PUSH1 0x1 ADD SLOAD SWAP1 DUP1 PUSH1 0x2 ADD SLOAD SWAP1 DUP1 PUSH1 0x3 ADD SLOAD SWAP1 DUP1 PUSH1 0x4 ADD SLOAD SWAP1 DUP1 PUSH1 0x5 ADD SLOAD SWAP1 DUP1 PUSH1 0x6 ADD PUSH1 0x0 SWAP1 SLOAD SWAP1 PUSH2 0x100 EXP SWAP1 DIV PUSH2 0xFFFF AND SWAP1 POP DUP8 JUMP JUMPDEST PUSH1 0xB SLOAD DUP2 JUMP JUMPDEST PUSH1 0x0 DUP1 ISZERO ISZERO PUSH1 0xF PUSH1 0x0 DUP5 PUSH20 0xFFFFFFFFFFFFFFFFFFFFFFFFFFFFFFFFFFFFFFFF AND PUSH20 0xFFFFFFFFFFFFFFFFFFFFFFFFFFFFFFFFFFFFFFFF AND DUP2 MSTORE PUSH1 0x20 ADD SWAP1 DUP2 MSTORE PUSH1 0x20 ADD PUSH1 0x0 KECCAK256 PUSH1 0x0 SWAP1 SLOAD SWAP1 PUSH2 0x100 EXP SWAP1 DIV PUSH1 0xFF AND ISZERO ISZERO EQ ISZERO PUSH2 0x13BD JUMPI PUSH1 0x40 MLOAD PUSH32 0x8C379A000000000000000000000000000000000000000000000000000000000 DUP2 MSTORE PUSH1 0x4 ADD DUP1 DUP1 PUSH1 0x20 ADD DUP3 DUP2 SUB DUP3 MSTORE PUSH1 0x21 DUP2 MSTORE PUSH1 0x20 ADD DUP1 PUSH2 0x4436 PUSH1 0x21 SWAP2 CODECOPY PUSH1 0x40 ADD SWAP2 POP POP PUSH1 0x40 MLOAD DUP1 SWAP2 SUB SWAP1 REVERT JUMPDEST PUSH1 0x10 PUSH1 0x0 DUP4 PUSH20 0xFFFFFFFFFFFFFFFFFFFFFFFFFFFFFFFFFFFFFFFF AND PUSH20 0xFFFFFFFFFFFFFFFFFFFFFFFFFFFFFFFFFFFFFFFF AND DUP2 MSTORE PUSH1 0x20 ADD SWAP1 DUP2 MSTORE PUSH1 0x20 ADD PUSH1 0x0 KECCAK256 SLOAD SWAP1 POP SWAP2 SWAP1 POP JUMP JUMPDEST PUSH2 0x7D0 DUP2 JUMP JUMPDEST PUSH1 0x0 PUSH1 0xD PUSH1 0x0 DUP4 PUSH20 0xFFFFFFFFFFFFFFFFFFFFFFFFFFFFFFFFFFFFFFFF AND PUSH20 0xFFFFFFFFFFFFFFFFFFFFFFFFFFFFFFFFFFFFFFFF AND DUP2 MSTORE PUSH1 0x20 ADD SWAP1 DUP2 MSTORE PUSH1 0x20 ADD PUSH1 0x0 KECCAK256 PUSH1 0x0 SWAP1 SLOAD SWAP1 PUSH2 0x100 EXP SWAP1 DIV PUSH20 0xFFFFFFFFFFFFFFFFFFFFFFFFFFFFFFFFFFFFFFFF AND SWAP1 POP SWAP2 SWAP1 POP JUMP JUMPDEST PUSH1 0xE PUSH1 0x20 MSTORE DUP1 PUSH1 0x0 MSTORE PUSH1 0x40 PUSH1 0x0 KECCAK256 PUSH1 0x0 SWAP2 POP SWAP1 POP SLOAD DUP2 JUMP JUMPDEST PUSH1 0x5 PUSH1 0x0 SWAP1 SLOAD SWAP1 PUSH2 0x100 EXP SWAP1 DIV PUSH20 0xFFFFFFFFFFFFFFFFFFFFFFFFFFFFFFFFFFFFFFFF AND DUP2 JUMP JUMPDEST PUSH1 0x2 PUSH1 0x1 SLOAD EQ ISZERO PUSH2 0x152A JUMPI PUSH1 0x40 MLOAD PUSH32 0x8C379A000000000000000000000000000000000000000000000000000000000 DUP2 MSTORE PUSH1 0x4 ADD DUP1 DUP1 PUSH1 0x20 ADD DUP3 DUP2 SUB DUP3 MSTORE PUSH1 0x1F DUP2 MSTORE PUSH1 0x20 ADD DUP1 PUSH32 0x5265656E7472616E637947756172643A207265656E7472616E742063616C6C00 DUP2 MSTORE POP PUSH1 0x20 ADD SWAP2 POP POP PUSH1 0x40 MLOAD DUP1 SWAP2 SUB SWAP1 REVERT JUMPDEST PUSH1 0x2 PUSH1 0x1 DUP2 SWAP1 SSTORE POP PUSH1 0x0 PUSH1 0x9 DUP4 DUP2 SLOAD DUP2 LT PUSH2 0x1541 JUMPI INVALID JUMPDEST SWAP1 PUSH1 0x0 MSTORE PUSH1 0x20 PUSH1 0x0 KECCAK256 SWAP1 PUSH1 0x7 MUL ADD SWAP1 POP PUSH1 0x0 PUSH1 0xA PUSH1 0x0 DUP6 DUP2 MSTORE PUSH1 0x20 ADD SWAP1 DUP2 MSTORE PUSH1 0x20 ADD PUSH1 0x0 KECCAK256 PUSH1 0x0 CALLER PUSH20 0xFFFFFFFFFFFFFFFFFFFFFFFFFFFFFFFFFFFFFFFF AND PUSH20 0xFFFFFFFFFFFFFFFFFFFFFFFFFFFFFFFFFFFFFFFF AND DUP2 MSTORE PUSH1 0x20 ADD SWAP1 DUP2 MSTORE PUSH1 0x20 ADD PUSH1 0x0 KECCAK256 SWAP1 POP DUP3 DUP2 PUSH1 0x0 ADD SLOAD LT ISZERO PUSH2 0x161F JUMPI PUSH1 0x40 MLOAD PUSH32 0x8C379A000000000000000000000000000000000000000000000000000000000 DUP2 MSTORE PUSH1 0x4 ADD DUP1 DUP1 PUSH1 0x20 ADD DUP3 DUP2 SUB DUP3 MSTORE PUSH1 0x12 DUP2 MSTORE PUSH1 0x20 ADD DUP1 PUSH32 0x77697468647261773A206E6F7420676F6F640000000000000000000000000000 DUP2 MSTORE POP PUSH1 0x20 ADD SWAP2 POP POP PUSH1 0x40 MLOAD DUP1 SWAP2 SUB SWAP1 REVERT JUMPDEST PUSH2 0x1628 DUP5 PUSH2 0x1772 JUMP JUMPDEST PUSH2 0x1631 DUP5 PUSH2 0x317C JUMP JUMPDEST PUSH1 0x0 DUP4 GT ISZERO PUSH2 0x16A9 JUMPI PUSH2 0x1651 DUP4 DUP3 PUSH1 0x0 ADD SLOAD PUSH2 0x30AA SWAP1 SWAP2 SWAP1 PUSH4 0xFFFFFFFF AND JUMP JUMPDEST DUP2 PUSH1 0x0 ADD DUP2 SWAP1 SSTORE POP PUSH2 0x16A8 CALLER DUP5 DUP5 PUSH1 0x0 ADD PUSH1 0x0 SWAP1 SLOAD SWAP1 PUSH2 0x100 EXP SWAP1 DIV PUSH20 0xFFFFFFFFFFFFFFFFFFFFFFFFFFFFFFFFFFFFFFFF AND PUSH20 0xFFFFFFFFFFFFFFFFFFFFFFFFFFFFFFFFFFFFFFFF AND PUSH2 0x32D1 SWAP1 SWAP3 SWAP2 SWAP1 PUSH4 0xFFFFFFFF AND JUMP JUMPDEST JUMPDEST PUSH2 0x16DB PUSH5 0xE8D4A51000 PUSH2 0x16CD DUP5 PUSH1 0x5 ADD SLOAD DUP5 PUSH1 0x0 ADD SLOAD PUSH2 0x3373 SWAP1 SWAP2 SWAP1 PUSH4 0xFFFFFFFF AND JUMP JUMPDEST PUSH2 0x33F9 SWAP1 SWAP2 SWAP1 PUSH4 0xFFFFFFFF AND JUMP JUMPDEST DUP2 PUSH1 0x1 ADD DUP2 SWAP1 SSTORE POP DUP4 CALLER PUSH20 0xFFFFFFFFFFFFFFFFFFFFFFFFFFFFFFFFFFFFFFFF AND PUSH32 0xF279E6A1F5E320CCA91135676D9CB6E44CA8A08C0B88342BCDB1144F6511B568 DUP6 PUSH1 0x40 MLOAD DUP1 DUP3 DUP2 MSTORE PUSH1 0x20 ADD SWAP2 POP POP PUSH1 0x40 MLOAD DUP1 SWAP2 SUB SWAP1 LOG3 POP POP PUSH1 0x1 DUP1 DUP2 SWAP1 SSTORE POP POP POP JUMP JUMPDEST PUSH1 0xD PUSH1 0x20 MSTORE DUP1 PUSH1 0x0 MSTORE PUSH1 0x40 PUSH1 0x0 KECCAK256 PUSH1 0x0 SWAP2 POP SLOAD SWAP1 PUSH2 0x100 EXP SWAP1 DIV PUSH20 0xFFFFFFFFFFFFFFFFFFFFFFFFFFFFFFFFFFFFFFFF AND DUP2 JUMP JUMPDEST PUSH1 0x0 PUSH1 0x9 DUP3 DUP2 SLOAD DUP2 LT PUSH2 0x1781 JUMPI INVALID JUMPDEST SWAP1 PUSH1 0x0 MSTORE PUSH1 0x20 PUSH1 0x0 KECCAK256 SWAP1 PUSH1 0x7 MUL ADD SWAP1 POP PUSH1 0x0 PUSH2 0x179C DUP4 PUSH2 0x3443 JUMP JUMPDEST SWAP1 POP DUP2 PUSH1 0x4 ADD SLOAD DUP2 GT PUSH2 0x17B0 JUMPI POP POP PUSH2 0x1ADA JUMP JUMPDEST PUSH1 0x0 DUP3 PUSH1 0x0 ADD PUSH1 0x0 SWAP1 SLOAD SWAP1 PUSH2 0x100 EXP SWAP1 DIV PUSH20 0xFFFFFFFFFFFFFFFFFFFFFFFFFFFFFFFFFFFFFFFF AND PUSH20 0xFFFFFFFFFFFFFFFFFFFFFFFFFFFFFFFFFFFFFFFF AND PUSH4 0x70A08231 ADDRESS PUSH1 0x40 MLOAD DUP3 PUSH4 0xFFFFFFFF AND PUSH1 0xE0 SHL DUP2 MSTORE PUSH1 0x4 ADD DUP1 DUP3 PUSH20 0xFFFFFFFFFFFFFFFFFFFFFFFFFFFFFFFFFFFFFFFF AND DUP2 MSTORE PUSH1 0x20 ADD SWAP2 POP POP PUSH1 0x20 PUSH1 0x40 MLOAD DUP1 DUP4 SUB DUP2 DUP7 DUP1 EXTCODESIZE ISZERO DUP1 ISZERO PUSH2 0x183D JUMPI PUSH1 0x0 DUP1 REVERT JUMPDEST POP GAS STATICCALL ISZERO DUP1 ISZERO PUSH2 0x1851 JUMPI RETURNDATASIZE PUSH1 0x0 DUP1 RETURNDATACOPY RETURNDATASIZE PUSH1 0x0 REVERT JUMPDEST POP POP POP POP PUSH1 0x40 MLOAD RETURNDATASIZE PUSH1 0x20 DUP2 LT ISZERO PUSH2 0x1867 JUMPI PUSH1 0x0 DUP1 REVERT JUMPDEST DUP2 ADD SWAP1 DUP1 DUP1 MLOAD SWAP1 PUSH1 0x20 ADD SWAP1 SWAP3 SWAP2 SWAP1 POP POP POP SWAP1 POP PUSH1 0x0 DUP2 EQ DUP1 PUSH2 0x188D JUMPI POP PUSH1 0x0 DUP4 PUSH1 0x1 ADD SLOAD EQ JUMPDEST ISZERO PUSH2 0x18A3 JUMPI DUP2 DUP4 PUSH1 0x4 ADD DUP2 SWAP1 SSTORE POP POP POP POP PUSH2 0x1ADA JUMP JUMPDEST PUSH1 0x0 PUSH2 0x18B3 DUP5 PUSH1 0x4 ADD SLOAD DUP5 PUSH2 0x226E JUMP JUMPDEST SWAP1 POP PUSH1 0x0 PUSH2 0x18F6 PUSH1 0xB SLOAD PUSH2 0x18E8 DUP8 PUSH1 0x1 ADD SLOAD PUSH2 0x18DA PUSH1 0x4 SLOAD DUP8 PUSH2 0x3373 SWAP1 SWAP2 SWAP1 PUSH4 0xFFFFFFFF AND JUMP JUMPDEST PUSH2 0x3373 SWAP1 SWAP2 SWAP1 PUSH4 0xFFFFFFFF AND JUMP JUMPDEST PUSH2 0x33F9 SWAP1 SWAP2 SWAP1 PUSH4 0xFFFFFFFF AND JUMP JUMPDEST SWAP1 POP PUSH1 0x2 PUSH1 0x0 SWAP1 SLOAD SWAP1 PUSH2 0x100 EXP SWAP1 DIV PUSH20 0xFFFFFFFFFFFFFFFFFFFFFFFFFFFFFFFFFFFFFFFF AND PUSH20 0xFFFFFFFFFFFFFFFFFFFFFFFFFFFFFFFFFFFFFFFF AND PUSH4 0x40C10F19 PUSH1 0x3 PUSH1 0x0 SWAP1 SLOAD SWAP1 PUSH2 0x100 EXP SWAP1 DIV PUSH20 0xFFFFFFFFFFFFFFFFFFFFFFFFFFFFFFFFFFFFFFFF AND PUSH2 0x196D PUSH1 0xA DUP6 PUSH2 0x33F9 SWAP1 SWAP2 SWAP1 PUSH4 0xFFFFFFFF AND JUMP JUMPDEST PUSH1 0x40 MLOAD DUP4 PUSH4 0xFFFFFFFF AND PUSH1 0xE0 SHL DUP2 MSTORE PUSH1 0x4 ADD DUP1 DUP4 PUSH20 0xFFFFFFFFFFFFFFFFFFFFFFFFFFFFFFFFFFFFFFFF AND DUP2 MSTORE PUSH1 0x20 ADD DUP3 DUP2 MSTORE PUSH1 0x20 ADD SWAP3 POP POP POP PUSH1 0x0 PUSH1 0x40 MLOAD DUP1 DUP4 SUB DUP2 PUSH1 0x0 DUP8 DUP1 EXTCODESIZE ISZERO DUP1 ISZERO PUSH2 0x19C0 JUMPI PUSH1 0x0 DUP1 REVERT JUMPDEST POP GAS CALL ISZERO DUP1 ISZERO PUSH2 0x19D4 JUMPI RETURNDATASIZE PUSH1 0x0 DUP1 RETURNDATACOPY RETURNDATASIZE PUSH1 0x0 REVERT JUMPDEST POP POP POP POP PUSH1 0x2 PUSH1 0x0 SWAP1 SLOAD SWAP1 PUSH2 0x100 EXP SWAP1 DIV PUSH20 0xFFFFFFFFFFFFFFFFFFFFFFFFFFFFFFFFFFFFFFFF AND PUSH20 0xFFFFFFFFFFFFFFFFFFFFFFFFFFFFFFFFFFFFFFFF AND PUSH4 0x40C10F19 ADDRESS DUP4 PUSH1 0x40 MLOAD DUP4 PUSH4 0xFFFFFFFF AND PUSH1 0xE0 SHL DUP2 MSTORE PUSH1 0x4 ADD DUP1 DUP4 PUSH20 0xFFFFFFFFFFFFFFFFFFFFFFFFFFFFFFFFFFFFFFFF AND DUP2 MSTORE PUSH1 0x20 ADD DUP3 DUP2 MSTORE PUSH1 0x20 ADD SWAP3 POP POP POP PUSH1 0x0 PUSH1 0x40 MLOAD DUP1 DUP4 SUB DUP2 PUSH1 0x0 DUP8 DUP1 EXTCODESIZE ISZERO DUP1 ISZERO PUSH2 0x1A6B JUMPI PUSH1 0x0 DUP1 REVERT JUMPDEST POP GAS CALL ISZERO DUP1 ISZERO PUSH2 0x1A7F JUMPI RETURNDATASIZE PUSH1 0x0 DUP1 RETURNDATACOPY RETURNDATASIZE PUSH1 0x0 REVERT JUMPDEST POP POP POP POP PUSH2 0x1AC3 PUSH2 0x1AB0 DUP5 PUSH2 0x1AA2 PUSH5 0xE8D4A51000 DUP6 PUSH2 0x3373 SWAP1 SWAP2 SWAP1 PUSH4 0xFFFFFFFF AND JUMP JUMPDEST PUSH2 0x33F9 SWAP1 SWAP2 SWAP1 PUSH4 0xFFFFFFFF AND JUMP JUMPDEST DUP7 PUSH1 0x5 ADD SLOAD PUSH2 0x30F4 SWAP1 SWAP2 SWAP1 PUSH4 0xFFFFFFFF AND JUMP JUMPDEST DUP6 PUSH1 0x5 ADD DUP2 SWAP1 SSTORE POP DUP4 DUP6 PUSH1 0x4 ADD DUP2 SWAP1 SSTORE POP POP POP POP POP POP JUMPDEST POP JUMP JUMPDEST PUSH1 0x2 PUSH1 0x1 SLOAD EQ ISZERO PUSH2 0x1B56 JUMPI PUSH1 0x40 MLOAD PUSH32 0x8C379A000000000000000000000000000000000000000000000000000000000 DUP2 MSTORE PUSH1 0x4 ADD DUP1 DUP1 PUSH1 0x20 ADD DUP3 DUP2 SUB DUP3 MSTORE PUSH1 0x1F DUP2 MSTORE PUSH1 0x20 ADD DUP1 PUSH32 0x5265656E7472616E637947756172643A207265656E7472616E742063616C6C00 DUP2 MSTORE POP PUSH1 0x20 ADD SWAP2 POP POP PUSH1 0x40 MLOAD DUP1 SWAP2 SUB SWAP1 REVERT JUMPDEST PUSH1 0x2 PUSH1 0x1 DUP2 SWAP1 SSTORE POP PUSH1 0x0 PUSH1 0x9 DUP3 DUP2 SLOAD DUP2 LT PUSH2 0x1B6D JUMPI INVALID JUMPDEST SWAP1 PUSH1 0x0 MSTORE PUSH1 0x20 PUSH1 0x0 KECCAK256 SWAP1 PUSH1 0x7 MUL ADD SWAP1 POP PUSH1 0x0 PUSH1 0xA PUSH1 0x0 DUP5 DUP2 MSTORE PUSH1 0x20 ADD SWAP1 DUP2 MSTORE PUSH1 0x20 ADD PUSH1 0x0 KECCAK256 PUSH1 0x0 CALLER PUSH20 0xFFFFFFFFFFFFFFFFFFFFFFFFFFFFFFFFFFFFFFFF AND PUSH20 0xFFFFFFFFFFFFFFFFFFFFFFFFFFFFFFFFFFFFFFFF AND DUP2 MSTORE PUSH1 0x20 ADD SWAP1 DUP2 MSTORE PUSH1 0x20 ADD PUSH1 0x0 KECCAK256 SWAP1 POP PUSH2 0x1C24 CALLER DUP3 PUSH1 0x0 ADD SLOAD DUP5 PUSH1 0x0 ADD PUSH1 0x0 SWAP1 SLOAD SWAP1 PUSH2 0x100 EXP SWAP1 DIV PUSH20 0xFFFFFFFFFFFFFFFFFFFFFFFFFFFFFFFFFFFFFFFF AND PUSH20 0xFFFFFFFFFFFFFFFFFFFFFFFFFFFFFFFFFFFFFFFF AND PUSH2 0x32D1 SWAP1 SWAP3 SWAP2 SWAP1 PUSH4 0xFFFFFFFF AND JUMP JUMPDEST DUP3 CALLER PUSH20 0xFFFFFFFFFFFFFFFFFFFFFFFFFFFFFFFFFFFFFFFF AND PUSH32 0xBB757047C2B5F3974FE26B7C10F732E7BCE710B0952A71082702781E62AE0595 DUP4 PUSH1 0x0 ADD SLOAD PUSH1 0x40 MLOAD DUP1 DUP3 DUP2 MSTORE PUSH1 0x20 ADD SWAP2 POP POP PUSH1 0x40 MLOAD DUP1 SWAP2 SUB SWAP1 LOG3 PUSH1 0x0 DUP2 PUSH1 0x0 ADD DUP2 SWAP1 SSTORE POP PUSH1 0x0 DUP2 PUSH1 0x1 ADD DUP2 SWAP1 SSTORE POP POP POP PUSH1 0x1 DUP1 DUP2 SWAP1 SSTORE POP POP JUMP JUMPDEST PUSH1 0x6 SLOAD DUP2 JUMP JUMPDEST PUSH8 0x16345785D8A0000 DUP2 JUMP JUMPDEST PUSH1 0x0 PUSH1 0x9 DUP1 SLOAD SWAP1 POP SWAP1 POP PUSH1 0x0 JUMPDEST DUP2 DUP2 LT ISZERO PUSH2 0x1CD2 JUMPI PUSH2 0x1CC7 DUP2 PUSH2 0x1772 JUMP JUMPDEST DUP1 PUSH1 0x1 ADD SWAP1 POP PUSH2 0x1CB6 JUMP JUMPDEST POP POP JUMP JUMPDEST PUSH2 0x1CDE PUSH2 0x30A2 JUMP JUMPDEST PUSH20 0xFFFFFFFFFFFFFFFFFFFFFFFFFFFFFFFFFFFFFFFF AND PUSH1 0x0 DUP1 SLOAD SWAP1 PUSH2 0x100 EXP SWAP1 DIV PUSH20 0xFFFFFFFFFFFFFFFFFFFFFFFFFFFFFFFFFFFFFFFF AND PUSH20 0xFFFFFFFFFFFFFFFFFFFFFFFFFFFFFFFFFFFFFFFF AND EQ PUSH2 0x1D9E JUMPI PUSH1 0x40 MLOAD PUSH32 0x8C379A000000000000000000000000000000000000000000000000000000000 DUP2 MSTORE PUSH1 0x4 ADD DUP1 DUP1 PUSH1 0x20 ADD DUP3 DUP2 SUB DUP3 MSTORE PUSH1 0x20 DUP2 MSTORE PUSH1 0x20 ADD DUP1 PUSH32 0x4F776E61626C653A2063616C6C6572206973206E6F7420746865206F776E6572 DUP2 MSTORE POP PUSH1 0x20 ADD SWAP2 POP POP PUSH1 0x40 MLOAD DUP1 SWAP2 SUB SWAP1 REVERT JUMPDEST PUSH2 0x7D0 PUSH2 0xFFFF AND DUP2 GT ISZERO PUSH2 0x1DFD JUMPI PUSH1 0x40 MLOAD PUSH32 0x8C379A000000000000000000000000000000000000000000000000000000000 DUP2 MSTORE PUSH1 0x4 ADD DUP1 DUP1 PUSH1 0x20 ADD DUP3 DUP2 SUB DUP3 MSTORE PUSH1 0x3A DUP2 MSTORE PUSH1 0x20 ADD DUP1 PUSH2 0x42A9 PUSH1 0x3A SWAP2 CODECOPY PUSH1 0x40 ADD SWAP2 POP POP PUSH1 0x40 MLOAD DUP1 SWAP2 SUB SWAP1 REVERT JUMPDEST PUSH1 0xC SLOAD DUP2 EQ ISZERO PUSH2 0x1E58 JUMPI PUSH1 0x40 MLOAD PUSH32 0x8C379A000000000000000000000000000000000000000000000000000000000 DUP2 MSTORE PUSH1 0x4 ADD DUP1 DUP1 PUSH1 0x20 ADD DUP3 DUP2 SUB DUP3 MSTORE PUSH1 0x28 DUP2 MSTORE PUSH1 0x20 ADD DUP1 PUSH2 0x43BC PUSH1 0x28 SWAP2 CODECOPY PUSH1 0x40 ADD SWAP2 POP POP PUSH1 0x40 MLOAD DUP1 SWAP2 SUB SWAP1 REVERT JUMPDEST PUSH1 0x0 PUSH1 0xC SLOAD SWAP1 POP DUP2 PUSH1 0xC DUP2 SWAP1 SSTORE POP PUSH32 0x3282B692BFEBF5F35B198A229212CF532C72099026AB54C4B8665382D1086B3F DUP2 DUP4 PUSH1 0x40 MLOAD DUP1 DUP4 DUP2 MSTORE PUSH1 0x20 ADD DUP3 DUP2 MSTORE PUSH1 0x20 ADD SWAP3 POP POP POP PUSH1 0x40 MLOAD DUP1 SWAP2 SUB SWAP1 LOG1 POP POP JUMP JUMPDEST PUSH1 0x4 SLOAD DUP2 JUMP JUMPDEST PUSH1 0xC SLOAD DUP2 JUMP JUMPDEST PUSH1 0x11 SLOAD DUP2 JUMP JUMPDEST PUSH2 0x1EC3 PUSH2 0x30A2 JUMP JUMPDEST PUSH20 0xFFFFFFFFFFFFFFFFFFFFFFFFFFFFFFFFFFFFFFFF AND PUSH1 0x0 DUP1 SLOAD SWAP1 PUSH2 0x100 EXP SWAP1 DIV PUSH20 0xFFFFFFFFFFFFFFFFFFFFFFFFFFFFFFFFFFFFFFFF AND PUSH20 0xFFFFFFFFFFFFFFFFFFFFFFFFFFFFFFFFFFFFFFFF AND EQ PUSH2 0x1F83 JUMPI PUSH1 0x40 MLOAD PUSH32 0x8C379A000000000000000000000000000000000000000000000000000000000 DUP2 MSTORE PUSH1 0x4 ADD DUP1 DUP1 PUSH1 0x20 ADD DUP3 DUP2 SUB DUP3 MSTORE PUSH1 0x20 DUP2 MSTORE PUSH1 0x20 ADD DUP1 PUSH32 0x4F776E61626C653A2063616C6C6572206973206E6F7420746865206F776E6572 DUP2 MSTORE POP PUSH1 0x20 ADD SWAP2 POP POP PUSH1 0x40 MLOAD DUP1 SWAP2 SUB SWAP1 REVERT JUMPDEST PUSH1 0x0 PUSH20 0xFFFFFFFFFFFFFFFFFFFFFFFFFFFFFFFFFFFFFFFF AND PUSH1 0x0 DUP1 SLOAD SWAP1 PUSH2 0x100 EXP SWAP1 DIV PUSH20 0xFFFFFFFFFFFFFFFFFFFFFFFFFFFFFFFFFFFFFFFF AND PUSH20 0xFFFFFFFFFFFFFFFFFFFFFFFFFFFFFFFFFFFFFFFF AND PUSH32 0x8BE0079C531659141344CD1FD0A4F28419497F9722A3DAAFE3B4186F6B6457E0 PUSH1 0x40 MLOAD PUSH1 0x40 MLOAD DUP1 SWAP2 SUB SWAP1 LOG3 PUSH1 0x0 DUP1 PUSH1 0x0 PUSH2 0x100 EXP DUP2 SLOAD DUP2 PUSH20 0xFFFFFFFFFFFFFFFFFFFFFFFFFFFFFFFFFFFFFFFF MUL NOT AND SWAP1 DUP4 PUSH20 0xFFFFFFFFFFFFFFFFFFFFFFFFFFFFFFFFFFFFFFFF AND MUL OR SWAP1 SSTORE POP JUMP JUMPDEST PUSH1 0x0 PUSH20 0xFFFFFFFFFFFFFFFFFFFFFFFFFFFFFFFFFFFFFFFF AND DUP2 PUSH20 0xFFFFFFFFFFFFFFFFFFFFFFFFFFFFFFFFFFFFFFFF AND EQ ISZERO PUSH2 0x20E4 JUMPI PUSH1 0x40 MLOAD PUSH32 0x8C379A000000000000000000000000000000000000000000000000000000000 DUP2 MSTORE PUSH1 0x4 ADD DUP1 DUP1 PUSH1 0x20 ADD DUP3 DUP2 SUB DUP3 MSTORE PUSH1 0x1E DUP2 MSTORE PUSH1 0x20 ADD DUP1 PUSH32 0x736574466565416464726573733A20696E76616C696420616464726573730000 DUP2 MSTORE POP PUSH1 0x20 ADD SWAP2 POP POP PUSH1 0x40 MLOAD DUP1 SWAP2 SUB SWAP1 REVERT JUMPDEST PUSH1 0x5 PUSH1 0x0 SWAP1 SLOAD SWAP1 PUSH2 0x100 EXP SWAP1 DIV PUSH20 0xFFFFFFFFFFFFFFFFFFFFFFFFFFFFFFFFFFFFFFFF AND PUSH20 0xFFFFFFFFFFFFFFFFFFFFFFFFFFFFFFFFFFFFFFFF AND CALLER PUSH20 0xFFFFFFFFFFFFFFFFFFFFFFFFFFFFFFFFFFFFFFFF AND EQ PUSH2 0x21A7 JUMPI PUSH1 0x40 MLOAD PUSH32 0x8C379A000000000000000000000000000000000000000000000000000000000 DUP2 MSTORE PUSH1 0x4 ADD DUP1 DUP1 PUSH1 0x20 ADD DUP3 DUP2 SUB DUP3 MSTORE PUSH1 0x18 DUP2 MSTORE PUSH1 0x20 ADD DUP1 PUSH32 0x736574466565416464726573733A20464F5242494444454E0000000000000000 DUP2 MSTORE POP PUSH1 0x20 ADD SWAP2 POP POP PUSH1 0x40 MLOAD DUP1 SWAP2 SUB SWAP1 REVERT JUMPDEST DUP1 PUSH1 0x5 PUSH1 0x0 PUSH2 0x100 EXP DUP2 SLOAD DUP2 PUSH20 0xFFFFFFFFFFFFFFFFFFFFFFFFFFFFFFFFFFFFFFFF MUL NOT AND SWAP1 DUP4 PUSH20 0xFFFFFFFFFFFFFFFFFFFFFFFFFFFFFFFFFFFFFFFF AND MUL OR SWAP1 SSTORE POP DUP1 PUSH20 0xFFFFFFFFFFFFFFFFFFFFFFFFFFFFFFFFFFFFFFFF AND CALLER PUSH20 0xFFFFFFFFFFFFFFFFFFFFFFFFFFFFFFFFFFFFFFFF AND PUSH32 0xD44190ACF9D04BDB5D3A1AAFFF7E6DEE8B40B93DFB8C5D3F0EEA4B9F4539C3F7 PUSH1 0x40 MLOAD PUSH1 0x40 MLOAD DUP1 SWAP2 SUB SWAP1 LOG3 POP JUMP JUMPDEST PUSH1 0x0 DUP1 PUSH1 0x0 SWAP1 SLOAD SWAP1 PUSH2 0x100 EXP SWAP1 DIV PUSH20 0xFFFFFFFFFFFFFFFFFFFFFFFFFFFFFFFFFFFFFFFF AND SWAP1 POP SWAP1 JUMP JUMPDEST PUSH1 0x0 PUSH2 0x2283 DUP4 DUP4 PUSH2 0x30AA SWAP1 SWAP2 SWAP1 PUSH4 0xFFFFFFFF AND JUMP JUMPDEST SWAP1 POP SWAP3 SWAP2 POP POP JUMP JUMPDEST PUSH1 0x2 PUSH1 0x1 SLOAD EQ ISZERO PUSH2 0x2304 JUMPI PUSH1 0x40 MLOAD PUSH32 0x8C379A000000000000000000000000000000000000000000000000000000000 DUP2 MSTORE PUSH1 0x4 ADD DUP1 DUP1 PUSH1 0x20 ADD DUP3 DUP2 SUB DUP3 MSTORE PUSH1 0x1F DUP2 MSTORE PUSH1 0x20 ADD DUP1 PUSH32 0x5265656E7472616E637947756172643A207265656E7472616E742063616C6C00 DUP2 MSTORE POP PUSH1 0x20 ADD SWAP2 POP POP PUSH1 0x40 MLOAD DUP1 SWAP2 SUB SWAP1 REVERT JUMPDEST PUSH1 0x2 PUSH1 0x1 DUP2 SWAP1 SSTORE POP DUP1 PUSH20 0xFFFFFFFFFFFFFFFFFFFFFFFFFFFFFFFFFFFFFFFF AND DUP2 PUSH20 0xFFFFFFFFFFFFFFFFFFFFFFFFFFFFFFFFFFFFFFFF AND EQ PUSH2 0x2390 JUMPI PUSH1 0x40 MLOAD PUSH32 0x8C379A000000000000000000000000000000000000000000000000000000000 DUP2 MSTORE PUSH1 0x4 ADD DUP1 DUP1 PUSH1 0x20 ADD DUP3 DUP2 SUB DUP3 MSTORE PUSH1 0x21 DUP2 MSTORE PUSH1 0x20 ADD DUP1 PUSH2 0x4355 PUSH1 0x21 SWAP2 CODECOPY PUSH1 0x40 ADD SWAP2 POP POP PUSH1 0x40 MLOAD DUP1 SWAP2 SUB SWAP1 REVERT JUMPDEST PUSH1 0x0 PUSH1 0x9 DUP5 DUP2 SLOAD DUP2 LT PUSH2 0x239F JUMPI INVALID JUMPDEST SWAP1 PUSH1 0x0 MSTORE PUSH1 0x20 PUSH1 0x0 KECCAK256 SWAP1 PUSH1 0x7 MUL ADD SWAP1 POP PUSH1 0x0 DUP2 PUSH1 0x3 ADD SLOAD GT ISZERO PUSH2 0x241A JUMPI DUP1 PUSH1 0x3 ADD SLOAD NUMBER GT ISZERO PUSH2 0x2419 JUMPI PUSH1 0x40 MLOAD PUSH32 0x8C379A000000000000000000000000000000000000000000000000000000000 DUP2 MSTORE PUSH1 0x4 ADD DUP1 DUP1 PUSH1 0x20 ADD DUP3 DUP2 SUB DUP3 MSTORE PUSH1 0x21 DUP2 MSTORE PUSH1 0x20 ADD DUP1 PUSH2 0x44A9 PUSH1 0x21 SWAP2 CODECOPY PUSH1 0x40 ADD SWAP2 POP POP PUSH1 0x40 MLOAD DUP1 SWAP2 SUB SWAP1 REVERT JUMPDEST JUMPDEST PUSH1 0x0 PUSH1 0xA PUSH1 0x0 DUP7 DUP2 MSTORE PUSH1 0x20 ADD SWAP1 DUP2 MSTORE PUSH1 0x20 ADD PUSH1 0x0 KECCAK256 PUSH1 0x0 CALLER PUSH20 0xFFFFFFFFFFFFFFFFFFFFFFFFFFFFFFFFFFFFFFFF AND PUSH20 0xFFFFFFFFFFFFFFFFFFFFFFFFFFFFFFFFFFFFFFFF AND DUP2 MSTORE PUSH1 0x20 ADD SWAP1 DUP2 MSTORE PUSH1 0x20 ADD PUSH1 0x0 KECCAK256 SWAP1 POP PUSH2 0x2477 DUP6 PUSH2 0x1772 JUMP JUMPDEST PUSH2 0x2480 DUP6 PUSH2 0x317C JUMP JUMPDEST PUSH1 0x0 DUP5 GT DUP1 ISZERO PUSH2 0x24BD JUMPI POP PUSH1 0x0 PUSH20 0xFFFFFFFFFFFFFFFFFFFFFFFFFFFFFFFFFFFFFFFF AND DUP4 PUSH20 0xFFFFFFFFFFFFFFFFFFFFFFFFFFFFFFFFFFFFFFFF AND EQ ISZERO JUMPDEST DUP1 ISZERO PUSH2 0x24F5 JUMPI POP CALLER PUSH20 0xFFFFFFFFFFFFFFFFFFFFFFFFFFFFFFFFFFFFFFFF AND DUP4 PUSH20 0xFFFFFFFFFFFFFFFFFFFFFFFFFFFFFFFFFFFFFFFF AND EQ ISZERO JUMPDEST ISZERO PUSH2 0x2505 JUMPI PUSH2 0x2504 CALLER DUP5 PUSH2 0x3499 JUMP JUMPDEST JUMPDEST PUSH1 0x0 DUP5 GT ISZERO PUSH2 0x2688 JUMPI PUSH2 0x255F CALLER ADDRESS DUP7 DUP6 PUSH1 0x0 ADD PUSH1 0x0 SWAP1 SLOAD SWAP1 PUSH2 0x100 EXP SWAP1 DIV PUSH20 0xFFFFFFFFFFFFFFFFFFFFFFFFFFFFFFFFFFFFFFFF AND PUSH20 0xFFFFFFFFFFFFFFFFFFFFFFFFFFFFFFFFFFFFFFFF AND PUSH2 0x3700 SWAP1 SWAP4 SWAP3 SWAP2 SWAP1 PUSH4 0xFFFFFFFF AND JUMP JUMPDEST PUSH1 0x0 DUP3 PUSH1 0x6 ADD PUSH1 0x0 SWAP1 SLOAD SWAP1 PUSH2 0x100 EXP SWAP1 DIV PUSH2 0xFFFF AND PUSH2 0xFFFF AND GT ISZERO PUSH2 0x2667 JUMPI PUSH1 0x0 PUSH2 0x25BD PUSH2 0x2710 PUSH2 0x25AF DUP6 PUSH1 0x6 ADD PUSH1 0x0 SWAP1 SLOAD SWAP1 PUSH2 0x100 EXP SWAP1 DIV PUSH2 0xFFFF AND PUSH2 0xFFFF AND DUP9 PUSH2 0x3373 SWAP1 SWAP2 SWAP1 PUSH4 0xFFFFFFFF AND JUMP JUMPDEST PUSH2 0x33F9 SWAP1 SWAP2 SWAP1 PUSH4 0xFFFFFFFF AND JUMP JUMPDEST SWAP1 POP PUSH2 0x25E8 DUP2 PUSH2 0x25DA DUP8 DUP6 PUSH1 0x0 ADD SLOAD PUSH2 0x30F4 SWAP1 SWAP2 SWAP1 PUSH4 0xFFFFFFFF AND JUMP JUMPDEST PUSH2 0x30AA SWAP1 SWAP2 SWAP1 PUSH4 0xFFFFFFFF AND JUMP JUMPDEST DUP3 PUSH1 0x0 ADD DUP2 SWAP1 SSTORE POP PUSH2 0x2661 PUSH1 0x5 PUSH1 0x0 SWAP1 SLOAD SWAP1 PUSH2 0x100 EXP SWAP1 DIV PUSH20 0xFFFFFFFFFFFFFFFFFFFFFFFFFFFFFFFFFFFFFFFF AND DUP3 DUP6 PUSH1 0x0 ADD PUSH1 0x0 SWAP1 SLOAD SWAP1 PUSH2 0x100 EXP SWAP1 DIV PUSH20 0xFFFFFFFFFFFFFFFFFFFFFFFFFFFFFFFFFFFFFFFF AND PUSH20 0xFFFFFFFFFFFFFFFFFFFFFFFFFFFFFFFFFFFFFFFF AND PUSH2 0x32D1 SWAP1 SWAP3 SWAP2 SWAP1 PUSH4 0xFFFFFFFF AND JUMP JUMPDEST POP PUSH2 0x2687 JUMP JUMPDEST PUSH2 0x267E DUP5 DUP3 PUSH1 0x0 ADD SLOAD PUSH2 0x30F4 SWAP1 SWAP2 SWAP1 PUSH4 0xFFFFFFFF AND JUMP JUMPDEST DUP2 PUSH1 0x0 ADD DUP2 SWAP1 SSTORE POP JUMPDEST JUMPDEST PUSH2 0x26BA PUSH5 0xE8D4A51000 PUSH2 0x26AC DUP5 PUSH1 0x5 ADD SLOAD DUP5 PUSH1 0x0 ADD SLOAD PUSH2 0x3373 SWAP1 SWAP2 SWAP1 PUSH4 0xFFFFFFFF AND JUMP JUMPDEST PUSH2 0x33F9 SWAP1 SWAP2 SWAP1 PUSH4 0xFFFFFFFF AND JUMP JUMPDEST DUP2 PUSH1 0x1 ADD DUP2 SWAP1 SSTORE POP DUP5 CALLER PUSH20 0xFFFFFFFFFFFFFFFFFFFFFFFFFFFFFFFFFFFFFFFF AND PUSH32 0x90890809C654F11D6E72A28FA60149770A0D11EC6C92319D6CEB2BB0A4EA1A15 DUP7 PUSH1 0x40 MLOAD DUP1 DUP3 DUP2 MSTORE PUSH1 0x20 ADD SWAP2 POP POP PUSH1 0x40 MLOAD DUP1 SWAP2 SUB SWAP1 LOG3 POP POP PUSH1 0x1 DUP1 DUP2 SWAP1 SSTORE POP POP POP POP JUMP JUMPDEST PUSH8 0x6F05B59D3B20000 DUP2 JUMP JUMPDEST PUSH1 0xA PUSH1 0x20 MSTORE DUP2 PUSH1 0x0 MSTORE PUSH1 0x40 PUSH1 0x0 KECCAK256 PUSH1 0x20 MSTORE DUP1 PUSH1 0x0 MSTORE PUSH1 0x40 PUSH1 0x0 KECCAK256 PUSH1 0x0 SWAP2 POP SWAP2 POP POP DUP1 PUSH1 0x0 ADD SLOAD SWAP1 DUP1 PUSH1 0x1 ADD SLOAD SWAP1 DUP1 PUSH1 0x2 ADD SLOAD SWAP1 POP DUP4 JUMP JUMPDEST PUSH2 0x190 DUP2 JUMP JUMPDEST PUSH1 0x10 PUSH1 0x20 MSTORE DUP1 PUSH1 0x0 MSTORE PUSH1 0x40 PUSH1 0x0 KECCAK256 PUSH1 0x0 SWAP2 POP SWAP1 POP SLOAD DUP2 JUMP JUMPDEST PUSH1 0x7 SLOAD DUP2 JUMP JUMPDEST PUSH2 0x278E PUSH2 0x30A2 JUMP JUMPDEST PUSH20 0xFFFFFFFFFFFFFFFFFFFFFFFFFFFFFFFFFFFFFFFF AND PUSH1 0x0 DUP1 SLOAD SWAP1 PUSH2 0x100 EXP SWAP1 DIV PUSH20 0xFFFFFFFFFFFFFFFFFFFFFFFFFFFFFFFFFFFFFFFF AND PUSH20 0xFFFFFFFFFFFFFFFFFFFFFFFFFFFFFFFFFFFFFFFF AND EQ PUSH2 0x284E JUMPI PUSH1 0x40 MLOAD PUSH32 0x8C379A000000000000000000000000000000000000000000000000000000000 DUP2 MSTORE PUSH1 0x4 ADD DUP1 DUP1 PUSH1 0x20 ADD DUP3 DUP2 SUB DUP3 MSTORE PUSH1 0x20 DUP2 MSTORE PUSH1 0x20 ADD DUP1 PUSH32 0x4F776E61626C653A2063616C6C6572206973206E6F7420746865206F776E6572 DUP2 MSTORE POP PUSH1 0x20 ADD SWAP2 POP POP PUSH1 0x40 MLOAD DUP1 SWAP2 SUB SWAP1 REVERT JUMPDEST PUSH1 0x0 PUSH1 0x4 SLOAD SWAP1 POP DUP2 PUSH1 0x4 DUP2 SWAP1 SSTORE POP PUSH2 0x2864 PUSH2 0x1CA9 JUMP JUMPDEST CALLER PUSH20 0xFFFFFFFFFFFFFFFFFFFFFFFFFFFFFFFFFFFFFFFF AND PUSH32 0xEEDC6338C9C1AD8F3CD6C90DD09DBE98DBD57E610D3E59A17996D07ACB0D9511 DUP3 DUP5 PUSH1 0x40 MLOAD DUP1 DUP4 DUP2 MSTORE PUSH1 0x20 ADD DUP3 DUP2 MSTORE PUSH1 0x20 ADD SWAP3 POP POP POP PUSH1 0x40 MLOAD DUP1 SWAP2 SUB SWAP1 LOG2 POP POP JUMP JUMPDEST PUSH1 0x2 PUSH1 0x0 SWAP1 SLOAD SWAP1 PUSH2 0x100 EXP SWAP1 DIV PUSH20 0xFFFFFFFFFFFFFFFFFFFFFFFFFFFFFFFFFFFFFFFF AND DUP2 JUMP JUMPDEST PUSH2 0x5DC DUP2 JUMP JUMPDEST PUSH1 0x0 DUP1 PUSH1 0x9 DUP4 DUP2 SLOAD DUP2 LT PUSH2 0x28FA JUMPI INVALID JUMPDEST SWAP1 PUSH1 0x0 MSTORE PUSH1 0x20 PUSH1 0x0 KECCAK256 SWAP1 PUSH1 0x7 MUL ADD SWAP1 POP NUMBER DUP2 PUSH1 0x2 ADD SLOAD GT ISZERO SWAP2 POP POP SWAP2 SWAP1 POP JUMP JUMPDEST PUSH1 0xF PUSH1 0x20 MSTORE DUP1 PUSH1 0x0 MSTORE PUSH1 0x40 PUSH1 0x0 KECCAK256 PUSH1 0x0 SWAP2 POP SLOAD SWAP1 PUSH2 0x100 EXP SWAP1 DIV PUSH1 0xFF AND DUP2 JUMP JUMPDEST PUSH1 0x0 PUSH20 0xFFFFFFFFFFFFFFFFFFFFFFFFFFFFFFFFFFFFFFFF AND DUP2 PUSH20 0xFFFFFFFFFFFFFFFFFFFFFFFFFFFFFFFFFFFFFFFF AND EQ ISZERO PUSH2 0x29DD JUMPI PUSH1 0x40 MLOAD PUSH32 0x8C379A000000000000000000000000000000000000000000000000000000000 DUP2 MSTORE PUSH1 0x4 ADD DUP1 DUP1 PUSH1 0x20 ADD DUP3 DUP2 SUB DUP3 MSTORE PUSH1 0x14 DUP2 MSTORE PUSH1 0x20 ADD DUP1 PUSH32 0x6465763A20696E76616C69642061646472657373000000000000000000000000 DUP2 MSTORE POP PUSH1 0x20 ADD SWAP2 POP POP PUSH1 0x40 MLOAD DUP1 SWAP2 SUB SWAP1 REVERT JUMPDEST PUSH1 0x3 PUSH1 0x0 SWAP1 SLOAD SWAP1 PUSH2 0x100 EXP SWAP1 DIV PUSH20 0xFFFFFFFFFFFFFFFFFFFFFFFFFFFFFFFFFFFFFFFF AND PUSH20 0xFFFFFFFFFFFFFFFFFFFFFFFFFFFFFFFFFFFFFFFF AND CALLER PUSH20 0xFFFFFFFFFFFFFFFFFFFFFFFFFFFFFFFFFFFFFFFF AND EQ PUSH2 0x2AA0 JUMPI PUSH1 0x40 MLOAD PUSH32 0x8C379A000000000000000000000000000000000000000000000000000000000 DUP2 MSTORE PUSH1 0x4 ADD DUP1 DUP1 PUSH1 0x20 ADD DUP3 DUP2 SUB DUP3 MSTORE PUSH1 0x9 DUP2 MSTORE PUSH1 0x20 ADD DUP1 PUSH32 0x6465763A207775743F0000000000000000000000000000000000000000000000 DUP2 MSTORE POP PUSH1 0x20 ADD SWAP2 POP POP PUSH1 0x40 MLOAD DUP1 SWAP2 SUB SWAP1 REVERT JUMPDEST DUP1 PUSH1 0x3 PUSH1 0x0 PUSH2 0x100 EXP DUP2 SLOAD DUP2 PUSH20 0xFFFFFFFFFFFFFFFFFFFFFFFFFFFFFFFFFFFFFFFF MUL NOT AND SWAP1 DUP4 PUSH20 0xFFFFFFFFFFFFFFFFFFFFFFFFFFFFFFFFFFFFFFFF AND MUL OR SWAP1 SSTORE POP DUP1 PUSH20 0xFFFFFFFFFFFFFFFFFFFFFFFFFFFFFFFFFFFFFFFF AND CALLER PUSH20 0xFFFFFFFFFFFFFFFFFFFFFFFFFFFFFFFFFFFFFFFF AND PUSH32 0x618C54559E94F1499A808AAD71EE8729F8E74E8C48E979616328CE493A1A52E7 PUSH1 0x40 MLOAD PUSH1 0x40 MLOAD DUP1 SWAP2 SUB SWAP1 LOG3 POP JUMP JUMPDEST PUSH2 0x7080 DUP2 JUMP JUMPDEST PUSH1 0x3 PUSH1 0x0 SWAP1 SLOAD SWAP1 PUSH2 0x100 EXP SWAP1 DIV PUSH20 0xFFFFFFFFFFFFFFFFFFFFFFFFFFFFFFFFFFFFFFFF AND DUP2 JUMP JUMPDEST PUSH1 0x0 DUP1 PUSH1 0x9 DUP5 DUP2 SLOAD DUP2 LT PUSH2 0x2B7A JUMPI INVALID JUMPDEST SWAP1 PUSH1 0x0 MSTORE PUSH1 0x20 PUSH1 0x0 KECCAK256 SWAP1 PUSH1 0x7 MUL ADD SWAP1 POP PUSH1 0x0 PUSH1 0xA PUSH1 0x0 DUP7 DUP2 MSTORE PUSH1 0x20 ADD SWAP1 DUP2 MSTORE PUSH1 0x20 ADD PUSH1 0x0 KECCAK256 PUSH1 0x0 DUP6 PUSH20 0xFFFFFFFFFFFFFFFFFFFFFFFFFFFFFFFFFFFFFFFF AND PUSH20 0xFFFFFFFFFFFFFFFFFFFFFFFFFFFFFFFFFFFFFFFF AND DUP2 MSTORE PUSH1 0x20 ADD SWAP1 DUP2 MSTORE PUSH1 0x20 ADD PUSH1 0x0 KECCAK256 SWAP1 POP PUSH1 0x0 DUP3 PUSH1 0x5 ADD SLOAD SWAP1 POP PUSH1 0x0 DUP4 PUSH1 0x0 ADD PUSH1 0x0 SWAP1 SLOAD SWAP1 PUSH2 0x100 EXP SWAP1 DIV PUSH20 0xFFFFFFFFFFFFFFFFFFFFFFFFFFFFFFFFFFFFFFFF AND PUSH20 0xFFFFFFFFFFFFFFFFFFFFFFFFFFFFFFFFFFFFFFFF AND PUSH4 0x70A08231 ADDRESS PUSH1 0x40 MLOAD DUP3 PUSH4 0xFFFFFFFF AND PUSH1 0xE0 SHL DUP2 MSTORE PUSH1 0x4 ADD DUP1 DUP3 PUSH20 0xFFFFFFFFFFFFFFFFFFFFFFFFFFFFFFFFFFFFFFFF AND DUP2 MSTORE PUSH1 0x20 ADD SWAP2 POP POP PUSH1 0x20 PUSH1 0x40 MLOAD DUP1 DUP4 SUB DUP2 DUP7 DUP1 EXTCODESIZE ISZERO DUP1 ISZERO PUSH2 0x2C74 JUMPI PUSH1 0x0 DUP1 REVERT JUMPDEST POP GAS STATICCALL ISZERO DUP1 ISZERO PUSH2 0x2C88 JUMPI RETURNDATASIZE PUSH1 0x0 DUP1 RETURNDATACOPY RETURNDATASIZE PUSH1 0x0 REVERT JUMPDEST POP POP POP POP PUSH1 0x40 MLOAD RETURNDATASIZE PUSH1 0x20 DUP2 LT ISZERO PUSH2 0x2C9E JUMPI PUSH1 0x0 DUP1 REVERT JUMPDEST DUP2 ADD SWAP1 DUP1 DUP1 MLOAD SWAP1 PUSH1 0x20 ADD SWAP1 SWAP3 SWAP2 SWAP1 POP POP POP SWAP1 POP PUSH1 0x0 PUSH2 0x2CBC DUP9 PUSH2 0x3443 JUMP JUMPDEST SWAP1 POP DUP5 PUSH1 0x4 ADD SLOAD DUP2 GT DUP1 ISZERO PUSH2 0x2CD2 JUMPI POP PUSH1 0x0 DUP3 EQ ISZERO JUMPDEST ISZERO PUSH2 0x2D6D JUMPI PUSH1 0x0 PUSH2 0x2CE7 DUP7 PUSH1 0x4 ADD SLOAD DUP4 PUSH2 0x226E JUMP JUMPDEST SWAP1 POP PUSH1 0x0 PUSH2 0x2D2A PUSH1 0xB SLOAD PUSH2 0x2D1C DUP10 PUSH1 0x1 ADD SLOAD PUSH2 0x2D0E PUSH1 0x4 SLOAD DUP8 PUSH2 0x3373 SWAP1 SWAP2 SWAP1 PUSH4 0xFFFFFFFF AND JUMP JUMPDEST PUSH2 0x3373 SWAP1 SWAP2 SWAP1 PUSH4 0xFFFFFFFF AND JUMP JUMPDEST PUSH2 0x33F9 SWAP1 SWAP2 SWAP1 PUSH4 0xFFFFFFFF AND JUMP JUMPDEST SWAP1 POP PUSH2 0x2D68 PUSH2 0x2D59 DUP6 PUSH2 0x2D4B PUSH5 0xE8D4A51000 DUP6 PUSH2 0x3373 SWAP1 SWAP2 SWAP1 PUSH4 0xFFFFFFFF AND JUMP JUMPDEST PUSH2 0x33F9 SWAP1 SWAP2 SWAP1 PUSH4 0xFFFFFFFF AND JUMP JUMPDEST DUP7 PUSH2 0x30F4 SWAP1 SWAP2 SWAP1 PUSH4 0xFFFFFFFF AND JUMP JUMPDEST SWAP5 POP POP POP JUMPDEST PUSH1 0x0 PUSH2 0x2DB3 DUP6 PUSH1 0x1 ADD SLOAD PUSH2 0x2DA5 PUSH5 0xE8D4A51000 PUSH2 0x2D97 DUP9 DUP11 PUSH1 0x0 ADD SLOAD PUSH2 0x3373 SWAP1 SWAP2 SWAP1 PUSH4 0xFFFFFFFF AND JUMP JUMPDEST PUSH2 0x33F9 SWAP1 SWAP2 SWAP1 PUSH4 0xFFFFFFFF AND JUMP JUMPDEST PUSH2 0x30AA SWAP1 SWAP2 SWAP1 PUSH4 0xFFFFFFFF AND JUMP JUMPDEST SWAP1 POP PUSH2 0x2DCC DUP6 PUSH1 0x2 ADD SLOAD DUP3 PUSH2 0x30F4 SWAP1 SWAP2 SWAP1 PUSH4 0xFFFFFFFF AND JUMP JUMPDEST SWAP7 POP POP POP POP POP POP POP SWAP3 SWAP2 POP POP JUMP JUMPDEST PUSH1 0x6 SLOAD NUMBER GT PUSH2 0x2E34 JUMPI PUSH1 0x40 MLOAD PUSH32 0x8C379A000000000000000000000000000000000000000000000000000000000 DUP2 MSTORE PUSH1 0x4 ADD DUP1 DUP1 PUSH1 0x20 ADD DUP3 DUP2 SUB DUP3 MSTORE PUSH1 0x52 DUP2 MSTORE PUSH1 0x20 ADD DUP1 PUSH2 0x43E4 PUSH1 0x52 SWAP2 CODECOPY PUSH1 0x60 ADD SWAP2 POP POP PUSH1 0x40 MLOAD DUP1 SWAP2 SUB SWAP1 REVERT JUMPDEST PUSH8 0x16345785D8A0000 PUSH1 0x4 SLOAD GT PUSH2 0x2E96 JUMPI PUSH1 0x40 MLOAD PUSH32 0x8C379A000000000000000000000000000000000000000000000000000000000 DUP2 MSTORE PUSH1 0x4 ADD DUP1 DUP1 PUSH1 0x20 ADD DUP3 DUP2 SUB DUP3 MSTORE PUSH1 0x52 DUP2 MSTORE PUSH1 0x20 ADD DUP1 PUSH2 0x4457 PUSH1 0x52 SWAP2 CODECOPY PUSH1 0x60 ADD SWAP2 POP POP PUSH1 0x40 MLOAD DUP1 SWAP2 SUB SWAP1 REVERT JUMPDEST PUSH1 0x0 PUSH2 0x2EC1 PUSH2 0x7080 PUSH2 0x2EB3 PUSH1 0x6 SLOAD NUMBER PUSH2 0x30AA SWAP1 SWAP2 SWAP1 PUSH4 0xFFFFFFFF AND JUMP JUMPDEST PUSH2 0x33F9 SWAP1 SWAP2 SWAP1 PUSH4 0xFFFFFFFF AND JUMP JUMPDEST SWAP1 POP PUSH1 0x11 SLOAD DUP2 GT PUSH2 0x2ED2 JUMPI POP PUSH2 0x2FCC JUMP JUMPDEST PUSH1 0x0 PUSH1 0x4 SLOAD SWAP1 POP PUSH1 0x0 PUSH1 0x11 SLOAD SWAP1 POP JUMPDEST DUP3 DUP2 LT ISZERO PUSH2 0x2F23 JUMPI PUSH2 0x2F16 PUSH2 0x2710 PUSH2 0x2F08 PUSH2 0x5DC PUSH2 0x2710 SUB DUP6 PUSH2 0x3373 SWAP1 SWAP2 SWAP1 PUSH4 0xFFFFFFFF AND JUMP JUMPDEST PUSH2 0x33F9 SWAP1 SWAP2 SWAP1 PUSH4 0xFFFFFFFF AND JUMP JUMPDEST SWAP2 POP DUP1 PUSH1 0x1 ADD SWAP1 POP PUSH2 0x2EE1 JUMP JUMPDEST POP PUSH8 0x16345785D8A0000 DUP2 LT PUSH2 0x2F39 JUMPI DUP1 PUSH2 0x2F43 JUMP JUMPDEST PUSH8 0x16345785D8A0000 JUMPDEST SWAP1 POP PUSH1 0x4 SLOAD DUP2 LT PUSH2 0x2F55 JUMPI POP POP PUSH2 0x2FCC JUMP JUMPDEST PUSH2 0x2F5D PUSH2 0x1CA9 JUMP JUMPDEST DUP2 PUSH1 0x11 DUP2 SWAP1 SSTORE POP PUSH1 0x0 PUSH1 0x4 SLOAD SWAP1 POP DUP2 PUSH1 0x4 DUP2 SWAP1 SSTORE POP CALLER PUSH20 0xFFFFFFFFFFFFFFFFFFFFFFFFFFFFFFFFFFFFFFFF AND PUSH32 0xEEDC6338C9C1AD8F3CD6C90DD09DBE98DBD57E610D3E59A17996D07ACB0D9511 DUP3 DUP5 PUSH1 0x40 MLOAD DUP1 DUP4 DUP2 MSTORE PUSH1 0x20 ADD DUP3 DUP2 MSTORE PUSH1 0x20 ADD SWAP3 POP POP POP PUSH1 0x40 MLOAD DUP1 SWAP2 SUB SWAP1 LOG2 POP POP POP JUMPDEST JUMP JUMPDEST PUSH2 0x2FD6 PUSH2 0x30A2 JUMP JUMPDEST PUSH20 0xFFFFFFFFFFFFFFFFFFFFFFFFFFFFFFFFFFFFFFFF AND PUSH1 0x0 DUP1 SLOAD SWAP1 PUSH2 0x100 EXP SWAP1 DIV PUSH20 0xFFFFFFFFFFFFFFFFFFFFFFFFFFFFFFFFFFFFFFFF AND PUSH20 0xFFFFFFFFFFFFFFFFFFFFFFFFFFFFFFFFFFFFFFFF AND EQ PUSH2 0x3096 JUMPI PUSH1 0x40 MLOAD PUSH32 0x8C379A000000000000000000000000000000000000000000000000000000000 DUP2 MSTORE PUSH1 0x4 ADD DUP1 DUP1 PUSH1 0x20 ADD DUP3 DUP2 SUB DUP3 MSTORE PUSH1 0x20 DUP2 MSTORE PUSH1 0x20 ADD DUP1 PUSH32 0x4F776E61626C653A2063616C6C6572206973206E6F7420746865206F776E6572 DUP2 MSTORE POP PUSH1 0x20 ADD SWAP2 POP POP PUSH1 0x40 MLOAD DUP1 SWAP2 SUB SWAP1 REVERT JUMPDEST PUSH2 0x309F DUP2 PUSH2 0x37C1 JUMP JUMPDEST POP JUMP JUMPDEST PUSH1 0x0 CALLER SWAP1 POP SWAP1 JUMP JUMPDEST PUSH1 0x0 PUSH2 0x30EC DUP4 DUP4 PUSH1 0x40 MLOAD DUP1 PUSH1 0x40 ADD PUSH1 0x40 MSTORE DUP1 PUSH1 0x1E DUP2 MSTORE PUSH1 0x20 ADD PUSH32 0x536166654D6174683A207375627472616374696F6E206F766572666C6F770000 DUP2 MSTORE POP PUSH2 0x3904 JUMP JUMPDEST SWAP1 POP SWAP3 SWAP2 POP POP JUMP JUMPDEST PUSH1 0x0 DUP1 DUP3 DUP5 ADD SWAP1 POP DUP4 DUP2 LT ISZERO PUSH2 0x3172 JUMPI PUSH1 0x40 MLOAD PUSH32 0x8C379A000000000000000000000000000000000000000000000000000000000 DUP2 MSTORE PUSH1 0x4 ADD DUP1 DUP1 PUSH1 0x20 ADD DUP3 DUP2 SUB DUP3 MSTORE PUSH1 0x1B DUP2 MSTORE PUSH1 0x20 ADD DUP1 PUSH32 0x536166654D6174683A206164646974696F6E206F766572666C6F770000000000 DUP2 MSTORE POP PUSH1 0x20 ADD SWAP2 POP POP PUSH1 0x40 MLOAD DUP1 SWAP2 SUB SWAP1 REVERT JUMPDEST DUP1 SWAP2 POP POP SWAP3 SWAP2 POP POP JUMP JUMPDEST PUSH1 0x0 PUSH1 0x9 DUP3 DUP2 SLOAD DUP2 LT PUSH2 0x318B JUMPI INVALID JUMPDEST SWAP1 PUSH1 0x0 MSTORE PUSH1 0x20 PUSH1 0x0 KECCAK256 SWAP1 PUSH1 0x7 MUL ADD SWAP1 POP PUSH1 0x0 PUSH1 0xA PUSH1 0x0 DUP5 DUP2 MSTORE PUSH1 0x20 ADD SWAP1 DUP2 MSTORE PUSH1 0x20 ADD PUSH1 0x0 KECCAK256 PUSH1 0x0 CALLER PUSH20 0xFFFFFFFFFFFFFFFFFFFFFFFFFFFFFFFFFFFFFFFF AND PUSH20 0xFFFFFFFFFFFFFFFFFFFFFFFFFFFFFFFFFFFFFFFF AND DUP2 MSTORE PUSH1 0x20 ADD SWAP1 DUP2 MSTORE PUSH1 0x20 ADD PUSH1 0x0 KECCAK256 SWAP1 POP PUSH1 0x0 PUSH2 0x3239 DUP3 PUSH1 0x1 ADD SLOAD PUSH2 0x322B PUSH5 0xE8D4A51000 PUSH2 0x321D DUP8 PUSH1 0x5 ADD SLOAD DUP8 PUSH1 0x0 ADD SLOAD PUSH2 0x3373 SWAP1 SWAP2 SWAP1 PUSH4 0xFFFFFFFF AND JUMP JUMPDEST PUSH2 0x33F9 SWAP1 SWAP2 SWAP1 PUSH4 0xFFFFFFFF AND JUMP JUMPDEST PUSH2 0x30AA SWAP1 SWAP2 SWAP1 PUSH4 0xFFFFFFFF AND JUMP JUMPDEST SWAP1 POP PUSH2 0x3244 DUP5 PUSH2 0x28EA JUMP JUMPDEST ISZERO PUSH2 0x32A1 JUMPI PUSH1 0x0 DUP2 GT DUP1 PUSH2 0x325C JUMPI POP PUSH1 0x0 DUP3 PUSH1 0x2 ADD SLOAD GT JUMPDEST ISZERO PUSH2 0x329C JUMPI PUSH1 0x0 PUSH2 0x327A DUP4 PUSH1 0x2 ADD SLOAD DUP4 PUSH2 0x30F4 SWAP1 SWAP2 SWAP1 PUSH4 0xFFFFFFFF AND JUMP JUMPDEST SWAP1 POP PUSH1 0x0 DUP4 PUSH1 0x2 ADD DUP2 SWAP1 SSTORE POP PUSH2 0x3290 CALLER DUP3 PUSH2 0x39C4 JUMP JUMPDEST PUSH2 0x329A CALLER DUP3 PUSH2 0x3C98 JUMP JUMPDEST POP JUMPDEST PUSH2 0x32CB JUMP JUMPDEST PUSH1 0x0 DUP2 GT ISZERO PUSH2 0x32CA JUMPI PUSH2 0x32C1 DUP2 DUP4 PUSH1 0x2 ADD SLOAD PUSH2 0x30F4 SWAP1 SWAP2 SWAP1 PUSH4 0xFFFFFFFF AND JUMP JUMPDEST DUP3 PUSH1 0x2 ADD DUP2 SWAP1 SSTORE POP JUMPDEST JUMPDEST POP POP POP POP JUMP JUMPDEST PUSH2 0x336E DUP4 PUSH4 0xA9059CBB PUSH1 0xE0 SHL DUP5 DUP5 PUSH1 0x40 MLOAD PUSH1 0x24 ADD DUP1 DUP4 PUSH20 0xFFFFFFFFFFFFFFFFFFFFFFFFFFFFFFFFFFFFFFFF AND DUP2 MSTORE PUSH1 0x20 ADD DUP3 DUP2 MSTORE PUSH1 0x20 ADD SWAP3 POP POP POP PUSH1 0x40 MLOAD PUSH1 0x20 DUP2 DUP4 SUB SUB DUP2 MSTORE SWAP1 PUSH1 0x40 MSTORE SWAP1 PUSH28 0xFFFFFFFFFFFFFFFFFFFFFFFFFFFFFFFFFFFFFFFFFFFFFFFFFFFFFFFF NOT AND PUSH1 0x20 DUP3 ADD DUP1 MLOAD PUSH28 0xFFFFFFFFFFFFFFFFFFFFFFFFFFFFFFFFFFFFFFFFFFFFFFFFFFFFFFFF DUP4 DUP2 DUP4 AND OR DUP4 MSTORE POP POP POP POP PUSH2 0x3E65 JUMP JUMPDEST POP POP POP JUMP JUMPDEST PUSH1 0x0 DUP1 DUP4 EQ ISZERO PUSH2 0x3386 JUMPI PUSH1 0x0 SWAP1 POP PUSH2 0x33F3 JUMP JUMPDEST PUSH1 0x0 DUP3 DUP5 MUL SWAP1 POP DUP3 DUP5 DUP3 DUP2 PUSH2 0x3397 JUMPI INVALID JUMPDEST DIV EQ PUSH2 0x33EE JUMPI PUSH1 0x40 MLOAD PUSH32 0x8C379A000000000000000000000000000000000000000000000000000000000 DUP2 MSTORE PUSH1 0x4 ADD DUP1 DUP1 PUSH1 0x20 ADD DUP3 DUP2 SUB DUP3 MSTORE PUSH1 0x21 DUP2 MSTORE PUSH1 0x20 ADD DUP1 PUSH2 0x4376 PUSH1 0x21 SWAP2 CODECOPY PUSH1 0x40 ADD SWAP2 POP POP PUSH1 0x40 MLOAD DUP1 SWAP2 SUB SWAP1 REVERT JUMPDEST DUP1 SWAP2 POP POP JUMPDEST SWAP3 SWAP2 POP POP JUMP JUMPDEST PUSH1 0x0 PUSH2 0x343B DUP4 DUP4 PUSH1 0x40 MLOAD DUP1 PUSH1 0x40 ADD PUSH1 0x40 MSTORE DUP1 PUSH1 0x1A DUP2 MSTORE PUSH1 0x20 ADD PUSH32 0x536166654D6174683A206469766973696F6E206279207A65726F000000000000 DUP2 MSTORE POP PUSH2 0x3F54 JUMP JUMPDEST SWAP1 POP SWAP3 SWAP2 POP POP JUMP JUMPDEST PUSH1 0x0 DUP1 PUSH1 0x9 DUP4 DUP2 SLOAD DUP2 LT PUSH2 0x3453 JUMPI INVALID JUMPDEST SWAP1 PUSH1 0x0 MSTORE PUSH1 0x20 PUSH1 0x0 KECCAK256 SWAP1 PUSH1 0x7 MUL ADD SWAP1 POP PUSH1 0x0 DUP2 PUSH1 0x3 ADD SLOAD EQ ISZERO PUSH2 0x3479 JUMPI NUMBER SWAP2 POP POP PUSH2 0x3494 JUMP JUMPDEST DUP1 PUSH1 0x3 ADD SLOAD NUMBER GT PUSH2 0x348A JUMPI NUMBER PUSH2 0x3490 JUMP JUMPDEST DUP1 PUSH1 0x3 ADD SLOAD JUMPDEST SWAP2 POP POP JUMPDEST SWAP2 SWAP1 POP JUMP JUMPDEST DUP1 PUSH20 0xFFFFFFFFFFFFFFFFFFFFFFFFFFFFFFFFFFFFFFFF AND DUP2 PUSH20 0xFFFFFFFFFFFFFFFFFFFFFFFFFFFFFFFFFFFFFFFF AND EQ DUP1 ISZERO PUSH2 0x355F JUMPI POP PUSH1 0x0 PUSH20 0xFFFFFFFFFFFFFFFFFFFFFFFFFFFFFFFFFFFFFFFF AND PUSH1 0xD PUSH1 0x0 DUP5 PUSH20 0xFFFFFFFFFFFFFFFFFFFFFFFFFFFFFFFFFFFFFFFF AND PUSH20 0xFFFFFFFFFFFFFFFFFFFFFFFFFFFFFFFFFFFFFFFF AND DUP2 MSTORE PUSH1 0x20 ADD SWAP1 DUP2 MSTORE PUSH1 0x20 ADD PUSH1 0x0 KECCAK256 PUSH1 0x0 SWAP1 SLOAD SWAP1 PUSH2 0x100 EXP SWAP1 DIV PUSH20 0xFFFFFFFFFFFFFFFFFFFFFFFFFFFFFFFFFFFFFFFF AND PUSH20 0xFFFFFFFFFFFFFFFFFFFFFFFFFFFFFFFFFFFFFFFF AND EQ JUMPDEST DUP1 ISZERO PUSH2 0x3598 JUMPI POP PUSH1 0x0 PUSH20 0xFFFFFFFFFFFFFFFFFFFFFFFFFFFFFFFFFFFFFFFF AND DUP2 PUSH20 0xFFFFFFFFFFFFFFFFFFFFFFFFFFFFFFFFFFFFFFFF AND EQ ISZERO JUMPDEST DUP1 ISZERO PUSH2 0x35D0 JUMPI POP DUP2 PUSH20 0xFFFFFFFFFFFFFFFFFFFFFFFFFFFFFFFFFFFFFFFF AND DUP2 PUSH20 0xFFFFFFFFFFFFFFFFFFFFFFFFFFFFFFFFFFFFFFFF AND EQ ISZERO JUMPDEST ISZERO PUSH2 0x36FC JUMPI DUP1 PUSH1 0xD PUSH1 0x0 DUP5 PUSH20 0xFFFFFFFFFFFFFFFFFFFFFFFFFFFFFFFFFFFFFFFF AND PUSH20 0xFFFFFFFFFFFFFFFFFFFFFFFFFFFFFFFFFFFFFFFF AND DUP2 MSTORE PUSH1 0x20 ADD SWAP1 DUP2 MSTORE PUSH1 0x20 ADD PUSH1 0x0 KECCAK256 PUSH1 0x0 PUSH2 0x100 EXP DUP2 SLOAD DUP2 PUSH20 0xFFFFFFFFFFFFFFFFFFFFFFFFFFFFFFFFFFFFFFFF MUL NOT AND SWAP1 DUP4 PUSH20 0xFFFFFFFFFFFFFFFFFFFFFFFFFFFFFFFFFFFFFFFF AND MUL OR SWAP1 SSTORE POP PUSH1 0x1 PUSH1 0xE PUSH1 0x0 DUP4 PUSH20 0xFFFFFFFFFFFFFFFFFFFFFFFFFFFFFFFFFFFFFFFF AND PUSH20 0xFFFFFFFFFFFFFFFFFFFFFFFFFFFFFFFFFFFFFFFF AND DUP2 MSTORE PUSH1 0x20 ADD SWAP1 DUP2 MSTORE PUSH1 0x20 ADD PUSH1 0x0 KECCAK256 PUSH1 0x0 DUP3 DUP3 SLOAD ADD SWAP3 POP POP DUP2 SWAP1 SSTORE POP DUP1 PUSH20 0xFFFFFFFFFFFFFFFFFFFFFFFFFFFFFFFFFFFFFFFF AND DUP3 PUSH20 0xFFFFFFFFFFFFFFFFFFFFFFFFFFFFFFFFFFFFFFFF AND PUSH32 0x9D05414FB79FAC216C15606DE5CC06664E91A254E4D5F57664D5F1BEAF7FB7EF PUSH1 0x40 MLOAD PUSH1 0x40 MLOAD DUP1 SWAP2 SUB SWAP1 LOG3 JUMPDEST POP POP JUMP JUMPDEST PUSH2 0x37BB DUP5 PUSH4 0x23B872DD PUSH1 0xE0 SHL DUP6 DUP6 DUP6 PUSH1 0x40 MLOAD PUSH1 0x24 ADD DUP1 DUP5 PUSH20 0xFFFFFFFFFFFFFFFFFFFFFFFFFFFFFFFFFFFFFFFF AND DUP2 MSTORE PUSH1 0x20 ADD DUP4 PUSH20 0xFFFFFFFFFFFFFFFFFFFFFFFFFFFFFFFFFFFFFFFF AND DUP2 MSTORE PUSH1 0x20 ADD DUP3 DUP2 MSTORE PUSH1 0x20 ADD SWAP4 POP POP POP POP PUSH1 0x40 MLOAD PUSH1 0x20 DUP2 DUP4 SUB SUB DUP2 MSTORE SWAP1 PUSH1 0x40 MSTORE SWAP1 PUSH28 0xFFFFFFFFFFFFFFFFFFFFFFFFFFFFFFFFFFFFFFFFFFFFFFFFFFFFFFFF NOT AND PUSH1 0x20 DUP3 ADD DUP1 MLOAD PUSH28 0xFFFFFFFFFFFFFFFFFFFFFFFFFFFFFFFFFFFFFFFFFFFFFFFFFFFFFFFF DUP4 DUP2 DUP4 AND OR DUP4 MSTORE POP POP POP POP PUSH2 0x3E65 JUMP JUMPDEST POP POP POP POP JUMP JUMPDEST PUSH1 0x0 PUSH20 0xFFFFFFFFFFFFFFFFFFFFFFFFFFFFFFFFFFFFFFFF AND DUP2 PUSH20 0xFFFFFFFFFFFFFFFFFFFFFFFFFFFFFFFFFFFFFFFF AND EQ ISZERO PUSH2 0x3847 JUMPI PUSH1 0x40 MLOAD PUSH32 0x8C379A000000000000000000000000000000000000000000000000000000000 DUP2 MSTORE PUSH1 0x4 ADD DUP1 DUP1 PUSH1 0x20 ADD DUP3 DUP2 SUB DUP3 MSTORE PUSH1 0x26 DUP2 MSTORE PUSH1 0x20 ADD DUP1 PUSH2 0x430D PUSH1 0x26 SWAP2 CODECOPY PUSH1 0x40 ADD SWAP2 POP POP PUSH1 0x40 MLOAD DUP1 SWAP2 SUB SWAP1 REVERT JUMPDEST DUP1 PUSH20 0xFFFFFFFFFFFFFFFFFFFFFFFFFFFFFFFFFFFFFFFF AND PUSH1 0x0 DUP1 SLOAD SWAP1 PUSH2 0x100 EXP SWAP1 DIV PUSH20 0xFFFFFFFFFFFFFFFFFFFFFFFFFFFFFFFFFFFFFFFF AND PUSH20 0xFFFFFFFFFFFFFFFFFFFFFFFFFFFFFFFFFFFFFFFF AND PUSH32 0x8BE0079C531659141344CD1FD0A4F28419497F9722A3DAAFE3B4186F6B6457E0 PUSH1 0x40 MLOAD PUSH1 0x40 MLOAD DUP1 SWAP2 SUB SWAP1 LOG3 DUP1 PUSH1 0x0 DUP1 PUSH2 0x100 EXP DUP2 SLOAD DUP2 PUSH20 0xFFFFFFFFFFFFFFFFFFFFFFFFFFFFFFFFFFFFFFFF MUL NOT AND SWAP1 DUP4 PUSH20 0xFFFFFFFFFFFFFFFFFFFFFFFFFFFFFFFFFFFFFFFF AND MUL OR SWAP1 SSTORE POP POP JUMP JUMPDEST PUSH1 0x0 DUP4 DUP4 GT ISZERO DUP3 SWAP1 PUSH2 0x39B1 JUMPI PUSH1 0x40 MLOAD PUSH32 0x8C379A000000000000000000000000000000000000000000000000000000000 DUP2 MSTORE PUSH1 0x4 ADD DUP1 DUP1 PUSH1 0x20 ADD DUP3 DUP2 SUB DUP3 MSTORE DUP4 DUP2 DUP2 MLOAD DUP2 MSTORE PUSH1 0x20 ADD SWAP2 POP DUP1 MLOAD SWAP1 PUSH1 0x20 ADD SWAP1 DUP1 DUP4 DUP4 PUSH1 0x0 JUMPDEST DUP4 DUP2 LT ISZERO PUSH2 0x3976 JUMPI DUP1 DUP3 ADD MLOAD DUP2 DUP5 ADD MSTORE PUSH1 0x20 DUP2 ADD SWAP1 POP PUSH2 0x395B JUMP JUMPDEST POP POP POP POP SWAP1 POP SWAP1 DUP2 ADD SWAP1 PUSH1 0x1F AND DUP1 ISZERO PUSH2 0x39A3 JUMPI DUP1 DUP3 SUB DUP1 MLOAD PUSH1 0x1 DUP4 PUSH1 0x20 SUB PUSH2 0x100 EXP SUB NOT AND DUP2 MSTORE PUSH1 0x20 ADD SWAP2 POP JUMPDEST POP SWAP3 POP POP POP PUSH1 0x40 MLOAD DUP1 SWAP2 SUB SWAP1 REVERT JUMPDEST POP PUSH1 0x0 DUP4 DUP6 SUB SWAP1 POP DUP1 SWAP2 POP POP SWAP4 SWAP3 POP POP POP JUMP JUMPDEST PUSH1 0x0 PUSH1 0x2 PUSH1 0x0 SWAP1 SLOAD SWAP1 PUSH2 0x100 EXP SWAP1 DIV PUSH20 0xFFFFFFFFFFFFFFFFFFFFFFFFFFFFFFFFFFFFFFFF AND PUSH20 0xFFFFFFFFFFFFFFFFFFFFFFFFFFFFFFFFFFFFFFFF AND PUSH4 0x70A08231 ADDRESS PUSH1 0x40 MLOAD DUP3 PUSH4 0xFFFFFFFF AND PUSH1 0xE0 SHL DUP2 MSTORE PUSH1 0x4 ADD DUP1 DUP3 PUSH20 0xFFFFFFFFFFFFFFFFFFFFFFFFFFFFFFFFFFFFFFFF AND DUP2 MSTORE PUSH1 0x20 ADD SWAP2 POP POP PUSH1 0x20 PUSH1 0x40 MLOAD DUP1 DUP4 SUB DUP2 DUP7 DUP1 EXTCODESIZE ISZERO DUP1 ISZERO PUSH2 0x3A4F JUMPI PUSH1 0x0 DUP1 REVERT JUMPDEST POP GAS STATICCALL ISZERO DUP1 ISZERO PUSH2 0x3A63 JUMPI RETURNDATASIZE PUSH1 0x0 DUP1 RETURNDATACOPY RETURNDATASIZE PUSH1 0x0 REVERT JUMPDEST POP POP POP POP PUSH1 0x40 MLOAD RETURNDATASIZE PUSH1 0x20 DUP2 LT ISZERO PUSH2 0x3A79 JUMPI PUSH1 0x0 DUP1 REVERT JUMPDEST DUP2 ADD SWAP1 DUP1 DUP1 MLOAD SWAP1 PUSH1 0x20 ADD SWAP1 SWAP3 SWAP2 SWAP1 POP POP POP SWAP1 POP PUSH1 0x0 DUP2 DUP4 GT ISZERO PUSH2 0x3B6B JUMPI PUSH1 0x2 PUSH1 0x0 SWAP1 SLOAD SWAP1 PUSH2 0x100 EXP SWAP1 DIV PUSH20 0xFFFFFFFFFFFFFFFFFFFFFFFFFFFFFFFFFFFFFFFF AND PUSH20 0xFFFFFFFFFFFFFFFFFFFFFFFFFFFFFFFFFFFFFFFF AND PUSH4 0xA9059CBB DUP6 DUP5 PUSH1 0x40 MLOAD DUP4 PUSH4 0xFFFFFFFF AND PUSH1 0xE0 SHL DUP2 MSTORE PUSH1 0x4 ADD DUP1 DUP4 PUSH20 0xFFFFFFFFFFFFFFFFFFFFFFFFFFFFFFFFFFFFFFFF AND DUP2 MSTORE PUSH1 0x20 ADD DUP3 DUP2 MSTORE PUSH1 0x20 ADD SWAP3 POP POP POP PUSH1 0x20 PUSH1 0x40 MLOAD DUP1 DUP4 SUB DUP2 PUSH1 0x0 DUP8 DUP1 EXTCODESIZE ISZERO DUP1 ISZERO PUSH2 0x3B29 JUMPI PUSH1 0x0 DUP1 REVERT JUMPDEST POP GAS CALL ISZERO DUP1 ISZERO PUSH2 0x3B3D JUMPI RETURNDATASIZE PUSH1 0x0 DUP1 RETURNDATACOPY RETURNDATASIZE PUSH1 0x0 REVERT JUMPDEST POP POP POP POP PUSH1 0x40 MLOAD RETURNDATASIZE PUSH1 0x20 DUP2 LT ISZERO PUSH2 0x3B53 JUMPI PUSH1 0x0 DUP1 REVERT JUMPDEST DUP2 ADD SWAP1 DUP1 DUP1 MLOAD SWAP1 PUSH1 0x20 ADD SWAP1 SWAP3 SWAP2 SWAP1 POP POP POP SWAP1 POP PUSH2 0x3C3C JUMP JUMPDEST PUSH1 0x2 PUSH1 0x0 SWAP1 SLOAD SWAP1 PUSH2 0x100 EXP SWAP1 DIV PUSH20 0xFFFFFFFFFFFFFFFFFFFFFFFFFFFFFFFFFFFFFFFF AND PUSH20 0xFFFFFFFFFFFFFFFFFFFFFFFFFFFFFFFFFFFFFFFF AND PUSH4 0xA9059CBB DUP6 DUP6 PUSH1 0x40 MLOAD DUP4 PUSH4 0xFFFFFFFF AND PUSH1 0xE0 SHL DUP2 MSTORE PUSH1 0x4 ADD DUP1 DUP4 PUSH20 0xFFFFFFFFFFFFFFFFFFFFFFFFFFFFFFFFFFFFFFFF AND DUP2 MSTORE PUSH1 0x20 ADD DUP3 DUP2 MSTORE PUSH1 0x20 ADD SWAP3 POP POP POP PUSH1 0x20 PUSH1 0x40 MLOAD DUP1 DUP4 SUB DUP2 PUSH1 0x0 DUP8 DUP1 EXTCODESIZE ISZERO DUP1 ISZERO PUSH2 0x3BFE JUMPI PUSH1 0x0 DUP1 REVERT JUMPDEST POP GAS CALL ISZERO DUP1 ISZERO PUSH2 0x3C12 JUMPI RETURNDATASIZE PUSH1 0x0 DUP1 RETURNDATACOPY RETURNDATASIZE PUSH1 0x0 REVERT JUMPDEST POP POP POP POP PUSH1 0x40 MLOAD RETURNDATASIZE PUSH1 0x20 DUP2 LT ISZERO PUSH2 0x3C28 JUMPI PUSH1 0x0 DUP1 REVERT JUMPDEST DUP2 ADD SWAP1 DUP1 DUP1 MLOAD SWAP1 PUSH1 0x20 ADD SWAP1 SWAP3 SWAP2 SWAP1 POP POP POP SWAP1 POP JUMPDEST DUP1 PUSH2 0x3C92 JUMPI PUSH1 0x40 MLOAD PUSH32 0x8C379A000000000000000000000000000000000000000000000000000000000 DUP2 MSTORE PUSH1 0x4 ADD DUP1 DUP1 PUSH1 0x20 ADD DUP3 DUP2 SUB DUP3 MSTORE PUSH1 0x22 DUP2 MSTORE PUSH1 0x20 ADD DUP1 PUSH2 0x4333 PUSH1 0x22 SWAP2 CODECOPY PUSH1 0x40 ADD SWAP2 POP POP PUSH1 0x40 MLOAD DUP1 SWAP2 SUB SWAP1 REVERT JUMPDEST POP POP POP POP JUMP JUMPDEST PUSH1 0x0 PUSH2 0x3CA3 DUP4 PUSH2 0x140A JUMP JUMPDEST SWAP1 POP PUSH1 0x0 PUSH20 0xFFFFFFFFFFFFFFFFFFFFFFFFFFFFFFFFFFFFFFFF AND DUP2 PUSH20 0xFFFFFFFFFFFFFFFFFFFFFFFFFFFFFFFFFFFFFFFF AND EQ ISZERO DUP1 ISZERO PUSH2 0x3D0E JUMPI POP DUP3 PUSH20 0xFFFFFFFFFFFFFFFFFFFFFFFFFFFFFFFFFFFFFFFF AND DUP2 PUSH20 0xFFFFFFFFFFFFFFFFFFFFFFFFFFFFFFFFFFFFFFFF AND EQ ISZERO JUMPDEST DUP1 ISZERO PUSH2 0x3D1C JUMPI POP PUSH1 0x0 PUSH1 0xC SLOAD GT JUMPDEST ISZERO PUSH2 0x3E60 JUMPI PUSH1 0x0 PUSH2 0x3D4C PUSH2 0x2710 PUSH2 0x3D3E PUSH1 0xC SLOAD DUP7 PUSH2 0x3373 SWAP1 SWAP2 SWAP1 PUSH4 0xFFFFFFFF AND JUMP JUMPDEST PUSH2 0x33F9 SWAP1 SWAP2 SWAP1 PUSH4 0xFFFFFFFF AND JUMP JUMPDEST SWAP1 POP PUSH1 0x2 PUSH1 0x0 SWAP1 SLOAD SWAP1 PUSH2 0x100 EXP SWAP1 DIV PUSH20 0xFFFFFFFFFFFFFFFFFFFFFFFFFFFFFFFFFFFFFFFF AND PUSH20 0xFFFFFFFFFFFFFFFFFFFFFFFFFFFFFFFFFFFFFFFF AND PUSH4 0x40C10F19 DUP4 DUP4 PUSH1 0x40 MLOAD DUP4 PUSH4 0xFFFFFFFF AND PUSH1 0xE0 SHL DUP2 MSTORE PUSH1 0x4 ADD DUP1 DUP4 PUSH20 0xFFFFFFFFFFFFFFFFFFFFFFFFFFFFFFFFFFFFFFFF AND DUP2 MSTORE PUSH1 0x20 ADD DUP3 DUP2 MSTORE PUSH1 0x20 ADD SWAP3 POP POP POP PUSH1 0x0 PUSH1 0x40 MLOAD DUP1 DUP4 SUB DUP2 PUSH1 0x0 DUP8 DUP1 EXTCODESIZE ISZERO DUP1 ISZERO PUSH2 0x3DE1 JUMPI PUSH1 0x0 DUP1 REVERT JUMPDEST POP GAS CALL ISZERO DUP1 ISZERO PUSH2 0x3DF5 JUMPI RETURNDATASIZE PUSH1 0x0 DUP1 RETURNDATACOPY RETURNDATASIZE PUSH1 0x0 REVERT JUMPDEST POP POP POP POP DUP2 PUSH20 0xFFFFFFFFFFFFFFFFFFFFFFFFFFFFFFFFFFFFFFFF AND DUP5 PUSH20 0xFFFFFFFFFFFFFFFFFFFFFFFFFFFFFFFFFFFFFFFF AND PUSH32 0xA721AB4682CEB61C7E4D264EF879FC419A6D764B136E7D96EF54B2053C75673 DUP4 PUSH1 0x40 MLOAD DUP1 DUP3 DUP2 MSTORE PUSH1 0x20 ADD SWAP2 POP POP PUSH1 0x40 MLOAD DUP1 SWAP2 SUB SWAP1 LOG3 POP JUMPDEST POP POP POP JUMP JUMPDEST PUSH1 0x60 PUSH2 0x3EC7 DUP3 PUSH1 0x40 MLOAD DUP1 PUSH1 0x40 ADD PUSH1 0x40 MSTORE DUP1 PUSH1 0x20 DUP2 MSTORE PUSH1 0x20 ADD PUSH32 0x5361666542455032303A206C6F772D6C6576656C2063616C6C206661696C6564 DUP2 MSTORE POP DUP6 PUSH20 0xFFFFFFFFFFFFFFFFFFFFFFFFFFFFFFFFFFFFFFFF AND PUSH2 0x401A SWAP1 SWAP3 SWAP2 SWAP1 PUSH4 0xFFFFFFFF AND JUMP JUMPDEST SWAP1 POP PUSH1 0x0 DUP2 MLOAD GT ISZERO PUSH2 0x3F4F JUMPI DUP1 DUP1 PUSH1 0x20 ADD SWAP1 MLOAD PUSH1 0x20 DUP2 LT ISZERO PUSH2 0x3EE8 JUMPI PUSH1 0x0 DUP1 REVERT JUMPDEST DUP2 ADD SWAP1 DUP1 DUP1 MLOAD SWAP1 PUSH1 0x20 ADD SWAP1 SWAP3 SWAP2 SWAP1 POP POP POP PUSH2 0x3F4E JUMPI PUSH1 0x40 MLOAD PUSH32 0x8C379A000000000000000000000000000000000000000000000000000000000 DUP2 MSTORE PUSH1 0x4 ADD DUP1 DUP1 PUSH1 0x20 ADD DUP3 DUP2 SUB DUP3 MSTORE PUSH1 0x2A DUP2 MSTORE PUSH1 0x20 ADD DUP1 PUSH2 0x42E3 PUSH1 0x2A SWAP2 CODECOPY PUSH1 0x40 ADD SWAP2 POP POP PUSH1 0x40 MLOAD DUP1 SWAP2 SUB SWAP1 REVERT JUMPDEST JUMPDEST POP POP POP JUMP JUMPDEST PUSH1 0x0 DUP1 DUP4 GT DUP3 SWAP1 PUSH2 0x4000 JUMPI PUSH1 0x40 MLOAD PUSH32 0x8C379A000000000000000000000000000000000000000000000000000000000 DUP2 MSTORE PUSH1 0x4 ADD DUP1 DUP1 PUSH1 0x20 ADD DUP3 DUP2 SUB DUP3 MSTORE DUP4 DUP2 DUP2 MLOAD DUP2 MSTORE PUSH1 0x20 ADD SWAP2 POP DUP1 MLOAD SWAP1 PUSH1 0x20 ADD SWAP1 DUP1 DUP4 DUP4 PUSH1 0x0 JUMPDEST DUP4 DUP2 LT ISZERO PUSH2 0x3FC5 JUMPI DUP1 DUP3 ADD MLOAD DUP2 DUP5 ADD MSTORE PUSH1 0x20 DUP2 ADD SWAP1 POP PUSH2 0x3FAA JUMP JUMPDEST POP POP POP POP SWAP1 POP SWAP1 DUP2 ADD SWAP1 PUSH1 0x1F AND DUP1 ISZERO PUSH2 0x3FF2 JUMPI DUP1 DUP3 SUB DUP1 MLOAD PUSH1 0x1 DUP4 PUSH1 0x20 SUB PUSH2 0x100 EXP SUB NOT AND DUP2 MSTORE PUSH1 0x20 ADD SWAP2 POP JUMPDEST POP SWAP3 POP POP POP PUSH1 0x40 MLOAD DUP1 SWAP2 SUB SWAP1 REVERT JUMPDEST POP PUSH1 0x0 DUP4 DUP6 DUP2 PUSH2 0x400C JUMPI INVALID JUMPDEST DIV SWAP1 POP DUP1 SWAP2 POP POP SWAP4 SWAP3 POP POP POP JUMP JUMPDEST PUSH1 0x60 PUSH2 0x4029 DUP5 DUP5 PUSH1 0x0 DUP6 PUSH2 0x4032 JUMP JUMPDEST SWAP1 POP SWAP4 SWAP3 POP POP POP JUMP JUMPDEST PUSH1 0x60 PUSH2 0x403D DUP6 PUSH2 0x4238 JUMP JUMPDEST PUSH2 0x40AF JUMPI PUSH1 0x40 MLOAD PUSH32 0x8C379A000000000000000000000000000000000000000000000000000000000 DUP2 MSTORE PUSH1 0x4 ADD DUP1 DUP1 PUSH1 0x20 ADD DUP3 DUP2 SUB DUP3 MSTORE PUSH1 0x1D DUP2 MSTORE PUSH1 0x20 ADD DUP1 PUSH32 0x416464726573733A2063616C6C20746F206E6F6E2D636F6E7472616374000000 DUP2 MSTORE POP PUSH1 0x20 ADD SWAP2 POP POP PUSH1 0x40 MLOAD DUP1 SWAP2 SUB SWAP1 REVERT JUMPDEST PUSH1 0x0 PUSH1 0x60 DUP7 PUSH20 0xFFFFFFFFFFFFFFFFFFFFFFFFFFFFFFFFFFFFFFFF AND DUP6 DUP8 PUSH1 0x40 MLOAD DUP1 DUP3 DUP1 MLOAD SWAP1 PUSH1 0x20 ADD SWAP1 DUP1 DUP4 DUP4 JUMPDEST PUSH1 0x20 DUP4 LT PUSH2 0x40FF JUMPI DUP1 MLOAD DUP3 MSTORE PUSH1 0x20 DUP3 ADD SWAP2 POP PUSH1 0x20 DUP2 ADD SWAP1 POP PUSH1 0x20 DUP4 SUB SWAP3 POP PUSH2 0x40DC JUMP JUMPDEST PUSH1 0x1 DUP4 PUSH1 0x20 SUB PUSH2 0x100 EXP SUB DUP1 NOT DUP3 MLOAD AND DUP2 DUP5 MLOAD AND DUP1 DUP3 OR DUP6 MSTORE POP POP POP POP POP POP SWAP1 POP ADD SWAP2 POP POP PUSH1 0x0 PUSH1 0x40 MLOAD DUP1 DUP4 SUB DUP2 DUP6 DUP8 GAS CALL SWAP3 POP POP POP RETURNDATASIZE DUP1 PUSH1 0x0 DUP2 EQ PUSH2 0x4161 JUMPI PUSH1 0x40 MLOAD SWAP2 POP PUSH1 0x1F NOT PUSH1 0x3F RETURNDATASIZE ADD AND DUP3 ADD PUSH1 0x40 MSTORE RETURNDATASIZE DUP3 MSTORE RETURNDATASIZE PUSH1 0x0 PUSH1 0x20 DUP5 ADD RETURNDATACOPY PUSH2 0x4166 JUMP JUMPDEST PUSH1 0x60 SWAP2 POP JUMPDEST POP SWAP2 POP SWAP2 POP DUP2 ISZERO PUSH2 0x417B JUMPI DUP1 SWAP3 POP POP POP PUSH2 0x4230 JUMP JUMPDEST PUSH1 0x0 DUP2 MLOAD GT ISZERO PUSH2 0x418E JUMPI DUP1 MLOAD DUP1 DUP3 PUSH1 0x20 ADD REVERT JUMPDEST DUP4 PUSH1 0x40 MLOAD PUSH32 0x8C379A000000000000000000000000000000000000000000000000000000000 DUP2 MSTORE PUSH1 0x4 ADD DUP1 DUP1 PUSH1 0x20 ADD DUP3 DUP2 SUB DUP3 MSTORE DUP4 DUP2 DUP2 MLOAD DUP2 MSTORE PUSH1 0x20 ADD SWAP2 POP DUP1 MLOAD SWAP1 PUSH1 0x20 ADD SWAP1 DUP1 DUP4 DUP4 PUSH1 0x0 JUMPDEST DUP4 DUP2 LT ISZERO PUSH2 0x41F5 JUMPI DUP1 DUP3 ADD MLOAD DUP2 DUP5 ADD MSTORE PUSH1 0x20 DUP2 ADD SWAP1 POP PUSH2 0x41DA JUMP JUMPDEST POP POP POP POP SWAP1 POP SWAP1 DUP2 ADD SWAP1 PUSH1 0x1F AND DUP1 ISZERO PUSH2 0x4222 JUMPI DUP1 DUP3 SUB DUP1 MLOAD PUSH1 0x1 DUP4 PUSH1 0x20 SUB PUSH2 0x100 EXP SUB NOT AND DUP2 MSTORE PUSH1 0x20 ADD SWAP2 POP JUMPDEST POP SWAP3 POP POP POP PUSH1 0x40 MLOAD DUP1 SWAP2 SUB SWAP1 REVERT JUMPDEST SWAP5 SWAP4 POP POP POP POP JUMP JUMPDEST PUSH1 0x0 DUP1 PUSH1 0x0 PUSH32 0xC5D2460186F7233C927E7DB2DCC703C0E500B653CA82273B7BFAD8045D85A470 PUSH1 0x0 SHL SWAP1 POP DUP4 EXTCODEHASH SWAP2 POP DUP1 DUP3 EQ ISZERO DUP1 ISZERO PUSH2 0x427A JUMPI POP PUSH1 0x0 DUP1 SHL DUP3 EQ ISZERO JUMPDEST SWAP3 POP POP POP SWAP2 SWAP1 POP JUMP INVALID PUSH2 0x6464 GASPRICE KECCAK256 PUSH10 0x6E76616C696420646570 PUSH16 0x7369742066656520626173697320706F PUSH10 0x6E747375706461746552 PUSH6 0x66426F6E7573 POP PUSH6 0x7263656E743A KECCAK256 PUSH10 0x6E76616C696420726566 PUSH6 0x7272616C2062 PUSH16 0x6E757320626173697320706F696E7473 MSTORE8 PUSH2 0x6665 TIMESTAMP GASLIMIT POP ORIGIN ADDRESS GASPRICE KECCAK256 TIMESTAMP GASLIMIT POP ORIGIN ADDRESS KECCAK256 PUSH16 0x7065726174696F6E20646964206E6F74 KECCAK256 PUSH20 0x7563636565644F776E61626C653A206E6577206F PUSH24 0x6E657220697320746865207A65726F206164647265737373 PUSH2 0x6665 POP PUSH13 0x756D5472616E736665723A2074 PUSH19 0x616E73666572206661696C65642E6465706F73 PUSH10 0x743A20496E76616C6964 KECCAK256 PUSH19 0x65666572726572206164647265737353616665 0x4D PUSH2 0x7468 GASPRICE KECCAK256 PUSH14 0x756C7469706C69636174696F6E20 PUSH16 0x766572666C6F777365743A20696E7661 PUSH13 0x6964206465706F736974206665 PUSH6 0x206261736973 KECCAK256 PUSH17 0x6F696E7473757064617465526566426F6E PUSH22 0x7350657263656E743A2073616D6520626F6E75732062 PUSH17 0x20736574726564756365456D697373696F PUSH15 0x526174655769746844656661756C74 MSTORE PUSH2 0x7465 GASPRICE KECCAK256 NUMBER PUSH2 0x6E20 PUSH16 0x6E6C792062652063616C6C6564206166 PUSH21 0x65722073706563696669656420626C6F636B207374 PUSH2 0x7274 PUSH20 0x676574506F6F6C4964466F724C70546F6B656E3A KECCAK256 PUSH5 0x6F206E6F74 KECCAK256 PUSH6 0x786973747265 PUSH5 0x756365456D PUSH10 0x7373696F6E5261746557 PUSH10 0x746844656661756C7452 PUSH2 0x7465 GASPRICE KECCAK256 GASLIMIT PUSH14 0x697373696F6E2072617465206861 PUSH20 0x207265616368656420746865206D696E696D756D KECCAK256 PUSH21 0x68726573686F6C646465706F7369743A207374616B PUSH10 0x6E6720706572696F6420 PUSH9 0x617320656E646564A2 PUSH5 0x6970667358 0x22 SLT KECCAK256 LOG4 EXP SIGNEXTEND 0xF8 0xEE 0x4E SWAP6 DIV 0x28 0x2D PUSH26 0xDAE6BFD462CF3E27182A8BA3A3A0424066BA7D7B3B64736F6C63 NUMBER STOP MOD 0xC STOP CALLER "},"gasEstimates":{"creation":{"codeDepositCost":"3532600","executionCost":"infinite","totalCost":"infinite"},"external":{"EMISSION_REDUCTION_PERIOD_BLOCKS()":"271","EMISSION_REDUCTION_RATE_PER_PERIOD()":"294","INITIAL_EMISSION_RATE()":"250","MAXIMUM_DEPOSIT_FEE_BP()":"300","MAXIMUM_REFERRAL_BP()":"279","MINIMUM_EMISSION_RATE()":"250","add(uint256,address,uint16,bool,uint256,uint256,uint256)":"infinite","blockToStartReducingEmissionRate()":"1139","canClaimReward(uint256)":"2135","deposit(uint256,uint256,address)":"infinite","devAddr()":"1135","emergencyWithdraw(uint256)":"infinite","feeAddress()":"1181","getMultiplier(uint256,uint256)":"infinite","getPoolIdForLpToken(address)":"infinite","getReferral(address)":"1328","globalBlockToUnlockClaimingRewards()":"1138","lastReductionPeriodIndex()":"1160","massUpdatePools()":"infinite","owner()":"1145","pendingTEXO(uint256,address)":"infinite","poolExistence(address)":"1333","poolIdForLpAddress(address)":"1280","poolInfo(uint256)":"7194","poolLength()":"1090","reduceEmissionRateWithDefaultRate()":"infinite","refBonusBP()":"1138","referredCount(address)":"1281","referrers(address)":"1268","renounceOwnership()":"24337","set(uint256,uint256,uint16,bool,uint256,uint256)":"infinite","setDevAddress(address)":"23597","setEmissionRate(uint256)":"infinite","setFeeAddress(address)":"23621","tEXO()":"1114","tEXOPerBlock()":"1116","totalAllocPoint()":"1140","transferOwnership(address)":"infinite","updatePool(uint256)":"infinite","updateReferralBonusBp(uint256)":"infinite","userInfo(uint256,address)":"3006","withdraw(uint256,uint256)":"infinite"},"internal":{"minCurrentBlockAndInactiveBlockIfExist(uint256)":"3403","payOrLockupPendingTEXO(uint256)":"infinite","payReferralCommission(address,uint256)":"infinite","safeTEXOTransfer(address,uint256)":"infinite","setReferral(address,address)":"44546"}},"methodIdentifiers":{"EMISSION_REDUCTION_PERIOD_BLOCKS()":"d4adafdf","EMISSION_REDUCTION_RATE_PER_PERIOD()":"b7eee1f1","INITIAL_EMISSION_RATE()":"91bb809c","MAXIMUM_DEPOSIT_FEE_BP()":"955c9b93","MAXIMUM_REFERRAL_BP()":"3a22df78","MINIMUM_EMISSION_RATE()":"61e0c468","add(uint256,address,uint16,bool,uint256,uint256,uint256)":"0b844523","blockToStartReducingEmissionRate()":"54324b58","canClaimReward(uint256)":"ca291b13","deposit(uint256,uint256,address)":"8dbdbe6d","devAddr()":"da09c72c","emergencyWithdraw(uint256)":"5312ea8e","feeAddress()":"41275358","getMultiplier(uint256,uint256)":"8dbb1e3a","getPoolIdForLpToken(address)":"190f39f0","getReferral(address)":"3b0f0f2f","globalBlockToUnlockClaimingRewards()":"a1515333","lastReductionPeriodIndex()":"6a9a7660","massUpdatePools()":"630b5ba1","owner()":"8da5cb5b","pendingTEXO(uint256,address)":"dfe3d2cd","poolExistence(address)":"cbd258b5","poolIdForLpAddress(address)":"9bf62f7e","poolInfo(uint256)":"1526fe27","poolLength()":"081e3eda","reduceEmissionRateWithDefaultRate()":"ea76bc29","refBonusBP()":"66f685ea","referredCount(address)":"3f7b06d8","referrers(address)":"4a3b68cc","renounceOwnership()":"715018a6","set(uint256,uint256,uint16,bool,uint256,uint256)":"0326f66d","setDevAddress(address)":"d0d41fe1","setEmissionRate(uint256)":"a1bdb15e","setFeeAddress(address)":"8705fcd4","tEXO()":"ae715d70","tEXOPerBlock()":"660f8340","totalAllocPoint()":"17caf6f1","transferOwnership(address)":"f2fde38b","updatePool(uint256)":"51eb05a6","updateReferralBonusBp(uint256)":"64ed743b","userInfo(uint256,address)":"93f1a40b","withdraw(uint256,uint256)":"441a3e70"}},"storageLayout":{"storage":[{"astId":2366,"contract":"TEXOOrchestrator.sol:TEXOOrchestrator","label":"_owner","offset":0,"slot":"0","type":"t_address"},{"astId":2489,"contract":"TEXOOrchestrator.sol:TEXOOrchestrator","label":"_status","offset":0,"slot":"1","type":"t_uint256"},{"astId":3041,"contract":"TEXOOrchestrator.sol:TEXOOrchestrator","label":"tEXO","offset":0,"slot":"2","type":"t_contract(TEXOToken)5230"},{"astId":3043,"contract":"TEXOOrchestrator.sol:TEXOOrchestrator","label":"devAddr","offset":0,"slot":"3","type":"t_address"},{"astId":3045,"contract":"TEXOOrchestrator.sol:TEXOOrchestrator","label":"tEXOPerBlock","offset":0,"slot":"4","type":"t_uint256"},{"astId":3047,"contract":"TEXOOrchestrator.sol:TEXOOrchestrator","label":"feeAddress","offset":0,"slot":"5","type":"t_address"},{"astId":3049,"contract":"TEXOOrchestrator.sol:TEXOOrchestrator","label":"blockToStartReducingEmissionRate","offset":0,"slot":"6","type":"t_uint256"},{"astId":3051,"contract":"TEXOOrchestrator.sol:TEXOOrchestrator","label":"globalBlockToUnlockClaimingRewards","offset":0,"slot":"7","type":"t_uint256"},{"astId":3053,"contract":"TEXOOrchestrator.sol:TEXOOrchestrator","label":"startBlock","offset":0,"slot":"8","type":"t_uint256"},{"astId":3056,"contract":"TEXOOrchestrator.sol:TEXOOrchestrator","label":"poolInfo","offset":0,"slot":"9","type":"t_array(t_struct(PoolInfo)3039_storage)dyn_storage"},{"astId":3062,"contract":"TEXOOrchestrator.sol:TEXOOrchestrator","label":"userInfo","offset":0,"slot":"10","type":"t_mapping(t_uint256,t_mapping(t_address,t_struct(UserInfo)3024_storage))"},{"astId":3065,"contract":"TEXOOrchestrator.sol:TEXOOrchestrator","label":"totalAllocPoint","offset":0,"slot":"11","type":"t_uint256"},{"astId":3068,"contract":"TEXOOrchestrator.sol:TEXOOrchestrator","label":"refBonusBP","offset":0,"slot":"12","type":"t_uint256"},{"astId":3078,"contract":"TEXOOrchestrator.sol:TEXOOrchestrator","label":"referrers","offset":0,"slot":"13","type":"t_mapping(t_address,t_address)"},{"astId":3082,"contract":"TEXOOrchestrator.sol:TEXOOrchestrator","label":"referredCount","offset":0,"slot":"14","type":"t_mapping(t_address,t_uint256)"},{"astId":3086,"contract":"TEXOOrchestrator.sol:TEXOOrchestrator","label":"poolExistence","offset":0,"slot":"15","type":"t_mapping(t_contract(IBEP20)2358,t_bool)"},{"astId":3090,"contract":"TEXOOrchestrator.sol:TEXOOrchestrator","label":"poolIdForLpAddress","offset":0,"slot":"16","type":"t_mapping(t_contract(IBEP20)2358,t_uint256)"},{"astId":3105,"contract":"TEXOOrchestrator.sol:TEXOOrchestrator","label":"lastReductionPeriodIndex","offset":0,"slot":"17","type":"t_uint256"}],"types":{"t_address":{"encoding":"inplace","label":"address","numberOfBytes":"20"},"t_array(t_struct(PoolInfo)3039_storage)dyn_storage":{"base":"t_struct(PoolInfo)3039_storage","encoding":"dynamic_array","label":"struct TEXOOrchestrator.PoolInfo[]","numberOfBytes":"32"},"t_bool":{"encoding":"inplace","label":"bool","numberOfBytes":"1"},"t_contract(IBEP20)2358":{"encoding":"inplace","label":"contract IBEP20","numberOfBytes":"20"},"t_contract(TEXOToken)5230":{"encoding":"inplace","label":"contract TEXOToken","numberOfBytes":"20"},"t_mapping(t_address,t_address)":{"encoding":"mapping","key":"t_address","label":"mapping(address => address)","numberOfBytes":"32","value":"t_address"},"t_mapping(t_address,t_struct(UserInfo)3024_storage)":{"encoding":"mapping","key":"t_address","label":"mapping(address => struct TEXOOrchestrator.UserInfo)","numberOfBytes":"32","value":"t_struct(UserInfo)3024_storage"},"t_mapping(t_address,t_uint256)":{"encoding":"mapping","key":"t_address","label":"mapping(address => uint256)","numberOfBytes":"32","value":"t_uint256"},"t_mapping(t_contract(IBEP20)2358,t_bool)":{"encoding":"mapping","key":"t_contract(IBEP20)2358","label":"mapping(contract IBEP20 => bool)","numberOfBytes":"32","value":"t_bool"},"t_mapping(t_contract(IBEP20)2358,t_uint256)":{"encoding":"mapping","key":"t_contract(IBEP20)2358","label":"mapping(contract IBEP20 => uint256)","numberOfBytes":"32","value":"t_uint256"},"t_mapping(t_uint256,t_mapping(t_address,t_struct(UserInfo)3024_storage))":{"encoding":"mapping","key":"t_uint256","label":"mapping(uint256 => mapping(address => struct TEXOOrchestrator.UserInfo))","numberOfBytes":"32","value":"t_mapping(t_address,t_struct(UserInfo)3024_storage)"},"t_struct(PoolInfo)3039_storage":{"encoding":"inplace","label":"struct TEXOOrchestrator.PoolInfo","members":[{"astId":3026,"contract":"TEXOOrchestrator.sol:TEXOOrchestrator","label":"lpToken","offset":0,"slot":"0","type":"t_contract(IBEP20)2358"},{"astId":3028,"contract":"TEXOOrchestrator.sol:TEXOOrchestrator","label":"allocPoint","offset":0,"slot":"1","type":"t_uint256"},{"astId":3030,"contract":"TEXOOrchestrator.sol:TEXOOrchestrator","label":"blockToReceiveReward","offset":0,"slot":"2","type":"t_uint256"},{"astId":3032,"contract":"TEXOOrchestrator.sol:TEXOOrchestrator","label":"inActiveBlock","offset":0,"slot":"3","type":"t_uint256"},{"astId":3034,"contract":"TEXOOrchestrator.sol:TEXOOrchestrator","label":"lastRewardBlock","offset":0,"slot":"4","type":"t_uint256"},{"astId":3036,"contract":"TEXOOrchestrator.sol:TEXOOrchestrator","label":"accTEXOPerShare","offset":0,"slot":"5","type":"t_uint256"},{"astId":3038,"contract":"TEXOOrchestrator.sol:TEXOOrchestrator","label":"depositFeeBP","offset":0,"slot":"6","type":"t_uint16"}],"numberOfBytes":"224"},"t_struct(UserInfo)3024_storage":{"encoding":"inplace","label":"struct TEXOOrchestrator.UserInfo","members":[{"astId":3019,"contract":"TEXOOrchestrator.sol:TEXOOrchestrator","label":"amount","offset":0,"slot":"0","type":"t_uint256"},{"astId":3021,"contract":"TEXOOrchestrator.sol:TEXOOrchestrator","label":"rewardDebt","offset":0,"slot":"1","type":"t_uint256"},{"astId":3023,"contract":"TEXOOrchestrator.sol:TEXOOrchestrator","label":"rewardLockedUp","offset":0,"slot":"2","type":"t_uint256"}],"numberOfBytes":"96"},"t_uint16":{"encoding":"inplace","label":"uint16","numberOfBytes":"2"},"t_uint256":{"encoding":"inplace","label":"uint256","numberOfBytes":"32"}}},"userdoc":{"kind":"user","methods":{},"version":1}}