{"abi":[{"inputs":[{"internalType":"contract TEXOToken","name":"_tEXO","type":"address"},{"internalType":"address","name":"_devAddr","type":"address"},{"internalType":"address","name":"_feeAddress","type":"address"}],"stateMutability":"nonpayable","type":"constructor"},{"anonymous":false,"inputs":[{"indexed":true,"internalType":"address","name":"user","type":"address"},{"indexed":true,"internalType":"uint256","name":"pid","type":"uint256"},{"indexed":false,"internalType":"uint256","name":"amount","type":"uint256"}],"name":"Deposit","type":"event"},{"anonymous":false,"inputs":[{"indexed":true,"internalType":"address","name":"user","type":"address"},{"indexed":true,"internalType":"uint256","name":"pid","type":"uint256"},{"indexed":false,"internalType":"uint256","name":"amount","type":"uint256"}],"name":"EmergencyWithdraw","type":"event"},{"anonymous":false,"inputs":[{"indexed":true,"internalType":"address","name":"caller","type":"address"},{"indexed":false,"internalType":"uint256","name":"previousAmount","type":"uint256"},{"indexed":false,"internalType":"uint256","name":"newAmount","type":"uint256"}],"name":"EmissionRateUpdated","type":"event"},{"anonymous":false,"inputs":[{"indexed":true,"internalType":"address","name":"previousOwner","type":"address"},{"indexed":true,"internalType":"address","name":"newOwner","type":"address"}],"name":"OwnershipTransferred","type":"event"},{"anonymous":false,"inputs":[{"indexed":true,"internalType":"address","name":"_referrer","type":"address"},{"indexed":true,"internalType":"address","name":"_user","type":"address"}],"name":"Referral","type":"event"},{"anonymous":false,"inputs":[{"indexed":false,"internalType":"uint256","name":"_oldBp","type":"uint256"},{"indexed":false,"internalType":"uint256","name":"_newBp","type":"uint256"}],"name":"ReferralBonusBpChanged","type":"event"},{"anonymous":false,"inputs":[{"indexed":true,"internalType":"address","name":"_user","type":"address"},{"indexed":true,"internalType":"address","name":"_userTo","type":"address"},{"indexed":false,"internalType":"uint256","name":"_reward","type":"uint256"}],"name":"ReferralPaid","type":"event"},{"anonymous":false,"inputs":[{"indexed":true,"internalType":"address","name":"user","type":"address"},{"indexed":true,"internalType":"address","name":"_feeAddress","type":"address"}],"name":"SetDevAddress","type":"event"},{"anonymous":false,"inputs":[{"indexed":true,"internalType":"address","name":"user","type":"address"},{"indexed":true,"internalType":"address","name":"_devAddress","type":"address"}],"name":"SetFeeAddress","type":"event"},{"anonymous":false,"inputs":[{"indexed":true,"internalType":"address","name":"user","type":"address"},{"indexed":true,"internalType":"uint256","name":"pid","type":"uint256"},{"indexed":false,"internalType":"uint256","name":"amount","type":"uint256"}],"name":"Withdraw","type":"event"},{"inputs":[],"name":"EMISSION_REDUCTION_PERIOD_BLOCKS","outputs":[{"internalType":"uint256","name":"","type":"uint256"}],"stateMutability":"view","type":"function"},{"inputs":[],"name":"EMISSION_REDUCTION_RATE_PER_PERIOD","outputs":[{"internalType":"uint256","name":"","type":"uint256"}],"stateMutability":"view","type":"function"},{"inputs":[],"name":"INITIAL_EMISSION_RATE","outputs":[{"internalType":"uint256","name":"","type":"uint256"}],"stateMutability":"view","type":"function"},{"inputs":[],"name":"MAXIMUM_DEPOSIT_FEE_BP","outputs":[{"internalType":"uint16","name":"","type":"uint16"}],"stateMutability":"view","type":"function"},{"inputs":[],"name":"MAXIMUM_REFERRAL_BP","outputs":[{"internalType":"uint16","name":"","type":"uint16"}],"stateMutability":"view","type":"function"},{"inputs":[],"name":"MINIMUM_EMISSION_RATE","outputs":[{"internalType":"uint256","name":"","type":"uint256"}],"stateMutability":"view","type":"function"},{"inputs":[{"internalType":"uint256","name":"_allocPoint","type":"uint256"},{"internalType":"contract IBEP20","name":"_lpToken","type":"address"},{"internalType":"uint16","name":"_depositFeeBP","type":"uint16"},{"internalType":"bool","name":"_withUpdate","type":"bool"}],"name":"add","outputs":[],"stateMutability":"nonpayable","type":"function"},{"inputs":[{"internalType":"uint256","name":"_pid","type":"uint256"},{"internalType":"uint256","name":"_amount","type":"uint256"},{"internalType":"address","name":"_referrer","type":"address"}],"name":"deposit","outputs":[],"stateMutability":"nonpayable","type":"function"},{"inputs":[{"internalType":"uint256","name":"_pid","type":"uint256"},{"internalType":"uint256","name":"_amount","type":"uint256"}],"name":"deposit","outputs":[],"stateMutability":"nonpayable","type":"function"},{"inputs":[],"name":"devAddr","outputs":[{"internalType":"address","name":"","type":"address"}],"stateMutability":"view","type":"function"},{"inputs":[{"internalType":"uint256","name":"_pid","type":"uint256"}],"name":"emergencyWithdraw","outputs":[],"stateMutability":"nonpayable","type":"function"},{"inputs":[],"name":"feeAddress","outputs":[{"internalType":"address","name":"","type":"address"}],"stateMutability":"view","type":"function"},{"inputs":[{"internalType":"uint256","name":"_from","type":"uint256"},{"internalType":"uint256","name":"_to","type":"uint256"}],"name":"getMultiplier","outputs":[{"internalType":"uint256","name":"","type":"uint256"}],"stateMutability":"pure","type":"function"},{"inputs":[{"internalType":"contract IBEP20","name":"_lpToken","type":"address"}],"name":"getPoolIdForLpToken","outputs":[{"internalType":"uint256","name":"","type":"uint256"}],"stateMutability":"view","type":"function"},{"inputs":[{"internalType":"address","name":"_user","type":"address"}],"name":"getReferral","outputs":[{"internalType":"address","name":"","type":"address"}],"stateMutability":"view","type":"function"},{"inputs":[],"name":"isAllowReduceEmissionRate","outputs":[{"internalType":"bool","name":"","type":"bool"}],"stateMutability":"view","type":"function"},{"inputs":[],"name":"lastReductionPeriodIndex","outputs":[{"internalType":"uint256","name":"","type":"uint256"}],"stateMutability":"view","type":"function"},{"inputs":[],"name":"massUpdatePools","outputs":[],"stateMutability":"nonpayable","type":"function"},{"inputs":[],"name":"owner","outputs":[{"internalType":"address","name":"","type":"address"}],"stateMutability":"view","type":"function"},{"inputs":[{"internalType":"uint256","name":"_pid","type":"uint256"},{"internalType":"address","name":"_user","type":"address"}],"name":"pendingTEXO","outputs":[{"internalType":"uint256","name":"","type":"uint256"}],"stateMutability":"view","type":"function"},{"inputs":[{"internalType":"contract IBEP20","name":"","type":"address"}],"name":"poolExistence","outputs":[{"internalType":"bool","name":"","type":"bool"}],"stateMutability":"view","type":"function"},{"inputs":[{"internalType":"contract IBEP20","name":"","type":"address"}],"name":"poolIdForLpAddress","outputs":[{"internalType":"uint256","name":"","type":"uint256"}],"stateMutability":"view","type":"function"},{"inputs":[{"internalType":"uint256","name":"","type":"uint256"}],"name":"poolInfo","outputs":[{"internalType":"contract IBEP20","name":"lpToken","type":"address"},{"internalType":"uint256","name":"allocPoint","type":"uint256"},{"internalType":"uint256","name":"lastRewardBlock","type":"uint256"},{"internalType":"uint256","name":"accTEXOPerShare","type":"uint256"},{"internalType":"uint16","name":"depositFeeBP","type":"uint16"}],"stateMutability":"view","type":"function"},{"inputs":[],"name":"poolLength","outputs":[{"internalType":"uint256","name":"","type":"uint256"}],"stateMutability":"view","type":"function"},{"inputs":[],"name":"reduceEmissionRateWithDefaultRate","outputs":[],"stateMutability":"nonpayable","type":"function"},{"inputs":[],"name":"refBonusBP","outputs":[{"internalType":"uint256","name":"","type":"uint256"}],"stateMutability":"view","type":"function"},{"inputs":[{"internalType":"address","name":"","type":"address"}],"name":"referredCount","outputs":[{"internalType":"uint256","name":"","type":"uint256"}],"stateMutability":"view","type":"function"},{"inputs":[{"internalType":"address","name":"","type":"address"}],"name":"referrers","outputs":[{"internalType":"address","name":"","type":"address"}],"stateMutability":"view","type":"function"},{"inputs":[],"name":"renounceOwnership","outputs":[],"stateMutability":"nonpayable","type":"function"},{"inputs":[{"internalType":"uint256","name":"_pid","type":"uint256"},{"internalType":"uint256","name":"_allocPoint","type":"uint256"},{"internalType":"uint16","name":"_depositFeeBP","type":"uint16"},{"internalType":"bool","name":"_withUpdate","type":"bool"}],"name":"set","outputs":[],"stateMutability":"nonpayable","type":"function"},{"inputs":[{"internalType":"address","name":"_devaddr","type":"address"}],"name":"setDevAddress","outputs":[],"stateMutability":"nonpayable","type":"function"},{"inputs":[{"internalType":"uint256","name":"newEmissionRate","type":"uint256"}],"name":"setEmissionRate","outputs":[],"stateMutability":"nonpayable","type":"function"},{"inputs":[{"internalType":"address","name":"_feeAddress","type":"address"}],"name":"setFeeAddress","outputs":[],"stateMutability":"nonpayable","type":"function"},{"inputs":[{"internalType":"bool","name":"isAllow","type":"bool"}],"name":"setFlagAllowReduceEmissionRate","outputs":[],"stateMutability":"nonpayable","type":"function"},{"inputs":[],"name":"startBlock","outputs":[{"internalType":"uint256","name":"","type":"uint256"}],"stateMutability":"view","type":"function"},{"inputs":[],"name":"tEXO","outputs":[{"internalType":"contract TEXOToken","name":"","type":"address"}],"stateMutability":"view","type":"function"},{"inputs":[],"name":"tEXOPerBlock","outputs":[{"internalType":"uint256","name":"","type":"uint256"}],"stateMutability":"view","type":"function"},{"inputs":[],"name":"totalAllocPoint","outputs":[{"internalType":"uint256","name":"","type":"uint256"}],"stateMutability":"view","type":"function"},{"inputs":[{"internalType":"address","name":"newOwner","type":"address"}],"name":"transferOwnership","outputs":[],"stateMutability":"nonpayable","type":"function"},{"inputs":[{"internalType":"uint256","name":"_pid","type":"uint256"}],"name":"updatePool","outputs":[],"stateMutability":"nonpayable","type":"function"},{"inputs":[{"internalType":"uint256","name":"_newRefBonusBp","type":"uint256"}],"name":"updateReferralBonusBp","outputs":[],"stateMutability":"nonpayable","type":"function"},{"inputs":[{"internalType":"uint256","name":"","type":"uint256"},{"internalType":"address","name":"","type":"address"}],"name":"userInfo","outputs":[{"internalType":"uint256","name":"amount","type":"uint256"},{"internalType":"uint256","name":"rewardDebt","type":"uint256"}],"stateMutability":"view","type":"function"},{"inputs":[{"internalType":"uint256","name":"_pid","type":"uint256"},{"internalType":"uint256","name":"_amount","type":"uint256"}],"name":"withdraw","outputs":[],"stateMutability":"nonpayable","type":"function"}],"devdoc":{"author":"Tran Quang Huy","kind":"dev","methods":{"owner()":{"details":"Returns the address of the current owner."},"renounceOwnership()":{"details":"Leaves the contract without owner. It will not be possible to call `onlyOwner` functions anymore. Can only be called by the current owner. NOTE: Renouncing ownership will leave the contract without an owner, thereby removing any functionality that is only available to the owner."},"transferOwnership(address)":{"details":"Transfers ownership of the contract to a new account (`newOwner`). Can only be called by the current owner."}},"title":"TEXO Token (tEXO)","version":1},"evm":{"assembly":"    /* \"TEXOToken.sol\":33791:51361  contract TEXOOrchestrator is Ownable, ReentrancyGuard {... */\n  mstore(0x40, 0x80)\n    /* \"TEXOToken.sol\":35707:35708  0 */\n  0x00\n    /* \"TEXOToken.sol\":35674:35708  uint256 public totalAllocPoint = 0 */\n  0x08\n  sstore\n    /* \"TEXOToken.sol\":35881:35884  200 */\n  0xc8\n    /* \"TEXOToken.sol\":35853:35884  uint256 public refBonusBP = 200 */\n  0x0a\n  sstore\n    /* \"TEXOToken.sol\":37010:37011  0 */\n  0x00\n    /* \"TEXOToken.sol\":36968:37011  uint256 public lastReductionPeriodIndex = 0 */\n  0x0f\n  sstore\n    /* \"TEXOToken.sol\":37058:37063  false */\n  0x00\n    /* \"TEXOToken.sol\":37018:37063  bool public isAllowReduceEmissionRate = false */\n  0x10\n  exp(0x0100, 0x00)\n  dup2\n  sload\n  dup2\n  0xff\n  mul\n  not\n  and\n  swap1\n  dup4\n  iszero\n  iszero\n  mul\n  or\n  swap1\n  sstore\n  pop\n    /* \"TEXOToken.sol\":37821:38098  constructor(... */\n  callvalue\n  dup1\n  iszero\n  tag_1\n  jumpi\n  0x00\n  dup1\n  revert\ntag_1:\n  pop\n  mload(0x40)\n  sub(codesize, bytecodeSize)\n  dup1\n  bytecodeSize\n  dup4\n  codecopy\n  dup2\n  dup2\n  add\n  0x40\n  mstore\n  0x60\n  dup2\n  lt\n  iszero\n  tag_2\n  jumpi\n  0x00\n  dup1\n  revert\ntag_2:\n  dup2\n  add\n  swap1\n  dup1\n  dup1\n  mload\n  swap1\n  0x20\n  add\n  swap1\n  swap3\n  swap2\n  swap1\n  dup1\n  mload\n  swap1\n  0x20\n  add\n  swap1\n  swap3\n  swap2\n  swap1\n  dup1\n  mload\n  swap1\n  0x20\n  add\n  swap1\n  swap3\n  swap2\n  swap1\n  pop\n  pop\n  pop\n    /* \"TEXOToken.sol\":11256:11273  address msgSender */\n  0x00\n    /* \"TEXOToken.sol\":11276:11288  _msgSender() */\n  tag_9\n    /* \"TEXOToken.sol\":11276:11286  _msgSender */\n  shl(0x20, tag_10)\n    /* \"TEXOToken.sol\":11276:11288  _msgSender() */\n  0x20\n  shr\n  jump\t// in\ntag_9:\n    /* \"TEXOToken.sol\":11256:11288  address msgSender = _msgSender() */\n  swap1\n  pop\n    /* \"TEXOToken.sol\":11307:11316  msgSender */\n  dup1\n    /* \"TEXOToken.sol\":11298:11304  _owner */\n  0x00\n  dup1\n    /* \"TEXOToken.sol\":11298:11316  _owner = msgSender */\n  0x0100\n  exp\n  dup2\n  sload\n  dup2\n  0xffffffffffffffffffffffffffffffffffffffff\n  mul\n  not\n  and\n  swap1\n  dup4\n  0xffffffffffffffffffffffffffffffffffffffff\n  and\n  mul\n  or\n  swap1\n  sstore\n  pop\n    /* \"TEXOToken.sol\":11364:11373  msgSender */\n  dup1\n    /* \"TEXOToken.sol\":11331:11374  OwnershipTransferred(address(0), msgSender) */\n  0xffffffffffffffffffffffffffffffffffffffff\n  and\n    /* \"TEXOToken.sol\":11360:11361  0 */\n  0x00\n    /* \"TEXOToken.sol\":11331:11374  OwnershipTransferred(address(0), msgSender) */\n  0xffffffffffffffffffffffffffffffffffffffff\n  and\n  0x8be0079c531659141344cd1fd0a4f28419497f9722a3daafe3b4186f6b6457e0\n  mload(0x40)\n  mload(0x40)\n  dup1\n  swap2\n  sub\n  swap1\n  log3\n    /* \"TEXOToken.sol\":11222:11381  constructor () internal {... */\n  pop\n    /* \"TEXOToken.sol\":21161:21162  1 */\n  0x01\n    /* \"TEXOToken.sol\":21276:21283  _status */\n  dup1\n    /* \"TEXOToken.sol\":21276:21298  _status = _NOT_ENTERED */\n  dup2\n  swap1\n  sstore\n  pop\n    /* \"TEXOToken.sol\":37943:37948  _tEXO */\n  dup3\n    /* \"TEXOToken.sol\":37936:37940  tEXO */\n  0x02\n  0x00\n    /* \"TEXOToken.sol\":37936:37948  tEXO = _tEXO */\n  0x0100\n  exp\n  dup2\n  sload\n  dup2\n  0xffffffffffffffffffffffffffffffffffffffff\n  mul\n  not\n  and\n  swap1\n  dup4\n  0xffffffffffffffffffffffffffffffffffffffff\n  and\n  mul\n  or\n  swap1\n  sstore\n  pop\n    /* \"TEXOToken.sol\":37968:37976  _devAddr */\n  dup2\n    /* \"TEXOToken.sol\":37958:37965  devAddr */\n  0x03\n  0x00\n    /* \"TEXOToken.sol\":37958:37976  devAddr = _devAddr */\n  0x0100\n  exp\n  dup2\n  sload\n  dup2\n  0xffffffffffffffffffffffffffffffffffffffff\n  mul\n  not\n  and\n  swap1\n  dup4\n  0xffffffffffffffffffffffffffffffffffffffff\n  and\n  mul\n  or\n  swap1\n  sstore\n  pop\n    /* \"TEXOToken.sol\":37999:38010  _feeAddress */\n  dup1\n    /* \"TEXOToken.sol\":37986:37996  feeAddress */\n  0x05\n  0x00\n    /* \"TEXOToken.sol\":37986:38010  feeAddress = _feeAddress */\n  0x0100\n  exp\n  dup2\n  sload\n  dup2\n  0xffffffffffffffffffffffffffffffffffffffff\n  mul\n  not\n  and\n  swap1\n  dup4\n  0xffffffffffffffffffffffffffffffffffffffff\n  and\n  mul\n  or\n  swap1\n  sstore\n  pop\n    /* \"TEXOToken.sol\":36543:36553  500 finney */\n  0x06f05b59d3b20000\n    /* \"TEXOToken.sol\":38020:38032  tEXOPerBlock */\n  0x04\n    /* \"TEXOToken.sol\":38020:38056  tEXOPerBlock = INITIAL_EMISSION_RATE */\n  dup2\n  swap1\n  sstore\n  pop\n    /* \"TEXOToken.sol\":38079:38091  block.number */\n  number\n    /* \"TEXOToken.sol\":38066:38076  startBlock */\n  0x09\n    /* \"TEXOToken.sol\":38066:38091  startBlock = block.number */\n  dup2\n  swap1\n  sstore\n  pop\n    /* \"TEXOToken.sol\":37821:38098  constructor(... */\n  pop\n  pop\n  pop\n    /* \"TEXOToken.sol\":33791:51361  contract TEXOOrchestrator is Ownable, ReentrancyGuard {... */\n  jump(tag_13)\n    /* \"TEXOToken.sol\":5963:6059  function _msgSender() internal view returns (address payable) {... */\ntag_10:\n    /* \"TEXOToken.sol\":6008:6023  address payable */\n  0x00\n    /* \"TEXOToken.sol\":6042:6052  msg.sender */\n  caller\n    /* \"TEXOToken.sol\":6035:6052  return msg.sender */\n  swap1\n  pop\n    /* \"TEXOToken.sol\":5963:6059  function _msgSender() internal view returns (address payable) {... */\n  swap1\n  jump\t// out\n    /* \"TEXOToken.sol\":33791:51361  contract TEXOOrchestrator is Ownable, ReentrancyGuard {... */\ntag_13:\n  dataSize(sub_0)\n  dup1\n  dataOffset(sub_0)\n  0x00\n  codecopy\n  0x00\n  return\nstop\n\nsub_0: assembly {\n        /* \"TEXOToken.sol\":33791:51361  contract TEXOOrchestrator is Ownable, ReentrancyGuard {... */\n      mstore(0x40, 0x80)\n      callvalue\n      dup1\n      iszero\n      tag_1\n      jumpi\n      0x00\n      dup1\n      revert\n    tag_1:\n      pop\n      jumpi(tag_2, lt(calldatasize, 0x04))\n      shr(0xe0, calldataload(0x00))\n      dup1\n      0x80361747\n      gt\n      tag_46\n      jumpi\n      dup1\n      0xae715d70\n      gt\n      tag_47\n      jumpi\n      dup1\n      0xd9638422\n      gt\n      tag_48\n      jumpi\n      dup1\n      0xd9638422\n      eq\n      tag_40\n      jumpi\n      dup1\n      0xda09c72c\n      eq\n      tag_41\n      jumpi\n      dup1\n      0xdfe3d2cd\n      eq\n      tag_42\n      jumpi\n      dup1\n      0xe2bbb158\n      eq\n      tag_43\n      jumpi\n      dup1\n      0xea76bc29\n      eq\n      tag_44\n      jumpi\n      dup1\n      0xf2fde38b\n      eq\n      tag_45\n      jumpi\n      jump(tag_2)\n    tag_48:\n      dup1\n      0xae715d70\n      eq\n      tag_35\n      jumpi\n      dup1\n      0xb7eee1f1\n      eq\n      tag_36\n      jumpi\n      dup1\n      0xcbd258b5\n      eq\n      tag_37\n      jumpi\n      dup1\n      0xd0d41fe1\n      eq\n      tag_38\n      jumpi\n      dup1\n      0xd4adafdf\n      eq\n      tag_39\n      jumpi\n      jump(tag_2)\n    tag_47:\n      dup1\n      0x8dbdbe6d\n      gt\n      tag_49\n      jumpi\n      dup1\n      0x8dbdbe6d\n      eq\n      tag_29\n      jumpi\n      dup1\n      0x91bb809c\n      eq\n      tag_30\n      jumpi\n      dup1\n      0x93f1a40b\n      eq\n      tag_31\n      jumpi\n      dup1\n      0x955c9b93\n      eq\n      tag_32\n      jumpi\n      dup1\n      0x9bf62f7e\n      eq\n      tag_33\n      jumpi\n      dup1\n      0xa1bdb15e\n      eq\n      tag_34\n      jumpi\n      jump(tag_2)\n    tag_49:\n      dup1\n      0x80361747\n      eq\n      tag_24\n      jumpi\n      dup1\n      0x84e82a33\n      eq\n      tag_25\n      jumpi\n      dup1\n      0x8705fcd4\n      eq\n      tag_26\n      jumpi\n      dup1\n      0x8da5cb5b\n      eq\n      tag_27\n      jumpi\n      dup1\n      0x8dbb1e3a\n      eq\n      tag_28\n      jumpi\n      jump(tag_2)\n    tag_46:\n      dup1\n      0x48cd4cb1\n      gt\n      tag_50\n      jumpi\n      dup1\n      0x630b5ba1\n      gt\n      tag_51\n      jumpi\n      dup1\n      0x630b5ba1\n      eq\n      tag_18\n      jumpi\n      dup1\n      0x64ed743b\n      eq\n      tag_19\n      jumpi\n      dup1\n      0x660f8340\n      eq\n      tag_20\n      jumpi\n      dup1\n      0x66f685ea\n      eq\n      tag_21\n      jumpi\n      dup1\n      0x6a9a7660\n      eq\n      tag_22\n      jumpi\n      dup1\n      0x715018a6\n      eq\n      tag_23\n      jumpi\n      jump(tag_2)\n    tag_51:\n      dup1\n      0x48cd4cb1\n      eq\n      tag_13\n      jumpi\n      dup1\n      0x4a3b68cc\n      eq\n      tag_14\n      jumpi\n      dup1\n      0x51eb05a6\n      eq\n      tag_15\n      jumpi\n      dup1\n      0x5312ea8e\n      eq\n      tag_16\n      jumpi\n      dup1\n      0x61e0c468\n      eq\n      tag_17\n      jumpi\n      jump(tag_2)\n    tag_50:\n      dup1\n      0x3b0f0f2f\n      gt\n      tag_52\n      jumpi\n      dup1\n      0x3b0f0f2f\n      eq\n      tag_8\n      jumpi\n      dup1\n      0x3f7b06d8\n      eq\n      tag_9\n      jumpi\n      dup1\n      0x41275358\n      eq\n      tag_10\n      jumpi\n      dup1\n      0x441a3e70\n      eq\n      tag_11\n      jumpi\n      dup1\n      0x47e3cda5\n      eq\n      tag_12\n      jumpi\n      jump(tag_2)\n    tag_52:\n      dup1\n      0x081e3eda\n      eq\n      tag_3\n      jumpi\n      dup1\n      0x1526fe27\n      eq\n      tag_4\n      jumpi\n      dup1\n      0x17caf6f1\n      eq\n      tag_5\n      jumpi\n      dup1\n      0x190f39f0\n      eq\n      tag_6\n      jumpi\n      dup1\n      0x3a22df78\n      eq\n      tag_7\n      jumpi\n    tag_2:\n      0x00\n      dup1\n      revert\n        /* \"TEXOToken.sol\":38138:38231  function poolLength() external view returns (uint256) {... */\n    tag_3:\n      tag_53\n      tag_54\n      jump\t// in\n    tag_53:\n      mload(0x40)\n      dup1\n      dup3\n      dup2\n      mstore\n      0x20\n      add\n      swap2\n      pop\n      pop\n      mload(0x40)\n      dup1\n      swap2\n      sub\n      swap1\n      return\n        /* \"TEXOToken.sol\":35437:35463  PoolInfo[] public poolInfo */\n    tag_4:\n      tag_55\n      0x04\n      dup1\n      calldatasize\n      sub\n      0x20\n      dup2\n      lt\n      iszero\n      tag_56\n      jumpi\n      0x00\n      dup1\n      revert\n    tag_56:\n      dup2\n      add\n      swap1\n      dup1\n      dup1\n      calldataload\n      swap1\n      0x20\n      add\n      swap1\n      swap3\n      swap2\n      swap1\n      pop\n      pop\n      pop\n      tag_57\n      jump\t// in\n    tag_55:\n      mload(0x40)\n      dup1\n      dup7\n      0xffffffffffffffffffffffffffffffffffffffff\n      and\n      dup2\n      mstore\n      0x20\n      add\n      dup6\n      dup2\n      mstore\n      0x20\n      add\n      dup5\n      dup2\n      mstore\n      0x20\n      add\n      dup4\n      dup2\n      mstore\n      0x20\n      add\n      dup3\n      0xffff\n      and\n      dup2\n      mstore\n      0x20\n      add\n      swap6\n      pop\n      pop\n      pop\n      pop\n      pop\n      pop\n      mload(0x40)\n      dup1\n      swap2\n      sub\n      swap1\n      return\n        /* \"TEXOToken.sol\":35674:35708  uint256 public totalAllocPoint = 0 */\n    tag_5:\n      tag_58\n      tag_59\n      jump\t// in\n    tag_58:\n      mload(0x40)\n      dup1\n      dup3\n      dup2\n      mstore\n      0x20\n      add\n      swap2\n      pop\n      pop\n      mload(0x40)\n      dup1\n      swap2\n      sub\n      swap1\n      return\n        /* \"TEXOToken.sol\":38237:38455  function getPoolIdForLpToken(IBEP20 _lpToken) external view returns (uint256) {... */\n    tag_6:\n      tag_60\n      0x04\n      dup1\n      calldatasize\n      sub\n      0x20\n      dup2\n      lt\n      iszero\n      tag_61\n      jumpi\n      0x00\n      dup1\n      revert\n    tag_61:\n      dup2\n      add\n      swap1\n      dup1\n      dup1\n      calldataload\n      0xffffffffffffffffffffffffffffffffffffffff\n      and\n      swap1\n      0x20\n      add\n      swap1\n      swap3\n      swap2\n      swap1\n      pop\n      pop\n      pop\n      tag_62\n      jump\t// in\n    tag_60:\n      mload(0x40)\n      dup1\n      dup3\n      dup2\n      mstore\n      0x20\n      add\n      swap2\n      pop\n      pop\n      mload(0x40)\n      dup1\n      swap2\n      sub\n      swap1\n      return\n        /* \"TEXOToken.sol\":36019:36068  uint16 public constant MAXIMUM_REFERRAL_BP = 2000 */\n    tag_7:\n      tag_63\n      tag_64\n      jump\t// in\n    tag_63:\n      mload(0x40)\n      dup1\n      dup3\n      0xffff\n      and\n      dup2\n      mstore\n      0x20\n      add\n      swap2\n      pop\n      pop\n      mload(0x40)\n      dup1\n      swap2\n      sub\n      swap1\n      return\n        /* \"TEXOToken.sol\":50140:50246  function getReferral(address _user) public view returns (address) {... */\n    tag_8:\n      tag_65\n      0x04\n      dup1\n      calldatasize\n      sub\n      0x20\n      dup2\n      lt\n      iszero\n      tag_66\n      jumpi\n      0x00\n      dup1\n      revert\n    tag_66:\n      dup2\n      add\n      swap1\n      dup1\n      dup1\n      calldataload\n      0xffffffffffffffffffffffffffffffffffffffff\n      and\n      swap1\n      0x20\n      add\n      swap1\n      swap3\n      swap2\n      swap1\n      pop\n      pop\n      pop\n      tag_67\n      jump\t// in\n    tag_65:\n      mload(0x40)\n      dup1\n      dup3\n      0xffffffffffffffffffffffffffffffffffffffff\n      and\n      dup2\n      mstore\n      0x20\n      add\n      swap2\n      pop\n      pop\n      mload(0x40)\n      dup1\n      swap2\n      sub\n      swap1\n      return\n        /* \"TEXOToken.sol\":36187:36235  mapping(address => uint256) public referredCount */\n    tag_9:\n      tag_68\n      0x04\n      dup1\n      calldatasize\n      sub\n      0x20\n      dup2\n      lt\n      iszero\n      tag_69\n      jumpi\n      0x00\n      dup1\n      revert\n    tag_69:\n      dup2\n      add\n      swap1\n      dup1\n      dup1\n      calldataload\n      0xffffffffffffffffffffffffffffffffffffffff\n      and\n      swap1\n      0x20\n      add\n      swap1\n      swap3\n      swap2\n      swap1\n      pop\n      pop\n      pop\n      tag_70\n      jump\t// in\n    tag_68:\n      mload(0x40)\n      dup1\n      dup3\n      dup2\n      mstore\n      0x20\n      add\n      swap2\n      pop\n      pop\n      mload(0x40)\n      dup1\n      swap2\n      sub\n      swap1\n      return\n        /* \"TEXOToken.sol\":35379:35404  address public feeAddress */\n    tag_10:\n      tag_71\n      tag_72\n      jump\t// in\n    tag_71:\n      mload(0x40)\n      dup1\n      dup3\n      0xffffffffffffffffffffffffffffffffffffffff\n      and\n      dup2\n      mstore\n      0x20\n      add\n      swap2\n      pop\n      pop\n      mload(0x40)\n      dup1\n      swap2\n      sub\n      swap1\n      return\n        /* \"TEXOToken.sol\":45554:46385  function withdraw(uint256 _pid, uint256 _amount) public nonReentrant {... */\n    tag_11:\n      tag_73\n      0x04\n      dup1\n      calldatasize\n      sub\n      0x40\n      dup2\n      lt\n      iszero\n      tag_74\n      jumpi\n      0x00\n      dup1\n      revert\n    tag_74:\n      dup2\n      add\n      swap1\n      dup1\n      dup1\n      calldataload\n      swap1\n      0x20\n      add\n      swap1\n      swap3\n      swap2\n      swap1\n      dup1\n      calldataload\n      swap1\n      0x20\n      add\n      swap1\n      swap3\n      swap2\n      swap1\n      pop\n      pop\n      pop\n      tag_75\n      jump\t// in\n    tag_73:\n      stop\n        /* \"TEXOToken.sol\":37018:37063  bool public isAllowReduceEmissionRate = false */\n    tag_12:\n      tag_76\n      tag_77\n      jump\t// in\n    tag_76:\n      mload(0x40)\n      dup1\n      dup3\n      iszero\n      iszero\n      dup2\n      mstore\n      0x20\n      add\n      swap2\n      pop\n      pop\n      mload(0x40)\n      dup1\n      swap2\n      sub\n      swap1\n      return\n        /* \"TEXOToken.sol\":35763:35788  uint256 public startBlock */\n    tag_13:\n      tag_78\n      tag_79\n      jump\t// in\n    tag_78:\n      mload(0x40)\n      dup1\n      dup3\n      dup2\n      mstore\n      0x20\n      add\n      swap2\n      pop\n      pop\n      mload(0x40)\n      dup1\n      swap2\n      sub\n      swap1\n      return\n        /* \"TEXOToken.sol\":36098:36142  mapping(address => address) public referrers */\n    tag_14:\n      tag_80\n      0x04\n      dup1\n      calldatasize\n      sub\n      0x20\n      dup2\n      lt\n      iszero\n      tag_81\n      jumpi\n      0x00\n      dup1\n      revert\n    tag_81:\n      dup2\n      add\n      swap1\n      dup1\n      dup1\n      calldataload\n      0xffffffffffffffffffffffffffffffffffffffff\n      and\n      swap1\n      0x20\n      add\n      swap1\n      swap3\n      swap2\n      swap1\n      pop\n      pop\n      pop\n      tag_82\n      jump\t// in\n    tag_80:\n      mload(0x40)\n      dup1\n      dup3\n      0xffffffffffffffffffffffffffffffffffffffff\n      and\n      dup2\n      mstore\n      0x20\n      add\n      swap2\n      pop\n      pop\n      mload(0x40)\n      dup1\n      swap2\n      sub\n      swap1\n      return\n        /* \"TEXOToken.sol\":41611:42820  function updatePool(uint256 _pid) public {... */\n    tag_15:\n      tag_83\n      0x04\n      dup1\n      calldatasize\n      sub\n      0x20\n      dup2\n      lt\n      iszero\n      tag_84\n      jumpi\n      0x00\n      dup1\n      revert\n    tag_84:\n      dup2\n      add\n      swap1\n      dup1\n      dup1\n      calldataload\n      swap1\n      0x20\n      add\n      swap1\n      swap3\n      swap2\n      swap1\n      pop\n      pop\n      pop\n      tag_85\n      jump\t// in\n    tag_83:\n      stop\n        /* \"TEXOToken.sol\":46453:46815  function emergencyWithdraw(uint256 _pid) public nonReentrant {... */\n    tag_16:\n      tag_86\n      0x04\n      dup1\n      calldatasize\n      sub\n      0x20\n      dup2\n      lt\n      iszero\n      tag_87\n      jumpi\n      0x00\n      dup1\n      revert\n    tag_87:\n      dup2\n      add\n      swap1\n      dup1\n      dup1\n      calldataload\n      swap1\n      0x20\n      add\n      swap1\n      swap3\n      swap2\n      swap1\n      pop\n      pop\n      pop\n      tag_88\n      jump\t// in\n    tag_86:\n      stop\n        /* \"TEXOToken.sol\":36611:36668  uint256 public constant MINIMUM_EMISSION_RATE = 50 finney */\n    tag_17:\n      tag_89\n      tag_90\n      jump\t// in\n    tag_89:\n      mload(0x40)\n      dup1\n      dup3\n      dup2\n      mstore\n      0x20\n      add\n      swap2\n      pop\n      pop\n      mload(0x40)\n      dup1\n      swap2\n      sub\n      swap1\n      return\n        /* \"TEXOToken.sol\":41363:41538  function massUpdatePools() public {... */\n    tag_18:\n      tag_91\n      tag_92\n      jump\t// in\n    tag_91:\n      stop\n        /* \"TEXOToken.sol\":50911:51358  function updateReferralBonusBp(uint256 _newRefBonusBp) public onlyOwner {... */\n    tag_19:\n      tag_93\n      0x04\n      dup1\n      calldatasize\n      sub\n      0x20\n      dup2\n      lt\n      iszero\n      tag_94\n      jumpi\n      0x00\n      dup1\n      revert\n    tag_94:\n      dup2\n      add\n      swap1\n      dup1\n      dup1\n      calldataload\n      swap1\n      0x20\n      add\n      swap1\n      swap3\n      swap2\n      swap1\n      pop\n      pop\n      pop\n      tag_95\n      jump\t// in\n    tag_93:\n      stop\n        /* \"TEXOToken.sol\":35319:35346  uint256 public tEXOPerBlock */\n    tag_20:\n      tag_96\n      tag_97\n      jump\t// in\n    tag_96:\n      mload(0x40)\n      dup1\n      dup3\n      dup2\n      mstore\n      0x20\n      add\n      swap2\n      pop\n      pop\n      mload(0x40)\n      dup1\n      swap2\n      sub\n      swap1\n      return\n        /* \"TEXOToken.sol\":35853:35884  uint256 public refBonusBP = 200 */\n    tag_21:\n      tag_98\n      tag_99\n      jump\t// in\n    tag_98:\n      mload(0x40)\n      dup1\n      dup3\n      dup2\n      mstore\n      0x20\n      add\n      swap2\n      pop\n      pop\n      mload(0x40)\n      dup1\n      swap2\n      sub\n      swap1\n      return\n        /* \"TEXOToken.sol\":36968:37011  uint256 public lastReductionPeriodIndex = 0 */\n    tag_22:\n      tag_100\n      tag_101\n      jump\t// in\n    tag_100:\n      mload(0x40)\n      dup1\n      dup3\n      dup2\n      mstore\n      0x20\n      add\n      swap2\n      pop\n      pop\n      mload(0x40)\n      dup1\n      swap2\n      sub\n      swap1\n      return\n        /* \"TEXOToken.sol\":12080:12217  function renounceOwnership() public onlyOwner {... */\n    tag_23:\n      tag_102\n      tag_103\n      jump\t// in\n    tag_102:\n      stop\n        /* \"TEXOToken.sol\":49463:49586  function setFlagAllowReduceEmissionRate(bool isAllow) public onlyOwner {... */\n    tag_24:\n      tag_104\n      0x04\n      dup1\n      calldatasize\n      sub\n      0x20\n      dup2\n      lt\n      iszero\n      tag_105\n      jumpi\n      0x00\n      dup1\n      revert\n    tag_105:\n      dup2\n      add\n      swap1\n      dup1\n      dup1\n      calldataload\n      iszero\n      iszero\n      swap1\n      0x20\n      add\n      swap1\n      swap3\n      swap2\n      swap1\n      pop\n      pop\n      pop\n      tag_106\n      jump\t// in\n    tag_104:\n      stop\n        /* \"TEXOToken.sol\":38712:39539  function add(... */\n    tag_25:\n      tag_107\n      0x04\n      dup1\n      calldatasize\n      sub\n      0x80\n      dup2\n      lt\n      iszero\n      tag_108\n      jumpi\n      0x00\n      dup1\n      revert\n    tag_108:\n      dup2\n      add\n      swap1\n      dup1\n      dup1\n      calldataload\n      swap1\n      0x20\n      add\n      swap1\n      swap3\n      swap2\n      swap1\n      dup1\n      calldataload\n      0xffffffffffffffffffffffffffffffffffffffff\n      and\n      swap1\n      0x20\n      add\n      swap1\n      swap3\n      swap2\n      swap1\n      dup1\n      calldataload\n      0xffff\n      and\n      swap1\n      0x20\n      add\n      swap1\n      swap3\n      swap2\n      swap1\n      dup1\n      calldataload\n      iszero\n      iszero\n      swap1\n      0x20\n      add\n      swap1\n      swap3\n      swap2\n      swap1\n      pop\n      pop\n      pop\n      tag_109\n      jump\t// in\n    tag_107:\n      stop\n        /* \"TEXOToken.sol\":47708:48002  function setFeeAddress(address _feeAddress) public {... */\n    tag_26:\n      tag_110\n      0x04\n      dup1\n      calldatasize\n      sub\n      0x20\n      dup2\n      lt\n      iszero\n      tag_111\n      jumpi\n      0x00\n      dup1\n      revert\n    tag_111:\n      dup2\n      add\n      swap1\n      dup1\n      dup1\n      calldataload\n      0xffffffffffffffffffffffffffffffffffffffff\n      and\n      swap1\n      0x20\n      add\n      swap1\n      swap3\n      swap2\n      swap1\n      pop\n      pop\n      pop\n      tag_112\n      jump\t// in\n    tag_110:\n      stop\n        /* \"TEXOToken.sol\":11457:11534  function owner() public view returns (address) {... */\n    tag_27:\n      tag_113\n      tag_114\n      jump\t// in\n    tag_113:\n      mload(0x40)\n      dup1\n      dup3\n      0xffffffffffffffffffffffffffffffffffffffff\n      and\n      dup2\n      mstore\n      0x20\n      add\n      swap2\n      pop\n      pop\n      mload(0x40)\n      dup1\n      swap2\n      sub\n      swap1\n      return\n        /* \"TEXOToken.sol\":40253:40388  function getMultiplier(uint256 _from, uint256 _to)... */\n    tag_28:\n      tag_115\n      0x04\n      dup1\n      calldatasize\n      sub\n      0x40\n      dup2\n      lt\n      iszero\n      tag_116\n      jumpi\n      0x00\n      dup1\n      revert\n    tag_116:\n      dup2\n      add\n      swap1\n      dup1\n      dup1\n      calldataload\n      swap1\n      0x20\n      add\n      swap1\n      swap3\n      swap2\n      swap1\n      dup1\n      calldataload\n      swap1\n      0x20\n      add\n      swap1\n      swap3\n      swap2\n      swap1\n      pop\n      pop\n      pop\n      tag_117\n      jump\t// in\n    tag_115:\n      mload(0x40)\n      dup1\n      dup3\n      dup2\n      mstore\n      0x20\n      add\n      swap2\n      pop\n      pop\n      mload(0x40)\n      dup1\n      swap2\n      sub\n      swap1\n      return\n        /* \"TEXOToken.sol\":44129:45505  function deposit(uint256 _pid, uint256 _amount, address _referrer) public nonReentrant {... */\n    tag_29:\n      tag_118\n      0x04\n      dup1\n      calldatasize\n      sub\n      0x60\n      dup2\n      lt\n      iszero\n      tag_119\n      jumpi\n      0x00\n      dup1\n      revert\n    tag_119:\n      dup2\n      add\n      swap1\n      dup1\n      dup1\n      calldataload\n      swap1\n      0x20\n      add\n      swap1\n      swap3\n      swap2\n      swap1\n      dup1\n      calldataload\n      swap1\n      0x20\n      add\n      swap1\n      swap3\n      swap2\n      swap1\n      dup1\n      calldataload\n      0xffffffffffffffffffffffffffffffffffffffff\n      and\n      swap1\n      0x20\n      add\n      swap1\n      swap3\n      swap2\n      swap1\n      pop\n      pop\n      pop\n      tag_120\n      jump\t// in\n    tag_118:\n      stop\n        /* \"TEXOToken.sol\":36495:36553  uint256 public constant INITIAL_EMISSION_RATE = 500 finney */\n    tag_30:\n      tag_121\n      tag_122\n      jump\t// in\n    tag_121:\n      mload(0x40)\n      dup1\n      dup3\n      dup2\n      mstore\n      0x20\n      add\n      swap2\n      pop\n      pop\n      mload(0x40)\n      dup1\n      swap2\n      sub\n      swap1\n      return\n        /* \"TEXOToken.sol\":35517:35581  mapping(uint256 => mapping(address => UserInfo)) public userInfo */\n    tag_31:\n      tag_123\n      0x04\n      dup1\n      calldatasize\n      sub\n      0x40\n      dup2\n      lt\n      iszero\n      tag_124\n      jumpi\n      0x00\n      dup1\n      revert\n    tag_124:\n      dup2\n      add\n      swap1\n      dup1\n      dup1\n      calldataload\n      swap1\n      0x20\n      add\n      swap1\n      swap3\n      swap2\n      swap1\n      dup1\n      calldataload\n      0xffffffffffffffffffffffffffffffffffffffff\n      and\n      swap1\n      0x20\n      add\n      swap1\n      swap3\n      swap2\n      swap1\n      pop\n      pop\n      pop\n      tag_125\n      jump\t// in\n    tag_123:\n      mload(0x40)\n      dup1\n      dup4\n      dup2\n      mstore\n      0x20\n      add\n      dup3\n      dup2\n      mstore\n      0x20\n      add\n      swap3\n      pop\n      pop\n      pop\n      mload(0x40)\n      dup1\n      swap2\n      sub\n      swap1\n      return\n        /* \"TEXOToken.sol\":35919:35971  uint16 public constant MAXIMUM_DEPOSIT_FEE_BP = 1000 */\n    tag_32:\n      tag_126\n      tag_127\n      jump\t// in\n    tag_126:\n      mload(0x40)\n      dup1\n      dup3\n      0xffff\n      and\n      dup2\n      mstore\n      0x20\n      add\n      swap2\n      pop\n      pop\n      mload(0x40)\n      dup1\n      swap2\n      sub\n      swap1\n      return\n        /* \"TEXOToken.sol\":36386:36438  mapping(IBEP20 => uint256) public poolIdForLpAddress */\n    tag_33:\n      tag_128\n      0x04\n      dup1\n      calldatasize\n      sub\n      0x20\n      dup2\n      lt\n      iszero\n      tag_129\n      jumpi\n      0x00\n      dup1\n      revert\n    tag_129:\n      dup2\n      add\n      swap1\n      dup1\n      dup1\n      calldataload\n      0xffffffffffffffffffffffffffffffffffffffff\n      and\n      swap1\n      0x20\n      add\n      swap1\n      swap3\n      swap2\n      swap1\n      pop\n      pop\n      pop\n      tag_130\n      jump\t// in\n    tag_128:\n      mload(0x40)\n      dup1\n      dup3\n      dup2\n      mstore\n      0x20\n      add\n      swap2\n      pop\n      pop\n      mload(0x40)\n      dup1\n      swap2\n      sub\n      swap1\n      return\n        /* \"TEXOToken.sol\":49592:49706  function setEmissionRate(uint256 newEmissionRate) public onlyOwner {... */\n    tag_34:\n      tag_131\n      0x04\n      dup1\n      calldatasize\n      sub\n      0x20\n      dup2\n      lt\n      iszero\n      tag_132\n      jumpi\n      0x00\n      dup1\n      revert\n    tag_132:\n      dup2\n      add\n      swap1\n      dup1\n      dup1\n      calldataload\n      swap1\n      0x20\n      add\n      swap1\n      swap3\n      swap2\n      swap1\n      pop\n      pop\n      pop\n      tag_133\n      jump\t// in\n    tag_131:\n      stop\n        /* \"TEXOToken.sol\":35206:35227  TEXOToken public tEXO */\n    tag_35:\n      tag_134\n      tag_135\n      jump\t// in\n    tag_134:\n      mload(0x40)\n      dup1\n      dup3\n      0xffffffffffffffffffffffffffffffffffffffff\n      and\n      dup2\n      mstore\n      0x20\n      add\n      swap2\n      pop\n      pop\n      mload(0x40)\n      dup1\n      swap2\n      sub\n      swap1\n      return\n        /* \"TEXOToken.sol\":36863:36927  uint256 public constant EMISSION_REDUCTION_RATE_PER_PERIOD = 300 */\n    tag_36:\n      tag_136\n      tag_137\n      jump\t// in\n    tag_136:\n      mload(0x40)\n      dup1\n      dup3\n      dup2\n      mstore\n      0x20\n      add\n      swap2\n      pop\n      pop\n      mload(0x40)\n      dup1\n      swap2\n      sub\n      swap1\n      return\n        /* \"TEXOToken.sol\":36306:36350  mapping(IBEP20 => bool) public poolExistence */\n    tag_37:\n      tag_138\n      0x04\n      dup1\n      calldatasize\n      sub\n      0x20\n      dup2\n      lt\n      iszero\n      tag_139\n      jumpi\n      0x00\n      dup1\n      revert\n    tag_139:\n      dup2\n      add\n      swap1\n      dup1\n      dup1\n      calldataload\n      0xffffffffffffffffffffffffffffffffffffffff\n      and\n      swap1\n      0x20\n      add\n      swap1\n      swap3\n      swap2\n      swap1\n      pop\n      pop\n      pop\n      tag_140\n      jump\t// in\n    tag_138:\n      mload(0x40)\n      dup1\n      dup3\n      iszero\n      iszero\n      dup2\n      mstore\n      0x20\n      add\n      swap2\n      pop\n      pop\n      mload(0x40)\n      dup1\n      swap2\n      sub\n      swap1\n      return\n        /* \"TEXOToken.sol\":47396:47647  function setDevAddress(address _devaddr) public {... */\n    tag_38:\n      tag_141\n      0x04\n      dup1\n      calldatasize\n      sub\n      0x20\n      dup2\n      lt\n      iszero\n      tag_142\n      jumpi\n      0x00\n      dup1\n      revert\n    tag_142:\n      dup2\n      add\n      swap1\n      dup1\n      dup1\n      calldataload\n      0xffffffffffffffffffffffffffffffffffffffff\n      and\n      swap1\n      0x20\n      add\n      swap1\n      swap3\n      swap2\n      swap1\n      pop\n      pop\n      pop\n      tag_143\n      jump\t// in\n    tag_141:\n      stop\n        /* \"TEXOToken.sol\":36730:36794  uint256 public constant EMISSION_REDUCTION_PERIOD_BLOCKS = 14400 */\n    tag_39:\n      tag_144\n      tag_145\n      jump\t// in\n    tag_144:\n      mload(0x40)\n      dup1\n      dup3\n      dup2\n      mstore\n      0x20\n      add\n      swap2\n      pop\n      pop\n      mload(0x40)\n      dup1\n      swap2\n      sub\n      swap1\n      return\n        /* \"TEXOToken.sol\":39648:40180  function set(... */\n    tag_40:\n      tag_146\n      0x04\n      dup1\n      calldatasize\n      sub\n      0x80\n      dup2\n      lt\n      iszero\n      tag_147\n      jumpi\n      0x00\n      dup1\n      revert\n    tag_147:\n      dup2\n      add\n      swap1\n      dup1\n      dup1\n      calldataload\n      swap1\n      0x20\n      add\n      swap1\n      swap3\n      swap2\n      swap1\n      dup1\n      calldataload\n      swap1\n      0x20\n      add\n      swap1\n      swap3\n      swap2\n      swap1\n      dup1\n      calldataload\n      0xffff\n      and\n      swap1\n      0x20\n      add\n      swap1\n      swap3\n      swap2\n      swap1\n      dup1\n      calldataload\n      iszero\n      iszero\n      swap1\n      0x20\n      add\n      swap1\n      swap3\n      swap2\n      swap1\n      pop\n      pop\n      pop\n      tag_148\n      jump\t// in\n    tag_146:\n      stop\n        /* \"TEXOToken.sol\":35253:35275  address public devAddr */\n    tag_41:\n      tag_149\n      tag_150\n      jump\t// in\n    tag_149:\n      mload(0x40)\n      dup1\n      dup3\n      0xffffffffffffffffffffffffffffffffffffffff\n      and\n      dup2\n      mstore\n      0x20\n      add\n      swap2\n      pop\n      pop\n      mload(0x40)\n      dup1\n      swap2\n      sub\n      swap1\n      return\n        /* \"TEXOToken.sol\":40449:41283  function pendingTEXO(uint256 _pid, address _user)... */\n    tag_42:\n      tag_151\n      0x04\n      dup1\n      calldatasize\n      sub\n      0x40\n      dup2\n      lt\n      iszero\n      tag_152\n      jumpi\n      0x00\n      dup1\n      revert\n    tag_152:\n      dup2\n      add\n      swap1\n      dup1\n      dup1\n      calldataload\n      swap1\n      0x20\n      add\n      swap1\n      swap3\n      swap2\n      swap1\n      dup1\n      calldataload\n      0xffffffffffffffffffffffffffffffffffffffff\n      and\n      swap1\n      0x20\n      add\n      swap1\n      swap3\n      swap2\n      swap1\n      pop\n      pop\n      pop\n      tag_153\n      jump\t// in\n    tag_151:\n      mload(0x40)\n      dup1\n      dup3\n      dup2\n      mstore\n      0x20\n      add\n      swap2\n      pop\n      pop\n      mload(0x40)\n      dup1\n      swap2\n      sub\n      swap1\n      return\n        /* \"TEXOToken.sol\":42886:44049  function deposit(uint256 _pid, uint256 _amount) public nonReentrant {... */\n    tag_43:\n      tag_154\n      0x04\n      dup1\n      calldatasize\n      sub\n      0x40\n      dup2\n      lt\n      iszero\n      tag_155\n      jumpi\n      0x00\n      dup1\n      revert\n    tag_155:\n      dup2\n      add\n      swap1\n      dup1\n      dup1\n      calldataload\n      swap1\n      0x20\n      add\n      swap1\n      swap3\n      swap2\n      swap1\n      dup1\n      calldataload\n      swap1\n      0x20\n      add\n      swap1\n      swap3\n      swap2\n      swap1\n      pop\n      pop\n      pop\n      tag_156\n      jump\t// in\n    tag_154:\n      stop\n        /* \"TEXOToken.sol\":48147:49457  function reduceEmissionRateWithDefaultRate() public {... */\n    tag_44:\n      tag_157\n      tag_158\n      jump\t// in\n    tag_157:\n      stop\n        /* \"TEXOToken.sol\":12366:12473  function transferOwnership(address newOwner) public onlyOwner {... */\n    tag_45:\n      tag_159\n      0x04\n      dup1\n      calldatasize\n      sub\n      0x20\n      dup2\n      lt\n      iszero\n      tag_160\n      jumpi\n      0x00\n      dup1\n      revert\n    tag_160:\n      dup2\n      add\n      swap1\n      dup1\n      dup1\n      calldataload\n      0xffffffffffffffffffffffffffffffffffffffff\n      and\n      swap1\n      0x20\n      add\n      swap1\n      swap3\n      swap2\n      swap1\n      pop\n      pop\n      pop\n      tag_161\n      jump\t// in\n    tag_159:\n      stop\n        /* \"TEXOToken.sol\":38138:38231  function poolLength() external view returns (uint256) {... */\n    tag_54:\n        /* \"TEXOToken.sol\":38183:38190  uint256 */\n      0x00\n        /* \"TEXOToken.sol\":38209:38217  poolInfo */\n      0x06\n        /* \"TEXOToken.sol\":38209:38224  poolInfo.length */\n      dup1\n      sload\n      swap1\n      pop\n        /* \"TEXOToken.sol\":38202:38224  return poolInfo.length */\n      swap1\n      pop\n        /* \"TEXOToken.sol\":38138:38231  function poolLength() external view returns (uint256) {... */\n      swap1\n      jump\t// out\n        /* \"TEXOToken.sol\":35437:35463  PoolInfo[] public poolInfo */\n    tag_57:\n      0x06\n      dup2\n      dup2\n      sload\n      dup2\n      lt\n      tag_163\n      jumpi\n      invalid\n    tag_163:\n      swap1\n      0x00\n      mstore\n      keccak256(0x00, 0x20)\n      swap1\n      0x05\n      mul\n      add\n      0x00\n      swap2\n      pop\n      swap1\n      pop\n      dup1\n      0x00\n      add\n      0x00\n      swap1\n      sload\n      swap1\n      0x0100\n      exp\n      swap1\n      div\n      0xffffffffffffffffffffffffffffffffffffffff\n      and\n      swap1\n      dup1\n      0x01\n      add\n      sload\n      swap1\n      dup1\n      0x02\n      add\n      sload\n      swap1\n      dup1\n      0x03\n      add\n      sload\n      swap1\n      dup1\n      0x04\n      add\n      0x00\n      swap1\n      sload\n      swap1\n      0x0100\n      exp\n      swap1\n      div\n      0xffff\n      and\n      swap1\n      pop\n      dup6\n      jump\t// out\n        /* \"TEXOToken.sol\":35674:35708  uint256 public totalAllocPoint = 0 */\n    tag_59:\n      sload(0x08)\n      dup2\n      jump\t// out\n        /* \"TEXOToken.sol\":38237:38455  function getPoolIdForLpToken(IBEP20 _lpToken) external view returns (uint256) {... */\n    tag_62:\n        /* \"TEXOToken.sol\":38306:38313  uint256 */\n      0x00\n        /* \"TEXOToken.sol\":38360:38365  false */\n      dup1\n        /* \"TEXOToken.sol\":38333:38365  poolExistence[_lpToken] != false */\n      iszero\n      iszero\n        /* \"TEXOToken.sol\":38333:38346  poolExistence */\n      0x0d\n        /* \"TEXOToken.sol\":38333:38356  poolExistence[_lpToken] */\n      0x00\n        /* \"TEXOToken.sol\":38347:38355  _lpToken */\n      dup5\n        /* \"TEXOToken.sol\":38333:38356  poolExistence[_lpToken] */\n      0xffffffffffffffffffffffffffffffffffffffff\n      and\n      0xffffffffffffffffffffffffffffffffffffffff\n      and\n      dup2\n      mstore\n      0x20\n      add\n      swap1\n      dup2\n      mstore\n      0x20\n      add\n      0x00\n      keccak256\n      0x00\n      swap1\n      sload\n      swap1\n      0x0100\n      exp\n      swap1\n      div\n      0xff\n      and\n        /* \"TEXOToken.sol\":38333:38365  poolExistence[_lpToken] != false */\n      iszero\n      iszero\n      eq\n      iszero\n        /* \"TEXOToken.sol\":38325:38403  require(poolExistence[_lpToken] != false, \"getPoolIdForLpToken: do not exist\") */\n      tag_166\n      jumpi\n      mload(0x40)\n      0x08c379a000000000000000000000000000000000000000000000000000000000\n      dup2\n      mstore\n      0x04\n      add\n      dup1\n      dup1\n      0x20\n      add\n      dup3\n      dup2\n      sub\n      dup3\n      mstore\n      0x21\n      dup2\n      mstore\n      0x20\n      add\n      dup1\n      data_bf35de78f3e15a98c58afdc189c393a6a76029783bd8ecfd3a8b87b4a628fd85\n      0x21\n      swap2\n      codecopy\n      0x40\n      add\n      swap2\n      pop\n      pop\n      mload(0x40)\n      dup1\n      swap2\n      sub\n      swap1\n      revert\n    tag_166:\n        /* \"TEXOToken.sol\":38420:38438  poolIdForLpAddress */\n      0x0e\n        /* \"TEXOToken.sol\":38420:38448  poolIdForLpAddress[_lpToken] */\n      0x00\n        /* \"TEXOToken.sol\":38439:38447  _lpToken */\n      dup4\n        /* \"TEXOToken.sol\":38420:38448  poolIdForLpAddress[_lpToken] */\n      0xffffffffffffffffffffffffffffffffffffffff\n      and\n      0xffffffffffffffffffffffffffffffffffffffff\n      and\n      dup2\n      mstore\n      0x20\n      add\n      swap1\n      dup2\n      mstore\n      0x20\n      add\n      0x00\n      keccak256\n      sload\n        /* \"TEXOToken.sol\":38413:38448  return poolIdForLpAddress[_lpToken] */\n      swap1\n      pop\n        /* \"TEXOToken.sol\":38237:38455  function getPoolIdForLpToken(IBEP20 _lpToken) external view returns (uint256) {... */\n      swap2\n      swap1\n      pop\n      jump\t// out\n        /* \"TEXOToken.sol\":36019:36068  uint16 public constant MAXIMUM_REFERRAL_BP = 2000 */\n    tag_64:\n        /* \"TEXOToken.sol\":36064:36068  2000 */\n      0x07d0\n        /* \"TEXOToken.sol\":36019:36068  uint16 public constant MAXIMUM_REFERRAL_BP = 2000 */\n      dup2\n      jump\t// out\n        /* \"TEXOToken.sol\":50140:50246  function getReferral(address _user) public view returns (address) {... */\n    tag_67:\n        /* \"TEXOToken.sol\":50197:50204  address */\n      0x00\n        /* \"TEXOToken.sol\":50223:50232  referrers */\n      0x0b\n        /* \"TEXOToken.sol\":50223:50239  referrers[_user] */\n      0x00\n        /* \"TEXOToken.sol\":50233:50238  _user */\n      dup4\n        /* \"TEXOToken.sol\":50223:50239  referrers[_user] */\n      0xffffffffffffffffffffffffffffffffffffffff\n      and\n      0xffffffffffffffffffffffffffffffffffffffff\n      and\n      dup2\n      mstore\n      0x20\n      add\n      swap1\n      dup2\n      mstore\n      0x20\n      add\n      0x00\n      keccak256\n      0x00\n      swap1\n      sload\n      swap1\n      0x0100\n      exp\n      swap1\n      div\n      0xffffffffffffffffffffffffffffffffffffffff\n      and\n        /* \"TEXOToken.sol\":50216:50239  return referrers[_user] */\n      swap1\n      pop\n        /* \"TEXOToken.sol\":50140:50246  function getReferral(address _user) public view returns (address) {... */\n      swap2\n      swap1\n      pop\n      jump\t// out\n        /* \"TEXOToken.sol\":36187:36235  mapping(address => uint256) public referredCount */\n    tag_70:\n      mstore(0x20, 0x0c)\n      dup1\n      0x00\n      mstore\n      keccak256(0x00, 0x40)\n      0x00\n      swap2\n      pop\n      swap1\n      pop\n      sload\n      dup2\n      jump\t// out\n        /* \"TEXOToken.sol\":35379:35404  address public feeAddress */\n    tag_72:\n      0x05\n      0x00\n      swap1\n      sload\n      swap1\n      0x0100\n      exp\n      swap1\n      div\n      0xffffffffffffffffffffffffffffffffffffffff\n      and\n      dup2\n      jump\t// out\n        /* \"TEXOToken.sol\":45554:46385  function withdraw(uint256 _pid, uint256 _amount) public nonReentrant {... */\n    tag_75:\n        /* \"TEXOToken.sol\":21204:21205  2 */\n      0x02\n        /* \"TEXOToken.sol\":21793:21800  _status */\n      sload(0x01)\n        /* \"TEXOToken.sol\":21793:21812  _status != _ENTERED */\n      eq\n      iszero\n        /* \"TEXOToken.sol\":21785:21848  require(_status != _ENTERED, \"ReentrancyGuard: reentrant call\") */\n      tag_169\n      jumpi\n      mload(0x40)\n      0x08c379a000000000000000000000000000000000000000000000000000000000\n      dup2\n      mstore\n      0x04\n      add\n      dup1\n      dup1\n      0x20\n      add\n      dup3\n      dup2\n      sub\n      dup3\n      mstore\n      0x1f\n      dup2\n      mstore\n      0x20\n      add\n      dup1\n      0x5265656e7472616e637947756172643a207265656e7472616e742063616c6c00\n      dup2\n      mstore\n      pop\n      0x20\n      add\n      swap2\n      pop\n      pop\n      mload(0x40)\n      dup1\n      swap2\n      sub\n      swap1\n      revert\n    tag_169:\n        /* \"TEXOToken.sol\":21204:21205  2 */\n      0x02\n        /* \"TEXOToken.sol\":21923:21930  _status */\n      0x01\n        /* \"TEXOToken.sol\":21923:21941  _status = _ENTERED */\n      dup2\n      swap1\n      sstore\n      pop\n        /* \"TEXOToken.sol\":45633:45654  PoolInfo storage pool */\n      0x00\n        /* \"TEXOToken.sol\":45657:45665  poolInfo */\n      0x06\n        /* \"TEXOToken.sol\":45666:45670  _pid */\n      dup4\n        /* \"TEXOToken.sol\":45657:45671  poolInfo[_pid] */\n      dup2\n      sload\n      dup2\n      lt\n      tag_171\n      jumpi\n      invalid\n    tag_171:\n      swap1\n      0x00\n      mstore\n      keccak256(0x00, 0x20)\n      swap1\n      0x05\n      mul\n      add\n        /* \"TEXOToken.sol\":45633:45671  PoolInfo storage pool = poolInfo[_pid] */\n      swap1\n      pop\n        /* \"TEXOToken.sol\":45681:45702  UserInfo storage user */\n      0x00\n        /* \"TEXOToken.sol\":45705:45713  userInfo */\n      0x07\n        /* \"TEXOToken.sol\":45705:45719  userInfo[_pid] */\n      0x00\n        /* \"TEXOToken.sol\":45714:45718  _pid */\n      dup6\n        /* \"TEXOToken.sol\":45705:45719  userInfo[_pid] */\n      dup2\n      mstore\n      0x20\n      add\n      swap1\n      dup2\n      mstore\n      0x20\n      add\n      0x00\n      keccak256\n        /* \"TEXOToken.sol\":45705:45731  userInfo[_pid][msg.sender] */\n      0x00\n        /* \"TEXOToken.sol\":45720:45730  msg.sender */\n      caller\n        /* \"TEXOToken.sol\":45705:45731  userInfo[_pid][msg.sender] */\n      0xffffffffffffffffffffffffffffffffffffffff\n      and\n      0xffffffffffffffffffffffffffffffffffffffff\n      and\n      dup2\n      mstore\n      0x20\n      add\n      swap1\n      dup2\n      mstore\n      0x20\n      add\n      0x00\n      keccak256\n        /* \"TEXOToken.sol\":45681:45731  UserInfo storage user = userInfo[_pid][msg.sender] */\n      swap1\n      pop\n        /* \"TEXOToken.sol\":45764:45771  _amount */\n      dup3\n        /* \"TEXOToken.sol\":45749:45753  user */\n      dup2\n        /* \"TEXOToken.sol\":45749:45760  user.amount */\n      0x00\n      add\n      sload\n        /* \"TEXOToken.sol\":45749:45771  user.amount >= _amount */\n      lt\n      iszero\n        /* \"TEXOToken.sol\":45741:45794  require(user.amount >= _amount, \"withdraw: not good\") */\n      tag_173\n      jumpi\n      mload(0x40)\n      0x08c379a000000000000000000000000000000000000000000000000000000000\n      dup2\n      mstore\n      0x04\n      add\n      dup1\n      dup1\n      0x20\n      add\n      dup3\n      dup2\n      sub\n      dup3\n      mstore\n      0x12\n      dup2\n      mstore\n      0x20\n      add\n      dup1\n      0x77697468647261773a206e6f7420676f6f640000000000000000000000000000\n      dup2\n      mstore\n      pop\n      0x20\n      add\n      swap2\n      pop\n      pop\n      mload(0x40)\n      dup1\n      swap2\n      sub\n      swap1\n      revert\n    tag_173:\n        /* \"TEXOToken.sol\":45804:45820  updatePool(_pid) */\n      tag_174\n        /* \"TEXOToken.sol\":45815:45819  _pid */\n      dup5\n        /* \"TEXOToken.sol\":45804:45814  updatePool */\n      tag_85\n        /* \"TEXOToken.sol\":45804:45820  updatePool(_pid) */\n      jump\t// in\n    tag_174:\n        /* \"TEXOToken.sol\":45830:45845  uint256 pending */\n      0x00\n        /* \"TEXOToken.sol\":45856:45951  user.amount... */\n      tag_175\n        /* \"TEXOToken.sol\":45935:45939  user */\n      dup3\n        /* \"TEXOToken.sol\":45935:45950  user.rewardDebt */\n      0x01\n      add\n      sload\n        /* \"TEXOToken.sol\":45856:45921  user.amount... */\n      tag_176\n        /* \"TEXOToken.sol\":45916:45920  1e12 */\n      0xe8d4a51000\n        /* \"TEXOToken.sol\":45856:45902  user.amount... */\n      tag_177\n        /* \"TEXOToken.sol\":45881:45885  pool */\n      dup8\n        /* \"TEXOToken.sol\":45881:45901  pool.accTEXOPerShare */\n      0x03\n      add\n      sload\n        /* \"TEXOToken.sol\":45856:45860  user */\n      dup8\n        /* \"TEXOToken.sol\":45856:45867  user.amount */\n      0x00\n      add\n      sload\n        /* \"TEXOToken.sol\":45856:45880  user.amount... */\n      tag_178\n      swap1\n        /* \"TEXOToken.sol\":45856:45902  user.amount... */\n      swap2\n      swap1\n      0xffffffff\n      and\n      jump\t// in\n    tag_177:\n        /* \"TEXOToken.sol\":45856:45915  user.amount... */\n      tag_179\n      swap1\n        /* \"TEXOToken.sol\":45856:45921  user.amount... */\n      swap2\n      swap1\n      0xffffffff\n      and\n      jump\t// in\n    tag_176:\n        /* \"TEXOToken.sol\":45856:45934  user.amount... */\n      tag_180\n      swap1\n        /* \"TEXOToken.sol\":45856:45951  user.amount... */\n      swap2\n      swap1\n      0xffffffff\n      and\n      jump\t// in\n    tag_175:\n        /* \"TEXOToken.sol\":45830:45951  uint256 pending =... */\n      swap1\n      pop\n        /* \"TEXOToken.sol\":45975:45976  0 */\n      0x00\n        /* \"TEXOToken.sol\":45965:45972  pending */\n      dup2\n        /* \"TEXOToken.sol\":45965:45976  pending > 0 */\n      gt\n        /* \"TEXOToken.sol\":45961:46096  if (pending > 0) {... */\n      iszero\n      tag_181\n      jumpi\n        /* \"TEXOToken.sol\":45992:46029  safeTEXOTransfer(msg.sender, pending) */\n      tag_182\n        /* \"TEXOToken.sol\":46009:46019  msg.sender */\n      caller\n        /* \"TEXOToken.sol\":46021:46028  pending */\n      dup3\n        /* \"TEXOToken.sol\":45992:46008  safeTEXOTransfer */\n      tag_183\n        /* \"TEXOToken.sol\":45992:46029  safeTEXOTransfer(msg.sender, pending) */\n      jump\t// in\n    tag_182:\n        /* \"TEXOToken.sol\":46043:46085  payReferralCommission(msg.sender, pending) */\n      tag_184\n        /* \"TEXOToken.sol\":46065:46075  msg.sender */\n      caller\n        /* \"TEXOToken.sol\":46077:46084  pending */\n      dup3\n        /* \"TEXOToken.sol\":46043:46064  payReferralCommission */\n      tag_185\n        /* \"TEXOToken.sol\":46043:46085  payReferralCommission(msg.sender, pending) */\n      jump\t// in\n    tag_184:\n        /* \"TEXOToken.sol\":45961:46096  if (pending > 0) {... */\n    tag_181:\n        /* \"TEXOToken.sol\":46119:46120  0 */\n      0x00\n        /* \"TEXOToken.sol\":46109:46116  _amount */\n      dup5\n        /* \"TEXOToken.sol\":46109:46120  _amount > 0 */\n      gt\n        /* \"TEXOToken.sol\":46105:46254  if (_amount > 0) {... */\n      iszero\n      tag_186\n      jumpi\n        /* \"TEXOToken.sol\":46150:46174  user.amount.sub(_amount) */\n      tag_187\n        /* \"TEXOToken.sol\":46166:46173  _amount */\n      dup5\n        /* \"TEXOToken.sol\":46150:46154  user */\n      dup4\n        /* \"TEXOToken.sol\":46150:46161  user.amount */\n      0x00\n      add\n      sload\n        /* \"TEXOToken.sol\":46150:46165  user.amount.sub */\n      tag_180\n      swap1\n        /* \"TEXOToken.sol\":46150:46174  user.amount.sub(_amount) */\n      swap2\n      swap1\n      0xffffffff\n      and\n      jump\t// in\n    tag_187:\n        /* \"TEXOToken.sol\":46136:46140  user */\n      dup3\n        /* \"TEXOToken.sol\":46136:46147  user.amount */\n      0x00\n      add\n        /* \"TEXOToken.sol\":46136:46174  user.amount = user.amount.sub(_amount) */\n      dup2\n      swap1\n      sstore\n      pop\n        /* \"TEXOToken.sol\":46188:46243  pool.lpToken.safeTransfer(address(msg.sender), _amount) */\n      tag_188\n        /* \"TEXOToken.sol\":46222:46232  msg.sender */\n      caller\n        /* \"TEXOToken.sol\":46235:46242  _amount */\n      dup6\n        /* \"TEXOToken.sol\":46188:46192  pool */\n      dup6\n        /* \"TEXOToken.sol\":46188:46200  pool.lpToken */\n      0x00\n      add\n      0x00\n      swap1\n      sload\n      swap1\n      0x0100\n      exp\n      swap1\n      div\n      0xffffffffffffffffffffffffffffffffffffffff\n      and\n        /* \"TEXOToken.sol\":46188:46213  pool.lpToken.safeTransfer */\n      0xffffffffffffffffffffffffffffffffffffffff\n      and\n      tag_189\n      swap1\n        /* \"TEXOToken.sol\":46188:46243  pool.lpToken.safeTransfer(address(msg.sender), _amount) */\n      swap3\n      swap2\n      swap1\n      0xffffffff\n      and\n      jump\t// in\n    tag_188:\n        /* \"TEXOToken.sol\":46105:46254  if (_amount > 0) {... */\n    tag_186:\n        /* \"TEXOToken.sol\":46281:46328  user.amount.mul(pool.accTEXOPerShare).div(1e12) */\n      tag_190\n        /* \"TEXOToken.sol\":46323:46327  1e12 */\n      0xe8d4a51000\n        /* \"TEXOToken.sol\":46281:46318  user.amount.mul(pool.accTEXOPerShare) */\n      tag_191\n        /* \"TEXOToken.sol\":46297:46301  pool */\n      dup6\n        /* \"TEXOToken.sol\":46297:46317  pool.accTEXOPerShare */\n      0x03\n      add\n      sload\n        /* \"TEXOToken.sol\":46281:46285  user */\n      dup6\n        /* \"TEXOToken.sol\":46281:46292  user.amount */\n      0x00\n      add\n      sload\n        /* \"TEXOToken.sol\":46281:46296  user.amount.mul */\n      tag_178\n      swap1\n        /* \"TEXOToken.sol\":46281:46318  user.amount.mul(pool.accTEXOPerShare) */\n      swap2\n      swap1\n      0xffffffff\n      and\n      jump\t// in\n    tag_191:\n        /* \"TEXOToken.sol\":46281:46322  user.amount.mul(pool.accTEXOPerShare).div */\n      tag_179\n      swap1\n        /* \"TEXOToken.sol\":46281:46328  user.amount.mul(pool.accTEXOPerShare).div(1e12) */\n      swap2\n      swap1\n      0xffffffff\n      and\n      jump\t// in\n    tag_190:\n        /* \"TEXOToken.sol\":46263:46267  user */\n      dup3\n        /* \"TEXOToken.sol\":46263:46278  user.rewardDebt */\n      0x01\n      add\n        /* \"TEXOToken.sol\":46263:46328  user.rewardDebt = user.amount.mul(pool.accTEXOPerShare).div(1e12) */\n      dup2\n      swap1\n      sstore\n      pop\n        /* \"TEXOToken.sol\":46364:46368  _pid */\n      dup5\n        /* \"TEXOToken.sol\":46352:46362  msg.sender */\n      caller\n        /* \"TEXOToken.sol\":46343:46378  Withdraw(msg.sender, _pid, _amount) */\n      0xffffffffffffffffffffffffffffffffffffffff\n      and\n      0xf279e6a1f5e320cca91135676d9cb6e44ca8a08c0b88342bcdb1144f6511b568\n        /* \"TEXOToken.sol\":46370:46377  _amount */\n      dup7\n        /* \"TEXOToken.sol\":46343:46378  Withdraw(msg.sender, _pid, _amount) */\n      mload(0x40)\n      dup1\n      dup3\n      dup2\n      mstore\n      0x20\n      add\n      swap2\n      pop\n      pop\n      mload(0x40)\n      dup1\n      swap2\n      sub\n      swap1\n      log3\n        /* \"TEXOToken.sol\":21952:21953  _ */\n      pop\n      pop\n      pop\n        /* \"TEXOToken.sol\":21161:21162  1 */\n      0x01\n        /* \"TEXOToken.sol\":22096:22103  _status */\n      dup1\n        /* \"TEXOToken.sol\":22096:22118  _status = _NOT_ENTERED */\n      dup2\n      swap1\n      sstore\n      pop\n        /* \"TEXOToken.sol\":45554:46385  function withdraw(uint256 _pid, uint256 _amount) public nonReentrant {... */\n      pop\n      pop\n      jump\t// out\n        /* \"TEXOToken.sol\":37018:37063  bool public isAllowReduceEmissionRate = false */\n    tag_77:\n      0x10\n      0x00\n      swap1\n      sload\n      swap1\n      0x0100\n      exp\n      swap1\n      div\n      0xff\n      and\n      dup2\n      jump\t// out\n        /* \"TEXOToken.sol\":35763:35788  uint256 public startBlock */\n    tag_79:\n      sload(0x09)\n      dup2\n      jump\t// out\n        /* \"TEXOToken.sol\":36098:36142  mapping(address => address) public referrers */\n    tag_82:\n      mstore(0x20, 0x0b)\n      dup1\n      0x00\n      mstore\n      keccak256(0x00, 0x40)\n      0x00\n      swap2\n      pop\n      sload\n      swap1\n      0x0100\n      exp\n      swap1\n      div\n      0xffffffffffffffffffffffffffffffffffffffff\n      and\n      dup2\n      jump\t// out\n        /* \"TEXOToken.sol\":41611:42820  function updatePool(uint256 _pid) public {... */\n    tag_85:\n        /* \"TEXOToken.sol\":41662:41683  PoolInfo storage pool */\n      0x00\n        /* \"TEXOToken.sol\":41686:41694  poolInfo */\n      0x06\n        /* \"TEXOToken.sol\":41695:41699  _pid */\n      dup3\n        /* \"TEXOToken.sol\":41686:41700  poolInfo[_pid] */\n      dup2\n      sload\n      dup2\n      lt\n      tag_193\n      jumpi\n      invalid\n    tag_193:\n      swap1\n      0x00\n      mstore\n      keccak256(0x00, 0x20)\n      swap1\n      0x05\n      mul\n      add\n        /* \"TEXOToken.sol\":41662:41700  PoolInfo storage pool = poolInfo[_pid] */\n      swap1\n      pop\n        /* \"TEXOToken.sol\":41730:41734  pool */\n      dup1\n        /* \"TEXOToken.sol\":41730:41750  pool.lastRewardBlock */\n      0x02\n      add\n      sload\n        /* \"TEXOToken.sol\":41714:41726  block.number */\n      number\n        /* \"TEXOToken.sol\":41714:41750  block.number <= pool.lastRewardBlock */\n      gt\n        /* \"TEXOToken.sol\":41710:41783  if (block.number <= pool.lastRewardBlock) {... */\n      tag_195\n      jumpi\n        /* \"TEXOToken.sol\":41766:41773  return; */\n      pop\n      jump(tag_192)\n        /* \"TEXOToken.sol\":41710:41783  if (block.number <= pool.lastRewardBlock) {... */\n    tag_195:\n        /* \"TEXOToken.sol\":41792:41808  uint256 lpSupply */\n      0x00\n        /* \"TEXOToken.sol\":41811:41815  pool */\n      dup2\n        /* \"TEXOToken.sol\":41811:41823  pool.lpToken */\n      0x00\n      add\n      0x00\n      swap1\n      sload\n      swap1\n      0x0100\n      exp\n      swap1\n      div\n      0xffffffffffffffffffffffffffffffffffffffff\n      and\n        /* \"TEXOToken.sol\":41811:41833  pool.lpToken.balanceOf */\n      0xffffffffffffffffffffffffffffffffffffffff\n      and\n      0x70a08231\n        /* \"TEXOToken.sol\":41842:41846  this */\n      address\n        /* \"TEXOToken.sol\":41811:41848  pool.lpToken.balanceOf(address(this)) */\n      mload(0x40)\n      dup3\n      0xffffffff\n      and\n      0xe0\n      shl\n      dup2\n      mstore\n      0x04\n      add\n      dup1\n      dup3\n      0xffffffffffffffffffffffffffffffffffffffff\n      and\n      dup2\n      mstore\n      0x20\n      add\n      swap2\n      pop\n      pop\n      0x20\n      mload(0x40)\n      dup1\n      dup4\n      sub\n      dup2\n      dup7\n      dup1\n      extcodesize\n      iszero\n      dup1\n      iszero\n      tag_196\n      jumpi\n      0x00\n      dup1\n      revert\n    tag_196:\n      pop\n      gas\n      staticcall\n      iszero\n      dup1\n      iszero\n      tag_198\n      jumpi\n      returndatasize\n      0x00\n      dup1\n      returndatacopy\n      revert(0x00, returndatasize)\n    tag_198:\n      pop\n      pop\n      pop\n      pop\n      mload(0x40)\n      returndatasize\n      0x20\n      dup2\n      lt\n      iszero\n      tag_199\n      jumpi\n      0x00\n      dup1\n      revert\n    tag_199:\n      dup2\n      add\n      swap1\n      dup1\n      dup1\n      mload\n      swap1\n      0x20\n      add\n      swap1\n      swap3\n      swap2\n      swap1\n      pop\n      pop\n      pop\n        /* \"TEXOToken.sol\":41792:41848  uint256 lpSupply = pool.lpToken.balanceOf(address(this)) */\n      swap1\n      pop\n        /* \"TEXOToken.sol\":41962:41963  0 */\n      0x00\n        /* \"TEXOToken.sol\":41950:41958  lpSupply */\n      dup2\n        /* \"TEXOToken.sol\":41950:41963  lpSupply == 0 */\n      eq\n        /* \"TEXOToken.sol\":41950:41987  lpSupply == 0 || pool.allocPoint == 0 */\n      dup1\n      tag_200\n      jumpi\n      pop\n        /* \"TEXOToken.sol\":41986:41987  0 */\n      0x00\n        /* \"TEXOToken.sol\":41967:41971  pool */\n      dup3\n        /* \"TEXOToken.sol\":41967:41982  pool.allocPoint */\n      0x01\n      add\n      sload\n        /* \"TEXOToken.sol\":41967:41987  pool.allocPoint == 0 */\n      eq\n        /* \"TEXOToken.sol\":41950:41987  lpSupply == 0 || pool.allocPoint == 0 */\n    tag_200:\n        /* \"TEXOToken.sol\":41946:42150  if (lpSupply == 0 || pool.allocPoint == 0) { // If pool initially has no staked WETH token, or pool has no allocation points.... */\n      iszero\n      tag_201\n      jumpi\n        /* \"TEXOToken.sol\":42107:42119  block.number */\n      number\n        /* \"TEXOToken.sol\":42084:42088  pool */\n      dup3\n        /* \"TEXOToken.sol\":42084:42104  pool.lastRewardBlock */\n      0x02\n      add\n        /* \"TEXOToken.sol\":42084:42119  pool.lastRewardBlock = block.number */\n      dup2\n      swap1\n      sstore\n      pop\n        /* \"TEXOToken.sol\":42133:42140  return; */\n      pop\n      pop\n      jump(tag_192)\n        /* \"TEXOToken.sol\":41946:42150  if (lpSupply == 0 || pool.allocPoint == 0) { // If pool initially has no staked WETH token, or pool has no allocation points.... */\n    tag_201:\n        /* \"TEXOToken.sol\":42159:42177  uint256 multiplier */\n      0x00\n        /* \"TEXOToken.sol\":42180:42229  getMultiplier(pool.lastRewardBlock, block.number) */\n      tag_202\n        /* \"TEXOToken.sol\":42194:42198  pool */\n      dup4\n        /* \"TEXOToken.sol\":42194:42214  pool.lastRewardBlock */\n      0x02\n      add\n      sload\n        /* \"TEXOToken.sol\":42216:42228  block.number */\n      number\n        /* \"TEXOToken.sol\":42180:42193  getMultiplier */\n      tag_117\n        /* \"TEXOToken.sol\":42180:42229  getMultiplier(pool.lastRewardBlock, block.number) */\n      jump\t// in\n    tag_202:\n        /* \"TEXOToken.sol\":42159:42229  uint256 multiplier = getMultiplier(pool.lastRewardBlock, block.number) */\n      swap1\n      pop\n        /* \"TEXOToken.sol\":42300:42318  uint256 tEXOReward */\n      0x00\n        /* \"TEXOToken.sol\":42321:42418  multiplier... */\n      tag_203\n        /* \"TEXOToken.sol\":42402:42417  totalAllocPoint */\n      sload(0x08)\n        /* \"TEXOToken.sol\":42321:42388  multiplier... */\n      tag_204\n        /* \"TEXOToken.sol\":42372:42376  pool */\n      dup7\n        /* \"TEXOToken.sol\":42372:42387  pool.allocPoint */\n      0x01\n      add\n      sload\n        /* \"TEXOToken.sol\":42321:42358  multiplier... */\n      tag_205\n        /* \"TEXOToken.sol\":42345:42357  tEXOPerBlock */\n      sload(0x04)\n        /* \"TEXOToken.sol\":42321:42331  multiplier */\n      dup8\n        /* \"TEXOToken.sol\":42321:42344  multiplier... */\n      tag_178\n      swap1\n        /* \"TEXOToken.sol\":42321:42358  multiplier... */\n      swap2\n      swap1\n      0xffffffff\n      and\n      jump\t// in\n    tag_205:\n        /* \"TEXOToken.sol\":42321:42371  multiplier... */\n      tag_178\n      swap1\n        /* \"TEXOToken.sol\":42321:42388  multiplier... */\n      swap2\n      swap1\n      0xffffffff\n      and\n      jump\t// in\n    tag_204:\n        /* \"TEXOToken.sol\":42321:42401  multiplier... */\n      tag_179\n      swap1\n        /* \"TEXOToken.sol\":42321:42418  multiplier... */\n      swap2\n      swap1\n      0xffffffff\n      and\n      jump\t// in\n    tag_203:\n        /* \"TEXOToken.sol\":42300:42418  uint256 tEXOReward = multiplier... */\n      swap1\n      pop\n        /* \"TEXOToken.sol\":42428:42432  tEXO */\n      0x02\n      0x00\n      swap1\n      sload\n      swap1\n      0x0100\n      exp\n      swap1\n      div\n      0xffffffffffffffffffffffffffffffffffffffff\n      and\n        /* \"TEXOToken.sol\":42428:42437  tEXO.mint */\n      0xffffffffffffffffffffffffffffffffffffffff\n      and\n      0x40c10f19\n        /* \"TEXOToken.sol\":42438:42445  devAddr */\n      0x03\n      0x00\n      swap1\n      sload\n      swap1\n      0x0100\n      exp\n      swap1\n      div\n      0xffffffffffffffffffffffffffffffffffffffff\n      and\n        /* \"TEXOToken.sol\":42447:42465  tEXOReward.div(10) */\n      tag_206\n        /* \"TEXOToken.sol\":42462:42464  10 */\n      0x0a\n        /* \"TEXOToken.sol\":42447:42457  tEXOReward */\n      dup6\n        /* \"TEXOToken.sol\":42447:42461  tEXOReward.div */\n      tag_179\n      swap1\n        /* \"TEXOToken.sol\":42447:42465  tEXOReward.div(10) */\n      swap2\n      swap1\n      0xffffffff\n      and\n      jump\t// in\n    tag_206:\n        /* \"TEXOToken.sol\":42428:42466  tEXO.mint(devAddr, tEXOReward.div(10)) */\n      mload(0x40)\n      dup4\n      0xffffffff\n      and\n      0xe0\n      shl\n      dup2\n      mstore\n      0x04\n      add\n      dup1\n      dup4\n      0xffffffffffffffffffffffffffffffffffffffff\n      and\n      dup2\n      mstore\n      0x20\n      add\n      dup3\n      dup2\n      mstore\n      0x20\n      add\n      swap3\n      pop\n      pop\n      pop\n      0x00\n      mload(0x40)\n      dup1\n      dup4\n      sub\n      dup2\n      0x00\n      dup8\n      dup1\n      extcodesize\n      iszero\n      dup1\n      iszero\n      tag_207\n      jumpi\n      0x00\n      dup1\n      revert\n    tag_207:\n      pop\n      gas\n      call\n      iszero\n      dup1\n      iszero\n      tag_209\n      jumpi\n      returndatasize\n      0x00\n      dup1\n      returndatacopy\n      revert(0x00, returndatasize)\n    tag_209:\n      pop\n      pop\n      pop\n      pop\n        /* \"TEXOToken.sol\":42537:42541  tEXO */\n      0x02\n      0x00\n      swap1\n      sload\n      swap1\n      0x0100\n      exp\n      swap1\n      div\n      0xffffffffffffffffffffffffffffffffffffffff\n      and\n        /* \"TEXOToken.sol\":42537:42546  tEXO.mint */\n      0xffffffffffffffffffffffffffffffffffffffff\n      and\n      0x40c10f19\n        /* \"TEXOToken.sol\":42555:42559  this */\n      address\n        /* \"TEXOToken.sol\":42562:42572  tEXOReward */\n      dup4\n        /* \"TEXOToken.sol\":42537:42573  tEXO.mint(address(this), tEXOReward) */\n      mload(0x40)\n      dup4\n      0xffffffff\n      and\n      0xe0\n      shl\n      dup2\n      mstore\n      0x04\n      add\n      dup1\n      dup4\n      0xffffffffffffffffffffffffffffffffffffffff\n      and\n      dup2\n      mstore\n      0x20\n      add\n      dup3\n      dup2\n      mstore\n      0x20\n      add\n      swap3\n      pop\n      pop\n      pop\n      0x00\n      mload(0x40)\n      dup1\n      dup4\n      sub\n      dup2\n      0x00\n      dup8\n      dup1\n      extcodesize\n      iszero\n      dup1\n      iszero\n      tag_210\n      jumpi\n      0x00\n      dup1\n      revert\n    tag_210:\n      pop\n      gas\n      call\n      iszero\n      dup1\n      iszero\n      tag_212\n      jumpi\n      returndatasize\n      0x00\n      dup1\n      returndatacopy\n      revert(0x00, returndatasize)\n    tag_212:\n      pop\n      pop\n      pop\n      pop\n        /* \"TEXOToken.sol\":42651:42768  pool.accTEXOPerShare... */\n      tag_213\n        /* \"TEXOToken.sol\":42698:42758  tEXOReward... */\n      tag_214\n        /* \"TEXOToken.sol\":42749:42757  lpSupply */\n      dup5\n        /* \"TEXOToken.sol\":42698:42731  tEXOReward... */\n      tag_215\n        /* \"TEXOToken.sol\":42726:42730  1e12 */\n      0xe8d4a51000\n        /* \"TEXOToken.sol\":42698:42708  tEXOReward */\n      dup6\n        /* \"TEXOToken.sol\":42698:42725  tEXOReward... */\n      tag_178\n      swap1\n        /* \"TEXOToken.sol\":42698:42731  tEXOReward... */\n      swap2\n      swap1\n      0xffffffff\n      and\n      jump\t// in\n    tag_215:\n        /* \"TEXOToken.sol\":42698:42748  tEXOReward... */\n      tag_179\n      swap1\n        /* \"TEXOToken.sol\":42698:42758  tEXOReward... */\n      swap2\n      swap1\n      0xffffffff\n      and\n      jump\t// in\n    tag_214:\n        /* \"TEXOToken.sol\":42651:42655  pool */\n      dup6\n        /* \"TEXOToken.sol\":42651:42671  pool.accTEXOPerShare */\n      0x03\n      add\n      sload\n        /* \"TEXOToken.sol\":42651:42684  pool.accTEXOPerShare... */\n      tag_216\n      swap1\n        /* \"TEXOToken.sol\":42651:42768  pool.accTEXOPerShare... */\n      swap2\n      swap1\n      0xffffffff\n      and\n      jump\t// in\n    tag_213:\n        /* \"TEXOToken.sol\":42628:42632  pool */\n      dup5\n        /* \"TEXOToken.sol\":42628:42648  pool.accTEXOPerShare */\n      0x03\n      add\n        /* \"TEXOToken.sol\":42628:42768  pool.accTEXOPerShare = pool.accTEXOPerShare... */\n      dup2\n      swap1\n      sstore\n      pop\n        /* \"TEXOToken.sol\":42801:42813  block.number */\n      number\n        /* \"TEXOToken.sol\":42778:42782  pool */\n      dup5\n        /* \"TEXOToken.sol\":42778:42798  pool.lastRewardBlock */\n      0x02\n      add\n        /* \"TEXOToken.sol\":42778:42813  pool.lastRewardBlock = block.number */\n      dup2\n      swap1\n      sstore\n      pop\n        /* \"TEXOToken.sol\":41611:42820  function updatePool(uint256 _pid) public {... */\n      pop\n      pop\n      pop\n      pop\n    tag_192:\n      pop\n      jump\t// out\n        /* \"TEXOToken.sol\":46453:46815  function emergencyWithdraw(uint256 _pid) public nonReentrant {... */\n    tag_88:\n        /* \"TEXOToken.sol\":21204:21205  2 */\n      0x02\n        /* \"TEXOToken.sol\":21793:21800  _status */\n      sload(0x01)\n        /* \"TEXOToken.sol\":21793:21812  _status != _ENTERED */\n      eq\n      iszero\n        /* \"TEXOToken.sol\":21785:21848  require(_status != _ENTERED, \"ReentrancyGuard: reentrant call\") */\n      tag_218\n      jumpi\n      mload(0x40)\n      0x08c379a000000000000000000000000000000000000000000000000000000000\n      dup2\n      mstore\n      0x04\n      add\n      dup1\n      dup1\n      0x20\n      add\n      dup3\n      dup2\n      sub\n      dup3\n      mstore\n      0x1f\n      dup2\n      mstore\n      0x20\n      add\n      dup1\n      0x5265656e7472616e637947756172643a207265656e7472616e742063616c6c00\n      dup2\n      mstore\n      pop\n      0x20\n      add\n      swap2\n      pop\n      pop\n      mload(0x40)\n      dup1\n      swap2\n      sub\n      swap1\n      revert\n    tag_218:\n        /* \"TEXOToken.sol\":21204:21205  2 */\n      0x02\n        /* \"TEXOToken.sol\":21923:21930  _status */\n      0x01\n        /* \"TEXOToken.sol\":21923:21941  _status = _ENTERED */\n      dup2\n      swap1\n      sstore\n      pop\n        /* \"TEXOToken.sol\":46524:46545  PoolInfo storage pool */\n      0x00\n        /* \"TEXOToken.sol\":46548:46556  poolInfo */\n      0x06\n        /* \"TEXOToken.sol\":46557:46561  _pid */\n      dup3\n        /* \"TEXOToken.sol\":46548:46562  poolInfo[_pid] */\n      dup2\n      sload\n      dup2\n      lt\n      tag_220\n      jumpi\n      invalid\n    tag_220:\n      swap1\n      0x00\n      mstore\n      keccak256(0x00, 0x20)\n      swap1\n      0x05\n      mul\n      add\n        /* \"TEXOToken.sol\":46524:46562  PoolInfo storage pool = poolInfo[_pid] */\n      swap1\n      pop\n        /* \"TEXOToken.sol\":46572:46593  UserInfo storage user */\n      0x00\n        /* \"TEXOToken.sol\":46596:46604  userInfo */\n      0x07\n        /* \"TEXOToken.sol\":46596:46610  userInfo[_pid] */\n      0x00\n        /* \"TEXOToken.sol\":46605:46609  _pid */\n      dup5\n        /* \"TEXOToken.sol\":46596:46610  userInfo[_pid] */\n      dup2\n      mstore\n      0x20\n      add\n      swap1\n      dup2\n      mstore\n      0x20\n      add\n      0x00\n      keccak256\n        /* \"TEXOToken.sol\":46596:46622  userInfo[_pid][msg.sender] */\n      0x00\n        /* \"TEXOToken.sol\":46611:46621  msg.sender */\n      caller\n        /* \"TEXOToken.sol\":46596:46622  userInfo[_pid][msg.sender] */\n      0xffffffffffffffffffffffffffffffffffffffff\n      and\n      0xffffffffffffffffffffffffffffffffffffffff\n      and\n      dup2\n      mstore\n      0x20\n      add\n      swap1\n      dup2\n      mstore\n      0x20\n      add\n      0x00\n      keccak256\n        /* \"TEXOToken.sol\":46572:46622  UserInfo storage user = userInfo[_pid][msg.sender] */\n      swap1\n      pop\n        /* \"TEXOToken.sol\":46632:46691  pool.lpToken.safeTransfer(address(msg.sender), user.amount) */\n      tag_222\n        /* \"TEXOToken.sol\":46666:46676  msg.sender */\n      caller\n        /* \"TEXOToken.sol\":46679:46683  user */\n      dup3\n        /* \"TEXOToken.sol\":46679:46690  user.amount */\n      0x00\n      add\n      sload\n        /* \"TEXOToken.sol\":46632:46636  pool */\n      dup5\n        /* \"TEXOToken.sol\":46632:46644  pool.lpToken */\n      0x00\n      add\n      0x00\n      swap1\n      sload\n      swap1\n      0x0100\n      exp\n      swap1\n      div\n      0xffffffffffffffffffffffffffffffffffffffff\n      and\n        /* \"TEXOToken.sol\":46632:46657  pool.lpToken.safeTransfer */\n      0xffffffffffffffffffffffffffffffffffffffff\n      and\n      tag_189\n      swap1\n        /* \"TEXOToken.sol\":46632:46691  pool.lpToken.safeTransfer(address(msg.sender), user.amount) */\n      swap3\n      swap2\n      swap1\n      0xffffffff\n      and\n      jump\t// in\n    tag_222:\n        /* \"TEXOToken.sol\":46736:46740  _pid */\n      dup3\n        /* \"TEXOToken.sol\":46724:46734  msg.sender */\n      caller\n        /* \"TEXOToken.sol\":46706:46754  EmergencyWithdraw(msg.sender, _pid, user.amount) */\n      0xffffffffffffffffffffffffffffffffffffffff\n      and\n      0xbb757047c2b5f3974fe26b7c10f732e7bce710b0952a71082702781e62ae0595\n        /* \"TEXOToken.sol\":46742:46746  user */\n      dup4\n        /* \"TEXOToken.sol\":46742:46753  user.amount */\n      0x00\n      add\n      sload\n        /* \"TEXOToken.sol\":46706:46754  EmergencyWithdraw(msg.sender, _pid, user.amount) */\n      mload(0x40)\n      dup1\n      dup3\n      dup2\n      mstore\n      0x20\n      add\n      swap2\n      pop\n      pop\n      mload(0x40)\n      dup1\n      swap2\n      sub\n      swap1\n      log3\n        /* \"TEXOToken.sol\":46778:46779  0 */\n      0x00\n        /* \"TEXOToken.sol\":46764:46768  user */\n      dup2\n        /* \"TEXOToken.sol\":46764:46775  user.amount */\n      0x00\n      add\n        /* \"TEXOToken.sol\":46764:46779  user.amount = 0 */\n      dup2\n      swap1\n      sstore\n      pop\n        /* \"TEXOToken.sol\":46807:46808  0 */\n      0x00\n        /* \"TEXOToken.sol\":46789:46793  user */\n      dup2\n        /* \"TEXOToken.sol\":46789:46804  user.rewardDebt */\n      0x01\n      add\n        /* \"TEXOToken.sol\":46789:46808  user.rewardDebt = 0 */\n      dup2\n      swap1\n      sstore\n      pop\n        /* \"TEXOToken.sol\":21952:21953  _ */\n      pop\n      pop\n        /* \"TEXOToken.sol\":21161:21162  1 */\n      0x01\n        /* \"TEXOToken.sol\":22096:22103  _status */\n      dup1\n        /* \"TEXOToken.sol\":22096:22118  _status = _NOT_ENTERED */\n      dup2\n      swap1\n      sstore\n      pop\n        /* \"TEXOToken.sol\":46453:46815  function emergencyWithdraw(uint256 _pid) public nonReentrant {... */\n      pop\n      jump\t// out\n        /* \"TEXOToken.sol\":36611:36668  uint256 public constant MINIMUM_EMISSION_RATE = 50 finney */\n    tag_90:\n        /* \"TEXOToken.sol\":36659:36668  50 finney */\n      0xb1a2bc2ec50000\n        /* \"TEXOToken.sol\":36611:36668  uint256 public constant MINIMUM_EMISSION_RATE = 50 finney */\n      dup2\n      jump\t// out\n        /* \"TEXOToken.sol\":41363:41538  function massUpdatePools() public {... */\n    tag_92:\n        /* \"TEXOToken.sol\":41407:41421  uint256 length */\n      0x00\n        /* \"TEXOToken.sol\":41424:41432  poolInfo */\n      0x06\n        /* \"TEXOToken.sol\":41424:41439  poolInfo.length */\n      dup1\n      sload\n      swap1\n      pop\n        /* \"TEXOToken.sol\":41407:41439  uint256 length = poolInfo.length */\n      swap1\n      pop\n        /* \"TEXOToken.sol\":41454:41465  uint256 pid */\n      0x00\n        /* \"TEXOToken.sol\":41449:41532  for (uint256 pid = 0; pid < length; ++pid) {... */\n    tag_224:\n        /* \"TEXOToken.sol\":41477:41483  length */\n      dup2\n        /* \"TEXOToken.sol\":41471:41474  pid */\n      dup2\n        /* \"TEXOToken.sol\":41471:41483  pid < length */\n      lt\n        /* \"TEXOToken.sol\":41449:41532  for (uint256 pid = 0; pid < length; ++pid) {... */\n      iszero\n      tag_225\n      jumpi\n        /* \"TEXOToken.sol\":41506:41521  updatePool(pid) */\n      tag_227\n        /* \"TEXOToken.sol\":41517:41520  pid */\n      dup2\n        /* \"TEXOToken.sol\":41506:41516  updatePool */\n      tag_85\n        /* \"TEXOToken.sol\":41506:41521  updatePool(pid) */\n      jump\t// in\n    tag_227:\n        /* \"TEXOToken.sol\":41485:41490  ++pid */\n      dup1\n      0x01\n      add\n      swap1\n      pop\n        /* \"TEXOToken.sol\":41449:41532  for (uint256 pid = 0; pid < length; ++pid) {... */\n      jump(tag_224)\n    tag_225:\n      pop\n        /* \"TEXOToken.sol\":41363:41538  function massUpdatePools() public {... */\n      pop\n      jump\t// out\n        /* \"TEXOToken.sol\":50911:51358  function updateReferralBonusBp(uint256 _newRefBonusBp) public onlyOwner {... */\n    tag_95:\n        /* \"TEXOToken.sol\":11671:11683  _msgSender() */\n      tag_229\n        /* \"TEXOToken.sol\":11671:11681  _msgSender */\n      tag_230\n        /* \"TEXOToken.sol\":11671:11683  _msgSender() */\n      jump\t// in\n    tag_229:\n        /* \"TEXOToken.sol\":11661:11683  _owner == _msgSender() */\n      0xffffffffffffffffffffffffffffffffffffffff\n      and\n        /* \"TEXOToken.sol\":11661:11667  _owner */\n      0x00\n      dup1\n      sload\n      swap1\n      0x0100\n      exp\n      swap1\n      div\n      0xffffffffffffffffffffffffffffffffffffffff\n      and\n        /* \"TEXOToken.sol\":11661:11683  _owner == _msgSender() */\n      0xffffffffffffffffffffffffffffffffffffffff\n      and\n      eq\n        /* \"TEXOToken.sol\":11653:11720  require(_owner == _msgSender(), \"Ownable: caller is not the owner\") */\n      tag_231\n      jumpi\n      mload(0x40)\n      0x08c379a000000000000000000000000000000000000000000000000000000000\n      dup2\n      mstore\n      0x04\n      add\n      dup1\n      dup1\n      0x20\n      add\n      dup3\n      dup2\n      sub\n      dup3\n      mstore\n      0x20\n      dup2\n      mstore\n      0x20\n      add\n      dup1\n      0x4f776e61626c653a2063616c6c6572206973206e6f7420746865206f776e6572\n      dup2\n      mstore\n      pop\n      0x20\n      add\n      swap2\n      pop\n      pop\n      mload(0x40)\n      dup1\n      swap2\n      sub\n      swap1\n      revert\n    tag_231:\n        /* \"TEXOToken.sol\":36064:36068  2000 */\n      0x07d0\n        /* \"TEXOToken.sol\":51001:51038  _newRefBonusBp <= MAXIMUM_REFERRAL_BP */\n      0xffff\n      and\n        /* \"TEXOToken.sol\":51001:51015  _newRefBonusBp */\n      dup2\n        /* \"TEXOToken.sol\":51001:51038  _newRefBonusBp <= MAXIMUM_REFERRAL_BP */\n      gt\n      iszero\n        /* \"TEXOToken.sol\":50993:51101  require(_newRefBonusBp <= MAXIMUM_REFERRAL_BP, \"updateRefBonusPercent: invalid referral bonus basis points\") */\n      tag_233\n      jumpi\n      mload(0x40)\n      0x08c379a000000000000000000000000000000000000000000000000000000000\n      dup2\n      mstore\n      0x04\n      add\n      dup1\n      dup1\n      0x20\n      add\n      dup3\n      dup2\n      sub\n      dup3\n      mstore\n      0x3a\n      dup2\n      mstore\n      0x20\n      add\n      dup1\n      data_20a6bce988e8b6ff5852ac398e27735d1d8155a9d79e532ec3c3da13f504a6a4\n      0x3a\n      swap2\n      codecopy\n      0x40\n      add\n      swap2\n      pop\n      pop\n      mload(0x40)\n      dup1\n      swap2\n      sub\n      swap1\n      revert\n    tag_233:\n        /* \"TEXOToken.sol\":51137:51147  refBonusBP */\n      sload(0x0a)\n        /* \"TEXOToken.sol\":51119:51133  _newRefBonusBp */\n      dup2\n        /* \"TEXOToken.sol\":51119:51147  _newRefBonusBp != refBonusBP */\n      eq\n      iszero\n        /* \"TEXOToken.sol\":51111:51192  require(_newRefBonusBp != refBonusBP, \"updateRefBonusPercent: same bonus bp set\") */\n      tag_234\n      jumpi\n      mload(0x40)\n      0x08c379a000000000000000000000000000000000000000000000000000000000\n      dup2\n      mstore\n      0x04\n      add\n      dup1\n      dup1\n      0x20\n      add\n      dup3\n      dup2\n      sub\n      dup3\n      mstore\n      0x28\n      dup2\n      mstore\n      0x20\n      add\n      dup1\n      data_9d1a761c817eae8410d2081a433553cad78dcf01ebb754f58addc464260ba484\n      0x28\n      swap2\n      codecopy\n      0x40\n      add\n      swap2\n      pop\n      pop\n      mload(0x40)\n      dup1\n      swap2\n      sub\n      swap1\n      revert\n    tag_234:\n        /* \"TEXOToken.sol\":51202:51228  uint256 previousRefBonusBP */\n      0x00\n        /* \"TEXOToken.sol\":51231:51241  refBonusBP */\n      sload(0x0a)\n        /* \"TEXOToken.sol\":51202:51241  uint256 previousRefBonusBP = refBonusBP */\n      swap1\n      pop\n        /* \"TEXOToken.sol\":51264:51278  _newRefBonusBp */\n      dup2\n        /* \"TEXOToken.sol\":51251:51261  refBonusBP */\n      0x0a\n        /* \"TEXOToken.sol\":51251:51278  refBonusBP = _newRefBonusBp */\n      dup2\n      swap1\n      sstore\n      pop\n        /* \"TEXOToken.sol\":51293:51351  ReferralBonusBpChanged(previousRefBonusBP, _newRefBonusBp) */\n      0x3282b692bfebf5f35b198a229212cf532c72099026ab54c4b8665382d1086b3f\n        /* \"TEXOToken.sol\":51316:51334  previousRefBonusBP */\n      dup2\n        /* \"TEXOToken.sol\":51336:51350  _newRefBonusBp */\n      dup4\n        /* \"TEXOToken.sol\":51293:51351  ReferralBonusBpChanged(previousRefBonusBP, _newRefBonusBp) */\n      mload(0x40)\n      dup1\n      dup4\n      dup2\n      mstore\n      0x20\n      add\n      dup3\n      dup2\n      mstore\n      0x20\n      add\n      swap3\n      pop\n      pop\n      pop\n      mload(0x40)\n      dup1\n      swap2\n      sub\n      swap1\n      log1\n        /* \"TEXOToken.sol\":11730:11731  _ */\n      pop\n        /* \"TEXOToken.sol\":50911:51358  function updateReferralBonusBp(uint256 _newRefBonusBp) public onlyOwner {... */\n      pop\n      jump\t// out\n        /* \"TEXOToken.sol\":35319:35346  uint256 public tEXOPerBlock */\n    tag_97:\n      sload(0x04)\n      dup2\n      jump\t// out\n        /* \"TEXOToken.sol\":35853:35884  uint256 public refBonusBP = 200 */\n    tag_99:\n      sload(0x0a)\n      dup2\n      jump\t// out\n        /* \"TEXOToken.sol\":36968:37011  uint256 public lastReductionPeriodIndex = 0 */\n    tag_101:\n      sload(0x0f)\n      dup2\n      jump\t// out\n        /* \"TEXOToken.sol\":12080:12217  function renounceOwnership() public onlyOwner {... */\n    tag_103:\n        /* \"TEXOToken.sol\":11671:11683  _msgSender() */\n      tag_236\n        /* \"TEXOToken.sol\":11671:11681  _msgSender */\n      tag_230\n        /* \"TEXOToken.sol\":11671:11683  _msgSender() */\n      jump\t// in\n    tag_236:\n        /* \"TEXOToken.sol\":11661:11683  _owner == _msgSender() */\n      0xffffffffffffffffffffffffffffffffffffffff\n      and\n        /* \"TEXOToken.sol\":11661:11667  _owner */\n      0x00\n      dup1\n      sload\n      swap1\n      0x0100\n      exp\n      swap1\n      div\n      0xffffffffffffffffffffffffffffffffffffffff\n      and\n        /* \"TEXOToken.sol\":11661:11683  _owner == _msgSender() */\n      0xffffffffffffffffffffffffffffffffffffffff\n      and\n      eq\n        /* \"TEXOToken.sol\":11653:11720  require(_owner == _msgSender(), \"Ownable: caller is not the owner\") */\n      tag_237\n      jumpi\n      mload(0x40)\n      0x08c379a000000000000000000000000000000000000000000000000000000000\n      dup2\n      mstore\n      0x04\n      add\n      dup1\n      dup1\n      0x20\n      add\n      dup3\n      dup2\n      sub\n      dup3\n      mstore\n      0x20\n      dup2\n      mstore\n      0x20\n      add\n      dup1\n      0x4f776e61626c653a2063616c6c6572206973206e6f7420746865206f776e6572\n      dup2\n      mstore\n      pop\n      0x20\n      add\n      swap2\n      pop\n      pop\n      mload(0x40)\n      dup1\n      swap2\n      sub\n      swap1\n      revert\n    tag_237:\n        /* \"TEXOToken.sol\":12178:12179  0 */\n      0x00\n        /* \"TEXOToken.sol\":12141:12181  OwnershipTransferred(_owner, address(0)) */\n      0xffffffffffffffffffffffffffffffffffffffff\n      and\n        /* \"TEXOToken.sol\":12162:12168  _owner */\n      0x00\n      dup1\n      sload\n      swap1\n      0x0100\n      exp\n      swap1\n      div\n      0xffffffffffffffffffffffffffffffffffffffff\n      and\n        /* \"TEXOToken.sol\":12141:12181  OwnershipTransferred(_owner, address(0)) */\n      0xffffffffffffffffffffffffffffffffffffffff\n      and\n      0x8be0079c531659141344cd1fd0a4f28419497f9722a3daafe3b4186f6b6457e0\n      mload(0x40)\n      mload(0x40)\n      dup1\n      swap2\n      sub\n      swap1\n      log3\n        /* \"TEXOToken.sol\":12208:12209  0 */\n      0x00\n        /* \"TEXOToken.sol\":12191:12197  _owner */\n      dup1\n      0x00\n        /* \"TEXOToken.sol\":12191:12210  _owner = address(0) */\n      0x0100\n      exp\n      dup2\n      sload\n      dup2\n      0xffffffffffffffffffffffffffffffffffffffff\n      mul\n      not\n      and\n      swap1\n      dup4\n      0xffffffffffffffffffffffffffffffffffffffff\n      and\n      mul\n      or\n      swap1\n      sstore\n      pop\n        /* \"TEXOToken.sol\":12080:12217  function renounceOwnership() public onlyOwner {... */\n      jump\t// out\n        /* \"TEXOToken.sol\":49463:49586  function setFlagAllowReduceEmissionRate(bool isAllow) public onlyOwner {... */\n    tag_106:\n        /* \"TEXOToken.sol\":11671:11683  _msgSender() */\n      tag_240\n        /* \"TEXOToken.sol\":11671:11681  _msgSender */\n      tag_230\n        /* \"TEXOToken.sol\":11671:11683  _msgSender() */\n      jump\t// in\n    tag_240:\n        /* \"TEXOToken.sol\":11661:11683  _owner == _msgSender() */\n      0xffffffffffffffffffffffffffffffffffffffff\n      and\n        /* \"TEXOToken.sol\":11661:11667  _owner */\n      0x00\n      dup1\n      sload\n      swap1\n      0x0100\n      exp\n      swap1\n      div\n      0xffffffffffffffffffffffffffffffffffffffff\n      and\n        /* \"TEXOToken.sol\":11661:11683  _owner == _msgSender() */\n      0xffffffffffffffffffffffffffffffffffffffff\n      and\n      eq\n        /* \"TEXOToken.sol\":11653:11720  require(_owner == _msgSender(), \"Ownable: caller is not the owner\") */\n      tag_241\n      jumpi\n      mload(0x40)\n      0x08c379a000000000000000000000000000000000000000000000000000000000\n      dup2\n      mstore\n      0x04\n      add\n      dup1\n      dup1\n      0x20\n      add\n      dup3\n      dup2\n      sub\n      dup3\n      mstore\n      0x20\n      dup2\n      mstore\n      0x20\n      add\n      dup1\n      0x4f776e61626c653a2063616c6c6572206973206e6f7420746865206f776e6572\n      dup2\n      mstore\n      pop\n      0x20\n      add\n      swap2\n      pop\n      pop\n      mload(0x40)\n      dup1\n      swap2\n      sub\n      swap1\n      revert\n    tag_241:\n        /* \"TEXOToken.sol\":49572:49579  isAllow */\n      dup1\n        /* \"TEXOToken.sol\":49544:49569  isAllowReduceEmissionRate */\n      0x10\n      0x00\n        /* \"TEXOToken.sol\":49544:49579  isAllowReduceEmissionRate = isAllow */\n      0x0100\n      exp\n      dup2\n      sload\n      dup2\n      0xff\n      mul\n      not\n      and\n      swap1\n      dup4\n      iszero\n      iszero\n      mul\n      or\n      swap1\n      sstore\n      pop\n        /* \"TEXOToken.sol\":49463:49586  function setFlagAllowReduceEmissionRate(bool isAllow) public onlyOwner {... */\n      pop\n      jump\t// out\n        /* \"TEXOToken.sol\":38712:39539  function add(... */\n    tag_109:\n        /* \"TEXOToken.sol\":11671:11683  _msgSender() */\n      tag_244\n        /* \"TEXOToken.sol\":11671:11681  _msgSender */\n      tag_230\n        /* \"TEXOToken.sol\":11671:11683  _msgSender() */\n      jump\t// in\n    tag_244:\n        /* \"TEXOToken.sol\":11661:11683  _owner == _msgSender() */\n      0xffffffffffffffffffffffffffffffffffffffff\n      and\n        /* \"TEXOToken.sol\":11661:11667  _owner */\n      0x00\n      dup1\n      sload\n      swap1\n      0x0100\n      exp\n      swap1\n      div\n      0xffffffffffffffffffffffffffffffffffffffff\n      and\n        /* \"TEXOToken.sol\":11661:11683  _owner == _msgSender() */\n      0xffffffffffffffffffffffffffffffffffffffff\n      and\n      eq\n        /* \"TEXOToken.sol\":11653:11720  require(_owner == _msgSender(), \"Ownable: caller is not the owner\") */\n      tag_245\n      jumpi\n      mload(0x40)\n      0x08c379a000000000000000000000000000000000000000000000000000000000\n      dup2\n      mstore\n      0x04\n      add\n      dup1\n      dup1\n      0x20\n      add\n      dup3\n      dup2\n      sub\n      dup3\n      mstore\n      0x20\n      dup2\n      mstore\n      0x20\n      add\n      dup1\n      0x4f776e61626c653a2063616c6c6572206973206e6f7420746865206f776e6572\n      dup2\n      mstore\n      pop\n      0x20\n      add\n      swap2\n      pop\n      pop\n      mload(0x40)\n      dup1\n      swap2\n      sub\n      swap1\n      revert\n    tag_245:\n        /* \"TEXOToken.sol\":38872:38880  _lpToken */\n      dup3\n        /* \"TEXOToken.sol\":38587:38592  false */\n      0x00\n        /* \"TEXOToken.sol\":38560:38592  poolExistence[_lpToken] == false */\n      iszero\n      iszero\n        /* \"TEXOToken.sol\":38560:38573  poolExistence */\n      0x0d\n        /* \"TEXOToken.sol\":38560:38583  poolExistence[_lpToken] */\n      0x00\n        /* \"TEXOToken.sol\":38574:38582  _lpToken */\n      dup4\n        /* \"TEXOToken.sol\":38560:38583  poolExistence[_lpToken] */\n      0xffffffffffffffffffffffffffffffffffffffff\n      and\n      0xffffffffffffffffffffffffffffffffffffffff\n      and\n      dup2\n      mstore\n      0x20\n      add\n      swap1\n      dup2\n      mstore\n      0x20\n      add\n      0x00\n      keccak256\n      0x00\n      swap1\n      sload\n      swap1\n      0x0100\n      exp\n      swap1\n      div\n      0xff\n      and\n        /* \"TEXOToken.sol\":38560:38592  poolExistence[_lpToken] == false */\n      iszero\n      iszero\n      eq\n        /* \"TEXOToken.sol\":38552:38622  require(poolExistence[_lpToken] == false, \"nonDuplicated: duplicated\") */\n      tag_247\n      jumpi\n      mload(0x40)\n      0x08c379a000000000000000000000000000000000000000000000000000000000\n      dup2\n      mstore\n      0x04\n      add\n      dup1\n      dup1\n      0x20\n      add\n      dup3\n      dup2\n      sub\n      dup3\n      mstore\n      0x19\n      dup2\n      mstore\n      0x20\n      add\n      dup1\n      0x6e6f6e4475706c6963617465643a206475706c69636174656400000000000000\n      dup2\n      mstore\n      pop\n      0x20\n      add\n      swap2\n      pop\n      pop\n      mload(0x40)\n      dup1\n      swap2\n      sub\n      swap1\n      revert\n    tag_247:\n        /* \"TEXOToken.sol\":35967:35971  1000 */\n      0x03e8\n        /* \"TEXOToken.sol\":38900:38939  _depositFeeBP <= MAXIMUM_DEPOSIT_FEE_BP */\n      0xffff\n      and\n        /* \"TEXOToken.sol\":38900:38913  _depositFeeBP */\n      dup4\n        /* \"TEXOToken.sol\":38900:38939  _depositFeeBP <= MAXIMUM_DEPOSIT_FEE_BP */\n      0xffff\n      and\n      gt\n      iszero\n        /* \"TEXOToken.sol\":38892:38981  require(_depositFeeBP <= MAXIMUM_DEPOSIT_FEE_BP, \"add: invalid deposit fee basis points\") */\n      tag_249\n      jumpi\n      mload(0x40)\n      0x08c379a000000000000000000000000000000000000000000000000000000000\n      dup2\n      mstore\n      0x04\n      add\n      dup1\n      dup1\n      0x20\n      add\n      dup3\n      dup2\n      sub\n      dup3\n      mstore\n      0x25\n      dup2\n      mstore\n      0x20\n      add\n      dup1\n      data_0ecf01aeb804f0ae223eada9d16893a9009cdcbe208d348705dc613f9a9f5331\n      0x25\n      swap2\n      codecopy\n      0x40\n      add\n      swap2\n      pop\n      pop\n      mload(0x40)\n      dup1\n      swap2\n      sub\n      swap1\n      revert\n    tag_249:\n        /* \"TEXOToken.sol\":38995:39006  _withUpdate */\n      dup2\n        /* \"TEXOToken.sol\":38991:39050  if (_withUpdate) {... */\n      iszero\n      tag_250\n      jumpi\n        /* \"TEXOToken.sol\":39022:39039  massUpdatePools() */\n      tag_251\n        /* \"TEXOToken.sol\":39022:39037  massUpdatePools */\n      tag_92\n        /* \"TEXOToken.sol\":39022:39039  massUpdatePools() */\n      jump\t// in\n    tag_251:\n        /* \"TEXOToken.sol\":38991:39050  if (_withUpdate) {... */\n    tag_250:\n        /* \"TEXOToken.sol\":39059:39082  uint256 lastRewardBlock */\n      0x00\n        /* \"TEXOToken.sol\":39100:39110  startBlock */\n      sload(0x09)\n        /* \"TEXOToken.sol\":39085:39097  block.number */\n      number\n        /* \"TEXOToken.sol\":39085:39110  block.number > startBlock */\n      gt\n        /* \"TEXOToken.sol\":39085:39138  block.number > startBlock ? block.number : startBlock */\n      tag_252\n      jumpi\n        /* \"TEXOToken.sol\":39128:39138  startBlock */\n      sload(0x09)\n        /* \"TEXOToken.sol\":39085:39138  block.number > startBlock ? block.number : startBlock */\n      jump(tag_253)\n    tag_252:\n        /* \"TEXOToken.sol\":39113:39125  block.number */\n      number\n        /* \"TEXOToken.sol\":39085:39138  block.number > startBlock ? block.number : startBlock */\n    tag_253:\n        /* \"TEXOToken.sol\":39059:39138  uint256 lastRewardBlock = block.number > startBlock ? block.number : startBlock */\n      swap1\n      pop\n        /* \"TEXOToken.sol\":39166:39198  totalAllocPoint.add(_allocPoint) */\n      tag_254\n        /* \"TEXOToken.sol\":39186:39197  _allocPoint */\n      dup7\n        /* \"TEXOToken.sol\":39166:39181  totalAllocPoint */\n      sload(0x08)\n        /* \"TEXOToken.sol\":39166:39185  totalAllocPoint.add */\n      tag_216\n      swap1\n        /* \"TEXOToken.sol\":39166:39198  totalAllocPoint.add(_allocPoint) */\n      swap2\n      swap1\n      0xffffffff\n      and\n      jump\t// in\n    tag_254:\n        /* \"TEXOToken.sol\":39148:39163  totalAllocPoint */\n      0x08\n        /* \"TEXOToken.sol\":39148:39198  totalAllocPoint = totalAllocPoint.add(_allocPoint) */\n      dup2\n      swap1\n      sstore\n      pop\n        /* \"TEXOToken.sol\":39234:39238  true */\n      0x01\n        /* \"TEXOToken.sol\":39208:39221  poolExistence */\n      0x0d\n        /* \"TEXOToken.sol\":39208:39231  poolExistence[_lpToken] */\n      0x00\n        /* \"TEXOToken.sol\":39222:39230  _lpToken */\n      dup8\n        /* \"TEXOToken.sol\":39208:39231  poolExistence[_lpToken] */\n      0xffffffffffffffffffffffffffffffffffffffff\n      and\n      0xffffffffffffffffffffffffffffffffffffffff\n      and\n      dup2\n      mstore\n      0x20\n      add\n      swap1\n      dup2\n      mstore\n      0x20\n      add\n      0x00\n      keccak256\n      0x00\n        /* \"TEXOToken.sol\":39208:39238  poolExistence[_lpToken] = true */\n      0x0100\n      exp\n      dup2\n      sload\n      dup2\n      0xff\n      mul\n      not\n      and\n      swap1\n      dup4\n      iszero\n      iszero\n      mul\n      or\n      swap1\n      sstore\n      pop\n        /* \"TEXOToken.sol\":39248:39256  poolInfo */\n      0x06\n        /* \"TEXOToken.sol\":39275:39462  PoolInfo({... */\n      mload(0x40)\n      dup1\n      0xa0\n      add\n      0x40\n      mstore\n      dup1\n        /* \"TEXOToken.sol\":39303:39311  _lpToken */\n      dup8\n        /* \"TEXOToken.sol\":39275:39462  PoolInfo({... */\n      0xffffffffffffffffffffffffffffffffffffffff\n      and\n      dup2\n      mstore\n      0x20\n      add\n        /* \"TEXOToken.sol\":39333:39344  _allocPoint */\n      dup9\n        /* \"TEXOToken.sol\":39275:39462  PoolInfo({... */\n      dup2\n      mstore\n      0x20\n      add\n        /* \"TEXOToken.sol\":39371:39386  lastRewardBlock */\n      dup4\n        /* \"TEXOToken.sol\":39275:39462  PoolInfo({... */\n      dup2\n      mstore\n      0x20\n      add\n        /* \"TEXOToken.sol\":39413:39414  0 */\n      0x00\n        /* \"TEXOToken.sol\":39275:39462  PoolInfo({... */\n      dup2\n      mstore\n      0x20\n      add\n        /* \"TEXOToken.sol\":39438:39451  _depositFeeBP */\n      dup7\n        /* \"TEXOToken.sol\":39275:39462  PoolInfo({... */\n      0xffff\n      and\n      dup2\n      mstore\n      pop\n        /* \"TEXOToken.sol\":39248:39472  poolInfo.push(... */\n      swap1\n      dup1\n      0x01\n      dup2\n      sload\n      add\n      dup1\n      dup3\n      sstore\n      dup1\n      swap2\n      pop\n      pop\n      0x01\n      swap1\n      sub\n      swap1\n      0x00\n      mstore\n      keccak256(0x00, 0x20)\n      swap1\n      0x05\n      mul\n      add\n      0x00\n      swap1\n      swap2\n      swap1\n      swap2\n      swap1\n      swap2\n      pop\n      0x00\n      dup3\n      add\n      mload\n      dup2\n      0x00\n      add\n      exp(0x0100, 0x00)\n      dup2\n      sload\n      dup2\n      0xffffffffffffffffffffffffffffffffffffffff\n      mul\n      not\n      and\n      swap1\n      dup4\n      0xffffffffffffffffffffffffffffffffffffffff\n      and\n      mul\n      or\n      swap1\n      sstore\n      pop\n      0x20\n      dup3\n      add\n      mload\n      dup2\n      0x01\n      add\n      sstore\n      0x40\n      dup3\n      add\n      mload\n      dup2\n      0x02\n      add\n      sstore\n      0x60\n      dup3\n      add\n      mload\n      dup2\n      0x03\n      add\n      sstore\n      0x80\n      dup3\n      add\n      mload\n      dup2\n      0x04\n      add\n      exp(0x0100, 0x00)\n      dup2\n      sload\n      dup2\n      0xffff\n      mul\n      not\n      and\n      swap1\n      dup4\n      0xffff\n      and\n      mul\n      or\n      swap1\n      sstore\n      pop\n      pop\n      pop\n        /* \"TEXOToken.sol\":39531:39532  1 */\n      0x01\n        /* \"TEXOToken.sol\":39513:39521  poolInfo */\n      0x06\n        /* \"TEXOToken.sol\":39513:39528  poolInfo.length */\n      dup1\n      sload\n      swap1\n      pop\n        /* \"TEXOToken.sol\":39513:39532  poolInfo.length - 1 */\n      sub\n        /* \"TEXOToken.sol\":39482:39500  poolIdForLpAddress */\n      0x0e\n        /* \"TEXOToken.sol\":39482:39510  poolIdForLpAddress[_lpToken] */\n      0x00\n        /* \"TEXOToken.sol\":39501:39509  _lpToken */\n      dup8\n        /* \"TEXOToken.sol\":39482:39510  poolIdForLpAddress[_lpToken] */\n      0xffffffffffffffffffffffffffffffffffffffff\n      and\n      0xffffffffffffffffffffffffffffffffffffffff\n      and\n      dup2\n      mstore\n      0x20\n      add\n      swap1\n      dup2\n      mstore\n      0x20\n      add\n      0x00\n      keccak256\n        /* \"TEXOToken.sol\":39482:39532  poolIdForLpAddress[_lpToken] = poolInfo.length - 1 */\n      dup2\n      swap1\n      sstore\n      pop\n        /* \"TEXOToken.sol\":38632:38633  _ */\n      pop\n        /* \"TEXOToken.sol\":11730:11731  _ */\n      pop\n        /* \"TEXOToken.sol\":38712:39539  function add(... */\n      pop\n      pop\n      pop\n      pop\n      jump\t// out\n        /* \"TEXOToken.sol\":47708:48002  function setFeeAddress(address _feeAddress) public {... */\n    tag_112:\n        /* \"TEXOToken.sol\":47800:47801  0 */\n      0x00\n        /* \"TEXOToken.sol\":47777:47802  _feeAddress != address(0) */\n      0xffffffffffffffffffffffffffffffffffffffff\n      and\n        /* \"TEXOToken.sol\":47777:47788  _feeAddress */\n      dup2\n        /* \"TEXOToken.sol\":47777:47802  _feeAddress != address(0) */\n      0xffffffffffffffffffffffffffffffffffffffff\n      and\n      eq\n      iszero\n        /* \"TEXOToken.sol\":47769:47837  require(_feeAddress != address(0), \"setFeeAddress: invalid address\") */\n      tag_257\n      jumpi\n      mload(0x40)\n      0x08c379a000000000000000000000000000000000000000000000000000000000\n      dup2\n      mstore\n      0x04\n      add\n      dup1\n      dup1\n      0x20\n      add\n      dup3\n      dup2\n      sub\n      dup3\n      mstore\n      0x1e\n      dup2\n      mstore\n      0x20\n      add\n      dup1\n      0x736574466565416464726573733a20696e76616c696420616464726573730000\n      dup2\n      mstore\n      pop\n      0x20\n      add\n      swap2\n      pop\n      pop\n      mload(0x40)\n      dup1\n      swap2\n      sub\n      swap1\n      revert\n    tag_257:\n        /* \"TEXOToken.sol\":47869:47879  feeAddress */\n      0x05\n      0x00\n      swap1\n      sload\n      swap1\n      0x0100\n      exp\n      swap1\n      div\n      0xffffffffffffffffffffffffffffffffffffffff\n      and\n        /* \"TEXOToken.sol\":47855:47879  msg.sender == feeAddress */\n      0xffffffffffffffffffffffffffffffffffffffff\n      and\n        /* \"TEXOToken.sol\":47855:47865  msg.sender */\n      caller\n        /* \"TEXOToken.sol\":47855:47879  msg.sender == feeAddress */\n      0xffffffffffffffffffffffffffffffffffffffff\n      and\n      eq\n        /* \"TEXOToken.sol\":47847:47908  require(msg.sender == feeAddress, \"setFeeAddress: FORBIDDEN\") */\n      tag_258\n      jumpi\n      mload(0x40)\n      0x08c379a000000000000000000000000000000000000000000000000000000000\n      dup2\n      mstore\n      0x04\n      add\n      dup1\n      dup1\n      0x20\n      add\n      dup3\n      dup2\n      sub\n      dup3\n      mstore\n      0x18\n      dup2\n      mstore\n      0x20\n      add\n      dup1\n      0x736574466565416464726573733a20464f5242494444454e0000000000000000\n      dup2\n      mstore\n      pop\n      0x20\n      add\n      swap2\n      pop\n      pop\n      mload(0x40)\n      dup1\n      swap2\n      sub\n      swap1\n      revert\n    tag_258:\n        /* \"TEXOToken.sol\":47931:47942  _feeAddress */\n      dup1\n        /* \"TEXOToken.sol\":47918:47928  feeAddress */\n      0x05\n      0x00\n        /* \"TEXOToken.sol\":47918:47942  feeAddress = _feeAddress */\n      0x0100\n      exp\n      dup2\n      sload\n      dup2\n      0xffffffffffffffffffffffffffffffffffffffff\n      mul\n      not\n      and\n      swap1\n      dup4\n      0xffffffffffffffffffffffffffffffffffffffff\n      and\n      mul\n      or\n      swap1\n      sstore\n      pop\n        /* \"TEXOToken.sol\":47983:47994  _feeAddress */\n      dup1\n        /* \"TEXOToken.sol\":47957:47995  SetFeeAddress(msg.sender, _feeAddress) */\n      0xffffffffffffffffffffffffffffffffffffffff\n      and\n        /* \"TEXOToken.sol\":47971:47981  msg.sender */\n      caller\n        /* \"TEXOToken.sol\":47957:47995  SetFeeAddress(msg.sender, _feeAddress) */\n      0xffffffffffffffffffffffffffffffffffffffff\n      and\n      0xd44190acf9d04bdb5d3a1aafff7e6dee8b40b93dfb8c5d3f0eea4b9f4539c3f7\n      mload(0x40)\n      mload(0x40)\n      dup1\n      swap2\n      sub\n      swap1\n      log3\n        /* \"TEXOToken.sol\":47708:48002  function setFeeAddress(address _feeAddress) public {... */\n      pop\n      jump\t// out\n        /* \"TEXOToken.sol\":11457:11534  function owner() public view returns (address) {... */\n    tag_114:\n        /* \"TEXOToken.sol\":11495:11502  address */\n      0x00\n        /* \"TEXOToken.sol\":11521:11527  _owner */\n      dup1\n      0x00\n      swap1\n      sload\n      swap1\n      0x0100\n      exp\n      swap1\n      div\n      0xffffffffffffffffffffffffffffffffffffffff\n      and\n        /* \"TEXOToken.sol\":11514:11527  return _owner */\n      swap1\n      pop\n        /* \"TEXOToken.sol\":11457:11534  function owner() public view returns (address) {... */\n      swap1\n      jump\t// out\n        /* \"TEXOToken.sol\":40253:40388  function getMultiplier(uint256 _from, uint256 _to)... */\n    tag_117:\n        /* \"TEXOToken.sol\":40337:40344  uint256 */\n      0x00\n        /* \"TEXOToken.sol\":40367:40381  _to.sub(_from) */\n      tag_261\n        /* \"TEXOToken.sol\":40375:40380  _from */\n      dup4\n        /* \"TEXOToken.sol\":40367:40370  _to */\n      dup4\n        /* \"TEXOToken.sol\":40367:40374  _to.sub */\n      tag_180\n      swap1\n        /* \"TEXOToken.sol\":40367:40381  _to.sub(_from) */\n      swap2\n      swap1\n      0xffffffff\n      and\n      jump\t// in\n    tag_261:\n        /* \"TEXOToken.sol\":40360:40381  return _to.sub(_from) */\n      swap1\n      pop\n        /* \"TEXOToken.sol\":40253:40388  function getMultiplier(uint256 _from, uint256 _to)... */\n      swap3\n      swap2\n      pop\n      pop\n      jump\t// out\n        /* \"TEXOToken.sol\":44129:45505  function deposit(uint256 _pid, uint256 _amount, address _referrer) public nonReentrant {... */\n    tag_120:\n        /* \"TEXOToken.sol\":21204:21205  2 */\n      0x02\n        /* \"TEXOToken.sol\":21793:21800  _status */\n      sload(0x01)\n        /* \"TEXOToken.sol\":21793:21812  _status != _ENTERED */\n      eq\n      iszero\n        /* \"TEXOToken.sol\":21785:21848  require(_status != _ENTERED, \"ReentrancyGuard: reentrant call\") */\n      tag_263\n      jumpi\n      mload(0x40)\n      0x08c379a000000000000000000000000000000000000000000000000000000000\n      dup2\n      mstore\n      0x04\n      add\n      dup1\n      dup1\n      0x20\n      add\n      dup3\n      dup2\n      sub\n      dup3\n      mstore\n      0x1f\n      dup2\n      mstore\n      0x20\n      add\n      dup1\n      0x5265656e7472616e637947756172643a207265656e7472616e742063616c6c00\n      dup2\n      mstore\n      pop\n      0x20\n      add\n      swap2\n      pop\n      pop\n      mload(0x40)\n      dup1\n      swap2\n      sub\n      swap1\n      revert\n    tag_263:\n        /* \"TEXOToken.sol\":21204:21205  2 */\n      0x02\n        /* \"TEXOToken.sol\":21923:21930  _status */\n      0x01\n        /* \"TEXOToken.sol\":21923:21941  _status = _ENTERED */\n      dup2\n      swap1\n      sstore\n      pop\n        /* \"TEXOToken.sol\":44255:44264  _referrer */\n      dup1\n        /* \"TEXOToken.sol\":44234:44265  _referrer == address(_referrer) */\n      0xffffffffffffffffffffffffffffffffffffffff\n      and\n        /* \"TEXOToken.sol\":44234:44243  _referrer */\n      dup2\n        /* \"TEXOToken.sol\":44234:44265  _referrer == address(_referrer) */\n      0xffffffffffffffffffffffffffffffffffffffff\n      and\n      eq\n        /* \"TEXOToken.sol\":44226:44302  require(_referrer == address(_referrer),\"deposit: Invalid referrer address\") */\n      tag_265\n      jumpi\n      mload(0x40)\n      0x08c379a000000000000000000000000000000000000000000000000000000000\n      dup2\n      mstore\n      0x04\n      add\n      dup1\n      dup1\n      0x20\n      add\n      dup3\n      dup2\n      sub\n      dup3\n      mstore\n      0x21\n      dup2\n      mstore\n      0x20\n      add\n      dup1\n      data_542d191555ea619dedb1489efd71948659c57b11c6c1a84d1c1ce6e7c8074aad\n      0x21\n      swap2\n      codecopy\n      0x40\n      add\n      swap2\n      pop\n      pop\n      mload(0x40)\n      dup1\n      swap2\n      sub\n      swap1\n      revert\n    tag_265:\n        /* \"TEXOToken.sol\":44312:44333  PoolInfo storage pool */\n      0x00\n        /* \"TEXOToken.sol\":44336:44344  poolInfo */\n      0x06\n        /* \"TEXOToken.sol\":44345:44349  _pid */\n      dup5\n        /* \"TEXOToken.sol\":44336:44350  poolInfo[_pid] */\n      dup2\n      sload\n      dup2\n      lt\n      tag_266\n      jumpi\n      invalid\n    tag_266:\n      swap1\n      0x00\n      mstore\n      keccak256(0x00, 0x20)\n      swap1\n      0x05\n      mul\n      add\n        /* \"TEXOToken.sol\":44312:44350  PoolInfo storage pool = poolInfo[_pid] */\n      swap1\n      pop\n        /* \"TEXOToken.sol\":44360:44381  UserInfo storage user */\n      0x00\n        /* \"TEXOToken.sol\":44384:44392  userInfo */\n      0x07\n        /* \"TEXOToken.sol\":44384:44398  userInfo[_pid] */\n      0x00\n        /* \"TEXOToken.sol\":44393:44397  _pid */\n      dup7\n        /* \"TEXOToken.sol\":44384:44398  userInfo[_pid] */\n      dup2\n      mstore\n      0x20\n      add\n      swap1\n      dup2\n      mstore\n      0x20\n      add\n      0x00\n      keccak256\n        /* \"TEXOToken.sol\":44384:44410  userInfo[_pid][msg.sender] */\n      0x00\n        /* \"TEXOToken.sol\":44399:44409  msg.sender */\n      caller\n        /* \"TEXOToken.sol\":44384:44410  userInfo[_pid][msg.sender] */\n      0xffffffffffffffffffffffffffffffffffffffff\n      and\n      0xffffffffffffffffffffffffffffffffffffffff\n      and\n      dup2\n      mstore\n      0x20\n      add\n      swap1\n      dup2\n      mstore\n      0x20\n      add\n      0x00\n      keccak256\n        /* \"TEXOToken.sol\":44360:44410  UserInfo storage user = userInfo[_pid][msg.sender] */\n      swap1\n      pop\n        /* \"TEXOToken.sol\":44420:44436  updatePool(_pid) */\n      tag_268\n        /* \"TEXOToken.sol\":44431:44435  _pid */\n      dup6\n        /* \"TEXOToken.sol\":44420:44430  updatePool */\n      tag_85\n        /* \"TEXOToken.sol\":44420:44436  updatePool(_pid) */\n      jump\t// in\n    tag_268:\n        /* \"TEXOToken.sol\":44464:44465  0 */\n      0x00\n        /* \"TEXOToken.sol\":44450:44454  user */\n      dup2\n        /* \"TEXOToken.sol\":44450:44461  user.amount */\n      0x00\n      add\n      sload\n        /* \"TEXOToken.sol\":44450:44465  user.amount > 0 */\n      gt\n        /* \"TEXOToken.sol\":44446:44789  if (user.amount > 0) {... */\n      iszero\n      tag_269\n      jumpi\n        /* \"TEXOToken.sol\":44481:44496  uint256 pending */\n      0x00\n        /* \"TEXOToken.sol\":44511:44618  user.amount... */\n      tag_270\n        /* \"TEXOToken.sol\":44602:44606  user */\n      dup3\n        /* \"TEXOToken.sol\":44602:44617  user.rewardDebt */\n      0x01\n      add\n      sload\n        /* \"TEXOToken.sol\":44511:44584  user.amount... */\n      tag_271\n        /* \"TEXOToken.sol\":44579:44583  1e12 */\n      0xe8d4a51000\n        /* \"TEXOToken.sol\":44511:44561  user.amount... */\n      tag_272\n        /* \"TEXOToken.sol\":44540:44544  pool */\n      dup8\n        /* \"TEXOToken.sol\":44540:44560  pool.accTEXOPerShare */\n      0x03\n      add\n      sload\n        /* \"TEXOToken.sol\":44511:44515  user */\n      dup8\n        /* \"TEXOToken.sol\":44511:44522  user.amount */\n      0x00\n      add\n      sload\n        /* \"TEXOToken.sol\":44511:44539  user.amount... */\n      tag_178\n      swap1\n        /* \"TEXOToken.sol\":44511:44561  user.amount... */\n      swap2\n      swap1\n      0xffffffff\n      and\n      jump\t// in\n    tag_272:\n        /* \"TEXOToken.sol\":44511:44578  user.amount... */\n      tag_179\n      swap1\n        /* \"TEXOToken.sol\":44511:44584  user.amount... */\n      swap2\n      swap1\n      0xffffffff\n      and\n      jump\t// in\n    tag_271:\n        /* \"TEXOToken.sol\":44511:44601  user.amount... */\n      tag_180\n      swap1\n        /* \"TEXOToken.sol\":44511:44618  user.amount... */\n      swap2\n      swap1\n      0xffffffff\n      and\n      jump\t// in\n    tag_270:\n        /* \"TEXOToken.sol\":44481:44618  uint256 pending =... */\n      swap1\n      pop\n        /* \"TEXOToken.sol\":44646:44647  0 */\n      0x00\n        /* \"TEXOToken.sol\":44636:44643  pending */\n      dup2\n        /* \"TEXOToken.sol\":44636:44647  pending > 0 */\n      gt\n        /* \"TEXOToken.sol\":44632:44779  if (pending > 0) {... */\n      iszero\n      tag_273\n      jumpi\n        /* \"TEXOToken.sol\":44667:44704  safeTEXOTransfer(msg.sender, pending) */\n      tag_274\n        /* \"TEXOToken.sol\":44684:44694  msg.sender */\n      caller\n        /* \"TEXOToken.sol\":44696:44703  pending */\n      dup3\n        /* \"TEXOToken.sol\":44667:44683  safeTEXOTransfer */\n      tag_183\n        /* \"TEXOToken.sol\":44667:44704  safeTEXOTransfer(msg.sender, pending) */\n      jump\t// in\n    tag_274:\n        /* \"TEXOToken.sol\":44722:44764  payReferralCommission(msg.sender, pending) */\n      tag_275\n        /* \"TEXOToken.sol\":44744:44754  msg.sender */\n      caller\n        /* \"TEXOToken.sol\":44756:44763  pending */\n      dup3\n        /* \"TEXOToken.sol\":44722:44743  payReferralCommission */\n      tag_185\n        /* \"TEXOToken.sol\":44722:44764  payReferralCommission(msg.sender, pending) */\n      jump\t// in\n    tag_275:\n        /* \"TEXOToken.sol\":44632:44779  if (pending > 0) {... */\n    tag_273:\n        /* \"TEXOToken.sol\":44446:44789  if (user.amount > 0) {... */\n      pop\n    tag_269:\n        /* \"TEXOToken.sol\":44812:44813  0 */\n      0x00\n        /* \"TEXOToken.sol\":44802:44809  _amount */\n      dup5\n        /* \"TEXOToken.sol\":44802:44813  _amount > 0 */\n      gt\n        /* \"TEXOToken.sol\":44798:45375  if (_amount > 0) {... */\n      iszero\n      tag_276\n      jumpi\n        /* \"TEXOToken.sol\":44829:44863  setReferral(msg.sender, _referrer) */\n      tag_277\n        /* \"TEXOToken.sol\":44841:44851  msg.sender */\n      caller\n        /* \"TEXOToken.sol\":44853:44862  _referrer */\n      dup5\n        /* \"TEXOToken.sol\":44829:44840  setReferral */\n      tag_278\n        /* \"TEXOToken.sol\":44829:44863  setReferral(msg.sender, _referrer) */\n      jump\t// in\n    tag_277:\n        /* \"TEXOToken.sol\":44877:45013  pool.lpToken.safeTransferFrom(... */\n      tag_279\n        /* \"TEXOToken.sol\":44932:44942  msg.sender */\n      caller\n        /* \"TEXOToken.sol\":44969:44973  this */\n      address\n        /* \"TEXOToken.sol\":44992:44999  _amount */\n      dup7\n        /* \"TEXOToken.sol\":44877:44881  pool */\n      dup6\n        /* \"TEXOToken.sol\":44877:44889  pool.lpToken */\n      0x00\n      add\n      0x00\n      swap1\n      sload\n      swap1\n      0x0100\n      exp\n      swap1\n      div\n      0xffffffffffffffffffffffffffffffffffffffff\n      and\n        /* \"TEXOToken.sol\":44877:44906  pool.lpToken.safeTransferFrom */\n      0xffffffffffffffffffffffffffffffffffffffff\n      and\n      tag_280\n      swap1\n        /* \"TEXOToken.sol\":44877:45013  pool.lpToken.safeTransferFrom(... */\n      swap4\n      swap3\n      swap2\n      swap1\n      0xffffffff\n      and\n      jump\t// in\n    tag_279:\n        /* \"TEXOToken.sol\":45051:45052  0 */\n      0x00\n        /* \"TEXOToken.sol\":45031:45035  pool */\n      dup3\n        /* \"TEXOToken.sol\":45031:45048  pool.depositFeeBP */\n      0x04\n      add\n      0x00\n      swap1\n      sload\n      swap1\n      0x0100\n      exp\n      swap1\n      div\n      0xffff\n      and\n        /* \"TEXOToken.sol\":45031:45052  pool.depositFeeBP > 0 */\n      0xffff\n      and\n      gt\n        /* \"TEXOToken.sol\":45027:45365  if (pool.depositFeeBP > 0) {... */\n      iszero\n      tag_281\n      jumpi\n        /* \"TEXOToken.sol\":45072:45090  uint256 depositFee */\n      0x00\n        /* \"TEXOToken.sol\":45093:45134  _amount.mul(pool.depositFeeBP).div(10000) */\n      tag_282\n        /* \"TEXOToken.sol\":45128:45133  10000 */\n      0x2710\n        /* \"TEXOToken.sol\":45093:45123  _amount.mul(pool.depositFeeBP) */\n      tag_283\n        /* \"TEXOToken.sol\":45105:45109  pool */\n      dup6\n        /* \"TEXOToken.sol\":45105:45122  pool.depositFeeBP */\n      0x04\n      add\n      0x00\n      swap1\n      sload\n      swap1\n      0x0100\n      exp\n      swap1\n      div\n      0xffff\n      and\n        /* \"TEXOToken.sol\":45093:45123  _amount.mul(pool.depositFeeBP) */\n      0xffff\n      and\n        /* \"TEXOToken.sol\":45093:45100  _amount */\n      dup9\n        /* \"TEXOToken.sol\":45093:45104  _amount.mul */\n      tag_178\n      swap1\n        /* \"TEXOToken.sol\":45093:45123  _amount.mul(pool.depositFeeBP) */\n      swap2\n      swap1\n      0xffffffff\n      and\n      jump\t// in\n    tag_283:\n        /* \"TEXOToken.sol\":45093:45127  _amount.mul(pool.depositFeeBP).div */\n      tag_179\n      swap1\n        /* \"TEXOToken.sol\":45093:45134  _amount.mul(pool.depositFeeBP).div(10000) */\n      swap2\n      swap1\n      0xffffffff\n      and\n      jump\t// in\n    tag_282:\n        /* \"TEXOToken.sol\":45072:45134  uint256 depositFee = _amount.mul(pool.depositFeeBP).div(10000) */\n      swap1\n      pop\n        /* \"TEXOToken.sol\":45166:45206  user.amount.add(_amount).sub(depositFee) */\n      tag_284\n        /* \"TEXOToken.sol\":45195:45205  depositFee */\n      dup2\n        /* \"TEXOToken.sol\":45166:45190  user.amount.add(_amount) */\n      tag_285\n        /* \"TEXOToken.sol\":45182:45189  _amount */\n      dup8\n        /* \"TEXOToken.sol\":45166:45170  user */\n      dup6\n        /* \"TEXOToken.sol\":45166:45177  user.amount */\n      0x00\n      add\n      sload\n        /* \"TEXOToken.sol\":45166:45181  user.amount.add */\n      tag_216\n      swap1\n        /* \"TEXOToken.sol\":45166:45190  user.amount.add(_amount) */\n      swap2\n      swap1\n      0xffffffff\n      and\n      jump\t// in\n    tag_285:\n        /* \"TEXOToken.sol\":45166:45194  user.amount.add(_amount).sub */\n      tag_180\n      swap1\n        /* \"TEXOToken.sol\":45166:45206  user.amount.add(_amount).sub(depositFee) */\n      swap2\n      swap1\n      0xffffffff\n      and\n      jump\t// in\n    tag_284:\n        /* \"TEXOToken.sol\":45152:45156  user */\n      dup3\n        /* \"TEXOToken.sol\":45152:45163  user.amount */\n      0x00\n      add\n        /* \"TEXOToken.sol\":45152:45206  user.amount = user.amount.add(_amount).sub(depositFee) */\n      dup2\n      swap1\n      sstore\n      pop\n        /* \"TEXOToken.sol\":45224:45273  pool.lpToken.safeTransfer(feeAddress, depositFee) */\n      tag_286\n        /* \"TEXOToken.sol\":45250:45260  feeAddress */\n      0x05\n      0x00\n      swap1\n      sload\n      swap1\n      0x0100\n      exp\n      swap1\n      div\n      0xffffffffffffffffffffffffffffffffffffffff\n      and\n        /* \"TEXOToken.sol\":45262:45272  depositFee */\n      dup3\n        /* \"TEXOToken.sol\":45224:45228  pool */\n      dup6\n        /* \"TEXOToken.sol\":45224:45236  pool.lpToken */\n      0x00\n      add\n      0x00\n      swap1\n      sload\n      swap1\n      0x0100\n      exp\n      swap1\n      div\n      0xffffffffffffffffffffffffffffffffffffffff\n      and\n        /* \"TEXOToken.sol\":45224:45249  pool.lpToken.safeTransfer */\n      0xffffffffffffffffffffffffffffffffffffffff\n      and\n      tag_189\n      swap1\n        /* \"TEXOToken.sol\":45224:45273  pool.lpToken.safeTransfer(feeAddress, depositFee) */\n      swap3\n      swap2\n      swap1\n      0xffffffff\n      and\n      jump\t// in\n    tag_286:\n        /* \"TEXOToken.sol\":45027:45365  if (pool.depositFeeBP > 0) {... */\n      pop\n      jump(tag_287)\n    tag_281:\n        /* \"TEXOToken.sol\":45326:45350  user.amount.add(_amount) */\n      tag_288\n        /* \"TEXOToken.sol\":45342:45349  _amount */\n      dup5\n        /* \"TEXOToken.sol\":45326:45330  user */\n      dup3\n        /* \"TEXOToken.sol\":45326:45337  user.amount */\n      0x00\n      add\n      sload\n        /* \"TEXOToken.sol\":45326:45341  user.amount.add */\n      tag_216\n      swap1\n        /* \"TEXOToken.sol\":45326:45350  user.amount.add(_amount) */\n      swap2\n      swap1\n      0xffffffff\n      and\n      jump\t// in\n    tag_288:\n        /* \"TEXOToken.sol\":45312:45316  user */\n      dup2\n        /* \"TEXOToken.sol\":45312:45323  user.amount */\n      0x00\n      add\n        /* \"TEXOToken.sol\":45312:45350  user.amount = user.amount.add(_amount) */\n      dup2\n      swap1\n      sstore\n      pop\n        /* \"TEXOToken.sol\":45027:45365  if (pool.depositFeeBP > 0) {... */\n    tag_287:\n        /* \"TEXOToken.sol\":44798:45375  if (_amount > 0) {... */\n    tag_276:\n        /* \"TEXOToken.sol\":45402:45449  user.amount.mul(pool.accTEXOPerShare).div(1e12) */\n      tag_289\n        /* \"TEXOToken.sol\":45444:45448  1e12 */\n      0xe8d4a51000\n        /* \"TEXOToken.sol\":45402:45439  user.amount.mul(pool.accTEXOPerShare) */\n      tag_290\n        /* \"TEXOToken.sol\":45418:45422  pool */\n      dup5\n        /* \"TEXOToken.sol\":45418:45438  pool.accTEXOPerShare */\n      0x03\n      add\n      sload\n        /* \"TEXOToken.sol\":45402:45406  user */\n      dup5\n        /* \"TEXOToken.sol\":45402:45413  user.amount */\n      0x00\n      add\n      sload\n        /* \"TEXOToken.sol\":45402:45417  user.amount.mul */\n      tag_178\n      swap1\n        /* \"TEXOToken.sol\":45402:45439  user.amount.mul(pool.accTEXOPerShare) */\n      swap2\n      swap1\n      0xffffffff\n      and\n      jump\t// in\n    tag_290:\n        /* \"TEXOToken.sol\":45402:45443  user.amount.mul(pool.accTEXOPerShare).div */\n      tag_179\n      swap1\n        /* \"TEXOToken.sol\":45402:45449  user.amount.mul(pool.accTEXOPerShare).div(1e12) */\n      swap2\n      swap1\n      0xffffffff\n      and\n      jump\t// in\n    tag_289:\n        /* \"TEXOToken.sol\":45384:45388  user */\n      dup2\n        /* \"TEXOToken.sol\":45384:45399  user.rewardDebt */\n      0x01\n      add\n        /* \"TEXOToken.sol\":45384:45449  user.rewardDebt = user.amount.mul(pool.accTEXOPerShare).div(1e12) */\n      dup2\n      swap1\n      sstore\n      pop\n        /* \"TEXOToken.sol\":45484:45488  _pid */\n      dup5\n        /* \"TEXOToken.sol\":45472:45482  msg.sender */\n      caller\n        /* \"TEXOToken.sol\":45464:45498  Deposit(msg.sender, _pid, _amount) */\n      0xffffffffffffffffffffffffffffffffffffffff\n      and\n      0x90890809c654f11d6e72a28fa60149770a0d11ec6c92319d6ceb2bb0a4ea1a15\n        /* \"TEXOToken.sol\":45490:45497  _amount */\n      dup7\n        /* \"TEXOToken.sol\":45464:45498  Deposit(msg.sender, _pid, _amount) */\n      mload(0x40)\n      dup1\n      dup3\n      dup2\n      mstore\n      0x20\n      add\n      swap2\n      pop\n      pop\n      mload(0x40)\n      dup1\n      swap2\n      sub\n      swap1\n      log3\n        /* \"TEXOToken.sol\":21952:21953  _ */\n      pop\n      pop\n        /* \"TEXOToken.sol\":21161:21162  1 */\n      0x01\n        /* \"TEXOToken.sol\":22096:22103  _status */\n      dup1\n        /* \"TEXOToken.sol\":22096:22118  _status = _NOT_ENTERED */\n      dup2\n      swap1\n      sstore\n      pop\n        /* \"TEXOToken.sol\":44129:45505  function deposit(uint256 _pid, uint256 _amount, address _referrer) public nonReentrant {... */\n      pop\n      pop\n      pop\n      jump\t// out\n        /* \"TEXOToken.sol\":36495:36553  uint256 public constant INITIAL_EMISSION_RATE = 500 finney */\n    tag_122:\n        /* \"TEXOToken.sol\":36543:36553  500 finney */\n      0x06f05b59d3b20000\n        /* \"TEXOToken.sol\":36495:36553  uint256 public constant INITIAL_EMISSION_RATE = 500 finney */\n      dup2\n      jump\t// out\n        /* \"TEXOToken.sol\":35517:35581  mapping(uint256 => mapping(address => UserInfo)) public userInfo */\n    tag_125:\n      mstore(0x20, 0x07)\n      dup2\n      0x00\n      mstore\n      mstore(0x20, keccak256(0x00, 0x40))\n      dup1\n      0x00\n      mstore\n      keccak256(0x00, 0x40)\n      0x00\n      swap2\n      pop\n      swap2\n      pop\n      pop\n      dup1\n      0x00\n      add\n      sload\n      swap1\n      dup1\n      0x01\n      add\n      sload\n      swap1\n      pop\n      dup3\n      jump\t// out\n        /* \"TEXOToken.sol\":35919:35971  uint16 public constant MAXIMUM_DEPOSIT_FEE_BP = 1000 */\n    tag_127:\n        /* \"TEXOToken.sol\":35967:35971  1000 */\n      0x03e8\n        /* \"TEXOToken.sol\":35919:35971  uint16 public constant MAXIMUM_DEPOSIT_FEE_BP = 1000 */\n      dup2\n      jump\t// out\n        /* \"TEXOToken.sol\":36386:36438  mapping(IBEP20 => uint256) public poolIdForLpAddress */\n    tag_130:\n      mstore(0x20, 0x0e)\n      dup1\n      0x00\n      mstore\n      keccak256(0x00, 0x40)\n      0x00\n      swap2\n      pop\n      swap1\n      pop\n      sload\n      dup2\n      jump\t// out\n        /* \"TEXOToken.sol\":49592:49706  function setEmissionRate(uint256 newEmissionRate) public onlyOwner {... */\n    tag_133:\n        /* \"TEXOToken.sol\":11671:11683  _msgSender() */\n      tag_292\n        /* \"TEXOToken.sol\":11671:11681  _msgSender */\n      tag_230\n        /* \"TEXOToken.sol\":11671:11683  _msgSender() */\n      jump\t// in\n    tag_292:\n        /* \"TEXOToken.sol\":11661:11683  _owner == _msgSender() */\n      0xffffffffffffffffffffffffffffffffffffffff\n      and\n        /* \"TEXOToken.sol\":11661:11667  _owner */\n      0x00\n      dup1\n      sload\n      swap1\n      0x0100\n      exp\n      swap1\n      div\n      0xffffffffffffffffffffffffffffffffffffffff\n      and\n        /* \"TEXOToken.sol\":11661:11683  _owner == _msgSender() */\n      0xffffffffffffffffffffffffffffffffffffffff\n      and\n      eq\n        /* \"TEXOToken.sol\":11653:11720  require(_owner == _msgSender(), \"Ownable: caller is not the owner\") */\n      tag_293\n      jumpi\n      mload(0x40)\n      0x08c379a000000000000000000000000000000000000000000000000000000000\n      dup2\n      mstore\n      0x04\n      add\n      dup1\n      dup1\n      0x20\n      add\n      dup3\n      dup2\n      sub\n      dup3\n      mstore\n      0x20\n      dup2\n      mstore\n      0x20\n      add\n      dup1\n      0x4f776e61626c653a2063616c6c6572206973206e6f7420746865206f776e6572\n      dup2\n      mstore\n      pop\n      0x20\n      add\n      swap2\n      pop\n      pop\n      mload(0x40)\n      dup1\n      swap2\n      sub\n      swap1\n      revert\n    tag_293:\n        /* \"TEXOToken.sol\":49684:49699  newEmissionRate */\n      dup1\n        /* \"TEXOToken.sol\":49669:49681  tEXOPerBlock */\n      0x04\n        /* \"TEXOToken.sol\":49669:49699  tEXOPerBlock = newEmissionRate */\n      dup2\n      swap1\n      sstore\n      pop\n        /* \"TEXOToken.sol\":49592:49706  function setEmissionRate(uint256 newEmissionRate) public onlyOwner {... */\n      pop\n      jump\t// out\n        /* \"TEXOToken.sol\":35206:35227  TEXOToken public tEXO */\n    tag_135:\n      0x02\n      0x00\n      swap1\n      sload\n      swap1\n      0x0100\n      exp\n      swap1\n      div\n      0xffffffffffffffffffffffffffffffffffffffff\n      and\n      dup2\n      jump\t// out\n        /* \"TEXOToken.sol\":36863:36927  uint256 public constant EMISSION_REDUCTION_RATE_PER_PERIOD = 300 */\n    tag_137:\n        /* \"TEXOToken.sol\":36924:36927  300 */\n      0x012c\n        /* \"TEXOToken.sol\":36863:36927  uint256 public constant EMISSION_REDUCTION_RATE_PER_PERIOD = 300 */\n      dup2\n      jump\t// out\n        /* \"TEXOToken.sol\":36306:36350  mapping(IBEP20 => bool) public poolExistence */\n    tag_140:\n      mstore(0x20, 0x0d)\n      dup1\n      0x00\n      mstore\n      keccak256(0x00, 0x40)\n      0x00\n      swap2\n      pop\n      sload\n      swap1\n      0x0100\n      exp\n      swap1\n      div\n      0xff\n      and\n      dup2\n      jump\t// out\n        /* \"TEXOToken.sol\":47396:47647  function setDevAddress(address _devaddr) public {... */\n    tag_143:\n        /* \"TEXOToken.sol\":47482:47483  0 */\n      0x00\n        /* \"TEXOToken.sol\":47462:47484  _devaddr != address(0) */\n      0xffffffffffffffffffffffffffffffffffffffff\n      and\n        /* \"TEXOToken.sol\":47462:47470  _devaddr */\n      dup2\n        /* \"TEXOToken.sol\":47462:47484  _devaddr != address(0) */\n      0xffffffffffffffffffffffffffffffffffffffff\n      and\n      eq\n      iszero\n        /* \"TEXOToken.sol\":47454:47509  require(_devaddr != address(0), \"dev: invalid address\") */\n      tag_296\n      jumpi\n      mload(0x40)\n      0x08c379a000000000000000000000000000000000000000000000000000000000\n      dup2\n      mstore\n      0x04\n      add\n      dup1\n      dup1\n      0x20\n      add\n      dup3\n      dup2\n      sub\n      dup3\n      mstore\n      0x14\n      dup2\n      mstore\n      0x20\n      add\n      dup1\n      0x6465763a20696e76616c69642061646472657373000000000000000000000000\n      dup2\n      mstore\n      pop\n      0x20\n      add\n      swap2\n      pop\n      pop\n      mload(0x40)\n      dup1\n      swap2\n      sub\n      swap1\n      revert\n    tag_296:\n        /* \"TEXOToken.sol\":47541:47548  devAddr */\n      0x03\n      0x00\n      swap1\n      sload\n      swap1\n      0x0100\n      exp\n      swap1\n      div\n      0xffffffffffffffffffffffffffffffffffffffff\n      and\n        /* \"TEXOToken.sol\":47527:47548  msg.sender == devAddr */\n      0xffffffffffffffffffffffffffffffffffffffff\n      and\n        /* \"TEXOToken.sol\":47527:47537  msg.sender */\n      caller\n        /* \"TEXOToken.sol\":47527:47548  msg.sender == devAddr */\n      0xffffffffffffffffffffffffffffffffffffffff\n      and\n      eq\n        /* \"TEXOToken.sol\":47519:47562  require(msg.sender == devAddr, \"dev: wut?\") */\n      tag_297\n      jumpi\n      mload(0x40)\n      0x08c379a000000000000000000000000000000000000000000000000000000000\n      dup2\n      mstore\n      0x04\n      add\n      dup1\n      dup1\n      0x20\n      add\n      dup3\n      dup2\n      sub\n      dup3\n      mstore\n      0x09\n      dup2\n      mstore\n      0x20\n      add\n      dup1\n      0x6465763a207775743f0000000000000000000000000000000000000000000000\n      dup2\n      mstore\n      pop\n      0x20\n      add\n      swap2\n      pop\n      pop\n      mload(0x40)\n      dup1\n      swap2\n      sub\n      swap1\n      revert\n    tag_297:\n        /* \"TEXOToken.sol\":47582:47590  _devaddr */\n      dup1\n        /* \"TEXOToken.sol\":47572:47579  devAddr */\n      0x03\n      0x00\n        /* \"TEXOToken.sol\":47572:47590  devAddr = _devaddr */\n      0x0100\n      exp\n      dup2\n      sload\n      dup2\n      0xffffffffffffffffffffffffffffffffffffffff\n      mul\n      not\n      and\n      swap1\n      dup4\n      0xffffffffffffffffffffffffffffffffffffffff\n      and\n      mul\n      or\n      swap1\n      sstore\n      pop\n        /* \"TEXOToken.sol\":47631:47639  _devaddr */\n      dup1\n        /* \"TEXOToken.sol\":47605:47640  SetDevAddress(msg.sender, _devaddr) */\n      0xffffffffffffffffffffffffffffffffffffffff\n      and\n        /* \"TEXOToken.sol\":47619:47629  msg.sender */\n      caller\n        /* \"TEXOToken.sol\":47605:47640  SetDevAddress(msg.sender, _devaddr) */\n      0xffffffffffffffffffffffffffffffffffffffff\n      and\n      0x618c54559e94f1499a808aad71ee8729f8e74e8c48e979616328ce493a1a52e7\n      mload(0x40)\n      mload(0x40)\n      dup1\n      swap2\n      sub\n      swap1\n      log3\n        /* \"TEXOToken.sol\":47396:47647  function setDevAddress(address _devaddr) public {... */\n      pop\n      jump\t// out\n        /* \"TEXOToken.sol\":36730:36794  uint256 public constant EMISSION_REDUCTION_PERIOD_BLOCKS = 14400 */\n    tag_145:\n        /* \"TEXOToken.sol\":36789:36794  14400 */\n      0x3840\n        /* \"TEXOToken.sol\":36730:36794  uint256 public constant EMISSION_REDUCTION_PERIOD_BLOCKS = 14400 */\n      dup2\n      jump\t// out\n        /* \"TEXOToken.sol\":39648:40180  function set(... */\n    tag_148:\n        /* \"TEXOToken.sol\":11671:11683  _msgSender() */\n      tag_299\n        /* \"TEXOToken.sol\":11671:11681  _msgSender */\n      tag_230\n        /* \"TEXOToken.sol\":11671:11683  _msgSender() */\n      jump\t// in\n    tag_299:\n        /* \"TEXOToken.sol\":11661:11683  _owner == _msgSender() */\n      0xffffffffffffffffffffffffffffffffffffffff\n      and\n        /* \"TEXOToken.sol\":11661:11667  _owner */\n      0x00\n      dup1\n      sload\n      swap1\n      0x0100\n      exp\n      swap1\n      div\n      0xffffffffffffffffffffffffffffffffffffffff\n      and\n        /* \"TEXOToken.sol\":11661:11683  _owner == _msgSender() */\n      0xffffffffffffffffffffffffffffffffffffffff\n      and\n      eq\n        /* \"TEXOToken.sol\":11653:11720  require(_owner == _msgSender(), \"Ownable: caller is not the owner\") */\n      tag_300\n      jumpi\n      mload(0x40)\n      0x08c379a000000000000000000000000000000000000000000000000000000000\n      dup2\n      mstore\n      0x04\n      add\n      dup1\n      dup1\n      0x20\n      add\n      dup3\n      dup2\n      sub\n      dup3\n      mstore\n      0x20\n      dup2\n      mstore\n      0x20\n      add\n      dup1\n      0x4f776e61626c653a2063616c6c6572206973206e6f7420746865206f776e6572\n      dup2\n      mstore\n      pop\n      0x20\n      add\n      swap2\n      pop\n      pop\n      mload(0x40)\n      dup1\n      swap2\n      sub\n      swap1\n      revert\n    tag_300:\n        /* \"TEXOToken.sol\":35967:35971  1000 */\n      0x03e8\n        /* \"TEXOToken.sol\":39809:39848  _depositFeeBP <= MAXIMUM_DEPOSIT_FEE_BP */\n      0xffff\n      and\n        /* \"TEXOToken.sol\":39809:39822  _depositFeeBP */\n      dup3\n        /* \"TEXOToken.sol\":39809:39848  _depositFeeBP <= MAXIMUM_DEPOSIT_FEE_BP */\n      0xffff\n      and\n      gt\n      iszero\n        /* \"TEXOToken.sol\":39801:39890  require(_depositFeeBP <= MAXIMUM_DEPOSIT_FEE_BP, \"set: invalid deposit fee basis points\") */\n      tag_302\n      jumpi\n      mload(0x40)\n      0x08c379a000000000000000000000000000000000000000000000000000000000\n      dup2\n      mstore\n      0x04\n      add\n      dup1\n      dup1\n      0x20\n      add\n      dup3\n      dup2\n      sub\n      dup3\n      mstore\n      0x25\n      dup2\n      mstore\n      0x20\n      add\n      dup1\n      data_9353dfb5d58f0da66015bbcadafa0686e2e7b7226db2e603088e70c7012680cf\n      0x25\n      swap2\n      codecopy\n      0x40\n      add\n      swap2\n      pop\n      pop\n      mload(0x40)\n      dup1\n      swap2\n      sub\n      swap1\n      revert\n    tag_302:\n        /* \"TEXOToken.sol\":39904:39915  _withUpdate */\n      dup1\n        /* \"TEXOToken.sol\":39900:39959  if (_withUpdate) {... */\n      iszero\n      tag_303\n      jumpi\n        /* \"TEXOToken.sol\":39931:39948  massUpdatePools() */\n      tag_304\n        /* \"TEXOToken.sol\":39931:39946  massUpdatePools */\n      tag_92\n        /* \"TEXOToken.sol\":39931:39948  massUpdatePools() */\n      jump\t// in\n    tag_304:\n        /* \"TEXOToken.sol\":39900:39959  if (_withUpdate) {... */\n    tag_303:\n        /* \"TEXOToken.sol\":39986:40071  totalAllocPoint.sub(poolInfo[_pid].allocPoint).add(... */\n      tag_305\n        /* \"TEXOToken.sol\":40050:40061  _allocPoint */\n      dup4\n        /* \"TEXOToken.sol\":39986:40032  totalAllocPoint.sub(poolInfo[_pid].allocPoint) */\n      tag_306\n        /* \"TEXOToken.sol\":40006:40014  poolInfo */\n      0x06\n        /* \"TEXOToken.sol\":40015:40019  _pid */\n      dup8\n        /* \"TEXOToken.sol\":40006:40020  poolInfo[_pid] */\n      dup2\n      sload\n      dup2\n      lt\n      tag_307\n      jumpi\n      invalid\n    tag_307:\n      swap1\n      0x00\n      mstore\n      keccak256(0x00, 0x20)\n      swap1\n      0x05\n      mul\n      add\n        /* \"TEXOToken.sol\":40006:40031  poolInfo[_pid].allocPoint */\n      0x01\n      add\n      sload\n        /* \"TEXOToken.sol\":39986:40001  totalAllocPoint */\n      sload(0x08)\n        /* \"TEXOToken.sol\":39986:40005  totalAllocPoint.sub */\n      tag_180\n      swap1\n        /* \"TEXOToken.sol\":39986:40032  totalAllocPoint.sub(poolInfo[_pid].allocPoint) */\n      swap2\n      swap1\n      0xffffffff\n      and\n      jump\t// in\n    tag_306:\n        /* \"TEXOToken.sol\":39986:40036  totalAllocPoint.sub(poolInfo[_pid].allocPoint).add */\n      tag_216\n      swap1\n        /* \"TEXOToken.sol\":39986:40071  totalAllocPoint.sub(poolInfo[_pid].allocPoint).add(... */\n      swap2\n      swap1\n      0xffffffff\n      and\n      jump\t// in\n    tag_305:\n        /* \"TEXOToken.sol\":39968:39983  totalAllocPoint */\n      0x08\n        /* \"TEXOToken.sol\":39968:40071  totalAllocPoint = totalAllocPoint.sub(poolInfo[_pid].allocPoint).add(... */\n      dup2\n      swap1\n      sstore\n      pop\n        /* \"TEXOToken.sol\":40109:40120  _allocPoint */\n      dup3\n        /* \"TEXOToken.sol\":40081:40089  poolInfo */\n      0x06\n        /* \"TEXOToken.sol\":40090:40094  _pid */\n      dup6\n        /* \"TEXOToken.sol\":40081:40095  poolInfo[_pid] */\n      dup2\n      sload\n      dup2\n      lt\n      tag_309\n      jumpi\n      invalid\n    tag_309:\n      swap1\n      0x00\n      mstore\n      keccak256(0x00, 0x20)\n      swap1\n      0x05\n      mul\n      add\n        /* \"TEXOToken.sol\":40081:40106  poolInfo[_pid].allocPoint */\n      0x01\n      add\n        /* \"TEXOToken.sol\":40081:40120  poolInfo[_pid].allocPoint = _allocPoint */\n      dup2\n      swap1\n      sstore\n      pop\n        /* \"TEXOToken.sol\":40160:40173  _depositFeeBP */\n      dup2\n        /* \"TEXOToken.sol\":40130:40138  poolInfo */\n      0x06\n        /* \"TEXOToken.sol\":40139:40143  _pid */\n      dup6\n        /* \"TEXOToken.sol\":40130:40144  poolInfo[_pid] */\n      dup2\n      sload\n      dup2\n      lt\n      tag_311\n      jumpi\n      invalid\n    tag_311:\n      swap1\n      0x00\n      mstore\n      keccak256(0x00, 0x20)\n      swap1\n      0x05\n      mul\n      add\n        /* \"TEXOToken.sol\":40130:40157  poolInfo[_pid].depositFeeBP */\n      0x04\n      add\n      0x00\n        /* \"TEXOToken.sol\":40130:40173  poolInfo[_pid].depositFeeBP = _depositFeeBP */\n      0x0100\n      exp\n      dup2\n      sload\n      dup2\n      0xffff\n      mul\n      not\n      and\n      swap1\n      dup4\n      0xffff\n      and\n      mul\n      or\n      swap1\n      sstore\n      pop\n        /* \"TEXOToken.sol\":39648:40180  function set(... */\n      pop\n      pop\n      pop\n      pop\n      jump\t// out\n        /* \"TEXOToken.sol\":35253:35275  address public devAddr */\n    tag_150:\n      0x03\n      0x00\n      swap1\n      sload\n      swap1\n      0x0100\n      exp\n      swap1\n      div\n      0xffffffffffffffffffffffffffffffffffffffff\n      and\n      dup2\n      jump\t// out\n        /* \"TEXOToken.sol\":40449:41283  function pendingTEXO(uint256 _pid, address _user)... */\n    tag_153:\n        /* \"TEXOToken.sol\":40534:40541  uint256 */\n      0x00\n        /* \"TEXOToken.sol\":40557:40578  PoolInfo storage pool */\n      dup1\n        /* \"TEXOToken.sol\":40581:40589  poolInfo */\n      0x06\n        /* \"TEXOToken.sol\":40590:40594  _pid */\n      dup5\n        /* \"TEXOToken.sol\":40581:40595  poolInfo[_pid] */\n      dup2\n      sload\n      dup2\n      lt\n      tag_314\n      jumpi\n      invalid\n    tag_314:\n      swap1\n      0x00\n      mstore\n      keccak256(0x00, 0x20)\n      swap1\n      0x05\n      mul\n      add\n        /* \"TEXOToken.sol\":40557:40595  PoolInfo storage pool = poolInfo[_pid] */\n      swap1\n      pop\n        /* \"TEXOToken.sol\":40605:40626  UserInfo storage user */\n      0x00\n        /* \"TEXOToken.sol\":40629:40637  userInfo */\n      0x07\n        /* \"TEXOToken.sol\":40629:40643  userInfo[_pid] */\n      0x00\n        /* \"TEXOToken.sol\":40638:40642  _pid */\n      dup7\n        /* \"TEXOToken.sol\":40629:40643  userInfo[_pid] */\n      dup2\n      mstore\n      0x20\n      add\n      swap1\n      dup2\n      mstore\n      0x20\n      add\n      0x00\n      keccak256\n        /* \"TEXOToken.sol\":40629:40650  userInfo[_pid][_user] */\n      0x00\n        /* \"TEXOToken.sol\":40644:40649  _user */\n      dup6\n        /* \"TEXOToken.sol\":40629:40650  userInfo[_pid][_user] */\n      0xffffffffffffffffffffffffffffffffffffffff\n      and\n      0xffffffffffffffffffffffffffffffffffffffff\n      and\n      dup2\n      mstore\n      0x20\n      add\n      swap1\n      dup2\n      mstore\n      0x20\n      add\n      0x00\n      keccak256\n        /* \"TEXOToken.sol\":40605:40650  UserInfo storage user = userInfo[_pid][_user] */\n      swap1\n      pop\n        /* \"TEXOToken.sol\":40660:40683  uint256 accTEXOPerShare */\n      0x00\n        /* \"TEXOToken.sol\":40686:40690  pool */\n      dup3\n        /* \"TEXOToken.sol\":40686:40706  pool.accTEXOPerShare */\n      0x03\n      add\n      sload\n        /* \"TEXOToken.sol\":40660:40706  uint256 accTEXOPerShare = pool.accTEXOPerShare */\n      swap1\n      pop\n        /* \"TEXOToken.sol\":40716:40732  uint256 lpSupply */\n      0x00\n        /* \"TEXOToken.sol\":40735:40739  pool */\n      dup4\n        /* \"TEXOToken.sol\":40735:40747  pool.lpToken */\n      0x00\n      add\n      0x00\n      swap1\n      sload\n      swap1\n      0x0100\n      exp\n      swap1\n      div\n      0xffffffffffffffffffffffffffffffffffffffff\n      and\n        /* \"TEXOToken.sol\":40735:40757  pool.lpToken.balanceOf */\n      0xffffffffffffffffffffffffffffffffffffffff\n      and\n      0x70a08231\n        /* \"TEXOToken.sol\":40766:40770  this */\n      address\n        /* \"TEXOToken.sol\":40735:40772  pool.lpToken.balanceOf(address(this)) */\n      mload(0x40)\n      dup3\n      0xffffffff\n      and\n      0xe0\n      shl\n      dup2\n      mstore\n      0x04\n      add\n      dup1\n      dup3\n      0xffffffffffffffffffffffffffffffffffffffff\n      and\n      dup2\n      mstore\n      0x20\n      add\n      swap2\n      pop\n      pop\n      0x20\n      mload(0x40)\n      dup1\n      dup4\n      sub\n      dup2\n      dup7\n      dup1\n      extcodesize\n      iszero\n      dup1\n      iszero\n      tag_316\n      jumpi\n      0x00\n      dup1\n      revert\n    tag_316:\n      pop\n      gas\n      staticcall\n      iszero\n      dup1\n      iszero\n      tag_318\n      jumpi\n      returndatasize\n      0x00\n      dup1\n      returndatacopy\n      revert(0x00, returndatasize)\n    tag_318:\n      pop\n      pop\n      pop\n      pop\n      mload(0x40)\n      returndatasize\n      0x20\n      dup2\n      lt\n      iszero\n      tag_319\n      jumpi\n      0x00\n      dup1\n      revert\n    tag_319:\n      dup2\n      add\n      swap1\n      dup1\n      dup1\n      mload\n      swap1\n      0x20\n      add\n      swap1\n      swap3\n      swap2\n      swap1\n      pop\n      pop\n      pop\n        /* \"TEXOToken.sol\":40716:40772  uint256 lpSupply = pool.lpToken.balanceOf(address(this)) */\n      swap1\n      pop\n        /* \"TEXOToken.sol\":40802:40806  pool */\n      dup4\n        /* \"TEXOToken.sol\":40802:40822  pool.lastRewardBlock */\n      0x02\n      add\n      sload\n        /* \"TEXOToken.sol\":40787:40799  block.number */\n      number\n        /* \"TEXOToken.sol\":40787:40822  block.number > pool.lastRewardBlock */\n      gt\n        /* \"TEXOToken.sol\":40787:40839  block.number > pool.lastRewardBlock && lpSupply != 0 */\n      dup1\n      iszero\n      tag_320\n      jumpi\n      pop\n        /* \"TEXOToken.sol\":40838:40839  0 */\n      0x00\n        /* \"TEXOToken.sol\":40826:40834  lpSupply */\n      dup2\n        /* \"TEXOToken.sol\":40826:40839  lpSupply != 0 */\n      eq\n      iszero\n        /* \"TEXOToken.sol\":40787:40839  block.number > pool.lastRewardBlock && lpSupply != 0 */\n    tag_320:\n        /* \"TEXOToken.sol\":40783:41197  if (block.number > pool.lastRewardBlock && lpSupply != 0) {... */\n      iszero\n      tag_321\n      jumpi\n        /* \"TEXOToken.sol\":40855:40873  uint256 multiplier */\n      0x00\n        /* \"TEXOToken.sol\":40876:40925  getMultiplier(pool.lastRewardBlock, block.number) */\n      tag_322\n        /* \"TEXOToken.sol\":40890:40894  pool */\n      dup6\n        /* \"TEXOToken.sol\":40890:40910  pool.lastRewardBlock */\n      0x02\n      add\n      sload\n        /* \"TEXOToken.sol\":40912:40924  block.number */\n      number\n        /* \"TEXOToken.sol\":40876:40889  getMultiplier */\n      tag_117\n        /* \"TEXOToken.sol\":40876:40925  getMultiplier(pool.lastRewardBlock, block.number) */\n      jump\t// in\n    tag_322:\n        /* \"TEXOToken.sol\":40855:40925  uint256 multiplier = getMultiplier(pool.lastRewardBlock, block.number) */\n      swap1\n      pop\n        /* \"TEXOToken.sol\":40939:40957  uint256 tEXOReward */\n      0x00\n        /* \"TEXOToken.sol\":40960:41069  multiplier... */\n      tag_323\n        /* \"TEXOToken.sol\":41053:41068  totalAllocPoint */\n      sload(0x08)\n        /* \"TEXOToken.sol\":40960:41035  multiplier... */\n      tag_324\n        /* \"TEXOToken.sol\":41019:41023  pool */\n      dup9\n        /* \"TEXOToken.sol\":41019:41034  pool.allocPoint */\n      0x01\n      add\n      sload\n        /* \"TEXOToken.sol\":40960:41001  multiplier... */\n      tag_325\n        /* \"TEXOToken.sol\":40988:41000  tEXOPerBlock */\n      sload(0x04)\n        /* \"TEXOToken.sol\":40960:40970  multiplier */\n      dup8\n        /* \"TEXOToken.sol\":40960:40987  multiplier... */\n      tag_178\n      swap1\n        /* \"TEXOToken.sol\":40960:41001  multiplier... */\n      swap2\n      swap1\n      0xffffffff\n      and\n      jump\t// in\n    tag_325:\n        /* \"TEXOToken.sol\":40960:41018  multiplier... */\n      tag_178\n      swap1\n        /* \"TEXOToken.sol\":40960:41035  multiplier... */\n      swap2\n      swap1\n      0xffffffff\n      and\n      jump\t// in\n    tag_324:\n        /* \"TEXOToken.sol\":40960:41052  multiplier... */\n      tag_179\n      swap1\n        /* \"TEXOToken.sol\":40960:41069  multiplier... */\n      swap2\n      swap1\n      0xffffffff\n      and\n      jump\t// in\n    tag_323:\n        /* \"TEXOToken.sol\":40939:41069  uint256 tEXOReward = multiplier... */\n      swap1\n      pop\n        /* \"TEXOToken.sol\":41101:41186  accTEXOPerShare.add(... */\n      tag_326\n        /* \"TEXOToken.sol\":41138:41172  tEXOReward.mul(1e12).div(lpSupply) */\n      tag_327\n        /* \"TEXOToken.sol\":41163:41171  lpSupply */\n      dup5\n        /* \"TEXOToken.sol\":41138:41158  tEXOReward.mul(1e12) */\n      tag_328\n        /* \"TEXOToken.sol\":41153:41157  1e12 */\n      0xe8d4a51000\n        /* \"TEXOToken.sol\":41138:41148  tEXOReward */\n      dup6\n        /* \"TEXOToken.sol\":41138:41152  tEXOReward.mul */\n      tag_178\n      swap1\n        /* \"TEXOToken.sol\":41138:41158  tEXOReward.mul(1e12) */\n      swap2\n      swap1\n      0xffffffff\n      and\n      jump\t// in\n    tag_328:\n        /* \"TEXOToken.sol\":41138:41162  tEXOReward.mul(1e12).div */\n      tag_179\n      swap1\n        /* \"TEXOToken.sol\":41138:41172  tEXOReward.mul(1e12).div(lpSupply) */\n      swap2\n      swap1\n      0xffffffff\n      and\n      jump\t// in\n    tag_327:\n        /* \"TEXOToken.sol\":41101:41116  accTEXOPerShare */\n      dup6\n        /* \"TEXOToken.sol\":41101:41120  accTEXOPerShare.add */\n      tag_216\n      swap1\n        /* \"TEXOToken.sol\":41101:41186  accTEXOPerShare.add(... */\n      swap2\n      swap1\n      0xffffffff\n      and\n      jump\t// in\n    tag_326:\n        /* \"TEXOToken.sol\":41083:41186  accTEXOPerShare = accTEXOPerShare.add(... */\n      swap4\n      pop\n        /* \"TEXOToken.sol\":40783:41197  if (block.number > pool.lastRewardBlock && lpSupply != 0) {... */\n      pop\n      pop\n    tag_321:\n        /* \"TEXOToken.sol\":41213:41276  user.amount.mul(accTEXOPerShare).div(1e12).sub(user.rewardDebt) */\n      tag_329\n        /* \"TEXOToken.sol\":41260:41264  user */\n      dup4\n        /* \"TEXOToken.sol\":41260:41275  user.rewardDebt */\n      0x01\n      add\n      sload\n        /* \"TEXOToken.sol\":41213:41255  user.amount.mul(accTEXOPerShare).div(1e12) */\n      tag_330\n        /* \"TEXOToken.sol\":41250:41254  1e12 */\n      0xe8d4a51000\n        /* \"TEXOToken.sol\":41213:41245  user.amount.mul(accTEXOPerShare) */\n      tag_331\n        /* \"TEXOToken.sol\":41229:41244  accTEXOPerShare */\n      dup7\n        /* \"TEXOToken.sol\":41213:41217  user */\n      dup9\n        /* \"TEXOToken.sol\":41213:41224  user.amount */\n      0x00\n      add\n      sload\n        /* \"TEXOToken.sol\":41213:41228  user.amount.mul */\n      tag_178\n      swap1\n        /* \"TEXOToken.sol\":41213:41245  user.amount.mul(accTEXOPerShare) */\n      swap2\n      swap1\n      0xffffffff\n      and\n      jump\t// in\n    tag_331:\n        /* \"TEXOToken.sol\":41213:41249  user.amount.mul(accTEXOPerShare).div */\n      tag_179\n      swap1\n        /* \"TEXOToken.sol\":41213:41255  user.amount.mul(accTEXOPerShare).div(1e12) */\n      swap2\n      swap1\n      0xffffffff\n      and\n      jump\t// in\n    tag_330:\n        /* \"TEXOToken.sol\":41213:41259  user.amount.mul(accTEXOPerShare).div(1e12).sub */\n      tag_180\n      swap1\n        /* \"TEXOToken.sol\":41213:41276  user.amount.mul(accTEXOPerShare).div(1e12).sub(user.rewardDebt) */\n      swap2\n      swap1\n      0xffffffff\n      and\n      jump\t// in\n    tag_329:\n        /* \"TEXOToken.sol\":41206:41276  return user.amount.mul(accTEXOPerShare).div(1e12).sub(user.rewardDebt) */\n      swap5\n      pop\n      pop\n      pop\n      pop\n      pop\n        /* \"TEXOToken.sol\":40449:41283  function pendingTEXO(uint256 _pid, address _user)... */\n      swap3\n      swap2\n      pop\n      pop\n      jump\t// out\n        /* \"TEXOToken.sol\":42886:44049  function deposit(uint256 _pid, uint256 _amount) public nonReentrant {... */\n    tag_156:\n        /* \"TEXOToken.sol\":21204:21205  2 */\n      0x02\n        /* \"TEXOToken.sol\":21793:21800  _status */\n      sload(0x01)\n        /* \"TEXOToken.sol\":21793:21812  _status != _ENTERED */\n      eq\n      iszero\n        /* \"TEXOToken.sol\":21785:21848  require(_status != _ENTERED, \"ReentrancyGuard: reentrant call\") */\n      tag_333\n      jumpi\n      mload(0x40)\n      0x08c379a000000000000000000000000000000000000000000000000000000000\n      dup2\n      mstore\n      0x04\n      add\n      dup1\n      dup1\n      0x20\n      add\n      dup3\n      dup2\n      sub\n      dup3\n      mstore\n      0x1f\n      dup2\n      mstore\n      0x20\n      add\n      dup1\n      0x5265656e7472616e637947756172643a207265656e7472616e742063616c6c00\n      dup2\n      mstore\n      pop\n      0x20\n      add\n      swap2\n      pop\n      pop\n      mload(0x40)\n      dup1\n      swap2\n      sub\n      swap1\n      revert\n    tag_333:\n        /* \"TEXOToken.sol\":21204:21205  2 */\n      0x02\n        /* \"TEXOToken.sol\":21923:21930  _status */\n      0x01\n        /* \"TEXOToken.sol\":21923:21941  _status = _ENTERED */\n      dup2\n      swap1\n      sstore\n      pop\n        /* \"TEXOToken.sol\":42964:42985  PoolInfo storage pool */\n      0x00\n        /* \"TEXOToken.sol\":42988:42996  poolInfo */\n      0x06\n        /* \"TEXOToken.sol\":42997:43001  _pid */\n      dup4\n        /* \"TEXOToken.sol\":42988:43002  poolInfo[_pid] */\n      dup2\n      sload\n      dup2\n      lt\n      tag_335\n      jumpi\n      invalid\n    tag_335:\n      swap1\n      0x00\n      mstore\n      keccak256(0x00, 0x20)\n      swap1\n      0x05\n      mul\n      add\n        /* \"TEXOToken.sol\":42964:43002  PoolInfo storage pool = poolInfo[_pid] */\n      swap1\n      pop\n        /* \"TEXOToken.sol\":43012:43033  UserInfo storage user */\n      0x00\n        /* \"TEXOToken.sol\":43036:43044  userInfo */\n      0x07\n        /* \"TEXOToken.sol\":43036:43050  userInfo[_pid] */\n      0x00\n        /* \"TEXOToken.sol\":43045:43049  _pid */\n      dup6\n        /* \"TEXOToken.sol\":43036:43050  userInfo[_pid] */\n      dup2\n      mstore\n      0x20\n      add\n      swap1\n      dup2\n      mstore\n      0x20\n      add\n      0x00\n      keccak256\n        /* \"TEXOToken.sol\":43036:43062  userInfo[_pid][msg.sender] */\n      0x00\n        /* \"TEXOToken.sol\":43051:43061  msg.sender */\n      caller\n        /* \"TEXOToken.sol\":43036:43062  userInfo[_pid][msg.sender] */\n      0xffffffffffffffffffffffffffffffffffffffff\n      and\n      0xffffffffffffffffffffffffffffffffffffffff\n      and\n      dup2\n      mstore\n      0x20\n      add\n      swap1\n      dup2\n      mstore\n      0x20\n      add\n      0x00\n      keccak256\n        /* \"TEXOToken.sol\":43012:43062  UserInfo storage user = userInfo[_pid][msg.sender] */\n      swap1\n      pop\n        /* \"TEXOToken.sol\":43072:43088  updatePool(_pid) */\n      tag_337\n        /* \"TEXOToken.sol\":43083:43087  _pid */\n      dup5\n        /* \"TEXOToken.sol\":43072:43082  updatePool */\n      tag_85\n        /* \"TEXOToken.sol\":43072:43088  updatePool(_pid) */\n      jump\t// in\n    tag_337:\n        /* \"TEXOToken.sol\":43116:43117  0 */\n      0x00\n        /* \"TEXOToken.sol\":43102:43106  user */\n      dup2\n        /* \"TEXOToken.sol\":43102:43113  user.amount */\n      0x00\n      add\n      sload\n        /* \"TEXOToken.sol\":43102:43117  user.amount > 0 */\n      gt\n        /* \"TEXOToken.sol\":43098:43381  if (user.amount > 0) {... */\n      iszero\n      tag_338\n      jumpi\n        /* \"TEXOToken.sol\":43133:43148  uint256 pending */\n      0x00\n        /* \"TEXOToken.sol\":43163:43270  user.amount... */\n      tag_339\n        /* \"TEXOToken.sol\":43254:43258  user */\n      dup3\n        /* \"TEXOToken.sol\":43254:43269  user.rewardDebt */\n      0x01\n      add\n      sload\n        /* \"TEXOToken.sol\":43163:43236  user.amount... */\n      tag_340\n        /* \"TEXOToken.sol\":43231:43235  1e12 */\n      0xe8d4a51000\n        /* \"TEXOToken.sol\":43163:43213  user.amount... */\n      tag_341\n        /* \"TEXOToken.sol\":43192:43196  pool */\n      dup8\n        /* \"TEXOToken.sol\":43192:43212  pool.accTEXOPerShare */\n      0x03\n      add\n      sload\n        /* \"TEXOToken.sol\":43163:43167  user */\n      dup8\n        /* \"TEXOToken.sol\":43163:43174  user.amount */\n      0x00\n      add\n      sload\n        /* \"TEXOToken.sol\":43163:43191  user.amount... */\n      tag_178\n      swap1\n        /* \"TEXOToken.sol\":43163:43213  user.amount... */\n      swap2\n      swap1\n      0xffffffff\n      and\n      jump\t// in\n    tag_341:\n        /* \"TEXOToken.sol\":43163:43230  user.amount... */\n      tag_179\n      swap1\n        /* \"TEXOToken.sol\":43163:43236  user.amount... */\n      swap2\n      swap1\n      0xffffffff\n      and\n      jump\t// in\n    tag_340:\n        /* \"TEXOToken.sol\":43163:43253  user.amount... */\n      tag_180\n      swap1\n        /* \"TEXOToken.sol\":43163:43270  user.amount... */\n      swap2\n      swap1\n      0xffffffff\n      and\n      jump\t// in\n    tag_339:\n        /* \"TEXOToken.sol\":43133:43270  uint256 pending =... */\n      swap1\n      pop\n        /* \"TEXOToken.sol\":43298:43299  0 */\n      0x00\n        /* \"TEXOToken.sol\":43288:43295  pending */\n      dup2\n        /* \"TEXOToken.sol\":43288:43299  pending > 0 */\n      gt\n        /* \"TEXOToken.sol\":43284:43371  if (pending > 0) {... */\n      iszero\n      tag_342\n      jumpi\n        /* \"TEXOToken.sol\":43319:43356  safeTEXOTransfer(msg.sender, pending) */\n      tag_343\n        /* \"TEXOToken.sol\":43336:43346  msg.sender */\n      caller\n        /* \"TEXOToken.sol\":43348:43355  pending */\n      dup3\n        /* \"TEXOToken.sol\":43319:43335  safeTEXOTransfer */\n      tag_183\n        /* \"TEXOToken.sol\":43319:43356  safeTEXOTransfer(msg.sender, pending) */\n      jump\t// in\n    tag_343:\n        /* \"TEXOToken.sol\":43284:43371  if (pending > 0) {... */\n    tag_342:\n        /* \"TEXOToken.sol\":43098:43381  if (user.amount > 0) {... */\n      pop\n    tag_338:\n        /* \"TEXOToken.sol\":43404:43405  0 */\n      0x00\n        /* \"TEXOToken.sol\":43394:43401  _amount */\n      dup4\n        /* \"TEXOToken.sol\":43394:43405  _amount > 0 */\n      gt\n        /* \"TEXOToken.sol\":43390:43919  if (_amount > 0) {... */\n      iszero\n      tag_344\n      jumpi\n        /* \"TEXOToken.sol\":43421:43557  pool.lpToken.safeTransferFrom(... */\n      tag_345\n        /* \"TEXOToken.sol\":43476:43486  msg.sender */\n      caller\n        /* \"TEXOToken.sol\":43513:43517  this */\n      address\n        /* \"TEXOToken.sol\":43536:43543  _amount */\n      dup6\n        /* \"TEXOToken.sol\":43421:43425  pool */\n      dup6\n        /* \"TEXOToken.sol\":43421:43433  pool.lpToken */\n      0x00\n      add\n      0x00\n      swap1\n      sload\n      swap1\n      0x0100\n      exp\n      swap1\n      div\n      0xffffffffffffffffffffffffffffffffffffffff\n      and\n        /* \"TEXOToken.sol\":43421:43450  pool.lpToken.safeTransferFrom */\n      0xffffffffffffffffffffffffffffffffffffffff\n      and\n      tag_280\n      swap1\n        /* \"TEXOToken.sol\":43421:43557  pool.lpToken.safeTransferFrom(... */\n      swap4\n      swap3\n      swap2\n      swap1\n      0xffffffff\n      and\n      jump\t// in\n    tag_345:\n        /* \"TEXOToken.sol\":43595:43596  0 */\n      0x00\n        /* \"TEXOToken.sol\":43575:43579  pool */\n      dup3\n        /* \"TEXOToken.sol\":43575:43592  pool.depositFeeBP */\n      0x04\n      add\n      0x00\n      swap1\n      sload\n      swap1\n      0x0100\n      exp\n      swap1\n      div\n      0xffff\n      and\n        /* \"TEXOToken.sol\":43575:43596  pool.depositFeeBP > 0 */\n      0xffff\n      and\n      gt\n        /* \"TEXOToken.sol\":43571:43909  if (pool.depositFeeBP > 0) {... */\n      iszero\n      tag_346\n      jumpi\n        /* \"TEXOToken.sol\":43616:43634  uint256 depositFee */\n      0x00\n        /* \"TEXOToken.sol\":43637:43678  _amount.mul(pool.depositFeeBP).div(10000) */\n      tag_347\n        /* \"TEXOToken.sol\":43672:43677  10000 */\n      0x2710\n        /* \"TEXOToken.sol\":43637:43667  _amount.mul(pool.depositFeeBP) */\n      tag_348\n        /* \"TEXOToken.sol\":43649:43653  pool */\n      dup6\n        /* \"TEXOToken.sol\":43649:43666  pool.depositFeeBP */\n      0x04\n      add\n      0x00\n      swap1\n      sload\n      swap1\n      0x0100\n      exp\n      swap1\n      div\n      0xffff\n      and\n        /* \"TEXOToken.sol\":43637:43667  _amount.mul(pool.depositFeeBP) */\n      0xffff\n      and\n        /* \"TEXOToken.sol\":43637:43644  _amount */\n      dup8\n        /* \"TEXOToken.sol\":43637:43648  _amount.mul */\n      tag_178\n      swap1\n        /* \"TEXOToken.sol\":43637:43667  _amount.mul(pool.depositFeeBP) */\n      swap2\n      swap1\n      0xffffffff\n      and\n      jump\t// in\n    tag_348:\n        /* \"TEXOToken.sol\":43637:43671  _amount.mul(pool.depositFeeBP).div */\n      tag_179\n      swap1\n        /* \"TEXOToken.sol\":43637:43678  _amount.mul(pool.depositFeeBP).div(10000) */\n      swap2\n      swap1\n      0xffffffff\n      and\n      jump\t// in\n    tag_347:\n        /* \"TEXOToken.sol\":43616:43678  uint256 depositFee = _amount.mul(pool.depositFeeBP).div(10000) */\n      swap1\n      pop\n        /* \"TEXOToken.sol\":43710:43750  user.amount.add(_amount).sub(depositFee) */\n      tag_349\n        /* \"TEXOToken.sol\":43739:43749  depositFee */\n      dup2\n        /* \"TEXOToken.sol\":43710:43734  user.amount.add(_amount) */\n      tag_350\n        /* \"TEXOToken.sol\":43726:43733  _amount */\n      dup7\n        /* \"TEXOToken.sol\":43710:43714  user */\n      dup6\n        /* \"TEXOToken.sol\":43710:43721  user.amount */\n      0x00\n      add\n      sload\n        /* \"TEXOToken.sol\":43710:43725  user.amount.add */\n      tag_216\n      swap1\n        /* \"TEXOToken.sol\":43710:43734  user.amount.add(_amount) */\n      swap2\n      swap1\n      0xffffffff\n      and\n      jump\t// in\n    tag_350:\n        /* \"TEXOToken.sol\":43710:43738  user.amount.add(_amount).sub */\n      tag_180\n      swap1\n        /* \"TEXOToken.sol\":43710:43750  user.amount.add(_amount).sub(depositFee) */\n      swap2\n      swap1\n      0xffffffff\n      and\n      jump\t// in\n    tag_349:\n        /* \"TEXOToken.sol\":43696:43700  user */\n      dup3\n        /* \"TEXOToken.sol\":43696:43707  user.amount */\n      0x00\n      add\n        /* \"TEXOToken.sol\":43696:43750  user.amount = user.amount.add(_amount).sub(depositFee) */\n      dup2\n      swap1\n      sstore\n      pop\n        /* \"TEXOToken.sol\":43768:43817  pool.lpToken.safeTransfer(feeAddress, depositFee) */\n      tag_351\n        /* \"TEXOToken.sol\":43794:43804  feeAddress */\n      0x05\n      0x00\n      swap1\n      sload\n      swap1\n      0x0100\n      exp\n      swap1\n      div\n      0xffffffffffffffffffffffffffffffffffffffff\n      and\n        /* \"TEXOToken.sol\":43806:43816  depositFee */\n      dup3\n        /* \"TEXOToken.sol\":43768:43772  pool */\n      dup6\n        /* \"TEXOToken.sol\":43768:43780  pool.lpToken */\n      0x00\n      add\n      0x00\n      swap1\n      sload\n      swap1\n      0x0100\n      exp\n      swap1\n      div\n      0xffffffffffffffffffffffffffffffffffffffff\n      and\n        /* \"TEXOToken.sol\":43768:43793  pool.lpToken.safeTransfer */\n      0xffffffffffffffffffffffffffffffffffffffff\n      and\n      tag_189\n      swap1\n        /* \"TEXOToken.sol\":43768:43817  pool.lpToken.safeTransfer(feeAddress, depositFee) */\n      swap3\n      swap2\n      swap1\n      0xffffffff\n      and\n      jump\t// in\n    tag_351:\n        /* \"TEXOToken.sol\":43571:43909  if (pool.depositFeeBP > 0) {... */\n      pop\n      jump(tag_352)\n    tag_346:\n        /* \"TEXOToken.sol\":43870:43894  user.amount.add(_amount) */\n      tag_353\n        /* \"TEXOToken.sol\":43886:43893  _amount */\n      dup4\n        /* \"TEXOToken.sol\":43870:43874  user */\n      dup3\n        /* \"TEXOToken.sol\":43870:43881  user.amount */\n      0x00\n      add\n      sload\n        /* \"TEXOToken.sol\":43870:43885  user.amount.add */\n      tag_216\n      swap1\n        /* \"TEXOToken.sol\":43870:43894  user.amount.add(_amount) */\n      swap2\n      swap1\n      0xffffffff\n      and\n      jump\t// in\n    tag_353:\n        /* \"TEXOToken.sol\":43856:43860  user */\n      dup2\n        /* \"TEXOToken.sol\":43856:43867  user.amount */\n      0x00\n      add\n        /* \"TEXOToken.sol\":43856:43894  user.amount = user.amount.add(_amount) */\n      dup2\n      swap1\n      sstore\n      pop\n        /* \"TEXOToken.sol\":43571:43909  if (pool.depositFeeBP > 0) {... */\n    tag_352:\n        /* \"TEXOToken.sol\":43390:43919  if (_amount > 0) {... */\n    tag_344:\n        /* \"TEXOToken.sol\":43946:43993  user.amount.mul(pool.accTEXOPerShare).div(1e12) */\n      tag_354\n        /* \"TEXOToken.sol\":43988:43992  1e12 */\n      0xe8d4a51000\n        /* \"TEXOToken.sol\":43946:43983  user.amount.mul(pool.accTEXOPerShare) */\n      tag_355\n        /* \"TEXOToken.sol\":43962:43966  pool */\n      dup5\n        /* \"TEXOToken.sol\":43962:43982  pool.accTEXOPerShare */\n      0x03\n      add\n      sload\n        /* \"TEXOToken.sol\":43946:43950  user */\n      dup5\n        /* \"TEXOToken.sol\":43946:43957  user.amount */\n      0x00\n      add\n      sload\n        /* \"TEXOToken.sol\":43946:43961  user.amount.mul */\n      tag_178\n      swap1\n        /* \"TEXOToken.sol\":43946:43983  user.amount.mul(pool.accTEXOPerShare) */\n      swap2\n      swap1\n      0xffffffff\n      and\n      jump\t// in\n    tag_355:\n        /* \"TEXOToken.sol\":43946:43987  user.amount.mul(pool.accTEXOPerShare).div */\n      tag_179\n      swap1\n        /* \"TEXOToken.sol\":43946:43993  user.amount.mul(pool.accTEXOPerShare).div(1e12) */\n      swap2\n      swap1\n      0xffffffff\n      and\n      jump\t// in\n    tag_354:\n        /* \"TEXOToken.sol\":43928:43932  user */\n      dup2\n        /* \"TEXOToken.sol\":43928:43943  user.rewardDebt */\n      0x01\n      add\n        /* \"TEXOToken.sol\":43928:43993  user.rewardDebt = user.amount.mul(pool.accTEXOPerShare).div(1e12) */\n      dup2\n      swap1\n      sstore\n      pop\n        /* \"TEXOToken.sol\":44028:44032  _pid */\n      dup4\n        /* \"TEXOToken.sol\":44016:44026  msg.sender */\n      caller\n        /* \"TEXOToken.sol\":44008:44042  Deposit(msg.sender, _pid, _amount) */\n      0xffffffffffffffffffffffffffffffffffffffff\n      and\n      0x90890809c654f11d6e72a28fa60149770a0d11ec6c92319d6ceb2bb0a4ea1a15\n        /* \"TEXOToken.sol\":44034:44041  _amount */\n      dup6\n        /* \"TEXOToken.sol\":44008:44042  Deposit(msg.sender, _pid, _amount) */\n      mload(0x40)\n      dup1\n      dup3\n      dup2\n      mstore\n      0x20\n      add\n      swap2\n      pop\n      pop\n      mload(0x40)\n      dup1\n      swap2\n      sub\n      swap1\n      log3\n        /* \"TEXOToken.sol\":21952:21953  _ */\n      pop\n      pop\n        /* \"TEXOToken.sol\":21161:21162  1 */\n      0x01\n        /* \"TEXOToken.sol\":22096:22103  _status */\n      dup1\n        /* \"TEXOToken.sol\":22096:22118  _status = _NOT_ENTERED */\n      dup2\n      swap1\n      sstore\n      pop\n        /* \"TEXOToken.sol\":42886:44049  function deposit(uint256 _pid, uint256 _amount) public nonReentrant {... */\n      pop\n      pop\n      jump\t// out\n        /* \"TEXOToken.sol\":48147:49457  function reduceEmissionRateWithDefaultRate() public {... */\n    tag_158:\n        /* \"TEXOToken.sol\":48217:48242  isAllowReduceEmissionRate */\n      0x10\n      0x00\n      swap1\n      sload\n      swap1\n      0x0100\n      exp\n      swap1\n      div\n      0xff\n      and\n        /* \"TEXOToken.sol\":48209:48311  require(isAllowReduceEmissionRate, \"reduceEmissionRateWithDefaultRate: Permission flag not turned on\") */\n      tag_357\n      jumpi\n      mload(0x40)\n      0x08c379a000000000000000000000000000000000000000000000000000000000\n      dup2\n      mstore\n      0x04\n      add\n      dup1\n      dup1\n      0x20\n      add\n      dup3\n      dup2\n      sub\n      dup3\n      mstore\n      0x40\n      dup2\n      mstore\n      0x20\n      add\n      dup1\n      data_fb61bfab522ff5726f96c4cebf8c9bc7c68d529a173450ab2ca49eebd2ecf0bb\n      0x40\n      swap2\n      codecopy\n      0x40\n      add\n      swap2\n      pop\n      pop\n      mload(0x40)\n      dup1\n      swap2\n      sub\n      swap1\n      revert\n    tag_357:\n        /* \"TEXOToken.sol\":48344:48354  startBlock */\n      sload(0x09)\n        /* \"TEXOToken.sol\":48329:48341  block.number */\n      number\n        /* \"TEXOToken.sol\":48329:48354  block.number > startBlock */\n      gt\n        /* \"TEXOToken.sol\":48321:48432  require(block.number > startBlock, \"reduceEmissionRateWithDefaultRate: Can only be called after mining starts\") */\n      tag_358\n      jumpi\n      mload(0x40)\n      0x08c379a000000000000000000000000000000000000000000000000000000000\n      dup2\n      mstore\n      0x04\n      add\n      dup1\n      dup1\n      0x20\n      add\n      dup3\n      dup2\n      sub\n      dup3\n      mstore\n      0x49\n      dup2\n      mstore\n      0x20\n      add\n      dup1\n      data_7841e7a9da54faeba8d906bcda7bb7169bd7b5ca3b81147f0804dbe5ff79d3f0\n      0x49\n      swap2\n      codecopy\n      0x60\n      add\n      swap2\n      pop\n      pop\n      mload(0x40)\n      dup1\n      swap2\n      sub\n      swap1\n      revert\n    tag_358:\n        /* \"TEXOToken.sol\":36659:36668  50 finney */\n      0xb1a2bc2ec50000\n        /* \"TEXOToken.sol\":48450:48462  tEXOPerBlock */\n      sload(0x04)\n        /* \"TEXOToken.sol\":48450:48486  tEXOPerBlock > MINIMUM_EMISSION_RATE */\n      gt\n        /* \"TEXOToken.sol\":48442:48573  require(tEXOPerBlock > MINIMUM_EMISSION_RATE, \"reduceEmissionRateWithDefaultRate: Emission rate has reached the minimum threshold\") */\n      tag_359\n      jumpi\n      mload(0x40)\n      0x08c379a000000000000000000000000000000000000000000000000000000000\n      dup2\n      mstore\n      0x04\n      add\n      dup1\n      dup1\n      0x20\n      add\n      dup3\n      dup2\n      sub\n      dup3\n      mstore\n      0x52\n      dup2\n      mstore\n      0x20\n      add\n      dup1\n      data_d4e7846547be135afcf8a93a01a9053e9fa2c0d79f8d5448158422588210b6ab\n      0x52\n      swap2\n      codecopy\n      0x60\n      add\n      swap2\n      pop\n      pop\n      mload(0x40)\n      dup1\n      swap2\n      sub\n      swap1\n      revert\n    tag_359:\n        /* \"TEXOToken.sol\":48584:48604  uint256 currentIndex */\n      0x00\n        /* \"TEXOToken.sol\":48607:48673  block.number.sub(startBlock).div(EMISSION_REDUCTION_PERIOD_BLOCKS) */\n      tag_360\n        /* \"TEXOToken.sol\":36789:36794  14400 */\n      0x3840\n        /* \"TEXOToken.sol\":48607:48635  block.number.sub(startBlock) */\n      tag_361\n        /* \"TEXOToken.sol\":48624:48634  startBlock */\n      sload(0x09)\n        /* \"TEXOToken.sol\":48607:48619  block.number */\n      number\n        /* \"TEXOToken.sol\":48607:48623  block.number.sub */\n      tag_180\n      swap1\n        /* \"TEXOToken.sol\":48607:48635  block.number.sub(startBlock) */\n      swap2\n      swap1\n      0xffffffff\n      and\n      jump\t// in\n    tag_361:\n        /* \"TEXOToken.sol\":48607:48639  block.number.sub(startBlock).div */\n      tag_179\n      swap1\n        /* \"TEXOToken.sol\":48607:48673  block.number.sub(startBlock).div(EMISSION_REDUCTION_PERIOD_BLOCKS) */\n      swap2\n      swap1\n      0xffffffff\n      and\n      jump\t// in\n    tag_360:\n        /* \"TEXOToken.sol\":48584:48673  uint256 currentIndex = block.number.sub(startBlock).div(EMISSION_REDUCTION_PERIOD_BLOCKS) */\n      swap1\n      pop\n        /* \"TEXOToken.sol\":48703:48727  lastReductionPeriodIndex */\n      sload(0x0f)\n        /* \"TEXOToken.sol\":48687:48699  currentIndex */\n      dup2\n        /* \"TEXOToken.sol\":48687:48727  currentIndex <= lastReductionPeriodIndex */\n      gt\n        /* \"TEXOToken.sol\":48683:48760  if (currentIndex <= lastReductionPeriodIndex) {... */\n      tag_362\n      jumpi\n        /* \"TEXOToken.sol\":48743:48750  return; */\n      pop\n      jump(tag_356)\n        /* \"TEXOToken.sol\":48683:48760  if (currentIndex <= lastReductionPeriodIndex) {... */\n    tag_362:\n        /* \"TEXOToken.sol\":48770:48793  uint256 newEmissionRate */\n      0x00\n        /* \"TEXOToken.sol\":48796:48808  tEXOPerBlock */\n      sload(0x04)\n        /* \"TEXOToken.sol\":48770:48808  uint256 newEmissionRate = tEXOPerBlock */\n      swap1\n      pop\n        /* \"TEXOToken.sol\":48823:48836  uint256 index */\n      0x00\n        /* \"TEXOToken.sol\":48839:48863  lastReductionPeriodIndex */\n      sload(0x0f)\n        /* \"TEXOToken.sol\":48823:48863  uint256 index = lastReductionPeriodIndex */\n      swap1\n      pop\n        /* \"TEXOToken.sol\":48818:49009  for (uint256 index = lastReductionPeriodIndex; index < currentIndex; ++index) {... */\n    tag_363:\n        /* \"TEXOToken.sol\":48873:48885  currentIndex */\n      dup3\n        /* \"TEXOToken.sol\":48865:48870  index */\n      dup2\n        /* \"TEXOToken.sol\":48865:48885  index < currentIndex */\n      lt\n        /* \"TEXOToken.sol\":48818:49009  for (uint256 index = lastReductionPeriodIndex; index < currentIndex; ++index) {... */\n      iszero\n      tag_364\n      jumpi\n        /* \"TEXOToken.sol\":48928:48998  newEmissionRate.mul(1e4 - EMISSION_REDUCTION_RATE_PER_PERIOD).div(1e4) */\n      tag_366\n        /* \"TEXOToken.sol\":48994:48997  1e4 */\n      0x2710\n        /* \"TEXOToken.sol\":48928:48989  newEmissionRate.mul(1e4 - EMISSION_REDUCTION_RATE_PER_PERIOD) */\n      tag_367\n        /* \"TEXOToken.sol\":36924:36927  300 */\n      0x012c\n        /* \"TEXOToken.sol\":48948:48951  1e4 */\n      0x2710\n        /* \"TEXOToken.sol\":48948:48988  1e4 - EMISSION_REDUCTION_RATE_PER_PERIOD */\n      sub\n        /* \"TEXOToken.sol\":48928:48943  newEmissionRate */\n      dup6\n        /* \"TEXOToken.sol\":48928:48947  newEmissionRate.mul */\n      tag_178\n      swap1\n        /* \"TEXOToken.sol\":48928:48989  newEmissionRate.mul(1e4 - EMISSION_REDUCTION_RATE_PER_PERIOD) */\n      swap2\n      swap1\n      0xffffffff\n      and\n      jump\t// in\n    tag_367:\n        /* \"TEXOToken.sol\":48928:48993  newEmissionRate.mul(1e4 - EMISSION_REDUCTION_RATE_PER_PERIOD).div */\n      tag_179\n      swap1\n        /* \"TEXOToken.sol\":48928:48998  newEmissionRate.mul(1e4 - EMISSION_REDUCTION_RATE_PER_PERIOD).div(1e4) */\n      swap2\n      swap1\n      0xffffffff\n      and\n      jump\t// in\n    tag_366:\n        /* \"TEXOToken.sol\":48910:48998  newEmissionRate = newEmissionRate.mul(1e4 - EMISSION_REDUCTION_RATE_PER_PERIOD).div(1e4) */\n      swap2\n      pop\n        /* \"TEXOToken.sol\":48887:48894  ++index */\n      dup1\n      0x01\n      add\n      swap1\n      pop\n        /* \"TEXOToken.sol\":48818:49009  for (uint256 index = lastReductionPeriodIndex; index < currentIndex; ++index) {... */\n      jump(tag_363)\n    tag_364:\n      pop\n        /* \"TEXOToken.sol\":36659:36668  50 finney */\n      0xb1a2bc2ec50000\n        /* \"TEXOToken.sol\":49037:49052  newEmissionRate */\n      dup2\n        /* \"TEXOToken.sol\":49037:49076  newEmissionRate < MINIMUM_EMISSION_RATE */\n      lt\n        /* \"TEXOToken.sol\":49037:49118  newEmissionRate < MINIMUM_EMISSION_RATE ? MINIMUM_EMISSION_RATE : newEmissionRate */\n      tag_368\n      jumpi\n        /* \"TEXOToken.sol\":49103:49118  newEmissionRate */\n      dup1\n        /* \"TEXOToken.sol\":49037:49118  newEmissionRate < MINIMUM_EMISSION_RATE ? MINIMUM_EMISSION_RATE : newEmissionRate */\n      jump(tag_369)\n    tag_368:\n        /* \"TEXOToken.sol\":36659:36668  50 finney */\n      0xb1a2bc2ec50000\n        /* \"TEXOToken.sol\":49037:49118  newEmissionRate < MINIMUM_EMISSION_RATE ? MINIMUM_EMISSION_RATE : newEmissionRate */\n    tag_369:\n        /* \"TEXOToken.sol\":49019:49118  newEmissionRate = newEmissionRate < MINIMUM_EMISSION_RATE ? MINIMUM_EMISSION_RATE : newEmissionRate */\n      swap1\n      pop\n        /* \"TEXOToken.sol\":49151:49163  tEXOPerBlock */\n      sload(0x04)\n        /* \"TEXOToken.sol\":49132:49147  newEmissionRate */\n      dup2\n        /* \"TEXOToken.sol\":49132:49163  newEmissionRate >= tEXOPerBlock */\n      lt\n        /* \"TEXOToken.sol\":49128:49196  if (newEmissionRate >= tEXOPerBlock) {... */\n      tag_370\n      jumpi\n        /* \"TEXOToken.sol\":49179:49186  return; */\n      pop\n      pop\n      jump(tag_356)\n        /* \"TEXOToken.sol\":49128:49196  if (newEmissionRate >= tEXOPerBlock) {... */\n    tag_370:\n        /* \"TEXOToken.sol\":49206:49223  massUpdatePools() */\n      tag_371\n        /* \"TEXOToken.sol\":49206:49221  massUpdatePools */\n      tag_92\n        /* \"TEXOToken.sol\":49206:49223  massUpdatePools() */\n      jump\t// in\n    tag_371:\n        /* \"TEXOToken.sol\":49260:49272  currentIndex */\n      dup2\n        /* \"TEXOToken.sol\":49233:49257  lastReductionPeriodIndex */\n      0x0f\n        /* \"TEXOToken.sol\":49233:49272  lastReductionPeriodIndex = currentIndex */\n      dup2\n      swap1\n      sstore\n      pop\n        /* \"TEXOToken.sol\":49282:49310  uint256 previousEmissionRate */\n      0x00\n        /* \"TEXOToken.sol\":49313:49325  tEXOPerBlock */\n      sload(0x04)\n        /* \"TEXOToken.sol\":49282:49325  uint256 previousEmissionRate = tEXOPerBlock */\n      swap1\n      pop\n        /* \"TEXOToken.sol\":49350:49365  newEmissionRate */\n      dup2\n        /* \"TEXOToken.sol\":49335:49347  tEXOPerBlock */\n      0x04\n        /* \"TEXOToken.sol\":49335:49365  tEXOPerBlock = newEmissionRate */\n      dup2\n      swap1\n      sstore\n      pop\n        /* \"TEXOToken.sol\":49400:49410  msg.sender */\n      caller\n        /* \"TEXOToken.sol\":49380:49450  EmissionRateUpdated(msg.sender, previousEmissionRate, newEmissionRate) */\n      0xffffffffffffffffffffffffffffffffffffffff\n      and\n      0xeedc6338c9c1ad8f3cd6c90dd09dbe98dbd57e610d3e59a17996d07acb0d9511\n        /* \"TEXOToken.sol\":49412:49432  previousEmissionRate */\n      dup3\n        /* \"TEXOToken.sol\":49434:49449  newEmissionRate */\n      dup5\n        /* \"TEXOToken.sol\":49380:49450  EmissionRateUpdated(msg.sender, previousEmissionRate, newEmissionRate) */\n      mload(0x40)\n      dup1\n      dup4\n      dup2\n      mstore\n      0x20\n      add\n      dup3\n      dup2\n      mstore\n      0x20\n      add\n      swap3\n      pop\n      pop\n      pop\n      mload(0x40)\n      dup1\n      swap2\n      sub\n      swap1\n      log2\n        /* \"TEXOToken.sol\":48147:49457  function reduceEmissionRateWithDefaultRate() public {... */\n      pop\n      pop\n      pop\n    tag_356:\n      jump\t// out\n        /* \"TEXOToken.sol\":12366:12473  function transferOwnership(address newOwner) public onlyOwner {... */\n    tag_161:\n        /* \"TEXOToken.sol\":11671:11683  _msgSender() */\n      tag_373\n        /* \"TEXOToken.sol\":11671:11681  _msgSender */\n      tag_230\n        /* \"TEXOToken.sol\":11671:11683  _msgSender() */\n      jump\t// in\n    tag_373:\n        /* \"TEXOToken.sol\":11661:11683  _owner == _msgSender() */\n      0xffffffffffffffffffffffffffffffffffffffff\n      and\n        /* \"TEXOToken.sol\":11661:11667  _owner */\n      0x00\n      dup1\n      sload\n      swap1\n      0x0100\n      exp\n      swap1\n      div\n      0xffffffffffffffffffffffffffffffffffffffff\n      and\n        /* \"TEXOToken.sol\":11661:11683  _owner == _msgSender() */\n      0xffffffffffffffffffffffffffffffffffffffff\n      and\n      eq\n        /* \"TEXOToken.sol\":11653:11720  require(_owner == _msgSender(), \"Ownable: caller is not the owner\") */\n      tag_374\n      jumpi\n      mload(0x40)\n      0x08c379a000000000000000000000000000000000000000000000000000000000\n      dup2\n      mstore\n      0x04\n      add\n      dup1\n      dup1\n      0x20\n      add\n      dup3\n      dup2\n      sub\n      dup3\n      mstore\n      0x20\n      dup2\n      mstore\n      0x20\n      add\n      dup1\n      0x4f776e61626c653a2063616c6c6572206973206e6f7420746865206f776e6572\n      dup2\n      mstore\n      pop\n      0x20\n      add\n      swap2\n      pop\n      pop\n      mload(0x40)\n      dup1\n      swap2\n      sub\n      swap1\n      revert\n    tag_374:\n        /* \"TEXOToken.sol\":12438:12466  _transferOwnership(newOwner) */\n      tag_376\n        /* \"TEXOToken.sol\":12457:12465  newOwner */\n      dup2\n        /* \"TEXOToken.sol\":12438:12456  _transferOwnership */\n      tag_377\n        /* \"TEXOToken.sol\":12438:12466  _transferOwnership(newOwner) */\n      jump\t// in\n    tag_376:\n        /* \"TEXOToken.sol\":12366:12473  function transferOwnership(address newOwner) public onlyOwner {... */\n      pop\n      jump\t// out\n        /* \"TEXOToken.sol\":2193:2652  function mul(uint256 a, uint256 b) internal pure returns (uint256) {... */\n    tag_178:\n        /* \"TEXOToken.sol\":2251:2258  uint256 */\n      0x00\n        /* \"TEXOToken.sol\":2497:2498  0 */\n      dup1\n        /* \"TEXOToken.sol\":2492:2493  a */\n      dup4\n        /* \"TEXOToken.sol\":2492:2498  a == 0 */\n      eq\n        /* \"TEXOToken.sol\":2488:2533  if (a == 0) {... */\n      iszero\n      tag_379\n      jumpi\n        /* \"TEXOToken.sol\":2521:2522  0 */\n      0x00\n        /* \"TEXOToken.sol\":2514:2522  return 0 */\n      swap1\n      pop\n      jump(tag_378)\n        /* \"TEXOToken.sol\":2488:2533  if (a == 0) {... */\n    tag_379:\n        /* \"TEXOToken.sol\":2543:2552  uint256 c */\n      0x00\n        /* \"TEXOToken.sol\":2559:2560  b */\n      dup3\n        /* \"TEXOToken.sol\":2555:2556  a */\n      dup5\n        /* \"TEXOToken.sol\":2555:2560  a * b */\n      mul\n        /* \"TEXOToken.sol\":2543:2560  uint256 c = a * b */\n      swap1\n      pop\n        /* \"TEXOToken.sol\":2587:2588  b */\n      dup3\n        /* \"TEXOToken.sol\":2582:2583  a */\n      dup5\n        /* \"TEXOToken.sol\":2578:2579  c */\n      dup3\n        /* \"TEXOToken.sol\":2578:2583  c / a */\n      dup2\n      tag_380\n      jumpi\n      invalid\n    tag_380:\n      div\n        /* \"TEXOToken.sol\":2578:2588  c / a == b */\n      eq\n        /* \"TEXOToken.sol\":2570:2626  require(c / a == b, \"SafeMath: multiplication overflow\") */\n      tag_381\n      jumpi\n      mload(0x40)\n      0x08c379a000000000000000000000000000000000000000000000000000000000\n      dup2\n      mstore\n      0x04\n      add\n      dup1\n      dup1\n      0x20\n      add\n      dup3\n      dup2\n      sub\n      dup3\n      mstore\n      0x21\n      dup2\n      mstore\n      0x20\n      add\n      dup1\n      data_9113bb53c2876a3805b2c9242029423fc540a728243ce887ab24c82cf119fba3\n      0x21\n      swap2\n      codecopy\n      0x40\n      add\n      swap2\n      pop\n      pop\n      mload(0x40)\n      dup1\n      swap2\n      sub\n      swap1\n      revert\n    tag_381:\n        /* \"TEXOToken.sol\":2644:2645  c */\n      dup1\n        /* \"TEXOToken.sol\":2637:2645  return c */\n      swap2\n      pop\n      pop\n        /* \"TEXOToken.sol\":2193:2652  function mul(uint256 a, uint256 b) internal pure returns (uint256) {... */\n    tag_378:\n      swap3\n      swap2\n      pop\n      pop\n      jump\t// out\n        /* \"TEXOToken.sol\":3107:3237  function div(uint256 a, uint256 b) internal pure returns (uint256) {... */\n    tag_179:\n        /* \"TEXOToken.sol\":3165:3172  uint256 */\n      0x00\n        /* \"TEXOToken.sol\":3191:3230  div(a, b, \"SafeMath: division by zero\") */\n      tag_383\n        /* \"TEXOToken.sol\":3195:3196  a */\n      dup4\n        /* \"TEXOToken.sol\":3198:3199  b */\n      dup4\n        /* \"TEXOToken.sol\":3191:3230  div(a, b, \"SafeMath: division by zero\") */\n      mload(0x40)\n      dup1\n      0x40\n      add\n      0x40\n      mstore\n      dup1\n      0x1a\n      dup2\n      mstore\n      0x20\n      add\n      0x536166654d6174683a206469766973696f6e206279207a65726f000000000000\n      dup2\n      mstore\n      pop\n        /* \"TEXOToken.sol\":3191:3194  div */\n      tag_384\n        /* \"TEXOToken.sol\":3191:3230  div(a, b, \"SafeMath: division by zero\") */\n      jump\t// in\n    tag_383:\n        /* \"TEXOToken.sol\":3184:3230  return div(a, b, \"SafeMath: division by zero\") */\n      swap1\n      pop\n        /* \"TEXOToken.sol\":3107:3237  function div(uint256 a, uint256 b) internal pure returns (uint256) {... */\n      swap3\n      swap2\n      pop\n      pop\n      jump\t// out\n        /* \"TEXOToken.sol\":1348:1482  function sub(uint256 a, uint256 b) internal pure returns (uint256) {... */\n    tag_180:\n        /* \"TEXOToken.sol\":1406:1413  uint256 */\n      0x00\n        /* \"TEXOToken.sol\":1432:1475  sub(a, b, \"SafeMath: subtraction overflow\") */\n      tag_386\n        /* \"TEXOToken.sol\":1436:1437  a */\n      dup4\n        /* \"TEXOToken.sol\":1439:1440  b */\n      dup4\n        /* \"TEXOToken.sol\":1432:1475  sub(a, b, \"SafeMath: subtraction overflow\") */\n      mload(0x40)\n      dup1\n      0x40\n      add\n      0x40\n      mstore\n      dup1\n      0x1e\n      dup2\n      mstore\n      0x20\n      add\n      0x536166654d6174683a207375627472616374696f6e206f766572666c6f770000\n      dup2\n      mstore\n      pop\n        /* \"TEXOToken.sol\":1432:1435  sub */\n      tag_387\n        /* \"TEXOToken.sol\":1432:1475  sub(a, b, \"SafeMath: subtraction overflow\") */\n      jump\t// in\n    tag_386:\n        /* \"TEXOToken.sol\":1425:1475  return sub(a, b, \"SafeMath: subtraction overflow\") */\n      swap1\n      pop\n        /* \"TEXOToken.sol\":1348:1482  function sub(uint256 a, uint256 b) internal pure returns (uint256) {... */\n      swap3\n      swap2\n      pop\n      pop\n      jump\t// out\n        /* \"TEXOToken.sol\":46926:47343  function safeTEXOTransfer(address _to, uint256 _amount) internal {... */\n    tag_183:\n        /* \"TEXOToken.sol\":47001:47016  uint256 tEXOBal */\n      0x00\n        /* \"TEXOToken.sol\":47019:47023  tEXO */\n      0x02\n      0x00\n      swap1\n      sload\n      swap1\n      0x0100\n      exp\n      swap1\n      div\n      0xffffffffffffffffffffffffffffffffffffffff\n      and\n        /* \"TEXOToken.sol\":47019:47033  tEXO.balanceOf */\n      0xffffffffffffffffffffffffffffffffffffffff\n      and\n      0x70a08231\n        /* \"TEXOToken.sol\":47042:47046  this */\n      address\n        /* \"TEXOToken.sol\":47019:47048  tEXO.balanceOf(address(this)) */\n      mload(0x40)\n      dup3\n      0xffffffff\n      and\n      0xe0\n      shl\n      dup2\n      mstore\n      0x04\n      add\n      dup1\n      dup3\n      0xffffffffffffffffffffffffffffffffffffffff\n      and\n      dup2\n      mstore\n      0x20\n      add\n      swap2\n      pop\n      pop\n      0x20\n      mload(0x40)\n      dup1\n      dup4\n      sub\n      dup2\n      dup7\n      dup1\n      extcodesize\n      iszero\n      dup1\n      iszero\n      tag_389\n      jumpi\n      0x00\n      dup1\n      revert\n    tag_389:\n      pop\n      gas\n      staticcall\n      iszero\n      dup1\n      iszero\n      tag_391\n      jumpi\n      returndatasize\n      0x00\n      dup1\n      returndatacopy\n      revert(0x00, returndatasize)\n    tag_391:\n      pop\n      pop\n      pop\n      pop\n      mload(0x40)\n      returndatasize\n      0x20\n      dup2\n      lt\n      iszero\n      tag_392\n      jumpi\n      0x00\n      dup1\n      revert\n    tag_392:\n      dup2\n      add\n      swap1\n      dup1\n      dup1\n      mload\n      swap1\n      0x20\n      add\n      swap1\n      swap3\n      swap2\n      swap1\n      pop\n      pop\n      pop\n        /* \"TEXOToken.sol\":47001:47048  uint256 tEXOBal = tEXO.balanceOf(address(this)) */\n      swap1\n      pop\n        /* \"TEXOToken.sol\":47058:47078  bool transferSuccess */\n      0x00\n        /* \"TEXOToken.sol\":47110:47117  tEXOBal */\n      dup2\n        /* \"TEXOToken.sol\":47100:47107  _amount */\n      dup4\n        /* \"TEXOToken.sol\":47100:47117  _amount > tEXOBal */\n      gt\n        /* \"TEXOToken.sol\":47096:47265  if (_amount > tEXOBal) {... */\n      iszero\n      tag_393\n      jumpi\n        /* \"TEXOToken.sol\":47151:47155  tEXO */\n      0x02\n      0x00\n      swap1\n      sload\n      swap1\n      0x0100\n      exp\n      swap1\n      div\n      0xffffffffffffffffffffffffffffffffffffffff\n      and\n        /* \"TEXOToken.sol\":47151:47164  tEXO.transfer */\n      0xffffffffffffffffffffffffffffffffffffffff\n      and\n      0xa9059cbb\n        /* \"TEXOToken.sol\":47165:47168  _to */\n      dup6\n        /* \"TEXOToken.sol\":47170:47177  tEXOBal */\n      dup5\n        /* \"TEXOToken.sol\":47151:47178  tEXO.transfer(_to, tEXOBal) */\n      mload(0x40)\n      dup4\n      0xffffffff\n      and\n      0xe0\n      shl\n      dup2\n      mstore\n      0x04\n      add\n      dup1\n      dup4\n      0xffffffffffffffffffffffffffffffffffffffff\n      and\n      dup2\n      mstore\n      0x20\n      add\n      dup3\n      dup2\n      mstore\n      0x20\n      add\n      swap3\n      pop\n      pop\n      pop\n      0x20\n      mload(0x40)\n      dup1\n      dup4\n      sub\n      dup2\n      0x00\n      dup8\n      dup1\n      extcodesize\n      iszero\n      dup1\n      iszero\n      tag_394\n      jumpi\n      0x00\n      dup1\n      revert\n    tag_394:\n      pop\n      gas\n      call\n      iszero\n      dup1\n      iszero\n      tag_396\n      jumpi\n      returndatasize\n      0x00\n      dup1\n      returndatacopy\n      revert(0x00, returndatasize)\n    tag_396:\n      pop\n      pop\n      pop\n      pop\n      mload(0x40)\n      returndatasize\n      0x20\n      dup2\n      lt\n      iszero\n      tag_397\n      jumpi\n      0x00\n      dup1\n      revert\n    tag_397:\n      dup2\n      add\n      swap1\n      dup1\n      dup1\n      mload\n      swap1\n      0x20\n      add\n      swap1\n      swap3\n      swap2\n      swap1\n      pop\n      pop\n      pop\n        /* \"TEXOToken.sol\":47133:47178  transferSuccess = tEXO.transfer(_to, tEXOBal) */\n      swap1\n      pop\n        /* \"TEXOToken.sol\":47096:47265  if (_amount > tEXOBal) {... */\n      jump(tag_398)\n    tag_393:\n        /* \"TEXOToken.sol\":47227:47231  tEXO */\n      0x02\n      0x00\n      swap1\n      sload\n      swap1\n      0x0100\n      exp\n      swap1\n      div\n      0xffffffffffffffffffffffffffffffffffffffff\n      and\n        /* \"TEXOToken.sol\":47227:47240  tEXO.transfer */\n      0xffffffffffffffffffffffffffffffffffffffff\n      and\n      0xa9059cbb\n        /* \"TEXOToken.sol\":47241:47244  _to */\n      dup6\n        /* \"TEXOToken.sol\":47246:47253  _amount */\n      dup6\n        /* \"TEXOToken.sol\":47227:47254  tEXO.transfer(_to, _amount) */\n      mload(0x40)\n      dup4\n      0xffffffff\n      and\n      0xe0\n      shl\n      dup2\n      mstore\n      0x04\n      add\n      dup1\n      dup4\n      0xffffffffffffffffffffffffffffffffffffffff\n      and\n      dup2\n      mstore\n      0x20\n      add\n      dup3\n      dup2\n      mstore\n      0x20\n      add\n      swap3\n      pop\n      pop\n      pop\n      0x20\n      mload(0x40)\n      dup1\n      dup4\n      sub\n      dup2\n      0x00\n      dup8\n      dup1\n      extcodesize\n      iszero\n      dup1\n      iszero\n      tag_399\n      jumpi\n      0x00\n      dup1\n      revert\n    tag_399:\n      pop\n      gas\n      call\n      iszero\n      dup1\n      iszero\n      tag_401\n      jumpi\n      returndatasize\n      0x00\n      dup1\n      returndatacopy\n      revert(0x00, returndatasize)\n    tag_401:\n      pop\n      pop\n      pop\n      pop\n      mload(0x40)\n      returndatasize\n      0x20\n      dup2\n      lt\n      iszero\n      tag_402\n      jumpi\n      0x00\n      dup1\n      revert\n    tag_402:\n      dup2\n      add\n      swap1\n      dup1\n      dup1\n      mload\n      swap1\n      0x20\n      add\n      swap1\n      swap3\n      swap2\n      swap1\n      pop\n      pop\n      pop\n        /* \"TEXOToken.sol\":47209:47254  transferSuccess = tEXO.transfer(_to, _amount) */\n      swap1\n      pop\n        /* \"TEXOToken.sol\":47096:47265  if (_amount > tEXOBal) {... */\n    tag_398:\n        /* \"TEXOToken.sol\":47282:47297  transferSuccess */\n      dup1\n        /* \"TEXOToken.sol\":47274:47336  require(transferSuccess, \"safePlumTransfer: transfer failed.\") */\n      tag_403\n      jumpi\n      mload(0x40)\n      0x08c379a000000000000000000000000000000000000000000000000000000000\n      dup2\n      mstore\n      0x04\n      add\n      dup1\n      dup1\n      0x20\n      add\n      dup3\n      dup2\n      sub\n      dup3\n      mstore\n      0x22\n      dup2\n      mstore\n      0x20\n      add\n      dup1\n      data_2a7e0e7f8bc79ffac7125960112eaea13c804910c2e58b65c50e00aacc68de0e\n      0x22\n      swap2\n      codecopy\n      0x40\n      add\n      swap2\n      pop\n      pop\n      mload(0x40)\n      dup1\n      swap2\n      sub\n      swap1\n      revert\n    tag_403:\n        /* \"TEXOToken.sol\":46926:47343  function safeTEXOTransfer(address _to, uint256 _amount) internal {... */\n      pop\n      pop\n      pop\n      pop\n      jump\t// out\n        /* \"TEXOToken.sol\":50323:50724  function payReferralCommission(address _user, uint256 _pending) internal {... */\n    tag_185:\n        /* \"TEXOToken.sol\":50406:50422  address referrer */\n      0x00\n        /* \"TEXOToken.sol\":50425:50443  getReferral(_user) */\n      tag_405\n        /* \"TEXOToken.sol\":50437:50442  _user */\n      dup4\n        /* \"TEXOToken.sol\":50425:50436  getReferral */\n      tag_67\n        /* \"TEXOToken.sol\":50425:50443  getReferral(_user) */\n      jump\t// in\n    tag_405:\n        /* \"TEXOToken.sol\":50406:50443  address referrer = getReferral(_user) */\n      swap1\n      pop\n        /* \"TEXOToken.sol\":50477:50478  0 */\n      0x00\n        /* \"TEXOToken.sol\":50457:50479  referrer != address(0) */\n      0xffffffffffffffffffffffffffffffffffffffff\n      and\n        /* \"TEXOToken.sol\":50457:50465  referrer */\n      dup2\n        /* \"TEXOToken.sol\":50457:50479  referrer != address(0) */\n      0xffffffffffffffffffffffffffffffffffffffff\n      and\n      eq\n      iszero\n        /* \"TEXOToken.sol\":50457:50500  referrer != address(0) && referrer != _user */\n      dup1\n      iszero\n      tag_406\n      jumpi\n      pop\n        /* \"TEXOToken.sol\":50495:50500  _user */\n      dup3\n        /* \"TEXOToken.sol\":50483:50500  referrer != _user */\n      0xffffffffffffffffffffffffffffffffffffffff\n      and\n        /* \"TEXOToken.sol\":50483:50491  referrer */\n      dup2\n        /* \"TEXOToken.sol\":50483:50500  referrer != _user */\n      0xffffffffffffffffffffffffffffffffffffffff\n      and\n      eq\n      iszero\n        /* \"TEXOToken.sol\":50457:50500  referrer != address(0) && referrer != _user */\n    tag_406:\n        /* \"TEXOToken.sol\":50457:50518  referrer != address(0) && referrer != _user && refBonusBP > 0 */\n      dup1\n      iszero\n      tag_407\n      jumpi\n      pop\n        /* \"TEXOToken.sol\":50517:50518  0 */\n      0x00\n        /* \"TEXOToken.sol\":50504:50514  refBonusBP */\n      sload(0x0a)\n        /* \"TEXOToken.sol\":50504:50518  refBonusBP > 0 */\n      gt\n        /* \"TEXOToken.sol\":50457:50518  referrer != address(0) && referrer != _user && refBonusBP > 0 */\n    tag_407:\n        /* \"TEXOToken.sol\":50453:50718  if (referrer != address(0) && referrer != _user && refBonusBP > 0) {... */\n      iszero\n      tag_408\n      jumpi\n        /* \"TEXOToken.sol\":50534:50556  uint256 refBonusEarned */\n      0x00\n        /* \"TEXOToken.sol\":50559:50594  _pending.mul(refBonusBP).div(10000) */\n      tag_409\n        /* \"TEXOToken.sol\":50588:50593  10000 */\n      0x2710\n        /* \"TEXOToken.sol\":50559:50583  _pending.mul(refBonusBP) */\n      tag_410\n        /* \"TEXOToken.sol\":50572:50582  refBonusBP */\n      sload(0x0a)\n        /* \"TEXOToken.sol\":50559:50567  _pending */\n      dup7\n        /* \"TEXOToken.sol\":50559:50571  _pending.mul */\n      tag_178\n      swap1\n        /* \"TEXOToken.sol\":50559:50583  _pending.mul(refBonusBP) */\n      swap2\n      swap1\n      0xffffffff\n      and\n      jump\t// in\n    tag_410:\n        /* \"TEXOToken.sol\":50559:50587  _pending.mul(refBonusBP).div */\n      tag_179\n      swap1\n        /* \"TEXOToken.sol\":50559:50594  _pending.mul(refBonusBP).div(10000) */\n      swap2\n      swap1\n      0xffffffff\n      and\n      jump\t// in\n    tag_409:\n        /* \"TEXOToken.sol\":50534:50594  uint256 refBonusEarned = _pending.mul(refBonusBP).div(10000) */\n      swap1\n      pop\n        /* \"TEXOToken.sol\":50608:50612  tEXO */\n      0x02\n      0x00\n      swap1\n      sload\n      swap1\n      0x0100\n      exp\n      swap1\n      div\n      0xffffffffffffffffffffffffffffffffffffffff\n      and\n        /* \"TEXOToken.sol\":50608:50617  tEXO.mint */\n      0xffffffffffffffffffffffffffffffffffffffff\n      and\n      0x40c10f19\n        /* \"TEXOToken.sol\":50618:50626  referrer */\n      dup4\n        /* \"TEXOToken.sol\":50628:50642  refBonusEarned */\n      dup4\n        /* \"TEXOToken.sol\":50608:50643  tEXO.mint(referrer, refBonusEarned) */\n      mload(0x40)\n      dup4\n      0xffffffff\n      and\n      0xe0\n      shl\n      dup2\n      mstore\n      0x04\n      add\n      dup1\n      dup4\n      0xffffffffffffffffffffffffffffffffffffffff\n      and\n      dup2\n      mstore\n      0x20\n      add\n      dup3\n      dup2\n      mstore\n      0x20\n      add\n      swap3\n      pop\n      pop\n      pop\n      0x00\n      mload(0x40)\n      dup1\n      dup4\n      sub\n      dup2\n      0x00\n      dup8\n      dup1\n      extcodesize\n      iszero\n      dup1\n      iszero\n      tag_411\n      jumpi\n      0x00\n      dup1\n      revert\n    tag_411:\n      pop\n      gas\n      call\n      iszero\n      dup1\n      iszero\n      tag_413\n      jumpi\n      returndatasize\n      0x00\n      dup1\n      returndatacopy\n      revert(0x00, returndatasize)\n    tag_413:\n      pop\n      pop\n      pop\n      pop\n        /* \"TEXOToken.sol\":50682:50690  referrer */\n      dup2\n        /* \"TEXOToken.sol\":50662:50707  ReferralPaid(_user, referrer, refBonusEarned) */\n      0xffffffffffffffffffffffffffffffffffffffff\n      and\n        /* \"TEXOToken.sol\":50675:50680  _user */\n      dup5\n        /* \"TEXOToken.sol\":50662:50707  ReferralPaid(_user, referrer, refBonusEarned) */\n      0xffffffffffffffffffffffffffffffffffffffff\n      and\n      0x0a721ab4682ceb61c7e4d264ef879fc419a6d764b136e7d96ef54b2053c75673\n        /* \"TEXOToken.sol\":50692:50706  refBonusEarned */\n      dup4\n        /* \"TEXOToken.sol\":50662:50707  ReferralPaid(_user, referrer, refBonusEarned) */\n      mload(0x40)\n      dup1\n      dup3\n      dup2\n      mstore\n      0x20\n      add\n      swap2\n      pop\n      pop\n      mload(0x40)\n      dup1\n      swap2\n      sub\n      swap1\n      log3\n        /* \"TEXOToken.sol\":50453:50718  if (referrer != address(0) && referrer != _user && refBonusBP > 0) {... */\n      pop\n    tag_408:\n        /* \"TEXOToken.sol\":50323:50724  function payReferralCommission(address _user, uint256 _pending) internal {... */\n      pop\n      pop\n      pop\n      jump\t// out\n        /* \"TEXOToken.sol\":22677:22852  function safeTransfer(IBEP20 token, address to, uint256 value) internal {... */\n    tag_189:\n        /* \"TEXOToken.sol\":22759:22845  _callOptionalReturn(token, abi.encodeWithSelector(token.transfer.selector, to, value)) */\n      tag_415\n        /* \"TEXOToken.sol\":22779:22784  token */\n      dup4\n        /* \"TEXOToken.sol\":22809:22832  token.transfer.selector */\n      shl(0xe0, 0xa9059cbb)\n        /* \"TEXOToken.sol\":22834:22836  to */\n      dup5\n        /* \"TEXOToken.sol\":22838:22843  value */\n      dup5\n        /* \"TEXOToken.sol\":22786:22844  abi.encodeWithSelector(token.transfer.selector, to, value) */\n      add(0x24, mload(0x40))\n      dup1\n      dup4\n      0xffffffffffffffffffffffffffffffffffffffff\n      and\n      dup2\n      mstore\n      0x20\n      add\n      dup3\n      dup2\n      mstore\n      0x20\n      add\n      swap3\n      pop\n      pop\n      pop\n      mload(0x40)\n      0x20\n      dup2\n      dup4\n      sub\n      sub\n      dup2\n      mstore\n      swap1\n      0x40\n      mstore\n      swap1\n      not(0xffffffffffffffffffffffffffffffffffffffffffffffffffffffff)\n      and\n      0x20\n      dup3\n      add\n      dup1\n      mload\n      0xffffffffffffffffffffffffffffffffffffffffffffffffffffffff\n      dup4\n      dup2\n      dup4\n      and\n      or\n      dup4\n      mstore\n      pop\n      pop\n      pop\n      pop\n        /* \"TEXOToken.sol\":22759:22778  _callOptionalReturn */\n      tag_416\n        /* \"TEXOToken.sol\":22759:22845  _callOptionalReturn(token, abi.encodeWithSelector(token.transfer.selector, to, value)) */\n      jump\t// in\n    tag_415:\n        /* \"TEXOToken.sol\":22677:22852  function safeTransfer(IBEP20 token, address to, uint256 value) internal {... */\n      pop\n      pop\n      pop\n      jump\t// out\n        /* \"TEXOToken.sol\":908:1084  function add(uint256 a, uint256 b) internal pure returns (uint256) {... */\n    tag_216:\n        /* \"TEXOToken.sol\":966:973  uint256 */\n      0x00\n        /* \"TEXOToken.sol\":985:994  uint256 c */\n      dup1\n        /* \"TEXOToken.sol\":1001:1002  b */\n      dup3\n        /* \"TEXOToken.sol\":997:998  a */\n      dup5\n        /* \"TEXOToken.sol\":997:1002  a + b */\n      add\n        /* \"TEXOToken.sol\":985:1002  uint256 c = a + b */\n      swap1\n      pop\n        /* \"TEXOToken.sol\":1025:1026  a */\n      dup4\n        /* \"TEXOToken.sol\":1020:1021  c */\n      dup2\n        /* \"TEXOToken.sol\":1020:1026  c >= a */\n      lt\n      iszero\n        /* \"TEXOToken.sol\":1012:1058  require(c >= a, \"SafeMath: addition overflow\") */\n      tag_418\n      jumpi\n      mload(0x40)\n      0x08c379a000000000000000000000000000000000000000000000000000000000\n      dup2\n      mstore\n      0x04\n      add\n      dup1\n      dup1\n      0x20\n      add\n      dup3\n      dup2\n      sub\n      dup3\n      mstore\n      0x1b\n      dup2\n      mstore\n      0x20\n      add\n      dup1\n      0x536166654d6174683a206164646974696f6e206f766572666c6f770000000000\n      dup2\n      mstore\n      pop\n      0x20\n      add\n      swap2\n      pop\n      pop\n      mload(0x40)\n      dup1\n      swap2\n      sub\n      swap1\n      revert\n    tag_418:\n        /* \"TEXOToken.sol\":1076:1077  c */\n      dup1\n        /* \"TEXOToken.sol\":1069:1077  return c */\n      swap2\n      pop\n      pop\n        /* \"TEXOToken.sol\":908:1084  function add(uint256 a, uint256 b) internal pure returns (uint256) {... */\n      swap3\n      swap2\n      pop\n      pop\n      jump\t// out\n        /* \"TEXOToken.sol\":5963:6059  function _msgSender() internal view returns (address payable) {... */\n    tag_230:\n        /* \"TEXOToken.sol\":6008:6023  address payable */\n      0x00\n        /* \"TEXOToken.sol\":6042:6052  msg.sender */\n      caller\n        /* \"TEXOToken.sol\":6035:6052  return msg.sender */\n      swap1\n      pop\n        /* \"TEXOToken.sol\":5963:6059  function _msgSender() internal view returns (address payable) {... */\n      swap1\n      jump\t// out\n        /* \"TEXOToken.sol\":49751:50092  function setReferral(address _user, address _referrer) internal {... */\n    tag_278:\n        /* \"TEXOToken.sol\":49850:49859  _referrer */\n      dup1\n        /* \"TEXOToken.sol\":49829:49860  _referrer == address(_referrer) */\n      0xffffffffffffffffffffffffffffffffffffffff\n      and\n        /* \"TEXOToken.sol\":49829:49838  _referrer */\n      dup2\n        /* \"TEXOToken.sol\":49829:49860  _referrer == address(_referrer) */\n      0xffffffffffffffffffffffffffffffffffffffff\n      and\n      eq\n        /* \"TEXOToken.sol\":49829:49894  _referrer == address(_referrer) && referrers[_user] == address(0) */\n      dup1\n      iszero\n      tag_421\n      jumpi\n      pop\n        /* \"TEXOToken.sol\":49892:49893  0 */\n      0x00\n        /* \"TEXOToken.sol\":49864:49894  referrers[_user] == address(0) */\n      0xffffffffffffffffffffffffffffffffffffffff\n      and\n        /* \"TEXOToken.sol\":49864:49873  referrers */\n      0x0b\n        /* \"TEXOToken.sol\":49864:49880  referrers[_user] */\n      0x00\n        /* \"TEXOToken.sol\":49874:49879  _user */\n      dup5\n        /* \"TEXOToken.sol\":49864:49880  referrers[_user] */\n      0xffffffffffffffffffffffffffffffffffffffff\n      and\n      0xffffffffffffffffffffffffffffffffffffffff\n      and\n      dup2\n      mstore\n      0x20\n      add\n      swap1\n      dup2\n      mstore\n      0x20\n      add\n      0x00\n      keccak256\n      0x00\n      swap1\n      sload\n      swap1\n      0x0100\n      exp\n      swap1\n      div\n      0xffffffffffffffffffffffffffffffffffffffff\n      and\n        /* \"TEXOToken.sol\":49864:49894  referrers[_user] == address(0) */\n      0xffffffffffffffffffffffffffffffffffffffff\n      and\n      eq\n        /* \"TEXOToken.sol\":49829:49894  _referrer == address(_referrer) && referrers[_user] == address(0) */\n    tag_421:\n        /* \"TEXOToken.sol\":49829:49921  _referrer == address(_referrer) && referrers[_user] == address(0) && _referrer != address(0) */\n      dup1\n      iszero\n      tag_422\n      jumpi\n      pop\n        /* \"TEXOToken.sol\":49919:49920  0 */\n      0x00\n        /* \"TEXOToken.sol\":49898:49921  _referrer != address(0) */\n      0xffffffffffffffffffffffffffffffffffffffff\n      and\n        /* \"TEXOToken.sol\":49898:49907  _referrer */\n      dup2\n        /* \"TEXOToken.sol\":49898:49921  _referrer != address(0) */\n      0xffffffffffffffffffffffffffffffffffffffff\n      and\n      eq\n      iszero\n        /* \"TEXOToken.sol\":49829:49921  _referrer == address(_referrer) && referrers[_user] == address(0) && _referrer != address(0) */\n    tag_422:\n        /* \"TEXOToken.sol\":49829:49943  _referrer == address(_referrer) && referrers[_user] == address(0) && _referrer != address(0) && _referrer != _user */\n      dup1\n      iszero\n      tag_423\n      jumpi\n      pop\n        /* \"TEXOToken.sol\":49938:49943  _user */\n      dup2\n        /* \"TEXOToken.sol\":49925:49943  _referrer != _user */\n      0xffffffffffffffffffffffffffffffffffffffff\n      and\n        /* \"TEXOToken.sol\":49925:49934  _referrer */\n      dup2\n        /* \"TEXOToken.sol\":49925:49943  _referrer != _user */\n      0xffffffffffffffffffffffffffffffffffffffff\n      and\n      eq\n      iszero\n        /* \"TEXOToken.sol\":49829:49943  _referrer == address(_referrer) && referrers[_user] == address(0) && _referrer != address(0) && _referrer != _user */\n    tag_423:\n        /* \"TEXOToken.sol\":49825:50086  if (_referrer == address(_referrer) && referrers[_user] == address(0) && _referrer != address(0) && _referrer != _user) {... */\n      iszero\n      tag_424\n      jumpi\n        /* \"TEXOToken.sol\":49978:49987  _referrer */\n      dup1\n        /* \"TEXOToken.sol\":49959:49968  referrers */\n      0x0b\n        /* \"TEXOToken.sol\":49959:49975  referrers[_user] */\n      0x00\n        /* \"TEXOToken.sol\":49969:49974  _user */\n      dup5\n        /* \"TEXOToken.sol\":49959:49975  referrers[_user] */\n      0xffffffffffffffffffffffffffffffffffffffff\n      and\n      0xffffffffffffffffffffffffffffffffffffffff\n      and\n      dup2\n      mstore\n      0x20\n      add\n      swap1\n      dup2\n      mstore\n      0x20\n      add\n      0x00\n      keccak256\n      0x00\n        /* \"TEXOToken.sol\":49959:49987  referrers[_user] = _referrer */\n      0x0100\n      exp\n      dup2\n      sload\n      dup2\n      0xffffffffffffffffffffffffffffffffffffffff\n      mul\n      not\n      and\n      swap1\n      dup4\n      0xffffffffffffffffffffffffffffffffffffffff\n      and\n      mul\n      or\n      swap1\n      sstore\n      pop\n        /* \"TEXOToken.sol\":50029:50030  1 */\n      0x01\n        /* \"TEXOToken.sol\":50001:50014  referredCount */\n      0x0c\n        /* \"TEXOToken.sol\":50001:50025  referredCount[_referrer] */\n      0x00\n        /* \"TEXOToken.sol\":50015:50024  _referrer */\n      dup4\n        /* \"TEXOToken.sol\":50001:50025  referredCount[_referrer] */\n      0xffffffffffffffffffffffffffffffffffffffff\n      and\n      0xffffffffffffffffffffffffffffffffffffffff\n      and\n      dup2\n      mstore\n      0x20\n      add\n      swap1\n      dup2\n      mstore\n      0x20\n      add\n      0x00\n      keccak256\n      0x00\n        /* \"TEXOToken.sol\":50001:50030  referredCount[_referrer] += 1 */\n      dup3\n      dup3\n      sload\n      add\n      swap3\n      pop\n      pop\n      dup2\n      swap1\n      sstore\n      pop\n        /* \"TEXOToken.sol\":50065:50074  _referrer */\n      dup1\n        /* \"TEXOToken.sol\":50049:50075  Referral(_user, _referrer) */\n      0xffffffffffffffffffffffffffffffffffffffff\n      and\n        /* \"TEXOToken.sol\":50058:50063  _user */\n      dup3\n        /* \"TEXOToken.sol\":50049:50075  Referral(_user, _referrer) */\n      0xffffffffffffffffffffffffffffffffffffffff\n      and\n      0x9d05414fb79fac216c15606de5cc06664e91a254e4d5f57664d5f1beaf7fb7ef\n      mload(0x40)\n      mload(0x40)\n      dup1\n      swap2\n      sub\n      swap1\n      log3\n        /* \"TEXOToken.sol\":49825:50086  if (_referrer == address(_referrer) && referrers[_user] == address(0) && _referrer != address(0) && _referrer != _user) {... */\n    tag_424:\n        /* \"TEXOToken.sol\":49751:50092  function setReferral(address _user, address _referrer) internal {... */\n      pop\n      pop\n      jump\t// out\n        /* \"TEXOToken.sol\":22858:23061  function safeTransferFrom(IBEP20 token, address from, address to, uint256 value) internal {... */\n    tag_280:\n        /* \"TEXOToken.sol\":22958:23054  _callOptionalReturn(token, abi.encodeWithSelector(token.transferFrom.selector, from, to, value)) */\n      tag_426\n        /* \"TEXOToken.sol\":22978:22983  token */\n      dup5\n        /* \"TEXOToken.sol\":23008:23035  token.transferFrom.selector */\n      shl(0xe0, 0x23b872dd)\n        /* \"TEXOToken.sol\":23037:23041  from */\n      dup6\n        /* \"TEXOToken.sol\":23043:23045  to */\n      dup6\n        /* \"TEXOToken.sol\":23047:23052  value */\n      dup6\n        /* \"TEXOToken.sol\":22985:23053  abi.encodeWithSelector(token.transferFrom.selector, from, to, value) */\n      add(0x24, mload(0x40))\n      dup1\n      dup5\n      0xffffffffffffffffffffffffffffffffffffffff\n      and\n      dup2\n      mstore\n      0x20\n      add\n      dup4\n      0xffffffffffffffffffffffffffffffffffffffff\n      and\n      dup2\n      mstore\n      0x20\n      add\n      dup3\n      dup2\n      mstore\n      0x20\n      add\n      swap4\n      pop\n      pop\n      pop\n      pop\n      mload(0x40)\n      0x20\n      dup2\n      dup4\n      sub\n      sub\n      dup2\n      mstore\n      swap1\n      0x40\n      mstore\n      swap1\n      not(0xffffffffffffffffffffffffffffffffffffffffffffffffffffffff)\n      and\n      0x20\n      dup3\n      add\n      dup1\n      mload\n      0xffffffffffffffffffffffffffffffffffffffffffffffffffffffff\n      dup4\n      dup2\n      dup4\n      and\n      or\n      dup4\n      mstore\n      pop\n      pop\n      pop\n      pop\n        /* \"TEXOToken.sol\":22958:22977  _callOptionalReturn */\n      tag_416\n        /* \"TEXOToken.sol\":22958:23054  _callOptionalReturn(token, abi.encodeWithSelector(token.transferFrom.selector, from, to, value)) */\n      jump\t// in\n    tag_426:\n        /* \"TEXOToken.sol\":22858:23061  function safeTransferFrom(IBEP20 token, address from, address to, uint256 value) internal {... */\n      pop\n      pop\n      pop\n      pop\n      jump\t// out\n        /* \"TEXOToken.sol\":12574:12799  function _transferOwnership(address newOwner) internal {... */\n    tag_377:\n        /* \"TEXOToken.sol\":12667:12668  0 */\n      0x00\n        /* \"TEXOToken.sol\":12647:12669  newOwner != address(0) */\n      0xffffffffffffffffffffffffffffffffffffffff\n      and\n        /* \"TEXOToken.sol\":12647:12655  newOwner */\n      dup2\n        /* \"TEXOToken.sol\":12647:12669  newOwner != address(0) */\n      0xffffffffffffffffffffffffffffffffffffffff\n      and\n      eq\n      iszero\n        /* \"TEXOToken.sol\":12639:12712  require(newOwner != address(0), \"Ownable: new owner is the zero address\") */\n      tag_428\n      jumpi\n      mload(0x40)\n      0x08c379a000000000000000000000000000000000000000000000000000000000\n      dup2\n      mstore\n      0x04\n      add\n      dup1\n      dup1\n      0x20\n      add\n      dup3\n      dup2\n      sub\n      dup3\n      mstore\n      0x26\n      dup2\n      mstore\n      0x20\n      add\n      dup1\n      data_245f15ff17f551913a7a18385165551503906a406f905ac1c2437281a7cd0cfe\n      0x26\n      swap2\n      codecopy\n      0x40\n      add\n      swap2\n      pop\n      pop\n      mload(0x40)\n      dup1\n      swap2\n      sub\n      swap1\n      revert\n    tag_428:\n        /* \"TEXOToken.sol\":12756:12764  newOwner */\n      dup1\n        /* \"TEXOToken.sol\":12727:12765  OwnershipTransferred(_owner, newOwner) */\n      0xffffffffffffffffffffffffffffffffffffffff\n      and\n        /* \"TEXOToken.sol\":12748:12754  _owner */\n      0x00\n      dup1\n      sload\n      swap1\n      0x0100\n      exp\n      swap1\n      div\n      0xffffffffffffffffffffffffffffffffffffffff\n      and\n        /* \"TEXOToken.sol\":12727:12765  OwnershipTransferred(_owner, newOwner) */\n      0xffffffffffffffffffffffffffffffffffffffff\n      and\n      0x8be0079c531659141344cd1fd0a4f28419497f9722a3daafe3b4186f6b6457e0\n      mload(0x40)\n      mload(0x40)\n      dup1\n      swap2\n      sub\n      swap1\n      log3\n        /* \"TEXOToken.sol\":12784:12792  newOwner */\n      dup1\n        /* \"TEXOToken.sol\":12775:12781  _owner */\n      0x00\n      dup1\n        /* \"TEXOToken.sol\":12775:12792  _owner = newOwner */\n      0x0100\n      exp\n      dup2\n      sload\n      dup2\n      0xffffffffffffffffffffffffffffffffffffffff\n      mul\n      not\n      and\n      swap1\n      dup4\n      0xffffffffffffffffffffffffffffffffffffffff\n      and\n      mul\n      or\n      swap1\n      sstore\n      pop\n        /* \"TEXOToken.sol\":12574:12799  function _transferOwnership(address newOwner) internal {... */\n      pop\n      jump\t// out\n        /* \"TEXOToken.sol\":3712:4050  function div(uint256 a, uint256 b, string memory errorMessage) internal pure returns (uint256) {... */\n    tag_384:\n        /* \"TEXOToken.sol\":3798:3805  uint256 */\n      0x00\n        /* \"TEXOToken.sol\":3895:3896  0 */\n      dup1\n        /* \"TEXOToken.sol\":3891:3892  b */\n      dup4\n        /* \"TEXOToken.sol\":3891:3896  b > 0 */\n      gt\n        /* \"TEXOToken.sol\":3898:3910  errorMessage */\n      dup3\n        /* \"TEXOToken.sol\":3883:3911  require(b > 0, errorMessage) */\n      swap1\n      tag_430\n      jumpi\n      mload(0x40)\n      0x08c379a000000000000000000000000000000000000000000000000000000000\n      dup2\n      mstore\n      0x04\n      add\n      dup1\n      dup1\n      0x20\n      add\n      dup3\n      dup2\n      sub\n      dup3\n      mstore\n      dup4\n      dup2\n      dup2\n      mload\n      dup2\n      mstore\n      0x20\n      add\n      swap2\n      pop\n      dup1\n      mload\n      swap1\n      0x20\n      add\n      swap1\n      dup1\n      dup4\n      dup4\n      0x00\n    tag_431:\n      dup4\n      dup2\n      lt\n      iszero\n      tag_433\n      jumpi\n      dup1\n      dup3\n      add\n      mload\n      dup2\n      dup5\n      add\n      mstore\n      0x20\n      dup2\n      add\n      swap1\n      pop\n      jump(tag_431)\n    tag_433:\n      pop\n      pop\n      pop\n      pop\n      swap1\n      pop\n      swap1\n      dup2\n      add\n      swap1\n      0x1f\n      and\n      dup1\n      iszero\n      tag_434\n      jumpi\n      dup1\n      dup3\n      sub\n      dup1\n      mload\n      0x01\n      dup4\n      0x20\n      sub\n      0x0100\n      exp\n      sub\n      not\n      and\n      dup2\n      mstore\n      0x20\n      add\n      swap2\n      pop\n    tag_434:\n      pop\n      swap3\n      pop\n      pop\n      pop\n      mload(0x40)\n      dup1\n      swap2\n      sub\n      swap1\n      revert\n    tag_430:\n      pop\n        /* \"TEXOToken.sol\":3921:3930  uint256 c */\n      0x00\n        /* \"TEXOToken.sol\":3937:3938  b */\n      dup4\n        /* \"TEXOToken.sol\":3933:3934  a */\n      dup6\n        /* \"TEXOToken.sol\":3933:3938  a / b */\n      dup2\n      tag_435\n      jumpi\n      invalid\n    tag_435:\n      div\n        /* \"TEXOToken.sol\":3921:3938  uint256 c = a / b */\n      swap1\n      pop\n        /* \"TEXOToken.sol\":4042:4043  c */\n      dup1\n        /* \"TEXOToken.sol\":4035:4043  return c */\n      swap2\n      pop\n      pop\n        /* \"TEXOToken.sol\":3712:4050  function div(uint256 a, uint256 b, string memory errorMessage) internal pure returns (uint256) {... */\n      swap4\n      swap3\n      pop\n      pop\n      pop\n      jump\t// out\n        /* \"TEXOToken.sol\":1766:1953  function sub(uint256 a, uint256 b, string memory errorMessage) internal pure returns (uint256) {... */\n    tag_387:\n        /* \"TEXOToken.sol\":1852:1859  uint256 */\n      0x00\n        /* \"TEXOToken.sol\":1884:1885  a */\n      dup4\n        /* \"TEXOToken.sol\":1879:1880  b */\n      dup4\n        /* \"TEXOToken.sol\":1879:1885  b <= a */\n      gt\n      iszero\n        /* \"TEXOToken.sol\":1887:1899  errorMessage */\n      dup3\n        /* \"TEXOToken.sol\":1871:1900  require(b <= a, errorMessage) */\n      swap1\n      tag_437\n      jumpi\n      mload(0x40)\n      0x08c379a000000000000000000000000000000000000000000000000000000000\n      dup2\n      mstore\n      0x04\n      add\n      dup1\n      dup1\n      0x20\n      add\n      dup3\n      dup2\n      sub\n      dup3\n      mstore\n      dup4\n      dup2\n      dup2\n      mload\n      dup2\n      mstore\n      0x20\n      add\n      swap2\n      pop\n      dup1\n      mload\n      swap1\n      0x20\n      add\n      swap1\n      dup1\n      dup4\n      dup4\n      0x00\n    tag_438:\n      dup4\n      dup2\n      lt\n      iszero\n      tag_440\n      jumpi\n      dup1\n      dup3\n      add\n      mload\n      dup2\n      dup5\n      add\n      mstore\n      0x20\n      dup2\n      add\n      swap1\n      pop\n      jump(tag_438)\n    tag_440:\n      pop\n      pop\n      pop\n      pop\n      swap1\n      pop\n      swap1\n      dup2\n      add\n      swap1\n      0x1f\n      and\n      dup1\n      iszero\n      tag_441\n      jumpi\n      dup1\n      dup3\n      sub\n      dup1\n      mload\n      0x01\n      dup4\n      0x20\n      sub\n      0x0100\n      exp\n      sub\n      not\n      and\n      dup2\n      mstore\n      0x20\n      add\n      swap2\n      pop\n    tag_441:\n      pop\n      swap3\n      pop\n      pop\n      pop\n      mload(0x40)\n      dup1\n      swap2\n      sub\n      swap1\n      revert\n    tag_437:\n      pop\n        /* \"TEXOToken.sol\":1910:1919  uint256 c */\n      0x00\n        /* \"TEXOToken.sol\":1926:1927  b */\n      dup4\n        /* \"TEXOToken.sol\":1922:1923  a */\n      dup6\n        /* \"TEXOToken.sol\":1922:1927  a - b */\n      sub\n        /* \"TEXOToken.sol\":1910:1927  uint256 c = a - b */\n      swap1\n      pop\n        /* \"TEXOToken.sol\":1945:1946  c */\n      dup1\n        /* \"TEXOToken.sol\":1938:1946  return c */\n      swap2\n      pop\n      pop\n        /* \"TEXOToken.sol\":1766:1953  function sub(uint256 a, uint256 b, string memory errorMessage) internal pure returns (uint256) {... */\n      swap4\n      swap3\n      pop\n      pop\n      pop\n      jump\t// out\n        /* \"TEXOToken.sol\":24940:25691  function _callOptionalReturn(IBEP20 token, bytes memory data) private {... */\n    tag_416:\n        /* \"TEXOToken.sol\":25359:25382  bytes memory returndata */\n      0x60\n        /* \"TEXOToken.sol\":25385:25454  address(token).functionCall(data, \"SafeBEP20: low-level call failed\") */\n      tag_443\n        /* \"TEXOToken.sol\":25413:25417  data */\n      dup3\n        /* \"TEXOToken.sol\":25385:25454  address(token).functionCall(data, \"SafeBEP20: low-level call failed\") */\n      mload(0x40)\n      dup1\n      0x40\n      add\n      0x40\n      mstore\n      dup1\n      0x20\n      dup2\n      mstore\n      0x20\n      add\n      0x5361666542455032303a206c6f772d6c6576656c2063616c6c206661696c6564\n      dup2\n      mstore\n      pop\n        /* \"TEXOToken.sol\":25393:25398  token */\n      dup6\n        /* \"TEXOToken.sol\":25385:25412  address(token).functionCall */\n      0xffffffffffffffffffffffffffffffffffffffff\n      and\n      tag_444\n      swap1\n        /* \"TEXOToken.sol\":25385:25454  address(token).functionCall(data, \"SafeBEP20: low-level call failed\") */\n      swap3\n      swap2\n      swap1\n      0xffffffff\n      and\n      jump\t// in\n    tag_443:\n        /* \"TEXOToken.sol\":25359:25454  bytes memory returndata = address(token).functionCall(data, \"SafeBEP20: low-level call failed\") */\n      swap1\n      pop\n        /* \"TEXOToken.sol\":25488:25489  0 */\n      0x00\n        /* \"TEXOToken.sol\":25468:25478  returndata */\n      dup2\n        /* \"TEXOToken.sol\":25468:25485  returndata.length */\n      mload\n        /* \"TEXOToken.sol\":25468:25489  returndata.length > 0 */\n      gt\n        /* \"TEXOToken.sol\":25464:25685  if (returndata.length > 0) { // Return data is optional... */\n      iszero\n      tag_445\n      jumpi\n        /* \"TEXOToken.sol\":25608:25618  returndata */\n      dup1\n        /* \"TEXOToken.sol\":25597:25627  abi.decode(returndata, (bool)) */\n      dup1\n      0x20\n      add\n      swap1\n      mload\n      0x20\n      dup2\n      lt\n      iszero\n      tag_446\n      jumpi\n      0x00\n      dup1\n      revert\n    tag_446:\n      dup2\n      add\n      swap1\n      dup1\n      dup1\n      mload\n      swap1\n      0x20\n      add\n      swap1\n      swap3\n      swap2\n      swap1\n      pop\n      pop\n      pop\n        /* \"TEXOToken.sol\":25589:25674  require(abi.decode(returndata, (bool)), \"SafeBEP20: BEP20 operation did not succeed\") */\n      tag_447\n      jumpi\n      mload(0x40)\n      0x08c379a000000000000000000000000000000000000000000000000000000000\n      dup2\n      mstore\n      0x04\n      add\n      dup1\n      dup1\n      0x20\n      add\n      dup3\n      dup2\n      sub\n      dup3\n      mstore\n      0x2a\n      dup2\n      mstore\n      0x20\n      add\n      dup1\n      data_21c3364d55537bf20eb8f05374e9f53f47299e1883c412f1f1135f398f2c2082\n      0x2a\n      swap2\n      codecopy\n      0x40\n      add\n      swap2\n      pop\n      pop\n      mload(0x40)\n      dup1\n      swap2\n      sub\n      swap1\n      revert\n    tag_447:\n        /* \"TEXOToken.sol\":25464:25685  if (returndata.length > 0) { // Return data is optional... */\n    tag_445:\n        /* \"TEXOToken.sol\":24940:25691  function _callOptionalReturn(IBEP20 token, bytes memory data) private {... */\n      pop\n      pop\n      pop\n      jump\t// out\n        /* \"TEXOToken.sol\":16320:16513  function functionCall(address target, bytes memory data, string memory errorMessage) internal returns (bytes memory) {... */\n    tag_444:\n        /* \"TEXOToken.sol\":16423:16435  bytes memory */\n      0x60\n        /* \"TEXOToken.sol\":16454:16506  functionCallWithValue(target, data, 0, errorMessage) */\n      tag_449\n        /* \"TEXOToken.sol\":16476:16482  target */\n      dup5\n        /* \"TEXOToken.sol\":16484:16488  data */\n      dup5\n        /* \"TEXOToken.sol\":16490:16491  0 */\n      0x00\n        /* \"TEXOToken.sol\":16493:16505  errorMessage */\n      dup6\n        /* \"TEXOToken.sol\":16454:16475  functionCallWithValue */\n      tag_450\n        /* \"TEXOToken.sol\":16454:16506  functionCallWithValue(target, data, 0, errorMessage) */\n      jump\t// in\n    tag_449:\n        /* \"TEXOToken.sol\":16447:16506  return functionCallWithValue(target, data, 0, errorMessage) */\n      swap1\n      pop\n        /* \"TEXOToken.sol\":16320:16513  function functionCall(address target, bytes memory data, string memory errorMessage) internal returns (bytes memory) {... */\n      swap4\n      swap3\n      pop\n      pop\n      pop\n      jump\t// out\n        /* \"TEXOToken.sol\":17347:17870  function functionCallWithValue(address target, bytes memory data, uint256 value, string memory errorMessage) internal returns (bytes memory) {... */\n    tag_450:\n        /* \"TEXOToken.sol\":17474:17486  bytes memory */\n      0x60\n        /* \"TEXOToken.sol\":17531:17536  value */\n      dup3\n        /* \"TEXOToken.sol\":17506:17527  address(this).balance */\n      selfbalance\n        /* \"TEXOToken.sol\":17506:17536  address(this).balance >= value */\n      lt\n      iszero\n        /* \"TEXOToken.sol\":17498:17579  require(address(this).balance >= value, \"Address: insufficient balance for call\") */\n      tag_452\n      jumpi\n      mload(0x40)\n      0x08c379a000000000000000000000000000000000000000000000000000000000\n      dup2\n      mstore\n      0x04\n      add\n      dup1\n      dup1\n      0x20\n      add\n      dup3\n      dup2\n      sub\n      dup3\n      mstore\n      0x26\n      dup2\n      mstore\n      0x20\n      add\n      dup1\n      data_565f1a77334fc4792800921178c71e4521acffab18ff9e7885b49377ee80ab4c\n      0x26\n      swap2\n      codecopy\n      0x40\n      add\n      swap2\n      pop\n      pop\n      mload(0x40)\n      dup1\n      swap2\n      sub\n      swap1\n      revert\n    tag_452:\n        /* \"TEXOToken.sol\":17597:17615  isContract(target) */\n      tag_453\n        /* \"TEXOToken.sol\":17608:17614  target */\n      dup6\n        /* \"TEXOToken.sol\":17597:17607  isContract */\n      tag_454\n        /* \"TEXOToken.sol\":17597:17615  isContract(target) */\n      jump\t// in\n    tag_453:\n        /* \"TEXOToken.sol\":17589:17649  require(isContract(target), \"Address: call to non-contract\") */\n      tag_455\n      jumpi\n      mload(0x40)\n      0x08c379a000000000000000000000000000000000000000000000000000000000\n      dup2\n      mstore\n      0x04\n      add\n      dup1\n      dup1\n      0x20\n      add\n      dup3\n      dup2\n      sub\n      dup3\n      mstore\n      0x1d\n      dup2\n      mstore\n      0x20\n      add\n      dup1\n      0x416464726573733a2063616c6c20746f206e6f6e2d636f6e7472616374000000\n      dup2\n      mstore\n      pop\n      0x20\n      add\n      swap2\n      pop\n      pop\n      mload(0x40)\n      dup1\n      swap2\n      sub\n      swap1\n      revert\n    tag_455:\n        /* \"TEXOToken.sol\":17720:17732  bool success */\n      0x00\n        /* \"TEXOToken.sol\":17734:17757  bytes memory returndata */\n      0x60\n        /* \"TEXOToken.sol\":17761:17767  target */\n      dup7\n        /* \"TEXOToken.sol\":17761:17772  target.call */\n      0xffffffffffffffffffffffffffffffffffffffff\n      and\n        /* \"TEXOToken.sol\":17781:17786  value */\n      dup6\n        /* \"TEXOToken.sol\":17789:17793  data */\n      dup8\n        /* \"TEXOToken.sol\":17761:17794  target.call{ value: value }(data) */\n      mload(0x40)\n      dup1\n      dup3\n      dup1\n      mload\n      swap1\n      0x20\n      add\n      swap1\n      dup1\n      dup4\n      dup4\n    tag_456:\n      0x20\n      dup4\n      lt\n      tag_458\n      jumpi\n      dup1\n      mload\n      dup3\n      mstore\n      0x20\n      dup3\n      add\n      swap2\n      pop\n      0x20\n      dup2\n      add\n      swap1\n      pop\n      0x20\n      dup4\n      sub\n      swap3\n      pop\n      jump(tag_456)\n    tag_458:\n      0x01\n      dup4\n      0x20\n      sub\n      0x0100\n      exp\n      sub\n      dup1\n      not\n      dup3\n      mload\n      and\n      dup2\n      dup5\n      mload\n      and\n      dup1\n      dup3\n      or\n      dup6\n      mstore\n      pop\n      pop\n      pop\n      pop\n      pop\n      pop\n      swap1\n      pop\n      add\n      swap2\n      pop\n      pop\n      0x00\n      mload(0x40)\n      dup1\n      dup4\n      sub\n      dup2\n      dup6\n      dup8\n      gas\n      call\n      swap3\n      pop\n      pop\n      pop\n      returndatasize\n      dup1\n      0x00\n      dup2\n      eq\n      tag_461\n      jumpi\n      mload(0x40)\n      swap2\n      pop\n      and(add(returndatasize, 0x3f), not(0x1f))\n      dup3\n      add\n      0x40\n      mstore\n      returndatasize\n      dup3\n      mstore\n      returndatasize\n      0x00\n      0x20\n      dup5\n      add\n      returndatacopy\n      jump(tag_460)\n    tag_461:\n      0x60\n      swap2\n      pop\n    tag_460:\n      pop\n        /* \"TEXOToken.sol\":17719:17794  (bool success, bytes memory returndata) = target.call{ value: value }(data) */\n      swap2\n      pop\n      swap2\n      pop\n        /* \"TEXOToken.sol\":17811:17863  _verifyCallResult(success, returndata, errorMessage) */\n      tag_462\n        /* \"TEXOToken.sol\":17829:17836  success */\n      dup3\n        /* \"TEXOToken.sol\":17838:17848  returndata */\n      dup3\n        /* \"TEXOToken.sol\":17850:17862  errorMessage */\n      dup7\n        /* \"TEXOToken.sol\":17811:17828  _verifyCallResult */\n      tag_463\n        /* \"TEXOToken.sol\":17811:17863  _verifyCallResult(success, returndata, errorMessage) */\n      jump\t// in\n    tag_462:\n        /* \"TEXOToken.sol\":17804:17863  return _verifyCallResult(success, returndata, errorMessage) */\n      swap3\n      pop\n      pop\n      pop\n        /* \"TEXOToken.sol\":17347:17870  function functionCallWithValue(address target, bytes memory data, uint256 value, string memory errorMessage) internal returns (bytes memory) {... */\n      swap5\n      swap4\n      pop\n      pop\n      pop\n      pop\n      jump\t// out\n        /* \"TEXOToken.sol\":13463:13876  function isContract(address account) internal view returns (bool) {... */\n    tag_454:\n        /* \"TEXOToken.sol\":13523:13527  bool */\n      0x00\n        /* \"TEXOToken.sol\":13726:13738  uint256 size */\n      dup1\n        /* \"TEXOToken.sol\":13835:13842  account */\n      dup3\n        /* \"TEXOToken.sol\":13823:13843  extcodesize(account) */\n      extcodesize\n        /* \"TEXOToken.sol\":13815:13843  size := extcodesize(account) */\n      swap1\n      pop\n        /* \"TEXOToken.sol\":13868:13869  0 */\n      0x00\n        /* \"TEXOToken.sol\":13861:13865  size */\n      dup2\n        /* \"TEXOToken.sol\":13861:13869  size > 0 */\n      gt\n        /* \"TEXOToken.sol\":13854:13869  return size > 0 */\n      swap2\n      pop\n      pop\n        /* \"TEXOToken.sol\":13463:13876  function isContract(address account) internal view returns (bool) {... */\n      swap2\n      swap1\n      pop\n      jump\t// out\n        /* \"TEXOToken.sol\":18850:19575  function _verifyCallResult(bool success, bytes memory returndata, string memory errorMessage) private pure returns(bytes memory) {... */\n    tag_463:\n        /* \"TEXOToken.sol\":18965:18977  bytes memory */\n      0x60\n        /* \"TEXOToken.sol\":18993:19000  success */\n      dup4\n        /* \"TEXOToken.sol\":18989:19569  if (success) {... */\n      iszero\n      tag_466\n      jumpi\n        /* \"TEXOToken.sol\":19023:19033  returndata */\n      dup3\n        /* \"TEXOToken.sol\":19016:19033  return returndata */\n      swap1\n      pop\n      jump(tag_465)\n        /* \"TEXOToken.sol\":18989:19569  if (success) {... */\n    tag_466:\n        /* \"TEXOToken.sol\":19154:19155  0 */\n      0x00\n        /* \"TEXOToken.sol\":19134:19144  returndata */\n      dup4\n        /* \"TEXOToken.sol\":19134:19151  returndata.length */\n      mload\n        /* \"TEXOToken.sol\":19134:19155  returndata.length > 0 */\n      gt\n        /* \"TEXOToken.sol\":19130:19559  if (returndata.length > 0) {... */\n      iszero\n      tag_468\n      jumpi\n        /* \"TEXOToken.sol\":19392:19402  returndata */\n      dup3\n        /* \"TEXOToken.sol\":19386:19403  mload(returndata) */\n      mload\n        /* \"TEXOToken.sol\":19452:19467  returndata_size */\n      dup1\n        /* \"TEXOToken.sol\":19439:19449  returndata */\n      dup5\n        /* \"TEXOToken.sol\":19435:19437  32 */\n      0x20\n        /* \"TEXOToken.sol\":19431:19450  add(32, returndata) */\n      add\n        /* \"TEXOToken.sol\":19424:19468  revert(add(32, returndata), returndata_size) */\n      revert\n        /* \"TEXOToken.sol\":19341:19486  {... */\n    tag_468:\n        /* \"TEXOToken.sol\":19531:19543  errorMessage */\n      dup2\n        /* \"TEXOToken.sol\":19524:19544  revert(errorMessage) */\n      mload(0x40)\n      0x08c379a000000000000000000000000000000000000000000000000000000000\n      dup2\n      mstore\n      0x04\n      add\n      dup1\n      dup1\n      0x20\n      add\n      dup3\n      dup2\n      sub\n      dup3\n      mstore\n      dup4\n      dup2\n      dup2\n      mload\n      dup2\n      mstore\n      0x20\n      add\n      swap2\n      pop\n      dup1\n      mload\n      swap1\n      0x20\n      add\n      swap1\n      dup1\n      dup4\n      dup4\n      0x00\n    tag_470:\n      dup4\n      dup2\n      lt\n      iszero\n      tag_472\n      jumpi\n      dup1\n      dup3\n      add\n      mload\n      dup2\n      dup5\n      add\n      mstore\n      0x20\n      dup2\n      add\n      swap1\n      pop\n      jump(tag_470)\n    tag_472:\n      pop\n      pop\n      pop\n      pop\n      swap1\n      pop\n      swap1\n      dup2\n      add\n      swap1\n      0x1f\n      and\n      dup1\n      iszero\n      tag_473\n      jumpi\n      dup1\n      dup3\n      sub\n      dup1\n      mload\n      0x01\n      dup4\n      0x20\n      sub\n      0x0100\n      exp\n      sub\n      not\n      and\n      dup2\n      mstore\n      0x20\n      add\n      swap2\n      pop\n    tag_473:\n      pop\n      swap3\n      pop\n      pop\n      pop\n      mload(0x40)\n      dup1\n      swap2\n      sub\n      swap1\n      revert\n        /* \"TEXOToken.sol\":18850:19575  function _verifyCallResult(bool success, bytes memory returndata, string memory errorMessage) private pure returns(bytes memory) {... */\n    tag_465:\n      swap4\n      swap3\n      pop\n      pop\n      pop\n      jump\t// out\n    stop\n    data_0ecf01aeb804f0ae223eada9d16893a9009cdcbe208d348705dc613f9a9f5331 6164643a20696e76616c6964206465706f7369742066656520626173697320706f696e7473\n    data_20a6bce988e8b6ff5852ac398e27735d1d8155a9d79e532ec3c3da13f504a6a4 757064617465526566426f6e757350657263656e743a20696e76616c696420726566657272616c20626f6e757320626173697320706f696e7473\n    data_21c3364d55537bf20eb8f05374e9f53f47299e1883c412f1f1135f398f2c2082 5361666542455032303a204245503230206f7065726174696f6e20646964206e6f742073756363656564\n    data_245f15ff17f551913a7a18385165551503906a406f905ac1c2437281a7cd0cfe 4f776e61626c653a206e6577206f776e657220697320746865207a65726f2061646472657373\n    data_2a7e0e7f8bc79ffac7125960112eaea13c804910c2e58b65c50e00aacc68de0e 73616665506c756d5472616e736665723a207472616e73666572206661696c65642e\n    data_542d191555ea619dedb1489efd71948659c57b11c6c1a84d1c1ce6e7c8074aad 6465706f7369743a20496e76616c69642072656665727265722061646472657373\n    data_565f1a77334fc4792800921178c71e4521acffab18ff9e7885b49377ee80ab4c 416464726573733a20696e73756666696369656e742062616c616e636520666f722063616c6c\n    data_7841e7a9da54faeba8d906bcda7bb7169bd7b5ca3b81147f0804dbe5ff79d3f0 726564756365456d697373696f6e526174655769746844656661756c74526174653a2043616e206f6e6c792062652063616c6c6564206166746572206d696e696e6720737461727473\n    data_9113bb53c2876a3805b2c9242029423fc540a728243ce887ab24c82cf119fba3 536166654d6174683a206d756c7469706c69636174696f6e206f766572666c6f77\n    data_9353dfb5d58f0da66015bbcadafa0686e2e7b7226db2e603088e70c7012680cf 7365743a20696e76616c6964206465706f7369742066656520626173697320706f696e7473\n    data_9d1a761c817eae8410d2081a433553cad78dcf01ebb754f58addc464260ba484 757064617465526566426f6e757350657263656e743a2073616d6520626f6e757320627020736574\n    data_bf35de78f3e15a98c58afdc189c393a6a76029783bd8ecfd3a8b87b4a628fd85 676574506f6f6c4964466f724c70546f6b656e3a20646f206e6f74206578697374\n    data_d4e7846547be135afcf8a93a01a9053e9fa2c0d79f8d5448158422588210b6ab 726564756365456d697373696f6e526174655769746844656661756c74526174653a20456d697373696f6e207261746520686173207265616368656420746865206d696e696d756d207468726573686f6c64\n    data_fb61bfab522ff5726f96c4cebf8c9bc7c68d529a173450ab2ca49eebd2ecf0bb 726564756365456d697373696f6e526174655769746844656661756c74526174653a205065726d697373696f6e20666c6167206e6f74207475726e6564206f6e\n\n    auxdata: 0xa2646970667358221220a3e53457e5cbf260989a6e0580e651e0155394b1d41ea9559748f769cebe04d264736f6c634300060c0033\n}\n","bytecode":{"linkReferences":{},"object":"6080604052600060085560c8600a556000600f556000601060006101000a81548160ff0219169083151502179055503480156200003b57600080fd5b506040516200490a3803806200490a833981810160405260608110156200006157600080fd5b810190808051906020019092919080519060200190929190805190602001909291905050506000620000986200021f60201b60201c565b9050806000806101000a81548173ffffffffffffffffffffffffffffffffffffffff021916908373ffffffffffffffffffffffffffffffffffffffff1602179055508073ffffffffffffffffffffffffffffffffffffffff16600073ffffffffffffffffffffffffffffffffffffffff167f8be0079c531659141344cd1fd0a4f28419497f9722a3daafe3b4186f6b6457e060405160405180910390a3506001808190555082600260006101000a81548173ffffffffffffffffffffffffffffffffffffffff021916908373ffffffffffffffffffffffffffffffffffffffff16021790555081600360006101000a81548173ffffffffffffffffffffffffffffffffffffffff021916908373ffffffffffffffffffffffffffffffffffffffff16021790555080600560006101000a81548173ffffffffffffffffffffffffffffffffffffffff021916908373ffffffffffffffffffffffffffffffffffffffff1602179055506706f05b59d3b200006004819055504360098190555050505062000227565b600033905090565b6146d380620002376000396000f3fe608060405234801561001057600080fd5b50600436106102695760003560e01c80638036174711610151578063ae715d70116100c3578063d963842211610087578063d963842214610a81578063da09c72c14610ad3578063dfe3d2cd14610b07578063e2bbb15814610b69578063ea76bc2914610ba1578063f2fde38b14610bab57610269565b8063ae715d7014610973578063b7eee1f1146109a7578063cbd258b5146109c5578063d0d41fe114610a1f578063d4adafdf14610a6357610269565b80638dbdbe6d116101155780638dbdbe6d146107ec57806391bb809c1461084457806393f1a40b14610862578063955c9b93146108cb5780639bf62f7e146108ed578063a1bdb15e1461094557610269565b8063803617471461069057806384e82a33146106c05780638705fcd4146107285780638da5cb5b1461076c5780638dbb1e3a146107a057610269565b806348cd4cb1116101ea578063630b5ba1116101ae578063630b5ba1146105f457806364ed743b146105fe578063660f83401461062c57806366f685ea1461064a5780636a9a766014610668578063715018a61461068657610269565b806348cd4cb1146104ee5780634a3b68cc1461050c57806351eb05a61461057a5780635312ea8e146105a857806361e0c468146105d657610269565b80633b0f0f2f116102315780633b0f0f2f1461039c5780633f7b06d81461040a5780634127535814610462578063441a3e701461049657806347e3cda5146104ce57610269565b8063081e3eda1461026e5780631526fe271461028c57806317caf6f114610304578063190f39f0146103225780633a22df781461037a575b600080fd5b610276610bef565b6040518082815260200191505060405180910390f35b6102b8600480360360208110156102a257600080fd5b8101908080359060200190929190505050610bfc565b604051808673ffffffffffffffffffffffffffffffffffffffff1681526020018581526020018481526020018381526020018261ffff1681526020019550505050505060405180910390f35b61030c610c6d565b6040518082815260200191505060405180910390f35b6103646004803603602081101561033857600080fd5b81019080803573ffffffffffffffffffffffffffffffffffffffff169060200190929190505050610c73565b6040518082815260200191505060405180910390f35b610382610d65565b604051808261ffff16815260200191505060405180910390f35b6103de600480360360208110156103b257600080fd5b81019080803573ffffffffffffffffffffffffffffffffffffffff169060200190929190505050610d6b565b604051808273ffffffffffffffffffffffffffffffffffffffff16815260200191505060405180910390f35b61044c6004803603602081101561042057600080fd5b81019080803573ffffffffffffffffffffffffffffffffffffffff169060200190929190505050610dd4565b6040518082815260200191505060405180910390f35b61046a610dec565b604051808273ffffffffffffffffffffffffffffffffffffffff16815260200191505060405180910390f35b6104cc600480360360408110156104ac57600080fd5b810190808035906020019092919080359060200190929190505050610e12565b005b6104d6611102565b60405180821515815260200191505060405180910390f35b6104f6611115565b6040518082815260200191505060405180910390f35b61054e6004803603602081101561052257600080fd5b81019080803573ffffffffffffffffffffffffffffffffffffffff16906020019092919050505061111b565b604051808273ffffffffffffffffffffffffffffffffffffffff16815260200191505060405180910390f35b6105a66004803603602081101561059057600080fd5b810190808035906020019092919050505061114e565b005b6105d4600480360360208110156105be57600080fd5b81019080803590602001909291905050506114a9565b005b6105de611663565b6040518082815260200191505060405180910390f35b6105fc61166e565b005b61062a6004803603602081101561061457600080fd5b810190808035906020019092919050505061169b565b005b61063461186e565b6040518082815260200191505060405180910390f35b610652611874565b6040518082815260200191505060405180910390f35b61067061187a565b6040518082815260200191505060405180910390f35b61068e611880565b005b6106be600480360360208110156106a657600080fd5b81019080803515159060200190929190505050611a06565b005b610726600480360360808110156106d657600080fd5b8101908080359060200190929190803573ffffffffffffffffffffffffffffffffffffffff169060200190929190803561ffff169060200190929190803515159060200190929190505050611aeb565b005b61076a6004803603602081101561073e57600080fd5b81019080803573ffffffffffffffffffffffffffffffffffffffff169060200190929190505050611ec1565b005b6107746120c5565b604051808273ffffffffffffffffffffffffffffffffffffffff16815260200191505060405180910390f35b6107d6600480360360408110156107b657600080fd5b8101908080359060200190929190803590602001909291905050506120ee565b6040518082815260200191505060405180910390f35b6108426004803603606081101561080257600080fd5b810190808035906020019092919080359060200190929190803573ffffffffffffffffffffffffffffffffffffffff16906020019092919050505061210b565b005b61084c612529565b6040518082815260200191505060405180910390f35b6108ae6004803603604081101561087857600080fd5b8101908080359060200190929190803573ffffffffffffffffffffffffffffffffffffffff169060200190929190505050612535565b604051808381526020018281526020019250505060405180910390f35b6108d3612566565b604051808261ffff16815260200191505060405180910390f35b61092f6004803603602081101561090357600080fd5b81019080803573ffffffffffffffffffffffffffffffffffffffff16906020019092919050505061256c565b6040518082815260200191505060405180910390f35b6109716004803603602081101561095b57600080fd5b8101908080359060200190929190505050612584565b005b61097b612656565b604051808273ffffffffffffffffffffffffffffffffffffffff16815260200191505060405180910390f35b6109af61267c565b6040518082815260200191505060405180910390f35b610a07600480360360208110156109db57600080fd5b81019080803573ffffffffffffffffffffffffffffffffffffffff169060200190929190505050612682565b60405180821515815260200191505060405180910390f35b610a6160048036036020811015610a3557600080fd5b81019080803573ffffffffffffffffffffffffffffffffffffffff1690602001909291905050506126a2565b005b610a6b6128a6565b6040518082815260200191505060405180910390f35b610ad160048036036080811015610a9757600080fd5b810190808035906020019092919080359060200190929190803561ffff1690602001909291908035151590602001909291905050506128ac565b005b610adb612a93565b604051808273ffffffffffffffffffffffffffffffffffffffff16815260200191505060405180910390f35b610b5360048036036040811015610b1d57600080fd5b8101908080359060200190929190803573ffffffffffffffffffffffffffffffffffffffff169060200190929190505050612ab9565b6040518082815260200191505060405180910390f35b610b9f60048036036040811015610b7f57600080fd5b810190808035906020019092919080359060200190929190505050612cff565b005b610ba9613084565b005b610bed60048036036020811015610bc157600080fd5b81019080803573ffffffffffffffffffffffffffffffffffffffff1690602001909291905050506132da565b005b6000600680549050905090565b60068181548110610c0957fe5b90600052602060002090600502016000915090508060000160009054906101000a900473ffffffffffffffffffffffffffffffffffffffff16908060010154908060020154908060030154908060040160009054906101000a900461ffff16905085565b60085481565b6000801515600d60008473ffffffffffffffffffffffffffffffffffffffff1673ffffffffffffffffffffffffffffffffffffffff16815260200190815260200160002060009054906101000a900460ff1615151415610d1e576040517f08c379a00000000000000000000000000000000000000000000000000000000081526004018080602001828103825260218152602001806145eb6021913960400191505060405180910390fd5b600e60008373ffffffffffffffffffffffffffffffffffffffff1673ffffffffffffffffffffffffffffffffffffffff168152602001908152602001600020549050919050565b6107d081565b6000600b60008373ffffffffffffffffffffffffffffffffffffffff1673ffffffffffffffffffffffffffffffffffffffff16815260200190815260200160002060009054906101000a900473ffffffffffffffffffffffffffffffffffffffff169050919050565b600c6020528060005260406000206000915090505481565b600560009054906101000a900473ffffffffffffffffffffffffffffffffffffffff1681565b60026001541415610e8b576040517f08c379a000000000000000000000000000000000000000000000000000000000815260040180806020018281038252601f8152602001807f5265656e7472616e637947756172643a207265656e7472616e742063616c6c0081525060200191505060405180910390fd5b6002600181905550600060068381548110610ea257fe5b9060005260206000209060050201905060006007600085815260200190815260200160002060003373ffffffffffffffffffffffffffffffffffffffff1673ffffffffffffffffffffffffffffffffffffffff16815260200190815260200160002090508281600001541015610f80576040517f08c379a00000000000000000000000000000000000000000000000000000000081526004018080602001828103825260128152602001807f77697468647261773a206e6f7420676f6f64000000000000000000000000000081525060200191505060405180910390fd5b610f898461114e565b6000610fd38260010154610fc564e8d4a51000610fb7876003015487600001546133ae90919063ffffffff16565b61343490919063ffffffff16565b61347e90919063ffffffff16565b90506000811115610ff357610fe833826134c8565b610ff2338261379c565b5b600084111561106b5761101384836000015461347e90919063ffffffff16565b826000018190555061106a33858560000160009054906101000a900473ffffffffffffffffffffffffffffffffffffffff1673ffffffffffffffffffffffffffffffffffffffff166139699092919063ffffffff16565b5b61109d64e8d4a5100061108f856003015485600001546133ae90919063ffffffff16565b61343490919063ffffffff16565b8260010181905550843373ffffffffffffffffffffffffffffffffffffffff167ff279e6a1f5e320cca91135676d9cb6e44ca8a08c0b88342bcdb1144f6511b568866040518082815260200191505060405180910390a3505050600180819055505050565b601060009054906101000a900460ff1681565b60095481565b600b6020528060005260406000206000915054906101000a900473ffffffffffffffffffffffffffffffffffffffff1681565b60006006828154811061115d57fe5b906000526020600020906005020190508060020154431161117e57506114a6565b60008160000160009054906101000a900473ffffffffffffffffffffffffffffffffffffffff1673ffffffffffffffffffffffffffffffffffffffff166370a08231306040518263ffffffff1660e01b8152600401808273ffffffffffffffffffffffffffffffffffffffff16815260200191505060206040518083038186803b15801561120b57600080fd5b505afa15801561121f573d6000803e3d6000fd5b505050506040513d602081101561123557600080fd5b81019080805190602001909291905050509050600081148061125b575060008260010154145b156112705743826002018190555050506114a6565b60006112808360020154436120ee565b905060006112c36008546112b586600101546112a7600454876133ae90919063ffffffff16565b6133ae90919063ffffffff16565b61343490919063ffffffff16565b9050600260009054906101000a900473ffffffffffffffffffffffffffffffffffffffff1673ffffffffffffffffffffffffffffffffffffffff166340c10f19600360009054906101000a900473ffffffffffffffffffffffffffffffffffffffff1661133a600a8561343490919063ffffffff16565b6040518363ffffffff1660e01b8152600401808373ffffffffffffffffffffffffffffffffffffffff16815260200182815260200192505050600060405180830381600087803b15801561138d57600080fd5b505af11580156113a1573d6000803e3d6000fd5b50505050600260009054906101000a900473ffffffffffffffffffffffffffffffffffffffff1673ffffffffffffffffffffffffffffffffffffffff166340c10f1930836040518363ffffffff1660e01b8152600401808373ffffffffffffffffffffffffffffffffffffffff16815260200182815260200192505050600060405180830381600087803b15801561143857600080fd5b505af115801561144c573d6000803e3d6000fd5b5050505061149061147d8461146f64e8d4a51000856133ae90919063ffffffff16565b61343490919063ffffffff16565b8560030154613a0b90919063ffffffff16565b8460030181905550438460020181905550505050505b50565b60026001541415611522576040517f08c379a000000000000000000000000000000000000000000000000000000000815260040180806020018281038252601f8152602001807f5265656e7472616e637947756172643a207265656e7472616e742063616c6c0081525060200191505060405180910390fd5b600260018190555060006006828154811061153957fe5b9060005260206000209060050201905060006007600084815260200190815260200160002060003373ffffffffffffffffffffffffffffffffffffffff1673ffffffffffffffffffffffffffffffffffffffff16815260200190815260200160002090506115f03382600001548460000160009054906101000a900473ffffffffffffffffffffffffffffffffffffffff1673ffffffffffffffffffffffffffffffffffffffff166139699092919063ffffffff16565b823373ffffffffffffffffffffffffffffffffffffffff167fbb757047c2b5f3974fe26b7c10f732e7bce710b0952a71082702781e62ae059583600001546040518082815260200191505060405180910390a3600081600001819055506000816001018190555050506001808190555050565b66b1a2bc2ec5000081565b6000600680549050905060005b818110156116975761168c8161114e565b80600101905061167b565b5050565b6116a3613a93565b73ffffffffffffffffffffffffffffffffffffffff1660008054906101000a900473ffffffffffffffffffffffffffffffffffffffff1673ffffffffffffffffffffffffffffffffffffffff1614611763576040517f08c379a00000000000000000000000000000000000000000000000000000000081526004018080602001828103825260208152602001807f4f776e61626c653a2063616c6c6572206973206e6f7420746865206f776e657281525060200191505060405180910390fd5b6107d061ffff168111156117c2576040517f08c379a000000000000000000000000000000000000000000000000000000000815260040180806020018281038252603a815260200180614441603a913960400191505060405180910390fd5b600a5481141561181d576040517f08c379a00000000000000000000000000000000000000000000000000000000081526004018080602001828103825260288152602001806145c36028913960400191505060405180910390fd5b6000600a54905081600a819055507f3282b692bfebf5f35b198a229212cf532c72099026ab54c4b8665382d1086b3f8183604051808381526020018281526020019250505060405180910390a15050565b60045481565b600a5481565b600f5481565b611888613a93565b73ffffffffffffffffffffffffffffffffffffffff1660008054906101000a900473ffffffffffffffffffffffffffffffffffffffff1673ffffffffffffffffffffffffffffffffffffffff1614611948576040517f08c379a00000000000000000000000000000000000000000000000000000000081526004018080602001828103825260208152602001807f4f776e61626c653a2063616c6c6572206973206e6f7420746865206f776e657281525060200191505060405180910390fd5b600073ffffffffffffffffffffffffffffffffffffffff1660008054906101000a900473ffffffffffffffffffffffffffffffffffffffff1673ffffffffffffffffffffffffffffffffffffffff167f8be0079c531659141344cd1fd0a4f28419497f9722a3daafe3b4186f6b6457e060405160405180910390a360008060006101000a81548173ffffffffffffffffffffffffffffffffffffffff021916908373ffffffffffffffffffffffffffffffffffffffff160217905550565b611a0e613a93565b73ffffffffffffffffffffffffffffffffffffffff1660008054906101000a900473ffffffffffffffffffffffffffffffffffffffff1673ffffffffffffffffffffffffffffffffffffffff1614611ace576040517f08c379a00000000000000000000000000000000000000000000000000000000081526004018080602001828103825260208152602001807f4f776e61626c653a2063616c6c6572206973206e6f7420746865206f776e657281525060200191505060405180910390fd5b80601060006101000a81548160ff02191690831515021790555050565b611af3613a93565b73ffffffffffffffffffffffffffffffffffffffff1660008054906101000a900473ffffffffffffffffffffffffffffffffffffffff1673ffffffffffffffffffffffffffffffffffffffff1614611bb3576040517f08c379a00000000000000000000000000000000000000000000000000000000081526004018080602001828103825260208152602001807f4f776e61626c653a2063616c6c6572206973206e6f7420746865206f776e657281525060200191505060405180910390fd5b8260001515600d60008373ffffffffffffffffffffffffffffffffffffffff1673ffffffffffffffffffffffffffffffffffffffff16815260200190815260200160002060009054906101000a900460ff16151514611c7a576040517f08c379a00000000000000000000000000000000000000000000000000000000081526004018080602001828103825260198152602001807f6e6f6e4475706c6963617465643a206475706c6963617465640000000000000081525060200191505060405180910390fd5b6103e861ffff168361ffff161115611cdd576040517f08c379a000000000000000000000000000000000000000000000000000000000815260040180806020018281038252602581526020018061441c6025913960400191505060405180910390fd5b8115611cec57611ceb61166e565b5b60006009544311611cff57600954611d01565b435b9050611d1886600854613a0b90919063ffffffff16565b6008819055506001600d60008773ffffffffffffffffffffffffffffffffffffffff1673ffffffffffffffffffffffffffffffffffffffff16815260200190815260200160002060006101000a81548160ff02191690831515021790555060066040518060a001604052808773ffffffffffffffffffffffffffffffffffffffff168152602001888152602001838152602001600081526020018661ffff16815250908060018154018082558091505060019003906000526020600020906005020160009091909190915060008201518160000160006101000a81548173ffffffffffffffffffffffffffffffffffffffff021916908373ffffffffffffffffffffffffffffffffffffffff16021790555060208201518160010155604082015181600201556060820151816003015560808201518160040160006101000a81548161ffff021916908361ffff1602179055505050600160068054905003600e60008773ffffffffffffffffffffffffffffffffffffffff1673ffffffffffffffffffffffffffffffffffffffff16815260200190815260200160002081905550505050505050565b600073ffffffffffffffffffffffffffffffffffffffff168173ffffffffffffffffffffffffffffffffffffffff161415611f64576040517f08c379a000000000000000000000000000000000000000000000000000000000815260040180806020018281038252601e8152602001807f736574466565416464726573733a20696e76616c69642061646472657373000081525060200191505060405180910390fd5b600560009054906101000a900473ffffffffffffffffffffffffffffffffffffffff1673ffffffffffffffffffffffffffffffffffffffff163373ffffffffffffffffffffffffffffffffffffffff1614612027576040517f08c379a00000000000000000000000000000000000000000000000000000000081526004018080602001828103825260188152602001807f736574466565416464726573733a20464f5242494444454e000000000000000081525060200191505060405180910390fd5b80600560006101000a81548173ffffffffffffffffffffffffffffffffffffffff021916908373ffffffffffffffffffffffffffffffffffffffff1602179055508073ffffffffffffffffffffffffffffffffffffffff163373ffffffffffffffffffffffffffffffffffffffff167fd44190acf9d04bdb5d3a1aafff7e6dee8b40b93dfb8c5d3f0eea4b9f4539c3f760405160405180910390a350565b60008060009054906101000a900473ffffffffffffffffffffffffffffffffffffffff16905090565b6000612103838361347e90919063ffffffff16565b905092915050565b60026001541415612184576040517f08c379a000000000000000000000000000000000000000000000000000000000815260040180806020018281038252601f8152602001807f5265656e7472616e637947756172643a207265656e7472616e742063616c6c0081525060200191505060405180910390fd5b60026001819055508073ffffffffffffffffffffffffffffffffffffffff168173ffffffffffffffffffffffffffffffffffffffff1614612210576040517f08c379a00000000000000000000000000000000000000000000000000000000081526004018080602001828103825260218152602001806144ed6021913960400191505060405180910390fd5b60006006848154811061221f57fe5b9060005260206000209060050201905060006007600086815260200190815260200160002060003373ffffffffffffffffffffffffffffffffffffffff1673ffffffffffffffffffffffffffffffffffffffff168152602001908152602001600020905061228c8561114e565b6000816000015411156123055760006122e382600101546122d564e8d4a510006122c7876003015487600001546133ae90919063ffffffff16565b61343490919063ffffffff16565b61347e90919063ffffffff16565b90506000811115612303576122f833826134c8565b612302338261379c565b5b505b6000841115612492576123183384613a9b565b6123693330868560000160009054906101000a900473ffffffffffffffffffffffffffffffffffffffff1673ffffffffffffffffffffffffffffffffffffffff16613d02909392919063ffffffff16565b60008260040160009054906101000a900461ffff1661ffff1611156124715760006123c76127106123b98560040160009054906101000a900461ffff1661ffff16886133ae90919063ffffffff16565b61343490919063ffffffff16565b90506123f2816123e4878560000154613a0b90919063ffffffff16565b61347e90919063ffffffff16565b826000018190555061246b600560009054906101000a900473ffffffffffffffffffffffffffffffffffffffff16828560000160009054906101000a900473ffffffffffffffffffffffffffffffffffffffff1673ffffffffffffffffffffffffffffffffffffffff166139699092919063ffffffff16565b50612491565b612488848260000154613a0b90919063ffffffff16565b81600001819055505b5b6124c464e8d4a510006124b6846003015484600001546133ae90919063ffffffff16565b61343490919063ffffffff16565b8160010181905550843373ffffffffffffffffffffffffffffffffffffffff167f90890809c654f11d6e72a28fa60149770a0d11ec6c92319d6ceb2bb0a4ea1a15866040518082815260200191505060405180910390a3505060018081905550505050565b6706f05b59d3b2000081565b6007602052816000526040600020602052806000526040600020600091509150508060000154908060010154905082565b6103e881565b600e6020528060005260406000206000915090505481565b61258c613a93565b73ffffffffffffffffffffffffffffffffffffffff1660008054906101000a900473ffffffffffffffffffffffffffffffffffffffff1673ffffffffffffffffffffffffffffffffffffffff161461264c576040517f08c379a00000000000000000000000000000000000000000000000000000000081526004018080602001828103825260208152602001807f4f776e61626c653a2063616c6c6572206973206e6f7420746865206f776e657281525060200191505060405180910390fd5b8060048190555050565b600260009054906101000a900473ffffffffffffffffffffffffffffffffffffffff1681565b61012c81565b600d6020528060005260406000206000915054906101000a900460ff1681565b600073ffffffffffffffffffffffffffffffffffffffff168173ffffffffffffffffffffffffffffffffffffffff161415612745576040517f08c379a00000000000000000000000000000000000000000000000000000000081526004018080602001828103825260148152602001807f6465763a20696e76616c6964206164647265737300000000000000000000000081525060200191505060405180910390fd5b600360009054906101000a900473ffffffffffffffffffffffffffffffffffffffff1673ffffffffffffffffffffffffffffffffffffffff163373ffffffffffffffffffffffffffffffffffffffff1614612808576040517f08c379a00000000000000000000000000000000000000000000000000000000081526004018080602001828103825260098152602001807f6465763a207775743f000000000000000000000000000000000000000000000081525060200191505060405180910390fd5b80600360006101000a81548173ffffffffffffffffffffffffffffffffffffffff021916908373ffffffffffffffffffffffffffffffffffffffff1602179055508073ffffffffffffffffffffffffffffffffffffffff163373ffffffffffffffffffffffffffffffffffffffff167f618c54559e94f1499a808aad71ee8729f8e74e8c48e979616328ce493a1a52e760405160405180910390a350565b61384081565b6128b4613a93565b73ffffffffffffffffffffffffffffffffffffffff1660008054906101000a900473ffffffffffffffffffffffffffffffffffffffff1673ffffffffffffffffffffffffffffffffffffffff1614612974576040517f08c379a00000000000000000000000000000000000000000000000000000000081526004018080602001828103825260208152602001807f4f776e61626c653a2063616c6c6572206973206e6f7420746865206f776e657281525060200191505060405180910390fd5b6103e861ffff168261ffff1611156129d7576040517f08c379a000000000000000000000000000000000000000000000000000000000815260040180806020018281038252602581526020018061459e6025913960400191505060405180910390fd5b80156129e6576129e561166e565b5b612a2b83612a1d600687815481106129fa57fe5b90600052602060002090600502016001015460085461347e90919063ffffffff16565b613a0b90919063ffffffff16565b6008819055508260068581548110612a3f57fe5b9060005260206000209060050201600101819055508160068581548110612a6257fe5b906000526020600020906005020160040160006101000a81548161ffff021916908361ffff16021790555050505050565b600360009054906101000a900473ffffffffffffffffffffffffffffffffffffffff1681565b60008060068481548110612ac957fe5b9060005260206000209060050201905060006007600086815260200190815260200160002060008573ffffffffffffffffffffffffffffffffffffffff1673ffffffffffffffffffffffffffffffffffffffff168152602001908152602001600020905060008260030154905060008360000160009054906101000a900473ffffffffffffffffffffffffffffffffffffffff1673ffffffffffffffffffffffffffffffffffffffff166370a08231306040518263ffffffff1660e01b8152600401808273ffffffffffffffffffffffffffffffffffffffff16815260200191505060206040518083038186803b158015612bc357600080fd5b505afa158015612bd7573d6000803e3d6000fd5b505050506040513d6020811015612bed57600080fd5b81019080805190602001909291905050509050836002015443118015612c14575060008114155b15612caf576000612c298560020154436120ee565b90506000612c6c600854612c5e8860010154612c50600454876133ae90919063ffffffff16565b6133ae90919063ffffffff16565b61343490919063ffffffff16565b9050612caa612c9b84612c8d64e8d4a51000856133ae90919063ffffffff16565b61343490919063ffffffff16565b85613a0b90919063ffffffff16565b935050505b612cf38360010154612ce564e8d4a51000612cd78688600001546133ae90919063ffffffff16565b61343490919063ffffffff16565b61347e90919063ffffffff16565b94505050505092915050565b60026001541415612d78576040517f08c379a000000000000000000000000000000000000000000000000000000000815260040180806020018281038252601f8152602001807f5265656e7472616e637947756172643a207265656e7472616e742063616c6c0081525060200191505060405180910390fd5b6002600181905550600060068381548110612d8f57fe5b9060005260206000209060050201905060006007600085815260200190815260200160002060003373ffffffffffffffffffffffffffffffffffffffff1673ffffffffffffffffffffffffffffffffffffffff1681526020019081526020016000209050612dfc8461114e565b600081600001541115612e6b576000612e538260010154612e4564e8d4a51000612e37876003015487600001546133ae90919063ffffffff16565b61343490919063ffffffff16565b61347e90919063ffffffff16565b90506000811115612e6957612e6833826134c8565b5b505b6000831115612fee57612ec53330858560000160009054906101000a900473ffffffffffffffffffffffffffffffffffffffff1673ffffffffffffffffffffffffffffffffffffffff16613d02909392919063ffffffff16565b60008260040160009054906101000a900461ffff1661ffff161115612fcd576000612f23612710612f158560040160009054906101000a900461ffff1661ffff16876133ae90919063ffffffff16565b61343490919063ffffffff16565b9050612f4e81612f40868560000154613a0b90919063ffffffff16565b61347e90919063ffffffff16565b8260000181905550612fc7600560009054906101000a900473ffffffffffffffffffffffffffffffffffffffff16828560000160009054906101000a900473ffffffffffffffffffffffffffffffffffffffff1673ffffffffffffffffffffffffffffffffffffffff166139699092919063ffffffff16565b50612fed565b612fe4838260000154613a0b90919063ffffffff16565b81600001819055505b5b61302064e8d4a51000613012846003015484600001546133ae90919063ffffffff16565b61343490919063ffffffff16565b8160010181905550833373ffffffffffffffffffffffffffffffffffffffff167f90890809c654f11d6e72a28fa60149770a0d11ec6c92319d6ceb2bb0a4ea1a15856040518082815260200191505060405180910390a35050600180819055505050565b601060009054906101000a900460ff166130e9576040517f08c379a000000000000000000000000000000000000000000000000000000000815260040180806020018281038252604081526020018061465e6040913960400191505060405180910390fd5b6009544311613143576040517f08c379a00000000000000000000000000000000000000000000000000000000081526004018080602001828103825260498152602001806145346049913960600191505060405180910390fd5b66b1a2bc2ec50000600454116131a4576040517f08c379a000000000000000000000000000000000000000000000000000000000815260040180806020018281038252605281526020018061460c6052913960600191505060405180910390fd5b60006131cf6138406131c16009544361347e90919063ffffffff16565b61343490919063ffffffff16565b9050600f5481116131e057506132d8565b600060045490506000600f5490505b828110156132315761322461271061321661012c61271003856133ae90919063ffffffff16565b61343490919063ffffffff16565b91508060010190506131ef565b5066b1a2bc2ec500008110613246578061324f565b66b1a2bc2ec500005b905060045481106132615750506132d8565b61326961166e565b81600f8190555060006004549050816004819055503373ffffffffffffffffffffffffffffffffffffffff167feedc6338c9c1ad8f3cd6c90dd09dbe98dbd57e610d3e59a17996d07acb0d95118284604051808381526020018281526020019250505060405180910390a25050505b565b6132e2613a93565b73ffffffffffffffffffffffffffffffffffffffff1660008054906101000a900473ffffffffffffffffffffffffffffffffffffffff1673ffffffffffffffffffffffffffffffffffffffff16146133a2576040517f08c379a00000000000000000000000000000000000000000000000000000000081526004018080602001828103825260208152602001807f4f776e61626c653a2063616c6c6572206973206e6f7420746865206f776e657281525060200191505060405180910390fd5b6133ab81613dc3565b50565b6000808314156133c1576000905061342e565b60008284029050828482816133d257fe5b0414613429576040517f08c379a000000000000000000000000000000000000000000000000000000000815260040180806020018281038252602181526020018061457d6021913960400191505060405180910390fd5b809150505b92915050565b600061347683836040518060400160405280601a81526020017f536166654d6174683a206469766973696f6e206279207a65726f000000000000815250613f06565b905092915050565b60006134c083836040518060400160405280601e81526020017f536166654d6174683a207375627472616374696f6e206f766572666c6f770000815250613fcc565b905092915050565b6000600260009054906101000a900473ffffffffffffffffffffffffffffffffffffffff1673ffffffffffffffffffffffffffffffffffffffff166370a08231306040518263ffffffff1660e01b8152600401808273ffffffffffffffffffffffffffffffffffffffff16815260200191505060206040518083038186803b15801561355357600080fd5b505afa158015613567573d6000803e3d6000fd5b505050506040513d602081101561357d57600080fd5b8101908080519060200190929190505050905060008183111561366f57600260009054906101000a900473ffffffffffffffffffffffffffffffffffffffff1673ffffffffffffffffffffffffffffffffffffffff1663a9059cbb85846040518363ffffffff1660e01b8152600401808373ffffffffffffffffffffffffffffffffffffffff16815260200182815260200192505050602060405180830381600087803b15801561362d57600080fd5b505af1158015613641573d6000803e3d6000fd5b505050506040513d602081101561365757600080fd5b81019080805190602001909291905050509050613740565b600260009054906101000a900473ffffffffffffffffffffffffffffffffffffffff1673ffffffffffffffffffffffffffffffffffffffff1663a9059cbb85856040518363ffffffff1660e01b8152600401808373ffffffffffffffffffffffffffffffffffffffff16815260200182815260200192505050602060405180830381600087803b15801561370257600080fd5b505af1158015613716573d6000803e3d6000fd5b505050506040513d602081101561372c57600080fd5b810190808051906020019092919050505090505b80613796576040517f08c379a00000000000000000000000000000000000000000000000000000000081526004018080602001828103825260228152602001806144cb6022913960400191505060405180910390fd5b50505050565b60006137a783610d6b565b9050600073ffffffffffffffffffffffffffffffffffffffff168173ffffffffffffffffffffffffffffffffffffffff161415801561381257508273ffffffffffffffffffffffffffffffffffffffff168173ffffffffffffffffffffffffffffffffffffffff1614155b801561382057506000600a54115b15613964576000613850612710613842600a54866133ae90919063ffffffff16565b61343490919063ffffffff16565b9050600260009054906101000a900473ffffffffffffffffffffffffffffffffffffffff1673ffffffffffffffffffffffffffffffffffffffff166340c10f1983836040518363ffffffff1660e01b8152600401808373ffffffffffffffffffffffffffffffffffffffff16815260200182815260200192505050600060405180830381600087803b1580156138e557600080fd5b505af11580156138f9573d6000803e3d6000fd5b505050508173ffffffffffffffffffffffffffffffffffffffff168473ffffffffffffffffffffffffffffffffffffffff167f0a721ab4682ceb61c7e4d264ef879fc419a6d764b136e7d96ef54b2053c75673836040518082815260200191505060405180910390a3505b505050565b613a068363a9059cbb60e01b8484604051602401808373ffffffffffffffffffffffffffffffffffffffff16815260200182815260200192505050604051602081830303815290604052907bffffffffffffffffffffffffffffffffffffffffffffffffffffffff19166020820180517bffffffffffffffffffffffffffffffffffffffffffffffffffffffff838183161783525050505061408c565b505050565b600080828401905083811015613a89576040517f08c379a000000000000000000000000000000000000000000000000000000000815260040180806020018281038252601b8152602001807f536166654d6174683a206164646974696f6e206f766572666c6f77000000000081525060200191505060405180910390fd5b8091505092915050565b600033905090565b8073ffffffffffffffffffffffffffffffffffffffff168173ffffffffffffffffffffffffffffffffffffffff16148015613b615750600073ffffffffffffffffffffffffffffffffffffffff16600b60008473ffffffffffffffffffffffffffffffffffffffff1673ffffffffffffffffffffffffffffffffffffffff16815260200190815260200160002060009054906101000a900473ffffffffffffffffffffffffffffffffffffffff1673ffffffffffffffffffffffffffffffffffffffff16145b8015613b9a5750600073ffffffffffffffffffffffffffffffffffffffff168173ffffffffffffffffffffffffffffffffffffffff1614155b8015613bd257508173ffffffffffffffffffffffffffffffffffffffff168173ffffffffffffffffffffffffffffffffffffffff1614155b15613cfe5780600b60008473ffffffffffffffffffffffffffffffffffffffff1673ffffffffffffffffffffffffffffffffffffffff16815260200190815260200160002060006101000a81548173ffffffffffffffffffffffffffffffffffffffff021916908373ffffffffffffffffffffffffffffffffffffffff1602179055506001600c60008373ffffffffffffffffffffffffffffffffffffffff1673ffffffffffffffffffffffffffffffffffffffff168152602001908152602001600020600082825401925050819055508073ffffffffffffffffffffffffffffffffffffffff168273ffffffffffffffffffffffffffffffffffffffff167f9d05414fb79fac216c15606de5cc06664e91a254e4d5f57664d5f1beaf7fb7ef60405160405180910390a35b5050565b613dbd846323b872dd60e01b858585604051602401808473ffffffffffffffffffffffffffffffffffffffff1681526020018373ffffffffffffffffffffffffffffffffffffffff1681526020018281526020019350505050604051602081830303815290604052907bffffffffffffffffffffffffffffffffffffffffffffffffffffffff19166020820180517bffffffffffffffffffffffffffffffffffffffffffffffffffffffff838183161783525050505061408c565b50505050565b600073ffffffffffffffffffffffffffffffffffffffff168173ffffffffffffffffffffffffffffffffffffffff161415613e49576040517f08c379a00000000000000000000000000000000000000000000000000000000081526004018080602001828103825260268152602001806144a56026913960400191505060405180910390fd5b8073ffffffffffffffffffffffffffffffffffffffff1660008054906101000a900473ffffffffffffffffffffffffffffffffffffffff1673ffffffffffffffffffffffffffffffffffffffff167f8be0079c531659141344cd1fd0a4f28419497f9722a3daafe3b4186f6b6457e060405160405180910390a3806000806101000a81548173ffffffffffffffffffffffffffffffffffffffff021916908373ffffffffffffffffffffffffffffffffffffffff16021790555050565b60008083118290613fb2576040517f08c379a00000000000000000000000000000000000000000000000000000000081526004018080602001828103825283818151815260200191508051906020019080838360005b83811015613f77578082015181840152602081019050613f5c565b50505050905090810190601f168015613fa45780820380516001836020036101000a031916815260200191505b509250505060405180910390fd5b506000838581613fbe57fe5b049050809150509392505050565b6000838311158290614079576040517f08c379a00000000000000000000000000000000000000000000000000000000081526004018080602001828103825283818151815260200191508051906020019080838360005b8381101561403e578082015181840152602081019050614023565b50505050905090810190601f16801561406b5780820380516001836020036101000a031916815260200191505b509250505060405180910390fd5b5060008385039050809150509392505050565b60606140ee826040518060400160405280602081526020017f5361666542455032303a206c6f772d6c6576656c2063616c6c206661696c65648152508573ffffffffffffffffffffffffffffffffffffffff1661417b9092919063ffffffff16565b90506000815111156141765780806020019051602081101561410f57600080fd5b8101908080519060200190929190505050614175576040517f08c379a000000000000000000000000000000000000000000000000000000000815260040180806020018281038252602a81526020018061447b602a913960400191505060405180910390fd5b5b505050565b606061418a8484600085614193565b90509392505050565b6060824710156141ee576040517f08c379a000000000000000000000000000000000000000000000000000000000815260040180806020018281038252602681526020018061450e6026913960400191505060405180910390fd5b6141f78561433c565b614269576040517f08c379a000000000000000000000000000000000000000000000000000000000815260040180806020018281038252601d8152602001807f416464726573733a2063616c6c20746f206e6f6e2d636f6e747261637400000081525060200191505060405180910390fd5b600060608673ffffffffffffffffffffffffffffffffffffffff1685876040518082805190602001908083835b602083106142b95780518252602082019150602081019050602083039250614296565b6001836020036101000a03801982511681845116808217855250505050505090500191505060006040518083038185875af1925050503d806000811461431b576040519150601f19603f3d011682016040523d82523d6000602084013e614320565b606091505b509150915061433082828661434f565b92505050949350505050565b600080823b905060008111915050919050565b6060831561435f57829050614414565b6000835111156143725782518084602001fd5b816040517f08c379a00000000000000000000000000000000000000000000000000000000081526004018080602001828103825283818151815260200191508051906020019080838360005b838110156143d95780820151818401526020810190506143be565b50505050905090810190601f1680156144065780820380516001836020036101000a031916815260200191505b509250505060405180910390fd5b939250505056fe6164643a20696e76616c6964206465706f7369742066656520626173697320706f696e7473757064617465526566426f6e757350657263656e743a20696e76616c696420726566657272616c20626f6e757320626173697320706f696e74735361666542455032303a204245503230206f7065726174696f6e20646964206e6f7420737563636565644f776e61626c653a206e6577206f776e657220697320746865207a65726f206164647265737373616665506c756d5472616e736665723a207472616e73666572206661696c65642e6465706f7369743a20496e76616c69642072656665727265722061646472657373416464726573733a20696e73756666696369656e742062616c616e636520666f722063616c6c726564756365456d697373696f6e526174655769746844656661756c74526174653a2043616e206f6e6c792062652063616c6c6564206166746572206d696e696e6720737461727473536166654d6174683a206d756c7469706c69636174696f6e206f766572666c6f777365743a20696e76616c6964206465706f7369742066656520626173697320706f696e7473757064617465526566426f6e757350657263656e743a2073616d6520626f6e757320627020736574676574506f6f6c4964466f724c70546f6b656e3a20646f206e6f74206578697374726564756365456d697373696f6e526174655769746844656661756c74526174653a20456d697373696f6e207261746520686173207265616368656420746865206d696e696d756d207468726573686f6c64726564756365456d697373696f6e526174655769746844656661756c74526174653a205065726d697373696f6e20666c6167206e6f74207475726e6564206f6ea2646970667358221220a3e53457e5cbf260989a6e0580e651e0155394b1d41ea9559748f769cebe04d264736f6c634300060c0033","opcodes":"PUSH1 0x80 PUSH1 0x40 MSTORE PUSH1 0x0 PUSH1 0x8 SSTORE PUSH1 0xC8 PUSH1 0xA SSTORE PUSH1 0x0 PUSH1 0xF SSTORE PUSH1 0x0 PUSH1 0x10 PUSH1 0x0 PUSH2 0x100 EXP DUP2 SLOAD DUP2 PUSH1 0xFF MUL NOT AND SWAP1 DUP4 ISZERO ISZERO MUL OR SWAP1 SSTORE POP CALLVALUE DUP1 ISZERO PUSH3 0x3B JUMPI PUSH1 0x0 DUP1 REVERT JUMPDEST POP PUSH1 0x40 MLOAD PUSH3 0x490A CODESIZE SUB DUP1 PUSH3 0x490A DUP4 CODECOPY DUP2 DUP2 ADD PUSH1 0x40 MSTORE PUSH1 0x60 DUP2 LT ISZERO PUSH3 0x61 JUMPI PUSH1 0x0 DUP1 REVERT JUMPDEST DUP2 ADD SWAP1 DUP1 DUP1 MLOAD SWAP1 PUSH1 0x20 ADD SWAP1 SWAP3 SWAP2 SWAP1 DUP1 MLOAD SWAP1 PUSH1 0x20 ADD SWAP1 SWAP3 SWAP2 SWAP1 DUP1 MLOAD SWAP1 PUSH1 0x20 ADD SWAP1 SWAP3 SWAP2 SWAP1 POP POP POP PUSH1 0x0 PUSH3 0x98 PUSH3 0x21F PUSH1 0x20 SHL PUSH1 0x20 SHR JUMP JUMPDEST SWAP1 POP DUP1 PUSH1 0x0 DUP1 PUSH2 0x100 EXP DUP2 SLOAD DUP2 PUSH20 0xFFFFFFFFFFFFFFFFFFFFFFFFFFFFFFFFFFFFFFFF MUL NOT AND SWAP1 DUP4 PUSH20 0xFFFFFFFFFFFFFFFFFFFFFFFFFFFFFFFFFFFFFFFF AND MUL OR SWAP1 SSTORE POP DUP1 PUSH20 0xFFFFFFFFFFFFFFFFFFFFFFFFFFFFFFFFFFFFFFFF AND PUSH1 0x0 PUSH20 0xFFFFFFFFFFFFFFFFFFFFFFFFFFFFFFFFFFFFFFFF AND PUSH32 0x8BE0079C531659141344CD1FD0A4F28419497F9722A3DAAFE3B4186F6B6457E0 PUSH1 0x40 MLOAD PUSH1 0x40 MLOAD DUP1 SWAP2 SUB SWAP1 LOG3 POP PUSH1 0x1 DUP1 DUP2 SWAP1 SSTORE POP DUP3 PUSH1 0x2 PUSH1 0x0 PUSH2 0x100 EXP DUP2 SLOAD DUP2 PUSH20 0xFFFFFFFFFFFFFFFFFFFFFFFFFFFFFFFFFFFFFFFF MUL NOT AND SWAP1 DUP4 PUSH20 0xFFFFFFFFFFFFFFFFFFFFFFFFFFFFFFFFFFFFFFFF AND MUL OR SWAP1 SSTORE POP DUP2 PUSH1 0x3 PUSH1 0x0 PUSH2 0x100 EXP DUP2 SLOAD DUP2 PUSH20 0xFFFFFFFFFFFFFFFFFFFFFFFFFFFFFFFFFFFFFFFF MUL NOT AND SWAP1 DUP4 PUSH20 0xFFFFFFFFFFFFFFFFFFFFFFFFFFFFFFFFFFFFFFFF AND MUL OR SWAP1 SSTORE POP DUP1 PUSH1 0x5 PUSH1 0x0 PUSH2 0x100 EXP DUP2 SLOAD DUP2 PUSH20 0xFFFFFFFFFFFFFFFFFFFFFFFFFFFFFFFFFFFFFFFF MUL NOT AND SWAP1 DUP4 PUSH20 0xFFFFFFFFFFFFFFFFFFFFFFFFFFFFFFFFFFFFFFFF AND MUL OR SWAP1 SSTORE POP PUSH8 0x6F05B59D3B20000 PUSH1 0x4 DUP2 SWAP1 SSTORE POP NUMBER PUSH1 0x9 DUP2 SWAP1 SSTORE POP POP POP POP PUSH3 0x227 JUMP JUMPDEST PUSH1 0x0 CALLER SWAP1 POP SWAP1 JUMP JUMPDEST PUSH2 0x46D3 DUP1 PUSH3 0x237 PUSH1 0x0 CODECOPY PUSH1 0x0 RETURN INVALID PUSH1 0x80 PUSH1 0x40 MSTORE CALLVALUE DUP1 ISZERO PUSH2 0x10 JUMPI PUSH1 0x0 DUP1 REVERT JUMPDEST POP PUSH1 0x4 CALLDATASIZE LT PUSH2 0x269 JUMPI PUSH1 0x0 CALLDATALOAD PUSH1 0xE0 SHR DUP1 PUSH4 0x80361747 GT PUSH2 0x151 JUMPI DUP1 PUSH4 0xAE715D70 GT PUSH2 0xC3 JUMPI DUP1 PUSH4 0xD9638422 GT PUSH2 0x87 JUMPI DUP1 PUSH4 0xD9638422 EQ PUSH2 0xA81 JUMPI DUP1 PUSH4 0xDA09C72C EQ PUSH2 0xAD3 JUMPI DUP1 PUSH4 0xDFE3D2CD EQ PUSH2 0xB07 JUMPI DUP1 PUSH4 0xE2BBB158 EQ PUSH2 0xB69 JUMPI DUP1 PUSH4 0xEA76BC29 EQ PUSH2 0xBA1 JUMPI DUP1 PUSH4 0xF2FDE38B EQ PUSH2 0xBAB JUMPI PUSH2 0x269 JUMP JUMPDEST DUP1 PUSH4 0xAE715D70 EQ PUSH2 0x973 JUMPI DUP1 PUSH4 0xB7EEE1F1 EQ PUSH2 0x9A7 JUMPI DUP1 PUSH4 0xCBD258B5 EQ PUSH2 0x9C5 JUMPI DUP1 PUSH4 0xD0D41FE1 EQ PUSH2 0xA1F JUMPI DUP1 PUSH4 0xD4ADAFDF EQ PUSH2 0xA63 JUMPI PUSH2 0x269 JUMP JUMPDEST DUP1 PUSH4 0x8DBDBE6D GT PUSH2 0x115 JUMPI DUP1 PUSH4 0x8DBDBE6D EQ PUSH2 0x7EC JUMPI DUP1 PUSH4 0x91BB809C EQ PUSH2 0x844 JUMPI DUP1 PUSH4 0x93F1A40B EQ PUSH2 0x862 JUMPI DUP1 PUSH4 0x955C9B93 EQ PUSH2 0x8CB JUMPI DUP1 PUSH4 0x9BF62F7E EQ PUSH2 0x8ED JUMPI DUP1 PUSH4 0xA1BDB15E EQ PUSH2 0x945 JUMPI PUSH2 0x269 JUMP JUMPDEST DUP1 PUSH4 0x80361747 EQ PUSH2 0x690 JUMPI DUP1 PUSH4 0x84E82A33 EQ PUSH2 0x6C0 JUMPI DUP1 PUSH4 0x8705FCD4 EQ PUSH2 0x728 JUMPI DUP1 PUSH4 0x8DA5CB5B EQ PUSH2 0x76C JUMPI DUP1 PUSH4 0x8DBB1E3A EQ PUSH2 0x7A0 JUMPI PUSH2 0x269 JUMP JUMPDEST DUP1 PUSH4 0x48CD4CB1 GT PUSH2 0x1EA JUMPI DUP1 PUSH4 0x630B5BA1 GT PUSH2 0x1AE JUMPI DUP1 PUSH4 0x630B5BA1 EQ PUSH2 0x5F4 JUMPI DUP1 PUSH4 0x64ED743B EQ PUSH2 0x5FE JUMPI DUP1 PUSH4 0x660F8340 EQ PUSH2 0x62C JUMPI DUP1 PUSH4 0x66F685EA EQ PUSH2 0x64A JUMPI DUP1 PUSH4 0x6A9A7660 EQ PUSH2 0x668 JUMPI DUP1 PUSH4 0x715018A6 EQ PUSH2 0x686 JUMPI PUSH2 0x269 JUMP JUMPDEST DUP1 PUSH4 0x48CD4CB1 EQ PUSH2 0x4EE JUMPI DUP1 PUSH4 0x4A3B68CC EQ PUSH2 0x50C JUMPI DUP1 PUSH4 0x51EB05A6 EQ PUSH2 0x57A JUMPI DUP1 PUSH4 0x5312EA8E EQ PUSH2 0x5A8 JUMPI DUP1 PUSH4 0x61E0C468 EQ PUSH2 0x5D6 JUMPI PUSH2 0x269 JUMP JUMPDEST DUP1 PUSH4 0x3B0F0F2F GT PUSH2 0x231 JUMPI DUP1 PUSH4 0x3B0F0F2F EQ PUSH2 0x39C JUMPI DUP1 PUSH4 0x3F7B06D8 EQ PUSH2 0x40A JUMPI DUP1 PUSH4 0x41275358 EQ PUSH2 0x462 JUMPI DUP1 PUSH4 0x441A3E70 EQ PUSH2 0x496 JUMPI DUP1 PUSH4 0x47E3CDA5 EQ PUSH2 0x4CE JUMPI PUSH2 0x269 JUMP JUMPDEST DUP1 PUSH4 0x81E3EDA EQ PUSH2 0x26E JUMPI DUP1 PUSH4 0x1526FE27 EQ PUSH2 0x28C JUMPI DUP1 PUSH4 0x17CAF6F1 EQ PUSH2 0x304 JUMPI DUP1 PUSH4 0x190F39F0 EQ PUSH2 0x322 JUMPI DUP1 PUSH4 0x3A22DF78 EQ PUSH2 0x37A JUMPI JUMPDEST PUSH1 0x0 DUP1 REVERT JUMPDEST PUSH2 0x276 PUSH2 0xBEF JUMP JUMPDEST PUSH1 0x40 MLOAD DUP1 DUP3 DUP2 MSTORE PUSH1 0x20 ADD SWAP2 POP POP PUSH1 0x40 MLOAD DUP1 SWAP2 SUB SWAP1 RETURN JUMPDEST PUSH2 0x2B8 PUSH1 0x4 DUP1 CALLDATASIZE SUB PUSH1 0x20 DUP2 LT ISZERO PUSH2 0x2A2 JUMPI PUSH1 0x0 DUP1 REVERT JUMPDEST DUP2 ADD SWAP1 DUP1 DUP1 CALLDATALOAD SWAP1 PUSH1 0x20 ADD SWAP1 SWAP3 SWAP2 SWAP1 POP POP POP PUSH2 0xBFC JUMP JUMPDEST PUSH1 0x40 MLOAD DUP1 DUP7 PUSH20 0xFFFFFFFFFFFFFFFFFFFFFFFFFFFFFFFFFFFFFFFF AND DUP2 MSTORE PUSH1 0x20 ADD DUP6 DUP2 MSTORE PUSH1 0x20 ADD DUP5 DUP2 MSTORE PUSH1 0x20 ADD DUP4 DUP2 MSTORE PUSH1 0x20 ADD DUP3 PUSH2 0xFFFF AND DUP2 MSTORE PUSH1 0x20 ADD SWAP6 POP POP POP POP POP POP PUSH1 0x40 MLOAD DUP1 SWAP2 SUB SWAP1 RETURN JUMPDEST PUSH2 0x30C PUSH2 0xC6D JUMP JUMPDEST PUSH1 0x40 MLOAD DUP1 DUP3 DUP2 MSTORE PUSH1 0x20 ADD SWAP2 POP POP PUSH1 0x40 MLOAD DUP1 SWAP2 SUB SWAP1 RETURN JUMPDEST PUSH2 0x364 PUSH1 0x4 DUP1 CALLDATASIZE SUB PUSH1 0x20 DUP2 LT ISZERO PUSH2 0x338 JUMPI PUSH1 0x0 DUP1 REVERT JUMPDEST DUP2 ADD SWAP1 DUP1 DUP1 CALLDATALOAD PUSH20 0xFFFFFFFFFFFFFFFFFFFFFFFFFFFFFFFFFFFFFFFF AND SWAP1 PUSH1 0x20 ADD SWAP1 SWAP3 SWAP2 SWAP1 POP POP POP PUSH2 0xC73 JUMP JUMPDEST PUSH1 0x40 MLOAD DUP1 DUP3 DUP2 MSTORE PUSH1 0x20 ADD SWAP2 POP POP PUSH1 0x40 MLOAD DUP1 SWAP2 SUB SWAP1 RETURN JUMPDEST PUSH2 0x382 PUSH2 0xD65 JUMP JUMPDEST PUSH1 0x40 MLOAD DUP1 DUP3 PUSH2 0xFFFF AND DUP2 MSTORE PUSH1 0x20 ADD SWAP2 POP POP PUSH1 0x40 MLOAD DUP1 SWAP2 SUB SWAP1 RETURN JUMPDEST PUSH2 0x3DE PUSH1 0x4 DUP1 CALLDATASIZE SUB PUSH1 0x20 DUP2 LT ISZERO PUSH2 0x3B2 JUMPI PUSH1 0x0 DUP1 REVERT JUMPDEST DUP2 ADD SWAP1 DUP1 DUP1 CALLDATALOAD PUSH20 0xFFFFFFFFFFFFFFFFFFFFFFFFFFFFFFFFFFFFFFFF AND SWAP1 PUSH1 0x20 ADD SWAP1 SWAP3 SWAP2 SWAP1 POP POP POP PUSH2 0xD6B JUMP JUMPDEST PUSH1 0x40 MLOAD DUP1 DUP3 PUSH20 0xFFFFFFFFFFFFFFFFFFFFFFFFFFFFFFFFFFFFFFFF AND DUP2 MSTORE PUSH1 0x20 ADD SWAP2 POP POP PUSH1 0x40 MLOAD DUP1 SWAP2 SUB SWAP1 RETURN JUMPDEST PUSH2 0x44C PUSH1 0x4 DUP1 CALLDATASIZE SUB PUSH1 0x20 DUP2 LT ISZERO PUSH2 0x420 JUMPI PUSH1 0x0 DUP1 REVERT JUMPDEST DUP2 ADD SWAP1 DUP1 DUP1 CALLDATALOAD PUSH20 0xFFFFFFFFFFFFFFFFFFFFFFFFFFFFFFFFFFFFFFFF AND SWAP1 PUSH1 0x20 ADD SWAP1 SWAP3 SWAP2 SWAP1 POP POP POP PUSH2 0xDD4 JUMP JUMPDEST PUSH1 0x40 MLOAD DUP1 DUP3 DUP2 MSTORE PUSH1 0x20 ADD SWAP2 POP POP PUSH1 0x40 MLOAD DUP1 SWAP2 SUB SWAP1 RETURN JUMPDEST PUSH2 0x46A PUSH2 0xDEC JUMP JUMPDEST PUSH1 0x40 MLOAD DUP1 DUP3 PUSH20 0xFFFFFFFFFFFFFFFFFFFFFFFFFFFFFFFFFFFFFFFF AND DUP2 MSTORE PUSH1 0x20 ADD SWAP2 POP POP PUSH1 0x40 MLOAD DUP1 SWAP2 SUB SWAP1 RETURN JUMPDEST PUSH2 0x4CC PUSH1 0x4 DUP1 CALLDATASIZE SUB PUSH1 0x40 DUP2 LT ISZERO PUSH2 0x4AC JUMPI PUSH1 0x0 DUP1 REVERT JUMPDEST DUP2 ADD SWAP1 DUP1 DUP1 CALLDATALOAD SWAP1 PUSH1 0x20 ADD SWAP1 SWAP3 SWAP2 SWAP1 DUP1 CALLDATALOAD SWAP1 PUSH1 0x20 ADD SWAP1 SWAP3 SWAP2 SWAP1 POP POP POP PUSH2 0xE12 JUMP JUMPDEST STOP JUMPDEST PUSH2 0x4D6 PUSH2 0x1102 JUMP JUMPDEST PUSH1 0x40 MLOAD DUP1 DUP3 ISZERO ISZERO DUP2 MSTORE PUSH1 0x20 ADD SWAP2 POP POP PUSH1 0x40 MLOAD DUP1 SWAP2 SUB SWAP1 RETURN JUMPDEST PUSH2 0x4F6 PUSH2 0x1115 JUMP JUMPDEST PUSH1 0x40 MLOAD DUP1 DUP3 DUP2 MSTORE PUSH1 0x20 ADD SWAP2 POP POP PUSH1 0x40 MLOAD DUP1 SWAP2 SUB SWAP1 RETURN JUMPDEST PUSH2 0x54E PUSH1 0x4 DUP1 CALLDATASIZE SUB PUSH1 0x20 DUP2 LT ISZERO PUSH2 0x522 JUMPI PUSH1 0x0 DUP1 REVERT JUMPDEST DUP2 ADD SWAP1 DUP1 DUP1 CALLDATALOAD PUSH20 0xFFFFFFFFFFFFFFFFFFFFFFFFFFFFFFFFFFFFFFFF AND SWAP1 PUSH1 0x20 ADD SWAP1 SWAP3 SWAP2 SWAP1 POP POP POP PUSH2 0x111B JUMP JUMPDEST PUSH1 0x40 MLOAD DUP1 DUP3 PUSH20 0xFFFFFFFFFFFFFFFFFFFFFFFFFFFFFFFFFFFFFFFF AND DUP2 MSTORE PUSH1 0x20 ADD SWAP2 POP POP PUSH1 0x40 MLOAD DUP1 SWAP2 SUB SWAP1 RETURN JUMPDEST PUSH2 0x5A6 PUSH1 0x4 DUP1 CALLDATASIZE SUB PUSH1 0x20 DUP2 LT ISZERO PUSH2 0x590 JUMPI PUSH1 0x0 DUP1 REVERT JUMPDEST DUP2 ADD SWAP1 DUP1 DUP1 CALLDATALOAD SWAP1 PUSH1 0x20 ADD SWAP1 SWAP3 SWAP2 SWAP1 POP POP POP PUSH2 0x114E JUMP JUMPDEST STOP JUMPDEST PUSH2 0x5D4 PUSH1 0x4 DUP1 CALLDATASIZE SUB PUSH1 0x20 DUP2 LT ISZERO PUSH2 0x5BE JUMPI PUSH1 0x0 DUP1 REVERT JUMPDEST DUP2 ADD SWAP1 DUP1 DUP1 CALLDATALOAD SWAP1 PUSH1 0x20 ADD SWAP1 SWAP3 SWAP2 SWAP1 POP POP POP PUSH2 0x14A9 JUMP JUMPDEST STOP JUMPDEST PUSH2 0x5DE PUSH2 0x1663 JUMP JUMPDEST PUSH1 0x40 MLOAD DUP1 DUP3 DUP2 MSTORE PUSH1 0x20 ADD SWAP2 POP POP PUSH1 0x40 MLOAD DUP1 SWAP2 SUB SWAP1 RETURN JUMPDEST PUSH2 0x5FC PUSH2 0x166E JUMP JUMPDEST STOP JUMPDEST PUSH2 0x62A PUSH1 0x4 DUP1 CALLDATASIZE SUB PUSH1 0x20 DUP2 LT ISZERO PUSH2 0x614 JUMPI PUSH1 0x0 DUP1 REVERT JUMPDEST DUP2 ADD SWAP1 DUP1 DUP1 CALLDATALOAD SWAP1 PUSH1 0x20 ADD SWAP1 SWAP3 SWAP2 SWAP1 POP POP POP PUSH2 0x169B JUMP JUMPDEST STOP JUMPDEST PUSH2 0x634 PUSH2 0x186E JUMP JUMPDEST PUSH1 0x40 MLOAD DUP1 DUP3 DUP2 MSTORE PUSH1 0x20 ADD SWAP2 POP POP PUSH1 0x40 MLOAD DUP1 SWAP2 SUB SWAP1 RETURN JUMPDEST PUSH2 0x652 PUSH2 0x1874 JUMP JUMPDEST PUSH1 0x40 MLOAD DUP1 DUP3 DUP2 MSTORE PUSH1 0x20 ADD SWAP2 POP POP PUSH1 0x40 MLOAD DUP1 SWAP2 SUB SWAP1 RETURN JUMPDEST PUSH2 0x670 PUSH2 0x187A JUMP JUMPDEST PUSH1 0x40 MLOAD DUP1 DUP3 DUP2 MSTORE PUSH1 0x20 ADD SWAP2 POP POP PUSH1 0x40 MLOAD DUP1 SWAP2 SUB SWAP1 RETURN JUMPDEST PUSH2 0x68E PUSH2 0x1880 JUMP JUMPDEST STOP JUMPDEST PUSH2 0x6BE PUSH1 0x4 DUP1 CALLDATASIZE SUB PUSH1 0x20 DUP2 LT ISZERO PUSH2 0x6A6 JUMPI PUSH1 0x0 DUP1 REVERT JUMPDEST DUP2 ADD SWAP1 DUP1 DUP1 CALLDATALOAD ISZERO ISZERO SWAP1 PUSH1 0x20 ADD SWAP1 SWAP3 SWAP2 SWAP1 POP POP POP PUSH2 0x1A06 JUMP JUMPDEST STOP JUMPDEST PUSH2 0x726 PUSH1 0x4 DUP1 CALLDATASIZE SUB PUSH1 0x80 DUP2 LT ISZERO PUSH2 0x6D6 JUMPI PUSH1 0x0 DUP1 REVERT JUMPDEST DUP2 ADD SWAP1 DUP1 DUP1 CALLDATALOAD SWAP1 PUSH1 0x20 ADD SWAP1 SWAP3 SWAP2 SWAP1 DUP1 CALLDATALOAD PUSH20 0xFFFFFFFFFFFFFFFFFFFFFFFFFFFFFFFFFFFFFFFF AND SWAP1 PUSH1 0x20 ADD SWAP1 SWAP3 SWAP2 SWAP1 DUP1 CALLDATALOAD PUSH2 0xFFFF AND SWAP1 PUSH1 0x20 ADD SWAP1 SWAP3 SWAP2 SWAP1 DUP1 CALLDATALOAD ISZERO ISZERO SWAP1 PUSH1 0x20 ADD SWAP1 SWAP3 SWAP2 SWAP1 POP POP POP PUSH2 0x1AEB JUMP JUMPDEST STOP JUMPDEST PUSH2 0x76A PUSH1 0x4 DUP1 CALLDATASIZE SUB PUSH1 0x20 DUP2 LT ISZERO PUSH2 0x73E JUMPI PUSH1 0x0 DUP1 REVERT JUMPDEST DUP2 ADD SWAP1 DUP1 DUP1 CALLDATALOAD PUSH20 0xFFFFFFFFFFFFFFFFFFFFFFFFFFFFFFFFFFFFFFFF AND SWAP1 PUSH1 0x20 ADD SWAP1 SWAP3 SWAP2 SWAP1 POP POP POP PUSH2 0x1EC1 JUMP JUMPDEST STOP JUMPDEST PUSH2 0x774 PUSH2 0x20C5 JUMP JUMPDEST PUSH1 0x40 MLOAD DUP1 DUP3 PUSH20 0xFFFFFFFFFFFFFFFFFFFFFFFFFFFFFFFFFFFFFFFF AND DUP2 MSTORE PUSH1 0x20 ADD SWAP2 POP POP PUSH1 0x40 MLOAD DUP1 SWAP2 SUB SWAP1 RETURN JUMPDEST PUSH2 0x7D6 PUSH1 0x4 DUP1 CALLDATASIZE SUB PUSH1 0x40 DUP2 LT ISZERO PUSH2 0x7B6 JUMPI PUSH1 0x0 DUP1 REVERT JUMPDEST DUP2 ADD SWAP1 DUP1 DUP1 CALLDATALOAD SWAP1 PUSH1 0x20 ADD SWAP1 SWAP3 SWAP2 SWAP1 DUP1 CALLDATALOAD SWAP1 PUSH1 0x20 ADD SWAP1 SWAP3 SWAP2 SWAP1 POP POP POP PUSH2 0x20EE JUMP JUMPDEST PUSH1 0x40 MLOAD DUP1 DUP3 DUP2 MSTORE PUSH1 0x20 ADD SWAP2 POP POP PUSH1 0x40 MLOAD DUP1 SWAP2 SUB SWAP1 RETURN JUMPDEST PUSH2 0x842 PUSH1 0x4 DUP1 CALLDATASIZE SUB PUSH1 0x60 DUP2 LT ISZERO PUSH2 0x802 JUMPI PUSH1 0x0 DUP1 REVERT JUMPDEST DUP2 ADD SWAP1 DUP1 DUP1 CALLDATALOAD SWAP1 PUSH1 0x20 ADD SWAP1 SWAP3 SWAP2 SWAP1 DUP1 CALLDATALOAD SWAP1 PUSH1 0x20 ADD SWAP1 SWAP3 SWAP2 SWAP1 DUP1 CALLDATALOAD PUSH20 0xFFFFFFFFFFFFFFFFFFFFFFFFFFFFFFFFFFFFFFFF AND SWAP1 PUSH1 0x20 ADD SWAP1 SWAP3 SWAP2 SWAP1 POP POP POP PUSH2 0x210B JUMP JUMPDEST STOP JUMPDEST PUSH2 0x84C PUSH2 0x2529 JUMP JUMPDEST PUSH1 0x40 MLOAD DUP1 DUP3 DUP2 MSTORE PUSH1 0x20 ADD SWAP2 POP POP PUSH1 0x40 MLOAD DUP1 SWAP2 SUB SWAP1 RETURN JUMPDEST PUSH2 0x8AE PUSH1 0x4 DUP1 CALLDATASIZE SUB PUSH1 0x40 DUP2 LT ISZERO PUSH2 0x878 JUMPI PUSH1 0x0 DUP1 REVERT JUMPDEST DUP2 ADD SWAP1 DUP1 DUP1 CALLDATALOAD SWAP1 PUSH1 0x20 ADD SWAP1 SWAP3 SWAP2 SWAP1 DUP1 CALLDATALOAD PUSH20 0xFFFFFFFFFFFFFFFFFFFFFFFFFFFFFFFFFFFFFFFF AND SWAP1 PUSH1 0x20 ADD SWAP1 SWAP3 SWAP2 SWAP1 POP POP POP PUSH2 0x2535 JUMP JUMPDEST PUSH1 0x40 MLOAD DUP1 DUP4 DUP2 MSTORE PUSH1 0x20 ADD DUP3 DUP2 MSTORE PUSH1 0x20 ADD SWAP3 POP POP POP PUSH1 0x40 MLOAD DUP1 SWAP2 SUB SWAP1 RETURN JUMPDEST PUSH2 0x8D3 PUSH2 0x2566 JUMP JUMPDEST PUSH1 0x40 MLOAD DUP1 DUP3 PUSH2 0xFFFF AND DUP2 MSTORE PUSH1 0x20 ADD SWAP2 POP POP PUSH1 0x40 MLOAD DUP1 SWAP2 SUB SWAP1 RETURN JUMPDEST PUSH2 0x92F PUSH1 0x4 DUP1 CALLDATASIZE SUB PUSH1 0x20 DUP2 LT ISZERO PUSH2 0x903 JUMPI PUSH1 0x0 DUP1 REVERT JUMPDEST DUP2 ADD SWAP1 DUP1 DUP1 CALLDATALOAD PUSH20 0xFFFFFFFFFFFFFFFFFFFFFFFFFFFFFFFFFFFFFFFF AND SWAP1 PUSH1 0x20 ADD SWAP1 SWAP3 SWAP2 SWAP1 POP POP POP PUSH2 0x256C JUMP JUMPDEST PUSH1 0x40 MLOAD DUP1 DUP3 DUP2 MSTORE PUSH1 0x20 ADD SWAP2 POP POP PUSH1 0x40 MLOAD DUP1 SWAP2 SUB SWAP1 RETURN JUMPDEST PUSH2 0x971 PUSH1 0x4 DUP1 CALLDATASIZE SUB PUSH1 0x20 DUP2 LT ISZERO PUSH2 0x95B JUMPI PUSH1 0x0 DUP1 REVERT JUMPDEST DUP2 ADD SWAP1 DUP1 DUP1 CALLDATALOAD SWAP1 PUSH1 0x20 ADD SWAP1 SWAP3 SWAP2 SWAP1 POP POP POP PUSH2 0x2584 JUMP JUMPDEST STOP JUMPDEST PUSH2 0x97B PUSH2 0x2656 JUMP JUMPDEST PUSH1 0x40 MLOAD DUP1 DUP3 PUSH20 0xFFFFFFFFFFFFFFFFFFFFFFFFFFFFFFFFFFFFFFFF AND DUP2 MSTORE PUSH1 0x20 ADD SWAP2 POP POP PUSH1 0x40 MLOAD DUP1 SWAP2 SUB SWAP1 RETURN JUMPDEST PUSH2 0x9AF PUSH2 0x267C JUMP JUMPDEST PUSH1 0x40 MLOAD DUP1 DUP3 DUP2 MSTORE PUSH1 0x20 ADD SWAP2 POP POP PUSH1 0x40 MLOAD DUP1 SWAP2 SUB SWAP1 RETURN JUMPDEST PUSH2 0xA07 PUSH1 0x4 DUP1 CALLDATASIZE SUB PUSH1 0x20 DUP2 LT ISZERO PUSH2 0x9DB JUMPI PUSH1 0x0 DUP1 REVERT JUMPDEST DUP2 ADD SWAP1 DUP1 DUP1 CALLDATALOAD PUSH20 0xFFFFFFFFFFFFFFFFFFFFFFFFFFFFFFFFFFFFFFFF AND SWAP1 PUSH1 0x20 ADD SWAP1 SWAP3 SWAP2 SWAP1 POP POP POP PUSH2 0x2682 JUMP JUMPDEST PUSH1 0x40 MLOAD DUP1 DUP3 ISZERO ISZERO DUP2 MSTORE PUSH1 0x20 ADD SWAP2 POP POP PUSH1 0x40 MLOAD DUP1 SWAP2 SUB SWAP1 RETURN JUMPDEST PUSH2 0xA61 PUSH1 0x4 DUP1 CALLDATASIZE SUB PUSH1 0x20 DUP2 LT ISZERO PUSH2 0xA35 JUMPI PUSH1 0x0 DUP1 REVERT JUMPDEST DUP2 ADD SWAP1 DUP1 DUP1 CALLDATALOAD PUSH20 0xFFFFFFFFFFFFFFFFFFFFFFFFFFFFFFFFFFFFFFFF AND SWAP1 PUSH1 0x20 ADD SWAP1 SWAP3 SWAP2 SWAP1 POP POP POP PUSH2 0x26A2 JUMP JUMPDEST STOP JUMPDEST PUSH2 0xA6B PUSH2 0x28A6 JUMP JUMPDEST PUSH1 0x40 MLOAD DUP1 DUP3 DUP2 MSTORE PUSH1 0x20 ADD SWAP2 POP POP PUSH1 0x40 MLOAD DUP1 SWAP2 SUB SWAP1 RETURN JUMPDEST PUSH2 0xAD1 PUSH1 0x4 DUP1 CALLDATASIZE SUB PUSH1 0x80 DUP2 LT ISZERO PUSH2 0xA97 JUMPI PUSH1 0x0 DUP1 REVERT JUMPDEST DUP2 ADD SWAP1 DUP1 DUP1 CALLDATALOAD SWAP1 PUSH1 0x20 ADD SWAP1 SWAP3 SWAP2 SWAP1 DUP1 CALLDATALOAD SWAP1 PUSH1 0x20 ADD SWAP1 SWAP3 SWAP2 SWAP1 DUP1 CALLDATALOAD PUSH2 0xFFFF AND SWAP1 PUSH1 0x20 ADD SWAP1 SWAP3 SWAP2 SWAP1 DUP1 CALLDATALOAD ISZERO ISZERO SWAP1 PUSH1 0x20 ADD SWAP1 SWAP3 SWAP2 SWAP1 POP POP POP PUSH2 0x28AC JUMP JUMPDEST STOP JUMPDEST PUSH2 0xADB PUSH2 0x2A93 JUMP JUMPDEST PUSH1 0x40 MLOAD DUP1 DUP3 PUSH20 0xFFFFFFFFFFFFFFFFFFFFFFFFFFFFFFFFFFFFFFFF AND DUP2 MSTORE PUSH1 0x20 ADD SWAP2 POP POP PUSH1 0x40 MLOAD DUP1 SWAP2 SUB SWAP1 RETURN JUMPDEST PUSH2 0xB53 PUSH1 0x4 DUP1 CALLDATASIZE SUB PUSH1 0x40 DUP2 LT ISZERO PUSH2 0xB1D JUMPI PUSH1 0x0 DUP1 REVERT JUMPDEST DUP2 ADD SWAP1 DUP1 DUP1 CALLDATALOAD SWAP1 PUSH1 0x20 ADD SWAP1 SWAP3 SWAP2 SWAP1 DUP1 CALLDATALOAD PUSH20 0xFFFFFFFFFFFFFFFFFFFFFFFFFFFFFFFFFFFFFFFF AND SWAP1 PUSH1 0x20 ADD SWAP1 SWAP3 SWAP2 SWAP1 POP POP POP PUSH2 0x2AB9 JUMP JUMPDEST PUSH1 0x40 MLOAD DUP1 DUP3 DUP2 MSTORE PUSH1 0x20 ADD SWAP2 POP POP PUSH1 0x40 MLOAD DUP1 SWAP2 SUB SWAP1 RETURN JUMPDEST PUSH2 0xB9F PUSH1 0x4 DUP1 CALLDATASIZE SUB PUSH1 0x40 DUP2 LT ISZERO PUSH2 0xB7F JUMPI PUSH1 0x0 DUP1 REVERT JUMPDEST DUP2 ADD SWAP1 DUP1 DUP1 CALLDATALOAD SWAP1 PUSH1 0x20 ADD SWAP1 SWAP3 SWAP2 SWAP1 DUP1 CALLDATALOAD SWAP1 PUSH1 0x20 ADD SWAP1 SWAP3 SWAP2 SWAP1 POP POP POP PUSH2 0x2CFF JUMP JUMPDEST STOP JUMPDEST PUSH2 0xBA9 PUSH2 0x3084 JUMP JUMPDEST STOP JUMPDEST PUSH2 0xBED PUSH1 0x4 DUP1 CALLDATASIZE SUB PUSH1 0x20 DUP2 LT ISZERO PUSH2 0xBC1 JUMPI PUSH1 0x0 DUP1 REVERT JUMPDEST DUP2 ADD SWAP1 DUP1 DUP1 CALLDATALOAD PUSH20 0xFFFFFFFFFFFFFFFFFFFFFFFFFFFFFFFFFFFFFFFF AND SWAP1 PUSH1 0x20 ADD SWAP1 SWAP3 SWAP2 SWAP1 POP POP POP PUSH2 0x32DA JUMP JUMPDEST STOP JUMPDEST PUSH1 0x0 PUSH1 0x6 DUP1 SLOAD SWAP1 POP SWAP1 POP SWAP1 JUMP JUMPDEST PUSH1 0x6 DUP2 DUP2 SLOAD DUP2 LT PUSH2 0xC09 JUMPI INVALID JUMPDEST SWAP1 PUSH1 0x0 MSTORE PUSH1 0x20 PUSH1 0x0 KECCAK256 SWAP1 PUSH1 0x5 MUL ADD PUSH1 0x0 SWAP2 POP SWAP1 POP DUP1 PUSH1 0x0 ADD PUSH1 0x0 SWAP1 SLOAD SWAP1 PUSH2 0x100 EXP SWAP1 DIV PUSH20 0xFFFFFFFFFFFFFFFFFFFFFFFFFFFFFFFFFFFFFFFF AND SWAP1 DUP1 PUSH1 0x1 ADD SLOAD SWAP1 DUP1 PUSH1 0x2 ADD SLOAD SWAP1 DUP1 PUSH1 0x3 ADD SLOAD SWAP1 DUP1 PUSH1 0x4 ADD PUSH1 0x0 SWAP1 SLOAD SWAP1 PUSH2 0x100 EXP SWAP1 DIV PUSH2 0xFFFF AND SWAP1 POP DUP6 JUMP JUMPDEST PUSH1 0x8 SLOAD DUP2 JUMP JUMPDEST PUSH1 0x0 DUP1 ISZERO ISZERO PUSH1 0xD PUSH1 0x0 DUP5 PUSH20 0xFFFFFFFFFFFFFFFFFFFFFFFFFFFFFFFFFFFFFFFF AND PUSH20 0xFFFFFFFFFFFFFFFFFFFFFFFFFFFFFFFFFFFFFFFF AND DUP2 MSTORE PUSH1 0x20 ADD SWAP1 DUP2 MSTORE PUSH1 0x20 ADD PUSH1 0x0 KECCAK256 PUSH1 0x0 SWAP1 SLOAD SWAP1 PUSH2 0x100 EXP SWAP1 DIV PUSH1 0xFF AND ISZERO ISZERO EQ ISZERO PUSH2 0xD1E JUMPI PUSH1 0x40 MLOAD PUSH32 0x8C379A000000000000000000000000000000000000000000000000000000000 DUP2 MSTORE PUSH1 0x4 ADD DUP1 DUP1 PUSH1 0x20 ADD DUP3 DUP2 SUB DUP3 MSTORE PUSH1 0x21 DUP2 MSTORE PUSH1 0x20 ADD DUP1 PUSH2 0x45EB PUSH1 0x21 SWAP2 CODECOPY PUSH1 0x40 ADD SWAP2 POP POP PUSH1 0x40 MLOAD DUP1 SWAP2 SUB SWAP1 REVERT JUMPDEST PUSH1 0xE PUSH1 0x0 DUP4 PUSH20 0xFFFFFFFFFFFFFFFFFFFFFFFFFFFFFFFFFFFFFFFF AND PUSH20 0xFFFFFFFFFFFFFFFFFFFFFFFFFFFFFFFFFFFFFFFF AND DUP2 MSTORE PUSH1 0x20 ADD SWAP1 DUP2 MSTORE PUSH1 0x20 ADD PUSH1 0x0 KECCAK256 SLOAD SWAP1 POP SWAP2 SWAP1 POP JUMP JUMPDEST PUSH2 0x7D0 DUP2 JUMP JUMPDEST PUSH1 0x0 PUSH1 0xB PUSH1 0x0 DUP4 PUSH20 0xFFFFFFFFFFFFFFFFFFFFFFFFFFFFFFFFFFFFFFFF AND PUSH20 0xFFFFFFFFFFFFFFFFFFFFFFFFFFFFFFFFFFFFFFFF AND DUP2 MSTORE PUSH1 0x20 ADD SWAP1 DUP2 MSTORE PUSH1 0x20 ADD PUSH1 0x0 KECCAK256 PUSH1 0x0 SWAP1 SLOAD SWAP1 PUSH2 0x100 EXP SWAP1 DIV PUSH20 0xFFFFFFFFFFFFFFFFFFFFFFFFFFFFFFFFFFFFFFFF AND SWAP1 POP SWAP2 SWAP1 POP JUMP JUMPDEST PUSH1 0xC PUSH1 0x20 MSTORE DUP1 PUSH1 0x0 MSTORE PUSH1 0x40 PUSH1 0x0 KECCAK256 PUSH1 0x0 SWAP2 POP SWAP1 POP SLOAD DUP2 JUMP JUMPDEST PUSH1 0x5 PUSH1 0x0 SWAP1 SLOAD SWAP1 PUSH2 0x100 EXP SWAP1 DIV PUSH20 0xFFFFFFFFFFFFFFFFFFFFFFFFFFFFFFFFFFFFFFFF AND DUP2 JUMP JUMPDEST PUSH1 0x2 PUSH1 0x1 SLOAD EQ ISZERO PUSH2 0xE8B JUMPI PUSH1 0x40 MLOAD PUSH32 0x8C379A000000000000000000000000000000000000000000000000000000000 DUP2 MSTORE PUSH1 0x4 ADD DUP1 DUP1 PUSH1 0x20 ADD DUP3 DUP2 SUB DUP3 MSTORE PUSH1 0x1F DUP2 MSTORE PUSH1 0x20 ADD DUP1 PUSH32 0x5265656E7472616E637947756172643A207265656E7472616E742063616C6C00 DUP2 MSTORE POP PUSH1 0x20 ADD SWAP2 POP POP PUSH1 0x40 MLOAD DUP1 SWAP2 SUB SWAP1 REVERT JUMPDEST PUSH1 0x2 PUSH1 0x1 DUP2 SWAP1 SSTORE POP PUSH1 0x0 PUSH1 0x6 DUP4 DUP2 SLOAD DUP2 LT PUSH2 0xEA2 JUMPI INVALID JUMPDEST SWAP1 PUSH1 0x0 MSTORE PUSH1 0x20 PUSH1 0x0 KECCAK256 SWAP1 PUSH1 0x5 MUL ADD SWAP1 POP PUSH1 0x0 PUSH1 0x7 PUSH1 0x0 DUP6 DUP2 MSTORE PUSH1 0x20 ADD SWAP1 DUP2 MSTORE PUSH1 0x20 ADD PUSH1 0x0 KECCAK256 PUSH1 0x0 CALLER PUSH20 0xFFFFFFFFFFFFFFFFFFFFFFFFFFFFFFFFFFFFFFFF AND PUSH20 0xFFFFFFFFFFFFFFFFFFFFFFFFFFFFFFFFFFFFFFFF AND DUP2 MSTORE PUSH1 0x20 ADD SWAP1 DUP2 MSTORE PUSH1 0x20 ADD PUSH1 0x0 KECCAK256 SWAP1 POP DUP3 DUP2 PUSH1 0x0 ADD SLOAD LT ISZERO PUSH2 0xF80 JUMPI PUSH1 0x40 MLOAD PUSH32 0x8C379A000000000000000000000000000000000000000000000000000000000 DUP2 MSTORE PUSH1 0x4 ADD DUP1 DUP1 PUSH1 0x20 ADD DUP3 DUP2 SUB DUP3 MSTORE PUSH1 0x12 DUP2 MSTORE PUSH1 0x20 ADD DUP1 PUSH32 0x77697468647261773A206E6F7420676F6F640000000000000000000000000000 DUP2 MSTORE POP PUSH1 0x20 ADD SWAP2 POP POP PUSH1 0x40 MLOAD DUP1 SWAP2 SUB SWAP1 REVERT JUMPDEST PUSH2 0xF89 DUP5 PUSH2 0x114E JUMP JUMPDEST PUSH1 0x0 PUSH2 0xFD3 DUP3 PUSH1 0x1 ADD SLOAD PUSH2 0xFC5 PUSH5 0xE8D4A51000 PUSH2 0xFB7 DUP8 PUSH1 0x3 ADD SLOAD DUP8 PUSH1 0x0 ADD SLOAD PUSH2 0x33AE SWAP1 SWAP2 SWAP1 PUSH4 0xFFFFFFFF AND JUMP JUMPDEST PUSH2 0x3434 SWAP1 SWAP2 SWAP1 PUSH4 0xFFFFFFFF AND JUMP JUMPDEST PUSH2 0x347E SWAP1 SWAP2 SWAP1 PUSH4 0xFFFFFFFF AND JUMP JUMPDEST SWAP1 POP PUSH1 0x0 DUP2 GT ISZERO PUSH2 0xFF3 JUMPI PUSH2 0xFE8 CALLER DUP3 PUSH2 0x34C8 JUMP JUMPDEST PUSH2 0xFF2 CALLER DUP3 PUSH2 0x379C JUMP JUMPDEST JUMPDEST PUSH1 0x0 DUP5 GT ISZERO PUSH2 0x106B JUMPI PUSH2 0x1013 DUP5 DUP4 PUSH1 0x0 ADD SLOAD PUSH2 0x347E SWAP1 SWAP2 SWAP1 PUSH4 0xFFFFFFFF AND JUMP JUMPDEST DUP3 PUSH1 0x0 ADD DUP2 SWAP1 SSTORE POP PUSH2 0x106A CALLER DUP6 DUP6 PUSH1 0x0 ADD PUSH1 0x0 SWAP1 SLOAD SWAP1 PUSH2 0x100 EXP SWAP1 DIV PUSH20 0xFFFFFFFFFFFFFFFFFFFFFFFFFFFFFFFFFFFFFFFF AND PUSH20 0xFFFFFFFFFFFFFFFFFFFFFFFFFFFFFFFFFFFFFFFF AND PUSH2 0x3969 SWAP1 SWAP3 SWAP2 SWAP1 PUSH4 0xFFFFFFFF AND JUMP JUMPDEST JUMPDEST PUSH2 0x109D PUSH5 0xE8D4A51000 PUSH2 0x108F DUP6 PUSH1 0x3 ADD SLOAD DUP6 PUSH1 0x0 ADD SLOAD PUSH2 0x33AE SWAP1 SWAP2 SWAP1 PUSH4 0xFFFFFFFF AND JUMP JUMPDEST PUSH2 0x3434 SWAP1 SWAP2 SWAP1 PUSH4 0xFFFFFFFF AND JUMP JUMPDEST DUP3 PUSH1 0x1 ADD DUP2 SWAP1 SSTORE POP DUP5 CALLER PUSH20 0xFFFFFFFFFFFFFFFFFFFFFFFFFFFFFFFFFFFFFFFF AND PUSH32 0xF279E6A1F5E320CCA91135676D9CB6E44CA8A08C0B88342BCDB1144F6511B568 DUP7 PUSH1 0x40 MLOAD DUP1 DUP3 DUP2 MSTORE PUSH1 0x20 ADD SWAP2 POP POP PUSH1 0x40 MLOAD DUP1 SWAP2 SUB SWAP1 LOG3 POP POP POP PUSH1 0x1 DUP1 DUP2 SWAP1 SSTORE POP POP POP JUMP JUMPDEST PUSH1 0x10 PUSH1 0x0 SWAP1 SLOAD SWAP1 PUSH2 0x100 EXP SWAP1 DIV PUSH1 0xFF AND DUP2 JUMP JUMPDEST PUSH1 0x9 SLOAD DUP2 JUMP JUMPDEST PUSH1 0xB PUSH1 0x20 MSTORE DUP1 PUSH1 0x0 MSTORE PUSH1 0x40 PUSH1 0x0 KECCAK256 PUSH1 0x0 SWAP2 POP SLOAD SWAP1 PUSH2 0x100 EXP SWAP1 DIV PUSH20 0xFFFFFFFFFFFFFFFFFFFFFFFFFFFFFFFFFFFFFFFF AND DUP2 JUMP JUMPDEST PUSH1 0x0 PUSH1 0x6 DUP3 DUP2 SLOAD DUP2 LT PUSH2 0x115D JUMPI INVALID JUMPDEST SWAP1 PUSH1 0x0 MSTORE PUSH1 0x20 PUSH1 0x0 KECCAK256 SWAP1 PUSH1 0x5 MUL ADD SWAP1 POP DUP1 PUSH1 0x2 ADD SLOAD NUMBER GT PUSH2 0x117E JUMPI POP PUSH2 0x14A6 JUMP JUMPDEST PUSH1 0x0 DUP2 PUSH1 0x0 ADD PUSH1 0x0 SWAP1 SLOAD SWAP1 PUSH2 0x100 EXP SWAP1 DIV PUSH20 0xFFFFFFFFFFFFFFFFFFFFFFFFFFFFFFFFFFFFFFFF AND PUSH20 0xFFFFFFFFFFFFFFFFFFFFFFFFFFFFFFFFFFFFFFFF AND PUSH4 0x70A08231 ADDRESS PUSH1 0x40 MLOAD DUP3 PUSH4 0xFFFFFFFF AND PUSH1 0xE0 SHL DUP2 MSTORE PUSH1 0x4 ADD DUP1 DUP3 PUSH20 0xFFFFFFFFFFFFFFFFFFFFFFFFFFFFFFFFFFFFFFFF AND DUP2 MSTORE PUSH1 0x20 ADD SWAP2 POP POP PUSH1 0x20 PUSH1 0x40 MLOAD DUP1 DUP4 SUB DUP2 DUP7 DUP1 EXTCODESIZE ISZERO DUP1 ISZERO PUSH2 0x120B JUMPI PUSH1 0x0 DUP1 REVERT JUMPDEST POP GAS STATICCALL ISZERO DUP1 ISZERO PUSH2 0x121F JUMPI RETURNDATASIZE PUSH1 0x0 DUP1 RETURNDATACOPY RETURNDATASIZE PUSH1 0x0 REVERT JUMPDEST POP POP POP POP PUSH1 0x40 MLOAD RETURNDATASIZE PUSH1 0x20 DUP2 LT ISZERO PUSH2 0x1235 JUMPI PUSH1 0x0 DUP1 REVERT JUMPDEST DUP2 ADD SWAP1 DUP1 DUP1 MLOAD SWAP1 PUSH1 0x20 ADD SWAP1 SWAP3 SWAP2 SWAP1 POP POP POP SWAP1 POP PUSH1 0x0 DUP2 EQ DUP1 PUSH2 0x125B JUMPI POP PUSH1 0x0 DUP3 PUSH1 0x1 ADD SLOAD EQ JUMPDEST ISZERO PUSH2 0x1270 JUMPI NUMBER DUP3 PUSH1 0x2 ADD DUP2 SWAP1 SSTORE POP POP POP PUSH2 0x14A6 JUMP JUMPDEST PUSH1 0x0 PUSH2 0x1280 DUP4 PUSH1 0x2 ADD SLOAD NUMBER PUSH2 0x20EE JUMP JUMPDEST SWAP1 POP PUSH1 0x0 PUSH2 0x12C3 PUSH1 0x8 SLOAD PUSH2 0x12B5 DUP7 PUSH1 0x1 ADD SLOAD PUSH2 0x12A7 PUSH1 0x4 SLOAD DUP8 PUSH2 0x33AE SWAP1 SWAP2 SWAP1 PUSH4 0xFFFFFFFF AND JUMP JUMPDEST PUSH2 0x33AE SWAP1 SWAP2 SWAP1 PUSH4 0xFFFFFFFF AND JUMP JUMPDEST PUSH2 0x3434 SWAP1 SWAP2 SWAP1 PUSH4 0xFFFFFFFF AND JUMP JUMPDEST SWAP1 POP PUSH1 0x2 PUSH1 0x0 SWAP1 SLOAD SWAP1 PUSH2 0x100 EXP SWAP1 DIV PUSH20 0xFFFFFFFFFFFFFFFFFFFFFFFFFFFFFFFFFFFFFFFF AND PUSH20 0xFFFFFFFFFFFFFFFFFFFFFFFFFFFFFFFFFFFFFFFF AND PUSH4 0x40C10F19 PUSH1 0x3 PUSH1 0x0 SWAP1 SLOAD SWAP1 PUSH2 0x100 EXP SWAP1 DIV PUSH20 0xFFFFFFFFFFFFFFFFFFFFFFFFFFFFFFFFFFFFFFFF AND PUSH2 0x133A PUSH1 0xA DUP6 PUSH2 0x3434 SWAP1 SWAP2 SWAP1 PUSH4 0xFFFFFFFF AND JUMP JUMPDEST PUSH1 0x40 MLOAD DUP4 PUSH4 0xFFFFFFFF AND PUSH1 0xE0 SHL DUP2 MSTORE PUSH1 0x4 ADD DUP1 DUP4 PUSH20 0xFFFFFFFFFFFFFFFFFFFFFFFFFFFFFFFFFFFFFFFF AND DUP2 MSTORE PUSH1 0x20 ADD DUP3 DUP2 MSTORE PUSH1 0x20 ADD SWAP3 POP POP POP PUSH1 0x0 PUSH1 0x40 MLOAD DUP1 DUP4 SUB DUP2 PUSH1 0x0 DUP8 DUP1 EXTCODESIZE ISZERO DUP1 ISZERO PUSH2 0x138D JUMPI PUSH1 0x0 DUP1 REVERT JUMPDEST POP GAS CALL ISZERO DUP1 ISZERO PUSH2 0x13A1 JUMPI RETURNDATASIZE PUSH1 0x0 DUP1 RETURNDATACOPY RETURNDATASIZE PUSH1 0x0 REVERT JUMPDEST POP POP POP POP PUSH1 0x2 PUSH1 0x0 SWAP1 SLOAD SWAP1 PUSH2 0x100 EXP SWAP1 DIV PUSH20 0xFFFFFFFFFFFFFFFFFFFFFFFFFFFFFFFFFFFFFFFF AND PUSH20 0xFFFFFFFFFFFFFFFFFFFFFFFFFFFFFFFFFFFFFFFF AND PUSH4 0x40C10F19 ADDRESS DUP4 PUSH1 0x40 MLOAD DUP4 PUSH4 0xFFFFFFFF AND PUSH1 0xE0 SHL DUP2 MSTORE PUSH1 0x4 ADD DUP1 DUP4 PUSH20 0xFFFFFFFFFFFFFFFFFFFFFFFFFFFFFFFFFFFFFFFF AND DUP2 MSTORE PUSH1 0x20 ADD DUP3 DUP2 MSTORE PUSH1 0x20 ADD SWAP3 POP POP POP PUSH1 0x0 PUSH1 0x40 MLOAD DUP1 DUP4 SUB DUP2 PUSH1 0x0 DUP8 DUP1 EXTCODESIZE ISZERO DUP1 ISZERO PUSH2 0x1438 JUMPI PUSH1 0x0 DUP1 REVERT JUMPDEST POP GAS CALL ISZERO DUP1 ISZERO PUSH2 0x144C JUMPI RETURNDATASIZE PUSH1 0x0 DUP1 RETURNDATACOPY RETURNDATASIZE PUSH1 0x0 REVERT JUMPDEST POP POP POP POP PUSH2 0x1490 PUSH2 0x147D DUP5 PUSH2 0x146F PUSH5 0xE8D4A51000 DUP6 PUSH2 0x33AE SWAP1 SWAP2 SWAP1 PUSH4 0xFFFFFFFF AND JUMP JUMPDEST PUSH2 0x3434 SWAP1 SWAP2 SWAP1 PUSH4 0xFFFFFFFF AND JUMP JUMPDEST DUP6 PUSH1 0x3 ADD SLOAD PUSH2 0x3A0B SWAP1 SWAP2 SWAP1 PUSH4 0xFFFFFFFF AND JUMP JUMPDEST DUP5 PUSH1 0x3 ADD DUP2 SWAP1 SSTORE POP NUMBER DUP5 PUSH1 0x2 ADD DUP2 SWAP1 SSTORE POP POP POP POP POP JUMPDEST POP JUMP JUMPDEST PUSH1 0x2 PUSH1 0x1 SLOAD EQ ISZERO PUSH2 0x1522 JUMPI PUSH1 0x40 MLOAD PUSH32 0x8C379A000000000000000000000000000000000000000000000000000000000 DUP2 MSTORE PUSH1 0x4 ADD DUP1 DUP1 PUSH1 0x20 ADD DUP3 DUP2 SUB DUP3 MSTORE PUSH1 0x1F DUP2 MSTORE PUSH1 0x20 ADD DUP1 PUSH32 0x5265656E7472616E637947756172643A207265656E7472616E742063616C6C00 DUP2 MSTORE POP PUSH1 0x20 ADD SWAP2 POP POP PUSH1 0x40 MLOAD DUP1 SWAP2 SUB SWAP1 REVERT JUMPDEST PUSH1 0x2 PUSH1 0x1 DUP2 SWAP1 SSTORE POP PUSH1 0x0 PUSH1 0x6 DUP3 DUP2 SLOAD DUP2 LT PUSH2 0x1539 JUMPI INVALID JUMPDEST SWAP1 PUSH1 0x0 MSTORE PUSH1 0x20 PUSH1 0x0 KECCAK256 SWAP1 PUSH1 0x5 MUL ADD SWAP1 POP PUSH1 0x0 PUSH1 0x7 PUSH1 0x0 DUP5 DUP2 MSTORE PUSH1 0x20 ADD SWAP1 DUP2 MSTORE PUSH1 0x20 ADD PUSH1 0x0 KECCAK256 PUSH1 0x0 CALLER PUSH20 0xFFFFFFFFFFFFFFFFFFFFFFFFFFFFFFFFFFFFFFFF AND PUSH20 0xFFFFFFFFFFFFFFFFFFFFFFFFFFFFFFFFFFFFFFFF AND DUP2 MSTORE PUSH1 0x20 ADD SWAP1 DUP2 MSTORE PUSH1 0x20 ADD PUSH1 0x0 KECCAK256 SWAP1 POP PUSH2 0x15F0 CALLER DUP3 PUSH1 0x0 ADD SLOAD DUP5 PUSH1 0x0 ADD PUSH1 0x0 SWAP1 SLOAD SWAP1 PUSH2 0x100 EXP SWAP1 DIV PUSH20 0xFFFFFFFFFFFFFFFFFFFFFFFFFFFFFFFFFFFFFFFF AND PUSH20 0xFFFFFFFFFFFFFFFFFFFFFFFFFFFFFFFFFFFFFFFF AND PUSH2 0x3969 SWAP1 SWAP3 SWAP2 SWAP1 PUSH4 0xFFFFFFFF AND JUMP JUMPDEST DUP3 CALLER PUSH20 0xFFFFFFFFFFFFFFFFFFFFFFFFFFFFFFFFFFFFFFFF AND PUSH32 0xBB757047C2B5F3974FE26B7C10F732E7BCE710B0952A71082702781E62AE0595 DUP4 PUSH1 0x0 ADD SLOAD PUSH1 0x40 MLOAD DUP1 DUP3 DUP2 MSTORE PUSH1 0x20 ADD SWAP2 POP POP PUSH1 0x40 MLOAD DUP1 SWAP2 SUB SWAP1 LOG3 PUSH1 0x0 DUP2 PUSH1 0x0 ADD DUP2 SWAP1 SSTORE POP PUSH1 0x0 DUP2 PUSH1 0x1 ADD DUP2 SWAP1 SSTORE POP POP POP PUSH1 0x1 DUP1 DUP2 SWAP1 SSTORE POP POP JUMP JUMPDEST PUSH7 0xB1A2BC2EC50000 DUP2 JUMP JUMPDEST PUSH1 0x0 PUSH1 0x6 DUP1 SLOAD SWAP1 POP SWAP1 POP PUSH1 0x0 JUMPDEST DUP2 DUP2 LT ISZERO PUSH2 0x1697 JUMPI PUSH2 0x168C DUP2 PUSH2 0x114E JUMP JUMPDEST DUP1 PUSH1 0x1 ADD SWAP1 POP PUSH2 0x167B JUMP JUMPDEST POP POP JUMP JUMPDEST PUSH2 0x16A3 PUSH2 0x3A93 JUMP JUMPDEST PUSH20 0xFFFFFFFFFFFFFFFFFFFFFFFFFFFFFFFFFFFFFFFF AND PUSH1 0x0 DUP1 SLOAD SWAP1 PUSH2 0x100 EXP SWAP1 DIV PUSH20 0xFFFFFFFFFFFFFFFFFFFFFFFFFFFFFFFFFFFFFFFF AND PUSH20 0xFFFFFFFFFFFFFFFFFFFFFFFFFFFFFFFFFFFFFFFF AND EQ PUSH2 0x1763 JUMPI PUSH1 0x40 MLOAD PUSH32 0x8C379A000000000000000000000000000000000000000000000000000000000 DUP2 MSTORE PUSH1 0x4 ADD DUP1 DUP1 PUSH1 0x20 ADD DUP3 DUP2 SUB DUP3 MSTORE PUSH1 0x20 DUP2 MSTORE PUSH1 0x20 ADD DUP1 PUSH32 0x4F776E61626C653A2063616C6C6572206973206E6F7420746865206F776E6572 DUP2 MSTORE POP PUSH1 0x20 ADD SWAP2 POP POP PUSH1 0x40 MLOAD DUP1 SWAP2 SUB SWAP1 REVERT JUMPDEST PUSH2 0x7D0 PUSH2 0xFFFF AND DUP2 GT ISZERO PUSH2 0x17C2 JUMPI PUSH1 0x40 MLOAD PUSH32 0x8C379A000000000000000000000000000000000000000000000000000000000 DUP2 MSTORE PUSH1 0x4 ADD DUP1 DUP1 PUSH1 0x20 ADD DUP3 DUP2 SUB DUP3 MSTORE PUSH1 0x3A DUP2 MSTORE PUSH1 0x20 ADD DUP1 PUSH2 0x4441 PUSH1 0x3A SWAP2 CODECOPY PUSH1 0x40 ADD SWAP2 POP POP PUSH1 0x40 MLOAD DUP1 SWAP2 SUB SWAP1 REVERT JUMPDEST PUSH1 0xA SLOAD DUP2 EQ ISZERO PUSH2 0x181D JUMPI PUSH1 0x40 MLOAD PUSH32 0x8C379A000000000000000000000000000000000000000000000000000000000 DUP2 MSTORE PUSH1 0x4 ADD DUP1 DUP1 PUSH1 0x20 ADD DUP3 DUP2 SUB DUP3 MSTORE PUSH1 0x28 DUP2 MSTORE PUSH1 0x20 ADD DUP1 PUSH2 0x45C3 PUSH1 0x28 SWAP2 CODECOPY PUSH1 0x40 ADD SWAP2 POP POP PUSH1 0x40 MLOAD DUP1 SWAP2 SUB SWAP1 REVERT JUMPDEST PUSH1 0x0 PUSH1 0xA SLOAD SWAP1 POP DUP2 PUSH1 0xA DUP2 SWAP1 SSTORE POP PUSH32 0x3282B692BFEBF5F35B198A229212CF532C72099026AB54C4B8665382D1086B3F DUP2 DUP4 PUSH1 0x40 MLOAD DUP1 DUP4 DUP2 MSTORE PUSH1 0x20 ADD DUP3 DUP2 MSTORE PUSH1 0x20 ADD SWAP3 POP POP POP PUSH1 0x40 MLOAD DUP1 SWAP2 SUB SWAP1 LOG1 POP POP JUMP JUMPDEST PUSH1 0x4 SLOAD DUP2 JUMP JUMPDEST PUSH1 0xA SLOAD DUP2 JUMP JUMPDEST PUSH1 0xF SLOAD DUP2 JUMP JUMPDEST PUSH2 0x1888 PUSH2 0x3A93 JUMP JUMPDEST PUSH20 0xFFFFFFFFFFFFFFFFFFFFFFFFFFFFFFFFFFFFFFFF AND PUSH1 0x0 DUP1 SLOAD SWAP1 PUSH2 0x100 EXP SWAP1 DIV PUSH20 0xFFFFFFFFFFFFFFFFFFFFFFFFFFFFFFFFFFFFFFFF AND PUSH20 0xFFFFFFFFFFFFFFFFFFFFFFFFFFFFFFFFFFFFFFFF AND EQ PUSH2 0x1948 JUMPI PUSH1 0x40 MLOAD PUSH32 0x8C379A000000000000000000000000000000000000000000000000000000000 DUP2 MSTORE PUSH1 0x4 ADD DUP1 DUP1 PUSH1 0x20 ADD DUP3 DUP2 SUB DUP3 MSTORE PUSH1 0x20 DUP2 MSTORE PUSH1 0x20 ADD DUP1 PUSH32 0x4F776E61626C653A2063616C6C6572206973206E6F7420746865206F776E6572 DUP2 MSTORE POP PUSH1 0x20 ADD SWAP2 POP POP PUSH1 0x40 MLOAD DUP1 SWAP2 SUB SWAP1 REVERT JUMPDEST PUSH1 0x0 PUSH20 0xFFFFFFFFFFFFFFFFFFFFFFFFFFFFFFFFFFFFFFFF AND PUSH1 0x0 DUP1 SLOAD SWAP1 PUSH2 0x100 EXP SWAP1 DIV PUSH20 0xFFFFFFFFFFFFFFFFFFFFFFFFFFFFFFFFFFFFFFFF AND PUSH20 0xFFFFFFFFFFFFFFFFFFFFFFFFFFFFFFFFFFFFFFFF AND PUSH32 0x8BE0079C531659141344CD1FD0A4F28419497F9722A3DAAFE3B4186F6B6457E0 PUSH1 0x40 MLOAD PUSH1 0x40 MLOAD DUP1 SWAP2 SUB SWAP1 LOG3 PUSH1 0x0 DUP1 PUSH1 0x0 PUSH2 0x100 EXP DUP2 SLOAD DUP2 PUSH20 0xFFFFFFFFFFFFFFFFFFFFFFFFFFFFFFFFFFFFFFFF MUL NOT AND SWAP1 DUP4 PUSH20 0xFFFFFFFFFFFFFFFFFFFFFFFFFFFFFFFFFFFFFFFF AND MUL OR SWAP1 SSTORE POP JUMP JUMPDEST PUSH2 0x1A0E PUSH2 0x3A93 JUMP JUMPDEST PUSH20 0xFFFFFFFFFFFFFFFFFFFFFFFFFFFFFFFFFFFFFFFF AND PUSH1 0x0 DUP1 SLOAD SWAP1 PUSH2 0x100 EXP SWAP1 DIV PUSH20 0xFFFFFFFFFFFFFFFFFFFFFFFFFFFFFFFFFFFFFFFF AND PUSH20 0xFFFFFFFFFFFFFFFFFFFFFFFFFFFFFFFFFFFFFFFF AND EQ PUSH2 0x1ACE JUMPI PUSH1 0x40 MLOAD PUSH32 0x8C379A000000000000000000000000000000000000000000000000000000000 DUP2 MSTORE PUSH1 0x4 ADD DUP1 DUP1 PUSH1 0x20 ADD DUP3 DUP2 SUB DUP3 MSTORE PUSH1 0x20 DUP2 MSTORE PUSH1 0x20 ADD DUP1 PUSH32 0x4F776E61626C653A2063616C6C6572206973206E6F7420746865206F776E6572 DUP2 MSTORE POP PUSH1 0x20 ADD SWAP2 POP POP PUSH1 0x40 MLOAD DUP1 SWAP2 SUB SWAP1 REVERT JUMPDEST DUP1 PUSH1 0x10 PUSH1 0x0 PUSH2 0x100 EXP DUP2 SLOAD DUP2 PUSH1 0xFF MUL NOT AND SWAP1 DUP4 ISZERO ISZERO MUL OR SWAP1 SSTORE POP POP JUMP JUMPDEST PUSH2 0x1AF3 PUSH2 0x3A93 JUMP JUMPDEST PUSH20 0xFFFFFFFFFFFFFFFFFFFFFFFFFFFFFFFFFFFFFFFF AND PUSH1 0x0 DUP1 SLOAD SWAP1 PUSH2 0x100 EXP SWAP1 DIV PUSH20 0xFFFFFFFFFFFFFFFFFFFFFFFFFFFFFFFFFFFFFFFF AND PUSH20 0xFFFFFFFFFFFFFFFFFFFFFFFFFFFFFFFFFFFFFFFF AND EQ PUSH2 0x1BB3 JUMPI PUSH1 0x40 MLOAD PUSH32 0x8C379A000000000000000000000000000000000000000000000000000000000 DUP2 MSTORE PUSH1 0x4 ADD DUP1 DUP1 PUSH1 0x20 ADD DUP3 DUP2 SUB DUP3 MSTORE PUSH1 0x20 DUP2 MSTORE PUSH1 0x20 ADD DUP1 PUSH32 0x4F776E61626C653A2063616C6C6572206973206E6F7420746865206F776E6572 DUP2 MSTORE POP PUSH1 0x20 ADD SWAP2 POP POP PUSH1 0x40 MLOAD DUP1 SWAP2 SUB SWAP1 REVERT JUMPDEST DUP3 PUSH1 0x0 ISZERO ISZERO PUSH1 0xD PUSH1 0x0 DUP4 PUSH20 0xFFFFFFFFFFFFFFFFFFFFFFFFFFFFFFFFFFFFFFFF AND PUSH20 0xFFFFFFFFFFFFFFFFFFFFFFFFFFFFFFFFFFFFFFFF AND DUP2 MSTORE PUSH1 0x20 ADD SWAP1 DUP2 MSTORE PUSH1 0x20 ADD PUSH1 0x0 KECCAK256 PUSH1 0x0 SWAP1 SLOAD SWAP1 PUSH2 0x100 EXP SWAP1 DIV PUSH1 0xFF AND ISZERO ISZERO EQ PUSH2 0x1C7A JUMPI PUSH1 0x40 MLOAD PUSH32 0x8C379A000000000000000000000000000000000000000000000000000000000 DUP2 MSTORE PUSH1 0x4 ADD DUP1 DUP1 PUSH1 0x20 ADD DUP3 DUP2 SUB DUP3 MSTORE PUSH1 0x19 DUP2 MSTORE PUSH1 0x20 ADD DUP1 PUSH32 0x6E6F6E4475706C6963617465643A206475706C69636174656400000000000000 DUP2 MSTORE POP PUSH1 0x20 ADD SWAP2 POP POP PUSH1 0x40 MLOAD DUP1 SWAP2 SUB SWAP1 REVERT JUMPDEST PUSH2 0x3E8 PUSH2 0xFFFF AND DUP4 PUSH2 0xFFFF AND GT ISZERO PUSH2 0x1CDD JUMPI PUSH1 0x40 MLOAD PUSH32 0x8C379A000000000000000000000000000000000000000000000000000000000 DUP2 MSTORE PUSH1 0x4 ADD DUP1 DUP1 PUSH1 0x20 ADD DUP3 DUP2 SUB DUP3 MSTORE PUSH1 0x25 DUP2 MSTORE PUSH1 0x20 ADD DUP1 PUSH2 0x441C PUSH1 0x25 SWAP2 CODECOPY PUSH1 0x40 ADD SWAP2 POP POP PUSH1 0x40 MLOAD DUP1 SWAP2 SUB SWAP1 REVERT JUMPDEST DUP2 ISZERO PUSH2 0x1CEC JUMPI PUSH2 0x1CEB PUSH2 0x166E JUMP JUMPDEST JUMPDEST PUSH1 0x0 PUSH1 0x9 SLOAD NUMBER GT PUSH2 0x1CFF JUMPI PUSH1 0x9 SLOAD PUSH2 0x1D01 JUMP JUMPDEST NUMBER JUMPDEST SWAP1 POP PUSH2 0x1D18 DUP7 PUSH1 0x8 SLOAD PUSH2 0x3A0B SWAP1 SWAP2 SWAP1 PUSH4 0xFFFFFFFF AND JUMP JUMPDEST PUSH1 0x8 DUP2 SWAP1 SSTORE POP PUSH1 0x1 PUSH1 0xD PUSH1 0x0 DUP8 PUSH20 0xFFFFFFFFFFFFFFFFFFFFFFFFFFFFFFFFFFFFFFFF AND PUSH20 0xFFFFFFFFFFFFFFFFFFFFFFFFFFFFFFFFFFFFFFFF AND DUP2 MSTORE PUSH1 0x20 ADD SWAP1 DUP2 MSTORE PUSH1 0x20 ADD PUSH1 0x0 KECCAK256 PUSH1 0x0 PUSH2 0x100 EXP DUP2 SLOAD DUP2 PUSH1 0xFF MUL NOT AND SWAP1 DUP4 ISZERO ISZERO MUL OR SWAP1 SSTORE POP PUSH1 0x6 PUSH1 0x40 MLOAD DUP1 PUSH1 0xA0 ADD PUSH1 0x40 MSTORE DUP1 DUP8 PUSH20 0xFFFFFFFFFFFFFFFFFFFFFFFFFFFFFFFFFFFFFFFF AND DUP2 MSTORE PUSH1 0x20 ADD DUP9 DUP2 MSTORE PUSH1 0x20 ADD DUP4 DUP2 MSTORE PUSH1 0x20 ADD PUSH1 0x0 DUP2 MSTORE PUSH1 0x20 ADD DUP7 PUSH2 0xFFFF AND DUP2 MSTORE POP SWAP1 DUP1 PUSH1 0x1 DUP2 SLOAD ADD DUP1 DUP3 SSTORE DUP1 SWAP2 POP POP PUSH1 0x1 SWAP1 SUB SWAP1 PUSH1 0x0 MSTORE PUSH1 0x20 PUSH1 0x0 KECCAK256 SWAP1 PUSH1 0x5 MUL ADD PUSH1 0x0 SWAP1 SWAP2 SWAP1 SWAP2 SWAP1 SWAP2 POP PUSH1 0x0 DUP3 ADD MLOAD DUP2 PUSH1 0x0 ADD PUSH1 0x0 PUSH2 0x100 EXP DUP2 SLOAD DUP2 PUSH20 0xFFFFFFFFFFFFFFFFFFFFFFFFFFFFFFFFFFFFFFFF MUL NOT AND SWAP1 DUP4 PUSH20 0xFFFFFFFFFFFFFFFFFFFFFFFFFFFFFFFFFFFFFFFF AND MUL OR SWAP1 SSTORE POP PUSH1 0x20 DUP3 ADD MLOAD DUP2 PUSH1 0x1 ADD SSTORE PUSH1 0x40 DUP3 ADD MLOAD DUP2 PUSH1 0x2 ADD SSTORE PUSH1 0x60 DUP3 ADD MLOAD DUP2 PUSH1 0x3 ADD SSTORE PUSH1 0x80 DUP3 ADD MLOAD DUP2 PUSH1 0x4 ADD PUSH1 0x0 PUSH2 0x100 EXP DUP2 SLOAD DUP2 PUSH2 0xFFFF MUL NOT AND SWAP1 DUP4 PUSH2 0xFFFF AND MUL OR SWAP1 SSTORE POP POP POP PUSH1 0x1 PUSH1 0x6 DUP1 SLOAD SWAP1 POP SUB PUSH1 0xE PUSH1 0x0 DUP8 PUSH20 0xFFFFFFFFFFFFFFFFFFFFFFFFFFFFFFFFFFFFFFFF AND PUSH20 0xFFFFFFFFFFFFFFFFFFFFFFFFFFFFFFFFFFFFFFFF AND DUP2 MSTORE PUSH1 0x20 ADD SWAP1 DUP2 MSTORE PUSH1 0x20 ADD PUSH1 0x0 KECCAK256 DUP2 SWAP1 SSTORE POP POP POP POP POP POP POP JUMP JUMPDEST PUSH1 0x0 PUSH20 0xFFFFFFFFFFFFFFFFFFFFFFFFFFFFFFFFFFFFFFFF AND DUP2 PUSH20 0xFFFFFFFFFFFFFFFFFFFFFFFFFFFFFFFFFFFFFFFF AND EQ ISZERO PUSH2 0x1F64 JUMPI PUSH1 0x40 MLOAD PUSH32 0x8C379A000000000000000000000000000000000000000000000000000000000 DUP2 MSTORE PUSH1 0x4 ADD DUP1 DUP1 PUSH1 0x20 ADD DUP3 DUP2 SUB DUP3 MSTORE PUSH1 0x1E DUP2 MSTORE PUSH1 0x20 ADD DUP1 PUSH32 0x736574466565416464726573733A20696E76616C696420616464726573730000 DUP2 MSTORE POP PUSH1 0x20 ADD SWAP2 POP POP PUSH1 0x40 MLOAD DUP1 SWAP2 SUB SWAP1 REVERT JUMPDEST PUSH1 0x5 PUSH1 0x0 SWAP1 SLOAD SWAP1 PUSH2 0x100 EXP SWAP1 DIV PUSH20 0xFFFFFFFFFFFFFFFFFFFFFFFFFFFFFFFFFFFFFFFF AND PUSH20 0xFFFFFFFFFFFFFFFFFFFFFFFFFFFFFFFFFFFFFFFF AND CALLER PUSH20 0xFFFFFFFFFFFFFFFFFFFFFFFFFFFFFFFFFFFFFFFF AND EQ PUSH2 0x2027 JUMPI PUSH1 0x40 MLOAD PUSH32 0x8C379A000000000000000000000000000000000000000000000000000000000 DUP2 MSTORE PUSH1 0x4 ADD DUP1 DUP1 PUSH1 0x20 ADD DUP3 DUP2 SUB DUP3 MSTORE PUSH1 0x18 DUP2 MSTORE PUSH1 0x20 ADD DUP1 PUSH32 0x736574466565416464726573733A20464F5242494444454E0000000000000000 DUP2 MSTORE POP PUSH1 0x20 ADD SWAP2 POP POP PUSH1 0x40 MLOAD DUP1 SWAP2 SUB SWAP1 REVERT JUMPDEST DUP1 PUSH1 0x5 PUSH1 0x0 PUSH2 0x100 EXP DUP2 SLOAD DUP2 PUSH20 0xFFFFFFFFFFFFFFFFFFFFFFFFFFFFFFFFFFFFFFFF MUL NOT AND SWAP1 DUP4 PUSH20 0xFFFFFFFFFFFFFFFFFFFFFFFFFFFFFFFFFFFFFFFF AND MUL OR SWAP1 SSTORE POP DUP1 PUSH20 0xFFFFFFFFFFFFFFFFFFFFFFFFFFFFFFFFFFFFFFFF AND CALLER PUSH20 0xFFFFFFFFFFFFFFFFFFFFFFFFFFFFFFFFFFFFFFFF AND PUSH32 0xD44190ACF9D04BDB5D3A1AAFFF7E6DEE8B40B93DFB8C5D3F0EEA4B9F4539C3F7 PUSH1 0x40 MLOAD PUSH1 0x40 MLOAD DUP1 SWAP2 SUB SWAP1 LOG3 POP JUMP JUMPDEST PUSH1 0x0 DUP1 PUSH1 0x0 SWAP1 SLOAD SWAP1 PUSH2 0x100 EXP SWAP1 DIV PUSH20 0xFFFFFFFFFFFFFFFFFFFFFFFFFFFFFFFFFFFFFFFF AND SWAP1 POP SWAP1 JUMP JUMPDEST PUSH1 0x0 PUSH2 0x2103 DUP4 DUP4 PUSH2 0x347E SWAP1 SWAP2 SWAP1 PUSH4 0xFFFFFFFF AND JUMP JUMPDEST SWAP1 POP SWAP3 SWAP2 POP POP JUMP JUMPDEST PUSH1 0x2 PUSH1 0x1 SLOAD EQ ISZERO PUSH2 0x2184 JUMPI PUSH1 0x40 MLOAD PUSH32 0x8C379A000000000000000000000000000000000000000000000000000000000 DUP2 MSTORE PUSH1 0x4 ADD DUP1 DUP1 PUSH1 0x20 ADD DUP3 DUP2 SUB DUP3 MSTORE PUSH1 0x1F DUP2 MSTORE PUSH1 0x20 ADD DUP1 PUSH32 0x5265656E7472616E637947756172643A207265656E7472616E742063616C6C00 DUP2 MSTORE POP PUSH1 0x20 ADD SWAP2 POP POP PUSH1 0x40 MLOAD DUP1 SWAP2 SUB SWAP1 REVERT JUMPDEST PUSH1 0x2 PUSH1 0x1 DUP2 SWAP1 SSTORE POP DUP1 PUSH20 0xFFFFFFFFFFFFFFFFFFFFFFFFFFFFFFFFFFFFFFFF AND DUP2 PUSH20 0xFFFFFFFFFFFFFFFFFFFFFFFFFFFFFFFFFFFFFFFF AND EQ PUSH2 0x2210 JUMPI PUSH1 0x40 MLOAD PUSH32 0x8C379A000000000000000000000000000000000000000000000000000000000 DUP2 MSTORE PUSH1 0x4 ADD DUP1 DUP1 PUSH1 0x20 ADD DUP3 DUP2 SUB DUP3 MSTORE PUSH1 0x21 DUP2 MSTORE PUSH1 0x20 ADD DUP1 PUSH2 0x44ED PUSH1 0x21 SWAP2 CODECOPY PUSH1 0x40 ADD SWAP2 POP POP PUSH1 0x40 MLOAD DUP1 SWAP2 SUB SWAP1 REVERT JUMPDEST PUSH1 0x0 PUSH1 0x6 DUP5 DUP2 SLOAD DUP2 LT PUSH2 0x221F JUMPI INVALID JUMPDEST SWAP1 PUSH1 0x0 MSTORE PUSH1 0x20 PUSH1 0x0 KECCAK256 SWAP1 PUSH1 0x5 MUL ADD SWAP1 POP PUSH1 0x0 PUSH1 0x7 PUSH1 0x0 DUP7 DUP2 MSTORE PUSH1 0x20 ADD SWAP1 DUP2 MSTORE PUSH1 0x20 ADD PUSH1 0x0 KECCAK256 PUSH1 0x0 CALLER PUSH20 0xFFFFFFFFFFFFFFFFFFFFFFFFFFFFFFFFFFFFFFFF AND PUSH20 0xFFFFFFFFFFFFFFFFFFFFFFFFFFFFFFFFFFFFFFFF AND DUP2 MSTORE PUSH1 0x20 ADD SWAP1 DUP2 MSTORE PUSH1 0x20 ADD PUSH1 0x0 KECCAK256 SWAP1 POP PUSH2 0x228C DUP6 PUSH2 0x114E JUMP JUMPDEST PUSH1 0x0 DUP2 PUSH1 0x0 ADD SLOAD GT ISZERO PUSH2 0x2305 JUMPI PUSH1 0x0 PUSH2 0x22E3 DUP3 PUSH1 0x1 ADD SLOAD PUSH2 0x22D5 PUSH5 0xE8D4A51000 PUSH2 0x22C7 DUP8 PUSH1 0x3 ADD SLOAD DUP8 PUSH1 0x0 ADD SLOAD PUSH2 0x33AE SWAP1 SWAP2 SWAP1 PUSH4 0xFFFFFFFF AND JUMP JUMPDEST PUSH2 0x3434 SWAP1 SWAP2 SWAP1 PUSH4 0xFFFFFFFF AND JUMP JUMPDEST PUSH2 0x347E SWAP1 SWAP2 SWAP1 PUSH4 0xFFFFFFFF AND JUMP JUMPDEST SWAP1 POP PUSH1 0x0 DUP2 GT ISZERO PUSH2 0x2303 JUMPI PUSH2 0x22F8 CALLER DUP3 PUSH2 0x34C8 JUMP JUMPDEST PUSH2 0x2302 CALLER DUP3 PUSH2 0x379C JUMP JUMPDEST JUMPDEST POP JUMPDEST PUSH1 0x0 DUP5 GT ISZERO PUSH2 0x2492 JUMPI PUSH2 0x2318 CALLER DUP5 PUSH2 0x3A9B JUMP JUMPDEST PUSH2 0x2369 CALLER ADDRESS DUP7 DUP6 PUSH1 0x0 ADD PUSH1 0x0 SWAP1 SLOAD SWAP1 PUSH2 0x100 EXP SWAP1 DIV PUSH20 0xFFFFFFFFFFFFFFFFFFFFFFFFFFFFFFFFFFFFFFFF AND PUSH20 0xFFFFFFFFFFFFFFFFFFFFFFFFFFFFFFFFFFFFFFFF AND PUSH2 0x3D02 SWAP1 SWAP4 SWAP3 SWAP2 SWAP1 PUSH4 0xFFFFFFFF AND JUMP JUMPDEST PUSH1 0x0 DUP3 PUSH1 0x4 ADD PUSH1 0x0 SWAP1 SLOAD SWAP1 PUSH2 0x100 EXP SWAP1 DIV PUSH2 0xFFFF AND PUSH2 0xFFFF AND GT ISZERO PUSH2 0x2471 JUMPI PUSH1 0x0 PUSH2 0x23C7 PUSH2 0x2710 PUSH2 0x23B9 DUP6 PUSH1 0x4 ADD PUSH1 0x0 SWAP1 SLOAD SWAP1 PUSH2 0x100 EXP SWAP1 DIV PUSH2 0xFFFF AND PUSH2 0xFFFF AND DUP9 PUSH2 0x33AE SWAP1 SWAP2 SWAP1 PUSH4 0xFFFFFFFF AND JUMP JUMPDEST PUSH2 0x3434 SWAP1 SWAP2 SWAP1 PUSH4 0xFFFFFFFF AND JUMP JUMPDEST SWAP1 POP PUSH2 0x23F2 DUP2 PUSH2 0x23E4 DUP8 DUP6 PUSH1 0x0 ADD SLOAD PUSH2 0x3A0B SWAP1 SWAP2 SWAP1 PUSH4 0xFFFFFFFF AND JUMP JUMPDEST PUSH2 0x347E SWAP1 SWAP2 SWAP1 PUSH4 0xFFFFFFFF AND JUMP JUMPDEST DUP3 PUSH1 0x0 ADD DUP2 SWAP1 SSTORE POP PUSH2 0x246B PUSH1 0x5 PUSH1 0x0 SWAP1 SLOAD SWAP1 PUSH2 0x100 EXP SWAP1 DIV PUSH20 0xFFFFFFFFFFFFFFFFFFFFFFFFFFFFFFFFFFFFFFFF AND DUP3 DUP6 PUSH1 0x0 ADD PUSH1 0x0 SWAP1 SLOAD SWAP1 PUSH2 0x100 EXP SWAP1 DIV PUSH20 0xFFFFFFFFFFFFFFFFFFFFFFFFFFFFFFFFFFFFFFFF AND PUSH20 0xFFFFFFFFFFFFFFFFFFFFFFFFFFFFFFFFFFFFFFFF AND PUSH2 0x3969 SWAP1 SWAP3 SWAP2 SWAP1 PUSH4 0xFFFFFFFF AND JUMP JUMPDEST POP PUSH2 0x2491 JUMP JUMPDEST PUSH2 0x2488 DUP5 DUP3 PUSH1 0x0 ADD SLOAD PUSH2 0x3A0B SWAP1 SWAP2 SWAP1 PUSH4 0xFFFFFFFF AND JUMP JUMPDEST DUP2 PUSH1 0x0 ADD DUP2 SWAP1 SSTORE POP JUMPDEST JUMPDEST PUSH2 0x24C4 PUSH5 0xE8D4A51000 PUSH2 0x24B6 DUP5 PUSH1 0x3 ADD SLOAD DUP5 PUSH1 0x0 ADD SLOAD PUSH2 0x33AE SWAP1 SWAP2 SWAP1 PUSH4 0xFFFFFFFF AND JUMP JUMPDEST PUSH2 0x3434 SWAP1 SWAP2 SWAP1 PUSH4 0xFFFFFFFF AND JUMP JUMPDEST DUP2 PUSH1 0x1 ADD DUP2 SWAP1 SSTORE POP DUP5 CALLER PUSH20 0xFFFFFFFFFFFFFFFFFFFFFFFFFFFFFFFFFFFFFFFF AND PUSH32 0x90890809C654F11D6E72A28FA60149770A0D11EC6C92319D6CEB2BB0A4EA1A15 DUP7 PUSH1 0x40 MLOAD DUP1 DUP3 DUP2 MSTORE PUSH1 0x20 ADD SWAP2 POP POP PUSH1 0x40 MLOAD DUP1 SWAP2 SUB SWAP1 LOG3 POP POP PUSH1 0x1 DUP1 DUP2 SWAP1 SSTORE POP POP POP POP JUMP JUMPDEST PUSH8 0x6F05B59D3B20000 DUP2 JUMP JUMPDEST PUSH1 0x7 PUSH1 0x20 MSTORE DUP2 PUSH1 0x0 MSTORE PUSH1 0x40 PUSH1 0x0 KECCAK256 PUSH1 0x20 MSTORE DUP1 PUSH1 0x0 MSTORE PUSH1 0x40 PUSH1 0x0 KECCAK256 PUSH1 0x0 SWAP2 POP SWAP2 POP POP DUP1 PUSH1 0x0 ADD SLOAD SWAP1 DUP1 PUSH1 0x1 ADD SLOAD SWAP1 POP DUP3 JUMP JUMPDEST PUSH2 0x3E8 DUP2 JUMP JUMPDEST PUSH1 0xE PUSH1 0x20 MSTORE DUP1 PUSH1 0x0 MSTORE PUSH1 0x40 PUSH1 0x0 KECCAK256 PUSH1 0x0 SWAP2 POP SWAP1 POP SLOAD DUP2 JUMP JUMPDEST PUSH2 0x258C PUSH2 0x3A93 JUMP JUMPDEST PUSH20 0xFFFFFFFFFFFFFFFFFFFFFFFFFFFFFFFFFFFFFFFF AND PUSH1 0x0 DUP1 SLOAD SWAP1 PUSH2 0x100 EXP SWAP1 DIV PUSH20 0xFFFFFFFFFFFFFFFFFFFFFFFFFFFFFFFFFFFFFFFF AND PUSH20 0xFFFFFFFFFFFFFFFFFFFFFFFFFFFFFFFFFFFFFFFF AND EQ PUSH2 0x264C JUMPI PUSH1 0x40 MLOAD PUSH32 0x8C379A000000000000000000000000000000000000000000000000000000000 DUP2 MSTORE PUSH1 0x4 ADD DUP1 DUP1 PUSH1 0x20 ADD DUP3 DUP2 SUB DUP3 MSTORE PUSH1 0x20 DUP2 MSTORE PUSH1 0x20 ADD DUP1 PUSH32 0x4F776E61626C653A2063616C6C6572206973206E6F7420746865206F776E6572 DUP2 MSTORE POP PUSH1 0x20 ADD SWAP2 POP POP PUSH1 0x40 MLOAD DUP1 SWAP2 SUB SWAP1 REVERT JUMPDEST DUP1 PUSH1 0x4 DUP2 SWAP1 SSTORE POP POP JUMP JUMPDEST PUSH1 0x2 PUSH1 0x0 SWAP1 SLOAD SWAP1 PUSH2 0x100 EXP SWAP1 DIV PUSH20 0xFFFFFFFFFFFFFFFFFFFFFFFFFFFFFFFFFFFFFFFF AND DUP2 JUMP JUMPDEST PUSH2 0x12C DUP2 JUMP JUMPDEST PUSH1 0xD PUSH1 0x20 MSTORE DUP1 PUSH1 0x0 MSTORE PUSH1 0x40 PUSH1 0x0 KECCAK256 PUSH1 0x0 SWAP2 POP SLOAD SWAP1 PUSH2 0x100 EXP SWAP1 DIV PUSH1 0xFF AND DUP2 JUMP JUMPDEST PUSH1 0x0 PUSH20 0xFFFFFFFFFFFFFFFFFFFFFFFFFFFFFFFFFFFFFFFF AND DUP2 PUSH20 0xFFFFFFFFFFFFFFFFFFFFFFFFFFFFFFFFFFFFFFFF AND EQ ISZERO PUSH2 0x2745 JUMPI PUSH1 0x40 MLOAD PUSH32 0x8C379A000000000000000000000000000000000000000000000000000000000 DUP2 MSTORE PUSH1 0x4 ADD DUP1 DUP1 PUSH1 0x20 ADD DUP3 DUP2 SUB DUP3 MSTORE PUSH1 0x14 DUP2 MSTORE PUSH1 0x20 ADD DUP1 PUSH32 0x6465763A20696E76616C69642061646472657373000000000000000000000000 DUP2 MSTORE POP PUSH1 0x20 ADD SWAP2 POP POP PUSH1 0x40 MLOAD DUP1 SWAP2 SUB SWAP1 REVERT JUMPDEST PUSH1 0x3 PUSH1 0x0 SWAP1 SLOAD SWAP1 PUSH2 0x100 EXP SWAP1 DIV PUSH20 0xFFFFFFFFFFFFFFFFFFFFFFFFFFFFFFFFFFFFFFFF AND PUSH20 0xFFFFFFFFFFFFFFFFFFFFFFFFFFFFFFFFFFFFFFFF AND CALLER PUSH20 0xFFFFFFFFFFFFFFFFFFFFFFFFFFFFFFFFFFFFFFFF AND EQ PUSH2 0x2808 JUMPI PUSH1 0x40 MLOAD PUSH32 0x8C379A000000000000000000000000000000000000000000000000000000000 DUP2 MSTORE PUSH1 0x4 ADD DUP1 DUP1 PUSH1 0x20 ADD DUP3 DUP2 SUB DUP3 MSTORE PUSH1 0x9 DUP2 MSTORE PUSH1 0x20 ADD DUP1 PUSH32 0x6465763A207775743F0000000000000000000000000000000000000000000000 DUP2 MSTORE POP PUSH1 0x20 ADD SWAP2 POP POP PUSH1 0x40 MLOAD DUP1 SWAP2 SUB SWAP1 REVERT JUMPDEST DUP1 PUSH1 0x3 PUSH1 0x0 PUSH2 0x100 EXP DUP2 SLOAD DUP2 PUSH20 0xFFFFFFFFFFFFFFFFFFFFFFFFFFFFFFFFFFFFFFFF MUL NOT AND SWAP1 DUP4 PUSH20 0xFFFFFFFFFFFFFFFFFFFFFFFFFFFFFFFFFFFFFFFF AND MUL OR SWAP1 SSTORE POP DUP1 PUSH20 0xFFFFFFFFFFFFFFFFFFFFFFFFFFFFFFFFFFFFFFFF AND CALLER PUSH20 0xFFFFFFFFFFFFFFFFFFFFFFFFFFFFFFFFFFFFFFFF AND PUSH32 0x618C54559E94F1499A808AAD71EE8729F8E74E8C48E979616328CE493A1A52E7 PUSH1 0x40 MLOAD PUSH1 0x40 MLOAD DUP1 SWAP2 SUB SWAP1 LOG3 POP JUMP JUMPDEST PUSH2 0x3840 DUP2 JUMP JUMPDEST PUSH2 0x28B4 PUSH2 0x3A93 JUMP JUMPDEST PUSH20 0xFFFFFFFFFFFFFFFFFFFFFFFFFFFFFFFFFFFFFFFF AND PUSH1 0x0 DUP1 SLOAD SWAP1 PUSH2 0x100 EXP SWAP1 DIV PUSH20 0xFFFFFFFFFFFFFFFFFFFFFFFFFFFFFFFFFFFFFFFF AND PUSH20 0xFFFFFFFFFFFFFFFFFFFFFFFFFFFFFFFFFFFFFFFF AND EQ PUSH2 0x2974 JUMPI PUSH1 0x40 MLOAD PUSH32 0x8C379A000000000000000000000000000000000000000000000000000000000 DUP2 MSTORE PUSH1 0x4 ADD DUP1 DUP1 PUSH1 0x20 ADD DUP3 DUP2 SUB DUP3 MSTORE PUSH1 0x20 DUP2 MSTORE PUSH1 0x20 ADD DUP1 PUSH32 0x4F776E61626C653A2063616C6C6572206973206E6F7420746865206F776E6572 DUP2 MSTORE POP PUSH1 0x20 ADD SWAP2 POP POP PUSH1 0x40 MLOAD DUP1 SWAP2 SUB SWAP1 REVERT JUMPDEST PUSH2 0x3E8 PUSH2 0xFFFF AND DUP3 PUSH2 0xFFFF AND GT ISZERO PUSH2 0x29D7 JUMPI PUSH1 0x40 MLOAD PUSH32 0x8C379A000000000000000000000000000000000000000000000000000000000 DUP2 MSTORE PUSH1 0x4 ADD DUP1 DUP1 PUSH1 0x20 ADD DUP3 DUP2 SUB DUP3 MSTORE PUSH1 0x25 DUP2 MSTORE PUSH1 0x20 ADD DUP1 PUSH2 0x459E PUSH1 0x25 SWAP2 CODECOPY PUSH1 0x40 ADD SWAP2 POP POP PUSH1 0x40 MLOAD DUP1 SWAP2 SUB SWAP1 REVERT JUMPDEST DUP1 ISZERO PUSH2 0x29E6 JUMPI PUSH2 0x29E5 PUSH2 0x166E JUMP JUMPDEST JUMPDEST PUSH2 0x2A2B DUP4 PUSH2 0x2A1D PUSH1 0x6 DUP8 DUP2 SLOAD DUP2 LT PUSH2 0x29FA JUMPI INVALID JUMPDEST SWAP1 PUSH1 0x0 MSTORE PUSH1 0x20 PUSH1 0x0 KECCAK256 SWAP1 PUSH1 0x5 MUL ADD PUSH1 0x1 ADD SLOAD PUSH1 0x8 SLOAD PUSH2 0x347E SWAP1 SWAP2 SWAP1 PUSH4 0xFFFFFFFF AND JUMP JUMPDEST PUSH2 0x3A0B SWAP1 SWAP2 SWAP1 PUSH4 0xFFFFFFFF AND JUMP JUMPDEST PUSH1 0x8 DUP2 SWAP1 SSTORE POP DUP3 PUSH1 0x6 DUP6 DUP2 SLOAD DUP2 LT PUSH2 0x2A3F JUMPI INVALID JUMPDEST SWAP1 PUSH1 0x0 MSTORE PUSH1 0x20 PUSH1 0x0 KECCAK256 SWAP1 PUSH1 0x5 MUL ADD PUSH1 0x1 ADD DUP2 SWAP1 SSTORE POP DUP2 PUSH1 0x6 DUP6 DUP2 SLOAD DUP2 LT PUSH2 0x2A62 JUMPI INVALID JUMPDEST SWAP1 PUSH1 0x0 MSTORE PUSH1 0x20 PUSH1 0x0 KECCAK256 SWAP1 PUSH1 0x5 MUL ADD PUSH1 0x4 ADD PUSH1 0x0 PUSH2 0x100 EXP DUP2 SLOAD DUP2 PUSH2 0xFFFF MUL NOT AND SWAP1 DUP4 PUSH2 0xFFFF AND MUL OR SWAP1 SSTORE POP POP POP POP POP JUMP JUMPDEST PUSH1 0x3 PUSH1 0x0 SWAP1 SLOAD SWAP1 PUSH2 0x100 EXP SWAP1 DIV PUSH20 0xFFFFFFFFFFFFFFFFFFFFFFFFFFFFFFFFFFFFFFFF AND DUP2 JUMP JUMPDEST PUSH1 0x0 DUP1 PUSH1 0x6 DUP5 DUP2 SLOAD DUP2 LT PUSH2 0x2AC9 JUMPI INVALID JUMPDEST SWAP1 PUSH1 0x0 MSTORE PUSH1 0x20 PUSH1 0x0 KECCAK256 SWAP1 PUSH1 0x5 MUL ADD SWAP1 POP PUSH1 0x0 PUSH1 0x7 PUSH1 0x0 DUP7 DUP2 MSTORE PUSH1 0x20 ADD SWAP1 DUP2 MSTORE PUSH1 0x20 ADD PUSH1 0x0 KECCAK256 PUSH1 0x0 DUP6 PUSH20 0xFFFFFFFFFFFFFFFFFFFFFFFFFFFFFFFFFFFFFFFF AND PUSH20 0xFFFFFFFFFFFFFFFFFFFFFFFFFFFFFFFFFFFFFFFF AND DUP2 MSTORE PUSH1 0x20 ADD SWAP1 DUP2 MSTORE PUSH1 0x20 ADD PUSH1 0x0 KECCAK256 SWAP1 POP PUSH1 0x0 DUP3 PUSH1 0x3 ADD SLOAD SWAP1 POP PUSH1 0x0 DUP4 PUSH1 0x0 ADD PUSH1 0x0 SWAP1 SLOAD SWAP1 PUSH2 0x100 EXP SWAP1 DIV PUSH20 0xFFFFFFFFFFFFFFFFFFFFFFFFFFFFFFFFFFFFFFFF AND PUSH20 0xFFFFFFFFFFFFFFFFFFFFFFFFFFFFFFFFFFFFFFFF AND PUSH4 0x70A08231 ADDRESS PUSH1 0x40 MLOAD DUP3 PUSH4 0xFFFFFFFF AND PUSH1 0xE0 SHL DUP2 MSTORE PUSH1 0x4 ADD DUP1 DUP3 PUSH20 0xFFFFFFFFFFFFFFFFFFFFFFFFFFFFFFFFFFFFFFFF AND DUP2 MSTORE PUSH1 0x20 ADD SWAP2 POP POP PUSH1 0x20 PUSH1 0x40 MLOAD DUP1 DUP4 SUB DUP2 DUP7 DUP1 EXTCODESIZE ISZERO DUP1 ISZERO PUSH2 0x2BC3 JUMPI PUSH1 0x0 DUP1 REVERT JUMPDEST POP GAS STATICCALL ISZERO DUP1 ISZERO PUSH2 0x2BD7 JUMPI RETURNDATASIZE PUSH1 0x0 DUP1 RETURNDATACOPY RETURNDATASIZE PUSH1 0x0 REVERT JUMPDEST POP POP POP POP PUSH1 0x40 MLOAD RETURNDATASIZE PUSH1 0x20 DUP2 LT ISZERO PUSH2 0x2BED JUMPI PUSH1 0x0 DUP1 REVERT JUMPDEST DUP2 ADD SWAP1 DUP1 DUP1 MLOAD SWAP1 PUSH1 0x20 ADD SWAP1 SWAP3 SWAP2 SWAP1 POP POP POP SWAP1 POP DUP4 PUSH1 0x2 ADD SLOAD NUMBER GT DUP1 ISZERO PUSH2 0x2C14 JUMPI POP PUSH1 0x0 DUP2 EQ ISZERO JUMPDEST ISZERO PUSH2 0x2CAF JUMPI PUSH1 0x0 PUSH2 0x2C29 DUP6 PUSH1 0x2 ADD SLOAD NUMBER PUSH2 0x20EE JUMP JUMPDEST SWAP1 POP PUSH1 0x0 PUSH2 0x2C6C PUSH1 0x8 SLOAD PUSH2 0x2C5E DUP9 PUSH1 0x1 ADD SLOAD PUSH2 0x2C50 PUSH1 0x4 SLOAD DUP8 PUSH2 0x33AE SWAP1 SWAP2 SWAP1 PUSH4 0xFFFFFFFF AND JUMP JUMPDEST PUSH2 0x33AE SWAP1 SWAP2 SWAP1 PUSH4 0xFFFFFFFF AND JUMP JUMPDEST PUSH2 0x3434 SWAP1 SWAP2 SWAP1 PUSH4 0xFFFFFFFF AND JUMP JUMPDEST SWAP1 POP PUSH2 0x2CAA PUSH2 0x2C9B DUP5 PUSH2 0x2C8D PUSH5 0xE8D4A51000 DUP6 PUSH2 0x33AE SWAP1 SWAP2 SWAP1 PUSH4 0xFFFFFFFF AND JUMP JUMPDEST PUSH2 0x3434 SWAP1 SWAP2 SWAP1 PUSH4 0xFFFFFFFF AND JUMP JUMPDEST DUP6 PUSH2 0x3A0B SWAP1 SWAP2 SWAP1 PUSH4 0xFFFFFFFF AND JUMP JUMPDEST SWAP4 POP POP POP JUMPDEST PUSH2 0x2CF3 DUP4 PUSH1 0x1 ADD SLOAD PUSH2 0x2CE5 PUSH5 0xE8D4A51000 PUSH2 0x2CD7 DUP7 DUP9 PUSH1 0x0 ADD SLOAD PUSH2 0x33AE SWAP1 SWAP2 SWAP1 PUSH4 0xFFFFFFFF AND JUMP JUMPDEST PUSH2 0x3434 SWAP1 SWAP2 SWAP1 PUSH4 0xFFFFFFFF AND JUMP JUMPDEST PUSH2 0x347E SWAP1 SWAP2 SWAP1 PUSH4 0xFFFFFFFF AND JUMP JUMPDEST SWAP5 POP POP POP POP POP SWAP3 SWAP2 POP POP JUMP JUMPDEST PUSH1 0x2 PUSH1 0x1 SLOAD EQ ISZERO PUSH2 0x2D78 JUMPI PUSH1 0x40 MLOAD PUSH32 0x8C379A000000000000000000000000000000000000000000000000000000000 DUP2 MSTORE PUSH1 0x4 ADD DUP1 DUP1 PUSH1 0x20 ADD DUP3 DUP2 SUB DUP3 MSTORE PUSH1 0x1F DUP2 MSTORE PUSH1 0x20 ADD DUP1 PUSH32 0x5265656E7472616E637947756172643A207265656E7472616E742063616C6C00 DUP2 MSTORE POP PUSH1 0x20 ADD SWAP2 POP POP PUSH1 0x40 MLOAD DUP1 SWAP2 SUB SWAP1 REVERT JUMPDEST PUSH1 0x2 PUSH1 0x1 DUP2 SWAP1 SSTORE POP PUSH1 0x0 PUSH1 0x6 DUP4 DUP2 SLOAD DUP2 LT PUSH2 0x2D8F JUMPI INVALID JUMPDEST SWAP1 PUSH1 0x0 MSTORE PUSH1 0x20 PUSH1 0x0 KECCAK256 SWAP1 PUSH1 0x5 MUL ADD SWAP1 POP PUSH1 0x0 PUSH1 0x7 PUSH1 0x0 DUP6 DUP2 MSTORE PUSH1 0x20 ADD SWAP1 DUP2 MSTORE PUSH1 0x20 ADD PUSH1 0x0 KECCAK256 PUSH1 0x0 CALLER PUSH20 0xFFFFFFFFFFFFFFFFFFFFFFFFFFFFFFFFFFFFFFFF AND PUSH20 0xFFFFFFFFFFFFFFFFFFFFFFFFFFFFFFFFFFFFFFFF AND DUP2 MSTORE PUSH1 0x20 ADD SWAP1 DUP2 MSTORE PUSH1 0x20 ADD PUSH1 0x0 KECCAK256 SWAP1 POP PUSH2 0x2DFC DUP5 PUSH2 0x114E JUMP JUMPDEST PUSH1 0x0 DUP2 PUSH1 0x0 ADD SLOAD GT ISZERO PUSH2 0x2E6B JUMPI PUSH1 0x0 PUSH2 0x2E53 DUP3 PUSH1 0x1 ADD SLOAD PUSH2 0x2E45 PUSH5 0xE8D4A51000 PUSH2 0x2E37 DUP8 PUSH1 0x3 ADD SLOAD DUP8 PUSH1 0x0 ADD SLOAD PUSH2 0x33AE SWAP1 SWAP2 SWAP1 PUSH4 0xFFFFFFFF AND JUMP JUMPDEST PUSH2 0x3434 SWAP1 SWAP2 SWAP1 PUSH4 0xFFFFFFFF AND JUMP JUMPDEST PUSH2 0x347E SWAP1 SWAP2 SWAP1 PUSH4 0xFFFFFFFF AND JUMP JUMPDEST SWAP1 POP PUSH1 0x0 DUP2 GT ISZERO PUSH2 0x2E69 JUMPI PUSH2 0x2E68 CALLER DUP3 PUSH2 0x34C8 JUMP JUMPDEST JUMPDEST POP JUMPDEST PUSH1 0x0 DUP4 GT ISZERO PUSH2 0x2FEE JUMPI PUSH2 0x2EC5 CALLER ADDRESS DUP6 DUP6 PUSH1 0x0 ADD PUSH1 0x0 SWAP1 SLOAD SWAP1 PUSH2 0x100 EXP SWAP1 DIV PUSH20 0xFFFFFFFFFFFFFFFFFFFFFFFFFFFFFFFFFFFFFFFF AND PUSH20 0xFFFFFFFFFFFFFFFFFFFFFFFFFFFFFFFFFFFFFFFF AND PUSH2 0x3D02 SWAP1 SWAP4 SWAP3 SWAP2 SWAP1 PUSH4 0xFFFFFFFF AND JUMP JUMPDEST PUSH1 0x0 DUP3 PUSH1 0x4 ADD PUSH1 0x0 SWAP1 SLOAD SWAP1 PUSH2 0x100 EXP SWAP1 DIV PUSH2 0xFFFF AND PUSH2 0xFFFF AND GT ISZERO PUSH2 0x2FCD JUMPI PUSH1 0x0 PUSH2 0x2F23 PUSH2 0x2710 PUSH2 0x2F15 DUP6 PUSH1 0x4 ADD PUSH1 0x0 SWAP1 SLOAD SWAP1 PUSH2 0x100 EXP SWAP1 DIV PUSH2 0xFFFF AND PUSH2 0xFFFF AND DUP8 PUSH2 0x33AE SWAP1 SWAP2 SWAP1 PUSH4 0xFFFFFFFF AND JUMP JUMPDEST PUSH2 0x3434 SWAP1 SWAP2 SWAP1 PUSH4 0xFFFFFFFF AND JUMP JUMPDEST SWAP1 POP PUSH2 0x2F4E DUP2 PUSH2 0x2F40 DUP7 DUP6 PUSH1 0x0 ADD SLOAD PUSH2 0x3A0B SWAP1 SWAP2 SWAP1 PUSH4 0xFFFFFFFF AND JUMP JUMPDEST PUSH2 0x347E SWAP1 SWAP2 SWAP1 PUSH4 0xFFFFFFFF AND JUMP JUMPDEST DUP3 PUSH1 0x0 ADD DUP2 SWAP1 SSTORE POP PUSH2 0x2FC7 PUSH1 0x5 PUSH1 0x0 SWAP1 SLOAD SWAP1 PUSH2 0x100 EXP SWAP1 DIV PUSH20 0xFFFFFFFFFFFFFFFFFFFFFFFFFFFFFFFFFFFFFFFF AND DUP3 DUP6 PUSH1 0x0 ADD PUSH1 0x0 SWAP1 SLOAD SWAP1 PUSH2 0x100 EXP SWAP1 DIV PUSH20 0xFFFFFFFFFFFFFFFFFFFFFFFFFFFFFFFFFFFFFFFF AND PUSH20 0xFFFFFFFFFFFFFFFFFFFFFFFFFFFFFFFFFFFFFFFF AND PUSH2 0x3969 SWAP1 SWAP3 SWAP2 SWAP1 PUSH4 0xFFFFFFFF AND JUMP JUMPDEST POP PUSH2 0x2FED JUMP JUMPDEST PUSH2 0x2FE4 DUP4 DUP3 PUSH1 0x0 ADD SLOAD PUSH2 0x3A0B SWAP1 SWAP2 SWAP1 PUSH4 0xFFFFFFFF AND JUMP JUMPDEST DUP2 PUSH1 0x0 ADD DUP2 SWAP1 SSTORE POP JUMPDEST JUMPDEST PUSH2 0x3020 PUSH5 0xE8D4A51000 PUSH2 0x3012 DUP5 PUSH1 0x3 ADD SLOAD DUP5 PUSH1 0x0 ADD SLOAD PUSH2 0x33AE SWAP1 SWAP2 SWAP1 PUSH4 0xFFFFFFFF AND JUMP JUMPDEST PUSH2 0x3434 SWAP1 SWAP2 SWAP1 PUSH4 0xFFFFFFFF AND JUMP JUMPDEST DUP2 PUSH1 0x1 ADD DUP2 SWAP1 SSTORE POP DUP4 CALLER PUSH20 0xFFFFFFFFFFFFFFFFFFFFFFFFFFFFFFFFFFFFFFFF AND PUSH32 0x90890809C654F11D6E72A28FA60149770A0D11EC6C92319D6CEB2BB0A4EA1A15 DUP6 PUSH1 0x40 MLOAD DUP1 DUP3 DUP2 MSTORE PUSH1 0x20 ADD SWAP2 POP POP PUSH1 0x40 MLOAD DUP1 SWAP2 SUB SWAP1 LOG3 POP POP PUSH1 0x1 DUP1 DUP2 SWAP1 SSTORE POP POP POP JUMP JUMPDEST PUSH1 0x10 PUSH1 0x0 SWAP1 SLOAD SWAP1 PUSH2 0x100 EXP SWAP1 DIV PUSH1 0xFF AND PUSH2 0x30E9 JUMPI PUSH1 0x40 MLOAD PUSH32 0x8C379A000000000000000000000000000000000000000000000000000000000 DUP2 MSTORE PUSH1 0x4 ADD DUP1 DUP1 PUSH1 0x20 ADD DUP3 DUP2 SUB DUP3 MSTORE PUSH1 0x40 DUP2 MSTORE PUSH1 0x20 ADD DUP1 PUSH2 0x465E PUSH1 0x40 SWAP2 CODECOPY PUSH1 0x40 ADD SWAP2 POP POP PUSH1 0x40 MLOAD DUP1 SWAP2 SUB SWAP1 REVERT JUMPDEST PUSH1 0x9 SLOAD NUMBER GT PUSH2 0x3143 JUMPI PUSH1 0x40 MLOAD PUSH32 0x8C379A000000000000000000000000000000000000000000000000000000000 DUP2 MSTORE PUSH1 0x4 ADD DUP1 DUP1 PUSH1 0x20 ADD DUP3 DUP2 SUB DUP3 MSTORE PUSH1 0x49 DUP2 MSTORE PUSH1 0x20 ADD DUP1 PUSH2 0x4534 PUSH1 0x49 SWAP2 CODECOPY PUSH1 0x60 ADD SWAP2 POP POP PUSH1 0x40 MLOAD DUP1 SWAP2 SUB SWAP1 REVERT JUMPDEST PUSH7 0xB1A2BC2EC50000 PUSH1 0x4 SLOAD GT PUSH2 0x31A4 JUMPI PUSH1 0x40 MLOAD PUSH32 0x8C379A000000000000000000000000000000000000000000000000000000000 DUP2 MSTORE PUSH1 0x4 ADD DUP1 DUP1 PUSH1 0x20 ADD DUP3 DUP2 SUB DUP3 MSTORE PUSH1 0x52 DUP2 MSTORE PUSH1 0x20 ADD DUP1 PUSH2 0x460C PUSH1 0x52 SWAP2 CODECOPY PUSH1 0x60 ADD SWAP2 POP POP PUSH1 0x40 MLOAD DUP1 SWAP2 SUB SWAP1 REVERT JUMPDEST PUSH1 0x0 PUSH2 0x31CF PUSH2 0x3840 PUSH2 0x31C1 PUSH1 0x9 SLOAD NUMBER PUSH2 0x347E SWAP1 SWAP2 SWAP1 PUSH4 0xFFFFFFFF AND JUMP JUMPDEST PUSH2 0x3434 SWAP1 SWAP2 SWAP1 PUSH4 0xFFFFFFFF AND JUMP JUMPDEST SWAP1 POP PUSH1 0xF SLOAD DUP2 GT PUSH2 0x31E0 JUMPI POP PUSH2 0x32D8 JUMP JUMPDEST PUSH1 0x0 PUSH1 0x4 SLOAD SWAP1 POP PUSH1 0x0 PUSH1 0xF SLOAD SWAP1 POP JUMPDEST DUP3 DUP2 LT ISZERO PUSH2 0x3231 JUMPI PUSH2 0x3224 PUSH2 0x2710 PUSH2 0x3216 PUSH2 0x12C PUSH2 0x2710 SUB DUP6 PUSH2 0x33AE SWAP1 SWAP2 SWAP1 PUSH4 0xFFFFFFFF AND JUMP JUMPDEST PUSH2 0x3434 SWAP1 SWAP2 SWAP1 PUSH4 0xFFFFFFFF AND JUMP JUMPDEST SWAP2 POP DUP1 PUSH1 0x1 ADD SWAP1 POP PUSH2 0x31EF JUMP JUMPDEST POP PUSH7 0xB1A2BC2EC50000 DUP2 LT PUSH2 0x3246 JUMPI DUP1 PUSH2 0x324F JUMP JUMPDEST PUSH7 0xB1A2BC2EC50000 JUMPDEST SWAP1 POP PUSH1 0x4 SLOAD DUP2 LT PUSH2 0x3261 JUMPI POP POP PUSH2 0x32D8 JUMP JUMPDEST PUSH2 0x3269 PUSH2 0x166E JUMP JUMPDEST DUP2 PUSH1 0xF DUP2 SWAP1 SSTORE POP PUSH1 0x0 PUSH1 0x4 SLOAD SWAP1 POP DUP2 PUSH1 0x4 DUP2 SWAP1 SSTORE POP CALLER PUSH20 0xFFFFFFFFFFFFFFFFFFFFFFFFFFFFFFFFFFFFFFFF AND PUSH32 0xEEDC6338C9C1AD8F3CD6C90DD09DBE98DBD57E610D3E59A17996D07ACB0D9511 DUP3 DUP5 PUSH1 0x40 MLOAD DUP1 DUP4 DUP2 MSTORE PUSH1 0x20 ADD DUP3 DUP2 MSTORE PUSH1 0x20 ADD SWAP3 POP POP POP PUSH1 0x40 MLOAD DUP1 SWAP2 SUB SWAP1 LOG2 POP POP POP JUMPDEST JUMP JUMPDEST PUSH2 0x32E2 PUSH2 0x3A93 JUMP JUMPDEST PUSH20 0xFFFFFFFFFFFFFFFFFFFFFFFFFFFFFFFFFFFFFFFF AND PUSH1 0x0 DUP1 SLOAD SWAP1 PUSH2 0x100 EXP SWAP1 DIV PUSH20 0xFFFFFFFFFFFFFFFFFFFFFFFFFFFFFFFFFFFFFFFF AND PUSH20 0xFFFFFFFFFFFFFFFFFFFFFFFFFFFFFFFFFFFFFFFF AND EQ PUSH2 0x33A2 JUMPI PUSH1 0x40 MLOAD PUSH32 0x8C379A000000000000000000000000000000000000000000000000000000000 DUP2 MSTORE PUSH1 0x4 ADD DUP1 DUP1 PUSH1 0x20 ADD DUP3 DUP2 SUB DUP3 MSTORE PUSH1 0x20 DUP2 MSTORE PUSH1 0x20 ADD DUP1 PUSH32 0x4F776E61626C653A2063616C6C6572206973206E6F7420746865206F776E6572 DUP2 MSTORE POP PUSH1 0x20 ADD SWAP2 POP POP PUSH1 0x40 MLOAD DUP1 SWAP2 SUB SWAP1 REVERT JUMPDEST PUSH2 0x33AB DUP2 PUSH2 0x3DC3 JUMP JUMPDEST POP JUMP JUMPDEST PUSH1 0x0 DUP1 DUP4 EQ ISZERO PUSH2 0x33C1 JUMPI PUSH1 0x0 SWAP1 POP PUSH2 0x342E JUMP JUMPDEST PUSH1 0x0 DUP3 DUP5 MUL SWAP1 POP DUP3 DUP5 DUP3 DUP2 PUSH2 0x33D2 JUMPI INVALID JUMPDEST DIV EQ PUSH2 0x3429 JUMPI PUSH1 0x40 MLOAD PUSH32 0x8C379A000000000000000000000000000000000000000000000000000000000 DUP2 MSTORE PUSH1 0x4 ADD DUP1 DUP1 PUSH1 0x20 ADD DUP3 DUP2 SUB DUP3 MSTORE PUSH1 0x21 DUP2 MSTORE PUSH1 0x20 ADD DUP1 PUSH2 0x457D PUSH1 0x21 SWAP2 CODECOPY PUSH1 0x40 ADD SWAP2 POP POP PUSH1 0x40 MLOAD DUP1 SWAP2 SUB SWAP1 REVERT JUMPDEST DUP1 SWAP2 POP POP JUMPDEST SWAP3 SWAP2 POP POP JUMP JUMPDEST PUSH1 0x0 PUSH2 0x3476 DUP4 DUP4 PUSH1 0x40 MLOAD DUP1 PUSH1 0x40 ADD PUSH1 0x40 MSTORE DUP1 PUSH1 0x1A DUP2 MSTORE PUSH1 0x20 ADD PUSH32 0x536166654D6174683A206469766973696F6E206279207A65726F000000000000 DUP2 MSTORE POP PUSH2 0x3F06 JUMP JUMPDEST SWAP1 POP SWAP3 SWAP2 POP POP JUMP JUMPDEST PUSH1 0x0 PUSH2 0x34C0 DUP4 DUP4 PUSH1 0x40 MLOAD DUP1 PUSH1 0x40 ADD PUSH1 0x40 MSTORE DUP1 PUSH1 0x1E DUP2 MSTORE PUSH1 0x20 ADD PUSH32 0x536166654D6174683A207375627472616374696F6E206F766572666C6F770000 DUP2 MSTORE POP PUSH2 0x3FCC JUMP JUMPDEST SWAP1 POP SWAP3 SWAP2 POP POP JUMP JUMPDEST PUSH1 0x0 PUSH1 0x2 PUSH1 0x0 SWAP1 SLOAD SWAP1 PUSH2 0x100 EXP SWAP1 DIV PUSH20 0xFFFFFFFFFFFFFFFFFFFFFFFFFFFFFFFFFFFFFFFF AND PUSH20 0xFFFFFFFFFFFFFFFFFFFFFFFFFFFFFFFFFFFFFFFF AND PUSH4 0x70A08231 ADDRESS PUSH1 0x40 MLOAD DUP3 PUSH4 0xFFFFFFFF AND PUSH1 0xE0 SHL DUP2 MSTORE PUSH1 0x4 ADD DUP1 DUP3 PUSH20 0xFFFFFFFFFFFFFFFFFFFFFFFFFFFFFFFFFFFFFFFF AND DUP2 MSTORE PUSH1 0x20 ADD SWAP2 POP POP PUSH1 0x20 PUSH1 0x40 MLOAD DUP1 DUP4 SUB DUP2 DUP7 DUP1 EXTCODESIZE ISZERO DUP1 ISZERO PUSH2 0x3553 JUMPI PUSH1 0x0 DUP1 REVERT JUMPDEST POP GAS STATICCALL ISZERO DUP1 ISZERO PUSH2 0x3567 JUMPI RETURNDATASIZE PUSH1 0x0 DUP1 RETURNDATACOPY RETURNDATASIZE PUSH1 0x0 REVERT JUMPDEST POP POP POP POP PUSH1 0x40 MLOAD RETURNDATASIZE PUSH1 0x20 DUP2 LT ISZERO PUSH2 0x357D JUMPI PUSH1 0x0 DUP1 REVERT JUMPDEST DUP2 ADD SWAP1 DUP1 DUP1 MLOAD SWAP1 PUSH1 0x20 ADD SWAP1 SWAP3 SWAP2 SWAP1 POP POP POP SWAP1 POP PUSH1 0x0 DUP2 DUP4 GT ISZERO PUSH2 0x366F JUMPI PUSH1 0x2 PUSH1 0x0 SWAP1 SLOAD SWAP1 PUSH2 0x100 EXP SWAP1 DIV PUSH20 0xFFFFFFFFFFFFFFFFFFFFFFFFFFFFFFFFFFFFFFFF AND PUSH20 0xFFFFFFFFFFFFFFFFFFFFFFFFFFFFFFFFFFFFFFFF AND PUSH4 0xA9059CBB DUP6 DUP5 PUSH1 0x40 MLOAD DUP4 PUSH4 0xFFFFFFFF AND PUSH1 0xE0 SHL DUP2 MSTORE PUSH1 0x4 ADD DUP1 DUP4 PUSH20 0xFFFFFFFFFFFFFFFFFFFFFFFFFFFFFFFFFFFFFFFF AND DUP2 MSTORE PUSH1 0x20 ADD DUP3 DUP2 MSTORE PUSH1 0x20 ADD SWAP3 POP POP POP PUSH1 0x20 PUSH1 0x40 MLOAD DUP1 DUP4 SUB DUP2 PUSH1 0x0 DUP8 DUP1 EXTCODESIZE ISZERO DUP1 ISZERO PUSH2 0x362D JUMPI PUSH1 0x0 DUP1 REVERT JUMPDEST POP GAS CALL ISZERO DUP1 ISZERO PUSH2 0x3641 JUMPI RETURNDATASIZE PUSH1 0x0 DUP1 RETURNDATACOPY RETURNDATASIZE PUSH1 0x0 REVERT JUMPDEST POP POP POP POP PUSH1 0x40 MLOAD RETURNDATASIZE PUSH1 0x20 DUP2 LT ISZERO PUSH2 0x3657 JUMPI PUSH1 0x0 DUP1 REVERT JUMPDEST DUP2 ADD SWAP1 DUP1 DUP1 MLOAD SWAP1 PUSH1 0x20 ADD SWAP1 SWAP3 SWAP2 SWAP1 POP POP POP SWAP1 POP PUSH2 0x3740 JUMP JUMPDEST PUSH1 0x2 PUSH1 0x0 SWAP1 SLOAD SWAP1 PUSH2 0x100 EXP SWAP1 DIV PUSH20 0xFFFFFFFFFFFFFFFFFFFFFFFFFFFFFFFFFFFFFFFF AND PUSH20 0xFFFFFFFFFFFFFFFFFFFFFFFFFFFFFFFFFFFFFFFF AND PUSH4 0xA9059CBB DUP6 DUP6 PUSH1 0x40 MLOAD DUP4 PUSH4 0xFFFFFFFF AND PUSH1 0xE0 SHL DUP2 MSTORE PUSH1 0x4 ADD DUP1 DUP4 PUSH20 0xFFFFFFFFFFFFFFFFFFFFFFFFFFFFFFFFFFFFFFFF AND DUP2 MSTORE PUSH1 0x20 ADD DUP3 DUP2 MSTORE PUSH1 0x20 ADD SWAP3 POP POP POP PUSH1 0x20 PUSH1 0x40 MLOAD DUP1 DUP4 SUB DUP2 PUSH1 0x0 DUP8 DUP1 EXTCODESIZE ISZERO DUP1 ISZERO PUSH2 0x3702 JUMPI PUSH1 0x0 DUP1 REVERT JUMPDEST POP GAS CALL ISZERO DUP1 ISZERO PUSH2 0x3716 JUMPI RETURNDATASIZE PUSH1 0x0 DUP1 RETURNDATACOPY RETURNDATASIZE PUSH1 0x0 REVERT JUMPDEST POP POP POP POP PUSH1 0x40 MLOAD RETURNDATASIZE PUSH1 0x20 DUP2 LT ISZERO PUSH2 0x372C JUMPI PUSH1 0x0 DUP1 REVERT JUMPDEST DUP2 ADD SWAP1 DUP1 DUP1 MLOAD SWAP1 PUSH1 0x20 ADD SWAP1 SWAP3 SWAP2 SWAP1 POP POP POP SWAP1 POP JUMPDEST DUP1 PUSH2 0x3796 JUMPI PUSH1 0x40 MLOAD PUSH32 0x8C379A000000000000000000000000000000000000000000000000000000000 DUP2 MSTORE PUSH1 0x4 ADD DUP1 DUP1 PUSH1 0x20 ADD DUP3 DUP2 SUB DUP3 MSTORE PUSH1 0x22 DUP2 MSTORE PUSH1 0x20 ADD DUP1 PUSH2 0x44CB PUSH1 0x22 SWAP2 CODECOPY PUSH1 0x40 ADD SWAP2 POP POP PUSH1 0x40 MLOAD DUP1 SWAP2 SUB SWAP1 REVERT JUMPDEST POP POP POP POP JUMP JUMPDEST PUSH1 0x0 PUSH2 0x37A7 DUP4 PUSH2 0xD6B JUMP JUMPDEST SWAP1 POP PUSH1 0x0 PUSH20 0xFFFFFFFFFFFFFFFFFFFFFFFFFFFFFFFFFFFFFFFF AND DUP2 PUSH20 0xFFFFFFFFFFFFFFFFFFFFFFFFFFFFFFFFFFFFFFFF AND EQ ISZERO DUP1 ISZERO PUSH2 0x3812 JUMPI POP DUP3 PUSH20 0xFFFFFFFFFFFFFFFFFFFFFFFFFFFFFFFFFFFFFFFF AND DUP2 PUSH20 0xFFFFFFFFFFFFFFFFFFFFFFFFFFFFFFFFFFFFFFFF AND EQ ISZERO JUMPDEST DUP1 ISZERO PUSH2 0x3820 JUMPI POP PUSH1 0x0 PUSH1 0xA SLOAD GT JUMPDEST ISZERO PUSH2 0x3964 JUMPI PUSH1 0x0 PUSH2 0x3850 PUSH2 0x2710 PUSH2 0x3842 PUSH1 0xA SLOAD DUP7 PUSH2 0x33AE SWAP1 SWAP2 SWAP1 PUSH4 0xFFFFFFFF AND JUMP JUMPDEST PUSH2 0x3434 SWAP1 SWAP2 SWAP1 PUSH4 0xFFFFFFFF AND JUMP JUMPDEST SWAP1 POP PUSH1 0x2 PUSH1 0x0 SWAP1 SLOAD SWAP1 PUSH2 0x100 EXP SWAP1 DIV PUSH20 0xFFFFFFFFFFFFFFFFFFFFFFFFFFFFFFFFFFFFFFFF AND PUSH20 0xFFFFFFFFFFFFFFFFFFFFFFFFFFFFFFFFFFFFFFFF AND PUSH4 0x40C10F19 DUP4 DUP4 PUSH1 0x40 MLOAD DUP4 PUSH4 0xFFFFFFFF AND PUSH1 0xE0 SHL DUP2 MSTORE PUSH1 0x4 ADD DUP1 DUP4 PUSH20 0xFFFFFFFFFFFFFFFFFFFFFFFFFFFFFFFFFFFFFFFF AND DUP2 MSTORE PUSH1 0x20 ADD DUP3 DUP2 MSTORE PUSH1 0x20 ADD SWAP3 POP POP POP PUSH1 0x0 PUSH1 0x40 MLOAD DUP1 DUP4 SUB DUP2 PUSH1 0x0 DUP8 DUP1 EXTCODESIZE ISZERO DUP1 ISZERO PUSH2 0x38E5 JUMPI PUSH1 0x0 DUP1 REVERT JUMPDEST POP GAS CALL ISZERO DUP1 ISZERO PUSH2 0x38F9 JUMPI RETURNDATASIZE PUSH1 0x0 DUP1 RETURNDATACOPY RETURNDATASIZE PUSH1 0x0 REVERT JUMPDEST POP POP POP POP DUP2 PUSH20 0xFFFFFFFFFFFFFFFFFFFFFFFFFFFFFFFFFFFFFFFF AND DUP5 PUSH20 0xFFFFFFFFFFFFFFFFFFFFFFFFFFFFFFFFFFFFFFFF AND PUSH32 0xA721AB4682CEB61C7E4D264EF879FC419A6D764B136E7D96EF54B2053C75673 DUP4 PUSH1 0x40 MLOAD DUP1 DUP3 DUP2 MSTORE PUSH1 0x20 ADD SWAP2 POP POP PUSH1 0x40 MLOAD DUP1 SWAP2 SUB SWAP1 LOG3 POP JUMPDEST POP POP POP JUMP JUMPDEST PUSH2 0x3A06 DUP4 PUSH4 0xA9059CBB PUSH1 0xE0 SHL DUP5 DUP5 PUSH1 0x40 MLOAD PUSH1 0x24 ADD DUP1 DUP4 PUSH20 0xFFFFFFFFFFFFFFFFFFFFFFFFFFFFFFFFFFFFFFFF AND DUP2 MSTORE PUSH1 0x20 ADD DUP3 DUP2 MSTORE PUSH1 0x20 ADD SWAP3 POP POP POP PUSH1 0x40 MLOAD PUSH1 0x20 DUP2 DUP4 SUB SUB DUP2 MSTORE SWAP1 PUSH1 0x40 MSTORE SWAP1 PUSH28 0xFFFFFFFFFFFFFFFFFFFFFFFFFFFFFFFFFFFFFFFFFFFFFFFFFFFFFFFF NOT AND PUSH1 0x20 DUP3 ADD DUP1 MLOAD PUSH28 0xFFFFFFFFFFFFFFFFFFFFFFFFFFFFFFFFFFFFFFFFFFFFFFFFFFFFFFFF DUP4 DUP2 DUP4 AND OR DUP4 MSTORE POP POP POP POP PUSH2 0x408C JUMP JUMPDEST POP POP POP JUMP JUMPDEST PUSH1 0x0 DUP1 DUP3 DUP5 ADD SWAP1 POP DUP4 DUP2 LT ISZERO PUSH2 0x3A89 JUMPI PUSH1 0x40 MLOAD PUSH32 0x8C379A000000000000000000000000000000000000000000000000000000000 DUP2 MSTORE PUSH1 0x4 ADD DUP1 DUP1 PUSH1 0x20 ADD DUP3 DUP2 SUB DUP3 MSTORE PUSH1 0x1B DUP2 MSTORE PUSH1 0x20 ADD DUP1 PUSH32 0x536166654D6174683A206164646974696F6E206F766572666C6F770000000000 DUP2 MSTORE POP PUSH1 0x20 ADD SWAP2 POP POP PUSH1 0x40 MLOAD DUP1 SWAP2 SUB SWAP1 REVERT JUMPDEST DUP1 SWAP2 POP POP SWAP3 SWAP2 POP POP JUMP JUMPDEST PUSH1 0x0 CALLER SWAP1 POP SWAP1 JUMP JUMPDEST DUP1 PUSH20 0xFFFFFFFFFFFFFFFFFFFFFFFFFFFFFFFFFFFFFFFF AND DUP2 PUSH20 0xFFFFFFFFFFFFFFFFFFFFFFFFFFFFFFFFFFFFFFFF AND EQ DUP1 ISZERO PUSH2 0x3B61 JUMPI POP PUSH1 0x0 PUSH20 0xFFFFFFFFFFFFFFFFFFFFFFFFFFFFFFFFFFFFFFFF AND PUSH1 0xB PUSH1 0x0 DUP5 PUSH20 0xFFFFFFFFFFFFFFFFFFFFFFFFFFFFFFFFFFFFFFFF AND PUSH20 0xFFFFFFFFFFFFFFFFFFFFFFFFFFFFFFFFFFFFFFFF AND DUP2 MSTORE PUSH1 0x20 ADD SWAP1 DUP2 MSTORE PUSH1 0x20 ADD PUSH1 0x0 KECCAK256 PUSH1 0x0 SWAP1 SLOAD SWAP1 PUSH2 0x100 EXP SWAP1 DIV PUSH20 0xFFFFFFFFFFFFFFFFFFFFFFFFFFFFFFFFFFFFFFFF AND PUSH20 0xFFFFFFFFFFFFFFFFFFFFFFFFFFFFFFFFFFFFFFFF AND EQ JUMPDEST DUP1 ISZERO PUSH2 0x3B9A JUMPI POP PUSH1 0x0 PUSH20 0xFFFFFFFFFFFFFFFFFFFFFFFFFFFFFFFFFFFFFFFF AND DUP2 PUSH20 0xFFFFFFFFFFFFFFFFFFFFFFFFFFFFFFFFFFFFFFFF AND EQ ISZERO JUMPDEST DUP1 ISZERO PUSH2 0x3BD2 JUMPI POP DUP2 PUSH20 0xFFFFFFFFFFFFFFFFFFFFFFFFFFFFFFFFFFFFFFFF AND DUP2 PUSH20 0xFFFFFFFFFFFFFFFFFFFFFFFFFFFFFFFFFFFFFFFF AND EQ ISZERO JUMPDEST ISZERO PUSH2 0x3CFE JUMPI DUP1 PUSH1 0xB PUSH1 0x0 DUP5 PUSH20 0xFFFFFFFFFFFFFFFFFFFFFFFFFFFFFFFFFFFFFFFF AND PUSH20 0xFFFFFFFFFFFFFFFFFFFFFFFFFFFFFFFFFFFFFFFF AND DUP2 MSTORE PUSH1 0x20 ADD SWAP1 DUP2 MSTORE PUSH1 0x20 ADD PUSH1 0x0 KECCAK256 PUSH1 0x0 PUSH2 0x100 EXP DUP2 SLOAD DUP2 PUSH20 0xFFFFFFFFFFFFFFFFFFFFFFFFFFFFFFFFFFFFFFFF MUL NOT AND SWAP1 DUP4 PUSH20 0xFFFFFFFFFFFFFFFFFFFFFFFFFFFFFFFFFFFFFFFF AND MUL OR SWAP1 SSTORE POP PUSH1 0x1 PUSH1 0xC PUSH1 0x0 DUP4 PUSH20 0xFFFFFFFFFFFFFFFFFFFFFFFFFFFFFFFFFFFFFFFF AND PUSH20 0xFFFFFFFFFFFFFFFFFFFFFFFFFFFFFFFFFFFFFFFF AND DUP2 MSTORE PUSH1 0x20 ADD SWAP1 DUP2 MSTORE PUSH1 0x20 ADD PUSH1 0x0 KECCAK256 PUSH1 0x0 DUP3 DUP3 SLOAD ADD SWAP3 POP POP DUP2 SWAP1 SSTORE POP DUP1 PUSH20 0xFFFFFFFFFFFFFFFFFFFFFFFFFFFFFFFFFFFFFFFF AND DUP3 PUSH20 0xFFFFFFFFFFFFFFFFFFFFFFFFFFFFFFFFFFFFFFFF AND PUSH32 0x9D05414FB79FAC216C15606DE5CC06664E91A254E4D5F57664D5F1BEAF7FB7EF PUSH1 0x40 MLOAD PUSH1 0x40 MLOAD DUP1 SWAP2 SUB SWAP1 LOG3 JUMPDEST POP POP JUMP JUMPDEST PUSH2 0x3DBD DUP5 PUSH4 0x23B872DD PUSH1 0xE0 SHL DUP6 DUP6 DUP6 PUSH1 0x40 MLOAD PUSH1 0x24 ADD DUP1 DUP5 PUSH20 0xFFFFFFFFFFFFFFFFFFFFFFFFFFFFFFFFFFFFFFFF AND DUP2 MSTORE PUSH1 0x20 ADD DUP4 PUSH20 0xFFFFFFFFFFFFFFFFFFFFFFFFFFFFFFFFFFFFFFFF AND DUP2 MSTORE PUSH1 0x20 ADD DUP3 DUP2 MSTORE PUSH1 0x20 ADD SWAP4 POP POP POP POP PUSH1 0x40 MLOAD PUSH1 0x20 DUP2 DUP4 SUB SUB DUP2 MSTORE SWAP1 PUSH1 0x40 MSTORE SWAP1 PUSH28 0xFFFFFFFFFFFFFFFFFFFFFFFFFFFFFFFFFFFFFFFFFFFFFFFFFFFFFFFF NOT AND PUSH1 0x20 DUP3 ADD DUP1 MLOAD PUSH28 0xFFFFFFFFFFFFFFFFFFFFFFFFFFFFFFFFFFFFFFFFFFFFFFFFFFFFFFFF DUP4 DUP2 DUP4 AND OR DUP4 MSTORE POP POP POP POP PUSH2 0x408C JUMP JUMPDEST POP POP POP POP JUMP JUMPDEST PUSH1 0x0 PUSH20 0xFFFFFFFFFFFFFFFFFFFFFFFFFFFFFFFFFFFFFFFF AND DUP2 PUSH20 0xFFFFFFFFFFFFFFFFFFFFFFFFFFFFFFFFFFFFFFFF AND EQ ISZERO PUSH2 0x3E49 JUMPI PUSH1 0x40 MLOAD PUSH32 0x8C379A000000000000000000000000000000000000000000000000000000000 DUP2 MSTORE PUSH1 0x4 ADD DUP1 DUP1 PUSH1 0x20 ADD DUP3 DUP2 SUB DUP3 MSTORE PUSH1 0x26 DUP2 MSTORE PUSH1 0x20 ADD DUP1 PUSH2 0x44A5 PUSH1 0x26 SWAP2 CODECOPY PUSH1 0x40 ADD SWAP2 POP POP PUSH1 0x40 MLOAD DUP1 SWAP2 SUB SWAP1 REVERT JUMPDEST DUP1 PUSH20 0xFFFFFFFFFFFFFFFFFFFFFFFFFFFFFFFFFFFFFFFF AND PUSH1 0x0 DUP1 SLOAD SWAP1 PUSH2 0x100 EXP SWAP1 DIV PUSH20 0xFFFFFFFFFFFFFFFFFFFFFFFFFFFFFFFFFFFFFFFF AND PUSH20 0xFFFFFFFFFFFFFFFFFFFFFFFFFFFFFFFFFFFFFFFF AND PUSH32 0x8BE0079C531659141344CD1FD0A4F28419497F9722A3DAAFE3B4186F6B6457E0 PUSH1 0x40 MLOAD PUSH1 0x40 MLOAD DUP1 SWAP2 SUB SWAP1 LOG3 DUP1 PUSH1 0x0 DUP1 PUSH2 0x100 EXP DUP2 SLOAD DUP2 PUSH20 0xFFFFFFFFFFFFFFFFFFFFFFFFFFFFFFFFFFFFFFFF MUL NOT AND SWAP1 DUP4 PUSH20 0xFFFFFFFFFFFFFFFFFFFFFFFFFFFFFFFFFFFFFFFF AND MUL OR SWAP1 SSTORE POP POP JUMP JUMPDEST PUSH1 0x0 DUP1 DUP4 GT DUP3 SWAP1 PUSH2 0x3FB2 JUMPI PUSH1 0x40 MLOAD PUSH32 0x8C379A000000000000000000000000000000000000000000000000000000000 DUP2 MSTORE PUSH1 0x4 ADD DUP1 DUP1 PUSH1 0x20 ADD DUP3 DUP2 SUB DUP3 MSTORE DUP4 DUP2 DUP2 MLOAD DUP2 MSTORE PUSH1 0x20 ADD SWAP2 POP DUP1 MLOAD SWAP1 PUSH1 0x20 ADD SWAP1 DUP1 DUP4 DUP4 PUSH1 0x0 JUMPDEST DUP4 DUP2 LT ISZERO PUSH2 0x3F77 JUMPI DUP1 DUP3 ADD MLOAD DUP2 DUP5 ADD MSTORE PUSH1 0x20 DUP2 ADD SWAP1 POP PUSH2 0x3F5C JUMP JUMPDEST POP POP POP POP SWAP1 POP SWAP1 DUP2 ADD SWAP1 PUSH1 0x1F AND DUP1 ISZERO PUSH2 0x3FA4 JUMPI DUP1 DUP3 SUB DUP1 MLOAD PUSH1 0x1 DUP4 PUSH1 0x20 SUB PUSH2 0x100 EXP SUB NOT AND DUP2 MSTORE PUSH1 0x20 ADD SWAP2 POP JUMPDEST POP SWAP3 POP POP POP PUSH1 0x40 MLOAD DUP1 SWAP2 SUB SWAP1 REVERT JUMPDEST POP PUSH1 0x0 DUP4 DUP6 DUP2 PUSH2 0x3FBE JUMPI INVALID JUMPDEST DIV SWAP1 POP DUP1 SWAP2 POP POP SWAP4 SWAP3 POP POP POP JUMP JUMPDEST PUSH1 0x0 DUP4 DUP4 GT ISZERO DUP3 SWAP1 PUSH2 0x4079 JUMPI PUSH1 0x40 MLOAD PUSH32 0x8C379A000000000000000000000000000000000000000000000000000000000 DUP2 MSTORE PUSH1 0x4 ADD DUP1 DUP1 PUSH1 0x20 ADD DUP3 DUP2 SUB DUP3 MSTORE DUP4 DUP2 DUP2 MLOAD DUP2 MSTORE PUSH1 0x20 ADD SWAP2 POP DUP1 MLOAD SWAP1 PUSH1 0x20 ADD SWAP1 DUP1 DUP4 DUP4 PUSH1 0x0 JUMPDEST DUP4 DUP2 LT ISZERO PUSH2 0x403E JUMPI DUP1 DUP3 ADD MLOAD DUP2 DUP5 ADD MSTORE PUSH1 0x20 DUP2 ADD SWAP1 POP PUSH2 0x4023 JUMP JUMPDEST POP POP POP POP SWAP1 POP SWAP1 DUP2 ADD SWAP1 PUSH1 0x1F AND DUP1 ISZERO PUSH2 0x406B JUMPI DUP1 DUP3 SUB DUP1 MLOAD PUSH1 0x1 DUP4 PUSH1 0x20 SUB PUSH2 0x100 EXP SUB NOT AND DUP2 MSTORE PUSH1 0x20 ADD SWAP2 POP JUMPDEST POP SWAP3 POP POP POP PUSH1 0x40 MLOAD DUP1 SWAP2 SUB SWAP1 REVERT JUMPDEST POP PUSH1 0x0 DUP4 DUP6 SUB SWAP1 POP DUP1 SWAP2 POP POP SWAP4 SWAP3 POP POP POP JUMP JUMPDEST PUSH1 0x60 PUSH2 0x40EE DUP3 PUSH1 0x40 MLOAD DUP1 PUSH1 0x40 ADD PUSH1 0x40 MSTORE DUP1 PUSH1 0x20 DUP2 MSTORE PUSH1 0x20 ADD PUSH32 0x5361666542455032303A206C6F772D6C6576656C2063616C6C206661696C6564 DUP2 MSTORE POP DUP6 PUSH20 0xFFFFFFFFFFFFFFFFFFFFFFFFFFFFFFFFFFFFFFFF AND PUSH2 0x417B SWAP1 SWAP3 SWAP2 SWAP1 PUSH4 0xFFFFFFFF AND JUMP JUMPDEST SWAP1 POP PUSH1 0x0 DUP2 MLOAD GT ISZERO PUSH2 0x4176 JUMPI DUP1 DUP1 PUSH1 0x20 ADD SWAP1 MLOAD PUSH1 0x20 DUP2 LT ISZERO PUSH2 0x410F JUMPI PUSH1 0x0 DUP1 REVERT JUMPDEST DUP2 ADD SWAP1 DUP1 DUP1 MLOAD SWAP1 PUSH1 0x20 ADD SWAP1 SWAP3 SWAP2 SWAP1 POP POP POP PUSH2 0x4175 JUMPI PUSH1 0x40 MLOAD PUSH32 0x8C379A000000000000000000000000000000000000000000000000000000000 DUP2 MSTORE PUSH1 0x4 ADD DUP1 DUP1 PUSH1 0x20 ADD DUP3 DUP2 SUB DUP3 MSTORE PUSH1 0x2A DUP2 MSTORE PUSH1 0x20 ADD DUP1 PUSH2 0x447B PUSH1 0x2A SWAP2 CODECOPY PUSH1 0x40 ADD SWAP2 POP POP PUSH1 0x40 MLOAD DUP1 SWAP2 SUB SWAP1 REVERT JUMPDEST JUMPDEST POP POP POP JUMP JUMPDEST PUSH1 0x60 PUSH2 0x418A DUP5 DUP5 PUSH1 0x0 DUP6 PUSH2 0x4193 JUMP JUMPDEST SWAP1 POP SWAP4 SWAP3 POP POP POP JUMP JUMPDEST PUSH1 0x60 DUP3 SELFBALANCE LT ISZERO PUSH2 0x41EE JUMPI PUSH1 0x40 MLOAD PUSH32 0x8C379A000000000000000000000000000000000000000000000000000000000 DUP2 MSTORE PUSH1 0x4 ADD DUP1 DUP1 PUSH1 0x20 ADD DUP3 DUP2 SUB DUP3 MSTORE PUSH1 0x26 DUP2 MSTORE PUSH1 0x20 ADD DUP1 PUSH2 0x450E PUSH1 0x26 SWAP2 CODECOPY PUSH1 0x40 ADD SWAP2 POP POP PUSH1 0x40 MLOAD DUP1 SWAP2 SUB SWAP1 REVERT JUMPDEST PUSH2 0x41F7 DUP6 PUSH2 0x433C JUMP JUMPDEST PUSH2 0x4269 JUMPI PUSH1 0x40 MLOAD PUSH32 0x8C379A000000000000000000000000000000000000000000000000000000000 DUP2 MSTORE PUSH1 0x4 ADD DUP1 DUP1 PUSH1 0x20 ADD DUP3 DUP2 SUB DUP3 MSTORE PUSH1 0x1D DUP2 MSTORE PUSH1 0x20 ADD DUP1 PUSH32 0x416464726573733A2063616C6C20746F206E6F6E2D636F6E7472616374000000 DUP2 MSTORE POP PUSH1 0x20 ADD SWAP2 POP POP PUSH1 0x40 MLOAD DUP1 SWAP2 SUB SWAP1 REVERT JUMPDEST PUSH1 0x0 PUSH1 0x60 DUP7 PUSH20 0xFFFFFFFFFFFFFFFFFFFFFFFFFFFFFFFFFFFFFFFF AND DUP6 DUP8 PUSH1 0x40 MLOAD DUP1 DUP3 DUP1 MLOAD SWAP1 PUSH1 0x20 ADD SWAP1 DUP1 DUP4 DUP4 JUMPDEST PUSH1 0x20 DUP4 LT PUSH2 0x42B9 JUMPI DUP1 MLOAD DUP3 MSTORE PUSH1 0x20 DUP3 ADD SWAP2 POP PUSH1 0x20 DUP2 ADD SWAP1 POP PUSH1 0x20 DUP4 SUB SWAP3 POP PUSH2 0x4296 JUMP JUMPDEST PUSH1 0x1 DUP4 PUSH1 0x20 SUB PUSH2 0x100 EXP SUB DUP1 NOT DUP3 MLOAD AND DUP2 DUP5 MLOAD AND DUP1 DUP3 OR DUP6 MSTORE POP POP POP POP POP POP SWAP1 POP ADD SWAP2 POP POP PUSH1 0x0 PUSH1 0x40 MLOAD DUP1 DUP4 SUB DUP2 DUP6 DUP8 GAS CALL SWAP3 POP POP POP RETURNDATASIZE DUP1 PUSH1 0x0 DUP2 EQ PUSH2 0x431B JUMPI PUSH1 0x40 MLOAD SWAP2 POP PUSH1 0x1F NOT PUSH1 0x3F RETURNDATASIZE ADD AND DUP3 ADD PUSH1 0x40 MSTORE RETURNDATASIZE DUP3 MSTORE RETURNDATASIZE PUSH1 0x0 PUSH1 0x20 DUP5 ADD RETURNDATACOPY PUSH2 0x4320 JUMP JUMPDEST PUSH1 0x60 SWAP2 POP JUMPDEST POP SWAP2 POP SWAP2 POP PUSH2 0x4330 DUP3 DUP3 DUP7 PUSH2 0x434F JUMP JUMPDEST SWAP3 POP POP POP SWAP5 SWAP4 POP POP POP POP JUMP JUMPDEST PUSH1 0x0 DUP1 DUP3 EXTCODESIZE SWAP1 POP PUSH1 0x0 DUP2 GT SWAP2 POP POP SWAP2 SWAP1 POP JUMP JUMPDEST PUSH1 0x60 DUP4 ISZERO PUSH2 0x435F JUMPI DUP3 SWAP1 POP PUSH2 0x4414 JUMP JUMPDEST PUSH1 0x0 DUP4 MLOAD GT ISZERO PUSH2 0x4372 JUMPI DUP3 MLOAD DUP1 DUP5 PUSH1 0x20 ADD REVERT JUMPDEST DUP2 PUSH1 0x40 MLOAD PUSH32 0x8C379A000000000000000000000000000000000000000000000000000000000 DUP2 MSTORE PUSH1 0x4 ADD DUP1 DUP1 PUSH1 0x20 ADD DUP3 DUP2 SUB DUP3 MSTORE DUP4 DUP2 DUP2 MLOAD DUP2 MSTORE PUSH1 0x20 ADD SWAP2 POP DUP1 MLOAD SWAP1 PUSH1 0x20 ADD SWAP1 DUP1 DUP4 DUP4 PUSH1 0x0 JUMPDEST DUP4 DUP2 LT ISZERO PUSH2 0x43D9 JUMPI DUP1 DUP3 ADD MLOAD DUP2 DUP5 ADD MSTORE PUSH1 0x20 DUP2 ADD SWAP1 POP PUSH2 0x43BE JUMP JUMPDEST POP POP POP POP SWAP1 POP SWAP1 DUP2 ADD SWAP1 PUSH1 0x1F AND DUP1 ISZERO PUSH2 0x4406 JUMPI DUP1 DUP3 SUB DUP1 MLOAD PUSH1 0x1 DUP4 PUSH1 0x20 SUB PUSH2 0x100 EXP SUB NOT AND DUP2 MSTORE PUSH1 0x20 ADD SWAP2 POP JUMPDEST POP SWAP3 POP POP POP PUSH1 0x40 MLOAD DUP1 SWAP2 SUB SWAP1 REVERT JUMPDEST SWAP4 SWAP3 POP POP POP JUMP INVALID PUSH2 0x6464 GASPRICE KECCAK256 PUSH10 0x6E76616C696420646570 PUSH16 0x7369742066656520626173697320706F PUSH10 0x6E747375706461746552 PUSH6 0x66426F6E7573 POP PUSH6 0x7263656E743A KECCAK256 PUSH10 0x6E76616C696420726566 PUSH6 0x7272616C2062 PUSH16 0x6E757320626173697320706F696E7473 MSTORE8 PUSH2 0x6665 TIMESTAMP GASLIMIT POP ORIGIN ADDRESS GASPRICE KECCAK256 TIMESTAMP GASLIMIT POP ORIGIN ADDRESS KECCAK256 PUSH16 0x7065726174696F6E20646964206E6F74 KECCAK256 PUSH20 0x7563636565644F776E61626C653A206E6577206F PUSH24 0x6E657220697320746865207A65726F206164647265737373 PUSH2 0x6665 POP PUSH13 0x756D5472616E736665723A2074 PUSH19 0x616E73666572206661696C65642E6465706F73 PUSH10 0x743A20496E76616C6964 KECCAK256 PUSH19 0x65666572726572206164647265737341646472 PUSH6 0x73733A20696E PUSH20 0x756666696369656E742062616C616E636520666F PUSH19 0x2063616C6C726564756365456D697373696F6E MSTORE PUSH2 0x7465 JUMPI PUSH10 0x746844656661756C7452 PUSH2 0x7465 GASPRICE KECCAK256 NUMBER PUSH2 0x6E20 PUSH16 0x6E6C792062652063616C6C6564206166 PUSH21 0x6572206D696E696E6720737461727473536166654D PUSH2 0x7468 GASPRICE KECCAK256 PUSH14 0x756C7469706C69636174696F6E20 PUSH16 0x766572666C6F777365743A20696E7661 PUSH13 0x6964206465706F736974206665 PUSH6 0x206261736973 KECCAK256 PUSH17 0x6F696E7473757064617465526566426F6E PUSH22 0x7350657263656E743A2073616D6520626F6E75732062 PUSH17 0x20736574676574506F6F6C4964466F724C PUSH17 0x546F6B656E3A20646F206E6F7420657869 PUSH20 0x74726564756365456D697373696F6E5261746557 PUSH10 0x746844656661756C7452 PUSH2 0x7465 GASPRICE KECCAK256 GASLIMIT PUSH14 0x697373696F6E2072617465206861 PUSH20 0x207265616368656420746865206D696E696D756D KECCAK256 PUSH21 0x68726573686F6C64726564756365456D697373696F PUSH15 0x526174655769746844656661756C74 MSTORE PUSH2 0x7465 GASPRICE KECCAK256 POP PUSH6 0x726D69737369 PUSH16 0x6E20666C6167206E6F74207475726E65 PUSH5 0x206F6EA264 PUSH10 0x70667358221220A3E534 JUMPI 0xE5 0xCB CALLCODE PUSH1 0x98 SWAP11 PUSH15 0x580E651E0155394B1D41EA9559748 0xF7 PUSH10 0xCEBE04D264736F6C6343 STOP MOD 0xC STOP CALLER "},"gasEstimates":{"creation":{"codeDepositCost":"3626200","executionCost":"infinite","totalCost":"infinite"},"external":{"EMISSION_REDUCTION_PERIOD_BLOCKS()":"338","EMISSION_REDUCTION_RATE_PER_PERIOD()":"272","INITIAL_EMISSION_RATE()":"272","MAXIMUM_DEPOSIT_FEE_BP()":"322","MAXIMUM_REFERRAL_BP()":"346","MINIMUM_EMISSION_RATE()":"339","add(uint256,address,uint16,bool)":"infinite","deposit(uint256,uint256)":"infinite","deposit(uint256,uint256,address)":"infinite","devAddr()":"1113","emergencyWithdraw(uint256)":"infinite","feeAddress()":"1137","getMultiplier(uint256,uint256)":"infinite","getPoolIdForLpToken(address)":"infinite","getReferral(address)":"1284","isAllowReduceEmissionRate()":"1181","lastReductionPeriodIndex()":"1138","massUpdatePools()":"infinite","owner()":"1167","pendingTEXO(uint256,address)":"infinite","poolExistence(address)":"1289","poolIdForLpAddress(address)":"1302","poolInfo(uint256)":"5486","poolLength()":"1068","reduceEmissionRateWithDefaultRate()":"infinite","refBonusBP()":"1116","referredCount(address)":"1237","referrers(address)":"1268","renounceOwnership()":"24446","set(uint256,uint256,uint16,bool)":"infinite","setDevAddress(address)":"23664","setEmissionRate(uint256)":"21299","setFeeAddress(address)":"23643","setFlagAllowReduceEmissionRate(bool)":"22049","startBlock()":"1051","tEXO()":"1092","tEXOPerBlock()":"1094","totalAllocPoint()":"1096","transferOwnership(address)":"infinite","updatePool(uint256)":"infinite","updateReferralBonusBp(uint256)":"infinite","userInfo(uint256,address)":"2196","withdraw(uint256,uint256)":"infinite"},"internal":{"payReferralCommission(address,uint256)":"infinite","safeTEXOTransfer(address,uint256)":"infinite","setReferral(address,address)":"44546"}},"methodIdentifiers":{"EMISSION_REDUCTION_PERIOD_BLOCKS()":"d4adafdf","EMISSION_REDUCTION_RATE_PER_PERIOD()":"b7eee1f1","INITIAL_EMISSION_RATE()":"91bb809c","MAXIMUM_DEPOSIT_FEE_BP()":"955c9b93","MAXIMUM_REFERRAL_BP()":"3a22df78","MINIMUM_EMISSION_RATE()":"61e0c468","add(uint256,address,uint16,bool)":"84e82a33","deposit(uint256,uint256)":"e2bbb158","deposit(uint256,uint256,address)":"8dbdbe6d","devAddr()":"da09c72c","emergencyWithdraw(uint256)":"5312ea8e","feeAddress()":"41275358","getMultiplier(uint256,uint256)":"8dbb1e3a","getPoolIdForLpToken(address)":"190f39f0","getReferral(address)":"3b0f0f2f","isAllowReduceEmissionRate()":"47e3cda5","lastReductionPeriodIndex()":"6a9a7660","massUpdatePools()":"630b5ba1","owner()":"8da5cb5b","pendingTEXO(uint256,address)":"dfe3d2cd","poolExistence(address)":"cbd258b5","poolIdForLpAddress(address)":"9bf62f7e","poolInfo(uint256)":"1526fe27","poolLength()":"081e3eda","reduceEmissionRateWithDefaultRate()":"ea76bc29","refBonusBP()":"66f685ea","referredCount(address)":"3f7b06d8","referrers(address)":"4a3b68cc","renounceOwnership()":"715018a6","set(uint256,uint256,uint16,bool)":"d9638422","setDevAddress(address)":"d0d41fe1","setEmissionRate(uint256)":"a1bdb15e","setFeeAddress(address)":"8705fcd4","setFlagAllowReduceEmissionRate(bool)":"80361747","startBlock()":"48cd4cb1","tEXO()":"ae715d70","tEXOPerBlock()":"660f8340","totalAllocPoint()":"17caf6f1","transferOwnership(address)":"f2fde38b","updatePool(uint256)":"51eb05a6","updateReferralBonusBp(uint256)":"64ed743b","userInfo(uint256,address)":"93f1a40b","withdraw(uint256,uint256)":"441a3e70"}},"storageLayout":{"storage":[{"astId":325,"contract":"TEXOToken.sol:TEXOOrchestrator","label":"_owner","offset":0,"slot":"0","type":"t_address"},{"astId":688,"contract":"TEXOToken.sol:TEXOOrchestrator","label":"_status","offset":0,"slot":"1","type":"t_uint256"},{"astId":1483,"contract":"TEXOToken.sol:TEXOOrchestrator","label":"tEXO","offset":0,"slot":"2","type":"t_contract(TEXOToken)1454"},{"astId":1485,"contract":"TEXOToken.sol:TEXOOrchestrator","label":"devAddr","offset":0,"slot":"3","type":"t_address"},{"astId":1487,"contract":"TEXOToken.sol:TEXOOrchestrator","label":"tEXOPerBlock","offset":0,"slot":"4","type":"t_uint256"},{"astId":1489,"contract":"TEXOToken.sol:TEXOOrchestrator","label":"feeAddress","offset":0,"slot":"5","type":"t_address"},{"astId":1492,"contract":"TEXOToken.sol:TEXOOrchestrator","label":"poolInfo","offset":0,"slot":"6","type":"t_array(t_struct(PoolInfo)1481_storage)dyn_storage"},{"astId":1498,"contract":"TEXOToken.sol:TEXOOrchestrator","label":"userInfo","offset":0,"slot":"7","type":"t_mapping(t_uint256,t_mapping(t_address,t_struct(UserInfo)1470_storage))"},{"astId":1501,"contract":"TEXOToken.sol:TEXOOrchestrator","label":"totalAllocPoint","offset":0,"slot":"8","type":"t_uint256"},{"astId":1503,"contract":"TEXOToken.sol:TEXOOrchestrator","label":"startBlock","offset":0,"slot":"9","type":"t_uint256"},{"astId":1506,"contract":"TEXOToken.sol:TEXOOrchestrator","label":"refBonusBP","offset":0,"slot":"10","type":"t_uint256"},{"astId":1516,"contract":"TEXOToken.sol:TEXOOrchestrator","label":"referrers","offset":0,"slot":"11","type":"t_mapping(t_address,t_address)"},{"astId":1520,"contract":"TEXOToken.sol:TEXOOrchestrator","label":"referredCount","offset":0,"slot":"12","type":"t_mapping(t_address,t_uint256)"},{"astId":1524,"contract":"TEXOToken.sol:TEXOOrchestrator","label":"poolExistence","offset":0,"slot":"13","type":"t_mapping(t_contract(IBEP20)320,t_bool)"},{"astId":1528,"contract":"TEXOToken.sol:TEXOOrchestrator","label":"poolIdForLpAddress","offset":0,"slot":"14","type":"t_mapping(t_contract(IBEP20)320,t_uint256)"},{"astId":1543,"contract":"TEXOToken.sol:TEXOOrchestrator","label":"lastReductionPeriodIndex","offset":0,"slot":"15","type":"t_uint256"},{"astId":1546,"contract":"TEXOToken.sol:TEXOOrchestrator","label":"isAllowReduceEmissionRate","offset":0,"slot":"16","type":"t_bool"}],"types":{"t_address":{"encoding":"inplace","label":"address","numberOfBytes":"20"},"t_array(t_struct(PoolInfo)1481_storage)dyn_storage":{"base":"t_struct(PoolInfo)1481_storage","encoding":"dynamic_array","label":"struct TEXOOrchestrator.PoolInfo[]","numberOfBytes":"32"},"t_bool":{"encoding":"inplace","label":"bool","numberOfBytes":"1"},"t_contract(IBEP20)320":{"encoding":"inplace","label":"contract IBEP20","numberOfBytes":"20"},"t_contract(TEXOToken)1454":{"encoding":"inplace","label":"contract TEXOToken","numberOfBytes":"20"},"t_mapping(t_address,t_address)":{"encoding":"mapping","key":"t_address","label":"mapping(address => address)","numberOfBytes":"32","value":"t_address"},"t_mapping(t_address,t_struct(UserInfo)1470_storage)":{"encoding":"mapping","key":"t_address","label":"mapping(address => struct TEXOOrchestrator.UserInfo)","numberOfBytes":"32","value":"t_struct(UserInfo)1470_storage"},"t_mapping(t_address,t_uint256)":{"encoding":"mapping","key":"t_address","label":"mapping(address => uint256)","numberOfBytes":"32","value":"t_uint256"},"t_mapping(t_contract(IBEP20)320,t_bool)":{"encoding":"mapping","key":"t_contract(IBEP20)320","label":"mapping(contract IBEP20 => bool)","numberOfBytes":"32","value":"t_bool"},"t_mapping(t_contract(IBEP20)320,t_uint256)":{"encoding":"mapping","key":"t_contract(IBEP20)320","label":"mapping(contract IBEP20 => uint256)","numberOfBytes":"32","value":"t_uint256"},"t_mapping(t_uint256,t_mapping(t_address,t_struct(UserInfo)1470_storage))":{"encoding":"mapping","key":"t_uint256","label":"mapping(uint256 => mapping(address => struct TEXOOrchestrator.UserInfo))","numberOfBytes":"32","value":"t_mapping(t_address,t_struct(UserInfo)1470_storage)"},"t_struct(PoolInfo)1481_storage":{"encoding":"inplace","label":"struct TEXOOrchestrator.PoolInfo","members":[{"astId":1472,"contract":"TEXOToken.sol:TEXOOrchestrator","label":"lpToken","offset":0,"slot":"0","type":"t_contract(IBEP20)320"},{"astId":1474,"contract":"TEXOToken.sol:TEXOOrchestrator","label":"allocPoint","offset":0,"slot":"1","type":"t_uint256"},{"astId":1476,"contract":"TEXOToken.sol:TEXOOrchestrator","label":"lastRewardBlock","offset":0,"slot":"2","type":"t_uint256"},{"astId":1478,"contract":"TEXOToken.sol:TEXOOrchestrator","label":"accTEXOPerShare","offset":0,"slot":"3","type":"t_uint256"},{"astId":1480,"contract":"TEXOToken.sol:TEXOOrchestrator","label":"depositFeeBP","offset":0,"slot":"4","type":"t_uint16"}],"numberOfBytes":"160"},"t_struct(UserInfo)1470_storage":{"encoding":"inplace","label":"struct TEXOOrchestrator.UserInfo","members":[{"astId":1467,"contract":"TEXOToken.sol:TEXOOrchestrator","label":"amount","offset":0,"slot":"0","type":"t_uint256"},{"astId":1469,"contract":"TEXOToken.sol:TEXOOrchestrator","label":"rewardDebt","offset":0,"slot":"1","type":"t_uint256"}],"numberOfBytes":"64"},"t_uint16":{"encoding":"inplace","label":"uint16","numberOfBytes":"2"},"t_uint256":{"encoding":"inplace","label":"uint256","numberOfBytes":"32"}}},"userdoc":{"kind":"user","methods":{},"version":1}}