{"abi":[{"inputs":[{"internalType":"contract TEXOToken","name":"_tEXO","type":"address"},{"internalType":"address","name":"_devAddr","type":"address"},{"internalType":"address","name":"_feeAddress","type":"address"},{"internalType":"uint256","name":"_startBlockCountFromNow","type":"uint256"},{"internalType":"uint256","name":"_blockCountToStartReducingEmissionRateFromNow","type":"uint256"},{"internalType":"uint256","name":"_blockCountToUnlockClaimingRewardsFromNow","type":"uint256"}],"stateMutability":"nonpayable","type":"constructor"},{"anonymous":false,"inputs":[{"indexed":true,"internalType":"address","name":"user","type":"address"},{"indexed":true,"internalType":"uint256","name":"pid","type":"uint256"},{"indexed":false,"internalType":"uint256","name":"amount","type":"uint256"}],"name":"Deposit","type":"event"},{"anonymous":false,"inputs":[{"indexed":true,"internalType":"address","name":"user","type":"address"},{"indexed":true,"internalType":"uint256","name":"pid","type":"uint256"},{"indexed":false,"internalType":"uint256","name":"amount","type":"uint256"}],"name":"EmergencyWithdraw","type":"event"},{"anonymous":false,"inputs":[{"indexed":true,"internalType":"address","name":"caller","type":"address"},{"indexed":false,"internalType":"uint256","name":"previousAmount","type":"uint256"},{"indexed":false,"internalType":"uint256","name":"newAmount","type":"uint256"}],"name":"EmissionRateUpdated","type":"event"},{"anonymous":false,"inputs":[{"indexed":true,"internalType":"address","name":"previousOwner","type":"address"},{"indexed":true,"internalType":"address","name":"newOwner","type":"address"}],"name":"OwnershipTransferred","type":"event"},{"anonymous":false,"inputs":[{"indexed":true,"internalType":"address","name":"_referrer","type":"address"},{"indexed":true,"internalType":"address","name":"_user","type":"address"}],"name":"Referral","type":"event"},{"anonymous":false,"inputs":[{"indexed":false,"internalType":"uint256","name":"_oldBp","type":"uint256"},{"indexed":false,"internalType":"uint256","name":"_newBp","type":"uint256"}],"name":"ReferralBonusBpChanged","type":"event"},{"anonymous":false,"inputs":[{"indexed":true,"internalType":"address","name":"_user","type":"address"},{"indexed":true,"internalType":"address","name":"_userTo","type":"address"},{"indexed":false,"internalType":"uint256","name":"_reward","type":"uint256"}],"name":"ReferralPaid","type":"event"},{"anonymous":false,"inputs":[{"indexed":true,"internalType":"address","name":"user","type":"address"},{"indexed":true,"internalType":"address","name":"_feeAddress","type":"address"}],"name":"SetDevAddress","type":"event"},{"anonymous":false,"inputs":[{"indexed":true,"internalType":"address","name":"user","type":"address"},{"indexed":true,"internalType":"address","name":"_devAddress","type":"address"}],"name":"SetFeeAddress","type":"event"},{"anonymous":false,"inputs":[{"indexed":true,"internalType":"address","name":"user","type":"address"},{"indexed":true,"internalType":"uint256","name":"pid","type":"uint256"},{"indexed":false,"internalType":"uint256","name":"amount","type":"uint256"}],"name":"Withdraw","type":"event"},{"inputs":[],"name":"EMISSION_REDUCTION_PERIOD_BLOCKS","outputs":[{"internalType":"uint256","name":"","type":"uint256"}],"stateMutability":"view","type":"function"},{"inputs":[],"name":"EMISSION_REDUCTION_RATE_PER_PERIOD","outputs":[{"internalType":"uint256","name":"","type":"uint256"}],"stateMutability":"view","type":"function"},{"inputs":[],"name":"INITIAL_EMISSION_RATE","outputs":[{"internalType":"uint256","name":"","type":"uint256"}],"stateMutability":"view","type":"function"},{"inputs":[],"name":"MAXIMUM_DEPOSIT_FEE_BP","outputs":[{"internalType":"uint16","name":"","type":"uint16"}],"stateMutability":"view","type":"function"},{"inputs":[],"name":"MAXIMUM_REFERRAL_BP","outputs":[{"internalType":"uint16","name":"","type":"uint16"}],"stateMutability":"view","type":"function"},{"inputs":[],"name":"MINIMUM_EMISSION_RATE","outputs":[{"internalType":"uint256","name":"","type":"uint256"}],"stateMutability":"view","type":"function"},{"inputs":[{"internalType":"uint256","name":"_allocPoint","type":"uint256"},{"internalType":"contract IBEP20","name":"_lpToken","type":"address"},{"internalType":"uint16","name":"_depositFeeBP","type":"uint16"},{"internalType":"bool","name":"_withUpdate","type":"bool"},{"internalType":"uint256","name":"_blockCountToReceiveRewardFromNow","type":"uint256"}],"name":"add","outputs":[],"stateMutability":"nonpayable","type":"function"},{"inputs":[],"name":"blockToStartReducingEmissionRate","outputs":[{"internalType":"uint256","name":"","type":"uint256"}],"stateMutability":"view","type":"function"},{"inputs":[{"internalType":"uint256","name":"_pid","type":"uint256"}],"name":"canWithdrawReward","outputs":[{"internalType":"bool","name":"","type":"bool"}],"stateMutability":"view","type":"function"},{"inputs":[{"internalType":"uint256","name":"_pid","type":"uint256"},{"internalType":"uint256","name":"_amount","type":"uint256"},{"internalType":"address","name":"_referrer","type":"address"}],"name":"deposit","outputs":[],"stateMutability":"nonpayable","type":"function"},{"inputs":[{"internalType":"uint256","name":"_pid","type":"uint256"},{"internalType":"uint256","name":"_amount","type":"uint256"}],"name":"deposit","outputs":[],"stateMutability":"nonpayable","type":"function"},{"inputs":[],"name":"devAddr","outputs":[{"internalType":"address","name":"","type":"address"}],"stateMutability":"view","type":"function"},{"inputs":[{"internalType":"uint256","name":"_pid","type":"uint256"}],"name":"emergencyWithdraw","outputs":[],"stateMutability":"nonpayable","type":"function"},{"inputs":[],"name":"feeAddress","outputs":[{"internalType":"address","name":"","type":"address"}],"stateMutability":"view","type":"function"},{"inputs":[{"internalType":"uint256","name":"_from","type":"uint256"},{"internalType":"uint256","name":"_to","type":"uint256"}],"name":"getMultiplier","outputs":[{"internalType":"uint256","name":"","type":"uint256"}],"stateMutability":"pure","type":"function"},{"inputs":[{"internalType":"contract IBEP20","name":"_lpToken","type":"address"}],"name":"getPoolIdForLpToken","outputs":[{"internalType":"uint256","name":"","type":"uint256"}],"stateMutability":"view","type":"function"},{"inputs":[{"internalType":"address","name":"_user","type":"address"}],"name":"getReferral","outputs":[{"internalType":"address","name":"","type":"address"}],"stateMutability":"view","type":"function"},{"inputs":[],"name":"globalBlockToUnlockClaimingRewards","outputs":[{"internalType":"uint256","name":"","type":"uint256"}],"stateMutability":"view","type":"function"},{"inputs":[],"name":"isAllowReduceEmissionRate","outputs":[{"internalType":"bool","name":"","type":"bool"}],"stateMutability":"view","type":"function"},{"inputs":[],"name":"lastReductionPeriodIndex","outputs":[{"internalType":"uint256","name":"","type":"uint256"}],"stateMutability":"view","type":"function"},{"inputs":[],"name":"massUpdatePools","outputs":[],"stateMutability":"nonpayable","type":"function"},{"inputs":[],"name":"owner","outputs":[{"internalType":"address","name":"","type":"address"}],"stateMutability":"view","type":"function"},{"inputs":[{"internalType":"uint256","name":"_pid","type":"uint256"},{"internalType":"address","name":"_user","type":"address"}],"name":"pendingTEXO","outputs":[{"internalType":"uint256","name":"","type":"uint256"}],"stateMutability":"view","type":"function"},{"inputs":[{"internalType":"contract IBEP20","name":"","type":"address"}],"name":"poolExistence","outputs":[{"internalType":"bool","name":"","type":"bool"}],"stateMutability":"view","type":"function"},{"inputs":[{"internalType":"contract IBEP20","name":"","type":"address"}],"name":"poolIdForLpAddress","outputs":[{"internalType":"uint256","name":"","type":"uint256"}],"stateMutability":"view","type":"function"},{"inputs":[{"internalType":"uint256","name":"","type":"uint256"}],"name":"poolInfo","outputs":[{"internalType":"contract IBEP20","name":"lpToken","type":"address"},{"internalType":"uint256","name":"allocPoint","type":"uint256"},{"internalType":"uint256","name":"blockToReceiveReward","type":"uint256"},{"internalType":"uint256","name":"lastRewardBlock","type":"uint256"},{"internalType":"uint256","name":"accTEXOPerShare","type":"uint256"},{"internalType":"uint16","name":"depositFeeBP","type":"uint16"}],"stateMutability":"view","type":"function"},{"inputs":[],"name":"poolLength","outputs":[{"internalType":"uint256","name":"","type":"uint256"}],"stateMutability":"view","type":"function"},{"inputs":[],"name":"reduceEmissionRateWithDefaultRate","outputs":[],"stateMutability":"nonpayable","type":"function"},{"inputs":[],"name":"refBonusBP","outputs":[{"internalType":"uint256","name":"","type":"uint256"}],"stateMutability":"view","type":"function"},{"inputs":[{"internalType":"address","name":"","type":"address"}],"name":"referredCount","outputs":[{"internalType":"uint256","name":"","type":"uint256"}],"stateMutability":"view","type":"function"},{"inputs":[{"internalType":"address","name":"","type":"address"}],"name":"referrers","outputs":[{"internalType":"address","name":"","type":"address"}],"stateMutability":"view","type":"function"},{"inputs":[],"name":"renounceOwnership","outputs":[],"stateMutability":"nonpayable","type":"function"},{"inputs":[{"internalType":"uint256","name":"_pid","type":"uint256"},{"internalType":"uint256","name":"_allocPoint","type":"uint256"},{"internalType":"uint16","name":"_depositFeeBP","type":"uint16"},{"internalType":"bool","name":"_withUpdate","type":"bool"},{"internalType":"uint256","name":"_blockCountToReceiveRewardFromNow","type":"uint256"}],"name":"set","outputs":[],"stateMutability":"nonpayable","type":"function"},{"inputs":[{"internalType":"uint256","name":"_blockCountToStartReducingEmissionRateFromNow","type":"uint256"}],"name":"setBlockToStartReducingEmissionRate","outputs":[],"stateMutability":"nonpayable","type":"function"},{"inputs":[{"internalType":"address","name":"_devaddr","type":"address"}],"name":"setDevAddress","outputs":[],"stateMutability":"nonpayable","type":"function"},{"inputs":[{"internalType":"uint256","name":"newEmissionRate","type":"uint256"}],"name":"setEmissionRate","outputs":[],"stateMutability":"nonpayable","type":"function"},{"inputs":[{"internalType":"address","name":"_feeAddress","type":"address"}],"name":"setFeeAddress","outputs":[],"stateMutability":"nonpayable","type":"function"},{"inputs":[{"internalType":"bool","name":"isAllow","type":"bool"}],"name":"setFlagAllowReduceEmissionRate","outputs":[],"stateMutability":"nonpayable","type":"function"},{"inputs":[{"internalType":"uint256","name":"_blockCountToUnlockClaimingRewardsFromNow","type":"uint256"}],"name":"setGlobalBlockToUnlockClaimingRewards","outputs":[],"stateMutability":"nonpayable","type":"function"},{"inputs":[],"name":"tEXO","outputs":[{"internalType":"contract TEXOToken","name":"","type":"address"}],"stateMutability":"view","type":"function"},{"inputs":[],"name":"tEXOPerBlock","outputs":[{"internalType":"uint256","name":"","type":"uint256"}],"stateMutability":"view","type":"function"},{"inputs":[],"name":"totalAllocPoint","outputs":[{"internalType":"uint256","name":"","type":"uint256"}],"stateMutability":"view","type":"function"},{"inputs":[{"internalType":"address","name":"newOwner","type":"address"}],"name":"transferOwnership","outputs":[],"stateMutability":"nonpayable","type":"function"},{"inputs":[{"internalType":"uint256","name":"_pid","type":"uint256"}],"name":"updatePool","outputs":[],"stateMutability":"nonpayable","type":"function"},{"inputs":[{"internalType":"uint256","name":"_newRefBonusBp","type":"uint256"}],"name":"updateReferralBonusBp","outputs":[],"stateMutability":"nonpayable","type":"function"},{"inputs":[{"internalType":"uint256","name":"","type":"uint256"},{"internalType":"address","name":"","type":"address"}],"name":"userInfo","outputs":[{"internalType":"uint256","name":"amount","type":"uint256"},{"internalType":"uint256","name":"rewardDebt","type":"uint256"},{"internalType":"bool","name":"isAlreadyStaked","type":"bool"}],"stateMutability":"view","type":"function"},{"inputs":[{"internalType":"uint256","name":"_pid","type":"uint256"},{"internalType":"uint256","name":"_amount","type":"uint256"}],"name":"withdraw","outputs":[],"stateMutability":"nonpayable","type":"function"}],"devdoc":{"kind":"dev","methods":{"owner()":{"details":"Returns the address of the current owner."},"renounceOwnership()":{"details":"Leaves the contract without owner. It will not be possible to call `onlyOwner` functions anymore. Can only be called by the current owner. NOTE: Renouncing ownership will leave the contract without an owner, thereby removing any functionality that is only available to the owner."},"transferOwnership(address)":{"details":"Transfers ownership of the contract to a new account (`newOwner`). Can only be called by the current owner."}},"title":"TEXO Token (tEXO)","version":1},"evm":{"assembly":"    /* \"TEXOToken.sol\":33757:54944  contract TEXOOrchestrator is Ownable, ReentrancyGuard {... */\n  mstore(0x40, 0x80)\n    /* \"TEXOToken.sol\":36107:36108  0 */\n  0x00\n    /* \"TEXOToken.sol\":36074:36108  uint256 public totalAllocPoint = 0 */\n  0x0b\n  sstore\n    /* \"TEXOToken.sol\":36201:36204  100 */\n  0x64\n    /* \"TEXOToken.sol\":36173:36204  uint256 public refBonusBP = 100 */\n  0x0c\n  sstore\n    /* \"TEXOToken.sol\":37332:37333  0 */\n  0x00\n    /* \"TEXOToken.sol\":37290:37333  uint256 public lastReductionPeriodIndex = 0 */\n  0x11\n  sstore\n    /* \"TEXOToken.sol\":37380:37385  false */\n  0x00\n    /* \"TEXOToken.sol\":37340:37385  bool public isAllowReduceEmissionRate = false */\n  0x12\n  exp(0x0100, 0x00)\n  dup2\n  sload\n  dup2\n  0xff\n  mul\n  not\n  and\n  swap1\n  dup4\n  iszero\n  iszero\n  mul\n  or\n  swap1\n  sstore\n  pop\n    /* \"TEXOToken.sol\":38143:38817  constructor(... */\n  callvalue\n  dup1\n  iszero\n  tag_1\n  jumpi\n  0x00\n  dup1\n  revert\ntag_1:\n  pop\n  mload(0x40)\n  sub(codesize, bytecodeSize)\n  dup1\n  bytecodeSize\n  dup4\n  codecopy\n  dup2\n  dup2\n  add\n  0x40\n  mstore\n  0xc0\n  dup2\n  lt\n  iszero\n  tag_2\n  jumpi\n  0x00\n  dup1\n  revert\ntag_2:\n  dup2\n  add\n  swap1\n  dup1\n  dup1\n  mload\n  swap1\n  0x20\n  add\n  swap1\n  swap3\n  swap2\n  swap1\n  dup1\n  mload\n  swap1\n  0x20\n  add\n  swap1\n  swap3\n  swap2\n  swap1\n  dup1\n  mload\n  swap1\n  0x20\n  add\n  swap1\n  swap3\n  swap2\n  swap1\n  dup1\n  mload\n  swap1\n  0x20\n  add\n  swap1\n  swap3\n  swap2\n  swap1\n  dup1\n  mload\n  swap1\n  0x20\n  add\n  swap1\n  swap3\n  swap2\n  swap1\n  dup1\n  mload\n  swap1\n  0x20\n  add\n  swap1\n  swap3\n  swap2\n  swap1\n  pop\n  pop\n  pop\n    /* \"TEXOToken.sol\":11248:11265  address msgSender */\n  0x00\n    /* \"TEXOToken.sol\":11268:11280  _msgSender() */\n  tag_9\n    /* \"TEXOToken.sol\":11268:11278  _msgSender */\n  shl(0x20, tag_10)\n    /* \"TEXOToken.sol\":11268:11280  _msgSender() */\n  0x20\n  shr\n  jump\t// in\ntag_9:\n    /* \"TEXOToken.sol\":11248:11280  address msgSender = _msgSender() */\n  swap1\n  pop\n    /* \"TEXOToken.sol\":11299:11308  msgSender */\n  dup1\n    /* \"TEXOToken.sol\":11290:11296  _owner */\n  0x00\n  dup1\n    /* \"TEXOToken.sol\":11290:11308  _owner = msgSender */\n  0x0100\n  exp\n  dup2\n  sload\n  dup2\n  0xffffffffffffffffffffffffffffffffffffffff\n  mul\n  not\n  and\n  swap1\n  dup4\n  0xffffffffffffffffffffffffffffffffffffffff\n  and\n  mul\n  or\n  swap1\n  sstore\n  pop\n    /* \"TEXOToken.sol\":11356:11365  msgSender */\n  dup1\n    /* \"TEXOToken.sol\":11323:11366  OwnershipTransferred(address(0), msgSender) */\n  0xffffffffffffffffffffffffffffffffffffffff\n  and\n    /* \"TEXOToken.sol\":11352:11353  0 */\n  0x00\n    /* \"TEXOToken.sol\":11323:11366  OwnershipTransferred(address(0), msgSender) */\n  0xffffffffffffffffffffffffffffffffffffffff\n  and\n  0x8be0079c531659141344cd1fd0a4f28419497f9722a3daafe3b4186f6b6457e0\n  mload(0x40)\n  mload(0x40)\n  dup1\n  swap2\n  sub\n  swap1\n  log3\n    /* \"TEXOToken.sol\":11214:11373  constructor () internal {... */\n  pop\n    /* \"TEXOToken.sol\":21153:21154  1 */\n  0x01\n    /* \"TEXOToken.sol\":21268:21275  _status */\n  dup1\n    /* \"TEXOToken.sol\":21268:21290  _status = _NOT_ENTERED */\n  dup2\n  swap1\n  sstore\n  pop\n    /* \"TEXOToken.sol\":38428:38433  _tEXO */\n  dup6\n    /* \"TEXOToken.sol\":38421:38425  tEXO */\n  0x02\n  0x00\n    /* \"TEXOToken.sol\":38421:38433  tEXO = _tEXO */\n  0x0100\n  exp\n  dup2\n  sload\n  dup2\n  0xffffffffffffffffffffffffffffffffffffffff\n  mul\n  not\n  and\n  swap1\n  dup4\n  0xffffffffffffffffffffffffffffffffffffffff\n  and\n  mul\n  or\n  swap1\n  sstore\n  pop\n    /* \"TEXOToken.sol\":38453:38461  _devAddr */\n  dup5\n    /* \"TEXOToken.sol\":38443:38450  devAddr */\n  0x03\n  0x00\n    /* \"TEXOToken.sol\":38443:38461  devAddr = _devAddr */\n  0x0100\n  exp\n  dup2\n  sload\n  dup2\n  0xffffffffffffffffffffffffffffffffffffffff\n  mul\n  not\n  and\n  swap1\n  dup4\n  0xffffffffffffffffffffffffffffffffffffffff\n  and\n  mul\n  or\n  swap1\n  sstore\n  pop\n    /* \"TEXOToken.sol\":38484:38495  _feeAddress */\n  dup4\n    /* \"TEXOToken.sol\":38471:38481  feeAddress */\n  0x05\n  0x00\n    /* \"TEXOToken.sol\":38471:38495  feeAddress = _feeAddress */\n  0x0100\n  exp\n  dup2\n  sload\n  dup2\n  0xffffffffffffffffffffffffffffffffffffffff\n  mul\n  not\n  and\n  swap1\n  dup4\n  0xffffffffffffffffffffffffffffffffffffffff\n  and\n  mul\n  or\n  swap1\n  sstore\n  pop\n    /* \"TEXOToken.sol\":36863:36873  500 finney */\n  0x06f05b59d3b20000\n    /* \"TEXOToken.sol\":38505:38517  tEXOPerBlock */\n  0x04\n    /* \"TEXOToken.sol\":38505:38541  tEXOPerBlock = INITIAL_EMISSION_RATE */\n  dup2\n  swap1\n  sstore\n  pop\n    /* \"TEXOToken.sol\":38579:38602  _startBlockCountFromNow */\n  dup3\n    /* \"TEXOToken.sol\":38564:38576  block.number */\n  number\n    /* \"TEXOToken.sol\":38564:38602  block.number + _startBlockCountFromNow */\n  add\n    /* \"TEXOToken.sol\":38551:38561  startBlock */\n  0x08\n    /* \"TEXOToken.sol\":38551:38602  startBlock = block.number + _startBlockCountFromNow */\n  dup2\n  swap1\n  sstore\n  pop\n    /* \"TEXOToken.sol\":38662:38707  _blockCountToStartReducingEmissionRateFromNow */\n  dup2\n    /* \"TEXOToken.sol\":38647:38659  block.number */\n  number\n    /* \"TEXOToken.sol\":38647:38707  block.number + _blockCountToStartReducingEmissionRateFromNow */\n  add\n    /* \"TEXOToken.sol\":38612:38644  blockToStartReducingEmissionRate */\n  0x06\n    /* \"TEXOToken.sol\":38612:38707  blockToStartReducingEmissionRate = block.number + _blockCountToStartReducingEmissionRateFromNow */\n  dup2\n  swap1\n  sstore\n  pop\n    /* \"TEXOToken.sol\":38769:38810  _blockCountToUnlockClaimingRewardsFromNow */\n  dup1\n    /* \"TEXOToken.sol\":38754:38766  block.number */\n  number\n    /* \"TEXOToken.sol\":38754:38810  block.number + _blockCountToUnlockClaimingRewardsFromNow */\n  add\n    /* \"TEXOToken.sol\":38717:38751  globalBlockToUnlockClaimingRewards */\n  0x07\n    /* \"TEXOToken.sol\":38717:38810  globalBlockToUnlockClaimingRewards = block.number + _blockCountToUnlockClaimingRewardsFromNow */\n  dup2\n  swap1\n  sstore\n  pop\n    /* \"TEXOToken.sol\":38143:38817  constructor(... */\n  pop\n  pop\n  pop\n  pop\n  pop\n  pop\n    /* \"TEXOToken.sol\":33757:54944  contract TEXOOrchestrator is Ownable, ReentrancyGuard {... */\n  jump(tag_13)\n    /* \"TEXOToken.sol\":5955:6051  function _msgSender() internal view returns (address payable) {... */\ntag_10:\n    /* \"TEXOToken.sol\":6000:6015  address payable */\n  0x00\n    /* \"TEXOToken.sol\":6034:6044  msg.sender */\n  caller\n    /* \"TEXOToken.sol\":6027:6044  return msg.sender */\n  swap1\n  pop\n    /* \"TEXOToken.sol\":5955:6051  function _msgSender() internal view returns (address payable) {... */\n  swap1\n  jump\t// out\n    /* \"TEXOToken.sol\":33757:54944  contract TEXOOrchestrator is Ownable, ReentrancyGuard {... */\ntag_13:\n  dataSize(sub_0)\n  dup1\n  dataOffset(sub_0)\n  0x00\n  codecopy\n  0x00\n  return\nstop\n\nsub_0: assembly {\n        /* \"TEXOToken.sol\":33757:54944  contract TEXOOrchestrator is Ownable, ReentrancyGuard {... */\n      mstore(0x40, 0x80)\n      callvalue\n      dup1\n      iszero\n      tag_1\n      jumpi\n      0x00\n      dup1\n      revert\n    tag_1:\n      pop\n      jumpi(tag_2, lt(calldatasize, 0x04))\n      shr(0xe0, calldataload(0x00))\n      dup1\n      0x8705fcd4\n      gt\n      tag_50\n      jumpi\n      dup1\n      0xb51d4c80\n      gt\n      tag_51\n      jumpi\n      dup1\n      0xda09c72c\n      gt\n      tag_52\n      jumpi\n      dup1\n      0xda09c72c\n      eq\n      tag_44\n      jumpi\n      dup1\n      0xdfe3d2cd\n      eq\n      tag_45\n      jumpi\n      dup1\n      0xe2bbb158\n      eq\n      tag_46\n      jumpi\n      dup1\n      0xea76bc29\n      eq\n      tag_47\n      jumpi\n      dup1\n      0xf2fde38b\n      eq\n      tag_48\n      jumpi\n      dup1\n      0xfab96ae6\n      eq\n      tag_49\n      jumpi\n      jump(tag_2)\n    tag_52:\n      dup1\n      0xb51d4c80\n      eq\n      tag_38\n      jumpi\n      dup1\n      0xb7eee1f1\n      eq\n      tag_39\n      jumpi\n      dup1\n      0xc6df25bd\n      eq\n      tag_40\n      jumpi\n      dup1\n      0xcbd258b5\n      eq\n      tag_41\n      jumpi\n      dup1\n      0xd0d41fe1\n      eq\n      tag_42\n      jumpi\n      dup1\n      0xd4adafdf\n      eq\n      tag_43\n      jumpi\n      jump(tag_2)\n    tag_51:\n      dup1\n      0x955c9b93\n      gt\n      tag_53\n      jumpi\n      dup1\n      0x955c9b93\n      eq\n      tag_32\n      jumpi\n      dup1\n      0x9bf62f7e\n      eq\n      tag_33\n      jumpi\n      dup1\n      0xa1515333\n      eq\n      tag_34\n      jumpi\n      dup1\n      0xa1bdb15e\n      eq\n      tag_35\n      jumpi\n      dup1\n      0xae715d70\n      eq\n      tag_36\n      jumpi\n      dup1\n      0xb2a5aa2e\n      eq\n      tag_37\n      jumpi\n      jump(tag_2)\n    tag_53:\n      dup1\n      0x8705fcd4\n      eq\n      tag_26\n      jumpi\n      dup1\n      0x8da5cb5b\n      eq\n      tag_27\n      jumpi\n      dup1\n      0x8dbb1e3a\n      eq\n      tag_28\n      jumpi\n      dup1\n      0x8dbdbe6d\n      eq\n      tag_29\n      jumpi\n      dup1\n      0x91bb809c\n      eq\n      tag_30\n      jumpi\n      dup1\n      0x93f1a40b\n      eq\n      tag_31\n      jumpi\n      jump(tag_2)\n    tag_50:\n      dup1\n      0x4a3b68cc\n      gt\n      tag_54\n      jumpi\n      dup1\n      0x64ed743b\n      gt\n      tag_55\n      jumpi\n      dup1\n      0x64ed743b\n      eq\n      tag_20\n      jumpi\n      dup1\n      0x660f8340\n      eq\n      tag_21\n      jumpi\n      dup1\n      0x66f685ea\n      eq\n      tag_22\n      jumpi\n      dup1\n      0x6a9a7660\n      eq\n      tag_23\n      jumpi\n      dup1\n      0x715018a6\n      eq\n      tag_24\n      jumpi\n      dup1\n      0x80361747\n      eq\n      tag_25\n      jumpi\n      jump(tag_2)\n    tag_55:\n      dup1\n      0x4a3b68cc\n      eq\n      tag_14\n      jumpi\n      dup1\n      0x51eb05a6\n      eq\n      tag_15\n      jumpi\n      dup1\n      0x5312ea8e\n      eq\n      tag_16\n      jumpi\n      dup1\n      0x54324b58\n      eq\n      tag_17\n      jumpi\n      dup1\n      0x61e0c468\n      eq\n      tag_18\n      jumpi\n      dup1\n      0x630b5ba1\n      eq\n      tag_19\n      jumpi\n      jump(tag_2)\n    tag_54:\n      dup1\n      0x3a22df78\n      gt\n      tag_56\n      jumpi\n      dup1\n      0x3a22df78\n      eq\n      tag_8\n      jumpi\n      dup1\n      0x3b0f0f2f\n      eq\n      tag_9\n      jumpi\n      dup1\n      0x3f7b06d8\n      eq\n      tag_10\n      jumpi\n      dup1\n      0x41275358\n      eq\n      tag_11\n      jumpi\n      dup1\n      0x441a3e70\n      eq\n      tag_12\n      jumpi\n      dup1\n      0x47e3cda5\n      eq\n      tag_13\n      jumpi\n      jump(tag_2)\n    tag_56:\n      dup1\n      0x081e3eda\n      eq\n      tag_3\n      jumpi\n      dup1\n      0x1526fe27\n      eq\n      tag_4\n      jumpi\n      dup1\n      0x17caf6f1\n      eq\n      tag_5\n      jumpi\n      dup1\n      0x190f39f0\n      eq\n      tag_6\n      jumpi\n      dup1\n      0x1eb704b0\n      eq\n      tag_7\n      jumpi\n    tag_2:\n      0x00\n      dup1\n      revert\n        /* \"TEXOToken.sol\":38857:38950  function poolLength() external view returns (uint256) {... */\n    tag_3:\n      tag_57\n      tag_58\n      jump\t// in\n    tag_57:\n      mload(0x40)\n      dup1\n      dup3\n      dup2\n      mstore\n      0x20\n      add\n      swap2\n      pop\n      pop\n      mload(0x40)\n      dup1\n      swap2\n      sub\n      swap1\n      return\n        /* \"TEXOToken.sol\":35837:35863  PoolInfo[] public poolInfo */\n    tag_4:\n      tag_59\n      0x04\n      dup1\n      calldatasize\n      sub\n      0x20\n      dup2\n      lt\n      iszero\n      tag_60\n      jumpi\n      0x00\n      dup1\n      revert\n    tag_60:\n      dup2\n      add\n      swap1\n      dup1\n      dup1\n      calldataload\n      swap1\n      0x20\n      add\n      swap1\n      swap3\n      swap2\n      swap1\n      pop\n      pop\n      pop\n      tag_61\n      jump\t// in\n    tag_59:\n      mload(0x40)\n      dup1\n      dup8\n      0xffffffffffffffffffffffffffffffffffffffff\n      and\n      dup2\n      mstore\n      0x20\n      add\n      dup7\n      dup2\n      mstore\n      0x20\n      add\n      dup6\n      dup2\n      mstore\n      0x20\n      add\n      dup5\n      dup2\n      mstore\n      0x20\n      add\n      dup4\n      dup2\n      mstore\n      0x20\n      add\n      dup3\n      0xffff\n      and\n      dup2\n      mstore\n      0x20\n      add\n      swap7\n      pop\n      pop\n      pop\n      pop\n      pop\n      pop\n      pop\n      mload(0x40)\n      dup1\n      swap2\n      sub\n      swap1\n      return\n        /* \"TEXOToken.sol\":36074:36108  uint256 public totalAllocPoint = 0 */\n    tag_5:\n      tag_62\n      tag_63\n      jump\t// in\n    tag_62:\n      mload(0x40)\n      dup1\n      dup3\n      dup2\n      mstore\n      0x20\n      add\n      swap2\n      pop\n      pop\n      mload(0x40)\n      dup1\n      swap2\n      sub\n      swap1\n      return\n        /* \"TEXOToken.sol\":39426:39644  function getPoolIdForLpToken(IBEP20 _lpToken) external view returns (uint256) {... */\n    tag_6:\n      tag_64\n      0x04\n      dup1\n      calldatasize\n      sub\n      0x20\n      dup2\n      lt\n      iszero\n      tag_65\n      jumpi\n      0x00\n      dup1\n      revert\n    tag_65:\n      dup2\n      add\n      swap1\n      dup1\n      dup1\n      calldataload\n      0xffffffffffffffffffffffffffffffffffffffff\n      and\n      swap1\n      0x20\n      add\n      swap1\n      swap3\n      swap2\n      swap1\n      pop\n      pop\n      pop\n      tag_66\n      jump\t// in\n    tag_64:\n      mload(0x40)\n      dup1\n      dup3\n      dup2\n      mstore\n      0x20\n      add\n      swap2\n      pop\n      pop\n      mload(0x40)\n      dup1\n      swap2\n      sub\n      swap1\n      return\n        /* \"TEXOToken.sol\":38956:39187  function setBlockToStartReducingEmissionRate(uint256 _blockCountToStartReducingEmissionRateFromNow) external onlyOwner {... */\n    tag_7:\n      tag_67\n      0x04\n      dup1\n      calldatasize\n      sub\n      0x20\n      dup2\n      lt\n      iszero\n      tag_68\n      jumpi\n      0x00\n      dup1\n      revert\n    tag_68:\n      dup2\n      add\n      swap1\n      dup1\n      dup1\n      calldataload\n      swap1\n      0x20\n      add\n      swap1\n      swap3\n      swap2\n      swap1\n      pop\n      pop\n      pop\n      tag_69\n      jump\t// in\n    tag_67:\n      stop\n        /* \"TEXOToken.sol\":36339:36388  uint16 public constant MAXIMUM_REFERRAL_BP = 2000 */\n    tag_8:\n      tag_70\n      tag_71\n      jump\t// in\n    tag_70:\n      mload(0x40)\n      dup1\n      dup3\n      0xffff\n      and\n      dup2\n      mstore\n      0x20\n      add\n      swap2\n      pop\n      pop\n      mload(0x40)\n      dup1\n      swap2\n      sub\n      swap1\n      return\n        /* \"TEXOToken.sol\":53723:53829  function getReferral(address _user) public view returns (address) {... */\n    tag_9:\n      tag_72\n      0x04\n      dup1\n      calldatasize\n      sub\n      0x20\n      dup2\n      lt\n      iszero\n      tag_73\n      jumpi\n      0x00\n      dup1\n      revert\n    tag_73:\n      dup2\n      add\n      swap1\n      dup1\n      dup1\n      calldataload\n      0xffffffffffffffffffffffffffffffffffffffff\n      and\n      swap1\n      0x20\n      add\n      swap1\n      swap3\n      swap2\n      swap1\n      pop\n      pop\n      pop\n      tag_74\n      jump\t// in\n    tag_72:\n      mload(0x40)\n      dup1\n      dup3\n      0xffffffffffffffffffffffffffffffffffffffff\n      and\n      dup2\n      mstore\n      0x20\n      add\n      swap2\n      pop\n      pop\n      mload(0x40)\n      dup1\n      swap2\n      sub\n      swap1\n      return\n        /* \"TEXOToken.sol\":36507:36555  mapping(address => uint256) public referredCount */\n    tag_10:\n      tag_75\n      0x04\n      dup1\n      calldatasize\n      sub\n      0x20\n      dup2\n      lt\n      iszero\n      tag_76\n      jumpi\n      0x00\n      dup1\n      revert\n    tag_76:\n      dup2\n      add\n      swap1\n      dup1\n      dup1\n      calldataload\n      0xffffffffffffffffffffffffffffffffffffffff\n      and\n      swap1\n      0x20\n      add\n      swap1\n      swap3\n      swap2\n      swap1\n      pop\n      pop\n      pop\n      tag_77\n      jump\t// in\n    tag_75:\n      mload(0x40)\n      dup1\n      dup3\n      dup2\n      mstore\n      0x20\n      add\n      swap2\n      pop\n      pop\n      mload(0x40)\n      dup1\n      swap2\n      sub\n      swap1\n      return\n        /* \"TEXOToken.sol\":35559:35584  address public feeAddress */\n    tag_11:\n      tag_78\n      tag_79\n      jump\t// in\n    tag_78:\n      mload(0x40)\n      dup1\n      dup3\n      0xffffffffffffffffffffffffffffffffffffffff\n      and\n      dup2\n      mstore\n      0x20\n      add\n      swap2\n      pop\n      pop\n      mload(0x40)\n      dup1\n      swap2\n      sub\n      swap1\n      return\n        /* \"TEXOToken.sol\":48710:49666  function withdraw(uint256 _pid, uint256 _amount) public nonReentrant {... */\n    tag_12:\n      tag_80\n      0x04\n      dup1\n      calldatasize\n      sub\n      0x40\n      dup2\n      lt\n      iszero\n      tag_81\n      jumpi\n      0x00\n      dup1\n      revert\n    tag_81:\n      dup2\n      add\n      swap1\n      dup1\n      dup1\n      calldataload\n      swap1\n      0x20\n      add\n      swap1\n      swap3\n      swap2\n      swap1\n      dup1\n      calldataload\n      swap1\n      0x20\n      add\n      swap1\n      swap3\n      swap2\n      swap1\n      pop\n      pop\n      pop\n      tag_82\n      jump\t// in\n    tag_80:\n      stop\n        /* \"TEXOToken.sol\":37340:37385  bool public isAllowReduceEmissionRate = false */\n    tag_13:\n      tag_83\n      tag_84\n      jump\t// in\n    tag_83:\n      mload(0x40)\n      dup1\n      dup3\n      iszero\n      iszero\n      dup2\n      mstore\n      0x20\n      add\n      swap2\n      pop\n      pop\n      mload(0x40)\n      dup1\n      swap2\n      sub\n      swap1\n      return\n        /* \"TEXOToken.sol\":36418:36462  mapping(address => address) public referrers */\n    tag_14:\n      tag_85\n      0x04\n      dup1\n      calldatasize\n      sub\n      0x20\n      dup2\n      lt\n      iszero\n      tag_86\n      jumpi\n      0x00\n      dup1\n      revert\n    tag_86:\n      dup2\n      add\n      swap1\n      dup1\n      dup1\n      calldataload\n      0xffffffffffffffffffffffffffffffffffffffff\n      and\n      swap1\n      0x20\n      add\n      swap1\n      swap3\n      swap2\n      swap1\n      pop\n      pop\n      pop\n      tag_87\n      jump\t// in\n    tag_85:\n      mload(0x40)\n      dup1\n      dup3\n      0xffffffffffffffffffffffffffffffffffffffff\n      and\n      dup2\n      mstore\n      0x20\n      add\n      swap2\n      pop\n      pop\n      mload(0x40)\n      dup1\n      swap2\n      sub\n      swap1\n      return\n        /* \"TEXOToken.sol\":43658:45031  function updatePool(uint256 _pid) public {... */\n    tag_15:\n      tag_88\n      0x04\n      dup1\n      calldatasize\n      sub\n      0x20\n      dup2\n      lt\n      iszero\n      tag_89\n      jumpi\n      0x00\n      dup1\n      revert\n    tag_89:\n      dup2\n      add\n      swap1\n      dup1\n      dup1\n      calldataload\n      swap1\n      0x20\n      add\n      swap1\n      swap3\n      swap2\n      swap1\n      pop\n      pop\n      pop\n      tag_90\n      jump\t// in\n    tag_88:\n      stop\n        /* \"TEXOToken.sol\":49734:50136  function emergencyWithdraw(uint256 _pid) public nonReentrant {... */\n    tag_16:\n      tag_91\n      0x04\n      dup1\n      calldatasize\n      sub\n      0x20\n      dup2\n      lt\n      iszero\n      tag_92\n      jumpi\n      0x00\n      dup1\n      revert\n    tag_92:\n      dup2\n      add\n      swap1\n      dup1\n      dup1\n      calldataload\n      swap1\n      0x20\n      add\n      swap1\n      swap3\n      swap2\n      swap1\n      pop\n      pop\n      pop\n      tag_93\n      jump\t// in\n    tag_91:\n      stop\n        /* \"TEXOToken.sol\":35644:35691  uint256 public blockToStartReducingEmissionRate */\n    tag_17:\n      tag_94\n      tag_95\n      jump\t// in\n    tag_94:\n      mload(0x40)\n      dup1\n      dup3\n      dup2\n      mstore\n      0x20\n      add\n      swap2\n      pop\n      pop\n      mload(0x40)\n      dup1\n      swap2\n      sub\n      swap1\n      return\n        /* \"TEXOToken.sol\":36930:36988  uint256 public constant MINIMUM_EMISSION_RATE = 100 finney */\n    tag_18:\n      tag_96\n      tag_97\n      jump\t// in\n    tag_96:\n      mload(0x40)\n      dup1\n      dup3\n      dup2\n      mstore\n      0x20\n      add\n      swap2\n      pop\n      pop\n      mload(0x40)\n      dup1\n      swap2\n      sub\n      swap1\n      return\n        /* \"TEXOToken.sol\":43410:43585  function massUpdatePools() public {... */\n    tag_19:\n      tag_98\n      tag_99\n      jump\t// in\n    tag_98:\n      stop\n        /* \"TEXOToken.sol\":54494:54941  function updateReferralBonusBp(uint256 _newRefBonusBp) public onlyOwner {... */\n    tag_20:\n      tag_100\n      0x04\n      dup1\n      calldatasize\n      sub\n      0x20\n      dup2\n      lt\n      iszero\n      tag_101\n      jumpi\n      0x00\n      dup1\n      revert\n    tag_101:\n      dup2\n      add\n      swap1\n      dup1\n      dup1\n      calldataload\n      swap1\n      0x20\n      add\n      swap1\n      swap3\n      swap2\n      swap1\n      pop\n      pop\n      pop\n      tag_102\n      jump\t// in\n    tag_100:\n      stop\n        /* \"TEXOToken.sol\":35499:35526  uint256 public tEXOPerBlock */\n    tag_21:\n      tag_103\n      tag_104\n      jump\t// in\n    tag_103:\n      mload(0x40)\n      dup1\n      dup3\n      dup2\n      mstore\n      0x20\n      add\n      swap2\n      pop\n      pop\n      mload(0x40)\n      dup1\n      swap2\n      sub\n      swap1\n      return\n        /* \"TEXOToken.sol\":36173:36204  uint256 public refBonusBP = 100 */\n    tag_22:\n      tag_105\n      tag_106\n      jump\t// in\n    tag_105:\n      mload(0x40)\n      dup1\n      dup3\n      dup2\n      mstore\n      0x20\n      add\n      swap2\n      pop\n      pop\n      mload(0x40)\n      dup1\n      swap2\n      sub\n      swap1\n      return\n        /* \"TEXOToken.sol\":37290:37333  uint256 public lastReductionPeriodIndex = 0 */\n    tag_23:\n      tag_107\n      tag_108\n      jump\t// in\n    tag_107:\n      mload(0x40)\n      dup1\n      dup3\n      dup2\n      mstore\n      0x20\n      add\n      swap2\n      pop\n      pop\n      mload(0x40)\n      dup1\n      swap2\n      sub\n      swap1\n      return\n        /* \"TEXOToken.sol\":12072:12209  function renounceOwnership() public onlyOwner {... */\n    tag_24:\n      tag_109\n      tag_110\n      jump\t// in\n    tag_109:\n      stop\n        /* \"TEXOToken.sol\":52879:53002  function setFlagAllowReduceEmissionRate(bool isAllow) public onlyOwner {... */\n    tag_25:\n      tag_111\n      0x04\n      dup1\n      calldatasize\n      sub\n      0x20\n      dup2\n      lt\n      iszero\n      tag_112\n      jumpi\n      0x00\n      dup1\n      revert\n    tag_112:\n      dup2\n      add\n      swap1\n      dup1\n      dup1\n      calldataload\n      iszero\n      iszero\n      swap1\n      0x20\n      add\n      swap1\n      swap3\n      swap2\n      swap1\n      pop\n      pop\n      pop\n      tag_113\n      jump\t// in\n    tag_111:\n      stop\n        /* \"TEXOToken.sol\":51033:51329  function setFeeAddress(address _feeAddress) public {... */\n    tag_26:\n      tag_114\n      0x04\n      dup1\n      calldatasize\n      sub\n      0x20\n      dup2\n      lt\n      iszero\n      tag_115\n      jumpi\n      0x00\n      dup1\n      revert\n    tag_115:\n      dup2\n      add\n      swap1\n      dup1\n      dup1\n      calldataload\n      0xffffffffffffffffffffffffffffffffffffffff\n      and\n      swap1\n      0x20\n      add\n      swap1\n      swap3\n      swap2\n      swap1\n      pop\n      pop\n      pop\n      tag_116\n      jump\t// in\n    tag_114:\n      stop\n        /* \"TEXOToken.sol\":11449:11526  function owner() public view returns (address) {... */\n    tag_27:\n      tag_117\n      tag_118\n      jump\t// in\n    tag_117:\n      mload(0x40)\n      dup1\n      dup3\n      0xffffffffffffffffffffffffffffffffffffffff\n      and\n      dup2\n      mstore\n      0x20\n      add\n      swap2\n      pop\n      pop\n      mload(0x40)\n      dup1\n      swap2\n      sub\n      swap1\n      return\n        /* \"TEXOToken.sol\":42122:42241  function getMultiplier(uint256 _from, uint256 _to) public pure returns (uint256) {... */\n    tag_28:\n      tag_119\n      0x04\n      dup1\n      calldatasize\n      sub\n      0x40\n      dup2\n      lt\n      iszero\n      tag_120\n      jumpi\n      0x00\n      dup1\n      revert\n    tag_120:\n      dup2\n      add\n      swap1\n      dup1\n      dup1\n      calldataload\n      swap1\n      0x20\n      add\n      swap1\n      swap3\n      swap2\n      swap1\n      dup1\n      calldataload\n      swap1\n      0x20\n      add\n      swap1\n      swap3\n      swap2\n      swap1\n      pop\n      pop\n      pop\n      tag_121\n      jump\t// in\n    tag_119:\n      mload(0x40)\n      dup1\n      dup3\n      dup2\n      mstore\n      0x20\n      add\n      swap2\n      pop\n      pop\n      mload(0x40)\n      dup1\n      swap2\n      sub\n      swap1\n      return\n        /* \"TEXOToken.sol\":46904:48661  function deposit(uint256 _pid, uint256 _amount, address _referrer) public nonReentrant {... */\n    tag_29:\n      tag_122\n      0x04\n      dup1\n      calldatasize\n      sub\n      0x60\n      dup2\n      lt\n      iszero\n      tag_123\n      jumpi\n      0x00\n      dup1\n      revert\n    tag_123:\n      dup2\n      add\n      swap1\n      dup1\n      dup1\n      calldataload\n      swap1\n      0x20\n      add\n      swap1\n      swap3\n      swap2\n      swap1\n      dup1\n      calldataload\n      swap1\n      0x20\n      add\n      swap1\n      swap3\n      swap2\n      swap1\n      dup1\n      calldataload\n      0xffffffffffffffffffffffffffffffffffffffff\n      and\n      swap1\n      0x20\n      add\n      swap1\n      swap3\n      swap2\n      swap1\n      pop\n      pop\n      pop\n      tag_124\n      jump\t// in\n    tag_122:\n      stop\n        /* \"TEXOToken.sol\":36815:36873  uint256 public constant INITIAL_EMISSION_RATE = 500 finney */\n    tag_30:\n      tag_125\n      tag_126\n      jump\t// in\n    tag_125:\n      mload(0x40)\n      dup1\n      dup3\n      dup2\n      mstore\n      0x20\n      add\n      swap2\n      pop\n      pop\n      mload(0x40)\n      dup1\n      swap2\n      sub\n      swap1\n      return\n        /* \"TEXOToken.sol\":35917:35981  mapping(uint256 => mapping(address => UserInfo)) public userInfo */\n    tag_31:\n      tag_127\n      0x04\n      dup1\n      calldatasize\n      sub\n      0x40\n      dup2\n      lt\n      iszero\n      tag_128\n      jumpi\n      0x00\n      dup1\n      revert\n    tag_128:\n      dup2\n      add\n      swap1\n      dup1\n      dup1\n      calldataload\n      swap1\n      0x20\n      add\n      swap1\n      swap3\n      swap2\n      swap1\n      dup1\n      calldataload\n      0xffffffffffffffffffffffffffffffffffffffff\n      and\n      swap1\n      0x20\n      add\n      swap1\n      swap3\n      swap2\n      swap1\n      pop\n      pop\n      pop\n      tag_129\n      jump\t// in\n    tag_127:\n      mload(0x40)\n      dup1\n      dup5\n      dup2\n      mstore\n      0x20\n      add\n      dup4\n      dup2\n      mstore\n      0x20\n      add\n      dup3\n      iszero\n      iszero\n      dup2\n      mstore\n      0x20\n      add\n      swap4\n      pop\n      pop\n      pop\n      pop\n      mload(0x40)\n      dup1\n      swap2\n      sub\n      swap1\n      return\n        /* \"TEXOToken.sol\":36239:36291  uint16 public constant MAXIMUM_DEPOSIT_FEE_BP = 1000 */\n    tag_32:\n      tag_130\n      tag_131\n      jump\t// in\n    tag_130:\n      mload(0x40)\n      dup1\n      dup3\n      0xffff\n      and\n      dup2\n      mstore\n      0x20\n      add\n      swap2\n      pop\n      pop\n      mload(0x40)\n      dup1\n      swap2\n      sub\n      swap1\n      return\n        /* \"TEXOToken.sol\":36706:36758  mapping(IBEP20 => uint256) public poolIdForLpAddress */\n    tag_33:\n      tag_132\n      0x04\n      dup1\n      calldatasize\n      sub\n      0x20\n      dup2\n      lt\n      iszero\n      tag_133\n      jumpi\n      0x00\n      dup1\n      revert\n    tag_133:\n      dup2\n      add\n      swap1\n      dup1\n      dup1\n      calldataload\n      0xffffffffffffffffffffffffffffffffffffffff\n      and\n      swap1\n      0x20\n      add\n      swap1\n      swap3\n      swap2\n      swap1\n      pop\n      pop\n      pop\n      tag_134\n      jump\t// in\n    tag_132:\n      mload(0x40)\n      dup1\n      dup3\n      dup2\n      mstore\n      0x20\n      add\n      swap2\n      pop\n      pop\n      mload(0x40)\n      dup1\n      swap2\n      sub\n      swap1\n      return\n        /* \"TEXOToken.sol\":35698:35747  uint256 public globalBlockToUnlockClaimingRewards */\n    tag_34:\n      tag_135\n      tag_136\n      jump\t// in\n    tag_135:\n      mload(0x40)\n      dup1\n      dup3\n      dup2\n      mstore\n      0x20\n      add\n      swap2\n      pop\n      pop\n      mload(0x40)\n      dup1\n      swap2\n      sub\n      swap1\n      return\n        /* \"TEXOToken.sol\":53008:53289  function setEmissionRate(uint256 newEmissionRate) public onlyOwner {... */\n    tag_35:\n      tag_137\n      0x04\n      dup1\n      calldatasize\n      sub\n      0x20\n      dup2\n      lt\n      iszero\n      tag_138\n      jumpi\n      0x00\n      dup1\n      revert\n    tag_138:\n      dup2\n      add\n      swap1\n      dup1\n      dup1\n      calldataload\n      swap1\n      0x20\n      add\n      swap1\n      swap3\n      swap2\n      swap1\n      pop\n      pop\n      pop\n      tag_139\n      jump\t// in\n    tag_137:\n      stop\n        /* \"TEXOToken.sol\":35386:35407  TEXOToken public tEXO */\n    tag_36:\n      tag_140\n      tag_141\n      jump\t// in\n    tag_140:\n      mload(0x40)\n      dup1\n      dup3\n      0xffffffffffffffffffffffffffffffffffffffff\n      and\n      dup2\n      mstore\n      0x20\n      add\n      swap2\n      pop\n      pop\n      mload(0x40)\n      dup1\n      swap2\n      sub\n      swap1\n      return\n        /* \"TEXOToken.sol\":39193:39420  function setGlobalBlockToUnlockClaimingRewards(uint256 _blockCountToUnlockClaimingRewardsFromNow) external onlyOwner {... */\n    tag_37:\n      tag_142\n      0x04\n      dup1\n      calldatasize\n      sub\n      0x20\n      dup2\n      lt\n      iszero\n      tag_143\n      jumpi\n      0x00\n      dup1\n      revert\n    tag_143:\n      dup2\n      add\n      swap1\n      dup1\n      dup1\n      calldataload\n      swap1\n      0x20\n      add\n      swap1\n      swap3\n      swap2\n      swap1\n      pop\n      pop\n      pop\n      tag_144\n      jump\t// in\n    tag_142:\n      stop\n        /* \"TEXOToken.sol\":45037:45219  function canWithdrawReward(uint256 _pid) public view returns (bool) {... */\n    tag_38:\n      tag_145\n      0x04\n      dup1\n      calldatasize\n      sub\n      0x20\n      dup2\n      lt\n      iszero\n      tag_146\n      jumpi\n      0x00\n      dup1\n      revert\n    tag_146:\n      dup2\n      add\n      swap1\n      dup1\n      dup1\n      calldataload\n      swap1\n      0x20\n      add\n      swap1\n      swap3\n      swap2\n      swap1\n      pop\n      pop\n      pop\n      tag_147\n      jump\t// in\n    tag_145:\n      mload(0x40)\n      dup1\n      dup3\n      iszero\n      iszero\n      dup2\n      mstore\n      0x20\n      add\n      swap2\n      pop\n      pop\n      mload(0x40)\n      dup1\n      swap2\n      sub\n      swap1\n      return\n        /* \"TEXOToken.sol\":37184:37249  uint256 public constant EMISSION_REDUCTION_RATE_PER_PERIOD = 1500 */\n    tag_39:\n      tag_148\n      tag_149\n      jump\t// in\n    tag_148:\n      mload(0x40)\n      dup1\n      dup3\n      dup2\n      mstore\n      0x20\n      add\n      swap2\n      pop\n      pop\n      mload(0x40)\n      dup1\n      swap2\n      sub\n      swap1\n      return\n        /* \"TEXOToken.sol\":41171:42049  function set(... */\n    tag_40:\n      tag_150\n      0x04\n      dup1\n      calldatasize\n      sub\n      0xa0\n      dup2\n      lt\n      iszero\n      tag_151\n      jumpi\n      0x00\n      dup1\n      revert\n    tag_151:\n      dup2\n      add\n      swap1\n      dup1\n      dup1\n      calldataload\n      swap1\n      0x20\n      add\n      swap1\n      swap3\n      swap2\n      swap1\n      dup1\n      calldataload\n      swap1\n      0x20\n      add\n      swap1\n      swap3\n      swap2\n      swap1\n      dup1\n      calldataload\n      0xffff\n      and\n      swap1\n      0x20\n      add\n      swap1\n      swap3\n      swap2\n      swap1\n      dup1\n      calldataload\n      iszero\n      iszero\n      swap1\n      0x20\n      add\n      swap1\n      swap3\n      swap2\n      swap1\n      dup1\n      calldataload\n      swap1\n      0x20\n      add\n      swap1\n      swap3\n      swap2\n      swap1\n      pop\n      pop\n      pop\n      tag_152\n      jump\t// in\n    tag_150:\n      stop\n        /* \"TEXOToken.sol\":36626:36670  mapping(IBEP20 => bool) public poolExistence */\n    tag_41:\n      tag_153\n      0x04\n      dup1\n      calldatasize\n      sub\n      0x20\n      dup2\n      lt\n      iszero\n      tag_154\n      jumpi\n      0x00\n      dup1\n      revert\n    tag_154:\n      dup2\n      add\n      swap1\n      dup1\n      dup1\n      calldataload\n      0xffffffffffffffffffffffffffffffffffffffff\n      and\n      swap1\n      0x20\n      add\n      swap1\n      swap3\n      swap2\n      swap1\n      pop\n      pop\n      pop\n      tag_155\n      jump\t// in\n    tag_153:\n      mload(0x40)\n      dup1\n      dup3\n      iszero\n      iszero\n      dup2\n      mstore\n      0x20\n      add\n      swap2\n      pop\n      pop\n      mload(0x40)\n      dup1\n      swap2\n      sub\n      swap1\n      return\n        /* \"TEXOToken.sol\":50719:50972  function setDevAddress(address _devaddr) public {... */\n    tag_42:\n      tag_156\n      0x04\n      dup1\n      calldatasize\n      sub\n      0x20\n      dup2\n      lt\n      iszero\n      tag_157\n      jumpi\n      0x00\n      dup1\n      revert\n    tag_157:\n      dup2\n      add\n      swap1\n      dup1\n      dup1\n      calldataload\n      0xffffffffffffffffffffffffffffffffffffffff\n      and\n      swap1\n      0x20\n      add\n      swap1\n      swap3\n      swap2\n      swap1\n      pop\n      pop\n      pop\n      tag_158\n      jump\t// in\n    tag_156:\n      stop\n        /* \"TEXOToken.sol\":37050:37114  uint256 public constant EMISSION_REDUCTION_PERIOD_BLOCKS = 28800 */\n    tag_43:\n      tag_159\n      tag_160\n      jump\t// in\n    tag_159:\n      mload(0x40)\n      dup1\n      dup3\n      dup2\n      mstore\n      0x20\n      add\n      swap2\n      pop\n      pop\n      mload(0x40)\n      dup1\n      swap2\n      sub\n      swap1\n      return\n        /* \"TEXOToken.sol\":35433:35455  address public devAddr */\n    tag_44:\n      tag_161\n      tag_162\n      jump\t// in\n    tag_161:\n      mload(0x40)\n      dup1\n      dup3\n      0xffffffffffffffffffffffffffffffffffffffff\n      and\n      dup2\n      mstore\n      0x20\n      add\n      swap2\n      pop\n      pop\n      mload(0x40)\n      dup1\n      swap2\n      sub\n      swap1\n      return\n        /* \"TEXOToken.sol\":42302:43330  function pendingTEXO(uint256 _pid, address _user) external view returns (uint256) {... */\n    tag_45:\n      tag_163\n      0x04\n      dup1\n      calldatasize\n      sub\n      0x40\n      dup2\n      lt\n      iszero\n      tag_164\n      jumpi\n      0x00\n      dup1\n      revert\n    tag_164:\n      dup2\n      add\n      swap1\n      dup1\n      dup1\n      calldataload\n      swap1\n      0x20\n      add\n      swap1\n      swap3\n      swap2\n      swap1\n      dup1\n      calldataload\n      0xffffffffffffffffffffffffffffffffffffffff\n      and\n      swap1\n      0x20\n      add\n      swap1\n      swap3\n      swap2\n      swap1\n      pop\n      pop\n      pop\n      tag_165\n      jump\t// in\n    tag_163:\n      mload(0x40)\n      dup1\n      dup3\n      dup2\n      mstore\n      0x20\n      add\n      swap2\n      pop\n      pop\n      mload(0x40)\n      dup1\n      swap2\n      sub\n      swap1\n      return\n        /* \"TEXOToken.sol\":45285:46824  function deposit(uint256 _pid, uint256 _amount) public nonReentrant {... */\n    tag_46:\n      tag_166\n      0x04\n      dup1\n      calldatasize\n      sub\n      0x40\n      dup2\n      lt\n      iszero\n      tag_167\n      jumpi\n      0x00\n      dup1\n      revert\n    tag_167:\n      dup2\n      add\n      swap1\n      dup1\n      dup1\n      calldataload\n      swap1\n      0x20\n      add\n      swap1\n      swap3\n      swap2\n      swap1\n      dup1\n      calldataload\n      swap1\n      0x20\n      add\n      swap1\n      swap3\n      swap2\n      swap1\n      pop\n      pop\n      pop\n      tag_168\n      jump\t// in\n    tag_166:\n      stop\n        /* \"TEXOToken.sol\":51474:52873  function reduceEmissionRateWithDefaultRate() public {... */\n    tag_47:\n      tag_169\n      tag_170\n      jump\t// in\n    tag_169:\n      stop\n        /* \"TEXOToken.sol\":12358:12465  function transferOwnership(address newOwner) public onlyOwner {... */\n    tag_48:\n      tag_171\n      0x04\n      dup1\n      calldatasize\n      sub\n      0x20\n      dup2\n      lt\n      iszero\n      tag_172\n      jumpi\n      0x00\n      dup1\n      revert\n    tag_172:\n      dup2\n      add\n      swap1\n      dup1\n      dup1\n      calldataload\n      0xffffffffffffffffffffffffffffffffffffffff\n      and\n      swap1\n      0x20\n      add\n      swap1\n      swap3\n      swap2\n      swap1\n      pop\n      pop\n      pop\n      tag_173\n      jump\t// in\n    tag_171:\n      stop\n        /* \"TEXOToken.sol\":39901:41062  function add(... */\n    tag_49:\n      tag_174\n      0x04\n      dup1\n      calldatasize\n      sub\n      0xa0\n      dup2\n      lt\n      iszero\n      tag_175\n      jumpi\n      0x00\n      dup1\n      revert\n    tag_175:\n      dup2\n      add\n      swap1\n      dup1\n      dup1\n      calldataload\n      swap1\n      0x20\n      add\n      swap1\n      swap3\n      swap2\n      swap1\n      dup1\n      calldataload\n      0xffffffffffffffffffffffffffffffffffffffff\n      and\n      swap1\n      0x20\n      add\n      swap1\n      swap3\n      swap2\n      swap1\n      dup1\n      calldataload\n      0xffff\n      and\n      swap1\n      0x20\n      add\n      swap1\n      swap3\n      swap2\n      swap1\n      dup1\n      calldataload\n      iszero\n      iszero\n      swap1\n      0x20\n      add\n      swap1\n      swap3\n      swap2\n      swap1\n      dup1\n      calldataload\n      swap1\n      0x20\n      add\n      swap1\n      swap3\n      swap2\n      swap1\n      pop\n      pop\n      pop\n      tag_176\n      jump\t// in\n    tag_174:\n      stop\n        /* \"TEXOToken.sol\":38857:38950  function poolLength() external view returns (uint256) {... */\n    tag_58:\n        /* \"TEXOToken.sol\":38902:38909  uint256 */\n      0x00\n        /* \"TEXOToken.sol\":38928:38936  poolInfo */\n      0x09\n        /* \"TEXOToken.sol\":38928:38943  poolInfo.length */\n      dup1\n      sload\n      swap1\n      pop\n        /* \"TEXOToken.sol\":38921:38943  return poolInfo.length */\n      swap1\n      pop\n        /* \"TEXOToken.sol\":38857:38950  function poolLength() external view returns (uint256) {... */\n      swap1\n      jump\t// out\n        /* \"TEXOToken.sol\":35837:35863  PoolInfo[] public poolInfo */\n    tag_61:\n      0x09\n      dup2\n      dup2\n      sload\n      dup2\n      lt\n      tag_178\n      jumpi\n      invalid\n    tag_178:\n      swap1\n      0x00\n      mstore\n      keccak256(0x00, 0x20)\n      swap1\n      0x06\n      mul\n      add\n      0x00\n      swap2\n      pop\n      swap1\n      pop\n      dup1\n      0x00\n      add\n      0x00\n      swap1\n      sload\n      swap1\n      0x0100\n      exp\n      swap1\n      div\n      0xffffffffffffffffffffffffffffffffffffffff\n      and\n      swap1\n      dup1\n      0x01\n      add\n      sload\n      swap1\n      dup1\n      0x02\n      add\n      sload\n      swap1\n      dup1\n      0x03\n      add\n      sload\n      swap1\n      dup1\n      0x04\n      add\n      sload\n      swap1\n      dup1\n      0x05\n      add\n      0x00\n      swap1\n      sload\n      swap1\n      0x0100\n      exp\n      swap1\n      div\n      0xffff\n      and\n      swap1\n      pop\n      dup7\n      jump\t// out\n        /* \"TEXOToken.sol\":36074:36108  uint256 public totalAllocPoint = 0 */\n    tag_63:\n      sload(0x0b)\n      dup2\n      jump\t// out\n        /* \"TEXOToken.sol\":39426:39644  function getPoolIdForLpToken(IBEP20 _lpToken) external view returns (uint256) {... */\n    tag_66:\n        /* \"TEXOToken.sol\":39495:39502  uint256 */\n      0x00\n        /* \"TEXOToken.sol\":39549:39554  false */\n      dup1\n        /* \"TEXOToken.sol\":39522:39554  poolExistence[_lpToken] != false */\n      iszero\n      iszero\n        /* \"TEXOToken.sol\":39522:39535  poolExistence */\n      0x0f\n        /* \"TEXOToken.sol\":39522:39545  poolExistence[_lpToken] */\n      0x00\n        /* \"TEXOToken.sol\":39536:39544  _lpToken */\n      dup5\n        /* \"TEXOToken.sol\":39522:39545  poolExistence[_lpToken] */\n      0xffffffffffffffffffffffffffffffffffffffff\n      and\n      0xffffffffffffffffffffffffffffffffffffffff\n      and\n      dup2\n      mstore\n      0x20\n      add\n      swap1\n      dup2\n      mstore\n      0x20\n      add\n      0x00\n      keccak256\n      0x00\n      swap1\n      sload\n      swap1\n      0x0100\n      exp\n      swap1\n      div\n      0xff\n      and\n        /* \"TEXOToken.sol\":39522:39554  poolExistence[_lpToken] != false */\n      iszero\n      iszero\n      eq\n      iszero\n        /* \"TEXOToken.sol\":39514:39592  require(poolExistence[_lpToken] != false, \"getPoolIdForLpToken: do not exist\") */\n      tag_181\n      jumpi\n      mload(0x40)\n      0x08c379a000000000000000000000000000000000000000000000000000000000\n      dup2\n      mstore\n      0x04\n      add\n      dup1\n      dup1\n      0x20\n      add\n      dup3\n      dup2\n      sub\n      dup3\n      mstore\n      0x21\n      dup2\n      mstore\n      0x20\n      add\n      dup1\n      data_bf35de78f3e15a98c58afdc189c393a6a76029783bd8ecfd3a8b87b4a628fd85\n      0x21\n      swap2\n      codecopy\n      0x40\n      add\n      swap2\n      pop\n      pop\n      mload(0x40)\n      dup1\n      swap2\n      sub\n      swap1\n      revert\n    tag_181:\n        /* \"TEXOToken.sol\":39609:39627  poolIdForLpAddress */\n      0x10\n        /* \"TEXOToken.sol\":39609:39637  poolIdForLpAddress[_lpToken] */\n      0x00\n        /* \"TEXOToken.sol\":39628:39636  _lpToken */\n      dup4\n        /* \"TEXOToken.sol\":39609:39637  poolIdForLpAddress[_lpToken] */\n      0xffffffffffffffffffffffffffffffffffffffff\n      and\n      0xffffffffffffffffffffffffffffffffffffffff\n      and\n      dup2\n      mstore\n      0x20\n      add\n      swap1\n      dup2\n      mstore\n      0x20\n      add\n      0x00\n      keccak256\n      sload\n        /* \"TEXOToken.sol\":39602:39637  return poolIdForLpAddress[_lpToken] */\n      swap1\n      pop\n        /* \"TEXOToken.sol\":39426:39644  function getPoolIdForLpToken(IBEP20 _lpToken) external view returns (uint256) {... */\n      swap2\n      swap1\n      pop\n      jump\t// out\n        /* \"TEXOToken.sol\":38956:39187  function setBlockToStartReducingEmissionRate(uint256 _blockCountToStartReducingEmissionRateFromNow) external onlyOwner {... */\n    tag_69:\n        /* \"TEXOToken.sol\":11663:11675  _msgSender() */\n      tag_183\n        /* \"TEXOToken.sol\":11663:11673  _msgSender */\n      tag_184\n        /* \"TEXOToken.sol\":11663:11675  _msgSender() */\n      jump\t// in\n    tag_183:\n        /* \"TEXOToken.sol\":11653:11675  _owner == _msgSender() */\n      0xffffffffffffffffffffffffffffffffffffffff\n      and\n        /* \"TEXOToken.sol\":11653:11659  _owner */\n      0x00\n      dup1\n      sload\n      swap1\n      0x0100\n      exp\n      swap1\n      div\n      0xffffffffffffffffffffffffffffffffffffffff\n      and\n        /* \"TEXOToken.sol\":11653:11675  _owner == _msgSender() */\n      0xffffffffffffffffffffffffffffffffffffffff\n      and\n      eq\n        /* \"TEXOToken.sol\":11645:11712  require(_owner == _msgSender(), \"Ownable: caller is not the owner\") */\n      tag_185\n      jumpi\n      mload(0x40)\n      0x08c379a000000000000000000000000000000000000000000000000000000000\n      dup2\n      mstore\n      0x04\n      add\n      dup1\n      dup1\n      0x20\n      add\n      dup3\n      dup2\n      sub\n      dup3\n      mstore\n      0x20\n      dup2\n      mstore\n      0x20\n      add\n      dup1\n      0x4f776e61626c653a2063616c6c6572206973206e6f7420746865206f776e6572\n      dup2\n      mstore\n      pop\n      0x20\n      add\n      swap2\n      pop\n      pop\n      mload(0x40)\n      dup1\n      swap2\n      sub\n      swap1\n      revert\n    tag_185:\n        /* \"TEXOToken.sol\":39135:39180  _blockCountToStartReducingEmissionRateFromNow */\n      dup1\n        /* \"TEXOToken.sol\":39120:39132  block.number */\n      number\n        /* \"TEXOToken.sol\":39120:39180  block.number + _blockCountToStartReducingEmissionRateFromNow */\n      add\n        /* \"TEXOToken.sol\":39085:39117  blockToStartReducingEmissionRate */\n      0x06\n        /* \"TEXOToken.sol\":39085:39180  blockToStartReducingEmissionRate = block.number + _blockCountToStartReducingEmissionRateFromNow */\n      dup2\n      swap1\n      sstore\n      pop\n        /* \"TEXOToken.sol\":38956:39187  function setBlockToStartReducingEmissionRate(uint256 _blockCountToStartReducingEmissionRateFromNow) external onlyOwner {... */\n      pop\n      jump\t// out\n        /* \"TEXOToken.sol\":36339:36388  uint16 public constant MAXIMUM_REFERRAL_BP = 2000 */\n    tag_71:\n        /* \"TEXOToken.sol\":36384:36388  2000 */\n      0x07d0\n        /* \"TEXOToken.sol\":36339:36388  uint16 public constant MAXIMUM_REFERRAL_BP = 2000 */\n      dup2\n      jump\t// out\n        /* \"TEXOToken.sol\":53723:53829  function getReferral(address _user) public view returns (address) {... */\n    tag_74:\n        /* \"TEXOToken.sol\":53780:53787  address */\n      0x00\n        /* \"TEXOToken.sol\":53806:53815  referrers */\n      0x0d\n        /* \"TEXOToken.sol\":53806:53822  referrers[_user] */\n      0x00\n        /* \"TEXOToken.sol\":53816:53821  _user */\n      dup4\n        /* \"TEXOToken.sol\":53806:53822  referrers[_user] */\n      0xffffffffffffffffffffffffffffffffffffffff\n      and\n      0xffffffffffffffffffffffffffffffffffffffff\n      and\n      dup2\n      mstore\n      0x20\n      add\n      swap1\n      dup2\n      mstore\n      0x20\n      add\n      0x00\n      keccak256\n      0x00\n      swap1\n      sload\n      swap1\n      0x0100\n      exp\n      swap1\n      div\n      0xffffffffffffffffffffffffffffffffffffffff\n      and\n        /* \"TEXOToken.sol\":53799:53822  return referrers[_user] */\n      swap1\n      pop\n        /* \"TEXOToken.sol\":53723:53829  function getReferral(address _user) public view returns (address) {... */\n      swap2\n      swap1\n      pop\n      jump\t// out\n        /* \"TEXOToken.sol\":36507:36555  mapping(address => uint256) public referredCount */\n    tag_77:\n      mstore(0x20, 0x0e)\n      dup1\n      0x00\n      mstore\n      keccak256(0x00, 0x40)\n      0x00\n      swap2\n      pop\n      swap1\n      pop\n      sload\n      dup2\n      jump\t// out\n        /* \"TEXOToken.sol\":35559:35584  address public feeAddress */\n    tag_79:\n      0x05\n      0x00\n      swap1\n      sload\n      swap1\n      0x0100\n      exp\n      swap1\n      div\n      0xffffffffffffffffffffffffffffffffffffffff\n      and\n      dup2\n      jump\t// out\n        /* \"TEXOToken.sol\":48710:49666  function withdraw(uint256 _pid, uint256 _amount) public nonReentrant {... */\n    tag_82:\n        /* \"TEXOToken.sol\":21196:21197  2 */\n      0x02\n        /* \"TEXOToken.sol\":21785:21792  _status */\n      sload(0x01)\n        /* \"TEXOToken.sol\":21785:21804  _status != _ENTERED */\n      eq\n      iszero\n        /* \"TEXOToken.sol\":21777:21840  require(_status != _ENTERED, \"ReentrancyGuard: reentrant call\") */\n      tag_189\n      jumpi\n      mload(0x40)\n      0x08c379a000000000000000000000000000000000000000000000000000000000\n      dup2\n      mstore\n      0x04\n      add\n      dup1\n      dup1\n      0x20\n      add\n      dup3\n      dup2\n      sub\n      dup3\n      mstore\n      0x1f\n      dup2\n      mstore\n      0x20\n      add\n      dup1\n      0x5265656e7472616e637947756172643a207265656e7472616e742063616c6c00\n      dup2\n      mstore\n      pop\n      0x20\n      add\n      swap2\n      pop\n      pop\n      mload(0x40)\n      dup1\n      swap2\n      sub\n      swap1\n      revert\n    tag_189:\n        /* \"TEXOToken.sol\":21196:21197  2 */\n      0x02\n        /* \"TEXOToken.sol\":21915:21922  _status */\n      0x01\n        /* \"TEXOToken.sol\":21915:21933  _status = _ENTERED */\n      dup2\n      swap1\n      sstore\n      pop\n        /* \"TEXOToken.sol\":48789:48810  PoolInfo storage pool */\n      0x00\n        /* \"TEXOToken.sol\":48813:48821  poolInfo */\n      0x09\n        /* \"TEXOToken.sol\":48822:48826  _pid */\n      dup4\n        /* \"TEXOToken.sol\":48813:48827  poolInfo[_pid] */\n      dup2\n      sload\n      dup2\n      lt\n      tag_191\n      jumpi\n      invalid\n    tag_191:\n      swap1\n      0x00\n      mstore\n      keccak256(0x00, 0x20)\n      swap1\n      0x06\n      mul\n      add\n        /* \"TEXOToken.sol\":48789:48827  PoolInfo storage pool = poolInfo[_pid] */\n      swap1\n      pop\n        /* \"TEXOToken.sol\":48837:48858  UserInfo storage user */\n      0x00\n        /* \"TEXOToken.sol\":48861:48869  userInfo */\n      0x0a\n        /* \"TEXOToken.sol\":48861:48875  userInfo[_pid] */\n      0x00\n        /* \"TEXOToken.sol\":48870:48874  _pid */\n      dup6\n        /* \"TEXOToken.sol\":48861:48875  userInfo[_pid] */\n      dup2\n      mstore\n      0x20\n      add\n      swap1\n      dup2\n      mstore\n      0x20\n      add\n      0x00\n      keccak256\n        /* \"TEXOToken.sol\":48861:48887  userInfo[_pid][msg.sender] */\n      0x00\n        /* \"TEXOToken.sol\":48876:48886  msg.sender */\n      caller\n        /* \"TEXOToken.sol\":48861:48887  userInfo[_pid][msg.sender] */\n      0xffffffffffffffffffffffffffffffffffffffff\n      and\n      0xffffffffffffffffffffffffffffffffffffffff\n      and\n      dup2\n      mstore\n      0x20\n      add\n      swap1\n      dup2\n      mstore\n      0x20\n      add\n      0x00\n      keccak256\n        /* \"TEXOToken.sol\":48837:48887  UserInfo storage user = userInfo[_pid][msg.sender] */\n      swap1\n      pop\n        /* \"TEXOToken.sol\":48921:48928  _amount */\n      dup3\n        /* \"TEXOToken.sol\":48906:48910  user */\n      dup2\n        /* \"TEXOToken.sol\":48906:48917  user.amount */\n      0x00\n      add\n      sload\n        /* \"TEXOToken.sol\":48906:48928  user.amount >= _amount */\n      lt\n      iszero\n        /* \"TEXOToken.sol\":48898:48951  require(user.amount >= _amount, \"withdraw: not good\") */\n      tag_193\n      jumpi\n      mload(0x40)\n      0x08c379a000000000000000000000000000000000000000000000000000000000\n      dup2\n      mstore\n      0x04\n      add\n      dup1\n      dup1\n      0x20\n      add\n      dup3\n      dup2\n      sub\n      dup3\n      mstore\n      0x12\n      dup2\n      mstore\n      0x20\n      add\n      dup1\n      0x77697468647261773a206e6f7420676f6f640000000000000000000000000000\n      dup2\n      mstore\n      pop\n      0x20\n      add\n      swap2\n      pop\n      pop\n      mload(0x40)\n      dup1\n      swap2\n      sub\n      swap1\n      revert\n    tag_193:\n        /* \"TEXOToken.sol\":48962:48978  updatePool(_pid) */\n      tag_194\n        /* \"TEXOToken.sol\":48973:48977  _pid */\n      dup5\n        /* \"TEXOToken.sol\":48962:48972  updatePool */\n      tag_90\n        /* \"TEXOToken.sol\":48962:48978  updatePool(_pid) */\n      jump\t// in\n    tag_194:\n        /* \"TEXOToken.sol\":48989:49009  bool canWithdrawTEXO */\n      0x00\n        /* \"TEXOToken.sol\":49012:49035  canWithdrawReward(_pid) */\n      tag_195\n        /* \"TEXOToken.sol\":49030:49034  _pid */\n      dup6\n        /* \"TEXOToken.sol\":49012:49029  canWithdrawReward */\n      tag_147\n        /* \"TEXOToken.sol\":49012:49035  canWithdrawReward(_pid) */\n      jump\t// in\n    tag_195:\n        /* \"TEXOToken.sol\":48989:49035  bool canWithdrawTEXO = canWithdrawReward(_pid) */\n      swap1\n      pop\n        /* \"TEXOToken.sol\":49046:49061  uint256 pending */\n      0x00\n        /* \"TEXOToken.sol\":49064:49171  user.amount... */\n      tag_196\n        /* \"TEXOToken.sol\":49155:49159  user */\n      dup4\n        /* \"TEXOToken.sol\":49155:49170  user.rewardDebt */\n      0x01\n      add\n      sload\n        /* \"TEXOToken.sol\":49064:49137  user.amount... */\n      tag_197\n        /* \"TEXOToken.sol\":49132:49136  1e12 */\n      0xe8d4a51000\n        /* \"TEXOToken.sol\":49064:49114  user.amount... */\n      tag_198\n        /* \"TEXOToken.sol\":49093:49097  pool */\n      dup9\n        /* \"TEXOToken.sol\":49093:49113  pool.accTEXOPerShare */\n      0x04\n      add\n      sload\n        /* \"TEXOToken.sol\":49064:49068  user */\n      dup9\n        /* \"TEXOToken.sol\":49064:49075  user.amount */\n      0x00\n      add\n      sload\n        /* \"TEXOToken.sol\":49064:49092  user.amount... */\n      tag_199\n      swap1\n        /* \"TEXOToken.sol\":49064:49114  user.amount... */\n      swap2\n      swap1\n      0xffffffff\n      and\n      jump\t// in\n    tag_198:\n        /* \"TEXOToken.sol\":49064:49131  user.amount... */\n      tag_200\n      swap1\n        /* \"TEXOToken.sol\":49064:49137  user.amount... */\n      swap2\n      swap1\n      0xffffffff\n      and\n      jump\t// in\n    tag_197:\n        /* \"TEXOToken.sol\":49064:49154  user.amount... */\n      tag_201\n      swap1\n        /* \"TEXOToken.sol\":49064:49171  user.amount... */\n      swap2\n      swap1\n      0xffffffff\n      and\n      jump\t// in\n    tag_196:\n        /* \"TEXOToken.sol\":49046:49171  uint256 pending = user.amount... */\n      swap1\n      pop\n        /* \"TEXOToken.sol\":49186:49201  canWithdrawTEXO */\n      dup2\n        /* \"TEXOToken.sol\":49186:49216  canWithdrawTEXO && pending > 0 */\n      dup1\n      iszero\n      tag_202\n      jumpi\n      pop\n        /* \"TEXOToken.sol\":49215:49216  0 */\n      0x00\n        /* \"TEXOToken.sol\":49205:49212  pending */\n      dup2\n        /* \"TEXOToken.sol\":49205:49216  pending > 0 */\n      gt\n        /* \"TEXOToken.sol\":49186:49216  canWithdrawTEXO && pending > 0 */\n    tag_202:\n        /* \"TEXOToken.sol\":49182:49450  if (canWithdrawTEXO && pending > 0) {... */\n      iszero\n      tag_203\n      jumpi\n        /* \"TEXOToken.sol\":49232:49269  safeTEXOTransfer(msg.sender, pending) */\n      tag_204\n        /* \"TEXOToken.sol\":49249:49259  msg.sender */\n      caller\n        /* \"TEXOToken.sol\":49261:49268  pending */\n      dup3\n        /* \"TEXOToken.sol\":49232:49248  safeTEXOTransfer */\n      tag_205\n        /* \"TEXOToken.sol\":49232:49269  safeTEXOTransfer(msg.sender, pending) */\n      jump\t// in\n    tag_204:\n        /* \"TEXOToken.sol\":49283:49325  payReferralCommission(msg.sender, pending) */\n      tag_206\n        /* \"TEXOToken.sol\":49305:49315  msg.sender */\n      caller\n        /* \"TEXOToken.sol\":49317:49324  pending */\n      dup3\n        /* \"TEXOToken.sol\":49283:49304  payReferralCommission */\n      tag_207\n        /* \"TEXOToken.sol\":49283:49325  payReferralCommission(msg.sender, pending) */\n      jump\t// in\n    tag_206:\n        /* \"TEXOToken.sol\":49358:49439  user.amount... */\n      tag_208\n        /* \"TEXOToken.sol\":49434:49438  1e12 */\n      0xe8d4a51000\n        /* \"TEXOToken.sol\":49358:49412  user.amount... */\n      tag_209\n        /* \"TEXOToken.sol\":49391:49395  pool */\n      dup7\n        /* \"TEXOToken.sol\":49391:49411  pool.accTEXOPerShare */\n      0x04\n      add\n      sload\n        /* \"TEXOToken.sol\":49358:49362  user */\n      dup7\n        /* \"TEXOToken.sol\":49358:49369  user.amount */\n      0x00\n      add\n      sload\n        /* \"TEXOToken.sol\":49358:49390  user.amount... */\n      tag_199\n      swap1\n        /* \"TEXOToken.sol\":49358:49412  user.amount... */\n      swap2\n      swap1\n      0xffffffff\n      and\n      jump\t// in\n    tag_209:\n        /* \"TEXOToken.sol\":49358:49433  user.amount... */\n      tag_200\n      swap1\n        /* \"TEXOToken.sol\":49358:49439  user.amount... */\n      swap2\n      swap1\n      0xffffffff\n      and\n      jump\t// in\n    tag_208:\n        /* \"TEXOToken.sol\":49340:49344  user */\n      dup4\n        /* \"TEXOToken.sol\":49340:49355  user.rewardDebt */\n      0x01\n      add\n        /* \"TEXOToken.sol\":49340:49439  user.rewardDebt = user.amount... */\n      dup2\n      swap1\n      sstore\n      pop\n        /* \"TEXOToken.sol\":49182:49450  if (canWithdrawTEXO && pending > 0) {... */\n    tag_203:\n        /* \"TEXOToken.sol\":49474:49475  0 */\n      0x00\n        /* \"TEXOToken.sol\":49464:49471  _amount */\n      dup6\n        /* \"TEXOToken.sol\":49464:49475  _amount > 0 */\n      gt\n        /* \"TEXOToken.sol\":49460:49609  if (_amount > 0) {... */\n      iszero\n      tag_210\n      jumpi\n        /* \"TEXOToken.sol\":49505:49529  user.amount.sub(_amount) */\n      tag_211\n        /* \"TEXOToken.sol\":49521:49528  _amount */\n      dup6\n        /* \"TEXOToken.sol\":49505:49509  user */\n      dup5\n        /* \"TEXOToken.sol\":49505:49516  user.amount */\n      0x00\n      add\n      sload\n        /* \"TEXOToken.sol\":49505:49520  user.amount.sub */\n      tag_201\n      swap1\n        /* \"TEXOToken.sol\":49505:49529  user.amount.sub(_amount) */\n      swap2\n      swap1\n      0xffffffff\n      and\n      jump\t// in\n    tag_211:\n        /* \"TEXOToken.sol\":49491:49495  user */\n      dup4\n        /* \"TEXOToken.sol\":49491:49502  user.amount */\n      0x00\n      add\n        /* \"TEXOToken.sol\":49491:49529  user.amount = user.amount.sub(_amount) */\n      dup2\n      swap1\n      sstore\n      pop\n        /* \"TEXOToken.sol\":49543:49598  pool.lpToken.safeTransfer(address(msg.sender), _amount) */\n      tag_212\n        /* \"TEXOToken.sol\":49577:49587  msg.sender */\n      caller\n        /* \"TEXOToken.sol\":49590:49597  _amount */\n      dup7\n        /* \"TEXOToken.sol\":49543:49547  pool */\n      dup7\n        /* \"TEXOToken.sol\":49543:49555  pool.lpToken */\n      0x00\n      add\n      0x00\n      swap1\n      sload\n      swap1\n      0x0100\n      exp\n      swap1\n      div\n      0xffffffffffffffffffffffffffffffffffffffff\n      and\n        /* \"TEXOToken.sol\":49543:49568  pool.lpToken.safeTransfer */\n      0xffffffffffffffffffffffffffffffffffffffff\n      and\n      tag_213\n      swap1\n        /* \"TEXOToken.sol\":49543:49598  pool.lpToken.safeTransfer(address(msg.sender), _amount) */\n      swap3\n      swap2\n      swap1\n      0xffffffff\n      and\n      jump\t// in\n    tag_212:\n        /* \"TEXOToken.sol\":49460:49609  if (_amount > 0) {... */\n    tag_210:\n        /* \"TEXOToken.sol\":49645:49649  _pid */\n      dup6\n        /* \"TEXOToken.sol\":49633:49643  msg.sender */\n      caller\n        /* \"TEXOToken.sol\":49624:49659  Withdraw(msg.sender, _pid, _amount) */\n      0xffffffffffffffffffffffffffffffffffffffff\n      and\n      0xf279e6a1f5e320cca91135676d9cb6e44ca8a08c0b88342bcdb1144f6511b568\n        /* \"TEXOToken.sol\":49651:49658  _amount */\n      dup8\n        /* \"TEXOToken.sol\":49624:49659  Withdraw(msg.sender, _pid, _amount) */\n      mload(0x40)\n      dup1\n      dup3\n      dup2\n      mstore\n      0x20\n      add\n      swap2\n      pop\n      pop\n      mload(0x40)\n      dup1\n      swap2\n      sub\n      swap1\n      log3\n        /* \"TEXOToken.sol\":21944:21945  _ */\n      pop\n      pop\n      pop\n      pop\n        /* \"TEXOToken.sol\":21153:21154  1 */\n      0x01\n        /* \"TEXOToken.sol\":22088:22095  _status */\n      dup1\n        /* \"TEXOToken.sol\":22088:22110  _status = _NOT_ENTERED */\n      dup2\n      swap1\n      sstore\n      pop\n        /* \"TEXOToken.sol\":48710:49666  function withdraw(uint256 _pid, uint256 _amount) public nonReentrant {... */\n      pop\n      pop\n      jump\t// out\n        /* \"TEXOToken.sol\":37340:37385  bool public isAllowReduceEmissionRate = false */\n    tag_84:\n      0x12\n      0x00\n      swap1\n      sload\n      swap1\n      0x0100\n      exp\n      swap1\n      div\n      0xff\n      and\n      dup2\n      jump\t// out\n        /* \"TEXOToken.sol\":36418:36462  mapping(address => address) public referrers */\n    tag_87:\n      mstore(0x20, 0x0d)\n      dup1\n      0x00\n      mstore\n      keccak256(0x00, 0x40)\n      0x00\n      swap2\n      pop\n      sload\n      swap1\n      0x0100\n      exp\n      swap1\n      div\n      0xffffffffffffffffffffffffffffffffffffffff\n      and\n      dup2\n      jump\t// out\n        /* \"TEXOToken.sol\":43658:45031  function updatePool(uint256 _pid) public {... */\n    tag_90:\n        /* \"TEXOToken.sol\":43709:43730  PoolInfo storage pool */\n      0x00\n        /* \"TEXOToken.sol\":43733:43741  poolInfo */\n      0x09\n        /* \"TEXOToken.sol\":43742:43746  _pid */\n      dup3\n        /* \"TEXOToken.sol\":43733:43747  poolInfo[_pid] */\n      dup2\n      sload\n      dup2\n      lt\n      tag_215\n      jumpi\n      invalid\n    tag_215:\n      swap1\n      0x00\n      mstore\n      keccak256(0x00, 0x20)\n      swap1\n      0x06\n      mul\n      add\n        /* \"TEXOToken.sol\":43709:43747  PoolInfo storage pool = poolInfo[_pid] */\n      swap1\n      pop\n        /* \"TEXOToken.sol\":43778:43782  pool */\n      dup1\n        /* \"TEXOToken.sol\":43778:43798  pool.lastRewardBlock */\n      0x03\n      add\n      sload\n        /* \"TEXOToken.sol\":43762:43774  block.number */\n      number\n        /* \"TEXOToken.sol\":43762:43798  block.number <= pool.lastRewardBlock */\n      gt\n        /* \"TEXOToken.sol\":43758:43831  if (block.number <= pool.lastRewardBlock) {... */\n      tag_217\n      jumpi\n        /* \"TEXOToken.sol\":43814:43821  return; */\n      pop\n      jump(tag_214)\n        /* \"TEXOToken.sol\":43758:43831  if (block.number <= pool.lastRewardBlock) {... */\n    tag_217:\n        /* \"TEXOToken.sol\":43841:43863  bool canWithdrawReward */\n      0x00\n        /* \"TEXOToken.sol\":43866:43889  canWithdrawReward(_pid) */\n      tag_218\n        /* \"TEXOToken.sol\":43884:43888  _pid */\n      dup4\n        /* \"TEXOToken.sol\":43866:43883  canWithdrawReward */\n      tag_147\n        /* \"TEXOToken.sol\":43866:43889  canWithdrawReward(_pid) */\n      jump\t// in\n    tag_218:\n        /* \"TEXOToken.sol\":43841:43889  bool canWithdrawReward = canWithdrawReward(_pid) */\n      swap1\n      pop\n        /* \"TEXOToken.sol\":43904:43921  canWithdrawReward */\n      dup1\n        /* \"TEXOToken.sol\":43900:43954  if (canWithdrawReward) {... */\n      iszero\n      tag_219\n      jumpi\n        /* \"TEXOToken.sol\":43937:43944  return; */\n      pop\n      pop\n      jump(tag_214)\n        /* \"TEXOToken.sol\":43900:43954  if (canWithdrawReward) {... */\n    tag_219:\n        /* \"TEXOToken.sol\":43964:43980  uint256 lpSupply */\n      0x00\n        /* \"TEXOToken.sol\":43983:43987  pool */\n      dup3\n        /* \"TEXOToken.sol\":43983:43995  pool.lpToken */\n      0x00\n      add\n      0x00\n      swap1\n      sload\n      swap1\n      0x0100\n      exp\n      swap1\n      div\n      0xffffffffffffffffffffffffffffffffffffffff\n      and\n        /* \"TEXOToken.sol\":43983:44005  pool.lpToken.balanceOf */\n      0xffffffffffffffffffffffffffffffffffffffff\n      and\n      0x70a08231\n        /* \"TEXOToken.sol\":44014:44018  this */\n      address\n        /* \"TEXOToken.sol\":43983:44020  pool.lpToken.balanceOf(address(this)) */\n      mload(0x40)\n      dup3\n      0xffffffff\n      and\n      0xe0\n      shl\n      dup2\n      mstore\n      0x04\n      add\n      dup1\n      dup3\n      0xffffffffffffffffffffffffffffffffffffffff\n      and\n      dup2\n      mstore\n      0x20\n      add\n      swap2\n      pop\n      pop\n      0x20\n      mload(0x40)\n      dup1\n      dup4\n      sub\n      dup2\n      dup7\n      dup1\n      extcodesize\n      iszero\n      dup1\n      iszero\n      tag_220\n      jumpi\n      0x00\n      dup1\n      revert\n    tag_220:\n      pop\n      gas\n      staticcall\n      iszero\n      dup1\n      iszero\n      tag_222\n      jumpi\n      returndatasize\n      0x00\n      dup1\n      returndatacopy\n      revert(0x00, returndatasize)\n    tag_222:\n      pop\n      pop\n      pop\n      pop\n      mload(0x40)\n      returndatasize\n      0x20\n      dup2\n      lt\n      iszero\n      tag_223\n      jumpi\n      0x00\n      dup1\n      revert\n    tag_223:\n      dup2\n      add\n      swap1\n      dup1\n      dup1\n      mload\n      swap1\n      0x20\n      add\n      swap1\n      swap3\n      swap2\n      swap1\n      pop\n      pop\n      pop\n        /* \"TEXOToken.sol\":43964:44020  uint256 lpSupply = pool.lpToken.balanceOf(address(this)) */\n      swap1\n      pop\n        /* \"TEXOToken.sol\":44135:44136  0 */\n      0x00\n        /* \"TEXOToken.sol\":44123:44131  lpSupply */\n      dup2\n        /* \"TEXOToken.sol\":44123:44136  lpSupply == 0 */\n      eq\n        /* \"TEXOToken.sol\":44123:44160  lpSupply == 0 || pool.allocPoint == 0 */\n      dup1\n      tag_224\n      jumpi\n      pop\n        /* \"TEXOToken.sol\":44159:44160  0 */\n      0x00\n        /* \"TEXOToken.sol\":44140:44144  pool */\n      dup4\n        /* \"TEXOToken.sol\":44140:44155  pool.allocPoint */\n      0x01\n      add\n      sload\n        /* \"TEXOToken.sol\":44140:44160  pool.allocPoint == 0 */\n      eq\n        /* \"TEXOToken.sol\":44123:44160  lpSupply == 0 || pool.allocPoint == 0 */\n    tag_224:\n        /* \"TEXOToken.sol\":44119:44324  if (lpSupply == 0 || pool.allocPoint == 0) { // If pool initially has no staked WETH token, or pool has no allocation points.... */\n      iszero\n      tag_225\n      jumpi\n        /* \"TEXOToken.sol\":44280:44292  block.number */\n      number\n        /* \"TEXOToken.sol\":44257:44261  pool */\n      dup4\n        /* \"TEXOToken.sol\":44257:44277  pool.lastRewardBlock */\n      0x03\n      add\n        /* \"TEXOToken.sol\":44257:44292  pool.lastRewardBlock = block.number */\n      dup2\n      swap1\n      sstore\n      pop\n        /* \"TEXOToken.sol\":44307:44314  return; */\n      pop\n      pop\n      pop\n      jump(tag_214)\n        /* \"TEXOToken.sol\":44119:44324  if (lpSupply == 0 || pool.allocPoint == 0) { // If pool initially has no staked WETH token, or pool has no allocation points.... */\n    tag_225:\n        /* \"TEXOToken.sol\":44334:44352  uint256 multiplier */\n      0x00\n        /* \"TEXOToken.sol\":44355:44404  getMultiplier(pool.lastRewardBlock, block.number) */\n      tag_226\n        /* \"TEXOToken.sol\":44369:44373  pool */\n      dup5\n        /* \"TEXOToken.sol\":44369:44389  pool.lastRewardBlock */\n      0x03\n      add\n      sload\n        /* \"TEXOToken.sol\":44391:44403  block.number */\n      number\n        /* \"TEXOToken.sol\":44355:44368  getMultiplier */\n      tag_121\n        /* \"TEXOToken.sol\":44355:44404  getMultiplier(pool.lastRewardBlock, block.number) */\n      jump\t// in\n    tag_226:\n        /* \"TEXOToken.sol\":44334:44404  uint256 multiplier = getMultiplier(pool.lastRewardBlock, block.number) */\n      swap1\n      pop\n        /* \"TEXOToken.sol\":44475:44493  uint256 tEXOReward */\n      0x00\n        /* \"TEXOToken.sol\":44496:44605  multiplier... */\n      tag_227\n        /* \"TEXOToken.sol\":44589:44604  totalAllocPoint */\n      sload(0x0b)\n        /* \"TEXOToken.sol\":44496:44571  multiplier... */\n      tag_228\n        /* \"TEXOToken.sol\":44555:44559  pool */\n      dup8\n        /* \"TEXOToken.sol\":44555:44570  pool.allocPoint */\n      0x01\n      add\n      sload\n        /* \"TEXOToken.sol\":44496:44537  multiplier... */\n      tag_229\n        /* \"TEXOToken.sol\":44524:44536  tEXOPerBlock */\n      sload(0x04)\n        /* \"TEXOToken.sol\":44496:44506  multiplier */\n      dup8\n        /* \"TEXOToken.sol\":44496:44523  multiplier... */\n      tag_199\n      swap1\n        /* \"TEXOToken.sol\":44496:44537  multiplier... */\n      swap2\n      swap1\n      0xffffffff\n      and\n      jump\t// in\n    tag_229:\n        /* \"TEXOToken.sol\":44496:44554  multiplier... */\n      tag_199\n      swap1\n        /* \"TEXOToken.sol\":44496:44571  multiplier... */\n      swap2\n      swap1\n      0xffffffff\n      and\n      jump\t// in\n    tag_228:\n        /* \"TEXOToken.sol\":44496:44588  multiplier... */\n      tag_200\n      swap1\n        /* \"TEXOToken.sol\":44496:44605  multiplier... */\n      swap2\n      swap1\n      0xffffffff\n      and\n      jump\t// in\n    tag_227:\n        /* \"TEXOToken.sol\":44475:44605  uint256 tEXOReward = multiplier... */\n      swap1\n      pop\n        /* \"TEXOToken.sol\":44616:44620  tEXO */\n      0x02\n      0x00\n      swap1\n      sload\n      swap1\n      0x0100\n      exp\n      swap1\n      div\n      0xffffffffffffffffffffffffffffffffffffffff\n      and\n        /* \"TEXOToken.sol\":44616:44625  tEXO.mint */\n      0xffffffffffffffffffffffffffffffffffffffff\n      and\n      0x40c10f19\n        /* \"TEXOToken.sol\":44626:44633  devAddr */\n      0x03\n      0x00\n      swap1\n      sload\n      swap1\n      0x0100\n      exp\n      swap1\n      div\n      0xffffffffffffffffffffffffffffffffffffffff\n      and\n        /* \"TEXOToken.sol\":44635:44653  tEXOReward.div(10) */\n      tag_230\n        /* \"TEXOToken.sol\":44650:44652  10 */\n      0x0a\n        /* \"TEXOToken.sol\":44635:44645  tEXOReward */\n      dup6\n        /* \"TEXOToken.sol\":44635:44649  tEXOReward.div */\n      tag_200\n      swap1\n        /* \"TEXOToken.sol\":44635:44653  tEXOReward.div(10) */\n      swap2\n      swap1\n      0xffffffff\n      and\n      jump\t// in\n    tag_230:\n        /* \"TEXOToken.sol\":44616:44654  tEXO.mint(devAddr, tEXOReward.div(10)) */\n      mload(0x40)\n      dup4\n      0xffffffff\n      and\n      0xe0\n      shl\n      dup2\n      mstore\n      0x04\n      add\n      dup1\n      dup4\n      0xffffffffffffffffffffffffffffffffffffffff\n      and\n      dup2\n      mstore\n      0x20\n      add\n      dup3\n      dup2\n      mstore\n      0x20\n      add\n      swap3\n      pop\n      pop\n      pop\n      0x00\n      mload(0x40)\n      dup1\n      dup4\n      sub\n      dup2\n      0x00\n      dup8\n      dup1\n      extcodesize\n      iszero\n      dup1\n      iszero\n      tag_231\n      jumpi\n      0x00\n      dup1\n      revert\n    tag_231:\n      pop\n      gas\n      call\n      iszero\n      dup1\n      iszero\n      tag_233\n      jumpi\n      returndatasize\n      0x00\n      dup1\n      returndatacopy\n      revert(0x00, returndatasize)\n    tag_233:\n      pop\n      pop\n      pop\n      pop\n        /* \"TEXOToken.sol\":44725:44729  tEXO */\n      0x02\n      0x00\n      swap1\n      sload\n      swap1\n      0x0100\n      exp\n      swap1\n      div\n      0xffffffffffffffffffffffffffffffffffffffff\n      and\n        /* \"TEXOToken.sol\":44725:44734  tEXO.mint */\n      0xffffffffffffffffffffffffffffffffffffffff\n      and\n      0x40c10f19\n        /* \"TEXOToken.sol\":44743:44747  this */\n      address\n        /* \"TEXOToken.sol\":44750:44760  tEXOReward */\n      dup4\n        /* \"TEXOToken.sol\":44725:44761  tEXO.mint(address(this), tEXOReward) */\n      mload(0x40)\n      dup4\n      0xffffffff\n      and\n      0xe0\n      shl\n      dup2\n      mstore\n      0x04\n      add\n      dup1\n      dup4\n      0xffffffffffffffffffffffffffffffffffffffff\n      and\n      dup2\n      mstore\n      0x20\n      add\n      dup3\n      dup2\n      mstore\n      0x20\n      add\n      swap3\n      pop\n      pop\n      pop\n      0x00\n      mload(0x40)\n      dup1\n      dup4\n      sub\n      dup2\n      0x00\n      dup8\n      dup1\n      extcodesize\n      iszero\n      dup1\n      iszero\n      tag_234\n      jumpi\n      0x00\n      dup1\n      revert\n    tag_234:\n      pop\n      gas\n      call\n      iszero\n      dup1\n      iszero\n      tag_236\n      jumpi\n      returndatasize\n      0x00\n      dup1\n      returndatacopy\n      revert(0x00, returndatasize)\n    tag_236:\n      pop\n      pop\n      pop\n      pop\n        /* \"TEXOToken.sol\":44841:44978  pool.accTEXOPerShare... */\n      tag_237\n        /* \"TEXOToken.sol\":44896:44964  tEXOReward... */\n      tag_238\n        /* \"TEXOToken.sol\":44955:44963  lpSupply */\n      dup5\n        /* \"TEXOToken.sol\":44896:44933  tEXOReward... */\n      tag_239\n        /* \"TEXOToken.sol\":44928:44932  1e12 */\n      0xe8d4a51000\n        /* \"TEXOToken.sol\":44896:44906  tEXOReward */\n      dup6\n        /* \"TEXOToken.sol\":44896:44927  tEXOReward... */\n      tag_199\n      swap1\n        /* \"TEXOToken.sol\":44896:44933  tEXOReward... */\n      swap2\n      swap1\n      0xffffffff\n      and\n      jump\t// in\n    tag_239:\n        /* \"TEXOToken.sol\":44896:44954  tEXOReward... */\n      tag_200\n      swap1\n        /* \"TEXOToken.sol\":44896:44964  tEXOReward... */\n      swap2\n      swap1\n      0xffffffff\n      and\n      jump\t// in\n    tag_238:\n        /* \"TEXOToken.sol\":44841:44845  pool */\n      dup7\n        /* \"TEXOToken.sol\":44841:44861  pool.accTEXOPerShare */\n      0x04\n      add\n      sload\n        /* \"TEXOToken.sol\":44841:44878  pool.accTEXOPerShare... */\n      tag_240\n      swap1\n        /* \"TEXOToken.sol\":44841:44978  pool.accTEXOPerShare... */\n      swap2\n      swap1\n      0xffffffff\n      and\n      jump\t// in\n    tag_237:\n        /* \"TEXOToken.sol\":44818:44822  pool */\n      dup6\n        /* \"TEXOToken.sol\":44818:44838  pool.accTEXOPerShare */\n      0x04\n      add\n        /* \"TEXOToken.sol\":44818:44978  pool.accTEXOPerShare = pool.accTEXOPerShare... */\n      dup2\n      swap1\n      sstore\n      pop\n        /* \"TEXOToken.sol\":45012:45024  block.number */\n      number\n        /* \"TEXOToken.sol\":44989:44993  pool */\n      dup6\n        /* \"TEXOToken.sol\":44989:45009  pool.lastRewardBlock */\n      0x03\n      add\n        /* \"TEXOToken.sol\":44989:45024  pool.lastRewardBlock = block.number */\n      dup2\n      swap1\n      sstore\n      pop\n        /* \"TEXOToken.sol\":43658:45031  function updatePool(uint256 _pid) public {... */\n      pop\n      pop\n      pop\n      pop\n      pop\n    tag_214:\n      pop\n      jump\t// out\n        /* \"TEXOToken.sol\":49734:50136  function emergencyWithdraw(uint256 _pid) public nonReentrant {... */\n    tag_93:\n        /* \"TEXOToken.sol\":21196:21197  2 */\n      0x02\n        /* \"TEXOToken.sol\":21785:21792  _status */\n      sload(0x01)\n        /* \"TEXOToken.sol\":21785:21804  _status != _ENTERED */\n      eq\n      iszero\n        /* \"TEXOToken.sol\":21777:21840  require(_status != _ENTERED, \"ReentrancyGuard: reentrant call\") */\n      tag_242\n      jumpi\n      mload(0x40)\n      0x08c379a000000000000000000000000000000000000000000000000000000000\n      dup2\n      mstore\n      0x04\n      add\n      dup1\n      dup1\n      0x20\n      add\n      dup3\n      dup2\n      sub\n      dup3\n      mstore\n      0x1f\n      dup2\n      mstore\n      0x20\n      add\n      dup1\n      0x5265656e7472616e637947756172643a207265656e7472616e742063616c6c00\n      dup2\n      mstore\n      pop\n      0x20\n      add\n      swap2\n      pop\n      pop\n      mload(0x40)\n      dup1\n      swap2\n      sub\n      swap1\n      revert\n    tag_242:\n        /* \"TEXOToken.sol\":21196:21197  2 */\n      0x02\n        /* \"TEXOToken.sol\":21915:21922  _status */\n      0x01\n        /* \"TEXOToken.sol\":21915:21933  _status = _ENTERED */\n      dup2\n      swap1\n      sstore\n      pop\n        /* \"TEXOToken.sol\":49805:49826  PoolInfo storage pool */\n      0x00\n        /* \"TEXOToken.sol\":49829:49837  poolInfo */\n      0x09\n        /* \"TEXOToken.sol\":49838:49842  _pid */\n      dup3\n        /* \"TEXOToken.sol\":49829:49843  poolInfo[_pid] */\n      dup2\n      sload\n      dup2\n      lt\n      tag_244\n      jumpi\n      invalid\n    tag_244:\n      swap1\n      0x00\n      mstore\n      keccak256(0x00, 0x20)\n      swap1\n      0x06\n      mul\n      add\n        /* \"TEXOToken.sol\":49805:49843  PoolInfo storage pool = poolInfo[_pid] */\n      swap1\n      pop\n        /* \"TEXOToken.sol\":49853:49874  UserInfo storage user */\n      0x00\n        /* \"TEXOToken.sol\":49877:49885  userInfo */\n      0x0a\n        /* \"TEXOToken.sol\":49877:49891  userInfo[_pid] */\n      0x00\n        /* \"TEXOToken.sol\":49886:49890  _pid */\n      dup5\n        /* \"TEXOToken.sol\":49877:49891  userInfo[_pid] */\n      dup2\n      mstore\n      0x20\n      add\n      swap1\n      dup2\n      mstore\n      0x20\n      add\n      0x00\n      keccak256\n        /* \"TEXOToken.sol\":49877:49903  userInfo[_pid][msg.sender] */\n      0x00\n        /* \"TEXOToken.sol\":49892:49902  msg.sender */\n      caller\n        /* \"TEXOToken.sol\":49877:49903  userInfo[_pid][msg.sender] */\n      0xffffffffffffffffffffffffffffffffffffffff\n      and\n      0xffffffffffffffffffffffffffffffffffffffff\n      and\n      dup2\n      mstore\n      0x20\n      add\n      swap1\n      dup2\n      mstore\n      0x20\n      add\n      0x00\n      keccak256\n        /* \"TEXOToken.sol\":49853:49903  UserInfo storage user = userInfo[_pid][msg.sender] */\n      swap1\n      pop\n        /* \"TEXOToken.sol\":49913:49972  pool.lpToken.safeTransfer(address(msg.sender), user.amount) */\n      tag_246\n        /* \"TEXOToken.sol\":49947:49957  msg.sender */\n      caller\n        /* \"TEXOToken.sol\":49960:49964  user */\n      dup3\n        /* \"TEXOToken.sol\":49960:49971  user.amount */\n      0x00\n      add\n      sload\n        /* \"TEXOToken.sol\":49913:49917  pool */\n      dup5\n        /* \"TEXOToken.sol\":49913:49925  pool.lpToken */\n      0x00\n      add\n      0x00\n      swap1\n      sload\n      swap1\n      0x0100\n      exp\n      swap1\n      div\n      0xffffffffffffffffffffffffffffffffffffffff\n      and\n        /* \"TEXOToken.sol\":49913:49938  pool.lpToken.safeTransfer */\n      0xffffffffffffffffffffffffffffffffffffffff\n      and\n      tag_213\n      swap1\n        /* \"TEXOToken.sol\":49913:49972  pool.lpToken.safeTransfer(address(msg.sender), user.amount) */\n      swap3\n      swap2\n      swap1\n      0xffffffff\n      and\n      jump\t// in\n    tag_246:\n        /* \"TEXOToken.sol\":50018:50022  _pid */\n      dup3\n        /* \"TEXOToken.sol\":50006:50016  msg.sender */\n      caller\n        /* \"TEXOToken.sol\":49988:50036  EmergencyWithdraw(msg.sender, _pid, user.amount) */\n      0xffffffffffffffffffffffffffffffffffffffff\n      and\n      0xbb757047c2b5f3974fe26b7c10f732e7bce710b0952a71082702781e62ae0595\n        /* \"TEXOToken.sol\":50024:50028  user */\n      dup4\n        /* \"TEXOToken.sol\":50024:50035  user.amount */\n      0x00\n      add\n      sload\n        /* \"TEXOToken.sol\":49988:50036  EmergencyWithdraw(msg.sender, _pid, user.amount) */\n      mload(0x40)\n      dup1\n      dup3\n      dup2\n      mstore\n      0x20\n      add\n      swap2\n      pop\n      pop\n      mload(0x40)\n      dup1\n      swap2\n      sub\n      swap1\n      log3\n        /* \"TEXOToken.sol\":50061:50062  0 */\n      0x00\n        /* \"TEXOToken.sol\":50047:50051  user */\n      dup2\n        /* \"TEXOToken.sol\":50047:50058  user.amount */\n      0x00\n      add\n        /* \"TEXOToken.sol\":50047:50062  user.amount = 0 */\n      dup2\n      swap1\n      sstore\n      pop\n        /* \"TEXOToken.sol\":50090:50091  0 */\n      0x00\n        /* \"TEXOToken.sol\":50072:50076  user */\n      dup2\n        /* \"TEXOToken.sol\":50072:50087  user.rewardDebt */\n      0x01\n      add\n        /* \"TEXOToken.sol\":50072:50091  user.rewardDebt = 0 */\n      dup2\n      swap1\n      sstore\n      pop\n        /* \"TEXOToken.sol\":50124:50129  false */\n      0x00\n        /* \"TEXOToken.sol\":50101:50105  user */\n      dup2\n        /* \"TEXOToken.sol\":50101:50121  user.isAlreadyStaked */\n      0x02\n      add\n      0x00\n        /* \"TEXOToken.sol\":50101:50129  user.isAlreadyStaked = false */\n      0x0100\n      exp\n      dup2\n      sload\n      dup2\n      0xff\n      mul\n      not\n      and\n      swap1\n      dup4\n      iszero\n      iszero\n      mul\n      or\n      swap1\n      sstore\n      pop\n        /* \"TEXOToken.sol\":21944:21945  _ */\n      pop\n      pop\n        /* \"TEXOToken.sol\":21153:21154  1 */\n      0x01\n        /* \"TEXOToken.sol\":22088:22095  _status */\n      dup1\n        /* \"TEXOToken.sol\":22088:22110  _status = _NOT_ENTERED */\n      dup2\n      swap1\n      sstore\n      pop\n        /* \"TEXOToken.sol\":49734:50136  function emergencyWithdraw(uint256 _pid) public nonReentrant {... */\n      pop\n      jump\t// out\n        /* \"TEXOToken.sol\":35644:35691  uint256 public blockToStartReducingEmissionRate */\n    tag_95:\n      sload(0x06)\n      dup2\n      jump\t// out\n        /* \"TEXOToken.sol\":36930:36988  uint256 public constant MINIMUM_EMISSION_RATE = 100 finney */\n    tag_97:\n        /* \"TEXOToken.sol\":36978:36988  100 finney */\n      0x016345785d8a0000\n        /* \"TEXOToken.sol\":36930:36988  uint256 public constant MINIMUM_EMISSION_RATE = 100 finney */\n      dup2\n      jump\t// out\n        /* \"TEXOToken.sol\":43410:43585  function massUpdatePools() public {... */\n    tag_99:\n        /* \"TEXOToken.sol\":43454:43468  uint256 length */\n      0x00\n        /* \"TEXOToken.sol\":43471:43479  poolInfo */\n      0x09\n        /* \"TEXOToken.sol\":43471:43486  poolInfo.length */\n      dup1\n      sload\n      swap1\n      pop\n        /* \"TEXOToken.sol\":43454:43486  uint256 length = poolInfo.length */\n      swap1\n      pop\n        /* \"TEXOToken.sol\":43501:43512  uint256 pid */\n      0x00\n        /* \"TEXOToken.sol\":43496:43579  for (uint256 pid = 0; pid < length; ++pid) {... */\n    tag_248:\n        /* \"TEXOToken.sol\":43524:43530  length */\n      dup2\n        /* \"TEXOToken.sol\":43518:43521  pid */\n      dup2\n        /* \"TEXOToken.sol\":43518:43530  pid < length */\n      lt\n        /* \"TEXOToken.sol\":43496:43579  for (uint256 pid = 0; pid < length; ++pid) {... */\n      iszero\n      tag_249\n      jumpi\n        /* \"TEXOToken.sol\":43553:43568  updatePool(pid) */\n      tag_251\n        /* \"TEXOToken.sol\":43564:43567  pid */\n      dup2\n        /* \"TEXOToken.sol\":43553:43563  updatePool */\n      tag_90\n        /* \"TEXOToken.sol\":43553:43568  updatePool(pid) */\n      jump\t// in\n    tag_251:\n        /* \"TEXOToken.sol\":43532:43537  ++pid */\n      dup1\n      0x01\n      add\n      swap1\n      pop\n        /* \"TEXOToken.sol\":43496:43579  for (uint256 pid = 0; pid < length; ++pid) {... */\n      jump(tag_248)\n    tag_249:\n      pop\n        /* \"TEXOToken.sol\":43410:43585  function massUpdatePools() public {... */\n      pop\n      jump\t// out\n        /* \"TEXOToken.sol\":54494:54941  function updateReferralBonusBp(uint256 _newRefBonusBp) public onlyOwner {... */\n    tag_102:\n        /* \"TEXOToken.sol\":11663:11675  _msgSender() */\n      tag_253\n        /* \"TEXOToken.sol\":11663:11673  _msgSender */\n      tag_184\n        /* \"TEXOToken.sol\":11663:11675  _msgSender() */\n      jump\t// in\n    tag_253:\n        /* \"TEXOToken.sol\":11653:11675  _owner == _msgSender() */\n      0xffffffffffffffffffffffffffffffffffffffff\n      and\n        /* \"TEXOToken.sol\":11653:11659  _owner */\n      0x00\n      dup1\n      sload\n      swap1\n      0x0100\n      exp\n      swap1\n      div\n      0xffffffffffffffffffffffffffffffffffffffff\n      and\n        /* \"TEXOToken.sol\":11653:11675  _owner == _msgSender() */\n      0xffffffffffffffffffffffffffffffffffffffff\n      and\n      eq\n        /* \"TEXOToken.sol\":11645:11712  require(_owner == _msgSender(), \"Ownable: caller is not the owner\") */\n      tag_254\n      jumpi\n      mload(0x40)\n      0x08c379a000000000000000000000000000000000000000000000000000000000\n      dup2\n      mstore\n      0x04\n      add\n      dup1\n      dup1\n      0x20\n      add\n      dup3\n      dup2\n      sub\n      dup3\n      mstore\n      0x20\n      dup2\n      mstore\n      0x20\n      add\n      dup1\n      0x4f776e61626c653a2063616c6c6572206973206e6f7420746865206f776e6572\n      dup2\n      mstore\n      pop\n      0x20\n      add\n      swap2\n      pop\n      pop\n      mload(0x40)\n      dup1\n      swap2\n      sub\n      swap1\n      revert\n    tag_254:\n        /* \"TEXOToken.sol\":36384:36388  2000 */\n      0x07d0\n        /* \"TEXOToken.sol\":54584:54621  _newRefBonusBp <= MAXIMUM_REFERRAL_BP */\n      0xffff\n      and\n        /* \"TEXOToken.sol\":54584:54598  _newRefBonusBp */\n      dup2\n        /* \"TEXOToken.sol\":54584:54621  _newRefBonusBp <= MAXIMUM_REFERRAL_BP */\n      gt\n      iszero\n        /* \"TEXOToken.sol\":54576:54684  require(_newRefBonusBp <= MAXIMUM_REFERRAL_BP, \"updateRefBonusPercent: invalid referral bonus basis points\") */\n      tag_256\n      jumpi\n      mload(0x40)\n      0x08c379a000000000000000000000000000000000000000000000000000000000\n      dup2\n      mstore\n      0x04\n      add\n      dup1\n      dup1\n      0x20\n      add\n      dup3\n      dup2\n      sub\n      dup3\n      mstore\n      0x3a\n      dup2\n      mstore\n      0x20\n      add\n      dup1\n      data_20a6bce988e8b6ff5852ac398e27735d1d8155a9d79e532ec3c3da13f504a6a4\n      0x3a\n      swap2\n      codecopy\n      0x40\n      add\n      swap2\n      pop\n      pop\n      mload(0x40)\n      dup1\n      swap2\n      sub\n      swap1\n      revert\n    tag_256:\n        /* \"TEXOToken.sol\":54720:54730  refBonusBP */\n      sload(0x0c)\n        /* \"TEXOToken.sol\":54702:54716  _newRefBonusBp */\n      dup2\n        /* \"TEXOToken.sol\":54702:54730  _newRefBonusBp != refBonusBP */\n      eq\n      iszero\n        /* \"TEXOToken.sol\":54694:54775  require(_newRefBonusBp != refBonusBP, \"updateRefBonusPercent: same bonus bp set\") */\n      tag_257\n      jumpi\n      mload(0x40)\n      0x08c379a000000000000000000000000000000000000000000000000000000000\n      dup2\n      mstore\n      0x04\n      add\n      dup1\n      dup1\n      0x20\n      add\n      dup3\n      dup2\n      sub\n      dup3\n      mstore\n      0x28\n      dup2\n      mstore\n      0x20\n      add\n      dup1\n      data_9d1a761c817eae8410d2081a433553cad78dcf01ebb754f58addc464260ba484\n      0x28\n      swap2\n      codecopy\n      0x40\n      add\n      swap2\n      pop\n      pop\n      mload(0x40)\n      dup1\n      swap2\n      sub\n      swap1\n      revert\n    tag_257:\n        /* \"TEXOToken.sol\":54785:54811  uint256 previousRefBonusBP */\n      0x00\n        /* \"TEXOToken.sol\":54814:54824  refBonusBP */\n      sload(0x0c)\n        /* \"TEXOToken.sol\":54785:54824  uint256 previousRefBonusBP = refBonusBP */\n      swap1\n      pop\n        /* \"TEXOToken.sol\":54847:54861  _newRefBonusBp */\n      dup2\n        /* \"TEXOToken.sol\":54834:54844  refBonusBP */\n      0x0c\n        /* \"TEXOToken.sol\":54834:54861  refBonusBP = _newRefBonusBp */\n      dup2\n      swap1\n      sstore\n      pop\n        /* \"TEXOToken.sol\":54876:54934  ReferralBonusBpChanged(previousRefBonusBP, _newRefBonusBp) */\n      0x3282b692bfebf5f35b198a229212cf532c72099026ab54c4b8665382d1086b3f\n        /* \"TEXOToken.sol\":54899:54917  previousRefBonusBP */\n      dup2\n        /* \"TEXOToken.sol\":54919:54933  _newRefBonusBp */\n      dup4\n        /* \"TEXOToken.sol\":54876:54934  ReferralBonusBpChanged(previousRefBonusBP, _newRefBonusBp) */\n      mload(0x40)\n      dup1\n      dup4\n      dup2\n      mstore\n      0x20\n      add\n      dup3\n      dup2\n      mstore\n      0x20\n      add\n      swap3\n      pop\n      pop\n      pop\n      mload(0x40)\n      dup1\n      swap2\n      sub\n      swap1\n      log1\n        /* \"TEXOToken.sol\":11722:11723  _ */\n      pop\n        /* \"TEXOToken.sol\":54494:54941  function updateReferralBonusBp(uint256 _newRefBonusBp) public onlyOwner {... */\n      pop\n      jump\t// out\n        /* \"TEXOToken.sol\":35499:35526  uint256 public tEXOPerBlock */\n    tag_104:\n      sload(0x04)\n      dup2\n      jump\t// out\n        /* \"TEXOToken.sol\":36173:36204  uint256 public refBonusBP = 100 */\n    tag_106:\n      sload(0x0c)\n      dup2\n      jump\t// out\n        /* \"TEXOToken.sol\":37290:37333  uint256 public lastReductionPeriodIndex = 0 */\n    tag_108:\n      sload(0x11)\n      dup2\n      jump\t// out\n        /* \"TEXOToken.sol\":12072:12209  function renounceOwnership() public onlyOwner {... */\n    tag_110:\n        /* \"TEXOToken.sol\":11663:11675  _msgSender() */\n      tag_259\n        /* \"TEXOToken.sol\":11663:11673  _msgSender */\n      tag_184\n        /* \"TEXOToken.sol\":11663:11675  _msgSender() */\n      jump\t// in\n    tag_259:\n        /* \"TEXOToken.sol\":11653:11675  _owner == _msgSender() */\n      0xffffffffffffffffffffffffffffffffffffffff\n      and\n        /* \"TEXOToken.sol\":11653:11659  _owner */\n      0x00\n      dup1\n      sload\n      swap1\n      0x0100\n      exp\n      swap1\n      div\n      0xffffffffffffffffffffffffffffffffffffffff\n      and\n        /* \"TEXOToken.sol\":11653:11675  _owner == _msgSender() */\n      0xffffffffffffffffffffffffffffffffffffffff\n      and\n      eq\n        /* \"TEXOToken.sol\":11645:11712  require(_owner == _msgSender(), \"Ownable: caller is not the owner\") */\n      tag_260\n      jumpi\n      mload(0x40)\n      0x08c379a000000000000000000000000000000000000000000000000000000000\n      dup2\n      mstore\n      0x04\n      add\n      dup1\n      dup1\n      0x20\n      add\n      dup3\n      dup2\n      sub\n      dup3\n      mstore\n      0x20\n      dup2\n      mstore\n      0x20\n      add\n      dup1\n      0x4f776e61626c653a2063616c6c6572206973206e6f7420746865206f776e6572\n      dup2\n      mstore\n      pop\n      0x20\n      add\n      swap2\n      pop\n      pop\n      mload(0x40)\n      dup1\n      swap2\n      sub\n      swap1\n      revert\n    tag_260:\n        /* \"TEXOToken.sol\":12170:12171  0 */\n      0x00\n        /* \"TEXOToken.sol\":12133:12173  OwnershipTransferred(_owner, address(0)) */\n      0xffffffffffffffffffffffffffffffffffffffff\n      and\n        /* \"TEXOToken.sol\":12154:12160  _owner */\n      0x00\n      dup1\n      sload\n      swap1\n      0x0100\n      exp\n      swap1\n      div\n      0xffffffffffffffffffffffffffffffffffffffff\n      and\n        /* \"TEXOToken.sol\":12133:12173  OwnershipTransferred(_owner, address(0)) */\n      0xffffffffffffffffffffffffffffffffffffffff\n      and\n      0x8be0079c531659141344cd1fd0a4f28419497f9722a3daafe3b4186f6b6457e0\n      mload(0x40)\n      mload(0x40)\n      dup1\n      swap2\n      sub\n      swap1\n      log3\n        /* \"TEXOToken.sol\":12200:12201  0 */\n      0x00\n        /* \"TEXOToken.sol\":12183:12189  _owner */\n      dup1\n      0x00\n        /* \"TEXOToken.sol\":12183:12202  _owner = address(0) */\n      0x0100\n      exp\n      dup2\n      sload\n      dup2\n      0xffffffffffffffffffffffffffffffffffffffff\n      mul\n      not\n      and\n      swap1\n      dup4\n      0xffffffffffffffffffffffffffffffffffffffff\n      and\n      mul\n      or\n      swap1\n      sstore\n      pop\n        /* \"TEXOToken.sol\":12072:12209  function renounceOwnership() public onlyOwner {... */\n      jump\t// out\n        /* \"TEXOToken.sol\":52879:53002  function setFlagAllowReduceEmissionRate(bool isAllow) public onlyOwner {... */\n    tag_113:\n        /* \"TEXOToken.sol\":11663:11675  _msgSender() */\n      tag_263\n        /* \"TEXOToken.sol\":11663:11673  _msgSender */\n      tag_184\n        /* \"TEXOToken.sol\":11663:11675  _msgSender() */\n      jump\t// in\n    tag_263:\n        /* \"TEXOToken.sol\":11653:11675  _owner == _msgSender() */\n      0xffffffffffffffffffffffffffffffffffffffff\n      and\n        /* \"TEXOToken.sol\":11653:11659  _owner */\n      0x00\n      dup1\n      sload\n      swap1\n      0x0100\n      exp\n      swap1\n      div\n      0xffffffffffffffffffffffffffffffffffffffff\n      and\n        /* \"TEXOToken.sol\":11653:11675  _owner == _msgSender() */\n      0xffffffffffffffffffffffffffffffffffffffff\n      and\n      eq\n        /* \"TEXOToken.sol\":11645:11712  require(_owner == _msgSender(), \"Ownable: caller is not the owner\") */\n      tag_264\n      jumpi\n      mload(0x40)\n      0x08c379a000000000000000000000000000000000000000000000000000000000\n      dup2\n      mstore\n      0x04\n      add\n      dup1\n      dup1\n      0x20\n      add\n      dup3\n      dup2\n      sub\n      dup3\n      mstore\n      0x20\n      dup2\n      mstore\n      0x20\n      add\n      dup1\n      0x4f776e61626c653a2063616c6c6572206973206e6f7420746865206f776e6572\n      dup2\n      mstore\n      pop\n      0x20\n      add\n      swap2\n      pop\n      pop\n      mload(0x40)\n      dup1\n      swap2\n      sub\n      swap1\n      revert\n    tag_264:\n        /* \"TEXOToken.sol\":52988:52995  isAllow */\n      dup1\n        /* \"TEXOToken.sol\":52960:52985  isAllowReduceEmissionRate */\n      0x12\n      0x00\n        /* \"TEXOToken.sol\":52960:52995  isAllowReduceEmissionRate = isAllow */\n      0x0100\n      exp\n      dup2\n      sload\n      dup2\n      0xff\n      mul\n      not\n      and\n      swap1\n      dup4\n      iszero\n      iszero\n      mul\n      or\n      swap1\n      sstore\n      pop\n        /* \"TEXOToken.sol\":52879:53002  function setFlagAllowReduceEmissionRate(bool isAllow) public onlyOwner {... */\n      pop\n      jump\t// out\n        /* \"TEXOToken.sol\":51033:51329  function setFeeAddress(address _feeAddress) public {... */\n    tag_116:\n        /* \"TEXOToken.sol\":51125:51126  0 */\n      0x00\n        /* \"TEXOToken.sol\":51102:51127  _feeAddress != address(0) */\n      0xffffffffffffffffffffffffffffffffffffffff\n      and\n        /* \"TEXOToken.sol\":51102:51113  _feeAddress */\n      dup2\n        /* \"TEXOToken.sol\":51102:51127  _feeAddress != address(0) */\n      0xffffffffffffffffffffffffffffffffffffffff\n      and\n      eq\n      iszero\n        /* \"TEXOToken.sol\":51094:51162  require(_feeAddress != address(0), \"setFeeAddress: invalid address\") */\n      tag_267\n      jumpi\n      mload(0x40)\n      0x08c379a000000000000000000000000000000000000000000000000000000000\n      dup2\n      mstore\n      0x04\n      add\n      dup1\n      dup1\n      0x20\n      add\n      dup3\n      dup2\n      sub\n      dup3\n      mstore\n      0x1e\n      dup2\n      mstore\n      0x20\n      add\n      dup1\n      0x736574466565416464726573733a20696e76616c696420616464726573730000\n      dup2\n      mstore\n      pop\n      0x20\n      add\n      swap2\n      pop\n      pop\n      mload(0x40)\n      dup1\n      swap2\n      sub\n      swap1\n      revert\n    tag_267:\n        /* \"TEXOToken.sol\":51194:51204  feeAddress */\n      0x05\n      0x00\n      swap1\n      sload\n      swap1\n      0x0100\n      exp\n      swap1\n      div\n      0xffffffffffffffffffffffffffffffffffffffff\n      and\n        /* \"TEXOToken.sol\":51180:51204  msg.sender == feeAddress */\n      0xffffffffffffffffffffffffffffffffffffffff\n      and\n        /* \"TEXOToken.sol\":51180:51190  msg.sender */\n      caller\n        /* \"TEXOToken.sol\":51180:51204  msg.sender == feeAddress */\n      0xffffffffffffffffffffffffffffffffffffffff\n      and\n      eq\n        /* \"TEXOToken.sol\":51172:51233  require(msg.sender == feeAddress, \"setFeeAddress: FORBIDDEN\") */\n      tag_268\n      jumpi\n      mload(0x40)\n      0x08c379a000000000000000000000000000000000000000000000000000000000\n      dup2\n      mstore\n      0x04\n      add\n      dup1\n      dup1\n      0x20\n      add\n      dup3\n      dup2\n      sub\n      dup3\n      mstore\n      0x18\n      dup2\n      mstore\n      0x20\n      add\n      dup1\n      0x736574466565416464726573733a20464f5242494444454e0000000000000000\n      dup2\n      mstore\n      pop\n      0x20\n      add\n      swap2\n      pop\n      pop\n      mload(0x40)\n      dup1\n      swap2\n      sub\n      swap1\n      revert\n    tag_268:\n        /* \"TEXOToken.sol\":51257:51268  _feeAddress */\n      dup1\n        /* \"TEXOToken.sol\":51244:51254  feeAddress */\n      0x05\n      0x00\n        /* \"TEXOToken.sol\":51244:51268  feeAddress = _feeAddress */\n      0x0100\n      exp\n      dup2\n      sload\n      dup2\n      0xffffffffffffffffffffffffffffffffffffffff\n      mul\n      not\n      and\n      swap1\n      dup4\n      0xffffffffffffffffffffffffffffffffffffffff\n      and\n      mul\n      or\n      swap1\n      sstore\n      pop\n        /* \"TEXOToken.sol\":51310:51321  _feeAddress */\n      dup1\n        /* \"TEXOToken.sol\":51284:51322  SetFeeAddress(msg.sender, _feeAddress) */\n      0xffffffffffffffffffffffffffffffffffffffff\n      and\n        /* \"TEXOToken.sol\":51298:51308  msg.sender */\n      caller\n        /* \"TEXOToken.sol\":51284:51322  SetFeeAddress(msg.sender, _feeAddress) */\n      0xffffffffffffffffffffffffffffffffffffffff\n      and\n      0xd44190acf9d04bdb5d3a1aafff7e6dee8b40b93dfb8c5d3f0eea4b9f4539c3f7\n      mload(0x40)\n      mload(0x40)\n      dup1\n      swap2\n      sub\n      swap1\n      log3\n        /* \"TEXOToken.sol\":51033:51329  function setFeeAddress(address _feeAddress) public {... */\n      pop\n      jump\t// out\n        /* \"TEXOToken.sol\":11449:11526  function owner() public view returns (address) {... */\n    tag_118:\n        /* \"TEXOToken.sol\":11487:11494  address */\n      0x00\n        /* \"TEXOToken.sol\":11513:11519  _owner */\n      dup1\n      0x00\n      swap1\n      sload\n      swap1\n      0x0100\n      exp\n      swap1\n      div\n      0xffffffffffffffffffffffffffffffffffffffff\n      and\n        /* \"TEXOToken.sol\":11506:11519  return _owner */\n      swap1\n      pop\n        /* \"TEXOToken.sol\":11449:11526  function owner() public view returns (address) {... */\n      swap1\n      jump\t// out\n        /* \"TEXOToken.sol\":42122:42241  function getMultiplier(uint256 _from, uint256 _to) public pure returns (uint256) {... */\n    tag_121:\n        /* \"TEXOToken.sol\":42194:42201  uint256 */\n      0x00\n        /* \"TEXOToken.sol\":42220:42234  _to.sub(_from) */\n      tag_271\n        /* \"TEXOToken.sol\":42228:42233  _from */\n      dup4\n        /* \"TEXOToken.sol\":42220:42223  _to */\n      dup4\n        /* \"TEXOToken.sol\":42220:42227  _to.sub */\n      tag_201\n      swap1\n        /* \"TEXOToken.sol\":42220:42234  _to.sub(_from) */\n      swap2\n      swap1\n      0xffffffff\n      and\n      jump\t// in\n    tag_271:\n        /* \"TEXOToken.sol\":42213:42234  return _to.sub(_from) */\n      swap1\n      pop\n        /* \"TEXOToken.sol\":42122:42241  function getMultiplier(uint256 _from, uint256 _to) public pure returns (uint256) {... */\n      swap3\n      swap2\n      pop\n      pop\n      jump\t// out\n        /* \"TEXOToken.sol\":46904:48661  function deposit(uint256 _pid, uint256 _amount, address _referrer) public nonReentrant {... */\n    tag_124:\n        /* \"TEXOToken.sol\":21196:21197  2 */\n      0x02\n        /* \"TEXOToken.sol\":21785:21792  _status */\n      sload(0x01)\n        /* \"TEXOToken.sol\":21785:21804  _status != _ENTERED */\n      eq\n      iszero\n        /* \"TEXOToken.sol\":21777:21840  require(_status != _ENTERED, \"ReentrancyGuard: reentrant call\") */\n      tag_273\n      jumpi\n      mload(0x40)\n      0x08c379a000000000000000000000000000000000000000000000000000000000\n      dup2\n      mstore\n      0x04\n      add\n      dup1\n      dup1\n      0x20\n      add\n      dup3\n      dup2\n      sub\n      dup3\n      mstore\n      0x1f\n      dup2\n      mstore\n      0x20\n      add\n      dup1\n      0x5265656e7472616e637947756172643a207265656e7472616e742063616c6c00\n      dup2\n      mstore\n      pop\n      0x20\n      add\n      swap2\n      pop\n      pop\n      mload(0x40)\n      dup1\n      swap2\n      sub\n      swap1\n      revert\n    tag_273:\n        /* \"TEXOToken.sol\":21196:21197  2 */\n      0x02\n        /* \"TEXOToken.sol\":21915:21922  _status */\n      0x01\n        /* \"TEXOToken.sol\":21915:21933  _status = _ENTERED */\n      dup2\n      swap1\n      sstore\n      pop\n        /* \"TEXOToken.sol\":47030:47039  _referrer */\n      dup1\n        /* \"TEXOToken.sol\":47009:47040  _referrer == address(_referrer) */\n      0xffffffffffffffffffffffffffffffffffffffff\n      and\n        /* \"TEXOToken.sol\":47009:47018  _referrer */\n      dup2\n        /* \"TEXOToken.sol\":47009:47040  _referrer == address(_referrer) */\n      0xffffffffffffffffffffffffffffffffffffffff\n      and\n      eq\n        /* \"TEXOToken.sol\":47001:47077  require(_referrer == address(_referrer),\"deposit: Invalid referrer address\") */\n      tag_275\n      jumpi\n      mload(0x40)\n      0x08c379a000000000000000000000000000000000000000000000000000000000\n      dup2\n      mstore\n      0x04\n      add\n      dup1\n      dup1\n      0x20\n      add\n      dup3\n      dup2\n      sub\n      dup3\n      mstore\n      0x21\n      dup2\n      mstore\n      0x20\n      add\n      dup1\n      data_542d191555ea619dedb1489efd71948659c57b11c6c1a84d1c1ce6e7c8074aad\n      0x21\n      swap2\n      codecopy\n      0x40\n      add\n      swap2\n      pop\n      pop\n      mload(0x40)\n      dup1\n      swap2\n      sub\n      swap1\n      revert\n    tag_275:\n        /* \"TEXOToken.sol\":47088:47109  PoolInfo storage pool */\n      0x00\n        /* \"TEXOToken.sol\":47112:47120  poolInfo */\n      0x09\n        /* \"TEXOToken.sol\":47121:47125  _pid */\n      dup5\n        /* \"TEXOToken.sol\":47112:47126  poolInfo[_pid] */\n      dup2\n      sload\n      dup2\n      lt\n      tag_276\n      jumpi\n      invalid\n    tag_276:\n      swap1\n      0x00\n      mstore\n      keccak256(0x00, 0x20)\n      swap1\n      0x06\n      mul\n      add\n        /* \"TEXOToken.sol\":47088:47126  PoolInfo storage pool = poolInfo[_pid] */\n      swap1\n      pop\n        /* \"TEXOToken.sol\":47136:47157  UserInfo storage user */\n      0x00\n        /* \"TEXOToken.sol\":47160:47168  userInfo */\n      0x0a\n        /* \"TEXOToken.sol\":47160:47174  userInfo[_pid] */\n      0x00\n        /* \"TEXOToken.sol\":47169:47173  _pid */\n      dup7\n        /* \"TEXOToken.sol\":47160:47174  userInfo[_pid] */\n      dup2\n      mstore\n      0x20\n      add\n      swap1\n      dup2\n      mstore\n      0x20\n      add\n      0x00\n      keccak256\n        /* \"TEXOToken.sol\":47160:47186  userInfo[_pid][msg.sender] */\n      0x00\n        /* \"TEXOToken.sol\":47175:47185  msg.sender */\n      caller\n        /* \"TEXOToken.sol\":47160:47186  userInfo[_pid][msg.sender] */\n      0xffffffffffffffffffffffffffffffffffffffff\n      and\n      0xffffffffffffffffffffffffffffffffffffffff\n      and\n      dup2\n      mstore\n      0x20\n      add\n      swap1\n      dup2\n      mstore\n      0x20\n      add\n      0x00\n      keccak256\n        /* \"TEXOToken.sol\":47136:47186  UserInfo storage user = userInfo[_pid][msg.sender] */\n      swap1\n      pop\n        /* \"TEXOToken.sol\":47197:47213  updatePool(_pid) */\n      tag_278\n        /* \"TEXOToken.sol\":47208:47212  _pid */\n      dup6\n        /* \"TEXOToken.sol\":47197:47207  updatePool */\n      tag_90\n        /* \"TEXOToken.sol\":47197:47213  updatePool(_pid) */\n      jump\t// in\n    tag_278:\n        /* \"TEXOToken.sol\":47242:47243  0 */\n      0x00\n        /* \"TEXOToken.sol\":47228:47232  user */\n      dup2\n        /* \"TEXOToken.sol\":47228:47239  user.amount */\n      0x00\n      add\n      sload\n        /* \"TEXOToken.sol\":47228:47243  user.amount > 0 */\n      gt\n        /* \"TEXOToken.sol\":47224:47778  if (user.amount > 0) {... */\n      iszero\n      tag_279\n      jumpi\n        /* \"TEXOToken.sol\":47259:47274  uint256 pending */\n      0x00\n        /* \"TEXOToken.sol\":47277:47396  user.amount... */\n      tag_280\n        /* \"TEXOToken.sol\":47380:47384  user */\n      dup3\n        /* \"TEXOToken.sol\":47380:47395  user.rewardDebt */\n      0x01\n      add\n      sload\n        /* \"TEXOToken.sol\":47277:47358  user.amount... */\n      tag_281\n        /* \"TEXOToken.sol\":47353:47357  1e12 */\n      0xe8d4a51000\n        /* \"TEXOToken.sol\":47277:47331  user.amount... */\n      tag_282\n        /* \"TEXOToken.sol\":47310:47314  pool */\n      dup8\n        /* \"TEXOToken.sol\":47310:47330  pool.accTEXOPerShare */\n      0x04\n      add\n      sload\n        /* \"TEXOToken.sol\":47277:47281  user */\n      dup8\n        /* \"TEXOToken.sol\":47277:47288  user.amount */\n      0x00\n      add\n      sload\n        /* \"TEXOToken.sol\":47277:47309  user.amount... */\n      tag_199\n      swap1\n        /* \"TEXOToken.sol\":47277:47331  user.amount... */\n      swap2\n      swap1\n      0xffffffff\n      and\n      jump\t// in\n    tag_282:\n        /* \"TEXOToken.sol\":47277:47352  user.amount... */\n      tag_200\n      swap1\n        /* \"TEXOToken.sol\":47277:47358  user.amount... */\n      swap2\n      swap1\n      0xffffffff\n      and\n      jump\t// in\n    tag_281:\n        /* \"TEXOToken.sol\":47277:47379  user.amount... */\n      tag_201\n      swap1\n        /* \"TEXOToken.sol\":47277:47396  user.amount... */\n      swap2\n      swap1\n      0xffffffff\n      and\n      jump\t// in\n    tag_280:\n        /* \"TEXOToken.sol\":47259:47396  uint256 pending = user.amount... */\n      swap1\n      pop\n        /* \"TEXOToken.sol\":47415:47435  bool canWithdrawTEXO */\n      0x00\n        /* \"TEXOToken.sol\":47438:47461  canWithdrawReward(_pid) */\n      tag_283\n        /* \"TEXOToken.sol\":47456:47460  _pid */\n      dup8\n        /* \"TEXOToken.sol\":47438:47455  canWithdrawReward */\n      tag_147\n        /* \"TEXOToken.sol\":47438:47461  canWithdrawReward(_pid) */\n      jump\t// in\n    tag_283:\n        /* \"TEXOToken.sol\":47415:47461  bool canWithdrawTEXO = canWithdrawReward(_pid) */\n      swap1\n      pop\n        /* \"TEXOToken.sol\":47480:47495  canWithdrawTEXO */\n      dup1\n        /* \"TEXOToken.sol\":47480:47510  canWithdrawTEXO && pending > 0 */\n      dup1\n      iszero\n      tag_284\n      jumpi\n      pop\n        /* \"TEXOToken.sol\":47509:47510  0 */\n      0x00\n        /* \"TEXOToken.sol\":47499:47506  pending */\n      dup3\n        /* \"TEXOToken.sol\":47499:47510  pending > 0 */\n      gt\n        /* \"TEXOToken.sol\":47480:47510  canWithdrawTEXO && pending > 0 */\n    tag_284:\n        /* \"TEXOToken.sol\":47476:47768  if (canWithdrawTEXO && pending > 0) {... */\n      iszero\n      tag_285\n      jumpi\n        /* \"TEXOToken.sol\":47530:47567  safeTEXOTransfer(msg.sender, pending) */\n      tag_286\n        /* \"TEXOToken.sol\":47547:47557  msg.sender */\n      caller\n        /* \"TEXOToken.sol\":47559:47566  pending */\n      dup4\n        /* \"TEXOToken.sol\":47530:47546  safeTEXOTransfer */\n      tag_205\n        /* \"TEXOToken.sol\":47530:47567  safeTEXOTransfer(msg.sender, pending) */\n      jump\t// in\n    tag_286:\n        /* \"TEXOToken.sol\":47585:47627  payReferralCommission(msg.sender, pending) */\n      tag_287\n        /* \"TEXOToken.sol\":47607:47617  msg.sender */\n      caller\n        /* \"TEXOToken.sol\":47619:47626  pending */\n      dup4\n        /* \"TEXOToken.sol\":47585:47606  payReferralCommission */\n      tag_207\n        /* \"TEXOToken.sol\":47585:47627  payReferralCommission(msg.sender, pending) */\n      jump\t// in\n    tag_287:\n        /* \"TEXOToken.sol\":47664:47753  user.amount... */\n      tag_288\n        /* \"TEXOToken.sol\":47748:47752  1e12 */\n      0xe8d4a51000\n        /* \"TEXOToken.sol\":47664:47722  user.amount... */\n      tag_289\n        /* \"TEXOToken.sol\":47701:47705  pool */\n      dup7\n        /* \"TEXOToken.sol\":47701:47721  pool.accTEXOPerShare */\n      0x04\n      add\n      sload\n        /* \"TEXOToken.sol\":47664:47668  user */\n      dup7\n        /* \"TEXOToken.sol\":47664:47675  user.amount */\n      0x00\n      add\n      sload\n        /* \"TEXOToken.sol\":47664:47700  user.amount... */\n      tag_199\n      swap1\n        /* \"TEXOToken.sol\":47664:47722  user.amount... */\n      swap2\n      swap1\n      0xffffffff\n      and\n      jump\t// in\n    tag_289:\n        /* \"TEXOToken.sol\":47664:47747  user.amount... */\n      tag_200\n      swap1\n        /* \"TEXOToken.sol\":47664:47753  user.amount... */\n      swap2\n      swap1\n      0xffffffff\n      and\n      jump\t// in\n    tag_288:\n        /* \"TEXOToken.sol\":47646:47650  user */\n      dup4\n        /* \"TEXOToken.sol\":47646:47661  user.rewardDebt */\n      0x01\n      add\n        /* \"TEXOToken.sol\":47646:47753  user.rewardDebt = user.amount... */\n      dup2\n      swap1\n      sstore\n      pop\n        /* \"TEXOToken.sol\":47476:47768  if (canWithdrawTEXO && pending > 0) {... */\n    tag_285:\n        /* \"TEXOToken.sol\":47224:47778  if (user.amount > 0) {... */\n      pop\n      pop\n    tag_279:\n        /* \"TEXOToken.sol\":47802:47803  0 */\n      0x00\n        /* \"TEXOToken.sol\":47792:47799  _amount */\n      dup5\n        /* \"TEXOToken.sol\":47792:47803  _amount > 0 */\n      gt\n        /* \"TEXOToken.sol\":47788:48390  if (_amount > 0) {... */\n      iszero\n      tag_290\n      jumpi\n        /* \"TEXOToken.sol\":47819:47853  setReferral(msg.sender, _referrer) */\n      tag_291\n        /* \"TEXOToken.sol\":47831:47841  msg.sender */\n      caller\n        /* \"TEXOToken.sol\":47843:47852  _referrer */\n      dup5\n        /* \"TEXOToken.sol\":47819:47830  setReferral */\n      tag_292\n        /* \"TEXOToken.sol\":47819:47853  setReferral(msg.sender, _referrer) */\n      jump\t// in\n    tag_291:\n        /* \"TEXOToken.sol\":47867:47941  pool.lpToken.safeTransferFrom(address(msg.sender), address(this), _amount) */\n      tag_293\n        /* \"TEXOToken.sol\":47905:47915  msg.sender */\n      caller\n        /* \"TEXOToken.sol\":47926:47930  this */\n      address\n        /* \"TEXOToken.sol\":47933:47940  _amount */\n      dup7\n        /* \"TEXOToken.sol\":47867:47871  pool */\n      dup6\n        /* \"TEXOToken.sol\":47867:47879  pool.lpToken */\n      0x00\n      add\n      0x00\n      swap1\n      sload\n      swap1\n      0x0100\n      exp\n      swap1\n      div\n      0xffffffffffffffffffffffffffffffffffffffff\n      and\n        /* \"TEXOToken.sol\":47867:47896  pool.lpToken.safeTransferFrom */\n      0xffffffffffffffffffffffffffffffffffffffff\n      and\n      tag_294\n      swap1\n        /* \"TEXOToken.sol\":47867:47941  pool.lpToken.safeTransferFrom(address(msg.sender), address(this), _amount) */\n      swap4\n      swap3\n      swap2\n      swap1\n      0xffffffff\n      and\n      jump\t// in\n    tag_293:\n        /* \"TEXOToken.sol\":47980:47981  0 */\n      0x00\n        /* \"TEXOToken.sol\":47960:47964  pool */\n      dup3\n        /* \"TEXOToken.sol\":47960:47977  pool.depositFeeBP */\n      0x05\n      add\n      0x00\n      swap1\n      sload\n      swap1\n      0x0100\n      exp\n      swap1\n      div\n      0xffff\n      and\n        /* \"TEXOToken.sol\":47960:47981  pool.depositFeeBP > 0 */\n      0xffff\n      and\n      gt\n        /* \"TEXOToken.sol\":47956:48380  if (pool.depositFeeBP > 0) {... */\n      iszero\n      tag_295\n      jumpi\n        /* \"TEXOToken.sol\":48001:48019  uint256 depositFee */\n      0x00\n        /* \"TEXOToken.sol\":48022:48105  _amount... */\n      tag_296\n        /* \"TEXOToken.sol\":48099:48104  10000 */\n      0x2710\n        /* \"TEXOToken.sol\":48022:48073  _amount... */\n      tag_297\n        /* \"TEXOToken.sol\":48055:48059  pool */\n      dup6\n        /* \"TEXOToken.sol\":48055:48072  pool.depositFeeBP */\n      0x05\n      add\n      0x00\n      swap1\n      sload\n      swap1\n      0x0100\n      exp\n      swap1\n      div\n      0xffff\n      and\n        /* \"TEXOToken.sol\":48022:48073  _amount... */\n      0xffff\n      and\n        /* \"TEXOToken.sol\":48022:48029  _amount */\n      dup9\n        /* \"TEXOToken.sol\":48022:48054  _amount... */\n      tag_199\n      swap1\n        /* \"TEXOToken.sol\":48022:48073  _amount... */\n      swap2\n      swap1\n      0xffffffff\n      and\n      jump\t// in\n    tag_297:\n        /* \"TEXOToken.sol\":48022:48098  _amount... */\n      tag_200\n      swap1\n        /* \"TEXOToken.sol\":48022:48105  _amount... */\n      swap2\n      swap1\n      0xffffffff\n      and\n      jump\t// in\n    tag_296:\n        /* \"TEXOToken.sol\":48001:48105  uint256 depositFee = _amount... */\n      swap1\n      pop\n        /* \"TEXOToken.sol\":48138:48220  user.amount... */\n      tag_298\n        /* \"TEXOToken.sol\":48209:48219  depositFee */\n      dup2\n        /* \"TEXOToken.sol\":48138:48183  user.amount... */\n      tag_299\n        /* \"TEXOToken.sol\":48175:48182  _amount */\n      dup8\n        /* \"TEXOToken.sol\":48138:48142  user */\n      dup6\n        /* \"TEXOToken.sol\":48138:48149  user.amount */\n      0x00\n      add\n      sload\n        /* \"TEXOToken.sol\":48138:48174  user.amount... */\n      tag_240\n      swap1\n        /* \"TEXOToken.sol\":48138:48183  user.amount... */\n      swap2\n      swap1\n      0xffffffff\n      and\n      jump\t// in\n    tag_299:\n        /* \"TEXOToken.sol\":48138:48208  user.amount... */\n      tag_201\n      swap1\n        /* \"TEXOToken.sol\":48138:48220  user.amount... */\n      swap2\n      swap1\n      0xffffffff\n      and\n      jump\t// in\n    tag_298:\n        /* \"TEXOToken.sol\":48124:48128  user */\n      dup3\n        /* \"TEXOToken.sol\":48124:48135  user.amount */\n      0x00\n      add\n        /* \"TEXOToken.sol\":48124:48220  user.amount = user.amount... */\n      dup2\n      swap1\n      sstore\n      pop\n        /* \"TEXOToken.sol\":48239:48288  pool.lpToken.safeTransfer(feeAddress, depositFee) */\n      tag_300\n        /* \"TEXOToken.sol\":48265:48275  feeAddress */\n      0x05\n      0x00\n      swap1\n      sload\n      swap1\n      0x0100\n      exp\n      swap1\n      div\n      0xffffffffffffffffffffffffffffffffffffffff\n      and\n        /* \"TEXOToken.sol\":48277:48287  depositFee */\n      dup3\n        /* \"TEXOToken.sol\":48239:48243  pool */\n      dup6\n        /* \"TEXOToken.sol\":48239:48251  pool.lpToken */\n      0x00\n      add\n      0x00\n      swap1\n      sload\n      swap1\n      0x0100\n      exp\n      swap1\n      div\n      0xffffffffffffffffffffffffffffffffffffffff\n      and\n        /* \"TEXOToken.sol\":48239:48264  pool.lpToken.safeTransfer */\n      0xffffffffffffffffffffffffffffffffffffffff\n      and\n      tag_213\n      swap1\n        /* \"TEXOToken.sol\":48239:48288  pool.lpToken.safeTransfer(feeAddress, depositFee) */\n      swap3\n      swap2\n      swap1\n      0xffffffff\n      and\n      jump\t// in\n    tag_300:\n        /* \"TEXOToken.sol\":47956:48380  if (pool.depositFeeBP > 0) {... */\n      pop\n      jump(tag_301)\n    tag_295:\n        /* \"TEXOToken.sol\":48341:48365  user.amount.add(_amount) */\n      tag_302\n        /* \"TEXOToken.sol\":48357:48364  _amount */\n      dup5\n        /* \"TEXOToken.sol\":48341:48345  user */\n      dup3\n        /* \"TEXOToken.sol\":48341:48352  user.amount */\n      0x00\n      add\n      sload\n        /* \"TEXOToken.sol\":48341:48356  user.amount.add */\n      tag_240\n      swap1\n        /* \"TEXOToken.sol\":48341:48365  user.amount.add(_amount) */\n      swap2\n      swap1\n      0xffffffff\n      and\n      jump\t// in\n    tag_302:\n        /* \"TEXOToken.sol\":48327:48331  user */\n      dup2\n        /* \"TEXOToken.sol\":48327:48338  user.amount */\n      0x00\n      add\n        /* \"TEXOToken.sol\":48327:48365  user.amount = user.amount.add(_amount) */\n      dup2\n      swap1\n      sstore\n      pop\n        /* \"TEXOToken.sol\":47956:48380  if (pool.depositFeeBP > 0) {... */\n    tag_301:\n        /* \"TEXOToken.sol\":47788:48390  if (_amount > 0) {... */\n    tag_290:\n        /* \"TEXOToken.sol\":48405:48409  user */\n      dup1\n        /* \"TEXOToken.sol\":48405:48425  user.isAlreadyStaked */\n      0x02\n      add\n      0x00\n      swap1\n      sload\n      swap1\n      0x0100\n      exp\n      swap1\n      div\n      0xff\n      and\n        /* \"TEXOToken.sol\":48400:48605  if (!user.isAlreadyStaked) {... */\n      tag_303\n      jumpi\n        /* \"TEXOToken.sol\":48459:48540  user.amount... */\n      tag_304\n        /* \"TEXOToken.sol\":48535:48539  1e12 */\n      0xe8d4a51000\n        /* \"TEXOToken.sol\":48459:48513  user.amount... */\n      tag_305\n        /* \"TEXOToken.sol\":48492:48496  pool */\n      dup5\n        /* \"TEXOToken.sol\":48492:48512  pool.accTEXOPerShare */\n      0x04\n      add\n      sload\n        /* \"TEXOToken.sol\":48459:48463  user */\n      dup5\n        /* \"TEXOToken.sol\":48459:48470  user.amount */\n      0x00\n      add\n      sload\n        /* \"TEXOToken.sol\":48459:48491  user.amount... */\n      tag_199\n      swap1\n        /* \"TEXOToken.sol\":48459:48513  user.amount... */\n      swap2\n      swap1\n      0xffffffff\n      and\n      jump\t// in\n    tag_305:\n        /* \"TEXOToken.sol\":48459:48534  user.amount... */\n      tag_200\n      swap1\n        /* \"TEXOToken.sol\":48459:48540  user.amount... */\n      swap2\n      swap1\n      0xffffffff\n      and\n      jump\t// in\n    tag_304:\n        /* \"TEXOToken.sol\":48441:48445  user */\n      dup2\n        /* \"TEXOToken.sol\":48441:48456  user.rewardDebt */\n      0x01\n      add\n        /* \"TEXOToken.sol\":48441:48540  user.rewardDebt = user.amount... */\n      dup2\n      swap1\n      sstore\n      pop\n        /* \"TEXOToken.sol\":48590:48594  true */\n      0x01\n        /* \"TEXOToken.sol\":48567:48571  user */\n      dup2\n        /* \"TEXOToken.sol\":48567:48587  user.isAlreadyStaked */\n      0x02\n      add\n      0x00\n        /* \"TEXOToken.sol\":48567:48594  user.isAlreadyStaked = true */\n      0x0100\n      exp\n      dup2\n      sload\n      dup2\n      0xff\n      mul\n      not\n      and\n      swap1\n      dup4\n      iszero\n      iszero\n      mul\n      or\n      swap1\n      sstore\n      pop\n        /* \"TEXOToken.sol\":48400:48605  if (!user.isAlreadyStaked) {... */\n    tag_303:\n        /* \"TEXOToken.sol\":48640:48644  _pid */\n      dup5\n        /* \"TEXOToken.sol\":48628:48638  msg.sender */\n      caller\n        /* \"TEXOToken.sol\":48620:48654  Deposit(msg.sender, _pid, _amount) */\n      0xffffffffffffffffffffffffffffffffffffffff\n      and\n      0x90890809c654f11d6e72a28fa60149770a0d11ec6c92319d6ceb2bb0a4ea1a15\n        /* \"TEXOToken.sol\":48646:48653  _amount */\n      dup7\n        /* \"TEXOToken.sol\":48620:48654  Deposit(msg.sender, _pid, _amount) */\n      mload(0x40)\n      dup1\n      dup3\n      dup2\n      mstore\n      0x20\n      add\n      swap2\n      pop\n      pop\n      mload(0x40)\n      dup1\n      swap2\n      sub\n      swap1\n      log3\n        /* \"TEXOToken.sol\":21944:21945  _ */\n      pop\n      pop\n        /* \"TEXOToken.sol\":21153:21154  1 */\n      0x01\n        /* \"TEXOToken.sol\":22088:22095  _status */\n      dup1\n        /* \"TEXOToken.sol\":22088:22110  _status = _NOT_ENTERED */\n      dup2\n      swap1\n      sstore\n      pop\n        /* \"TEXOToken.sol\":46904:48661  function deposit(uint256 _pid, uint256 _amount, address _referrer) public nonReentrant {... */\n      pop\n      pop\n      pop\n      jump\t// out\n        /* \"TEXOToken.sol\":36815:36873  uint256 public constant INITIAL_EMISSION_RATE = 500 finney */\n    tag_126:\n        /* \"TEXOToken.sol\":36863:36873  500 finney */\n      0x06f05b59d3b20000\n        /* \"TEXOToken.sol\":36815:36873  uint256 public constant INITIAL_EMISSION_RATE = 500 finney */\n      dup2\n      jump\t// out\n        /* \"TEXOToken.sol\":35917:35981  mapping(uint256 => mapping(address => UserInfo)) public userInfo */\n    tag_129:\n      mstore(0x20, 0x0a)\n      dup2\n      0x00\n      mstore\n      mstore(0x20, keccak256(0x00, 0x40))\n      dup1\n      0x00\n      mstore\n      keccak256(0x00, 0x40)\n      0x00\n      swap2\n      pop\n      swap2\n      pop\n      pop\n      dup1\n      0x00\n      add\n      sload\n      swap1\n      dup1\n      0x01\n      add\n      sload\n      swap1\n      dup1\n      0x02\n      add\n      0x00\n      swap1\n      sload\n      swap1\n      0x0100\n      exp\n      swap1\n      div\n      0xff\n      and\n      swap1\n      pop\n      dup4\n      jump\t// out\n        /* \"TEXOToken.sol\":36239:36291  uint16 public constant MAXIMUM_DEPOSIT_FEE_BP = 1000 */\n    tag_131:\n        /* \"TEXOToken.sol\":36287:36291  1000 */\n      0x03e8\n        /* \"TEXOToken.sol\":36239:36291  uint16 public constant MAXIMUM_DEPOSIT_FEE_BP = 1000 */\n      dup2\n      jump\t// out\n        /* \"TEXOToken.sol\":36706:36758  mapping(IBEP20 => uint256) public poolIdForLpAddress */\n    tag_134:\n      mstore(0x20, 0x10)\n      dup1\n      0x00\n      mstore\n      keccak256(0x00, 0x40)\n      0x00\n      swap2\n      pop\n      swap1\n      pop\n      sload\n      dup2\n      jump\t// out\n        /* \"TEXOToken.sol\":35698:35747  uint256 public globalBlockToUnlockClaimingRewards */\n    tag_136:\n      sload(0x07)\n      dup2\n      jump\t// out\n        /* \"TEXOToken.sol\":53008:53289  function setEmissionRate(uint256 newEmissionRate) public onlyOwner {... */\n    tag_139:\n        /* \"TEXOToken.sol\":11663:11675  _msgSender() */\n      tag_307\n        /* \"TEXOToken.sol\":11663:11673  _msgSender */\n      tag_184\n        /* \"TEXOToken.sol\":11663:11675  _msgSender() */\n      jump\t// in\n    tag_307:\n        /* \"TEXOToken.sol\":11653:11675  _owner == _msgSender() */\n      0xffffffffffffffffffffffffffffffffffffffff\n      and\n        /* \"TEXOToken.sol\":11653:11659  _owner */\n      0x00\n      dup1\n      sload\n      swap1\n      0x0100\n      exp\n      swap1\n      div\n      0xffffffffffffffffffffffffffffffffffffffff\n      and\n        /* \"TEXOToken.sol\":11653:11675  _owner == _msgSender() */\n      0xffffffffffffffffffffffffffffffffffffffff\n      and\n      eq\n        /* \"TEXOToken.sol\":11645:11712  require(_owner == _msgSender(), \"Ownable: caller is not the owner\") */\n      tag_308\n      jumpi\n      mload(0x40)\n      0x08c379a000000000000000000000000000000000000000000000000000000000\n      dup2\n      mstore\n      0x04\n      add\n      dup1\n      dup1\n      0x20\n      add\n      dup3\n      dup2\n      sub\n      dup3\n      mstore\n      0x20\n      dup2\n      mstore\n      0x20\n      add\n      dup1\n      0x4f776e61626c653a2063616c6c6572206973206e6f7420746865206f776e6572\n      dup2\n      mstore\n      pop\n      0x20\n      add\n      swap2\n      pop\n      pop\n      mload(0x40)\n      dup1\n      swap2\n      sub\n      swap1\n      revert\n    tag_308:\n        /* \"TEXOToken.sol\":53085:53113  uint256 previousEmissionRate */\n      0x00\n        /* \"TEXOToken.sol\":53116:53128  tEXOPerBlock */\n      sload(0x04)\n        /* \"TEXOToken.sol\":53085:53128  uint256 previousEmissionRate = tEXOPerBlock */\n      swap1\n      pop\n        /* \"TEXOToken.sol\":53153:53168  newEmissionRate */\n      dup2\n        /* \"TEXOToken.sol\":53138:53150  tEXOPerBlock */\n      0x04\n        /* \"TEXOToken.sol\":53138:53168  tEXOPerBlock = newEmissionRate */\n      dup2\n      swap1\n      sstore\n      pop\n        /* \"TEXOToken.sol\":53179:53196  massUpdatePools() */\n      tag_310\n        /* \"TEXOToken.sol\":53179:53194  massUpdatePools */\n      tag_99\n        /* \"TEXOToken.sol\":53179:53196  massUpdatePools() */\n      jump\t// in\n    tag_310:\n        /* \"TEXOToken.sol\":53232:53242  msg.sender */\n      caller\n        /* \"TEXOToken.sol\":53212:53282  EmissionRateUpdated(msg.sender, previousEmissionRate, newEmissionRate) */\n      0xffffffffffffffffffffffffffffffffffffffff\n      and\n      0xeedc6338c9c1ad8f3cd6c90dd09dbe98dbd57e610d3e59a17996d07acb0d9511\n        /* \"TEXOToken.sol\":53244:53264  previousEmissionRate */\n      dup3\n        /* \"TEXOToken.sol\":53266:53281  newEmissionRate */\n      dup5\n        /* \"TEXOToken.sol\":53212:53282  EmissionRateUpdated(msg.sender, previousEmissionRate, newEmissionRate) */\n      mload(0x40)\n      dup1\n      dup4\n      dup2\n      mstore\n      0x20\n      add\n      dup3\n      dup2\n      mstore\n      0x20\n      add\n      swap3\n      pop\n      pop\n      pop\n      mload(0x40)\n      dup1\n      swap2\n      sub\n      swap1\n      log2\n        /* \"TEXOToken.sol\":11722:11723  _ */\n      pop\n        /* \"TEXOToken.sol\":53008:53289  function setEmissionRate(uint256 newEmissionRate) public onlyOwner {... */\n      pop\n      jump\t// out\n        /* \"TEXOToken.sol\":35386:35407  TEXOToken public tEXO */\n    tag_141:\n      0x02\n      0x00\n      swap1\n      sload\n      swap1\n      0x0100\n      exp\n      swap1\n      div\n      0xffffffffffffffffffffffffffffffffffffffff\n      and\n      dup2\n      jump\t// out\n        /* \"TEXOToken.sol\":39193:39420  function setGlobalBlockToUnlockClaimingRewards(uint256 _blockCountToUnlockClaimingRewardsFromNow) external onlyOwner {... */\n    tag_144:\n        /* \"TEXOToken.sol\":11663:11675  _msgSender() */\n      tag_312\n        /* \"TEXOToken.sol\":11663:11673  _msgSender */\n      tag_184\n        /* \"TEXOToken.sol\":11663:11675  _msgSender() */\n      jump\t// in\n    tag_312:\n        /* \"TEXOToken.sol\":11653:11675  _owner == _msgSender() */\n      0xffffffffffffffffffffffffffffffffffffffff\n      and\n        /* \"TEXOToken.sol\":11653:11659  _owner */\n      0x00\n      dup1\n      sload\n      swap1\n      0x0100\n      exp\n      swap1\n      div\n      0xffffffffffffffffffffffffffffffffffffffff\n      and\n        /* \"TEXOToken.sol\":11653:11675  _owner == _msgSender() */\n      0xffffffffffffffffffffffffffffffffffffffff\n      and\n      eq\n        /* \"TEXOToken.sol\":11645:11712  require(_owner == _msgSender(), \"Ownable: caller is not the owner\") */\n      tag_313\n      jumpi\n      mload(0x40)\n      0x08c379a000000000000000000000000000000000000000000000000000000000\n      dup2\n      mstore\n      0x04\n      add\n      dup1\n      dup1\n      0x20\n      add\n      dup3\n      dup2\n      sub\n      dup3\n      mstore\n      0x20\n      dup2\n      mstore\n      0x20\n      add\n      dup1\n      0x4f776e61626c653a2063616c6c6572206973206e6f7420746865206f776e6572\n      dup2\n      mstore\n      pop\n      0x20\n      add\n      swap2\n      pop\n      pop\n      mload(0x40)\n      dup1\n      swap2\n      sub\n      swap1\n      revert\n    tag_313:\n        /* \"TEXOToken.sol\":39372:39413  _blockCountToUnlockClaimingRewardsFromNow */\n      dup1\n        /* \"TEXOToken.sol\":39357:39369  block.number */\n      number\n        /* \"TEXOToken.sol\":39357:39413  block.number + _blockCountToUnlockClaimingRewardsFromNow */\n      add\n        /* \"TEXOToken.sol\":39320:39354  globalBlockToUnlockClaimingRewards */\n      0x07\n        /* \"TEXOToken.sol\":39320:39413  globalBlockToUnlockClaimingRewards = block.number + _blockCountToUnlockClaimingRewardsFromNow */\n      dup2\n      swap1\n      sstore\n      pop\n        /* \"TEXOToken.sol\":39193:39420  function setGlobalBlockToUnlockClaimingRewards(uint256 _blockCountToUnlockClaimingRewardsFromNow) external onlyOwner {... */\n      pop\n      jump\t// out\n        /* \"TEXOToken.sol\":45037:45219  function canWithdrawReward(uint256 _pid) public view returns (bool) {... */\n    tag_147:\n        /* \"TEXOToken.sol\":45099:45103  bool */\n      0x00\n        /* \"TEXOToken.sol\":45115:45136  PoolInfo storage pool */\n      dup1\n        /* \"TEXOToken.sol\":45139:45147  poolInfo */\n      0x09\n        /* \"TEXOToken.sol\":45148:45152  _pid */\n      dup4\n        /* \"TEXOToken.sol\":45139:45153  poolInfo[_pid] */\n      dup2\n      sload\n      dup2\n      lt\n      tag_316\n      jumpi\n      invalid\n    tag_316:\n      swap1\n      0x00\n      mstore\n      keccak256(0x00, 0x20)\n      swap1\n      0x06\n      mul\n      add\n        /* \"TEXOToken.sol\":45115:45153  PoolInfo storage pool = poolInfo[_pid] */\n      swap1\n      pop\n        /* \"TEXOToken.sol\":45200:45212  block.number */\n      number\n        /* \"TEXOToken.sol\":45171:45175  pool */\n      dup2\n        /* \"TEXOToken.sol\":45171:45196  pool.blockToReceiveReward */\n      0x02\n      add\n      sload\n        /* \"TEXOToken.sol\":45171:45212  pool.blockToReceiveReward <= block.number */\n      gt\n      iszero\n        /* \"TEXOToken.sol\":45164:45212  return pool.blockToReceiveReward <= block.number */\n      swap2\n      pop\n      pop\n        /* \"TEXOToken.sol\":45037:45219  function canWithdrawReward(uint256 _pid) public view returns (bool) {... */\n      swap2\n      swap1\n      pop\n      jump\t// out\n        /* \"TEXOToken.sol\":37184:37249  uint256 public constant EMISSION_REDUCTION_RATE_PER_PERIOD = 1500 */\n    tag_149:\n        /* \"TEXOToken.sol\":37245:37249  1500 */\n      0x05dc\n        /* \"TEXOToken.sol\":37184:37249  uint256 public constant EMISSION_REDUCTION_RATE_PER_PERIOD = 1500 */\n      dup2\n      jump\t// out\n        /* \"TEXOToken.sol\":41171:42049  function set(... */\n    tag_152:\n        /* \"TEXOToken.sol\":11663:11675  _msgSender() */\n      tag_319\n        /* \"TEXOToken.sol\":11663:11673  _msgSender */\n      tag_184\n        /* \"TEXOToken.sol\":11663:11675  _msgSender() */\n      jump\t// in\n    tag_319:\n        /* \"TEXOToken.sol\":11653:11675  _owner == _msgSender() */\n      0xffffffffffffffffffffffffffffffffffffffff\n      and\n        /* \"TEXOToken.sol\":11653:11659  _owner */\n      0x00\n      dup1\n      sload\n      swap1\n      0x0100\n      exp\n      swap1\n      div\n      0xffffffffffffffffffffffffffffffffffffffff\n      and\n        /* \"TEXOToken.sol\":11653:11675  _owner == _msgSender() */\n      0xffffffffffffffffffffffffffffffffffffffff\n      and\n      eq\n        /* \"TEXOToken.sol\":11645:11712  require(_owner == _msgSender(), \"Ownable: caller is not the owner\") */\n      tag_320\n      jumpi\n      mload(0x40)\n      0x08c379a000000000000000000000000000000000000000000000000000000000\n      dup2\n      mstore\n      0x04\n      add\n      dup1\n      dup1\n      0x20\n      add\n      dup3\n      dup2\n      sub\n      dup3\n      mstore\n      0x20\n      dup2\n      mstore\n      0x20\n      add\n      dup1\n      0x4f776e61626c653a2063616c6c6572206973206e6f7420746865206f776e6572\n      dup2\n      mstore\n      pop\n      0x20\n      add\n      swap2\n      pop\n      pop\n      mload(0x40)\n      dup1\n      swap2\n      sub\n      swap1\n      revert\n    tag_320:\n        /* \"TEXOToken.sol\":36287:36291  1000 */\n      0x03e8\n        /* \"TEXOToken.sol\":41383:41422  _depositFeeBP <= MAXIMUM_DEPOSIT_FEE_BP */\n      0xffff\n      and\n        /* \"TEXOToken.sol\":41383:41396  _depositFeeBP */\n      dup4\n        /* \"TEXOToken.sol\":41383:41422  _depositFeeBP <= MAXIMUM_DEPOSIT_FEE_BP */\n      0xffff\n      and\n      gt\n      iszero\n        /* \"TEXOToken.sol\":41375:41464  require(_depositFeeBP <= MAXIMUM_DEPOSIT_FEE_BP, \"set: invalid deposit fee basis points\") */\n      tag_322\n      jumpi\n      mload(0x40)\n      0x08c379a000000000000000000000000000000000000000000000000000000000\n      dup2\n      mstore\n      0x04\n      add\n      dup1\n      dup1\n      0x20\n      add\n      dup3\n      dup2\n      sub\n      dup3\n      mstore\n      0x25\n      dup2\n      mstore\n      0x20\n      add\n      dup1\n      data_9353dfb5d58f0da66015bbcadafa0686e2e7b7226db2e603088e70c7012680cf\n      0x25\n      swap2\n      codecopy\n      0x40\n      add\n      swap2\n      pop\n      pop\n      mload(0x40)\n      dup1\n      swap2\n      sub\n      swap1\n      revert\n    tag_322:\n        /* \"TEXOToken.sol\":41478:41489  _withUpdate */\n      dup2\n        /* \"TEXOToken.sol\":41474:41533  if (_withUpdate) {... */\n      iszero\n      tag_323\n      jumpi\n        /* \"TEXOToken.sol\":41505:41522  massUpdatePools() */\n      tag_324\n        /* \"TEXOToken.sol\":41505:41520  massUpdatePools */\n      tag_99\n        /* \"TEXOToken.sol\":41505:41522  massUpdatePools() */\n      jump\t// in\n    tag_324:\n        /* \"TEXOToken.sol\":41474:41533  if (_withUpdate) {... */\n    tag_323:\n        /* \"TEXOToken.sol\":41543:41571  uint256 blockToReceiveReward */\n      0x00\n        /* \"TEXOToken.sol\":41574:41608  globalBlockToUnlockClaimingRewards */\n      sload(0x07)\n        /* \"TEXOToken.sol\":41543:41608  uint256 blockToReceiveReward = globalBlockToUnlockClaimingRewards */\n      swap1\n      pop\n        /* \"TEXOToken.sol\":41659:41660  0 */\n      0x00\n        /* \"TEXOToken.sol\":41623:41656  _blockCountToReceiveRewardFromNow */\n      dup3\n        /* \"TEXOToken.sol\":41623:41660  _blockCountToReceiveRewardFromNow > 0 */\n      gt\n        /* \"TEXOToken.sol\":41619:41758  if (_blockCountToReceiveRewardFromNow > 0) {... */\n      iszero\n      tag_325\n      jumpi\n        /* \"TEXOToken.sol\":41714:41747  _blockCountToReceiveRewardFromNow */\n      dup2\n        /* \"TEXOToken.sol\":41699:41711  block.number */\n      number\n        /* \"TEXOToken.sol\":41699:41747  block.number + _blockCountToReceiveRewardFromNow */\n      add\n        /* \"TEXOToken.sol\":41676:41747  blockToReceiveReward = block.number + _blockCountToReceiveRewardFromNow */\n      swap1\n      pop\n        /* \"TEXOToken.sol\":41619:41758  if (_blockCountToReceiveRewardFromNow > 0) {... */\n    tag_325:\n        /* \"TEXOToken.sol\":41786:41871  totalAllocPoint.sub(poolInfo[_pid].allocPoint).add(... */\n      tag_326\n        /* \"TEXOToken.sol\":41850:41861  _allocPoint */\n      dup6\n        /* \"TEXOToken.sol\":41786:41832  totalAllocPoint.sub(poolInfo[_pid].allocPoint) */\n      tag_327\n        /* \"TEXOToken.sol\":41806:41814  poolInfo */\n      0x09\n        /* \"TEXOToken.sol\":41815:41819  _pid */\n      dup10\n        /* \"TEXOToken.sol\":41806:41820  poolInfo[_pid] */\n      dup2\n      sload\n      dup2\n      lt\n      tag_328\n      jumpi\n      invalid\n    tag_328:\n      swap1\n      0x00\n      mstore\n      keccak256(0x00, 0x20)\n      swap1\n      0x06\n      mul\n      add\n        /* \"TEXOToken.sol\":41806:41831  poolInfo[_pid].allocPoint */\n      0x01\n      add\n      sload\n        /* \"TEXOToken.sol\":41786:41801  totalAllocPoint */\n      sload(0x0b)\n        /* \"TEXOToken.sol\":41786:41805  totalAllocPoint.sub */\n      tag_201\n      swap1\n        /* \"TEXOToken.sol\":41786:41832  totalAllocPoint.sub(poolInfo[_pid].allocPoint) */\n      swap2\n      swap1\n      0xffffffff\n      and\n      jump\t// in\n    tag_327:\n        /* \"TEXOToken.sol\":41786:41836  totalAllocPoint.sub(poolInfo[_pid].allocPoint).add */\n      tag_240\n      swap1\n        /* \"TEXOToken.sol\":41786:41871  totalAllocPoint.sub(poolInfo[_pid].allocPoint).add(... */\n      swap2\n      swap1\n      0xffffffff\n      and\n      jump\t// in\n    tag_326:\n        /* \"TEXOToken.sol\":41768:41783  totalAllocPoint */\n      0x0b\n        /* \"TEXOToken.sol\":41768:41871  totalAllocPoint = totalAllocPoint.sub(poolInfo[_pid].allocPoint).add(... */\n      dup2\n      swap1\n      sstore\n      pop\n        /* \"TEXOToken.sol\":41910:41921  _allocPoint */\n      dup5\n        /* \"TEXOToken.sol\":41882:41890  poolInfo */\n      0x09\n        /* \"TEXOToken.sol\":41891:41895  _pid */\n      dup8\n        /* \"TEXOToken.sol\":41882:41896  poolInfo[_pid] */\n      dup2\n      sload\n      dup2\n      lt\n      tag_330\n      jumpi\n      invalid\n    tag_330:\n      swap1\n      0x00\n      mstore\n      keccak256(0x00, 0x20)\n      swap1\n      0x06\n      mul\n      add\n        /* \"TEXOToken.sol\":41882:41907  poolInfo[_pid].allocPoint */\n      0x01\n      add\n        /* \"TEXOToken.sol\":41882:41921  poolInfo[_pid].allocPoint = _allocPoint */\n      dup2\n      swap1\n      sstore\n      pop\n        /* \"TEXOToken.sol\":41961:41974  _depositFeeBP */\n      dup4\n        /* \"TEXOToken.sol\":41931:41939  poolInfo */\n      0x09\n        /* \"TEXOToken.sol\":41940:41944  _pid */\n      dup8\n        /* \"TEXOToken.sol\":41931:41945  poolInfo[_pid] */\n      dup2\n      sload\n      dup2\n      lt\n      tag_332\n      jumpi\n      invalid\n    tag_332:\n      swap1\n      0x00\n      mstore\n      keccak256(0x00, 0x20)\n      swap1\n      0x06\n      mul\n      add\n        /* \"TEXOToken.sol\":41931:41958  poolInfo[_pid].depositFeeBP */\n      0x05\n      add\n      0x00\n        /* \"TEXOToken.sol\":41931:41974  poolInfo[_pid].depositFeeBP = _depositFeeBP */\n      0x0100\n      exp\n      dup2\n      sload\n      dup2\n      0xffff\n      mul\n      not\n      and\n      swap1\n      dup4\n      0xffff\n      and\n      mul\n      or\n      swap1\n      sstore\n      pop\n        /* \"TEXOToken.sol\":42022:42042  blockToReceiveReward */\n      dup1\n        /* \"TEXOToken.sol\":41984:41992  poolInfo */\n      0x09\n        /* \"TEXOToken.sol\":41993:41997  _pid */\n      dup8\n        /* \"TEXOToken.sol\":41984:41998  poolInfo[_pid] */\n      dup2\n      sload\n      dup2\n      lt\n      tag_334\n      jumpi\n      invalid\n    tag_334:\n      swap1\n      0x00\n      mstore\n      keccak256(0x00, 0x20)\n      swap1\n      0x06\n      mul\n      add\n        /* \"TEXOToken.sol\":41984:42019  poolInfo[_pid].blockToReceiveReward */\n      0x02\n      add\n        /* \"TEXOToken.sol\":41984:42042  poolInfo[_pid].blockToReceiveReward = blockToReceiveReward */\n      dup2\n      swap1\n      sstore\n      pop\n        /* \"TEXOToken.sol\":11722:11723  _ */\n      pop\n        /* \"TEXOToken.sol\":41171:42049  function set(... */\n      pop\n      pop\n      pop\n      pop\n      pop\n      jump\t// out\n        /* \"TEXOToken.sol\":36626:36670  mapping(IBEP20 => bool) public poolExistence */\n    tag_155:\n      mstore(0x20, 0x0f)\n      dup1\n      0x00\n      mstore\n      keccak256(0x00, 0x40)\n      0x00\n      swap2\n      pop\n      sload\n      swap1\n      0x0100\n      exp\n      swap1\n      div\n      0xff\n      and\n      dup2\n      jump\t// out\n        /* \"TEXOToken.sol\":50719:50972  function setDevAddress(address _devaddr) public {... */\n    tag_158:\n        /* \"TEXOToken.sol\":50805:50806  0 */\n      0x00\n        /* \"TEXOToken.sol\":50785:50807  _devaddr != address(0) */\n      0xffffffffffffffffffffffffffffffffffffffff\n      and\n        /* \"TEXOToken.sol\":50785:50793  _devaddr */\n      dup2\n        /* \"TEXOToken.sol\":50785:50807  _devaddr != address(0) */\n      0xffffffffffffffffffffffffffffffffffffffff\n      and\n      eq\n      iszero\n        /* \"TEXOToken.sol\":50777:50832  require(_devaddr != address(0), \"dev: invalid address\") */\n      tag_337\n      jumpi\n      mload(0x40)\n      0x08c379a000000000000000000000000000000000000000000000000000000000\n      dup2\n      mstore\n      0x04\n      add\n      dup1\n      dup1\n      0x20\n      add\n      dup3\n      dup2\n      sub\n      dup3\n      mstore\n      0x14\n      dup2\n      mstore\n      0x20\n      add\n      dup1\n      0x6465763a20696e76616c69642061646472657373000000000000000000000000\n      dup2\n      mstore\n      pop\n      0x20\n      add\n      swap2\n      pop\n      pop\n      mload(0x40)\n      dup1\n      swap2\n      sub\n      swap1\n      revert\n    tag_337:\n        /* \"TEXOToken.sol\":50864:50871  devAddr */\n      0x03\n      0x00\n      swap1\n      sload\n      swap1\n      0x0100\n      exp\n      swap1\n      div\n      0xffffffffffffffffffffffffffffffffffffffff\n      and\n        /* \"TEXOToken.sol\":50850:50871  msg.sender == devAddr */\n      0xffffffffffffffffffffffffffffffffffffffff\n      and\n        /* \"TEXOToken.sol\":50850:50860  msg.sender */\n      caller\n        /* \"TEXOToken.sol\":50850:50871  msg.sender == devAddr */\n      0xffffffffffffffffffffffffffffffffffffffff\n      and\n      eq\n        /* \"TEXOToken.sol\":50842:50885  require(msg.sender == devAddr, \"dev: wut?\") */\n      tag_338\n      jumpi\n      mload(0x40)\n      0x08c379a000000000000000000000000000000000000000000000000000000000\n      dup2\n      mstore\n      0x04\n      add\n      dup1\n      dup1\n      0x20\n      add\n      dup3\n      dup2\n      sub\n      dup3\n      mstore\n      0x09\n      dup2\n      mstore\n      0x20\n      add\n      dup1\n      0x6465763a207775743f0000000000000000000000000000000000000000000000\n      dup2\n      mstore\n      pop\n      0x20\n      add\n      swap2\n      pop\n      pop\n      mload(0x40)\n      dup1\n      swap2\n      sub\n      swap1\n      revert\n    tag_338:\n        /* \"TEXOToken.sol\":50906:50914  _devaddr */\n      dup1\n        /* \"TEXOToken.sol\":50896:50903  devAddr */\n      0x03\n      0x00\n        /* \"TEXOToken.sol\":50896:50914  devAddr = _devaddr */\n      0x0100\n      exp\n      dup2\n      sload\n      dup2\n      0xffffffffffffffffffffffffffffffffffffffff\n      mul\n      not\n      and\n      swap1\n      dup4\n      0xffffffffffffffffffffffffffffffffffffffff\n      and\n      mul\n      or\n      swap1\n      sstore\n      pop\n        /* \"TEXOToken.sol\":50956:50964  _devaddr */\n      dup1\n        /* \"TEXOToken.sol\":50930:50965  SetDevAddress(msg.sender, _devaddr) */\n      0xffffffffffffffffffffffffffffffffffffffff\n      and\n        /* \"TEXOToken.sol\":50944:50954  msg.sender */\n      caller\n        /* \"TEXOToken.sol\":50930:50965  SetDevAddress(msg.sender, _devaddr) */\n      0xffffffffffffffffffffffffffffffffffffffff\n      and\n      0x618c54559e94f1499a808aad71ee8729f8e74e8c48e979616328ce493a1a52e7\n      mload(0x40)\n      mload(0x40)\n      dup1\n      swap2\n      sub\n      swap1\n      log3\n        /* \"TEXOToken.sol\":50719:50972  function setDevAddress(address _devaddr) public {... */\n      pop\n      jump\t// out\n        /* \"TEXOToken.sol\":37050:37114  uint256 public constant EMISSION_REDUCTION_PERIOD_BLOCKS = 28800 */\n    tag_160:\n        /* \"TEXOToken.sol\":37109:37114  28800 */\n      0x7080\n        /* \"TEXOToken.sol\":37050:37114  uint256 public constant EMISSION_REDUCTION_PERIOD_BLOCKS = 28800 */\n      dup2\n      jump\t// out\n        /* \"TEXOToken.sol\":35433:35455  address public devAddr */\n    tag_162:\n      0x03\n      0x00\n      swap1\n      sload\n      swap1\n      0x0100\n      exp\n      swap1\n      div\n      0xffffffffffffffffffffffffffffffffffffffff\n      and\n      dup2\n      jump\t// out\n        /* \"TEXOToken.sol\":42302:43330  function pendingTEXO(uint256 _pid, address _user) external view returns (uint256) {... */\n    tag_165:\n        /* \"TEXOToken.sol\":42375:42382  uint256 */\n      0x00\n        /* \"TEXOToken.sol\":42394:42415  PoolInfo storage pool */\n      dup1\n        /* \"TEXOToken.sol\":42418:42426  poolInfo */\n      0x09\n        /* \"TEXOToken.sol\":42427:42431  _pid */\n      dup5\n        /* \"TEXOToken.sol\":42418:42432  poolInfo[_pid] */\n      dup2\n      sload\n      dup2\n      lt\n      tag_340\n      jumpi\n      invalid\n    tag_340:\n      swap1\n      0x00\n      mstore\n      keccak256(0x00, 0x20)\n      swap1\n      0x06\n      mul\n      add\n        /* \"TEXOToken.sol\":42394:42432  PoolInfo storage pool = poolInfo[_pid] */\n      swap1\n      pop\n        /* \"TEXOToken.sol\":42442:42463  UserInfo storage user */\n      0x00\n        /* \"TEXOToken.sol\":42466:42474  userInfo */\n      0x0a\n        /* \"TEXOToken.sol\":42466:42480  userInfo[_pid] */\n      0x00\n        /* \"TEXOToken.sol\":42475:42479  _pid */\n      dup7\n        /* \"TEXOToken.sol\":42466:42480  userInfo[_pid] */\n      dup2\n      mstore\n      0x20\n      add\n      swap1\n      dup2\n      mstore\n      0x20\n      add\n      0x00\n      keccak256\n        /* \"TEXOToken.sol\":42466:42487  userInfo[_pid][_user] */\n      0x00\n        /* \"TEXOToken.sol\":42481:42486  _user */\n      dup6\n        /* \"TEXOToken.sol\":42466:42487  userInfo[_pid][_user] */\n      0xffffffffffffffffffffffffffffffffffffffff\n      and\n      0xffffffffffffffffffffffffffffffffffffffff\n      and\n      dup2\n      mstore\n      0x20\n      add\n      swap1\n      dup2\n      mstore\n      0x20\n      add\n      0x00\n      keccak256\n        /* \"TEXOToken.sol\":42442:42487  UserInfo storage user = userInfo[_pid][_user] */\n      swap1\n      pop\n        /* \"TEXOToken.sol\":42498:42521  uint256 accTEXOPerShare */\n      0x00\n        /* \"TEXOToken.sol\":42524:42528  pool */\n      dup3\n        /* \"TEXOToken.sol\":42524:42544  pool.accTEXOPerShare */\n      0x04\n      add\n      sload\n        /* \"TEXOToken.sol\":42498:42544  uint256 accTEXOPerShare = pool.accTEXOPerShare */\n      swap1\n      pop\n        /* \"TEXOToken.sol\":42554:42570  uint256 lpSupply */\n      0x00\n        /* \"TEXOToken.sol\":42573:42577  pool */\n      dup4\n        /* \"TEXOToken.sol\":42573:42585  pool.lpToken */\n      0x00\n      add\n      0x00\n      swap1\n      sload\n      swap1\n      0x0100\n      exp\n      swap1\n      div\n      0xffffffffffffffffffffffffffffffffffffffff\n      and\n        /* \"TEXOToken.sol\":42573:42595  pool.lpToken.balanceOf */\n      0xffffffffffffffffffffffffffffffffffffffff\n      and\n      0x70a08231\n        /* \"TEXOToken.sol\":42604:42608  this */\n      address\n        /* \"TEXOToken.sol\":42573:42610  pool.lpToken.balanceOf(address(this)) */\n      mload(0x40)\n      dup3\n      0xffffffff\n      and\n      0xe0\n      shl\n      dup2\n      mstore\n      0x04\n      add\n      dup1\n      dup3\n      0xffffffffffffffffffffffffffffffffffffffff\n      and\n      dup2\n      mstore\n      0x20\n      add\n      swap2\n      pop\n      pop\n      0x20\n      mload(0x40)\n      dup1\n      dup4\n      sub\n      dup2\n      dup7\n      dup1\n      extcodesize\n      iszero\n      dup1\n      iszero\n      tag_342\n      jumpi\n      0x00\n      dup1\n      revert\n    tag_342:\n      pop\n      gas\n      staticcall\n      iszero\n      dup1\n      iszero\n      tag_344\n      jumpi\n      returndatasize\n      0x00\n      dup1\n      returndatacopy\n      revert(0x00, returndatasize)\n    tag_344:\n      pop\n      pop\n      pop\n      pop\n      mload(0x40)\n      returndatasize\n      0x20\n      dup2\n      lt\n      iszero\n      tag_345\n      jumpi\n      0x00\n      dup1\n      revert\n    tag_345:\n      dup2\n      add\n      swap1\n      dup1\n      dup1\n      mload\n      swap1\n      0x20\n      add\n      swap1\n      swap3\n      swap2\n      swap1\n      pop\n      pop\n      pop\n        /* \"TEXOToken.sol\":42554:42610  uint256 lpSupply = pool.lpToken.balanceOf(address(this)) */\n      swap1\n      pop\n        /* \"TEXOToken.sol\":42621:42643  bool canWithdrawReward */\n      0x00\n        /* \"TEXOToken.sol\":42646:42669  canWithdrawReward(_pid) */\n      tag_346\n        /* \"TEXOToken.sol\":42664:42668  _pid */\n      dup9\n        /* \"TEXOToken.sol\":42646:42663  canWithdrawReward */\n      tag_147\n        /* \"TEXOToken.sol\":42646:42669  canWithdrawReward(_pid) */\n      jump\t// in\n    tag_346:\n        /* \"TEXOToken.sol\":42621:42669  bool canWithdrawReward = canWithdrawReward(_pid) */\n      swap1\n      pop\n        /* \"TEXOToken.sol\":42685:42702  canWithdrawReward */\n      dup1\n        /* \"TEXOToken.sol\":42684:42702  !canWithdrawReward */\n      iszero\n        /* \"TEXOToken.sol\":42684:42741  !canWithdrawReward && block.number > pool.lastRewardBlock */\n      dup1\n      iszero\n      tag_347\n      jumpi\n      pop\n        /* \"TEXOToken.sol\":42721:42725  pool */\n      dup5\n        /* \"TEXOToken.sol\":42721:42741  pool.lastRewardBlock */\n      0x03\n      add\n      sload\n        /* \"TEXOToken.sol\":42706:42718  block.number */\n      number\n        /* \"TEXOToken.sol\":42706:42741  block.number > pool.lastRewardBlock */\n      gt\n        /* \"TEXOToken.sol\":42684:42741  !canWithdrawReward && block.number > pool.lastRewardBlock */\n    tag_347:\n        /* \"TEXOToken.sol\":42684:42758  !canWithdrawReward && block.number > pool.lastRewardBlock && lpSupply != 0 */\n      dup1\n      iszero\n      tag_348\n      jumpi\n      pop\n        /* \"TEXOToken.sol\":42757:42758  0 */\n      0x00\n        /* \"TEXOToken.sol\":42745:42753  lpSupply */\n      dup3\n        /* \"TEXOToken.sol\":42745:42758  lpSupply != 0 */\n      eq\n      iszero\n        /* \"TEXOToken.sol\":42684:42758  !canWithdrawReward && block.number > pool.lastRewardBlock && lpSupply != 0 */\n    tag_348:\n        /* \"TEXOToken.sol\":42680:43204  if (!canWithdrawReward && block.number > pool.lastRewardBlock && lpSupply != 0) {... */\n      iszero\n      tag_349\n      jumpi\n        /* \"TEXOToken.sol\":42774:42792  uint256 multiplier */\n      0x00\n        /* \"TEXOToken.sol\":42795:42844  getMultiplier(pool.lastRewardBlock, block.number) */\n      tag_350\n        /* \"TEXOToken.sol\":42809:42813  pool */\n      dup7\n        /* \"TEXOToken.sol\":42809:42829  pool.lastRewardBlock */\n      0x03\n      add\n      sload\n        /* \"TEXOToken.sol\":42831:42843  block.number */\n      number\n        /* \"TEXOToken.sol\":42795:42808  getMultiplier */\n      tag_121\n        /* \"TEXOToken.sol\":42795:42844  getMultiplier(pool.lastRewardBlock, block.number) */\n      jump\t// in\n    tag_350:\n        /* \"TEXOToken.sol\":42774:42844  uint256 multiplier = getMultiplier(pool.lastRewardBlock, block.number) */\n      swap1\n      pop\n        /* \"TEXOToken.sol\":42858:42876  uint256 tEXOReward */\n      0x00\n        /* \"TEXOToken.sol\":42879:43000  multiplier... */\n      tag_351\n        /* \"TEXOToken.sol\":42984:42999  totalAllocPoint */\n      sload(0x0b)\n        /* \"TEXOToken.sol\":42879:42962  multiplier... */\n      tag_352\n        /* \"TEXOToken.sol\":42946:42950  pool */\n      dup10\n        /* \"TEXOToken.sol\":42946:42961  pool.allocPoint */\n      0x01\n      add\n      sload\n        /* \"TEXOToken.sol\":42879:42924  multiplier... */\n      tag_353\n        /* \"TEXOToken.sol\":42911:42923  tEXOPerBlock */\n      sload(0x04)\n        /* \"TEXOToken.sol\":42879:42889  multiplier */\n      dup8\n        /* \"TEXOToken.sol\":42879:42910  multiplier... */\n      tag_199\n      swap1\n        /* \"TEXOToken.sol\":42879:42924  multiplier... */\n      swap2\n      swap1\n      0xffffffff\n      and\n      jump\t// in\n    tag_353:\n        /* \"TEXOToken.sol\":42879:42945  multiplier... */\n      tag_199\n      swap1\n        /* \"TEXOToken.sol\":42879:42962  multiplier... */\n      swap2\n      swap1\n      0xffffffff\n      and\n      jump\t// in\n    tag_352:\n        /* \"TEXOToken.sol\":42879:42983  multiplier... */\n      tag_200\n      swap1\n        /* \"TEXOToken.sol\":42879:43000  multiplier... */\n      swap2\n      swap1\n      0xffffffff\n      and\n      jump\t// in\n    tag_351:\n        /* \"TEXOToken.sol\":42858:43000  uint256 tEXOReward = multiplier... */\n      swap1\n      pop\n        /* \"TEXOToken.sol\":43033:43193  accTEXOPerShare... */\n      tag_354\n        /* \"TEXOToken.sol\":43091:43175  tEXOReward... */\n      tag_355\n        /* \"TEXOToken.sol\":43166:43174  lpSupply */\n      dup6\n        /* \"TEXOToken.sol\":43091:43136  tEXOReward... */\n      tag_356\n        /* \"TEXOToken.sol\":43131:43135  1e12 */\n      0xe8d4a51000\n        /* \"TEXOToken.sol\":43091:43101  tEXOReward */\n      dup6\n        /* \"TEXOToken.sol\":43091:43130  tEXOReward... */\n      tag_199\n      swap1\n        /* \"TEXOToken.sol\":43091:43136  tEXOReward... */\n      swap2\n      swap1\n      0xffffffff\n      and\n      jump\t// in\n    tag_356:\n        /* \"TEXOToken.sol\":43091:43165  tEXOReward... */\n      tag_200\n      swap1\n        /* \"TEXOToken.sol\":43091:43175  tEXOReward... */\n      swap2\n      swap1\n      0xffffffff\n      and\n      jump\t// in\n    tag_355:\n        /* \"TEXOToken.sol\":43033:43048  accTEXOPerShare */\n      dup7\n        /* \"TEXOToken.sol\":43033:43069  accTEXOPerShare... */\n      tag_240\n      swap1\n        /* \"TEXOToken.sol\":43033:43193  accTEXOPerShare... */\n      swap2\n      swap1\n      0xffffffff\n      and\n      jump\t// in\n    tag_354:\n        /* \"TEXOToken.sol\":43015:43193  accTEXOPerShare = accTEXOPerShare... */\n      swap5\n      pop\n        /* \"TEXOToken.sol\":42680:43204  if (!canWithdrawReward && block.number > pool.lastRewardBlock && lpSupply != 0) {... */\n      pop\n      pop\n    tag_349:\n        /* \"TEXOToken.sol\":43221:43323  user.amount... */\n      tag_357\n        /* \"TEXOToken.sol\":43307:43311  user */\n      dup5\n        /* \"TEXOToken.sol\":43307:43322  user.rewardDebt */\n      0x01\n      add\n      sload\n        /* \"TEXOToken.sol\":43221:43289  user.amount... */\n      tag_358\n        /* \"TEXOToken.sol\":43284:43288  1e12 */\n      0xe8d4a51000\n        /* \"TEXOToken.sol\":43221:43266  user.amount... */\n      tag_359\n        /* \"TEXOToken.sol\":43250:43265  accTEXOPerShare */\n      dup8\n        /* \"TEXOToken.sol\":43221:43225  user */\n      dup10\n        /* \"TEXOToken.sol\":43221:43232  user.amount */\n      0x00\n      add\n      sload\n        /* \"TEXOToken.sol\":43221:43249  user.amount... */\n      tag_199\n      swap1\n        /* \"TEXOToken.sol\":43221:43266  user.amount... */\n      swap2\n      swap1\n      0xffffffff\n      and\n      jump\t// in\n    tag_359:\n        /* \"TEXOToken.sol\":43221:43283  user.amount... */\n      tag_200\n      swap1\n        /* \"TEXOToken.sol\":43221:43289  user.amount... */\n      swap2\n      swap1\n      0xffffffff\n      and\n      jump\t// in\n    tag_358:\n        /* \"TEXOToken.sol\":43221:43306  user.amount... */\n      tag_201\n      swap1\n        /* \"TEXOToken.sol\":43221:43323  user.amount... */\n      swap2\n      swap1\n      0xffffffff\n      and\n      jump\t// in\n    tag_357:\n        /* \"TEXOToken.sol\":43214:43323  return user.amount... */\n      swap6\n      pop\n      pop\n      pop\n      pop\n      pop\n      pop\n        /* \"TEXOToken.sol\":42302:43330  function pendingTEXO(uint256 _pid, address _user) external view returns (uint256) {... */\n      swap3\n      swap2\n      pop\n      pop\n      jump\t// out\n        /* \"TEXOToken.sol\":45285:46824  function deposit(uint256 _pid, uint256 _amount) public nonReentrant {... */\n    tag_168:\n        /* \"TEXOToken.sol\":21196:21197  2 */\n      0x02\n        /* \"TEXOToken.sol\":21785:21792  _status */\n      sload(0x01)\n        /* \"TEXOToken.sol\":21785:21804  _status != _ENTERED */\n      eq\n      iszero\n        /* \"TEXOToken.sol\":21777:21840  require(_status != _ENTERED, \"ReentrancyGuard: reentrant call\") */\n      tag_361\n      jumpi\n      mload(0x40)\n      0x08c379a000000000000000000000000000000000000000000000000000000000\n      dup2\n      mstore\n      0x04\n      add\n      dup1\n      dup1\n      0x20\n      add\n      dup3\n      dup2\n      sub\n      dup3\n      mstore\n      0x1f\n      dup2\n      mstore\n      0x20\n      add\n      dup1\n      0x5265656e7472616e637947756172643a207265656e7472616e742063616c6c00\n      dup2\n      mstore\n      pop\n      0x20\n      add\n      swap2\n      pop\n      pop\n      mload(0x40)\n      dup1\n      swap2\n      sub\n      swap1\n      revert\n    tag_361:\n        /* \"TEXOToken.sol\":21196:21197  2 */\n      0x02\n        /* \"TEXOToken.sol\":21915:21922  _status */\n      0x01\n        /* \"TEXOToken.sol\":21915:21933  _status = _ENTERED */\n      dup2\n      swap1\n      sstore\n      pop\n        /* \"TEXOToken.sol\":45363:45384  PoolInfo storage pool */\n      0x00\n        /* \"TEXOToken.sol\":45387:45395  poolInfo */\n      0x09\n        /* \"TEXOToken.sol\":45396:45400  _pid */\n      dup4\n        /* \"TEXOToken.sol\":45387:45401  poolInfo[_pid] */\n      dup2\n      sload\n      dup2\n      lt\n      tag_363\n      jumpi\n      invalid\n    tag_363:\n      swap1\n      0x00\n      mstore\n      keccak256(0x00, 0x20)\n      swap1\n      0x06\n      mul\n      add\n        /* \"TEXOToken.sol\":45363:45401  PoolInfo storage pool = poolInfo[_pid] */\n      swap1\n      pop\n        /* \"TEXOToken.sol\":45411:45432  UserInfo storage user */\n      0x00\n        /* \"TEXOToken.sol\":45435:45443  userInfo */\n      0x0a\n        /* \"TEXOToken.sol\":45435:45449  userInfo[_pid] */\n      0x00\n        /* \"TEXOToken.sol\":45444:45448  _pid */\n      dup6\n        /* \"TEXOToken.sol\":45435:45449  userInfo[_pid] */\n      dup2\n      mstore\n      0x20\n      add\n      swap1\n      dup2\n      mstore\n      0x20\n      add\n      0x00\n      keccak256\n        /* \"TEXOToken.sol\":45435:45461  userInfo[_pid][msg.sender] */\n      0x00\n        /* \"TEXOToken.sol\":45450:45460  msg.sender */\n      caller\n        /* \"TEXOToken.sol\":45435:45461  userInfo[_pid][msg.sender] */\n      0xffffffffffffffffffffffffffffffffffffffff\n      and\n      0xffffffffffffffffffffffffffffffffffffffff\n      and\n      dup2\n      mstore\n      0x20\n      add\n      swap1\n      dup2\n      mstore\n      0x20\n      add\n      0x00\n      keccak256\n        /* \"TEXOToken.sol\":45411:45461  UserInfo storage user = userInfo[_pid][msg.sender] */\n      swap1\n      pop\n        /* \"TEXOToken.sol\":45472:45488  updatePool(_pid) */\n      tag_365\n        /* \"TEXOToken.sol\":45483:45487  _pid */\n      dup5\n        /* \"TEXOToken.sol\":45472:45482  updatePool */\n      tag_90\n        /* \"TEXOToken.sol\":45472:45488  updatePool(_pid) */\n      jump\t// in\n    tag_365:\n        /* \"TEXOToken.sol\":45517:45518  0 */\n      0x00\n        /* \"TEXOToken.sol\":45503:45507  user */\n      dup2\n        /* \"TEXOToken.sol\":45503:45514  user.amount */\n      0x00\n      add\n      sload\n        /* \"TEXOToken.sol\":45503:45518  user.amount > 0 */\n      gt\n        /* \"TEXOToken.sol\":45499:45989  if (user.amount > 0) {... */\n      iszero\n      tag_366\n      jumpi\n        /* \"TEXOToken.sol\":45534:45549  uint256 pending */\n      0x00\n        /* \"TEXOToken.sol\":45552:45671  user.amount... */\n      tag_367\n        /* \"TEXOToken.sol\":45655:45659  user */\n      dup3\n        /* \"TEXOToken.sol\":45655:45670  user.rewardDebt */\n      0x01\n      add\n      sload\n        /* \"TEXOToken.sol\":45552:45633  user.amount... */\n      tag_368\n        /* \"TEXOToken.sol\":45628:45632  1e12 */\n      0xe8d4a51000\n        /* \"TEXOToken.sol\":45552:45606  user.amount... */\n      tag_369\n        /* \"TEXOToken.sol\":45585:45589  pool */\n      dup8\n        /* \"TEXOToken.sol\":45585:45605  pool.accTEXOPerShare */\n      0x04\n      add\n      sload\n        /* \"TEXOToken.sol\":45552:45556  user */\n      dup8\n        /* \"TEXOToken.sol\":45552:45563  user.amount */\n      0x00\n      add\n      sload\n        /* \"TEXOToken.sol\":45552:45584  user.amount... */\n      tag_199\n      swap1\n        /* \"TEXOToken.sol\":45552:45606  user.amount... */\n      swap2\n      swap1\n      0xffffffff\n      and\n      jump\t// in\n    tag_369:\n        /* \"TEXOToken.sol\":45552:45627  user.amount... */\n      tag_200\n      swap1\n        /* \"TEXOToken.sol\":45552:45633  user.amount... */\n      swap2\n      swap1\n      0xffffffff\n      and\n      jump\t// in\n    tag_368:\n        /* \"TEXOToken.sol\":45552:45654  user.amount... */\n      tag_201\n      swap1\n        /* \"TEXOToken.sol\":45552:45671  user.amount... */\n      swap2\n      swap1\n      0xffffffff\n      and\n      jump\t// in\n    tag_367:\n        /* \"TEXOToken.sol\":45534:45671  uint256 pending = user.amount... */\n      swap1\n      pop\n        /* \"TEXOToken.sol\":45686:45706  bool canWithdrawTEXO */\n      0x00\n        /* \"TEXOToken.sol\":45709:45732  canWithdrawReward(_pid) */\n      tag_370\n        /* \"TEXOToken.sol\":45727:45731  _pid */\n      dup7\n        /* \"TEXOToken.sol\":45709:45726  canWithdrawReward */\n      tag_147\n        /* \"TEXOToken.sol\":45709:45732  canWithdrawReward(_pid) */\n      jump\t// in\n    tag_370:\n        /* \"TEXOToken.sol\":45686:45732  bool canWithdrawTEXO = canWithdrawReward(_pid) */\n      swap1\n      pop\n        /* \"TEXOToken.sol\":45751:45766  canWithdrawTEXO */\n      dup1\n        /* \"TEXOToken.sol\":45751:45781  canWithdrawTEXO && pending > 0 */\n      dup1\n      iszero\n      tag_371\n      jumpi\n      pop\n        /* \"TEXOToken.sol\":45780:45781  0 */\n      0x00\n        /* \"TEXOToken.sol\":45770:45777  pending */\n      dup3\n        /* \"TEXOToken.sol\":45770:45781  pending > 0 */\n      gt\n        /* \"TEXOToken.sol\":45751:45781  canWithdrawTEXO && pending > 0 */\n    tag_371:\n        /* \"TEXOToken.sol\":45747:45979  if (canWithdrawTEXO && pending > 0) {... */\n      iszero\n      tag_372\n      jumpi\n        /* \"TEXOToken.sol\":45801:45838  safeTEXOTransfer(msg.sender, pending) */\n      tag_373\n        /* \"TEXOToken.sol\":45818:45828  msg.sender */\n      caller\n        /* \"TEXOToken.sol\":45830:45837  pending */\n      dup4\n        /* \"TEXOToken.sol\":45801:45817  safeTEXOTransfer */\n      tag_205\n        /* \"TEXOToken.sol\":45801:45838  safeTEXOTransfer(msg.sender, pending) */\n      jump\t// in\n    tag_373:\n        /* \"TEXOToken.sol\":45875:45964  user.amount... */\n      tag_374\n        /* \"TEXOToken.sol\":45959:45963  1e12 */\n      0xe8d4a51000\n        /* \"TEXOToken.sol\":45875:45933  user.amount... */\n      tag_375\n        /* \"TEXOToken.sol\":45912:45916  pool */\n      dup7\n        /* \"TEXOToken.sol\":45912:45932  pool.accTEXOPerShare */\n      0x04\n      add\n      sload\n        /* \"TEXOToken.sol\":45875:45879  user */\n      dup7\n        /* \"TEXOToken.sol\":45875:45886  user.amount */\n      0x00\n      add\n      sload\n        /* \"TEXOToken.sol\":45875:45911  user.amount... */\n      tag_199\n      swap1\n        /* \"TEXOToken.sol\":45875:45933  user.amount... */\n      swap2\n      swap1\n      0xffffffff\n      and\n      jump\t// in\n    tag_375:\n        /* \"TEXOToken.sol\":45875:45958  user.amount... */\n      tag_200\n      swap1\n        /* \"TEXOToken.sol\":45875:45964  user.amount... */\n      swap2\n      swap1\n      0xffffffff\n      and\n      jump\t// in\n    tag_374:\n        /* \"TEXOToken.sol\":45857:45861  user */\n      dup4\n        /* \"TEXOToken.sol\":45857:45872  user.rewardDebt */\n      0x01\n      add\n        /* \"TEXOToken.sol\":45857:45964  user.rewardDebt = user.amount... */\n      dup2\n      swap1\n      sstore\n      pop\n        /* \"TEXOToken.sol\":45747:45979  if (canWithdrawTEXO && pending > 0) {... */\n    tag_372:\n        /* \"TEXOToken.sol\":45499:45989  if (user.amount > 0) {... */\n      pop\n      pop\n    tag_366:\n        /* \"TEXOToken.sol\":46013:46014  0 */\n      0x00\n        /* \"TEXOToken.sol\":46003:46010  _amount */\n      dup4\n        /* \"TEXOToken.sol\":46003:46014  _amount > 0 */\n      gt\n        /* \"TEXOToken.sol\":45999:46553  if (_amount > 0) {... */\n      iszero\n      tag_376\n      jumpi\n        /* \"TEXOToken.sol\":46030:46104  pool.lpToken.safeTransferFrom(address(msg.sender), address(this), _amount) */\n      tag_377\n        /* \"TEXOToken.sol\":46068:46078  msg.sender */\n      caller\n        /* \"TEXOToken.sol\":46089:46093  this */\n      address\n        /* \"TEXOToken.sol\":46096:46103  _amount */\n      dup6\n        /* \"TEXOToken.sol\":46030:46034  pool */\n      dup6\n        /* \"TEXOToken.sol\":46030:46042  pool.lpToken */\n      0x00\n      add\n      0x00\n      swap1\n      sload\n      swap1\n      0x0100\n      exp\n      swap1\n      div\n      0xffffffffffffffffffffffffffffffffffffffff\n      and\n        /* \"TEXOToken.sol\":46030:46059  pool.lpToken.safeTransferFrom */\n      0xffffffffffffffffffffffffffffffffffffffff\n      and\n      tag_294\n      swap1\n        /* \"TEXOToken.sol\":46030:46104  pool.lpToken.safeTransferFrom(address(msg.sender), address(this), _amount) */\n      swap4\n      swap3\n      swap2\n      swap1\n      0xffffffff\n      and\n      jump\t// in\n    tag_377:\n        /* \"TEXOToken.sol\":46143:46144  0 */\n      0x00\n        /* \"TEXOToken.sol\":46123:46127  pool */\n      dup3\n        /* \"TEXOToken.sol\":46123:46140  pool.depositFeeBP */\n      0x05\n      add\n      0x00\n      swap1\n      sload\n      swap1\n      0x0100\n      exp\n      swap1\n      div\n      0xffff\n      and\n        /* \"TEXOToken.sol\":46123:46144  pool.depositFeeBP > 0 */\n      0xffff\n      and\n      gt\n        /* \"TEXOToken.sol\":46119:46543  if (pool.depositFeeBP > 0) {... */\n      iszero\n      tag_378\n      jumpi\n        /* \"TEXOToken.sol\":46164:46182  uint256 depositFee */\n      0x00\n        /* \"TEXOToken.sol\":46185:46268  _amount... */\n      tag_379\n        /* \"TEXOToken.sol\":46262:46267  10000 */\n      0x2710\n        /* \"TEXOToken.sol\":46185:46236  _amount... */\n      tag_380\n        /* \"TEXOToken.sol\":46218:46222  pool */\n      dup6\n        /* \"TEXOToken.sol\":46218:46235  pool.depositFeeBP */\n      0x05\n      add\n      0x00\n      swap1\n      sload\n      swap1\n      0x0100\n      exp\n      swap1\n      div\n      0xffff\n      and\n        /* \"TEXOToken.sol\":46185:46236  _amount... */\n      0xffff\n      and\n        /* \"TEXOToken.sol\":46185:46192  _amount */\n      dup8\n        /* \"TEXOToken.sol\":46185:46217  _amount... */\n      tag_199\n      swap1\n        /* \"TEXOToken.sol\":46185:46236  _amount... */\n      swap2\n      swap1\n      0xffffffff\n      and\n      jump\t// in\n    tag_380:\n        /* \"TEXOToken.sol\":46185:46261  _amount... */\n      tag_200\n      swap1\n        /* \"TEXOToken.sol\":46185:46268  _amount... */\n      swap2\n      swap1\n      0xffffffff\n      and\n      jump\t// in\n    tag_379:\n        /* \"TEXOToken.sol\":46164:46268  uint256 depositFee = _amount... */\n      swap1\n      pop\n        /* \"TEXOToken.sol\":46301:46383  user.amount... */\n      tag_381\n        /* \"TEXOToken.sol\":46372:46382  depositFee */\n      dup2\n        /* \"TEXOToken.sol\":46301:46346  user.amount... */\n      tag_382\n        /* \"TEXOToken.sol\":46338:46345  _amount */\n      dup7\n        /* \"TEXOToken.sol\":46301:46305  user */\n      dup6\n        /* \"TEXOToken.sol\":46301:46312  user.amount */\n      0x00\n      add\n      sload\n        /* \"TEXOToken.sol\":46301:46337  user.amount... */\n      tag_240\n      swap1\n        /* \"TEXOToken.sol\":46301:46346  user.amount... */\n      swap2\n      swap1\n      0xffffffff\n      and\n      jump\t// in\n    tag_382:\n        /* \"TEXOToken.sol\":46301:46371  user.amount... */\n      tag_201\n      swap1\n        /* \"TEXOToken.sol\":46301:46383  user.amount... */\n      swap2\n      swap1\n      0xffffffff\n      and\n      jump\t// in\n    tag_381:\n        /* \"TEXOToken.sol\":46287:46291  user */\n      dup3\n        /* \"TEXOToken.sol\":46287:46298  user.amount */\n      0x00\n      add\n        /* \"TEXOToken.sol\":46287:46383  user.amount = user.amount... */\n      dup2\n      swap1\n      sstore\n      pop\n        /* \"TEXOToken.sol\":46402:46451  pool.lpToken.safeTransfer(feeAddress, depositFee) */\n      tag_383\n        /* \"TEXOToken.sol\":46428:46438  feeAddress */\n      0x05\n      0x00\n      swap1\n      sload\n      swap1\n      0x0100\n      exp\n      swap1\n      div\n      0xffffffffffffffffffffffffffffffffffffffff\n      and\n        /* \"TEXOToken.sol\":46440:46450  depositFee */\n      dup3\n        /* \"TEXOToken.sol\":46402:46406  pool */\n      dup6\n        /* \"TEXOToken.sol\":46402:46414  pool.lpToken */\n      0x00\n      add\n      0x00\n      swap1\n      sload\n      swap1\n      0x0100\n      exp\n      swap1\n      div\n      0xffffffffffffffffffffffffffffffffffffffff\n      and\n        /* \"TEXOToken.sol\":46402:46427  pool.lpToken.safeTransfer */\n      0xffffffffffffffffffffffffffffffffffffffff\n      and\n      tag_213\n      swap1\n        /* \"TEXOToken.sol\":46402:46451  pool.lpToken.safeTransfer(feeAddress, depositFee) */\n      swap3\n      swap2\n      swap1\n      0xffffffff\n      and\n      jump\t// in\n    tag_383:\n        /* \"TEXOToken.sol\":46119:46543  if (pool.depositFeeBP > 0) {... */\n      pop\n      jump(tag_384)\n    tag_378:\n        /* \"TEXOToken.sol\":46504:46528  user.amount.add(_amount) */\n      tag_385\n        /* \"TEXOToken.sol\":46520:46527  _amount */\n      dup4\n        /* \"TEXOToken.sol\":46504:46508  user */\n      dup3\n        /* \"TEXOToken.sol\":46504:46515  user.amount */\n      0x00\n      add\n      sload\n        /* \"TEXOToken.sol\":46504:46519  user.amount.add */\n      tag_240\n      swap1\n        /* \"TEXOToken.sol\":46504:46528  user.amount.add(_amount) */\n      swap2\n      swap1\n      0xffffffff\n      and\n      jump\t// in\n    tag_385:\n        /* \"TEXOToken.sol\":46490:46494  user */\n      dup2\n        /* \"TEXOToken.sol\":46490:46501  user.amount */\n      0x00\n      add\n        /* \"TEXOToken.sol\":46490:46528  user.amount = user.amount.add(_amount) */\n      dup2\n      swap1\n      sstore\n      pop\n        /* \"TEXOToken.sol\":46119:46543  if (pool.depositFeeBP > 0) {... */\n    tag_384:\n        /* \"TEXOToken.sol\":45999:46553  if (_amount > 0) {... */\n    tag_376:\n        /* \"TEXOToken.sol\":46568:46572  user */\n      dup1\n        /* \"TEXOToken.sol\":46568:46588  user.isAlreadyStaked */\n      0x02\n      add\n      0x00\n      swap1\n      sload\n      swap1\n      0x0100\n      exp\n      swap1\n      div\n      0xff\n      and\n        /* \"TEXOToken.sol\":46563:46768  if (!user.isAlreadyStaked) {... */\n      tag_386\n      jumpi\n        /* \"TEXOToken.sol\":46622:46703  user.amount... */\n      tag_387\n        /* \"TEXOToken.sol\":46698:46702  1e12 */\n      0xe8d4a51000\n        /* \"TEXOToken.sol\":46622:46676  user.amount... */\n      tag_388\n        /* \"TEXOToken.sol\":46655:46659  pool */\n      dup5\n        /* \"TEXOToken.sol\":46655:46675  pool.accTEXOPerShare */\n      0x04\n      add\n      sload\n        /* \"TEXOToken.sol\":46622:46626  user */\n      dup5\n        /* \"TEXOToken.sol\":46622:46633  user.amount */\n      0x00\n      add\n      sload\n        /* \"TEXOToken.sol\":46622:46654  user.amount... */\n      tag_199\n      swap1\n        /* \"TEXOToken.sol\":46622:46676  user.amount... */\n      swap2\n      swap1\n      0xffffffff\n      and\n      jump\t// in\n    tag_388:\n        /* \"TEXOToken.sol\":46622:46697  user.amount... */\n      tag_200\n      swap1\n        /* \"TEXOToken.sol\":46622:46703  user.amount... */\n      swap2\n      swap1\n      0xffffffff\n      and\n      jump\t// in\n    tag_387:\n        /* \"TEXOToken.sol\":46604:46608  user */\n      dup2\n        /* \"TEXOToken.sol\":46604:46619  user.rewardDebt */\n      0x01\n      add\n        /* \"TEXOToken.sol\":46604:46703  user.rewardDebt = user.amount... */\n      dup2\n      swap1\n      sstore\n      pop\n        /* \"TEXOToken.sol\":46753:46757  true */\n      0x01\n        /* \"TEXOToken.sol\":46730:46734  user */\n      dup2\n        /* \"TEXOToken.sol\":46730:46750  user.isAlreadyStaked */\n      0x02\n      add\n      0x00\n        /* \"TEXOToken.sol\":46730:46757  user.isAlreadyStaked = true */\n      0x0100\n      exp\n      dup2\n      sload\n      dup2\n      0xff\n      mul\n      not\n      and\n      swap1\n      dup4\n      iszero\n      iszero\n      mul\n      or\n      swap1\n      sstore\n      pop\n        /* \"TEXOToken.sol\":46563:46768  if (!user.isAlreadyStaked) {... */\n    tag_386:\n        /* \"TEXOToken.sol\":46803:46807  _pid */\n      dup4\n        /* \"TEXOToken.sol\":46791:46801  msg.sender */\n      caller\n        /* \"TEXOToken.sol\":46783:46817  Deposit(msg.sender, _pid, _amount) */\n      0xffffffffffffffffffffffffffffffffffffffff\n      and\n      0x90890809c654f11d6e72a28fa60149770a0d11ec6c92319d6ceb2bb0a4ea1a15\n        /* \"TEXOToken.sol\":46809:46816  _amount */\n      dup6\n        /* \"TEXOToken.sol\":46783:46817  Deposit(msg.sender, _pid, _amount) */\n      mload(0x40)\n      dup1\n      dup3\n      dup2\n      mstore\n      0x20\n      add\n      swap2\n      pop\n      pop\n      mload(0x40)\n      dup1\n      swap2\n      sub\n      swap1\n      log3\n        /* \"TEXOToken.sol\":21944:21945  _ */\n      pop\n      pop\n        /* \"TEXOToken.sol\":21153:21154  1 */\n      0x01\n        /* \"TEXOToken.sol\":22088:22095  _status */\n      dup1\n        /* \"TEXOToken.sol\":22088:22110  _status = _NOT_ENTERED */\n      dup2\n      swap1\n      sstore\n      pop\n        /* \"TEXOToken.sol\":45285:46824  function deposit(uint256 _pid, uint256 _amount) public nonReentrant {... */\n      pop\n      pop\n      jump\t// out\n        /* \"TEXOToken.sol\":51474:52873  function reduceEmissionRateWithDefaultRate() public {... */\n    tag_170:\n        /* \"TEXOToken.sol\":51544:51569  isAllowReduceEmissionRate */\n      0x12\n      0x00\n      swap1\n      sload\n      swap1\n      0x0100\n      exp\n      swap1\n      div\n      0xff\n      and\n        /* \"TEXOToken.sol\":51536:51638  require(isAllowReduceEmissionRate, \"reduceEmissionRateWithDefaultRate: Permission flag not turned on\") */\n      tag_390\n      jumpi\n      mload(0x40)\n      0x08c379a000000000000000000000000000000000000000000000000000000000\n      dup2\n      mstore\n      0x04\n      add\n      dup1\n      dup1\n      0x20\n      add\n      dup3\n      dup2\n      sub\n      dup3\n      mstore\n      0x40\n      dup2\n      mstore\n      0x20\n      add\n      dup1\n      data_fb61bfab522ff5726f96c4cebf8c9bc7c68d529a173450ab2ca49eebd2ecf0bb\n      0x40\n      swap2\n      codecopy\n      0x40\n      add\n      swap2\n      pop\n      pop\n      mload(0x40)\n      dup1\n      swap2\n      sub\n      swap1\n      revert\n    tag_390:\n        /* \"TEXOToken.sol\":51671:51703  blockToStartReducingEmissionRate */\n      sload(0x06)\n        /* \"TEXOToken.sol\":51656:51668  block.number */\n      number\n        /* \"TEXOToken.sol\":51656:51703  block.number > blockToStartReducingEmissionRate */\n      gt\n        /* \"TEXOToken.sol\":51648:51790  require(block.number > blockToStartReducingEmissionRate, \"reduceEmissionRateWithDefaultRate: Can only be called after specified block starts\") */\n      tag_391\n      jumpi\n      mload(0x40)\n      0x08c379a000000000000000000000000000000000000000000000000000000000\n      dup2\n      mstore\n      0x04\n      add\n      dup1\n      dup1\n      0x20\n      add\n      dup3\n      dup2\n      sub\n      dup3\n      mstore\n      0x52\n      dup2\n      mstore\n      0x20\n      add\n      dup1\n      data_a827dd9c9a80825686eef28a9f1d2466e1d29b6da48280d16028581898989615\n      0x52\n      swap2\n      codecopy\n      0x60\n      add\n      swap2\n      pop\n      pop\n      mload(0x40)\n      dup1\n      swap2\n      sub\n      swap1\n      revert\n    tag_391:\n        /* \"TEXOToken.sol\":36978:36988  100 finney */\n      0x016345785d8a0000\n        /* \"TEXOToken.sol\":51808:51820  tEXOPerBlock */\n      sload(0x04)\n        /* \"TEXOToken.sol\":51808:51844  tEXOPerBlock > MINIMUM_EMISSION_RATE */\n      gt\n        /* \"TEXOToken.sol\":51800:51931  require(tEXOPerBlock > MINIMUM_EMISSION_RATE, \"reduceEmissionRateWithDefaultRate: Emission rate has reached the minimum threshold\") */\n      tag_392\n      jumpi\n      mload(0x40)\n      0x08c379a000000000000000000000000000000000000000000000000000000000\n      dup2\n      mstore\n      0x04\n      add\n      dup1\n      dup1\n      0x20\n      add\n      dup3\n      dup2\n      sub\n      dup3\n      mstore\n      0x52\n      dup2\n      mstore\n      0x20\n      add\n      dup1\n      data_d4e7846547be135afcf8a93a01a9053e9fa2c0d79f8d5448158422588210b6ab\n      0x52\n      swap2\n      codecopy\n      0x60\n      add\n      swap2\n      pop\n      pop\n      mload(0x40)\n      dup1\n      swap2\n      sub\n      swap1\n      revert\n    tag_392:\n        /* \"TEXOToken.sol\":51942:51962  uint256 currentIndex */\n      0x00\n        /* \"TEXOToken.sol\":51965:52053  block.number.sub(blockToStartReducingEmissionRate).div(EMISSION_REDUCTION_PERIOD_BLOCKS) */\n      tag_393\n        /* \"TEXOToken.sol\":37109:37114  28800 */\n      0x7080\n        /* \"TEXOToken.sol\":51965:52015  block.number.sub(blockToStartReducingEmissionRate) */\n      tag_394\n        /* \"TEXOToken.sol\":51982:52014  blockToStartReducingEmissionRate */\n      sload(0x06)\n        /* \"TEXOToken.sol\":51965:51977  block.number */\n      number\n        /* \"TEXOToken.sol\":51965:51981  block.number.sub */\n      tag_201\n      swap1\n        /* \"TEXOToken.sol\":51965:52015  block.number.sub(blockToStartReducingEmissionRate) */\n      swap2\n      swap1\n      0xffffffff\n      and\n      jump\t// in\n    tag_394:\n        /* \"TEXOToken.sol\":51965:52019  block.number.sub(blockToStartReducingEmissionRate).div */\n      tag_200\n      swap1\n        /* \"TEXOToken.sol\":51965:52053  block.number.sub(blockToStartReducingEmissionRate).div(EMISSION_REDUCTION_PERIOD_BLOCKS) */\n      swap2\n      swap1\n      0xffffffff\n      and\n      jump\t// in\n    tag_393:\n        /* \"TEXOToken.sol\":51942:52053  uint256 currentIndex = block.number.sub(blockToStartReducingEmissionRate).div(EMISSION_REDUCTION_PERIOD_BLOCKS) */\n      swap1\n      pop\n        /* \"TEXOToken.sol\":52083:52107  lastReductionPeriodIndex */\n      sload(0x11)\n        /* \"TEXOToken.sol\":52067:52079  currentIndex */\n      dup2\n        /* \"TEXOToken.sol\":52067:52107  currentIndex <= lastReductionPeriodIndex */\n      gt\n        /* \"TEXOToken.sol\":52063:52140  if (currentIndex <= lastReductionPeriodIndex) {... */\n      tag_395\n      jumpi\n        /* \"TEXOToken.sol\":52123:52130  return; */\n      pop\n      jump(tag_389)\n        /* \"TEXOToken.sol\":52063:52140  if (currentIndex <= lastReductionPeriodIndex) {... */\n    tag_395:\n        /* \"TEXOToken.sol\":52150:52173  uint256 newEmissionRate */\n      0x00\n        /* \"TEXOToken.sol\":52176:52188  tEXOPerBlock */\n      sload(0x04)\n        /* \"TEXOToken.sol\":52150:52188  uint256 newEmissionRate = tEXOPerBlock */\n      swap1\n      pop\n        /* \"TEXOToken.sol\":52203:52216  uint256 index */\n      0x00\n        /* \"TEXOToken.sol\":52219:52243  lastReductionPeriodIndex */\n      sload(0x11)\n        /* \"TEXOToken.sol\":52203:52243  uint256 index = lastReductionPeriodIndex */\n      swap1\n      pop\n        /* \"TEXOToken.sol\":52198:52423  for (uint256 index = lastReductionPeriodIndex; index < currentIndex; ++index) {... */\n    tag_396:\n        /* \"TEXOToken.sol\":52253:52265  currentIndex */\n      dup3\n        /* \"TEXOToken.sol\":52245:52250  index */\n      dup2\n        /* \"TEXOToken.sol\":52245:52265  index < currentIndex */\n      lt\n        /* \"TEXOToken.sol\":52198:52423  for (uint256 index = lastReductionPeriodIndex; index < currentIndex; ++index) {... */\n      iszero\n      tag_397\n      jumpi\n        /* \"TEXOToken.sol\":52308:52412  newEmissionRate... */\n      tag_399\n        /* \"TEXOToken.sol\":52408:52411  1e4 */\n      0x2710\n        /* \"TEXOToken.sol\":52308:52386  newEmissionRate... */\n      tag_400\n        /* \"TEXOToken.sol\":37245:37249  1500 */\n      0x05dc\n        /* \"TEXOToken.sol\":52345:52348  1e4 */\n      0x2710\n        /* \"TEXOToken.sol\":52345:52385  1e4 - EMISSION_REDUCTION_RATE_PER_PERIOD */\n      sub\n        /* \"TEXOToken.sol\":52308:52323  newEmissionRate */\n      dup6\n        /* \"TEXOToken.sol\":52308:52344  newEmissionRate... */\n      tag_199\n      swap1\n        /* \"TEXOToken.sol\":52308:52386  newEmissionRate... */\n      swap2\n      swap1\n      0xffffffff\n      and\n      jump\t// in\n    tag_400:\n        /* \"TEXOToken.sol\":52308:52407  newEmissionRate... */\n      tag_200\n      swap1\n        /* \"TEXOToken.sol\":52308:52412  newEmissionRate... */\n      swap2\n      swap1\n      0xffffffff\n      and\n      jump\t// in\n    tag_399:\n        /* \"TEXOToken.sol\":52290:52412  newEmissionRate = newEmissionRate... */\n      swap2\n      pop\n        /* \"TEXOToken.sol\":52267:52274  ++index */\n      dup1\n      0x01\n      add\n      swap1\n      pop\n        /* \"TEXOToken.sol\":52198:52423  for (uint256 index = lastReductionPeriodIndex; index < currentIndex; ++index) {... */\n      jump(tag_396)\n    tag_397:\n      pop\n        /* \"TEXOToken.sol\":36978:36988  100 finney */\n      0x016345785d8a0000\n        /* \"TEXOToken.sol\":52451:52466  newEmissionRate */\n      dup2\n        /* \"TEXOToken.sol\":52451:52490  newEmissionRate < MINIMUM_EMISSION_RATE */\n      lt\n        /* \"TEXOToken.sol\":52451:52532  newEmissionRate < MINIMUM_EMISSION_RATE ? MINIMUM_EMISSION_RATE : newEmissionRate */\n      tag_401\n      jumpi\n        /* \"TEXOToken.sol\":52517:52532  newEmissionRate */\n      dup1\n        /* \"TEXOToken.sol\":52451:52532  newEmissionRate < MINIMUM_EMISSION_RATE ? MINIMUM_EMISSION_RATE : newEmissionRate */\n      jump(tag_402)\n    tag_401:\n        /* \"TEXOToken.sol\":36978:36988  100 finney */\n      0x016345785d8a0000\n        /* \"TEXOToken.sol\":52451:52532  newEmissionRate < MINIMUM_EMISSION_RATE ? MINIMUM_EMISSION_RATE : newEmissionRate */\n    tag_402:\n        /* \"TEXOToken.sol\":52433:52532  newEmissionRate = newEmissionRate < MINIMUM_EMISSION_RATE ? MINIMUM_EMISSION_RATE : newEmissionRate */\n      swap1\n      pop\n        /* \"TEXOToken.sol\":52565:52577  tEXOPerBlock */\n      sload(0x04)\n        /* \"TEXOToken.sol\":52546:52561  newEmissionRate */\n      dup2\n        /* \"TEXOToken.sol\":52546:52577  newEmissionRate >= tEXOPerBlock */\n      lt\n        /* \"TEXOToken.sol\":52542:52610  if (newEmissionRate >= tEXOPerBlock) {... */\n      tag_403\n      jumpi\n        /* \"TEXOToken.sol\":52593:52600  return; */\n      pop\n      pop\n      jump(tag_389)\n        /* \"TEXOToken.sol\":52542:52610  if (newEmissionRate >= tEXOPerBlock) {... */\n    tag_403:\n        /* \"TEXOToken.sol\":52620:52637  massUpdatePools() */\n      tag_404\n        /* \"TEXOToken.sol\":52620:52635  massUpdatePools */\n      tag_99\n        /* \"TEXOToken.sol\":52620:52637  massUpdatePools() */\n      jump\t// in\n    tag_404:\n        /* \"TEXOToken.sol\":52675:52687  currentIndex */\n      dup2\n        /* \"TEXOToken.sol\":52648:52672  lastReductionPeriodIndex */\n      0x11\n        /* \"TEXOToken.sol\":52648:52687  lastReductionPeriodIndex = currentIndex */\n      dup2\n      swap1\n      sstore\n      pop\n        /* \"TEXOToken.sol\":52697:52725  uint256 previousEmissionRate */\n      0x00\n        /* \"TEXOToken.sol\":52728:52740  tEXOPerBlock */\n      sload(0x04)\n        /* \"TEXOToken.sol\":52697:52740  uint256 previousEmissionRate = tEXOPerBlock */\n      swap1\n      pop\n        /* \"TEXOToken.sol\":52765:52780  newEmissionRate */\n      dup2\n        /* \"TEXOToken.sol\":52750:52762  tEXOPerBlock */\n      0x04\n        /* \"TEXOToken.sol\":52750:52780  tEXOPerBlock = newEmissionRate */\n      dup2\n      swap1\n      sstore\n      pop\n        /* \"TEXOToken.sol\":52816:52826  msg.sender */\n      caller\n        /* \"TEXOToken.sol\":52796:52866  EmissionRateUpdated(msg.sender, previousEmissionRate, newEmissionRate) */\n      0xffffffffffffffffffffffffffffffffffffffff\n      and\n      0xeedc6338c9c1ad8f3cd6c90dd09dbe98dbd57e610d3e59a17996d07acb0d9511\n        /* \"TEXOToken.sol\":52828:52848  previousEmissionRate */\n      dup3\n        /* \"TEXOToken.sol\":52850:52865  newEmissionRate */\n      dup5\n        /* \"TEXOToken.sol\":52796:52866  EmissionRateUpdated(msg.sender, previousEmissionRate, newEmissionRate) */\n      mload(0x40)\n      dup1\n      dup4\n      dup2\n      mstore\n      0x20\n      add\n      dup3\n      dup2\n      mstore\n      0x20\n      add\n      swap3\n      pop\n      pop\n      pop\n      mload(0x40)\n      dup1\n      swap2\n      sub\n      swap1\n      log2\n        /* \"TEXOToken.sol\":51474:52873  function reduceEmissionRateWithDefaultRate() public {... */\n      pop\n      pop\n      pop\n    tag_389:\n      jump\t// out\n        /* \"TEXOToken.sol\":12358:12465  function transferOwnership(address newOwner) public onlyOwner {... */\n    tag_173:\n        /* \"TEXOToken.sol\":11663:11675  _msgSender() */\n      tag_406\n        /* \"TEXOToken.sol\":11663:11673  _msgSender */\n      tag_184\n        /* \"TEXOToken.sol\":11663:11675  _msgSender() */\n      jump\t// in\n    tag_406:\n        /* \"TEXOToken.sol\":11653:11675  _owner == _msgSender() */\n      0xffffffffffffffffffffffffffffffffffffffff\n      and\n        /* \"TEXOToken.sol\":11653:11659  _owner */\n      0x00\n      dup1\n      sload\n      swap1\n      0x0100\n      exp\n      swap1\n      div\n      0xffffffffffffffffffffffffffffffffffffffff\n      and\n        /* \"TEXOToken.sol\":11653:11675  _owner == _msgSender() */\n      0xffffffffffffffffffffffffffffffffffffffff\n      and\n      eq\n        /* \"TEXOToken.sol\":11645:11712  require(_owner == _msgSender(), \"Ownable: caller is not the owner\") */\n      tag_407\n      jumpi\n      mload(0x40)\n      0x08c379a000000000000000000000000000000000000000000000000000000000\n      dup2\n      mstore\n      0x04\n      add\n      dup1\n      dup1\n      0x20\n      add\n      dup3\n      dup2\n      sub\n      dup3\n      mstore\n      0x20\n      dup2\n      mstore\n      0x20\n      add\n      dup1\n      0x4f776e61626c653a2063616c6c6572206973206e6f7420746865206f776e6572\n      dup2\n      mstore\n      pop\n      0x20\n      add\n      swap2\n      pop\n      pop\n      mload(0x40)\n      dup1\n      swap2\n      sub\n      swap1\n      revert\n    tag_407:\n        /* \"TEXOToken.sol\":12430:12458  _transferOwnership(newOwner) */\n      tag_409\n        /* \"TEXOToken.sol\":12449:12457  newOwner */\n      dup2\n        /* \"TEXOToken.sol\":12430:12448  _transferOwnership */\n      tag_410\n        /* \"TEXOToken.sol\":12430:12458  _transferOwnership(newOwner) */\n      jump\t// in\n    tag_409:\n        /* \"TEXOToken.sol\":12358:12465  function transferOwnership(address newOwner) public onlyOwner {... */\n      pop\n      jump\t// out\n        /* \"TEXOToken.sol\":39901:41062  function add(... */\n    tag_176:\n        /* \"TEXOToken.sol\":11663:11675  _msgSender() */\n      tag_412\n        /* \"TEXOToken.sol\":11663:11673  _msgSender */\n      tag_184\n        /* \"TEXOToken.sol\":11663:11675  _msgSender() */\n      jump\t// in\n    tag_412:\n        /* \"TEXOToken.sol\":11653:11675  _owner == _msgSender() */\n      0xffffffffffffffffffffffffffffffffffffffff\n      and\n        /* \"TEXOToken.sol\":11653:11659  _owner */\n      0x00\n      dup1\n      sload\n      swap1\n      0x0100\n      exp\n      swap1\n      div\n      0xffffffffffffffffffffffffffffffffffffffff\n      and\n        /* \"TEXOToken.sol\":11653:11675  _owner == _msgSender() */\n      0xffffffffffffffffffffffffffffffffffffffff\n      and\n      eq\n        /* \"TEXOToken.sol\":11645:11712  require(_owner == _msgSender(), \"Ownable: caller is not the owner\") */\n      tag_413\n      jumpi\n      mload(0x40)\n      0x08c379a000000000000000000000000000000000000000000000000000000000\n      dup2\n      mstore\n      0x04\n      add\n      dup1\n      dup1\n      0x20\n      add\n      dup3\n      dup2\n      sub\n      dup3\n      mstore\n      0x20\n      dup2\n      mstore\n      0x20\n      add\n      dup1\n      0x4f776e61626c653a2063616c6c6572206973206e6f7420746865206f776e6572\n      dup2\n      mstore\n      pop\n      0x20\n      add\n      swap2\n      pop\n      pop\n      mload(0x40)\n      dup1\n      swap2\n      sub\n      swap1\n      revert\n    tag_413:\n        /* \"TEXOToken.sol\":40112:40120  _lpToken */\n      dup4\n        /* \"TEXOToken.sol\":39776:39781  false */\n      0x00\n        /* \"TEXOToken.sol\":39749:39781  poolExistence[_lpToken] == false */\n      iszero\n      iszero\n        /* \"TEXOToken.sol\":39749:39762  poolExistence */\n      0x0f\n        /* \"TEXOToken.sol\":39749:39772  poolExistence[_lpToken] */\n      0x00\n        /* \"TEXOToken.sol\":39763:39771  _lpToken */\n      dup4\n        /* \"TEXOToken.sol\":39749:39772  poolExistence[_lpToken] */\n      0xffffffffffffffffffffffffffffffffffffffff\n      and\n      0xffffffffffffffffffffffffffffffffffffffff\n      and\n      dup2\n      mstore\n      0x20\n      add\n      swap1\n      dup2\n      mstore\n      0x20\n      add\n      0x00\n      keccak256\n      0x00\n      swap1\n      sload\n      swap1\n      0x0100\n      exp\n      swap1\n      div\n      0xff\n      and\n        /* \"TEXOToken.sol\":39749:39781  poolExistence[_lpToken] == false */\n      iszero\n      iszero\n      eq\n        /* \"TEXOToken.sol\":39741:39811  require(poolExistence[_lpToken] == false, \"nonDuplicated: duplicated\") */\n      tag_415\n      jumpi\n      mload(0x40)\n      0x08c379a000000000000000000000000000000000000000000000000000000000\n      dup2\n      mstore\n      0x04\n      add\n      dup1\n      dup1\n      0x20\n      add\n      dup3\n      dup2\n      sub\n      dup3\n      mstore\n      0x19\n      dup2\n      mstore\n      0x20\n      add\n      dup1\n      0x6e6f6e4475706c6963617465643a206475706c69636174656400000000000000\n      dup2\n      mstore\n      pop\n      0x20\n      add\n      swap2\n      pop\n      pop\n      mload(0x40)\n      dup1\n      swap2\n      sub\n      swap1\n      revert\n    tag_415:\n        /* \"TEXOToken.sol\":36287:36291  1000 */\n      0x03e8\n        /* \"TEXOToken.sol\":40140:40179  _depositFeeBP <= MAXIMUM_DEPOSIT_FEE_BP */\n      0xffff\n      and\n        /* \"TEXOToken.sol\":40140:40153  _depositFeeBP */\n      dup5\n        /* \"TEXOToken.sol\":40140:40179  _depositFeeBP <= MAXIMUM_DEPOSIT_FEE_BP */\n      0xffff\n      and\n      gt\n      iszero\n        /* \"TEXOToken.sol\":40132:40221  require(_depositFeeBP <= MAXIMUM_DEPOSIT_FEE_BP, \"add: invalid deposit fee basis points\") */\n      tag_417\n      jumpi\n      mload(0x40)\n      0x08c379a000000000000000000000000000000000000000000000000000000000\n      dup2\n      mstore\n      0x04\n      add\n      dup1\n      dup1\n      0x20\n      add\n      dup3\n      dup2\n      sub\n      dup3\n      mstore\n      0x25\n      dup2\n      mstore\n      0x20\n      add\n      dup1\n      data_0ecf01aeb804f0ae223eada9d16893a9009cdcbe208d348705dc613f9a9f5331\n      0x25\n      swap2\n      codecopy\n      0x40\n      add\n      swap2\n      pop\n      pop\n      mload(0x40)\n      dup1\n      swap2\n      sub\n      swap1\n      revert\n    tag_417:\n        /* \"TEXOToken.sol\":40236:40247  _withUpdate */\n      dup3\n        /* \"TEXOToken.sol\":40232:40291  if (_withUpdate) {... */\n      iszero\n      tag_418\n      jumpi\n        /* \"TEXOToken.sol\":40263:40280  massUpdatePools() */\n      tag_419\n        /* \"TEXOToken.sol\":40263:40278  massUpdatePools */\n      tag_99\n        /* \"TEXOToken.sol\":40263:40280  massUpdatePools() */\n      jump\t// in\n    tag_419:\n        /* \"TEXOToken.sol\":40232:40291  if (_withUpdate) {... */\n    tag_418:\n        /* \"TEXOToken.sol\":40301:40329  uint256 blockToReceiveReward */\n      0x00\n        /* \"TEXOToken.sol\":40332:40366  globalBlockToUnlockClaimingRewards */\n      sload(0x07)\n        /* \"TEXOToken.sol\":40301:40366  uint256 blockToReceiveReward = globalBlockToUnlockClaimingRewards */\n      swap1\n      pop\n        /* \"TEXOToken.sol\":40417:40418  0 */\n      0x00\n        /* \"TEXOToken.sol\":40381:40414  _blockCountToReceiveRewardFromNow */\n      dup4\n        /* \"TEXOToken.sol\":40381:40418  _blockCountToReceiveRewardFromNow > 0 */\n      gt\n        /* \"TEXOToken.sol\":40377:40516  if (_blockCountToReceiveRewardFromNow > 0) {... */\n      iszero\n      tag_420\n      jumpi\n        /* \"TEXOToken.sol\":40472:40505  _blockCountToReceiveRewardFromNow */\n      dup3\n        /* \"TEXOToken.sol\":40457:40469  block.number */\n      number\n        /* \"TEXOToken.sol\":40457:40505  block.number + _blockCountToReceiveRewardFromNow */\n      add\n        /* \"TEXOToken.sol\":40434:40505  blockToReceiveReward = block.number + _blockCountToReceiveRewardFromNow */\n      swap1\n      pop\n        /* \"TEXOToken.sol\":40377:40516  if (_blockCountToReceiveRewardFromNow > 0) {... */\n    tag_420:\n        /* \"TEXOToken.sol\":40545:40577  totalAllocPoint.add(_allocPoint) */\n      tag_421\n        /* \"TEXOToken.sol\":40565:40576  _allocPoint */\n      dup8\n        /* \"TEXOToken.sol\":40545:40560  totalAllocPoint */\n      sload(0x0b)\n        /* \"TEXOToken.sol\":40545:40564  totalAllocPoint.add */\n      tag_240\n      swap1\n        /* \"TEXOToken.sol\":40545:40577  totalAllocPoint.add(_allocPoint) */\n      swap2\n      swap1\n      0xffffffff\n      and\n      jump\t// in\n    tag_421:\n        /* \"TEXOToken.sol\":40527:40542  totalAllocPoint */\n      0x0b\n        /* \"TEXOToken.sol\":40527:40577  totalAllocPoint = totalAllocPoint.add(_allocPoint) */\n      dup2\n      swap1\n      sstore\n      pop\n        /* \"TEXOToken.sol\":40613:40617  true */\n      0x01\n        /* \"TEXOToken.sol\":40587:40600  poolExistence */\n      0x0f\n        /* \"TEXOToken.sol\":40587:40610  poolExistence[_lpToken] */\n      0x00\n        /* \"TEXOToken.sol\":40601:40609  _lpToken */\n      dup9\n        /* \"TEXOToken.sol\":40587:40610  poolExistence[_lpToken] */\n      0xffffffffffffffffffffffffffffffffffffffff\n      and\n      0xffffffffffffffffffffffffffffffffffffffff\n      and\n      dup2\n      mstore\n      0x20\n      add\n      swap1\n      dup2\n      mstore\n      0x20\n      add\n      0x00\n      keccak256\n      0x00\n        /* \"TEXOToken.sol\":40587:40617  poolExistence[_lpToken] = true */\n      0x0100\n      exp\n      dup2\n      sload\n      dup2\n      0xff\n      mul\n      not\n      and\n      swap1\n      dup4\n      iszero\n      iszero\n      mul\n      or\n      swap1\n      sstore\n      pop\n        /* \"TEXOToken.sol\":40628:40636  poolInfo */\n      0x09\n        /* \"TEXOToken.sol\":40655:40984  PoolInfo({... */\n      mload(0x40)\n      dup1\n      0xc0\n      add\n      0x40\n      mstore\n      dup1\n        /* \"TEXOToken.sol\":40691:40699  _lpToken */\n      dup9\n        /* \"TEXOToken.sol\":40655:40984  PoolInfo({... */\n      0xffffffffffffffffffffffffffffffffffffffff\n      and\n      dup2\n      mstore\n      0x20\n      add\n        /* \"TEXOToken.sol\":40729:40740  _allocPoint */\n      dup10\n        /* \"TEXOToken.sol\":40655:40984  PoolInfo({... */\n      dup2\n      mstore\n      0x20\n      add\n        /* \"TEXOToken.sol\":40949:40969  blockToReceiveReward */\n      dup4\n        /* \"TEXOToken.sol\":40655:40984  PoolInfo({... */\n      dup2\n      mstore\n      0x20\n      add\n        /* \"TEXOToken.sol\":40790:40800  startBlock */\n      sload(0x08)\n        /* \"TEXOToken.sol\":40775:40787  block.number */\n      number\n        /* \"TEXOToken.sol\":40775:40800  block.number > startBlock */\n      gt\n        /* \"TEXOToken.sol\":40775:40828  block.number > startBlock ? block.number : startBlock */\n      tag_422\n      jumpi\n        /* \"TEXOToken.sol\":40818:40828  startBlock */\n      sload(0x08)\n        /* \"TEXOToken.sol\":40775:40828  block.number > startBlock ? block.number : startBlock */\n      jump(tag_423)\n    tag_422:\n        /* \"TEXOToken.sol\":40803:40815  block.number */\n      number\n        /* \"TEXOToken.sol\":40775:40828  block.number > startBlock ? block.number : startBlock */\n    tag_423:\n        /* \"TEXOToken.sol\":40655:40984  PoolInfo({... */\n      dup2\n      mstore\n      0x20\n      add\n        /* \"TEXOToken.sol\":40863:40864  0 */\n      0x00\n        /* \"TEXOToken.sol\":40655:40984  PoolInfo({... */\n      dup2\n      mstore\n      0x20\n      add\n        /* \"TEXOToken.sol\":40896:40909  _depositFeeBP */\n      dup8\n        /* \"TEXOToken.sol\":40655:40984  PoolInfo({... */\n      0xffff\n      and\n      dup2\n      mstore\n      pop\n        /* \"TEXOToken.sol\":40628:40994  poolInfo.push(... */\n      swap1\n      dup1\n      0x01\n      dup2\n      sload\n      add\n      dup1\n      dup3\n      sstore\n      dup1\n      swap2\n      pop\n      pop\n      0x01\n      swap1\n      sub\n      swap1\n      0x00\n      mstore\n      keccak256(0x00, 0x20)\n      swap1\n      0x06\n      mul\n      add\n      0x00\n      swap1\n      swap2\n      swap1\n      swap2\n      swap1\n      swap2\n      pop\n      0x00\n      dup3\n      add\n      mload\n      dup2\n      0x00\n      add\n      exp(0x0100, 0x00)\n      dup2\n      sload\n      dup2\n      0xffffffffffffffffffffffffffffffffffffffff\n      mul\n      not\n      and\n      swap1\n      dup4\n      0xffffffffffffffffffffffffffffffffffffffff\n      and\n      mul\n      or\n      swap1\n      sstore\n      pop\n      0x20\n      dup3\n      add\n      mload\n      dup2\n      0x01\n      add\n      sstore\n      0x40\n      dup3\n      add\n      mload\n      dup2\n      0x02\n      add\n      sstore\n      0x60\n      dup3\n      add\n      mload\n      dup2\n      0x03\n      add\n      sstore\n      0x80\n      dup3\n      add\n      mload\n      dup2\n      0x04\n      add\n      sstore\n      0xa0\n      dup3\n      add\n      mload\n      dup2\n      0x05\n      add\n      exp(0x0100, 0x00)\n      dup2\n      sload\n      dup2\n      0xffff\n      mul\n      not\n      and\n      swap1\n      dup4\n      0xffff\n      and\n      mul\n      or\n      swap1\n      sstore\n      pop\n      pop\n      pop\n        /* \"TEXOToken.sol\":41054:41055  1 */\n      0x01\n        /* \"TEXOToken.sol\":41036:41044  poolInfo */\n      0x09\n        /* \"TEXOToken.sol\":41036:41051  poolInfo.length */\n      dup1\n      sload\n      swap1\n      pop\n        /* \"TEXOToken.sol\":41036:41055  poolInfo.length - 1 */\n      sub\n        /* \"TEXOToken.sol\":41005:41023  poolIdForLpAddress */\n      0x10\n        /* \"TEXOToken.sol\":41005:41033  poolIdForLpAddress[_lpToken] */\n      0x00\n        /* \"TEXOToken.sol\":41024:41032  _lpToken */\n      dup9\n        /* \"TEXOToken.sol\":41005:41033  poolIdForLpAddress[_lpToken] */\n      0xffffffffffffffffffffffffffffffffffffffff\n      and\n      0xffffffffffffffffffffffffffffffffffffffff\n      and\n      dup2\n      mstore\n      0x20\n      add\n      swap1\n      dup2\n      mstore\n      0x20\n      add\n      0x00\n      keccak256\n        /* \"TEXOToken.sol\":41005:41055  poolIdForLpAddress[_lpToken] = poolInfo.length - 1 */\n      dup2\n      swap1\n      sstore\n      pop\n        /* \"TEXOToken.sol\":39821:39822  _ */\n      pop\n        /* \"TEXOToken.sol\":11722:11723  _ */\n      pop\n        /* \"TEXOToken.sol\":39901:41062  function add(... */\n      pop\n      pop\n      pop\n      pop\n      pop\n      jump\t// out\n        /* \"TEXOToken.sol\":5955:6051  function _msgSender() internal view returns (address payable) {... */\n    tag_184:\n        /* \"TEXOToken.sol\":6000:6015  address payable */\n      0x00\n        /* \"TEXOToken.sol\":6034:6044  msg.sender */\n      caller\n        /* \"TEXOToken.sol\":6027:6044  return msg.sender */\n      swap1\n      pop\n        /* \"TEXOToken.sol\":5955:6051  function _msgSender() internal view returns (address payable) {... */\n      swap1\n      jump\t// out\n        /* \"TEXOToken.sol\":2185:2644  function mul(uint256 a, uint256 b) internal pure returns (uint256) {... */\n    tag_199:\n        /* \"TEXOToken.sol\":2243:2250  uint256 */\n      0x00\n        /* \"TEXOToken.sol\":2489:2490  0 */\n      dup1\n        /* \"TEXOToken.sol\":2484:2485  a */\n      dup4\n        /* \"TEXOToken.sol\":2484:2490  a == 0 */\n      eq\n        /* \"TEXOToken.sol\":2480:2525  if (a == 0) {... */\n      iszero\n      tag_427\n      jumpi\n        /* \"TEXOToken.sol\":2513:2514  0 */\n      0x00\n        /* \"TEXOToken.sol\":2506:2514  return 0 */\n      swap1\n      pop\n      jump(tag_426)\n        /* \"TEXOToken.sol\":2480:2525  if (a == 0) {... */\n    tag_427:\n        /* \"TEXOToken.sol\":2535:2544  uint256 c */\n      0x00\n        /* \"TEXOToken.sol\":2551:2552  b */\n      dup3\n        /* \"TEXOToken.sol\":2547:2548  a */\n      dup5\n        /* \"TEXOToken.sol\":2547:2552  a * b */\n      mul\n        /* \"TEXOToken.sol\":2535:2552  uint256 c = a * b */\n      swap1\n      pop\n        /* \"TEXOToken.sol\":2579:2580  b */\n      dup3\n        /* \"TEXOToken.sol\":2574:2575  a */\n      dup5\n        /* \"TEXOToken.sol\":2570:2571  c */\n      dup3\n        /* \"TEXOToken.sol\":2570:2575  c / a */\n      dup2\n      tag_428\n      jumpi\n      invalid\n    tag_428:\n      div\n        /* \"TEXOToken.sol\":2570:2580  c / a == b */\n      eq\n        /* \"TEXOToken.sol\":2562:2618  require(c / a == b, \"SafeMath: multiplication overflow\") */\n      tag_429\n      jumpi\n      mload(0x40)\n      0x08c379a000000000000000000000000000000000000000000000000000000000\n      dup2\n      mstore\n      0x04\n      add\n      dup1\n      dup1\n      0x20\n      add\n      dup3\n      dup2\n      sub\n      dup3\n      mstore\n      0x21\n      dup2\n      mstore\n      0x20\n      add\n      dup1\n      data_9113bb53c2876a3805b2c9242029423fc540a728243ce887ab24c82cf119fba3\n      0x21\n      swap2\n      codecopy\n      0x40\n      add\n      swap2\n      pop\n      pop\n      mload(0x40)\n      dup1\n      swap2\n      sub\n      swap1\n      revert\n    tag_429:\n        /* \"TEXOToken.sol\":2636:2637  c */\n      dup1\n        /* \"TEXOToken.sol\":2629:2637  return c */\n      swap2\n      pop\n      pop\n        /* \"TEXOToken.sol\":2185:2644  function mul(uint256 a, uint256 b) internal pure returns (uint256) {... */\n    tag_426:\n      swap3\n      swap2\n      pop\n      pop\n      jump\t// out\n        /* \"TEXOToken.sol\":3099:3229  function div(uint256 a, uint256 b) internal pure returns (uint256) {... */\n    tag_200:\n        /* \"TEXOToken.sol\":3157:3164  uint256 */\n      0x00\n        /* \"TEXOToken.sol\":3183:3222  div(a, b, \"SafeMath: division by zero\") */\n      tag_431\n        /* \"TEXOToken.sol\":3187:3188  a */\n      dup4\n        /* \"TEXOToken.sol\":3190:3191  b */\n      dup4\n        /* \"TEXOToken.sol\":3183:3222  div(a, b, \"SafeMath: division by zero\") */\n      mload(0x40)\n      dup1\n      0x40\n      add\n      0x40\n      mstore\n      dup1\n      0x1a\n      dup2\n      mstore\n      0x20\n      add\n      0x536166654d6174683a206469766973696f6e206279207a65726f000000000000\n      dup2\n      mstore\n      pop\n        /* \"TEXOToken.sol\":3183:3186  div */\n      tag_432\n        /* \"TEXOToken.sol\":3183:3222  div(a, b, \"SafeMath: division by zero\") */\n      jump\t// in\n    tag_431:\n        /* \"TEXOToken.sol\":3176:3222  return div(a, b, \"SafeMath: division by zero\") */\n      swap1\n      pop\n        /* \"TEXOToken.sol\":3099:3229  function div(uint256 a, uint256 b) internal pure returns (uint256) {... */\n      swap3\n      swap2\n      pop\n      pop\n      jump\t// out\n        /* \"TEXOToken.sol\":1340:1474  function sub(uint256 a, uint256 b) internal pure returns (uint256) {... */\n    tag_201:\n        /* \"TEXOToken.sol\":1398:1405  uint256 */\n      0x00\n        /* \"TEXOToken.sol\":1424:1467  sub(a, b, \"SafeMath: subtraction overflow\") */\n      tag_434\n        /* \"TEXOToken.sol\":1428:1429  a */\n      dup4\n        /* \"TEXOToken.sol\":1431:1432  b */\n      dup4\n        /* \"TEXOToken.sol\":1424:1467  sub(a, b, \"SafeMath: subtraction overflow\") */\n      mload(0x40)\n      dup1\n      0x40\n      add\n      0x40\n      mstore\n      dup1\n      0x1e\n      dup2\n      mstore\n      0x20\n      add\n      0x536166654d6174683a207375627472616374696f6e206f766572666c6f770000\n      dup2\n      mstore\n      pop\n        /* \"TEXOToken.sol\":1424:1427  sub */\n      tag_435\n        /* \"TEXOToken.sol\":1424:1467  sub(a, b, \"SafeMath: subtraction overflow\") */\n      jump\t// in\n    tag_434:\n        /* \"TEXOToken.sol\":1417:1467  return sub(a, b, \"SafeMath: subtraction overflow\") */\n      swap1\n      pop\n        /* \"TEXOToken.sol\":1340:1474  function sub(uint256 a, uint256 b) internal pure returns (uint256) {... */\n      swap3\n      swap2\n      pop\n      pop\n      jump\t// out\n        /* \"TEXOToken.sol\":50247:50666  function safeTEXOTransfer(address _to, uint256 _amount) internal {... */\n    tag_205:\n        /* \"TEXOToken.sol\":50322:50337  uint256 tEXOBal */\n      0x00\n        /* \"TEXOToken.sol\":50340:50344  tEXO */\n      0x02\n      0x00\n      swap1\n      sload\n      swap1\n      0x0100\n      exp\n      swap1\n      div\n      0xffffffffffffffffffffffffffffffffffffffff\n      and\n        /* \"TEXOToken.sol\":50340:50354  tEXO.balanceOf */\n      0xffffffffffffffffffffffffffffffffffffffff\n      and\n      0x70a08231\n        /* \"TEXOToken.sol\":50363:50367  this */\n      address\n        /* \"TEXOToken.sol\":50340:50369  tEXO.balanceOf(address(this)) */\n      mload(0x40)\n      dup3\n      0xffffffff\n      and\n      0xe0\n      shl\n      dup2\n      mstore\n      0x04\n      add\n      dup1\n      dup3\n      0xffffffffffffffffffffffffffffffffffffffff\n      and\n      dup2\n      mstore\n      0x20\n      add\n      swap2\n      pop\n      pop\n      0x20\n      mload(0x40)\n      dup1\n      dup4\n      sub\n      dup2\n      dup7\n      dup1\n      extcodesize\n      iszero\n      dup1\n      iszero\n      tag_437\n      jumpi\n      0x00\n      dup1\n      revert\n    tag_437:\n      pop\n      gas\n      staticcall\n      iszero\n      dup1\n      iszero\n      tag_439\n      jumpi\n      returndatasize\n      0x00\n      dup1\n      returndatacopy\n      revert(0x00, returndatasize)\n    tag_439:\n      pop\n      pop\n      pop\n      pop\n      mload(0x40)\n      returndatasize\n      0x20\n      dup2\n      lt\n      iszero\n      tag_440\n      jumpi\n      0x00\n      dup1\n      revert\n    tag_440:\n      dup2\n      add\n      swap1\n      dup1\n      dup1\n      mload\n      swap1\n      0x20\n      add\n      swap1\n      swap3\n      swap2\n      swap1\n      pop\n      pop\n      pop\n        /* \"TEXOToken.sol\":50322:50369  uint256 tEXOBal = tEXO.balanceOf(address(this)) */\n      swap1\n      pop\n        /* \"TEXOToken.sol\":50379:50399  bool transferSuccess */\n      0x00\n        /* \"TEXOToken.sol\":50432:50439  tEXOBal */\n      dup2\n        /* \"TEXOToken.sol\":50422:50429  _amount */\n      dup4\n        /* \"TEXOToken.sol\":50422:50439  _amount > tEXOBal */\n      gt\n        /* \"TEXOToken.sol\":50418:50587  if (_amount > tEXOBal) {... */\n      iszero\n      tag_441\n      jumpi\n        /* \"TEXOToken.sol\":50473:50477  tEXO */\n      0x02\n      0x00\n      swap1\n      sload\n      swap1\n      0x0100\n      exp\n      swap1\n      div\n      0xffffffffffffffffffffffffffffffffffffffff\n      and\n        /* \"TEXOToken.sol\":50473:50486  tEXO.transfer */\n      0xffffffffffffffffffffffffffffffffffffffff\n      and\n      0xa9059cbb\n        /* \"TEXOToken.sol\":50487:50490  _to */\n      dup6\n        /* \"TEXOToken.sol\":50492:50499  tEXOBal */\n      dup5\n        /* \"TEXOToken.sol\":50473:50500  tEXO.transfer(_to, tEXOBal) */\n      mload(0x40)\n      dup4\n      0xffffffff\n      and\n      0xe0\n      shl\n      dup2\n      mstore\n      0x04\n      add\n      dup1\n      dup4\n      0xffffffffffffffffffffffffffffffffffffffff\n      and\n      dup2\n      mstore\n      0x20\n      add\n      dup3\n      dup2\n      mstore\n      0x20\n      add\n      swap3\n      pop\n      pop\n      pop\n      0x20\n      mload(0x40)\n      dup1\n      dup4\n      sub\n      dup2\n      0x00\n      dup8\n      dup1\n      extcodesize\n      iszero\n      dup1\n      iszero\n      tag_442\n      jumpi\n      0x00\n      dup1\n      revert\n    tag_442:\n      pop\n      gas\n      call\n      iszero\n      dup1\n      iszero\n      tag_444\n      jumpi\n      returndatasize\n      0x00\n      dup1\n      returndatacopy\n      revert(0x00, returndatasize)\n    tag_444:\n      pop\n      pop\n      pop\n      pop\n      mload(0x40)\n      returndatasize\n      0x20\n      dup2\n      lt\n      iszero\n      tag_445\n      jumpi\n      0x00\n      dup1\n      revert\n    tag_445:\n      dup2\n      add\n      swap1\n      dup1\n      dup1\n      mload\n      swap1\n      0x20\n      add\n      swap1\n      swap3\n      swap2\n      swap1\n      pop\n      pop\n      pop\n        /* \"TEXOToken.sol\":50455:50500  transferSuccess = tEXO.transfer(_to, tEXOBal) */\n      swap1\n      pop\n        /* \"TEXOToken.sol\":50418:50587  if (_amount > tEXOBal) {... */\n      jump(tag_446)\n    tag_441:\n        /* \"TEXOToken.sol\":50549:50553  tEXO */\n      0x02\n      0x00\n      swap1\n      sload\n      swap1\n      0x0100\n      exp\n      swap1\n      div\n      0xffffffffffffffffffffffffffffffffffffffff\n      and\n        /* \"TEXOToken.sol\":50549:50562  tEXO.transfer */\n      0xffffffffffffffffffffffffffffffffffffffff\n      and\n      0xa9059cbb\n        /* \"TEXOToken.sol\":50563:50566  _to */\n      dup6\n        /* \"TEXOToken.sol\":50568:50575  _amount */\n      dup6\n        /* \"TEXOToken.sol\":50549:50576  tEXO.transfer(_to, _amount) */\n      mload(0x40)\n      dup4\n      0xffffffff\n      and\n      0xe0\n      shl\n      dup2\n      mstore\n      0x04\n      add\n      dup1\n      dup4\n      0xffffffffffffffffffffffffffffffffffffffff\n      and\n      dup2\n      mstore\n      0x20\n      add\n      dup3\n      dup2\n      mstore\n      0x20\n      add\n      swap3\n      pop\n      pop\n      pop\n      0x20\n      mload(0x40)\n      dup1\n      dup4\n      sub\n      dup2\n      0x00\n      dup8\n      dup1\n      extcodesize\n      iszero\n      dup1\n      iszero\n      tag_447\n      jumpi\n      0x00\n      dup1\n      revert\n    tag_447:\n      pop\n      gas\n      call\n      iszero\n      dup1\n      iszero\n      tag_449\n      jumpi\n      returndatasize\n      0x00\n      dup1\n      returndatacopy\n      revert(0x00, returndatasize)\n    tag_449:\n      pop\n      pop\n      pop\n      pop\n      mload(0x40)\n      returndatasize\n      0x20\n      dup2\n      lt\n      iszero\n      tag_450\n      jumpi\n      0x00\n      dup1\n      revert\n    tag_450:\n      dup2\n      add\n      swap1\n      dup1\n      dup1\n      mload\n      swap1\n      0x20\n      add\n      swap1\n      swap3\n      swap2\n      swap1\n      pop\n      pop\n      pop\n        /* \"TEXOToken.sol\":50531:50576  transferSuccess = tEXO.transfer(_to, _amount) */\n      swap1\n      pop\n        /* \"TEXOToken.sol\":50418:50587  if (_amount > tEXOBal) {... */\n    tag_446:\n        /* \"TEXOToken.sol\":50605:50620  transferSuccess */\n      dup1\n        /* \"TEXOToken.sol\":50597:50659  require(transferSuccess, \"safePlumTransfer: transfer failed.\") */\n      tag_451\n      jumpi\n      mload(0x40)\n      0x08c379a000000000000000000000000000000000000000000000000000000000\n      dup2\n      mstore\n      0x04\n      add\n      dup1\n      dup1\n      0x20\n      add\n      dup3\n      dup2\n      sub\n      dup3\n      mstore\n      0x22\n      dup2\n      mstore\n      0x20\n      add\n      dup1\n      data_2a7e0e7f8bc79ffac7125960112eaea13c804910c2e58b65c50e00aacc68de0e\n      0x22\n      swap2\n      codecopy\n      0x40\n      add\n      swap2\n      pop\n      pop\n      mload(0x40)\n      dup1\n      swap2\n      sub\n      swap1\n      revert\n    tag_451:\n        /* \"TEXOToken.sol\":50247:50666  function safeTEXOTransfer(address _to, uint256 _amount) internal {... */\n      pop\n      pop\n      pop\n      pop\n      jump\t// out\n        /* \"TEXOToken.sol\":53906:54307  function payReferralCommission(address _user, uint256 _pending) internal {... */\n    tag_207:\n        /* \"TEXOToken.sol\":53989:54005  address referrer */\n      0x00\n        /* \"TEXOToken.sol\":54008:54026  getReferral(_user) */\n      tag_453\n        /* \"TEXOToken.sol\":54020:54025  _user */\n      dup4\n        /* \"TEXOToken.sol\":54008:54019  getReferral */\n      tag_74\n        /* \"TEXOToken.sol\":54008:54026  getReferral(_user) */\n      jump\t// in\n    tag_453:\n        /* \"TEXOToken.sol\":53989:54026  address referrer = getReferral(_user) */\n      swap1\n      pop\n        /* \"TEXOToken.sol\":54060:54061  0 */\n      0x00\n        /* \"TEXOToken.sol\":54040:54062  referrer != address(0) */\n      0xffffffffffffffffffffffffffffffffffffffff\n      and\n        /* \"TEXOToken.sol\":54040:54048  referrer */\n      dup2\n        /* \"TEXOToken.sol\":54040:54062  referrer != address(0) */\n      0xffffffffffffffffffffffffffffffffffffffff\n      and\n      eq\n      iszero\n        /* \"TEXOToken.sol\":54040:54083  referrer != address(0) && referrer != _user */\n      dup1\n      iszero\n      tag_454\n      jumpi\n      pop\n        /* \"TEXOToken.sol\":54078:54083  _user */\n      dup3\n        /* \"TEXOToken.sol\":54066:54083  referrer != _user */\n      0xffffffffffffffffffffffffffffffffffffffff\n      and\n        /* \"TEXOToken.sol\":54066:54074  referrer */\n      dup2\n        /* \"TEXOToken.sol\":54066:54083  referrer != _user */\n      0xffffffffffffffffffffffffffffffffffffffff\n      and\n      eq\n      iszero\n        /* \"TEXOToken.sol\":54040:54083  referrer != address(0) && referrer != _user */\n    tag_454:\n        /* \"TEXOToken.sol\":54040:54101  referrer != address(0) && referrer != _user && refBonusBP > 0 */\n      dup1\n      iszero\n      tag_455\n      jumpi\n      pop\n        /* \"TEXOToken.sol\":54100:54101  0 */\n      0x00\n        /* \"TEXOToken.sol\":54087:54097  refBonusBP */\n      sload(0x0c)\n        /* \"TEXOToken.sol\":54087:54101  refBonusBP > 0 */\n      gt\n        /* \"TEXOToken.sol\":54040:54101  referrer != address(0) && referrer != _user && refBonusBP > 0 */\n    tag_455:\n        /* \"TEXOToken.sol\":54036:54301  if (referrer != address(0) && referrer != _user && refBonusBP > 0) {... */\n      iszero\n      tag_456\n      jumpi\n        /* \"TEXOToken.sol\":54117:54139  uint256 refBonusEarned */\n      0x00\n        /* \"TEXOToken.sol\":54142:54177  _pending.mul(refBonusBP).div(10000) */\n      tag_457\n        /* \"TEXOToken.sol\":54171:54176  10000 */\n      0x2710\n        /* \"TEXOToken.sol\":54142:54166  _pending.mul(refBonusBP) */\n      tag_458\n        /* \"TEXOToken.sol\":54155:54165  refBonusBP */\n      sload(0x0c)\n        /* \"TEXOToken.sol\":54142:54150  _pending */\n      dup7\n        /* \"TEXOToken.sol\":54142:54154  _pending.mul */\n      tag_199\n      swap1\n        /* \"TEXOToken.sol\":54142:54166  _pending.mul(refBonusBP) */\n      swap2\n      swap1\n      0xffffffff\n      and\n      jump\t// in\n    tag_458:\n        /* \"TEXOToken.sol\":54142:54170  _pending.mul(refBonusBP).div */\n      tag_200\n      swap1\n        /* \"TEXOToken.sol\":54142:54177  _pending.mul(refBonusBP).div(10000) */\n      swap2\n      swap1\n      0xffffffff\n      and\n      jump\t// in\n    tag_457:\n        /* \"TEXOToken.sol\":54117:54177  uint256 refBonusEarned = _pending.mul(refBonusBP).div(10000) */\n      swap1\n      pop\n        /* \"TEXOToken.sol\":54191:54195  tEXO */\n      0x02\n      0x00\n      swap1\n      sload\n      swap1\n      0x0100\n      exp\n      swap1\n      div\n      0xffffffffffffffffffffffffffffffffffffffff\n      and\n        /* \"TEXOToken.sol\":54191:54200  tEXO.mint */\n      0xffffffffffffffffffffffffffffffffffffffff\n      and\n      0x40c10f19\n        /* \"TEXOToken.sol\":54201:54209  referrer */\n      dup4\n        /* \"TEXOToken.sol\":54211:54225  refBonusEarned */\n      dup4\n        /* \"TEXOToken.sol\":54191:54226  tEXO.mint(referrer, refBonusEarned) */\n      mload(0x40)\n      dup4\n      0xffffffff\n      and\n      0xe0\n      shl\n      dup2\n      mstore\n      0x04\n      add\n      dup1\n      dup4\n      0xffffffffffffffffffffffffffffffffffffffff\n      and\n      dup2\n      mstore\n      0x20\n      add\n      dup3\n      dup2\n      mstore\n      0x20\n      add\n      swap3\n      pop\n      pop\n      pop\n      0x00\n      mload(0x40)\n      dup1\n      dup4\n      sub\n      dup2\n      0x00\n      dup8\n      dup1\n      extcodesize\n      iszero\n      dup1\n      iszero\n      tag_459\n      jumpi\n      0x00\n      dup1\n      revert\n    tag_459:\n      pop\n      gas\n      call\n      iszero\n      dup1\n      iszero\n      tag_461\n      jumpi\n      returndatasize\n      0x00\n      dup1\n      returndatacopy\n      revert(0x00, returndatasize)\n    tag_461:\n      pop\n      pop\n      pop\n      pop\n        /* \"TEXOToken.sol\":54265:54273  referrer */\n      dup2\n        /* \"TEXOToken.sol\":54245:54290  ReferralPaid(_user, referrer, refBonusEarned) */\n      0xffffffffffffffffffffffffffffffffffffffff\n      and\n        /* \"TEXOToken.sol\":54258:54263  _user */\n      dup5\n        /* \"TEXOToken.sol\":54245:54290  ReferralPaid(_user, referrer, refBonusEarned) */\n      0xffffffffffffffffffffffffffffffffffffffff\n      and\n      0x0a721ab4682ceb61c7e4d264ef879fc419a6d764b136e7d96ef54b2053c75673\n        /* \"TEXOToken.sol\":54275:54289  refBonusEarned */\n      dup4\n        /* \"TEXOToken.sol\":54245:54290  ReferralPaid(_user, referrer, refBonusEarned) */\n      mload(0x40)\n      dup1\n      dup3\n      dup2\n      mstore\n      0x20\n      add\n      swap2\n      pop\n      pop\n      mload(0x40)\n      dup1\n      swap2\n      sub\n      swap1\n      log3\n        /* \"TEXOToken.sol\":54036:54301  if (referrer != address(0) && referrer != _user && refBonusBP > 0) {... */\n      pop\n    tag_456:\n        /* \"TEXOToken.sol\":53906:54307  function payReferralCommission(address _user, uint256 _pending) internal {... */\n      pop\n      pop\n      pop\n      jump\t// out\n        /* \"TEXOToken.sol\":22669:22844  function safeTransfer(IBEP20 token, address to, uint256 value) internal {... */\n    tag_213:\n        /* \"TEXOToken.sol\":22751:22837  _callOptionalReturn(token, abi.encodeWithSelector(token.transfer.selector, to, value)) */\n      tag_463\n        /* \"TEXOToken.sol\":22771:22776  token */\n      dup4\n        /* \"TEXOToken.sol\":22801:22824  token.transfer.selector */\n      shl(0xe0, 0xa9059cbb)\n        /* \"TEXOToken.sol\":22826:22828  to */\n      dup5\n        /* \"TEXOToken.sol\":22830:22835  value */\n      dup5\n        /* \"TEXOToken.sol\":22778:22836  abi.encodeWithSelector(token.transfer.selector, to, value) */\n      add(0x24, mload(0x40))\n      dup1\n      dup4\n      0xffffffffffffffffffffffffffffffffffffffff\n      and\n      dup2\n      mstore\n      0x20\n      add\n      dup3\n      dup2\n      mstore\n      0x20\n      add\n      swap3\n      pop\n      pop\n      pop\n      mload(0x40)\n      0x20\n      dup2\n      dup4\n      sub\n      sub\n      dup2\n      mstore\n      swap1\n      0x40\n      mstore\n      swap1\n      not(0xffffffffffffffffffffffffffffffffffffffffffffffffffffffff)\n      and\n      0x20\n      dup3\n      add\n      dup1\n      mload\n      0xffffffffffffffffffffffffffffffffffffffffffffffffffffffff\n      dup4\n      dup2\n      dup4\n      and\n      or\n      dup4\n      mstore\n      pop\n      pop\n      pop\n      pop\n        /* \"TEXOToken.sol\":22751:22770  _callOptionalReturn */\n      tag_464\n        /* \"TEXOToken.sol\":22751:22837  _callOptionalReturn(token, abi.encodeWithSelector(token.transfer.selector, to, value)) */\n      jump\t// in\n    tag_463:\n        /* \"TEXOToken.sol\":22669:22844  function safeTransfer(IBEP20 token, address to, uint256 value) internal {... */\n      pop\n      pop\n      pop\n      jump\t// out\n        /* \"TEXOToken.sol\":900:1076  function add(uint256 a, uint256 b) internal pure returns (uint256) {... */\n    tag_240:\n        /* \"TEXOToken.sol\":958:965  uint256 */\n      0x00\n        /* \"TEXOToken.sol\":977:986  uint256 c */\n      dup1\n        /* \"TEXOToken.sol\":993:994  b */\n      dup3\n        /* \"TEXOToken.sol\":989:990  a */\n      dup5\n        /* \"TEXOToken.sol\":989:994  a + b */\n      add\n        /* \"TEXOToken.sol\":977:994  uint256 c = a + b */\n      swap1\n      pop\n        /* \"TEXOToken.sol\":1017:1018  a */\n      dup4\n        /* \"TEXOToken.sol\":1012:1013  c */\n      dup2\n        /* \"TEXOToken.sol\":1012:1018  c >= a */\n      lt\n      iszero\n        /* \"TEXOToken.sol\":1004:1050  require(c >= a, \"SafeMath: addition overflow\") */\n      tag_466\n      jumpi\n      mload(0x40)\n      0x08c379a000000000000000000000000000000000000000000000000000000000\n      dup2\n      mstore\n      0x04\n      add\n      dup1\n      dup1\n      0x20\n      add\n      dup3\n      dup2\n      sub\n      dup3\n      mstore\n      0x1b\n      dup2\n      mstore\n      0x20\n      add\n      dup1\n      0x536166654d6174683a206164646974696f6e206f766572666c6f770000000000\n      dup2\n      mstore\n      pop\n      0x20\n      add\n      swap2\n      pop\n      pop\n      mload(0x40)\n      dup1\n      swap2\n      sub\n      swap1\n      revert\n    tag_466:\n        /* \"TEXOToken.sol\":1068:1069  c */\n      dup1\n        /* \"TEXOToken.sol\":1061:1069  return c */\n      swap2\n      pop\n      pop\n        /* \"TEXOToken.sol\":900:1076  function add(uint256 a, uint256 b) internal pure returns (uint256) {... */\n      swap3\n      swap2\n      pop\n      pop\n      jump\t// out\n        /* \"TEXOToken.sol\":53334:53675  function setReferral(address _user, address _referrer) internal {... */\n    tag_292:\n        /* \"TEXOToken.sol\":53433:53442  _referrer */\n      dup1\n        /* \"TEXOToken.sol\":53412:53443  _referrer == address(_referrer) */\n      0xffffffffffffffffffffffffffffffffffffffff\n      and\n        /* \"TEXOToken.sol\":53412:53421  _referrer */\n      dup2\n        /* \"TEXOToken.sol\":53412:53443  _referrer == address(_referrer) */\n      0xffffffffffffffffffffffffffffffffffffffff\n      and\n      eq\n        /* \"TEXOToken.sol\":53412:53477  _referrer == address(_referrer) && referrers[_user] == address(0) */\n      dup1\n      iszero\n      tag_468\n      jumpi\n      pop\n        /* \"TEXOToken.sol\":53475:53476  0 */\n      0x00\n        /* \"TEXOToken.sol\":53447:53477  referrers[_user] == address(0) */\n      0xffffffffffffffffffffffffffffffffffffffff\n      and\n        /* \"TEXOToken.sol\":53447:53456  referrers */\n      0x0d\n        /* \"TEXOToken.sol\":53447:53463  referrers[_user] */\n      0x00\n        /* \"TEXOToken.sol\":53457:53462  _user */\n      dup5\n        /* \"TEXOToken.sol\":53447:53463  referrers[_user] */\n      0xffffffffffffffffffffffffffffffffffffffff\n      and\n      0xffffffffffffffffffffffffffffffffffffffff\n      and\n      dup2\n      mstore\n      0x20\n      add\n      swap1\n      dup2\n      mstore\n      0x20\n      add\n      0x00\n      keccak256\n      0x00\n      swap1\n      sload\n      swap1\n      0x0100\n      exp\n      swap1\n      div\n      0xffffffffffffffffffffffffffffffffffffffff\n      and\n        /* \"TEXOToken.sol\":53447:53477  referrers[_user] == address(0) */\n      0xffffffffffffffffffffffffffffffffffffffff\n      and\n      eq\n        /* \"TEXOToken.sol\":53412:53477  _referrer == address(_referrer) && referrers[_user] == address(0) */\n    tag_468:\n        /* \"TEXOToken.sol\":53412:53504  _referrer == address(_referrer) && referrers[_user] == address(0) && _referrer != address(0) */\n      dup1\n      iszero\n      tag_469\n      jumpi\n      pop\n        /* \"TEXOToken.sol\":53502:53503  0 */\n      0x00\n        /* \"TEXOToken.sol\":53481:53504  _referrer != address(0) */\n      0xffffffffffffffffffffffffffffffffffffffff\n      and\n        /* \"TEXOToken.sol\":53481:53490  _referrer */\n      dup2\n        /* \"TEXOToken.sol\":53481:53504  _referrer != address(0) */\n      0xffffffffffffffffffffffffffffffffffffffff\n      and\n      eq\n      iszero\n        /* \"TEXOToken.sol\":53412:53504  _referrer == address(_referrer) && referrers[_user] == address(0) && _referrer != address(0) */\n    tag_469:\n        /* \"TEXOToken.sol\":53412:53526  _referrer == address(_referrer) && referrers[_user] == address(0) && _referrer != address(0) && _referrer != _user */\n      dup1\n      iszero\n      tag_470\n      jumpi\n      pop\n        /* \"TEXOToken.sol\":53521:53526  _user */\n      dup2\n        /* \"TEXOToken.sol\":53508:53526  _referrer != _user */\n      0xffffffffffffffffffffffffffffffffffffffff\n      and\n        /* \"TEXOToken.sol\":53508:53517  _referrer */\n      dup2\n        /* \"TEXOToken.sol\":53508:53526  _referrer != _user */\n      0xffffffffffffffffffffffffffffffffffffffff\n      and\n      eq\n      iszero\n        /* \"TEXOToken.sol\":53412:53526  _referrer == address(_referrer) && referrers[_user] == address(0) && _referrer != address(0) && _referrer != _user */\n    tag_470:\n        /* \"TEXOToken.sol\":53408:53669  if (_referrer == address(_referrer) && referrers[_user] == address(0) && _referrer != address(0) && _referrer != _user) {... */\n      iszero\n      tag_471\n      jumpi\n        /* \"TEXOToken.sol\":53561:53570  _referrer */\n      dup1\n        /* \"TEXOToken.sol\":53542:53551  referrers */\n      0x0d\n        /* \"TEXOToken.sol\":53542:53558  referrers[_user] */\n      0x00\n        /* \"TEXOToken.sol\":53552:53557  _user */\n      dup5\n        /* \"TEXOToken.sol\":53542:53558  referrers[_user] */\n      0xffffffffffffffffffffffffffffffffffffffff\n      and\n      0xffffffffffffffffffffffffffffffffffffffff\n      and\n      dup2\n      mstore\n      0x20\n      add\n      swap1\n      dup2\n      mstore\n      0x20\n      add\n      0x00\n      keccak256\n      0x00\n        /* \"TEXOToken.sol\":53542:53570  referrers[_user] = _referrer */\n      0x0100\n      exp\n      dup2\n      sload\n      dup2\n      0xffffffffffffffffffffffffffffffffffffffff\n      mul\n      not\n      and\n      swap1\n      dup4\n      0xffffffffffffffffffffffffffffffffffffffff\n      and\n      mul\n      or\n      swap1\n      sstore\n      pop\n        /* \"TEXOToken.sol\":53612:53613  1 */\n      0x01\n        /* \"TEXOToken.sol\":53584:53597  referredCount */\n      0x0e\n        /* \"TEXOToken.sol\":53584:53608  referredCount[_referrer] */\n      0x00\n        /* \"TEXOToken.sol\":53598:53607  _referrer */\n      dup4\n        /* \"TEXOToken.sol\":53584:53608  referredCount[_referrer] */\n      0xffffffffffffffffffffffffffffffffffffffff\n      and\n      0xffffffffffffffffffffffffffffffffffffffff\n      and\n      dup2\n      mstore\n      0x20\n      add\n      swap1\n      dup2\n      mstore\n      0x20\n      add\n      0x00\n      keccak256\n      0x00\n        /* \"TEXOToken.sol\":53584:53613  referredCount[_referrer] += 1 */\n      dup3\n      dup3\n      sload\n      add\n      swap3\n      pop\n      pop\n      dup2\n      swap1\n      sstore\n      pop\n        /* \"TEXOToken.sol\":53648:53657  _referrer */\n      dup1\n        /* \"TEXOToken.sol\":53632:53658  Referral(_user, _referrer) */\n      0xffffffffffffffffffffffffffffffffffffffff\n      and\n        /* \"TEXOToken.sol\":53641:53646  _user */\n      dup3\n        /* \"TEXOToken.sol\":53632:53658  Referral(_user, _referrer) */\n      0xffffffffffffffffffffffffffffffffffffffff\n      and\n      0x9d05414fb79fac216c15606de5cc06664e91a254e4d5f57664d5f1beaf7fb7ef\n      mload(0x40)\n      mload(0x40)\n      dup1\n      swap2\n      sub\n      swap1\n      log3\n        /* \"TEXOToken.sol\":53408:53669  if (_referrer == address(_referrer) && referrers[_user] == address(0) && _referrer != address(0) && _referrer != _user) {... */\n    tag_471:\n        /* \"TEXOToken.sol\":53334:53675  function setReferral(address _user, address _referrer) internal {... */\n      pop\n      pop\n      jump\t// out\n        /* \"TEXOToken.sol\":22850:23053  function safeTransferFrom(IBEP20 token, address from, address to, uint256 value) internal {... */\n    tag_294:\n        /* \"TEXOToken.sol\":22950:23046  _callOptionalReturn(token, abi.encodeWithSelector(token.transferFrom.selector, from, to, value)) */\n      tag_473\n        /* \"TEXOToken.sol\":22970:22975  token */\n      dup5\n        /* \"TEXOToken.sol\":23000:23027  token.transferFrom.selector */\n      shl(0xe0, 0x23b872dd)\n        /* \"TEXOToken.sol\":23029:23033  from */\n      dup6\n        /* \"TEXOToken.sol\":23035:23037  to */\n      dup6\n        /* \"TEXOToken.sol\":23039:23044  value */\n      dup6\n        /* \"TEXOToken.sol\":22977:23045  abi.encodeWithSelector(token.transferFrom.selector, from, to, value) */\n      add(0x24, mload(0x40))\n      dup1\n      dup5\n      0xffffffffffffffffffffffffffffffffffffffff\n      and\n      dup2\n      mstore\n      0x20\n      add\n      dup4\n      0xffffffffffffffffffffffffffffffffffffffff\n      and\n      dup2\n      mstore\n      0x20\n      add\n      dup3\n      dup2\n      mstore\n      0x20\n      add\n      swap4\n      pop\n      pop\n      pop\n      pop\n      mload(0x40)\n      0x20\n      dup2\n      dup4\n      sub\n      sub\n      dup2\n      mstore\n      swap1\n      0x40\n      mstore\n      swap1\n      not(0xffffffffffffffffffffffffffffffffffffffffffffffffffffffff)\n      and\n      0x20\n      dup3\n      add\n      dup1\n      mload\n      0xffffffffffffffffffffffffffffffffffffffffffffffffffffffff\n      dup4\n      dup2\n      dup4\n      and\n      or\n      dup4\n      mstore\n      pop\n      pop\n      pop\n      pop\n        /* \"TEXOToken.sol\":22950:22969  _callOptionalReturn */\n      tag_464\n        /* \"TEXOToken.sol\":22950:23046  _callOptionalReturn(token, abi.encodeWithSelector(token.transferFrom.selector, from, to, value)) */\n      jump\t// in\n    tag_473:\n        /* \"TEXOToken.sol\":22850:23053  function safeTransferFrom(IBEP20 token, address from, address to, uint256 value) internal {... */\n      pop\n      pop\n      pop\n      pop\n      jump\t// out\n        /* \"TEXOToken.sol\":12566:12791  function _transferOwnership(address newOwner) internal {... */\n    tag_410:\n        /* \"TEXOToken.sol\":12659:12660  0 */\n      0x00\n        /* \"TEXOToken.sol\":12639:12661  newOwner != address(0) */\n      0xffffffffffffffffffffffffffffffffffffffff\n      and\n        /* \"TEXOToken.sol\":12639:12647  newOwner */\n      dup2\n        /* \"TEXOToken.sol\":12639:12661  newOwner != address(0) */\n      0xffffffffffffffffffffffffffffffffffffffff\n      and\n      eq\n      iszero\n        /* \"TEXOToken.sol\":12631:12704  require(newOwner != address(0), \"Ownable: new owner is the zero address\") */\n      tag_475\n      jumpi\n      mload(0x40)\n      0x08c379a000000000000000000000000000000000000000000000000000000000\n      dup2\n      mstore\n      0x04\n      add\n      dup1\n      dup1\n      0x20\n      add\n      dup3\n      dup2\n      sub\n      dup3\n      mstore\n      0x26\n      dup2\n      mstore\n      0x20\n      add\n      dup1\n      data_245f15ff17f551913a7a18385165551503906a406f905ac1c2437281a7cd0cfe\n      0x26\n      swap2\n      codecopy\n      0x40\n      add\n      swap2\n      pop\n      pop\n      mload(0x40)\n      dup1\n      swap2\n      sub\n      swap1\n      revert\n    tag_475:\n        /* \"TEXOToken.sol\":12748:12756  newOwner */\n      dup1\n        /* \"TEXOToken.sol\":12719:12757  OwnershipTransferred(_owner, newOwner) */\n      0xffffffffffffffffffffffffffffffffffffffff\n      and\n        /* \"TEXOToken.sol\":12740:12746  _owner */\n      0x00\n      dup1\n      sload\n      swap1\n      0x0100\n      exp\n      swap1\n      div\n      0xffffffffffffffffffffffffffffffffffffffff\n      and\n        /* \"TEXOToken.sol\":12719:12757  OwnershipTransferred(_owner, newOwner) */\n      0xffffffffffffffffffffffffffffffffffffffff\n      and\n      0x8be0079c531659141344cd1fd0a4f28419497f9722a3daafe3b4186f6b6457e0\n      mload(0x40)\n      mload(0x40)\n      dup1\n      swap2\n      sub\n      swap1\n      log3\n        /* \"TEXOToken.sol\":12776:12784  newOwner */\n      dup1\n        /* \"TEXOToken.sol\":12767:12773  _owner */\n      0x00\n      dup1\n        /* \"TEXOToken.sol\":12767:12784  _owner = newOwner */\n      0x0100\n      exp\n      dup2\n      sload\n      dup2\n      0xffffffffffffffffffffffffffffffffffffffff\n      mul\n      not\n      and\n      swap1\n      dup4\n      0xffffffffffffffffffffffffffffffffffffffff\n      and\n      mul\n      or\n      swap1\n      sstore\n      pop\n        /* \"TEXOToken.sol\":12566:12791  function _transferOwnership(address newOwner) internal {... */\n      pop\n      jump\t// out\n        /* \"TEXOToken.sol\":3704:4042  function div(uint256 a, uint256 b, string memory errorMessage) internal pure returns (uint256) {... */\n    tag_432:\n        /* \"TEXOToken.sol\":3790:3797  uint256 */\n      0x00\n        /* \"TEXOToken.sol\":3887:3888  0 */\n      dup1\n        /* \"TEXOToken.sol\":3883:3884  b */\n      dup4\n        /* \"TEXOToken.sol\":3883:3888  b > 0 */\n      gt\n        /* \"TEXOToken.sol\":3890:3902  errorMessage */\n      dup3\n        /* \"TEXOToken.sol\":3875:3903  require(b > 0, errorMessage) */\n      swap1\n      tag_477\n      jumpi\n      mload(0x40)\n      0x08c379a000000000000000000000000000000000000000000000000000000000\n      dup2\n      mstore\n      0x04\n      add\n      dup1\n      dup1\n      0x20\n      add\n      dup3\n      dup2\n      sub\n      dup3\n      mstore\n      dup4\n      dup2\n      dup2\n      mload\n      dup2\n      mstore\n      0x20\n      add\n      swap2\n      pop\n      dup1\n      mload\n      swap1\n      0x20\n      add\n      swap1\n      dup1\n      dup4\n      dup4\n      0x00\n    tag_478:\n      dup4\n      dup2\n      lt\n      iszero\n      tag_480\n      jumpi\n      dup1\n      dup3\n      add\n      mload\n      dup2\n      dup5\n      add\n      mstore\n      0x20\n      dup2\n      add\n      swap1\n      pop\n      jump(tag_478)\n    tag_480:\n      pop\n      pop\n      pop\n      pop\n      swap1\n      pop\n      swap1\n      dup2\n      add\n      swap1\n      0x1f\n      and\n      dup1\n      iszero\n      tag_481\n      jumpi\n      dup1\n      dup3\n      sub\n      dup1\n      mload\n      0x01\n      dup4\n      0x20\n      sub\n      0x0100\n      exp\n      sub\n      not\n      and\n      dup2\n      mstore\n      0x20\n      add\n      swap2\n      pop\n    tag_481:\n      pop\n      swap3\n      pop\n      pop\n      pop\n      mload(0x40)\n      dup1\n      swap2\n      sub\n      swap1\n      revert\n    tag_477:\n      pop\n        /* \"TEXOToken.sol\":3913:3922  uint256 c */\n      0x00\n        /* \"TEXOToken.sol\":3929:3930  b */\n      dup4\n        /* \"TEXOToken.sol\":3925:3926  a */\n      dup6\n        /* \"TEXOToken.sol\":3925:3930  a / b */\n      dup2\n      tag_482\n      jumpi\n      invalid\n    tag_482:\n      div\n        /* \"TEXOToken.sol\":3913:3930  uint256 c = a / b */\n      swap1\n      pop\n        /* \"TEXOToken.sol\":4034:4035  c */\n      dup1\n        /* \"TEXOToken.sol\":4027:4035  return c */\n      swap2\n      pop\n      pop\n        /* \"TEXOToken.sol\":3704:4042  function div(uint256 a, uint256 b, string memory errorMessage) internal pure returns (uint256) {... */\n      swap4\n      swap3\n      pop\n      pop\n      pop\n      jump\t// out\n        /* \"TEXOToken.sol\":1758:1945  function sub(uint256 a, uint256 b, string memory errorMessage) internal pure returns (uint256) {... */\n    tag_435:\n        /* \"TEXOToken.sol\":1844:1851  uint256 */\n      0x00\n        /* \"TEXOToken.sol\":1876:1877  a */\n      dup4\n        /* \"TEXOToken.sol\":1871:1872  b */\n      dup4\n        /* \"TEXOToken.sol\":1871:1877  b <= a */\n      gt\n      iszero\n        /* \"TEXOToken.sol\":1879:1891  errorMessage */\n      dup3\n        /* \"TEXOToken.sol\":1863:1892  require(b <= a, errorMessage) */\n      swap1\n      tag_484\n      jumpi\n      mload(0x40)\n      0x08c379a000000000000000000000000000000000000000000000000000000000\n      dup2\n      mstore\n      0x04\n      add\n      dup1\n      dup1\n      0x20\n      add\n      dup3\n      dup2\n      sub\n      dup3\n      mstore\n      dup4\n      dup2\n      dup2\n      mload\n      dup2\n      mstore\n      0x20\n      add\n      swap2\n      pop\n      dup1\n      mload\n      swap1\n      0x20\n      add\n      swap1\n      dup1\n      dup4\n      dup4\n      0x00\n    tag_485:\n      dup4\n      dup2\n      lt\n      iszero\n      tag_487\n      jumpi\n      dup1\n      dup3\n      add\n      mload\n      dup2\n      dup5\n      add\n      mstore\n      0x20\n      dup2\n      add\n      swap1\n      pop\n      jump(tag_485)\n    tag_487:\n      pop\n      pop\n      pop\n      pop\n      swap1\n      pop\n      swap1\n      dup2\n      add\n      swap1\n      0x1f\n      and\n      dup1\n      iszero\n      tag_488\n      jumpi\n      dup1\n      dup3\n      sub\n      dup1\n      mload\n      0x01\n      dup4\n      0x20\n      sub\n      0x0100\n      exp\n      sub\n      not\n      and\n      dup2\n      mstore\n      0x20\n      add\n      swap2\n      pop\n    tag_488:\n      pop\n      swap3\n      pop\n      pop\n      pop\n      mload(0x40)\n      dup1\n      swap2\n      sub\n      swap1\n      revert\n    tag_484:\n      pop\n        /* \"TEXOToken.sol\":1902:1911  uint256 c */\n      0x00\n        /* \"TEXOToken.sol\":1918:1919  b */\n      dup4\n        /* \"TEXOToken.sol\":1914:1915  a */\n      dup6\n        /* \"TEXOToken.sol\":1914:1919  a - b */\n      sub\n        /* \"TEXOToken.sol\":1902:1919  uint256 c = a - b */\n      swap1\n      pop\n        /* \"TEXOToken.sol\":1937:1938  c */\n      dup1\n        /* \"TEXOToken.sol\":1930:1938  return c */\n      swap2\n      pop\n      pop\n        /* \"TEXOToken.sol\":1758:1945  function sub(uint256 a, uint256 b, string memory errorMessage) internal pure returns (uint256) {... */\n      swap4\n      swap3\n      pop\n      pop\n      pop\n      jump\t// out\n        /* \"TEXOToken.sol\":24932:25683  function _callOptionalReturn(IBEP20 token, bytes memory data) private {... */\n    tag_464:\n        /* \"TEXOToken.sol\":25351:25374  bytes memory returndata */\n      0x60\n        /* \"TEXOToken.sol\":25377:25446  address(token).functionCall(data, \"SafeBEP20: low-level call failed\") */\n      tag_490\n        /* \"TEXOToken.sol\":25405:25409  data */\n      dup3\n        /* \"TEXOToken.sol\":25377:25446  address(token).functionCall(data, \"SafeBEP20: low-level call failed\") */\n      mload(0x40)\n      dup1\n      0x40\n      add\n      0x40\n      mstore\n      dup1\n      0x20\n      dup2\n      mstore\n      0x20\n      add\n      0x5361666542455032303a206c6f772d6c6576656c2063616c6c206661696c6564\n      dup2\n      mstore\n      pop\n        /* \"TEXOToken.sol\":25385:25390  token */\n      dup6\n        /* \"TEXOToken.sol\":25377:25404  address(token).functionCall */\n      0xffffffffffffffffffffffffffffffffffffffff\n      and\n      tag_491\n      swap1\n        /* \"TEXOToken.sol\":25377:25446  address(token).functionCall(data, \"SafeBEP20: low-level call failed\") */\n      swap3\n      swap2\n      swap1\n      0xffffffff\n      and\n      jump\t// in\n    tag_490:\n        /* \"TEXOToken.sol\":25351:25446  bytes memory returndata = address(token).functionCall(data, \"SafeBEP20: low-level call failed\") */\n      swap1\n      pop\n        /* \"TEXOToken.sol\":25480:25481  0 */\n      0x00\n        /* \"TEXOToken.sol\":25460:25470  returndata */\n      dup2\n        /* \"TEXOToken.sol\":25460:25477  returndata.length */\n      mload\n        /* \"TEXOToken.sol\":25460:25481  returndata.length > 0 */\n      gt\n        /* \"TEXOToken.sol\":25456:25677  if (returndata.length > 0) { // Return data is optional... */\n      iszero\n      tag_492\n      jumpi\n        /* \"TEXOToken.sol\":25600:25610  returndata */\n      dup1\n        /* \"TEXOToken.sol\":25589:25619  abi.decode(returndata, (bool)) */\n      dup1\n      0x20\n      add\n      swap1\n      mload\n      0x20\n      dup2\n      lt\n      iszero\n      tag_493\n      jumpi\n      0x00\n      dup1\n      revert\n    tag_493:\n      dup2\n      add\n      swap1\n      dup1\n      dup1\n      mload\n      swap1\n      0x20\n      add\n      swap1\n      swap3\n      swap2\n      swap1\n      pop\n      pop\n      pop\n        /* \"TEXOToken.sol\":25581:25666  require(abi.decode(returndata, (bool)), \"SafeBEP20: BEP20 operation did not succeed\") */\n      tag_494\n      jumpi\n      mload(0x40)\n      0x08c379a000000000000000000000000000000000000000000000000000000000\n      dup2\n      mstore\n      0x04\n      add\n      dup1\n      dup1\n      0x20\n      add\n      dup3\n      dup2\n      sub\n      dup3\n      mstore\n      0x2a\n      dup2\n      mstore\n      0x20\n      add\n      dup1\n      data_21c3364d55537bf20eb8f05374e9f53f47299e1883c412f1f1135f398f2c2082\n      0x2a\n      swap2\n      codecopy\n      0x40\n      add\n      swap2\n      pop\n      pop\n      mload(0x40)\n      dup1\n      swap2\n      sub\n      swap1\n      revert\n    tag_494:\n        /* \"TEXOToken.sol\":25456:25677  if (returndata.length > 0) { // Return data is optional... */\n    tag_492:\n        /* \"TEXOToken.sol\":24932:25683  function _callOptionalReturn(IBEP20 token, bytes memory data) private {... */\n      pop\n      pop\n      pop\n      jump\t// out\n        /* \"TEXOToken.sol\":16312:16505  function functionCall(address target, bytes memory data, string memory errorMessage) internal returns (bytes memory) {... */\n    tag_491:\n        /* \"TEXOToken.sol\":16415:16427  bytes memory */\n      0x60\n        /* \"TEXOToken.sol\":16446:16498  functionCallWithValue(target, data, 0, errorMessage) */\n      tag_496\n        /* \"TEXOToken.sol\":16468:16474  target */\n      dup5\n        /* \"TEXOToken.sol\":16476:16480  data */\n      dup5\n        /* \"TEXOToken.sol\":16482:16483  0 */\n      0x00\n        /* \"TEXOToken.sol\":16485:16497  errorMessage */\n      dup6\n        /* \"TEXOToken.sol\":16446:16467  functionCallWithValue */\n      tag_497\n        /* \"TEXOToken.sol\":16446:16498  functionCallWithValue(target, data, 0, errorMessage) */\n      jump\t// in\n    tag_496:\n        /* \"TEXOToken.sol\":16439:16498  return functionCallWithValue(target, data, 0, errorMessage) */\n      swap1\n      pop\n        /* \"TEXOToken.sol\":16312:16505  function functionCall(address target, bytes memory data, string memory errorMessage) internal returns (bytes memory) {... */\n      swap4\n      swap3\n      pop\n      pop\n      pop\n      jump\t// out\n        /* \"TEXOToken.sol\":17339:17862  function functionCallWithValue(address target, bytes memory data, uint256 value, string memory errorMessage) internal returns (bytes memory) {... */\n    tag_497:\n        /* \"TEXOToken.sol\":17466:17478  bytes memory */\n      0x60\n        /* \"TEXOToken.sol\":17523:17528  value */\n      dup3\n        /* \"TEXOToken.sol\":17498:17519  address(this).balance */\n      selfbalance\n        /* \"TEXOToken.sol\":17498:17528  address(this).balance >= value */\n      lt\n      iszero\n        /* \"TEXOToken.sol\":17490:17571  require(address(this).balance >= value, \"Address: insufficient balance for call\") */\n      tag_499\n      jumpi\n      mload(0x40)\n      0x08c379a000000000000000000000000000000000000000000000000000000000\n      dup2\n      mstore\n      0x04\n      add\n      dup1\n      dup1\n      0x20\n      add\n      dup3\n      dup2\n      sub\n      dup3\n      mstore\n      0x26\n      dup2\n      mstore\n      0x20\n      add\n      dup1\n      data_565f1a77334fc4792800921178c71e4521acffab18ff9e7885b49377ee80ab4c\n      0x26\n      swap2\n      codecopy\n      0x40\n      add\n      swap2\n      pop\n      pop\n      mload(0x40)\n      dup1\n      swap2\n      sub\n      swap1\n      revert\n    tag_499:\n        /* \"TEXOToken.sol\":17589:17607  isContract(target) */\n      tag_500\n        /* \"TEXOToken.sol\":17600:17606  target */\n      dup6\n        /* \"TEXOToken.sol\":17589:17599  isContract */\n      tag_501\n        /* \"TEXOToken.sol\":17589:17607  isContract(target) */\n      jump\t// in\n    tag_500:\n        /* \"TEXOToken.sol\":17581:17641  require(isContract(target), \"Address: call to non-contract\") */\n      tag_502\n      jumpi\n      mload(0x40)\n      0x08c379a000000000000000000000000000000000000000000000000000000000\n      dup2\n      mstore\n      0x04\n      add\n      dup1\n      dup1\n      0x20\n      add\n      dup3\n      dup2\n      sub\n      dup3\n      mstore\n      0x1d\n      dup2\n      mstore\n      0x20\n      add\n      dup1\n      0x416464726573733a2063616c6c20746f206e6f6e2d636f6e7472616374000000\n      dup2\n      mstore\n      pop\n      0x20\n      add\n      swap2\n      pop\n      pop\n      mload(0x40)\n      dup1\n      swap2\n      sub\n      swap1\n      revert\n    tag_502:\n        /* \"TEXOToken.sol\":17712:17724  bool success */\n      0x00\n        /* \"TEXOToken.sol\":17726:17749  bytes memory returndata */\n      0x60\n        /* \"TEXOToken.sol\":17753:17759  target */\n      dup7\n        /* \"TEXOToken.sol\":17753:17764  target.call */\n      0xffffffffffffffffffffffffffffffffffffffff\n      and\n        /* \"TEXOToken.sol\":17773:17778  value */\n      dup6\n        /* \"TEXOToken.sol\":17781:17785  data */\n      dup8\n        /* \"TEXOToken.sol\":17753:17786  target.call{ value: value }(data) */\n      mload(0x40)\n      dup1\n      dup3\n      dup1\n      mload\n      swap1\n      0x20\n      add\n      swap1\n      dup1\n      dup4\n      dup4\n    tag_503:\n      0x20\n      dup4\n      lt\n      tag_505\n      jumpi\n      dup1\n      mload\n      dup3\n      mstore\n      0x20\n      dup3\n      add\n      swap2\n      pop\n      0x20\n      dup2\n      add\n      swap1\n      pop\n      0x20\n      dup4\n      sub\n      swap3\n      pop\n      jump(tag_503)\n    tag_505:\n      0x01\n      dup4\n      0x20\n      sub\n      0x0100\n      exp\n      sub\n      dup1\n      not\n      dup3\n      mload\n      and\n      dup2\n      dup5\n      mload\n      and\n      dup1\n      dup3\n      or\n      dup6\n      mstore\n      pop\n      pop\n      pop\n      pop\n      pop\n      pop\n      swap1\n      pop\n      add\n      swap2\n      pop\n      pop\n      0x00\n      mload(0x40)\n      dup1\n      dup4\n      sub\n      dup2\n      dup6\n      dup8\n      gas\n      call\n      swap3\n      pop\n      pop\n      pop\n      returndatasize\n      dup1\n      0x00\n      dup2\n      eq\n      tag_508\n      jumpi\n      mload(0x40)\n      swap2\n      pop\n      and(add(returndatasize, 0x3f), not(0x1f))\n      dup3\n      add\n      0x40\n      mstore\n      returndatasize\n      dup3\n      mstore\n      returndatasize\n      0x00\n      0x20\n      dup5\n      add\n      returndatacopy\n      jump(tag_507)\n    tag_508:\n      0x60\n      swap2\n      pop\n    tag_507:\n      pop\n        /* \"TEXOToken.sol\":17711:17786  (bool success, bytes memory returndata) = target.call{ value: value }(data) */\n      swap2\n      pop\n      swap2\n      pop\n        /* \"TEXOToken.sol\":17803:17855  _verifyCallResult(success, returndata, errorMessage) */\n      tag_509\n        /* \"TEXOToken.sol\":17821:17828  success */\n      dup3\n        /* \"TEXOToken.sol\":17830:17840  returndata */\n      dup3\n        /* \"TEXOToken.sol\":17842:17854  errorMessage */\n      dup7\n        /* \"TEXOToken.sol\":17803:17820  _verifyCallResult */\n      tag_510\n        /* \"TEXOToken.sol\":17803:17855  _verifyCallResult(success, returndata, errorMessage) */\n      jump\t// in\n    tag_509:\n        /* \"TEXOToken.sol\":17796:17855  return _verifyCallResult(success, returndata, errorMessage) */\n      swap3\n      pop\n      pop\n      pop\n        /* \"TEXOToken.sol\":17339:17862  function functionCallWithValue(address target, bytes memory data, uint256 value, string memory errorMessage) internal returns (bytes memory) {... */\n      swap5\n      swap4\n      pop\n      pop\n      pop\n      pop\n      jump\t// out\n        /* \"TEXOToken.sol\":13455:13868  function isContract(address account) internal view returns (bool) {... */\n    tag_501:\n        /* \"TEXOToken.sol\":13515:13519  bool */\n      0x00\n        /* \"TEXOToken.sol\":13718:13730  uint256 size */\n      dup1\n        /* \"TEXOToken.sol\":13827:13834  account */\n      dup3\n        /* \"TEXOToken.sol\":13815:13835  extcodesize(account) */\n      extcodesize\n        /* \"TEXOToken.sol\":13807:13835  size := extcodesize(account) */\n      swap1\n      pop\n        /* \"TEXOToken.sol\":13860:13861  0 */\n      0x00\n        /* \"TEXOToken.sol\":13853:13857  size */\n      dup2\n        /* \"TEXOToken.sol\":13853:13861  size > 0 */\n      gt\n        /* \"TEXOToken.sol\":13846:13861  return size > 0 */\n      swap2\n      pop\n      pop\n        /* \"TEXOToken.sol\":13455:13868  function isContract(address account) internal view returns (bool) {... */\n      swap2\n      swap1\n      pop\n      jump\t// out\n        /* \"TEXOToken.sol\":18842:19567  function _verifyCallResult(bool success, bytes memory returndata, string memory errorMessage) private pure returns(bytes memory) {... */\n    tag_510:\n        /* \"TEXOToken.sol\":18957:18969  bytes memory */\n      0x60\n        /* \"TEXOToken.sol\":18985:18992  success */\n      dup4\n        /* \"TEXOToken.sol\":18981:19561  if (success) {... */\n      iszero\n      tag_513\n      jumpi\n        /* \"TEXOToken.sol\":19015:19025  returndata */\n      dup3\n        /* \"TEXOToken.sol\":19008:19025  return returndata */\n      swap1\n      pop\n      jump(tag_512)\n        /* \"TEXOToken.sol\":18981:19561  if (success) {... */\n    tag_513:\n        /* \"TEXOToken.sol\":19146:19147  0 */\n      0x00\n        /* \"TEXOToken.sol\":19126:19136  returndata */\n      dup4\n        /* \"TEXOToken.sol\":19126:19143  returndata.length */\n      mload\n        /* \"TEXOToken.sol\":19126:19147  returndata.length > 0 */\n      gt\n        /* \"TEXOToken.sol\":19122:19551  if (returndata.length > 0) {... */\n      iszero\n      tag_515\n      jumpi\n        /* \"TEXOToken.sol\":19384:19394  returndata */\n      dup3\n        /* \"TEXOToken.sol\":19378:19395  mload(returndata) */\n      mload\n        /* \"TEXOToken.sol\":19444:19459  returndata_size */\n      dup1\n        /* \"TEXOToken.sol\":19431:19441  returndata */\n      dup5\n        /* \"TEXOToken.sol\":19427:19429  32 */\n      0x20\n        /* \"TEXOToken.sol\":19423:19442  add(32, returndata) */\n      add\n        /* \"TEXOToken.sol\":19416:19460  revert(add(32, returndata), returndata_size) */\n      revert\n        /* \"TEXOToken.sol\":19333:19478  {... */\n    tag_515:\n        /* \"TEXOToken.sol\":19523:19535  errorMessage */\n      dup2\n        /* \"TEXOToken.sol\":19516:19536  revert(errorMessage) */\n      mload(0x40)\n      0x08c379a000000000000000000000000000000000000000000000000000000000\n      dup2\n      mstore\n      0x04\n      add\n      dup1\n      dup1\n      0x20\n      add\n      dup3\n      dup2\n      sub\n      dup3\n      mstore\n      dup4\n      dup2\n      dup2\n      mload\n      dup2\n      mstore\n      0x20\n      add\n      swap2\n      pop\n      dup1\n      mload\n      swap1\n      0x20\n      add\n      swap1\n      dup1\n      dup4\n      dup4\n      0x00\n    tag_517:\n      dup4\n      dup2\n      lt\n      iszero\n      tag_519\n      jumpi\n      dup1\n      dup3\n      add\n      mload\n      dup2\n      dup5\n      add\n      mstore\n      0x20\n      dup2\n      add\n      swap1\n      pop\n      jump(tag_517)\n    tag_519:\n      pop\n      pop\n      pop\n      pop\n      swap1\n      pop\n      swap1\n      dup2\n      add\n      swap1\n      0x1f\n      and\n      dup1\n      iszero\n      tag_520\n      jumpi\n      dup1\n      dup3\n      sub\n      dup1\n      mload\n      0x01\n      dup4\n      0x20\n      sub\n      0x0100\n      exp\n      sub\n      not\n      and\n      dup2\n      mstore\n      0x20\n      add\n      swap2\n      pop\n    tag_520:\n      pop\n      swap3\n      pop\n      pop\n      pop\n      mload(0x40)\n      dup1\n      swap2\n      sub\n      swap1\n      revert\n        /* \"TEXOToken.sol\":18842:19567  function _verifyCallResult(bool success, bytes memory returndata, string memory errorMessage) private pure returns(bytes memory) {... */\n    tag_512:\n      swap4\n      swap3\n      pop\n      pop\n      pop\n      jump\t// out\n    stop\n    data_0ecf01aeb804f0ae223eada9d16893a9009cdcbe208d348705dc613f9a9f5331 6164643a20696e76616c6964206465706f7369742066656520626173697320706f696e7473\n    data_20a6bce988e8b6ff5852ac398e27735d1d8155a9d79e532ec3c3da13f504a6a4 757064617465526566426f6e757350657263656e743a20696e76616c696420726566657272616c20626f6e757320626173697320706f696e7473\n    data_21c3364d55537bf20eb8f05374e9f53f47299e1883c412f1f1135f398f2c2082 5361666542455032303a204245503230206f7065726174696f6e20646964206e6f742073756363656564\n    data_245f15ff17f551913a7a18385165551503906a406f905ac1c2437281a7cd0cfe 4f776e61626c653a206e6577206f776e657220697320746865207a65726f2061646472657373\n    data_2a7e0e7f8bc79ffac7125960112eaea13c804910c2e58b65c50e00aacc68de0e 73616665506c756d5472616e736665723a207472616e73666572206661696c65642e\n    data_542d191555ea619dedb1489efd71948659c57b11c6c1a84d1c1ce6e7c8074aad 6465706f7369743a20496e76616c69642072656665727265722061646472657373\n    data_565f1a77334fc4792800921178c71e4521acffab18ff9e7885b49377ee80ab4c 416464726573733a20696e73756666696369656e742062616c616e636520666f722063616c6c\n    data_9113bb53c2876a3805b2c9242029423fc540a728243ce887ab24c82cf119fba3 536166654d6174683a206d756c7469706c69636174696f6e206f766572666c6f77\n    data_9353dfb5d58f0da66015bbcadafa0686e2e7b7226db2e603088e70c7012680cf 7365743a20696e76616c6964206465706f7369742066656520626173697320706f696e7473\n    data_9d1a761c817eae8410d2081a433553cad78dcf01ebb754f58addc464260ba484 757064617465526566426f6e757350657263656e743a2073616d6520626f6e757320627020736574\n    data_a827dd9c9a80825686eef28a9f1d2466e1d29b6da48280d16028581898989615 726564756365456d697373696f6e526174655769746844656661756c74526174653a2043616e206f6e6c792062652063616c6c65642061667465722073706563696669656420626c6f636b20737461727473\n    data_bf35de78f3e15a98c58afdc189c393a6a76029783bd8ecfd3a8b87b4a628fd85 676574506f6f6c4964466f724c70546f6b656e3a20646f206e6f74206578697374\n    data_d4e7846547be135afcf8a93a01a9053e9fa2c0d79f8d5448158422588210b6ab 726564756365456d697373696f6e526174655769746844656661756c74526174653a20456d697373696f6e207261746520686173207265616368656420746865206d696e696d756d207468726573686f6c64\n    data_fb61bfab522ff5726f96c4cebf8c9bc7c68d529a173450ab2ca49eebd2ecf0bb 726564756365456d697373696f6e526174655769746844656661756c74526174653a205065726d697373696f6e20666c6167206e6f74207475726e6564206f6e\n\n    auxdata: 0xa26469706673582212205086e76068162e8d5815d1a34062ef193d3f6443de3f74ecc955147ddea1287e64736f6c634300060c0033\n}\n","bytecode":{"linkReferences":{},"object":"60806040526000600b556064600c5560006011556000601260006101000a81548160ff0219169083151502179055503480156200003b57600080fd5b5060405162004e8638038062004e86833981810160405260c08110156200006157600080fd5b810190808051906020019092919080519060200190929190805190602001909291908051906020019092919080519060200190929190805190602001909291905050506000620000b66200025460201b60201c565b9050806000806101000a81548173ffffffffffffffffffffffffffffffffffffffff021916908373ffffffffffffffffffffffffffffffffffffffff1602179055508073ffffffffffffffffffffffffffffffffffffffff16600073ffffffffffffffffffffffffffffffffffffffff167f8be0079c531659141344cd1fd0a4f28419497f9722a3daafe3b4186f6b6457e060405160405180910390a3506001808190555085600260006101000a81548173ffffffffffffffffffffffffffffffffffffffff021916908373ffffffffffffffffffffffffffffffffffffffff16021790555084600360006101000a81548173ffffffffffffffffffffffffffffffffffffffff021916908373ffffffffffffffffffffffffffffffffffffffff16021790555083600560006101000a81548173ffffffffffffffffffffffffffffffffffffffff021916908373ffffffffffffffffffffffffffffffffffffffff1602179055506706f05b59d3b200006004819055508243016008819055508143016006819055508043016007819055505050505050506200025c565b600033905090565b614c1a806200026c6000396000f3fe608060405234801561001057600080fd5b50600436106102955760003560e01c80638705fcd411610167578063b51d4c80116100ce578063da09c72c11610087578063da09c72c14610b6f578063dfe3d2cd14610ba3578063e2bbb15814610c05578063ea76bc2914610c3d578063f2fde38b14610c47578063fab96ae614610c8b57610295565b8063b51d4c80146109f5578063b7eee1f114610a39578063c6df25bd14610a57578063cbd258b514610ab3578063d0d41fe114610b0d578063d4adafdf14610b5157610295565b8063955c9b9311610120578063955c9b93146108cd5780639bf62f7e146108ef578063a151533314610947578063a1bdb15e14610965578063ae715d7014610993578063b2a5aa2e146109c757610295565b80638705fcd4146107215780638da5cb5b146107655780638dbb1e3a146107995780638dbdbe6d146107e557806391bb809c1461083d57806393f1a40b1461085b57610295565b80634a3b68cc1161020b57806364ed743b116101c457806364ed743b1461065f578063660f83401461068d57806366f685ea146106ab5780636a9a7660146106c9578063715018a6146106e757806380361747146106f157610295565b80634a3b68cc1461054f57806351eb05a6146105bd5780635312ea8e146105eb57806354324b581461061957806361e0c46814610637578063630b5ba11461065557610295565b80633a22df781161025d5780633a22df78146103db5780633b0f0f2f146103fd5780633f7b06d81461046b57806341275358146104c3578063441a3e70146104f757806347e3cda51461052f57610295565b8063081e3eda1461029a5780631526fe27146102b857806317caf6f114610337578063190f39f0146103555780631eb704b0146103ad575b600080fd5b6102a2610cfd565b6040518082815260200191505060405180910390f35b6102e4600480360360208110156102ce57600080fd5b8101908080359060200190929190505050610d0a565b604051808773ffffffffffffffffffffffffffffffffffffffff1681526020018681526020018581526020018481526020018381526020018261ffff168152602001965050505050505060405180910390f35b61033f610d81565b6040518082815260200191505060405180910390f35b6103976004803603602081101561036b57600080fd5b81019080803573ffffffffffffffffffffffffffffffffffffffff169060200190929190505050610d87565b6040518082815260200191505060405180910390f35b6103d9600480360360208110156103c357600080fd5b8101908080359060200190929190505050610e79565b005b6103e3610f4d565b604051808261ffff16815260200191505060405180910390f35b61043f6004803603602081101561041357600080fd5b81019080803573ffffffffffffffffffffffffffffffffffffffff169060200190929190505050610f53565b604051808273ffffffffffffffffffffffffffffffffffffffff16815260200191505060405180910390f35b6104ad6004803603602081101561048157600080fd5b81019080803573ffffffffffffffffffffffffffffffffffffffff169060200190929190505050610fbc565b6040518082815260200191505060405180910390f35b6104cb610fd4565b604051808273ffffffffffffffffffffffffffffffffffffffff16815260200191505060405180910390f35b61052d6004803603604081101561050d57600080fd5b810190808035906020019092919080359060200190929190505050610ffa565b005b610537611301565b60405180821515815260200191505060405180910390f35b6105916004803603602081101561056557600080fd5b81019080803573ffffffffffffffffffffffffffffffffffffffff169060200190929190505050611314565b604051808273ffffffffffffffffffffffffffffffffffffffff16815260200191505060405180910390f35b6105e9600480360360208110156105d357600080fd5b8101908080359060200190929190505050611347565b005b6106176004803603602081101561060157600080fd5b81019080803590602001909291905050506116be565b005b610621611895565b6040518082815260200191505060405180910390f35b61063f61189b565b6040518082815260200191505060405180910390f35b61065d6118a7565b005b61068b6004803603602081101561067557600080fd5b81019080803590602001909291905050506118d4565b005b610695611aa7565b6040518082815260200191505060405180910390f35b6106b3611aad565b6040518082815260200191505060405180910390f35b6106d1611ab3565b6040518082815260200191505060405180910390f35b6106ef611ab9565b005b61071f6004803603602081101561070757600080fd5b81019080803515159060200190929190505050611c3f565b005b6107636004803603602081101561073757600080fd5b81019080803573ffffffffffffffffffffffffffffffffffffffff169060200190929190505050611d24565b005b61076d611f28565b604051808273ffffffffffffffffffffffffffffffffffffffff16815260200191505060405180910390f35b6107cf600480360360408110156107af57600080fd5b810190808035906020019092919080359060200190929190505050611f51565b6040518082815260200191505060405180910390f35b61083b600480360360608110156107fb57600080fd5b810190808035906020019092919080359060200190929190803573ffffffffffffffffffffffffffffffffffffffff169060200190929190505050611f6e565b005b610845612411565b6040518082815260200191505060405180910390f35b6108a76004803603604081101561087157600080fd5b8101908080359060200190929190803573ffffffffffffffffffffffffffffffffffffffff16906020019092919050505061241d565b604051808481526020018381526020018215158152602001935050505060405180910390f35b6108d5612461565b604051808261ffff16815260200191505060405180910390f35b6109316004803603602081101561090557600080fd5b81019080803573ffffffffffffffffffffffffffffffffffffffff169060200190929190505050612467565b6040518082815260200191505060405180910390f35b61094f61247f565b6040518082815260200191505060405180910390f35b6109916004803603602081101561097b57600080fd5b8101908080359060200190929190505050612485565b005b61099b6125bd565b604051808273ffffffffffffffffffffffffffffffffffffffff16815260200191505060405180910390f35b6109f3600480360360208110156109dd57600080fd5b81019080803590602001909291905050506125e3565b005b610a2160048036036020811015610a0b57600080fd5b81019080803590602001909291905050506126b7565b60405180821515815260200191505060405180910390f35b610a416126e7565b6040518082815260200191505060405180910390f35b610ab1600480360360a0811015610a6d57600080fd5b810190808035906020019092919080359060200190929190803561ffff169060200190929190803515159060200190929190803590602001909291905050506126ed565b005b610af560048036036020811015610ac957600080fd5b81019080803573ffffffffffffffffffffffffffffffffffffffff16906020019092919050505061290f565b60405180821515815260200191505060405180910390f35b610b4f60048036036020811015610b2357600080fd5b81019080803573ffffffffffffffffffffffffffffffffffffffff16906020019092919050505061292f565b005b610b59612b33565b6040518082815260200191505060405180910390f35b610b77612b39565b604051808273ffffffffffffffffffffffffffffffffffffffff16815260200191505060405180910390f35b610bef60048036036040811015610bb957600080fd5b8101908080359060200190929190803573ffffffffffffffffffffffffffffffffffffffff169060200190929190505050612b5f565b6040518082815260200191505060405180910390f35b610c3b60048036036040811015610c1b57600080fd5b810190808035906020019092919080359060200190929190505050612dbd565b005b610c456131c7565b005b610c8960048036036020811015610c5d57600080fd5b81019080803573ffffffffffffffffffffffffffffffffffffffff169060200190929190505050613420565b005b610cfb600480360360a0811015610ca157600080fd5b8101908080359060200190929190803573ffffffffffffffffffffffffffffffffffffffff169060200190929190803561ffff169060200190929190803515159060200190929190803590602001909291905050506134f4565b005b6000600980549050905090565b60098181548110610d1757fe5b90600052602060002090600602016000915090508060000160009054906101000a900473ffffffffffffffffffffffffffffffffffffffff16908060010154908060020154908060030154908060040154908060050160009054906101000a900461ffff16905086565b600b5481565b6000801515600f60008473ffffffffffffffffffffffffffffffffffffffff1673ffffffffffffffffffffffffffffffffffffffff16815260200190815260200160002060009054906101000a900460ff1615151415610e32576040517f08c379a0000000000000000000000000000000000000000000000000000000008152600401808060200182810382526021815260200180614b326021913960400191505060405180910390fd5b601060008373ffffffffffffffffffffffffffffffffffffffff1673ffffffffffffffffffffffffffffffffffffffff168152602001908152602001600020549050919050565b610e816138ec565b73ffffffffffffffffffffffffffffffffffffffff1660008054906101000a900473ffffffffffffffffffffffffffffffffffffffff1673ffffffffffffffffffffffffffffffffffffffff1614610f41576040517f08c379a00000000000000000000000000000000000000000000000000000000081526004018080602001828103825260208152602001807f4f776e61626c653a2063616c6c6572206973206e6f7420746865206f776e657281525060200191505060405180910390fd5b80430160068190555050565b6107d081565b6000600d60008373ffffffffffffffffffffffffffffffffffffffff1673ffffffffffffffffffffffffffffffffffffffff16815260200190815260200160002060009054906101000a900473ffffffffffffffffffffffffffffffffffffffff169050919050565b600e6020528060005260406000206000915090505481565b600560009054906101000a900473ffffffffffffffffffffffffffffffffffffffff1681565b60026001541415611073576040517f08c379a000000000000000000000000000000000000000000000000000000000815260040180806020018281038252601f8152602001807f5265656e7472616e637947756172643a207265656e7472616e742063616c6c0081525060200191505060405180910390fd5b600260018190555060006009838154811061108a57fe5b906000526020600020906006020190506000600a600085815260200190815260200160002060003373ffffffffffffffffffffffffffffffffffffffff1673ffffffffffffffffffffffffffffffffffffffff16815260200190815260200160002090508281600001541015611168576040517f08c379a00000000000000000000000000000000000000000000000000000000081526004018080602001828103825260128152602001807f77697468647261773a206e6f7420676f6f64000000000000000000000000000081525060200191505060405180910390fd5b61117184611347565b600061117c856126b7565b905060006111c883600101546111ba64e8d4a510006111ac886004015488600001546138f490919063ffffffff16565b61397a90919063ffffffff16565b6139c490919063ffffffff16565b90508180156111d75750600081115b1561122b576111e63382613a0e565b6111f03382613ce2565b61122264e8d4a51000611214866004015486600001546138f490919063ffffffff16565b61397a90919063ffffffff16565b83600101819055505b60008511156112a35761124b8584600001546139c490919063ffffffff16565b83600001819055506112a233868660000160009054906101000a900473ffffffffffffffffffffffffffffffffffffffff1673ffffffffffffffffffffffffffffffffffffffff16613eaf9092919063ffffffff16565b5b853373ffffffffffffffffffffffffffffffffffffffff167ff279e6a1f5e320cca91135676d9cb6e44ca8a08c0b88342bcdb1144f6511b568876040518082815260200191505060405180910390a350505050600180819055505050565b601260009054906101000a900460ff1681565b600d6020528060005260406000206000915054906101000a900473ffffffffffffffffffffffffffffffffffffffff1681565b60006009828154811061135657fe5b906000526020600020906006020190508060030154431161137757506116bb565b6000611382836126b7565b905080156113915750506116bb565b60008260000160009054906101000a900473ffffffffffffffffffffffffffffffffffffffff1673ffffffffffffffffffffffffffffffffffffffff166370a08231306040518263ffffffff1660e01b8152600401808273ffffffffffffffffffffffffffffffffffffffff16815260200191505060206040518083038186803b15801561141e57600080fd5b505afa158015611432573d6000803e3d6000fd5b505050506040513d602081101561144857600080fd5b81019080805190602001909291905050509050600081148061146e575060008360010154145b15611484574383600301819055505050506116bb565b6000611494846003015443611f51565b905060006114d7600b546114c987600101546114bb600454876138f490919063ffffffff16565b6138f490919063ffffffff16565b61397a90919063ffffffff16565b9050600260009054906101000a900473ffffffffffffffffffffffffffffffffffffffff1673ffffffffffffffffffffffffffffffffffffffff166340c10f19600360009054906101000a900473ffffffffffffffffffffffffffffffffffffffff1661154e600a8561397a90919063ffffffff16565b6040518363ffffffff1660e01b8152600401808373ffffffffffffffffffffffffffffffffffffffff16815260200182815260200192505050600060405180830381600087803b1580156115a157600080fd5b505af11580156115b5573d6000803e3d6000fd5b50505050600260009054906101000a900473ffffffffffffffffffffffffffffffffffffffff1673ffffffffffffffffffffffffffffffffffffffff166340c10f1930836040518363ffffffff1660e01b8152600401808373ffffffffffffffffffffffffffffffffffffffff16815260200182815260200192505050600060405180830381600087803b15801561164c57600080fd5b505af1158015611660573d6000803e3d6000fd5b505050506116a46116918461168364e8d4a51000856138f490919063ffffffff16565b61397a90919063ffffffff16565b8660040154613f5190919063ffffffff16565b856004018190555043856003018190555050505050505b50565b60026001541415611737576040517f08c379a000000000000000000000000000000000000000000000000000000000815260040180806020018281038252601f8152602001807f5265656e7472616e637947756172643a207265656e7472616e742063616c6c0081525060200191505060405180910390fd5b600260018190555060006009828154811061174e57fe5b906000526020600020906006020190506000600a600084815260200190815260200160002060003373ffffffffffffffffffffffffffffffffffffffff1673ffffffffffffffffffffffffffffffffffffffff16815260200190815260200160002090506118053382600001548460000160009054906101000a900473ffffffffffffffffffffffffffffffffffffffff1673ffffffffffffffffffffffffffffffffffffffff16613eaf9092919063ffffffff16565b823373ffffffffffffffffffffffffffffffffffffffff167fbb757047c2b5f3974fe26b7c10f732e7bce710b0952a71082702781e62ae059583600001546040518082815260200191505060405180910390a3600081600001819055506000816001018190555060008160020160006101000a81548160ff02191690831515021790555050506001808190555050565b60065481565b67016345785d8a000081565b6000600980549050905060005b818110156118d0576118c581611347565b8060010190506118b4565b5050565b6118dc6138ec565b73ffffffffffffffffffffffffffffffffffffffff1660008054906101000a900473ffffffffffffffffffffffffffffffffffffffff1673ffffffffffffffffffffffffffffffffffffffff161461199c576040517f08c379a00000000000000000000000000000000000000000000000000000000081526004018080602001828103825260208152602001807f4f776e61626c653a2063616c6c6572206973206e6f7420746865206f776e657281525060200191505060405180910390fd5b6107d061ffff168111156119fb576040517f08c379a000000000000000000000000000000000000000000000000000000000815260040180806020018281038252603a81526020018061497f603a913960400191505060405180910390fd5b600c54811415611a56576040517f08c379a0000000000000000000000000000000000000000000000000000000008152600401808060200182810382526028815260200180614ab86028913960400191505060405180910390fd5b6000600c54905081600c819055507f3282b692bfebf5f35b198a229212cf532c72099026ab54c4b8665382d1086b3f8183604051808381526020018281526020019250505060405180910390a15050565b60045481565b600c5481565b60115481565b611ac16138ec565b73ffffffffffffffffffffffffffffffffffffffff1660008054906101000a900473ffffffffffffffffffffffffffffffffffffffff1673ffffffffffffffffffffffffffffffffffffffff1614611b81576040517f08c379a00000000000000000000000000000000000000000000000000000000081526004018080602001828103825260208152602001807f4f776e61626c653a2063616c6c6572206973206e6f7420746865206f776e657281525060200191505060405180910390fd5b600073ffffffffffffffffffffffffffffffffffffffff1660008054906101000a900473ffffffffffffffffffffffffffffffffffffffff1673ffffffffffffffffffffffffffffffffffffffff167f8be0079c531659141344cd1fd0a4f28419497f9722a3daafe3b4186f6b6457e060405160405180910390a360008060006101000a81548173ffffffffffffffffffffffffffffffffffffffff021916908373ffffffffffffffffffffffffffffffffffffffff160217905550565b611c476138ec565b73ffffffffffffffffffffffffffffffffffffffff1660008054906101000a900473ffffffffffffffffffffffffffffffffffffffff1673ffffffffffffffffffffffffffffffffffffffff1614611d07576040517f08c379a00000000000000000000000000000000000000000000000000000000081526004018080602001828103825260208152602001807f4f776e61626c653a2063616c6c6572206973206e6f7420746865206f776e657281525060200191505060405180910390fd5b80601260006101000a81548160ff02191690831515021790555050565b600073ffffffffffffffffffffffffffffffffffffffff168173ffffffffffffffffffffffffffffffffffffffff161415611dc7576040517f08c379a000000000000000000000000000000000000000000000000000000000815260040180806020018281038252601e8152602001807f736574466565416464726573733a20696e76616c69642061646472657373000081525060200191505060405180910390fd5b600560009054906101000a900473ffffffffffffffffffffffffffffffffffffffff1673ffffffffffffffffffffffffffffffffffffffff163373ffffffffffffffffffffffffffffffffffffffff1614611e8a576040517f08c379a00000000000000000000000000000000000000000000000000000000081526004018080602001828103825260188152602001807f736574466565416464726573733a20464f5242494444454e000000000000000081525060200191505060405180910390fd5b80600560006101000a81548173ffffffffffffffffffffffffffffffffffffffff021916908373ffffffffffffffffffffffffffffffffffffffff1602179055508073ffffffffffffffffffffffffffffffffffffffff163373ffffffffffffffffffffffffffffffffffffffff167fd44190acf9d04bdb5d3a1aafff7e6dee8b40b93dfb8c5d3f0eea4b9f4539c3f760405160405180910390a350565b60008060009054906101000a900473ffffffffffffffffffffffffffffffffffffffff16905090565b6000611f6683836139c490919063ffffffff16565b905092915050565b60026001541415611fe7576040517f08c379a000000000000000000000000000000000000000000000000000000000815260040180806020018281038252601f8152602001807f5265656e7472616e637947756172643a207265656e7472616e742063616c6c0081525060200191505060405180910390fd5b60026001819055508073ffffffffffffffffffffffffffffffffffffffff168173ffffffffffffffffffffffffffffffffffffffff1614612073576040517f08c379a0000000000000000000000000000000000000000000000000000000008152600401808060200182810382526021815260200180614a2b6021913960400191505060405180910390fd5b60006009848154811061208257fe5b906000526020600020906006020190506000600a600086815260200190815260200160002060003373ffffffffffffffffffffffffffffffffffffffff1673ffffffffffffffffffffffffffffffffffffffff16815260200190815260200160002090506120ef85611347565b6000816000015411156121b9576000612146826001015461213864e8d4a5100061212a876004015487600001546138f490919063ffffffff16565b61397a90919063ffffffff16565b6139c490919063ffffffff16565b90506000612153876126b7565b90508080156121625750600082115b156121b6576121713383613a0e565b61217b3383613ce2565b6121ad64e8d4a5100061219f866004015486600001546138f490919063ffffffff16565b61397a90919063ffffffff16565b83600101819055505b50505b6000841115612346576121cc3384613fd9565b61221d3330868560000160009054906101000a900473ffffffffffffffffffffffffffffffffffffffff1673ffffffffffffffffffffffffffffffffffffffff16614240909392919063ffffffff16565b60008260050160009054906101000a900461ffff1661ffff16111561232557600061227b61271061226d8560050160009054906101000a900461ffff1661ffff16886138f490919063ffffffff16565b61397a90919063ffffffff16565b90506122a681612298878560000154613f5190919063ffffffff16565b6139c490919063ffffffff16565b826000018190555061231f600560009054906101000a900473ffffffffffffffffffffffffffffffffffffffff16828560000160009054906101000a900473ffffffffffffffffffffffffffffffffffffffff1673ffffffffffffffffffffffffffffffffffffffff16613eaf9092919063ffffffff16565b50612345565b61233c848260000154613f5190919063ffffffff16565b81600001819055505b5b8060020160009054906101000a900460ff166123b45761238e64e8d4a51000612380846004015484600001546138f490919063ffffffff16565b61397a90919063ffffffff16565b816001018190555060018160020160006101000a81548160ff0219169083151502179055505b843373ffffffffffffffffffffffffffffffffffffffff167f90890809c654f11d6e72a28fa60149770a0d11ec6c92319d6ceb2bb0a4ea1a15866040518082815260200191505060405180910390a3505060018081905550505050565b6706f05b59d3b2000081565b600a602052816000526040600020602052806000526040600020600091509150508060000154908060010154908060020160009054906101000a900460ff16905083565b6103e881565b60106020528060005260406000206000915090505481565b60075481565b61248d6138ec565b73ffffffffffffffffffffffffffffffffffffffff1660008054906101000a900473ffffffffffffffffffffffffffffffffffffffff1673ffffffffffffffffffffffffffffffffffffffff161461254d576040517f08c379a00000000000000000000000000000000000000000000000000000000081526004018080602001828103825260208152602001807f4f776e61626c653a2063616c6c6572206973206e6f7420746865206f776e657281525060200191505060405180910390fd5b60006004549050816004819055506125636118a7565b3373ffffffffffffffffffffffffffffffffffffffff167feedc6338c9c1ad8f3cd6c90dd09dbe98dbd57e610d3e59a17996d07acb0d95118284604051808381526020018281526020019250505060405180910390a25050565b600260009054906101000a900473ffffffffffffffffffffffffffffffffffffffff1681565b6125eb6138ec565b73ffffffffffffffffffffffffffffffffffffffff1660008054906101000a900473ffffffffffffffffffffffffffffffffffffffff1673ffffffffffffffffffffffffffffffffffffffff16146126ab576040517f08c379a00000000000000000000000000000000000000000000000000000000081526004018080602001828103825260208152602001807f4f776e61626c653a2063616c6c6572206973206e6f7420746865206f776e657281525060200191505060405180910390fd5b80430160078190555050565b600080600983815481106126c757fe5b906000526020600020906006020190504381600201541115915050919050565b6105dc81565b6126f56138ec565b73ffffffffffffffffffffffffffffffffffffffff1660008054906101000a900473ffffffffffffffffffffffffffffffffffffffff1673ffffffffffffffffffffffffffffffffffffffff16146127b5576040517f08c379a00000000000000000000000000000000000000000000000000000000081526004018080602001828103825260208152602001807f4f776e61626c653a2063616c6c6572206973206e6f7420746865206f776e657281525060200191505060405180910390fd5b6103e861ffff168361ffff161115612818576040517f08c379a0000000000000000000000000000000000000000000000000000000008152600401808060200182810382526025815260200180614a936025913960400191505060405180910390fd5b8115612827576128266118a7565b5b60006007549050600082111561283d5781430190505b612882856128746009898154811061285157fe5b906000526020600020906006020160010154600b546139c490919063ffffffff16565b613f5190919063ffffffff16565b600b81905550846009878154811061289657fe5b90600052602060002090600602016001018190555083600987815481106128b957fe5b906000526020600020906006020160050160006101000a81548161ffff021916908361ffff16021790555080600987815481106128f257fe5b906000526020600020906006020160020181905550505050505050565b600f6020528060005260406000206000915054906101000a900460ff1681565b600073ffffffffffffffffffffffffffffffffffffffff168173ffffffffffffffffffffffffffffffffffffffff1614156129d2576040517f08c379a00000000000000000000000000000000000000000000000000000000081526004018080602001828103825260148152602001807f6465763a20696e76616c6964206164647265737300000000000000000000000081525060200191505060405180910390fd5b600360009054906101000a900473ffffffffffffffffffffffffffffffffffffffff1673ffffffffffffffffffffffffffffffffffffffff163373ffffffffffffffffffffffffffffffffffffffff1614612a95576040517f08c379a00000000000000000000000000000000000000000000000000000000081526004018080602001828103825260098152602001807f6465763a207775743f000000000000000000000000000000000000000000000081525060200191505060405180910390fd5b80600360006101000a81548173ffffffffffffffffffffffffffffffffffffffff021916908373ffffffffffffffffffffffffffffffffffffffff1602179055508073ffffffffffffffffffffffffffffffffffffffff163373ffffffffffffffffffffffffffffffffffffffff167f618c54559e94f1499a808aad71ee8729f8e74e8c48e979616328ce493a1a52e760405160405180910390a350565b61708081565b600360009054906101000a900473ffffffffffffffffffffffffffffffffffffffff1681565b60008060098481548110612b6f57fe5b906000526020600020906006020190506000600a600086815260200190815260200160002060008573ffffffffffffffffffffffffffffffffffffffff1673ffffffffffffffffffffffffffffffffffffffff168152602001908152602001600020905060008260040154905060008360000160009054906101000a900473ffffffffffffffffffffffffffffffffffffffff1673ffffffffffffffffffffffffffffffffffffffff166370a08231306040518263ffffffff1660e01b8152600401808273ffffffffffffffffffffffffffffffffffffffff16815260200191505060206040518083038186803b158015612c6957600080fd5b505afa158015612c7d573d6000803e3d6000fd5b505050506040513d6020811015612c9357600080fd5b810190808051906020019092919050505090506000612cb1886126b7565b905080158015612cc45750846003015443115b8015612cd1575060008214155b15612d6c576000612ce6866003015443611f51565b90506000612d29600b54612d1b8960010154612d0d600454876138f490919063ffffffff16565b6138f490919063ffffffff16565b61397a90919063ffffffff16565b9050612d67612d5885612d4a64e8d4a51000856138f490919063ffffffff16565b61397a90919063ffffffff16565b86613f5190919063ffffffff16565b945050505b612db08460010154612da264e8d4a51000612d948789600001546138f490919063ffffffff16565b61397a90919063ffffffff16565b6139c490919063ffffffff16565b9550505050505092915050565b60026001541415612e36576040517f08c379a000000000000000000000000000000000000000000000000000000000815260040180806020018281038252601f8152602001807f5265656e7472616e637947756172643a207265656e7472616e742063616c6c0081525060200191505060405180910390fd5b6002600181905550600060098381548110612e4d57fe5b906000526020600020906006020190506000600a600085815260200190815260200160002060003373ffffffffffffffffffffffffffffffffffffffff1673ffffffffffffffffffffffffffffffffffffffff1681526020019081526020016000209050612eba84611347565b600081600001541115612f7a576000612f118260010154612f0364e8d4a51000612ef5876004015487600001546138f490919063ffffffff16565b61397a90919063ffffffff16565b6139c490919063ffffffff16565b90506000612f1e866126b7565b9050808015612f2d5750600082115b15612f7757612f3c3383613a0e565b612f6e64e8d4a51000612f60866004015486600001546138f490919063ffffffff16565b61397a90919063ffffffff16565b83600101819055505b50505b60008311156130fd57612fd43330858560000160009054906101000a900473ffffffffffffffffffffffffffffffffffffffff1673ffffffffffffffffffffffffffffffffffffffff16614240909392919063ffffffff16565b60008260050160009054906101000a900461ffff1661ffff1611156130dc5760006130326127106130248560050160009054906101000a900461ffff1661ffff16876138f490919063ffffffff16565b61397a90919063ffffffff16565b905061305d8161304f868560000154613f5190919063ffffffff16565b6139c490919063ffffffff16565b82600001819055506130d6600560009054906101000a900473ffffffffffffffffffffffffffffffffffffffff16828560000160009054906101000a900473ffffffffffffffffffffffffffffffffffffffff1673ffffffffffffffffffffffffffffffffffffffff16613eaf9092919063ffffffff16565b506130fc565b6130f3838260000154613f5190919063ffffffff16565b81600001819055505b5b8060020160009054906101000a900460ff1661316b5761314564e8d4a51000613137846004015484600001546138f490919063ffffffff16565b61397a90919063ffffffff16565b816001018190555060018160020160006101000a81548160ff0219169083151502179055505b833373ffffffffffffffffffffffffffffffffffffffff167f90890809c654f11d6e72a28fa60149770a0d11ec6c92319d6ceb2bb0a4ea1a15856040518082815260200191505060405180910390a35050600180819055505050565b601260009054906101000a900460ff1661322c576040517f08c379a0000000000000000000000000000000000000000000000000000000008152600401808060200182810382526040815260200180614ba56040913960400191505060405180910390fd5b6006544311613286576040517f08c379a0000000000000000000000000000000000000000000000000000000008152600401808060200182810382526052815260200180614ae06052913960600191505060405180910390fd5b67016345785d8a0000600454116132e8576040517f08c379a0000000000000000000000000000000000000000000000000000000008152600401808060200182810382526052815260200180614b536052913960600191505060405180910390fd5b6000613313617080613305600654436139c490919063ffffffff16565b61397a90919063ffffffff16565b90506011548111613324575061341e565b60006004549050600060115490505b828110156133755761336861271061335a6105dc61271003856138f490919063ffffffff16565b61397a90919063ffffffff16565b9150806001019050613333565b5067016345785d8a0000811061338b5780613395565b67016345785d8a00005b905060045481106133a757505061341e565b6133af6118a7565b8160118190555060006004549050816004819055503373ffffffffffffffffffffffffffffffffffffffff167feedc6338c9c1ad8f3cd6c90dd09dbe98dbd57e610d3e59a17996d07acb0d95118284604051808381526020018281526020019250505060405180910390a25050505b565b6134286138ec565b73ffffffffffffffffffffffffffffffffffffffff1660008054906101000a900473ffffffffffffffffffffffffffffffffffffffff1673ffffffffffffffffffffffffffffffffffffffff16146134e8576040517f08c379a00000000000000000000000000000000000000000000000000000000081526004018080602001828103825260208152602001807f4f776e61626c653a2063616c6c6572206973206e6f7420746865206f776e657281525060200191505060405180910390fd5b6134f181614301565b50565b6134fc6138ec565b73ffffffffffffffffffffffffffffffffffffffff1660008054906101000a900473ffffffffffffffffffffffffffffffffffffffff1673ffffffffffffffffffffffffffffffffffffffff16146135bc576040517f08c379a00000000000000000000000000000000000000000000000000000000081526004018080602001828103825260208152602001807f4f776e61626c653a2063616c6c6572206973206e6f7420746865206f776e657281525060200191505060405180910390fd5b8360001515600f60008373ffffffffffffffffffffffffffffffffffffffff1673ffffffffffffffffffffffffffffffffffffffff16815260200190815260200160002060009054906101000a900460ff16151514613683576040517f08c379a00000000000000000000000000000000000000000000000000000000081526004018080602001828103825260198152602001807f6e6f6e4475706c6963617465643a206475706c6963617465640000000000000081525060200191505060405180910390fd5b6103e861ffff168461ffff1611156136e6576040517f08c379a000000000000000000000000000000000000000000000000000000000815260040180806020018281038252602581526020018061495a6025913960400191505060405180910390fd5b82156136f5576136f46118a7565b5b60006007549050600083111561370b5782430190505b61372087600b54613f5190919063ffffffff16565b600b819055506001600f60008873ffffffffffffffffffffffffffffffffffffffff1673ffffffffffffffffffffffffffffffffffffffff16815260200190815260200160002060006101000a81548160ff02191690831515021790555060096040518060c001604052808873ffffffffffffffffffffffffffffffffffffffff16815260200189815260200183815260200160085443116137c4576008546137c6565b435b8152602001600081526020018761ffff16815250908060018154018082558091505060019003906000526020600020906006020160009091909190915060008201518160000160006101000a81548173ffffffffffffffffffffffffffffffffffffffff021916908373ffffffffffffffffffffffffffffffffffffffff1602179055506020820151816001015560408201518160020155606082015181600301556080820151816004015560a08201518160050160006101000a81548161ffff021916908361ffff1602179055505050600160098054905003601060008873ffffffffffffffffffffffffffffffffffffffff1673ffffffffffffffffffffffffffffffffffffffff1681526020019081526020016000208190555050505050505050565b600033905090565b6000808314156139075760009050613974565b600082840290508284828161391857fe5b041461396f576040517f08c379a0000000000000000000000000000000000000000000000000000000008152600401808060200182810382526021815260200180614a726021913960400191505060405180910390fd5b809150505b92915050565b60006139bc83836040518060400160405280601a81526020017f536166654d6174683a206469766973696f6e206279207a65726f000000000000815250614444565b905092915050565b6000613a0683836040518060400160405280601e81526020017f536166654d6174683a207375627472616374696f6e206f766572666c6f77000081525061450a565b905092915050565b6000600260009054906101000a900473ffffffffffffffffffffffffffffffffffffffff1673ffffffffffffffffffffffffffffffffffffffff166370a08231306040518263ffffffff1660e01b8152600401808273ffffffffffffffffffffffffffffffffffffffff16815260200191505060206040518083038186803b158015613a9957600080fd5b505afa158015613aad573d6000803e3d6000fd5b505050506040513d6020811015613ac357600080fd5b81019080805190602001909291905050509050600081831115613bb557600260009054906101000a900473ffffffffffffffffffffffffffffffffffffffff1673ffffffffffffffffffffffffffffffffffffffff1663a9059cbb85846040518363ffffffff1660e01b8152600401808373ffffffffffffffffffffffffffffffffffffffff16815260200182815260200192505050602060405180830381600087803b158015613b7357600080fd5b505af1158015613b87573d6000803e3d6000fd5b505050506040513d6020811015613b9d57600080fd5b81019080805190602001909291905050509050613c86565b600260009054906101000a900473ffffffffffffffffffffffffffffffffffffffff1673ffffffffffffffffffffffffffffffffffffffff1663a9059cbb85856040518363ffffffff1660e01b8152600401808373ffffffffffffffffffffffffffffffffffffffff16815260200182815260200192505050602060405180830381600087803b158015613c4857600080fd5b505af1158015613c5c573d6000803e3d6000fd5b505050506040513d6020811015613c7257600080fd5b810190808051906020019092919050505090505b80613cdc576040517f08c379a0000000000000000000000000000000000000000000000000000000008152600401808060200182810382526022815260200180614a096022913960400191505060405180910390fd5b50505050565b6000613ced83610f53565b9050600073ffffffffffffffffffffffffffffffffffffffff168173ffffffffffffffffffffffffffffffffffffffff1614158015613d5857508273ffffffffffffffffffffffffffffffffffffffff168173ffffffffffffffffffffffffffffffffffffffff1614155b8015613d6657506000600c54115b15613eaa576000613d96612710613d88600c54866138f490919063ffffffff16565b61397a90919063ffffffff16565b9050600260009054906101000a900473ffffffffffffffffffffffffffffffffffffffff1673ffffffffffffffffffffffffffffffffffffffff166340c10f1983836040518363ffffffff1660e01b8152600401808373ffffffffffffffffffffffffffffffffffffffff16815260200182815260200192505050600060405180830381600087803b158015613e2b57600080fd5b505af1158015613e3f573d6000803e3d6000fd5b505050508173ffffffffffffffffffffffffffffffffffffffff168473ffffffffffffffffffffffffffffffffffffffff167f0a721ab4682ceb61c7e4d264ef879fc419a6d764b136e7d96ef54b2053c75673836040518082815260200191505060405180910390a3505b505050565b613f4c8363a9059cbb60e01b8484604051602401808373ffffffffffffffffffffffffffffffffffffffff16815260200182815260200192505050604051602081830303815290604052907bffffffffffffffffffffffffffffffffffffffffffffffffffffffff19166020820180517bffffffffffffffffffffffffffffffffffffffffffffffffffffffff83818316178352505050506145ca565b505050565b600080828401905083811015613fcf576040517f08c379a000000000000000000000000000000000000000000000000000000000815260040180806020018281038252601b8152602001807f536166654d6174683a206164646974696f6e206f766572666c6f77000000000081525060200191505060405180910390fd5b8091505092915050565b8073ffffffffffffffffffffffffffffffffffffffff168173ffffffffffffffffffffffffffffffffffffffff1614801561409f5750600073ffffffffffffffffffffffffffffffffffffffff16600d60008473ffffffffffffffffffffffffffffffffffffffff1673ffffffffffffffffffffffffffffffffffffffff16815260200190815260200160002060009054906101000a900473ffffffffffffffffffffffffffffffffffffffff1673ffffffffffffffffffffffffffffffffffffffff16145b80156140d85750600073ffffffffffffffffffffffffffffffffffffffff168173ffffffffffffffffffffffffffffffffffffffff1614155b801561411057508173ffffffffffffffffffffffffffffffffffffffff168173ffffffffffffffffffffffffffffffffffffffff1614155b1561423c5780600d60008473ffffffffffffffffffffffffffffffffffffffff1673ffffffffffffffffffffffffffffffffffffffff16815260200190815260200160002060006101000a81548173ffffffffffffffffffffffffffffffffffffffff021916908373ffffffffffffffffffffffffffffffffffffffff1602179055506001600e60008373ffffffffffffffffffffffffffffffffffffffff1673ffffffffffffffffffffffffffffffffffffffff168152602001908152602001600020600082825401925050819055508073ffffffffffffffffffffffffffffffffffffffff168273ffffffffffffffffffffffffffffffffffffffff167f9d05414fb79fac216c15606de5cc06664e91a254e4d5f57664d5f1beaf7fb7ef60405160405180910390a35b5050565b6142fb846323b872dd60e01b858585604051602401808473ffffffffffffffffffffffffffffffffffffffff1681526020018373ffffffffffffffffffffffffffffffffffffffff1681526020018281526020019350505050604051602081830303815290604052907bffffffffffffffffffffffffffffffffffffffffffffffffffffffff19166020820180517bffffffffffffffffffffffffffffffffffffffffffffffffffffffff83818316178352505050506145ca565b50505050565b600073ffffffffffffffffffffffffffffffffffffffff168173ffffffffffffffffffffffffffffffffffffffff161415614387576040517f08c379a00000000000000000000000000000000000000000000000000000000081526004018080602001828103825260268152602001806149e36026913960400191505060405180910390fd5b8073ffffffffffffffffffffffffffffffffffffffff1660008054906101000a900473ffffffffffffffffffffffffffffffffffffffff1673ffffffffffffffffffffffffffffffffffffffff167f8be0079c531659141344cd1fd0a4f28419497f9722a3daafe3b4186f6b6457e060405160405180910390a3806000806101000a81548173ffffffffffffffffffffffffffffffffffffffff021916908373ffffffffffffffffffffffffffffffffffffffff16021790555050565b600080831182906144f0576040517f08c379a00000000000000000000000000000000000000000000000000000000081526004018080602001828103825283818151815260200191508051906020019080838360005b838110156144b557808201518184015260208101905061449a565b50505050905090810190601f1680156144e25780820380516001836020036101000a031916815260200191505b509250505060405180910390fd5b5060008385816144fc57fe5b049050809150509392505050565b60008383111582906145b7576040517f08c379a00000000000000000000000000000000000000000000000000000000081526004018080602001828103825283818151815260200191508051906020019080838360005b8381101561457c578082015181840152602081019050614561565b50505050905090810190601f1680156145a95780820380516001836020036101000a031916815260200191505b509250505060405180910390fd5b5060008385039050809150509392505050565b606061462c826040518060400160405280602081526020017f5361666542455032303a206c6f772d6c6576656c2063616c6c206661696c65648152508573ffffffffffffffffffffffffffffffffffffffff166146b99092919063ffffffff16565b90506000815111156146b45780806020019051602081101561464d57600080fd5b81019080805190602001909291905050506146b3576040517f08c379a000000000000000000000000000000000000000000000000000000000815260040180806020018281038252602a8152602001806149b9602a913960400191505060405180910390fd5b5b505050565b60606146c884846000856146d1565b90509392505050565b60608247101561472c576040517f08c379a0000000000000000000000000000000000000000000000000000000008152600401808060200182810382526026815260200180614a4c6026913960400191505060405180910390fd5b6147358561487a565b6147a7576040517f08c379a000000000000000000000000000000000000000000000000000000000815260040180806020018281038252601d8152602001807f416464726573733a2063616c6c20746f206e6f6e2d636f6e747261637400000081525060200191505060405180910390fd5b600060608673ffffffffffffffffffffffffffffffffffffffff1685876040518082805190602001908083835b602083106147f757805182526020820191506020810190506020830392506147d4565b6001836020036101000a03801982511681845116808217855250505050505090500191505060006040518083038185875af1925050503d8060008114614859576040519150601f19603f3d011682016040523d82523d6000602084013e61485e565b606091505b509150915061486e82828661488d565b92505050949350505050565b600080823b905060008111915050919050565b6060831561489d57829050614952565b6000835111156148b05782518084602001fd5b816040517f08c379a00000000000000000000000000000000000000000000000000000000081526004018080602001828103825283818151815260200191508051906020019080838360005b838110156149175780820151818401526020810190506148fc565b50505050905090810190601f1680156149445780820380516001836020036101000a031916815260200191505b509250505060405180910390fd5b939250505056fe6164643a20696e76616c6964206465706f7369742066656520626173697320706f696e7473757064617465526566426f6e757350657263656e743a20696e76616c696420726566657272616c20626f6e757320626173697320706f696e74735361666542455032303a204245503230206f7065726174696f6e20646964206e6f7420737563636565644f776e61626c653a206e6577206f776e657220697320746865207a65726f206164647265737373616665506c756d5472616e736665723a207472616e73666572206661696c65642e6465706f7369743a20496e76616c69642072656665727265722061646472657373416464726573733a20696e73756666696369656e742062616c616e636520666f722063616c6c536166654d6174683a206d756c7469706c69636174696f6e206f766572666c6f777365743a20696e76616c6964206465706f7369742066656520626173697320706f696e7473757064617465526566426f6e757350657263656e743a2073616d6520626f6e757320627020736574726564756365456d697373696f6e526174655769746844656661756c74526174653a2043616e206f6e6c792062652063616c6c65642061667465722073706563696669656420626c6f636b20737461727473676574506f6f6c4964466f724c70546f6b656e3a20646f206e6f74206578697374726564756365456d697373696f6e526174655769746844656661756c74526174653a20456d697373696f6e207261746520686173207265616368656420746865206d696e696d756d207468726573686f6c64726564756365456d697373696f6e526174655769746844656661756c74526174653a205065726d697373696f6e20666c6167206e6f74207475726e6564206f6ea26469706673582212205086e76068162e8d5815d1a34062ef193d3f6443de3f74ecc955147ddea1287e64736f6c634300060c0033","opcodes":"PUSH1 0x80 PUSH1 0x40 MSTORE PUSH1 0x0 PUSH1 0xB SSTORE PUSH1 0x64 PUSH1 0xC SSTORE PUSH1 0x0 PUSH1 0x11 SSTORE PUSH1 0x0 PUSH1 0x12 PUSH1 0x0 PUSH2 0x100 EXP DUP2 SLOAD DUP2 PUSH1 0xFF MUL NOT AND SWAP1 DUP4 ISZERO ISZERO MUL OR SWAP1 SSTORE POP CALLVALUE DUP1 ISZERO PUSH3 0x3B JUMPI PUSH1 0x0 DUP1 REVERT JUMPDEST POP PUSH1 0x40 MLOAD PUSH3 0x4E86 CODESIZE SUB DUP1 PUSH3 0x4E86 DUP4 CODECOPY DUP2 DUP2 ADD PUSH1 0x40 MSTORE PUSH1 0xC0 DUP2 LT ISZERO PUSH3 0x61 JUMPI PUSH1 0x0 DUP1 REVERT JUMPDEST DUP2 ADD SWAP1 DUP1 DUP1 MLOAD SWAP1 PUSH1 0x20 ADD SWAP1 SWAP3 SWAP2 SWAP1 DUP1 MLOAD SWAP1 PUSH1 0x20 ADD SWAP1 SWAP3 SWAP2 SWAP1 DUP1 MLOAD SWAP1 PUSH1 0x20 ADD SWAP1 SWAP3 SWAP2 SWAP1 DUP1 MLOAD SWAP1 PUSH1 0x20 ADD SWAP1 SWAP3 SWAP2 SWAP1 DUP1 MLOAD SWAP1 PUSH1 0x20 ADD SWAP1 SWAP3 SWAP2 SWAP1 DUP1 MLOAD SWAP1 PUSH1 0x20 ADD SWAP1 SWAP3 SWAP2 SWAP1 POP POP POP PUSH1 0x0 PUSH3 0xB6 PUSH3 0x254 PUSH1 0x20 SHL PUSH1 0x20 SHR JUMP JUMPDEST SWAP1 POP DUP1 PUSH1 0x0 DUP1 PUSH2 0x100 EXP DUP2 SLOAD DUP2 PUSH20 0xFFFFFFFFFFFFFFFFFFFFFFFFFFFFFFFFFFFFFFFF MUL NOT AND SWAP1 DUP4 PUSH20 0xFFFFFFFFFFFFFFFFFFFFFFFFFFFFFFFFFFFFFFFF AND MUL OR SWAP1 SSTORE POP DUP1 PUSH20 0xFFFFFFFFFFFFFFFFFFFFFFFFFFFFFFFFFFFFFFFF AND PUSH1 0x0 PUSH20 0xFFFFFFFFFFFFFFFFFFFFFFFFFFFFFFFFFFFFFFFF AND PUSH32 0x8BE0079C531659141344CD1FD0A4F28419497F9722A3DAAFE3B4186F6B6457E0 PUSH1 0x40 MLOAD PUSH1 0x40 MLOAD DUP1 SWAP2 SUB SWAP1 LOG3 POP PUSH1 0x1 DUP1 DUP2 SWAP1 SSTORE POP DUP6 PUSH1 0x2 PUSH1 0x0 PUSH2 0x100 EXP DUP2 SLOAD DUP2 PUSH20 0xFFFFFFFFFFFFFFFFFFFFFFFFFFFFFFFFFFFFFFFF MUL NOT AND SWAP1 DUP4 PUSH20 0xFFFFFFFFFFFFFFFFFFFFFFFFFFFFFFFFFFFFFFFF AND MUL OR SWAP1 SSTORE POP DUP5 PUSH1 0x3 PUSH1 0x0 PUSH2 0x100 EXP DUP2 SLOAD DUP2 PUSH20 0xFFFFFFFFFFFFFFFFFFFFFFFFFFFFFFFFFFFFFFFF MUL NOT AND SWAP1 DUP4 PUSH20 0xFFFFFFFFFFFFFFFFFFFFFFFFFFFFFFFFFFFFFFFF AND MUL OR SWAP1 SSTORE POP DUP4 PUSH1 0x5 PUSH1 0x0 PUSH2 0x100 EXP DUP2 SLOAD DUP2 PUSH20 0xFFFFFFFFFFFFFFFFFFFFFFFFFFFFFFFFFFFFFFFF MUL NOT AND SWAP1 DUP4 PUSH20 0xFFFFFFFFFFFFFFFFFFFFFFFFFFFFFFFFFFFFFFFF AND MUL OR SWAP1 SSTORE POP PUSH8 0x6F05B59D3B20000 PUSH1 0x4 DUP2 SWAP1 SSTORE POP DUP3 NUMBER ADD PUSH1 0x8 DUP2 SWAP1 SSTORE POP DUP2 NUMBER ADD PUSH1 0x6 DUP2 SWAP1 SSTORE POP DUP1 NUMBER ADD PUSH1 0x7 DUP2 SWAP1 SSTORE POP POP POP POP POP POP POP PUSH3 0x25C JUMP JUMPDEST PUSH1 0x0 CALLER SWAP1 POP SWAP1 JUMP JUMPDEST PUSH2 0x4C1A DUP1 PUSH3 0x26C PUSH1 0x0 CODECOPY PUSH1 0x0 RETURN INVALID PUSH1 0x80 PUSH1 0x40 MSTORE CALLVALUE DUP1 ISZERO PUSH2 0x10 JUMPI PUSH1 0x0 DUP1 REVERT JUMPDEST POP PUSH1 0x4 CALLDATASIZE LT PUSH2 0x295 JUMPI PUSH1 0x0 CALLDATALOAD PUSH1 0xE0 SHR DUP1 PUSH4 0x8705FCD4 GT PUSH2 0x167 JUMPI DUP1 PUSH4 0xB51D4C80 GT PUSH2 0xCE JUMPI DUP1 PUSH4 0xDA09C72C GT PUSH2 0x87 JUMPI DUP1 PUSH4 0xDA09C72C EQ PUSH2 0xB6F JUMPI DUP1 PUSH4 0xDFE3D2CD EQ PUSH2 0xBA3 JUMPI DUP1 PUSH4 0xE2BBB158 EQ PUSH2 0xC05 JUMPI DUP1 PUSH4 0xEA76BC29 EQ PUSH2 0xC3D JUMPI DUP1 PUSH4 0xF2FDE38B EQ PUSH2 0xC47 JUMPI DUP1 PUSH4 0xFAB96AE6 EQ PUSH2 0xC8B JUMPI PUSH2 0x295 JUMP JUMPDEST DUP1 PUSH4 0xB51D4C80 EQ PUSH2 0x9F5 JUMPI DUP1 PUSH4 0xB7EEE1F1 EQ PUSH2 0xA39 JUMPI DUP1 PUSH4 0xC6DF25BD EQ PUSH2 0xA57 JUMPI DUP1 PUSH4 0xCBD258B5 EQ PUSH2 0xAB3 JUMPI DUP1 PUSH4 0xD0D41FE1 EQ PUSH2 0xB0D JUMPI DUP1 PUSH4 0xD4ADAFDF EQ PUSH2 0xB51 JUMPI PUSH2 0x295 JUMP JUMPDEST DUP1 PUSH4 0x955C9B93 GT PUSH2 0x120 JUMPI DUP1 PUSH4 0x955C9B93 EQ PUSH2 0x8CD JUMPI DUP1 PUSH4 0x9BF62F7E EQ PUSH2 0x8EF JUMPI DUP1 PUSH4 0xA1515333 EQ PUSH2 0x947 JUMPI DUP1 PUSH4 0xA1BDB15E EQ PUSH2 0x965 JUMPI DUP1 PUSH4 0xAE715D70 EQ PUSH2 0x993 JUMPI DUP1 PUSH4 0xB2A5AA2E EQ PUSH2 0x9C7 JUMPI PUSH2 0x295 JUMP JUMPDEST DUP1 PUSH4 0x8705FCD4 EQ PUSH2 0x721 JUMPI DUP1 PUSH4 0x8DA5CB5B EQ PUSH2 0x765 JUMPI DUP1 PUSH4 0x8DBB1E3A EQ PUSH2 0x799 JUMPI DUP1 PUSH4 0x8DBDBE6D EQ PUSH2 0x7E5 JUMPI DUP1 PUSH4 0x91BB809C EQ PUSH2 0x83D JUMPI DUP1 PUSH4 0x93F1A40B EQ PUSH2 0x85B JUMPI PUSH2 0x295 JUMP JUMPDEST DUP1 PUSH4 0x4A3B68CC GT PUSH2 0x20B JUMPI DUP1 PUSH4 0x64ED743B GT PUSH2 0x1C4 JUMPI DUP1 PUSH4 0x64ED743B EQ PUSH2 0x65F JUMPI DUP1 PUSH4 0x660F8340 EQ PUSH2 0x68D JUMPI DUP1 PUSH4 0x66F685EA EQ PUSH2 0x6AB JUMPI DUP1 PUSH4 0x6A9A7660 EQ PUSH2 0x6C9 JUMPI DUP1 PUSH4 0x715018A6 EQ PUSH2 0x6E7 JUMPI DUP1 PUSH4 0x80361747 EQ PUSH2 0x6F1 JUMPI PUSH2 0x295 JUMP JUMPDEST DUP1 PUSH4 0x4A3B68CC EQ PUSH2 0x54F JUMPI DUP1 PUSH4 0x51EB05A6 EQ PUSH2 0x5BD JUMPI DUP1 PUSH4 0x5312EA8E EQ PUSH2 0x5EB JUMPI DUP1 PUSH4 0x54324B58 EQ PUSH2 0x619 JUMPI DUP1 PUSH4 0x61E0C468 EQ PUSH2 0x637 JUMPI DUP1 PUSH4 0x630B5BA1 EQ PUSH2 0x655 JUMPI PUSH2 0x295 JUMP JUMPDEST DUP1 PUSH4 0x3A22DF78 GT PUSH2 0x25D JUMPI DUP1 PUSH4 0x3A22DF78 EQ PUSH2 0x3DB JUMPI DUP1 PUSH4 0x3B0F0F2F EQ PUSH2 0x3FD JUMPI DUP1 PUSH4 0x3F7B06D8 EQ PUSH2 0x46B JUMPI DUP1 PUSH4 0x41275358 EQ PUSH2 0x4C3 JUMPI DUP1 PUSH4 0x441A3E70 EQ PUSH2 0x4F7 JUMPI DUP1 PUSH4 0x47E3CDA5 EQ PUSH2 0x52F JUMPI PUSH2 0x295 JUMP JUMPDEST DUP1 PUSH4 0x81E3EDA EQ PUSH2 0x29A JUMPI DUP1 PUSH4 0x1526FE27 EQ PUSH2 0x2B8 JUMPI DUP1 PUSH4 0x17CAF6F1 EQ PUSH2 0x337 JUMPI DUP1 PUSH4 0x190F39F0 EQ PUSH2 0x355 JUMPI DUP1 PUSH4 0x1EB704B0 EQ PUSH2 0x3AD JUMPI JUMPDEST PUSH1 0x0 DUP1 REVERT JUMPDEST PUSH2 0x2A2 PUSH2 0xCFD JUMP JUMPDEST PUSH1 0x40 MLOAD DUP1 DUP3 DUP2 MSTORE PUSH1 0x20 ADD SWAP2 POP POP PUSH1 0x40 MLOAD DUP1 SWAP2 SUB SWAP1 RETURN JUMPDEST PUSH2 0x2E4 PUSH1 0x4 DUP1 CALLDATASIZE SUB PUSH1 0x20 DUP2 LT ISZERO PUSH2 0x2CE JUMPI PUSH1 0x0 DUP1 REVERT JUMPDEST DUP2 ADD SWAP1 DUP1 DUP1 CALLDATALOAD SWAP1 PUSH1 0x20 ADD SWAP1 SWAP3 SWAP2 SWAP1 POP POP POP PUSH2 0xD0A JUMP JUMPDEST PUSH1 0x40 MLOAD DUP1 DUP8 PUSH20 0xFFFFFFFFFFFFFFFFFFFFFFFFFFFFFFFFFFFFFFFF AND DUP2 MSTORE PUSH1 0x20 ADD DUP7 DUP2 MSTORE PUSH1 0x20 ADD DUP6 DUP2 MSTORE PUSH1 0x20 ADD DUP5 DUP2 MSTORE PUSH1 0x20 ADD DUP4 DUP2 MSTORE PUSH1 0x20 ADD DUP3 PUSH2 0xFFFF AND DUP2 MSTORE PUSH1 0x20 ADD SWAP7 POP POP POP POP POP POP POP PUSH1 0x40 MLOAD DUP1 SWAP2 SUB SWAP1 RETURN JUMPDEST PUSH2 0x33F PUSH2 0xD81 JUMP JUMPDEST PUSH1 0x40 MLOAD DUP1 DUP3 DUP2 MSTORE PUSH1 0x20 ADD SWAP2 POP POP PUSH1 0x40 MLOAD DUP1 SWAP2 SUB SWAP1 RETURN JUMPDEST PUSH2 0x397 PUSH1 0x4 DUP1 CALLDATASIZE SUB PUSH1 0x20 DUP2 LT ISZERO PUSH2 0x36B JUMPI PUSH1 0x0 DUP1 REVERT JUMPDEST DUP2 ADD SWAP1 DUP1 DUP1 CALLDATALOAD PUSH20 0xFFFFFFFFFFFFFFFFFFFFFFFFFFFFFFFFFFFFFFFF AND SWAP1 PUSH1 0x20 ADD SWAP1 SWAP3 SWAP2 SWAP1 POP POP POP PUSH2 0xD87 JUMP JUMPDEST PUSH1 0x40 MLOAD DUP1 DUP3 DUP2 MSTORE PUSH1 0x20 ADD SWAP2 POP POP PUSH1 0x40 MLOAD DUP1 SWAP2 SUB SWAP1 RETURN JUMPDEST PUSH2 0x3D9 PUSH1 0x4 DUP1 CALLDATASIZE SUB PUSH1 0x20 DUP2 LT ISZERO PUSH2 0x3C3 JUMPI PUSH1 0x0 DUP1 REVERT JUMPDEST DUP2 ADD SWAP1 DUP1 DUP1 CALLDATALOAD SWAP1 PUSH1 0x20 ADD SWAP1 SWAP3 SWAP2 SWAP1 POP POP POP PUSH2 0xE79 JUMP JUMPDEST STOP JUMPDEST PUSH2 0x3E3 PUSH2 0xF4D JUMP JUMPDEST PUSH1 0x40 MLOAD DUP1 DUP3 PUSH2 0xFFFF AND DUP2 MSTORE PUSH1 0x20 ADD SWAP2 POP POP PUSH1 0x40 MLOAD DUP1 SWAP2 SUB SWAP1 RETURN JUMPDEST PUSH2 0x43F PUSH1 0x4 DUP1 CALLDATASIZE SUB PUSH1 0x20 DUP2 LT ISZERO PUSH2 0x413 JUMPI PUSH1 0x0 DUP1 REVERT JUMPDEST DUP2 ADD SWAP1 DUP1 DUP1 CALLDATALOAD PUSH20 0xFFFFFFFFFFFFFFFFFFFFFFFFFFFFFFFFFFFFFFFF AND SWAP1 PUSH1 0x20 ADD SWAP1 SWAP3 SWAP2 SWAP1 POP POP POP PUSH2 0xF53 JUMP JUMPDEST PUSH1 0x40 MLOAD DUP1 DUP3 PUSH20 0xFFFFFFFFFFFFFFFFFFFFFFFFFFFFFFFFFFFFFFFF AND DUP2 MSTORE PUSH1 0x20 ADD SWAP2 POP POP PUSH1 0x40 MLOAD DUP1 SWAP2 SUB SWAP1 RETURN JUMPDEST PUSH2 0x4AD PUSH1 0x4 DUP1 CALLDATASIZE SUB PUSH1 0x20 DUP2 LT ISZERO PUSH2 0x481 JUMPI PUSH1 0x0 DUP1 REVERT JUMPDEST DUP2 ADD SWAP1 DUP1 DUP1 CALLDATALOAD PUSH20 0xFFFFFFFFFFFFFFFFFFFFFFFFFFFFFFFFFFFFFFFF AND SWAP1 PUSH1 0x20 ADD SWAP1 SWAP3 SWAP2 SWAP1 POP POP POP PUSH2 0xFBC JUMP JUMPDEST PUSH1 0x40 MLOAD DUP1 DUP3 DUP2 MSTORE PUSH1 0x20 ADD SWAP2 POP POP PUSH1 0x40 MLOAD DUP1 SWAP2 SUB SWAP1 RETURN JUMPDEST PUSH2 0x4CB PUSH2 0xFD4 JUMP JUMPDEST PUSH1 0x40 MLOAD DUP1 DUP3 PUSH20 0xFFFFFFFFFFFFFFFFFFFFFFFFFFFFFFFFFFFFFFFF AND DUP2 MSTORE PUSH1 0x20 ADD SWAP2 POP POP PUSH1 0x40 MLOAD DUP1 SWAP2 SUB SWAP1 RETURN JUMPDEST PUSH2 0x52D PUSH1 0x4 DUP1 CALLDATASIZE SUB PUSH1 0x40 DUP2 LT ISZERO PUSH2 0x50D JUMPI PUSH1 0x0 DUP1 REVERT JUMPDEST DUP2 ADD SWAP1 DUP1 DUP1 CALLDATALOAD SWAP1 PUSH1 0x20 ADD SWAP1 SWAP3 SWAP2 SWAP1 DUP1 CALLDATALOAD SWAP1 PUSH1 0x20 ADD SWAP1 SWAP3 SWAP2 SWAP1 POP POP POP PUSH2 0xFFA JUMP JUMPDEST STOP JUMPDEST PUSH2 0x537 PUSH2 0x1301 JUMP JUMPDEST PUSH1 0x40 MLOAD DUP1 DUP3 ISZERO ISZERO DUP2 MSTORE PUSH1 0x20 ADD SWAP2 POP POP PUSH1 0x40 MLOAD DUP1 SWAP2 SUB SWAP1 RETURN JUMPDEST PUSH2 0x591 PUSH1 0x4 DUP1 CALLDATASIZE SUB PUSH1 0x20 DUP2 LT ISZERO PUSH2 0x565 JUMPI PUSH1 0x0 DUP1 REVERT JUMPDEST DUP2 ADD SWAP1 DUP1 DUP1 CALLDATALOAD PUSH20 0xFFFFFFFFFFFFFFFFFFFFFFFFFFFFFFFFFFFFFFFF AND SWAP1 PUSH1 0x20 ADD SWAP1 SWAP3 SWAP2 SWAP1 POP POP POP PUSH2 0x1314 JUMP JUMPDEST PUSH1 0x40 MLOAD DUP1 DUP3 PUSH20 0xFFFFFFFFFFFFFFFFFFFFFFFFFFFFFFFFFFFFFFFF AND DUP2 MSTORE PUSH1 0x20 ADD SWAP2 POP POP PUSH1 0x40 MLOAD DUP1 SWAP2 SUB SWAP1 RETURN JUMPDEST PUSH2 0x5E9 PUSH1 0x4 DUP1 CALLDATASIZE SUB PUSH1 0x20 DUP2 LT ISZERO PUSH2 0x5D3 JUMPI PUSH1 0x0 DUP1 REVERT JUMPDEST DUP2 ADD SWAP1 DUP1 DUP1 CALLDATALOAD SWAP1 PUSH1 0x20 ADD SWAP1 SWAP3 SWAP2 SWAP1 POP POP POP PUSH2 0x1347 JUMP JUMPDEST STOP JUMPDEST PUSH2 0x617 PUSH1 0x4 DUP1 CALLDATASIZE SUB PUSH1 0x20 DUP2 LT ISZERO PUSH2 0x601 JUMPI PUSH1 0x0 DUP1 REVERT JUMPDEST DUP2 ADD SWAP1 DUP1 DUP1 CALLDATALOAD SWAP1 PUSH1 0x20 ADD SWAP1 SWAP3 SWAP2 SWAP1 POP POP POP PUSH2 0x16BE JUMP JUMPDEST STOP JUMPDEST PUSH2 0x621 PUSH2 0x1895 JUMP JUMPDEST PUSH1 0x40 MLOAD DUP1 DUP3 DUP2 MSTORE PUSH1 0x20 ADD SWAP2 POP POP PUSH1 0x40 MLOAD DUP1 SWAP2 SUB SWAP1 RETURN JUMPDEST PUSH2 0x63F PUSH2 0x189B JUMP JUMPDEST PUSH1 0x40 MLOAD DUP1 DUP3 DUP2 MSTORE PUSH1 0x20 ADD SWAP2 POP POP PUSH1 0x40 MLOAD DUP1 SWAP2 SUB SWAP1 RETURN JUMPDEST PUSH2 0x65D PUSH2 0x18A7 JUMP JUMPDEST STOP JUMPDEST PUSH2 0x68B PUSH1 0x4 DUP1 CALLDATASIZE SUB PUSH1 0x20 DUP2 LT ISZERO PUSH2 0x675 JUMPI PUSH1 0x0 DUP1 REVERT JUMPDEST DUP2 ADD SWAP1 DUP1 DUP1 CALLDATALOAD SWAP1 PUSH1 0x20 ADD SWAP1 SWAP3 SWAP2 SWAP1 POP POP POP PUSH2 0x18D4 JUMP JUMPDEST STOP JUMPDEST PUSH2 0x695 PUSH2 0x1AA7 JUMP JUMPDEST PUSH1 0x40 MLOAD DUP1 DUP3 DUP2 MSTORE PUSH1 0x20 ADD SWAP2 POP POP PUSH1 0x40 MLOAD DUP1 SWAP2 SUB SWAP1 RETURN JUMPDEST PUSH2 0x6B3 PUSH2 0x1AAD JUMP JUMPDEST PUSH1 0x40 MLOAD DUP1 DUP3 DUP2 MSTORE PUSH1 0x20 ADD SWAP2 POP POP PUSH1 0x40 MLOAD DUP1 SWAP2 SUB SWAP1 RETURN JUMPDEST PUSH2 0x6D1 PUSH2 0x1AB3 JUMP JUMPDEST PUSH1 0x40 MLOAD DUP1 DUP3 DUP2 MSTORE PUSH1 0x20 ADD SWAP2 POP POP PUSH1 0x40 MLOAD DUP1 SWAP2 SUB SWAP1 RETURN JUMPDEST PUSH2 0x6EF PUSH2 0x1AB9 JUMP JUMPDEST STOP JUMPDEST PUSH2 0x71F PUSH1 0x4 DUP1 CALLDATASIZE SUB PUSH1 0x20 DUP2 LT ISZERO PUSH2 0x707 JUMPI PUSH1 0x0 DUP1 REVERT JUMPDEST DUP2 ADD SWAP1 DUP1 DUP1 CALLDATALOAD ISZERO ISZERO SWAP1 PUSH1 0x20 ADD SWAP1 SWAP3 SWAP2 SWAP1 POP POP POP PUSH2 0x1C3F JUMP JUMPDEST STOP JUMPDEST PUSH2 0x763 PUSH1 0x4 DUP1 CALLDATASIZE SUB PUSH1 0x20 DUP2 LT ISZERO PUSH2 0x737 JUMPI PUSH1 0x0 DUP1 REVERT JUMPDEST DUP2 ADD SWAP1 DUP1 DUP1 CALLDATALOAD PUSH20 0xFFFFFFFFFFFFFFFFFFFFFFFFFFFFFFFFFFFFFFFF AND SWAP1 PUSH1 0x20 ADD SWAP1 SWAP3 SWAP2 SWAP1 POP POP POP PUSH2 0x1D24 JUMP JUMPDEST STOP JUMPDEST PUSH2 0x76D PUSH2 0x1F28 JUMP JUMPDEST PUSH1 0x40 MLOAD DUP1 DUP3 PUSH20 0xFFFFFFFFFFFFFFFFFFFFFFFFFFFFFFFFFFFFFFFF AND DUP2 MSTORE PUSH1 0x20 ADD SWAP2 POP POP PUSH1 0x40 MLOAD DUP1 SWAP2 SUB SWAP1 RETURN JUMPDEST PUSH2 0x7CF PUSH1 0x4 DUP1 CALLDATASIZE SUB PUSH1 0x40 DUP2 LT ISZERO PUSH2 0x7AF JUMPI PUSH1 0x0 DUP1 REVERT JUMPDEST DUP2 ADD SWAP1 DUP1 DUP1 CALLDATALOAD SWAP1 PUSH1 0x20 ADD SWAP1 SWAP3 SWAP2 SWAP1 DUP1 CALLDATALOAD SWAP1 PUSH1 0x20 ADD SWAP1 SWAP3 SWAP2 SWAP1 POP POP POP PUSH2 0x1F51 JUMP JUMPDEST PUSH1 0x40 MLOAD DUP1 DUP3 DUP2 MSTORE PUSH1 0x20 ADD SWAP2 POP POP PUSH1 0x40 MLOAD DUP1 SWAP2 SUB SWAP1 RETURN JUMPDEST PUSH2 0x83B PUSH1 0x4 DUP1 CALLDATASIZE SUB PUSH1 0x60 DUP2 LT ISZERO PUSH2 0x7FB JUMPI PUSH1 0x0 DUP1 REVERT JUMPDEST DUP2 ADD SWAP1 DUP1 DUP1 CALLDATALOAD SWAP1 PUSH1 0x20 ADD SWAP1 SWAP3 SWAP2 SWAP1 DUP1 CALLDATALOAD SWAP1 PUSH1 0x20 ADD SWAP1 SWAP3 SWAP2 SWAP1 DUP1 CALLDATALOAD PUSH20 0xFFFFFFFFFFFFFFFFFFFFFFFFFFFFFFFFFFFFFFFF AND SWAP1 PUSH1 0x20 ADD SWAP1 SWAP3 SWAP2 SWAP1 POP POP POP PUSH2 0x1F6E JUMP JUMPDEST STOP JUMPDEST PUSH2 0x845 PUSH2 0x2411 JUMP JUMPDEST PUSH1 0x40 MLOAD DUP1 DUP3 DUP2 MSTORE PUSH1 0x20 ADD SWAP2 POP POP PUSH1 0x40 MLOAD DUP1 SWAP2 SUB SWAP1 RETURN JUMPDEST PUSH2 0x8A7 PUSH1 0x4 DUP1 CALLDATASIZE SUB PUSH1 0x40 DUP2 LT ISZERO PUSH2 0x871 JUMPI PUSH1 0x0 DUP1 REVERT JUMPDEST DUP2 ADD SWAP1 DUP1 DUP1 CALLDATALOAD SWAP1 PUSH1 0x20 ADD SWAP1 SWAP3 SWAP2 SWAP1 DUP1 CALLDATALOAD PUSH20 0xFFFFFFFFFFFFFFFFFFFFFFFFFFFFFFFFFFFFFFFF AND SWAP1 PUSH1 0x20 ADD SWAP1 SWAP3 SWAP2 SWAP1 POP POP POP PUSH2 0x241D JUMP JUMPDEST PUSH1 0x40 MLOAD DUP1 DUP5 DUP2 MSTORE PUSH1 0x20 ADD DUP4 DUP2 MSTORE PUSH1 0x20 ADD DUP3 ISZERO ISZERO DUP2 MSTORE PUSH1 0x20 ADD SWAP4 POP POP POP POP PUSH1 0x40 MLOAD DUP1 SWAP2 SUB SWAP1 RETURN JUMPDEST PUSH2 0x8D5 PUSH2 0x2461 JUMP JUMPDEST PUSH1 0x40 MLOAD DUP1 DUP3 PUSH2 0xFFFF AND DUP2 MSTORE PUSH1 0x20 ADD SWAP2 POP POP PUSH1 0x40 MLOAD DUP1 SWAP2 SUB SWAP1 RETURN JUMPDEST PUSH2 0x931 PUSH1 0x4 DUP1 CALLDATASIZE SUB PUSH1 0x20 DUP2 LT ISZERO PUSH2 0x905 JUMPI PUSH1 0x0 DUP1 REVERT JUMPDEST DUP2 ADD SWAP1 DUP1 DUP1 CALLDATALOAD PUSH20 0xFFFFFFFFFFFFFFFFFFFFFFFFFFFFFFFFFFFFFFFF AND SWAP1 PUSH1 0x20 ADD SWAP1 SWAP3 SWAP2 SWAP1 POP POP POP PUSH2 0x2467 JUMP JUMPDEST PUSH1 0x40 MLOAD DUP1 DUP3 DUP2 MSTORE PUSH1 0x20 ADD SWAP2 POP POP PUSH1 0x40 MLOAD DUP1 SWAP2 SUB SWAP1 RETURN JUMPDEST PUSH2 0x94F PUSH2 0x247F JUMP JUMPDEST PUSH1 0x40 MLOAD DUP1 DUP3 DUP2 MSTORE PUSH1 0x20 ADD SWAP2 POP POP PUSH1 0x40 MLOAD DUP1 SWAP2 SUB SWAP1 RETURN JUMPDEST PUSH2 0x991 PUSH1 0x4 DUP1 CALLDATASIZE SUB PUSH1 0x20 DUP2 LT ISZERO PUSH2 0x97B JUMPI PUSH1 0x0 DUP1 REVERT JUMPDEST DUP2 ADD SWAP1 DUP1 DUP1 CALLDATALOAD SWAP1 PUSH1 0x20 ADD SWAP1 SWAP3 SWAP2 SWAP1 POP POP POP PUSH2 0x2485 JUMP JUMPDEST STOP JUMPDEST PUSH2 0x99B PUSH2 0x25BD JUMP JUMPDEST PUSH1 0x40 MLOAD DUP1 DUP3 PUSH20 0xFFFFFFFFFFFFFFFFFFFFFFFFFFFFFFFFFFFFFFFF AND DUP2 MSTORE PUSH1 0x20 ADD SWAP2 POP POP PUSH1 0x40 MLOAD DUP1 SWAP2 SUB SWAP1 RETURN JUMPDEST PUSH2 0x9F3 PUSH1 0x4 DUP1 CALLDATASIZE SUB PUSH1 0x20 DUP2 LT ISZERO PUSH2 0x9DD JUMPI PUSH1 0x0 DUP1 REVERT JUMPDEST DUP2 ADD SWAP1 DUP1 DUP1 CALLDATALOAD SWAP1 PUSH1 0x20 ADD SWAP1 SWAP3 SWAP2 SWAP1 POP POP POP PUSH2 0x25E3 JUMP JUMPDEST STOP JUMPDEST PUSH2 0xA21 PUSH1 0x4 DUP1 CALLDATASIZE SUB PUSH1 0x20 DUP2 LT ISZERO PUSH2 0xA0B JUMPI PUSH1 0x0 DUP1 REVERT JUMPDEST DUP2 ADD SWAP1 DUP1 DUP1 CALLDATALOAD SWAP1 PUSH1 0x20 ADD SWAP1 SWAP3 SWAP2 SWAP1 POP POP POP PUSH2 0x26B7 JUMP JUMPDEST PUSH1 0x40 MLOAD DUP1 DUP3 ISZERO ISZERO DUP2 MSTORE PUSH1 0x20 ADD SWAP2 POP POP PUSH1 0x40 MLOAD DUP1 SWAP2 SUB SWAP1 RETURN JUMPDEST PUSH2 0xA41 PUSH2 0x26E7 JUMP JUMPDEST PUSH1 0x40 MLOAD DUP1 DUP3 DUP2 MSTORE PUSH1 0x20 ADD SWAP2 POP POP PUSH1 0x40 MLOAD DUP1 SWAP2 SUB SWAP1 RETURN JUMPDEST PUSH2 0xAB1 PUSH1 0x4 DUP1 CALLDATASIZE SUB PUSH1 0xA0 DUP2 LT ISZERO PUSH2 0xA6D JUMPI PUSH1 0x0 DUP1 REVERT JUMPDEST DUP2 ADD SWAP1 DUP1 DUP1 CALLDATALOAD SWAP1 PUSH1 0x20 ADD SWAP1 SWAP3 SWAP2 SWAP1 DUP1 CALLDATALOAD SWAP1 PUSH1 0x20 ADD SWAP1 SWAP3 SWAP2 SWAP1 DUP1 CALLDATALOAD PUSH2 0xFFFF AND SWAP1 PUSH1 0x20 ADD SWAP1 SWAP3 SWAP2 SWAP1 DUP1 CALLDATALOAD ISZERO ISZERO SWAP1 PUSH1 0x20 ADD SWAP1 SWAP3 SWAP2 SWAP1 DUP1 CALLDATALOAD SWAP1 PUSH1 0x20 ADD SWAP1 SWAP3 SWAP2 SWAP1 POP POP POP PUSH2 0x26ED JUMP JUMPDEST STOP JUMPDEST PUSH2 0xAF5 PUSH1 0x4 DUP1 CALLDATASIZE SUB PUSH1 0x20 DUP2 LT ISZERO PUSH2 0xAC9 JUMPI PUSH1 0x0 DUP1 REVERT JUMPDEST DUP2 ADD SWAP1 DUP1 DUP1 CALLDATALOAD PUSH20 0xFFFFFFFFFFFFFFFFFFFFFFFFFFFFFFFFFFFFFFFF AND SWAP1 PUSH1 0x20 ADD SWAP1 SWAP3 SWAP2 SWAP1 POP POP POP PUSH2 0x290F JUMP JUMPDEST PUSH1 0x40 MLOAD DUP1 DUP3 ISZERO ISZERO DUP2 MSTORE PUSH1 0x20 ADD SWAP2 POP POP PUSH1 0x40 MLOAD DUP1 SWAP2 SUB SWAP1 RETURN JUMPDEST PUSH2 0xB4F PUSH1 0x4 DUP1 CALLDATASIZE SUB PUSH1 0x20 DUP2 LT ISZERO PUSH2 0xB23 JUMPI PUSH1 0x0 DUP1 REVERT JUMPDEST DUP2 ADD SWAP1 DUP1 DUP1 CALLDATALOAD PUSH20 0xFFFFFFFFFFFFFFFFFFFFFFFFFFFFFFFFFFFFFFFF AND SWAP1 PUSH1 0x20 ADD SWAP1 SWAP3 SWAP2 SWAP1 POP POP POP PUSH2 0x292F JUMP JUMPDEST STOP JUMPDEST PUSH2 0xB59 PUSH2 0x2B33 JUMP JUMPDEST PUSH1 0x40 MLOAD DUP1 DUP3 DUP2 MSTORE PUSH1 0x20 ADD SWAP2 POP POP PUSH1 0x40 MLOAD DUP1 SWAP2 SUB SWAP1 RETURN JUMPDEST PUSH2 0xB77 PUSH2 0x2B39 JUMP JUMPDEST PUSH1 0x40 MLOAD DUP1 DUP3 PUSH20 0xFFFFFFFFFFFFFFFFFFFFFFFFFFFFFFFFFFFFFFFF AND DUP2 MSTORE PUSH1 0x20 ADD SWAP2 POP POP PUSH1 0x40 MLOAD DUP1 SWAP2 SUB SWAP1 RETURN JUMPDEST PUSH2 0xBEF PUSH1 0x4 DUP1 CALLDATASIZE SUB PUSH1 0x40 DUP2 LT ISZERO PUSH2 0xBB9 JUMPI PUSH1 0x0 DUP1 REVERT JUMPDEST DUP2 ADD SWAP1 DUP1 DUP1 CALLDATALOAD SWAP1 PUSH1 0x20 ADD SWAP1 SWAP3 SWAP2 SWAP1 DUP1 CALLDATALOAD PUSH20 0xFFFFFFFFFFFFFFFFFFFFFFFFFFFFFFFFFFFFFFFF AND SWAP1 PUSH1 0x20 ADD SWAP1 SWAP3 SWAP2 SWAP1 POP POP POP PUSH2 0x2B5F JUMP JUMPDEST PUSH1 0x40 MLOAD DUP1 DUP3 DUP2 MSTORE PUSH1 0x20 ADD SWAP2 POP POP PUSH1 0x40 MLOAD DUP1 SWAP2 SUB SWAP1 RETURN JUMPDEST PUSH2 0xC3B PUSH1 0x4 DUP1 CALLDATASIZE SUB PUSH1 0x40 DUP2 LT ISZERO PUSH2 0xC1B JUMPI PUSH1 0x0 DUP1 REVERT JUMPDEST DUP2 ADD SWAP1 DUP1 DUP1 CALLDATALOAD SWAP1 PUSH1 0x20 ADD SWAP1 SWAP3 SWAP2 SWAP1 DUP1 CALLDATALOAD SWAP1 PUSH1 0x20 ADD SWAP1 SWAP3 SWAP2 SWAP1 POP POP POP PUSH2 0x2DBD JUMP JUMPDEST STOP JUMPDEST PUSH2 0xC45 PUSH2 0x31C7 JUMP JUMPDEST STOP JUMPDEST PUSH2 0xC89 PUSH1 0x4 DUP1 CALLDATASIZE SUB PUSH1 0x20 DUP2 LT ISZERO PUSH2 0xC5D JUMPI PUSH1 0x0 DUP1 REVERT JUMPDEST DUP2 ADD SWAP1 DUP1 DUP1 CALLDATALOAD PUSH20 0xFFFFFFFFFFFFFFFFFFFFFFFFFFFFFFFFFFFFFFFF AND SWAP1 PUSH1 0x20 ADD SWAP1 SWAP3 SWAP2 SWAP1 POP POP POP PUSH2 0x3420 JUMP JUMPDEST STOP JUMPDEST PUSH2 0xCFB PUSH1 0x4 DUP1 CALLDATASIZE SUB PUSH1 0xA0 DUP2 LT ISZERO PUSH2 0xCA1 JUMPI PUSH1 0x0 DUP1 REVERT JUMPDEST DUP2 ADD SWAP1 DUP1 DUP1 CALLDATALOAD SWAP1 PUSH1 0x20 ADD SWAP1 SWAP3 SWAP2 SWAP1 DUP1 CALLDATALOAD PUSH20 0xFFFFFFFFFFFFFFFFFFFFFFFFFFFFFFFFFFFFFFFF AND SWAP1 PUSH1 0x20 ADD SWAP1 SWAP3 SWAP2 SWAP1 DUP1 CALLDATALOAD PUSH2 0xFFFF AND SWAP1 PUSH1 0x20 ADD SWAP1 SWAP3 SWAP2 SWAP1 DUP1 CALLDATALOAD ISZERO ISZERO SWAP1 PUSH1 0x20 ADD SWAP1 SWAP3 SWAP2 SWAP1 DUP1 CALLDATALOAD SWAP1 PUSH1 0x20 ADD SWAP1 SWAP3 SWAP2 SWAP1 POP POP POP PUSH2 0x34F4 JUMP JUMPDEST STOP JUMPDEST PUSH1 0x0 PUSH1 0x9 DUP1 SLOAD SWAP1 POP SWAP1 POP SWAP1 JUMP JUMPDEST PUSH1 0x9 DUP2 DUP2 SLOAD DUP2 LT PUSH2 0xD17 JUMPI INVALID JUMPDEST SWAP1 PUSH1 0x0 MSTORE PUSH1 0x20 PUSH1 0x0 KECCAK256 SWAP1 PUSH1 0x6 MUL ADD PUSH1 0x0 SWAP2 POP SWAP1 POP DUP1 PUSH1 0x0 ADD PUSH1 0x0 SWAP1 SLOAD SWAP1 PUSH2 0x100 EXP SWAP1 DIV PUSH20 0xFFFFFFFFFFFFFFFFFFFFFFFFFFFFFFFFFFFFFFFF AND SWAP1 DUP1 PUSH1 0x1 ADD SLOAD SWAP1 DUP1 PUSH1 0x2 ADD SLOAD SWAP1 DUP1 PUSH1 0x3 ADD SLOAD SWAP1 DUP1 PUSH1 0x4 ADD SLOAD SWAP1 DUP1 PUSH1 0x5 ADD PUSH1 0x0 SWAP1 SLOAD SWAP1 PUSH2 0x100 EXP SWAP1 DIV PUSH2 0xFFFF AND SWAP1 POP DUP7 JUMP JUMPDEST PUSH1 0xB SLOAD DUP2 JUMP JUMPDEST PUSH1 0x0 DUP1 ISZERO ISZERO PUSH1 0xF PUSH1 0x0 DUP5 PUSH20 0xFFFFFFFFFFFFFFFFFFFFFFFFFFFFFFFFFFFFFFFF AND PUSH20 0xFFFFFFFFFFFFFFFFFFFFFFFFFFFFFFFFFFFFFFFF AND DUP2 MSTORE PUSH1 0x20 ADD SWAP1 DUP2 MSTORE PUSH1 0x20 ADD PUSH1 0x0 KECCAK256 PUSH1 0x0 SWAP1 SLOAD SWAP1 PUSH2 0x100 EXP SWAP1 DIV PUSH1 0xFF AND ISZERO ISZERO EQ ISZERO PUSH2 0xE32 JUMPI PUSH1 0x40 MLOAD PUSH32 0x8C379A000000000000000000000000000000000000000000000000000000000 DUP2 MSTORE PUSH1 0x4 ADD DUP1 DUP1 PUSH1 0x20 ADD DUP3 DUP2 SUB DUP3 MSTORE PUSH1 0x21 DUP2 MSTORE PUSH1 0x20 ADD DUP1 PUSH2 0x4B32 PUSH1 0x21 SWAP2 CODECOPY PUSH1 0x40 ADD SWAP2 POP POP PUSH1 0x40 MLOAD DUP1 SWAP2 SUB SWAP1 REVERT JUMPDEST PUSH1 0x10 PUSH1 0x0 DUP4 PUSH20 0xFFFFFFFFFFFFFFFFFFFFFFFFFFFFFFFFFFFFFFFF AND PUSH20 0xFFFFFFFFFFFFFFFFFFFFFFFFFFFFFFFFFFFFFFFF AND DUP2 MSTORE PUSH1 0x20 ADD SWAP1 DUP2 MSTORE PUSH1 0x20 ADD PUSH1 0x0 KECCAK256 SLOAD SWAP1 POP SWAP2 SWAP1 POP JUMP JUMPDEST PUSH2 0xE81 PUSH2 0x38EC JUMP JUMPDEST PUSH20 0xFFFFFFFFFFFFFFFFFFFFFFFFFFFFFFFFFFFFFFFF AND PUSH1 0x0 DUP1 SLOAD SWAP1 PUSH2 0x100 EXP SWAP1 DIV PUSH20 0xFFFFFFFFFFFFFFFFFFFFFFFFFFFFFFFFFFFFFFFF AND PUSH20 0xFFFFFFFFFFFFFFFFFFFFFFFFFFFFFFFFFFFFFFFF AND EQ PUSH2 0xF41 JUMPI PUSH1 0x40 MLOAD PUSH32 0x8C379A000000000000000000000000000000000000000000000000000000000 DUP2 MSTORE PUSH1 0x4 ADD DUP1 DUP1 PUSH1 0x20 ADD DUP3 DUP2 SUB DUP3 MSTORE PUSH1 0x20 DUP2 MSTORE PUSH1 0x20 ADD DUP1 PUSH32 0x4F776E61626C653A2063616C6C6572206973206E6F7420746865206F776E6572 DUP2 MSTORE POP PUSH1 0x20 ADD SWAP2 POP POP PUSH1 0x40 MLOAD DUP1 SWAP2 SUB SWAP1 REVERT JUMPDEST DUP1 NUMBER ADD PUSH1 0x6 DUP2 SWAP1 SSTORE POP POP JUMP JUMPDEST PUSH2 0x7D0 DUP2 JUMP JUMPDEST PUSH1 0x0 PUSH1 0xD PUSH1 0x0 DUP4 PUSH20 0xFFFFFFFFFFFFFFFFFFFFFFFFFFFFFFFFFFFFFFFF AND PUSH20 0xFFFFFFFFFFFFFFFFFFFFFFFFFFFFFFFFFFFFFFFF AND DUP2 MSTORE PUSH1 0x20 ADD SWAP1 DUP2 MSTORE PUSH1 0x20 ADD PUSH1 0x0 KECCAK256 PUSH1 0x0 SWAP1 SLOAD SWAP1 PUSH2 0x100 EXP SWAP1 DIV PUSH20 0xFFFFFFFFFFFFFFFFFFFFFFFFFFFFFFFFFFFFFFFF AND SWAP1 POP SWAP2 SWAP1 POP JUMP JUMPDEST PUSH1 0xE PUSH1 0x20 MSTORE DUP1 PUSH1 0x0 MSTORE PUSH1 0x40 PUSH1 0x0 KECCAK256 PUSH1 0x0 SWAP2 POP SWAP1 POP SLOAD DUP2 JUMP JUMPDEST PUSH1 0x5 PUSH1 0x0 SWAP1 SLOAD SWAP1 PUSH2 0x100 EXP SWAP1 DIV PUSH20 0xFFFFFFFFFFFFFFFFFFFFFFFFFFFFFFFFFFFFFFFF AND DUP2 JUMP JUMPDEST PUSH1 0x2 PUSH1 0x1 SLOAD EQ ISZERO PUSH2 0x1073 JUMPI PUSH1 0x40 MLOAD PUSH32 0x8C379A000000000000000000000000000000000000000000000000000000000 DUP2 MSTORE PUSH1 0x4 ADD DUP1 DUP1 PUSH1 0x20 ADD DUP3 DUP2 SUB DUP3 MSTORE PUSH1 0x1F DUP2 MSTORE PUSH1 0x20 ADD DUP1 PUSH32 0x5265656E7472616E637947756172643A207265656E7472616E742063616C6C00 DUP2 MSTORE POP PUSH1 0x20 ADD SWAP2 POP POP PUSH1 0x40 MLOAD DUP1 SWAP2 SUB SWAP1 REVERT JUMPDEST PUSH1 0x2 PUSH1 0x1 DUP2 SWAP1 SSTORE POP PUSH1 0x0 PUSH1 0x9 DUP4 DUP2 SLOAD DUP2 LT PUSH2 0x108A JUMPI INVALID JUMPDEST SWAP1 PUSH1 0x0 MSTORE PUSH1 0x20 PUSH1 0x0 KECCAK256 SWAP1 PUSH1 0x6 MUL ADD SWAP1 POP PUSH1 0x0 PUSH1 0xA PUSH1 0x0 DUP6 DUP2 MSTORE PUSH1 0x20 ADD SWAP1 DUP2 MSTORE PUSH1 0x20 ADD PUSH1 0x0 KECCAK256 PUSH1 0x0 CALLER PUSH20 0xFFFFFFFFFFFFFFFFFFFFFFFFFFFFFFFFFFFFFFFF AND PUSH20 0xFFFFFFFFFFFFFFFFFFFFFFFFFFFFFFFFFFFFFFFF AND DUP2 MSTORE PUSH1 0x20 ADD SWAP1 DUP2 MSTORE PUSH1 0x20 ADD PUSH1 0x0 KECCAK256 SWAP1 POP DUP3 DUP2 PUSH1 0x0 ADD SLOAD LT ISZERO PUSH2 0x1168 JUMPI PUSH1 0x40 MLOAD PUSH32 0x8C379A000000000000000000000000000000000000000000000000000000000 DUP2 MSTORE PUSH1 0x4 ADD DUP1 DUP1 PUSH1 0x20 ADD DUP3 DUP2 SUB DUP3 MSTORE PUSH1 0x12 DUP2 MSTORE PUSH1 0x20 ADD DUP1 PUSH32 0x77697468647261773A206E6F7420676F6F640000000000000000000000000000 DUP2 MSTORE POP PUSH1 0x20 ADD SWAP2 POP POP PUSH1 0x40 MLOAD DUP1 SWAP2 SUB SWAP1 REVERT JUMPDEST PUSH2 0x1171 DUP5 PUSH2 0x1347 JUMP JUMPDEST PUSH1 0x0 PUSH2 0x117C DUP6 PUSH2 0x26B7 JUMP JUMPDEST SWAP1 POP PUSH1 0x0 PUSH2 0x11C8 DUP4 PUSH1 0x1 ADD SLOAD PUSH2 0x11BA PUSH5 0xE8D4A51000 PUSH2 0x11AC DUP9 PUSH1 0x4 ADD SLOAD DUP9 PUSH1 0x0 ADD SLOAD PUSH2 0x38F4 SWAP1 SWAP2 SWAP1 PUSH4 0xFFFFFFFF AND JUMP JUMPDEST PUSH2 0x397A SWAP1 SWAP2 SWAP1 PUSH4 0xFFFFFFFF AND JUMP JUMPDEST PUSH2 0x39C4 SWAP1 SWAP2 SWAP1 PUSH4 0xFFFFFFFF AND JUMP JUMPDEST SWAP1 POP DUP2 DUP1 ISZERO PUSH2 0x11D7 JUMPI POP PUSH1 0x0 DUP2 GT JUMPDEST ISZERO PUSH2 0x122B JUMPI PUSH2 0x11E6 CALLER DUP3 PUSH2 0x3A0E JUMP JUMPDEST PUSH2 0x11F0 CALLER DUP3 PUSH2 0x3CE2 JUMP JUMPDEST PUSH2 0x1222 PUSH5 0xE8D4A51000 PUSH2 0x1214 DUP7 PUSH1 0x4 ADD SLOAD DUP7 PUSH1 0x0 ADD SLOAD PUSH2 0x38F4 SWAP1 SWAP2 SWAP1 PUSH4 0xFFFFFFFF AND JUMP JUMPDEST PUSH2 0x397A SWAP1 SWAP2 SWAP1 PUSH4 0xFFFFFFFF AND JUMP JUMPDEST DUP4 PUSH1 0x1 ADD DUP2 SWAP1 SSTORE POP JUMPDEST PUSH1 0x0 DUP6 GT ISZERO PUSH2 0x12A3 JUMPI PUSH2 0x124B DUP6 DUP5 PUSH1 0x0 ADD SLOAD PUSH2 0x39C4 SWAP1 SWAP2 SWAP1 PUSH4 0xFFFFFFFF AND JUMP JUMPDEST DUP4 PUSH1 0x0 ADD DUP2 SWAP1 SSTORE POP PUSH2 0x12A2 CALLER DUP7 DUP7 PUSH1 0x0 ADD PUSH1 0x0 SWAP1 SLOAD SWAP1 PUSH2 0x100 EXP SWAP1 DIV PUSH20 0xFFFFFFFFFFFFFFFFFFFFFFFFFFFFFFFFFFFFFFFF AND PUSH20 0xFFFFFFFFFFFFFFFFFFFFFFFFFFFFFFFFFFFFFFFF AND PUSH2 0x3EAF SWAP1 SWAP3 SWAP2 SWAP1 PUSH4 0xFFFFFFFF AND JUMP JUMPDEST JUMPDEST DUP6 CALLER PUSH20 0xFFFFFFFFFFFFFFFFFFFFFFFFFFFFFFFFFFFFFFFF AND PUSH32 0xF279E6A1F5E320CCA91135676D9CB6E44CA8A08C0B88342BCDB1144F6511B568 DUP8 PUSH1 0x40 MLOAD DUP1 DUP3 DUP2 MSTORE PUSH1 0x20 ADD SWAP2 POP POP PUSH1 0x40 MLOAD DUP1 SWAP2 SUB SWAP1 LOG3 POP POP POP POP PUSH1 0x1 DUP1 DUP2 SWAP1 SSTORE POP POP POP JUMP JUMPDEST PUSH1 0x12 PUSH1 0x0 SWAP1 SLOAD SWAP1 PUSH2 0x100 EXP SWAP1 DIV PUSH1 0xFF AND DUP2 JUMP JUMPDEST PUSH1 0xD PUSH1 0x20 MSTORE DUP1 PUSH1 0x0 MSTORE PUSH1 0x40 PUSH1 0x0 KECCAK256 PUSH1 0x0 SWAP2 POP SLOAD SWAP1 PUSH2 0x100 EXP SWAP1 DIV PUSH20 0xFFFFFFFFFFFFFFFFFFFFFFFFFFFFFFFFFFFFFFFF AND DUP2 JUMP JUMPDEST PUSH1 0x0 PUSH1 0x9 DUP3 DUP2 SLOAD DUP2 LT PUSH2 0x1356 JUMPI INVALID JUMPDEST SWAP1 PUSH1 0x0 MSTORE PUSH1 0x20 PUSH1 0x0 KECCAK256 SWAP1 PUSH1 0x6 MUL ADD SWAP1 POP DUP1 PUSH1 0x3 ADD SLOAD NUMBER GT PUSH2 0x1377 JUMPI POP PUSH2 0x16BB JUMP JUMPDEST PUSH1 0x0 PUSH2 0x1382 DUP4 PUSH2 0x26B7 JUMP JUMPDEST SWAP1 POP DUP1 ISZERO PUSH2 0x1391 JUMPI POP POP PUSH2 0x16BB JUMP JUMPDEST PUSH1 0x0 DUP3 PUSH1 0x0 ADD PUSH1 0x0 SWAP1 SLOAD SWAP1 PUSH2 0x100 EXP SWAP1 DIV PUSH20 0xFFFFFFFFFFFFFFFFFFFFFFFFFFFFFFFFFFFFFFFF AND PUSH20 0xFFFFFFFFFFFFFFFFFFFFFFFFFFFFFFFFFFFFFFFF AND PUSH4 0x70A08231 ADDRESS PUSH1 0x40 MLOAD DUP3 PUSH4 0xFFFFFFFF AND PUSH1 0xE0 SHL DUP2 MSTORE PUSH1 0x4 ADD DUP1 DUP3 PUSH20 0xFFFFFFFFFFFFFFFFFFFFFFFFFFFFFFFFFFFFFFFF AND DUP2 MSTORE PUSH1 0x20 ADD SWAP2 POP POP PUSH1 0x20 PUSH1 0x40 MLOAD DUP1 DUP4 SUB DUP2 DUP7 DUP1 EXTCODESIZE ISZERO DUP1 ISZERO PUSH2 0x141E JUMPI PUSH1 0x0 DUP1 REVERT JUMPDEST POP GAS STATICCALL ISZERO DUP1 ISZERO PUSH2 0x1432 JUMPI RETURNDATASIZE PUSH1 0x0 DUP1 RETURNDATACOPY RETURNDATASIZE PUSH1 0x0 REVERT JUMPDEST POP POP POP POP PUSH1 0x40 MLOAD RETURNDATASIZE PUSH1 0x20 DUP2 LT ISZERO PUSH2 0x1448 JUMPI PUSH1 0x0 DUP1 REVERT JUMPDEST DUP2 ADD SWAP1 DUP1 DUP1 MLOAD SWAP1 PUSH1 0x20 ADD SWAP1 SWAP3 SWAP2 SWAP1 POP POP POP SWAP1 POP PUSH1 0x0 DUP2 EQ DUP1 PUSH2 0x146E JUMPI POP PUSH1 0x0 DUP4 PUSH1 0x1 ADD SLOAD EQ JUMPDEST ISZERO PUSH2 0x1484 JUMPI NUMBER DUP4 PUSH1 0x3 ADD DUP2 SWAP1 SSTORE POP POP POP POP PUSH2 0x16BB JUMP JUMPDEST PUSH1 0x0 PUSH2 0x1494 DUP5 PUSH1 0x3 ADD SLOAD NUMBER PUSH2 0x1F51 JUMP JUMPDEST SWAP1 POP PUSH1 0x0 PUSH2 0x14D7 PUSH1 0xB SLOAD PUSH2 0x14C9 DUP8 PUSH1 0x1 ADD SLOAD PUSH2 0x14BB PUSH1 0x4 SLOAD DUP8 PUSH2 0x38F4 SWAP1 SWAP2 SWAP1 PUSH4 0xFFFFFFFF AND JUMP JUMPDEST PUSH2 0x38F4 SWAP1 SWAP2 SWAP1 PUSH4 0xFFFFFFFF AND JUMP JUMPDEST PUSH2 0x397A SWAP1 SWAP2 SWAP1 PUSH4 0xFFFFFFFF AND JUMP JUMPDEST SWAP1 POP PUSH1 0x2 PUSH1 0x0 SWAP1 SLOAD SWAP1 PUSH2 0x100 EXP SWAP1 DIV PUSH20 0xFFFFFFFFFFFFFFFFFFFFFFFFFFFFFFFFFFFFFFFF AND PUSH20 0xFFFFFFFFFFFFFFFFFFFFFFFFFFFFFFFFFFFFFFFF AND PUSH4 0x40C10F19 PUSH1 0x3 PUSH1 0x0 SWAP1 SLOAD SWAP1 PUSH2 0x100 EXP SWAP1 DIV PUSH20 0xFFFFFFFFFFFFFFFFFFFFFFFFFFFFFFFFFFFFFFFF AND PUSH2 0x154E PUSH1 0xA DUP6 PUSH2 0x397A SWAP1 SWAP2 SWAP1 PUSH4 0xFFFFFFFF AND JUMP JUMPDEST PUSH1 0x40 MLOAD DUP4 PUSH4 0xFFFFFFFF AND PUSH1 0xE0 SHL DUP2 MSTORE PUSH1 0x4 ADD DUP1 DUP4 PUSH20 0xFFFFFFFFFFFFFFFFFFFFFFFFFFFFFFFFFFFFFFFF AND DUP2 MSTORE PUSH1 0x20 ADD DUP3 DUP2 MSTORE PUSH1 0x20 ADD SWAP3 POP POP POP PUSH1 0x0 PUSH1 0x40 MLOAD DUP1 DUP4 SUB DUP2 PUSH1 0x0 DUP8 DUP1 EXTCODESIZE ISZERO DUP1 ISZERO PUSH2 0x15A1 JUMPI PUSH1 0x0 DUP1 REVERT JUMPDEST POP GAS CALL ISZERO DUP1 ISZERO PUSH2 0x15B5 JUMPI RETURNDATASIZE PUSH1 0x0 DUP1 RETURNDATACOPY RETURNDATASIZE PUSH1 0x0 REVERT JUMPDEST POP POP POP POP PUSH1 0x2 PUSH1 0x0 SWAP1 SLOAD SWAP1 PUSH2 0x100 EXP SWAP1 DIV PUSH20 0xFFFFFFFFFFFFFFFFFFFFFFFFFFFFFFFFFFFFFFFF AND PUSH20 0xFFFFFFFFFFFFFFFFFFFFFFFFFFFFFFFFFFFFFFFF AND PUSH4 0x40C10F19 ADDRESS DUP4 PUSH1 0x40 MLOAD DUP4 PUSH4 0xFFFFFFFF AND PUSH1 0xE0 SHL DUP2 MSTORE PUSH1 0x4 ADD DUP1 DUP4 PUSH20 0xFFFFFFFFFFFFFFFFFFFFFFFFFFFFFFFFFFFFFFFF AND DUP2 MSTORE PUSH1 0x20 ADD DUP3 DUP2 MSTORE PUSH1 0x20 ADD SWAP3 POP POP POP PUSH1 0x0 PUSH1 0x40 MLOAD DUP1 DUP4 SUB DUP2 PUSH1 0x0 DUP8 DUP1 EXTCODESIZE ISZERO DUP1 ISZERO PUSH2 0x164C JUMPI PUSH1 0x0 DUP1 REVERT JUMPDEST POP GAS CALL ISZERO DUP1 ISZERO PUSH2 0x1660 JUMPI RETURNDATASIZE PUSH1 0x0 DUP1 RETURNDATACOPY RETURNDATASIZE PUSH1 0x0 REVERT JUMPDEST POP POP POP POP PUSH2 0x16A4 PUSH2 0x1691 DUP5 PUSH2 0x1683 PUSH5 0xE8D4A51000 DUP6 PUSH2 0x38F4 SWAP1 SWAP2 SWAP1 PUSH4 0xFFFFFFFF AND JUMP JUMPDEST PUSH2 0x397A SWAP1 SWAP2 SWAP1 PUSH4 0xFFFFFFFF AND JUMP JUMPDEST DUP7 PUSH1 0x4 ADD SLOAD PUSH2 0x3F51 SWAP1 SWAP2 SWAP1 PUSH4 0xFFFFFFFF AND JUMP JUMPDEST DUP6 PUSH1 0x4 ADD DUP2 SWAP1 SSTORE POP NUMBER DUP6 PUSH1 0x3 ADD DUP2 SWAP1 SSTORE POP POP POP POP POP POP JUMPDEST POP JUMP JUMPDEST PUSH1 0x2 PUSH1 0x1 SLOAD EQ ISZERO PUSH2 0x1737 JUMPI PUSH1 0x40 MLOAD PUSH32 0x8C379A000000000000000000000000000000000000000000000000000000000 DUP2 MSTORE PUSH1 0x4 ADD DUP1 DUP1 PUSH1 0x20 ADD DUP3 DUP2 SUB DUP3 MSTORE PUSH1 0x1F DUP2 MSTORE PUSH1 0x20 ADD DUP1 PUSH32 0x5265656E7472616E637947756172643A207265656E7472616E742063616C6C00 DUP2 MSTORE POP PUSH1 0x20 ADD SWAP2 POP POP PUSH1 0x40 MLOAD DUP1 SWAP2 SUB SWAP1 REVERT JUMPDEST PUSH1 0x2 PUSH1 0x1 DUP2 SWAP1 SSTORE POP PUSH1 0x0 PUSH1 0x9 DUP3 DUP2 SLOAD DUP2 LT PUSH2 0x174E JUMPI INVALID JUMPDEST SWAP1 PUSH1 0x0 MSTORE PUSH1 0x20 PUSH1 0x0 KECCAK256 SWAP1 PUSH1 0x6 MUL ADD SWAP1 POP PUSH1 0x0 PUSH1 0xA PUSH1 0x0 DUP5 DUP2 MSTORE PUSH1 0x20 ADD SWAP1 DUP2 MSTORE PUSH1 0x20 ADD PUSH1 0x0 KECCAK256 PUSH1 0x0 CALLER PUSH20 0xFFFFFFFFFFFFFFFFFFFFFFFFFFFFFFFFFFFFFFFF AND PUSH20 0xFFFFFFFFFFFFFFFFFFFFFFFFFFFFFFFFFFFFFFFF AND DUP2 MSTORE PUSH1 0x20 ADD SWAP1 DUP2 MSTORE PUSH1 0x20 ADD PUSH1 0x0 KECCAK256 SWAP1 POP PUSH2 0x1805 CALLER DUP3 PUSH1 0x0 ADD SLOAD DUP5 PUSH1 0x0 ADD PUSH1 0x0 SWAP1 SLOAD SWAP1 PUSH2 0x100 EXP SWAP1 DIV PUSH20 0xFFFFFFFFFFFFFFFFFFFFFFFFFFFFFFFFFFFFFFFF AND PUSH20 0xFFFFFFFFFFFFFFFFFFFFFFFFFFFFFFFFFFFFFFFF AND PUSH2 0x3EAF SWAP1 SWAP3 SWAP2 SWAP1 PUSH4 0xFFFFFFFF AND JUMP JUMPDEST DUP3 CALLER PUSH20 0xFFFFFFFFFFFFFFFFFFFFFFFFFFFFFFFFFFFFFFFF AND PUSH32 0xBB757047C2B5F3974FE26B7C10F732E7BCE710B0952A71082702781E62AE0595 DUP4 PUSH1 0x0 ADD SLOAD PUSH1 0x40 MLOAD DUP1 DUP3 DUP2 MSTORE PUSH1 0x20 ADD SWAP2 POP POP PUSH1 0x40 MLOAD DUP1 SWAP2 SUB SWAP1 LOG3 PUSH1 0x0 DUP2 PUSH1 0x0 ADD DUP2 SWAP1 SSTORE POP PUSH1 0x0 DUP2 PUSH1 0x1 ADD DUP2 SWAP1 SSTORE POP PUSH1 0x0 DUP2 PUSH1 0x2 ADD PUSH1 0x0 PUSH2 0x100 EXP DUP2 SLOAD DUP2 PUSH1 0xFF MUL NOT AND SWAP1 DUP4 ISZERO ISZERO MUL OR SWAP1 SSTORE POP POP POP PUSH1 0x1 DUP1 DUP2 SWAP1 SSTORE POP POP JUMP JUMPDEST PUSH1 0x6 SLOAD DUP2 JUMP JUMPDEST PUSH8 0x16345785D8A0000 DUP2 JUMP JUMPDEST PUSH1 0x0 PUSH1 0x9 DUP1 SLOAD SWAP1 POP SWAP1 POP PUSH1 0x0 JUMPDEST DUP2 DUP2 LT ISZERO PUSH2 0x18D0 JUMPI PUSH2 0x18C5 DUP2 PUSH2 0x1347 JUMP JUMPDEST DUP1 PUSH1 0x1 ADD SWAP1 POP PUSH2 0x18B4 JUMP JUMPDEST POP POP JUMP JUMPDEST PUSH2 0x18DC PUSH2 0x38EC JUMP JUMPDEST PUSH20 0xFFFFFFFFFFFFFFFFFFFFFFFFFFFFFFFFFFFFFFFF AND PUSH1 0x0 DUP1 SLOAD SWAP1 PUSH2 0x100 EXP SWAP1 DIV PUSH20 0xFFFFFFFFFFFFFFFFFFFFFFFFFFFFFFFFFFFFFFFF AND PUSH20 0xFFFFFFFFFFFFFFFFFFFFFFFFFFFFFFFFFFFFFFFF AND EQ PUSH2 0x199C JUMPI PUSH1 0x40 MLOAD PUSH32 0x8C379A000000000000000000000000000000000000000000000000000000000 DUP2 MSTORE PUSH1 0x4 ADD DUP1 DUP1 PUSH1 0x20 ADD DUP3 DUP2 SUB DUP3 MSTORE PUSH1 0x20 DUP2 MSTORE PUSH1 0x20 ADD DUP1 PUSH32 0x4F776E61626C653A2063616C6C6572206973206E6F7420746865206F776E6572 DUP2 MSTORE POP PUSH1 0x20 ADD SWAP2 POP POP PUSH1 0x40 MLOAD DUP1 SWAP2 SUB SWAP1 REVERT JUMPDEST PUSH2 0x7D0 PUSH2 0xFFFF AND DUP2 GT ISZERO PUSH2 0x19FB JUMPI PUSH1 0x40 MLOAD PUSH32 0x8C379A000000000000000000000000000000000000000000000000000000000 DUP2 MSTORE PUSH1 0x4 ADD DUP1 DUP1 PUSH1 0x20 ADD DUP3 DUP2 SUB DUP3 MSTORE PUSH1 0x3A DUP2 MSTORE PUSH1 0x20 ADD DUP1 PUSH2 0x497F PUSH1 0x3A SWAP2 CODECOPY PUSH1 0x40 ADD SWAP2 POP POP PUSH1 0x40 MLOAD DUP1 SWAP2 SUB SWAP1 REVERT JUMPDEST PUSH1 0xC SLOAD DUP2 EQ ISZERO PUSH2 0x1A56 JUMPI PUSH1 0x40 MLOAD PUSH32 0x8C379A000000000000000000000000000000000000000000000000000000000 DUP2 MSTORE PUSH1 0x4 ADD DUP1 DUP1 PUSH1 0x20 ADD DUP3 DUP2 SUB DUP3 MSTORE PUSH1 0x28 DUP2 MSTORE PUSH1 0x20 ADD DUP1 PUSH2 0x4AB8 PUSH1 0x28 SWAP2 CODECOPY PUSH1 0x40 ADD SWAP2 POP POP PUSH1 0x40 MLOAD DUP1 SWAP2 SUB SWAP1 REVERT JUMPDEST PUSH1 0x0 PUSH1 0xC SLOAD SWAP1 POP DUP2 PUSH1 0xC DUP2 SWAP1 SSTORE POP PUSH32 0x3282B692BFEBF5F35B198A229212CF532C72099026AB54C4B8665382D1086B3F DUP2 DUP4 PUSH1 0x40 MLOAD DUP1 DUP4 DUP2 MSTORE PUSH1 0x20 ADD DUP3 DUP2 MSTORE PUSH1 0x20 ADD SWAP3 POP POP POP PUSH1 0x40 MLOAD DUP1 SWAP2 SUB SWAP1 LOG1 POP POP JUMP JUMPDEST PUSH1 0x4 SLOAD DUP2 JUMP JUMPDEST PUSH1 0xC SLOAD DUP2 JUMP JUMPDEST PUSH1 0x11 SLOAD DUP2 JUMP JUMPDEST PUSH2 0x1AC1 PUSH2 0x38EC JUMP JUMPDEST PUSH20 0xFFFFFFFFFFFFFFFFFFFFFFFFFFFFFFFFFFFFFFFF AND PUSH1 0x0 DUP1 SLOAD SWAP1 PUSH2 0x100 EXP SWAP1 DIV PUSH20 0xFFFFFFFFFFFFFFFFFFFFFFFFFFFFFFFFFFFFFFFF AND PUSH20 0xFFFFFFFFFFFFFFFFFFFFFFFFFFFFFFFFFFFFFFFF AND EQ PUSH2 0x1B81 JUMPI PUSH1 0x40 MLOAD PUSH32 0x8C379A000000000000000000000000000000000000000000000000000000000 DUP2 MSTORE PUSH1 0x4 ADD DUP1 DUP1 PUSH1 0x20 ADD DUP3 DUP2 SUB DUP3 MSTORE PUSH1 0x20 DUP2 MSTORE PUSH1 0x20 ADD DUP1 PUSH32 0x4F776E61626C653A2063616C6C6572206973206E6F7420746865206F776E6572 DUP2 MSTORE POP PUSH1 0x20 ADD SWAP2 POP POP PUSH1 0x40 MLOAD DUP1 SWAP2 SUB SWAP1 REVERT JUMPDEST PUSH1 0x0 PUSH20 0xFFFFFFFFFFFFFFFFFFFFFFFFFFFFFFFFFFFFFFFF AND PUSH1 0x0 DUP1 SLOAD SWAP1 PUSH2 0x100 EXP SWAP1 DIV PUSH20 0xFFFFFFFFFFFFFFFFFFFFFFFFFFFFFFFFFFFFFFFF AND PUSH20 0xFFFFFFFFFFFFFFFFFFFFFFFFFFFFFFFFFFFFFFFF AND PUSH32 0x8BE0079C531659141344CD1FD0A4F28419497F9722A3DAAFE3B4186F6B6457E0 PUSH1 0x40 MLOAD PUSH1 0x40 MLOAD DUP1 SWAP2 SUB SWAP1 LOG3 PUSH1 0x0 DUP1 PUSH1 0x0 PUSH2 0x100 EXP DUP2 SLOAD DUP2 PUSH20 0xFFFFFFFFFFFFFFFFFFFFFFFFFFFFFFFFFFFFFFFF MUL NOT AND SWAP1 DUP4 PUSH20 0xFFFFFFFFFFFFFFFFFFFFFFFFFFFFFFFFFFFFFFFF AND MUL OR SWAP1 SSTORE POP JUMP JUMPDEST PUSH2 0x1C47 PUSH2 0x38EC JUMP JUMPDEST PUSH20 0xFFFFFFFFFFFFFFFFFFFFFFFFFFFFFFFFFFFFFFFF AND PUSH1 0x0 DUP1 SLOAD SWAP1 PUSH2 0x100 EXP SWAP1 DIV PUSH20 0xFFFFFFFFFFFFFFFFFFFFFFFFFFFFFFFFFFFFFFFF AND PUSH20 0xFFFFFFFFFFFFFFFFFFFFFFFFFFFFFFFFFFFFFFFF AND EQ PUSH2 0x1D07 JUMPI PUSH1 0x40 MLOAD PUSH32 0x8C379A000000000000000000000000000000000000000000000000000000000 DUP2 MSTORE PUSH1 0x4 ADD DUP1 DUP1 PUSH1 0x20 ADD DUP3 DUP2 SUB DUP3 MSTORE PUSH1 0x20 DUP2 MSTORE PUSH1 0x20 ADD DUP1 PUSH32 0x4F776E61626C653A2063616C6C6572206973206E6F7420746865206F776E6572 DUP2 MSTORE POP PUSH1 0x20 ADD SWAP2 POP POP PUSH1 0x40 MLOAD DUP1 SWAP2 SUB SWAP1 REVERT JUMPDEST DUP1 PUSH1 0x12 PUSH1 0x0 PUSH2 0x100 EXP DUP2 SLOAD DUP2 PUSH1 0xFF MUL NOT AND SWAP1 DUP4 ISZERO ISZERO MUL OR SWAP1 SSTORE POP POP JUMP JUMPDEST PUSH1 0x0 PUSH20 0xFFFFFFFFFFFFFFFFFFFFFFFFFFFFFFFFFFFFFFFF AND DUP2 PUSH20 0xFFFFFFFFFFFFFFFFFFFFFFFFFFFFFFFFFFFFFFFF AND EQ ISZERO PUSH2 0x1DC7 JUMPI PUSH1 0x40 MLOAD PUSH32 0x8C379A000000000000000000000000000000000000000000000000000000000 DUP2 MSTORE PUSH1 0x4 ADD DUP1 DUP1 PUSH1 0x20 ADD DUP3 DUP2 SUB DUP3 MSTORE PUSH1 0x1E DUP2 MSTORE PUSH1 0x20 ADD DUP1 PUSH32 0x736574466565416464726573733A20696E76616C696420616464726573730000 DUP2 MSTORE POP PUSH1 0x20 ADD SWAP2 POP POP PUSH1 0x40 MLOAD DUP1 SWAP2 SUB SWAP1 REVERT JUMPDEST PUSH1 0x5 PUSH1 0x0 SWAP1 SLOAD SWAP1 PUSH2 0x100 EXP SWAP1 DIV PUSH20 0xFFFFFFFFFFFFFFFFFFFFFFFFFFFFFFFFFFFFFFFF AND PUSH20 0xFFFFFFFFFFFFFFFFFFFFFFFFFFFFFFFFFFFFFFFF AND CALLER PUSH20 0xFFFFFFFFFFFFFFFFFFFFFFFFFFFFFFFFFFFFFFFF AND EQ PUSH2 0x1E8A JUMPI PUSH1 0x40 MLOAD PUSH32 0x8C379A000000000000000000000000000000000000000000000000000000000 DUP2 MSTORE PUSH1 0x4 ADD DUP1 DUP1 PUSH1 0x20 ADD DUP3 DUP2 SUB DUP3 MSTORE PUSH1 0x18 DUP2 MSTORE PUSH1 0x20 ADD DUP1 PUSH32 0x736574466565416464726573733A20464F5242494444454E0000000000000000 DUP2 MSTORE POP PUSH1 0x20 ADD SWAP2 POP POP PUSH1 0x40 MLOAD DUP1 SWAP2 SUB SWAP1 REVERT JUMPDEST DUP1 PUSH1 0x5 PUSH1 0x0 PUSH2 0x100 EXP DUP2 SLOAD DUP2 PUSH20 0xFFFFFFFFFFFFFFFFFFFFFFFFFFFFFFFFFFFFFFFF MUL NOT AND SWAP1 DUP4 PUSH20 0xFFFFFFFFFFFFFFFFFFFFFFFFFFFFFFFFFFFFFFFF AND MUL OR SWAP1 SSTORE POP DUP1 PUSH20 0xFFFFFFFFFFFFFFFFFFFFFFFFFFFFFFFFFFFFFFFF AND CALLER PUSH20 0xFFFFFFFFFFFFFFFFFFFFFFFFFFFFFFFFFFFFFFFF AND PUSH32 0xD44190ACF9D04BDB5D3A1AAFFF7E6DEE8B40B93DFB8C5D3F0EEA4B9F4539C3F7 PUSH1 0x40 MLOAD PUSH1 0x40 MLOAD DUP1 SWAP2 SUB SWAP1 LOG3 POP JUMP JUMPDEST PUSH1 0x0 DUP1 PUSH1 0x0 SWAP1 SLOAD SWAP1 PUSH2 0x100 EXP SWAP1 DIV PUSH20 0xFFFFFFFFFFFFFFFFFFFFFFFFFFFFFFFFFFFFFFFF AND SWAP1 POP SWAP1 JUMP JUMPDEST PUSH1 0x0 PUSH2 0x1F66 DUP4 DUP4 PUSH2 0x39C4 SWAP1 SWAP2 SWAP1 PUSH4 0xFFFFFFFF AND JUMP JUMPDEST SWAP1 POP SWAP3 SWAP2 POP POP JUMP JUMPDEST PUSH1 0x2 PUSH1 0x1 SLOAD EQ ISZERO PUSH2 0x1FE7 JUMPI PUSH1 0x40 MLOAD PUSH32 0x8C379A000000000000000000000000000000000000000000000000000000000 DUP2 MSTORE PUSH1 0x4 ADD DUP1 DUP1 PUSH1 0x20 ADD DUP3 DUP2 SUB DUP3 MSTORE PUSH1 0x1F DUP2 MSTORE PUSH1 0x20 ADD DUP1 PUSH32 0x5265656E7472616E637947756172643A207265656E7472616E742063616C6C00 DUP2 MSTORE POP PUSH1 0x20 ADD SWAP2 POP POP PUSH1 0x40 MLOAD DUP1 SWAP2 SUB SWAP1 REVERT JUMPDEST PUSH1 0x2 PUSH1 0x1 DUP2 SWAP1 SSTORE POP DUP1 PUSH20 0xFFFFFFFFFFFFFFFFFFFFFFFFFFFFFFFFFFFFFFFF AND DUP2 PUSH20 0xFFFFFFFFFFFFFFFFFFFFFFFFFFFFFFFFFFFFFFFF AND EQ PUSH2 0x2073 JUMPI PUSH1 0x40 MLOAD PUSH32 0x8C379A000000000000000000000000000000000000000000000000000000000 DUP2 MSTORE PUSH1 0x4 ADD DUP1 DUP1 PUSH1 0x20 ADD DUP3 DUP2 SUB DUP3 MSTORE PUSH1 0x21 DUP2 MSTORE PUSH1 0x20 ADD DUP1 PUSH2 0x4A2B PUSH1 0x21 SWAP2 CODECOPY PUSH1 0x40 ADD SWAP2 POP POP PUSH1 0x40 MLOAD DUP1 SWAP2 SUB SWAP1 REVERT JUMPDEST PUSH1 0x0 PUSH1 0x9 DUP5 DUP2 SLOAD DUP2 LT PUSH2 0x2082 JUMPI INVALID JUMPDEST SWAP1 PUSH1 0x0 MSTORE PUSH1 0x20 PUSH1 0x0 KECCAK256 SWAP1 PUSH1 0x6 MUL ADD SWAP1 POP PUSH1 0x0 PUSH1 0xA PUSH1 0x0 DUP7 DUP2 MSTORE PUSH1 0x20 ADD SWAP1 DUP2 MSTORE PUSH1 0x20 ADD PUSH1 0x0 KECCAK256 PUSH1 0x0 CALLER PUSH20 0xFFFFFFFFFFFFFFFFFFFFFFFFFFFFFFFFFFFFFFFF AND PUSH20 0xFFFFFFFFFFFFFFFFFFFFFFFFFFFFFFFFFFFFFFFF AND DUP2 MSTORE PUSH1 0x20 ADD SWAP1 DUP2 MSTORE PUSH1 0x20 ADD PUSH1 0x0 KECCAK256 SWAP1 POP PUSH2 0x20EF DUP6 PUSH2 0x1347 JUMP JUMPDEST PUSH1 0x0 DUP2 PUSH1 0x0 ADD SLOAD GT ISZERO PUSH2 0x21B9 JUMPI PUSH1 0x0 PUSH2 0x2146 DUP3 PUSH1 0x1 ADD SLOAD PUSH2 0x2138 PUSH5 0xE8D4A51000 PUSH2 0x212A DUP8 PUSH1 0x4 ADD SLOAD DUP8 PUSH1 0x0 ADD SLOAD PUSH2 0x38F4 SWAP1 SWAP2 SWAP1 PUSH4 0xFFFFFFFF AND JUMP JUMPDEST PUSH2 0x397A SWAP1 SWAP2 SWAP1 PUSH4 0xFFFFFFFF AND JUMP JUMPDEST PUSH2 0x39C4 SWAP1 SWAP2 SWAP1 PUSH4 0xFFFFFFFF AND JUMP JUMPDEST SWAP1 POP PUSH1 0x0 PUSH2 0x2153 DUP8 PUSH2 0x26B7 JUMP JUMPDEST SWAP1 POP DUP1 DUP1 ISZERO PUSH2 0x2162 JUMPI POP PUSH1 0x0 DUP3 GT JUMPDEST ISZERO PUSH2 0x21B6 JUMPI PUSH2 0x2171 CALLER DUP4 PUSH2 0x3A0E JUMP JUMPDEST PUSH2 0x217B CALLER DUP4 PUSH2 0x3CE2 JUMP JUMPDEST PUSH2 0x21AD PUSH5 0xE8D4A51000 PUSH2 0x219F DUP7 PUSH1 0x4 ADD SLOAD DUP7 PUSH1 0x0 ADD SLOAD PUSH2 0x38F4 SWAP1 SWAP2 SWAP1 PUSH4 0xFFFFFFFF AND JUMP JUMPDEST PUSH2 0x397A SWAP1 SWAP2 SWAP1 PUSH4 0xFFFFFFFF AND JUMP JUMPDEST DUP4 PUSH1 0x1 ADD DUP2 SWAP1 SSTORE POP JUMPDEST POP POP JUMPDEST PUSH1 0x0 DUP5 GT ISZERO PUSH2 0x2346 JUMPI PUSH2 0x21CC CALLER DUP5 PUSH2 0x3FD9 JUMP JUMPDEST PUSH2 0x221D CALLER ADDRESS DUP7 DUP6 PUSH1 0x0 ADD PUSH1 0x0 SWAP1 SLOAD SWAP1 PUSH2 0x100 EXP SWAP1 DIV PUSH20 0xFFFFFFFFFFFFFFFFFFFFFFFFFFFFFFFFFFFFFFFF AND PUSH20 0xFFFFFFFFFFFFFFFFFFFFFFFFFFFFFFFFFFFFFFFF AND PUSH2 0x4240 SWAP1 SWAP4 SWAP3 SWAP2 SWAP1 PUSH4 0xFFFFFFFF AND JUMP JUMPDEST PUSH1 0x0 DUP3 PUSH1 0x5 ADD PUSH1 0x0 SWAP1 SLOAD SWAP1 PUSH2 0x100 EXP SWAP1 DIV PUSH2 0xFFFF AND PUSH2 0xFFFF AND GT ISZERO PUSH2 0x2325 JUMPI PUSH1 0x0 PUSH2 0x227B PUSH2 0x2710 PUSH2 0x226D DUP6 PUSH1 0x5 ADD PUSH1 0x0 SWAP1 SLOAD SWAP1 PUSH2 0x100 EXP SWAP1 DIV PUSH2 0xFFFF AND PUSH2 0xFFFF AND DUP9 PUSH2 0x38F4 SWAP1 SWAP2 SWAP1 PUSH4 0xFFFFFFFF AND JUMP JUMPDEST PUSH2 0x397A SWAP1 SWAP2 SWAP1 PUSH4 0xFFFFFFFF AND JUMP JUMPDEST SWAP1 POP PUSH2 0x22A6 DUP2 PUSH2 0x2298 DUP8 DUP6 PUSH1 0x0 ADD SLOAD PUSH2 0x3F51 SWAP1 SWAP2 SWAP1 PUSH4 0xFFFFFFFF AND JUMP JUMPDEST PUSH2 0x39C4 SWAP1 SWAP2 SWAP1 PUSH4 0xFFFFFFFF AND JUMP JUMPDEST DUP3 PUSH1 0x0 ADD DUP2 SWAP1 SSTORE POP PUSH2 0x231F PUSH1 0x5 PUSH1 0x0 SWAP1 SLOAD SWAP1 PUSH2 0x100 EXP SWAP1 DIV PUSH20 0xFFFFFFFFFFFFFFFFFFFFFFFFFFFFFFFFFFFFFFFF AND DUP3 DUP6 PUSH1 0x0 ADD PUSH1 0x0 SWAP1 SLOAD SWAP1 PUSH2 0x100 EXP SWAP1 DIV PUSH20 0xFFFFFFFFFFFFFFFFFFFFFFFFFFFFFFFFFFFFFFFF AND PUSH20 0xFFFFFFFFFFFFFFFFFFFFFFFFFFFFFFFFFFFFFFFF AND PUSH2 0x3EAF SWAP1 SWAP3 SWAP2 SWAP1 PUSH4 0xFFFFFFFF AND JUMP JUMPDEST POP PUSH2 0x2345 JUMP JUMPDEST PUSH2 0x233C DUP5 DUP3 PUSH1 0x0 ADD SLOAD PUSH2 0x3F51 SWAP1 SWAP2 SWAP1 PUSH4 0xFFFFFFFF AND JUMP JUMPDEST DUP2 PUSH1 0x0 ADD DUP2 SWAP1 SSTORE POP JUMPDEST JUMPDEST DUP1 PUSH1 0x2 ADD PUSH1 0x0 SWAP1 SLOAD SWAP1 PUSH2 0x100 EXP SWAP1 DIV PUSH1 0xFF AND PUSH2 0x23B4 JUMPI PUSH2 0x238E PUSH5 0xE8D4A51000 PUSH2 0x2380 DUP5 PUSH1 0x4 ADD SLOAD DUP5 PUSH1 0x0 ADD SLOAD PUSH2 0x38F4 SWAP1 SWAP2 SWAP1 PUSH4 0xFFFFFFFF AND JUMP JUMPDEST PUSH2 0x397A SWAP1 SWAP2 SWAP1 PUSH4 0xFFFFFFFF AND JUMP JUMPDEST DUP2 PUSH1 0x1 ADD DUP2 SWAP1 SSTORE POP PUSH1 0x1 DUP2 PUSH1 0x2 ADD PUSH1 0x0 PUSH2 0x100 EXP DUP2 SLOAD DUP2 PUSH1 0xFF MUL NOT AND SWAP1 DUP4 ISZERO ISZERO MUL OR SWAP1 SSTORE POP JUMPDEST DUP5 CALLER PUSH20 0xFFFFFFFFFFFFFFFFFFFFFFFFFFFFFFFFFFFFFFFF AND PUSH32 0x90890809C654F11D6E72A28FA60149770A0D11EC6C92319D6CEB2BB0A4EA1A15 DUP7 PUSH1 0x40 MLOAD DUP1 DUP3 DUP2 MSTORE PUSH1 0x20 ADD SWAP2 POP POP PUSH1 0x40 MLOAD DUP1 SWAP2 SUB SWAP1 LOG3 POP POP PUSH1 0x1 DUP1 DUP2 SWAP1 SSTORE POP POP POP POP JUMP JUMPDEST PUSH8 0x6F05B59D3B20000 DUP2 JUMP JUMPDEST PUSH1 0xA PUSH1 0x20 MSTORE DUP2 PUSH1 0x0 MSTORE PUSH1 0x40 PUSH1 0x0 KECCAK256 PUSH1 0x20 MSTORE DUP1 PUSH1 0x0 MSTORE PUSH1 0x40 PUSH1 0x0 KECCAK256 PUSH1 0x0 SWAP2 POP SWAP2 POP POP DUP1 PUSH1 0x0 ADD SLOAD SWAP1 DUP1 PUSH1 0x1 ADD SLOAD SWAP1 DUP1 PUSH1 0x2 ADD PUSH1 0x0 SWAP1 SLOAD SWAP1 PUSH2 0x100 EXP SWAP1 DIV PUSH1 0xFF AND SWAP1 POP DUP4 JUMP JUMPDEST PUSH2 0x3E8 DUP2 JUMP JUMPDEST PUSH1 0x10 PUSH1 0x20 MSTORE DUP1 PUSH1 0x0 MSTORE PUSH1 0x40 PUSH1 0x0 KECCAK256 PUSH1 0x0 SWAP2 POP SWAP1 POP SLOAD DUP2 JUMP JUMPDEST PUSH1 0x7 SLOAD DUP2 JUMP JUMPDEST PUSH2 0x248D PUSH2 0x38EC JUMP JUMPDEST PUSH20 0xFFFFFFFFFFFFFFFFFFFFFFFFFFFFFFFFFFFFFFFF AND PUSH1 0x0 DUP1 SLOAD SWAP1 PUSH2 0x100 EXP SWAP1 DIV PUSH20 0xFFFFFFFFFFFFFFFFFFFFFFFFFFFFFFFFFFFFFFFF AND PUSH20 0xFFFFFFFFFFFFFFFFFFFFFFFFFFFFFFFFFFFFFFFF AND EQ PUSH2 0x254D JUMPI PUSH1 0x40 MLOAD PUSH32 0x8C379A000000000000000000000000000000000000000000000000000000000 DUP2 MSTORE PUSH1 0x4 ADD DUP1 DUP1 PUSH1 0x20 ADD DUP3 DUP2 SUB DUP3 MSTORE PUSH1 0x20 DUP2 MSTORE PUSH1 0x20 ADD DUP1 PUSH32 0x4F776E61626C653A2063616C6C6572206973206E6F7420746865206F776E6572 DUP2 MSTORE POP PUSH1 0x20 ADD SWAP2 POP POP PUSH1 0x40 MLOAD DUP1 SWAP2 SUB SWAP1 REVERT JUMPDEST PUSH1 0x0 PUSH1 0x4 SLOAD SWAP1 POP DUP2 PUSH1 0x4 DUP2 SWAP1 SSTORE POP PUSH2 0x2563 PUSH2 0x18A7 JUMP JUMPDEST CALLER PUSH20 0xFFFFFFFFFFFFFFFFFFFFFFFFFFFFFFFFFFFFFFFF AND PUSH32 0xEEDC6338C9C1AD8F3CD6C90DD09DBE98DBD57E610D3E59A17996D07ACB0D9511 DUP3 DUP5 PUSH1 0x40 MLOAD DUP1 DUP4 DUP2 MSTORE PUSH1 0x20 ADD DUP3 DUP2 MSTORE PUSH1 0x20 ADD SWAP3 POP POP POP PUSH1 0x40 MLOAD DUP1 SWAP2 SUB SWAP1 LOG2 POP POP JUMP JUMPDEST PUSH1 0x2 PUSH1 0x0 SWAP1 SLOAD SWAP1 PUSH2 0x100 EXP SWAP1 DIV PUSH20 0xFFFFFFFFFFFFFFFFFFFFFFFFFFFFFFFFFFFFFFFF AND DUP2 JUMP JUMPDEST PUSH2 0x25EB PUSH2 0x38EC JUMP JUMPDEST PUSH20 0xFFFFFFFFFFFFFFFFFFFFFFFFFFFFFFFFFFFFFFFF AND PUSH1 0x0 DUP1 SLOAD SWAP1 PUSH2 0x100 EXP SWAP1 DIV PUSH20 0xFFFFFFFFFFFFFFFFFFFFFFFFFFFFFFFFFFFFFFFF AND PUSH20 0xFFFFFFFFFFFFFFFFFFFFFFFFFFFFFFFFFFFFFFFF AND EQ PUSH2 0x26AB JUMPI PUSH1 0x40 MLOAD PUSH32 0x8C379A000000000000000000000000000000000000000000000000000000000 DUP2 MSTORE PUSH1 0x4 ADD DUP1 DUP1 PUSH1 0x20 ADD DUP3 DUP2 SUB DUP3 MSTORE PUSH1 0x20 DUP2 MSTORE PUSH1 0x20 ADD DUP1 PUSH32 0x4F776E61626C653A2063616C6C6572206973206E6F7420746865206F776E6572 DUP2 MSTORE POP PUSH1 0x20 ADD SWAP2 POP POP PUSH1 0x40 MLOAD DUP1 SWAP2 SUB SWAP1 REVERT JUMPDEST DUP1 NUMBER ADD PUSH1 0x7 DUP2 SWAP1 SSTORE POP POP JUMP JUMPDEST PUSH1 0x0 DUP1 PUSH1 0x9 DUP4 DUP2 SLOAD DUP2 LT PUSH2 0x26C7 JUMPI INVALID JUMPDEST SWAP1 PUSH1 0x0 MSTORE PUSH1 0x20 PUSH1 0x0 KECCAK256 SWAP1 PUSH1 0x6 MUL ADD SWAP1 POP NUMBER DUP2 PUSH1 0x2 ADD SLOAD GT ISZERO SWAP2 POP POP SWAP2 SWAP1 POP JUMP JUMPDEST PUSH2 0x5DC DUP2 JUMP JUMPDEST PUSH2 0x26F5 PUSH2 0x38EC JUMP JUMPDEST PUSH20 0xFFFFFFFFFFFFFFFFFFFFFFFFFFFFFFFFFFFFFFFF AND PUSH1 0x0 DUP1 SLOAD SWAP1 PUSH2 0x100 EXP SWAP1 DIV PUSH20 0xFFFFFFFFFFFFFFFFFFFFFFFFFFFFFFFFFFFFFFFF AND PUSH20 0xFFFFFFFFFFFFFFFFFFFFFFFFFFFFFFFFFFFFFFFF AND EQ PUSH2 0x27B5 JUMPI PUSH1 0x40 MLOAD PUSH32 0x8C379A000000000000000000000000000000000000000000000000000000000 DUP2 MSTORE PUSH1 0x4 ADD DUP1 DUP1 PUSH1 0x20 ADD DUP3 DUP2 SUB DUP3 MSTORE PUSH1 0x20 DUP2 MSTORE PUSH1 0x20 ADD DUP1 PUSH32 0x4F776E61626C653A2063616C6C6572206973206E6F7420746865206F776E6572 DUP2 MSTORE POP PUSH1 0x20 ADD SWAP2 POP POP PUSH1 0x40 MLOAD DUP1 SWAP2 SUB SWAP1 REVERT JUMPDEST PUSH2 0x3E8 PUSH2 0xFFFF AND DUP4 PUSH2 0xFFFF AND GT ISZERO PUSH2 0x2818 JUMPI PUSH1 0x40 MLOAD PUSH32 0x8C379A000000000000000000000000000000000000000000000000000000000 DUP2 MSTORE PUSH1 0x4 ADD DUP1 DUP1 PUSH1 0x20 ADD DUP3 DUP2 SUB DUP3 MSTORE PUSH1 0x25 DUP2 MSTORE PUSH1 0x20 ADD DUP1 PUSH2 0x4A93 PUSH1 0x25 SWAP2 CODECOPY PUSH1 0x40 ADD SWAP2 POP POP PUSH1 0x40 MLOAD DUP1 SWAP2 SUB SWAP1 REVERT JUMPDEST DUP2 ISZERO PUSH2 0x2827 JUMPI PUSH2 0x2826 PUSH2 0x18A7 JUMP JUMPDEST JUMPDEST PUSH1 0x0 PUSH1 0x7 SLOAD SWAP1 POP PUSH1 0x0 DUP3 GT ISZERO PUSH2 0x283D JUMPI DUP2 NUMBER ADD SWAP1 POP JUMPDEST PUSH2 0x2882 DUP6 PUSH2 0x2874 PUSH1 0x9 DUP10 DUP2 SLOAD DUP2 LT PUSH2 0x2851 JUMPI INVALID JUMPDEST SWAP1 PUSH1 0x0 MSTORE PUSH1 0x20 PUSH1 0x0 KECCAK256 SWAP1 PUSH1 0x6 MUL ADD PUSH1 0x1 ADD SLOAD PUSH1 0xB SLOAD PUSH2 0x39C4 SWAP1 SWAP2 SWAP1 PUSH4 0xFFFFFFFF AND JUMP JUMPDEST PUSH2 0x3F51 SWAP1 SWAP2 SWAP1 PUSH4 0xFFFFFFFF AND JUMP JUMPDEST PUSH1 0xB DUP2 SWAP1 SSTORE POP DUP5 PUSH1 0x9 DUP8 DUP2 SLOAD DUP2 LT PUSH2 0x2896 JUMPI INVALID JUMPDEST SWAP1 PUSH1 0x0 MSTORE PUSH1 0x20 PUSH1 0x0 KECCAK256 SWAP1 PUSH1 0x6 MUL ADD PUSH1 0x1 ADD DUP2 SWAP1 SSTORE POP DUP4 PUSH1 0x9 DUP8 DUP2 SLOAD DUP2 LT PUSH2 0x28B9 JUMPI INVALID JUMPDEST SWAP1 PUSH1 0x0 MSTORE PUSH1 0x20 PUSH1 0x0 KECCAK256 SWAP1 PUSH1 0x6 MUL ADD PUSH1 0x5 ADD PUSH1 0x0 PUSH2 0x100 EXP DUP2 SLOAD DUP2 PUSH2 0xFFFF MUL NOT AND SWAP1 DUP4 PUSH2 0xFFFF AND MUL OR SWAP1 SSTORE POP DUP1 PUSH1 0x9 DUP8 DUP2 SLOAD DUP2 LT PUSH2 0x28F2 JUMPI INVALID JUMPDEST SWAP1 PUSH1 0x0 MSTORE PUSH1 0x20 PUSH1 0x0 KECCAK256 SWAP1 PUSH1 0x6 MUL ADD PUSH1 0x2 ADD DUP2 SWAP1 SSTORE POP POP POP POP POP POP POP JUMP JUMPDEST PUSH1 0xF PUSH1 0x20 MSTORE DUP1 PUSH1 0x0 MSTORE PUSH1 0x40 PUSH1 0x0 KECCAK256 PUSH1 0x0 SWAP2 POP SLOAD SWAP1 PUSH2 0x100 EXP SWAP1 DIV PUSH1 0xFF AND DUP2 JUMP JUMPDEST PUSH1 0x0 PUSH20 0xFFFFFFFFFFFFFFFFFFFFFFFFFFFFFFFFFFFFFFFF AND DUP2 PUSH20 0xFFFFFFFFFFFFFFFFFFFFFFFFFFFFFFFFFFFFFFFF AND EQ ISZERO PUSH2 0x29D2 JUMPI PUSH1 0x40 MLOAD PUSH32 0x8C379A000000000000000000000000000000000000000000000000000000000 DUP2 MSTORE PUSH1 0x4 ADD DUP1 DUP1 PUSH1 0x20 ADD DUP3 DUP2 SUB DUP3 MSTORE PUSH1 0x14 DUP2 MSTORE PUSH1 0x20 ADD DUP1 PUSH32 0x6465763A20696E76616C69642061646472657373000000000000000000000000 DUP2 MSTORE POP PUSH1 0x20 ADD SWAP2 POP POP PUSH1 0x40 MLOAD DUP1 SWAP2 SUB SWAP1 REVERT JUMPDEST PUSH1 0x3 PUSH1 0x0 SWAP1 SLOAD SWAP1 PUSH2 0x100 EXP SWAP1 DIV PUSH20 0xFFFFFFFFFFFFFFFFFFFFFFFFFFFFFFFFFFFFFFFF AND PUSH20 0xFFFFFFFFFFFFFFFFFFFFFFFFFFFFFFFFFFFFFFFF AND CALLER PUSH20 0xFFFFFFFFFFFFFFFFFFFFFFFFFFFFFFFFFFFFFFFF AND EQ PUSH2 0x2A95 JUMPI PUSH1 0x40 MLOAD PUSH32 0x8C379A000000000000000000000000000000000000000000000000000000000 DUP2 MSTORE PUSH1 0x4 ADD DUP1 DUP1 PUSH1 0x20 ADD DUP3 DUP2 SUB DUP3 MSTORE PUSH1 0x9 DUP2 MSTORE PUSH1 0x20 ADD DUP1 PUSH32 0x6465763A207775743F0000000000000000000000000000000000000000000000 DUP2 MSTORE POP PUSH1 0x20 ADD SWAP2 POP POP PUSH1 0x40 MLOAD DUP1 SWAP2 SUB SWAP1 REVERT JUMPDEST DUP1 PUSH1 0x3 PUSH1 0x0 PUSH2 0x100 EXP DUP2 SLOAD DUP2 PUSH20 0xFFFFFFFFFFFFFFFFFFFFFFFFFFFFFFFFFFFFFFFF MUL NOT AND SWAP1 DUP4 PUSH20 0xFFFFFFFFFFFFFFFFFFFFFFFFFFFFFFFFFFFFFFFF AND MUL OR SWAP1 SSTORE POP DUP1 PUSH20 0xFFFFFFFFFFFFFFFFFFFFFFFFFFFFFFFFFFFFFFFF AND CALLER PUSH20 0xFFFFFFFFFFFFFFFFFFFFFFFFFFFFFFFFFFFFFFFF AND PUSH32 0x618C54559E94F1499A808AAD71EE8729F8E74E8C48E979616328CE493A1A52E7 PUSH1 0x40 MLOAD PUSH1 0x40 MLOAD DUP1 SWAP2 SUB SWAP1 LOG3 POP JUMP JUMPDEST PUSH2 0x7080 DUP2 JUMP JUMPDEST PUSH1 0x3 PUSH1 0x0 SWAP1 SLOAD SWAP1 PUSH2 0x100 EXP SWAP1 DIV PUSH20 0xFFFFFFFFFFFFFFFFFFFFFFFFFFFFFFFFFFFFFFFF AND DUP2 JUMP JUMPDEST PUSH1 0x0 DUP1 PUSH1 0x9 DUP5 DUP2 SLOAD DUP2 LT PUSH2 0x2B6F JUMPI INVALID JUMPDEST SWAP1 PUSH1 0x0 MSTORE PUSH1 0x20 PUSH1 0x0 KECCAK256 SWAP1 PUSH1 0x6 MUL ADD SWAP1 POP PUSH1 0x0 PUSH1 0xA PUSH1 0x0 DUP7 DUP2 MSTORE PUSH1 0x20 ADD SWAP1 DUP2 MSTORE PUSH1 0x20 ADD PUSH1 0x0 KECCAK256 PUSH1 0x0 DUP6 PUSH20 0xFFFFFFFFFFFFFFFFFFFFFFFFFFFFFFFFFFFFFFFF AND PUSH20 0xFFFFFFFFFFFFFFFFFFFFFFFFFFFFFFFFFFFFFFFF AND DUP2 MSTORE PUSH1 0x20 ADD SWAP1 DUP2 MSTORE PUSH1 0x20 ADD PUSH1 0x0 KECCAK256 SWAP1 POP PUSH1 0x0 DUP3 PUSH1 0x4 ADD SLOAD SWAP1 POP PUSH1 0x0 DUP4 PUSH1 0x0 ADD PUSH1 0x0 SWAP1 SLOAD SWAP1 PUSH2 0x100 EXP SWAP1 DIV PUSH20 0xFFFFFFFFFFFFFFFFFFFFFFFFFFFFFFFFFFFFFFFF AND PUSH20 0xFFFFFFFFFFFFFFFFFFFFFFFFFFFFFFFFFFFFFFFF AND PUSH4 0x70A08231 ADDRESS PUSH1 0x40 MLOAD DUP3 PUSH4 0xFFFFFFFF AND PUSH1 0xE0 SHL DUP2 MSTORE PUSH1 0x4 ADD DUP1 DUP3 PUSH20 0xFFFFFFFFFFFFFFFFFFFFFFFFFFFFFFFFFFFFFFFF AND DUP2 MSTORE PUSH1 0x20 ADD SWAP2 POP POP PUSH1 0x20 PUSH1 0x40 MLOAD DUP1 DUP4 SUB DUP2 DUP7 DUP1 EXTCODESIZE ISZERO DUP1 ISZERO PUSH2 0x2C69 JUMPI PUSH1 0x0 DUP1 REVERT JUMPDEST POP GAS STATICCALL ISZERO DUP1 ISZERO PUSH2 0x2C7D JUMPI RETURNDATASIZE PUSH1 0x0 DUP1 RETURNDATACOPY RETURNDATASIZE PUSH1 0x0 REVERT JUMPDEST POP POP POP POP PUSH1 0x40 MLOAD RETURNDATASIZE PUSH1 0x20 DUP2 LT ISZERO PUSH2 0x2C93 JUMPI PUSH1 0x0 DUP1 REVERT JUMPDEST DUP2 ADD SWAP1 DUP1 DUP1 MLOAD SWAP1 PUSH1 0x20 ADD SWAP1 SWAP3 SWAP2 SWAP1 POP POP POP SWAP1 POP PUSH1 0x0 PUSH2 0x2CB1 DUP9 PUSH2 0x26B7 JUMP JUMPDEST SWAP1 POP DUP1 ISZERO DUP1 ISZERO PUSH2 0x2CC4 JUMPI POP DUP5 PUSH1 0x3 ADD SLOAD NUMBER GT JUMPDEST DUP1 ISZERO PUSH2 0x2CD1 JUMPI POP PUSH1 0x0 DUP3 EQ ISZERO JUMPDEST ISZERO PUSH2 0x2D6C JUMPI PUSH1 0x0 PUSH2 0x2CE6 DUP7 PUSH1 0x3 ADD SLOAD NUMBER PUSH2 0x1F51 JUMP JUMPDEST SWAP1 POP PUSH1 0x0 PUSH2 0x2D29 PUSH1 0xB SLOAD PUSH2 0x2D1B DUP10 PUSH1 0x1 ADD SLOAD PUSH2 0x2D0D PUSH1 0x4 SLOAD DUP8 PUSH2 0x38F4 SWAP1 SWAP2 SWAP1 PUSH4 0xFFFFFFFF AND JUMP JUMPDEST PUSH2 0x38F4 SWAP1 SWAP2 SWAP1 PUSH4 0xFFFFFFFF AND JUMP JUMPDEST PUSH2 0x397A SWAP1 SWAP2 SWAP1 PUSH4 0xFFFFFFFF AND JUMP JUMPDEST SWAP1 POP PUSH2 0x2D67 PUSH2 0x2D58 DUP6 PUSH2 0x2D4A PUSH5 0xE8D4A51000 DUP6 PUSH2 0x38F4 SWAP1 SWAP2 SWAP1 PUSH4 0xFFFFFFFF AND JUMP JUMPDEST PUSH2 0x397A SWAP1 SWAP2 SWAP1 PUSH4 0xFFFFFFFF AND JUMP JUMPDEST DUP7 PUSH2 0x3F51 SWAP1 SWAP2 SWAP1 PUSH4 0xFFFFFFFF AND JUMP JUMPDEST SWAP5 POP POP POP JUMPDEST PUSH2 0x2DB0 DUP5 PUSH1 0x1 ADD SLOAD PUSH2 0x2DA2 PUSH5 0xE8D4A51000 PUSH2 0x2D94 DUP8 DUP10 PUSH1 0x0 ADD SLOAD PUSH2 0x38F4 SWAP1 SWAP2 SWAP1 PUSH4 0xFFFFFFFF AND JUMP JUMPDEST PUSH2 0x397A SWAP1 SWAP2 SWAP1 PUSH4 0xFFFFFFFF AND JUMP JUMPDEST PUSH2 0x39C4 SWAP1 SWAP2 SWAP1 PUSH4 0xFFFFFFFF AND JUMP JUMPDEST SWAP6 POP POP POP POP POP POP SWAP3 SWAP2 POP POP JUMP JUMPDEST PUSH1 0x2 PUSH1 0x1 SLOAD EQ ISZERO PUSH2 0x2E36 JUMPI PUSH1 0x40 MLOAD PUSH32 0x8C379A000000000000000000000000000000000000000000000000000000000 DUP2 MSTORE PUSH1 0x4 ADD DUP1 DUP1 PUSH1 0x20 ADD DUP3 DUP2 SUB DUP3 MSTORE PUSH1 0x1F DUP2 MSTORE PUSH1 0x20 ADD DUP1 PUSH32 0x5265656E7472616E637947756172643A207265656E7472616E742063616C6C00 DUP2 MSTORE POP PUSH1 0x20 ADD SWAP2 POP POP PUSH1 0x40 MLOAD DUP1 SWAP2 SUB SWAP1 REVERT JUMPDEST PUSH1 0x2 PUSH1 0x1 DUP2 SWAP1 SSTORE POP PUSH1 0x0 PUSH1 0x9 DUP4 DUP2 SLOAD DUP2 LT PUSH2 0x2E4D JUMPI INVALID JUMPDEST SWAP1 PUSH1 0x0 MSTORE PUSH1 0x20 PUSH1 0x0 KECCAK256 SWAP1 PUSH1 0x6 MUL ADD SWAP1 POP PUSH1 0x0 PUSH1 0xA PUSH1 0x0 DUP6 DUP2 MSTORE PUSH1 0x20 ADD SWAP1 DUP2 MSTORE PUSH1 0x20 ADD PUSH1 0x0 KECCAK256 PUSH1 0x0 CALLER PUSH20 0xFFFFFFFFFFFFFFFFFFFFFFFFFFFFFFFFFFFFFFFF AND PUSH20 0xFFFFFFFFFFFFFFFFFFFFFFFFFFFFFFFFFFFFFFFF AND DUP2 MSTORE PUSH1 0x20 ADD SWAP1 DUP2 MSTORE PUSH1 0x20 ADD PUSH1 0x0 KECCAK256 SWAP1 POP PUSH2 0x2EBA DUP5 PUSH2 0x1347 JUMP JUMPDEST PUSH1 0x0 DUP2 PUSH1 0x0 ADD SLOAD GT ISZERO PUSH2 0x2F7A JUMPI PUSH1 0x0 PUSH2 0x2F11 DUP3 PUSH1 0x1 ADD SLOAD PUSH2 0x2F03 PUSH5 0xE8D4A51000 PUSH2 0x2EF5 DUP8 PUSH1 0x4 ADD SLOAD DUP8 PUSH1 0x0 ADD SLOAD PUSH2 0x38F4 SWAP1 SWAP2 SWAP1 PUSH4 0xFFFFFFFF AND JUMP JUMPDEST PUSH2 0x397A SWAP1 SWAP2 SWAP1 PUSH4 0xFFFFFFFF AND JUMP JUMPDEST PUSH2 0x39C4 SWAP1 SWAP2 SWAP1 PUSH4 0xFFFFFFFF AND JUMP JUMPDEST SWAP1 POP PUSH1 0x0 PUSH2 0x2F1E DUP7 PUSH2 0x26B7 JUMP JUMPDEST SWAP1 POP DUP1 DUP1 ISZERO PUSH2 0x2F2D JUMPI POP PUSH1 0x0 DUP3 GT JUMPDEST ISZERO PUSH2 0x2F77 JUMPI PUSH2 0x2F3C CALLER DUP4 PUSH2 0x3A0E JUMP JUMPDEST PUSH2 0x2F6E PUSH5 0xE8D4A51000 PUSH2 0x2F60 DUP7 PUSH1 0x4 ADD SLOAD DUP7 PUSH1 0x0 ADD SLOAD PUSH2 0x38F4 SWAP1 SWAP2 SWAP1 PUSH4 0xFFFFFFFF AND JUMP JUMPDEST PUSH2 0x397A SWAP1 SWAP2 SWAP1 PUSH4 0xFFFFFFFF AND JUMP JUMPDEST DUP4 PUSH1 0x1 ADD DUP2 SWAP1 SSTORE POP JUMPDEST POP POP JUMPDEST PUSH1 0x0 DUP4 GT ISZERO PUSH2 0x30FD JUMPI PUSH2 0x2FD4 CALLER ADDRESS DUP6 DUP6 PUSH1 0x0 ADD PUSH1 0x0 SWAP1 SLOAD SWAP1 PUSH2 0x100 EXP SWAP1 DIV PUSH20 0xFFFFFFFFFFFFFFFFFFFFFFFFFFFFFFFFFFFFFFFF AND PUSH20 0xFFFFFFFFFFFFFFFFFFFFFFFFFFFFFFFFFFFFFFFF AND PUSH2 0x4240 SWAP1 SWAP4 SWAP3 SWAP2 SWAP1 PUSH4 0xFFFFFFFF AND JUMP JUMPDEST PUSH1 0x0 DUP3 PUSH1 0x5 ADD PUSH1 0x0 SWAP1 SLOAD SWAP1 PUSH2 0x100 EXP SWAP1 DIV PUSH2 0xFFFF AND PUSH2 0xFFFF AND GT ISZERO PUSH2 0x30DC JUMPI PUSH1 0x0 PUSH2 0x3032 PUSH2 0x2710 PUSH2 0x3024 DUP6 PUSH1 0x5 ADD PUSH1 0x0 SWAP1 SLOAD SWAP1 PUSH2 0x100 EXP SWAP1 DIV PUSH2 0xFFFF AND PUSH2 0xFFFF AND DUP8 PUSH2 0x38F4 SWAP1 SWAP2 SWAP1 PUSH4 0xFFFFFFFF AND JUMP JUMPDEST PUSH2 0x397A SWAP1 SWAP2 SWAP1 PUSH4 0xFFFFFFFF AND JUMP JUMPDEST SWAP1 POP PUSH2 0x305D DUP2 PUSH2 0x304F DUP7 DUP6 PUSH1 0x0 ADD SLOAD PUSH2 0x3F51 SWAP1 SWAP2 SWAP1 PUSH4 0xFFFFFFFF AND JUMP JUMPDEST PUSH2 0x39C4 SWAP1 SWAP2 SWAP1 PUSH4 0xFFFFFFFF AND JUMP JUMPDEST DUP3 PUSH1 0x0 ADD DUP2 SWAP1 SSTORE POP PUSH2 0x30D6 PUSH1 0x5 PUSH1 0x0 SWAP1 SLOAD SWAP1 PUSH2 0x100 EXP SWAP1 DIV PUSH20 0xFFFFFFFFFFFFFFFFFFFFFFFFFFFFFFFFFFFFFFFF AND DUP3 DUP6 PUSH1 0x0 ADD PUSH1 0x0 SWAP1 SLOAD SWAP1 PUSH2 0x100 EXP SWAP1 DIV PUSH20 0xFFFFFFFFFFFFFFFFFFFFFFFFFFFFFFFFFFFFFFFF AND PUSH20 0xFFFFFFFFFFFFFFFFFFFFFFFFFFFFFFFFFFFFFFFF AND PUSH2 0x3EAF SWAP1 SWAP3 SWAP2 SWAP1 PUSH4 0xFFFFFFFF AND JUMP JUMPDEST POP PUSH2 0x30FC JUMP JUMPDEST PUSH2 0x30F3 DUP4 DUP3 PUSH1 0x0 ADD SLOAD PUSH2 0x3F51 SWAP1 SWAP2 SWAP1 PUSH4 0xFFFFFFFF AND JUMP JUMPDEST DUP2 PUSH1 0x0 ADD DUP2 SWAP1 SSTORE POP JUMPDEST JUMPDEST DUP1 PUSH1 0x2 ADD PUSH1 0x0 SWAP1 SLOAD SWAP1 PUSH2 0x100 EXP SWAP1 DIV PUSH1 0xFF AND PUSH2 0x316B JUMPI PUSH2 0x3145 PUSH5 0xE8D4A51000 PUSH2 0x3137 DUP5 PUSH1 0x4 ADD SLOAD DUP5 PUSH1 0x0 ADD SLOAD PUSH2 0x38F4 SWAP1 SWAP2 SWAP1 PUSH4 0xFFFFFFFF AND JUMP JUMPDEST PUSH2 0x397A SWAP1 SWAP2 SWAP1 PUSH4 0xFFFFFFFF AND JUMP JUMPDEST DUP2 PUSH1 0x1 ADD DUP2 SWAP1 SSTORE POP PUSH1 0x1 DUP2 PUSH1 0x2 ADD PUSH1 0x0 PUSH2 0x100 EXP DUP2 SLOAD DUP2 PUSH1 0xFF MUL NOT AND SWAP1 DUP4 ISZERO ISZERO MUL OR SWAP1 SSTORE POP JUMPDEST DUP4 CALLER PUSH20 0xFFFFFFFFFFFFFFFFFFFFFFFFFFFFFFFFFFFFFFFF AND PUSH32 0x90890809C654F11D6E72A28FA60149770A0D11EC6C92319D6CEB2BB0A4EA1A15 DUP6 PUSH1 0x40 MLOAD DUP1 DUP3 DUP2 MSTORE PUSH1 0x20 ADD SWAP2 POP POP PUSH1 0x40 MLOAD DUP1 SWAP2 SUB SWAP1 LOG3 POP POP PUSH1 0x1 DUP1 DUP2 SWAP1 SSTORE POP POP POP JUMP JUMPDEST PUSH1 0x12 PUSH1 0x0 SWAP1 SLOAD SWAP1 PUSH2 0x100 EXP SWAP1 DIV PUSH1 0xFF AND PUSH2 0x322C JUMPI PUSH1 0x40 MLOAD PUSH32 0x8C379A000000000000000000000000000000000000000000000000000000000 DUP2 MSTORE PUSH1 0x4 ADD DUP1 DUP1 PUSH1 0x20 ADD DUP3 DUP2 SUB DUP3 MSTORE PUSH1 0x40 DUP2 MSTORE PUSH1 0x20 ADD DUP1 PUSH2 0x4BA5 PUSH1 0x40 SWAP2 CODECOPY PUSH1 0x40 ADD SWAP2 POP POP PUSH1 0x40 MLOAD DUP1 SWAP2 SUB SWAP1 REVERT JUMPDEST PUSH1 0x6 SLOAD NUMBER GT PUSH2 0x3286 JUMPI PUSH1 0x40 MLOAD PUSH32 0x8C379A000000000000000000000000000000000000000000000000000000000 DUP2 MSTORE PUSH1 0x4 ADD DUP1 DUP1 PUSH1 0x20 ADD DUP3 DUP2 SUB DUP3 MSTORE PUSH1 0x52 DUP2 MSTORE PUSH1 0x20 ADD DUP1 PUSH2 0x4AE0 PUSH1 0x52 SWAP2 CODECOPY PUSH1 0x60 ADD SWAP2 POP POP PUSH1 0x40 MLOAD DUP1 SWAP2 SUB SWAP1 REVERT JUMPDEST PUSH8 0x16345785D8A0000 PUSH1 0x4 SLOAD GT PUSH2 0x32E8 JUMPI PUSH1 0x40 MLOAD PUSH32 0x8C379A000000000000000000000000000000000000000000000000000000000 DUP2 MSTORE PUSH1 0x4 ADD DUP1 DUP1 PUSH1 0x20 ADD DUP3 DUP2 SUB DUP3 MSTORE PUSH1 0x52 DUP2 MSTORE PUSH1 0x20 ADD DUP1 PUSH2 0x4B53 PUSH1 0x52 SWAP2 CODECOPY PUSH1 0x60 ADD SWAP2 POP POP PUSH1 0x40 MLOAD DUP1 SWAP2 SUB SWAP1 REVERT JUMPDEST PUSH1 0x0 PUSH2 0x3313 PUSH2 0x7080 PUSH2 0x3305 PUSH1 0x6 SLOAD NUMBER PUSH2 0x39C4 SWAP1 SWAP2 SWAP1 PUSH4 0xFFFFFFFF AND JUMP JUMPDEST PUSH2 0x397A SWAP1 SWAP2 SWAP1 PUSH4 0xFFFFFFFF AND JUMP JUMPDEST SWAP1 POP PUSH1 0x11 SLOAD DUP2 GT PUSH2 0x3324 JUMPI POP PUSH2 0x341E JUMP JUMPDEST PUSH1 0x0 PUSH1 0x4 SLOAD SWAP1 POP PUSH1 0x0 PUSH1 0x11 SLOAD SWAP1 POP JUMPDEST DUP3 DUP2 LT ISZERO PUSH2 0x3375 JUMPI PUSH2 0x3368 PUSH2 0x2710 PUSH2 0x335A PUSH2 0x5DC PUSH2 0x2710 SUB DUP6 PUSH2 0x38F4 SWAP1 SWAP2 SWAP1 PUSH4 0xFFFFFFFF AND JUMP JUMPDEST PUSH2 0x397A SWAP1 SWAP2 SWAP1 PUSH4 0xFFFFFFFF AND JUMP JUMPDEST SWAP2 POP DUP1 PUSH1 0x1 ADD SWAP1 POP PUSH2 0x3333 JUMP JUMPDEST POP PUSH8 0x16345785D8A0000 DUP2 LT PUSH2 0x338B JUMPI DUP1 PUSH2 0x3395 JUMP JUMPDEST PUSH8 0x16345785D8A0000 JUMPDEST SWAP1 POP PUSH1 0x4 SLOAD DUP2 LT PUSH2 0x33A7 JUMPI POP POP PUSH2 0x341E JUMP JUMPDEST PUSH2 0x33AF PUSH2 0x18A7 JUMP JUMPDEST DUP2 PUSH1 0x11 DUP2 SWAP1 SSTORE POP PUSH1 0x0 PUSH1 0x4 SLOAD SWAP1 POP DUP2 PUSH1 0x4 DUP2 SWAP1 SSTORE POP CALLER PUSH20 0xFFFFFFFFFFFFFFFFFFFFFFFFFFFFFFFFFFFFFFFF AND PUSH32 0xEEDC6338C9C1AD8F3CD6C90DD09DBE98DBD57E610D3E59A17996D07ACB0D9511 DUP3 DUP5 PUSH1 0x40 MLOAD DUP1 DUP4 DUP2 MSTORE PUSH1 0x20 ADD DUP3 DUP2 MSTORE PUSH1 0x20 ADD SWAP3 POP POP POP PUSH1 0x40 MLOAD DUP1 SWAP2 SUB SWAP1 LOG2 POP POP POP JUMPDEST JUMP JUMPDEST PUSH2 0x3428 PUSH2 0x38EC JUMP JUMPDEST PUSH20 0xFFFFFFFFFFFFFFFFFFFFFFFFFFFFFFFFFFFFFFFF AND PUSH1 0x0 DUP1 SLOAD SWAP1 PUSH2 0x100 EXP SWAP1 DIV PUSH20 0xFFFFFFFFFFFFFFFFFFFFFFFFFFFFFFFFFFFFFFFF AND PUSH20 0xFFFFFFFFFFFFFFFFFFFFFFFFFFFFFFFFFFFFFFFF AND EQ PUSH2 0x34E8 JUMPI PUSH1 0x40 MLOAD PUSH32 0x8C379A000000000000000000000000000000000000000000000000000000000 DUP2 MSTORE PUSH1 0x4 ADD DUP1 DUP1 PUSH1 0x20 ADD DUP3 DUP2 SUB DUP3 MSTORE PUSH1 0x20 DUP2 MSTORE PUSH1 0x20 ADD DUP1 PUSH32 0x4F776E61626C653A2063616C6C6572206973206E6F7420746865206F776E6572 DUP2 MSTORE POP PUSH1 0x20 ADD SWAP2 POP POP PUSH1 0x40 MLOAD DUP1 SWAP2 SUB SWAP1 REVERT JUMPDEST PUSH2 0x34F1 DUP2 PUSH2 0x4301 JUMP JUMPDEST POP JUMP JUMPDEST PUSH2 0x34FC PUSH2 0x38EC JUMP JUMPDEST PUSH20 0xFFFFFFFFFFFFFFFFFFFFFFFFFFFFFFFFFFFFFFFF AND PUSH1 0x0 DUP1 SLOAD SWAP1 PUSH2 0x100 EXP SWAP1 DIV PUSH20 0xFFFFFFFFFFFFFFFFFFFFFFFFFFFFFFFFFFFFFFFF AND PUSH20 0xFFFFFFFFFFFFFFFFFFFFFFFFFFFFFFFFFFFFFFFF AND EQ PUSH2 0x35BC JUMPI PUSH1 0x40 MLOAD PUSH32 0x8C379A000000000000000000000000000000000000000000000000000000000 DUP2 MSTORE PUSH1 0x4 ADD DUP1 DUP1 PUSH1 0x20 ADD DUP3 DUP2 SUB DUP3 MSTORE PUSH1 0x20 DUP2 MSTORE PUSH1 0x20 ADD DUP1 PUSH32 0x4F776E61626C653A2063616C6C6572206973206E6F7420746865206F776E6572 DUP2 MSTORE POP PUSH1 0x20 ADD SWAP2 POP POP PUSH1 0x40 MLOAD DUP1 SWAP2 SUB SWAP1 REVERT JUMPDEST DUP4 PUSH1 0x0 ISZERO ISZERO PUSH1 0xF PUSH1 0x0 DUP4 PUSH20 0xFFFFFFFFFFFFFFFFFFFFFFFFFFFFFFFFFFFFFFFF AND PUSH20 0xFFFFFFFFFFFFFFFFFFFFFFFFFFFFFFFFFFFFFFFF AND DUP2 MSTORE PUSH1 0x20 ADD SWAP1 DUP2 MSTORE PUSH1 0x20 ADD PUSH1 0x0 KECCAK256 PUSH1 0x0 SWAP1 SLOAD SWAP1 PUSH2 0x100 EXP SWAP1 DIV PUSH1 0xFF AND ISZERO ISZERO EQ PUSH2 0x3683 JUMPI PUSH1 0x40 MLOAD PUSH32 0x8C379A000000000000000000000000000000000000000000000000000000000 DUP2 MSTORE PUSH1 0x4 ADD DUP1 DUP1 PUSH1 0x20 ADD DUP3 DUP2 SUB DUP3 MSTORE PUSH1 0x19 DUP2 MSTORE PUSH1 0x20 ADD DUP1 PUSH32 0x6E6F6E4475706C6963617465643A206475706C69636174656400000000000000 DUP2 MSTORE POP PUSH1 0x20 ADD SWAP2 POP POP PUSH1 0x40 MLOAD DUP1 SWAP2 SUB SWAP1 REVERT JUMPDEST PUSH2 0x3E8 PUSH2 0xFFFF AND DUP5 PUSH2 0xFFFF AND GT ISZERO PUSH2 0x36E6 JUMPI PUSH1 0x40 MLOAD PUSH32 0x8C379A000000000000000000000000000000000000000000000000000000000 DUP2 MSTORE PUSH1 0x4 ADD DUP1 DUP1 PUSH1 0x20 ADD DUP3 DUP2 SUB DUP3 MSTORE PUSH1 0x25 DUP2 MSTORE PUSH1 0x20 ADD DUP1 PUSH2 0x495A PUSH1 0x25 SWAP2 CODECOPY PUSH1 0x40 ADD SWAP2 POP POP PUSH1 0x40 MLOAD DUP1 SWAP2 SUB SWAP1 REVERT JUMPDEST DUP3 ISZERO PUSH2 0x36F5 JUMPI PUSH2 0x36F4 PUSH2 0x18A7 JUMP JUMPDEST JUMPDEST PUSH1 0x0 PUSH1 0x7 SLOAD SWAP1 POP PUSH1 0x0 DUP4 GT ISZERO PUSH2 0x370B JUMPI DUP3 NUMBER ADD SWAP1 POP JUMPDEST PUSH2 0x3720 DUP8 PUSH1 0xB SLOAD PUSH2 0x3F51 SWAP1 SWAP2 SWAP1 PUSH4 0xFFFFFFFF AND JUMP JUMPDEST PUSH1 0xB DUP2 SWAP1 SSTORE POP PUSH1 0x1 PUSH1 0xF PUSH1 0x0 DUP9 PUSH20 0xFFFFFFFFFFFFFFFFFFFFFFFFFFFFFFFFFFFFFFFF AND PUSH20 0xFFFFFFFFFFFFFFFFFFFFFFFFFFFFFFFFFFFFFFFF AND DUP2 MSTORE PUSH1 0x20 ADD SWAP1 DUP2 MSTORE PUSH1 0x20 ADD PUSH1 0x0 KECCAK256 PUSH1 0x0 PUSH2 0x100 EXP DUP2 SLOAD DUP2 PUSH1 0xFF MUL NOT AND SWAP1 DUP4 ISZERO ISZERO MUL OR SWAP1 SSTORE POP PUSH1 0x9 PUSH1 0x40 MLOAD DUP1 PUSH1 0xC0 ADD PUSH1 0x40 MSTORE DUP1 DUP9 PUSH20 0xFFFFFFFFFFFFFFFFFFFFFFFFFFFFFFFFFFFFFFFF AND DUP2 MSTORE PUSH1 0x20 ADD DUP10 DUP2 MSTORE PUSH1 0x20 ADD DUP4 DUP2 MSTORE PUSH1 0x20 ADD PUSH1 0x8 SLOAD NUMBER GT PUSH2 0x37C4 JUMPI PUSH1 0x8 SLOAD PUSH2 0x37C6 JUMP JUMPDEST NUMBER JUMPDEST DUP2 MSTORE PUSH1 0x20 ADD PUSH1 0x0 DUP2 MSTORE PUSH1 0x20 ADD DUP8 PUSH2 0xFFFF AND DUP2 MSTORE POP SWAP1 DUP1 PUSH1 0x1 DUP2 SLOAD ADD DUP1 DUP3 SSTORE DUP1 SWAP2 POP POP PUSH1 0x1 SWAP1 SUB SWAP1 PUSH1 0x0 MSTORE PUSH1 0x20 PUSH1 0x0 KECCAK256 SWAP1 PUSH1 0x6 MUL ADD PUSH1 0x0 SWAP1 SWAP2 SWAP1 SWAP2 SWAP1 SWAP2 POP PUSH1 0x0 DUP3 ADD MLOAD DUP2 PUSH1 0x0 ADD PUSH1 0x0 PUSH2 0x100 EXP DUP2 SLOAD DUP2 PUSH20 0xFFFFFFFFFFFFFFFFFFFFFFFFFFFFFFFFFFFFFFFF MUL NOT AND SWAP1 DUP4 PUSH20 0xFFFFFFFFFFFFFFFFFFFFFFFFFFFFFFFFFFFFFFFF AND MUL OR SWAP1 SSTORE POP PUSH1 0x20 DUP3 ADD MLOAD DUP2 PUSH1 0x1 ADD SSTORE PUSH1 0x40 DUP3 ADD MLOAD DUP2 PUSH1 0x2 ADD SSTORE PUSH1 0x60 DUP3 ADD MLOAD DUP2 PUSH1 0x3 ADD SSTORE PUSH1 0x80 DUP3 ADD MLOAD DUP2 PUSH1 0x4 ADD SSTORE PUSH1 0xA0 DUP3 ADD MLOAD DUP2 PUSH1 0x5 ADD PUSH1 0x0 PUSH2 0x100 EXP DUP2 SLOAD DUP2 PUSH2 0xFFFF MUL NOT AND SWAP1 DUP4 PUSH2 0xFFFF AND MUL OR SWAP1 SSTORE POP POP POP PUSH1 0x1 PUSH1 0x9 DUP1 SLOAD SWAP1 POP SUB PUSH1 0x10 PUSH1 0x0 DUP9 PUSH20 0xFFFFFFFFFFFFFFFFFFFFFFFFFFFFFFFFFFFFFFFF AND PUSH20 0xFFFFFFFFFFFFFFFFFFFFFFFFFFFFFFFFFFFFFFFF AND DUP2 MSTORE PUSH1 0x20 ADD SWAP1 DUP2 MSTORE PUSH1 0x20 ADD PUSH1 0x0 KECCAK256 DUP2 SWAP1 SSTORE POP POP POP POP POP POP POP POP JUMP JUMPDEST PUSH1 0x0 CALLER SWAP1 POP SWAP1 JUMP JUMPDEST PUSH1 0x0 DUP1 DUP4 EQ ISZERO PUSH2 0x3907 JUMPI PUSH1 0x0 SWAP1 POP PUSH2 0x3974 JUMP JUMPDEST PUSH1 0x0 DUP3 DUP5 MUL SWAP1 POP DUP3 DUP5 DUP3 DUP2 PUSH2 0x3918 JUMPI INVALID JUMPDEST DIV EQ PUSH2 0x396F JUMPI PUSH1 0x40 MLOAD PUSH32 0x8C379A000000000000000000000000000000000000000000000000000000000 DUP2 MSTORE PUSH1 0x4 ADD DUP1 DUP1 PUSH1 0x20 ADD DUP3 DUP2 SUB DUP3 MSTORE PUSH1 0x21 DUP2 MSTORE PUSH1 0x20 ADD DUP1 PUSH2 0x4A72 PUSH1 0x21 SWAP2 CODECOPY PUSH1 0x40 ADD SWAP2 POP POP PUSH1 0x40 MLOAD DUP1 SWAP2 SUB SWAP1 REVERT JUMPDEST DUP1 SWAP2 POP POP JUMPDEST SWAP3 SWAP2 POP POP JUMP JUMPDEST PUSH1 0x0 PUSH2 0x39BC DUP4 DUP4 PUSH1 0x40 MLOAD DUP1 PUSH1 0x40 ADD PUSH1 0x40 MSTORE DUP1 PUSH1 0x1A DUP2 MSTORE PUSH1 0x20 ADD PUSH32 0x536166654D6174683A206469766973696F6E206279207A65726F000000000000 DUP2 MSTORE POP PUSH2 0x4444 JUMP JUMPDEST SWAP1 POP SWAP3 SWAP2 POP POP JUMP JUMPDEST PUSH1 0x0 PUSH2 0x3A06 DUP4 DUP4 PUSH1 0x40 MLOAD DUP1 PUSH1 0x40 ADD PUSH1 0x40 MSTORE DUP1 PUSH1 0x1E DUP2 MSTORE PUSH1 0x20 ADD PUSH32 0x536166654D6174683A207375627472616374696F6E206F766572666C6F770000 DUP2 MSTORE POP PUSH2 0x450A JUMP JUMPDEST SWAP1 POP SWAP3 SWAP2 POP POP JUMP JUMPDEST PUSH1 0x0 PUSH1 0x2 PUSH1 0x0 SWAP1 SLOAD SWAP1 PUSH2 0x100 EXP SWAP1 DIV PUSH20 0xFFFFFFFFFFFFFFFFFFFFFFFFFFFFFFFFFFFFFFFF AND PUSH20 0xFFFFFFFFFFFFFFFFFFFFFFFFFFFFFFFFFFFFFFFF AND PUSH4 0x70A08231 ADDRESS PUSH1 0x40 MLOAD DUP3 PUSH4 0xFFFFFFFF AND PUSH1 0xE0 SHL DUP2 MSTORE PUSH1 0x4 ADD DUP1 DUP3 PUSH20 0xFFFFFFFFFFFFFFFFFFFFFFFFFFFFFFFFFFFFFFFF AND DUP2 MSTORE PUSH1 0x20 ADD SWAP2 POP POP PUSH1 0x20 PUSH1 0x40 MLOAD DUP1 DUP4 SUB DUP2 DUP7 DUP1 EXTCODESIZE ISZERO DUP1 ISZERO PUSH2 0x3A99 JUMPI PUSH1 0x0 DUP1 REVERT JUMPDEST POP GAS STATICCALL ISZERO DUP1 ISZERO PUSH2 0x3AAD JUMPI RETURNDATASIZE PUSH1 0x0 DUP1 RETURNDATACOPY RETURNDATASIZE PUSH1 0x0 REVERT JUMPDEST POP POP POP POP PUSH1 0x40 MLOAD RETURNDATASIZE PUSH1 0x20 DUP2 LT ISZERO PUSH2 0x3AC3 JUMPI PUSH1 0x0 DUP1 REVERT JUMPDEST DUP2 ADD SWAP1 DUP1 DUP1 MLOAD SWAP1 PUSH1 0x20 ADD SWAP1 SWAP3 SWAP2 SWAP1 POP POP POP SWAP1 POP PUSH1 0x0 DUP2 DUP4 GT ISZERO PUSH2 0x3BB5 JUMPI PUSH1 0x2 PUSH1 0x0 SWAP1 SLOAD SWAP1 PUSH2 0x100 EXP SWAP1 DIV PUSH20 0xFFFFFFFFFFFFFFFFFFFFFFFFFFFFFFFFFFFFFFFF AND PUSH20 0xFFFFFFFFFFFFFFFFFFFFFFFFFFFFFFFFFFFFFFFF AND PUSH4 0xA9059CBB DUP6 DUP5 PUSH1 0x40 MLOAD DUP4 PUSH4 0xFFFFFFFF AND PUSH1 0xE0 SHL DUP2 MSTORE PUSH1 0x4 ADD DUP1 DUP4 PUSH20 0xFFFFFFFFFFFFFFFFFFFFFFFFFFFFFFFFFFFFFFFF AND DUP2 MSTORE PUSH1 0x20 ADD DUP3 DUP2 MSTORE PUSH1 0x20 ADD SWAP3 POP POP POP PUSH1 0x20 PUSH1 0x40 MLOAD DUP1 DUP4 SUB DUP2 PUSH1 0x0 DUP8 DUP1 EXTCODESIZE ISZERO DUP1 ISZERO PUSH2 0x3B73 JUMPI PUSH1 0x0 DUP1 REVERT JUMPDEST POP GAS CALL ISZERO DUP1 ISZERO PUSH2 0x3B87 JUMPI RETURNDATASIZE PUSH1 0x0 DUP1 RETURNDATACOPY RETURNDATASIZE PUSH1 0x0 REVERT JUMPDEST POP POP POP POP PUSH1 0x40 MLOAD RETURNDATASIZE PUSH1 0x20 DUP2 LT ISZERO PUSH2 0x3B9D JUMPI PUSH1 0x0 DUP1 REVERT JUMPDEST DUP2 ADD SWAP1 DUP1 DUP1 MLOAD SWAP1 PUSH1 0x20 ADD SWAP1 SWAP3 SWAP2 SWAP1 POP POP POP SWAP1 POP PUSH2 0x3C86 JUMP JUMPDEST PUSH1 0x2 PUSH1 0x0 SWAP1 SLOAD SWAP1 PUSH2 0x100 EXP SWAP1 DIV PUSH20 0xFFFFFFFFFFFFFFFFFFFFFFFFFFFFFFFFFFFFFFFF AND PUSH20 0xFFFFFFFFFFFFFFFFFFFFFFFFFFFFFFFFFFFFFFFF AND PUSH4 0xA9059CBB DUP6 DUP6 PUSH1 0x40 MLOAD DUP4 PUSH4 0xFFFFFFFF AND PUSH1 0xE0 SHL DUP2 MSTORE PUSH1 0x4 ADD DUP1 DUP4 PUSH20 0xFFFFFFFFFFFFFFFFFFFFFFFFFFFFFFFFFFFFFFFF AND DUP2 MSTORE PUSH1 0x20 ADD DUP3 DUP2 MSTORE PUSH1 0x20 ADD SWAP3 POP POP POP PUSH1 0x20 PUSH1 0x40 MLOAD DUP1 DUP4 SUB DUP2 PUSH1 0x0 DUP8 DUP1 EXTCODESIZE ISZERO DUP1 ISZERO PUSH2 0x3C48 JUMPI PUSH1 0x0 DUP1 REVERT JUMPDEST POP GAS CALL ISZERO DUP1 ISZERO PUSH2 0x3C5C JUMPI RETURNDATASIZE PUSH1 0x0 DUP1 RETURNDATACOPY RETURNDATASIZE PUSH1 0x0 REVERT JUMPDEST POP POP POP POP PUSH1 0x40 MLOAD RETURNDATASIZE PUSH1 0x20 DUP2 LT ISZERO PUSH2 0x3C72 JUMPI PUSH1 0x0 DUP1 REVERT JUMPDEST DUP2 ADD SWAP1 DUP1 DUP1 MLOAD SWAP1 PUSH1 0x20 ADD SWAP1 SWAP3 SWAP2 SWAP1 POP POP POP SWAP1 POP JUMPDEST DUP1 PUSH2 0x3CDC JUMPI PUSH1 0x40 MLOAD PUSH32 0x8C379A000000000000000000000000000000000000000000000000000000000 DUP2 MSTORE PUSH1 0x4 ADD DUP1 DUP1 PUSH1 0x20 ADD DUP3 DUP2 SUB DUP3 MSTORE PUSH1 0x22 DUP2 MSTORE PUSH1 0x20 ADD DUP1 PUSH2 0x4A09 PUSH1 0x22 SWAP2 CODECOPY PUSH1 0x40 ADD SWAP2 POP POP PUSH1 0x40 MLOAD DUP1 SWAP2 SUB SWAP1 REVERT JUMPDEST POP POP POP POP JUMP JUMPDEST PUSH1 0x0 PUSH2 0x3CED DUP4 PUSH2 0xF53 JUMP JUMPDEST SWAP1 POP PUSH1 0x0 PUSH20 0xFFFFFFFFFFFFFFFFFFFFFFFFFFFFFFFFFFFFFFFF AND DUP2 PUSH20 0xFFFFFFFFFFFFFFFFFFFFFFFFFFFFFFFFFFFFFFFF AND EQ ISZERO DUP1 ISZERO PUSH2 0x3D58 JUMPI POP DUP3 PUSH20 0xFFFFFFFFFFFFFFFFFFFFFFFFFFFFFFFFFFFFFFFF AND DUP2 PUSH20 0xFFFFFFFFFFFFFFFFFFFFFFFFFFFFFFFFFFFFFFFF AND EQ ISZERO JUMPDEST DUP1 ISZERO PUSH2 0x3D66 JUMPI POP PUSH1 0x0 PUSH1 0xC SLOAD GT JUMPDEST ISZERO PUSH2 0x3EAA JUMPI PUSH1 0x0 PUSH2 0x3D96 PUSH2 0x2710 PUSH2 0x3D88 PUSH1 0xC SLOAD DUP7 PUSH2 0x38F4 SWAP1 SWAP2 SWAP1 PUSH4 0xFFFFFFFF AND JUMP JUMPDEST PUSH2 0x397A SWAP1 SWAP2 SWAP1 PUSH4 0xFFFFFFFF AND JUMP JUMPDEST SWAP1 POP PUSH1 0x2 PUSH1 0x0 SWAP1 SLOAD SWAP1 PUSH2 0x100 EXP SWAP1 DIV PUSH20 0xFFFFFFFFFFFFFFFFFFFFFFFFFFFFFFFFFFFFFFFF AND PUSH20 0xFFFFFFFFFFFFFFFFFFFFFFFFFFFFFFFFFFFFFFFF AND PUSH4 0x40C10F19 DUP4 DUP4 PUSH1 0x40 MLOAD DUP4 PUSH4 0xFFFFFFFF AND PUSH1 0xE0 SHL DUP2 MSTORE PUSH1 0x4 ADD DUP1 DUP4 PUSH20 0xFFFFFFFFFFFFFFFFFFFFFFFFFFFFFFFFFFFFFFFF AND DUP2 MSTORE PUSH1 0x20 ADD DUP3 DUP2 MSTORE PUSH1 0x20 ADD SWAP3 POP POP POP PUSH1 0x0 PUSH1 0x40 MLOAD DUP1 DUP4 SUB DUP2 PUSH1 0x0 DUP8 DUP1 EXTCODESIZE ISZERO DUP1 ISZERO PUSH2 0x3E2B JUMPI PUSH1 0x0 DUP1 REVERT JUMPDEST POP GAS CALL ISZERO DUP1 ISZERO PUSH2 0x3E3F JUMPI RETURNDATASIZE PUSH1 0x0 DUP1 RETURNDATACOPY RETURNDATASIZE PUSH1 0x0 REVERT JUMPDEST POP POP POP POP DUP2 PUSH20 0xFFFFFFFFFFFFFFFFFFFFFFFFFFFFFFFFFFFFFFFF AND DUP5 PUSH20 0xFFFFFFFFFFFFFFFFFFFFFFFFFFFFFFFFFFFFFFFF AND PUSH32 0xA721AB4682CEB61C7E4D264EF879FC419A6D764B136E7D96EF54B2053C75673 DUP4 PUSH1 0x40 MLOAD DUP1 DUP3 DUP2 MSTORE PUSH1 0x20 ADD SWAP2 POP POP PUSH1 0x40 MLOAD DUP1 SWAP2 SUB SWAP1 LOG3 POP JUMPDEST POP POP POP JUMP JUMPDEST PUSH2 0x3F4C DUP4 PUSH4 0xA9059CBB PUSH1 0xE0 SHL DUP5 DUP5 PUSH1 0x40 MLOAD PUSH1 0x24 ADD DUP1 DUP4 PUSH20 0xFFFFFFFFFFFFFFFFFFFFFFFFFFFFFFFFFFFFFFFF AND DUP2 MSTORE PUSH1 0x20 ADD DUP3 DUP2 MSTORE PUSH1 0x20 ADD SWAP3 POP POP POP PUSH1 0x40 MLOAD PUSH1 0x20 DUP2 DUP4 SUB SUB DUP2 MSTORE SWAP1 PUSH1 0x40 MSTORE SWAP1 PUSH28 0xFFFFFFFFFFFFFFFFFFFFFFFFFFFFFFFFFFFFFFFFFFFFFFFFFFFFFFFF NOT AND PUSH1 0x20 DUP3 ADD DUP1 MLOAD PUSH28 0xFFFFFFFFFFFFFFFFFFFFFFFFFFFFFFFFFFFFFFFFFFFFFFFFFFFFFFFF DUP4 DUP2 DUP4 AND OR DUP4 MSTORE POP POP POP POP PUSH2 0x45CA JUMP JUMPDEST POP POP POP JUMP JUMPDEST PUSH1 0x0 DUP1 DUP3 DUP5 ADD SWAP1 POP DUP4 DUP2 LT ISZERO PUSH2 0x3FCF JUMPI PUSH1 0x40 MLOAD PUSH32 0x8C379A000000000000000000000000000000000000000000000000000000000 DUP2 MSTORE PUSH1 0x4 ADD DUP1 DUP1 PUSH1 0x20 ADD DUP3 DUP2 SUB DUP3 MSTORE PUSH1 0x1B DUP2 MSTORE PUSH1 0x20 ADD DUP1 PUSH32 0x536166654D6174683A206164646974696F6E206F766572666C6F770000000000 DUP2 MSTORE POP PUSH1 0x20 ADD SWAP2 POP POP PUSH1 0x40 MLOAD DUP1 SWAP2 SUB SWAP1 REVERT JUMPDEST DUP1 SWAP2 POP POP SWAP3 SWAP2 POP POP JUMP JUMPDEST DUP1 PUSH20 0xFFFFFFFFFFFFFFFFFFFFFFFFFFFFFFFFFFFFFFFF AND DUP2 PUSH20 0xFFFFFFFFFFFFFFFFFFFFFFFFFFFFFFFFFFFFFFFF AND EQ DUP1 ISZERO PUSH2 0x409F JUMPI POP PUSH1 0x0 PUSH20 0xFFFFFFFFFFFFFFFFFFFFFFFFFFFFFFFFFFFFFFFF AND PUSH1 0xD PUSH1 0x0 DUP5 PUSH20 0xFFFFFFFFFFFFFFFFFFFFFFFFFFFFFFFFFFFFFFFF AND PUSH20 0xFFFFFFFFFFFFFFFFFFFFFFFFFFFFFFFFFFFFFFFF AND DUP2 MSTORE PUSH1 0x20 ADD SWAP1 DUP2 MSTORE PUSH1 0x20 ADD PUSH1 0x0 KECCAK256 PUSH1 0x0 SWAP1 SLOAD SWAP1 PUSH2 0x100 EXP SWAP1 DIV PUSH20 0xFFFFFFFFFFFFFFFFFFFFFFFFFFFFFFFFFFFFFFFF AND PUSH20 0xFFFFFFFFFFFFFFFFFFFFFFFFFFFFFFFFFFFFFFFF AND EQ JUMPDEST DUP1 ISZERO PUSH2 0x40D8 JUMPI POP PUSH1 0x0 PUSH20 0xFFFFFFFFFFFFFFFFFFFFFFFFFFFFFFFFFFFFFFFF AND DUP2 PUSH20 0xFFFFFFFFFFFFFFFFFFFFFFFFFFFFFFFFFFFFFFFF AND EQ ISZERO JUMPDEST DUP1 ISZERO PUSH2 0x4110 JUMPI POP DUP2 PUSH20 0xFFFFFFFFFFFFFFFFFFFFFFFFFFFFFFFFFFFFFFFF AND DUP2 PUSH20 0xFFFFFFFFFFFFFFFFFFFFFFFFFFFFFFFFFFFFFFFF AND EQ ISZERO JUMPDEST ISZERO PUSH2 0x423C JUMPI DUP1 PUSH1 0xD PUSH1 0x0 DUP5 PUSH20 0xFFFFFFFFFFFFFFFFFFFFFFFFFFFFFFFFFFFFFFFF AND PUSH20 0xFFFFFFFFFFFFFFFFFFFFFFFFFFFFFFFFFFFFFFFF AND DUP2 MSTORE PUSH1 0x20 ADD SWAP1 DUP2 MSTORE PUSH1 0x20 ADD PUSH1 0x0 KECCAK256 PUSH1 0x0 PUSH2 0x100 EXP DUP2 SLOAD DUP2 PUSH20 0xFFFFFFFFFFFFFFFFFFFFFFFFFFFFFFFFFFFFFFFF MUL NOT AND SWAP1 DUP4 PUSH20 0xFFFFFFFFFFFFFFFFFFFFFFFFFFFFFFFFFFFFFFFF AND MUL OR SWAP1 SSTORE POP PUSH1 0x1 PUSH1 0xE PUSH1 0x0 DUP4 PUSH20 0xFFFFFFFFFFFFFFFFFFFFFFFFFFFFFFFFFFFFFFFF AND PUSH20 0xFFFFFFFFFFFFFFFFFFFFFFFFFFFFFFFFFFFFFFFF AND DUP2 MSTORE PUSH1 0x20 ADD SWAP1 DUP2 MSTORE PUSH1 0x20 ADD PUSH1 0x0 KECCAK256 PUSH1 0x0 DUP3 DUP3 SLOAD ADD SWAP3 POP POP DUP2 SWAP1 SSTORE POP DUP1 PUSH20 0xFFFFFFFFFFFFFFFFFFFFFFFFFFFFFFFFFFFFFFFF AND DUP3 PUSH20 0xFFFFFFFFFFFFFFFFFFFFFFFFFFFFFFFFFFFFFFFF AND PUSH32 0x9D05414FB79FAC216C15606DE5CC06664E91A254E4D5F57664D5F1BEAF7FB7EF PUSH1 0x40 MLOAD PUSH1 0x40 MLOAD DUP1 SWAP2 SUB SWAP1 LOG3 JUMPDEST POP POP JUMP JUMPDEST PUSH2 0x42FB DUP5 PUSH4 0x23B872DD PUSH1 0xE0 SHL DUP6 DUP6 DUP6 PUSH1 0x40 MLOAD PUSH1 0x24 ADD DUP1 DUP5 PUSH20 0xFFFFFFFFFFFFFFFFFFFFFFFFFFFFFFFFFFFFFFFF AND DUP2 MSTORE PUSH1 0x20 ADD DUP4 PUSH20 0xFFFFFFFFFFFFFFFFFFFFFFFFFFFFFFFFFFFFFFFF AND DUP2 MSTORE PUSH1 0x20 ADD DUP3 DUP2 MSTORE PUSH1 0x20 ADD SWAP4 POP POP POP POP PUSH1 0x40 MLOAD PUSH1 0x20 DUP2 DUP4 SUB SUB DUP2 MSTORE SWAP1 PUSH1 0x40 MSTORE SWAP1 PUSH28 0xFFFFFFFFFFFFFFFFFFFFFFFFFFFFFFFFFFFFFFFFFFFFFFFFFFFFFFFF NOT AND PUSH1 0x20 DUP3 ADD DUP1 MLOAD PUSH28 0xFFFFFFFFFFFFFFFFFFFFFFFFFFFFFFFFFFFFFFFFFFFFFFFFFFFFFFFF DUP4 DUP2 DUP4 AND OR DUP4 MSTORE POP POP POP POP PUSH2 0x45CA JUMP JUMPDEST POP POP POP POP JUMP JUMPDEST PUSH1 0x0 PUSH20 0xFFFFFFFFFFFFFFFFFFFFFFFFFFFFFFFFFFFFFFFF AND DUP2 PUSH20 0xFFFFFFFFFFFFFFFFFFFFFFFFFFFFFFFFFFFFFFFF AND EQ ISZERO PUSH2 0x4387 JUMPI PUSH1 0x40 MLOAD PUSH32 0x8C379A000000000000000000000000000000000000000000000000000000000 DUP2 MSTORE PUSH1 0x4 ADD DUP1 DUP1 PUSH1 0x20 ADD DUP3 DUP2 SUB DUP3 MSTORE PUSH1 0x26 DUP2 MSTORE PUSH1 0x20 ADD DUP1 PUSH2 0x49E3 PUSH1 0x26 SWAP2 CODECOPY PUSH1 0x40 ADD SWAP2 POP POP PUSH1 0x40 MLOAD DUP1 SWAP2 SUB SWAP1 REVERT JUMPDEST DUP1 PUSH20 0xFFFFFFFFFFFFFFFFFFFFFFFFFFFFFFFFFFFFFFFF AND PUSH1 0x0 DUP1 SLOAD SWAP1 PUSH2 0x100 EXP SWAP1 DIV PUSH20 0xFFFFFFFFFFFFFFFFFFFFFFFFFFFFFFFFFFFFFFFF AND PUSH20 0xFFFFFFFFFFFFFFFFFFFFFFFFFFFFFFFFFFFFFFFF AND PUSH32 0x8BE0079C531659141344CD1FD0A4F28419497F9722A3DAAFE3B4186F6B6457E0 PUSH1 0x40 MLOAD PUSH1 0x40 MLOAD DUP1 SWAP2 SUB SWAP1 LOG3 DUP1 PUSH1 0x0 DUP1 PUSH2 0x100 EXP DUP2 SLOAD DUP2 PUSH20 0xFFFFFFFFFFFFFFFFFFFFFFFFFFFFFFFFFFFFFFFF MUL NOT AND SWAP1 DUP4 PUSH20 0xFFFFFFFFFFFFFFFFFFFFFFFFFFFFFFFFFFFFFFFF AND MUL OR SWAP1 SSTORE POP POP JUMP JUMPDEST PUSH1 0x0 DUP1 DUP4 GT DUP3 SWAP1 PUSH2 0x44F0 JUMPI PUSH1 0x40 MLOAD PUSH32 0x8C379A000000000000000000000000000000000000000000000000000000000 DUP2 MSTORE PUSH1 0x4 ADD DUP1 DUP1 PUSH1 0x20 ADD DUP3 DUP2 SUB DUP3 MSTORE DUP4 DUP2 DUP2 MLOAD DUP2 MSTORE PUSH1 0x20 ADD SWAP2 POP DUP1 MLOAD SWAP1 PUSH1 0x20 ADD SWAP1 DUP1 DUP4 DUP4 PUSH1 0x0 JUMPDEST DUP4 DUP2 LT ISZERO PUSH2 0x44B5 JUMPI DUP1 DUP3 ADD MLOAD DUP2 DUP5 ADD MSTORE PUSH1 0x20 DUP2 ADD SWAP1 POP PUSH2 0x449A JUMP JUMPDEST POP POP POP POP SWAP1 POP SWAP1 DUP2 ADD SWAP1 PUSH1 0x1F AND DUP1 ISZERO PUSH2 0x44E2 JUMPI DUP1 DUP3 SUB DUP1 MLOAD PUSH1 0x1 DUP4 PUSH1 0x20 SUB PUSH2 0x100 EXP SUB NOT AND DUP2 MSTORE PUSH1 0x20 ADD SWAP2 POP JUMPDEST POP SWAP3 POP POP POP PUSH1 0x40 MLOAD DUP1 SWAP2 SUB SWAP1 REVERT JUMPDEST POP PUSH1 0x0 DUP4 DUP6 DUP2 PUSH2 0x44FC JUMPI INVALID JUMPDEST DIV SWAP1 POP DUP1 SWAP2 POP POP SWAP4 SWAP3 POP POP POP JUMP JUMPDEST PUSH1 0x0 DUP4 DUP4 GT ISZERO DUP3 SWAP1 PUSH2 0x45B7 JUMPI PUSH1 0x40 MLOAD PUSH32 0x8C379A000000000000000000000000000000000000000000000000000000000 DUP2 MSTORE PUSH1 0x4 ADD DUP1 DUP1 PUSH1 0x20 ADD DUP3 DUP2 SUB DUP3 MSTORE DUP4 DUP2 DUP2 MLOAD DUP2 MSTORE PUSH1 0x20 ADD SWAP2 POP DUP1 MLOAD SWAP1 PUSH1 0x20 ADD SWAP1 DUP1 DUP4 DUP4 PUSH1 0x0 JUMPDEST DUP4 DUP2 LT ISZERO PUSH2 0x457C JUMPI DUP1 DUP3 ADD MLOAD DUP2 DUP5 ADD MSTORE PUSH1 0x20 DUP2 ADD SWAP1 POP PUSH2 0x4561 JUMP JUMPDEST POP POP POP POP SWAP1 POP SWAP1 DUP2 ADD SWAP1 PUSH1 0x1F AND DUP1 ISZERO PUSH2 0x45A9 JUMPI DUP1 DUP3 SUB DUP1 MLOAD PUSH1 0x1 DUP4 PUSH1 0x20 SUB PUSH2 0x100 EXP SUB NOT AND DUP2 MSTORE PUSH1 0x20 ADD SWAP2 POP JUMPDEST POP SWAP3 POP POP POP PUSH1 0x40 MLOAD DUP1 SWAP2 SUB SWAP1 REVERT JUMPDEST POP PUSH1 0x0 DUP4 DUP6 SUB SWAP1 POP DUP1 SWAP2 POP POP SWAP4 SWAP3 POP POP POP JUMP JUMPDEST PUSH1 0x60 PUSH2 0x462C DUP3 PUSH1 0x40 MLOAD DUP1 PUSH1 0x40 ADD PUSH1 0x40 MSTORE DUP1 PUSH1 0x20 DUP2 MSTORE PUSH1 0x20 ADD PUSH32 0x5361666542455032303A206C6F772D6C6576656C2063616C6C206661696C6564 DUP2 MSTORE POP DUP6 PUSH20 0xFFFFFFFFFFFFFFFFFFFFFFFFFFFFFFFFFFFFFFFF AND PUSH2 0x46B9 SWAP1 SWAP3 SWAP2 SWAP1 PUSH4 0xFFFFFFFF AND JUMP JUMPDEST SWAP1 POP PUSH1 0x0 DUP2 MLOAD GT ISZERO PUSH2 0x46B4 JUMPI DUP1 DUP1 PUSH1 0x20 ADD SWAP1 MLOAD PUSH1 0x20 DUP2 LT ISZERO PUSH2 0x464D JUMPI PUSH1 0x0 DUP1 REVERT JUMPDEST DUP2 ADD SWAP1 DUP1 DUP1 MLOAD SWAP1 PUSH1 0x20 ADD SWAP1 SWAP3 SWAP2 SWAP1 POP POP POP PUSH2 0x46B3 JUMPI PUSH1 0x40 MLOAD PUSH32 0x8C379A000000000000000000000000000000000000000000000000000000000 DUP2 MSTORE PUSH1 0x4 ADD DUP1 DUP1 PUSH1 0x20 ADD DUP3 DUP2 SUB DUP3 MSTORE PUSH1 0x2A DUP2 MSTORE PUSH1 0x20 ADD DUP1 PUSH2 0x49B9 PUSH1 0x2A SWAP2 CODECOPY PUSH1 0x40 ADD SWAP2 POP POP PUSH1 0x40 MLOAD DUP1 SWAP2 SUB SWAP1 REVERT JUMPDEST JUMPDEST POP POP POP JUMP JUMPDEST PUSH1 0x60 PUSH2 0x46C8 DUP5 DUP5 PUSH1 0x0 DUP6 PUSH2 0x46D1 JUMP JUMPDEST SWAP1 POP SWAP4 SWAP3 POP POP POP JUMP JUMPDEST PUSH1 0x60 DUP3 SELFBALANCE LT ISZERO PUSH2 0x472C JUMPI PUSH1 0x40 MLOAD PUSH32 0x8C379A000000000000000000000000000000000000000000000000000000000 DUP2 MSTORE PUSH1 0x4 ADD DUP1 DUP1 PUSH1 0x20 ADD DUP3 DUP2 SUB DUP3 MSTORE PUSH1 0x26 DUP2 MSTORE PUSH1 0x20 ADD DUP1 PUSH2 0x4A4C PUSH1 0x26 SWAP2 CODECOPY PUSH1 0x40 ADD SWAP2 POP POP PUSH1 0x40 MLOAD DUP1 SWAP2 SUB SWAP1 REVERT JUMPDEST PUSH2 0x4735 DUP6 PUSH2 0x487A JUMP JUMPDEST PUSH2 0x47A7 JUMPI PUSH1 0x40 MLOAD PUSH32 0x8C379A000000000000000000000000000000000000000000000000000000000 DUP2 MSTORE PUSH1 0x4 ADD DUP1 DUP1 PUSH1 0x20 ADD DUP3 DUP2 SUB DUP3 MSTORE PUSH1 0x1D DUP2 MSTORE PUSH1 0x20 ADD DUP1 PUSH32 0x416464726573733A2063616C6C20746F206E6F6E2D636F6E7472616374000000 DUP2 MSTORE POP PUSH1 0x20 ADD SWAP2 POP POP PUSH1 0x40 MLOAD DUP1 SWAP2 SUB SWAP1 REVERT JUMPDEST PUSH1 0x0 PUSH1 0x60 DUP7 PUSH20 0xFFFFFFFFFFFFFFFFFFFFFFFFFFFFFFFFFFFFFFFF AND DUP6 DUP8 PUSH1 0x40 MLOAD DUP1 DUP3 DUP1 MLOAD SWAP1 PUSH1 0x20 ADD SWAP1 DUP1 DUP4 DUP4 JUMPDEST PUSH1 0x20 DUP4 LT PUSH2 0x47F7 JUMPI DUP1 MLOAD DUP3 MSTORE PUSH1 0x20 DUP3 ADD SWAP2 POP PUSH1 0x20 DUP2 ADD SWAP1 POP PUSH1 0x20 DUP4 SUB SWAP3 POP PUSH2 0x47D4 JUMP JUMPDEST PUSH1 0x1 DUP4 PUSH1 0x20 SUB PUSH2 0x100 EXP SUB DUP1 NOT DUP3 MLOAD AND DUP2 DUP5 MLOAD AND DUP1 DUP3 OR DUP6 MSTORE POP POP POP POP POP POP SWAP1 POP ADD SWAP2 POP POP PUSH1 0x0 PUSH1 0x40 MLOAD DUP1 DUP4 SUB DUP2 DUP6 DUP8 GAS CALL SWAP3 POP POP POP RETURNDATASIZE DUP1 PUSH1 0x0 DUP2 EQ PUSH2 0x4859 JUMPI PUSH1 0x40 MLOAD SWAP2 POP PUSH1 0x1F NOT PUSH1 0x3F RETURNDATASIZE ADD AND DUP3 ADD PUSH1 0x40 MSTORE RETURNDATASIZE DUP3 MSTORE RETURNDATASIZE PUSH1 0x0 PUSH1 0x20 DUP5 ADD RETURNDATACOPY PUSH2 0x485E JUMP JUMPDEST PUSH1 0x60 SWAP2 POP JUMPDEST POP SWAP2 POP SWAP2 POP PUSH2 0x486E DUP3 DUP3 DUP7 PUSH2 0x488D JUMP JUMPDEST SWAP3 POP POP POP SWAP5 SWAP4 POP POP POP POP JUMP JUMPDEST PUSH1 0x0 DUP1 DUP3 EXTCODESIZE SWAP1 POP PUSH1 0x0 DUP2 GT SWAP2 POP POP SWAP2 SWAP1 POP JUMP JUMPDEST PUSH1 0x60 DUP4 ISZERO PUSH2 0x489D JUMPI DUP3 SWAP1 POP PUSH2 0x4952 JUMP JUMPDEST PUSH1 0x0 DUP4 MLOAD GT ISZERO PUSH2 0x48B0 JUMPI DUP3 MLOAD DUP1 DUP5 PUSH1 0x20 ADD REVERT JUMPDEST DUP2 PUSH1 0x40 MLOAD PUSH32 0x8C379A000000000000000000000000000000000000000000000000000000000 DUP2 MSTORE PUSH1 0x4 ADD DUP1 DUP1 PUSH1 0x20 ADD DUP3 DUP2 SUB DUP3 MSTORE DUP4 DUP2 DUP2 MLOAD DUP2 MSTORE PUSH1 0x20 ADD SWAP2 POP DUP1 MLOAD SWAP1 PUSH1 0x20 ADD SWAP1 DUP1 DUP4 DUP4 PUSH1 0x0 JUMPDEST DUP4 DUP2 LT ISZERO PUSH2 0x4917 JUMPI DUP1 DUP3 ADD MLOAD DUP2 DUP5 ADD MSTORE PUSH1 0x20 DUP2 ADD SWAP1 POP PUSH2 0x48FC JUMP JUMPDEST POP POP POP POP SWAP1 POP SWAP1 DUP2 ADD SWAP1 PUSH1 0x1F AND DUP1 ISZERO PUSH2 0x4944 JUMPI DUP1 DUP3 SUB DUP1 MLOAD PUSH1 0x1 DUP4 PUSH1 0x20 SUB PUSH2 0x100 EXP SUB NOT AND DUP2 MSTORE PUSH1 0x20 ADD SWAP2 POP JUMPDEST POP SWAP3 POP POP POP PUSH1 0x40 MLOAD DUP1 SWAP2 SUB SWAP1 REVERT JUMPDEST SWAP4 SWAP3 POP POP POP JUMP INVALID PUSH2 0x6464 GASPRICE KECCAK256 PUSH10 0x6E76616C696420646570 PUSH16 0x7369742066656520626173697320706F PUSH10 0x6E747375706461746552 PUSH6 0x66426F6E7573 POP PUSH6 0x7263656E743A KECCAK256 PUSH10 0x6E76616C696420726566 PUSH6 0x7272616C2062 PUSH16 0x6E757320626173697320706F696E7473 MSTORE8 PUSH2 0x6665 TIMESTAMP GASLIMIT POP ORIGIN ADDRESS GASPRICE KECCAK256 TIMESTAMP GASLIMIT POP ORIGIN ADDRESS KECCAK256 PUSH16 0x7065726174696F6E20646964206E6F74 KECCAK256 PUSH20 0x7563636565644F776E61626C653A206E6577206F PUSH24 0x6E657220697320746865207A65726F206164647265737373 PUSH2 0x6665 POP PUSH13 0x756D5472616E736665723A2074 PUSH19 0x616E73666572206661696C65642E6465706F73 PUSH10 0x743A20496E76616C6964 KECCAK256 PUSH19 0x65666572726572206164647265737341646472 PUSH6 0x73733A20696E PUSH20 0x756666696369656E742062616C616E636520666F PUSH19 0x2063616C6C536166654D6174683A206D756C74 PUSH10 0x706C69636174696F6E20 PUSH16 0x766572666C6F777365743A20696E7661 PUSH13 0x6964206465706F736974206665 PUSH6 0x206261736973 KECCAK256 PUSH17 0x6F696E7473757064617465526566426F6E PUSH22 0x7350657263656E743A2073616D6520626F6E75732062 PUSH17 0x20736574726564756365456D697373696F PUSH15 0x526174655769746844656661756C74 MSTORE PUSH2 0x7465 GASPRICE KECCAK256 NUMBER PUSH2 0x6E20 PUSH16 0x6E6C792062652063616C6C6564206166 PUSH21 0x65722073706563696669656420626C6F636B207374 PUSH2 0x7274 PUSH20 0x676574506F6F6C4964466F724C70546F6B656E3A KECCAK256 PUSH5 0x6F206E6F74 KECCAK256 PUSH6 0x786973747265 PUSH5 0x756365456D PUSH10 0x7373696F6E5261746557 PUSH10 0x746844656661756C7452 PUSH2 0x7465 GASPRICE KECCAK256 GASLIMIT PUSH14 0x697373696F6E2072617465206861 PUSH20 0x207265616368656420746865206D696E696D756D KECCAK256 PUSH21 0x68726573686F6C64726564756365456D697373696F PUSH15 0x526174655769746844656661756C74 MSTORE PUSH2 0x7465 GASPRICE KECCAK256 POP PUSH6 0x726D69737369 PUSH16 0x6E20666C6167206E6F74207475726E65 PUSH5 0x206F6EA264 PUSH10 0x706673582212205086E7 PUSH1 0x68 AND 0x2E DUP14 PC ISZERO 0xD1 LOG3 BLOCKHASH PUSH3 0xEF193D EXTCODEHASH PUSH5 0x43DE3F74EC 0xC9 SSTORE EQ PUSH30 0xDEA1287E64736F6C634300060C0033000000000000000000000000000000 "},"gasEstimates":{"creation":{"codeDepositCost":"3896400","executionCost":"infinite","totalCost":"infinite"},"external":{"EMISSION_REDUCTION_PERIOD_BLOCKS()":"360","EMISSION_REDUCTION_RATE_PER_PERIOD()":"272","INITIAL_EMISSION_RATE()":"339","MAXIMUM_DEPOSIT_FEE_BP()":"256","MAXIMUM_REFERRAL_BP()":"257","MINIMUM_EMISSION_RATE()":"339","add(uint256,address,uint16,bool,uint256)":"infinite","blockToStartReducingEmissionRate()":"1117","canWithdrawReward(uint256)":"2069","deposit(uint256,uint256)":"infinite","deposit(uint256,uint256,address)":"infinite","devAddr()":"1091","emergencyWithdraw(uint256)":"infinite","feeAddress()":"1159","getMultiplier(uint256,uint256)":"infinite","getPoolIdForLpToken(address)":"infinite","getReferral(address)":"1306","globalBlockToUnlockClaimingRewards()":"1094","isAllowReduceEmissionRate()":"1203","lastReductionPeriodIndex()":"1116","massUpdatePools()":"infinite","owner()":"1123","pendingTEXO(uint256,address)":"infinite","poolExistence(address)":"1311","poolIdForLpAddress(address)":"1236","poolInfo(uint256)":"6318","poolLength()":"1068","reduceEmissionRateWithDefaultRate()":"infinite","refBonusBP()":"1094","referredCount(address)":"1259","referrers(address)":"1246","renounceOwnership()":"24424","set(uint256,uint256,uint16,bool,uint256)":"infinite","setBlockToStartReducingEmissionRate(uint256)":"21284","setDevAddress(address)":"23686","setEmissionRate(uint256)":"infinite","setFeeAddress(address)":"23599","setFlagAllowReduceEmissionRate(bool)":"22158","setGlobalBlockToUnlockClaimingRewards(uint256)":"21304","tEXO()":"1180","tEXOPerBlock()":"1072","totalAllocPoint()":"1096","transferOwnership(address)":"infinite","updatePool(uint256)":"infinite","updateReferralBonusBp(uint256)":"infinite","userInfo(uint256,address)":"3137","withdraw(uint256,uint256)":"infinite"},"internal":{"payReferralCommission(address,uint256)":"infinite","safeTEXOTransfer(address,uint256)":"infinite","setReferral(address,address)":"44546"}},"methodIdentifiers":{"EMISSION_REDUCTION_PERIOD_BLOCKS()":"d4adafdf","EMISSION_REDUCTION_RATE_PER_PERIOD()":"b7eee1f1","INITIAL_EMISSION_RATE()":"91bb809c","MAXIMUM_DEPOSIT_FEE_BP()":"955c9b93","MAXIMUM_REFERRAL_BP()":"3a22df78","MINIMUM_EMISSION_RATE()":"61e0c468","add(uint256,address,uint16,bool,uint256)":"fab96ae6","blockToStartReducingEmissionRate()":"54324b58","canWithdrawReward(uint256)":"b51d4c80","deposit(uint256,uint256)":"e2bbb158","deposit(uint256,uint256,address)":"8dbdbe6d","devAddr()":"da09c72c","emergencyWithdraw(uint256)":"5312ea8e","feeAddress()":"41275358","getMultiplier(uint256,uint256)":"8dbb1e3a","getPoolIdForLpToken(address)":"190f39f0","getReferral(address)":"3b0f0f2f","globalBlockToUnlockClaimingRewards()":"a1515333","isAllowReduceEmissionRate()":"47e3cda5","lastReductionPeriodIndex()":"6a9a7660","massUpdatePools()":"630b5ba1","owner()":"8da5cb5b","pendingTEXO(uint256,address)":"dfe3d2cd","poolExistence(address)":"cbd258b5","poolIdForLpAddress(address)":"9bf62f7e","poolInfo(uint256)":"1526fe27","poolLength()":"081e3eda","reduceEmissionRateWithDefaultRate()":"ea76bc29","refBonusBP()":"66f685ea","referredCount(address)":"3f7b06d8","referrers(address)":"4a3b68cc","renounceOwnership()":"715018a6","set(uint256,uint256,uint16,bool,uint256)":"c6df25bd","setBlockToStartReducingEmissionRate(uint256)":"1eb704b0","setDevAddress(address)":"d0d41fe1","setEmissionRate(uint256)":"a1bdb15e","setFeeAddress(address)":"8705fcd4","setFlagAllowReduceEmissionRate(bool)":"80361747","setGlobalBlockToUnlockClaimingRewards(uint256)":"b2a5aa2e","tEXO()":"ae715d70","tEXOPerBlock()":"660f8340","totalAllocPoint()":"17caf6f1","transferOwnership(address)":"f2fde38b","updatePool(uint256)":"51eb05a6","updateReferralBonusBp(uint256)":"64ed743b","userInfo(uint256,address)":"93f1a40b","withdraw(uint256,uint256)":"441a3e70"}},"storageLayout":{"storage":[{"astId":325,"contract":"TEXOToken.sol:TEXOOrchestrator","label":"_owner","offset":0,"slot":"0","type":"t_address"},{"astId":688,"contract":"TEXOToken.sol:TEXOOrchestrator","label":"_status","offset":0,"slot":"1","type":"t_uint256"},{"astId":1487,"contract":"TEXOToken.sol:TEXOOrchestrator","label":"tEXO","offset":0,"slot":"2","type":"t_contract(TEXOToken)1454"},{"astId":1489,"contract":"TEXOToken.sol:TEXOOrchestrator","label":"devAddr","offset":0,"slot":"3","type":"t_address"},{"astId":1491,"contract":"TEXOToken.sol:TEXOOrchestrator","label":"tEXOPerBlock","offset":0,"slot":"4","type":"t_uint256"},{"astId":1493,"contract":"TEXOToken.sol:TEXOOrchestrator","label":"feeAddress","offset":0,"slot":"5","type":"t_address"},{"astId":1495,"contract":"TEXOToken.sol:TEXOOrchestrator","label":"blockToStartReducingEmissionRate","offset":0,"slot":"6","type":"t_uint256"},{"astId":1497,"contract":"TEXOToken.sol:TEXOOrchestrator","label":"globalBlockToUnlockClaimingRewards","offset":0,"slot":"7","type":"t_uint256"},{"astId":1499,"contract":"TEXOToken.sol:TEXOOrchestrator","label":"startBlock","offset":0,"slot":"8","type":"t_uint256"},{"astId":1502,"contract":"TEXOToken.sol:TEXOOrchestrator","label":"poolInfo","offset":0,"slot":"9","type":"t_array(t_struct(PoolInfo)1485_storage)dyn_storage"},{"astId":1508,"contract":"TEXOToken.sol:TEXOOrchestrator","label":"userInfo","offset":0,"slot":"10","type":"t_mapping(t_uint256,t_mapping(t_address,t_struct(UserInfo)1472_storage))"},{"astId":1511,"contract":"TEXOToken.sol:TEXOOrchestrator","label":"totalAllocPoint","offset":0,"slot":"11","type":"t_uint256"},{"astId":1514,"contract":"TEXOToken.sol:TEXOOrchestrator","label":"refBonusBP","offset":0,"slot":"12","type":"t_uint256"},{"astId":1524,"contract":"TEXOToken.sol:TEXOOrchestrator","label":"referrers","offset":0,"slot":"13","type":"t_mapping(t_address,t_address)"},{"astId":1528,"contract":"TEXOToken.sol:TEXOOrchestrator","label":"referredCount","offset":0,"slot":"14","type":"t_mapping(t_address,t_uint256)"},{"astId":1532,"contract":"TEXOToken.sol:TEXOOrchestrator","label":"poolExistence","offset":0,"slot":"15","type":"t_mapping(t_contract(IBEP20)320,t_bool)"},{"astId":1536,"contract":"TEXOToken.sol:TEXOOrchestrator","label":"poolIdForLpAddress","offset":0,"slot":"16","type":"t_mapping(t_contract(IBEP20)320,t_uint256)"},{"astId":1551,"contract":"TEXOToken.sol:TEXOOrchestrator","label":"lastReductionPeriodIndex","offset":0,"slot":"17","type":"t_uint256"},{"astId":1554,"contract":"TEXOToken.sol:TEXOOrchestrator","label":"isAllowReduceEmissionRate","offset":0,"slot":"18","type":"t_bool"}],"types":{"t_address":{"encoding":"inplace","label":"address","numberOfBytes":"20"},"t_array(t_struct(PoolInfo)1485_storage)dyn_storage":{"base":"t_struct(PoolInfo)1485_storage","encoding":"dynamic_array","label":"struct TEXOOrchestrator.PoolInfo[]","numberOfBytes":"32"},"t_bool":{"encoding":"inplace","label":"bool","numberOfBytes":"1"},"t_contract(IBEP20)320":{"encoding":"inplace","label":"contract IBEP20","numberOfBytes":"20"},"t_contract(TEXOToken)1454":{"encoding":"inplace","label":"contract TEXOToken","numberOfBytes":"20"},"t_mapping(t_address,t_address)":{"encoding":"mapping","key":"t_address","label":"mapping(address => address)","numberOfBytes":"32","value":"t_address"},"t_mapping(t_address,t_struct(UserInfo)1472_storage)":{"encoding":"mapping","key":"t_address","label":"mapping(address => struct TEXOOrchestrator.UserInfo)","numberOfBytes":"32","value":"t_struct(UserInfo)1472_storage"},"t_mapping(t_address,t_uint256)":{"encoding":"mapping","key":"t_address","label":"mapping(address => uint256)","numberOfBytes":"32","value":"t_uint256"},"t_mapping(t_contract(IBEP20)320,t_bool)":{"encoding":"mapping","key":"t_contract(IBEP20)320","label":"mapping(contract IBEP20 => bool)","numberOfBytes":"32","value":"t_bool"},"t_mapping(t_contract(IBEP20)320,t_uint256)":{"encoding":"mapping","key":"t_contract(IBEP20)320","label":"mapping(contract IBEP20 => uint256)","numberOfBytes":"32","value":"t_uint256"},"t_mapping(t_uint256,t_mapping(t_address,t_struct(UserInfo)1472_storage))":{"encoding":"mapping","key":"t_uint256","label":"mapping(uint256 => mapping(address => struct TEXOOrchestrator.UserInfo))","numberOfBytes":"32","value":"t_mapping(t_address,t_struct(UserInfo)1472_storage)"},"t_struct(PoolInfo)1485_storage":{"encoding":"inplace","label":"struct TEXOOrchestrator.PoolInfo","members":[{"astId":1474,"contract":"TEXOToken.sol:TEXOOrchestrator","label":"lpToken","offset":0,"slot":"0","type":"t_contract(IBEP20)320"},{"astId":1476,"contract":"TEXOToken.sol:TEXOOrchestrator","label":"allocPoint","offset":0,"slot":"1","type":"t_uint256"},{"astId":1478,"contract":"TEXOToken.sol:TEXOOrchestrator","label":"blockToReceiveReward","offset":0,"slot":"2","type":"t_uint256"},{"astId":1480,"contract":"TEXOToken.sol:TEXOOrchestrator","label":"lastRewardBlock","offset":0,"slot":"3","type":"t_uint256"},{"astId":1482,"contract":"TEXOToken.sol:TEXOOrchestrator","label":"accTEXOPerShare","offset":0,"slot":"4","type":"t_uint256"},{"astId":1484,"contract":"TEXOToken.sol:TEXOOrchestrator","label":"depositFeeBP","offset":0,"slot":"5","type":"t_uint16"}],"numberOfBytes":"192"},"t_struct(UserInfo)1472_storage":{"encoding":"inplace","label":"struct TEXOOrchestrator.UserInfo","members":[{"astId":1467,"contract":"TEXOToken.sol:TEXOOrchestrator","label":"amount","offset":0,"slot":"0","type":"t_uint256"},{"astId":1469,"contract":"TEXOToken.sol:TEXOOrchestrator","label":"rewardDebt","offset":0,"slot":"1","type":"t_uint256"},{"astId":1471,"contract":"TEXOToken.sol:TEXOOrchestrator","label":"isAlreadyStaked","offset":0,"slot":"2","type":"t_bool"}],"numberOfBytes":"96"},"t_uint16":{"encoding":"inplace","label":"uint16","numberOfBytes":"2"},"t_uint256":{"encoding":"inplace","label":"uint256","numberOfBytes":"32"}}},"userdoc":{"kind":"user","methods":{},"version":1}}