{"abi":[{"inputs":[{"internalType":"contract TEXOToken","name":"_tEXO","type":"address"},{"internalType":"address","name":"_devAddr","type":"address"},{"internalType":"address","name":"_feeAddress","type":"address"},{"internalType":"uint256","name":"_blockToStartReducingEmissionRate","type":"uint256"}],"stateMutability":"nonpayable","type":"constructor"},{"anonymous":false,"inputs":[{"indexed":true,"internalType":"address","name":"user","type":"address"},{"indexed":true,"internalType":"uint256","name":"pid","type":"uint256"},{"indexed":false,"internalType":"uint256","name":"amount","type":"uint256"}],"name":"Deposit","type":"event"},{"anonymous":false,"inputs":[{"indexed":true,"internalType":"address","name":"user","type":"address"},{"indexed":true,"internalType":"uint256","name":"pid","type":"uint256"},{"indexed":false,"internalType":"uint256","name":"amount","type":"uint256"}],"name":"EmergencyWithdraw","type":"event"},{"anonymous":false,"inputs":[{"indexed":true,"internalType":"address","name":"caller","type":"address"},{"indexed":false,"internalType":"uint256","name":"previousAmount","type":"uint256"},{"indexed":false,"internalType":"uint256","name":"newAmount","type":"uint256"}],"name":"EmissionRateUpdated","type":"event"},{"anonymous":false,"inputs":[{"indexed":true,"internalType":"address","name":"previousOwner","type":"address"},{"indexed":true,"internalType":"address","name":"newOwner","type":"address"}],"name":"OwnershipTransferred","type":"event"},{"anonymous":false,"inputs":[{"indexed":true,"internalType":"address","name":"_referrer","type":"address"},{"indexed":true,"internalType":"address","name":"_user","type":"address"}],"name":"Referral","type":"event"},{"anonymous":false,"inputs":[{"indexed":false,"internalType":"uint256","name":"_oldBp","type":"uint256"},{"indexed":false,"internalType":"uint256","name":"_newBp","type":"uint256"}],"name":"ReferralBonusBpChanged","type":"event"},{"anonymous":false,"inputs":[{"indexed":true,"internalType":"address","name":"_user","type":"address"},{"indexed":true,"internalType":"address","name":"_userTo","type":"address"},{"indexed":false,"internalType":"uint256","name":"_reward","type":"uint256"}],"name":"ReferralPaid","type":"event"},{"anonymous":false,"inputs":[{"indexed":true,"internalType":"address","name":"user","type":"address"},{"indexed":true,"internalType":"address","name":"_feeAddress","type":"address"}],"name":"SetDevAddress","type":"event"},{"anonymous":false,"inputs":[{"indexed":true,"internalType":"address","name":"user","type":"address"},{"indexed":true,"internalType":"address","name":"_devAddress","type":"address"}],"name":"SetFeeAddress","type":"event"},{"anonymous":false,"inputs":[{"indexed":true,"internalType":"address","name":"user","type":"address"},{"indexed":true,"internalType":"uint256","name":"pid","type":"uint256"},{"indexed":false,"internalType":"uint256","name":"amount","type":"uint256"}],"name":"Withdraw","type":"event"},{"inputs":[],"name":"EMISSION_REDUCTION_PERIOD_BLOCKS","outputs":[{"internalType":"uint256","name":"","type":"uint256"}],"stateMutability":"view","type":"function"},{"inputs":[],"name":"EMISSION_REDUCTION_RATE_PER_PERIOD","outputs":[{"internalType":"uint256","name":"","type":"uint256"}],"stateMutability":"view","type":"function"},{"inputs":[],"name":"INITIAL_EMISSION_RATE","outputs":[{"internalType":"uint256","name":"","type":"uint256"}],"stateMutability":"view","type":"function"},{"inputs":[],"name":"MAXIMUM_DEPOSIT_FEE_BP","outputs":[{"internalType":"uint16","name":"","type":"uint16"}],"stateMutability":"view","type":"function"},{"inputs":[],"name":"MAXIMUM_REFERRAL_BP","outputs":[{"internalType":"uint16","name":"","type":"uint16"}],"stateMutability":"view","type":"function"},{"inputs":[],"name":"MINIMUM_EMISSION_RATE","outputs":[{"internalType":"uint256","name":"","type":"uint256"}],"stateMutability":"view","type":"function"},{"inputs":[{"internalType":"uint256","name":"_allocPoint","type":"uint256"},{"internalType":"contract IBEP20","name":"_lpToken","type":"address"},{"internalType":"uint16","name":"_depositFeeBP","type":"uint16"},{"internalType":"bool","name":"_withUpdate","type":"bool"},{"internalType":"uint256","name":"_blockToReceiveReward","type":"uint256"}],"name":"add","outputs":[],"stateMutability":"nonpayable","type":"function"},{"inputs":[{"internalType":"uint256","name":"_pid","type":"uint256"}],"name":"canWithdrawReward","outputs":[{"internalType":"bool","name":"","type":"bool"}],"stateMutability":"view","type":"function"},{"inputs":[{"internalType":"uint256","name":"_pid","type":"uint256"},{"internalType":"uint256","name":"_amount","type":"uint256"},{"internalType":"address","name":"_referrer","type":"address"}],"name":"deposit","outputs":[],"stateMutability":"nonpayable","type":"function"},{"inputs":[{"internalType":"uint256","name":"_pid","type":"uint256"},{"internalType":"uint256","name":"_amount","type":"uint256"}],"name":"deposit","outputs":[],"stateMutability":"nonpayable","type":"function"},{"inputs":[],"name":"devAddr","outputs":[{"internalType":"address","name":"","type":"address"}],"stateMutability":"view","type":"function"},{"inputs":[{"internalType":"uint256","name":"_pid","type":"uint256"}],"name":"emergencyWithdraw","outputs":[],"stateMutability":"nonpayable","type":"function"},{"inputs":[],"name":"feeAddress","outputs":[{"internalType":"address","name":"","type":"address"}],"stateMutability":"view","type":"function"},{"inputs":[{"internalType":"uint256","name":"_from","type":"uint256"},{"internalType":"uint256","name":"_to","type":"uint256"}],"name":"getMultiplier","outputs":[{"internalType":"uint256","name":"","type":"uint256"}],"stateMutability":"pure","type":"function"},{"inputs":[{"internalType":"contract IBEP20","name":"_lpToken","type":"address"}],"name":"getPoolIdForLpToken","outputs":[{"internalType":"uint256","name":"","type":"uint256"}],"stateMutability":"view","type":"function"},{"inputs":[{"internalType":"address","name":"_user","type":"address"}],"name":"getReferral","outputs":[{"internalType":"address","name":"","type":"address"}],"stateMutability":"view","type":"function"},{"inputs":[],"name":"isAllowReduceEmissionRate","outputs":[{"internalType":"bool","name":"","type":"bool"}],"stateMutability":"view","type":"function"},{"inputs":[],"name":"lastReductionPeriodIndex","outputs":[{"internalType":"uint256","name":"","type":"uint256"}],"stateMutability":"view","type":"function"},{"inputs":[],"name":"massUpdatePools","outputs":[],"stateMutability":"nonpayable","type":"function"},{"inputs":[],"name":"owner","outputs":[{"internalType":"address","name":"","type":"address"}],"stateMutability":"view","type":"function"},{"inputs":[{"internalType":"uint256","name":"_pid","type":"uint256"},{"internalType":"address","name":"_user","type":"address"}],"name":"pendingTEXO","outputs":[{"internalType":"uint256","name":"","type":"uint256"}],"stateMutability":"view","type":"function"},{"inputs":[{"internalType":"contract IBEP20","name":"","type":"address"}],"name":"poolExistence","outputs":[{"internalType":"bool","name":"","type":"bool"}],"stateMutability":"view","type":"function"},{"inputs":[{"internalType":"contract IBEP20","name":"","type":"address"}],"name":"poolIdForLpAddress","outputs":[{"internalType":"uint256","name":"","type":"uint256"}],"stateMutability":"view","type":"function"},{"inputs":[{"internalType":"uint256","name":"","type":"uint256"}],"name":"poolInfo","outputs":[{"internalType":"contract IBEP20","name":"lpToken","type":"address"},{"internalType":"uint256","name":"allocPoint","type":"uint256"},{"internalType":"uint256","name":"blockToReceiveReward","type":"uint256"},{"internalType":"uint256","name":"lastRewardBlock","type":"uint256"},{"internalType":"uint256","name":"accTEXOPerShare","type":"uint256"},{"internalType":"uint16","name":"depositFeeBP","type":"uint16"}],"stateMutability":"view","type":"function"},{"inputs":[],"name":"poolLength","outputs":[{"internalType":"uint256","name":"","type":"uint256"}],"stateMutability":"view","type":"function"},{"inputs":[],"name":"reduceEmissionRateWithDefaultRate","outputs":[],"stateMutability":"nonpayable","type":"function"},{"inputs":[],"name":"refBonusBP","outputs":[{"internalType":"uint256","name":"","type":"uint256"}],"stateMutability":"view","type":"function"},{"inputs":[{"internalType":"address","name":"","type":"address"}],"name":"referredCount","outputs":[{"internalType":"uint256","name":"","type":"uint256"}],"stateMutability":"view","type":"function"},{"inputs":[{"internalType":"address","name":"","type":"address"}],"name":"referrers","outputs":[{"internalType":"address","name":"","type":"address"}],"stateMutability":"view","type":"function"},{"inputs":[],"name":"renounceOwnership","outputs":[],"stateMutability":"nonpayable","type":"function"},{"inputs":[{"internalType":"uint256","name":"_pid","type":"uint256"},{"internalType":"uint256","name":"_allocPoint","type":"uint256"},{"internalType":"uint16","name":"_depositFeeBP","type":"uint16"},{"internalType":"bool","name":"_withUpdate","type":"bool"},{"internalType":"uint256","name":"_newBlockToReceiveReward","type":"uint256"}],"name":"set","outputs":[],"stateMutability":"nonpayable","type":"function"},{"inputs":[{"internalType":"uint256","name":"_blockToStartReducingEmissionRate","type":"uint256"}],"name":"setBlockToStartReducingEmissionRate","outputs":[],"stateMutability":"nonpayable","type":"function"},{"inputs":[{"internalType":"address","name":"_devaddr","type":"address"}],"name":"setDevAddress","outputs":[],"stateMutability":"nonpayable","type":"function"},{"inputs":[{"internalType":"uint256","name":"newEmissionRate","type":"uint256"}],"name":"setEmissionRate","outputs":[],"stateMutability":"nonpayable","type":"function"},{"inputs":[{"internalType":"address","name":"_feeAddress","type":"address"}],"name":"setFeeAddress","outputs":[],"stateMutability":"nonpayable","type":"function"},{"inputs":[{"internalType":"bool","name":"isAllow","type":"bool"}],"name":"setFlagAllowReduceEmissionRate","outputs":[],"stateMutability":"nonpayable","type":"function"},{"inputs":[],"name":"tEXO","outputs":[{"internalType":"contract TEXOToken","name":"","type":"address"}],"stateMutability":"view","type":"function"},{"inputs":[],"name":"tEXOPerBlock","outputs":[{"internalType":"uint256","name":"","type":"uint256"}],"stateMutability":"view","type":"function"},{"inputs":[],"name":"totalAllocPoint","outputs":[{"internalType":"uint256","name":"","type":"uint256"}],"stateMutability":"view","type":"function"},{"inputs":[{"internalType":"address","name":"newOwner","type":"address"}],"name":"transferOwnership","outputs":[],"stateMutability":"nonpayable","type":"function"},{"inputs":[{"internalType":"uint256","name":"_pid","type":"uint256"}],"name":"updatePool","outputs":[],"stateMutability":"nonpayable","type":"function"},{"inputs":[{"internalType":"uint256","name":"_newRefBonusBp","type":"uint256"}],"name":"updateReferralBonusBp","outputs":[],"stateMutability":"nonpayable","type":"function"},{"inputs":[{"internalType":"uint256","name":"","type":"uint256"},{"internalType":"address","name":"","type":"address"}],"name":"userInfo","outputs":[{"internalType":"uint256","name":"amount","type":"uint256"},{"internalType":"uint256","name":"rewardDebt","type":"uint256"},{"internalType":"bool","name":"isAlreadyStaked","type":"bool"}],"stateMutability":"view","type":"function"},{"inputs":[{"internalType":"uint256","name":"_pid","type":"uint256"},{"internalType":"uint256","name":"_amount","type":"uint256"}],"name":"withdraw","outputs":[],"stateMutability":"nonpayable","type":"function"}],"devdoc":{"kind":"dev","methods":{"owner()":{"details":"Returns the address of the current owner."},"renounceOwnership()":{"details":"Leaves the contract without owner. It will not be possible to call `onlyOwner` functions anymore. Can only be called by the current owner. NOTE: Renouncing ownership will leave the contract without an owner, thereby removing any functionality that is only available to the owner."},"transferOwnership(address)":{"details":"Transfers ownership of the contract to a new account (`newOwner`). Can only be called by the current owner."}},"title":"TEXO Token (tEXO)","version":1},"evm":{"assembly":"    /* \"TEXOToken.sol\":33765:53505  contract TEXOOrchestrator is Ownable, ReentrancyGuard {... */\n  mstore(0x40, 0x80)\n    /* \"TEXOToken.sol\":35995:35996  0 */\n  0x00\n    /* \"TEXOToken.sol\":35962:35996  uint256 public totalAllocPoint = 0 */\n  0x09\n  sstore\n    /* \"TEXOToken.sol\":36089:36092  200 */\n  0xc8\n    /* \"TEXOToken.sol\":36061:36092  uint256 public refBonusBP = 200 */\n  0x0a\n  sstore\n    /* \"TEXOToken.sol\":37218:37219  0 */\n  0x00\n    /* \"TEXOToken.sol\":37176:37219  uint256 public lastReductionPeriodIndex = 0 */\n  0x0f\n  sstore\n    /* \"TEXOToken.sol\":37266:37271  false */\n  0x00\n    /* \"TEXOToken.sol\":37226:37271  bool public isAllowReduceEmissionRate = false */\n  0x10\n  exp(0x0100, 0x00)\n  dup2\n  sload\n  dup2\n  0xff\n  mul\n  not\n  and\n  swap1\n  dup4\n  iszero\n  iszero\n  mul\n  or\n  swap1\n  sstore\n  pop\n    /* \"TEXOToken.sol\":38029:38454  constructor(... */\n  callvalue\n  dup1\n  iszero\n  tag_1\n  jumpi\n  0x00\n  dup1\n  revert\ntag_1:\n  pop\n  mload(0x40)\n  sub(codesize, bytecodeSize)\n  dup1\n  bytecodeSize\n  dup4\n  codecopy\n  dup2\n  dup2\n  add\n  0x40\n  mstore\n  0x80\n  dup2\n  lt\n  iszero\n  tag_2\n  jumpi\n  0x00\n  dup1\n  revert\ntag_2:\n  dup2\n  add\n  swap1\n  dup1\n  dup1\n  mload\n  swap1\n  0x20\n  add\n  swap1\n  swap3\n  swap2\n  swap1\n  dup1\n  mload\n  swap1\n  0x20\n  add\n  swap1\n  swap3\n  swap2\n  swap1\n  dup1\n  mload\n  swap1\n  0x20\n  add\n  swap1\n  swap3\n  swap2\n  swap1\n  dup1\n  mload\n  swap1\n  0x20\n  add\n  swap1\n  swap3\n  swap2\n  swap1\n  pop\n  pop\n  pop\n    /* \"TEXOToken.sol\":11256:11273  address msgSender */\n  0x00\n    /* \"TEXOToken.sol\":11276:11288  _msgSender() */\n  tag_9\n    /* \"TEXOToken.sol\":11276:11286  _msgSender */\n  shl(0x20, tag_10)\n    /* \"TEXOToken.sol\":11276:11288  _msgSender() */\n  0x20\n  shr\n  jump\t// in\ntag_9:\n    /* \"TEXOToken.sol\":11256:11288  address msgSender = _msgSender() */\n  swap1\n  pop\n    /* \"TEXOToken.sol\":11307:11316  msgSender */\n  dup1\n    /* \"TEXOToken.sol\":11298:11304  _owner */\n  0x00\n  dup1\n    /* \"TEXOToken.sol\":11298:11316  _owner = msgSender */\n  0x0100\n  exp\n  dup2\n  sload\n  dup2\n  0xffffffffffffffffffffffffffffffffffffffff\n  mul\n  not\n  and\n  swap1\n  dup4\n  0xffffffffffffffffffffffffffffffffffffffff\n  and\n  mul\n  or\n  swap1\n  sstore\n  pop\n    /* \"TEXOToken.sol\":11364:11373  msgSender */\n  dup1\n    /* \"TEXOToken.sol\":11331:11374  OwnershipTransferred(address(0), msgSender) */\n  0xffffffffffffffffffffffffffffffffffffffff\n  and\n    /* \"TEXOToken.sol\":11360:11361  0 */\n  0x00\n    /* \"TEXOToken.sol\":11331:11374  OwnershipTransferred(address(0), msgSender) */\n  0xffffffffffffffffffffffffffffffffffffffff\n  and\n  0x8be0079c531659141344cd1fd0a4f28419497f9722a3daafe3b4186f6b6457e0\n  mload(0x40)\n  mload(0x40)\n  dup1\n  swap2\n  sub\n  swap1\n  log3\n    /* \"TEXOToken.sol\":11222:11381  constructor () internal {... */\n  pop\n    /* \"TEXOToken.sol\":21161:21162  1 */\n  0x01\n    /* \"TEXOToken.sol\":21276:21283  _status */\n  dup1\n    /* \"TEXOToken.sol\":21276:21298  _status = _NOT_ENTERED */\n  dup2\n  swap1\n  sstore\n  pop\n    /* \"TEXOToken.sol\":38202:38207  _tEXO */\n  dup4\n    /* \"TEXOToken.sol\":38195:38199  tEXO */\n  0x02\n  0x00\n    /* \"TEXOToken.sol\":38195:38207  tEXO = _tEXO */\n  0x0100\n  exp\n  dup2\n  sload\n  dup2\n  0xffffffffffffffffffffffffffffffffffffffff\n  mul\n  not\n  and\n  swap1\n  dup4\n  0xffffffffffffffffffffffffffffffffffffffff\n  and\n  mul\n  or\n  swap1\n  sstore\n  pop\n    /* \"TEXOToken.sol\":38227:38235  _devAddr */\n  dup3\n    /* \"TEXOToken.sol\":38217:38224  devAddr */\n  0x03\n  0x00\n    /* \"TEXOToken.sol\":38217:38235  devAddr = _devAddr */\n  0x0100\n  exp\n  dup2\n  sload\n  dup2\n  0xffffffffffffffffffffffffffffffffffffffff\n  mul\n  not\n  and\n  swap1\n  dup4\n  0xffffffffffffffffffffffffffffffffffffffff\n  and\n  mul\n  or\n  swap1\n  sstore\n  pop\n    /* \"TEXOToken.sol\":38258:38269  _feeAddress */\n  dup2\n    /* \"TEXOToken.sol\":38245:38255  feeAddress */\n  0x05\n  0x00\n    /* \"TEXOToken.sol\":38245:38269  feeAddress = _feeAddress */\n  0x0100\n  exp\n  dup2\n  sload\n  dup2\n  0xffffffffffffffffffffffffffffffffffffffff\n  mul\n  not\n  and\n  swap1\n  dup4\n  0xffffffffffffffffffffffffffffffffffffffff\n  and\n  mul\n  or\n  swap1\n  sstore\n  pop\n    /* \"TEXOToken.sol\":36751:36761  500 finney */\n  0x06f05b59d3b20000\n    /* \"TEXOToken.sol\":38279:38291  tEXOPerBlock */\n  0x04\n    /* \"TEXOToken.sol\":38279:38315  tEXOPerBlock = INITIAL_EMISSION_RATE */\n  dup2\n  swap1\n  sstore\n  pop\n    /* \"TEXOToken.sol\":38375:38408  _blockToStartReducingEmissionRate */\n  dup1\n    /* \"TEXOToken.sol\":38360:38372  block.number */\n  number\n    /* \"TEXOToken.sol\":38360:38408  block.number + _blockToStartReducingEmissionRate */\n  add\n    /* \"TEXOToken.sol\":38325:38357  blockToStartReducingEmissionRate */\n  0x06\n    /* \"TEXOToken.sol\":38325:38408  blockToStartReducingEmissionRate = block.number + _blockToStartReducingEmissionRate */\n  dup2\n  swap1\n  sstore\n  pop\n    /* \"TEXOToken.sol\":38029:38454  constructor(... */\n  pop\n  pop\n  pop\n  pop\n    /* \"TEXOToken.sol\":33765:53505  contract TEXOOrchestrator is Ownable, ReentrancyGuard {... */\n  jump(tag_13)\n    /* \"TEXOToken.sol\":5963:6059  function _msgSender() internal view returns (address payable) {... */\ntag_10:\n    /* \"TEXOToken.sol\":6008:6023  address payable */\n  0x00\n    /* \"TEXOToken.sol\":6042:6052  msg.sender */\n  caller\n    /* \"TEXOToken.sol\":6035:6052  return msg.sender */\n  swap1\n  pop\n    /* \"TEXOToken.sol\":5963:6059  function _msgSender() internal view returns (address payable) {... */\n  swap1\n  jump\t// out\n    /* \"TEXOToken.sol\":33765:53505  contract TEXOOrchestrator is Ownable, ReentrancyGuard {... */\ntag_13:\n  dataSize(sub_0)\n  dup1\n  dataOffset(sub_0)\n  0x00\n  codecopy\n  0x00\n  return\nstop\n\nsub_0: assembly {\n        /* \"TEXOToken.sol\":33765:53505  contract TEXOOrchestrator is Ownable, ReentrancyGuard {... */\n      mstore(0x40, 0x80)\n      callvalue\n      dup1\n      iszero\n      tag_1\n      jumpi\n      0x00\n      dup1\n      revert\n    tag_1:\n      pop\n      jumpi(tag_2, lt(calldatasize, 0x04))\n      shr(0xe0, calldataload(0x00))\n      dup1\n      0x8705fcd4\n      gt\n      tag_47\n      jumpi\n      dup1\n      0xb7eee1f1\n      gt\n      tag_48\n      jumpi\n      dup1\n      0xda09c72c\n      gt\n      tag_49\n      jumpi\n      dup1\n      0xda09c72c\n      eq\n      tag_41\n      jumpi\n      dup1\n      0xdfe3d2cd\n      eq\n      tag_42\n      jumpi\n      dup1\n      0xe2bbb158\n      eq\n      tag_43\n      jumpi\n      dup1\n      0xea76bc29\n      eq\n      tag_44\n      jumpi\n      dup1\n      0xf2fde38b\n      eq\n      tag_45\n      jumpi\n      dup1\n      0xfab96ae6\n      eq\n      tag_46\n      jumpi\n      jump(tag_2)\n    tag_49:\n      dup1\n      0xb7eee1f1\n      eq\n      tag_36\n      jumpi\n      dup1\n      0xc6df25bd\n      eq\n      tag_37\n      jumpi\n      dup1\n      0xcbd258b5\n      eq\n      tag_38\n      jumpi\n      dup1\n      0xd0d41fe1\n      eq\n      tag_39\n      jumpi\n      dup1\n      0xd4adafdf\n      eq\n      tag_40\n      jumpi\n      jump(tag_2)\n    tag_48:\n      dup1\n      0x93f1a40b\n      gt\n      tag_50\n      jumpi\n      dup1\n      0x93f1a40b\n      eq\n      tag_30\n      jumpi\n      dup1\n      0x955c9b93\n      eq\n      tag_31\n      jumpi\n      dup1\n      0x9bf62f7e\n      eq\n      tag_32\n      jumpi\n      dup1\n      0xa1bdb15e\n      eq\n      tag_33\n      jumpi\n      dup1\n      0xae715d70\n      eq\n      tag_34\n      jumpi\n      dup1\n      0xb51d4c80\n      eq\n      tag_35\n      jumpi\n      jump(tag_2)\n    tag_50:\n      dup1\n      0x8705fcd4\n      eq\n      tag_25\n      jumpi\n      dup1\n      0x8da5cb5b\n      eq\n      tag_26\n      jumpi\n      dup1\n      0x8dbb1e3a\n      eq\n      tag_27\n      jumpi\n      dup1\n      0x8dbdbe6d\n      eq\n      tag_28\n      jumpi\n      dup1\n      0x91bb809c\n      eq\n      tag_29\n      jumpi\n      jump(tag_2)\n    tag_47:\n      dup1\n      0x4a3b68cc\n      gt\n      tag_51\n      jumpi\n      dup1\n      0x64ed743b\n      gt\n      tag_52\n      jumpi\n      dup1\n      0x64ed743b\n      eq\n      tag_19\n      jumpi\n      dup1\n      0x660f8340\n      eq\n      tag_20\n      jumpi\n      dup1\n      0x66f685ea\n      eq\n      tag_21\n      jumpi\n      dup1\n      0x6a9a7660\n      eq\n      tag_22\n      jumpi\n      dup1\n      0x715018a6\n      eq\n      tag_23\n      jumpi\n      dup1\n      0x80361747\n      eq\n      tag_24\n      jumpi\n      jump(tag_2)\n    tag_52:\n      dup1\n      0x4a3b68cc\n      eq\n      tag_14\n      jumpi\n      dup1\n      0x51eb05a6\n      eq\n      tag_15\n      jumpi\n      dup1\n      0x5312ea8e\n      eq\n      tag_16\n      jumpi\n      dup1\n      0x61e0c468\n      eq\n      tag_17\n      jumpi\n      dup1\n      0x630b5ba1\n      eq\n      tag_18\n      jumpi\n      jump(tag_2)\n    tag_51:\n      dup1\n      0x3a22df78\n      gt\n      tag_53\n      jumpi\n      dup1\n      0x3a22df78\n      eq\n      tag_8\n      jumpi\n      dup1\n      0x3b0f0f2f\n      eq\n      tag_9\n      jumpi\n      dup1\n      0x3f7b06d8\n      eq\n      tag_10\n      jumpi\n      dup1\n      0x41275358\n      eq\n      tag_11\n      jumpi\n      dup1\n      0x441a3e70\n      eq\n      tag_12\n      jumpi\n      dup1\n      0x47e3cda5\n      eq\n      tag_13\n      jumpi\n      jump(tag_2)\n    tag_53:\n      dup1\n      0x081e3eda\n      eq\n      tag_3\n      jumpi\n      dup1\n      0x1526fe27\n      eq\n      tag_4\n      jumpi\n      dup1\n      0x17caf6f1\n      eq\n      tag_5\n      jumpi\n      dup1\n      0x190f39f0\n      eq\n      tag_6\n      jumpi\n      dup1\n      0x1eb704b0\n      eq\n      tag_7\n      jumpi\n    tag_2:\n      0x00\n      dup1\n      revert\n        /* \"TEXOToken.sol\":38494:38587  function poolLength() external view returns (uint256) {... */\n    tag_3:\n      tag_54\n      tag_55\n      jump\t// in\n    tag_54:\n      mload(0x40)\n      dup1\n      dup3\n      dup2\n      mstore\n      0x20\n      add\n      swap2\n      pop\n      pop\n      mload(0x40)\n      dup1\n      swap2\n      sub\n      swap1\n      return\n        /* \"TEXOToken.sol\":35725:35751  PoolInfo[] public poolInfo */\n    tag_4:\n      tag_56\n      0x04\n      dup1\n      calldatasize\n      sub\n      0x20\n      dup2\n      lt\n      iszero\n      tag_57\n      jumpi\n      0x00\n      dup1\n      revert\n    tag_57:\n      dup2\n      add\n      swap1\n      dup1\n      dup1\n      calldataload\n      swap1\n      0x20\n      add\n      swap1\n      swap3\n      swap2\n      swap1\n      pop\n      pop\n      pop\n      tag_58\n      jump\t// in\n    tag_56:\n      mload(0x40)\n      dup1\n      dup8\n      0xffffffffffffffffffffffffffffffffffffffff\n      and\n      dup2\n      mstore\n      0x20\n      add\n      dup7\n      dup2\n      mstore\n      0x20\n      add\n      dup6\n      dup2\n      mstore\n      0x20\n      add\n      dup5\n      dup2\n      mstore\n      0x20\n      add\n      dup4\n      dup2\n      mstore\n      0x20\n      add\n      dup3\n      0xffff\n      and\n      dup2\n      mstore\n      0x20\n      add\n      swap7\n      pop\n      pop\n      pop\n      pop\n      pop\n      pop\n      pop\n      mload(0x40)\n      dup1\n      swap2\n      sub\n      swap1\n      return\n        /* \"TEXOToken.sol\":35962:35996  uint256 public totalAllocPoint = 0 */\n    tag_5:\n      tag_59\n      tag_60\n      jump\t// in\n    tag_59:\n      mload(0x40)\n      dup1\n      dup3\n      dup2\n      mstore\n      0x20\n      add\n      swap2\n      pop\n      pop\n      mload(0x40)\n      dup1\n      swap2\n      sub\n      swap1\n      return\n        /* \"TEXOToken.sol\":38806:39024  function getPoolIdForLpToken(IBEP20 _lpToken) external view returns (uint256) {... */\n    tag_6:\n      tag_61\n      0x04\n      dup1\n      calldatasize\n      sub\n      0x20\n      dup2\n      lt\n      iszero\n      tag_62\n      jumpi\n      0x00\n      dup1\n      revert\n    tag_62:\n      dup2\n      add\n      swap1\n      dup1\n      dup1\n      calldataload\n      0xffffffffffffffffffffffffffffffffffffffff\n      and\n      swap1\n      0x20\n      add\n      swap1\n      swap3\n      swap2\n      swap1\n      pop\n      pop\n      pop\n      tag_63\n      jump\t// in\n    tag_61:\n      mload(0x40)\n      dup1\n      dup3\n      dup2\n      mstore\n      0x20\n      add\n      swap2\n      pop\n      pop\n      mload(0x40)\n      dup1\n      swap2\n      sub\n      swap1\n      return\n        /* \"TEXOToken.sol\":38593:38800  function setBlockToStartReducingEmissionRate(uint256 _blockToStartReducingEmissionRate) external onlyOwner {... */\n    tag_7:\n      tag_64\n      0x04\n      dup1\n      calldatasize\n      sub\n      0x20\n      dup2\n      lt\n      iszero\n      tag_65\n      jumpi\n      0x00\n      dup1\n      revert\n    tag_65:\n      dup2\n      add\n      swap1\n      dup1\n      dup1\n      calldataload\n      swap1\n      0x20\n      add\n      swap1\n      swap3\n      swap2\n      swap1\n      pop\n      pop\n      pop\n      tag_66\n      jump\t// in\n    tag_64:\n      stop\n        /* \"TEXOToken.sol\":36227:36276  uint16 public constant MAXIMUM_REFERRAL_BP = 2000 */\n    tag_8:\n      tag_67\n      tag_68\n      jump\t// in\n    tag_67:\n      mload(0x40)\n      dup1\n      dup3\n      0xffff\n      and\n      dup2\n      mstore\n      0x20\n      add\n      swap2\n      pop\n      pop\n      mload(0x40)\n      dup1\n      swap2\n      sub\n      swap1\n      return\n        /* \"TEXOToken.sol\":52284:52390  function getReferral(address _user) public view returns (address) {... */\n    tag_9:\n      tag_69\n      0x04\n      dup1\n      calldatasize\n      sub\n      0x20\n      dup2\n      lt\n      iszero\n      tag_70\n      jumpi\n      0x00\n      dup1\n      revert\n    tag_70:\n      dup2\n      add\n      swap1\n      dup1\n      dup1\n      calldataload\n      0xffffffffffffffffffffffffffffffffffffffff\n      and\n      swap1\n      0x20\n      add\n      swap1\n      swap3\n      swap2\n      swap1\n      pop\n      pop\n      pop\n      tag_71\n      jump\t// in\n    tag_69:\n      mload(0x40)\n      dup1\n      dup3\n      0xffffffffffffffffffffffffffffffffffffffff\n      and\n      dup2\n      mstore\n      0x20\n      add\n      swap2\n      pop\n      pop\n      mload(0x40)\n      dup1\n      swap2\n      sub\n      swap1\n      return\n        /* \"TEXOToken.sol\":36395:36443  mapping(address => uint256) public referredCount */\n    tag_10:\n      tag_72\n      0x04\n      dup1\n      calldatasize\n      sub\n      0x20\n      dup2\n      lt\n      iszero\n      tag_73\n      jumpi\n      0x00\n      dup1\n      revert\n    tag_73:\n      dup2\n      add\n      swap1\n      dup1\n      dup1\n      calldataload\n      0xffffffffffffffffffffffffffffffffffffffff\n      and\n      swap1\n      0x20\n      add\n      swap1\n      swap3\n      swap2\n      swap1\n      pop\n      pop\n      pop\n      tag_74\n      jump\t// in\n    tag_72:\n      mload(0x40)\n      dup1\n      dup3\n      dup2\n      mstore\n      0x20\n      add\n      swap2\n      pop\n      pop\n      mload(0x40)\n      dup1\n      swap2\n      sub\n      swap1\n      return\n        /* \"TEXOToken.sol\":35567:35592  address public feeAddress */\n    tag_11:\n      tag_75\n      tag_76\n      jump\t// in\n    tag_75:\n      mload(0x40)\n      dup1\n      dup3\n      0xffffffffffffffffffffffffffffffffffffffff\n      and\n      dup2\n      mstore\n      0x20\n      add\n      swap2\n      pop\n      pop\n      mload(0x40)\n      dup1\n      swap2\n      sub\n      swap1\n      return\n        /* \"TEXOToken.sol\":47476:48432  function withdraw(uint256 _pid, uint256 _amount) public nonReentrant {... */\n    tag_12:\n      tag_77\n      0x04\n      dup1\n      calldatasize\n      sub\n      0x40\n      dup2\n      lt\n      iszero\n      tag_78\n      jumpi\n      0x00\n      dup1\n      revert\n    tag_78:\n      dup2\n      add\n      swap1\n      dup1\n      dup1\n      calldataload\n      swap1\n      0x20\n      add\n      swap1\n      swap3\n      swap2\n      swap1\n      dup1\n      calldataload\n      swap1\n      0x20\n      add\n      swap1\n      swap3\n      swap2\n      swap1\n      pop\n      pop\n      pop\n      tag_79\n      jump\t// in\n    tag_77:\n      stop\n        /* \"TEXOToken.sol\":37226:37271  bool public isAllowReduceEmissionRate = false */\n    tag_13:\n      tag_80\n      tag_81\n      jump\t// in\n    tag_80:\n      mload(0x40)\n      dup1\n      dup3\n      iszero\n      iszero\n      dup2\n      mstore\n      0x20\n      add\n      swap2\n      pop\n      pop\n      mload(0x40)\n      dup1\n      swap2\n      sub\n      swap1\n      return\n        /* \"TEXOToken.sol\":36306:36350  mapping(address => address) public referrers */\n    tag_14:\n      tag_82\n      0x04\n      dup1\n      calldatasize\n      sub\n      0x20\n      dup2\n      lt\n      iszero\n      tag_83\n      jumpi\n      0x00\n      dup1\n      revert\n    tag_83:\n      dup2\n      add\n      swap1\n      dup1\n      dup1\n      calldataload\n      0xffffffffffffffffffffffffffffffffffffffff\n      and\n      swap1\n      0x20\n      add\n      swap1\n      swap3\n      swap2\n      swap1\n      pop\n      pop\n      pop\n      tag_84\n      jump\t// in\n    tag_82:\n      mload(0x40)\n      dup1\n      dup3\n      0xffffffffffffffffffffffffffffffffffffffff\n      and\n      dup2\n      mstore\n      0x20\n      add\n      swap2\n      pop\n      pop\n      mload(0x40)\n      dup1\n      swap2\n      sub\n      swap1\n      return\n        /* \"TEXOToken.sol\":42547:43797  function updatePool(uint256 _pid) public {... */\n    tag_15:\n      tag_85\n      0x04\n      dup1\n      calldatasize\n      sub\n      0x20\n      dup2\n      lt\n      iszero\n      tag_86\n      jumpi\n      0x00\n      dup1\n      revert\n    tag_86:\n      dup2\n      add\n      swap1\n      dup1\n      dup1\n      calldataload\n      swap1\n      0x20\n      add\n      swap1\n      swap3\n      swap2\n      swap1\n      pop\n      pop\n      pop\n      tag_87\n      jump\t// in\n    tag_85:\n      stop\n        /* \"TEXOToken.sol\":48500:48864  function emergencyWithdraw(uint256 _pid) public nonReentrant {... */\n    tag_16:\n      tag_88\n      0x04\n      dup1\n      calldatasize\n      sub\n      0x20\n      dup2\n      lt\n      iszero\n      tag_89\n      jumpi\n      0x00\n      dup1\n      revert\n    tag_89:\n      dup2\n      add\n      swap1\n      dup1\n      dup1\n      calldataload\n      swap1\n      0x20\n      add\n      swap1\n      swap3\n      swap2\n      swap1\n      pop\n      pop\n      pop\n      tag_90\n      jump\t// in\n    tag_88:\n      stop\n        /* \"TEXOToken.sol\":36819:36876  uint256 public constant MINIMUM_EMISSION_RATE = 50 finney */\n    tag_17:\n      tag_91\n      tag_92\n      jump\t// in\n    tag_91:\n      mload(0x40)\n      dup1\n      dup3\n      dup2\n      mstore\n      0x20\n      add\n      swap2\n      pop\n      pop\n      mload(0x40)\n      dup1\n      swap2\n      sub\n      swap1\n      return\n        /* \"TEXOToken.sol\":42299:42474  function massUpdatePools() public {... */\n    tag_18:\n      tag_93\n      tag_94\n      jump\t// in\n    tag_93:\n      stop\n        /* \"TEXOToken.sol\":53055:53502  function updateReferralBonusBp(uint256 _newRefBonusBp) public onlyOwner {... */\n    tag_19:\n      tag_95\n      0x04\n      dup1\n      calldatasize\n      sub\n      0x20\n      dup2\n      lt\n      iszero\n      tag_96\n      jumpi\n      0x00\n      dup1\n      revert\n    tag_96:\n      dup2\n      add\n      swap1\n      dup1\n      dup1\n      calldataload\n      swap1\n      0x20\n      add\n      swap1\n      swap3\n      swap2\n      swap1\n      pop\n      pop\n      pop\n      tag_97\n      jump\t// in\n    tag_95:\n      stop\n        /* \"TEXOToken.sol\":35507:35534  uint256 public tEXOPerBlock */\n    tag_20:\n      tag_98\n      tag_99\n      jump\t// in\n    tag_98:\n      mload(0x40)\n      dup1\n      dup3\n      dup2\n      mstore\n      0x20\n      add\n      swap2\n      pop\n      pop\n      mload(0x40)\n      dup1\n      swap2\n      sub\n      swap1\n      return\n        /* \"TEXOToken.sol\":36061:36092  uint256 public refBonusBP = 200 */\n    tag_21:\n      tag_100\n      tag_101\n      jump\t// in\n    tag_100:\n      mload(0x40)\n      dup1\n      dup3\n      dup2\n      mstore\n      0x20\n      add\n      swap2\n      pop\n      pop\n      mload(0x40)\n      dup1\n      swap2\n      sub\n      swap1\n      return\n        /* \"TEXOToken.sol\":37176:37219  uint256 public lastReductionPeriodIndex = 0 */\n    tag_22:\n      tag_102\n      tag_103\n      jump\t// in\n    tag_102:\n      mload(0x40)\n      dup1\n      dup3\n      dup2\n      mstore\n      0x20\n      add\n      swap2\n      pop\n      pop\n      mload(0x40)\n      dup1\n      swap2\n      sub\n      swap1\n      return\n        /* \"TEXOToken.sol\":12080:12217  function renounceOwnership() public onlyOwner {... */\n    tag_23:\n      tag_104\n      tag_105\n      jump\t// in\n    tag_104:\n      stop\n        /* \"TEXOToken.sol\":51607:51730  function setFlagAllowReduceEmissionRate(bool isAllow) public onlyOwner {... */\n    tag_24:\n      tag_106\n      0x04\n      dup1\n      calldatasize\n      sub\n      0x20\n      dup2\n      lt\n      iszero\n      tag_107\n      jumpi\n      0x00\n      dup1\n      revert\n    tag_107:\n      dup2\n      add\n      swap1\n      dup1\n      dup1\n      calldataload\n      iszero\n      iszero\n      swap1\n      0x20\n      add\n      swap1\n      swap3\n      swap2\n      swap1\n      pop\n      pop\n      pop\n      tag_108\n      jump\t// in\n    tag_106:\n      stop\n        /* \"TEXOToken.sol\":49761:50057  function setFeeAddress(address _feeAddress) public {... */\n    tag_25:\n      tag_109\n      0x04\n      dup1\n      calldatasize\n      sub\n      0x20\n      dup2\n      lt\n      iszero\n      tag_110\n      jumpi\n      0x00\n      dup1\n      revert\n    tag_110:\n      dup2\n      add\n      swap1\n      dup1\n      dup1\n      calldataload\n      0xffffffffffffffffffffffffffffffffffffffff\n      and\n      swap1\n      0x20\n      add\n      swap1\n      swap3\n      swap2\n      swap1\n      pop\n      pop\n      pop\n      tag_111\n      jump\t// in\n    tag_109:\n      stop\n        /* \"TEXOToken.sol\":11457:11534  function owner() public view returns (address) {... */\n    tag_26:\n      tag_112\n      tag_113\n      jump\t// in\n    tag_112:\n      mload(0x40)\n      dup1\n      dup3\n      0xffffffffffffffffffffffffffffffffffffffff\n      and\n      dup2\n      mstore\n      0x20\n      add\n      swap2\n      pop\n      pop\n      mload(0x40)\n      dup1\n      swap2\n      sub\n      swap1\n      return\n        /* \"TEXOToken.sol\":41092:41211  function getMultiplier(uint256 _from, uint256 _to) public pure returns (uint256) {... */\n    tag_27:\n      tag_114\n      0x04\n      dup1\n      calldatasize\n      sub\n      0x40\n      dup2\n      lt\n      iszero\n      tag_115\n      jumpi\n      0x00\n      dup1\n      revert\n    tag_115:\n      dup2\n      add\n      swap1\n      dup1\n      dup1\n      calldataload\n      swap1\n      0x20\n      add\n      swap1\n      swap3\n      swap2\n      swap1\n      dup1\n      calldataload\n      swap1\n      0x20\n      add\n      swap1\n      swap3\n      swap2\n      swap1\n      pop\n      pop\n      pop\n      tag_116\n      jump\t// in\n    tag_114:\n      mload(0x40)\n      dup1\n      dup3\n      dup2\n      mstore\n      0x20\n      add\n      swap2\n      pop\n      pop\n      mload(0x40)\n      dup1\n      swap2\n      sub\n      swap1\n      return\n        /* \"TEXOToken.sol\":45670:47427  function deposit(uint256 _pid, uint256 _amount, address _referrer) public nonReentrant {... */\n    tag_28:\n      tag_117\n      0x04\n      dup1\n      calldatasize\n      sub\n      0x60\n      dup2\n      lt\n      iszero\n      tag_118\n      jumpi\n      0x00\n      dup1\n      revert\n    tag_118:\n      dup2\n      add\n      swap1\n      dup1\n      dup1\n      calldataload\n      swap1\n      0x20\n      add\n      swap1\n      swap3\n      swap2\n      swap1\n      dup1\n      calldataload\n      swap1\n      0x20\n      add\n      swap1\n      swap3\n      swap2\n      swap1\n      dup1\n      calldataload\n      0xffffffffffffffffffffffffffffffffffffffff\n      and\n      swap1\n      0x20\n      add\n      swap1\n      swap3\n      swap2\n      swap1\n      pop\n      pop\n      pop\n      tag_119\n      jump\t// in\n    tag_117:\n      stop\n        /* \"TEXOToken.sol\":36703:36761  uint256 public constant INITIAL_EMISSION_RATE = 500 finney */\n    tag_29:\n      tag_120\n      tag_121\n      jump\t// in\n    tag_120:\n      mload(0x40)\n      dup1\n      dup3\n      dup2\n      mstore\n      0x20\n      add\n      swap2\n      pop\n      pop\n      mload(0x40)\n      dup1\n      swap2\n      sub\n      swap1\n      return\n        /* \"TEXOToken.sol\":35805:35869  mapping(uint256 => mapping(address => UserInfo)) public userInfo */\n    tag_30:\n      tag_122\n      0x04\n      dup1\n      calldatasize\n      sub\n      0x40\n      dup2\n      lt\n      iszero\n      tag_123\n      jumpi\n      0x00\n      dup1\n      revert\n    tag_123:\n      dup2\n      add\n      swap1\n      dup1\n      dup1\n      calldataload\n      swap1\n      0x20\n      add\n      swap1\n      swap3\n      swap2\n      swap1\n      dup1\n      calldataload\n      0xffffffffffffffffffffffffffffffffffffffff\n      and\n      swap1\n      0x20\n      add\n      swap1\n      swap3\n      swap2\n      swap1\n      pop\n      pop\n      pop\n      tag_124\n      jump\t// in\n    tag_122:\n      mload(0x40)\n      dup1\n      dup5\n      dup2\n      mstore\n      0x20\n      add\n      dup4\n      dup2\n      mstore\n      0x20\n      add\n      dup3\n      iszero\n      iszero\n      dup2\n      mstore\n      0x20\n      add\n      swap4\n      pop\n      pop\n      pop\n      pop\n      mload(0x40)\n      dup1\n      swap2\n      sub\n      swap1\n      return\n        /* \"TEXOToken.sol\":36127:36179  uint16 public constant MAXIMUM_DEPOSIT_FEE_BP = 1000 */\n    tag_31:\n      tag_125\n      tag_126\n      jump\t// in\n    tag_125:\n      mload(0x40)\n      dup1\n      dup3\n      0xffff\n      and\n      dup2\n      mstore\n      0x20\n      add\n      swap2\n      pop\n      pop\n      mload(0x40)\n      dup1\n      swap2\n      sub\n      swap1\n      return\n        /* \"TEXOToken.sol\":36594:36646  mapping(IBEP20 => uint256) public poolIdForLpAddress */\n    tag_32:\n      tag_127\n      0x04\n      dup1\n      calldatasize\n      sub\n      0x20\n      dup2\n      lt\n      iszero\n      tag_128\n      jumpi\n      0x00\n      dup1\n      revert\n    tag_128:\n      dup2\n      add\n      swap1\n      dup1\n      dup1\n      calldataload\n      0xffffffffffffffffffffffffffffffffffffffff\n      and\n      swap1\n      0x20\n      add\n      swap1\n      swap3\n      swap2\n      swap1\n      pop\n      pop\n      pop\n      tag_129\n      jump\t// in\n    tag_127:\n      mload(0x40)\n      dup1\n      dup3\n      dup2\n      mstore\n      0x20\n      add\n      swap2\n      pop\n      pop\n      mload(0x40)\n      dup1\n      swap2\n      sub\n      swap1\n      return\n        /* \"TEXOToken.sol\":51736:51850  function setEmissionRate(uint256 newEmissionRate) public onlyOwner {... */\n    tag_33:\n      tag_130\n      0x04\n      dup1\n      calldatasize\n      sub\n      0x20\n      dup2\n      lt\n      iszero\n      tag_131\n      jumpi\n      0x00\n      dup1\n      revert\n    tag_131:\n      dup2\n      add\n      swap1\n      dup1\n      dup1\n      calldataload\n      swap1\n      0x20\n      add\n      swap1\n      swap3\n      swap2\n      swap1\n      pop\n      pop\n      pop\n      tag_132\n      jump\t// in\n    tag_130:\n      stop\n        /* \"TEXOToken.sol\":35394:35415  TEXOToken public tEXO */\n    tag_34:\n      tag_133\n      tag_134\n      jump\t// in\n    tag_133:\n      mload(0x40)\n      dup1\n      dup3\n      0xffffffffffffffffffffffffffffffffffffffff\n      and\n      dup2\n      mstore\n      0x20\n      add\n      swap2\n      pop\n      pop\n      mload(0x40)\n      dup1\n      swap2\n      sub\n      swap1\n      return\n        /* \"TEXOToken.sol\":43803:43985  function canWithdrawReward(uint256 _pid) public view returns (bool) {... */\n    tag_35:\n      tag_135\n      0x04\n      dup1\n      calldatasize\n      sub\n      0x20\n      dup2\n      lt\n      iszero\n      tag_136\n      jumpi\n      0x00\n      dup1\n      revert\n    tag_136:\n      dup2\n      add\n      swap1\n      dup1\n      dup1\n      calldataload\n      swap1\n      0x20\n      add\n      swap1\n      swap3\n      swap2\n      swap1\n      pop\n      pop\n      pop\n      tag_137\n      jump\t// in\n    tag_135:\n      mload(0x40)\n      dup1\n      dup3\n      iszero\n      iszero\n      dup2\n      mstore\n      0x20\n      add\n      swap2\n      pop\n      pop\n      mload(0x40)\n      dup1\n      swap2\n      sub\n      swap1\n      return\n        /* \"TEXOToken.sol\":37071:37135  uint256 public constant EMISSION_REDUCTION_RATE_PER_PERIOD = 300 */\n    tag_36:\n      tag_138\n      tag_139\n      jump\t// in\n    tag_138:\n      mload(0x40)\n      dup1\n      dup3\n      dup2\n      mstore\n      0x20\n      add\n      swap2\n      pop\n      pop\n      mload(0x40)\n      dup1\n      swap2\n      sub\n      swap1\n      return\n        /* \"TEXOToken.sol\":40358:41019  function set(... */\n    tag_37:\n      tag_140\n      0x04\n      dup1\n      calldatasize\n      sub\n      0xa0\n      dup2\n      lt\n      iszero\n      tag_141\n      jumpi\n      0x00\n      dup1\n      revert\n    tag_141:\n      dup2\n      add\n      swap1\n      dup1\n      dup1\n      calldataload\n      swap1\n      0x20\n      add\n      swap1\n      swap3\n      swap2\n      swap1\n      dup1\n      calldataload\n      swap1\n      0x20\n      add\n      swap1\n      swap3\n      swap2\n      swap1\n      dup1\n      calldataload\n      0xffff\n      and\n      swap1\n      0x20\n      add\n      swap1\n      swap3\n      swap2\n      swap1\n      dup1\n      calldataload\n      iszero\n      iszero\n      swap1\n      0x20\n      add\n      swap1\n      swap3\n      swap2\n      swap1\n      dup1\n      calldataload\n      swap1\n      0x20\n      add\n      swap1\n      swap3\n      swap2\n      swap1\n      pop\n      pop\n      pop\n      tag_142\n      jump\t// in\n    tag_140:\n      stop\n        /* \"TEXOToken.sol\":36514:36558  mapping(IBEP20 => bool) public poolExistence */\n    tag_38:\n      tag_143\n      0x04\n      dup1\n      calldatasize\n      sub\n      0x20\n      dup2\n      lt\n      iszero\n      tag_144\n      jumpi\n      0x00\n      dup1\n      revert\n    tag_144:\n      dup2\n      add\n      swap1\n      dup1\n      dup1\n      calldataload\n      0xffffffffffffffffffffffffffffffffffffffff\n      and\n      swap1\n      0x20\n      add\n      swap1\n      swap3\n      swap2\n      swap1\n      pop\n      pop\n      pop\n      tag_145\n      jump\t// in\n    tag_143:\n      mload(0x40)\n      dup1\n      dup3\n      iszero\n      iszero\n      dup2\n      mstore\n      0x20\n      add\n      swap2\n      pop\n      pop\n      mload(0x40)\n      dup1\n      swap2\n      sub\n      swap1\n      return\n        /* \"TEXOToken.sol\":49447:49700  function setDevAddress(address _devaddr) public {... */\n    tag_39:\n      tag_146\n      0x04\n      dup1\n      calldatasize\n      sub\n      0x20\n      dup2\n      lt\n      iszero\n      tag_147\n      jumpi\n      0x00\n      dup1\n      revert\n    tag_147:\n      dup2\n      add\n      swap1\n      dup1\n      dup1\n      calldataload\n      0xffffffffffffffffffffffffffffffffffffffff\n      and\n      swap1\n      0x20\n      add\n      swap1\n      swap3\n      swap2\n      swap1\n      pop\n      pop\n      pop\n      tag_148\n      jump\t// in\n    tag_146:\n      stop\n        /* \"TEXOToken.sol\":36938:37002  uint256 public constant EMISSION_REDUCTION_PERIOD_BLOCKS = 14400 */\n    tag_40:\n      tag_149\n      tag_150\n      jump\t// in\n    tag_149:\n      mload(0x40)\n      dup1\n      dup3\n      dup2\n      mstore\n      0x20\n      add\n      swap2\n      pop\n      pop\n      mload(0x40)\n      dup1\n      swap2\n      sub\n      swap1\n      return\n        /* \"TEXOToken.sol\":35441:35463  address public devAddr */\n    tag_41:\n      tag_151\n      tag_152\n      jump\t// in\n    tag_151:\n      mload(0x40)\n      dup1\n      dup3\n      0xffffffffffffffffffffffffffffffffffffffff\n      and\n      dup2\n      mstore\n      0x20\n      add\n      swap2\n      pop\n      pop\n      mload(0x40)\n      dup1\n      swap2\n      sub\n      swap1\n      return\n        /* \"TEXOToken.sol\":41272:42219  function pendingTEXO(uint256 _pid, address _user) external view returns (uint256) {... */\n    tag_42:\n      tag_153\n      0x04\n      dup1\n      calldatasize\n      sub\n      0x40\n      dup2\n      lt\n      iszero\n      tag_154\n      jumpi\n      0x00\n      dup1\n      revert\n    tag_154:\n      dup2\n      add\n      swap1\n      dup1\n      dup1\n      calldataload\n      swap1\n      0x20\n      add\n      swap1\n      swap3\n      swap2\n      swap1\n      dup1\n      calldataload\n      0xffffffffffffffffffffffffffffffffffffffff\n      and\n      swap1\n      0x20\n      add\n      swap1\n      swap3\n      swap2\n      swap1\n      pop\n      pop\n      pop\n      tag_155\n      jump\t// in\n    tag_153:\n      mload(0x40)\n      dup1\n      dup3\n      dup2\n      mstore\n      0x20\n      add\n      swap2\n      pop\n      pop\n      mload(0x40)\n      dup1\n      swap2\n      sub\n      swap1\n      return\n        /* \"TEXOToken.sol\":44051:45590  function deposit(uint256 _pid, uint256 _amount) public nonReentrant {... */\n    tag_43:\n      tag_156\n      0x04\n      dup1\n      calldatasize\n      sub\n      0x40\n      dup2\n      lt\n      iszero\n      tag_157\n      jumpi\n      0x00\n      dup1\n      revert\n    tag_157:\n      dup2\n      add\n      swap1\n      dup1\n      dup1\n      calldataload\n      swap1\n      0x20\n      add\n      swap1\n      swap3\n      swap2\n      swap1\n      dup1\n      calldataload\n      swap1\n      0x20\n      add\n      swap1\n      swap3\n      swap2\n      swap1\n      pop\n      pop\n      pop\n      tag_158\n      jump\t// in\n    tag_156:\n      stop\n        /* \"TEXOToken.sol\":50202:51601  function reduceEmissionRateWithDefaultRate() public {... */\n    tag_44:\n      tag_159\n      tag_160\n      jump\t// in\n    tag_159:\n      stop\n        /* \"TEXOToken.sol\":12366:12473  function transferOwnership(address newOwner) public onlyOwner {... */\n    tag_45:\n      tag_161\n      0x04\n      dup1\n      calldatasize\n      sub\n      0x20\n      dup2\n      lt\n      iszero\n      tag_162\n      jumpi\n      0x00\n      dup1\n      revert\n    tag_162:\n      dup2\n      add\n      swap1\n      dup1\n      dup1\n      calldataload\n      0xffffffffffffffffffffffffffffffffffffffff\n      and\n      swap1\n      0x20\n      add\n      swap1\n      swap3\n      swap2\n      swap1\n      pop\n      pop\n      pop\n      tag_163\n      jump\t// in\n    tag_161:\n      stop\n        /* \"TEXOToken.sol\":39281:40249  function add(... */\n    tag_46:\n      tag_164\n      0x04\n      dup1\n      calldatasize\n      sub\n      0xa0\n      dup2\n      lt\n      iszero\n      tag_165\n      jumpi\n      0x00\n      dup1\n      revert\n    tag_165:\n      dup2\n      add\n      swap1\n      dup1\n      dup1\n      calldataload\n      swap1\n      0x20\n      add\n      swap1\n      swap3\n      swap2\n      swap1\n      dup1\n      calldataload\n      0xffffffffffffffffffffffffffffffffffffffff\n      and\n      swap1\n      0x20\n      add\n      swap1\n      swap3\n      swap2\n      swap1\n      dup1\n      calldataload\n      0xffff\n      and\n      swap1\n      0x20\n      add\n      swap1\n      swap3\n      swap2\n      swap1\n      dup1\n      calldataload\n      iszero\n      iszero\n      swap1\n      0x20\n      add\n      swap1\n      swap3\n      swap2\n      swap1\n      dup1\n      calldataload\n      swap1\n      0x20\n      add\n      swap1\n      swap3\n      swap2\n      swap1\n      pop\n      pop\n      pop\n      tag_166\n      jump\t// in\n    tag_164:\n      stop\n        /* \"TEXOToken.sol\":38494:38587  function poolLength() external view returns (uint256) {... */\n    tag_55:\n        /* \"TEXOToken.sol\":38539:38546  uint256 */\n      0x00\n        /* \"TEXOToken.sol\":38565:38573  poolInfo */\n      0x07\n        /* \"TEXOToken.sol\":38565:38580  poolInfo.length */\n      dup1\n      sload\n      swap1\n      pop\n        /* \"TEXOToken.sol\":38558:38580  return poolInfo.length */\n      swap1\n      pop\n        /* \"TEXOToken.sol\":38494:38587  function poolLength() external view returns (uint256) {... */\n      swap1\n      jump\t// out\n        /* \"TEXOToken.sol\":35725:35751  PoolInfo[] public poolInfo */\n    tag_58:\n      0x07\n      dup2\n      dup2\n      sload\n      dup2\n      lt\n      tag_168\n      jumpi\n      invalid\n    tag_168:\n      swap1\n      0x00\n      mstore\n      keccak256(0x00, 0x20)\n      swap1\n      0x06\n      mul\n      add\n      0x00\n      swap2\n      pop\n      swap1\n      pop\n      dup1\n      0x00\n      add\n      0x00\n      swap1\n      sload\n      swap1\n      0x0100\n      exp\n      swap1\n      div\n      0xffffffffffffffffffffffffffffffffffffffff\n      and\n      swap1\n      dup1\n      0x01\n      add\n      sload\n      swap1\n      dup1\n      0x02\n      add\n      sload\n      swap1\n      dup1\n      0x03\n      add\n      sload\n      swap1\n      dup1\n      0x04\n      add\n      sload\n      swap1\n      dup1\n      0x05\n      add\n      0x00\n      swap1\n      sload\n      swap1\n      0x0100\n      exp\n      swap1\n      div\n      0xffff\n      and\n      swap1\n      pop\n      dup7\n      jump\t// out\n        /* \"TEXOToken.sol\":35962:35996  uint256 public totalAllocPoint = 0 */\n    tag_60:\n      sload(0x09)\n      dup2\n      jump\t// out\n        /* \"TEXOToken.sol\":38806:39024  function getPoolIdForLpToken(IBEP20 _lpToken) external view returns (uint256) {... */\n    tag_63:\n        /* \"TEXOToken.sol\":38875:38882  uint256 */\n      0x00\n        /* \"TEXOToken.sol\":38929:38934  false */\n      dup1\n        /* \"TEXOToken.sol\":38902:38934  poolExistence[_lpToken] != false */\n      iszero\n      iszero\n        /* \"TEXOToken.sol\":38902:38915  poolExistence */\n      0x0d\n        /* \"TEXOToken.sol\":38902:38925  poolExistence[_lpToken] */\n      0x00\n        /* \"TEXOToken.sol\":38916:38924  _lpToken */\n      dup5\n        /* \"TEXOToken.sol\":38902:38925  poolExistence[_lpToken] */\n      0xffffffffffffffffffffffffffffffffffffffff\n      and\n      0xffffffffffffffffffffffffffffffffffffffff\n      and\n      dup2\n      mstore\n      0x20\n      add\n      swap1\n      dup2\n      mstore\n      0x20\n      add\n      0x00\n      keccak256\n      0x00\n      swap1\n      sload\n      swap1\n      0x0100\n      exp\n      swap1\n      div\n      0xff\n      and\n        /* \"TEXOToken.sol\":38902:38934  poolExistence[_lpToken] != false */\n      iszero\n      iszero\n      eq\n      iszero\n        /* \"TEXOToken.sol\":38894:38972  require(poolExistence[_lpToken] != false, \"getPoolIdForLpToken: do not exist\") */\n      tag_171\n      jumpi\n      mload(0x40)\n      0x08c379a000000000000000000000000000000000000000000000000000000000\n      dup2\n      mstore\n      0x04\n      add\n      dup1\n      dup1\n      0x20\n      add\n      dup3\n      dup2\n      sub\n      dup3\n      mstore\n      0x21\n      dup2\n      mstore\n      0x20\n      add\n      dup1\n      data_bf35de78f3e15a98c58afdc189c393a6a76029783bd8ecfd3a8b87b4a628fd85\n      0x21\n      swap2\n      codecopy\n      0x40\n      add\n      swap2\n      pop\n      pop\n      mload(0x40)\n      dup1\n      swap2\n      sub\n      swap1\n      revert\n    tag_171:\n        /* \"TEXOToken.sol\":38989:39007  poolIdForLpAddress */\n      0x0e\n        /* \"TEXOToken.sol\":38989:39017  poolIdForLpAddress[_lpToken] */\n      0x00\n        /* \"TEXOToken.sol\":39008:39016  _lpToken */\n      dup4\n        /* \"TEXOToken.sol\":38989:39017  poolIdForLpAddress[_lpToken] */\n      0xffffffffffffffffffffffffffffffffffffffff\n      and\n      0xffffffffffffffffffffffffffffffffffffffff\n      and\n      dup2\n      mstore\n      0x20\n      add\n      swap1\n      dup2\n      mstore\n      0x20\n      add\n      0x00\n      keccak256\n      sload\n        /* \"TEXOToken.sol\":38982:39017  return poolIdForLpAddress[_lpToken] */\n      swap1\n      pop\n        /* \"TEXOToken.sol\":38806:39024  function getPoolIdForLpToken(IBEP20 _lpToken) external view returns (uint256) {... */\n      swap2\n      swap1\n      pop\n      jump\t// out\n        /* \"TEXOToken.sol\":38593:38800  function setBlockToStartReducingEmissionRate(uint256 _blockToStartReducingEmissionRate) external onlyOwner {... */\n    tag_66:\n        /* \"TEXOToken.sol\":11671:11683  _msgSender() */\n      tag_173\n        /* \"TEXOToken.sol\":11671:11681  _msgSender */\n      tag_174\n        /* \"TEXOToken.sol\":11671:11683  _msgSender() */\n      jump\t// in\n    tag_173:\n        /* \"TEXOToken.sol\":11661:11683  _owner == _msgSender() */\n      0xffffffffffffffffffffffffffffffffffffffff\n      and\n        /* \"TEXOToken.sol\":11661:11667  _owner */\n      0x00\n      dup1\n      sload\n      swap1\n      0x0100\n      exp\n      swap1\n      div\n      0xffffffffffffffffffffffffffffffffffffffff\n      and\n        /* \"TEXOToken.sol\":11661:11683  _owner == _msgSender() */\n      0xffffffffffffffffffffffffffffffffffffffff\n      and\n      eq\n        /* \"TEXOToken.sol\":11653:11720  require(_owner == _msgSender(), \"Ownable: caller is not the owner\") */\n      tag_175\n      jumpi\n      mload(0x40)\n      0x08c379a000000000000000000000000000000000000000000000000000000000\n      dup2\n      mstore\n      0x04\n      add\n      dup1\n      dup1\n      0x20\n      add\n      dup3\n      dup2\n      sub\n      dup3\n      mstore\n      0x20\n      dup2\n      mstore\n      0x20\n      add\n      dup1\n      0x4f776e61626c653a2063616c6c6572206973206e6f7420746865206f776e6572\n      dup2\n      mstore\n      pop\n      0x20\n      add\n      swap2\n      pop\n      pop\n      mload(0x40)\n      dup1\n      swap2\n      sub\n      swap1\n      revert\n    tag_175:\n        /* \"TEXOToken.sol\":38760:38793  _blockToStartReducingEmissionRate */\n      dup1\n        /* \"TEXOToken.sol\":38745:38757  block.number */\n      number\n        /* \"TEXOToken.sol\":38745:38793  block.number + _blockToStartReducingEmissionRate */\n      add\n        /* \"TEXOToken.sol\":38710:38742  blockToStartReducingEmissionRate */\n      0x06\n        /* \"TEXOToken.sol\":38710:38793  blockToStartReducingEmissionRate = block.number + _blockToStartReducingEmissionRate */\n      dup2\n      swap1\n      sstore\n      pop\n        /* \"TEXOToken.sol\":38593:38800  function setBlockToStartReducingEmissionRate(uint256 _blockToStartReducingEmissionRate) external onlyOwner {... */\n      pop\n      jump\t// out\n        /* \"TEXOToken.sol\":36227:36276  uint16 public constant MAXIMUM_REFERRAL_BP = 2000 */\n    tag_68:\n        /* \"TEXOToken.sol\":36272:36276  2000 */\n      0x07d0\n        /* \"TEXOToken.sol\":36227:36276  uint16 public constant MAXIMUM_REFERRAL_BP = 2000 */\n      dup2\n      jump\t// out\n        /* \"TEXOToken.sol\":52284:52390  function getReferral(address _user) public view returns (address) {... */\n    tag_71:\n        /* \"TEXOToken.sol\":52341:52348  address */\n      0x00\n        /* \"TEXOToken.sol\":52367:52376  referrers */\n      0x0b\n        /* \"TEXOToken.sol\":52367:52383  referrers[_user] */\n      0x00\n        /* \"TEXOToken.sol\":52377:52382  _user */\n      dup4\n        /* \"TEXOToken.sol\":52367:52383  referrers[_user] */\n      0xffffffffffffffffffffffffffffffffffffffff\n      and\n      0xffffffffffffffffffffffffffffffffffffffff\n      and\n      dup2\n      mstore\n      0x20\n      add\n      swap1\n      dup2\n      mstore\n      0x20\n      add\n      0x00\n      keccak256\n      0x00\n      swap1\n      sload\n      swap1\n      0x0100\n      exp\n      swap1\n      div\n      0xffffffffffffffffffffffffffffffffffffffff\n      and\n        /* \"TEXOToken.sol\":52360:52383  return referrers[_user] */\n      swap1\n      pop\n        /* \"TEXOToken.sol\":52284:52390  function getReferral(address _user) public view returns (address) {... */\n      swap2\n      swap1\n      pop\n      jump\t// out\n        /* \"TEXOToken.sol\":36395:36443  mapping(address => uint256) public referredCount */\n    tag_74:\n      mstore(0x20, 0x0c)\n      dup1\n      0x00\n      mstore\n      keccak256(0x00, 0x40)\n      0x00\n      swap2\n      pop\n      swap1\n      pop\n      sload\n      dup2\n      jump\t// out\n        /* \"TEXOToken.sol\":35567:35592  address public feeAddress */\n    tag_76:\n      0x05\n      0x00\n      swap1\n      sload\n      swap1\n      0x0100\n      exp\n      swap1\n      div\n      0xffffffffffffffffffffffffffffffffffffffff\n      and\n      dup2\n      jump\t// out\n        /* \"TEXOToken.sol\":47476:48432  function withdraw(uint256 _pid, uint256 _amount) public nonReentrant {... */\n    tag_79:\n        /* \"TEXOToken.sol\":21204:21205  2 */\n      0x02\n        /* \"TEXOToken.sol\":21793:21800  _status */\n      sload(0x01)\n        /* \"TEXOToken.sol\":21793:21812  _status != _ENTERED */\n      eq\n      iszero\n        /* \"TEXOToken.sol\":21785:21848  require(_status != _ENTERED, \"ReentrancyGuard: reentrant call\") */\n      tag_179\n      jumpi\n      mload(0x40)\n      0x08c379a000000000000000000000000000000000000000000000000000000000\n      dup2\n      mstore\n      0x04\n      add\n      dup1\n      dup1\n      0x20\n      add\n      dup3\n      dup2\n      sub\n      dup3\n      mstore\n      0x1f\n      dup2\n      mstore\n      0x20\n      add\n      dup1\n      0x5265656e7472616e637947756172643a207265656e7472616e742063616c6c00\n      dup2\n      mstore\n      pop\n      0x20\n      add\n      swap2\n      pop\n      pop\n      mload(0x40)\n      dup1\n      swap2\n      sub\n      swap1\n      revert\n    tag_179:\n        /* \"TEXOToken.sol\":21204:21205  2 */\n      0x02\n        /* \"TEXOToken.sol\":21923:21930  _status */\n      0x01\n        /* \"TEXOToken.sol\":21923:21941  _status = _ENTERED */\n      dup2\n      swap1\n      sstore\n      pop\n        /* \"TEXOToken.sol\":47555:47576  PoolInfo storage pool */\n      0x00\n        /* \"TEXOToken.sol\":47579:47587  poolInfo */\n      0x07\n        /* \"TEXOToken.sol\":47588:47592  _pid */\n      dup4\n        /* \"TEXOToken.sol\":47579:47593  poolInfo[_pid] */\n      dup2\n      sload\n      dup2\n      lt\n      tag_181\n      jumpi\n      invalid\n    tag_181:\n      swap1\n      0x00\n      mstore\n      keccak256(0x00, 0x20)\n      swap1\n      0x06\n      mul\n      add\n        /* \"TEXOToken.sol\":47555:47593  PoolInfo storage pool = poolInfo[_pid] */\n      swap1\n      pop\n        /* \"TEXOToken.sol\":47603:47624  UserInfo storage user */\n      0x00\n        /* \"TEXOToken.sol\":47627:47635  userInfo */\n      0x08\n        /* \"TEXOToken.sol\":47627:47641  userInfo[_pid] */\n      0x00\n        /* \"TEXOToken.sol\":47636:47640  _pid */\n      dup6\n        /* \"TEXOToken.sol\":47627:47641  userInfo[_pid] */\n      dup2\n      mstore\n      0x20\n      add\n      swap1\n      dup2\n      mstore\n      0x20\n      add\n      0x00\n      keccak256\n        /* \"TEXOToken.sol\":47627:47653  userInfo[_pid][msg.sender] */\n      0x00\n        /* \"TEXOToken.sol\":47642:47652  msg.sender */\n      caller\n        /* \"TEXOToken.sol\":47627:47653  userInfo[_pid][msg.sender] */\n      0xffffffffffffffffffffffffffffffffffffffff\n      and\n      0xffffffffffffffffffffffffffffffffffffffff\n      and\n      dup2\n      mstore\n      0x20\n      add\n      swap1\n      dup2\n      mstore\n      0x20\n      add\n      0x00\n      keccak256\n        /* \"TEXOToken.sol\":47603:47653  UserInfo storage user = userInfo[_pid][msg.sender] */\n      swap1\n      pop\n        /* \"TEXOToken.sol\":47687:47694  _amount */\n      dup3\n        /* \"TEXOToken.sol\":47672:47676  user */\n      dup2\n        /* \"TEXOToken.sol\":47672:47683  user.amount */\n      0x00\n      add\n      sload\n        /* \"TEXOToken.sol\":47672:47694  user.amount >= _amount */\n      lt\n      iszero\n        /* \"TEXOToken.sol\":47664:47717  require(user.amount >= _amount, \"withdraw: not good\") */\n      tag_183\n      jumpi\n      mload(0x40)\n      0x08c379a000000000000000000000000000000000000000000000000000000000\n      dup2\n      mstore\n      0x04\n      add\n      dup1\n      dup1\n      0x20\n      add\n      dup3\n      dup2\n      sub\n      dup3\n      mstore\n      0x12\n      dup2\n      mstore\n      0x20\n      add\n      dup1\n      0x77697468647261773a206e6f7420676f6f640000000000000000000000000000\n      dup2\n      mstore\n      pop\n      0x20\n      add\n      swap2\n      pop\n      pop\n      mload(0x40)\n      dup1\n      swap2\n      sub\n      swap1\n      revert\n    tag_183:\n        /* \"TEXOToken.sol\":47728:47744  updatePool(_pid) */\n      tag_184\n        /* \"TEXOToken.sol\":47739:47743  _pid */\n      dup5\n        /* \"TEXOToken.sol\":47728:47738  updatePool */\n      tag_87\n        /* \"TEXOToken.sol\":47728:47744  updatePool(_pid) */\n      jump\t// in\n    tag_184:\n        /* \"TEXOToken.sol\":47755:47775  bool canWithdrawTEXO */\n      0x00\n        /* \"TEXOToken.sol\":47778:47801  canWithdrawReward(_pid) */\n      tag_185\n        /* \"TEXOToken.sol\":47796:47800  _pid */\n      dup6\n        /* \"TEXOToken.sol\":47778:47795  canWithdrawReward */\n      tag_137\n        /* \"TEXOToken.sol\":47778:47801  canWithdrawReward(_pid) */\n      jump\t// in\n    tag_185:\n        /* \"TEXOToken.sol\":47755:47801  bool canWithdrawTEXO = canWithdrawReward(_pid) */\n      swap1\n      pop\n        /* \"TEXOToken.sol\":47812:47827  uint256 pending */\n      0x00\n        /* \"TEXOToken.sol\":47830:47937  user.amount... */\n      tag_186\n        /* \"TEXOToken.sol\":47921:47925  user */\n      dup4\n        /* \"TEXOToken.sol\":47921:47936  user.rewardDebt */\n      0x01\n      add\n      sload\n        /* \"TEXOToken.sol\":47830:47903  user.amount... */\n      tag_187\n        /* \"TEXOToken.sol\":47898:47902  1e12 */\n      0xe8d4a51000\n        /* \"TEXOToken.sol\":47830:47880  user.amount... */\n      tag_188\n        /* \"TEXOToken.sol\":47859:47863  pool */\n      dup9\n        /* \"TEXOToken.sol\":47859:47879  pool.accTEXOPerShare */\n      0x04\n      add\n      sload\n        /* \"TEXOToken.sol\":47830:47834  user */\n      dup9\n        /* \"TEXOToken.sol\":47830:47841  user.amount */\n      0x00\n      add\n      sload\n        /* \"TEXOToken.sol\":47830:47858  user.amount... */\n      tag_189\n      swap1\n        /* \"TEXOToken.sol\":47830:47880  user.amount... */\n      swap2\n      swap1\n      0xffffffff\n      and\n      jump\t// in\n    tag_188:\n        /* \"TEXOToken.sol\":47830:47897  user.amount... */\n      tag_190\n      swap1\n        /* \"TEXOToken.sol\":47830:47903  user.amount... */\n      swap2\n      swap1\n      0xffffffff\n      and\n      jump\t// in\n    tag_187:\n        /* \"TEXOToken.sol\":47830:47920  user.amount... */\n      tag_191\n      swap1\n        /* \"TEXOToken.sol\":47830:47937  user.amount... */\n      swap2\n      swap1\n      0xffffffff\n      and\n      jump\t// in\n    tag_186:\n        /* \"TEXOToken.sol\":47812:47937  uint256 pending = user.amount... */\n      swap1\n      pop\n        /* \"TEXOToken.sol\":47952:47967  canWithdrawTEXO */\n      dup2\n        /* \"TEXOToken.sol\":47952:47982  canWithdrawTEXO && pending > 0 */\n      dup1\n      iszero\n      tag_192\n      jumpi\n      pop\n        /* \"TEXOToken.sol\":47981:47982  0 */\n      0x00\n        /* \"TEXOToken.sol\":47971:47978  pending */\n      dup2\n        /* \"TEXOToken.sol\":47971:47982  pending > 0 */\n      gt\n        /* \"TEXOToken.sol\":47952:47982  canWithdrawTEXO && pending > 0 */\n    tag_192:\n        /* \"TEXOToken.sol\":47948:48216  if (canWithdrawTEXO && pending > 0) {... */\n      iszero\n      tag_193\n      jumpi\n        /* \"TEXOToken.sol\":47998:48035  safeTEXOTransfer(msg.sender, pending) */\n      tag_194\n        /* \"TEXOToken.sol\":48015:48025  msg.sender */\n      caller\n        /* \"TEXOToken.sol\":48027:48034  pending */\n      dup3\n        /* \"TEXOToken.sol\":47998:48014  safeTEXOTransfer */\n      tag_195\n        /* \"TEXOToken.sol\":47998:48035  safeTEXOTransfer(msg.sender, pending) */\n      jump\t// in\n    tag_194:\n        /* \"TEXOToken.sol\":48049:48091  payReferralCommission(msg.sender, pending) */\n      tag_196\n        /* \"TEXOToken.sol\":48071:48081  msg.sender */\n      caller\n        /* \"TEXOToken.sol\":48083:48090  pending */\n      dup3\n        /* \"TEXOToken.sol\":48049:48070  payReferralCommission */\n      tag_197\n        /* \"TEXOToken.sol\":48049:48091  payReferralCommission(msg.sender, pending) */\n      jump\t// in\n    tag_196:\n        /* \"TEXOToken.sol\":48124:48205  user.amount... */\n      tag_198\n        /* \"TEXOToken.sol\":48200:48204  1e12 */\n      0xe8d4a51000\n        /* \"TEXOToken.sol\":48124:48178  user.amount... */\n      tag_199\n        /* \"TEXOToken.sol\":48157:48161  pool */\n      dup7\n        /* \"TEXOToken.sol\":48157:48177  pool.accTEXOPerShare */\n      0x04\n      add\n      sload\n        /* \"TEXOToken.sol\":48124:48128  user */\n      dup7\n        /* \"TEXOToken.sol\":48124:48135  user.amount */\n      0x00\n      add\n      sload\n        /* \"TEXOToken.sol\":48124:48156  user.amount... */\n      tag_189\n      swap1\n        /* \"TEXOToken.sol\":48124:48178  user.amount... */\n      swap2\n      swap1\n      0xffffffff\n      and\n      jump\t// in\n    tag_199:\n        /* \"TEXOToken.sol\":48124:48199  user.amount... */\n      tag_190\n      swap1\n        /* \"TEXOToken.sol\":48124:48205  user.amount... */\n      swap2\n      swap1\n      0xffffffff\n      and\n      jump\t// in\n    tag_198:\n        /* \"TEXOToken.sol\":48106:48110  user */\n      dup4\n        /* \"TEXOToken.sol\":48106:48121  user.rewardDebt */\n      0x01\n      add\n        /* \"TEXOToken.sol\":48106:48205  user.rewardDebt = user.amount... */\n      dup2\n      swap1\n      sstore\n      pop\n        /* \"TEXOToken.sol\":47948:48216  if (canWithdrawTEXO && pending > 0) {... */\n    tag_193:\n        /* \"TEXOToken.sol\":48240:48241  0 */\n      0x00\n        /* \"TEXOToken.sol\":48230:48237  _amount */\n      dup6\n        /* \"TEXOToken.sol\":48230:48241  _amount > 0 */\n      gt\n        /* \"TEXOToken.sol\":48226:48375  if (_amount > 0) {... */\n      iszero\n      tag_200\n      jumpi\n        /* \"TEXOToken.sol\":48271:48295  user.amount.sub(_amount) */\n      tag_201\n        /* \"TEXOToken.sol\":48287:48294  _amount */\n      dup6\n        /* \"TEXOToken.sol\":48271:48275  user */\n      dup5\n        /* \"TEXOToken.sol\":48271:48282  user.amount */\n      0x00\n      add\n      sload\n        /* \"TEXOToken.sol\":48271:48286  user.amount.sub */\n      tag_191\n      swap1\n        /* \"TEXOToken.sol\":48271:48295  user.amount.sub(_amount) */\n      swap2\n      swap1\n      0xffffffff\n      and\n      jump\t// in\n    tag_201:\n        /* \"TEXOToken.sol\":48257:48261  user */\n      dup4\n        /* \"TEXOToken.sol\":48257:48268  user.amount */\n      0x00\n      add\n        /* \"TEXOToken.sol\":48257:48295  user.amount = user.amount.sub(_amount) */\n      dup2\n      swap1\n      sstore\n      pop\n        /* \"TEXOToken.sol\":48309:48364  pool.lpToken.safeTransfer(address(msg.sender), _amount) */\n      tag_202\n        /* \"TEXOToken.sol\":48343:48353  msg.sender */\n      caller\n        /* \"TEXOToken.sol\":48356:48363  _amount */\n      dup7\n        /* \"TEXOToken.sol\":48309:48313  pool */\n      dup7\n        /* \"TEXOToken.sol\":48309:48321  pool.lpToken */\n      0x00\n      add\n      0x00\n      swap1\n      sload\n      swap1\n      0x0100\n      exp\n      swap1\n      div\n      0xffffffffffffffffffffffffffffffffffffffff\n      and\n        /* \"TEXOToken.sol\":48309:48334  pool.lpToken.safeTransfer */\n      0xffffffffffffffffffffffffffffffffffffffff\n      and\n      tag_203\n      swap1\n        /* \"TEXOToken.sol\":48309:48364  pool.lpToken.safeTransfer(address(msg.sender), _amount) */\n      swap3\n      swap2\n      swap1\n      0xffffffff\n      and\n      jump\t// in\n    tag_202:\n        /* \"TEXOToken.sol\":48226:48375  if (_amount > 0) {... */\n    tag_200:\n        /* \"TEXOToken.sol\":48411:48415  _pid */\n      dup6\n        /* \"TEXOToken.sol\":48399:48409  msg.sender */\n      caller\n        /* \"TEXOToken.sol\":48390:48425  Withdraw(msg.sender, _pid, _amount) */\n      0xffffffffffffffffffffffffffffffffffffffff\n      and\n      0xf279e6a1f5e320cca91135676d9cb6e44ca8a08c0b88342bcdb1144f6511b568\n        /* \"TEXOToken.sol\":48417:48424  _amount */\n      dup8\n        /* \"TEXOToken.sol\":48390:48425  Withdraw(msg.sender, _pid, _amount) */\n      mload(0x40)\n      dup1\n      dup3\n      dup2\n      mstore\n      0x20\n      add\n      swap2\n      pop\n      pop\n      mload(0x40)\n      dup1\n      swap2\n      sub\n      swap1\n      log3\n        /* \"TEXOToken.sol\":21952:21953  _ */\n      pop\n      pop\n      pop\n      pop\n        /* \"TEXOToken.sol\":21161:21162  1 */\n      0x01\n        /* \"TEXOToken.sol\":22096:22103  _status */\n      dup1\n        /* \"TEXOToken.sol\":22096:22118  _status = _NOT_ENTERED */\n      dup2\n      swap1\n      sstore\n      pop\n        /* \"TEXOToken.sol\":47476:48432  function withdraw(uint256 _pid, uint256 _amount) public nonReentrant {... */\n      pop\n      pop\n      jump\t// out\n        /* \"TEXOToken.sol\":37226:37271  bool public isAllowReduceEmissionRate = false */\n    tag_81:\n      0x10\n      0x00\n      swap1\n      sload\n      swap1\n      0x0100\n      exp\n      swap1\n      div\n      0xff\n      and\n      dup2\n      jump\t// out\n        /* \"TEXOToken.sol\":36306:36350  mapping(address => address) public referrers */\n    tag_84:\n      mstore(0x20, 0x0b)\n      dup1\n      0x00\n      mstore\n      keccak256(0x00, 0x40)\n      0x00\n      swap2\n      pop\n      sload\n      swap1\n      0x0100\n      exp\n      swap1\n      div\n      0xffffffffffffffffffffffffffffffffffffffff\n      and\n      dup2\n      jump\t// out\n        /* \"TEXOToken.sol\":42547:43797  function updatePool(uint256 _pid) public {... */\n    tag_87:\n        /* \"TEXOToken.sol\":42598:42619  PoolInfo storage pool */\n      0x00\n        /* \"TEXOToken.sol\":42622:42630  poolInfo */\n      0x07\n        /* \"TEXOToken.sol\":42631:42635  _pid */\n      dup3\n        /* \"TEXOToken.sol\":42622:42636  poolInfo[_pid] */\n      dup2\n      sload\n      dup2\n      lt\n      tag_205\n      jumpi\n      invalid\n    tag_205:\n      swap1\n      0x00\n      mstore\n      keccak256(0x00, 0x20)\n      swap1\n      0x06\n      mul\n      add\n        /* \"TEXOToken.sol\":42598:42636  PoolInfo storage pool = poolInfo[_pid] */\n      swap1\n      pop\n        /* \"TEXOToken.sol\":42667:42671  pool */\n      dup1\n        /* \"TEXOToken.sol\":42667:42687  pool.lastRewardBlock */\n      0x03\n      add\n      sload\n        /* \"TEXOToken.sol\":42651:42663  block.number */\n      number\n        /* \"TEXOToken.sol\":42651:42687  block.number <= pool.lastRewardBlock */\n      gt\n        /* \"TEXOToken.sol\":42647:42720  if (block.number <= pool.lastRewardBlock) {... */\n      tag_207\n      jumpi\n        /* \"TEXOToken.sol\":42703:42710  return; */\n      pop\n      jump(tag_204)\n        /* \"TEXOToken.sol\":42647:42720  if (block.number <= pool.lastRewardBlock) {... */\n    tag_207:\n        /* \"TEXOToken.sol\":42730:42746  uint256 lpSupply */\n      0x00\n        /* \"TEXOToken.sol\":42749:42753  pool */\n      dup2\n        /* \"TEXOToken.sol\":42749:42761  pool.lpToken */\n      0x00\n      add\n      0x00\n      swap1\n      sload\n      swap1\n      0x0100\n      exp\n      swap1\n      div\n      0xffffffffffffffffffffffffffffffffffffffff\n      and\n        /* \"TEXOToken.sol\":42749:42771  pool.lpToken.balanceOf */\n      0xffffffffffffffffffffffffffffffffffffffff\n      and\n      0x70a08231\n        /* \"TEXOToken.sol\":42780:42784  this */\n      address\n        /* \"TEXOToken.sol\":42749:42786  pool.lpToken.balanceOf(address(this)) */\n      mload(0x40)\n      dup3\n      0xffffffff\n      and\n      0xe0\n      shl\n      dup2\n      mstore\n      0x04\n      add\n      dup1\n      dup3\n      0xffffffffffffffffffffffffffffffffffffffff\n      and\n      dup2\n      mstore\n      0x20\n      add\n      swap2\n      pop\n      pop\n      0x20\n      mload(0x40)\n      dup1\n      dup4\n      sub\n      dup2\n      dup7\n      dup1\n      extcodesize\n      iszero\n      dup1\n      iszero\n      tag_208\n      jumpi\n      0x00\n      dup1\n      revert\n    tag_208:\n      pop\n      gas\n      staticcall\n      iszero\n      dup1\n      iszero\n      tag_210\n      jumpi\n      returndatasize\n      0x00\n      dup1\n      returndatacopy\n      revert(0x00, returndatasize)\n    tag_210:\n      pop\n      pop\n      pop\n      pop\n      mload(0x40)\n      returndatasize\n      0x20\n      dup2\n      lt\n      iszero\n      tag_211\n      jumpi\n      0x00\n      dup1\n      revert\n    tag_211:\n      dup2\n      add\n      swap1\n      dup1\n      dup1\n      mload\n      swap1\n      0x20\n      add\n      swap1\n      swap3\n      swap2\n      swap1\n      pop\n      pop\n      pop\n        /* \"TEXOToken.sol\":42730:42786  uint256 lpSupply = pool.lpToken.balanceOf(address(this)) */\n      swap1\n      pop\n        /* \"TEXOToken.sol\":42901:42902  0 */\n      0x00\n        /* \"TEXOToken.sol\":42889:42897  lpSupply */\n      dup2\n        /* \"TEXOToken.sol\":42889:42902  lpSupply == 0 */\n      eq\n        /* \"TEXOToken.sol\":42889:42926  lpSupply == 0 || pool.allocPoint == 0 */\n      dup1\n      tag_212\n      jumpi\n      pop\n        /* \"TEXOToken.sol\":42925:42926  0 */\n      0x00\n        /* \"TEXOToken.sol\":42906:42910  pool */\n      dup3\n        /* \"TEXOToken.sol\":42906:42921  pool.allocPoint */\n      0x01\n      add\n      sload\n        /* \"TEXOToken.sol\":42906:42926  pool.allocPoint == 0 */\n      eq\n        /* \"TEXOToken.sol\":42889:42926  lpSupply == 0 || pool.allocPoint == 0 */\n    tag_212:\n        /* \"TEXOToken.sol\":42885:43090  if (lpSupply == 0 || pool.allocPoint == 0) { // If pool initially has no staked WETH token, or pool has no allocation points.... */\n      iszero\n      tag_213\n      jumpi\n        /* \"TEXOToken.sol\":43046:43058  block.number */\n      number\n        /* \"TEXOToken.sol\":43023:43027  pool */\n      dup3\n        /* \"TEXOToken.sol\":43023:43043  pool.lastRewardBlock */\n      0x03\n      add\n        /* \"TEXOToken.sol\":43023:43058  pool.lastRewardBlock = block.number */\n      dup2\n      swap1\n      sstore\n      pop\n        /* \"TEXOToken.sol\":43073:43080  return; */\n      pop\n      pop\n      jump(tag_204)\n        /* \"TEXOToken.sol\":42885:43090  if (lpSupply == 0 || pool.allocPoint == 0) { // If pool initially has no staked WETH token, or pool has no allocation points.... */\n    tag_213:\n        /* \"TEXOToken.sol\":43100:43118  uint256 multiplier */\n      0x00\n        /* \"TEXOToken.sol\":43121:43170  getMultiplier(pool.lastRewardBlock, block.number) */\n      tag_214\n        /* \"TEXOToken.sol\":43135:43139  pool */\n      dup4\n        /* \"TEXOToken.sol\":43135:43155  pool.lastRewardBlock */\n      0x03\n      add\n      sload\n        /* \"TEXOToken.sol\":43157:43169  block.number */\n      number\n        /* \"TEXOToken.sol\":43121:43134  getMultiplier */\n      tag_116\n        /* \"TEXOToken.sol\":43121:43170  getMultiplier(pool.lastRewardBlock, block.number) */\n      jump\t// in\n    tag_214:\n        /* \"TEXOToken.sol\":43100:43170  uint256 multiplier = getMultiplier(pool.lastRewardBlock, block.number) */\n      swap1\n      pop\n        /* \"TEXOToken.sol\":43241:43259  uint256 tEXOReward */\n      0x00\n        /* \"TEXOToken.sol\":43262:43371  multiplier... */\n      tag_215\n        /* \"TEXOToken.sol\":43355:43370  totalAllocPoint */\n      sload(0x09)\n        /* \"TEXOToken.sol\":43262:43337  multiplier... */\n      tag_216\n        /* \"TEXOToken.sol\":43321:43325  pool */\n      dup7\n        /* \"TEXOToken.sol\":43321:43336  pool.allocPoint */\n      0x01\n      add\n      sload\n        /* \"TEXOToken.sol\":43262:43303  multiplier... */\n      tag_217\n        /* \"TEXOToken.sol\":43290:43302  tEXOPerBlock */\n      sload(0x04)\n        /* \"TEXOToken.sol\":43262:43272  multiplier */\n      dup8\n        /* \"TEXOToken.sol\":43262:43289  multiplier... */\n      tag_189\n      swap1\n        /* \"TEXOToken.sol\":43262:43303  multiplier... */\n      swap2\n      swap1\n      0xffffffff\n      and\n      jump\t// in\n    tag_217:\n        /* \"TEXOToken.sol\":43262:43320  multiplier... */\n      tag_189\n      swap1\n        /* \"TEXOToken.sol\":43262:43337  multiplier... */\n      swap2\n      swap1\n      0xffffffff\n      and\n      jump\t// in\n    tag_216:\n        /* \"TEXOToken.sol\":43262:43354  multiplier... */\n      tag_190\n      swap1\n        /* \"TEXOToken.sol\":43262:43371  multiplier... */\n      swap2\n      swap1\n      0xffffffff\n      and\n      jump\t// in\n    tag_215:\n        /* \"TEXOToken.sol\":43241:43371  uint256 tEXOReward = multiplier... */\n      swap1\n      pop\n        /* \"TEXOToken.sol\":43382:43386  tEXO */\n      0x02\n      0x00\n      swap1\n      sload\n      swap1\n      0x0100\n      exp\n      swap1\n      div\n      0xffffffffffffffffffffffffffffffffffffffff\n      and\n        /* \"TEXOToken.sol\":43382:43391  tEXO.mint */\n      0xffffffffffffffffffffffffffffffffffffffff\n      and\n      0x40c10f19\n        /* \"TEXOToken.sol\":43392:43399  devAddr */\n      0x03\n      0x00\n      swap1\n      sload\n      swap1\n      0x0100\n      exp\n      swap1\n      div\n      0xffffffffffffffffffffffffffffffffffffffff\n      and\n        /* \"TEXOToken.sol\":43401:43419  tEXOReward.div(10) */\n      tag_218\n        /* \"TEXOToken.sol\":43416:43418  10 */\n      0x0a\n        /* \"TEXOToken.sol\":43401:43411  tEXOReward */\n      dup6\n        /* \"TEXOToken.sol\":43401:43415  tEXOReward.div */\n      tag_190\n      swap1\n        /* \"TEXOToken.sol\":43401:43419  tEXOReward.div(10) */\n      swap2\n      swap1\n      0xffffffff\n      and\n      jump\t// in\n    tag_218:\n        /* \"TEXOToken.sol\":43382:43420  tEXO.mint(devAddr, tEXOReward.div(10)) */\n      mload(0x40)\n      dup4\n      0xffffffff\n      and\n      0xe0\n      shl\n      dup2\n      mstore\n      0x04\n      add\n      dup1\n      dup4\n      0xffffffffffffffffffffffffffffffffffffffff\n      and\n      dup2\n      mstore\n      0x20\n      add\n      dup3\n      dup2\n      mstore\n      0x20\n      add\n      swap3\n      pop\n      pop\n      pop\n      0x00\n      mload(0x40)\n      dup1\n      dup4\n      sub\n      dup2\n      0x00\n      dup8\n      dup1\n      extcodesize\n      iszero\n      dup1\n      iszero\n      tag_219\n      jumpi\n      0x00\n      dup1\n      revert\n    tag_219:\n      pop\n      gas\n      call\n      iszero\n      dup1\n      iszero\n      tag_221\n      jumpi\n      returndatasize\n      0x00\n      dup1\n      returndatacopy\n      revert(0x00, returndatasize)\n    tag_221:\n      pop\n      pop\n      pop\n      pop\n        /* \"TEXOToken.sol\":43491:43495  tEXO */\n      0x02\n      0x00\n      swap1\n      sload\n      swap1\n      0x0100\n      exp\n      swap1\n      div\n      0xffffffffffffffffffffffffffffffffffffffff\n      and\n        /* \"TEXOToken.sol\":43491:43500  tEXO.mint */\n      0xffffffffffffffffffffffffffffffffffffffff\n      and\n      0x40c10f19\n        /* \"TEXOToken.sol\":43509:43513  this */\n      address\n        /* \"TEXOToken.sol\":43516:43526  tEXOReward */\n      dup4\n        /* \"TEXOToken.sol\":43491:43527  tEXO.mint(address(this), tEXOReward) */\n      mload(0x40)\n      dup4\n      0xffffffff\n      and\n      0xe0\n      shl\n      dup2\n      mstore\n      0x04\n      add\n      dup1\n      dup4\n      0xffffffffffffffffffffffffffffffffffffffff\n      and\n      dup2\n      mstore\n      0x20\n      add\n      dup3\n      dup2\n      mstore\n      0x20\n      add\n      swap3\n      pop\n      pop\n      pop\n      0x00\n      mload(0x40)\n      dup1\n      dup4\n      sub\n      dup2\n      0x00\n      dup8\n      dup1\n      extcodesize\n      iszero\n      dup1\n      iszero\n      tag_222\n      jumpi\n      0x00\n      dup1\n      revert\n    tag_222:\n      pop\n      gas\n      call\n      iszero\n      dup1\n      iszero\n      tag_224\n      jumpi\n      returndatasize\n      0x00\n      dup1\n      returndatacopy\n      revert(0x00, returndatasize)\n    tag_224:\n      pop\n      pop\n      pop\n      pop\n        /* \"TEXOToken.sol\":43607:43744  pool.accTEXOPerShare... */\n      tag_225\n        /* \"TEXOToken.sol\":43662:43730  tEXOReward... */\n      tag_226\n        /* \"TEXOToken.sol\":43721:43729  lpSupply */\n      dup5\n        /* \"TEXOToken.sol\":43662:43699  tEXOReward... */\n      tag_227\n        /* \"TEXOToken.sol\":43694:43698  1e12 */\n      0xe8d4a51000\n        /* \"TEXOToken.sol\":43662:43672  tEXOReward */\n      dup6\n        /* \"TEXOToken.sol\":43662:43693  tEXOReward... */\n      tag_189\n      swap1\n        /* \"TEXOToken.sol\":43662:43699  tEXOReward... */\n      swap2\n      swap1\n      0xffffffff\n      and\n      jump\t// in\n    tag_227:\n        /* \"TEXOToken.sol\":43662:43720  tEXOReward... */\n      tag_190\n      swap1\n        /* \"TEXOToken.sol\":43662:43730  tEXOReward... */\n      swap2\n      swap1\n      0xffffffff\n      and\n      jump\t// in\n    tag_226:\n        /* \"TEXOToken.sol\":43607:43611  pool */\n      dup6\n        /* \"TEXOToken.sol\":43607:43627  pool.accTEXOPerShare */\n      0x04\n      add\n      sload\n        /* \"TEXOToken.sol\":43607:43644  pool.accTEXOPerShare... */\n      tag_228\n      swap1\n        /* \"TEXOToken.sol\":43607:43744  pool.accTEXOPerShare... */\n      swap2\n      swap1\n      0xffffffff\n      and\n      jump\t// in\n    tag_225:\n        /* \"TEXOToken.sol\":43584:43588  pool */\n      dup5\n        /* \"TEXOToken.sol\":43584:43604  pool.accTEXOPerShare */\n      0x04\n      add\n        /* \"TEXOToken.sol\":43584:43744  pool.accTEXOPerShare = pool.accTEXOPerShare... */\n      dup2\n      swap1\n      sstore\n      pop\n        /* \"TEXOToken.sol\":43778:43790  block.number */\n      number\n        /* \"TEXOToken.sol\":43755:43759  pool */\n      dup5\n        /* \"TEXOToken.sol\":43755:43775  pool.lastRewardBlock */\n      0x03\n      add\n        /* \"TEXOToken.sol\":43755:43790  pool.lastRewardBlock = block.number */\n      dup2\n      swap1\n      sstore\n      pop\n        /* \"TEXOToken.sol\":42547:43797  function updatePool(uint256 _pid) public {... */\n      pop\n      pop\n      pop\n      pop\n    tag_204:\n      pop\n      jump\t// out\n        /* \"TEXOToken.sol\":48500:48864  function emergencyWithdraw(uint256 _pid) public nonReentrant {... */\n    tag_90:\n        /* \"TEXOToken.sol\":21204:21205  2 */\n      0x02\n        /* \"TEXOToken.sol\":21793:21800  _status */\n      sload(0x01)\n        /* \"TEXOToken.sol\":21793:21812  _status != _ENTERED */\n      eq\n      iszero\n        /* \"TEXOToken.sol\":21785:21848  require(_status != _ENTERED, \"ReentrancyGuard: reentrant call\") */\n      tag_230\n      jumpi\n      mload(0x40)\n      0x08c379a000000000000000000000000000000000000000000000000000000000\n      dup2\n      mstore\n      0x04\n      add\n      dup1\n      dup1\n      0x20\n      add\n      dup3\n      dup2\n      sub\n      dup3\n      mstore\n      0x1f\n      dup2\n      mstore\n      0x20\n      add\n      dup1\n      0x5265656e7472616e637947756172643a207265656e7472616e742063616c6c00\n      dup2\n      mstore\n      pop\n      0x20\n      add\n      swap2\n      pop\n      pop\n      mload(0x40)\n      dup1\n      swap2\n      sub\n      swap1\n      revert\n    tag_230:\n        /* \"TEXOToken.sol\":21204:21205  2 */\n      0x02\n        /* \"TEXOToken.sol\":21923:21930  _status */\n      0x01\n        /* \"TEXOToken.sol\":21923:21941  _status = _ENTERED */\n      dup2\n      swap1\n      sstore\n      pop\n        /* \"TEXOToken.sol\":48571:48592  PoolInfo storage pool */\n      0x00\n        /* \"TEXOToken.sol\":48595:48603  poolInfo */\n      0x07\n        /* \"TEXOToken.sol\":48604:48608  _pid */\n      dup3\n        /* \"TEXOToken.sol\":48595:48609  poolInfo[_pid] */\n      dup2\n      sload\n      dup2\n      lt\n      tag_232\n      jumpi\n      invalid\n    tag_232:\n      swap1\n      0x00\n      mstore\n      keccak256(0x00, 0x20)\n      swap1\n      0x06\n      mul\n      add\n        /* \"TEXOToken.sol\":48571:48609  PoolInfo storage pool = poolInfo[_pid] */\n      swap1\n      pop\n        /* \"TEXOToken.sol\":48619:48640  UserInfo storage user */\n      0x00\n        /* \"TEXOToken.sol\":48643:48651  userInfo */\n      0x08\n        /* \"TEXOToken.sol\":48643:48657  userInfo[_pid] */\n      0x00\n        /* \"TEXOToken.sol\":48652:48656  _pid */\n      dup5\n        /* \"TEXOToken.sol\":48643:48657  userInfo[_pid] */\n      dup2\n      mstore\n      0x20\n      add\n      swap1\n      dup2\n      mstore\n      0x20\n      add\n      0x00\n      keccak256\n        /* \"TEXOToken.sol\":48643:48669  userInfo[_pid][msg.sender] */\n      0x00\n        /* \"TEXOToken.sol\":48658:48668  msg.sender */\n      caller\n        /* \"TEXOToken.sol\":48643:48669  userInfo[_pid][msg.sender] */\n      0xffffffffffffffffffffffffffffffffffffffff\n      and\n      0xffffffffffffffffffffffffffffffffffffffff\n      and\n      dup2\n      mstore\n      0x20\n      add\n      swap1\n      dup2\n      mstore\n      0x20\n      add\n      0x00\n      keccak256\n        /* \"TEXOToken.sol\":48619:48669  UserInfo storage user = userInfo[_pid][msg.sender] */\n      swap1\n      pop\n        /* \"TEXOToken.sol\":48679:48738  pool.lpToken.safeTransfer(address(msg.sender), user.amount) */\n      tag_234\n        /* \"TEXOToken.sol\":48713:48723  msg.sender */\n      caller\n        /* \"TEXOToken.sol\":48726:48730  user */\n      dup3\n        /* \"TEXOToken.sol\":48726:48737  user.amount */\n      0x00\n      add\n      sload\n        /* \"TEXOToken.sol\":48679:48683  pool */\n      dup5\n        /* \"TEXOToken.sol\":48679:48691  pool.lpToken */\n      0x00\n      add\n      0x00\n      swap1\n      sload\n      swap1\n      0x0100\n      exp\n      swap1\n      div\n      0xffffffffffffffffffffffffffffffffffffffff\n      and\n        /* \"TEXOToken.sol\":48679:48704  pool.lpToken.safeTransfer */\n      0xffffffffffffffffffffffffffffffffffffffff\n      and\n      tag_203\n      swap1\n        /* \"TEXOToken.sol\":48679:48738  pool.lpToken.safeTransfer(address(msg.sender), user.amount) */\n      swap3\n      swap2\n      swap1\n      0xffffffff\n      and\n      jump\t// in\n    tag_234:\n        /* \"TEXOToken.sol\":48784:48788  _pid */\n      dup3\n        /* \"TEXOToken.sol\":48772:48782  msg.sender */\n      caller\n        /* \"TEXOToken.sol\":48754:48802  EmergencyWithdraw(msg.sender, _pid, user.amount) */\n      0xffffffffffffffffffffffffffffffffffffffff\n      and\n      0xbb757047c2b5f3974fe26b7c10f732e7bce710b0952a71082702781e62ae0595\n        /* \"TEXOToken.sol\":48790:48794  user */\n      dup4\n        /* \"TEXOToken.sol\":48790:48801  user.amount */\n      0x00\n      add\n      sload\n        /* \"TEXOToken.sol\":48754:48802  EmergencyWithdraw(msg.sender, _pid, user.amount) */\n      mload(0x40)\n      dup1\n      dup3\n      dup2\n      mstore\n      0x20\n      add\n      swap2\n      pop\n      pop\n      mload(0x40)\n      dup1\n      swap2\n      sub\n      swap1\n      log3\n        /* \"TEXOToken.sol\":48827:48828  0 */\n      0x00\n        /* \"TEXOToken.sol\":48813:48817  user */\n      dup2\n        /* \"TEXOToken.sol\":48813:48824  user.amount */\n      0x00\n      add\n        /* \"TEXOToken.sol\":48813:48828  user.amount = 0 */\n      dup2\n      swap1\n      sstore\n      pop\n        /* \"TEXOToken.sol\":48856:48857  0 */\n      0x00\n        /* \"TEXOToken.sol\":48838:48842  user */\n      dup2\n        /* \"TEXOToken.sol\":48838:48853  user.rewardDebt */\n      0x01\n      add\n        /* \"TEXOToken.sol\":48838:48857  user.rewardDebt = 0 */\n      dup2\n      swap1\n      sstore\n      pop\n        /* \"TEXOToken.sol\":21952:21953  _ */\n      pop\n      pop\n        /* \"TEXOToken.sol\":21161:21162  1 */\n      0x01\n        /* \"TEXOToken.sol\":22096:22103  _status */\n      dup1\n        /* \"TEXOToken.sol\":22096:22118  _status = _NOT_ENTERED */\n      dup2\n      swap1\n      sstore\n      pop\n        /* \"TEXOToken.sol\":48500:48864  function emergencyWithdraw(uint256 _pid) public nonReentrant {... */\n      pop\n      jump\t// out\n        /* \"TEXOToken.sol\":36819:36876  uint256 public constant MINIMUM_EMISSION_RATE = 50 finney */\n    tag_92:\n        /* \"TEXOToken.sol\":36867:36876  50 finney */\n      0xb1a2bc2ec50000\n        /* \"TEXOToken.sol\":36819:36876  uint256 public constant MINIMUM_EMISSION_RATE = 50 finney */\n      dup2\n      jump\t// out\n        /* \"TEXOToken.sol\":42299:42474  function massUpdatePools() public {... */\n    tag_94:\n        /* \"TEXOToken.sol\":42343:42357  uint256 length */\n      0x00\n        /* \"TEXOToken.sol\":42360:42368  poolInfo */\n      0x07\n        /* \"TEXOToken.sol\":42360:42375  poolInfo.length */\n      dup1\n      sload\n      swap1\n      pop\n        /* \"TEXOToken.sol\":42343:42375  uint256 length = poolInfo.length */\n      swap1\n      pop\n        /* \"TEXOToken.sol\":42390:42401  uint256 pid */\n      0x00\n        /* \"TEXOToken.sol\":42385:42468  for (uint256 pid = 0; pid < length; ++pid) {... */\n    tag_236:\n        /* \"TEXOToken.sol\":42413:42419  length */\n      dup2\n        /* \"TEXOToken.sol\":42407:42410  pid */\n      dup2\n        /* \"TEXOToken.sol\":42407:42419  pid < length */\n      lt\n        /* \"TEXOToken.sol\":42385:42468  for (uint256 pid = 0; pid < length; ++pid) {... */\n      iszero\n      tag_237\n      jumpi\n        /* \"TEXOToken.sol\":42442:42457  updatePool(pid) */\n      tag_239\n        /* \"TEXOToken.sol\":42453:42456  pid */\n      dup2\n        /* \"TEXOToken.sol\":42442:42452  updatePool */\n      tag_87\n        /* \"TEXOToken.sol\":42442:42457  updatePool(pid) */\n      jump\t// in\n    tag_239:\n        /* \"TEXOToken.sol\":42421:42426  ++pid */\n      dup1\n      0x01\n      add\n      swap1\n      pop\n        /* \"TEXOToken.sol\":42385:42468  for (uint256 pid = 0; pid < length; ++pid) {... */\n      jump(tag_236)\n    tag_237:\n      pop\n        /* \"TEXOToken.sol\":42299:42474  function massUpdatePools() public {... */\n      pop\n      jump\t// out\n        /* \"TEXOToken.sol\":53055:53502  function updateReferralBonusBp(uint256 _newRefBonusBp) public onlyOwner {... */\n    tag_97:\n        /* \"TEXOToken.sol\":11671:11683  _msgSender() */\n      tag_241\n        /* \"TEXOToken.sol\":11671:11681  _msgSender */\n      tag_174\n        /* \"TEXOToken.sol\":11671:11683  _msgSender() */\n      jump\t// in\n    tag_241:\n        /* \"TEXOToken.sol\":11661:11683  _owner == _msgSender() */\n      0xffffffffffffffffffffffffffffffffffffffff\n      and\n        /* \"TEXOToken.sol\":11661:11667  _owner */\n      0x00\n      dup1\n      sload\n      swap1\n      0x0100\n      exp\n      swap1\n      div\n      0xffffffffffffffffffffffffffffffffffffffff\n      and\n        /* \"TEXOToken.sol\":11661:11683  _owner == _msgSender() */\n      0xffffffffffffffffffffffffffffffffffffffff\n      and\n      eq\n        /* \"TEXOToken.sol\":11653:11720  require(_owner == _msgSender(), \"Ownable: caller is not the owner\") */\n      tag_242\n      jumpi\n      mload(0x40)\n      0x08c379a000000000000000000000000000000000000000000000000000000000\n      dup2\n      mstore\n      0x04\n      add\n      dup1\n      dup1\n      0x20\n      add\n      dup3\n      dup2\n      sub\n      dup3\n      mstore\n      0x20\n      dup2\n      mstore\n      0x20\n      add\n      dup1\n      0x4f776e61626c653a2063616c6c6572206973206e6f7420746865206f776e6572\n      dup2\n      mstore\n      pop\n      0x20\n      add\n      swap2\n      pop\n      pop\n      mload(0x40)\n      dup1\n      swap2\n      sub\n      swap1\n      revert\n    tag_242:\n        /* \"TEXOToken.sol\":36272:36276  2000 */\n      0x07d0\n        /* \"TEXOToken.sol\":53145:53182  _newRefBonusBp <= MAXIMUM_REFERRAL_BP */\n      0xffff\n      and\n        /* \"TEXOToken.sol\":53145:53159  _newRefBonusBp */\n      dup2\n        /* \"TEXOToken.sol\":53145:53182  _newRefBonusBp <= MAXIMUM_REFERRAL_BP */\n      gt\n      iszero\n        /* \"TEXOToken.sol\":53137:53245  require(_newRefBonusBp <= MAXIMUM_REFERRAL_BP, \"updateRefBonusPercent: invalid referral bonus basis points\") */\n      tag_244\n      jumpi\n      mload(0x40)\n      0x08c379a000000000000000000000000000000000000000000000000000000000\n      dup2\n      mstore\n      0x04\n      add\n      dup1\n      dup1\n      0x20\n      add\n      dup3\n      dup2\n      sub\n      dup3\n      mstore\n      0x3a\n      dup2\n      mstore\n      0x20\n      add\n      dup1\n      data_20a6bce988e8b6ff5852ac398e27735d1d8155a9d79e532ec3c3da13f504a6a4\n      0x3a\n      swap2\n      codecopy\n      0x40\n      add\n      swap2\n      pop\n      pop\n      mload(0x40)\n      dup1\n      swap2\n      sub\n      swap1\n      revert\n    tag_244:\n        /* \"TEXOToken.sol\":53281:53291  refBonusBP */\n      sload(0x0a)\n        /* \"TEXOToken.sol\":53263:53277  _newRefBonusBp */\n      dup2\n        /* \"TEXOToken.sol\":53263:53291  _newRefBonusBp != refBonusBP */\n      eq\n      iszero\n        /* \"TEXOToken.sol\":53255:53336  require(_newRefBonusBp != refBonusBP, \"updateRefBonusPercent: same bonus bp set\") */\n      tag_245\n      jumpi\n      mload(0x40)\n      0x08c379a000000000000000000000000000000000000000000000000000000000\n      dup2\n      mstore\n      0x04\n      add\n      dup1\n      dup1\n      0x20\n      add\n      dup3\n      dup2\n      sub\n      dup3\n      mstore\n      0x28\n      dup2\n      mstore\n      0x20\n      add\n      dup1\n      data_9d1a761c817eae8410d2081a433553cad78dcf01ebb754f58addc464260ba484\n      0x28\n      swap2\n      codecopy\n      0x40\n      add\n      swap2\n      pop\n      pop\n      mload(0x40)\n      dup1\n      swap2\n      sub\n      swap1\n      revert\n    tag_245:\n        /* \"TEXOToken.sol\":53346:53372  uint256 previousRefBonusBP */\n      0x00\n        /* \"TEXOToken.sol\":53375:53385  refBonusBP */\n      sload(0x0a)\n        /* \"TEXOToken.sol\":53346:53385  uint256 previousRefBonusBP = refBonusBP */\n      swap1\n      pop\n        /* \"TEXOToken.sol\":53408:53422  _newRefBonusBp */\n      dup2\n        /* \"TEXOToken.sol\":53395:53405  refBonusBP */\n      0x0a\n        /* \"TEXOToken.sol\":53395:53422  refBonusBP = _newRefBonusBp */\n      dup2\n      swap1\n      sstore\n      pop\n        /* \"TEXOToken.sol\":53437:53495  ReferralBonusBpChanged(previousRefBonusBP, _newRefBonusBp) */\n      0x3282b692bfebf5f35b198a229212cf532c72099026ab54c4b8665382d1086b3f\n        /* \"TEXOToken.sol\":53460:53478  previousRefBonusBP */\n      dup2\n        /* \"TEXOToken.sol\":53480:53494  _newRefBonusBp */\n      dup4\n        /* \"TEXOToken.sol\":53437:53495  ReferralBonusBpChanged(previousRefBonusBP, _newRefBonusBp) */\n      mload(0x40)\n      dup1\n      dup4\n      dup2\n      mstore\n      0x20\n      add\n      dup3\n      dup2\n      mstore\n      0x20\n      add\n      swap3\n      pop\n      pop\n      pop\n      mload(0x40)\n      dup1\n      swap2\n      sub\n      swap1\n      log1\n        /* \"TEXOToken.sol\":11730:11731  _ */\n      pop\n        /* \"TEXOToken.sol\":53055:53502  function updateReferralBonusBp(uint256 _newRefBonusBp) public onlyOwner {... */\n      pop\n      jump\t// out\n        /* \"TEXOToken.sol\":35507:35534  uint256 public tEXOPerBlock */\n    tag_99:\n      sload(0x04)\n      dup2\n      jump\t// out\n        /* \"TEXOToken.sol\":36061:36092  uint256 public refBonusBP = 200 */\n    tag_101:\n      sload(0x0a)\n      dup2\n      jump\t// out\n        /* \"TEXOToken.sol\":37176:37219  uint256 public lastReductionPeriodIndex = 0 */\n    tag_103:\n      sload(0x0f)\n      dup2\n      jump\t// out\n        /* \"TEXOToken.sol\":12080:12217  function renounceOwnership() public onlyOwner {... */\n    tag_105:\n        /* \"TEXOToken.sol\":11671:11683  _msgSender() */\n      tag_247\n        /* \"TEXOToken.sol\":11671:11681  _msgSender */\n      tag_174\n        /* \"TEXOToken.sol\":11671:11683  _msgSender() */\n      jump\t// in\n    tag_247:\n        /* \"TEXOToken.sol\":11661:11683  _owner == _msgSender() */\n      0xffffffffffffffffffffffffffffffffffffffff\n      and\n        /* \"TEXOToken.sol\":11661:11667  _owner */\n      0x00\n      dup1\n      sload\n      swap1\n      0x0100\n      exp\n      swap1\n      div\n      0xffffffffffffffffffffffffffffffffffffffff\n      and\n        /* \"TEXOToken.sol\":11661:11683  _owner == _msgSender() */\n      0xffffffffffffffffffffffffffffffffffffffff\n      and\n      eq\n        /* \"TEXOToken.sol\":11653:11720  require(_owner == _msgSender(), \"Ownable: caller is not the owner\") */\n      tag_248\n      jumpi\n      mload(0x40)\n      0x08c379a000000000000000000000000000000000000000000000000000000000\n      dup2\n      mstore\n      0x04\n      add\n      dup1\n      dup1\n      0x20\n      add\n      dup3\n      dup2\n      sub\n      dup3\n      mstore\n      0x20\n      dup2\n      mstore\n      0x20\n      add\n      dup1\n      0x4f776e61626c653a2063616c6c6572206973206e6f7420746865206f776e6572\n      dup2\n      mstore\n      pop\n      0x20\n      add\n      swap2\n      pop\n      pop\n      mload(0x40)\n      dup1\n      swap2\n      sub\n      swap1\n      revert\n    tag_248:\n        /* \"TEXOToken.sol\":12178:12179  0 */\n      0x00\n        /* \"TEXOToken.sol\":12141:12181  OwnershipTransferred(_owner, address(0)) */\n      0xffffffffffffffffffffffffffffffffffffffff\n      and\n        /* \"TEXOToken.sol\":12162:12168  _owner */\n      0x00\n      dup1\n      sload\n      swap1\n      0x0100\n      exp\n      swap1\n      div\n      0xffffffffffffffffffffffffffffffffffffffff\n      and\n        /* \"TEXOToken.sol\":12141:12181  OwnershipTransferred(_owner, address(0)) */\n      0xffffffffffffffffffffffffffffffffffffffff\n      and\n      0x8be0079c531659141344cd1fd0a4f28419497f9722a3daafe3b4186f6b6457e0\n      mload(0x40)\n      mload(0x40)\n      dup1\n      swap2\n      sub\n      swap1\n      log3\n        /* \"TEXOToken.sol\":12208:12209  0 */\n      0x00\n        /* \"TEXOToken.sol\":12191:12197  _owner */\n      dup1\n      0x00\n        /* \"TEXOToken.sol\":12191:12210  _owner = address(0) */\n      0x0100\n      exp\n      dup2\n      sload\n      dup2\n      0xffffffffffffffffffffffffffffffffffffffff\n      mul\n      not\n      and\n      swap1\n      dup4\n      0xffffffffffffffffffffffffffffffffffffffff\n      and\n      mul\n      or\n      swap1\n      sstore\n      pop\n        /* \"TEXOToken.sol\":12080:12217  function renounceOwnership() public onlyOwner {... */\n      jump\t// out\n        /* \"TEXOToken.sol\":51607:51730  function setFlagAllowReduceEmissionRate(bool isAllow) public onlyOwner {... */\n    tag_108:\n        /* \"TEXOToken.sol\":11671:11683  _msgSender() */\n      tag_251\n        /* \"TEXOToken.sol\":11671:11681  _msgSender */\n      tag_174\n        /* \"TEXOToken.sol\":11671:11683  _msgSender() */\n      jump\t// in\n    tag_251:\n        /* \"TEXOToken.sol\":11661:11683  _owner == _msgSender() */\n      0xffffffffffffffffffffffffffffffffffffffff\n      and\n        /* \"TEXOToken.sol\":11661:11667  _owner */\n      0x00\n      dup1\n      sload\n      swap1\n      0x0100\n      exp\n      swap1\n      div\n      0xffffffffffffffffffffffffffffffffffffffff\n      and\n        /* \"TEXOToken.sol\":11661:11683  _owner == _msgSender() */\n      0xffffffffffffffffffffffffffffffffffffffff\n      and\n      eq\n        /* \"TEXOToken.sol\":11653:11720  require(_owner == _msgSender(), \"Ownable: caller is not the owner\") */\n      tag_252\n      jumpi\n      mload(0x40)\n      0x08c379a000000000000000000000000000000000000000000000000000000000\n      dup2\n      mstore\n      0x04\n      add\n      dup1\n      dup1\n      0x20\n      add\n      dup3\n      dup2\n      sub\n      dup3\n      mstore\n      0x20\n      dup2\n      mstore\n      0x20\n      add\n      dup1\n      0x4f776e61626c653a2063616c6c6572206973206e6f7420746865206f776e6572\n      dup2\n      mstore\n      pop\n      0x20\n      add\n      swap2\n      pop\n      pop\n      mload(0x40)\n      dup1\n      swap2\n      sub\n      swap1\n      revert\n    tag_252:\n        /* \"TEXOToken.sol\":51716:51723  isAllow */\n      dup1\n        /* \"TEXOToken.sol\":51688:51713  isAllowReduceEmissionRate */\n      0x10\n      0x00\n        /* \"TEXOToken.sol\":51688:51723  isAllowReduceEmissionRate = isAllow */\n      0x0100\n      exp\n      dup2\n      sload\n      dup2\n      0xff\n      mul\n      not\n      and\n      swap1\n      dup4\n      iszero\n      iszero\n      mul\n      or\n      swap1\n      sstore\n      pop\n        /* \"TEXOToken.sol\":51607:51730  function setFlagAllowReduceEmissionRate(bool isAllow) public onlyOwner {... */\n      pop\n      jump\t// out\n        /* \"TEXOToken.sol\":49761:50057  function setFeeAddress(address _feeAddress) public {... */\n    tag_111:\n        /* \"TEXOToken.sol\":49853:49854  0 */\n      0x00\n        /* \"TEXOToken.sol\":49830:49855  _feeAddress != address(0) */\n      0xffffffffffffffffffffffffffffffffffffffff\n      and\n        /* \"TEXOToken.sol\":49830:49841  _feeAddress */\n      dup2\n        /* \"TEXOToken.sol\":49830:49855  _feeAddress != address(0) */\n      0xffffffffffffffffffffffffffffffffffffffff\n      and\n      eq\n      iszero\n        /* \"TEXOToken.sol\":49822:49890  require(_feeAddress != address(0), \"setFeeAddress: invalid address\") */\n      tag_255\n      jumpi\n      mload(0x40)\n      0x08c379a000000000000000000000000000000000000000000000000000000000\n      dup2\n      mstore\n      0x04\n      add\n      dup1\n      dup1\n      0x20\n      add\n      dup3\n      dup2\n      sub\n      dup3\n      mstore\n      0x1e\n      dup2\n      mstore\n      0x20\n      add\n      dup1\n      0x736574466565416464726573733a20696e76616c696420616464726573730000\n      dup2\n      mstore\n      pop\n      0x20\n      add\n      swap2\n      pop\n      pop\n      mload(0x40)\n      dup1\n      swap2\n      sub\n      swap1\n      revert\n    tag_255:\n        /* \"TEXOToken.sol\":49922:49932  feeAddress */\n      0x05\n      0x00\n      swap1\n      sload\n      swap1\n      0x0100\n      exp\n      swap1\n      div\n      0xffffffffffffffffffffffffffffffffffffffff\n      and\n        /* \"TEXOToken.sol\":49908:49932  msg.sender == feeAddress */\n      0xffffffffffffffffffffffffffffffffffffffff\n      and\n        /* \"TEXOToken.sol\":49908:49918  msg.sender */\n      caller\n        /* \"TEXOToken.sol\":49908:49932  msg.sender == feeAddress */\n      0xffffffffffffffffffffffffffffffffffffffff\n      and\n      eq\n        /* \"TEXOToken.sol\":49900:49961  require(msg.sender == feeAddress, \"setFeeAddress: FORBIDDEN\") */\n      tag_256\n      jumpi\n      mload(0x40)\n      0x08c379a000000000000000000000000000000000000000000000000000000000\n      dup2\n      mstore\n      0x04\n      add\n      dup1\n      dup1\n      0x20\n      add\n      dup3\n      dup2\n      sub\n      dup3\n      mstore\n      0x18\n      dup2\n      mstore\n      0x20\n      add\n      dup1\n      0x736574466565416464726573733a20464f5242494444454e0000000000000000\n      dup2\n      mstore\n      pop\n      0x20\n      add\n      swap2\n      pop\n      pop\n      mload(0x40)\n      dup1\n      swap2\n      sub\n      swap1\n      revert\n    tag_256:\n        /* \"TEXOToken.sol\":49985:49996  _feeAddress */\n      dup1\n        /* \"TEXOToken.sol\":49972:49982  feeAddress */\n      0x05\n      0x00\n        /* \"TEXOToken.sol\":49972:49996  feeAddress = _feeAddress */\n      0x0100\n      exp\n      dup2\n      sload\n      dup2\n      0xffffffffffffffffffffffffffffffffffffffff\n      mul\n      not\n      and\n      swap1\n      dup4\n      0xffffffffffffffffffffffffffffffffffffffff\n      and\n      mul\n      or\n      swap1\n      sstore\n      pop\n        /* \"TEXOToken.sol\":50038:50049  _feeAddress */\n      dup1\n        /* \"TEXOToken.sol\":50012:50050  SetFeeAddress(msg.sender, _feeAddress) */\n      0xffffffffffffffffffffffffffffffffffffffff\n      and\n        /* \"TEXOToken.sol\":50026:50036  msg.sender */\n      caller\n        /* \"TEXOToken.sol\":50012:50050  SetFeeAddress(msg.sender, _feeAddress) */\n      0xffffffffffffffffffffffffffffffffffffffff\n      and\n      0xd44190acf9d04bdb5d3a1aafff7e6dee8b40b93dfb8c5d3f0eea4b9f4539c3f7\n      mload(0x40)\n      mload(0x40)\n      dup1\n      swap2\n      sub\n      swap1\n      log3\n        /* \"TEXOToken.sol\":49761:50057  function setFeeAddress(address _feeAddress) public {... */\n      pop\n      jump\t// out\n        /* \"TEXOToken.sol\":11457:11534  function owner() public view returns (address) {... */\n    tag_113:\n        /* \"TEXOToken.sol\":11495:11502  address */\n      0x00\n        /* \"TEXOToken.sol\":11521:11527  _owner */\n      dup1\n      0x00\n      swap1\n      sload\n      swap1\n      0x0100\n      exp\n      swap1\n      div\n      0xffffffffffffffffffffffffffffffffffffffff\n      and\n        /* \"TEXOToken.sol\":11514:11527  return _owner */\n      swap1\n      pop\n        /* \"TEXOToken.sol\":11457:11534  function owner() public view returns (address) {... */\n      swap1\n      jump\t// out\n        /* \"TEXOToken.sol\":41092:41211  function getMultiplier(uint256 _from, uint256 _to) public pure returns (uint256) {... */\n    tag_116:\n        /* \"TEXOToken.sol\":41164:41171  uint256 */\n      0x00\n        /* \"TEXOToken.sol\":41190:41204  _to.sub(_from) */\n      tag_259\n        /* \"TEXOToken.sol\":41198:41203  _from */\n      dup4\n        /* \"TEXOToken.sol\":41190:41193  _to */\n      dup4\n        /* \"TEXOToken.sol\":41190:41197  _to.sub */\n      tag_191\n      swap1\n        /* \"TEXOToken.sol\":41190:41204  _to.sub(_from) */\n      swap2\n      swap1\n      0xffffffff\n      and\n      jump\t// in\n    tag_259:\n        /* \"TEXOToken.sol\":41183:41204  return _to.sub(_from) */\n      swap1\n      pop\n        /* \"TEXOToken.sol\":41092:41211  function getMultiplier(uint256 _from, uint256 _to) public pure returns (uint256) {... */\n      swap3\n      swap2\n      pop\n      pop\n      jump\t// out\n        /* \"TEXOToken.sol\":45670:47427  function deposit(uint256 _pid, uint256 _amount, address _referrer) public nonReentrant {... */\n    tag_119:\n        /* \"TEXOToken.sol\":21204:21205  2 */\n      0x02\n        /* \"TEXOToken.sol\":21793:21800  _status */\n      sload(0x01)\n        /* \"TEXOToken.sol\":21793:21812  _status != _ENTERED */\n      eq\n      iszero\n        /* \"TEXOToken.sol\":21785:21848  require(_status != _ENTERED, \"ReentrancyGuard: reentrant call\") */\n      tag_261\n      jumpi\n      mload(0x40)\n      0x08c379a000000000000000000000000000000000000000000000000000000000\n      dup2\n      mstore\n      0x04\n      add\n      dup1\n      dup1\n      0x20\n      add\n      dup3\n      dup2\n      sub\n      dup3\n      mstore\n      0x1f\n      dup2\n      mstore\n      0x20\n      add\n      dup1\n      0x5265656e7472616e637947756172643a207265656e7472616e742063616c6c00\n      dup2\n      mstore\n      pop\n      0x20\n      add\n      swap2\n      pop\n      pop\n      mload(0x40)\n      dup1\n      swap2\n      sub\n      swap1\n      revert\n    tag_261:\n        /* \"TEXOToken.sol\":21204:21205  2 */\n      0x02\n        /* \"TEXOToken.sol\":21923:21930  _status */\n      0x01\n        /* \"TEXOToken.sol\":21923:21941  _status = _ENTERED */\n      dup2\n      swap1\n      sstore\n      pop\n        /* \"TEXOToken.sol\":45796:45805  _referrer */\n      dup1\n        /* \"TEXOToken.sol\":45775:45806  _referrer == address(_referrer) */\n      0xffffffffffffffffffffffffffffffffffffffff\n      and\n        /* \"TEXOToken.sol\":45775:45784  _referrer */\n      dup2\n        /* \"TEXOToken.sol\":45775:45806  _referrer == address(_referrer) */\n      0xffffffffffffffffffffffffffffffffffffffff\n      and\n      eq\n        /* \"TEXOToken.sol\":45767:45843  require(_referrer == address(_referrer),\"deposit: Invalid referrer address\") */\n      tag_263\n      jumpi\n      mload(0x40)\n      0x08c379a000000000000000000000000000000000000000000000000000000000\n      dup2\n      mstore\n      0x04\n      add\n      dup1\n      dup1\n      0x20\n      add\n      dup3\n      dup2\n      sub\n      dup3\n      mstore\n      0x21\n      dup2\n      mstore\n      0x20\n      add\n      dup1\n      data_542d191555ea619dedb1489efd71948659c57b11c6c1a84d1c1ce6e7c8074aad\n      0x21\n      swap2\n      codecopy\n      0x40\n      add\n      swap2\n      pop\n      pop\n      mload(0x40)\n      dup1\n      swap2\n      sub\n      swap1\n      revert\n    tag_263:\n        /* \"TEXOToken.sol\":45854:45875  PoolInfo storage pool */\n      0x00\n        /* \"TEXOToken.sol\":45878:45886  poolInfo */\n      0x07\n        /* \"TEXOToken.sol\":45887:45891  _pid */\n      dup5\n        /* \"TEXOToken.sol\":45878:45892  poolInfo[_pid] */\n      dup2\n      sload\n      dup2\n      lt\n      tag_264\n      jumpi\n      invalid\n    tag_264:\n      swap1\n      0x00\n      mstore\n      keccak256(0x00, 0x20)\n      swap1\n      0x06\n      mul\n      add\n        /* \"TEXOToken.sol\":45854:45892  PoolInfo storage pool = poolInfo[_pid] */\n      swap1\n      pop\n        /* \"TEXOToken.sol\":45902:45923  UserInfo storage user */\n      0x00\n        /* \"TEXOToken.sol\":45926:45934  userInfo */\n      0x08\n        /* \"TEXOToken.sol\":45926:45940  userInfo[_pid] */\n      0x00\n        /* \"TEXOToken.sol\":45935:45939  _pid */\n      dup7\n        /* \"TEXOToken.sol\":45926:45940  userInfo[_pid] */\n      dup2\n      mstore\n      0x20\n      add\n      swap1\n      dup2\n      mstore\n      0x20\n      add\n      0x00\n      keccak256\n        /* \"TEXOToken.sol\":45926:45952  userInfo[_pid][msg.sender] */\n      0x00\n        /* \"TEXOToken.sol\":45941:45951  msg.sender */\n      caller\n        /* \"TEXOToken.sol\":45926:45952  userInfo[_pid][msg.sender] */\n      0xffffffffffffffffffffffffffffffffffffffff\n      and\n      0xffffffffffffffffffffffffffffffffffffffff\n      and\n      dup2\n      mstore\n      0x20\n      add\n      swap1\n      dup2\n      mstore\n      0x20\n      add\n      0x00\n      keccak256\n        /* \"TEXOToken.sol\":45902:45952  UserInfo storage user = userInfo[_pid][msg.sender] */\n      swap1\n      pop\n        /* \"TEXOToken.sol\":45963:45979  updatePool(_pid) */\n      tag_266\n        /* \"TEXOToken.sol\":45974:45978  _pid */\n      dup6\n        /* \"TEXOToken.sol\":45963:45973  updatePool */\n      tag_87\n        /* \"TEXOToken.sol\":45963:45979  updatePool(_pid) */\n      jump\t// in\n    tag_266:\n        /* \"TEXOToken.sol\":46008:46009  0 */\n      0x00\n        /* \"TEXOToken.sol\":45994:45998  user */\n      dup2\n        /* \"TEXOToken.sol\":45994:46005  user.amount */\n      0x00\n      add\n      sload\n        /* \"TEXOToken.sol\":45994:46009  user.amount > 0 */\n      gt\n        /* \"TEXOToken.sol\":45990:46544  if (user.amount > 0) {... */\n      iszero\n      tag_267\n      jumpi\n        /* \"TEXOToken.sol\":46025:46040  uint256 pending */\n      0x00\n        /* \"TEXOToken.sol\":46043:46162  user.amount... */\n      tag_268\n        /* \"TEXOToken.sol\":46146:46150  user */\n      dup3\n        /* \"TEXOToken.sol\":46146:46161  user.rewardDebt */\n      0x01\n      add\n      sload\n        /* \"TEXOToken.sol\":46043:46124  user.amount... */\n      tag_269\n        /* \"TEXOToken.sol\":46119:46123  1e12 */\n      0xe8d4a51000\n        /* \"TEXOToken.sol\":46043:46097  user.amount... */\n      tag_270\n        /* \"TEXOToken.sol\":46076:46080  pool */\n      dup8\n        /* \"TEXOToken.sol\":46076:46096  pool.accTEXOPerShare */\n      0x04\n      add\n      sload\n        /* \"TEXOToken.sol\":46043:46047  user */\n      dup8\n        /* \"TEXOToken.sol\":46043:46054  user.amount */\n      0x00\n      add\n      sload\n        /* \"TEXOToken.sol\":46043:46075  user.amount... */\n      tag_189\n      swap1\n        /* \"TEXOToken.sol\":46043:46097  user.amount... */\n      swap2\n      swap1\n      0xffffffff\n      and\n      jump\t// in\n    tag_270:\n        /* \"TEXOToken.sol\":46043:46118  user.amount... */\n      tag_190\n      swap1\n        /* \"TEXOToken.sol\":46043:46124  user.amount... */\n      swap2\n      swap1\n      0xffffffff\n      and\n      jump\t// in\n    tag_269:\n        /* \"TEXOToken.sol\":46043:46145  user.amount... */\n      tag_191\n      swap1\n        /* \"TEXOToken.sol\":46043:46162  user.amount... */\n      swap2\n      swap1\n      0xffffffff\n      and\n      jump\t// in\n    tag_268:\n        /* \"TEXOToken.sol\":46025:46162  uint256 pending = user.amount... */\n      swap1\n      pop\n        /* \"TEXOToken.sol\":46181:46201  bool canWithdrawTEXO */\n      0x00\n        /* \"TEXOToken.sol\":46204:46227  canWithdrawReward(_pid) */\n      tag_271\n        /* \"TEXOToken.sol\":46222:46226  _pid */\n      dup8\n        /* \"TEXOToken.sol\":46204:46221  canWithdrawReward */\n      tag_137\n        /* \"TEXOToken.sol\":46204:46227  canWithdrawReward(_pid) */\n      jump\t// in\n    tag_271:\n        /* \"TEXOToken.sol\":46181:46227  bool canWithdrawTEXO = canWithdrawReward(_pid) */\n      swap1\n      pop\n        /* \"TEXOToken.sol\":46246:46261  canWithdrawTEXO */\n      dup1\n        /* \"TEXOToken.sol\":46246:46276  canWithdrawTEXO && pending > 0 */\n      dup1\n      iszero\n      tag_272\n      jumpi\n      pop\n        /* \"TEXOToken.sol\":46275:46276  0 */\n      0x00\n        /* \"TEXOToken.sol\":46265:46272  pending */\n      dup3\n        /* \"TEXOToken.sol\":46265:46276  pending > 0 */\n      gt\n        /* \"TEXOToken.sol\":46246:46276  canWithdrawTEXO && pending > 0 */\n    tag_272:\n        /* \"TEXOToken.sol\":46242:46534  if (canWithdrawTEXO && pending > 0) {... */\n      iszero\n      tag_273\n      jumpi\n        /* \"TEXOToken.sol\":46296:46333  safeTEXOTransfer(msg.sender, pending) */\n      tag_274\n        /* \"TEXOToken.sol\":46313:46323  msg.sender */\n      caller\n        /* \"TEXOToken.sol\":46325:46332  pending */\n      dup4\n        /* \"TEXOToken.sol\":46296:46312  safeTEXOTransfer */\n      tag_195\n        /* \"TEXOToken.sol\":46296:46333  safeTEXOTransfer(msg.sender, pending) */\n      jump\t// in\n    tag_274:\n        /* \"TEXOToken.sol\":46351:46393  payReferralCommission(msg.sender, pending) */\n      tag_275\n        /* \"TEXOToken.sol\":46373:46383  msg.sender */\n      caller\n        /* \"TEXOToken.sol\":46385:46392  pending */\n      dup4\n        /* \"TEXOToken.sol\":46351:46372  payReferralCommission */\n      tag_197\n        /* \"TEXOToken.sol\":46351:46393  payReferralCommission(msg.sender, pending) */\n      jump\t// in\n    tag_275:\n        /* \"TEXOToken.sol\":46430:46519  user.amount... */\n      tag_276\n        /* \"TEXOToken.sol\":46514:46518  1e12 */\n      0xe8d4a51000\n        /* \"TEXOToken.sol\":46430:46488  user.amount... */\n      tag_277\n        /* \"TEXOToken.sol\":46467:46471  pool */\n      dup7\n        /* \"TEXOToken.sol\":46467:46487  pool.accTEXOPerShare */\n      0x04\n      add\n      sload\n        /* \"TEXOToken.sol\":46430:46434  user */\n      dup7\n        /* \"TEXOToken.sol\":46430:46441  user.amount */\n      0x00\n      add\n      sload\n        /* \"TEXOToken.sol\":46430:46466  user.amount... */\n      tag_189\n      swap1\n        /* \"TEXOToken.sol\":46430:46488  user.amount... */\n      swap2\n      swap1\n      0xffffffff\n      and\n      jump\t// in\n    tag_277:\n        /* \"TEXOToken.sol\":46430:46513  user.amount... */\n      tag_190\n      swap1\n        /* \"TEXOToken.sol\":46430:46519  user.amount... */\n      swap2\n      swap1\n      0xffffffff\n      and\n      jump\t// in\n    tag_276:\n        /* \"TEXOToken.sol\":46412:46416  user */\n      dup4\n        /* \"TEXOToken.sol\":46412:46427  user.rewardDebt */\n      0x01\n      add\n        /* \"TEXOToken.sol\":46412:46519  user.rewardDebt = user.amount... */\n      dup2\n      swap1\n      sstore\n      pop\n        /* \"TEXOToken.sol\":46242:46534  if (canWithdrawTEXO && pending > 0) {... */\n    tag_273:\n        /* \"TEXOToken.sol\":45990:46544  if (user.amount > 0) {... */\n      pop\n      pop\n    tag_267:\n        /* \"TEXOToken.sol\":46568:46569  0 */\n      0x00\n        /* \"TEXOToken.sol\":46558:46565  _amount */\n      dup5\n        /* \"TEXOToken.sol\":46558:46569  _amount > 0 */\n      gt\n        /* \"TEXOToken.sol\":46554:47156  if (_amount > 0) {... */\n      iszero\n      tag_278\n      jumpi\n        /* \"TEXOToken.sol\":46585:46619  setReferral(msg.sender, _referrer) */\n      tag_279\n        /* \"TEXOToken.sol\":46597:46607  msg.sender */\n      caller\n        /* \"TEXOToken.sol\":46609:46618  _referrer */\n      dup5\n        /* \"TEXOToken.sol\":46585:46596  setReferral */\n      tag_280\n        /* \"TEXOToken.sol\":46585:46619  setReferral(msg.sender, _referrer) */\n      jump\t// in\n    tag_279:\n        /* \"TEXOToken.sol\":46633:46707  pool.lpToken.safeTransferFrom(address(msg.sender), address(this), _amount) */\n      tag_281\n        /* \"TEXOToken.sol\":46671:46681  msg.sender */\n      caller\n        /* \"TEXOToken.sol\":46692:46696  this */\n      address\n        /* \"TEXOToken.sol\":46699:46706  _amount */\n      dup7\n        /* \"TEXOToken.sol\":46633:46637  pool */\n      dup6\n        /* \"TEXOToken.sol\":46633:46645  pool.lpToken */\n      0x00\n      add\n      0x00\n      swap1\n      sload\n      swap1\n      0x0100\n      exp\n      swap1\n      div\n      0xffffffffffffffffffffffffffffffffffffffff\n      and\n        /* \"TEXOToken.sol\":46633:46662  pool.lpToken.safeTransferFrom */\n      0xffffffffffffffffffffffffffffffffffffffff\n      and\n      tag_282\n      swap1\n        /* \"TEXOToken.sol\":46633:46707  pool.lpToken.safeTransferFrom(address(msg.sender), address(this), _amount) */\n      swap4\n      swap3\n      swap2\n      swap1\n      0xffffffff\n      and\n      jump\t// in\n    tag_281:\n        /* \"TEXOToken.sol\":46746:46747  0 */\n      0x00\n        /* \"TEXOToken.sol\":46726:46730  pool */\n      dup3\n        /* \"TEXOToken.sol\":46726:46743  pool.depositFeeBP */\n      0x05\n      add\n      0x00\n      swap1\n      sload\n      swap1\n      0x0100\n      exp\n      swap1\n      div\n      0xffff\n      and\n        /* \"TEXOToken.sol\":46726:46747  pool.depositFeeBP > 0 */\n      0xffff\n      and\n      gt\n        /* \"TEXOToken.sol\":46722:47146  if (pool.depositFeeBP > 0) {... */\n      iszero\n      tag_283\n      jumpi\n        /* \"TEXOToken.sol\":46767:46785  uint256 depositFee */\n      0x00\n        /* \"TEXOToken.sol\":46788:46871  _amount... */\n      tag_284\n        /* \"TEXOToken.sol\":46865:46870  10000 */\n      0x2710\n        /* \"TEXOToken.sol\":46788:46839  _amount... */\n      tag_285\n        /* \"TEXOToken.sol\":46821:46825  pool */\n      dup6\n        /* \"TEXOToken.sol\":46821:46838  pool.depositFeeBP */\n      0x05\n      add\n      0x00\n      swap1\n      sload\n      swap1\n      0x0100\n      exp\n      swap1\n      div\n      0xffff\n      and\n        /* \"TEXOToken.sol\":46788:46839  _amount... */\n      0xffff\n      and\n        /* \"TEXOToken.sol\":46788:46795  _amount */\n      dup9\n        /* \"TEXOToken.sol\":46788:46820  _amount... */\n      tag_189\n      swap1\n        /* \"TEXOToken.sol\":46788:46839  _amount... */\n      swap2\n      swap1\n      0xffffffff\n      and\n      jump\t// in\n    tag_285:\n        /* \"TEXOToken.sol\":46788:46864  _amount... */\n      tag_190\n      swap1\n        /* \"TEXOToken.sol\":46788:46871  _amount... */\n      swap2\n      swap1\n      0xffffffff\n      and\n      jump\t// in\n    tag_284:\n        /* \"TEXOToken.sol\":46767:46871  uint256 depositFee = _amount... */\n      swap1\n      pop\n        /* \"TEXOToken.sol\":46904:46986  user.amount... */\n      tag_286\n        /* \"TEXOToken.sol\":46975:46985  depositFee */\n      dup2\n        /* \"TEXOToken.sol\":46904:46949  user.amount... */\n      tag_287\n        /* \"TEXOToken.sol\":46941:46948  _amount */\n      dup8\n        /* \"TEXOToken.sol\":46904:46908  user */\n      dup6\n        /* \"TEXOToken.sol\":46904:46915  user.amount */\n      0x00\n      add\n      sload\n        /* \"TEXOToken.sol\":46904:46940  user.amount... */\n      tag_228\n      swap1\n        /* \"TEXOToken.sol\":46904:46949  user.amount... */\n      swap2\n      swap1\n      0xffffffff\n      and\n      jump\t// in\n    tag_287:\n        /* \"TEXOToken.sol\":46904:46974  user.amount... */\n      tag_191\n      swap1\n        /* \"TEXOToken.sol\":46904:46986  user.amount... */\n      swap2\n      swap1\n      0xffffffff\n      and\n      jump\t// in\n    tag_286:\n        /* \"TEXOToken.sol\":46890:46894  user */\n      dup3\n        /* \"TEXOToken.sol\":46890:46901  user.amount */\n      0x00\n      add\n        /* \"TEXOToken.sol\":46890:46986  user.amount = user.amount... */\n      dup2\n      swap1\n      sstore\n      pop\n        /* \"TEXOToken.sol\":47005:47054  pool.lpToken.safeTransfer(feeAddress, depositFee) */\n      tag_288\n        /* \"TEXOToken.sol\":47031:47041  feeAddress */\n      0x05\n      0x00\n      swap1\n      sload\n      swap1\n      0x0100\n      exp\n      swap1\n      div\n      0xffffffffffffffffffffffffffffffffffffffff\n      and\n        /* \"TEXOToken.sol\":47043:47053  depositFee */\n      dup3\n        /* \"TEXOToken.sol\":47005:47009  pool */\n      dup6\n        /* \"TEXOToken.sol\":47005:47017  pool.lpToken */\n      0x00\n      add\n      0x00\n      swap1\n      sload\n      swap1\n      0x0100\n      exp\n      swap1\n      div\n      0xffffffffffffffffffffffffffffffffffffffff\n      and\n        /* \"TEXOToken.sol\":47005:47030  pool.lpToken.safeTransfer */\n      0xffffffffffffffffffffffffffffffffffffffff\n      and\n      tag_203\n      swap1\n        /* \"TEXOToken.sol\":47005:47054  pool.lpToken.safeTransfer(feeAddress, depositFee) */\n      swap3\n      swap2\n      swap1\n      0xffffffff\n      and\n      jump\t// in\n    tag_288:\n        /* \"TEXOToken.sol\":46722:47146  if (pool.depositFeeBP > 0) {... */\n      pop\n      jump(tag_289)\n    tag_283:\n        /* \"TEXOToken.sol\":47107:47131  user.amount.add(_amount) */\n      tag_290\n        /* \"TEXOToken.sol\":47123:47130  _amount */\n      dup5\n        /* \"TEXOToken.sol\":47107:47111  user */\n      dup3\n        /* \"TEXOToken.sol\":47107:47118  user.amount */\n      0x00\n      add\n      sload\n        /* \"TEXOToken.sol\":47107:47122  user.amount.add */\n      tag_228\n      swap1\n        /* \"TEXOToken.sol\":47107:47131  user.amount.add(_amount) */\n      swap2\n      swap1\n      0xffffffff\n      and\n      jump\t// in\n    tag_290:\n        /* \"TEXOToken.sol\":47093:47097  user */\n      dup2\n        /* \"TEXOToken.sol\":47093:47104  user.amount */\n      0x00\n      add\n        /* \"TEXOToken.sol\":47093:47131  user.amount = user.amount.add(_amount) */\n      dup2\n      swap1\n      sstore\n      pop\n        /* \"TEXOToken.sol\":46722:47146  if (pool.depositFeeBP > 0) {... */\n    tag_289:\n        /* \"TEXOToken.sol\":46554:47156  if (_amount > 0) {... */\n    tag_278:\n        /* \"TEXOToken.sol\":47171:47175  user */\n      dup1\n        /* \"TEXOToken.sol\":47171:47191  user.isAlreadyStaked */\n      0x02\n      add\n      0x00\n      swap1\n      sload\n      swap1\n      0x0100\n      exp\n      swap1\n      div\n      0xff\n      and\n        /* \"TEXOToken.sol\":47166:47371  if (!user.isAlreadyStaked) {... */\n      tag_291\n      jumpi\n        /* \"TEXOToken.sol\":47225:47306  user.amount... */\n      tag_292\n        /* \"TEXOToken.sol\":47301:47305  1e12 */\n      0xe8d4a51000\n        /* \"TEXOToken.sol\":47225:47279  user.amount... */\n      tag_293\n        /* \"TEXOToken.sol\":47258:47262  pool */\n      dup5\n        /* \"TEXOToken.sol\":47258:47278  pool.accTEXOPerShare */\n      0x04\n      add\n      sload\n        /* \"TEXOToken.sol\":47225:47229  user */\n      dup5\n        /* \"TEXOToken.sol\":47225:47236  user.amount */\n      0x00\n      add\n      sload\n        /* \"TEXOToken.sol\":47225:47257  user.amount... */\n      tag_189\n      swap1\n        /* \"TEXOToken.sol\":47225:47279  user.amount... */\n      swap2\n      swap1\n      0xffffffff\n      and\n      jump\t// in\n    tag_293:\n        /* \"TEXOToken.sol\":47225:47300  user.amount... */\n      tag_190\n      swap1\n        /* \"TEXOToken.sol\":47225:47306  user.amount... */\n      swap2\n      swap1\n      0xffffffff\n      and\n      jump\t// in\n    tag_292:\n        /* \"TEXOToken.sol\":47207:47211  user */\n      dup2\n        /* \"TEXOToken.sol\":47207:47222  user.rewardDebt */\n      0x01\n      add\n        /* \"TEXOToken.sol\":47207:47306  user.rewardDebt = user.amount... */\n      dup2\n      swap1\n      sstore\n      pop\n        /* \"TEXOToken.sol\":47356:47360  true */\n      0x01\n        /* \"TEXOToken.sol\":47333:47337  user */\n      dup2\n        /* \"TEXOToken.sol\":47333:47353  user.isAlreadyStaked */\n      0x02\n      add\n      0x00\n        /* \"TEXOToken.sol\":47333:47360  user.isAlreadyStaked = true */\n      0x0100\n      exp\n      dup2\n      sload\n      dup2\n      0xff\n      mul\n      not\n      and\n      swap1\n      dup4\n      iszero\n      iszero\n      mul\n      or\n      swap1\n      sstore\n      pop\n        /* \"TEXOToken.sol\":47166:47371  if (!user.isAlreadyStaked) {... */\n    tag_291:\n        /* \"TEXOToken.sol\":47406:47410  _pid */\n      dup5\n        /* \"TEXOToken.sol\":47394:47404  msg.sender */\n      caller\n        /* \"TEXOToken.sol\":47386:47420  Deposit(msg.sender, _pid, _amount) */\n      0xffffffffffffffffffffffffffffffffffffffff\n      and\n      0x90890809c654f11d6e72a28fa60149770a0d11ec6c92319d6ceb2bb0a4ea1a15\n        /* \"TEXOToken.sol\":47412:47419  _amount */\n      dup7\n        /* \"TEXOToken.sol\":47386:47420  Deposit(msg.sender, _pid, _amount) */\n      mload(0x40)\n      dup1\n      dup3\n      dup2\n      mstore\n      0x20\n      add\n      swap2\n      pop\n      pop\n      mload(0x40)\n      dup1\n      swap2\n      sub\n      swap1\n      log3\n        /* \"TEXOToken.sol\":21952:21953  _ */\n      pop\n      pop\n        /* \"TEXOToken.sol\":21161:21162  1 */\n      0x01\n        /* \"TEXOToken.sol\":22096:22103  _status */\n      dup1\n        /* \"TEXOToken.sol\":22096:22118  _status = _NOT_ENTERED */\n      dup2\n      swap1\n      sstore\n      pop\n        /* \"TEXOToken.sol\":45670:47427  function deposit(uint256 _pid, uint256 _amount, address _referrer) public nonReentrant {... */\n      pop\n      pop\n      pop\n      jump\t// out\n        /* \"TEXOToken.sol\":36703:36761  uint256 public constant INITIAL_EMISSION_RATE = 500 finney */\n    tag_121:\n        /* \"TEXOToken.sol\":36751:36761  500 finney */\n      0x06f05b59d3b20000\n        /* \"TEXOToken.sol\":36703:36761  uint256 public constant INITIAL_EMISSION_RATE = 500 finney */\n      dup2\n      jump\t// out\n        /* \"TEXOToken.sol\":35805:35869  mapping(uint256 => mapping(address => UserInfo)) public userInfo */\n    tag_124:\n      mstore(0x20, 0x08)\n      dup2\n      0x00\n      mstore\n      mstore(0x20, keccak256(0x00, 0x40))\n      dup1\n      0x00\n      mstore\n      keccak256(0x00, 0x40)\n      0x00\n      swap2\n      pop\n      swap2\n      pop\n      pop\n      dup1\n      0x00\n      add\n      sload\n      swap1\n      dup1\n      0x01\n      add\n      sload\n      swap1\n      dup1\n      0x02\n      add\n      0x00\n      swap1\n      sload\n      swap1\n      0x0100\n      exp\n      swap1\n      div\n      0xff\n      and\n      swap1\n      pop\n      dup4\n      jump\t// out\n        /* \"TEXOToken.sol\":36127:36179  uint16 public constant MAXIMUM_DEPOSIT_FEE_BP = 1000 */\n    tag_126:\n        /* \"TEXOToken.sol\":36175:36179  1000 */\n      0x03e8\n        /* \"TEXOToken.sol\":36127:36179  uint16 public constant MAXIMUM_DEPOSIT_FEE_BP = 1000 */\n      dup2\n      jump\t// out\n        /* \"TEXOToken.sol\":36594:36646  mapping(IBEP20 => uint256) public poolIdForLpAddress */\n    tag_129:\n      mstore(0x20, 0x0e)\n      dup1\n      0x00\n      mstore\n      keccak256(0x00, 0x40)\n      0x00\n      swap2\n      pop\n      swap1\n      pop\n      sload\n      dup2\n      jump\t// out\n        /* \"TEXOToken.sol\":51736:51850  function setEmissionRate(uint256 newEmissionRate) public onlyOwner {... */\n    tag_132:\n        /* \"TEXOToken.sol\":11671:11683  _msgSender() */\n      tag_295\n        /* \"TEXOToken.sol\":11671:11681  _msgSender */\n      tag_174\n        /* \"TEXOToken.sol\":11671:11683  _msgSender() */\n      jump\t// in\n    tag_295:\n        /* \"TEXOToken.sol\":11661:11683  _owner == _msgSender() */\n      0xffffffffffffffffffffffffffffffffffffffff\n      and\n        /* \"TEXOToken.sol\":11661:11667  _owner */\n      0x00\n      dup1\n      sload\n      swap1\n      0x0100\n      exp\n      swap1\n      div\n      0xffffffffffffffffffffffffffffffffffffffff\n      and\n        /* \"TEXOToken.sol\":11661:11683  _owner == _msgSender() */\n      0xffffffffffffffffffffffffffffffffffffffff\n      and\n      eq\n        /* \"TEXOToken.sol\":11653:11720  require(_owner == _msgSender(), \"Ownable: caller is not the owner\") */\n      tag_296\n      jumpi\n      mload(0x40)\n      0x08c379a000000000000000000000000000000000000000000000000000000000\n      dup2\n      mstore\n      0x04\n      add\n      dup1\n      dup1\n      0x20\n      add\n      dup3\n      dup2\n      sub\n      dup3\n      mstore\n      0x20\n      dup2\n      mstore\n      0x20\n      add\n      dup1\n      0x4f776e61626c653a2063616c6c6572206973206e6f7420746865206f776e6572\n      dup2\n      mstore\n      pop\n      0x20\n      add\n      swap2\n      pop\n      pop\n      mload(0x40)\n      dup1\n      swap2\n      sub\n      swap1\n      revert\n    tag_296:\n        /* \"TEXOToken.sol\":51828:51843  newEmissionRate */\n      dup1\n        /* \"TEXOToken.sol\":51813:51825  tEXOPerBlock */\n      0x04\n        /* \"TEXOToken.sol\":51813:51843  tEXOPerBlock = newEmissionRate */\n      dup2\n      swap1\n      sstore\n      pop\n        /* \"TEXOToken.sol\":51736:51850  function setEmissionRate(uint256 newEmissionRate) public onlyOwner {... */\n      pop\n      jump\t// out\n        /* \"TEXOToken.sol\":35394:35415  TEXOToken public tEXO */\n    tag_134:\n      0x02\n      0x00\n      swap1\n      sload\n      swap1\n      0x0100\n      exp\n      swap1\n      div\n      0xffffffffffffffffffffffffffffffffffffffff\n      and\n      dup2\n      jump\t// out\n        /* \"TEXOToken.sol\":43803:43985  function canWithdrawReward(uint256 _pid) public view returns (bool) {... */\n    tag_137:\n        /* \"TEXOToken.sol\":43865:43869  bool */\n      0x00\n        /* \"TEXOToken.sol\":43881:43902  PoolInfo storage pool */\n      dup1\n        /* \"TEXOToken.sol\":43905:43913  poolInfo */\n      0x07\n        /* \"TEXOToken.sol\":43914:43918  _pid */\n      dup4\n        /* \"TEXOToken.sol\":43905:43919  poolInfo[_pid] */\n      dup2\n      sload\n      dup2\n      lt\n      tag_299\n      jumpi\n      invalid\n    tag_299:\n      swap1\n      0x00\n      mstore\n      keccak256(0x00, 0x20)\n      swap1\n      0x06\n      mul\n      add\n        /* \"TEXOToken.sol\":43881:43919  PoolInfo storage pool = poolInfo[_pid] */\n      swap1\n      pop\n        /* \"TEXOToken.sol\":43966:43978  block.number */\n      number\n        /* \"TEXOToken.sol\":43937:43941  pool */\n      dup2\n        /* \"TEXOToken.sol\":43937:43962  pool.blockToReceiveReward */\n      0x02\n      add\n      sload\n        /* \"TEXOToken.sol\":43937:43978  pool.blockToReceiveReward <= block.number */\n      gt\n      iszero\n        /* \"TEXOToken.sol\":43930:43978  return pool.blockToReceiveReward <= block.number */\n      swap2\n      pop\n      pop\n        /* \"TEXOToken.sol\":43803:43985  function canWithdrawReward(uint256 _pid) public view returns (bool) {... */\n      swap2\n      swap1\n      pop\n      jump\t// out\n        /* \"TEXOToken.sol\":37071:37135  uint256 public constant EMISSION_REDUCTION_RATE_PER_PERIOD = 300 */\n    tag_139:\n        /* \"TEXOToken.sol\":37132:37135  300 */\n      0x012c\n        /* \"TEXOToken.sol\":37071:37135  uint256 public constant EMISSION_REDUCTION_RATE_PER_PERIOD = 300 */\n      dup2\n      jump\t// out\n        /* \"TEXOToken.sol\":40358:41019  function set(... */\n    tag_142:\n        /* \"TEXOToken.sol\":11671:11683  _msgSender() */\n      tag_302\n        /* \"TEXOToken.sol\":11671:11681  _msgSender */\n      tag_174\n        /* \"TEXOToken.sol\":11671:11683  _msgSender() */\n      jump\t// in\n    tag_302:\n        /* \"TEXOToken.sol\":11661:11683  _owner == _msgSender() */\n      0xffffffffffffffffffffffffffffffffffffffff\n      and\n        /* \"TEXOToken.sol\":11661:11667  _owner */\n      0x00\n      dup1\n      sload\n      swap1\n      0x0100\n      exp\n      swap1\n      div\n      0xffffffffffffffffffffffffffffffffffffffff\n      and\n        /* \"TEXOToken.sol\":11661:11683  _owner == _msgSender() */\n      0xffffffffffffffffffffffffffffffffffffffff\n      and\n      eq\n        /* \"TEXOToken.sol\":11653:11720  require(_owner == _msgSender(), \"Ownable: caller is not the owner\") */\n      tag_303\n      jumpi\n      mload(0x40)\n      0x08c379a000000000000000000000000000000000000000000000000000000000\n      dup2\n      mstore\n      0x04\n      add\n      dup1\n      dup1\n      0x20\n      add\n      dup3\n      dup2\n      sub\n      dup3\n      mstore\n      0x20\n      dup2\n      mstore\n      0x20\n      add\n      dup1\n      0x4f776e61626c653a2063616c6c6572206973206e6f7420746865206f776e6572\n      dup2\n      mstore\n      pop\n      0x20\n      add\n      swap2\n      pop\n      pop\n      mload(0x40)\n      dup1\n      swap2\n      sub\n      swap1\n      revert\n    tag_303:\n        /* \"TEXOToken.sol\":36175:36179  1000 */\n      0x03e8\n        /* \"TEXOToken.sol\":40561:40600  _depositFeeBP <= MAXIMUM_DEPOSIT_FEE_BP */\n      0xffff\n      and\n        /* \"TEXOToken.sol\":40561:40574  _depositFeeBP */\n      dup4\n        /* \"TEXOToken.sol\":40561:40600  _depositFeeBP <= MAXIMUM_DEPOSIT_FEE_BP */\n      0xffff\n      and\n      gt\n      iszero\n        /* \"TEXOToken.sol\":40553:40642  require(_depositFeeBP <= MAXIMUM_DEPOSIT_FEE_BP, \"set: invalid deposit fee basis points\") */\n      tag_305\n      jumpi\n      mload(0x40)\n      0x08c379a000000000000000000000000000000000000000000000000000000000\n      dup2\n      mstore\n      0x04\n      add\n      dup1\n      dup1\n      0x20\n      add\n      dup3\n      dup2\n      sub\n      dup3\n      mstore\n      0x25\n      dup2\n      mstore\n      0x20\n      add\n      dup1\n      data_9353dfb5d58f0da66015bbcadafa0686e2e7b7226db2e603088e70c7012680cf\n      0x25\n      swap2\n      codecopy\n      0x40\n      add\n      swap2\n      pop\n      pop\n      mload(0x40)\n      dup1\n      swap2\n      sub\n      swap1\n      revert\n    tag_305:\n        /* \"TEXOToken.sol\":40656:40667  _withUpdate */\n      dup2\n        /* \"TEXOToken.sol\":40652:40711  if (_withUpdate) {... */\n      iszero\n      tag_306\n      jumpi\n        /* \"TEXOToken.sol\":40683:40700  massUpdatePools() */\n      tag_307\n        /* \"TEXOToken.sol\":40683:40698  massUpdatePools */\n      tag_94\n        /* \"TEXOToken.sol\":40683:40700  massUpdatePools() */\n      jump\t// in\n    tag_307:\n        /* \"TEXOToken.sol\":40652:40711  if (_withUpdate) {... */\n    tag_306:\n        /* \"TEXOToken.sol\":40738:40823  totalAllocPoint.sub(poolInfo[_pid].allocPoint).add(... */\n      tag_308\n        /* \"TEXOToken.sol\":40802:40813  _allocPoint */\n      dup5\n        /* \"TEXOToken.sol\":40738:40784  totalAllocPoint.sub(poolInfo[_pid].allocPoint) */\n      tag_309\n        /* \"TEXOToken.sol\":40758:40766  poolInfo */\n      0x07\n        /* \"TEXOToken.sol\":40767:40771  _pid */\n      dup9\n        /* \"TEXOToken.sol\":40758:40772  poolInfo[_pid] */\n      dup2\n      sload\n      dup2\n      lt\n      tag_310\n      jumpi\n      invalid\n    tag_310:\n      swap1\n      0x00\n      mstore\n      keccak256(0x00, 0x20)\n      swap1\n      0x06\n      mul\n      add\n        /* \"TEXOToken.sol\":40758:40783  poolInfo[_pid].allocPoint */\n      0x01\n      add\n      sload\n        /* \"TEXOToken.sol\":40738:40753  totalAllocPoint */\n      sload(0x09)\n        /* \"TEXOToken.sol\":40738:40757  totalAllocPoint.sub */\n      tag_191\n      swap1\n        /* \"TEXOToken.sol\":40738:40784  totalAllocPoint.sub(poolInfo[_pid].allocPoint) */\n      swap2\n      swap1\n      0xffffffff\n      and\n      jump\t// in\n    tag_309:\n        /* \"TEXOToken.sol\":40738:40788  totalAllocPoint.sub(poolInfo[_pid].allocPoint).add */\n      tag_228\n      swap1\n        /* \"TEXOToken.sol\":40738:40823  totalAllocPoint.sub(poolInfo[_pid].allocPoint).add(... */\n      swap2\n      swap1\n      0xffffffff\n      and\n      jump\t// in\n    tag_308:\n        /* \"TEXOToken.sol\":40720:40735  totalAllocPoint */\n      0x09\n        /* \"TEXOToken.sol\":40720:40823  totalAllocPoint = totalAllocPoint.sub(poolInfo[_pid].allocPoint).add(... */\n      dup2\n      swap1\n      sstore\n      pop\n        /* \"TEXOToken.sol\":40861:40872  _allocPoint */\n      dup4\n        /* \"TEXOToken.sol\":40833:40841  poolInfo */\n      0x07\n        /* \"TEXOToken.sol\":40842:40846  _pid */\n      dup7\n        /* \"TEXOToken.sol\":40833:40847  poolInfo[_pid] */\n      dup2\n      sload\n      dup2\n      lt\n      tag_312\n      jumpi\n      invalid\n    tag_312:\n      swap1\n      0x00\n      mstore\n      keccak256(0x00, 0x20)\n      swap1\n      0x06\n      mul\n      add\n        /* \"TEXOToken.sol\":40833:40858  poolInfo[_pid].allocPoint */\n      0x01\n      add\n        /* \"TEXOToken.sol\":40833:40872  poolInfo[_pid].allocPoint = _allocPoint */\n      dup2\n      swap1\n      sstore\n      pop\n        /* \"TEXOToken.sol\":40912:40925  _depositFeeBP */\n      dup3\n        /* \"TEXOToken.sol\":40882:40890  poolInfo */\n      0x07\n        /* \"TEXOToken.sol\":40891:40895  _pid */\n      dup7\n        /* \"TEXOToken.sol\":40882:40896  poolInfo[_pid] */\n      dup2\n      sload\n      dup2\n      lt\n      tag_314\n      jumpi\n      invalid\n    tag_314:\n      swap1\n      0x00\n      mstore\n      keccak256(0x00, 0x20)\n      swap1\n      0x06\n      mul\n      add\n        /* \"TEXOToken.sol\":40882:40909  poolInfo[_pid].depositFeeBP */\n      0x05\n      add\n      0x00\n        /* \"TEXOToken.sol\":40882:40925  poolInfo[_pid].depositFeeBP = _depositFeeBP */\n      0x0100\n      exp\n      dup2\n      sload\n      dup2\n      0xffff\n      mul\n      not\n      and\n      swap1\n      dup4\n      0xffff\n      and\n      mul\n      or\n      swap1\n      sstore\n      pop\n        /* \"TEXOToken.sol\":40988:41012  _newBlockToReceiveReward */\n      dup1\n        /* \"TEXOToken.sol\":40973:40985  block.number */\n      number\n        /* \"TEXOToken.sol\":40973:41012  block.number + _newBlockToReceiveReward */\n      add\n        /* \"TEXOToken.sol\":40935:40943  poolInfo */\n      0x07\n        /* \"TEXOToken.sol\":40944:40948  _pid */\n      dup7\n        /* \"TEXOToken.sol\":40935:40949  poolInfo[_pid] */\n      dup2\n      sload\n      dup2\n      lt\n      tag_316\n      jumpi\n      invalid\n    tag_316:\n      swap1\n      0x00\n      mstore\n      keccak256(0x00, 0x20)\n      swap1\n      0x06\n      mul\n      add\n        /* \"TEXOToken.sol\":40935:40970  poolInfo[_pid].blockToReceiveReward */\n      0x02\n      add\n        /* \"TEXOToken.sol\":40935:41012  poolInfo[_pid].blockToReceiveReward = block.number + _newBlockToReceiveReward */\n      dup2\n      swap1\n      sstore\n      pop\n        /* \"TEXOToken.sol\":40358:41019  function set(... */\n      pop\n      pop\n      pop\n      pop\n      pop\n      jump\t// out\n        /* \"TEXOToken.sol\":36514:36558  mapping(IBEP20 => bool) public poolExistence */\n    tag_145:\n      mstore(0x20, 0x0d)\n      dup1\n      0x00\n      mstore\n      keccak256(0x00, 0x40)\n      0x00\n      swap2\n      pop\n      sload\n      swap1\n      0x0100\n      exp\n      swap1\n      div\n      0xff\n      and\n      dup2\n      jump\t// out\n        /* \"TEXOToken.sol\":49447:49700  function setDevAddress(address _devaddr) public {... */\n    tag_148:\n        /* \"TEXOToken.sol\":49533:49534  0 */\n      0x00\n        /* \"TEXOToken.sol\":49513:49535  _devaddr != address(0) */\n      0xffffffffffffffffffffffffffffffffffffffff\n      and\n        /* \"TEXOToken.sol\":49513:49521  _devaddr */\n      dup2\n        /* \"TEXOToken.sol\":49513:49535  _devaddr != address(0) */\n      0xffffffffffffffffffffffffffffffffffffffff\n      and\n      eq\n      iszero\n        /* \"TEXOToken.sol\":49505:49560  require(_devaddr != address(0), \"dev: invalid address\") */\n      tag_319\n      jumpi\n      mload(0x40)\n      0x08c379a000000000000000000000000000000000000000000000000000000000\n      dup2\n      mstore\n      0x04\n      add\n      dup1\n      dup1\n      0x20\n      add\n      dup3\n      dup2\n      sub\n      dup3\n      mstore\n      0x14\n      dup2\n      mstore\n      0x20\n      add\n      dup1\n      0x6465763a20696e76616c69642061646472657373000000000000000000000000\n      dup2\n      mstore\n      pop\n      0x20\n      add\n      swap2\n      pop\n      pop\n      mload(0x40)\n      dup1\n      swap2\n      sub\n      swap1\n      revert\n    tag_319:\n        /* \"TEXOToken.sol\":49592:49599  devAddr */\n      0x03\n      0x00\n      swap1\n      sload\n      swap1\n      0x0100\n      exp\n      swap1\n      div\n      0xffffffffffffffffffffffffffffffffffffffff\n      and\n        /* \"TEXOToken.sol\":49578:49599  msg.sender == devAddr */\n      0xffffffffffffffffffffffffffffffffffffffff\n      and\n        /* \"TEXOToken.sol\":49578:49588  msg.sender */\n      caller\n        /* \"TEXOToken.sol\":49578:49599  msg.sender == devAddr */\n      0xffffffffffffffffffffffffffffffffffffffff\n      and\n      eq\n        /* \"TEXOToken.sol\":49570:49613  require(msg.sender == devAddr, \"dev: wut?\") */\n      tag_320\n      jumpi\n      mload(0x40)\n      0x08c379a000000000000000000000000000000000000000000000000000000000\n      dup2\n      mstore\n      0x04\n      add\n      dup1\n      dup1\n      0x20\n      add\n      dup3\n      dup2\n      sub\n      dup3\n      mstore\n      0x09\n      dup2\n      mstore\n      0x20\n      add\n      dup1\n      0x6465763a207775743f0000000000000000000000000000000000000000000000\n      dup2\n      mstore\n      pop\n      0x20\n      add\n      swap2\n      pop\n      pop\n      mload(0x40)\n      dup1\n      swap2\n      sub\n      swap1\n      revert\n    tag_320:\n        /* \"TEXOToken.sol\":49634:49642  _devaddr */\n      dup1\n        /* \"TEXOToken.sol\":49624:49631  devAddr */\n      0x03\n      0x00\n        /* \"TEXOToken.sol\":49624:49642  devAddr = _devaddr */\n      0x0100\n      exp\n      dup2\n      sload\n      dup2\n      0xffffffffffffffffffffffffffffffffffffffff\n      mul\n      not\n      and\n      swap1\n      dup4\n      0xffffffffffffffffffffffffffffffffffffffff\n      and\n      mul\n      or\n      swap1\n      sstore\n      pop\n        /* \"TEXOToken.sol\":49684:49692  _devaddr */\n      dup1\n        /* \"TEXOToken.sol\":49658:49693  SetDevAddress(msg.sender, _devaddr) */\n      0xffffffffffffffffffffffffffffffffffffffff\n      and\n        /* \"TEXOToken.sol\":49672:49682  msg.sender */\n      caller\n        /* \"TEXOToken.sol\":49658:49693  SetDevAddress(msg.sender, _devaddr) */\n      0xffffffffffffffffffffffffffffffffffffffff\n      and\n      0x618c54559e94f1499a808aad71ee8729f8e74e8c48e979616328ce493a1a52e7\n      mload(0x40)\n      mload(0x40)\n      dup1\n      swap2\n      sub\n      swap1\n      log3\n        /* \"TEXOToken.sol\":49447:49700  function setDevAddress(address _devaddr) public {... */\n      pop\n      jump\t// out\n        /* \"TEXOToken.sol\":36938:37002  uint256 public constant EMISSION_REDUCTION_PERIOD_BLOCKS = 14400 */\n    tag_150:\n        /* \"TEXOToken.sol\":36997:37002  14400 */\n      0x3840\n        /* \"TEXOToken.sol\":36938:37002  uint256 public constant EMISSION_REDUCTION_PERIOD_BLOCKS = 14400 */\n      dup2\n      jump\t// out\n        /* \"TEXOToken.sol\":35441:35463  address public devAddr */\n    tag_152:\n      0x03\n      0x00\n      swap1\n      sload\n      swap1\n      0x0100\n      exp\n      swap1\n      div\n      0xffffffffffffffffffffffffffffffffffffffff\n      and\n      dup2\n      jump\t// out\n        /* \"TEXOToken.sol\":41272:42219  function pendingTEXO(uint256 _pid, address _user) external view returns (uint256) {... */\n    tag_155:\n        /* \"TEXOToken.sol\":41345:41352  uint256 */\n      0x00\n        /* \"TEXOToken.sol\":41364:41385  PoolInfo storage pool */\n      dup1\n        /* \"TEXOToken.sol\":41388:41396  poolInfo */\n      0x07\n        /* \"TEXOToken.sol\":41397:41401  _pid */\n      dup5\n        /* \"TEXOToken.sol\":41388:41402  poolInfo[_pid] */\n      dup2\n      sload\n      dup2\n      lt\n      tag_322\n      jumpi\n      invalid\n    tag_322:\n      swap1\n      0x00\n      mstore\n      keccak256(0x00, 0x20)\n      swap1\n      0x06\n      mul\n      add\n        /* \"TEXOToken.sol\":41364:41402  PoolInfo storage pool = poolInfo[_pid] */\n      swap1\n      pop\n        /* \"TEXOToken.sol\":41412:41433  UserInfo storage user */\n      0x00\n        /* \"TEXOToken.sol\":41436:41444  userInfo */\n      0x08\n        /* \"TEXOToken.sol\":41436:41450  userInfo[_pid] */\n      0x00\n        /* \"TEXOToken.sol\":41445:41449  _pid */\n      dup7\n        /* \"TEXOToken.sol\":41436:41450  userInfo[_pid] */\n      dup2\n      mstore\n      0x20\n      add\n      swap1\n      dup2\n      mstore\n      0x20\n      add\n      0x00\n      keccak256\n        /* \"TEXOToken.sol\":41436:41457  userInfo[_pid][_user] */\n      0x00\n        /* \"TEXOToken.sol\":41451:41456  _user */\n      dup6\n        /* \"TEXOToken.sol\":41436:41457  userInfo[_pid][_user] */\n      0xffffffffffffffffffffffffffffffffffffffff\n      and\n      0xffffffffffffffffffffffffffffffffffffffff\n      and\n      dup2\n      mstore\n      0x20\n      add\n      swap1\n      dup2\n      mstore\n      0x20\n      add\n      0x00\n      keccak256\n        /* \"TEXOToken.sol\":41412:41457  UserInfo storage user = userInfo[_pid][_user] */\n      swap1\n      pop\n        /* \"TEXOToken.sol\":41468:41491  uint256 accTEXOPerShare */\n      0x00\n        /* \"TEXOToken.sol\":41494:41498  pool */\n      dup3\n        /* \"TEXOToken.sol\":41494:41514  pool.accTEXOPerShare */\n      0x04\n      add\n      sload\n        /* \"TEXOToken.sol\":41468:41514  uint256 accTEXOPerShare = pool.accTEXOPerShare */\n      swap1\n      pop\n        /* \"TEXOToken.sol\":41524:41540  uint256 lpSupply */\n      0x00\n        /* \"TEXOToken.sol\":41543:41547  pool */\n      dup4\n        /* \"TEXOToken.sol\":41543:41555  pool.lpToken */\n      0x00\n      add\n      0x00\n      swap1\n      sload\n      swap1\n      0x0100\n      exp\n      swap1\n      div\n      0xffffffffffffffffffffffffffffffffffffffff\n      and\n        /* \"TEXOToken.sol\":41543:41565  pool.lpToken.balanceOf */\n      0xffffffffffffffffffffffffffffffffffffffff\n      and\n      0x70a08231\n        /* \"TEXOToken.sol\":41574:41578  this */\n      address\n        /* \"TEXOToken.sol\":41543:41580  pool.lpToken.balanceOf(address(this)) */\n      mload(0x40)\n      dup3\n      0xffffffff\n      and\n      0xe0\n      shl\n      dup2\n      mstore\n      0x04\n      add\n      dup1\n      dup3\n      0xffffffffffffffffffffffffffffffffffffffff\n      and\n      dup2\n      mstore\n      0x20\n      add\n      swap2\n      pop\n      pop\n      0x20\n      mload(0x40)\n      dup1\n      dup4\n      sub\n      dup2\n      dup7\n      dup1\n      extcodesize\n      iszero\n      dup1\n      iszero\n      tag_324\n      jumpi\n      0x00\n      dup1\n      revert\n    tag_324:\n      pop\n      gas\n      staticcall\n      iszero\n      dup1\n      iszero\n      tag_326\n      jumpi\n      returndatasize\n      0x00\n      dup1\n      returndatacopy\n      revert(0x00, returndatasize)\n    tag_326:\n      pop\n      pop\n      pop\n      pop\n      mload(0x40)\n      returndatasize\n      0x20\n      dup2\n      lt\n      iszero\n      tag_327\n      jumpi\n      0x00\n      dup1\n      revert\n    tag_327:\n      dup2\n      add\n      swap1\n      dup1\n      dup1\n      mload\n      swap1\n      0x20\n      add\n      swap1\n      swap3\n      swap2\n      swap1\n      pop\n      pop\n      pop\n        /* \"TEXOToken.sol\":41524:41580  uint256 lpSupply = pool.lpToken.balanceOf(address(this)) */\n      swap1\n      pop\n        /* \"TEXOToken.sol\":41610:41614  pool */\n      dup4\n        /* \"TEXOToken.sol\":41610:41630  pool.lastRewardBlock */\n      0x03\n      add\n      sload\n        /* \"TEXOToken.sol\":41595:41607  block.number */\n      number\n        /* \"TEXOToken.sol\":41595:41630  block.number > pool.lastRewardBlock */\n      gt\n        /* \"TEXOToken.sol\":41595:41647  block.number > pool.lastRewardBlock && lpSupply != 0 */\n      dup1\n      iszero\n      tag_328\n      jumpi\n      pop\n        /* \"TEXOToken.sol\":41646:41647  0 */\n      0x00\n        /* \"TEXOToken.sol\":41634:41642  lpSupply */\n      dup2\n        /* \"TEXOToken.sol\":41634:41647  lpSupply != 0 */\n      eq\n      iszero\n        /* \"TEXOToken.sol\":41595:41647  block.number > pool.lastRewardBlock && lpSupply != 0 */\n    tag_328:\n        /* \"TEXOToken.sol\":41591:42093  if (block.number > pool.lastRewardBlock && lpSupply != 0) {... */\n      iszero\n      tag_329\n      jumpi\n        /* \"TEXOToken.sol\":41663:41681  uint256 multiplier */\n      0x00\n        /* \"TEXOToken.sol\":41684:41733  getMultiplier(pool.lastRewardBlock, block.number) */\n      tag_330\n        /* \"TEXOToken.sol\":41698:41702  pool */\n      dup6\n        /* \"TEXOToken.sol\":41698:41718  pool.lastRewardBlock */\n      0x03\n      add\n      sload\n        /* \"TEXOToken.sol\":41720:41732  block.number */\n      number\n        /* \"TEXOToken.sol\":41684:41697  getMultiplier */\n      tag_116\n        /* \"TEXOToken.sol\":41684:41733  getMultiplier(pool.lastRewardBlock, block.number) */\n      jump\t// in\n    tag_330:\n        /* \"TEXOToken.sol\":41663:41733  uint256 multiplier = getMultiplier(pool.lastRewardBlock, block.number) */\n      swap1\n      pop\n        /* \"TEXOToken.sol\":41747:41765  uint256 tEXOReward */\n      0x00\n        /* \"TEXOToken.sol\":41768:41889  multiplier... */\n      tag_331\n        /* \"TEXOToken.sol\":41873:41888  totalAllocPoint */\n      sload(0x09)\n        /* \"TEXOToken.sol\":41768:41851  multiplier... */\n      tag_332\n        /* \"TEXOToken.sol\":41835:41839  pool */\n      dup9\n        /* \"TEXOToken.sol\":41835:41850  pool.allocPoint */\n      0x01\n      add\n      sload\n        /* \"TEXOToken.sol\":41768:41813  multiplier... */\n      tag_333\n        /* \"TEXOToken.sol\":41800:41812  tEXOPerBlock */\n      sload(0x04)\n        /* \"TEXOToken.sol\":41768:41778  multiplier */\n      dup8\n        /* \"TEXOToken.sol\":41768:41799  multiplier... */\n      tag_189\n      swap1\n        /* \"TEXOToken.sol\":41768:41813  multiplier... */\n      swap2\n      swap1\n      0xffffffff\n      and\n      jump\t// in\n    tag_333:\n        /* \"TEXOToken.sol\":41768:41834  multiplier... */\n      tag_189\n      swap1\n        /* \"TEXOToken.sol\":41768:41851  multiplier... */\n      swap2\n      swap1\n      0xffffffff\n      and\n      jump\t// in\n    tag_332:\n        /* \"TEXOToken.sol\":41768:41872  multiplier... */\n      tag_190\n      swap1\n        /* \"TEXOToken.sol\":41768:41889  multiplier... */\n      swap2\n      swap1\n      0xffffffff\n      and\n      jump\t// in\n    tag_331:\n        /* \"TEXOToken.sol\":41747:41889  uint256 tEXOReward = multiplier... */\n      swap1\n      pop\n        /* \"TEXOToken.sol\":41922:42082  accTEXOPerShare... */\n      tag_334\n        /* \"TEXOToken.sol\":41980:42064  tEXOReward... */\n      tag_335\n        /* \"TEXOToken.sol\":42055:42063  lpSupply */\n      dup5\n        /* \"TEXOToken.sol\":41980:42025  tEXOReward... */\n      tag_336\n        /* \"TEXOToken.sol\":42020:42024  1e12 */\n      0xe8d4a51000\n        /* \"TEXOToken.sol\":41980:41990  tEXOReward */\n      dup6\n        /* \"TEXOToken.sol\":41980:42019  tEXOReward... */\n      tag_189\n      swap1\n        /* \"TEXOToken.sol\":41980:42025  tEXOReward... */\n      swap2\n      swap1\n      0xffffffff\n      and\n      jump\t// in\n    tag_336:\n        /* \"TEXOToken.sol\":41980:42054  tEXOReward... */\n      tag_190\n      swap1\n        /* \"TEXOToken.sol\":41980:42064  tEXOReward... */\n      swap2\n      swap1\n      0xffffffff\n      and\n      jump\t// in\n    tag_335:\n        /* \"TEXOToken.sol\":41922:41937  accTEXOPerShare */\n      dup6\n        /* \"TEXOToken.sol\":41922:41958  accTEXOPerShare... */\n      tag_228\n      swap1\n        /* \"TEXOToken.sol\":41922:42082  accTEXOPerShare... */\n      swap2\n      swap1\n      0xffffffff\n      and\n      jump\t// in\n    tag_334:\n        /* \"TEXOToken.sol\":41904:42082  accTEXOPerShare = accTEXOPerShare... */\n      swap4\n      pop\n        /* \"TEXOToken.sol\":41591:42093  if (block.number > pool.lastRewardBlock && lpSupply != 0) {... */\n      pop\n      pop\n    tag_329:\n        /* \"TEXOToken.sol\":42110:42212  user.amount... */\n      tag_337\n        /* \"TEXOToken.sol\":42196:42200  user */\n      dup4\n        /* \"TEXOToken.sol\":42196:42211  user.rewardDebt */\n      0x01\n      add\n      sload\n        /* \"TEXOToken.sol\":42110:42178  user.amount... */\n      tag_338\n        /* \"TEXOToken.sol\":42173:42177  1e12 */\n      0xe8d4a51000\n        /* \"TEXOToken.sol\":42110:42155  user.amount... */\n      tag_339\n        /* \"TEXOToken.sol\":42139:42154  accTEXOPerShare */\n      dup7\n        /* \"TEXOToken.sol\":42110:42114  user */\n      dup9\n        /* \"TEXOToken.sol\":42110:42121  user.amount */\n      0x00\n      add\n      sload\n        /* \"TEXOToken.sol\":42110:42138  user.amount... */\n      tag_189\n      swap1\n        /* \"TEXOToken.sol\":42110:42155  user.amount... */\n      swap2\n      swap1\n      0xffffffff\n      and\n      jump\t// in\n    tag_339:\n        /* \"TEXOToken.sol\":42110:42172  user.amount... */\n      tag_190\n      swap1\n        /* \"TEXOToken.sol\":42110:42178  user.amount... */\n      swap2\n      swap1\n      0xffffffff\n      and\n      jump\t// in\n    tag_338:\n        /* \"TEXOToken.sol\":42110:42195  user.amount... */\n      tag_191\n      swap1\n        /* \"TEXOToken.sol\":42110:42212  user.amount... */\n      swap2\n      swap1\n      0xffffffff\n      and\n      jump\t// in\n    tag_337:\n        /* \"TEXOToken.sol\":42103:42212  return user.amount... */\n      swap5\n      pop\n      pop\n      pop\n      pop\n      pop\n        /* \"TEXOToken.sol\":41272:42219  function pendingTEXO(uint256 _pid, address _user) external view returns (uint256) {... */\n      swap3\n      swap2\n      pop\n      pop\n      jump\t// out\n        /* \"TEXOToken.sol\":44051:45590  function deposit(uint256 _pid, uint256 _amount) public nonReentrant {... */\n    tag_158:\n        /* \"TEXOToken.sol\":21204:21205  2 */\n      0x02\n        /* \"TEXOToken.sol\":21793:21800  _status */\n      sload(0x01)\n        /* \"TEXOToken.sol\":21793:21812  _status != _ENTERED */\n      eq\n      iszero\n        /* \"TEXOToken.sol\":21785:21848  require(_status != _ENTERED, \"ReentrancyGuard: reentrant call\") */\n      tag_341\n      jumpi\n      mload(0x40)\n      0x08c379a000000000000000000000000000000000000000000000000000000000\n      dup2\n      mstore\n      0x04\n      add\n      dup1\n      dup1\n      0x20\n      add\n      dup3\n      dup2\n      sub\n      dup3\n      mstore\n      0x1f\n      dup2\n      mstore\n      0x20\n      add\n      dup1\n      0x5265656e7472616e637947756172643a207265656e7472616e742063616c6c00\n      dup2\n      mstore\n      pop\n      0x20\n      add\n      swap2\n      pop\n      pop\n      mload(0x40)\n      dup1\n      swap2\n      sub\n      swap1\n      revert\n    tag_341:\n        /* \"TEXOToken.sol\":21204:21205  2 */\n      0x02\n        /* \"TEXOToken.sol\":21923:21930  _status */\n      0x01\n        /* \"TEXOToken.sol\":21923:21941  _status = _ENTERED */\n      dup2\n      swap1\n      sstore\n      pop\n        /* \"TEXOToken.sol\":44129:44150  PoolInfo storage pool */\n      0x00\n        /* \"TEXOToken.sol\":44153:44161  poolInfo */\n      0x07\n        /* \"TEXOToken.sol\":44162:44166  _pid */\n      dup4\n        /* \"TEXOToken.sol\":44153:44167  poolInfo[_pid] */\n      dup2\n      sload\n      dup2\n      lt\n      tag_343\n      jumpi\n      invalid\n    tag_343:\n      swap1\n      0x00\n      mstore\n      keccak256(0x00, 0x20)\n      swap1\n      0x06\n      mul\n      add\n        /* \"TEXOToken.sol\":44129:44167  PoolInfo storage pool = poolInfo[_pid] */\n      swap1\n      pop\n        /* \"TEXOToken.sol\":44177:44198  UserInfo storage user */\n      0x00\n        /* \"TEXOToken.sol\":44201:44209  userInfo */\n      0x08\n        /* \"TEXOToken.sol\":44201:44215  userInfo[_pid] */\n      0x00\n        /* \"TEXOToken.sol\":44210:44214  _pid */\n      dup6\n        /* \"TEXOToken.sol\":44201:44215  userInfo[_pid] */\n      dup2\n      mstore\n      0x20\n      add\n      swap1\n      dup2\n      mstore\n      0x20\n      add\n      0x00\n      keccak256\n        /* \"TEXOToken.sol\":44201:44227  userInfo[_pid][msg.sender] */\n      0x00\n        /* \"TEXOToken.sol\":44216:44226  msg.sender */\n      caller\n        /* \"TEXOToken.sol\":44201:44227  userInfo[_pid][msg.sender] */\n      0xffffffffffffffffffffffffffffffffffffffff\n      and\n      0xffffffffffffffffffffffffffffffffffffffff\n      and\n      dup2\n      mstore\n      0x20\n      add\n      swap1\n      dup2\n      mstore\n      0x20\n      add\n      0x00\n      keccak256\n        /* \"TEXOToken.sol\":44177:44227  UserInfo storage user = userInfo[_pid][msg.sender] */\n      swap1\n      pop\n        /* \"TEXOToken.sol\":44238:44254  updatePool(_pid) */\n      tag_345\n        /* \"TEXOToken.sol\":44249:44253  _pid */\n      dup5\n        /* \"TEXOToken.sol\":44238:44248  updatePool */\n      tag_87\n        /* \"TEXOToken.sol\":44238:44254  updatePool(_pid) */\n      jump\t// in\n    tag_345:\n        /* \"TEXOToken.sol\":44283:44284  0 */\n      0x00\n        /* \"TEXOToken.sol\":44269:44273  user */\n      dup2\n        /* \"TEXOToken.sol\":44269:44280  user.amount */\n      0x00\n      add\n      sload\n        /* \"TEXOToken.sol\":44269:44284  user.amount > 0 */\n      gt\n        /* \"TEXOToken.sol\":44265:44755  if (user.amount > 0) {... */\n      iszero\n      tag_346\n      jumpi\n        /* \"TEXOToken.sol\":44300:44315  uint256 pending */\n      0x00\n        /* \"TEXOToken.sol\":44318:44437  user.amount... */\n      tag_347\n        /* \"TEXOToken.sol\":44421:44425  user */\n      dup3\n        /* \"TEXOToken.sol\":44421:44436  user.rewardDebt */\n      0x01\n      add\n      sload\n        /* \"TEXOToken.sol\":44318:44399  user.amount... */\n      tag_348\n        /* \"TEXOToken.sol\":44394:44398  1e12 */\n      0xe8d4a51000\n        /* \"TEXOToken.sol\":44318:44372  user.amount... */\n      tag_349\n        /* \"TEXOToken.sol\":44351:44355  pool */\n      dup8\n        /* \"TEXOToken.sol\":44351:44371  pool.accTEXOPerShare */\n      0x04\n      add\n      sload\n        /* \"TEXOToken.sol\":44318:44322  user */\n      dup8\n        /* \"TEXOToken.sol\":44318:44329  user.amount */\n      0x00\n      add\n      sload\n        /* \"TEXOToken.sol\":44318:44350  user.amount... */\n      tag_189\n      swap1\n        /* \"TEXOToken.sol\":44318:44372  user.amount... */\n      swap2\n      swap1\n      0xffffffff\n      and\n      jump\t// in\n    tag_349:\n        /* \"TEXOToken.sol\":44318:44393  user.amount... */\n      tag_190\n      swap1\n        /* \"TEXOToken.sol\":44318:44399  user.amount... */\n      swap2\n      swap1\n      0xffffffff\n      and\n      jump\t// in\n    tag_348:\n        /* \"TEXOToken.sol\":44318:44420  user.amount... */\n      tag_191\n      swap1\n        /* \"TEXOToken.sol\":44318:44437  user.amount... */\n      swap2\n      swap1\n      0xffffffff\n      and\n      jump\t// in\n    tag_347:\n        /* \"TEXOToken.sol\":44300:44437  uint256 pending = user.amount... */\n      swap1\n      pop\n        /* \"TEXOToken.sol\":44452:44472  bool canWithdrawTEXO */\n      0x00\n        /* \"TEXOToken.sol\":44475:44498  canWithdrawReward(_pid) */\n      tag_350\n        /* \"TEXOToken.sol\":44493:44497  _pid */\n      dup7\n        /* \"TEXOToken.sol\":44475:44492  canWithdrawReward */\n      tag_137\n        /* \"TEXOToken.sol\":44475:44498  canWithdrawReward(_pid) */\n      jump\t// in\n    tag_350:\n        /* \"TEXOToken.sol\":44452:44498  bool canWithdrawTEXO = canWithdrawReward(_pid) */\n      swap1\n      pop\n        /* \"TEXOToken.sol\":44517:44532  canWithdrawTEXO */\n      dup1\n        /* \"TEXOToken.sol\":44517:44547  canWithdrawTEXO && pending > 0 */\n      dup1\n      iszero\n      tag_351\n      jumpi\n      pop\n        /* \"TEXOToken.sol\":44546:44547  0 */\n      0x00\n        /* \"TEXOToken.sol\":44536:44543  pending */\n      dup3\n        /* \"TEXOToken.sol\":44536:44547  pending > 0 */\n      gt\n        /* \"TEXOToken.sol\":44517:44547  canWithdrawTEXO && pending > 0 */\n    tag_351:\n        /* \"TEXOToken.sol\":44513:44745  if (canWithdrawTEXO && pending > 0) {... */\n      iszero\n      tag_352\n      jumpi\n        /* \"TEXOToken.sol\":44567:44604  safeTEXOTransfer(msg.sender, pending) */\n      tag_353\n        /* \"TEXOToken.sol\":44584:44594  msg.sender */\n      caller\n        /* \"TEXOToken.sol\":44596:44603  pending */\n      dup4\n        /* \"TEXOToken.sol\":44567:44583  safeTEXOTransfer */\n      tag_195\n        /* \"TEXOToken.sol\":44567:44604  safeTEXOTransfer(msg.sender, pending) */\n      jump\t// in\n    tag_353:\n        /* \"TEXOToken.sol\":44641:44730  user.amount... */\n      tag_354\n        /* \"TEXOToken.sol\":44725:44729  1e12 */\n      0xe8d4a51000\n        /* \"TEXOToken.sol\":44641:44699  user.amount... */\n      tag_355\n        /* \"TEXOToken.sol\":44678:44682  pool */\n      dup7\n        /* \"TEXOToken.sol\":44678:44698  pool.accTEXOPerShare */\n      0x04\n      add\n      sload\n        /* \"TEXOToken.sol\":44641:44645  user */\n      dup7\n        /* \"TEXOToken.sol\":44641:44652  user.amount */\n      0x00\n      add\n      sload\n        /* \"TEXOToken.sol\":44641:44677  user.amount... */\n      tag_189\n      swap1\n        /* \"TEXOToken.sol\":44641:44699  user.amount... */\n      swap2\n      swap1\n      0xffffffff\n      and\n      jump\t// in\n    tag_355:\n        /* \"TEXOToken.sol\":44641:44724  user.amount... */\n      tag_190\n      swap1\n        /* \"TEXOToken.sol\":44641:44730  user.amount... */\n      swap2\n      swap1\n      0xffffffff\n      and\n      jump\t// in\n    tag_354:\n        /* \"TEXOToken.sol\":44623:44627  user */\n      dup4\n        /* \"TEXOToken.sol\":44623:44638  user.rewardDebt */\n      0x01\n      add\n        /* \"TEXOToken.sol\":44623:44730  user.rewardDebt = user.amount... */\n      dup2\n      swap1\n      sstore\n      pop\n        /* \"TEXOToken.sol\":44513:44745  if (canWithdrawTEXO && pending > 0) {... */\n    tag_352:\n        /* \"TEXOToken.sol\":44265:44755  if (user.amount > 0) {... */\n      pop\n      pop\n    tag_346:\n        /* \"TEXOToken.sol\":44779:44780  0 */\n      0x00\n        /* \"TEXOToken.sol\":44769:44776  _amount */\n      dup4\n        /* \"TEXOToken.sol\":44769:44780  _amount > 0 */\n      gt\n        /* \"TEXOToken.sol\":44765:45319  if (_amount > 0) {... */\n      iszero\n      tag_356\n      jumpi\n        /* \"TEXOToken.sol\":44796:44870  pool.lpToken.safeTransferFrom(address(msg.sender), address(this), _amount) */\n      tag_357\n        /* \"TEXOToken.sol\":44834:44844  msg.sender */\n      caller\n        /* \"TEXOToken.sol\":44855:44859  this */\n      address\n        /* \"TEXOToken.sol\":44862:44869  _amount */\n      dup6\n        /* \"TEXOToken.sol\":44796:44800  pool */\n      dup6\n        /* \"TEXOToken.sol\":44796:44808  pool.lpToken */\n      0x00\n      add\n      0x00\n      swap1\n      sload\n      swap1\n      0x0100\n      exp\n      swap1\n      div\n      0xffffffffffffffffffffffffffffffffffffffff\n      and\n        /* \"TEXOToken.sol\":44796:44825  pool.lpToken.safeTransferFrom */\n      0xffffffffffffffffffffffffffffffffffffffff\n      and\n      tag_282\n      swap1\n        /* \"TEXOToken.sol\":44796:44870  pool.lpToken.safeTransferFrom(address(msg.sender), address(this), _amount) */\n      swap4\n      swap3\n      swap2\n      swap1\n      0xffffffff\n      and\n      jump\t// in\n    tag_357:\n        /* \"TEXOToken.sol\":44909:44910  0 */\n      0x00\n        /* \"TEXOToken.sol\":44889:44893  pool */\n      dup3\n        /* \"TEXOToken.sol\":44889:44906  pool.depositFeeBP */\n      0x05\n      add\n      0x00\n      swap1\n      sload\n      swap1\n      0x0100\n      exp\n      swap1\n      div\n      0xffff\n      and\n        /* \"TEXOToken.sol\":44889:44910  pool.depositFeeBP > 0 */\n      0xffff\n      and\n      gt\n        /* \"TEXOToken.sol\":44885:45309  if (pool.depositFeeBP > 0) {... */\n      iszero\n      tag_358\n      jumpi\n        /* \"TEXOToken.sol\":44930:44948  uint256 depositFee */\n      0x00\n        /* \"TEXOToken.sol\":44951:45034  _amount... */\n      tag_359\n        /* \"TEXOToken.sol\":45028:45033  10000 */\n      0x2710\n        /* \"TEXOToken.sol\":44951:45002  _amount... */\n      tag_360\n        /* \"TEXOToken.sol\":44984:44988  pool */\n      dup6\n        /* \"TEXOToken.sol\":44984:45001  pool.depositFeeBP */\n      0x05\n      add\n      0x00\n      swap1\n      sload\n      swap1\n      0x0100\n      exp\n      swap1\n      div\n      0xffff\n      and\n        /* \"TEXOToken.sol\":44951:45002  _amount... */\n      0xffff\n      and\n        /* \"TEXOToken.sol\":44951:44958  _amount */\n      dup8\n        /* \"TEXOToken.sol\":44951:44983  _amount... */\n      tag_189\n      swap1\n        /* \"TEXOToken.sol\":44951:45002  _amount... */\n      swap2\n      swap1\n      0xffffffff\n      and\n      jump\t// in\n    tag_360:\n        /* \"TEXOToken.sol\":44951:45027  _amount... */\n      tag_190\n      swap1\n        /* \"TEXOToken.sol\":44951:45034  _amount... */\n      swap2\n      swap1\n      0xffffffff\n      and\n      jump\t// in\n    tag_359:\n        /* \"TEXOToken.sol\":44930:45034  uint256 depositFee = _amount... */\n      swap1\n      pop\n        /* \"TEXOToken.sol\":45067:45149  user.amount... */\n      tag_361\n        /* \"TEXOToken.sol\":45138:45148  depositFee */\n      dup2\n        /* \"TEXOToken.sol\":45067:45112  user.amount... */\n      tag_362\n        /* \"TEXOToken.sol\":45104:45111  _amount */\n      dup7\n        /* \"TEXOToken.sol\":45067:45071  user */\n      dup6\n        /* \"TEXOToken.sol\":45067:45078  user.amount */\n      0x00\n      add\n      sload\n        /* \"TEXOToken.sol\":45067:45103  user.amount... */\n      tag_228\n      swap1\n        /* \"TEXOToken.sol\":45067:45112  user.amount... */\n      swap2\n      swap1\n      0xffffffff\n      and\n      jump\t// in\n    tag_362:\n        /* \"TEXOToken.sol\":45067:45137  user.amount... */\n      tag_191\n      swap1\n        /* \"TEXOToken.sol\":45067:45149  user.amount... */\n      swap2\n      swap1\n      0xffffffff\n      and\n      jump\t// in\n    tag_361:\n        /* \"TEXOToken.sol\":45053:45057  user */\n      dup3\n        /* \"TEXOToken.sol\":45053:45064  user.amount */\n      0x00\n      add\n        /* \"TEXOToken.sol\":45053:45149  user.amount = user.amount... */\n      dup2\n      swap1\n      sstore\n      pop\n        /* \"TEXOToken.sol\":45168:45217  pool.lpToken.safeTransfer(feeAddress, depositFee) */\n      tag_363\n        /* \"TEXOToken.sol\":45194:45204  feeAddress */\n      0x05\n      0x00\n      swap1\n      sload\n      swap1\n      0x0100\n      exp\n      swap1\n      div\n      0xffffffffffffffffffffffffffffffffffffffff\n      and\n        /* \"TEXOToken.sol\":45206:45216  depositFee */\n      dup3\n        /* \"TEXOToken.sol\":45168:45172  pool */\n      dup6\n        /* \"TEXOToken.sol\":45168:45180  pool.lpToken */\n      0x00\n      add\n      0x00\n      swap1\n      sload\n      swap1\n      0x0100\n      exp\n      swap1\n      div\n      0xffffffffffffffffffffffffffffffffffffffff\n      and\n        /* \"TEXOToken.sol\":45168:45193  pool.lpToken.safeTransfer */\n      0xffffffffffffffffffffffffffffffffffffffff\n      and\n      tag_203\n      swap1\n        /* \"TEXOToken.sol\":45168:45217  pool.lpToken.safeTransfer(feeAddress, depositFee) */\n      swap3\n      swap2\n      swap1\n      0xffffffff\n      and\n      jump\t// in\n    tag_363:\n        /* \"TEXOToken.sol\":44885:45309  if (pool.depositFeeBP > 0) {... */\n      pop\n      jump(tag_364)\n    tag_358:\n        /* \"TEXOToken.sol\":45270:45294  user.amount.add(_amount) */\n      tag_365\n        /* \"TEXOToken.sol\":45286:45293  _amount */\n      dup4\n        /* \"TEXOToken.sol\":45270:45274  user */\n      dup3\n        /* \"TEXOToken.sol\":45270:45281  user.amount */\n      0x00\n      add\n      sload\n        /* \"TEXOToken.sol\":45270:45285  user.amount.add */\n      tag_228\n      swap1\n        /* \"TEXOToken.sol\":45270:45294  user.amount.add(_amount) */\n      swap2\n      swap1\n      0xffffffff\n      and\n      jump\t// in\n    tag_365:\n        /* \"TEXOToken.sol\":45256:45260  user */\n      dup2\n        /* \"TEXOToken.sol\":45256:45267  user.amount */\n      0x00\n      add\n        /* \"TEXOToken.sol\":45256:45294  user.amount = user.amount.add(_amount) */\n      dup2\n      swap1\n      sstore\n      pop\n        /* \"TEXOToken.sol\":44885:45309  if (pool.depositFeeBP > 0) {... */\n    tag_364:\n        /* \"TEXOToken.sol\":44765:45319  if (_amount > 0) {... */\n    tag_356:\n        /* \"TEXOToken.sol\":45334:45338  user */\n      dup1\n        /* \"TEXOToken.sol\":45334:45354  user.isAlreadyStaked */\n      0x02\n      add\n      0x00\n      swap1\n      sload\n      swap1\n      0x0100\n      exp\n      swap1\n      div\n      0xff\n      and\n        /* \"TEXOToken.sol\":45329:45534  if (!user.isAlreadyStaked) {... */\n      tag_366\n      jumpi\n        /* \"TEXOToken.sol\":45388:45469  user.amount... */\n      tag_367\n        /* \"TEXOToken.sol\":45464:45468  1e12 */\n      0xe8d4a51000\n        /* \"TEXOToken.sol\":45388:45442  user.amount... */\n      tag_368\n        /* \"TEXOToken.sol\":45421:45425  pool */\n      dup5\n        /* \"TEXOToken.sol\":45421:45441  pool.accTEXOPerShare */\n      0x04\n      add\n      sload\n        /* \"TEXOToken.sol\":45388:45392  user */\n      dup5\n        /* \"TEXOToken.sol\":45388:45399  user.amount */\n      0x00\n      add\n      sload\n        /* \"TEXOToken.sol\":45388:45420  user.amount... */\n      tag_189\n      swap1\n        /* \"TEXOToken.sol\":45388:45442  user.amount... */\n      swap2\n      swap1\n      0xffffffff\n      and\n      jump\t// in\n    tag_368:\n        /* \"TEXOToken.sol\":45388:45463  user.amount... */\n      tag_190\n      swap1\n        /* \"TEXOToken.sol\":45388:45469  user.amount... */\n      swap2\n      swap1\n      0xffffffff\n      and\n      jump\t// in\n    tag_367:\n        /* \"TEXOToken.sol\":45370:45374  user */\n      dup2\n        /* \"TEXOToken.sol\":45370:45385  user.rewardDebt */\n      0x01\n      add\n        /* \"TEXOToken.sol\":45370:45469  user.rewardDebt = user.amount... */\n      dup2\n      swap1\n      sstore\n      pop\n        /* \"TEXOToken.sol\":45519:45523  true */\n      0x01\n        /* \"TEXOToken.sol\":45496:45500  user */\n      dup2\n        /* \"TEXOToken.sol\":45496:45516  user.isAlreadyStaked */\n      0x02\n      add\n      0x00\n        /* \"TEXOToken.sol\":45496:45523  user.isAlreadyStaked = true */\n      0x0100\n      exp\n      dup2\n      sload\n      dup2\n      0xff\n      mul\n      not\n      and\n      swap1\n      dup4\n      iszero\n      iszero\n      mul\n      or\n      swap1\n      sstore\n      pop\n        /* \"TEXOToken.sol\":45329:45534  if (!user.isAlreadyStaked) {... */\n    tag_366:\n        /* \"TEXOToken.sol\":45569:45573  _pid */\n      dup4\n        /* \"TEXOToken.sol\":45557:45567  msg.sender */\n      caller\n        /* \"TEXOToken.sol\":45549:45583  Deposit(msg.sender, _pid, _amount) */\n      0xffffffffffffffffffffffffffffffffffffffff\n      and\n      0x90890809c654f11d6e72a28fa60149770a0d11ec6c92319d6ceb2bb0a4ea1a15\n        /* \"TEXOToken.sol\":45575:45582  _amount */\n      dup6\n        /* \"TEXOToken.sol\":45549:45583  Deposit(msg.sender, _pid, _amount) */\n      mload(0x40)\n      dup1\n      dup3\n      dup2\n      mstore\n      0x20\n      add\n      swap2\n      pop\n      pop\n      mload(0x40)\n      dup1\n      swap2\n      sub\n      swap1\n      log3\n        /* \"TEXOToken.sol\":21952:21953  _ */\n      pop\n      pop\n        /* \"TEXOToken.sol\":21161:21162  1 */\n      0x01\n        /* \"TEXOToken.sol\":22096:22103  _status */\n      dup1\n        /* \"TEXOToken.sol\":22096:22118  _status = _NOT_ENTERED */\n      dup2\n      swap1\n      sstore\n      pop\n        /* \"TEXOToken.sol\":44051:45590  function deposit(uint256 _pid, uint256 _amount) public nonReentrant {... */\n      pop\n      pop\n      jump\t// out\n        /* \"TEXOToken.sol\":50202:51601  function reduceEmissionRateWithDefaultRate() public {... */\n    tag_160:\n        /* \"TEXOToken.sol\":50272:50297  isAllowReduceEmissionRate */\n      0x10\n      0x00\n      swap1\n      sload\n      swap1\n      0x0100\n      exp\n      swap1\n      div\n      0xff\n      and\n        /* \"TEXOToken.sol\":50264:50366  require(isAllowReduceEmissionRate, \"reduceEmissionRateWithDefaultRate: Permission flag not turned on\") */\n      tag_370\n      jumpi\n      mload(0x40)\n      0x08c379a000000000000000000000000000000000000000000000000000000000\n      dup2\n      mstore\n      0x04\n      add\n      dup1\n      dup1\n      0x20\n      add\n      dup3\n      dup2\n      sub\n      dup3\n      mstore\n      0x40\n      dup2\n      mstore\n      0x20\n      add\n      dup1\n      data_fb61bfab522ff5726f96c4cebf8c9bc7c68d529a173450ab2ca49eebd2ecf0bb\n      0x40\n      swap2\n      codecopy\n      0x40\n      add\n      swap2\n      pop\n      pop\n      mload(0x40)\n      dup1\n      swap2\n      sub\n      swap1\n      revert\n    tag_370:\n        /* \"TEXOToken.sol\":50399:50431  blockToStartReducingEmissionRate */\n      sload(0x06)\n        /* \"TEXOToken.sol\":50384:50396  block.number */\n      number\n        /* \"TEXOToken.sol\":50384:50431  block.number > blockToStartReducingEmissionRate */\n      gt\n        /* \"TEXOToken.sol\":50376:50518  require(block.number > blockToStartReducingEmissionRate, \"reduceEmissionRateWithDefaultRate: Can only be called after specified block starts\") */\n      tag_371\n      jumpi\n      mload(0x40)\n      0x08c379a000000000000000000000000000000000000000000000000000000000\n      dup2\n      mstore\n      0x04\n      add\n      dup1\n      dup1\n      0x20\n      add\n      dup3\n      dup2\n      sub\n      dup3\n      mstore\n      0x52\n      dup2\n      mstore\n      0x20\n      add\n      dup1\n      data_a827dd9c9a80825686eef28a9f1d2466e1d29b6da48280d16028581898989615\n      0x52\n      swap2\n      codecopy\n      0x60\n      add\n      swap2\n      pop\n      pop\n      mload(0x40)\n      dup1\n      swap2\n      sub\n      swap1\n      revert\n    tag_371:\n        /* \"TEXOToken.sol\":36867:36876  50 finney */\n      0xb1a2bc2ec50000\n        /* \"TEXOToken.sol\":50536:50548  tEXOPerBlock */\n      sload(0x04)\n        /* \"TEXOToken.sol\":50536:50572  tEXOPerBlock > MINIMUM_EMISSION_RATE */\n      gt\n        /* \"TEXOToken.sol\":50528:50659  require(tEXOPerBlock > MINIMUM_EMISSION_RATE, \"reduceEmissionRateWithDefaultRate: Emission rate has reached the minimum threshold\") */\n      tag_372\n      jumpi\n      mload(0x40)\n      0x08c379a000000000000000000000000000000000000000000000000000000000\n      dup2\n      mstore\n      0x04\n      add\n      dup1\n      dup1\n      0x20\n      add\n      dup3\n      dup2\n      sub\n      dup3\n      mstore\n      0x52\n      dup2\n      mstore\n      0x20\n      add\n      dup1\n      data_d4e7846547be135afcf8a93a01a9053e9fa2c0d79f8d5448158422588210b6ab\n      0x52\n      swap2\n      codecopy\n      0x60\n      add\n      swap2\n      pop\n      pop\n      mload(0x40)\n      dup1\n      swap2\n      sub\n      swap1\n      revert\n    tag_372:\n        /* \"TEXOToken.sol\":50670:50690  uint256 currentIndex */\n      0x00\n        /* \"TEXOToken.sol\":50693:50781  block.number.sub(blockToStartReducingEmissionRate).div(EMISSION_REDUCTION_PERIOD_BLOCKS) */\n      tag_373\n        /* \"TEXOToken.sol\":36997:37002  14400 */\n      0x3840\n        /* \"TEXOToken.sol\":50693:50743  block.number.sub(blockToStartReducingEmissionRate) */\n      tag_374\n        /* \"TEXOToken.sol\":50710:50742  blockToStartReducingEmissionRate */\n      sload(0x06)\n        /* \"TEXOToken.sol\":50693:50705  block.number */\n      number\n        /* \"TEXOToken.sol\":50693:50709  block.number.sub */\n      tag_191\n      swap1\n        /* \"TEXOToken.sol\":50693:50743  block.number.sub(blockToStartReducingEmissionRate) */\n      swap2\n      swap1\n      0xffffffff\n      and\n      jump\t// in\n    tag_374:\n        /* \"TEXOToken.sol\":50693:50747  block.number.sub(blockToStartReducingEmissionRate).div */\n      tag_190\n      swap1\n        /* \"TEXOToken.sol\":50693:50781  block.number.sub(blockToStartReducingEmissionRate).div(EMISSION_REDUCTION_PERIOD_BLOCKS) */\n      swap2\n      swap1\n      0xffffffff\n      and\n      jump\t// in\n    tag_373:\n        /* \"TEXOToken.sol\":50670:50781  uint256 currentIndex = block.number.sub(blockToStartReducingEmissionRate).div(EMISSION_REDUCTION_PERIOD_BLOCKS) */\n      swap1\n      pop\n        /* \"TEXOToken.sol\":50811:50835  lastReductionPeriodIndex */\n      sload(0x0f)\n        /* \"TEXOToken.sol\":50795:50807  currentIndex */\n      dup2\n        /* \"TEXOToken.sol\":50795:50835  currentIndex <= lastReductionPeriodIndex */\n      gt\n        /* \"TEXOToken.sol\":50791:50868  if (currentIndex <= lastReductionPeriodIndex) {... */\n      tag_375\n      jumpi\n        /* \"TEXOToken.sol\":50851:50858  return; */\n      pop\n      jump(tag_369)\n        /* \"TEXOToken.sol\":50791:50868  if (currentIndex <= lastReductionPeriodIndex) {... */\n    tag_375:\n        /* \"TEXOToken.sol\":50878:50901  uint256 newEmissionRate */\n      0x00\n        /* \"TEXOToken.sol\":50904:50916  tEXOPerBlock */\n      sload(0x04)\n        /* \"TEXOToken.sol\":50878:50916  uint256 newEmissionRate = tEXOPerBlock */\n      swap1\n      pop\n        /* \"TEXOToken.sol\":50931:50944  uint256 index */\n      0x00\n        /* \"TEXOToken.sol\":50947:50971  lastReductionPeriodIndex */\n      sload(0x0f)\n        /* \"TEXOToken.sol\":50931:50971  uint256 index = lastReductionPeriodIndex */\n      swap1\n      pop\n        /* \"TEXOToken.sol\":50926:51151  for (uint256 index = lastReductionPeriodIndex; index < currentIndex; ++index) {... */\n    tag_376:\n        /* \"TEXOToken.sol\":50981:50993  currentIndex */\n      dup3\n        /* \"TEXOToken.sol\":50973:50978  index */\n      dup2\n        /* \"TEXOToken.sol\":50973:50993  index < currentIndex */\n      lt\n        /* \"TEXOToken.sol\":50926:51151  for (uint256 index = lastReductionPeriodIndex; index < currentIndex; ++index) {... */\n      iszero\n      tag_377\n      jumpi\n        /* \"TEXOToken.sol\":51036:51140  newEmissionRate... */\n      tag_379\n        /* \"TEXOToken.sol\":51136:51139  1e4 */\n      0x2710\n        /* \"TEXOToken.sol\":51036:51114  newEmissionRate... */\n      tag_380\n        /* \"TEXOToken.sol\":37132:37135  300 */\n      0x012c\n        /* \"TEXOToken.sol\":51073:51076  1e4 */\n      0x2710\n        /* \"TEXOToken.sol\":51073:51113  1e4 - EMISSION_REDUCTION_RATE_PER_PERIOD */\n      sub\n        /* \"TEXOToken.sol\":51036:51051  newEmissionRate */\n      dup6\n        /* \"TEXOToken.sol\":51036:51072  newEmissionRate... */\n      tag_189\n      swap1\n        /* \"TEXOToken.sol\":51036:51114  newEmissionRate... */\n      swap2\n      swap1\n      0xffffffff\n      and\n      jump\t// in\n    tag_380:\n        /* \"TEXOToken.sol\":51036:51135  newEmissionRate... */\n      tag_190\n      swap1\n        /* \"TEXOToken.sol\":51036:51140  newEmissionRate... */\n      swap2\n      swap1\n      0xffffffff\n      and\n      jump\t// in\n    tag_379:\n        /* \"TEXOToken.sol\":51018:51140  newEmissionRate = newEmissionRate... */\n      swap2\n      pop\n        /* \"TEXOToken.sol\":50995:51002  ++index */\n      dup1\n      0x01\n      add\n      swap1\n      pop\n        /* \"TEXOToken.sol\":50926:51151  for (uint256 index = lastReductionPeriodIndex; index < currentIndex; ++index) {... */\n      jump(tag_376)\n    tag_377:\n      pop\n        /* \"TEXOToken.sol\":36867:36876  50 finney */\n      0xb1a2bc2ec50000\n        /* \"TEXOToken.sol\":51179:51194  newEmissionRate */\n      dup2\n        /* \"TEXOToken.sol\":51179:51218  newEmissionRate < MINIMUM_EMISSION_RATE */\n      lt\n        /* \"TEXOToken.sol\":51179:51260  newEmissionRate < MINIMUM_EMISSION_RATE ? MINIMUM_EMISSION_RATE : newEmissionRate */\n      tag_381\n      jumpi\n        /* \"TEXOToken.sol\":51245:51260  newEmissionRate */\n      dup1\n        /* \"TEXOToken.sol\":51179:51260  newEmissionRate < MINIMUM_EMISSION_RATE ? MINIMUM_EMISSION_RATE : newEmissionRate */\n      jump(tag_382)\n    tag_381:\n        /* \"TEXOToken.sol\":36867:36876  50 finney */\n      0xb1a2bc2ec50000\n        /* \"TEXOToken.sol\":51179:51260  newEmissionRate < MINIMUM_EMISSION_RATE ? MINIMUM_EMISSION_RATE : newEmissionRate */\n    tag_382:\n        /* \"TEXOToken.sol\":51161:51260  newEmissionRate = newEmissionRate < MINIMUM_EMISSION_RATE ? MINIMUM_EMISSION_RATE : newEmissionRate */\n      swap1\n      pop\n        /* \"TEXOToken.sol\":51293:51305  tEXOPerBlock */\n      sload(0x04)\n        /* \"TEXOToken.sol\":51274:51289  newEmissionRate */\n      dup2\n        /* \"TEXOToken.sol\":51274:51305  newEmissionRate >= tEXOPerBlock */\n      lt\n        /* \"TEXOToken.sol\":51270:51338  if (newEmissionRate >= tEXOPerBlock) {... */\n      tag_383\n      jumpi\n        /* \"TEXOToken.sol\":51321:51328  return; */\n      pop\n      pop\n      jump(tag_369)\n        /* \"TEXOToken.sol\":51270:51338  if (newEmissionRate >= tEXOPerBlock) {... */\n    tag_383:\n        /* \"TEXOToken.sol\":51348:51365  massUpdatePools() */\n      tag_384\n        /* \"TEXOToken.sol\":51348:51363  massUpdatePools */\n      tag_94\n        /* \"TEXOToken.sol\":51348:51365  massUpdatePools() */\n      jump\t// in\n    tag_384:\n        /* \"TEXOToken.sol\":51403:51415  currentIndex */\n      dup2\n        /* \"TEXOToken.sol\":51376:51400  lastReductionPeriodIndex */\n      0x0f\n        /* \"TEXOToken.sol\":51376:51415  lastReductionPeriodIndex = currentIndex */\n      dup2\n      swap1\n      sstore\n      pop\n        /* \"TEXOToken.sol\":51425:51453  uint256 previousEmissionRate */\n      0x00\n        /* \"TEXOToken.sol\":51456:51468  tEXOPerBlock */\n      sload(0x04)\n        /* \"TEXOToken.sol\":51425:51468  uint256 previousEmissionRate = tEXOPerBlock */\n      swap1\n      pop\n        /* \"TEXOToken.sol\":51493:51508  newEmissionRate */\n      dup2\n        /* \"TEXOToken.sol\":51478:51490  tEXOPerBlock */\n      0x04\n        /* \"TEXOToken.sol\":51478:51508  tEXOPerBlock = newEmissionRate */\n      dup2\n      swap1\n      sstore\n      pop\n        /* \"TEXOToken.sol\":51544:51554  msg.sender */\n      caller\n        /* \"TEXOToken.sol\":51524:51594  EmissionRateUpdated(msg.sender, previousEmissionRate, newEmissionRate) */\n      0xffffffffffffffffffffffffffffffffffffffff\n      and\n      0xeedc6338c9c1ad8f3cd6c90dd09dbe98dbd57e610d3e59a17996d07acb0d9511\n        /* \"TEXOToken.sol\":51556:51576  previousEmissionRate */\n      dup3\n        /* \"TEXOToken.sol\":51578:51593  newEmissionRate */\n      dup5\n        /* \"TEXOToken.sol\":51524:51594  EmissionRateUpdated(msg.sender, previousEmissionRate, newEmissionRate) */\n      mload(0x40)\n      dup1\n      dup4\n      dup2\n      mstore\n      0x20\n      add\n      dup3\n      dup2\n      mstore\n      0x20\n      add\n      swap3\n      pop\n      pop\n      pop\n      mload(0x40)\n      dup1\n      swap2\n      sub\n      swap1\n      log2\n        /* \"TEXOToken.sol\":50202:51601  function reduceEmissionRateWithDefaultRate() public {... */\n      pop\n      pop\n      pop\n    tag_369:\n      jump\t// out\n        /* \"TEXOToken.sol\":12366:12473  function transferOwnership(address newOwner) public onlyOwner {... */\n    tag_163:\n        /* \"TEXOToken.sol\":11671:11683  _msgSender() */\n      tag_386\n        /* \"TEXOToken.sol\":11671:11681  _msgSender */\n      tag_174\n        /* \"TEXOToken.sol\":11671:11683  _msgSender() */\n      jump\t// in\n    tag_386:\n        /* \"TEXOToken.sol\":11661:11683  _owner == _msgSender() */\n      0xffffffffffffffffffffffffffffffffffffffff\n      and\n        /* \"TEXOToken.sol\":11661:11667  _owner */\n      0x00\n      dup1\n      sload\n      swap1\n      0x0100\n      exp\n      swap1\n      div\n      0xffffffffffffffffffffffffffffffffffffffff\n      and\n        /* \"TEXOToken.sol\":11661:11683  _owner == _msgSender() */\n      0xffffffffffffffffffffffffffffffffffffffff\n      and\n      eq\n        /* \"TEXOToken.sol\":11653:11720  require(_owner == _msgSender(), \"Ownable: caller is not the owner\") */\n      tag_387\n      jumpi\n      mload(0x40)\n      0x08c379a000000000000000000000000000000000000000000000000000000000\n      dup2\n      mstore\n      0x04\n      add\n      dup1\n      dup1\n      0x20\n      add\n      dup3\n      dup2\n      sub\n      dup3\n      mstore\n      0x20\n      dup2\n      mstore\n      0x20\n      add\n      dup1\n      0x4f776e61626c653a2063616c6c6572206973206e6f7420746865206f776e6572\n      dup2\n      mstore\n      pop\n      0x20\n      add\n      swap2\n      pop\n      pop\n      mload(0x40)\n      dup1\n      swap2\n      sub\n      swap1\n      revert\n    tag_387:\n        /* \"TEXOToken.sol\":12438:12466  _transferOwnership(newOwner) */\n      tag_389\n        /* \"TEXOToken.sol\":12457:12465  newOwner */\n      dup2\n        /* \"TEXOToken.sol\":12438:12456  _transferOwnership */\n      tag_390\n        /* \"TEXOToken.sol\":12438:12466  _transferOwnership(newOwner) */\n      jump\t// in\n    tag_389:\n        /* \"TEXOToken.sol\":12366:12473  function transferOwnership(address newOwner) public onlyOwner {... */\n      pop\n      jump\t// out\n        /* \"TEXOToken.sol\":39281:40249  function add(... */\n    tag_166:\n        /* \"TEXOToken.sol\":11671:11683  _msgSender() */\n      tag_392\n        /* \"TEXOToken.sol\":11671:11681  _msgSender */\n      tag_174\n        /* \"TEXOToken.sol\":11671:11683  _msgSender() */\n      jump\t// in\n    tag_392:\n        /* \"TEXOToken.sol\":11661:11683  _owner == _msgSender() */\n      0xffffffffffffffffffffffffffffffffffffffff\n      and\n        /* \"TEXOToken.sol\":11661:11667  _owner */\n      0x00\n      dup1\n      sload\n      swap1\n      0x0100\n      exp\n      swap1\n      div\n      0xffffffffffffffffffffffffffffffffffffffff\n      and\n        /* \"TEXOToken.sol\":11661:11683  _owner == _msgSender() */\n      0xffffffffffffffffffffffffffffffffffffffff\n      and\n      eq\n        /* \"TEXOToken.sol\":11653:11720  require(_owner == _msgSender(), \"Ownable: caller is not the owner\") */\n      tag_393\n      jumpi\n      mload(0x40)\n      0x08c379a000000000000000000000000000000000000000000000000000000000\n      dup2\n      mstore\n      0x04\n      add\n      dup1\n      dup1\n      0x20\n      add\n      dup3\n      dup2\n      sub\n      dup3\n      mstore\n      0x20\n      dup2\n      mstore\n      0x20\n      add\n      dup1\n      0x4f776e61626c653a2063616c6c6572206973206e6f7420746865206f776e6572\n      dup2\n      mstore\n      pop\n      0x20\n      add\n      swap2\n      pop\n      pop\n      mload(0x40)\n      dup1\n      swap2\n      sub\n      swap1\n      revert\n    tag_393:\n        /* \"TEXOToken.sol\":39480:39488  _lpToken */\n      dup4\n        /* \"TEXOToken.sol\":39156:39161  false */\n      0x00\n        /* \"TEXOToken.sol\":39129:39161  poolExistence[_lpToken] == false */\n      iszero\n      iszero\n        /* \"TEXOToken.sol\":39129:39142  poolExistence */\n      0x0d\n        /* \"TEXOToken.sol\":39129:39152  poolExistence[_lpToken] */\n      0x00\n        /* \"TEXOToken.sol\":39143:39151  _lpToken */\n      dup4\n        /* \"TEXOToken.sol\":39129:39152  poolExistence[_lpToken] */\n      0xffffffffffffffffffffffffffffffffffffffff\n      and\n      0xffffffffffffffffffffffffffffffffffffffff\n      and\n      dup2\n      mstore\n      0x20\n      add\n      swap1\n      dup2\n      mstore\n      0x20\n      add\n      0x00\n      keccak256\n      0x00\n      swap1\n      sload\n      swap1\n      0x0100\n      exp\n      swap1\n      div\n      0xff\n      and\n        /* \"TEXOToken.sol\":39129:39161  poolExistence[_lpToken] == false */\n      iszero\n      iszero\n      eq\n        /* \"TEXOToken.sol\":39121:39191  require(poolExistence[_lpToken] == false, \"nonDuplicated: duplicated\") */\n      tag_395\n      jumpi\n      mload(0x40)\n      0x08c379a000000000000000000000000000000000000000000000000000000000\n      dup2\n      mstore\n      0x04\n      add\n      dup1\n      dup1\n      0x20\n      add\n      dup3\n      dup2\n      sub\n      dup3\n      mstore\n      0x19\n      dup2\n      mstore\n      0x20\n      add\n      dup1\n      0x6e6f6e4475706c6963617465643a206475706c69636174656400000000000000\n      dup2\n      mstore\n      pop\n      0x20\n      add\n      swap2\n      pop\n      pop\n      mload(0x40)\n      dup1\n      swap2\n      sub\n      swap1\n      revert\n    tag_395:\n        /* \"TEXOToken.sol\":36175:36179  1000 */\n      0x03e8\n        /* \"TEXOToken.sol\":39508:39547  _depositFeeBP <= MAXIMUM_DEPOSIT_FEE_BP */\n      0xffff\n      and\n        /* \"TEXOToken.sol\":39508:39521  _depositFeeBP */\n      dup5\n        /* \"TEXOToken.sol\":39508:39547  _depositFeeBP <= MAXIMUM_DEPOSIT_FEE_BP */\n      0xffff\n      and\n      gt\n      iszero\n        /* \"TEXOToken.sol\":39500:39589  require(_depositFeeBP <= MAXIMUM_DEPOSIT_FEE_BP, \"add: invalid deposit fee basis points\") */\n      tag_397\n      jumpi\n      mload(0x40)\n      0x08c379a000000000000000000000000000000000000000000000000000000000\n      dup2\n      mstore\n      0x04\n      add\n      dup1\n      dup1\n      0x20\n      add\n      dup3\n      dup2\n      sub\n      dup3\n      mstore\n      0x25\n      dup2\n      mstore\n      0x20\n      add\n      dup1\n      data_0ecf01aeb804f0ae223eada9d16893a9009cdcbe208d348705dc613f9a9f5331\n      0x25\n      swap2\n      codecopy\n      0x40\n      add\n      swap2\n      pop\n      pop\n      mload(0x40)\n      dup1\n      swap2\n      sub\n      swap1\n      revert\n    tag_397:\n        /* \"TEXOToken.sol\":39604:39615  _withUpdate */\n      dup3\n        /* \"TEXOToken.sol\":39600:39659  if (_withUpdate) {... */\n      iszero\n      tag_398\n      jumpi\n        /* \"TEXOToken.sol\":39631:39648  massUpdatePools() */\n      tag_399\n        /* \"TEXOToken.sol\":39631:39646  massUpdatePools */\n      tag_94\n        /* \"TEXOToken.sol\":39631:39648  massUpdatePools() */\n      jump\t// in\n    tag_399:\n        /* \"TEXOToken.sol\":39600:39659  if (_withUpdate) {... */\n    tag_398:\n        /* \"TEXOToken.sol\":39669:39697  uint256 blockToReceiveReward */\n      0x00\n        /* \"TEXOToken.sol\":39715:39736  _blockToReceiveReward */\n      dup3\n        /* \"TEXOToken.sol\":39700:39712  block.number */\n      number\n        /* \"TEXOToken.sol\":39700:39736  block.number + _blockToReceiveReward */\n      add\n        /* \"TEXOToken.sol\":39669:39736  uint256 blockToReceiveReward = block.number + _blockToReceiveReward */\n      swap1\n      pop\n        /* \"TEXOToken.sol\":39765:39797  totalAllocPoint.add(_allocPoint) */\n      tag_400\n        /* \"TEXOToken.sol\":39785:39796  _allocPoint */\n      dup8\n        /* \"TEXOToken.sol\":39765:39780  totalAllocPoint */\n      sload(0x09)\n        /* \"TEXOToken.sol\":39765:39784  totalAllocPoint.add */\n      tag_228\n      swap1\n        /* \"TEXOToken.sol\":39765:39797  totalAllocPoint.add(_allocPoint) */\n      swap2\n      swap1\n      0xffffffff\n      and\n      jump\t// in\n    tag_400:\n        /* \"TEXOToken.sol\":39747:39762  totalAllocPoint */\n      0x09\n        /* \"TEXOToken.sol\":39747:39797  totalAllocPoint = totalAllocPoint.add(_allocPoint) */\n      dup2\n      swap1\n      sstore\n      pop\n        /* \"TEXOToken.sol\":39833:39837  true */\n      0x01\n        /* \"TEXOToken.sol\":39807:39820  poolExistence */\n      0x0d\n        /* \"TEXOToken.sol\":39807:39830  poolExistence[_lpToken] */\n      0x00\n        /* \"TEXOToken.sol\":39821:39829  _lpToken */\n      dup9\n        /* \"TEXOToken.sol\":39807:39830  poolExistence[_lpToken] */\n      0xffffffffffffffffffffffffffffffffffffffff\n      and\n      0xffffffffffffffffffffffffffffffffffffffff\n      and\n      dup2\n      mstore\n      0x20\n      add\n      swap1\n      dup2\n      mstore\n      0x20\n      add\n      0x00\n      keccak256\n      0x00\n        /* \"TEXOToken.sol\":39807:39837  poolExistence[_lpToken] = true */\n      0x0100\n      exp\n      dup2\n      sload\n      dup2\n      0xff\n      mul\n      not\n      and\n      swap1\n      dup4\n      iszero\n      iszero\n      mul\n      or\n      swap1\n      sstore\n      pop\n        /* \"TEXOToken.sol\":39848:39856  poolInfo */\n      0x07\n        /* \"TEXOToken.sol\":39875:40171  PoolInfo({... */\n      mload(0x40)\n      dup1\n      0xc0\n      add\n      0x40\n      mstore\n      dup1\n        /* \"TEXOToken.sol\":39911:39919  _lpToken */\n      dup9\n        /* \"TEXOToken.sol\":39875:40171  PoolInfo({... */\n      0xffffffffffffffffffffffffffffffffffffffff\n      and\n      dup2\n      mstore\n      0x20\n      add\n        /* \"TEXOToken.sol\":39949:39960  _allocPoint */\n      dup10\n        /* \"TEXOToken.sol\":39875:40171  PoolInfo({... */\n      dup2\n      mstore\n      0x20\n      add\n        /* \"TEXOToken.sol\":40136:40156  blockToReceiveReward */\n      dup4\n        /* \"TEXOToken.sol\":39875:40171  PoolInfo({... */\n      dup2\n      mstore\n      0x20\n      add\n        /* \"TEXOToken.sol\":39995:40015  blockToReceiveReward */\n      dup4\n        /* \"TEXOToken.sol\":39875:40171  PoolInfo({... */\n      dup2\n      mstore\n      0x20\n      add\n        /* \"TEXOToken.sol\":40050:40051  0 */\n      0x00\n        /* \"TEXOToken.sol\":39875:40171  PoolInfo({... */\n      dup2\n      mstore\n      0x20\n      add\n        /* \"TEXOToken.sol\":40083:40096  _depositFeeBP */\n      dup8\n        /* \"TEXOToken.sol\":39875:40171  PoolInfo({... */\n      0xffff\n      and\n      dup2\n      mstore\n      pop\n        /* \"TEXOToken.sol\":39848:40181  poolInfo.push(... */\n      swap1\n      dup1\n      0x01\n      dup2\n      sload\n      add\n      dup1\n      dup3\n      sstore\n      dup1\n      swap2\n      pop\n      pop\n      0x01\n      swap1\n      sub\n      swap1\n      0x00\n      mstore\n      keccak256(0x00, 0x20)\n      swap1\n      0x06\n      mul\n      add\n      0x00\n      swap1\n      swap2\n      swap1\n      swap2\n      swap1\n      swap2\n      pop\n      0x00\n      dup3\n      add\n      mload\n      dup2\n      0x00\n      add\n      exp(0x0100, 0x00)\n      dup2\n      sload\n      dup2\n      0xffffffffffffffffffffffffffffffffffffffff\n      mul\n      not\n      and\n      swap1\n      dup4\n      0xffffffffffffffffffffffffffffffffffffffff\n      and\n      mul\n      or\n      swap1\n      sstore\n      pop\n      0x20\n      dup3\n      add\n      mload\n      dup2\n      0x01\n      add\n      sstore\n      0x40\n      dup3\n      add\n      mload\n      dup2\n      0x02\n      add\n      sstore\n      0x60\n      dup3\n      add\n      mload\n      dup2\n      0x03\n      add\n      sstore\n      0x80\n      dup3\n      add\n      mload\n      dup2\n      0x04\n      add\n      sstore\n      0xa0\n      dup3\n      add\n      mload\n      dup2\n      0x05\n      add\n      exp(0x0100, 0x00)\n      dup2\n      sload\n      dup2\n      0xffff\n      mul\n      not\n      and\n      swap1\n      dup4\n      0xffff\n      and\n      mul\n      or\n      swap1\n      sstore\n      pop\n      pop\n      pop\n        /* \"TEXOToken.sol\":40241:40242  1 */\n      0x01\n        /* \"TEXOToken.sol\":40223:40231  poolInfo */\n      0x07\n        /* \"TEXOToken.sol\":40223:40238  poolInfo.length */\n      dup1\n      sload\n      swap1\n      pop\n        /* \"TEXOToken.sol\":40223:40242  poolInfo.length - 1 */\n      sub\n        /* \"TEXOToken.sol\":40192:40210  poolIdForLpAddress */\n      0x0e\n        /* \"TEXOToken.sol\":40192:40220  poolIdForLpAddress[_lpToken] */\n      0x00\n        /* \"TEXOToken.sol\":40211:40219  _lpToken */\n      dup9\n        /* \"TEXOToken.sol\":40192:40220  poolIdForLpAddress[_lpToken] */\n      0xffffffffffffffffffffffffffffffffffffffff\n      and\n      0xffffffffffffffffffffffffffffffffffffffff\n      and\n      dup2\n      mstore\n      0x20\n      add\n      swap1\n      dup2\n      mstore\n      0x20\n      add\n      0x00\n      keccak256\n        /* \"TEXOToken.sol\":40192:40242  poolIdForLpAddress[_lpToken] = poolInfo.length - 1 */\n      dup2\n      swap1\n      sstore\n      pop\n        /* \"TEXOToken.sol\":39201:39202  _ */\n      pop\n        /* \"TEXOToken.sol\":11730:11731  _ */\n      pop\n        /* \"TEXOToken.sol\":39281:40249  function add(... */\n      pop\n      pop\n      pop\n      pop\n      pop\n      jump\t// out\n        /* \"TEXOToken.sol\":5963:6059  function _msgSender() internal view returns (address payable) {... */\n    tag_174:\n        /* \"TEXOToken.sol\":6008:6023  address payable */\n      0x00\n        /* \"TEXOToken.sol\":6042:6052  msg.sender */\n      caller\n        /* \"TEXOToken.sol\":6035:6052  return msg.sender */\n      swap1\n      pop\n        /* \"TEXOToken.sol\":5963:6059  function _msgSender() internal view returns (address payable) {... */\n      swap1\n      jump\t// out\n        /* \"TEXOToken.sol\":2193:2652  function mul(uint256 a, uint256 b) internal pure returns (uint256) {... */\n    tag_189:\n        /* \"TEXOToken.sol\":2251:2258  uint256 */\n      0x00\n        /* \"TEXOToken.sol\":2497:2498  0 */\n      dup1\n        /* \"TEXOToken.sol\":2492:2493  a */\n      dup4\n        /* \"TEXOToken.sol\":2492:2498  a == 0 */\n      eq\n        /* \"TEXOToken.sol\":2488:2533  if (a == 0) {... */\n      iszero\n      tag_404\n      jumpi\n        /* \"TEXOToken.sol\":2521:2522  0 */\n      0x00\n        /* \"TEXOToken.sol\":2514:2522  return 0 */\n      swap1\n      pop\n      jump(tag_403)\n        /* \"TEXOToken.sol\":2488:2533  if (a == 0) {... */\n    tag_404:\n        /* \"TEXOToken.sol\":2543:2552  uint256 c */\n      0x00\n        /* \"TEXOToken.sol\":2559:2560  b */\n      dup3\n        /* \"TEXOToken.sol\":2555:2556  a */\n      dup5\n        /* \"TEXOToken.sol\":2555:2560  a * b */\n      mul\n        /* \"TEXOToken.sol\":2543:2560  uint256 c = a * b */\n      swap1\n      pop\n        /* \"TEXOToken.sol\":2587:2588  b */\n      dup3\n        /* \"TEXOToken.sol\":2582:2583  a */\n      dup5\n        /* \"TEXOToken.sol\":2578:2579  c */\n      dup3\n        /* \"TEXOToken.sol\":2578:2583  c / a */\n      dup2\n      tag_405\n      jumpi\n      invalid\n    tag_405:\n      div\n        /* \"TEXOToken.sol\":2578:2588  c / a == b */\n      eq\n        /* \"TEXOToken.sol\":2570:2626  require(c / a == b, \"SafeMath: multiplication overflow\") */\n      tag_406\n      jumpi\n      mload(0x40)\n      0x08c379a000000000000000000000000000000000000000000000000000000000\n      dup2\n      mstore\n      0x04\n      add\n      dup1\n      dup1\n      0x20\n      add\n      dup3\n      dup2\n      sub\n      dup3\n      mstore\n      0x21\n      dup2\n      mstore\n      0x20\n      add\n      dup1\n      data_9113bb53c2876a3805b2c9242029423fc540a728243ce887ab24c82cf119fba3\n      0x21\n      swap2\n      codecopy\n      0x40\n      add\n      swap2\n      pop\n      pop\n      mload(0x40)\n      dup1\n      swap2\n      sub\n      swap1\n      revert\n    tag_406:\n        /* \"TEXOToken.sol\":2644:2645  c */\n      dup1\n        /* \"TEXOToken.sol\":2637:2645  return c */\n      swap2\n      pop\n      pop\n        /* \"TEXOToken.sol\":2193:2652  function mul(uint256 a, uint256 b) internal pure returns (uint256) {... */\n    tag_403:\n      swap3\n      swap2\n      pop\n      pop\n      jump\t// out\n        /* \"TEXOToken.sol\":3107:3237  function div(uint256 a, uint256 b) internal pure returns (uint256) {... */\n    tag_190:\n        /* \"TEXOToken.sol\":3165:3172  uint256 */\n      0x00\n        /* \"TEXOToken.sol\":3191:3230  div(a, b, \"SafeMath: division by zero\") */\n      tag_408\n        /* \"TEXOToken.sol\":3195:3196  a */\n      dup4\n        /* \"TEXOToken.sol\":3198:3199  b */\n      dup4\n        /* \"TEXOToken.sol\":3191:3230  div(a, b, \"SafeMath: division by zero\") */\n      mload(0x40)\n      dup1\n      0x40\n      add\n      0x40\n      mstore\n      dup1\n      0x1a\n      dup2\n      mstore\n      0x20\n      add\n      0x536166654d6174683a206469766973696f6e206279207a65726f000000000000\n      dup2\n      mstore\n      pop\n        /* \"TEXOToken.sol\":3191:3194  div */\n      tag_409\n        /* \"TEXOToken.sol\":3191:3230  div(a, b, \"SafeMath: division by zero\") */\n      jump\t// in\n    tag_408:\n        /* \"TEXOToken.sol\":3184:3230  return div(a, b, \"SafeMath: division by zero\") */\n      swap1\n      pop\n        /* \"TEXOToken.sol\":3107:3237  function div(uint256 a, uint256 b) internal pure returns (uint256) {... */\n      swap3\n      swap2\n      pop\n      pop\n      jump\t// out\n        /* \"TEXOToken.sol\":1348:1482  function sub(uint256 a, uint256 b) internal pure returns (uint256) {... */\n    tag_191:\n        /* \"TEXOToken.sol\":1406:1413  uint256 */\n      0x00\n        /* \"TEXOToken.sol\":1432:1475  sub(a, b, \"SafeMath: subtraction overflow\") */\n      tag_411\n        /* \"TEXOToken.sol\":1436:1437  a */\n      dup4\n        /* \"TEXOToken.sol\":1439:1440  b */\n      dup4\n        /* \"TEXOToken.sol\":1432:1475  sub(a, b, \"SafeMath: subtraction overflow\") */\n      mload(0x40)\n      dup1\n      0x40\n      add\n      0x40\n      mstore\n      dup1\n      0x1e\n      dup2\n      mstore\n      0x20\n      add\n      0x536166654d6174683a207375627472616374696f6e206f766572666c6f770000\n      dup2\n      mstore\n      pop\n        /* \"TEXOToken.sol\":1432:1435  sub */\n      tag_412\n        /* \"TEXOToken.sol\":1432:1475  sub(a, b, \"SafeMath: subtraction overflow\") */\n      jump\t// in\n    tag_411:\n        /* \"TEXOToken.sol\":1425:1475  return sub(a, b, \"SafeMath: subtraction overflow\") */\n      swap1\n      pop\n        /* \"TEXOToken.sol\":1348:1482  function sub(uint256 a, uint256 b) internal pure returns (uint256) {... */\n      swap3\n      swap2\n      pop\n      pop\n      jump\t// out\n        /* \"TEXOToken.sol\":48975:49394  function safeTEXOTransfer(address _to, uint256 _amount) internal {... */\n    tag_195:\n        /* \"TEXOToken.sol\":49050:49065  uint256 tEXOBal */\n      0x00\n        /* \"TEXOToken.sol\":49068:49072  tEXO */\n      0x02\n      0x00\n      swap1\n      sload\n      swap1\n      0x0100\n      exp\n      swap1\n      div\n      0xffffffffffffffffffffffffffffffffffffffff\n      and\n        /* \"TEXOToken.sol\":49068:49082  tEXO.balanceOf */\n      0xffffffffffffffffffffffffffffffffffffffff\n      and\n      0x70a08231\n        /* \"TEXOToken.sol\":49091:49095  this */\n      address\n        /* \"TEXOToken.sol\":49068:49097  tEXO.balanceOf(address(this)) */\n      mload(0x40)\n      dup3\n      0xffffffff\n      and\n      0xe0\n      shl\n      dup2\n      mstore\n      0x04\n      add\n      dup1\n      dup3\n      0xffffffffffffffffffffffffffffffffffffffff\n      and\n      dup2\n      mstore\n      0x20\n      add\n      swap2\n      pop\n      pop\n      0x20\n      mload(0x40)\n      dup1\n      dup4\n      sub\n      dup2\n      dup7\n      dup1\n      extcodesize\n      iszero\n      dup1\n      iszero\n      tag_414\n      jumpi\n      0x00\n      dup1\n      revert\n    tag_414:\n      pop\n      gas\n      staticcall\n      iszero\n      dup1\n      iszero\n      tag_416\n      jumpi\n      returndatasize\n      0x00\n      dup1\n      returndatacopy\n      revert(0x00, returndatasize)\n    tag_416:\n      pop\n      pop\n      pop\n      pop\n      mload(0x40)\n      returndatasize\n      0x20\n      dup2\n      lt\n      iszero\n      tag_417\n      jumpi\n      0x00\n      dup1\n      revert\n    tag_417:\n      dup2\n      add\n      swap1\n      dup1\n      dup1\n      mload\n      swap1\n      0x20\n      add\n      swap1\n      swap3\n      swap2\n      swap1\n      pop\n      pop\n      pop\n        /* \"TEXOToken.sol\":49050:49097  uint256 tEXOBal = tEXO.balanceOf(address(this)) */\n      swap1\n      pop\n        /* \"TEXOToken.sol\":49107:49127  bool transferSuccess */\n      0x00\n        /* \"TEXOToken.sol\":49160:49167  tEXOBal */\n      dup2\n        /* \"TEXOToken.sol\":49150:49157  _amount */\n      dup4\n        /* \"TEXOToken.sol\":49150:49167  _amount > tEXOBal */\n      gt\n        /* \"TEXOToken.sol\":49146:49315  if (_amount > tEXOBal) {... */\n      iszero\n      tag_418\n      jumpi\n        /* \"TEXOToken.sol\":49201:49205  tEXO */\n      0x02\n      0x00\n      swap1\n      sload\n      swap1\n      0x0100\n      exp\n      swap1\n      div\n      0xffffffffffffffffffffffffffffffffffffffff\n      and\n        /* \"TEXOToken.sol\":49201:49214  tEXO.transfer */\n      0xffffffffffffffffffffffffffffffffffffffff\n      and\n      0xa9059cbb\n        /* \"TEXOToken.sol\":49215:49218  _to */\n      dup6\n        /* \"TEXOToken.sol\":49220:49227  tEXOBal */\n      dup5\n        /* \"TEXOToken.sol\":49201:49228  tEXO.transfer(_to, tEXOBal) */\n      mload(0x40)\n      dup4\n      0xffffffff\n      and\n      0xe0\n      shl\n      dup2\n      mstore\n      0x04\n      add\n      dup1\n      dup4\n      0xffffffffffffffffffffffffffffffffffffffff\n      and\n      dup2\n      mstore\n      0x20\n      add\n      dup3\n      dup2\n      mstore\n      0x20\n      add\n      swap3\n      pop\n      pop\n      pop\n      0x20\n      mload(0x40)\n      dup1\n      dup4\n      sub\n      dup2\n      0x00\n      dup8\n      dup1\n      extcodesize\n      iszero\n      dup1\n      iszero\n      tag_419\n      jumpi\n      0x00\n      dup1\n      revert\n    tag_419:\n      pop\n      gas\n      call\n      iszero\n      dup1\n      iszero\n      tag_421\n      jumpi\n      returndatasize\n      0x00\n      dup1\n      returndatacopy\n      revert(0x00, returndatasize)\n    tag_421:\n      pop\n      pop\n      pop\n      pop\n      mload(0x40)\n      returndatasize\n      0x20\n      dup2\n      lt\n      iszero\n      tag_422\n      jumpi\n      0x00\n      dup1\n      revert\n    tag_422:\n      dup2\n      add\n      swap1\n      dup1\n      dup1\n      mload\n      swap1\n      0x20\n      add\n      swap1\n      swap3\n      swap2\n      swap1\n      pop\n      pop\n      pop\n        /* \"TEXOToken.sol\":49183:49228  transferSuccess = tEXO.transfer(_to, tEXOBal) */\n      swap1\n      pop\n        /* \"TEXOToken.sol\":49146:49315  if (_amount > tEXOBal) {... */\n      jump(tag_423)\n    tag_418:\n        /* \"TEXOToken.sol\":49277:49281  tEXO */\n      0x02\n      0x00\n      swap1\n      sload\n      swap1\n      0x0100\n      exp\n      swap1\n      div\n      0xffffffffffffffffffffffffffffffffffffffff\n      and\n        /* \"TEXOToken.sol\":49277:49290  tEXO.transfer */\n      0xffffffffffffffffffffffffffffffffffffffff\n      and\n      0xa9059cbb\n        /* \"TEXOToken.sol\":49291:49294  _to */\n      dup6\n        /* \"TEXOToken.sol\":49296:49303  _amount */\n      dup6\n        /* \"TEXOToken.sol\":49277:49304  tEXO.transfer(_to, _amount) */\n      mload(0x40)\n      dup4\n      0xffffffff\n      and\n      0xe0\n      shl\n      dup2\n      mstore\n      0x04\n      add\n      dup1\n      dup4\n      0xffffffffffffffffffffffffffffffffffffffff\n      and\n      dup2\n      mstore\n      0x20\n      add\n      dup3\n      dup2\n      mstore\n      0x20\n      add\n      swap3\n      pop\n      pop\n      pop\n      0x20\n      mload(0x40)\n      dup1\n      dup4\n      sub\n      dup2\n      0x00\n      dup8\n      dup1\n      extcodesize\n      iszero\n      dup1\n      iszero\n      tag_424\n      jumpi\n      0x00\n      dup1\n      revert\n    tag_424:\n      pop\n      gas\n      call\n      iszero\n      dup1\n      iszero\n      tag_426\n      jumpi\n      returndatasize\n      0x00\n      dup1\n      returndatacopy\n      revert(0x00, returndatasize)\n    tag_426:\n      pop\n      pop\n      pop\n      pop\n      mload(0x40)\n      returndatasize\n      0x20\n      dup2\n      lt\n      iszero\n      tag_427\n      jumpi\n      0x00\n      dup1\n      revert\n    tag_427:\n      dup2\n      add\n      swap1\n      dup1\n      dup1\n      mload\n      swap1\n      0x20\n      add\n      swap1\n      swap3\n      swap2\n      swap1\n      pop\n      pop\n      pop\n        /* \"TEXOToken.sol\":49259:49304  transferSuccess = tEXO.transfer(_to, _amount) */\n      swap1\n      pop\n        /* \"TEXOToken.sol\":49146:49315  if (_amount > tEXOBal) {... */\n    tag_423:\n        /* \"TEXOToken.sol\":49333:49348  transferSuccess */\n      dup1\n        /* \"TEXOToken.sol\":49325:49387  require(transferSuccess, \"safePlumTransfer: transfer failed.\") */\n      tag_428\n      jumpi\n      mload(0x40)\n      0x08c379a000000000000000000000000000000000000000000000000000000000\n      dup2\n      mstore\n      0x04\n      add\n      dup1\n      dup1\n      0x20\n      add\n      dup3\n      dup2\n      sub\n      dup3\n      mstore\n      0x22\n      dup2\n      mstore\n      0x20\n      add\n      dup1\n      data_2a7e0e7f8bc79ffac7125960112eaea13c804910c2e58b65c50e00aacc68de0e\n      0x22\n      swap2\n      codecopy\n      0x40\n      add\n      swap2\n      pop\n      pop\n      mload(0x40)\n      dup1\n      swap2\n      sub\n      swap1\n      revert\n    tag_428:\n        /* \"TEXOToken.sol\":48975:49394  function safeTEXOTransfer(address _to, uint256 _amount) internal {... */\n      pop\n      pop\n      pop\n      pop\n      jump\t// out\n        /* \"TEXOToken.sol\":52467:52868  function payReferralCommission(address _user, uint256 _pending) internal {... */\n    tag_197:\n        /* \"TEXOToken.sol\":52550:52566  address referrer */\n      0x00\n        /* \"TEXOToken.sol\":52569:52587  getReferral(_user) */\n      tag_430\n        /* \"TEXOToken.sol\":52581:52586  _user */\n      dup4\n        /* \"TEXOToken.sol\":52569:52580  getReferral */\n      tag_71\n        /* \"TEXOToken.sol\":52569:52587  getReferral(_user) */\n      jump\t// in\n    tag_430:\n        /* \"TEXOToken.sol\":52550:52587  address referrer = getReferral(_user) */\n      swap1\n      pop\n        /* \"TEXOToken.sol\":52621:52622  0 */\n      0x00\n        /* \"TEXOToken.sol\":52601:52623  referrer != address(0) */\n      0xffffffffffffffffffffffffffffffffffffffff\n      and\n        /* \"TEXOToken.sol\":52601:52609  referrer */\n      dup2\n        /* \"TEXOToken.sol\":52601:52623  referrer != address(0) */\n      0xffffffffffffffffffffffffffffffffffffffff\n      and\n      eq\n      iszero\n        /* \"TEXOToken.sol\":52601:52644  referrer != address(0) && referrer != _user */\n      dup1\n      iszero\n      tag_431\n      jumpi\n      pop\n        /* \"TEXOToken.sol\":52639:52644  _user */\n      dup3\n        /* \"TEXOToken.sol\":52627:52644  referrer != _user */\n      0xffffffffffffffffffffffffffffffffffffffff\n      and\n        /* \"TEXOToken.sol\":52627:52635  referrer */\n      dup2\n        /* \"TEXOToken.sol\":52627:52644  referrer != _user */\n      0xffffffffffffffffffffffffffffffffffffffff\n      and\n      eq\n      iszero\n        /* \"TEXOToken.sol\":52601:52644  referrer != address(0) && referrer != _user */\n    tag_431:\n        /* \"TEXOToken.sol\":52601:52662  referrer != address(0) && referrer != _user && refBonusBP > 0 */\n      dup1\n      iszero\n      tag_432\n      jumpi\n      pop\n        /* \"TEXOToken.sol\":52661:52662  0 */\n      0x00\n        /* \"TEXOToken.sol\":52648:52658  refBonusBP */\n      sload(0x0a)\n        /* \"TEXOToken.sol\":52648:52662  refBonusBP > 0 */\n      gt\n        /* \"TEXOToken.sol\":52601:52662  referrer != address(0) && referrer != _user && refBonusBP > 0 */\n    tag_432:\n        /* \"TEXOToken.sol\":52597:52862  if (referrer != address(0) && referrer != _user && refBonusBP > 0) {... */\n      iszero\n      tag_433\n      jumpi\n        /* \"TEXOToken.sol\":52678:52700  uint256 refBonusEarned */\n      0x00\n        /* \"TEXOToken.sol\":52703:52738  _pending.mul(refBonusBP).div(10000) */\n      tag_434\n        /* \"TEXOToken.sol\":52732:52737  10000 */\n      0x2710\n        /* \"TEXOToken.sol\":52703:52727  _pending.mul(refBonusBP) */\n      tag_435\n        /* \"TEXOToken.sol\":52716:52726  refBonusBP */\n      sload(0x0a)\n        /* \"TEXOToken.sol\":52703:52711  _pending */\n      dup7\n        /* \"TEXOToken.sol\":52703:52715  _pending.mul */\n      tag_189\n      swap1\n        /* \"TEXOToken.sol\":52703:52727  _pending.mul(refBonusBP) */\n      swap2\n      swap1\n      0xffffffff\n      and\n      jump\t// in\n    tag_435:\n        /* \"TEXOToken.sol\":52703:52731  _pending.mul(refBonusBP).div */\n      tag_190\n      swap1\n        /* \"TEXOToken.sol\":52703:52738  _pending.mul(refBonusBP).div(10000) */\n      swap2\n      swap1\n      0xffffffff\n      and\n      jump\t// in\n    tag_434:\n        /* \"TEXOToken.sol\":52678:52738  uint256 refBonusEarned = _pending.mul(refBonusBP).div(10000) */\n      swap1\n      pop\n        /* \"TEXOToken.sol\":52752:52756  tEXO */\n      0x02\n      0x00\n      swap1\n      sload\n      swap1\n      0x0100\n      exp\n      swap1\n      div\n      0xffffffffffffffffffffffffffffffffffffffff\n      and\n        /* \"TEXOToken.sol\":52752:52761  tEXO.mint */\n      0xffffffffffffffffffffffffffffffffffffffff\n      and\n      0x40c10f19\n        /* \"TEXOToken.sol\":52762:52770  referrer */\n      dup4\n        /* \"TEXOToken.sol\":52772:52786  refBonusEarned */\n      dup4\n        /* \"TEXOToken.sol\":52752:52787  tEXO.mint(referrer, refBonusEarned) */\n      mload(0x40)\n      dup4\n      0xffffffff\n      and\n      0xe0\n      shl\n      dup2\n      mstore\n      0x04\n      add\n      dup1\n      dup4\n      0xffffffffffffffffffffffffffffffffffffffff\n      and\n      dup2\n      mstore\n      0x20\n      add\n      dup3\n      dup2\n      mstore\n      0x20\n      add\n      swap3\n      pop\n      pop\n      pop\n      0x00\n      mload(0x40)\n      dup1\n      dup4\n      sub\n      dup2\n      0x00\n      dup8\n      dup1\n      extcodesize\n      iszero\n      dup1\n      iszero\n      tag_436\n      jumpi\n      0x00\n      dup1\n      revert\n    tag_436:\n      pop\n      gas\n      call\n      iszero\n      dup1\n      iszero\n      tag_438\n      jumpi\n      returndatasize\n      0x00\n      dup1\n      returndatacopy\n      revert(0x00, returndatasize)\n    tag_438:\n      pop\n      pop\n      pop\n      pop\n        /* \"TEXOToken.sol\":52826:52834  referrer */\n      dup2\n        /* \"TEXOToken.sol\":52806:52851  ReferralPaid(_user, referrer, refBonusEarned) */\n      0xffffffffffffffffffffffffffffffffffffffff\n      and\n        /* \"TEXOToken.sol\":52819:52824  _user */\n      dup5\n        /* \"TEXOToken.sol\":52806:52851  ReferralPaid(_user, referrer, refBonusEarned) */\n      0xffffffffffffffffffffffffffffffffffffffff\n      and\n      0x0a721ab4682ceb61c7e4d264ef879fc419a6d764b136e7d96ef54b2053c75673\n        /* \"TEXOToken.sol\":52836:52850  refBonusEarned */\n      dup4\n        /* \"TEXOToken.sol\":52806:52851  ReferralPaid(_user, referrer, refBonusEarned) */\n      mload(0x40)\n      dup1\n      dup3\n      dup2\n      mstore\n      0x20\n      add\n      swap2\n      pop\n      pop\n      mload(0x40)\n      dup1\n      swap2\n      sub\n      swap1\n      log3\n        /* \"TEXOToken.sol\":52597:52862  if (referrer != address(0) && referrer != _user && refBonusBP > 0) {... */\n      pop\n    tag_433:\n        /* \"TEXOToken.sol\":52467:52868  function payReferralCommission(address _user, uint256 _pending) internal {... */\n      pop\n      pop\n      pop\n      jump\t// out\n        /* \"TEXOToken.sol\":22677:22852  function safeTransfer(IBEP20 token, address to, uint256 value) internal {... */\n    tag_203:\n        /* \"TEXOToken.sol\":22759:22845  _callOptionalReturn(token, abi.encodeWithSelector(token.transfer.selector, to, value)) */\n      tag_440\n        /* \"TEXOToken.sol\":22779:22784  token */\n      dup4\n        /* \"TEXOToken.sol\":22809:22832  token.transfer.selector */\n      shl(0xe0, 0xa9059cbb)\n        /* \"TEXOToken.sol\":22834:22836  to */\n      dup5\n        /* \"TEXOToken.sol\":22838:22843  value */\n      dup5\n        /* \"TEXOToken.sol\":22786:22844  abi.encodeWithSelector(token.transfer.selector, to, value) */\n      add(0x24, mload(0x40))\n      dup1\n      dup4\n      0xffffffffffffffffffffffffffffffffffffffff\n      and\n      dup2\n      mstore\n      0x20\n      add\n      dup3\n      dup2\n      mstore\n      0x20\n      add\n      swap3\n      pop\n      pop\n      pop\n      mload(0x40)\n      0x20\n      dup2\n      dup4\n      sub\n      sub\n      dup2\n      mstore\n      swap1\n      0x40\n      mstore\n      swap1\n      not(0xffffffffffffffffffffffffffffffffffffffffffffffffffffffff)\n      and\n      0x20\n      dup3\n      add\n      dup1\n      mload\n      0xffffffffffffffffffffffffffffffffffffffffffffffffffffffff\n      dup4\n      dup2\n      dup4\n      and\n      or\n      dup4\n      mstore\n      pop\n      pop\n      pop\n      pop\n        /* \"TEXOToken.sol\":22759:22778  _callOptionalReturn */\n      tag_441\n        /* \"TEXOToken.sol\":22759:22845  _callOptionalReturn(token, abi.encodeWithSelector(token.transfer.selector, to, value)) */\n      jump\t// in\n    tag_440:\n        /* \"TEXOToken.sol\":22677:22852  function safeTransfer(IBEP20 token, address to, uint256 value) internal {... */\n      pop\n      pop\n      pop\n      jump\t// out\n        /* \"TEXOToken.sol\":908:1084  function add(uint256 a, uint256 b) internal pure returns (uint256) {... */\n    tag_228:\n        /* \"TEXOToken.sol\":966:973  uint256 */\n      0x00\n        /* \"TEXOToken.sol\":985:994  uint256 c */\n      dup1\n        /* \"TEXOToken.sol\":1001:1002  b */\n      dup3\n        /* \"TEXOToken.sol\":997:998  a */\n      dup5\n        /* \"TEXOToken.sol\":997:1002  a + b */\n      add\n        /* \"TEXOToken.sol\":985:1002  uint256 c = a + b */\n      swap1\n      pop\n        /* \"TEXOToken.sol\":1025:1026  a */\n      dup4\n        /* \"TEXOToken.sol\":1020:1021  c */\n      dup2\n        /* \"TEXOToken.sol\":1020:1026  c >= a */\n      lt\n      iszero\n        /* \"TEXOToken.sol\":1012:1058  require(c >= a, \"SafeMath: addition overflow\") */\n      tag_443\n      jumpi\n      mload(0x40)\n      0x08c379a000000000000000000000000000000000000000000000000000000000\n      dup2\n      mstore\n      0x04\n      add\n      dup1\n      dup1\n      0x20\n      add\n      dup3\n      dup2\n      sub\n      dup3\n      mstore\n      0x1b\n      dup2\n      mstore\n      0x20\n      add\n      dup1\n      0x536166654d6174683a206164646974696f6e206f766572666c6f770000000000\n      dup2\n      mstore\n      pop\n      0x20\n      add\n      swap2\n      pop\n      pop\n      mload(0x40)\n      dup1\n      swap2\n      sub\n      swap1\n      revert\n    tag_443:\n        /* \"TEXOToken.sol\":1076:1077  c */\n      dup1\n        /* \"TEXOToken.sol\":1069:1077  return c */\n      swap2\n      pop\n      pop\n        /* \"TEXOToken.sol\":908:1084  function add(uint256 a, uint256 b) internal pure returns (uint256) {... */\n      swap3\n      swap2\n      pop\n      pop\n      jump\t// out\n        /* \"TEXOToken.sol\":51895:52236  function setReferral(address _user, address _referrer) internal {... */\n    tag_280:\n        /* \"TEXOToken.sol\":51994:52003  _referrer */\n      dup1\n        /* \"TEXOToken.sol\":51973:52004  _referrer == address(_referrer) */\n      0xffffffffffffffffffffffffffffffffffffffff\n      and\n        /* \"TEXOToken.sol\":51973:51982  _referrer */\n      dup2\n        /* \"TEXOToken.sol\":51973:52004  _referrer == address(_referrer) */\n      0xffffffffffffffffffffffffffffffffffffffff\n      and\n      eq\n        /* \"TEXOToken.sol\":51973:52038  _referrer == address(_referrer) && referrers[_user] == address(0) */\n      dup1\n      iszero\n      tag_445\n      jumpi\n      pop\n        /* \"TEXOToken.sol\":52036:52037  0 */\n      0x00\n        /* \"TEXOToken.sol\":52008:52038  referrers[_user] == address(0) */\n      0xffffffffffffffffffffffffffffffffffffffff\n      and\n        /* \"TEXOToken.sol\":52008:52017  referrers */\n      0x0b\n        /* \"TEXOToken.sol\":52008:52024  referrers[_user] */\n      0x00\n        /* \"TEXOToken.sol\":52018:52023  _user */\n      dup5\n        /* \"TEXOToken.sol\":52008:52024  referrers[_user] */\n      0xffffffffffffffffffffffffffffffffffffffff\n      and\n      0xffffffffffffffffffffffffffffffffffffffff\n      and\n      dup2\n      mstore\n      0x20\n      add\n      swap1\n      dup2\n      mstore\n      0x20\n      add\n      0x00\n      keccak256\n      0x00\n      swap1\n      sload\n      swap1\n      0x0100\n      exp\n      swap1\n      div\n      0xffffffffffffffffffffffffffffffffffffffff\n      and\n        /* \"TEXOToken.sol\":52008:52038  referrers[_user] == address(0) */\n      0xffffffffffffffffffffffffffffffffffffffff\n      and\n      eq\n        /* \"TEXOToken.sol\":51973:52038  _referrer == address(_referrer) && referrers[_user] == address(0) */\n    tag_445:\n        /* \"TEXOToken.sol\":51973:52065  _referrer == address(_referrer) && referrers[_user] == address(0) && _referrer != address(0) */\n      dup1\n      iszero\n      tag_446\n      jumpi\n      pop\n        /* \"TEXOToken.sol\":52063:52064  0 */\n      0x00\n        /* \"TEXOToken.sol\":52042:52065  _referrer != address(0) */\n      0xffffffffffffffffffffffffffffffffffffffff\n      and\n        /* \"TEXOToken.sol\":52042:52051  _referrer */\n      dup2\n        /* \"TEXOToken.sol\":52042:52065  _referrer != address(0) */\n      0xffffffffffffffffffffffffffffffffffffffff\n      and\n      eq\n      iszero\n        /* \"TEXOToken.sol\":51973:52065  _referrer == address(_referrer) && referrers[_user] == address(0) && _referrer != address(0) */\n    tag_446:\n        /* \"TEXOToken.sol\":51973:52087  _referrer == address(_referrer) && referrers[_user] == address(0) && _referrer != address(0) && _referrer != _user */\n      dup1\n      iszero\n      tag_447\n      jumpi\n      pop\n        /* \"TEXOToken.sol\":52082:52087  _user */\n      dup2\n        /* \"TEXOToken.sol\":52069:52087  _referrer != _user */\n      0xffffffffffffffffffffffffffffffffffffffff\n      and\n        /* \"TEXOToken.sol\":52069:52078  _referrer */\n      dup2\n        /* \"TEXOToken.sol\":52069:52087  _referrer != _user */\n      0xffffffffffffffffffffffffffffffffffffffff\n      and\n      eq\n      iszero\n        /* \"TEXOToken.sol\":51973:52087  _referrer == address(_referrer) && referrers[_user] == address(0) && _referrer != address(0) && _referrer != _user */\n    tag_447:\n        /* \"TEXOToken.sol\":51969:52230  if (_referrer == address(_referrer) && referrers[_user] == address(0) && _referrer != address(0) && _referrer != _user) {... */\n      iszero\n      tag_448\n      jumpi\n        /* \"TEXOToken.sol\":52122:52131  _referrer */\n      dup1\n        /* \"TEXOToken.sol\":52103:52112  referrers */\n      0x0b\n        /* \"TEXOToken.sol\":52103:52119  referrers[_user] */\n      0x00\n        /* \"TEXOToken.sol\":52113:52118  _user */\n      dup5\n        /* \"TEXOToken.sol\":52103:52119  referrers[_user] */\n      0xffffffffffffffffffffffffffffffffffffffff\n      and\n      0xffffffffffffffffffffffffffffffffffffffff\n      and\n      dup2\n      mstore\n      0x20\n      add\n      swap1\n      dup2\n      mstore\n      0x20\n      add\n      0x00\n      keccak256\n      0x00\n        /* \"TEXOToken.sol\":52103:52131  referrers[_user] = _referrer */\n      0x0100\n      exp\n      dup2\n      sload\n      dup2\n      0xffffffffffffffffffffffffffffffffffffffff\n      mul\n      not\n      and\n      swap1\n      dup4\n      0xffffffffffffffffffffffffffffffffffffffff\n      and\n      mul\n      or\n      swap1\n      sstore\n      pop\n        /* \"TEXOToken.sol\":52173:52174  1 */\n      0x01\n        /* \"TEXOToken.sol\":52145:52158  referredCount */\n      0x0c\n        /* \"TEXOToken.sol\":52145:52169  referredCount[_referrer] */\n      0x00\n        /* \"TEXOToken.sol\":52159:52168  _referrer */\n      dup4\n        /* \"TEXOToken.sol\":52145:52169  referredCount[_referrer] */\n      0xffffffffffffffffffffffffffffffffffffffff\n      and\n      0xffffffffffffffffffffffffffffffffffffffff\n      and\n      dup2\n      mstore\n      0x20\n      add\n      swap1\n      dup2\n      mstore\n      0x20\n      add\n      0x00\n      keccak256\n      0x00\n        /* \"TEXOToken.sol\":52145:52174  referredCount[_referrer] += 1 */\n      dup3\n      dup3\n      sload\n      add\n      swap3\n      pop\n      pop\n      dup2\n      swap1\n      sstore\n      pop\n        /* \"TEXOToken.sol\":52209:52218  _referrer */\n      dup1\n        /* \"TEXOToken.sol\":52193:52219  Referral(_user, _referrer) */\n      0xffffffffffffffffffffffffffffffffffffffff\n      and\n        /* \"TEXOToken.sol\":52202:52207  _user */\n      dup3\n        /* \"TEXOToken.sol\":52193:52219  Referral(_user, _referrer) */\n      0xffffffffffffffffffffffffffffffffffffffff\n      and\n      0x9d05414fb79fac216c15606de5cc06664e91a254e4d5f57664d5f1beaf7fb7ef\n      mload(0x40)\n      mload(0x40)\n      dup1\n      swap2\n      sub\n      swap1\n      log3\n        /* \"TEXOToken.sol\":51969:52230  if (_referrer == address(_referrer) && referrers[_user] == address(0) && _referrer != address(0) && _referrer != _user) {... */\n    tag_448:\n        /* \"TEXOToken.sol\":51895:52236  function setReferral(address _user, address _referrer) internal {... */\n      pop\n      pop\n      jump\t// out\n        /* \"TEXOToken.sol\":22858:23061  function safeTransferFrom(IBEP20 token, address from, address to, uint256 value) internal {... */\n    tag_282:\n        /* \"TEXOToken.sol\":22958:23054  _callOptionalReturn(token, abi.encodeWithSelector(token.transferFrom.selector, from, to, value)) */\n      tag_450\n        /* \"TEXOToken.sol\":22978:22983  token */\n      dup5\n        /* \"TEXOToken.sol\":23008:23035  token.transferFrom.selector */\n      shl(0xe0, 0x23b872dd)\n        /* \"TEXOToken.sol\":23037:23041  from */\n      dup6\n        /* \"TEXOToken.sol\":23043:23045  to */\n      dup6\n        /* \"TEXOToken.sol\":23047:23052  value */\n      dup6\n        /* \"TEXOToken.sol\":22985:23053  abi.encodeWithSelector(token.transferFrom.selector, from, to, value) */\n      add(0x24, mload(0x40))\n      dup1\n      dup5\n      0xffffffffffffffffffffffffffffffffffffffff\n      and\n      dup2\n      mstore\n      0x20\n      add\n      dup4\n      0xffffffffffffffffffffffffffffffffffffffff\n      and\n      dup2\n      mstore\n      0x20\n      add\n      dup3\n      dup2\n      mstore\n      0x20\n      add\n      swap4\n      pop\n      pop\n      pop\n      pop\n      mload(0x40)\n      0x20\n      dup2\n      dup4\n      sub\n      sub\n      dup2\n      mstore\n      swap1\n      0x40\n      mstore\n      swap1\n      not(0xffffffffffffffffffffffffffffffffffffffffffffffffffffffff)\n      and\n      0x20\n      dup3\n      add\n      dup1\n      mload\n      0xffffffffffffffffffffffffffffffffffffffffffffffffffffffff\n      dup4\n      dup2\n      dup4\n      and\n      or\n      dup4\n      mstore\n      pop\n      pop\n      pop\n      pop\n        /* \"TEXOToken.sol\":22958:22977  _callOptionalReturn */\n      tag_441\n        /* \"TEXOToken.sol\":22958:23054  _callOptionalReturn(token, abi.encodeWithSelector(token.transferFrom.selector, from, to, value)) */\n      jump\t// in\n    tag_450:\n        /* \"TEXOToken.sol\":22858:23061  function safeTransferFrom(IBEP20 token, address from, address to, uint256 value) internal {... */\n      pop\n      pop\n      pop\n      pop\n      jump\t// out\n        /* \"TEXOToken.sol\":12574:12799  function _transferOwnership(address newOwner) internal {... */\n    tag_390:\n        /* \"TEXOToken.sol\":12667:12668  0 */\n      0x00\n        /* \"TEXOToken.sol\":12647:12669  newOwner != address(0) */\n      0xffffffffffffffffffffffffffffffffffffffff\n      and\n        /* \"TEXOToken.sol\":12647:12655  newOwner */\n      dup2\n        /* \"TEXOToken.sol\":12647:12669  newOwner != address(0) */\n      0xffffffffffffffffffffffffffffffffffffffff\n      and\n      eq\n      iszero\n        /* \"TEXOToken.sol\":12639:12712  require(newOwner != address(0), \"Ownable: new owner is the zero address\") */\n      tag_452\n      jumpi\n      mload(0x40)\n      0x08c379a000000000000000000000000000000000000000000000000000000000\n      dup2\n      mstore\n      0x04\n      add\n      dup1\n      dup1\n      0x20\n      add\n      dup3\n      dup2\n      sub\n      dup3\n      mstore\n      0x26\n      dup2\n      mstore\n      0x20\n      add\n      dup1\n      data_245f15ff17f551913a7a18385165551503906a406f905ac1c2437281a7cd0cfe\n      0x26\n      swap2\n      codecopy\n      0x40\n      add\n      swap2\n      pop\n      pop\n      mload(0x40)\n      dup1\n      swap2\n      sub\n      swap1\n      revert\n    tag_452:\n        /* \"TEXOToken.sol\":12756:12764  newOwner */\n      dup1\n        /* \"TEXOToken.sol\":12727:12765  OwnershipTransferred(_owner, newOwner) */\n      0xffffffffffffffffffffffffffffffffffffffff\n      and\n        /* \"TEXOToken.sol\":12748:12754  _owner */\n      0x00\n      dup1\n      sload\n      swap1\n      0x0100\n      exp\n      swap1\n      div\n      0xffffffffffffffffffffffffffffffffffffffff\n      and\n        /* \"TEXOToken.sol\":12727:12765  OwnershipTransferred(_owner, newOwner) */\n      0xffffffffffffffffffffffffffffffffffffffff\n      and\n      0x8be0079c531659141344cd1fd0a4f28419497f9722a3daafe3b4186f6b6457e0\n      mload(0x40)\n      mload(0x40)\n      dup1\n      swap2\n      sub\n      swap1\n      log3\n        /* \"TEXOToken.sol\":12784:12792  newOwner */\n      dup1\n        /* \"TEXOToken.sol\":12775:12781  _owner */\n      0x00\n      dup1\n        /* \"TEXOToken.sol\":12775:12792  _owner = newOwner */\n      0x0100\n      exp\n      dup2\n      sload\n      dup2\n      0xffffffffffffffffffffffffffffffffffffffff\n      mul\n      not\n      and\n      swap1\n      dup4\n      0xffffffffffffffffffffffffffffffffffffffff\n      and\n      mul\n      or\n      swap1\n      sstore\n      pop\n        /* \"TEXOToken.sol\":12574:12799  function _transferOwnership(address newOwner) internal {... */\n      pop\n      jump\t// out\n        /* \"TEXOToken.sol\":3712:4050  function div(uint256 a, uint256 b, string memory errorMessage) internal pure returns (uint256) {... */\n    tag_409:\n        /* \"TEXOToken.sol\":3798:3805  uint256 */\n      0x00\n        /* \"TEXOToken.sol\":3895:3896  0 */\n      dup1\n        /* \"TEXOToken.sol\":3891:3892  b */\n      dup4\n        /* \"TEXOToken.sol\":3891:3896  b > 0 */\n      gt\n        /* \"TEXOToken.sol\":3898:3910  errorMessage */\n      dup3\n        /* \"TEXOToken.sol\":3883:3911  require(b > 0, errorMessage) */\n      swap1\n      tag_454\n      jumpi\n      mload(0x40)\n      0x08c379a000000000000000000000000000000000000000000000000000000000\n      dup2\n      mstore\n      0x04\n      add\n      dup1\n      dup1\n      0x20\n      add\n      dup3\n      dup2\n      sub\n      dup3\n      mstore\n      dup4\n      dup2\n      dup2\n      mload\n      dup2\n      mstore\n      0x20\n      add\n      swap2\n      pop\n      dup1\n      mload\n      swap1\n      0x20\n      add\n      swap1\n      dup1\n      dup4\n      dup4\n      0x00\n    tag_455:\n      dup4\n      dup2\n      lt\n      iszero\n      tag_457\n      jumpi\n      dup1\n      dup3\n      add\n      mload\n      dup2\n      dup5\n      add\n      mstore\n      0x20\n      dup2\n      add\n      swap1\n      pop\n      jump(tag_455)\n    tag_457:\n      pop\n      pop\n      pop\n      pop\n      swap1\n      pop\n      swap1\n      dup2\n      add\n      swap1\n      0x1f\n      and\n      dup1\n      iszero\n      tag_458\n      jumpi\n      dup1\n      dup3\n      sub\n      dup1\n      mload\n      0x01\n      dup4\n      0x20\n      sub\n      0x0100\n      exp\n      sub\n      not\n      and\n      dup2\n      mstore\n      0x20\n      add\n      swap2\n      pop\n    tag_458:\n      pop\n      swap3\n      pop\n      pop\n      pop\n      mload(0x40)\n      dup1\n      swap2\n      sub\n      swap1\n      revert\n    tag_454:\n      pop\n        /* \"TEXOToken.sol\":3921:3930  uint256 c */\n      0x00\n        /* \"TEXOToken.sol\":3937:3938  b */\n      dup4\n        /* \"TEXOToken.sol\":3933:3934  a */\n      dup6\n        /* \"TEXOToken.sol\":3933:3938  a / b */\n      dup2\n      tag_459\n      jumpi\n      invalid\n    tag_459:\n      div\n        /* \"TEXOToken.sol\":3921:3938  uint256 c = a / b */\n      swap1\n      pop\n        /* \"TEXOToken.sol\":4042:4043  c */\n      dup1\n        /* \"TEXOToken.sol\":4035:4043  return c */\n      swap2\n      pop\n      pop\n        /* \"TEXOToken.sol\":3712:4050  function div(uint256 a, uint256 b, string memory errorMessage) internal pure returns (uint256) {... */\n      swap4\n      swap3\n      pop\n      pop\n      pop\n      jump\t// out\n        /* \"TEXOToken.sol\":1766:1953  function sub(uint256 a, uint256 b, string memory errorMessage) internal pure returns (uint256) {... */\n    tag_412:\n        /* \"TEXOToken.sol\":1852:1859  uint256 */\n      0x00\n        /* \"TEXOToken.sol\":1884:1885  a */\n      dup4\n        /* \"TEXOToken.sol\":1879:1880  b */\n      dup4\n        /* \"TEXOToken.sol\":1879:1885  b <= a */\n      gt\n      iszero\n        /* \"TEXOToken.sol\":1887:1899  errorMessage */\n      dup3\n        /* \"TEXOToken.sol\":1871:1900  require(b <= a, errorMessage) */\n      swap1\n      tag_461\n      jumpi\n      mload(0x40)\n      0x08c379a000000000000000000000000000000000000000000000000000000000\n      dup2\n      mstore\n      0x04\n      add\n      dup1\n      dup1\n      0x20\n      add\n      dup3\n      dup2\n      sub\n      dup3\n      mstore\n      dup4\n      dup2\n      dup2\n      mload\n      dup2\n      mstore\n      0x20\n      add\n      swap2\n      pop\n      dup1\n      mload\n      swap1\n      0x20\n      add\n      swap1\n      dup1\n      dup4\n      dup4\n      0x00\n    tag_462:\n      dup4\n      dup2\n      lt\n      iszero\n      tag_464\n      jumpi\n      dup1\n      dup3\n      add\n      mload\n      dup2\n      dup5\n      add\n      mstore\n      0x20\n      dup2\n      add\n      swap1\n      pop\n      jump(tag_462)\n    tag_464:\n      pop\n      pop\n      pop\n      pop\n      swap1\n      pop\n      swap1\n      dup2\n      add\n      swap1\n      0x1f\n      and\n      dup1\n      iszero\n      tag_465\n      jumpi\n      dup1\n      dup3\n      sub\n      dup1\n      mload\n      0x01\n      dup4\n      0x20\n      sub\n      0x0100\n      exp\n      sub\n      not\n      and\n      dup2\n      mstore\n      0x20\n      add\n      swap2\n      pop\n    tag_465:\n      pop\n      swap3\n      pop\n      pop\n      pop\n      mload(0x40)\n      dup1\n      swap2\n      sub\n      swap1\n      revert\n    tag_461:\n      pop\n        /* \"TEXOToken.sol\":1910:1919  uint256 c */\n      0x00\n        /* \"TEXOToken.sol\":1926:1927  b */\n      dup4\n        /* \"TEXOToken.sol\":1922:1923  a */\n      dup6\n        /* \"TEXOToken.sol\":1922:1927  a - b */\n      sub\n        /* \"TEXOToken.sol\":1910:1927  uint256 c = a - b */\n      swap1\n      pop\n        /* \"TEXOToken.sol\":1945:1946  c */\n      dup1\n        /* \"TEXOToken.sol\":1938:1946  return c */\n      swap2\n      pop\n      pop\n        /* \"TEXOToken.sol\":1766:1953  function sub(uint256 a, uint256 b, string memory errorMessage) internal pure returns (uint256) {... */\n      swap4\n      swap3\n      pop\n      pop\n      pop\n      jump\t// out\n        /* \"TEXOToken.sol\":24940:25691  function _callOptionalReturn(IBEP20 token, bytes memory data) private {... */\n    tag_441:\n        /* \"TEXOToken.sol\":25359:25382  bytes memory returndata */\n      0x60\n        /* \"TEXOToken.sol\":25385:25454  address(token).functionCall(data, \"SafeBEP20: low-level call failed\") */\n      tag_467\n        /* \"TEXOToken.sol\":25413:25417  data */\n      dup3\n        /* \"TEXOToken.sol\":25385:25454  address(token).functionCall(data, \"SafeBEP20: low-level call failed\") */\n      mload(0x40)\n      dup1\n      0x40\n      add\n      0x40\n      mstore\n      dup1\n      0x20\n      dup2\n      mstore\n      0x20\n      add\n      0x5361666542455032303a206c6f772d6c6576656c2063616c6c206661696c6564\n      dup2\n      mstore\n      pop\n        /* \"TEXOToken.sol\":25393:25398  token */\n      dup6\n        /* \"TEXOToken.sol\":25385:25412  address(token).functionCall */\n      0xffffffffffffffffffffffffffffffffffffffff\n      and\n      tag_468\n      swap1\n        /* \"TEXOToken.sol\":25385:25454  address(token).functionCall(data, \"SafeBEP20: low-level call failed\") */\n      swap3\n      swap2\n      swap1\n      0xffffffff\n      and\n      jump\t// in\n    tag_467:\n        /* \"TEXOToken.sol\":25359:25454  bytes memory returndata = address(token).functionCall(data, \"SafeBEP20: low-level call failed\") */\n      swap1\n      pop\n        /* \"TEXOToken.sol\":25488:25489  0 */\n      0x00\n        /* \"TEXOToken.sol\":25468:25478  returndata */\n      dup2\n        /* \"TEXOToken.sol\":25468:25485  returndata.length */\n      mload\n        /* \"TEXOToken.sol\":25468:25489  returndata.length > 0 */\n      gt\n        /* \"TEXOToken.sol\":25464:25685  if (returndata.length > 0) { // Return data is optional... */\n      iszero\n      tag_469\n      jumpi\n        /* \"TEXOToken.sol\":25608:25618  returndata */\n      dup1\n        /* \"TEXOToken.sol\":25597:25627  abi.decode(returndata, (bool)) */\n      dup1\n      0x20\n      add\n      swap1\n      mload\n      0x20\n      dup2\n      lt\n      iszero\n      tag_470\n      jumpi\n      0x00\n      dup1\n      revert\n    tag_470:\n      dup2\n      add\n      swap1\n      dup1\n      dup1\n      mload\n      swap1\n      0x20\n      add\n      swap1\n      swap3\n      swap2\n      swap1\n      pop\n      pop\n      pop\n        /* \"TEXOToken.sol\":25589:25674  require(abi.decode(returndata, (bool)), \"SafeBEP20: BEP20 operation did not succeed\") */\n      tag_471\n      jumpi\n      mload(0x40)\n      0x08c379a000000000000000000000000000000000000000000000000000000000\n      dup2\n      mstore\n      0x04\n      add\n      dup1\n      dup1\n      0x20\n      add\n      dup3\n      dup2\n      sub\n      dup3\n      mstore\n      0x2a\n      dup2\n      mstore\n      0x20\n      add\n      dup1\n      data_21c3364d55537bf20eb8f05374e9f53f47299e1883c412f1f1135f398f2c2082\n      0x2a\n      swap2\n      codecopy\n      0x40\n      add\n      swap2\n      pop\n      pop\n      mload(0x40)\n      dup1\n      swap2\n      sub\n      swap1\n      revert\n    tag_471:\n        /* \"TEXOToken.sol\":25464:25685  if (returndata.length > 0) { // Return data is optional... */\n    tag_469:\n        /* \"TEXOToken.sol\":24940:25691  function _callOptionalReturn(IBEP20 token, bytes memory data) private {... */\n      pop\n      pop\n      pop\n      jump\t// out\n        /* \"TEXOToken.sol\":16320:16513  function functionCall(address target, bytes memory data, string memory errorMessage) internal returns (bytes memory) {... */\n    tag_468:\n        /* \"TEXOToken.sol\":16423:16435  bytes memory */\n      0x60\n        /* \"TEXOToken.sol\":16454:16506  functionCallWithValue(target, data, 0, errorMessage) */\n      tag_473\n        /* \"TEXOToken.sol\":16476:16482  target */\n      dup5\n        /* \"TEXOToken.sol\":16484:16488  data */\n      dup5\n        /* \"TEXOToken.sol\":16490:16491  0 */\n      0x00\n        /* \"TEXOToken.sol\":16493:16505  errorMessage */\n      dup6\n        /* \"TEXOToken.sol\":16454:16475  functionCallWithValue */\n      tag_474\n        /* \"TEXOToken.sol\":16454:16506  functionCallWithValue(target, data, 0, errorMessage) */\n      jump\t// in\n    tag_473:\n        /* \"TEXOToken.sol\":16447:16506  return functionCallWithValue(target, data, 0, errorMessage) */\n      swap1\n      pop\n        /* \"TEXOToken.sol\":16320:16513  function functionCall(address target, bytes memory data, string memory errorMessage) internal returns (bytes memory) {... */\n      swap4\n      swap3\n      pop\n      pop\n      pop\n      jump\t// out\n        /* \"TEXOToken.sol\":17347:17870  function functionCallWithValue(address target, bytes memory data, uint256 value, string memory errorMessage) internal returns (bytes memory) {... */\n    tag_474:\n        /* \"TEXOToken.sol\":17474:17486  bytes memory */\n      0x60\n        /* \"TEXOToken.sol\":17531:17536  value */\n      dup3\n        /* \"TEXOToken.sol\":17506:17527  address(this).balance */\n      selfbalance\n        /* \"TEXOToken.sol\":17506:17536  address(this).balance >= value */\n      lt\n      iszero\n        /* \"TEXOToken.sol\":17498:17579  require(address(this).balance >= value, \"Address: insufficient balance for call\") */\n      tag_476\n      jumpi\n      mload(0x40)\n      0x08c379a000000000000000000000000000000000000000000000000000000000\n      dup2\n      mstore\n      0x04\n      add\n      dup1\n      dup1\n      0x20\n      add\n      dup3\n      dup2\n      sub\n      dup3\n      mstore\n      0x26\n      dup2\n      mstore\n      0x20\n      add\n      dup1\n      data_565f1a77334fc4792800921178c71e4521acffab18ff9e7885b49377ee80ab4c\n      0x26\n      swap2\n      codecopy\n      0x40\n      add\n      swap2\n      pop\n      pop\n      mload(0x40)\n      dup1\n      swap2\n      sub\n      swap1\n      revert\n    tag_476:\n        /* \"TEXOToken.sol\":17597:17615  isContract(target) */\n      tag_477\n        /* \"TEXOToken.sol\":17608:17614  target */\n      dup6\n        /* \"TEXOToken.sol\":17597:17607  isContract */\n      tag_478\n        /* \"TEXOToken.sol\":17597:17615  isContract(target) */\n      jump\t// in\n    tag_477:\n        /* \"TEXOToken.sol\":17589:17649  require(isContract(target), \"Address: call to non-contract\") */\n      tag_479\n      jumpi\n      mload(0x40)\n      0x08c379a000000000000000000000000000000000000000000000000000000000\n      dup2\n      mstore\n      0x04\n      add\n      dup1\n      dup1\n      0x20\n      add\n      dup3\n      dup2\n      sub\n      dup3\n      mstore\n      0x1d\n      dup2\n      mstore\n      0x20\n      add\n      dup1\n      0x416464726573733a2063616c6c20746f206e6f6e2d636f6e7472616374000000\n      dup2\n      mstore\n      pop\n      0x20\n      add\n      swap2\n      pop\n      pop\n      mload(0x40)\n      dup1\n      swap2\n      sub\n      swap1\n      revert\n    tag_479:\n        /* \"TEXOToken.sol\":17720:17732  bool success */\n      0x00\n        /* \"TEXOToken.sol\":17734:17757  bytes memory returndata */\n      0x60\n        /* \"TEXOToken.sol\":17761:17767  target */\n      dup7\n        /* \"TEXOToken.sol\":17761:17772  target.call */\n      0xffffffffffffffffffffffffffffffffffffffff\n      and\n        /* \"TEXOToken.sol\":17781:17786  value */\n      dup6\n        /* \"TEXOToken.sol\":17789:17793  data */\n      dup8\n        /* \"TEXOToken.sol\":17761:17794  target.call{ value: value }(data) */\n      mload(0x40)\n      dup1\n      dup3\n      dup1\n      mload\n      swap1\n      0x20\n      add\n      swap1\n      dup1\n      dup4\n      dup4\n    tag_480:\n      0x20\n      dup4\n      lt\n      tag_482\n      jumpi\n      dup1\n      mload\n      dup3\n      mstore\n      0x20\n      dup3\n      add\n      swap2\n      pop\n      0x20\n      dup2\n      add\n      swap1\n      pop\n      0x20\n      dup4\n      sub\n      swap3\n      pop\n      jump(tag_480)\n    tag_482:\n      0x01\n      dup4\n      0x20\n      sub\n      0x0100\n      exp\n      sub\n      dup1\n      not\n      dup3\n      mload\n      and\n      dup2\n      dup5\n      mload\n      and\n      dup1\n      dup3\n      or\n      dup6\n      mstore\n      pop\n      pop\n      pop\n      pop\n      pop\n      pop\n      swap1\n      pop\n      add\n      swap2\n      pop\n      pop\n      0x00\n      mload(0x40)\n      dup1\n      dup4\n      sub\n      dup2\n      dup6\n      dup8\n      gas\n      call\n      swap3\n      pop\n      pop\n      pop\n      returndatasize\n      dup1\n      0x00\n      dup2\n      eq\n      tag_485\n      jumpi\n      mload(0x40)\n      swap2\n      pop\n      and(add(returndatasize, 0x3f), not(0x1f))\n      dup3\n      add\n      0x40\n      mstore\n      returndatasize\n      dup3\n      mstore\n      returndatasize\n      0x00\n      0x20\n      dup5\n      add\n      returndatacopy\n      jump(tag_484)\n    tag_485:\n      0x60\n      swap2\n      pop\n    tag_484:\n      pop\n        /* \"TEXOToken.sol\":17719:17794  (bool success, bytes memory returndata) = target.call{ value: value }(data) */\n      swap2\n      pop\n      swap2\n      pop\n        /* \"TEXOToken.sol\":17811:17863  _verifyCallResult(success, returndata, errorMessage) */\n      tag_486\n        /* \"TEXOToken.sol\":17829:17836  success */\n      dup3\n        /* \"TEXOToken.sol\":17838:17848  returndata */\n      dup3\n        /* \"TEXOToken.sol\":17850:17862  errorMessage */\n      dup7\n        /* \"TEXOToken.sol\":17811:17828  _verifyCallResult */\n      tag_487\n        /* \"TEXOToken.sol\":17811:17863  _verifyCallResult(success, returndata, errorMessage) */\n      jump\t// in\n    tag_486:\n        /* \"TEXOToken.sol\":17804:17863  return _verifyCallResult(success, returndata, errorMessage) */\n      swap3\n      pop\n      pop\n      pop\n        /* \"TEXOToken.sol\":17347:17870  function functionCallWithValue(address target, bytes memory data, uint256 value, string memory errorMessage) internal returns (bytes memory) {... */\n      swap5\n      swap4\n      pop\n      pop\n      pop\n      pop\n      jump\t// out\n        /* \"TEXOToken.sol\":13463:13876  function isContract(address account) internal view returns (bool) {... */\n    tag_478:\n        /* \"TEXOToken.sol\":13523:13527  bool */\n      0x00\n        /* \"TEXOToken.sol\":13726:13738  uint256 size */\n      dup1\n        /* \"TEXOToken.sol\":13835:13842  account */\n      dup3\n        /* \"TEXOToken.sol\":13823:13843  extcodesize(account) */\n      extcodesize\n        /* \"TEXOToken.sol\":13815:13843  size := extcodesize(account) */\n      swap1\n      pop\n        /* \"TEXOToken.sol\":13868:13869  0 */\n      0x00\n        /* \"TEXOToken.sol\":13861:13865  size */\n      dup2\n        /* \"TEXOToken.sol\":13861:13869  size > 0 */\n      gt\n        /* \"TEXOToken.sol\":13854:13869  return size > 0 */\n      swap2\n      pop\n      pop\n        /* \"TEXOToken.sol\":13463:13876  function isContract(address account) internal view returns (bool) {... */\n      swap2\n      swap1\n      pop\n      jump\t// out\n        /* \"TEXOToken.sol\":18850:19575  function _verifyCallResult(bool success, bytes memory returndata, string memory errorMessage) private pure returns(bytes memory) {... */\n    tag_487:\n        /* \"TEXOToken.sol\":18965:18977  bytes memory */\n      0x60\n        /* \"TEXOToken.sol\":18993:19000  success */\n      dup4\n        /* \"TEXOToken.sol\":18989:19569  if (success) {... */\n      iszero\n      tag_490\n      jumpi\n        /* \"TEXOToken.sol\":19023:19033  returndata */\n      dup3\n        /* \"TEXOToken.sol\":19016:19033  return returndata */\n      swap1\n      pop\n      jump(tag_489)\n        /* \"TEXOToken.sol\":18989:19569  if (success) {... */\n    tag_490:\n        /* \"TEXOToken.sol\":19154:19155  0 */\n      0x00\n        /* \"TEXOToken.sol\":19134:19144  returndata */\n      dup4\n        /* \"TEXOToken.sol\":19134:19151  returndata.length */\n      mload\n        /* \"TEXOToken.sol\":19134:19155  returndata.length > 0 */\n      gt\n        /* \"TEXOToken.sol\":19130:19559  if (returndata.length > 0) {... */\n      iszero\n      tag_492\n      jumpi\n        /* \"TEXOToken.sol\":19392:19402  returndata */\n      dup3\n        /* \"TEXOToken.sol\":19386:19403  mload(returndata) */\n      mload\n        /* \"TEXOToken.sol\":19452:19467  returndata_size */\n      dup1\n        /* \"TEXOToken.sol\":19439:19449  returndata */\n      dup5\n        /* \"TEXOToken.sol\":19435:19437  32 */\n      0x20\n        /* \"TEXOToken.sol\":19431:19450  add(32, returndata) */\n      add\n        /* \"TEXOToken.sol\":19424:19468  revert(add(32, returndata), returndata_size) */\n      revert\n        /* \"TEXOToken.sol\":19341:19486  {... */\n    tag_492:\n        /* \"TEXOToken.sol\":19531:19543  errorMessage */\n      dup2\n        /* \"TEXOToken.sol\":19524:19544  revert(errorMessage) */\n      mload(0x40)\n      0x08c379a000000000000000000000000000000000000000000000000000000000\n      dup2\n      mstore\n      0x04\n      add\n      dup1\n      dup1\n      0x20\n      add\n      dup3\n      dup2\n      sub\n      dup3\n      mstore\n      dup4\n      dup2\n      dup2\n      mload\n      dup2\n      mstore\n      0x20\n      add\n      swap2\n      pop\n      dup1\n      mload\n      swap1\n      0x20\n      add\n      swap1\n      dup1\n      dup4\n      dup4\n      0x00\n    tag_494:\n      dup4\n      dup2\n      lt\n      iszero\n      tag_496\n      jumpi\n      dup1\n      dup3\n      add\n      mload\n      dup2\n      dup5\n      add\n      mstore\n      0x20\n      dup2\n      add\n      swap1\n      pop\n      jump(tag_494)\n    tag_496:\n      pop\n      pop\n      pop\n      pop\n      swap1\n      pop\n      swap1\n      dup2\n      add\n      swap1\n      0x1f\n      and\n      dup1\n      iszero\n      tag_497\n      jumpi\n      dup1\n      dup3\n      sub\n      dup1\n      mload\n      0x01\n      dup4\n      0x20\n      sub\n      0x0100\n      exp\n      sub\n      not\n      and\n      dup2\n      mstore\n      0x20\n      add\n      swap2\n      pop\n    tag_497:\n      pop\n      swap3\n      pop\n      pop\n      pop\n      mload(0x40)\n      dup1\n      swap2\n      sub\n      swap1\n      revert\n        /* \"TEXOToken.sol\":18850:19575  function _verifyCallResult(bool success, bytes memory returndata, string memory errorMessage) private pure returns(bytes memory) {... */\n    tag_489:\n      swap4\n      swap3\n      pop\n      pop\n      pop\n      jump\t// out\n    stop\n    data_0ecf01aeb804f0ae223eada9d16893a9009cdcbe208d348705dc613f9a9f5331 6164643a20696e76616c6964206465706f7369742066656520626173697320706f696e7473\n    data_20a6bce988e8b6ff5852ac398e27735d1d8155a9d79e532ec3c3da13f504a6a4 757064617465526566426f6e757350657263656e743a20696e76616c696420726566657272616c20626f6e757320626173697320706f696e7473\n    data_21c3364d55537bf20eb8f05374e9f53f47299e1883c412f1f1135f398f2c2082 5361666542455032303a204245503230206f7065726174696f6e20646964206e6f742073756363656564\n    data_245f15ff17f551913a7a18385165551503906a406f905ac1c2437281a7cd0cfe 4f776e61626c653a206e6577206f776e657220697320746865207a65726f2061646472657373\n    data_2a7e0e7f8bc79ffac7125960112eaea13c804910c2e58b65c50e00aacc68de0e 73616665506c756d5472616e736665723a207472616e73666572206661696c65642e\n    data_542d191555ea619dedb1489efd71948659c57b11c6c1a84d1c1ce6e7c8074aad 6465706f7369743a20496e76616c69642072656665727265722061646472657373\n    data_565f1a77334fc4792800921178c71e4521acffab18ff9e7885b49377ee80ab4c 416464726573733a20696e73756666696369656e742062616c616e636520666f722063616c6c\n    data_9113bb53c2876a3805b2c9242029423fc540a728243ce887ab24c82cf119fba3 536166654d6174683a206d756c7469706c69636174696f6e206f766572666c6f77\n    data_9353dfb5d58f0da66015bbcadafa0686e2e7b7226db2e603088e70c7012680cf 7365743a20696e76616c6964206465706f7369742066656520626173697320706f696e7473\n    data_9d1a761c817eae8410d2081a433553cad78dcf01ebb754f58addc464260ba484 757064617465526566426f6e757350657263656e743a2073616d6520626f6e757320627020736574\n    data_a827dd9c9a80825686eef28a9f1d2466e1d29b6da48280d16028581898989615 726564756365456d697373696f6e526174655769746844656661756c74526174653a2043616e206f6e6c792062652063616c6c65642061667465722073706563696669656420626c6f636b20737461727473\n    data_bf35de78f3e15a98c58afdc189c393a6a76029783bd8ecfd3a8b87b4a628fd85 676574506f6f6c4964466f724c70546f6b656e3a20646f206e6f74206578697374\n    data_d4e7846547be135afcf8a93a01a9053e9fa2c0d79f8d5448158422588210b6ab 726564756365456d697373696f6e526174655769746844656661756c74526174653a20456d697373696f6e207261746520686173207265616368656420746865206d696e696d756d207468726573686f6c64\n    data_fb61bfab522ff5726f96c4cebf8c9bc7c68d529a173450ab2ca49eebd2ecf0bb 726564756365456d697373696f6e526174655769746844656661756c74526174653a205065726d697373696f6e20666c6167206e6f74207475726e6564206f6e\n\n    auxdata: 0xa264697066735822122046c850b4596647f7fd3af49b281dce3e707d122b17e3222b2f84a5e7ccb901a764736f6c634300060c0033\n}\n","bytecode":{"linkReferences":{},"object":"6080604052600060095560c8600a556000600f556000601060006101000a81548160ff0219169083151502179055503480156200003b57600080fd5b5060405162004c0238038062004c02833981810160405260808110156200006157600080fd5b81019080805190602001909291908051906020019092919080519060200190929190805190602001909291905050506000620000a26200022c60201b60201c565b9050806000806101000a81548173ffffffffffffffffffffffffffffffffffffffff021916908373ffffffffffffffffffffffffffffffffffffffff1602179055508073ffffffffffffffffffffffffffffffffffffffff16600073ffffffffffffffffffffffffffffffffffffffff167f8be0079c531659141344cd1fd0a4f28419497f9722a3daafe3b4186f6b6457e060405160405180910390a3506001808190555083600260006101000a81548173ffffffffffffffffffffffffffffffffffffffff021916908373ffffffffffffffffffffffffffffffffffffffff16021790555082600360006101000a81548173ffffffffffffffffffffffffffffffffffffffff021916908373ffffffffffffffffffffffffffffffffffffffff16021790555081600560006101000a81548173ffffffffffffffffffffffffffffffffffffffff021916908373ffffffffffffffffffffffffffffffffffffffff1602179055506706f05b59d3b200006004819055508043016006819055505050505062000234565b600033905090565b6149be80620002446000396000f3fe608060405234801561001057600080fd5b50600436106102745760003560e01c80638705fcd411610151578063b7eee1f1116100c3578063da09c72c11610087578063da09c72c14610ae4578063dfe3d2cd14610b18578063e2bbb15814610b7a578063ea76bc2914610bb2578063f2fde38b14610bbc578063fab96ae614610c0057610274565b8063b7eee1f1146109ae578063c6df25bd146109cc578063cbd258b514610a28578063d0d41fe114610a82578063d4adafdf14610ac657610274565b806393f1a40b1161011557806393f1a40b1461081c578063955c9b931461088e5780639bf62f7e146108b0578063a1bdb15e14610908578063ae715d7014610936578063b51d4c801461096a57610274565b80638705fcd4146106e25780638da5cb5b146107265780638dbb1e3a1461075a5780638dbdbe6d146107a657806391bb809c146107fe57610274565b80634a3b68cc116101ea57806364ed743b116101ae57806364ed743b14610620578063660f83401461064e57806366f685ea1461066c5780636a9a76601461068a578063715018a6146106a857806380361747146106b257610274565b80634a3b68cc1461052e57806351eb05a61461059c5780635312ea8e146105ca57806361e0c468146105f8578063630b5ba11461061657610274565b80633a22df781161023c5780633a22df78146103ba5780633b0f0f2f146103dc5780633f7b06d81461044a57806341275358146104a2578063441a3e70146104d657806347e3cda51461050e57610274565b8063081e3eda146102795780631526fe271461029757806317caf6f114610316578063190f39f0146103345780631eb704b01461038c575b600080fd5b610281610c72565b6040518082815260200191505060405180910390f35b6102c3600480360360208110156102ad57600080fd5b8101908080359060200190929190505050610c7f565b604051808773ffffffffffffffffffffffffffffffffffffffff1681526020018681526020018581526020018481526020018381526020018261ffff168152602001965050505050505060405180910390f35b61031e610cf6565b6040518082815260200191505060405180910390f35b6103766004803603602081101561034a57600080fd5b81019080803573ffffffffffffffffffffffffffffffffffffffff169060200190929190505050610cfc565b6040518082815260200191505060405180910390f35b6103b8600480360360208110156103a257600080fd5b8101908080359060200190929190505050610dee565b005b6103c2610ec2565b604051808261ffff16815260200191505060405180910390f35b61041e600480360360208110156103f257600080fd5b81019080803573ffffffffffffffffffffffffffffffffffffffff169060200190929190505050610ec8565b604051808273ffffffffffffffffffffffffffffffffffffffff16815260200191505060405180910390f35b61048c6004803603602081101561046057600080fd5b81019080803573ffffffffffffffffffffffffffffffffffffffff169060200190929190505050610f31565b6040518082815260200191505060405180910390f35b6104aa610f49565b604051808273ffffffffffffffffffffffffffffffffffffffff16815260200191505060405180910390f35b61050c600480360360408110156104ec57600080fd5b810190808035906020019092919080359060200190929190505050610f6f565b005b610516611276565b60405180821515815260200191505060405180910390f35b6105706004803603602081101561054457600080fd5b81019080803573ffffffffffffffffffffffffffffffffffffffff169060200190929190505050611289565b604051808273ffffffffffffffffffffffffffffffffffffffff16815260200191505060405180910390f35b6105c8600480360360208110156105b257600080fd5b81019080803590602001909291905050506112bc565b005b6105f6600480360360208110156105e057600080fd5b8101908080359060200190929190505050611617565b005b6106006117d1565b6040518082815260200191505060405180910390f35b61061e6117dc565b005b61064c6004803603602081101561063657600080fd5b8101908080359060200190929190505050611809565b005b6106566119dc565b6040518082815260200191505060405180910390f35b6106746119e2565b6040518082815260200191505060405180910390f35b6106926119e8565b6040518082815260200191505060405180910390f35b6106b06119ee565b005b6106e0600480360360208110156106c857600080fd5b81019080803515159060200190929190505050611b74565b005b610724600480360360208110156106f857600080fd5b81019080803573ffffffffffffffffffffffffffffffffffffffff169060200190929190505050611c59565b005b61072e611e5d565b604051808273ffffffffffffffffffffffffffffffffffffffff16815260200191505060405180910390f35b6107906004803603604081101561077057600080fd5b810190808035906020019092919080359060200190929190505050611e86565b6040518082815260200191505060405180910390f35b6107fc600480360360608110156107bc57600080fd5b810190808035906020019092919080359060200190929190803573ffffffffffffffffffffffffffffffffffffffff169060200190929190505050611ea3565b005b610806612346565b6040518082815260200191505060405180910390f35b6108686004803603604081101561083257600080fd5b8101908080359060200190929190803573ffffffffffffffffffffffffffffffffffffffff169060200190929190505050612352565b604051808481526020018381526020018215158152602001935050505060405180910390f35b610896612396565b604051808261ffff16815260200191505060405180910390f35b6108f2600480360360208110156108c657600080fd5b81019080803573ffffffffffffffffffffffffffffffffffffffff16906020019092919050505061239c565b6040518082815260200191505060405180910390f35b6109346004803603602081101561091e57600080fd5b81019080803590602001909291905050506123b4565b005b61093e612486565b604051808273ffffffffffffffffffffffffffffffffffffffff16815260200191505060405180910390f35b6109966004803603602081101561098057600080fd5b81019080803590602001909291905050506124ac565b60405180821515815260200191505060405180910390f35b6109b66124dc565b6040518082815260200191505060405180910390f35b610a26600480360360a08110156109e257600080fd5b810190808035906020019092919080359060200190929190803561ffff169060200190929190803515159060200190929190803590602001909291905050506124e2565b005b610a6a60048036036020811015610a3e57600080fd5b81019080803573ffffffffffffffffffffffffffffffffffffffff1690602001909291905050506126ef565b60405180821515815260200191505060405180910390f35b610ac460048036036020811015610a9857600080fd5b81019080803573ffffffffffffffffffffffffffffffffffffffff16906020019092919050505061270f565b005b610ace612913565b6040518082815260200191505060405180910390f35b610aec612919565b604051808273ffffffffffffffffffffffffffffffffffffffff16815260200191505060405180910390f35b610b6460048036036040811015610b2e57600080fd5b8101908080359060200190929190803573ffffffffffffffffffffffffffffffffffffffff16906020019092919050505061293f565b6040518082815260200191505060405180910390f35b610bb060048036036040811015610b9057600080fd5b810190808035906020019092919080359060200190929190505050612b85565b005b610bba612f8f565b005b610bfe60048036036020811015610bd257600080fd5b81019080803573ffffffffffffffffffffffffffffffffffffffff1690602001909291905050506131e5565b005b610c70600480360360a0811015610c1657600080fd5b8101908080359060200190929190803573ffffffffffffffffffffffffffffffffffffffff169060200190929190803561ffff169060200190929190803515159060200190929190803590602001909291905050506132b9565b005b6000600780549050905090565b60078181548110610c8c57fe5b90600052602060002090600602016000915090508060000160009054906101000a900473ffffffffffffffffffffffffffffffffffffffff16908060010154908060020154908060030154908060040154908060050160009054906101000a900461ffff16905086565b60095481565b6000801515600d60008473ffffffffffffffffffffffffffffffffffffffff1673ffffffffffffffffffffffffffffffffffffffff16815260200190815260200160002060009054906101000a900460ff1615151415610da7576040517f08c379a00000000000000000000000000000000000000000000000000000000081526004018080602001828103825260218152602001806148d66021913960400191505060405180910390fd5b600e60008373ffffffffffffffffffffffffffffffffffffffff1673ffffffffffffffffffffffffffffffffffffffff168152602001908152602001600020549050919050565b610df6613690565b73ffffffffffffffffffffffffffffffffffffffff1660008054906101000a900473ffffffffffffffffffffffffffffffffffffffff1673ffffffffffffffffffffffffffffffffffffffff1614610eb6576040517f08c379a00000000000000000000000000000000000000000000000000000000081526004018080602001828103825260208152602001807f4f776e61626c653a2063616c6c6572206973206e6f7420746865206f776e657281525060200191505060405180910390fd5b80430160068190555050565b6107d081565b6000600b60008373ffffffffffffffffffffffffffffffffffffffff1673ffffffffffffffffffffffffffffffffffffffff16815260200190815260200160002060009054906101000a900473ffffffffffffffffffffffffffffffffffffffff169050919050565b600c6020528060005260406000206000915090505481565b600560009054906101000a900473ffffffffffffffffffffffffffffffffffffffff1681565b60026001541415610fe8576040517f08c379a000000000000000000000000000000000000000000000000000000000815260040180806020018281038252601f8152602001807f5265656e7472616e637947756172643a207265656e7472616e742063616c6c0081525060200191505060405180910390fd5b6002600181905550600060078381548110610fff57fe5b9060005260206000209060060201905060006008600085815260200190815260200160002060003373ffffffffffffffffffffffffffffffffffffffff1673ffffffffffffffffffffffffffffffffffffffff168152602001908152602001600020905082816000015410156110dd576040517f08c379a00000000000000000000000000000000000000000000000000000000081526004018080602001828103825260128152602001807f77697468647261773a206e6f7420676f6f64000000000000000000000000000081525060200191505060405180910390fd5b6110e6846112bc565b60006110f1856124ac565b9050600061113d836001015461112f64e8d4a510006111218860040154886000015461369890919063ffffffff16565b61371e90919063ffffffff16565b61376890919063ffffffff16565b905081801561114c5750600081115b156111a05761115b33826137b2565b6111653382613a86565b61119764e8d4a510006111898660040154866000015461369890919063ffffffff16565b61371e90919063ffffffff16565b83600101819055505b6000851115611218576111c085846000015461376890919063ffffffff16565b836000018190555061121733868660000160009054906101000a900473ffffffffffffffffffffffffffffffffffffffff1673ffffffffffffffffffffffffffffffffffffffff16613c539092919063ffffffff16565b5b853373ffffffffffffffffffffffffffffffffffffffff167ff279e6a1f5e320cca91135676d9cb6e44ca8a08c0b88342bcdb1144f6511b568876040518082815260200191505060405180910390a350505050600180819055505050565b601060009054906101000a900460ff1681565b600b6020528060005260406000206000915054906101000a900473ffffffffffffffffffffffffffffffffffffffff1681565b6000600782815481106112cb57fe5b90600052602060002090600602019050806003015443116112ec5750611614565b60008160000160009054906101000a900473ffffffffffffffffffffffffffffffffffffffff1673ffffffffffffffffffffffffffffffffffffffff166370a08231306040518263ffffffff1660e01b8152600401808273ffffffffffffffffffffffffffffffffffffffff16815260200191505060206040518083038186803b15801561137957600080fd5b505afa15801561138d573d6000803e3d6000fd5b505050506040513d60208110156113a357600080fd5b8101908080519060200190929190505050905060008114806113c9575060008260010154145b156113de574382600301819055505050611614565b60006113ee836003015443611e86565b9050600061143160095461142386600101546114156004548761369890919063ffffffff16565b61369890919063ffffffff16565b61371e90919063ffffffff16565b9050600260009054906101000a900473ffffffffffffffffffffffffffffffffffffffff1673ffffffffffffffffffffffffffffffffffffffff166340c10f19600360009054906101000a900473ffffffffffffffffffffffffffffffffffffffff166114a8600a8561371e90919063ffffffff16565b6040518363ffffffff1660e01b8152600401808373ffffffffffffffffffffffffffffffffffffffff16815260200182815260200192505050600060405180830381600087803b1580156114fb57600080fd5b505af115801561150f573d6000803e3d6000fd5b50505050600260009054906101000a900473ffffffffffffffffffffffffffffffffffffffff1673ffffffffffffffffffffffffffffffffffffffff166340c10f1930836040518363ffffffff1660e01b8152600401808373ffffffffffffffffffffffffffffffffffffffff16815260200182815260200192505050600060405180830381600087803b1580156115a657600080fd5b505af11580156115ba573d6000803e3d6000fd5b505050506115fe6115eb846115dd64e8d4a510008561369890919063ffffffff16565b61371e90919063ffffffff16565b8560040154613cf590919063ffffffff16565b8460040181905550438460030181905550505050505b50565b60026001541415611690576040517f08c379a000000000000000000000000000000000000000000000000000000000815260040180806020018281038252601f8152602001807f5265656e7472616e637947756172643a207265656e7472616e742063616c6c0081525060200191505060405180910390fd5b60026001819055506000600782815481106116a757fe5b9060005260206000209060060201905060006008600084815260200190815260200160002060003373ffffffffffffffffffffffffffffffffffffffff1673ffffffffffffffffffffffffffffffffffffffff168152602001908152602001600020905061175e3382600001548460000160009054906101000a900473ffffffffffffffffffffffffffffffffffffffff1673ffffffffffffffffffffffffffffffffffffffff16613c539092919063ffffffff16565b823373ffffffffffffffffffffffffffffffffffffffff167fbb757047c2b5f3974fe26b7c10f732e7bce710b0952a71082702781e62ae059583600001546040518082815260200191505060405180910390a3600081600001819055506000816001018190555050506001808190555050565b66b1a2bc2ec5000081565b6000600780549050905060005b81811015611805576117fa816112bc565b8060010190506117e9565b5050565b611811613690565b73ffffffffffffffffffffffffffffffffffffffff1660008054906101000a900473ffffffffffffffffffffffffffffffffffffffff1673ffffffffffffffffffffffffffffffffffffffff16146118d1576040517f08c379a00000000000000000000000000000000000000000000000000000000081526004018080602001828103825260208152602001807f4f776e61626c653a2063616c6c6572206973206e6f7420746865206f776e657281525060200191505060405180910390fd5b6107d061ffff16811115611930576040517f08c379a000000000000000000000000000000000000000000000000000000000815260040180806020018281038252603a815260200180614723603a913960400191505060405180910390fd5b600a5481141561198b576040517f08c379a000000000000000000000000000000000000000000000000000000000815260040180806020018281038252602881526020018061485c6028913960400191505060405180910390fd5b6000600a54905081600a819055507f3282b692bfebf5f35b198a229212cf532c72099026ab54c4b8665382d1086b3f8183604051808381526020018281526020019250505060405180910390a15050565b60045481565b600a5481565b600f5481565b6119f6613690565b73ffffffffffffffffffffffffffffffffffffffff1660008054906101000a900473ffffffffffffffffffffffffffffffffffffffff1673ffffffffffffffffffffffffffffffffffffffff1614611ab6576040517f08c379a00000000000000000000000000000000000000000000000000000000081526004018080602001828103825260208152602001807f4f776e61626c653a2063616c6c6572206973206e6f7420746865206f776e657281525060200191505060405180910390fd5b600073ffffffffffffffffffffffffffffffffffffffff1660008054906101000a900473ffffffffffffffffffffffffffffffffffffffff1673ffffffffffffffffffffffffffffffffffffffff167f8be0079c531659141344cd1fd0a4f28419497f9722a3daafe3b4186f6b6457e060405160405180910390a360008060006101000a81548173ffffffffffffffffffffffffffffffffffffffff021916908373ffffffffffffffffffffffffffffffffffffffff160217905550565b611b7c613690565b73ffffffffffffffffffffffffffffffffffffffff1660008054906101000a900473ffffffffffffffffffffffffffffffffffffffff1673ffffffffffffffffffffffffffffffffffffffff1614611c3c576040517f08c379a00000000000000000000000000000000000000000000000000000000081526004018080602001828103825260208152602001807f4f776e61626c653a2063616c6c6572206973206e6f7420746865206f776e657281525060200191505060405180910390fd5b80601060006101000a81548160ff02191690831515021790555050565b600073ffffffffffffffffffffffffffffffffffffffff168173ffffffffffffffffffffffffffffffffffffffff161415611cfc576040517f08c379a000000000000000000000000000000000000000000000000000000000815260040180806020018281038252601e8152602001807f736574466565416464726573733a20696e76616c69642061646472657373000081525060200191505060405180910390fd5b600560009054906101000a900473ffffffffffffffffffffffffffffffffffffffff1673ffffffffffffffffffffffffffffffffffffffff163373ffffffffffffffffffffffffffffffffffffffff1614611dbf576040517f08c379a00000000000000000000000000000000000000000000000000000000081526004018080602001828103825260188152602001807f736574466565416464726573733a20464f5242494444454e000000000000000081525060200191505060405180910390fd5b80600560006101000a81548173ffffffffffffffffffffffffffffffffffffffff021916908373ffffffffffffffffffffffffffffffffffffffff1602179055508073ffffffffffffffffffffffffffffffffffffffff163373ffffffffffffffffffffffffffffffffffffffff167fd44190acf9d04bdb5d3a1aafff7e6dee8b40b93dfb8c5d3f0eea4b9f4539c3f760405160405180910390a350565b60008060009054906101000a900473ffffffffffffffffffffffffffffffffffffffff16905090565b6000611e9b838361376890919063ffffffff16565b905092915050565b60026001541415611f1c576040517f08c379a000000000000000000000000000000000000000000000000000000000815260040180806020018281038252601f8152602001807f5265656e7472616e637947756172643a207265656e7472616e742063616c6c0081525060200191505060405180910390fd5b60026001819055508073ffffffffffffffffffffffffffffffffffffffff168173ffffffffffffffffffffffffffffffffffffffff1614611fa8576040517f08c379a00000000000000000000000000000000000000000000000000000000081526004018080602001828103825260218152602001806147cf6021913960400191505060405180910390fd5b600060078481548110611fb757fe5b9060005260206000209060060201905060006008600086815260200190815260200160002060003373ffffffffffffffffffffffffffffffffffffffff1673ffffffffffffffffffffffffffffffffffffffff1681526020019081526020016000209050612024856112bc565b6000816000015411156120ee57600061207b826001015461206d64e8d4a5100061205f8760040154876000015461369890919063ffffffff16565b61371e90919063ffffffff16565b61376890919063ffffffff16565b90506000612088876124ac565b90508080156120975750600082115b156120eb576120a633836137b2565b6120b03383613a86565b6120e264e8d4a510006120d48660040154866000015461369890919063ffffffff16565b61371e90919063ffffffff16565b83600101819055505b50505b600084111561227b576121013384613d7d565b6121523330868560000160009054906101000a900473ffffffffffffffffffffffffffffffffffffffff1673ffffffffffffffffffffffffffffffffffffffff16613fe4909392919063ffffffff16565b60008260050160009054906101000a900461ffff1661ffff16111561225a5760006121b06127106121a28560050160009054906101000a900461ffff1661ffff168861369890919063ffffffff16565b61371e90919063ffffffff16565b90506121db816121cd878560000154613cf590919063ffffffff16565b61376890919063ffffffff16565b8260000181905550612254600560009054906101000a900473ffffffffffffffffffffffffffffffffffffffff16828560000160009054906101000a900473ffffffffffffffffffffffffffffffffffffffff1673ffffffffffffffffffffffffffffffffffffffff16613c539092919063ffffffff16565b5061227a565b612271848260000154613cf590919063ffffffff16565b81600001819055505b5b8060020160009054906101000a900460ff166122e9576122c364e8d4a510006122b58460040154846000015461369890919063ffffffff16565b61371e90919063ffffffff16565b816001018190555060018160020160006101000a81548160ff0219169083151502179055505b843373ffffffffffffffffffffffffffffffffffffffff167f90890809c654f11d6e72a28fa60149770a0d11ec6c92319d6ceb2bb0a4ea1a15866040518082815260200191505060405180910390a3505060018081905550505050565b6706f05b59d3b2000081565b6008602052816000526040600020602052806000526040600020600091509150508060000154908060010154908060020160009054906101000a900460ff16905083565b6103e881565b600e6020528060005260406000206000915090505481565b6123bc613690565b73ffffffffffffffffffffffffffffffffffffffff1660008054906101000a900473ffffffffffffffffffffffffffffffffffffffff1673ffffffffffffffffffffffffffffffffffffffff161461247c576040517f08c379a00000000000000000000000000000000000000000000000000000000081526004018080602001828103825260208152602001807f4f776e61626c653a2063616c6c6572206973206e6f7420746865206f776e657281525060200191505060405180910390fd5b8060048190555050565b600260009054906101000a900473ffffffffffffffffffffffffffffffffffffffff1681565b600080600783815481106124bc57fe5b906000526020600020906006020190504381600201541115915050919050565b61012c81565b6124ea613690565b73ffffffffffffffffffffffffffffffffffffffff1660008054906101000a900473ffffffffffffffffffffffffffffffffffffffff1673ffffffffffffffffffffffffffffffffffffffff16146125aa576040517f08c379a00000000000000000000000000000000000000000000000000000000081526004018080602001828103825260208152602001807f4f776e61626c653a2063616c6c6572206973206e6f7420746865206f776e657281525060200191505060405180910390fd5b6103e861ffff168361ffff16111561260d576040517f08c379a00000000000000000000000000000000000000000000000000000000081526004018080602001828103825260258152602001806148376025913960400191505060405180910390fd5b811561261c5761261b6117dc565b5b612661846126536007888154811061263057fe5b90600052602060002090600602016001015460095461376890919063ffffffff16565b613cf590919063ffffffff16565b600981905550836007868154811061267557fe5b906000526020600020906006020160010181905550826007868154811061269857fe5b906000526020600020906006020160050160006101000a81548161ffff021916908361ffff160217905550804301600786815481106126d357fe5b9060005260206000209060060201600201819055505050505050565b600d6020528060005260406000206000915054906101000a900460ff1681565b600073ffffffffffffffffffffffffffffffffffffffff168173ffffffffffffffffffffffffffffffffffffffff1614156127b2576040517f08c379a00000000000000000000000000000000000000000000000000000000081526004018080602001828103825260148152602001807f6465763a20696e76616c6964206164647265737300000000000000000000000081525060200191505060405180910390fd5b600360009054906101000a900473ffffffffffffffffffffffffffffffffffffffff1673ffffffffffffffffffffffffffffffffffffffff163373ffffffffffffffffffffffffffffffffffffffff1614612875576040517f08c379a00000000000000000000000000000000000000000000000000000000081526004018080602001828103825260098152602001807f6465763a207775743f000000000000000000000000000000000000000000000081525060200191505060405180910390fd5b80600360006101000a81548173ffffffffffffffffffffffffffffffffffffffff021916908373ffffffffffffffffffffffffffffffffffffffff1602179055508073ffffffffffffffffffffffffffffffffffffffff163373ffffffffffffffffffffffffffffffffffffffff167f618c54559e94f1499a808aad71ee8729f8e74e8c48e979616328ce493a1a52e760405160405180910390a350565b61384081565b600360009054906101000a900473ffffffffffffffffffffffffffffffffffffffff1681565b6000806007848154811061294f57fe5b9060005260206000209060060201905060006008600086815260200190815260200160002060008573ffffffffffffffffffffffffffffffffffffffff1673ffffffffffffffffffffffffffffffffffffffff168152602001908152602001600020905060008260040154905060008360000160009054906101000a900473ffffffffffffffffffffffffffffffffffffffff1673ffffffffffffffffffffffffffffffffffffffff166370a08231306040518263ffffffff1660e01b8152600401808273ffffffffffffffffffffffffffffffffffffffff16815260200191505060206040518083038186803b158015612a4957600080fd5b505afa158015612a5d573d6000803e3d6000fd5b505050506040513d6020811015612a7357600080fd5b81019080805190602001909291905050509050836003015443118015612a9a575060008114155b15612b35576000612aaf856003015443611e86565b90506000612af2600954612ae48860010154612ad66004548761369890919063ffffffff16565b61369890919063ffffffff16565b61371e90919063ffffffff16565b9050612b30612b2184612b1364e8d4a510008561369890919063ffffffff16565b61371e90919063ffffffff16565b85613cf590919063ffffffff16565b935050505b612b798360010154612b6b64e8d4a51000612b5d86886000015461369890919063ffffffff16565b61371e90919063ffffffff16565b61376890919063ffffffff16565b94505050505092915050565b60026001541415612bfe576040517f08c379a000000000000000000000000000000000000000000000000000000000815260040180806020018281038252601f8152602001807f5265656e7472616e637947756172643a207265656e7472616e742063616c6c0081525060200191505060405180910390fd5b6002600181905550600060078381548110612c1557fe5b9060005260206000209060060201905060006008600085815260200190815260200160002060003373ffffffffffffffffffffffffffffffffffffffff1673ffffffffffffffffffffffffffffffffffffffff1681526020019081526020016000209050612c82846112bc565b600081600001541115612d42576000612cd98260010154612ccb64e8d4a51000612cbd8760040154876000015461369890919063ffffffff16565b61371e90919063ffffffff16565b61376890919063ffffffff16565b90506000612ce6866124ac565b9050808015612cf55750600082115b15612d3f57612d0433836137b2565b612d3664e8d4a51000612d288660040154866000015461369890919063ffffffff16565b61371e90919063ffffffff16565b83600101819055505b50505b6000831115612ec557612d9c3330858560000160009054906101000a900473ffffffffffffffffffffffffffffffffffffffff1673ffffffffffffffffffffffffffffffffffffffff16613fe4909392919063ffffffff16565b60008260050160009054906101000a900461ffff1661ffff161115612ea4576000612dfa612710612dec8560050160009054906101000a900461ffff1661ffff168761369890919063ffffffff16565b61371e90919063ffffffff16565b9050612e2581612e17868560000154613cf590919063ffffffff16565b61376890919063ffffffff16565b8260000181905550612e9e600560009054906101000a900473ffffffffffffffffffffffffffffffffffffffff16828560000160009054906101000a900473ffffffffffffffffffffffffffffffffffffffff1673ffffffffffffffffffffffffffffffffffffffff16613c539092919063ffffffff16565b50612ec4565b612ebb838260000154613cf590919063ffffffff16565b81600001819055505b5b8060020160009054906101000a900460ff16612f3357612f0d64e8d4a51000612eff8460040154846000015461369890919063ffffffff16565b61371e90919063ffffffff16565b816001018190555060018160020160006101000a81548160ff0219169083151502179055505b833373ffffffffffffffffffffffffffffffffffffffff167f90890809c654f11d6e72a28fa60149770a0d11ec6c92319d6ceb2bb0a4ea1a15856040518082815260200191505060405180910390a35050600180819055505050565b601060009054906101000a900460ff16612ff4576040517f08c379a00000000000000000000000000000000000000000000000000000000081526004018080602001828103825260408152602001806149496040913960400191505060405180910390fd5b600654431161304e576040517f08c379a00000000000000000000000000000000000000000000000000000000081526004018080602001828103825260528152602001806148846052913960600191505060405180910390fd5b66b1a2bc2ec50000600454116130af576040517f08c379a00000000000000000000000000000000000000000000000000000000081526004018080602001828103825260528152602001806148f76052913960600191505060405180910390fd5b60006130da6138406130cc6006544361376890919063ffffffff16565b61371e90919063ffffffff16565b9050600f5481116130eb57506131e3565b600060045490506000600f5490505b8281101561313c5761312f61271061312161012c612710038561369890919063ffffffff16565b61371e90919063ffffffff16565b91508060010190506130fa565b5066b1a2bc2ec500008110613151578061315a565b66b1a2bc2ec500005b9050600454811061316c5750506131e3565b6131746117dc565b81600f8190555060006004549050816004819055503373ffffffffffffffffffffffffffffffffffffffff167feedc6338c9c1ad8f3cd6c90dd09dbe98dbd57e610d3e59a17996d07acb0d95118284604051808381526020018281526020019250505060405180910390a25050505b565b6131ed613690565b73ffffffffffffffffffffffffffffffffffffffff1660008054906101000a900473ffffffffffffffffffffffffffffffffffffffff1673ffffffffffffffffffffffffffffffffffffffff16146132ad576040517f08c379a00000000000000000000000000000000000000000000000000000000081526004018080602001828103825260208152602001807f4f776e61626c653a2063616c6c6572206973206e6f7420746865206f776e657281525060200191505060405180910390fd5b6132b6816140a5565b50565b6132c1613690565b73ffffffffffffffffffffffffffffffffffffffff1660008054906101000a900473ffffffffffffffffffffffffffffffffffffffff1673ffffffffffffffffffffffffffffffffffffffff1614613381576040517f08c379a00000000000000000000000000000000000000000000000000000000081526004018080602001828103825260208152602001807f4f776e61626c653a2063616c6c6572206973206e6f7420746865206f776e657281525060200191505060405180910390fd5b8360001515600d60008373ffffffffffffffffffffffffffffffffffffffff1673ffffffffffffffffffffffffffffffffffffffff16815260200190815260200160002060009054906101000a900460ff16151514613448576040517f08c379a00000000000000000000000000000000000000000000000000000000081526004018080602001828103825260198152602001807f6e6f6e4475706c6963617465643a206475706c6963617465640000000000000081525060200191505060405180910390fd5b6103e861ffff168461ffff1611156134ab576040517f08c379a00000000000000000000000000000000000000000000000000000000081526004018080602001828103825260258152602001806146fe6025913960400191505060405180910390fd5b82156134ba576134b96117dc565b5b600082430190506134d687600954613cf590919063ffffffff16565b6009819055506001600d60008873ffffffffffffffffffffffffffffffffffffffff1673ffffffffffffffffffffffffffffffffffffffff16815260200190815260200160002060006101000a81548160ff02191690831515021790555060076040518060c001604052808873ffffffffffffffffffffffffffffffffffffffff168152602001898152602001838152602001838152602001600081526020018761ffff16815250908060018154018082558091505060019003906000526020600020906006020160009091909190915060008201518160000160006101000a81548173ffffffffffffffffffffffffffffffffffffffff021916908373ffffffffffffffffffffffffffffffffffffffff1602179055506020820151816001015560408201518160020155606082015181600301556080820151816004015560a08201518160050160006101000a81548161ffff021916908361ffff1602179055505050600160078054905003600e60008873ffffffffffffffffffffffffffffffffffffffff1673ffffffffffffffffffffffffffffffffffffffff1681526020019081526020016000208190555050505050505050565b600033905090565b6000808314156136ab5760009050613718565b60008284029050828482816136bc57fe5b0414613713576040517f08c379a00000000000000000000000000000000000000000000000000000000081526004018080602001828103825260218152602001806148166021913960400191505060405180910390fd5b809150505b92915050565b600061376083836040518060400160405280601a81526020017f536166654d6174683a206469766973696f6e206279207a65726f0000000000008152506141e8565b905092915050565b60006137aa83836040518060400160405280601e81526020017f536166654d6174683a207375627472616374696f6e206f766572666c6f7700008152506142ae565b905092915050565b6000600260009054906101000a900473ffffffffffffffffffffffffffffffffffffffff1673ffffffffffffffffffffffffffffffffffffffff166370a08231306040518263ffffffff1660e01b8152600401808273ffffffffffffffffffffffffffffffffffffffff16815260200191505060206040518083038186803b15801561383d57600080fd5b505afa158015613851573d6000803e3d6000fd5b505050506040513d602081101561386757600080fd5b8101908080519060200190929190505050905060008183111561395957600260009054906101000a900473ffffffffffffffffffffffffffffffffffffffff1673ffffffffffffffffffffffffffffffffffffffff1663a9059cbb85846040518363ffffffff1660e01b8152600401808373ffffffffffffffffffffffffffffffffffffffff16815260200182815260200192505050602060405180830381600087803b15801561391757600080fd5b505af115801561392b573d6000803e3d6000fd5b505050506040513d602081101561394157600080fd5b81019080805190602001909291905050509050613a2a565b600260009054906101000a900473ffffffffffffffffffffffffffffffffffffffff1673ffffffffffffffffffffffffffffffffffffffff1663a9059cbb85856040518363ffffffff1660e01b8152600401808373ffffffffffffffffffffffffffffffffffffffff16815260200182815260200192505050602060405180830381600087803b1580156139ec57600080fd5b505af1158015613a00573d6000803e3d6000fd5b505050506040513d6020811015613a1657600080fd5b810190808051906020019092919050505090505b80613a80576040517f08c379a00000000000000000000000000000000000000000000000000000000081526004018080602001828103825260228152602001806147ad6022913960400191505060405180910390fd5b50505050565b6000613a9183610ec8565b9050600073ffffffffffffffffffffffffffffffffffffffff168173ffffffffffffffffffffffffffffffffffffffff1614158015613afc57508273ffffffffffffffffffffffffffffffffffffffff168173ffffffffffffffffffffffffffffffffffffffff1614155b8015613b0a57506000600a54115b15613c4e576000613b3a612710613b2c600a548661369890919063ffffffff16565b61371e90919063ffffffff16565b9050600260009054906101000a900473ffffffffffffffffffffffffffffffffffffffff1673ffffffffffffffffffffffffffffffffffffffff166340c10f1983836040518363ffffffff1660e01b8152600401808373ffffffffffffffffffffffffffffffffffffffff16815260200182815260200192505050600060405180830381600087803b158015613bcf57600080fd5b505af1158015613be3573d6000803e3d6000fd5b505050508173ffffffffffffffffffffffffffffffffffffffff168473ffffffffffffffffffffffffffffffffffffffff167f0a721ab4682ceb61c7e4d264ef879fc419a6d764b136e7d96ef54b2053c75673836040518082815260200191505060405180910390a3505b505050565b613cf08363a9059cbb60e01b8484604051602401808373ffffffffffffffffffffffffffffffffffffffff16815260200182815260200192505050604051602081830303815290604052907bffffffffffffffffffffffffffffffffffffffffffffffffffffffff19166020820180517bffffffffffffffffffffffffffffffffffffffffffffffffffffffff838183161783525050505061436e565b505050565b600080828401905083811015613d73576040517f08c379a000000000000000000000000000000000000000000000000000000000815260040180806020018281038252601b8152602001807f536166654d6174683a206164646974696f6e206f766572666c6f77000000000081525060200191505060405180910390fd5b8091505092915050565b8073ffffffffffffffffffffffffffffffffffffffff168173ffffffffffffffffffffffffffffffffffffffff16148015613e435750600073ffffffffffffffffffffffffffffffffffffffff16600b60008473ffffffffffffffffffffffffffffffffffffffff1673ffffffffffffffffffffffffffffffffffffffff16815260200190815260200160002060009054906101000a900473ffffffffffffffffffffffffffffffffffffffff1673ffffffffffffffffffffffffffffffffffffffff16145b8015613e7c5750600073ffffffffffffffffffffffffffffffffffffffff168173ffffffffffffffffffffffffffffffffffffffff1614155b8015613eb457508173ffffffffffffffffffffffffffffffffffffffff168173ffffffffffffffffffffffffffffffffffffffff1614155b15613fe05780600b60008473ffffffffffffffffffffffffffffffffffffffff1673ffffffffffffffffffffffffffffffffffffffff16815260200190815260200160002060006101000a81548173ffffffffffffffffffffffffffffffffffffffff021916908373ffffffffffffffffffffffffffffffffffffffff1602179055506001600c60008373ffffffffffffffffffffffffffffffffffffffff1673ffffffffffffffffffffffffffffffffffffffff168152602001908152602001600020600082825401925050819055508073ffffffffffffffffffffffffffffffffffffffff168273ffffffffffffffffffffffffffffffffffffffff167f9d05414fb79fac216c15606de5cc06664e91a254e4d5f57664d5f1beaf7fb7ef60405160405180910390a35b5050565b61409f846323b872dd60e01b858585604051602401808473ffffffffffffffffffffffffffffffffffffffff1681526020018373ffffffffffffffffffffffffffffffffffffffff1681526020018281526020019350505050604051602081830303815290604052907bffffffffffffffffffffffffffffffffffffffffffffffffffffffff19166020820180517bffffffffffffffffffffffffffffffffffffffffffffffffffffffff838183161783525050505061436e565b50505050565b600073ffffffffffffffffffffffffffffffffffffffff168173ffffffffffffffffffffffffffffffffffffffff16141561412b576040517f08c379a00000000000000000000000000000000000000000000000000000000081526004018080602001828103825260268152602001806147876026913960400191505060405180910390fd5b8073ffffffffffffffffffffffffffffffffffffffff1660008054906101000a900473ffffffffffffffffffffffffffffffffffffffff1673ffffffffffffffffffffffffffffffffffffffff167f8be0079c531659141344cd1fd0a4f28419497f9722a3daafe3b4186f6b6457e060405160405180910390a3806000806101000a81548173ffffffffffffffffffffffffffffffffffffffff021916908373ffffffffffffffffffffffffffffffffffffffff16021790555050565b60008083118290614294576040517f08c379a00000000000000000000000000000000000000000000000000000000081526004018080602001828103825283818151815260200191508051906020019080838360005b8381101561425957808201518184015260208101905061423e565b50505050905090810190601f1680156142865780820380516001836020036101000a031916815260200191505b509250505060405180910390fd5b5060008385816142a057fe5b049050809150509392505050565b600083831115829061435b576040517f08c379a00000000000000000000000000000000000000000000000000000000081526004018080602001828103825283818151815260200191508051906020019080838360005b83811015614320578082015181840152602081019050614305565b50505050905090810190601f16801561434d5780820380516001836020036101000a031916815260200191505b509250505060405180910390fd5b5060008385039050809150509392505050565b60606143d0826040518060400160405280602081526020017f5361666542455032303a206c6f772d6c6576656c2063616c6c206661696c65648152508573ffffffffffffffffffffffffffffffffffffffff1661445d9092919063ffffffff16565b9050600081511115614458578080602001905160208110156143f157600080fd5b8101908080519060200190929190505050614457576040517f08c379a000000000000000000000000000000000000000000000000000000000815260040180806020018281038252602a81526020018061475d602a913960400191505060405180910390fd5b5b505050565b606061446c8484600085614475565b90509392505050565b6060824710156144d0576040517f08c379a00000000000000000000000000000000000000000000000000000000081526004018080602001828103825260268152602001806147f06026913960400191505060405180910390fd5b6144d98561461e565b61454b576040517f08c379a000000000000000000000000000000000000000000000000000000000815260040180806020018281038252601d8152602001807f416464726573733a2063616c6c20746f206e6f6e2d636f6e747261637400000081525060200191505060405180910390fd5b600060608673ffffffffffffffffffffffffffffffffffffffff1685876040518082805190602001908083835b6020831061459b5780518252602082019150602081019050602083039250614578565b6001836020036101000a03801982511681845116808217855250505050505090500191505060006040518083038185875af1925050503d80600081146145fd576040519150601f19603f3d011682016040523d82523d6000602084013e614602565b606091505b5091509150614612828286614631565b92505050949350505050565b600080823b905060008111915050919050565b60608315614641578290506146f6565b6000835111156146545782518084602001fd5b816040517f08c379a00000000000000000000000000000000000000000000000000000000081526004018080602001828103825283818151815260200191508051906020019080838360005b838110156146bb5780820151818401526020810190506146a0565b50505050905090810190601f1680156146e85780820380516001836020036101000a031916815260200191505b509250505060405180910390fd5b939250505056fe6164643a20696e76616c6964206465706f7369742066656520626173697320706f696e7473757064617465526566426f6e757350657263656e743a20696e76616c696420726566657272616c20626f6e757320626173697320706f696e74735361666542455032303a204245503230206f7065726174696f6e20646964206e6f7420737563636565644f776e61626c653a206e6577206f776e657220697320746865207a65726f206164647265737373616665506c756d5472616e736665723a207472616e73666572206661696c65642e6465706f7369743a20496e76616c69642072656665727265722061646472657373416464726573733a20696e73756666696369656e742062616c616e636520666f722063616c6c536166654d6174683a206d756c7469706c69636174696f6e206f766572666c6f777365743a20696e76616c6964206465706f7369742066656520626173697320706f696e7473757064617465526566426f6e757350657263656e743a2073616d6520626f6e757320627020736574726564756365456d697373696f6e526174655769746844656661756c74526174653a2043616e206f6e6c792062652063616c6c65642061667465722073706563696669656420626c6f636b20737461727473676574506f6f6c4964466f724c70546f6b656e3a20646f206e6f74206578697374726564756365456d697373696f6e526174655769746844656661756c74526174653a20456d697373696f6e207261746520686173207265616368656420746865206d696e696d756d207468726573686f6c64726564756365456d697373696f6e526174655769746844656661756c74526174653a205065726d697373696f6e20666c6167206e6f74207475726e6564206f6ea264697066735822122046c850b4596647f7fd3af49b281dce3e707d122b17e3222b2f84a5e7ccb901a764736f6c634300060c0033","opcodes":"PUSH1 0x80 PUSH1 0x40 MSTORE PUSH1 0x0 PUSH1 0x9 SSTORE PUSH1 0xC8 PUSH1 0xA SSTORE PUSH1 0x0 PUSH1 0xF SSTORE PUSH1 0x0 PUSH1 0x10 PUSH1 0x0 PUSH2 0x100 EXP DUP2 SLOAD DUP2 PUSH1 0xFF MUL NOT AND SWAP1 DUP4 ISZERO ISZERO MUL OR SWAP1 SSTORE POP CALLVALUE DUP1 ISZERO PUSH3 0x3B JUMPI PUSH1 0x0 DUP1 REVERT JUMPDEST POP PUSH1 0x40 MLOAD PUSH3 0x4C02 CODESIZE SUB DUP1 PUSH3 0x4C02 DUP4 CODECOPY DUP2 DUP2 ADD PUSH1 0x40 MSTORE PUSH1 0x80 DUP2 LT ISZERO PUSH3 0x61 JUMPI PUSH1 0x0 DUP1 REVERT JUMPDEST DUP2 ADD SWAP1 DUP1 DUP1 MLOAD SWAP1 PUSH1 0x20 ADD SWAP1 SWAP3 SWAP2 SWAP1 DUP1 MLOAD SWAP1 PUSH1 0x20 ADD SWAP1 SWAP3 SWAP2 SWAP1 DUP1 MLOAD SWAP1 PUSH1 0x20 ADD SWAP1 SWAP3 SWAP2 SWAP1 DUP1 MLOAD SWAP1 PUSH1 0x20 ADD SWAP1 SWAP3 SWAP2 SWAP1 POP POP POP PUSH1 0x0 PUSH3 0xA2 PUSH3 0x22C PUSH1 0x20 SHL PUSH1 0x20 SHR JUMP JUMPDEST SWAP1 POP DUP1 PUSH1 0x0 DUP1 PUSH2 0x100 EXP DUP2 SLOAD DUP2 PUSH20 0xFFFFFFFFFFFFFFFFFFFFFFFFFFFFFFFFFFFFFFFF MUL NOT AND SWAP1 DUP4 PUSH20 0xFFFFFFFFFFFFFFFFFFFFFFFFFFFFFFFFFFFFFFFF AND MUL OR SWAP1 SSTORE POP DUP1 PUSH20 0xFFFFFFFFFFFFFFFFFFFFFFFFFFFFFFFFFFFFFFFF AND PUSH1 0x0 PUSH20 0xFFFFFFFFFFFFFFFFFFFFFFFFFFFFFFFFFFFFFFFF AND PUSH32 0x8BE0079C531659141344CD1FD0A4F28419497F9722A3DAAFE3B4186F6B6457E0 PUSH1 0x40 MLOAD PUSH1 0x40 MLOAD DUP1 SWAP2 SUB SWAP1 LOG3 POP PUSH1 0x1 DUP1 DUP2 SWAP1 SSTORE POP DUP4 PUSH1 0x2 PUSH1 0x0 PUSH2 0x100 EXP DUP2 SLOAD DUP2 PUSH20 0xFFFFFFFFFFFFFFFFFFFFFFFFFFFFFFFFFFFFFFFF MUL NOT AND SWAP1 DUP4 PUSH20 0xFFFFFFFFFFFFFFFFFFFFFFFFFFFFFFFFFFFFFFFF AND MUL OR SWAP1 SSTORE POP DUP3 PUSH1 0x3 PUSH1 0x0 PUSH2 0x100 EXP DUP2 SLOAD DUP2 PUSH20 0xFFFFFFFFFFFFFFFFFFFFFFFFFFFFFFFFFFFFFFFF MUL NOT AND SWAP1 DUP4 PUSH20 0xFFFFFFFFFFFFFFFFFFFFFFFFFFFFFFFFFFFFFFFF AND MUL OR SWAP1 SSTORE POP DUP2 PUSH1 0x5 PUSH1 0x0 PUSH2 0x100 EXP DUP2 SLOAD DUP2 PUSH20 0xFFFFFFFFFFFFFFFFFFFFFFFFFFFFFFFFFFFFFFFF MUL NOT AND SWAP1 DUP4 PUSH20 0xFFFFFFFFFFFFFFFFFFFFFFFFFFFFFFFFFFFFFFFF AND MUL OR SWAP1 SSTORE POP PUSH8 0x6F05B59D3B20000 PUSH1 0x4 DUP2 SWAP1 SSTORE POP DUP1 NUMBER ADD PUSH1 0x6 DUP2 SWAP1 SSTORE POP POP POP POP POP PUSH3 0x234 JUMP JUMPDEST PUSH1 0x0 CALLER SWAP1 POP SWAP1 JUMP JUMPDEST PUSH2 0x49BE DUP1 PUSH3 0x244 PUSH1 0x0 CODECOPY PUSH1 0x0 RETURN INVALID PUSH1 0x80 PUSH1 0x40 MSTORE CALLVALUE DUP1 ISZERO PUSH2 0x10 JUMPI PUSH1 0x0 DUP1 REVERT JUMPDEST POP PUSH1 0x4 CALLDATASIZE LT PUSH2 0x274 JUMPI PUSH1 0x0 CALLDATALOAD PUSH1 0xE0 SHR DUP1 PUSH4 0x8705FCD4 GT PUSH2 0x151 JUMPI DUP1 PUSH4 0xB7EEE1F1 GT PUSH2 0xC3 JUMPI DUP1 PUSH4 0xDA09C72C GT PUSH2 0x87 JUMPI DUP1 PUSH4 0xDA09C72C EQ PUSH2 0xAE4 JUMPI DUP1 PUSH4 0xDFE3D2CD EQ PUSH2 0xB18 JUMPI DUP1 PUSH4 0xE2BBB158 EQ PUSH2 0xB7A JUMPI DUP1 PUSH4 0xEA76BC29 EQ PUSH2 0xBB2 JUMPI DUP1 PUSH4 0xF2FDE38B EQ PUSH2 0xBBC JUMPI DUP1 PUSH4 0xFAB96AE6 EQ PUSH2 0xC00 JUMPI PUSH2 0x274 JUMP JUMPDEST DUP1 PUSH4 0xB7EEE1F1 EQ PUSH2 0x9AE JUMPI DUP1 PUSH4 0xC6DF25BD EQ PUSH2 0x9CC JUMPI DUP1 PUSH4 0xCBD258B5 EQ PUSH2 0xA28 JUMPI DUP1 PUSH4 0xD0D41FE1 EQ PUSH2 0xA82 JUMPI DUP1 PUSH4 0xD4ADAFDF EQ PUSH2 0xAC6 JUMPI PUSH2 0x274 JUMP JUMPDEST DUP1 PUSH4 0x93F1A40B GT PUSH2 0x115 JUMPI DUP1 PUSH4 0x93F1A40B EQ PUSH2 0x81C JUMPI DUP1 PUSH4 0x955C9B93 EQ PUSH2 0x88E JUMPI DUP1 PUSH4 0x9BF62F7E EQ PUSH2 0x8B0 JUMPI DUP1 PUSH4 0xA1BDB15E EQ PUSH2 0x908 JUMPI DUP1 PUSH4 0xAE715D70 EQ PUSH2 0x936 JUMPI DUP1 PUSH4 0xB51D4C80 EQ PUSH2 0x96A JUMPI PUSH2 0x274 JUMP JUMPDEST DUP1 PUSH4 0x8705FCD4 EQ PUSH2 0x6E2 JUMPI DUP1 PUSH4 0x8DA5CB5B EQ PUSH2 0x726 JUMPI DUP1 PUSH4 0x8DBB1E3A EQ PUSH2 0x75A JUMPI DUP1 PUSH4 0x8DBDBE6D EQ PUSH2 0x7A6 JUMPI DUP1 PUSH4 0x91BB809C EQ PUSH2 0x7FE JUMPI PUSH2 0x274 JUMP JUMPDEST DUP1 PUSH4 0x4A3B68CC GT PUSH2 0x1EA JUMPI DUP1 PUSH4 0x64ED743B GT PUSH2 0x1AE JUMPI DUP1 PUSH4 0x64ED743B EQ PUSH2 0x620 JUMPI DUP1 PUSH4 0x660F8340 EQ PUSH2 0x64E JUMPI DUP1 PUSH4 0x66F685EA EQ PUSH2 0x66C JUMPI DUP1 PUSH4 0x6A9A7660 EQ PUSH2 0x68A JUMPI DUP1 PUSH4 0x715018A6 EQ PUSH2 0x6A8 JUMPI DUP1 PUSH4 0x80361747 EQ PUSH2 0x6B2 JUMPI PUSH2 0x274 JUMP JUMPDEST DUP1 PUSH4 0x4A3B68CC EQ PUSH2 0x52E JUMPI DUP1 PUSH4 0x51EB05A6 EQ PUSH2 0x59C JUMPI DUP1 PUSH4 0x5312EA8E EQ PUSH2 0x5CA JUMPI DUP1 PUSH4 0x61E0C468 EQ PUSH2 0x5F8 JUMPI DUP1 PUSH4 0x630B5BA1 EQ PUSH2 0x616 JUMPI PUSH2 0x274 JUMP JUMPDEST DUP1 PUSH4 0x3A22DF78 GT PUSH2 0x23C JUMPI DUP1 PUSH4 0x3A22DF78 EQ PUSH2 0x3BA JUMPI DUP1 PUSH4 0x3B0F0F2F EQ PUSH2 0x3DC JUMPI DUP1 PUSH4 0x3F7B06D8 EQ PUSH2 0x44A JUMPI DUP1 PUSH4 0x41275358 EQ PUSH2 0x4A2 JUMPI DUP1 PUSH4 0x441A3E70 EQ PUSH2 0x4D6 JUMPI DUP1 PUSH4 0x47E3CDA5 EQ PUSH2 0x50E JUMPI PUSH2 0x274 JUMP JUMPDEST DUP1 PUSH4 0x81E3EDA EQ PUSH2 0x279 JUMPI DUP1 PUSH4 0x1526FE27 EQ PUSH2 0x297 JUMPI DUP1 PUSH4 0x17CAF6F1 EQ PUSH2 0x316 JUMPI DUP1 PUSH4 0x190F39F0 EQ PUSH2 0x334 JUMPI DUP1 PUSH4 0x1EB704B0 EQ PUSH2 0x38C JUMPI JUMPDEST PUSH1 0x0 DUP1 REVERT JUMPDEST PUSH2 0x281 PUSH2 0xC72 JUMP JUMPDEST PUSH1 0x40 MLOAD DUP1 DUP3 DUP2 MSTORE PUSH1 0x20 ADD SWAP2 POP POP PUSH1 0x40 MLOAD DUP1 SWAP2 SUB SWAP1 RETURN JUMPDEST PUSH2 0x2C3 PUSH1 0x4 DUP1 CALLDATASIZE SUB PUSH1 0x20 DUP2 LT ISZERO PUSH2 0x2AD JUMPI PUSH1 0x0 DUP1 REVERT JUMPDEST DUP2 ADD SWAP1 DUP1 DUP1 CALLDATALOAD SWAP1 PUSH1 0x20 ADD SWAP1 SWAP3 SWAP2 SWAP1 POP POP POP PUSH2 0xC7F JUMP JUMPDEST PUSH1 0x40 MLOAD DUP1 DUP8 PUSH20 0xFFFFFFFFFFFFFFFFFFFFFFFFFFFFFFFFFFFFFFFF AND DUP2 MSTORE PUSH1 0x20 ADD DUP7 DUP2 MSTORE PUSH1 0x20 ADD DUP6 DUP2 MSTORE PUSH1 0x20 ADD DUP5 DUP2 MSTORE PUSH1 0x20 ADD DUP4 DUP2 MSTORE PUSH1 0x20 ADD DUP3 PUSH2 0xFFFF AND DUP2 MSTORE PUSH1 0x20 ADD SWAP7 POP POP POP POP POP POP POP PUSH1 0x40 MLOAD DUP1 SWAP2 SUB SWAP1 RETURN JUMPDEST PUSH2 0x31E PUSH2 0xCF6 JUMP JUMPDEST PUSH1 0x40 MLOAD DUP1 DUP3 DUP2 MSTORE PUSH1 0x20 ADD SWAP2 POP POP PUSH1 0x40 MLOAD DUP1 SWAP2 SUB SWAP1 RETURN JUMPDEST PUSH2 0x376 PUSH1 0x4 DUP1 CALLDATASIZE SUB PUSH1 0x20 DUP2 LT ISZERO PUSH2 0x34A JUMPI PUSH1 0x0 DUP1 REVERT JUMPDEST DUP2 ADD SWAP1 DUP1 DUP1 CALLDATALOAD PUSH20 0xFFFFFFFFFFFFFFFFFFFFFFFFFFFFFFFFFFFFFFFF AND SWAP1 PUSH1 0x20 ADD SWAP1 SWAP3 SWAP2 SWAP1 POP POP POP PUSH2 0xCFC JUMP JUMPDEST PUSH1 0x40 MLOAD DUP1 DUP3 DUP2 MSTORE PUSH1 0x20 ADD SWAP2 POP POP PUSH1 0x40 MLOAD DUP1 SWAP2 SUB SWAP1 RETURN JUMPDEST PUSH2 0x3B8 PUSH1 0x4 DUP1 CALLDATASIZE SUB PUSH1 0x20 DUP2 LT ISZERO PUSH2 0x3A2 JUMPI PUSH1 0x0 DUP1 REVERT JUMPDEST DUP2 ADD SWAP1 DUP1 DUP1 CALLDATALOAD SWAP1 PUSH1 0x20 ADD SWAP1 SWAP3 SWAP2 SWAP1 POP POP POP PUSH2 0xDEE JUMP JUMPDEST STOP JUMPDEST PUSH2 0x3C2 PUSH2 0xEC2 JUMP JUMPDEST PUSH1 0x40 MLOAD DUP1 DUP3 PUSH2 0xFFFF AND DUP2 MSTORE PUSH1 0x20 ADD SWAP2 POP POP PUSH1 0x40 MLOAD DUP1 SWAP2 SUB SWAP1 RETURN JUMPDEST PUSH2 0x41E PUSH1 0x4 DUP1 CALLDATASIZE SUB PUSH1 0x20 DUP2 LT ISZERO PUSH2 0x3F2 JUMPI PUSH1 0x0 DUP1 REVERT JUMPDEST DUP2 ADD SWAP1 DUP1 DUP1 CALLDATALOAD PUSH20 0xFFFFFFFFFFFFFFFFFFFFFFFFFFFFFFFFFFFFFFFF AND SWAP1 PUSH1 0x20 ADD SWAP1 SWAP3 SWAP2 SWAP1 POP POP POP PUSH2 0xEC8 JUMP JUMPDEST PUSH1 0x40 MLOAD DUP1 DUP3 PUSH20 0xFFFFFFFFFFFFFFFFFFFFFFFFFFFFFFFFFFFFFFFF AND DUP2 MSTORE PUSH1 0x20 ADD SWAP2 POP POP PUSH1 0x40 MLOAD DUP1 SWAP2 SUB SWAP1 RETURN JUMPDEST PUSH2 0x48C PUSH1 0x4 DUP1 CALLDATASIZE SUB PUSH1 0x20 DUP2 LT ISZERO PUSH2 0x460 JUMPI PUSH1 0x0 DUP1 REVERT JUMPDEST DUP2 ADD SWAP1 DUP1 DUP1 CALLDATALOAD PUSH20 0xFFFFFFFFFFFFFFFFFFFFFFFFFFFFFFFFFFFFFFFF AND SWAP1 PUSH1 0x20 ADD SWAP1 SWAP3 SWAP2 SWAP1 POP POP POP PUSH2 0xF31 JUMP JUMPDEST PUSH1 0x40 MLOAD DUP1 DUP3 DUP2 MSTORE PUSH1 0x20 ADD SWAP2 POP POP PUSH1 0x40 MLOAD DUP1 SWAP2 SUB SWAP1 RETURN JUMPDEST PUSH2 0x4AA PUSH2 0xF49 JUMP JUMPDEST PUSH1 0x40 MLOAD DUP1 DUP3 PUSH20 0xFFFFFFFFFFFFFFFFFFFFFFFFFFFFFFFFFFFFFFFF AND DUP2 MSTORE PUSH1 0x20 ADD SWAP2 POP POP PUSH1 0x40 MLOAD DUP1 SWAP2 SUB SWAP1 RETURN JUMPDEST PUSH2 0x50C PUSH1 0x4 DUP1 CALLDATASIZE SUB PUSH1 0x40 DUP2 LT ISZERO PUSH2 0x4EC JUMPI PUSH1 0x0 DUP1 REVERT JUMPDEST DUP2 ADD SWAP1 DUP1 DUP1 CALLDATALOAD SWAP1 PUSH1 0x20 ADD SWAP1 SWAP3 SWAP2 SWAP1 DUP1 CALLDATALOAD SWAP1 PUSH1 0x20 ADD SWAP1 SWAP3 SWAP2 SWAP1 POP POP POP PUSH2 0xF6F JUMP JUMPDEST STOP JUMPDEST PUSH2 0x516 PUSH2 0x1276 JUMP JUMPDEST PUSH1 0x40 MLOAD DUP1 DUP3 ISZERO ISZERO DUP2 MSTORE PUSH1 0x20 ADD SWAP2 POP POP PUSH1 0x40 MLOAD DUP1 SWAP2 SUB SWAP1 RETURN JUMPDEST PUSH2 0x570 PUSH1 0x4 DUP1 CALLDATASIZE SUB PUSH1 0x20 DUP2 LT ISZERO PUSH2 0x544 JUMPI PUSH1 0x0 DUP1 REVERT JUMPDEST DUP2 ADD SWAP1 DUP1 DUP1 CALLDATALOAD PUSH20 0xFFFFFFFFFFFFFFFFFFFFFFFFFFFFFFFFFFFFFFFF AND SWAP1 PUSH1 0x20 ADD SWAP1 SWAP3 SWAP2 SWAP1 POP POP POP PUSH2 0x1289 JUMP JUMPDEST PUSH1 0x40 MLOAD DUP1 DUP3 PUSH20 0xFFFFFFFFFFFFFFFFFFFFFFFFFFFFFFFFFFFFFFFF AND DUP2 MSTORE PUSH1 0x20 ADD SWAP2 POP POP PUSH1 0x40 MLOAD DUP1 SWAP2 SUB SWAP1 RETURN JUMPDEST PUSH2 0x5C8 PUSH1 0x4 DUP1 CALLDATASIZE SUB PUSH1 0x20 DUP2 LT ISZERO PUSH2 0x5B2 JUMPI PUSH1 0x0 DUP1 REVERT JUMPDEST DUP2 ADD SWAP1 DUP1 DUP1 CALLDATALOAD SWAP1 PUSH1 0x20 ADD SWAP1 SWAP3 SWAP2 SWAP1 POP POP POP PUSH2 0x12BC JUMP JUMPDEST STOP JUMPDEST PUSH2 0x5F6 PUSH1 0x4 DUP1 CALLDATASIZE SUB PUSH1 0x20 DUP2 LT ISZERO PUSH2 0x5E0 JUMPI PUSH1 0x0 DUP1 REVERT JUMPDEST DUP2 ADD SWAP1 DUP1 DUP1 CALLDATALOAD SWAP1 PUSH1 0x20 ADD SWAP1 SWAP3 SWAP2 SWAP1 POP POP POP PUSH2 0x1617 JUMP JUMPDEST STOP JUMPDEST PUSH2 0x600 PUSH2 0x17D1 JUMP JUMPDEST PUSH1 0x40 MLOAD DUP1 DUP3 DUP2 MSTORE PUSH1 0x20 ADD SWAP2 POP POP PUSH1 0x40 MLOAD DUP1 SWAP2 SUB SWAP1 RETURN JUMPDEST PUSH2 0x61E PUSH2 0x17DC JUMP JUMPDEST STOP JUMPDEST PUSH2 0x64C PUSH1 0x4 DUP1 CALLDATASIZE SUB PUSH1 0x20 DUP2 LT ISZERO PUSH2 0x636 JUMPI PUSH1 0x0 DUP1 REVERT JUMPDEST DUP2 ADD SWAP1 DUP1 DUP1 CALLDATALOAD SWAP1 PUSH1 0x20 ADD SWAP1 SWAP3 SWAP2 SWAP1 POP POP POP PUSH2 0x1809 JUMP JUMPDEST STOP JUMPDEST PUSH2 0x656 PUSH2 0x19DC JUMP JUMPDEST PUSH1 0x40 MLOAD DUP1 DUP3 DUP2 MSTORE PUSH1 0x20 ADD SWAP2 POP POP PUSH1 0x40 MLOAD DUP1 SWAP2 SUB SWAP1 RETURN JUMPDEST PUSH2 0x674 PUSH2 0x19E2 JUMP JUMPDEST PUSH1 0x40 MLOAD DUP1 DUP3 DUP2 MSTORE PUSH1 0x20 ADD SWAP2 POP POP PUSH1 0x40 MLOAD DUP1 SWAP2 SUB SWAP1 RETURN JUMPDEST PUSH2 0x692 PUSH2 0x19E8 JUMP JUMPDEST PUSH1 0x40 MLOAD DUP1 DUP3 DUP2 MSTORE PUSH1 0x20 ADD SWAP2 POP POP PUSH1 0x40 MLOAD DUP1 SWAP2 SUB SWAP1 RETURN JUMPDEST PUSH2 0x6B0 PUSH2 0x19EE JUMP JUMPDEST STOP JUMPDEST PUSH2 0x6E0 PUSH1 0x4 DUP1 CALLDATASIZE SUB PUSH1 0x20 DUP2 LT ISZERO PUSH2 0x6C8 JUMPI PUSH1 0x0 DUP1 REVERT JUMPDEST DUP2 ADD SWAP1 DUP1 DUP1 CALLDATALOAD ISZERO ISZERO SWAP1 PUSH1 0x20 ADD SWAP1 SWAP3 SWAP2 SWAP1 POP POP POP PUSH2 0x1B74 JUMP JUMPDEST STOP JUMPDEST PUSH2 0x724 PUSH1 0x4 DUP1 CALLDATASIZE SUB PUSH1 0x20 DUP2 LT ISZERO PUSH2 0x6F8 JUMPI PUSH1 0x0 DUP1 REVERT JUMPDEST DUP2 ADD SWAP1 DUP1 DUP1 CALLDATALOAD PUSH20 0xFFFFFFFFFFFFFFFFFFFFFFFFFFFFFFFFFFFFFFFF AND SWAP1 PUSH1 0x20 ADD SWAP1 SWAP3 SWAP2 SWAP1 POP POP POP PUSH2 0x1C59 JUMP JUMPDEST STOP JUMPDEST PUSH2 0x72E PUSH2 0x1E5D JUMP JUMPDEST PUSH1 0x40 MLOAD DUP1 DUP3 PUSH20 0xFFFFFFFFFFFFFFFFFFFFFFFFFFFFFFFFFFFFFFFF AND DUP2 MSTORE PUSH1 0x20 ADD SWAP2 POP POP PUSH1 0x40 MLOAD DUP1 SWAP2 SUB SWAP1 RETURN JUMPDEST PUSH2 0x790 PUSH1 0x4 DUP1 CALLDATASIZE SUB PUSH1 0x40 DUP2 LT ISZERO PUSH2 0x770 JUMPI PUSH1 0x0 DUP1 REVERT JUMPDEST DUP2 ADD SWAP1 DUP1 DUP1 CALLDATALOAD SWAP1 PUSH1 0x20 ADD SWAP1 SWAP3 SWAP2 SWAP1 DUP1 CALLDATALOAD SWAP1 PUSH1 0x20 ADD SWAP1 SWAP3 SWAP2 SWAP1 POP POP POP PUSH2 0x1E86 JUMP JUMPDEST PUSH1 0x40 MLOAD DUP1 DUP3 DUP2 MSTORE PUSH1 0x20 ADD SWAP2 POP POP PUSH1 0x40 MLOAD DUP1 SWAP2 SUB SWAP1 RETURN JUMPDEST PUSH2 0x7FC PUSH1 0x4 DUP1 CALLDATASIZE SUB PUSH1 0x60 DUP2 LT ISZERO PUSH2 0x7BC JUMPI PUSH1 0x0 DUP1 REVERT JUMPDEST DUP2 ADD SWAP1 DUP1 DUP1 CALLDATALOAD SWAP1 PUSH1 0x20 ADD SWAP1 SWAP3 SWAP2 SWAP1 DUP1 CALLDATALOAD SWAP1 PUSH1 0x20 ADD SWAP1 SWAP3 SWAP2 SWAP1 DUP1 CALLDATALOAD PUSH20 0xFFFFFFFFFFFFFFFFFFFFFFFFFFFFFFFFFFFFFFFF AND SWAP1 PUSH1 0x20 ADD SWAP1 SWAP3 SWAP2 SWAP1 POP POP POP PUSH2 0x1EA3 JUMP JUMPDEST STOP JUMPDEST PUSH2 0x806 PUSH2 0x2346 JUMP JUMPDEST PUSH1 0x40 MLOAD DUP1 DUP3 DUP2 MSTORE PUSH1 0x20 ADD SWAP2 POP POP PUSH1 0x40 MLOAD DUP1 SWAP2 SUB SWAP1 RETURN JUMPDEST PUSH2 0x868 PUSH1 0x4 DUP1 CALLDATASIZE SUB PUSH1 0x40 DUP2 LT ISZERO PUSH2 0x832 JUMPI PUSH1 0x0 DUP1 REVERT JUMPDEST DUP2 ADD SWAP1 DUP1 DUP1 CALLDATALOAD SWAP1 PUSH1 0x20 ADD SWAP1 SWAP3 SWAP2 SWAP1 DUP1 CALLDATALOAD PUSH20 0xFFFFFFFFFFFFFFFFFFFFFFFFFFFFFFFFFFFFFFFF AND SWAP1 PUSH1 0x20 ADD SWAP1 SWAP3 SWAP2 SWAP1 POP POP POP PUSH2 0x2352 JUMP JUMPDEST PUSH1 0x40 MLOAD DUP1 DUP5 DUP2 MSTORE PUSH1 0x20 ADD DUP4 DUP2 MSTORE PUSH1 0x20 ADD DUP3 ISZERO ISZERO DUP2 MSTORE PUSH1 0x20 ADD SWAP4 POP POP POP POP PUSH1 0x40 MLOAD DUP1 SWAP2 SUB SWAP1 RETURN JUMPDEST PUSH2 0x896 PUSH2 0x2396 JUMP JUMPDEST PUSH1 0x40 MLOAD DUP1 DUP3 PUSH2 0xFFFF AND DUP2 MSTORE PUSH1 0x20 ADD SWAP2 POP POP PUSH1 0x40 MLOAD DUP1 SWAP2 SUB SWAP1 RETURN JUMPDEST PUSH2 0x8F2 PUSH1 0x4 DUP1 CALLDATASIZE SUB PUSH1 0x20 DUP2 LT ISZERO PUSH2 0x8C6 JUMPI PUSH1 0x0 DUP1 REVERT JUMPDEST DUP2 ADD SWAP1 DUP1 DUP1 CALLDATALOAD PUSH20 0xFFFFFFFFFFFFFFFFFFFFFFFFFFFFFFFFFFFFFFFF AND SWAP1 PUSH1 0x20 ADD SWAP1 SWAP3 SWAP2 SWAP1 POP POP POP PUSH2 0x239C JUMP JUMPDEST PUSH1 0x40 MLOAD DUP1 DUP3 DUP2 MSTORE PUSH1 0x20 ADD SWAP2 POP POP PUSH1 0x40 MLOAD DUP1 SWAP2 SUB SWAP1 RETURN JUMPDEST PUSH2 0x934 PUSH1 0x4 DUP1 CALLDATASIZE SUB PUSH1 0x20 DUP2 LT ISZERO PUSH2 0x91E JUMPI PUSH1 0x0 DUP1 REVERT JUMPDEST DUP2 ADD SWAP1 DUP1 DUP1 CALLDATALOAD SWAP1 PUSH1 0x20 ADD SWAP1 SWAP3 SWAP2 SWAP1 POP POP POP PUSH2 0x23B4 JUMP JUMPDEST STOP JUMPDEST PUSH2 0x93E PUSH2 0x2486 JUMP JUMPDEST PUSH1 0x40 MLOAD DUP1 DUP3 PUSH20 0xFFFFFFFFFFFFFFFFFFFFFFFFFFFFFFFFFFFFFFFF AND DUP2 MSTORE PUSH1 0x20 ADD SWAP2 POP POP PUSH1 0x40 MLOAD DUP1 SWAP2 SUB SWAP1 RETURN JUMPDEST PUSH2 0x996 PUSH1 0x4 DUP1 CALLDATASIZE SUB PUSH1 0x20 DUP2 LT ISZERO PUSH2 0x980 JUMPI PUSH1 0x0 DUP1 REVERT JUMPDEST DUP2 ADD SWAP1 DUP1 DUP1 CALLDATALOAD SWAP1 PUSH1 0x20 ADD SWAP1 SWAP3 SWAP2 SWAP1 POP POP POP PUSH2 0x24AC JUMP JUMPDEST PUSH1 0x40 MLOAD DUP1 DUP3 ISZERO ISZERO DUP2 MSTORE PUSH1 0x20 ADD SWAP2 POP POP PUSH1 0x40 MLOAD DUP1 SWAP2 SUB SWAP1 RETURN JUMPDEST PUSH2 0x9B6 PUSH2 0x24DC JUMP JUMPDEST PUSH1 0x40 MLOAD DUP1 DUP3 DUP2 MSTORE PUSH1 0x20 ADD SWAP2 POP POP PUSH1 0x40 MLOAD DUP1 SWAP2 SUB SWAP1 RETURN JUMPDEST PUSH2 0xA26 PUSH1 0x4 DUP1 CALLDATASIZE SUB PUSH1 0xA0 DUP2 LT ISZERO PUSH2 0x9E2 JUMPI PUSH1 0x0 DUP1 REVERT JUMPDEST DUP2 ADD SWAP1 DUP1 DUP1 CALLDATALOAD SWAP1 PUSH1 0x20 ADD SWAP1 SWAP3 SWAP2 SWAP1 DUP1 CALLDATALOAD SWAP1 PUSH1 0x20 ADD SWAP1 SWAP3 SWAP2 SWAP1 DUP1 CALLDATALOAD PUSH2 0xFFFF AND SWAP1 PUSH1 0x20 ADD SWAP1 SWAP3 SWAP2 SWAP1 DUP1 CALLDATALOAD ISZERO ISZERO SWAP1 PUSH1 0x20 ADD SWAP1 SWAP3 SWAP2 SWAP1 DUP1 CALLDATALOAD SWAP1 PUSH1 0x20 ADD SWAP1 SWAP3 SWAP2 SWAP1 POP POP POP PUSH2 0x24E2 JUMP JUMPDEST STOP JUMPDEST PUSH2 0xA6A PUSH1 0x4 DUP1 CALLDATASIZE SUB PUSH1 0x20 DUP2 LT ISZERO PUSH2 0xA3E JUMPI PUSH1 0x0 DUP1 REVERT JUMPDEST DUP2 ADD SWAP1 DUP1 DUP1 CALLDATALOAD PUSH20 0xFFFFFFFFFFFFFFFFFFFFFFFFFFFFFFFFFFFFFFFF AND SWAP1 PUSH1 0x20 ADD SWAP1 SWAP3 SWAP2 SWAP1 POP POP POP PUSH2 0x26EF JUMP JUMPDEST PUSH1 0x40 MLOAD DUP1 DUP3 ISZERO ISZERO DUP2 MSTORE PUSH1 0x20 ADD SWAP2 POP POP PUSH1 0x40 MLOAD DUP1 SWAP2 SUB SWAP1 RETURN JUMPDEST PUSH2 0xAC4 PUSH1 0x4 DUP1 CALLDATASIZE SUB PUSH1 0x20 DUP2 LT ISZERO PUSH2 0xA98 JUMPI PUSH1 0x0 DUP1 REVERT JUMPDEST DUP2 ADD SWAP1 DUP1 DUP1 CALLDATALOAD PUSH20 0xFFFFFFFFFFFFFFFFFFFFFFFFFFFFFFFFFFFFFFFF AND SWAP1 PUSH1 0x20 ADD SWAP1 SWAP3 SWAP2 SWAP1 POP POP POP PUSH2 0x270F JUMP JUMPDEST STOP JUMPDEST PUSH2 0xACE PUSH2 0x2913 JUMP JUMPDEST PUSH1 0x40 MLOAD DUP1 DUP3 DUP2 MSTORE PUSH1 0x20 ADD SWAP2 POP POP PUSH1 0x40 MLOAD DUP1 SWAP2 SUB SWAP1 RETURN JUMPDEST PUSH2 0xAEC PUSH2 0x2919 JUMP JUMPDEST PUSH1 0x40 MLOAD DUP1 DUP3 PUSH20 0xFFFFFFFFFFFFFFFFFFFFFFFFFFFFFFFFFFFFFFFF AND DUP2 MSTORE PUSH1 0x20 ADD SWAP2 POP POP PUSH1 0x40 MLOAD DUP1 SWAP2 SUB SWAP1 RETURN JUMPDEST PUSH2 0xB64 PUSH1 0x4 DUP1 CALLDATASIZE SUB PUSH1 0x40 DUP2 LT ISZERO PUSH2 0xB2E JUMPI PUSH1 0x0 DUP1 REVERT JUMPDEST DUP2 ADD SWAP1 DUP1 DUP1 CALLDATALOAD SWAP1 PUSH1 0x20 ADD SWAP1 SWAP3 SWAP2 SWAP1 DUP1 CALLDATALOAD PUSH20 0xFFFFFFFFFFFFFFFFFFFFFFFFFFFFFFFFFFFFFFFF AND SWAP1 PUSH1 0x20 ADD SWAP1 SWAP3 SWAP2 SWAP1 POP POP POP PUSH2 0x293F JUMP JUMPDEST PUSH1 0x40 MLOAD DUP1 DUP3 DUP2 MSTORE PUSH1 0x20 ADD SWAP2 POP POP PUSH1 0x40 MLOAD DUP1 SWAP2 SUB SWAP1 RETURN JUMPDEST PUSH2 0xBB0 PUSH1 0x4 DUP1 CALLDATASIZE SUB PUSH1 0x40 DUP2 LT ISZERO PUSH2 0xB90 JUMPI PUSH1 0x0 DUP1 REVERT JUMPDEST DUP2 ADD SWAP1 DUP1 DUP1 CALLDATALOAD SWAP1 PUSH1 0x20 ADD SWAP1 SWAP3 SWAP2 SWAP1 DUP1 CALLDATALOAD SWAP1 PUSH1 0x20 ADD SWAP1 SWAP3 SWAP2 SWAP1 POP POP POP PUSH2 0x2B85 JUMP JUMPDEST STOP JUMPDEST PUSH2 0xBBA PUSH2 0x2F8F JUMP JUMPDEST STOP JUMPDEST PUSH2 0xBFE PUSH1 0x4 DUP1 CALLDATASIZE SUB PUSH1 0x20 DUP2 LT ISZERO PUSH2 0xBD2 JUMPI PUSH1 0x0 DUP1 REVERT JUMPDEST DUP2 ADD SWAP1 DUP1 DUP1 CALLDATALOAD PUSH20 0xFFFFFFFFFFFFFFFFFFFFFFFFFFFFFFFFFFFFFFFF AND SWAP1 PUSH1 0x20 ADD SWAP1 SWAP3 SWAP2 SWAP1 POP POP POP PUSH2 0x31E5 JUMP JUMPDEST STOP JUMPDEST PUSH2 0xC70 PUSH1 0x4 DUP1 CALLDATASIZE SUB PUSH1 0xA0 DUP2 LT ISZERO PUSH2 0xC16 JUMPI PUSH1 0x0 DUP1 REVERT JUMPDEST DUP2 ADD SWAP1 DUP1 DUP1 CALLDATALOAD SWAP1 PUSH1 0x20 ADD SWAP1 SWAP3 SWAP2 SWAP1 DUP1 CALLDATALOAD PUSH20 0xFFFFFFFFFFFFFFFFFFFFFFFFFFFFFFFFFFFFFFFF AND SWAP1 PUSH1 0x20 ADD SWAP1 SWAP3 SWAP2 SWAP1 DUP1 CALLDATALOAD PUSH2 0xFFFF AND SWAP1 PUSH1 0x20 ADD SWAP1 SWAP3 SWAP2 SWAP1 DUP1 CALLDATALOAD ISZERO ISZERO SWAP1 PUSH1 0x20 ADD SWAP1 SWAP3 SWAP2 SWAP1 DUP1 CALLDATALOAD SWAP1 PUSH1 0x20 ADD SWAP1 SWAP3 SWAP2 SWAP1 POP POP POP PUSH2 0x32B9 JUMP JUMPDEST STOP JUMPDEST PUSH1 0x0 PUSH1 0x7 DUP1 SLOAD SWAP1 POP SWAP1 POP SWAP1 JUMP JUMPDEST PUSH1 0x7 DUP2 DUP2 SLOAD DUP2 LT PUSH2 0xC8C JUMPI INVALID JUMPDEST SWAP1 PUSH1 0x0 MSTORE PUSH1 0x20 PUSH1 0x0 KECCAK256 SWAP1 PUSH1 0x6 MUL ADD PUSH1 0x0 SWAP2 POP SWAP1 POP DUP1 PUSH1 0x0 ADD PUSH1 0x0 SWAP1 SLOAD SWAP1 PUSH2 0x100 EXP SWAP1 DIV PUSH20 0xFFFFFFFFFFFFFFFFFFFFFFFFFFFFFFFFFFFFFFFF AND SWAP1 DUP1 PUSH1 0x1 ADD SLOAD SWAP1 DUP1 PUSH1 0x2 ADD SLOAD SWAP1 DUP1 PUSH1 0x3 ADD SLOAD SWAP1 DUP1 PUSH1 0x4 ADD SLOAD SWAP1 DUP1 PUSH1 0x5 ADD PUSH1 0x0 SWAP1 SLOAD SWAP1 PUSH2 0x100 EXP SWAP1 DIV PUSH2 0xFFFF AND SWAP1 POP DUP7 JUMP JUMPDEST PUSH1 0x9 SLOAD DUP2 JUMP JUMPDEST PUSH1 0x0 DUP1 ISZERO ISZERO PUSH1 0xD PUSH1 0x0 DUP5 PUSH20 0xFFFFFFFFFFFFFFFFFFFFFFFFFFFFFFFFFFFFFFFF AND PUSH20 0xFFFFFFFFFFFFFFFFFFFFFFFFFFFFFFFFFFFFFFFF AND DUP2 MSTORE PUSH1 0x20 ADD SWAP1 DUP2 MSTORE PUSH1 0x20 ADD PUSH1 0x0 KECCAK256 PUSH1 0x0 SWAP1 SLOAD SWAP1 PUSH2 0x100 EXP SWAP1 DIV PUSH1 0xFF AND ISZERO ISZERO EQ ISZERO PUSH2 0xDA7 JUMPI PUSH1 0x40 MLOAD PUSH32 0x8C379A000000000000000000000000000000000000000000000000000000000 DUP2 MSTORE PUSH1 0x4 ADD DUP1 DUP1 PUSH1 0x20 ADD DUP3 DUP2 SUB DUP3 MSTORE PUSH1 0x21 DUP2 MSTORE PUSH1 0x20 ADD DUP1 PUSH2 0x48D6 PUSH1 0x21 SWAP2 CODECOPY PUSH1 0x40 ADD SWAP2 POP POP PUSH1 0x40 MLOAD DUP1 SWAP2 SUB SWAP1 REVERT JUMPDEST PUSH1 0xE PUSH1 0x0 DUP4 PUSH20 0xFFFFFFFFFFFFFFFFFFFFFFFFFFFFFFFFFFFFFFFF AND PUSH20 0xFFFFFFFFFFFFFFFFFFFFFFFFFFFFFFFFFFFFFFFF AND DUP2 MSTORE PUSH1 0x20 ADD SWAP1 DUP2 MSTORE PUSH1 0x20 ADD PUSH1 0x0 KECCAK256 SLOAD SWAP1 POP SWAP2 SWAP1 POP JUMP JUMPDEST PUSH2 0xDF6 PUSH2 0x3690 JUMP JUMPDEST PUSH20 0xFFFFFFFFFFFFFFFFFFFFFFFFFFFFFFFFFFFFFFFF AND PUSH1 0x0 DUP1 SLOAD SWAP1 PUSH2 0x100 EXP SWAP1 DIV PUSH20 0xFFFFFFFFFFFFFFFFFFFFFFFFFFFFFFFFFFFFFFFF AND PUSH20 0xFFFFFFFFFFFFFFFFFFFFFFFFFFFFFFFFFFFFFFFF AND EQ PUSH2 0xEB6 JUMPI PUSH1 0x40 MLOAD PUSH32 0x8C379A000000000000000000000000000000000000000000000000000000000 DUP2 MSTORE PUSH1 0x4 ADD DUP1 DUP1 PUSH1 0x20 ADD DUP3 DUP2 SUB DUP3 MSTORE PUSH1 0x20 DUP2 MSTORE PUSH1 0x20 ADD DUP1 PUSH32 0x4F776E61626C653A2063616C6C6572206973206E6F7420746865206F776E6572 DUP2 MSTORE POP PUSH1 0x20 ADD SWAP2 POP POP PUSH1 0x40 MLOAD DUP1 SWAP2 SUB SWAP1 REVERT JUMPDEST DUP1 NUMBER ADD PUSH1 0x6 DUP2 SWAP1 SSTORE POP POP JUMP JUMPDEST PUSH2 0x7D0 DUP2 JUMP JUMPDEST PUSH1 0x0 PUSH1 0xB PUSH1 0x0 DUP4 PUSH20 0xFFFFFFFFFFFFFFFFFFFFFFFFFFFFFFFFFFFFFFFF AND PUSH20 0xFFFFFFFFFFFFFFFFFFFFFFFFFFFFFFFFFFFFFFFF AND DUP2 MSTORE PUSH1 0x20 ADD SWAP1 DUP2 MSTORE PUSH1 0x20 ADD PUSH1 0x0 KECCAK256 PUSH1 0x0 SWAP1 SLOAD SWAP1 PUSH2 0x100 EXP SWAP1 DIV PUSH20 0xFFFFFFFFFFFFFFFFFFFFFFFFFFFFFFFFFFFFFFFF AND SWAP1 POP SWAP2 SWAP1 POP JUMP JUMPDEST PUSH1 0xC PUSH1 0x20 MSTORE DUP1 PUSH1 0x0 MSTORE PUSH1 0x40 PUSH1 0x0 KECCAK256 PUSH1 0x0 SWAP2 POP SWAP1 POP SLOAD DUP2 JUMP JUMPDEST PUSH1 0x5 PUSH1 0x0 SWAP1 SLOAD SWAP1 PUSH2 0x100 EXP SWAP1 DIV PUSH20 0xFFFFFFFFFFFFFFFFFFFFFFFFFFFFFFFFFFFFFFFF AND DUP2 JUMP JUMPDEST PUSH1 0x2 PUSH1 0x1 SLOAD EQ ISZERO PUSH2 0xFE8 JUMPI PUSH1 0x40 MLOAD PUSH32 0x8C379A000000000000000000000000000000000000000000000000000000000 DUP2 MSTORE PUSH1 0x4 ADD DUP1 DUP1 PUSH1 0x20 ADD DUP3 DUP2 SUB DUP3 MSTORE PUSH1 0x1F DUP2 MSTORE PUSH1 0x20 ADD DUP1 PUSH32 0x5265656E7472616E637947756172643A207265656E7472616E742063616C6C00 DUP2 MSTORE POP PUSH1 0x20 ADD SWAP2 POP POP PUSH1 0x40 MLOAD DUP1 SWAP2 SUB SWAP1 REVERT JUMPDEST PUSH1 0x2 PUSH1 0x1 DUP2 SWAP1 SSTORE POP PUSH1 0x0 PUSH1 0x7 DUP4 DUP2 SLOAD DUP2 LT PUSH2 0xFFF JUMPI INVALID JUMPDEST SWAP1 PUSH1 0x0 MSTORE PUSH1 0x20 PUSH1 0x0 KECCAK256 SWAP1 PUSH1 0x6 MUL ADD SWAP1 POP PUSH1 0x0 PUSH1 0x8 PUSH1 0x0 DUP6 DUP2 MSTORE PUSH1 0x20 ADD SWAP1 DUP2 MSTORE PUSH1 0x20 ADD PUSH1 0x0 KECCAK256 PUSH1 0x0 CALLER PUSH20 0xFFFFFFFFFFFFFFFFFFFFFFFFFFFFFFFFFFFFFFFF AND PUSH20 0xFFFFFFFFFFFFFFFFFFFFFFFFFFFFFFFFFFFFFFFF AND DUP2 MSTORE PUSH1 0x20 ADD SWAP1 DUP2 MSTORE PUSH1 0x20 ADD PUSH1 0x0 KECCAK256 SWAP1 POP DUP3 DUP2 PUSH1 0x0 ADD SLOAD LT ISZERO PUSH2 0x10DD JUMPI PUSH1 0x40 MLOAD PUSH32 0x8C379A000000000000000000000000000000000000000000000000000000000 DUP2 MSTORE PUSH1 0x4 ADD DUP1 DUP1 PUSH1 0x20 ADD DUP3 DUP2 SUB DUP3 MSTORE PUSH1 0x12 DUP2 MSTORE PUSH1 0x20 ADD DUP1 PUSH32 0x77697468647261773A206E6F7420676F6F640000000000000000000000000000 DUP2 MSTORE POP PUSH1 0x20 ADD SWAP2 POP POP PUSH1 0x40 MLOAD DUP1 SWAP2 SUB SWAP1 REVERT JUMPDEST PUSH2 0x10E6 DUP5 PUSH2 0x12BC JUMP JUMPDEST PUSH1 0x0 PUSH2 0x10F1 DUP6 PUSH2 0x24AC JUMP JUMPDEST SWAP1 POP PUSH1 0x0 PUSH2 0x113D DUP4 PUSH1 0x1 ADD SLOAD PUSH2 0x112F PUSH5 0xE8D4A51000 PUSH2 0x1121 DUP9 PUSH1 0x4 ADD SLOAD DUP9 PUSH1 0x0 ADD SLOAD PUSH2 0x3698 SWAP1 SWAP2 SWAP1 PUSH4 0xFFFFFFFF AND JUMP JUMPDEST PUSH2 0x371E SWAP1 SWAP2 SWAP1 PUSH4 0xFFFFFFFF AND JUMP JUMPDEST PUSH2 0x3768 SWAP1 SWAP2 SWAP1 PUSH4 0xFFFFFFFF AND JUMP JUMPDEST SWAP1 POP DUP2 DUP1 ISZERO PUSH2 0x114C JUMPI POP PUSH1 0x0 DUP2 GT JUMPDEST ISZERO PUSH2 0x11A0 JUMPI PUSH2 0x115B CALLER DUP3 PUSH2 0x37B2 JUMP JUMPDEST PUSH2 0x1165 CALLER DUP3 PUSH2 0x3A86 JUMP JUMPDEST PUSH2 0x1197 PUSH5 0xE8D4A51000 PUSH2 0x1189 DUP7 PUSH1 0x4 ADD SLOAD DUP7 PUSH1 0x0 ADD SLOAD PUSH2 0x3698 SWAP1 SWAP2 SWAP1 PUSH4 0xFFFFFFFF AND JUMP JUMPDEST PUSH2 0x371E SWAP1 SWAP2 SWAP1 PUSH4 0xFFFFFFFF AND JUMP JUMPDEST DUP4 PUSH1 0x1 ADD DUP2 SWAP1 SSTORE POP JUMPDEST PUSH1 0x0 DUP6 GT ISZERO PUSH2 0x1218 JUMPI PUSH2 0x11C0 DUP6 DUP5 PUSH1 0x0 ADD SLOAD PUSH2 0x3768 SWAP1 SWAP2 SWAP1 PUSH4 0xFFFFFFFF AND JUMP JUMPDEST DUP4 PUSH1 0x0 ADD DUP2 SWAP1 SSTORE POP PUSH2 0x1217 CALLER DUP7 DUP7 PUSH1 0x0 ADD PUSH1 0x0 SWAP1 SLOAD SWAP1 PUSH2 0x100 EXP SWAP1 DIV PUSH20 0xFFFFFFFFFFFFFFFFFFFFFFFFFFFFFFFFFFFFFFFF AND PUSH20 0xFFFFFFFFFFFFFFFFFFFFFFFFFFFFFFFFFFFFFFFF AND PUSH2 0x3C53 SWAP1 SWAP3 SWAP2 SWAP1 PUSH4 0xFFFFFFFF AND JUMP JUMPDEST JUMPDEST DUP6 CALLER PUSH20 0xFFFFFFFFFFFFFFFFFFFFFFFFFFFFFFFFFFFFFFFF AND PUSH32 0xF279E6A1F5E320CCA91135676D9CB6E44CA8A08C0B88342BCDB1144F6511B568 DUP8 PUSH1 0x40 MLOAD DUP1 DUP3 DUP2 MSTORE PUSH1 0x20 ADD SWAP2 POP POP PUSH1 0x40 MLOAD DUP1 SWAP2 SUB SWAP1 LOG3 POP POP POP POP PUSH1 0x1 DUP1 DUP2 SWAP1 SSTORE POP POP POP JUMP JUMPDEST PUSH1 0x10 PUSH1 0x0 SWAP1 SLOAD SWAP1 PUSH2 0x100 EXP SWAP1 DIV PUSH1 0xFF AND DUP2 JUMP JUMPDEST PUSH1 0xB PUSH1 0x20 MSTORE DUP1 PUSH1 0x0 MSTORE PUSH1 0x40 PUSH1 0x0 KECCAK256 PUSH1 0x0 SWAP2 POP SLOAD SWAP1 PUSH2 0x100 EXP SWAP1 DIV PUSH20 0xFFFFFFFFFFFFFFFFFFFFFFFFFFFFFFFFFFFFFFFF AND DUP2 JUMP JUMPDEST PUSH1 0x0 PUSH1 0x7 DUP3 DUP2 SLOAD DUP2 LT PUSH2 0x12CB JUMPI INVALID JUMPDEST SWAP1 PUSH1 0x0 MSTORE PUSH1 0x20 PUSH1 0x0 KECCAK256 SWAP1 PUSH1 0x6 MUL ADD SWAP1 POP DUP1 PUSH1 0x3 ADD SLOAD NUMBER GT PUSH2 0x12EC JUMPI POP PUSH2 0x1614 JUMP JUMPDEST PUSH1 0x0 DUP2 PUSH1 0x0 ADD PUSH1 0x0 SWAP1 SLOAD SWAP1 PUSH2 0x100 EXP SWAP1 DIV PUSH20 0xFFFFFFFFFFFFFFFFFFFFFFFFFFFFFFFFFFFFFFFF AND PUSH20 0xFFFFFFFFFFFFFFFFFFFFFFFFFFFFFFFFFFFFFFFF AND PUSH4 0x70A08231 ADDRESS PUSH1 0x40 MLOAD DUP3 PUSH4 0xFFFFFFFF AND PUSH1 0xE0 SHL DUP2 MSTORE PUSH1 0x4 ADD DUP1 DUP3 PUSH20 0xFFFFFFFFFFFFFFFFFFFFFFFFFFFFFFFFFFFFFFFF AND DUP2 MSTORE PUSH1 0x20 ADD SWAP2 POP POP PUSH1 0x20 PUSH1 0x40 MLOAD DUP1 DUP4 SUB DUP2 DUP7 DUP1 EXTCODESIZE ISZERO DUP1 ISZERO PUSH2 0x1379 JUMPI PUSH1 0x0 DUP1 REVERT JUMPDEST POP GAS STATICCALL ISZERO DUP1 ISZERO PUSH2 0x138D JUMPI RETURNDATASIZE PUSH1 0x0 DUP1 RETURNDATACOPY RETURNDATASIZE PUSH1 0x0 REVERT JUMPDEST POP POP POP POP PUSH1 0x40 MLOAD RETURNDATASIZE PUSH1 0x20 DUP2 LT ISZERO PUSH2 0x13A3 JUMPI PUSH1 0x0 DUP1 REVERT JUMPDEST DUP2 ADD SWAP1 DUP1 DUP1 MLOAD SWAP1 PUSH1 0x20 ADD SWAP1 SWAP3 SWAP2 SWAP1 POP POP POP SWAP1 POP PUSH1 0x0 DUP2 EQ DUP1 PUSH2 0x13C9 JUMPI POP PUSH1 0x0 DUP3 PUSH1 0x1 ADD SLOAD EQ JUMPDEST ISZERO PUSH2 0x13DE JUMPI NUMBER DUP3 PUSH1 0x3 ADD DUP2 SWAP1 SSTORE POP POP POP PUSH2 0x1614 JUMP JUMPDEST PUSH1 0x0 PUSH2 0x13EE DUP4 PUSH1 0x3 ADD SLOAD NUMBER PUSH2 0x1E86 JUMP JUMPDEST SWAP1 POP PUSH1 0x0 PUSH2 0x1431 PUSH1 0x9 SLOAD PUSH2 0x1423 DUP7 PUSH1 0x1 ADD SLOAD PUSH2 0x1415 PUSH1 0x4 SLOAD DUP8 PUSH2 0x3698 SWAP1 SWAP2 SWAP1 PUSH4 0xFFFFFFFF AND JUMP JUMPDEST PUSH2 0x3698 SWAP1 SWAP2 SWAP1 PUSH4 0xFFFFFFFF AND JUMP JUMPDEST PUSH2 0x371E SWAP1 SWAP2 SWAP1 PUSH4 0xFFFFFFFF AND JUMP JUMPDEST SWAP1 POP PUSH1 0x2 PUSH1 0x0 SWAP1 SLOAD SWAP1 PUSH2 0x100 EXP SWAP1 DIV PUSH20 0xFFFFFFFFFFFFFFFFFFFFFFFFFFFFFFFFFFFFFFFF AND PUSH20 0xFFFFFFFFFFFFFFFFFFFFFFFFFFFFFFFFFFFFFFFF AND PUSH4 0x40C10F19 PUSH1 0x3 PUSH1 0x0 SWAP1 SLOAD SWAP1 PUSH2 0x100 EXP SWAP1 DIV PUSH20 0xFFFFFFFFFFFFFFFFFFFFFFFFFFFFFFFFFFFFFFFF AND PUSH2 0x14A8 PUSH1 0xA DUP6 PUSH2 0x371E SWAP1 SWAP2 SWAP1 PUSH4 0xFFFFFFFF AND JUMP JUMPDEST PUSH1 0x40 MLOAD DUP4 PUSH4 0xFFFFFFFF AND PUSH1 0xE0 SHL DUP2 MSTORE PUSH1 0x4 ADD DUP1 DUP4 PUSH20 0xFFFFFFFFFFFFFFFFFFFFFFFFFFFFFFFFFFFFFFFF AND DUP2 MSTORE PUSH1 0x20 ADD DUP3 DUP2 MSTORE PUSH1 0x20 ADD SWAP3 POP POP POP PUSH1 0x0 PUSH1 0x40 MLOAD DUP1 DUP4 SUB DUP2 PUSH1 0x0 DUP8 DUP1 EXTCODESIZE ISZERO DUP1 ISZERO PUSH2 0x14FB JUMPI PUSH1 0x0 DUP1 REVERT JUMPDEST POP GAS CALL ISZERO DUP1 ISZERO PUSH2 0x150F JUMPI RETURNDATASIZE PUSH1 0x0 DUP1 RETURNDATACOPY RETURNDATASIZE PUSH1 0x0 REVERT JUMPDEST POP POP POP POP PUSH1 0x2 PUSH1 0x0 SWAP1 SLOAD SWAP1 PUSH2 0x100 EXP SWAP1 DIV PUSH20 0xFFFFFFFFFFFFFFFFFFFFFFFFFFFFFFFFFFFFFFFF AND PUSH20 0xFFFFFFFFFFFFFFFFFFFFFFFFFFFFFFFFFFFFFFFF AND PUSH4 0x40C10F19 ADDRESS DUP4 PUSH1 0x40 MLOAD DUP4 PUSH4 0xFFFFFFFF AND PUSH1 0xE0 SHL DUP2 MSTORE PUSH1 0x4 ADD DUP1 DUP4 PUSH20 0xFFFFFFFFFFFFFFFFFFFFFFFFFFFFFFFFFFFFFFFF AND DUP2 MSTORE PUSH1 0x20 ADD DUP3 DUP2 MSTORE PUSH1 0x20 ADD SWAP3 POP POP POP PUSH1 0x0 PUSH1 0x40 MLOAD DUP1 DUP4 SUB DUP2 PUSH1 0x0 DUP8 DUP1 EXTCODESIZE ISZERO DUP1 ISZERO PUSH2 0x15A6 JUMPI PUSH1 0x0 DUP1 REVERT JUMPDEST POP GAS CALL ISZERO DUP1 ISZERO PUSH2 0x15BA JUMPI RETURNDATASIZE PUSH1 0x0 DUP1 RETURNDATACOPY RETURNDATASIZE PUSH1 0x0 REVERT JUMPDEST POP POP POP POP PUSH2 0x15FE PUSH2 0x15EB DUP5 PUSH2 0x15DD PUSH5 0xE8D4A51000 DUP6 PUSH2 0x3698 SWAP1 SWAP2 SWAP1 PUSH4 0xFFFFFFFF AND JUMP JUMPDEST PUSH2 0x371E SWAP1 SWAP2 SWAP1 PUSH4 0xFFFFFFFF AND JUMP JUMPDEST DUP6 PUSH1 0x4 ADD SLOAD PUSH2 0x3CF5 SWAP1 SWAP2 SWAP1 PUSH4 0xFFFFFFFF AND JUMP JUMPDEST DUP5 PUSH1 0x4 ADD DUP2 SWAP1 SSTORE POP NUMBER DUP5 PUSH1 0x3 ADD DUP2 SWAP1 SSTORE POP POP POP POP POP JUMPDEST POP JUMP JUMPDEST PUSH1 0x2 PUSH1 0x1 SLOAD EQ ISZERO PUSH2 0x1690 JUMPI PUSH1 0x40 MLOAD PUSH32 0x8C379A000000000000000000000000000000000000000000000000000000000 DUP2 MSTORE PUSH1 0x4 ADD DUP1 DUP1 PUSH1 0x20 ADD DUP3 DUP2 SUB DUP3 MSTORE PUSH1 0x1F DUP2 MSTORE PUSH1 0x20 ADD DUP1 PUSH32 0x5265656E7472616E637947756172643A207265656E7472616E742063616C6C00 DUP2 MSTORE POP PUSH1 0x20 ADD SWAP2 POP POP PUSH1 0x40 MLOAD DUP1 SWAP2 SUB SWAP1 REVERT JUMPDEST PUSH1 0x2 PUSH1 0x1 DUP2 SWAP1 SSTORE POP PUSH1 0x0 PUSH1 0x7 DUP3 DUP2 SLOAD DUP2 LT PUSH2 0x16A7 JUMPI INVALID JUMPDEST SWAP1 PUSH1 0x0 MSTORE PUSH1 0x20 PUSH1 0x0 KECCAK256 SWAP1 PUSH1 0x6 MUL ADD SWAP1 POP PUSH1 0x0 PUSH1 0x8 PUSH1 0x0 DUP5 DUP2 MSTORE PUSH1 0x20 ADD SWAP1 DUP2 MSTORE PUSH1 0x20 ADD PUSH1 0x0 KECCAK256 PUSH1 0x0 CALLER PUSH20 0xFFFFFFFFFFFFFFFFFFFFFFFFFFFFFFFFFFFFFFFF AND PUSH20 0xFFFFFFFFFFFFFFFFFFFFFFFFFFFFFFFFFFFFFFFF AND DUP2 MSTORE PUSH1 0x20 ADD SWAP1 DUP2 MSTORE PUSH1 0x20 ADD PUSH1 0x0 KECCAK256 SWAP1 POP PUSH2 0x175E CALLER DUP3 PUSH1 0x0 ADD SLOAD DUP5 PUSH1 0x0 ADD PUSH1 0x0 SWAP1 SLOAD SWAP1 PUSH2 0x100 EXP SWAP1 DIV PUSH20 0xFFFFFFFFFFFFFFFFFFFFFFFFFFFFFFFFFFFFFFFF AND PUSH20 0xFFFFFFFFFFFFFFFFFFFFFFFFFFFFFFFFFFFFFFFF AND PUSH2 0x3C53 SWAP1 SWAP3 SWAP2 SWAP1 PUSH4 0xFFFFFFFF AND JUMP JUMPDEST DUP3 CALLER PUSH20 0xFFFFFFFFFFFFFFFFFFFFFFFFFFFFFFFFFFFFFFFF AND PUSH32 0xBB757047C2B5F3974FE26B7C10F732E7BCE710B0952A71082702781E62AE0595 DUP4 PUSH1 0x0 ADD SLOAD PUSH1 0x40 MLOAD DUP1 DUP3 DUP2 MSTORE PUSH1 0x20 ADD SWAP2 POP POP PUSH1 0x40 MLOAD DUP1 SWAP2 SUB SWAP1 LOG3 PUSH1 0x0 DUP2 PUSH1 0x0 ADD DUP2 SWAP1 SSTORE POP PUSH1 0x0 DUP2 PUSH1 0x1 ADD DUP2 SWAP1 SSTORE POP POP POP PUSH1 0x1 DUP1 DUP2 SWAP1 SSTORE POP POP JUMP JUMPDEST PUSH7 0xB1A2BC2EC50000 DUP2 JUMP JUMPDEST PUSH1 0x0 PUSH1 0x7 DUP1 SLOAD SWAP1 POP SWAP1 POP PUSH1 0x0 JUMPDEST DUP2 DUP2 LT ISZERO PUSH2 0x1805 JUMPI PUSH2 0x17FA DUP2 PUSH2 0x12BC JUMP JUMPDEST DUP1 PUSH1 0x1 ADD SWAP1 POP PUSH2 0x17E9 JUMP JUMPDEST POP POP JUMP JUMPDEST PUSH2 0x1811 PUSH2 0x3690 JUMP JUMPDEST PUSH20 0xFFFFFFFFFFFFFFFFFFFFFFFFFFFFFFFFFFFFFFFF AND PUSH1 0x0 DUP1 SLOAD SWAP1 PUSH2 0x100 EXP SWAP1 DIV PUSH20 0xFFFFFFFFFFFFFFFFFFFFFFFFFFFFFFFFFFFFFFFF AND PUSH20 0xFFFFFFFFFFFFFFFFFFFFFFFFFFFFFFFFFFFFFFFF AND EQ PUSH2 0x18D1 JUMPI PUSH1 0x40 MLOAD PUSH32 0x8C379A000000000000000000000000000000000000000000000000000000000 DUP2 MSTORE PUSH1 0x4 ADD DUP1 DUP1 PUSH1 0x20 ADD DUP3 DUP2 SUB DUP3 MSTORE PUSH1 0x20 DUP2 MSTORE PUSH1 0x20 ADD DUP1 PUSH32 0x4F776E61626C653A2063616C6C6572206973206E6F7420746865206F776E6572 DUP2 MSTORE POP PUSH1 0x20 ADD SWAP2 POP POP PUSH1 0x40 MLOAD DUP1 SWAP2 SUB SWAP1 REVERT JUMPDEST PUSH2 0x7D0 PUSH2 0xFFFF AND DUP2 GT ISZERO PUSH2 0x1930 JUMPI PUSH1 0x40 MLOAD PUSH32 0x8C379A000000000000000000000000000000000000000000000000000000000 DUP2 MSTORE PUSH1 0x4 ADD DUP1 DUP1 PUSH1 0x20 ADD DUP3 DUP2 SUB DUP3 MSTORE PUSH1 0x3A DUP2 MSTORE PUSH1 0x20 ADD DUP1 PUSH2 0x4723 PUSH1 0x3A SWAP2 CODECOPY PUSH1 0x40 ADD SWAP2 POP POP PUSH1 0x40 MLOAD DUP1 SWAP2 SUB SWAP1 REVERT JUMPDEST PUSH1 0xA SLOAD DUP2 EQ ISZERO PUSH2 0x198B JUMPI PUSH1 0x40 MLOAD PUSH32 0x8C379A000000000000000000000000000000000000000000000000000000000 DUP2 MSTORE PUSH1 0x4 ADD DUP1 DUP1 PUSH1 0x20 ADD DUP3 DUP2 SUB DUP3 MSTORE PUSH1 0x28 DUP2 MSTORE PUSH1 0x20 ADD DUP1 PUSH2 0x485C PUSH1 0x28 SWAP2 CODECOPY PUSH1 0x40 ADD SWAP2 POP POP PUSH1 0x40 MLOAD DUP1 SWAP2 SUB SWAP1 REVERT JUMPDEST PUSH1 0x0 PUSH1 0xA SLOAD SWAP1 POP DUP2 PUSH1 0xA DUP2 SWAP1 SSTORE POP PUSH32 0x3282B692BFEBF5F35B198A229212CF532C72099026AB54C4B8665382D1086B3F DUP2 DUP4 PUSH1 0x40 MLOAD DUP1 DUP4 DUP2 MSTORE PUSH1 0x20 ADD DUP3 DUP2 MSTORE PUSH1 0x20 ADD SWAP3 POP POP POP PUSH1 0x40 MLOAD DUP1 SWAP2 SUB SWAP1 LOG1 POP POP JUMP JUMPDEST PUSH1 0x4 SLOAD DUP2 JUMP JUMPDEST PUSH1 0xA SLOAD DUP2 JUMP JUMPDEST PUSH1 0xF SLOAD DUP2 JUMP JUMPDEST PUSH2 0x19F6 PUSH2 0x3690 JUMP JUMPDEST PUSH20 0xFFFFFFFFFFFFFFFFFFFFFFFFFFFFFFFFFFFFFFFF AND PUSH1 0x0 DUP1 SLOAD SWAP1 PUSH2 0x100 EXP SWAP1 DIV PUSH20 0xFFFFFFFFFFFFFFFFFFFFFFFFFFFFFFFFFFFFFFFF AND PUSH20 0xFFFFFFFFFFFFFFFFFFFFFFFFFFFFFFFFFFFFFFFF AND EQ PUSH2 0x1AB6 JUMPI PUSH1 0x40 MLOAD PUSH32 0x8C379A000000000000000000000000000000000000000000000000000000000 DUP2 MSTORE PUSH1 0x4 ADD DUP1 DUP1 PUSH1 0x20 ADD DUP3 DUP2 SUB DUP3 MSTORE PUSH1 0x20 DUP2 MSTORE PUSH1 0x20 ADD DUP1 PUSH32 0x4F776E61626C653A2063616C6C6572206973206E6F7420746865206F776E6572 DUP2 MSTORE POP PUSH1 0x20 ADD SWAP2 POP POP PUSH1 0x40 MLOAD DUP1 SWAP2 SUB SWAP1 REVERT JUMPDEST PUSH1 0x0 PUSH20 0xFFFFFFFFFFFFFFFFFFFFFFFFFFFFFFFFFFFFFFFF AND PUSH1 0x0 DUP1 SLOAD SWAP1 PUSH2 0x100 EXP SWAP1 DIV PUSH20 0xFFFFFFFFFFFFFFFFFFFFFFFFFFFFFFFFFFFFFFFF AND PUSH20 0xFFFFFFFFFFFFFFFFFFFFFFFFFFFFFFFFFFFFFFFF AND PUSH32 0x8BE0079C531659141344CD1FD0A4F28419497F9722A3DAAFE3B4186F6B6457E0 PUSH1 0x40 MLOAD PUSH1 0x40 MLOAD DUP1 SWAP2 SUB SWAP1 LOG3 PUSH1 0x0 DUP1 PUSH1 0x0 PUSH2 0x100 EXP DUP2 SLOAD DUP2 PUSH20 0xFFFFFFFFFFFFFFFFFFFFFFFFFFFFFFFFFFFFFFFF MUL NOT AND SWAP1 DUP4 PUSH20 0xFFFFFFFFFFFFFFFFFFFFFFFFFFFFFFFFFFFFFFFF AND MUL OR SWAP1 SSTORE POP JUMP JUMPDEST PUSH2 0x1B7C PUSH2 0x3690 JUMP JUMPDEST PUSH20 0xFFFFFFFFFFFFFFFFFFFFFFFFFFFFFFFFFFFFFFFF AND PUSH1 0x0 DUP1 SLOAD SWAP1 PUSH2 0x100 EXP SWAP1 DIV PUSH20 0xFFFFFFFFFFFFFFFFFFFFFFFFFFFFFFFFFFFFFFFF AND PUSH20 0xFFFFFFFFFFFFFFFFFFFFFFFFFFFFFFFFFFFFFFFF AND EQ PUSH2 0x1C3C JUMPI PUSH1 0x40 MLOAD PUSH32 0x8C379A000000000000000000000000000000000000000000000000000000000 DUP2 MSTORE PUSH1 0x4 ADD DUP1 DUP1 PUSH1 0x20 ADD DUP3 DUP2 SUB DUP3 MSTORE PUSH1 0x20 DUP2 MSTORE PUSH1 0x20 ADD DUP1 PUSH32 0x4F776E61626C653A2063616C6C6572206973206E6F7420746865206F776E6572 DUP2 MSTORE POP PUSH1 0x20 ADD SWAP2 POP POP PUSH1 0x40 MLOAD DUP1 SWAP2 SUB SWAP1 REVERT JUMPDEST DUP1 PUSH1 0x10 PUSH1 0x0 PUSH2 0x100 EXP DUP2 SLOAD DUP2 PUSH1 0xFF MUL NOT AND SWAP1 DUP4 ISZERO ISZERO MUL OR SWAP1 SSTORE POP POP JUMP JUMPDEST PUSH1 0x0 PUSH20 0xFFFFFFFFFFFFFFFFFFFFFFFFFFFFFFFFFFFFFFFF AND DUP2 PUSH20 0xFFFFFFFFFFFFFFFFFFFFFFFFFFFFFFFFFFFFFFFF AND EQ ISZERO PUSH2 0x1CFC JUMPI PUSH1 0x40 MLOAD PUSH32 0x8C379A000000000000000000000000000000000000000000000000000000000 DUP2 MSTORE PUSH1 0x4 ADD DUP1 DUP1 PUSH1 0x20 ADD DUP3 DUP2 SUB DUP3 MSTORE PUSH1 0x1E DUP2 MSTORE PUSH1 0x20 ADD DUP1 PUSH32 0x736574466565416464726573733A20696E76616C696420616464726573730000 DUP2 MSTORE POP PUSH1 0x20 ADD SWAP2 POP POP PUSH1 0x40 MLOAD DUP1 SWAP2 SUB SWAP1 REVERT JUMPDEST PUSH1 0x5 PUSH1 0x0 SWAP1 SLOAD SWAP1 PUSH2 0x100 EXP SWAP1 DIV PUSH20 0xFFFFFFFFFFFFFFFFFFFFFFFFFFFFFFFFFFFFFFFF AND PUSH20 0xFFFFFFFFFFFFFFFFFFFFFFFFFFFFFFFFFFFFFFFF AND CALLER PUSH20 0xFFFFFFFFFFFFFFFFFFFFFFFFFFFFFFFFFFFFFFFF AND EQ PUSH2 0x1DBF JUMPI PUSH1 0x40 MLOAD PUSH32 0x8C379A000000000000000000000000000000000000000000000000000000000 DUP2 MSTORE PUSH1 0x4 ADD DUP1 DUP1 PUSH1 0x20 ADD DUP3 DUP2 SUB DUP3 MSTORE PUSH1 0x18 DUP2 MSTORE PUSH1 0x20 ADD DUP1 PUSH32 0x736574466565416464726573733A20464F5242494444454E0000000000000000 DUP2 MSTORE POP PUSH1 0x20 ADD SWAP2 POP POP PUSH1 0x40 MLOAD DUP1 SWAP2 SUB SWAP1 REVERT JUMPDEST DUP1 PUSH1 0x5 PUSH1 0x0 PUSH2 0x100 EXP DUP2 SLOAD DUP2 PUSH20 0xFFFFFFFFFFFFFFFFFFFFFFFFFFFFFFFFFFFFFFFF MUL NOT AND SWAP1 DUP4 PUSH20 0xFFFFFFFFFFFFFFFFFFFFFFFFFFFFFFFFFFFFFFFF AND MUL OR SWAP1 SSTORE POP DUP1 PUSH20 0xFFFFFFFFFFFFFFFFFFFFFFFFFFFFFFFFFFFFFFFF AND CALLER PUSH20 0xFFFFFFFFFFFFFFFFFFFFFFFFFFFFFFFFFFFFFFFF AND PUSH32 0xD44190ACF9D04BDB5D3A1AAFFF7E6DEE8B40B93DFB8C5D3F0EEA4B9F4539C3F7 PUSH1 0x40 MLOAD PUSH1 0x40 MLOAD DUP1 SWAP2 SUB SWAP1 LOG3 POP JUMP JUMPDEST PUSH1 0x0 DUP1 PUSH1 0x0 SWAP1 SLOAD SWAP1 PUSH2 0x100 EXP SWAP1 DIV PUSH20 0xFFFFFFFFFFFFFFFFFFFFFFFFFFFFFFFFFFFFFFFF AND SWAP1 POP SWAP1 JUMP JUMPDEST PUSH1 0x0 PUSH2 0x1E9B DUP4 DUP4 PUSH2 0x3768 SWAP1 SWAP2 SWAP1 PUSH4 0xFFFFFFFF AND JUMP JUMPDEST SWAP1 POP SWAP3 SWAP2 POP POP JUMP JUMPDEST PUSH1 0x2 PUSH1 0x1 SLOAD EQ ISZERO PUSH2 0x1F1C JUMPI PUSH1 0x40 MLOAD PUSH32 0x8C379A000000000000000000000000000000000000000000000000000000000 DUP2 MSTORE PUSH1 0x4 ADD DUP1 DUP1 PUSH1 0x20 ADD DUP3 DUP2 SUB DUP3 MSTORE PUSH1 0x1F DUP2 MSTORE PUSH1 0x20 ADD DUP1 PUSH32 0x5265656E7472616E637947756172643A207265656E7472616E742063616C6C00 DUP2 MSTORE POP PUSH1 0x20 ADD SWAP2 POP POP PUSH1 0x40 MLOAD DUP1 SWAP2 SUB SWAP1 REVERT JUMPDEST PUSH1 0x2 PUSH1 0x1 DUP2 SWAP1 SSTORE POP DUP1 PUSH20 0xFFFFFFFFFFFFFFFFFFFFFFFFFFFFFFFFFFFFFFFF AND DUP2 PUSH20 0xFFFFFFFFFFFFFFFFFFFFFFFFFFFFFFFFFFFFFFFF AND EQ PUSH2 0x1FA8 JUMPI PUSH1 0x40 MLOAD PUSH32 0x8C379A000000000000000000000000000000000000000000000000000000000 DUP2 MSTORE PUSH1 0x4 ADD DUP1 DUP1 PUSH1 0x20 ADD DUP3 DUP2 SUB DUP3 MSTORE PUSH1 0x21 DUP2 MSTORE PUSH1 0x20 ADD DUP1 PUSH2 0x47CF PUSH1 0x21 SWAP2 CODECOPY PUSH1 0x40 ADD SWAP2 POP POP PUSH1 0x40 MLOAD DUP1 SWAP2 SUB SWAP1 REVERT JUMPDEST PUSH1 0x0 PUSH1 0x7 DUP5 DUP2 SLOAD DUP2 LT PUSH2 0x1FB7 JUMPI INVALID JUMPDEST SWAP1 PUSH1 0x0 MSTORE PUSH1 0x20 PUSH1 0x0 KECCAK256 SWAP1 PUSH1 0x6 MUL ADD SWAP1 POP PUSH1 0x0 PUSH1 0x8 PUSH1 0x0 DUP7 DUP2 MSTORE PUSH1 0x20 ADD SWAP1 DUP2 MSTORE PUSH1 0x20 ADD PUSH1 0x0 KECCAK256 PUSH1 0x0 CALLER PUSH20 0xFFFFFFFFFFFFFFFFFFFFFFFFFFFFFFFFFFFFFFFF AND PUSH20 0xFFFFFFFFFFFFFFFFFFFFFFFFFFFFFFFFFFFFFFFF AND DUP2 MSTORE PUSH1 0x20 ADD SWAP1 DUP2 MSTORE PUSH1 0x20 ADD PUSH1 0x0 KECCAK256 SWAP1 POP PUSH2 0x2024 DUP6 PUSH2 0x12BC JUMP JUMPDEST PUSH1 0x0 DUP2 PUSH1 0x0 ADD SLOAD GT ISZERO PUSH2 0x20EE JUMPI PUSH1 0x0 PUSH2 0x207B DUP3 PUSH1 0x1 ADD SLOAD PUSH2 0x206D PUSH5 0xE8D4A51000 PUSH2 0x205F DUP8 PUSH1 0x4 ADD SLOAD DUP8 PUSH1 0x0 ADD SLOAD PUSH2 0x3698 SWAP1 SWAP2 SWAP1 PUSH4 0xFFFFFFFF AND JUMP JUMPDEST PUSH2 0x371E SWAP1 SWAP2 SWAP1 PUSH4 0xFFFFFFFF AND JUMP JUMPDEST PUSH2 0x3768 SWAP1 SWAP2 SWAP1 PUSH4 0xFFFFFFFF AND JUMP JUMPDEST SWAP1 POP PUSH1 0x0 PUSH2 0x2088 DUP8 PUSH2 0x24AC JUMP JUMPDEST SWAP1 POP DUP1 DUP1 ISZERO PUSH2 0x2097 JUMPI POP PUSH1 0x0 DUP3 GT JUMPDEST ISZERO PUSH2 0x20EB JUMPI PUSH2 0x20A6 CALLER DUP4 PUSH2 0x37B2 JUMP JUMPDEST PUSH2 0x20B0 CALLER DUP4 PUSH2 0x3A86 JUMP JUMPDEST PUSH2 0x20E2 PUSH5 0xE8D4A51000 PUSH2 0x20D4 DUP7 PUSH1 0x4 ADD SLOAD DUP7 PUSH1 0x0 ADD SLOAD PUSH2 0x3698 SWAP1 SWAP2 SWAP1 PUSH4 0xFFFFFFFF AND JUMP JUMPDEST PUSH2 0x371E SWAP1 SWAP2 SWAP1 PUSH4 0xFFFFFFFF AND JUMP JUMPDEST DUP4 PUSH1 0x1 ADD DUP2 SWAP1 SSTORE POP JUMPDEST POP POP JUMPDEST PUSH1 0x0 DUP5 GT ISZERO PUSH2 0x227B JUMPI PUSH2 0x2101 CALLER DUP5 PUSH2 0x3D7D JUMP JUMPDEST PUSH2 0x2152 CALLER ADDRESS DUP7 DUP6 PUSH1 0x0 ADD PUSH1 0x0 SWAP1 SLOAD SWAP1 PUSH2 0x100 EXP SWAP1 DIV PUSH20 0xFFFFFFFFFFFFFFFFFFFFFFFFFFFFFFFFFFFFFFFF AND PUSH20 0xFFFFFFFFFFFFFFFFFFFFFFFFFFFFFFFFFFFFFFFF AND PUSH2 0x3FE4 SWAP1 SWAP4 SWAP3 SWAP2 SWAP1 PUSH4 0xFFFFFFFF AND JUMP JUMPDEST PUSH1 0x0 DUP3 PUSH1 0x5 ADD PUSH1 0x0 SWAP1 SLOAD SWAP1 PUSH2 0x100 EXP SWAP1 DIV PUSH2 0xFFFF AND PUSH2 0xFFFF AND GT ISZERO PUSH2 0x225A JUMPI PUSH1 0x0 PUSH2 0x21B0 PUSH2 0x2710 PUSH2 0x21A2 DUP6 PUSH1 0x5 ADD PUSH1 0x0 SWAP1 SLOAD SWAP1 PUSH2 0x100 EXP SWAP1 DIV PUSH2 0xFFFF AND PUSH2 0xFFFF AND DUP9 PUSH2 0x3698 SWAP1 SWAP2 SWAP1 PUSH4 0xFFFFFFFF AND JUMP JUMPDEST PUSH2 0x371E SWAP1 SWAP2 SWAP1 PUSH4 0xFFFFFFFF AND JUMP JUMPDEST SWAP1 POP PUSH2 0x21DB DUP2 PUSH2 0x21CD DUP8 DUP6 PUSH1 0x0 ADD SLOAD PUSH2 0x3CF5 SWAP1 SWAP2 SWAP1 PUSH4 0xFFFFFFFF AND JUMP JUMPDEST PUSH2 0x3768 SWAP1 SWAP2 SWAP1 PUSH4 0xFFFFFFFF AND JUMP JUMPDEST DUP3 PUSH1 0x0 ADD DUP2 SWAP1 SSTORE POP PUSH2 0x2254 PUSH1 0x5 PUSH1 0x0 SWAP1 SLOAD SWAP1 PUSH2 0x100 EXP SWAP1 DIV PUSH20 0xFFFFFFFFFFFFFFFFFFFFFFFFFFFFFFFFFFFFFFFF AND DUP3 DUP6 PUSH1 0x0 ADD PUSH1 0x0 SWAP1 SLOAD SWAP1 PUSH2 0x100 EXP SWAP1 DIV PUSH20 0xFFFFFFFFFFFFFFFFFFFFFFFFFFFFFFFFFFFFFFFF AND PUSH20 0xFFFFFFFFFFFFFFFFFFFFFFFFFFFFFFFFFFFFFFFF AND PUSH2 0x3C53 SWAP1 SWAP3 SWAP2 SWAP1 PUSH4 0xFFFFFFFF AND JUMP JUMPDEST POP PUSH2 0x227A JUMP JUMPDEST PUSH2 0x2271 DUP5 DUP3 PUSH1 0x0 ADD SLOAD PUSH2 0x3CF5 SWAP1 SWAP2 SWAP1 PUSH4 0xFFFFFFFF AND JUMP JUMPDEST DUP2 PUSH1 0x0 ADD DUP2 SWAP1 SSTORE POP JUMPDEST JUMPDEST DUP1 PUSH1 0x2 ADD PUSH1 0x0 SWAP1 SLOAD SWAP1 PUSH2 0x100 EXP SWAP1 DIV PUSH1 0xFF AND PUSH2 0x22E9 JUMPI PUSH2 0x22C3 PUSH5 0xE8D4A51000 PUSH2 0x22B5 DUP5 PUSH1 0x4 ADD SLOAD DUP5 PUSH1 0x0 ADD SLOAD PUSH2 0x3698 SWAP1 SWAP2 SWAP1 PUSH4 0xFFFFFFFF AND JUMP JUMPDEST PUSH2 0x371E SWAP1 SWAP2 SWAP1 PUSH4 0xFFFFFFFF AND JUMP JUMPDEST DUP2 PUSH1 0x1 ADD DUP2 SWAP1 SSTORE POP PUSH1 0x1 DUP2 PUSH1 0x2 ADD PUSH1 0x0 PUSH2 0x100 EXP DUP2 SLOAD DUP2 PUSH1 0xFF MUL NOT AND SWAP1 DUP4 ISZERO ISZERO MUL OR SWAP1 SSTORE POP JUMPDEST DUP5 CALLER PUSH20 0xFFFFFFFFFFFFFFFFFFFFFFFFFFFFFFFFFFFFFFFF AND PUSH32 0x90890809C654F11D6E72A28FA60149770A0D11EC6C92319D6CEB2BB0A4EA1A15 DUP7 PUSH1 0x40 MLOAD DUP1 DUP3 DUP2 MSTORE PUSH1 0x20 ADD SWAP2 POP POP PUSH1 0x40 MLOAD DUP1 SWAP2 SUB SWAP1 LOG3 POP POP PUSH1 0x1 DUP1 DUP2 SWAP1 SSTORE POP POP POP POP JUMP JUMPDEST PUSH8 0x6F05B59D3B20000 DUP2 JUMP JUMPDEST PUSH1 0x8 PUSH1 0x20 MSTORE DUP2 PUSH1 0x0 MSTORE PUSH1 0x40 PUSH1 0x0 KECCAK256 PUSH1 0x20 MSTORE DUP1 PUSH1 0x0 MSTORE PUSH1 0x40 PUSH1 0x0 KECCAK256 PUSH1 0x0 SWAP2 POP SWAP2 POP POP DUP1 PUSH1 0x0 ADD SLOAD SWAP1 DUP1 PUSH1 0x1 ADD SLOAD SWAP1 DUP1 PUSH1 0x2 ADD PUSH1 0x0 SWAP1 SLOAD SWAP1 PUSH2 0x100 EXP SWAP1 DIV PUSH1 0xFF AND SWAP1 POP DUP4 JUMP JUMPDEST PUSH2 0x3E8 DUP2 JUMP JUMPDEST PUSH1 0xE PUSH1 0x20 MSTORE DUP1 PUSH1 0x0 MSTORE PUSH1 0x40 PUSH1 0x0 KECCAK256 PUSH1 0x0 SWAP2 POP SWAP1 POP SLOAD DUP2 JUMP JUMPDEST PUSH2 0x23BC PUSH2 0x3690 JUMP JUMPDEST PUSH20 0xFFFFFFFFFFFFFFFFFFFFFFFFFFFFFFFFFFFFFFFF AND PUSH1 0x0 DUP1 SLOAD SWAP1 PUSH2 0x100 EXP SWAP1 DIV PUSH20 0xFFFFFFFFFFFFFFFFFFFFFFFFFFFFFFFFFFFFFFFF AND PUSH20 0xFFFFFFFFFFFFFFFFFFFFFFFFFFFFFFFFFFFFFFFF AND EQ PUSH2 0x247C JUMPI PUSH1 0x40 MLOAD PUSH32 0x8C379A000000000000000000000000000000000000000000000000000000000 DUP2 MSTORE PUSH1 0x4 ADD DUP1 DUP1 PUSH1 0x20 ADD DUP3 DUP2 SUB DUP3 MSTORE PUSH1 0x20 DUP2 MSTORE PUSH1 0x20 ADD DUP1 PUSH32 0x4F776E61626C653A2063616C6C6572206973206E6F7420746865206F776E6572 DUP2 MSTORE POP PUSH1 0x20 ADD SWAP2 POP POP PUSH1 0x40 MLOAD DUP1 SWAP2 SUB SWAP1 REVERT JUMPDEST DUP1 PUSH1 0x4 DUP2 SWAP1 SSTORE POP POP JUMP JUMPDEST PUSH1 0x2 PUSH1 0x0 SWAP1 SLOAD SWAP1 PUSH2 0x100 EXP SWAP1 DIV PUSH20 0xFFFFFFFFFFFFFFFFFFFFFFFFFFFFFFFFFFFFFFFF AND DUP2 JUMP JUMPDEST PUSH1 0x0 DUP1 PUSH1 0x7 DUP4 DUP2 SLOAD DUP2 LT PUSH2 0x24BC JUMPI INVALID JUMPDEST SWAP1 PUSH1 0x0 MSTORE PUSH1 0x20 PUSH1 0x0 KECCAK256 SWAP1 PUSH1 0x6 MUL ADD SWAP1 POP NUMBER DUP2 PUSH1 0x2 ADD SLOAD GT ISZERO SWAP2 POP POP SWAP2 SWAP1 POP JUMP JUMPDEST PUSH2 0x12C DUP2 JUMP JUMPDEST PUSH2 0x24EA PUSH2 0x3690 JUMP JUMPDEST PUSH20 0xFFFFFFFFFFFFFFFFFFFFFFFFFFFFFFFFFFFFFFFF AND PUSH1 0x0 DUP1 SLOAD SWAP1 PUSH2 0x100 EXP SWAP1 DIV PUSH20 0xFFFFFFFFFFFFFFFFFFFFFFFFFFFFFFFFFFFFFFFF AND PUSH20 0xFFFFFFFFFFFFFFFFFFFFFFFFFFFFFFFFFFFFFFFF AND EQ PUSH2 0x25AA JUMPI PUSH1 0x40 MLOAD PUSH32 0x8C379A000000000000000000000000000000000000000000000000000000000 DUP2 MSTORE PUSH1 0x4 ADD DUP1 DUP1 PUSH1 0x20 ADD DUP3 DUP2 SUB DUP3 MSTORE PUSH1 0x20 DUP2 MSTORE PUSH1 0x20 ADD DUP1 PUSH32 0x4F776E61626C653A2063616C6C6572206973206E6F7420746865206F776E6572 DUP2 MSTORE POP PUSH1 0x20 ADD SWAP2 POP POP PUSH1 0x40 MLOAD DUP1 SWAP2 SUB SWAP1 REVERT JUMPDEST PUSH2 0x3E8 PUSH2 0xFFFF AND DUP4 PUSH2 0xFFFF AND GT ISZERO PUSH2 0x260D JUMPI PUSH1 0x40 MLOAD PUSH32 0x8C379A000000000000000000000000000000000000000000000000000000000 DUP2 MSTORE PUSH1 0x4 ADD DUP1 DUP1 PUSH1 0x20 ADD DUP3 DUP2 SUB DUP3 MSTORE PUSH1 0x25 DUP2 MSTORE PUSH1 0x20 ADD DUP1 PUSH2 0x4837 PUSH1 0x25 SWAP2 CODECOPY PUSH1 0x40 ADD SWAP2 POP POP PUSH1 0x40 MLOAD DUP1 SWAP2 SUB SWAP1 REVERT JUMPDEST DUP2 ISZERO PUSH2 0x261C JUMPI PUSH2 0x261B PUSH2 0x17DC JUMP JUMPDEST JUMPDEST PUSH2 0x2661 DUP5 PUSH2 0x2653 PUSH1 0x7 DUP9 DUP2 SLOAD DUP2 LT PUSH2 0x2630 JUMPI INVALID JUMPDEST SWAP1 PUSH1 0x0 MSTORE PUSH1 0x20 PUSH1 0x0 KECCAK256 SWAP1 PUSH1 0x6 MUL ADD PUSH1 0x1 ADD SLOAD PUSH1 0x9 SLOAD PUSH2 0x3768 SWAP1 SWAP2 SWAP1 PUSH4 0xFFFFFFFF AND JUMP JUMPDEST PUSH2 0x3CF5 SWAP1 SWAP2 SWAP1 PUSH4 0xFFFFFFFF AND JUMP JUMPDEST PUSH1 0x9 DUP2 SWAP1 SSTORE POP DUP4 PUSH1 0x7 DUP7 DUP2 SLOAD DUP2 LT PUSH2 0x2675 JUMPI INVALID JUMPDEST SWAP1 PUSH1 0x0 MSTORE PUSH1 0x20 PUSH1 0x0 KECCAK256 SWAP1 PUSH1 0x6 MUL ADD PUSH1 0x1 ADD DUP2 SWAP1 SSTORE POP DUP3 PUSH1 0x7 DUP7 DUP2 SLOAD DUP2 LT PUSH2 0x2698 JUMPI INVALID JUMPDEST SWAP1 PUSH1 0x0 MSTORE PUSH1 0x20 PUSH1 0x0 KECCAK256 SWAP1 PUSH1 0x6 MUL ADD PUSH1 0x5 ADD PUSH1 0x0 PUSH2 0x100 EXP DUP2 SLOAD DUP2 PUSH2 0xFFFF MUL NOT AND SWAP1 DUP4 PUSH2 0xFFFF AND MUL OR SWAP1 SSTORE POP DUP1 NUMBER ADD PUSH1 0x7 DUP7 DUP2 SLOAD DUP2 LT PUSH2 0x26D3 JUMPI INVALID JUMPDEST SWAP1 PUSH1 0x0 MSTORE PUSH1 0x20 PUSH1 0x0 KECCAK256 SWAP1 PUSH1 0x6 MUL ADD PUSH1 0x2 ADD DUP2 SWAP1 SSTORE POP POP POP POP POP POP JUMP JUMPDEST PUSH1 0xD PUSH1 0x20 MSTORE DUP1 PUSH1 0x0 MSTORE PUSH1 0x40 PUSH1 0x0 KECCAK256 PUSH1 0x0 SWAP2 POP SLOAD SWAP1 PUSH2 0x100 EXP SWAP1 DIV PUSH1 0xFF AND DUP2 JUMP JUMPDEST PUSH1 0x0 PUSH20 0xFFFFFFFFFFFFFFFFFFFFFFFFFFFFFFFFFFFFFFFF AND DUP2 PUSH20 0xFFFFFFFFFFFFFFFFFFFFFFFFFFFFFFFFFFFFFFFF AND EQ ISZERO PUSH2 0x27B2 JUMPI PUSH1 0x40 MLOAD PUSH32 0x8C379A000000000000000000000000000000000000000000000000000000000 DUP2 MSTORE PUSH1 0x4 ADD DUP1 DUP1 PUSH1 0x20 ADD DUP3 DUP2 SUB DUP3 MSTORE PUSH1 0x14 DUP2 MSTORE PUSH1 0x20 ADD DUP1 PUSH32 0x6465763A20696E76616C69642061646472657373000000000000000000000000 DUP2 MSTORE POP PUSH1 0x20 ADD SWAP2 POP POP PUSH1 0x40 MLOAD DUP1 SWAP2 SUB SWAP1 REVERT JUMPDEST PUSH1 0x3 PUSH1 0x0 SWAP1 SLOAD SWAP1 PUSH2 0x100 EXP SWAP1 DIV PUSH20 0xFFFFFFFFFFFFFFFFFFFFFFFFFFFFFFFFFFFFFFFF AND PUSH20 0xFFFFFFFFFFFFFFFFFFFFFFFFFFFFFFFFFFFFFFFF AND CALLER PUSH20 0xFFFFFFFFFFFFFFFFFFFFFFFFFFFFFFFFFFFFFFFF AND EQ PUSH2 0x2875 JUMPI PUSH1 0x40 MLOAD PUSH32 0x8C379A000000000000000000000000000000000000000000000000000000000 DUP2 MSTORE PUSH1 0x4 ADD DUP1 DUP1 PUSH1 0x20 ADD DUP3 DUP2 SUB DUP3 MSTORE PUSH1 0x9 DUP2 MSTORE PUSH1 0x20 ADD DUP1 PUSH32 0x6465763A207775743F0000000000000000000000000000000000000000000000 DUP2 MSTORE POP PUSH1 0x20 ADD SWAP2 POP POP PUSH1 0x40 MLOAD DUP1 SWAP2 SUB SWAP1 REVERT JUMPDEST DUP1 PUSH1 0x3 PUSH1 0x0 PUSH2 0x100 EXP DUP2 SLOAD DUP2 PUSH20 0xFFFFFFFFFFFFFFFFFFFFFFFFFFFFFFFFFFFFFFFF MUL NOT AND SWAP1 DUP4 PUSH20 0xFFFFFFFFFFFFFFFFFFFFFFFFFFFFFFFFFFFFFFFF AND MUL OR SWAP1 SSTORE POP DUP1 PUSH20 0xFFFFFFFFFFFFFFFFFFFFFFFFFFFFFFFFFFFFFFFF AND CALLER PUSH20 0xFFFFFFFFFFFFFFFFFFFFFFFFFFFFFFFFFFFFFFFF AND PUSH32 0x618C54559E94F1499A808AAD71EE8729F8E74E8C48E979616328CE493A1A52E7 PUSH1 0x40 MLOAD PUSH1 0x40 MLOAD DUP1 SWAP2 SUB SWAP1 LOG3 POP JUMP JUMPDEST PUSH2 0x3840 DUP2 JUMP JUMPDEST PUSH1 0x3 PUSH1 0x0 SWAP1 SLOAD SWAP1 PUSH2 0x100 EXP SWAP1 DIV PUSH20 0xFFFFFFFFFFFFFFFFFFFFFFFFFFFFFFFFFFFFFFFF AND DUP2 JUMP JUMPDEST PUSH1 0x0 DUP1 PUSH1 0x7 DUP5 DUP2 SLOAD DUP2 LT PUSH2 0x294F JUMPI INVALID JUMPDEST SWAP1 PUSH1 0x0 MSTORE PUSH1 0x20 PUSH1 0x0 KECCAK256 SWAP1 PUSH1 0x6 MUL ADD SWAP1 POP PUSH1 0x0 PUSH1 0x8 PUSH1 0x0 DUP7 DUP2 MSTORE PUSH1 0x20 ADD SWAP1 DUP2 MSTORE PUSH1 0x20 ADD PUSH1 0x0 KECCAK256 PUSH1 0x0 DUP6 PUSH20 0xFFFFFFFFFFFFFFFFFFFFFFFFFFFFFFFFFFFFFFFF AND PUSH20 0xFFFFFFFFFFFFFFFFFFFFFFFFFFFFFFFFFFFFFFFF AND DUP2 MSTORE PUSH1 0x20 ADD SWAP1 DUP2 MSTORE PUSH1 0x20 ADD PUSH1 0x0 KECCAK256 SWAP1 POP PUSH1 0x0 DUP3 PUSH1 0x4 ADD SLOAD SWAP1 POP PUSH1 0x0 DUP4 PUSH1 0x0 ADD PUSH1 0x0 SWAP1 SLOAD SWAP1 PUSH2 0x100 EXP SWAP1 DIV PUSH20 0xFFFFFFFFFFFFFFFFFFFFFFFFFFFFFFFFFFFFFFFF AND PUSH20 0xFFFFFFFFFFFFFFFFFFFFFFFFFFFFFFFFFFFFFFFF AND PUSH4 0x70A08231 ADDRESS PUSH1 0x40 MLOAD DUP3 PUSH4 0xFFFFFFFF AND PUSH1 0xE0 SHL DUP2 MSTORE PUSH1 0x4 ADD DUP1 DUP3 PUSH20 0xFFFFFFFFFFFFFFFFFFFFFFFFFFFFFFFFFFFFFFFF AND DUP2 MSTORE PUSH1 0x20 ADD SWAP2 POP POP PUSH1 0x20 PUSH1 0x40 MLOAD DUP1 DUP4 SUB DUP2 DUP7 DUP1 EXTCODESIZE ISZERO DUP1 ISZERO PUSH2 0x2A49 JUMPI PUSH1 0x0 DUP1 REVERT JUMPDEST POP GAS STATICCALL ISZERO DUP1 ISZERO PUSH2 0x2A5D JUMPI RETURNDATASIZE PUSH1 0x0 DUP1 RETURNDATACOPY RETURNDATASIZE PUSH1 0x0 REVERT JUMPDEST POP POP POP POP PUSH1 0x40 MLOAD RETURNDATASIZE PUSH1 0x20 DUP2 LT ISZERO PUSH2 0x2A73 JUMPI PUSH1 0x0 DUP1 REVERT JUMPDEST DUP2 ADD SWAP1 DUP1 DUP1 MLOAD SWAP1 PUSH1 0x20 ADD SWAP1 SWAP3 SWAP2 SWAP1 POP POP POP SWAP1 POP DUP4 PUSH1 0x3 ADD SLOAD NUMBER GT DUP1 ISZERO PUSH2 0x2A9A JUMPI POP PUSH1 0x0 DUP2 EQ ISZERO JUMPDEST ISZERO PUSH2 0x2B35 JUMPI PUSH1 0x0 PUSH2 0x2AAF DUP6 PUSH1 0x3 ADD SLOAD NUMBER PUSH2 0x1E86 JUMP JUMPDEST SWAP1 POP PUSH1 0x0 PUSH2 0x2AF2 PUSH1 0x9 SLOAD PUSH2 0x2AE4 DUP9 PUSH1 0x1 ADD SLOAD PUSH2 0x2AD6 PUSH1 0x4 SLOAD DUP8 PUSH2 0x3698 SWAP1 SWAP2 SWAP1 PUSH4 0xFFFFFFFF AND JUMP JUMPDEST PUSH2 0x3698 SWAP1 SWAP2 SWAP1 PUSH4 0xFFFFFFFF AND JUMP JUMPDEST PUSH2 0x371E SWAP1 SWAP2 SWAP1 PUSH4 0xFFFFFFFF AND JUMP JUMPDEST SWAP1 POP PUSH2 0x2B30 PUSH2 0x2B21 DUP5 PUSH2 0x2B13 PUSH5 0xE8D4A51000 DUP6 PUSH2 0x3698 SWAP1 SWAP2 SWAP1 PUSH4 0xFFFFFFFF AND JUMP JUMPDEST PUSH2 0x371E SWAP1 SWAP2 SWAP1 PUSH4 0xFFFFFFFF AND JUMP JUMPDEST DUP6 PUSH2 0x3CF5 SWAP1 SWAP2 SWAP1 PUSH4 0xFFFFFFFF AND JUMP JUMPDEST SWAP4 POP POP POP JUMPDEST PUSH2 0x2B79 DUP4 PUSH1 0x1 ADD SLOAD PUSH2 0x2B6B PUSH5 0xE8D4A51000 PUSH2 0x2B5D DUP7 DUP9 PUSH1 0x0 ADD SLOAD PUSH2 0x3698 SWAP1 SWAP2 SWAP1 PUSH4 0xFFFFFFFF AND JUMP JUMPDEST PUSH2 0x371E SWAP1 SWAP2 SWAP1 PUSH4 0xFFFFFFFF AND JUMP JUMPDEST PUSH2 0x3768 SWAP1 SWAP2 SWAP1 PUSH4 0xFFFFFFFF AND JUMP JUMPDEST SWAP5 POP POP POP POP POP SWAP3 SWAP2 POP POP JUMP JUMPDEST PUSH1 0x2 PUSH1 0x1 SLOAD EQ ISZERO PUSH2 0x2BFE JUMPI PUSH1 0x40 MLOAD PUSH32 0x8C379A000000000000000000000000000000000000000000000000000000000 DUP2 MSTORE PUSH1 0x4 ADD DUP1 DUP1 PUSH1 0x20 ADD DUP3 DUP2 SUB DUP3 MSTORE PUSH1 0x1F DUP2 MSTORE PUSH1 0x20 ADD DUP1 PUSH32 0x5265656E7472616E637947756172643A207265656E7472616E742063616C6C00 DUP2 MSTORE POP PUSH1 0x20 ADD SWAP2 POP POP PUSH1 0x40 MLOAD DUP1 SWAP2 SUB SWAP1 REVERT JUMPDEST PUSH1 0x2 PUSH1 0x1 DUP2 SWAP1 SSTORE POP PUSH1 0x0 PUSH1 0x7 DUP4 DUP2 SLOAD DUP2 LT PUSH2 0x2C15 JUMPI INVALID JUMPDEST SWAP1 PUSH1 0x0 MSTORE PUSH1 0x20 PUSH1 0x0 KECCAK256 SWAP1 PUSH1 0x6 MUL ADD SWAP1 POP PUSH1 0x0 PUSH1 0x8 PUSH1 0x0 DUP6 DUP2 MSTORE PUSH1 0x20 ADD SWAP1 DUP2 MSTORE PUSH1 0x20 ADD PUSH1 0x0 KECCAK256 PUSH1 0x0 CALLER PUSH20 0xFFFFFFFFFFFFFFFFFFFFFFFFFFFFFFFFFFFFFFFF AND PUSH20 0xFFFFFFFFFFFFFFFFFFFFFFFFFFFFFFFFFFFFFFFF AND DUP2 MSTORE PUSH1 0x20 ADD SWAP1 DUP2 MSTORE PUSH1 0x20 ADD PUSH1 0x0 KECCAK256 SWAP1 POP PUSH2 0x2C82 DUP5 PUSH2 0x12BC JUMP JUMPDEST PUSH1 0x0 DUP2 PUSH1 0x0 ADD SLOAD GT ISZERO PUSH2 0x2D42 JUMPI PUSH1 0x0 PUSH2 0x2CD9 DUP3 PUSH1 0x1 ADD SLOAD PUSH2 0x2CCB PUSH5 0xE8D4A51000 PUSH2 0x2CBD DUP8 PUSH1 0x4 ADD SLOAD DUP8 PUSH1 0x0 ADD SLOAD PUSH2 0x3698 SWAP1 SWAP2 SWAP1 PUSH4 0xFFFFFFFF AND JUMP JUMPDEST PUSH2 0x371E SWAP1 SWAP2 SWAP1 PUSH4 0xFFFFFFFF AND JUMP JUMPDEST PUSH2 0x3768 SWAP1 SWAP2 SWAP1 PUSH4 0xFFFFFFFF AND JUMP JUMPDEST SWAP1 POP PUSH1 0x0 PUSH2 0x2CE6 DUP7 PUSH2 0x24AC JUMP JUMPDEST SWAP1 POP DUP1 DUP1 ISZERO PUSH2 0x2CF5 JUMPI POP PUSH1 0x0 DUP3 GT JUMPDEST ISZERO PUSH2 0x2D3F JUMPI PUSH2 0x2D04 CALLER DUP4 PUSH2 0x37B2 JUMP JUMPDEST PUSH2 0x2D36 PUSH5 0xE8D4A51000 PUSH2 0x2D28 DUP7 PUSH1 0x4 ADD SLOAD DUP7 PUSH1 0x0 ADD SLOAD PUSH2 0x3698 SWAP1 SWAP2 SWAP1 PUSH4 0xFFFFFFFF AND JUMP JUMPDEST PUSH2 0x371E SWAP1 SWAP2 SWAP1 PUSH4 0xFFFFFFFF AND JUMP JUMPDEST DUP4 PUSH1 0x1 ADD DUP2 SWAP1 SSTORE POP JUMPDEST POP POP JUMPDEST PUSH1 0x0 DUP4 GT ISZERO PUSH2 0x2EC5 JUMPI PUSH2 0x2D9C CALLER ADDRESS DUP6 DUP6 PUSH1 0x0 ADD PUSH1 0x0 SWAP1 SLOAD SWAP1 PUSH2 0x100 EXP SWAP1 DIV PUSH20 0xFFFFFFFFFFFFFFFFFFFFFFFFFFFFFFFFFFFFFFFF AND PUSH20 0xFFFFFFFFFFFFFFFFFFFFFFFFFFFFFFFFFFFFFFFF AND PUSH2 0x3FE4 SWAP1 SWAP4 SWAP3 SWAP2 SWAP1 PUSH4 0xFFFFFFFF AND JUMP JUMPDEST PUSH1 0x0 DUP3 PUSH1 0x5 ADD PUSH1 0x0 SWAP1 SLOAD SWAP1 PUSH2 0x100 EXP SWAP1 DIV PUSH2 0xFFFF AND PUSH2 0xFFFF AND GT ISZERO PUSH2 0x2EA4 JUMPI PUSH1 0x0 PUSH2 0x2DFA PUSH2 0x2710 PUSH2 0x2DEC DUP6 PUSH1 0x5 ADD PUSH1 0x0 SWAP1 SLOAD SWAP1 PUSH2 0x100 EXP SWAP1 DIV PUSH2 0xFFFF AND PUSH2 0xFFFF AND DUP8 PUSH2 0x3698 SWAP1 SWAP2 SWAP1 PUSH4 0xFFFFFFFF AND JUMP JUMPDEST PUSH2 0x371E SWAP1 SWAP2 SWAP1 PUSH4 0xFFFFFFFF AND JUMP JUMPDEST SWAP1 POP PUSH2 0x2E25 DUP2 PUSH2 0x2E17 DUP7 DUP6 PUSH1 0x0 ADD SLOAD PUSH2 0x3CF5 SWAP1 SWAP2 SWAP1 PUSH4 0xFFFFFFFF AND JUMP JUMPDEST PUSH2 0x3768 SWAP1 SWAP2 SWAP1 PUSH4 0xFFFFFFFF AND JUMP JUMPDEST DUP3 PUSH1 0x0 ADD DUP2 SWAP1 SSTORE POP PUSH2 0x2E9E PUSH1 0x5 PUSH1 0x0 SWAP1 SLOAD SWAP1 PUSH2 0x100 EXP SWAP1 DIV PUSH20 0xFFFFFFFFFFFFFFFFFFFFFFFFFFFFFFFFFFFFFFFF AND DUP3 DUP6 PUSH1 0x0 ADD PUSH1 0x0 SWAP1 SLOAD SWAP1 PUSH2 0x100 EXP SWAP1 DIV PUSH20 0xFFFFFFFFFFFFFFFFFFFFFFFFFFFFFFFFFFFFFFFF AND PUSH20 0xFFFFFFFFFFFFFFFFFFFFFFFFFFFFFFFFFFFFFFFF AND PUSH2 0x3C53 SWAP1 SWAP3 SWAP2 SWAP1 PUSH4 0xFFFFFFFF AND JUMP JUMPDEST POP PUSH2 0x2EC4 JUMP JUMPDEST PUSH2 0x2EBB DUP4 DUP3 PUSH1 0x0 ADD SLOAD PUSH2 0x3CF5 SWAP1 SWAP2 SWAP1 PUSH4 0xFFFFFFFF AND JUMP JUMPDEST DUP2 PUSH1 0x0 ADD DUP2 SWAP1 SSTORE POP JUMPDEST JUMPDEST DUP1 PUSH1 0x2 ADD PUSH1 0x0 SWAP1 SLOAD SWAP1 PUSH2 0x100 EXP SWAP1 DIV PUSH1 0xFF AND PUSH2 0x2F33 JUMPI PUSH2 0x2F0D PUSH5 0xE8D4A51000 PUSH2 0x2EFF DUP5 PUSH1 0x4 ADD SLOAD DUP5 PUSH1 0x0 ADD SLOAD PUSH2 0x3698 SWAP1 SWAP2 SWAP1 PUSH4 0xFFFFFFFF AND JUMP JUMPDEST PUSH2 0x371E SWAP1 SWAP2 SWAP1 PUSH4 0xFFFFFFFF AND JUMP JUMPDEST DUP2 PUSH1 0x1 ADD DUP2 SWAP1 SSTORE POP PUSH1 0x1 DUP2 PUSH1 0x2 ADD PUSH1 0x0 PUSH2 0x100 EXP DUP2 SLOAD DUP2 PUSH1 0xFF MUL NOT AND SWAP1 DUP4 ISZERO ISZERO MUL OR SWAP1 SSTORE POP JUMPDEST DUP4 CALLER PUSH20 0xFFFFFFFFFFFFFFFFFFFFFFFFFFFFFFFFFFFFFFFF AND PUSH32 0x90890809C654F11D6E72A28FA60149770A0D11EC6C92319D6CEB2BB0A4EA1A15 DUP6 PUSH1 0x40 MLOAD DUP1 DUP3 DUP2 MSTORE PUSH1 0x20 ADD SWAP2 POP POP PUSH1 0x40 MLOAD DUP1 SWAP2 SUB SWAP1 LOG3 POP POP PUSH1 0x1 DUP1 DUP2 SWAP1 SSTORE POP POP POP JUMP JUMPDEST PUSH1 0x10 PUSH1 0x0 SWAP1 SLOAD SWAP1 PUSH2 0x100 EXP SWAP1 DIV PUSH1 0xFF AND PUSH2 0x2FF4 JUMPI PUSH1 0x40 MLOAD PUSH32 0x8C379A000000000000000000000000000000000000000000000000000000000 DUP2 MSTORE PUSH1 0x4 ADD DUP1 DUP1 PUSH1 0x20 ADD DUP3 DUP2 SUB DUP3 MSTORE PUSH1 0x40 DUP2 MSTORE PUSH1 0x20 ADD DUP1 PUSH2 0x4949 PUSH1 0x40 SWAP2 CODECOPY PUSH1 0x40 ADD SWAP2 POP POP PUSH1 0x40 MLOAD DUP1 SWAP2 SUB SWAP1 REVERT JUMPDEST PUSH1 0x6 SLOAD NUMBER GT PUSH2 0x304E JUMPI PUSH1 0x40 MLOAD PUSH32 0x8C379A000000000000000000000000000000000000000000000000000000000 DUP2 MSTORE PUSH1 0x4 ADD DUP1 DUP1 PUSH1 0x20 ADD DUP3 DUP2 SUB DUP3 MSTORE PUSH1 0x52 DUP2 MSTORE PUSH1 0x20 ADD DUP1 PUSH2 0x4884 PUSH1 0x52 SWAP2 CODECOPY PUSH1 0x60 ADD SWAP2 POP POP PUSH1 0x40 MLOAD DUP1 SWAP2 SUB SWAP1 REVERT JUMPDEST PUSH7 0xB1A2BC2EC50000 PUSH1 0x4 SLOAD GT PUSH2 0x30AF JUMPI PUSH1 0x40 MLOAD PUSH32 0x8C379A000000000000000000000000000000000000000000000000000000000 DUP2 MSTORE PUSH1 0x4 ADD DUP1 DUP1 PUSH1 0x20 ADD DUP3 DUP2 SUB DUP3 MSTORE PUSH1 0x52 DUP2 MSTORE PUSH1 0x20 ADD DUP1 PUSH2 0x48F7 PUSH1 0x52 SWAP2 CODECOPY PUSH1 0x60 ADD SWAP2 POP POP PUSH1 0x40 MLOAD DUP1 SWAP2 SUB SWAP1 REVERT JUMPDEST PUSH1 0x0 PUSH2 0x30DA PUSH2 0x3840 PUSH2 0x30CC PUSH1 0x6 SLOAD NUMBER PUSH2 0x3768 SWAP1 SWAP2 SWAP1 PUSH4 0xFFFFFFFF AND JUMP JUMPDEST PUSH2 0x371E SWAP1 SWAP2 SWAP1 PUSH4 0xFFFFFFFF AND JUMP JUMPDEST SWAP1 POP PUSH1 0xF SLOAD DUP2 GT PUSH2 0x30EB JUMPI POP PUSH2 0x31E3 JUMP JUMPDEST PUSH1 0x0 PUSH1 0x4 SLOAD SWAP1 POP PUSH1 0x0 PUSH1 0xF SLOAD SWAP1 POP JUMPDEST DUP3 DUP2 LT ISZERO PUSH2 0x313C JUMPI PUSH2 0x312F PUSH2 0x2710 PUSH2 0x3121 PUSH2 0x12C PUSH2 0x2710 SUB DUP6 PUSH2 0x3698 SWAP1 SWAP2 SWAP1 PUSH4 0xFFFFFFFF AND JUMP JUMPDEST PUSH2 0x371E SWAP1 SWAP2 SWAP1 PUSH4 0xFFFFFFFF AND JUMP JUMPDEST SWAP2 POP DUP1 PUSH1 0x1 ADD SWAP1 POP PUSH2 0x30FA JUMP JUMPDEST POP PUSH7 0xB1A2BC2EC50000 DUP2 LT PUSH2 0x3151 JUMPI DUP1 PUSH2 0x315A JUMP JUMPDEST PUSH7 0xB1A2BC2EC50000 JUMPDEST SWAP1 POP PUSH1 0x4 SLOAD DUP2 LT PUSH2 0x316C JUMPI POP POP PUSH2 0x31E3 JUMP JUMPDEST PUSH2 0x3174 PUSH2 0x17DC JUMP JUMPDEST DUP2 PUSH1 0xF DUP2 SWAP1 SSTORE POP PUSH1 0x0 PUSH1 0x4 SLOAD SWAP1 POP DUP2 PUSH1 0x4 DUP2 SWAP1 SSTORE POP CALLER PUSH20 0xFFFFFFFFFFFFFFFFFFFFFFFFFFFFFFFFFFFFFFFF AND PUSH32 0xEEDC6338C9C1AD8F3CD6C90DD09DBE98DBD57E610D3E59A17996D07ACB0D9511 DUP3 DUP5 PUSH1 0x40 MLOAD DUP1 DUP4 DUP2 MSTORE PUSH1 0x20 ADD DUP3 DUP2 MSTORE PUSH1 0x20 ADD SWAP3 POP POP POP PUSH1 0x40 MLOAD DUP1 SWAP2 SUB SWAP1 LOG2 POP POP POP JUMPDEST JUMP JUMPDEST PUSH2 0x31ED PUSH2 0x3690 JUMP JUMPDEST PUSH20 0xFFFFFFFFFFFFFFFFFFFFFFFFFFFFFFFFFFFFFFFF AND PUSH1 0x0 DUP1 SLOAD SWAP1 PUSH2 0x100 EXP SWAP1 DIV PUSH20 0xFFFFFFFFFFFFFFFFFFFFFFFFFFFFFFFFFFFFFFFF AND PUSH20 0xFFFFFFFFFFFFFFFFFFFFFFFFFFFFFFFFFFFFFFFF AND EQ PUSH2 0x32AD JUMPI PUSH1 0x40 MLOAD PUSH32 0x8C379A000000000000000000000000000000000000000000000000000000000 DUP2 MSTORE PUSH1 0x4 ADD DUP1 DUP1 PUSH1 0x20 ADD DUP3 DUP2 SUB DUP3 MSTORE PUSH1 0x20 DUP2 MSTORE PUSH1 0x20 ADD DUP1 PUSH32 0x4F776E61626C653A2063616C6C6572206973206E6F7420746865206F776E6572 DUP2 MSTORE POP PUSH1 0x20 ADD SWAP2 POP POP PUSH1 0x40 MLOAD DUP1 SWAP2 SUB SWAP1 REVERT JUMPDEST PUSH2 0x32B6 DUP2 PUSH2 0x40A5 JUMP JUMPDEST POP JUMP JUMPDEST PUSH2 0x32C1 PUSH2 0x3690 JUMP JUMPDEST PUSH20 0xFFFFFFFFFFFFFFFFFFFFFFFFFFFFFFFFFFFFFFFF AND PUSH1 0x0 DUP1 SLOAD SWAP1 PUSH2 0x100 EXP SWAP1 DIV PUSH20 0xFFFFFFFFFFFFFFFFFFFFFFFFFFFFFFFFFFFFFFFF AND PUSH20 0xFFFFFFFFFFFFFFFFFFFFFFFFFFFFFFFFFFFFFFFF AND EQ PUSH2 0x3381 JUMPI PUSH1 0x40 MLOAD PUSH32 0x8C379A000000000000000000000000000000000000000000000000000000000 DUP2 MSTORE PUSH1 0x4 ADD DUP1 DUP1 PUSH1 0x20 ADD DUP3 DUP2 SUB DUP3 MSTORE PUSH1 0x20 DUP2 MSTORE PUSH1 0x20 ADD DUP1 PUSH32 0x4F776E61626C653A2063616C6C6572206973206E6F7420746865206F776E6572 DUP2 MSTORE POP PUSH1 0x20 ADD SWAP2 POP POP PUSH1 0x40 MLOAD DUP1 SWAP2 SUB SWAP1 REVERT JUMPDEST DUP4 PUSH1 0x0 ISZERO ISZERO PUSH1 0xD PUSH1 0x0 DUP4 PUSH20 0xFFFFFFFFFFFFFFFFFFFFFFFFFFFFFFFFFFFFFFFF AND PUSH20 0xFFFFFFFFFFFFFFFFFFFFFFFFFFFFFFFFFFFFFFFF AND DUP2 MSTORE PUSH1 0x20 ADD SWAP1 DUP2 MSTORE PUSH1 0x20 ADD PUSH1 0x0 KECCAK256 PUSH1 0x0 SWAP1 SLOAD SWAP1 PUSH2 0x100 EXP SWAP1 DIV PUSH1 0xFF AND ISZERO ISZERO EQ PUSH2 0x3448 JUMPI PUSH1 0x40 MLOAD PUSH32 0x8C379A000000000000000000000000000000000000000000000000000000000 DUP2 MSTORE PUSH1 0x4 ADD DUP1 DUP1 PUSH1 0x20 ADD DUP3 DUP2 SUB DUP3 MSTORE PUSH1 0x19 DUP2 MSTORE PUSH1 0x20 ADD DUP1 PUSH32 0x6E6F6E4475706C6963617465643A206475706C69636174656400000000000000 DUP2 MSTORE POP PUSH1 0x20 ADD SWAP2 POP POP PUSH1 0x40 MLOAD DUP1 SWAP2 SUB SWAP1 REVERT JUMPDEST PUSH2 0x3E8 PUSH2 0xFFFF AND DUP5 PUSH2 0xFFFF AND GT ISZERO PUSH2 0x34AB JUMPI PUSH1 0x40 MLOAD PUSH32 0x8C379A000000000000000000000000000000000000000000000000000000000 DUP2 MSTORE PUSH1 0x4 ADD DUP1 DUP1 PUSH1 0x20 ADD DUP3 DUP2 SUB DUP3 MSTORE PUSH1 0x25 DUP2 MSTORE PUSH1 0x20 ADD DUP1 PUSH2 0x46FE PUSH1 0x25 SWAP2 CODECOPY PUSH1 0x40 ADD SWAP2 POP POP PUSH1 0x40 MLOAD DUP1 SWAP2 SUB SWAP1 REVERT JUMPDEST DUP3 ISZERO PUSH2 0x34BA JUMPI PUSH2 0x34B9 PUSH2 0x17DC JUMP JUMPDEST JUMPDEST PUSH1 0x0 DUP3 NUMBER ADD SWAP1 POP PUSH2 0x34D6 DUP8 PUSH1 0x9 SLOAD PUSH2 0x3CF5 SWAP1 SWAP2 SWAP1 PUSH4 0xFFFFFFFF AND JUMP JUMPDEST PUSH1 0x9 DUP2 SWAP1 SSTORE POP PUSH1 0x1 PUSH1 0xD PUSH1 0x0 DUP9 PUSH20 0xFFFFFFFFFFFFFFFFFFFFFFFFFFFFFFFFFFFFFFFF AND PUSH20 0xFFFFFFFFFFFFFFFFFFFFFFFFFFFFFFFFFFFFFFFF AND DUP2 MSTORE PUSH1 0x20 ADD SWAP1 DUP2 MSTORE PUSH1 0x20 ADD PUSH1 0x0 KECCAK256 PUSH1 0x0 PUSH2 0x100 EXP DUP2 SLOAD DUP2 PUSH1 0xFF MUL NOT AND SWAP1 DUP4 ISZERO ISZERO MUL OR SWAP1 SSTORE POP PUSH1 0x7 PUSH1 0x40 MLOAD DUP1 PUSH1 0xC0 ADD PUSH1 0x40 MSTORE DUP1 DUP9 PUSH20 0xFFFFFFFFFFFFFFFFFFFFFFFFFFFFFFFFFFFFFFFF AND DUP2 MSTORE PUSH1 0x20 ADD DUP10 DUP2 MSTORE PUSH1 0x20 ADD DUP4 DUP2 MSTORE PUSH1 0x20 ADD DUP4 DUP2 MSTORE PUSH1 0x20 ADD PUSH1 0x0 DUP2 MSTORE PUSH1 0x20 ADD DUP8 PUSH2 0xFFFF AND DUP2 MSTORE POP SWAP1 DUP1 PUSH1 0x1 DUP2 SLOAD ADD DUP1 DUP3 SSTORE DUP1 SWAP2 POP POP PUSH1 0x1 SWAP1 SUB SWAP1 PUSH1 0x0 MSTORE PUSH1 0x20 PUSH1 0x0 KECCAK256 SWAP1 PUSH1 0x6 MUL ADD PUSH1 0x0 SWAP1 SWAP2 SWAP1 SWAP2 SWAP1 SWAP2 POP PUSH1 0x0 DUP3 ADD MLOAD DUP2 PUSH1 0x0 ADD PUSH1 0x0 PUSH2 0x100 EXP DUP2 SLOAD DUP2 PUSH20 0xFFFFFFFFFFFFFFFFFFFFFFFFFFFFFFFFFFFFFFFF MUL NOT AND SWAP1 DUP4 PUSH20 0xFFFFFFFFFFFFFFFFFFFFFFFFFFFFFFFFFFFFFFFF AND MUL OR SWAP1 SSTORE POP PUSH1 0x20 DUP3 ADD MLOAD DUP2 PUSH1 0x1 ADD SSTORE PUSH1 0x40 DUP3 ADD MLOAD DUP2 PUSH1 0x2 ADD SSTORE PUSH1 0x60 DUP3 ADD MLOAD DUP2 PUSH1 0x3 ADD SSTORE PUSH1 0x80 DUP3 ADD MLOAD DUP2 PUSH1 0x4 ADD SSTORE PUSH1 0xA0 DUP3 ADD MLOAD DUP2 PUSH1 0x5 ADD PUSH1 0x0 PUSH2 0x100 EXP DUP2 SLOAD DUP2 PUSH2 0xFFFF MUL NOT AND SWAP1 DUP4 PUSH2 0xFFFF AND MUL OR SWAP1 SSTORE POP POP POP PUSH1 0x1 PUSH1 0x7 DUP1 SLOAD SWAP1 POP SUB PUSH1 0xE PUSH1 0x0 DUP9 PUSH20 0xFFFFFFFFFFFFFFFFFFFFFFFFFFFFFFFFFFFFFFFF AND PUSH20 0xFFFFFFFFFFFFFFFFFFFFFFFFFFFFFFFFFFFFFFFF AND DUP2 MSTORE PUSH1 0x20 ADD SWAP1 DUP2 MSTORE PUSH1 0x20 ADD PUSH1 0x0 KECCAK256 DUP2 SWAP1 SSTORE POP POP POP POP POP POP POP POP JUMP JUMPDEST PUSH1 0x0 CALLER SWAP1 POP SWAP1 JUMP JUMPDEST PUSH1 0x0 DUP1 DUP4 EQ ISZERO PUSH2 0x36AB JUMPI PUSH1 0x0 SWAP1 POP PUSH2 0x3718 JUMP JUMPDEST PUSH1 0x0 DUP3 DUP5 MUL SWAP1 POP DUP3 DUP5 DUP3 DUP2 PUSH2 0x36BC JUMPI INVALID JUMPDEST DIV EQ PUSH2 0x3713 JUMPI PUSH1 0x40 MLOAD PUSH32 0x8C379A000000000000000000000000000000000000000000000000000000000 DUP2 MSTORE PUSH1 0x4 ADD DUP1 DUP1 PUSH1 0x20 ADD DUP3 DUP2 SUB DUP3 MSTORE PUSH1 0x21 DUP2 MSTORE PUSH1 0x20 ADD DUP1 PUSH2 0x4816 PUSH1 0x21 SWAP2 CODECOPY PUSH1 0x40 ADD SWAP2 POP POP PUSH1 0x40 MLOAD DUP1 SWAP2 SUB SWAP1 REVERT JUMPDEST DUP1 SWAP2 POP POP JUMPDEST SWAP3 SWAP2 POP POP JUMP JUMPDEST PUSH1 0x0 PUSH2 0x3760 DUP4 DUP4 PUSH1 0x40 MLOAD DUP1 PUSH1 0x40 ADD PUSH1 0x40 MSTORE DUP1 PUSH1 0x1A DUP2 MSTORE PUSH1 0x20 ADD PUSH32 0x536166654D6174683A206469766973696F6E206279207A65726F000000000000 DUP2 MSTORE POP PUSH2 0x41E8 JUMP JUMPDEST SWAP1 POP SWAP3 SWAP2 POP POP JUMP JUMPDEST PUSH1 0x0 PUSH2 0x37AA DUP4 DUP4 PUSH1 0x40 MLOAD DUP1 PUSH1 0x40 ADD PUSH1 0x40 MSTORE DUP1 PUSH1 0x1E DUP2 MSTORE PUSH1 0x20 ADD PUSH32 0x536166654D6174683A207375627472616374696F6E206F766572666C6F770000 DUP2 MSTORE POP PUSH2 0x42AE JUMP JUMPDEST SWAP1 POP SWAP3 SWAP2 POP POP JUMP JUMPDEST PUSH1 0x0 PUSH1 0x2 PUSH1 0x0 SWAP1 SLOAD SWAP1 PUSH2 0x100 EXP SWAP1 DIV PUSH20 0xFFFFFFFFFFFFFFFFFFFFFFFFFFFFFFFFFFFFFFFF AND PUSH20 0xFFFFFFFFFFFFFFFFFFFFFFFFFFFFFFFFFFFFFFFF AND PUSH4 0x70A08231 ADDRESS PUSH1 0x40 MLOAD DUP3 PUSH4 0xFFFFFFFF AND PUSH1 0xE0 SHL DUP2 MSTORE PUSH1 0x4 ADD DUP1 DUP3 PUSH20 0xFFFFFFFFFFFFFFFFFFFFFFFFFFFFFFFFFFFFFFFF AND DUP2 MSTORE PUSH1 0x20 ADD SWAP2 POP POP PUSH1 0x20 PUSH1 0x40 MLOAD DUP1 DUP4 SUB DUP2 DUP7 DUP1 EXTCODESIZE ISZERO DUP1 ISZERO PUSH2 0x383D JUMPI PUSH1 0x0 DUP1 REVERT JUMPDEST POP GAS STATICCALL ISZERO DUP1 ISZERO PUSH2 0x3851 JUMPI RETURNDATASIZE PUSH1 0x0 DUP1 RETURNDATACOPY RETURNDATASIZE PUSH1 0x0 REVERT JUMPDEST POP POP POP POP PUSH1 0x40 MLOAD RETURNDATASIZE PUSH1 0x20 DUP2 LT ISZERO PUSH2 0x3867 JUMPI PUSH1 0x0 DUP1 REVERT JUMPDEST DUP2 ADD SWAP1 DUP1 DUP1 MLOAD SWAP1 PUSH1 0x20 ADD SWAP1 SWAP3 SWAP2 SWAP1 POP POP POP SWAP1 POP PUSH1 0x0 DUP2 DUP4 GT ISZERO PUSH2 0x3959 JUMPI PUSH1 0x2 PUSH1 0x0 SWAP1 SLOAD SWAP1 PUSH2 0x100 EXP SWAP1 DIV PUSH20 0xFFFFFFFFFFFFFFFFFFFFFFFFFFFFFFFFFFFFFFFF AND PUSH20 0xFFFFFFFFFFFFFFFFFFFFFFFFFFFFFFFFFFFFFFFF AND PUSH4 0xA9059CBB DUP6 DUP5 PUSH1 0x40 MLOAD DUP4 PUSH4 0xFFFFFFFF AND PUSH1 0xE0 SHL DUP2 MSTORE PUSH1 0x4 ADD DUP1 DUP4 PUSH20 0xFFFFFFFFFFFFFFFFFFFFFFFFFFFFFFFFFFFFFFFF AND DUP2 MSTORE PUSH1 0x20 ADD DUP3 DUP2 MSTORE PUSH1 0x20 ADD SWAP3 POP POP POP PUSH1 0x20 PUSH1 0x40 MLOAD DUP1 DUP4 SUB DUP2 PUSH1 0x0 DUP8 DUP1 EXTCODESIZE ISZERO DUP1 ISZERO PUSH2 0x3917 JUMPI PUSH1 0x0 DUP1 REVERT JUMPDEST POP GAS CALL ISZERO DUP1 ISZERO PUSH2 0x392B JUMPI RETURNDATASIZE PUSH1 0x0 DUP1 RETURNDATACOPY RETURNDATASIZE PUSH1 0x0 REVERT JUMPDEST POP POP POP POP PUSH1 0x40 MLOAD RETURNDATASIZE PUSH1 0x20 DUP2 LT ISZERO PUSH2 0x3941 JUMPI PUSH1 0x0 DUP1 REVERT JUMPDEST DUP2 ADD SWAP1 DUP1 DUP1 MLOAD SWAP1 PUSH1 0x20 ADD SWAP1 SWAP3 SWAP2 SWAP1 POP POP POP SWAP1 POP PUSH2 0x3A2A JUMP JUMPDEST PUSH1 0x2 PUSH1 0x0 SWAP1 SLOAD SWAP1 PUSH2 0x100 EXP SWAP1 DIV PUSH20 0xFFFFFFFFFFFFFFFFFFFFFFFFFFFFFFFFFFFFFFFF AND PUSH20 0xFFFFFFFFFFFFFFFFFFFFFFFFFFFFFFFFFFFFFFFF AND PUSH4 0xA9059CBB DUP6 DUP6 PUSH1 0x40 MLOAD DUP4 PUSH4 0xFFFFFFFF AND PUSH1 0xE0 SHL DUP2 MSTORE PUSH1 0x4 ADD DUP1 DUP4 PUSH20 0xFFFFFFFFFFFFFFFFFFFFFFFFFFFFFFFFFFFFFFFF AND DUP2 MSTORE PUSH1 0x20 ADD DUP3 DUP2 MSTORE PUSH1 0x20 ADD SWAP3 POP POP POP PUSH1 0x20 PUSH1 0x40 MLOAD DUP1 DUP4 SUB DUP2 PUSH1 0x0 DUP8 DUP1 EXTCODESIZE ISZERO DUP1 ISZERO PUSH2 0x39EC JUMPI PUSH1 0x0 DUP1 REVERT JUMPDEST POP GAS CALL ISZERO DUP1 ISZERO PUSH2 0x3A00 JUMPI RETURNDATASIZE PUSH1 0x0 DUP1 RETURNDATACOPY RETURNDATASIZE PUSH1 0x0 REVERT JUMPDEST POP POP POP POP PUSH1 0x40 MLOAD RETURNDATASIZE PUSH1 0x20 DUP2 LT ISZERO PUSH2 0x3A16 JUMPI PUSH1 0x0 DUP1 REVERT JUMPDEST DUP2 ADD SWAP1 DUP1 DUP1 MLOAD SWAP1 PUSH1 0x20 ADD SWAP1 SWAP3 SWAP2 SWAP1 POP POP POP SWAP1 POP JUMPDEST DUP1 PUSH2 0x3A80 JUMPI PUSH1 0x40 MLOAD PUSH32 0x8C379A000000000000000000000000000000000000000000000000000000000 DUP2 MSTORE PUSH1 0x4 ADD DUP1 DUP1 PUSH1 0x20 ADD DUP3 DUP2 SUB DUP3 MSTORE PUSH1 0x22 DUP2 MSTORE PUSH1 0x20 ADD DUP1 PUSH2 0x47AD PUSH1 0x22 SWAP2 CODECOPY PUSH1 0x40 ADD SWAP2 POP POP PUSH1 0x40 MLOAD DUP1 SWAP2 SUB SWAP1 REVERT JUMPDEST POP POP POP POP JUMP JUMPDEST PUSH1 0x0 PUSH2 0x3A91 DUP4 PUSH2 0xEC8 JUMP JUMPDEST SWAP1 POP PUSH1 0x0 PUSH20 0xFFFFFFFFFFFFFFFFFFFFFFFFFFFFFFFFFFFFFFFF AND DUP2 PUSH20 0xFFFFFFFFFFFFFFFFFFFFFFFFFFFFFFFFFFFFFFFF AND EQ ISZERO DUP1 ISZERO PUSH2 0x3AFC JUMPI POP DUP3 PUSH20 0xFFFFFFFFFFFFFFFFFFFFFFFFFFFFFFFFFFFFFFFF AND DUP2 PUSH20 0xFFFFFFFFFFFFFFFFFFFFFFFFFFFFFFFFFFFFFFFF AND EQ ISZERO JUMPDEST DUP1 ISZERO PUSH2 0x3B0A JUMPI POP PUSH1 0x0 PUSH1 0xA SLOAD GT JUMPDEST ISZERO PUSH2 0x3C4E JUMPI PUSH1 0x0 PUSH2 0x3B3A PUSH2 0x2710 PUSH2 0x3B2C PUSH1 0xA SLOAD DUP7 PUSH2 0x3698 SWAP1 SWAP2 SWAP1 PUSH4 0xFFFFFFFF AND JUMP JUMPDEST PUSH2 0x371E SWAP1 SWAP2 SWAP1 PUSH4 0xFFFFFFFF AND JUMP JUMPDEST SWAP1 POP PUSH1 0x2 PUSH1 0x0 SWAP1 SLOAD SWAP1 PUSH2 0x100 EXP SWAP1 DIV PUSH20 0xFFFFFFFFFFFFFFFFFFFFFFFFFFFFFFFFFFFFFFFF AND PUSH20 0xFFFFFFFFFFFFFFFFFFFFFFFFFFFFFFFFFFFFFFFF AND PUSH4 0x40C10F19 DUP4 DUP4 PUSH1 0x40 MLOAD DUP4 PUSH4 0xFFFFFFFF AND PUSH1 0xE0 SHL DUP2 MSTORE PUSH1 0x4 ADD DUP1 DUP4 PUSH20 0xFFFFFFFFFFFFFFFFFFFFFFFFFFFFFFFFFFFFFFFF AND DUP2 MSTORE PUSH1 0x20 ADD DUP3 DUP2 MSTORE PUSH1 0x20 ADD SWAP3 POP POP POP PUSH1 0x0 PUSH1 0x40 MLOAD DUP1 DUP4 SUB DUP2 PUSH1 0x0 DUP8 DUP1 EXTCODESIZE ISZERO DUP1 ISZERO PUSH2 0x3BCF JUMPI PUSH1 0x0 DUP1 REVERT JUMPDEST POP GAS CALL ISZERO DUP1 ISZERO PUSH2 0x3BE3 JUMPI RETURNDATASIZE PUSH1 0x0 DUP1 RETURNDATACOPY RETURNDATASIZE PUSH1 0x0 REVERT JUMPDEST POP POP POP POP DUP2 PUSH20 0xFFFFFFFFFFFFFFFFFFFFFFFFFFFFFFFFFFFFFFFF AND DUP5 PUSH20 0xFFFFFFFFFFFFFFFFFFFFFFFFFFFFFFFFFFFFFFFF AND PUSH32 0xA721AB4682CEB61C7E4D264EF879FC419A6D764B136E7D96EF54B2053C75673 DUP4 PUSH1 0x40 MLOAD DUP1 DUP3 DUP2 MSTORE PUSH1 0x20 ADD SWAP2 POP POP PUSH1 0x40 MLOAD DUP1 SWAP2 SUB SWAP1 LOG3 POP JUMPDEST POP POP POP JUMP JUMPDEST PUSH2 0x3CF0 DUP4 PUSH4 0xA9059CBB PUSH1 0xE0 SHL DUP5 DUP5 PUSH1 0x40 MLOAD PUSH1 0x24 ADD DUP1 DUP4 PUSH20 0xFFFFFFFFFFFFFFFFFFFFFFFFFFFFFFFFFFFFFFFF AND DUP2 MSTORE PUSH1 0x20 ADD DUP3 DUP2 MSTORE PUSH1 0x20 ADD SWAP3 POP POP POP PUSH1 0x40 MLOAD PUSH1 0x20 DUP2 DUP4 SUB SUB DUP2 MSTORE SWAP1 PUSH1 0x40 MSTORE SWAP1 PUSH28 0xFFFFFFFFFFFFFFFFFFFFFFFFFFFFFFFFFFFFFFFFFFFFFFFFFFFFFFFF NOT AND PUSH1 0x20 DUP3 ADD DUP1 MLOAD PUSH28 0xFFFFFFFFFFFFFFFFFFFFFFFFFFFFFFFFFFFFFFFFFFFFFFFFFFFFFFFF DUP4 DUP2 DUP4 AND OR DUP4 MSTORE POP POP POP POP PUSH2 0x436E JUMP JUMPDEST POP POP POP JUMP JUMPDEST PUSH1 0x0 DUP1 DUP3 DUP5 ADD SWAP1 POP DUP4 DUP2 LT ISZERO PUSH2 0x3D73 JUMPI PUSH1 0x40 MLOAD PUSH32 0x8C379A000000000000000000000000000000000000000000000000000000000 DUP2 MSTORE PUSH1 0x4 ADD DUP1 DUP1 PUSH1 0x20 ADD DUP3 DUP2 SUB DUP3 MSTORE PUSH1 0x1B DUP2 MSTORE PUSH1 0x20 ADD DUP1 PUSH32 0x536166654D6174683A206164646974696F6E206F766572666C6F770000000000 DUP2 MSTORE POP PUSH1 0x20 ADD SWAP2 POP POP PUSH1 0x40 MLOAD DUP1 SWAP2 SUB SWAP1 REVERT JUMPDEST DUP1 SWAP2 POP POP SWAP3 SWAP2 POP POP JUMP JUMPDEST DUP1 PUSH20 0xFFFFFFFFFFFFFFFFFFFFFFFFFFFFFFFFFFFFFFFF AND DUP2 PUSH20 0xFFFFFFFFFFFFFFFFFFFFFFFFFFFFFFFFFFFFFFFF AND EQ DUP1 ISZERO PUSH2 0x3E43 JUMPI POP PUSH1 0x0 PUSH20 0xFFFFFFFFFFFFFFFFFFFFFFFFFFFFFFFFFFFFFFFF AND PUSH1 0xB PUSH1 0x0 DUP5 PUSH20 0xFFFFFFFFFFFFFFFFFFFFFFFFFFFFFFFFFFFFFFFF AND PUSH20 0xFFFFFFFFFFFFFFFFFFFFFFFFFFFFFFFFFFFFFFFF AND DUP2 MSTORE PUSH1 0x20 ADD SWAP1 DUP2 MSTORE PUSH1 0x20 ADD PUSH1 0x0 KECCAK256 PUSH1 0x0 SWAP1 SLOAD SWAP1 PUSH2 0x100 EXP SWAP1 DIV PUSH20 0xFFFFFFFFFFFFFFFFFFFFFFFFFFFFFFFFFFFFFFFF AND PUSH20 0xFFFFFFFFFFFFFFFFFFFFFFFFFFFFFFFFFFFFFFFF AND EQ JUMPDEST DUP1 ISZERO PUSH2 0x3E7C JUMPI POP PUSH1 0x0 PUSH20 0xFFFFFFFFFFFFFFFFFFFFFFFFFFFFFFFFFFFFFFFF AND DUP2 PUSH20 0xFFFFFFFFFFFFFFFFFFFFFFFFFFFFFFFFFFFFFFFF AND EQ ISZERO JUMPDEST DUP1 ISZERO PUSH2 0x3EB4 JUMPI POP DUP2 PUSH20 0xFFFFFFFFFFFFFFFFFFFFFFFFFFFFFFFFFFFFFFFF AND DUP2 PUSH20 0xFFFFFFFFFFFFFFFFFFFFFFFFFFFFFFFFFFFFFFFF AND EQ ISZERO JUMPDEST ISZERO PUSH2 0x3FE0 JUMPI DUP1 PUSH1 0xB PUSH1 0x0 DUP5 PUSH20 0xFFFFFFFFFFFFFFFFFFFFFFFFFFFFFFFFFFFFFFFF AND PUSH20 0xFFFFFFFFFFFFFFFFFFFFFFFFFFFFFFFFFFFFFFFF AND DUP2 MSTORE PUSH1 0x20 ADD SWAP1 DUP2 MSTORE PUSH1 0x20 ADD PUSH1 0x0 KECCAK256 PUSH1 0x0 PUSH2 0x100 EXP DUP2 SLOAD DUP2 PUSH20 0xFFFFFFFFFFFFFFFFFFFFFFFFFFFFFFFFFFFFFFFF MUL NOT AND SWAP1 DUP4 PUSH20 0xFFFFFFFFFFFFFFFFFFFFFFFFFFFFFFFFFFFFFFFF AND MUL OR SWAP1 SSTORE POP PUSH1 0x1 PUSH1 0xC PUSH1 0x0 DUP4 PUSH20 0xFFFFFFFFFFFFFFFFFFFFFFFFFFFFFFFFFFFFFFFF AND PUSH20 0xFFFFFFFFFFFFFFFFFFFFFFFFFFFFFFFFFFFFFFFF AND DUP2 MSTORE PUSH1 0x20 ADD SWAP1 DUP2 MSTORE PUSH1 0x20 ADD PUSH1 0x0 KECCAK256 PUSH1 0x0 DUP3 DUP3 SLOAD ADD SWAP3 POP POP DUP2 SWAP1 SSTORE POP DUP1 PUSH20 0xFFFFFFFFFFFFFFFFFFFFFFFFFFFFFFFFFFFFFFFF AND DUP3 PUSH20 0xFFFFFFFFFFFFFFFFFFFFFFFFFFFFFFFFFFFFFFFF AND PUSH32 0x9D05414FB79FAC216C15606DE5CC06664E91A254E4D5F57664D5F1BEAF7FB7EF PUSH1 0x40 MLOAD PUSH1 0x40 MLOAD DUP1 SWAP2 SUB SWAP1 LOG3 JUMPDEST POP POP JUMP JUMPDEST PUSH2 0x409F DUP5 PUSH4 0x23B872DD PUSH1 0xE0 SHL DUP6 DUP6 DUP6 PUSH1 0x40 MLOAD PUSH1 0x24 ADD DUP1 DUP5 PUSH20 0xFFFFFFFFFFFFFFFFFFFFFFFFFFFFFFFFFFFFFFFF AND DUP2 MSTORE PUSH1 0x20 ADD DUP4 PUSH20 0xFFFFFFFFFFFFFFFFFFFFFFFFFFFFFFFFFFFFFFFF AND DUP2 MSTORE PUSH1 0x20 ADD DUP3 DUP2 MSTORE PUSH1 0x20 ADD SWAP4 POP POP POP POP PUSH1 0x40 MLOAD PUSH1 0x20 DUP2 DUP4 SUB SUB DUP2 MSTORE SWAP1 PUSH1 0x40 MSTORE SWAP1 PUSH28 0xFFFFFFFFFFFFFFFFFFFFFFFFFFFFFFFFFFFFFFFFFFFFFFFFFFFFFFFF NOT AND PUSH1 0x20 DUP3 ADD DUP1 MLOAD PUSH28 0xFFFFFFFFFFFFFFFFFFFFFFFFFFFFFFFFFFFFFFFFFFFFFFFFFFFFFFFF DUP4 DUP2 DUP4 AND OR DUP4 MSTORE POP POP POP POP PUSH2 0x436E JUMP JUMPDEST POP POP POP POP JUMP JUMPDEST PUSH1 0x0 PUSH20 0xFFFFFFFFFFFFFFFFFFFFFFFFFFFFFFFFFFFFFFFF AND DUP2 PUSH20 0xFFFFFFFFFFFFFFFFFFFFFFFFFFFFFFFFFFFFFFFF AND EQ ISZERO PUSH2 0x412B JUMPI PUSH1 0x40 MLOAD PUSH32 0x8C379A000000000000000000000000000000000000000000000000000000000 DUP2 MSTORE PUSH1 0x4 ADD DUP1 DUP1 PUSH1 0x20 ADD DUP3 DUP2 SUB DUP3 MSTORE PUSH1 0x26 DUP2 MSTORE PUSH1 0x20 ADD DUP1 PUSH2 0x4787 PUSH1 0x26 SWAP2 CODECOPY PUSH1 0x40 ADD SWAP2 POP POP PUSH1 0x40 MLOAD DUP1 SWAP2 SUB SWAP1 REVERT JUMPDEST DUP1 PUSH20 0xFFFFFFFFFFFFFFFFFFFFFFFFFFFFFFFFFFFFFFFF AND PUSH1 0x0 DUP1 SLOAD SWAP1 PUSH2 0x100 EXP SWAP1 DIV PUSH20 0xFFFFFFFFFFFFFFFFFFFFFFFFFFFFFFFFFFFFFFFF AND PUSH20 0xFFFFFFFFFFFFFFFFFFFFFFFFFFFFFFFFFFFFFFFF AND PUSH32 0x8BE0079C531659141344CD1FD0A4F28419497F9722A3DAAFE3B4186F6B6457E0 PUSH1 0x40 MLOAD PUSH1 0x40 MLOAD DUP1 SWAP2 SUB SWAP1 LOG3 DUP1 PUSH1 0x0 DUP1 PUSH2 0x100 EXP DUP2 SLOAD DUP2 PUSH20 0xFFFFFFFFFFFFFFFFFFFFFFFFFFFFFFFFFFFFFFFF MUL NOT AND SWAP1 DUP4 PUSH20 0xFFFFFFFFFFFFFFFFFFFFFFFFFFFFFFFFFFFFFFFF AND MUL OR SWAP1 SSTORE POP POP JUMP JUMPDEST PUSH1 0x0 DUP1 DUP4 GT DUP3 SWAP1 PUSH2 0x4294 JUMPI PUSH1 0x40 MLOAD PUSH32 0x8C379A000000000000000000000000000000000000000000000000000000000 DUP2 MSTORE PUSH1 0x4 ADD DUP1 DUP1 PUSH1 0x20 ADD DUP3 DUP2 SUB DUP3 MSTORE DUP4 DUP2 DUP2 MLOAD DUP2 MSTORE PUSH1 0x20 ADD SWAP2 POP DUP1 MLOAD SWAP1 PUSH1 0x20 ADD SWAP1 DUP1 DUP4 DUP4 PUSH1 0x0 JUMPDEST DUP4 DUP2 LT ISZERO PUSH2 0x4259 JUMPI DUP1 DUP3 ADD MLOAD DUP2 DUP5 ADD MSTORE PUSH1 0x20 DUP2 ADD SWAP1 POP PUSH2 0x423E JUMP JUMPDEST POP POP POP POP SWAP1 POP SWAP1 DUP2 ADD SWAP1 PUSH1 0x1F AND DUP1 ISZERO PUSH2 0x4286 JUMPI DUP1 DUP3 SUB DUP1 MLOAD PUSH1 0x1 DUP4 PUSH1 0x20 SUB PUSH2 0x100 EXP SUB NOT AND DUP2 MSTORE PUSH1 0x20 ADD SWAP2 POP JUMPDEST POP SWAP3 POP POP POP PUSH1 0x40 MLOAD DUP1 SWAP2 SUB SWAP1 REVERT JUMPDEST POP PUSH1 0x0 DUP4 DUP6 DUP2 PUSH2 0x42A0 JUMPI INVALID JUMPDEST DIV SWAP1 POP DUP1 SWAP2 POP POP SWAP4 SWAP3 POP POP POP JUMP JUMPDEST PUSH1 0x0 DUP4 DUP4 GT ISZERO DUP3 SWAP1 PUSH2 0x435B JUMPI PUSH1 0x40 MLOAD PUSH32 0x8C379A000000000000000000000000000000000000000000000000000000000 DUP2 MSTORE PUSH1 0x4 ADD DUP1 DUP1 PUSH1 0x20 ADD DUP3 DUP2 SUB DUP3 MSTORE DUP4 DUP2 DUP2 MLOAD DUP2 MSTORE PUSH1 0x20 ADD SWAP2 POP DUP1 MLOAD SWAP1 PUSH1 0x20 ADD SWAP1 DUP1 DUP4 DUP4 PUSH1 0x0 JUMPDEST DUP4 DUP2 LT ISZERO PUSH2 0x4320 JUMPI DUP1 DUP3 ADD MLOAD DUP2 DUP5 ADD MSTORE PUSH1 0x20 DUP2 ADD SWAP1 POP PUSH2 0x4305 JUMP JUMPDEST POP POP POP POP SWAP1 POP SWAP1 DUP2 ADD SWAP1 PUSH1 0x1F AND DUP1 ISZERO PUSH2 0x434D JUMPI DUP1 DUP3 SUB DUP1 MLOAD PUSH1 0x1 DUP4 PUSH1 0x20 SUB PUSH2 0x100 EXP SUB NOT AND DUP2 MSTORE PUSH1 0x20 ADD SWAP2 POP JUMPDEST POP SWAP3 POP POP POP PUSH1 0x40 MLOAD DUP1 SWAP2 SUB SWAP1 REVERT JUMPDEST POP PUSH1 0x0 DUP4 DUP6 SUB SWAP1 POP DUP1 SWAP2 POP POP SWAP4 SWAP3 POP POP POP JUMP JUMPDEST PUSH1 0x60 PUSH2 0x43D0 DUP3 PUSH1 0x40 MLOAD DUP1 PUSH1 0x40 ADD PUSH1 0x40 MSTORE DUP1 PUSH1 0x20 DUP2 MSTORE PUSH1 0x20 ADD PUSH32 0x5361666542455032303A206C6F772D6C6576656C2063616C6C206661696C6564 DUP2 MSTORE POP DUP6 PUSH20 0xFFFFFFFFFFFFFFFFFFFFFFFFFFFFFFFFFFFFFFFF AND PUSH2 0x445D SWAP1 SWAP3 SWAP2 SWAP1 PUSH4 0xFFFFFFFF AND JUMP JUMPDEST SWAP1 POP PUSH1 0x0 DUP2 MLOAD GT ISZERO PUSH2 0x4458 JUMPI DUP1 DUP1 PUSH1 0x20 ADD SWAP1 MLOAD PUSH1 0x20 DUP2 LT ISZERO PUSH2 0x43F1 JUMPI PUSH1 0x0 DUP1 REVERT JUMPDEST DUP2 ADD SWAP1 DUP1 DUP1 MLOAD SWAP1 PUSH1 0x20 ADD SWAP1 SWAP3 SWAP2 SWAP1 POP POP POP PUSH2 0x4457 JUMPI PUSH1 0x40 MLOAD PUSH32 0x8C379A000000000000000000000000000000000000000000000000000000000 DUP2 MSTORE PUSH1 0x4 ADD DUP1 DUP1 PUSH1 0x20 ADD DUP3 DUP2 SUB DUP3 MSTORE PUSH1 0x2A DUP2 MSTORE PUSH1 0x20 ADD DUP1 PUSH2 0x475D PUSH1 0x2A SWAP2 CODECOPY PUSH1 0x40 ADD SWAP2 POP POP PUSH1 0x40 MLOAD DUP1 SWAP2 SUB SWAP1 REVERT JUMPDEST JUMPDEST POP POP POP JUMP JUMPDEST PUSH1 0x60 PUSH2 0x446C DUP5 DUP5 PUSH1 0x0 DUP6 PUSH2 0x4475 JUMP JUMPDEST SWAP1 POP SWAP4 SWAP3 POP POP POP JUMP JUMPDEST PUSH1 0x60 DUP3 SELFBALANCE LT ISZERO PUSH2 0x44D0 JUMPI PUSH1 0x40 MLOAD PUSH32 0x8C379A000000000000000000000000000000000000000000000000000000000 DUP2 MSTORE PUSH1 0x4 ADD DUP1 DUP1 PUSH1 0x20 ADD DUP3 DUP2 SUB DUP3 MSTORE PUSH1 0x26 DUP2 MSTORE PUSH1 0x20 ADD DUP1 PUSH2 0x47F0 PUSH1 0x26 SWAP2 CODECOPY PUSH1 0x40 ADD SWAP2 POP POP PUSH1 0x40 MLOAD DUP1 SWAP2 SUB SWAP1 REVERT JUMPDEST PUSH2 0x44D9 DUP6 PUSH2 0x461E JUMP JUMPDEST PUSH2 0x454B JUMPI PUSH1 0x40 MLOAD PUSH32 0x8C379A000000000000000000000000000000000000000000000000000000000 DUP2 MSTORE PUSH1 0x4 ADD DUP1 DUP1 PUSH1 0x20 ADD DUP3 DUP2 SUB DUP3 MSTORE PUSH1 0x1D DUP2 MSTORE PUSH1 0x20 ADD DUP1 PUSH32 0x416464726573733A2063616C6C20746F206E6F6E2D636F6E7472616374000000 DUP2 MSTORE POP PUSH1 0x20 ADD SWAP2 POP POP PUSH1 0x40 MLOAD DUP1 SWAP2 SUB SWAP1 REVERT JUMPDEST PUSH1 0x0 PUSH1 0x60 DUP7 PUSH20 0xFFFFFFFFFFFFFFFFFFFFFFFFFFFFFFFFFFFFFFFF AND DUP6 DUP8 PUSH1 0x40 MLOAD DUP1 DUP3 DUP1 MLOAD SWAP1 PUSH1 0x20 ADD SWAP1 DUP1 DUP4 DUP4 JUMPDEST PUSH1 0x20 DUP4 LT PUSH2 0x459B JUMPI DUP1 MLOAD DUP3 MSTORE PUSH1 0x20 DUP3 ADD SWAP2 POP PUSH1 0x20 DUP2 ADD SWAP1 POP PUSH1 0x20 DUP4 SUB SWAP3 POP PUSH2 0x4578 JUMP JUMPDEST PUSH1 0x1 DUP4 PUSH1 0x20 SUB PUSH2 0x100 EXP SUB DUP1 NOT DUP3 MLOAD AND DUP2 DUP5 MLOAD AND DUP1 DUP3 OR DUP6 MSTORE POP POP POP POP POP POP SWAP1 POP ADD SWAP2 POP POP PUSH1 0x0 PUSH1 0x40 MLOAD DUP1 DUP4 SUB DUP2 DUP6 DUP8 GAS CALL SWAP3 POP POP POP RETURNDATASIZE DUP1 PUSH1 0x0 DUP2 EQ PUSH2 0x45FD JUMPI PUSH1 0x40 MLOAD SWAP2 POP PUSH1 0x1F NOT PUSH1 0x3F RETURNDATASIZE ADD AND DUP3 ADD PUSH1 0x40 MSTORE RETURNDATASIZE DUP3 MSTORE RETURNDATASIZE PUSH1 0x0 PUSH1 0x20 DUP5 ADD RETURNDATACOPY PUSH2 0x4602 JUMP JUMPDEST PUSH1 0x60 SWAP2 POP JUMPDEST POP SWAP2 POP SWAP2 POP PUSH2 0x4612 DUP3 DUP3 DUP7 PUSH2 0x4631 JUMP JUMPDEST SWAP3 POP POP POP SWAP5 SWAP4 POP POP POP POP JUMP JUMPDEST PUSH1 0x0 DUP1 DUP3 EXTCODESIZE SWAP1 POP PUSH1 0x0 DUP2 GT SWAP2 POP POP SWAP2 SWAP1 POP JUMP JUMPDEST PUSH1 0x60 DUP4 ISZERO PUSH2 0x4641 JUMPI DUP3 SWAP1 POP PUSH2 0x46F6 JUMP JUMPDEST PUSH1 0x0 DUP4 MLOAD GT ISZERO PUSH2 0x4654 JUMPI DUP3 MLOAD DUP1 DUP5 PUSH1 0x20 ADD REVERT JUMPDEST DUP2 PUSH1 0x40 MLOAD PUSH32 0x8C379A000000000000000000000000000000000000000000000000000000000 DUP2 MSTORE PUSH1 0x4 ADD DUP1 DUP1 PUSH1 0x20 ADD DUP3 DUP2 SUB DUP3 MSTORE DUP4 DUP2 DUP2 MLOAD DUP2 MSTORE PUSH1 0x20 ADD SWAP2 POP DUP1 MLOAD SWAP1 PUSH1 0x20 ADD SWAP1 DUP1 DUP4 DUP4 PUSH1 0x0 JUMPDEST DUP4 DUP2 LT ISZERO PUSH2 0x46BB JUMPI DUP1 DUP3 ADD MLOAD DUP2 DUP5 ADD MSTORE PUSH1 0x20 DUP2 ADD SWAP1 POP PUSH2 0x46A0 JUMP JUMPDEST POP POP POP POP SWAP1 POP SWAP1 DUP2 ADD SWAP1 PUSH1 0x1F AND DUP1 ISZERO PUSH2 0x46E8 JUMPI DUP1 DUP3 SUB DUP1 MLOAD PUSH1 0x1 DUP4 PUSH1 0x20 SUB PUSH2 0x100 EXP SUB NOT AND DUP2 MSTORE PUSH1 0x20 ADD SWAP2 POP JUMPDEST POP SWAP3 POP POP POP PUSH1 0x40 MLOAD DUP1 SWAP2 SUB SWAP1 REVERT JUMPDEST SWAP4 SWAP3 POP POP POP JUMP INVALID PUSH2 0x6464 GASPRICE KECCAK256 PUSH10 0x6E76616C696420646570 PUSH16 0x7369742066656520626173697320706F PUSH10 0x6E747375706461746552 PUSH6 0x66426F6E7573 POP PUSH6 0x7263656E743A KECCAK256 PUSH10 0x6E76616C696420726566 PUSH6 0x7272616C2062 PUSH16 0x6E757320626173697320706F696E7473 MSTORE8 PUSH2 0x6665 TIMESTAMP GASLIMIT POP ORIGIN ADDRESS GASPRICE KECCAK256 TIMESTAMP GASLIMIT POP ORIGIN ADDRESS KECCAK256 PUSH16 0x7065726174696F6E20646964206E6F74 KECCAK256 PUSH20 0x7563636565644F776E61626C653A206E6577206F PUSH24 0x6E657220697320746865207A65726F206164647265737373 PUSH2 0x6665 POP PUSH13 0x756D5472616E736665723A2074 PUSH19 0x616E73666572206661696C65642E6465706F73 PUSH10 0x743A20496E76616C6964 KECCAK256 PUSH19 0x65666572726572206164647265737341646472 PUSH6 0x73733A20696E PUSH20 0x756666696369656E742062616C616E636520666F PUSH19 0x2063616C6C536166654D6174683A206D756C74 PUSH10 0x706C69636174696F6E20 PUSH16 0x766572666C6F777365743A20696E7661 PUSH13 0x6964206465706F736974206665 PUSH6 0x206261736973 KECCAK256 PUSH17 0x6F696E7473757064617465526566426F6E PUSH22 0x7350657263656E743A2073616D6520626F6E75732062 PUSH17 0x20736574726564756365456D697373696F PUSH15 0x526174655769746844656661756C74 MSTORE PUSH2 0x7465 GASPRICE KECCAK256 NUMBER PUSH2 0x6E20 PUSH16 0x6E6C792062652063616C6C6564206166 PUSH21 0x65722073706563696669656420626C6F636B207374 PUSH2 0x7274 PUSH20 0x676574506F6F6C4964466F724C70546F6B656E3A KECCAK256 PUSH5 0x6F206E6F74 KECCAK256 PUSH6 0x786973747265 PUSH5 0x756365456D PUSH10 0x7373696F6E5261746557 PUSH10 0x746844656661756C7452 PUSH2 0x7465 GASPRICE KECCAK256 GASLIMIT PUSH14 0x697373696F6E2072617465206861 PUSH20 0x207265616368656420746865206D696E696D756D KECCAK256 PUSH21 0x68726573686F6C64726564756365456D697373696F PUSH15 0x526174655769746844656661756C74 MSTORE PUSH2 0x7465 GASPRICE KECCAK256 POP PUSH6 0x726D69737369 PUSH16 0x6E20666C6167206E6F74207475726E65 PUSH5 0x206F6EA264 PUSH10 0x7066735822122046C850 0xB4 MSIZE PUSH7 0x47F7FD3AF49B28 SAR 0xCE RETURNDATACOPY PUSH17 0x7D122B17E3222B2F84A5E7CCB901A76473 PUSH16 0x6C634300060C00330000000000000000 "},"gasEstimates":{"creation":{"codeDepositCost":"3775600","executionCost":"infinite","totalCost":"infinite"},"external":{"EMISSION_REDUCTION_PERIOD_BLOCKS()":"338","EMISSION_REDUCTION_RATE_PER_PERIOD()":"250","INITIAL_EMISSION_RATE()":"339","MAXIMUM_DEPOSIT_FEE_BP()":"278","MAXIMUM_REFERRAL_BP()":"257","MINIMUM_EMISSION_RATE()":"317","add(uint256,address,uint16,bool,uint256)":"infinite","canWithdrawReward(uint256)":"2179","deposit(uint256,uint256)":"infinite","deposit(uint256,uint256,address)":"infinite","devAddr()":"1091","emergencyWithdraw(uint256)":"infinite","feeAddress()":"1159","getMultiplier(uint256,uint256)":"infinite","getPoolIdForLpToken(address)":"infinite","getReferral(address)":"1306","isAllowReduceEmissionRate()":"1203","lastReductionPeriodIndex()":"1116","massUpdatePools()":"infinite","owner()":"1123","pendingTEXO(uint256,address)":"infinite","poolExistence(address)":"1289","poolIdForLpAddress(address)":"1258","poolInfo(uint256)":"6318","poolLength()":"1068","reduceEmissionRateWithDefaultRate()":"infinite","refBonusBP()":"1094","referredCount(address)":"1259","referrers(address)":"1246","renounceOwnership()":"24424","set(uint256,uint256,uint16,bool,uint256)":"infinite","setBlockToStartReducingEmissionRate(uint256)":"21284","setDevAddress(address)":"23664","setEmissionRate(uint256)":"21255","setFeeAddress(address)":"23599","setFlagAllowReduceEmissionRate(bool)":"22158","tEXO()":"1180","tEXOPerBlock()":"1072","totalAllocPoint()":"1096","transferOwnership(address)":"infinite","updatePool(uint256)":"infinite","updateReferralBonusBp(uint256)":"infinite","userInfo(uint256,address)":"3026","withdraw(uint256,uint256)":"infinite"},"internal":{"payReferralCommission(address,uint256)":"infinite","safeTEXOTransfer(address,uint256)":"infinite","setReferral(address,address)":"44546"}},"methodIdentifiers":{"EMISSION_REDUCTION_PERIOD_BLOCKS()":"d4adafdf","EMISSION_REDUCTION_RATE_PER_PERIOD()":"b7eee1f1","INITIAL_EMISSION_RATE()":"91bb809c","MAXIMUM_DEPOSIT_FEE_BP()":"955c9b93","MAXIMUM_REFERRAL_BP()":"3a22df78","MINIMUM_EMISSION_RATE()":"61e0c468","add(uint256,address,uint16,bool,uint256)":"fab96ae6","canWithdrawReward(uint256)":"b51d4c80","deposit(uint256,uint256)":"e2bbb158","deposit(uint256,uint256,address)":"8dbdbe6d","devAddr()":"da09c72c","emergencyWithdraw(uint256)":"5312ea8e","feeAddress()":"41275358","getMultiplier(uint256,uint256)":"8dbb1e3a","getPoolIdForLpToken(address)":"190f39f0","getReferral(address)":"3b0f0f2f","isAllowReduceEmissionRate()":"47e3cda5","lastReductionPeriodIndex()":"6a9a7660","massUpdatePools()":"630b5ba1","owner()":"8da5cb5b","pendingTEXO(uint256,address)":"dfe3d2cd","poolExistence(address)":"cbd258b5","poolIdForLpAddress(address)":"9bf62f7e","poolInfo(uint256)":"1526fe27","poolLength()":"081e3eda","reduceEmissionRateWithDefaultRate()":"ea76bc29","refBonusBP()":"66f685ea","referredCount(address)":"3f7b06d8","referrers(address)":"4a3b68cc","renounceOwnership()":"715018a6","set(uint256,uint256,uint16,bool,uint256)":"c6df25bd","setBlockToStartReducingEmissionRate(uint256)":"1eb704b0","setDevAddress(address)":"d0d41fe1","setEmissionRate(uint256)":"a1bdb15e","setFeeAddress(address)":"8705fcd4","setFlagAllowReduceEmissionRate(bool)":"80361747","tEXO()":"ae715d70","tEXOPerBlock()":"660f8340","totalAllocPoint()":"17caf6f1","transferOwnership(address)":"f2fde38b","updatePool(uint256)":"51eb05a6","updateReferralBonusBp(uint256)":"64ed743b","userInfo(uint256,address)":"93f1a40b","withdraw(uint256,uint256)":"441a3e70"}},"storageLayout":{"storage":[{"astId":325,"contract":"TEXOToken.sol:TEXOOrchestrator","label":"_owner","offset":0,"slot":"0","type":"t_address"},{"astId":688,"contract":"TEXOToken.sol:TEXOOrchestrator","label":"_status","offset":0,"slot":"1","type":"t_uint256"},{"astId":1487,"contract":"TEXOToken.sol:TEXOOrchestrator","label":"tEXO","offset":0,"slot":"2","type":"t_contract(TEXOToken)1454"},{"astId":1489,"contract":"TEXOToken.sol:TEXOOrchestrator","label":"devAddr","offset":0,"slot":"3","type":"t_address"},{"astId":1491,"contract":"TEXOToken.sol:TEXOOrchestrator","label":"tEXOPerBlock","offset":0,"slot":"4","type":"t_uint256"},{"astId":1493,"contract":"TEXOToken.sol:TEXOOrchestrator","label":"feeAddress","offset":0,"slot":"5","type":"t_address"},{"astId":1495,"contract":"TEXOToken.sol:TEXOOrchestrator","label":"blockToStartReducingEmissionRate","offset":0,"slot":"6","type":"t_uint256"},{"astId":1498,"contract":"TEXOToken.sol:TEXOOrchestrator","label":"poolInfo","offset":0,"slot":"7","type":"t_array(t_struct(PoolInfo)1485_storage)dyn_storage"},{"astId":1504,"contract":"TEXOToken.sol:TEXOOrchestrator","label":"userInfo","offset":0,"slot":"8","type":"t_mapping(t_uint256,t_mapping(t_address,t_struct(UserInfo)1472_storage))"},{"astId":1507,"contract":"TEXOToken.sol:TEXOOrchestrator","label":"totalAllocPoint","offset":0,"slot":"9","type":"t_uint256"},{"astId":1510,"contract":"TEXOToken.sol:TEXOOrchestrator","label":"refBonusBP","offset":0,"slot":"10","type":"t_uint256"},{"astId":1520,"contract":"TEXOToken.sol:TEXOOrchestrator","label":"referrers","offset":0,"slot":"11","type":"t_mapping(t_address,t_address)"},{"astId":1524,"contract":"TEXOToken.sol:TEXOOrchestrator","label":"referredCount","offset":0,"slot":"12","type":"t_mapping(t_address,t_uint256)"},{"astId":1528,"contract":"TEXOToken.sol:TEXOOrchestrator","label":"poolExistence","offset":0,"slot":"13","type":"t_mapping(t_contract(IBEP20)320,t_bool)"},{"astId":1532,"contract":"TEXOToken.sol:TEXOOrchestrator","label":"poolIdForLpAddress","offset":0,"slot":"14","type":"t_mapping(t_contract(IBEP20)320,t_uint256)"},{"astId":1547,"contract":"TEXOToken.sol:TEXOOrchestrator","label":"lastReductionPeriodIndex","offset":0,"slot":"15","type":"t_uint256"},{"astId":1550,"contract":"TEXOToken.sol:TEXOOrchestrator","label":"isAllowReduceEmissionRate","offset":0,"slot":"16","type":"t_bool"}],"types":{"t_address":{"encoding":"inplace","label":"address","numberOfBytes":"20"},"t_array(t_struct(PoolInfo)1485_storage)dyn_storage":{"base":"t_struct(PoolInfo)1485_storage","encoding":"dynamic_array","label":"struct TEXOOrchestrator.PoolInfo[]","numberOfBytes":"32"},"t_bool":{"encoding":"inplace","label":"bool","numberOfBytes":"1"},"t_contract(IBEP20)320":{"encoding":"inplace","label":"contract IBEP20","numberOfBytes":"20"},"t_contract(TEXOToken)1454":{"encoding":"inplace","label":"contract TEXOToken","numberOfBytes":"20"},"t_mapping(t_address,t_address)":{"encoding":"mapping","key":"t_address","label":"mapping(address => address)","numberOfBytes":"32","value":"t_address"},"t_mapping(t_address,t_struct(UserInfo)1472_storage)":{"encoding":"mapping","key":"t_address","label":"mapping(address => struct TEXOOrchestrator.UserInfo)","numberOfBytes":"32","value":"t_struct(UserInfo)1472_storage"},"t_mapping(t_address,t_uint256)":{"encoding":"mapping","key":"t_address","label":"mapping(address => uint256)","numberOfBytes":"32","value":"t_uint256"},"t_mapping(t_contract(IBEP20)320,t_bool)":{"encoding":"mapping","key":"t_contract(IBEP20)320","label":"mapping(contract IBEP20 => bool)","numberOfBytes":"32","value":"t_bool"},"t_mapping(t_contract(IBEP20)320,t_uint256)":{"encoding":"mapping","key":"t_contract(IBEP20)320","label":"mapping(contract IBEP20 => uint256)","numberOfBytes":"32","value":"t_uint256"},"t_mapping(t_uint256,t_mapping(t_address,t_struct(UserInfo)1472_storage))":{"encoding":"mapping","key":"t_uint256","label":"mapping(uint256 => mapping(address => struct TEXOOrchestrator.UserInfo))","numberOfBytes":"32","value":"t_mapping(t_address,t_struct(UserInfo)1472_storage)"},"t_struct(PoolInfo)1485_storage":{"encoding":"inplace","label":"struct TEXOOrchestrator.PoolInfo","members":[{"astId":1474,"contract":"TEXOToken.sol:TEXOOrchestrator","label":"lpToken","offset":0,"slot":"0","type":"t_contract(IBEP20)320"},{"astId":1476,"contract":"TEXOToken.sol:TEXOOrchestrator","label":"allocPoint","offset":0,"slot":"1","type":"t_uint256"},{"astId":1478,"contract":"TEXOToken.sol:TEXOOrchestrator","label":"blockToReceiveReward","offset":0,"slot":"2","type":"t_uint256"},{"astId":1480,"contract":"TEXOToken.sol:TEXOOrchestrator","label":"lastRewardBlock","offset":0,"slot":"3","type":"t_uint256"},{"astId":1482,"contract":"TEXOToken.sol:TEXOOrchestrator","label":"accTEXOPerShare","offset":0,"slot":"4","type":"t_uint256"},{"astId":1484,"contract":"TEXOToken.sol:TEXOOrchestrator","label":"depositFeeBP","offset":0,"slot":"5","type":"t_uint16"}],"numberOfBytes":"192"},"t_struct(UserInfo)1472_storage":{"encoding":"inplace","label":"struct TEXOOrchestrator.UserInfo","members":[{"astId":1467,"contract":"TEXOToken.sol:TEXOOrchestrator","label":"amount","offset":0,"slot":"0","type":"t_uint256"},{"astId":1469,"contract":"TEXOToken.sol:TEXOOrchestrator","label":"rewardDebt","offset":0,"slot":"1","type":"t_uint256"},{"astId":1471,"contract":"TEXOToken.sol:TEXOOrchestrator","label":"isAlreadyStaked","offset":0,"slot":"2","type":"t_bool"}],"numberOfBytes":"96"},"t_uint16":{"encoding":"inplace","label":"uint16","numberOfBytes":"2"},"t_uint256":{"encoding":"inplace","label":"uint256","numberOfBytes":"32"}}},"userdoc":{"kind":"user","methods":{},"version":1}}